{
  "contractName": "BalanceTracker",
  "abi": [
    {
      "inputs": [
        {
          "internalType": "address",
          "name": "deployer",
          "type": "address"
        }
      ],
      "payable": false,
      "stateMutability": "nonpayable",
      "type": "constructor"
    },
    {
      "anonymous": false,
      "inputs": [
        {
          "indexed": false,
          "internalType": "address",
          "name": "service",
          "type": "address"
        }
      ],
      "name": "DeregisterServiceEvent",
      "type": "event"
    },
    {
      "anonymous": false,
      "inputs": [
        {
          "indexed": false,
          "internalType": "address",
          "name": "service",
          "type": "address"
        },
        {
          "indexed": false,
          "internalType": "string",
          "name": "action",
          "type": "string"
        }
      ],
      "name": "DisableServiceActionEvent",
      "type": "event"
    },
    {
      "anonymous": false,
      "inputs": [
        {
          "indexed": false,
          "internalType": "address",
          "name": "service",
          "type": "address"
        },
        {
          "indexed": false,
          "internalType": "string",
          "name": "action",
          "type": "string"
        }
      ],
      "name": "EnableServiceActionEvent",
      "type": "event"
    },
    {
      "anonymous": false,
      "inputs": [
        {
          "indexed": false,
          "internalType": "address",
          "name": "service",
          "type": "address"
        },
        {
          "indexed": false,
          "internalType": "uint256",
          "name": "timeout",
          "type": "uint256"
        }
      ],
      "name": "RegisterServiceDeferredEvent",
      "type": "event"
    },
    {
      "anonymous": false,
      "inputs": [
        {
          "indexed": false,
          "internalType": "address",
          "name": "service",
          "type": "address"
        }
      ],
      "name": "RegisterServiceEvent",
      "type": "event"
    },
    {
      "anonymous": false,
      "inputs": [
        {
          "indexed": false,
          "internalType": "address",
          "name": "wallet",
          "type": "address"
        }
      ],
      "name": "SelfDestructionDisabledEvent",
      "type": "event"
    },
    {
      "anonymous": false,
      "inputs": [
        {
          "indexed": false,
          "internalType": "uint256",
          "name": "timeoutInSeconds",
          "type": "uint256"
        }
      ],
      "name": "ServiceActivationTimeoutEvent",
      "type": "event"
    },
    {
      "anonymous": false,
      "inputs": [
        {
          "indexed": false,
          "internalType": "address",
          "name": "oldDeployer",
          "type": "address"
        },
        {
          "indexed": false,
          "internalType": "address",
          "name": "newDeployer",
          "type": "address"
        }
      ],
      "name": "SetDeployerEvent",
      "type": "event"
    },
    {
      "anonymous": false,
      "inputs": [
        {
          "indexed": false,
          "internalType": "address",
          "name": "oldOperator",
          "type": "address"
        },
        {
          "indexed": false,
          "internalType": "address",
          "name": "newOperator",
          "type": "address"
        }
      ],
      "name": "SetOperatorEvent",
      "type": "event"
    },
    {
      "anonymous": false,
      "inputs": [
        {
          "indexed": false,
          "internalType": "address",
          "name": "wallet",
          "type": "address"
        }
      ],
      "name": "TriggerSelfDestructionEvent",
      "type": "event"
    },
    {
      "constant": true,
      "inputs": [],
      "name": "DEPOSITED_BALANCE_TYPE",
      "outputs": [
        {
          "internalType": "string",
          "name": "",
          "type": "string"
        }
      ],
      "payable": false,
      "stateMutability": "view",
      "type": "function"
    },
    {
      "constant": true,
      "inputs": [],
      "name": "SETTLED_BALANCE_TYPE",
      "outputs": [
        {
          "internalType": "string",
          "name": "",
          "type": "string"
        }
      ],
      "payable": false,
      "stateMutability": "view",
      "type": "function"
    },
    {
      "constant": true,
      "inputs": [],
      "name": "STAGED_BALANCE_TYPE",
      "outputs": [
        {
          "internalType": "string",
          "name": "",
          "type": "string"
        }
      ],
      "payable": false,
      "stateMutability": "view",
      "type": "function"
    },
    {
      "constant": true,
      "inputs": [
        {
          "internalType": "uint256",
          "name": "",
          "type": "uint256"
        }
      ],
      "name": "_activeBalanceTypes",
      "outputs": [
        {
          "internalType": "bytes32",
          "name": "",
          "type": "bytes32"
        }
      ],
      "payable": false,
      "stateMutability": "view",
      "type": "function"
    },
    {
      "constant": true,
      "inputs": [
        {
          "internalType": "uint256",
          "name": "",
          "type": "uint256"
        }
      ],
      "name": "_allBalanceTypes",
      "outputs": [
        {
          "internalType": "bytes32",
          "name": "",
          "type": "bytes32"
        }
      ],
      "payable": false,
      "stateMutability": "view",
      "type": "function"
    },
    {
      "constant": true,
      "inputs": [],
      "name": "deployer",
      "outputs": [
        {
          "internalType": "address",
          "name": "",
          "type": "address"
        }
      ],
      "payable": false,
      "stateMutability": "view",
      "type": "function"
    },
    {
      "constant": true,
      "inputs": [],
      "name": "depositedBalanceType",
      "outputs": [
        {
          "internalType": "bytes32",
          "name": "",
          "type": "bytes32"
        }
      ],
      "payable": false,
      "stateMutability": "view",
      "type": "function"
    },
    {
      "constant": false,
      "inputs": [
        {
          "internalType": "address",
          "name": "service",
          "type": "address"
        }
      ],
      "name": "deregisterService",
      "outputs": [],
      "payable": false,
      "stateMutability": "nonpayable",
      "type": "function"
    },
    {
      "constant": true,
      "inputs": [],
      "name": "destructor",
      "outputs": [
        {
          "internalType": "address",
          "name": "",
          "type": "address"
        }
      ],
      "payable": false,
      "stateMutability": "view",
      "type": "function"
    },
    {
      "constant": false,
      "inputs": [],
      "name": "disableSelfDestruction",
      "outputs": [],
      "payable": false,
      "stateMutability": "nonpayable",
      "type": "function"
    },
    {
      "constant": false,
      "inputs": [
        {
          "internalType": "address",
          "name": "service",
          "type": "address"
        },
        {
          "internalType": "string",
          "name": "action",
          "type": "string"
        }
      ],
      "name": "disableServiceAction",
      "outputs": [],
      "payable": false,
      "stateMutability": "nonpayable",
      "type": "function"
    },
    {
      "constant": false,
      "inputs": [
        {
          "internalType": "address",
          "name": "service",
          "type": "address"
        },
        {
          "internalType": "string",
          "name": "action",
          "type": "string"
        }
      ],
      "name": "enableServiceAction",
      "outputs": [],
      "payable": false,
      "stateMutability": "nonpayable",
      "type": "function"
    },
    {
      "constant": true,
      "inputs": [
        {
          "internalType": "address",
          "name": "service",
          "type": "address"
        },
        {
          "internalType": "string",
          "name": "action",
          "type": "string"
        }
      ],
      "name": "isEnabledServiceAction",
      "outputs": [
        {
          "internalType": "bool",
          "name": "",
          "type": "bool"
        }
      ],
      "payable": false,
      "stateMutability": "view",
      "type": "function"
    },
    {
      "constant": true,
      "inputs": [
        {
          "internalType": "address",
          "name": "service",
          "type": "address"
        }
      ],
      "name": "isRegisteredActiveService",
      "outputs": [
        {
          "internalType": "bool",
          "name": "",
          "type": "bool"
        }
      ],
      "payable": false,
      "stateMutability": "view",
      "type": "function"
    },
    {
      "constant": true,
      "inputs": [
        {
          "internalType": "address",
          "name": "service",
          "type": "address"
        }
      ],
      "name": "isRegisteredService",
      "outputs": [
        {
          "internalType": "bool",
          "name": "",
          "type": "bool"
        }
      ],
      "payable": false,
      "stateMutability": "view",
      "type": "function"
    },
    {
      "constant": true,
      "inputs": [],
      "name": "operator",
      "outputs": [
        {
          "internalType": "address",
          "name": "",
          "type": "address"
        }
      ],
      "payable": false,
      "stateMutability": "view",
      "type": "function"
    },
    {
      "constant": false,
      "inputs": [
        {
          "internalType": "address",
          "name": "service",
          "type": "address"
        }
      ],
      "name": "registerService",
      "outputs": [],
      "payable": false,
      "stateMutability": "nonpayable",
      "type": "function"
    },
    {
      "constant": false,
      "inputs": [
        {
          "internalType": "address",
          "name": "service",
          "type": "address"
        }
      ],
      "name": "registerServiceDeferred",
      "outputs": [],
      "payable": false,
      "stateMutability": "nonpayable",
      "type": "function"
    },
    {
      "constant": true,
      "inputs": [],
      "name": "selfDestructionDisabled",
      "outputs": [
        {
          "internalType": "bool",
          "name": "",
          "type": "bool"
        }
      ],
      "payable": false,
      "stateMutability": "view",
      "type": "function"
    },
    {
      "constant": true,
      "inputs": [],
      "name": "serviceActivationTimeout",
      "outputs": [
        {
          "internalType": "uint256",
          "name": "",
          "type": "uint256"
        }
      ],
      "payable": false,
      "stateMutability": "view",
      "type": "function"
    },
    {
      "constant": false,
      "inputs": [
        {
          "internalType": "address",
          "name": "newDeployer",
          "type": "address"
        }
      ],
      "name": "setDeployer",
      "outputs": [],
      "payable": false,
      "stateMutability": "nonpayable",
      "type": "function"
    },
    {
      "constant": false,
      "inputs": [
        {
          "internalType": "address",
          "name": "newOperator",
          "type": "address"
        }
      ],
      "name": "setOperator",
      "outputs": [],
      "payable": false,
      "stateMutability": "nonpayable",
      "type": "function"
    },
    {
      "constant": false,
      "inputs": [
        {
          "internalType": "uint256",
          "name": "timeoutInSeconds",
          "type": "uint256"
        }
      ],
      "name": "setServiceActivationTimeout",
      "outputs": [],
      "payable": false,
      "stateMutability": "nonpayable",
      "type": "function"
    },
    {
      "constant": true,
      "inputs": [],
      "name": "settledBalanceType",
      "outputs": [
        {
          "internalType": "bytes32",
          "name": "",
          "type": "bytes32"
        }
      ],
      "payable": false,
      "stateMutability": "view",
      "type": "function"
    },
    {
      "constant": true,
      "inputs": [],
      "name": "stagedBalanceType",
      "outputs": [
        {
          "internalType": "bytes32",
          "name": "",
          "type": "bytes32"
        }
      ],
      "payable": false,
      "stateMutability": "view",
      "type": "function"
    },
    {
      "constant": true,
      "inputs": [
        {
          "internalType": "bytes32",
          "name": "",
          "type": "bytes32"
        }
      ],
      "name": "trackedBalanceTypeMap",
      "outputs": [
        {
          "internalType": "bool",
          "name": "",
          "type": "bool"
        }
      ],
      "payable": false,
      "stateMutability": "view",
      "type": "function"
    },
    {
      "constant": true,
      "inputs": [
        {
          "internalType": "uint256",
          "name": "",
          "type": "uint256"
        }
      ],
      "name": "trackedBalanceTypes",
      "outputs": [
        {
          "internalType": "bytes32",
          "name": "",
          "type": "bytes32"
        }
      ],
      "payable": false,
      "stateMutability": "view",
      "type": "function"
    },
    {
      "constant": true,
      "inputs": [
        {
          "internalType": "address",
          "name": "",
          "type": "address"
        }
      ],
      "name": "trackedWalletIndexByWallet",
      "outputs": [
        {
          "internalType": "uint256",
          "name": "",
          "type": "uint256"
        }
      ],
      "payable": false,
      "stateMutability": "view",
      "type": "function"
    },
    {
      "constant": true,
      "inputs": [
        {
          "internalType": "uint256",
          "name": "",
          "type": "uint256"
        }
      ],
      "name": "trackedWallets",
      "outputs": [
        {
          "internalType": "address",
          "name": "",
          "type": "address"
        }
      ],
      "payable": false,
      "stateMutability": "view",
      "type": "function"
    },
    {
      "constant": false,
      "inputs": [],
      "name": "triggerSelfDestruction",
      "outputs": [],
      "payable": false,
      "stateMutability": "nonpayable",
      "type": "function"
    },
    {
      "constant": true,
      "inputs": [
        {
          "internalType": "address",
          "name": "wallet",
          "type": "address"
        },
        {
          "internalType": "bytes32",
          "name": "_type",
          "type": "bytes32"
        },
        {
          "internalType": "address",
          "name": "currencyCt",
          "type": "address"
        },
        {
          "internalType": "uint256",
          "name": "currencyId",
          "type": "uint256"
        }
      ],
      "name": "get",
      "outputs": [
        {
          "internalType": "int256",
          "name": "",
          "type": "int256"
        }
      ],
      "payable": false,
      "stateMutability": "view",
      "type": "function"
    },
    {
      "constant": true,
      "inputs": [
        {
          "internalType": "address",
          "name": "wallet",
          "type": "address"
        },
        {
          "internalType": "bytes32",
          "name": "_type",
          "type": "bytes32"
        },
        {
          "internalType": "address",
          "name": "currencyCt",
          "type": "address"
        },
        {
          "internalType": "uint256",
          "name": "currencyId",
          "type": "uint256"
        },
        {
          "internalType": "uint256",
          "name": "indexLow",
          "type": "uint256"
        },
        {
          "internalType": "uint256",
          "name": "indexUp",
          "type": "uint256"
        }
      ],
      "name": "getByIndices",
      "outputs": [
        {
          "internalType": "int256[]",
          "name": "",
          "type": "int256[]"
        }
      ],
      "payable": false,
      "stateMutability": "view",
      "type": "function"
    },
    {
      "constant": true,
      "inputs": [
        {
          "internalType": "address",
          "name": "wallet",
          "type": "address"
        },
        {
          "internalType": "bytes32",
          "name": "_type",
          "type": "bytes32"
        },
        {
          "internalType": "address",
          "name": "currencyCt",
          "type": "address"
        },
        {
          "internalType": "uint256",
          "name": "currencyId",
          "type": "uint256"
        }
      ],
      "name": "getAll",
      "outputs": [
        {
          "internalType": "int256[]",
          "name": "",
          "type": "int256[]"
        }
      ],
      "payable": false,
      "stateMutability": "view",
      "type": "function"
    },
    {
      "constant": true,
      "inputs": [
        {
          "internalType": "address",
          "name": "wallet",
          "type": "address"
        },
        {
          "internalType": "bytes32",
          "name": "_type",
          "type": "bytes32"
        },
        {
          "internalType": "address",
          "name": "currencyCt",
          "type": "address"
        },
        {
          "internalType": "uint256",
          "name": "currencyId",
          "type": "uint256"
        }
      ],
      "name": "idsCount",
      "outputs": [
        {
          "internalType": "uint256",
          "name": "",
          "type": "uint256"
        }
      ],
      "payable": false,
      "stateMutability": "view",
      "type": "function"
    },
    {
      "constant": true,
      "inputs": [
        {
          "internalType": "address",
          "name": "wallet",
          "type": "address"
        },
        {
          "internalType": "bytes32",
          "name": "_type",
          "type": "bytes32"
        },
        {
          "internalType": "int256",
          "name": "id",
          "type": "int256"
        },
        {
          "internalType": "address",
          "name": "currencyCt",
          "type": "address"
        },
        {
          "internalType": "uint256",
          "name": "currencyId",
          "type": "uint256"
        }
      ],
      "name": "hasId",
      "outputs": [
        {
          "internalType": "bool",
          "name": "",
          "type": "bool"
        }
      ],
      "payable": false,
      "stateMutability": "view",
      "type": "function"
    },
    {
      "constant": false,
      "inputs": [
        {
          "internalType": "address",
          "name": "wallet",
          "type": "address"
        },
        {
          "internalType": "bytes32",
          "name": "_type",
          "type": "bytes32"
        },
        {
          "internalType": "int256",
          "name": "value",
          "type": "int256"
        },
        {
          "internalType": "address",
          "name": "currencyCt",
          "type": "address"
        },
        {
          "internalType": "uint256",
          "name": "currencyId",
          "type": "uint256"
        },
        {
          "internalType": "bool",
          "name": "fungible",
          "type": "bool"
        }
      ],
      "name": "set",
      "outputs": [],
      "payable": false,
      "stateMutability": "nonpayable",
      "type": "function"
    },
    {
      "constant": false,
      "inputs": [
        {
          "internalType": "address",
          "name": "wallet",
          "type": "address"
        },
        {
          "internalType": "bytes32",
          "name": "_type",
          "type": "bytes32"
        },
        {
          "internalType": "int256[]",
          "name": "ids",
          "type": "int256[]"
        },
        {
          "internalType": "address",
          "name": "currencyCt",
          "type": "address"
        },
        {
          "internalType": "uint256",
          "name": "currencyId",
          "type": "uint256"
        }
      ],
      "name": "setIds",
      "outputs": [],
      "payable": false,
      "stateMutability": "nonpayable",
      "type": "function"
    },
    {
      "constant": false,
      "inputs": [
        {
          "internalType": "address",
          "name": "wallet",
          "type": "address"
        },
        {
          "internalType": "bytes32",
          "name": "_type",
          "type": "bytes32"
        },
        {
          "internalType": "int256",
          "name": "value",
          "type": "int256"
        },
        {
          "internalType": "address",
          "name": "currencyCt",
          "type": "address"
        },
        {
          "internalType": "uint256",
          "name": "currencyId",
          "type": "uint256"
        },
        {
          "internalType": "bool",
          "name": "fungible",
          "type": "bool"
        }
      ],
      "name": "add",
      "outputs": [],
      "payable": false,
      "stateMutability": "nonpayable",
      "type": "function"
    },
    {
      "constant": false,
      "inputs": [
        {
          "internalType": "address",
          "name": "wallet",
          "type": "address"
        },
        {
          "internalType": "bytes32",
          "name": "_type",
          "type": "bytes32"
        },
        {
          "internalType": "int256",
          "name": "value",
          "type": "int256"
        },
        {
          "internalType": "address",
          "name": "currencyCt",
          "type": "address"
        },
        {
          "internalType": "uint256",
          "name": "currencyId",
          "type": "uint256"
        },
        {
          "internalType": "bool",
          "name": "fungible",
          "type": "bool"
        }
      ],
      "name": "sub",
      "outputs": [],
      "payable": false,
      "stateMutability": "nonpayable",
      "type": "function"
    },
    {
      "constant": true,
      "inputs": [
        {
          "internalType": "address",
          "name": "wallet",
          "type": "address"
        },
        {
          "internalType": "bytes32",
          "name": "_type",
          "type": "bytes32"
        },
        {
          "internalType": "address",
          "name": "currencyCt",
          "type": "address"
        },
        {
          "internalType": "uint256",
          "name": "currencyId",
          "type": "uint256"
        }
      ],
      "name": "hasInUseCurrency",
      "outputs": [
        {
          "internalType": "bool",
          "name": "",
          "type": "bool"
        }
      ],
      "payable": false,
      "stateMutability": "view",
      "type": "function"
    },
    {
      "constant": true,
      "inputs": [
        {
          "internalType": "address",
          "name": "wallet",
          "type": "address"
        },
        {
          "internalType": "bytes32",
          "name": "_type",
          "type": "bytes32"
        },
        {
          "internalType": "address",
          "name": "currencyCt",
          "type": "address"
        },
        {
          "internalType": "uint256",
          "name": "currencyId",
          "type": "uint256"
        }
      ],
      "name": "hasEverUsedCurrency",
      "outputs": [
        {
          "internalType": "bool",
          "name": "",
          "type": "bool"
        }
      ],
      "payable": false,
      "stateMutability": "view",
      "type": "function"
    },
    {
      "constant": true,
      "inputs": [
        {
          "internalType": "address",
          "name": "wallet",
          "type": "address"
        },
        {
          "internalType": "bytes32",
          "name": "_type",
          "type": "bytes32"
        },
        {
          "internalType": "address",
          "name": "currencyCt",
          "type": "address"
        },
        {
          "internalType": "uint256",
          "name": "currencyId",
          "type": "uint256"
        }
      ],
      "name": "fungibleRecordsCount",
      "outputs": [
        {
          "internalType": "uint256",
          "name": "",
          "type": "uint256"
        }
      ],
      "payable": false,
      "stateMutability": "view",
      "type": "function"
    },
    {
      "constant": true,
      "inputs": [
        {
          "internalType": "address",
          "name": "wallet",
          "type": "address"
        },
        {
          "internalType": "bytes32",
          "name": "_type",
          "type": "bytes32"
        },
        {
          "internalType": "address",
          "name": "currencyCt",
          "type": "address"
        },
        {
          "internalType": "uint256",
          "name": "currencyId",
          "type": "uint256"
        },
        {
          "internalType": "uint256",
          "name": "index",
          "type": "uint256"
        }
      ],
      "name": "fungibleRecordByIndex",
      "outputs": [
        {
          "internalType": "int256",
          "name": "amount",
          "type": "int256"
        },
        {
          "internalType": "uint256",
          "name": "blockNumber",
          "type": "uint256"
        }
      ],
      "payable": false,
      "stateMutability": "view",
      "type": "function"
    },
    {
      "constant": true,
      "inputs": [
        {
          "internalType": "address",
          "name": "wallet",
          "type": "address"
        },
        {
          "internalType": "bytes32",
          "name": "_type",
          "type": "bytes32"
        },
        {
          "internalType": "address",
          "name": "currencyCt",
          "type": "address"
        },
        {
          "internalType": "uint256",
          "name": "currencyId",
          "type": "uint256"
        },
        {
          "internalType": "uint256",
          "name": "_blockNumber",
          "type": "uint256"
        }
      ],
      "name": "fungibleRecordByBlockNumber",
      "outputs": [
        {
          "internalType": "int256",
          "name": "amount",
          "type": "int256"
        },
        {
          "internalType": "uint256",
          "name": "blockNumber",
          "type": "uint256"
        }
      ],
      "payable": false,
      "stateMutability": "view",
      "type": "function"
    },
    {
      "constant": true,
      "inputs": [
        {
          "internalType": "address",
          "name": "wallet",
          "type": "address"
        },
        {
          "internalType": "bytes32",
          "name": "_type",
          "type": "bytes32"
        },
        {
          "internalType": "address",
          "name": "currencyCt",
          "type": "address"
        },
        {
          "internalType": "uint256",
          "name": "currencyId",
          "type": "uint256"
        }
      ],
      "name": "lastFungibleRecord",
      "outputs": [
        {
          "internalType": "int256",
          "name": "amount",
          "type": "int256"
        },
        {
          "internalType": "uint256",
          "name": "blockNumber",
          "type": "uint256"
        }
      ],
      "payable": false,
      "stateMutability": "view",
      "type": "function"
    },
    {
      "constant": true,
      "inputs": [
        {
          "internalType": "address",
          "name": "wallet",
          "type": "address"
        },
        {
          "internalType": "bytes32",
          "name": "_type",
          "type": "bytes32"
        },
        {
          "internalType": "address",
          "name": "currencyCt",
          "type": "address"
        },
        {
          "internalType": "uint256",
          "name": "currencyId",
          "type": "uint256"
        }
      ],
      "name": "nonFungibleRecordsCount",
      "outputs": [
        {
          "internalType": "uint256",
          "name": "",
          "type": "uint256"
        }
      ],
      "payable": false,
      "stateMutability": "view",
      "type": "function"
    },
    {
      "constant": true,
      "inputs": [
        {
          "internalType": "address",
          "name": "wallet",
          "type": "address"
        },
        {
          "internalType": "bytes32",
          "name": "_type",
          "type": "bytes32"
        },
        {
          "internalType": "address",
          "name": "currencyCt",
          "type": "address"
        },
        {
          "internalType": "uint256",
          "name": "currencyId",
          "type": "uint256"
        },
        {
          "internalType": "uint256",
          "name": "index",
          "type": "uint256"
        }
      ],
      "name": "nonFungibleRecordByIndex",
      "outputs": [
        {
          "internalType": "int256[]",
          "name": "ids",
          "type": "int256[]"
        },
        {
          "internalType": "uint256",
          "name": "blockNumber",
          "type": "uint256"
        }
      ],
      "payable": false,
      "stateMutability": "view",
      "type": "function"
    },
    {
      "constant": true,
      "inputs": [
        {
          "internalType": "address",
          "name": "wallet",
          "type": "address"
        },
        {
          "internalType": "bytes32",
          "name": "_type",
          "type": "bytes32"
        },
        {
          "internalType": "address",
          "name": "currencyCt",
          "type": "address"
        },
        {
          "internalType": "uint256",
          "name": "currencyId",
          "type": "uint256"
        },
        {
          "internalType": "uint256",
          "name": "_blockNumber",
          "type": "uint256"
        }
      ],
      "name": "nonFungibleRecordByBlockNumber",
      "outputs": [
        {
          "internalType": "int256[]",
          "name": "ids",
          "type": "int256[]"
        },
        {
          "internalType": "uint256",
          "name": "blockNumber",
          "type": "uint256"
        }
      ],
      "payable": false,
      "stateMutability": "view",
      "type": "function"
    },
    {
      "constant": true,
      "inputs": [
        {
          "internalType": "address",
          "name": "wallet",
          "type": "address"
        },
        {
          "internalType": "bytes32",
          "name": "_type",
          "type": "bytes32"
        },
        {
          "internalType": "address",
          "name": "currencyCt",
          "type": "address"
        },
        {
          "internalType": "uint256",
          "name": "currencyId",
          "type": "uint256"
        }
      ],
      "name": "lastNonFungibleRecord",
      "outputs": [
        {
          "internalType": "int256[]",
          "name": "ids",
          "type": "int256[]"
        },
        {
          "internalType": "uint256",
          "name": "blockNumber",
          "type": "uint256"
        }
      ],
      "payable": false,
      "stateMutability": "view",
      "type": "function"
    },
    {
      "constant": true,
      "inputs": [],
      "name": "trackedBalanceTypesCount",
      "outputs": [
        {
          "internalType": "uint256",
          "name": "",
          "type": "uint256"
        }
      ],
      "payable": false,
      "stateMutability": "view",
      "type": "function"
    },
    {
      "constant": true,
      "inputs": [],
      "name": "trackedWalletsCount",
      "outputs": [
        {
          "internalType": "uint256",
          "name": "",
          "type": "uint256"
        }
      ],
      "payable": false,
      "stateMutability": "view",
      "type": "function"
    },
    {
      "constant": true,
      "inputs": [],
      "name": "allBalanceTypes",
      "outputs": [
        {
          "internalType": "bytes32[]",
          "name": "",
          "type": "bytes32[]"
        }
      ],
      "payable": false,
      "stateMutability": "view",
      "type": "function"
    },
    {
      "constant": true,
      "inputs": [],
      "name": "activeBalanceTypes",
      "outputs": [
        {
          "internalType": "bytes32[]",
          "name": "",
          "type": "bytes32[]"
        }
      ],
      "payable": false,
      "stateMutability": "view",
      "type": "function"
    },
    {
      "constant": true,
      "inputs": [
        {
          "internalType": "uint256",
          "name": "low",
          "type": "uint256"
        },
        {
          "internalType": "uint256",
          "name": "up",
          "type": "uint256"
        }
      ],
      "name": "trackedWalletsByIndices",
      "outputs": [
        {
          "internalType": "address[]",
          "name": "",
          "type": "address[]"
        }
      ],
      "payable": false,
      "stateMutability": "view",
      "type": "function"
    }
  ],
  "bytecode": "0x60806040523480156200001157600080fd5b5060405162003b6538038062003b65833981810160405260208110156200003757600080fd5b505180806001600160a01b0381166200004f57600080fd5b6001600160a01b0381163014156200006657600080fd5b5060008054610100600160a81b0319166101006001600160a01b0393909316928302179055600180546001600160a01b031916909117905560408051808201825260098082527f6465706f73697465640000000000000000000000000000000000000000000000602080840191825293519293929092019182918083835b60208310620001055780518252601f199092019160209182019101620000e4565b51815160209384036101000a60001901801990921691161790526040805192909401828103601f19018352808552825192820192909220600455818401845260078083527f736574746c656400000000000000000000000000000000000000000000000000838301908152945192965091019350839291508083835b60208310620001a25780518252601f19909201916020918201910162000181565b51815160209384036101000a60001901801990921691161790526040805192909401828103601f19018352808552825192820192909220600555818401845260068083527f7374616765640000000000000000000000000000000000000000000000000000838301908152945192965091019350839291508083835b602083106200023f5780518252601f1990920191602091820191016200021e565b51815160001960209485036101000a0190811690199190911617905260408051601f199590930183810395909501835293909352805192019190912060069081556005805460078054600181810183557fa66cc928b5edb82af9bd49922954155ab7b0942694bea4ce44661d9a8736c68891820193909355600480548354808601855583015594548254808501909355910155905460088054808401825560008290527ff3f7a9fe364faab93b216da50a3214154f22a0a2b415b23a84c8169e8b636ee3908101929092559254835492830190935501555050505061383b806200032a6000396000f3fe608060405234801561001057600080fd5b50600436106102725760003560e01c8063091a194b1461027757806312b9486a146102c35780631743d99f1461031c57806317ba3f90146103b15780632738a112146103eb5780632b5672e3146103f55780632b91e0a9146104a95780632f013a00146104cf578063383aac89146104d75780633b58c5011461054a5780633b7bea6c146105fe5780634476d23b146106065780634652ec741461062a57806350b08c02146106325780635106c20314610658578063528162c2146106d5578063570ca735146106dd57806357ebc4e1146106e557806359624806146106ed5780635df1b0a31461072f57806362d099a2146107e35780636f4a18151461081d5780636fdf5b791461085757806370327ea11461087457806371f4ec511461087c57806373ac3024146108b657806378106914146108f057806379d6373c146109b45780637d7a23aa146109bc5780637e15dd5c14610a065780638b4dd80814610a235780638e8cef1214610a4957806395b5269714610a6f5780639621473514610aa957806399acf79414610acf578063a246138c14610aec578063a9e93a9f14610b2c578063abccebce14610b72578063ad10e48c14610bb2578063b3ab15fb14610bcf578063b8a92a5514610bf5578063b95ae1cd14610c12578063bd59b4b614610c5c578063c60c5b6c14610c96578063d062ec1d14610c9e578063d0df4d9d14610ce8578063d2f50b4b14610d05578063d5f3948814610d3f578063ded1131014610d47578063e47da35214610d4f578063ec3aa67e14610d57578063f0a2240414610d5f578063fd9b97f514610d9f578063fdd9ec7d14610da7575b600080fd5b6102b16004803603608081101561028d57600080fd5b506001600160a01b0381358116916020810135916040820135169060600135610dcd565b60408051918252519081900360200190f35b610303600480360360a08110156102d957600080fd5b506001600160a01b0381358116916020810135916040820135169060608101359060800135610e0c565b6040805192835260208301919091528051918290030190f35b6103566004803603608081101561033257600080fd5b506001600160a01b0381358116916020810135916040820135169060600135610e51565b6040518080602001838152602001828103825284818151815260200191508051906020019060200280838360005b8381101561039c578181015183820152602001610384565b50505050905001935050505060405180910390f35b6103d7600480360360208110156103c757600080fd5b50356001600160a01b0316610e9a565b604080519115158252519081900360200190f35b6103f3610ed2565b005b6103f36004803603604081101561040b57600080fd5b6001600160a01b038235169190810190604081016020820135600160201b81111561043557600080fd5b82018360208201111561044757600080fd5b803590602001918460018302840111600160201b8311171561046857600080fd5b91908080601f016020809104026020016040519081016040528093929190818152602001838380828437600092019190915250929550610f34945050505050565b6103d7600480360360208110156104bf57600080fd5b50356001600160a01b03166110c9565b6103d76110e7565b6104fa600480360360408110156104ed57600080fd5b50803590602001356110f0565b60408051602080825283518183015283519192839290830191858101910280838360005b8381101561053657818101518382015260200161051e565b505050509050019250505060405180910390f35b6103f36004803603604081101561056057600080fd5b6001600160a01b038235169190810190604081016020820135600160201b81111561058a57600080fd5b82018360208201111561059c57600080fd5b803590602001918460018302840111600160201b831117156105bd57600080fd5b91908080601f01602080910402602001604051908101604052809392919081815260200183838082843760009201919091525092955061129d945050505050565b6102b16113aa565b61060e6113b0565b604080516001600160a01b039092168252519081900360200190f35b6102b16113c5565b6103f36004803603602081101561064857600080fd5b50356001600160a01b03166113cb565b610660611484565b6040805160208082528351818301528351919283929083019185019080838360005b8381101561069a578181015183820152602001610682565b50505050905090810190601f1680156106c75780820380516001836020036101000a031916815260200191505b509250505060405180910390f35b6106606114a9565b61060e6114cb565b6102b16114da565b6103d7600480360360a081101561070357600080fd5b506001600160a01b038135811691602081013591604082013591606081013590911690608001356114e0565b6103d76004803603604081101561074557600080fd5b6001600160a01b038235169190810190604081016020820135600160201b81111561076f57600080fd5b82018360208201111561078157600080fd5b803590602001918460018302840111600160201b831117156107a257600080fd5b91908080601f016020809104026020016040519081016040528093929190818152602001838380828437600092019190915250929550611524945050505050565b6103d7600480360360808110156107f957600080fd5b506001600160a01b0381358116916020810135916040820135169060600135611573565b6103036004803603608081101561083357600080fd5b506001600160a01b03813581169160208101359160408201351690606001356115e4565b6102b16004803603602081101561086d57600080fd5b503561161a565b6103f3611638565b6102b16004803603608081101561089257600080fd5b506001600160a01b0381358116916020810135916040820135169060600135611696565b6103d7600480360360808110156108cc57600080fd5b506001600160a01b03813581169160208101359160408201351690606001356116ca565b6103f3600480360360a081101561090657600080fd5b6001600160a01b0382351691602081013591810190606081016040820135600160201b81111561093557600080fd5b82018360208201111561094757600080fd5b803590602001918460208302840111600160201b8311171561096857600080fd5b919080806020026020016040519081016040528093929190818152602001838360200280828437600092019190915250929550506001600160a01b03833516935050506020013561173b565b6102b161179e565b6103f3600480360360c08110156109d257600080fd5b506001600160a01b03813581169160208101359160408201359160608101359091169060808101359060a0013515156117a4565b6103f360048036036020811015610a1c57600080fd5b5035611841565b6102b160048036036020811015610a3957600080fd5b50356001600160a01b031661188d565b6103f360048036036020811015610a5f57600080fd5b50356001600160a01b031661189f565b6102b160048036036080811015610a8557600080fd5b506001600160a01b0381358116916020810135916040820135169060600135611931565b6103f360048036036020811015610abf57600080fd5b50356001600160a01b0316611968565b6102b160048036036020811015610ae557600080fd5b5035611a2c565b610303600480360360a0811015610b0257600080fd5b506001600160a01b0381358116916020810135916040820135169060608101359060800135611a39565b6104fa600480360360c0811015610b4257600080fd5b506001600160a01b0381358116916020810135916040820135169060608101359060808101359060a00135611a70565b610356600480360360a0811015610b8857600080fd5b506001600160a01b0381358116916020810135916040820135169060608101359060800135611ab7565b61060e60048036036020811015610bc857600080fd5b5035611af3565b6103f360048036036020811015610be557600080fd5b50356001600160a01b0316611b1a565b6102b160048036036020811015610c0b57600080fd5b5035611bce565b6103f3600480360360c0811015610c2857600080fd5b506001600160a01b03813581169160208101359160408201359160608101359091169060808101359060a001351515611bdb565b6102b160048036036080811015610c7257600080fd5b506001600160a01b0381358116916020810135916040820135169060600135611c70565b610660611ca7565b6103f3600480360360c0811015610cb457600080fd5b506001600160a01b03813581169160208101359160408201359160608101359091169060808101359060a001351515611cca565b6103d760048036036020811015610cfe57600080fd5b5035611d4f565b6104fa60048036036080811015610d1b57600080fd5b506001600160a01b0381358116916020810135916040820135169060600135611d64565b61060e611d9e565b6102b1611db2565b6104fa611db8565b6104fa611e10565b610356600480360360a0811015610d7557600080fd5b506001600160a01b0381358116916020810135916040820135169060608101359060800135611e66565b6102b1611ea2565b6103f360048036036020811015610dbd57600080fd5b50356001600160a01b0316611ea8565b6001600160a01b0384166000908152600b602090815260408083208684529091528120610e0190848463ffffffff611f2e16565b90505b949350505050565b6001600160a01b0385166000908152600b6020908152604080832087845290915281208190610e439086868663ffffffff611f5b16565b915091509550959350505050565b6001600160a01b0384166000908152600b60209081526040808320868452600101909152812060609190610e8c90858563ffffffff61209b16565b915091505b94509492505050565b6000610ea5826110c9565b8015610ecc57506001600160a01b0382166000908152600260205260409020600101544210155b92915050565b33610edb6113b0565b6001600160a01b031614610eee57600080fd5b60005460ff1615610efe57600080fd5b6040805133815290517f787a5d936e74f4b564b9153575886059829c78cd9927b1be5e0d976b317ef7369181900360200190a133ff5b610f3c61218f565b610f4557600080fd5b816001600160a01b038116610f5957600080fd5b6001600160a01b038116301415610f6f57600080fd5b6001600160a01b03831660009081526002602052604090205460ff16610f9457600080fd5b6000610f9f836121a5565b6001600160a01b0385166000908152600260208181526040808420858552909201905290205490915060ff1615610fd557600080fd5b6001600160a01b03841660008181526002602081815260408084208685528084018352818520805460ff19166001908117909155938352600301805493840181558452818420909201859055815193845283810182815287519285019290925286517fec1b982d69bfc1a6fd8becf191d9a633486c822d3bdedd52303ca81fa635750194899489949193919260608501928601918190849084905b83811015611088578181015183820152602001611070565b50505050905090810190601f1680156110b55780820380516001836020036101000a031916815260200191505b50935050505060405180910390a150505050565b6001600160a01b031660009081526002602052604090205460ff1690565b60005460ff1681565b600c546060906111315760405162461bcd60e51b81526004018080602001828103825260318152602001806137796031913960400191505060405180910390fd5b818311156111705760405162461bcd60e51b81526004018080602001828103825260338152602001806137d46033913960400191505060405180910390fd5b600c546040805163700f1a7760e01b81526004810185905260001990920160248301525173__SafeMathUintLib_______________________9163700f1a77916044808301926020929190829003018186803b1580156111cf57600080fd5b505af41580156111e3573d6000803e3d6000fd5b505050506040513d60208110156111f957600080fd5b5051604080516001868403018082526020818102830101909252919350606091908015611230578160200160208202803883390190505b509050835b83811161129557600c818154811061124957fe5b9060005260206000200160009054906101000a90046001600160a01b0316828683038151811061127557fe5b6001600160a01b0390921660209283029190910190910152600101611235565b509392505050565b6112a561218f565b6112ae57600080fd5b816001600160a01b0381166112c257600080fd5b6001600160a01b0381163014156112d857600080fd5b60006112e3836121a5565b6001600160a01b0385166000908152600260208181526040808420858552909201905290205490915060ff1661131857600080fd5b6001600160a01b03841660008181526002602081815260408084208685529092018152818320805460ff19169055815193845283810182815287519285019290925286517f92f4af6130f47c92f3899e06611c8c6ef191fb81207ad2675d134af619d2fe7d94899489949193919260608501928601918190849084908315611088578181015183820152602001611070565b60035481565b60005461010090046001600160a01b03165b90565b60055481565b6113d361218f565b6113dc57600080fd5b806001600160a01b0381166113f057600080fd5b6001600160a01b03811630141561140657600080fd5b6001600160a01b03821660009081526002602052604090205460ff1661142b57600080fd5b6001600160a01b038216600081815260026020908152604091829020805460ff19169055815192835290517f777645c5437dfbf962f57a281ead25f3d513f2f8e938685bbfc1738e81c9880e9281900390910190a15050565b6040518060400160405280600981526020016819195c1bdcda5d195960ba1b81525081565b604051806040016040528060068152602001651cdd1859d95960d21b81525081565b6001546001600160a01b031681565b60095490565b6001600160a01b0385166000908152600b6020908152604080832087845260010190915281206115189085858563ffffffff61221c16565b90505b95945050505050565b600080611530836121a5565b905061153b84610e9a565b8015610e0457506001600160a01b0384166000908152600260208181526040808420858552909201905290205460ff16949350505050565b6001600160a01b0384166000908152600b6020908152604080832086845290915281206115a790848463ffffffff61225416565b80610e0157506001600160a01b0385166000908152600b602090815260408083208784526001019091529020610e0190848463ffffffff61226a16565b6001600160a01b0384166000908152600b6020908152604080832086845290915281208190610e8c90858563ffffffff61228016565b6008818154811061162757fe5b600091825260209091200154905081565b336116416113b0565b6001600160a01b03161461165457600080fd5b6000805460ff191660011790556040805133815290517fd5a2a04a775c741c2ca0dc46ea7ce4835190e1aaf1ca018def0e82568ec336169181900360200190a1565b6001600160a01b0384166000908152600b602090815260408083208684529091528120610e0190848463ffffffff61231316565b6001600160a01b0384166000908152600b6020908152604080832086845290915281206116fe90848463ffffffff61233b16565b80610e0157506001600160a01b0385166000908152600b602090815260408083208784526001019091529020610e0190848463ffffffff61235116565b61174433610e9a565b61174d57600080fd5b6001600160a01b0385166000908152600b6020908152604080832087845260010190915290206117859084848463ffffffff61236716565b61178e846125a3565b6117978561260a565b5050505050565b60065481565b6117ad33610e9a565b6117b657600080fd5b80156117f6576001600160a01b0386166000908152600b6020908152604080832088845290915290206117f19085858563ffffffff61268316565b611830565b6001600160a01b0386166000908152600b60209081526040808320888452600101909152902061182e9085858563ffffffff61273416565b505b6118398661260a565b505050505050565b61184961218f565b61185257600080fd5b60038190556040805182815290517f4f1d324a1cbffc352fb64f1d73d95e4b200d92f99ef39bf2d7f5b41f946909d69181900360200190a150565b600d6020526000908152604090205481565b6118a761218f565b6118b057600080fd5b806001600160a01b0381166118c457600080fd5b6001600160a01b0381163014156118da57600080fd5b6118e6826003546129b2565b600354604080516001600160a01b0385168152602081019290925280517f7f3a8349917003ed377f6e9ae1608b92edd893903f8983bd274b1f8373dd3b119281900390910190a15050565b6001600160a01b0384166000908152600b602090815260408083208684526001019091528120610e0190848463ffffffff612a0116565b61197061218f565b61197957600080fd5b806001600160a01b03811661198d57600080fd5b6001600160a01b0381163014156119a357600080fd5b6000546001600160a01b038381166101009092041614611a2857600080546001600160a01b03848116610100818102610100600160a81b03198516179094556040805194909304919091168084526020840191909152815190927f977e5fa58e458501775e0008d275006294c5249e3c08d1d0e3a9f3acad14f6e492908290030190a1505b5050565b6009818154811061162757fe5b6001600160a01b0385166000908152600b6020908152604080832087845290915281208190610e439086868663ffffffff612a2e16565b6001600160a01b0386166000908152600b602090815260408083208884526001019091529020606090611aac908686868663ffffffff612a6e16565b979650505050505050565b6001600160a01b0385166000908152600b60209081526040808320878452600101909152812060609190610e439086868663ffffffff612bf916565b600c8181548110611b0057fe5b6000918252602090912001546001600160a01b0316905081565b611b22612c39565b611b2b57600080fd5b806001600160a01b038116611b3f57600080fd5b6001600160a01b038116301415611b5557600080fd5b6001546001600160a01b03838116911614611a2857600180546001600160a01b038481166001600160a01b0319831681179093556040805191909216808252602082019390935281517f9f611b789425d0d5b90b920f1b2852907dd865c80074a30b1629aaa041d1812c929181900390910190a1505050565b6007818154811061162757fe5b611be433610e9a565b611bed57600080fd5b8015611c2d576001600160a01b0386166000908152600b602090815260408083208884529091529020611c289085858563ffffffff612c4a16565b611c67565b6001600160a01b0386166000908152600b602090815260408083208884526001019091529020611c659085858563ffffffff612c7c16565b505b611830856125a3565b6001600160a01b0384166000908152600b602090815260408083208684526001019091528120610e0190848463ffffffff61231316565b604051806040016040528060078152602001661cd95d1d1b195960ca1b81525081565b611cd333610e9a565b611cdc57600080fd5b8015611d17576001600160a01b0386166000908152600b602090815260408083208884529091529020611c289085858563ffffffff612dd316565b6001600160a01b0386166000908152600b602090815260408083208884526001019091529020611c679085858563ffffffff612e4a16565b600a6020526000908152604090205460ff1681565b6001600160a01b0384166000908152600b602090815260408083208684526001019091529020606090610e0190848463ffffffff612e9216565b60005461010090046001600160a01b031681565b60045481565b60606008805480602002602001604051908101604052809291908181526020018280548015611e0657602002820191906000526020600020905b815481526020019060010190808311611df2575b5050505050905090565b60606007805480602002602001604051908101604052809291908181526020018280548015611e065760200282019190600052602060002090815481526020019060010190808311611df2575050505050905090565b6001600160a01b0385166000908152600b60209081526040808320878452600101909152812060609190610e439086868663ffffffff612f0616565b600c5490565b611eb061218f565b611eb957600080fd5b806001600160a01b038116611ecd57600080fd5b6001600160a01b038116301415611ee357600080fd5b611eee8260006129b2565b604080516001600160a01b038416815290517fb619d545cb511bd5f02907a1eac4f4cb8dace7b1846852fb0bf5e553937481c19181900360200190a15050565b6001600160a01b038216600090815260018401602090815260408083208484529091529020549392505050565b6001600160a01b038316600090815260018501602090815260408083208584529091528120548190611f9257506000905080610e91565b6001600160a01b0385166000908152600187016020908152604080832087845282529182902054825163700f1a7760e01b8152600481018790526000199091016024820152915173__SafeMathUintLib_______________________9263700f1a77926044808301939192829003018186803b15801561201157600080fd5b505af4158015612025573d6000803e3d6000fd5b505050506040513d602081101561203b57600080fd5b50516001600160a01b038616600090815260018801602090815260408083208884529091528120805492955090918590811061207357fe5b9060005260206000209060020201905080600001548160010154925092505094509492505050565b6001600160a01b03821660009081526002840160209081526040808320848452909152812054606091906120e15750506040805160008082526020820190925290612187565b6001600160a01b0384166000908152600286016020908152604080832086845290915281208054600019810190811061211657fe5b906000526020600020906002020190508060000181600101548180548060200260200160405190810160405280929190818152602001828054801561217a57602002820191906000526020600020905b815481526020019060010190808311612166575b5050505050915092509250505b935093915050565b60005461010090046001600160a01b0316331490565b6000816040516020018082805190602001908083835b602083106121da5780518252601f1990920191602091820191016121bb565b6001836020036101000a038019825116818451168082178552505050505050905001915050604051602081830303815290604052805190602001209050919050565b6001600160a01b0382166000908152600185016020908152604080832084845282528083208684529091529020541515949350505050565b6000610e0460048501848463ffffffff6130a616565b6000610e0460058501848463ffffffff6130a616565b6001600160a01b0382166000908152600184016020908152604080832084845290915281205481906122b757506000905080612187565b6001600160a01b038416600090815260018601602090815260408083208684529091528120805460001981019081106122ec57fe5b90600052602060002090600202019050806000015481600101549250925050935093915050565b6001600160a01b03919091166000908152602092835260408082209282529190925290205490565b6000610e0460028501848463ffffffff6130a616565b6000610e0460038501848463ffffffff6130a616565b60005b6001600160a01b0383166000908152602086815260408083208584529091529020548110156123ff576001600160a01b03831660008181526001870160209081526040808320868452825280832093835288825280832086845290915281208054919291839190859081106123db57fe5b6000918252602080832090910154835282019290925260400190205560010161236a565b6001600160a01b0383166000908152602086815260408083208584528252909120855161242e92870190613698565b50600090505b6001600160a01b0383166000908152602086815260408083208584529091529020548110156124ca576001600160a01b0383166000818152600187810160209081526040808420878552825280842094845289825280842087855290915282208054918501939291859081106124a657fe5b60009182526020808320909101548352820192909252604001902055600101612434565b6001600160a01b038316600081815260028701602090815260408083208684528252808320815194845289835281842087855283529281902080546060938102860184018352918501828152939493849390929084018282801561254d57602002820191906000526020600020905b815481526020019060010190808311612539575b5050509183525050436020918201528254600181018085556000948552938290208351805160029093029091019261258a92849290910190613698565b50602082015181600101555050506117978584846130d5565b6000818152600a602052604090205460ff16612607576000818152600a60205260408120805460ff191660019081179091556009805491820181559091527f6e1540171b6c0c960b71a7020d9f60077f6af931a8bbf590da0223dacf75c7af018190555b50565b6001600160a01b0381166000908152600d602052604090205461260757600c80546001810182557fdf6966c971051c3d54ec59162606531493a51404a002842f56009d7e5cf4a8c70180546001600160a01b0319166001600160a01b03939093169283179055546000918252600d602052604090912055565b6001600160a01b0382166000908152602085815260408083208484529091529020546126b5908463ffffffff61317616565b6001600160a01b0383166000818152602087815260408083208684528083528184208690559383526001808a01835281842087855283528184208251808401909352948352948152438183019081528454808701865594845291909220915160029093029091019182555191015561272e8483836131b0565b50505050565b6001600160a01b03821660009081526001850160209081526040808320848452825280832086845290915281205480612771576000915050610e04565b6001600160a01b03841660009081526020878152604080832086845290915290205481101561287b576001600160a01b0384166000908152602087815260408083208684529091529020805460001981019081106127cb57fe5b60009182526020808320909101546001600160a01b0387168352888252604080842087855290925291208054600019840190811061280557fe5b60009182526020808320909101929092556001600160a01b0386168082526001890183526040808320878452845280832091835289845280832087845290935291812080548493929190600019850190811061285d57fe5b90600052602060002001548152602001908152602001600020819055505b6001600160a01b03841660009081526020878152604080832086845290915290208054906128ad9060001983016136e3565b506001600160a01b038416600081815260018801602090815260408083208784528252808320898452825280832083905583835260028a018252808320878452825280832081519484528a835281842088855283529281902080546060938102860184018352918501828152939493849390929084018282801561295057602002820191906000526020600020905b81548152602001906001019080831161293c575b5050509183525050436020918201528254600181018085556000948552938290208351805160029093029091019261298d92849290910190613698565b50602082015181600101555050506129a68685856130d5565b50600195945050505050565b6001600160a01b03821660009081526002602052604090205460ff16611a28576001600160a01b0382166000908152600260205260409020805460ff1916600190811782554283019101555050565b6001600160a01b038216600090815260028401602090815260408083208484529091529020549392505050565b6000806000612a3f87878787613247565b905080600010612a5157600080612a60565b612a6087878760018503611f5b565b925092505094509492505050565b6001600160a01b038416600090815260208681526040808320868452909152902054606090612aac575060408051600081526020810190915261151b565b6001600160a01b03851660009081526020878152604080832087845282529182902054825163700f1a7760e01b8152600481018690526000199091016024820152915173__SafeMathUintLib_______________________9263700f1a77926044808301939192829003018186803b158015612b2757600080fd5b505af4158015612b3b573d6000803e3d6000fd5b505050506040513d6020811015612b5157600080fd5b5051604080516001868403018082526020818102830101909252919350606091908015612b88578160200160208202803883390190505b509050835b83811015612bee576001600160a01b0387166000908152602089815260408083208984529091529020805482908110612bc257fe5b90600052602060002001548286830381518110612bdb57fe5b6020908102919091010152600101612b8d565b509695505050505050565b6060600080612c0a87878787613311565b905080600010612c2a576040805160008082526020820190925290612a60565b612a6087878760018503612f06565b6001546001600160a01b0316331490565b6001600160a01b0382166000908152602085815260408083208484529091529020546126b5908463ffffffff6133cf16565b6001600160a01b03821660009081526001850160209081526040808320848452825280832086845290915281205415612cb757506000610e04565b6001600160a01b0383166000818152602087815260408083208684528083528184208054600181810183558287528587209091018b90558154878752908c01855283862089875285528386208b8752855283862081905595855260028b0184528285208886528452828520835195899052918452606093860285018401835291840185815290948493919291840182828015612d7257602002820191906000526020600020905b815481526020019060010190808311612d5e575b50505091835250504360209182015282546001810180855560009485529382902083518051600290930290910192612daf92849290910190613698565b5060208201518160010155505050612dc88584846130d5565b506001949350505050565b6001600160a01b038216600081815260208681526040808320858452808352818420889055938352600180890183528184208685528352818420825180840190935294835287825243828401908152855480830187559585529290932090516002909402019283555191015561272e8483836131b0565b604080516001808252818301909252606091602080830190803883390190505090508381600081518110612e7a57fe5b60200260200101818152505061179785828585612367565b6001600160a01b038216600090815260208481526040808320848452825291829020805483518184028101840190945280845260609392830182828015612ef857602002820191906000526020600020905b815481526020019060010190808311612ee4575b505050505090509392505050565b6001600160a01b0383166000908152600285016020908152604080832085845290915281205460609190612f4c5750506040805160008082526020820190925290610e91565b6001600160a01b0385166000908152600287016020908152604080832087845282529182902054825163700f1a7760e01b8152600481018790526000199091016024820152915173__SafeMathUintLib_______________________9263700f1a77926044808301939192829003018186803b158015612fcb57600080fd5b505af4158015612fdf573d6000803e3d6000fd5b505050506040513d6020811015612ff557600080fd5b50516001600160a01b038616600090815260028801602090815260408083208884529091528120805492955090918590811061302d57fe5b906000526020600020906002020190508060000181600101548180548060200260200160405190810160405280929190818152602001828054801561309157602002820191906000526020600020905b81548152602001906001019080831161307d575b50505050509150925092505094509492505050565b6001600160a01b0382166000908152600184016020908152604080832084845290915290205415159392505050565b6001600160a01b038216600090815260208481526040808320848452909152902054158015613113575061311360038401838363ffffffff6130a616565b156131315761312c60038401838363ffffffff61340916565b613171565b61314560038401838363ffffffff6130a616565b6131715761315d60038401838363ffffffff61344216565b61317160058401838363ffffffff61344216565b505050565b600080821215801561318a57508282840313155b806131a157506000821280156131a1575082828403135b6131aa57600080fd5b50900390565b6001600160a01b0382166000908152602084815260408083208484529091529020541580156131ee57506131ee60028401838363ffffffff6130a616565b156132075761312c60028401838363ffffffff61340916565b61321b60028401838363ffffffff6130a616565b6131715761323360028401838363ffffffff61344216565b61317160048401838363ffffffff61344216565b6001600160a01b0383166000908152600185016020908152604080832085845290915281205461327957506000610e04565b6001600160a01b038416600090815260018601602090815260408083208684529091529020545b8015613305576001600160a01b038516600090815260018701602090815260408083208784529091529020805484919060001984019081106132de57fe5b906000526020600020906002020160010154116132fc579050610e04565b600019016132a0565b50600095945050505050565b6001600160a01b0383166000908152600285016020908152604080832085845290915281205461334357506000610e04565b6001600160a01b038416600090815260028601602090815260408083208684529091529020545b8015613305576001600160a01b038516600090815260028701602090815260408083208784529091529020805484919060001984019081106133a857fe5b906000526020600020906002020160010154116133c6579050610e04565b6000190161336a565b60008282018183128015906133e45750838112155b806133f957506000831280156133f957508381125b61340257600080fd5b9392505050565b6001600160a01b03821660009081526001840160209081526040808320848452909152902054801561272e5761272e84600183036134de565b6001600160a01b03821660009081526001840160209081526040808320848452909152902054613171576040805180820182526001600160a01b039384168082526020808301858152875460018082018a5560008a81528481209651600290930290960180546001600160a01b031916929099169190911788559051968101969096558654918352949095018452818120928152919092522055565b8154811061351d5760405162461bcd60e51b815260040180806020018281038252602a8152602001806137aa602a913960400191505060405180910390fd5b600082600001828154811061352e57fe5b6000918252602082206002909102015484546001600160a01b03909116925084908490811061355957fe5b60009182526020909120600160029092020101548454909150600019018310156136595783548490600019810190811061358f57fe5b90600052602060002090600202018460000184815481106135ac57fe5b600091825260208220835460029092020180546001600160a01b0319166001600160a01b0390921691909117815560019283015490830155855485830192870191908790879081106135fa57fe5b600091825260208083206002909202909101546001600160a01b031683528201929092526040018120865490919087908790811061363457fe5b9060005260206000209060020201600101548152602001908152602001600020819055505b8354613669856000198301613707565b506001600160a01b03909116600090815260019093016020908152604080852092855291905282209190915550565b8280548282559060005260206000209081019282156136d3579160200282015b828111156136d35782518255916020019190600101906136b8565b506136df929150613733565b5090565b81548183558181111561317157600083815260209020613171918101908301613733565b81548183558181111561317157600202816002028360005260206000209182019101613171919061374d565b6113c291905b808211156136df5760008155600101613739565b6113c291905b808211156136df5780546001600160a01b03191681556000600182015560020161375356fe4e6f20747261636b65642077616c6c65747320666f756e64205b42616c616e6365547261636b65722e736f6c3a3437335d496e646578206f7574206f6620626f756e6473205b43757272656e636965734c69622e736f6c3a35315d426f756e647320706172616d6574657273206d69736d61746368205b42616c616e6365547261636b65722e736f6c3a3437345da265627a7a7231582022ec1f942dc44940b5931e8a5852474689aba03e0308d14be522e46f0d03edc764736f6c634300050c0032",
  "source": "/*\n * Hubii Nahmii\n *\n * Compliant with the Hubii Nahmii specification v0.12.\n *\n * Copyright (C) 2017-2018 Hubii AS\n */\n\npragma solidity >=0.4.25 <0.6.0;\n\nimport {Ownable} from \"./Ownable.sol\";\nimport {Servable} from \"./Servable.sol\";\nimport {SafeMathIntLib} from \"./SafeMathIntLib.sol\";\nimport {SafeMathUintLib} from \"./SafeMathUintLib.sol\";\nimport {FungibleBalanceLib} from \"./FungibleBalanceLib.sol\";\nimport {NonFungibleBalanceLib} from \"./NonFungibleBalanceLib.sol\";\n\n/**\n * @title Balance tracker\n * @notice An ownable to track balances of generic types\n */\ncontract BalanceTracker is Ownable, Servable {\n    using SafeMathIntLib for int256;\n    using SafeMathUintLib for uint256;\n    using FungibleBalanceLib for FungibleBalanceLib.Balance;\n    using NonFungibleBalanceLib for NonFungibleBalanceLib.Balance;\n\n    //\n    // Constants\n    // -----------------------------------------------------------------------------------------------------------------\n    string constant public DEPOSITED_BALANCE_TYPE = \"deposited\";\n    string constant public SETTLED_BALANCE_TYPE = \"settled\";\n    string constant public STAGED_BALANCE_TYPE = \"staged\";\n\n    //\n    // Structures\n    // -----------------------------------------------------------------------------------------------------------------\n    struct Wallet {\n        mapping(bytes32 => FungibleBalanceLib.Balance) fungibleBalanceByType;\n        mapping(bytes32 => NonFungibleBalanceLib.Balance) nonFungibleBalanceByType;\n    }\n\n    //\n    // Variables\n    // -----------------------------------------------------------------------------------------------------------------\n    bytes32 public depositedBalanceType;\n    bytes32 public settledBalanceType;\n    bytes32 public stagedBalanceType;\n\n    bytes32[] public _allBalanceTypes;\n    bytes32[] public _activeBalanceTypes;\n\n    bytes32[] public trackedBalanceTypes;\n    mapping(bytes32 => bool) public trackedBalanceTypeMap;\n\n    mapping(address => Wallet) private walletMap;\n\n    address[] public trackedWallets;\n    mapping(address => uint256) public trackedWalletIndexByWallet;\n\n    //\n    // Constructor\n    // -----------------------------------------------------------------------------------------------------------------\n    constructor(address deployer) Ownable(deployer)\n    public\n    {\n        depositedBalanceType = keccak256(abi.encodePacked(DEPOSITED_BALANCE_TYPE));\n        settledBalanceType = keccak256(abi.encodePacked(SETTLED_BALANCE_TYPE));\n        stagedBalanceType = keccak256(abi.encodePacked(STAGED_BALANCE_TYPE));\n\n        _allBalanceTypes.push(settledBalanceType);\n        _allBalanceTypes.push(depositedBalanceType);\n        _allBalanceTypes.push(stagedBalanceType);\n\n        _activeBalanceTypes.push(settledBalanceType);\n        _activeBalanceTypes.push(depositedBalanceType);\n    }\n\n    //\n    // Functions\n    // -----------------------------------------------------------------------------------------------------------------\n    /// @notice Get the fungible balance (amount) of the given wallet, type and currency\n    /// @param wallet The address of the concerned wallet\n    /// @param _type The balance type\n    /// @param currencyCt The address of the concerned currency contract (address(0) == ETH)\n    /// @param currencyId The ID of the concerned currency (0 for ETH and ERC20)\n    /// @return The stored balance\n    function get(address wallet, bytes32 _type, address currencyCt, uint256 currencyId)\n    public\n    view\n    returns (int256)\n    {\n        return walletMap[wallet].fungibleBalanceByType[_type].get(currencyCt, currencyId);\n    }\n\n    /// @notice Get the non-fungible balance (IDs) of the given wallet, type, currency and index range\n    /// @param wallet The address of the concerned wallet\n    /// @param _type The balance type\n    /// @param currencyCt The address of the concerned currency contract (address(0) == ETH)\n    /// @param currencyId The ID of the concerned currency (0 for ETH and ERC20)\n    /// @param indexLow The lower index of IDs\n    /// @param indexUp The upper index of IDs\n    /// @return The stored balance\n    function getByIndices(address wallet, bytes32 _type, address currencyCt, uint256 currencyId,\n        uint256 indexLow, uint256 indexUp)\n    public\n    view\n    returns (int256[] memory)\n    {\n        return walletMap[wallet].nonFungibleBalanceByType[_type].getByIndices(\n            currencyCt, currencyId, indexLow, indexUp\n        );\n    }\n\n    /// @notice Get all the non-fungible balance (IDs) of the given wallet, type and currency\n    /// @param wallet The address of the concerned wallet\n    /// @param _type The balance type\n    /// @param currencyCt The address of the concerned currency contract (address(0) == ETH)\n    /// @param currencyId The ID of the concerned currency (0 for ETH and ERC20)\n    /// @return The stored balance\n    function getAll(address wallet, bytes32 _type, address currencyCt, uint256 currencyId)\n    public\n    view\n    returns (int256[] memory)\n    {\n        return walletMap[wallet].nonFungibleBalanceByType[_type].get(\n            currencyCt, currencyId\n        );\n    }\n\n    /// @notice Get the count of non-fungible IDs of the given wallet, type and currency\n    /// @param wallet The address of the concerned wallet\n    /// @param _type The balance type\n    /// @param currencyCt The address of the concerned currency contract (address(0) == ETH)\n    /// @param currencyId The ID of the concerned currency (0 for ETH and ERC20)\n    /// @return The count of IDs\n    function idsCount(address wallet, bytes32 _type, address currencyCt, uint256 currencyId)\n    public\n    view\n    returns (uint256)\n    {\n        return walletMap[wallet].nonFungibleBalanceByType[_type].idsCount(\n            currencyCt, currencyId\n        );\n    }\n\n    /// @notice Gauge whether the ID is included in the given wallet, type and currency\n    /// @param wallet The address of the concerned wallet\n    /// @param _type The balance type\n    /// @param id The ID of the concerned unit\n    /// @param currencyCt The address of the concerned currency contract (address(0) == ETH)\n    /// @param currencyId The ID of the concerned currency (0 for ETH and ERC20)\n    /// @return true if ID is included, else false\n    function hasId(address wallet, bytes32 _type, int256 id, address currencyCt, uint256 currencyId)\n    public\n    view\n    returns (bool)\n    {\n        return walletMap[wallet].nonFungibleBalanceByType[_type].hasId(\n            id, currencyCt, currencyId\n        );\n    }\n\n    /// @notice Set the balance of the given wallet, type and currency to the given value\n    /// @param wallet The address of the concerned wallet\n    /// @param _type The balance type\n    /// @param value The value (amount of fungible, id of non-fungible) to set\n    /// @param currencyCt The address of the concerned currency contract (address(0) == ETH)\n    /// @param currencyId The ID of the concerned currency (0 for ETH and ERC20)\n    /// @param fungible True if setting fungible balance, else false\n    function set(address wallet, bytes32 _type, int256 value, address currencyCt, uint256 currencyId, bool fungible)\n    public\n    onlyActiveService\n    {\n        // Update the balance\n        if (fungible)\n            walletMap[wallet].fungibleBalanceByType[_type].set(\n                value, currencyCt, currencyId\n            );\n\n        else\n            walletMap[wallet].nonFungibleBalanceByType[_type].set(\n                value, currencyCt, currencyId\n            );\n\n        // Update balance type hashes\n        _updateTrackedBalanceTypes(_type);\n\n        // Update tracked wallets\n        _updateTrackedWallets(wallet);\n    }\n\n    /// @notice Set the non-fungible balance IDs of the given wallet, type and currency to the given value\n    /// @param wallet The address of the concerned wallet\n    /// @param _type The balance type\n    /// @param ids The ids of non-fungible) to set\n    /// @param currencyCt The address of the concerned currency contract (address(0) == ETH)\n    /// @param currencyId The ID of the concerned currency (0 for ETH and ERC20)\n    function setIds(address wallet, bytes32 _type, int256[] memory ids, address currencyCt, uint256 currencyId)\n    public\n    onlyActiveService\n    {\n        // Update the balance\n        walletMap[wallet].nonFungibleBalanceByType[_type].set(\n            ids, currencyCt, currencyId\n        );\n\n        // Update balance type hashes\n        _updateTrackedBalanceTypes(_type);\n\n        // Update tracked wallets\n        _updateTrackedWallets(wallet);\n    }\n\n    /// @notice Add the given value to the balance of the given wallet, type and currency\n    /// @param wallet The address of the concerned wallet\n    /// @param _type The balance type\n    /// @param value The value (amount of fungible, id of non-fungible) to add\n    /// @param currencyCt The address of the concerned currency contract (address(0) == ETH)\n    /// @param currencyId The ID of the concerned currency (0 for ETH and ERC20)\n    /// @param fungible True if adding fungible balance, else false\n    function add(address wallet, bytes32 _type, int256 value, address currencyCt, uint256 currencyId,\n        bool fungible)\n    public\n    onlyActiveService\n    {\n        // Update the balance\n        if (fungible)\n            walletMap[wallet].fungibleBalanceByType[_type].add(\n                value, currencyCt, currencyId\n            );\n        else\n            walletMap[wallet].nonFungibleBalanceByType[_type].add(\n                value, currencyCt, currencyId\n            );\n\n        // Update balance type hashes\n        _updateTrackedBalanceTypes(_type);\n\n        // Update tracked wallets\n        _updateTrackedWallets(wallet);\n    }\n\n    /// @notice Subtract the given value from the balance of the given wallet, type and currency\n    /// @param wallet The address of the concerned wallet\n    /// @param _type The balance type\n    /// @param value The value (amount of fungible, id of non-fungible) to subtract\n    /// @param currencyCt The address of the concerned currency contract (address(0) == ETH)\n    /// @param currencyId The ID of the concerned currency (0 for ETH and ERC20)\n    /// @param fungible True if subtracting fungible balance, else false\n    function sub(address wallet, bytes32 _type, int256 value, address currencyCt, uint256 currencyId,\n        bool fungible)\n    public\n    onlyActiveService\n    {\n        // Update the balance\n        if (fungible)\n            walletMap[wallet].fungibleBalanceByType[_type].sub(\n                value, currencyCt, currencyId\n            );\n        else\n            walletMap[wallet].nonFungibleBalanceByType[_type].sub(\n                value, currencyCt, currencyId\n            );\n\n        // Update tracked wallets\n        _updateTrackedWallets(wallet);\n    }\n\n    /// @notice Gauge whether this tracker has in-use data for the given wallet, type and currency\n    /// @param wallet The address of the concerned wallet\n    /// @param _type The balance type\n    /// @param currencyCt The address of the concerned currency contract (address(0) == ETH)\n    /// @param currencyId The ID of the concerned currency (0 for ETH and ERC20)\n    /// @return true if data is stored, else false\n    function hasInUseCurrency(address wallet, bytes32 _type, address currencyCt, uint256 currencyId)\n    public\n    view\n    returns (bool)\n    {\n        return walletMap[wallet].fungibleBalanceByType[_type].hasInUseCurrency(currencyCt, currencyId)\n        || walletMap[wallet].nonFungibleBalanceByType[_type].hasInUseCurrency(currencyCt, currencyId);\n    }\n\n    /// @notice Gauge whether this tracker has ever-used data for the given wallet, type and currency\n    /// @param wallet The address of the concerned wallet\n    /// @param _type The balance type\n    /// @param currencyCt The address of the concerned currency contract (address(0) == ETH)\n    /// @param currencyId The ID of the concerned currency (0 for ETH and ERC20)\n    /// @return true if data is stored, else false\n    function hasEverUsedCurrency(address wallet, bytes32 _type, address currencyCt, uint256 currencyId)\n    public\n    view\n    returns (bool)\n    {\n        return walletMap[wallet].fungibleBalanceByType[_type].hasEverUsedCurrency(currencyCt, currencyId)\n        || walletMap[wallet].nonFungibleBalanceByType[_type].hasEverUsedCurrency(currencyCt, currencyId);\n    }\n\n    /// @notice Get the count of fungible balance records for the given wallet, type and currency\n    /// @param wallet The address of the concerned wallet\n    /// @param _type The balance type\n    /// @param currencyCt The address of the concerned currency contract (address(0) == ETH)\n    /// @param currencyId The ID of the concerned currency (0 for ETH and ERC20)\n    /// @return The count of balance log entries\n    function fungibleRecordsCount(address wallet, bytes32 _type, address currencyCt, uint256 currencyId)\n    public\n    view\n    returns (uint256)\n    {\n        return walletMap[wallet].fungibleBalanceByType[_type].recordsCount(currencyCt, currencyId);\n    }\n\n    /// @notice Get the fungible balance record for the given wallet, type, currency\n    /// log entry index\n    /// @param wallet The address of the concerned wallet\n    /// @param _type The balance type\n    /// @param currencyCt The address of the concerned currency contract (address(0) == ETH)\n    /// @param currencyId The ID of the concerned currency (0 for ETH and ERC20)\n    /// @param index The concerned record index\n    /// @return The balance record\n    function fungibleRecordByIndex(address wallet, bytes32 _type, address currencyCt, uint256 currencyId,\n        uint256 index)\n    public\n    view\n    returns (int256 amount, uint256 blockNumber)\n    {\n        return walletMap[wallet].fungibleBalanceByType[_type].recordByIndex(currencyCt, currencyId, index);\n    }\n\n    /// @notice Get the non-fungible balance record for the given wallet, type, currency\n    /// block number\n    /// @param wallet The address of the concerned wallet\n    /// @param _type The balance type\n    /// @param currencyCt The address of the concerned currency contract (address(0) == ETH)\n    /// @param currencyId The ID of the concerned currency (0 for ETH and ERC20)\n    /// @param _blockNumber The concerned block number\n    /// @return The balance record\n    function fungibleRecordByBlockNumber(address wallet, bytes32 _type, address currencyCt, uint256 currencyId,\n        uint256 _blockNumber)\n    public\n    view\n    returns (int256 amount, uint256 blockNumber)\n    {\n        return walletMap[wallet].fungibleBalanceByType[_type].recordByBlockNumber(currencyCt, currencyId, _blockNumber);\n    }\n\n    /// @notice Get the last (most recent) non-fungible balance record for the given wallet, type and currency\n    /// @param wallet The address of the concerned wallet\n    /// @param _type The balance type\n    /// @param currencyCt The address of the concerned currency contract (address(0) == ETH)\n    /// @param currencyId The ID of the concerned currency (0 for ETH and ERC20)\n    /// @return The last log entry\n    function lastFungibleRecord(address wallet, bytes32 _type, address currencyCt, uint256 currencyId)\n    public\n    view\n    returns (int256 amount, uint256 blockNumber)\n    {\n        return walletMap[wallet].fungibleBalanceByType[_type].lastRecord(currencyCt, currencyId);\n    }\n\n    /// @notice Get the count of non-fungible balance records for the given wallet, type and currency\n    /// @param wallet The address of the concerned wallet\n    /// @param _type The balance type\n    /// @param currencyCt The address of the concerned currency contract (address(0) == ETH)\n    /// @param currencyId The ID of the concerned currency (0 for ETH and ERC20)\n    /// @return The count of balance log entries\n    function nonFungibleRecordsCount(address wallet, bytes32 _type, address currencyCt, uint256 currencyId)\n    public\n    view\n    returns (uint256)\n    {\n        return walletMap[wallet].nonFungibleBalanceByType[_type].recordsCount(currencyCt, currencyId);\n    }\n\n    /// @notice Get the non-fungible balance record for the given wallet, type, currency\n    /// and record index\n    /// @param wallet The address of the concerned wallet\n    /// @param _type The balance type\n    /// @param currencyCt The address of the concerned currency contract (address(0) == ETH)\n    /// @param currencyId The ID of the concerned currency (0 for ETH and ERC20)\n    /// @param index The concerned record index\n    /// @return The balance record\n    function nonFungibleRecordByIndex(address wallet, bytes32 _type, address currencyCt, uint256 currencyId,\n        uint256 index)\n    public\n    view\n    returns (int256[] memory ids, uint256 blockNumber)\n    {\n        return walletMap[wallet].nonFungibleBalanceByType[_type].recordByIndex(currencyCt, currencyId, index);\n    }\n\n    /// @notice Get the non-fungible balance record for the given wallet, type, currency\n    /// and block number\n    /// @param wallet The address of the concerned wallet\n    /// @param _type The balance type\n    /// @param currencyCt The address of the concerned currency contract (address(0) == ETH)\n    /// @param currencyId The ID of the concerned currency (0 for ETH and ERC20)\n    /// @param _blockNumber The concerned block number\n    /// @return The balance record\n    function nonFungibleRecordByBlockNumber(address wallet, bytes32 _type, address currencyCt, uint256 currencyId,\n        uint256 _blockNumber)\n    public\n    view\n    returns (int256[] memory ids, uint256 blockNumber)\n    {\n        return walletMap[wallet].nonFungibleBalanceByType[_type].recordByBlockNumber(currencyCt, currencyId, _blockNumber);\n    }\n\n    /// @notice Get the last (most recent) non-fungible balance record for the given wallet, type and currency\n    /// @param wallet The address of the concerned wallet\n    /// @param _type The balance type\n    /// @param currencyCt The address of the concerned currency contract (address(0) == ETH)\n    /// @param currencyId The ID of the concerned currency (0 for ETH and ERC20)\n    /// @return The last log entry\n    function lastNonFungibleRecord(address wallet, bytes32 _type, address currencyCt, uint256 currencyId)\n    public\n    view\n    returns (int256[] memory ids, uint256 blockNumber)\n    {\n        return walletMap[wallet].nonFungibleBalanceByType[_type].lastRecord(currencyCt, currencyId);\n    }\n\n    /// @notice Get the count of tracked balance types\n    /// @return The count of tracked balance types\n    function trackedBalanceTypesCount()\n    public\n    view\n    returns (uint256)\n    {\n        return trackedBalanceTypes.length;\n    }\n\n    /// @notice Get the count of tracked wallets\n    /// @return The count of tracked wallets\n    function trackedWalletsCount()\n    public\n    view\n    returns (uint256)\n    {\n        return trackedWallets.length;\n    }\n\n    /// @notice Get the default full set of balance types\n    /// @return The set of all balance types\n    function allBalanceTypes()\n    public\n    view\n    returns (bytes32[] memory)\n    {\n        return _allBalanceTypes;\n    }\n\n    /// @notice Get the default set of active balance types\n    /// @return The set of active balance types\n    function activeBalanceTypes()\n    public\n    view\n    returns (bytes32[] memory)\n    {\n        return _activeBalanceTypes;\n    }\n\n    /// @notice Get the subset of tracked wallets in the given index range\n    /// @param low The lower index\n    /// @param up The upper index\n    /// @return The subset of tracked wallets\n    function trackedWalletsByIndices(uint256 low, uint256 up)\n    public\n    view\n    returns (address[] memory)\n    {\n        require(0 < trackedWallets.length, \"No tracked wallets found [BalanceTracker.sol:473]\");\n        require(low <= up, \"Bounds parameters mismatch [BalanceTracker.sol:474]\");\n\n        up = up.clampMax(trackedWallets.length - 1);\n        address[] memory _trackedWallets = new address[](up - low + 1);\n        for (uint256 i = low; i <= up; i++)\n            _trackedWallets[i - low] = trackedWallets[i];\n\n        return _trackedWallets;\n    }\n\n    //\n    // Private functions\n    // -----------------------------------------------------------------------------------------------------------------\n    function _updateTrackedBalanceTypes(bytes32 _type)\n    private\n    {\n        if (!trackedBalanceTypeMap[_type]) {\n            trackedBalanceTypeMap[_type] = true;\n            trackedBalanceTypes.push(_type);\n        }\n    }\n\n    function _updateTrackedWallets(address wallet)\n    private\n    {\n        if (0 == trackedWalletIndexByWallet[wallet]) {\n            trackedWallets.push(wallet);\n            trackedWalletIndexByWallet[wallet] = trackedWallets.length;\n        }\n    }\n}",
  "sourcePath": "/opt/buildagent/work/855e104608380c36/contracts/BalanceTracker.sol",
  "compiler": {
    "name": "solc",
    "version": "0.5.12+commit.7709ece9.Emscripten.clang"
  },
  "schemaVersion": "2.0.3",
  "updatedAt": "2019-10-23T00:21:40.498Z"
}