{
  "contractName": "CancelOrdersChallenge",
  "abi": [
    {
      "constant": false,
      "inputs": [
        {
          "name": "newValidator",
          "type": "address"
        }
      ],
      "name": "setValidator",
      "outputs": [],
      "payable": false,
      "stateMutability": "nonpayable",
      "type": "function"
    },
    {
      "constant": true,
      "inputs": [
        {
          "name": "",
          "type": "uint256"
        }
      ],
      "name": "cancellingWallets",
      "outputs": [
        {
          "name": "",
          "type": "address"
        }
      ],
      "payable": false,
      "stateMutability": "view",
      "type": "function"
    },
    {
      "constant": false,
      "inputs": [],
      "name": "triggerSelfDestruction",
      "outputs": [],
      "payable": false,
      "stateMutability": "nonpayable",
      "type": "function"
    },
    {
      "constant": true,
      "inputs": [],
      "name": "selfDestructionDisabled",
      "outputs": [
        {
          "name": "",
          "type": "bool"
        }
      ],
      "payable": false,
      "stateMutability": "view",
      "type": "function"
    },
    {
      "constant": true,
      "inputs": [],
      "name": "validator",
      "outputs": [
        {
          "name": "",
          "type": "address"
        }
      ],
      "payable": false,
      "stateMutability": "view",
      "type": "function"
    },
    {
      "constant": true,
      "inputs": [
        {
          "name": "",
          "type": "address"
        }
      ],
      "name": "walletOrderCancelledTimeoutMap",
      "outputs": [
        {
          "name": "",
          "type": "uint256"
        }
      ],
      "payable": false,
      "stateMutability": "view",
      "type": "function"
    },
    {
      "constant": true,
      "inputs": [],
      "name": "destructor",
      "outputs": [
        {
          "name": "",
          "type": "address"
        }
      ],
      "payable": false,
      "stateMutability": "view",
      "type": "function"
    },
    {
      "constant": true,
      "inputs": [
        {
          "name": "",
          "type": "address"
        },
        {
          "name": "",
          "type": "uint256"
        }
      ],
      "name": "walletCancelledOrderOperatorHashes",
      "outputs": [
        {
          "name": "",
          "type": "bytes32"
        }
      ],
      "payable": false,
      "stateMutability": "view",
      "type": "function"
    },
    {
      "constant": true,
      "inputs": [],
      "name": "operator",
      "outputs": [
        {
          "name": "",
          "type": "address"
        }
      ],
      "payable": false,
      "stateMutability": "view",
      "type": "function"
    },
    {
      "constant": false,
      "inputs": [
        {
          "name": "newConfiguration",
          "type": "address"
        }
      ],
      "name": "setConfiguration",
      "outputs": [],
      "payable": false,
      "stateMutability": "nonpayable",
      "type": "function"
    },
    {
      "constant": true,
      "inputs": [],
      "name": "configuration",
      "outputs": [
        {
          "name": "",
          "type": "address"
        }
      ],
      "payable": false,
      "stateMutability": "view",
      "type": "function"
    },
    {
      "constant": false,
      "inputs": [],
      "name": "disableSelfDestruction",
      "outputs": [],
      "payable": false,
      "stateMutability": "nonpayable",
      "type": "function"
    },
    {
      "constant": false,
      "inputs": [
        {
          "name": "newDeployer",
          "type": "address"
        }
      ],
      "name": "setDeployer",
      "outputs": [],
      "payable": false,
      "stateMutability": "nonpayable",
      "type": "function"
    },
    {
      "constant": true,
      "inputs": [
        {
          "name": "",
          "type": "address"
        },
        {
          "name": "",
          "type": "bytes32"
        }
      ],
      "name": "walletOrderOperatorHashCancelledMap",
      "outputs": [
        {
          "name": "",
          "type": "bool"
        }
      ],
      "payable": false,
      "stateMutability": "view",
      "type": "function"
    },
    {
      "constant": false,
      "inputs": [
        {
          "name": "newOperator",
          "type": "address"
        }
      ],
      "name": "setOperator",
      "outputs": [],
      "payable": false,
      "stateMutability": "nonpayable",
      "type": "function"
    },
    {
      "constant": true,
      "inputs": [
        {
          "name": "",
          "type": "address"
        },
        {
          "name": "",
          "type": "bytes32"
        }
      ],
      "name": "walletCancelledOrderOperatorHashIndexMap",
      "outputs": [
        {
          "name": "",
          "type": "uint256"
        }
      ],
      "payable": false,
      "stateMutability": "view",
      "type": "function"
    },
    {
      "constant": true,
      "inputs": [],
      "name": "deployer",
      "outputs": [
        {
          "name": "",
          "type": "address"
        }
      ],
      "payable": false,
      "stateMutability": "view",
      "type": "function"
    },
    {
      "inputs": [
        {
          "name": "deployer",
          "type": "address"
        }
      ],
      "payable": false,
      "stateMutability": "nonpayable",
      "type": "constructor"
    },
    {
      "anonymous": false,
      "inputs": [
        {
          "indexed": false,
          "name": "orderOperatorHashes",
          "type": "bytes32[]"
        },
        {
          "indexed": false,
          "name": "wallet",
          "type": "address"
        }
      ],
      "name": "CancelOrdersEvent",
      "type": "event"
    },
    {
      "anonymous": false,
      "inputs": [
        {
          "indexed": false,
          "name": "orderOperatorHash",
          "type": "bytes32"
        },
        {
          "indexed": false,
          "name": "tradeHash",
          "type": "bytes32"
        },
        {
          "indexed": false,
          "name": "wallet",
          "type": "address"
        }
      ],
      "name": "ChallengeEvent",
      "type": "event"
    },
    {
      "anonymous": false,
      "inputs": [
        {
          "indexed": false,
          "name": "oldValidator",
          "type": "address"
        },
        {
          "indexed": false,
          "name": "newValidator",
          "type": "address"
        }
      ],
      "name": "SetValidatorEvent",
      "type": "event"
    },
    {
      "anonymous": false,
      "inputs": [
        {
          "indexed": false,
          "name": "oldConfiguration",
          "type": "address"
        },
        {
          "indexed": false,
          "name": "newConfiguration",
          "type": "address"
        }
      ],
      "name": "SetConfigurationEvent",
      "type": "event"
    },
    {
      "anonymous": false,
      "inputs": [
        {
          "indexed": false,
          "name": "oldDeployer",
          "type": "address"
        },
        {
          "indexed": false,
          "name": "newDeployer",
          "type": "address"
        }
      ],
      "name": "SetDeployerEvent",
      "type": "event"
    },
    {
      "anonymous": false,
      "inputs": [
        {
          "indexed": false,
          "name": "oldOperator",
          "type": "address"
        },
        {
          "indexed": false,
          "name": "newOperator",
          "type": "address"
        }
      ],
      "name": "SetOperatorEvent",
      "type": "event"
    },
    {
      "anonymous": false,
      "inputs": [
        {
          "indexed": false,
          "name": "wallet",
          "type": "address"
        }
      ],
      "name": "SelfDestructionDisabledEvent",
      "type": "event"
    },
    {
      "anonymous": false,
      "inputs": [
        {
          "indexed": false,
          "name": "wallet",
          "type": "address"
        }
      ],
      "name": "TriggerSelfDestructionEvent",
      "type": "event"
    },
    {
      "constant": true,
      "inputs": [],
      "name": "cancellingWalletsCount",
      "outputs": [
        {
          "name": "",
          "type": "uint256"
        }
      ],
      "payable": false,
      "stateMutability": "view",
      "type": "function"
    },
    {
      "constant": true,
      "inputs": [
        {
          "name": "wallet",
          "type": "address"
        }
      ],
      "name": "cancelledOrdersCount",
      "outputs": [
        {
          "name": "",
          "type": "uint256"
        }
      ],
      "payable": false,
      "stateMutability": "view",
      "type": "function"
    },
    {
      "constant": true,
      "inputs": [
        {
          "name": "wallet",
          "type": "address"
        },
        {
          "name": "orderHash",
          "type": "bytes32"
        }
      ],
      "name": "isOrderCancelled",
      "outputs": [
        {
          "name": "",
          "type": "bool"
        }
      ],
      "payable": false,
      "stateMutability": "view",
      "type": "function"
    },
    {
      "constant": true,
      "inputs": [
        {
          "name": "wallet",
          "type": "address"
        },
        {
          "name": "low",
          "type": "uint256"
        },
        {
          "name": "up",
          "type": "uint256"
        }
      ],
      "name": "cancelledOrderHashesByIndices",
      "outputs": [
        {
          "name": "",
          "type": "bytes32[]"
        }
      ],
      "payable": false,
      "stateMutability": "view",
      "type": "function"
    },
    {
      "constant": false,
      "inputs": [
        {
          "components": [
            {
              "name": "nonce",
              "type": "uint256"
            },
            {
              "name": "wallet",
              "type": "address"
            },
            {
              "components": [
                {
                  "name": "intention",
                  "type": "uint8"
                },
                {
                  "name": "amount",
                  "type": "int256"
                },
                {
                  "components": [
                    {
                      "components": [
                        {
                          "name": "ct",
                          "type": "address"
                        },
                        {
                          "name": "id",
                          "type": "uint256"
                        }
                      ],
                      "name": "intended",
                      "type": "tuple"
                    },
                    {
                      "components": [
                        {
                          "name": "ct",
                          "type": "address"
                        },
                        {
                          "name": "id",
                          "type": "uint256"
                        }
                      ],
                      "name": "conjugate",
                      "type": "tuple"
                    }
                  ],
                  "name": "currencies",
                  "type": "tuple"
                },
                {
                  "name": "rate",
                  "type": "int256"
                },
                {
                  "components": [
                    {
                      "name": "current",
                      "type": "int256"
                    },
                    {
                      "name": "previous",
                      "type": "int256"
                    }
                  ],
                  "name": "residuals",
                  "type": "tuple"
                }
              ],
              "name": "placement",
              "type": "tuple"
            },
            {
              "components": [
                {
                  "components": [
                    {
                      "name": "hash",
                      "type": "bytes32"
                    },
                    {
                      "components": [
                        {
                          "name": "r",
                          "type": "bytes32"
                        },
                        {
                          "name": "s",
                          "type": "bytes32"
                        },
                        {
                          "name": "v",
                          "type": "uint8"
                        }
                      ],
                      "name": "signature",
                      "type": "tuple"
                    }
                  ],
                  "name": "wallet",
                  "type": "tuple"
                },
                {
                  "components": [
                    {
                      "name": "hash",
                      "type": "bytes32"
                    },
                    {
                      "components": [
                        {
                          "name": "r",
                          "type": "bytes32"
                        },
                        {
                          "name": "s",
                          "type": "bytes32"
                        },
                        {
                          "name": "v",
                          "type": "uint8"
                        }
                      ],
                      "name": "signature",
                      "type": "tuple"
                    }
                  ],
                  "name": "operator",
                  "type": "tuple"
                }
              ],
              "name": "seals",
              "type": "tuple"
            },
            {
              "name": "blockNumber",
              "type": "uint256"
            },
            {
              "name": "operatorId",
              "type": "uint256"
            }
          ],
          "name": "orders",
          "type": "tuple[]"
        }
      ],
      "name": "cancelOrders",
      "outputs": [],
      "payable": false,
      "stateMutability": "nonpayable",
      "type": "function"
    },
    {
      "constant": false,
      "inputs": [
        {
          "components": [
            {
              "name": "nonce",
              "type": "uint256"
            },
            {
              "name": "amount",
              "type": "int256"
            },
            {
              "components": [
                {
                  "components": [
                    {
                      "name": "ct",
                      "type": "address"
                    },
                    {
                      "name": "id",
                      "type": "uint256"
                    }
                  ],
                  "name": "intended",
                  "type": "tuple"
                },
                {
                  "components": [
                    {
                      "name": "ct",
                      "type": "address"
                    },
                    {
                      "name": "id",
                      "type": "uint256"
                    }
                  ],
                  "name": "conjugate",
                  "type": "tuple"
                }
              ],
              "name": "currencies",
              "type": "tuple"
            },
            {
              "name": "rate",
              "type": "int256"
            },
            {
              "components": [
                {
                  "name": "nonce",
                  "type": "uint256"
                },
                {
                  "name": "wallet",
                  "type": "address"
                },
                {
                  "name": "rollingVolume",
                  "type": "uint256"
                },
                {
                  "name": "liquidityRole",
                  "type": "uint8"
                },
                {
                  "components": [
                    {
                      "name": "amount",
                      "type": "int256"
                    },
                    {
                      "components": [
                        {
                          "name": "wallet",
                          "type": "bytes32"
                        },
                        {
                          "name": "operator",
                          "type": "bytes32"
                        }
                      ],
                      "name": "hashes",
                      "type": "tuple"
                    },
                    {
                      "components": [
                        {
                          "name": "current",
                          "type": "int256"
                        },
                        {
                          "name": "previous",
                          "type": "int256"
                        }
                      ],
                      "name": "residuals",
                      "type": "tuple"
                    }
                  ],
                  "name": "order",
                  "type": "tuple"
                },
                {
                  "components": [
                    {
                      "components": [
                        {
                          "name": "current",
                          "type": "int256"
                        },
                        {
                          "name": "previous",
                          "type": "int256"
                        }
                      ],
                      "name": "intended",
                      "type": "tuple"
                    },
                    {
                      "components": [
                        {
                          "name": "current",
                          "type": "int256"
                        },
                        {
                          "name": "previous",
                          "type": "int256"
                        }
                      ],
                      "name": "conjugate",
                      "type": "tuple"
                    }
                  ],
                  "name": "balances",
                  "type": "tuple"
                },
                {
                  "components": [
                    {
                      "components": [
                        {
                          "name": "amount",
                          "type": "int256"
                        },
                        {
                          "components": [
                            {
                              "name": "ct",
                              "type": "address"
                            },
                            {
                              "name": "id",
                              "type": "uint256"
                            }
                          ],
                          "name": "currency",
                          "type": "tuple"
                        }
                      ],
                      "name": "single",
                      "type": "tuple"
                    },
                    {
                      "components": [
                        {
                          "name": "originId",
                          "type": "uint256"
                        },
                        {
                          "components": [
                            {
                              "name": "amount",
                              "type": "int256"
                            },
                            {
                              "components": [
                                {
                                  "name": "ct",
                                  "type": "address"
                                },
                                {
                                  "name": "id",
                                  "type": "uint256"
                                }
                              ],
                              "name": "currency",
                              "type": "tuple"
                            }
                          ],
                          "name": "figure",
                          "type": "tuple"
                        }
                      ],
                      "name": "total",
                      "type": "tuple[]"
                    }
                  ],
                  "name": "fees",
                  "type": "tuple"
                }
              ],
              "name": "buyer",
              "type": "tuple"
            },
            {
              "components": [
                {
                  "name": "nonce",
                  "type": "uint256"
                },
                {
                  "name": "wallet",
                  "type": "address"
                },
                {
                  "name": "rollingVolume",
                  "type": "uint256"
                },
                {
                  "name": "liquidityRole",
                  "type": "uint8"
                },
                {
                  "components": [
                    {
                      "name": "amount",
                      "type": "int256"
                    },
                    {
                      "components": [
                        {
                          "name": "wallet",
                          "type": "bytes32"
                        },
                        {
                          "name": "operator",
                          "type": "bytes32"
                        }
                      ],
                      "name": "hashes",
                      "type": "tuple"
                    },
                    {
                      "components": [
                        {
                          "name": "current",
                          "type": "int256"
                        },
                        {
                          "name": "previous",
                          "type": "int256"
                        }
                      ],
                      "name": "residuals",
                      "type": "tuple"
                    }
                  ],
                  "name": "order",
                  "type": "tuple"
                },
                {
                  "components": [
                    {
                      "components": [
                        {
                          "name": "current",
                          "type": "int256"
                        },
                        {
                          "name": "previous",
                          "type": "int256"
                        }
                      ],
                      "name": "intended",
                      "type": "tuple"
                    },
                    {
                      "components": [
                        {
                          "name": "current",
                          "type": "int256"
                        },
                        {
                          "name": "previous",
                          "type": "int256"
                        }
                      ],
                      "name": "conjugate",
                      "type": "tuple"
                    }
                  ],
                  "name": "balances",
                  "type": "tuple"
                },
                {
                  "components": [
                    {
                      "components": [
                        {
                          "name": "amount",
                          "type": "int256"
                        },
                        {
                          "components": [
                            {
                              "name": "ct",
                              "type": "address"
                            },
                            {
                              "name": "id",
                              "type": "uint256"
                            }
                          ],
                          "name": "currency",
                          "type": "tuple"
                        }
                      ],
                      "name": "single",
                      "type": "tuple"
                    },
                    {
                      "components": [
                        {
                          "name": "originId",
                          "type": "uint256"
                        },
                        {
                          "components": [
                            {
                              "name": "amount",
                              "type": "int256"
                            },
                            {
                              "components": [
                                {
                                  "name": "ct",
                                  "type": "address"
                                },
                                {
                                  "name": "id",
                                  "type": "uint256"
                                }
                              ],
                              "name": "currency",
                              "type": "tuple"
                            }
                          ],
                          "name": "figure",
                          "type": "tuple"
                        }
                      ],
                      "name": "total",
                      "type": "tuple[]"
                    }
                  ],
                  "name": "fees",
                  "type": "tuple"
                }
              ],
              "name": "seller",
              "type": "tuple"
            },
            {
              "components": [
                {
                  "components": [
                    {
                      "name": "single",
                      "type": "int256"
                    },
                    {
                      "name": "total",
                      "type": "int256"
                    }
                  ],
                  "name": "intended",
                  "type": "tuple"
                },
                {
                  "components": [
                    {
                      "name": "single",
                      "type": "int256"
                    },
                    {
                      "name": "total",
                      "type": "int256"
                    }
                  ],
                  "name": "conjugate",
                  "type": "tuple"
                }
              ],
              "name": "transfers",
              "type": "tuple"
            },
            {
              "components": [
                {
                  "name": "hash",
                  "type": "bytes32"
                },
                {
                  "components": [
                    {
                      "name": "r",
                      "type": "bytes32"
                    },
                    {
                      "name": "s",
                      "type": "bytes32"
                    },
                    {
                      "name": "v",
                      "type": "uint8"
                    }
                  ],
                  "name": "signature",
                  "type": "tuple"
                }
              ],
              "name": "seal",
              "type": "tuple"
            },
            {
              "name": "blockNumber",
              "type": "uint256"
            },
            {
              "name": "operatorId",
              "type": "uint256"
            }
          ],
          "name": "trade",
          "type": "tuple"
        },
        {
          "name": "wallet",
          "type": "address"
        }
      ],
      "name": "challenge",
      "outputs": [],
      "payable": false,
      "stateMutability": "nonpayable",
      "type": "function"
    },
    {
      "constant": true,
      "inputs": [
        {
          "name": "wallet",
          "type": "address"
        }
      ],
      "name": "challengePhase",
      "outputs": [
        {
          "name": "",
          "type": "uint8"
        }
      ],
      "payable": false,
      "stateMutability": "view",
      "type": "function"
    }
  ],
  "bytecode": "0x60806040523480156200001157600080fd5b50604051602080620021b58339810180604052620000339190810190620000b6565b8080600160a060020a03811615156200004b57600080fd5b600160a060020a0381163014156200006257600080fd5b506000805461010060a860020a031916610100600160a060020a039390931692830217905560018054600160a060020a031916909117905550620000eb565b6000620000af8251620000df565b9392505050565b600060208284031215620000c957600080fd5b6000620000d78484620000a1565b949350505050565b600160a060020a031690565b6120ba80620000fb6000396000f3006080604052600436106101245763ffffffff60e060020a6000350416631327d3d88114610129578063173ee83f1461014b57806319cd39c014610181578063239985f4146101965780632738a112146101c35780632f013a00146101d85780633a5381b5146101fa57806341ecfd451461021c5780634476d23b1461023c57806347d6e17d14610251578063570ca73514610271578063627f09c3146102865780636c70bee9146102a657806370327ea1146102bb5780638f38575b146102d057806396214735146102f05780639846bce4146103105780639bd5eb1614610330578063b3ab15fb14610350578063b43499aa14610370578063bb332f0814610390578063d5f39488146103b0578063e0a04405146103c5578063e7d42cfc146103f2575b600080fd5b34801561013557600080fd5b5061014961014436600461197d565b61041f565b005b34801561015757600080fd5b5061016b61016636600461187e565b6104c7565b6040516101789190611f54565b60405180910390f35b34801561018d57600080fd5b5061016b610563565b3480156101a257600080fd5b506101b66101b13660046119e1565b610569565b6040516101789190611eec565b3480156101cf57600080fd5b50610149610591565b3480156101e457600080fd5b506101ed6105f7565b6040516101789190611f46565b34801561020657600080fd5b5061020f610600565b6040516101789190611f8a565b34801561022857600080fd5b5061016b61023736600461187e565b61060f565b34801561024857600080fd5b506101b6610621565b34801561025d57600080fd5b5061016b61026c3660046118a4565b610635565b34801561027d57600080fd5b506101b6610665565b34801561029257600080fd5b506101496102a136600461197d565b610674565b3480156102b257600080fd5b5061020f61070c565b3480156102c757600080fd5b5061014961071b565b3480156102dc57600080fd5b506101496102eb36600461192b565b61077e565b3480156102fc57600080fd5b5061014961030b36600461187e565b610b18565b34801561031c57600080fd5b506101ed61032b3660046118a4565b610bdf565b34801561033c57600080fd5b506101ed61034b3660046118a4565b610bff565b34801561035c57600080fd5b5061014961036b36600461187e565b610c2d565b34801561037c57600080fd5b5061016b61038b3660046118a4565b610cd7565b34801561039c57600080fd5b506101496103ab36600461199b565b610cf4565b3480156103bc57600080fd5b506101b6610f25565b3480156103d157600080fd5b506103e56103e036600461187e565b610f39565b6040516101789190611fb3565b3480156103fe57600080fd5b5061041261040d3660046118de565b610f8d565b6040516101789190611f15565b60006104296110a3565b151561043457600080fd5b81600160a060020a038116151561044a57600080fd5b6003548390600160a060020a0390811690821681146104c05760038054600160a060020a03878116600160a060020a0319831617909255604051911694507f1882af944a16549c3d4f60e3cd26f158b0c7aac3222cf32971fc21375ce05f60906104b79086908890611f98565b60405180910390a15b5050505050565b60008080805b600160a060020a03851660009081526006602052604090205482101561055a57600160a060020a038516600090815260066020526040902080548390811061051157fe5b6000918252602080832090910154600160a060020a038816835260058252604080842082855290925291205490915060ff161561054f576001909201915b6001909101906104cd565b50909392505050565b60045490565b600480548290811061057757fe5b600091825260209091200154600160a060020a0316905081565b3361059a610621565b600160a060020a0316146105ad57600080fd5b60005460ff16156105bd57600080fd5b7f787a5d936e74f4b564b9153575886059829c78cd9927b1be5e0d976b317ef736336040516105ec9190611eec565b60405180910390a133ff5b60005460ff1681565b600354600160a060020a031681565b60086020526000908152604090205481565b6000546101009004600160a060020a031690565b60066020528160005260406000208181548110151561065057fe5b90600052602060002001600091509150505481565b600154600160a060020a031681565b600061067e6110a3565b151561068957600080fd5b81600160a060020a038116151561069f57600080fd5b6002548390600160a060020a0390811690821681146104c05760028054600160a060020a03878116600160a060020a0319831617909255604051911694507f634f61bf00e14adedce330c80c2823e16e184f189ebe853e1ddecc4a268477ff906104b79086908890611f98565b600254600160a060020a031681565b33610724610621565b600160a060020a03161461073757600080fd5b6000805460ff191660011790556040517fd5a2a04a775c741c2ca0dc46ea7ce4835190e1aaf1ca018def0e82568ec3361690610774903390611eec565b60405180910390a1565b6002546040805160e060020a63f71e860f0281529051600092600160a060020a03169163f71e860f91600480830192602092919082900301818787803b1580156107c757600080fd5b505af11580156107db573d6000803e3d6000fd5b505050506040513d601f19601f820116820180604052506107ff919081019061195f565b151561080a57600080fd5b5060005b8151811015610a3457818181518110151561082557fe5b6020908102919091018101510151600160a060020a0316331461084757600080fd5b6003548251600160a060020a03909116906331f2978b9084908490811061086a57fe5b906020019060200201516040518263ffffffff1660e060020a0281526004016108939190611fc1565b602060405180830381600087803b1580156108ad57600080fd5b505af11580156108c1573d6000803e3d6000fd5b505050506040513d601f19601f820116820180604052506108e5919081019061195f565b15156108f057600080fd5b33600090815260066020526040902054151561094957600480546001810182556000919091527f8a35acfbc15ff81a39ae7d344fd709f28e8600b4aa8c65c6b64bfe7fe36bd19b018054600160a060020a031916331790555b33600090815260056020526040812083516001929085908590811061096a57fe5b602090810291909101810151606001518101515182528181019290925260409081016000908120805460ff1916941515949094179093553383526006909152902082518390839081106109b957fe5b602090810290910181015160600151810151518254600181018455600093845282842001553382526006815260408083205460079092528220845160001992909201929091859085908110610a0a57fe5b6020908102909101810151606001518101515182528101919091526040016000205560010161080e565b6002546040805160e860020a62940b810281529051610ac392600160a060020a03169163940b81009160048083019260209291908290030181600087803b158015610a7e57600080fd5b505af1158015610a92573d6000803e3d6000fd5b505050506040513d601f19601f82011682018060405250610ab691908101906119ff565b429063ffffffff6110b916565b336000908152600860205260409020557fe7ffedc7de8c229cf93453c1b344d32c21aebcd4c7e6859da6d3a9c4bd1e1e2d610afd836110cf565b33604051610b0c929190611f26565b60405180910390a15050565b6000610b226110a3565b1515610b2d57600080fd5b81600160a060020a0381161515610b4357600080fd5b600160a060020a038116301415610b5957600080fd5b600054600160a060020a038481166101009092041614610bda5760008054600160a060020a0385811661010090810261010060a860020a0319841617909355604051929091041692507f977e5fa58e458501775e0008d275006294c5249e3c08d1d0e3a9f3acad14f6e490610bd19084908690611efa565b60405180910390a15b505050565b600560209081526000928352604080842090915290825290205460ff1681565b600160a060020a038216600090815260056020908152604080832084845290915290205460ff165b92915050565b6000610c37611157565b1515610c4257600080fd5b81600160a060020a0381161515610c5857600080fd5b600160a060020a038116301415610c6e57600080fd5b600154600160a060020a03848116911614610bda5760018054600160a060020a03858116600160a060020a0319831617909255604051911692507f9f611b789425d0d5b90b920f1b2852907dd865c80074a30b1629aaa041d1812c90610bd19084908690611efa565b600760209081526000928352604080842090915290825290205481565b6002546040805160e060020a63f71e860f0281529051600092600160a060020a03169163f71e860f91600480830192602092919082900301818787803b158015610d3d57600080fd5b505af1158015610d51573d6000803e3d6000fd5b505050506040513d601f19601f82011682018060405250610d75919081019061195f565b1515610d8057600080fd5b60035460405160e160020a637211c8c70281528491600160a060020a03169063e423918e90610db3908490600401611fd0565b602060405180830381600087803b158015610dcd57600080fd5b505af1158015610de1573d6000803e3d6000fd5b505050506040513d601f19601f82011682018060405250610e05919081019061195f565b1515610e1057600080fd5b600160a060020a0383166000908152600860205260409020544210610e3457600080fd5b836080015160200151600160a060020a031683600160a060020a031614610e6b578360a00151608001516020015160200151610e7d565b83608001516080015160200151602001515b600160a060020a038416600090815260056020908152604080832084845290915290205490925060ff161515610eb257600080fd5b600160a060020a038316600090815260056020908152604080832085845290915290819020805460ff1916905560e08501515190517f712867d7fe9a56f48e89fef0ed3a3036d527d1b854afbd42f20f431ce4e5c7b391610f17918591903390611f62565b60405180910390a150505050565b6000546101009004600160a060020a031681565b600160a060020a03811660009081526006602052604081205481108015610f775750600160a060020a03821660009081526008602052604090205442105b15610f8457506000610f88565b5060015b919050565b600160a060020a03831660009081526006602052604081205460609182918110610fb657600080fd5b83851115610fc357600080fd5b600160a060020a038616600090815260066020526040902054600019018411610fec578361100a565b600160a060020a038616600090815260066020526040902054600019015b935084840360010160405190808252806020026020018201604052801561103b578160200160208202803883390190505b5091508490505b83811161109a57600160a060020a038616600090815260066020526040902080548290811061106d57fe5b90600052602060002001548286830381518110151561108857fe5b60209081029091010152600101611042565b50949350505050565b6000546101009004600160a060020a0316331490565b6000828201838110156110c857fe5b9392505050565b606080600083516040519080825280602002602001820160405280156110ff578160200160208202803883390190505b509150600090505b835181101561115057838181518110151561111e57fe5b602090810290910181015160600151015151825183908390811061113e57fe5b60209081029091010152600101611107565b5092915050565b600154600160a060020a0316331490565b60006110c88235612031565b6000601f8201831361118557600080fd5b813561119861119382612007565b611fe1565b91508181835260208401935060208101905083856102a08402820111156111be57600080fd5b60005b838110156111ed57816111d4888261143f565b8452506020909201916102a091909101906001016111c1565b5050505092915050565b6000601f8201831361120857600080fd5b813561121661119382612007565b9150818183526020840193506020810190508385608084028201111561123b57600080fd5b60005b838110156111ed578161125188826114da565b8452506020909201916080919091019060010161123e565b60006110c8825161203d565b60006110c88235612042565b60006110c8823561205b565b60006110c88235612066565b6000604082840312156112ab57600080fd5b6112b56040611fe1565b905060006112c38484611168565b82525060206112d484848301611275565b60208301525092915050565b6000604082840312156112f257600080fd5b6112fc6040611fe1565b905060006112c38484611275565b60006060828403121561131c57600080fd5b6113266040611fe1565b905060006113348484611275565b82525060206112d484848301611299565b60006080828403121561135757600080fd5b6113616040611fe1565b9050600061136f8484611299565b82525060406112d484848301611299565b60006080828403121561139257600080fd5b61139c6040611fe1565b905060006113aa84846112e0565b82525060406112d4848483016112e0565b600061012082840312156113ce57600080fd5b6113d860a0611fe1565b905060006113e6848461128d565b82525060206113f784848301611275565b602083015250604061140b84828501611345565b60408301525060c061141f84828501611275565b60608301525060e0611433848285016112e0565b60808301525092915050565b60006102a0828403121561145257600080fd5b61145c60c0611fe1565b9050600061146a8484611275565b825250602061147b84848301611168565b602083015250604061148f848285016113bb565b6040830152506101606114a48482850161182a565b6060830152506102606114b984828501611275565b6080830152506102806114ce84828501611275565b60a08301525092915050565b6000608082840312156114ec57600080fd5b6114f66040611fe1565b905060006115048484611275565b82525060206112d48484830161130a565b60006080828403121561152757600080fd5b6115316040611fe1565b9050600061153f8484611275565b82525060206112d48484830160006060828403121561155d57600080fd5b6115676060611fe1565b905060006115758484611275565b825250602061158684848301611275565b602083015250604061159a84828501611872565b60408301525092915050565b6000608082840312156115b857600080fd5b6115c26040611fe1565b905060006115d0848461130a565b82525060608201356001604060020a038111156115ec57600080fd5b6112d4848285016111f7565b600060a0828403121561160a57600080fd5b6116146060611fe1565b905060006116228484611275565b8252506020611633848483016112e0565b602083015250606061159a848285016112e0565b60006101c0828403121561165a57600080fd5b61166460e0611fe1565b905060006116728484611275565b825250602061168384848301611168565b602083015250604061169784828501611275565b60408301525060606116ab8482850161128d565b60608301525060806116bf848285016115f8565b6080830152506101206116d484828501611380565b60a0830152506101a08201356001604060020a038111156116f457600080fd5b611700848285016115a6565b60c08301525092915050565b6000610260828403121561171f57600080fd5b61172a610140611fe1565b905060006117388484611275565b825250602061174984848301611275565b602083015250604061175d84828501611345565b60408301525060c061177184828501611275565b60608301525060e08201356001604060020a0381111561179057600080fd5b61179c84828501611647565b6080830152506101008201356001604060020a038111156117bc57600080fd5b6117c884828501611647565b60a0830152506101206117dd84828501611380565b60c0830152506101a06117f284828501611515565b60e08301525061022061180784828501611275565b6101008301525061024061181d84828501611275565b6101208301525092915050565b6000610100828403121561183d57600080fd5b6118476040611fe1565b905060006118558484611515565b82525060806112d484848301611515565b60006110c88251612042565b60006110c88235612055565b60006020828403121561189057600080fd5b600061189c8484611168565b949350505050565b600080604083850312156118b757600080fd5b60006118c38585611168565b92505060206118d485828601611275565b9150509250929050565b6000806000606084860312156118f357600080fd5b60006118ff8686611168565b935050602061191086828701611275565b925050604061192186828701611275565b9150509250925092565b60006020828403121561193d57600080fd5b81356001604060020a0381111561195357600080fd5b61189c84828501611174565b60006020828403121561197157600080fd5b600061189c8484611269565b60006020828403121561198f57600080fd5b600061189c8484611281565b600080604083850312156119ae57600080fd5b82356001604060020a038111156119c457600080fd5b6119d08582860161170c565b92505060206118d485828601611168565b6000602082840312156119f357600080fd5b600061189c8484611275565b600060208284031215611a1157600080fd5b600061189c8484611866565b611a2681612031565b82525050565b6000611a378261202d565b808452602084019350611a4983612027565b60005b82811015611a7957611a5f868351611ad9565b611a6882612027565b602096909601959150600101611a4c565b5093949350505050565b6000611a8e8261202d565b808452602084019350611aa083612027565b60005b82811015611a7957611ab6868351611c6d565b611abf82612027565b608096909601959150600101611aa3565b611a268161203d565b611a2681612042565b611a268161205b565b611a2681612075565b80516040830190611b058482611a1d565b506020820151611b186020850182611ad9565b50505050565b80516040830190611b058482611ad9565b80516060830190611b408482611ad9565b506020820151611b186020850182611af4565b80516080830190611b648482611af4565b506020820151611b186040850182611af4565b80516080830190611b888482611b1e565b506020820151611b186040850182611b1e565b8051610120830190611bad8482611aeb565b506020820151611bc06020850182611ad9565b506040820151611bd36040850182611b53565b506060820151611be660c0850182611ad9565b506080820151611b1860e0850182611b1e565b80516102a0830190611c0b8482611ad9565b506020820151611c1e6020850182611a1d565b506040820151611c316040850182611b9b565b506060820151611c45610160850182611ebe565b506080820151611c59610260850182611ad9565b5060a0820151611b18610280850182611ad9565b80516080830190611c7e8482611ad9565b506020820151611b186020850182611b2f565b80516080830190611ca28482611ad9565b506020820151611b18602085018280516060830190611cc18482611ad9565b506020820151611cd46020850182611ad9565b506040820151611b186040850182611ee3565b80516000906080840190611cfb8582611b2f565b5060208301518482036060860152611d138282611a83565b95945050505050565b805160a0830190611d2d8482611ad9565b506020820151611d406020850182611b1e565b506040820151611b186060850182611b1e565b80516000906101c0840190611d688582611ad9565b506020830151611d7b6020860182611a1d565b506040830151611d8e6040860182611ad9565b506060830151611da16060860182611aeb565b506080830151611db46080860182611d1c565b5060a0830151611dc8610120860182611b77565b5060c08301518482036101a0860152611d138282611ce7565b8051600090610260840190611df68582611ad9565b506020830151611e096020860182611ad9565b506040830151611e1c6040860182611b53565b506060830151611e2f60c0860182611ad9565b50608083015184820360e0860152611e478282611d53565b91505060a0830151848203610100860152611e628282611d53565b91505060c0830151611e78610120860182611b77565b5060e0830151611e8c6101a0860182611c91565b50610100830151611ea1610220860182611ad9565b50610120830151611eb6610240860182611ad9565b509392505050565b8051610100830190611ed08482611c91565b506020820151611b186080850182611c91565b611a2681612055565b60208101610c278284611a1d565b60408101611f088285611a1d565b6110c86020830184611a1d565b602080825281016110c88184611a2c565b60408082528101611f378185611a2c565b90506110c86020830184611a1d565b60208101610c278284611ad0565b60208101610c278284611ad9565b60608101611f708286611ad9565b611f7d6020830185611ad9565b61189c6040830184611a1d565b60208101610c278284611ae2565b60408101611fa68285611ae2565b6110c86020830184611ae2565b60208101610c278284611aeb565b6102a08101610c278284611bf9565b602080825281016110c88184611de1565b6040518181016001604060020a0381118282101715611fff57600080fd5b604052919050565b60006001604060020a0382111561201d57600080fd5b5060209081020190565b60200190565b5190565b600160a060020a031690565b151590565b90565b60006002821061205157fe5b5090565b60ff1690565b6000610c2782612031565b60006002821061205157600080fd5b6000610c27826120455600a265627a7a72305820347c4a724c2bee443a71b7ca4e673a9631479d49522de19417a09f22e0175d7c6c6578706572696d656e74616cf50037",
  "source": "/*\n * Hubii Nahmii\n *\n * Compliant with the Hubii Nahmii specification v0.12.\n *\n * Copyright (C) 2017-2018 Hubii AS\n */\n\npragma solidity ^0.4.25;\npragma experimental ABIEncoderV2;\n\nimport {SafeMathIntLib} from \"./SafeMathIntLib.sol\";\nimport {SafeMathUintLib} from \"./SafeMathUintLib.sol\";\nimport {ConfigurableOperational} from \"./ConfigurableOperational.sol\";\nimport {ValidatableV2} from \"./ValidatableV2.sol\";\nimport {Ownable} from \"./Ownable.sol\";\nimport {NahmiiTypesLib} from \"./NahmiiTypesLib.sol\";\nimport {TradeTypesLib} from \"./TradeTypesLib.sol\";\n\n/**\n * @title CancelOrdersChallenge\n * @notice Where orders are cancelled and cancellations challenged\n */\ncontract CancelOrdersChallenge is Ownable, ConfigurableOperational, ValidatableV2 {\n    using SafeMathIntLib for int256;\n    using SafeMathUintLib for uint256;\n\n    //\n    // Variables\n    // -----------------------------------------------------------------------------------------------------------------\n    address[] public cancellingWallets;\n\n    mapping(address => mapping(bytes32 => bool)) public walletOrderOperatorHashCancelledMap;\n\n    mapping(address => bytes32[]) public walletCancelledOrderOperatorHashes;\n    mapping(address => mapping(bytes32 => uint256)) public walletCancelledOrderOperatorHashIndexMap;\n\n    mapping(address => uint256) public walletOrderCancelledTimeoutMap;\n\n    //\n    // Events\n    // -----------------------------------------------------------------------------------------------------------------\n    event CancelOrdersEvent(bytes32[] orderOperatorHashes, address wallet);\n    event ChallengeEvent(bytes32 orderOperatorHash, bytes32 tradeHash, address wallet);\n\n    //\n    // Constructor\n    // -----------------------------------------------------------------------------------------------------------------\n    constructor(address deployer) Ownable(deployer) public {\n    }\n\n    //\n    // Functions\n    // -----------------------------------------------------------------------------------------------------------------\n    /// @notice Get count of wallets that have cancelled orders\n    /// @return The count of cancelling wallets\n    function cancellingWalletsCount()\n    public\n    view\n    returns (uint256)\n    {\n        return cancellingWallets.length;\n    }\n\n    /// @notice Get count of cancelled orders for given wallet\n    /// @param wallet The wallet for which to return the count of cancelled orders\n    /// @return The count of cancelled orders\n    function cancelledOrdersCount(address wallet)\n    public\n    view\n    returns (uint256)\n    {\n        uint256 count = 0;\n        for (uint256 i = 0; i < walletCancelledOrderOperatorHashes[wallet].length; i++) {\n            bytes32 operatorHash = walletCancelledOrderOperatorHashes[wallet][i];\n            if (walletOrderOperatorHashCancelledMap[wallet][operatorHash])\n                count++;\n        }\n        return count;\n    }\n\n    /// @notice Get wallets cancelled status of order\n    /// @param wallet The ordering wallet\n    /// @param orderHash The (operator) hash of the order\n    /// @return true if order is cancelled, else false\n    function isOrderCancelled(address wallet, bytes32 orderHash)\n    public\n    view\n    returns (bool)\n    {\n        return walletOrderOperatorHashCancelledMap[wallet][orderHash];\n    }\n\n    /// @notice Get cancelled order hashes for given wallet in the given index range\n    /// @param wallet The wallet for which to return the nonces of cancelled orders\n    /// @param low The lower inclusive index from which to extract orders\n    /// @param up The upper inclusive index from which to extract orders\n    /// @return The array of cancelled operator hashes\n    function cancelledOrderHashesByIndices(address wallet, uint256 low, uint256 up)\n    public\n    view\n    returns (bytes32[])\n    {\n        require(0 < walletCancelledOrderOperatorHashes[wallet].length);\n        require(low <= up);\n\n        up = up > walletCancelledOrderOperatorHashes[wallet].length - 1 ? walletCancelledOrderOperatorHashes[wallet].length - 1 : up;\n        bytes32[] memory hashes = new bytes32[](up - low + 1);\n        for (uint256 i = low; i <= up; i++)\n            hashes[i - low] = walletCancelledOrderOperatorHashes[wallet][i];\n        return hashes;\n    }\n\n    /// @notice Cancel orders of msg.sender\n    /// @param orders The orders to cancel\n    function cancelOrders(TradeTypesLib.Order[] orders)\n    public\n    onlyOperationalModeNormal\n    {\n        for (uint256 i = 0; i < orders.length; i++) {\n            require(msg.sender == orders[i].wallet);\n            require(validator.isGenuineOrderSeals(orders[i]));\n\n            if (0 == walletCancelledOrderOperatorHashes[msg.sender].length)\n                cancellingWallets.push(msg.sender);\n\n            walletOrderOperatorHashCancelledMap[msg.sender][orders[i].seals.operator.hash] = true;\n            walletCancelledOrderOperatorHashes[msg.sender].push(orders[i].seals.operator.hash);\n            walletCancelledOrderOperatorHashIndexMap[msg.sender][orders[i].seals.operator.hash] = walletCancelledOrderOperatorHashes[msg.sender].length - 1;\n        }\n\n        walletOrderCancelledTimeoutMap[msg.sender] = block.timestamp.add(configuration.cancelOrderChallengeTimeout());\n\n        emit CancelOrdersEvent(_orderOperatorHashes(orders), msg.sender);\n    }\n\n    /// @notice Challenge cancelled order\n    /// @param trade The trade that challenges a cancelled order\n    /// @param wallet The address of the concerned wallet\n    function challenge(TradeTypesLib.Trade trade, address wallet)\n    public\n    onlyOperationalModeNormal\n    onlySealedTrade(trade)\n    {\n        require(block.timestamp < walletOrderCancelledTimeoutMap[wallet]);\n\n        bytes32 tradeOrderOperatorHash = (\n        wallet == trade.buyer.wallet ?\n        trade.buyer.order.hashes.operator :\n        trade.seller.order.hashes.operator\n        );\n\n        require(walletOrderOperatorHashCancelledMap[wallet][tradeOrderOperatorHash]);\n\n        walletOrderOperatorHashCancelledMap[wallet][tradeOrderOperatorHash] = false;\n\n        emit ChallengeEvent(tradeOrderOperatorHash, trade.seal.hash, msg.sender);\n    }\n\n    /// @notice Get current phase of a wallets cancelled order challenge\n    /// @param wallet The address of wallet for which the cancelled order challenge phase is returned\n    /// @return The challenge phase\n    function challengePhase(address wallet)\n    public\n    view\n    returns (NahmiiTypesLib.ChallengePhase)\n    {\n        if (0 < walletCancelledOrderOperatorHashes[wallet].length && block.timestamp < walletOrderCancelledTimeoutMap[wallet])\n            return NahmiiTypesLib.ChallengePhase.Dispute;\n        else\n            return NahmiiTypesLib.ChallengePhase.Closed;\n    }\n\n    //\n    // Private functions\n    // -----------------------------------------------------------------------------------------------------------------\n    function _orderOperatorHashes(TradeTypesLib.Order[] orders)\n    private\n    pure\n    returns (bytes32[])\n    {\n        bytes32[] memory operatorHashes = new bytes32[](orders.length);\n        for (uint256 i = 0; i < orders.length; i++)\n            operatorHashes[i] = orders[i].seals.operator.hash;\n        return operatorHashes;\n    }\n}",
  "sourcePath": "/opt/buildagent/work/855e104608380c36/contracts/CancelOrdersChallenge.sol",
  "compiler": {
    "name": "solc",
    "version": "0.4.25+commit.59dbf8f1.Emscripten.clang"
  },
  "schemaVersion": "2.0.2",
  "updatedAt": "2019-04-02T08:24:31.824Z"
}