{
  "contractName": "CancelOrdersChallenge",
  "abi": [
    {
      "inputs": [
        {
          "internalType": "address",
          "name": "deployer",
          "type": "address"
        }
      ],
      "payable": false,
      "stateMutability": "nonpayable",
      "type": "constructor"
    },
    {
      "anonymous": false,
      "inputs": [
        {
          "indexed": false,
          "internalType": "bytes32[]",
          "name": "orderOperatorHashes",
          "type": "bytes32[]"
        },
        {
          "indexed": false,
          "internalType": "address",
          "name": "wallet",
          "type": "address"
        }
      ],
      "name": "CancelOrdersEvent",
      "type": "event"
    },
    {
      "anonymous": false,
      "inputs": [
        {
          "indexed": false,
          "internalType": "bytes32",
          "name": "orderOperatorHash",
          "type": "bytes32"
        },
        {
          "indexed": false,
          "internalType": "bytes32",
          "name": "tradeHash",
          "type": "bytes32"
        },
        {
          "indexed": false,
          "internalType": "address",
          "name": "wallet",
          "type": "address"
        }
      ],
      "name": "ChallengeEvent",
      "type": "event"
    },
    {
      "anonymous": false,
      "inputs": [
        {
          "indexed": false,
          "internalType": "address",
          "name": "wallet",
          "type": "address"
        }
      ],
      "name": "SelfDestructionDisabledEvent",
      "type": "event"
    },
    {
      "anonymous": false,
      "inputs": [
        {
          "indexed": false,
          "internalType": "contract Configuration",
          "name": "oldConfiguration",
          "type": "address"
        },
        {
          "indexed": false,
          "internalType": "contract Configuration",
          "name": "newConfiguration",
          "type": "address"
        }
      ],
      "name": "SetConfigurationEvent",
      "type": "event"
    },
    {
      "anonymous": false,
      "inputs": [
        {
          "indexed": false,
          "internalType": "address",
          "name": "oldDeployer",
          "type": "address"
        },
        {
          "indexed": false,
          "internalType": "address",
          "name": "newDeployer",
          "type": "address"
        }
      ],
      "name": "SetDeployerEvent",
      "type": "event"
    },
    {
      "anonymous": false,
      "inputs": [
        {
          "indexed": false,
          "internalType": "address",
          "name": "oldOperator",
          "type": "address"
        },
        {
          "indexed": false,
          "internalType": "address",
          "name": "newOperator",
          "type": "address"
        }
      ],
      "name": "SetOperatorEvent",
      "type": "event"
    },
    {
      "anonymous": false,
      "inputs": [
        {
          "indexed": false,
          "internalType": "contract ValidatorV2",
          "name": "oldValidator",
          "type": "address"
        },
        {
          "indexed": false,
          "internalType": "contract ValidatorV2",
          "name": "newValidator",
          "type": "address"
        }
      ],
      "name": "SetValidatorEvent",
      "type": "event"
    },
    {
      "anonymous": false,
      "inputs": [
        {
          "indexed": false,
          "internalType": "address",
          "name": "wallet",
          "type": "address"
        }
      ],
      "name": "TriggerSelfDestructionEvent",
      "type": "event"
    },
    {
      "constant": true,
      "inputs": [
        {
          "internalType": "uint256",
          "name": "",
          "type": "uint256"
        }
      ],
      "name": "cancellingWallets",
      "outputs": [
        {
          "internalType": "address",
          "name": "",
          "type": "address"
        }
      ],
      "payable": false,
      "stateMutability": "view",
      "type": "function"
    },
    {
      "constant": true,
      "inputs": [],
      "name": "configuration",
      "outputs": [
        {
          "internalType": "contract Configuration",
          "name": "",
          "type": "address"
        }
      ],
      "payable": false,
      "stateMutability": "view",
      "type": "function"
    },
    {
      "constant": true,
      "inputs": [],
      "name": "deployer",
      "outputs": [
        {
          "internalType": "address",
          "name": "",
          "type": "address"
        }
      ],
      "payable": false,
      "stateMutability": "view",
      "type": "function"
    },
    {
      "constant": true,
      "inputs": [],
      "name": "destructor",
      "outputs": [
        {
          "internalType": "address",
          "name": "",
          "type": "address"
        }
      ],
      "payable": false,
      "stateMutability": "view",
      "type": "function"
    },
    {
      "constant": false,
      "inputs": [],
      "name": "disableSelfDestruction",
      "outputs": [],
      "payable": false,
      "stateMutability": "nonpayable",
      "type": "function"
    },
    {
      "constant": true,
      "inputs": [],
      "name": "operator",
      "outputs": [
        {
          "internalType": "address",
          "name": "",
          "type": "address"
        }
      ],
      "payable": false,
      "stateMutability": "view",
      "type": "function"
    },
    {
      "constant": true,
      "inputs": [],
      "name": "selfDestructionDisabled",
      "outputs": [
        {
          "internalType": "bool",
          "name": "",
          "type": "bool"
        }
      ],
      "payable": false,
      "stateMutability": "view",
      "type": "function"
    },
    {
      "constant": false,
      "inputs": [
        {
          "internalType": "contract Configuration",
          "name": "newConfiguration",
          "type": "address"
        }
      ],
      "name": "setConfiguration",
      "outputs": [],
      "payable": false,
      "stateMutability": "nonpayable",
      "type": "function"
    },
    {
      "constant": false,
      "inputs": [
        {
          "internalType": "address",
          "name": "newDeployer",
          "type": "address"
        }
      ],
      "name": "setDeployer",
      "outputs": [],
      "payable": false,
      "stateMutability": "nonpayable",
      "type": "function"
    },
    {
      "constant": false,
      "inputs": [
        {
          "internalType": "address",
          "name": "newOperator",
          "type": "address"
        }
      ],
      "name": "setOperator",
      "outputs": [],
      "payable": false,
      "stateMutability": "nonpayable",
      "type": "function"
    },
    {
      "constant": false,
      "inputs": [
        {
          "internalType": "contract ValidatorV2",
          "name": "newValidator",
          "type": "address"
        }
      ],
      "name": "setValidator",
      "outputs": [],
      "payable": false,
      "stateMutability": "nonpayable",
      "type": "function"
    },
    {
      "constant": false,
      "inputs": [],
      "name": "triggerSelfDestruction",
      "outputs": [],
      "payable": false,
      "stateMutability": "nonpayable",
      "type": "function"
    },
    {
      "constant": true,
      "inputs": [],
      "name": "validator",
      "outputs": [
        {
          "internalType": "contract ValidatorV2",
          "name": "",
          "type": "address"
        }
      ],
      "payable": false,
      "stateMutability": "view",
      "type": "function"
    },
    {
      "constant": true,
      "inputs": [
        {
          "internalType": "address",
          "name": "",
          "type": "address"
        },
        {
          "internalType": "bytes32",
          "name": "",
          "type": "bytes32"
        }
      ],
      "name": "walletCancelledOrderOperatorHashIndexMap",
      "outputs": [
        {
          "internalType": "uint256",
          "name": "",
          "type": "uint256"
        }
      ],
      "payable": false,
      "stateMutability": "view",
      "type": "function"
    },
    {
      "constant": true,
      "inputs": [
        {
          "internalType": "address",
          "name": "",
          "type": "address"
        },
        {
          "internalType": "uint256",
          "name": "",
          "type": "uint256"
        }
      ],
      "name": "walletCancelledOrderOperatorHashes",
      "outputs": [
        {
          "internalType": "bytes32",
          "name": "",
          "type": "bytes32"
        }
      ],
      "payable": false,
      "stateMutability": "view",
      "type": "function"
    },
    {
      "constant": true,
      "inputs": [
        {
          "internalType": "address",
          "name": "",
          "type": "address"
        }
      ],
      "name": "walletOrderCancelledTimeoutMap",
      "outputs": [
        {
          "internalType": "uint256",
          "name": "",
          "type": "uint256"
        }
      ],
      "payable": false,
      "stateMutability": "view",
      "type": "function"
    },
    {
      "constant": true,
      "inputs": [
        {
          "internalType": "address",
          "name": "",
          "type": "address"
        },
        {
          "internalType": "bytes32",
          "name": "",
          "type": "bytes32"
        }
      ],
      "name": "walletOrderOperatorHashCancelledMap",
      "outputs": [
        {
          "internalType": "bool",
          "name": "",
          "type": "bool"
        }
      ],
      "payable": false,
      "stateMutability": "view",
      "type": "function"
    },
    {
      "constant": true,
      "inputs": [],
      "name": "cancellingWalletsCount",
      "outputs": [
        {
          "internalType": "uint256",
          "name": "",
          "type": "uint256"
        }
      ],
      "payable": false,
      "stateMutability": "view",
      "type": "function"
    },
    {
      "constant": true,
      "inputs": [
        {
          "internalType": "address",
          "name": "wallet",
          "type": "address"
        }
      ],
      "name": "cancelledOrdersCount",
      "outputs": [
        {
          "internalType": "uint256",
          "name": "",
          "type": "uint256"
        }
      ],
      "payable": false,
      "stateMutability": "view",
      "type": "function"
    },
    {
      "constant": true,
      "inputs": [
        {
          "internalType": "address",
          "name": "wallet",
          "type": "address"
        },
        {
          "internalType": "bytes32",
          "name": "orderHash",
          "type": "bytes32"
        }
      ],
      "name": "isOrderCancelled",
      "outputs": [
        {
          "internalType": "bool",
          "name": "",
          "type": "bool"
        }
      ],
      "payable": false,
      "stateMutability": "view",
      "type": "function"
    },
    {
      "constant": true,
      "inputs": [
        {
          "internalType": "address",
          "name": "wallet",
          "type": "address"
        },
        {
          "internalType": "uint256",
          "name": "low",
          "type": "uint256"
        },
        {
          "internalType": "uint256",
          "name": "up",
          "type": "uint256"
        }
      ],
      "name": "cancelledOrderHashesByIndices",
      "outputs": [
        {
          "internalType": "bytes32[]",
          "name": "",
          "type": "bytes32[]"
        }
      ],
      "payable": false,
      "stateMutability": "view",
      "type": "function"
    },
    {
      "constant": false,
      "inputs": [
        {
          "components": [
            {
              "internalType": "uint256",
              "name": "nonce",
              "type": "uint256"
            },
            {
              "internalType": "address",
              "name": "wallet",
              "type": "address"
            },
            {
              "components": [
                {
                  "internalType": "enum TradeTypesLib.Intention",
                  "name": "intention",
                  "type": "uint8"
                },
                {
                  "internalType": "int256",
                  "name": "amount",
                  "type": "int256"
                },
                {
                  "components": [
                    {
                      "components": [
                        {
                          "internalType": "address",
                          "name": "ct",
                          "type": "address"
                        },
                        {
                          "internalType": "uint256",
                          "name": "id",
                          "type": "uint256"
                        }
                      ],
                      "internalType": "struct MonetaryTypesLib.Currency",
                      "name": "intended",
                      "type": "tuple"
                    },
                    {
                      "components": [
                        {
                          "internalType": "address",
                          "name": "ct",
                          "type": "address"
                        },
                        {
                          "internalType": "uint256",
                          "name": "id",
                          "type": "uint256"
                        }
                      ],
                      "internalType": "struct MonetaryTypesLib.Currency",
                      "name": "conjugate",
                      "type": "tuple"
                    }
                  ],
                  "internalType": "struct NahmiiTypesLib.IntendedConjugateCurrency",
                  "name": "currencies",
                  "type": "tuple"
                },
                {
                  "internalType": "int256",
                  "name": "rate",
                  "type": "int256"
                },
                {
                  "components": [
                    {
                      "internalType": "int256",
                      "name": "current",
                      "type": "int256"
                    },
                    {
                      "internalType": "int256",
                      "name": "previous",
                      "type": "int256"
                    }
                  ],
                  "internalType": "struct NahmiiTypesLib.CurrentPreviousInt256",
                  "name": "residuals",
                  "type": "tuple"
                }
              ],
              "internalType": "struct TradeTypesLib.OrderPlacement",
              "name": "placement",
              "type": "tuple"
            },
            {
              "components": [
                {
                  "components": [
                    {
                      "internalType": "bytes32",
                      "name": "hash",
                      "type": "bytes32"
                    },
                    {
                      "components": [
                        {
                          "internalType": "bytes32",
                          "name": "r",
                          "type": "bytes32"
                        },
                        {
                          "internalType": "bytes32",
                          "name": "s",
                          "type": "bytes32"
                        },
                        {
                          "internalType": "uint8",
                          "name": "v",
                          "type": "uint8"
                        }
                      ],
                      "internalType": "struct NahmiiTypesLib.Signature",
                      "name": "signature",
                      "type": "tuple"
                    }
                  ],
                  "internalType": "struct NahmiiTypesLib.Seal",
                  "name": "wallet",
                  "type": "tuple"
                },
                {
                  "components": [
                    {
                      "internalType": "bytes32",
                      "name": "hash",
                      "type": "bytes32"
                    },
                    {
                      "components": [
                        {
                          "internalType": "bytes32",
                          "name": "r",
                          "type": "bytes32"
                        },
                        {
                          "internalType": "bytes32",
                          "name": "s",
                          "type": "bytes32"
                        },
                        {
                          "internalType": "uint8",
                          "name": "v",
                          "type": "uint8"
                        }
                      ],
                      "internalType": "struct NahmiiTypesLib.Signature",
                      "name": "signature",
                      "type": "tuple"
                    }
                  ],
                  "internalType": "struct NahmiiTypesLib.Seal",
                  "name": "operator",
                  "type": "tuple"
                }
              ],
              "internalType": "struct NahmiiTypesLib.WalletOperatorSeal",
              "name": "seals",
              "type": "tuple"
            },
            {
              "internalType": "uint256",
              "name": "blockNumber",
              "type": "uint256"
            },
            {
              "internalType": "uint256",
              "name": "operatorId",
              "type": "uint256"
            }
          ],
          "internalType": "struct TradeTypesLib.Order[]",
          "name": "orders",
          "type": "tuple[]"
        }
      ],
      "name": "cancelOrders",
      "outputs": [],
      "payable": false,
      "stateMutability": "nonpayable",
      "type": "function"
    },
    {
      "constant": false,
      "inputs": [
        {
          "components": [
            {
              "internalType": "uint256",
              "name": "nonce",
              "type": "uint256"
            },
            {
              "internalType": "int256",
              "name": "amount",
              "type": "int256"
            },
            {
              "components": [
                {
                  "components": [
                    {
                      "internalType": "address",
                      "name": "ct",
                      "type": "address"
                    },
                    {
                      "internalType": "uint256",
                      "name": "id",
                      "type": "uint256"
                    }
                  ],
                  "internalType": "struct MonetaryTypesLib.Currency",
                  "name": "intended",
                  "type": "tuple"
                },
                {
                  "components": [
                    {
                      "internalType": "address",
                      "name": "ct",
                      "type": "address"
                    },
                    {
                      "internalType": "uint256",
                      "name": "id",
                      "type": "uint256"
                    }
                  ],
                  "internalType": "struct MonetaryTypesLib.Currency",
                  "name": "conjugate",
                  "type": "tuple"
                }
              ],
              "internalType": "struct NahmiiTypesLib.IntendedConjugateCurrency",
              "name": "currencies",
              "type": "tuple"
            },
            {
              "internalType": "int256",
              "name": "rate",
              "type": "int256"
            },
            {
              "components": [
                {
                  "internalType": "uint256",
                  "name": "nonce",
                  "type": "uint256"
                },
                {
                  "internalType": "address",
                  "name": "wallet",
                  "type": "address"
                },
                {
                  "internalType": "uint256",
                  "name": "rollingVolume",
                  "type": "uint256"
                },
                {
                  "internalType": "enum TradeTypesLib.LiquidityRole",
                  "name": "liquidityRole",
                  "type": "uint8"
                },
                {
                  "components": [
                    {
                      "internalType": "int256",
                      "name": "amount",
                      "type": "int256"
                    },
                    {
                      "components": [
                        {
                          "internalType": "bytes32",
                          "name": "wallet",
                          "type": "bytes32"
                        },
                        {
                          "internalType": "bytes32",
                          "name": "operator",
                          "type": "bytes32"
                        }
                      ],
                      "internalType": "struct NahmiiTypesLib.WalletOperatorHashes",
                      "name": "hashes",
                      "type": "tuple"
                    },
                    {
                      "components": [
                        {
                          "internalType": "int256",
                          "name": "current",
                          "type": "int256"
                        },
                        {
                          "internalType": "int256",
                          "name": "previous",
                          "type": "int256"
                        }
                      ],
                      "internalType": "struct NahmiiTypesLib.CurrentPreviousInt256",
                      "name": "residuals",
                      "type": "tuple"
                    }
                  ],
                  "internalType": "struct TradeTypesLib.TradeOrder",
                  "name": "order",
                  "type": "tuple"
                },
                {
                  "components": [
                    {
                      "components": [
                        {
                          "internalType": "int256",
                          "name": "current",
                          "type": "int256"
                        },
                        {
                          "internalType": "int256",
                          "name": "previous",
                          "type": "int256"
                        }
                      ],
                      "internalType": "struct NahmiiTypesLib.CurrentPreviousInt256",
                      "name": "intended",
                      "type": "tuple"
                    },
                    {
                      "components": [
                        {
                          "internalType": "int256",
                          "name": "current",
                          "type": "int256"
                        },
                        {
                          "internalType": "int256",
                          "name": "previous",
                          "type": "int256"
                        }
                      ],
                      "internalType": "struct NahmiiTypesLib.CurrentPreviousInt256",
                      "name": "conjugate",
                      "type": "tuple"
                    }
                  ],
                  "internalType": "struct NahmiiTypesLib.IntendedConjugateCurrentPreviousInt256",
                  "name": "balances",
                  "type": "tuple"
                },
                {
                  "components": [
                    {
                      "components": [
                        {
                          "internalType": "int256",
                          "name": "amount",
                          "type": "int256"
                        },
                        {
                          "components": [
                            {
                              "internalType": "address",
                              "name": "ct",
                              "type": "address"
                            },
                            {
                              "internalType": "uint256",
                              "name": "id",
                              "type": "uint256"
                            }
                          ],
                          "internalType": "struct MonetaryTypesLib.Currency",
                          "name": "currency",
                          "type": "tuple"
                        }
                      ],
                      "internalType": "struct MonetaryTypesLib.Figure",
                      "name": "single",
                      "type": "tuple"
                    },
                    {
                      "components": [
                        {
                          "internalType": "uint256",
                          "name": "originId",
                          "type": "uint256"
                        },
                        {
                          "components": [
                            {
                              "internalType": "int256",
                              "name": "amount",
                              "type": "int256"
                            },
                            {
                              "components": [
                                {
                                  "internalType": "address",
                                  "name": "ct",
                                  "type": "address"
                                },
                                {
                                  "internalType": "uint256",
                                  "name": "id",
                                  "type": "uint256"
                                }
                              ],
                              "internalType": "struct MonetaryTypesLib.Currency",
                              "name": "currency",
                              "type": "tuple"
                            }
                          ],
                          "internalType": "struct MonetaryTypesLib.Figure",
                          "name": "figure",
                          "type": "tuple"
                        }
                      ],
                      "internalType": "struct NahmiiTypesLib.OriginFigure[]",
                      "name": "total",
                      "type": "tuple[]"
                    }
                  ],
                  "internalType": "struct NahmiiTypesLib.SingleFigureTotalOriginFigures",
                  "name": "fees",
                  "type": "tuple"
                }
              ],
              "internalType": "struct TradeTypesLib.TradeParty",
              "name": "buyer",
              "type": "tuple"
            },
            {
              "components": [
                {
                  "internalType": "uint256",
                  "name": "nonce",
                  "type": "uint256"
                },
                {
                  "internalType": "address",
                  "name": "wallet",
                  "type": "address"
                },
                {
                  "internalType": "uint256",
                  "name": "rollingVolume",
                  "type": "uint256"
                },
                {
                  "internalType": "enum TradeTypesLib.LiquidityRole",
                  "name": "liquidityRole",
                  "type": "uint8"
                },
                {
                  "components": [
                    {
                      "internalType": "int256",
                      "name": "amount",
                      "type": "int256"
                    },
                    {
                      "components": [
                        {
                          "internalType": "bytes32",
                          "name": "wallet",
                          "type": "bytes32"
                        },
                        {
                          "internalType": "bytes32",
                          "name": "operator",
                          "type": "bytes32"
                        }
                      ],
                      "internalType": "struct NahmiiTypesLib.WalletOperatorHashes",
                      "name": "hashes",
                      "type": "tuple"
                    },
                    {
                      "components": [
                        {
                          "internalType": "int256",
                          "name": "current",
                          "type": "int256"
                        },
                        {
                          "internalType": "int256",
                          "name": "previous",
                          "type": "int256"
                        }
                      ],
                      "internalType": "struct NahmiiTypesLib.CurrentPreviousInt256",
                      "name": "residuals",
                      "type": "tuple"
                    }
                  ],
                  "internalType": "struct TradeTypesLib.TradeOrder",
                  "name": "order",
                  "type": "tuple"
                },
                {
                  "components": [
                    {
                      "components": [
                        {
                          "internalType": "int256",
                          "name": "current",
                          "type": "int256"
                        },
                        {
                          "internalType": "int256",
                          "name": "previous",
                          "type": "int256"
                        }
                      ],
                      "internalType": "struct NahmiiTypesLib.CurrentPreviousInt256",
                      "name": "intended",
                      "type": "tuple"
                    },
                    {
                      "components": [
                        {
                          "internalType": "int256",
                          "name": "current",
                          "type": "int256"
                        },
                        {
                          "internalType": "int256",
                          "name": "previous",
                          "type": "int256"
                        }
                      ],
                      "internalType": "struct NahmiiTypesLib.CurrentPreviousInt256",
                      "name": "conjugate",
                      "type": "tuple"
                    }
                  ],
                  "internalType": "struct NahmiiTypesLib.IntendedConjugateCurrentPreviousInt256",
                  "name": "balances",
                  "type": "tuple"
                },
                {
                  "components": [
                    {
                      "components": [
                        {
                          "internalType": "int256",
                          "name": "amount",
                          "type": "int256"
                        },
                        {
                          "components": [
                            {
                              "internalType": "address",
                              "name": "ct",
                              "type": "address"
                            },
                            {
                              "internalType": "uint256",
                              "name": "id",
                              "type": "uint256"
                            }
                          ],
                          "internalType": "struct MonetaryTypesLib.Currency",
                          "name": "currency",
                          "type": "tuple"
                        }
                      ],
                      "internalType": "struct MonetaryTypesLib.Figure",
                      "name": "single",
                      "type": "tuple"
                    },
                    {
                      "components": [
                        {
                          "internalType": "uint256",
                          "name": "originId",
                          "type": "uint256"
                        },
                        {
                          "components": [
                            {
                              "internalType": "int256",
                              "name": "amount",
                              "type": "int256"
                            },
                            {
                              "components": [
                                {
                                  "internalType": "address",
                                  "name": "ct",
                                  "type": "address"
                                },
                                {
                                  "internalType": "uint256",
                                  "name": "id",
                                  "type": "uint256"
                                }
                              ],
                              "internalType": "struct MonetaryTypesLib.Currency",
                              "name": "currency",
                              "type": "tuple"
                            }
                          ],
                          "internalType": "struct MonetaryTypesLib.Figure",
                          "name": "figure",
                          "type": "tuple"
                        }
                      ],
                      "internalType": "struct NahmiiTypesLib.OriginFigure[]",
                      "name": "total",
                      "type": "tuple[]"
                    }
                  ],
                  "internalType": "struct NahmiiTypesLib.SingleFigureTotalOriginFigures",
                  "name": "fees",
                  "type": "tuple"
                }
              ],
              "internalType": "struct TradeTypesLib.TradeParty",
              "name": "seller",
              "type": "tuple"
            },
            {
              "components": [
                {
                  "components": [
                    {
                      "internalType": "int256",
                      "name": "single",
                      "type": "int256"
                    },
                    {
                      "internalType": "int256",
                      "name": "total",
                      "type": "int256"
                    }
                  ],
                  "internalType": "struct NahmiiTypesLib.SingleTotalInt256",
                  "name": "intended",
                  "type": "tuple"
                },
                {
                  "components": [
                    {
                      "internalType": "int256",
                      "name": "single",
                      "type": "int256"
                    },
                    {
                      "internalType": "int256",
                      "name": "total",
                      "type": "int256"
                    }
                  ],
                  "internalType": "struct NahmiiTypesLib.SingleTotalInt256",
                  "name": "conjugate",
                  "type": "tuple"
                }
              ],
              "internalType": "struct NahmiiTypesLib.IntendedConjugateSingleTotalInt256",
              "name": "transfers",
              "type": "tuple"
            },
            {
              "components": [
                {
                  "internalType": "bytes32",
                  "name": "hash",
                  "type": "bytes32"
                },
                {
                  "components": [
                    {
                      "internalType": "bytes32",
                      "name": "r",
                      "type": "bytes32"
                    },
                    {
                      "internalType": "bytes32",
                      "name": "s",
                      "type": "bytes32"
                    },
                    {
                      "internalType": "uint8",
                      "name": "v",
                      "type": "uint8"
                    }
                  ],
                  "internalType": "struct NahmiiTypesLib.Signature",
                  "name": "signature",
                  "type": "tuple"
                }
              ],
              "internalType": "struct NahmiiTypesLib.Seal",
              "name": "seal",
              "type": "tuple"
            },
            {
              "internalType": "uint256",
              "name": "blockNumber",
              "type": "uint256"
            },
            {
              "internalType": "uint256",
              "name": "operatorId",
              "type": "uint256"
            }
          ],
          "internalType": "struct TradeTypesLib.Trade",
          "name": "trade",
          "type": "tuple"
        },
        {
          "internalType": "address",
          "name": "wallet",
          "type": "address"
        }
      ],
      "name": "challenge",
      "outputs": [],
      "payable": false,
      "stateMutability": "nonpayable",
      "type": "function"
    },
    {
      "constant": true,
      "inputs": [
        {
          "internalType": "address",
          "name": "wallet",
          "type": "address"
        }
      ],
      "name": "challengePhase",
      "outputs": [
        {
          "internalType": "enum NahmiiTypesLib.ChallengePhase",
          "name": "",
          "type": "uint8"
        }
      ],
      "payable": false,
      "stateMutability": "view",
      "type": "function"
    }
  ],
  "bytecode": "0x60806040523480156200001157600080fd5b5060405162002531380380620025318339810160408190526200003491620000b3565b80806001600160a01b0381166200004a57600080fd5b6001600160a01b0381163014156200006157600080fd5b5060008054610100600160a81b0319166101006001600160a01b0393909316928302179055600180546001600160a01b03191690911790555062000108565b8051620000ad81620000ee565b92915050565b600060208284031215620000c657600080fd5b6000620000d48484620000a0565b949350505050565b60006001600160a01b038216620000ad565b620000f981620000dc565b81146200010557600080fd5b50565b61241980620001186000396000f3fe608060405234801561001057600080fd5b50600436106101285760003560e01c80631327d3d81461012d578063173ee83f1461014257806319cd39c01461016b578063239985f4146101735780632738a112146101935780632f013a001461019b5780633a5381b5146101b057806341ecfd45146101c55780634476d23b146101d857806347d6e17d146101e0578063570ca735146101f3578063627f09c3146101fb5780636c70bee91461020e57806370327ea1146102165780638f38575b1461021e57806396214735146102315780639846bce4146102445780639bd5eb1614610257578063b3ab15fb1461026a578063b43499aa1461027d578063bb332f0814610290578063d5f39488146102a3578063e0a04405146102ab578063e7d42cfc146102cb575b600080fd5b61014061013b3660046118b1565b6102eb565b005b6101556101503660046117b2565b61038c565b60405161016291906121ae565b60405180910390f35b610155610425565b610186610181366004611915565b61042b565b6040516101629190612138565b610140610452565b6101a36104b8565b60405161016291906121a0565b6101b86104c1565b60405161016291906121e4565b6101556101d33660046117b2565b6104d0565b6101866104e2565b6101556101ee3660046117d8565b6104f6565b610186610524565b6101406102093660046118b1565b610533565b6101b86105c4565b6101406105d3565b61014061022c36600461185f565b610636565b61014061023f3660046117b2565b610a0a565b6101a36102523660046117d8565b610aca565b6101a36102653660046117d8565b610aea565b6101406102783660046117b2565b610b18565b61015561028b3660046117d8565b610bbb565b61014061029e3660046118cf565b610bd8565b610186610e51565b6102be6102b93660046117b2565b610e65565b604051610162919061220d565b6102de6102d9366004611812565b610eb8565b604051610162919061216f565b6102f3610ff1565b6102fc57600080fd5b806001600160a01b03811661031057600080fd5b60035482906001600160a01b03908116908216811461038657600380546001600160a01b038681166001600160a01b03198316179092556040519116907f1882af944a16549c3d4f60e3cd26f158b0c7aac3222cf32971fc21375ce05f609061037c90839088906121f2565b60405180910390a1505b50505050565b600080805b6001600160a01b03841660009081526006602052604090205481101561041c576001600160a01b03841660009081526006602052604081208054839081106103d557fe5b60009182526020808320909101546001600160a01b038816835260058252604080842082855290925291205490915060ff1615610413576001909201915b50600101610391565b5090505b919050565b60045490565b6004818154811061043857fe5b6000918252602090912001546001600160a01b0316905081565b3361045b6104e2565b6001600160a01b03161461046e57600080fd5b60005460ff161561047e57600080fd5b7f787a5d936e74f4b564b9153575886059829c78cd9927b1be5e0d976b317ef736336040516104ad9190612146565b60405180910390a133ff5b60005460ff1681565b6003546001600160a01b031681565b60086020526000908152604090205481565b60005461010090046001600160a01b031690565b6006602052816000526040600020818154811061050f57fe5b90600052602060002001600091509150505481565b6001546001600160a01b031681565b61053b610ff1565b61054457600080fd5b806001600160a01b03811661055857600080fd5b60025482906001600160a01b03908116908216811461038657600280546001600160a01b038681166001600160a01b03198316179092556040519116907f634f61bf00e14adedce330c80c2823e16e184f189ebe853e1ddecc4a268477ff9061037c90839088906121f2565b6002546001600160a01b031681565b336105dc6104e2565b6001600160a01b0316146105ef57600080fd5b6000805460ff191660011790556040517fd5a2a04a775c741c2ca0dc46ea7ce4835190e1aaf1ca018def0e82568ec336169061062c903390612146565b60405180910390a1565b600260009054906101000a90046001600160a01b03166001600160a01b031663f71e860f6040518163ffffffff1660e01b815260040160206040518083038186803b15801561068457600080fd5b505afa158015610698573d6000803e3d6000fd5b505050506040513d601f19601f820116820180604052506106bc9190810190611893565b6106e15760405162461bcd60e51b81526004016106d89061221b565b60405180910390fd5b60005b815181101561092b578181815181106106f957fe5b6020026020010151602001516001600160a01b0316336001600160a01b0316146107355760405162461bcd60e51b81526004016106d89061228b565b60035482516001600160a01b03909116906331f2978b9084908490811061075857fe5b60200260200101516040518263ffffffff1660e01b815260040161077c919061229b565b60206040518083038186803b15801561079457600080fd5b505afa1580156107a8573d6000803e3d6000fd5b505050506040513d601f19601f820116820180604052506107cc9190810190611893565b6107e85760405162461bcd60e51b81526004016106d89061222b565b3360009081526006602052604090205461083f57600480546001810182556000919091527f8a35acfbc15ff81a39ae7d344fd709f28e8600b4aa8c65c6b64bfe7fe36bd19b0180546001600160a01b031916331790555b33600090815260056020526040812083516001929085908590811061086057fe5b602090810291909101810151606001518101515182528181019290925260409081016000908120805460ff1916941515949094179093553383526006909152902082518390839081106108af57fe5b60209081029190910181015160600151810151518254600181018455600093845282842001553382526006815260408083205460079092528220845160001990920192909185908590811061090057fe5b60209081029190910181015160600151810151518252810191909152604001600020556001016106e4565b506002546040805162940b8160e81b815290516109b6926001600160a01b03169163940b8100916004808301926020929190829003018186803b15801561097157600080fd5b505afa158015610985573d6000803e3d6000fd5b505050506040513d601f19601f820116820180604052506109a99190810190611933565b429063ffffffff61100716565b336000908152600860205260409020557fe7ffedc7de8c229cf93453c1b344d32c21aebcd4c7e6859da6d3a9c4bd1e1e2d6109f082611016565b336040516109ff929190612180565b60405180910390a150565b610a12610ff1565b610a1b57600080fd5b806001600160a01b038116610a2f57600080fd5b6001600160a01b038116301415610a4557600080fd5b6000546001600160a01b038381166101009092041614610ac657600080546001600160a01b03848116610100908102610100600160a81b03198416179093556040519290910416907f977e5fa58e458501775e0008d275006294c5249e3c08d1d0e3a9f3acad14f6e490610abc9083908690612154565b60405180910390a1505b5050565b600560209081526000928352604080842090915290825290205460ff1681565b6001600160a01b038216600090815260056020908152604080832084845290915290205460ff165b92915050565b610b20611092565b610b2957600080fd5b806001600160a01b038116610b3d57600080fd5b6001600160a01b038116301415610b5357600080fd5b6001546001600160a01b03838116911614610ac657600180546001600160a01b038481166001600160a01b03198316179092556040519116907f9f611b789425d0d5b90b920f1b2852907dd865c80074a30b1629aaa041d1812c90610abc9083908690612154565b600760209081526000928352604080842090915290825290205481565b600260009054906101000a90046001600160a01b03166001600160a01b031663f71e860f6040518163ffffffff1660e01b815260040160206040518083038186803b158015610c2657600080fd5b505afa158015610c3a573d6000803e3d6000fd5b505050506040513d601f19601f82011682018060405250610c5e9190810190611893565b610c7a5760405162461bcd60e51b81526004016106d89061221b565b600354604051637211c8c760e11b815283916001600160a01b03169063e423918e90610caa9084906004016122aa565b60206040518083038186803b158015610cc257600080fd5b505afa158015610cd6573d6000803e3d6000fd5b505050506040513d601f19601f82011682018060405250610cfa9190810190611893565b610d165760405162461bcd60e51b81526004016106d89061225b565b6001600160a01b0382166000908152600860205260409020544210610d4d5760405162461bcd60e51b81526004016106d89061224b565b60008360800151602001516001600160a01b0316836001600160a01b031614610d86578360a00151608001516020015160200151610d98565b83608001516080015160200151602001515b6001600160a01b038416600090815260056020908152604080832084845290915290205490915060ff16610dde5760405162461bcd60e51b81526004016106d89061227b565b6001600160a01b038316600090815260056020908152604080832084845290915290819020805460ff1916905560e08501515190517f712867d7fe9a56f48e89fef0ed3a3036d527d1b854afbd42f20f431ce4e5c7b391610e439184919033906121bc565b60405180910390a150505050565b60005461010090046001600160a01b031681565b6001600160a01b03811660009081526006602052604081205415801590610ea357506001600160a01b03821660009081526008602052604090205442105b15610eb057506000610420565b506001610420565b6001600160a01b038316600090815260066020526040902054606090610ef05760405162461bcd60e51b81526004016106d89061226b565b81831115610f105760405162461bcd60e51b81526004016106d89061223b565b6001600160a01b038416600090815260066020526040902054600019018211610f395781610f57565b6001600160a01b038416600090815260066020526040902054600019015b91506060838303600101604051908082528060200260200182016040528015610f8a578160200160208202803883390190505b509050835b838111610fe6576001600160a01b0386166000908152600660205260409020805482908110610fba57fe5b90600052602060002001548286830381518110610fd357fe5b6020908102919091010152600101610f8f565b5090505b9392505050565b60005461010090046001600160a01b0316331490565b600082820183811015610fea57fe5b6060808251604051908082528060200260200182016040528015611044578160200160208202803883390190505b50905060005b835181101561041c5783818151811061105f57fe5b602002602001015160600151602001516000015182828151811061107f57fe5b602090810291909101015260010161104a565b6001546001600160a01b0316331490565b8035610b1281612371565b600082601f8301126110bf57600080fd5b81356110d26110cd826122e1565b6122bb565b91508181835260208401935060208101905083856102a08402820111156110f857600080fd5b60005b83811015611127578161110e8882611375565b8452506020909201916102a091909101906001016110fb565b5050505092915050565b600082601f83011261114257600080fd5b81356111506110cd826122e1565b9150818183526020840193506020810190508385608084028201111561117557600080fd5b60005b83811015611127578161118b8882611410565b84525060209092019160809190910190600101611178565b8051610b1281612385565b8035610b128161238e565b8035610b1281612397565b8035610b12816123a0565b6000604082840312156111e157600080fd5b6111eb60406122bb565b905060006111f984846110a3565b825250602061120a848483016111ae565b60208301525092915050565b60006040828403121561122857600080fd5b61123260406122bb565b905060006111f984846111ae565b60006060828403121561125257600080fd5b61125c60406122bb565b9050600061126a84846111ae565b825250602061120a848483016111cf565b60006080828403121561128d57600080fd5b61129760406122bb565b905060006112a584846111cf565b825250604061120a848483016111cf565b6000608082840312156112c857600080fd5b6112d260406122bb565b905060006112e08484611216565b825250604061120a84848301611216565b6000610120828403121561130457600080fd5b61130e60a06122bb565b9050600061131c84846111c4565b825250602061132d848483016111ae565b60208301525060406113418482850161127b565b60408301525060c0611355848285016111ae565b60608301525060e061136984828501611216565b60808301525092915050565b60006102a0828403121561138857600080fd5b61139260c06122bb565b905060006113a084846111ae565b82525060206113b1848483016110a3565b60208301525060406113c5848285016112f1565b6040830152506101606113da84828501611760565b6060830152506102606113ef848285016111ae565b608083015250610280611404848285016111ae565b60a08301525092915050565b60006080828403121561142257600080fd5b61142c60406122bb565b9050600061143a84846111ae565b825250602061120a84848301611240565b60006080828403121561145d57600080fd5b61146760406122bb565b9050600061147584846111ae565b825250602061120a8484830160006060828403121561149357600080fd5b61149d60606122bb565b905060006114ab84846111ae565b82525060206114bc848483016111ae565b60208301525060406114d0848285016117a7565b60408301525092915050565b6000608082840312156114ee57600080fd5b6114f860406122bb565b905060006115068484611240565b82525060608201356001600160401b0381111561152257600080fd5b61120a84828501611131565b600060a0828403121561154057600080fd5b61154a60606122bb565b9050600061155884846111ae565b825250602061156984848301611216565b60208301525060606114d084828501611216565b60006101c0828403121561159057600080fd5b61159a60e06122bb565b905060006115a884846111ae565b82525060206115b9848483016110a3565b60208301525060406115cd848285016111ae565b60408301525060606115e1848285016111c4565b60608301525060806115f58482850161152e565b60808301525061012061160a848285016112b6565b60a0830152506101a08201356001600160401b0381111561162a57600080fd5b611636848285016114dc565b60c08301525092915050565b6000610260828403121561165557600080fd5b6116606101406122bb565b9050600061166e84846111ae565b825250602061167f848483016111ae565b60208301525060406116938482850161127b565b60408301525060c06116a7848285016111ae565b60608301525060e08201356001600160401b038111156116c657600080fd5b6116d28482850161157d565b6080830152506101008201356001600160401b038111156116f257600080fd5b6116fe8482850161157d565b60a083015250610120611713848285016112b6565b60c0830152506101a06117288482850161144b565b60e08301525061022061173d848285016111ae565b61010083015250610240611753848285016111ae565b6101208301525092915050565b6000610100828403121561177357600080fd5b61177d60406122bb565b9050600061178b848461144b565b825250608061120a8484830161144b565b8051610b128161238e565b8035610b12816123ad565b6000602082840312156117c457600080fd5b60006117d084846110a3565b949350505050565b600080604083850312156117eb57600080fd5b60006117f785856110a3565b9250506020611808858286016111ae565b9150509250929050565b60008060006060848603121561182757600080fd5b600061183386866110a3565b9350506020611844868287016111ae565b9250506040611855868287016111ae565b9150509250925092565b60006020828403121561187157600080fd5b81356001600160401b0381111561188757600080fd5b6117d0848285016110ae565b6000602082840312156118a557600080fd5b60006117d084846111a3565b6000602082840312156118c357600080fd5b60006117d084846111b9565b600080604083850312156118e257600080fd5b82356001600160401b038111156118f857600080fd5b61190485828601611642565b9250506020611808858286016110a3565b60006020828403121561192757600080fd5b60006117d084846111ae565b60006020828403121561194557600080fd5b60006117d0848461179c565b600061195d8383611a41565b505060200190565b60006119718383611eb9565b505060800190565b6119828161234e565b82525050565b61198281612314565b600061199c82612307565b6119a6818561230b565b93506119b183612301565b8060005b838110156119df5781516119c98882611951565b97506119d483612301565b9250506001016119b5565b509495945050505050565b60006119f582612307565b6119ff818561230b565b9350611a0a83612301565b8060005b838110156119df578151611a228882611965565b9750611a2d83612301565b925050600101611a0e565b6119828161231f565b61198281612324565b61198281612327565b61198281612359565b6000611a69603f8361230b565b7f4f7065726174696f6e616c206d6f6465206973206e6f74206e6f726d616c205b81527f436f6e666967757261626c654f7065726174696f6e616c2e736f6c3a32325d00602082015260400192915050565b6000611ac8603d8361230b565b7f4e6f742067656e75696e65206f72646572207365616c7320666f756e64205b4381527f616e63656c4f72646572734368616c6c656e67652e736f6c3a3132325d000000602082015260400192915050565b6000611b27603a8361230b565b7f426f756e647320706172616d6574657273206d69736d61746368205b43616e63815279656c4f72646572734368616c6c656e67652e736f6c3a3130355d60301b602082015260400192915050565b6000611b83604b8361230b565b7f4f726465722063616e63656c6c6174696f6e2074696d6572206578706972656481526000805160206123b783398151915260208201526a67652e736f6c3a3134355d60a81b604082015260600192915050565b6000611be4602d8361230b565b7f5472616465207365616c206e6f742067656e75696e65205b56616c696461746181526c626c6556322e736f6c3a37305d60981b602082015260400192915050565b6000611c33604b8361230b565b7f4e6f2063616e63656c6c6564206f72646572206f70657261746f72206861736881526000805160206123b783398151915260208201526a67652e736f6c3a3130345d60a81b604082015260600192915050565b6000611c9460338361230b565b7f4f72646572206e6f742063616e63656c6c6564205b43616e63656c4f72646572815272734368616c6c656e67652e736f6c3a3135335d60681b602082015260400192915050565b6000611ce960428361230b565b7f4d6573736167652073656e646572206973206e6f74206f726465722077616c6c81527f6574205b43616e63656c4f72646572734368616c6c656e67652e736f6c3a3132602082015261315d60f01b604082015260600192915050565b80516040830190611d578482611988565b5060208201516103866020850182611a41565b80516040830190611d578482611a41565b80516060830190611d8c8482611a41565b5060208201516103866020850182611d46565b80516080830190611db08482611d46565b5060208201516103866040850182611d46565b80516080830190611dd48482611d6a565b5060208201516103866040850182611d6a565b8051610120830190611df98482611a53565b506020820151611e0c6020850182611a41565b506040820151611e1f6040850182611d9f565b506060820151611e3260c0850182611a41565b50608082015161038660e0850182611d6a565b80516102a0830190611e578482611a41565b506020820151611e6a6020850182611988565b506040820151611e7d6040850182611de7565b506060820151611e9161016085018261210a565b506080820151611ea5610260850182611a41565b5060a0820151610386610280850182611a41565b80516080830190611eca8482611a41565b5060208201516103866020850182611d7b565b80516080830190611eee8482611a41565b506020820151610386602085018280516060830190611f0d8482611a41565b506020820151611f206020850182611a41565b506040820151610386604085018261212f565b80516000906080840190611f478582611d7b565b5060208301518482036060860152611f5f82826119ea565b95945050505050565b805160a0830190611f798482611a41565b506020820151611f8c6020850182611d6a565b5060408201516103866060850182611d6a565b80516000906101c0840190611fb48582611a41565b506020830151611fc76020860182611988565b506040830151611fda6040860182611a41565b506060830151611fed6060860182611a53565b5060808301516120006080860182611f68565b5060a0830151612014610120860182611dc3565b5060c08301518482036101a0860152611f5f8282611f33565b80516000906102608401906120428582611a41565b5060208301516120556020860182611a41565b5060408301516120686040860182611d9f565b50606083015161207b60c0860182611a41565b50608083015184820360e08601526120938282611f9f565b91505060a08301518482036101008601526120ae8282611f9f565b91505060c08301516120c4610120860182611dc3565b5060e08301516120d86101a0860182611edd565b506101008301516120ed610220860182611a41565b50610120830151612102610240860182611a41565b509392505050565b805161010083019061211c8482611edd565b5060208201516103866080850182611edd565b61198281612348565b60208101610b128284611988565b60208101610b128284611979565b604081016121628285611988565b610fea6020830184611988565b60208082528101610fea8184611991565b604080825281016121918185611991565b9050610fea6020830184611979565b60208101610b128284611a38565b60208101610b128284611a41565b606081016121ca8286611a41565b6121d76020830185611a41565b6117d06040830184611979565b60208101610b128284611a4a565b604081016122008285611a4a565b610fea6020830184611a4a565b60208101610b128284611a53565b60208082528101610b1281611a5c565b60208082528101610b1281611abb565b60208082528101610b1281611b1a565b60208082528101610b1281611b76565b60208082528101610b1281611bd7565b60208082528101610b1281611c26565b60208082528101610b1281611c87565b60208082528101610b1281611cdc565b6102a08101610b128284611e45565b60208082528101610fea818461202d565b6040518181016001600160401b03811182821017156122d957600080fd5b604052919050565b60006001600160401b038211156122f757600080fd5b5060209081020190565b60200190565b5190565b90815260200190565b6000610b128261233c565b151590565b90565b6000610b1282612314565b8061042081612364565b6001600160a01b031690565b60ff1690565b6000610b1282612327565b6000610b1282612332565b6002811061236e57fe5b50565b61237a81612314565b811461236e57600080fd5b61237a8161231f565b61237a81612324565b61237a81612327565b6002811061236e57600080fd5b61237a8161234856fe20666f722077616c6c6574205b43616e63656c4f72646572734368616c6c656ea365627a7a72315820ae7619e8ff954c517ef12ac3b5e61dae729fac24c73d7b0069134a1ab8a416fc6c6578706572696d656e74616cf564736f6c634300050c0040",
  "source": "/*\n * Hubii Nahmii\n *\n * Compliant with the Hubii Nahmii specification v0.12.\n *\n * Copyright (C) 2017-2018 Hubii AS\n */\n\npragma solidity >=0.4.25 <0.6.0;\npragma experimental ABIEncoderV2;\n\nimport {SafeMathIntLib} from \"./SafeMathIntLib.sol\";\nimport {SafeMathUintLib} from \"./SafeMathUintLib.sol\";\nimport {ConfigurableOperational} from \"./ConfigurableOperational.sol\";\nimport {ValidatableV2} from \"./ValidatableV2.sol\";\nimport {Ownable} from \"./Ownable.sol\";\nimport {NahmiiTypesLib} from \"./NahmiiTypesLib.sol\";\nimport {TradeTypesLib} from \"./TradeTypesLib.sol\";\n\n/**\n * @title CancelOrdersChallenge\n * @notice Where orders are cancelled and cancellations challenged\n */\ncontract CancelOrdersChallenge is Ownable, ConfigurableOperational, ValidatableV2 {\n    using SafeMathIntLib for int256;\n    using SafeMathUintLib for uint256;\n\n    //\n    // Variables\n    // -----------------------------------------------------------------------------------------------------------------\n    address[] public cancellingWallets;\n\n    mapping(address => mapping(bytes32 => bool)) public walletOrderOperatorHashCancelledMap;\n\n    mapping(address => bytes32[]) public walletCancelledOrderOperatorHashes;\n    mapping(address => mapping(bytes32 => uint256)) public walletCancelledOrderOperatorHashIndexMap;\n\n    mapping(address => uint256) public walletOrderCancelledTimeoutMap;\n\n    //\n    // Events\n    // -----------------------------------------------------------------------------------------------------------------\n    event CancelOrdersEvent(bytes32[] orderOperatorHashes, address wallet);\n    event ChallengeEvent(bytes32 orderOperatorHash, bytes32 tradeHash, address wallet);\n\n    //\n    // Constructor\n    // -----------------------------------------------------------------------------------------------------------------\n    constructor(address deployer) Ownable(deployer) public {\n    }\n\n    //\n    // Functions\n    // -----------------------------------------------------------------------------------------------------------------\n    /// @notice Get count of wallets that have cancelled orders\n    /// @return The count of cancelling wallets\n    function cancellingWalletsCount()\n    public\n    view\n    returns (uint256)\n    {\n        return cancellingWallets.length;\n    }\n\n    /// @notice Get count of cancelled orders for given wallet\n    /// @param wallet The wallet for which to return the count of cancelled orders\n    /// @return The count of cancelled orders\n    function cancelledOrdersCount(address wallet)\n    public\n    view\n    returns (uint256)\n    {\n        uint256 count = 0;\n        for (uint256 i = 0; i < walletCancelledOrderOperatorHashes[wallet].length; i++) {\n            bytes32 operatorHash = walletCancelledOrderOperatorHashes[wallet][i];\n            if (walletOrderOperatorHashCancelledMap[wallet][operatorHash])\n                count++;\n        }\n        return count;\n    }\n\n    /// @notice Get wallets cancelled status of order\n    /// @param wallet The ordering wallet\n    /// @param orderHash The (operator) hash of the order\n    /// @return true if order is cancelled, else false\n    function isOrderCancelled(address wallet, bytes32 orderHash)\n    public\n    view\n    returns (bool)\n    {\n        return walletOrderOperatorHashCancelledMap[wallet][orderHash];\n    }\n\n    /// @notice Get cancelled order hashes for given wallet in the given index range\n    /// @param wallet The wallet for which to return the nonces of cancelled orders\n    /// @param low The lower inclusive index from which to extract orders\n    /// @param up The upper inclusive index from which to extract orders\n    /// @return The array of cancelled operator hashes\n    function cancelledOrderHashesByIndices(address wallet, uint256 low, uint256 up)\n    public\n    view\n    returns (bytes32[] memory)\n    {\n        require(0 < walletCancelledOrderOperatorHashes[wallet].length, \"No cancelled order operator hash for wallet [CancelOrdersChallenge.sol:104]\");\n        require(low <= up, \"Bounds parameters mismatch [CancelOrdersChallenge.sol:105]\");\n\n        up = up > walletCancelledOrderOperatorHashes[wallet].length - 1 ? walletCancelledOrderOperatorHashes[wallet].length - 1 : up;\n        bytes32[] memory hashes = new bytes32[](up - low + 1);\n        for (uint256 i = low; i <= up; i++)\n            hashes[i - low] = walletCancelledOrderOperatorHashes[wallet][i];\n        return hashes;\n    }\n\n    /// @notice Cancel orders of msg.sender\n    /// @param orders The orders to cancel\n    function cancelOrders(TradeTypesLib.Order[] memory orders)\n    public\n    onlyOperationalModeNormal\n    {\n        for (uint256 i = 0; i < orders.length; i++) {\n            require(msg.sender == orders[i].wallet, \"Message sender is not order wallet [CancelOrdersChallenge.sol:121]\");\n            require(validator.isGenuineOrderSeals(orders[i]), \"Not genuine order seals found [CancelOrdersChallenge.sol:122]\");\n\n            if (0 == walletCancelledOrderOperatorHashes[msg.sender].length)\n                cancellingWallets.push(msg.sender);\n\n            walletOrderOperatorHashCancelledMap[msg.sender][orders[i].seals.operator.hash] = true;\n            walletCancelledOrderOperatorHashes[msg.sender].push(orders[i].seals.operator.hash);\n            walletCancelledOrderOperatorHashIndexMap[msg.sender][orders[i].seals.operator.hash] = walletCancelledOrderOperatorHashes[msg.sender].length - 1;\n        }\n\n        walletOrderCancelledTimeoutMap[msg.sender] = block.timestamp.add(configuration.cancelOrderChallengeTimeout());\n\n        emit CancelOrdersEvent(_orderOperatorHashes(orders), msg.sender);\n    }\n\n    /// @notice Challenge cancelled order\n    /// @param trade The trade that challenges a cancelled order\n    /// @param wallet The address of the concerned wallet\n    function challenge(TradeTypesLib.Trade memory trade, address wallet)\n    public\n    onlyOperationalModeNormal\n    onlySealedTrade(trade)\n    {\n        require(block.timestamp < walletOrderCancelledTimeoutMap[wallet], \"Order cancellation timer expired for wallet [CancelOrdersChallenge.sol:145]\");\n\n        bytes32 tradeOrderOperatorHash = (\n        wallet == trade.buyer.wallet ?\n        trade.buyer.order.hashes.operator :\n        trade.seller.order.hashes.operator\n        );\n\n        require(walletOrderOperatorHashCancelledMap[wallet][tradeOrderOperatorHash], \"Order not cancelled [CancelOrdersChallenge.sol:153]\");\n\n        walletOrderOperatorHashCancelledMap[wallet][tradeOrderOperatorHash] = false;\n\n        emit ChallengeEvent(tradeOrderOperatorHash, trade.seal.hash, msg.sender);\n    }\n\n    /// @notice Get current phase of a wallets cancelled order challenge\n    /// @param wallet The address of wallet for which the cancelled order challenge phase is returned\n    /// @return The challenge phase\n    function challengePhase(address wallet)\n    public\n    view\n    returns (NahmiiTypesLib.ChallengePhase)\n    {\n        if (0 < walletCancelledOrderOperatorHashes[wallet].length && block.timestamp < walletOrderCancelledTimeoutMap[wallet])\n            return NahmiiTypesLib.ChallengePhase.Dispute;\n        else\n            return NahmiiTypesLib.ChallengePhase.Closed;\n    }\n\n    //\n    // Private functions\n    // -----------------------------------------------------------------------------------------------------------------\n    function _orderOperatorHashes(TradeTypesLib.Order[] memory orders)\n    private\n    pure\n    returns (bytes32[] memory)\n    {\n        bytes32[] memory operatorHashes = new bytes32[](orders.length);\n        for (uint256 i = 0; i < orders.length; i++)\n            operatorHashes[i] = orders[i].seals.operator.hash;\n        return operatorHashes;\n    }\n}",
  "sourcePath": "/opt/buildagent/work/855e104608380c36/contracts/CancelOrdersChallenge.sol",
  "compiler": {
    "name": "solc",
    "version": "0.5.12+commit.7709ece9.Emscripten.clang"
  },
  "schemaVersion": "2.0.3",
  "updatedAt": "2019-10-23T00:21:40.509Z"
}