{
  "contractName": "ClientFund",
  "abi": [
    {
      "inputs": [
        {
          "internalType": "address",
          "name": "deployer",
          "type": "address"
        }
      ],
      "payable": false,
      "stateMutability": "nonpayable",
      "type": "constructor"
    },
    {
      "anonymous": false,
      "inputs": [
        {
          "indexed": false,
          "internalType": "address",
          "name": "wallet",
          "type": "address"
        },
        {
          "indexed": false,
          "internalType": "address",
          "name": "service",
          "type": "address"
        }
      ],
      "name": "AuthorizeInitialServiceEvent",
      "type": "event"
    },
    {
      "anonymous": false,
      "inputs": [
        {
          "indexed": false,
          "internalType": "address",
          "name": "wallet",
          "type": "address"
        },
        {
          "indexed": false,
          "internalType": "address",
          "name": "service",
          "type": "address"
        },
        {
          "indexed": false,
          "internalType": "string",
          "name": "action",
          "type": "string"
        }
      ],
      "name": "AuthorizeRegisteredServiceActionEvent",
      "type": "event"
    },
    {
      "anonymous": false,
      "inputs": [
        {
          "indexed": false,
          "internalType": "address",
          "name": "wallet",
          "type": "address"
        },
        {
          "indexed": false,
          "internalType": "address",
          "name": "service",
          "type": "address"
        }
      ],
      "name": "AuthorizeRegisteredServiceEvent",
      "type": "event"
    },
    {
      "anonymous": false,
      "inputs": [
        {
          "indexed": false,
          "internalType": "address",
          "name": "claimer",
          "type": "address"
        },
        {
          "indexed": false,
          "internalType": "string",
          "name": "balanceType",
          "type": "string"
        },
        {
          "indexed": false,
          "internalType": "address",
          "name": "currencyCt",
          "type": "address"
        },
        {
          "indexed": false,
          "internalType": "uint256",
          "name": "currencyId",
          "type": "uint256"
        },
        {
          "indexed": false,
          "internalType": "string",
          "name": "standard",
          "type": "string"
        }
      ],
      "name": "ClaimRevenueEvent",
      "type": "event"
    },
    {
      "anonymous": false,
      "inputs": [
        {
          "indexed": false,
          "internalType": "contract Beneficiary",
          "name": "beneficiary",
          "type": "address"
        }
      ],
      "name": "DeregisterBeneficiaryEvent",
      "type": "event"
    },
    {
      "anonymous": false,
      "inputs": [
        {
          "indexed": false,
          "internalType": "address",
          "name": "service",
          "type": "address"
        }
      ],
      "name": "DeregisterServiceEvent",
      "type": "event"
    },
    {
      "anonymous": false,
      "inputs": [
        {
          "indexed": false,
          "internalType": "address",
          "name": "service",
          "type": "address"
        },
        {
          "indexed": false,
          "internalType": "string",
          "name": "action",
          "type": "string"
        }
      ],
      "name": "DisableServiceActionEvent",
      "type": "event"
    },
    {
      "anonymous": false,
      "inputs": [
        {
          "indexed": false,
          "internalType": "address",
          "name": "service",
          "type": "address"
        },
        {
          "indexed": false,
          "internalType": "string",
          "name": "action",
          "type": "string"
        }
      ],
      "name": "EnableServiceActionEvent",
      "type": "event"
    },
    {
      "anonymous": false,
      "inputs": [],
      "name": "FreezeBalanceTrackerEvent",
      "type": "event"
    },
    {
      "anonymous": false,
      "inputs": [],
      "name": "FreezeTransactionTrackerEvent",
      "type": "event"
    },
    {
      "anonymous": false,
      "inputs": [],
      "name": "FreezeWalletLockerEvent",
      "type": "event"
    },
    {
      "anonymous": false,
      "inputs": [
        {
          "indexed": false,
          "internalType": "address",
          "name": "wallet",
          "type": "address"
        },
        {
          "indexed": false,
          "internalType": "string",
          "name": "balanceType",
          "type": "string"
        },
        {
          "indexed": false,
          "internalType": "int256",
          "name": "value",
          "type": "int256"
        },
        {
          "indexed": false,
          "internalType": "address",
          "name": "currencyCt",
          "type": "address"
        },
        {
          "indexed": false,
          "internalType": "uint256",
          "name": "currencyId",
          "type": "uint256"
        },
        {
          "indexed": false,
          "internalType": "string",
          "name": "standard",
          "type": "string"
        }
      ],
      "name": "ReceiveEvent",
      "type": "event"
    },
    {
      "anonymous": false,
      "inputs": [
        {
          "indexed": false,
          "internalType": "contract Beneficiary",
          "name": "beneficiary",
          "type": "address"
        }
      ],
      "name": "RegisterBeneficiaryEvent",
      "type": "event"
    },
    {
      "anonymous": false,
      "inputs": [
        {
          "indexed": false,
          "internalType": "address",
          "name": "service",
          "type": "address"
        },
        {
          "indexed": false,
          "internalType": "uint256",
          "name": "timeout",
          "type": "uint256"
        }
      ],
      "name": "RegisterServiceDeferredEvent",
      "type": "event"
    },
    {
      "anonymous": false,
      "inputs": [
        {
          "indexed": false,
          "internalType": "address",
          "name": "service",
          "type": "address"
        }
      ],
      "name": "RegisterServiceEvent",
      "type": "event"
    },
    {
      "anonymous": false,
      "inputs": [
        {
          "indexed": false,
          "internalType": "address",
          "name": "seizedWallet",
          "type": "address"
        },
        {
          "indexed": false,
          "internalType": "address",
          "name": "seizerWallet",
          "type": "address"
        },
        {
          "indexed": false,
          "internalType": "int256",
          "name": "value",
          "type": "int256"
        },
        {
          "indexed": false,
          "internalType": "address",
          "name": "currencyCt",
          "type": "address"
        },
        {
          "indexed": false,
          "internalType": "uint256",
          "name": "currencyId",
          "type": "uint256"
        }
      ],
      "name": "SeizeBalancesEvent",
      "type": "event"
    },
    {
      "anonymous": false,
      "inputs": [
        {
          "indexed": false,
          "internalType": "address",
          "name": "wallet",
          "type": "address"
        }
      ],
      "name": "SelfDestructionDisabledEvent",
      "type": "event"
    },
    {
      "anonymous": false,
      "inputs": [
        {
          "indexed": false,
          "internalType": "uint256",
          "name": "timeoutInSeconds",
          "type": "uint256"
        }
      ],
      "name": "ServiceActivationTimeoutEvent",
      "type": "event"
    },
    {
      "anonymous": false,
      "inputs": [
        {
          "indexed": false,
          "internalType": "contract BalanceTracker",
          "name": "oldBalanceTracker",
          "type": "address"
        },
        {
          "indexed": false,
          "internalType": "contract BalanceTracker",
          "name": "newBalanceTracker",
          "type": "address"
        }
      ],
      "name": "SetBalanceTrackerEvent",
      "type": "event"
    },
    {
      "anonymous": false,
      "inputs": [
        {
          "indexed": false,
          "internalType": "address",
          "name": "oldDeployer",
          "type": "address"
        },
        {
          "indexed": false,
          "internalType": "address",
          "name": "newDeployer",
          "type": "address"
        }
      ],
      "name": "SetDeployerEvent",
      "type": "event"
    },
    {
      "anonymous": false,
      "inputs": [
        {
          "indexed": false,
          "internalType": "address",
          "name": "oldOperator",
          "type": "address"
        },
        {
          "indexed": false,
          "internalType": "address",
          "name": "newOperator",
          "type": "address"
        }
      ],
      "name": "SetOperatorEvent",
      "type": "event"
    },
    {
      "anonymous": false,
      "inputs": [
        {
          "indexed": false,
          "internalType": "contract TokenHolderRevenueFund",
          "name": "oldTokenHolderRevenueFund",
          "type": "address"
        },
        {
          "indexed": false,
          "internalType": "contract TokenHolderRevenueFund",
          "name": "newTokenHolderRevenueFund",
          "type": "address"
        }
      ],
      "name": "SetTokenHolderRevenueFundEvent",
      "type": "event"
    },
    {
      "anonymous": false,
      "inputs": [
        {
          "indexed": false,
          "internalType": "contract TransactionTracker",
          "name": "oldTransactionTracker",
          "type": "address"
        },
        {
          "indexed": false,
          "internalType": "contract TransactionTracker",
          "name": "newTransactionTracker",
          "type": "address"
        }
      ],
      "name": "SetTransactionTrackerEvent",
      "type": "event"
    },
    {
      "anonymous": false,
      "inputs": [
        {
          "indexed": false,
          "internalType": "contract TransferControllerManager",
          "name": "oldTransferControllerManager",
          "type": "address"
        },
        {
          "indexed": false,
          "internalType": "contract TransferControllerManager",
          "name": "newTransferControllerManager",
          "type": "address"
        }
      ],
      "name": "SetTransferControllerManagerEvent",
      "type": "event"
    },
    {
      "anonymous": false,
      "inputs": [
        {
          "indexed": false,
          "internalType": "contract WalletLocker",
          "name": "oldWalletLocker",
          "type": "address"
        },
        {
          "indexed": false,
          "internalType": "contract WalletLocker",
          "name": "newWalletLocker",
          "type": "address"
        }
      ],
      "name": "SetWalletLockerEvent",
      "type": "event"
    },
    {
      "anonymous": false,
      "inputs": [
        {
          "indexed": false,
          "internalType": "address",
          "name": "wallet",
          "type": "address"
        },
        {
          "indexed": false,
          "internalType": "int256",
          "name": "value",
          "type": "int256"
        },
        {
          "indexed": false,
          "internalType": "address",
          "name": "currencyCt",
          "type": "address"
        },
        {
          "indexed": false,
          "internalType": "uint256",
          "name": "currencyId",
          "type": "uint256"
        },
        {
          "indexed": false,
          "internalType": "string",
          "name": "standard",
          "type": "string"
        }
      ],
      "name": "StageEvent",
      "type": "event"
    },
    {
      "anonymous": false,
      "inputs": [
        {
          "indexed": false,
          "internalType": "address",
          "name": "sourceWallet",
          "type": "address"
        },
        {
          "indexed": false,
          "internalType": "contract Beneficiary",
          "name": "beneficiary",
          "type": "address"
        },
        {
          "indexed": false,
          "internalType": "int256",
          "name": "value",
          "type": "int256"
        },
        {
          "indexed": false,
          "internalType": "address",
          "name": "currencyCt",
          "type": "address"
        },
        {
          "indexed": false,
          "internalType": "uint256",
          "name": "currencyId",
          "type": "uint256"
        },
        {
          "indexed": false,
          "internalType": "string",
          "name": "standard",
          "type": "string"
        }
      ],
      "name": "StageToBeneficiaryEvent",
      "type": "event"
    },
    {
      "anonymous": false,
      "inputs": [
        {
          "indexed": false,
          "internalType": "address",
          "name": "wallet",
          "type": "address"
        },
        {
          "indexed": false,
          "internalType": "contract Beneficiary",
          "name": "beneficiary",
          "type": "address"
        },
        {
          "indexed": false,
          "internalType": "int256",
          "name": "value",
          "type": "int256"
        },
        {
          "indexed": false,
          "internalType": "address",
          "name": "currencyCt",
          "type": "address"
        },
        {
          "indexed": false,
          "internalType": "uint256",
          "name": "currencyId",
          "type": "uint256"
        },
        {
          "indexed": false,
          "internalType": "string",
          "name": "standard",
          "type": "string"
        }
      ],
      "name": "TransferToBeneficiaryEvent",
      "type": "event"
    },
    {
      "anonymous": false,
      "inputs": [
        {
          "indexed": false,
          "internalType": "address",
          "name": "wallet",
          "type": "address"
        }
      ],
      "name": "TriggerSelfDestructionEvent",
      "type": "event"
    },
    {
      "anonymous": false,
      "inputs": [
        {
          "indexed": false,
          "internalType": "address",
          "name": "wallet",
          "type": "address"
        },
        {
          "indexed": false,
          "internalType": "address",
          "name": "service",
          "type": "address"
        },
        {
          "indexed": false,
          "internalType": "string",
          "name": "action",
          "type": "string"
        }
      ],
      "name": "UnauthorizeRegisteredServiceActionEvent",
      "type": "event"
    },
    {
      "anonymous": false,
      "inputs": [
        {
          "indexed": false,
          "internalType": "address",
          "name": "wallet",
          "type": "address"
        },
        {
          "indexed": false,
          "internalType": "address",
          "name": "service",
          "type": "address"
        }
      ],
      "name": "UnauthorizeRegisteredServiceEvent",
      "type": "event"
    },
    {
      "anonymous": false,
      "inputs": [
        {
          "indexed": false,
          "internalType": "address",
          "name": "wallet",
          "type": "address"
        },
        {
          "indexed": false,
          "internalType": "int256",
          "name": "value",
          "type": "int256"
        },
        {
          "indexed": false,
          "internalType": "address",
          "name": "currencyCt",
          "type": "address"
        },
        {
          "indexed": false,
          "internalType": "uint256",
          "name": "currencyId",
          "type": "uint256"
        },
        {
          "indexed": false,
          "internalType": "string",
          "name": "standard",
          "type": "string"
        }
      ],
      "name": "UnstageEvent",
      "type": "event"
    },
    {
      "anonymous": false,
      "inputs": [
        {
          "indexed": false,
          "internalType": "address",
          "name": "wallet",
          "type": "address"
        },
        {
          "indexed": false,
          "internalType": "int256",
          "name": "value",
          "type": "int256"
        },
        {
          "indexed": false,
          "internalType": "address",
          "name": "currencyCt",
          "type": "address"
        },
        {
          "indexed": false,
          "internalType": "uint256",
          "name": "currencyId",
          "type": "uint256"
        }
      ],
      "name": "UpdateSettledBalanceEvent",
      "type": "event"
    },
    {
      "anonymous": false,
      "inputs": [
        {
          "indexed": false,
          "internalType": "address",
          "name": "wallet",
          "type": "address"
        },
        {
          "indexed": false,
          "internalType": "int256",
          "name": "value",
          "type": "int256"
        },
        {
          "indexed": false,
          "internalType": "address",
          "name": "currencyCt",
          "type": "address"
        },
        {
          "indexed": false,
          "internalType": "uint256",
          "name": "currencyId",
          "type": "uint256"
        },
        {
          "indexed": false,
          "internalType": "string",
          "name": "standard",
          "type": "string"
        }
      ],
      "name": "WithdrawEvent",
      "type": "event"
    },
    {
      "payable": true,
      "stateMutability": "payable",
      "type": "fallback"
    },
    {
      "constant": false,
      "inputs": [
        {
          "internalType": "address",
          "name": "service",
          "type": "address"
        }
      ],
      "name": "authorizeInitialService",
      "outputs": [],
      "payable": false,
      "stateMutability": "nonpayable",
      "type": "function"
    },
    {
      "constant": false,
      "inputs": [
        {
          "internalType": "address",
          "name": "service",
          "type": "address"
        }
      ],
      "name": "authorizeRegisteredService",
      "outputs": [],
      "payable": false,
      "stateMutability": "nonpayable",
      "type": "function"
    },
    {
      "constant": false,
      "inputs": [
        {
          "internalType": "address",
          "name": "service",
          "type": "address"
        },
        {
          "internalType": "string",
          "name": "action",
          "type": "string"
        }
      ],
      "name": "authorizeRegisteredServiceAction",
      "outputs": [],
      "payable": false,
      "stateMutability": "nonpayable",
      "type": "function"
    },
    {
      "constant": true,
      "inputs": [],
      "name": "balanceTracker",
      "outputs": [
        {
          "internalType": "contract BalanceTracker",
          "name": "",
          "type": "address"
        }
      ],
      "payable": false,
      "stateMutability": "view",
      "type": "function"
    },
    {
      "constant": true,
      "inputs": [],
      "name": "balanceTrackerFrozen",
      "outputs": [
        {
          "internalType": "bool",
          "name": "",
          "type": "bool"
        }
      ],
      "payable": false,
      "stateMutability": "view",
      "type": "function"
    },
    {
      "constant": true,
      "inputs": [
        {
          "internalType": "uint256",
          "name": "",
          "type": "uint256"
        }
      ],
      "name": "beneficiaries",
      "outputs": [
        {
          "internalType": "contract Beneficiary",
          "name": "",
          "type": "address"
        }
      ],
      "payable": false,
      "stateMutability": "view",
      "type": "function"
    },
    {
      "constant": true,
      "inputs": [
        {
          "internalType": "address",
          "name": "",
          "type": "address"
        }
      ],
      "name": "beneficiaryIndexByAddress",
      "outputs": [
        {
          "internalType": "uint256",
          "name": "",
          "type": "uint256"
        }
      ],
      "payable": false,
      "stateMutability": "view",
      "type": "function"
    },
    {
      "constant": true,
      "inputs": [],
      "name": "deployer",
      "outputs": [
        {
          "internalType": "address",
          "name": "",
          "type": "address"
        }
      ],
      "payable": false,
      "stateMutability": "view",
      "type": "function"
    },
    {
      "constant": false,
      "inputs": [
        {
          "internalType": "contract Beneficiary",
          "name": "beneficiary",
          "type": "address"
        }
      ],
      "name": "deregisterBeneficiary",
      "outputs": [
        {
          "internalType": "bool",
          "name": "",
          "type": "bool"
        }
      ],
      "payable": false,
      "stateMutability": "nonpayable",
      "type": "function"
    },
    {
      "constant": false,
      "inputs": [
        {
          "internalType": "address",
          "name": "service",
          "type": "address"
        }
      ],
      "name": "deregisterService",
      "outputs": [],
      "payable": false,
      "stateMutability": "nonpayable",
      "type": "function"
    },
    {
      "constant": true,
      "inputs": [],
      "name": "destructor",
      "outputs": [
        {
          "internalType": "address",
          "name": "",
          "type": "address"
        }
      ],
      "payable": false,
      "stateMutability": "view",
      "type": "function"
    },
    {
      "constant": false,
      "inputs": [],
      "name": "disableInitialServiceAuthorization",
      "outputs": [],
      "payable": false,
      "stateMutability": "nonpayable",
      "type": "function"
    },
    {
      "constant": false,
      "inputs": [],
      "name": "disableSelfDestruction",
      "outputs": [],
      "payable": false,
      "stateMutability": "nonpayable",
      "type": "function"
    },
    {
      "constant": false,
      "inputs": [
        {
          "internalType": "address",
          "name": "service",
          "type": "address"
        },
        {
          "internalType": "string",
          "name": "action",
          "type": "string"
        }
      ],
      "name": "disableServiceAction",
      "outputs": [],
      "payable": false,
      "stateMutability": "nonpayable",
      "type": "function"
    },
    {
      "constant": false,
      "inputs": [
        {
          "internalType": "address",
          "name": "service",
          "type": "address"
        },
        {
          "internalType": "string",
          "name": "action",
          "type": "string"
        }
      ],
      "name": "enableServiceAction",
      "outputs": [],
      "payable": false,
      "stateMutability": "nonpayable",
      "type": "function"
    },
    {
      "constant": false,
      "inputs": [],
      "name": "freezeBalanceTracker",
      "outputs": [],
      "payable": false,
      "stateMutability": "nonpayable",
      "type": "function"
    },
    {
      "constant": false,
      "inputs": [],
      "name": "freezeTransactionTracker",
      "outputs": [],
      "payable": false,
      "stateMutability": "nonpayable",
      "type": "function"
    },
    {
      "constant": false,
      "inputs": [],
      "name": "freezeWalletLocker",
      "outputs": [],
      "payable": false,
      "stateMutability": "nonpayable",
      "type": "function"
    },
    {
      "constant": true,
      "inputs": [],
      "name": "initialServiceAuthorizationDisabled",
      "outputs": [
        {
          "internalType": "bool",
          "name": "",
          "type": "bool"
        }
      ],
      "payable": false,
      "stateMutability": "view",
      "type": "function"
    },
    {
      "constant": true,
      "inputs": [
        {
          "internalType": "address",
          "name": "",
          "type": "address"
        }
      ],
      "name": "initialServiceAuthorizedMap",
      "outputs": [
        {
          "internalType": "bool",
          "name": "",
          "type": "bool"
        }
      ],
      "payable": false,
      "stateMutability": "view",
      "type": "function"
    },
    {
      "constant": true,
      "inputs": [
        {
          "internalType": "address",
          "name": "",
          "type": "address"
        },
        {
          "internalType": "address",
          "name": "",
          "type": "address"
        }
      ],
      "name": "initialServiceWalletUnauthorizedMap",
      "outputs": [
        {
          "internalType": "bool",
          "name": "",
          "type": "bool"
        }
      ],
      "payable": false,
      "stateMutability": "view",
      "type": "function"
    },
    {
      "constant": true,
      "inputs": [
        {
          "internalType": "address",
          "name": "service",
          "type": "address"
        },
        {
          "internalType": "address",
          "name": "wallet",
          "type": "address"
        }
      ],
      "name": "isAuthorizedRegisteredService",
      "outputs": [
        {
          "internalType": "bool",
          "name": "",
          "type": "bool"
        }
      ],
      "payable": false,
      "stateMutability": "view",
      "type": "function"
    },
    {
      "constant": true,
      "inputs": [
        {
          "internalType": "address",
          "name": "service",
          "type": "address"
        },
        {
          "internalType": "string",
          "name": "action",
          "type": "string"
        },
        {
          "internalType": "address",
          "name": "wallet",
          "type": "address"
        }
      ],
      "name": "isAuthorizedRegisteredServiceAction",
      "outputs": [
        {
          "internalType": "bool",
          "name": "",
          "type": "bool"
        }
      ],
      "payable": false,
      "stateMutability": "view",
      "type": "function"
    },
    {
      "constant": true,
      "inputs": [
        {
          "internalType": "address",
          "name": "service",
          "type": "address"
        },
        {
          "internalType": "string",
          "name": "action",
          "type": "string"
        }
      ],
      "name": "isEnabledServiceAction",
      "outputs": [
        {
          "internalType": "bool",
          "name": "",
          "type": "bool"
        }
      ],
      "payable": false,
      "stateMutability": "view",
      "type": "function"
    },
    {
      "constant": true,
      "inputs": [
        {
          "internalType": "address",
          "name": "service",
          "type": "address"
        }
      ],
      "name": "isRegisteredActiveService",
      "outputs": [
        {
          "internalType": "bool",
          "name": "",
          "type": "bool"
        }
      ],
      "payable": false,
      "stateMutability": "view",
      "type": "function"
    },
    {
      "constant": true,
      "inputs": [
        {
          "internalType": "contract Beneficiary",
          "name": "beneficiary",
          "type": "address"
        }
      ],
      "name": "isRegisteredBeneficiary",
      "outputs": [
        {
          "internalType": "bool",
          "name": "",
          "type": "bool"
        }
      ],
      "payable": false,
      "stateMutability": "view",
      "type": "function"
    },
    {
      "constant": true,
      "inputs": [
        {
          "internalType": "address",
          "name": "service",
          "type": "address"
        }
      ],
      "name": "isRegisteredService",
      "outputs": [
        {
          "internalType": "bool",
          "name": "",
          "type": "bool"
        }
      ],
      "payable": false,
      "stateMutability": "view",
      "type": "function"
    },
    {
      "constant": true,
      "inputs": [],
      "name": "operator",
      "outputs": [
        {
          "internalType": "address",
          "name": "",
          "type": "address"
        }
      ],
      "payable": false,
      "stateMutability": "view",
      "type": "function"
    },
    {
      "constant": false,
      "inputs": [
        {
          "internalType": "contract Beneficiary",
          "name": "beneficiary",
          "type": "address"
        }
      ],
      "name": "registerBeneficiary",
      "outputs": [
        {
          "internalType": "bool",
          "name": "",
          "type": "bool"
        }
      ],
      "payable": false,
      "stateMutability": "nonpayable",
      "type": "function"
    },
    {
      "constant": false,
      "inputs": [
        {
          "internalType": "address",
          "name": "service",
          "type": "address"
        }
      ],
      "name": "registerService",
      "outputs": [],
      "payable": false,
      "stateMutability": "nonpayable",
      "type": "function"
    },
    {
      "constant": false,
      "inputs": [
        {
          "internalType": "address",
          "name": "service",
          "type": "address"
        }
      ],
      "name": "registerServiceDeferred",
      "outputs": [],
      "payable": false,
      "stateMutability": "nonpayable",
      "type": "function"
    },
    {
      "constant": true,
      "inputs": [],
      "name": "registeredBeneficiariesCount",
      "outputs": [
        {
          "internalType": "uint256",
          "name": "",
          "type": "uint256"
        }
      ],
      "payable": false,
      "stateMutability": "view",
      "type": "function"
    },
    {
      "constant": true,
      "inputs": [
        {
          "internalType": "address",
          "name": "",
          "type": "address"
        }
      ],
      "name": "seizedByWallet",
      "outputs": [
        {
          "internalType": "bool",
          "name": "",
          "type": "bool"
        }
      ],
      "payable": false,
      "stateMutability": "view",
      "type": "function"
    },
    {
      "constant": true,
      "inputs": [
        {
          "internalType": "uint256",
          "name": "",
          "type": "uint256"
        }
      ],
      "name": "seizedWallets",
      "outputs": [
        {
          "internalType": "address",
          "name": "",
          "type": "address"
        }
      ],
      "payable": false,
      "stateMutability": "view",
      "type": "function"
    },
    {
      "constant": true,
      "inputs": [],
      "name": "selfDestructionDisabled",
      "outputs": [
        {
          "internalType": "bool",
          "name": "",
          "type": "bool"
        }
      ],
      "payable": false,
      "stateMutability": "view",
      "type": "function"
    },
    {
      "constant": true,
      "inputs": [
        {
          "internalType": "address",
          "name": "",
          "type": "address"
        },
        {
          "internalType": "bytes32",
          "name": "",
          "type": "bytes32"
        },
        {
          "internalType": "address",
          "name": "",
          "type": "address"
        }
      ],
      "name": "serviceActionWalletAuthorizedMap",
      "outputs": [
        {
          "internalType": "bool",
          "name": "",
          "type": "bool"
        }
      ],
      "payable": false,
      "stateMutability": "view",
      "type": "function"
    },
    {
      "constant": true,
      "inputs": [
        {
          "internalType": "address",
          "name": "",
          "type": "address"
        },
        {
          "internalType": "bytes32",
          "name": "",
          "type": "bytes32"
        },
        {
          "internalType": "address",
          "name": "",
          "type": "address"
        }
      ],
      "name": "serviceActionWalletTouchedMap",
      "outputs": [
        {
          "internalType": "bool",
          "name": "",
          "type": "bool"
        }
      ],
      "payable": false,
      "stateMutability": "view",
      "type": "function"
    },
    {
      "constant": true,
      "inputs": [],
      "name": "serviceActivationTimeout",
      "outputs": [
        {
          "internalType": "uint256",
          "name": "",
          "type": "uint256"
        }
      ],
      "payable": false,
      "stateMutability": "view",
      "type": "function"
    },
    {
      "constant": true,
      "inputs": [
        {
          "internalType": "address",
          "name": "",
          "type": "address"
        },
        {
          "internalType": "address",
          "name": "",
          "type": "address"
        },
        {
          "internalType": "uint256",
          "name": "",
          "type": "uint256"
        }
      ],
      "name": "serviceWalletActionList",
      "outputs": [
        {
          "internalType": "bytes32",
          "name": "",
          "type": "bytes32"
        }
      ],
      "payable": false,
      "stateMutability": "view",
      "type": "function"
    },
    {
      "constant": true,
      "inputs": [
        {
          "internalType": "address",
          "name": "",
          "type": "address"
        },
        {
          "internalType": "address",
          "name": "",
          "type": "address"
        }
      ],
      "name": "serviceWalletAuthorizedMap",
      "outputs": [
        {
          "internalType": "bool",
          "name": "",
          "type": "bool"
        }
      ],
      "payable": false,
      "stateMutability": "view",
      "type": "function"
    },
    {
      "constant": false,
      "inputs": [
        {
          "internalType": "contract BalanceTracker",
          "name": "newBalanceTracker",
          "type": "address"
        }
      ],
      "name": "setBalanceTracker",
      "outputs": [],
      "payable": false,
      "stateMutability": "nonpayable",
      "type": "function"
    },
    {
      "constant": false,
      "inputs": [
        {
          "internalType": "address",
          "name": "newDeployer",
          "type": "address"
        }
      ],
      "name": "setDeployer",
      "outputs": [],
      "payable": false,
      "stateMutability": "nonpayable",
      "type": "function"
    },
    {
      "constant": false,
      "inputs": [
        {
          "internalType": "address",
          "name": "newOperator",
          "type": "address"
        }
      ],
      "name": "setOperator",
      "outputs": [],
      "payable": false,
      "stateMutability": "nonpayable",
      "type": "function"
    },
    {
      "constant": false,
      "inputs": [
        {
          "internalType": "uint256",
          "name": "timeoutInSeconds",
          "type": "uint256"
        }
      ],
      "name": "setServiceActivationTimeout",
      "outputs": [],
      "payable": false,
      "stateMutability": "nonpayable",
      "type": "function"
    },
    {
      "constant": false,
      "inputs": [
        {
          "internalType": "contract TransactionTracker",
          "name": "newTransactionTracker",
          "type": "address"
        }
      ],
      "name": "setTransactionTracker",
      "outputs": [],
      "payable": false,
      "stateMutability": "nonpayable",
      "type": "function"
    },
    {
      "constant": false,
      "inputs": [
        {
          "internalType": "contract TransferControllerManager",
          "name": "newTransferControllerManager",
          "type": "address"
        }
      ],
      "name": "setTransferControllerManager",
      "outputs": [],
      "payable": false,
      "stateMutability": "nonpayable",
      "type": "function"
    },
    {
      "constant": false,
      "inputs": [
        {
          "internalType": "contract WalletLocker",
          "name": "newWalletLocker",
          "type": "address"
        }
      ],
      "name": "setWalletLocker",
      "outputs": [],
      "payable": false,
      "stateMutability": "nonpayable",
      "type": "function"
    },
    {
      "constant": true,
      "inputs": [],
      "name": "tokenHolderRevenueFund",
      "outputs": [
        {
          "internalType": "contract TokenHolderRevenueFund",
          "name": "",
          "type": "address"
        }
      ],
      "payable": false,
      "stateMutability": "view",
      "type": "function"
    },
    {
      "constant": true,
      "inputs": [],
      "name": "transactionTracker",
      "outputs": [
        {
          "internalType": "contract TransactionTracker",
          "name": "",
          "type": "address"
        }
      ],
      "payable": false,
      "stateMutability": "view",
      "type": "function"
    },
    {
      "constant": true,
      "inputs": [],
      "name": "transactionTrackerFrozen",
      "outputs": [
        {
          "internalType": "bool",
          "name": "",
          "type": "bool"
        }
      ],
      "payable": false,
      "stateMutability": "view",
      "type": "function"
    },
    {
      "constant": true,
      "inputs": [],
      "name": "transferControllerManager",
      "outputs": [
        {
          "internalType": "contract TransferControllerManager",
          "name": "",
          "type": "address"
        }
      ],
      "payable": false,
      "stateMutability": "view",
      "type": "function"
    },
    {
      "constant": false,
      "inputs": [],
      "name": "triggerSelfDestruction",
      "outputs": [],
      "payable": false,
      "stateMutability": "nonpayable",
      "type": "function"
    },
    {
      "constant": false,
      "inputs": [
        {
          "internalType": "address",
          "name": "service",
          "type": "address"
        }
      ],
      "name": "unauthorizeRegisteredService",
      "outputs": [],
      "payable": false,
      "stateMutability": "nonpayable",
      "type": "function"
    },
    {
      "constant": false,
      "inputs": [
        {
          "internalType": "address",
          "name": "service",
          "type": "address"
        },
        {
          "internalType": "string",
          "name": "action",
          "type": "string"
        }
      ],
      "name": "unauthorizeRegisteredServiceAction",
      "outputs": [],
      "payable": false,
      "stateMutability": "nonpayable",
      "type": "function"
    },
    {
      "constant": true,
      "inputs": [],
      "name": "walletLocker",
      "outputs": [
        {
          "internalType": "contract WalletLocker",
          "name": "",
          "type": "address"
        }
      ],
      "payable": false,
      "stateMutability": "view",
      "type": "function"
    },
    {
      "constant": true,
      "inputs": [],
      "name": "walletLockerFrozen",
      "outputs": [
        {
          "internalType": "bool",
          "name": "",
          "type": "bool"
        }
      ],
      "payable": false,
      "stateMutability": "view",
      "type": "function"
    },
    {
      "constant": false,
      "inputs": [
        {
          "internalType": "contract TokenHolderRevenueFund",
          "name": "newTokenHolderRevenueFund",
          "type": "address"
        }
      ],
      "name": "setTokenHolderRevenueFund",
      "outputs": [],
      "payable": false,
      "stateMutability": "nonpayable",
      "type": "function"
    },
    {
      "constant": false,
      "inputs": [
        {
          "internalType": "address",
          "name": "wallet",
          "type": "address"
        },
        {
          "internalType": "string",
          "name": "balanceType",
          "type": "string"
        }
      ],
      "name": "receiveEthersTo",
      "outputs": [],
      "payable": true,
      "stateMutability": "payable",
      "type": "function"
    },
    {
      "constant": false,
      "inputs": [
        {
          "internalType": "string",
          "name": "balanceType",
          "type": "string"
        },
        {
          "internalType": "int256",
          "name": "value",
          "type": "int256"
        },
        {
          "internalType": "address",
          "name": "currencyCt",
          "type": "address"
        },
        {
          "internalType": "uint256",
          "name": "currencyId",
          "type": "uint256"
        },
        {
          "internalType": "string",
          "name": "standard",
          "type": "string"
        }
      ],
      "name": "receiveTokens",
      "outputs": [],
      "payable": false,
      "stateMutability": "nonpayable",
      "type": "function"
    },
    {
      "constant": false,
      "inputs": [
        {
          "internalType": "address",
          "name": "wallet",
          "type": "address"
        },
        {
          "internalType": "string",
          "name": "balanceType",
          "type": "string"
        },
        {
          "internalType": "int256",
          "name": "value",
          "type": "int256"
        },
        {
          "internalType": "address",
          "name": "currencyCt",
          "type": "address"
        },
        {
          "internalType": "uint256",
          "name": "currencyId",
          "type": "uint256"
        },
        {
          "internalType": "string",
          "name": "standard",
          "type": "string"
        }
      ],
      "name": "receiveTokensTo",
      "outputs": [],
      "payable": false,
      "stateMutability": "nonpayable",
      "type": "function"
    },
    {
      "constant": false,
      "inputs": [
        {
          "internalType": "address",
          "name": "wallet",
          "type": "address"
        },
        {
          "internalType": "int256",
          "name": "value",
          "type": "int256"
        },
        {
          "internalType": "address",
          "name": "currencyCt",
          "type": "address"
        },
        {
          "internalType": "uint256",
          "name": "currencyId",
          "type": "uint256"
        },
        {
          "internalType": "string",
          "name": "standard",
          "type": "string"
        },
        {
          "internalType": "uint256",
          "name": "blockNumber",
          "type": "uint256"
        }
      ],
      "name": "updateSettledBalance",
      "outputs": [],
      "payable": false,
      "stateMutability": "nonpayable",
      "type": "function"
    },
    {
      "constant": false,
      "inputs": [
        {
          "internalType": "address",
          "name": "wallet",
          "type": "address"
        },
        {
          "internalType": "int256",
          "name": "value",
          "type": "int256"
        },
        {
          "internalType": "address",
          "name": "currencyCt",
          "type": "address"
        },
        {
          "internalType": "uint256",
          "name": "currencyId",
          "type": "uint256"
        },
        {
          "internalType": "string",
          "name": "standard",
          "type": "string"
        }
      ],
      "name": "stage",
      "outputs": [],
      "payable": false,
      "stateMutability": "nonpayable",
      "type": "function"
    },
    {
      "constant": false,
      "inputs": [
        {
          "internalType": "int256",
          "name": "value",
          "type": "int256"
        },
        {
          "internalType": "address",
          "name": "currencyCt",
          "type": "address"
        },
        {
          "internalType": "uint256",
          "name": "currencyId",
          "type": "uint256"
        },
        {
          "internalType": "string",
          "name": "standard",
          "type": "string"
        }
      ],
      "name": "unstage",
      "outputs": [],
      "payable": false,
      "stateMutability": "nonpayable",
      "type": "function"
    },
    {
      "constant": false,
      "inputs": [
        {
          "internalType": "address",
          "name": "wallet",
          "type": "address"
        },
        {
          "internalType": "contract Beneficiary",
          "name": "beneficiary",
          "type": "address"
        },
        {
          "internalType": "int256",
          "name": "value",
          "type": "int256"
        },
        {
          "internalType": "address",
          "name": "currencyCt",
          "type": "address"
        },
        {
          "internalType": "uint256",
          "name": "currencyId",
          "type": "uint256"
        },
        {
          "internalType": "string",
          "name": "standard",
          "type": "string"
        }
      ],
      "name": "stageToBeneficiary",
      "outputs": [],
      "payable": false,
      "stateMutability": "nonpayable",
      "type": "function"
    },
    {
      "constant": false,
      "inputs": [
        {
          "internalType": "address",
          "name": "wallet",
          "type": "address"
        },
        {
          "internalType": "contract Beneficiary",
          "name": "beneficiary",
          "type": "address"
        },
        {
          "internalType": "int256",
          "name": "value",
          "type": "int256"
        },
        {
          "internalType": "address",
          "name": "currencyCt",
          "type": "address"
        },
        {
          "internalType": "uint256",
          "name": "currencyId",
          "type": "uint256"
        },
        {
          "internalType": "string",
          "name": "standard",
          "type": "string"
        }
      ],
      "name": "transferToBeneficiary",
      "outputs": [],
      "payable": false,
      "stateMutability": "nonpayable",
      "type": "function"
    },
    {
      "constant": false,
      "inputs": [
        {
          "internalType": "address",
          "name": "wallet",
          "type": "address"
        },
        {
          "internalType": "address",
          "name": "currencyCt",
          "type": "address"
        },
        {
          "internalType": "uint256",
          "name": "currencyId",
          "type": "uint256"
        },
        {
          "internalType": "string",
          "name": "standard",
          "type": "string"
        }
      ],
      "name": "seizeBalances",
      "outputs": [],
      "payable": false,
      "stateMutability": "nonpayable",
      "type": "function"
    },
    {
      "constant": false,
      "inputs": [
        {
          "internalType": "int256",
          "name": "value",
          "type": "int256"
        },
        {
          "internalType": "address",
          "name": "currencyCt",
          "type": "address"
        },
        {
          "internalType": "uint256",
          "name": "currencyId",
          "type": "uint256"
        },
        {
          "internalType": "string",
          "name": "standard",
          "type": "string"
        }
      ],
      "name": "withdraw",
      "outputs": [],
      "payable": false,
      "stateMutability": "nonpayable",
      "type": "function"
    },
    {
      "constant": true,
      "inputs": [
        {
          "internalType": "address",
          "name": "wallet",
          "type": "address"
        }
      ],
      "name": "isSeizedWallet",
      "outputs": [
        {
          "internalType": "bool",
          "name": "",
          "type": "bool"
        }
      ],
      "payable": false,
      "stateMutability": "view",
      "type": "function"
    },
    {
      "constant": true,
      "inputs": [],
      "name": "seizedWalletsCount",
      "outputs": [
        {
          "internalType": "uint256",
          "name": "",
          "type": "uint256"
        }
      ],
      "payable": false,
      "stateMutability": "view",
      "type": "function"
    },
    {
      "constant": false,
      "inputs": [
        {
          "internalType": "address",
          "name": "claimer",
          "type": "address"
        },
        {
          "internalType": "string",
          "name": "balanceType",
          "type": "string"
        },
        {
          "internalType": "address",
          "name": "currencyCt",
          "type": "address"
        },
        {
          "internalType": "uint256",
          "name": "currencyId",
          "type": "uint256"
        },
        {
          "internalType": "string",
          "name": "standard",
          "type": "string"
        }
      ],
      "name": "claimRevenue",
      "outputs": [],
      "payable": false,
      "stateMutability": "nonpayable",
      "type": "function"
    }
  ],
  "bytecode": "0x60806040523480156200001157600080fd5b5060405162005fae38038062005fae8339810160408190526200003491620000ba565b80806001600160a01b0381166200004a57600080fd5b6001600160a01b0381163014156200006157600080fd5b5060008054610100600160a81b0319166101006001600160a01b0393909316928302179055600180546001600160a01b03191690911790555062093a806005556200010f565b8051620000b481620000f5565b92915050565b600060208284031215620000cd57600080fd5b6000620000db8484620000a7565b949350505050565b60006001600160a01b038216620000b4565b6200010081620000e3565b81146200010c57600080fd5b50565b615e8f806200011f6000396000f3fe6080604052600436106103155760003560e01c806301f3241f146103aa57806304fd3130146103ca5780630c5d24fa146104005780630f200f9b14610420578063158a03421461044057806317ba3f9014610460578063191390921461048057806319507d8a146104a257806319e56365146104c25780631caf1d6d146104e25780631da826be146105025780632145cd2014610522578063240625d8146105445780632738a112146105595780632b5672e31461056e5780632b91e0a91461058e5780632f013a00146105ae5780633b159b37146105c35780633b58c501146105e35780633b7bea6c146106035780633e59b706146106185780634476d23b1461062d578063449fb3461461064f57806344b537371461066f5780634ddf63f61461068f57806350b08c02146106af578063570ca735146106cf57806357925b53146106e4578063598b75ad146107045780635dc60def146107245780635df1b0a3146107395780635f2896511461075957806362ac76211461077957806362f1e6b31461079957806364ba4752146107b957806367299f36146107d9578063677ec9d6146107ee57806370327ea11461080e5780637953d64d146108235780637dac26c7146108435780637e15dd5c146108585780637f584f511461087857806384cfb4091461088d578063892860b2146108ad5780638995d42f146108cd57806389f90a80146108e25780638a2f30cc146108f75780638e8cef12146109175780639621473514610937578063a3e5175d14610957578063a4cf2f1c14610977578063a7654a1f1461098c578063ad468df91461099a578063af30b312146109ba578063b3ab15fb146109cf578063b52d470a146109ef578063b9bb9cd914610a04578063c45a9a7f14610a24578063cc0dad4a14610a44578063cdd8b2b214610a64578063d25a18e514610a84578063d3b41bd214610aa4578063d5f3948814610ac4578063df9774d814610ad9578063e167d4f614610af9578063e3d3e9fc14610b0e578063e8ae41e314610b2e578063efeb5e5814610b43578063f8297dbe14610b63578063fdd9ec7d14610b83575b6103a833600e60009054906101000a90046001600160a01b03166001600160a01b0316635106c2036040518163ffffffff1660e01b815260040160006040518083038186803b15801561036757600080fd5b505afa15801561037b573d6000803e3d6000fd5b505050506040513d6000823e601f3d908101601f191682016040526103a39190810190615520565b610ba3565b005b3480156103b657600080fd5b506103a86103c5366004614f8c565b610c72565b3480156103d657600080fd5b506103ea6103e5366004615492565b610d68565b6040516103f79190615c07565b60405180910390f35b34801561040c57600080fd5b506103ea61041b3660046152ee565b610d85565b34801561042c57600080fd5b506103a861043b3660046154ce565b610e21565b34801561044c57600080fd5b506103a861045b3660046150ec565b61108c565b34801561046c57600080fd5b506103ea61047b366004614f8c565b6110f8565b34801561048c57600080fd5b50610495611130565b6040516103f79190615c23565b3480156104ae57600080fd5b506103ea6104bd366004614f8c565b61113f565b3480156104ce57600080fd5b506103a86104dd3660046154ce565b611154565b3480156104ee57600080fd5b506103ea6104fd366004615492565b611317565b34801561050e57600080fd5b506103a861051d366004615492565b6114a7565b34801561052e57600080fd5b5061053761153e565b6040516103f79190615c15565b34801561055057600080fd5b506103ea611545565b34801561056557600080fd5b506103a8611555565b34801561057a57600080fd5b506103a86105893660046152a7565b6115bb565b34801561059a57600080fd5b506103ea6105a9366004614f8c565b6116e5565b3480156105ba57600080fd5b506103ea611703565b3480156105cf57600080fd5b506103a86105de366004615337565b61170c565b3480156105ef57600080fd5b506103a86105fe3660046152a7565b6117c0565b34801561060f57600080fd5b5061053761189c565b34801561062457600080fd5b506103ea6118a2565b34801561063957600080fd5b506106426118b2565b6040516103f79190615762565b34801561065b57600080fd5b506103a861066a366004615031565b6118c6565b34801561067b57600080fd5b5061053761068a366004614f8c565b61197c565b34801561069b57600080fd5b506103a86106aa366004614f8c565b61198e565b3480156106bb57600080fd5b506103a86106ca366004614f8c565b611a69565b3480156106db57600080fd5b50610642611b19565b3480156106f057600080fd5b506103ea6106ff366004614faa565b611b28565b34801561071057600080fd5b506103a861071f366004615492565b611b79565b34801561073057600080fd5b506103a8611c3d565b34801561074557600080fd5b506103ea6107543660046152a7565b611c8c565b34801561076557600080fd5b506103a8610774366004615383565b611cdd565b34801561078557600080fd5b506103a86107943660046152a7565b611f54565b3480156107a557600080fd5b506103ea6107b4366004614faa565b612123565b3480156107c557600080fd5b506103a86107d4366004615216565b612143565b3480156107e557600080fd5b506105376125ee565b3480156107fa57600080fd5b506103ea6108093660046150a9565b6125f4565b34801561081a57600080fd5b506103a861261a565b34801561082f57600080fd5b506103ea61083e366004614faa565b61267d565b34801561084f57600080fd5b5061049561269d565b34801561086457600080fd5b506103a861087336600461558e565b6126ac565b34801561088457600080fd5b506103ea6126fd565b34801561089957600080fd5b506103ea6108a83660046150a9565b612706565b3480156108b957600080fd5b506103a86108c8366004615492565b61272c565b3480156108d957600080fd5b506103a86127e7565b3480156108ee57600080fd5b506103ea612836565b34801561090357600080fd5b506103a86109123660046152a7565b612846565b34801561092357600080fd5b506103a8610932366004614f8c565b612977565b34801561094357600080fd5b506103a8610952366004614f8c565b6129f1565b34801561096357600080fd5b506103a8610972366004614f8c565b612aa7565b34801561098357600080fd5b50610495612c63565b6103a86103a33660046152a7565b3480156109a657600080fd5b506103a86109b536600461518a565b612c72565b3480156109c657600080fd5b50610495612ed3565b3480156109db57600080fd5b506103a86109ea366004614f8c565b612ee2565b3480156109fb57600080fd5b506103a8612f85565b348015610a1057600080fd5b50610642610a1f36600461558e565b612fd4565b348015610a3057600080fd5b506103a8610a3f366004615554565b612ffb565b348015610a5057600080fd5b506103ea610a5f366004614f8c565b613010565b348015610a7057600080fd5b506103ea610a7f366004615492565b61302e565b348015610a9057600080fd5b506103a8610a9f366004615492565b613122565b348015610ab057600080fd5b506103a8610abf366004615492565b6131dd565b348015610ad057600080fd5b5061064261326e565b348015610ae557600080fd5b506103ea610af4366004614f8c565b613282565b348015610b0557600080fd5b506103a8613297565b348015610b1a57600080fd5b50610537610b29366004614fe4565b6132b7565b348015610b3a57600080fd5b506104956132f2565b348015610b4f57600080fd5b50610495610b5e36600461558e565b613301565b348015610b6f57600080fd5b506103a8610b7e3660046150ec565b61330e565b348015610b8f57600080fd5b506103a8610b9e366004614f8c565b6133cc565b60405163802d10af60e01b815260009073__SafeMathIntLib________________________9063802d10af90610bdd903490600401615c15565b60206040518083038186803b158015610bf557600080fd5b505af4158015610c09573d6000803e3d6000fd5b505050506040513d601f19601f82011682018060405250610c2d9190810190615456565b9050610c3f8383836000806001613441565b600080516020615e2d833981519152838383600080604051610c65959493929190615aea565b60405180910390a1505050565b806001600160a01b038116610c8657600080fd5b6001600160a01b038116301415610c9c57600080fd5b336001600160a01b0383161415610cb257600080fd5b6001600160a01b03821660009081526004602052604090205460ff16610cd757600080fd5b6001600160a01b03821660009081526007602052604090205460ff1615610cfd57600080fd5b6001600160a01b038216600090815260096020908152604080832033808552925291829020805460ff1916600117905590517f7406a64e4e8c04b2a11d4cb484eb07cd5762012eafc449900b8d92de008ff27f91610d5c91859061577e565b60405180910390a15050565b6001600160a01b0316600090815260036020526040902054151590565b600080610d9184613886565b9050610d9d8585611c8c565b8015610e165750610dae85846138b6565b80610dde57506001600160a01b0380861660009081526009602090815260408083209387168352929052205460ff165b80610e1657506001600160a01b038086166000908152600a6020908152604080832085845282528083209387168352929052205460ff165b9150505b9392505050565b6040516351750e5360e11b815273__SafeMathIntLib________________________9063a2ea1ca690610e58908790600401615c15565b60206040518083038186803b158015610e7057600080fd5b505af4158015610e84573d6000803e3d6000fd5b505050506040513d601f19601f82011682018060405250610ea89190810190615438565b610eb157600080fd5b6010546040516315c3cbc160e11b81526001600160a01b0390911690632b87978290610ee590339087908790600401615808565b60206040518083038186803b158015610efd57600080fd5b505afa158015610f11573d6000803e3d6000fd5b505050506040513d601f19601f82011682018060405250610f359190810190615438565b15610f3f57600080fd5b6000610f4c84848461390d565b9050610f5b33868686856139a4565b600f546040805163bde440cb60e01b815290519297506001600160a01b0390911691639cab96d6913391849163bde440cb916004808301926020929190829003018186803b158015610fac57600080fd5b505afa158015610fc0573d6000803e3d6000fd5b505050506040513d601f19601f82011682018060405250610fe49190810190615456565b8888886040518663ffffffff1660e01b8152600401611007959493929190615830565b600060405180830381600087803b15801561102157600080fd5b505af1158015611035573d6000803e3d6000fd5b505050506110463386868686613d2f565b7f8e0adde15ffb742f47e7888277a26cea416253fcb63186dc4949fe493e92b77c338686868660405161107d9594939291906158c0565b60405180910390a15050505050565b856110973382611b28565b6110a057600080fd5b6110ae878787878787613eb5565b7f464d34e7809466899b7d90f10c09d1f6cc16e042bdcc94647bfb30cba7055bdb8787878787876040516110e796959493929190615a2d565b60405180910390a150505050505050565b6000611103826116e5565b801561112a57506001600160a01b0382166000908152600460205260409020600101544210155b92915050565b600e546001600160a01b031681565b60076020526000908152604090205460ff1681565b6040516351750e5360e11b815273__SafeMathIntLib________________________9063a2ea1ca69061118b908790600401615c15565b60206040518083038186803b1580156111a357600080fd5b505af41580156111b7573d6000803e3d6000fd5b505050506040513d601f19601f820116820180604052506111db9190810190615438565b6111e457600080fd5b60006111f184848461390d565b905061120033868686856139a4565b600e5460408051630ded113160e41b815290519297506001600160a01b039091169163b95ae1cd913391849163ded11310916004808301926020929190829003018186803b15801561125157600080fd5b505afa158015611265573d6000803e3d6000fd5b505050506040513d601f19601f820116820180604052506112899190810190615456565b888888876040518763ffffffff1660e01b81526004016112ae9695949392919061584b565b600060405180830381600087803b1580156112c857600080fd5b505af11580156112dc573d6000803e3d6000fd5b505050507fb585d857aef422991d8fca53fc905d6ff577eeaab4b496cd88780875d37cf409338686868660405161107d9594939291906158c0565b60006113216141e9565b61132a57600080fd5b816001600160a01b03811661133e57600080fd5b6001600160a01b03831660009081526003602052604090205483906113675760009250506114a1565b6001600160a01b0381166000908152600360205260409020546002546000199182019101811015611433576002805460001981019081106113a457fe5b600091825260209091200154600280546001600160a01b0390921691839081106113ca57fe5b9060005260206000200160006101000a8154816001600160a01b0302191690836001600160a01b0316021790555080600101600360006002848154811061140d57fe5b60009182526020808320909101546001600160a01b031683528201929092526040019020555b6002805490611446906000198301614d74565b506001600160a01b03821660009081526003602052604080822091909155517f33f51cf787669db5b5aff6ba597298fd010748de93aaadef29aae876cef4a8c390611492908790615c23565b60405180910390a16001935050505b50919050565b6114af6141e9565b6114b857600080fd5b806001600160a01b0381166114cc57600080fd5b60135482906001600160a01b03908116908216811461153857601380546001600160a01b038681166001600160a01b03198316179092556040519116907f059245e3752d2ad85a00b28db68f4b944c8269ef3c6bd378055bea9cd1fd07409061107d9083908890615c31565b50505050565b6011545b90565b601054600160a01b900460ff1681565b3361155e6118b2565b6001600160a01b03161461157157600080fd5b60005460ff161561158157600080fd5b7f787a5d936e74f4b564b9153575886059829c78cd9927b1be5e0d976b317ef736336040516115b09190615770565b60405180910390a133ff5b6115c36141e9565b6115cc57600080fd5b816001600160a01b0381166115e057600080fd5b6001600160a01b0381163014156115f657600080fd5b6001600160a01b03831660009081526004602052604090205460ff1661161b57600080fd5b600061162683613886565b6001600160a01b038516600090815260046020908152604080832084845260020190915290205490915060ff161561165d57600080fd5b6001600160a01b0384166000908152600460208181526040808420858552600281018352818520805460ff19166001908117909155938352600301805493840181558452922001829055517fec1b982d69bfc1a6fd8becf191d9a633486c822d3bdedd52303ca81fa6357501906116d79086908690615a9b565b60405180910390a150505050565b6001600160a01b031660009081526004602052604090205460ff1690565b60005460ff1681565b6117146141ff565b61171d57600080fd5b60135460405163ce25621360e01b81526001600160a01b039091169063ce2562139061175790309089908990899089908990600401615c4c565b600060405180830381600087803b15801561177157600080fd5b505af1158015611785573d6000803e3d6000fd5b505050507fe413728068242467b29b57e8f9c4da8b4a4eb0ea41abe0cadddba823c043e088858585858560405161107d959493929190615abb565b6117c86141e9565b6117d157600080fd5b816001600160a01b0381166117e557600080fd5b6001600160a01b0381163014156117fb57600080fd5b600061180683613886565b6001600160a01b038516600090815260046020908152604080832084845260020190915290205490915060ff1661183c57600080fd5b6001600160a01b038416600090815260046020908152604080832084845260020190915290819020805460ff19169055517f92f4af6130f47c92f3899e06611c8c6ef191fb81207ad2675d134af619d2fe7d906116d79086908690615a9b565b60055481565b600e54600160a01b900460ff1681565b60005461010090046001600160a01b031690565b6118d183838361390d565b156118e7576118e284338585614210565b6118f3565b6118f384338585614440565b6001600160a01b03841660009081526012602052604090205460ff16611538575050506001600160a01b03166000818152601260205260408120805460ff191660019081179091556011805491820181559091527f31ecc21a745e3968a04e9570e4425bc18fa8019c68028196b546d1669c200c680180546001600160a01b0319169091179055565b60036020526000908152604090205481565b6119966141e9565b61199f57600080fd5b806001600160a01b0381166119b357600080fd5b6001600160a01b0381163014156119c957600080fd5b60065460ff16156119d957600080fd5b336001600160a01b03831614156119ef57600080fd5b6001600160a01b03821660009081526004602052604090205460ff16611a1457600080fd5b6001600160a01b03821660009081526007602052604090819020805460ff19166001179055517f81c5f2034d05958dd641755044582c0aba29a94070f0a2641bb554325328bf1e90610d5c903390859061577e565b611a716141e9565b611a7a57600080fd5b806001600160a01b038116611a8e57600080fd5b6001600160a01b038116301415611aa457600080fd5b6001600160a01b03821660009081526004602052604090205460ff16611ac957600080fd5b6001600160a01b03821660009081526004602052604090819020805460ff19169055517f777645c5437dfbf962f57a281ead25f3d513f2f8e938685bbfc1738e81c9880e90610d5c908490615762565b6001546001600160a01b031681565b6000611b33836110f8565b8015610e1a5750611b4483836138b6565b80610e1a5750506001600160a01b03918216600090815260096020908152604080832093909416825291909152205460ff1690565b611b816141e9565b611b8a57600080fd5b806001600160a01b038116611b9e57600080fd5b600e5482906001600160a01b03908116908216811461153857600e54600160a01b900460ff1615611bea5760405162461bcd60e51b8152600401611be190615c96565b60405180910390fd5b600e80546001600160a01b038681166001600160a01b03198316179092556040519116907fb2a91d3a71b0c5bc7c083153b3474378e489506ba98bd4ddb1b9056fdc594bb59061107d9083908890615c31565b611c456141e9565b611c4e57600080fd5b6010805460ff60a01b1916600160a01b1790556040517f56ec8900b9c4bf84f4b715a53068ca06961dd49084c07b481931e2c2045346e690600090a1565b600080611c9883613886565b9050611ca3846110f8565b8015611cd557506001600160a01b038416600090815260046020908152604080832084845260020190915290205460ff165b949350505050565b6040516351750e5360e11b815273__SafeMathIntLib________________________9063a2ea1ca690611d14908790600401615c15565b60206040518083038186803b158015611d2c57600080fd5b505af4158015611d40573d6000803e3d6000fd5b505050506040513d601f19601f82011682018060405250611d649190810190615438565b611d6d57600080fd5b6000611d79848361475b565b90506000816001600160a01b0316826001600160a01b031663ad502f576040518163ffffffff1660e01b815260040160206040518083038186803b158015611dc057600080fd5b505afa158015611dd4573d6000803e3d6000fd5b505050506040513d601f19601f82011682018060405250611df89190810190615474565b3330898989604051602401611e119594939291906158a5565b60408051601f198184030181529181526020820180516001600160e01b03166001600160e01b0319909416939093179092529051611e4f9190615756565b600060405180830381855af49150503d8060008114611e8a576040519150601f19603f3d011682016040523d82523d6000602084013e611e8f565b606091505b5050905080611e9d57600080fd5b611f1b8888888888876001600160a01b031663a89c2e5a6040518163ffffffff1660e01b815260040160206040518083038186803b158015611ede57600080fd5b505afa158015611ef2573d6000803e3d6000fd5b505050506040513d601f19601f82011682018060405250611f169190810190615438565b613441565b600080516020615e2d833981519152888888888888604051611f4296959493929190615b44565b60405180910390a15050505050505050565b816001600160a01b038116611f6857600080fd5b6001600160a01b038116301415611f7e57600080fd5b336001600160a01b0384161415611f9457600080fd5b6000611f9f83613886565b6001600160a01b03851660009081526004602052604090205490915060ff168015611ff057506001600160a01b038416600090815260046020908152604080832084845260020190915290205460ff165b611ff957600080fd5b6001600160a01b03841660009081526007602052604090205460ff161561201f57600080fd5b6001600160a01b038416600081815260096020908152604080832033808552908352818420805460ff19908116909155858552600a84528285208786528452828520828652845282852080549091166001179055938352600b82528083208584528252808320938352929052205460ff166120f0576001600160a01b0384166000818152600b60209081526040808320858452825280832033808552908352818420805460ff19166001908117909155948452600c8352818420908452825282208054938401815582529020018190555b7fc007803323f3ca89cb3f8af1a12f354dc108e9dd4988c312b3f7a878914987ce3385856040516116d7939291906157db565b600860209081526000928352604080842090915290825290205460ff1681565b8561214e3382611b28565b61215757600080fd5b866001600160a01b03811661216b57600080fd5b604051636b84d93160e01b815273__SafeMathIntLib________________________90636b84d931906121a2908a90600401615c15565b60206040518083038186803b1580156121ba57600080fd5b505af41580156121ce573d6000803e3d6000fd5b505050506040513d601f19601f820116820180604052506121f29190810190615438565b6121fb57600080fd5b61220686868661390d565b156123fc57600e5460408051630ded113160e41b815290516000926001600160a01b03169163a246138c918c91849163ded1131091600480820192602092909190829003018186803b15801561225b57600080fd5b505afa15801561226f573d6000803e3d6000fd5b505050506040513d601f19601f820116820180604052506122939190810190615456565b8a8a896040518663ffffffff1660e01b81526004016122b69594939291906159b4565b604080518083038186803b1580156122cd57600080fd5b505afa1580156122e1573d6000803e3d6000fd5b505050506040513d601f19601f8201168201806040525061230591908101906154f0565b50600e5460408051631194bb1d60e21b815290519293506001600160a01b039091169163d062ec1d918c918491634652ec74916004808301926020929190829003018186803b15801561235757600080fd5b505afa15801561236b573d6000803e3d6000fd5b505050506040513d601f19601f8201168201806040525061238f9190810190615456565b61239f8c8663ffffffff6147de16565b8b8b60016040518763ffffffff1660e01b81526004016123c4969594939291906159f7565b600060405180830381600087803b1580156123de57600080fd5b505af11580156123f2573d6000803e3d6000fd5b50505050506125b9565b600e5460408051630ded113160e41b815290516001600160a01b0390921691637d7a23aa918b91849163ded11310916004808301926020929190829003018186803b15801561244a57600080fd5b505afa15801561245e573d6000803e3d6000fd5b505050506040513d601f19601f820116820180604052506124829190810190615456565b8a8a8a60006040518763ffffffff1660e01b81526004016124a8969594939291906159f7565b600060405180830381600087803b1580156124c257600080fd5b505af11580156124d6573d6000803e3d6000fd5b5050600e5460408051631194bb1d60e21b815290516001600160a01b03909216935063b95ae1cd92508b918491634652ec74916004808301926020929190829003018186803b15801561252857600080fd5b505afa15801561253c573d6000803e3d6000fd5b505050506040513d601f19601f820116820180604052506125609190810190615456565b8a8a8a60006040518763ffffffff1660e01b8152600401612586969594939291906159f7565b600060405180830381600087803b1580156125a057600080fd5b505af11580156125b4573d6000803e3d6000fd5b505050505b7f6ded3dfe9bc210e5b60b695bac6bd623844003b866c14264d44e91b8352a4fad88888888604051611f429493929190615999565b60025490565b600b60209081526000938452604080852082529284528284209052825290205460ff1681565b336126236118b2565b6001600160a01b03161461263657600080fd5b6000805460ff191660011790556040517fd5a2a04a775c741c2ca0dc46ea7ce4835190e1aaf1ca018def0e82568ec3361690612673903390615770565b60405180910390a1565b600960209081526000928352604080842090915290825290205460ff1681565b6013546001600160a01b031681565b6126b46141e9565b6126bd57600080fd5b60058190556040517f4f1d324a1cbffc352fb64f1d73d95e4b200d92f99ef39bf2d7f5b41f946909d6906126f2908390615c15565b60405180910390a150565b60065460ff1681565b600a60209081526000938452604080852082529284528284209052825290205460ff1681565b6127346141e9565b61273d57600080fd5b806001600160a01b03811661275157600080fd5b60105482906001600160a01b03908116908216811461153857601054600160a01b900460ff16156127945760405162461bcd60e51b8152600401611be190615cb6565b601080546001600160a01b038681166001600160a01b03198316179092556040519116907fa44d361e26327b72a7ccbeae801b3c5cd7677ea4fa74168b289e273c46bfecfc9061107d9083908890615c31565b6127ef6141e9565b6127f857600080fd5b600f805460ff60a01b1916600160a01b1790556040517fd7d1b6dcaeec9afa87c8c53d9da393505dee41c9ace60ab22f3b23db19ac282c90600090a1565b600f54600160a01b900460ff1681565b816001600160a01b03811661285a57600080fd5b6001600160a01b03811630141561287057600080fd5b336001600160a01b038416141561288657600080fd5b600061289183613886565b6001600160a01b03851660009081526004602052604090205490915060ff1680156128e257506001600160a01b038416600090815260046020908152604080832084845260020190915290205460ff165b6128eb57600080fd5b6001600160a01b03841660009081526007602052604090205460ff161561291157600080fd5b6001600160a01b0384166000908152600a60209081526040808320848452825280832033808552925291829020805460ff1916905590517f6fa0cdb0b5c22004ccfcaee11eed450e0184dda8edd417ae2410f0a883fdb740916116d791879087906157db565b61297f6141e9565b61298857600080fd5b806001600160a01b03811661299c57600080fd5b6001600160a01b0381163014156129b257600080fd5b6129be82600554614818565b7f7f3a8349917003ed377f6e9ae1608b92edd893903f8983bd274b1f8373dd3b1182600554604051610d5c929190615bec565b6129f96141e9565b612a0257600080fd5b806001600160a01b038116612a1657600080fd5b6001600160a01b038116301415612a2c57600080fd5b6000546001600160a01b038381166101009092041614612aa357600080546001600160a01b03848116610100908102610100600160a81b03198416179093556040519290910416907f977e5fa58e458501775e0008d275006294c5249e3c08d1d0e3a9f3acad14f6e490610c659083908690615907565b5050565b806001600160a01b038116612abb57600080fd5b6001600160a01b038116301415612ad157600080fd5b336001600160a01b0383161415612ae757600080fd5b6001600160a01b03821660009081526004602052604090205460ff16612b0c57600080fd5b6001600160a01b03821660009081526007602052604090205460ff1615612b60576001600160a01b03821660009081526008602090815260408083203384529091529020805460ff19166001179055612c32565b6001600160a01b03821660009081526009602090815260408083203384529091528120805460ff191690555b6001600160a01b0383166000908152600c60209081526040808320338452909152902054811015612c30576001600160a01b0383166000908152600a60209081526040808320600c835281842033855290925282208054600193919085908110612bf257fe5b600091825260208083209190910154835282810193909352604091820181203382529092529020805460ff1916911515919091179055600101612b8c565b505b7fe25d4094f2181ddef4410dcc1539a7488abd881a90c56078314b9f70affc5f7e3383604051610d5c92919061577e565b600f546001600160a01b031681565b84612c7d3382611b28565b612c8657600080fd5b6040516351750e5360e11b815273__SafeMathIntLib________________________9063a2ea1ca690612cbd908890600401615c15565b60206040518083038186803b158015612cd557600080fd5b505af4158015612ce9573d6000803e3d6000fd5b505050506040513d601f19601f82011682018060405250612d0d9190810190615438565b612d1657600080fd5b6000612d2385858561390d565b9050612dbc87600e60009054906101000a90046001600160a01b03166001600160a01b031663e47da3526040518163ffffffff1660e01b815260040160006040518083038186803b158015612d7757600080fd5b505afa158015612d8b573d6000803e3d6000fd5b505050506040513d6000823e601f3d908101601f19168201604052612db391908101906153d0565b88888886614867565b600e5460408051631e758dcf60e21b815290519298506001600160a01b039091169163b95ae1cd918a9184916379d6373c916004808301926020929190829003018186803b158015612e0d57600080fd5b505afa158015612e21573d6000803e3d6000fd5b505050506040513d601f19601f82011682018060405250612e459190810190615456565b898989876040518763ffffffff1660e01b8152600401612e6a969594939291906159f7565b600060405180830381600087803b158015612e8457600080fd5b505af1158015612e98573d6000803e3d6000fd5b505050507f462bde4a439059b7dfed3922e66013be9d01b4919fe50e06042b73e6c9b1f65787878787876040516110e7959493929190615a8d565b600d546001600160a01b031681565b612eea6141ff565b612ef357600080fd5b806001600160a01b038116612f0757600080fd5b6001600160a01b038116301415612f1d57600080fd5b6001546001600160a01b03838116911614612aa357600180546001600160a01b038481166001600160a01b03198316179092556040519116907f9f611b789425d0d5b90b920f1b2852907dd865c80074a30b1629aaa041d1812c90610c659083908690615907565b612f8d6141e9565b612f9657600080fd5b600e805460ff60a01b1916600160a01b1790556040517f9c567b65fe8caab5ec7bc979a498a1322c1d4baf01a30727cbca137187560ea290600090a1565b60118181548110612fe157fe5b6000918252602090912001546001600160a01b0316905081565b613009338686868686611cdd565b5050505050565b6001600160a01b031660009081526012602052604090205460ff1690565b60006130386141e9565b61304157600080fd5b816001600160a01b03811661305557600080fd5b6001600160a01b03831660009081526003602052604090205483901561307f5760009250506114a1565b600280546001810182557f405787fa12a823e0f2b7631cc41b3ba8828b3321ca811111fa75cd3aa3bb5ace0180546001600160a01b0319166001600160a01b038781169190911790915590549082166000908152600360205260409081902091909155517fdd62ff6d9c23793871e7d4796bde6c5dfb2bf8bcbd4186411cee3eb9f618952190613110908690615c23565b60405180910390a15060019392505050565b61312a6141e9565b61313357600080fd5b806001600160a01b03811661314757600080fd5b600f5482906001600160a01b03908116908216811461153857600f54600160a01b900460ff161561318a5760405162461bcd60e51b8152600401611be190615ca6565b600f80546001600160a01b038681166001600160a01b03198316179092556040519116907fa935cd13e8b6831b708081e1b4745e4a9574dc3aae730671c18d113a5497c90b9061107d9083908890615c31565b6131e56141e9565b6131ee57600080fd5b806001600160a01b03811661320257600080fd5b600d5482906001600160a01b03908116908216811461153857600d80546001600160a01b038681166001600160a01b03198316179092556040519116907fee9ef6d53e152e48b1ebc1c23943fb2b96e847465ed779a0e2121a388ea83d2f9061107d9083908890615c31565b60005461010090046001600160a01b031681565b60126020526000908152604090205460ff1681565b61329f6141e9565b6132a857600080fd5b6006805460ff19166001179055565b600c60205282600052604060002060205281600052604060002081815481106132dc57fe5b9060005260206000200160009250925050505481565b6010546001600160a01b031681565b60028181548110612fe157fe5b856133193382611b28565b61332257600080fd5b600061332f85858561390d565b905061338388600e60009054906101000a90046001600160a01b03166001600160a01b031663e47da3526040518163ffffffff1660e01b815260040160006040518083038186803b158015612d7757600080fd5b9550613393888888888888613eb5565b7f4c50864967876f6fcf5151a5e907d94d9c7b3d7780ca1c7f576680a2126ba39b888888888888604051611f4296959493929190615a2d565b6133d46141e9565b6133dd57600080fd5b806001600160a01b0381166133f157600080fd5b6001600160a01b03811630141561340757600080fd5b613412826000614818565b7fb619d545cb511bd5f02907a1eac4f4cb8dace7b1846852fb0bf5e553937481c182604051610d5c9190615762565b600085516000106134d757600e60009054906101000a90046001600160a01b03166001600160a01b031663ded113106040518163ffffffff1660e01b815260040160206040518083038186803b15801561349a57600080fd5b505afa1580156134ae573d6000803e3d6000fd5b505050506040513d601f19601f820116820180604052506134d29190810190615456565b6134ff565b856040516020016134e89190615756565b604051602081830303815290604052805190602001205b905080600e60009054906101000a90046001600160a01b03166001600160a01b03166379d6373c6040518163ffffffff1660e01b815260040160206040518083038186803b15801561355057600080fd5b505afa158015613564573d6000803e3d6000fd5b505050506040513d601f19601f820116820180604052506135889190810190615456565b141561367057600e5460408051631e758dcf60e21b815290516001600160a01b039092169163b95ae1cd918a9184916379d6373c916004808301926020929190829003018186803b1580156135dc57600080fd5b505afa1580156135f0573d6000803e3d6000fd5b505050506040513d601f19601f820116820180604052506136149190810190615456565b888888886040518763ffffffff1660e01b8152600401613639969594939291906159f7565b600060405180830381600087803b15801561365357600080fd5b505af1158015613667573d6000803e3d6000fd5b5050505061387d565b600e5460408051630ded113160e41b8152905183926001600160a01b03169163ded11310916004808301926020929190829003018186803b1580156136b457600080fd5b505afa1580156136c8573d6000803e3d6000fd5b505050506040513d601f19601f820116820180604052506136ec9190810190615456565b141561387857600e5460408051630ded113160e41b815290516001600160a01b039092169163b95ae1cd918a91849163ded11310916004808301926020929190829003018186803b15801561374057600080fd5b505afa158015613754573d6000803e3d6000fd5b505050506040513d601f19601f820116820180604052506137789190810190615456565b888888886040518763ffffffff1660e01b815260040161379d969594939291906159f7565b600060405180830381600087803b1580156137b757600080fd5b505af11580156137cb573d6000803e3d6000fd5b5050600f546040805163313004a960e01b815290516001600160a01b039092169350639cab96d692508a91849163313004a9916004808301926020929190829003018186803b15801561381d57600080fd5b505afa158015613831573d6000803e3d6000fd5b505050506040513d601f19601f820116820180604052506138559190810190615456565b8888886040518663ffffffff1660e01b81526004016136399594939291906159e9565b600080fd5b50505050505050565b6000816040516020016138999190615756565b604051602081830303815290604052805190602001209050919050565b6001600160a01b03821660009081526007602052604081205460ff166138dd576000610e1a565b506001600160a01b03918216600090815260086020908152604080832093909416825291909152205460ff161590565b60006001600160a01b038416158015613924575082155b80611cd55750613934848361475b565b6001600160a01b031663a89c2e5a6040518163ffffffff1660e01b815260040160206040518083038186803b15801561396c57600080fd5b505afa158015613980573d6000803e3d6000fd5b505050506040513d601f19601f82011682018060405250611cd59190810190615438565b60008115613b4357600e5460408051631e758dcf60e21b8152905173__SafeMathIntLib________________________9263755875b29289926001600160a01b03909216916371f4ec51918c9184916379d6373c916004808301926020929190829003018186803b158015613a1857600080fd5b505afa158015613a2c573d6000803e3d6000fd5b505050506040513d601f19601f82011682018060405250613a509190810190615456565b8a8a6040518563ffffffff1660e01b8152600401613a719493929190615999565b60206040518083038186803b158015613a8957600080fd5b505afa158015613a9d573d6000803e3d6000fd5b505050506040513d601f19601f82011682018060405250613ac19190810190615456565b6040518363ffffffff1660e01b8152600401613ade929190615c88565b60206040518083038186803b158015613af657600080fd5b505af4158015613b0a573d6000803e3d6000fd5b505050506040513d601f19601f82011682018060405250613b2e9190810190615456565b94508460001315613b3e57600080fd5b613c45565b600e5460408051631e758dcf60e21b815290516001600160a01b0390921691635962480691899184916379d6373c916004808301926020929190829003018186803b158015613b9157600080fd5b505afa158015613ba5573d6000803e3d6000fd5b505050506040513d601f19601f82011682018060405250613bc99190810190615456565b8888886040518663ffffffff1660e01b8152600401613bec9594939291906159e9565b60206040518083038186803b158015613c0457600080fd5b505afa158015613c18573d6000803e3d6000fd5b505050506040513d601f19601f82011682018060405250613c3c9190810190615438565b613c4557600080fd5b600e5460408051631e758dcf60e21b815290516001600160a01b0390921691637d7a23aa91899184916379d6373c916004808301926020929190829003018186803b158015613c9357600080fd5b505afa158015613ca7573d6000803e3d6000fd5b505050506040513d601f19601f82011682018060405250613ccb9190810190615456565b888888886040518763ffffffff1660e01b8152600401613cf0969594939291906159f7565b600060405180830381600087803b158015613d0a57600080fd5b505af1158015613d1e573d6000803e3d6000fd5b505050508490505b95945050505050565b6001600160a01b038316158015613d44575081155b15613d85576040516001600160a01b0386169085156108fc029086906000818181858888f19350505050158015613d7f573d6000803e3d6000fd5b50613009565b6000613d91848361475b565b90506000816001600160a01b0316826001600160a01b0316637228941f6040518163ffffffff1660e01b815260040160206040518083038186803b158015613dd857600080fd5b505afa158015613dec573d6000803e3d6000fd5b505050506040513d601f19601f82011682018060405250613e109190810190615474565b3089898989604051602401613e29959493929190615799565b60408051601f198184030181529181526020820180516001600160e01b03166001600160e01b0319909416939093179092529051613e679190615756565b600060405180830381855af49150503d8060008114613ea2576040519150601f19603f3d011682016040523d82523d6000602084013e613ea7565b606091505b505090508061387d57600080fd5b6040516351750e5360e11b815273__SafeMathIntLib________________________9063a2ea1ca690613eec908790600401615c15565b60206040518083038186803b158015613f0457600080fd5b505af4158015613f18573d6000803e3d6000fd5b505050506040513d601f19601f82011682018060405250613f3c9190810190615438565b613f4557600080fd5b613f4e85610d68565b613f5757600080fd5b6001600160a01b038316158015613f6c575081155b15613fd65760405163a7654a1f60e01b81526001600160a01b0386169063a7654a1f908690613f9f908a90600401615b73565b6000604051808303818588803b158015613fb857600080fd5b505af1158015613fcc573d6000803e3d6000fd5b50505050506141e1565b6000613fe2848361475b565b90506000816001600160a01b0316826001600160a01b0316631711a8946040518163ffffffff1660e01b815260040160206040518083038186803b15801561402957600080fd5b505afa15801561403d573d6000803e3d6000fd5b505050506040513d601f19601f820116820180604052506140619190810190615474565b888888886040516024016140789493929190615999565b60408051601f198184030181529181526020820180516001600160e01b03166001600160e01b03199094169390931790925290516140b69190615756565b600060405180830381855af49150503d80600081146140f1576040519150601f19603f3d011682016040523d82523d6000602084013e6140f6565b606091505b505090508061410457600080fd5b866001600160a01b0316635f28965189888888876001600160a01b0316635a3b7e426040518163ffffffff1660e01b815260040160006040518083038186803b15801561415057600080fd5b505afa158015614164573d6000803e3d6000fd5b505050506040513d6000823e601f3d908101601f1916820160405261418c9190810190615520565b6040518663ffffffff1660e01b81526004016141ac959493929190615b92565b600060405180830381600087803b1580156141c657600080fd5b505af11580156141da573d6000803e3d6000fd5b5050505050505b505050505050565b60005461010090046001600160a01b0316331490565b6001546001600160a01b0316331490565b601054604051630d04408560e01b81526000916001600160a01b031690630d04408590614247908890889088908890600401615915565b60206040518083038186803b15801561425f57600080fd5b505afa158015614273573d6000803e3d6000fd5b505050506040513d601f19601f820116820180604052506142979190810190615456565b9050600081136142a657600080fd5b61433c85600e60009054906101000a90046001600160a01b03166001600160a01b031663ec3aa67e6040518163ffffffff1660e01b815260040160006040518083038186803b1580156142f857600080fd5b505afa15801561430c573d6000803e3d6000fd5b505050506040513d6000823e601f3d908101601f1916820160405261433491908101906153d0565b83868661489a565b50600e5460408051631e758dcf60e21b815290516001600160a01b039092169163b95ae1cd91879184916379d6373c916004808301926020929190829003018186803b15801561438b57600080fd5b505afa15801561439f573d6000803e3d6000fd5b505050506040513d601f19601f820116820180604052506143c39190810190615456565b84878760016040518763ffffffff1660e01b81526004016143e9969594939291906159f7565b600060405180830381600087803b15801561440357600080fd5b505af1158015614417573d6000803e3d6000fd5b50505050600080516020615e0d833981519152858583868660405161107d959493929190615799565b601054604051639f45b2ab60e01b81526000916001600160a01b031690639f45b2ab90614477908890889088908890600401615915565b60206040518083038186803b15801561448f57600080fd5b505afa1580156144a3573d6000803e3d6000fd5b505050506040513d601f19601f820116820180604052506144c79190810190615456565b9050806000106144d657600080fd5b6010546040516374b7247560e11b81526060916001600160a01b03169063e96e48ea906145169089908990899089906000906000198b019060040161594a565b60006040518083038186803b15801561452e57600080fd5b505afa158015614542573d6000803e3d6000fd5b505050506040513d6000823e601f3d908101601f1916820160405261456a9190810190615404565b905060005b815181101561387d5761462187600e60009054906101000a90046001600160a01b03166001600160a01b031663ec3aa67e6040518163ffffffff1660e01b815260040160006040518083038186803b1580156145ca57600080fd5b505afa1580156145de573d6000803e3d6000fd5b505050506040513d6000823e601f3d908101601f1916820160405261460691908101906153d0565b84848151811061461257fe5b60200260200101518888614bf2565b50600e5460408051631e758dcf60e21b815290516001600160a01b039092169163b95ae1cd91899184916379d6373c916004808301926020929190829003018186803b15801561467057600080fd5b505afa158015614684573d6000803e3d6000fd5b505050506040513d601f19601f820116820180604052506146a89190810190615456565b8585815181106146b457fe5b6020026020010151898960006040518763ffffffff1660e01b81526004016146e1969594939291906159f7565b600060405180830381600087803b1580156146fb57600080fd5b505af115801561470f573d6000803e3d6000fd5b50505050600080516020615e0d833981519152878784848151811061473057fe5b6020026020010151888860405161474b959493929190615799565b60405180910390a160010161456f565b600d54604051630c8a483b60e41b81526000916001600160a01b03169063c8a483b09061478e9086908690600401615a9b565b60206040518083038186803b1580156147a657600080fd5b505afa1580156147ba573d6000803e3d6000fd5b505050506040513d601f19601f82011682018060405250610e1a91908101906154b0565b60008082121580156147f257508282840313155b806148095750600082128015614809575082828403135b61481257600080fd5b50900390565b6001600160a01b03821660009081526004602052604090205460ff16612aa3576001600160a01b0382166000908152600460205260409020805460ff1916600190811782554283019101555050565b600081156148835761487c878787878761489a565b9050614890565b61487c8787878787614bf2565b9695505050505050565b600083600013156148aa57600080fd5b6000805b865182101561497157600e548751614964916001600160a01b0316906371f4ec51908b908b90879081106148de57fe5b602002602001015189896040518563ffffffff1660e01b81526004016149079493929190615999565b60206040518083038186803b15801561491f57600080fd5b505afa158015614933573d6000803e3d6000fd5b505050506040513d601f19601f820116820180604052506149579190810190615456565b829063ffffffff614d4116565b60019092019190506148ae565b604051633aac3ad960e11b815273__SafeMathIntLib________________________9063755875b2906149aa9089908590600401615c88565b60206040518083038186803b1580156149c257600080fd5b505af41580156149d6573d6000803e3d6000fd5b505050506040513d601f19601f820116820180604052506149fa9190810190615456565b955060009150855b8751831015614be557600e5488516000916001600160a01b0316906371f4ec51908c908c9088908110614a3157fe5b60200260200101518a8a6040518563ffffffff1660e01b8152600401614a5a9493929190615999565b60206040518083038186803b158015614a7257600080fd5b505afa158015614a86573d6000803e3d6000fd5b505050506040513d601f19601f82011682018060405250614aaa9190810190615456565b9050818112614b3e57600e5489516001600160a01b0390911690637d7a23aa908c908c9088908110614ad857fe5b6020026020010151858b8b60016040518763ffffffff1660e01b8152600401614b06969594939291906159f7565b600060405180830381600087803b158015614b2057600080fd5b505af1158015614b34573d6000803e3d6000fd5b5050505050614be5565b600e5489516001600160a01b039091169063d062ec1d908c908c9088908110614b6357fe5b602002602001015160008b8b60016040518763ffffffff1660e01b8152600401614b9296959493929190615a05565b600060405180830381600087803b158015614bac57600080fd5b505af1158015614bc0573d6000803e3d6000fd5b50505050614bd781836147de90919063ffffffff16565b915050600190920191614a02565b5094979650505050505050565b6000805b8551811015614d3657600e5486516001600160a01b03909116906359624806908990899085908110614c2457fe5b60200260200101518888886040518663ffffffff1660e01b8152600401614c4f9594939291906159e9565b60206040518083038186803b158015614c6757600080fd5b505afa158015614c7b573d6000803e3d6000fd5b505050506040513d601f19601f82011682018060405250614c9f9190810190615438565b15614d2e57600e5486516001600160a01b0390911690637d7a23aa908990899085908110614cc957fe5b602002602001015188888860006040518763ffffffff1660e01b8152600401614cf7969594939291906159f7565b600060405180830381600087803b158015614d1157600080fd5b505af1158015614d25573d6000803e3d6000fd5b50505050614d36565b600101614bf6565b509295945050505050565b6000828201818312801590614d565750838112155b80614d6b5750600083128015614d6b57508381125b610e1a57600080fd5b815481835581811115614d9857600083815260209020614d98918101908301614d9d565b505050565b61154291905b80821115614db75760008155600101614da3565b5090565b803561112a81615dd1565b600082601f830112614dd757600080fd5b8151614dea614de582615cec565b615cc6565b91508181835260208401935060208101905083856020840282011115614e0f57600080fd5b60005b83811015614e3b5781614e258882614ecb565b8452506020928301929190910190600101614e12565b5050505092915050565b600082601f830112614e5657600080fd5b8151614e64614de582615cec565b91508181835260208401935060208101905083856020840282011115614e8957600080fd5b60005b83811015614e3b5781614e9f8882614ecb565b8452506020928301929190910190600101614e8c565b805161112a81615de8565b803561112a81615df1565b805161112a81615df1565b805161112a81615dfa565b803561112a81615e03565b805161112a81615e03565b600082601f830112614f0857600080fd5b8151614f16614de582615d0c565b91508082526020830160208301858383011115614f3257600080fd5b614f3d838284615d9b565b50505092915050565b600082601f830112614f5757600080fd5b8135614f65614de582615d0c565b91508082526020830160208301858383011115614f8157600080fd5b614f3d838284615d8f565b600060208284031215614f9e57600080fd5b6000611cd58484614dbb565b60008060408385031215614fbd57600080fd5b6000614fc98585614dbb565b9250506020614fda85828601614dbb565b9150509250929050565b600080600060608486031215614ff957600080fd5b60006150058686614dbb565b935050602061501686828701614dbb565b925050604061502786828701614ec0565b9150509250925092565b6000806000806080858703121561504757600080fd5b60006150538787614dbb565b945050602061506487828801614dbb565b935050604061507587828801614ec0565b92505060608501356001600160401b0381111561509157600080fd5b61509d87828801614f46565b91505092959194509250565b6000806000606084860312156150be57600080fd5b60006150ca8686614dbb565b93505060206150db86828701614ec0565b925050604061502786828701614dbb565b60008060008060008060c0878903121561510557600080fd5b60006151118989614dbb565b965050602061512289828a01614ee1565b955050604061513389828a01614ec0565b945050606061514489828a01614dbb565b935050608061515589828a01614ec0565b92505060a08701356001600160401b0381111561517157600080fd5b61517d89828a01614f46565b9150509295509295509295565b600080600080600060a086880312156151a257600080fd5b60006151ae8888614dbb565b95505060206151bf88828901614ec0565b94505060406151d088828901614dbb565b93505060606151e188828901614ec0565b92505060808601356001600160401b038111156151fd57600080fd5b61520988828901614f46565b9150509295509295909350565b60008060008060008060c0878903121561522f57600080fd5b600061523b8989614dbb565b965050602061524c89828a01614ec0565b955050604061525d89828a01614dbb565b945050606061526e89828a01614ec0565b93505060808701356001600160401b0381111561528a57600080fd5b61529689828a01614f46565b92505060a061517d89828a01614ec0565b600080604083850312156152ba57600080fd5b60006152c68585614dbb565b92505060208301356001600160401b038111156152e257600080fd5b614fda85828601614f46565b60008060006060848603121561530357600080fd5b600061530f8686614dbb565b93505060208401356001600160401b0381111561532b57600080fd5b6150db86828701614f46565b600080600080600060a0868803121561534f57600080fd5b600061535b8888614dbb565b95505060208601356001600160401b0381111561537757600080fd5b6151bf88828901614f46565b60008060008060008060c0878903121561539c57600080fd5b60006153a88989614dbb565b96505060208701356001600160401b038111156153c457600080fd5b61512289828a01614f46565b6000602082840312156153e257600080fd5b81516001600160401b038111156153f857600080fd5b611cd584828501614dc6565b60006020828403121561541657600080fd5b81516001600160401b0381111561542c57600080fd5b611cd584828501614e45565b60006020828403121561544a57600080fd5b6000611cd58484614eb5565b60006020828403121561546857600080fd5b6000611cd58484614ecb565b60006020828403121561548657600080fd5b6000611cd58484614ed6565b6000602082840312156154a457600080fd5b6000611cd58484614ee1565b6000602082840312156154c257600080fd5b6000611cd58484614eec565b600080600080608085870312156154e457600080fd5b60006150538787614ec0565b6000806040838503121561550357600080fd5b600061550f8585614ecb565b9250506020614fda85828601614ecb565b60006020828403121561553257600080fd5b81516001600160401b0381111561554857600080fd5b611cd584828501614ef7565b600080600080600060a0868803121561556c57600080fd5b85356001600160401b0381111561558257600080fd5b6151ae88828901614f46565b6000602082840312156155a057600080fd5b6000611cd58484614ec0565b6155b581615d79565b82525050565b6155b581615d45565b6155b581615d50565b6155b581611542565b60006155e182615d33565b6155eb8185615d37565b93506155fb818560208601615d9b565b9290920192915050565b6155b581615d62565b6155b581615d84565b600061562282615d33565b61562c8185615d3c565b935061563c818560208601615d9b565b61564581615dc7565b9093019392505050565b600061565c603083615d3c565b7f42616c616e636520747261636b65722066726f7a656e205b42616c616e63655481526f7261636b61626c652e736f6c3a34335d60801b602082015260400192915050565b60006156ae603883615d3c565b7f5472616e73616374696f6e20747261636b65722066726f7a656e205b5472616e81527773616374696f6e547261636b61626c652e736f6c3a34335d60401b602082015260400192915050565b600061112a600083615d3c565b6000615715602c83615d3c565b7f57616c6c6574206c6f636b65722066726f7a656e205b57616c6c65744c6f636b81526b61626c652e736f6c3a34335d60a01b602082015260400192915050565b6000610e1a82846155d6565b6020810161112a82846155bb565b6020810161112a82846155ac565b6040810161578c82856155ac565b610e1a60208301846155bb565b60a081016157a782886155bb565b6157b460208301876155bb565b6157c160408301866155cd565b6157ce60608301856155bb565b61489060808301846155cd565b606081016157e982866155ac565b6157f660208301856155bb565b8181036040830152613d268184615617565b6060810161581682866155ac565b61582360208301856155bb565b611cd560408301846155cd565b60a0810161583e82886155ac565b6157b460208301876155cd565b60c0810161585982896155ac565b61586660208301886155cd565b61587360408301876155cd565b61588060608301866155bb565b61588d60808301856155cd565b61589a60a08301846155c4565b979650505050505050565b60a081016158b382886155bb565b6157b46020830187615605565b60a081016158ce82886155ac565b6158db60208301876155cd565b6158e860408301866155bb565b6158f560608301856155cd565b818103608083015261589a8184615617565b6040810161578c82856155bb565b6080810161592382876155bb565b61593060208301866155bb565b61593d60408301856155bb565b613d2660608301846155cd565b60c0810161595882896155bb565b61596560208301886155bb565b61597260408301876155bb565b61597f60608301866155cd565b61598c608083018561560e565b61589a60a08301846155cd565b608081016159a782876155bb565b61593060208301866155cd565b60a081016159c282886155bb565b6159cf60208301876155cd565b6159dc60408301866155bb565b6157ce60608301856155cd565b60a0810161583e82886155bb565b60c0810161585982896155bb565b60c08101615a1382896155bb565b615a2060208301886155cd565b615873604083018761560e565b60c08101615a3b82896155bb565b615a486020830188615605565b615a5560408301876155cd565b615a6260608301866155bb565b615a6f60808301856155cd565b81810360a0830152615a818184615617565b98975050505050505050565b60a081016158ce82886155bb565b60408101615aa982856155bb565b8181036020830152611cd58184615617565b60a08101615ac982886155bb565b8181036020830152615adb8187615617565b90506158e860408301866155bb565b60c08101615af882886155bb565b8181036020830152615b0a8187615617565b9050615b1960408301866155cd565b615b2660608301856155ac565b615b33608083018461560e565b81810360a083015261589a816156fb565b60c08101615b5282896155bb565b8181036020830152615b648188615617565b9050615a5560408301876155cd565b60408101615b8182846155bb565b8181036020830152610e1a816156fb565b60c08101615ba082886155bb565b8181036020830152615bb1816156fb565b9050615bc060408301876155cd565b615bcd60608301866155bb565b615bda60808301856155cd565b81810360a083015261589a8184615617565b60408101615bfa82856155bb565b610e1a60208301846155cd565b6020810161112a82846155c4565b6020810161112a82846155cd565b6020810161112a8284615605565b60408101615c3f8285615605565b610e1a6020830184615605565b60c08101615c5a8289615605565b615c6760208301886155bb565b8181036040830152615c798187615617565b9050615a6260608301866155bb565b60408101615bfa82856155cd565b6020808252810161112a8161564f565b6020808252810161112a816156a1565b6020808252810161112a81615708565b6040518181016001600160401b0381118282101715615ce457600080fd5b604052919050565b60006001600160401b03821115615d0257600080fd5b5060209081020190565b60006001600160401b03821115615d2257600080fd5b506020601f91909101601f19160190565b5190565b919050565b90815260200190565b600061112a82615d6d565b151590565b6001600160e01b03191690565b600061112a82615d45565b6001600160a01b031690565b600061112a82615d62565b600061112a82611542565b82818337506000910152565b60005b83811015615db6578181015183820152602001615d9e565b838111156115385750506000910152565b601f01601f191690565b615dda81615d45565b8114615de557600080fd5b50565b615dda81615d50565b615dda81611542565b615dda81615d55565b615dda81615d6256fe7c750f44230ed3db46106f40b3f7c4707c7814035e69e09d43699ccbe46b1061b1054d4e81cc81e966ba33c7ce386432dcf8d4d78798e7a1f7f0b4aaef360330a365627a7a72315820e774563105ee13376c33d9d75f53979bf4b7d8d808485d4fa8fa7697691836ad6c6578706572696d656e74616cf564736f6c634300050c0040",
  "source": "/*\n * Hubii Nahmii\n *\n * Compliant with the Hubii Nahmii specification v0.12.\n *\n * Copyright (C) 2017-2018 Hubii AS\n */\n\npragma solidity >=0.4.25 <0.6.0;\npragma experimental ABIEncoderV2;\n\nimport {Ownable} from \"./Ownable.sol\";\nimport {Beneficiary} from \"./Beneficiary.sol\";\nimport {Benefactor} from \"./Benefactor.sol\";\nimport {AuthorizableServable} from \"./AuthorizableServable.sol\";\nimport {TransferControllerManageable} from \"./TransferControllerManageable.sol\";\nimport {BalanceTrackable} from \"./BalanceTrackable.sol\";\nimport {TransactionTrackable} from \"./TransactionTrackable.sol\";\nimport {WalletLockable} from \"./WalletLockable.sol\";\nimport {TransferController} from \"./TransferController.sol\";\nimport {SafeMathIntLib} from \"./SafeMathIntLib.sol\";\nimport {TokenHolderRevenueFund} from \"./TokenHolderRevenueFund.sol\";\n\n/**\n * @title Client fund\n * @notice Where clients crypto is deposited into, staged and withdrawn from.\n */\ncontract ClientFund is Ownable, Beneficiary, Benefactor, AuthorizableServable, TransferControllerManageable,\nBalanceTrackable, TransactionTrackable, WalletLockable {\n    using SafeMathIntLib for int256;\n\n    address[] public seizedWallets;\n    mapping(address => bool) public seizedByWallet;\n\n    TokenHolderRevenueFund public tokenHolderRevenueFund;\n\n    //\n    // Events\n    // -----------------------------------------------------------------------------------------------------------------\n    event SetTokenHolderRevenueFundEvent(TokenHolderRevenueFund oldTokenHolderRevenueFund,\n        TokenHolderRevenueFund newTokenHolderRevenueFund);\n    event ReceiveEvent(address wallet, string balanceType, int256 value, address currencyCt,\n        uint256 currencyId, string standard);\n    event WithdrawEvent(address wallet, int256 value, address currencyCt, uint256 currencyId,\n        string standard);\n    event StageEvent(address wallet, int256 value, address currencyCt, uint256 currencyId,\n        string standard);\n    event UnstageEvent(address wallet, int256 value, address currencyCt, uint256 currencyId,\n        string standard);\n    event UpdateSettledBalanceEvent(address wallet, int256 value, address currencyCt,\n        uint256 currencyId);\n    event StageToBeneficiaryEvent(address sourceWallet, Beneficiary beneficiary, int256 value,\n        address currencyCt, uint256 currencyId, string standard);\n    event TransferToBeneficiaryEvent(address wallet, Beneficiary beneficiary, int256 value,\n        address currencyCt, uint256 currencyId, string standard);\n    event SeizeBalancesEvent(address seizedWallet, address seizerWallet, int256 value,\n        address currencyCt, uint256 currencyId);\n    event ClaimRevenueEvent(address claimer, string balanceType, address currencyCt,\n        uint256 currencyId, string standard);\n\n    //\n    // Constructor\n    // -----------------------------------------------------------------------------------------------------------------\n    constructor(address deployer) Ownable(deployer) Beneficiary() Benefactor()\n    public\n    {\n        serviceActivationTimeout = 1 weeks;\n    }\n\n    //\n    // Functions\n    // -----------------------------------------------------------------------------------------------------------------\n    /// @notice Set the token holder revenue fund contract\n    /// @param newTokenHolderRevenueFund The (address of) TokenHolderRevenueFund contract instance\n    function setTokenHolderRevenueFund(TokenHolderRevenueFund newTokenHolderRevenueFund)\n    public\n    onlyDeployer\n    notNullAddress(address(newTokenHolderRevenueFund))\n    notSameAddresses(address(newTokenHolderRevenueFund), address(tokenHolderRevenueFund))\n    {\n        // Set new token holder revenue fund\n        TokenHolderRevenueFund oldTokenHolderRevenueFund = tokenHolderRevenueFund;\n        tokenHolderRevenueFund = newTokenHolderRevenueFund;\n\n        // Emit event\n        emit SetTokenHolderRevenueFundEvent(oldTokenHolderRevenueFund, newTokenHolderRevenueFund);\n    }\n\n    /// @notice Fallback function that deposits ethers to msg.sender's deposited balance\n    function()\n    external\n    payable\n    {\n        receiveEthersTo(msg.sender, balanceTracker.DEPOSITED_BALANCE_TYPE());\n    }\n\n    /// @notice Receive ethers to the given wallet's balance of the given type\n    /// @param wallet The address of the concerned wallet\n    /// @param balanceType The target balance type\n    function receiveEthersTo(address wallet, string memory balanceType)\n    public\n    payable\n    {\n        int256 value = SafeMathIntLib.toNonZeroInt256(msg.value);\n\n        // Register reception\n        _receiveTo(wallet, balanceType, value, address(0), 0, true);\n\n        // Emit event\n        emit ReceiveEvent(wallet, balanceType, value, address(0), 0, \"\");\n    }\n\n    /// @notice Receive token to msg.sender's balance of the given type\n    /// @dev The wallet must approve of this ClientFund's transfer prior to calling this function\n    /// @param balanceType The target balance type\n    /// @param value The value (amount of fungible, id of non-fungible) to receive\n    /// @param currencyCt The address of the concerned currency contract (address(0) == ETH)\n    /// @param currencyId The ID of the concerned currency (0 for ETH and ERC20)\n    /// @param standard The standard of the token (\"\" for default registered, \"ERC20\", \"ERC721\")\n    function receiveTokens(string memory balanceType, int256 value, address currencyCt,\n        uint256 currencyId, string memory standard)\n    public\n    {\n        receiveTokensTo(msg.sender, balanceType, value, currencyCt, currencyId, standard);\n    }\n\n    /// @notice Receive token to the given wallet's balance of the given type\n    /// @dev The wallet must approve of this ClientFund's transfer prior to calling this function\n    /// @param wallet The address of the concerned wallet\n    /// @param balanceType The target balance type\n    /// @param value The value (amount of fungible, id of non-fungible) to receive\n    /// @param currencyCt The address of the concerned currency contract (address(0) == ETH)\n    /// @param currencyId The ID of the concerned currency (0 for ETH and ERC20)\n    function receiveTokensTo(address wallet, string memory balanceType, int256 value, address currencyCt,\n        uint256 currencyId, string memory standard)\n    public\n    {\n        require(value.isNonZeroPositiveInt256());\n\n        // Get transfer controller\n        TransferController controller = transferController(currencyCt, standard);\n\n        // Execute transfer\n        (bool success,) = address(controller).delegatecall(\n            abi.encodeWithSelector(\n                controller.getReceiveSignature(), msg.sender, this, uint256(value), currencyCt, currencyId\n            )\n        );\n        require(success);\n\n        // Register reception\n        _receiveTo(wallet, balanceType, value, currencyCt, currencyId, controller.isFungible());\n\n        // Emit event\n        emit ReceiveEvent(wallet, balanceType, value, currencyCt, currencyId, standard);\n    }\n\n    /// @notice Update the settled balance by the difference between provided off-chain balance amount\n    /// and deposited on-chain balance, where deposited balance is resolved at the given block number\n    /// @param wallet The address of the concerned wallet\n    /// @param value The target balance value (amount of fungible, id of non-fungible), i.e. off-chain balance\n    /// @param currencyCt The address of the concerned currency contract (address(0) == ETH)\n    /// @param currencyId The ID of the concerned currency (0 for ETH and ERC20)\n    /// @param standard The standard of the token (\"\" for default registered, \"ERC20\", \"ERC721\")\n    /// @param blockNumber The block number to which the settled balance is updated\n    function updateSettledBalance(address wallet, int256 value, address currencyCt, uint256 currencyId,\n        string memory standard, uint256 blockNumber)\n    public\n    onlyAuthorizedService(wallet)\n    notNullAddress(wallet)\n    {\n        require(value.isPositiveInt256());\n\n        if (_isFungible(currencyCt, currencyId, standard)) {\n            (int256 depositedValue,) = balanceTracker.fungibleRecordByBlockNumber(\n                wallet, balanceTracker.depositedBalanceType(), currencyCt, currencyId, blockNumber\n            );\n            balanceTracker.set(\n                wallet, balanceTracker.settledBalanceType(), value.sub(depositedValue),\n                currencyCt, currencyId, true\n            );\n\n        } else {\n            balanceTracker.sub(\n                wallet, balanceTracker.depositedBalanceType(), value, currencyCt, currencyId, false\n            );\n            balanceTracker.add(\n                wallet, balanceTracker.settledBalanceType(), value, currencyCt, currencyId, false\n            );\n        }\n\n        // Emit event\n        emit UpdateSettledBalanceEvent(wallet, value, currencyCt, currencyId);\n    }\n\n    /// @notice Stage a value for subsequent withdrawal\n    /// @param wallet The address of the concerned wallet\n    /// @param value The value (amount of fungible, id of non-fungible) to deposit\n    /// @param currencyCt The address of the concerned currency contract (address(0) == ETH)\n    /// @param currencyId The ID of the concerned currency (0 for ETH and ERC20)\n    /// @param standard The standard of the token (\"\" for default registered, \"ERC20\", \"ERC721\")\n    function stage(address wallet, int256 value, address currencyCt, uint256 currencyId,\n        string memory standard)\n    public\n    onlyAuthorizedService(wallet)\n    {\n        require(value.isNonZeroPositiveInt256());\n\n        // Deduce fungibility\n        bool fungible = _isFungible(currencyCt, currencyId, standard);\n\n        // Subtract stage value from settled, possibly also from deposited\n        value = _subtractSequentially(wallet, balanceTracker.activeBalanceTypes(), value, currencyCt, currencyId, fungible);\n\n        // Add to staged\n        balanceTracker.add(\n            wallet, balanceTracker.stagedBalanceType(), value, currencyCt, currencyId, fungible\n        );\n\n        // Emit event\n        emit StageEvent(wallet, value, currencyCt, currencyId, standard);\n    }\n\n    /// @notice Unstage a staged value\n    /// @param value The value (amount of fungible, id of non-fungible) to deposit\n    /// @param currencyCt The address of the concerned currency contract (address(0) == ETH)\n    /// @param currencyId The ID of the concerned currency (0 for ETH and ERC20)\n    /// @param standard The standard of the token (\"\" for default registered, \"ERC20\", \"ERC721\")\n    function unstage(int256 value, address currencyCt, uint256 currencyId, string memory standard)\n    public\n    {\n        require(value.isNonZeroPositiveInt256());\n\n        // Deduce fungibility\n        bool fungible = _isFungible(currencyCt, currencyId, standard);\n\n        // Subtract unstage value from staged\n        value = _subtractFromStaged(msg.sender, value, currencyCt, currencyId, fungible);\n\n        // Add to deposited\n        balanceTracker.add(\n            msg.sender, balanceTracker.depositedBalanceType(), value, currencyCt, currencyId, fungible\n        );\n\n        // Emit event\n        emit UnstageEvent(msg.sender, value, currencyCt, currencyId, standard);\n    }\n\n    /// @notice Stage the value from wallet to the given beneficiary and targeted to wallet\n    /// @param wallet The address of the concerned wallet\n    /// @param beneficiary The (address of) concerned beneficiary contract\n    /// @param value The value (amount of fungible, id of non-fungible) to stage\n    /// @param currencyCt The address of the concerned currency contract (address(0) == ETH)\n    /// @param currencyId The ID of the concerned currency (0 for ETH and ERC20)\n    /// @param standard The standard of the token (\"\" for default registered, \"ERC20\", \"ERC721\")\n    function stageToBeneficiary(address wallet, Beneficiary beneficiary, int256 value,\n        address currencyCt, uint256 currencyId, string memory standard)\n    public\n    onlyAuthorizedService(wallet)\n    {\n        // Deduce fungibility\n        bool fungible = _isFungible(currencyCt, currencyId, standard);\n\n        // Subtract stage value from settled, possibly also from deposited\n        value = _subtractSequentially(wallet, balanceTracker.activeBalanceTypes(), value, currencyCt, currencyId, fungible);\n\n        // Execute transfer\n        _transferToBeneficiary(wallet, beneficiary, value, currencyCt, currencyId, standard);\n\n        // Emit event\n        emit StageToBeneficiaryEvent(wallet, beneficiary, value, currencyCt, currencyId, standard);\n    }\n\n    /// @notice Transfer the given value of currency to the given beneficiary without target wallet\n    /// @param wallet The address of the concerned wallet\n    /// @param beneficiary The (address of) concerned beneficiary contract\n    /// @param value The value (amount of fungible, id of non-fungible) to transfer\n    /// @param currencyCt The address of the concerned currency contract (address(0) == ETH)\n    /// @param currencyId The ID of the concerned currency (0 for ETH and ERC20)\n    /// @param standard The standard of the token (\"\" for default registered, \"ERC20\", \"ERC721\")\n    function transferToBeneficiary(address wallet, Beneficiary beneficiary, int256 value,\n        address currencyCt, uint256 currencyId, string memory standard)\n    public\n    onlyAuthorizedService(wallet)\n    {\n        // Execute transfer\n        _transferToBeneficiary(wallet, beneficiary, value, currencyCt, currencyId, standard);\n\n        // Emit event\n        emit TransferToBeneficiaryEvent(wallet, beneficiary, value, currencyCt, currencyId, standard);\n    }\n\n    /// @notice Seize balances in the given currency of the given wallet, provided that the wallet\n    /// is locked by the caller\n    /// @param wallet The address of the concerned wallet whose balances are seized\n    /// @param currencyCt The address of the concerned currency contract (address(0) == ETH)\n    /// @param currencyId The ID of the concerned currency (0 for ETH and ERC20)\n    /// @param standard The standard of the token (\"\" for default registered, \"ERC20\", \"ERC721\")\n    function seizeBalances(address wallet, address currencyCt, uint256 currencyId, string memory standard)\n    public\n    {\n        if (_isFungible(currencyCt, currencyId, standard))\n            _seizeFungibleBalances(wallet, msg.sender, currencyCt, currencyId);\n\n        else\n            _seizeNonFungibleBalances(wallet, msg.sender, currencyCt, currencyId);\n\n        // Add to the store of seized wallets\n        if (!seizedByWallet[wallet]) {\n            seizedByWallet[wallet] = true;\n            seizedWallets.push(wallet);\n        }\n    }\n\n    /// @notice Withdraw the given amount from staged balance\n    /// @param value The value (amount of fungible, id of non-fungible) to withdraw\n    /// @param currencyCt The address of the concerned currency contract (address(0) == ETH)\n    /// @param currencyId The ID of the concerned currency (0 for ETH and ERC20)\n    /// @param standard The standard of the token (\"\" for default registered, \"ERC20\", \"ERC721\")\n    function withdraw(int256 value, address currencyCt, uint256 currencyId, string memory standard)\n    public\n    {\n        require(value.isNonZeroPositiveInt256());\n\n        // Require that msg.sender and currency is not locked\n        require(!walletLocker.isLocked(msg.sender, currencyCt, currencyId));\n\n        // Deduce fungibility\n        bool fungible = _isFungible(currencyCt, currencyId, standard);\n\n        // Subtract unstage value from staged\n        value = _subtractFromStaged(msg.sender, value, currencyCt, currencyId, fungible);\n\n        // Log record of this transaction\n        transactionTracker.add(\n            msg.sender, transactionTracker.withdrawalTransactionType(), value, currencyCt, currencyId\n        );\n\n        // Execute transfer\n        _transferToWallet(msg.sender, value, currencyCt, currencyId, standard);\n\n        // Emit event\n        emit WithdrawEvent(msg.sender, value, currencyCt, currencyId, standard);\n    }\n\n    /// @notice Get the seized status of given wallet\n    /// @param wallet The address of the concerned wallet\n    /// @return true if wallet is seized, false otherwise\n    function isSeizedWallet(address wallet)\n    public\n    view\n    returns (bool)\n    {\n        return seizedByWallet[wallet];\n    }\n\n    /// @notice Get the number of wallets whose funds have been seized\n    /// @return Number of wallets\n    function seizedWalletsCount()\n    public\n    view\n    returns (uint256)\n    {\n        return seizedWallets.length;\n    }\n\n    /// @notice Claim revenue from token holder revenue fund based on this contract's holdings of the\n    /// revenue token, this so that revenue may be shared amongst revenue token holders in nahmii\n    /// @param claimer The concerned address of claimer that will subsequently distribute revenue in nahmii\n    /// @param balanceType The target balance type for the reception in this contract\n    /// @param currencyCt The address of the concerned currency contract (address(0) == ETH)\n    /// @param currencyId The ID of the concerned currency (0 for ETH and ERC20)\n    /// @param standard The standard of the token (\"\" for default registered, \"ERC20\", \"ERC721\")\n    function claimRevenue(address claimer, string memory balanceType, address currencyCt,\n        uint256 currencyId, string memory standard)\n    public\n    onlyOperator\n    {\n        tokenHolderRevenueFund.claimAndTransferToBeneficiary(\n            this, claimer, balanceType,\n            currencyCt, currencyId, standard\n        );\n\n        emit ClaimRevenueEvent(claimer, balanceType, currencyCt, currencyId, standard);\n    }\n\n    //\n    // Private functions\n    // -----------------------------------------------------------------------------------------------------------------\n    function _receiveTo(address wallet, string memory balanceType, int256 value, address currencyCt,\n        uint256 currencyId, bool fungible)\n    private\n    {\n        bytes32 balanceHash = 0 < bytes(balanceType).length ?\n        keccak256(abi.encodePacked(balanceType)) :\n        balanceTracker.depositedBalanceType();\n\n        // Add to per-wallet staged balance\n        if (balanceTracker.stagedBalanceType() == balanceHash)\n            balanceTracker.add(\n                wallet, balanceTracker.stagedBalanceType(), value, currencyCt, currencyId, fungible\n            );\n\n        // Add to per-wallet deposited balance\n        else if (balanceTracker.depositedBalanceType() == balanceHash) {\n            balanceTracker.add(\n                wallet, balanceTracker.depositedBalanceType(), value, currencyCt, currencyId, fungible\n            );\n\n            // Log record of this transaction\n            transactionTracker.add(\n                wallet, transactionTracker.depositTransactionType(), value, currencyCt, currencyId\n            );\n        }\n\n        else\n            revert();\n    }\n\n    function _subtractSequentially(address wallet, bytes32[] memory balanceTypes, int256 value, address currencyCt,\n        uint256 currencyId, bool fungible)\n    private\n    returns (int256)\n    {\n        if (fungible)\n            return _subtractFungibleSequentially(wallet, balanceTypes, value, currencyCt, currencyId);\n        else\n            return _subtractNonFungibleSequentially(wallet, balanceTypes, value, currencyCt, currencyId);\n    }\n\n    function _subtractFungibleSequentially(address wallet, bytes32[] memory balanceTypes, int256 amount, address currencyCt, uint256 currencyId)\n    private\n    returns (int256)\n    {\n        // Require positive amount\n        require(0 <= amount);\n\n        uint256 i;\n        int256 totalBalanceAmount = 0;\n        for (i = 0; i < balanceTypes.length; i++)\n            totalBalanceAmount = totalBalanceAmount.add(\n                balanceTracker.get(\n                    wallet, balanceTypes[i], currencyCt, currencyId\n                )\n            );\n\n        // Clamp amount to stage\n        amount = amount.clampMax(totalBalanceAmount);\n\n        int256 _amount = amount;\n        for (i = 0; i < balanceTypes.length; i++) {\n            int256 typeAmount = balanceTracker.get(\n                wallet, balanceTypes[i], currencyCt, currencyId\n            );\n\n            if (typeAmount >= _amount) {\n                balanceTracker.sub(\n                    wallet, balanceTypes[i], _amount, currencyCt, currencyId, true\n                );\n                break;\n\n            } else {\n                balanceTracker.set(\n                    wallet, balanceTypes[i], 0, currencyCt, currencyId, true\n                );\n                _amount = _amount.sub(typeAmount);\n            }\n        }\n\n        return amount;\n    }\n\n    function _subtractNonFungibleSequentially(address wallet, bytes32[] memory balanceTypes, int256 id, address currencyCt, uint256 currencyId)\n    private\n    returns (int256)\n    {\n        for (uint256 i = 0; i < balanceTypes.length; i++)\n            if (balanceTracker.hasId(wallet, balanceTypes[i], id, currencyCt, currencyId)) {\n                balanceTracker.sub(wallet, balanceTypes[i], id, currencyCt, currencyId, false);\n                break;\n            }\n\n        return id;\n    }\n\n    function _subtractFromStaged(address wallet, int256 value, address currencyCt, uint256 currencyId, bool fungible)\n    private\n    returns (int256)\n    {\n        if (fungible) {\n            // Clamp value to unstage\n            value = value.clampMax(\n                balanceTracker.get(wallet, balanceTracker.stagedBalanceType(), currencyCt, currencyId)\n            );\n\n            // Require positive value\n            require(0 <= value);\n\n        } else {\n            // Require that value is included in staged balance\n            require(balanceTracker.hasId(wallet, balanceTracker.stagedBalanceType(), value, currencyCt, currencyId));\n        }\n\n        // Subtract from deposited balance\n        balanceTracker.sub(wallet, balanceTracker.stagedBalanceType(), value, currencyCt, currencyId, fungible);\n\n        return value;\n    }\n\n    function _transferToBeneficiary(address destWallet, Beneficiary beneficiary,\n        int256 value, address currencyCt, uint256 currencyId, string memory standard)\n    private\n    {\n        require(value.isNonZeroPositiveInt256());\n        require(isRegisteredBeneficiary(beneficiary));\n\n        // Transfer funds to the beneficiary\n        if (address(0) == currencyCt && 0 == currencyId)\n            beneficiary.receiveEthersTo.value(uint256(value))(destWallet, \"\");\n\n        else {\n            // Get transfer controller\n            TransferController controller = transferController(currencyCt, standard);\n\n            // Approve of beneficiary\n            (bool success,) = address(controller).delegatecall(\n                abi.encodeWithSelector(\n                    controller.getApproveSignature(), address(beneficiary), uint256(value), currencyCt, currencyId\n                )\n            );\n            require(success);\n\n            // Transfer funds to the beneficiary\n            beneficiary.receiveTokensTo(destWallet, \"\", value, currencyCt, currencyId, controller.standard());\n        }\n    }\n\n    function _transferToWallet(address payable wallet,\n        int256 value, address currencyCt, uint256 currencyId, string memory standard)\n    private\n    {\n        // Transfer ETH\n        if (address(0) == currencyCt && 0 == currencyId)\n            wallet.transfer(uint256(value));\n\n        else {\n            // Get transfer controller\n            TransferController controller = transferController(currencyCt, standard);\n\n            // Transfer token\n            (bool success,) = address(controller).delegatecall(\n                abi.encodeWithSelector(\n                    controller.getDispatchSignature(), address(this), wallet, uint256(value), currencyCt, currencyId\n                )\n            );\n            require(success);\n        }\n    }\n\n    function _seizeFungibleBalances(address lockedWallet, address lockerWallet, address currencyCt,\n        uint256 currencyId)\n    private\n    {\n        // Get the locked amount\n        int256 amount = walletLocker.lockedAmount(lockedWallet, lockerWallet, currencyCt, currencyId);\n\n        // Require that locked amount is strictly positive\n        require(amount > 0);\n\n        // Subtract stage value from settled, possibly also from deposited\n        _subtractFungibleSequentially(lockedWallet, balanceTracker.allBalanceTypes(), amount, currencyCt, currencyId);\n\n        // Add to staged balance of sender\n        balanceTracker.add(\n            lockerWallet, balanceTracker.stagedBalanceType(), amount, currencyCt, currencyId, true\n        );\n\n        // Emit event\n        emit SeizeBalancesEvent(lockedWallet, lockerWallet, amount, currencyCt, currencyId);\n    }\n\n    function _seizeNonFungibleBalances(address lockedWallet, address lockerWallet, address currencyCt,\n        uint256 currencyId)\n    private\n    {\n        // Require that locked ids has entries\n        uint256 lockedIdsCount = walletLocker.lockedIdsCount(lockedWallet, lockerWallet, currencyCt, currencyId);\n        require(0 < lockedIdsCount);\n\n        // Get the locked amount\n        int256[] memory ids = walletLocker.lockedIdsByIndices(\n            lockedWallet, lockerWallet, currencyCt, currencyId, 0, lockedIdsCount - 1\n        );\n\n        for (uint256 i = 0; i < ids.length; i++) {\n            // Subtract from settled, possibly also from deposited\n            _subtractNonFungibleSequentially(lockedWallet, balanceTracker.allBalanceTypes(), ids[i], currencyCt, currencyId);\n\n            // Add to staged balance of sender\n            balanceTracker.add(\n                lockerWallet, balanceTracker.stagedBalanceType(), ids[i], currencyCt, currencyId, false\n            );\n\n            // Emit event\n            emit SeizeBalancesEvent(lockedWallet, lockerWallet, ids[i], currencyCt, currencyId);\n        }\n    }\n\n    function _isFungible(address currencyCt, uint256 currencyId, string memory standard)\n    private\n    view\n    returns (bool)\n    {\n        return (address(0) == currencyCt && 0 == currencyId) || transferController(currencyCt, standard).isFungible();\n    }\n}\n",
  "sourcePath": "/opt/buildagent/work/855e104608380c36/contracts/ClientFund.sol",
  "compiler": {
    "name": "solc",
    "version": "0.5.12+commit.7709ece9.Emscripten.clang"
  },
  "schemaVersion": "2.0.3",
  "updatedAt": "2019-10-23T00:21:40.590Z"
}