{
  "contractName": "CommunityVote",
  "abi": [
    {
      "inputs": [
        {
          "internalType": "address",
          "name": "deployer",
          "type": "address"
        }
      ],
      "payable": false,
      "stateMutability": "nonpayable",
      "type": "constructor"
    },
    {
      "anonymous": false,
      "inputs": [
        {
          "indexed": false,
          "internalType": "address",
          "name": "wallet",
          "type": "address"
        }
      ],
      "name": "SelfDestructionDisabledEvent",
      "type": "event"
    },
    {
      "anonymous": false,
      "inputs": [
        {
          "indexed": false,
          "internalType": "address",
          "name": "oldDeployer",
          "type": "address"
        },
        {
          "indexed": false,
          "internalType": "address",
          "name": "newDeployer",
          "type": "address"
        }
      ],
      "name": "SetDeployerEvent",
      "type": "event"
    },
    {
      "anonymous": false,
      "inputs": [
        {
          "indexed": false,
          "internalType": "address",
          "name": "oldOperator",
          "type": "address"
        },
        {
          "indexed": false,
          "internalType": "address",
          "name": "newOperator",
          "type": "address"
        }
      ],
      "name": "SetOperatorEvent",
      "type": "event"
    },
    {
      "anonymous": false,
      "inputs": [
        {
          "indexed": false,
          "internalType": "address",
          "name": "wallet",
          "type": "address"
        }
      ],
      "name": "TriggerSelfDestructionEvent",
      "type": "event"
    },
    {
      "constant": true,
      "inputs": [],
      "name": "deployer",
      "outputs": [
        {
          "internalType": "address",
          "name": "",
          "type": "address"
        }
      ],
      "payable": false,
      "stateMutability": "view",
      "type": "function"
    },
    {
      "constant": true,
      "inputs": [],
      "name": "destructor",
      "outputs": [
        {
          "internalType": "address",
          "name": "",
          "type": "address"
        }
      ],
      "payable": false,
      "stateMutability": "view",
      "type": "function"
    },
    {
      "constant": false,
      "inputs": [],
      "name": "disableSelfDestruction",
      "outputs": [],
      "payable": false,
      "stateMutability": "nonpayable",
      "type": "function"
    },
    {
      "constant": true,
      "inputs": [],
      "name": "operator",
      "outputs": [
        {
          "internalType": "address",
          "name": "",
          "type": "address"
        }
      ],
      "payable": false,
      "stateMutability": "view",
      "type": "function"
    },
    {
      "constant": true,
      "inputs": [],
      "name": "selfDestructionDisabled",
      "outputs": [
        {
          "internalType": "bool",
          "name": "",
          "type": "bool"
        }
      ],
      "payable": false,
      "stateMutability": "view",
      "type": "function"
    },
    {
      "constant": false,
      "inputs": [
        {
          "internalType": "address",
          "name": "newDeployer",
          "type": "address"
        }
      ],
      "name": "setDeployer",
      "outputs": [],
      "payable": false,
      "stateMutability": "nonpayable",
      "type": "function"
    },
    {
      "constant": false,
      "inputs": [
        {
          "internalType": "address",
          "name": "newOperator",
          "type": "address"
        }
      ],
      "name": "setOperator",
      "outputs": [],
      "payable": false,
      "stateMutability": "nonpayable",
      "type": "function"
    },
    {
      "constant": false,
      "inputs": [],
      "name": "triggerSelfDestruction",
      "outputs": [],
      "payable": false,
      "stateMutability": "nonpayable",
      "type": "function"
    },
    {
      "constant": true,
      "inputs": [
        {
          "internalType": "address",
          "name": "wallet",
          "type": "address"
        }
      ],
      "name": "isDoubleSpenderWallet",
      "outputs": [
        {
          "internalType": "bool",
          "name": "",
          "type": "bool"
        }
      ],
      "payable": false,
      "stateMutability": "view",
      "type": "function"
    },
    {
      "constant": true,
      "inputs": [],
      "name": "getMaxDriipNonce",
      "outputs": [
        {
          "internalType": "uint256",
          "name": "",
          "type": "uint256"
        }
      ],
      "payable": false,
      "stateMutability": "view",
      "type": "function"
    },
    {
      "constant": true,
      "inputs": [],
      "name": "getMaxNullNonce",
      "outputs": [
        {
          "internalType": "uint256",
          "name": "",
          "type": "uint256"
        }
      ],
      "payable": false,
      "stateMutability": "view",
      "type": "function"
    },
    {
      "constant": true,
      "inputs": [],
      "name": "isDataAvailable",
      "outputs": [
        {
          "internalType": "bool",
          "name": "",
          "type": "bool"
        }
      ],
      "payable": false,
      "stateMutability": "view",
      "type": "function"
    }
  ],
  "bytecode": "0x608060405234801561001057600080fd5b506040516105663803806105668339818101604052602081101561003357600080fd5b505180806001600160a01b03811661004a57600080fd5b6001600160a01b03811630141561006057600080fd5b50600080546001600160a01b039092166101008102610100600160a81b0319909316929092179055600180546001600160a01b03191690911781556005805460ff19169091179055506104ae806100b86000396000f3fe608060405234801561001057600080fd5b50600436106100a45760003560e01c80631f344070146100a95780632738a112146100c35780632f013a00146100cd5780634476d23b146100e9578063570ca7351461010d57806370327ea1146101155780639243c9db1461011d5780639621473514610143578063994e207614610169578063b3ab15fb14610171578063b5b9c7bf14610197578063d5f394881461019f575b600080fd5b6100b16101a7565b60408051918252519081900360200190f35b6100cb6101ad565b005b6100d561020f565b604080519115158252519081900360200190f35b6100f1610218565b604080516001600160a01b039092168252519081900360200190f35b6100f161022c565b6100cb61023b565b6100d56004803603602081101561013357600080fd5b50356001600160a01b0316610299565b6100cb6004803603602081101561015957600080fd5b50356001600160a01b03166102b7565b6100d561037b565b6100cb6004803603602081101561018757600080fd5b50356001600160a01b0316610384565b6100b1610438565b6100f161043e565b60035490565b336101b6610218565b6001600160a01b0316146101c957600080fd5b60005460ff16156101d957600080fd5b6040805133815290517f787a5d936e74f4b564b9153575886059829c78cd9927b1be5e0d976b317ef7369181900360200190a133ff5b60005460ff1681565b60005461010090046001600160a01b031690565b6001546001600160a01b031681565b33610244610218565b6001600160a01b03161461025757600080fd5b6000805460ff191660011790556040805133815290517fd5a2a04a775c741c2ca0dc46ea7ce4835190e1aaf1ca018def0e82568ec336169181900360200190a1565b6001600160a01b031660009081526002602052604090205460ff1690565b6102bf610452565b6102c857600080fd5b806001600160a01b0381166102dc57600080fd5b6001600160a01b0381163014156102f257600080fd5b6000546001600160a01b03838116610100909204161461037757600080546001600160a01b03848116610100818102610100600160a81b03198516179094556040805194909304919091168084526020840191909152815190927f977e5fa58e458501775e0008d275006294c5249e3c08d1d0e3a9f3acad14f6e492908290030190a1505b5050565b60055460ff1690565b61038c610468565b61039557600080fd5b806001600160a01b0381166103a957600080fd5b6001600160a01b0381163014156103bf57600080fd5b6001546001600160a01b0383811691161461037757600180546001600160a01b038481166001600160a01b0319831681179093556040805191909216808252602082019390935281517f9f611b789425d0d5b90b920f1b2852907dd865c80074a30b1629aaa041d1812c929181900390910190a1505050565b60045490565b60005461010090046001600160a01b031681565b60005461010090046001600160a01b0316331490565b6001546001600160a01b031633149056fea265627a7a7231582065131fabba0ce1d4f0c7d8bdbf531b15c02b85e833698e2dd83fa72b0aaae24364736f6c634300050c0032",
  "source": "/*\n * Hubii Nahmii\n *\n * Compliant with the Hubii Nahmii specification v0.12.\n *\n * Copyright (C) 2017-2018 Hubii AS\n */\n\npragma solidity >=0.4.25 <0.6.0;\n\nimport {Ownable} from \"./Ownable.sol\";\n\n/**\n * @title Community vote\n * @notice An oracle for relevant decisions made by the community.\n */\ncontract CommunityVote is Ownable {\n    //\n    // Variables\n    // -----------------------------------------------------------------------------------------------------------------\n    mapping(address => bool) doubleSpenderByWallet;\n    uint256 maxDriipNonce;\n    uint256 maxNullNonce;\n    bool dataAvailable;\n\n    //\n    // Constructor\n    // -----------------------------------------------------------------------------------------------------------------\n    constructor(address deployer) Ownable(deployer) public {\n        dataAvailable = true;\n    }\n\n    //\n    // Results functions\n    // -----------------------------------------------------------------------------------------------------------------\n    /// @notice Get the double spender status of given wallet\n    /// @param wallet The wallet address for which to check double spender status\n    /// @return true if wallet is double spender, false otherwise\n    function isDoubleSpenderWallet(address wallet)\n    public\n    view\n    returns (bool)\n    {\n        return doubleSpenderByWallet[wallet];\n    }\n\n    /// @notice Get the max driip nonce to be accepted in settlements\n    /// @return the max driip nonce\n    function getMaxDriipNonce()\n    public\n    view\n    returns (uint256)\n    {\n        return maxDriipNonce;\n    }\n\n    /// @notice Get the max null settlement nonce to be accepted in settlements\n    /// @return the max driip nonce\n    function getMaxNullNonce()\n    public\n    view\n    returns (uint256)\n    {\n        return maxNullNonce;\n    }\n\n    /// @notice Get the data availability status\n    /// @return true if data is available\n    function isDataAvailable()\n    public\n    view\n    returns (bool)\n    {\n        return dataAvailable;\n    }\n}",
  "sourcePath": "/opt/buildagent/work/855e104608380c36/contracts/CommunityVote.sol",
  "compiler": {
    "name": "solc",
    "version": "0.5.12+commit.7709ece9.Emscripten.clang"
  },
  "schemaVersion": "2.0.3",
  "updatedAt": "2019-10-23T00:21:40.504Z"
}