{
  "contractName": "Configuration",
  "abi": [
    {
      "constant": true,
      "inputs": [],
      "name": "operationalMode",
      "outputs": [
        {
          "name": "",
          "type": "uint8"
        }
      ],
      "payable": false,
      "stateMutability": "view",
      "type": "function"
    },
    {
      "constant": true,
      "inputs": [
        {
          "name": "service",
          "type": "address"
        }
      ],
      "name": "isRegisteredActiveService",
      "outputs": [
        {
          "name": "",
          "type": "bool"
        }
      ],
      "payable": false,
      "stateMutability": "view",
      "type": "function"
    },
    {
      "constant": false,
      "inputs": [],
      "name": "triggerSelfDestruction",
      "outputs": [],
      "payable": false,
      "stateMutability": "nonpayable",
      "type": "function"
    },
    {
      "constant": false,
      "inputs": [
        {
          "name": "service",
          "type": "address"
        },
        {
          "name": "action",
          "type": "string"
        }
      ],
      "name": "enableServiceAction",
      "outputs": [],
      "payable": false,
      "stateMutability": "nonpayable",
      "type": "function"
    },
    {
      "constant": true,
      "inputs": [
        {
          "name": "service",
          "type": "address"
        }
      ],
      "name": "isRegisteredService",
      "outputs": [
        {
          "name": "",
          "type": "bool"
        }
      ],
      "payable": false,
      "stateMutability": "view",
      "type": "function"
    },
    {
      "constant": true,
      "inputs": [],
      "name": "selfDestructionDisabled",
      "outputs": [
        {
          "name": "",
          "type": "bool"
        }
      ],
      "payable": false,
      "stateMutability": "view",
      "type": "function"
    },
    {
      "constant": false,
      "inputs": [
        {
          "name": "service",
          "type": "address"
        },
        {
          "name": "action",
          "type": "string"
        }
      ],
      "name": "disableServiceAction",
      "outputs": [],
      "payable": false,
      "stateMutability": "nonpayable",
      "type": "function"
    },
    {
      "constant": true,
      "inputs": [],
      "name": "serviceActivationTimeout",
      "outputs": [
        {
          "name": "",
          "type": "uint256"
        }
      ],
      "payable": false,
      "stateMutability": "view",
      "type": "function"
    },
    {
      "constant": true,
      "inputs": [],
      "name": "destructor",
      "outputs": [
        {
          "name": "",
          "type": "address"
        }
      ],
      "payable": false,
      "stateMutability": "view",
      "type": "function"
    },
    {
      "constant": false,
      "inputs": [
        {
          "name": "service",
          "type": "address"
        }
      ],
      "name": "deregisterService",
      "outputs": [],
      "payable": false,
      "stateMutability": "nonpayable",
      "type": "function"
    },
    {
      "constant": true,
      "inputs": [],
      "name": "operator",
      "outputs": [
        {
          "name": "",
          "type": "address"
        }
      ],
      "payable": false,
      "stateMutability": "view",
      "type": "function"
    },
    {
      "constant": true,
      "inputs": [
        {
          "name": "service",
          "type": "address"
        },
        {
          "name": "action",
          "type": "string"
        }
      ],
      "name": "isEnabledServiceAction",
      "outputs": [
        {
          "name": "",
          "type": "bool"
        }
      ],
      "payable": false,
      "stateMutability": "view",
      "type": "function"
    },
    {
      "constant": false,
      "inputs": [],
      "name": "disableSelfDestruction",
      "outputs": [],
      "payable": false,
      "stateMutability": "nonpayable",
      "type": "function"
    },
    {
      "constant": false,
      "inputs": [
        {
          "name": "timeoutInSeconds",
          "type": "uint256"
        }
      ],
      "name": "setServiceActivationTimeout",
      "outputs": [],
      "payable": false,
      "stateMutability": "nonpayable",
      "type": "function"
    },
    {
      "constant": false,
      "inputs": [
        {
          "name": "service",
          "type": "address"
        }
      ],
      "name": "registerServiceDeferred",
      "outputs": [],
      "payable": false,
      "stateMutability": "nonpayable",
      "type": "function"
    },
    {
      "constant": false,
      "inputs": [
        {
          "name": "newDeployer",
          "type": "address"
        }
      ],
      "name": "setDeployer",
      "outputs": [],
      "payable": false,
      "stateMutability": "nonpayable",
      "type": "function"
    },
    {
      "constant": false,
      "inputs": [
        {
          "name": "newOperator",
          "type": "address"
        }
      ],
      "name": "setOperator",
      "outputs": [],
      "payable": false,
      "stateMutability": "nonpayable",
      "type": "function"
    },
    {
      "constant": true,
      "inputs": [],
      "name": "earliestSettlementBlockNumber",
      "outputs": [
        {
          "name": "",
          "type": "uint256"
        }
      ],
      "payable": false,
      "stateMutability": "view",
      "type": "function"
    },
    {
      "constant": true,
      "inputs": [],
      "name": "OPERATIONAL_MODE_ACTION",
      "outputs": [
        {
          "name": "",
          "type": "string"
        }
      ],
      "payable": false,
      "stateMutability": "view",
      "type": "function"
    },
    {
      "constant": true,
      "inputs": [],
      "name": "deployer",
      "outputs": [
        {
          "name": "",
          "type": "address"
        }
      ],
      "payable": false,
      "stateMutability": "view",
      "type": "function"
    },
    {
      "constant": true,
      "inputs": [],
      "name": "earliestSettlementBlockNumberUpdateDisabled",
      "outputs": [
        {
          "name": "",
          "type": "bool"
        }
      ],
      "payable": false,
      "stateMutability": "view",
      "type": "function"
    },
    {
      "constant": false,
      "inputs": [
        {
          "name": "service",
          "type": "address"
        }
      ],
      "name": "registerService",
      "outputs": [],
      "payable": false,
      "stateMutability": "nonpayable",
      "type": "function"
    },
    {
      "inputs": [
        {
          "name": "deployer",
          "type": "address"
        }
      ],
      "payable": false,
      "stateMutability": "nonpayable",
      "type": "constructor"
    },
    {
      "anonymous": false,
      "inputs": [],
      "name": "SetOperationalModeExitEvent",
      "type": "event"
    },
    {
      "anonymous": false,
      "inputs": [
        {
          "indexed": false,
          "name": "fromBlockNumber",
          "type": "uint256"
        },
        {
          "indexed": false,
          "name": "newBlocks",
          "type": "uint256"
        }
      ],
      "name": "SetUpdateDelayBlocksEvent",
      "type": "event"
    },
    {
      "anonymous": false,
      "inputs": [
        {
          "indexed": false,
          "name": "fromBlockNumber",
          "type": "uint256"
        },
        {
          "indexed": false,
          "name": "newBlocks",
          "type": "uint256"
        }
      ],
      "name": "SetConfirmationBlocksEvent",
      "type": "event"
    },
    {
      "anonymous": false,
      "inputs": [
        {
          "indexed": false,
          "name": "fromBlockNumber",
          "type": "uint256"
        },
        {
          "indexed": false,
          "name": "nominal",
          "type": "int256"
        },
        {
          "indexed": false,
          "name": "discountTiers",
          "type": "int256[]"
        },
        {
          "indexed": false,
          "name": "discountValues",
          "type": "int256[]"
        }
      ],
      "name": "SetTradeMakerFeeEvent",
      "type": "event"
    },
    {
      "anonymous": false,
      "inputs": [
        {
          "indexed": false,
          "name": "fromBlockNumber",
          "type": "uint256"
        },
        {
          "indexed": false,
          "name": "nominal",
          "type": "int256"
        },
        {
          "indexed": false,
          "name": "discountTiers",
          "type": "int256[]"
        },
        {
          "indexed": false,
          "name": "discountValues",
          "type": "int256[]"
        }
      ],
      "name": "SetTradeTakerFeeEvent",
      "type": "event"
    },
    {
      "anonymous": false,
      "inputs": [
        {
          "indexed": false,
          "name": "fromBlockNumber",
          "type": "uint256"
        },
        {
          "indexed": false,
          "name": "nominal",
          "type": "int256"
        },
        {
          "indexed": false,
          "name": "discountTiers",
          "type": "int256[]"
        },
        {
          "indexed": false,
          "name": "discountValues",
          "type": "int256[]"
        }
      ],
      "name": "SetPaymentFeeEvent",
      "type": "event"
    },
    {
      "anonymous": false,
      "inputs": [
        {
          "indexed": false,
          "name": "fromBlockNumber",
          "type": "uint256"
        },
        {
          "indexed": false,
          "name": "currencyCt",
          "type": "address"
        },
        {
          "indexed": false,
          "name": "currencyId",
          "type": "uint256"
        },
        {
          "indexed": false,
          "name": "nominal",
          "type": "int256"
        },
        {
          "indexed": false,
          "name": "discountTiers",
          "type": "int256[]"
        },
        {
          "indexed": false,
          "name": "discountValues",
          "type": "int256[]"
        }
      ],
      "name": "SetCurrencyPaymentFeeEvent",
      "type": "event"
    },
    {
      "anonymous": false,
      "inputs": [
        {
          "indexed": false,
          "name": "fromBlockNumber",
          "type": "uint256"
        },
        {
          "indexed": false,
          "name": "nominal",
          "type": "int256"
        }
      ],
      "name": "SetTradeMakerMinimumFeeEvent",
      "type": "event"
    },
    {
      "anonymous": false,
      "inputs": [
        {
          "indexed": false,
          "name": "fromBlockNumber",
          "type": "uint256"
        },
        {
          "indexed": false,
          "name": "nominal",
          "type": "int256"
        }
      ],
      "name": "SetTradeTakerMinimumFeeEvent",
      "type": "event"
    },
    {
      "anonymous": false,
      "inputs": [
        {
          "indexed": false,
          "name": "fromBlockNumber",
          "type": "uint256"
        },
        {
          "indexed": false,
          "name": "nominal",
          "type": "int256"
        }
      ],
      "name": "SetPaymentMinimumFeeEvent",
      "type": "event"
    },
    {
      "anonymous": false,
      "inputs": [
        {
          "indexed": false,
          "name": "fromBlockNumber",
          "type": "uint256"
        },
        {
          "indexed": false,
          "name": "currencyCt",
          "type": "address"
        },
        {
          "indexed": false,
          "name": "currencyId",
          "type": "uint256"
        },
        {
          "indexed": false,
          "name": "nominal",
          "type": "int256"
        }
      ],
      "name": "SetCurrencyPaymentMinimumFeeEvent",
      "type": "event"
    },
    {
      "anonymous": false,
      "inputs": [
        {
          "indexed": false,
          "name": "fromBlockNumber",
          "type": "uint256"
        },
        {
          "indexed": false,
          "name": "referenceCurrencyCt",
          "type": "address"
        },
        {
          "indexed": false,
          "name": "referenceCurrencyId",
          "type": "uint256"
        },
        {
          "indexed": false,
          "name": "feeCurrencyCt",
          "type": "address"
        },
        {
          "indexed": false,
          "name": "feeCurrencyId",
          "type": "uint256"
        }
      ],
      "name": "SetFeeCurrencyEvent",
      "type": "event"
    },
    {
      "anonymous": false,
      "inputs": [
        {
          "indexed": false,
          "name": "fromBlockNumber",
          "type": "uint256"
        },
        {
          "indexed": false,
          "name": "timeoutInSeconds",
          "type": "uint256"
        }
      ],
      "name": "SetWalletLockTimeoutEvent",
      "type": "event"
    },
    {
      "anonymous": false,
      "inputs": [
        {
          "indexed": false,
          "name": "fromBlockNumber",
          "type": "uint256"
        },
        {
          "indexed": false,
          "name": "timeoutInSeconds",
          "type": "uint256"
        }
      ],
      "name": "SetCancelOrderChallengeTimeoutEvent",
      "type": "event"
    },
    {
      "anonymous": false,
      "inputs": [
        {
          "indexed": false,
          "name": "fromBlockNumber",
          "type": "uint256"
        },
        {
          "indexed": false,
          "name": "timeoutInSeconds",
          "type": "uint256"
        }
      ],
      "name": "SetSettlementChallengeTimeoutEvent",
      "type": "event"
    },
    {
      "anonymous": false,
      "inputs": [
        {
          "indexed": false,
          "name": "fromBlockNumber",
          "type": "uint256"
        },
        {
          "indexed": false,
          "name": "stakeFraction",
          "type": "uint256"
        }
      ],
      "name": "SetWalletSettlementStakeFractionEvent",
      "type": "event"
    },
    {
      "anonymous": false,
      "inputs": [
        {
          "indexed": false,
          "name": "fromBlockNumber",
          "type": "uint256"
        },
        {
          "indexed": false,
          "name": "stakeFraction",
          "type": "uint256"
        }
      ],
      "name": "SetOperatorSettlementStakeFractionEvent",
      "type": "event"
    },
    {
      "anonymous": false,
      "inputs": [
        {
          "indexed": false,
          "name": "fromBlockNumber",
          "type": "uint256"
        },
        {
          "indexed": false,
          "name": "stakeAmount",
          "type": "int256"
        },
        {
          "indexed": false,
          "name": "stakeCurrencyCt",
          "type": "address"
        },
        {
          "indexed": false,
          "name": "stakeCurrencyId",
          "type": "uint256"
        }
      ],
      "name": "SetOperatorSettlementStakeEvent",
      "type": "event"
    },
    {
      "anonymous": false,
      "inputs": [
        {
          "indexed": false,
          "name": "fromBlockNumber",
          "type": "uint256"
        },
        {
          "indexed": false,
          "name": "stakeFraction",
          "type": "uint256"
        }
      ],
      "name": "SetFraudStakeFractionEvent",
      "type": "event"
    },
    {
      "anonymous": false,
      "inputs": [
        {
          "indexed": false,
          "name": "earliestSettlementBlockNumber",
          "type": "uint256"
        }
      ],
      "name": "SetEarliestSettlementBlockNumberEvent",
      "type": "event"
    },
    {
      "anonymous": false,
      "inputs": [],
      "name": "DisableEarliestSettlementBlockNumberUpdateEvent",
      "type": "event"
    },
    {
      "anonymous": false,
      "inputs": [
        {
          "indexed": false,
          "name": "timeoutInSeconds",
          "type": "uint256"
        }
      ],
      "name": "ServiceActivationTimeoutEvent",
      "type": "event"
    },
    {
      "anonymous": false,
      "inputs": [
        {
          "indexed": false,
          "name": "service",
          "type": "address"
        }
      ],
      "name": "RegisterServiceEvent",
      "type": "event"
    },
    {
      "anonymous": false,
      "inputs": [
        {
          "indexed": false,
          "name": "service",
          "type": "address"
        },
        {
          "indexed": false,
          "name": "timeout",
          "type": "uint256"
        }
      ],
      "name": "RegisterServiceDeferredEvent",
      "type": "event"
    },
    {
      "anonymous": false,
      "inputs": [
        {
          "indexed": false,
          "name": "service",
          "type": "address"
        }
      ],
      "name": "DeregisterServiceEvent",
      "type": "event"
    },
    {
      "anonymous": false,
      "inputs": [
        {
          "indexed": false,
          "name": "service",
          "type": "address"
        },
        {
          "indexed": false,
          "name": "action",
          "type": "string"
        }
      ],
      "name": "EnableServiceActionEvent",
      "type": "event"
    },
    {
      "anonymous": false,
      "inputs": [
        {
          "indexed": false,
          "name": "service",
          "type": "address"
        },
        {
          "indexed": false,
          "name": "action",
          "type": "string"
        }
      ],
      "name": "DisableServiceActionEvent",
      "type": "event"
    },
    {
      "anonymous": false,
      "inputs": [
        {
          "indexed": false,
          "name": "oldDeployer",
          "type": "address"
        },
        {
          "indexed": false,
          "name": "newDeployer",
          "type": "address"
        }
      ],
      "name": "SetDeployerEvent",
      "type": "event"
    },
    {
      "anonymous": false,
      "inputs": [
        {
          "indexed": false,
          "name": "oldOperator",
          "type": "address"
        },
        {
          "indexed": false,
          "name": "newOperator",
          "type": "address"
        }
      ],
      "name": "SetOperatorEvent",
      "type": "event"
    },
    {
      "anonymous": false,
      "inputs": [
        {
          "indexed": false,
          "name": "wallet",
          "type": "address"
        }
      ],
      "name": "SelfDestructionDisabledEvent",
      "type": "event"
    },
    {
      "anonymous": false,
      "inputs": [
        {
          "indexed": false,
          "name": "wallet",
          "type": "address"
        }
      ],
      "name": "TriggerSelfDestructionEvent",
      "type": "event"
    },
    {
      "constant": false,
      "inputs": [],
      "name": "setOperationalModeExit",
      "outputs": [],
      "payable": false,
      "stateMutability": "nonpayable",
      "type": "function"
    },
    {
      "constant": true,
      "inputs": [],
      "name": "isOperationalModeNormal",
      "outputs": [
        {
          "name": "",
          "type": "bool"
        }
      ],
      "payable": false,
      "stateMutability": "view",
      "type": "function"
    },
    {
      "constant": true,
      "inputs": [],
      "name": "isOperationalModeExit",
      "outputs": [
        {
          "name": "",
          "type": "bool"
        }
      ],
      "payable": false,
      "stateMutability": "view",
      "type": "function"
    },
    {
      "constant": true,
      "inputs": [],
      "name": "updateDelayBlocks",
      "outputs": [
        {
          "name": "",
          "type": "uint256"
        }
      ],
      "payable": false,
      "stateMutability": "view",
      "type": "function"
    },
    {
      "constant": true,
      "inputs": [],
      "name": "updateDelayBlocksCount",
      "outputs": [
        {
          "name": "",
          "type": "uint256"
        }
      ],
      "payable": false,
      "stateMutability": "view",
      "type": "function"
    },
    {
      "constant": false,
      "inputs": [
        {
          "name": "fromBlockNumber",
          "type": "uint256"
        },
        {
          "name": "newUpdateDelayBlocks",
          "type": "uint256"
        }
      ],
      "name": "setUpdateDelayBlocks",
      "outputs": [],
      "payable": false,
      "stateMutability": "nonpayable",
      "type": "function"
    },
    {
      "constant": true,
      "inputs": [],
      "name": "confirmationBlocks",
      "outputs": [
        {
          "name": "",
          "type": "uint256"
        }
      ],
      "payable": false,
      "stateMutability": "view",
      "type": "function"
    },
    {
      "constant": true,
      "inputs": [],
      "name": "confirmationBlocksCount",
      "outputs": [
        {
          "name": "",
          "type": "uint256"
        }
      ],
      "payable": false,
      "stateMutability": "view",
      "type": "function"
    },
    {
      "constant": false,
      "inputs": [
        {
          "name": "fromBlockNumber",
          "type": "uint256"
        },
        {
          "name": "newConfirmationBlocks",
          "type": "uint256"
        }
      ],
      "name": "setConfirmationBlocks",
      "outputs": [],
      "payable": false,
      "stateMutability": "nonpayable",
      "type": "function"
    },
    {
      "constant": true,
      "inputs": [],
      "name": "tradeMakerFeesCount",
      "outputs": [
        {
          "name": "",
          "type": "uint256"
        }
      ],
      "payable": false,
      "stateMutability": "view",
      "type": "function"
    },
    {
      "constant": true,
      "inputs": [
        {
          "name": "blockNumber",
          "type": "uint256"
        },
        {
          "name": "discountTier",
          "type": "int256"
        }
      ],
      "name": "tradeMakerFee",
      "outputs": [
        {
          "name": "",
          "type": "int256"
        }
      ],
      "payable": false,
      "stateMutability": "view",
      "type": "function"
    },
    {
      "constant": false,
      "inputs": [
        {
          "name": "fromBlockNumber",
          "type": "uint256"
        },
        {
          "name": "nominal",
          "type": "int256"
        },
        {
          "name": "discountTiers",
          "type": "int256[]"
        },
        {
          "name": "discountValues",
          "type": "int256[]"
        }
      ],
      "name": "setTradeMakerFee",
      "outputs": [],
      "payable": false,
      "stateMutability": "nonpayable",
      "type": "function"
    },
    {
      "constant": true,
      "inputs": [],
      "name": "tradeTakerFeesCount",
      "outputs": [
        {
          "name": "",
          "type": "uint256"
        }
      ],
      "payable": false,
      "stateMutability": "view",
      "type": "function"
    },
    {
      "constant": true,
      "inputs": [
        {
          "name": "blockNumber",
          "type": "uint256"
        },
        {
          "name": "discountTier",
          "type": "int256"
        }
      ],
      "name": "tradeTakerFee",
      "outputs": [
        {
          "name": "",
          "type": "int256"
        }
      ],
      "payable": false,
      "stateMutability": "view",
      "type": "function"
    },
    {
      "constant": false,
      "inputs": [
        {
          "name": "fromBlockNumber",
          "type": "uint256"
        },
        {
          "name": "nominal",
          "type": "int256"
        },
        {
          "name": "discountTiers",
          "type": "int256[]"
        },
        {
          "name": "discountValues",
          "type": "int256[]"
        }
      ],
      "name": "setTradeTakerFee",
      "outputs": [],
      "payable": false,
      "stateMutability": "nonpayable",
      "type": "function"
    },
    {
      "constant": true,
      "inputs": [],
      "name": "paymentFeesCount",
      "outputs": [
        {
          "name": "",
          "type": "uint256"
        }
      ],
      "payable": false,
      "stateMutability": "view",
      "type": "function"
    },
    {
      "constant": true,
      "inputs": [
        {
          "name": "blockNumber",
          "type": "uint256"
        },
        {
          "name": "discountTier",
          "type": "int256"
        }
      ],
      "name": "paymentFee",
      "outputs": [
        {
          "name": "",
          "type": "int256"
        }
      ],
      "payable": false,
      "stateMutability": "view",
      "type": "function"
    },
    {
      "constant": false,
      "inputs": [
        {
          "name": "fromBlockNumber",
          "type": "uint256"
        },
        {
          "name": "nominal",
          "type": "int256"
        },
        {
          "name": "discountTiers",
          "type": "int256[]"
        },
        {
          "name": "discountValues",
          "type": "int256[]"
        }
      ],
      "name": "setPaymentFee",
      "outputs": [],
      "payable": false,
      "stateMutability": "nonpayable",
      "type": "function"
    },
    {
      "constant": true,
      "inputs": [
        {
          "name": "currencyCt",
          "type": "address"
        },
        {
          "name": "currencyId",
          "type": "uint256"
        }
      ],
      "name": "currencyPaymentFeesCount",
      "outputs": [
        {
          "name": "",
          "type": "uint256"
        }
      ],
      "payable": false,
      "stateMutability": "view",
      "type": "function"
    },
    {
      "constant": true,
      "inputs": [
        {
          "name": "blockNumber",
          "type": "uint256"
        },
        {
          "name": "currencyCt",
          "type": "address"
        },
        {
          "name": "currencyId",
          "type": "uint256"
        },
        {
          "name": "discountTier",
          "type": "int256"
        }
      ],
      "name": "currencyPaymentFee",
      "outputs": [
        {
          "name": "",
          "type": "int256"
        }
      ],
      "payable": false,
      "stateMutability": "view",
      "type": "function"
    },
    {
      "constant": false,
      "inputs": [
        {
          "name": "fromBlockNumber",
          "type": "uint256"
        },
        {
          "name": "currencyCt",
          "type": "address"
        },
        {
          "name": "currencyId",
          "type": "uint256"
        },
        {
          "name": "nominal",
          "type": "int256"
        },
        {
          "name": "discountTiers",
          "type": "int256[]"
        },
        {
          "name": "discountValues",
          "type": "int256[]"
        }
      ],
      "name": "setCurrencyPaymentFee",
      "outputs": [],
      "payable": false,
      "stateMutability": "nonpayable",
      "type": "function"
    },
    {
      "constant": true,
      "inputs": [],
      "name": "tradeMakerMinimumFeesCount",
      "outputs": [
        {
          "name": "",
          "type": "uint256"
        }
      ],
      "payable": false,
      "stateMutability": "view",
      "type": "function"
    },
    {
      "constant": true,
      "inputs": [
        {
          "name": "blockNumber",
          "type": "uint256"
        }
      ],
      "name": "tradeMakerMinimumFee",
      "outputs": [
        {
          "name": "",
          "type": "int256"
        }
      ],
      "payable": false,
      "stateMutability": "view",
      "type": "function"
    },
    {
      "constant": false,
      "inputs": [
        {
          "name": "fromBlockNumber",
          "type": "uint256"
        },
        {
          "name": "nominal",
          "type": "int256"
        }
      ],
      "name": "setTradeMakerMinimumFee",
      "outputs": [],
      "payable": false,
      "stateMutability": "nonpayable",
      "type": "function"
    },
    {
      "constant": true,
      "inputs": [],
      "name": "tradeTakerMinimumFeesCount",
      "outputs": [
        {
          "name": "",
          "type": "uint256"
        }
      ],
      "payable": false,
      "stateMutability": "view",
      "type": "function"
    },
    {
      "constant": true,
      "inputs": [
        {
          "name": "blockNumber",
          "type": "uint256"
        }
      ],
      "name": "tradeTakerMinimumFee",
      "outputs": [
        {
          "name": "",
          "type": "int256"
        }
      ],
      "payable": false,
      "stateMutability": "view",
      "type": "function"
    },
    {
      "constant": false,
      "inputs": [
        {
          "name": "fromBlockNumber",
          "type": "uint256"
        },
        {
          "name": "nominal",
          "type": "int256"
        }
      ],
      "name": "setTradeTakerMinimumFee",
      "outputs": [],
      "payable": false,
      "stateMutability": "nonpayable",
      "type": "function"
    },
    {
      "constant": true,
      "inputs": [],
      "name": "paymentMinimumFeesCount",
      "outputs": [
        {
          "name": "",
          "type": "uint256"
        }
      ],
      "payable": false,
      "stateMutability": "view",
      "type": "function"
    },
    {
      "constant": true,
      "inputs": [
        {
          "name": "blockNumber",
          "type": "uint256"
        }
      ],
      "name": "paymentMinimumFee",
      "outputs": [
        {
          "name": "",
          "type": "int256"
        }
      ],
      "payable": false,
      "stateMutability": "view",
      "type": "function"
    },
    {
      "constant": false,
      "inputs": [
        {
          "name": "fromBlockNumber",
          "type": "uint256"
        },
        {
          "name": "nominal",
          "type": "int256"
        }
      ],
      "name": "setPaymentMinimumFee",
      "outputs": [],
      "payable": false,
      "stateMutability": "nonpayable",
      "type": "function"
    },
    {
      "constant": true,
      "inputs": [
        {
          "name": "currencyCt",
          "type": "address"
        },
        {
          "name": "currencyId",
          "type": "uint256"
        }
      ],
      "name": "currencyPaymentMinimumFeesCount",
      "outputs": [
        {
          "name": "",
          "type": "uint256"
        }
      ],
      "payable": false,
      "stateMutability": "view",
      "type": "function"
    },
    {
      "constant": true,
      "inputs": [
        {
          "name": "blockNumber",
          "type": "uint256"
        },
        {
          "name": "currencyCt",
          "type": "address"
        },
        {
          "name": "currencyId",
          "type": "uint256"
        }
      ],
      "name": "currencyPaymentMinimumFee",
      "outputs": [
        {
          "name": "",
          "type": "int256"
        }
      ],
      "payable": false,
      "stateMutability": "view",
      "type": "function"
    },
    {
      "constant": false,
      "inputs": [
        {
          "name": "fromBlockNumber",
          "type": "uint256"
        },
        {
          "name": "currencyCt",
          "type": "address"
        },
        {
          "name": "currencyId",
          "type": "uint256"
        },
        {
          "name": "nominal",
          "type": "int256"
        }
      ],
      "name": "setCurrencyPaymentMinimumFee",
      "outputs": [],
      "payable": false,
      "stateMutability": "nonpayable",
      "type": "function"
    },
    {
      "constant": true,
      "inputs": [
        {
          "name": "currencyCt",
          "type": "address"
        },
        {
          "name": "currencyId",
          "type": "uint256"
        }
      ],
      "name": "feeCurrenciesCount",
      "outputs": [
        {
          "name": "",
          "type": "uint256"
        }
      ],
      "payable": false,
      "stateMutability": "view",
      "type": "function"
    },
    {
      "constant": true,
      "inputs": [
        {
          "name": "blockNumber",
          "type": "uint256"
        },
        {
          "name": "currencyCt",
          "type": "address"
        },
        {
          "name": "currencyId",
          "type": "uint256"
        }
      ],
      "name": "feeCurrency",
      "outputs": [
        {
          "name": "ct",
          "type": "address"
        },
        {
          "name": "id",
          "type": "uint256"
        }
      ],
      "payable": false,
      "stateMutability": "view",
      "type": "function"
    },
    {
      "constant": false,
      "inputs": [
        {
          "name": "fromBlockNumber",
          "type": "uint256"
        },
        {
          "name": "referenceCurrencyCt",
          "type": "address"
        },
        {
          "name": "referenceCurrencyId",
          "type": "uint256"
        },
        {
          "name": "feeCurrencyCt",
          "type": "address"
        },
        {
          "name": "feeCurrencyId",
          "type": "uint256"
        }
      ],
      "name": "setFeeCurrency",
      "outputs": [],
      "payable": false,
      "stateMutability": "nonpayable",
      "type": "function"
    },
    {
      "constant": true,
      "inputs": [],
      "name": "walletLockTimeout",
      "outputs": [
        {
          "name": "",
          "type": "uint256"
        }
      ],
      "payable": false,
      "stateMutability": "view",
      "type": "function"
    },
    {
      "constant": false,
      "inputs": [
        {
          "name": "fromBlockNumber",
          "type": "uint256"
        },
        {
          "name": "timeoutInSeconds",
          "type": "uint256"
        }
      ],
      "name": "setWalletLockTimeout",
      "outputs": [],
      "payable": false,
      "stateMutability": "nonpayable",
      "type": "function"
    },
    {
      "constant": true,
      "inputs": [],
      "name": "cancelOrderChallengeTimeout",
      "outputs": [
        {
          "name": "",
          "type": "uint256"
        }
      ],
      "payable": false,
      "stateMutability": "view",
      "type": "function"
    },
    {
      "constant": false,
      "inputs": [
        {
          "name": "fromBlockNumber",
          "type": "uint256"
        },
        {
          "name": "timeoutInSeconds",
          "type": "uint256"
        }
      ],
      "name": "setCancelOrderChallengeTimeout",
      "outputs": [],
      "payable": false,
      "stateMutability": "nonpayable",
      "type": "function"
    },
    {
      "constant": true,
      "inputs": [],
      "name": "settlementChallengeTimeout",
      "outputs": [
        {
          "name": "",
          "type": "uint256"
        }
      ],
      "payable": false,
      "stateMutability": "view",
      "type": "function"
    },
    {
      "constant": false,
      "inputs": [
        {
          "name": "fromBlockNumber",
          "type": "uint256"
        },
        {
          "name": "timeoutInSeconds",
          "type": "uint256"
        }
      ],
      "name": "setSettlementChallengeTimeout",
      "outputs": [],
      "payable": false,
      "stateMutability": "nonpayable",
      "type": "function"
    },
    {
      "constant": true,
      "inputs": [],
      "name": "fraudStakeFraction",
      "outputs": [
        {
          "name": "",
          "type": "uint256"
        }
      ],
      "payable": false,
      "stateMutability": "view",
      "type": "function"
    },
    {
      "constant": false,
      "inputs": [
        {
          "name": "fromBlockNumber",
          "type": "uint256"
        },
        {
          "name": "stakeFraction",
          "type": "uint256"
        }
      ],
      "name": "setFraudStakeFraction",
      "outputs": [],
      "payable": false,
      "stateMutability": "nonpayable",
      "type": "function"
    },
    {
      "constant": true,
      "inputs": [],
      "name": "walletSettlementStakeFraction",
      "outputs": [
        {
          "name": "",
          "type": "uint256"
        }
      ],
      "payable": false,
      "stateMutability": "view",
      "type": "function"
    },
    {
      "constant": false,
      "inputs": [
        {
          "name": "fromBlockNumber",
          "type": "uint256"
        },
        {
          "name": "stakeFraction",
          "type": "uint256"
        }
      ],
      "name": "setWalletSettlementStakeFraction",
      "outputs": [],
      "payable": false,
      "stateMutability": "nonpayable",
      "type": "function"
    },
    {
      "constant": true,
      "inputs": [],
      "name": "operatorSettlementStakeFraction",
      "outputs": [
        {
          "name": "",
          "type": "uint256"
        }
      ],
      "payable": false,
      "stateMutability": "view",
      "type": "function"
    },
    {
      "constant": false,
      "inputs": [
        {
          "name": "fromBlockNumber",
          "type": "uint256"
        },
        {
          "name": "stakeFraction",
          "type": "uint256"
        }
      ],
      "name": "setOperatorSettlementStakeFraction",
      "outputs": [],
      "payable": false,
      "stateMutability": "nonpayable",
      "type": "function"
    },
    {
      "constant": true,
      "inputs": [],
      "name": "operatorSettlementStake",
      "outputs": [
        {
          "name": "amount",
          "type": "int256"
        },
        {
          "name": "currencyCt",
          "type": "address"
        },
        {
          "name": "currencyId",
          "type": "uint256"
        }
      ],
      "payable": false,
      "stateMutability": "view",
      "type": "function"
    },
    {
      "constant": false,
      "inputs": [
        {
          "name": "fromBlockNumber",
          "type": "uint256"
        },
        {
          "name": "stakeAmount",
          "type": "int256"
        },
        {
          "name": "stakeCurrencyCt",
          "type": "address"
        },
        {
          "name": "stakeCurrencyId",
          "type": "uint256"
        }
      ],
      "name": "setOperatorSettlementStake",
      "outputs": [],
      "payable": false,
      "stateMutability": "nonpayable",
      "type": "function"
    },
    {
      "constant": false,
      "inputs": [
        {
          "name": "_earliestSettlementBlockNumber",
          "type": "uint256"
        }
      ],
      "name": "setEarliestSettlementBlockNumber",
      "outputs": [],
      "payable": false,
      "stateMutability": "nonpayable",
      "type": "function"
    },
    {
      "constant": false,
      "inputs": [],
      "name": "disableEarliestSettlementBlockNumberUpdate",
      "outputs": [],
      "payable": false,
      "stateMutability": "nonpayable",
      "type": "function"
    }
  ],
  "bytecode": "0x60806040526004805460ff191690553480156200001b57600080fd5b506040516020806200394083398101806040526200003d919081019062000157565b8080600160a060020a03811615156200005557600080fd5b600160a060020a0381163014156200006c57600080fd5b506000805461010060a860020a031916610100600160a060020a039390931692830217815560018054600160a060020a031916909217909155620000c3906005904390640100000000620000ca8102620025e61704565b506200018c565b82541580620000fc5750825483906000198101908110620000e757fe5b90600052602060002090600202016000015482115b15156200010857600080fd5b6040805180820190915291825260208083019182528354600181810186556000958652919094209251600290940290920192835551910155565b600062000150825162000180565b9392505050565b6000602082840312156200016a57600080fd5b600062000178848462000142565b949350505050565b600160a060020a031690565b6137a4806200019c6000396000f30060806040526004361061034a5763ffffffff60e060020a6000350416630783e3db811461034f5780630f4e74691461037157806312e5c6541461039c578063158c1848146103c957806317ba3f90146103e95780631af78f09146104165780631b6eb59f146104365780632585f2781461045657806326c3acc3146104765780632738a11214610496578063273cc25f146104ab57806328b5f95c146104cb57806328eb2edd146104e057806329ea3faa146104f55780632b5672e31461050a5780632b91e0a91461052a5780632f013a001461054a5780633b58c5011461055f5780633b7bea6c1461057f5780633b8bba6c1461059457806342399aea146105b45780634476d23b146105d4578063460a58aa146105f65780634a6cf8451461060b5780634fd9b0e51461062b57806350b08c021461064b578063543877301461066b57806354f4338014610680578063570ca735146106a05780635df1b0a3146106b557806363f6e017146106d55780636c671a52146106f55780636c98600c1461071557806370327ea11461073557806374bcea6b1461074a578063768f594c1461076a578063778228401461078a57806377bad2cf146107aa5780637e15dd5c146107ca5780637e864666146107ea578063847bb1821461080a578063854e7fbf1461081f578063868a674f1461083457806389eec486146108495780638e8cef121461085e57806393d1243f1461087e578063940b81001461089e57806396214735146108b35780639699f337146108d35780639bbb0ff2146108e8578063a329fad5146108fd578063ac00d3b21461092b578063ad08605414610940578063b12aa34314610960578063b3ab15fb14610975578063b6bf417614610995578063b78272e0146109aa578063be189480146109cc578063c136df85146109e1578063c1959cc5146109f6578063c946b6e914610a16578063ccd03d2e14610a2b578063d5f3948814610a4f578063d7f0f97114610a64578063dc7dc62c14610a79578063ecb41ad814610a99578063efda7ffc14610ab9578063f69c70a014610ad9578063f71e860f14610af9578063f8b37af014610b0e578063f8e6e88814610b2e578063fbdfd8e714610b43578063fdd9ec7d14610b58578063fe98a9dc14610b78575b600080fd5b34801561035b57600080fd5b5061036f61036a36600461331d565b610b98565b005b34801561037d57600080fd5b50610386610c30565b60405161039391906134c8565b60405180910390f35b3480156103a857600080fd5b506103bc6103b7366004613076565b610c39565b60405161039391906134d6565b3480156103d557600080fd5b506103bc6103e43660046130e2565b610c75565b3480156103f557600080fd5b50610409610404366004613007565b610cf3565b60405161039391906134ba565b34801561042257600080fd5b5061036f61043136600461312f565b610d27565b34801561044257600080fd5b506103bc6104513660046131a4565b610df2565b34801561046257600080fd5b5061036f6104713660046132ba565b610e73565b34801561048257600080fd5b506103bc6104913660046132ba565b610f03565b3480156104a257600080fd5b5061036f610f17565b3480156104b757600080fd5b506103bc6104c63660046130c4565b610f7d565b3480156104d757600080fd5b506103bc610f90565b3480156104ec57600080fd5b506103bc610fa2565b34801561050157600080fd5b506103bc610fae565b34801561051657600080fd5b5061036f610525366004613025565b610fba565b34801561053657600080fd5b50610409610545366004613007565b6110e8565b34801561055657600080fd5b50610409611106565b34801561056b57600080fd5b5061036f61057a366004613025565b61110f565b34801561058b57600080fd5b506103bc6111ef565b3480156105a057600080fd5b5061036f6105af3660046132ba565b6111f5565b3480156105c057600080fd5b5061036f6105cf3660046132ba565b611278565b3480156105e057600080fd5b506105e96112fb565b6040516103939190613456565b34801561060257600080fd5b506103bc61130f565b34801561061757600080fd5b5061036f61062636600461331d565b61131b565b34801561063757600080fd5b506103bc610646366004613076565b6113a4565b34801561065757600080fd5b5061036f610666366004613007565b6113d0565b34801561067757600080fd5b506103bc611492565b34801561068c57600080fd5b5061036f61069b3660046132d9565b61149e565b3480156106ac57600080fd5b506105e961155d565b3480156106c157600080fd5b506104096106d0366004613025565b61156c565b3480156106e157600080fd5b5061036f6106f036600461331d565b6115be565b34801561070157600080fd5b5061036f6107103660046132ba565b611647565b34801561072157600080fd5b506103bc6107303660046132ba565b6116ca565b34801561074157600080fd5b5061036f6116de565b34801561075657600080fd5b5061036f6107653660046132ba565b611741565b34801561077657600080fd5b5061036f6107853660046132ba565b6117c4565b34801561079657600080fd5b5061036f6107a53660046132ba565b611847565b3480156107b657600080fd5b5061036f6107c53660046132ba565b6118ca565b3480156107d657600080fd5b5061036f6107e53660046130c4565b61194d565b3480156107f657600080fd5b506103bc610805366004613076565b6119a0565b34801561081657600080fd5b506103bc6119cc565b34801561082b57600080fd5b506103bc6119d8565b34801561084057600080fd5b506103bc6119e4565b34801561085557600080fd5b506103bc6119f0565b34801561086a57600080fd5b5061036f610879366004613007565b6119fc565b34801561088a57600080fd5b5061036f6108993660046132ba565b611a7a565b3480156108aa57600080fd5b506103bc611afd565b3480156108bf57600080fd5b5061036f6108ce366004613007565b611b09565b3480156108df57600080fd5b506103bc611bc7565b3480156108f457600080fd5b5061036f611bd3565b34801561090957600080fd5b5061091d6109183660046130e2565b611c1e565b60405161039392919061349f565b34801561093757600080fd5b506103bc611c75565b34801561094c57600080fd5b506103bc61095b3660046132ba565b611c81565b34801561096c57600080fd5b506103bc611c95565b34801561098157600080fd5b5061036f610990366004613007565b611ca1565b3480156109a157600080fd5b506103bc611d4b565b3480156109b657600080fd5b506109bf611d51565b604051610393919061350c565b3480156109d857600080fd5b50610409611d7e565b3480156109ed57600080fd5b506103bc611d9b565b348015610a0257600080fd5b5061036f610a113660046131a4565b611da7565b348015610a2257600080fd5b506103bc611e50565b348015610a3757600080fd5b50610a40611e5c565b604051610393939291906134e4565b348015610a5b57600080fd5b506105e9611e8f565b348015610a7057600080fd5b50610409611ea3565b348015610a8557600080fd5b506103bc610a943660046130c4565b611eac565b348015610aa557600080fd5b506103bc610ab43660046130c4565b611ebf565b348015610ac557600080fd5b5061036f610ad43660046132ba565b611ed2565b348015610ae557600080fd5b5061036f610af43660046130c4565b611f55565b348015610b0557600080fd5b50610409611f9d565b348015610b1a57600080fd5b5061036f610b29366004613205565b611fb8565b348015610b3a57600080fd5b5061036f612078565b348015610b4f57600080fd5b506103bc6120ef565b348015610b6457600080fd5b5061036f610b73366004613007565b6120fb565b348015610b8457600080fd5b5061036f610b933660046132ba565b612174565b610ba06121f7565b1515610bab57600080fd5b83610bb66005612208565b1580610bcd5750610bc7600561220c565b43018110155b1515610bd857600080fd5b610bec60078686868663ffffffff61221816565b7f8ec36e523af9a3433562968ade78ee302be3c4306c6815d30bc17fbc6f658f4485858585604051610c219493929190613644565b60405180910390a15050505050565b60045460ff1681565b6000610c6c604080519081016040528085600160a060020a0316815260200184815250600f6122e190919063ffffffff16565b90505b92915050565b600160a060020a0382166000908152600e602090815260408083208484529091528120610ca190612208565b60001015610ce357600160a060020a0383166000908152600e602090815260408083208584529091529020610cdc908563ffffffff61230b16565b9050610cec565b610cdc84610f7d565b9392505050565b6000610cfe826110e8565b8015610c6f575050600160a060020a031660009081526002602052604090206001015442101590565b610d2f6121f7565b1515610d3a57600080fd5b84610d456005612208565b1580610d5c5750610d56600561220c565b43018110155b1515610d6757600080fd5b604080518082018252600160a060020a0380881682526020808301889052835180850190945290861683528201849052610dab91600f91899163ffffffff61232216565b7fd6db40c81246b0bc2d29bb51b5d58d3e36502ac9898ab35237d4136a5172c2b28686868686604051610de295949392919061351d565b60405180910390a1505050505050565b600160a060020a0383166000908152600a602090815260408083208584529091528120610e1e90612208565b60001015610e6157600160a060020a0384166000908152600a602090815260408083208684529091529020610e5a90868463ffffffff61243e16565b9050610e6b565b610e5a8583611c81565b949350505050565b610e7b6121f7565b1515610e8657600080fd5b81610e916005612208565b1580610ea85750610ea2600561220c565b43018110155b1515610eb357600080fd5b610ec5600d848463ffffffff6125e616565b7f8db08e27454fa2b4fb1a49c88f48d25b6561af54f240ad2f3beb4887830f1e9d8383604051610ef692919061360e565b60405180910390a1505050565b6000610c6c6007848463ffffffff61243e16565b33610f206112fb565b600160a060020a031614610f3357600080fd5b60005460ff1615610f4357600080fd5b7f787a5d936e74f4b564b9153575886059829c78cd9927b1be5e0d976b317ef73633604051610f729190613456565b60405180910390a133ff5b6000610c6f600d8363ffffffff61230b16565b6000610f9c601461220c565b90505b90565b6000610f9c600d612208565b6000610f9c601061220c565b6000610fc461265b565b1515610fcf57600080fd5b82600160a060020a0381161515610fe557600080fd5b600160a060020a038116301415610ffb57600080fd5b600160a060020a03841660009081526002602052604090205460ff16151561102257600080fd5b61102b83612671565b600160a060020a0385166000908152600260208181526040808420858552909201905290205490925060ff161561106157600080fd5b600160a060020a03841660009081526002602081815260408084208685528084018352818520805460ff19166001908117909155938352600301805493840181558452922001839055517fec1b982d69bfc1a6fd8becf191d9a633486c822d3bdedd52303ca81fa6357501906110da908690869061347f565b60405180910390a150505050565b600160a060020a031660009081526002602052604090205460ff1690565b60005460ff1681565b600061111961265b565b151561112457600080fd5b82600160a060020a038116151561113a57600080fd5b600160a060020a03811630141561115057600080fd5b61115983612671565b600160a060020a0385166000908152600260208181526040808420858552909201905290205490925060ff16151561119057600080fd5b600160a060020a0384166000908152600260208181526040808420868552909201905290819020805460ff19169055517f92f4af6130f47c92f3899e06611c8c6ef191fb81207ad2675d134af619d2fe7d906110da908690869061347f565b60035481565b6111fd6121f7565b151561120857600080fd5b816112136005612208565b158061122a5750611224600561220c565b43018110155b151561123557600080fd5b6112476010848463ffffffff6125e616565b7f599f1c845a3e9ff375e1e3c7e61a6ff2faac7ed7e9cc45db40fd2b73f53845048383604051610ef692919061360e565b6112806121f7565b151561128b57600080fd5b816112966005612208565b15806112ad57506112a7600561220c565b43018110155b15156112b857600080fd5b6112ca6014848463ffffffff6125e616565b7f46627504a56b77179118cc2fc2139516c5abaa99efc1d64afa509f91be130c458383604051610ef692919061360e565b6000546101009004600160a060020a031690565b6000610f9c600661220c565b6113236121f7565b151561132e57600080fd5b836113396005612208565b1580611350575061134a600561220c565b43018110155b151561135b57600080fd5b61136f60098686868663ffffffff61221816565b7f8dcd79c2f73c725f825147941deccba2addafb9f7f2e775777710f5debba966885858585604051610c219493929190613644565b600160a060020a0382166000908152600e602090815260408083208484529091528120610c6c90612208565b6113d861265b565b15156113e357600080fd5b80600160a060020a03811615156113f957600080fd5b600160a060020a03811630141561140f57600080fd5b600160a060020a03821660009081526002602052604090205460ff16151561143657600080fd5b600160a060020a03821660009081526002602052604090819020805460ff19169055517f777645c5437dfbf962f57a281ead25f3d513f2f8e938685bbfc1738e81c9880e90611486908490613456565b60405180910390a15050565b6000610f9c600b612208565b6114a6612e18565b6114ae6121f7565b15156114b957600080fd5b846114c46005612208565b15806114db57506114d5600561220c565b43018110155b15156114e657600080fd5b6040805180820182528681528151808301909252600160a060020a0386168252602082810186905281019190915291506115286016878463ffffffff61275616565b7f0446e894f61064d2b9ac2f66e25bc440e0bcb2c00de07a5f1b076b8ed83efa9186868686604051610de2949392919061361c565b600154600160a060020a031681565b60008061157883612671565b905061158384610cf3565b80156115b45750600160a060020a0384166000908152600260208181526040808420858552909201905290205460ff165b91505b5092915050565b6115c66121f7565b15156115d157600080fd5b836115dc6005612208565b15806115f357506115ed600561220c565b43018110155b15156115fe57600080fd5b61161260088686868663ffffffff61221816565b7fd3143532264a48ed8985128261dac4f97460a18e532266606874e734e5f9511985858585604051610c219493929190613644565b61164f6121f7565b151561165a57600080fd5b816116656005612208565b158061167c5750611676600561220c565b43018110155b151561168757600080fd5b611699600c848463ffffffff6125e616565b7f4c67330f24d50310990ba512d41f5016c43176108456cdf8b3afa5f2c56c72e18383604051610ef692919061360e565b6000610c6c6008848463ffffffff61243e16565b336116e76112fb565b600160a060020a0316146116fa57600080fd5b6000805460ff191660011790556040517fd5a2a04a775c741c2ca0dc46ea7ce4835190e1aaf1ca018def0e82568ec3361690611737903390613456565b60405180910390a1565b6117496121f7565b151561175457600080fd5b8161175f6005612208565b15806117765750611770600561220c565b43018110155b151561178157600080fd5b6117936015848463ffffffff6125e616565b7f89d1e4eeae3e50e6d57909b1ff05821c208283d43c3c6eede3463fce9801bcbf8383604051610ef692919061360e565b6117cc6121f7565b15156117d757600080fd5b816117e26005612208565b15806117f957506117f3600561220c565b43018110155b151561180457600080fd5b6118166012848463ffffffff6125e616565b7ffaae0268144aeab0eb789ad33da1cc7f926da22cdc4cfb89e4c2dcc87cf719248383604051610ef692919061360e565b61184f6121f7565b151561185a57600080fd5b816118656005612208565b158061187c5750611876600561220c565b43018110155b151561188757600080fd5b6118996005848463ffffffff6125e616565b7fb18e0b90fd56f3d1f73c768d7f107937813899fe6676f8348f996ad670b990048383604051610ef692919061360e565b6118d26121f7565b15156118dd57600080fd5b816118e86005612208565b15806118ff57506118f9600561220c565b43018110155b151561190a57600080fd5b61191c6013848463ffffffff6125e616565b7fb04162ce72310207d5c9ceced2e6df3ddd15272642b0e53af3c7e83f0d0dc4918383604051610ef692919061360e565b61195561265b565b151561196057600080fd5b60038190556040517f4f1d324a1cbffc352fb64f1d73d95e4b200d92f99ef39bf2d7f5b41f946909d6906119959083906134d6565b60405180910390a150565b600160a060020a0382166000908152600a602090815260408083208484529091528120610c6c90612208565b6000610f9c6008612208565b6000610f9c6005612208565b6000610f9c6009612208565b6000610f9c600c612208565b611a0461265b565b1515611a0f57600080fd5b80600160a060020a0381161515611a2557600080fd5b600160a060020a038116301415611a3b57600080fd5b611a4782600354612803565b7f7f3a8349917003ed377f6e9ae1608b92edd893903f8983bd274b1f8373dd3b118260035460405161148692919061349f565b611a826121f7565b1515611a8d57600080fd5b81611a986005612208565b1580611aaf5750611aa9600561220c565b43018110155b1515611aba57600080fd5b611acc6011848463ffffffff6125e616565b7f081f0b4c81d1de8d02805cc089a2d5a665837d8c19b438f4558128149df8fcfc8383604051610ef692919061360e565b6000610f9c601161220c565b6000611b1361265b565b1515611b1e57600080fd5b81600160a060020a0381161515611b3457600080fd5b600160a060020a038116301415611b4a57600080fd5b600054600160a060020a038481166101009092041614611bc25760008054600160a060020a0385811661010090810261010060a860020a0319841617909355604051929091041692507f977e5fa58e458501775e0008d275006294c5249e3c08d1d0e3a9f3acad14f6e490610ef69084908690613464565b505050565b6000610f9c601361220c565b611bdb6121f7565b1515611be657600080fd5b6018805460ff191660011790556040517f99d6c8c83d6b3086e44ac9a4cff201904eb96dc84e20289516e1d6d5f387d30c90600090a1565b6000806000611c56604080519081016040528087600160a060020a031681526020018681525087600f6128559092919063ffffffff16565b8054600190910154600160a060020a0390911697909650945050505050565b6000610f9c601561220c565b6000610c6c6009848463ffffffff61243e16565b6000610f9c6007612208565b6000611cab6121f7565b1515611cb657600080fd5b81600160a060020a0381161515611ccc57600080fd5b600160a060020a038116301415611ce257600080fd5b600154600160a060020a03848116911614611bc25760018054600160a060020a03858116600160a060020a0319831617909255604051911692507f9f611b789425d0d5b90b920f1b2852907dd865c80074a30b1629aaa041d1812c90610ef69084908690613464565b60175481565b6040805180820190915260108152608060020a6f6f7065726174696f6e616c5f6d6f646502602082015281565b60045460009060ff166001811115611d9257fe5b60015b14905090565b6000610f9c6006612208565b611daf6121f7565b1515611dba57600080fd5b83611dc56005612208565b1580611ddc5750611dd6600561220c565b43018110155b1515611de757600080fd5b600160a060020a0384166000908152600e602090815260408083208684529091529020611e1b90868463ffffffff6125e616565b7ffed51dfd288a74f4e3f4fd59cad1bb9151c6f8e27c781c703ce6ea532e3deac285858585604051610c219493929190613569565b6000610f9c600561220c565b600080600080611e6c601661286d565b805460018201546002909201549096600160a060020a0390921695509350915050565b6000546101009004600160a060020a031681565b60185460ff1681565b6000610c6f600b8363ffffffff61230b16565b6000610c6f600c8363ffffffff61230b16565b611eda6121f7565b1515611ee557600080fd5b81611ef06005612208565b1580611f075750611f01600561220c565b43018110155b1515611f1257600080fd5b611f24600b848463ffffffff6125e616565b7f3fb8054aedc542a59b81ca6dd84e6ed5a0f62964ea31cb27f2d61d7f36f2a3428383604051610ef692919061360e565b611f5d6121f7565b1515611f6857600080fd5b60178190556040517fece7c57702b5ad94b9848802d1e225954b064cd5538fd55082e3e29c29474e45906119959083906134d6565b60045460009060ff166001811115611fb157fe5b6000611d95565b611fc06121f7565b1515611fcb57600080fd5b85611fd66005612208565b1580611fed5750611fe7600561220c565b43018110155b1515611ff857600080fd5b600160a060020a0386166000908152600a60209081526040808320888452909152902061202e908886868663ffffffff61221816565b7ff3fafbde2ad0fcd494a4d98dbde01b8571066edaa67de40a48d794b0583efd0a878787878787604051612067969594939291906135a7565b60405180910390a150505050505050565b6040805180820190915260108152608060020a6f6f7065726174696f6e616c5f6d6f64650260208201526120ac338261156c565b15156120b757600080fd5b6004805460ff191660011790556040517e4feb6c9c7b4bc8e858a1e16b46315cd121d46eb476f1d2a0b79c1508b89e3290600090a150565b6000610f9c601261220c565b61210361265b565b151561210e57600080fd5b80600160a060020a038116151561212457600080fd5b600160a060020a03811630141561213a57600080fd5b612145826000612803565b7fb619d545cb511bd5f02907a1eac4f4cb8dace7b1846852fb0bf5e553937481c1826040516114869190613456565b61217c6121f7565b151561218757600080fd5b816121926005612208565b15806121a957506121a3600561220c565b43018110155b15156121b457600080fd5b6121c66006848463ffffffff6125e616565b7febf63d40c9708ad4550ba5278373615a245fcf66e7b70faf9e6b8b90396fa2c88383604051610ef692919061360e565b600154600160a060020a0316331490565b5490565b6000610c6f8243612879565b6000808251845114151561222b57600080fd5b612236878787612885565b86548790600019810190811061224857fe5b90600052602060002090600302019150600090505b83518110156122d857816002016040805190810160405280868481518110151561228357fe5b90602001906020020151815260200185848151811015156122a057fe5b60209081029091018101519091528254600181810185556000948552938290208351600290920201908155910151908201550161225d565b50505050505050565b8051600160a060020a03166000908152602092835260408082209284015182529190925290205490565b60006123178383612902565b602001519392505050565b8151600160a060020a031660009081526020858152604080832082860151845290915290205415806123b557508151600160a060020a0390811660009081526020868152604080832082870180518552908352818420875190951684528883528184209051845290915290205481546000199091019081106123a057fe5b90600052602060002090600302016000015483115b15156123c057600080fd5b8151600160a060020a0390811660009081526020958652604080822094870151825293865283812084518086019095529484528386019283528454600180820187559582529086902093516003909102909301928355905180519383018054600160a060020a03191694909216939093179055910151600290910155565b6000612448612e38565b60006124548686612954565b9150816040015151600010156125d557612472826040015185612a12565b905080600010156125d5576125ce73__ConstantsLib__________________________62a123336040518163ffffffff1660e060020a02815260040160206040518083038186803b1580156124c657600080fd5b505af41580156124da573d6000803e3d6000fd5b505050506040513d601f19601f820116820180604052506124fe91908101906130a6565b6125c26125b185604001516001860381518110151561251957fe5b906020019060200201516020015173__ConstantsLib__________________________62a123336040518163ffffffff1660e060020a02815260040160206040518083038186803b15801561256d57600080fd5b505af4158015612581573d6000803e3d6000fd5b505050506040513d601f19601f820116820180604052506125a591908101906130a6565b9063ffffffff612a6f16565b60208601519063ffffffff612aab16565b9063ffffffff612b1416565b92506125dd565b816020015192505b50509392505050565b82541580612616575082548390600019810190811061260157fe5b90600052602060002090600202016000015482115b151561262157600080fd5b6040805180820190915291825260208083019182528354600181810186556000958652919094209251600290940290920192835551910155565b6000546101009004600160a060020a0316331490565b6000816040516020018082805190602001908083835b602083106126a65780518252601f199092019160209182019101612687565b6001836020036101000a0380198251168184511680821785525050505050509050019150506040516020818303038152906040526040518082805190602001908083835b602083106127095780518252601f1990920191602091820191016126ea565b5181516020939093036101000a6000190180199091169216919091179052604051920182900390912095945050505050565b82541580612616575082548390600019810190811061260157fe5b82541580612786575082548390600019810190811061277157fe5b90600052602060002090600402016000015482115b151561279157600080fd5b604080518082019091529182526020808301918252835460018082018655600095865294829020935160049091029093019283559051805193830193909355918201518051600283018054600160a060020a031916600160a060020a0390921691909117905590910151600390910155565b600160a060020a03821660009081526002602052604090205460ff16151561285157600160a060020a0382166000908152600260205260409020805460ff1916600190811782554283019101555b5050565b6000612862848484612b49565b600101949350505050565b6000610c6f8243612b9a565b60006123178383612bb0565b825460009015806128b857508354849060001981019081106128a357fe5b90600052602060002090600302016000015483115b15156128c357600080fd5b83546128d28560018301612e5a565b508354849060001981019081106128e557fe5b600091825260209091206003909102019283555060019091015550565b61290a612e86565b826129158184612bc3565b8154811061291f57fe5b906000526020600020906002020160408051908101604052908160008201548152602001600182015481525050905092915050565b61295c612e38565b826129678184612c1b565b8154811061297157fe5b906000526020600020906003020160606040519081016040529081600082015481526020016001820154815260200160028201805480602002602001604051908101604052809291908181526020016000905b82821015612a035760008481526020908190206040805180820190915260028502909101805482526001908101548284015290835290920191016129c4565b50505091525090949350505050565b60008083516000101515612a2557600080fd5b5082515b6000811115612a65578360018203815181101515612a4357fe5b60209081029091010151518312612a5c578091506115b7565b60001901612a29565b5060009392505050565b6000808212158015612a8357508282840313155b80612a9a5750600082128015612a9a575082828403135b1515612aa557600080fd5b50900390565b60008083600019141580612ac3575060ff60020a8314155b1515612ace57600080fd5b82600019141580612ae3575060ff60020a8414155b1515612aee57600080fd5b50828202821580612b095750838382811515612b0657fe5b05145b1515610cec57600080fd5b600060ff60020a83141580612b2b57508160001914155b1515612b3657600080fd5b8183811515612b4157fe5b059392505050565b8151600160a060020a03166000908152602084815260408083208286015184529091528120612b79858585612c73565b81548110612b8357fe5b906000526020600020906003020190509392505050565b6000612ba68383612d3b565b6001019392505050565b612bb8612e86565b826129158184612d68565b815460009081908110612bd557600080fd5b508254600019015b6000811061034a578354849082908110612bf357fe5b60009182526020909120600290910201548310612c12578091506115b7565b60001901612bdd565b815460009081908110612c2d57600080fd5b508254600019015b6000811061034a578354849082908110612c4b57fe5b60009182526020909120600390910201548310612c6a578091506115b7565b60001901612c35565b8151600160a060020a031660009081526020848152604080832082860151845290915281205481908110612ca657600080fd5b508251600160a060020a0316600090815260208581526040808320828701518452909152902054600019015b6000811061034a578351600160a060020a03166000908152602086815260408083208288015184529091529020805482908110612d0b57fe5b60009182526020909120600390910201548310612d2a57809150612d33565b60001901612cd2565b509392505050565b600082612d488184612dc0565b81548110612d5257fe5b9060005260206000209060040201905092915050565b815460009081908110612d7a57600080fd5b508254600019015b6000811061034a578354849082908110612d9857fe5b60009182526020909120600290910201548310612db7578091506115b7565b60001901612d82565b815460009081908110612dd257600080fd5b508254600019015b6000811061034a578354849082908110612df057fe5b60009182526020909120600490910201548310612e0f578091506115b7565b60001901612dda565b60606040519081016040528060008152602001612e33612e86565b905290565b6060604051908101604052806000815260200160008152602001606081525090565b815481835581811115611bc257600302816003028360005260206000209182019101611bc29190612e9d565b604080518082019091526000808252602082015290565b610f9f91905b80821115612ecd57600080825560018201819055612ec46002830182612ed1565b50600301612ea3565b5090565b5080546000825560020290600052602060002090810190612ef29190612ef5565b50565b610f9f91905b80821115612ecd5760008082556001820155600201612efb565b6000610c6c82356136fc565b6000601f82018313612f3257600080fd5b8135612f45612f40826136ab565b613685565b91508181835260208401935060208101905083856020840282011115612f6a57600080fd5b60005b83811015612f965781612f808882612fa0565b8452506020928301929190910190600101612f6d565b5050505092915050565b6000610c6c8235610f9f565b6000610c6c8251610f9f565b6000601f82018313612fc957600080fd5b8135612fd7612f40826136cb565b91508082526020830160208301858383011115612ff357600080fd5b612ffe838284613724565b50505092915050565b60006020828403121561301957600080fd5b60006115b48484612f15565b6000806040838503121561303857600080fd5b60006130448585612f15565b92505060208301356001604060020a0381111561306057600080fd5b61306c85828601612fb8565b9150509250929050565b6000806040838503121561308957600080fd5b60006130958585612f15565b925050602061306c85828601612fa0565b6000602082840312156130b857600080fd5b60006115b48484612fac565b6000602082840312156130d657600080fd5b60006115b48484612fa0565b6000806000606084860312156130f757600080fd5b60006131038686612fa0565b935050602061311486828701612f15565b925050604061312586828701612fa0565b9150509250925092565b600080600080600060a0868803121561314757600080fd5b60006131538888612fa0565b955050602061316488828901612f15565b945050604061317588828901612fa0565b935050606061318688828901612f15565b925050608061319788828901612fa0565b9150509295509295909350565b600080600080608085870312156131ba57600080fd5b60006131c68787612fa0565b94505060206131d787828801612f15565b93505060406131e887828801612fa0565b92505060606131f987828801612fa0565b91505092959194509250565b60008060008060008060c0878903121561321e57600080fd5b600061322a8989612fa0565b965050602061323b89828a01612f15565b955050604061324c89828a01612fa0565b945050606061325d89828a01612fa0565b93505060808701356001604060020a0381111561327957600080fd5b61328589828a01612f21565b92505060a08701356001604060020a038111156132a157600080fd5b6132ad89828a01612f21565b9150509295509295509295565b600080604083850312156132cd57600080fd5b60006130958585612fa0565b600080600080608085870312156132ef57600080fd5b60006132fb8787612fa0565b945050602061330c87828801612fa0565b93505060406131e887828801612f15565b6000806000806080858703121561333357600080fd5b600061333f8787612fa0565b945050602061335087828801612fa0565b93505060408501356001604060020a0381111561336c57600080fd5b61337887828801612f21565b92505060608501356001604060020a0381111561339457600080fd5b6131f987828801612f21565b6133a9816136fc565b82525050565b60006133ba826136f8565b8084526020840193506133cc836136f2565b60005b828110156133fc576133e2868351613418565b6133eb826136f2565b6020969096019591506001016133cf565b5093949350505050565b6133a981613708565b6133a981613719565b6133a981610f9f565b600061342c826136f8565b808452613440816020860160208601613730565b61344981613760565b9093016020019392505050565b60208101610c6f82846133a0565b6040810161347282856133a0565b610cec60208301846133a0565b6040810161348d82856133a0565b8181036020830152610e6b8184613421565b604081016134ad82856133a0565b610cec6020830184613418565b60208101610c6f8284613406565b60208101610c6f828461340f565b60208101610c6f8284613418565b606081016134f28286613418565b6134ff60208301856133a0565b610e6b6040830184613418565b60208082528101610c6c8184613421565b60a0810161352b8288613418565b61353860208301876133a0565b6135456040830186613418565b61355260608301856133a0565b61355f6080830184613418565b9695505050505050565b608081016135778287613418565b61358460208301866133a0565b6135916040830185613418565b61359e6060830184613418565b95945050505050565b60c081016135b58289613418565b6135c260208301886133a0565b6135cf6040830187613418565b6135dc6060830186613418565b81810360808301526135ee81856133af565b905081810360a083015261360281846133af565b98975050505050505050565b604081016134ad8285613418565b6080810161362a8287613418565b6136376020830186613418565b61359160408301856133a0565b608081016136528287613418565b61365f6020830186613418565b818103604083015261367181856133af565b9050818103606083015261355f81846133af565b6040518181016001604060020a03811182821017156136a357600080fd5b604052919050565b60006001604060020a038211156136c157600080fd5b5060209081020190565b60006001604060020a038211156136e157600080fd5b506020601f91909101601f19160190565b60200190565b5190565b600160a060020a031690565b151590565b600060028210612ecd57fe5b6000610c6f8261370d565b82818337506000910152565b60005b8381101561374b578181015183820152602001613733565b8381111561375a576000848401525b50505050565b601f01601f1916905600a265627a7a723058206855dd833d2aa3295799c84f9d3dc43cbda2177ea158acd7bb4816f8b9bd00906c6578706572696d656e74616cf50037",
  "source": "/*\n * Hubii Nahmii\n *\n * Compliant with the Hubii Nahmii specification v0.12.\n *\n * Copyright (C) 2017-2018 Hubii AS\n */\n\npragma solidity ^0.4.25;\npragma experimental ABIEncoderV2;\n\nimport {Modifiable} from \"./Modifiable.sol\";\nimport {Ownable} from \"./Ownable.sol\";\nimport {Servable} from \"./Servable.sol\";\nimport {SafeMathIntLib} from \"./SafeMathIntLib.sol\";\nimport {BlockNumbUintsLib} from \"./BlockNumbUintsLib.sol\";\nimport {BlockNumbIntsLib} from \"./BlockNumbIntsLib.sol\";\nimport {BlockNumbDisdIntsLib} from \"./BlockNumbDisdIntsLib.sol\";\nimport {MonetaryTypesLib} from \"./MonetaryTypesLib.sol\";\nimport {BlockNumbReferenceCurrenciesLib} from \"./BlockNumbReferenceCurrenciesLib.sol\";\nimport {BlockNumbFiguresLib} from \"./BlockNumbFiguresLib.sol\";\nimport {ConstantsLib} from \"./ConstantsLib.sol\";\n\n/**\n * @title Configuration\n * @notice An oracle for configurations values\n */\ncontract Configuration is Modifiable, Ownable, Servable {\n    using SafeMathIntLib for int256;\n    using BlockNumbUintsLib for BlockNumbUintsLib.BlockNumbUints;\n    using BlockNumbIntsLib for BlockNumbIntsLib.BlockNumbInts;\n    using BlockNumbDisdIntsLib for BlockNumbDisdIntsLib.BlockNumbDisdInts;\n    using BlockNumbReferenceCurrenciesLib for BlockNumbReferenceCurrenciesLib.BlockNumbReferenceCurrencies;\n    using BlockNumbFiguresLib for BlockNumbFiguresLib.BlockNumbFigures;\n\n    //\n    // Constants\n    // -----------------------------------------------------------------------------------------------------------------\n    string constant public OPERATIONAL_MODE_ACTION = \"operational_mode\";\n\n    //\n    // Enums\n    // -----------------------------------------------------------------------------------------------------------------\n    enum OperationalMode {Normal, Exit}\n\n    //\n    // Variables\n    // -----------------------------------------------------------------------------------------------------------------\n    OperationalMode public operationalMode = OperationalMode.Normal;\n\n    BlockNumbUintsLib.BlockNumbUints private updateDelayBlocksByBlockNumber;\n    BlockNumbUintsLib.BlockNumbUints private confirmationBlocksByBlockNumber;\n\n    BlockNumbDisdIntsLib.BlockNumbDisdInts private tradeMakerFeeByBlockNumber;\n    BlockNumbDisdIntsLib.BlockNumbDisdInts private tradeTakerFeeByBlockNumber;\n    BlockNumbDisdIntsLib.BlockNumbDisdInts private paymentFeeByBlockNumber;\n    mapping(address => mapping(uint256 => BlockNumbDisdIntsLib.BlockNumbDisdInts)) private currencyPaymentFeeByBlockNumber;\n\n    BlockNumbIntsLib.BlockNumbInts private tradeMakerMinimumFeeByBlockNumber;\n    BlockNumbIntsLib.BlockNumbInts private tradeTakerMinimumFeeByBlockNumber;\n    BlockNumbIntsLib.BlockNumbInts private paymentMinimumFeeByBlockNumber;\n    mapping(address => mapping(uint256 => BlockNumbIntsLib.BlockNumbInts)) private currencyPaymentMinimumFeeByBlockNumber;\n\n    BlockNumbReferenceCurrenciesLib.BlockNumbReferenceCurrencies private feeCurrencyByCurrencyBlockNumber;\n\n    BlockNumbUintsLib.BlockNumbUints private walletLockTimeoutByBlockNumber;\n    BlockNumbUintsLib.BlockNumbUints private cancelOrderChallengeTimeoutByBlockNumber;\n    BlockNumbUintsLib.BlockNumbUints private settlementChallengeTimeoutByBlockNumber;\n\n    BlockNumbUintsLib.BlockNumbUints private fraudStakeFractionByBlockNumber;\n    BlockNumbUintsLib.BlockNumbUints private walletSettlementStakeFractionByBlockNumber;\n    BlockNumbUintsLib.BlockNumbUints private operatorSettlementStakeFractionByBlockNumber;\n\n    BlockNumbFiguresLib.BlockNumbFigures private operatorSettlementStakeByBlockNumber;\n\n    uint256 public earliestSettlementBlockNumber;\n    bool public earliestSettlementBlockNumberUpdateDisabled;\n\n    //\n    // Events\n    // -----------------------------------------------------------------------------------------------------------------\n    event SetOperationalModeExitEvent();\n    event SetUpdateDelayBlocksEvent(uint256 fromBlockNumber, uint256 newBlocks);\n    event SetConfirmationBlocksEvent(uint256 fromBlockNumber, uint256 newBlocks);\n    event SetTradeMakerFeeEvent(uint256 fromBlockNumber, int256 nominal, int256[] discountTiers, int256[] discountValues);\n    event SetTradeTakerFeeEvent(uint256 fromBlockNumber, int256 nominal, int256[] discountTiers, int256[] discountValues);\n    event SetPaymentFeeEvent(uint256 fromBlockNumber, int256 nominal, int256[] discountTiers, int256[] discountValues);\n    event SetCurrencyPaymentFeeEvent(uint256 fromBlockNumber, address currencyCt, uint256 currencyId, int256 nominal,\n        int256[] discountTiers, int256[] discountValues);\n    event SetTradeMakerMinimumFeeEvent(uint256 fromBlockNumber, int256 nominal);\n    event SetTradeTakerMinimumFeeEvent(uint256 fromBlockNumber, int256 nominal);\n    event SetPaymentMinimumFeeEvent(uint256 fromBlockNumber, int256 nominal);\n    event SetCurrencyPaymentMinimumFeeEvent(uint256 fromBlockNumber, address currencyCt, uint256 currencyId, int256 nominal);\n    event SetFeeCurrencyEvent(uint256 fromBlockNumber, address referenceCurrencyCt, uint256 referenceCurrencyId,\n        address feeCurrencyCt, uint256 feeCurrencyId);\n    event SetWalletLockTimeoutEvent(uint256 fromBlockNumber, uint256 timeoutInSeconds);\n    event SetCancelOrderChallengeTimeoutEvent(uint256 fromBlockNumber, uint256 timeoutInSeconds);\n    event SetSettlementChallengeTimeoutEvent(uint256 fromBlockNumber, uint256 timeoutInSeconds);\n    event SetWalletSettlementStakeFractionEvent(uint256 fromBlockNumber, uint256 stakeFraction);\n    event SetOperatorSettlementStakeFractionEvent(uint256 fromBlockNumber, uint256 stakeFraction);\n    event SetOperatorSettlementStakeEvent(uint256 fromBlockNumber, int256 stakeAmount, address stakeCurrencyCt,\n        uint256 stakeCurrencyId);\n    event SetFraudStakeFractionEvent(uint256 fromBlockNumber, uint256 stakeFraction);\n    event SetEarliestSettlementBlockNumberEvent(uint256 earliestSettlementBlockNumber);\n    event DisableEarliestSettlementBlockNumberUpdateEvent();\n\n    //\n    // Constructor\n    // -----------------------------------------------------------------------------------------------------------------\n    constructor(address deployer) Ownable(deployer) public {\n        updateDelayBlocksByBlockNumber.addEntry(block.number, 0);\n    }\n\n    //\n\n    // Public functions\n    // -----------------------------------------------------------------------------------------------------------------\n    /// @notice Set operational mode to Exit\n    /// @dev Once operational mode is set to Exit it may not be set back to Normal\n    function setOperationalModeExit()\n    public\n    onlyEnabledServiceAction(OPERATIONAL_MODE_ACTION)\n    {\n        operationalMode = OperationalMode.Exit;\n        emit SetOperationalModeExitEvent();\n    }\n\n    /// @notice Return true if operational mode is Normal\n    function isOperationalModeNormal()\n    public\n    view\n    returns (bool)\n    {\n        return OperationalMode.Normal == operationalMode;\n    }\n\n    /// @notice Return true if operational mode is Exit\n    function isOperationalModeExit()\n    public\n    view\n    returns (bool)\n    {\n        return OperationalMode.Exit == operationalMode;\n    }\n\n    /// @notice Get the current value of update delay blocks\n    /// @return The value of update delay blocks\n    function updateDelayBlocks()\n    public\n    view\n    returns (uint256)\n    {\n        return updateDelayBlocksByBlockNumber.currentValue();\n    }\n\n    /// @notice Get the count of update delay blocks values\n    /// @return The count of update delay blocks values\n    function updateDelayBlocksCount()\n    public\n    view\n    returns (uint256)\n    {\n        return updateDelayBlocksByBlockNumber.count();\n    }\n\n    /// @notice Set the number of update delay blocks\n    /// @param fromBlockNumber Block number from which the update applies\n    /// @param newUpdateDelayBlocks The new update delay blocks value\n    function setUpdateDelayBlocks(uint256 fromBlockNumber, uint256 newUpdateDelayBlocks)\n    public\n    onlyOperator\n    onlyDelayedBlockNumber(fromBlockNumber)\n    {\n        updateDelayBlocksByBlockNumber.addEntry(fromBlockNumber, newUpdateDelayBlocks);\n        emit SetUpdateDelayBlocksEvent(fromBlockNumber, newUpdateDelayBlocks);\n    }\n\n    /// @notice Get the current value of confirmation blocks\n    /// @return The value of confirmation blocks\n    function confirmationBlocks()\n    public\n    view\n    returns (uint256)\n    {\n        return confirmationBlocksByBlockNumber.currentValue();\n    }\n\n    /// @notice Get the count of confirmation blocks values\n    /// @return The count of confirmation blocks values\n    function confirmationBlocksCount()\n    public\n    view\n    returns (uint256)\n    {\n        return confirmationBlocksByBlockNumber.count();\n    }\n\n    /// @notice Set the number of confirmation blocks\n    /// @param fromBlockNumber Block number from which the update applies\n    /// @param newConfirmationBlocks The new confirmation blocks value\n    function setConfirmationBlocks(uint256 fromBlockNumber, uint256 newConfirmationBlocks)\n    public\n    onlyOperator\n    onlyDelayedBlockNumber(fromBlockNumber)\n    {\n        confirmationBlocksByBlockNumber.addEntry(fromBlockNumber, newConfirmationBlocks);\n        emit SetConfirmationBlocksEvent(fromBlockNumber, newConfirmationBlocks);\n    }\n\n    /// @notice Get number of trade maker fee block number tiers\n    function tradeMakerFeesCount()\n    public\n    view\n    returns (uint256)\n    {\n        return tradeMakerFeeByBlockNumber.count();\n    }\n\n    /// @notice Get trade maker relative fee at given block number, possibly discounted by discount tier value\n    /// @param blockNumber The concerned block number\n    /// @param discountTier The concerned discount tier\n    function tradeMakerFee(uint256 blockNumber, int256 discountTier)\n    public\n    view\n    returns (int256)\n    {\n        return tradeMakerFeeByBlockNumber.discountedValueAt(blockNumber, discountTier);\n    }\n\n    /// @notice Set trade maker nominal relative fee and discount tiers and values at given block number tier\n    /// @param fromBlockNumber Block number from which the update applies\n    /// @param nominal Nominal relative fee\n    /// @param nominal Discount tier levels\n    /// @param nominal Discount values\n    function setTradeMakerFee(uint256 fromBlockNumber, int256 nominal, int256[] discountTiers, int256[] discountValues)\n    public\n    onlyOperator\n    onlyDelayedBlockNumber(fromBlockNumber)\n    {\n        tradeMakerFeeByBlockNumber.addDiscountedEntry(fromBlockNumber, nominal, discountTiers, discountValues);\n        emit SetTradeMakerFeeEvent(fromBlockNumber, nominal, discountTiers, discountValues);\n    }\n\n    /// @notice Get number of trade taker fee block number tiers\n    function tradeTakerFeesCount()\n    public\n    view\n    returns (uint256)\n    {\n        return tradeTakerFeeByBlockNumber.count();\n    }\n\n    /// @notice Get trade taker relative fee at given block number, possibly discounted by discount tier value\n    /// @param blockNumber The concerned block number\n    /// @param discountTier The concerned discount tier\n    function tradeTakerFee(uint256 blockNumber, int256 discountTier)\n    public\n    view\n    returns (int256)\n    {\n        return tradeTakerFeeByBlockNumber.discountedValueAt(blockNumber, discountTier);\n    }\n\n    /// @notice Set trade taker nominal relative fee and discount tiers and values at given block number tier\n    /// @param fromBlockNumber Block number from which the update applies\n    /// @param nominal Nominal relative fee\n    /// @param nominal Discount tier levels\n    /// @param nominal Discount values\n    function setTradeTakerFee(uint256 fromBlockNumber, int256 nominal, int256[] discountTiers, int256[] discountValues)\n    public\n    onlyOperator\n    onlyDelayedBlockNumber(fromBlockNumber)\n    {\n        tradeTakerFeeByBlockNumber.addDiscountedEntry(fromBlockNumber, nominal, discountTiers, discountValues);\n        emit SetTradeTakerFeeEvent(fromBlockNumber, nominal, discountTiers, discountValues);\n    }\n\n    /// @notice Get number of payment fee block number tiers\n    function paymentFeesCount()\n    public\n    view\n    returns (uint256)\n    {\n        return paymentFeeByBlockNumber.count();\n    }\n\n    /// @notice Get payment relative fee at given block number, possibly discounted by discount tier value\n    /// @param blockNumber The concerned block number\n    /// @param discountTier The concerned discount tier\n    function paymentFee(uint256 blockNumber, int256 discountTier)\n    public\n    view\n    returns (int256)\n    {\n        return paymentFeeByBlockNumber.discountedValueAt(blockNumber, discountTier);\n    }\n\n    /// @notice Set payment nominal relative fee and discount tiers and values at given block number tier\n    /// @param fromBlockNumber Block number from which the update applies\n    /// @param nominal Nominal relative fee\n    /// @param nominal Discount tier levels\n    /// @param nominal Discount values\n    function setPaymentFee(uint256 fromBlockNumber, int256 nominal, int256[] discountTiers, int256[] discountValues)\n    public\n    onlyOperator\n    onlyDelayedBlockNumber(fromBlockNumber)\n    {\n        paymentFeeByBlockNumber.addDiscountedEntry(fromBlockNumber, nominal, discountTiers, discountValues);\n        emit SetPaymentFeeEvent(fromBlockNumber, nominal, discountTiers, discountValues);\n    }\n\n    /// @notice Get number of payment fee block number tiers of given currency\n    /// @param currencyCt The address of the concerned currency contract (address(0) == ETH)\n    /// @param currencyId The ID of the concerned currency (0 for ETH and ERC20)\n    function currencyPaymentFeesCount(address currencyCt, uint256 currencyId)\n    public\n    view\n    returns (uint256)\n    {\n        return currencyPaymentFeeByBlockNumber[currencyCt][currencyId].count();\n    }\n\n    /// @notice Get payment relative fee for given currency at given block number, possibly discounted by\n    /// discount tier value\n    /// @param blockNumber The concerned block number\n    /// @param currencyCt The address of the concerned currency contract (address(0) == ETH)\n    /// @param currencyId The ID of the concerned currency (0 for ETH and ERC20)\n    /// @param discountTier The concerned discount tier\n    function currencyPaymentFee(uint256 blockNumber, address currencyCt, uint256 currencyId, int256 discountTier)\n    public\n    view\n    returns (int256)\n    {\n        if (0 < currencyPaymentFeeByBlockNumber[currencyCt][currencyId].count())\n            return currencyPaymentFeeByBlockNumber[currencyCt][currencyId].discountedValueAt(\n                blockNumber, discountTier\n            );\n        else\n            return paymentFee(blockNumber, discountTier);\n    }\n\n    /// @notice Set payment nominal relative fee and discount tiers and values for given currency at given\n    /// block number tier\n    /// @param fromBlockNumber Block number from which the update applies\n    /// @param currencyCt The address of the concerned currency contract (address(0) == ETH)\n    /// @param currencyId The ID of the concerned currency (0 for ETH and ERC20)\n    /// @param nominal Nominal relative fee\n    /// @param nominal Discount tier levels\n    /// @param nominal Discount values\n    function setCurrencyPaymentFee(uint256 fromBlockNumber, address currencyCt, uint256 currencyId, int256 nominal,\n        int256[] discountTiers, int256[] discountValues)\n    public\n    onlyOperator\n    onlyDelayedBlockNumber(fromBlockNumber)\n    {\n        currencyPaymentFeeByBlockNumber[currencyCt][currencyId].addDiscountedEntry(\n            fromBlockNumber, nominal, discountTiers, discountValues\n        );\n        emit SetCurrencyPaymentFeeEvent(\n            fromBlockNumber, currencyCt, currencyId, nominal, discountTiers, discountValues\n        );\n    }\n\n    /// @notice Get number of minimum trade maker fee block number tiers\n    function tradeMakerMinimumFeesCount()\n    public\n    view\n    returns (uint256)\n    {\n        return tradeMakerMinimumFeeByBlockNumber.count();\n    }\n\n    /// @notice Get trade maker minimum relative fee at given block number\n    /// @param blockNumber The concerned block number\n    function tradeMakerMinimumFee(uint256 blockNumber)\n    public\n    view\n    returns (int256)\n    {\n        return tradeMakerMinimumFeeByBlockNumber.valueAt(blockNumber);\n    }\n\n    /// @notice Set trade maker minimum relative fee at given block number tier\n    /// @param fromBlockNumber Block number from which the update applies\n    /// @param nominal Minimum relative fee\n    function setTradeMakerMinimumFee(uint256 fromBlockNumber, int256 nominal)\n    public\n    onlyOperator\n    onlyDelayedBlockNumber(fromBlockNumber)\n    {\n        tradeMakerMinimumFeeByBlockNumber.addEntry(fromBlockNumber, nominal);\n        emit SetTradeMakerMinimumFeeEvent(fromBlockNumber, nominal);\n    }\n\n    /// @notice Get number of minimum trade taker fee block number tiers\n    function tradeTakerMinimumFeesCount()\n    public\n    view\n    returns (uint256)\n    {\n        return tradeTakerMinimumFeeByBlockNumber.count();\n    }\n\n    /// @notice Get trade taker minimum relative fee at given block number\n    /// @param blockNumber The concerned block number\n    function tradeTakerMinimumFee(uint256 blockNumber)\n    public\n    view\n    returns (int256)\n    {\n        return tradeTakerMinimumFeeByBlockNumber.valueAt(blockNumber);\n    }\n\n    /// @notice Set trade taker minimum relative fee at given block number tier\n    /// @param fromBlockNumber Block number from which the update applies\n    /// @param nominal Minimum relative fee\n    function setTradeTakerMinimumFee(uint256 fromBlockNumber, int256 nominal)\n    public\n    onlyOperator\n    onlyDelayedBlockNumber(fromBlockNumber)\n    {\n        tradeTakerMinimumFeeByBlockNumber.addEntry(fromBlockNumber, nominal);\n        emit SetTradeTakerMinimumFeeEvent(fromBlockNumber, nominal);\n    }\n\n    /// @notice Get number of minimum payment fee block number tiers\n    function paymentMinimumFeesCount()\n    public\n    view\n    returns (uint256)\n    {\n        return paymentMinimumFeeByBlockNumber.count();\n    }\n\n    /// @notice Get payment minimum relative fee at given block number\n    /// @param blockNumber The concerned block number\n    function paymentMinimumFee(uint256 blockNumber)\n    public\n    view\n    returns (int256)\n    {\n        return paymentMinimumFeeByBlockNumber.valueAt(blockNumber);\n    }\n\n    /// @notice Set payment minimum relative fee at given block number tier\n    /// @param fromBlockNumber Block number from which the update applies\n    /// @param nominal Minimum relative fee\n    function setPaymentMinimumFee(uint256 fromBlockNumber, int256 nominal)\n    public\n    onlyOperator\n    onlyDelayedBlockNumber(fromBlockNumber)\n    {\n        paymentMinimumFeeByBlockNumber.addEntry(fromBlockNumber, nominal);\n        emit SetPaymentMinimumFeeEvent(fromBlockNumber, nominal);\n    }\n\n    /// @notice Get number of minimum payment fee block number tiers for given currency\n    /// @param currencyCt The address of the concerned currency contract (address(0) == ETH)\n    /// @param currencyId The ID of the concerned currency (0 for ETH and ERC20)\n    function currencyPaymentMinimumFeesCount(address currencyCt, uint256 currencyId)\n    public\n    view\n    returns (uint256)\n    {\n        return currencyPaymentMinimumFeeByBlockNumber[currencyCt][currencyId].count();\n    }\n\n    /// @notice Get payment minimum relative fee for given currency at given block number\n    /// @param blockNumber The concerned block number\n    /// @param currencyCt The address of the concerned currency contract (address(0) == ETH)\n    /// @param currencyId The ID of the concerned currency (0 for ETH and ERC20)\n    function currencyPaymentMinimumFee(uint256 blockNumber, address currencyCt, uint256 currencyId)\n    public\n    view\n    returns (int256)\n    {\n        if (0 < currencyPaymentMinimumFeeByBlockNumber[currencyCt][currencyId].count())\n            return currencyPaymentMinimumFeeByBlockNumber[currencyCt][currencyId].valueAt(blockNumber);\n        else\n            return paymentMinimumFee(blockNumber);\n    }\n\n    /// @notice Set payment minimum relative fee for given currency at given block number tier\n    /// @param fromBlockNumber Block number from which the update applies\n    /// @param currencyCt The address of the concerned currency contract (address(0) == ETH)\n    /// @param currencyId The ID of the concerned currency (0 for ETH and ERC20)\n    /// @param nominal Minimum relative fee\n    function setCurrencyPaymentMinimumFee(uint256 fromBlockNumber, address currencyCt, uint256 currencyId, int256 nominal)\n    public\n    onlyOperator\n    onlyDelayedBlockNumber(fromBlockNumber)\n    {\n        currencyPaymentMinimumFeeByBlockNumber[currencyCt][currencyId].addEntry(fromBlockNumber, nominal);\n        emit SetCurrencyPaymentMinimumFeeEvent(fromBlockNumber, currencyCt, currencyId, nominal);\n    }\n\n    /// @notice Get number of fee currencies for the given reference currency\n    /// @param currencyCt The address of the concerned reference currency contract (address(0) == ETH)\n    /// @param currencyId The ID of the concerned reference currency (0 for ETH and ERC20)\n    function feeCurrenciesCount(address currencyCt, uint256 currencyId)\n    public\n    view\n    returns (uint256)\n    {\n        return feeCurrencyByCurrencyBlockNumber.count(MonetaryTypesLib.Currency(currencyCt, currencyId));\n    }\n\n    /// @notice Get the fee currency for the given reference currency at given block number\n    /// @param blockNumber The concerned block number\n    /// @param currencyCt The address of the concerned reference currency contract (address(0) == ETH)\n    /// @param currencyId The ID of the concerned reference currency (0 for ETH and ERC20)\n    function feeCurrency(uint256 blockNumber, address currencyCt, uint256 currencyId)\n    public\n    view\n    returns (address ct, uint256 id)\n    {\n        MonetaryTypesLib.Currency storage _feeCurrency = feeCurrencyByCurrencyBlockNumber.currencyAt(\n            MonetaryTypesLib.Currency(currencyCt, currencyId), blockNumber\n        );\n        ct = _feeCurrency.ct;\n        id = _feeCurrency.id;\n    }\n\n    /// @notice Set the fee currency for the given reference currency at given block number\n    /// @param fromBlockNumber Block number from which the update applies\n    /// @param referenceCurrencyCt The address of the concerned reference currency contract (address(0) == ETH)\n    /// @param referenceCurrencyId The ID of the concerned reference currency (0 for ETH and ERC20)\n    /// @param feeCurrencyCt The address of the concerned fee currency contract (address(0) == ETH)\n    /// @param feeCurrencyId The ID of the concerned fee currency (0 for ETH and ERC20)\n    function setFeeCurrency(uint256 fromBlockNumber, address referenceCurrencyCt, uint256 referenceCurrencyId,\n        address feeCurrencyCt, uint256 feeCurrencyId)\n    public\n    onlyOperator\n    onlyDelayedBlockNumber(fromBlockNumber)\n    {\n        feeCurrencyByCurrencyBlockNumber.addEntry(\n            fromBlockNumber,\n            MonetaryTypesLib.Currency(referenceCurrencyCt, referenceCurrencyId),\n            MonetaryTypesLib.Currency(feeCurrencyCt, feeCurrencyId)\n        );\n        emit SetFeeCurrencyEvent(fromBlockNumber, referenceCurrencyCt, referenceCurrencyId,\n            feeCurrencyCt, feeCurrencyId);\n    }\n\n    /// @notice Get the current value of wallet lock timeout\n    /// @return The value of wallet lock timeout\n    function walletLockTimeout()\n    public\n    view\n    returns (uint256)\n    {\n        return walletLockTimeoutByBlockNumber.currentValue();\n    }\n\n    /// @notice Set timeout of wallet lock\n    /// @param fromBlockNumber Block number from which the update applies\n    /// @param timeoutInSeconds Timeout duration in seconds\n    function setWalletLockTimeout(uint256 fromBlockNumber, uint256 timeoutInSeconds)\n    public\n    onlyOperator\n    onlyDelayedBlockNumber(fromBlockNumber)\n    {\n        walletLockTimeoutByBlockNumber.addEntry(fromBlockNumber, timeoutInSeconds);\n        emit SetWalletLockTimeoutEvent(fromBlockNumber, timeoutInSeconds);\n    }\n\n    /// @notice Get the current value of cancel order challenge timeout\n    /// @return The value of cancel order challenge timeout\n    function cancelOrderChallengeTimeout()\n    public\n    view\n    returns (uint256)\n    {\n        return cancelOrderChallengeTimeoutByBlockNumber.currentValue();\n    }\n\n    /// @notice Set timeout of cancel order challenge\n    /// @param fromBlockNumber Block number from which the update applies\n    /// @param timeoutInSeconds Timeout duration in seconds\n    function setCancelOrderChallengeTimeout(uint256 fromBlockNumber, uint256 timeoutInSeconds)\n    public\n    onlyOperator\n    onlyDelayedBlockNumber(fromBlockNumber)\n    {\n        cancelOrderChallengeTimeoutByBlockNumber.addEntry(fromBlockNumber, timeoutInSeconds);\n        emit SetCancelOrderChallengeTimeoutEvent(fromBlockNumber, timeoutInSeconds);\n    }\n\n    /// @notice Get the current value of settlement challenge timeout\n    /// @return The value of settlement challenge timeout\n    function settlementChallengeTimeout()\n    public\n    view\n    returns (uint256)\n    {\n        return settlementChallengeTimeoutByBlockNumber.currentValue();\n    }\n\n    /// @notice Set timeout of settlement challenges\n    /// @param fromBlockNumber Block number from which the update applies\n    /// @param timeoutInSeconds Timeout duration in seconds\n    function setSettlementChallengeTimeout(uint256 fromBlockNumber, uint256 timeoutInSeconds)\n    public\n    onlyOperator\n    onlyDelayedBlockNumber(fromBlockNumber)\n    {\n        settlementChallengeTimeoutByBlockNumber.addEntry(fromBlockNumber, timeoutInSeconds);\n        emit SetSettlementChallengeTimeoutEvent(fromBlockNumber, timeoutInSeconds);\n    }\n\n    /// @notice Get the current value of fraud stake fraction\n    /// @return The value of fraud stake fraction\n    function fraudStakeFraction()\n    public\n    view\n    returns (uint256)\n    {\n        return fraudStakeFractionByBlockNumber.currentValue();\n    }\n\n    /// @notice Set fraction of security bond that will be gained from successfully challenging\n    /// in fraud challenge\n    /// @param fromBlockNumber Block number from which the update applies\n    /// @param stakeFraction The fraction gained\n    function setFraudStakeFraction(uint256 fromBlockNumber, uint256 stakeFraction)\n    public\n    onlyOperator\n    onlyDelayedBlockNumber(fromBlockNumber)\n    {\n        fraudStakeFractionByBlockNumber.addEntry(fromBlockNumber, stakeFraction);\n        emit SetFraudStakeFractionEvent(fromBlockNumber, stakeFraction);\n    }\n\n    /// @notice Get the current value of wallet settlement stake fraction\n    /// @return The value of wallet settlement stake fraction\n    function walletSettlementStakeFraction()\n    public\n    view\n    returns (uint256)\n    {\n        return walletSettlementStakeFractionByBlockNumber.currentValue();\n    }\n\n    /// @notice Set fraction of security bond that will be gained from successfully challenging\n    /// in settlement challenge triggered by wallet\n    /// @param fromBlockNumber Block number from which the update applies\n    /// @param stakeFraction The fraction gained\n    function setWalletSettlementStakeFraction(uint256 fromBlockNumber, uint256 stakeFraction)\n    public\n    onlyOperator\n    onlyDelayedBlockNumber(fromBlockNumber)\n    {\n        walletSettlementStakeFractionByBlockNumber.addEntry(fromBlockNumber, stakeFraction);\n        emit SetWalletSettlementStakeFractionEvent(fromBlockNumber, stakeFraction);\n    }\n\n    /// @notice Get the current value of operator settlement stake fraction\n    /// @return The value of operator settlement stake fraction\n    function operatorSettlementStakeFraction()\n    public\n    view\n    returns (uint256)\n    {\n        return operatorSettlementStakeFractionByBlockNumber.currentValue();\n    }\n\n    /// @notice Set fraction of security bond that will be gained from successfully challenging\n    /// in settlement challenge triggered by operator\n    /// @param fromBlockNumber Block number from which the update applies\n    /// @param stakeFraction The fraction gained\n    function setOperatorSettlementStakeFraction(uint256 fromBlockNumber, uint256 stakeFraction)\n    public\n    onlyOperator\n    onlyDelayedBlockNumber(fromBlockNumber)\n    {\n        operatorSettlementStakeFractionByBlockNumber.addEntry(fromBlockNumber, stakeFraction);\n        emit SetOperatorSettlementStakeFractionEvent(fromBlockNumber, stakeFraction);\n    }\n\n    /// @notice Get the current value of operator settlement stake\n    /// @return The value of operator settlement stake\n    function operatorSettlementStake()\n    public\n    view\n    returns (int256 amount, address currencyCt, uint256 currencyId)\n    {\n        MonetaryTypesLib.Figure storage stake = operatorSettlementStakeByBlockNumber.currentValue();\n        amount = stake.amount;\n        currencyCt = stake.currency.ct;\n        currencyId = stake.currency.id;\n    }\n\n    /// @notice Set figure of security bond that will be gained from successfully challenging\n    /// in settlement challenge triggered by operator\n    /// @param fromBlockNumber Block number from which the update applies\n    /// @param stakeAmount The amount gained\n    /// @param stakeCurrencyCt The address of currency gained\n    /// @param stakeCurrencyId The ID of currency gained\n    function setOperatorSettlementStake(uint256 fromBlockNumber, int256 stakeAmount,\n        address stakeCurrencyCt, uint256 stakeCurrencyId)\n    public\n    onlyOperator\n    onlyDelayedBlockNumber(fromBlockNumber)\n    {\n        MonetaryTypesLib.Figure memory stake = MonetaryTypesLib.Figure(stakeAmount, MonetaryTypesLib.Currency(stakeCurrencyCt, stakeCurrencyId));\n        operatorSettlementStakeByBlockNumber.addEntry(fromBlockNumber, stake);\n        emit SetOperatorSettlementStakeEvent(fromBlockNumber, stakeAmount, stakeCurrencyCt, stakeCurrencyId);\n    }\n\n    /// @notice Set the block number of the earliest settlement initiation\n    /// @param _earliestSettlementBlockNumber The block number of the earliest settlement\n    function setEarliestSettlementBlockNumber(uint256 _earliestSettlementBlockNumber)\n    public\n    onlyOperator\n    {\n        earliestSettlementBlockNumber = _earliestSettlementBlockNumber;\n        emit SetEarliestSettlementBlockNumberEvent(earliestSettlementBlockNumber);\n    }\n\n    /// @notice Disable further updates to the earliest settlement block number\n    /// @dev This operation can not be undone\n    function disableEarliestSettlementBlockNumberUpdate()\n    public\n    onlyOperator\n    {\n        earliestSettlementBlockNumberUpdateDisabled = true;\n        emit DisableEarliestSettlementBlockNumberUpdateEvent();\n    }\n\n    //\n    // Modifiers\n    // -----------------------------------------------------------------------------------------------------------------\n    modifier onlyDelayedBlockNumber(uint256 blockNumber) {\n        require(\n            0 == updateDelayBlocksByBlockNumber.count() ||\n        blockNumber >= block.number + updateDelayBlocksByBlockNumber.currentValue()\n        );\n        _;\n    }\n}",
  "sourcePath": "/opt/buildagent/work/855e104608380c36/contracts/Configuration.sol",
  "compiler": {
    "name": "solc",
    "version": "0.4.25+commit.59dbf8f1.Emscripten.clang"
  },
  "schemaVersion": "2.0.2",
  "updatedAt": "2019-04-02T08:24:31.883Z"
}