{
  "contractName": "Configuration",
  "abi": [
    {
      "inputs": [
        {
          "internalType": "address",
          "name": "deployer",
          "type": "address"
        }
      ],
      "payable": false,
      "stateMutability": "nonpayable",
      "type": "constructor"
    },
    {
      "anonymous": false,
      "inputs": [
        {
          "indexed": false,
          "internalType": "address",
          "name": "service",
          "type": "address"
        }
      ],
      "name": "DeregisterServiceEvent",
      "type": "event"
    },
    {
      "anonymous": false,
      "inputs": [],
      "name": "DisableEarliestSettlementBlockNumberUpdateEvent",
      "type": "event"
    },
    {
      "anonymous": false,
      "inputs": [
        {
          "indexed": false,
          "internalType": "address",
          "name": "service",
          "type": "address"
        },
        {
          "indexed": false,
          "internalType": "string",
          "name": "action",
          "type": "string"
        }
      ],
      "name": "DisableServiceActionEvent",
      "type": "event"
    },
    {
      "anonymous": false,
      "inputs": [
        {
          "indexed": false,
          "internalType": "address",
          "name": "service",
          "type": "address"
        },
        {
          "indexed": false,
          "internalType": "string",
          "name": "action",
          "type": "string"
        }
      ],
      "name": "EnableServiceActionEvent",
      "type": "event"
    },
    {
      "anonymous": false,
      "inputs": [
        {
          "indexed": false,
          "internalType": "address",
          "name": "service",
          "type": "address"
        },
        {
          "indexed": false,
          "internalType": "uint256",
          "name": "timeout",
          "type": "uint256"
        }
      ],
      "name": "RegisterServiceDeferredEvent",
      "type": "event"
    },
    {
      "anonymous": false,
      "inputs": [
        {
          "indexed": false,
          "internalType": "address",
          "name": "service",
          "type": "address"
        }
      ],
      "name": "RegisterServiceEvent",
      "type": "event"
    },
    {
      "anonymous": false,
      "inputs": [
        {
          "indexed": false,
          "internalType": "address",
          "name": "wallet",
          "type": "address"
        }
      ],
      "name": "SelfDestructionDisabledEvent",
      "type": "event"
    },
    {
      "anonymous": false,
      "inputs": [
        {
          "indexed": false,
          "internalType": "uint256",
          "name": "timeoutInSeconds",
          "type": "uint256"
        }
      ],
      "name": "ServiceActivationTimeoutEvent",
      "type": "event"
    },
    {
      "anonymous": false,
      "inputs": [
        {
          "indexed": false,
          "internalType": "uint256",
          "name": "fromBlockNumber",
          "type": "uint256"
        },
        {
          "indexed": false,
          "internalType": "uint256",
          "name": "timeoutInSeconds",
          "type": "uint256"
        }
      ],
      "name": "SetCancelOrderChallengeTimeoutEvent",
      "type": "event"
    },
    {
      "anonymous": false,
      "inputs": [
        {
          "indexed": false,
          "internalType": "uint256",
          "name": "fromBlockNumber",
          "type": "uint256"
        },
        {
          "indexed": false,
          "internalType": "uint256",
          "name": "newBlocks",
          "type": "uint256"
        }
      ],
      "name": "SetConfirmationBlocksEvent",
      "type": "event"
    },
    {
      "anonymous": false,
      "inputs": [
        {
          "indexed": false,
          "internalType": "uint256",
          "name": "fromBlockNumber",
          "type": "uint256"
        },
        {
          "indexed": false,
          "internalType": "address",
          "name": "currencyCt",
          "type": "address"
        },
        {
          "indexed": false,
          "internalType": "uint256",
          "name": "currencyId",
          "type": "uint256"
        },
        {
          "indexed": false,
          "internalType": "int256",
          "name": "nominal",
          "type": "int256"
        },
        {
          "indexed": false,
          "internalType": "int256[]",
          "name": "discountTiers",
          "type": "int256[]"
        },
        {
          "indexed": false,
          "internalType": "int256[]",
          "name": "discountValues",
          "type": "int256[]"
        }
      ],
      "name": "SetCurrencyPaymentFeeEvent",
      "type": "event"
    },
    {
      "anonymous": false,
      "inputs": [
        {
          "indexed": false,
          "internalType": "uint256",
          "name": "fromBlockNumber",
          "type": "uint256"
        },
        {
          "indexed": false,
          "internalType": "address",
          "name": "currencyCt",
          "type": "address"
        },
        {
          "indexed": false,
          "internalType": "uint256",
          "name": "currencyId",
          "type": "uint256"
        },
        {
          "indexed": false,
          "internalType": "int256",
          "name": "nominal",
          "type": "int256"
        }
      ],
      "name": "SetCurrencyPaymentMinimumFeeEvent",
      "type": "event"
    },
    {
      "anonymous": false,
      "inputs": [
        {
          "indexed": false,
          "internalType": "address",
          "name": "oldDeployer",
          "type": "address"
        },
        {
          "indexed": false,
          "internalType": "address",
          "name": "newDeployer",
          "type": "address"
        }
      ],
      "name": "SetDeployerEvent",
      "type": "event"
    },
    {
      "anonymous": false,
      "inputs": [
        {
          "indexed": false,
          "internalType": "uint256",
          "name": "earliestSettlementBlockNumber",
          "type": "uint256"
        }
      ],
      "name": "SetEarliestSettlementBlockNumberEvent",
      "type": "event"
    },
    {
      "anonymous": false,
      "inputs": [
        {
          "indexed": false,
          "internalType": "uint256",
          "name": "fromBlockNumber",
          "type": "uint256"
        },
        {
          "indexed": false,
          "internalType": "address",
          "name": "referenceCurrencyCt",
          "type": "address"
        },
        {
          "indexed": false,
          "internalType": "uint256",
          "name": "referenceCurrencyId",
          "type": "uint256"
        },
        {
          "indexed": false,
          "internalType": "address",
          "name": "feeCurrencyCt",
          "type": "address"
        },
        {
          "indexed": false,
          "internalType": "uint256",
          "name": "feeCurrencyId",
          "type": "uint256"
        }
      ],
      "name": "SetFeeCurrencyEvent",
      "type": "event"
    },
    {
      "anonymous": false,
      "inputs": [
        {
          "indexed": false,
          "internalType": "uint256",
          "name": "fromBlockNumber",
          "type": "uint256"
        },
        {
          "indexed": false,
          "internalType": "uint256",
          "name": "stakeFraction",
          "type": "uint256"
        }
      ],
      "name": "SetFraudStakeFractionEvent",
      "type": "event"
    },
    {
      "anonymous": false,
      "inputs": [],
      "name": "SetOperationalModeExitEvent",
      "type": "event"
    },
    {
      "anonymous": false,
      "inputs": [
        {
          "indexed": false,
          "internalType": "address",
          "name": "oldOperator",
          "type": "address"
        },
        {
          "indexed": false,
          "internalType": "address",
          "name": "newOperator",
          "type": "address"
        }
      ],
      "name": "SetOperatorEvent",
      "type": "event"
    },
    {
      "anonymous": false,
      "inputs": [
        {
          "indexed": false,
          "internalType": "uint256",
          "name": "fromBlockNumber",
          "type": "uint256"
        },
        {
          "indexed": false,
          "internalType": "int256",
          "name": "stakeAmount",
          "type": "int256"
        },
        {
          "indexed": false,
          "internalType": "address",
          "name": "stakeCurrencyCt",
          "type": "address"
        },
        {
          "indexed": false,
          "internalType": "uint256",
          "name": "stakeCurrencyId",
          "type": "uint256"
        }
      ],
      "name": "SetOperatorSettlementStakeEvent",
      "type": "event"
    },
    {
      "anonymous": false,
      "inputs": [
        {
          "indexed": false,
          "internalType": "uint256",
          "name": "fromBlockNumber",
          "type": "uint256"
        },
        {
          "indexed": false,
          "internalType": "uint256",
          "name": "stakeFraction",
          "type": "uint256"
        }
      ],
      "name": "SetOperatorSettlementStakeFractionEvent",
      "type": "event"
    },
    {
      "anonymous": false,
      "inputs": [
        {
          "indexed": false,
          "internalType": "uint256",
          "name": "fromBlockNumber",
          "type": "uint256"
        },
        {
          "indexed": false,
          "internalType": "int256",
          "name": "nominal",
          "type": "int256"
        },
        {
          "indexed": false,
          "internalType": "int256[]",
          "name": "discountTiers",
          "type": "int256[]"
        },
        {
          "indexed": false,
          "internalType": "int256[]",
          "name": "discountValues",
          "type": "int256[]"
        }
      ],
      "name": "SetPaymentFeeEvent",
      "type": "event"
    },
    {
      "anonymous": false,
      "inputs": [
        {
          "indexed": false,
          "internalType": "uint256",
          "name": "fromBlockNumber",
          "type": "uint256"
        },
        {
          "indexed": false,
          "internalType": "int256",
          "name": "nominal",
          "type": "int256"
        }
      ],
      "name": "SetPaymentMinimumFeeEvent",
      "type": "event"
    },
    {
      "anonymous": false,
      "inputs": [
        {
          "indexed": false,
          "internalType": "uint256",
          "name": "fromBlockNumber",
          "type": "uint256"
        },
        {
          "indexed": false,
          "internalType": "uint256",
          "name": "timeoutInSeconds",
          "type": "uint256"
        }
      ],
      "name": "SetSettlementChallengeTimeoutEvent",
      "type": "event"
    },
    {
      "anonymous": false,
      "inputs": [
        {
          "indexed": false,
          "internalType": "uint256",
          "name": "fromBlockNumber",
          "type": "uint256"
        },
        {
          "indexed": false,
          "internalType": "int256",
          "name": "nominal",
          "type": "int256"
        },
        {
          "indexed": false,
          "internalType": "int256[]",
          "name": "discountTiers",
          "type": "int256[]"
        },
        {
          "indexed": false,
          "internalType": "int256[]",
          "name": "discountValues",
          "type": "int256[]"
        }
      ],
      "name": "SetTradeMakerFeeEvent",
      "type": "event"
    },
    {
      "anonymous": false,
      "inputs": [
        {
          "indexed": false,
          "internalType": "uint256",
          "name": "fromBlockNumber",
          "type": "uint256"
        },
        {
          "indexed": false,
          "internalType": "int256",
          "name": "nominal",
          "type": "int256"
        }
      ],
      "name": "SetTradeMakerMinimumFeeEvent",
      "type": "event"
    },
    {
      "anonymous": false,
      "inputs": [
        {
          "indexed": false,
          "internalType": "uint256",
          "name": "fromBlockNumber",
          "type": "uint256"
        },
        {
          "indexed": false,
          "internalType": "int256",
          "name": "nominal",
          "type": "int256"
        },
        {
          "indexed": false,
          "internalType": "int256[]",
          "name": "discountTiers",
          "type": "int256[]"
        },
        {
          "indexed": false,
          "internalType": "int256[]",
          "name": "discountValues",
          "type": "int256[]"
        }
      ],
      "name": "SetTradeTakerFeeEvent",
      "type": "event"
    },
    {
      "anonymous": false,
      "inputs": [
        {
          "indexed": false,
          "internalType": "uint256",
          "name": "fromBlockNumber",
          "type": "uint256"
        },
        {
          "indexed": false,
          "internalType": "int256",
          "name": "nominal",
          "type": "int256"
        }
      ],
      "name": "SetTradeTakerMinimumFeeEvent",
      "type": "event"
    },
    {
      "anonymous": false,
      "inputs": [
        {
          "indexed": false,
          "internalType": "uint256",
          "name": "fromBlockNumber",
          "type": "uint256"
        },
        {
          "indexed": false,
          "internalType": "uint256",
          "name": "newBlocks",
          "type": "uint256"
        }
      ],
      "name": "SetUpdateDelayBlocksEvent",
      "type": "event"
    },
    {
      "anonymous": false,
      "inputs": [
        {
          "indexed": false,
          "internalType": "uint256",
          "name": "fromBlockNumber",
          "type": "uint256"
        },
        {
          "indexed": false,
          "internalType": "uint256",
          "name": "timeoutInSeconds",
          "type": "uint256"
        }
      ],
      "name": "SetWalletLockTimeoutEvent",
      "type": "event"
    },
    {
      "anonymous": false,
      "inputs": [
        {
          "indexed": false,
          "internalType": "uint256",
          "name": "fromBlockNumber",
          "type": "uint256"
        },
        {
          "indexed": false,
          "internalType": "uint256",
          "name": "stakeFraction",
          "type": "uint256"
        }
      ],
      "name": "SetWalletSettlementStakeFractionEvent",
      "type": "event"
    },
    {
      "anonymous": false,
      "inputs": [
        {
          "indexed": false,
          "internalType": "address",
          "name": "wallet",
          "type": "address"
        }
      ],
      "name": "TriggerSelfDestructionEvent",
      "type": "event"
    },
    {
      "constant": true,
      "inputs": [],
      "name": "OPERATIONAL_MODE_ACTION",
      "outputs": [
        {
          "internalType": "string",
          "name": "",
          "type": "string"
        }
      ],
      "payable": false,
      "stateMutability": "view",
      "type": "function"
    },
    {
      "constant": true,
      "inputs": [],
      "name": "deployer",
      "outputs": [
        {
          "internalType": "address",
          "name": "",
          "type": "address"
        }
      ],
      "payable": false,
      "stateMutability": "view",
      "type": "function"
    },
    {
      "constant": false,
      "inputs": [
        {
          "internalType": "address",
          "name": "service",
          "type": "address"
        }
      ],
      "name": "deregisterService",
      "outputs": [],
      "payable": false,
      "stateMutability": "nonpayable",
      "type": "function"
    },
    {
      "constant": true,
      "inputs": [],
      "name": "destructor",
      "outputs": [
        {
          "internalType": "address",
          "name": "",
          "type": "address"
        }
      ],
      "payable": false,
      "stateMutability": "view",
      "type": "function"
    },
    {
      "constant": false,
      "inputs": [],
      "name": "disableSelfDestruction",
      "outputs": [],
      "payable": false,
      "stateMutability": "nonpayable",
      "type": "function"
    },
    {
      "constant": false,
      "inputs": [
        {
          "internalType": "address",
          "name": "service",
          "type": "address"
        },
        {
          "internalType": "string",
          "name": "action",
          "type": "string"
        }
      ],
      "name": "disableServiceAction",
      "outputs": [],
      "payable": false,
      "stateMutability": "nonpayable",
      "type": "function"
    },
    {
      "constant": true,
      "inputs": [],
      "name": "earliestSettlementBlockNumber",
      "outputs": [
        {
          "internalType": "uint256",
          "name": "",
          "type": "uint256"
        }
      ],
      "payable": false,
      "stateMutability": "view",
      "type": "function"
    },
    {
      "constant": true,
      "inputs": [],
      "name": "earliestSettlementBlockNumberUpdateDisabled",
      "outputs": [
        {
          "internalType": "bool",
          "name": "",
          "type": "bool"
        }
      ],
      "payable": false,
      "stateMutability": "view",
      "type": "function"
    },
    {
      "constant": false,
      "inputs": [
        {
          "internalType": "address",
          "name": "service",
          "type": "address"
        },
        {
          "internalType": "string",
          "name": "action",
          "type": "string"
        }
      ],
      "name": "enableServiceAction",
      "outputs": [],
      "payable": false,
      "stateMutability": "nonpayable",
      "type": "function"
    },
    {
      "constant": true,
      "inputs": [
        {
          "internalType": "address",
          "name": "service",
          "type": "address"
        },
        {
          "internalType": "string",
          "name": "action",
          "type": "string"
        }
      ],
      "name": "isEnabledServiceAction",
      "outputs": [
        {
          "internalType": "bool",
          "name": "",
          "type": "bool"
        }
      ],
      "payable": false,
      "stateMutability": "view",
      "type": "function"
    },
    {
      "constant": true,
      "inputs": [
        {
          "internalType": "address",
          "name": "service",
          "type": "address"
        }
      ],
      "name": "isRegisteredActiveService",
      "outputs": [
        {
          "internalType": "bool",
          "name": "",
          "type": "bool"
        }
      ],
      "payable": false,
      "stateMutability": "view",
      "type": "function"
    },
    {
      "constant": true,
      "inputs": [
        {
          "internalType": "address",
          "name": "service",
          "type": "address"
        }
      ],
      "name": "isRegisteredService",
      "outputs": [
        {
          "internalType": "bool",
          "name": "",
          "type": "bool"
        }
      ],
      "payable": false,
      "stateMutability": "view",
      "type": "function"
    },
    {
      "constant": true,
      "inputs": [],
      "name": "operationalMode",
      "outputs": [
        {
          "internalType": "enum Configuration.OperationalMode",
          "name": "",
          "type": "uint8"
        }
      ],
      "payable": false,
      "stateMutability": "view",
      "type": "function"
    },
    {
      "constant": true,
      "inputs": [],
      "name": "operator",
      "outputs": [
        {
          "internalType": "address",
          "name": "",
          "type": "address"
        }
      ],
      "payable": false,
      "stateMutability": "view",
      "type": "function"
    },
    {
      "constant": false,
      "inputs": [
        {
          "internalType": "address",
          "name": "service",
          "type": "address"
        }
      ],
      "name": "registerService",
      "outputs": [],
      "payable": false,
      "stateMutability": "nonpayable",
      "type": "function"
    },
    {
      "constant": false,
      "inputs": [
        {
          "internalType": "address",
          "name": "service",
          "type": "address"
        }
      ],
      "name": "registerServiceDeferred",
      "outputs": [],
      "payable": false,
      "stateMutability": "nonpayable",
      "type": "function"
    },
    {
      "constant": true,
      "inputs": [],
      "name": "selfDestructionDisabled",
      "outputs": [
        {
          "internalType": "bool",
          "name": "",
          "type": "bool"
        }
      ],
      "payable": false,
      "stateMutability": "view",
      "type": "function"
    },
    {
      "constant": true,
      "inputs": [],
      "name": "serviceActivationTimeout",
      "outputs": [
        {
          "internalType": "uint256",
          "name": "",
          "type": "uint256"
        }
      ],
      "payable": false,
      "stateMutability": "view",
      "type": "function"
    },
    {
      "constant": false,
      "inputs": [
        {
          "internalType": "address",
          "name": "newDeployer",
          "type": "address"
        }
      ],
      "name": "setDeployer",
      "outputs": [],
      "payable": false,
      "stateMutability": "nonpayable",
      "type": "function"
    },
    {
      "constant": false,
      "inputs": [
        {
          "internalType": "address",
          "name": "newOperator",
          "type": "address"
        }
      ],
      "name": "setOperator",
      "outputs": [],
      "payable": false,
      "stateMutability": "nonpayable",
      "type": "function"
    },
    {
      "constant": false,
      "inputs": [
        {
          "internalType": "uint256",
          "name": "timeoutInSeconds",
          "type": "uint256"
        }
      ],
      "name": "setServiceActivationTimeout",
      "outputs": [],
      "payable": false,
      "stateMutability": "nonpayable",
      "type": "function"
    },
    {
      "constant": false,
      "inputs": [],
      "name": "triggerSelfDestruction",
      "outputs": [],
      "payable": false,
      "stateMutability": "nonpayable",
      "type": "function"
    },
    {
      "constant": false,
      "inputs": [],
      "name": "setOperationalModeExit",
      "outputs": [],
      "payable": false,
      "stateMutability": "nonpayable",
      "type": "function"
    },
    {
      "constant": true,
      "inputs": [],
      "name": "isOperationalModeNormal",
      "outputs": [
        {
          "internalType": "bool",
          "name": "",
          "type": "bool"
        }
      ],
      "payable": false,
      "stateMutability": "view",
      "type": "function"
    },
    {
      "constant": true,
      "inputs": [],
      "name": "isOperationalModeExit",
      "outputs": [
        {
          "internalType": "bool",
          "name": "",
          "type": "bool"
        }
      ],
      "payable": false,
      "stateMutability": "view",
      "type": "function"
    },
    {
      "constant": true,
      "inputs": [],
      "name": "updateDelayBlocks",
      "outputs": [
        {
          "internalType": "uint256",
          "name": "",
          "type": "uint256"
        }
      ],
      "payable": false,
      "stateMutability": "view",
      "type": "function"
    },
    {
      "constant": true,
      "inputs": [],
      "name": "updateDelayBlocksCount",
      "outputs": [
        {
          "internalType": "uint256",
          "name": "",
          "type": "uint256"
        }
      ],
      "payable": false,
      "stateMutability": "view",
      "type": "function"
    },
    {
      "constant": false,
      "inputs": [
        {
          "internalType": "uint256",
          "name": "fromBlockNumber",
          "type": "uint256"
        },
        {
          "internalType": "uint256",
          "name": "newUpdateDelayBlocks",
          "type": "uint256"
        }
      ],
      "name": "setUpdateDelayBlocks",
      "outputs": [],
      "payable": false,
      "stateMutability": "nonpayable",
      "type": "function"
    },
    {
      "constant": true,
      "inputs": [],
      "name": "confirmationBlocks",
      "outputs": [
        {
          "internalType": "uint256",
          "name": "",
          "type": "uint256"
        }
      ],
      "payable": false,
      "stateMutability": "view",
      "type": "function"
    },
    {
      "constant": true,
      "inputs": [],
      "name": "confirmationBlocksCount",
      "outputs": [
        {
          "internalType": "uint256",
          "name": "",
          "type": "uint256"
        }
      ],
      "payable": false,
      "stateMutability": "view",
      "type": "function"
    },
    {
      "constant": false,
      "inputs": [
        {
          "internalType": "uint256",
          "name": "fromBlockNumber",
          "type": "uint256"
        },
        {
          "internalType": "uint256",
          "name": "newConfirmationBlocks",
          "type": "uint256"
        }
      ],
      "name": "setConfirmationBlocks",
      "outputs": [],
      "payable": false,
      "stateMutability": "nonpayable",
      "type": "function"
    },
    {
      "constant": true,
      "inputs": [],
      "name": "tradeMakerFeesCount",
      "outputs": [
        {
          "internalType": "uint256",
          "name": "",
          "type": "uint256"
        }
      ],
      "payable": false,
      "stateMutability": "view",
      "type": "function"
    },
    {
      "constant": true,
      "inputs": [
        {
          "internalType": "uint256",
          "name": "blockNumber",
          "type": "uint256"
        },
        {
          "internalType": "int256",
          "name": "discountTier",
          "type": "int256"
        }
      ],
      "name": "tradeMakerFee",
      "outputs": [
        {
          "internalType": "int256",
          "name": "",
          "type": "int256"
        }
      ],
      "payable": false,
      "stateMutability": "view",
      "type": "function"
    },
    {
      "constant": false,
      "inputs": [
        {
          "internalType": "uint256",
          "name": "fromBlockNumber",
          "type": "uint256"
        },
        {
          "internalType": "int256",
          "name": "nominal",
          "type": "int256"
        },
        {
          "internalType": "int256[]",
          "name": "discountTiers",
          "type": "int256[]"
        },
        {
          "internalType": "int256[]",
          "name": "discountValues",
          "type": "int256[]"
        }
      ],
      "name": "setTradeMakerFee",
      "outputs": [],
      "payable": false,
      "stateMutability": "nonpayable",
      "type": "function"
    },
    {
      "constant": true,
      "inputs": [],
      "name": "tradeTakerFeesCount",
      "outputs": [
        {
          "internalType": "uint256",
          "name": "",
          "type": "uint256"
        }
      ],
      "payable": false,
      "stateMutability": "view",
      "type": "function"
    },
    {
      "constant": true,
      "inputs": [
        {
          "internalType": "uint256",
          "name": "blockNumber",
          "type": "uint256"
        },
        {
          "internalType": "int256",
          "name": "discountTier",
          "type": "int256"
        }
      ],
      "name": "tradeTakerFee",
      "outputs": [
        {
          "internalType": "int256",
          "name": "",
          "type": "int256"
        }
      ],
      "payable": false,
      "stateMutability": "view",
      "type": "function"
    },
    {
      "constant": false,
      "inputs": [
        {
          "internalType": "uint256",
          "name": "fromBlockNumber",
          "type": "uint256"
        },
        {
          "internalType": "int256",
          "name": "nominal",
          "type": "int256"
        },
        {
          "internalType": "int256[]",
          "name": "discountTiers",
          "type": "int256[]"
        },
        {
          "internalType": "int256[]",
          "name": "discountValues",
          "type": "int256[]"
        }
      ],
      "name": "setTradeTakerFee",
      "outputs": [],
      "payable": false,
      "stateMutability": "nonpayable",
      "type": "function"
    },
    {
      "constant": true,
      "inputs": [],
      "name": "paymentFeesCount",
      "outputs": [
        {
          "internalType": "uint256",
          "name": "",
          "type": "uint256"
        }
      ],
      "payable": false,
      "stateMutability": "view",
      "type": "function"
    },
    {
      "constant": true,
      "inputs": [
        {
          "internalType": "uint256",
          "name": "blockNumber",
          "type": "uint256"
        },
        {
          "internalType": "int256",
          "name": "discountTier",
          "type": "int256"
        }
      ],
      "name": "paymentFee",
      "outputs": [
        {
          "internalType": "int256",
          "name": "",
          "type": "int256"
        }
      ],
      "payable": false,
      "stateMutability": "view",
      "type": "function"
    },
    {
      "constant": false,
      "inputs": [
        {
          "internalType": "uint256",
          "name": "fromBlockNumber",
          "type": "uint256"
        },
        {
          "internalType": "int256",
          "name": "nominal",
          "type": "int256"
        },
        {
          "internalType": "int256[]",
          "name": "discountTiers",
          "type": "int256[]"
        },
        {
          "internalType": "int256[]",
          "name": "discountValues",
          "type": "int256[]"
        }
      ],
      "name": "setPaymentFee",
      "outputs": [],
      "payable": false,
      "stateMutability": "nonpayable",
      "type": "function"
    },
    {
      "constant": true,
      "inputs": [
        {
          "internalType": "address",
          "name": "currencyCt",
          "type": "address"
        },
        {
          "internalType": "uint256",
          "name": "currencyId",
          "type": "uint256"
        }
      ],
      "name": "currencyPaymentFeesCount",
      "outputs": [
        {
          "internalType": "uint256",
          "name": "",
          "type": "uint256"
        }
      ],
      "payable": false,
      "stateMutability": "view",
      "type": "function"
    },
    {
      "constant": true,
      "inputs": [
        {
          "internalType": "uint256",
          "name": "blockNumber",
          "type": "uint256"
        },
        {
          "internalType": "address",
          "name": "currencyCt",
          "type": "address"
        },
        {
          "internalType": "uint256",
          "name": "currencyId",
          "type": "uint256"
        },
        {
          "internalType": "int256",
          "name": "discountTier",
          "type": "int256"
        }
      ],
      "name": "currencyPaymentFee",
      "outputs": [
        {
          "internalType": "int256",
          "name": "",
          "type": "int256"
        }
      ],
      "payable": false,
      "stateMutability": "view",
      "type": "function"
    },
    {
      "constant": false,
      "inputs": [
        {
          "internalType": "uint256",
          "name": "fromBlockNumber",
          "type": "uint256"
        },
        {
          "internalType": "address",
          "name": "currencyCt",
          "type": "address"
        },
        {
          "internalType": "uint256",
          "name": "currencyId",
          "type": "uint256"
        },
        {
          "internalType": "int256",
          "name": "nominal",
          "type": "int256"
        },
        {
          "internalType": "int256[]",
          "name": "discountTiers",
          "type": "int256[]"
        },
        {
          "internalType": "int256[]",
          "name": "discountValues",
          "type": "int256[]"
        }
      ],
      "name": "setCurrencyPaymentFee",
      "outputs": [],
      "payable": false,
      "stateMutability": "nonpayable",
      "type": "function"
    },
    {
      "constant": true,
      "inputs": [],
      "name": "tradeMakerMinimumFeesCount",
      "outputs": [
        {
          "internalType": "uint256",
          "name": "",
          "type": "uint256"
        }
      ],
      "payable": false,
      "stateMutability": "view",
      "type": "function"
    },
    {
      "constant": true,
      "inputs": [
        {
          "internalType": "uint256",
          "name": "blockNumber",
          "type": "uint256"
        }
      ],
      "name": "tradeMakerMinimumFee",
      "outputs": [
        {
          "internalType": "int256",
          "name": "",
          "type": "int256"
        }
      ],
      "payable": false,
      "stateMutability": "view",
      "type": "function"
    },
    {
      "constant": false,
      "inputs": [
        {
          "internalType": "uint256",
          "name": "fromBlockNumber",
          "type": "uint256"
        },
        {
          "internalType": "int256",
          "name": "nominal",
          "type": "int256"
        }
      ],
      "name": "setTradeMakerMinimumFee",
      "outputs": [],
      "payable": false,
      "stateMutability": "nonpayable",
      "type": "function"
    },
    {
      "constant": true,
      "inputs": [],
      "name": "tradeTakerMinimumFeesCount",
      "outputs": [
        {
          "internalType": "uint256",
          "name": "",
          "type": "uint256"
        }
      ],
      "payable": false,
      "stateMutability": "view",
      "type": "function"
    },
    {
      "constant": true,
      "inputs": [
        {
          "internalType": "uint256",
          "name": "blockNumber",
          "type": "uint256"
        }
      ],
      "name": "tradeTakerMinimumFee",
      "outputs": [
        {
          "internalType": "int256",
          "name": "",
          "type": "int256"
        }
      ],
      "payable": false,
      "stateMutability": "view",
      "type": "function"
    },
    {
      "constant": false,
      "inputs": [
        {
          "internalType": "uint256",
          "name": "fromBlockNumber",
          "type": "uint256"
        },
        {
          "internalType": "int256",
          "name": "nominal",
          "type": "int256"
        }
      ],
      "name": "setTradeTakerMinimumFee",
      "outputs": [],
      "payable": false,
      "stateMutability": "nonpayable",
      "type": "function"
    },
    {
      "constant": true,
      "inputs": [],
      "name": "paymentMinimumFeesCount",
      "outputs": [
        {
          "internalType": "uint256",
          "name": "",
          "type": "uint256"
        }
      ],
      "payable": false,
      "stateMutability": "view",
      "type": "function"
    },
    {
      "constant": true,
      "inputs": [
        {
          "internalType": "uint256",
          "name": "blockNumber",
          "type": "uint256"
        }
      ],
      "name": "paymentMinimumFee",
      "outputs": [
        {
          "internalType": "int256",
          "name": "",
          "type": "int256"
        }
      ],
      "payable": false,
      "stateMutability": "view",
      "type": "function"
    },
    {
      "constant": false,
      "inputs": [
        {
          "internalType": "uint256",
          "name": "fromBlockNumber",
          "type": "uint256"
        },
        {
          "internalType": "int256",
          "name": "nominal",
          "type": "int256"
        }
      ],
      "name": "setPaymentMinimumFee",
      "outputs": [],
      "payable": false,
      "stateMutability": "nonpayable",
      "type": "function"
    },
    {
      "constant": true,
      "inputs": [
        {
          "internalType": "address",
          "name": "currencyCt",
          "type": "address"
        },
        {
          "internalType": "uint256",
          "name": "currencyId",
          "type": "uint256"
        }
      ],
      "name": "currencyPaymentMinimumFeesCount",
      "outputs": [
        {
          "internalType": "uint256",
          "name": "",
          "type": "uint256"
        }
      ],
      "payable": false,
      "stateMutability": "view",
      "type": "function"
    },
    {
      "constant": true,
      "inputs": [
        {
          "internalType": "uint256",
          "name": "blockNumber",
          "type": "uint256"
        },
        {
          "internalType": "address",
          "name": "currencyCt",
          "type": "address"
        },
        {
          "internalType": "uint256",
          "name": "currencyId",
          "type": "uint256"
        }
      ],
      "name": "currencyPaymentMinimumFee",
      "outputs": [
        {
          "internalType": "int256",
          "name": "",
          "type": "int256"
        }
      ],
      "payable": false,
      "stateMutability": "view",
      "type": "function"
    },
    {
      "constant": false,
      "inputs": [
        {
          "internalType": "uint256",
          "name": "fromBlockNumber",
          "type": "uint256"
        },
        {
          "internalType": "address",
          "name": "currencyCt",
          "type": "address"
        },
        {
          "internalType": "uint256",
          "name": "currencyId",
          "type": "uint256"
        },
        {
          "internalType": "int256",
          "name": "nominal",
          "type": "int256"
        }
      ],
      "name": "setCurrencyPaymentMinimumFee",
      "outputs": [],
      "payable": false,
      "stateMutability": "nonpayable",
      "type": "function"
    },
    {
      "constant": true,
      "inputs": [
        {
          "internalType": "address",
          "name": "currencyCt",
          "type": "address"
        },
        {
          "internalType": "uint256",
          "name": "currencyId",
          "type": "uint256"
        }
      ],
      "name": "feeCurrenciesCount",
      "outputs": [
        {
          "internalType": "uint256",
          "name": "",
          "type": "uint256"
        }
      ],
      "payable": false,
      "stateMutability": "view",
      "type": "function"
    },
    {
      "constant": true,
      "inputs": [
        {
          "internalType": "uint256",
          "name": "blockNumber",
          "type": "uint256"
        },
        {
          "internalType": "address",
          "name": "currencyCt",
          "type": "address"
        },
        {
          "internalType": "uint256",
          "name": "currencyId",
          "type": "uint256"
        }
      ],
      "name": "feeCurrency",
      "outputs": [
        {
          "internalType": "address",
          "name": "ct",
          "type": "address"
        },
        {
          "internalType": "uint256",
          "name": "id",
          "type": "uint256"
        }
      ],
      "payable": false,
      "stateMutability": "view",
      "type": "function"
    },
    {
      "constant": false,
      "inputs": [
        {
          "internalType": "uint256",
          "name": "fromBlockNumber",
          "type": "uint256"
        },
        {
          "internalType": "address",
          "name": "referenceCurrencyCt",
          "type": "address"
        },
        {
          "internalType": "uint256",
          "name": "referenceCurrencyId",
          "type": "uint256"
        },
        {
          "internalType": "address",
          "name": "feeCurrencyCt",
          "type": "address"
        },
        {
          "internalType": "uint256",
          "name": "feeCurrencyId",
          "type": "uint256"
        }
      ],
      "name": "setFeeCurrency",
      "outputs": [],
      "payable": false,
      "stateMutability": "nonpayable",
      "type": "function"
    },
    {
      "constant": true,
      "inputs": [],
      "name": "walletLockTimeout",
      "outputs": [
        {
          "internalType": "uint256",
          "name": "",
          "type": "uint256"
        }
      ],
      "payable": false,
      "stateMutability": "view",
      "type": "function"
    },
    {
      "constant": false,
      "inputs": [
        {
          "internalType": "uint256",
          "name": "fromBlockNumber",
          "type": "uint256"
        },
        {
          "internalType": "uint256",
          "name": "timeoutInSeconds",
          "type": "uint256"
        }
      ],
      "name": "setWalletLockTimeout",
      "outputs": [],
      "payable": false,
      "stateMutability": "nonpayable",
      "type": "function"
    },
    {
      "constant": true,
      "inputs": [],
      "name": "cancelOrderChallengeTimeout",
      "outputs": [
        {
          "internalType": "uint256",
          "name": "",
          "type": "uint256"
        }
      ],
      "payable": false,
      "stateMutability": "view",
      "type": "function"
    },
    {
      "constant": false,
      "inputs": [
        {
          "internalType": "uint256",
          "name": "fromBlockNumber",
          "type": "uint256"
        },
        {
          "internalType": "uint256",
          "name": "timeoutInSeconds",
          "type": "uint256"
        }
      ],
      "name": "setCancelOrderChallengeTimeout",
      "outputs": [],
      "payable": false,
      "stateMutability": "nonpayable",
      "type": "function"
    },
    {
      "constant": true,
      "inputs": [],
      "name": "settlementChallengeTimeout",
      "outputs": [
        {
          "internalType": "uint256",
          "name": "",
          "type": "uint256"
        }
      ],
      "payable": false,
      "stateMutability": "view",
      "type": "function"
    },
    {
      "constant": false,
      "inputs": [
        {
          "internalType": "uint256",
          "name": "fromBlockNumber",
          "type": "uint256"
        },
        {
          "internalType": "uint256",
          "name": "timeoutInSeconds",
          "type": "uint256"
        }
      ],
      "name": "setSettlementChallengeTimeout",
      "outputs": [],
      "payable": false,
      "stateMutability": "nonpayable",
      "type": "function"
    },
    {
      "constant": true,
      "inputs": [],
      "name": "fraudStakeFraction",
      "outputs": [
        {
          "internalType": "uint256",
          "name": "",
          "type": "uint256"
        }
      ],
      "payable": false,
      "stateMutability": "view",
      "type": "function"
    },
    {
      "constant": false,
      "inputs": [
        {
          "internalType": "uint256",
          "name": "fromBlockNumber",
          "type": "uint256"
        },
        {
          "internalType": "uint256",
          "name": "stakeFraction",
          "type": "uint256"
        }
      ],
      "name": "setFraudStakeFraction",
      "outputs": [],
      "payable": false,
      "stateMutability": "nonpayable",
      "type": "function"
    },
    {
      "constant": true,
      "inputs": [],
      "name": "walletSettlementStakeFraction",
      "outputs": [
        {
          "internalType": "uint256",
          "name": "",
          "type": "uint256"
        }
      ],
      "payable": false,
      "stateMutability": "view",
      "type": "function"
    },
    {
      "constant": false,
      "inputs": [
        {
          "internalType": "uint256",
          "name": "fromBlockNumber",
          "type": "uint256"
        },
        {
          "internalType": "uint256",
          "name": "stakeFraction",
          "type": "uint256"
        }
      ],
      "name": "setWalletSettlementStakeFraction",
      "outputs": [],
      "payable": false,
      "stateMutability": "nonpayable",
      "type": "function"
    },
    {
      "constant": true,
      "inputs": [],
      "name": "operatorSettlementStakeFraction",
      "outputs": [
        {
          "internalType": "uint256",
          "name": "",
          "type": "uint256"
        }
      ],
      "payable": false,
      "stateMutability": "view",
      "type": "function"
    },
    {
      "constant": false,
      "inputs": [
        {
          "internalType": "uint256",
          "name": "fromBlockNumber",
          "type": "uint256"
        },
        {
          "internalType": "uint256",
          "name": "stakeFraction",
          "type": "uint256"
        }
      ],
      "name": "setOperatorSettlementStakeFraction",
      "outputs": [],
      "payable": false,
      "stateMutability": "nonpayable",
      "type": "function"
    },
    {
      "constant": true,
      "inputs": [],
      "name": "operatorSettlementStake",
      "outputs": [
        {
          "internalType": "int256",
          "name": "amount",
          "type": "int256"
        },
        {
          "internalType": "address",
          "name": "currencyCt",
          "type": "address"
        },
        {
          "internalType": "uint256",
          "name": "currencyId",
          "type": "uint256"
        }
      ],
      "payable": false,
      "stateMutability": "view",
      "type": "function"
    },
    {
      "constant": false,
      "inputs": [
        {
          "internalType": "uint256",
          "name": "fromBlockNumber",
          "type": "uint256"
        },
        {
          "internalType": "int256",
          "name": "stakeAmount",
          "type": "int256"
        },
        {
          "internalType": "address",
          "name": "stakeCurrencyCt",
          "type": "address"
        },
        {
          "internalType": "uint256",
          "name": "stakeCurrencyId",
          "type": "uint256"
        }
      ],
      "name": "setOperatorSettlementStake",
      "outputs": [],
      "payable": false,
      "stateMutability": "nonpayable",
      "type": "function"
    },
    {
      "constant": false,
      "inputs": [
        {
          "internalType": "uint256",
          "name": "_earliestSettlementBlockNumber",
          "type": "uint256"
        }
      ],
      "name": "setEarliestSettlementBlockNumber",
      "outputs": [],
      "payable": false,
      "stateMutability": "nonpayable",
      "type": "function"
    },
    {
      "constant": false,
      "inputs": [],
      "name": "disableEarliestSettlementBlockNumberUpdate",
      "outputs": [],
      "payable": false,
      "stateMutability": "nonpayable",
      "type": "function"
    }
  ],
  "bytecode": "0x60806040526004805460ff191690553480156200001b57600080fd5b5060405162003dd738038062003dd78339810160408190526200003e9162000188565b80806001600160a01b0381166200005457600080fd5b6001600160a01b0381163014156200006b57600080fd5b5060008054610100600160a81b0319166101006001600160a01b0393909316928302178155600180546001600160a01b031916909217909155620000c0906005904390620000c7602090811b6200240a17901c565b5062000259565b82541580620000f95750825483906000198101908110620000e457fe5b90600052602060002090600202016000015482115b6200013b576040517f08c379a0000000000000000000000000000000000000000000000000000000008152600401620001329062000212565b60405180910390fd5b6040805180820190915291825260208083019182528354600181810186556000958652919094209251600290940290920192835551910155565b805162000182816200023f565b92915050565b6000602082840312156200019b57600080fd5b6000620001a9848462000175565b949350505050565b6000620001c0602c8362000224565b7f4c6174657220656e74727920666f756e64205b426c6f636b4e756d6255696e7481527f734c69622e736f6c3a36325d0000000000000000000000000000000000000000602082015260400192915050565b602080825281016200018281620001b1565b90815260200190565b60006001600160a01b03821662000182565b6200024a816200022d565b81146200025657600080fd5b50565b613b6e80620002696000396000f3fe608060405234801561001057600080fd5b506004361061034e5760003560e01c80630783e3db146103535780630f4e74691461036857806312e5c65414610386578063158c1848146103a657806317ba3f90146103b95780631af78f09146103d95780631b6eb59f146103ec5780632585f278146103ff57806326c3acc3146104125780632738a11214610425578063273cc25f1461042d57806328b5f95c1461044057806328eb2edd1461044857806329ea3faa146104505780632b5672e3146104585780632b91e0a91461046b5780632f013a001461047e5780633b58c501146104865780633b7bea6c146104995780633b8bba6c146104a157806342399aea146104b45780634476d23b146104c7578063460a58aa146104dc5780634a6cf845146104e45780634fd9b0e5146104f757806350b08c021461050a578063543877301461051d57806354f4338014610525578063570ca735146105385780635df1b0a31461054057806363f6e017146105535780636c671a52146105665780636c98600c1461057957806370327ea11461058c57806374bcea6b14610594578063768f594c146105a757806377822840146105ba57806377bad2cf146105cd5780637e15dd5c146105e05780637e864666146105f3578063847bb18214610606578063854e7fbf1461060e578063868a674f1461061657806389eec4861461061e5780638e8cef121461062657806393d1243f14610639578063940b81001461064c57806396214735146106545780639699f337146106675780639bbb0ff21461066f578063a329fad514610677578063ac00d3b214610698578063ad086054146106a0578063b12aa343146106b3578063b3ab15fb146106bb578063b6bf4176146106ce578063b78272e0146106d6578063be189480146106eb578063c136df85146106f3578063c1959cc5146106fb578063c946b6e91461070e578063ccd03d2e14610716578063d5f394881461072d578063d7f0f97114610735578063dc7dc62c1461073d578063ecb41ad814610750578063efda7ffc14610763578063f69c70a014610776578063f71e860f14610789578063f8b37af014610791578063f8e6e888146107a4578063fbdfd8e7146107ac578063fdd9ec7d146107b4578063fe98a9dc146107c7575b600080fd5b610366610361366004613070565b6107da565b005b61037061088a565b60405161037d919061375a565b60405180910390f35b610399610394366004612dc9565b610893565b60405161037d9190613768565b6103996103b4366004612e35565b6108cf565b6103cc6103c7366004612d5a565b61094a565b60405161037d919061374c565b6103666103e7366004612e82565b610984565b6103996103fa366004612ef7565b610a5e565b61036661040d36600461300d565b610adc565b61039961042036600461300d565b610b7b565b610366610b8f565b61039961043b366004612e17565b610bf5565b610399610c08565b610399610c1a565b610399610c26565b610366610466366004612d78565b610c32565b6103cc610479366004612d5a565b610d5a565b6103cc610d78565b610366610494366004612d78565b610d81565b610399610e5b565b6103666104af36600461300d565b610e61565b6103666104c236600461300d565b610ef3565b6104cf610f85565b60405161037d91906136da565b610399610f99565b6103666104f2366004613070565b610fa5565b610399610505366004612dc9565b61103d565b610366610518366004612d5a565b611069565b610399611125565b61036661053336600461302c565b611131565b6104cf6111fe565b6103cc61054e366004612d78565b61120d565b610366610561366004613070565b61125c565b61036661057436600461300d565b6112f4565b61039961058736600461300d565b611386565b61036661139a565b6103666105a236600461300d565b6113fd565b6103666105b536600461300d565b61148f565b6103666105c836600461300d565b611521565b6103666105db36600461300d565b6115b3565b6103666105ee366004612e17565b611645565b610399610601366004612dc9565b611696565b6103996116c2565b6103996116ce565b6103996116da565b6103996116e6565b610366610634366004612d5a565b6116f2565b61036661064736600461300d565b61176c565b6103996117fe565b610366610662366004612d5a565b61180a565b6103996118c0565b6103666118cc565b61068a610685366004612e35565b611915565b60405161037d929190613731565b61039961196c565b6103996106ae36600461300d565b611978565b61039961198c565b6103666106c9366004612d5a565b611998565b610399611a3b565b6106de611a41565b60405161037d919061379e565b6103cc611a6d565b610399611a8a565b610366610709366004612ef7565b611a96565b610399611b4e565b61071e611b5a565b60405161037d93929190613776565b6104cf611b8d565b6103cc611ba1565b61039961074b366004612e17565b611baa565b61039961075e366004612e17565b611bbd565b61036661077136600461300d565b611bd0565b610366610784366004612e17565b611c62565b6103cc611ccb565b61036661079f366004612f58565b611ce6565b610366611db5565b610399611e29565b6103666107c2366004612d5a565b611e35565b6103666107d536600461300d565b611eaa565b6107e2611f3c565b6107eb57600080fd5b836107f66005611f4d565b158061080d57506108076005611f51565b43018110155b6108325760405162461bcd60e51b8152600401610829906137df565b60405180910390fd5b61084660078686868663ffffffff611f5d16565b7f8ec36e523af9a3433562968ade78ee302be3c4306c6815d30bc17fbc6f658f448585858560405161087b94939291906139b6565b60405180910390a15050505050565b60045460ff1681565b60006108c66040518060400160405280856001600160a01b0316815260200184815250600f61202f90919063ffffffff16565b90505b92915050565b6001600160a01b0382166000908152600e6020908152604080832084845290915281206108fb90611f4d565b1561093a576001600160a01b0383166000908152600e602090815260408083208584529091529020610933908563ffffffff61205916565b9050610943565b61093384610bf5565b9392505050565b600061095582610d5a565b801561097c57506001600160a01b0382166000908152600260205260409020600101544210155b90505b919050565b61098c611f3c565b61099557600080fd5b846109a06005611f4d565b15806109b757506109b16005611f51565b43018110155b6109d35760405162461bcd60e51b8152600401610829906137df565b6040805180820182526001600160a01b0380881682526020808301889052835180850190945290861683528201849052610a1791600f91899163ffffffff61207016565b7fd6db40c81246b0bc2d29bb51b5d58d3e36502ac9898ab35237d4136a5172c2b28686868686604051610a4e95949392919061388f565b60405180910390a1505050505050565b6001600160a01b0383166000908152600a602090815260408083208584529091528120610a8a90611f4d565b15610aca576001600160a01b0384166000908152600a602090815260408083208684529091529020610ac390868463ffffffff61219d16565b9050610ad4565b610ac38583611978565b949350505050565b610ae4611f3c565b610aed57600080fd5b81610af86005611f4d565b1580610b0f5750610b096005611f51565b43018110155b610b2b5760405162461bcd60e51b8152600401610829906137df565b610b3d600d848463ffffffff61233e16565b7f8db08e27454fa2b4fb1a49c88f48d25b6561af54f240ad2f3beb4887830f1e9d8383604051610b6e929190613980565b60405180910390a1505050565b60006108c66007848463ffffffff61219d16565b33610b98610f85565b6001600160a01b031614610bab57600080fd5b60005460ff1615610bbb57600080fd5b7f787a5d936e74f4b564b9153575886059829c78cd9927b1be5e0d976b317ef73633604051610bea91906136e8565b60405180910390a133ff5b600061097c600d8363ffffffff61205916565b6000610c146014611f51565b90505b90565b6000610c14600d611f4d565b6000610c146010611f51565b610c3a6123c4565b610c4357600080fd5b816001600160a01b038116610c5757600080fd5b6001600160a01b038116301415610c6d57600080fd5b6001600160a01b03831660009081526002602052604090205460ff16610c9257600080fd5b6000610c9d836123da565b6001600160a01b0385166000908152600260208181526040808420858552909201905290205490915060ff1615610cd357600080fd5b6001600160a01b03841660009081526002602081815260408084208585528084018352818520805460ff19166001908117909155938352600301805493840181558452922001829055517fec1b982d69bfc1a6fd8becf191d9a633486c822d3bdedd52303ca81fa635750190610d4c9086908690613711565b60405180910390a150505050565b6001600160a01b031660009081526002602052604090205460ff1690565b60005460ff1681565b610d896123c4565b610d9257600080fd5b816001600160a01b038116610da657600080fd5b6001600160a01b038116301415610dbc57600080fd5b6000610dc7836123da565b6001600160a01b0385166000908152600260208181526040808420858552909201905290205490915060ff16610dfc57600080fd5b6001600160a01b0384166000908152600260208181526040808420858552909201905290819020805460ff19169055517f92f4af6130f47c92f3899e06611c8c6ef191fb81207ad2675d134af619d2fe7d90610d4c9086908690613711565b60035481565b610e69611f3c565b610e7257600080fd5b81610e7d6005611f4d565b1580610e945750610e8e6005611f51565b43018110155b610eb05760405162461bcd60e51b8152600401610829906137df565b610ec26010848463ffffffff61240a16565b7f599f1c845a3e9ff375e1e3c7e61a6ff2faac7ed7e9cc45db40fd2b73f53845048383604051610b6e929190613980565b610efb611f3c565b610f0457600080fd5b81610f0f6005611f4d565b1580610f265750610f206005611f51565b43018110155b610f425760405162461bcd60e51b8152600401610829906137df565b610f546014848463ffffffff61240a16565b7f46627504a56b77179118cc2fc2139516c5abaa99efc1d64afa509f91be130c458383604051610b6e929190613980565b60005461010090046001600160a01b031690565b6000610c146006611f51565b610fad611f3c565b610fb657600080fd5b83610fc16005611f4d565b1580610fd85750610fd26005611f51565b43018110155b610ff45760405162461bcd60e51b8152600401610829906137df565b61100860098686868663ffffffff611f5d16565b7f8dcd79c2f73c725f825147941deccba2addafb9f7f2e775777710f5debba96688585858560405161087b94939291906139b6565b6001600160a01b0382166000908152600e6020908152604080832084845290915281206108c690611f4d565b6110716123c4565b61107a57600080fd5b806001600160a01b03811661108e57600080fd5b6001600160a01b0381163014156110a457600080fd5b6001600160a01b03821660009081526002602052604090205460ff166110c957600080fd5b6001600160a01b03821660009081526002602052604090819020805460ff19169055517f777645c5437dfbf962f57a281ead25f3d513f2f8e938685bbfc1738e81c9880e906111199084906136da565b60405180910390a15050565b6000610c14600b611f4d565b611139611f3c565b61114257600080fd5b8361114d6005611f4d565b1580611164575061115e6005611f51565b43018110155b6111805760405162461bcd60e51b8152600401610829906137df565b611188612b51565b5060408051808201825285815281518083019092526001600160a01b038516825260208281018590528101919091526111c96016878363ffffffff61245616565b7f0446e894f61064d2b9ac2f66e25bc440e0bcb2c00de07a5f1b076b8ed83efa9186868686604051610a4e949392919061398e565b6001546001600160a01b031681565b600080611219836123da565b90506112248461094a565b8015610ad457506001600160a01b0384166000908152600260208181526040808420858552909201905290205460ff16949350505050565b611264611f3c565b61126d57600080fd5b836112786005611f4d565b158061128f57506112896005611f51565b43018110155b6112ab5760405162461bcd60e51b8152600401610829906137df565b6112bf60088686868663ffffffff611f5d16565b7fd3143532264a48ed8985128261dac4f97460a18e532266606874e734e5f951198585858560405161087b94939291906139b6565b6112fc611f3c565b61130557600080fd5b816113106005611f4d565b158061132757506113216005611f51565b43018110155b6113435760405162461bcd60e51b8152600401610829906137df565b611355600c848463ffffffff61233e16565b7f4c67330f24d50310990ba512d41f5016c43176108456cdf8b3afa5f2c56c72e18383604051610b6e929190613980565b60006108c66008848463ffffffff61219d16565b336113a3610f85565b6001600160a01b0316146113b657600080fd5b6000805460ff191660011790556040517fd5a2a04a775c741c2ca0dc46ea7ce4835190e1aaf1ca018def0e82568ec33616906113f39033906136e8565b60405180910390a1565b611405611f3c565b61140e57600080fd5b816114196005611f4d565b1580611430575061142a6005611f51565b43018110155b61144c5760405162461bcd60e51b8152600401610829906137df565b61145e6015848463ffffffff61240a16565b7f89d1e4eeae3e50e6d57909b1ff05821c208283d43c3c6eede3463fce9801bcbf8383604051610b6e929190613980565b611497611f3c565b6114a057600080fd5b816114ab6005611f4d565b15806114c257506114bc6005611f51565b43018110155b6114de5760405162461bcd60e51b8152600401610829906137df565b6114f06012848463ffffffff61240a16565b7ffaae0268144aeab0eb789ad33da1cc7f926da22cdc4cfb89e4c2dcc87cf719248383604051610b6e929190613980565b611529611f3c565b61153257600080fd5b8161153d6005611f4d565b1580611554575061154e6005611f51565b43018110155b6115705760405162461bcd60e51b8152600401610829906137df565b6115826005848463ffffffff61240a16565b7fb18e0b90fd56f3d1f73c768d7f107937813899fe6676f8348f996ad670b990048383604051610b6e929190613980565b6115bb611f3c565b6115c457600080fd5b816115cf6005611f4d565b15806115e657506115e06005611f51565b43018110155b6116025760405162461bcd60e51b8152600401610829906137df565b6116146013848463ffffffff61240a16565b7fb04162ce72310207d5c9ceced2e6df3ddd15272642b0e53af3c7e83f0d0dc4918383604051610b6e929190613980565b61164d6123c4565b61165657600080fd5b60038190556040517f4f1d324a1cbffc352fb64f1d73d95e4b200d92f99ef39bf2d7f5b41f946909d69061168b908390613768565b60405180910390a150565b6001600160a01b0382166000908152600a6020908152604080832084845290915281206108c690611f4d565b6000610c146008611f4d565b6000610c146005611f4d565b6000610c146009611f4d565b6000610c14600c611f4d565b6116fa6123c4565b61170357600080fd5b806001600160a01b03811661171757600080fd5b6001600160a01b03811630141561172d57600080fd5b61173982600354612514565b7f7f3a8349917003ed377f6e9ae1608b92edd893903f8983bd274b1f8373dd3b1182600354604051611119929190613731565b611774611f3c565b61177d57600080fd5b816117886005611f4d565b158061179f57506117996005611f51565b43018110155b6117bb5760405162461bcd60e51b8152600401610829906137df565b6117cd6011848463ffffffff61240a16565b7f081f0b4c81d1de8d02805cc089a2d5a665837d8c19b438f4558128149df8fcfc8383604051610b6e929190613980565b6000610c146011611f51565b6118126123c4565b61181b57600080fd5b806001600160a01b03811661182f57600080fd5b6001600160a01b03811630141561184557600080fd5b6000546001600160a01b0383811661010090920416146118bc57600080546001600160a01b03848116610100908102610100600160a81b03198416179093556040519290910416907f977e5fa58e458501775e0008d275006294c5249e3c08d1d0e3a9f3acad14f6e490610b6e90839086906136f6565b5050565b6000610c146013611f51565b6118d4611f3c565b6118dd57600080fd5b6018805460ff191660011790556040517f99d6c8c83d6b3086e44ac9a4cff201904eb96dc84e20289516e1d6d5f387d30c90600090a1565b600080600061194d6040518060400160405280876001600160a01b031681526020018681525087600f6125639092919063ffffffff16565b80546001909101546001600160a01b0390911697909650945050505050565b6000610c146015611f51565b60006108c66009848463ffffffff61219d16565b6000610c146007611f4d565b6119a0611f3c565b6119a957600080fd5b806001600160a01b0381166119bd57600080fd5b6001600160a01b0381163014156119d357600080fd5b6001546001600160a01b038381169116146118bc57600180546001600160a01b038481166001600160a01b03198316179092556040519116907f9f611b789425d0d5b90b920f1b2852907dd865c80074a30b1629aaa041d1812c90610b6e90839086906136f6565b60175481565b6040518060400160405280601081526020016f6f7065726174696f6e616c5f6d6f646560801b81525081565b60045460009060ff166001811115611a8157fe5b60015b14905090565b6000610c146006611f4d565b611a9e611f3c565b611aa757600080fd5b83611ab26005611f4d565b1580611ac95750611ac36005611f51565b43018110155b611ae55760405162461bcd60e51b8152600401610829906137df565b6001600160a01b0384166000908152600e602090815260408083208684529091529020611b1990868463ffffffff61233e16565b7ffed51dfd288a74f4e3f4fd59cad1bb9151c6f8e27c781c703ce6ea532e3deac28585858560405161087b94939291906138db565b6000610c146005611f51565b600080600080611b6a601661257b565b8054600182015460029092015490966001600160a01b0390921695509350915050565b60005461010090046001600160a01b031681565b60185460ff1681565b600061097c600b8363ffffffff61205916565b600061097c600c8363ffffffff61205916565b611bd8611f3c565b611be157600080fd5b81611bec6005611f4d565b1580611c035750611bfd6005611f51565b43018110155b611c1f5760405162461bcd60e51b8152600401610829906137df565b611c31600b848463ffffffff61233e16565b7f3fb8054aedc542a59b81ca6dd84e6ed5a0f62964ea31cb27f2d61d7f36f2a3428383604051610b6e929190613980565b611c6a611f3c565b611c7357600080fd5b60185460ff1615611c965760405162461bcd60e51b8152600401610829906137bf565b60178190556040517fece7c57702b5ad94b9848802d1e225954b064cd5538fd55082e3e29c29474e459061168b908390613768565b60045460009060ff166001811115611cdf57fe5b6000611a84565b611cee611f3c565b611cf757600080fd5b85611d026005611f4d565b1580611d195750611d136005611f51565b43018110155b611d355760405162461bcd60e51b8152600401610829906137df565b6001600160a01b0386166000908152600a602090815260408083208884529091529020611d6b908886868663ffffffff611f5d16565b7ff3fafbde2ad0fcd494a4d98dbde01b8571066edaa67de40a48d794b0583efd0a878787878787604051611da496959493929190613919565b60405180910390a150505050505050565b6040518060400160405280601081526020016f6f7065726174696f6e616c5f6d6f646560801b815250611de8338261120d565b611df157600080fd5b6004805460ff191660011790556040517e4feb6c9c7b4bc8e858a1e16b46315cd121d46eb476f1d2a0b79c1508b89e3290600090a150565b6000610c146012611f51565b611e3d6123c4565b611e4657600080fd5b806001600160a01b038116611e5a57600080fd5b6001600160a01b038116301415611e7057600080fd5b611e7b826000612514565b7fb619d545cb511bd5f02907a1eac4f4cb8dace7b1846852fb0bf5e553937481c18260405161111991906136da565b611eb2611f3c565b611ebb57600080fd5b81611ec66005611f4d565b1580611edd5750611ed76005611f51565b43018110155b611ef95760405162461bcd60e51b8152600401610829906137df565b611f0b6006848463ffffffff61240a16565b7febf63d40c9708ad4550ba5278373615a245fcf66e7b70faf9e6b8b90396fa2c88383604051610b6e929190613980565b6001546001600160a01b0316331490565b5490565b600061097c8243612587565b8051825114611f7e5760405162461bcd60e51b81526004016108299061383f565b611f89858585612593565b845460009086906000198101908110611f9e57fe5b60009182526020822060039091020191505b835181101561202657816002016040518060400160405280868481518110611fd457fe5b60200260200101518152602001858481518110611fed57fe5b60209081029190910181015190915282546001818101855560009485529382902083516002909202019081559101519082015501611fb0565b50505050505050565b80516001600160a01b03166000908152602092835260408082209284015182529190925290205490565b60006120658383612621565b602001519392505050565b81516001600160a01b03166000908152602085815260408083208286015184529091529020541580612103575081516001600160a01b0390811660009081526020868152604080832082870180518552908352818420875190951684528883528184209051845290915290205481546000199091019081106120ee57fe5b90600052602060002090600302016000015483115b61211f5760405162461bcd60e51b8152600401610829906137ef565b81516001600160a01b03908116600090815260209586526040808220948701518252938652838120845180860190955294845283860192835284546001808201875595825290869020935160039091029093019283559051805193830180546001600160a01b03191694909216939093179055910151600290910155565b60006121a7612b70565b6121b18585612673565b604081015151909150156123335760006121cf826040015185612737565b905080156123275761231e73__ConstantsLib__________________________62a123336040518163ffffffff1660e01b815260040160206040518083038186803b15801561221d57600080fd5b505af4158015612231573d6000803e3d6000fd5b505050506040513d601f19601f820116820180604052506122559190810190612df9565b6123126123018560400151600186038151811061226e57fe5b60200260200101516020015173__ConstantsLib__________________________62a123336040518163ffffffff1660e01b815260040160206040518083038186803b1580156122bd57600080fd5b505af41580156122d1573d6000803e3d6000fd5b505050506040513d601f19601f820116820180604052506122f59190810190612df9565b9063ffffffff61279e16565b60208601519063ffffffff6127d816565b9063ffffffff61283716565b92505050610943565b50602001519050610943565b602001519050610943565b8254158061236e575082548390600019810190811061235957fe5b90600052602060002090600202016000015482115b61238a5760405162461bcd60e51b81526004016108299061386f565b6040805180820190915291825260208083019182528354600181810186556000958652919094209251600290940290920192835551910155565b60005461010090046001600160a01b0316331490565b6000816040516020016123ed91906136ce565b604051602081830303815290604052805190602001209050919050565b8254158061243a575082548390600019810190811061242557fe5b90600052602060002090600202016000015482115b61238a5760405162461bcd60e51b8152600401610829906137af565b82541580612486575082548390600019810190811061247157fe5b90600052602060002090600402016000015482115b6124a25760405162461bcd60e51b81526004016108299061380f565b6040805180820190915291825260208083019182528354600180820186556000958652948290209351600490910290930192835590518051938301939093559182015180516002830180546001600160a01b0319166001600160a01b0390921691909117905590910151600390910155565b6001600160a01b03821660009081526002602052604090205460ff166118bc576001600160a01b0382166000908152600260205260409020805460ff1916600190811782554283019101555050565b6000612570848484612868565b600101949350505050565b600061097c82436128b9565b600061206583836128cf565b825415806125c357508254839060001981019081106125ae57fe5b90600052602060002090600302016000015482115b6125df5760405162461bcd60e51b81526004016108299061385f565b82546125ee8460018301612b91565b5082546000908490600019810190811061260457fe5b600091825260209091206003909102019283555060019091015550565b612629612bc2565b8261263481846128e2565b8154811061263e57fe5b906000526020600020906002020160405180604001604052908160008201548152602001600182015481525050905092915050565b61267b612b70565b826126868184612941565b8154811061269057fe5b9060005260206000209060030201604051806060016040529081600082015481526020016001820154815260200160028201805480602002602001604051908101604052809291908181526020016000905b82821015612728578382906000526020600020906002020160405180604001604052908160008201548152602001600182015481525050815260200190600101906126e2565b50505091525090949350505050565b6000825160001061275a5760405162461bcd60e51b81526004016108299061387f565b82515b80156127945783600182038151811061277257fe5b602002602001015160000151831261278b5790506108c9565b6000190161275d565b5060009392505050565b60008082121580156127b257508282840313155b806127c957506000821280156127c9575082828403135b6127d257600080fd5b50900390565b6000826000191415806127ef5750600160ff1b8214155b6127f857600080fd5b8160001914158061280d5750600160ff1b8314155b61281657600080fd5b82820282158061282e57508383828161282b57fe5b05145b6108c657600080fd5b6000600160ff1b8314158061284e57508160001914155b61285757600080fd5b81838161286057fe5b059392505050565b81516001600160a01b031660009081526020848152604080832082860151845290915281206128988585856129a0565b815481106128a257fe5b906000526020600020906003020190509392505050565b60006128c58383612a66565b6001019392505050565b6128d7612bc2565b826126348184612a93565b81546000906129035760405162461bcd60e51b8152600401610829906137ff565b8254600019015b83600001818154811061291957fe5b90600052602060002090600202016000015483106129385790506108c9565b6000190161290a565b81546000906129625760405162461bcd60e51b81526004016108299061382f565b8254600019015b83600001818154811061297857fe5b90600052602060002090600302016000015483106129975790506108c9565b60001901612969565b81516001600160a01b03166000908152602084815260408083208286015184529091528120546129e25760405162461bcd60e51b81526004016108299061381f565b82516001600160a01b0316600090815260208581526040808320828701518452909152902054600019015b83516001600160a01b03166000908152602086815260408083208288015184529091529020805482908110612a3e57fe5b9060005260206000209060030201600001548310612a5d579050610943565b60001901612a0d565b600082612a738184612af2565b81548110612a7d57fe5b9060005260206000209060040201905092915050565b8154600090612ab45760405162461bcd60e51b8152600401610829906137cf565b8254600019015b836000018181548110612aca57fe5b9060005260206000209060020201600001548310612ae95790506108c9565b60001901612abb565b8154600090612b135760405162461bcd60e51b81526004016108299061384f565b8254600019015b836000018181548110612b2957fe5b9060005260206000209060040201600001548310612b485790506108c9565b60001901612b1a565b604051806040016040528060008152602001612b6b612bdc565b905290565b60405180606001604052806000815260200160008152602001606081525090565b815481835581811115612bbd57600302816003028360005260206000209182019101612bbd9190612bf3565b505050565b604051806040016040528060008152602001600081525090565b604080518082019091526000808252602082015290565b610c1791905b80821115612c2357600080825560018201819055612c1a6002830182612c27565b50600301612bf9565b5090565b5080546000825560020290600052602060002090810190612c489190612c4b565b50565b610c1791905b80821115612c235760008082556001820155600201612c51565b80356108c981613b0e565b600082601f830112612c8757600080fd5b8135612c9a612c9582613a1d565b6139f7565b91508181835260208401935060208101905083856020840282011115612cbf57600080fd5b60005b83811015612ceb5781612cd58882612cf5565b8452506020928301929190910190600101612cc2565b5050505092915050565b80356108c981613b22565b80516108c981613b22565b600082601f830112612d1c57600080fd5b8135612d2a612c9582613a3d565b91508082526020830160208301858383011115612d4657600080fd5b612d51838284613abe565b50505092915050565b600060208284031215612d6c57600080fd5b6000610ad48484612c6b565b60008060408385031215612d8b57600080fd5b6000612d978585612c6b565b92505060208301356001600160401b03811115612db357600080fd5b612dbf85828601612d0b565b9150509250929050565b60008060408385031215612ddc57600080fd5b6000612de88585612c6b565b9250506020612dbf85828601612cf5565b600060208284031215612e0b57600080fd5b6000610ad48484612d00565b600060208284031215612e2957600080fd5b6000610ad48484612cf5565b600080600060608486031215612e4a57600080fd5b6000612e568686612cf5565b9350506020612e6786828701612c6b565b9250506040612e7886828701612cf5565b9150509250925092565b600080600080600060a08688031215612e9a57600080fd5b6000612ea68888612cf5565b9550506020612eb788828901612c6b565b9450506040612ec888828901612cf5565b9350506060612ed988828901612c6b565b9250506080612eea88828901612cf5565b9150509295509295909350565b60008060008060808587031215612f0d57600080fd5b6000612f198787612cf5565b9450506020612f2a87828801612c6b565b9350506040612f3b87828801612cf5565b9250506060612f4c87828801612cf5565b91505092959194509250565b60008060008060008060c08789031215612f7157600080fd5b6000612f7d8989612cf5565b9650506020612f8e89828a01612c6b565b9550506040612f9f89828a01612cf5565b9450506060612fb089828a01612cf5565b93505060808701356001600160401b03811115612fcc57600080fd5b612fd889828a01612c76565b92505060a08701356001600160401b03811115612ff457600080fd5b61300089828a01612c76565b9150509295509295509295565b6000806040838503121561302057600080fd5b6000612de88585612cf5565b6000806000806080858703121561304257600080fd5b600061304e8787612cf5565b945050602061305f87828801612cf5565b9350506040612f3b87828801612c6b565b6000806000806080858703121561308657600080fd5b60006130928787612cf5565b94505060206130a387828801612cf5565b93505060408501356001600160401b038111156130bf57600080fd5b6130cb87828801612c76565b92505060608501356001600160401b038111156130e757600080fd5b612f4c87828801612c76565b60006130ff838361318a565b505060200190565b61311081613a9d565b82525050565b61311081613a77565b600061312a82613a6a565b6131348185613a6e565b935061313f83613a64565b8060005b8381101561316d57815161315788826130f3565b975061316283613a64565b925050600101613143565b509495945050505050565b61311081613a82565b61311081613aa8565b61311081610c17565b600061319e82613a6a565b6131a88185613a6e565b93506131b8818560208601613aca565b6131c181613afa565b9093019392505050565b60006131d682613a6a565b6131e0818561097f565b93506131f0818560208601613aca565b9290920192915050565b6000613207602c83613a6e565b7f4c6174657220656e74727920666f756e64205b426c6f636b4e756d6255696e7481526b734c69622e736f6c3a36325d60a01b602082015260400192915050565b6000613255604883613a6e565b7f4561726c6965737420736574746c656d656e7420626c6f636b206e756d62657281527f207570646174652064697361626c6564205b436f6e66696775726174696f6e2e602082015267736f6c3a3731355d60c01b604082015260600192915050565b60006132c5602b83613a6e565b7f4e6f20656e747269657320666f756e64205b426c6f636b4e756d6255696e747381526a4c69622e736f6c3a39325d60a81b602082015260400192915050565b6000613312603d83613a6e565b7f426c6f636b206e756d626572206e6f742073756666696369656e746c7920646581527f6c61796564205b436f6e66696775726174696f6e2e736f6c3a3733355d000000602082015260400192915050565b6000613371604783613a6e565b7f4c6174657220656e74727920666f756e6420666f722063757272656e6379205b81527f426c6f636b4e756d625265666572656e636543757272656e636965734c69622e602082015266736f6c3a36375d60c81b604082015260600192915050565b60006133e0602a83613a6e565b7f4e6f20656e747269657320666f756e64205b426c6f636b4e756d62496e74734c81526969622e736f6c3a39325d60b01b602082015260400192915050565b600061342c602e83613a6e565b7f4c6174657220656e74727920666f756e64205b426c6f636b4e756d624669677581526d7265734c69622e736f6c3a36355d60901b602082015260400192915050565b600061347c604683613a6e565b7f4e6f20656e747269657320666f756e6420666f722063757272656e6379205b4281527f6c6f636b4e756d625265666572656e636543757272656e636965734c69622e736020820152656f6c3a39375d60d01b604082015260600192915050565b60006134ea602f83613a6e565b7f4e6f20656e747269657320666f756e64205b426c6f636b4e756d62446973644981526e6e74734c69622e736f6c3a3134385d60881b602082015260400192915050565b600061353b603f83613a6e565b7f506172616d65746572206172726179206c656e67746873206d69736d6174636881527f205b426c6f636b4e756d6244697364496e74734c69622e736f6c3a3131385d00602082015260400192915050565b600061359a602d83613a6e565b7f4e6f20656e747269657320666f756e64205b426c6f636b4e756d62466967757281526c65734c69622e736f6c3a39355d60981b602082015260400192915050565b60006135e9603083613a6e565b7f4c6174657220656e74727920666f756e64205b426c6f636b4e756d624469736481526f496e74734c69622e736f6c3a3130315d60801b602082015260400192915050565b600061363b602b83613a6e565b7f4c6174657220656e74727920666f756e64205b426c6f636b4e756d62496e747381526a4c69622e736f6c3a36325d60a81b602082015260400192915050565b6000613688603183613a6e565b7f4e6f20646973636f756e747320666f756e64205b426c6f636b4e756d6244697381527064496e74734c69622e736f6c3a3136315d60781b602082015260400192915050565b600061094382846131cb565b602081016108c98284613116565b602081016108c98284613107565b604081016137048285613116565b6109436020830184613116565b6040810161371f8285613116565b8181036020830152610ad48184613193565b6040810161373f8285613116565b610943602083018461318a565b602081016108c98284613178565b602081016108c98284613181565b602081016108c9828461318a565b60608101613784828661318a565b6137916020830185613116565b610ad4604083018461318a565b602080825281016108c68184613193565b6020808252810161097c816131fa565b6020808252810161097c81613248565b6020808252810161097c816132b8565b6020808252810161097c81613305565b6020808252810161097c81613364565b6020808252810161097c816133d3565b6020808252810161097c8161341f565b6020808252810161097c8161346f565b6020808252810161097c816134dd565b6020808252810161097c8161352e565b6020808252810161097c8161358d565b6020808252810161097c816135dc565b6020808252810161097c8161362e565b6020808252810161097c8161367b565b60a0810161389d828861318a565b6138aa6020830187613116565b6138b7604083018661318a565b6138c46060830185613116565b6138d1608083018461318a565b9695505050505050565b608081016138e9828761318a565b6138f66020830186613116565b613903604083018561318a565b613910606083018461318a565b95945050505050565b60c08101613927828961318a565b6139346020830188613116565b613941604083018761318a565b61394e606083018661318a565b8181036080830152613960818561311f565b905081810360a0830152613974818461311f565b98975050505050505050565b6040810161373f828561318a565b6080810161399c828761318a565b6139a9602083018661318a565b6139036040830185613116565b608081016139c4828761318a565b6139d1602083018661318a565b81810360408301526139e3818561311f565b905081810360608301526138d1818461311f565b6040518181016001600160401b0381118282101715613a1557600080fd5b604052919050565b60006001600160401b03821115613a3357600080fd5b5060209081020190565b60006001600160401b03821115613a5357600080fd5b506020601f91909101601f19160190565b60200190565b5190565b90815260200190565b600061097c82613a91565b151590565b8061097f81613b04565b6001600160a01b031690565b600061097c82613ab3565b600061097c82613a87565b600061097c82613a77565b82818337506000910152565b60005b83811015613ae5578181015183820152602001613acd565b83811115613af4576000848401525b50505050565b601f01601f191690565b60028110612c4857fe5b613b1781613a77565b8114612c4857600080fd5b613b1781610c1756fea365627a7a72315820229c88e82b563abb765b57557e31e9799adb7bcf54e02e1f3ad23ab2d90edfaa6c6578706572696d656e74616cf564736f6c634300050c0040",
  "source": "/*\n * Hubii Nahmii\n *\n * Compliant with the Hubii Nahmii specification v0.12.\n *\n * Copyright (C) 2017-2018 Hubii AS\n */\n\npragma solidity >=0.4.25 <0.6.0;\npragma experimental ABIEncoderV2;\n\nimport {Modifiable} from \"./Modifiable.sol\";\nimport {Ownable} from \"./Ownable.sol\";\nimport {Servable} from \"./Servable.sol\";\nimport {SafeMathIntLib} from \"./SafeMathIntLib.sol\";\nimport {BlockNumbUintsLib} from \"./BlockNumbUintsLib.sol\";\nimport {BlockNumbIntsLib} from \"./BlockNumbIntsLib.sol\";\nimport {BlockNumbDisdIntsLib} from \"./BlockNumbDisdIntsLib.sol\";\nimport {MonetaryTypesLib} from \"./MonetaryTypesLib.sol\";\nimport {BlockNumbReferenceCurrenciesLib} from \"./BlockNumbReferenceCurrenciesLib.sol\";\nimport {BlockNumbFiguresLib} from \"./BlockNumbFiguresLib.sol\";\nimport {ConstantsLib} from \"./ConstantsLib.sol\";\n\n/**\n * @title Configuration\n * @notice An oracle for configurations values\n */\ncontract Configuration is Modifiable, Ownable, Servable {\n    using SafeMathIntLib for int256;\n    using BlockNumbUintsLib for BlockNumbUintsLib.BlockNumbUints;\n    using BlockNumbIntsLib for BlockNumbIntsLib.BlockNumbInts;\n    using BlockNumbDisdIntsLib for BlockNumbDisdIntsLib.BlockNumbDisdInts;\n    using BlockNumbReferenceCurrenciesLib for BlockNumbReferenceCurrenciesLib.BlockNumbReferenceCurrencies;\n    using BlockNumbFiguresLib for BlockNumbFiguresLib.BlockNumbFigures;\n\n    //\n    // Constants\n    // -----------------------------------------------------------------------------------------------------------------\n    string constant public OPERATIONAL_MODE_ACTION = \"operational_mode\";\n\n    //\n    // Enums\n    // -----------------------------------------------------------------------------------------------------------------\n    enum OperationalMode {Normal, Exit}\n\n    //\n    // Variables\n    // -----------------------------------------------------------------------------------------------------------------\n    OperationalMode public operationalMode = OperationalMode.Normal;\n\n    BlockNumbUintsLib.BlockNumbUints private updateDelayBlocksByBlockNumber;\n    BlockNumbUintsLib.BlockNumbUints private confirmationBlocksByBlockNumber;\n\n    BlockNumbDisdIntsLib.BlockNumbDisdInts private tradeMakerFeeByBlockNumber;\n    BlockNumbDisdIntsLib.BlockNumbDisdInts private tradeTakerFeeByBlockNumber;\n    BlockNumbDisdIntsLib.BlockNumbDisdInts private paymentFeeByBlockNumber;\n    mapping(address => mapping(uint256 => BlockNumbDisdIntsLib.BlockNumbDisdInts)) private currencyPaymentFeeByBlockNumber;\n\n    BlockNumbIntsLib.BlockNumbInts private tradeMakerMinimumFeeByBlockNumber;\n    BlockNumbIntsLib.BlockNumbInts private tradeTakerMinimumFeeByBlockNumber;\n    BlockNumbIntsLib.BlockNumbInts private paymentMinimumFeeByBlockNumber;\n    mapping(address => mapping(uint256 => BlockNumbIntsLib.BlockNumbInts)) private currencyPaymentMinimumFeeByBlockNumber;\n\n    BlockNumbReferenceCurrenciesLib.BlockNumbReferenceCurrencies private feeCurrencyByCurrencyBlockNumber;\n\n    BlockNumbUintsLib.BlockNumbUints private walletLockTimeoutByBlockNumber;\n    BlockNumbUintsLib.BlockNumbUints private cancelOrderChallengeTimeoutByBlockNumber;\n    BlockNumbUintsLib.BlockNumbUints private settlementChallengeTimeoutByBlockNumber;\n\n    BlockNumbUintsLib.BlockNumbUints private fraudStakeFractionByBlockNumber;\n    BlockNumbUintsLib.BlockNumbUints private walletSettlementStakeFractionByBlockNumber;\n    BlockNumbUintsLib.BlockNumbUints private operatorSettlementStakeFractionByBlockNumber;\n\n    BlockNumbFiguresLib.BlockNumbFigures private operatorSettlementStakeByBlockNumber;\n\n    uint256 public earliestSettlementBlockNumber;\n    bool public earliestSettlementBlockNumberUpdateDisabled;\n\n    //\n    // Events\n    // -----------------------------------------------------------------------------------------------------------------\n    event SetOperationalModeExitEvent();\n    event SetUpdateDelayBlocksEvent(uint256 fromBlockNumber, uint256 newBlocks);\n    event SetConfirmationBlocksEvent(uint256 fromBlockNumber, uint256 newBlocks);\n    event SetTradeMakerFeeEvent(uint256 fromBlockNumber, int256 nominal, int256[] discountTiers, int256[] discountValues);\n    event SetTradeTakerFeeEvent(uint256 fromBlockNumber, int256 nominal, int256[] discountTiers, int256[] discountValues);\n    event SetPaymentFeeEvent(uint256 fromBlockNumber, int256 nominal, int256[] discountTiers, int256[] discountValues);\n    event SetCurrencyPaymentFeeEvent(uint256 fromBlockNumber, address currencyCt, uint256 currencyId, int256 nominal,\n        int256[] discountTiers, int256[] discountValues);\n    event SetTradeMakerMinimumFeeEvent(uint256 fromBlockNumber, int256 nominal);\n    event SetTradeTakerMinimumFeeEvent(uint256 fromBlockNumber, int256 nominal);\n    event SetPaymentMinimumFeeEvent(uint256 fromBlockNumber, int256 nominal);\n    event SetCurrencyPaymentMinimumFeeEvent(uint256 fromBlockNumber, address currencyCt, uint256 currencyId, int256 nominal);\n    event SetFeeCurrencyEvent(uint256 fromBlockNumber, address referenceCurrencyCt, uint256 referenceCurrencyId,\n        address feeCurrencyCt, uint256 feeCurrencyId);\n    event SetWalletLockTimeoutEvent(uint256 fromBlockNumber, uint256 timeoutInSeconds);\n    event SetCancelOrderChallengeTimeoutEvent(uint256 fromBlockNumber, uint256 timeoutInSeconds);\n    event SetSettlementChallengeTimeoutEvent(uint256 fromBlockNumber, uint256 timeoutInSeconds);\n    event SetWalletSettlementStakeFractionEvent(uint256 fromBlockNumber, uint256 stakeFraction);\n    event SetOperatorSettlementStakeFractionEvent(uint256 fromBlockNumber, uint256 stakeFraction);\n    event SetOperatorSettlementStakeEvent(uint256 fromBlockNumber, int256 stakeAmount, address stakeCurrencyCt,\n        uint256 stakeCurrencyId);\n    event SetFraudStakeFractionEvent(uint256 fromBlockNumber, uint256 stakeFraction);\n    event SetEarliestSettlementBlockNumberEvent(uint256 earliestSettlementBlockNumber);\n    event DisableEarliestSettlementBlockNumberUpdateEvent();\n\n    //\n    // Constructor\n    // -----------------------------------------------------------------------------------------------------------------\n    constructor(address deployer) Ownable(deployer) public {\n        updateDelayBlocksByBlockNumber.addEntry(block.number, 0);\n    }\n\n    //\n    // Public functions\n    // -----------------------------------------------------------------------------------------------------------------\n    /// @notice Set operational mode to Exit\n    /// @dev Once operational mode is set to Exit it may not be set back to Normal\n    function setOperationalModeExit()\n    public\n    onlyEnabledServiceAction(OPERATIONAL_MODE_ACTION)\n    {\n        operationalMode = OperationalMode.Exit;\n        emit SetOperationalModeExitEvent();\n    }\n\n    /// @notice Return true if operational mode is Normal\n    function isOperationalModeNormal()\n    public\n    view\n    returns (bool)\n    {\n        return OperationalMode.Normal == operationalMode;\n    }\n\n    /// @notice Return true if operational mode is Exit\n    function isOperationalModeExit()\n    public\n    view\n    returns (bool)\n    {\n        return OperationalMode.Exit == operationalMode;\n    }\n\n    /// @notice Get the current value of update delay blocks\n    /// @return The value of update delay blocks\n    function updateDelayBlocks()\n    public\n    view\n    returns (uint256)\n    {\n        return updateDelayBlocksByBlockNumber.currentValue();\n    }\n\n    /// @notice Get the count of update delay blocks values\n    /// @return The count of update delay blocks values\n    function updateDelayBlocksCount()\n    public\n    view\n    returns (uint256)\n    {\n        return updateDelayBlocksByBlockNumber.count();\n    }\n\n    /// @notice Set the number of update delay blocks\n    /// @param fromBlockNumber Block number from which the update applies\n    /// @param newUpdateDelayBlocks The new update delay blocks value\n    function setUpdateDelayBlocks(uint256 fromBlockNumber, uint256 newUpdateDelayBlocks)\n    public\n    onlyOperator\n    onlyDelayedBlockNumber(fromBlockNumber)\n    {\n        updateDelayBlocksByBlockNumber.addEntry(fromBlockNumber, newUpdateDelayBlocks);\n        emit SetUpdateDelayBlocksEvent(fromBlockNumber, newUpdateDelayBlocks);\n    }\n\n    /// @notice Get the current value of confirmation blocks\n    /// @return The value of confirmation blocks\n    function confirmationBlocks()\n    public\n    view\n    returns (uint256)\n    {\n        return confirmationBlocksByBlockNumber.currentValue();\n    }\n\n    /// @notice Get the count of confirmation blocks values\n    /// @return The count of confirmation blocks values\n    function confirmationBlocksCount()\n    public\n    view\n    returns (uint256)\n    {\n        return confirmationBlocksByBlockNumber.count();\n    }\n\n    /// @notice Set the number of confirmation blocks\n    /// @param fromBlockNumber Block number from which the update applies\n    /// @param newConfirmationBlocks The new confirmation blocks value\n    function setConfirmationBlocks(uint256 fromBlockNumber, uint256 newConfirmationBlocks)\n    public\n    onlyOperator\n    onlyDelayedBlockNumber(fromBlockNumber)\n    {\n        confirmationBlocksByBlockNumber.addEntry(fromBlockNumber, newConfirmationBlocks);\n        emit SetConfirmationBlocksEvent(fromBlockNumber, newConfirmationBlocks);\n    }\n\n    /// @notice Get number of trade maker fee block number tiers\n    function tradeMakerFeesCount()\n    public\n    view\n    returns (uint256)\n    {\n        return tradeMakerFeeByBlockNumber.count();\n    }\n\n    /// @notice Get trade maker relative fee at given block number, possibly discounted by discount tier value\n    /// @param blockNumber The concerned block number\n    /// @param discountTier The concerned discount tier\n    function tradeMakerFee(uint256 blockNumber, int256 discountTier)\n    public\n    view\n    returns (int256)\n    {\n        return tradeMakerFeeByBlockNumber.discountedValueAt(blockNumber, discountTier);\n    }\n\n    /// @notice Set trade maker nominal relative fee and discount tiers and values at given block number tier\n    /// @param fromBlockNumber Block number from which the update applies\n    /// @param nominal Nominal relative fee\n    /// @param nominal Discount tier levels\n    /// @param nominal Discount values\n    function setTradeMakerFee(uint256 fromBlockNumber, int256 nominal, int256[] memory discountTiers, int256[] memory discountValues)\n    public\n    onlyOperator\n    onlyDelayedBlockNumber(fromBlockNumber)\n    {\n        tradeMakerFeeByBlockNumber.addDiscountedEntry(fromBlockNumber, nominal, discountTiers, discountValues);\n        emit SetTradeMakerFeeEvent(fromBlockNumber, nominal, discountTiers, discountValues);\n    }\n\n    /// @notice Get number of trade taker fee block number tiers\n    function tradeTakerFeesCount()\n    public\n    view\n    returns (uint256)\n    {\n        return tradeTakerFeeByBlockNumber.count();\n    }\n\n    /// @notice Get trade taker relative fee at given block number, possibly discounted by discount tier value\n    /// @param blockNumber The concerned block number\n    /// @param discountTier The concerned discount tier\n    function tradeTakerFee(uint256 blockNumber, int256 discountTier)\n    public\n    view\n    returns (int256)\n    {\n        return tradeTakerFeeByBlockNumber.discountedValueAt(blockNumber, discountTier);\n    }\n\n    /// @notice Set trade taker nominal relative fee and discount tiers and values at given block number tier\n    /// @param fromBlockNumber Block number from which the update applies\n    /// @param nominal Nominal relative fee\n    /// @param nominal Discount tier levels\n    /// @param nominal Discount values\n    function setTradeTakerFee(uint256 fromBlockNumber, int256 nominal, int256[] memory discountTiers, int256[] memory discountValues)\n    public\n    onlyOperator\n    onlyDelayedBlockNumber(fromBlockNumber)\n    {\n        tradeTakerFeeByBlockNumber.addDiscountedEntry(fromBlockNumber, nominal, discountTiers, discountValues);\n        emit SetTradeTakerFeeEvent(fromBlockNumber, nominal, discountTiers, discountValues);\n    }\n\n    /// @notice Get number of payment fee block number tiers\n    function paymentFeesCount()\n    public\n    view\n    returns (uint256)\n    {\n        return paymentFeeByBlockNumber.count();\n    }\n\n    /// @notice Get payment relative fee at given block number, possibly discounted by discount tier value\n    /// @param blockNumber The concerned block number\n    /// @param discountTier The concerned discount tier\n    function paymentFee(uint256 blockNumber, int256 discountTier)\n    public\n    view\n    returns (int256)\n    {\n        return paymentFeeByBlockNumber.discountedValueAt(blockNumber, discountTier);\n    }\n\n    /// @notice Set payment nominal relative fee and discount tiers and values at given block number tier\n    /// @param fromBlockNumber Block number from which the update applies\n    /// @param nominal Nominal relative fee\n    /// @param nominal Discount tier levels\n    /// @param nominal Discount values\n    function setPaymentFee(uint256 fromBlockNumber, int256 nominal, int256[] memory discountTiers, int256[] memory discountValues)\n    public\n    onlyOperator\n    onlyDelayedBlockNumber(fromBlockNumber)\n    {\n        paymentFeeByBlockNumber.addDiscountedEntry(fromBlockNumber, nominal, discountTiers, discountValues);\n        emit SetPaymentFeeEvent(fromBlockNumber, nominal, discountTiers, discountValues);\n    }\n\n    /// @notice Get number of payment fee block number tiers of given currency\n    /// @param currencyCt The address of the concerned currency contract (address(0) == ETH)\n    /// @param currencyId The ID of the concerned currency (0 for ETH and ERC20)\n    function currencyPaymentFeesCount(address currencyCt, uint256 currencyId)\n    public\n    view\n    returns (uint256)\n    {\n        return currencyPaymentFeeByBlockNumber[currencyCt][currencyId].count();\n    }\n\n    /// @notice Get payment relative fee for given currency at given block number, possibly discounted by\n    /// discount tier value\n    /// @param blockNumber The concerned block number\n    /// @param currencyCt The address of the concerned currency contract (address(0) == ETH)\n    /// @param currencyId The ID of the concerned currency (0 for ETH and ERC20)\n    /// @param discountTier The concerned discount tier\n    function currencyPaymentFee(uint256 blockNumber, address currencyCt, uint256 currencyId, int256 discountTier)\n    public\n    view\n    returns (int256)\n    {\n        if (0 < currencyPaymentFeeByBlockNumber[currencyCt][currencyId].count())\n            return currencyPaymentFeeByBlockNumber[currencyCt][currencyId].discountedValueAt(\n                blockNumber, discountTier\n            );\n        else\n            return paymentFee(blockNumber, discountTier);\n    }\n\n    /// @notice Set payment nominal relative fee and discount tiers and values for given currency at given\n    /// block number tier\n    /// @param fromBlockNumber Block number from which the update applies\n    /// @param currencyCt The address of the concerned currency contract (address(0) == ETH)\n    /// @param currencyId The ID of the concerned currency (0 for ETH and ERC20)\n    /// @param nominal Nominal relative fee\n    /// @param nominal Discount tier levels\n    /// @param nominal Discount values\n    function setCurrencyPaymentFee(uint256 fromBlockNumber, address currencyCt, uint256 currencyId, int256 nominal,\n        int256[] memory discountTiers, int256[] memory discountValues)\n    public\n    onlyOperator\n    onlyDelayedBlockNumber(fromBlockNumber)\n    {\n        currencyPaymentFeeByBlockNumber[currencyCt][currencyId].addDiscountedEntry(\n            fromBlockNumber, nominal, discountTiers, discountValues\n        );\n        emit SetCurrencyPaymentFeeEvent(\n            fromBlockNumber, currencyCt, currencyId, nominal, discountTiers, discountValues\n        );\n    }\n\n    /// @notice Get number of minimum trade maker fee block number tiers\n    function tradeMakerMinimumFeesCount()\n    public\n    view\n    returns (uint256)\n    {\n        return tradeMakerMinimumFeeByBlockNumber.count();\n    }\n\n    /// @notice Get trade maker minimum relative fee at given block number\n    /// @param blockNumber The concerned block number\n    function tradeMakerMinimumFee(uint256 blockNumber)\n    public\n    view\n    returns (int256)\n    {\n        return tradeMakerMinimumFeeByBlockNumber.valueAt(blockNumber);\n    }\n\n    /// @notice Set trade maker minimum relative fee at given block number tier\n    /// @param fromBlockNumber Block number from which the update applies\n    /// @param nominal Minimum relative fee\n    function setTradeMakerMinimumFee(uint256 fromBlockNumber, int256 nominal)\n    public\n    onlyOperator\n    onlyDelayedBlockNumber(fromBlockNumber)\n    {\n        tradeMakerMinimumFeeByBlockNumber.addEntry(fromBlockNumber, nominal);\n        emit SetTradeMakerMinimumFeeEvent(fromBlockNumber, nominal);\n    }\n\n    /// @notice Get number of minimum trade taker fee block number tiers\n    function tradeTakerMinimumFeesCount()\n    public\n    view\n    returns (uint256)\n    {\n        return tradeTakerMinimumFeeByBlockNumber.count();\n    }\n\n    /// @notice Get trade taker minimum relative fee at given block number\n    /// @param blockNumber The concerned block number\n    function tradeTakerMinimumFee(uint256 blockNumber)\n    public\n    view\n    returns (int256)\n    {\n        return tradeTakerMinimumFeeByBlockNumber.valueAt(blockNumber);\n    }\n\n    /// @notice Set trade taker minimum relative fee at given block number tier\n    /// @param fromBlockNumber Block number from which the update applies\n    /// @param nominal Minimum relative fee\n    function setTradeTakerMinimumFee(uint256 fromBlockNumber, int256 nominal)\n    public\n    onlyOperator\n    onlyDelayedBlockNumber(fromBlockNumber)\n    {\n        tradeTakerMinimumFeeByBlockNumber.addEntry(fromBlockNumber, nominal);\n        emit SetTradeTakerMinimumFeeEvent(fromBlockNumber, nominal);\n    }\n\n    /// @notice Get number of minimum payment fee block number tiers\n    function paymentMinimumFeesCount()\n    public\n    view\n    returns (uint256)\n    {\n        return paymentMinimumFeeByBlockNumber.count();\n    }\n\n    /// @notice Get payment minimum relative fee at given block number\n    /// @param blockNumber The concerned block number\n    function paymentMinimumFee(uint256 blockNumber)\n    public\n    view\n    returns (int256)\n    {\n        return paymentMinimumFeeByBlockNumber.valueAt(blockNumber);\n    }\n\n    /// @notice Set payment minimum relative fee at given block number tier\n    /// @param fromBlockNumber Block number from which the update applies\n    /// @param nominal Minimum relative fee\n    function setPaymentMinimumFee(uint256 fromBlockNumber, int256 nominal)\n    public\n    onlyOperator\n    onlyDelayedBlockNumber(fromBlockNumber)\n    {\n        paymentMinimumFeeByBlockNumber.addEntry(fromBlockNumber, nominal);\n        emit SetPaymentMinimumFeeEvent(fromBlockNumber, nominal);\n    }\n\n    /// @notice Get number of minimum payment fee block number tiers for given currency\n    /// @param currencyCt The address of the concerned currency contract (address(0) == ETH)\n    /// @param currencyId The ID of the concerned currency (0 for ETH and ERC20)\n    function currencyPaymentMinimumFeesCount(address currencyCt, uint256 currencyId)\n    public\n    view\n    returns (uint256)\n    {\n        return currencyPaymentMinimumFeeByBlockNumber[currencyCt][currencyId].count();\n    }\n\n    /// @notice Get payment minimum relative fee for given currency at given block number\n    /// @param blockNumber The concerned block number\n    /// @param currencyCt The address of the concerned currency contract (address(0) == ETH)\n    /// @param currencyId The ID of the concerned currency (0 for ETH and ERC20)\n    function currencyPaymentMinimumFee(uint256 blockNumber, address currencyCt, uint256 currencyId)\n    public\n    view\n    returns (int256)\n    {\n        if (0 < currencyPaymentMinimumFeeByBlockNumber[currencyCt][currencyId].count())\n            return currencyPaymentMinimumFeeByBlockNumber[currencyCt][currencyId].valueAt(blockNumber);\n        else\n            return paymentMinimumFee(blockNumber);\n    }\n\n    /// @notice Set payment minimum relative fee for given currency at given block number tier\n    /// @param fromBlockNumber Block number from which the update applies\n    /// @param currencyCt The address of the concerned currency contract (address(0) == ETH)\n    /// @param currencyId The ID of the concerned currency (0 for ETH and ERC20)\n    /// @param nominal Minimum relative fee\n    function setCurrencyPaymentMinimumFee(uint256 fromBlockNumber, address currencyCt, uint256 currencyId, int256 nominal)\n    public\n    onlyOperator\n    onlyDelayedBlockNumber(fromBlockNumber)\n    {\n        currencyPaymentMinimumFeeByBlockNumber[currencyCt][currencyId].addEntry(fromBlockNumber, nominal);\n        emit SetCurrencyPaymentMinimumFeeEvent(fromBlockNumber, currencyCt, currencyId, nominal);\n    }\n\n    /// @notice Get number of fee currencies for the given reference currency\n    /// @param currencyCt The address of the concerned reference currency contract (address(0) == ETH)\n    /// @param currencyId The ID of the concerned reference currency (0 for ETH and ERC20)\n    function feeCurrenciesCount(address currencyCt, uint256 currencyId)\n    public\n    view\n    returns (uint256)\n    {\n        return feeCurrencyByCurrencyBlockNumber.count(MonetaryTypesLib.Currency(currencyCt, currencyId));\n    }\n\n    /// @notice Get the fee currency for the given reference currency at given block number\n    /// @param blockNumber The concerned block number\n    /// @param currencyCt The address of the concerned reference currency contract (address(0) == ETH)\n    /// @param currencyId The ID of the concerned reference currency (0 for ETH and ERC20)\n    function feeCurrency(uint256 blockNumber, address currencyCt, uint256 currencyId)\n    public\n    view\n    returns (address ct, uint256 id)\n    {\n        MonetaryTypesLib.Currency storage _feeCurrency = feeCurrencyByCurrencyBlockNumber.currencyAt(\n            MonetaryTypesLib.Currency(currencyCt, currencyId), blockNumber\n        );\n        ct = _feeCurrency.ct;\n        id = _feeCurrency.id;\n    }\n\n    /// @notice Set the fee currency for the given reference currency at given block number\n    /// @param fromBlockNumber Block number from which the update applies\n    /// @param referenceCurrencyCt The address of the concerned reference currency contract (address(0) == ETH)\n    /// @param referenceCurrencyId The ID of the concerned reference currency (0 for ETH and ERC20)\n    /// @param feeCurrencyCt The address of the concerned fee currency contract (address(0) == ETH)\n    /// @param feeCurrencyId The ID of the concerned fee currency (0 for ETH and ERC20)\n    function setFeeCurrency(uint256 fromBlockNumber, address referenceCurrencyCt, uint256 referenceCurrencyId,\n        address feeCurrencyCt, uint256 feeCurrencyId)\n    public\n    onlyOperator\n    onlyDelayedBlockNumber(fromBlockNumber)\n    {\n        feeCurrencyByCurrencyBlockNumber.addEntry(\n            fromBlockNumber,\n            MonetaryTypesLib.Currency(referenceCurrencyCt, referenceCurrencyId),\n            MonetaryTypesLib.Currency(feeCurrencyCt, feeCurrencyId)\n        );\n        emit SetFeeCurrencyEvent(fromBlockNumber, referenceCurrencyCt, referenceCurrencyId,\n            feeCurrencyCt, feeCurrencyId);\n    }\n\n    /// @notice Get the current value of wallet lock timeout\n    /// @return The value of wallet lock timeout\n    function walletLockTimeout()\n    public\n    view\n    returns (uint256)\n    {\n        return walletLockTimeoutByBlockNumber.currentValue();\n    }\n\n    /// @notice Set timeout of wallet lock\n    /// @param fromBlockNumber Block number from which the update applies\n    /// @param timeoutInSeconds Timeout duration in seconds\n    function setWalletLockTimeout(uint256 fromBlockNumber, uint256 timeoutInSeconds)\n    public\n    onlyOperator\n    onlyDelayedBlockNumber(fromBlockNumber)\n    {\n        walletLockTimeoutByBlockNumber.addEntry(fromBlockNumber, timeoutInSeconds);\n        emit SetWalletLockTimeoutEvent(fromBlockNumber, timeoutInSeconds);\n    }\n\n    /// @notice Get the current value of cancel order challenge timeout\n    /// @return The value of cancel order challenge timeout\n    function cancelOrderChallengeTimeout()\n    public\n    view\n    returns (uint256)\n    {\n        return cancelOrderChallengeTimeoutByBlockNumber.currentValue();\n    }\n\n    /// @notice Set timeout of cancel order challenge\n    /// @param fromBlockNumber Block number from which the update applies\n    /// @param timeoutInSeconds Timeout duration in seconds\n    function setCancelOrderChallengeTimeout(uint256 fromBlockNumber, uint256 timeoutInSeconds)\n    public\n    onlyOperator\n    onlyDelayedBlockNumber(fromBlockNumber)\n    {\n        cancelOrderChallengeTimeoutByBlockNumber.addEntry(fromBlockNumber, timeoutInSeconds);\n        emit SetCancelOrderChallengeTimeoutEvent(fromBlockNumber, timeoutInSeconds);\n    }\n\n    /// @notice Get the current value of settlement challenge timeout\n    /// @return The value of settlement challenge timeout\n    function settlementChallengeTimeout()\n    public\n    view\n    returns (uint256)\n    {\n        return settlementChallengeTimeoutByBlockNumber.currentValue();\n    }\n\n    /// @notice Set timeout of settlement challenges\n    /// @param fromBlockNumber Block number from which the update applies\n    /// @param timeoutInSeconds Timeout duration in seconds\n    function setSettlementChallengeTimeout(uint256 fromBlockNumber, uint256 timeoutInSeconds)\n    public\n    onlyOperator\n    onlyDelayedBlockNumber(fromBlockNumber)\n    {\n        settlementChallengeTimeoutByBlockNumber.addEntry(fromBlockNumber, timeoutInSeconds);\n        emit SetSettlementChallengeTimeoutEvent(fromBlockNumber, timeoutInSeconds);\n    }\n\n    /// @notice Get the current value of fraud stake fraction\n    /// @return The value of fraud stake fraction\n    function fraudStakeFraction()\n    public\n    view\n    returns (uint256)\n    {\n        return fraudStakeFractionByBlockNumber.currentValue();\n    }\n\n    /// @notice Set fraction of security bond that will be gained from successfully challenging\n    /// in fraud challenge\n    /// @param fromBlockNumber Block number from which the update applies\n    /// @param stakeFraction The fraction gained\n    function setFraudStakeFraction(uint256 fromBlockNumber, uint256 stakeFraction)\n    public\n    onlyOperator\n    onlyDelayedBlockNumber(fromBlockNumber)\n    {\n        fraudStakeFractionByBlockNumber.addEntry(fromBlockNumber, stakeFraction);\n        emit SetFraudStakeFractionEvent(fromBlockNumber, stakeFraction);\n    }\n\n    /// @notice Get the current value of wallet settlement stake fraction\n    /// @return The value of wallet settlement stake fraction\n    function walletSettlementStakeFraction()\n    public\n    view\n    returns (uint256)\n    {\n        return walletSettlementStakeFractionByBlockNumber.currentValue();\n    }\n\n    /// @notice Set fraction of security bond that will be gained from successfully challenging\n    /// in settlement challenge triggered by wallet\n    /// @param fromBlockNumber Block number from which the update applies\n    /// @param stakeFraction The fraction gained\n    function setWalletSettlementStakeFraction(uint256 fromBlockNumber, uint256 stakeFraction)\n    public\n    onlyOperator\n    onlyDelayedBlockNumber(fromBlockNumber)\n    {\n        walletSettlementStakeFractionByBlockNumber.addEntry(fromBlockNumber, stakeFraction);\n        emit SetWalletSettlementStakeFractionEvent(fromBlockNumber, stakeFraction);\n    }\n\n    /// @notice Get the current value of operator settlement stake fraction\n    /// @return The value of operator settlement stake fraction\n    function operatorSettlementStakeFraction()\n    public\n    view\n    returns (uint256)\n    {\n        return operatorSettlementStakeFractionByBlockNumber.currentValue();\n    }\n\n    /// @notice Set fraction of security bond that will be gained from successfully challenging\n    /// in settlement challenge triggered by operator\n    /// @param fromBlockNumber Block number from which the update applies\n    /// @param stakeFraction The fraction gained\n    function setOperatorSettlementStakeFraction(uint256 fromBlockNumber, uint256 stakeFraction)\n    public\n    onlyOperator\n    onlyDelayedBlockNumber(fromBlockNumber)\n    {\n        operatorSettlementStakeFractionByBlockNumber.addEntry(fromBlockNumber, stakeFraction);\n        emit SetOperatorSettlementStakeFractionEvent(fromBlockNumber, stakeFraction);\n    }\n\n    /// @notice Get the current value of operator settlement stake\n    /// @return The value of operator settlement stake\n    function operatorSettlementStake()\n    public\n    view\n    returns (int256 amount, address currencyCt, uint256 currencyId)\n    {\n        MonetaryTypesLib.Figure storage stake = operatorSettlementStakeByBlockNumber.currentValue();\n        amount = stake.amount;\n        currencyCt = stake.currency.ct;\n        currencyId = stake.currency.id;\n    }\n\n    /// @notice Set figure of security bond that will be gained from successfully challenging\n    /// in settlement challenge triggered by operator\n    /// @param fromBlockNumber Block number from which the update applies\n    /// @param stakeAmount The amount gained\n    /// @param stakeCurrencyCt The address of currency gained\n    /// @param stakeCurrencyId The ID of currency gained\n    function setOperatorSettlementStake(uint256 fromBlockNumber, int256 stakeAmount,\n        address stakeCurrencyCt, uint256 stakeCurrencyId)\n    public\n    onlyOperator\n    onlyDelayedBlockNumber(fromBlockNumber)\n    {\n        MonetaryTypesLib.Figure memory stake = MonetaryTypesLib.Figure(stakeAmount, MonetaryTypesLib.Currency(stakeCurrencyCt, stakeCurrencyId));\n        operatorSettlementStakeByBlockNumber.addEntry(fromBlockNumber, stake);\n        emit SetOperatorSettlementStakeEvent(fromBlockNumber, stakeAmount, stakeCurrencyCt, stakeCurrencyId);\n    }\n\n    /// @notice Set the block number of the earliest settlement initiation\n    /// @param _earliestSettlementBlockNumber The block number of the earliest settlement\n    function setEarliestSettlementBlockNumber(uint256 _earliestSettlementBlockNumber)\n    public\n    onlyOperator\n    {\n        require(!earliestSettlementBlockNumberUpdateDisabled, \"Earliest settlement block number update disabled [Configuration.sol:715]\");\n\n        earliestSettlementBlockNumber = _earliestSettlementBlockNumber;\n        emit SetEarliestSettlementBlockNumberEvent(earliestSettlementBlockNumber);\n    }\n\n    /// @notice Disable further updates to the earliest settlement block number\n    /// @dev This operation can not be undone\n    function disableEarliestSettlementBlockNumberUpdate()\n    public\n    onlyOperator\n    {\n        earliestSettlementBlockNumberUpdateDisabled = true;\n        emit DisableEarliestSettlementBlockNumberUpdateEvent();\n    }\n\n    //\n    // Modifiers\n    // -----------------------------------------------------------------------------------------------------------------\n    modifier onlyDelayedBlockNumber(uint256 blockNumber) {\n        require(\n            0 == updateDelayBlocksByBlockNumber.count() ||\n        blockNumber >= block.number + updateDelayBlocksByBlockNumber.currentValue(),\n            \"Block number not sufficiently delayed [Configuration.sol:735]\"\n        );\n        _;\n    }\n}",
  "sourcePath": "/opt/buildagent/work/855e104608380c36/contracts/Configuration.sol",
  "compiler": {
    "name": "solc",
    "version": "0.5.12+commit.7709ece9.Emscripten.clang"
  },
  "schemaVersion": "2.0.3",
  "updatedAt": "2019-10-23T00:21:40.531Z"
}