{
  "contractName": "ConstantsLib",
  "abi": [
    {
      "constant": true,
      "inputs": [],
      "name": "PARTS_PER",
      "outputs": [
        {
          "internalType": "int256",
          "name": "",
          "type": "int256"
        }
      ],
      "payable": false,
      "stateMutability": "pure",
      "type": "function"
    }
  ],
  "bytecode": "0x6090610024600b82828239805160001a607314601757fe5b30600052607381538281f3fe730000000000000000000000000000000000000000301460806040526004361060325760003560e01c8062a12333146037575b600080fd5b603d604f565b60408051918252519081900360200190f35b670de0b6b3a76400009056fea265627a7a723158200d7b8afcf4a6a82498464ddc3ab3c99fe0cad495ce1412dc40daaaf5700db43364736f6c634300050c0032",
  "source": "/*\n * Hubii Nahmii\n *\n * Compliant with the Hubii Nahmii specification v0.12.\n *\n * Copyright (C) 2017-2018 Hubii AS\n */\n\npragma solidity >=0.4.25 <0.6.0;\n\nlibrary ConstantsLib {\n    // Get the fraction that represents the entirety, equivalent of 100%\n    function PARTS_PER()\n    public\n    pure\n    returns (int256)\n    {\n        return 1e18;\n    }\n}",
  "sourcePath": "/opt/buildagent/work/855e104608380c36/contracts/ConstantsLib.sol",
  "compiler": {
    "name": "solc",
    "version": "0.5.12+commit.7709ece9.Emscripten.clang"
  },
  "schemaVersion": "2.0.3",
  "updatedAt": "2019-10-23T00:21:40.516Z"
}