{
  "contractName": "ConstantsLib",
  "abi": [
    {
      "constant": true,
      "inputs": [],
      "name": "PARTS_PER",
      "outputs": [
        {
          "name": "",
          "type": "int256"
        }
      ],
      "payable": false,
      "stateMutability": "pure",
      "type": "function"
    }
  ],
  "bytecode": "0x609061002f600b82828239805160001a6073146000811461001f57610021565bfe5b5030600052607381538281f3007300000000000000000000000000000000000000003014608060405260043610603b5763ffffffff60e060020a600035041662a1233381146040575b600080fd5b60466058565b60408051918252519081900360200190f35b670de0b6b3a7640000905600a165627a7a72305820884aa7ec60d83b41a552ae96b33989f3f6dcc768a7ff74fe07e5e2d221d9ebc40029",
  "source": "/*\n * Hubii Nahmii\n *\n * Compliant with the Hubii Nahmii specification v0.12.\n *\n * Copyright (C) 2017-2018 Hubii AS\n */\n\npragma solidity ^0.4.25;\n\nlibrary ConstantsLib {\n    // Get the fraction that represents the entirety, equivalent of 100%\n    function PARTS_PER()\n    public\n    pure\n    returns (int256)\n    {\n        return 1e18;\n    }\n}",
  "sourcePath": "/opt/buildagent/work/855e104608380c36/contracts/ConstantsLib.sol",
  "compiler": {
    "name": "solc",
    "version": "0.4.25+commit.59dbf8f1.Emscripten.clang"
  },
  "schemaVersion": "2.0.2",
  "updatedAt": "2019-04-02T08:24:31.831Z"
}