{
  "contractName": "DriipSettlementDisputeByTrade",
  "abi": [
    {
      "inputs": [
        {
          "internalType": "address",
          "name": "deployer",
          "type": "address"
        }
      ],
      "payable": false,
      "stateMutability": "nonpayable",
      "type": "constructor"
    },
    {
      "anonymous": false,
      "inputs": [
        {
          "indexed": false,
          "internalType": "address",
          "name": "wallet",
          "type": "address"
        },
        {
          "indexed": false,
          "internalType": "uint256",
          "name": "nonce",
          "type": "uint256"
        },
        {
          "components": [
            {
              "internalType": "uint256",
              "name": "nonce",
              "type": "uint256"
            },
            {
              "internalType": "int256",
              "name": "amount",
              "type": "int256"
            },
            {
              "components": [
                {
                  "components": [
                    {
                      "internalType": "address",
                      "name": "ct",
                      "type": "address"
                    },
                    {
                      "internalType": "uint256",
                      "name": "id",
                      "type": "uint256"
                    }
                  ],
                  "internalType": "struct MonetaryTypesLib.Currency",
                  "name": "intended",
                  "type": "tuple"
                },
                {
                  "components": [
                    {
                      "internalType": "address",
                      "name": "ct",
                      "type": "address"
                    },
                    {
                      "internalType": "uint256",
                      "name": "id",
                      "type": "uint256"
                    }
                  ],
                  "internalType": "struct MonetaryTypesLib.Currency",
                  "name": "conjugate",
                  "type": "tuple"
                }
              ],
              "internalType": "struct NahmiiTypesLib.IntendedConjugateCurrency",
              "name": "currencies",
              "type": "tuple"
            },
            {
              "internalType": "int256",
              "name": "rate",
              "type": "int256"
            },
            {
              "components": [
                {
                  "internalType": "uint256",
                  "name": "nonce",
                  "type": "uint256"
                },
                {
                  "internalType": "address",
                  "name": "wallet",
                  "type": "address"
                },
                {
                  "internalType": "uint256",
                  "name": "rollingVolume",
                  "type": "uint256"
                },
                {
                  "internalType": "enum TradeTypesLib.LiquidityRole",
                  "name": "liquidityRole",
                  "type": "uint8"
                },
                {
                  "components": [
                    {
                      "internalType": "int256",
                      "name": "amount",
                      "type": "int256"
                    },
                    {
                      "components": [
                        {
                          "internalType": "bytes32",
                          "name": "wallet",
                          "type": "bytes32"
                        },
                        {
                          "internalType": "bytes32",
                          "name": "operator",
                          "type": "bytes32"
                        }
                      ],
                      "internalType": "struct NahmiiTypesLib.WalletOperatorHashes",
                      "name": "hashes",
                      "type": "tuple"
                    },
                    {
                      "components": [
                        {
                          "internalType": "int256",
                          "name": "current",
                          "type": "int256"
                        },
                        {
                          "internalType": "int256",
                          "name": "previous",
                          "type": "int256"
                        }
                      ],
                      "internalType": "struct NahmiiTypesLib.CurrentPreviousInt256",
                      "name": "residuals",
                      "type": "tuple"
                    }
                  ],
                  "internalType": "struct TradeTypesLib.TradeOrder",
                  "name": "order",
                  "type": "tuple"
                },
                {
                  "components": [
                    {
                      "components": [
                        {
                          "internalType": "int256",
                          "name": "current",
                          "type": "int256"
                        },
                        {
                          "internalType": "int256",
                          "name": "previous",
                          "type": "int256"
                        }
                      ],
                      "internalType": "struct NahmiiTypesLib.CurrentPreviousInt256",
                      "name": "intended",
                      "type": "tuple"
                    },
                    {
                      "components": [
                        {
                          "internalType": "int256",
                          "name": "current",
                          "type": "int256"
                        },
                        {
                          "internalType": "int256",
                          "name": "previous",
                          "type": "int256"
                        }
                      ],
                      "internalType": "struct NahmiiTypesLib.CurrentPreviousInt256",
                      "name": "conjugate",
                      "type": "tuple"
                    }
                  ],
                  "internalType": "struct NahmiiTypesLib.IntendedConjugateCurrentPreviousInt256",
                  "name": "balances",
                  "type": "tuple"
                },
                {
                  "components": [
                    {
                      "components": [
                        {
                          "internalType": "int256",
                          "name": "amount",
                          "type": "int256"
                        },
                        {
                          "components": [
                            {
                              "internalType": "address",
                              "name": "ct",
                              "type": "address"
                            },
                            {
                              "internalType": "uint256",
                              "name": "id",
                              "type": "uint256"
                            }
                          ],
                          "internalType": "struct MonetaryTypesLib.Currency",
                          "name": "currency",
                          "type": "tuple"
                        }
                      ],
                      "internalType": "struct MonetaryTypesLib.Figure",
                      "name": "single",
                      "type": "tuple"
                    },
                    {
                      "components": [
                        {
                          "internalType": "uint256",
                          "name": "originId",
                          "type": "uint256"
                        },
                        {
                          "components": [
                            {
                              "internalType": "int256",
                              "name": "amount",
                              "type": "int256"
                            },
                            {
                              "components": [
                                {
                                  "internalType": "address",
                                  "name": "ct",
                                  "type": "address"
                                },
                                {
                                  "internalType": "uint256",
                                  "name": "id",
                                  "type": "uint256"
                                }
                              ],
                              "internalType": "struct MonetaryTypesLib.Currency",
                              "name": "currency",
                              "type": "tuple"
                            }
                          ],
                          "internalType": "struct MonetaryTypesLib.Figure",
                          "name": "figure",
                          "type": "tuple"
                        }
                      ],
                      "internalType": "struct NahmiiTypesLib.OriginFigure[]",
                      "name": "total",
                      "type": "tuple[]"
                    }
                  ],
                  "internalType": "struct NahmiiTypesLib.SingleFigureTotalOriginFigures",
                  "name": "fees",
                  "type": "tuple"
                }
              ],
              "internalType": "struct TradeTypesLib.TradeParty",
              "name": "buyer",
              "type": "tuple"
            },
            {
              "components": [
                {
                  "internalType": "uint256",
                  "name": "nonce",
                  "type": "uint256"
                },
                {
                  "internalType": "address",
                  "name": "wallet",
                  "type": "address"
                },
                {
                  "internalType": "uint256",
                  "name": "rollingVolume",
                  "type": "uint256"
                },
                {
                  "internalType": "enum TradeTypesLib.LiquidityRole",
                  "name": "liquidityRole",
                  "type": "uint8"
                },
                {
                  "components": [
                    {
                      "internalType": "int256",
                      "name": "amount",
                      "type": "int256"
                    },
                    {
                      "components": [
                        {
                          "internalType": "bytes32",
                          "name": "wallet",
                          "type": "bytes32"
                        },
                        {
                          "internalType": "bytes32",
                          "name": "operator",
                          "type": "bytes32"
                        }
                      ],
                      "internalType": "struct NahmiiTypesLib.WalletOperatorHashes",
                      "name": "hashes",
                      "type": "tuple"
                    },
                    {
                      "components": [
                        {
                          "internalType": "int256",
                          "name": "current",
                          "type": "int256"
                        },
                        {
                          "internalType": "int256",
                          "name": "previous",
                          "type": "int256"
                        }
                      ],
                      "internalType": "struct NahmiiTypesLib.CurrentPreviousInt256",
                      "name": "residuals",
                      "type": "tuple"
                    }
                  ],
                  "internalType": "struct TradeTypesLib.TradeOrder",
                  "name": "order",
                  "type": "tuple"
                },
                {
                  "components": [
                    {
                      "components": [
                        {
                          "internalType": "int256",
                          "name": "current",
                          "type": "int256"
                        },
                        {
                          "internalType": "int256",
                          "name": "previous",
                          "type": "int256"
                        }
                      ],
                      "internalType": "struct NahmiiTypesLib.CurrentPreviousInt256",
                      "name": "intended",
                      "type": "tuple"
                    },
                    {
                      "components": [
                        {
                          "internalType": "int256",
                          "name": "current",
                          "type": "int256"
                        },
                        {
                          "internalType": "int256",
                          "name": "previous",
                          "type": "int256"
                        }
                      ],
                      "internalType": "struct NahmiiTypesLib.CurrentPreviousInt256",
                      "name": "conjugate",
                      "type": "tuple"
                    }
                  ],
                  "internalType": "struct NahmiiTypesLib.IntendedConjugateCurrentPreviousInt256",
                  "name": "balances",
                  "type": "tuple"
                },
                {
                  "components": [
                    {
                      "components": [
                        {
                          "internalType": "int256",
                          "name": "amount",
                          "type": "int256"
                        },
                        {
                          "components": [
                            {
                              "internalType": "address",
                              "name": "ct",
                              "type": "address"
                            },
                            {
                              "internalType": "uint256",
                              "name": "id",
                              "type": "uint256"
                            }
                          ],
                          "internalType": "struct MonetaryTypesLib.Currency",
                          "name": "currency",
                          "type": "tuple"
                        }
                      ],
                      "internalType": "struct MonetaryTypesLib.Figure",
                      "name": "single",
                      "type": "tuple"
                    },
                    {
                      "components": [
                        {
                          "internalType": "uint256",
                          "name": "originId",
                          "type": "uint256"
                        },
                        {
                          "components": [
                            {
                              "internalType": "int256",
                              "name": "amount",
                              "type": "int256"
                            },
                            {
                              "components": [
                                {
                                  "internalType": "address",
                                  "name": "ct",
                                  "type": "address"
                                },
                                {
                                  "internalType": "uint256",
                                  "name": "id",
                                  "type": "uint256"
                                }
                              ],
                              "internalType": "struct MonetaryTypesLib.Currency",
                              "name": "currency",
                              "type": "tuple"
                            }
                          ],
                          "internalType": "struct MonetaryTypesLib.Figure",
                          "name": "figure",
                          "type": "tuple"
                        }
                      ],
                      "internalType": "struct NahmiiTypesLib.OriginFigure[]",
                      "name": "total",
                      "type": "tuple[]"
                    }
                  ],
                  "internalType": "struct NahmiiTypesLib.SingleFigureTotalOriginFigures",
                  "name": "fees",
                  "type": "tuple"
                }
              ],
              "internalType": "struct TradeTypesLib.TradeParty",
              "name": "seller",
              "type": "tuple"
            },
            {
              "components": [
                {
                  "components": [
                    {
                      "internalType": "int256",
                      "name": "single",
                      "type": "int256"
                    },
                    {
                      "internalType": "int256",
                      "name": "total",
                      "type": "int256"
                    }
                  ],
                  "internalType": "struct NahmiiTypesLib.SingleTotalInt256",
                  "name": "intended",
                  "type": "tuple"
                },
                {
                  "components": [
                    {
                      "internalType": "int256",
                      "name": "single",
                      "type": "int256"
                    },
                    {
                      "internalType": "int256",
                      "name": "total",
                      "type": "int256"
                    }
                  ],
                  "internalType": "struct NahmiiTypesLib.SingleTotalInt256",
                  "name": "conjugate",
                  "type": "tuple"
                }
              ],
              "internalType": "struct NahmiiTypesLib.IntendedConjugateSingleTotalInt256",
              "name": "transfers",
              "type": "tuple"
            },
            {
              "components": [
                {
                  "internalType": "bytes32",
                  "name": "hash",
                  "type": "bytes32"
                },
                {
                  "components": [
                    {
                      "internalType": "bytes32",
                      "name": "r",
                      "type": "bytes32"
                    },
                    {
                      "internalType": "bytes32",
                      "name": "s",
                      "type": "bytes32"
                    },
                    {
                      "internalType": "uint8",
                      "name": "v",
                      "type": "uint8"
                    }
                  ],
                  "internalType": "struct NahmiiTypesLib.Signature",
                  "name": "signature",
                  "type": "tuple"
                }
              ],
              "internalType": "struct NahmiiTypesLib.Seal",
              "name": "seal",
              "type": "tuple"
            },
            {
              "internalType": "uint256",
              "name": "blockNumber",
              "type": "uint256"
            },
            {
              "internalType": "uint256",
              "name": "operatorId",
              "type": "uint256"
            }
          ],
          "indexed": false,
          "internalType": "struct TradeTypesLib.Trade",
          "name": "trade",
          "type": "tuple"
        },
        {
          "indexed": false,
          "internalType": "address",
          "name": "challenger",
          "type": "address"
        }
      ],
      "name": "ChallengeByTradeEvent",
      "type": "event"
    },
    {
      "anonymous": false,
      "inputs": [
        {
          "indexed": false,
          "internalType": "address",
          "name": "service",
          "type": "address"
        }
      ],
      "name": "DeregisterServiceEvent",
      "type": "event"
    },
    {
      "anonymous": false,
      "inputs": [
        {
          "indexed": false,
          "internalType": "address",
          "name": "service",
          "type": "address"
        },
        {
          "indexed": false,
          "internalType": "string",
          "name": "action",
          "type": "string"
        }
      ],
      "name": "DisableServiceActionEvent",
      "type": "event"
    },
    {
      "anonymous": false,
      "inputs": [
        {
          "indexed": false,
          "internalType": "address",
          "name": "service",
          "type": "address"
        },
        {
          "indexed": false,
          "internalType": "string",
          "name": "action",
          "type": "string"
        }
      ],
      "name": "EnableServiceActionEvent",
      "type": "event"
    },
    {
      "anonymous": false,
      "inputs": [],
      "name": "FreezeBalanceTrackerEvent",
      "type": "event"
    },
    {
      "anonymous": false,
      "inputs": [],
      "name": "FreezeWalletLockerEvent",
      "type": "event"
    },
    {
      "anonymous": false,
      "inputs": [
        {
          "indexed": false,
          "internalType": "address",
          "name": "service",
          "type": "address"
        },
        {
          "indexed": false,
          "internalType": "uint256",
          "name": "timeout",
          "type": "uint256"
        }
      ],
      "name": "RegisterServiceDeferredEvent",
      "type": "event"
    },
    {
      "anonymous": false,
      "inputs": [
        {
          "indexed": false,
          "internalType": "address",
          "name": "service",
          "type": "address"
        }
      ],
      "name": "RegisterServiceEvent",
      "type": "event"
    },
    {
      "anonymous": false,
      "inputs": [
        {
          "indexed": false,
          "internalType": "address",
          "name": "wallet",
          "type": "address"
        }
      ],
      "name": "SelfDestructionDisabledEvent",
      "type": "event"
    },
    {
      "anonymous": false,
      "inputs": [
        {
          "indexed": false,
          "internalType": "uint256",
          "name": "timeoutInSeconds",
          "type": "uint256"
        }
      ],
      "name": "ServiceActivationTimeoutEvent",
      "type": "event"
    },
    {
      "anonymous": false,
      "inputs": [
        {
          "indexed": false,
          "internalType": "contract BalanceTracker",
          "name": "oldBalanceTracker",
          "type": "address"
        },
        {
          "indexed": false,
          "internalType": "contract BalanceTracker",
          "name": "newBalanceTracker",
          "type": "address"
        }
      ],
      "name": "SetBalanceTrackerEvent",
      "type": "event"
    },
    {
      "anonymous": false,
      "inputs": [
        {
          "indexed": false,
          "internalType": "contract CancelOrdersChallenge",
          "name": "oldCancelOrdersChallenge",
          "type": "address"
        },
        {
          "indexed": false,
          "internalType": "contract CancelOrdersChallenge",
          "name": "newCancelOrdersChallenge",
          "type": "address"
        }
      ],
      "name": "SetCancelOrdersChallengeEvent",
      "type": "event"
    },
    {
      "anonymous": false,
      "inputs": [
        {
          "indexed": false,
          "internalType": "contract Configuration",
          "name": "oldConfiguration",
          "type": "address"
        },
        {
          "indexed": false,
          "internalType": "contract Configuration",
          "name": "newConfiguration",
          "type": "address"
        }
      ],
      "name": "SetConfigurationEvent",
      "type": "event"
    },
    {
      "anonymous": false,
      "inputs": [
        {
          "indexed": false,
          "internalType": "address",
          "name": "oldDeployer",
          "type": "address"
        },
        {
          "indexed": false,
          "internalType": "address",
          "name": "newDeployer",
          "type": "address"
        }
      ],
      "name": "SetDeployerEvent",
      "type": "event"
    },
    {
      "anonymous": false,
      "inputs": [
        {
          "indexed": false,
          "internalType": "contract DriipSettlementChallengeState",
          "name": "oldDriipSettlementChallengeState",
          "type": "address"
        },
        {
          "indexed": false,
          "internalType": "contract DriipSettlementChallengeState",
          "name": "newDriipSettlementChallengeState",
          "type": "address"
        }
      ],
      "name": "SetDriipSettlementChallengeStateEvent",
      "type": "event"
    },
    {
      "anonymous": false,
      "inputs": [
        {
          "indexed": false,
          "internalType": "contract FraudChallenge",
          "name": "oldFraudChallenge",
          "type": "address"
        },
        {
          "indexed": false,
          "internalType": "contract FraudChallenge",
          "name": "newFraudChallenge",
          "type": "address"
        }
      ],
      "name": "SetFraudChallengeEvent",
      "type": "event"
    },
    {
      "anonymous": false,
      "inputs": [
        {
          "indexed": false,
          "internalType": "contract NullSettlementChallengeState",
          "name": "oldNullSettlementChallengeState",
          "type": "address"
        },
        {
          "indexed": false,
          "internalType": "contract NullSettlementChallengeState",
          "name": "newNullSettlementChallengeState",
          "type": "address"
        }
      ],
      "name": "SetNullSettlementChallengeStateEvent",
      "type": "event"
    },
    {
      "anonymous": false,
      "inputs": [
        {
          "indexed": false,
          "internalType": "address",
          "name": "oldOperator",
          "type": "address"
        },
        {
          "indexed": false,
          "internalType": "address",
          "name": "newOperator",
          "type": "address"
        }
      ],
      "name": "SetOperatorEvent",
      "type": "event"
    },
    {
      "anonymous": false,
      "inputs": [
        {
          "indexed": false,
          "internalType": "contract SecurityBond",
          "name": "oldSecurityBond",
          "type": "address"
        },
        {
          "indexed": false,
          "internalType": "contract SecurityBond",
          "name": "newSecurityBond",
          "type": "address"
        }
      ],
      "name": "SetSecurityBondEvent",
      "type": "event"
    },
    {
      "anonymous": false,
      "inputs": [
        {
          "indexed": false,
          "internalType": "contract ValidatorV2",
          "name": "oldValidator",
          "type": "address"
        },
        {
          "indexed": false,
          "internalType": "contract ValidatorV2",
          "name": "newValidator",
          "type": "address"
        }
      ],
      "name": "SetValidatorEvent",
      "type": "event"
    },
    {
      "anonymous": false,
      "inputs": [
        {
          "indexed": false,
          "internalType": "contract WalletLocker",
          "name": "oldWalletLocker",
          "type": "address"
        },
        {
          "indexed": false,
          "internalType": "contract WalletLocker",
          "name": "newWalletLocker",
          "type": "address"
        }
      ],
      "name": "SetWalletLockerEvent",
      "type": "event"
    },
    {
      "anonymous": false,
      "inputs": [
        {
          "indexed": false,
          "internalType": "address",
          "name": "wallet",
          "type": "address"
        }
      ],
      "name": "TriggerSelfDestructionEvent",
      "type": "event"
    },
    {
      "anonymous": false,
      "inputs": [
        {
          "indexed": false,
          "internalType": "uint256",
          "name": "nonce",
          "type": "uint256"
        },
        {
          "components": [
            {
              "internalType": "uint256",
              "name": "nonce",
              "type": "uint256"
            },
            {
              "internalType": "address",
              "name": "wallet",
              "type": "address"
            },
            {
              "components": [
                {
                  "internalType": "enum TradeTypesLib.Intention",
                  "name": "intention",
                  "type": "uint8"
                },
                {
                  "internalType": "int256",
                  "name": "amount",
                  "type": "int256"
                },
                {
                  "components": [
                    {
                      "components": [
                        {
                          "internalType": "address",
                          "name": "ct",
                          "type": "address"
                        },
                        {
                          "internalType": "uint256",
                          "name": "id",
                          "type": "uint256"
                        }
                      ],
                      "internalType": "struct MonetaryTypesLib.Currency",
                      "name": "intended",
                      "type": "tuple"
                    },
                    {
                      "components": [
                        {
                          "internalType": "address",
                          "name": "ct",
                          "type": "address"
                        },
                        {
                          "internalType": "uint256",
                          "name": "id",
                          "type": "uint256"
                        }
                      ],
                      "internalType": "struct MonetaryTypesLib.Currency",
                      "name": "conjugate",
                      "type": "tuple"
                    }
                  ],
                  "internalType": "struct NahmiiTypesLib.IntendedConjugateCurrency",
                  "name": "currencies",
                  "type": "tuple"
                },
                {
                  "internalType": "int256",
                  "name": "rate",
                  "type": "int256"
                },
                {
                  "components": [
                    {
                      "internalType": "int256",
                      "name": "current",
                      "type": "int256"
                    },
                    {
                      "internalType": "int256",
                      "name": "previous",
                      "type": "int256"
                    }
                  ],
                  "internalType": "struct NahmiiTypesLib.CurrentPreviousInt256",
                  "name": "residuals",
                  "type": "tuple"
                }
              ],
              "internalType": "struct TradeTypesLib.OrderPlacement",
              "name": "placement",
              "type": "tuple"
            },
            {
              "components": [
                {
                  "components": [
                    {
                      "internalType": "bytes32",
                      "name": "hash",
                      "type": "bytes32"
                    },
                    {
                      "components": [
                        {
                          "internalType": "bytes32",
                          "name": "r",
                          "type": "bytes32"
                        },
                        {
                          "internalType": "bytes32",
                          "name": "s",
                          "type": "bytes32"
                        },
                        {
                          "internalType": "uint8",
                          "name": "v",
                          "type": "uint8"
                        }
                      ],
                      "internalType": "struct NahmiiTypesLib.Signature",
                      "name": "signature",
                      "type": "tuple"
                    }
                  ],
                  "internalType": "struct NahmiiTypesLib.Seal",
                  "name": "wallet",
                  "type": "tuple"
                },
                {
                  "components": [
                    {
                      "internalType": "bytes32",
                      "name": "hash",
                      "type": "bytes32"
                    },
                    {
                      "components": [
                        {
                          "internalType": "bytes32",
                          "name": "r",
                          "type": "bytes32"
                        },
                        {
                          "internalType": "bytes32",
                          "name": "s",
                          "type": "bytes32"
                        },
                        {
                          "internalType": "uint8",
                          "name": "v",
                          "type": "uint8"
                        }
                      ],
                      "internalType": "struct NahmiiTypesLib.Signature",
                      "name": "signature",
                      "type": "tuple"
                    }
                  ],
                  "internalType": "struct NahmiiTypesLib.Seal",
                  "name": "operator",
                  "type": "tuple"
                }
              ],
              "internalType": "struct NahmiiTypesLib.WalletOperatorSeal",
              "name": "seals",
              "type": "tuple"
            },
            {
              "internalType": "uint256",
              "name": "blockNumber",
              "type": "uint256"
            },
            {
              "internalType": "uint256",
              "name": "operatorId",
              "type": "uint256"
            }
          ],
          "indexed": false,
          "internalType": "struct TradeTypesLib.Order",
          "name": "order",
          "type": "tuple"
        },
        {
          "components": [
            {
              "internalType": "uint256",
              "name": "nonce",
              "type": "uint256"
            },
            {
              "internalType": "int256",
              "name": "amount",
              "type": "int256"
            },
            {
              "components": [
                {
                  "components": [
                    {
                      "internalType": "address",
                      "name": "ct",
                      "type": "address"
                    },
                    {
                      "internalType": "uint256",
                      "name": "id",
                      "type": "uint256"
                    }
                  ],
                  "internalType": "struct MonetaryTypesLib.Currency",
                  "name": "intended",
                  "type": "tuple"
                },
                {
                  "components": [
                    {
                      "internalType": "address",
                      "name": "ct",
                      "type": "address"
                    },
                    {
                      "internalType": "uint256",
                      "name": "id",
                      "type": "uint256"
                    }
                  ],
                  "internalType": "struct MonetaryTypesLib.Currency",
                  "name": "conjugate",
                  "type": "tuple"
                }
              ],
              "internalType": "struct NahmiiTypesLib.IntendedConjugateCurrency",
              "name": "currencies",
              "type": "tuple"
            },
            {
              "internalType": "int256",
              "name": "rate",
              "type": "int256"
            },
            {
              "components": [
                {
                  "internalType": "uint256",
                  "name": "nonce",
                  "type": "uint256"
                },
                {
                  "internalType": "address",
                  "name": "wallet",
                  "type": "address"
                },
                {
                  "internalType": "uint256",
                  "name": "rollingVolume",
                  "type": "uint256"
                },
                {
                  "internalType": "enum TradeTypesLib.LiquidityRole",
                  "name": "liquidityRole",
                  "type": "uint8"
                },
                {
                  "components": [
                    {
                      "internalType": "int256",
                      "name": "amount",
                      "type": "int256"
                    },
                    {
                      "components": [
                        {
                          "internalType": "bytes32",
                          "name": "wallet",
                          "type": "bytes32"
                        },
                        {
                          "internalType": "bytes32",
                          "name": "operator",
                          "type": "bytes32"
                        }
                      ],
                      "internalType": "struct NahmiiTypesLib.WalletOperatorHashes",
                      "name": "hashes",
                      "type": "tuple"
                    },
                    {
                      "components": [
                        {
                          "internalType": "int256",
                          "name": "current",
                          "type": "int256"
                        },
                        {
                          "internalType": "int256",
                          "name": "previous",
                          "type": "int256"
                        }
                      ],
                      "internalType": "struct NahmiiTypesLib.CurrentPreviousInt256",
                      "name": "residuals",
                      "type": "tuple"
                    }
                  ],
                  "internalType": "struct TradeTypesLib.TradeOrder",
                  "name": "order",
                  "type": "tuple"
                },
                {
                  "components": [
                    {
                      "components": [
                        {
                          "internalType": "int256",
                          "name": "current",
                          "type": "int256"
                        },
                        {
                          "internalType": "int256",
                          "name": "previous",
                          "type": "int256"
                        }
                      ],
                      "internalType": "struct NahmiiTypesLib.CurrentPreviousInt256",
                      "name": "intended",
                      "type": "tuple"
                    },
                    {
                      "components": [
                        {
                          "internalType": "int256",
                          "name": "current",
                          "type": "int256"
                        },
                        {
                          "internalType": "int256",
                          "name": "previous",
                          "type": "int256"
                        }
                      ],
                      "internalType": "struct NahmiiTypesLib.CurrentPreviousInt256",
                      "name": "conjugate",
                      "type": "tuple"
                    }
                  ],
                  "internalType": "struct NahmiiTypesLib.IntendedConjugateCurrentPreviousInt256",
                  "name": "balances",
                  "type": "tuple"
                },
                {
                  "components": [
                    {
                      "components": [
                        {
                          "internalType": "int256",
                          "name": "amount",
                          "type": "int256"
                        },
                        {
                          "components": [
                            {
                              "internalType": "address",
                              "name": "ct",
                              "type": "address"
                            },
                            {
                              "internalType": "uint256",
                              "name": "id",
                              "type": "uint256"
                            }
                          ],
                          "internalType": "struct MonetaryTypesLib.Currency",
                          "name": "currency",
                          "type": "tuple"
                        }
                      ],
                      "internalType": "struct MonetaryTypesLib.Figure",
                      "name": "single",
                      "type": "tuple"
                    },
                    {
                      "components": [
                        {
                          "internalType": "uint256",
                          "name": "originId",
                          "type": "uint256"
                        },
                        {
                          "components": [
                            {
                              "internalType": "int256",
                              "name": "amount",
                              "type": "int256"
                            },
                            {
                              "components": [
                                {
                                  "internalType": "address",
                                  "name": "ct",
                                  "type": "address"
                                },
                                {
                                  "internalType": "uint256",
                                  "name": "id",
                                  "type": "uint256"
                                }
                              ],
                              "internalType": "struct MonetaryTypesLib.Currency",
                              "name": "currency",
                              "type": "tuple"
                            }
                          ],
                          "internalType": "struct MonetaryTypesLib.Figure",
                          "name": "figure",
                          "type": "tuple"
                        }
                      ],
                      "internalType": "struct NahmiiTypesLib.OriginFigure[]",
                      "name": "total",
                      "type": "tuple[]"
                    }
                  ],
                  "internalType": "struct NahmiiTypesLib.SingleFigureTotalOriginFigures",
                  "name": "fees",
                  "type": "tuple"
                }
              ],
              "internalType": "struct TradeTypesLib.TradeParty",
              "name": "buyer",
              "type": "tuple"
            },
            {
              "components": [
                {
                  "internalType": "uint256",
                  "name": "nonce",
                  "type": "uint256"
                },
                {
                  "internalType": "address",
                  "name": "wallet",
                  "type": "address"
                },
                {
                  "internalType": "uint256",
                  "name": "rollingVolume",
                  "type": "uint256"
                },
                {
                  "internalType": "enum TradeTypesLib.LiquidityRole",
                  "name": "liquidityRole",
                  "type": "uint8"
                },
                {
                  "components": [
                    {
                      "internalType": "int256",
                      "name": "amount",
                      "type": "int256"
                    },
                    {
                      "components": [
                        {
                          "internalType": "bytes32",
                          "name": "wallet",
                          "type": "bytes32"
                        },
                        {
                          "internalType": "bytes32",
                          "name": "operator",
                          "type": "bytes32"
                        }
                      ],
                      "internalType": "struct NahmiiTypesLib.WalletOperatorHashes",
                      "name": "hashes",
                      "type": "tuple"
                    },
                    {
                      "components": [
                        {
                          "internalType": "int256",
                          "name": "current",
                          "type": "int256"
                        },
                        {
                          "internalType": "int256",
                          "name": "previous",
                          "type": "int256"
                        }
                      ],
                      "internalType": "struct NahmiiTypesLib.CurrentPreviousInt256",
                      "name": "residuals",
                      "type": "tuple"
                    }
                  ],
                  "internalType": "struct TradeTypesLib.TradeOrder",
                  "name": "order",
                  "type": "tuple"
                },
                {
                  "components": [
                    {
                      "components": [
                        {
                          "internalType": "int256",
                          "name": "current",
                          "type": "int256"
                        },
                        {
                          "internalType": "int256",
                          "name": "previous",
                          "type": "int256"
                        }
                      ],
                      "internalType": "struct NahmiiTypesLib.CurrentPreviousInt256",
                      "name": "intended",
                      "type": "tuple"
                    },
                    {
                      "components": [
                        {
                          "internalType": "int256",
                          "name": "current",
                          "type": "int256"
                        },
                        {
                          "internalType": "int256",
                          "name": "previous",
                          "type": "int256"
                        }
                      ],
                      "internalType": "struct NahmiiTypesLib.CurrentPreviousInt256",
                      "name": "conjugate",
                      "type": "tuple"
                    }
                  ],
                  "internalType": "struct NahmiiTypesLib.IntendedConjugateCurrentPreviousInt256",
                  "name": "balances",
                  "type": "tuple"
                },
                {
                  "components": [
                    {
                      "components": [
                        {
                          "internalType": "int256",
                          "name": "amount",
                          "type": "int256"
                        },
                        {
                          "components": [
                            {
                              "internalType": "address",
                              "name": "ct",
                              "type": "address"
                            },
                            {
                              "internalType": "uint256",
                              "name": "id",
                              "type": "uint256"
                            }
                          ],
                          "internalType": "struct MonetaryTypesLib.Currency",
                          "name": "currency",
                          "type": "tuple"
                        }
                      ],
                      "internalType": "struct MonetaryTypesLib.Figure",
                      "name": "single",
                      "type": "tuple"
                    },
                    {
                      "components": [
                        {
                          "internalType": "uint256",
                          "name": "originId",
                          "type": "uint256"
                        },
                        {
                          "components": [
                            {
                              "internalType": "int256",
                              "name": "amount",
                              "type": "int256"
                            },
                            {
                              "components": [
                                {
                                  "internalType": "address",
                                  "name": "ct",
                                  "type": "address"
                                },
                                {
                                  "internalType": "uint256",
                                  "name": "id",
                                  "type": "uint256"
                                }
                              ],
                              "internalType": "struct MonetaryTypesLib.Currency",
                              "name": "currency",
                              "type": "tuple"
                            }
                          ],
                          "internalType": "struct MonetaryTypesLib.Figure",
                          "name": "figure",
                          "type": "tuple"
                        }
                      ],
                      "internalType": "struct NahmiiTypesLib.OriginFigure[]",
                      "name": "total",
                      "type": "tuple[]"
                    }
                  ],
                  "internalType": "struct NahmiiTypesLib.SingleFigureTotalOriginFigures",
                  "name": "fees",
                  "type": "tuple"
                }
              ],
              "internalType": "struct TradeTypesLib.TradeParty",
              "name": "seller",
              "type": "tuple"
            },
            {
              "components": [
                {
                  "components": [
                    {
                      "internalType": "int256",
                      "name": "single",
                      "type": "int256"
                    },
                    {
                      "internalType": "int256",
                      "name": "total",
                      "type": "int256"
                    }
                  ],
                  "internalType": "struct NahmiiTypesLib.SingleTotalInt256",
                  "name": "intended",
                  "type": "tuple"
                },
                {
                  "components": [
                    {
                      "internalType": "int256",
                      "name": "single",
                      "type": "int256"
                    },
                    {
                      "internalType": "int256",
                      "name": "total",
                      "type": "int256"
                    }
                  ],
                  "internalType": "struct NahmiiTypesLib.SingleTotalInt256",
                  "name": "conjugate",
                  "type": "tuple"
                }
              ],
              "internalType": "struct NahmiiTypesLib.IntendedConjugateSingleTotalInt256",
              "name": "transfers",
              "type": "tuple"
            },
            {
              "components": [
                {
                  "internalType": "bytes32",
                  "name": "hash",
                  "type": "bytes32"
                },
                {
                  "components": [
                    {
                      "internalType": "bytes32",
                      "name": "r",
                      "type": "bytes32"
                    },
                    {
                      "internalType": "bytes32",
                      "name": "s",
                      "type": "bytes32"
                    },
                    {
                      "internalType": "uint8",
                      "name": "v",
                      "type": "uint8"
                    }
                  ],
                  "internalType": "struct NahmiiTypesLib.Signature",
                  "name": "signature",
                  "type": "tuple"
                }
              ],
              "internalType": "struct NahmiiTypesLib.Seal",
              "name": "seal",
              "type": "tuple"
            },
            {
              "internalType": "uint256",
              "name": "blockNumber",
              "type": "uint256"
            },
            {
              "internalType": "uint256",
              "name": "operatorId",
              "type": "uint256"
            }
          ],
          "indexed": false,
          "internalType": "struct TradeTypesLib.Trade",
          "name": "trade",
          "type": "tuple"
        },
        {
          "indexed": false,
          "internalType": "address",
          "name": "unchallenger",
          "type": "address"
        }
      ],
      "name": "UnchallengeOrderCandidateByTradeEvent",
      "type": "event"
    },
    {
      "constant": true,
      "inputs": [],
      "name": "CHALLENGE_BY_TRADE_ACTION",
      "outputs": [
        {
          "internalType": "string",
          "name": "",
          "type": "string"
        }
      ],
      "payable": false,
      "stateMutability": "view",
      "type": "function"
    },
    {
      "constant": true,
      "inputs": [],
      "name": "UNCHALLENGE_ORDER_CANDIDATE_BY_TRADE_ACTION",
      "outputs": [
        {
          "internalType": "string",
          "name": "",
          "type": "string"
        }
      ],
      "payable": false,
      "stateMutability": "view",
      "type": "function"
    },
    {
      "constant": true,
      "inputs": [],
      "name": "balanceTracker",
      "outputs": [
        {
          "internalType": "contract BalanceTracker",
          "name": "",
          "type": "address"
        }
      ],
      "payable": false,
      "stateMutability": "view",
      "type": "function"
    },
    {
      "constant": true,
      "inputs": [],
      "name": "balanceTrackerFrozen",
      "outputs": [
        {
          "internalType": "bool",
          "name": "",
          "type": "bool"
        }
      ],
      "payable": false,
      "stateMutability": "view",
      "type": "function"
    },
    {
      "constant": true,
      "inputs": [],
      "name": "cancelOrdersChallenge",
      "outputs": [
        {
          "internalType": "contract CancelOrdersChallenge",
          "name": "",
          "type": "address"
        }
      ],
      "payable": false,
      "stateMutability": "view",
      "type": "function"
    },
    {
      "constant": true,
      "inputs": [],
      "name": "configuration",
      "outputs": [
        {
          "internalType": "contract Configuration",
          "name": "",
          "type": "address"
        }
      ],
      "payable": false,
      "stateMutability": "view",
      "type": "function"
    },
    {
      "constant": true,
      "inputs": [],
      "name": "deployer",
      "outputs": [
        {
          "internalType": "address",
          "name": "",
          "type": "address"
        }
      ],
      "payable": false,
      "stateMutability": "view",
      "type": "function"
    },
    {
      "constant": false,
      "inputs": [
        {
          "internalType": "address",
          "name": "service",
          "type": "address"
        }
      ],
      "name": "deregisterService",
      "outputs": [],
      "payable": false,
      "stateMutability": "nonpayable",
      "type": "function"
    },
    {
      "constant": true,
      "inputs": [],
      "name": "destructor",
      "outputs": [
        {
          "internalType": "address",
          "name": "",
          "type": "address"
        }
      ],
      "payable": false,
      "stateMutability": "view",
      "type": "function"
    },
    {
      "constant": false,
      "inputs": [],
      "name": "disableSelfDestruction",
      "outputs": [],
      "payable": false,
      "stateMutability": "nonpayable",
      "type": "function"
    },
    {
      "constant": false,
      "inputs": [
        {
          "internalType": "address",
          "name": "service",
          "type": "address"
        },
        {
          "internalType": "string",
          "name": "action",
          "type": "string"
        }
      ],
      "name": "disableServiceAction",
      "outputs": [],
      "payable": false,
      "stateMutability": "nonpayable",
      "type": "function"
    },
    {
      "constant": true,
      "inputs": [],
      "name": "driipSettlementChallengeState",
      "outputs": [
        {
          "internalType": "contract DriipSettlementChallengeState",
          "name": "",
          "type": "address"
        }
      ],
      "payable": false,
      "stateMutability": "view",
      "type": "function"
    },
    {
      "constant": false,
      "inputs": [
        {
          "internalType": "address",
          "name": "service",
          "type": "address"
        },
        {
          "internalType": "string",
          "name": "action",
          "type": "string"
        }
      ],
      "name": "enableServiceAction",
      "outputs": [],
      "payable": false,
      "stateMutability": "nonpayable",
      "type": "function"
    },
    {
      "constant": true,
      "inputs": [],
      "name": "fraudChallenge",
      "outputs": [
        {
          "internalType": "contract FraudChallenge",
          "name": "",
          "type": "address"
        }
      ],
      "payable": false,
      "stateMutability": "view",
      "type": "function"
    },
    {
      "constant": false,
      "inputs": [],
      "name": "freezeBalanceTracker",
      "outputs": [],
      "payable": false,
      "stateMutability": "nonpayable",
      "type": "function"
    },
    {
      "constant": false,
      "inputs": [],
      "name": "freezeWalletLocker",
      "outputs": [],
      "payable": false,
      "stateMutability": "nonpayable",
      "type": "function"
    },
    {
      "constant": true,
      "inputs": [
        {
          "internalType": "address",
          "name": "service",
          "type": "address"
        },
        {
          "internalType": "string",
          "name": "action",
          "type": "string"
        }
      ],
      "name": "isEnabledServiceAction",
      "outputs": [
        {
          "internalType": "bool",
          "name": "",
          "type": "bool"
        }
      ],
      "payable": false,
      "stateMutability": "view",
      "type": "function"
    },
    {
      "constant": true,
      "inputs": [
        {
          "internalType": "address",
          "name": "service",
          "type": "address"
        }
      ],
      "name": "isRegisteredActiveService",
      "outputs": [
        {
          "internalType": "bool",
          "name": "",
          "type": "bool"
        }
      ],
      "payable": false,
      "stateMutability": "view",
      "type": "function"
    },
    {
      "constant": true,
      "inputs": [
        {
          "internalType": "address",
          "name": "service",
          "type": "address"
        }
      ],
      "name": "isRegisteredService",
      "outputs": [
        {
          "internalType": "bool",
          "name": "",
          "type": "bool"
        }
      ],
      "payable": false,
      "stateMutability": "view",
      "type": "function"
    },
    {
      "constant": true,
      "inputs": [],
      "name": "nullSettlementChallengeState",
      "outputs": [
        {
          "internalType": "contract NullSettlementChallengeState",
          "name": "",
          "type": "address"
        }
      ],
      "payable": false,
      "stateMutability": "view",
      "type": "function"
    },
    {
      "constant": true,
      "inputs": [],
      "name": "operator",
      "outputs": [
        {
          "internalType": "address",
          "name": "",
          "type": "address"
        }
      ],
      "payable": false,
      "stateMutability": "view",
      "type": "function"
    },
    {
      "constant": false,
      "inputs": [
        {
          "internalType": "address",
          "name": "service",
          "type": "address"
        }
      ],
      "name": "registerService",
      "outputs": [],
      "payable": false,
      "stateMutability": "nonpayable",
      "type": "function"
    },
    {
      "constant": false,
      "inputs": [
        {
          "internalType": "address",
          "name": "service",
          "type": "address"
        }
      ],
      "name": "registerServiceDeferred",
      "outputs": [],
      "payable": false,
      "stateMutability": "nonpayable",
      "type": "function"
    },
    {
      "constant": true,
      "inputs": [],
      "name": "securityBond",
      "outputs": [
        {
          "internalType": "contract SecurityBond",
          "name": "",
          "type": "address"
        }
      ],
      "payable": false,
      "stateMutability": "view",
      "type": "function"
    },
    {
      "constant": true,
      "inputs": [],
      "name": "selfDestructionDisabled",
      "outputs": [
        {
          "internalType": "bool",
          "name": "",
          "type": "bool"
        }
      ],
      "payable": false,
      "stateMutability": "view",
      "type": "function"
    },
    {
      "constant": true,
      "inputs": [],
      "name": "serviceActivationTimeout",
      "outputs": [
        {
          "internalType": "uint256",
          "name": "",
          "type": "uint256"
        }
      ],
      "payable": false,
      "stateMutability": "view",
      "type": "function"
    },
    {
      "constant": false,
      "inputs": [
        {
          "internalType": "contract BalanceTracker",
          "name": "newBalanceTracker",
          "type": "address"
        }
      ],
      "name": "setBalanceTracker",
      "outputs": [],
      "payable": false,
      "stateMutability": "nonpayable",
      "type": "function"
    },
    {
      "constant": false,
      "inputs": [
        {
          "internalType": "contract CancelOrdersChallenge",
          "name": "newCancelOrdersChallenge",
          "type": "address"
        }
      ],
      "name": "setCancelOrdersChallenge",
      "outputs": [],
      "payable": false,
      "stateMutability": "nonpayable",
      "type": "function"
    },
    {
      "constant": false,
      "inputs": [
        {
          "internalType": "contract Configuration",
          "name": "newConfiguration",
          "type": "address"
        }
      ],
      "name": "setConfiguration",
      "outputs": [],
      "payable": false,
      "stateMutability": "nonpayable",
      "type": "function"
    },
    {
      "constant": false,
      "inputs": [
        {
          "internalType": "address",
          "name": "newDeployer",
          "type": "address"
        }
      ],
      "name": "setDeployer",
      "outputs": [],
      "payable": false,
      "stateMutability": "nonpayable",
      "type": "function"
    },
    {
      "constant": false,
      "inputs": [
        {
          "internalType": "contract FraudChallenge",
          "name": "newFraudChallenge",
          "type": "address"
        }
      ],
      "name": "setFraudChallenge",
      "outputs": [],
      "payable": false,
      "stateMutability": "nonpayable",
      "type": "function"
    },
    {
      "constant": false,
      "inputs": [
        {
          "internalType": "address",
          "name": "newOperator",
          "type": "address"
        }
      ],
      "name": "setOperator",
      "outputs": [],
      "payable": false,
      "stateMutability": "nonpayable",
      "type": "function"
    },
    {
      "constant": false,
      "inputs": [
        {
          "internalType": "contract SecurityBond",
          "name": "newSecurityBond",
          "type": "address"
        }
      ],
      "name": "setSecurityBond",
      "outputs": [],
      "payable": false,
      "stateMutability": "nonpayable",
      "type": "function"
    },
    {
      "constant": false,
      "inputs": [
        {
          "internalType": "uint256",
          "name": "timeoutInSeconds",
          "type": "uint256"
        }
      ],
      "name": "setServiceActivationTimeout",
      "outputs": [],
      "payable": false,
      "stateMutability": "nonpayable",
      "type": "function"
    },
    {
      "constant": false,
      "inputs": [
        {
          "internalType": "contract ValidatorV2",
          "name": "newValidator",
          "type": "address"
        }
      ],
      "name": "setValidator",
      "outputs": [],
      "payable": false,
      "stateMutability": "nonpayable",
      "type": "function"
    },
    {
      "constant": false,
      "inputs": [
        {
          "internalType": "contract WalletLocker",
          "name": "newWalletLocker",
          "type": "address"
        }
      ],
      "name": "setWalletLocker",
      "outputs": [],
      "payable": false,
      "stateMutability": "nonpayable",
      "type": "function"
    },
    {
      "constant": false,
      "inputs": [],
      "name": "triggerSelfDestruction",
      "outputs": [],
      "payable": false,
      "stateMutability": "nonpayable",
      "type": "function"
    },
    {
      "constant": true,
      "inputs": [],
      "name": "validator",
      "outputs": [
        {
          "internalType": "contract ValidatorV2",
          "name": "",
          "type": "address"
        }
      ],
      "payable": false,
      "stateMutability": "view",
      "type": "function"
    },
    {
      "constant": true,
      "inputs": [],
      "name": "walletLocker",
      "outputs": [
        {
          "internalType": "contract WalletLocker",
          "name": "",
          "type": "address"
        }
      ],
      "payable": false,
      "stateMutability": "view",
      "type": "function"
    },
    {
      "constant": true,
      "inputs": [],
      "name": "walletLockerFrozen",
      "outputs": [
        {
          "internalType": "bool",
          "name": "",
          "type": "bool"
        }
      ],
      "payable": false,
      "stateMutability": "view",
      "type": "function"
    },
    {
      "constant": false,
      "inputs": [
        {
          "internalType": "contract DriipSettlementChallengeState",
          "name": "newDriipSettlementChallengeState",
          "type": "address"
        }
      ],
      "name": "setDriipSettlementChallengeState",
      "outputs": [],
      "payable": false,
      "stateMutability": "nonpayable",
      "type": "function"
    },
    {
      "constant": false,
      "inputs": [
        {
          "internalType": "contract NullSettlementChallengeState",
          "name": "newNullSettlementChallengeState",
          "type": "address"
        }
      ],
      "name": "setNullSettlementChallengeState",
      "outputs": [],
      "payable": false,
      "stateMutability": "nonpayable",
      "type": "function"
    },
    {
      "constant": false,
      "inputs": [
        {
          "components": [
            {
              "internalType": "uint256",
              "name": "nonce",
              "type": "uint256"
            },
            {
              "internalType": "address",
              "name": "wallet",
              "type": "address"
            },
            {
              "components": [
                {
                  "internalType": "enum TradeTypesLib.Intention",
                  "name": "intention",
                  "type": "uint8"
                },
                {
                  "internalType": "int256",
                  "name": "amount",
                  "type": "int256"
                },
                {
                  "components": [
                    {
                      "components": [
                        {
                          "internalType": "address",
                          "name": "ct",
                          "type": "address"
                        },
                        {
                          "internalType": "uint256",
                          "name": "id",
                          "type": "uint256"
                        }
                      ],
                      "internalType": "struct MonetaryTypesLib.Currency",
                      "name": "intended",
                      "type": "tuple"
                    },
                    {
                      "components": [
                        {
                          "internalType": "address",
                          "name": "ct",
                          "type": "address"
                        },
                        {
                          "internalType": "uint256",
                          "name": "id",
                          "type": "uint256"
                        }
                      ],
                      "internalType": "struct MonetaryTypesLib.Currency",
                      "name": "conjugate",
                      "type": "tuple"
                    }
                  ],
                  "internalType": "struct NahmiiTypesLib.IntendedConjugateCurrency",
                  "name": "currencies",
                  "type": "tuple"
                },
                {
                  "internalType": "int256",
                  "name": "rate",
                  "type": "int256"
                },
                {
                  "components": [
                    {
                      "internalType": "int256",
                      "name": "current",
                      "type": "int256"
                    },
                    {
                      "internalType": "int256",
                      "name": "previous",
                      "type": "int256"
                    }
                  ],
                  "internalType": "struct NahmiiTypesLib.CurrentPreviousInt256",
                  "name": "residuals",
                  "type": "tuple"
                }
              ],
              "internalType": "struct TradeTypesLib.OrderPlacement",
              "name": "placement",
              "type": "tuple"
            },
            {
              "components": [
                {
                  "components": [
                    {
                      "internalType": "bytes32",
                      "name": "hash",
                      "type": "bytes32"
                    },
                    {
                      "components": [
                        {
                          "internalType": "bytes32",
                          "name": "r",
                          "type": "bytes32"
                        },
                        {
                          "internalType": "bytes32",
                          "name": "s",
                          "type": "bytes32"
                        },
                        {
                          "internalType": "uint8",
                          "name": "v",
                          "type": "uint8"
                        }
                      ],
                      "internalType": "struct NahmiiTypesLib.Signature",
                      "name": "signature",
                      "type": "tuple"
                    }
                  ],
                  "internalType": "struct NahmiiTypesLib.Seal",
                  "name": "wallet",
                  "type": "tuple"
                },
                {
                  "components": [
                    {
                      "internalType": "bytes32",
                      "name": "hash",
                      "type": "bytes32"
                    },
                    {
                      "components": [
                        {
                          "internalType": "bytes32",
                          "name": "r",
                          "type": "bytes32"
                        },
                        {
                          "internalType": "bytes32",
                          "name": "s",
                          "type": "bytes32"
                        },
                        {
                          "internalType": "uint8",
                          "name": "v",
                          "type": "uint8"
                        }
                      ],
                      "internalType": "struct NahmiiTypesLib.Signature",
                      "name": "signature",
                      "type": "tuple"
                    }
                  ],
                  "internalType": "struct NahmiiTypesLib.Seal",
                  "name": "operator",
                  "type": "tuple"
                }
              ],
              "internalType": "struct NahmiiTypesLib.WalletOperatorSeal",
              "name": "seals",
              "type": "tuple"
            },
            {
              "internalType": "uint256",
              "name": "blockNumber",
              "type": "uint256"
            },
            {
              "internalType": "uint256",
              "name": "operatorId",
              "type": "uint256"
            }
          ],
          "internalType": "struct TradeTypesLib.Order",
          "name": "order",
          "type": "tuple"
        },
        {
          "components": [
            {
              "internalType": "uint256",
              "name": "nonce",
              "type": "uint256"
            },
            {
              "internalType": "int256",
              "name": "amount",
              "type": "int256"
            },
            {
              "components": [
                {
                  "components": [
                    {
                      "internalType": "address",
                      "name": "ct",
                      "type": "address"
                    },
                    {
                      "internalType": "uint256",
                      "name": "id",
                      "type": "uint256"
                    }
                  ],
                  "internalType": "struct MonetaryTypesLib.Currency",
                  "name": "intended",
                  "type": "tuple"
                },
                {
                  "components": [
                    {
                      "internalType": "address",
                      "name": "ct",
                      "type": "address"
                    },
                    {
                      "internalType": "uint256",
                      "name": "id",
                      "type": "uint256"
                    }
                  ],
                  "internalType": "struct MonetaryTypesLib.Currency",
                  "name": "conjugate",
                  "type": "tuple"
                }
              ],
              "internalType": "struct NahmiiTypesLib.IntendedConjugateCurrency",
              "name": "currencies",
              "type": "tuple"
            },
            {
              "internalType": "int256",
              "name": "rate",
              "type": "int256"
            },
            {
              "components": [
                {
                  "internalType": "uint256",
                  "name": "nonce",
                  "type": "uint256"
                },
                {
                  "internalType": "address",
                  "name": "wallet",
                  "type": "address"
                },
                {
                  "internalType": "uint256",
                  "name": "rollingVolume",
                  "type": "uint256"
                },
                {
                  "internalType": "enum TradeTypesLib.LiquidityRole",
                  "name": "liquidityRole",
                  "type": "uint8"
                },
                {
                  "components": [
                    {
                      "internalType": "int256",
                      "name": "amount",
                      "type": "int256"
                    },
                    {
                      "components": [
                        {
                          "internalType": "bytes32",
                          "name": "wallet",
                          "type": "bytes32"
                        },
                        {
                          "internalType": "bytes32",
                          "name": "operator",
                          "type": "bytes32"
                        }
                      ],
                      "internalType": "struct NahmiiTypesLib.WalletOperatorHashes",
                      "name": "hashes",
                      "type": "tuple"
                    },
                    {
                      "components": [
                        {
                          "internalType": "int256",
                          "name": "current",
                          "type": "int256"
                        },
                        {
                          "internalType": "int256",
                          "name": "previous",
                          "type": "int256"
                        }
                      ],
                      "internalType": "struct NahmiiTypesLib.CurrentPreviousInt256",
                      "name": "residuals",
                      "type": "tuple"
                    }
                  ],
                  "internalType": "struct TradeTypesLib.TradeOrder",
                  "name": "order",
                  "type": "tuple"
                },
                {
                  "components": [
                    {
                      "components": [
                        {
                          "internalType": "int256",
                          "name": "current",
                          "type": "int256"
                        },
                        {
                          "internalType": "int256",
                          "name": "previous",
                          "type": "int256"
                        }
                      ],
                      "internalType": "struct NahmiiTypesLib.CurrentPreviousInt256",
                      "name": "intended",
                      "type": "tuple"
                    },
                    {
                      "components": [
                        {
                          "internalType": "int256",
                          "name": "current",
                          "type": "int256"
                        },
                        {
                          "internalType": "int256",
                          "name": "previous",
                          "type": "int256"
                        }
                      ],
                      "internalType": "struct NahmiiTypesLib.CurrentPreviousInt256",
                      "name": "conjugate",
                      "type": "tuple"
                    }
                  ],
                  "internalType": "struct NahmiiTypesLib.IntendedConjugateCurrentPreviousInt256",
                  "name": "balances",
                  "type": "tuple"
                },
                {
                  "components": [
                    {
                      "components": [
                        {
                          "internalType": "int256",
                          "name": "amount",
                          "type": "int256"
                        },
                        {
                          "components": [
                            {
                              "internalType": "address",
                              "name": "ct",
                              "type": "address"
                            },
                            {
                              "internalType": "uint256",
                              "name": "id",
                              "type": "uint256"
                            }
                          ],
                          "internalType": "struct MonetaryTypesLib.Currency",
                          "name": "currency",
                          "type": "tuple"
                        }
                      ],
                      "internalType": "struct MonetaryTypesLib.Figure",
                      "name": "single",
                      "type": "tuple"
                    },
                    {
                      "components": [
                        {
                          "internalType": "uint256",
                          "name": "originId",
                          "type": "uint256"
                        },
                        {
                          "components": [
                            {
                              "internalType": "int256",
                              "name": "amount",
                              "type": "int256"
                            },
                            {
                              "components": [
                                {
                                  "internalType": "address",
                                  "name": "ct",
                                  "type": "address"
                                },
                                {
                                  "internalType": "uint256",
                                  "name": "id",
                                  "type": "uint256"
                                }
                              ],
                              "internalType": "struct MonetaryTypesLib.Currency",
                              "name": "currency",
                              "type": "tuple"
                            }
                          ],
                          "internalType": "struct MonetaryTypesLib.Figure",
                          "name": "figure",
                          "type": "tuple"
                        }
                      ],
                      "internalType": "struct NahmiiTypesLib.OriginFigure[]",
                      "name": "total",
                      "type": "tuple[]"
                    }
                  ],
                  "internalType": "struct NahmiiTypesLib.SingleFigureTotalOriginFigures",
                  "name": "fees",
                  "type": "tuple"
                }
              ],
              "internalType": "struct TradeTypesLib.TradeParty",
              "name": "buyer",
              "type": "tuple"
            },
            {
              "components": [
                {
                  "internalType": "uint256",
                  "name": "nonce",
                  "type": "uint256"
                },
                {
                  "internalType": "address",
                  "name": "wallet",
                  "type": "address"
                },
                {
                  "internalType": "uint256",
                  "name": "rollingVolume",
                  "type": "uint256"
                },
                {
                  "internalType": "enum TradeTypesLib.LiquidityRole",
                  "name": "liquidityRole",
                  "type": "uint8"
                },
                {
                  "components": [
                    {
                      "internalType": "int256",
                      "name": "amount",
                      "type": "int256"
                    },
                    {
                      "components": [
                        {
                          "internalType": "bytes32",
                          "name": "wallet",
                          "type": "bytes32"
                        },
                        {
                          "internalType": "bytes32",
                          "name": "operator",
                          "type": "bytes32"
                        }
                      ],
                      "internalType": "struct NahmiiTypesLib.WalletOperatorHashes",
                      "name": "hashes",
                      "type": "tuple"
                    },
                    {
                      "components": [
                        {
                          "internalType": "int256",
                          "name": "current",
                          "type": "int256"
                        },
                        {
                          "internalType": "int256",
                          "name": "previous",
                          "type": "int256"
                        }
                      ],
                      "internalType": "struct NahmiiTypesLib.CurrentPreviousInt256",
                      "name": "residuals",
                      "type": "tuple"
                    }
                  ],
                  "internalType": "struct TradeTypesLib.TradeOrder",
                  "name": "order",
                  "type": "tuple"
                },
                {
                  "components": [
                    {
                      "components": [
                        {
                          "internalType": "int256",
                          "name": "current",
                          "type": "int256"
                        },
                        {
                          "internalType": "int256",
                          "name": "previous",
                          "type": "int256"
                        }
                      ],
                      "internalType": "struct NahmiiTypesLib.CurrentPreviousInt256",
                      "name": "intended",
                      "type": "tuple"
                    },
                    {
                      "components": [
                        {
                          "internalType": "int256",
                          "name": "current",
                          "type": "int256"
                        },
                        {
                          "internalType": "int256",
                          "name": "previous",
                          "type": "int256"
                        }
                      ],
                      "internalType": "struct NahmiiTypesLib.CurrentPreviousInt256",
                      "name": "conjugate",
                      "type": "tuple"
                    }
                  ],
                  "internalType": "struct NahmiiTypesLib.IntendedConjugateCurrentPreviousInt256",
                  "name": "balances",
                  "type": "tuple"
                },
                {
                  "components": [
                    {
                      "components": [
                        {
                          "internalType": "int256",
                          "name": "amount",
                          "type": "int256"
                        },
                        {
                          "components": [
                            {
                              "internalType": "address",
                              "name": "ct",
                              "type": "address"
                            },
                            {
                              "internalType": "uint256",
                              "name": "id",
                              "type": "uint256"
                            }
                          ],
                          "internalType": "struct MonetaryTypesLib.Currency",
                          "name": "currency",
                          "type": "tuple"
                        }
                      ],
                      "internalType": "struct MonetaryTypesLib.Figure",
                      "name": "single",
                      "type": "tuple"
                    },
                    {
                      "components": [
                        {
                          "internalType": "uint256",
                          "name": "originId",
                          "type": "uint256"
                        },
                        {
                          "components": [
                            {
                              "internalType": "int256",
                              "name": "amount",
                              "type": "int256"
                            },
                            {
                              "components": [
                                {
                                  "internalType": "address",
                                  "name": "ct",
                                  "type": "address"
                                },
                                {
                                  "internalType": "uint256",
                                  "name": "id",
                                  "type": "uint256"
                                }
                              ],
                              "internalType": "struct MonetaryTypesLib.Currency",
                              "name": "currency",
                              "type": "tuple"
                            }
                          ],
                          "internalType": "struct MonetaryTypesLib.Figure",
                          "name": "figure",
                          "type": "tuple"
                        }
                      ],
                      "internalType": "struct NahmiiTypesLib.OriginFigure[]",
                      "name": "total",
                      "type": "tuple[]"
                    }
                  ],
                  "internalType": "struct NahmiiTypesLib.SingleFigureTotalOriginFigures",
                  "name": "fees",
                  "type": "tuple"
                }
              ],
              "internalType": "struct TradeTypesLib.TradeParty",
              "name": "seller",
              "type": "tuple"
            },
            {
              "components": [
                {
                  "components": [
                    {
                      "internalType": "int256",
                      "name": "single",
                      "type": "int256"
                    },
                    {
                      "internalType": "int256",
                      "name": "total",
                      "type": "int256"
                    }
                  ],
                  "internalType": "struct NahmiiTypesLib.SingleTotalInt256",
                  "name": "intended",
                  "type": "tuple"
                },
                {
                  "components": [
                    {
                      "internalType": "int256",
                      "name": "single",
                      "type": "int256"
                    },
                    {
                      "internalType": "int256",
                      "name": "total",
                      "type": "int256"
                    }
                  ],
                  "internalType": "struct NahmiiTypesLib.SingleTotalInt256",
                  "name": "conjugate",
                  "type": "tuple"
                }
              ],
              "internalType": "struct NahmiiTypesLib.IntendedConjugateSingleTotalInt256",
              "name": "transfers",
              "type": "tuple"
            },
            {
              "components": [
                {
                  "internalType": "bytes32",
                  "name": "hash",
                  "type": "bytes32"
                },
                {
                  "components": [
                    {
                      "internalType": "bytes32",
                      "name": "r",
                      "type": "bytes32"
                    },
                    {
                      "internalType": "bytes32",
                      "name": "s",
                      "type": "bytes32"
                    },
                    {
                      "internalType": "uint8",
                      "name": "v",
                      "type": "uint8"
                    }
                  ],
                  "internalType": "struct NahmiiTypesLib.Signature",
                  "name": "signature",
                  "type": "tuple"
                }
              ],
              "internalType": "struct NahmiiTypesLib.Seal",
              "name": "seal",
              "type": "tuple"
            },
            {
              "internalType": "uint256",
              "name": "blockNumber",
              "type": "uint256"
            },
            {
              "internalType": "uint256",
              "name": "operatorId",
              "type": "uint256"
            }
          ],
          "internalType": "struct TradeTypesLib.Trade",
          "name": "trade",
          "type": "tuple"
        },
        {
          "internalType": "address",
          "name": "unchallenger",
          "type": "address"
        }
      ],
      "name": "unchallengeOrderCandidateByTrade",
      "outputs": [],
      "payable": false,
      "stateMutability": "nonpayable",
      "type": "function"
    },
    {
      "constant": false,
      "inputs": [
        {
          "internalType": "address",
          "name": "wallet",
          "type": "address"
        },
        {
          "components": [
            {
              "internalType": "uint256",
              "name": "nonce",
              "type": "uint256"
            },
            {
              "internalType": "int256",
              "name": "amount",
              "type": "int256"
            },
            {
              "components": [
                {
                  "components": [
                    {
                      "internalType": "address",
                      "name": "ct",
                      "type": "address"
                    },
                    {
                      "internalType": "uint256",
                      "name": "id",
                      "type": "uint256"
                    }
                  ],
                  "internalType": "struct MonetaryTypesLib.Currency",
                  "name": "intended",
                  "type": "tuple"
                },
                {
                  "components": [
                    {
                      "internalType": "address",
                      "name": "ct",
                      "type": "address"
                    },
                    {
                      "internalType": "uint256",
                      "name": "id",
                      "type": "uint256"
                    }
                  ],
                  "internalType": "struct MonetaryTypesLib.Currency",
                  "name": "conjugate",
                  "type": "tuple"
                }
              ],
              "internalType": "struct NahmiiTypesLib.IntendedConjugateCurrency",
              "name": "currencies",
              "type": "tuple"
            },
            {
              "internalType": "int256",
              "name": "rate",
              "type": "int256"
            },
            {
              "components": [
                {
                  "internalType": "uint256",
                  "name": "nonce",
                  "type": "uint256"
                },
                {
                  "internalType": "address",
                  "name": "wallet",
                  "type": "address"
                },
                {
                  "internalType": "uint256",
                  "name": "rollingVolume",
                  "type": "uint256"
                },
                {
                  "internalType": "enum TradeTypesLib.LiquidityRole",
                  "name": "liquidityRole",
                  "type": "uint8"
                },
                {
                  "components": [
                    {
                      "internalType": "int256",
                      "name": "amount",
                      "type": "int256"
                    },
                    {
                      "components": [
                        {
                          "internalType": "bytes32",
                          "name": "wallet",
                          "type": "bytes32"
                        },
                        {
                          "internalType": "bytes32",
                          "name": "operator",
                          "type": "bytes32"
                        }
                      ],
                      "internalType": "struct NahmiiTypesLib.WalletOperatorHashes",
                      "name": "hashes",
                      "type": "tuple"
                    },
                    {
                      "components": [
                        {
                          "internalType": "int256",
                          "name": "current",
                          "type": "int256"
                        },
                        {
                          "internalType": "int256",
                          "name": "previous",
                          "type": "int256"
                        }
                      ],
                      "internalType": "struct NahmiiTypesLib.CurrentPreviousInt256",
                      "name": "residuals",
                      "type": "tuple"
                    }
                  ],
                  "internalType": "struct TradeTypesLib.TradeOrder",
                  "name": "order",
                  "type": "tuple"
                },
                {
                  "components": [
                    {
                      "components": [
                        {
                          "internalType": "int256",
                          "name": "current",
                          "type": "int256"
                        },
                        {
                          "internalType": "int256",
                          "name": "previous",
                          "type": "int256"
                        }
                      ],
                      "internalType": "struct NahmiiTypesLib.CurrentPreviousInt256",
                      "name": "intended",
                      "type": "tuple"
                    },
                    {
                      "components": [
                        {
                          "internalType": "int256",
                          "name": "current",
                          "type": "int256"
                        },
                        {
                          "internalType": "int256",
                          "name": "previous",
                          "type": "int256"
                        }
                      ],
                      "internalType": "struct NahmiiTypesLib.CurrentPreviousInt256",
                      "name": "conjugate",
                      "type": "tuple"
                    }
                  ],
                  "internalType": "struct NahmiiTypesLib.IntendedConjugateCurrentPreviousInt256",
                  "name": "balances",
                  "type": "tuple"
                },
                {
                  "components": [
                    {
                      "components": [
                        {
                          "internalType": "int256",
                          "name": "amount",
                          "type": "int256"
                        },
                        {
                          "components": [
                            {
                              "internalType": "address",
                              "name": "ct",
                              "type": "address"
                            },
                            {
                              "internalType": "uint256",
                              "name": "id",
                              "type": "uint256"
                            }
                          ],
                          "internalType": "struct MonetaryTypesLib.Currency",
                          "name": "currency",
                          "type": "tuple"
                        }
                      ],
                      "internalType": "struct MonetaryTypesLib.Figure",
                      "name": "single",
                      "type": "tuple"
                    },
                    {
                      "components": [
                        {
                          "internalType": "uint256",
                          "name": "originId",
                          "type": "uint256"
                        },
                        {
                          "components": [
                            {
                              "internalType": "int256",
                              "name": "amount",
                              "type": "int256"
                            },
                            {
                              "components": [
                                {
                                  "internalType": "address",
                                  "name": "ct",
                                  "type": "address"
                                },
                                {
                                  "internalType": "uint256",
                                  "name": "id",
                                  "type": "uint256"
                                }
                              ],
                              "internalType": "struct MonetaryTypesLib.Currency",
                              "name": "currency",
                              "type": "tuple"
                            }
                          ],
                          "internalType": "struct MonetaryTypesLib.Figure",
                          "name": "figure",
                          "type": "tuple"
                        }
                      ],
                      "internalType": "struct NahmiiTypesLib.OriginFigure[]",
                      "name": "total",
                      "type": "tuple[]"
                    }
                  ],
                  "internalType": "struct NahmiiTypesLib.SingleFigureTotalOriginFigures",
                  "name": "fees",
                  "type": "tuple"
                }
              ],
              "internalType": "struct TradeTypesLib.TradeParty",
              "name": "buyer",
              "type": "tuple"
            },
            {
              "components": [
                {
                  "internalType": "uint256",
                  "name": "nonce",
                  "type": "uint256"
                },
                {
                  "internalType": "address",
                  "name": "wallet",
                  "type": "address"
                },
                {
                  "internalType": "uint256",
                  "name": "rollingVolume",
                  "type": "uint256"
                },
                {
                  "internalType": "enum TradeTypesLib.LiquidityRole",
                  "name": "liquidityRole",
                  "type": "uint8"
                },
                {
                  "components": [
                    {
                      "internalType": "int256",
                      "name": "amount",
                      "type": "int256"
                    },
                    {
                      "components": [
                        {
                          "internalType": "bytes32",
                          "name": "wallet",
                          "type": "bytes32"
                        },
                        {
                          "internalType": "bytes32",
                          "name": "operator",
                          "type": "bytes32"
                        }
                      ],
                      "internalType": "struct NahmiiTypesLib.WalletOperatorHashes",
                      "name": "hashes",
                      "type": "tuple"
                    },
                    {
                      "components": [
                        {
                          "internalType": "int256",
                          "name": "current",
                          "type": "int256"
                        },
                        {
                          "internalType": "int256",
                          "name": "previous",
                          "type": "int256"
                        }
                      ],
                      "internalType": "struct NahmiiTypesLib.CurrentPreviousInt256",
                      "name": "residuals",
                      "type": "tuple"
                    }
                  ],
                  "internalType": "struct TradeTypesLib.TradeOrder",
                  "name": "order",
                  "type": "tuple"
                },
                {
                  "components": [
                    {
                      "components": [
                        {
                          "internalType": "int256",
                          "name": "current",
                          "type": "int256"
                        },
                        {
                          "internalType": "int256",
                          "name": "previous",
                          "type": "int256"
                        }
                      ],
                      "internalType": "struct NahmiiTypesLib.CurrentPreviousInt256",
                      "name": "intended",
                      "type": "tuple"
                    },
                    {
                      "components": [
                        {
                          "internalType": "int256",
                          "name": "current",
                          "type": "int256"
                        },
                        {
                          "internalType": "int256",
                          "name": "previous",
                          "type": "int256"
                        }
                      ],
                      "internalType": "struct NahmiiTypesLib.CurrentPreviousInt256",
                      "name": "conjugate",
                      "type": "tuple"
                    }
                  ],
                  "internalType": "struct NahmiiTypesLib.IntendedConjugateCurrentPreviousInt256",
                  "name": "balances",
                  "type": "tuple"
                },
                {
                  "components": [
                    {
                      "components": [
                        {
                          "internalType": "int256",
                          "name": "amount",
                          "type": "int256"
                        },
                        {
                          "components": [
                            {
                              "internalType": "address",
                              "name": "ct",
                              "type": "address"
                            },
                            {
                              "internalType": "uint256",
                              "name": "id",
                              "type": "uint256"
                            }
                          ],
                          "internalType": "struct MonetaryTypesLib.Currency",
                          "name": "currency",
                          "type": "tuple"
                        }
                      ],
                      "internalType": "struct MonetaryTypesLib.Figure",
                      "name": "single",
                      "type": "tuple"
                    },
                    {
                      "components": [
                        {
                          "internalType": "uint256",
                          "name": "originId",
                          "type": "uint256"
                        },
                        {
                          "components": [
                            {
                              "internalType": "int256",
                              "name": "amount",
                              "type": "int256"
                            },
                            {
                              "components": [
                                {
                                  "internalType": "address",
                                  "name": "ct",
                                  "type": "address"
                                },
                                {
                                  "internalType": "uint256",
                                  "name": "id",
                                  "type": "uint256"
                                }
                              ],
                              "internalType": "struct MonetaryTypesLib.Currency",
                              "name": "currency",
                              "type": "tuple"
                            }
                          ],
                          "internalType": "struct MonetaryTypesLib.Figure",
                          "name": "figure",
                          "type": "tuple"
                        }
                      ],
                      "internalType": "struct NahmiiTypesLib.OriginFigure[]",
                      "name": "total",
                      "type": "tuple[]"
                    }
                  ],
                  "internalType": "struct NahmiiTypesLib.SingleFigureTotalOriginFigures",
                  "name": "fees",
                  "type": "tuple"
                }
              ],
              "internalType": "struct TradeTypesLib.TradeParty",
              "name": "seller",
              "type": "tuple"
            },
            {
              "components": [
                {
                  "components": [
                    {
                      "internalType": "int256",
                      "name": "single",
                      "type": "int256"
                    },
                    {
                      "internalType": "int256",
                      "name": "total",
                      "type": "int256"
                    }
                  ],
                  "internalType": "struct NahmiiTypesLib.SingleTotalInt256",
                  "name": "intended",
                  "type": "tuple"
                },
                {
                  "components": [
                    {
                      "internalType": "int256",
                      "name": "single",
                      "type": "int256"
                    },
                    {
                      "internalType": "int256",
                      "name": "total",
                      "type": "int256"
                    }
                  ],
                  "internalType": "struct NahmiiTypesLib.SingleTotalInt256",
                  "name": "conjugate",
                  "type": "tuple"
                }
              ],
              "internalType": "struct NahmiiTypesLib.IntendedConjugateSingleTotalInt256",
              "name": "transfers",
              "type": "tuple"
            },
            {
              "components": [
                {
                  "internalType": "bytes32",
                  "name": "hash",
                  "type": "bytes32"
                },
                {
                  "components": [
                    {
                      "internalType": "bytes32",
                      "name": "r",
                      "type": "bytes32"
                    },
                    {
                      "internalType": "bytes32",
                      "name": "s",
                      "type": "bytes32"
                    },
                    {
                      "internalType": "uint8",
                      "name": "v",
                      "type": "uint8"
                    }
                  ],
                  "internalType": "struct NahmiiTypesLib.Signature",
                  "name": "signature",
                  "type": "tuple"
                }
              ],
              "internalType": "struct NahmiiTypesLib.Seal",
              "name": "seal",
              "type": "tuple"
            },
            {
              "internalType": "uint256",
              "name": "blockNumber",
              "type": "uint256"
            },
            {
              "internalType": "uint256",
              "name": "operatorId",
              "type": "uint256"
            }
          ],
          "internalType": "struct TradeTypesLib.Trade",
          "name": "trade",
          "type": "tuple"
        },
        {
          "internalType": "address",
          "name": "challenger",
          "type": "address"
        }
      ],
      "name": "challengeByTrade",
      "outputs": [],
      "payable": false,
      "stateMutability": "nonpayable",
      "type": "function"
    }
  ],
  "bytecode": "0x60806040523480156200001157600080fd5b50604051620059b3380380620059b38339810160408190526200003491620000b3565b80806001600160a01b0381166200004a57600080fd5b6001600160a01b0381163014156200006157600080fd5b5060008054610100600160a81b0319166101006001600160a01b0393909316928302179055600180546001600160a01b03191690911790555062000108565b8051620000ad81620000ee565b92915050565b600060208284031215620000c657600080fd5b6000620000d48484620000a0565b949350505050565b60006001600160a01b038216620000ad565b620000f981620000dc565b81146200010557600080fd5b50565b61589b80620001186000396000f3fe608060405234801561001057600080fd5b50600436106102045760003560e01c806301370d06146102095780630608a9381461021e5780630cca956d1461023157806312255c941461024f57806312b52b3d146102645780631327d3d81461026c57806317ba3f901461027f578063191390921461029f578063240625d8146102a75780632738a112146102af5780632aa1c9d9146102b75780632b5672e3146102ca5780632b91e0a9146102dd5780632f013a00146102f05780633a5381b5146102f85780633b58c501146103005780633b7bea6c146103135780633bd7857f146103285780633dad7da4146103305780633e59b706146103435780634476d23b1461034b57806350b08c021461036057806351d7cd6114610373578063570ca7351461037b578063598b75ad146103835780635dc60def146103965780635df1b0a31461039e578063627f09c3146103b15780636792ce6e146103c45780636b0570d0146103d75780636c70bee9146103df5780636ccb43c8146103e757806370327ea1146103fa5780637e15dd5c14610402578063892860b2146104155780638e8cef1214610428578063922726071461043b578063962147351461044e578063b3ab15fb14610461578063b52d470a14610474578063d5f394881461047c578063e8ae41e314610484578063fa7424f21461048c578063fdd9ec7d14610494575b600080fd5b61021c610217366004614352565b6104a7565b005b61021c61022c366004614435565b610548565b6102396110bf565b60405161024691906153ee565b60405180910390f35b6102576110ce565b6040516102469190615425565b6102576110fc565b61021c61027a366004614352565b611118565b61029261028d366004614225565b6111a9565b60405161024691906153d2565b6102396111e3565b6102926111f2565b61021c611202565b61021c6102c5366004614352565b611268565b61021c6102d8366004614261565b6112ef565b6102926102eb366004614225565b611419565b610292611437565b610239611440565b61021c61030e366004614261565b61144f565b61031b61152b565b60405161024691906153e0565b610239611531565b61021c61033e366004614352565b611540565b6102926115d1565b6103536115e1565b6040516102469190615139565b61021c61036e366004614225565b6115f5565b6102396116b1565b6103536116c0565b61021c610391366004614352565b6116cf565b61021c61178a565b6102926103ac366004614261565b6117d9565b61021c6103bf366004614352565b61182c565b61021c6103d2366004614352565b6118bd565b61023961194e565b61023961195d565b61021c6103f5366004614352565b61196c565b61021c6119e6565b61021c610410366004614492565b611a49565b61021c610423366004614352565b611a9a565b61021c610436366004614225565b611b55565b61021c6104493660046142b2565b611bcf565b61021c61045c366004614225565b61244b565b61021c61046f366004614225565b612501565b61021c6125a4565b6103536125f3565b610239612607565b610239612616565b61021c6104a2366004614225565b612625565b6104af61269a565b6104b857600080fd5b806001600160a01b0381166104cc57600080fd5b60075482906001600160a01b03908116908216811461054257600780546001600160a01b038681166001600160a01b03198316179092556040519116907f07998fa7be97abe2427246ae4688298c89d6196bbffdf0997b9495a8d27bc6739061053890839088906153fc565b60405180910390a1505b50505050565b6040518060600160405280602481526020016158356024913961056b33826117d9565b61057457600080fd5b6003546040516331f2978b60e01b815285916001600160a01b0316906331f2978b906105a4908490600401615586565b60206040518083038186803b1580156105bc57600080fd5b505afa1580156105d0573d6000803e3d6000fd5b505050506040513d601f19601f820116820180604052506105f49190810190614316565b6106195760405162461bcd60e51b815260040161061090615546565b60405180910390fd5b600354604051637211c8c760e11b815285916001600160a01b03169063e423918e90610649908490600401615595565b60206040518083038186803b15801561066157600080fd5b505afa158015610675573d6000803e3d6000fd5b505050506040513d601f19601f820116820180604052506106999190810190614316565b6106b55760405162461bcd60e51b815260040161061090615476565b60208601516003546040516303e149c360e11b81528792916001600160a01b0316906307c29386906106ed90859085906004016155a6565b60206040518083038186803b15801561070557600080fd5b505afa158015610719573d6000803e3d6000fd5b505050506040513d601f19601f8201168201806040525061073d9190810190614316565b6107595760405162461bcd60e51b815260040161061090615446565b610761613aa9565b61076a896126b0565b600b5460208b015160405163076470a560e31b81529293506001600160a01b0390911691633b238528916107a29185906004016152c9565b60206040518083038186803b1580156107ba57600080fd5b505afa1580156107ce573d6000803e3d6000fd5b505050506040513d601f19601f820116820180604052506107f29190810190614316565b61080e5760405162461bcd60e51b8152600401610610906154f6565b600b5460208a0151604051635482c73560e01b81526001600160a01b0390921691635482c735916108439185906004016152c9565b60206040518083038186803b15801561085b57600080fd5b505afa15801561086f573d6000803e3d6000fd5b505050506040513d601f19601f820116820180604052506108939190810190614316565b156108b05760405162461bcd60e51b815260040161061090615436565b600b5460208a015160405163b6e2fc3360e01b81526001600160a01b039092169163b6e2fc33916108e59185906004016152c9565b60206040518083038186803b1580156108fd57600080fd5b505afa158015610911573d6000803e3d6000fd5b505050506040513d601f19601f820116820180604052506109359190810190614370565b600181111561094057fe5b60011461095f5760405162461bcd60e51b8152600401610610906154d6565b600b5460208a015160405163160ed0cd60e11b8152610a77926001600160a01b031691632c1da19a91610997919086906004016152c9565b60006040518083038186803b1580156109af57600080fd5b505afa1580156109c3573d6000803e3d6000fd5b505050506040513d6000823e601f3d908101601f191682016040526109eb9190810190614401565b73__TradeTypesLib_________________________63af75a2f76040518163ffffffff1660e01b815260040160006040518083038186803b158015610a2f57600080fd5b505af4158015610a43573d6000803e3d6000fd5b505050506040513d6000823e601f3d908101601f19168201604052610a6b9190810190614401565b9063ffffffff6126ef16565b610a935760405162461bcd60e51b815260040161061090615526565b60075460e0890151516040516352c894d160e11b81526001600160a01b039092169163a59129a291610ac7916004016153e0565b60206040518083038186803b158015610adf57600080fd5b505afa158015610af3573d6000803e3d6000fd5b505050506040513d601f19601f82011682018060405250610b179190810190614316565b15610b345760405162461bcd60e51b815260040161061090615506565b60075460608a0151602001515160405163e1f5828b60e01b81526001600160a01b039092169163e1f5828b91610b6c916004016153e0565b60206040518083038186803b158015610b8457600080fd5b505afa158015610b98573d6000803e3d6000fd5b505050506040513d601f19601f82011682018060405250610bbc9190810190614316565b15610bd95760405162461bcd60e51b8152600401610610906154e6565b600b5460208a0151604051631b90e3c160e01b81526000926001600160a01b031691631b90e3c191610c10919086906004016152c9565b60206040518083038186803b158015610c2857600080fd5b505afa158015610c3c573d6000803e3d6000fd5b505050506040513d601f19601f82011682018060405250610c609190810190614334565b60608b015160200151519091508114610c8b5760405162461bcd60e51b815260040161061090615486565b610c998a602001518a612777565b8114610cb75760405162461bcd60e51b815260040161061090615536565b600b5460208b0151604051635658722960e01b81526000926001600160a01b031691635658722991610cee919087906004016152c9565b60206040518083038186803b158015610d0657600080fd5b505afa158015610d1a573d6000803e3d6000fd5b505050506040513d601f19601f82011682018060405250610d3e9190810190614243565b600b5460208d01516040516333ca4eab60e21b81529293506001600160a01b039091169163cf293aac91610d769187906004016152c9565b60206040518083038186803b158015610d8e57600080fd5b505afa158015610da2573d6000803e3d6000fd5b505050506040513d601f19601f82011682018060405250610dc69190810190614316565b15610e3f576005546020808d01518551918601516040516346c5c02360e01b81526001600160a01b03909416936346c5c02393610e0893928792600401615170565b600060405180830381600087803b158015610e2257600080fd5b505af1158015610e36573d6000803e3d6000fd5b50505050610eac565b6004805484516020860151604051634e791e0d60e01b81526001600160a01b0390931693634e791e0d93610e7993879390929091016151ff565b600060405180830381600087803b158015610e9357600080fd5b505af1158015610ea7573d6000803e3d6000fd5b505050505b600b5460208c01516040516331ba74fb60e11b81526001600160a01b0390921691636374e9f691610ee19187906004016152c9565b600060405180830381600087803b158015610efb57600080fd5b505af1158015610f0f573d6000803e3d6000fd5b50506004805460025460408051630a2d7e5760e21b815290516001600160a01b03938416965063760b829295508f9493909216926328b5f95c928282019260209290829003018186803b158015610f6557600080fd5b505afa158015610f79573d6000803e3d6000fd5b505050506040513d601f19601f82011682018060405250610f9d9190810190614334565b60006040518463ffffffff1660e01b8152600401610fbd93929190615353565b600060405180830381600087803b158015610fd757600080fd5b505af1158015610feb573d6000803e3d6000fd5b5050600b5460208e0151604051632ee2ed2560e01b81527f1787bae68d74e61c635b2fbee6c778c2a06ce036b886dbd0c6e0bcd6b706a19994506001600160a01b039092169250632ee2ed2591611047919088906004016152c9565b60206040518083038186803b15801561105f57600080fd5b505afa158015611073573d6000803e3d6000fd5b505050506040513d601f19601f820116820180604052506110979190810190614334565b8c8c8c6040516110aa94939291906155c6565b60405180910390a15050505050505050505050565b6008546001600160a01b031681565b604051806040016040528060128152602001716368616c6c656e67655f62795f747261646560701b81525081565b6040518060600160405280602481526020016158356024913981565b61112061269a565b61112957600080fd5b806001600160a01b03811661113d57600080fd5b60035482906001600160a01b03908116908216811461054257600380546001600160a01b038681166001600160a01b03198316179092556040519116907f1882af944a16549c3d4f60e3cd26f158b0c7aac3222cf32971fc21375ce05f609061053890839088906153fc565b60006111b482611419565b80156111db57506001600160a01b0382166000908152600960205260409020600101544210155b90505b919050565b6006546001600160a01b031681565b600554600160a01b900460ff1681565b3361120b6115e1565b6001600160a01b03161461121e57600080fd5b60005460ff161561122e57600080fd5b7f787a5d936e74f4b564b9153575886059829c78cd9927b1be5e0d976b317ef7363360405161125d9190615147565b60405180910390a133ff5b61127061269a565b61127957600080fd5b806001600160a01b03811661128d57600080fd5b600b80546001600160a01b038481166001600160a01b031983161792839055604051918116927f4f7125332801996cdeaabf9cff1ac89ddf4b52c673558936affe853ab64a88da926112e292859216906153fc565b60405180910390a1505050565b6112f761269a565b61130057600080fd5b816001600160a01b03811661131457600080fd5b6001600160a01b03811630141561132a57600080fd5b6001600160a01b03831660009081526009602052604090205460ff1661134f57600080fd5b600061135a8361282d565b6001600160a01b038516600090815260096020908152604080832084845260020190915290205490915060ff161561139157600080fd5b6001600160a01b0384166000908152600960208181526040808420858552600281018352818520805460ff19166001908117909155938352600301805493840181558452922001829055517fec1b982d69bfc1a6fd8becf191d9a633486c822d3bdedd52303ca81fa63575019061140b90869086906152a9565b60405180910390a150505050565b6001600160a01b031660009081526009602052604090205460ff1690565b60005460ff1681565b6003546001600160a01b031681565b61145761269a565b61146057600080fd5b816001600160a01b03811661147457600080fd5b6001600160a01b03811630141561148a57600080fd5b60006114958361282d565b6001600160a01b038516600090815260096020908152604080832084845260020190915290205490915060ff166114cb57600080fd5b6001600160a01b038416600090815260096020908152604080832084845260020190915290819020805460ff19169055517f92f4af6130f47c92f3899e06611c8c6ef191fb81207ad2675d134af619d2fe7d9061140b90869086906152a9565b600a5481565b6007546001600160a01b031681565b61154861269a565b61155157600080fd5b806001600160a01b03811661156557600080fd5b60085482906001600160a01b03908116908216811461054257600880546001600160a01b038681166001600160a01b03198316179092556040519116907fafe0f82771e36e01015c06151eff69190d6796b6359da2780a8dd89ded9b22059061053890839088906153fc565b600654600160a01b900460ff1681565b60005461010090046001600160a01b031690565b6115fd61269a565b61160657600080fd5b806001600160a01b03811661161a57600080fd5b6001600160a01b03811630141561163057600080fd5b6001600160a01b03821660009081526009602052604090205460ff1661165557600080fd5b6001600160a01b03821660009081526009602052604090819020805460ff19169055517f777645c5437dfbf962f57a281ead25f3d513f2f8e938685bbfc1738e81c9880e906116a5908490615139565b60405180910390a15050565b600b546001600160a01b031681565b6001546001600160a01b031681565b6116d761269a565b6116e057600080fd5b806001600160a01b0381166116f457600080fd5b60065482906001600160a01b03908116908216811461054257600654600160a01b900460ff16156117375760405162461bcd60e51b815260040161061090615456565b600680546001600160a01b038681166001600160a01b03198316179092556040519116907fb2a91d3a71b0c5bc7c083153b3474378e489506ba98bd4ddb1b9056fdc594bb59061053890839088906153fc565b61179261269a565b61179b57600080fd5b6005805460ff60a01b1916600160a01b1790556040517f56ec8900b9c4bf84f4b715a53068ca06961dd49084c07b481931e2c2045346e690600090a1565b6000806117e58361282d565b90506117f0846111a9565b801561182257506001600160a01b038416600090815260096020908152604080832084845260020190915290205460ff165b9150505b92915050565b61183461269a565b61183d57600080fd5b806001600160a01b03811661185157600080fd5b60025482906001600160a01b03908116908216811461054257600280546001600160a01b038681166001600160a01b03198316179092556040519116907f634f61bf00e14adedce330c80c2823e16e184f189ebe853e1ddecc4a268477ff9061053890839088906153fc565b6118c561269a565b6118ce57600080fd5b806001600160a01b0381166118e257600080fd5b60045482906001600160a01b03908116908216811461054257600480546001600160a01b038681166001600160a01b03198316179092556040519116907fc9f3f00c1760fe26985aeacb814a21c56ea289d680562e89b249681b08c303829061053890839088906153fc565b6004546001600160a01b031681565b6002546001600160a01b031681565b61197461269a565b61197d57600080fd5b806001600160a01b03811661199157600080fd5b600c80546001600160a01b038481166001600160a01b031983161792839055604051918116927ff21c127205310467822e10c64b2d9ffae588e019194d6af71f2bdddc0b7ef526926112e292859216906153fc565b336119ef6115e1565b6001600160a01b031614611a0257600080fd5b6000805460ff191660011790556040517fd5a2a04a775c741c2ca0dc46ea7ce4835190e1aaf1ca018def0e82568ec3361690611a3f903390615147565b60405180910390a1565b611a5161269a565b611a5a57600080fd5b600a8190556040517f4f1d324a1cbffc352fb64f1d73d95e4b200d92f99ef39bf2d7f5b41f946909d690611a8f9083906153e0565b60405180910390a150565b611aa261269a565b611aab57600080fd5b806001600160a01b038116611abf57600080fd5b60055482906001600160a01b03908116908216811461054257600554600160a01b900460ff1615611b025760405162461bcd60e51b815260040161061090615576565b600580546001600160a01b038681166001600160a01b03198316179092556040519116907fa44d361e26327b72a7ccbeae801b3c5cd7677ea4fa74168b289e273c46bfecfc9061053890839088906153fc565b611b5d61269a565b611b6657600080fd5b806001600160a01b038116611b7a57600080fd5b6001600160a01b038116301415611b9057600080fd5b611b9c82600a5461285d565b7f7f3a8349917003ed377f6e9ae1608b92edd893903f8983bd274b1f8373dd3b1182600a546040516116a5929190615227565b604051806040016040528060128152602001716368616c6c656e67655f62795f747261646560701b815250611c0433826117d9565b611c0d57600080fd5b600354604051637211c8c760e11b815284916001600160a01b03169063e423918e90611c3d908490600401615595565b60206040518083038186803b158015611c5557600080fd5b505afa158015611c69573d6000803e3d6000fd5b505050506040513d601f19601f82011682018060405250611c8d9190810190614316565b611ca95760405162461bcd60e51b815260040161061090615476565b6003546040516303e149c360e11b8152859187916001600160a01b03909116906307c2938690611cdf90859085906004016155a6565b60206040518083038186803b158015611cf757600080fd5b505afa158015611d0b573d6000803e3d6000fd5b505050506040513d601f19601f82011682018060405250611d2f9190810190614316565b611d4b5760405162461bcd60e51b815260040161061090615446565b60075460e0870151516040516352c894d160e11b81526001600160a01b039092169163a59129a291611d7f916004016153e0565b60206040518083038186803b158015611d9757600080fd5b505afa158015611dab573d6000803e3d6000fd5b505050506040513d601f19601f82011682018060405250611dcf9190810190614316565b15611dec5760405162461bcd60e51b8152600401610610906154a6565b6007546001600160a01b031663e1f5828b611e078989612777565b6040518263ffffffff1660e01b8152600401611e2391906153e0565b60206040518083038186803b158015611e3b57600080fd5b505afa158015611e4f573d6000803e3d6000fd5b505050506040513d601f19601f82011682018060405250611e739190810190614316565b15611e905760405162461bcd60e51b815260040161061090615566565b6008546001600160a01b0316639bd5eb1688611eac818a612777565b6040518363ffffffff1660e01b8152600401611ec9929190615227565b60206040518083038186803b158015611ee157600080fd5b505afa158015611ef5573d6000803e3d6000fd5b505050506040513d601f19601f82011682018060405250611f199190810190614316565b15611f365760405162461bcd60e51b815260040161061090615516565b611f3e613aa9565b611f4888886128ac565b600b5460405163076470a560e31b81529192506001600160a01b031690633b23852890611f7b908b9085906004016152c9565b60206040518083038186803b158015611f9357600080fd5b505afa158015611fa7573d6000803e3d6000fd5b505050506040513d601f19601f82011682018060405250611fcb9190810190614316565b611fe75760405162461bcd60e51b815260040161061090615466565b600b54604051635482c73560e01b81526001600160a01b0390911690635482c73590612019908b9085906004016152c9565b60206040518083038186803b15801561203157600080fd5b505afa158015612045573d6000803e3d6000fd5b505050506040513d601f19601f820116820180604052506120699190810190614316565b156120865760405162461bcd60e51b8152600401610610906154c6565b60006120928989612953565b600b54604051632ee2ed2560e01b81529192506001600160a01b031690632ee2ed25906120c5908c9086906004016152c9565b60206040518083038186803b1580156120dd57600080fd5b505afa1580156120f1573d6000803e3d6000fd5b505050506040513d601f19601f820116820180604052506121159190810190614334565b81116121335760405162461bcd60e51b815260040161061090615496565b600b5460405163553d90e960e01b81526001600160a01b039091169063553d90e990612165908c9086906004016152c9565b60206040518083038186803b15801561217d57600080fd5b505afa158015612191573d6000803e3d6000fd5b505050506040513d601f19601f820116820180604052506121b59190810190614334565b81116121d35760405162461bcd60e51b8152600401610610906154b6565b6121de8989846129f0565b6121fa5760405162461bcd60e51b815260040161061090615556565b612211896122088b8b612c53565b848a6000612cfc565b600b60009054906101000a90046001600160a01b03166001600160a01b031663667666c88a848a8c6101000151868e60e001516000015173__TradeTypesLib_________________________6332575cb66040518163ffffffff1660e01b815260040160006040518083038186803b15801561228c57600080fd5b505af41580156122a0573d6000803e3d6000fd5b505050506040513d6000823e601f3d908101601f191682016040526122c89190810190614401565b6040518863ffffffff1660e01b81526004016122ea97969594939291906152e4565b600060405180830381600087803b15801561230457600080fd5b505af1158015612318573d6000803e3d6000fd5b5050600c54604051632ce4e29b60e21b81526001600160a01b03909116925063b3938a6c915061234e908c9086906004016152c9565b600060405180830381600087803b15801561236857600080fd5b505af115801561237c573d6000803e3d6000fd5b5050600b54604051632ee2ed2560e01b81527fb69fdc3af3abb19f37028d39f381743ca840cb47e6b36f7c0399810761c4387093508c92506001600160a01b0390911690632ee2ed25906123d690849088906004016152c9565b60206040518083038186803b1580156123ee57600080fd5b505afa158015612402573d6000803e3d6000fd5b505050506040513d601f19601f820116820180604052506124269190810190614334565b8a8a604051612438949392919061537b565b60405180910390a1505050505050505050565b61245361269a565b61245c57600080fd5b806001600160a01b03811661247057600080fd5b6001600160a01b03811630141561248657600080fd5b6000546001600160a01b0383811661010090920416146124fd57600080546001600160a01b03848116610100908102610100600160a81b03198416179093556040519290910416907f977e5fa58e458501775e0008d275006294c5249e3c08d1d0e3a9f3acad14f6e4906112e29083908690615155565b5050565b612509612da8565b61251257600080fd5b806001600160a01b03811661252657600080fd5b6001600160a01b03811630141561253c57600080fd5b6001546001600160a01b038381169116146124fd57600180546001600160a01b038481166001600160a01b03198316179092556040519116907f9f611b789425d0d5b90b920f1b2852907dd865c80074a30b1629aaa041d1812c906112e29083908690615155565b6125ac61269a565b6125b557600080fd5b6006805460ff60a01b1916600160a01b1790556040517f9c567b65fe8caab5ec7bc979a498a1322c1d4baf01a30727cbca137187560ea290600090a1565b60005461010090046001600160a01b031681565b6005546001600160a01b031681565b600c546001600160a01b031681565b61262d61269a565b61263657600080fd5b806001600160a01b03811661264a57600080fd5b6001600160a01b03811630141561266057600080fd5b61266b82600061285d565b7fb619d545cb511bd5f02907a1eac4f4cb8dace7b1846852fb0bf5e553937481c1826040516116a59190615139565b60005461010090046001600160a01b0316331490565b6126b8613aa9565b60408201515160018111156126c957fe5b6001146126e257816040015160400151602001516111db565b5060409081015101515190565b80518251600091849184911461270a57600092505050611826565b60005b825181101561276b5781818151811061272257fe5b602001015160f81c60f81b6001600160f81b03191683828151811061274357fe5b01602001516001600160f81b031916146127635760009350505050611826565b60010161270d565b50600195945050505050565b60035460405163059057d760e01b81526000916001600160a01b03169063059057d7906127aa90859087906004016155a6565b60206040518083038186803b1580156127c257600080fd5b505afa1580156127d6573d6000803e3d6000fd5b505050506040513d601f19601f820116820180604052506127fa9190810190614316565b612814578160a00151608001516020015160200151612826565b81608001516080015160200151602001515b9392505050565b600081604051602001612840919061512d565b604051602081830303815290604052805190602001209050919050565b6001600160a01b03821660009081526009602052604090205460ff166124fd576001600160a01b0382166000908152600960205260409020805460ff1916600190811782554283019101555050565b6128b4613aa9565b60035460405163059057d760e01b81526001600160a01b039091169063059057d7906128e690859087906004016155a6565b60206040518083038186803b1580156128fe57600080fd5b505afa158015612912573d6000803e3d6000fd5b505050506040513d601f19601f820116820180604052506129369190810190614316565b61294557604082015151612826565b506040015160200151919050565b60035460405163059057d760e01b81526000916001600160a01b03169063059057d79061298690859087906004016155a6565b60206040518083038186803b15801561299e57600080fd5b505afa1580156129b2573d6000803e3d6000fd5b505050506040513d601f19601f820116820180604052506129d69190810190614316565b6129e55760a082015151612826565b506080015151919050565b600b5460405163c46fcd7560e01b815260009182916001600160a01b039091169063c46fcd7590612a2790889087906004016152c9565b60206040518083038186803b158015612a3f57600080fd5b505afa158015612a53573d6000803e3d6000fd5b505050506040513d601f19601f82011682018060405250612a779190810190614334565b600b5460405163374852cb60e11b8152919250600091612b4e91612b2591899188916001600160a01b0390911690636e90a59690612abb90859085906004016152c9565b60206040518083038186803b158015612ad357600080fd5b505afa158015612ae7573d6000803e3d6000fd5b505050506040513d601f19601f82011682018060405250612b0b9190810190614334565b6006546001600160a01b031692919063ffffffff612db916565b600654612b42906001600160a01b0316898863ffffffff612dd516565b9063ffffffff612fde16565b610100860151600654919250600091612b8891612b7e916001600160a01b0316908a90899063ffffffff612db916565b612b428989612c53565b600b54604051638ab3e96560e01b8152919250600091612c2491600019916001600160a01b0390911690638ab3e96590612bc8908d908c906004016152c9565b60206040518083038186803b158015612be057600080fd5b505afa158015612bf4573d6000803e3d6000fd5b505050506040513d601f19601f82011682018060405250612c189190810190614334565b9063ffffffff61301816565b9050612c36818363ffffffff612fde16565b612c46858563ffffffff61307716565b1298975050505050505050565b60035460405163059057d760e01b81526000916001600160a01b03169063059057d790612c8690859087906004016155a6565b60206040518083038186803b158015612c9e57600080fd5b505afa158015612cb2573d6000803e3d6000fd5b505050506040513d601f19601f82011682018060405250612cd69190810190614316565b612ce95760a08083015101515151612826565b506080015160a001516020015151919050565b600b546040516333ca4eab60e21b81526001600160a01b039091169063cf293aac90612d2e90889087906004016152c9565b60206040518083038186803b158015612d4657600080fd5b505afa158015612d5a573d6000803e3d6000fd5b505050506040513d601f19601f82011682018060405250612d7e9190810190614316565b15612d9457612d8f858585856130a9565b612da1565b612da1858585858561331d565b5050505050565b6001546001600160a01b0316331490565b600080612dc88686868661372a565b509150505b949350505050565b6000612dcd846001600160a01b03166371f4ec5185876001600160a01b0316634652ec746040518163ffffffff1660e01b815260040160206040518083038186803b158015612e2357600080fd5b505afa158015612e37573d6000803e3d6000fd5b505050506040513d601f19601f82011682018060405250612e5b9190810190614334565b865160208801516040516001600160e01b031960e087901b168152612e869493929190600401615242565b60206040518083038186803b158015612e9e57600080fd5b505afa158015612eb2573d6000803e3d6000fd5b505050506040513d601f19601f82011682018060405250612ed69190810190614334565b856001600160a01b03166371f4ec5186886001600160a01b031663ded113106040518163ffffffff1660e01b815260040160206040518083038186803b158015612f1f57600080fd5b505afa158015612f33573d6000803e3d6000fd5b505050506040513d601f19601f82011682018060405250612f579190810190614334565b875160208901516040516001600160e01b031960e087901b168152612f829493929190600401615242565b60206040518083038186803b158015612f9a57600080fd5b505afa158015612fae573d6000803e3d6000fd5b505050506040513d601f19601f82011682018060405250612fd29190810190614334565b9063ffffffff61307716565b6000808212158015612ff257508282840313155b806130095750600082128015613009575082828403135b61301257600080fd5b50900390565b60008260001914158061302f5750600160ff1b8214155b61303857600080fd5b8160001914158061304d5750600160ff1b8314155b61305657600080fd5b82820282158061306e57508383828161306b57fe5b05145b61282657600080fd5b600082820181831280159061308c5750838112155b8061306e575060008312801561306e575083811261282657600080fd5b600b5460405163b6e2fc3360e01b81526001600160a01b039091169063b6e2fc33906130db90879086906004016152c9565b60206040518083038186803b1580156130f357600080fd5b505afa158015613107573d6000803e3d6000fd5b505050506040513d601f19601f8201168201806040525061312b9190810190614370565b600181111561313657fe5b6001141561322c57600554600b54604051635658722960e01b81526001600160a01b03928316926346c5c02392889291169063565872299061317e90849089906004016152c9565b60206040518083038186803b15801561319657600080fd5b505afa1580156131aa573d6000803e3d6000fd5b505050506040513d601f19601f820116820180604052506131ce9190810190614243565b855160208701516040516001600160e01b031960e087901b1681526131f99493929190600401615170565b600060405180830381600087803b15801561321357600080fd5b505af1158015613227573d6000803e3d6000fd5b505050505b60055482516020808501516002546040805163fbdfd8e760e01b815290516001600160a01b0396871696639a545322968c968a968d9692959094929093169263fbdfd8e79260048083019392829003018186803b15801561328c57600080fd5b505afa1580156132a0573d6000803e3d6000fd5b505050506040513d601f19601f820116820180604052506132c49190810190614334565b6040518763ffffffff1660e01b81526004016132e5969594939291906151a5565b600060405180830381600087803b1580156132ff57600080fd5b505af1158015613313573d6000803e3d6000fd5b5050505050505050565b600b5460405163b6e2fc3360e01b81526001600160a01b039091169063b6e2fc339061334f90889087906004016152c9565b60206040518083038186803b15801561336757600080fd5b505afa15801561337b573d6000803e3d6000fd5b505050506040513d601f19601f8201168201806040525061339f9190810190614370565b60018111156133aa57fe5b6001141561349d5760048054600b54604051635658722960e01b81526001600160a01b0392831693634e791e0d93909216916356587229916133f0918b918a91016152c9565b60206040518083038186803b15801561340857600080fd5b505afa15801561341c573d6000803e3d6000fd5b505050506040513d601f19601f820116820180604052506134409190810190614243565b855160208701516040516001600160e01b031960e086901b16815261346a939291906004016151ff565b600060405180830381600087803b15801561348457600080fd5b505af1158015613498573d6000803e3d6000fd5b505050505b6134a5613ac0565b6134ad6139e1565b6004805482516020808501518051910151604051634197bc1960e11b81529596506001600160a01b039093169463832f7832946134f2948a94939290918a910161525d565b600060405180830381600087803b15801561350c57600080fd5b505af1158015613520573d6000803e3d6000fd5b50506004805487516020808a01516002546040805163560069d960e11b815290516000995073__SafeMathIntLib________________________985063755875b2978f976001600160a01b039081169763a72148eb979096959091169363ac00d3b293818401939091829003018186803b15801561359d57600080fd5b505afa1580156135b1573d6000803e3d6000fd5b505050506040513d601f19601f820116820180604052506135d59190810190614334565b6040518463ffffffff1660e01b81526004016135f3939291906153b7565b60206040518083038186803b15801561360b57600080fd5b505afa15801561361f573d6000803e3d6000fd5b505050506040513d601f19601f820116820180604052506136439190810190614334565b6040518363ffffffff1660e01b8152600401613660929190615417565b60206040518083038186803b15801561367857600080fd5b505af415801561368c573d6000803e3d6000fd5b505050506040513d601f19601f820116820180604052506136b09190810190614334565b6004805487516020890151604051634197bc1960e11b81529495506001600160a01b039092169363832f7832936136ef938a93889390928b910161525d565b600060405180830381600087803b15801561370957600080fd5b505af115801561371d573d6000803e3d6000fd5b5050505050505050505050565b600080600080876001600160a01b031663a246138c888a6001600160a01b031663ded113106040518163ffffffff1660e01b815260040160206040518083038186803b15801561377957600080fd5b505afa15801561378d573d6000803e3d6000fd5b505050506040513d601f19601f820116820180604052506137b19190810190614334565b895160208b01516040516001600160e01b031960e087901b1681526137de94939291908c9060040161525d565b604080518083038186803b1580156137f557600080fd5b505afa158015613809573d6000803e3d6000fd5b505050506040513d601f19601f8201168201806040525061382d91908101906143d1565b91509150600080896001600160a01b031663a246138c8a8c6001600160a01b0316634652ec746040518163ffffffff1660e01b815260040160206040518083038186803b15801561387d57600080fd5b505afa158015613891573d6000803e3d6000fd5b505050506040513d601f19601f820116820180604052506138b59190810190614334565b8b5160208d01516040516001600160e01b031960e087901b1681526138e294939291908e9060040161525d565b604080518083038186803b1580156138f957600080fd5b505afa15801561390d573d6000803e3d6000fd5b505050506040513d601f19601f8201168201806040525061393191908101906143d1565b9092509050613946848363ffffffff61307716565b60405163a682d5ad60e01b815290965073__SafeMathUintLib_______________________9063a682d5ad906139829086908590600401615417565b60206040518083038186803b15801561399a57600080fd5b505af41580156139ae573d6000803e3d6000fd5b505050506040513d601f19601f820116820180604052506139d29190810190614334565b94505050505094509492505050565b6139e9613ac0565b6000806000600260009054906101000a90046001600160a01b03166001600160a01b031663ccd03d2e6040518163ffffffff1660e01b815260040160606040518083038186803b158015613a3c57600080fd5b505afa158015613a50573d6000803e3d6000fd5b505050506040513d601f19601f82011682018060405250613a74919081019061438e565b60408051808201825293845280518082019091526001600160a01b039092168252602082810191909152820152935050505090565b604080518082019091526000808252602082015290565b604051806040016040528060008152602001613ada613aa9565b905290565b80356118268161572f565b80516118268161572f565b600082601f830112613b0657600080fd5b8135613b19613b148261562b565b615605565b91508181835260208401935060208101905083856080840282011115613b3e57600080fd5b60005b83811015613b6c5781613b548882613e8e565b84525060209092019160809190910190600101613b41565b5050505092915050565b805161182681615743565b80356118268161574c565b80516118268161574c565b803561182681615755565b80356118268161575e565b80516118268161575e565b600082601f830112613bc957600080fd5b8135613bd7613b148261564b565b91508082526020830160208301858383011115613bf357600080fd5b613bfe8382846156e0565b50505092915050565b600082601f830112613c1857600080fd5b8151613c26613b148261564b565b91508082526020830160208301858383011115613c4257600080fd5b613bfe8382846156ec565b600060408284031215613c5f57600080fd5b613c696040615605565b90506000613c778484613adf565b8252506020613c8884848301613b81565b60208301525092915050565b600060408284031215613ca657600080fd5b613cb06040615605565b90506000613c778484613b81565b600060608284031215613cd057600080fd5b613cda6040615605565b90506000613ce88484613b81565b8252506020613c8884848301613c4d565b600060808284031215613d0b57600080fd5b613d156040615605565b90506000613d238484613c4d565b8252506040613c8884848301613c4d565b600060808284031215613d4657600080fd5b613d506040615605565b90506000613d5e8484613c94565b8252506040613c8884848301613c94565b60006101208284031215613d8257600080fd5b613d8c60a0615605565b90506000613d9a8484613ba2565b8252506020613dab84848301613b81565b6020830152506040613dbf84828501613cf9565b60408301525060c0613dd384828501613b81565b60608301525060e0613de784828501613c94565b60808301525092915050565b60006102a08284031215613e0657600080fd5b613e1060c0615605565b90506000613e1e8484613b81565b8252506020613e2f84848301613adf565b6020830152506040613e4384828501613d6f565b604083015250610160613e58848285016141de565b606083015250610260613e6d84828501613b81565b608083015250610280613e8284828501613b81565b60a08301525092915050565b600060808284031215613ea057600080fd5b613eaa6040615605565b90506000613eb88484613b81565b8252506020613c8884848301613cbe565b600060808284031215613edb57600080fd5b613ee56040615605565b90506000613ef38484613b81565b8252506020613c8884848301600060608284031215613f1157600080fd5b613f1b6060615605565b90506000613f298484613b81565b8252506020613f3a84848301613b81565b6020830152506040613f4e8482850161421a565b60408301525092915050565b600060808284031215613f6c57600080fd5b613f766040615605565b90506000613f848484613cbe565b82525060608201356001600160401b03811115613fa057600080fd5b613c8884828501613af5565b600060a08284031215613fbe57600080fd5b613fc86060615605565b90506000613fd68484613b81565b8252506020613fe784848301613c94565b6020830152506060613f4e84828501613c94565b60006101c0828403121561400e57600080fd5b61401860e0615605565b905060006140268484613b81565b825250602061403784848301613adf565b602083015250604061404b84828501613b81565b604083015250606061405f84828501613ba2565b606083015250608061407384828501613fac565b60808301525061012061408884828501613d34565b60a0830152506101a08201356001600160401b038111156140a857600080fd5b6140b484828501613f5a565b60c08301525092915050565b600061026082840312156140d357600080fd5b6140de610140615605565b905060006140ec8484613b81565b82525060206140fd84848301613b81565b602083015250604061411184828501613cf9565b60408301525060c061412584828501613b81565b60608301525060e08201356001600160401b0381111561414457600080fd5b61415084828501613ffb565b6080830152506101008201356001600160401b0381111561417057600080fd5b61417c84828501613ffb565b60a08301525061012061419184828501613d34565b60c0830152506101a06141a684828501613ec9565b60e0830152506102206141bb84828501613b81565b610100830152506102406141d184828501613b81565b6101208301525092915050565b600061010082840312156141f157600080fd5b6141fb6040615605565b905060006142098484613ec9565b8252506080613c8884848301613ec9565b80356118268161576b565b60006020828403121561423757600080fd5b60006118228484613adf565b60006020828403121561425557600080fd5b60006118228484613aea565b6000806040838503121561427457600080fd5b60006142808585613adf565b92505060208301356001600160401b0381111561429c57600080fd5b6142a885828601613bb8565b9150509250929050565b6000806000606084860312156142c757600080fd5b60006142d38686613adf565b93505060208401356001600160401b038111156142ef57600080fd5b6142fb868287016140c0565b925050604061430c86828701613adf565b9150509250925092565b60006020828403121561432857600080fd5b60006118228484613b76565b60006020828403121561434657600080fd5b60006118228484613b8c565b60006020828403121561436457600080fd5b60006118228484613b97565b60006020828403121561438257600080fd5b60006118228484613bad565b6000806000606084860312156143a357600080fd5b60006143af8686613b8c565b93505060206143c086828701613aea565b925050604061430c86828701613b8c565b600080604083850312156143e457600080fd5b60006143f08585613b8c565b92505060206142a885828601613b8c565b60006020828403121561441357600080fd5b81516001600160401b0381111561442957600080fd5b61182284828501613c07565b60008060006102e0848603121561444b57600080fd5b60006144578686613df3565b9350506102a08401356001600160401b0381111561447457600080fd5b614480868287016140c0565b9250506102c061430c86828701613adf565b6000602082840312156144a457600080fd5b60006118228484613b81565b60006144bc8383614eae565b505060800190565b6144cd816156bf565b82525050565b6144cd81615685565b60006144e782615678565b6144f1818561567c565b93506144fc83615672565b8060005b8381101561452a57815161451488826144b0565b975061451f83615672565b925050600101614500565b509495945050505050565b6144cd81615690565b6144cd81615695565b6144cd81615698565b6144cd816156ca565b6144cd816156d5565b600061456d82615678565b614577818561567c565b93506145878185602086016156ec565b61459081615718565b9093019392505050565b60006145a582615678565b6145af81856111de565b93506145bf8185602086016156ec565b9290920192915050565b60006145d6603e8361567c565b60008051602061579583398151915281527f746c656d656e7444697370757465427954726164652e736f6c3a3131375d0000602082015260400192915050565b6000614623602d8361567c565b7f57616c6c6574206e6f74207472616465207061727479205b56616c696461746181526c626c6556322e736f6c3a38355d60981b602082015260400192915050565b600061467260308361567c565b7f42616c616e636520747261636b65722066726f7a656e205b42616c616e63655481526f7261636b61626c652e736f6c3a34335d60801b602082015260400192915050565b60006146c460398361567c565b6000805160206157d58339815191528152786e7444697370757465427954726164652e736f6c3a3232325d60381b602082015260400192915050565b600061470d602d8361567c565b7f5472616465207365616c206e6f742067656e75696e65205b56616c696461746181526c626c6556322e736f6c3a37305d60981b602082015260400192915050565b600061475c605f8361567c565b60008051602061577583398151915281527f646966666572732066726f6d206f726465722068617368205b4472696970536560208201527f74746c656d656e7444697370757465427954726164652e736f6c3a3135345d00604082015260600192915050565b60006147cf605c8361567c565b60008051602061581583398151915281527f207468616e2070726f706f73616c206e6f6e6365205b4472696970536574746c60208201527b656d656e7444697370757465427954726164652e736f6c3a3233385d60201b604082015260600192915050565b6000614841603f8361567c565b6000805160206157b583398151915281527f74746c656d656e7444697370757465427954726164652e736f6c3a3230315d00602082015260400192915050565b600061488e606d8361567c565b60008051602061581583398151915281527f207468616e2070726f706f73616c206469737175616c696669636174696f6e2060208201527f6e6f6e6365205b4472696970536574746c656d656e744469737075746542795460408201526c726164652e736f6c3a3234325d60981b606082015260800192915050565b6000614917603e8361567c565b60008051602061579583398151915281527f746c656d656e7444697370757465427954726164652e736f6c3a3232385d0000602082015260400192915050565b600061496460418361567c565b7f50726f706f73616c206e6f74206469737175616c6966696564205b447269697081527f536574746c656d656e7444697370757465427954726164652e736f6c3a3132336020820152605d60f81b604082015260600192915050565b60006149cd603f8361567c565b6000805160206157f583398151915281527f74746c656d656e7444697370757465427954726164652e736f6c3a3134315d00602082015260400192915050565b6000614a1a60398361567c565b6000805160206157d58339815191528152786e7444697370757465427954726164652e736f6c3a3131315d60381b602082015260400192915050565b6000614a63603f8361567c565b6000805160206157b583398151915281527f74746c656d656e7444697370757465427954726164652e736f6c3a3133375d00602082015260400192915050565b6000614ab0603e8361567c565b7f4f72646572206465656d65642063616e63656c6c6564205b447269697053657481527f746c656d656e7444697370757465427954726164652e736f6c3a3231335d0000602082015260400192915050565b6000614b0f60548361567c565b7f4469737175616c696669636174696f6e2063616e646964617465206b696e642081527f6973206e6f74206f72646572205b4472696970536574746c656d656e7444697360208201527370757465427954726164652e736f6c3a3132395d60601b604082015260600192915050565b6000614b8b605f8361567c565b60008051602061577583398151915281527f646966666572732066726f6d2074726164652068617368205b4472696970536560208201527f74746c656d656e7444697370757465427954726164652e736f6c3a3135385d00604082015260600192915050565b6000614bfe602e8361567c565b7f4f72646572207365616c73206e6f742067656e75696e65205b56616c6964617481526d61626c6556322e736f6c3a36305d60901b602082015260400192915050565b6000614c4e603e8361567c565b7f4e6f207472616465206f76657272756e20666f756e64205b447269697053657481527f746c656d656e7444697370757465427954726164652e736f6c3a3234385d0000602082015260400192915050565b6000614cad603f8361567c565b6000805160206157f583398151915281527f74746c656d656e7444697370757465427954726164652e736f6c3a3230375d00602082015260400192915050565b6000614cfa602c8361567c565b7f57616c6c6574206c6f636b65722066726f7a656e205b57616c6c65744c6f636b81526b61626c652e736f6c3a34335d60a01b602082015260400192915050565b80516040830190614d4c84826144d3565b506020820151610542602085018261453e565b80516040830190614d4c848261453e565b80516060830190614d81848261453e565b5060208201516105426020850182614d3b565b80516080830190614da58482614d3b565b5060208201516105426040850182614d3b565b80516080830190614dc98482614d5f565b5060208201516105426040850182614d5f565b8051610120830190614dee8482614550565b506020820151614e01602085018261453e565b506040820151614e146040850182614d94565b506060820151614e2760c085018261453e565b50608082015161054260e0850182614d5f565b80516102a0830190614e4c848261453e565b506020820151614e5f60208501826144d3565b506040820151614e726040850182614ddc565b506060820151614e866101608501826150ff565b506080820151614e9a61026085018261453e565b5060a082015161054261028085018261453e565b80516080830190614ebf848261453e565b5060208201516105426020850182614d70565b80516080830190614ee3848261453e565b506020820151610542602085018280516060830190614f02848261453e565b506020820151614f15602085018261453e565b5060408201516105426040850182615124565b80516000906080840190614f3c8582614d70565b5060208301518482036060860152614f5482826144dc565b95945050505050565b805160a0830190614f6e848261453e565b506020820151614f816020850182614d5f565b5060408201516105426060850182614d5f565b80516000906101c0840190614fa9858261453e565b506020830151614fbc60208601826144d3565b506040830151614fcf604086018261453e565b506060830151614fe26060860182614550565b506080830151614ff56080860182614f5d565b5060a0830151615009610120860182614db8565b5060c08301518482036101a0860152614f548282614f28565b8051600090610260840190615037858261453e565b50602083015161504a602086018261453e565b50604083015161505d6040860182614d94565b50606083015161507060c086018261453e565b50608083015184820360e08601526150888282614f94565b91505060a08301518482036101008601526150a38282614f94565b91505060c08301516150b9610120860182614db8565b5060e08301516150cd6101a0860182614ed2565b506101008301516150e261022086018261453e565b506101208301516150f761024086018261453e565b509392505050565b80516101008301906151118482614ed2565b5060208201516105426080850182614ed2565b6144cd816156b9565b6000612826828461459a565b6020810161182682846144d3565b6020810161182682846144c4565b6040810161516382856144d3565b61282660208301846144d3565b6080810161517e82876144d3565b61518b60208301866144d3565b61519860408301856144d3565b614f54606083018461453e565b60c081016151b382896144d3565b6151c060208301886144d3565b6151cd604083018761453e565b6151da60608301866144d3565b6151e7608083018561453e565b6151f460a083018461453e565b979650505050505050565b6060810161520d82866144d3565b61521a60208301856144d3565b612dcd604083018461453e565b6040810161523582856144d3565b612826602083018461453e565b6080810161525082876144d3565b61518b602083018661453e565b60a0810161526b82886144d3565b615278602083018761453e565b61528560408301866144d3565b615292606083018561453e565b61529f608083018461453e565b9695505050505050565b604081016152b782856144d3565b8181036020830152612dcd8184614562565b606081016152d782856144d3565b6128266020830184614d3b565b61010081016152f3828a6144d3565b6153006020830189614d3b565b61530d60608301886144d3565b61531a608083018761453e565b61532760a083018661453e565b61533460c083018561453e565b81810360e08301526153468184614562565b9998505050505050505050565b6060810161536182866144d3565b61536e602083018561453e565b612dcd6040830184614559565b6080810161538982876144d3565b615396602083018661453e565b81810360408301526153a88185615022565b9050614f5460608301846144d3565b606081016153c582866144d3565b61521a602083018561453e565b602081016118268284614535565b60208101611826828461453e565b602081016118268284614547565b6040810161540a8285614547565b6128266020830184614547565b60408101615235828561453e565b602080825281016128268184614562565b602080825281016111db816145c9565b602080825281016111db81614616565b602080825281016111db81614665565b602080825281016111db816146b7565b602080825281016111db81614700565b602080825281016111db8161474f565b602080825281016111db816147c2565b602080825281016111db81614834565b602080825281016111db81614881565b602080825281016111db8161490a565b602080825281016111db81614957565b602080825281016111db816149c0565b602080825281016111db81614a0d565b602080825281016111db81614a56565b602080825281016111db81614aa3565b602080825281016111db81614b02565b602080825281016111db81614b7e565b602080825281016111db81614bf1565b602080825281016111db81614c41565b602080825281016111db81614ca0565b602080825281016111db81614ced565b6102a081016118268284614e3a565b602080825281016128268184615022565b604080825281016155b78185615022565b905061282660208301846144d3565b61030081016155d5828761453e565b6155e26020830186614e3a565b8181036102c08301526155f58185615022565b9050614f546102e08301846144d3565b6040518181016001600160401b038111828210171561562357600080fd5b604052919050565b60006001600160401b0382111561564157600080fd5b5060209081020190565b60006001600160401b0382111561566157600080fd5b506020601f91909101601f19160190565b60200190565b5190565b90815260200190565b60006111db826156ad565b151590565b90565b60006111db82615685565b806111de81615722565b6001600160a01b031690565b60ff1690565b60006111db82615698565b60006111db826156a3565b60006111db82615695565b82818337506000910152565b60005b838110156157075781810151838201526020016156ef565b838111156105425750506000910152565b601f01601f191690565b6002811061572c57fe5b50565b61573881615685565b811461572c57600080fd5b61573881615690565b61573881615695565b61573881615698565b6002811061572c57600080fd5b615738816156b956fe4469737175616c696669636174696f6e2063616e64696461746520686173682050726f706f73616c20666f756e642065787069726564205b44726969705365745472616465206465656d6564206672617564756c656e74205b447269697053654e6f2070726f706f73616c20666f756e64205b4472696970536574746c656d654f72646572206465656d6564206672617564756c656e74205b447269697053655472616465206e6f6e6365206e6f74207374726963746c792067726561746572756e6368616c6c656e67655f6f726465725f63616e6469646174655f62795f7472616465a365627a7a7231582092a0e9d614b3334da4aef57f7a0587e50f4c14be014ea26e391f8b8b3d3db9e96c6578706572696d656e74616cf564736f6c634300050c0040",
  "source": "/*\n * Hubii Nahmii\n *\n * Compliant with the Hubii Nahmii specification v0.12.\n *\n * Copyright (C) 2017-2018 Hubii AS\n */\n\npragma solidity >=0.4.25 <0.6.0;\npragma experimental ABIEncoderV2;\n\nimport {Ownable} from \"./Ownable.sol\";\nimport {Configurable} from \"./Configurable.sol\";\nimport {ValidatableV2} from \"./ValidatableV2.sol\";\nimport {SecurityBondable} from \"./SecurityBondable.sol\";\nimport {WalletLockable} from \"./WalletLockable.sol\";\nimport {BalanceTrackable} from \"./BalanceTrackable.sol\";\nimport {FraudChallengable} from \"./FraudChallengable.sol\";\nimport {CancelOrdersChallengable} from \"./CancelOrdersChallengable.sol\";\nimport {Servable} from \"./Servable.sol\";\nimport {SafeMathIntLib} from \"./SafeMathIntLib.sol\";\nimport {SafeMathUintLib} from \"./SafeMathUintLib.sol\";\nimport {Strings} from \"solidity-util/lib/Strings.sol\";\nimport {MonetaryTypesLib} from \"./MonetaryTypesLib.sol\";\nimport {NahmiiTypesLib} from \"./NahmiiTypesLib.sol\";\nimport {TradeTypesLib} from \"./TradeTypesLib.sol\";\nimport {SettlementChallengeTypesLib} from \"./SettlementChallengeTypesLib.sol\";\nimport {DriipSettlementChallengeState} from \"./DriipSettlementChallengeState.sol\";\nimport {NullSettlementChallengeState} from \"./NullSettlementChallengeState.sol\";\nimport {BalanceTracker} from \"./BalanceTracker.sol\";\nimport {BalanceTrackerLib} from \"./BalanceTrackerLib.sol\";\n\n/**\n * @title DriipSettlementDisputeByTrade\n * @notice The where trade related disputes of driip settlement challenge happens\n */\ncontract DriipSettlementDisputeByTrade is Ownable, Configurable, ValidatableV2, SecurityBondable, WalletLockable,\nBalanceTrackable, FraudChallengable, CancelOrdersChallengable, Servable {\n    using SafeMathIntLib for int256;\n    using SafeMathUintLib for uint256;\n    using Strings for string;\n    using BalanceTrackerLib for BalanceTracker;\n\n    //\n    // Constants\n    // -----------------------------------------------------------------------------------------------------------------\n    string constant public UNCHALLENGE_ORDER_CANDIDATE_BY_TRADE_ACTION = \"unchallenge_order_candidate_by_trade\";\n    string constant public CHALLENGE_BY_TRADE_ACTION = \"challenge_by_trade\";\n\n    //\n    // Variables\n    // -----------------------------------------------------------------------------------------------------------------\n    DriipSettlementChallengeState public driipSettlementChallengeState;\n    NullSettlementChallengeState public nullSettlementChallengeState;\n\n    //\n    // Events\n    // -----------------------------------------------------------------------------------------------------------------\n    event SetDriipSettlementChallengeStateEvent(DriipSettlementChallengeState oldDriipSettlementChallengeState,\n        DriipSettlementChallengeState newDriipSettlementChallengeState);\n    event SetNullSettlementChallengeStateEvent(NullSettlementChallengeState oldNullSettlementChallengeState,\n        NullSettlementChallengeState newNullSettlementChallengeState);\n    event UnchallengeOrderCandidateByTradeEvent(uint256 nonce, TradeTypesLib.Order order,\n        TradeTypesLib.Trade trade, address unchallenger);\n    event ChallengeByTradeEvent(address wallet, uint256 nonce, TradeTypesLib.Trade trade,\n        address challenger);\n\n    //\n    // Constructor\n    // -----------------------------------------------------------------------------------------------------------------\n    constructor(address deployer) Ownable(deployer) public {\n    }\n\n    /// @notice Set the driip settlement state contract\n    /// @param newDriipSettlementChallengeState The (address of) DriipSettlementChallengeState contract instance\n    function setDriipSettlementChallengeState(DriipSettlementChallengeState newDriipSettlementChallengeState) public\n    onlyDeployer\n    notNullAddress(address(newDriipSettlementChallengeState))\n    {\n        DriipSettlementChallengeState oldDriipSettlementChallengeState = driipSettlementChallengeState;\n        driipSettlementChallengeState = newDriipSettlementChallengeState;\n        emit SetDriipSettlementChallengeStateEvent(oldDriipSettlementChallengeState, driipSettlementChallengeState);\n    }\n\n    /// @notice Set the null settlement state contract\n    /// @param newNullSettlementChallengeState The (address of) NullSettlementChallengeState contract instance\n    function setNullSettlementChallengeState(NullSettlementChallengeState newNullSettlementChallengeState) public\n    onlyDeployer\n    notNullAddress(address(newNullSettlementChallengeState))\n    {\n        NullSettlementChallengeState oldNullSettlementChallengeState = nullSettlementChallengeState;\n        nullSettlementChallengeState = newNullSettlementChallengeState;\n        emit SetNullSettlementChallengeStateEvent(oldNullSettlementChallengeState, nullSettlementChallengeState);\n    }\n\n    /// @notice Unchallenge driip settlement by providing trade that shows that challenge order candidate has been filled\n    /// @param order The order candidate that challenged driip\n    /// @param trade The trade in which order has been filled\n    /// @param unchallenger The address of the unchallenger\n    function unchallengeOrderCandidateByTrade(TradeTypesLib.Order memory order, TradeTypesLib.Trade memory trade, address unchallenger)\n    public\n    onlyEnabledServiceAction(UNCHALLENGE_ORDER_CANDIDATE_BY_TRADE_ACTION)\n    onlySealedOrder(order)\n    onlySealedTrade(trade)\n    onlyTradeParty(trade, order.wallet)\n    {\n        // Get the relevant currency\n        MonetaryTypesLib.Currency memory currency = _orderCurrency(order);\n\n        // Require that proposal has been initiated\n        require(\n            driipSettlementChallengeState.hasProposal(order.wallet, currency),\n            \"No proposal found [DriipSettlementDisputeByTrade.sol:111]\"\n        );\n\n        // Require that proposal has not expired\n        require(\n            !driipSettlementChallengeState.hasProposalExpired(order.wallet, currency),\n            \"Proposal found expired [DriipSettlementDisputeByTrade.sol:117]\"\n        );\n\n        // Require that proposal has been disqualified\n        require(\n            SettlementChallengeTypesLib.Status.Disqualified == driipSettlementChallengeState.proposalStatus(order.wallet, currency),\n            \"Proposal not disqualified [DriipSettlementDisputeByTrade.sol:123]\"\n        );\n\n        // Require that candidate kind is order\n        require(\n            TradeTypesLib.ORDER_KIND().compareTo(driipSettlementChallengeState.proposalDisqualificationCandidateKind(\n                order.wallet, currency\n            )),\n            \"Disqualification candidate kind is not order [DriipSettlementDisputeByTrade.sol:129]\"\n        );\n\n        // Require that trade and order are not labelled fraudulent\n        require(\n            !fraudChallenge.isFraudulentTradeHash(trade.seal.hash),\n            \"Trade deemed fraudulent [DriipSettlementDisputeByTrade.sol:137]\"\n        );\n        require(\n            !fraudChallenge.isFraudulentOrderHash(order.seals.operator.hash),\n            \"Order deemed fraudulent [DriipSettlementDisputeByTrade.sol:141]\"\n        );\n\n        bytes32 candidateHash = driipSettlementChallengeState.proposalDisqualificationCandidateHash(\n            order.wallet, currency\n        );\n\n        // Require that the order's and trade' order hashes equal the candidate (order's) hash,\n        // and implicitly that order's and trade order's hashes equal\n        // Order wallet is buyer -> require candidate hash to match buyer's order hash\n        // Order wallet is seller -> require candidate hash to match seller's order hash\n        require(\n            candidateHash == order.seals.operator.hash,\n            \"Disqualification candidate hash differs from order hash [DriipSettlementDisputeByTrade.sol:154]\"\n        );\n        require(\n            candidateHash == _tradeOrderHash(order.wallet, trade),\n            \"Disqualification candidate hash differs from trade hash [DriipSettlementDisputeByTrade.sol:158]\"\n        );\n\n        // Store old challenger\n        address challenger = driipSettlementChallengeState.proposalDisqualificationChallenger(\n            order.wallet, currency\n        );\n\n        // Unlock wallet's balances or deprive challenger\n        if (driipSettlementChallengeState.proposalWalletInitiated(order.wallet, currency))\n            walletLocker.unlockFungibleByProxy(order.wallet, challenger, currency.ct, currency.id);\n        else\n            securityBond.depriveAbsolute(challenger, currency.ct, currency.id);\n\n        // Requalify proposal\n        driipSettlementChallengeState.qualifyProposal(\n            order.wallet, currency\n        );\n\n        // Reward unchallenger\n        securityBond.rewardFractional(unchallenger, configuration.walletSettlementStakeFraction(), 0);\n\n        // Emit event\n        emit UnchallengeOrderCandidateByTradeEvent(\n            driipSettlementChallengeState.proposalNonce(order.wallet, currency), order, trade, unchallenger\n        );\n    }\n\n    /// @notice Challenge the driip settlement by providing trade candidate\n    /// @param wallet The wallet whose driip settlement is being challenged\n    /// @param trade The trade candidate that challenges the challenged driip\n    /// @param challenger The address of the challenger\n    /// @dev If wallet is buyer in (candidate) trade consider single _conjugate_ transfer in (candidate) trade. Else\n    /// if wallet is seller in (candidate) trade consider single _intended_ transfer in (candidate) trade\n    function challengeByTrade(address wallet, TradeTypesLib.Trade memory trade, address challenger)\n    public\n    onlyEnabledServiceAction(CHALLENGE_BY_TRADE_ACTION)\n    onlySealedTrade(trade)\n    onlyTradeParty(trade, wallet)\n    {\n        // Require that trade candidate is not labelled fraudulent\n        require(\n            !fraudChallenge.isFraudulentTradeHash(trade.seal.hash),\n            \"Trade deemed fraudulent [DriipSettlementDisputeByTrade.sol:201]\"\n        );\n\n        // Require that wallet's order in trade is not labelled fraudulent\n        require(\n            !fraudChallenge.isFraudulentOrderHash(_tradeOrderHash(wallet, trade)),\n            \"Order deemed fraudulent [DriipSettlementDisputeByTrade.sol:207]\"\n        );\n\n        // Require that wallet's order in trade is not labelled cancelled\n        require(\n            !cancelOrdersChallenge.isOrderCancelled(wallet, _tradeOrderHash(wallet, trade)),\n            \"Order deemed cancelled [DriipSettlementDisputeByTrade.sol:213]\"\n        );\n\n        // Get the relevant currency\n        MonetaryTypesLib.Currency memory currency = _tradeCurrency(wallet, trade);\n\n        // Require that proposal has been initiated\n        require(\n            driipSettlementChallengeState.hasProposal(wallet, currency),\n            \"No proposal found [DriipSettlementDisputeByTrade.sol:222]\"\n        );\n\n        // Require that proposal has not expired\n        require(\n            !driipSettlementChallengeState.hasProposalExpired(wallet, currency),\n            \"Proposal found expired [DriipSettlementDisputeByTrade.sol:228]\"\n        );\n\n        // Get the relevant nonce\n        uint256 nonce = _tradeNonce(wallet, trade);\n\n        // Require that trade party's nonce is strictly greater than proposal's nonce and its current\n        // disqualification nonce\n        require(\n            nonce > driipSettlementChallengeState.proposalNonce(wallet, currency),\n            \"Trade nonce not strictly greater than proposal nonce [DriipSettlementDisputeByTrade.sol:238]\"\n        );\n        require(\n            nonce > driipSettlementChallengeState.proposalDisqualificationNonce(wallet, currency),\n            \"Trade nonce not strictly greater than proposal disqualification nonce [DriipSettlementDisputeByTrade.sol:242]\"\n        );\n\n        // Require overrun for this trade to be a valid challenge candidate\n        require(_tradeOverrun(wallet, trade, currency), \"No trade overrun found [DriipSettlementDisputeByTrade.sol:248]\");\n\n        // Reward challenger\n        _settleRewards(wallet, _tradeCurrentBalanceAmount(wallet, trade), currency, challenger, 0);\n\n        // Disqualify proposal, effectively overriding any previous disqualification\n        driipSettlementChallengeState.disqualifyProposal(\n            wallet, currency, challenger, trade.blockNumber,\n            nonce, trade.seal.hash, TradeTypesLib.TRADE_KIND()\n        );\n\n        // Terminate dependent null settlement challenge proposal if existent\n        nullSettlementChallengeState.terminateProposal(wallet, currency);\n\n        // Emit event\n        emit ChallengeByTradeEvent(\n            wallet, driipSettlementChallengeState.proposalNonce(wallet, currency), trade, challenger\n        );\n    }\n\n    //\n    // Private functions\n    // -----------------------------------------------------------------------------------------------------------------\n    // Get the candidate order currency\n    // Buy order -> Conjugate currency\n    // Sell order -> Intended currency\n    function _orderCurrency(TradeTypesLib.Order memory order)\n    private\n    pure\n    returns (MonetaryTypesLib.Currency memory)\n    {\n        return TradeTypesLib.Intention.Sell == order.placement.intention ?\n        order.placement.currencies.intended :\n        order.placement.currencies.conjugate;\n    }\n\n    function _tradeOverrun(address wallet, TradeTypesLib.Trade memory trade, MonetaryTypesLib.Currency memory currency)\n    private\n    view\n    returns (bool)\n    {\n        // Get the target balance amount from the proposal\n        int targetBalanceAmount = driipSettlementChallengeState.proposalTargetBalanceAmount(\n            wallet, currency\n        );\n\n        // Get the change in active balance since the start of the challenge\n        int256 deltaBalanceSinceStart = balanceTracker.fungibleActiveBalanceAmount(\n            wallet, currency\n        ).sub(\n            balanceTracker.fungibleActiveBalanceAmountByBlockNumber(\n                wallet, currency,\n                driipSettlementChallengeState.proposalReferenceBlockNumber(wallet, currency)\n            )\n        );\n\n        // Get the cumulative transfer of the trade\n        int256 tradeCumulativeTransfer = _tradeCurrentBalanceAmount(wallet, trade).sub(\n            balanceTracker.fungibleActiveBalanceAmountByBlockNumber(wallet, currency, trade.blockNumber)\n        );\n\n        // Get the cumulative transfer of the proposal\n        int proposalCumulativeTransfer = driipSettlementChallengeState.proposalCumulativeTransferAmount(\n            wallet, currency\n        ).mul(- 1);\n\n        return targetBalanceAmount.add(deltaBalanceSinceStart) < proposalCumulativeTransfer.sub(tradeCumulativeTransfer);\n    }\n\n    function _tradeOrderHash(address wallet, TradeTypesLib.Trade memory trade)\n    private\n    view\n    returns (bytes32)\n    {\n        return validator.isTradeBuyer(trade, wallet) ?\n        trade.buyer.order.hashes.operator :\n        trade.seller.order.hashes.operator;\n    }\n\n    // Get the candidate trade currency\n    // Wallet is buyer in (candidate) trade -> Conjugate currency\n    // Wallet is seller in (candidate) trade -> Intended currency\n    function _tradeCurrency(address wallet, TradeTypesLib.Trade memory trade)\n    private\n    view\n    returns (MonetaryTypesLib.Currency memory)\n    {\n        return validator.isTradeBuyer(trade, wallet) ?\n        trade.currencies.conjugate :\n        trade.currencies.intended;\n    }\n\n    // Get the candidate trade nonce\n    // Wallet is buyer in (candidate) trade -> Buyer's nonce\n    // Wallet is seller in (candidate) trade -> Seller's nonce\n    function _tradeNonce(address wallet, TradeTypesLib.Trade memory trade)\n    private\n    view\n    returns (uint256)\n    {\n        return validator.isTradeBuyer(trade, wallet) ?\n        trade.buyer.nonce :\n        trade.seller.nonce;\n    }\n\n    // Get the candidate trade current balance amount\n    // Wallet is buyer in (candidate) trade -> Buyer's conjugate balance\n    // Wallet is seller in (candidate) trade -> Seller's intended balance\n    function _tradeCurrentBalanceAmount(address wallet, TradeTypesLib.Trade memory trade)\n    private\n    view\n    returns (int256)\n    {\n        return validator.isTradeBuyer(trade, wallet) ?\n        trade.buyer.balances.conjugate.current :\n        trade.seller.balances.intended.current;\n    }\n\n    // Lock wallet's balances or reward challenger by stake fraction\n    function _settleRewards(address wallet, int256 walletAmount, MonetaryTypesLib.Currency memory currency,\n        address challenger, uint256 unlockTimeoutInSeconds)\n    private\n    {\n        if (driipSettlementChallengeState.proposalWalletInitiated(wallet, currency))\n            _settleBalanceReward(wallet, walletAmount, currency, challenger);\n\n        else\n            _settleSecurityBondReward(wallet, walletAmount, currency, challenger, unlockTimeoutInSeconds);\n    }\n\n    function _settleBalanceReward(address wallet, int256 walletAmount, MonetaryTypesLib.Currency memory currency,\n        address challenger)\n    private\n    {\n        // Unlock wallet/currency for existing challenger if previously locked\n        if (SettlementChallengeTypesLib.Status.Disqualified == driipSettlementChallengeState.proposalStatus(\n            wallet, currency\n        ))\n            walletLocker.unlockFungibleByProxy(\n                wallet,\n                driipSettlementChallengeState.proposalDisqualificationChallenger(\n                    wallet, currency\n                ),\n                currency.ct, currency.id\n            );\n\n        // Lock wallet for new challenger\n        walletLocker.lockFungibleByProxy(\n            wallet, challenger, walletAmount, currency.ct, currency.id, configuration.settlementChallengeTimeout()\n        );\n    }\n\n    // Settle the two-component reward from security bond.\n    // The first component is flat figure as obtained from Configuration\n    // The second component is progressive and calculated as\n    //    min(walletAmount, fraction of SecurityBond's deposited balance)\n    // both amounts for the given currency\n    function _settleSecurityBondReward(address wallet, int256 walletAmount, MonetaryTypesLib.Currency memory currency,\n        address challenger, uint256 unlockTimeoutInSeconds)\n    private\n    {\n        // Deprive existing challenger of reward if previously locked\n        if (SettlementChallengeTypesLib.Status.Disqualified == driipSettlementChallengeState.proposalStatus(\n            wallet, currency\n        ))\n            securityBond.depriveAbsolute(\n                driipSettlementChallengeState.proposalDisqualificationChallenger(\n                    wallet, currency\n                ),\n                currency.ct, currency.id\n            );\n\n        // Reward the flat component\n        MonetaryTypesLib.Figure memory flatReward = _flatReward();\n        securityBond.rewardAbsolute(\n            challenger, flatReward.amount, flatReward.currency.ct, flatReward.currency.id, unlockTimeoutInSeconds\n        );\n\n        // Reward the progressive component\n        int256 progressiveRewardAmount = walletAmount.clampMax(\n            securityBond.depositedFractionalBalance(\n                currency.ct, currency.id, configuration.operatorSettlementStakeFraction()\n            )\n        );\n        securityBond.rewardAbsolute(\n            challenger, progressiveRewardAmount, currency.ct, currency.id, unlockTimeoutInSeconds\n        );\n    }\n\n    function _flatReward()\n    private\n    view\n    returns (MonetaryTypesLib.Figure memory)\n    {\n        (int256 amount, address currencyCt, uint256 currencyId) = configuration.operatorSettlementStake();\n        return MonetaryTypesLib.Figure(amount, MonetaryTypesLib.Currency(currencyCt, currencyId));\n    }\n}",
  "sourcePath": "/opt/buildagent/work/855e104608380c36/contracts/DriipSettlementDisputeByTrade.sol",
  "compiler": {
    "name": "solc",
    "version": "0.5.12+commit.7709ece9.Emscripten.clang"
  },
  "schemaVersion": "2.0.3",
  "updatedAt": "2019-10-23T00:21:40.781Z"
}