{
  "contractName": "DriipSettlementDispute",
  "abi": [
    {
      "constant": false,
      "inputs": [
        {
          "name": "newFraudChallenge",
          "type": "address"
        }
      ],
      "name": "setFraudChallenge",
      "outputs": [],
      "payable": false,
      "stateMutability": "nonpayable",
      "type": "function"
    },
    {
      "constant": true,
      "inputs": [],
      "name": "cancelOrdersChallenge",
      "outputs": [
        {
          "name": "",
          "type": "address"
        }
      ],
      "payable": false,
      "stateMutability": "view",
      "type": "function"
    },
    {
      "constant": false,
      "inputs": [
        {
          "name": "newValidator",
          "type": "address"
        }
      ],
      "name": "setValidator",
      "outputs": [],
      "payable": false,
      "stateMutability": "nonpayable",
      "type": "function"
    },
    {
      "constant": true,
      "inputs": [],
      "name": "walletLockerFrozen",
      "outputs": [
        {
          "name": "",
          "type": "bool"
        }
      ],
      "payable": false,
      "stateMutability": "view",
      "type": "function"
    },
    {
      "constant": false,
      "inputs": [],
      "name": "triggerSelfDestruction",
      "outputs": [],
      "payable": false,
      "stateMutability": "nonpayable",
      "type": "function"
    },
    {
      "constant": true,
      "inputs": [],
      "name": "selfDestructionDisabled",
      "outputs": [
        {
          "name": "",
          "type": "bool"
        }
      ],
      "payable": false,
      "stateMutability": "view",
      "type": "function"
    },
    {
      "constant": true,
      "inputs": [],
      "name": "validator",
      "outputs": [
        {
          "name": "",
          "type": "address"
        }
      ],
      "payable": false,
      "stateMutability": "view",
      "type": "function"
    },
    {
      "constant": true,
      "inputs": [],
      "name": "fraudChallenge",
      "outputs": [
        {
          "name": "",
          "type": "address"
        }
      ],
      "payable": false,
      "stateMutability": "view",
      "type": "function"
    },
    {
      "constant": false,
      "inputs": [
        {
          "name": "newCancelOrdersChallenge",
          "type": "address"
        }
      ],
      "name": "setCancelOrdersChallenge",
      "outputs": [],
      "payable": false,
      "stateMutability": "nonpayable",
      "type": "function"
    },
    {
      "constant": true,
      "inputs": [],
      "name": "destructor",
      "outputs": [
        {
          "name": "",
          "type": "address"
        }
      ],
      "payable": false,
      "stateMutability": "view",
      "type": "function"
    },
    {
      "constant": true,
      "inputs": [],
      "name": "operator",
      "outputs": [
        {
          "name": "",
          "type": "address"
        }
      ],
      "payable": false,
      "stateMutability": "view",
      "type": "function"
    },
    {
      "constant": false,
      "inputs": [],
      "name": "freezeWalletLocker",
      "outputs": [],
      "payable": false,
      "stateMutability": "nonpayable",
      "type": "function"
    },
    {
      "constant": false,
      "inputs": [
        {
          "name": "newConfiguration",
          "type": "address"
        }
      ],
      "name": "setConfiguration",
      "outputs": [],
      "payable": false,
      "stateMutability": "nonpayable",
      "type": "function"
    },
    {
      "constant": false,
      "inputs": [
        {
          "name": "newSecurityBond",
          "type": "address"
        }
      ],
      "name": "setSecurityBond",
      "outputs": [],
      "payable": false,
      "stateMutability": "nonpayable",
      "type": "function"
    },
    {
      "constant": true,
      "inputs": [],
      "name": "securityBond",
      "outputs": [
        {
          "name": "",
          "type": "address"
        }
      ],
      "payable": false,
      "stateMutability": "view",
      "type": "function"
    },
    {
      "constant": true,
      "inputs": [],
      "name": "configuration",
      "outputs": [
        {
          "name": "",
          "type": "address"
        }
      ],
      "payable": false,
      "stateMutability": "view",
      "type": "function"
    },
    {
      "constant": false,
      "inputs": [],
      "name": "disableSelfDestruction",
      "outputs": [],
      "payable": false,
      "stateMutability": "nonpayable",
      "type": "function"
    },
    {
      "constant": false,
      "inputs": [
        {
          "name": "newWalletLocker",
          "type": "address"
        }
      ],
      "name": "setWalletLocker",
      "outputs": [],
      "payable": false,
      "stateMutability": "nonpayable",
      "type": "function"
    },
    {
      "constant": false,
      "inputs": [
        {
          "name": "newDeployer",
          "type": "address"
        }
      ],
      "name": "setDeployer",
      "outputs": [],
      "payable": false,
      "stateMutability": "nonpayable",
      "type": "function"
    },
    {
      "constant": false,
      "inputs": [
        {
          "name": "newOperator",
          "type": "address"
        }
      ],
      "name": "setOperator",
      "outputs": [],
      "payable": false,
      "stateMutability": "nonpayable",
      "type": "function"
    },
    {
      "constant": true,
      "inputs": [],
      "name": "deployer",
      "outputs": [
        {
          "name": "",
          "type": "address"
        }
      ],
      "payable": false,
      "stateMutability": "view",
      "type": "function"
    },
    {
      "constant": true,
      "inputs": [],
      "name": "walletLocker",
      "outputs": [
        {
          "name": "",
          "type": "address"
        }
      ],
      "payable": false,
      "stateMutability": "view",
      "type": "function"
    },
    {
      "constant": true,
      "inputs": [],
      "name": "driipSettlementChallenge",
      "outputs": [
        {
          "name": "",
          "type": "address"
        }
      ],
      "payable": false,
      "stateMutability": "view",
      "type": "function"
    },
    {
      "inputs": [
        {
          "name": "deployer",
          "type": "address"
        }
      ],
      "payable": false,
      "stateMutability": "nonpayable",
      "type": "constructor"
    },
    {
      "anonymous": false,
      "inputs": [
        {
          "indexed": false,
          "name": "oldDriipSettlementChallenge",
          "type": "address"
        },
        {
          "indexed": false,
          "name": "newDriipSettlementChallenge",
          "type": "address"
        }
      ],
      "name": "SetDriipSettlementChallengeEvent",
      "type": "event"
    },
    {
      "anonymous": false,
      "inputs": [
        {
          "indexed": false,
          "name": "wallet",
          "type": "address"
        },
        {
          "indexed": false,
          "name": "nonce",
          "type": "uint256"
        },
        {
          "indexed": false,
          "name": "driipHash",
          "type": "bytes32"
        },
        {
          "indexed": false,
          "name": "driipType",
          "type": "uint8"
        },
        {
          "indexed": false,
          "name": "candidateHash",
          "type": "bytes32"
        },
        {
          "indexed": false,
          "name": "challenger",
          "type": "address"
        }
      ],
      "name": "ChallengeByOrderEvent",
      "type": "event"
    },
    {
      "anonymous": false,
      "inputs": [
        {
          "indexed": false,
          "name": "wallet",
          "type": "address"
        },
        {
          "indexed": false,
          "name": "nonce",
          "type": "uint256"
        },
        {
          "indexed": false,
          "name": "driipHash",
          "type": "bytes32"
        },
        {
          "indexed": false,
          "name": "driipType",
          "type": "uint8"
        },
        {
          "indexed": false,
          "name": "challengeCandidateHash",
          "type": "bytes32"
        },
        {
          "indexed": false,
          "name": "challenger",
          "type": "address"
        },
        {
          "indexed": false,
          "name": "unchallengeCandidateHash",
          "type": "bytes32"
        },
        {
          "indexed": false,
          "name": "unchallenger",
          "type": "address"
        }
      ],
      "name": "UnchallengeOrderCandidateByTradeEvent",
      "type": "event"
    },
    {
      "anonymous": false,
      "inputs": [
        {
          "indexed": false,
          "name": "wallet",
          "type": "address"
        },
        {
          "indexed": false,
          "name": "nonce",
          "type": "uint256"
        },
        {
          "indexed": false,
          "name": "driipHash",
          "type": "bytes32"
        },
        {
          "indexed": false,
          "name": "driipType",
          "type": "uint8"
        },
        {
          "indexed": false,
          "name": "candidateHash",
          "type": "bytes32"
        },
        {
          "indexed": false,
          "name": "challenger",
          "type": "address"
        }
      ],
      "name": "ChallengeByTradeEvent",
      "type": "event"
    },
    {
      "anonymous": false,
      "inputs": [
        {
          "indexed": false,
          "name": "wallet",
          "type": "address"
        },
        {
          "indexed": false,
          "name": "nonce",
          "type": "uint256"
        },
        {
          "indexed": false,
          "name": "driipHash",
          "type": "bytes32"
        },
        {
          "indexed": false,
          "name": "driipType",
          "type": "uint8"
        },
        {
          "indexed": false,
          "name": "candidateHash",
          "type": "bytes32"
        },
        {
          "indexed": false,
          "name": "challenger",
          "type": "address"
        }
      ],
      "name": "ChallengeByPaymentEvent",
      "type": "event"
    },
    {
      "anonymous": false,
      "inputs": [
        {
          "indexed": false,
          "name": "oldCancelOrdersChallenge",
          "type": "address"
        },
        {
          "indexed": false,
          "name": "newCancelOrdersChallenge",
          "type": "address"
        }
      ],
      "name": "SetCancelOrdersChallengeEvent",
      "type": "event"
    },
    {
      "anonymous": false,
      "inputs": [
        {
          "indexed": false,
          "name": "oldFraudChallenge",
          "type": "address"
        },
        {
          "indexed": false,
          "name": "newFraudChallenge",
          "type": "address"
        }
      ],
      "name": "SetFraudChallengeEvent",
      "type": "event"
    },
    {
      "anonymous": false,
      "inputs": [
        {
          "indexed": false,
          "name": "oldWalletLocker",
          "type": "address"
        },
        {
          "indexed": false,
          "name": "newWalletLocker",
          "type": "address"
        }
      ],
      "name": "SetWalletLockerEvent",
      "type": "event"
    },
    {
      "anonymous": false,
      "inputs": [],
      "name": "FreezeWalletLockerEvent",
      "type": "event"
    },
    {
      "anonymous": false,
      "inputs": [
        {
          "indexed": false,
          "name": "oldSecurityBond",
          "type": "address"
        },
        {
          "indexed": false,
          "name": "newSecurityBond",
          "type": "address"
        }
      ],
      "name": "SetSecurityBondEvent",
      "type": "event"
    },
    {
      "anonymous": false,
      "inputs": [
        {
          "indexed": false,
          "name": "oldValidator",
          "type": "address"
        },
        {
          "indexed": false,
          "name": "newValidator",
          "type": "address"
        }
      ],
      "name": "SetValidatorEvent",
      "type": "event"
    },
    {
      "anonymous": false,
      "inputs": [
        {
          "indexed": false,
          "name": "oldConfiguration",
          "type": "address"
        },
        {
          "indexed": false,
          "name": "newConfiguration",
          "type": "address"
        }
      ],
      "name": "SetConfigurationEvent",
      "type": "event"
    },
    {
      "anonymous": false,
      "inputs": [
        {
          "indexed": false,
          "name": "oldDeployer",
          "type": "address"
        },
        {
          "indexed": false,
          "name": "newDeployer",
          "type": "address"
        }
      ],
      "name": "SetDeployerEvent",
      "type": "event"
    },
    {
      "anonymous": false,
      "inputs": [
        {
          "indexed": false,
          "name": "oldOperator",
          "type": "address"
        },
        {
          "indexed": false,
          "name": "newOperator",
          "type": "address"
        }
      ],
      "name": "SetOperatorEvent",
      "type": "event"
    },
    {
      "anonymous": false,
      "inputs": [
        {
          "indexed": false,
          "name": "wallet",
          "type": "address"
        }
      ],
      "name": "SelfDestructionDisabledEvent",
      "type": "event"
    },
    {
      "anonymous": false,
      "inputs": [
        {
          "indexed": false,
          "name": "wallet",
          "type": "address"
        }
      ],
      "name": "TriggerSelfDestructionEvent",
      "type": "event"
    },
    {
      "constant": false,
      "inputs": [
        {
          "name": "newDriipSettlementChallenge",
          "type": "address"
        }
      ],
      "name": "setDriipSettlementChallenge",
      "outputs": [],
      "payable": false,
      "stateMutability": "nonpayable",
      "type": "function"
    },
    {
      "constant": false,
      "inputs": [
        {
          "components": [
            {
              "name": "nonce",
              "type": "uint256"
            },
            {
              "name": "wallet",
              "type": "address"
            },
            {
              "components": [
                {
                  "name": "intention",
                  "type": "uint8"
                },
                {
                  "name": "amount",
                  "type": "int256"
                },
                {
                  "components": [
                    {
                      "components": [
                        {
                          "name": "ct",
                          "type": "address"
                        },
                        {
                          "name": "id",
                          "type": "uint256"
                        }
                      ],
                      "name": "intended",
                      "type": "tuple"
                    },
                    {
                      "components": [
                        {
                          "name": "ct",
                          "type": "address"
                        },
                        {
                          "name": "id",
                          "type": "uint256"
                        }
                      ],
                      "name": "conjugate",
                      "type": "tuple"
                    }
                  ],
                  "name": "currencies",
                  "type": "tuple"
                },
                {
                  "name": "rate",
                  "type": "int256"
                },
                {
                  "components": [
                    {
                      "name": "current",
                      "type": "int256"
                    },
                    {
                      "name": "previous",
                      "type": "int256"
                    }
                  ],
                  "name": "residuals",
                  "type": "tuple"
                }
              ],
              "name": "placement",
              "type": "tuple"
            },
            {
              "components": [
                {
                  "components": [
                    {
                      "name": "hash",
                      "type": "bytes32"
                    },
                    {
                      "components": [
                        {
                          "name": "r",
                          "type": "bytes32"
                        },
                        {
                          "name": "s",
                          "type": "bytes32"
                        },
                        {
                          "name": "v",
                          "type": "uint8"
                        }
                      ],
                      "name": "signature",
                      "type": "tuple"
                    }
                  ],
                  "name": "wallet",
                  "type": "tuple"
                },
                {
                  "components": [
                    {
                      "name": "hash",
                      "type": "bytes32"
                    },
                    {
                      "components": [
                        {
                          "name": "r",
                          "type": "bytes32"
                        },
                        {
                          "name": "s",
                          "type": "bytes32"
                        },
                        {
                          "name": "v",
                          "type": "uint8"
                        }
                      ],
                      "name": "signature",
                      "type": "tuple"
                    }
                  ],
                  "name": "operator",
                  "type": "tuple"
                }
              ],
              "name": "seals",
              "type": "tuple"
            },
            {
              "name": "blockNumber",
              "type": "uint256"
            },
            {
              "name": "operatorId",
              "type": "uint256"
            }
          ],
          "name": "order",
          "type": "tuple"
        },
        {
          "name": "challenger",
          "type": "address"
        }
      ],
      "name": "challengeByOrder",
      "outputs": [],
      "payable": false,
      "stateMutability": "nonpayable",
      "type": "function"
    },
    {
      "constant": false,
      "inputs": [
        {
          "components": [
            {
              "name": "nonce",
              "type": "uint256"
            },
            {
              "name": "wallet",
              "type": "address"
            },
            {
              "components": [
                {
                  "name": "intention",
                  "type": "uint8"
                },
                {
                  "name": "amount",
                  "type": "int256"
                },
                {
                  "components": [
                    {
                      "components": [
                        {
                          "name": "ct",
                          "type": "address"
                        },
                        {
                          "name": "id",
                          "type": "uint256"
                        }
                      ],
                      "name": "intended",
                      "type": "tuple"
                    },
                    {
                      "components": [
                        {
                          "name": "ct",
                          "type": "address"
                        },
                        {
                          "name": "id",
                          "type": "uint256"
                        }
                      ],
                      "name": "conjugate",
                      "type": "tuple"
                    }
                  ],
                  "name": "currencies",
                  "type": "tuple"
                },
                {
                  "name": "rate",
                  "type": "int256"
                },
                {
                  "components": [
                    {
                      "name": "current",
                      "type": "int256"
                    },
                    {
                      "name": "previous",
                      "type": "int256"
                    }
                  ],
                  "name": "residuals",
                  "type": "tuple"
                }
              ],
              "name": "placement",
              "type": "tuple"
            },
            {
              "components": [
                {
                  "components": [
                    {
                      "name": "hash",
                      "type": "bytes32"
                    },
                    {
                      "components": [
                        {
                          "name": "r",
                          "type": "bytes32"
                        },
                        {
                          "name": "s",
                          "type": "bytes32"
                        },
                        {
                          "name": "v",
                          "type": "uint8"
                        }
                      ],
                      "name": "signature",
                      "type": "tuple"
                    }
                  ],
                  "name": "wallet",
                  "type": "tuple"
                },
                {
                  "components": [
                    {
                      "name": "hash",
                      "type": "bytes32"
                    },
                    {
                      "components": [
                        {
                          "name": "r",
                          "type": "bytes32"
                        },
                        {
                          "name": "s",
                          "type": "bytes32"
                        },
                        {
                          "name": "v",
                          "type": "uint8"
                        }
                      ],
                      "name": "signature",
                      "type": "tuple"
                    }
                  ],
                  "name": "operator",
                  "type": "tuple"
                }
              ],
              "name": "seals",
              "type": "tuple"
            },
            {
              "name": "blockNumber",
              "type": "uint256"
            },
            {
              "name": "operatorId",
              "type": "uint256"
            }
          ],
          "name": "order",
          "type": "tuple"
        },
        {
          "components": [
            {
              "name": "nonce",
              "type": "uint256"
            },
            {
              "name": "amount",
              "type": "int256"
            },
            {
              "components": [
                {
                  "components": [
                    {
                      "name": "ct",
                      "type": "address"
                    },
                    {
                      "name": "id",
                      "type": "uint256"
                    }
                  ],
                  "name": "intended",
                  "type": "tuple"
                },
                {
                  "components": [
                    {
                      "name": "ct",
                      "type": "address"
                    },
                    {
                      "name": "id",
                      "type": "uint256"
                    }
                  ],
                  "name": "conjugate",
                  "type": "tuple"
                }
              ],
              "name": "currencies",
              "type": "tuple"
            },
            {
              "name": "rate",
              "type": "int256"
            },
            {
              "components": [
                {
                  "name": "nonce",
                  "type": "uint256"
                },
                {
                  "name": "wallet",
                  "type": "address"
                },
                {
                  "name": "rollingVolume",
                  "type": "uint256"
                },
                {
                  "name": "liquidityRole",
                  "type": "uint8"
                },
                {
                  "components": [
                    {
                      "name": "amount",
                      "type": "int256"
                    },
                    {
                      "components": [
                        {
                          "name": "wallet",
                          "type": "bytes32"
                        },
                        {
                          "name": "operator",
                          "type": "bytes32"
                        }
                      ],
                      "name": "hashes",
                      "type": "tuple"
                    },
                    {
                      "components": [
                        {
                          "name": "current",
                          "type": "int256"
                        },
                        {
                          "name": "previous",
                          "type": "int256"
                        }
                      ],
                      "name": "residuals",
                      "type": "tuple"
                    }
                  ],
                  "name": "order",
                  "type": "tuple"
                },
                {
                  "components": [
                    {
                      "components": [
                        {
                          "name": "current",
                          "type": "int256"
                        },
                        {
                          "name": "previous",
                          "type": "int256"
                        }
                      ],
                      "name": "intended",
                      "type": "tuple"
                    },
                    {
                      "components": [
                        {
                          "name": "current",
                          "type": "int256"
                        },
                        {
                          "name": "previous",
                          "type": "int256"
                        }
                      ],
                      "name": "conjugate",
                      "type": "tuple"
                    }
                  ],
                  "name": "balances",
                  "type": "tuple"
                },
                {
                  "components": [
                    {
                      "components": [
                        {
                          "name": "amount",
                          "type": "int256"
                        },
                        {
                          "components": [
                            {
                              "name": "ct",
                              "type": "address"
                            },
                            {
                              "name": "id",
                              "type": "uint256"
                            }
                          ],
                          "name": "currency",
                          "type": "tuple"
                        }
                      ],
                      "name": "single",
                      "type": "tuple"
                    },
                    {
                      "components": [
                        {
                          "name": "originId",
                          "type": "uint256"
                        },
                        {
                          "components": [
                            {
                              "name": "amount",
                              "type": "int256"
                            },
                            {
                              "components": [
                                {
                                  "name": "ct",
                                  "type": "address"
                                },
                                {
                                  "name": "id",
                                  "type": "uint256"
                                }
                              ],
                              "name": "currency",
                              "type": "tuple"
                            }
                          ],
                          "name": "figure",
                          "type": "tuple"
                        }
                      ],
                      "name": "total",
                      "type": "tuple[]"
                    }
                  ],
                  "name": "fees",
                  "type": "tuple"
                }
              ],
              "name": "buyer",
              "type": "tuple"
            },
            {
              "components": [
                {
                  "name": "nonce",
                  "type": "uint256"
                },
                {
                  "name": "wallet",
                  "type": "address"
                },
                {
                  "name": "rollingVolume",
                  "type": "uint256"
                },
                {
                  "name": "liquidityRole",
                  "type": "uint8"
                },
                {
                  "components": [
                    {
                      "name": "amount",
                      "type": "int256"
                    },
                    {
                      "components": [
                        {
                          "name": "wallet",
                          "type": "bytes32"
                        },
                        {
                          "name": "operator",
                          "type": "bytes32"
                        }
                      ],
                      "name": "hashes",
                      "type": "tuple"
                    },
                    {
                      "components": [
                        {
                          "name": "current",
                          "type": "int256"
                        },
                        {
                          "name": "previous",
                          "type": "int256"
                        }
                      ],
                      "name": "residuals",
                      "type": "tuple"
                    }
                  ],
                  "name": "order",
                  "type": "tuple"
                },
                {
                  "components": [
                    {
                      "components": [
                        {
                          "name": "current",
                          "type": "int256"
                        },
                        {
                          "name": "previous",
                          "type": "int256"
                        }
                      ],
                      "name": "intended",
                      "type": "tuple"
                    },
                    {
                      "components": [
                        {
                          "name": "current",
                          "type": "int256"
                        },
                        {
                          "name": "previous",
                          "type": "int256"
                        }
                      ],
                      "name": "conjugate",
                      "type": "tuple"
                    }
                  ],
                  "name": "balances",
                  "type": "tuple"
                },
                {
                  "components": [
                    {
                      "components": [
                        {
                          "name": "amount",
                          "type": "int256"
                        },
                        {
                          "components": [
                            {
                              "name": "ct",
                              "type": "address"
                            },
                            {
                              "name": "id",
                              "type": "uint256"
                            }
                          ],
                          "name": "currency",
                          "type": "tuple"
                        }
                      ],
                      "name": "single",
                      "type": "tuple"
                    },
                    {
                      "components": [
                        {
                          "name": "originId",
                          "type": "uint256"
                        },
                        {
                          "components": [
                            {
                              "name": "amount",
                              "type": "int256"
                            },
                            {
                              "components": [
                                {
                                  "name": "ct",
                                  "type": "address"
                                },
                                {
                                  "name": "id",
                                  "type": "uint256"
                                }
                              ],
                              "name": "currency",
                              "type": "tuple"
                            }
                          ],
                          "name": "figure",
                          "type": "tuple"
                        }
                      ],
                      "name": "total",
                      "type": "tuple[]"
                    }
                  ],
                  "name": "fees",
                  "type": "tuple"
                }
              ],
              "name": "seller",
              "type": "tuple"
            },
            {
              "components": [
                {
                  "components": [
                    {
                      "name": "single",
                      "type": "int256"
                    },
                    {
                      "name": "total",
                      "type": "int256"
                    }
                  ],
                  "name": "intended",
                  "type": "tuple"
                },
                {
                  "components": [
                    {
                      "name": "single",
                      "type": "int256"
                    },
                    {
                      "name": "total",
                      "type": "int256"
                    }
                  ],
                  "name": "conjugate",
                  "type": "tuple"
                }
              ],
              "name": "transfers",
              "type": "tuple"
            },
            {
              "components": [
                {
                  "name": "hash",
                  "type": "bytes32"
                },
                {
                  "components": [
                    {
                      "name": "r",
                      "type": "bytes32"
                    },
                    {
                      "name": "s",
                      "type": "bytes32"
                    },
                    {
                      "name": "v",
                      "type": "uint8"
                    }
                  ],
                  "name": "signature",
                  "type": "tuple"
                }
              ],
              "name": "seal",
              "type": "tuple"
            },
            {
              "name": "blockNumber",
              "type": "uint256"
            },
            {
              "name": "operatorId",
              "type": "uint256"
            }
          ],
          "name": "trade",
          "type": "tuple"
        },
        {
          "name": "unchallenger",
          "type": "address"
        }
      ],
      "name": "unchallengeOrderCandidateByTrade",
      "outputs": [],
      "payable": false,
      "stateMutability": "nonpayable",
      "type": "function"
    },
    {
      "constant": false,
      "inputs": [
        {
          "name": "wallet",
          "type": "address"
        },
        {
          "components": [
            {
              "name": "nonce",
              "type": "uint256"
            },
            {
              "name": "amount",
              "type": "int256"
            },
            {
              "components": [
                {
                  "components": [
                    {
                      "name": "ct",
                      "type": "address"
                    },
                    {
                      "name": "id",
                      "type": "uint256"
                    }
                  ],
                  "name": "intended",
                  "type": "tuple"
                },
                {
                  "components": [
                    {
                      "name": "ct",
                      "type": "address"
                    },
                    {
                      "name": "id",
                      "type": "uint256"
                    }
                  ],
                  "name": "conjugate",
                  "type": "tuple"
                }
              ],
              "name": "currencies",
              "type": "tuple"
            },
            {
              "name": "rate",
              "type": "int256"
            },
            {
              "components": [
                {
                  "name": "nonce",
                  "type": "uint256"
                },
                {
                  "name": "wallet",
                  "type": "address"
                },
                {
                  "name": "rollingVolume",
                  "type": "uint256"
                },
                {
                  "name": "liquidityRole",
                  "type": "uint8"
                },
                {
                  "components": [
                    {
                      "name": "amount",
                      "type": "int256"
                    },
                    {
                      "components": [
                        {
                          "name": "wallet",
                          "type": "bytes32"
                        },
                        {
                          "name": "operator",
                          "type": "bytes32"
                        }
                      ],
                      "name": "hashes",
                      "type": "tuple"
                    },
                    {
                      "components": [
                        {
                          "name": "current",
                          "type": "int256"
                        },
                        {
                          "name": "previous",
                          "type": "int256"
                        }
                      ],
                      "name": "residuals",
                      "type": "tuple"
                    }
                  ],
                  "name": "order",
                  "type": "tuple"
                },
                {
                  "components": [
                    {
                      "components": [
                        {
                          "name": "current",
                          "type": "int256"
                        },
                        {
                          "name": "previous",
                          "type": "int256"
                        }
                      ],
                      "name": "intended",
                      "type": "tuple"
                    },
                    {
                      "components": [
                        {
                          "name": "current",
                          "type": "int256"
                        },
                        {
                          "name": "previous",
                          "type": "int256"
                        }
                      ],
                      "name": "conjugate",
                      "type": "tuple"
                    }
                  ],
                  "name": "balances",
                  "type": "tuple"
                },
                {
                  "components": [
                    {
                      "components": [
                        {
                          "name": "amount",
                          "type": "int256"
                        },
                        {
                          "components": [
                            {
                              "name": "ct",
                              "type": "address"
                            },
                            {
                              "name": "id",
                              "type": "uint256"
                            }
                          ],
                          "name": "currency",
                          "type": "tuple"
                        }
                      ],
                      "name": "single",
                      "type": "tuple"
                    },
                    {
                      "components": [
                        {
                          "name": "originId",
                          "type": "uint256"
                        },
                        {
                          "components": [
                            {
                              "name": "amount",
                              "type": "int256"
                            },
                            {
                              "components": [
                                {
                                  "name": "ct",
                                  "type": "address"
                                },
                                {
                                  "name": "id",
                                  "type": "uint256"
                                }
                              ],
                              "name": "currency",
                              "type": "tuple"
                            }
                          ],
                          "name": "figure",
                          "type": "tuple"
                        }
                      ],
                      "name": "total",
                      "type": "tuple[]"
                    }
                  ],
                  "name": "fees",
                  "type": "tuple"
                }
              ],
              "name": "buyer",
              "type": "tuple"
            },
            {
              "components": [
                {
                  "name": "nonce",
                  "type": "uint256"
                },
                {
                  "name": "wallet",
                  "type": "address"
                },
                {
                  "name": "rollingVolume",
                  "type": "uint256"
                },
                {
                  "name": "liquidityRole",
                  "type": "uint8"
                },
                {
                  "components": [
                    {
                      "name": "amount",
                      "type": "int256"
                    },
                    {
                      "components": [
                        {
                          "name": "wallet",
                          "type": "bytes32"
                        },
                        {
                          "name": "operator",
                          "type": "bytes32"
                        }
                      ],
                      "name": "hashes",
                      "type": "tuple"
                    },
                    {
                      "components": [
                        {
                          "name": "current",
                          "type": "int256"
                        },
                        {
                          "name": "previous",
                          "type": "int256"
                        }
                      ],
                      "name": "residuals",
                      "type": "tuple"
                    }
                  ],
                  "name": "order",
                  "type": "tuple"
                },
                {
                  "components": [
                    {
                      "components": [
                        {
                          "name": "current",
                          "type": "int256"
                        },
                        {
                          "name": "previous",
                          "type": "int256"
                        }
                      ],
                      "name": "intended",
                      "type": "tuple"
                    },
                    {
                      "components": [
                        {
                          "name": "current",
                          "type": "int256"
                        },
                        {
                          "name": "previous",
                          "type": "int256"
                        }
                      ],
                      "name": "conjugate",
                      "type": "tuple"
                    }
                  ],
                  "name": "balances",
                  "type": "tuple"
                },
                {
                  "components": [
                    {
                      "components": [
                        {
                          "name": "amount",
                          "type": "int256"
                        },
                        {
                          "components": [
                            {
                              "name": "ct",
                              "type": "address"
                            },
                            {
                              "name": "id",
                              "type": "uint256"
                            }
                          ],
                          "name": "currency",
                          "type": "tuple"
                        }
                      ],
                      "name": "single",
                      "type": "tuple"
                    },
                    {
                      "components": [
                        {
                          "name": "originId",
                          "type": "uint256"
                        },
                        {
                          "components": [
                            {
                              "name": "amount",
                              "type": "int256"
                            },
                            {
                              "components": [
                                {
                                  "name": "ct",
                                  "type": "address"
                                },
                                {
                                  "name": "id",
                                  "type": "uint256"
                                }
                              ],
                              "name": "currency",
                              "type": "tuple"
                            }
                          ],
                          "name": "figure",
                          "type": "tuple"
                        }
                      ],
                      "name": "total",
                      "type": "tuple[]"
                    }
                  ],
                  "name": "fees",
                  "type": "tuple"
                }
              ],
              "name": "seller",
              "type": "tuple"
            },
            {
              "components": [
                {
                  "components": [
                    {
                      "name": "single",
                      "type": "int256"
                    },
                    {
                      "name": "total",
                      "type": "int256"
                    }
                  ],
                  "name": "intended",
                  "type": "tuple"
                },
                {
                  "components": [
                    {
                      "name": "single",
                      "type": "int256"
                    },
                    {
                      "name": "total",
                      "type": "int256"
                    }
                  ],
                  "name": "conjugate",
                  "type": "tuple"
                }
              ],
              "name": "transfers",
              "type": "tuple"
            },
            {
              "components": [
                {
                  "name": "hash",
                  "type": "bytes32"
                },
                {
                  "components": [
                    {
                      "name": "r",
                      "type": "bytes32"
                    },
                    {
                      "name": "s",
                      "type": "bytes32"
                    },
                    {
                      "name": "v",
                      "type": "uint8"
                    }
                  ],
                  "name": "signature",
                  "type": "tuple"
                }
              ],
              "name": "seal",
              "type": "tuple"
            },
            {
              "name": "blockNumber",
              "type": "uint256"
            },
            {
              "name": "operatorId",
              "type": "uint256"
            }
          ],
          "name": "trade",
          "type": "tuple"
        },
        {
          "name": "challenger",
          "type": "address"
        }
      ],
      "name": "challengeByTrade",
      "outputs": [],
      "payable": false,
      "stateMutability": "nonpayable",
      "type": "function"
    },
    {
      "constant": false,
      "inputs": [
        {
          "name": "wallet",
          "type": "address"
        },
        {
          "components": [
            {
              "name": "nonce",
              "type": "uint256"
            },
            {
              "name": "amount",
              "type": "int256"
            },
            {
              "components": [
                {
                  "name": "ct",
                  "type": "address"
                },
                {
                  "name": "id",
                  "type": "uint256"
                }
              ],
              "name": "currency",
              "type": "tuple"
            },
            {
              "components": [
                {
                  "name": "nonce",
                  "type": "uint256"
                },
                {
                  "name": "wallet",
                  "type": "address"
                },
                {
                  "components": [
                    {
                      "name": "current",
                      "type": "int256"
                    },
                    {
                      "name": "previous",
                      "type": "int256"
                    }
                  ],
                  "name": "balances",
                  "type": "tuple"
                },
                {
                  "components": [
                    {
                      "components": [
                        {
                          "name": "amount",
                          "type": "int256"
                        },
                        {
                          "components": [
                            {
                              "name": "ct",
                              "type": "address"
                            },
                            {
                              "name": "id",
                              "type": "uint256"
                            }
                          ],
                          "name": "currency",
                          "type": "tuple"
                        }
                      ],
                      "name": "single",
                      "type": "tuple"
                    },
                    {
                      "components": [
                        {
                          "name": "originId",
                          "type": "uint256"
                        },
                        {
                          "components": [
                            {
                              "name": "amount",
                              "type": "int256"
                            },
                            {
                              "components": [
                                {
                                  "name": "ct",
                                  "type": "address"
                                },
                                {
                                  "name": "id",
                                  "type": "uint256"
                                }
                              ],
                              "name": "currency",
                              "type": "tuple"
                            }
                          ],
                          "name": "figure",
                          "type": "tuple"
                        }
                      ],
                      "name": "total",
                      "type": "tuple[]"
                    }
                  ],
                  "name": "fees",
                  "type": "tuple"
                }
              ],
              "name": "sender",
              "type": "tuple"
            },
            {
              "components": [
                {
                  "name": "nonce",
                  "type": "uint256"
                },
                {
                  "name": "wallet",
                  "type": "address"
                },
                {
                  "components": [
                    {
                      "name": "current",
                      "type": "int256"
                    },
                    {
                      "name": "previous",
                      "type": "int256"
                    }
                  ],
                  "name": "balances",
                  "type": "tuple"
                },
                {
                  "components": [
                    {
                      "components": [
                        {
                          "name": "originId",
                          "type": "uint256"
                        },
                        {
                          "components": [
                            {
                              "name": "amount",
                              "type": "int256"
                            },
                            {
                              "components": [
                                {
                                  "name": "ct",
                                  "type": "address"
                                },
                                {
                                  "name": "id",
                                  "type": "uint256"
                                }
                              ],
                              "name": "currency",
                              "type": "tuple"
                            }
                          ],
                          "name": "figure",
                          "type": "tuple"
                        }
                      ],
                      "name": "total",
                      "type": "tuple[]"
                    }
                  ],
                  "name": "fees",
                  "type": "tuple"
                }
              ],
              "name": "recipient",
              "type": "tuple"
            },
            {
              "components": [
                {
                  "name": "single",
                  "type": "int256"
                },
                {
                  "name": "total",
                  "type": "int256"
                }
              ],
              "name": "transfers",
              "type": "tuple"
            },
            {
              "components": [
                {
                  "components": [
                    {
                      "name": "hash",
                      "type": "bytes32"
                    },
                    {
                      "components": [
                        {
                          "name": "r",
                          "type": "bytes32"
                        },
                        {
                          "name": "s",
                          "type": "bytes32"
                        },
                        {
                          "name": "v",
                          "type": "uint8"
                        }
                      ],
                      "name": "signature",
                      "type": "tuple"
                    }
                  ],
                  "name": "wallet",
                  "type": "tuple"
                },
                {
                  "components": [
                    {
                      "name": "hash",
                      "type": "bytes32"
                    },
                    {
                      "components": [
                        {
                          "name": "r",
                          "type": "bytes32"
                        },
                        {
                          "name": "s",
                          "type": "bytes32"
                        },
                        {
                          "name": "v",
                          "type": "uint8"
                        }
                      ],
                      "name": "signature",
                      "type": "tuple"
                    }
                  ],
                  "name": "operator",
                  "type": "tuple"
                }
              ],
              "name": "seals",
              "type": "tuple"
            },
            {
              "name": "blockNumber",
              "type": "uint256"
            },
            {
              "name": "operatorId",
              "type": "uint256"
            }
          ],
          "name": "payment",
          "type": "tuple"
        },
        {
          "name": "challenger",
          "type": "address"
        }
      ],
      "name": "challengeByPayment",
      "outputs": [],
      "payable": false,
      "stateMutability": "nonpayable",
      "type": "function"
    }
  ],
  "bytecode": "0x60806040523480156200001157600080fd5b50604051602080620052488339810180604052620000339190810190620000b6565b8080600160a060020a03811615156200004b57600080fd5b600160a060020a0381163014156200006257600080fd5b506000805461010060a860020a031916610100600160a060020a039390931692830217905560018054600160a060020a031916909117905550620000eb565b6000620000af8251620000df565b9392505050565b600060208284031215620000c957600080fd5b6000620000d78484620000a1565b949350505050565b600160a060020a031690565b61514d80620000fb6000396000f3006080604052600436106101505763ffffffff60e060020a60003504166301370d0681146101555780630608a938146101775780630cca956d146101975780631327d3d8146101c2578063240625d8146101e25780632738a112146102045780632f013a00146102195780633a5381b51461022e5780633bd7857f146102435780633dad7da4146102585780634476d23b14610278578063570ca7351461029a5780635dc60def146102af578063627f09c3146102c45780636792ce6e146102e45780636926832c146103045780636b0570d0146103245780636c70bee91461033957806370327ea11461034e578063892860b2146103635780638eed83591461038357806392272607146103a357806396214735146103c3578063b3ab15fb146103e3578063d5f3948814610403578063e8ae41e314610418578063f6d4c0ef1461042d578063ffa0343c14610442575b600080fd5b34801561016157600080fd5b506101756101703660046145ab565b610462565b005b34801561018357600080fd5b50610175610192366004614684565b61050a565b3480156101a357600080fd5b506101ac611052565b6040516101b99190614faa565b60405180910390f35b3480156101ce57600080fd5b506101756101dd3660046145ab565b611061565b3480156101ee57600080fd5b506101f76110f9565b6040516101b99190614f8e565b34801561021057600080fd5b50610175611109565b34801561022557600080fd5b506101f761116f565b34801561023a57600080fd5b506101ac611178565b34801561024f57600080fd5b506101ac611187565b34801561026457600080fd5b506101756102733660046145ab565b611196565b34801561028457600080fd5b5061028d61122e565b6040516101b99190614cf0565b3480156102a657600080fd5b5061028d611242565b3480156102bb57600080fd5b50610175611251565b3480156102d057600080fd5b506101756102df3660046145ab565b6112a5565b3480156102f057600080fd5b506101756102ff3660046145ab565b61133d565b34801561031057600080fd5b5061017561031f3660046144c2565b6113d5565b34801561033057600080fd5b506101ac611b8e565b34801561034557600080fd5b506101ac611b9d565b34801561035a57600080fd5b50610175611bac565b34801561036f57600080fd5b5061017561037e3660046145ab565b611c0f565b34801561038f57600080fd5b5061017561039e366004614648565b611cbe565b3480156103af57600080fd5b506101756103be366004614526565b6124e7565b3480156103cf57600080fd5b506101756103de36600461447e565b612dab565b3480156103ef57600080fd5b506101756103fe36600461447e565b612e72565b34801561040f57600080fd5b5061028d612f1c565b34801561042457600080fd5b506101ac612f30565b34801561043957600080fd5b506101ac612f3f565b34801561044e57600080fd5b5061017561045d3660046145ab565b612f4e565b600061046c612fd2565b151561047757600080fd5b81600160a060020a038116151561048d57600080fd5b6006548390600160a060020a0390811690821681146105035760068054600160a060020a03878116600160a060020a0319831617909255604051911694507f07998fa7be97abe2427246ae4688298c89d6196bbffdf0997b9495a8d27bc673906104fa9086908890614fb8565b60405180910390a15b5050505050565b610512613b31565b6008546000908190600160a060020a0316331461052e57600080fd5b60035460405160e060020a6331f2978b0281528791600160a060020a0316906331f2978b90610561908490600401614fe1565b602060405180830381600087803b15801561057b57600080fd5b505af115801561058f573d6000803e3d6000fd5b505050506040513d601f19601f820116820180604052506105b3919081019061456f565b15156105be57600080fd5b60035460405160e160020a637211c8c70281528791600160a060020a03169063e423918e906105f1908490600401615021565b602060405180830381600087803b15801561060b57600080fd5b505af115801561061f573d6000803e3d6000fd5b505050506040513d601f19601f82011682018060405250610643919081019061456f565b151561064e57600080fd5b602088015160035460405160e160020a6303e149c3028152899291600160a060020a0316906307c29386906106899085908590600401615032565b602060405180830381600087803b1580156106a357600080fd5b505af11580156106b7573d6000803e3d6000fd5b505050506040513d601f19601f820116820180604052506106db919081019061456f565b15156106e657600080fd5b6106ef8a612fe8565b6008546020808d015183519184015160405160e060020a633bebdcb5028152949b50600160a060020a0390931693633bebdcb5936107309391600401614d9a565b602060405180830381600087803b15801561074a57600080fd5b505af115801561075e573d6000803e3d6000fd5b505050506040513d601f19601f82011682018060405250610782919081019061456f565b1561078c57600080fd5b6008546020808c01518951918a015160405160e460020a62712abb028152600160a060020a0390941693630712abb0936107cb93929091600401614d9a565b602060405180830381600087803b1580156107e557600080fd5b505af11580156107f9573d6000803e3d6000fd5b505050506040513d601f19601f8201168201806040525061081d91908101906145e7565b600181111561082857fe5b60011461083457600080fd5b6008546020808c01518951918a015160405160e260020a6315862d5b028152600160a060020a0390941693635618b56c9361087493929091600401614d9a565b602060405180830381600087803b15801561088e57600080fd5b505af11580156108a2573d6000803e3d6000fd5b505050506040513d601f19601f820116820180604052506108c691908101906145c9565b60038111156108d157fe5b6001146108dd57600080fd5b60065460e08a01515160405160e160020a6352c894d1028152600160a060020a039092169163a59129a29161091491600401614f9c565b602060405180830381600087803b15801561092e57600080fd5b505af1158015610942573d6000803e3d6000fd5b505050506040513d601f19601f82011682018060405250610966919081019061456f565b1561097057600080fd5b60065460608b0151602001515160405160e060020a63e1f5828b028152600160a060020a039092169163e1f5828b916109ab91600401614f9c565b602060405180830381600087803b1580156109c557600080fd5b505af11580156109d9573d6000803e3d6000fd5b505050506040513d601f19601f820116820180604052506109fd919081019061456f565b15610a0757600080fd5b6008546020808c01518951918a015160405160e360020a6315bf6cef028152600160a060020a039094169363adfb677893610a4793929091600401614d9a565b602060405180830381600087803b158015610a6157600080fd5b505af1158015610a75573d6000803e3d6000fd5b505050506040513d601f19601f82011682018060405250610a99919081019061458d565b60608b015160200151519096508614610ab157600080fd5b610abf898b6020015161302a565b8614610aca57600080fd5b6008546020808c01518951918a015160405160e160020a637e698581028152600160a060020a039094169363fcd30b0293610b0a93929091600401614d9a565b602060405180830381600087803b158015610b2457600080fd5b505af1158015610b38573d6000803e3d6000fd5b505050506040513d601f19601f82011682018060405250610b5c91908101906144a4565b6008546020808d01518a51918b015160405160e060020a635252358d028152949950600160a060020a0390931693635252358d93610b9d9391600401614d9a565b602060405180830381600087803b158015610bb757600080fd5b505af1158015610bcb573d6000803e3d6000fd5b505050506040513d601f19601f82011682018060405250610bef919081019061456f565b15610c6b576005546020808c01518951918a015160405160e060020a6346c5c023028152600160a060020a03909416936346c5c02393610c3493928b92600401614d19565b600060405180830381600087803b158015610c4e57600080fd5b505af1158015610c62573d6000803e3d6000fd5b50505050610cdb565b60048054885160208a015160405160e060020a634e791e0d028152600160a060020a0390931693634e791e0d93610ca8938b939092909101614d9a565b600060405180830381600087803b158015610cc257600080fd5b505af1158015610cd6573d6000803e3d6000fd5b505050505b6008546020808c01518951918a015160405160e260020a6312b5082f028152600160a060020a0390941693634ad420bc93610d1b93929091600401614d9a565b600060405180830381600087803b158015610d3557600080fd5b505af1158015610d49573d6000803e3d6000fd5b5050600480546002546040805160e260020a630a2d7e570281529051600160a060020a03938416965063760b829295508e9493909216926328b5f95c9282820192602092908290030181600087803b158015610da457600080fd5b505af1158015610db8573d6000803e3d6000fd5b505050506040513d601f19601f82011682018060405250610ddc919081019061458d565b60006040518463ffffffff1660e060020a028152600401610dff93929190614f4b565b600060405180830381600087803b158015610e1957600080fd5b505af1158015610e2d573d6000803e3d6000fd5b5050506020808c01516008548a51928b015160405160e060020a63cdbf94190281527ffae4e87c58c05493f425e19a82c4a723c41ad0d0dbf39a3728180918ea79ceeb95509293600160a060020a039092169263cdbf941992610e94928692600401614d9a565b602060405180830381600087803b158015610eae57600080fd5b505af1158015610ec2573d6000803e3d6000fd5b505050506040513d601f19601f82011682018060405250610ee6919081019061458d565b6008546020808f01518c51918d015160405160e360020a6302ed3075028152600160a060020a039094169363176983a893610f2693929091600401614d9a565b602060405180830381600087803b158015610f4057600080fd5b505af1158015610f54573d6000803e3d6000fd5b505050506040513d601f19601f82011682018060405250610f78919081019061458d565b600860009054906101000a9004600160a060020a0316600160a060020a031663cd5c4f578f602001518d600001518e602001516040518463ffffffff1660e060020a028152600401610fcc93929190614d9a565b602060405180830381600087803b158015610fe657600080fd5b505af1158015610ffa573d6000803e3d6000fd5b505050506040513d601f19601f8201168201806040525061101e91908101906145e7565b8a8a8f60e00151600001518f60405161103e989796959493929190614ed4565b60405180910390a150505050505050505050565b600754600160a060020a031681565b600061106b612fd2565b151561107657600080fd5b81600160a060020a038116151561108c57600080fd5b6003548390600160a060020a0390811690821681146105035760038054600160a060020a03878116600160a060020a0319831617909255604051911694507f1882af944a16549c3d4f60e3cd26f158b0c7aac3222cf32971fc21375ce05f60906104fa9086908890614fb8565b60055460a060020a900460ff1681565b3361111261122e565b600160a060020a03161461112557600080fd5b60005460ff161561113557600080fd5b7f787a5d936e74f4b564b9153575886059829c78cd9927b1be5e0d976b317ef736336040516111649190614cf0565b60405180910390a133ff5b60005460ff1681565b600354600160a060020a031681565b600654600160a060020a031681565b60006111a0612fd2565b15156111ab57600080fd5b81600160a060020a03811615156111c157600080fd5b6007548390600160a060020a0390811690821681146105035760078054600160a060020a03878116600160a060020a0319831617909255604051911694507fafe0f82771e36e01015c06151eff69190d6796b6359da2780a8dd89ded9b2205906104fa9086908890614fb8565b6000546101009004600160a060020a031690565b600154600160a060020a031681565b611259612fd2565b151561126457600080fd5b6005805460a060020a60ff02191660a060020a1790556040517f56ec8900b9c4bf84f4b715a53068ca06961dd49084c07b481931e2c2045346e690600090a1565b60006112af612fd2565b15156112ba57600080fd5b81600160a060020a03811615156112d057600080fd5b6002548390600160a060020a0390811690821681146105035760028054600160a060020a03878116600160a060020a0319831617909255604051911694507f634f61bf00e14adedce330c80c2823e16e184f189ebe853e1ddecc4a268477ff906104fa9086908890614fb8565b6000611347612fd2565b151561135257600080fd5b81600160a060020a038116151561136857600080fd5b6004548390600160a060020a0390811690821681146105035760048054600160a060020a03878116600160a060020a0319831617909255604051911694507fc9f3f00c1760fe26985aeacb814a21c56ea289d680562e89b249681b08c30382906104fa9086908890614fb8565b600854600160a060020a031633146113ec57600080fd5b60035460405160e060020a63a865476b0281528391600160a060020a03169063a865476b9061141f908490600401614ff0565b602060405180830381600087803b15801561143957600080fd5b505af115801561144d573d6000803e3d6000fd5b505050506040513d601f19601f82011682018060405250611471919081019061456f565b151561147c57600080fd5b60035460405160e060020a63ef04ec9502815284918691600160a060020a039091169063ef04ec95906114b59085908590600401615001565b602060405180830381600087803b1580156114cf57600080fd5b505af11580156114e3573d6000803e3d6000fd5b505050506040513d601f19601f82011682018060405250611507919081019061456f565b151561151257600080fd5b60065460c0860151602001515160405160e360020a6310c7a6c1028152600160a060020a039092169163863d36089161154d91600401614f9c565b602060405180830381600087803b15801561156757600080fd5b505af115801561157b573d6000803e3d6000fd5b505050506040513d601f19601f8201168201806040525061159f919081019061456f565b156115a957600080fd5b6008546040808701518051602090910151915160e060020a633bebdcb5028152600160a060020a0390931692633bebdcb5926115ec928b92909190600401614d9a565b602060405180830381600087803b15801561160657600080fd5b505af115801561161a573d6000803e3d6000fd5b505050506040513d601f19601f8201168201806040525061163e919081019061456f565b1561164857600080fd5b6008546040808701518051602090910151915160e060020a63fca5192b028152600160a060020a039093169263fca5192b9261168b928b92909190600401614d9a565b602060405180830381600087803b1580156116a557600080fd5b505af11580156116b9573d6000803e3d6000fd5b505050506040513d601f19601f820116820180604052506116dd919081019061458d565b60e086015110156116ed57600080fd5b6008546040808701518051602090910151915160e160020a636adb4631028152600160a060020a039093169263d5b68c6292611730928b92909190600401614d9a565b602060405180830381600087803b15801561174a57600080fd5b505af115801561175e573d6000803e3d6000fd5b505050506040513d601f19601f82011682018060405250611782919081019061458d565b60e0860151101561179257600080fd5b6008546040808701518051602090910151915160e060020a6316987929028152600160a060020a03909316926316987929926117d5928b92909190600401614d9a565b602060405180830381600087803b1580156117ef57600080fd5b505af1158015611803573d6000803e3d6000fd5b505050506040513d601f19601f82011682018060405250611827919081019061458d565b60a0860151511361183757600080fd5b611855868660600151604001516000015187604001518760006130e5565b600854604080870151805160209182015160e08a015160c08b01519093015151935160e060020a63811111b5028152600160a060020a039095169463811111b5946118ac948d9493928c9290600390600401614dc2565b600060405180830381600087803b1580156118c657600080fd5b505af11580156118da573d6000803e3d6000fd5b50506008546040808901518051602090910151915160e060020a63cdbf94190281527f45ccc44bedf331197d162506182965c4617ce43e8bbf486fe49b7b48dfd6eef795508b9450600160a060020a039093169263cdbf941992611945928692909190600401614d9a565b602060405180830381600087803b15801561195f57600080fd5b505af1158015611973573d6000803e3d6000fd5b505050506040513d601f19601f82011682018060405250611997919081019061458d565b6008546040808a01518051602090910151915160e360020a6302ed3075028152600160a060020a039093169263176983a8926119da928e92909190600401614d9a565b602060405180830381600087803b1580156119f457600080fd5b505af1158015611a08573d6000803e3d6000fd5b505050506040513d601f19601f82011682018060405250611a2c919081019061458d565b6008546040808b01518051602090910151915160e060020a63cd5c4f57028152600160a060020a039093169263cd5c4f5792611a6f928f92909190600401614d9a565b602060405180830381600087803b158015611a8957600080fd5b505af1158015611a9d573d6000803e3d6000fd5b505050506040513d601f19601f82011682018060405250611ac191908101906145e7565b600860009054906101000a9004600160a060020a0316600160a060020a031663adfb67788c8c60400151600001518d60400151602001516040518463ffffffff1660e060020a028152600401611b1993929190614d9a565b602060405180830381600087803b158015611b3357600080fd5b505af1158015611b47573d6000803e3d6000fd5b505050506040513d601f19601f82011682018060405250611b6b919081019061458d565b89604051611b7e96959493929190614e7a565b60405180910390a1505050505050565b600454600160a060020a031681565b600254600160a060020a031681565b33611bb561122e565b600160a060020a031614611bc857600080fd5b6000805460ff191660011790556040517fd5a2a04a775c741c2ca0dc46ea7ce4835190e1aaf1ca018def0e82568ec3361690611c05903390614cf0565b60405180910390a1565b6000611c19612fd2565b1515611c2457600080fd5b81600160a060020a0381161515611c3a57600080fd5b6005548390600160a060020a0390811690821681146105035760055460a060020a900460ff1615611c6a57600080fd5b60058054600160a060020a03878116600160a060020a0319831617909255604051911694507fa44d361e26327b72a7ccbeae801b3c5cd7677ea4fa74168b289e273c46bfecfc906104fa9086908890614fb8565b611cc6613b31565b600854600160a060020a03163314611cdd57600080fd5b60035460405160e060020a6331f2978b0281528491600160a060020a0316906331f2978b90611d10908490600401614fe1565b602060405180830381600087803b158015611d2a57600080fd5b505af1158015611d3e573d6000803e3d6000fd5b505050506040513d601f19601f82011682018060405250611d62919081019061456f565b1515611d6d57600080fd5b6006546060850151602001515160405160e060020a63e1f5828b028152600160a060020a039092169163e1f5828b91611da891600401614f9c565b602060405180830381600087803b158015611dc257600080fd5b505af1158015611dd6573d6000803e3d6000fd5b505050506040513d601f19601f82011682018060405250611dfa919081019061456f565b15611e0457600080fd5b6007546020808601516060870151909101515160405160e160020a634deaf58b028152600160a060020a0390931692639bd5eb1692611e47929091600401614e2a565b602060405180830381600087803b158015611e6157600080fd5b505af1158015611e75573d6000803e3d6000fd5b505050506040513d601f19601f82011682018060405250611e99919081019061456f565b15611ea357600080fd5b611eac84612fe8565b60085460208087015183519184015160405160e060020a633bebdcb5028152949650600160a060020a0390931693633bebdcb593611eed9391600401614d9a565b602060405180830381600087803b158015611f0757600080fd5b505af1158015611f1b573d6000803e3d6000fd5b505050506040513d601f19601f82011682018060405250611f3f919081019061456f565b15611f4957600080fd5b60085460208086015184519185015160405160e060020a63fca5192b028152600160a060020a039094169363fca5192b93611f8993929091600401614d9a565b602060405180830381600087803b158015611fa357600080fd5b505af1158015611fb7573d6000803e3d6000fd5b505050506040513d601f19601f82011682018060405250611fdb919081019061458d565b60808501511015611feb57600080fd5b60085460208086015184519185015160405160e160020a636adb4631028152600160a060020a039094169363d5b68c629361202b93929091600401614d9a565b602060405180830381600087803b15801561204557600080fd5b505af1158015612059573d6000803e3d6000fd5b505050506040513d601f19601f8201168201806040525061207d919081019061458d565b6080850151101561208d57600080fd5b60085460208086015184519185015160405160e060020a6316987929028152600160a060020a03909416936316987929936120cd93929091600401614d9a565b602060405180830381600087803b1580156120e757600080fd5b505af11580156120fb573d6000803e3d6000fd5b505050506040513d601f19601f8201168201806040525061211f919081019061458d565b61212885613194565b1361213257600080fd5b6121d5846020015161214386613194565b8486600260009054906101000a9004600160a060020a0316600160a060020a031663fbdfd8e76040518163ffffffff1660e060020a028152600401602060405180830381600087803b15801561219857600080fd5b505af11580156121ac573d6000803e3d6000fd5b505050506040513d601f19601f820116820180604052506121d0919081019061458d565b6130e5565b600854602080860151845185830151608089015160608a0151909401515160405160e060020a63811111b5028152600160a060020a039096169563811111b595612229959493928b92600190600401614dc2565b600060405180830381600087803b15801561224357600080fd5b505af1158015612257573d6000803e3d6000fd5b50505060208086015160085485519286015160405160e060020a63cdbf94190281527f446e77c7a9f7bed0fd8ef739598bc9082e51bce37ddfbc253876113d259a8b7295509293600160a060020a039092169263cdbf9419926122be928692600401614d9a565b602060405180830381600087803b1580156122d857600080fd5b505af11580156122ec573d6000803e3d6000fd5b505050506040513d601f19601f82011682018060405250612310919081019061458d565b60085460208089015187519188015160405160e360020a6302ed3075028152600160a060020a039094169363176983a89361235093929091600401614d9a565b602060405180830381600087803b15801561236a57600080fd5b505af115801561237e573d6000803e3d6000fd5b505050506040513d601f19601f820116820180604052506123a2919081019061458d565b6008546020808a015188519189015160405160e060020a63cd5c4f57028152600160a060020a039094169363cd5c4f57936123e293929091600401614d9a565b602060405180830381600087803b1580156123fc57600080fd5b505af1158015612410573d6000803e3d6000fd5b505050506040513d601f19601f8201168201806040525061243491908101906145e7565b6008546020808b01518951918a015160405160e360020a6315bf6cef028152600160a060020a039094169363adfb67789361247493929091600401614d9a565b602060405180830381600087803b15801561248e57600080fd5b505af11580156124a2573d6000803e3d6000fd5b505050506040513d601f19601f820116820180604052506124c6919081019061458d565b886040516124d996959493929190614e7a565b60405180910390a150505050565b6124ef613b31565b600854600160a060020a0316331461250657600080fd5b60035460405160e160020a637211c8c70281528491600160a060020a03169063e423918e90612539908490600401615021565b602060405180830381600087803b15801561255357600080fd5b505af1158015612567573d6000803e3d6000fd5b505050506040513d601f19601f8201168201806040525061258b919081019061456f565b151561259657600080fd5b60035460405160e160020a6303e149c302815285918791600160a060020a03909116906307c29386906125cf9085908590600401615032565b602060405180830381600087803b1580156125e957600080fd5b505af11580156125fd573d6000803e3d6000fd5b505050506040513d601f19601f82011682018060405250612621919081019061456f565b151561262c57600080fd5b60065460e08701515160405160e160020a6352c894d1028152600160a060020a039092169163a59129a29161266391600401614f9c565b602060405180830381600087803b15801561267d57600080fd5b505af1158015612691573d6000803e3d6000fd5b505050506040513d601f19601f820116820180604052506126b5919081019061456f565b156126bf57600080fd5b600654600160a060020a031663e1f5828b6126da888a61302a565b6040518263ffffffff1660e060020a0281526004016126f99190614f9c565b602060405180830381600087803b15801561271357600080fd5b505af1158015612727573d6000803e3d6000fd5b505050506040513d601f19601f8201168201806040525061274b919081019061456f565b1561275557600080fd5b600754600160a060020a0316639bd5eb1688612771898261302a565b6040518363ffffffff1660e060020a028152600401612791929190614e2a565b602060405180830381600087803b1580156127ab57600080fd5b505af11580156127bf573d6000803e3d6000fd5b505050506040513d601f19601f820116820180604052506127e3919081019061456f565b156127ed57600080fd5b6127f786886131df565b6008548151602083015160405160e060020a633bebdcb5028152939750600160a060020a0390921692633bebdcb592612837928c92909190600401614d9a565b602060405180830381600087803b15801561285157600080fd5b505af1158015612865573d6000803e3d6000fd5b505050506040513d601f19601f82011682018060405250612889919081019061456f565b1561289357600080fd5b6008548451602086015160405160e060020a63fca5192b028152600160a060020a039093169263fca5192b926128cd928c92600401614d9a565b602060405180830381600087803b1580156128e757600080fd5b505af11580156128fb573d6000803e3d6000fd5b505050506040513d601f19601f8201168201806040525061291f919081019061458d565b610100870151101561293057600080fd5b6008548451602086015160405160e160020a636adb4631028152600160a060020a039093169263d5b68c629261296a928c92600401614d9a565b602060405180830381600087803b15801561298457600080fd5b505af1158015612998573d6000803e3d6000fd5b505050506040513d601f19601f820116820180604052506129bc919081019061458d565b61010087015110156129cd57600080fd5b6008548451602086015160405160e060020a6316987929028152600160a060020a0390931692631698792992612a07928c92600401614d9a565b602060405180830381600087803b158015612a2157600080fd5b505af1158015612a35573d6000803e3d6000fd5b505050506040513d601f19601f82011682018060405250612a59919081019061458d565b612a63878961328a565b13612a6d57600080fd5b612a8487612a7b888a613330565b868860006130e5565b6008548451602086015161010089015160e08a01515160405160e060020a63811111b5028152600160a060020a039095169463811111b594612ad5948e94919390928d929190600290600401614dc2565b600060405180830381600087803b158015612aef57600080fd5b505af1158015612b03573d6000803e3d6000fd5b50506008548651602088015160405160e060020a63cdbf94190281527f325695aa18fb91fc443446522ddd48cb1ce10913eb3c90d391547327d2975f4595508c9450600160a060020a039093169263cdbf941992612b65928692600401614d9a565b602060405180830381600087803b158015612b7f57600080fd5b505af1158015612b93573d6000803e3d6000fd5b505050506040513d601f19601f82011682018060405250612bb7919081019061458d565b6008548751602089015160405160e360020a6302ed3075028152600160a060020a039093169263176983a892612bf1928f92600401614d9a565b602060405180830381600087803b158015612c0b57600080fd5b505af1158015612c1f573d6000803e3d6000fd5b505050506040513d601f19601f82011682018060405250612c43919081019061458d565b600860009054906101000a9004600160a060020a0316600160a060020a031663cd5c4f578c8a600001518b602001516040518463ffffffff1660e060020a028152600401612c9393929190614d9a565b602060405180830381600087803b158015612cad57600080fd5b505af1158015612cc1573d6000803e3d6000fd5b505050506040513d601f19601f82011682018060405250612ce591908101906145e7565b600860009054906101000a9004600160a060020a0316600160a060020a031663adfb67788d8b600001518c602001516040518463ffffffff1660e060020a028152600401612d3593929190614d9a565b602060405180830381600087803b158015612d4f57600080fd5b505af1158015612d63573d6000803e3d6000fd5b505050506040513d601f19601f82011682018060405250612d87919081019061458d565b8a604051612d9a96959493929190614e7a565b60405180910390a150505050505050565b6000612db5612fd2565b1515612dc057600080fd5b81600160a060020a0381161515612dd657600080fd5b600160a060020a038116301415612dec57600080fd5b600054600160a060020a038481166101009092041614612e6d5760008054600160a060020a0385811661010090810261010060a860020a0319841617909355604051929091041692507f977e5fa58e458501775e0008d275006294c5249e3c08d1d0e3a9f3acad14f6e490612e649084908690614cfe565b60405180910390a15b505050565b6000612e7c6133dd565b1515612e8757600080fd5b81600160a060020a0381161515612e9d57600080fd5b600160a060020a038116301415612eb357600080fd5b600154600160a060020a03848116911614612e6d5760018054600160a060020a03858116600160a060020a0319831617909255604051911692507f9f611b789425d0d5b90b920f1b2852907dd865c80074a30b1629aaa041d1812c90612e649084908690614cfe565b6000546101009004600160a060020a031681565b600554600160a060020a031681565b600854600160a060020a031681565b6000612f58612fd2565b1515612f6357600080fd5b81600160a060020a0381161515612f7957600080fd5b60088054600160a060020a03858116600160a060020a03198316179283905560405191811694507f8a1a005b12d6687dbf2f09170ad28a9b5c8e8b2e1a9617db4529e643bf38739992612e649286929190911690614fb8565b6000546101009004600160a060020a0316331490565b612ff0613b31565b604082015151600181111561300157fe5b60011461301a5781604001516040015160200151613024565b6040808301510151515b92915050565b60035460405160e060020a63059057d7028152600091600160a060020a03169063059057d7906130609086908690600401615032565b602060405180830381600087803b15801561307a57600080fd5b505af115801561308e573d6000803e3d6000fd5b505050506040513d601f19601f820116820180604052506130b2919081019061456f565b6130cc578260a001516080015160200151602001516130de565b82608001516080015160200151602001515b9392505050565b6008548351602085015160405160e060020a635252358d028152600160a060020a0390931692635252358d9261311f928a92600401614d9a565b602060405180830381600087803b15801561313957600080fd5b505af115801561314d573d6000803e3d6000fd5b505050506040513d601f19601f82011682018060405250613171919081019061456f565b1561318757613182858585856133ee565b610503565b61050385858585856135fc565b60408101515160009060018111156131a857fe5b6001146131d357604082015160608101516020909101516131ce9163ffffffff613a2f16565b613024565b50604001516020015190565b6131e7613b31565b60035460405160e060020a63059057d7028152600160a060020a039091169063059057d79061321c9086908690600401615032565b602060405180830381600087803b15801561323657600080fd5b505af115801561324a573d6000803e3d6000fd5b505050506040513d601f19601f8201168201806040525061326e919081019061456f565b61327d576040830151516130de565b5050604001516020015190565b60035460405160e060020a63059057d7028152600091600160a060020a03169063059057d7906132c09086908690600401615032565b602060405180830381600087803b1580156132da57600080fd5b505af11580156132ee573d6000803e3d6000fd5b505050506040513d601f19601f82011682018060405250613312919081019061456f565b6133225760c083015151516130de565b505060c00151602001515190565b60035460405160e060020a63059057d7028152600091600160a060020a03169063059057d7906133669086908690600401615032565b602060405180830381600087803b15801561338057600080fd5b505af1158015613394573d6000803e3d6000fd5b505050506040513d601f19601f820116820180604052506133b8919081019061456f565b6133cb5760a080840151015151516130de565b50506080015160a00151602001515190565b600154600160a060020a0316331490565b6008548251602084015160405160e460020a62712abb028152600160a060020a0390931692630712abb092613427928992600401614d9a565b602060405180830381600087803b15801561344157600080fd5b505af1158015613455573d6000803e3d6000fd5b505050506040513d601f19601f8201168201806040525061347991908101906145e7565b600181111561348457fe5b60011415613584576005546008548351602085015160405160e160020a637e698581028152600160a060020a03948516946346c5c023948a9491169263fcd30b02926134d69286929091600401614d9a565b602060405180830381600087803b1580156134f057600080fd5b505af1158015613504573d6000803e3d6000fd5b505050506040513d601f19601f8201168201806040525061352891908101906144a4565b8551602087015160405160e060020a63ffffffff87160281526135519493929190600401614d19565b600060405180830381600087803b15801561356b57600080fd5b505af115801561357f573d6000803e3d6000fd5b505050505b6005548251602084015160405160e060020a6353d3b393028152600160a060020a03909316926353d3b393926135c492899287928a929091600401614d4e565b600060405180830381600087803b1580156135de57600080fd5b505af11580156135f2573d6000803e3d6000fd5b5050505050505050565b613604613b48565b6008548451602086015160405160e460020a62712abb028152600093600160a060020a031692630712abb092613640928c929190600401614d9a565b602060405180830381600087803b15801561365a57600080fd5b505af115801561366e573d6000803e3d6000fd5b505050506040513d601f19601f8201168201806040525061369291908101906145e7565b600181111561369d57fe5b6001141561379c57600480546008548751602089015160405160e160020a637e698581028152600160a060020a0394851695634e791e0d959094169363fcd30b02936136ef938f939192909101614d9a565b602060405180830381600087803b15801561370957600080fd5b505af115801561371d573d6000803e3d6000fd5b505050506040513d601f19601f8201168201806040525061374191908101906144a4565b8751602089015160405160e060020a63ffffffff861602815261376993929190600401614d9a565b600060405180830381600087803b15801561378357600080fd5b505af1158015613797573d6000803e3d6000fd5b505050505b6137a4613a64565b600480548251602080850151805191015160405160e160020a634197bc19028152959750600160a060020a039093169463832f7832946137ec948b94939290918b9101614e45565b600060405180830381600087803b15801561380657600080fd5b505af115801561381a573d6000803e3d6000fd5b50506004805488516020808b01516002546040805160e160020a63560069d9028152905173__SafeMathIntLib________________________995063755875b298508f97600160a060020a039788169763a72148eb979694169363ac00d3b293808301939192908290030181600087803b15801561389757600080fd5b505af11580156138ab573d6000803e3d6000fd5b505050506040513d601f19601f820116820180604052506138cf919081019061458d565b6040518463ffffffff1660e060020a0281526004016138f093929190614f73565b602060405180830381600087803b15801561390a57600080fd5b505af115801561391e573d6000803e3d6000fd5b505050506040513d601f19601f82011682018060405250613942919081019061458d565b6040518363ffffffff1660e060020a028152600401613962929190614fd3565b60206040518083038186803b15801561397a57600080fd5b505af415801561398e573d6000803e3d6000fd5b505050506040513d601f19601f820116820180604052506139b2919081019061458d565b600480548751602089015160405160e160020a634197bc19028152949550600160a060020a039092169363832f7832936139f4938a93889390928b9101614e45565b600060405180830381600087803b158015613a0e57600080fd5b505af1158015613a22573d6000803e3d6000fd5b5050505050505050505050565b600060ff60020a83141580613a4657508160001914155b1515613a5157600080fd5b8183811515613a5c57fe5b059392505050565b613a6c613b48565b6000806000600260009054906101000a9004600160a060020a0316600160a060020a031663ccd03d2e6040518163ffffffff1660e060020a028152600401606060405180830381600087803b158015613ac457600080fd5b505af1158015613ad8573d6000803e3d6000fd5b505050506040513d601f19601f82011682018060405250613afc9190810190614605565b6040805180820182529384528051808201909152600160a060020a039092168252602082810191909152820152949350505050565b604080518082019091526000808252602082015290565b60606040519081016040528060008152602001613b63613b31565b905290565b60006130de8235615093565b60006130de8251615093565b6000601f82018313613b9157600080fd5b8135613ba4613b9f82615069565b615043565b91508181835260208401935060208101905083856080840282011115613bc957600080fd5b60005b83811015613bf75781613bdf8882613e96565b84525060209092019160809190910190600101613bcc565b5050505092915050565b60006130de825161509f565b60006130de82356150a4565b60006130de82516150a4565b60006130de82356150c9565b60006130de82516150d4565b60006130de82516150e3565b60006130de82356150e3565b600060408284031215613c6757600080fd5b613c716040615043565b90506000613c7f8484613b68565b8252506020613c9084848301613c0d565b60208301525092915050565b600060408284031215613cae57600080fd5b613cb86040615043565b90506000613c7f8484613c0d565b600060608284031215613cd857600080fd5b613ce26040615043565b90506000613cf08484613c0d565b8252506020613c9084848301613c55565b600060808284031215613d1357600080fd5b613d1d6040615043565b90506000613d2b8484613c55565b8252506040613c9084848301613c55565b600060808284031215613d4e57600080fd5b613d586040615043565b90506000613d668484613c9c565b8252506040613c9084848301613c9c565b60006101208284031215613d8a57600080fd5b613d9460a0615043565b90506000613da28484613c49565b8252506020613db384848301613c0d565b6020830152506040613dc784828501613d01565b60408301525060c0613ddb84828501613c0d565b60608301525060e0613def84828501613c9c565b60808301525092915050565b60006102a08284031215613e0e57600080fd5b613e1860c0615043565b90506000613e268484613c0d565b8252506020613e3784848301613b68565b6020830152506040613e4b84828501613d77565b604083015250610160613e6084828501614436565b606083015250610260613e7584828501613c0d565b608083015250610280613e8a84828501613c0d565b60a08301525092915050565b600060808284031215613ea857600080fd5b613eb26040615043565b90506000613ec08484613c0d565b8252506020613c9084848301613cc6565b600060a08284031215613ee357600080fd5b613eed6080615043565b90506000613efb8484613c0d565b8252506020613f0c84848301613b68565b6020830152506040613f2084828501613c9c565b60408301525060808201356001604060020a03811115613f3f57600080fd5b613f4b848285016141bb565b60608301525092915050565b600060a08284031215613f6957600080fd5b613f736080615043565b90506000613f818484613c0d565b8252506020613f9284848301613b68565b6020830152506040613fa684828501613c9c565b60408301525060808201356001604060020a03811115613fc557600080fd5b613f4b84828501614169565b60006102408284031215613fe457600080fd5b613fef610120615043565b90506000613ffd8484613c0d565b825250602061400e84848301613c0d565b602083015250604061402284828501613c55565b60408301525060808201356001604060020a0381111561404157600080fd5b61404d84828501613f57565b60608301525060a08201356001604060020a0381111561406c57600080fd5b61407884828501613ed1565b60808301525060c061408c84828501613c9c565b60a0830152506101006140a184828501614436565b60c0830152506102006140b684828501613c0d565b60e0830152506102206140cb84828501613c0d565b6101008301525092915050565b6000608082840312156140ea57600080fd5b6140f46040615043565b905060006141028484613c0d565b8252506020613c908484830160006060828403121561412057600080fd5b61412a6060615043565b905060006141388484613c0d565b825250602061414984848301613c0d565b602083015250604061415d84828501614472565b60408301525092915050565b60006080828403121561417b57600080fd5b6141856040615043565b905060006141938484613cc6565b82525060608201356001604060020a038111156141af57600080fd5b613c9084828501613b80565b6000602082840312156141cd57600080fd5b6141d76020615043565b905081356001604060020a038111156141ef57600080fd5b6141fb84828501613b80565b82525092915050565b600060a0828403121561421657600080fd5b6142206060615043565b9050600061422e8484613c0d565b825250602061423f84848301613c9c565b602083015250606061415d84828501613c9c565b60006101c0828403121561426657600080fd5b61427060e0615043565b9050600061427e8484613c0d565b825250602061428f84848301613b68565b60208301525060406142a384828501613c0d565b60408301525060606142b784828501613c49565b60608301525060806142cb84828501614204565b6080830152506101206142e084828501613d3c565b60a0830152506101a08201356001604060020a0381111561430057600080fd5b61430c84828501614169565b60c08301525092915050565b6000610260828403121561432b57600080fd5b614336610140615043565b905060006143448484613c0d565b825250602061435584848301613c0d565b602083015250604061436984828501613d01565b60408301525060c061437d84828501613c0d565b60608301525060e08201356001604060020a0381111561439c57600080fd5b6143a884828501614253565b6080830152506101008201356001604060020a038111156143c857600080fd5b6143d484828501614253565b60a0830152506101206143e984828501613d3c565b60c0830152506101a06143fe848285016140d8565b60e08301525061022061441384828501613c0d565b6101008301525061024061442984828501613c0d565b6101208301525092915050565b6000610100828403121561444957600080fd5b6144536040615043565b9050600061446184846140d8565b8252506080613c90848483016140d8565b60006130de82356150c3565b60006020828403121561449057600080fd5b600061449c8484613b68565b949350505050565b6000602082840312156144b657600080fd5b600061449c8484613b74565b6000806000606084860312156144d757600080fd5b60006144e38686613b68565b93505060208401356001604060020a038111156144ff57600080fd5b61450b86828701613fd1565b925050604061451c86828701613b68565b9150509250925092565b60008060006060848603121561453b57600080fd5b60006145478686613b68565b93505060208401356001604060020a0381111561456357600080fd5b61450b86828701614318565b60006020828403121561458157600080fd5b600061449c8484613c01565b60006020828403121561459f57600080fd5b600061449c8484613c19565b6000602082840312156145bd57600080fd5b600061449c8484613c25565b6000602082840312156145db57600080fd5b600061449c8484613c31565b6000602082840312156145f957600080fd5b600061449c8484613c3d565b60008060006060848603121561461a57600080fd5b60006146268686613c19565b935050602061463786828701613b74565b925050604061451c86828701613c19565b6000806102c0838503121561465c57600080fd5b60006146688585613dfb565b9250506102a061467a85828601613b68565b9150509250929050565b60008060006102e0848603121561469a57600080fd5b60006146a68686613dfb565b9350506102a08401356001604060020a038111156146c357600080fd5b6146cf86828701614318565b9250506102c061451c86828701613b68565b6146ea81615093565b82525050565b60006146fb8261508f565b80845260208401935061470d83615089565b60005b8281101561473d576147238683516148f6565b61472c82615089565b608096909601959150600101614710565b5093949350505050565b6146ea8161509f565b6146ea816150a4565b6146ea816150c9565b6146ea816150f2565b6146ea816150fd565b6146ea81615108565b8051604083019061478e84826146e1565b5060208201516147a16020850182614750565b50505050565b8051604083019061478e8482614750565b805160608301906147c98482614750565b5060208201516147a1602085018261477d565b805160808301906147ed848261477d565b5060208201516147a1604085018261477d565b8051608083019061481184826147a7565b5060208201516147a160408501826147a7565b8051610120830190614836848261476b565b5060208201516148496020850182614750565b50604082015161485c60408501826147dc565b50606082015161486f60c0850182614750565b5060808201516147a160e08501826147a7565b80516102a08301906148948482614750565b5060208201516148a760208501826146e1565b5060408201516148ba6040850182614824565b5060608201516148ce610160850182614cc2565b5060808201516148e2610260850182614750565b5060a08201516147a1610280850182614750565b805160808301906149078482614750565b5060208201516147a160208501826147b8565b805160009060a084019061492e8582614750565b50602083015161494160208601826146e1565b50604083015161495460408601826147a7565b506060830151848203608086015261496c8282614b10565b95945050505050565b805160009060a08401906149898582614750565b50602083015161499c60208601826146e1565b5060408301516149af60408601826147a7565b506060830151848203608086015261496c8282614ae4565b80516000906102408401906149dc8582614750565b5060208301516149ef6020860182614750565b506040830151614a02604086018261477d565b5060608301518482036080860152614a1a8282614975565b915050608083015184820360a0860152614a34828261491a565b91505060a0830151614a4960c08601826147a7565b5060c0830151614a5d610100860182614cc2565b5060e0830151614a71610200860182614750565b50610100830151614a86610220860182614750565b509392505050565b80516080830190614a9f8482614750565b5060208201516147a1602085018280516060830190614abe8482614750565b506020820151614ad16020850182614750565b5060408201516147a16040850182614ce7565b80516000906080840190614af885826147b8565b506020830151848203606086015261496c82826146f0565b805160208084526000919084019061496c82826146f0565b805160a0830190614b398482614750565b506020820151614b4c60208501826147a7565b5060408201516147a160608501826147a7565b80516000906101c0840190614b748582614750565b506020830151614b8760208601826146e1565b506040830151614b9a6040860182614750565b506060830151614bad606086018261476b565b506080830151614bc06080860182614b28565b5060a0830151614bd4610120860182614800565b5060c08301518482036101a086015261496c8282614ae4565b8051600090610260840190614c028582614750565b506020830151614c156020860182614750565b506040830151614c2860408601826147dc565b506060830151614c3b60c0860182614750565b50608083015184820360e0860152614c538282614b5f565b91505060a0830151848203610100860152614c6e8282614b5f565b91505060c0830151614c84610120860182614800565b5060e0830151614c986101a0860182614a8e565b50610100830151614cad610220860182614750565b50610120830151614a86610240860182614750565b8051610100830190614cd48482614a8e565b5060208201516147a16080850182614a8e565b6146ea816150c3565b6020810161302482846146e1565b60408101614d0c82856146e1565b6130de60208301846146e1565b60808101614d2782876146e1565b614d3460208301866146e1565b614d4160408301856146e1565b61496c6060830184614750565b60a08101614d5c82886146e1565b614d6960208301876146e1565b614d766040830186614750565b614d8360608301856146e1565b614d906080830184614750565b9695505050505050565b60608101614da882866146e1565b614db560208301856146e1565b61449c6040830184614750565b60e08101614dd0828a6146e1565b614ddd60208301896146e1565b614dea6040830188614750565b614df760608301876146e1565b614e046080830186614750565b614e1160a0830185614750565b614e1e60c0830184614762565b98975050505050505050565b60408101614e3882856146e1565b6130de6020830184614750565b60a08101614e5382886146e1565b614e606020830187614750565b614e6d60408301866146e1565b614d836060830185614750565b60c08101614e8882896146e1565b614e956020830188614750565b614ea26040830187614750565b614eaf606083018661476b565b614ebc6080830185614750565b614ec960a08301846146e1565b979650505050505050565b6101008101614ee3828b6146e1565b614ef0602083018a614750565b614efd6040830189614750565b614f0a606083018861476b565b614f176080830187614750565b614f2460a08301866146e1565b614f3160c0830185614750565b614f3e60e08301846146e1565b9998505050505050505050565b60608101614f5982866146e1565b614f666020830185614750565b61449c6040830184614774565b60608101614f8182866146e1565b614db56020830185614750565b602081016130248284614747565b602081016130248284614750565b602081016130248284614759565b60408101614fc68285614759565b6130de6020830184614759565b60408101614e388285614750565b6102a081016130248284614882565b602080825281016130de81846149c7565b6040808252810161501281856149c7565b90506130de60208301846146e1565b602080825281016130de8184614bed565b604080825281016150128185614bed565b6040518181016001604060020a038111828210171561506157600080fd5b604052919050565b60006001604060020a0382111561507f57600080fd5b5060209081020190565b60200190565b5190565b600160a060020a031690565b151590565b90565b6000600482106150b357fe5b5090565b6000600282106150b357fe5b60ff1690565b600061302482615093565b6000600482106150b357600080fd5b6000600282106150b357600080fd5b6000613024826150a7565b6000613024826150b7565b6000613024826150a45600a265627a7a723058202e0069228857b9ae7d3f614dbb4a00839b2284c63379cd3867f38917567713206c6578706572696d656e74616cf50037",
  "source": "/*\n * Hubii Nahmii\n *\n * Compliant with the Hubii Nahmii specification v0.12.\n *\n * Copyright (C) 2017-2018 Hubii AS\n */\n\npragma solidity ^0.4.25;\npragma experimental ABIEncoderV2;\n\nimport {Ownable} from \"./Ownable.sol\";\nimport {Configurable} from \"./Configurable.sol\";\nimport {Validatable} from \"./Validatable.sol\";\nimport {SecurityBondable} from \"./SecurityBondable.sol\";\nimport {WalletLockable} from \"./WalletLockable.sol\";\nimport {FraudChallengable} from \"./FraudChallengable.sol\";\nimport {CancelOrdersChallengable} from \"./CancelOrdersChallengable.sol\";\nimport {SafeMathIntLib} from \"./SafeMathIntLib.sol\";\nimport {SafeMathUintLib} from \"./SafeMathUintLib.sol\";\nimport {MonetaryTypesLib} from \"./MonetaryTypesLib.sol\";\nimport {NahmiiTypesLib} from \"./NahmiiTypesLib.sol\";\nimport {SettlementTypesLib} from \"./SettlementTypesLib.sol\";\nimport {DriipSettlementChallenge} from \"./DriipSettlementChallenge.sol\";\n\n/**\n * @title DriipSettlementDispute\n * @notice The workhorse of driip settlement challenges, utilized by DriipSettlementChallenge\n */\ncontract DriipSettlementDispute is Ownable, Configurable, Validatable, SecurityBondable, WalletLockable,\nFraudChallengable, CancelOrdersChallengable {\n    using SafeMathIntLib for int256;\n    using SafeMathUintLib for uint256;\n\n    //\n    // Variables\n    // -----------------------------------------------------------------------------------------------------------------\n    DriipSettlementChallenge public driipSettlementChallenge;\n\n    //\n    // Events\n    // -----------------------------------------------------------------------------------------------------------------\n    event SetDriipSettlementChallengeEvent(DriipSettlementChallenge oldDriipSettlementChallenge,\n        DriipSettlementChallenge newDriipSettlementChallenge);\n    event ChallengeByOrderEvent(address wallet, uint256 nonce,\n        bytes32 driipHash, NahmiiTypesLib.DriipType driipType,\n        bytes32 candidateHash, address challenger);\n    event UnchallengeOrderCandidateByTradeEvent(address wallet, uint256 nonce,\n        bytes32 driipHash, NahmiiTypesLib.DriipType driipType,\n        bytes32 challengeCandidateHash, address challenger,\n        bytes32 unchallengeCandidateHash, address unchallenger);\n    event ChallengeByTradeEvent(address wallet, uint256 nonce,\n        bytes32 driipHash, NahmiiTypesLib.DriipType driipType,\n        bytes32 candidateHash, address challenger);\n    event ChallengeByPaymentEvent(address wallet, uint256 nonce,\n        bytes32 driipHash, NahmiiTypesLib.DriipType driipType,\n        bytes32 candidateHash, address challenger);\n\n    //\n    // Constructor\n    // -----------------------------------------------------------------------------------------------------------------\n    constructor(address deployer) Ownable(deployer) public {\n    }\n\n    /// @notice Set the driip settlement challenge contract\n    /// @param newDriipSettlementChallenge The (address of) DriipSettlementChallenge contract instance\n    function setDriipSettlementChallenge(DriipSettlementChallenge newDriipSettlementChallenge) public\n    onlyDeployer\n    notNullAddress(newDriipSettlementChallenge)\n    {\n        DriipSettlementChallenge oldDriipSettlementChallenge = driipSettlementChallenge;\n        driipSettlementChallenge = newDriipSettlementChallenge;\n        emit SetDriipSettlementChallengeEvent(oldDriipSettlementChallenge, driipSettlementChallenge);\n    }\n\n    /// @notice Challenge the driip settlement by providing order candidate\n    /// @param order The order candidate that challenges the challenged driip\n    /// @param challenger The address of the challenger\n    /// @dev If (candidate) order has buy intention consider _conjugate_ currency and amount, else\n    /// if (candidate) order has sell intention consider _intended_ currency and amount\n    function challengeByOrder(NahmiiTypesLib.Order order, address challenger) public\n    onlyDriipSettlementChallenge\n    onlySealedOrder(order)\n    {\n        // Require that candidate order is not labelled fraudulent or cancelled\n        require(!fraudChallenge.isFraudulentOrderHash(order.seals.operator.hash));\n        require(!cancelOrdersChallenge.isOrderCancelled(order.wallet, order.seals.operator.hash));\n\n        // Get the relevant currency\n        MonetaryTypesLib.Currency memory currency = _orderCurrency(order);\n\n        // Require that proposal has not expired\n        require(!driipSettlementChallenge.hasProposalExpired(order.wallet, currency.ct, currency.id));\n\n        // TODO Replace by wallet nonce\n        // Require that payment's block number is not earlier than proposal's block number or its current\n        // disqualification block number\n        require(order.blockNumber >= driipSettlementChallenge.proposalBlockNumber(\n            order.wallet, currency.ct, currency.id\n        ));\n        require(order.blockNumber >= driipSettlementChallenge.proposalDisqualificationBlockNumber(\n            order.wallet, currency.ct, currency.id\n        ));\n\n        // Require that transfer amount is strictly greater than the proposal's target balance amount\n        // for this order to be a valid challenge candidate\n        require(_orderTransferAmount(order) > driipSettlementChallenge.proposalTargetBalanceAmount(\n            order.wallet, currency.ct, currency.id\n        ));\n\n        // Reward challenger\n        // TODO Need balance as part of order to replace transfer amount (_orderTransferAmount(order)) in call below\n        _settleRewards(\n            order.wallet, _orderTransferAmount(order), currency, challenger,\n            configuration.settlementChallengeTimeout()\n        );\n\n        // Disqualify proposal, effectively overriding any previous disqualification\n        driipSettlementChallenge.disqualifyProposal(\n            order.wallet, currency.ct, currency.id, challenger, order.blockNumber,\n            order.seals.operator.hash, SettlementTypesLib.CandidateType.Order\n        );\n\n        // Emit event\n        emit ChallengeByOrderEvent(\n            order.wallet,\n            driipSettlementChallenge.proposalNonce(order.wallet, currency.ct, currency.id),\n            driipSettlementChallenge.proposalDriipHash(order.wallet, currency.ct, currency.id),\n            driipSettlementChallenge.proposalDriipType(order.wallet, currency.ct, currency.id),\n            driipSettlementChallenge.proposalDisqualificationCandidateHash(order.wallet, currency.ct, currency.id),\n            challenger\n        );\n    }\n\n    /// @notice Unchallenge driip settlement by providing trade that shows that challenge order candidate has been filled\n    /// @param order The order candidate that challenged driip\n    /// @param trade The trade in which order has been filled\n    /// @param unchallenger The address of the unchallenger\n    function unchallengeOrderCandidateByTrade(NahmiiTypesLib.Order order, NahmiiTypesLib.Trade trade, address unchallenger)\n    public\n    onlyDriipSettlementChallenge\n    onlySealedOrder(order)\n    onlySealedTrade(trade)\n    onlyTradeParty(trade, order.wallet)\n    {\n        // Get the relevant currency\n        MonetaryTypesLib.Currency memory currency = _orderCurrency(order);\n\n        // Require that proposal has not expired\n        require(!driipSettlementChallenge.hasProposalExpired(order.wallet, currency.ct, currency.id));\n\n        // Require that proposal has been disqualified\n        require(SettlementTypesLib.Status.Disqualified == driipSettlementChallenge.proposalStatus(\n            order.wallet, currency.ct, currency.id\n        ));\n\n        // Require that candidate type is order\n        require(SettlementTypesLib.CandidateType.Order == driipSettlementChallenge.proposalDisqualificationCandidateType(\n            order.wallet, currency.ct, currency.id\n        ));\n\n        // Require that trade and order are not labelled fraudulent\n        require(!fraudChallenge.isFraudulentTradeHash(trade.seal.hash));\n        require(!fraudChallenge.isFraudulentOrderHash(order.seals.operator.hash));\n\n        bytes32 candidateHash = driipSettlementChallenge.proposalDisqualificationCandidateHash(\n            order.wallet, currency.ct, currency.id\n        );\n\n        // Require that the order's and trade' order hashes equal the candidate (order's) hash,\n        // and implicitly that order's and trade order's hashes equal\n        // Order wallet is buyer -> require candidate hash to match buyer's order hash\n        // Order wallet is seller -> require candidate hash to match seller's order hash\n        require(candidateHash == order.seals.operator.hash);\n        require(candidateHash == _tradeOrderHash(trade, order.wallet));\n\n        // Store old challenger\n        address challenger = driipSettlementChallenge.proposalDisqualificationChallenger(\n            order.wallet, currency.ct, currency.id\n        );\n\n        // Unlock wallet's balances or deprive challenger\n        if (driipSettlementChallenge.proposalBalanceReward(order.wallet, currency.ct, currency.id))\n            walletLocker.unlockFungibleByProxy(order.wallet, challenger, currency.ct, currency.id);\n        else\n            securityBond.depriveAbsolute(challenger, currency.ct, currency.id);\n\n        // Requalify proposal\n        driipSettlementChallenge.qualifyProposal(\n            order.wallet, currency.ct, currency.id\n        );\n\n        // Reward unchallenger\n        securityBond.rewardFractional(unchallenger, configuration.walletSettlementStakeFraction(), 0);\n\n        // Emit event\n        emit UnchallengeOrderCandidateByTradeEvent(\n            order.wallet,\n            driipSettlementChallenge.proposalNonce(order.wallet, currency.ct, currency.id),\n            driipSettlementChallenge.proposalDriipHash(order.wallet, currency.ct, currency.id),\n            driipSettlementChallenge.proposalDriipType(order.wallet, currency.ct, currency.id),\n            candidateHash, challenger,\n            trade.seal.hash, unchallenger\n        );\n    }\n\n    /// @notice Challenge the driip settlement by providing trade candidate\n    /// @param wallet The wallet whose driip settlement is being challenged\n    /// @param trade The trade candidate that challenges the challenged driip\n    /// @param challenger The address of the challenger\n    /// @dev If wallet is buyer in (candidate) trade consider single _conjugate_ transfer in (candidate) trade. Else\n    /// if wallet is seller in (candidate) trade consider single _intended_ transfer in (candidate) trade\n    function challengeByTrade(address wallet, NahmiiTypesLib.Trade trade, address challenger)\n    public\n    onlyDriipSettlementChallenge\n    onlySealedTrade(trade)\n    onlyTradeParty(trade, wallet)\n    {\n        // Require that trade candidate is not labelled fraudulent\n        require(!fraudChallenge.isFraudulentTradeHash(trade.seal.hash));\n\n        // Require that wallet's order in trade is not labelled fraudulent or cancelled\n        require(!fraudChallenge.isFraudulentOrderHash(_tradeOrderHash(trade, wallet)));\n        require(!cancelOrdersChallenge.isOrderCancelled(wallet, _tradeOrderHash(trade, wallet)));\n\n        // Get the relevant currency\n        MonetaryTypesLib.Currency memory currency = _tradeCurrency(trade, wallet);\n\n        // Require that proposal has not expired\n        require(!driipSettlementChallenge.hasProposalExpired(wallet, currency.ct, currency.id));\n\n        // TODO Replace by wallet nonce\n        // Require that payment's block number is not earlier than proposal's block number or its current\n        // disqualification block number\n        require(trade.blockNumber >= driipSettlementChallenge.proposalBlockNumber(\n            wallet, currency.ct, currency.id\n        ));\n        require(trade.blockNumber >= driipSettlementChallenge.proposalDisqualificationBlockNumber(\n            wallet, currency.ct, currency.id\n        ));\n\n        // Require that transfer amount is strictly greater than the proposal's target balance amount\n        // for this trade to be a valid challenge candidate\n        require(_tradeTransferAmount(trade, wallet) > driipSettlementChallenge.proposalTargetBalanceAmount(\n            wallet, currency.ct, currency.id\n        ));\n\n        // Reward challenger\n        _settleRewards(wallet, _tradeBalanceAmount(trade, wallet), currency, challenger, 0);\n\n        // Disqualify proposal, effectively overriding any previous disqualification\n        driipSettlementChallenge.disqualifyProposal(\n            wallet, currency.ct, currency.id, challenger, trade.blockNumber,\n            trade.seal.hash, SettlementTypesLib.CandidateType.Trade\n        );\n\n        // Emit event\n        emit ChallengeByTradeEvent(\n            wallet,\n            driipSettlementChallenge.proposalNonce(wallet, currency.ct, currency.id),\n            driipSettlementChallenge.proposalDriipHash(wallet, currency.ct, currency.id),\n            driipSettlementChallenge.proposalDriipType(wallet, currency.ct, currency.id),\n            driipSettlementChallenge.proposalDisqualificationCandidateHash(wallet, currency.ct, currency.id),\n            challenger\n        );\n    }\n\n    /// @notice Challenge the driip settlement by providing payment candidate\n    /// @dev This challenges the payment sender's side of things\n    /// @param wallet The concerned party\n    /// @param payment The payment candidate that challenges the challenged driip\n    /// @param challenger The address of the challenger\n    function challengeByPayment(address wallet, NahmiiTypesLib.Payment payment, address challenger)\n    public\n    onlyDriipSettlementChallenge\n    onlySealedPayment(payment)\n    onlyPaymentSender(payment, wallet)\n    {\n        // Require that payment candidate is not labelled fraudulent\n        require(!fraudChallenge.isFraudulentPaymentHash(payment.seals.operator.hash));\n\n        // Require that proposal has not expired\n        require(!driipSettlementChallenge.hasProposalExpired(wallet, payment.currency.ct, payment.currency.id));\n\n        // TODO Replace by wallet nonce\n        // Require that payment's block number is not earlier than proposal's block number or its current\n        // disqualification block number\n        require(payment.blockNumber >= driipSettlementChallenge.proposalBlockNumber(\n            wallet, payment.currency.ct, payment.currency.id\n        ));\n        require(payment.blockNumber >= driipSettlementChallenge.proposalDisqualificationBlockNumber(\n            wallet, payment.currency.ct, payment.currency.id\n        ));\n\n        // Require that transfer amount is strictly greater than the proposal's target balance amount\n        // for the provided payment to be a valid challenge candidate.\n        require(payment.transfers.single > driipSettlementChallenge.proposalTargetBalanceAmount(\n            wallet, payment.currency.ct, payment.currency.id\n        ));\n\n        // Reward challenger\n        _settleRewards(wallet, payment.sender.balances.current, payment.currency, challenger, 0);\n\n        // Disqualify proposal, effectively overriding any previous disqualification\n        driipSettlementChallenge.disqualifyProposal(\n            wallet, payment.currency.ct, payment.currency.id, challenger, payment.blockNumber,\n            payment.seals.operator.hash, SettlementTypesLib.CandidateType.Payment\n        );\n\n        // Emit event\n        emit ChallengeByPaymentEvent(\n            wallet,\n            driipSettlementChallenge.proposalNonce(wallet, payment.currency.ct, payment.currency.id),\n            driipSettlementChallenge.proposalDriipHash(wallet, payment.currency.ct, payment.currency.id),\n            driipSettlementChallenge.proposalDriipType(wallet, payment.currency.ct, payment.currency.id),\n            driipSettlementChallenge.proposalDisqualificationCandidateHash(wallet, payment.currency.ct, payment.currency.id),\n            challenger\n        );\n    }\n\n    //\n    // Private functions\n    // -----------------------------------------------------------------------------------------------------------------\n    // Get the candidate order currency\n    // Buy order -> Conjugate currency\n    // Sell order -> Intended currency\n    function _orderCurrency(NahmiiTypesLib.Order order)\n    private\n    pure\n    returns (MonetaryTypesLib.Currency)\n    {\n        return NahmiiTypesLib.Intention.Sell == order.placement.intention ?\n        order.placement.currencies.intended :\n        order.placement.currencies.conjugate;\n    }\n\n    // Get the candidate order transfer\n    // Buy order -> Conjugate transfer\n    // Sell order -> Intended transfer\n    function _orderTransferAmount(NahmiiTypesLib.Order order)\n    private\n    pure\n    returns (int256)\n    {\n        return NahmiiTypesLib.Intention.Sell == order.placement.intention ?\n        order.placement.amount :\n        order.placement.amount.div(order.placement.rate);\n    }\n\n    function _tradeOrderHash(NahmiiTypesLib.Trade trade, address wallet)\n    private\n    view\n    returns (bytes32)\n    {\n        return validator.isTradeBuyer(trade, wallet) ?\n        trade.buyer.order.hashes.operator :\n        trade.seller.order.hashes.operator;\n    }\n\n    // Get the candidate trade currency\n    // Wallet is buyer in (candidate) trade -> Conjugate currency\n    // Wallet is seller in (candidate) trade -> Intended currency\n    function _tradeCurrency(NahmiiTypesLib.Trade trade, address wallet)\n    private\n    view\n    returns (MonetaryTypesLib.Currency)\n    {\n        return validator.isTradeBuyer(trade, wallet) ?\n        trade.currencies.conjugate :\n        trade.currencies.intended;\n    }\n\n    // Get the candidate trade transfer amount\n    // Wallet is buyer in (candidate) trade -> Conjugate transfer\n    // Wallet is seller in (candidate) trade -> Intended transfer\n    function _tradeTransferAmount(NahmiiTypesLib.Trade trade, address wallet)\n    private\n    view\n    returns (int256)\n    {\n        return validator.isTradeBuyer(trade, wallet) ?\n        trade.transfers.conjugate.single :\n        trade.transfers.intended.single;\n    }\n\n    // Get the candidate trade balance amount\n    // Wallet is buyer in (candidate) trade -> Buyer's conjugate balance\n    // Wallet is seller in (candidate) trade -> Seller's intended balance\n    function _tradeBalanceAmount(NahmiiTypesLib.Trade trade, address wallet)\n    private\n    view\n    returns (int256)\n    {\n        return validator.isTradeBuyer(trade, wallet) ?\n        trade.buyer.balances.conjugate.current :\n        trade.seller.balances.intended.current;\n    }\n\n    // Lock wallet's balances or reward challenger by stake fraction\n    function _settleRewards(address wallet, int256 walletAmount, MonetaryTypesLib.Currency currency,\n        address challenger, uint256 unlockTimeoutInSeconds)\n    private\n    {\n        if (driipSettlementChallenge.proposalBalanceReward(wallet, currency.ct, currency.id))\n            _settleBalanceReward(wallet, walletAmount, currency, challenger);\n\n        else\n            _settleSecurityBondReward(wallet, walletAmount, currency, challenger, unlockTimeoutInSeconds);\n    }\n\n    function _settleBalanceReward(address wallet, int256 walletAmount, MonetaryTypesLib.Currency currency,\n        address challenger)\n    private\n    {\n        // Unlock wallet/currency for existing challenger if previously locked\n        if (SettlementTypesLib.Status.Disqualified == driipSettlementChallenge.proposalStatus(\n            wallet, currency.ct, currency.id\n        ))\n            walletLocker.unlockFungibleByProxy(\n                wallet,\n                driipSettlementChallenge.proposalDisqualificationChallenger(\n                    wallet, currency.ct, currency.id\n                ),\n                currency.ct, currency.id\n            );\n\n        // Lock wallet for new challenger\n        walletLocker.lockFungibleByProxy(wallet, challenger, walletAmount, currency.ct, currency.id);\n    }\n\n    // Settle the two-component reward from security bond.\n    // The first component is flat figure as obtained from Configuration\n    // The second component is progressive and calculated as\n    //    min(walletAmount, fraction of SecurityBond's deposited balance)\n    // both amounts for the given currency\n    function _settleSecurityBondReward(address wallet, int256 walletAmount, MonetaryTypesLib.Currency currency,\n        address challenger, uint256 unlockTimeoutInSeconds)\n    private\n    {\n        // Deprive existing challenger of reward if previously locked\n        if (SettlementTypesLib.Status.Disqualified == driipSettlementChallenge.proposalStatus(\n            wallet, currency.ct, currency.id\n        ))\n            securityBond.depriveAbsolute(\n                driipSettlementChallenge.proposalDisqualificationChallenger(\n                    wallet, currency.ct, currency.id\n                ),\n                currency.ct, currency.id\n            );\n\n        // Reward the flat component\n        MonetaryTypesLib.Figure memory flatReward = _flatReward();\n        securityBond.rewardAbsolute(\n            challenger, flatReward.amount, flatReward.currency.ct, flatReward.currency.id, unlockTimeoutInSeconds\n        );\n\n        // Reward the progressive component\n        int256 progressiveRewardAmount = walletAmount.clampMax(\n            securityBond.depositedFractionalBalance(currency.ct, currency.id, configuration.operatorSettlementStakeFraction())\n        );\n        securityBond.rewardAbsolute(\n            challenger, progressiveRewardAmount, currency.ct, currency.id, unlockTimeoutInSeconds\n        );\n    }\n\n    function _flatReward()\n    private\n    view\n    returns (MonetaryTypesLib.Figure)\n    {\n        (int256 amount, address currencyCt, uint256 currencyId) = configuration.operatorSettlementStake();\n        return MonetaryTypesLib.Figure(amount, MonetaryTypesLib.Currency(currencyCt, currencyId));\n    }\n\n    //\n    // Modifiers\n    // -----------------------------------------------------------------------------------------------------------------\n    modifier onlyDriipSettlementChallenge() {\n        require(msg.sender == address(driipSettlementChallenge));\n        _;\n    }\n}",
  "sourcePath": "/opt/buildagent/work/855e104608380c36/contracts/DriipSettlementDispute.sol",
  "compiler": {
    "name": "solc",
    "version": "0.4.25+commit.59dbf8f1.Emscripten.clang"
  },
  "schemaVersion": "2.0.1",
  "updatedAt": "2019-01-31T11:28:29.592Z"
}