{
  "contractName": "DriipSettlementState",
  "abi": [
    {
      "inputs": [
        {
          "internalType": "address",
          "name": "deployer",
          "type": "address"
        }
      ],
      "payable": false,
      "stateMutability": "nonpayable",
      "type": "constructor"
    },
    {
      "anonymous": false,
      "inputs": [
        {
          "indexed": false,
          "internalType": "address",
          "name": "wallet",
          "type": "address"
        },
        {
          "indexed": false,
          "internalType": "int256",
          "name": "amount",
          "type": "int256"
        },
        {
          "components": [
            {
              "internalType": "address",
              "name": "ct",
              "type": "address"
            },
            {
              "internalType": "uint256",
              "name": "id",
              "type": "uint256"
            }
          ],
          "indexed": false,
          "internalType": "struct MonetaryTypesLib.Currency",
          "name": "currency",
          "type": "tuple"
        },
        {
          "indexed": false,
          "internalType": "uint256",
          "name": "blockNumber",
          "type": "uint256"
        }
      ],
      "name": "AddSettledAmountEvent",
      "type": "event"
    },
    {
      "anonymous": false,
      "inputs": [
        {
          "indexed": false,
          "internalType": "address",
          "name": "wallet",
          "type": "address"
        },
        {
          "indexed": false,
          "internalType": "uint256",
          "name": "nonce",
          "type": "uint256"
        },
        {
          "indexed": false,
          "internalType": "enum DriipSettlementTypesLib.SettlementRole",
          "name": "settlementRole",
          "type": "uint8"
        },
        {
          "indexed": false,
          "internalType": "uint256",
          "name": "doneBlockNumber",
          "type": "uint256"
        }
      ],
      "name": "CompleteSettlementPartyEvent",
      "type": "event"
    },
    {
      "anonymous": false,
      "inputs": [
        {
          "indexed": false,
          "internalType": "address",
          "name": "service",
          "type": "address"
        }
      ],
      "name": "DeregisterServiceEvent",
      "type": "event"
    },
    {
      "anonymous": false,
      "inputs": [
        {
          "indexed": false,
          "internalType": "address",
          "name": "service",
          "type": "address"
        },
        {
          "indexed": false,
          "internalType": "string",
          "name": "action",
          "type": "string"
        }
      ],
      "name": "DisableServiceActionEvent",
      "type": "event"
    },
    {
      "anonymous": false,
      "inputs": [
        {
          "indexed": false,
          "internalType": "address",
          "name": "service",
          "type": "address"
        },
        {
          "indexed": false,
          "internalType": "string",
          "name": "action",
          "type": "string"
        }
      ],
      "name": "EnableServiceActionEvent",
      "type": "event"
    },
    {
      "anonymous": false,
      "inputs": [],
      "name": "FreezeCommunityVoteEvent",
      "type": "event"
    },
    {
      "anonymous": false,
      "inputs": [],
      "name": "FreezeUpgradesEvent",
      "type": "event"
    },
    {
      "anonymous": false,
      "inputs": [
        {
          "components": [
            {
              "internalType": "string",
              "name": "settledKind",
              "type": "string"
            },
            {
              "internalType": "bytes32",
              "name": "settledHash",
              "type": "bytes32"
            },
            {
              "components": [
                {
                  "internalType": "uint256",
                  "name": "nonce",
                  "type": "uint256"
                },
                {
                  "internalType": "address",
                  "name": "wallet",
                  "type": "address"
                },
                {
                  "internalType": "uint256",
                  "name": "doneBlockNumber",
                  "type": "uint256"
                }
              ],
              "internalType": "struct DriipSettlementTypesLib.SettlementParty",
              "name": "origin",
              "type": "tuple"
            },
            {
              "components": [
                {
                  "internalType": "uint256",
                  "name": "nonce",
                  "type": "uint256"
                },
                {
                  "internalType": "address",
                  "name": "wallet",
                  "type": "address"
                },
                {
                  "internalType": "uint256",
                  "name": "doneBlockNumber",
                  "type": "uint256"
                }
              ],
              "internalType": "struct DriipSettlementTypesLib.SettlementParty",
              "name": "target",
              "type": "tuple"
            }
          ],
          "indexed": false,
          "internalType": "struct DriipSettlementTypesLib.Settlement",
          "name": "settlement",
          "type": "tuple"
        }
      ],
      "name": "InitSettlementEvent",
      "type": "event"
    },
    {
      "anonymous": false,
      "inputs": [
        {
          "indexed": false,
          "internalType": "address",
          "name": "service",
          "type": "address"
        },
        {
          "indexed": false,
          "internalType": "uint256",
          "name": "timeout",
          "type": "uint256"
        }
      ],
      "name": "RegisterServiceDeferredEvent",
      "type": "event"
    },
    {
      "anonymous": false,
      "inputs": [
        {
          "indexed": false,
          "internalType": "address",
          "name": "service",
          "type": "address"
        }
      ],
      "name": "RegisterServiceEvent",
      "type": "event"
    },
    {
      "anonymous": false,
      "inputs": [
        {
          "indexed": false,
          "internalType": "address",
          "name": "wallet",
          "type": "address"
        }
      ],
      "name": "SelfDestructionDisabledEvent",
      "type": "event"
    },
    {
      "anonymous": false,
      "inputs": [
        {
          "indexed": false,
          "internalType": "uint256",
          "name": "timeoutInSeconds",
          "type": "uint256"
        }
      ],
      "name": "ServiceActivationTimeoutEvent",
      "type": "event"
    },
    {
      "anonymous": false,
      "inputs": [
        {
          "indexed": false,
          "internalType": "contract CommunityVote",
          "name": "oldCommunityVote",
          "type": "address"
        },
        {
          "indexed": false,
          "internalType": "contract CommunityVote",
          "name": "newCommunityVote",
          "type": "address"
        }
      ],
      "name": "SetCommunityVoteEvent",
      "type": "event"
    },
    {
      "anonymous": false,
      "inputs": [
        {
          "indexed": false,
          "internalType": "address",
          "name": "oldDeployer",
          "type": "address"
        },
        {
          "indexed": false,
          "internalType": "address",
          "name": "newDeployer",
          "type": "address"
        }
      ],
      "name": "SetDeployerEvent",
      "type": "event"
    },
    {
      "anonymous": false,
      "inputs": [
        {
          "indexed": false,
          "internalType": "uint256",
          "name": "maxDriipNonce",
          "type": "uint256"
        }
      ],
      "name": "SetMaxDriipNonceEvent",
      "type": "event"
    },
    {
      "anonymous": false,
      "inputs": [
        {
          "indexed": false,
          "internalType": "address",
          "name": "wallet",
          "type": "address"
        },
        {
          "components": [
            {
              "internalType": "address",
              "name": "ct",
              "type": "address"
            },
            {
              "internalType": "uint256",
              "name": "id",
              "type": "uint256"
            }
          ],
          "indexed": false,
          "internalType": "struct MonetaryTypesLib.Currency",
          "name": "currency",
          "type": "tuple"
        },
        {
          "indexed": false,
          "internalType": "uint256",
          "name": "maxNonce",
          "type": "uint256"
        }
      ],
      "name": "SetMaxNonceByWalletAndCurrencyEvent",
      "type": "event"
    },
    {
      "anonymous": false,
      "inputs": [
        {
          "indexed": false,
          "internalType": "address",
          "name": "oldOperator",
          "type": "address"
        },
        {
          "indexed": false,
          "internalType": "address",
          "name": "newOperator",
          "type": "address"
        }
      ],
      "name": "SetOperatorEvent",
      "type": "event"
    },
    {
      "anonymous": false,
      "inputs": [
        {
          "indexed": false,
          "internalType": "address",
          "name": "wallet",
          "type": "address"
        },
        {
          "indexed": false,
          "internalType": "contract Beneficiary",
          "name": "beneficiary",
          "type": "address"
        },
        {
          "indexed": false,
          "internalType": "address",
          "name": "destination",
          "type": "address"
        },
        {
          "components": [
            {
              "internalType": "address",
              "name": "ct",
              "type": "address"
            },
            {
              "internalType": "uint256",
              "name": "id",
              "type": "uint256"
            }
          ],
          "indexed": false,
          "internalType": "struct MonetaryTypesLib.Currency",
          "name": "currency",
          "type": "tuple"
        },
        {
          "components": [
            {
              "internalType": "uint256",
              "name": "nonce",
              "type": "uint256"
            },
            {
              "internalType": "int256",
              "name": "amount",
              "type": "int256"
            }
          ],
          "indexed": false,
          "internalType": "struct MonetaryTypesLib.NoncedAmount",
          "name": "totalFee",
          "type": "tuple"
        }
      ],
      "name": "SetTotalFeeEvent",
      "type": "event"
    },
    {
      "anonymous": false,
      "inputs": [
        {
          "indexed": false,
          "internalType": "address",
          "name": "upgradeAgent",
          "type": "address"
        }
      ],
      "name": "SetUpgradeAgentEvent",
      "type": "event"
    },
    {
      "anonymous": false,
      "inputs": [
        {
          "indexed": false,
          "internalType": "address",
          "name": "wallet",
          "type": "address"
        }
      ],
      "name": "TriggerSelfDestructionEvent",
      "type": "event"
    },
    {
      "anonymous": false,
      "inputs": [
        {
          "indexed": false,
          "internalType": "uint256",
          "name": "maxDriipNonce",
          "type": "uint256"
        }
      ],
      "name": "UpdateMaxDriipNonceFromCommunityVoteEvent",
      "type": "event"
    },
    {
      "anonymous": false,
      "inputs": [
        {
          "indexed": false,
          "internalType": "address",
          "name": "wallet",
          "type": "address"
        },
        {
          "indexed": false,
          "internalType": "int256",
          "name": "amount",
          "type": "int256"
        },
        {
          "components": [
            {
              "internalType": "address",
              "name": "ct",
              "type": "address"
            },
            {
              "internalType": "uint256",
              "name": "id",
              "type": "uint256"
            }
          ],
          "indexed": false,
          "internalType": "struct MonetaryTypesLib.Currency",
          "name": "currency",
          "type": "tuple"
        },
        {
          "indexed": false,
          "internalType": "uint256",
          "name": "blockNumber",
          "type": "uint256"
        }
      ],
      "name": "UpgradeSettledAmountEvent",
      "type": "event"
    },
    {
      "anonymous": false,
      "inputs": [
        {
          "components": [
            {
              "internalType": "string",
              "name": "settledKind",
              "type": "string"
            },
            {
              "internalType": "bytes32",
              "name": "settledHash",
              "type": "bytes32"
            },
            {
              "components": [
                {
                  "internalType": "uint256",
                  "name": "nonce",
                  "type": "uint256"
                },
                {
                  "internalType": "address",
                  "name": "wallet",
                  "type": "address"
                },
                {
                  "internalType": "uint256",
                  "name": "doneBlockNumber",
                  "type": "uint256"
                }
              ],
              "internalType": "struct DriipSettlementTypesLib.SettlementParty",
              "name": "origin",
              "type": "tuple"
            },
            {
              "components": [
                {
                  "internalType": "uint256",
                  "name": "nonce",
                  "type": "uint256"
                },
                {
                  "internalType": "address",
                  "name": "wallet",
                  "type": "address"
                },
                {
                  "internalType": "uint256",
                  "name": "doneBlockNumber",
                  "type": "uint256"
                }
              ],
              "internalType": "struct DriipSettlementTypesLib.SettlementParty",
              "name": "target",
              "type": "tuple"
            }
          ],
          "indexed": false,
          "internalType": "struct DriipSettlementTypesLib.Settlement",
          "name": "settlement",
          "type": "tuple"
        }
      ],
      "name": "UpgradeSettlementEvent",
      "type": "event"
    },
    {
      "constant": true,
      "inputs": [],
      "name": "ADD_SETTLED_AMOUNT_ACTION",
      "outputs": [
        {
          "internalType": "string",
          "name": "",
          "type": "string"
        }
      ],
      "payable": false,
      "stateMutability": "view",
      "type": "function"
    },
    {
      "constant": true,
      "inputs": [],
      "name": "COMPLETE_SETTLEMENT_ACTION",
      "outputs": [
        {
          "internalType": "string",
          "name": "",
          "type": "string"
        }
      ],
      "payable": false,
      "stateMutability": "view",
      "type": "function"
    },
    {
      "constant": true,
      "inputs": [],
      "name": "INIT_SETTLEMENT_ACTION",
      "outputs": [
        {
          "internalType": "string",
          "name": "",
          "type": "string"
        }
      ],
      "payable": false,
      "stateMutability": "view",
      "type": "function"
    },
    {
      "constant": true,
      "inputs": [],
      "name": "SET_MAX_NONCE_ACTION",
      "outputs": [
        {
          "internalType": "string",
          "name": "",
          "type": "string"
        }
      ],
      "payable": false,
      "stateMutability": "view",
      "type": "function"
    },
    {
      "constant": true,
      "inputs": [],
      "name": "SET_TOTAL_FEE_ACTION",
      "outputs": [
        {
          "internalType": "string",
          "name": "",
          "type": "string"
        }
      ],
      "payable": false,
      "stateMutability": "view",
      "type": "function"
    },
    {
      "constant": true,
      "inputs": [],
      "name": "communityVote",
      "outputs": [
        {
          "internalType": "contract CommunityVote",
          "name": "",
          "type": "address"
        }
      ],
      "payable": false,
      "stateMutability": "view",
      "type": "function"
    },
    {
      "constant": true,
      "inputs": [],
      "name": "communityVoteFrozen",
      "outputs": [
        {
          "internalType": "bool",
          "name": "",
          "type": "bool"
        }
      ],
      "payable": false,
      "stateMutability": "view",
      "type": "function"
    },
    {
      "constant": true,
      "inputs": [],
      "name": "deployer",
      "outputs": [
        {
          "internalType": "address",
          "name": "",
          "type": "address"
        }
      ],
      "payable": false,
      "stateMutability": "view",
      "type": "function"
    },
    {
      "constant": false,
      "inputs": [
        {
          "internalType": "address",
          "name": "service",
          "type": "address"
        }
      ],
      "name": "deregisterService",
      "outputs": [],
      "payable": false,
      "stateMutability": "nonpayable",
      "type": "function"
    },
    {
      "constant": true,
      "inputs": [],
      "name": "destructor",
      "outputs": [
        {
          "internalType": "address",
          "name": "",
          "type": "address"
        }
      ],
      "payable": false,
      "stateMutability": "view",
      "type": "function"
    },
    {
      "constant": false,
      "inputs": [],
      "name": "disableSelfDestruction",
      "outputs": [],
      "payable": false,
      "stateMutability": "nonpayable",
      "type": "function"
    },
    {
      "constant": false,
      "inputs": [
        {
          "internalType": "address",
          "name": "service",
          "type": "address"
        },
        {
          "internalType": "string",
          "name": "action",
          "type": "string"
        }
      ],
      "name": "disableServiceAction",
      "outputs": [],
      "payable": false,
      "stateMutability": "nonpayable",
      "type": "function"
    },
    {
      "constant": false,
      "inputs": [
        {
          "internalType": "address",
          "name": "service",
          "type": "address"
        },
        {
          "internalType": "string",
          "name": "action",
          "type": "string"
        }
      ],
      "name": "enableServiceAction",
      "outputs": [],
      "payable": false,
      "stateMutability": "nonpayable",
      "type": "function"
    },
    {
      "constant": false,
      "inputs": [],
      "name": "freezeCommunityVote",
      "outputs": [],
      "payable": false,
      "stateMutability": "nonpayable",
      "type": "function"
    },
    {
      "constant": false,
      "inputs": [],
      "name": "freezeUpgrades",
      "outputs": [],
      "payable": false,
      "stateMutability": "nonpayable",
      "type": "function"
    },
    {
      "constant": true,
      "inputs": [
        {
          "internalType": "address",
          "name": "service",
          "type": "address"
        },
        {
          "internalType": "string",
          "name": "action",
          "type": "string"
        }
      ],
      "name": "isEnabledServiceAction",
      "outputs": [
        {
          "internalType": "bool",
          "name": "",
          "type": "bool"
        }
      ],
      "payable": false,
      "stateMutability": "view",
      "type": "function"
    },
    {
      "constant": true,
      "inputs": [
        {
          "internalType": "address",
          "name": "service",
          "type": "address"
        }
      ],
      "name": "isRegisteredActiveService",
      "outputs": [
        {
          "internalType": "bool",
          "name": "",
          "type": "bool"
        }
      ],
      "payable": false,
      "stateMutability": "view",
      "type": "function"
    },
    {
      "constant": true,
      "inputs": [
        {
          "internalType": "address",
          "name": "service",
          "type": "address"
        }
      ],
      "name": "isRegisteredService",
      "outputs": [
        {
          "internalType": "bool",
          "name": "",
          "type": "bool"
        }
      ],
      "payable": false,
      "stateMutability": "view",
      "type": "function"
    },
    {
      "constant": true,
      "inputs": [],
      "name": "maxDriipNonce",
      "outputs": [
        {
          "internalType": "uint256",
          "name": "",
          "type": "uint256"
        }
      ],
      "payable": false,
      "stateMutability": "view",
      "type": "function"
    },
    {
      "constant": true,
      "inputs": [],
      "name": "operator",
      "outputs": [
        {
          "internalType": "address",
          "name": "",
          "type": "address"
        }
      ],
      "payable": false,
      "stateMutability": "view",
      "type": "function"
    },
    {
      "constant": false,
      "inputs": [
        {
          "internalType": "address",
          "name": "service",
          "type": "address"
        }
      ],
      "name": "registerService",
      "outputs": [],
      "payable": false,
      "stateMutability": "nonpayable",
      "type": "function"
    },
    {
      "constant": false,
      "inputs": [
        {
          "internalType": "address",
          "name": "service",
          "type": "address"
        }
      ],
      "name": "registerServiceDeferred",
      "outputs": [],
      "payable": false,
      "stateMutability": "nonpayable",
      "type": "function"
    },
    {
      "constant": true,
      "inputs": [],
      "name": "selfDestructionDisabled",
      "outputs": [
        {
          "internalType": "bool",
          "name": "",
          "type": "bool"
        }
      ],
      "payable": false,
      "stateMutability": "view",
      "type": "function"
    },
    {
      "constant": true,
      "inputs": [],
      "name": "serviceActivationTimeout",
      "outputs": [
        {
          "internalType": "uint256",
          "name": "",
          "type": "uint256"
        }
      ],
      "payable": false,
      "stateMutability": "view",
      "type": "function"
    },
    {
      "constant": false,
      "inputs": [
        {
          "internalType": "contract CommunityVote",
          "name": "newCommunityVote",
          "type": "address"
        }
      ],
      "name": "setCommunityVote",
      "outputs": [],
      "payable": false,
      "stateMutability": "nonpayable",
      "type": "function"
    },
    {
      "constant": false,
      "inputs": [
        {
          "internalType": "address",
          "name": "newDeployer",
          "type": "address"
        }
      ],
      "name": "setDeployer",
      "outputs": [],
      "payable": false,
      "stateMutability": "nonpayable",
      "type": "function"
    },
    {
      "constant": false,
      "inputs": [
        {
          "internalType": "address",
          "name": "newOperator",
          "type": "address"
        }
      ],
      "name": "setOperator",
      "outputs": [],
      "payable": false,
      "stateMutability": "nonpayable",
      "type": "function"
    },
    {
      "constant": false,
      "inputs": [
        {
          "internalType": "uint256",
          "name": "timeoutInSeconds",
          "type": "uint256"
        }
      ],
      "name": "setServiceActivationTimeout",
      "outputs": [],
      "payable": false,
      "stateMutability": "nonpayable",
      "type": "function"
    },
    {
      "constant": false,
      "inputs": [
        {
          "internalType": "address",
          "name": "_upgradeAgent",
          "type": "address"
        }
      ],
      "name": "setUpgradeAgent",
      "outputs": [],
      "payable": false,
      "stateMutability": "nonpayable",
      "type": "function"
    },
    {
      "constant": true,
      "inputs": [
        {
          "internalType": "uint256",
          "name": "",
          "type": "uint256"
        }
      ],
      "name": "settlements",
      "outputs": [
        {
          "internalType": "string",
          "name": "settledKind",
          "type": "string"
        },
        {
          "internalType": "bytes32",
          "name": "settledHash",
          "type": "bytes32"
        },
        {
          "components": [
            {
              "internalType": "uint256",
              "name": "nonce",
              "type": "uint256"
            },
            {
              "internalType": "address",
              "name": "wallet",
              "type": "address"
            },
            {
              "internalType": "uint256",
              "name": "doneBlockNumber",
              "type": "uint256"
            }
          ],
          "internalType": "struct DriipSettlementTypesLib.SettlementParty",
          "name": "origin",
          "type": "tuple"
        },
        {
          "components": [
            {
              "internalType": "uint256",
              "name": "nonce",
              "type": "uint256"
            },
            {
              "internalType": "address",
              "name": "wallet",
              "type": "address"
            },
            {
              "internalType": "uint256",
              "name": "doneBlockNumber",
              "type": "uint256"
            }
          ],
          "internalType": "struct DriipSettlementTypesLib.SettlementParty",
          "name": "target",
          "type": "tuple"
        }
      ],
      "payable": false,
      "stateMutability": "view",
      "type": "function"
    },
    {
      "constant": true,
      "inputs": [
        {
          "internalType": "address",
          "name": "",
          "type": "address"
        },
        {
          "internalType": "address",
          "name": "",
          "type": "address"
        },
        {
          "internalType": "address",
          "name": "",
          "type": "address"
        },
        {
          "internalType": "address",
          "name": "",
          "type": "address"
        },
        {
          "internalType": "uint256",
          "name": "",
          "type": "uint256"
        }
      ],
      "name": "totalFeesMap",
      "outputs": [
        {
          "internalType": "uint256",
          "name": "nonce",
          "type": "uint256"
        },
        {
          "internalType": "int256",
          "name": "amount",
          "type": "int256"
        }
      ],
      "payable": false,
      "stateMutability": "view",
      "type": "function"
    },
    {
      "constant": false,
      "inputs": [],
      "name": "triggerSelfDestruction",
      "outputs": [],
      "payable": false,
      "stateMutability": "nonpayable",
      "type": "function"
    },
    {
      "constant": true,
      "inputs": [],
      "name": "upgradeAgent",
      "outputs": [
        {
          "internalType": "address",
          "name": "",
          "type": "address"
        }
      ],
      "payable": false,
      "stateMutability": "view",
      "type": "function"
    },
    {
      "constant": true,
      "inputs": [],
      "name": "upgradesFrozen",
      "outputs": [
        {
          "internalType": "bool",
          "name": "",
          "type": "bool"
        }
      ],
      "payable": false,
      "stateMutability": "view",
      "type": "function"
    },
    {
      "constant": true,
      "inputs": [
        {
          "internalType": "address",
          "name": "",
          "type": "address"
        },
        {
          "internalType": "address",
          "name": "",
          "type": "address"
        },
        {
          "internalType": "uint256",
          "name": "",
          "type": "uint256"
        },
        {
          "internalType": "uint256",
          "name": "",
          "type": "uint256"
        }
      ],
      "name": "walletCurrencyBlockNumberSettledAmount",
      "outputs": [
        {
          "internalType": "int256",
          "name": "",
          "type": "int256"
        }
      ],
      "payable": false,
      "stateMutability": "view",
      "type": "function"
    },
    {
      "constant": true,
      "inputs": [
        {
          "internalType": "address",
          "name": "",
          "type": "address"
        },
        {
          "internalType": "address",
          "name": "",
          "type": "address"
        },
        {
          "internalType": "uint256",
          "name": "",
          "type": "uint256"
        }
      ],
      "name": "walletCurrencyMaxNonce",
      "outputs": [
        {
          "internalType": "uint256",
          "name": "",
          "type": "uint256"
        }
      ],
      "payable": false,
      "stateMutability": "view",
      "type": "function"
    },
    {
      "constant": true,
      "inputs": [
        {
          "internalType": "address",
          "name": "",
          "type": "address"
        },
        {
          "internalType": "address",
          "name": "",
          "type": "address"
        },
        {
          "internalType": "uint256",
          "name": "",
          "type": "uint256"
        },
        {
          "internalType": "uint256",
          "name": "",
          "type": "uint256"
        }
      ],
      "name": "walletCurrencySettledBlockNumbers",
      "outputs": [
        {
          "internalType": "uint256",
          "name": "",
          "type": "uint256"
        }
      ],
      "payable": false,
      "stateMutability": "view",
      "type": "function"
    },
    {
      "constant": true,
      "inputs": [
        {
          "internalType": "address",
          "name": "",
          "type": "address"
        },
        {
          "internalType": "uint256",
          "name": "",
          "type": "uint256"
        }
      ],
      "name": "walletNonceSettlementIndex",
      "outputs": [
        {
          "internalType": "uint256",
          "name": "",
          "type": "uint256"
        }
      ],
      "payable": false,
      "stateMutability": "view",
      "type": "function"
    },
    {
      "constant": true,
      "inputs": [
        {
          "internalType": "address",
          "name": "",
          "type": "address"
        },
        {
          "internalType": "uint256",
          "name": "",
          "type": "uint256"
        }
      ],
      "name": "walletSettlementIndices",
      "outputs": [
        {
          "internalType": "uint256",
          "name": "",
          "type": "uint256"
        }
      ],
      "payable": false,
      "stateMutability": "view",
      "type": "function"
    },
    {
      "constant": true,
      "inputs": [],
      "name": "settlementsCount",
      "outputs": [
        {
          "internalType": "uint256",
          "name": "",
          "type": "uint256"
        }
      ],
      "payable": false,
      "stateMutability": "view",
      "type": "function"
    },
    {
      "constant": true,
      "inputs": [
        {
          "internalType": "address",
          "name": "wallet",
          "type": "address"
        }
      ],
      "name": "settlementsCountByWallet",
      "outputs": [
        {
          "internalType": "uint256",
          "name": "",
          "type": "uint256"
        }
      ],
      "payable": false,
      "stateMutability": "view",
      "type": "function"
    },
    {
      "constant": true,
      "inputs": [
        {
          "internalType": "address",
          "name": "wallet",
          "type": "address"
        },
        {
          "internalType": "uint256",
          "name": "index",
          "type": "uint256"
        }
      ],
      "name": "settlementByWalletAndIndex",
      "outputs": [
        {
          "components": [
            {
              "internalType": "string",
              "name": "settledKind",
              "type": "string"
            },
            {
              "internalType": "bytes32",
              "name": "settledHash",
              "type": "bytes32"
            },
            {
              "components": [
                {
                  "internalType": "uint256",
                  "name": "nonce",
                  "type": "uint256"
                },
                {
                  "internalType": "address",
                  "name": "wallet",
                  "type": "address"
                },
                {
                  "internalType": "uint256",
                  "name": "doneBlockNumber",
                  "type": "uint256"
                }
              ],
              "internalType": "struct DriipSettlementTypesLib.SettlementParty",
              "name": "origin",
              "type": "tuple"
            },
            {
              "components": [
                {
                  "internalType": "uint256",
                  "name": "nonce",
                  "type": "uint256"
                },
                {
                  "internalType": "address",
                  "name": "wallet",
                  "type": "address"
                },
                {
                  "internalType": "uint256",
                  "name": "doneBlockNumber",
                  "type": "uint256"
                }
              ],
              "internalType": "struct DriipSettlementTypesLib.SettlementParty",
              "name": "target",
              "type": "tuple"
            }
          ],
          "internalType": "struct DriipSettlementTypesLib.Settlement",
          "name": "",
          "type": "tuple"
        }
      ],
      "payable": false,
      "stateMutability": "view",
      "type": "function"
    },
    {
      "constant": true,
      "inputs": [
        {
          "internalType": "address",
          "name": "wallet",
          "type": "address"
        },
        {
          "internalType": "uint256",
          "name": "nonce",
          "type": "uint256"
        }
      ],
      "name": "settlementByWalletAndNonce",
      "outputs": [
        {
          "components": [
            {
              "internalType": "string",
              "name": "settledKind",
              "type": "string"
            },
            {
              "internalType": "bytes32",
              "name": "settledHash",
              "type": "bytes32"
            },
            {
              "components": [
                {
                  "internalType": "uint256",
                  "name": "nonce",
                  "type": "uint256"
                },
                {
                  "internalType": "address",
                  "name": "wallet",
                  "type": "address"
                },
                {
                  "internalType": "uint256",
                  "name": "doneBlockNumber",
                  "type": "uint256"
                }
              ],
              "internalType": "struct DriipSettlementTypesLib.SettlementParty",
              "name": "origin",
              "type": "tuple"
            },
            {
              "components": [
                {
                  "internalType": "uint256",
                  "name": "nonce",
                  "type": "uint256"
                },
                {
                  "internalType": "address",
                  "name": "wallet",
                  "type": "address"
                },
                {
                  "internalType": "uint256",
                  "name": "doneBlockNumber",
                  "type": "uint256"
                }
              ],
              "internalType": "struct DriipSettlementTypesLib.SettlementParty",
              "name": "target",
              "type": "tuple"
            }
          ],
          "internalType": "struct DriipSettlementTypesLib.Settlement",
          "name": "",
          "type": "tuple"
        }
      ],
      "payable": false,
      "stateMutability": "view",
      "type": "function"
    },
    {
      "constant": false,
      "inputs": [
        {
          "internalType": "string",
          "name": "settledKind",
          "type": "string"
        },
        {
          "internalType": "bytes32",
          "name": "settledHash",
          "type": "bytes32"
        },
        {
          "internalType": "address",
          "name": "originWallet",
          "type": "address"
        },
        {
          "internalType": "uint256",
          "name": "originNonce",
          "type": "uint256"
        },
        {
          "internalType": "address",
          "name": "targetWallet",
          "type": "address"
        },
        {
          "internalType": "uint256",
          "name": "targetNonce",
          "type": "uint256"
        }
      ],
      "name": "initSettlement",
      "outputs": [],
      "payable": false,
      "stateMutability": "nonpayable",
      "type": "function"
    },
    {
      "constant": false,
      "inputs": [
        {
          "internalType": "address",
          "name": "wallet",
          "type": "address"
        },
        {
          "internalType": "uint256",
          "name": "nonce",
          "type": "uint256"
        },
        {
          "internalType": "enum DriipSettlementTypesLib.SettlementRole",
          "name": "settlementRole",
          "type": "uint8"
        },
        {
          "internalType": "bool",
          "name": "done",
          "type": "bool"
        }
      ],
      "name": "completeSettlement",
      "outputs": [],
      "payable": false,
      "stateMutability": "nonpayable",
      "type": "function"
    },
    {
      "constant": true,
      "inputs": [
        {
          "internalType": "address",
          "name": "wallet",
          "type": "address"
        },
        {
          "internalType": "uint256",
          "name": "nonce",
          "type": "uint256"
        },
        {
          "internalType": "enum DriipSettlementTypesLib.SettlementRole",
          "name": "settlementRole",
          "type": "uint8"
        }
      ],
      "name": "isSettlementPartyDone",
      "outputs": [
        {
          "internalType": "bool",
          "name": "",
          "type": "bool"
        }
      ],
      "payable": false,
      "stateMutability": "view",
      "type": "function"
    },
    {
      "constant": true,
      "inputs": [
        {
          "internalType": "address",
          "name": "wallet",
          "type": "address"
        },
        {
          "internalType": "uint256",
          "name": "nonce",
          "type": "uint256"
        }
      ],
      "name": "isSettlementPartyDone",
      "outputs": [
        {
          "internalType": "bool",
          "name": "",
          "type": "bool"
        }
      ],
      "payable": false,
      "stateMutability": "view",
      "type": "function"
    },
    {
      "constant": true,
      "inputs": [
        {
          "internalType": "address",
          "name": "wallet",
          "type": "address"
        },
        {
          "internalType": "uint256",
          "name": "nonce",
          "type": "uint256"
        }
      ],
      "name": "settlementPartyDoneBlockNumber",
      "outputs": [
        {
          "internalType": "uint256",
          "name": "",
          "type": "uint256"
        }
      ],
      "payable": false,
      "stateMutability": "view",
      "type": "function"
    },
    {
      "constant": true,
      "inputs": [
        {
          "internalType": "address",
          "name": "wallet",
          "type": "address"
        },
        {
          "internalType": "uint256",
          "name": "nonce",
          "type": "uint256"
        },
        {
          "internalType": "enum DriipSettlementTypesLib.SettlementRole",
          "name": "settlementRole",
          "type": "uint8"
        }
      ],
      "name": "settlementPartyDoneBlockNumber",
      "outputs": [
        {
          "internalType": "uint256",
          "name": "",
          "type": "uint256"
        }
      ],
      "payable": false,
      "stateMutability": "view",
      "type": "function"
    },
    {
      "constant": false,
      "inputs": [
        {
          "internalType": "uint256",
          "name": "_maxDriipNonce",
          "type": "uint256"
        }
      ],
      "name": "setMaxDriipNonce",
      "outputs": [],
      "payable": false,
      "stateMutability": "nonpayable",
      "type": "function"
    },
    {
      "constant": false,
      "inputs": [],
      "name": "updateMaxDriipNonceFromCommunityVote",
      "outputs": [],
      "payable": false,
      "stateMutability": "nonpayable",
      "type": "function"
    },
    {
      "constant": true,
      "inputs": [
        {
          "internalType": "address",
          "name": "wallet",
          "type": "address"
        },
        {
          "components": [
            {
              "internalType": "address",
              "name": "ct",
              "type": "address"
            },
            {
              "internalType": "uint256",
              "name": "id",
              "type": "uint256"
            }
          ],
          "internalType": "struct MonetaryTypesLib.Currency",
          "name": "currency",
          "type": "tuple"
        }
      ],
      "name": "maxNonceByWalletAndCurrency",
      "outputs": [
        {
          "internalType": "uint256",
          "name": "",
          "type": "uint256"
        }
      ],
      "payable": false,
      "stateMutability": "view",
      "type": "function"
    },
    {
      "constant": false,
      "inputs": [
        {
          "internalType": "address",
          "name": "wallet",
          "type": "address"
        },
        {
          "components": [
            {
              "internalType": "address",
              "name": "ct",
              "type": "address"
            },
            {
              "internalType": "uint256",
              "name": "id",
              "type": "uint256"
            }
          ],
          "internalType": "struct MonetaryTypesLib.Currency",
          "name": "currency",
          "type": "tuple"
        },
        {
          "internalType": "uint256",
          "name": "maxNonce",
          "type": "uint256"
        }
      ],
      "name": "setMaxNonceByWalletAndCurrency",
      "outputs": [],
      "payable": false,
      "stateMutability": "nonpayable",
      "type": "function"
    },
    {
      "constant": true,
      "inputs": [
        {
          "internalType": "address",
          "name": "wallet",
          "type": "address"
        },
        {
          "components": [
            {
              "internalType": "address",
              "name": "ct",
              "type": "address"
            },
            {
              "internalType": "uint256",
              "name": "id",
              "type": "uint256"
            }
          ],
          "internalType": "struct MonetaryTypesLib.Currency",
          "name": "currency",
          "type": "tuple"
        }
      ],
      "name": "settledBlockNumbersCount",
      "outputs": [
        {
          "internalType": "uint256",
          "name": "",
          "type": "uint256"
        }
      ],
      "payable": false,
      "stateMutability": "view",
      "type": "function"
    },
    {
      "constant": true,
      "inputs": [
        {
          "internalType": "address",
          "name": "wallet",
          "type": "address"
        },
        {
          "components": [
            {
              "internalType": "address",
              "name": "ct",
              "type": "address"
            },
            {
              "internalType": "uint256",
              "name": "id",
              "type": "uint256"
            }
          ],
          "internalType": "struct MonetaryTypesLib.Currency",
          "name": "currency",
          "type": "tuple"
        },
        {
          "internalType": "uint256",
          "name": "blockNumber",
          "type": "uint256"
        }
      ],
      "name": "settledAmountByBlockNumber",
      "outputs": [
        {
          "internalType": "int256",
          "name": "",
          "type": "int256"
        }
      ],
      "payable": false,
      "stateMutability": "view",
      "type": "function"
    },
    {
      "constant": false,
      "inputs": [
        {
          "internalType": "address",
          "name": "wallet",
          "type": "address"
        },
        {
          "internalType": "int256",
          "name": "amount",
          "type": "int256"
        },
        {
          "components": [
            {
              "internalType": "address",
              "name": "ct",
              "type": "address"
            },
            {
              "internalType": "uint256",
              "name": "id",
              "type": "uint256"
            }
          ],
          "internalType": "struct MonetaryTypesLib.Currency",
          "name": "currency",
          "type": "tuple"
        },
        {
          "internalType": "uint256",
          "name": "blockNumber",
          "type": "uint256"
        }
      ],
      "name": "addSettledAmountByBlockNumber",
      "outputs": [],
      "payable": false,
      "stateMutability": "nonpayable",
      "type": "function"
    },
    {
      "constant": true,
      "inputs": [
        {
          "internalType": "address",
          "name": "wallet",
          "type": "address"
        },
        {
          "internalType": "contract Beneficiary",
          "name": "beneficiary",
          "type": "address"
        },
        {
          "internalType": "address",
          "name": "destination",
          "type": "address"
        },
        {
          "components": [
            {
              "internalType": "address",
              "name": "ct",
              "type": "address"
            },
            {
              "internalType": "uint256",
              "name": "id",
              "type": "uint256"
            }
          ],
          "internalType": "struct MonetaryTypesLib.Currency",
          "name": "currency",
          "type": "tuple"
        }
      ],
      "name": "totalFee",
      "outputs": [
        {
          "components": [
            {
              "internalType": "uint256",
              "name": "nonce",
              "type": "uint256"
            },
            {
              "internalType": "int256",
              "name": "amount",
              "type": "int256"
            }
          ],
          "internalType": "struct MonetaryTypesLib.NoncedAmount",
          "name": "",
          "type": "tuple"
        }
      ],
      "payable": false,
      "stateMutability": "view",
      "type": "function"
    },
    {
      "constant": false,
      "inputs": [
        {
          "internalType": "address",
          "name": "wallet",
          "type": "address"
        },
        {
          "internalType": "contract Beneficiary",
          "name": "beneficiary",
          "type": "address"
        },
        {
          "internalType": "address",
          "name": "destination",
          "type": "address"
        },
        {
          "components": [
            {
              "internalType": "address",
              "name": "ct",
              "type": "address"
            },
            {
              "internalType": "uint256",
              "name": "id",
              "type": "uint256"
            }
          ],
          "internalType": "struct MonetaryTypesLib.Currency",
          "name": "currency",
          "type": "tuple"
        },
        {
          "components": [
            {
              "internalType": "uint256",
              "name": "nonce",
              "type": "uint256"
            },
            {
              "internalType": "int256",
              "name": "amount",
              "type": "int256"
            }
          ],
          "internalType": "struct MonetaryTypesLib.NoncedAmount",
          "name": "_totalFee",
          "type": "tuple"
        }
      ],
      "name": "setTotalFee",
      "outputs": [],
      "payable": false,
      "stateMutability": "nonpayable",
      "type": "function"
    },
    {
      "constant": false,
      "inputs": [
        {
          "components": [
            {
              "internalType": "string",
              "name": "settledKind",
              "type": "string"
            },
            {
              "internalType": "bytes32",
              "name": "settledHash",
              "type": "bytes32"
            },
            {
              "components": [
                {
                  "internalType": "uint256",
                  "name": "nonce",
                  "type": "uint256"
                },
                {
                  "internalType": "address",
                  "name": "wallet",
                  "type": "address"
                },
                {
                  "internalType": "uint256",
                  "name": "doneBlockNumber",
                  "type": "uint256"
                }
              ],
              "internalType": "struct DriipSettlementTypesLib.SettlementParty",
              "name": "origin",
              "type": "tuple"
            },
            {
              "components": [
                {
                  "internalType": "uint256",
                  "name": "nonce",
                  "type": "uint256"
                },
                {
                  "internalType": "address",
                  "name": "wallet",
                  "type": "address"
                },
                {
                  "internalType": "uint256",
                  "name": "doneBlockNumber",
                  "type": "uint256"
                }
              ],
              "internalType": "struct DriipSettlementTypesLib.SettlementParty",
              "name": "target",
              "type": "tuple"
            }
          ],
          "internalType": "struct DriipSettlementTypesLib.Settlement",
          "name": "settlement",
          "type": "tuple"
        }
      ],
      "name": "upgradeSettlement",
      "outputs": [],
      "payable": false,
      "stateMutability": "nonpayable",
      "type": "function"
    },
    {
      "constant": false,
      "inputs": [
        {
          "internalType": "address",
          "name": "wallet",
          "type": "address"
        },
        {
          "internalType": "int256",
          "name": "amount",
          "type": "int256"
        },
        {
          "components": [
            {
              "internalType": "address",
              "name": "ct",
              "type": "address"
            },
            {
              "internalType": "uint256",
              "name": "id",
              "type": "uint256"
            }
          ],
          "internalType": "struct MonetaryTypesLib.Currency",
          "name": "currency",
          "type": "tuple"
        },
        {
          "internalType": "uint256",
          "name": "blockNumber",
          "type": "uint256"
        }
      ],
      "name": "upgradeSettledAmount",
      "outputs": [],
      "payable": false,
      "stateMutability": "nonpayable",
      "type": "function"
    }
  ],
  "bytecode": "0x60806040523480156200001157600080fd5b5060405162003e6938038062003e698339810160408190526200003491620000b3565b80806001600160a01b0381166200004a57600080fd5b6001600160a01b0381163014156200006157600080fd5b5060008054610100600160a81b0319166101006001600160a01b0393909316928302179055600180546001600160a01b03191690911790555062000108565b8051620000ad81620000ee565b92915050565b600060208284031215620000c657600080fd5b6000620000d48484620000a0565b949350505050565b60006001600160a01b038216620000ad565b620000f981620000dc565b81146200010557600080fd5b50565b613d5180620001186000396000f3fe608060405234801561001057600080fd5b50600436106102b45760003560e01c8063035727e4146102b9578063070478be146102e257806308df7dc8146102f75780630cecc0f81461031a5780630d6859f51461032f5780631423ba3814610342578063152d07311461035557806317ba3f901461035d5780632738a1121461037d5780632b5672e3146103855780632b91e0a9146103985780632f013a00146103ab5780633858654b146103b35780633b58c501146103c65780633b7bea6c146103d95780633fd6832d146103e15780634476d23b1461040257806348fcb72c1461041757806349c5615e1461042a57806350b08c021461043d578063570ca7351461045057806359b98fc6146104585780635de4ccb0146104605780635df1b0a314610468578063670732a71461047b5780636d439372146104835780636e17226a1461048b57806370327ea1146104ab5780637657768c146104b357806379afbe95146104c65780637e15dd5c146104d95780637fe67a10146104ec57806387725313146104f4578063897d36aa146105075780638c6913bc1461050f5780638e8cef12146105175780638e9d6cbd1461052a57806392f7bd7b1461053257806396214735146105455780639f0ac85014610558578063a56a41591461056b578063b3ab15fb1461057e578063ba316f4a14610591578063bc8dd4cd14610599578063bf24e7d0146105ac578063c0ffe1b4146105c1578063c49bde2d146105e1578063c5018bca146105e9578063ce484c4a146105fc578063d2f089361461060f578063d5f3948814610622578063d66c52911461062a578063d7e7088a1461063d578063e02e64ff14610650578063e86ab8f614610658578063e8bec62b1461066b578063f345fb441461067e578063f8eabcc114610691578063fb721b53146106a4578063fdd9ec7d146106b7575b600080fd5b6102cc6102c7366004612c4a565b6106ca565b6040516102d9919061398b565b60405180910390f35b6102f56102f0366004613004565b610712565b005b61030a610305366004613038565b61098a565b6040516102d994939291906139aa565b610322610a9d565b6040516102d99190613999565b6102cc61033d366004612e0e565b610ac6565b6102f5610350366004612e3e565b610b00565b6102f5610bb0565b61037061036b366004612b6a565b610c42565b6040516102d99190613954565b6102f5610c7c565b6102f5610393366004612dbd565b610ce2565b6103706103a6366004612b6a565b610dfc565b610370610e1a565b6102cc6103c1366004612e0e565b610e23565b6102f56103d4366004612dbd565b610e5b565b6102cc610f35565b6103f46103ef366004612b88565b610f3b565b6040516102d9929190613b05565b61040a610f76565b6040516102d991906137fb565b6102f5610425366004613038565b610f8b565b6102cc610438366004612e81565b610ff9565b6102f561044b366004612b6a565b6110c8565b61040a611178565b6102f5611187565b61040a61125d565b610370610476366004612dbd565b61126c565b6102f56112bc565b61037061130b565b61049e610499366004612cab565b61131b565b6040516102d99190613ad5565b6102f5611389565b6102f56104c1366004612d00565b6113ec565b6102f56104d4366004612d68565b6114c2565b6102f56104e7366004613038565b611614565b61032261165a565b6102f5610502366004612f67565b611688565b6102cc611934565b6102cc61193a565b6102f5610525366004612b6a565b611940565b6103706119ba565b6102cc610540366004612e81565b6119ca565b6102f5610553366004612b6a565b6119f8565b610370610566366004612eb1565b611ab8565b6102cc610579366004612eb1565b611b89565b6102f561058c366004612b6a565b611c64565b610322611d07565b6102cc6105a7366004612e3e565b611d30565b6105b4611d80565b6040516102d99190613962565b6105d46105cf366004612e81565b611d8f565b6040516102d99190613ae3565b610322611f2d565b6103706105f7366004612e81565b611f5c565b6102cc61060a366004612c4a565b612021565b6105d461061d366004612e81565b61204d565b61040a6120cc565b6102cc610638366004612e81565b6120e0565b6102f561064b366004612b6a565b6120fd565b6103226121a1565b6102f5610666366004612f49565b6121cc565b6102cc610679366004612bfd565b612297565b6102cc61068c366004612b6a565b6122ba565b6102f561069f366004612ef4565b6122d5565b6102f56106b2366004612d68565b61240d565b6102f56106c5366004612b6a565b61254e565b600c60205283600052604060002060205282600052604060002060205281600052604060002081815481106106fb57fe5b906000526020600020016000935093505050505481565b6005546001600160a01b031633146107455760405162461bcd60e51b815260040161073c90613a85565b60405180910390fd5b600554600160a01b900460ff161561076f5760405162461bcd60e51b815260040161073c90613a25565b604080820180516020908101516001600160a01b031660009081526009825283812092515181529190522054156107b85760405162461bcd60e51b815260040161073c90613a75565b6060810180516020908101516001600160a01b031660009081526009825260408082209351518252929091522054156108035760405162461bcd60e51b815260040161073c90613a95565b60078054600181018083556000929092528251805184926008027fa66cc928b5edb82af9bd49922954155ab7b0942694bea4ce44661d9a8736c688019161084f91839160200190612796565b5060208281015160018381019190915560408085015180516002860155808401516003860180546001600160a01b03199081166001600160a01b03938416179091559183015160048701556060968701518051600588015580860151600688018054909416908316179092559082015160079586015593548782018051850151861660009081526008865283812080548087018255908252868220018390559689018051860151871688528388208054958601815588528588209094018290558051850151861687526009808652838820915151885290855282872082905583518501519095168652938352808520915151855291529182902081905590519091507f3d20b9ee7f7d14239e47aedbcfa03223e81b730de5bb5293351560923538bd859061097e908490613ae3565b60405180910390a15050565b6007818154811061099757fe5b60009182526020918290206008919091020180546040805160026001841615610100026000190190931692909204601f810185900485028301850190915280825291935091839190830182828015610a305780601f10610a0557610100808354040283529160200191610a30565b820191906000526020600020905b815481529060010190602001808311610a1357829003601f168201915b50505050600183015460408051606080820183526002870154825260038701546001600160a01b0390811660208085019190915260048901548486015284519283018552600589015483526006890154909116908201526007909601549186019190915292939092915084565b6040518060400160405280600d81526020016c7365745f6d61785f6e6f6e636560981b81525081565b6001600160a01b038083166000908152600c6020908152604080832085519094168352928152828220848201518352905220545b92915050565b6040518060400160405280600d81526020016c7365745f6d61785f6e6f6e636560981b815250610b30338261126c565b610b3957600080fd5b6001600160a01b038085166000908152600a60209081526040808320875190941683529281528282208682015183529052819020839055517f627686b1b476427bcfe4120b0777072ab5c48442194270d02480b3c6373459ac90610ba2908690869086906138dc565b60405180910390a150505050565b6005546001600160a01b03163314610bda5760405162461bcd60e51b815260040161073c90613a85565b600554600160a01b900460ff1615610c045760405162461bcd60e51b815260040161073c90613a25565b6005805460ff60a01b1916600160a01b1790556040517f256d81afb4cac3b3b3d32a91f6efd3463a78d7a9453a93cb0132f36a23972d4290600090a1565b6000610c4d82610dfc565b8015610c7457506001600160a01b0382166000908152600260205260409020600101544210155b90505b919050565b33610c85610f76565b6001600160a01b031614610c9857600080fd5b60005460ff1615610ca857600080fd5b7f787a5d936e74f4b564b9153575886059829c78cd9927b1be5e0d976b317ef73633604051610cd79190613809565b60405180910390a133ff5b610cea6125c3565b610cf357600080fd5b816001600160a01b038116610d0757600080fd5b6001600160a01b038116301415610d1d57600080fd5b6001600160a01b03831660009081526002602052604090205460ff16610d4257600080fd5b6000610d4d836125d9565b6001600160a01b0385166000908152600260208181526040808420858552909201905290205490915060ff1615610d8357600080fd5b6001600160a01b03841660009081526002602081815260408084208585528084018352818520805460ff19166001908117909155938352600301805493840181558452922001829055517fec1b982d69bfc1a6fd8becf191d9a633486c822d3bdedd52303ca81fa635750190610ba290869086906138bc565b6001600160a01b031660009081526002602052604090205460ff1690565b60005460ff1681565b6001600160a01b039182166000908152600a602090815260408083208451909516835293815283822092810151825291909152205490565b610e636125c3565b610e6c57600080fd5b816001600160a01b038116610e8057600080fd5b6001600160a01b038116301415610e9657600080fd5b6000610ea1836125d9565b6001600160a01b0385166000908152600260208181526040808420858552909201905290205490915060ff16610ed657600080fd5b6001600160a01b0384166000908152600260208181526040808420858552909201905290819020805460ff19169055517f92f4af6130f47c92f3899e06611c8c6ef191fb81207ad2675d134af619d2fe7d90610ba290869086906138bc565b60035481565b600d60209081526000958652604080872082529486528486208152928552838520835290845282842090915282529020805460019091015482565b60005461010090046001600160a01b03165b90565b6040518060400160405280600d81526020016c7365745f6d61785f6e6f6e636560981b815250610fbb338261126c565b610fc457600080fd5b60068290556040517f607ebe6526c3328a14ea38202c645ae095a940a573ddbb4e33fee15f7ca6d8569061097e90849061398b565b6001600160a01b03821660009081526009602090815260408083208484529091528120548061103a5760405162461bcd60e51b815260040161073c906139e5565b6007600182038154811061104a57fe5b60009182526020909120600360089092020101546001600160a01b0385811691161461109a576007600182038154811061108057fe5b9060005260206000209060080201600501600201546110c0565b600760018203815481106110aa57fe5b9060005260206000209060080201600201600201545b949350505050565b6110d06125c3565b6110d957600080fd5b806001600160a01b0381166110ed57600080fd5b6001600160a01b03811630141561110357600080fd5b6001600160a01b03821660009081526002602052604090205460ff1661112857600080fd5b6001600160a01b03821660009081526002602052604090819020805460ff19169055517f777645c5437dfbf962f57a281ead25f3d513f2f8e938685bbfc1738e81c9880e9061097e9084906137fb565b6001546001600160a01b031681565b6000600460009054906101000a90046001600160a01b03166001600160a01b0316631f3440706040518163ffffffff1660e01b815260040160206040518083038186803b1580156111d757600080fd5b505afa1580156111eb573d6000803e3d6000fd5b505050506040513d601f19601f8201168201806040525061120f9190810190613056565b90508061121c575061125b565b60068190556040517f1c463c35635486ad6f481890d5677de7451f41b144cd4537816edf7eb4974fcd9061125190839061398b565b60405180910390a1505b565b6005546001600160a01b031681565b600080611278836125d9565b905061128384610c42565b80156110c057506001600160a01b0384166000908152600260208181526040808420858552909201905290205460ff1691505092915050565b6112c46125c3565b6112cd57600080fd5b6004805460ff60a01b1916600160a01b1790556040517fc1668d45f18667fb6eadfbcacfd5cdcc7dd4ecdfc9b0ab8786cfdbad86bb83d890600090a1565b600554600160a01b900460ff1681565b611323612814565b506001600160a01b038085166000908152600d602090815260408083208785168452825280832086851684528252808320855190941683529281528282208482015183528152908290208251808401909352805483526001015490820152949350505050565b33611392610f76565b6001600160a01b0316146113a557600080fd5b6000805460ff191660011790556040517fd5a2a04a775c741c2ca0dc46ea7ce4835190e1aaf1ca018def0e82568ec33616906113e2903390613809565b60405180910390a1565b6040518060400160405280600d81526020016c7365745f746f74616c5f66656560981b81525061141c338261126c565b61142557600080fd5b6001600160a01b038087166000908152600d602090815260408083208985168452825280832088851684528252808320875190941683529281528282208682015183528152908290208451815590840151600190910155517fe24c740101e0ba8b832059dd9b953f20bbfc1011bf8cb2d6e9a6f67ad7a1194a906114b29088908890889088908890613832565b60405180910390a1505050505050565b6005546001600160a01b031633146114ec5760405162461bcd60e51b815260040161073c90613a85565b600554600160a01b900460ff16156115165760405162461bcd60e51b815260040161073c90613a25565b6001600160a01b038085166000908152600b60209081526040808320865190941683529281528282208582015183528152828220848352905220541561156e5760405162461bcd60e51b815260040161073c90613a65565b6001600160a01b038085166000818152600b602090815260408083208751861684528252808320878301805185529083528184208785528352818420899055938352600c82528083208751909516835293815283822092518252918252828120805460018101825590825291902001829055517fd8b74dea83adc3c6673a7734a808d6535a3baa3970db10147cdf67119eb3934590610ba290869086908690869061387e565b61161c6125c3565b61162557600080fd5b60038190556040517f4f1d324a1cbffc352fb64f1d73d95e4b200d92f99ef39bf2d7f5b41f946909d69061125190839061398b565b6040518060400160405280601281526020017118591917dcd95d1d1b195917d85b5bdd5b9d60721b81525081565b6040518060400160405280600f81526020016e1a5b9a5d17dcd95d1d1b195b595b9d608a1b8152506116ba338261126c565b6116c357600080fd5b6001600160a01b038516600090815260096020908152604080832087845290915290205415801561171557506001600160a01b0383166000908152600960209081526040808320858452909152902054155b1561192b57600780549061172c906001830161282e565b506007805460001981019189918390811061174357fe5b90600052602060002090600802016000019080519060200190611767929190612796565b50866007828154811061177657fe5b906000526020600020906008020160010181905550846007828154811061179957fe5b90600052602060002090600802016002016000018190555085600782815481106117bf57fe5b906000526020600020906008020160020160010160006101000a8154816001600160a01b0302191690836001600160a01b03160217905550826007828154811061180557fe5b906000526020600020906008020160050160000181905550836007828154811061182b57fe5b906000526020600020906008020160050160010160006101000a8154816001600160a01b0302191690836001600160a01b031602179055507f7bb4cd817163ddd036adca9368bfa8b566e3c4bb4755088a92316948671c3b656007828154811061189157fe5b90600052602060002090600802016040516118ac9190613af4565b60405180910390a16001600160a01b038087166000818152600860209081526040808320805460018181018355918552838520978201970187905594891680845281842080549687018155845282842090950186905592825260098082528383208a845282528383208690559382529283528181208682529092529020555b50505050505050565b60065481565b60075490565b6119486125c3565b61195157600080fd5b806001600160a01b03811661196557600080fd5b6001600160a01b03811630141561197b57600080fd5b61198782600354612609565b7f7f3a8349917003ed377f6e9ae1608b92edd893903f8983bd274b1f8373dd3b118260035460405161097e929190613904565b600454600160a01b900460ff1681565b600860205281600052604060002081815481106119e357fe5b90600052602060002001600091509150505481565b611a006125c3565b611a0957600080fd5b806001600160a01b038116611a1d57600080fd5b6001600160a01b038116301415611a3357600080fd5b6000546001600160a01b038381166101009092041614611ab457600080546001600160a01b03848116610100908102610100600160a81b03198416179093556040519290910416907f977e5fa58e458501775e0008d275006294c5249e3c08d1d0e3a9f3acad14f6e490611aaa9083908690613817565b60405180910390a1505b5050565b6001600160a01b038316600090815260096020908152604080832085845290915281205480611aeb576000915050611b82565b6000836001811115611af957fe5b15611b245760076001830381548110611b0e57fe5b9060005260206000209060080201600501611b46565b60076001830381548110611b3457fe5b90600052602060002090600802016002015b60018101549091506001600160a01b03878116911614611b785760405162461bcd60e51b815260040161073c90613a15565b6002015415159150505b9392505050565b6001600160a01b038316600090815260096020908152604080832085845290915281205480611bca5760405162461bcd60e51b815260040161073c90613a35565b6000836001811115611bd857fe5b15611c035760076001830381548110611bed57fe5b9060005260206000209060080201600501611c25565b60076001830381548110611c1357fe5b90600052602060002090600802016002015b60018101549091506001600160a01b03878116911614611c575760405162461bcd60e51b815260040161073c90613ac5565b6002015495945050505050565b611c6c612658565b611c7557600080fd5b806001600160a01b038116611c8957600080fd5b6001600160a01b038116301415611c9f57600080fd5b6001546001600160a01b03838116911614611ab457600180546001600160a01b038481166001600160a01b03198316179092556040519116907f9f611b789425d0d5b90b920f1b2852907dd865c80074a30b1629aaa041d1812c90611aaa9083908690613817565b6040518060400160405280600d81526020016c7365745f746f74616c5f66656560981b81525081565b600080611d3e858585612669565b6001600160a01b039586166000908152600b60209081526040808320885190991683529781528782209681015182529586528681209181529452505050205490565b6004546001600160a01b031681565b611d9761285f565b6001600160a01b0383166000908152600860205260409020548210611dce5760405162461bcd60e51b815260040161073c906139f5565b6001600160a01b0383166000908152600860205260409020805460079160019185908110611df857fe5b90600052602060002001540381548110611e0e57fe5b600091825260209182902060408051600893909302909101805460026001821615610100026000190190911604601f8101859004909402830160a09081019092526080830184815292939092849290918491840182828015611eb15780601f10611e8657610100808354040283529160200191611eb1565b820191906000526020600020905b815481529060010190602001808311611e9457829003601f168201915b5050509183525050600182015460208083019190915260408051606080820183526002860154825260038601546001600160a01b03908116838601526004870154838501528386019290925282518082018452600587015481526006870154909216938201939093526007909401549084015201529392505050565b6040518060400160405280601381526020017218dbdb5c1b195d1957dcd95d1d1b195b595b9d606a1b81525081565b6001600160a01b038216600090815260096020908152604080832084845290915281205480611f8f576000915050610afa565b60076001820381548110611f9f57fe5b60009182526020909120600360089092020101546001600160a01b03858116911614611ff35760076001820381548110611fd557fe5b906000526020600020906008020160050160020154600014156110c0565b6007600182038154811061200357fe5b60009182526020909120600460089092020101541515949350505050565b600b60209081526000948552604080862082529385528385208152918452828420909152825290205481565b61205561285f565b6001600160a01b03831660009081526009602090815260408083208584529091529020546120955760405162461bcd60e51b815260040161073c90613a55565b6001600160a01b038316600090815260096020908152604080832085845290915290205460078054909160001901908110611e0e57fe5b60005461010090046001600160a01b031681565b600960209081526000928352604080842090915290825290205481565b600554600160a01b900460ff16156121275760405162461bcd60e51b815260040161073c90613a05565b6005546001600160a01b0316156121505760405162461bcd60e51b815260040161073c90613aa5565b600580546001600160a01b0319166001600160a01b0383811691909117918290556040517f17c27d402d17bcdbb9529dd01c9816f15dd0c961a9f86427efafa8910bbd1e84926112519216906137fb565b6040518060400160405280600f81526020016e1a5b9a5d17dcd95d1d1b195b595b9d608a1b81525081565b6121d46125c3565b6121dd57600080fd5b806001600160a01b0381166121f157600080fd5b60045482906001600160a01b03908116908216811461229157600454600160a01b900460ff16156122345760405162461bcd60e51b815260040161073c90613a45565b600480546001600160a01b038681166001600160a01b03198316179092556040519116907f624c4d4225a45f5bf8a9755adba1ef9be3464a9970b05a371fb6cca0c0caf204906122879083908890613970565b60405180910390a1505b50505050565b600a60209081526000938452604080852082529284528284209052825290205481565b6001600160a01b031660009081526008602052604090205490565b6040518060400160405280601381526020017218dbdb5c1b195d1957dcd95d1d1b195b595b9d606a1b81525061230b338261126c565b61231457600080fd5b6001600160a01b0385166000908152600960209081526040808320878452909152902054806123555760405162461bcd60e51b815260040161073c90613ab5565b600084600181111561236357fe5b1561238e576007600183038154811061237857fe5b90600052602060002090600802016005016123b0565b6007600183038154811061239e57fe5b90600052602060002090600802016002015b9050836123be5760006123c0565b435b600282018190556040517fc3bd7a45d616adcae6915be651cb5ee517f6a1f07dd74783b2cde718d02a09e1916123fc918a918a918a919061391f565b60405180910390a150505050505050565b6040518060400160405280601281526020017118591917dcd95d1d1b195917d85b5bdd5b9d60721b815250612442338261126c565b61244b57600080fd5b6000612458868585612669565b6001600160a01b038088166000908152600b60209081526040808320895190941683529281528282208882015183528152828220848352905220549091506124a6908663ffffffff61276316565b6001600160a01b038088166000818152600b602090815260408083208a518616845282528083208a830180518552908352818420888552835281842096909655928252600c8152828220895190941682529283528181209351815292825280832080546001810182559084529190922043910155517fa7d562f66197f4f4b2ebbff2a89021c9e11fc9196de187b0260aa777c42845f5906114b290889088908890889061387e565b6125566125c3565b61255f57600080fd5b806001600160a01b03811661257357600080fd5b6001600160a01b03811630141561258957600080fd5b612594826000612609565b7fb619d545cb511bd5f02907a1eac4f4cb8dace7b1846852fb0bf5e553937481c18260405161097e91906137fb565b60005461010090046001600160a01b0316331490565b6000816040516020016125ec91906137ef565b604051602081830303815290604052805190602001209050919050565b6001600160a01b03821660009081526002602052604090205460ff16611ab4576001600160a01b0382166000908152600260205260409020805460ff1916600190811782554283019101555050565b6001546001600160a01b0316331490565b6001600160a01b038084166000908152600c60209081526040808320865190941683529281528282208582015183529052908120545b8015612758576001600160a01b038086166000908152600c6020908152604080832088519094168352928152828220878201518352905220805484919060001984019081106126ea57fe5b90600052602060002001541161274f576001600160a01b038086166000908152600c60209081526040808320885190941683529281528282208782015183529052208054600019830190811061273c57fe5b9060005260206000200154915050611b82565b6000190161269f565b506000949350505050565b60008282018183128015906127785750838112155b8061278d575060008312801561278d57508381125b611b8257600080fd5b828054600181600116156101000203166002900490600052602060002090601f016020900481019282601f106127d757805160ff1916838001178555612804565b82800160010185558215612804579182015b828111156128045782518255916020019190600101906127e9565b50612810929150612891565b5090565b604051806040016040528060008152602001600081525090565b81548183558181111561285a5760080281600802836000526020600020918201910161285a91906128ab565b505050565b60408051608081018252606081526000602082015290810161287f612911565b815260200161288c612911565b905290565b610f8891905b808211156128105760008155600101612897565b610f8891905b808211156128105760006128c5828261293b565b50600060018201819055600282018190556003820180546001600160a01b03199081169091556004830182905560058301829055600683018054909116905560078201556008016128b1565b60405180606001604052806000815260200160006001600160a01b03168152602001600081525090565b50805460018160011615610100020316600290046000825580601f10612961575061297f565b601f01602090049060005260206000209081019061297f9190612891565b50565b8035610afa81613c32565b8035610afa81613c46565b8035610afa81613c4f565b8035610afa81613c58565b8035610afa81613c61565b600082601f8301126129ca57600080fd5b81356129dd6129d882613b39565b613b13565b915080825260208301602083018583830111156129f957600080fd5b612a04838284613bc0565b50505092915050565b600060408284031215612a1f57600080fd5b612a296040613b13565b90506000612a378484612982565b8252506020612a4884848301612998565b60208301525092915050565b600060408284031215612a6657600080fd5b612a706040613b13565b90506000612a378484612998565b600060608284031215612a9057600080fd5b612a9a6060613b13565b90506000612aa88484612998565b8252506020612ab984848301612982565b6020830152506040612acd84828501612998565b60408301525092915050565b60006101008284031215612aec57600080fd5b612af66080613b13565b905081356001600160401b03811115612b0e57600080fd5b612b1a848285016129b9565b8252506020612b2b84848301612998565b6020830152506040612b3f84828501612a7e565b60408301525060a0612b5384828501612a7e565b60608301525092915050565b8051610afa81613c4f565b600060208284031215612b7c57600080fd5b60006110c08484612982565b600080600080600060a08688031215612ba057600080fd5b6000612bac8888612982565b9550506020612bbd88828901612982565b9450506040612bce88828901612982565b9350506060612bdf88828901612982565b9250506080612bf088828901612998565b9150509295509295909350565b600080600060608486031215612c1257600080fd5b6000612c1e8686612982565b9350506020612c2f86828701612982565b9250506040612c4086828701612998565b9150509250925092565b60008060008060808587031215612c6057600080fd5b6000612c6c8787612982565b9450506020612c7d87828801612982565b9350506040612c8e87828801612998565b9250506060612c9f87828801612998565b91505092959194509250565b60008060008060a08587031215612cc157600080fd5b6000612ccd8787612982565b9450506020612cde878288016129a3565b9350506040612cef87828801612982565b9250506060612c9f87828801612a0d565b600080600080600060e08688031215612d1857600080fd5b6000612d248888612982565b9550506020612d35888289016129a3565b9450506040612d4688828901612982565b9350506060612d5788828901612a0d565b92505060a0612bf088828901612a54565b60008060008060a08587031215612d7e57600080fd5b6000612d8a8787612982565b9450506020612d9b87828801612998565b9350506040612dac87828801612a0d565b9250506080612c9f87828801612998565b60008060408385031215612dd057600080fd5b6000612ddc8585612982565b92505060208301356001600160401b03811115612df857600080fd5b612e04858286016129b9565b9150509250929050565b60008060608385031215612e2157600080fd5b6000612e2d8585612982565b9250506020612e0485828601612a0d565b600080600060808486031215612e5357600080fd5b6000612e5f8686612982565b9350506020612e7086828701612a0d565b9250506060612c4086828701612998565b60008060408385031215612e9457600080fd5b6000612ea08585612982565b9250506020612e0485828601612998565b600080600060608486031215612ec657600080fd5b6000612ed28686612982565b9350506020612ee386828701612998565b9250506040612c40868287016129ae565b60008060008060808587031215612f0a57600080fd5b6000612f168787612982565b9450506020612f2787828801612998565b9350506040612f38878288016129ae565b9250506060612c9f8782880161298d565b600060208284031215612f5b57600080fd5b60006110c084846129a3565b60008060008060008060c08789031215612f8057600080fd5b86356001600160401b03811115612f9657600080fd5b612fa289828a016129b9565b9650506020612fb389828a01612998565b9550506040612fc489828a01612982565b9450506060612fd589828a01612998565b9350506080612fe689828a01612982565b92505060a0612ff789828a01612998565b9150509295509295509295565b60006020828403121561301657600080fd5b81356001600160401b0381111561302c57600080fd5b6110c084828501612ad9565b60006020828403121561304a57600080fd5b60006110c08484612998565b60006020828403121561306857600080fd5b60006110c08484612b5f565b61307d81613baa565b82525050565b61307d81613b85565b61307d81613b90565b61307d81610f88565b61307d81613b95565b61307d81613bb5565b60006130bb82613b6c565b6130c58185613b70565b93506130d5818560208601613bcc565b6130de81613c1e565b9093019392505050565b60006130f382613b6c565b6130fd8185610c77565b935061310d818560208601613bcc565b9290920192915050565b600081546001811660008114613134576001811461315a57613199565b607f60028304166131458187613b70565b60ff1984168152955050602085019250613199565b600282046131688187613b70565b955061317385613b60565b60005b8281101561319257815488820152600190910190602001613176565b8701945050505b505092915050565b60006131ae604783613b70565b600080516020613cef8339815191528152600080516020613c6f8339815191526020820152666f6c3a3237315d60c81b604082015260600192915050565b60006131f9603283613b70565b7f496e646578206f7574206f6620626f756e6473205b4472696970536574746c658152716d656e7453746174652e736f6c3a3131345d60701b602082015260400192915050565b600061324d602d83613b70565b600080516020613caf83398151915281526c6461626c652e736f6c3a36395d60981b602082015260400192915050565b600061328a603f83613b70565b600080516020613c8f83398151915281527f205b4472696970536574746c656d656e7453746174652e736f6c3a3235325d00602082015260400192915050565b60006132d7602d83613b70565b600080516020613caf83398151915281526c6461626c652e736f6c3a36345d60981b602082015260400192915050565b6000613314604783613b70565b600080516020613cef8339815191528152600080516020613c6f8339815191526020820152666f6c3a3239365d60c81b604082015260600192915050565b600061335f602f83613b70565b7f436f6d6d756e69747920766f74652066726f7a656e205b436f6d6d756e69747981526e566f7461626c652e736f6c3a34315d60881b602082015260400192915050565b60006133b0604783613b70565b600080516020613cef8339815191528152600080516020613c6f8339815191526020820152666f6c3a3132375d60c81b604082015260600192915050565b60006133fb604c83613b70565b7f536574746c656420616d6f756e742065786973747320666f722077616c6c657481527f20616e642063757272656e6379205b4472696970536574746c656d656e74537460208201526b6174652e736f6c3a3439325d60a01b604082015260600192915050565b600061346f604c83613b70565b7f536574746c656d656e742065786973747320666f72206f726967696e2077616c8152600080516020613ccf83398151915260208201526b6174652e736f6c3a3435365d60a01b604082015260600192915050565b60006134d1602f83613b70565b7f43616c6c6572206973206e6f742075706772616465206167656e74205b55706781526e72616461626c652e736f6c3a36335d60881b602082015260400192915050565b6000613522604c83613b70565b7f536574746c656d656e742065786973747320666f72207461726765742077616c8152600080516020613ccf83398151915260208201526b6174652e736f6c3a3436305d60a01b604082015260600192915050565b6000613584603683613b70565b7f55706772616465206167656e742068617320616c7265616479206265656e20738152756574205b55706772616461626c652e736f6c3a33375d60501b602082015260400192915050565b60006135dc604783613b70565b600080516020613cef8339815191528152600080516020613c6f8339815191526020820152666f6c3a3138385d60c81b604082015260600192915050565b6000613627603f83613b70565b600080516020613c8f83398151915281527f205b4472696970536574746c656d656e7453746174652e736f6c3a3330345d00602082015260400192915050565b805160408301906136788482613083565b5060208201516122916020850182613095565b805160408301906136788482613095565b805160608301906136ad8482613095565b5060208201516136c06020850182613083565b5060408201516122916040850182613095565b805460608301906136e381613c0b565b6136ed8582613095565b505060018201546136fd81613bf8565b61370a6020860182613083565b5050600282015461371a81613c0b565b6137276040860182613095565b5050505050565b80516101008084526000919084019061374782826130b0565b915050602083015161375c6020860182613095565b50604083015161376f604086018261369c565b50606083015161378260a086018261369c565b509392505050565b610100808352600090830181836137a18382613117565b925050600184015490506137b481613c0b565b6137c16020870182613095565b50600284016137d360408701826136d3565b50600584016137e560a08701826136d3565b5090949350505050565b6000611b8282846130e8565b60208101610afa8284613083565b60208101610afa8284613074565b604081016138258285613083565b611b826020830184613083565b60e081016138408288613083565b61384d602083018761309e565b61385a6040830186613083565b6138676060830185613667565b61387460a083018461368b565b9695505050505050565b60a0810161388c8287613083565b6138996020830186613095565b6138a66040830185613667565b6138b36080830184613095565b95945050505050565b604081016138ca8285613083565b81810360208301526110c081846130b0565b608081016138ea8286613083565b6138f76020830185613667565b6110c06060830184613095565b604081016139128285613083565b611b826020830184613095565b6080810161392d8287613083565b61393a6020830186613095565b61394760408301856130a7565b6138b36060830184613095565b60208101610afa828461308c565b60208101610afa828461309e565b6040810161397e828561309e565b611b82602083018461309e565b60208101610afa8284613095565b60208082528101611b8281846130b0565b61010080825281016139bc81876130b0565b90506139cb6020830186613095565b6139d8604083018561369c565b6138b360a083018461369c565b60208082528101610c74816131a1565b60208082528101610c74816131ec565b60208082528101610c7481613240565b60208082528101610c748161327d565b60208082528101610c74816132ca565b60208082528101610c7481613307565b60208082528101610c7481613352565b60208082528101610c74816133a3565b60208082528101610c74816133ee565b60208082528101610c7481613462565b60208082528101610c74816134c4565b60208082528101610c7481613515565b60208082528101610c7481613577565b60208082528101610c74816135cf565b60208082528101610c748161361a565b60408101610afa828461368b565b60208082528101611b82818461372e565b60208082528101611b82818461378a565b604081016139128285613095565b6040518181016001600160401b0381118282101715613b3157600080fd5b604052919050565b60006001600160401b03821115613b4f57600080fd5b506020601f91909101601f19160190565b60009081526020902090565b5190565b90815260200190565b6001600160a01b031690565b6000610c7482613b79565b151590565b6000610c7482613b85565b80610c7781613c28565b6000610c7482613b95565b6000610c7482613ba0565b82818337506000910152565b60005b83811015613be7578181015183820152602001613bcf565b838111156122915750506000910152565b6000610c74613c0683610f88565b613b79565b6000610c74613c1983610f88565b610f88565b601f01601f191690565b6002811061297f57fe5b613c3b81613b85565b811461297f57600080fd5b613c3b81613b90565b613c3b81610f88565b613c3b81613b95565b6002811061297f57600080fdfe6e64206e6f6e6365205b4472696970536574746c656d656e7453746174652e7357616c6c6574206861732077726f6e6720736574746c656d656e7420726f6c6555706772616465732068617665206265656e2066726f7a656e205b55706772616c657420616e64206e6f6e6365205b4472696970536574746c656d656e7453744e6f20736574746c656d656e7420666f756e6420666f722077616c6c65742061a365627a7a723158201eb1b8416f453d9ac9f9e274cd70e0dbff2d865bc65cb315879339f2eca6c9986c6578706572696d656e74616cf564736f6c634300050c0040",
  "source": "/*\n * Hubii Nahmii\n *\n * Compliant with the Hubii Nahmii specification v0.12.\n *\n * Copyright (C) 2017-2018 Hubii AS\n */\n\npragma solidity >=0.4.25 <0.6.0;\npragma experimental ABIEncoderV2;\n\nimport {Ownable} from \"./Ownable.sol\";\nimport {Servable} from \"./Servable.sol\";\nimport {CommunityVotable} from \"./CommunityVotable.sol\";\nimport {Upgradable} from \"./Upgradable.sol\";\nimport {RevenueFund} from \"./RevenueFund.sol\";\nimport {PartnerFund} from \"./PartnerFund.sol\";\nimport {Beneficiary} from \"./Beneficiary.sol\";\nimport {SafeMathIntLib} from \"./SafeMathIntLib.sol\";\nimport {SafeMathUintLib} from \"./SafeMathUintLib.sol\";\nimport {MonetaryTypesLib} from \"./MonetaryTypesLib.sol\";\nimport {NahmiiTypesLib} from \"./NahmiiTypesLib.sol\";\nimport {DriipSettlementTypesLib} from \"./DriipSettlementTypesLib.sol\";\n\n/**\n * @title DriipSettlementState\n * @notice Where driip settlement state is managed\n */\ncontract DriipSettlementState is Ownable, Servable, CommunityVotable, Upgradable {\n    using SafeMathIntLib for int256;\n    using SafeMathUintLib for uint256;\n\n    //\n    // Constants\n    // -----------------------------------------------------------------------------------------------------------------\n    string constant public INIT_SETTLEMENT_ACTION = \"init_settlement\";\n    string constant public COMPLETE_SETTLEMENT_ACTION = \"complete_settlement\";\n    string constant public SET_MAX_NONCE_ACTION = \"set_max_nonce\";\n    string constant public ADD_SETTLED_AMOUNT_ACTION = \"add_settled_amount\";\n    string constant public SET_TOTAL_FEE_ACTION = \"set_total_fee\";\n\n    //\n    // Variables\n    // -----------------------------------------------------------------------------------------------------------------\n    uint256 public maxDriipNonce;\n\n    DriipSettlementTypesLib.Settlement[] public settlements;\n    mapping(address => uint256[]) public walletSettlementIndices;\n    mapping(address => mapping(uint256 => uint256)) public walletNonceSettlementIndex;\n\n    mapping(address => mapping(address => mapping(uint256 => uint256))) public walletCurrencyMaxNonce;\n\n    mapping(address => mapping(address => mapping(uint256 => mapping(uint256 => int256)))) public walletCurrencyBlockNumberSettledAmount;\n    mapping(address => mapping(address => mapping(uint256 => uint256[]))) public walletCurrencySettledBlockNumbers;\n\n    mapping(address => mapping(address => mapping(address => mapping(address => mapping(uint256 => MonetaryTypesLib.NoncedAmount))))) public totalFeesMap;\n\n    //\n    // Events\n    // -----------------------------------------------------------------------------------------------------------------\n    event InitSettlementEvent(DriipSettlementTypesLib.Settlement settlement);\n    event CompleteSettlementPartyEvent(address wallet, uint256 nonce, DriipSettlementTypesLib.SettlementRole settlementRole,\n        uint256 doneBlockNumber);\n    event SetMaxDriipNonceEvent(uint256 maxDriipNonce);\n    event UpdateMaxDriipNonceFromCommunityVoteEvent(uint256 maxDriipNonce);\n    event SetMaxNonceByWalletAndCurrencyEvent(address wallet, MonetaryTypesLib.Currency currency,\n        uint256 maxNonce);\n    event AddSettledAmountEvent(address wallet, int256 amount, MonetaryTypesLib.Currency currency,\n        uint256 blockNumber);\n    event SetTotalFeeEvent(address wallet, Beneficiary beneficiary, address destination,\n        MonetaryTypesLib.Currency currency, MonetaryTypesLib.NoncedAmount totalFee);\n    event UpgradeSettlementEvent(DriipSettlementTypesLib.Settlement settlement);\n    event UpgradeSettledAmountEvent(address wallet, int256 amount, MonetaryTypesLib.Currency currency,\n        uint256 blockNumber);\n\n    //\n    // Constructor\n    // -----------------------------------------------------------------------------------------------------------------\n    constructor(address deployer) Ownable(deployer) public {\n    }\n\n    //\n    // Functions\n    // -----------------------------------------------------------------------------------------------------------------\n    /// @notice Get the count of settlements\n    function settlementsCount()\n    public\n    view\n    returns (uint256)\n    {\n        return settlements.length;\n    }\n\n    /// @notice Get the count of settlements for given wallet\n    /// @param wallet The address for which to return settlement count\n    /// @return count of settlements for the provided wallet\n    function settlementsCountByWallet(address wallet)\n    public\n    view\n    returns (uint256)\n    {\n        return walletSettlementIndices[wallet].length;\n    }\n\n    /// @notice Get settlement of given wallet and index\n    /// @param wallet The address for which to return settlement\n    /// @param index The wallet's settlement index\n    /// @return settlement for the provided wallet and index\n    function settlementByWalletAndIndex(address wallet, uint256 index)\n    public\n    view\n    returns (DriipSettlementTypesLib.Settlement memory)\n    {\n        require(walletSettlementIndices[wallet].length > index, \"Index out of bounds [DriipSettlementState.sol:114]\");\n        return settlements[walletSettlementIndices[wallet][index] - 1];\n    }\n\n    /// @notice Get settlement of given wallet and wallet nonce\n    /// @param wallet The address for which to return settlement\n    /// @param nonce The wallet's nonce\n    /// @return settlement for the provided wallet and index\n    function settlementByWalletAndNonce(address wallet, uint256 nonce)\n    public\n    view\n    returns (DriipSettlementTypesLib.Settlement memory)\n    {\n        require(0 != walletNonceSettlementIndex[wallet][nonce], \"No settlement found for wallet and nonce [DriipSettlementState.sol:127]\");\n        return settlements[walletNonceSettlementIndex[wallet][nonce] - 1];\n    }\n\n    /// @notice Initialize settlement, i.e. create one if no such settlement exists\n    /// for the double pair of wallets and nonces\n    /// @param settledKind The kind of driip of the settlement\n    /// @param settledHash The hash of driip of the settlement\n    /// @param originWallet The address of the origin wallet\n    /// @param originNonce The wallet nonce of the origin wallet\n    /// @param targetWallet The address of the target wallet\n    /// @param targetNonce The wallet nonce of the target wallet\n    function initSettlement(string memory settledKind, bytes32 settledHash, address originWallet,\n        uint256 originNonce, address targetWallet, uint256 targetNonce)\n    public\n    onlyEnabledServiceAction(INIT_SETTLEMENT_ACTION)\n    {\n        if (\n            0 == walletNonceSettlementIndex[originWallet][originNonce] &&\n            0 == walletNonceSettlementIndex[targetWallet][targetNonce]\n        ) {\n            // Create new settlement\n            settlements.length++;\n\n            // Get the 0-based index\n            uint256 index = settlements.length - 1;\n\n            // Update settlement\n            settlements[index].settledKind = settledKind;\n            settlements[index].settledHash = settledHash;\n            settlements[index].origin.nonce = originNonce;\n            settlements[index].origin.wallet = originWallet;\n            settlements[index].target.nonce = targetNonce;\n            settlements[index].target.wallet = targetWallet;\n\n            // Emit event\n            emit InitSettlementEvent(settlements[index]);\n\n            // Store 1-based index value\n            index++;\n            walletSettlementIndices[originWallet].push(index);\n            walletSettlementIndices[targetWallet].push(index);\n            walletNonceSettlementIndex[originWallet][originNonce] = index;\n            walletNonceSettlementIndex[targetWallet][targetNonce] = index;\n        }\n    }\n\n    /// @notice Set the done of the given settlement role in the given settlement\n    /// @param wallet The address of the concerned wallet\n    /// @param nonce The nonce of the concerned wallet\n    /// @param settlementRole The settlement role\n    /// @param done The done flag\n    function completeSettlement(address wallet, uint256 nonce,\n        DriipSettlementTypesLib.SettlementRole settlementRole, bool done)\n    public\n    onlyEnabledServiceAction(COMPLETE_SETTLEMENT_ACTION)\n    {\n        // Get the 1-based index of the settlement\n        uint256 index = walletNonceSettlementIndex[wallet][nonce];\n\n        // Require the existence of settlement\n        require(0 != index, \"No settlement found for wallet and nonce [DriipSettlementState.sol:188]\");\n\n        // Get the settlement party\n        DriipSettlementTypesLib.SettlementParty storage party =\n        DriipSettlementTypesLib.SettlementRole.Origin == settlementRole ?\n        settlements[index - 1].origin :\n        settlements[index - 1].target;\n\n        // Update party done block number\n        party.doneBlockNumber = done ? block.number : 0;\n\n        // Emit event\n        emit CompleteSettlementPartyEvent(wallet, nonce, settlementRole, party.doneBlockNumber);\n    }\n\n    /// @notice Gauge whether the settlement is done wrt the given wallet and nonce\n    /// @param wallet The address of the concerned wallet\n    /// @param nonce The nonce of the concerned wallet\n    /// @return True if settlement is done for role, else false\n    function isSettlementPartyDone(address wallet, uint256 nonce)\n    public\n    view\n    returns (bool)\n    {\n        // Get the 1-based index of the settlement\n        uint256 index = walletNonceSettlementIndex[wallet][nonce];\n\n        // Return false if settlement does not exist\n        if (0 == index)\n            return false;\n\n        // Return done status\n        return (\n        wallet == settlements[index - 1].origin.wallet ?\n        0 != settlements[index - 1].origin.doneBlockNumber :\n        0 != settlements[index - 1].target.doneBlockNumber\n        );\n    }\n\n    /// @notice Gauge whether the settlement is done wrt the given wallet, nonce\n    /// and settlement role\n    /// @param wallet The address of the concerned wallet\n    /// @param nonce The nonce of the concerned wallet\n    /// @param settlementRole The settlement role\n    /// @return True if settlement is done for role, else false\n    function isSettlementPartyDone(address wallet, uint256 nonce,\n        DriipSettlementTypesLib.SettlementRole settlementRole)\n    public\n    view\n    returns (bool)\n    {\n        // Get the 1-based index of the settlement\n        uint256 index = walletNonceSettlementIndex[wallet][nonce];\n\n        // Return false if settlement does not exist\n        if (0 == index)\n            return false;\n\n        // Get the settlement party\n        DriipSettlementTypesLib.SettlementParty storage settlementParty =\n        DriipSettlementTypesLib.SettlementRole.Origin == settlementRole ?\n        settlements[index - 1].origin : settlements[index - 1].target;\n\n        // Require that wallet is party of the right role\n        require(wallet == settlementParty.wallet, \"Wallet has wrong settlement role [DriipSettlementState.sol:252]\");\n\n        // Return done status\n        return 0 != settlementParty.doneBlockNumber;\n    }\n\n    /// @notice Get the done block number of the settlement party with the given wallet and nonce\n    /// @param wallet The address of the concerned wallet\n    /// @param nonce The nonce of the concerned wallet\n    /// @return The done block number of the settlement wrt the given settlement role\n    function settlementPartyDoneBlockNumber(address wallet, uint256 nonce)\n    public\n    view\n    returns (uint256)\n    {\n        // Get the 1-based index of the settlement\n        uint256 index = walletNonceSettlementIndex[wallet][nonce];\n\n        // Require the existence of settlement\n        require(0 != index, \"No settlement found for wallet and nonce [DriipSettlementState.sol:271]\");\n\n        // Return done block number\n        return (\n        wallet == settlements[index - 1].origin.wallet ?\n        settlements[index - 1].origin.doneBlockNumber :\n        settlements[index - 1].target.doneBlockNumber\n        );\n    }\n\n    /// @notice Get the done block number of the settlement party with the given wallet, nonce and settlement role\n    /// @param wallet The address of the concerned wallet\n    /// @param nonce The nonce of the concerned wallet\n    /// @param settlementRole The settlement role\n    /// @return The done block number of the settlement wrt the given settlement role\n    function settlementPartyDoneBlockNumber(address wallet, uint256 nonce,\n        DriipSettlementTypesLib.SettlementRole settlementRole)\n    public\n    view\n    returns (uint256)\n    {\n        // Get the 1-based index of the settlement\n        uint256 index = walletNonceSettlementIndex[wallet][nonce];\n\n        // Require the existence of settlement\n        require(0 != index, \"No settlement found for wallet and nonce [DriipSettlementState.sol:296]\");\n\n        // Get the settlement party\n        DriipSettlementTypesLib.SettlementParty storage settlementParty =\n        DriipSettlementTypesLib.SettlementRole.Origin == settlementRole ?\n        settlements[index - 1].origin : settlements[index - 1].target;\n\n        // Require that wallet is party of the right role\n        require(wallet == settlementParty.wallet, \"Wallet has wrong settlement role [DriipSettlementState.sol:304]\");\n\n        // Return done block number\n        return settlementParty.doneBlockNumber;\n    }\n\n    /// @notice Set the max (driip) nonce\n    /// @param _maxDriipNonce The max nonce\n    function setMaxDriipNonce(uint256 _maxDriipNonce)\n    public\n    onlyEnabledServiceAction(SET_MAX_NONCE_ACTION)\n    {\n        maxDriipNonce = _maxDriipNonce;\n\n        // Emit event\n        emit SetMaxDriipNonceEvent(maxDriipNonce);\n    }\n\n    /// @notice Update the max driip nonce property from CommunityVote contract\n    function updateMaxDriipNonceFromCommunityVote()\n    public\n    {\n        uint256 _maxDriipNonce = communityVote.getMaxDriipNonce();\n        if (0 == _maxDriipNonce)\n            return;\n\n        maxDriipNonce = _maxDriipNonce;\n\n        // Emit event\n        emit UpdateMaxDriipNonceFromCommunityVoteEvent(maxDriipNonce);\n    }\n\n    /// @notice Get the max nonce of the given wallet and currency\n    /// @param wallet The address of the concerned wallet\n    /// @param currency The concerned currency\n    /// @return The max nonce\n    function maxNonceByWalletAndCurrency(address wallet, MonetaryTypesLib.Currency memory currency)\n    public\n    view\n    returns (uint256)\n    {\n        return walletCurrencyMaxNonce[wallet][currency.ct][currency.id];\n    }\n\n    /// @notice Set the max nonce of the given wallet and currency\n    /// @param wallet The address of the concerned wallet\n    /// @param currency The concerned currency\n    /// @param maxNonce The max nonce\n    function setMaxNonceByWalletAndCurrency(address wallet, MonetaryTypesLib.Currency memory currency,\n        uint256 maxNonce)\n    public\n    onlyEnabledServiceAction(SET_MAX_NONCE_ACTION)\n    {\n        // Update max nonce value\n        walletCurrencyMaxNonce[wallet][currency.ct][currency.id] = maxNonce;\n\n        // Emit event\n        emit SetMaxNonceByWalletAndCurrencyEvent(wallet, currency, maxNonce);\n    }\n\n    /// @notice Get the count of settled block numbers\n    /// @param wallet The address of the concerned wallet\n    /// @param currency The concerned currency\n    /// @return The count of settled block numbers\n    function settledBlockNumbersCount(address wallet, MonetaryTypesLib.Currency memory currency)\n    public\n    view\n    returns (uint256)\n    {\n        return walletCurrencySettledBlockNumbers[wallet][currency.ct][currency.id].length;\n    }\n\n    /// @notice Get the value of settled amount at the given block number\n    /// @param wallet The address of the concerned wallet\n    /// @param currency The concerned currency\n    /// @param blockNumber The concerned block number\n    /// @return The settled amount\n    function settledAmountByBlockNumber(address wallet, MonetaryTypesLib.Currency memory currency,\n        uint256 blockNumber)\n    public\n    view\n    returns (int256)\n    {\n        uint256 settledBlockNumber = _walletSettledBlockNumber(wallet, currency, blockNumber);\n        return walletCurrencyBlockNumberSettledAmount[wallet][currency.ct][currency.id][settledBlockNumber];\n    }\n\n    /// @notice Add to the settled amount at the given block number\n    /// @param wallet The address of the concerned wallet\n    /// @param amount The new settled amount\n    /// @param currency The concerned currency\n    /// @param blockNumber The concerned block number\n    function addSettledAmountByBlockNumber(address wallet, int256 amount, MonetaryTypesLib.Currency memory currency,\n        uint256 blockNumber)\n    public\n    onlyEnabledServiceAction(ADD_SETTLED_AMOUNT_ACTION)\n    {\n        // Get the current settled block number\n        uint256 settledBlockNumber = _walletSettledBlockNumber(wallet, currency, blockNumber);\n\n        // Add to the settled amount for the found settled block number\n        walletCurrencyBlockNumberSettledAmount[wallet][currency.ct][currency.id][settledBlockNumber] =\n        walletCurrencyBlockNumberSettledAmount[wallet][currency.ct][currency.id][settledBlockNumber].add(amount);\n\n        // Add the current block number to the set of settled block numbers\n        walletCurrencySettledBlockNumbers[wallet][currency.ct][currency.id].push(block.number);\n\n        // Emit event\n        emit AddSettledAmountEvent(wallet, amount, currency, blockNumber);\n    }\n\n    /// @notice Get the total fee payed by the given wallet to the given beneficiary and destination\n    /// in the given currency\n    /// @param wallet The address of the concerned wallet\n    /// @param beneficiary The concerned beneficiary\n    /// @param destination The concerned destination\n    /// @param currency The concerned currency\n    /// @return The total fee\n    function totalFee(address wallet, Beneficiary beneficiary, address destination,\n        MonetaryTypesLib.Currency memory currency)\n    public\n    view\n    returns (MonetaryTypesLib.NoncedAmount memory)\n    {\n        return totalFeesMap[wallet][address(beneficiary)][destination][currency.ct][currency.id];\n    }\n\n    /// @notice Set the total fee payed by the given wallet to the given beneficiary and destination\n    /// in the given currency\n    /// @param wallet The address of the concerned wallet\n    /// @param beneficiary The concerned beneficiary\n    /// @param destination The concerned destination\n    /// @param _totalFee The total fee\n    function setTotalFee(address wallet, Beneficiary beneficiary, address destination,\n        MonetaryTypesLib.Currency memory currency, MonetaryTypesLib.NoncedAmount memory _totalFee)\n    public\n    onlyEnabledServiceAction(SET_TOTAL_FEE_ACTION)\n    {\n        // Update total fees value\n        totalFeesMap[wallet][address(beneficiary)][destination][currency.ct][currency.id] = _totalFee;\n\n        // Emit event\n        emit SetTotalFeeEvent(wallet, beneficiary, destination, currency, _totalFee);\n    }\n\n    /// @notice Upgrade settlement\n    /// @param settlement The concerned settlement\n    function upgradeSettlement(DriipSettlementTypesLib.Settlement memory settlement)\n    public\n    onlyWhenUpgrading\n    {\n        // Require that settlement has not been initialized/upgraded already\n        require(\n            0 == walletNonceSettlementIndex[settlement.origin.wallet][settlement.origin.nonce],\n            \"Settlement exists for origin wallet and nonce [DriipSettlementState.sol:456]\"\n        );\n        require(\n            0 == walletNonceSettlementIndex[settlement.target.wallet][settlement.target.nonce],\n            \"Settlement exists for target wallet and nonce [DriipSettlementState.sol:460]\"\n        );\n\n        // Push the settlement\n        settlements.push(settlement);\n\n        // Get the 1-based index\n        uint256 index = settlements.length;\n\n        // Update indices\n        walletSettlementIndices[settlement.origin.wallet].push(index);\n        walletSettlementIndices[settlement.target.wallet].push(index);\n        walletNonceSettlementIndex[settlement.origin.wallet][settlement.origin.nonce] = index;\n        walletNonceSettlementIndex[settlement.target.wallet][settlement.target.nonce] = index;\n\n        // Emit event\n        emit UpgradeSettlementEvent(settlement);\n    }\n\n    /// @notice Upgrade settled amount\n    /// @param wallet The address of the concerned wallet\n    /// @param amount The new settled amount\n    /// @param currency The concerned currency\n    /// @param blockNumber The concerned block number\n    function upgradeSettledAmount(address wallet, int256 amount, MonetaryTypesLib.Currency memory currency,\n        uint256 blockNumber)\n    public\n    onlyWhenUpgrading\n    {\n        // Require that settlement amount has not been initialized/upgraded already\n        require(0 == walletCurrencyBlockNumberSettledAmount[wallet][currency.ct][currency.id][blockNumber],\n            \"Settled amount exists for wallet and currency [DriipSettlementState.sol:492]\");\n\n        // Upgrade the settled amount\n        walletCurrencyBlockNumberSettledAmount[wallet][currency.ct][currency.id][blockNumber] = amount;\n\n        // Add the block number to the set of settled block numbers\n        walletCurrencySettledBlockNumbers[wallet][currency.ct][currency.id].push(blockNumber);\n\n        // Emit event\n        emit UpgradeSettledAmountEvent(wallet, amount, currency, blockNumber);\n    }\n\n    //\n    // Private functions\n    // -----------------------------------------------------------------------------------------------------------------\n    function _walletSettledBlockNumber(address wallet, MonetaryTypesLib.Currency memory currency,\n        uint256 blockNumber)\n    private\n    view\n    returns (uint256)\n    {\n        for (uint256 i = walletCurrencySettledBlockNumbers[wallet][currency.ct][currency.id].length; i > 0; i--)\n            if (walletCurrencySettledBlockNumbers[wallet][currency.ct][currency.id][i - 1] <= blockNumber)\n                return walletCurrencySettledBlockNumbers[wallet][currency.ct][currency.id][i - 1];\n        return 0;\n    }\n}",
  "sourcePath": "/opt/buildagent/work/855e104608380c36/contracts/DriipSettlementState.sol",
  "compiler": {
    "name": "solc",
    "version": "0.5.12+commit.7709ece9.Emscripten.clang"
  },
  "schemaVersion": "2.0.3",
  "updatedAt": "2019-10-23T00:21:41.413Z"
}