{
  "contractName": "DriipSettlementChallengeByTrade",
  "abi": [
    {
      "inputs": [
        {
          "internalType": "address",
          "name": "deployer",
          "type": "address"
        }
      ],
      "payable": false,
      "stateMutability": "nonpayable",
      "type": "constructor"
    },
    {
      "anonymous": false,
      "inputs": [
        {
          "indexed": false,
          "internalType": "address",
          "name": "challengedWallet",
          "type": "address"
        },
        {
          "indexed": false,
          "internalType": "uint256",
          "name": "nonce",
          "type": "uint256"
        },
        {
          "indexed": false,
          "internalType": "int256",
          "name": "cumulativeTransferAmount",
          "type": "int256"
        },
        {
          "indexed": false,
          "internalType": "int256",
          "name": "stageAmount",
          "type": "int256"
        },
        {
          "indexed": false,
          "internalType": "int256",
          "name": "targetBalanceAmount",
          "type": "int256"
        },
        {
          "indexed": false,
          "internalType": "address",
          "name": "currencyCt",
          "type": "address"
        },
        {
          "indexed": false,
          "internalType": "uint256",
          "name": "currencyId",
          "type": "uint256"
        },
        {
          "indexed": false,
          "internalType": "address",
          "name": "challengerWallet",
          "type": "address"
        }
      ],
      "name": "ChallengeByTradeEvent",
      "type": "event"
    },
    {
      "anonymous": false,
      "inputs": [],
      "name": "FreezeBalanceTrackerEvent",
      "type": "event"
    },
    {
      "anonymous": false,
      "inputs": [],
      "name": "FreezeWalletLockerEvent",
      "type": "event"
    },
    {
      "anonymous": false,
      "inputs": [
        {
          "indexed": false,
          "internalType": "address",
          "name": "wallet",
          "type": "address"
        }
      ],
      "name": "SelfDestructionDisabledEvent",
      "type": "event"
    },
    {
      "anonymous": false,
      "inputs": [
        {
          "indexed": false,
          "internalType": "contract BalanceTracker",
          "name": "oldBalanceTracker",
          "type": "address"
        },
        {
          "indexed": false,
          "internalType": "contract BalanceTracker",
          "name": "newBalanceTracker",
          "type": "address"
        }
      ],
      "name": "SetBalanceTrackerEvent",
      "type": "event"
    },
    {
      "anonymous": false,
      "inputs": [
        {
          "indexed": false,
          "internalType": "contract Configuration",
          "name": "oldConfiguration",
          "type": "address"
        },
        {
          "indexed": false,
          "internalType": "contract Configuration",
          "name": "newConfiguration",
          "type": "address"
        }
      ],
      "name": "SetConfigurationEvent",
      "type": "event"
    },
    {
      "anonymous": false,
      "inputs": [
        {
          "indexed": false,
          "internalType": "address",
          "name": "oldDeployer",
          "type": "address"
        },
        {
          "indexed": false,
          "internalType": "address",
          "name": "newDeployer",
          "type": "address"
        }
      ],
      "name": "SetDeployerEvent",
      "type": "event"
    },
    {
      "anonymous": false,
      "inputs": [
        {
          "indexed": false,
          "internalType": "contract DriipSettlementChallengeState",
          "name": "oldDriipSettlementChallengeState",
          "type": "address"
        },
        {
          "indexed": false,
          "internalType": "contract DriipSettlementChallengeState",
          "name": "newDriipSettlementChallengeState",
          "type": "address"
        }
      ],
      "name": "SetDriipSettlementChallengeStateEvent",
      "type": "event"
    },
    {
      "anonymous": false,
      "inputs": [
        {
          "indexed": false,
          "internalType": "contract DriipSettlementDisputeByTrade",
          "name": "oldDriipSettlementDisputeByTrade",
          "type": "address"
        },
        {
          "indexed": false,
          "internalType": "contract DriipSettlementDisputeByTrade",
          "name": "newDriipSettlementDisputeByTrade",
          "type": "address"
        }
      ],
      "name": "SetDriipSettlementDisputeByTradeEvent",
      "type": "event"
    },
    {
      "anonymous": false,
      "inputs": [
        {
          "indexed": false,
          "internalType": "contract DriipSettlementState",
          "name": "oldDriipSettlementState",
          "type": "address"
        },
        {
          "indexed": false,
          "internalType": "contract DriipSettlementState",
          "name": "newDriipSettlementState",
          "type": "address"
        }
      ],
      "name": "SetDriipSettlementStateEvent",
      "type": "event"
    },
    {
      "anonymous": false,
      "inputs": [
        {
          "indexed": false,
          "internalType": "contract NullSettlementChallengeState",
          "name": "oldNullSettlementChallengeState",
          "type": "address"
        },
        {
          "indexed": false,
          "internalType": "contract NullSettlementChallengeState",
          "name": "newNullSettlementChallengeState",
          "type": "address"
        }
      ],
      "name": "SetNullSettlementChallengeStateEvent",
      "type": "event"
    },
    {
      "anonymous": false,
      "inputs": [
        {
          "indexed": false,
          "internalType": "address",
          "name": "oldOperator",
          "type": "address"
        },
        {
          "indexed": false,
          "internalType": "address",
          "name": "newOperator",
          "type": "address"
        }
      ],
      "name": "SetOperatorEvent",
      "type": "event"
    },
    {
      "anonymous": false,
      "inputs": [
        {
          "indexed": false,
          "internalType": "contract ValidatorV2",
          "name": "oldValidator",
          "type": "address"
        },
        {
          "indexed": false,
          "internalType": "contract ValidatorV2",
          "name": "newValidator",
          "type": "address"
        }
      ],
      "name": "SetValidatorEvent",
      "type": "event"
    },
    {
      "anonymous": false,
      "inputs": [
        {
          "indexed": false,
          "internalType": "contract WalletLocker",
          "name": "oldWalletLocker",
          "type": "address"
        },
        {
          "indexed": false,
          "internalType": "contract WalletLocker",
          "name": "newWalletLocker",
          "type": "address"
        }
      ],
      "name": "SetWalletLockerEvent",
      "type": "event"
    },
    {
      "anonymous": false,
      "inputs": [
        {
          "indexed": false,
          "internalType": "address",
          "name": "wallet",
          "type": "address"
        },
        {
          "indexed": false,
          "internalType": "uint256",
          "name": "intendedNonce",
          "type": "uint256"
        },
        {
          "indexed": false,
          "internalType": "int256",
          "name": "intendedStageAmount",
          "type": "int256"
        },
        {
          "indexed": false,
          "internalType": "int256",
          "name": "intendedTargetBalanceAmount",
          "type": "int256"
        },
        {
          "indexed": false,
          "internalType": "address",
          "name": "intendedCurrencyCt",
          "type": "address"
        },
        {
          "indexed": false,
          "internalType": "uint256",
          "name": "intendedCurrencyId",
          "type": "uint256"
        },
        {
          "indexed": false,
          "internalType": "uint256",
          "name": "conjugateNonce",
          "type": "uint256"
        },
        {
          "indexed": false,
          "internalType": "int256",
          "name": "conjugateStageAmount",
          "type": "int256"
        },
        {
          "indexed": false,
          "internalType": "int256",
          "name": "conjugateTargetBalanceAmount",
          "type": "int256"
        },
        {
          "indexed": false,
          "internalType": "address",
          "name": "conjugateCurrencyCt",
          "type": "address"
        },
        {
          "indexed": false,
          "internalType": "uint256",
          "name": "conjugateCurrencyId",
          "type": "uint256"
        },
        {
          "indexed": false,
          "internalType": "address",
          "name": "proxy",
          "type": "address"
        }
      ],
      "name": "StartChallengeFromTradeByProxyEvent",
      "type": "event"
    },
    {
      "anonymous": false,
      "inputs": [
        {
          "indexed": false,
          "internalType": "address",
          "name": "wallet",
          "type": "address"
        },
        {
          "indexed": false,
          "internalType": "uint256",
          "name": "intendedNonce",
          "type": "uint256"
        },
        {
          "indexed": false,
          "internalType": "int256",
          "name": "intendedStageAmount",
          "type": "int256"
        },
        {
          "indexed": false,
          "internalType": "int256",
          "name": "intendedTargetBalanceAmount",
          "type": "int256"
        },
        {
          "indexed": false,
          "internalType": "address",
          "name": "intendedCurrencyCt",
          "type": "address"
        },
        {
          "indexed": false,
          "internalType": "uint256",
          "name": "intendedCurrencyId",
          "type": "uint256"
        },
        {
          "indexed": false,
          "internalType": "uint256",
          "name": "conjugateNonce",
          "type": "uint256"
        },
        {
          "indexed": false,
          "internalType": "int256",
          "name": "conjugateStageAmount",
          "type": "int256"
        },
        {
          "indexed": false,
          "internalType": "int256",
          "name": "conjugateTargetBalanceAmount",
          "type": "int256"
        },
        {
          "indexed": false,
          "internalType": "address",
          "name": "conjugateCurrencyCt",
          "type": "address"
        },
        {
          "indexed": false,
          "internalType": "uint256",
          "name": "conjugateCurrencyId",
          "type": "uint256"
        }
      ],
      "name": "StartChallengeFromTradeEvent",
      "type": "event"
    },
    {
      "anonymous": false,
      "inputs": [
        {
          "indexed": false,
          "internalType": "address",
          "name": "wallet",
          "type": "address"
        },
        {
          "indexed": false,
          "internalType": "uint256",
          "name": "nonce",
          "type": "uint256"
        },
        {
          "indexed": false,
          "internalType": "int256",
          "name": "cumulativeTransferAmount",
          "type": "int256"
        },
        {
          "indexed": false,
          "internalType": "int256",
          "name": "stageAmount",
          "type": "int256"
        },
        {
          "indexed": false,
          "internalType": "int256",
          "name": "targetBalanceAmount",
          "type": "int256"
        },
        {
          "indexed": false,
          "internalType": "address",
          "name": "currencyCt",
          "type": "address"
        },
        {
          "indexed": false,
          "internalType": "uint256",
          "name": "currencyId",
          "type": "uint256"
        },
        {
          "indexed": false,
          "internalType": "address",
          "name": "proxy",
          "type": "address"
        }
      ],
      "name": "StopChallengeByProxyEvent",
      "type": "event"
    },
    {
      "anonymous": false,
      "inputs": [
        {
          "indexed": false,
          "internalType": "address",
          "name": "wallet",
          "type": "address"
        },
        {
          "indexed": false,
          "internalType": "uint256",
          "name": "nonce",
          "type": "uint256"
        },
        {
          "indexed": false,
          "internalType": "int256",
          "name": "cumulativeTransferAmount",
          "type": "int256"
        },
        {
          "indexed": false,
          "internalType": "int256",
          "name": "stageAmount",
          "type": "int256"
        },
        {
          "indexed": false,
          "internalType": "int256",
          "name": "targetBalanceAmount",
          "type": "int256"
        },
        {
          "indexed": false,
          "internalType": "address",
          "name": "currencyCt",
          "type": "address"
        },
        {
          "indexed": false,
          "internalType": "uint256",
          "name": "currencyId",
          "type": "uint256"
        }
      ],
      "name": "StopChallengeEvent",
      "type": "event"
    },
    {
      "anonymous": false,
      "inputs": [
        {
          "indexed": false,
          "internalType": "address",
          "name": "wallet",
          "type": "address"
        }
      ],
      "name": "TriggerSelfDestructionEvent",
      "type": "event"
    },
    {
      "anonymous": false,
      "inputs": [
        {
          "indexed": false,
          "internalType": "address",
          "name": "challengedWallet",
          "type": "address"
        },
        {
          "indexed": false,
          "internalType": "uint256",
          "name": "nonce",
          "type": "uint256"
        },
        {
          "indexed": false,
          "internalType": "int256",
          "name": "cumulativeTransferAmount",
          "type": "int256"
        },
        {
          "indexed": false,
          "internalType": "int256",
          "name": "stageAmount",
          "type": "int256"
        },
        {
          "indexed": false,
          "internalType": "int256",
          "name": "targetBalanceAmount",
          "type": "int256"
        },
        {
          "indexed": false,
          "internalType": "address",
          "name": "currencyCt",
          "type": "address"
        },
        {
          "indexed": false,
          "internalType": "uint256",
          "name": "currencyId",
          "type": "uint256"
        },
        {
          "indexed": false,
          "internalType": "address",
          "name": "challengerWallet",
          "type": "address"
        }
      ],
      "name": "UnchallengeOrderByTradeEvent",
      "type": "event"
    },
    {
      "constant": true,
      "inputs": [],
      "name": "balanceTracker",
      "outputs": [
        {
          "internalType": "contract BalanceTracker",
          "name": "",
          "type": "address"
        }
      ],
      "payable": false,
      "stateMutability": "view",
      "type": "function"
    },
    {
      "constant": true,
      "inputs": [],
      "name": "balanceTrackerFrozen",
      "outputs": [
        {
          "internalType": "bool",
          "name": "",
          "type": "bool"
        }
      ],
      "payable": false,
      "stateMutability": "view",
      "type": "function"
    },
    {
      "constant": true,
      "inputs": [],
      "name": "configuration",
      "outputs": [
        {
          "internalType": "contract Configuration",
          "name": "",
          "type": "address"
        }
      ],
      "payable": false,
      "stateMutability": "view",
      "type": "function"
    },
    {
      "constant": true,
      "inputs": [],
      "name": "deployer",
      "outputs": [
        {
          "internalType": "address",
          "name": "",
          "type": "address"
        }
      ],
      "payable": false,
      "stateMutability": "view",
      "type": "function"
    },
    {
      "constant": true,
      "inputs": [],
      "name": "destructor",
      "outputs": [
        {
          "internalType": "address",
          "name": "",
          "type": "address"
        }
      ],
      "payable": false,
      "stateMutability": "view",
      "type": "function"
    },
    {
      "constant": false,
      "inputs": [],
      "name": "disableSelfDestruction",
      "outputs": [],
      "payable": false,
      "stateMutability": "nonpayable",
      "type": "function"
    },
    {
      "constant": true,
      "inputs": [],
      "name": "driipSettlementChallengeState",
      "outputs": [
        {
          "internalType": "contract DriipSettlementChallengeState",
          "name": "",
          "type": "address"
        }
      ],
      "payable": false,
      "stateMutability": "view",
      "type": "function"
    },
    {
      "constant": true,
      "inputs": [],
      "name": "driipSettlementDisputeByTrade",
      "outputs": [
        {
          "internalType": "contract DriipSettlementDisputeByTrade",
          "name": "",
          "type": "address"
        }
      ],
      "payable": false,
      "stateMutability": "view",
      "type": "function"
    },
    {
      "constant": true,
      "inputs": [],
      "name": "driipSettlementState",
      "outputs": [
        {
          "internalType": "contract DriipSettlementState",
          "name": "",
          "type": "address"
        }
      ],
      "payable": false,
      "stateMutability": "view",
      "type": "function"
    },
    {
      "constant": false,
      "inputs": [],
      "name": "freezeBalanceTracker",
      "outputs": [],
      "payable": false,
      "stateMutability": "nonpayable",
      "type": "function"
    },
    {
      "constant": false,
      "inputs": [],
      "name": "freezeWalletLocker",
      "outputs": [],
      "payable": false,
      "stateMutability": "nonpayable",
      "type": "function"
    },
    {
      "constant": true,
      "inputs": [],
      "name": "nullSettlementChallengeState",
      "outputs": [
        {
          "internalType": "contract NullSettlementChallengeState",
          "name": "",
          "type": "address"
        }
      ],
      "payable": false,
      "stateMutability": "view",
      "type": "function"
    },
    {
      "constant": true,
      "inputs": [],
      "name": "operator",
      "outputs": [
        {
          "internalType": "address",
          "name": "",
          "type": "address"
        }
      ],
      "payable": false,
      "stateMutability": "view",
      "type": "function"
    },
    {
      "constant": true,
      "inputs": [],
      "name": "selfDestructionDisabled",
      "outputs": [
        {
          "internalType": "bool",
          "name": "",
          "type": "bool"
        }
      ],
      "payable": false,
      "stateMutability": "view",
      "type": "function"
    },
    {
      "constant": false,
      "inputs": [
        {
          "internalType": "contract BalanceTracker",
          "name": "newBalanceTracker",
          "type": "address"
        }
      ],
      "name": "setBalanceTracker",
      "outputs": [],
      "payable": false,
      "stateMutability": "nonpayable",
      "type": "function"
    },
    {
      "constant": false,
      "inputs": [
        {
          "internalType": "contract Configuration",
          "name": "newConfiguration",
          "type": "address"
        }
      ],
      "name": "setConfiguration",
      "outputs": [],
      "payable": false,
      "stateMutability": "nonpayable",
      "type": "function"
    },
    {
      "constant": false,
      "inputs": [
        {
          "internalType": "address",
          "name": "newDeployer",
          "type": "address"
        }
      ],
      "name": "setDeployer",
      "outputs": [],
      "payable": false,
      "stateMutability": "nonpayable",
      "type": "function"
    },
    {
      "constant": false,
      "inputs": [
        {
          "internalType": "address",
          "name": "newOperator",
          "type": "address"
        }
      ],
      "name": "setOperator",
      "outputs": [],
      "payable": false,
      "stateMutability": "nonpayable",
      "type": "function"
    },
    {
      "constant": false,
      "inputs": [
        {
          "internalType": "contract ValidatorV2",
          "name": "newValidator",
          "type": "address"
        }
      ],
      "name": "setValidator",
      "outputs": [],
      "payable": false,
      "stateMutability": "nonpayable",
      "type": "function"
    },
    {
      "constant": false,
      "inputs": [
        {
          "internalType": "contract WalletLocker",
          "name": "newWalletLocker",
          "type": "address"
        }
      ],
      "name": "setWalletLocker",
      "outputs": [],
      "payable": false,
      "stateMutability": "nonpayable",
      "type": "function"
    },
    {
      "constant": false,
      "inputs": [],
      "name": "triggerSelfDestruction",
      "outputs": [],
      "payable": false,
      "stateMutability": "nonpayable",
      "type": "function"
    },
    {
      "constant": true,
      "inputs": [],
      "name": "validator",
      "outputs": [
        {
          "internalType": "contract ValidatorV2",
          "name": "",
          "type": "address"
        }
      ],
      "payable": false,
      "stateMutability": "view",
      "type": "function"
    },
    {
      "constant": true,
      "inputs": [],
      "name": "walletLocker",
      "outputs": [
        {
          "internalType": "contract WalletLocker",
          "name": "",
          "type": "address"
        }
      ],
      "payable": false,
      "stateMutability": "view",
      "type": "function"
    },
    {
      "constant": true,
      "inputs": [],
      "name": "walletLockerFrozen",
      "outputs": [
        {
          "internalType": "bool",
          "name": "",
          "type": "bool"
        }
      ],
      "payable": false,
      "stateMutability": "view",
      "type": "function"
    },
    {
      "constant": false,
      "inputs": [
        {
          "internalType": "contract DriipSettlementDisputeByTrade",
          "name": "newDriipSettlementDisputeByTrade",
          "type": "address"
        }
      ],
      "name": "setDriipSettlementDisputeByTrade",
      "outputs": [],
      "payable": false,
      "stateMutability": "nonpayable",
      "type": "function"
    },
    {
      "constant": false,
      "inputs": [
        {
          "internalType": "contract DriipSettlementChallengeState",
          "name": "newDriipSettlementChallengeState",
          "type": "address"
        }
      ],
      "name": "setDriipSettlementChallengeState",
      "outputs": [],
      "payable": false,
      "stateMutability": "nonpayable",
      "type": "function"
    },
    {
      "constant": false,
      "inputs": [
        {
          "internalType": "contract NullSettlementChallengeState",
          "name": "newNullSettlementChallengeState",
          "type": "address"
        }
      ],
      "name": "setNullSettlementChallengeState",
      "outputs": [],
      "payable": false,
      "stateMutability": "nonpayable",
      "type": "function"
    },
    {
      "constant": false,
      "inputs": [
        {
          "internalType": "contract DriipSettlementState",
          "name": "newDriipSettlementState",
          "type": "address"
        }
      ],
      "name": "setDriipSettlementState",
      "outputs": [],
      "payable": false,
      "stateMutability": "nonpayable",
      "type": "function"
    },
    {
      "constant": false,
      "inputs": [
        {
          "components": [
            {
              "internalType": "uint256",
              "name": "nonce",
              "type": "uint256"
            },
            {
              "internalType": "int256",
              "name": "amount",
              "type": "int256"
            },
            {
              "components": [
                {
                  "components": [
                    {
                      "internalType": "address",
                      "name": "ct",
                      "type": "address"
                    },
                    {
                      "internalType": "uint256",
                      "name": "id",
                      "type": "uint256"
                    }
                  ],
                  "internalType": "struct MonetaryTypesLib.Currency",
                  "name": "intended",
                  "type": "tuple"
                },
                {
                  "components": [
                    {
                      "internalType": "address",
                      "name": "ct",
                      "type": "address"
                    },
                    {
                      "internalType": "uint256",
                      "name": "id",
                      "type": "uint256"
                    }
                  ],
                  "internalType": "struct MonetaryTypesLib.Currency",
                  "name": "conjugate",
                  "type": "tuple"
                }
              ],
              "internalType": "struct NahmiiTypesLib.IntendedConjugateCurrency",
              "name": "currencies",
              "type": "tuple"
            },
            {
              "internalType": "int256",
              "name": "rate",
              "type": "int256"
            },
            {
              "components": [
                {
                  "internalType": "uint256",
                  "name": "nonce",
                  "type": "uint256"
                },
                {
                  "internalType": "address",
                  "name": "wallet",
                  "type": "address"
                },
                {
                  "internalType": "uint256",
                  "name": "rollingVolume",
                  "type": "uint256"
                },
                {
                  "internalType": "enum TradeTypesLib.LiquidityRole",
                  "name": "liquidityRole",
                  "type": "uint8"
                },
                {
                  "components": [
                    {
                      "internalType": "int256",
                      "name": "amount",
                      "type": "int256"
                    },
                    {
                      "components": [
                        {
                          "internalType": "bytes32",
                          "name": "wallet",
                          "type": "bytes32"
                        },
                        {
                          "internalType": "bytes32",
                          "name": "operator",
                          "type": "bytes32"
                        }
                      ],
                      "internalType": "struct NahmiiTypesLib.WalletOperatorHashes",
                      "name": "hashes",
                      "type": "tuple"
                    },
                    {
                      "components": [
                        {
                          "internalType": "int256",
                          "name": "current",
                          "type": "int256"
                        },
                        {
                          "internalType": "int256",
                          "name": "previous",
                          "type": "int256"
                        }
                      ],
                      "internalType": "struct NahmiiTypesLib.CurrentPreviousInt256",
                      "name": "residuals",
                      "type": "tuple"
                    }
                  ],
                  "internalType": "struct TradeTypesLib.TradeOrder",
                  "name": "order",
                  "type": "tuple"
                },
                {
                  "components": [
                    {
                      "components": [
                        {
                          "internalType": "int256",
                          "name": "current",
                          "type": "int256"
                        },
                        {
                          "internalType": "int256",
                          "name": "previous",
                          "type": "int256"
                        }
                      ],
                      "internalType": "struct NahmiiTypesLib.CurrentPreviousInt256",
                      "name": "intended",
                      "type": "tuple"
                    },
                    {
                      "components": [
                        {
                          "internalType": "int256",
                          "name": "current",
                          "type": "int256"
                        },
                        {
                          "internalType": "int256",
                          "name": "previous",
                          "type": "int256"
                        }
                      ],
                      "internalType": "struct NahmiiTypesLib.CurrentPreviousInt256",
                      "name": "conjugate",
                      "type": "tuple"
                    }
                  ],
                  "internalType": "struct NahmiiTypesLib.IntendedConjugateCurrentPreviousInt256",
                  "name": "balances",
                  "type": "tuple"
                },
                {
                  "components": [
                    {
                      "components": [
                        {
                          "internalType": "int256",
                          "name": "amount",
                          "type": "int256"
                        },
                        {
                          "components": [
                            {
                              "internalType": "address",
                              "name": "ct",
                              "type": "address"
                            },
                            {
                              "internalType": "uint256",
                              "name": "id",
                              "type": "uint256"
                            }
                          ],
                          "internalType": "struct MonetaryTypesLib.Currency",
                          "name": "currency",
                          "type": "tuple"
                        }
                      ],
                      "internalType": "struct MonetaryTypesLib.Figure",
                      "name": "single",
                      "type": "tuple"
                    },
                    {
                      "components": [
                        {
                          "internalType": "uint256",
                          "name": "originId",
                          "type": "uint256"
                        },
                        {
                          "components": [
                            {
                              "internalType": "int256",
                              "name": "amount",
                              "type": "int256"
                            },
                            {
                              "components": [
                                {
                                  "internalType": "address",
                                  "name": "ct",
                                  "type": "address"
                                },
                                {
                                  "internalType": "uint256",
                                  "name": "id",
                                  "type": "uint256"
                                }
                              ],
                              "internalType": "struct MonetaryTypesLib.Currency",
                              "name": "currency",
                              "type": "tuple"
                            }
                          ],
                          "internalType": "struct MonetaryTypesLib.Figure",
                          "name": "figure",
                          "type": "tuple"
                        }
                      ],
                      "internalType": "struct NahmiiTypesLib.OriginFigure[]",
                      "name": "total",
                      "type": "tuple[]"
                    }
                  ],
                  "internalType": "struct NahmiiTypesLib.SingleFigureTotalOriginFigures",
                  "name": "fees",
                  "type": "tuple"
                }
              ],
              "internalType": "struct TradeTypesLib.TradeParty",
              "name": "buyer",
              "type": "tuple"
            },
            {
              "components": [
                {
                  "internalType": "uint256",
                  "name": "nonce",
                  "type": "uint256"
                },
                {
                  "internalType": "address",
                  "name": "wallet",
                  "type": "address"
                },
                {
                  "internalType": "uint256",
                  "name": "rollingVolume",
                  "type": "uint256"
                },
                {
                  "internalType": "enum TradeTypesLib.LiquidityRole",
                  "name": "liquidityRole",
                  "type": "uint8"
                },
                {
                  "components": [
                    {
                      "internalType": "int256",
                      "name": "amount",
                      "type": "int256"
                    },
                    {
                      "components": [
                        {
                          "internalType": "bytes32",
                          "name": "wallet",
                          "type": "bytes32"
                        },
                        {
                          "internalType": "bytes32",
                          "name": "operator",
                          "type": "bytes32"
                        }
                      ],
                      "internalType": "struct NahmiiTypesLib.WalletOperatorHashes",
                      "name": "hashes",
                      "type": "tuple"
                    },
                    {
                      "components": [
                        {
                          "internalType": "int256",
                          "name": "current",
                          "type": "int256"
                        },
                        {
                          "internalType": "int256",
                          "name": "previous",
                          "type": "int256"
                        }
                      ],
                      "internalType": "struct NahmiiTypesLib.CurrentPreviousInt256",
                      "name": "residuals",
                      "type": "tuple"
                    }
                  ],
                  "internalType": "struct TradeTypesLib.TradeOrder",
                  "name": "order",
                  "type": "tuple"
                },
                {
                  "components": [
                    {
                      "components": [
                        {
                          "internalType": "int256",
                          "name": "current",
                          "type": "int256"
                        },
                        {
                          "internalType": "int256",
                          "name": "previous",
                          "type": "int256"
                        }
                      ],
                      "internalType": "struct NahmiiTypesLib.CurrentPreviousInt256",
                      "name": "intended",
                      "type": "tuple"
                    },
                    {
                      "components": [
                        {
                          "internalType": "int256",
                          "name": "current",
                          "type": "int256"
                        },
                        {
                          "internalType": "int256",
                          "name": "previous",
                          "type": "int256"
                        }
                      ],
                      "internalType": "struct NahmiiTypesLib.CurrentPreviousInt256",
                      "name": "conjugate",
                      "type": "tuple"
                    }
                  ],
                  "internalType": "struct NahmiiTypesLib.IntendedConjugateCurrentPreviousInt256",
                  "name": "balances",
                  "type": "tuple"
                },
                {
                  "components": [
                    {
                      "components": [
                        {
                          "internalType": "int256",
                          "name": "amount",
                          "type": "int256"
                        },
                        {
                          "components": [
                            {
                              "internalType": "address",
                              "name": "ct",
                              "type": "address"
                            },
                            {
                              "internalType": "uint256",
                              "name": "id",
                              "type": "uint256"
                            }
                          ],
                          "internalType": "struct MonetaryTypesLib.Currency",
                          "name": "currency",
                          "type": "tuple"
                        }
                      ],
                      "internalType": "struct MonetaryTypesLib.Figure",
                      "name": "single",
                      "type": "tuple"
                    },
                    {
                      "components": [
                        {
                          "internalType": "uint256",
                          "name": "originId",
                          "type": "uint256"
                        },
                        {
                          "components": [
                            {
                              "internalType": "int256",
                              "name": "amount",
                              "type": "int256"
                            },
                            {
                              "components": [
                                {
                                  "internalType": "address",
                                  "name": "ct",
                                  "type": "address"
                                },
                                {
                                  "internalType": "uint256",
                                  "name": "id",
                                  "type": "uint256"
                                }
                              ],
                              "internalType": "struct MonetaryTypesLib.Currency",
                              "name": "currency",
                              "type": "tuple"
                            }
                          ],
                          "internalType": "struct MonetaryTypesLib.Figure",
                          "name": "figure",
                          "type": "tuple"
                        }
                      ],
                      "internalType": "struct NahmiiTypesLib.OriginFigure[]",
                      "name": "total",
                      "type": "tuple[]"
                    }
                  ],
                  "internalType": "struct NahmiiTypesLib.SingleFigureTotalOriginFigures",
                  "name": "fees",
                  "type": "tuple"
                }
              ],
              "internalType": "struct TradeTypesLib.TradeParty",
              "name": "seller",
              "type": "tuple"
            },
            {
              "components": [
                {
                  "components": [
                    {
                      "internalType": "int256",
                      "name": "single",
                      "type": "int256"
                    },
                    {
                      "internalType": "int256",
                      "name": "total",
                      "type": "int256"
                    }
                  ],
                  "internalType": "struct NahmiiTypesLib.SingleTotalInt256",
                  "name": "intended",
                  "type": "tuple"
                },
                {
                  "components": [
                    {
                      "internalType": "int256",
                      "name": "single",
                      "type": "int256"
                    },
                    {
                      "internalType": "int256",
                      "name": "total",
                      "type": "int256"
                    }
                  ],
                  "internalType": "struct NahmiiTypesLib.SingleTotalInt256",
                  "name": "conjugate",
                  "type": "tuple"
                }
              ],
              "internalType": "struct NahmiiTypesLib.IntendedConjugateSingleTotalInt256",
              "name": "transfers",
              "type": "tuple"
            },
            {
              "components": [
                {
                  "internalType": "bytes32",
                  "name": "hash",
                  "type": "bytes32"
                },
                {
                  "components": [
                    {
                      "internalType": "bytes32",
                      "name": "r",
                      "type": "bytes32"
                    },
                    {
                      "internalType": "bytes32",
                      "name": "s",
                      "type": "bytes32"
                    },
                    {
                      "internalType": "uint8",
                      "name": "v",
                      "type": "uint8"
                    }
                  ],
                  "internalType": "struct NahmiiTypesLib.Signature",
                  "name": "signature",
                  "type": "tuple"
                }
              ],
              "internalType": "struct NahmiiTypesLib.Seal",
              "name": "seal",
              "type": "tuple"
            },
            {
              "internalType": "uint256",
              "name": "blockNumber",
              "type": "uint256"
            },
            {
              "internalType": "uint256",
              "name": "operatorId",
              "type": "uint256"
            }
          ],
          "internalType": "struct TradeTypesLib.Trade",
          "name": "trade",
          "type": "tuple"
        },
        {
          "internalType": "int256",
          "name": "intendedStageAmount",
          "type": "int256"
        },
        {
          "internalType": "int256",
          "name": "conjugateStageAmount",
          "type": "int256"
        }
      ],
      "name": "startChallengeFromTrade",
      "outputs": [],
      "payable": false,
      "stateMutability": "nonpayable",
      "type": "function"
    },
    {
      "constant": false,
      "inputs": [
        {
          "internalType": "address",
          "name": "wallet",
          "type": "address"
        },
        {
          "components": [
            {
              "internalType": "uint256",
              "name": "nonce",
              "type": "uint256"
            },
            {
              "internalType": "int256",
              "name": "amount",
              "type": "int256"
            },
            {
              "components": [
                {
                  "components": [
                    {
                      "internalType": "address",
                      "name": "ct",
                      "type": "address"
                    },
                    {
                      "internalType": "uint256",
                      "name": "id",
                      "type": "uint256"
                    }
                  ],
                  "internalType": "struct MonetaryTypesLib.Currency",
                  "name": "intended",
                  "type": "tuple"
                },
                {
                  "components": [
                    {
                      "internalType": "address",
                      "name": "ct",
                      "type": "address"
                    },
                    {
                      "internalType": "uint256",
                      "name": "id",
                      "type": "uint256"
                    }
                  ],
                  "internalType": "struct MonetaryTypesLib.Currency",
                  "name": "conjugate",
                  "type": "tuple"
                }
              ],
              "internalType": "struct NahmiiTypesLib.IntendedConjugateCurrency",
              "name": "currencies",
              "type": "tuple"
            },
            {
              "internalType": "int256",
              "name": "rate",
              "type": "int256"
            },
            {
              "components": [
                {
                  "internalType": "uint256",
                  "name": "nonce",
                  "type": "uint256"
                },
                {
                  "internalType": "address",
                  "name": "wallet",
                  "type": "address"
                },
                {
                  "internalType": "uint256",
                  "name": "rollingVolume",
                  "type": "uint256"
                },
                {
                  "internalType": "enum TradeTypesLib.LiquidityRole",
                  "name": "liquidityRole",
                  "type": "uint8"
                },
                {
                  "components": [
                    {
                      "internalType": "int256",
                      "name": "amount",
                      "type": "int256"
                    },
                    {
                      "components": [
                        {
                          "internalType": "bytes32",
                          "name": "wallet",
                          "type": "bytes32"
                        },
                        {
                          "internalType": "bytes32",
                          "name": "operator",
                          "type": "bytes32"
                        }
                      ],
                      "internalType": "struct NahmiiTypesLib.WalletOperatorHashes",
                      "name": "hashes",
                      "type": "tuple"
                    },
                    {
                      "components": [
                        {
                          "internalType": "int256",
                          "name": "current",
                          "type": "int256"
                        },
                        {
                          "internalType": "int256",
                          "name": "previous",
                          "type": "int256"
                        }
                      ],
                      "internalType": "struct NahmiiTypesLib.CurrentPreviousInt256",
                      "name": "residuals",
                      "type": "tuple"
                    }
                  ],
                  "internalType": "struct TradeTypesLib.TradeOrder",
                  "name": "order",
                  "type": "tuple"
                },
                {
                  "components": [
                    {
                      "components": [
                        {
                          "internalType": "int256",
                          "name": "current",
                          "type": "int256"
                        },
                        {
                          "internalType": "int256",
                          "name": "previous",
                          "type": "int256"
                        }
                      ],
                      "internalType": "struct NahmiiTypesLib.CurrentPreviousInt256",
                      "name": "intended",
                      "type": "tuple"
                    },
                    {
                      "components": [
                        {
                          "internalType": "int256",
                          "name": "current",
                          "type": "int256"
                        },
                        {
                          "internalType": "int256",
                          "name": "previous",
                          "type": "int256"
                        }
                      ],
                      "internalType": "struct NahmiiTypesLib.CurrentPreviousInt256",
                      "name": "conjugate",
                      "type": "tuple"
                    }
                  ],
                  "internalType": "struct NahmiiTypesLib.IntendedConjugateCurrentPreviousInt256",
                  "name": "balances",
                  "type": "tuple"
                },
                {
                  "components": [
                    {
                      "components": [
                        {
                          "internalType": "int256",
                          "name": "amount",
                          "type": "int256"
                        },
                        {
                          "components": [
                            {
                              "internalType": "address",
                              "name": "ct",
                              "type": "address"
                            },
                            {
                              "internalType": "uint256",
                              "name": "id",
                              "type": "uint256"
                            }
                          ],
                          "internalType": "struct MonetaryTypesLib.Currency",
                          "name": "currency",
                          "type": "tuple"
                        }
                      ],
                      "internalType": "struct MonetaryTypesLib.Figure",
                      "name": "single",
                      "type": "tuple"
                    },
                    {
                      "components": [
                        {
                          "internalType": "uint256",
                          "name": "originId",
                          "type": "uint256"
                        },
                        {
                          "components": [
                            {
                              "internalType": "int256",
                              "name": "amount",
                              "type": "int256"
                            },
                            {
                              "components": [
                                {
                                  "internalType": "address",
                                  "name": "ct",
                                  "type": "address"
                                },
                                {
                                  "internalType": "uint256",
                                  "name": "id",
                                  "type": "uint256"
                                }
                              ],
                              "internalType": "struct MonetaryTypesLib.Currency",
                              "name": "currency",
                              "type": "tuple"
                            }
                          ],
                          "internalType": "struct MonetaryTypesLib.Figure",
                          "name": "figure",
                          "type": "tuple"
                        }
                      ],
                      "internalType": "struct NahmiiTypesLib.OriginFigure[]",
                      "name": "total",
                      "type": "tuple[]"
                    }
                  ],
                  "internalType": "struct NahmiiTypesLib.SingleFigureTotalOriginFigures",
                  "name": "fees",
                  "type": "tuple"
                }
              ],
              "internalType": "struct TradeTypesLib.TradeParty",
              "name": "buyer",
              "type": "tuple"
            },
            {
              "components": [
                {
                  "internalType": "uint256",
                  "name": "nonce",
                  "type": "uint256"
                },
                {
                  "internalType": "address",
                  "name": "wallet",
                  "type": "address"
                },
                {
                  "internalType": "uint256",
                  "name": "rollingVolume",
                  "type": "uint256"
                },
                {
                  "internalType": "enum TradeTypesLib.LiquidityRole",
                  "name": "liquidityRole",
                  "type": "uint8"
                },
                {
                  "components": [
                    {
                      "internalType": "int256",
                      "name": "amount",
                      "type": "int256"
                    },
                    {
                      "components": [
                        {
                          "internalType": "bytes32",
                          "name": "wallet",
                          "type": "bytes32"
                        },
                        {
                          "internalType": "bytes32",
                          "name": "operator",
                          "type": "bytes32"
                        }
                      ],
                      "internalType": "struct NahmiiTypesLib.WalletOperatorHashes",
                      "name": "hashes",
                      "type": "tuple"
                    },
                    {
                      "components": [
                        {
                          "internalType": "int256",
                          "name": "current",
                          "type": "int256"
                        },
                        {
                          "internalType": "int256",
                          "name": "previous",
                          "type": "int256"
                        }
                      ],
                      "internalType": "struct NahmiiTypesLib.CurrentPreviousInt256",
                      "name": "residuals",
                      "type": "tuple"
                    }
                  ],
                  "internalType": "struct TradeTypesLib.TradeOrder",
                  "name": "order",
                  "type": "tuple"
                },
                {
                  "components": [
                    {
                      "components": [
                        {
                          "internalType": "int256",
                          "name": "current",
                          "type": "int256"
                        },
                        {
                          "internalType": "int256",
                          "name": "previous",
                          "type": "int256"
                        }
                      ],
                      "internalType": "struct NahmiiTypesLib.CurrentPreviousInt256",
                      "name": "intended",
                      "type": "tuple"
                    },
                    {
                      "components": [
                        {
                          "internalType": "int256",
                          "name": "current",
                          "type": "int256"
                        },
                        {
                          "internalType": "int256",
                          "name": "previous",
                          "type": "int256"
                        }
                      ],
                      "internalType": "struct NahmiiTypesLib.CurrentPreviousInt256",
                      "name": "conjugate",
                      "type": "tuple"
                    }
                  ],
                  "internalType": "struct NahmiiTypesLib.IntendedConjugateCurrentPreviousInt256",
                  "name": "balances",
                  "type": "tuple"
                },
                {
                  "components": [
                    {
                      "components": [
                        {
                          "internalType": "int256",
                          "name": "amount",
                          "type": "int256"
                        },
                        {
                          "components": [
                            {
                              "internalType": "address",
                              "name": "ct",
                              "type": "address"
                            },
                            {
                              "internalType": "uint256",
                              "name": "id",
                              "type": "uint256"
                            }
                          ],
                          "internalType": "struct MonetaryTypesLib.Currency",
                          "name": "currency",
                          "type": "tuple"
                        }
                      ],
                      "internalType": "struct MonetaryTypesLib.Figure",
                      "name": "single",
                      "type": "tuple"
                    },
                    {
                      "components": [
                        {
                          "internalType": "uint256",
                          "name": "originId",
                          "type": "uint256"
                        },
                        {
                          "components": [
                            {
                              "internalType": "int256",
                              "name": "amount",
                              "type": "int256"
                            },
                            {
                              "components": [
                                {
                                  "internalType": "address",
                                  "name": "ct",
                                  "type": "address"
                                },
                                {
                                  "internalType": "uint256",
                                  "name": "id",
                                  "type": "uint256"
                                }
                              ],
                              "internalType": "struct MonetaryTypesLib.Currency",
                              "name": "currency",
                              "type": "tuple"
                            }
                          ],
                          "internalType": "struct MonetaryTypesLib.Figure",
                          "name": "figure",
                          "type": "tuple"
                        }
                      ],
                      "internalType": "struct NahmiiTypesLib.OriginFigure[]",
                      "name": "total",
                      "type": "tuple[]"
                    }
                  ],
                  "internalType": "struct NahmiiTypesLib.SingleFigureTotalOriginFigures",
                  "name": "fees",
                  "type": "tuple"
                }
              ],
              "internalType": "struct TradeTypesLib.TradeParty",
              "name": "seller",
              "type": "tuple"
            },
            {
              "components": [
                {
                  "components": [
                    {
                      "internalType": "int256",
                      "name": "single",
                      "type": "int256"
                    },
                    {
                      "internalType": "int256",
                      "name": "total",
                      "type": "int256"
                    }
                  ],
                  "internalType": "struct NahmiiTypesLib.SingleTotalInt256",
                  "name": "intended",
                  "type": "tuple"
                },
                {
                  "components": [
                    {
                      "internalType": "int256",
                      "name": "single",
                      "type": "int256"
                    },
                    {
                      "internalType": "int256",
                      "name": "total",
                      "type": "int256"
                    }
                  ],
                  "internalType": "struct NahmiiTypesLib.SingleTotalInt256",
                  "name": "conjugate",
                  "type": "tuple"
                }
              ],
              "internalType": "struct NahmiiTypesLib.IntendedConjugateSingleTotalInt256",
              "name": "transfers",
              "type": "tuple"
            },
            {
              "components": [
                {
                  "internalType": "bytes32",
                  "name": "hash",
                  "type": "bytes32"
                },
                {
                  "components": [
                    {
                      "internalType": "bytes32",
                      "name": "r",
                      "type": "bytes32"
                    },
                    {
                      "internalType": "bytes32",
                      "name": "s",
                      "type": "bytes32"
                    },
                    {
                      "internalType": "uint8",
                      "name": "v",
                      "type": "uint8"
                    }
                  ],
                  "internalType": "struct NahmiiTypesLib.Signature",
                  "name": "signature",
                  "type": "tuple"
                }
              ],
              "internalType": "struct NahmiiTypesLib.Seal",
              "name": "seal",
              "type": "tuple"
            },
            {
              "internalType": "uint256",
              "name": "blockNumber",
              "type": "uint256"
            },
            {
              "internalType": "uint256",
              "name": "operatorId",
              "type": "uint256"
            }
          ],
          "internalType": "struct TradeTypesLib.Trade",
          "name": "trade",
          "type": "tuple"
        },
        {
          "internalType": "int256",
          "name": "intendedStageAmount",
          "type": "int256"
        },
        {
          "internalType": "int256",
          "name": "conjugateStageAmount",
          "type": "int256"
        }
      ],
      "name": "startChallengeFromTradeByProxy",
      "outputs": [],
      "payable": false,
      "stateMutability": "nonpayable",
      "type": "function"
    },
    {
      "constant": false,
      "inputs": [
        {
          "internalType": "address",
          "name": "currencyCt",
          "type": "address"
        },
        {
          "internalType": "uint256",
          "name": "currencyId",
          "type": "uint256"
        }
      ],
      "name": "stopChallenge",
      "outputs": [],
      "payable": false,
      "stateMutability": "nonpayable",
      "type": "function"
    },
    {
      "constant": false,
      "inputs": [
        {
          "internalType": "address",
          "name": "wallet",
          "type": "address"
        },
        {
          "internalType": "address",
          "name": "currencyCt",
          "type": "address"
        },
        {
          "internalType": "uint256",
          "name": "currencyId",
          "type": "uint256"
        }
      ],
      "name": "stopChallengeByProxy",
      "outputs": [],
      "payable": false,
      "stateMutability": "nonpayable",
      "type": "function"
    },
    {
      "constant": true,
      "inputs": [
        {
          "internalType": "address",
          "name": "wallet",
          "type": "address"
        },
        {
          "internalType": "address",
          "name": "currencyCt",
          "type": "address"
        },
        {
          "internalType": "uint256",
          "name": "currencyId",
          "type": "uint256"
        }
      ],
      "name": "hasProposalExpired",
      "outputs": [
        {
          "internalType": "bool",
          "name": "",
          "type": "bool"
        }
      ],
      "payable": false,
      "stateMutability": "view",
      "type": "function"
    },
    {
      "constant": true,
      "inputs": [
        {
          "internalType": "address",
          "name": "wallet",
          "type": "address"
        },
        {
          "internalType": "address",
          "name": "currencyCt",
          "type": "address"
        },
        {
          "internalType": "uint256",
          "name": "currencyId",
          "type": "uint256"
        }
      ],
      "name": "proposalNonce",
      "outputs": [
        {
          "internalType": "uint256",
          "name": "",
          "type": "uint256"
        }
      ],
      "payable": false,
      "stateMutability": "view",
      "type": "function"
    },
    {
      "constant": true,
      "inputs": [
        {
          "internalType": "address",
          "name": "wallet",
          "type": "address"
        },
        {
          "internalType": "address",
          "name": "currencyCt",
          "type": "address"
        },
        {
          "internalType": "uint256",
          "name": "currencyId",
          "type": "uint256"
        }
      ],
      "name": "proposalReferenceBlockNumber",
      "outputs": [
        {
          "internalType": "uint256",
          "name": "",
          "type": "uint256"
        }
      ],
      "payable": false,
      "stateMutability": "view",
      "type": "function"
    },
    {
      "constant": true,
      "inputs": [
        {
          "internalType": "address",
          "name": "wallet",
          "type": "address"
        },
        {
          "internalType": "address",
          "name": "currencyCt",
          "type": "address"
        },
        {
          "internalType": "uint256",
          "name": "currencyId",
          "type": "uint256"
        }
      ],
      "name": "proposalExpirationTime",
      "outputs": [
        {
          "internalType": "uint256",
          "name": "",
          "type": "uint256"
        }
      ],
      "payable": false,
      "stateMutability": "view",
      "type": "function"
    },
    {
      "constant": true,
      "inputs": [
        {
          "internalType": "address",
          "name": "wallet",
          "type": "address"
        },
        {
          "internalType": "address",
          "name": "currencyCt",
          "type": "address"
        },
        {
          "internalType": "uint256",
          "name": "currencyId",
          "type": "uint256"
        }
      ],
      "name": "proposalStatus",
      "outputs": [
        {
          "internalType": "enum SettlementChallengeTypesLib.Status",
          "name": "",
          "type": "uint8"
        }
      ],
      "payable": false,
      "stateMutability": "view",
      "type": "function"
    },
    {
      "constant": true,
      "inputs": [
        {
          "internalType": "address",
          "name": "wallet",
          "type": "address"
        },
        {
          "internalType": "address",
          "name": "currencyCt",
          "type": "address"
        },
        {
          "internalType": "uint256",
          "name": "currencyId",
          "type": "uint256"
        }
      ],
      "name": "proposalStageAmount",
      "outputs": [
        {
          "internalType": "int256",
          "name": "",
          "type": "int256"
        }
      ],
      "payable": false,
      "stateMutability": "view",
      "type": "function"
    },
    {
      "constant": true,
      "inputs": [
        {
          "internalType": "address",
          "name": "wallet",
          "type": "address"
        },
        {
          "internalType": "address",
          "name": "currencyCt",
          "type": "address"
        },
        {
          "internalType": "uint256",
          "name": "currencyId",
          "type": "uint256"
        }
      ],
      "name": "proposalTargetBalanceAmount",
      "outputs": [
        {
          "internalType": "int256",
          "name": "",
          "type": "int256"
        }
      ],
      "payable": false,
      "stateMutability": "view",
      "type": "function"
    },
    {
      "constant": true,
      "inputs": [
        {
          "internalType": "address",
          "name": "wallet",
          "type": "address"
        },
        {
          "internalType": "address",
          "name": "currencyCt",
          "type": "address"
        },
        {
          "internalType": "uint256",
          "name": "currencyId",
          "type": "uint256"
        }
      ],
      "name": "proposalChallengedHash",
      "outputs": [
        {
          "internalType": "bytes32",
          "name": "",
          "type": "bytes32"
        }
      ],
      "payable": false,
      "stateMutability": "view",
      "type": "function"
    },
    {
      "constant": true,
      "inputs": [
        {
          "internalType": "address",
          "name": "wallet",
          "type": "address"
        },
        {
          "internalType": "address",
          "name": "currencyCt",
          "type": "address"
        },
        {
          "internalType": "uint256",
          "name": "currencyId",
          "type": "uint256"
        }
      ],
      "name": "proposalChallengedKind",
      "outputs": [
        {
          "internalType": "string",
          "name": "",
          "type": "string"
        }
      ],
      "payable": false,
      "stateMutability": "view",
      "type": "function"
    },
    {
      "constant": true,
      "inputs": [
        {
          "internalType": "address",
          "name": "wallet",
          "type": "address"
        },
        {
          "internalType": "address",
          "name": "currencyCt",
          "type": "address"
        },
        {
          "internalType": "uint256",
          "name": "currencyId",
          "type": "uint256"
        }
      ],
      "name": "proposalWalletInitiated",
      "outputs": [
        {
          "internalType": "bool",
          "name": "",
          "type": "bool"
        }
      ],
      "payable": false,
      "stateMutability": "view",
      "type": "function"
    },
    {
      "constant": true,
      "inputs": [
        {
          "internalType": "address",
          "name": "wallet",
          "type": "address"
        },
        {
          "internalType": "address",
          "name": "currencyCt",
          "type": "address"
        },
        {
          "internalType": "uint256",
          "name": "currencyId",
          "type": "uint256"
        }
      ],
      "name": "proposalDisqualificationChallenger",
      "outputs": [
        {
          "internalType": "address",
          "name": "",
          "type": "address"
        }
      ],
      "payable": false,
      "stateMutability": "view",
      "type": "function"
    },
    {
      "constant": true,
      "inputs": [
        {
          "internalType": "address",
          "name": "wallet",
          "type": "address"
        },
        {
          "internalType": "address",
          "name": "currencyCt",
          "type": "address"
        },
        {
          "internalType": "uint256",
          "name": "currencyId",
          "type": "uint256"
        }
      ],
      "name": "proposalDisqualificationBlockNumber",
      "outputs": [
        {
          "internalType": "uint256",
          "name": "",
          "type": "uint256"
        }
      ],
      "payable": false,
      "stateMutability": "view",
      "type": "function"
    },
    {
      "constant": true,
      "inputs": [
        {
          "internalType": "address",
          "name": "wallet",
          "type": "address"
        },
        {
          "internalType": "address",
          "name": "currencyCt",
          "type": "address"
        },
        {
          "internalType": "uint256",
          "name": "currencyId",
          "type": "uint256"
        }
      ],
      "name": "proposalDisqualificationCandidateKind",
      "outputs": [
        {
          "internalType": "string",
          "name": "",
          "type": "string"
        }
      ],
      "payable": false,
      "stateMutability": "view",
      "type": "function"
    },
    {
      "constant": true,
      "inputs": [
        {
          "internalType": "address",
          "name": "wallet",
          "type": "address"
        },
        {
          "internalType": "address",
          "name": "currencyCt",
          "type": "address"
        },
        {
          "internalType": "uint256",
          "name": "currencyId",
          "type": "uint256"
        }
      ],
      "name": "proposalDisqualificationCandidateHash",
      "outputs": [
        {
          "internalType": "bytes32",
          "name": "",
          "type": "bytes32"
        }
      ],
      "payable": false,
      "stateMutability": "view",
      "type": "function"
    },
    {
      "constant": false,
      "inputs": [
        {
          "components": [
            {
              "internalType": "uint256",
              "name": "nonce",
              "type": "uint256"
            },
            {
              "internalType": "address",
              "name": "wallet",
              "type": "address"
            },
            {
              "components": [
                {
                  "internalType": "enum TradeTypesLib.Intention",
                  "name": "intention",
                  "type": "uint8"
                },
                {
                  "internalType": "int256",
                  "name": "amount",
                  "type": "int256"
                },
                {
                  "components": [
                    {
                      "components": [
                        {
                          "internalType": "address",
                          "name": "ct",
                          "type": "address"
                        },
                        {
                          "internalType": "uint256",
                          "name": "id",
                          "type": "uint256"
                        }
                      ],
                      "internalType": "struct MonetaryTypesLib.Currency",
                      "name": "intended",
                      "type": "tuple"
                    },
                    {
                      "components": [
                        {
                          "internalType": "address",
                          "name": "ct",
                          "type": "address"
                        },
                        {
                          "internalType": "uint256",
                          "name": "id",
                          "type": "uint256"
                        }
                      ],
                      "internalType": "struct MonetaryTypesLib.Currency",
                      "name": "conjugate",
                      "type": "tuple"
                    }
                  ],
                  "internalType": "struct NahmiiTypesLib.IntendedConjugateCurrency",
                  "name": "currencies",
                  "type": "tuple"
                },
                {
                  "internalType": "int256",
                  "name": "rate",
                  "type": "int256"
                },
                {
                  "components": [
                    {
                      "internalType": "int256",
                      "name": "current",
                      "type": "int256"
                    },
                    {
                      "internalType": "int256",
                      "name": "previous",
                      "type": "int256"
                    }
                  ],
                  "internalType": "struct NahmiiTypesLib.CurrentPreviousInt256",
                  "name": "residuals",
                  "type": "tuple"
                }
              ],
              "internalType": "struct TradeTypesLib.OrderPlacement",
              "name": "placement",
              "type": "tuple"
            },
            {
              "components": [
                {
                  "components": [
                    {
                      "internalType": "bytes32",
                      "name": "hash",
                      "type": "bytes32"
                    },
                    {
                      "components": [
                        {
                          "internalType": "bytes32",
                          "name": "r",
                          "type": "bytes32"
                        },
                        {
                          "internalType": "bytes32",
                          "name": "s",
                          "type": "bytes32"
                        },
                        {
                          "internalType": "uint8",
                          "name": "v",
                          "type": "uint8"
                        }
                      ],
                      "internalType": "struct NahmiiTypesLib.Signature",
                      "name": "signature",
                      "type": "tuple"
                    }
                  ],
                  "internalType": "struct NahmiiTypesLib.Seal",
                  "name": "wallet",
                  "type": "tuple"
                },
                {
                  "components": [
                    {
                      "internalType": "bytes32",
                      "name": "hash",
                      "type": "bytes32"
                    },
                    {
                      "components": [
                        {
                          "internalType": "bytes32",
                          "name": "r",
                          "type": "bytes32"
                        },
                        {
                          "internalType": "bytes32",
                          "name": "s",
                          "type": "bytes32"
                        },
                        {
                          "internalType": "uint8",
                          "name": "v",
                          "type": "uint8"
                        }
                      ],
                      "internalType": "struct NahmiiTypesLib.Signature",
                      "name": "signature",
                      "type": "tuple"
                    }
                  ],
                  "internalType": "struct NahmiiTypesLib.Seal",
                  "name": "operator",
                  "type": "tuple"
                }
              ],
              "internalType": "struct NahmiiTypesLib.WalletOperatorSeal",
              "name": "seals",
              "type": "tuple"
            },
            {
              "internalType": "uint256",
              "name": "blockNumber",
              "type": "uint256"
            },
            {
              "internalType": "uint256",
              "name": "operatorId",
              "type": "uint256"
            }
          ],
          "internalType": "struct TradeTypesLib.Order",
          "name": "order",
          "type": "tuple"
        },
        {
          "components": [
            {
              "internalType": "uint256",
              "name": "nonce",
              "type": "uint256"
            },
            {
              "internalType": "int256",
              "name": "amount",
              "type": "int256"
            },
            {
              "components": [
                {
                  "components": [
                    {
                      "internalType": "address",
                      "name": "ct",
                      "type": "address"
                    },
                    {
                      "internalType": "uint256",
                      "name": "id",
                      "type": "uint256"
                    }
                  ],
                  "internalType": "struct MonetaryTypesLib.Currency",
                  "name": "intended",
                  "type": "tuple"
                },
                {
                  "components": [
                    {
                      "internalType": "address",
                      "name": "ct",
                      "type": "address"
                    },
                    {
                      "internalType": "uint256",
                      "name": "id",
                      "type": "uint256"
                    }
                  ],
                  "internalType": "struct MonetaryTypesLib.Currency",
                  "name": "conjugate",
                  "type": "tuple"
                }
              ],
              "internalType": "struct NahmiiTypesLib.IntendedConjugateCurrency",
              "name": "currencies",
              "type": "tuple"
            },
            {
              "internalType": "int256",
              "name": "rate",
              "type": "int256"
            },
            {
              "components": [
                {
                  "internalType": "uint256",
                  "name": "nonce",
                  "type": "uint256"
                },
                {
                  "internalType": "address",
                  "name": "wallet",
                  "type": "address"
                },
                {
                  "internalType": "uint256",
                  "name": "rollingVolume",
                  "type": "uint256"
                },
                {
                  "internalType": "enum TradeTypesLib.LiquidityRole",
                  "name": "liquidityRole",
                  "type": "uint8"
                },
                {
                  "components": [
                    {
                      "internalType": "int256",
                      "name": "amount",
                      "type": "int256"
                    },
                    {
                      "components": [
                        {
                          "internalType": "bytes32",
                          "name": "wallet",
                          "type": "bytes32"
                        },
                        {
                          "internalType": "bytes32",
                          "name": "operator",
                          "type": "bytes32"
                        }
                      ],
                      "internalType": "struct NahmiiTypesLib.WalletOperatorHashes",
                      "name": "hashes",
                      "type": "tuple"
                    },
                    {
                      "components": [
                        {
                          "internalType": "int256",
                          "name": "current",
                          "type": "int256"
                        },
                        {
                          "internalType": "int256",
                          "name": "previous",
                          "type": "int256"
                        }
                      ],
                      "internalType": "struct NahmiiTypesLib.CurrentPreviousInt256",
                      "name": "residuals",
                      "type": "tuple"
                    }
                  ],
                  "internalType": "struct TradeTypesLib.TradeOrder",
                  "name": "order",
                  "type": "tuple"
                },
                {
                  "components": [
                    {
                      "components": [
                        {
                          "internalType": "int256",
                          "name": "current",
                          "type": "int256"
                        },
                        {
                          "internalType": "int256",
                          "name": "previous",
                          "type": "int256"
                        }
                      ],
                      "internalType": "struct NahmiiTypesLib.CurrentPreviousInt256",
                      "name": "intended",
                      "type": "tuple"
                    },
                    {
                      "components": [
                        {
                          "internalType": "int256",
                          "name": "current",
                          "type": "int256"
                        },
                        {
                          "internalType": "int256",
                          "name": "previous",
                          "type": "int256"
                        }
                      ],
                      "internalType": "struct NahmiiTypesLib.CurrentPreviousInt256",
                      "name": "conjugate",
                      "type": "tuple"
                    }
                  ],
                  "internalType": "struct NahmiiTypesLib.IntendedConjugateCurrentPreviousInt256",
                  "name": "balances",
                  "type": "tuple"
                },
                {
                  "components": [
                    {
                      "components": [
                        {
                          "internalType": "int256",
                          "name": "amount",
                          "type": "int256"
                        },
                        {
                          "components": [
                            {
                              "internalType": "address",
                              "name": "ct",
                              "type": "address"
                            },
                            {
                              "internalType": "uint256",
                              "name": "id",
                              "type": "uint256"
                            }
                          ],
                          "internalType": "struct MonetaryTypesLib.Currency",
                          "name": "currency",
                          "type": "tuple"
                        }
                      ],
                      "internalType": "struct MonetaryTypesLib.Figure",
                      "name": "single",
                      "type": "tuple"
                    },
                    {
                      "components": [
                        {
                          "internalType": "uint256",
                          "name": "originId",
                          "type": "uint256"
                        },
                        {
                          "components": [
                            {
                              "internalType": "int256",
                              "name": "amount",
                              "type": "int256"
                            },
                            {
                              "components": [
                                {
                                  "internalType": "address",
                                  "name": "ct",
                                  "type": "address"
                                },
                                {
                                  "internalType": "uint256",
                                  "name": "id",
                                  "type": "uint256"
                                }
                              ],
                              "internalType": "struct MonetaryTypesLib.Currency",
                              "name": "currency",
                              "type": "tuple"
                            }
                          ],
                          "internalType": "struct MonetaryTypesLib.Figure",
                          "name": "figure",
                          "type": "tuple"
                        }
                      ],
                      "internalType": "struct NahmiiTypesLib.OriginFigure[]",
                      "name": "total",
                      "type": "tuple[]"
                    }
                  ],
                  "internalType": "struct NahmiiTypesLib.SingleFigureTotalOriginFigures",
                  "name": "fees",
                  "type": "tuple"
                }
              ],
              "internalType": "struct TradeTypesLib.TradeParty",
              "name": "buyer",
              "type": "tuple"
            },
            {
              "components": [
                {
                  "internalType": "uint256",
                  "name": "nonce",
                  "type": "uint256"
                },
                {
                  "internalType": "address",
                  "name": "wallet",
                  "type": "address"
                },
                {
                  "internalType": "uint256",
                  "name": "rollingVolume",
                  "type": "uint256"
                },
                {
                  "internalType": "enum TradeTypesLib.LiquidityRole",
                  "name": "liquidityRole",
                  "type": "uint8"
                },
                {
                  "components": [
                    {
                      "internalType": "int256",
                      "name": "amount",
                      "type": "int256"
                    },
                    {
                      "components": [
                        {
                          "internalType": "bytes32",
                          "name": "wallet",
                          "type": "bytes32"
                        },
                        {
                          "internalType": "bytes32",
                          "name": "operator",
                          "type": "bytes32"
                        }
                      ],
                      "internalType": "struct NahmiiTypesLib.WalletOperatorHashes",
                      "name": "hashes",
                      "type": "tuple"
                    },
                    {
                      "components": [
                        {
                          "internalType": "int256",
                          "name": "current",
                          "type": "int256"
                        },
                        {
                          "internalType": "int256",
                          "name": "previous",
                          "type": "int256"
                        }
                      ],
                      "internalType": "struct NahmiiTypesLib.CurrentPreviousInt256",
                      "name": "residuals",
                      "type": "tuple"
                    }
                  ],
                  "internalType": "struct TradeTypesLib.TradeOrder",
                  "name": "order",
                  "type": "tuple"
                },
                {
                  "components": [
                    {
                      "components": [
                        {
                          "internalType": "int256",
                          "name": "current",
                          "type": "int256"
                        },
                        {
                          "internalType": "int256",
                          "name": "previous",
                          "type": "int256"
                        }
                      ],
                      "internalType": "struct NahmiiTypesLib.CurrentPreviousInt256",
                      "name": "intended",
                      "type": "tuple"
                    },
                    {
                      "components": [
                        {
                          "internalType": "int256",
                          "name": "current",
                          "type": "int256"
                        },
                        {
                          "internalType": "int256",
                          "name": "previous",
                          "type": "int256"
                        }
                      ],
                      "internalType": "struct NahmiiTypesLib.CurrentPreviousInt256",
                      "name": "conjugate",
                      "type": "tuple"
                    }
                  ],
                  "internalType": "struct NahmiiTypesLib.IntendedConjugateCurrentPreviousInt256",
                  "name": "balances",
                  "type": "tuple"
                },
                {
                  "components": [
                    {
                      "components": [
                        {
                          "internalType": "int256",
                          "name": "amount",
                          "type": "int256"
                        },
                        {
                          "components": [
                            {
                              "internalType": "address",
                              "name": "ct",
                              "type": "address"
                            },
                            {
                              "internalType": "uint256",
                              "name": "id",
                              "type": "uint256"
                            }
                          ],
                          "internalType": "struct MonetaryTypesLib.Currency",
                          "name": "currency",
                          "type": "tuple"
                        }
                      ],
                      "internalType": "struct MonetaryTypesLib.Figure",
                      "name": "single",
                      "type": "tuple"
                    },
                    {
                      "components": [
                        {
                          "internalType": "uint256",
                          "name": "originId",
                          "type": "uint256"
                        },
                        {
                          "components": [
                            {
                              "internalType": "int256",
                              "name": "amount",
                              "type": "int256"
                            },
                            {
                              "components": [
                                {
                                  "internalType": "address",
                                  "name": "ct",
                                  "type": "address"
                                },
                                {
                                  "internalType": "uint256",
                                  "name": "id",
                                  "type": "uint256"
                                }
                              ],
                              "internalType": "struct MonetaryTypesLib.Currency",
                              "name": "currency",
                              "type": "tuple"
                            }
                          ],
                          "internalType": "struct MonetaryTypesLib.Figure",
                          "name": "figure",
                          "type": "tuple"
                        }
                      ],
                      "internalType": "struct NahmiiTypesLib.OriginFigure[]",
                      "name": "total",
                      "type": "tuple[]"
                    }
                  ],
                  "internalType": "struct NahmiiTypesLib.SingleFigureTotalOriginFigures",
                  "name": "fees",
                  "type": "tuple"
                }
              ],
              "internalType": "struct TradeTypesLib.TradeParty",
              "name": "seller",
              "type": "tuple"
            },
            {
              "components": [
                {
                  "components": [
                    {
                      "internalType": "int256",
                      "name": "single",
                      "type": "int256"
                    },
                    {
                      "internalType": "int256",
                      "name": "total",
                      "type": "int256"
                    }
                  ],
                  "internalType": "struct NahmiiTypesLib.SingleTotalInt256",
                  "name": "intended",
                  "type": "tuple"
                },
                {
                  "components": [
                    {
                      "internalType": "int256",
                      "name": "single",
                      "type": "int256"
                    },
                    {
                      "internalType": "int256",
                      "name": "total",
                      "type": "int256"
                    }
                  ],
                  "internalType": "struct NahmiiTypesLib.SingleTotalInt256",
                  "name": "conjugate",
                  "type": "tuple"
                }
              ],
              "internalType": "struct NahmiiTypesLib.IntendedConjugateSingleTotalInt256",
              "name": "transfers",
              "type": "tuple"
            },
            {
              "components": [
                {
                  "internalType": "bytes32",
                  "name": "hash",
                  "type": "bytes32"
                },
                {
                  "components": [
                    {
                      "internalType": "bytes32",
                      "name": "r",
                      "type": "bytes32"
                    },
                    {
                      "internalType": "bytes32",
                      "name": "s",
                      "type": "bytes32"
                    },
                    {
                      "internalType": "uint8",
                      "name": "v",
                      "type": "uint8"
                    }
                  ],
                  "internalType": "struct NahmiiTypesLib.Signature",
                  "name": "signature",
                  "type": "tuple"
                }
              ],
              "internalType": "struct NahmiiTypesLib.Seal",
              "name": "seal",
              "type": "tuple"
            },
            {
              "internalType": "uint256",
              "name": "blockNumber",
              "type": "uint256"
            },
            {
              "internalType": "uint256",
              "name": "operatorId",
              "type": "uint256"
            }
          ],
          "internalType": "struct TradeTypesLib.Trade",
          "name": "trade",
          "type": "tuple"
        }
      ],
      "name": "unchallengeOrderCandidateByTrade",
      "outputs": [],
      "payable": false,
      "stateMutability": "nonpayable",
      "type": "function"
    },
    {
      "constant": false,
      "inputs": [
        {
          "internalType": "address",
          "name": "wallet",
          "type": "address"
        },
        {
          "components": [
            {
              "internalType": "uint256",
              "name": "nonce",
              "type": "uint256"
            },
            {
              "internalType": "int256",
              "name": "amount",
              "type": "int256"
            },
            {
              "components": [
                {
                  "components": [
                    {
                      "internalType": "address",
                      "name": "ct",
                      "type": "address"
                    },
                    {
                      "internalType": "uint256",
                      "name": "id",
                      "type": "uint256"
                    }
                  ],
                  "internalType": "struct MonetaryTypesLib.Currency",
                  "name": "intended",
                  "type": "tuple"
                },
                {
                  "components": [
                    {
                      "internalType": "address",
                      "name": "ct",
                      "type": "address"
                    },
                    {
                      "internalType": "uint256",
                      "name": "id",
                      "type": "uint256"
                    }
                  ],
                  "internalType": "struct MonetaryTypesLib.Currency",
                  "name": "conjugate",
                  "type": "tuple"
                }
              ],
              "internalType": "struct NahmiiTypesLib.IntendedConjugateCurrency",
              "name": "currencies",
              "type": "tuple"
            },
            {
              "internalType": "int256",
              "name": "rate",
              "type": "int256"
            },
            {
              "components": [
                {
                  "internalType": "uint256",
                  "name": "nonce",
                  "type": "uint256"
                },
                {
                  "internalType": "address",
                  "name": "wallet",
                  "type": "address"
                },
                {
                  "internalType": "uint256",
                  "name": "rollingVolume",
                  "type": "uint256"
                },
                {
                  "internalType": "enum TradeTypesLib.LiquidityRole",
                  "name": "liquidityRole",
                  "type": "uint8"
                },
                {
                  "components": [
                    {
                      "internalType": "int256",
                      "name": "amount",
                      "type": "int256"
                    },
                    {
                      "components": [
                        {
                          "internalType": "bytes32",
                          "name": "wallet",
                          "type": "bytes32"
                        },
                        {
                          "internalType": "bytes32",
                          "name": "operator",
                          "type": "bytes32"
                        }
                      ],
                      "internalType": "struct NahmiiTypesLib.WalletOperatorHashes",
                      "name": "hashes",
                      "type": "tuple"
                    },
                    {
                      "components": [
                        {
                          "internalType": "int256",
                          "name": "current",
                          "type": "int256"
                        },
                        {
                          "internalType": "int256",
                          "name": "previous",
                          "type": "int256"
                        }
                      ],
                      "internalType": "struct NahmiiTypesLib.CurrentPreviousInt256",
                      "name": "residuals",
                      "type": "tuple"
                    }
                  ],
                  "internalType": "struct TradeTypesLib.TradeOrder",
                  "name": "order",
                  "type": "tuple"
                },
                {
                  "components": [
                    {
                      "components": [
                        {
                          "internalType": "int256",
                          "name": "current",
                          "type": "int256"
                        },
                        {
                          "internalType": "int256",
                          "name": "previous",
                          "type": "int256"
                        }
                      ],
                      "internalType": "struct NahmiiTypesLib.CurrentPreviousInt256",
                      "name": "intended",
                      "type": "tuple"
                    },
                    {
                      "components": [
                        {
                          "internalType": "int256",
                          "name": "current",
                          "type": "int256"
                        },
                        {
                          "internalType": "int256",
                          "name": "previous",
                          "type": "int256"
                        }
                      ],
                      "internalType": "struct NahmiiTypesLib.CurrentPreviousInt256",
                      "name": "conjugate",
                      "type": "tuple"
                    }
                  ],
                  "internalType": "struct NahmiiTypesLib.IntendedConjugateCurrentPreviousInt256",
                  "name": "balances",
                  "type": "tuple"
                },
                {
                  "components": [
                    {
                      "components": [
                        {
                          "internalType": "int256",
                          "name": "amount",
                          "type": "int256"
                        },
                        {
                          "components": [
                            {
                              "internalType": "address",
                              "name": "ct",
                              "type": "address"
                            },
                            {
                              "internalType": "uint256",
                              "name": "id",
                              "type": "uint256"
                            }
                          ],
                          "internalType": "struct MonetaryTypesLib.Currency",
                          "name": "currency",
                          "type": "tuple"
                        }
                      ],
                      "internalType": "struct MonetaryTypesLib.Figure",
                      "name": "single",
                      "type": "tuple"
                    },
                    {
                      "components": [
                        {
                          "internalType": "uint256",
                          "name": "originId",
                          "type": "uint256"
                        },
                        {
                          "components": [
                            {
                              "internalType": "int256",
                              "name": "amount",
                              "type": "int256"
                            },
                            {
                              "components": [
                                {
                                  "internalType": "address",
                                  "name": "ct",
                                  "type": "address"
                                },
                                {
                                  "internalType": "uint256",
                                  "name": "id",
                                  "type": "uint256"
                                }
                              ],
                              "internalType": "struct MonetaryTypesLib.Currency",
                              "name": "currency",
                              "type": "tuple"
                            }
                          ],
                          "internalType": "struct MonetaryTypesLib.Figure",
                          "name": "figure",
                          "type": "tuple"
                        }
                      ],
                      "internalType": "struct NahmiiTypesLib.OriginFigure[]",
                      "name": "total",
                      "type": "tuple[]"
                    }
                  ],
                  "internalType": "struct NahmiiTypesLib.SingleFigureTotalOriginFigures",
                  "name": "fees",
                  "type": "tuple"
                }
              ],
              "internalType": "struct TradeTypesLib.TradeParty",
              "name": "buyer",
              "type": "tuple"
            },
            {
              "components": [
                {
                  "internalType": "uint256",
                  "name": "nonce",
                  "type": "uint256"
                },
                {
                  "internalType": "address",
                  "name": "wallet",
                  "type": "address"
                },
                {
                  "internalType": "uint256",
                  "name": "rollingVolume",
                  "type": "uint256"
                },
                {
                  "internalType": "enum TradeTypesLib.LiquidityRole",
                  "name": "liquidityRole",
                  "type": "uint8"
                },
                {
                  "components": [
                    {
                      "internalType": "int256",
                      "name": "amount",
                      "type": "int256"
                    },
                    {
                      "components": [
                        {
                          "internalType": "bytes32",
                          "name": "wallet",
                          "type": "bytes32"
                        },
                        {
                          "internalType": "bytes32",
                          "name": "operator",
                          "type": "bytes32"
                        }
                      ],
                      "internalType": "struct NahmiiTypesLib.WalletOperatorHashes",
                      "name": "hashes",
                      "type": "tuple"
                    },
                    {
                      "components": [
                        {
                          "internalType": "int256",
                          "name": "current",
                          "type": "int256"
                        },
                        {
                          "internalType": "int256",
                          "name": "previous",
                          "type": "int256"
                        }
                      ],
                      "internalType": "struct NahmiiTypesLib.CurrentPreviousInt256",
                      "name": "residuals",
                      "type": "tuple"
                    }
                  ],
                  "internalType": "struct TradeTypesLib.TradeOrder",
                  "name": "order",
                  "type": "tuple"
                },
                {
                  "components": [
                    {
                      "components": [
                        {
                          "internalType": "int256",
                          "name": "current",
                          "type": "int256"
                        },
                        {
                          "internalType": "int256",
                          "name": "previous",
                          "type": "int256"
                        }
                      ],
                      "internalType": "struct NahmiiTypesLib.CurrentPreviousInt256",
                      "name": "intended",
                      "type": "tuple"
                    },
                    {
                      "components": [
                        {
                          "internalType": "int256",
                          "name": "current",
                          "type": "int256"
                        },
                        {
                          "internalType": "int256",
                          "name": "previous",
                          "type": "int256"
                        }
                      ],
                      "internalType": "struct NahmiiTypesLib.CurrentPreviousInt256",
                      "name": "conjugate",
                      "type": "tuple"
                    }
                  ],
                  "internalType": "struct NahmiiTypesLib.IntendedConjugateCurrentPreviousInt256",
                  "name": "balances",
                  "type": "tuple"
                },
                {
                  "components": [
                    {
                      "components": [
                        {
                          "internalType": "int256",
                          "name": "amount",
                          "type": "int256"
                        },
                        {
                          "components": [
                            {
                              "internalType": "address",
                              "name": "ct",
                              "type": "address"
                            },
                            {
                              "internalType": "uint256",
                              "name": "id",
                              "type": "uint256"
                            }
                          ],
                          "internalType": "struct MonetaryTypesLib.Currency",
                          "name": "currency",
                          "type": "tuple"
                        }
                      ],
                      "internalType": "struct MonetaryTypesLib.Figure",
                      "name": "single",
                      "type": "tuple"
                    },
                    {
                      "components": [
                        {
                          "internalType": "uint256",
                          "name": "originId",
                          "type": "uint256"
                        },
                        {
                          "components": [
                            {
                              "internalType": "int256",
                              "name": "amount",
                              "type": "int256"
                            },
                            {
                              "components": [
                                {
                                  "internalType": "address",
                                  "name": "ct",
                                  "type": "address"
                                },
                                {
                                  "internalType": "uint256",
                                  "name": "id",
                                  "type": "uint256"
                                }
                              ],
                              "internalType": "struct MonetaryTypesLib.Currency",
                              "name": "currency",
                              "type": "tuple"
                            }
                          ],
                          "internalType": "struct MonetaryTypesLib.Figure",
                          "name": "figure",
                          "type": "tuple"
                        }
                      ],
                      "internalType": "struct NahmiiTypesLib.OriginFigure[]",
                      "name": "total",
                      "type": "tuple[]"
                    }
                  ],
                  "internalType": "struct NahmiiTypesLib.SingleFigureTotalOriginFigures",
                  "name": "fees",
                  "type": "tuple"
                }
              ],
              "internalType": "struct TradeTypesLib.TradeParty",
              "name": "seller",
              "type": "tuple"
            },
            {
              "components": [
                {
                  "components": [
                    {
                      "internalType": "int256",
                      "name": "single",
                      "type": "int256"
                    },
                    {
                      "internalType": "int256",
                      "name": "total",
                      "type": "int256"
                    }
                  ],
                  "internalType": "struct NahmiiTypesLib.SingleTotalInt256",
                  "name": "intended",
                  "type": "tuple"
                },
                {
                  "components": [
                    {
                      "internalType": "int256",
                      "name": "single",
                      "type": "int256"
                    },
                    {
                      "internalType": "int256",
                      "name": "total",
                      "type": "int256"
                    }
                  ],
                  "internalType": "struct NahmiiTypesLib.SingleTotalInt256",
                  "name": "conjugate",
                  "type": "tuple"
                }
              ],
              "internalType": "struct NahmiiTypesLib.IntendedConjugateSingleTotalInt256",
              "name": "transfers",
              "type": "tuple"
            },
            {
              "components": [
                {
                  "internalType": "bytes32",
                  "name": "hash",
                  "type": "bytes32"
                },
                {
                  "components": [
                    {
                      "internalType": "bytes32",
                      "name": "r",
                      "type": "bytes32"
                    },
                    {
                      "internalType": "bytes32",
                      "name": "s",
                      "type": "bytes32"
                    },
                    {
                      "internalType": "uint8",
                      "name": "v",
                      "type": "uint8"
                    }
                  ],
                  "internalType": "struct NahmiiTypesLib.Signature",
                  "name": "signature",
                  "type": "tuple"
                }
              ],
              "internalType": "struct NahmiiTypesLib.Seal",
              "name": "seal",
              "type": "tuple"
            },
            {
              "internalType": "uint256",
              "name": "blockNumber",
              "type": "uint256"
            },
            {
              "internalType": "uint256",
              "name": "operatorId",
              "type": "uint256"
            }
          ],
          "internalType": "struct TradeTypesLib.Trade",
          "name": "trade",
          "type": "tuple"
        }
      ],
      "name": "challengeByTrade",
      "outputs": [],
      "payable": false,
      "stateMutability": "nonpayable",
      "type": "function"
    }
  ],
  "bytecode": "0x60806040523480156200001157600080fd5b5060405162005dd738038062005dd78339810160408190526200003491620000b3565b80806001600160a01b0381166200004a57600080fd5b6001600160a01b0381163014156200006157600080fd5b5060008054610100600160a81b0319166101006001600160a01b0393909316928302179055600180546001600160a01b03191690911790555062000108565b8051620000ad81620000ee565b92915050565b600060208284031215620000c657600080fd5b6000620000d48484620000a0565b949350505050565b60006001600160a01b038216620000ad565b620000f981620000dc565b81146200010557600080fd5b50565b615cbf80620001186000396000f3fe608060405234801561001057600080fd5b50600436106102305760003560e01c8063039b9fb1146102355780630712abb01461025e5780631327d3d81461027e578063169879291461029357806319139092146102b3578063240625d8146102c857806325c84441146102dd5780632738a112146102e55780632aa1c9d9146102ed5780632f013a00146103005780633a5381b5146103085780633bebdcb5146103105780633e59b70614610323578063404e896f1461032b57806342cb45871461033e5780634476d23b14610351578063468b7c901461036657806347ccc0f21461036e57806349c56d491461038157806351d7cd6114610394578063570ca7351461039c578063598b75ad146103a45780635dc60def146103b7578063627f09c3146103bf5780636c70bee9146103d25780636ccb43c8146103da5780636de6a5d2146103ed57806370327ea1146104005780637235b68b146104085780637da5b11c1461041b578063892860b21461042e5780639621473514610441578063972fcee0146104545780639882da6c14610467578063adfb67781461047a578063afd742eb1461048d578063b3ab15fb146104a0578063b52d470a146104b3578063be0a6e6b146104bb578063c19df1e4146104ce578063ca7f47ed146104e1578063cdbf9419146104f4578063d5b68c6214610507578063d5f394881461051a578063e8ae41e314610522578063fa7424f21461052a578063fb1a825e14610532578063fcd30b0214610545575b600080fd5b6102486102433660046146ad565b610558565b6040516102559190615912565b60405180910390f35b61027161026c3660046146ad565b6105ff565b6040516102559190615904565b61029161028c36600461482f565b610698565b005b6102a66102a13660046146ad565b610739565b60405161025591906158cd565b6102bb6107d2565b60405161025591906158db565b6102d06107e1565b60405161025591906158bf565b6102bb6107f1565b610291610800565b6102916102fb36600461482f565b610866565b6102d06108ed565b6102bb6108f6565b6102d061031e3660046146ad565b610905565b6102d061099e565b61029161033936600461482f565b6109ae565b6102a661034c3660046146ad565b610a28565b610359610a71565b604051610255919061549d565b6102bb610a85565b61029161037c36600461482f565b610a94565b61029161038f3660046146fa565b610b0e565b6102bb610e7a565b610359610e89565b6102916103b236600461482f565b610e98565b610291610f53565b6102916103cd36600461482f565b610fa2565b6102bb611033565b6102916103e836600461482f565b611042565b6102a66103fb3660046146ad565b6110bc565b610291611105565b61029161041636600461474b565b611168565b6102d06104293660046146ad565b611542565b61029161043c36600461482f565b61158b565b61029161044f366004614671565b611646565b6102916104623660046146ad565b6116fc565b6102a66104753660046146ad565b611986565b6102a66104883660046146ad565b6119cf565b61029161049b36600461490c565b611a18565b6102916104ae366004614671565b611d38565b610291611ddb565b6102916104c93660046148cf565b611e2a565b6102916104dc3660046147c3565b61212d565b6102486104ef3660046146ad565b6123a3565b6102a66105023660046146ad565b6123ec565b6102a66105153660046146ad565b612435565b61035961247e565b6102bb612492565b6102bb6124a1565b6102a66105403660046146ad565b6124b0565b6103596105533660046146ad565b6124f9565b6007546040805180820182526001600160a01b0385811682526020820185905291516394da13eb60e01b815260609392909216916394da13eb916105a19188919060040161567c565b60006040518083038186803b1580156105b957600080fd5b505afa1580156105cd573d6000803e3d6000fd5b505050506040513d6000823e601f3d908101601f191682016040526105f5919081019061489b565b90505b9392505050565b6007546040805180820182526001600160a01b03858116825260208201859052915163b6e2fc3360e01b8152600093929092169163b6e2fc33916106489188919060040161567c565b60206040518083038186803b15801561066057600080fd5b505afa158015610674573d6000803e3d6000fd5b505050506040513d601f19601f820116820180604052506105f5919081019061484d565b6106a0612592565b6106a957600080fd5b806001600160a01b0381166106bd57600080fd5b60035482906001600160a01b03908116908216811461073357600380546001600160a01b038681166001600160a01b03198316179092556040519116907f1882af944a16549c3d4f60e3cd26f158b0c7aac3222cf32971fc21375ce05f609061072990839088906158e9565b60405180910390a1505b50505050565b6007546040805180820182526001600160a01b03858116825260208201859052915163c46fcd7560e01b8152600093929092169163c46fcd75916107829188919060040161567c565b60206040518083038186803b15801561079a57600080fd5b505afa1580156107ae573d6000803e3d6000fd5b505050506040513d601f19601f820116820180604052506105f59190810190614811565b6005546001600160a01b031681565b600454600160a01b900460ff1681565b6009546001600160a01b031681565b33610809610a71565b6001600160a01b03161461081c57600080fd5b60005460ff161561082c57600080fd5b7f787a5d936e74f4b564b9153575886059829c78cd9927b1be5e0d976b317ef7363360405161085b91906154ab565b60405180910390a133ff5b61086e612592565b61087757600080fd5b806001600160a01b03811661088b57600080fd5b600780546001600160a01b038481166001600160a01b031983161792839055604051918116927f4f7125332801996cdeaabf9cff1ac89ddf4b52c673558936affe853ab64a88da926108e092859216906158e9565b60405180910390a1505050565b60005460ff1681565b6003546001600160a01b031681565b6007546040805180820182526001600160a01b038581168252602082018590529151635482c73560e01b81526000939290921691635482c7359161094e9188919060040161567c565b60206040518083038186803b15801561096657600080fd5b505afa15801561097a573d6000803e3d6000fd5b505050506040513d601f19601f820116820180604052506105f591908101906147f3565b600554600160a01b900460ff1681565b6109b6612592565b6109bf57600080fd5b806001600160a01b0381166109d357600080fd5b600980546001600160a01b038481166001600160a01b031983161792839055604051918116927f6d4735156f5fb1047cfcd4a9edf19e3291aec19d53916f8fee650ca3c2d73910926108e092859216906158e9565b6007546040805180820182526001600160a01b038581168252602082018590529151633007230f60e11b8152600093929092169163600e461e916107829188919060040161567c565b60005461010090046001600160a01b031690565b6006546001600160a01b031681565b610a9c612592565b610aa557600080fd5b806001600160a01b038116610ab957600080fd5b600680546001600160a01b038481166001600160a01b031983161792839055604051918116927f0c5a2063e991ea494e79a779c5062c5a549c4497265caaa8798349ddaf1756d3926108e092859216906158e9565b600260009054906101000a90046001600160a01b03166001600160a01b031663f71e860f6040518163ffffffff1660e01b815260040160206040518083038186803b158015610b5c57600080fd5b505afa158015610b70573d6000803e3d6000fd5b505050506040513d601f19601f82011682018060405250610b9491908101906147f3565b610bb95760405162461bcd60e51b8152600401610bb090615923565b60405180910390fd5b600654604051639227260760e01b81526001600160a01b0390911690639227260790610bed908590859033906004016156bf565b600060405180830381600087803b158015610c0757600080fd5b505af1158015610c1b573d6000803e3d6000fd5b50505050610c27613f5a565b610c3182846125a8565b600754604051632ee2ed2560e01b81529192507f44ef05ade6f615225ae116a284b3860a7e62d60a3b955f1a90c869a714abd3c89185916001600160a01b031690632ee2ed2590610c88908490879060040161567c565b60206040518083038186803b158015610ca057600080fd5b505afa158015610cb4573d6000803e3d6000fd5b505050506040513d601f19601f82011682018060405250610cd89190810190614811565b600754604051638ab3e96560e01b81526001600160a01b0390911690638ab3e96590610d0a908990889060040161567c565b60206040518083038186803b158015610d2257600080fd5b505afa158015610d36573d6000803e3d6000fd5b505050506040513d601f19601f82011682018060405250610d5a9190810190614811565b600754604051633007230f60e11b81526001600160a01b039091169063600e461e90610d8c908a90899060040161567c565b60206040518083038186803b158015610da457600080fd5b505afa158015610db8573d6000803e3d6000fd5b505050506040513d601f19601f82011682018060405250610ddc9190810190614811565b60075460405163c46fcd7560e01b81526001600160a01b039091169063c46fcd7590610e0e908b908a9060040161567c565b60206040518083038186803b158015610e2657600080fd5b505afa158015610e3a573d6000803e3d6000fd5b505050506040513d601f19601f82011682018060405250610e5e9190810190614811565b865160208801516040516108e0979695949392919033906157bc565b6007546001600160a01b031681565b6001546001600160a01b031681565b610ea0612592565b610ea957600080fd5b806001600160a01b038116610ebd57600080fd5b60055482906001600160a01b03908116908216811461073357600554600160a01b900460ff1615610f005760405162461bcd60e51b8152600401610bb090615973565b600580546001600160a01b038681166001600160a01b03198316179092556040519116907fb2a91d3a71b0c5bc7c083153b3474378e489506ba98bd4ddb1b9056fdc594bb59061072990839088906158e9565b610f5b612592565b610f6457600080fd5b6004805460ff60a01b1916600160a01b1790556040517f56ec8900b9c4bf84f4b715a53068ca06961dd49084c07b481931e2c2045346e690600090a1565b610faa612592565b610fb357600080fd5b806001600160a01b038116610fc757600080fd5b60025482906001600160a01b03908116908216811461073357600280546001600160a01b038681166001600160a01b03198316179092556040519116907f634f61bf00e14adedce330c80c2823e16e184f189ebe853e1ddecc4a268477ff9061072990839088906158e9565b6002546001600160a01b031681565b61104a612592565b61105357600080fd5b806001600160a01b03811661106757600080fd5b600880546001600160a01b038481166001600160a01b031983161792839055604051918116927ff21c127205310467822e10c64b2d9ffae588e019194d6af71f2bdddc0b7ef526926108e092859216906158e9565b6007546040805180820182526001600160a01b03858116825260208201859052915163374852cb60e11b81526000939290921691636e90a596916107829188919060040161567c565b3361110e610a71565b6001600160a01b03161461112157600080fd5b6000805460ff191660011790556040517fd5a2a04a775c741c2ca0dc46ea7ce4835190e1aaf1ca018def0e82568ec336169061115e9033906154ab565b60405180910390a1565b611170612654565b61117957600080fd5b611187848484846000612665565b600754604080850151519051632ee2ed2560e01b81527fad94c87fa895e8c46ed35b70c0ac8e19c672c81421f9b8c5321723abde09ecdb9287926001600160a01b0390911691632ee2ed25916111e29185919060040161567c565b60206040518083038186803b1580156111fa57600080fd5b505afa15801561120e573d6000803e3d6000fd5b505050506040513d601f19601f820116820180604052506112329190810190614811565b600754604080880151519051633007230f60e11b81526001600160a01b039092169163600e461e91611269918b919060040161567c565b60206040518083038186803b15801561128157600080fd5b505afa158015611295573d6000803e3d6000fd5b505050506040513d601f19601f820116820180604052506112b99190810190614811565b60075460408089015151905163c46fcd7560e01b81526001600160a01b039092169163c46fcd75916112f0918c919060040161567c565b60206040518083038186803b15801561130857600080fd5b505afa15801561131c573d6000803e3d6000fd5b505050506040513d601f19601f820116820180604052506113409190810190614811565b6040808901518051805160209182015160075492909301519351632ee2ed2560e01b815290936001600160a01b0390921691632ee2ed2591611386918f9160040161567c565b60206040518083038186803b15801561139e57600080fd5b505afa1580156113b2573d6000803e3d6000fd5b505050506040513d601f19601f820116820180604052506113d69190810190614811565b600760009054906101000a90046001600160a01b03166001600160a01b031663600e461e8d8d60400151602001516040518363ffffffff1660e01b815260040161142192919061567c565b60206040518083038186803b15801561143957600080fd5b505afa15801561144d573d6000803e3d6000fd5b505050506040513d601f19601f820116820180604052506114719190810190614811565b600760009054906101000a90046001600160a01b03166001600160a01b031663c46fcd758e8e60400151602001516040518363ffffffff1660e01b81526004016114bc92919061567c565b60206040518083038186803b1580156114d457600080fd5b505afa1580156114e8573d6000803e3d6000fd5b505050506040513d601f19601f8201168201806040525061150c9190810190614811565b6040808e0151602090810151805191015191516115349b9a9998979695949392903390615709565b60405180910390a150505050565b6007546040805180820182526001600160a01b0385811682526020820185905291516333ca4eab60e21b8152600093929092169163cf293aac9161094e9188919060040161567c565b611593612592565b61159c57600080fd5b806001600160a01b0381166115b057600080fd5b60045482906001600160a01b03908116908216811461073357600454600160a01b900460ff16156115f35760405162461bcd60e51b8152600401610bb090615a03565b600480546001600160a01b038681166001600160a01b03198316179092556040519116907fa44d361e26327b72a7ccbeae801b3c5cd7677ea4fa74168b289e273c46bfecfc9061072990839088906158e9565b61164e612592565b61165757600080fd5b806001600160a01b03811661166b57600080fd5b6001600160a01b03811630141561168157600080fd5b6000546001600160a01b0383811661010090920416146116f857600080546001600160a01b03848116610100908102610100600160a81b03198416179093556040519290910416907f977e5fa58e458501775e0008d275006294c5249e3c08d1d0e3a9f3acad14f6e4906108e090839086906155e0565b5050565b611704612654565b61170d57600080fd5b611715613f5a565b6040518060400160405280846001600160a01b03168152602001838152509050611743848260016000612864565b600754604051632ee2ed2560e01b81527f55681e18b795929fa6b2ebef09244e035285788d963bf5d6e3968dc2bf8addf09186916001600160a01b0390911690632ee2ed2590611799908490879060040161567c565b60206040518083038186803b1580156117b157600080fd5b505afa1580156117c5573d6000803e3d6000fd5b505050506040513d601f19601f820116820180604052506117e99190810190614811565b600754604051638ab3e96560e01b81526001600160a01b0390911690638ab3e9659061181b908a90889060040161567c565b60206040518083038186803b15801561183357600080fd5b505afa158015611847573d6000803e3d6000fd5b505050506040513d601f19601f8201168201806040525061186b9190810190614811565b600754604051633007230f60e11b81526001600160a01b039091169063600e461e9061189d908b90899060040161567c565b60206040518083038186803b1580156118b557600080fd5b505afa1580156118c9573d6000803e3d6000fd5b505050506040513d601f19601f820116820180604052506118ed9190810190614811565b60075460405163c46fcd7560e01b81526001600160a01b039091169063c46fcd759061191f908c908a9060040161567c565b60206040518083038186803b15801561193757600080fd5b505afa15801561194b573d6000803e3d6000fd5b505050506040513d601f19601f8201168201806040525061196f9190810190614811565b8888336040516115349897969594939291906157bc565b6007546040805180820182526001600160a01b03858116825260208201859052915163da473c5760e01b8152600093929092169163da473c57916107829188919060040161567c565b6007546040805180820182526001600160a01b038581168252602082018590529151631b90e3c160e01b81526000939290921691631b90e3c1916107829188919060040161567c565b60048054604051631293efbb60e21b81526001600160a01b0390911691634a4fbeec91611a47913391016154ab565b60206040518083038186803b158015611a5f57600080fd5b505afa158015611a73573d6000803e3d6000fd5b505050506040513d601f19601f82011682018060405250611a9791908101906147f3565b15611ab45760405162461bcd60e51b8152600401610bb090615933565b611ac2338484846001612665565b600754604080850151519051632ee2ed2560e01b81527fe0b672614672fcf55218c5e4b785cc791fb897b450f8dfbe7e1dcb65cb15b1e49233926001600160a01b0390911691632ee2ed2591611b1d918591906004016154b9565b60206040518083038186803b158015611b3557600080fd5b505afa158015611b49573d6000803e3d6000fd5b505050506040513d601f19601f82011682018060405250611b6d9190810190614811565b60075460408088015151905163c46fcd7560e01b815287926001600160a01b03169163c46fcd7591611ba39133916004016154b9565b60206040518083038186803b158015611bbb57600080fd5b505afa158015611bcf573d6000803e3d6000fd5b505050506040513d601f19601f82011682018060405250611bf39190810190614811565b6040808901518051805160209182015160075492909301519351632ee2ed2560e01b815290936001600160a01b0390921691632ee2ed2591611c399133916004016154b9565b60206040518083038186803b158015611c5157600080fd5b505afa158015611c65573d6000803e3d6000fd5b505050506040513d601f19601f82011682018060405250611c899190810190614811565b6007546040808d015160200151905163c46fcd7560e01b81528b926001600160a01b03169163c46fcd7591611cc29133916004016154b9565b60206040518083038186803b158015611cda57600080fd5b505afa158015611cee573d6000803e3d6000fd5b505050506040513d601f19601f82011682018060405250611d129190810190614811565b6040808e0151602090810151805191015191516108e09b9a9998979695949392906154d4565b611d40612654565b611d4957600080fd5b806001600160a01b038116611d5d57600080fd5b6001600160a01b038116301415611d7357600080fd5b6001546001600160a01b038381169116146116f857600180546001600160a01b038481166001600160a01b03198316179092556040519116907f9f611b789425d0d5b90b920f1b2852907dd865c80074a30b1629aaa041d1812c906108e090839086906155e0565b611de3612592565b611dec57600080fd5b6005805460ff60a01b1916600160a01b1790556040517f9c567b65fe8caab5ec7bc979a498a1322c1d4baf01a30727cbca137187560ea290600090a1565b600260009054906101000a90046001600160a01b03166001600160a01b031663f71e860f6040518163ffffffff1660e01b815260040160206040518083038186803b158015611e7857600080fd5b505afa158015611e8c573d6000803e3d6000fd5b505050506040513d601f19601f82011682018060405250611eb091908101906147f3565b611ecc5760405162461bcd60e51b8152600401610bb090615923565b60065460405162c1152760e31b81526001600160a01b0390911690630608a93890611eff90859085903390600401615a13565b600060405180830381600087803b158015611f1957600080fd5b505af1158015611f2d573d6000803e3d6000fd5b50505050611f39613f5a565b611f4283612a73565b6020840151600754604051632ee2ed2560e01b81529293507fa1df43b3b79472ffe3b640d21c588deffc80f5bfe82298681aa24edd9f299118926001600160a01b0390911690632ee2ed2590611f9e908490879060040161567c565b60206040518083038186803b158015611fb657600080fd5b505afa158015611fca573d6000803e3d6000fd5b505050506040513d601f19601f82011682018060405250611fee9190810190614811565b6007546020870151604051638ab3e96560e01b81526001600160a01b0390921691638ab3e9659161202391889060040161567c565b60206040518083038186803b15801561203b57600080fd5b505afa15801561204f573d6000803e3d6000fd5b505050506040513d601f19601f820116820180604052506120739190810190614811565b6007546020880151604051633007230f60e11b81526001600160a01b039092169163600e461e916120a891899060040161567c565b60206040518083038186803b1580156120c057600080fd5b505afa1580156120d4573d6000803e3d6000fd5b505050506040513d601f19601f820116820180604052506120f89190810190614811565b600754602089015160405163c46fcd7560e01b81526001600160a01b039092169163c46fcd7591610e0e918a9060040161567c565b612135613f5a565b6040518060400160405280846001600160a01b031681526020018381525090506121623382600180612864565b600754604051632ee2ed2560e01b81527f46e3d3c7067c83d22286a7cf49b1ac45b28d128a51b1d4a3b9bdc3927a6da0be9133916001600160a01b0390911690632ee2ed25906121b890849087906004016154b9565b60206040518083038186803b1580156121d057600080fd5b505afa1580156121e4573d6000803e3d6000fd5b505050506040513d601f19601f820116820180604052506122089190810190614811565b600754604051638ab3e96560e01b81526001600160a01b0390911690638ab3e9659061223a90339088906004016154b9565b60206040518083038186803b15801561225257600080fd5b505afa158015612266573d6000803e3d6000fd5b505050506040513d601f19601f8201168201806040525061228a9190810190614811565b600754604051633007230f60e11b81526001600160a01b039091169063600e461e906122bc90339089906004016154b9565b60206040518083038186803b1580156122d457600080fd5b505afa1580156122e8573d6000803e3d6000fd5b505050506040513d601f19601f8201168201806040525061230c9190810190614811565b60075460405163c46fcd7560e01b81526001600160a01b039091169063c46fcd759061233e9033908a906004016154b9565b60206040518083038186803b15801561235657600080fd5b505afa15801561236a573d6000803e3d6000fd5b505050506040513d601f19601f8201168201806040525061238e9190810190614811565b88886040516108e09796959493929190615578565b6007546040805180820182526001600160a01b03858116825260208201859052915163160ed0cd60e11b81526060939290921691632c1da19a916105a19188919060040161567c565b6007546040805180820182526001600160a01b038581168252602082018590529151632ee2ed2560e01b81526000939290921691632ee2ed25916107829188919060040161567c565b6007546040805180820182526001600160a01b0385811682526020820185905291516345a76a6160e11b81526000939290921691638b4ed4c2916107829188919060040161567c565b60005461010090046001600160a01b031681565b6004546001600160a01b031681565b6008546001600160a01b031681565b6007546040805180820182526001600160a01b0385811682526020820185905291516356ec907560e01b815260009392909216916356ec9075916107829188919060040161567c565b6007546040805180820182526001600160a01b038581168252602082018590529151635658722960e01b815260009392909216916356587229916125429188919060040161567c565b60206040518083038186803b15801561255a57600080fd5b505afa15801561256e573d6000803e3d6000fd5b505050506040513d601f19601f820116820180604052506105f5919081019061468f565b60005461010090046001600160a01b0316331490565b6125b0613f5a565b60035460405163059057d760e01b81526001600160a01b039091169063059057d7906125e29086908690600401615a56565b60206040518083038186803b1580156125fa57600080fd5b505afa15801561260e573d6000803e3d6000fd5b505050506040513d601f19601f8201168201806040525061263291908101906147f3565b6126415760408301515161264b565b8260400151602001515b90505b92915050565b6001546001600160a01b0316331490565b600354604051637211c8c760e11b815285916001600160a01b03169063e423918e90612695908490600401615a45565b60206040518083038186803b1580156126ad57600080fd5b505afa1580156126c1573d6000803e3d6000fd5b505050506040513d601f19601f820116820180604052506126e591908101906147f3565b6127015760405162461bcd60e51b8152600401610bb090615983565b600260009054906101000a90046001600160a01b03166001600160a01b031663b6bf41766040518163ffffffff1660e01b815260040160206040518083038186803b15801561274f57600080fd5b505afa158015612763573d6000803e3d6000fd5b505050506040513d601f19601f820116820180604052506127879190810190614811565b4310156127a65760405162461bcd60e51b8152600401610bb0906159d3565b6003546040516303e149c360e11b81526001600160a01b03909116906307c29386906127d89088908a90600401615a56565b60206040518083038186803b1580156127f057600080fd5b505afa158015612804573d6000803e3d6000fd5b505050506040513d601f19601f8201168201806040525061282891908101906147f3565b6128445760405162461bcd60e51b8152600401610bb0906159a3565b61285086868685612ab7565b61285c86868585612ef7565b505050505050565b60075460405163076470a560e31b81526001600160a01b0390911690633b23852890612896908790879060040161567c565b60206040518083038186803b1580156128ae57600080fd5b505afa1580156128c2573d6000803e3d6000fd5b505050506040513d601f19601f820116820180604052506128e691908101906147f3565b6129025760405162461bcd60e51b8152600401610bb0906159f3565b600754604051637ff81c3760e01b81526001600160a01b0390911690637ff81c3790612934908790879060040161567c565b60206040518083038186803b15801561294c57600080fd5b505afa158015612960573d6000803e3d6000fd5b505050506040513d601f19601f8201168201806040525061298491908101906147f3565b156129a15760405162461bcd60e51b8152600401610bb090615943565b6007546040516335a4238360e01b81526001600160a01b03909116906335a42383906129d790879087908790879060040161568a565b600060405180830381600087803b1580156129f157600080fd5b505af1158015612a05573d6000803e3d6000fd5b5050600854604051632ce4e29b60e21b81526001600160a01b03909116925063b3938a6c9150612a3b908790879060040161567c565b600060405180830381600087803b158015612a5557600080fd5b505af1158015612a69573d6000803e3d6000fd5b5050505050505050565b612a7b613f5a565b6040820151516001811115612a8c57fe5b600114612aa55781604001516040015160200151612aaf565b6040808301510151515b90505b919050565b60075460408085015151905163076470a560e31b81526001600160a01b0390921691633b23852891612aee9188919060040161567c565b60206040518083038186803b158015612b0657600080fd5b505afa158015612b1a573d6000803e3d6000fd5b505050506040513d601f19601f82011682018060405250612b3e91908101906147f3565b1580612bcc5750600754604080850151519051637ff81c3760e01b81526001600160a01b0390921691637ff81c3791612b7c9188919060040161567c565b60206040518083038186803b158015612b9457600080fd5b505afa158015612ba8573d6000803e3d6000fd5b505050506040513d601f19601f82011682018060405250612bcc91908101906147f3565b612be85760405162461bcd60e51b8152600401610bb0906159c3565b60085460408085015151905163076470a560e31b81526001600160a01b0390921691633b23852891612c1f9188919060040161567c565b60206040518083038186803b158015612c3757600080fd5b505afa158015612c4b573d6000803e3d6000fd5b505050506040513d601f19601f82011682018060405250612c6f91908101906147f3565b1580612cfd5750600854604080850151519051637ff81c3760e01b81526001600160a01b0390921691637ff81c3791612cad9188919060040161567c565b60206040518083038186803b158015612cc557600080fd5b505afa158015612cd9573d6000803e3d6000fd5b505050506040513d601f19601f82011682018060405250612cfd91908101906147f3565b612d195760405162461bcd60e51b8152600401610bb090615993565b6000806000612d298688876132aa565b6009546040808b0151519051633858654b60e01b815294975092955090935085926001600160a01b0390911691633858654b91612d6a918c9160040161567c565b60206040518083038186803b158015612d8257600080fd5b505afa158015612d96573d6000803e3d6000fd5b505050506040513d601f19601f82011682018060405250612dba9190810190614811565b10612dd75760405162461bcd60e51b8152600401610bb0906159b3565b6007546001600160a01b031663bb3bffe08885612dfc8660001963ffffffff61364316565b89868c60400151600001518d61010001518c8f60e001516000015173__TradeTypesLib_________________________6332575cb66040518163ffffffff1660e01b815260040160006040518083038186803b158015612e5b57600080fd5b505af4158015612e6f573d6000803e3d6000fd5b505050506040513d6000823e601f3d908101601f19168201604052612e97919081019061489b565b6040518b63ffffffff1660e01b8152600401612ebc9a99989796959493929190615833565b600060405180830381600087803b158015612ed657600080fd5b505af1158015612eea573d6000803e3d6000fd5b5050505050505050505050565b60075460408085015160200151905163076470a560e31b81526001600160a01b0390921691633b23852891612f319188919060040161567c565b60206040518083038186803b158015612f4957600080fd5b505afa158015612f5d573d6000803e3d6000fd5b505050506040513d601f19601f82011682018060405250612f8191908101906147f3565b15806130125750600754604080850151602001519051637ff81c3760e01b81526001600160a01b0390921691637ff81c3791612fc29188919060040161567c565b60206040518083038186803b158015612fda57600080fd5b505afa158015612fee573d6000803e3d6000fd5b505050506040513d601f19601f8201168201806040525061301291908101906147f3565b61302e5760405162461bcd60e51b8152600401610bb0906159e3565b60085460408085015160200151905163076470a560e31b81526001600160a01b0390921691633b238528916130689188919060040161567c565b60206040518083038186803b15801561308057600080fd5b505afa158015613094573d6000803e3d6000fd5b505050506040513d601f19601f820116820180604052506130b891908101906147f3565b15806131495750600854604080850151602001519051637ff81c3760e01b81526001600160a01b0390921691637ff81c37916130f99188919060040161567c565b60206040518083038186803b15801561311157600080fd5b505afa158015613125573d6000803e3d6000fd5b505050506040513d601f19601f8201168201806040525061314991908101906147f3565b6131655760405162461bcd60e51b8152600401610bb090615953565b60008060006131758688876136a2565b6009546040808b0151602001519051633858654b60e01b815294975092955090935085926001600160a01b0390911691633858654b916131b9918c9160040161567c565b60206040518083038186803b1580156131d157600080fd5b505afa1580156131e5573d6000803e3d6000fd5b505050506040513d601f19601f820116820180604052506132099190810190614811565b106132265760405162461bcd60e51b8152600401610bb090615963565b6007546001600160a01b031663bb3bffe0888561324b8660001963ffffffff61364316565b89868c60400151602001518d61010001518c8f60e001516000015173__TradeTypesLib_________________________6332575cb66040518163ffffffff1660e01b815260040160006040518083038186803b158015612e5b57600080fd5b60075460408085015151905163076470a560e31b81526000928392839283926001600160a01b031691633b238528916132e7918a9160040161567c565b60206040518083038186803b1580156132ff57600080fd5b505afa158015613313573d6000803e3d6000fd5b505050506040513d601f19601f8201168201806040525061333791908101906147f3565b156134e757600754604080890151519051632ee2ed2560e01b81526000926001600160a01b031691632ee2ed2591613373918b9160040161567c565b60206040518083038186803b15801561338b57600080fd5b505afa15801561339f573d6000803e3d6000fd5b505050506040513d601f19601f820116820180604052506133c39190810190614811565b6009546040516324e2b0af60e11b81529192506000916001600160a01b03909116906349c5615e906133fb908b9086906004016156ee565b60206040518083038186803b15801561341357600080fd5b505afa158015613427573d6000803e3d6000fd5b505050506040513d601f19601f8201168201806040525061344b9190810190614811565b90508089610100015110156134e4576007546040808b0151519051633007230f60e11b81526001600160a01b039092169163600e461e91613491918c919060040161567c565b60206040518083038186803b1580156134a957600080fd5b505afa1580156134bd573d6000803e3d6000fd5b505050506040513d601f19601f820116820180604052506134e19190810190614811565b92505b50505b604087015151610100880151600554600092613517926001600160a01b03909216918a919063ffffffff613a1e16565b60035460405163059057d760e01b81529192506001600160a01b03169063059057d79061354a908b908b90600401615a56565b60206040518083038186803b15801561356257600080fd5b505afa158015613576573d6000803e3d6000fd5b505050506040513d601f19601f8201168201806040525061359a91908101906147f3565b156135b8576080880151805160a090910151515190955093506135cb565b60a0808901518051910151515190955093505b6135eb6135de828463ffffffff613a3a16565b859063ffffffff613a6c16565b60408901515160055491955061363691889161362a91889161361e916001600160a01b0316908d9063ffffffff613aa616565b9063ffffffff613a3a16565b9063ffffffff613a6c16565b9250505093509350939050565b60008260001914158061365a5750600160ff1b8214155b61366357600080fd5b816000191415806136785750600160ff1b8314155b61368157600080fd5b82820282158061369957508383828161369657fe5b05145b61264b57600080fd5b60075460408085015160200151905163076470a560e31b81526000928392839283926001600160a01b031691633b238528916136e2918a9160040161567c565b60206040518083038186803b1580156136fa57600080fd5b505afa15801561370e573d6000803e3d6000fd5b505050506040513d601f19601f8201168201806040525061373291908101906147f3565b156138e857600754604080890151602001519051632ee2ed2560e01b81526000926001600160a01b031691632ee2ed2591613771918b9160040161567c565b60206040518083038186803b15801561378957600080fd5b505afa15801561379d573d6000803e3d6000fd5b505050506040513d601f19601f820116820180604052506137c19190810190614811565b6009546040516324e2b0af60e11b81529192506000916001600160a01b03909116906349c5615e906137f9908b9086906004016156ee565b60206040518083038186803b15801561381157600080fd5b505afa158015613825573d6000803e3d6000fd5b505050506040513d601f19601f820116820180604052506138499190810190614811565b90508089610100015110156138e5576007546040808b0151602001519051633007230f60e11b81526001600160a01b039092169163600e461e91613892918c919060040161567c565b60206040518083038186803b1580156138aa57600080fd5b505afa1580156138be573d6000803e3d6000fd5b505050506040513d601f19601f820116820180604052506138e29190810190614811565b92505b50505b60408701516020015161010088015160055460009261391b926001600160a01b03909216918a919063ffffffff613a1e16565b60035460405163059057d760e01b81529192506001600160a01b03169063059057d79061394e908b908b90600401615a56565b60206040518083038186803b15801561396657600080fd5b505afa15801561397a573d6000803e3d6000fd5b505050506040513d601f19601f8201168201806040525061399e91908101906147f3565b156139bf576080880151805160a090910151602001515190955093506139d5565b60a0808901518051910151602001515190955093505b6139e86135de828463ffffffff613a3a16565b60408901516020015160055491955061363691889161362a91889161361e916001600160a01b0316908d9063ffffffff613aa616565b600080613a2d86868686613ca3565b509150505b949350505050565b6000828201818312801590613a4f5750838112155b806136995750600083128015613699575083811261264b57600080fd5b6000808212158015613a8057508282840313155b80613a975750600082128015613a97575082828403135b613aa057600080fd5b50900390565b60006105f5846001600160a01b03166371f4ec5185876001600160a01b0316634652ec746040518163ffffffff1660e01b815260040160206040518083038186803b158015613af457600080fd5b505afa158015613b08573d6000803e3d6000fd5b505050506040513d601f19601f82011682018060405250613b2c9190810190614811565b865160208801516040516001600160e01b031960e087901b168152613b5794939291906004016155fb565b60206040518083038186803b158015613b6f57600080fd5b505afa158015613b83573d6000803e3d6000fd5b505050506040513d601f19601f82011682018060405250613ba79190810190614811565b856001600160a01b03166371f4ec5186886001600160a01b031663ded113106040518163ffffffff1660e01b815260040160206040518083038186803b158015613bf057600080fd5b505afa158015613c04573d6000803e3d6000fd5b505050506040513d601f19601f82011682018060405250613c289190810190614811565b875160208901516040516001600160e01b031960e087901b168152613c5394939291906004016155fb565b60206040518083038186803b158015613c6b57600080fd5b505afa158015613c7f573d6000803e3d6000fd5b505050506040513d601f19601f8201168201806040525061361e9190810190614811565b600080600080876001600160a01b031663a246138c888a6001600160a01b031663ded113106040518163ffffffff1660e01b815260040160206040518083038186803b158015613cf257600080fd5b505afa158015613d06573d6000803e3d6000fd5b505050506040513d601f19601f82011682018060405250613d2a9190810190614811565b895160208b01516040516001600160e01b031960e087901b168152613d5794939291908c90600401615630565b604080518083038186803b158015613d6e57600080fd5b505afa158015613d82573d6000803e3d6000fd5b505050506040513d601f19601f82011682018060405250613da6919081019061486b565b91509150600080896001600160a01b031663a246138c8a8c6001600160a01b0316634652ec746040518163ffffffff1660e01b815260040160206040518083038186803b158015613df657600080fd5b505afa158015613e0a573d6000803e3d6000fd5b505050506040513d601f19601f82011682018060405250613e2e9190810190614811565b8b5160208d01516040516001600160e01b031960e087901b168152613e5b94939291908e90600401615630565b604080518083038186803b158015613e7257600080fd5b505afa158015613e86573d6000803e3d6000fd5b505050506040513d601f19601f82011682018060405250613eaa919081019061486b565b9092509050613ebf848363ffffffff613a3a16565b60405163a682d5ad60e01b815290965073__SafeMathUintLib_______________________9063a682d5ad90613efb9086908590600401615a76565b60206040518083038186803b158015613f1357600080fd5b505af4158015613f27573d6000803e3d6000fd5b505050506040513d601f19601f82011682018060405250613f4b9190810190614811565b94505050505094509492505050565b604080518082019091526000808252602082015290565b803561264e81615b97565b805161264e81615b97565b600082601f830112613f9857600080fd5b8135613fab613fa682615aaa565b615a84565b91508181835260208401935060208101905083856080840282011115613fd057600080fd5b60005b83811015613ffe5781613fe688826142da565b84525060209092019160809190910190600101613fd3565b5050505092915050565b805161264e81615bab565b803561264e81615bb4565b805161264e81615bb4565b803561264e81615bbd565b803561264e81615bc6565b805161264e81615bc6565b600082601f83011261405b57600080fd5b8151614069613fa682615aca565b9150808252602083016020830185838301111561408557600080fd5b614090838284615b54565b50505092915050565b6000604082840312156140ab57600080fd5b6140b56040615a84565b905060006140c38484613f71565b82525060206140d484848301614013565b60208301525092915050565b6000604082840312156140f257600080fd5b6140fc6040615a84565b905060006140c38484614013565b60006060828403121561411c57600080fd5b6141266040615a84565b905060006141348484614013565b82525060206140d484848301614099565b60006080828403121561415757600080fd5b6141616040615a84565b9050600061416f8484614099565b82525060406140d484848301614099565b60006080828403121561419257600080fd5b61419c6040615a84565b905060006141aa84846140e0565b82525060406140d4848483016140e0565b600061012082840312156141ce57600080fd5b6141d860a0615a84565b905060006141e68484614034565b82525060206141f784848301614013565b602083015250604061420b84828501614145565b60408301525060c061421f84828501614013565b60608301525060e0614233848285016140e0565b60808301525092915050565b60006102a0828403121561425257600080fd5b61425c60c0615a84565b9050600061426a8484614013565b825250602061427b84848301613f71565b602083015250604061428f848285016141bb565b6040830152506101606142a48482850161462a565b6060830152506102606142b984828501614013565b6080830152506102806142ce84828501614013565b60a08301525092915050565b6000608082840312156142ec57600080fd5b6142f66040615a84565b905060006143048484614013565b82525060206140d48484830161410a565b60006080828403121561432757600080fd5b6143316040615a84565b9050600061433f8484614013565b82525060206140d48484830160006060828403121561435d57600080fd5b6143676060615a84565b905060006143758484614013565b825250602061438684848301614013565b602083015250604061439a84828501614666565b60408301525092915050565b6000608082840312156143b857600080fd5b6143c26040615a84565b905060006143d0848461410a565b82525060608201356001600160401b038111156143ec57600080fd5b6140d484828501613f87565b600060a0828403121561440a57600080fd5b6144146060615a84565b905060006144228484614013565b8252506020614433848483016140e0565b602083015250606061439a848285016140e0565b60006101c0828403121561445a57600080fd5b61446460e0615a84565b905060006144728484614013565b825250602061448384848301613f71565b602083015250604061449784828501614013565b60408301525060606144ab84828501614034565b60608301525060806144bf848285016143f8565b6080830152506101206144d484828501614180565b60a0830152506101a08201356001600160401b038111156144f457600080fd5b614500848285016143a6565b60c08301525092915050565b6000610260828403121561451f57600080fd5b61452a610140615a84565b905060006145388484614013565b825250602061454984848301614013565b602083015250604061455d84828501614145565b60408301525060c061457184828501614013565b60608301525060e08201356001600160401b0381111561459057600080fd5b61459c84828501614447565b6080830152506101008201356001600160401b038111156145bc57600080fd5b6145c884828501614447565b60a0830152506101206145dd84828501614180565b60c0830152506101a06145f284828501614315565b60e08301525061022061460784828501614013565b6101008301525061024061461d84828501614013565b6101208301525092915050565b6000610100828403121561463d57600080fd5b6146476040615a84565b905060006146558484614315565b82525060806140d484848301614315565b803561264e81615bd3565b60006020828403121561468357600080fd5b6000613a328484613f71565b6000602082840312156146a157600080fd5b6000613a328484613f7c565b6000806000606084860312156146c257600080fd5b60006146ce8686613f71565b93505060206146df86828701613f71565b92505060406146f086828701614013565b9150509250925092565b6000806040838503121561470d57600080fd5b60006147198585613f71565b92505060208301356001600160401b0381111561473557600080fd5b6147418582860161450c565b9150509250929050565b6000806000806080858703121561476157600080fd5b600061476d8787613f71565b94505060208501356001600160401b0381111561478957600080fd5b6147958782880161450c565b93505060406147a687828801614013565b92505060606147b787828801614013565b91505092959194509250565b600080604083850312156147d657600080fd5b60006147e28585613f71565b925050602061474185828601614013565b60006020828403121561480557600080fd5b6000613a328484614008565b60006020828403121561482357600080fd5b6000613a32848461401e565b60006020828403121561484157600080fd5b6000613a328484614029565b60006020828403121561485f57600080fd5b6000613a32848461403f565b6000806040838503121561487e57600080fd5b600061488a858561401e565b92505060206147418582860161401e565b6000602082840312156148ad57600080fd5b81516001600160401b038111156148c357600080fd5b613a328482850161404a565b6000806102c083850312156148e357600080fd5b60006148ef858561423f565b9250506102a08301356001600160401b0381111561473557600080fd5b60008060006060848603121561492157600080fd5b83356001600160401b0381111561493757600080fd5b6149438682870161450c565b93505060206146df86828701614013565b6000614960838361521e565b505060800190565b61497181615b3e565b82525050565b61497181615b04565b600061498b82615af7565b6149958185615afb565b93506149a083615af1565b8060005b838110156149ce5781516149b88882614954565b97506149c383615af1565b9250506001016149a4565b509495945050505050565b61497181615b0f565b61497181615b14565b61497181615b17565b61497181615b49565b6000614a0882615af7565b614a128185615afb565b9350614a22818560208601615b54565b614a2b81615b80565b9093019392505050565b6000614a42603f83615afb565b7f4f7065726174696f6e616c206d6f6465206973206e6f74206e6f726d616c205b81527f436f6e666967757261626c654f7065726174696f6e616c2e736f6c3a32325d00602082015260400192915050565b6000614aa1603d83615afb565b7f57616c6c657420666f756e64206c6f636b6564205b4472696970536574746c6581527f6d656e744368616c6c656e6765427954726164652e736f6c3a3134345d000000602082015260400192915050565b6000614b00604383615afb565b7f50726f706f73616c20666f756e64207465726d696e61746564205b44726969708152600080516020615bfd83398151915260208201526233305d60e81b604082015260600192915050565b6000614b59607483615afb565b600080516020615c1d83398151915281527f6c656e67652070726f706f73616c20696e20636f6e6a756761746520637572726020820152600080516020615c3d833981519152604082015273656e6765427954726164652e736f6c3a3538395d60601b606082015260800192915050565b6000614bd7606a83615afb565b600080516020615c5d83398151915281527f746c6564206e6f6e636520696e20636f6e6a75676174652063757272656e637960208201527f205b4472696970536574746c656d656e744368616c6c656e6765427954726164604082015269652e736f6c3a3630305d60b01b606082015260800192915050565b6000614c5d603083615afb565b7f42616c616e636520747261636b65722066726f7a656e205b42616c616e63655481526f7261636b61626c652e736f6c3a34335d60801b602082015260400192915050565b6000614caf602d83615afb565b7f5472616465207365616c206e6f742067656e75696e65205b56616c696461746181526c626c6556322e736f6c3a37305d60981b602082015260400192915050565b6000614cfe607383615afb565b600080516020615c1d83398151915281527f6c656e67652070726f706f73616c20696e20696e74656e64656420637572726560208201527f6e637920666f756e64205b4472696970536574746c656d656e744368616c6c656040820152726e6765427954726164652e736f6c3a3535335d60681b606082015260800192915050565b6000614d8d604383615afb565b7f57616c6c6574206973206e6f74207472616465207061727479205b44726969708152600080516020615bfd83398151915260208201526231325d60e81b604082015260600192915050565b6000614de6606983615afb565b600080516020615c5d83398151915281527f746c6564206e6f6e636520696e20696e74656e6465642063757272656e63792060208201527f5b4472696970536574746c656d656e744368616c6c656e6765427954726164656040820152682e736f6c3a3536345d60b81b606082015260800192915050565b6000614e6b607483615afb565b600080516020615bdd83398151915281527f6c6c656e67652070726f706f73616c20696e20696e74656e64656420637572726020820152600080516020615c3d833981519152604082015273656e6765427954726164652e736f6c3a3534365d60601b606082015260800192915050565b6000614ee9606583615afb565b7f43757272656e7420626c6f636b206e756d6265722062656c6f77206561726c6981527f65737420736574746c656d656e7420626c6f636b206e756d626572205b44726960208201527f6970536574746c656d656e744368616c6c656e6765427954726164652e736f6c6040820152643a3530365d60d81b606082015260800192915050565b6000614f7c607583615afb565b600080516020615bdd83398151915281527f6c6c656e67652070726f706f73616c20696e20636f6e6a75676174652063757260208201527f72656e637920666f756e64205b4472696970536574746c656d656e744368616c6040820152746c656e6765427954726164652e736f6c3a3538325d60581b606082015260800192915050565b600061500d603b83615afb565b7f4e6f2070726f706f73616c20666f756e64205b4472696970536574746c656d6581527a6e744368616c6c656e6765427954726164652e736f6c3a3532365d60281b602082015260400192915050565b600061506a602c83615afb565b7f57616c6c6574206c6f636b65722066726f7a656e205b57616c6c65744c6f636b81526b61626c652e736f6c3a34335d60a01b602082015260400192915050565b805160408301906150bc8482614977565b50602082015161073360208501826149e2565b805160408301906150bc84826149e2565b805160608301906150f184826149e2565b50602082015161073360208501826150ab565b8051608083019061511584826150ab565b50602082015161073360408501826150ab565b8051608083019061513984826150cf565b50602082015161073360408501826150cf565b805161012083019061515e84826149f4565b50602082015161517160208501826149e2565b5060408201516151846040850182615104565b50606082015161519760c08501826149e2565b50608082015161073360e08501826150cf565b80516102a08301906151bc84826149e2565b5060208201516151cf6020850182614977565b5060408201516151e2604085018261514c565b5060608201516151f661016085018261546f565b50608082015161520a6102608501826149e2565b5060a08201516107336102808501826149e2565b8051608083019061522f84826149e2565b50602082015161073360208501826150e0565b8051608083019061525384826149e2565b50602082015161073360208501828051606083019061527284826149e2565b50602082015161528560208501826149e2565b5060408201516107336040850182615494565b805160009060808401906152ac85826150e0565b50602083015184820360608601526152c48282614980565b95945050505050565b805160a08301906152de84826149e2565b5060208201516152f160208501826150cf565b50604082015161073360608501826150cf565b80516000906101c084019061531985826149e2565b50602083015161532c6020860182614977565b50604083015161533f60408601826149e2565b50606083015161535260608601826149f4565b50608083015161536560808601826152cd565b5060a0830151615379610120860182615128565b5060c08301518482036101a08601526152c48282615298565b80516000906102608401906153a785826149e2565b5060208301516153ba60208601826149e2565b5060408301516153cd6040860182615104565b5060608301516153e060c08601826149e2565b50608083015184820360e08601526153f88282615304565b91505060a08301518482036101008601526154138282615304565b91505060c0830151615429610120860182615128565b5060e083015161543d6101a0860182615242565b506101008301516154526102208601826149e2565b506101208301516154676102408601826149e2565b509392505050565b80516101008301906154818482615242565b5060208201516107336080850182615242565b61497181615b38565b6020810161264e8284614977565b6020810161264e8284614968565b606081016154c78285614968565b6105f860208301846150ab565b61016081016154e3828e614968565b6154f0602083018d6149e2565b6154fd604083018c6149e2565b61550a606083018b6149e2565b615517608083018a614977565b61552460a08301896149e2565b61553160c08301886149e2565b61553e60e08301876149e2565b61554c6101008301866149e2565b61555a610120830185614977565b6155686101408301846149e2565b9c9b505050505050505050505050565b60e08101615586828a614968565b61559360208301896149e2565b6155a060408301886149e2565b6155ad60608301876149e2565b6155ba60808301866149e2565b6155c760a0830185614977565b6155d460c08301846149e2565b98975050505050505050565b604081016155ee8285614977565b6105f86020830184614977565b608081016156098287614977565b61561660208301866149e2565b6156236040830185614977565b6152c460608301846149e2565b60a0810161563e8288614977565b61564b60208301876149e2565b6156586040830186614977565b61566560608301856149e2565b61567260808301846149e2565b9695505050505050565b606081016154c78285614977565b60a081016156988287614977565b6156a560208301866150ab565b6156b260608301856149d9565b6152c460808301846149d9565b606081016156cd8286614977565b81810360208301526156df8185615392565b9050613a326040830184614968565b604081016156fc8285614977565b6105f860208301846149e2565b6101808101615718828f614977565b615725602083018e6149e2565b615732604083018d6149e2565b61573f606083018c6149e2565b61574c608083018b614977565b61575960a083018a6149e2565b61576660c08301896149e2565b61577360e08301886149e2565b6157816101008301876149e2565b61578f610120830186614977565b61579d6101408301856149e2565b6157ab610160830184614968565b9d9c50505050505050505050505050565b61010081016157cb828b614977565b6157d8602083018a6149e2565b6157e560408301896149e2565b6157f260608301886149e2565b6157ff60808301876149e2565b61580c60a0830186614977565b61581960c08301856149e2565b61582660e0830184614968565b9998505050505050505050565b6101608101615842828d614977565b61584f602083018c6149e2565b61585c604083018b6149e2565b615869606083018a6149e2565b61587660808301896149e2565b61588360a08301886150ab565b61589060e08301876149e2565b61589e6101008301866149d9565b6158ac6101208301856149e2565b81810361014083015261556881846149fd565b6020810161264e82846149d9565b6020810161264e82846149e2565b6020810161264e82846149eb565b604081016158f782856149eb565b6105f860208301846149eb565b6020810161264e82846149f4565b6020808252810161264b81846149fd565b60208082528101612aaf81614a35565b60208082528101612aaf81614a94565b60208082528101612aaf81614af3565b60208082528101612aaf81614b4c565b60208082528101612aaf81614bca565b60208082528101612aaf81614c50565b60208082528101612aaf81614ca2565b60208082528101612aaf81614cf1565b60208082528101612aaf81614d80565b60208082528101612aaf81614dd9565b60208082528101612aaf81614e5e565b60208082528101612aaf81614edc565b60208082528101612aaf81614f6f565b60208082528101612aaf81615000565b60208082528101612aaf8161505d565b6102e08101615a2282866151aa565b8181036102a0830152615a358185615392565b9050613a326102c0830184614968565b6020808252810161264b8184615392565b60408082528101615a678185615392565b90506105f86020830184614977565b604081016156fc82856149e2565b6040518181016001600160401b0381118282101715615aa257600080fd5b604052919050565b60006001600160401b03821115615ac057600080fd5b5060209081020190565b60006001600160401b03821115615ae057600080fd5b506020601f91909101601f19160190565b60200190565b5190565b90815260200190565b6000612aaf82615b2c565b151590565b90565b6000612aaf82615b04565b80612ab281615b8a565b6001600160a01b031690565b60ff1690565b6000612aaf82615b17565b6000612aaf82615b22565b60005b83811015615b6f578181015183820152602001615b57565b838111156107335750506000910152565b601f01601f191690565b60028110615b9457fe5b50565b615ba081615b04565b8114615b9457600080fd5b615ba081615b0f565b615ba081615b14565b615ba081615b17565b60028110615b9457600080fd5b615ba081615b3856fe4f7665726c617070696e6720647269697020736574746c656d656e7420636861536574746c656d656e744368616c6c656e6765427954726164652e736f6c3a354f7665726c617070696e67206e756c6c20736574746c656d656e74206368616c656e637920666f756e64205b4472696970536574746c656d656e744368616c6c57616c6c65742773206e6f6e63652062656c6f77206869676865737420736574a365627a7a7231582008432af3c726c1eae4c709f0d0a1e69ea1f7a182680678283df674d5c093a0b36c6578706572696d656e74616cf564736f6c634300050c0040",
  "source": "/*\n * Hubii Nahmii\n *\n * Compliant with the Hubii Nahmii specification v0.12.\n *\n * Copyright (C) 2017-2018 Hubii AS\n */\n\npragma solidity >=0.4.25 <0.6.0;\npragma experimental ABIEncoderV2;\n\nimport {Ownable} from \"./Ownable.sol\";\nimport {ConfigurableOperational} from \"./ConfigurableOperational.sol\";\nimport {ValidatableV2} from \"./ValidatableV2.sol\";\nimport {WalletLockable} from \"./WalletLockable.sol\";\nimport {BalanceTrackable} from \"./BalanceTrackable.sol\";\nimport {SafeMathIntLib} from \"./SafeMathIntLib.sol\";\nimport {SafeMathUintLib} from \"./SafeMathUintLib.sol\";\nimport {DriipSettlementDisputeByTrade} from \"./DriipSettlementDisputeByTrade.sol\";\nimport {DriipSettlementChallengeState} from \"./DriipSettlementChallengeState.sol\";\nimport {NullSettlementChallengeState} from \"./NullSettlementChallengeState.sol\";\nimport {DriipSettlementState} from \"./DriipSettlementState.sol\";\nimport {MonetaryTypesLib} from \"./MonetaryTypesLib.sol\";\nimport {NahmiiTypesLib} from \"./NahmiiTypesLib.sol\";\nimport {TradeTypesLib} from \"./TradeTypesLib.sol\";\nimport {SettlementChallengeTypesLib} from \"./SettlementChallengeTypesLib.sol\";\nimport {BalanceTracker} from \"./BalanceTracker.sol\";\nimport {BalanceTrackerLib} from \"./BalanceTrackerLib.sol\";\n\n/**\n * @title DriipSettlementChallengeByTrade\n * @notice Where driip settlements pertaining to trades are started and disputed\n */\ncontract DriipSettlementChallengeByTrade is Ownable, ConfigurableOperational, ValidatableV2, WalletLockable,\nBalanceTrackable {\n    using SafeMathIntLib for int256;\n    using SafeMathUintLib for uint256;\n    using BalanceTrackerLib for BalanceTracker;\n\n    //\n    // Variables\n    // -----------------------------------------------------------------------------------------------------------------\n    DriipSettlementDisputeByTrade public driipSettlementDisputeByTrade;\n    DriipSettlementChallengeState public driipSettlementChallengeState;\n    NullSettlementChallengeState public nullSettlementChallengeState;\n    DriipSettlementState public driipSettlementState;\n\n    //\n    // Events\n    // -----------------------------------------------------------------------------------------------------------------\n    event SetDriipSettlementDisputeByTradeEvent(DriipSettlementDisputeByTrade oldDriipSettlementDisputeByTrade,\n        DriipSettlementDisputeByTrade newDriipSettlementDisputeByTrade);\n    event SetDriipSettlementChallengeStateEvent(DriipSettlementChallengeState oldDriipSettlementChallengeState,\n        DriipSettlementChallengeState newDriipSettlementChallengeState);\n    event SetNullSettlementChallengeStateEvent(NullSettlementChallengeState oldNullSettlementChallengeState,\n        NullSettlementChallengeState newNullSettlementChallengeState);\n    event SetDriipSettlementStateEvent(DriipSettlementState oldDriipSettlementState,\n        DriipSettlementState newDriipSettlementState);\n    event StartChallengeFromTradeEvent(address wallet, uint256 intendedNonce, int256 intendedStageAmount,\n        int256 intendedTargetBalanceAmount, address intendedCurrencyCt, uint256 intendedCurrencyId,\n        uint256 conjugateNonce, int256 conjugateStageAmount, int256 conjugateTargetBalanceAmount,\n        address conjugateCurrencyCt, uint256 conjugateCurrencyId);\n    event StartChallengeFromTradeByProxyEvent(address wallet, uint256 intendedNonce, int256 intendedStageAmount,\n        int256 intendedTargetBalanceAmount, address intendedCurrencyCt, uint256 intendedCurrencyId,\n        uint256 conjugateNonce, int256 conjugateStageAmount, int256 conjugateTargetBalanceAmount,\n        address conjugateCurrencyCt, uint256 conjugateCurrencyId, address proxy);\n    event StopChallengeEvent(address wallet, uint256 nonce, int256 cumulativeTransferAmount,\n        int256 stageAmount, int256 targetBalanceAmount, address currencyCt, uint256 currencyId);\n    event StopChallengeByProxyEvent(address wallet, uint256 nonce, int256 cumulativeTransferAmount,\n        int256 stageAmount, int256 targetBalanceAmount, address currencyCt, uint256 currencyId, address proxy);\n    event UnchallengeOrderByTradeEvent(address challengedWallet, uint256 nonce, int256 cumulativeTransferAmount,\n        int256 stageAmount, int256 targetBalanceAmount, address currencyCt, uint256 currencyId,\n        address challengerWallet);\n    event ChallengeByTradeEvent(address challengedWallet, uint256 nonce, int256 cumulativeTransferAmount,\n        int256 stageAmount, int256 targetBalanceAmount, address currencyCt, uint256 currencyId,\n        address challengerWallet);\n\n    //\n    // Constructor\n    // -----------------------------------------------------------------------------------------------------------------\n    constructor(address deployer) Ownable(deployer) public {\n    }\n\n    //\n    // Functions\n    // -----------------------------------------------------------------------------------------------------------------\n    /// @notice Set the settlement dispute contract\n    /// @param newDriipSettlementDisputeByTrade The (address of) DriipSettlementDisputeByTrade contract instance\n    function setDriipSettlementDisputeByTrade(DriipSettlementDisputeByTrade newDriipSettlementDisputeByTrade)\n    public\n    onlyDeployer\n    notNullAddress(address(newDriipSettlementDisputeByTrade))\n    {\n        DriipSettlementDisputeByTrade oldDriipSettlementDisputeByTrade = driipSettlementDisputeByTrade;\n        driipSettlementDisputeByTrade = newDriipSettlementDisputeByTrade;\n        emit SetDriipSettlementDisputeByTradeEvent(oldDriipSettlementDisputeByTrade, driipSettlementDisputeByTrade);\n    }\n\n    /// @notice Set the driip settlement challenge state contract\n    /// @param newDriipSettlementChallengeState The (address of) DriipSettlementChallengeState contract instance\n    function setDriipSettlementChallengeState(DriipSettlementChallengeState newDriipSettlementChallengeState)\n    public\n    onlyDeployer\n    notNullAddress(address(newDriipSettlementChallengeState))\n    {\n        DriipSettlementChallengeState oldDriipSettlementChallengeState = driipSettlementChallengeState;\n        driipSettlementChallengeState = newDriipSettlementChallengeState;\n        emit SetDriipSettlementChallengeStateEvent(oldDriipSettlementChallengeState, driipSettlementChallengeState);\n    }\n\n    /// @notice Set the null settlement challenge state contract\n    /// @param newNullSettlementChallengeState The (address of) NullSettlementChallengeState contract instance\n    function setNullSettlementChallengeState(NullSettlementChallengeState newNullSettlementChallengeState)\n    public\n    onlyDeployer\n    notNullAddress(address(newNullSettlementChallengeState))\n    {\n        NullSettlementChallengeState oldNullSettlementChallengeState = nullSettlementChallengeState;\n        nullSettlementChallengeState = newNullSettlementChallengeState;\n        emit SetNullSettlementChallengeStateEvent(oldNullSettlementChallengeState, nullSettlementChallengeState);\n    }\n\n    /// @notice Set the driip settlement state contract\n    /// @param newDriipSettlementState The (address of) DriipSettlementState contract instance\n    function setDriipSettlementState(DriipSettlementState newDriipSettlementState)\n    public\n    onlyDeployer\n    notNullAddress(address(newDriipSettlementState))\n    {\n        DriipSettlementState oldDriipSettlementState = driipSettlementState;\n        driipSettlementState = newDriipSettlementState;\n        emit SetDriipSettlementStateEvent(oldDriipSettlementState, driipSettlementState);\n    }\n\n    /// @notice Start settlement challenge on trade\n    /// @param trade The challenged trade\n    /// @param intendedStageAmount Amount of intended currency to be staged\n    /// @param conjugateStageAmount Amount of conjugate currency to be staged\n    function startChallengeFromTrade(TradeTypesLib.Trade memory trade, int256 intendedStageAmount,\n        int256 conjugateStageAmount)\n    public\n    {\n        // Require that wallet is not temporarily disqualified\n        require(!walletLocker.isLocked(msg.sender), \"Wallet found locked [DriipSettlementChallengeByTrade.sol:144]\");\n\n        // Start challenge\n        _startChallengeFromTrade(msg.sender, trade, intendedStageAmount, conjugateStageAmount, true);\n\n        // Emit event\n        emit StartChallengeFromTradeEvent(\n            msg.sender,\n            driipSettlementChallengeState.proposalNonce(msg.sender, trade.currencies.intended),\n            intendedStageAmount,\n            driipSettlementChallengeState.proposalTargetBalanceAmount(msg.sender, trade.currencies.intended),\n            trade.currencies.intended.ct, trade.currencies.intended.id,\n            driipSettlementChallengeState.proposalNonce(msg.sender, trade.currencies.conjugate),\n            conjugateStageAmount,\n            driipSettlementChallengeState.proposalTargetBalanceAmount(msg.sender, trade.currencies.conjugate),\n            trade.currencies.conjugate.ct, trade.currencies.conjugate.id\n        );\n    }\n\n    /// @notice Start settlement challenge on trade by proxy\n    /// @param wallet The concerned party\n    /// @param trade The challenged trade\n    /// @param intendedStageAmount Amount of intended currency to be staged\n    /// @param conjugateStageAmount Amount of conjugate currency to be staged\n    function startChallengeFromTradeByProxy(address wallet, TradeTypesLib.Trade memory trade, int256 intendedStageAmount,\n        int256 conjugateStageAmount)\n    public\n    onlyOperator\n    {\n        // Start challenge for wallet\n        _startChallengeFromTrade(wallet, trade, intendedStageAmount, conjugateStageAmount, false);\n\n        // Emit event\n        emit StartChallengeFromTradeByProxyEvent(\n            wallet,\n            driipSettlementChallengeState.proposalNonce(wallet, trade.currencies.intended),\n            driipSettlementChallengeState.proposalStageAmount(wallet, trade.currencies.intended),\n            driipSettlementChallengeState.proposalTargetBalanceAmount(wallet, trade.currencies.intended),\n            trade.currencies.intended.ct, trade.currencies.intended.id,\n            driipSettlementChallengeState.proposalNonce(wallet, trade.currencies.conjugate),\n            driipSettlementChallengeState.proposalStageAmount(wallet, trade.currencies.conjugate),\n            driipSettlementChallengeState.proposalTargetBalanceAmount(wallet, trade.currencies.conjugate),\n            trade.currencies.conjugate.ct, trade.currencies.conjugate.id, msg.sender\n        );\n    }\n\n    /// @notice Stop settlement challenge\n    /// @param currencyCt The address of the concerned currency contract (address(0) == ETH)\n    /// @param currencyId The ID of the concerned currency (0 for ETH and ERC20)\n    function stopChallenge(address currencyCt, uint256 currencyId)\n    public\n    {\n        // Define currency\n        MonetaryTypesLib.Currency memory currency = MonetaryTypesLib.Currency(currencyCt, currencyId);\n\n        // Stop challenge\n        _stopChallenge(msg.sender, currency, true, true);\n\n        // Emit event\n        emit StopChallengeEvent(\n            msg.sender,\n            driipSettlementChallengeState.proposalNonce(msg.sender, currency),\n            driipSettlementChallengeState.proposalCumulativeTransferAmount(msg.sender, currency),\n            driipSettlementChallengeState.proposalStageAmount(msg.sender, currency),\n            driipSettlementChallengeState.proposalTargetBalanceAmount(msg.sender, currency),\n            currencyCt, currencyId\n        );\n    }\n\n    /// @notice Stop settlement challenge\n    /// @param wallet The concerned wallet\n    /// @param currencyCt The address of the concerned currency contract (address(0) == ETH)\n    /// @param currencyId The ID of the concerned currency (0 for ETH and ERC20)\n    function stopChallengeByProxy(address wallet, address currencyCt, uint256 currencyId)\n    public\n    onlyOperator\n    {\n        // Define currency\n        MonetaryTypesLib.Currency memory currency = MonetaryTypesLib.Currency(currencyCt, currencyId);\n\n        // Stop challenge\n        _stopChallenge(wallet, currency, true, false);\n\n        // Emit event\n        emit StopChallengeByProxyEvent(\n            wallet,\n            driipSettlementChallengeState.proposalNonce(wallet, currency),\n            driipSettlementChallengeState.proposalCumulativeTransferAmount(wallet, currency),\n            driipSettlementChallengeState.proposalStageAmount(wallet, currency),\n            driipSettlementChallengeState.proposalTargetBalanceAmount(wallet, currency),\n            currencyCt, currencyId, msg.sender\n        );\n    }\n\n    /// @notice Gauge whether the proposal for the given wallet and currency has expired\n    /// @param wallet The address of the concerned wallet\n    /// @param currencyCt The address of the concerned currency contract (address(0) == ETH)\n    /// @param currencyId The ID of the concerned currency (0 for ETH and ERC20)\n    /// @return true if proposal has expired, else false\n    function hasProposalExpired(address wallet, address currencyCt, uint256 currencyId)\n    public\n    view\n    returns (bool)\n    {\n        return driipSettlementChallengeState.hasProposalExpired(\n            wallet, MonetaryTypesLib.Currency(currencyCt, currencyId)\n        );\n    }\n\n    /// @notice Get the challenge nonce of the given wallet\n    /// @param wallet The address of the concerned wallet\n    /// @param currencyCt The address of the concerned currency contract (address(0) == ETH)\n    /// @param currencyId The ID of the concerned currency (0 for ETH and ERC20)\n    /// @return The challenge nonce\n    function proposalNonce(address wallet, address currencyCt, uint256 currencyId)\n    public\n    view\n    returns (uint256)\n    {\n        return driipSettlementChallengeState.proposalNonce(\n            wallet, MonetaryTypesLib.Currency(currencyCt, currencyId)\n        );\n    }\n\n    /// @notice Get the settlement proposal block number of the given wallet\n    /// @param wallet The address of the concerned wallet\n    /// @param currencyCt The address of the concerned currency contract (address(0) == ETH)\n    /// @param currencyId The ID of the concerned currency (0 for ETH and ERC20)\n    /// @return The settlement proposal block number\n    function proposalReferenceBlockNumber(address wallet, address currencyCt, uint256 currencyId)\n    public\n    view\n    returns (uint256)\n    {\n        return driipSettlementChallengeState.proposalReferenceBlockNumber(\n            wallet, MonetaryTypesLib.Currency(currencyCt, currencyId)\n        );\n    }\n\n    /// @notice Get the settlement proposal end time of the given wallet\n    /// @param wallet The address of the concerned wallet\n    /// @param currencyCt The address of the concerned currency contract (address(0) == ETH)\n    /// @param currencyId The ID of the concerned currency (0 for ETH and ERC20)\n    /// @return The settlement proposal end time\n    function proposalExpirationTime(address wallet, address currencyCt, uint256 currencyId)\n    public\n    view\n    returns (uint256)\n    {\n        return driipSettlementChallengeState.proposalExpirationTime(\n            wallet, MonetaryTypesLib.Currency(currencyCt, currencyId)\n        );\n    }\n\n    /// @notice Get the challenge status of the given wallet\n    /// @param wallet The address of the concerned wallet\n    /// @param currencyCt The address of the concerned currency contract (address(0) == ETH)\n    /// @param currencyId The ID of the concerned currency (0 for ETH and ERC20)\n    /// @return The challenge status\n    function proposalStatus(address wallet, address currencyCt, uint256 currencyId)\n    public\n    view\n    returns (SettlementChallengeTypesLib.Status)\n    {\n        return driipSettlementChallengeState.proposalStatus(\n            wallet, MonetaryTypesLib.Currency(currencyCt, currencyId)\n        );\n    }\n\n    /// @notice Get the settlement proposal stage amount of the given wallet and currency\n    /// @param wallet The address of the concerned wallet\n    /// @param currencyCt The address of the concerned currency contract (address(0) == ETH)\n    /// @param currencyId The ID of the concerned currency (0 for ETH and ERC20)\n    /// @return The settlement proposal stage amount\n    function proposalStageAmount(address wallet, address currencyCt, uint256 currencyId)\n    public\n    view\n    returns (int256)\n    {\n        return driipSettlementChallengeState.proposalStageAmount(\n            wallet, MonetaryTypesLib.Currency(currencyCt, currencyId)\n        );\n    }\n\n    /// @notice Get the settlement proposal target balance amount of the given wallet and currency\n    /// @param wallet The address of the concerned wallet\n    /// @param currencyCt The address of the concerned currency contract (address(0) == ETH)\n    /// @param currencyId The ID of the concerned currency (0 for ETH and ERC20)\n    /// @return The settlement proposal target balance amount\n    function proposalTargetBalanceAmount(address wallet, address currencyCt, uint256 currencyId)\n    public\n    view\n    returns (int256)\n    {\n        return driipSettlementChallengeState.proposalTargetBalanceAmount(\n            wallet, MonetaryTypesLib.Currency(currencyCt, currencyId)\n        );\n    }\n\n    /// @notice Get the settlement proposal driip hash of the given wallet and currency\n    /// @param wallet The address of the concerned wallet\n    /// @param currencyCt The address of the concerned currency contract (address(0) == ETH)\n    /// @param currencyId The ID of the concerned currency (0 for ETH and ERC20)\n    /// @return The settlement proposal driip hash\n    function proposalChallengedHash(address wallet, address currencyCt, uint256 currencyId)\n    public\n    view\n    returns (bytes32)\n    {\n        return driipSettlementChallengeState.proposalChallengedHash(\n            wallet, MonetaryTypesLib.Currency(currencyCt, currencyId)\n        );\n    }\n\n    /// @notice Get the settlement proposal driip type of the given wallet and currency\n    /// @param wallet The address of the concerned wallet\n    /// @param currencyCt The address of the concerned currency contract (address(0) == ETH)\n    /// @param currencyId The ID of the concerned currency (0 for ETH and ERC20)\n    /// @return The settlement proposal driip type\n    function proposalChallengedKind(address wallet, address currencyCt, uint256 currencyId)\n    public\n    view\n    returns (string memory)\n    {\n        return driipSettlementChallengeState.proposalChallengedKind(\n            wallet, MonetaryTypesLib.Currency(currencyCt, currencyId)\n        );\n    }\n\n    /// @notice Get the balance reward of the given wallet's settlement proposal\n    /// @param wallet The address of the concerned wallet\n    /// @param currencyCt The address of the concerned currency contract (address(0) == ETH)\n    /// @param currencyId The ID of the concerned currency (0 for ETH and ERC20)\n    /// @return The balance reward of the settlement proposal\n    function proposalWalletInitiated(address wallet, address currencyCt, uint256 currencyId)\n    public\n    view\n    returns (bool)\n    {\n        return driipSettlementChallengeState.proposalWalletInitiated(\n            wallet, MonetaryTypesLib.Currency(currencyCt, currencyId)\n        );\n    }\n\n    /// @notice Get the disqualification challenger of the given wallet and currency\n    /// @param wallet The address of the concerned wallet\n    /// @param currencyCt The address of the concerned currency contract (address(0) == ETH)\n    /// @param currencyId The ID of the concerned currency (0 for ETH and ERC20)\n    /// @return The challenger of the settlement disqualification\n    function proposalDisqualificationChallenger(address wallet, address currencyCt, uint256 currencyId)\n    public\n    view\n    returns (address)\n    {\n        return driipSettlementChallengeState.proposalDisqualificationChallenger(\n            wallet, MonetaryTypesLib.Currency(currencyCt, currencyId)\n        );\n    }\n    /// @notice Get the disqualification block number of the given wallet and currency\n    /// @param wallet The address of the concerned wallet\n    /// @param currencyCt The address of the concerned currency contract (address(0) == ETH)\n    /// @param currencyId The ID of the concerned currency (0 for ETH and ERC20)\n    /// @return The block number of the settlement disqualification\n    function proposalDisqualificationBlockNumber(address wallet, address currencyCt, uint256 currencyId)\n    public\n    view\n    returns (uint256)\n    {\n        return driipSettlementChallengeState.proposalDisqualificationBlockNumber(\n            wallet, MonetaryTypesLib.Currency(currencyCt, currencyId)\n        );\n    }\n\n    /// @notice Get the disqualification candidate kind of the given wallet and currency\n    /// @param wallet The address of the concerned wallet\n    /// @param currencyCt The address of the concerned currency contract (address(0) == ETH)\n    /// @param currencyId The ID of the concerned currency (0 for ETH and ERC20)\n    /// @return The candidate kind of the settlement disqualification\n    function proposalDisqualificationCandidateKind(address wallet, address currencyCt, uint256 currencyId)\n    public\n    view\n    returns (string memory)\n    {\n        return driipSettlementChallengeState.proposalDisqualificationCandidateKind(\n            wallet, MonetaryTypesLib.Currency(currencyCt, currencyId)\n        );\n    }\n\n    /// @notice Get the disqualification candidate hash of the given wallet and currency\n    /// @param wallet The address of the concerned wallet\n    /// @param currencyCt The address of the concerned currency contract (address(0) == ETH)\n    /// @param currencyId The ID of the concerned currency (0 for ETH and ERC20)\n    /// @return The candidate hash of the settlement disqualification\n    function proposalDisqualificationCandidateHash(address wallet, address currencyCt, uint256 currencyId)\n    public\n    view\n    returns (bytes32)\n    {\n        return driipSettlementChallengeState.proposalDisqualificationCandidateHash(\n            wallet, MonetaryTypesLib.Currency(currencyCt, currencyId)\n        );\n    }\n\n    /// @notice Unchallenge settlement by providing trade that shows that challenge order candidate has been filled\n    /// @param order The order candidate that challenged driip\n    /// @param trade The trade in which order has been filled\n    function unchallengeOrderCandidateByTrade(TradeTypesLib.Order memory order, TradeTypesLib.Trade memory trade)\n    public\n    onlyOperationalModeNormal\n    {\n        // Unchallenge by trade\n        driipSettlementDisputeByTrade.unchallengeOrderCandidateByTrade(order, trade, msg.sender);\n\n        // Get concerned currency\n        MonetaryTypesLib.Currency memory currency = _orderCurrency(order);\n\n        // Emit event\n        emit UnchallengeOrderByTradeEvent(\n            order.wallet,\n            driipSettlementChallengeState.proposalNonce(order.wallet, currency),\n            driipSettlementChallengeState.proposalCumulativeTransferAmount(order.wallet, currency),\n            driipSettlementChallengeState.proposalStageAmount(order.wallet, currency),\n            driipSettlementChallengeState.proposalTargetBalanceAmount(order.wallet, currency),\n            currency.ct, currency.id,\n            msg.sender\n        );\n    }\n\n    /// @notice Challenge the settlement by providing trade candidate\n    /// @param wallet The wallet whose settlement is being challenged\n    /// @param trade The trade candidate that challenges the challenged driip\n    function challengeByTrade(address wallet, TradeTypesLib.Trade memory trade)\n    public\n    onlyOperationalModeNormal\n    {\n        // Challenge by trade\n        driipSettlementDisputeByTrade.challengeByTrade(wallet, trade, msg.sender);\n\n        // Get concerned currency\n        MonetaryTypesLib.Currency memory currency = _tradeCurrency(trade, wallet);\n\n        // Emit event\n        emit ChallengeByTradeEvent(\n            wallet,\n            driipSettlementChallengeState.proposalNonce(wallet, currency),\n            driipSettlementChallengeState.proposalCumulativeTransferAmount(wallet, currency),\n            driipSettlementChallengeState.proposalStageAmount(wallet, currency),\n            driipSettlementChallengeState.proposalTargetBalanceAmount(wallet, currency),\n            currency.ct, currency.id,\n            msg.sender\n        );\n    }\n\n    //\n    // Private functions\n    // -----------------------------------------------------------------------------------------------------------------\n    function _startChallengeFromTrade(address wallet, TradeTypesLib.Trade memory trade,\n        int256 intendedStageAmount, int256 conjugateStageAmount, bool walletInitiated)\n    private\n    onlySealedTrade(trade)\n    {\n        // Require that current block number is beyond the earliest settlement challenge block number\n        require(\n            block.number >= configuration.earliestSettlementBlockNumber(),\n            \"Current block number below earliest settlement block number [DriipSettlementChallengeByTrade.sol:506]\"\n        );\n\n        // Require that given wallet is a trade party\n        require(\n            validator.isTradeParty(trade, wallet),\n            \"Wallet is not trade party [DriipSettlementChallengeByTrade.sol:512]\"\n        );\n\n        // Create proposals\n        _addIntendedProposalFromTrade(wallet, trade, intendedStageAmount, walletInitiated);\n        _addConjugateProposalFromTrade(wallet, trade, conjugateStageAmount, walletInitiated);\n    }\n\n    function _stopChallenge(address wallet, MonetaryTypesLib.Currency memory currency, bool clearNonce, bool walletTerminated)\n    private\n    {\n        // Require that there is an unterminated driip settlement challenge proposal\n        require(\n            driipSettlementChallengeState.hasProposal(wallet, currency),\n            \"No proposal found [DriipSettlementChallengeByTrade.sol:526]\"\n        );\n        require(\n            !driipSettlementChallengeState.hasProposalTerminated(wallet, currency),\n            \"Proposal found terminated [DriipSettlementChallengeByTrade.sol:530]\"\n        );\n\n        // Terminate driip settlement challenge proposal\n        driipSettlementChallengeState.terminateProposal(wallet, currency, clearNonce, walletTerminated);\n\n        // Terminate dependent null settlement challenge proposal if existent\n        nullSettlementChallengeState.terminateProposal(wallet, currency);\n    }\n\n    function _addIntendedProposalFromTrade(address wallet, TradeTypesLib.Trade memory trade, int256 stageAmount, bool walletInitiated)\n    private\n    {\n        // Require that there is no ongoing overlapping driip settlement challenge\n        require(\n            !driipSettlementChallengeState.hasProposal(wallet, trade.currencies.intended) ||\n        driipSettlementChallengeState.hasProposalTerminated(wallet, trade.currencies.intended),\n            \"Overlapping driip settlement challenge proposal in intended currency found [DriipSettlementChallengeByTrade.sol:546]\"\n        );\n\n        // Require that there is no ongoing overlapping null settlement challenge\n        require(\n            !nullSettlementChallengeState.hasProposal(wallet, trade.currencies.intended) ||\n        nullSettlementChallengeState.hasProposalTerminated(wallet, trade.currencies.intended),\n            \"Overlapping null settlement challenge proposal in intended currency found [DriipSettlementChallengeByTrade.sol:553]\"\n        );\n\n        // Deduce the concerned nonce and cumulative relative transfer\n        (uint256 nonce, int256 cumulativeTransferAmount, int256 targetBalanceAmount) =\n        _tradePartyIntendedProperties(trade, wallet, stageAmount);\n\n        // Require that the wallet nonce of the trade is higher than the highest settled wallet nonce\n        require(\n            driipSettlementState.maxNonceByWalletAndCurrency(wallet, trade.currencies.intended) < nonce,\n            \"Wallet's nonce below highest settled nonce in intended currency [DriipSettlementChallengeByTrade.sol:564]\"\n        );\n\n        // Initiate proposal, including assurance that there is no overlap with active proposal,\n        // cumulative transfer amount with negative sign\n        driipSettlementChallengeState.initiateProposal(\n            wallet, nonce, cumulativeTransferAmount.mul(- 1), stageAmount, targetBalanceAmount,\n            trade.currencies.intended, trade.blockNumber,\n            walletInitiated, trade.seal.hash, TradeTypesLib.TRADE_KIND()\n        );\n    }\n\n    function _addConjugateProposalFromTrade(address wallet, TradeTypesLib.Trade memory trade, int256 stageAmount, bool walletInitiated)\n    private\n    {\n        // Require that there is no ongoing overlapping driip settlement challenge\n        require(\n            !driipSettlementChallengeState.hasProposal(wallet, trade.currencies.conjugate) ||\n        driipSettlementChallengeState.hasProposalTerminated(wallet, trade.currencies.conjugate),\n            \"Overlapping driip settlement challenge proposal in conjugate currency found [DriipSettlementChallengeByTrade.sol:582]\"\n        );\n\n        // Require that there is no ongoing overlapping null settlement challenge\n        require(\n            !nullSettlementChallengeState.hasProposal(wallet, trade.currencies.conjugate) ||\n        nullSettlementChallengeState.hasProposalTerminated(wallet, trade.currencies.conjugate),\n            \"Overlapping null settlement challenge proposal in conjugate currency found [DriipSettlementChallengeByTrade.sol:589]\"\n        );\n\n        // Deduce the concerned nonce and cumulative relative transfer\n        (uint256 nonce, int256 cumulativeTransferAmount, int256 targetBalanceAmount) =\n        _tradePartyConjugateProperties(trade, wallet, stageAmount);\n\n        // Require that the wallet nonce of the trade is higher than the highest settled wallet nonce\n        require(\n            driipSettlementState.maxNonceByWalletAndCurrency(wallet, trade.currencies.conjugate) < nonce,\n            \"Wallet's nonce below highest settled nonce in conjugate currency [DriipSettlementChallengeByTrade.sol:600]\"\n        );\n\n        // Initiate proposal, including assurance that there is no overlap with active proposal,\n        // cumulative transfer amount with negative sign\n        driipSettlementChallengeState.initiateProposal(\n            wallet, nonce, cumulativeTransferAmount.mul(- 1), stageAmount, targetBalanceAmount,\n            trade.currencies.conjugate, trade.blockNumber,\n            walletInitiated, trade.seal.hash, TradeTypesLib.TRADE_KIND()\n        );\n    }\n\n    function _tradePartyIntendedProperties(TradeTypesLib.Trade memory trade, address wallet, int256 stageAmount)\n    private\n    view\n    returns (uint nonce, int256 correctedCumulativeTransferAmount, int256 targetBalanceAmount)\n    {\n        // Obtain unsynchronized stage amount from previous driip settlement if existent.\n        int256 unsynchronizedStageAmount = 0;\n        if (driipSettlementChallengeState.hasProposal(wallet, trade.currencies.intended)) {\n            uint256 previousChallengeNonce = driipSettlementChallengeState.proposalNonce(wallet, trade.currencies.intended);\n\n            // Get settlement party done block number. The function returns 0 if the settlement party has not effectuated\n            // its side of the settlement.\n            uint256 settlementPartyDoneBlockNumber = driipSettlementState.settlementPartyDoneBlockNumber(\n                wallet, previousChallengeNonce\n            );\n\n            // If trade is not up to date wrt events affecting the wallet's balance then obtain\n            // the unsynchronized stage amount from the previous driip settlement challenge.\n            if (trade.blockNumber < settlementPartyDoneBlockNumber)\n                unsynchronizedStageAmount = driipSettlementChallengeState.proposalStageAmount(\n                    wallet, trade.currencies.intended\n                );\n        }\n\n        // Obtain the active balance amount at the trade block\n        int256 balanceAmountAtTradeBlock = balanceTracker.fungibleActiveBalanceAmountByBlockNumber(\n            wallet, trade.currencies.intended, trade.blockNumber\n        );\n\n        // Obtain nonce and (base of) cumulative (relative) transfer amount.\n        if (validator.isTradeBuyer(trade, wallet)) {\n            nonce = trade.buyer.nonce;\n            correctedCumulativeTransferAmount = trade.buyer.balances.intended.current;\n        } else {\n            nonce = trade.seller.nonce;\n            correctedCumulativeTransferAmount = trade.seller.balances.intended.current;\n        }\n\n        // Correct the cumulative transfer amount for wrong value occurring from\n        // race condition of off-chain wallet rebalance resulting from completed settlement\n        correctedCumulativeTransferAmount = correctedCumulativeTransferAmount.sub(\n            balanceAmountAtTradeBlock.add(unsynchronizedStageAmount)\n        );\n\n        // Calculate target balance amount from current active balance, corrected cumulative transfer amount\n        // and stage amount\n        targetBalanceAmount = balanceTracker.fungibleActiveBalanceAmount(wallet, trade.currencies.intended)\n        .add(correctedCumulativeTransferAmount).sub(stageAmount);\n    }\n\n    function _tradePartyConjugateProperties(TradeTypesLib.Trade memory trade, address wallet, int256 stageAmount)\n    private\n    view\n    returns (uint nonce, int256 correctedCumulativeTransferAmount, int256 targetBalanceAmount)\n    {\n        // Obtain unsynchronized stage amount from previous driip settlement if existent.\n        int256 unsynchronizedStageAmount = 0;\n        if (driipSettlementChallengeState.hasProposal(wallet, trade.currencies.conjugate)) {\n            uint256 previousChallengeNonce = driipSettlementChallengeState.proposalNonce(wallet, trade.currencies.conjugate);\n\n            // Get settlement party done block number. The function returns 0 if the settlement party has not effectuated\n            // its side of the settlement.\n            uint256 settlementPartyDoneBlockNumber = driipSettlementState.settlementPartyDoneBlockNumber(\n                wallet, previousChallengeNonce\n            );\n\n            // If trade is not up to date wrt events affecting the wallet's balance then obtain\n            // the unsynchronized stage amount from the previous driip settlement challenge.\n            if (trade.blockNumber < settlementPartyDoneBlockNumber)\n                unsynchronizedStageAmount = driipSettlementChallengeState.proposalStageAmount(\n                    wallet, trade.currencies.conjugate\n                );\n        }\n\n        // Obtain the active balance amount at the trade block\n        int256 balanceAmountAtTradeBlock = balanceTracker.fungibleActiveBalanceAmountByBlockNumber(\n            wallet, trade.currencies.conjugate, trade.blockNumber\n        );\n\n        // Obtain nonce and (base of) cumulative (relative) transfer amount.\n        if (validator.isTradeBuyer(trade, wallet)) {\n            nonce = trade.buyer.nonce;\n            correctedCumulativeTransferAmount = trade.buyer.balances.conjugate.current;\n        } else {\n            nonce = trade.seller.nonce;\n            correctedCumulativeTransferAmount = trade.seller.balances.conjugate.current;\n        }\n\n        // Correct the cumulative transfer amount for wrong value occurring from\n        // race condition of off-chain wallet rebalance resulting from completed settlement\n        correctedCumulativeTransferAmount = correctedCumulativeTransferAmount.sub(\n            balanceAmountAtTradeBlock.add(unsynchronizedStageAmount)\n        );\n\n        // Calculate target balance amount from current active balance, corrected cumulative transfer amount\n        // and stage amount\n        targetBalanceAmount = balanceTracker.fungibleActiveBalanceAmount(wallet, trade.currencies.conjugate)\n        .add(correctedCumulativeTransferAmount).sub(stageAmount);\n    }\n\n    // Get the candidate order currency\n    // Buy order -> Conjugate currency\n    // Sell order -> Intended currency\n    function _orderCurrency(TradeTypesLib.Order memory order)\n    private\n    pure\n    returns (MonetaryTypesLib.Currency memory)\n    {\n        return TradeTypesLib.Intention.Sell == order.placement.intention ?\n        order.placement.currencies.intended :\n        order.placement.currencies.conjugate;\n    }\n\n    // Get the candidate trade currency\n    // Wallet is buyer in (candidate) trade -> Conjugate currency\n    // Wallet is seller in (candidate) trade -> Intended currency\n    function _tradeCurrency(TradeTypesLib.Trade memory trade, address wallet)\n    private\n    view\n    returns (MonetaryTypesLib.Currency memory)\n    {\n        return validator.isTradeBuyer(trade, wallet) ?\n        trade.currencies.conjugate :\n        trade.currencies.intended;\n    }\n}",
  "sourcePath": "/opt/buildagent/work/855e104608380c36/contracts/DriipSettlementChallengeByTrade.sol",
  "compiler": {
    "name": "solc",
    "version": "0.5.12+commit.7709ece9.Emscripten.clang"
  },
  "schemaVersion": "2.0.3",
  "updatedAt": "2019-10-23T00:21:40.729Z"
}