{
  "contractName": "DriipSettlementChallengeByTrade",
  "abi": [
    {
      "constant": false,
      "inputs": [
        {
          "name": "newValidator",
          "type": "address"
        }
      ],
      "name": "setValidator",
      "outputs": [],
      "payable": false,
      "stateMutability": "nonpayable",
      "type": "function"
    },
    {
      "constant": true,
      "inputs": [],
      "name": "walletLockerFrozen",
      "outputs": [
        {
          "name": "",
          "type": "bool"
        }
      ],
      "payable": false,
      "stateMutability": "view",
      "type": "function"
    },
    {
      "constant": false,
      "inputs": [],
      "name": "triggerSelfDestruction",
      "outputs": [],
      "payable": false,
      "stateMutability": "nonpayable",
      "type": "function"
    },
    {
      "constant": true,
      "inputs": [],
      "name": "selfDestructionDisabled",
      "outputs": [
        {
          "name": "",
          "type": "bool"
        }
      ],
      "payable": false,
      "stateMutability": "view",
      "type": "function"
    },
    {
      "constant": true,
      "inputs": [],
      "name": "validator",
      "outputs": [
        {
          "name": "",
          "type": "address"
        }
      ],
      "payable": false,
      "stateMutability": "view",
      "type": "function"
    },
    {
      "constant": true,
      "inputs": [],
      "name": "destructor",
      "outputs": [
        {
          "name": "",
          "type": "address"
        }
      ],
      "payable": false,
      "stateMutability": "view",
      "type": "function"
    },
    {
      "constant": true,
      "inputs": [],
      "name": "driipSettlementDisputeByTrade",
      "outputs": [
        {
          "name": "",
          "type": "address"
        }
      ],
      "payable": false,
      "stateMutability": "view",
      "type": "function"
    },
    {
      "constant": true,
      "inputs": [],
      "name": "driipSettlementChallengeState",
      "outputs": [
        {
          "name": "",
          "type": "address"
        }
      ],
      "payable": false,
      "stateMutability": "view",
      "type": "function"
    },
    {
      "constant": true,
      "inputs": [],
      "name": "operator",
      "outputs": [
        {
          "name": "",
          "type": "address"
        }
      ],
      "payable": false,
      "stateMutability": "view",
      "type": "function"
    },
    {
      "constant": false,
      "inputs": [],
      "name": "freezeWalletLocker",
      "outputs": [],
      "payable": false,
      "stateMutability": "nonpayable",
      "type": "function"
    },
    {
      "constant": false,
      "inputs": [
        {
          "name": "newConfiguration",
          "type": "address"
        }
      ],
      "name": "setConfiguration",
      "outputs": [],
      "payable": false,
      "stateMutability": "nonpayable",
      "type": "function"
    },
    {
      "constant": true,
      "inputs": [],
      "name": "configuration",
      "outputs": [
        {
          "name": "",
          "type": "address"
        }
      ],
      "payable": false,
      "stateMutability": "view",
      "type": "function"
    },
    {
      "constant": false,
      "inputs": [],
      "name": "disableSelfDestruction",
      "outputs": [],
      "payable": false,
      "stateMutability": "nonpayable",
      "type": "function"
    },
    {
      "constant": false,
      "inputs": [
        {
          "name": "newWalletLocker",
          "type": "address"
        }
      ],
      "name": "setWalletLocker",
      "outputs": [],
      "payable": false,
      "stateMutability": "nonpayable",
      "type": "function"
    },
    {
      "constant": false,
      "inputs": [
        {
          "name": "newDeployer",
          "type": "address"
        }
      ],
      "name": "setDeployer",
      "outputs": [],
      "payable": false,
      "stateMutability": "nonpayable",
      "type": "function"
    },
    {
      "constant": false,
      "inputs": [
        {
          "name": "newOperator",
          "type": "address"
        }
      ],
      "name": "setOperator",
      "outputs": [],
      "payable": false,
      "stateMutability": "nonpayable",
      "type": "function"
    },
    {
      "constant": true,
      "inputs": [],
      "name": "deployer",
      "outputs": [
        {
          "name": "",
          "type": "address"
        }
      ],
      "payable": false,
      "stateMutability": "view",
      "type": "function"
    },
    {
      "constant": true,
      "inputs": [],
      "name": "walletLocker",
      "outputs": [
        {
          "name": "",
          "type": "address"
        }
      ],
      "payable": false,
      "stateMutability": "view",
      "type": "function"
    },
    {
      "constant": true,
      "inputs": [],
      "name": "nullSettlementChallengeState",
      "outputs": [
        {
          "name": "",
          "type": "address"
        }
      ],
      "payable": false,
      "stateMutability": "view",
      "type": "function"
    },
    {
      "inputs": [
        {
          "name": "deployer",
          "type": "address"
        }
      ],
      "payable": false,
      "stateMutability": "nonpayable",
      "type": "constructor"
    },
    {
      "anonymous": false,
      "inputs": [
        {
          "indexed": false,
          "name": "oldDriipSettlementDisputeByTrade",
          "type": "address"
        },
        {
          "indexed": false,
          "name": "newDriipSettlementDisputeByTrade",
          "type": "address"
        }
      ],
      "name": "SetDriipSettlementDisputeByTradeEvent",
      "type": "event"
    },
    {
      "anonymous": false,
      "inputs": [
        {
          "indexed": false,
          "name": "oldDriipSettlementChallengeState",
          "type": "address"
        },
        {
          "indexed": false,
          "name": "newDriipSettlementChallengeState",
          "type": "address"
        }
      ],
      "name": "SetDriipSettlementChallengeStateEvent",
      "type": "event"
    },
    {
      "anonymous": false,
      "inputs": [
        {
          "indexed": false,
          "name": "oldNullSettlementChallengeState",
          "type": "address"
        },
        {
          "indexed": false,
          "name": "newNullSettlementChallengeState",
          "type": "address"
        }
      ],
      "name": "SetNullSettlementChallengeStateEvent",
      "type": "event"
    },
    {
      "anonymous": false,
      "inputs": [
        {
          "indexed": false,
          "name": "wallet",
          "type": "address"
        },
        {
          "indexed": false,
          "name": "tradeHash",
          "type": "bytes32"
        },
        {
          "indexed": false,
          "name": "intendedStageAmount",
          "type": "int256"
        },
        {
          "indexed": false,
          "name": "conjugateStageAmount",
          "type": "int256"
        }
      ],
      "name": "StartChallengeFromTradeEvent",
      "type": "event"
    },
    {
      "anonymous": false,
      "inputs": [
        {
          "indexed": false,
          "name": "proxy",
          "type": "address"
        },
        {
          "indexed": false,
          "name": "wallet",
          "type": "address"
        },
        {
          "indexed": false,
          "name": "tradeHash",
          "type": "bytes32"
        },
        {
          "indexed": false,
          "name": "intendedStageAmount",
          "type": "int256"
        },
        {
          "indexed": false,
          "name": "conjugateStageAmount",
          "type": "int256"
        }
      ],
      "name": "StartChallengeFromTradeByProxyEvent",
      "type": "event"
    },
    {
      "anonymous": false,
      "inputs": [
        {
          "indexed": false,
          "name": "wallet",
          "type": "address"
        },
        {
          "indexed": false,
          "name": "currencyCt",
          "type": "address"
        },
        {
          "indexed": false,
          "name": "currencyId",
          "type": "uint256"
        }
      ],
      "name": "StopChallengeEvent",
      "type": "event"
    },
    {
      "anonymous": false,
      "inputs": [
        {
          "indexed": false,
          "name": "proxy",
          "type": "address"
        },
        {
          "indexed": false,
          "name": "wallet",
          "type": "address"
        },
        {
          "indexed": false,
          "name": "currencyCt",
          "type": "address"
        },
        {
          "indexed": false,
          "name": "currencyId",
          "type": "uint256"
        }
      ],
      "name": "StopChallengeByProxyEvent",
      "type": "event"
    },
    {
      "anonymous": false,
      "inputs": [
        {
          "indexed": false,
          "name": "oldWalletLocker",
          "type": "address"
        },
        {
          "indexed": false,
          "name": "newWalletLocker",
          "type": "address"
        }
      ],
      "name": "SetWalletLockerEvent",
      "type": "event"
    },
    {
      "anonymous": false,
      "inputs": [],
      "name": "FreezeWalletLockerEvent",
      "type": "event"
    },
    {
      "anonymous": false,
      "inputs": [
        {
          "indexed": false,
          "name": "oldValidator",
          "type": "address"
        },
        {
          "indexed": false,
          "name": "newValidator",
          "type": "address"
        }
      ],
      "name": "SetValidatorEvent",
      "type": "event"
    },
    {
      "anonymous": false,
      "inputs": [
        {
          "indexed": false,
          "name": "oldConfiguration",
          "type": "address"
        },
        {
          "indexed": false,
          "name": "newConfiguration",
          "type": "address"
        }
      ],
      "name": "SetConfigurationEvent",
      "type": "event"
    },
    {
      "anonymous": false,
      "inputs": [
        {
          "indexed": false,
          "name": "oldDeployer",
          "type": "address"
        },
        {
          "indexed": false,
          "name": "newDeployer",
          "type": "address"
        }
      ],
      "name": "SetDeployerEvent",
      "type": "event"
    },
    {
      "anonymous": false,
      "inputs": [
        {
          "indexed": false,
          "name": "oldOperator",
          "type": "address"
        },
        {
          "indexed": false,
          "name": "newOperator",
          "type": "address"
        }
      ],
      "name": "SetOperatorEvent",
      "type": "event"
    },
    {
      "anonymous": false,
      "inputs": [
        {
          "indexed": false,
          "name": "wallet",
          "type": "address"
        }
      ],
      "name": "SelfDestructionDisabledEvent",
      "type": "event"
    },
    {
      "anonymous": false,
      "inputs": [
        {
          "indexed": false,
          "name": "wallet",
          "type": "address"
        }
      ],
      "name": "TriggerSelfDestructionEvent",
      "type": "event"
    },
    {
      "constant": false,
      "inputs": [
        {
          "name": "newDriipSettlementDisputeByTrade",
          "type": "address"
        }
      ],
      "name": "setDriipSettlementDisputeByTrade",
      "outputs": [],
      "payable": false,
      "stateMutability": "nonpayable",
      "type": "function"
    },
    {
      "constant": false,
      "inputs": [
        {
          "name": "newDriipSettlementChallengeState",
          "type": "address"
        }
      ],
      "name": "setDriipSettlementChallengeState",
      "outputs": [],
      "payable": false,
      "stateMutability": "nonpayable",
      "type": "function"
    },
    {
      "constant": false,
      "inputs": [
        {
          "name": "newNullSettlementChallengeState",
          "type": "address"
        }
      ],
      "name": "setNullSettlementChallengeState",
      "outputs": [],
      "payable": false,
      "stateMutability": "nonpayable",
      "type": "function"
    },
    {
      "constant": false,
      "inputs": [
        {
          "components": [
            {
              "name": "nonce",
              "type": "uint256"
            },
            {
              "name": "amount",
              "type": "int256"
            },
            {
              "components": [
                {
                  "components": [
                    {
                      "name": "ct",
                      "type": "address"
                    },
                    {
                      "name": "id",
                      "type": "uint256"
                    }
                  ],
                  "name": "intended",
                  "type": "tuple"
                },
                {
                  "components": [
                    {
                      "name": "ct",
                      "type": "address"
                    },
                    {
                      "name": "id",
                      "type": "uint256"
                    }
                  ],
                  "name": "conjugate",
                  "type": "tuple"
                }
              ],
              "name": "currencies",
              "type": "tuple"
            },
            {
              "name": "rate",
              "type": "int256"
            },
            {
              "components": [
                {
                  "name": "nonce",
                  "type": "uint256"
                },
                {
                  "name": "wallet",
                  "type": "address"
                },
                {
                  "name": "rollingVolume",
                  "type": "uint256"
                },
                {
                  "name": "liquidityRole",
                  "type": "uint8"
                },
                {
                  "components": [
                    {
                      "name": "amount",
                      "type": "int256"
                    },
                    {
                      "components": [
                        {
                          "name": "wallet",
                          "type": "bytes32"
                        },
                        {
                          "name": "operator",
                          "type": "bytes32"
                        }
                      ],
                      "name": "hashes",
                      "type": "tuple"
                    },
                    {
                      "components": [
                        {
                          "name": "current",
                          "type": "int256"
                        },
                        {
                          "name": "previous",
                          "type": "int256"
                        }
                      ],
                      "name": "residuals",
                      "type": "tuple"
                    }
                  ],
                  "name": "order",
                  "type": "tuple"
                },
                {
                  "components": [
                    {
                      "components": [
                        {
                          "name": "current",
                          "type": "int256"
                        },
                        {
                          "name": "previous",
                          "type": "int256"
                        }
                      ],
                      "name": "intended",
                      "type": "tuple"
                    },
                    {
                      "components": [
                        {
                          "name": "current",
                          "type": "int256"
                        },
                        {
                          "name": "previous",
                          "type": "int256"
                        }
                      ],
                      "name": "conjugate",
                      "type": "tuple"
                    }
                  ],
                  "name": "balances",
                  "type": "tuple"
                },
                {
                  "components": [
                    {
                      "components": [
                        {
                          "name": "amount",
                          "type": "int256"
                        },
                        {
                          "components": [
                            {
                              "name": "ct",
                              "type": "address"
                            },
                            {
                              "name": "id",
                              "type": "uint256"
                            }
                          ],
                          "name": "currency",
                          "type": "tuple"
                        }
                      ],
                      "name": "single",
                      "type": "tuple"
                    },
                    {
                      "components": [
                        {
                          "name": "originId",
                          "type": "uint256"
                        },
                        {
                          "components": [
                            {
                              "name": "amount",
                              "type": "int256"
                            },
                            {
                              "components": [
                                {
                                  "name": "ct",
                                  "type": "address"
                                },
                                {
                                  "name": "id",
                                  "type": "uint256"
                                }
                              ],
                              "name": "currency",
                              "type": "tuple"
                            }
                          ],
                          "name": "figure",
                          "type": "tuple"
                        }
                      ],
                      "name": "total",
                      "type": "tuple[]"
                    }
                  ],
                  "name": "fees",
                  "type": "tuple"
                }
              ],
              "name": "buyer",
              "type": "tuple"
            },
            {
              "components": [
                {
                  "name": "nonce",
                  "type": "uint256"
                },
                {
                  "name": "wallet",
                  "type": "address"
                },
                {
                  "name": "rollingVolume",
                  "type": "uint256"
                },
                {
                  "name": "liquidityRole",
                  "type": "uint8"
                },
                {
                  "components": [
                    {
                      "name": "amount",
                      "type": "int256"
                    },
                    {
                      "components": [
                        {
                          "name": "wallet",
                          "type": "bytes32"
                        },
                        {
                          "name": "operator",
                          "type": "bytes32"
                        }
                      ],
                      "name": "hashes",
                      "type": "tuple"
                    },
                    {
                      "components": [
                        {
                          "name": "current",
                          "type": "int256"
                        },
                        {
                          "name": "previous",
                          "type": "int256"
                        }
                      ],
                      "name": "residuals",
                      "type": "tuple"
                    }
                  ],
                  "name": "order",
                  "type": "tuple"
                },
                {
                  "components": [
                    {
                      "components": [
                        {
                          "name": "current",
                          "type": "int256"
                        },
                        {
                          "name": "previous",
                          "type": "int256"
                        }
                      ],
                      "name": "intended",
                      "type": "tuple"
                    },
                    {
                      "components": [
                        {
                          "name": "current",
                          "type": "int256"
                        },
                        {
                          "name": "previous",
                          "type": "int256"
                        }
                      ],
                      "name": "conjugate",
                      "type": "tuple"
                    }
                  ],
                  "name": "balances",
                  "type": "tuple"
                },
                {
                  "components": [
                    {
                      "components": [
                        {
                          "name": "amount",
                          "type": "int256"
                        },
                        {
                          "components": [
                            {
                              "name": "ct",
                              "type": "address"
                            },
                            {
                              "name": "id",
                              "type": "uint256"
                            }
                          ],
                          "name": "currency",
                          "type": "tuple"
                        }
                      ],
                      "name": "single",
                      "type": "tuple"
                    },
                    {
                      "components": [
                        {
                          "name": "originId",
                          "type": "uint256"
                        },
                        {
                          "components": [
                            {
                              "name": "amount",
                              "type": "int256"
                            },
                            {
                              "components": [
                                {
                                  "name": "ct",
                                  "type": "address"
                                },
                                {
                                  "name": "id",
                                  "type": "uint256"
                                }
                              ],
                              "name": "currency",
                              "type": "tuple"
                            }
                          ],
                          "name": "figure",
                          "type": "tuple"
                        }
                      ],
                      "name": "total",
                      "type": "tuple[]"
                    }
                  ],
                  "name": "fees",
                  "type": "tuple"
                }
              ],
              "name": "seller",
              "type": "tuple"
            },
            {
              "components": [
                {
                  "components": [
                    {
                      "name": "single",
                      "type": "int256"
                    },
                    {
                      "name": "total",
                      "type": "int256"
                    }
                  ],
                  "name": "intended",
                  "type": "tuple"
                },
                {
                  "components": [
                    {
                      "name": "single",
                      "type": "int256"
                    },
                    {
                      "name": "total",
                      "type": "int256"
                    }
                  ],
                  "name": "conjugate",
                  "type": "tuple"
                }
              ],
              "name": "transfers",
              "type": "tuple"
            },
            {
              "components": [
                {
                  "name": "hash",
                  "type": "bytes32"
                },
                {
                  "components": [
                    {
                      "name": "r",
                      "type": "bytes32"
                    },
                    {
                      "name": "s",
                      "type": "bytes32"
                    },
                    {
                      "name": "v",
                      "type": "uint8"
                    }
                  ],
                  "name": "signature",
                  "type": "tuple"
                }
              ],
              "name": "seal",
              "type": "tuple"
            },
            {
              "name": "blockNumber",
              "type": "uint256"
            },
            {
              "name": "operatorId",
              "type": "uint256"
            }
          ],
          "name": "trade",
          "type": "tuple"
        },
        {
          "name": "intendedStageAmount",
          "type": "int256"
        },
        {
          "name": "conjugateStageAmount",
          "type": "int256"
        }
      ],
      "name": "startChallengeFromTrade",
      "outputs": [],
      "payable": false,
      "stateMutability": "nonpayable",
      "type": "function"
    },
    {
      "constant": false,
      "inputs": [
        {
          "name": "wallet",
          "type": "address"
        },
        {
          "components": [
            {
              "name": "nonce",
              "type": "uint256"
            },
            {
              "name": "amount",
              "type": "int256"
            },
            {
              "components": [
                {
                  "components": [
                    {
                      "name": "ct",
                      "type": "address"
                    },
                    {
                      "name": "id",
                      "type": "uint256"
                    }
                  ],
                  "name": "intended",
                  "type": "tuple"
                },
                {
                  "components": [
                    {
                      "name": "ct",
                      "type": "address"
                    },
                    {
                      "name": "id",
                      "type": "uint256"
                    }
                  ],
                  "name": "conjugate",
                  "type": "tuple"
                }
              ],
              "name": "currencies",
              "type": "tuple"
            },
            {
              "name": "rate",
              "type": "int256"
            },
            {
              "components": [
                {
                  "name": "nonce",
                  "type": "uint256"
                },
                {
                  "name": "wallet",
                  "type": "address"
                },
                {
                  "name": "rollingVolume",
                  "type": "uint256"
                },
                {
                  "name": "liquidityRole",
                  "type": "uint8"
                },
                {
                  "components": [
                    {
                      "name": "amount",
                      "type": "int256"
                    },
                    {
                      "components": [
                        {
                          "name": "wallet",
                          "type": "bytes32"
                        },
                        {
                          "name": "operator",
                          "type": "bytes32"
                        }
                      ],
                      "name": "hashes",
                      "type": "tuple"
                    },
                    {
                      "components": [
                        {
                          "name": "current",
                          "type": "int256"
                        },
                        {
                          "name": "previous",
                          "type": "int256"
                        }
                      ],
                      "name": "residuals",
                      "type": "tuple"
                    }
                  ],
                  "name": "order",
                  "type": "tuple"
                },
                {
                  "components": [
                    {
                      "components": [
                        {
                          "name": "current",
                          "type": "int256"
                        },
                        {
                          "name": "previous",
                          "type": "int256"
                        }
                      ],
                      "name": "intended",
                      "type": "tuple"
                    },
                    {
                      "components": [
                        {
                          "name": "current",
                          "type": "int256"
                        },
                        {
                          "name": "previous",
                          "type": "int256"
                        }
                      ],
                      "name": "conjugate",
                      "type": "tuple"
                    }
                  ],
                  "name": "balances",
                  "type": "tuple"
                },
                {
                  "components": [
                    {
                      "components": [
                        {
                          "name": "amount",
                          "type": "int256"
                        },
                        {
                          "components": [
                            {
                              "name": "ct",
                              "type": "address"
                            },
                            {
                              "name": "id",
                              "type": "uint256"
                            }
                          ],
                          "name": "currency",
                          "type": "tuple"
                        }
                      ],
                      "name": "single",
                      "type": "tuple"
                    },
                    {
                      "components": [
                        {
                          "name": "originId",
                          "type": "uint256"
                        },
                        {
                          "components": [
                            {
                              "name": "amount",
                              "type": "int256"
                            },
                            {
                              "components": [
                                {
                                  "name": "ct",
                                  "type": "address"
                                },
                                {
                                  "name": "id",
                                  "type": "uint256"
                                }
                              ],
                              "name": "currency",
                              "type": "tuple"
                            }
                          ],
                          "name": "figure",
                          "type": "tuple"
                        }
                      ],
                      "name": "total",
                      "type": "tuple[]"
                    }
                  ],
                  "name": "fees",
                  "type": "tuple"
                }
              ],
              "name": "buyer",
              "type": "tuple"
            },
            {
              "components": [
                {
                  "name": "nonce",
                  "type": "uint256"
                },
                {
                  "name": "wallet",
                  "type": "address"
                },
                {
                  "name": "rollingVolume",
                  "type": "uint256"
                },
                {
                  "name": "liquidityRole",
                  "type": "uint8"
                },
                {
                  "components": [
                    {
                      "name": "amount",
                      "type": "int256"
                    },
                    {
                      "components": [
                        {
                          "name": "wallet",
                          "type": "bytes32"
                        },
                        {
                          "name": "operator",
                          "type": "bytes32"
                        }
                      ],
                      "name": "hashes",
                      "type": "tuple"
                    },
                    {
                      "components": [
                        {
                          "name": "current",
                          "type": "int256"
                        },
                        {
                          "name": "previous",
                          "type": "int256"
                        }
                      ],
                      "name": "residuals",
                      "type": "tuple"
                    }
                  ],
                  "name": "order",
                  "type": "tuple"
                },
                {
                  "components": [
                    {
                      "components": [
                        {
                          "name": "current",
                          "type": "int256"
                        },
                        {
                          "name": "previous",
                          "type": "int256"
                        }
                      ],
                      "name": "intended",
                      "type": "tuple"
                    },
                    {
                      "components": [
                        {
                          "name": "current",
                          "type": "int256"
                        },
                        {
                          "name": "previous",
                          "type": "int256"
                        }
                      ],
                      "name": "conjugate",
                      "type": "tuple"
                    }
                  ],
                  "name": "balances",
                  "type": "tuple"
                },
                {
                  "components": [
                    {
                      "components": [
                        {
                          "name": "amount",
                          "type": "int256"
                        },
                        {
                          "components": [
                            {
                              "name": "ct",
                              "type": "address"
                            },
                            {
                              "name": "id",
                              "type": "uint256"
                            }
                          ],
                          "name": "currency",
                          "type": "tuple"
                        }
                      ],
                      "name": "single",
                      "type": "tuple"
                    },
                    {
                      "components": [
                        {
                          "name": "originId",
                          "type": "uint256"
                        },
                        {
                          "components": [
                            {
                              "name": "amount",
                              "type": "int256"
                            },
                            {
                              "components": [
                                {
                                  "name": "ct",
                                  "type": "address"
                                },
                                {
                                  "name": "id",
                                  "type": "uint256"
                                }
                              ],
                              "name": "currency",
                              "type": "tuple"
                            }
                          ],
                          "name": "figure",
                          "type": "tuple"
                        }
                      ],
                      "name": "total",
                      "type": "tuple[]"
                    }
                  ],
                  "name": "fees",
                  "type": "tuple"
                }
              ],
              "name": "seller",
              "type": "tuple"
            },
            {
              "components": [
                {
                  "components": [
                    {
                      "name": "single",
                      "type": "int256"
                    },
                    {
                      "name": "total",
                      "type": "int256"
                    }
                  ],
                  "name": "intended",
                  "type": "tuple"
                },
                {
                  "components": [
                    {
                      "name": "single",
                      "type": "int256"
                    },
                    {
                      "name": "total",
                      "type": "int256"
                    }
                  ],
                  "name": "conjugate",
                  "type": "tuple"
                }
              ],
              "name": "transfers",
              "type": "tuple"
            },
            {
              "components": [
                {
                  "name": "hash",
                  "type": "bytes32"
                },
                {
                  "components": [
                    {
                      "name": "r",
                      "type": "bytes32"
                    },
                    {
                      "name": "s",
                      "type": "bytes32"
                    },
                    {
                      "name": "v",
                      "type": "uint8"
                    }
                  ],
                  "name": "signature",
                  "type": "tuple"
                }
              ],
              "name": "seal",
              "type": "tuple"
            },
            {
              "name": "blockNumber",
              "type": "uint256"
            },
            {
              "name": "operatorId",
              "type": "uint256"
            }
          ],
          "name": "trade",
          "type": "tuple"
        },
        {
          "name": "intendedStageAmount",
          "type": "int256"
        },
        {
          "name": "conjugateStageAmount",
          "type": "int256"
        }
      ],
      "name": "startChallengeFromTradeByProxy",
      "outputs": [],
      "payable": false,
      "stateMutability": "nonpayable",
      "type": "function"
    },
    {
      "constant": false,
      "inputs": [
        {
          "name": "currencyCt",
          "type": "address"
        },
        {
          "name": "currencyId",
          "type": "uint256"
        }
      ],
      "name": "stopChallenge",
      "outputs": [],
      "payable": false,
      "stateMutability": "nonpayable",
      "type": "function"
    },
    {
      "constant": false,
      "inputs": [
        {
          "name": "wallet",
          "type": "address"
        },
        {
          "name": "currencyCt",
          "type": "address"
        },
        {
          "name": "currencyId",
          "type": "uint256"
        }
      ],
      "name": "stopChallengeByProxy",
      "outputs": [],
      "payable": false,
      "stateMutability": "nonpayable",
      "type": "function"
    },
    {
      "constant": true,
      "inputs": [
        {
          "name": "wallet",
          "type": "address"
        },
        {
          "name": "currencyCt",
          "type": "address"
        },
        {
          "name": "currencyId",
          "type": "uint256"
        }
      ],
      "name": "hasProposalExpired",
      "outputs": [
        {
          "name": "",
          "type": "bool"
        }
      ],
      "payable": false,
      "stateMutability": "view",
      "type": "function"
    },
    {
      "constant": true,
      "inputs": [
        {
          "name": "wallet",
          "type": "address"
        },
        {
          "name": "currencyCt",
          "type": "address"
        },
        {
          "name": "currencyId",
          "type": "uint256"
        }
      ],
      "name": "proposalNonce",
      "outputs": [
        {
          "name": "",
          "type": "uint256"
        }
      ],
      "payable": false,
      "stateMutability": "view",
      "type": "function"
    },
    {
      "constant": true,
      "inputs": [
        {
          "name": "wallet",
          "type": "address"
        },
        {
          "name": "currencyCt",
          "type": "address"
        },
        {
          "name": "currencyId",
          "type": "uint256"
        }
      ],
      "name": "proposalBlockNumber",
      "outputs": [
        {
          "name": "",
          "type": "uint256"
        }
      ],
      "payable": false,
      "stateMutability": "view",
      "type": "function"
    },
    {
      "constant": true,
      "inputs": [
        {
          "name": "wallet",
          "type": "address"
        },
        {
          "name": "currencyCt",
          "type": "address"
        },
        {
          "name": "currencyId",
          "type": "uint256"
        }
      ],
      "name": "proposalExpirationTime",
      "outputs": [
        {
          "name": "",
          "type": "uint256"
        }
      ],
      "payable": false,
      "stateMutability": "view",
      "type": "function"
    },
    {
      "constant": true,
      "inputs": [
        {
          "name": "wallet",
          "type": "address"
        },
        {
          "name": "currencyCt",
          "type": "address"
        },
        {
          "name": "currencyId",
          "type": "uint256"
        }
      ],
      "name": "proposalStatus",
      "outputs": [
        {
          "name": "",
          "type": "uint8"
        }
      ],
      "payable": false,
      "stateMutability": "view",
      "type": "function"
    },
    {
      "constant": true,
      "inputs": [
        {
          "name": "wallet",
          "type": "address"
        },
        {
          "name": "currencyCt",
          "type": "address"
        },
        {
          "name": "currencyId",
          "type": "uint256"
        }
      ],
      "name": "proposalStageAmount",
      "outputs": [
        {
          "name": "",
          "type": "int256"
        }
      ],
      "payable": false,
      "stateMutability": "view",
      "type": "function"
    },
    {
      "constant": true,
      "inputs": [
        {
          "name": "wallet",
          "type": "address"
        },
        {
          "name": "currencyCt",
          "type": "address"
        },
        {
          "name": "currencyId",
          "type": "uint256"
        }
      ],
      "name": "proposalTargetBalanceAmount",
      "outputs": [
        {
          "name": "",
          "type": "int256"
        }
      ],
      "payable": false,
      "stateMutability": "view",
      "type": "function"
    },
    {
      "constant": true,
      "inputs": [
        {
          "name": "wallet",
          "type": "address"
        },
        {
          "name": "currencyCt",
          "type": "address"
        },
        {
          "name": "currencyId",
          "type": "uint256"
        }
      ],
      "name": "proposalChallengedHash",
      "outputs": [
        {
          "name": "",
          "type": "bytes32"
        }
      ],
      "payable": false,
      "stateMutability": "view",
      "type": "function"
    },
    {
      "constant": true,
      "inputs": [
        {
          "name": "wallet",
          "type": "address"
        },
        {
          "name": "currencyCt",
          "type": "address"
        },
        {
          "name": "currencyId",
          "type": "uint256"
        }
      ],
      "name": "proposalChallengedKind",
      "outputs": [
        {
          "name": "",
          "type": "string"
        }
      ],
      "payable": false,
      "stateMutability": "view",
      "type": "function"
    },
    {
      "constant": true,
      "inputs": [
        {
          "name": "wallet",
          "type": "address"
        },
        {
          "name": "currencyCt",
          "type": "address"
        },
        {
          "name": "currencyId",
          "type": "uint256"
        }
      ],
      "name": "proposalWalletInitiated",
      "outputs": [
        {
          "name": "",
          "type": "bool"
        }
      ],
      "payable": false,
      "stateMutability": "view",
      "type": "function"
    },
    {
      "constant": true,
      "inputs": [
        {
          "name": "wallet",
          "type": "address"
        },
        {
          "name": "currencyCt",
          "type": "address"
        },
        {
          "name": "currencyId",
          "type": "uint256"
        }
      ],
      "name": "proposalDisqualificationChallenger",
      "outputs": [
        {
          "name": "",
          "type": "address"
        }
      ],
      "payable": false,
      "stateMutability": "view",
      "type": "function"
    },
    {
      "constant": true,
      "inputs": [
        {
          "name": "wallet",
          "type": "address"
        },
        {
          "name": "currencyCt",
          "type": "address"
        },
        {
          "name": "currencyId",
          "type": "uint256"
        }
      ],
      "name": "proposalDisqualificationBlockNumber",
      "outputs": [
        {
          "name": "",
          "type": "uint256"
        }
      ],
      "payable": false,
      "stateMutability": "view",
      "type": "function"
    },
    {
      "constant": true,
      "inputs": [
        {
          "name": "wallet",
          "type": "address"
        },
        {
          "name": "currencyCt",
          "type": "address"
        },
        {
          "name": "currencyId",
          "type": "uint256"
        }
      ],
      "name": "proposalDisqualificationCandidateKind",
      "outputs": [
        {
          "name": "",
          "type": "string"
        }
      ],
      "payable": false,
      "stateMutability": "view",
      "type": "function"
    },
    {
      "constant": true,
      "inputs": [
        {
          "name": "wallet",
          "type": "address"
        },
        {
          "name": "currencyCt",
          "type": "address"
        },
        {
          "name": "currencyId",
          "type": "uint256"
        }
      ],
      "name": "proposalDisqualificationCandidateHash",
      "outputs": [
        {
          "name": "",
          "type": "bytes32"
        }
      ],
      "payable": false,
      "stateMutability": "view",
      "type": "function"
    },
    {
      "constant": false,
      "inputs": [
        {
          "components": [
            {
              "name": "nonce",
              "type": "uint256"
            },
            {
              "name": "wallet",
              "type": "address"
            },
            {
              "components": [
                {
                  "name": "intention",
                  "type": "uint8"
                },
                {
                  "name": "amount",
                  "type": "int256"
                },
                {
                  "components": [
                    {
                      "components": [
                        {
                          "name": "ct",
                          "type": "address"
                        },
                        {
                          "name": "id",
                          "type": "uint256"
                        }
                      ],
                      "name": "intended",
                      "type": "tuple"
                    },
                    {
                      "components": [
                        {
                          "name": "ct",
                          "type": "address"
                        },
                        {
                          "name": "id",
                          "type": "uint256"
                        }
                      ],
                      "name": "conjugate",
                      "type": "tuple"
                    }
                  ],
                  "name": "currencies",
                  "type": "tuple"
                },
                {
                  "name": "rate",
                  "type": "int256"
                },
                {
                  "components": [
                    {
                      "name": "current",
                      "type": "int256"
                    },
                    {
                      "name": "previous",
                      "type": "int256"
                    }
                  ],
                  "name": "residuals",
                  "type": "tuple"
                }
              ],
              "name": "placement",
              "type": "tuple"
            },
            {
              "components": [
                {
                  "components": [
                    {
                      "name": "hash",
                      "type": "bytes32"
                    },
                    {
                      "components": [
                        {
                          "name": "r",
                          "type": "bytes32"
                        },
                        {
                          "name": "s",
                          "type": "bytes32"
                        },
                        {
                          "name": "v",
                          "type": "uint8"
                        }
                      ],
                      "name": "signature",
                      "type": "tuple"
                    }
                  ],
                  "name": "wallet",
                  "type": "tuple"
                },
                {
                  "components": [
                    {
                      "name": "hash",
                      "type": "bytes32"
                    },
                    {
                      "components": [
                        {
                          "name": "r",
                          "type": "bytes32"
                        },
                        {
                          "name": "s",
                          "type": "bytes32"
                        },
                        {
                          "name": "v",
                          "type": "uint8"
                        }
                      ],
                      "name": "signature",
                      "type": "tuple"
                    }
                  ],
                  "name": "operator",
                  "type": "tuple"
                }
              ],
              "name": "seals",
              "type": "tuple"
            },
            {
              "name": "blockNumber",
              "type": "uint256"
            },
            {
              "name": "operatorId",
              "type": "uint256"
            }
          ],
          "name": "order",
          "type": "tuple"
        }
      ],
      "name": "challengeByOrder",
      "outputs": [],
      "payable": false,
      "stateMutability": "nonpayable",
      "type": "function"
    },
    {
      "constant": false,
      "inputs": [
        {
          "components": [
            {
              "name": "nonce",
              "type": "uint256"
            },
            {
              "name": "wallet",
              "type": "address"
            },
            {
              "components": [
                {
                  "name": "intention",
                  "type": "uint8"
                },
                {
                  "name": "amount",
                  "type": "int256"
                },
                {
                  "components": [
                    {
                      "components": [
                        {
                          "name": "ct",
                          "type": "address"
                        },
                        {
                          "name": "id",
                          "type": "uint256"
                        }
                      ],
                      "name": "intended",
                      "type": "tuple"
                    },
                    {
                      "components": [
                        {
                          "name": "ct",
                          "type": "address"
                        },
                        {
                          "name": "id",
                          "type": "uint256"
                        }
                      ],
                      "name": "conjugate",
                      "type": "tuple"
                    }
                  ],
                  "name": "currencies",
                  "type": "tuple"
                },
                {
                  "name": "rate",
                  "type": "int256"
                },
                {
                  "components": [
                    {
                      "name": "current",
                      "type": "int256"
                    },
                    {
                      "name": "previous",
                      "type": "int256"
                    }
                  ],
                  "name": "residuals",
                  "type": "tuple"
                }
              ],
              "name": "placement",
              "type": "tuple"
            },
            {
              "components": [
                {
                  "components": [
                    {
                      "name": "hash",
                      "type": "bytes32"
                    },
                    {
                      "components": [
                        {
                          "name": "r",
                          "type": "bytes32"
                        },
                        {
                          "name": "s",
                          "type": "bytes32"
                        },
                        {
                          "name": "v",
                          "type": "uint8"
                        }
                      ],
                      "name": "signature",
                      "type": "tuple"
                    }
                  ],
                  "name": "wallet",
                  "type": "tuple"
                },
                {
                  "components": [
                    {
                      "name": "hash",
                      "type": "bytes32"
                    },
                    {
                      "components": [
                        {
                          "name": "r",
                          "type": "bytes32"
                        },
                        {
                          "name": "s",
                          "type": "bytes32"
                        },
                        {
                          "name": "v",
                          "type": "uint8"
                        }
                      ],
                      "name": "signature",
                      "type": "tuple"
                    }
                  ],
                  "name": "operator",
                  "type": "tuple"
                }
              ],
              "name": "seals",
              "type": "tuple"
            },
            {
              "name": "blockNumber",
              "type": "uint256"
            },
            {
              "name": "operatorId",
              "type": "uint256"
            }
          ],
          "name": "order",
          "type": "tuple"
        },
        {
          "components": [
            {
              "name": "nonce",
              "type": "uint256"
            },
            {
              "name": "amount",
              "type": "int256"
            },
            {
              "components": [
                {
                  "components": [
                    {
                      "name": "ct",
                      "type": "address"
                    },
                    {
                      "name": "id",
                      "type": "uint256"
                    }
                  ],
                  "name": "intended",
                  "type": "tuple"
                },
                {
                  "components": [
                    {
                      "name": "ct",
                      "type": "address"
                    },
                    {
                      "name": "id",
                      "type": "uint256"
                    }
                  ],
                  "name": "conjugate",
                  "type": "tuple"
                }
              ],
              "name": "currencies",
              "type": "tuple"
            },
            {
              "name": "rate",
              "type": "int256"
            },
            {
              "components": [
                {
                  "name": "nonce",
                  "type": "uint256"
                },
                {
                  "name": "wallet",
                  "type": "address"
                },
                {
                  "name": "rollingVolume",
                  "type": "uint256"
                },
                {
                  "name": "liquidityRole",
                  "type": "uint8"
                },
                {
                  "components": [
                    {
                      "name": "amount",
                      "type": "int256"
                    },
                    {
                      "components": [
                        {
                          "name": "wallet",
                          "type": "bytes32"
                        },
                        {
                          "name": "operator",
                          "type": "bytes32"
                        }
                      ],
                      "name": "hashes",
                      "type": "tuple"
                    },
                    {
                      "components": [
                        {
                          "name": "current",
                          "type": "int256"
                        },
                        {
                          "name": "previous",
                          "type": "int256"
                        }
                      ],
                      "name": "residuals",
                      "type": "tuple"
                    }
                  ],
                  "name": "order",
                  "type": "tuple"
                },
                {
                  "components": [
                    {
                      "components": [
                        {
                          "name": "current",
                          "type": "int256"
                        },
                        {
                          "name": "previous",
                          "type": "int256"
                        }
                      ],
                      "name": "intended",
                      "type": "tuple"
                    },
                    {
                      "components": [
                        {
                          "name": "current",
                          "type": "int256"
                        },
                        {
                          "name": "previous",
                          "type": "int256"
                        }
                      ],
                      "name": "conjugate",
                      "type": "tuple"
                    }
                  ],
                  "name": "balances",
                  "type": "tuple"
                },
                {
                  "components": [
                    {
                      "components": [
                        {
                          "name": "amount",
                          "type": "int256"
                        },
                        {
                          "components": [
                            {
                              "name": "ct",
                              "type": "address"
                            },
                            {
                              "name": "id",
                              "type": "uint256"
                            }
                          ],
                          "name": "currency",
                          "type": "tuple"
                        }
                      ],
                      "name": "single",
                      "type": "tuple"
                    },
                    {
                      "components": [
                        {
                          "name": "originId",
                          "type": "uint256"
                        },
                        {
                          "components": [
                            {
                              "name": "amount",
                              "type": "int256"
                            },
                            {
                              "components": [
                                {
                                  "name": "ct",
                                  "type": "address"
                                },
                                {
                                  "name": "id",
                                  "type": "uint256"
                                }
                              ],
                              "name": "currency",
                              "type": "tuple"
                            }
                          ],
                          "name": "figure",
                          "type": "tuple"
                        }
                      ],
                      "name": "total",
                      "type": "tuple[]"
                    }
                  ],
                  "name": "fees",
                  "type": "tuple"
                }
              ],
              "name": "buyer",
              "type": "tuple"
            },
            {
              "components": [
                {
                  "name": "nonce",
                  "type": "uint256"
                },
                {
                  "name": "wallet",
                  "type": "address"
                },
                {
                  "name": "rollingVolume",
                  "type": "uint256"
                },
                {
                  "name": "liquidityRole",
                  "type": "uint8"
                },
                {
                  "components": [
                    {
                      "name": "amount",
                      "type": "int256"
                    },
                    {
                      "components": [
                        {
                          "name": "wallet",
                          "type": "bytes32"
                        },
                        {
                          "name": "operator",
                          "type": "bytes32"
                        }
                      ],
                      "name": "hashes",
                      "type": "tuple"
                    },
                    {
                      "components": [
                        {
                          "name": "current",
                          "type": "int256"
                        },
                        {
                          "name": "previous",
                          "type": "int256"
                        }
                      ],
                      "name": "residuals",
                      "type": "tuple"
                    }
                  ],
                  "name": "order",
                  "type": "tuple"
                },
                {
                  "components": [
                    {
                      "components": [
                        {
                          "name": "current",
                          "type": "int256"
                        },
                        {
                          "name": "previous",
                          "type": "int256"
                        }
                      ],
                      "name": "intended",
                      "type": "tuple"
                    },
                    {
                      "components": [
                        {
                          "name": "current",
                          "type": "int256"
                        },
                        {
                          "name": "previous",
                          "type": "int256"
                        }
                      ],
                      "name": "conjugate",
                      "type": "tuple"
                    }
                  ],
                  "name": "balances",
                  "type": "tuple"
                },
                {
                  "components": [
                    {
                      "components": [
                        {
                          "name": "amount",
                          "type": "int256"
                        },
                        {
                          "components": [
                            {
                              "name": "ct",
                              "type": "address"
                            },
                            {
                              "name": "id",
                              "type": "uint256"
                            }
                          ],
                          "name": "currency",
                          "type": "tuple"
                        }
                      ],
                      "name": "single",
                      "type": "tuple"
                    },
                    {
                      "components": [
                        {
                          "name": "originId",
                          "type": "uint256"
                        },
                        {
                          "components": [
                            {
                              "name": "amount",
                              "type": "int256"
                            },
                            {
                              "components": [
                                {
                                  "name": "ct",
                                  "type": "address"
                                },
                                {
                                  "name": "id",
                                  "type": "uint256"
                                }
                              ],
                              "name": "currency",
                              "type": "tuple"
                            }
                          ],
                          "name": "figure",
                          "type": "tuple"
                        }
                      ],
                      "name": "total",
                      "type": "tuple[]"
                    }
                  ],
                  "name": "fees",
                  "type": "tuple"
                }
              ],
              "name": "seller",
              "type": "tuple"
            },
            {
              "components": [
                {
                  "components": [
                    {
                      "name": "single",
                      "type": "int256"
                    },
                    {
                      "name": "total",
                      "type": "int256"
                    }
                  ],
                  "name": "intended",
                  "type": "tuple"
                },
                {
                  "components": [
                    {
                      "name": "single",
                      "type": "int256"
                    },
                    {
                      "name": "total",
                      "type": "int256"
                    }
                  ],
                  "name": "conjugate",
                  "type": "tuple"
                }
              ],
              "name": "transfers",
              "type": "tuple"
            },
            {
              "components": [
                {
                  "name": "hash",
                  "type": "bytes32"
                },
                {
                  "components": [
                    {
                      "name": "r",
                      "type": "bytes32"
                    },
                    {
                      "name": "s",
                      "type": "bytes32"
                    },
                    {
                      "name": "v",
                      "type": "uint8"
                    }
                  ],
                  "name": "signature",
                  "type": "tuple"
                }
              ],
              "name": "seal",
              "type": "tuple"
            },
            {
              "name": "blockNumber",
              "type": "uint256"
            },
            {
              "name": "operatorId",
              "type": "uint256"
            }
          ],
          "name": "trade",
          "type": "tuple"
        }
      ],
      "name": "unchallengeOrderCandidateByTrade",
      "outputs": [],
      "payable": false,
      "stateMutability": "nonpayable",
      "type": "function"
    },
    {
      "constant": false,
      "inputs": [
        {
          "name": "wallet",
          "type": "address"
        },
        {
          "components": [
            {
              "name": "nonce",
              "type": "uint256"
            },
            {
              "name": "amount",
              "type": "int256"
            },
            {
              "components": [
                {
                  "components": [
                    {
                      "name": "ct",
                      "type": "address"
                    },
                    {
                      "name": "id",
                      "type": "uint256"
                    }
                  ],
                  "name": "intended",
                  "type": "tuple"
                },
                {
                  "components": [
                    {
                      "name": "ct",
                      "type": "address"
                    },
                    {
                      "name": "id",
                      "type": "uint256"
                    }
                  ],
                  "name": "conjugate",
                  "type": "tuple"
                }
              ],
              "name": "currencies",
              "type": "tuple"
            },
            {
              "name": "rate",
              "type": "int256"
            },
            {
              "components": [
                {
                  "name": "nonce",
                  "type": "uint256"
                },
                {
                  "name": "wallet",
                  "type": "address"
                },
                {
                  "name": "rollingVolume",
                  "type": "uint256"
                },
                {
                  "name": "liquidityRole",
                  "type": "uint8"
                },
                {
                  "components": [
                    {
                      "name": "amount",
                      "type": "int256"
                    },
                    {
                      "components": [
                        {
                          "name": "wallet",
                          "type": "bytes32"
                        },
                        {
                          "name": "operator",
                          "type": "bytes32"
                        }
                      ],
                      "name": "hashes",
                      "type": "tuple"
                    },
                    {
                      "components": [
                        {
                          "name": "current",
                          "type": "int256"
                        },
                        {
                          "name": "previous",
                          "type": "int256"
                        }
                      ],
                      "name": "residuals",
                      "type": "tuple"
                    }
                  ],
                  "name": "order",
                  "type": "tuple"
                },
                {
                  "components": [
                    {
                      "components": [
                        {
                          "name": "current",
                          "type": "int256"
                        },
                        {
                          "name": "previous",
                          "type": "int256"
                        }
                      ],
                      "name": "intended",
                      "type": "tuple"
                    },
                    {
                      "components": [
                        {
                          "name": "current",
                          "type": "int256"
                        },
                        {
                          "name": "previous",
                          "type": "int256"
                        }
                      ],
                      "name": "conjugate",
                      "type": "tuple"
                    }
                  ],
                  "name": "balances",
                  "type": "tuple"
                },
                {
                  "components": [
                    {
                      "components": [
                        {
                          "name": "amount",
                          "type": "int256"
                        },
                        {
                          "components": [
                            {
                              "name": "ct",
                              "type": "address"
                            },
                            {
                              "name": "id",
                              "type": "uint256"
                            }
                          ],
                          "name": "currency",
                          "type": "tuple"
                        }
                      ],
                      "name": "single",
                      "type": "tuple"
                    },
                    {
                      "components": [
                        {
                          "name": "originId",
                          "type": "uint256"
                        },
                        {
                          "components": [
                            {
                              "name": "amount",
                              "type": "int256"
                            },
                            {
                              "components": [
                                {
                                  "name": "ct",
                                  "type": "address"
                                },
                                {
                                  "name": "id",
                                  "type": "uint256"
                                }
                              ],
                              "name": "currency",
                              "type": "tuple"
                            }
                          ],
                          "name": "figure",
                          "type": "tuple"
                        }
                      ],
                      "name": "total",
                      "type": "tuple[]"
                    }
                  ],
                  "name": "fees",
                  "type": "tuple"
                }
              ],
              "name": "buyer",
              "type": "tuple"
            },
            {
              "components": [
                {
                  "name": "nonce",
                  "type": "uint256"
                },
                {
                  "name": "wallet",
                  "type": "address"
                },
                {
                  "name": "rollingVolume",
                  "type": "uint256"
                },
                {
                  "name": "liquidityRole",
                  "type": "uint8"
                },
                {
                  "components": [
                    {
                      "name": "amount",
                      "type": "int256"
                    },
                    {
                      "components": [
                        {
                          "name": "wallet",
                          "type": "bytes32"
                        },
                        {
                          "name": "operator",
                          "type": "bytes32"
                        }
                      ],
                      "name": "hashes",
                      "type": "tuple"
                    },
                    {
                      "components": [
                        {
                          "name": "current",
                          "type": "int256"
                        },
                        {
                          "name": "previous",
                          "type": "int256"
                        }
                      ],
                      "name": "residuals",
                      "type": "tuple"
                    }
                  ],
                  "name": "order",
                  "type": "tuple"
                },
                {
                  "components": [
                    {
                      "components": [
                        {
                          "name": "current",
                          "type": "int256"
                        },
                        {
                          "name": "previous",
                          "type": "int256"
                        }
                      ],
                      "name": "intended",
                      "type": "tuple"
                    },
                    {
                      "components": [
                        {
                          "name": "current",
                          "type": "int256"
                        },
                        {
                          "name": "previous",
                          "type": "int256"
                        }
                      ],
                      "name": "conjugate",
                      "type": "tuple"
                    }
                  ],
                  "name": "balances",
                  "type": "tuple"
                },
                {
                  "components": [
                    {
                      "components": [
                        {
                          "name": "amount",
                          "type": "int256"
                        },
                        {
                          "components": [
                            {
                              "name": "ct",
                              "type": "address"
                            },
                            {
                              "name": "id",
                              "type": "uint256"
                            }
                          ],
                          "name": "currency",
                          "type": "tuple"
                        }
                      ],
                      "name": "single",
                      "type": "tuple"
                    },
                    {
                      "components": [
                        {
                          "name": "originId",
                          "type": "uint256"
                        },
                        {
                          "components": [
                            {
                              "name": "amount",
                              "type": "int256"
                            },
                            {
                              "components": [
                                {
                                  "name": "ct",
                                  "type": "address"
                                },
                                {
                                  "name": "id",
                                  "type": "uint256"
                                }
                              ],
                              "name": "currency",
                              "type": "tuple"
                            }
                          ],
                          "name": "figure",
                          "type": "tuple"
                        }
                      ],
                      "name": "total",
                      "type": "tuple[]"
                    }
                  ],
                  "name": "fees",
                  "type": "tuple"
                }
              ],
              "name": "seller",
              "type": "tuple"
            },
            {
              "components": [
                {
                  "components": [
                    {
                      "name": "single",
                      "type": "int256"
                    },
                    {
                      "name": "total",
                      "type": "int256"
                    }
                  ],
                  "name": "intended",
                  "type": "tuple"
                },
                {
                  "components": [
                    {
                      "name": "single",
                      "type": "int256"
                    },
                    {
                      "name": "total",
                      "type": "int256"
                    }
                  ],
                  "name": "conjugate",
                  "type": "tuple"
                }
              ],
              "name": "transfers",
              "type": "tuple"
            },
            {
              "components": [
                {
                  "name": "hash",
                  "type": "bytes32"
                },
                {
                  "components": [
                    {
                      "name": "r",
                      "type": "bytes32"
                    },
                    {
                      "name": "s",
                      "type": "bytes32"
                    },
                    {
                      "name": "v",
                      "type": "uint8"
                    }
                  ],
                  "name": "signature",
                  "type": "tuple"
                }
              ],
              "name": "seal",
              "type": "tuple"
            },
            {
              "name": "blockNumber",
              "type": "uint256"
            },
            {
              "name": "operatorId",
              "type": "uint256"
            }
          ],
          "name": "trade",
          "type": "tuple"
        }
      ],
      "name": "challengeByTrade",
      "outputs": [],
      "payable": false,
      "stateMutability": "nonpayable",
      "type": "function"
    }
  ],
  "bytecode": "0x60806040523480156200001157600080fd5b50604051602080620033e08339810180604052620000339190810190620000b6565b8080600160a060020a03811615156200004b57600080fd5b600160a060020a0381163014156200006257600080fd5b506000805461010060a860020a031916610100600160a060020a039390931692830217905560018054600160a060020a031916909117905550620000eb565b6000620000af8251620000df565b9392505050565b600060208284031215620000c957600080fd5b6000620000d78484620000a1565b949350505050565b600160a060020a031690565b6132e580620000fb6000396000f3006080604052600436106101f55763ffffffff60e060020a600035041663039b9fb181146101fa5780630712abb0146102305780631110f49a1461025d5780631327d3d81461027f578063169879291461029f578063240625d8146102cc5780632738a112146102ee5780632aa1c9d9146103035780632f013a00146103235780633a5381b5146103385780633bebdcb51461035a57806342cb45871461037a5780634476d23b1461039a578063468b7c90146103bc57806347ccc0f2146103d157806349c56d49146103f157806351d7cd6114610411578063570ca735146104265780635dc60def1461043b578063627f09c3146104505780636c70bee9146104705780636ccb43c81461048557806370327ea1146104a55780637235b68b146104ba5780637da5b11c146104da578063892860b2146104fa578063962147351461051a578063972fcee01461053a5780639882da6c1461055a578063adfb67781461057a578063afd742eb1461059a578063b3ab15fb146105ba578063be0a6e6b146105da578063c19df1e4146105fa578063ca7f47ed1461061a578063cdbf94191461063a578063d5b68c621461065a578063d5f394881461067a578063e8ae41e31461068f578063fa7424f2146106a4578063fb1a825e146106b9578063fca5192b146106d9578063fcd30b02146106f9575b600080fd5b34801561020657600080fd5b5061021a610215366004612762565b610719565b6040516102279190613113565b60405180910390f35b34801561023c57600080fd5b5061025061024b366004612762565b6107c5565b6040516102279190613105565b34801561026957600080fd5b5061027d610278366004612954565b610863565b005b34801561028b57600080fd5b5061027d61029a3660046128e4565b610963565b3480156102ab57600080fd5b506102bf6102ba366004612762565b610a0a565b60405161022791906130ce565b3480156102d857600080fd5b506102e1610aa8565b60405161022791906130c0565b3480156102fa57600080fd5b5061027d610ab8565b34801561030f57600080fd5b5061027d61031e3660046128e4565b610b1e565b34801561032f57600080fd5b506102e1610baf565b34801561034457600080fd5b5061034d610bb8565b60405161022791906130dc565b34801561036657600080fd5b506102e1610375366004612762565b610bc7565b34801561038657600080fd5b506102bf610395366004612762565b610c65565b3480156103a657600080fd5b506103af610cb1565b6040516102279190612eb8565b3480156103c857600080fd5b5061034d610cc5565b3480156103dd57600080fd5b5061027d6103ec3660046128e4565b610cd4565b3480156103fd57600080fd5b5061027d61040c3660046127af565b610d58565b34801561041d57600080fd5b5061034d610e5b565b34801561043257600080fd5b506103af610e6a565b34801561044757600080fd5b5061027d610e79565b34801561045c57600080fd5b5061027d61046b3660046128e4565b610ecd565b34801561047c57600080fd5b5061034d610f65565b34801561049157600080fd5b5061027d6104a03660046128e4565b610f74565b3480156104b157600080fd5b5061027d610ff8565b3480156104c657600080fd5b5061027d6104d5366004612800565b61105b565b3480156104e657600080fd5b506102e16104f5366004612762565b6110c6565b34801561050657600080fd5b5061027d6105153660046128e4565b611112565b34801561052657600080fd5b5061027d61053536600461271e565b6111c1565b34801561054657600080fd5b5061027d610555366004612762565b61127f565b34801561056657600080fd5b506102bf610575366004612762565b6112f0565b34801561058657600080fd5b506102bf610595366004612762565b61133c565b3480156105a657600080fd5b5061027d6105b53660046129b0565b611388565b3480156105c657600080fd5b5061027d6105d536600461271e565b61145f565b3480156105e657600080fd5b5061027d6105f5366004612973565b611509565b34801561060657600080fd5b5061027d610615366004612878565b6115d5565b34801561062657600080fd5b5061021a610635366004612762565b61163d565b34801561064657600080fd5b506102bf610655366004612762565b611689565b34801561066657600080fd5b506102bf610675366004612762565b6116d5565b34801561068657600080fd5b506103af611721565b34801561069b57600080fd5b5061034d611735565b3480156106b057600080fd5b5061034d611744565b3480156106c557600080fd5b506102bf6106d4366004612762565b611753565b3480156106e557600080fd5b506102bf6106f4366004612762565b61179f565b34801561070557600080fd5b506103af610714366004612762565b6117eb565b600654604080518082018252600160a060020a03858116825260208201859052915160e060020a6394da13eb02815260609392909216916394da13eb9161076591889190600401612fb2565b600060405180830381600087803b15801561077f57600080fd5b505af1158015610793573d6000803e3d6000fd5b505050506040513d6000823e601f3d908101601f191682016040526107bb9190810190612920565b90505b9392505050565b600654604080518082018252600160a060020a03858116825260208201859052915160e060020a63b6e2fc33028152600093929092169163b6e2fc339161081191889190600401612fb2565b602060405180830381600087803b15801561082b57600080fd5b505af115801561083f573d6000803e3d6000fd5b505050506040513d601f19601f820116820180604052506107bb9190810190612902565b600260009054906101000a9004600160a060020a0316600160a060020a031663f71e860f6040518163ffffffff1660e060020a028152600401602060405180830381600087803b1580156108b657600080fd5b505af11580156108ca573d6000803e3d6000fd5b505050506040513d601f19601f820116820180604052506108ee91908101906128a8565b15156108f957600080fd5b60055460405160e060020a638eed8359028152600160a060020a0390911690638eed83599061092e9084903390600401613124565b600060405180830381600087803b15801561094857600080fd5b505af115801561095c573d6000803e3d6000fd5b5050505050565b600061096d611889565b151561097857600080fd5b81600160a060020a038116151561098e57600080fd5b6003548390600160a060020a03908116908216811461095c5760038054600160a060020a03878116600160a060020a0319831617909255604051911694507f1882af944a16549c3d4f60e3cd26f158b0c7aac3222cf32971fc21375ce05f60906109fb90869088906130ea565b60405180910390a15050505050565b600654604080518082018252600160a060020a03858116825260208201859052915160e060020a63c46fcd75028152600093929092169163c46fcd7591610a5691889190600401612fb2565b602060405180830381600087803b158015610a7057600080fd5b505af1158015610a84573d6000803e3d6000fd5b505050506040513d601f19601f820116820180604052506107bb91908101906128c6565b60045460a060020a900460ff1681565b33610ac1610cb1565b600160a060020a031614610ad457600080fd5b60005460ff1615610ae457600080fd5b7f787a5d936e74f4b564b9153575886059829c78cd9927b1be5e0d976b317ef73633604051610b139190612eb8565b60405180910390a133ff5b6000610b28611889565b1515610b3357600080fd5b81600160a060020a0381161515610b4957600080fd5b60068054600160a060020a03858116600160a060020a03198316179283905560405191811694507f4f7125332801996cdeaabf9cff1ac89ddf4b52c673558936affe853ab64a88da92610ba292869291909116906130ea565b60405180910390a1505050565b60005460ff1681565b600354600160a060020a031681565b600654604080518082018252600160a060020a03858116825260208201859052915160e060020a635482c7350281526000939290921691635482c73591610c1391889190600401612fb2565b602060405180830381600087803b158015610c2d57600080fd5b505af1158015610c41573d6000803e3d6000fd5b505050506040513d601f19601f820116820180604052506107bb91908101906128a8565b600654604080518082018252600160a060020a03858116825260208201859052915160e160020a633007230f028152600093929092169163600e461e91610a5691889190600401612fb2565b6000546101009004600160a060020a031690565b600554600160a060020a031681565b6000610cde611889565b1515610ce957600080fd5b81600160a060020a0381161515610cff57600080fd5b60058054600160a060020a03858116600160a060020a03198316179283905560405191811694507f0c5a2063e991ea494e79a779c5062c5a549c4497265caaa8798349ddaf1756d392610ba292869291909116906130ea565b600260009054906101000a9004600160a060020a0316600160a060020a031663f71e860f6040518163ffffffff1660e060020a028152600401602060405180830381600087803b158015610dab57600080fd5b505af1158015610dbf573d6000803e3d6000fd5b505050506040513d601f19601f82011682018060405250610de391908101906128a8565b1515610dee57600080fd5b60055460405160e060020a6392272607028152600160a060020a0390911690639227260790610e2590859085903390600401612ff5565b600060405180830381600087803b158015610e3f57600080fd5b505af1158015610e53573d6000803e3d6000fd5b505050505050565b600654600160a060020a031681565b600154600160a060020a031681565b610e81611889565b1515610e8c57600080fd5b6004805460a060020a60ff02191660a060020a1790556040517f56ec8900b9c4bf84f4b715a53068ca06961dd49084c07b481931e2c2045346e690600090a1565b6000610ed7611889565b1515610ee257600080fd5b81600160a060020a0381161515610ef857600080fd5b6002548390600160a060020a03908116908216811461095c5760028054600160a060020a03878116600160a060020a0319831617909255604051911694507f634f61bf00e14adedce330c80c2823e16e184f189ebe853e1ddecc4a268477ff906109fb90869088906130ea565b600254600160a060020a031681565b6000610f7e611889565b1515610f8957600080fd5b81600160a060020a0381161515610f9f57600080fd5b60078054600160a060020a03858116600160a060020a03198316179283905560405191811694507ff21c127205310467822e10c64b2d9ffae588e019194d6af71f2bdddc0b7ef52692610ba292869291909116906130ea565b33611001610cb1565b600160a060020a03161461101457600080fd5b6000805460ff191660011790556040517fd5a2a04a775c741c2ca0dc46ea7ce4835190e1aaf1ca018def0e82568ec3361690611051903390612eb8565b60405180910390a1565b61106361189f565b151561106e57600080fd5b61107c8484848460006118b0565b60e0830151516040517f0a6b525565da0cbced0dcf4a83758b063ce5e7238f632cab9b5cf4d30108e1c2916110b8913391889187908790612f16565b60405180910390a150505050565b600654604080518082018252600160a060020a03858116825260208201859052915160e260020a6333ca4eab028152600093929092169163cf293aac91610c1391889190600401612fb2565b600061111c611889565b151561112757600080fd5b81600160a060020a038116151561113d57600080fd5b6004548390600160a060020a03908116908216811461095c5760045460a060020a900460ff161561116d57600080fd5b60048054600160a060020a03878116600160a060020a0319831617909255604051911694507fa44d361e26327b72a7ccbeae801b3c5cd7677ea4fa74168b289e273c46bfecfc906109fb90869088906130ea565b60006111cb611889565b15156111d657600080fd5b81600160a060020a03811615156111ec57600080fd5b600160a060020a03811630141561120257600080fd5b600054600160a060020a03848116610100909204161461127a5760008054600160a060020a0385811661010090810261010060a860020a0319841617909355604051929091041692507f977e5fa58e458501775e0008d275006294c5249e3c08d1d0e3a9f3acad14f6e490610ba29084908690612ec6565b505050565b61128761189f565b151561129257600080fd5b6112bb83604080519081016040528085600160a060020a03168152602001848152506000611a81565b7f5d5800b5b4d9de839f4e933323589d790e5cc56733d895c8af8a69c8e1d830ca33848484604051610ba29493929190612ee1565b600654604080518082018252600160a060020a03858116825260208201859052915160e060020a63da473c57028152600093929092169163da473c5791610a5691889190600401612fb2565b600654604080518082018252600160a060020a03858116825260208201859052915160e060020a631b90e3c10281526000939290921691631b90e3c191610a5691889190600401612fb2565b6004805460405160e260020a631293efbb028152600160a060020a0390911691634a4fbeec916113ba91339101612eb8565b602060405180830381600087803b1580156113d457600080fd5b505af11580156113e8573d6000803e3d6000fd5b505050506040513d601f19601f8201168201806040525061140c91908101906128a8565b1561141657600080fd5b6114243384848460016118b0565b60e0830151516040517f92fbfde4e67a0839d154cd36041dfd04992a08a0b09dfbf28e53ab646474bd2991610ba29133919086908690612f8a565b600061146961189f565b151561147457600080fd5b81600160a060020a038116151561148a57600080fd5b600160a060020a0381163014156114a057600080fd5b600154600160a060020a0384811691161461127a5760018054600160a060020a03858116600160a060020a0319831617909255604051911692507f9f611b789425d0d5b90b920f1b2852907dd865c80074a30b1629aaa041d1812c90610ba29084908690612ec6565b600260009054906101000a9004600160a060020a0316600160a060020a031663f71e860f6040518163ffffffff1660e060020a028152600401602060405180830381600087803b15801561155c57600080fd5b505af1158015611570573d6000803e3d6000fd5b505050506040513d601f19601f8201168201806040525061159491908101906128a8565b151561159f57600080fd5b60055460405160e360020a62c11527028152600160a060020a0390911690630608a93890610e2590859085903390600401613141565b6115fe33604080519081016040528085600160a060020a03168152602001848152506001611a81565b7fc495387f762dad3340f9d4869758066c81d4592e6d13edc66792fe718d887d8f33838360405161163193929190612f62565b60405180910390a15050565b600654604080518082018252600160a060020a03858116825260208201859052915160e160020a63160ed0cd0281526060939290921691632c1da19a9161076591889190600401612fb2565b600654604080518082018252600160a060020a03858116825260208201859052915160e060020a632ee2ed250281526000939290921691632ee2ed2591610a5691889190600401612fb2565b600654604080518082018252600160a060020a03858116825260208201859052915160e160020a6345a76a610281526000939290921691638b4ed4c291610a5691889190600401612fb2565b6000546101009004600160a060020a031681565b600454600160a060020a031681565b600754600160a060020a031681565b600654604080518082018252600160a060020a03858116825260208201859052915160e060020a6356ec907502815260009392909216916356ec907591610a5691889190600401612fb2565b600654604080518082018252600160a060020a03858116825260208201859052915160e060020a6309df8b0b02815260009392909216916309df8b0b91610a5691889190600401612fb2565b600654604080518082018252600160a060020a03858116825260208201859052915160e060020a6356587229028152600093929092169163565872299161183791889190600401612fb2565b602060405180830381600087803b15801561185157600080fd5b505af1158015611865573d6000803e3d6000fd5b505050506040513d601f19601f820116820180604052506107bb9190810190612744565b6000546101009004600160a060020a0316331490565b600154600160a060020a0316331490565b60035460405160e160020a637211c8c70281528591600160a060020a03169063e423918e906118e3908490600401613173565b602060405180830381600087803b1580156118fd57600080fd5b505af1158015611911573d6000803e3d6000fd5b505050506040513d601f19601f8201168201806040525061193591908101906128a8565b151561194057600080fd5b600260009054906101000a9004600160a060020a0316600160a060020a031663b6bf41766040518163ffffffff1660e060020a028152600401602060405180830381600087803b15801561199357600080fd5b505af11580156119a7573d6000803e3d6000fd5b505050506040513d601f19601f820116820180604052506119cb91908101906128c6565b4310156119d757600080fd5b60035460405160e160020a6303e149c3028152600160a060020a03909116906307c2938690611a0c9088908a90600401613184565b602060405180830381600087803b158015611a2657600080fd5b505af1158015611a3a573d6000803e3d6000fd5b505050506040513d601f19601f82011682018060405250611a5e91908101906128a8565b1515611a6957600080fd5b611a7586868685611aef565b610e5386868585611ce0565b60065460405160e460020a63052a0dd1028152600160a060020a03909116906352a0dd1090611ab890869086908690600401612fcd565b600060405180830381600087803b158015611ad257600080fd5b505af1158015611ae6573d6000803e3d6000fd5b50505050505050565b611af7611f25565b60075460408086015151905160e060020a635482c735028152600160a060020a0390921691635482c73591611b3191899190600401612fb2565b602060405180830381600087803b158015611b4b57600080fd5b505af1158015611b5f573d6000803e3d6000fd5b505050506040513d601f19601f82011682018060405250611b8391908101906128a8565b1515611b8e57600080fd5b611b988486611e3d565b60a08101515151909150831315611bae57600080fd5b600654815160a08301515151600160a060020a039092169163ec01fa809188916000908890611be3908263ffffffff611ee916565b8a60400151600001518b61010001518a8d60e001516000015173__TradeTypesLib_________________________6332575cb66040518163ffffffff1660e060020a02815260040160006040518083038186803b158015611c4357600080fd5b505af4158015611c57573d6000803e3d6000fd5b505050506040513d6000823e601f3d908101601f19168201604052611c7f9190810190612920565b6040518b63ffffffff1660e060020a028152600401611ca79a99989796959493929190613024565b600060405180830381600087803b158015611cc157600080fd5b505af1158015611cd5573d6000803e3d6000fd5b505050505050505050565b611ce8611f25565b60075460408086015160200151905160e060020a635482c735028152600160a060020a0390921691635482c73591611d2591899190600401612fb2565b602060405180830381600087803b158015611d3f57600080fd5b505af1158015611d53573d6000803e3d6000fd5b505050506040513d601f19601f82011682018060405250611d7791908101906128a8565b1515611d8257600080fd5b611d8c8486611e3d565b60a08101516020015151909150831315611da557600080fd5b600654815160a08301516020015151600160a060020a039092169163ec01fa809188916000908890611ddd908263ffffffff611ee916565b8a60400151602001518b61010001518a8d60e001516000015173__TradeTypesLib_________________________6332575cb66040518163ffffffff1660e060020a02815260040160006040518083038186803b158015611c4357600080fd5b611e45611f25565b60035460405160e060020a63059057d7028152600160a060020a039091169063059057d790611e7a9086908690600401613184565b602060405180830381600087803b158015611e9457600080fd5b505af1158015611ea8573d6000803e3d6000fd5b505050506040513d601f19601f82011682018060405250611ecc91908101906128a8565b611eda578260a00151611ee0565b82608001515b90505b92915050565b6000808212158015611efd57508282840313155b80611f145750600082128015611f14575082828403135b1515611f1f57600080fd5b50900390565b60408051610220810182526000808252602082018190529181018290529060608201908152602001611f55611f74565b8152602001611f62611f9c565b8152602001611f6f611fb0565b905290565b60a06040519081016040528060008152602001611f8f611fd1565b8152602001611f6f611fd1565b608060405190810160405280611f8f611fd1565b608060405190810160405280611fc4611fe8565b8152602001606081525090565b604080518082019091526000808252602082015290565b60606040519081016040528060008152602001611f6f604080518082019091526000808252602082015290565b6000611ee0823561321b565b6000611ee0825161321b565b6000601f8201831361203e57600080fd5b813561205161204c826131ca565b6131a4565b9150818183526020840193506020810190508385608084028201111561207657600080fd5b60005b838110156120a4578161208c8882612386565b84525060209092019160809190910190600101612079565b5050505092915050565b6000611ee08251613227565b6000611ee0823561322c565b6000611ee0825161322c565b6000611ee08235613245565b6000611ee08235613250565b6000611ee08251613250565b6000601f8201831361210757600080fd5b815161211561204c826131ea565b9150808252602083016020830185838301111561213157600080fd5b61213c838284613275565b50505092915050565b60006040828403121561215757600080fd5b61216160406131a4565b9050600061216f8484612015565b8252506020612180848483016120ba565b60208301525092915050565b60006040828403121561219e57600080fd5b6121a860406131a4565b9050600061216f84846120ba565b6000606082840312156121c857600080fd5b6121d260406131a4565b905060006121e084846120ba565b825250602061218084848301612145565b60006080828403121561220357600080fd5b61220d60406131a4565b9050600061221b8484612145565b825250604061218084848301612145565b60006080828403121561223e57600080fd5b61224860406131a4565b90506000612256848461218c565b82525060406121808484830161218c565b6000610120828403121561227a57600080fd5b61228460a06131a4565b9050600061229284846120de565b82525060206122a3848483016120ba565b60208301525060406122b7848285016121f1565b60408301525060c06122cb848285016120ba565b60608301525060e06122df8482850161218c565b60808301525092915050565b60006102a082840312156122fe57600080fd5b61230860c06131a4565b9050600061231684846120ba565b825250602061232784848301612015565b602083015250604061233b84828501612267565b604083015250610160612350848285016126d6565b606083015250610260612365848285016120ba565b60808301525061028061237a848285016120ba565b60a08301525092915050565b60006080828403121561239857600080fd5b6123a260406131a4565b905060006123b084846120ba565b8252506020612180848483016121b6565b6000608082840312156123d357600080fd5b6123dd60406131a4565b905060006123eb84846120ba565b82525060206121808484830160006060828403121561240957600080fd5b61241360606131a4565b9050600061242184846120ba565b8252506020612432848483016120ba565b602083015250604061244684828501612712565b60408301525092915050565b60006080828403121561246457600080fd5b61246e60406131a4565b9050600061247c84846121b6565b82525060608201356001604060020a0381111561249857600080fd5b6121808482850161202d565b600060a082840312156124b657600080fd5b6124c060606131a4565b905060006124ce84846120ba565b82525060206124df8484830161218c565b60208301525060606124468482850161218c565b60006101c0828403121561250657600080fd5b61251060e06131a4565b9050600061251e84846120ba565b825250602061252f84848301612015565b6020830152506040612543848285016120ba565b6040830152506060612557848285016120de565b606083015250608061256b848285016124a4565b6080830152506101206125808482850161222c565b60a0830152506101a08201356001604060020a038111156125a057600080fd5b6125ac84828501612452565b60c08301525092915050565b600061026082840312156125cb57600080fd5b6125d66101406131a4565b905060006125e484846120ba565b82525060206125f5848483016120ba565b6020830152506040612609848285016121f1565b60408301525060c061261d848285016120ba565b60608301525060e08201356001604060020a0381111561263c57600080fd5b612648848285016124f3565b6080830152506101008201356001604060020a0381111561266857600080fd5b612674848285016124f3565b60a0830152506101206126898482850161222c565b60c0830152506101a061269e848285016123c1565b60e0830152506102206126b3848285016120ba565b610100830152506102406126c9848285016120ba565b6101208301525092915050565b600061010082840312156126e957600080fd5b6126f360406131a4565b9050600061270184846123c1565b8252506080612180848483016123c1565b6000611ee0823561323f565b60006020828403121561273057600080fd5b600061273c8484612015565b949350505050565b60006020828403121561275657600080fd5b600061273c8484612021565b60008060006060848603121561277757600080fd5b60006127838686612015565b935050602061279486828701612015565b92505060406127a5868287016120ba565b9150509250925092565b600080604083850312156127c257600080fd5b60006127ce8585612015565b92505060208301356001604060020a038111156127ea57600080fd5b6127f6858286016125b8565b9150509250929050565b6000806000806080858703121561281657600080fd5b60006128228787612015565b94505060208501356001604060020a0381111561283e57600080fd5b61284a878288016125b8565b935050604061285b878288016120ba565b925050606061286c878288016120ba565b91505092959194509250565b6000806040838503121561288b57600080fd5b60006128978585612015565b92505060206127f6858286016120ba565b6000602082840312156128ba57600080fd5b600061273c84846120ae565b6000602082840312156128d857600080fd5b600061273c84846120c6565b6000602082840312156128f657600080fd5b600061273c84846120d2565b60006020828403121561291457600080fd5b600061273c84846120ea565b60006020828403121561293257600080fd5b81516001604060020a0381111561294857600080fd5b61273c848285016120f6565b60006102a0828403121561296757600080fd5b600061273c84846122eb565b6000806102c0838503121561298757600080fd5b600061299385856122eb565b9250506102a08301356001604060020a038111156127ea57600080fd5b6000806000606084860312156129c557600080fd5b83356001604060020a038111156129db57600080fd5b6129e7868287016125b8565b9350506020612794868287016120ba565b612a018161321b565b82525050565b6000612a1282613217565b808452602084019350612a2483613211565b60005b82811015612a5457612a3a868351612c39565b612a4382613211565b608096909601959150600101612a27565b5093949350505050565b612a0181613227565b612a018161322c565b612a0181613245565b612a018161325f565b612a018161326a565b6000612a9682613217565b808452612aaa816020860160208601613275565b612ab3816132a1565b9093016020019392505050565b80516040830190612ad184826129f8565b506020820151612ae46020850182612a67565b50505050565b80516040830190612ad18482612a67565b80516060830190612b0c8482612a67565b506020820151612ae46020850182612ac0565b80516080830190612b308482612ac0565b506020820151612ae46040850182612ac0565b80516080830190612b548482612aea565b506020820151612ae46040850182612aea565b8051610120830190612b798482612a79565b506020820151612b8c6020850182612a67565b506040820151612b9f6040850182612b1f565b506060820151612bb260c0850182612a67565b506080820151612ae460e0850182612aea565b80516102a0830190612bd78482612a67565b506020820151612bea60208501826129f8565b506040820151612bfd6040850182612b67565b506060820151612c11610160850182612e8a565b506080820151612c25610260850182612a67565b5060a0820151612ae4610280850182612a67565b80516080830190612c4a8482612a67565b506020820151612ae46020850182612afb565b80516080830190612c6e8482612a67565b506020820151612ae4602085018280516060830190612c8d8482612a67565b506020820151612ca06020850182612a67565b506040820151612ae46040850182612eaf565b80516000906080840190612cc78582612afb565b5060208301518482036060860152612cdf8282612a07565b95945050505050565b805160a0830190612cf98482612a67565b506020820151612d0c6020850182612aea565b506040820151612ae46060850182612aea565b80516000906101c0840190612d348582612a67565b506020830151612d4760208601826129f8565b506040830151612d5a6040860182612a67565b506060830151612d6d6060860182612a79565b506080830151612d806080860182612ce8565b5060a0830151612d94610120860182612b43565b5060c08301518482036101a0860152612cdf8282612cb3565b8051600090610260840190612dc28582612a67565b506020830151612dd56020860182612a67565b506040830151612de86040860182612b1f565b506060830151612dfb60c0860182612a67565b50608083015184820360e0860152612e138282612d1f565b91505060a0830151848203610100860152612e2e8282612d1f565b91505060c0830151612e44610120860182612b43565b5060e0830151612e586101a0860182612c5d565b50610100830151612e6d610220860182612a67565b50610120830151612e82610240860182612a67565b509392505050565b8051610100830190612e9c8482612c5d565b506020820151612ae46080850182612c5d565b612a018161323f565b60208101611ee382846129f8565b60408101612ed482856129f8565b6107be60208301846129f8565b60808101612eef82876129f8565b612efc60208301866129f8565b612f0960408301856129f8565b612cdf6060830184612a67565b60a08101612f2482886129f8565b612f3160208301876129f8565b612f3e6040830186612a67565b612f4b6060830185612a67565b612f586080830184612a67565b9695505050505050565b60608101612f7082866129f8565b612f7d60208301856129f8565b61273c6040830184612a67565b60808101612f9882876129f8565b612fa56020830186612a67565b612f096040830185612a67565b60608101612fc082856129f8565b6107be6020830184612ac0565b60808101612fdb82866129f8565b612fe86020830185612ac0565b61273c6060830184612a5e565b6060810161300382866129f8565b81810360208301526130158185612dad565b905061273c60408301846129f8565b6101608101613033828d6129f8565b613040602083018c612a67565b61304d604083018b612a82565b61305a606083018a612a67565b6130676080830189612a67565b61307460a0830188612ac0565b61308160e0830187612a67565b61308f610100830186612a5e565b61309d610120830185612a67565b8181036101408301526130b08184612a8b565b9c9b505050505050505050505050565b60208101611ee38284612a5e565b60208101611ee38284612a67565b60208101611ee38284612a70565b604081016130f88285612a70565b6107be6020830184612a70565b60208101611ee38284612a79565b60208082528101611ee08184612a8b565b6102c081016131338285612bc5565b6107be6102a08301846129f8565b6102e081016131508286612bc5565b8181036102a08301526131638185612dad565b905061273c6102c08301846129f8565b60208082528101611ee08184612dad565b604080825281016131958185612dad565b90506107be60208301846129f8565b6040518181016001604060020a03811182821017156131c257600080fd5b604052919050565b60006001604060020a038211156131e057600080fd5b5060209081020190565b60006001604060020a0382111561320057600080fd5b506020601f91909101601f19160190565b60200190565b5190565b600160a060020a031690565b151590565b90565b60006002821061323b57fe5b5090565b60ff1690565b6000611ee38261321b565b60006002821061323b57600080fd5b6000611ee38261322f565b6000611ee38261322c565b60005b83811015613290578181015183820152602001613278565b83811115612ae45750506000910152565b601f01601f1916905600a265627a7a72305820e0bb4421ad503f31865b08c34358c48b903d34f1d9f5b5fdca49fcc364c5dbba6c6578706572696d656e74616cf50037",
  "source": "/*\n * Hubii Nahmii\n *\n * Compliant with the Hubii Nahmii specification v0.12.\n *\n * Copyright (C) 2017-2018 Hubii AS\n */\n\npragma solidity ^0.4.25;\npragma experimental ABIEncoderV2;\n\nimport {Ownable} from \"./Ownable.sol\";\nimport {ConfigurableOperational} from \"./ConfigurableOperational.sol\";\nimport {ValidatableV2} from \"./ValidatableV2.sol\";\nimport {WalletLockable} from \"./WalletLockable.sol\";\nimport {SafeMathIntLib} from \"./SafeMathIntLib.sol\";\nimport {SafeMathUintLib} from \"./SafeMathUintLib.sol\";\nimport {DriipSettlementDisputeByTrade} from \"./DriipSettlementDisputeByTrade.sol\";\nimport {DriipSettlementChallengeState} from \"./DriipSettlementChallengeState.sol\";\nimport {NullSettlementChallengeState} from \"./NullSettlementChallengeState.sol\";\nimport {MonetaryTypesLib} from \"./MonetaryTypesLib.sol\";\nimport {NahmiiTypesLib} from \"./NahmiiTypesLib.sol\";\nimport {TradeTypesLib} from \"./TradeTypesLib.sol\";\nimport {SettlementChallengeTypesLib} from \"./SettlementChallengeTypesLib.sol\";\n\n/**\n * @title DriipSettlementChallengeByTrade\n * @notice Where driip settlements pertaining to trades are started and disputed\n */\ncontract DriipSettlementChallengeByTrade is Ownable, ConfigurableOperational, ValidatableV2, WalletLockable {\n    using SafeMathIntLib for int256;\n    using SafeMathUintLib for uint256;\n\n    //\n    // Variables\n    // -----------------------------------------------------------------------------------------------------------------\n    DriipSettlementDisputeByTrade public driipSettlementDisputeByTrade;\n    DriipSettlementChallengeState public driipSettlementChallengeState;\n    NullSettlementChallengeState public nullSettlementChallengeState;\n\n    //\n    // Events\n    // -----------------------------------------------------------------------------------------------------------------\n    event SetDriipSettlementDisputeByTradeEvent(DriipSettlementDisputeByTrade oldDriipSettlementDisputeByTrade,\n        DriipSettlementDisputeByTrade newDriipSettlementDisputeByTrade);\n    event SetDriipSettlementChallengeStateEvent(DriipSettlementChallengeState oldDriipSettlementChallengeState,\n        DriipSettlementChallengeState newDriipSettlementChallengeState);\n    event SetNullSettlementChallengeStateEvent(NullSettlementChallengeState oldNullSettlementChallengeState,\n        NullSettlementChallengeState newNullSettlementChallengeState);\n    event StartChallengeFromTradeEvent(address wallet, bytes32 tradeHash,\n        int256 intendedStageAmount, int256 conjugateStageAmount);\n    event StartChallengeFromTradeByProxyEvent(address proxy, address wallet, bytes32 tradeHash,\n        int256 intendedStageAmount, int256 conjugateStageAmount);\n    event StopChallengeEvent(address wallet, address currencyCt, uint256 currencyId);\n    event StopChallengeByProxyEvent(address proxy, address wallet, address currencyCt, uint256 currencyId);\n\n    //\n    // Constructor\n    // -----------------------------------------------------------------------------------------------------------------\n    constructor(address deployer) Ownable(deployer) public {\n    }\n\n    //\n    // Functions\n    // -----------------------------------------------------------------------------------------------------------------\n    /// @notice Set the settlement dispute contract\n    /// @param newDriipSettlementDisputeByTrade The (address of) DriipSettlementDisputeByTrade contract instance\n    function setDriipSettlementDisputeByTrade(DriipSettlementDisputeByTrade newDriipSettlementDisputeByTrade)\n    public\n    onlyDeployer\n    notNullAddress(newDriipSettlementDisputeByTrade)\n    {\n        DriipSettlementDisputeByTrade oldDriipSettlementDisputeByTrade = driipSettlementDisputeByTrade;\n        driipSettlementDisputeByTrade = newDriipSettlementDisputeByTrade;\n        emit SetDriipSettlementDisputeByTradeEvent(oldDriipSettlementDisputeByTrade, driipSettlementDisputeByTrade);\n    }\n\n    /// @notice Set the driip settlement challenge state contract\n    /// @param newDriipSettlementChallengeState The (address of) DriipSettlementChallengeState contract instance\n    function setDriipSettlementChallengeState(DriipSettlementChallengeState newDriipSettlementChallengeState)\n    public\n    onlyDeployer\n    notNullAddress(newDriipSettlementChallengeState)\n    {\n        DriipSettlementChallengeState oldDriipSettlementChallengeState = driipSettlementChallengeState;\n        driipSettlementChallengeState = newDriipSettlementChallengeState;\n        emit SetDriipSettlementChallengeStateEvent(oldDriipSettlementChallengeState, driipSettlementChallengeState);\n    }\n\n    /// @notice Set the null settlement challenge state contract\n    /// @param newNullSettlementChallengeState The (address of) NullSettlementChallengeState contract instance\n    function setNullSettlementChallengeState(NullSettlementChallengeState newNullSettlementChallengeState)\n    public\n    onlyDeployer\n    notNullAddress(newNullSettlementChallengeState)\n    {\n        NullSettlementChallengeState oldNullSettlementChallengeState = nullSettlementChallengeState;\n        nullSettlementChallengeState = newNullSettlementChallengeState;\n        emit SetNullSettlementChallengeStateEvent(oldNullSettlementChallengeState, nullSettlementChallengeState);\n    }\n\n    /// @notice Start settlement challenge on trade\n    /// @param trade The challenged trade\n    /// @param intendedStageAmount Amount of intended currency to be staged\n    /// @param conjugateStageAmount Amount of conjugate currency to be staged\n    function startChallengeFromTrade(TradeTypesLib.Trade trade, int256 intendedStageAmount,\n        int256 conjugateStageAmount)\n    public\n    {\n        // Require that wallet is not temporarily disqualified\n        require(!walletLocker.isLocked(msg.sender));\n\n        // Start challenge\n        _startChallengeFromTrade(msg.sender, trade, intendedStageAmount, conjugateStageAmount, true);\n\n        // Emit event\n        emit StartChallengeFromTradeEvent(msg.sender, trade.seal.hash, intendedStageAmount, conjugateStageAmount);\n    }\n\n    /// @notice Start settlement challenge on trade by proxy\n    /// @param wallet The concerned party\n    /// @param trade The challenged trade\n    /// @param intendedStageAmount Amount of intended currency to be staged\n    /// @param conjugateStageAmount Amount of conjugate currency to be staged\n    function startChallengeFromTradeByProxy(address wallet, TradeTypesLib.Trade trade, int256 intendedStageAmount,\n        int256 conjugateStageAmount)\n    public\n    onlyOperator\n    {\n        // Start challenge for wallet\n        _startChallengeFromTrade(wallet, trade, intendedStageAmount, conjugateStageAmount, false);\n\n        // Emit event\n        emit StartChallengeFromTradeByProxyEvent(msg.sender, wallet, trade.seal.hash, intendedStageAmount, conjugateStageAmount);\n    }\n\n    /// @notice Stop settlement challenge\n    /// @param currencyCt The address of the concerned currency contract (address(0) == ETH)\n    /// @param currencyId The ID of the concerned currency (0 for ETH and ERC20)\n    function stopChallenge(address currencyCt, uint256 currencyId)\n    public\n    {\n        // Stop challenge\n        _stopChallenge(msg.sender, MonetaryTypesLib.Currency(currencyCt, currencyId), true);\n\n        // Emit event\n        emit StopChallengeEvent(msg.sender, currencyCt, currencyId);\n    }\n\n    /// @notice Stop settlement challenge\n    /// @param wallet The concerned wallet\n    /// @param currencyCt The address of the concerned currency contract (address(0) == ETH)\n    /// @param currencyId The ID of the concerned currency (0 for ETH and ERC20)\n    function stopChallengeByProxy(address wallet, address currencyCt, uint256 currencyId)\n    public\n    onlyOperator\n    {\n        // Stop challenge\n        _stopChallenge(wallet, MonetaryTypesLib.Currency(currencyCt, currencyId), false);\n\n        // Emit event\n        emit StopChallengeByProxyEvent(msg.sender, wallet, currencyCt, currencyId);\n    }\n\n    /// @notice Gauge whether the proposal for the given wallet and currency has expired\n    /// @param wallet The address of the concerned wallet\n    /// @param currencyCt The address of the concerned currency contract (address(0) == ETH)\n    /// @param currencyId The ID of the concerned currency (0 for ETH and ERC20)\n    /// @return true if proposal has expired, else false\n    function hasProposalExpired(address wallet, address currencyCt, uint256 currencyId)\n    public\n    view\n    returns (bool)\n    {\n        return driipSettlementChallengeState.hasProposalExpired(\n            wallet, MonetaryTypesLib.Currency(currencyCt, currencyId)\n        );\n    }\n\n    /// @notice Get the challenge nonce of the given wallet\n    /// @param wallet The address of the concerned wallet\n    /// @param currencyCt The address of the concerned currency contract (address(0) == ETH)\n    /// @param currencyId The ID of the concerned currency (0 for ETH and ERC20)\n    /// @return The challenge nonce\n    function proposalNonce(address wallet, address currencyCt, uint256 currencyId)\n    public\n    view\n    returns (uint256)\n    {\n        return driipSettlementChallengeState.proposalNonce(\n            wallet, MonetaryTypesLib.Currency(currencyCt, currencyId)\n        );\n    }\n\n    /// @notice Get the settlement proposal block number of the given wallet\n    /// @param wallet The address of the concerned wallet\n    /// @param currencyCt The address of the concerned currency contract (address(0) == ETH)\n    /// @param currencyId The ID of the concerned currency (0 for ETH and ERC20)\n    /// @return The settlement proposal block number\n    function proposalBlockNumber(address wallet, address currencyCt, uint256 currencyId)\n    public\n    view\n    returns (uint256)\n    {\n        return driipSettlementChallengeState.proposalBlockNumber(\n            wallet, MonetaryTypesLib.Currency(currencyCt, currencyId)\n        );\n    }\n\n    /// @notice Get the settlement proposal end time of the given wallet\n    /// @param wallet The address of the concerned wallet\n    /// @param currencyCt The address of the concerned currency contract (address(0) == ETH)\n    /// @param currencyId The ID of the concerned currency (0 for ETH and ERC20)\n    /// @return The settlement proposal end time\n    function proposalExpirationTime(address wallet, address currencyCt, uint256 currencyId)\n    public\n    view\n    returns (uint256)\n    {\n        return driipSettlementChallengeState.proposalExpirationTime(\n            wallet, MonetaryTypesLib.Currency(currencyCt, currencyId)\n        );\n    }\n\n    /// @notice Get the challenge status of the given wallet\n    /// @param wallet The address of the concerned wallet\n    /// @param currencyCt The address of the concerned currency contract (address(0) == ETH)\n    /// @param currencyId The ID of the concerned currency (0 for ETH and ERC20)\n    /// @return The challenge status\n    function proposalStatus(address wallet, address currencyCt, uint256 currencyId)\n    public\n    view\n    returns (SettlementChallengeTypesLib.Status)\n    {\n        return driipSettlementChallengeState.proposalStatus(\n            wallet, MonetaryTypesLib.Currency(currencyCt, currencyId)\n        );\n    }\n\n    /// @notice Get the settlement proposal stage amount of the given wallet and currency\n    /// @param wallet The address of the concerned wallet\n    /// @param currencyCt The address of the concerned currency contract (address(0) == ETH)\n    /// @param currencyId The ID of the concerned currency (0 for ETH and ERC20)\n    /// @return The settlement proposal stage amount\n    function proposalStageAmount(address wallet, address currencyCt, uint256 currencyId)\n    public\n    view\n    returns (int256)\n    {\n        return driipSettlementChallengeState.proposalStageAmount(\n            wallet, MonetaryTypesLib.Currency(currencyCt, currencyId)\n        );\n    }\n\n    /// @notice Get the settlement proposal target balance amount of the given wallet and currency\n    /// @param wallet The address of the concerned wallet\n    /// @param currencyCt The address of the concerned currency contract (address(0) == ETH)\n    /// @param currencyId The ID of the concerned currency (0 for ETH and ERC20)\n    /// @return The settlement proposal target balance amount\n    function proposalTargetBalanceAmount(address wallet, address currencyCt, uint256 currencyId)\n    public\n    view\n    returns (int256)\n    {\n        return driipSettlementChallengeState.proposalTargetBalanceAmount(\n            wallet, MonetaryTypesLib.Currency(currencyCt, currencyId)\n        );\n    }\n\n    /// @notice Get the settlement proposal driip hash of the given wallet and currency\n    /// @param wallet The address of the concerned wallet\n    /// @param currencyCt The address of the concerned currency contract (address(0) == ETH)\n    /// @param currencyId The ID of the concerned currency (0 for ETH and ERC20)\n    /// @return The settlement proposal driip hash\n    function proposalChallengedHash(address wallet, address currencyCt, uint256 currencyId)\n    public\n    view\n    returns (bytes32)\n    {\n        return driipSettlementChallengeState.proposalChallengedHash(\n            wallet, MonetaryTypesLib.Currency(currencyCt, currencyId)\n        );\n    }\n\n    /// @notice Get the settlement proposal driip type of the given wallet and currency\n    /// @param wallet The address of the concerned wallet\n    /// @param currencyCt The address of the concerned currency contract (address(0) == ETH)\n    /// @param currencyId The ID of the concerned currency (0 for ETH and ERC20)\n    /// @return The settlement proposal driip type\n    function proposalChallengedKind(address wallet, address currencyCt, uint256 currencyId)\n    public\n    view\n    returns (string)\n    {\n        return driipSettlementChallengeState.proposalChallengedKind(\n            wallet, MonetaryTypesLib.Currency(currencyCt, currencyId)\n        );\n    }\n\n    /// @notice Get the balance reward of the given wallet's settlement proposal\n    /// @param wallet The address of the concerned wallet\n    /// @param currencyCt The address of the concerned currency contract (address(0) == ETH)\n    /// @param currencyId The ID of the concerned currency (0 for ETH and ERC20)\n    /// @return The balance reward of the settlement proposal\n    function proposalWalletInitiated(address wallet, address currencyCt, uint256 currencyId)\n    public\n    view\n    returns (bool)\n    {\n        return driipSettlementChallengeState.proposalWalletInitiated(\n            wallet, MonetaryTypesLib.Currency(currencyCt, currencyId)\n        );\n    }\n\n    /// @notice Get the disqualification challenger of the given wallet and currency\n    /// @param wallet The address of the concerned wallet\n    /// @param currencyCt The address of the concerned currency contract (address(0) == ETH)\n    /// @param currencyId The ID of the concerned currency (0 for ETH and ERC20)\n    /// @return The challenger of the settlement disqualification\n    function proposalDisqualificationChallenger(address wallet, address currencyCt, uint256 currencyId)\n    public\n    view\n    returns (address)\n    {\n        return driipSettlementChallengeState.proposalDisqualificationChallenger(\n            wallet, MonetaryTypesLib.Currency(currencyCt, currencyId)\n        );\n    }\n    /// @notice Get the disqualification block number of the given wallet and currency\n    /// @param wallet The address of the concerned wallet\n    /// @param currencyCt The address of the concerned currency contract (address(0) == ETH)\n    /// @param currencyId The ID of the concerned currency (0 for ETH and ERC20)\n    /// @return The block number of the settlement disqualification\n    function proposalDisqualificationBlockNumber(address wallet, address currencyCt, uint256 currencyId)\n    public\n    view\n    returns (uint256)\n    {\n        return driipSettlementChallengeState.proposalDisqualificationBlockNumber(\n            wallet, MonetaryTypesLib.Currency(currencyCt, currencyId)\n        );\n    }\n\n    /// @notice Get the disqualification candidate kind of the given wallet and currency\n    /// @param wallet The address of the concerned wallet\n    /// @param currencyCt The address of the concerned currency contract (address(0) == ETH)\n    /// @param currencyId The ID of the concerned currency (0 for ETH and ERC20)\n    /// @return The candidate kind of the settlement disqualification\n    function proposalDisqualificationCandidateKind(address wallet, address currencyCt, uint256 currencyId)\n    public\n    view\n    returns (string)\n    {\n        return driipSettlementChallengeState.proposalDisqualificationCandidateKind(\n            wallet, MonetaryTypesLib.Currency(currencyCt, currencyId)\n        );\n    }\n\n    /// @notice Get the disqualification candidate hash of the given wallet and currency\n    /// @param wallet The address of the concerned wallet\n    /// @param currencyCt The address of the concerned currency contract (address(0) == ETH)\n    /// @param currencyId The ID of the concerned currency (0 for ETH and ERC20)\n    /// @return The candidate hash of the settlement disqualification\n    function proposalDisqualificationCandidateHash(address wallet, address currencyCt, uint256 currencyId)\n    public\n    view\n    returns (bytes32)\n    {\n        return driipSettlementChallengeState.proposalDisqualificationCandidateHash(\n            wallet, MonetaryTypesLib.Currency(currencyCt, currencyId)\n        );\n    }\n\n    /// @notice Challenge the settlement by providing order candidate\n    /// @param order The order candidate that challenges the challenged driip\n    function challengeByOrder(TradeTypesLib.Order order)\n    public\n    onlyOperationalModeNormal\n    {\n        driipSettlementDisputeByTrade.challengeByOrder(order, msg.sender);\n    }\n\n    /// @notice Unchallenge settlement by providing trade that shows that challenge order candidate has been filled\n    /// @param order The order candidate that challenged driip\n    /// @param trade The trade in which order has been filled\n    function unchallengeOrderCandidateByTrade(TradeTypesLib.Order order, TradeTypesLib.Trade trade)\n    public\n    onlyOperationalModeNormal\n    {\n        driipSettlementDisputeByTrade.unchallengeOrderCandidateByTrade(order, trade, msg.sender);\n    }\n\n    /// @notice Challenge the settlement by providing trade candidate\n    /// @param wallet The wallet whose settlement is being challenged\n    /// @param trade The trade candidate that challenges the challenged driip\n    function challengeByTrade(address wallet, TradeTypesLib.Trade trade)\n    public\n    onlyOperationalModeNormal\n    {\n        driipSettlementDisputeByTrade.challengeByTrade(wallet, trade, msg.sender);\n    }\n\n    //\n    // Private functions\n    // -----------------------------------------------------------------------------------------------------------------\n    function _startChallengeFromTrade(address wallet, TradeTypesLib.Trade trade,\n        int256 intendedStageAmount, int256 conjugateStageAmount, bool walletInitiated)\n    private\n    onlySealedTrade(trade)\n    {\n        // Require that current block number is beyond the earliest settlement challenge block number\n        require(block.number >= configuration.earliestSettlementBlockNumber());\n\n        // Require that given wallet is a trade party\n        require(validator.isTradeParty(trade, wallet));\n\n        // Create proposals\n        _addIntendedProposalFromTrade(wallet, trade, intendedStageAmount, walletInitiated);\n        _addConjugateProposalFromTrade(wallet, trade, conjugateStageAmount, walletInitiated);\n    }\n\n    function _stopChallenge(address wallet, MonetaryTypesLib.Currency currency, bool walletTerminated)\n    private\n    {\n        // Stop challenge\n        driipSettlementChallengeState.removeProposal(wallet, currency, walletTerminated);\n    }\n\n    function _addIntendedProposalFromTrade(address wallet, TradeTypesLib.Trade trade, int256 stageAmount, bool walletInitiated)\n    private\n    {\n        // Require that there is no ongoing overlapping null settlement challenge\n        require(nullSettlementChallengeState.hasProposalExpired(wallet, trade.currencies.intended));\n\n        // Deduce the concerned trade party\n        TradeTypesLib.TradeParty memory party = _tradeParty(trade, wallet);\n\n        // Require that intended balance amount is not less than stage amount\n        require(party.balances.intended.current >= stageAmount);\n\n        // Add proposal, including assurance that there is no overlap with active proposal\n        driipSettlementChallengeState.addProposal(\n            wallet, party.nonce, 0, stageAmount, party.balances.intended.current.sub(stageAmount), trade.currencies.intended,\n            trade.blockNumber, walletInitiated, trade.seal.hash, TradeTypesLib.TRADE_KIND()\n        );\n    }\n\n    function _addConjugateProposalFromTrade(address wallet, TradeTypesLib.Trade trade, int256 stageAmount, bool walletInitiated)\n    private\n    {\n        // Require that there is no ongoing overlapping null settlement challenge\n        require(nullSettlementChallengeState.hasProposalExpired(wallet, trade.currencies.conjugate));\n\n        // Deduce the concerned trade party\n        TradeTypesLib.TradeParty memory party = _tradeParty(trade, wallet);\n\n        // Require that conjugate balance amount is not less than stage amount\n        require(party.balances.conjugate.current >= stageAmount);\n\n        // Add proposal, including assurance that there is no overlap with active proposal\n        driipSettlementChallengeState.addProposal(\n            wallet, party.nonce, 0, stageAmount, party.balances.conjugate.current.sub(stageAmount), trade.currencies.conjugate,\n            trade.blockNumber, walletInitiated, trade.seal.hash, TradeTypesLib.TRADE_KIND()\n        );\n    }\n\n    function _tradeParty(TradeTypesLib.Trade trade, address wallet)\n    private\n    view\n    returns (TradeTypesLib.TradeParty)\n    {\n        return validator.isTradeBuyer(trade, wallet) ? trade.buyer : trade.seller;\n    }\n}\n",
  "sourcePath": "/opt/buildagent/work/855e104608380c36/contracts/DriipSettlementChallengeByTrade.sol",
  "compiler": {
    "name": "solc",
    "version": "0.4.25+commit.59dbf8f1.Emscripten.clang"
  },
  "schemaVersion": "2.0.2",
  "updatedAt": "2019-04-02T08:24:31.898Z"
}