{
  "contractName": "DriipSettlementChallengeByPayment",
  "abi": [
    {
      "inputs": [
        {
          "internalType": "address",
          "name": "deployer",
          "type": "address"
        }
      ],
      "payable": false,
      "stateMutability": "nonpayable",
      "type": "constructor"
    },
    {
      "anonymous": false,
      "inputs": [
        {
          "indexed": false,
          "internalType": "address",
          "name": "challengedWallet",
          "type": "address"
        },
        {
          "indexed": false,
          "internalType": "uint256",
          "name": "nonce",
          "type": "uint256"
        },
        {
          "indexed": false,
          "internalType": "int256",
          "name": "cumulativeTransferAmount",
          "type": "int256"
        },
        {
          "indexed": false,
          "internalType": "int256",
          "name": "stageAmount",
          "type": "int256"
        },
        {
          "indexed": false,
          "internalType": "int256",
          "name": "targetBalanceAmount",
          "type": "int256"
        },
        {
          "indexed": false,
          "internalType": "address",
          "name": "currencyCt",
          "type": "address"
        },
        {
          "indexed": false,
          "internalType": "uint256",
          "name": "currencyId",
          "type": "uint256"
        },
        {
          "indexed": false,
          "internalType": "address",
          "name": "challengerWallet",
          "type": "address"
        }
      ],
      "name": "ChallengeByPaymentEvent",
      "type": "event"
    },
    {
      "anonymous": false,
      "inputs": [],
      "name": "FreezeBalanceTrackerEvent",
      "type": "event"
    },
    {
      "anonymous": false,
      "inputs": [],
      "name": "FreezeWalletLockerEvent",
      "type": "event"
    },
    {
      "anonymous": false,
      "inputs": [
        {
          "indexed": false,
          "internalType": "address",
          "name": "wallet",
          "type": "address"
        }
      ],
      "name": "SelfDestructionDisabledEvent",
      "type": "event"
    },
    {
      "anonymous": false,
      "inputs": [
        {
          "indexed": false,
          "internalType": "contract BalanceTracker",
          "name": "oldBalanceTracker",
          "type": "address"
        },
        {
          "indexed": false,
          "internalType": "contract BalanceTracker",
          "name": "newBalanceTracker",
          "type": "address"
        }
      ],
      "name": "SetBalanceTrackerEvent",
      "type": "event"
    },
    {
      "anonymous": false,
      "inputs": [
        {
          "indexed": false,
          "internalType": "contract Configuration",
          "name": "oldConfiguration",
          "type": "address"
        },
        {
          "indexed": false,
          "internalType": "contract Configuration",
          "name": "newConfiguration",
          "type": "address"
        }
      ],
      "name": "SetConfigurationEvent",
      "type": "event"
    },
    {
      "anonymous": false,
      "inputs": [
        {
          "indexed": false,
          "internalType": "address",
          "name": "oldDeployer",
          "type": "address"
        },
        {
          "indexed": false,
          "internalType": "address",
          "name": "newDeployer",
          "type": "address"
        }
      ],
      "name": "SetDeployerEvent",
      "type": "event"
    },
    {
      "anonymous": false,
      "inputs": [
        {
          "indexed": false,
          "internalType": "contract DriipSettlementChallengeState",
          "name": "oldDriipSettlementChallengeState",
          "type": "address"
        },
        {
          "indexed": false,
          "internalType": "contract DriipSettlementChallengeState",
          "name": "newDriipSettlementChallengeState",
          "type": "address"
        }
      ],
      "name": "SetDriipSettlementChallengeStateEvent",
      "type": "event"
    },
    {
      "anonymous": false,
      "inputs": [
        {
          "indexed": false,
          "internalType": "contract DriipSettlementDisputeByPayment",
          "name": "oldDriipSettlementDisputeByPayment",
          "type": "address"
        },
        {
          "indexed": false,
          "internalType": "contract DriipSettlementDisputeByPayment",
          "name": "newDriipSettlementDisputeByPayment",
          "type": "address"
        }
      ],
      "name": "SetDriipSettlementDisputeByPaymentEvent",
      "type": "event"
    },
    {
      "anonymous": false,
      "inputs": [
        {
          "indexed": false,
          "internalType": "contract DriipSettlementState",
          "name": "oldDriipSettlementState",
          "type": "address"
        },
        {
          "indexed": false,
          "internalType": "contract DriipSettlementState",
          "name": "newDriipSettlementState",
          "type": "address"
        }
      ],
      "name": "SetDriipSettlementStateEvent",
      "type": "event"
    },
    {
      "anonymous": false,
      "inputs": [
        {
          "indexed": false,
          "internalType": "contract NullSettlementChallengeState",
          "name": "oldNullSettlementChallengeState",
          "type": "address"
        },
        {
          "indexed": false,
          "internalType": "contract NullSettlementChallengeState",
          "name": "newNullSettlementChallengeState",
          "type": "address"
        }
      ],
      "name": "SetNullSettlementChallengeStateEvent",
      "type": "event"
    },
    {
      "anonymous": false,
      "inputs": [
        {
          "indexed": false,
          "internalType": "address",
          "name": "oldOperator",
          "type": "address"
        },
        {
          "indexed": false,
          "internalType": "address",
          "name": "newOperator",
          "type": "address"
        }
      ],
      "name": "SetOperatorEvent",
      "type": "event"
    },
    {
      "anonymous": false,
      "inputs": [
        {
          "indexed": false,
          "internalType": "contract Validator",
          "name": "oldValidator",
          "type": "address"
        },
        {
          "indexed": false,
          "internalType": "contract Validator",
          "name": "newValidator",
          "type": "address"
        }
      ],
      "name": "SetValidatorEvent",
      "type": "event"
    },
    {
      "anonymous": false,
      "inputs": [
        {
          "indexed": false,
          "internalType": "contract WalletLocker",
          "name": "oldWalletLocker",
          "type": "address"
        },
        {
          "indexed": false,
          "internalType": "contract WalletLocker",
          "name": "newWalletLocker",
          "type": "address"
        }
      ],
      "name": "SetWalletLockerEvent",
      "type": "event"
    },
    {
      "anonymous": false,
      "inputs": [
        {
          "indexed": false,
          "internalType": "address",
          "name": "wallet",
          "type": "address"
        },
        {
          "indexed": false,
          "internalType": "uint256",
          "name": "nonce",
          "type": "uint256"
        },
        {
          "indexed": false,
          "internalType": "int256",
          "name": "cumulativeTransferAmount",
          "type": "int256"
        },
        {
          "indexed": false,
          "internalType": "int256",
          "name": "stageAmount",
          "type": "int256"
        },
        {
          "indexed": false,
          "internalType": "int256",
          "name": "targetBalanceAmount",
          "type": "int256"
        },
        {
          "indexed": false,
          "internalType": "address",
          "name": "currencyCt",
          "type": "address"
        },
        {
          "indexed": false,
          "internalType": "uint256",
          "name": "currencyId",
          "type": "uint256"
        },
        {
          "indexed": false,
          "internalType": "address",
          "name": "proxy",
          "type": "address"
        }
      ],
      "name": "StartChallengeFromPaymentByProxyEvent",
      "type": "event"
    },
    {
      "anonymous": false,
      "inputs": [
        {
          "indexed": false,
          "internalType": "address",
          "name": "wallet",
          "type": "address"
        },
        {
          "indexed": false,
          "internalType": "uint256",
          "name": "nonce",
          "type": "uint256"
        },
        {
          "indexed": false,
          "internalType": "int256",
          "name": "cumulativeTransferAmount",
          "type": "int256"
        },
        {
          "indexed": false,
          "internalType": "int256",
          "name": "stageAmount",
          "type": "int256"
        },
        {
          "indexed": false,
          "internalType": "int256",
          "name": "targetBalanceAmount",
          "type": "int256"
        },
        {
          "indexed": false,
          "internalType": "address",
          "name": "currencyCt",
          "type": "address"
        },
        {
          "indexed": false,
          "internalType": "uint256",
          "name": "currencyId",
          "type": "uint256"
        }
      ],
      "name": "StartChallengeFromPaymentEvent",
      "type": "event"
    },
    {
      "anonymous": false,
      "inputs": [
        {
          "indexed": false,
          "internalType": "address",
          "name": "wallet",
          "type": "address"
        },
        {
          "indexed": false,
          "internalType": "uint256",
          "name": "nonce",
          "type": "uint256"
        },
        {
          "indexed": false,
          "internalType": "int256",
          "name": "cumulativeTransferAmount",
          "type": "int256"
        },
        {
          "indexed": false,
          "internalType": "int256",
          "name": "stageAmount",
          "type": "int256"
        },
        {
          "indexed": false,
          "internalType": "int256",
          "name": "targetBalanceAmount",
          "type": "int256"
        },
        {
          "indexed": false,
          "internalType": "address",
          "name": "currencyCt",
          "type": "address"
        },
        {
          "indexed": false,
          "internalType": "uint256",
          "name": "currencyId",
          "type": "uint256"
        },
        {
          "indexed": false,
          "internalType": "address",
          "name": "proxy",
          "type": "address"
        }
      ],
      "name": "StopChallengeByProxyEvent",
      "type": "event"
    },
    {
      "anonymous": false,
      "inputs": [
        {
          "indexed": false,
          "internalType": "address",
          "name": "wallet",
          "type": "address"
        },
        {
          "indexed": false,
          "internalType": "uint256",
          "name": "nonce",
          "type": "uint256"
        },
        {
          "indexed": false,
          "internalType": "int256",
          "name": "cumulativeTransferAmount",
          "type": "int256"
        },
        {
          "indexed": false,
          "internalType": "int256",
          "name": "stageAmount",
          "type": "int256"
        },
        {
          "indexed": false,
          "internalType": "int256",
          "name": "targetBalanceAmount",
          "type": "int256"
        },
        {
          "indexed": false,
          "internalType": "address",
          "name": "currencyCt",
          "type": "address"
        },
        {
          "indexed": false,
          "internalType": "uint256",
          "name": "currencyId",
          "type": "uint256"
        }
      ],
      "name": "StopChallengeEvent",
      "type": "event"
    },
    {
      "anonymous": false,
      "inputs": [
        {
          "indexed": false,
          "internalType": "address",
          "name": "wallet",
          "type": "address"
        }
      ],
      "name": "TriggerSelfDestructionEvent",
      "type": "event"
    },
    {
      "constant": true,
      "inputs": [],
      "name": "balanceTracker",
      "outputs": [
        {
          "internalType": "contract BalanceTracker",
          "name": "",
          "type": "address"
        }
      ],
      "payable": false,
      "stateMutability": "view",
      "type": "function"
    },
    {
      "constant": true,
      "inputs": [],
      "name": "balanceTrackerFrozen",
      "outputs": [
        {
          "internalType": "bool",
          "name": "",
          "type": "bool"
        }
      ],
      "payable": false,
      "stateMutability": "view",
      "type": "function"
    },
    {
      "constant": true,
      "inputs": [],
      "name": "configuration",
      "outputs": [
        {
          "internalType": "contract Configuration",
          "name": "",
          "type": "address"
        }
      ],
      "payable": false,
      "stateMutability": "view",
      "type": "function"
    },
    {
      "constant": true,
      "inputs": [],
      "name": "deployer",
      "outputs": [
        {
          "internalType": "address",
          "name": "",
          "type": "address"
        }
      ],
      "payable": false,
      "stateMutability": "view",
      "type": "function"
    },
    {
      "constant": true,
      "inputs": [],
      "name": "destructor",
      "outputs": [
        {
          "internalType": "address",
          "name": "",
          "type": "address"
        }
      ],
      "payable": false,
      "stateMutability": "view",
      "type": "function"
    },
    {
      "constant": false,
      "inputs": [],
      "name": "disableSelfDestruction",
      "outputs": [],
      "payable": false,
      "stateMutability": "nonpayable",
      "type": "function"
    },
    {
      "constant": true,
      "inputs": [],
      "name": "driipSettlementChallengeState",
      "outputs": [
        {
          "internalType": "contract DriipSettlementChallengeState",
          "name": "",
          "type": "address"
        }
      ],
      "payable": false,
      "stateMutability": "view",
      "type": "function"
    },
    {
      "constant": true,
      "inputs": [],
      "name": "driipSettlementDisputeByPayment",
      "outputs": [
        {
          "internalType": "contract DriipSettlementDisputeByPayment",
          "name": "",
          "type": "address"
        }
      ],
      "payable": false,
      "stateMutability": "view",
      "type": "function"
    },
    {
      "constant": true,
      "inputs": [],
      "name": "driipSettlementState",
      "outputs": [
        {
          "internalType": "contract DriipSettlementState",
          "name": "",
          "type": "address"
        }
      ],
      "payable": false,
      "stateMutability": "view",
      "type": "function"
    },
    {
      "constant": false,
      "inputs": [],
      "name": "freezeBalanceTracker",
      "outputs": [],
      "payable": false,
      "stateMutability": "nonpayable",
      "type": "function"
    },
    {
      "constant": false,
      "inputs": [],
      "name": "freezeWalletLocker",
      "outputs": [],
      "payable": false,
      "stateMutability": "nonpayable",
      "type": "function"
    },
    {
      "constant": true,
      "inputs": [],
      "name": "nullSettlementChallengeState",
      "outputs": [
        {
          "internalType": "contract NullSettlementChallengeState",
          "name": "",
          "type": "address"
        }
      ],
      "payable": false,
      "stateMutability": "view",
      "type": "function"
    },
    {
      "constant": true,
      "inputs": [],
      "name": "operator",
      "outputs": [
        {
          "internalType": "address",
          "name": "",
          "type": "address"
        }
      ],
      "payable": false,
      "stateMutability": "view",
      "type": "function"
    },
    {
      "constant": true,
      "inputs": [],
      "name": "selfDestructionDisabled",
      "outputs": [
        {
          "internalType": "bool",
          "name": "",
          "type": "bool"
        }
      ],
      "payable": false,
      "stateMutability": "view",
      "type": "function"
    },
    {
      "constant": false,
      "inputs": [
        {
          "internalType": "contract BalanceTracker",
          "name": "newBalanceTracker",
          "type": "address"
        }
      ],
      "name": "setBalanceTracker",
      "outputs": [],
      "payable": false,
      "stateMutability": "nonpayable",
      "type": "function"
    },
    {
      "constant": false,
      "inputs": [
        {
          "internalType": "contract Configuration",
          "name": "newConfiguration",
          "type": "address"
        }
      ],
      "name": "setConfiguration",
      "outputs": [],
      "payable": false,
      "stateMutability": "nonpayable",
      "type": "function"
    },
    {
      "constant": false,
      "inputs": [
        {
          "internalType": "address",
          "name": "newDeployer",
          "type": "address"
        }
      ],
      "name": "setDeployer",
      "outputs": [],
      "payable": false,
      "stateMutability": "nonpayable",
      "type": "function"
    },
    {
      "constant": false,
      "inputs": [
        {
          "internalType": "address",
          "name": "newOperator",
          "type": "address"
        }
      ],
      "name": "setOperator",
      "outputs": [],
      "payable": false,
      "stateMutability": "nonpayable",
      "type": "function"
    },
    {
      "constant": false,
      "inputs": [
        {
          "internalType": "contract Validator",
          "name": "newValidator",
          "type": "address"
        }
      ],
      "name": "setValidator",
      "outputs": [],
      "payable": false,
      "stateMutability": "nonpayable",
      "type": "function"
    },
    {
      "constant": false,
      "inputs": [
        {
          "internalType": "contract WalletLocker",
          "name": "newWalletLocker",
          "type": "address"
        }
      ],
      "name": "setWalletLocker",
      "outputs": [],
      "payable": false,
      "stateMutability": "nonpayable",
      "type": "function"
    },
    {
      "constant": false,
      "inputs": [],
      "name": "triggerSelfDestruction",
      "outputs": [],
      "payable": false,
      "stateMutability": "nonpayable",
      "type": "function"
    },
    {
      "constant": true,
      "inputs": [],
      "name": "validator",
      "outputs": [
        {
          "internalType": "contract Validator",
          "name": "",
          "type": "address"
        }
      ],
      "payable": false,
      "stateMutability": "view",
      "type": "function"
    },
    {
      "constant": true,
      "inputs": [],
      "name": "walletLocker",
      "outputs": [
        {
          "internalType": "contract WalletLocker",
          "name": "",
          "type": "address"
        }
      ],
      "payable": false,
      "stateMutability": "view",
      "type": "function"
    },
    {
      "constant": true,
      "inputs": [],
      "name": "walletLockerFrozen",
      "outputs": [
        {
          "internalType": "bool",
          "name": "",
          "type": "bool"
        }
      ],
      "payable": false,
      "stateMutability": "view",
      "type": "function"
    },
    {
      "constant": false,
      "inputs": [
        {
          "internalType": "contract DriipSettlementDisputeByPayment",
          "name": "newDriipSettlementDisputeByPayment",
          "type": "address"
        }
      ],
      "name": "setDriipSettlementDisputeByPayment",
      "outputs": [],
      "payable": false,
      "stateMutability": "nonpayable",
      "type": "function"
    },
    {
      "constant": false,
      "inputs": [
        {
          "internalType": "contract DriipSettlementChallengeState",
          "name": "newDriipSettlementChallengeState",
          "type": "address"
        }
      ],
      "name": "setDriipSettlementChallengeState",
      "outputs": [],
      "payable": false,
      "stateMutability": "nonpayable",
      "type": "function"
    },
    {
      "constant": false,
      "inputs": [
        {
          "internalType": "contract NullSettlementChallengeState",
          "name": "newNullSettlementChallengeState",
          "type": "address"
        }
      ],
      "name": "setNullSettlementChallengeState",
      "outputs": [],
      "payable": false,
      "stateMutability": "nonpayable",
      "type": "function"
    },
    {
      "constant": false,
      "inputs": [
        {
          "internalType": "contract DriipSettlementState",
          "name": "newDriipSettlementState",
          "type": "address"
        }
      ],
      "name": "setDriipSettlementState",
      "outputs": [],
      "payable": false,
      "stateMutability": "nonpayable",
      "type": "function"
    },
    {
      "constant": false,
      "inputs": [
        {
          "components": [
            {
              "internalType": "int256",
              "name": "amount",
              "type": "int256"
            },
            {
              "components": [
                {
                  "internalType": "address",
                  "name": "ct",
                  "type": "address"
                },
                {
                  "internalType": "uint256",
                  "name": "id",
                  "type": "uint256"
                }
              ],
              "internalType": "struct MonetaryTypesLib.Currency",
              "name": "currency",
              "type": "tuple"
            },
            {
              "components": [
                {
                  "internalType": "uint256",
                  "name": "nonce",
                  "type": "uint256"
                },
                {
                  "internalType": "address",
                  "name": "wallet",
                  "type": "address"
                },
                {
                  "components": [
                    {
                      "internalType": "int256",
                      "name": "current",
                      "type": "int256"
                    },
                    {
                      "internalType": "int256",
                      "name": "previous",
                      "type": "int256"
                    }
                  ],
                  "internalType": "struct NahmiiTypesLib.CurrentPreviousInt256",
                  "name": "balances",
                  "type": "tuple"
                },
                {
                  "components": [
                    {
                      "components": [
                        {
                          "internalType": "int256",
                          "name": "amount",
                          "type": "int256"
                        },
                        {
                          "components": [
                            {
                              "internalType": "address",
                              "name": "ct",
                              "type": "address"
                            },
                            {
                              "internalType": "uint256",
                              "name": "id",
                              "type": "uint256"
                            }
                          ],
                          "internalType": "struct MonetaryTypesLib.Currency",
                          "name": "currency",
                          "type": "tuple"
                        }
                      ],
                      "internalType": "struct MonetaryTypesLib.Figure",
                      "name": "single",
                      "type": "tuple"
                    },
                    {
                      "components": [
                        {
                          "internalType": "uint256",
                          "name": "originId",
                          "type": "uint256"
                        },
                        {
                          "components": [
                            {
                              "internalType": "int256",
                              "name": "amount",
                              "type": "int256"
                            },
                            {
                              "components": [
                                {
                                  "internalType": "address",
                                  "name": "ct",
                                  "type": "address"
                                },
                                {
                                  "internalType": "uint256",
                                  "name": "id",
                                  "type": "uint256"
                                }
                              ],
                              "internalType": "struct MonetaryTypesLib.Currency",
                              "name": "currency",
                              "type": "tuple"
                            }
                          ],
                          "internalType": "struct MonetaryTypesLib.Figure",
                          "name": "figure",
                          "type": "tuple"
                        }
                      ],
                      "internalType": "struct NahmiiTypesLib.OriginFigure[]",
                      "name": "total",
                      "type": "tuple[]"
                    }
                  ],
                  "internalType": "struct NahmiiTypesLib.SingleFigureTotalOriginFigures",
                  "name": "fees",
                  "type": "tuple"
                },
                {
                  "internalType": "string",
                  "name": "data",
                  "type": "string"
                }
              ],
              "internalType": "struct PaymentTypesLib.PaymentSenderParty",
              "name": "sender",
              "type": "tuple"
            },
            {
              "components": [
                {
                  "internalType": "uint256",
                  "name": "nonce",
                  "type": "uint256"
                },
                {
                  "internalType": "address",
                  "name": "wallet",
                  "type": "address"
                },
                {
                  "components": [
                    {
                      "internalType": "int256",
                      "name": "current",
                      "type": "int256"
                    },
                    {
                      "internalType": "int256",
                      "name": "previous",
                      "type": "int256"
                    }
                  ],
                  "internalType": "struct NahmiiTypesLib.CurrentPreviousInt256",
                  "name": "balances",
                  "type": "tuple"
                },
                {
                  "components": [
                    {
                      "components": [
                        {
                          "internalType": "uint256",
                          "name": "originId",
                          "type": "uint256"
                        },
                        {
                          "components": [
                            {
                              "internalType": "int256",
                              "name": "amount",
                              "type": "int256"
                            },
                            {
                              "components": [
                                {
                                  "internalType": "address",
                                  "name": "ct",
                                  "type": "address"
                                },
                                {
                                  "internalType": "uint256",
                                  "name": "id",
                                  "type": "uint256"
                                }
                              ],
                              "internalType": "struct MonetaryTypesLib.Currency",
                              "name": "currency",
                              "type": "tuple"
                            }
                          ],
                          "internalType": "struct MonetaryTypesLib.Figure",
                          "name": "figure",
                          "type": "tuple"
                        }
                      ],
                      "internalType": "struct NahmiiTypesLib.OriginFigure[]",
                      "name": "total",
                      "type": "tuple[]"
                    }
                  ],
                  "internalType": "struct NahmiiTypesLib.TotalOriginFigures",
                  "name": "fees",
                  "type": "tuple"
                }
              ],
              "internalType": "struct PaymentTypesLib.PaymentRecipientParty",
              "name": "recipient",
              "type": "tuple"
            },
            {
              "components": [
                {
                  "internalType": "int256",
                  "name": "single",
                  "type": "int256"
                },
                {
                  "internalType": "int256",
                  "name": "total",
                  "type": "int256"
                }
              ],
              "internalType": "struct NahmiiTypesLib.SingleTotalInt256",
              "name": "transfers",
              "type": "tuple"
            },
            {
              "components": [
                {
                  "components": [
                    {
                      "internalType": "bytes32",
                      "name": "hash",
                      "type": "bytes32"
                    },
                    {
                      "components": [
                        {
                          "internalType": "bytes32",
                          "name": "r",
                          "type": "bytes32"
                        },
                        {
                          "internalType": "bytes32",
                          "name": "s",
                          "type": "bytes32"
                        },
                        {
                          "internalType": "uint8",
                          "name": "v",
                          "type": "uint8"
                        }
                      ],
                      "internalType": "struct NahmiiTypesLib.Signature",
                      "name": "signature",
                      "type": "tuple"
                    }
                  ],
                  "internalType": "struct NahmiiTypesLib.Seal",
                  "name": "wallet",
                  "type": "tuple"
                },
                {
                  "components": [
                    {
                      "internalType": "bytes32",
                      "name": "hash",
                      "type": "bytes32"
                    },
                    {
                      "components": [
                        {
                          "internalType": "bytes32",
                          "name": "r",
                          "type": "bytes32"
                        },
                        {
                          "internalType": "bytes32",
                          "name": "s",
                          "type": "bytes32"
                        },
                        {
                          "internalType": "uint8",
                          "name": "v",
                          "type": "uint8"
                        }
                      ],
                      "internalType": "struct NahmiiTypesLib.Signature",
                      "name": "signature",
                      "type": "tuple"
                    }
                  ],
                  "internalType": "struct NahmiiTypesLib.Seal",
                  "name": "operator",
                  "type": "tuple"
                }
              ],
              "internalType": "struct NahmiiTypesLib.WalletOperatorSeal",
              "name": "seals",
              "type": "tuple"
            },
            {
              "internalType": "uint256",
              "name": "blockNumber",
              "type": "uint256"
            },
            {
              "components": [
                {
                  "internalType": "uint256",
                  "name": "id",
                  "type": "uint256"
                },
                {
                  "internalType": "string",
                  "name": "data",
                  "type": "string"
                }
              ],
              "internalType": "struct PaymentTypesLib.Operator",
              "name": "operator",
              "type": "tuple"
            }
          ],
          "internalType": "struct PaymentTypesLib.Payment",
          "name": "payment",
          "type": "tuple"
        },
        {
          "internalType": "int256",
          "name": "stageAmount",
          "type": "int256"
        }
      ],
      "name": "startChallengeFromPayment",
      "outputs": [],
      "payable": false,
      "stateMutability": "nonpayable",
      "type": "function"
    },
    {
      "constant": false,
      "inputs": [
        {
          "internalType": "address",
          "name": "wallet",
          "type": "address"
        },
        {
          "components": [
            {
              "internalType": "int256",
              "name": "amount",
              "type": "int256"
            },
            {
              "components": [
                {
                  "internalType": "address",
                  "name": "ct",
                  "type": "address"
                },
                {
                  "internalType": "uint256",
                  "name": "id",
                  "type": "uint256"
                }
              ],
              "internalType": "struct MonetaryTypesLib.Currency",
              "name": "currency",
              "type": "tuple"
            },
            {
              "components": [
                {
                  "internalType": "uint256",
                  "name": "nonce",
                  "type": "uint256"
                },
                {
                  "internalType": "address",
                  "name": "wallet",
                  "type": "address"
                },
                {
                  "components": [
                    {
                      "internalType": "int256",
                      "name": "current",
                      "type": "int256"
                    },
                    {
                      "internalType": "int256",
                      "name": "previous",
                      "type": "int256"
                    }
                  ],
                  "internalType": "struct NahmiiTypesLib.CurrentPreviousInt256",
                  "name": "balances",
                  "type": "tuple"
                },
                {
                  "components": [
                    {
                      "components": [
                        {
                          "internalType": "int256",
                          "name": "amount",
                          "type": "int256"
                        },
                        {
                          "components": [
                            {
                              "internalType": "address",
                              "name": "ct",
                              "type": "address"
                            },
                            {
                              "internalType": "uint256",
                              "name": "id",
                              "type": "uint256"
                            }
                          ],
                          "internalType": "struct MonetaryTypesLib.Currency",
                          "name": "currency",
                          "type": "tuple"
                        }
                      ],
                      "internalType": "struct MonetaryTypesLib.Figure",
                      "name": "single",
                      "type": "tuple"
                    },
                    {
                      "components": [
                        {
                          "internalType": "uint256",
                          "name": "originId",
                          "type": "uint256"
                        },
                        {
                          "components": [
                            {
                              "internalType": "int256",
                              "name": "amount",
                              "type": "int256"
                            },
                            {
                              "components": [
                                {
                                  "internalType": "address",
                                  "name": "ct",
                                  "type": "address"
                                },
                                {
                                  "internalType": "uint256",
                                  "name": "id",
                                  "type": "uint256"
                                }
                              ],
                              "internalType": "struct MonetaryTypesLib.Currency",
                              "name": "currency",
                              "type": "tuple"
                            }
                          ],
                          "internalType": "struct MonetaryTypesLib.Figure",
                          "name": "figure",
                          "type": "tuple"
                        }
                      ],
                      "internalType": "struct NahmiiTypesLib.OriginFigure[]",
                      "name": "total",
                      "type": "tuple[]"
                    }
                  ],
                  "internalType": "struct NahmiiTypesLib.SingleFigureTotalOriginFigures",
                  "name": "fees",
                  "type": "tuple"
                },
                {
                  "internalType": "string",
                  "name": "data",
                  "type": "string"
                }
              ],
              "internalType": "struct PaymentTypesLib.PaymentSenderParty",
              "name": "sender",
              "type": "tuple"
            },
            {
              "components": [
                {
                  "internalType": "uint256",
                  "name": "nonce",
                  "type": "uint256"
                },
                {
                  "internalType": "address",
                  "name": "wallet",
                  "type": "address"
                },
                {
                  "components": [
                    {
                      "internalType": "int256",
                      "name": "current",
                      "type": "int256"
                    },
                    {
                      "internalType": "int256",
                      "name": "previous",
                      "type": "int256"
                    }
                  ],
                  "internalType": "struct NahmiiTypesLib.CurrentPreviousInt256",
                  "name": "balances",
                  "type": "tuple"
                },
                {
                  "components": [
                    {
                      "components": [
                        {
                          "internalType": "uint256",
                          "name": "originId",
                          "type": "uint256"
                        },
                        {
                          "components": [
                            {
                              "internalType": "int256",
                              "name": "amount",
                              "type": "int256"
                            },
                            {
                              "components": [
                                {
                                  "internalType": "address",
                                  "name": "ct",
                                  "type": "address"
                                },
                                {
                                  "internalType": "uint256",
                                  "name": "id",
                                  "type": "uint256"
                                }
                              ],
                              "internalType": "struct MonetaryTypesLib.Currency",
                              "name": "currency",
                              "type": "tuple"
                            }
                          ],
                          "internalType": "struct MonetaryTypesLib.Figure",
                          "name": "figure",
                          "type": "tuple"
                        }
                      ],
                      "internalType": "struct NahmiiTypesLib.OriginFigure[]",
                      "name": "total",
                      "type": "tuple[]"
                    }
                  ],
                  "internalType": "struct NahmiiTypesLib.TotalOriginFigures",
                  "name": "fees",
                  "type": "tuple"
                }
              ],
              "internalType": "struct PaymentTypesLib.PaymentRecipientParty",
              "name": "recipient",
              "type": "tuple"
            },
            {
              "components": [
                {
                  "internalType": "int256",
                  "name": "single",
                  "type": "int256"
                },
                {
                  "internalType": "int256",
                  "name": "total",
                  "type": "int256"
                }
              ],
              "internalType": "struct NahmiiTypesLib.SingleTotalInt256",
              "name": "transfers",
              "type": "tuple"
            },
            {
              "components": [
                {
                  "components": [
                    {
                      "internalType": "bytes32",
                      "name": "hash",
                      "type": "bytes32"
                    },
                    {
                      "components": [
                        {
                          "internalType": "bytes32",
                          "name": "r",
                          "type": "bytes32"
                        },
                        {
                          "internalType": "bytes32",
                          "name": "s",
                          "type": "bytes32"
                        },
                        {
                          "internalType": "uint8",
                          "name": "v",
                          "type": "uint8"
                        }
                      ],
                      "internalType": "struct NahmiiTypesLib.Signature",
                      "name": "signature",
                      "type": "tuple"
                    }
                  ],
                  "internalType": "struct NahmiiTypesLib.Seal",
                  "name": "wallet",
                  "type": "tuple"
                },
                {
                  "components": [
                    {
                      "internalType": "bytes32",
                      "name": "hash",
                      "type": "bytes32"
                    },
                    {
                      "components": [
                        {
                          "internalType": "bytes32",
                          "name": "r",
                          "type": "bytes32"
                        },
                        {
                          "internalType": "bytes32",
                          "name": "s",
                          "type": "bytes32"
                        },
                        {
                          "internalType": "uint8",
                          "name": "v",
                          "type": "uint8"
                        }
                      ],
                      "internalType": "struct NahmiiTypesLib.Signature",
                      "name": "signature",
                      "type": "tuple"
                    }
                  ],
                  "internalType": "struct NahmiiTypesLib.Seal",
                  "name": "operator",
                  "type": "tuple"
                }
              ],
              "internalType": "struct NahmiiTypesLib.WalletOperatorSeal",
              "name": "seals",
              "type": "tuple"
            },
            {
              "internalType": "uint256",
              "name": "blockNumber",
              "type": "uint256"
            },
            {
              "components": [
                {
                  "internalType": "uint256",
                  "name": "id",
                  "type": "uint256"
                },
                {
                  "internalType": "string",
                  "name": "data",
                  "type": "string"
                }
              ],
              "internalType": "struct PaymentTypesLib.Operator",
              "name": "operator",
              "type": "tuple"
            }
          ],
          "internalType": "struct PaymentTypesLib.Payment",
          "name": "payment",
          "type": "tuple"
        },
        {
          "internalType": "int256",
          "name": "stageAmount",
          "type": "int256"
        }
      ],
      "name": "startChallengeFromPaymentByProxy",
      "outputs": [],
      "payable": false,
      "stateMutability": "nonpayable",
      "type": "function"
    },
    {
      "constant": false,
      "inputs": [
        {
          "internalType": "address",
          "name": "currencyCt",
          "type": "address"
        },
        {
          "internalType": "uint256",
          "name": "currencyId",
          "type": "uint256"
        }
      ],
      "name": "stopChallenge",
      "outputs": [],
      "payable": false,
      "stateMutability": "nonpayable",
      "type": "function"
    },
    {
      "constant": false,
      "inputs": [
        {
          "internalType": "address",
          "name": "wallet",
          "type": "address"
        },
        {
          "internalType": "address",
          "name": "currencyCt",
          "type": "address"
        },
        {
          "internalType": "uint256",
          "name": "currencyId",
          "type": "uint256"
        }
      ],
      "name": "stopChallengeByProxy",
      "outputs": [],
      "payable": false,
      "stateMutability": "nonpayable",
      "type": "function"
    },
    {
      "constant": true,
      "inputs": [
        {
          "internalType": "address",
          "name": "wallet",
          "type": "address"
        },
        {
          "internalType": "address",
          "name": "currencyCt",
          "type": "address"
        },
        {
          "internalType": "uint256",
          "name": "currencyId",
          "type": "uint256"
        }
      ],
      "name": "hasProposal",
      "outputs": [
        {
          "internalType": "bool",
          "name": "",
          "type": "bool"
        }
      ],
      "payable": false,
      "stateMutability": "view",
      "type": "function"
    },
    {
      "constant": true,
      "inputs": [
        {
          "internalType": "address",
          "name": "wallet",
          "type": "address"
        },
        {
          "internalType": "address",
          "name": "currencyCt",
          "type": "address"
        },
        {
          "internalType": "uint256",
          "name": "currencyId",
          "type": "uint256"
        }
      ],
      "name": "hasProposalTerminated",
      "outputs": [
        {
          "internalType": "bool",
          "name": "",
          "type": "bool"
        }
      ],
      "payable": false,
      "stateMutability": "view",
      "type": "function"
    },
    {
      "constant": true,
      "inputs": [
        {
          "internalType": "address",
          "name": "wallet",
          "type": "address"
        },
        {
          "internalType": "address",
          "name": "currencyCt",
          "type": "address"
        },
        {
          "internalType": "uint256",
          "name": "currencyId",
          "type": "uint256"
        }
      ],
      "name": "hasProposalExpired",
      "outputs": [
        {
          "internalType": "bool",
          "name": "",
          "type": "bool"
        }
      ],
      "payable": false,
      "stateMutability": "view",
      "type": "function"
    },
    {
      "constant": true,
      "inputs": [
        {
          "internalType": "address",
          "name": "wallet",
          "type": "address"
        },
        {
          "internalType": "address",
          "name": "currencyCt",
          "type": "address"
        },
        {
          "internalType": "uint256",
          "name": "currencyId",
          "type": "uint256"
        }
      ],
      "name": "proposalNonce",
      "outputs": [
        {
          "internalType": "uint256",
          "name": "",
          "type": "uint256"
        }
      ],
      "payable": false,
      "stateMutability": "view",
      "type": "function"
    },
    {
      "constant": true,
      "inputs": [
        {
          "internalType": "address",
          "name": "wallet",
          "type": "address"
        },
        {
          "internalType": "address",
          "name": "currencyCt",
          "type": "address"
        },
        {
          "internalType": "uint256",
          "name": "currencyId",
          "type": "uint256"
        }
      ],
      "name": "proposalReferenceBlockNumber",
      "outputs": [
        {
          "internalType": "uint256",
          "name": "",
          "type": "uint256"
        }
      ],
      "payable": false,
      "stateMutability": "view",
      "type": "function"
    },
    {
      "constant": true,
      "inputs": [
        {
          "internalType": "address",
          "name": "wallet",
          "type": "address"
        },
        {
          "internalType": "address",
          "name": "currencyCt",
          "type": "address"
        },
        {
          "internalType": "uint256",
          "name": "currencyId",
          "type": "uint256"
        }
      ],
      "name": "proposalExpirationTime",
      "outputs": [
        {
          "internalType": "uint256",
          "name": "",
          "type": "uint256"
        }
      ],
      "payable": false,
      "stateMutability": "view",
      "type": "function"
    },
    {
      "constant": true,
      "inputs": [
        {
          "internalType": "address",
          "name": "wallet",
          "type": "address"
        },
        {
          "internalType": "address",
          "name": "currencyCt",
          "type": "address"
        },
        {
          "internalType": "uint256",
          "name": "currencyId",
          "type": "uint256"
        }
      ],
      "name": "proposalStatus",
      "outputs": [
        {
          "internalType": "enum SettlementChallengeTypesLib.Status",
          "name": "",
          "type": "uint8"
        }
      ],
      "payable": false,
      "stateMutability": "view",
      "type": "function"
    },
    {
      "constant": true,
      "inputs": [
        {
          "internalType": "address",
          "name": "wallet",
          "type": "address"
        },
        {
          "internalType": "address",
          "name": "currencyCt",
          "type": "address"
        },
        {
          "internalType": "uint256",
          "name": "currencyId",
          "type": "uint256"
        }
      ],
      "name": "proposalStageAmount",
      "outputs": [
        {
          "internalType": "int256",
          "name": "",
          "type": "int256"
        }
      ],
      "payable": false,
      "stateMutability": "view",
      "type": "function"
    },
    {
      "constant": true,
      "inputs": [
        {
          "internalType": "address",
          "name": "wallet",
          "type": "address"
        },
        {
          "internalType": "address",
          "name": "currencyCt",
          "type": "address"
        },
        {
          "internalType": "uint256",
          "name": "currencyId",
          "type": "uint256"
        }
      ],
      "name": "proposalTargetBalanceAmount",
      "outputs": [
        {
          "internalType": "int256",
          "name": "",
          "type": "int256"
        }
      ],
      "payable": false,
      "stateMutability": "view",
      "type": "function"
    },
    {
      "constant": true,
      "inputs": [
        {
          "internalType": "address",
          "name": "wallet",
          "type": "address"
        },
        {
          "internalType": "address",
          "name": "currencyCt",
          "type": "address"
        },
        {
          "internalType": "uint256",
          "name": "currencyId",
          "type": "uint256"
        }
      ],
      "name": "proposalChallengedHash",
      "outputs": [
        {
          "internalType": "bytes32",
          "name": "",
          "type": "bytes32"
        }
      ],
      "payable": false,
      "stateMutability": "view",
      "type": "function"
    },
    {
      "constant": true,
      "inputs": [
        {
          "internalType": "address",
          "name": "wallet",
          "type": "address"
        },
        {
          "internalType": "address",
          "name": "currencyCt",
          "type": "address"
        },
        {
          "internalType": "uint256",
          "name": "currencyId",
          "type": "uint256"
        }
      ],
      "name": "proposalChallengedKind",
      "outputs": [
        {
          "internalType": "string",
          "name": "",
          "type": "string"
        }
      ],
      "payable": false,
      "stateMutability": "view",
      "type": "function"
    },
    {
      "constant": true,
      "inputs": [
        {
          "internalType": "address",
          "name": "wallet",
          "type": "address"
        },
        {
          "internalType": "address",
          "name": "currencyCt",
          "type": "address"
        },
        {
          "internalType": "uint256",
          "name": "currencyId",
          "type": "uint256"
        }
      ],
      "name": "proposalWalletInitiated",
      "outputs": [
        {
          "internalType": "bool",
          "name": "",
          "type": "bool"
        }
      ],
      "payable": false,
      "stateMutability": "view",
      "type": "function"
    },
    {
      "constant": true,
      "inputs": [
        {
          "internalType": "address",
          "name": "wallet",
          "type": "address"
        },
        {
          "internalType": "address",
          "name": "currencyCt",
          "type": "address"
        },
        {
          "internalType": "uint256",
          "name": "currencyId",
          "type": "uint256"
        }
      ],
      "name": "proposalDisqualificationChallenger",
      "outputs": [
        {
          "internalType": "address",
          "name": "",
          "type": "address"
        }
      ],
      "payable": false,
      "stateMutability": "view",
      "type": "function"
    },
    {
      "constant": true,
      "inputs": [
        {
          "internalType": "address",
          "name": "wallet",
          "type": "address"
        },
        {
          "internalType": "address",
          "name": "currencyCt",
          "type": "address"
        },
        {
          "internalType": "uint256",
          "name": "currencyId",
          "type": "uint256"
        }
      ],
      "name": "proposalDisqualificationBlockNumber",
      "outputs": [
        {
          "internalType": "uint256",
          "name": "",
          "type": "uint256"
        }
      ],
      "payable": false,
      "stateMutability": "view",
      "type": "function"
    },
    {
      "constant": true,
      "inputs": [
        {
          "internalType": "address",
          "name": "wallet",
          "type": "address"
        },
        {
          "internalType": "address",
          "name": "currencyCt",
          "type": "address"
        },
        {
          "internalType": "uint256",
          "name": "currencyId",
          "type": "uint256"
        }
      ],
      "name": "proposalDisqualificationCandidateKind",
      "outputs": [
        {
          "internalType": "string",
          "name": "",
          "type": "string"
        }
      ],
      "payable": false,
      "stateMutability": "view",
      "type": "function"
    },
    {
      "constant": true,
      "inputs": [
        {
          "internalType": "address",
          "name": "wallet",
          "type": "address"
        },
        {
          "internalType": "address",
          "name": "currencyCt",
          "type": "address"
        },
        {
          "internalType": "uint256",
          "name": "currencyId",
          "type": "uint256"
        }
      ],
      "name": "proposalDisqualificationCandidateHash",
      "outputs": [
        {
          "internalType": "bytes32",
          "name": "",
          "type": "bytes32"
        }
      ],
      "payable": false,
      "stateMutability": "view",
      "type": "function"
    },
    {
      "constant": false,
      "inputs": [
        {
          "internalType": "address",
          "name": "wallet",
          "type": "address"
        },
        {
          "components": [
            {
              "internalType": "int256",
              "name": "amount",
              "type": "int256"
            },
            {
              "components": [
                {
                  "internalType": "address",
                  "name": "ct",
                  "type": "address"
                },
                {
                  "internalType": "uint256",
                  "name": "id",
                  "type": "uint256"
                }
              ],
              "internalType": "struct MonetaryTypesLib.Currency",
              "name": "currency",
              "type": "tuple"
            },
            {
              "components": [
                {
                  "internalType": "uint256",
                  "name": "nonce",
                  "type": "uint256"
                },
                {
                  "internalType": "address",
                  "name": "wallet",
                  "type": "address"
                },
                {
                  "components": [
                    {
                      "internalType": "int256",
                      "name": "current",
                      "type": "int256"
                    },
                    {
                      "internalType": "int256",
                      "name": "previous",
                      "type": "int256"
                    }
                  ],
                  "internalType": "struct NahmiiTypesLib.CurrentPreviousInt256",
                  "name": "balances",
                  "type": "tuple"
                },
                {
                  "components": [
                    {
                      "components": [
                        {
                          "internalType": "int256",
                          "name": "amount",
                          "type": "int256"
                        },
                        {
                          "components": [
                            {
                              "internalType": "address",
                              "name": "ct",
                              "type": "address"
                            },
                            {
                              "internalType": "uint256",
                              "name": "id",
                              "type": "uint256"
                            }
                          ],
                          "internalType": "struct MonetaryTypesLib.Currency",
                          "name": "currency",
                          "type": "tuple"
                        }
                      ],
                      "internalType": "struct MonetaryTypesLib.Figure",
                      "name": "single",
                      "type": "tuple"
                    },
                    {
                      "components": [
                        {
                          "internalType": "uint256",
                          "name": "originId",
                          "type": "uint256"
                        },
                        {
                          "components": [
                            {
                              "internalType": "int256",
                              "name": "amount",
                              "type": "int256"
                            },
                            {
                              "components": [
                                {
                                  "internalType": "address",
                                  "name": "ct",
                                  "type": "address"
                                },
                                {
                                  "internalType": "uint256",
                                  "name": "id",
                                  "type": "uint256"
                                }
                              ],
                              "internalType": "struct MonetaryTypesLib.Currency",
                              "name": "currency",
                              "type": "tuple"
                            }
                          ],
                          "internalType": "struct MonetaryTypesLib.Figure",
                          "name": "figure",
                          "type": "tuple"
                        }
                      ],
                      "internalType": "struct NahmiiTypesLib.OriginFigure[]",
                      "name": "total",
                      "type": "tuple[]"
                    }
                  ],
                  "internalType": "struct NahmiiTypesLib.SingleFigureTotalOriginFigures",
                  "name": "fees",
                  "type": "tuple"
                },
                {
                  "internalType": "string",
                  "name": "data",
                  "type": "string"
                }
              ],
              "internalType": "struct PaymentTypesLib.PaymentSenderParty",
              "name": "sender",
              "type": "tuple"
            },
            {
              "components": [
                {
                  "internalType": "uint256",
                  "name": "nonce",
                  "type": "uint256"
                },
                {
                  "internalType": "address",
                  "name": "wallet",
                  "type": "address"
                },
                {
                  "components": [
                    {
                      "internalType": "int256",
                      "name": "current",
                      "type": "int256"
                    },
                    {
                      "internalType": "int256",
                      "name": "previous",
                      "type": "int256"
                    }
                  ],
                  "internalType": "struct NahmiiTypesLib.CurrentPreviousInt256",
                  "name": "balances",
                  "type": "tuple"
                },
                {
                  "components": [
                    {
                      "components": [
                        {
                          "internalType": "uint256",
                          "name": "originId",
                          "type": "uint256"
                        },
                        {
                          "components": [
                            {
                              "internalType": "int256",
                              "name": "amount",
                              "type": "int256"
                            },
                            {
                              "components": [
                                {
                                  "internalType": "address",
                                  "name": "ct",
                                  "type": "address"
                                },
                                {
                                  "internalType": "uint256",
                                  "name": "id",
                                  "type": "uint256"
                                }
                              ],
                              "internalType": "struct MonetaryTypesLib.Currency",
                              "name": "currency",
                              "type": "tuple"
                            }
                          ],
                          "internalType": "struct MonetaryTypesLib.Figure",
                          "name": "figure",
                          "type": "tuple"
                        }
                      ],
                      "internalType": "struct NahmiiTypesLib.OriginFigure[]",
                      "name": "total",
                      "type": "tuple[]"
                    }
                  ],
                  "internalType": "struct NahmiiTypesLib.TotalOriginFigures",
                  "name": "fees",
                  "type": "tuple"
                }
              ],
              "internalType": "struct PaymentTypesLib.PaymentRecipientParty",
              "name": "recipient",
              "type": "tuple"
            },
            {
              "components": [
                {
                  "internalType": "int256",
                  "name": "single",
                  "type": "int256"
                },
                {
                  "internalType": "int256",
                  "name": "total",
                  "type": "int256"
                }
              ],
              "internalType": "struct NahmiiTypesLib.SingleTotalInt256",
              "name": "transfers",
              "type": "tuple"
            },
            {
              "components": [
                {
                  "components": [
                    {
                      "internalType": "bytes32",
                      "name": "hash",
                      "type": "bytes32"
                    },
                    {
                      "components": [
                        {
                          "internalType": "bytes32",
                          "name": "r",
                          "type": "bytes32"
                        },
                        {
                          "internalType": "bytes32",
                          "name": "s",
                          "type": "bytes32"
                        },
                        {
                          "internalType": "uint8",
                          "name": "v",
                          "type": "uint8"
                        }
                      ],
                      "internalType": "struct NahmiiTypesLib.Signature",
                      "name": "signature",
                      "type": "tuple"
                    }
                  ],
                  "internalType": "struct NahmiiTypesLib.Seal",
                  "name": "wallet",
                  "type": "tuple"
                },
                {
                  "components": [
                    {
                      "internalType": "bytes32",
                      "name": "hash",
                      "type": "bytes32"
                    },
                    {
                      "components": [
                        {
                          "internalType": "bytes32",
                          "name": "r",
                          "type": "bytes32"
                        },
                        {
                          "internalType": "bytes32",
                          "name": "s",
                          "type": "bytes32"
                        },
                        {
                          "internalType": "uint8",
                          "name": "v",
                          "type": "uint8"
                        }
                      ],
                      "internalType": "struct NahmiiTypesLib.Signature",
                      "name": "signature",
                      "type": "tuple"
                    }
                  ],
                  "internalType": "struct NahmiiTypesLib.Seal",
                  "name": "operator",
                  "type": "tuple"
                }
              ],
              "internalType": "struct NahmiiTypesLib.WalletOperatorSeal",
              "name": "seals",
              "type": "tuple"
            },
            {
              "internalType": "uint256",
              "name": "blockNumber",
              "type": "uint256"
            },
            {
              "components": [
                {
                  "internalType": "uint256",
                  "name": "id",
                  "type": "uint256"
                },
                {
                  "internalType": "string",
                  "name": "data",
                  "type": "string"
                }
              ],
              "internalType": "struct PaymentTypesLib.Operator",
              "name": "operator",
              "type": "tuple"
            }
          ],
          "internalType": "struct PaymentTypesLib.Payment",
          "name": "payment",
          "type": "tuple"
        }
      ],
      "name": "challengeByPayment",
      "outputs": [],
      "payable": false,
      "stateMutability": "nonpayable",
      "type": "function"
    }
  ],
  "bytecode": "0x60806040523480156200001157600080fd5b506040516200490c3803806200490c8339810160408190526200003491620000b3565b80806001600160a01b0381166200004a57600080fd5b6001600160a01b0381163014156200006157600080fd5b5060008054610100600160a81b0319166101006001600160a01b0393909316928302179055600180546001600160a01b03191690911790555062000108565b8051620000ad81620000ee565b92915050565b600060208284031215620000c657600080fd5b6000620000d48484620000a0565b949350505050565b60006001600160a01b038216620000ad565b620000f981620000dc565b81146200010557600080fd5b50565b6147f480620001186000396000f3fe608060405234801561001057600080fd5b506004361061023b5760003560e01c8063039b9fb1146102405780630712abb0146102695780630fa6f23d146102895780631327d3d81461029e57806316987929146102b357806319139092146102d3578063240625d8146102db57806325c84441146102f05780632738a112146102f85780632aa1c9d9146103005780632f013a001461031357806334033fc11461031b5780633a5381b51461032e5780633bebdcb5146103365780633e59b70614610349578063404e896f1461035157806342cb4587146103645780634476d23b1461037757806346d1d3c41461038c5780634d3d826c1461039f5780634dc8eb79146103b257806351d7cd61146103c5578063570ca735146103cd578063598b75ad146103d55780635dc60def146103e8578063627f09c3146103f05780636c70bee9146104035780636ccb43c81461040b5780636de6a5d21461041e57806370327ea1146104315780637da5b11c14610439578063892860b21461044c578063911eb9651461045f5780639621473514610472578063972fcee0146104855780639882da6c14610498578063adfb6778146104ab578063b3ab15fb146104be578063b52d470a146104d1578063bb9357de146104d9578063c19df1e4146104ec578063ca7f47ed146104ff578063cdbf941914610512578063d5b68c6214610525578063d5f3948814610538578063e8ae41e314610540578063fa7424f214610548578063fb1a825e14610550578063fcd30b0214610563575b600080fd5b61025361024e3660046136f4565b610576565b604051610260919061450b565b60405180910390f35b61027c6102773660046136f4565b61061d565b60405161026091906144fd565b6102916106b6565b60405161026091906144d4565b6102b16102ac366004613847565b6106c5565b005b6102c66102c13660046136f4565b610766565b60405161026091906144c6565b6102916107ff565b6102e361080e565b60405161026091906144b8565b61029161081e565b6102b161082d565b6102b161030e366004613847565b610893565b6102e361091a565b6102b1610329366004613792565b610923565b610291610b16565b6102e36103443660046136f4565b610b25565b6102e3610bbe565b6102b161035f366004613847565b610bce565b6102c66103723660046136f4565b610c48565b61037f610c91565b60405161026091906141d0565b6102e361039a3660046136f4565b610ca5565b6102b16103ad3660046138e7565b610cee565b6102b16103c0366004613847565b610f7f565b610291610ff9565b61037f611008565b6102b16103e3366004613847565b611017565b6102b16110d2565b6102b16103fe366004613847565b611121565b6102916111b2565b6102b1610419366004613847565b6111c1565b6102c661042c3660046136f4565b61123b565b6102b1611284565b6102e36104473660046136f4565b6112e7565b6102b161045a366004613847565b611330565b6102b161046d366004613741565b6113eb565b6102b16104803660046136b8565b61174f565b6102b16104933660046136f4565b611805565b6102c66104a63660046136f4565b611a9d565b6102c66104b93660046136f4565b611ae6565b6102b16104cc3660046136b8565b611b2f565b6102b1611bd2565b6102e36104e73660046136f4565b611c21565b6102b16104fa3660046137db565b611c6a565b61025361050d3660046136f4565b611ee0565b6102c66105203660046136f4565b611f29565b6102c66105333660046136f4565b611f72565b61037f611fbb565b610291611fcf565b610291611fde565b6102c661055e3660046136f4565b611fed565b61037f6105713660046136f4565b612036565b6007546040805180820182526001600160a01b0385811682526020820185905291516394da13eb60e01b815260609392909216916394da13eb916105bf9188919060040161430b565b60006040518083038186803b1580156105d757600080fd5b505afa1580156105eb573d6000803e3d6000fd5b505050506040513d6000823e601f3d908101601f1916820160405261061391908101906138b3565b90505b9392505050565b6007546040805180820182526001600160a01b03858116825260208201859052915163b6e2fc3360e01b8152600093929092169163b6e2fc33916106669188919060040161430b565b60206040518083038186803b15801561067e57600080fd5b505afa158015610692573d6000803e3d6000fd5b505050506040513d601f19601f820116820180604052506106139190810190613865565b6006546001600160a01b031681565b6106cd6120cf565b6106d657600080fd5b806001600160a01b0381166106ea57600080fd5b60035482906001600160a01b03908116908216811461076057600380546001600160a01b038681166001600160a01b03198316179092556040519116907f1882af944a16549c3d4f60e3cd26f158b0c7aac3222cf32971fc21375ce05f609061075690839088906144e2565b60405180910390a1505b50505050565b6007546040805180820182526001600160a01b03858116825260208201859052915163c46fcd7560e01b8152600093929092169163c46fcd75916107af9188919060040161430b565b60206040518083038186803b1580156107c757600080fd5b505afa1580156107db573d6000803e3d6000fd5b505050506040513d601f19601f820116820180604052506106139190810190613829565b6005546001600160a01b031681565b600454600160a01b900460ff1681565b6009546001600160a01b031681565b33610836610c91565b6001600160a01b03161461084957600080fd5b60005460ff161561085957600080fd5b7f787a5d936e74f4b564b9153575886059829c78cd9927b1be5e0d976b317ef7363360405161088891906141de565b60405180910390a133ff5b61089b6120cf565b6108a457600080fd5b806001600160a01b0381166108b857600080fd5b600780546001600160a01b038481166001600160a01b031983161792839055604051918116927f4f7125332801996cdeaabf9cff1ac89ddf4b52c673558936affe853ab64a88da9261090d92859216906144e2565b60405180910390a1505050565b60005460ff1681565b61092b6120e5565b61093457600080fd5b61094183838360006120f6565b6007546020830151604051632ee2ed2560e01b81527f505b0ba83acb520eb622fae274a079c14f40dd43f70fd9f1f8d2312fd4e76caf9286926001600160a01b0390911691632ee2ed259161099b9185919060040161430b565b60206040518083038186803b1580156109b357600080fd5b505afa1580156109c7573d6000803e3d6000fd5b505050506040513d601f19601f820116820180604052506109eb9190810190613829565b6007546020860151604051638ab3e96560e01b81526001600160a01b0390921691638ab3e96591610a21918a919060040161430b565b60206040518083038186803b158015610a3957600080fd5b505afa158015610a4d573d6000803e3d6000fd5b505050506040513d601f19601f82011682018060405250610a719190810190613829565b600754602087015160405163c46fcd7560e01b815287926001600160a01b03169163c46fcd7591610aa6918c9160040161430b565b60206040518083038186803b158015610abe57600080fd5b505afa158015610ad2573d6000803e3d6000fd5b505050506040513d601f19601f82011682018060405250610af69190810190613829565b602080890151805191015160405161090d979695949392919033906143a5565b6003546001600160a01b031681565b6007546040805180820182526001600160a01b038581168252602082018590529151635482c73560e01b81526000939290921691635482c73591610b6e9188919060040161430b565b60206040518083038186803b158015610b8657600080fd5b505afa158015610b9a573d6000803e3d6000fd5b505050506040513d601f19601f82011682018060405250610613919081019061380b565b600554600160a01b900460ff1681565b610bd66120cf565b610bdf57600080fd5b806001600160a01b038116610bf357600080fd5b600980546001600160a01b038481166001600160a01b031983161792839055604051918116927f6d4735156f5fb1047cfcd4a9edf19e3291aec19d53916f8fee650ca3c2d739109261090d92859216906144e2565b6007546040805180820182526001600160a01b038581168252602082018590529151633007230f60e11b8152600093929092169163600e461e916107af9188919060040161430b565b60005461010090046001600160a01b031690565b6007546040805180820182526001600160a01b038581168252602082018590529151637ff81c3760e01b81526000939290921691637ff81c3791610b6e9188919060040161430b565b60048054604051631293efbb60e21b81526001600160a01b0390911691634a4fbeec91610d1d913391016141de565b60206040518083038186803b158015610d3557600080fd5b505afa158015610d49573d6000803e3d6000fd5b505050506040513d601f19601f82011682018060405250610d6d919081019061380b565b15610d935760405162461bcd60e51b8152600401610d8a9061455c565b60405180910390fd5b610da033838360016120f6565b6007546020830151604051632ee2ed2560e01b81527f1d8a75ed090cb569da62b746afdb83f0969831d5d9b9bb1a11320bc11c438c9f9233926001600160a01b0390911691632ee2ed2591610dfa918591906004016141ec565b60206040518083038186803b158015610e1257600080fd5b505afa158015610e26573d6000803e3d6000fd5b505050506040513d601f19601f82011682018060405250610e4a9190810190613829565b6007546020860151604051638ab3e96560e01b81526001600160a01b0390921691638ab3e96591610e80913391906004016141ec565b60206040518083038186803b158015610e9857600080fd5b505afa158015610eac573d6000803e3d6000fd5b505050506040513d601f19601f82011682018060405250610ed09190810190613829565b600754602087015160405163c46fcd7560e01b815287926001600160a01b03169163c46fcd7591610f059133916004016141ec565b60206040518083038186803b158015610f1d57600080fd5b505afa158015610f31573d6000803e3d6000fd5b505050506040513d601f19601f82011682018060405250610f559190810190613829565b6020808901518051910151604051610f739796959493929190614207565b60405180910390a15050565b610f876120cf565b610f9057600080fd5b806001600160a01b038116610fa457600080fd5b600680546001600160a01b038481166001600160a01b031983161792839055604051918116927f663141f76be1f253f0e608edd55c18b0816521f3b635e072c1c2f710dde6ed199261090d92859216906144e2565b6007546001600160a01b031681565b6001546001600160a01b031681565b61101f6120cf565b61102857600080fd5b806001600160a01b03811661103c57600080fd5b60055482906001600160a01b03908116908216811461076057600554600160a01b900460ff161561107f5760405162461bcd60e51b8152600401610d8a9061452c565b600580546001600160a01b038681166001600160a01b03198316179092556040519116907fb2a91d3a71b0c5bc7c083153b3474378e489506ba98bd4ddb1b9056fdc594bb59061075690839088906144e2565b6110da6120cf565b6110e357600080fd5b6004805460ff60a01b1916600160a01b1790556040517f56ec8900b9c4bf84f4b715a53068ca06961dd49084c07b481931e2c2045346e690600090a1565b6111296120cf565b61113257600080fd5b806001600160a01b03811661114657600080fd5b60025482906001600160a01b03908116908216811461076057600280546001600160a01b038681166001600160a01b03198316179092556040519116907f634f61bf00e14adedce330c80c2823e16e184f189ebe853e1ddecc4a268477ff9061075690839088906144e2565b6002546001600160a01b031681565b6111c96120cf565b6111d257600080fd5b806001600160a01b0381166111e657600080fd5b600880546001600160a01b038481166001600160a01b031983161792839055604051918116927ff21c127205310467822e10c64b2d9ffae588e019194d6af71f2bdddc0b7ef5269261090d92859216906144e2565b6007546040805180820182526001600160a01b03858116825260208201859052915163374852cb60e11b81526000939290921691636e90a596916107af9188919060040161430b565b3361128d610c91565b6001600160a01b0316146112a057600080fd5b6000805460ff191660011790556040517fd5a2a04a775c741c2ca0dc46ea7ce4835190e1aaf1ca018def0e82568ec33616906112dd9033906141de565b60405180910390a1565b6007546040805180820182526001600160a01b0385811682526020820185905291516333ca4eab60e21b8152600093929092169163cf293aac91610b6e9188919060040161430b565b6113386120cf565b61134157600080fd5b806001600160a01b03811661135557600080fd5b60045482906001600160a01b03908116908216811461076057600454600160a01b900460ff16156113985760405162461bcd60e51b8152600401610d8a906145cc565b600480546001600160a01b038681166001600160a01b03198316179092556040519116907fa44d361e26327b72a7ccbeae801b3c5cd7677ea4fa74168b289e273c46bfecfc9061075690839088906144e2565b600260009054906101000a90046001600160a01b03166001600160a01b031663f71e860f6040518163ffffffff1660e01b815260040160206040518083038186803b15801561143957600080fd5b505afa15801561144d573d6000803e3d6000fd5b505050506040513d601f19601f82011682018060405250611471919081019061380b565b61148d5760405162461bcd60e51b8152600401610d8a9061451c565b600654604051630eae657960e11b81526001600160a01b0390911690631d5ccaf2906114c190859085903390600401614376565b600060405180830381600087803b1580156114db57600080fd5b505af11580156114ef573d6000803e3d6000fd5b50506007546020840151604051632ee2ed2560e01b81527fffa28bfeaa617be065ef4f9cbd4448b8ac8e99c98f00741cd2d78fa4732cf9cf94508693506001600160a01b0390921691632ee2ed259161154d9185919060040161430b565b60206040518083038186803b15801561156557600080fd5b505afa158015611579573d6000803e3d6000fd5b505050506040513d601f19601f8201168201806040525061159d9190810190613829565b6007546020850151604051638ab3e96560e01b81526001600160a01b0390921691638ab3e965916115d39189919060040161430b565b60206040518083038186803b1580156115eb57600080fd5b505afa1580156115ff573d6000803e3d6000fd5b505050506040513d601f19601f820116820180604052506116239190810190613829565b6007546020860151604051633007230f60e11b81526001600160a01b039092169163600e461e91611659918a919060040161430b565b60206040518083038186803b15801561167157600080fd5b505afa158015611685573d6000803e3d6000fd5b505050506040513d601f19601f820116820180604052506116a99190810190613829565b600754602087015160405163c46fcd7560e01b81526001600160a01b039092169163c46fcd75916116df918b919060040161430b565b60206040518083038186803b1580156116f757600080fd5b505afa15801561170b573d6000803e3d6000fd5b505050506040513d601f19601f8201168201806040525061172f9190810190613829565b6020808801518051910151604051610f73979695949392919033906143a5565b6117576120cf565b61176057600080fd5b806001600160a01b03811661177457600080fd5b6001600160a01b03811630141561178a57600080fd5b6000546001600160a01b03838116610100909204161461180157600080546001600160a01b03848116610100908102610100600160a81b03198416179093556040519290910416907f977e5fa58e458501775e0008d275006294c5249e3c08d1d0e3a9f3acad14f6e49061090d908390869061426f565b5050565b61180d6120e5565b61181657600080fd5b61181e613053565b6040518060400160405280846001600160a01b0316815260200183815250905061184c84826001600061274d565b600754604051632ee2ed2560e01b81527f55681e18b795929fa6b2ebef09244e035285788d963bf5d6e3968dc2bf8addf09186916001600160a01b0390911690632ee2ed25906118a2908490879060040161430b565b60206040518083038186803b1580156118ba57600080fd5b505afa1580156118ce573d6000803e3d6000fd5b505050506040513d601f19601f820116820180604052506118f29190810190613829565b600754604051638ab3e96560e01b81526001600160a01b0390911690638ab3e96590611924908a90889060040161430b565b60206040518083038186803b15801561193c57600080fd5b505afa158015611950573d6000803e3d6000fd5b505050506040513d601f19601f820116820180604052506119749190810190613829565b600754604051633007230f60e11b81526001600160a01b039091169063600e461e906119a6908b90899060040161430b565b60206040518083038186803b1580156119be57600080fd5b505afa1580156119d2573d6000803e3d6000fd5b505050506040513d601f19601f820116820180604052506119f69190810190613829565b60075460405163c46fcd7560e01b81526001600160a01b039091169063c46fcd7590611a28908c908a9060040161430b565b60206040518083038186803b158015611a4057600080fd5b505afa158015611a54573d6000803e3d6000fd5b505050506040513d601f19601f82011682018060405250611a789190810190613829565b888833604051611a8f9897969594939291906143a5565b60405180910390a150505050565b6007546040805180820182526001600160a01b03858116825260208201859052915163da473c5760e01b8152600093929092169163da473c57916107af9188919060040161430b565b6007546040805180820182526001600160a01b038581168252602082018590529151631b90e3c160e01b81526000939290921691631b90e3c1916107af9188919060040161430b565b611b376120e5565b611b4057600080fd5b806001600160a01b038116611b5457600080fd5b6001600160a01b038116301415611b6a57600080fd5b6001546001600160a01b0383811691161461180157600180546001600160a01b038481166001600160a01b03198316179092556040519116907f9f611b789425d0d5b90b920f1b2852907dd865c80074a30b1629aaa041d1812c9061090d908390869061426f565b611bda6120cf565b611be357600080fd5b6005805460ff60a01b1916600160a01b1790556040517f9c567b65fe8caab5ec7bc979a498a1322c1d4baf01a30727cbca137187560ea290600090a1565b6007546040805180820182526001600160a01b03858116825260208201859052915163076470a560e31b81526000939290921691633b23852891610b6e9188919060040161430b565b611c72613053565b6040518060400160405280846001600160a01b03168152602001838152509050611c9f338260018061274d565b600754604051632ee2ed2560e01b81527f46e3d3c7067c83d22286a7cf49b1ac45b28d128a51b1d4a3b9bdc3927a6da0be9133916001600160a01b0390911690632ee2ed2590611cf590849087906004016141ec565b60206040518083038186803b158015611d0d57600080fd5b505afa158015611d21573d6000803e3d6000fd5b505050506040513d601f19601f82011682018060405250611d459190810190613829565b600754604051638ab3e96560e01b81526001600160a01b0390911690638ab3e96590611d7790339088906004016141ec565b60206040518083038186803b158015611d8f57600080fd5b505afa158015611da3573d6000803e3d6000fd5b505050506040513d601f19601f82011682018060405250611dc79190810190613829565b600754604051633007230f60e11b81526001600160a01b039091169063600e461e90611df990339089906004016141ec565b60206040518083038186803b158015611e1157600080fd5b505afa158015611e25573d6000803e3d6000fd5b505050506040513d601f19601f82011682018060405250611e499190810190613829565b60075460405163c46fcd7560e01b81526001600160a01b039091169063c46fcd7590611e7b9033908a906004016141ec565b60206040518083038186803b158015611e9357600080fd5b505afa158015611ea7573d6000803e3d6000fd5b505050506040513d601f19601f82011682018060405250611ecb9190810190613829565b888860405161090d9796959493929190614207565b6007546040805180820182526001600160a01b03858116825260208201859052915163160ed0cd60e11b81526060939290921691632c1da19a916105bf9188919060040161430b565b6007546040805180820182526001600160a01b038581168252602082018590529151632ee2ed2560e01b81526000939290921691632ee2ed25916107af9188919060040161430b565b6007546040805180820182526001600160a01b0385811682526020820185905291516345a76a6160e11b81526000939290921691638b4ed4c2916107af9188919060040161430b565b60005461010090046001600160a01b031681565b6004546001600160a01b031681565b6008546001600160a01b031681565b6007546040805180820182526001600160a01b0385811682526020820185905291516356ec907560e01b815260009392909216916356ec9075916107af9188919060040161430b565b6007546040805180820182526001600160a01b038581168252602082018590529151635658722960e01b8152600093929092169163565872299161207f9188919060040161430b565b60206040518083038186803b15801561209757600080fd5b505afa1580156120ab573d6000803e3d6000fd5b505050506040513d601f19601f8201168201806040525061061391908101906136d6565b60005461010090046001600160a01b0316331490565b6001546001600160a01b0316331490565b60035460405163273f8b6560e11b815284916001600160a01b031690634e7f16ca906121269084906004016145dc565b60206040518083038186803b15801561213e57600080fd5b505afa158015612152573d6000803e3d6000fd5b505050506040513d601f19601f82011682018060405250612176919081019061380b565b6121925760405162461bcd60e51b8152600401610d8a906145bc565b600260009054906101000a90046001600160a01b03166001600160a01b031663b6bf41766040518163ffffffff1660e01b815260040160206040518083038186803b1580156121e057600080fd5b505afa1580156121f4573d6000803e3d6000fd5b505050506040513d601f19601f820116820180604052506122189190810190613829565b4310156122375760405162461bcd60e51b8152600401610d8a9061453c565b60035460405163f59d1a7560e01b81526001600160a01b039091169063f59d1a759061226990879089906004016145ed565b60206040518083038186803b15801561228157600080fd5b505afa158015612295573d6000803e3d6000fd5b505050506040513d601f19601f820116820180604052506122b9919081019061380b565b6122d55760405162461bcd60e51b8152600401610d8a9061457c565b600754602085015160405163076470a560e31b81526001600160a01b0390921691633b2385289161230b9189919060040161430b565b60206040518083038186803b15801561232357600080fd5b505afa158015612337573d6000803e3d6000fd5b505050506040513d601f19601f8201168201806040525061235b919081019061380b565b15806123e857506007546020850151604051637ff81c3760e01b81526001600160a01b0390921691637ff81c37916123989189919060040161430b565b60206040518083038186803b1580156123b057600080fd5b505afa1580156123c4573d6000803e3d6000fd5b505050506040513d601f19601f820116820180604052506123e8919081019061380b565b6124045760405162461bcd60e51b8152600401610d8a9061456c565b600854602085015160405163076470a560e31b81526001600160a01b0390921691633b2385289161243a9189919060040161430b565b60206040518083038186803b15801561245257600080fd5b505afa158015612466573d6000803e3d6000fd5b505050506040513d601f19601f8201168201806040525061248a919081019061380b565b158061251757506008546020850151604051637ff81c3760e01b81526001600160a01b0390921691637ff81c37916124c79189919060040161430b565b60206040518083038186803b1580156124df57600080fd5b505afa1580156124f3573d6000803e3d6000fd5b505050506040513d601f19601f82011682018060405250612517919081019061380b565b6125335760405162461bcd60e51b8152600401610d8a9061459c565b600080612540868861295c565b6009546020890151604051633858654b60e01b815293955091935084926001600160a01b0390911691633858654b9161257d918c9160040161430b565b60206040518083038186803b15801561259557600080fd5b505afa1580156125a9573d6000803e3d6000fd5b505050506040513d601f19601f820116820180604052506125cd9190810190613829565b106125ea5760405162461bcd60e51b8152600401610d8a9061458c565b6007546001600160a01b031663bb3bffe088848489612655612612838363ffffffff612b1116565b6126498f8f60200151600560009054906101000a90046001600160a01b03166001600160a01b0316612b509092919063ffffffff16565b9063ffffffff612d4d16565b8c602001518d60c001518c8f60a00151602001516000015173__PaymentTypesLib_______________________635174abe96040518163ffffffff1660e01b815260040160006040518083038186803b1580156126b157600080fd5b505af41580156126c5573d6000803e3d6000fd5b505050506040513d6000823e601f3d908101601f191682016040526126ed91908101906138b3565b6040518b63ffffffff1660e01b81526004016127129a9998979695949392919061441c565b600060405180830381600087803b15801561272c57600080fd5b505af1158015612740573d6000803e3d6000fd5b5050505050505050505050565b60075460405163076470a560e31b81526001600160a01b0390911690633b2385289061277f908790879060040161430b565b60206040518083038186803b15801561279757600080fd5b505afa1580156127ab573d6000803e3d6000fd5b505050506040513d601f19601f820116820180604052506127cf919081019061380b565b6127eb5760405162461bcd60e51b8152600401610d8a906145ac565b600754604051637ff81c3760e01b81526001600160a01b0390911690637ff81c379061281d908790879060040161430b565b60206040518083038186803b15801561283557600080fd5b505afa158015612849573d6000803e3d6000fd5b505050506040513d601f19601f8201168201806040525061286d919081019061380b565b1561288a5760405162461bcd60e51b8152600401610d8a9061454c565b6007546040516335a4238360e01b81526001600160a01b03909116906335a42383906128c0908790879087908790600401614319565b600060405180830381600087803b1580156128da57600080fd5b505af11580156128ee573d6000803e3d6000fd5b5050600854604051632ce4e29b60e21b81526001600160a01b03909116925063b3938a6c9150612924908790879060040161430b565b600060405180830381600087803b15801561293e57600080fd5b505af1158015612952573d6000803e3d6000fd5b5050505050505050565b602082015160c08301516005546000928392839261298e926001600160a01b039091169187919063ffffffff612d8016565b600954602087015160c088015160405163bc8dd4cd60e01b81529394506000936001600160a01b039093169263bc8dd4cd926129ce928a9260040161434e565b60206040518083038186803b1580156129e657600080fd5b505afa1580156129fa573d6000803e3d6000fd5b505050506040513d601f19601f82011682018060405250612a1e9190810190613829565b60035460405163d308b9db60e01b81529192506001600160a01b03169063d308b9db90612a5190899089906004016145ed565b60206040518083038186803b158015612a6957600080fd5b505afa158015612a7d573d6000803e3d6000fd5b505050506040513d601f19601f82011682018060405250612aa1919081019061380b565b15612ade57604080870151805191015151909450612ad7908290612acb908563ffffffff612b1116565b9063ffffffff612b1116565b9250612b08565b6060860151805160409091015151909450612b05908290612acb908563ffffffff612b1116565b92505b50509250929050565b6000808212158015612b2557508282840313155b80612b3c5750600082128015612b3c575082828403135b612b4557600080fd5b508082035b92915050565b6000610613846001600160a01b03166371f4ec5185876001600160a01b0316634652ec746040518163ffffffff1660e01b815260040160206040518083038186803b158015612b9e57600080fd5b505afa158015612bb2573d6000803e3d6000fd5b505050506040513d601f19601f82011682018060405250612bd69190810190613829565b865160208801516040516001600160e01b031960e087901b168152612c01949392919060040161428a565b60206040518083038186803b158015612c1957600080fd5b505afa158015612c2d573d6000803e3d6000fd5b505050506040513d601f19601f82011682018060405250612c519190810190613829565b856001600160a01b03166371f4ec5186886001600160a01b031663ded113106040518163ffffffff1660e01b815260040160206040518083038186803b158015612c9a57600080fd5b505afa158015612cae573d6000803e3d6000fd5b505050506040513d601f19601f82011682018060405250612cd29190810190613829565b875160208901516040516001600160e01b031960e087901b168152612cfd949392919060040161428a565b60206040518083038186803b158015612d1557600080fd5b505afa158015612d29573d6000803e3d6000fd5b505050506040513d601f19601f820116820180604052506126499190810190613829565b6000828201818312801590612d625750838112155b80612d775750600083128015612d7757508381125b61061657600080fd5b600080612d8f86868686612d9c565b509150505b949350505050565b600080600080876001600160a01b031663a246138c888a6001600160a01b031663ded113106040518163ffffffff1660e01b815260040160206040518083038186803b158015612deb57600080fd5b505afa158015612dff573d6000803e3d6000fd5b505050506040513d601f19601f82011682018060405250612e239190810190613829565b895160208b01516040516001600160e01b031960e087901b168152612e5094939291908c906004016142bf565b604080518083038186803b158015612e6757600080fd5b505afa158015612e7b573d6000803e3d6000fd5b505050506040513d601f19601f82011682018060405250612e9f9190810190613883565b91509150600080896001600160a01b031663a246138c8a8c6001600160a01b0316634652ec746040518163ffffffff1660e01b815260040160206040518083038186803b158015612eef57600080fd5b505afa158015612f03573d6000803e3d6000fd5b505050506040513d601f19601f82011682018060405250612f279190810190613829565b8b5160208d01516040516001600160e01b031960e087901b168152612f5494939291908e906004016142bf565b604080518083038186803b158015612f6b57600080fd5b505afa158015612f7f573d6000803e3d6000fd5b505050506040513d601f19601f82011682018060405250612fa39190810190613883565b9092509050612fb8848363ffffffff612d4d16565b60405163a682d5ad60e01b815290965073__SafeMathUintLib_______________________9063a682d5ad90612ff4908690859060040161460d565b60206040518083038186803b15801561300c57600080fd5b505af4158015613020573d6000803e3d6000fd5b505050506040513d601f19601f820116820180604052506130449190810190613829565b94505050505094509492505050565b604080518082019091526000808252602082015290565b8035612b4a8161474c565b8051612b4a8161474c565b600082601f83011261309157600080fd5b81356130a461309f8261464e565b614628565b915081818352602084019350602081019050838560808402820111156130c957600080fd5b60005b838110156130f757816130df88826132cb565b845250602090920191608091909101906001016130cc565b5050505092915050565b8051612b4a81614760565b8035612b4a81614769565b8051612b4a81614769565b8035612b4a81614772565b8051612b4a8161477b565b600082601f83011261314957600080fd5b813561315761309f8261466e565b9150808252602083016020830185838301111561317357600080fd5b61317e8382846146fd565b50505092915050565b600082601f83011261319857600080fd5b81516131a661309f8261466e565b915080825260208301602083018583830111156131c257600080fd5b61317e838284614709565b6000604082840312156131df57600080fd5b6131e96040614628565b905060006131f7848461306a565b82525060206132088484830161310c565b60208301525092915050565b60006040828403121561322657600080fd5b6132306040614628565b905060006131f7848461310c565b60006060828403121561325057600080fd5b61325a6040614628565b90506000613268848461310c565b8252506020613208848483016131cd565b60006040828403121561328b57600080fd5b6132956040614628565b905060006132a3848461310c565b82525060208201356001600160401b038111156132bf57600080fd5b61320884828501613138565b6000608082840312156132dd57600080fd5b6132e76040614628565b905060006132f5848461310c565b82525060206132088484830161323e565b600060a0828403121561331857600080fd5b6133226080614628565b90506000613330848461310c565b82525060206133418484830161306a565b602083015250604061335584828501613214565b60408301525060808201356001600160401b0381111561337457600080fd5b61338084828501613628565b60608301525092915050565b600060c0828403121561339e57600080fd5b6133a860a0614628565b905060006133b6848461310c565b82525060206133c78484830161306a565b60208301525060406133db84828501613214565b60408301525060808201356001600160401b038111156133fa57600080fd5b613406848285016135d6565b60608301525060a08201356001600160401b0381111561342557600080fd5b61343184828501613138565b60808301525092915050565b6000610220828403121561345057600080fd5b61345b610100614628565b90506000613469848461310c565b825250602061347a848483016131cd565b60208301525060608201356001600160401b0381111561349957600080fd5b6134a58482850161338c565b60408301525060808201356001600160401b038111156134c457600080fd5b6134d084828501613306565b60608301525060a06134e484828501613214565b60808301525060e06134f884828501613671565b60a0830152506101e061350d8482850161310c565b60c0830152506102008201356001600160401b0381111561352d57600080fd5b61353984828501613279565b60e08301525092915050565b60006080828403121561355757600080fd5b6135616040614628565b9050600061356f848461310c565b82525060206132088484830160006060828403121561358d57600080fd5b6135976060614628565b905060006135a5848461310c565b82525060206135b68484830161310c565b60208301525060406135ca848285016136ad565b60408301525092915050565b6000608082840312156135e857600080fd5b6135f26040614628565b90506000613600848461323e565b82525060608201356001600160401b0381111561361c57600080fd5b61320884828501613080565b60006020828403121561363a57600080fd5b6136446020614628565b905081356001600160401b0381111561365c57600080fd5b61366884828501613080565b82525092915050565b6000610100828403121561368457600080fd5b61368e6040614628565b9050600061369c8484613545565b825250608061320884848301613545565b8035612b4a81614788565b6000602082840312156136ca57600080fd5b6000612d94848461306a565b6000602082840312156136e857600080fd5b6000612d948484613075565b60008060006060848603121561370957600080fd5b6000613715868661306a565b93505060206137268682870161306a565b92505060406137378682870161310c565b9150509250925092565b6000806040838503121561375457600080fd5b6000613760858561306a565b92505060208301356001600160401b0381111561377c57600080fd5b6137888582860161343d565b9150509250929050565b6000806000606084860312156137a757600080fd5b60006137b3868661306a565b93505060208401356001600160401b038111156137cf57600080fd5b6137268682870161343d565b600080604083850312156137ee57600080fd5b60006137fa858561306a565b92505060206137888582860161310c565b60006020828403121561381d57600080fd5b6000612d948484613101565b60006020828403121561383b57600080fd5b6000612d948484613117565b60006020828403121561385957600080fd5b6000612d948484613122565b60006020828403121561387757600080fd5b6000612d94848461312d565b6000806040838503121561389657600080fd5b60006138a28585613117565b925050602061378885828601613117565b6000602082840312156138c557600080fd5b81516001600160401b038111156138db57600080fd5b612d9484828501613187565b600080604083850312156138fa57600080fd5b82356001600160401b0381111561391057600080fd5b6137fa8582860161343d565b60006139288383613f77565b505060800190565b613939816146e7565b82525050565b613939816146a8565b60006139538261469b565b61395d818561469f565b935061396883614695565b8060005b83811015613996578151613980888261391c565b975061398b83614695565b92505060010161396c565b509495945050505050565b613939816146b3565b613939816146b8565b613939816146bb565b613939816146f2565b60006139d08261469b565b6139da818561469f565b93506139ea818560208601614709565b6139f381614735565b9093019392505050565b6000613a0a603f8361469f565b7f4f7065726174696f6e616c206d6f6465206973206e6f74206e6f726d616c205b81527f436f6e666967757261626c654f7065726174696f6e616c2e736f6c3a32325d00602082015260400192915050565b6000613a6960308361469f565b7f42616c616e636520747261636b65722066726f7a656e205b42616c616e63655481526f7261636b61626c652e736f6c3a34335d60801b602082015260400192915050565b6000613abb60678361469f565b7f43757272656e7420626c6f636b206e756d6265722062656c6f77206561726c6981527f65737420736574746c656d656e7420626c6f636b206e756d626572205b44726960208201526000805160206147928339815191526040820152666f6c3a3438395d60c81b606082015260800192915050565b6000613b3e60458361469f565b7f50726f706f73616c20666f756e64207465726d696e61746564205b447269697081527f536574746c656d656e744368616c6c656e676542795061796d656e742e736f6c6020820152643a3534325d60d81b604082015260600192915050565b6000613bab603f8361469f565b7f57616c6c657420666f756e64206c6f636b6564205b4472696970536574746c6581527f6d656e744368616c6c656e676542795061796d656e742e736f6c3a3133345d00602082015260400192915050565b6000613c0a60618361469f565b7f4f7665726c617070696e6720647269697020736574746c656d656e742063686181527f6c6c656e67652070726f706f73616c20666f756e64205b44726969705365747460208201527f6c656d656e744368616c6c656e676542795061796d656e742e736f6c3a3530316040820152605d60f81b606082015260800192915050565b6000613c9960478361469f565b7f57616c6c6574206973206e6f74207061796d656e74207061727479205b44726981526000805160206147928339815191526020820152666f6c3a3439355d60c81b604082015260600192915050565b6000613cf660568361469f565b7f57616c6c65742773206e6f6e63652062656c6f7720686967686573742073657481527f746c6564206e6f6e6365205b4472696970536574746c656d656e744368616c6c602082015275656e676542795061796d656e742e736f6c3a3531385d60501b604082015260600192915050565b6000613d7460608361469f565b7f4f7665726c617070696e67206e756c6c20736574746c656d656e74206368616c81527f6c656e67652070726f706f73616c20666f756e64205b4472696970536574746c60208201527f656d656e744368616c6c656e676542795061796d656e742e736f6c3a3530385d604082015260600192915050565b6000613df9603d8361469f565b7f4e6f2070726f706f73616c20666f756e64205b4472696970536574746c656d6581527f6e744368616c6c656e676542795061796d656e742e736f6c3a3533385d000000602082015260400192915050565b6000613e58602e8361469f565b7f5061796d656e74207365616c73206e6f742067656e75696e65205b56616c696481526d617461626c652e736f6c3a36355d60901b602082015260400192915050565b6000613ea8602c8361469f565b7f57616c6c6574206c6f636b65722066726f7a656e205b57616c6c65744c6f636b81526b61626c652e736f6c3a34335d60a01b602082015260400192915050565b80516040830190613efa848261393f565b50602082015161076060208501826139aa565b80516040830190613efa84826139aa565b80516060830190613f2f84826139aa565b5060208201516107606020850182613ee9565b80516000906040840190613f5685826139aa565b5060208301518482036020860152613f6e82826139c5565b95945050505050565b80516080830190613f8884826139aa565b5060208201516107606020850182613f1e565b805160009060a0840190613faf85826139aa565b506020830151613fc2602086018261393f565b506040830151613fd56040860182613f0d565b5060608301518482036080860152613f6e828261418a565b805160009060c084019061400185826139aa565b506020830151614014602086018261393f565b5060408301516140276040860182613f0d565b506060830151848203608086015261403f828261415e565b915050608083015184820360a0860152613f6e82826139c5565b805160009061022084019061406e85826139aa565b5060208301516140816020860182613ee9565b50604083015184820360608601526140998282613fed565b915050606083015184820360808601526140b38282613f9b565b91505060808301516140c860a0860182613f0d565b5060a08301516140db60e08601826141a2565b5060c08301516140ef6101e08601826139aa565b5060e0830151848203610200860152613f6e8282613f42565b8051608083019061411984826139aa565b50602082015161076060208501828051606083019061413884826139aa565b50602082015161414b60208501826139aa565b50604082015161076060408501826141c7565b805160009060808401906141728582613f1e565b5060208301518482036060860152613f6e8282613948565b8051602080845260009190840190613f6e8282613948565b80516101008301906141b48482614108565b5060208201516107606080850182614108565b613939816146e1565b60208101612b4a828461393f565b60208101612b4a8284613930565b606081016141fa8285613930565b6106166020830184613ee9565b60e08101614215828a613930565b61422260208301896139aa565b61422f60408301886139aa565b61423c60608301876139aa565b61424960808301866139aa565b61425660a083018561393f565b61426360c08301846139aa565b98975050505050505050565b6040810161427d828561393f565b610616602083018461393f565b60808101614298828761393f565b6142a560208301866139aa565b6142b2604083018561393f565b613f6e60608301846139aa565b60a081016142cd828861393f565b6142da60208301876139aa565b6142e7604083018661393f565b6142f460608301856139aa565b61430160808301846139aa565b9695505050505050565b606081016141fa828561393f565b60a08101614327828761393f565b6143346020830186613ee9565b61434160608301856139a1565b613f6e60808301846139a1565b6080810161435c828661393f565b6143696020830185613ee9565b612d9460608301846139aa565b60608101614384828661393f565b81810360208301526143968185614059565b9050612d946040830184613930565b61010081016143b4828b61393f565b6143c1602083018a6139aa565b6143ce60408301896139aa565b6143db60608301886139aa565b6143e860808301876139aa565b6143f560a083018661393f565b61440260c08301856139aa565b61440f60e0830184613930565b9998505050505050505050565b610160810161442b828d61393f565b614438602083018c6139aa565b614445604083018b6139aa565b614452606083018a6139aa565b61445f60808301896139aa565b61446c60a0830188613ee9565b61447960e08301876139aa565b6144876101008301866139a1565b6144956101208301856139aa565b8181036101408301526144a881846139c5565b9c9b505050505050505050505050565b60208101612b4a82846139a1565b60208101612b4a82846139aa565b60208101612b4a82846139b3565b604081016144f082856139b3565b61061660208301846139b3565b60208101612b4a82846139bc565b6020808252810161061681846139c5565b60208082528101612b4a816139fd565b60208082528101612b4a81613a5c565b60208082528101612b4a81613aae565b60208082528101612b4a81613b31565b60208082528101612b4a81613b9e565b60208082528101612b4a81613bfd565b60208082528101612b4a81613c8c565b60208082528101612b4a81613ce9565b60208082528101612b4a81613d67565b60208082528101612b4a81613dec565b60208082528101612b4a81613e4b565b60208082528101612b4a81613e9b565b602080825281016106168184614059565b604080825281016145fe8185614059565b9050610616602083018461393f565b6040810161461b82856139aa565b61061660208301846139aa565b6040518181016001600160401b038111828210171561464657600080fd5b604052919050565b60006001600160401b0382111561466457600080fd5b5060209081020190565b60006001600160401b0382111561468457600080fd5b506020601f91909101601f19160190565b60200190565b5190565b90815260200190565b6000612b4a826146d5565b151590565b90565b6000612b4a826146a8565b806146d08161473f565b919050565b6001600160a01b031690565b60ff1690565b6000612b4a826146bb565b6000612b4a826146c6565b82818337506000910152565b60005b8381101561472457818101518382015260200161470c565b838111156107605750506000910152565b601f01601f191690565b6002811061474957fe5b50565b614755816146a8565b811461474957600080fd5b614755816146b3565b614755816146b8565b614755816146bb565b6002811061474957600080fd5b614755816146e156fe6970536574746c656d656e744368616c6c656e676542795061796d656e742e73a365627a7a72315820089b9a208fa3aa8d4c2a9359e2e0f08e9b61f34b2f498d9dc3c0bd8bd81902086c6578706572696d656e74616cf564736f6c634300050c0040",
  "source": "/*\n * Hubii Nahmii\n *\n * Compliant with the Hubii Nahmii specification v0.12.\n *\n * Copyright (C) 2017-2018 Hubii AS\n */\n\npragma solidity >=0.4.25 <0.6.0;\npragma experimental ABIEncoderV2;\n\nimport {Ownable} from \"./Ownable.sol\";\nimport {ConfigurableOperational} from \"./ConfigurableOperational.sol\";\nimport {Validatable} from \"./Validatable.sol\";\nimport {WalletLockable} from \"./WalletLockable.sol\";\nimport {BalanceTrackable} from \"./BalanceTrackable.sol\";\nimport {SafeMathIntLib} from \"./SafeMathIntLib.sol\";\nimport {SafeMathUintLib} from \"./SafeMathUintLib.sol\";\nimport {DriipSettlementDisputeByPayment} from \"./DriipSettlementDisputeByPayment.sol\";\nimport {DriipSettlementChallengeState} from \"./DriipSettlementChallengeState.sol\";\nimport {NullSettlementChallengeState} from \"./NullSettlementChallengeState.sol\";\nimport {DriipSettlementState} from \"./DriipSettlementState.sol\";\nimport {MonetaryTypesLib} from \"./MonetaryTypesLib.sol\";\nimport {NahmiiTypesLib} from \"./NahmiiTypesLib.sol\";\nimport {PaymentTypesLib} from \"./PaymentTypesLib.sol\";\nimport {SettlementChallengeTypesLib} from \"./SettlementChallengeTypesLib.sol\";\nimport {BalanceTracker} from \"./BalanceTracker.sol\";\nimport {BalanceTrackerLib} from \"./BalanceTrackerLib.sol\";\n\n/**\n * @title DriipSettlementChallengeByPayment\n * @notice Where driip settlements pertaining to payments are started and disputed\n */\ncontract DriipSettlementChallengeByPayment is Ownable, ConfigurableOperational, Validatable, WalletLockable,\nBalanceTrackable {\n    using SafeMathIntLib for int256;\n    using SafeMathUintLib for uint256;\n    using BalanceTrackerLib for BalanceTracker;\n\n    //\n    // Variables\n    // -----------------------------------------------------------------------------------------------------------------\n    DriipSettlementDisputeByPayment public driipSettlementDisputeByPayment;\n    DriipSettlementChallengeState public driipSettlementChallengeState;\n    NullSettlementChallengeState public nullSettlementChallengeState;\n    DriipSettlementState public driipSettlementState;\n\n    //\n    // Events\n    // -----------------------------------------------------------------------------------------------------------------\n    event SetDriipSettlementDisputeByPaymentEvent(DriipSettlementDisputeByPayment oldDriipSettlementDisputeByPayment,\n        DriipSettlementDisputeByPayment newDriipSettlementDisputeByPayment);\n    event SetDriipSettlementChallengeStateEvent(DriipSettlementChallengeState oldDriipSettlementChallengeState,\n        DriipSettlementChallengeState newDriipSettlementChallengeState);\n    event SetNullSettlementChallengeStateEvent(NullSettlementChallengeState oldNullSettlementChallengeState,\n        NullSettlementChallengeState newNullSettlementChallengeState);\n    event SetDriipSettlementStateEvent(DriipSettlementState oldDriipSettlementState,\n        DriipSettlementState newDriipSettlementState);\n    event StartChallengeFromPaymentEvent(address wallet, uint256 nonce, int256 cumulativeTransferAmount, int256 stageAmount,\n        int256 targetBalanceAmount, address currencyCt, uint256 currencyId);\n    event StartChallengeFromPaymentByProxyEvent(address wallet, uint256 nonce, int256 cumulativeTransferAmount, int256 stageAmount,\n        int256 targetBalanceAmount, address currencyCt, uint256 currencyId, address proxy);\n    event StopChallengeEvent(address wallet, uint256 nonce, int256 cumulativeTransferAmount, int256 stageAmount,\n        int256 targetBalanceAmount, address currencyCt, uint256 currencyId);\n    event StopChallengeByProxyEvent(address wallet, uint256 nonce, int256 cumulativeTransferAmount, int256 stageAmount,\n        int256 targetBalanceAmount, address currencyCt, uint256 currencyId, address proxy);\n    event ChallengeByPaymentEvent(address challengedWallet, uint256 nonce, int256 cumulativeTransferAmount, int256 stageAmount,\n        int256 targetBalanceAmount, address currencyCt, uint256 currencyId, address challengerWallet);\n\n    //\n    // Constructor\n    // -----------------------------------------------------------------------------------------------------------------\n    constructor(address deployer) Ownable(deployer) public {\n    }\n\n    //\n    // Functions\n    // -----------------------------------------------------------------------------------------------------------------\n    /// @notice Set the settlement dispute contract\n    /// @param newDriipSettlementDisputeByPayment The (address of) DriipSettlementDisputeByPayment contract instance\n    function setDriipSettlementDisputeByPayment(DriipSettlementDisputeByPayment newDriipSettlementDisputeByPayment)\n    public\n    onlyDeployer\n    notNullAddress(address(newDriipSettlementDisputeByPayment))\n    {\n        DriipSettlementDisputeByPayment oldDriipSettlementDisputeByPayment = driipSettlementDisputeByPayment;\n        driipSettlementDisputeByPayment = newDriipSettlementDisputeByPayment;\n        emit SetDriipSettlementDisputeByPaymentEvent(oldDriipSettlementDisputeByPayment, driipSettlementDisputeByPayment);\n    }\n\n    /// @notice Set the driip settlement challenge state contract\n    /// @param newDriipSettlementChallengeState The (address of) DriipSettlementChallengeState contract instance\n    function setDriipSettlementChallengeState(DriipSettlementChallengeState newDriipSettlementChallengeState)\n    public\n    onlyDeployer\n    notNullAddress(address(newDriipSettlementChallengeState))\n    {\n        DriipSettlementChallengeState oldDriipSettlementChallengeState = driipSettlementChallengeState;\n        driipSettlementChallengeState = newDriipSettlementChallengeState;\n        emit SetDriipSettlementChallengeStateEvent(oldDriipSettlementChallengeState, driipSettlementChallengeState);\n    }\n\n    /// @notice Set the null settlement challenge state contract\n    /// @param newNullSettlementChallengeState The (address of) NullSettlementChallengeState contract instance\n    function setNullSettlementChallengeState(NullSettlementChallengeState newNullSettlementChallengeState)\n    public\n    onlyDeployer\n    notNullAddress(address(newNullSettlementChallengeState))\n    {\n        NullSettlementChallengeState oldNullSettlementChallengeState = nullSettlementChallengeState;\n        nullSettlementChallengeState = newNullSettlementChallengeState;\n        emit SetNullSettlementChallengeStateEvent(oldNullSettlementChallengeState, nullSettlementChallengeState);\n    }\n\n    /// @notice Set the driip settlement state contract\n    /// @param newDriipSettlementState The (address of) DriipSettlementState contract instance\n    function setDriipSettlementState(DriipSettlementState newDriipSettlementState)\n    public\n    onlyDeployer\n    notNullAddress(address(newDriipSettlementState))\n    {\n        DriipSettlementState oldDriipSettlementState = driipSettlementState;\n        driipSettlementState = newDriipSettlementState;\n        emit SetDriipSettlementStateEvent(oldDriipSettlementState, driipSettlementState);\n    }\n\n    /// @notice Start settlement challenge on payment\n    /// @param payment The challenged payment\n    /// @param stageAmount Amount of payment currency to be staged\n    function startChallengeFromPayment(PaymentTypesLib.Payment memory payment, int256 stageAmount)\n    public\n    {\n        // Require that wallet is not temporarily disqualified\n        require(!walletLocker.isLocked(msg.sender), \"Wallet found locked [DriipSettlementChallengeByPayment.sol:134]\");\n\n        // Start challenge for wallet\n        _startChallengeFromPayment(msg.sender, payment, stageAmount, true);\n\n        // Emit event\n        emit StartChallengeFromPaymentEvent(\n            msg.sender,\n            driipSettlementChallengeState.proposalNonce(msg.sender, payment.currency),\n            driipSettlementChallengeState.proposalCumulativeTransferAmount(msg.sender, payment.currency),\n            stageAmount,\n            driipSettlementChallengeState.proposalTargetBalanceAmount(msg.sender, payment.currency),\n            payment.currency.ct, payment.currency.id\n        );\n    }\n\n    /// @notice Start settlement challenge on payment\n    /// @param wallet The concerned party\n    /// @param payment The challenged payment\n    /// @param stageAmount Amount of payment currency to be staged\n    function startChallengeFromPaymentByProxy(address wallet, PaymentTypesLib.Payment memory payment, int256 stageAmount)\n    public\n    onlyOperator\n    {\n        // Start challenge for wallet\n        _startChallengeFromPayment(wallet, payment, stageAmount, false);\n\n        // Emit event\n        emit StartChallengeFromPaymentByProxyEvent(\n            wallet,\n            driipSettlementChallengeState.proposalNonce(wallet, payment.currency),\n            driipSettlementChallengeState.proposalCumulativeTransferAmount(wallet, payment.currency),\n            stageAmount,\n            driipSettlementChallengeState.proposalTargetBalanceAmount(wallet, payment.currency),\n            payment.currency.ct, payment.currency.id, msg.sender\n        );\n    }\n\n    /// @notice Stop settlement challenge\n    /// @param currencyCt The address of the concerned currency contract (address(0) == ETH)\n    /// @param currencyId The ID of the concerned currency (0 for ETH and ERC20)\n    function stopChallenge(address currencyCt, uint256 currencyId)\n    public\n    {\n        // Define currency\n        MonetaryTypesLib.Currency memory currency = MonetaryTypesLib.Currency(currencyCt, currencyId);\n\n        // Stop challenge\n        _stopChallenge(msg.sender, currency, true, true);\n\n        // Emit event\n        emit StopChallengeEvent(\n            msg.sender,\n            driipSettlementChallengeState.proposalNonce(msg.sender, currency),\n            driipSettlementChallengeState.proposalCumulativeTransferAmount(msg.sender, currency),\n            driipSettlementChallengeState.proposalStageAmount(msg.sender, currency),\n            driipSettlementChallengeState.proposalTargetBalanceAmount(msg.sender, currency),\n            currencyCt, currencyId\n        );\n    }\n\n    /// @notice Stop settlement challenge\n    /// @param wallet The concerned wallet\n    /// @param currencyCt The address of the concerned currency contract (address(0) == ETH)\n    /// @param currencyId The ID of the concerned currency (0 for ETH and ERC20)\n    function stopChallengeByProxy(address wallet, address currencyCt, uint256 currencyId)\n    public\n    onlyOperator\n    {\n        // Define currency\n        MonetaryTypesLib.Currency memory currency = MonetaryTypesLib.Currency(currencyCt, currencyId);\n\n        // Stop challenge\n        _stopChallenge(wallet, currency, true, false);\n\n        // Emit event\n        emit StopChallengeByProxyEvent(\n            wallet,\n            driipSettlementChallengeState.proposalNonce(wallet, currency),\n            driipSettlementChallengeState.proposalCumulativeTransferAmount(wallet, currency),\n            driipSettlementChallengeState.proposalStageAmount(wallet, currency),\n            driipSettlementChallengeState.proposalTargetBalanceAmount(wallet, currency),\n            currencyCt, currencyId, msg.sender\n        );\n    }\n\n    /// @notice Gauge whether the proposal for the given wallet and currency has been defined\n    /// @param wallet The address of the concerned wallet\n    /// @param currencyCt The address of the concerned currency contract (address(0) == ETH)\n    /// @param currencyId The ID of the concerned currency (0 for ETH and ERC20)\n    /// @return true if proposal has been initiated, else false\n    function hasProposal(address wallet, address currencyCt, uint256 currencyId)\n    public\n    view\n    returns (bool)\n    {\n        return driipSettlementChallengeState.hasProposal(\n            wallet, MonetaryTypesLib.Currency(currencyCt, currencyId)\n        );\n    }\n\n    /// @notice Gauge whether the proposal for the given wallet and currency has terminated\n    /// @param wallet The address of the concerned wallet\n    /// @param currencyCt The address of the concerned currency contract (address(0) == ETH)\n    /// @param currencyId The ID of the concerned currency (0 for ETH and ERC20)\n    /// @return true if proposal has terminated, else false\n    function hasProposalTerminated(address wallet, address currencyCt, uint256 currencyId)\n    public\n    view\n    returns (bool)\n    {\n        return driipSettlementChallengeState.hasProposalTerminated(\n            wallet, MonetaryTypesLib.Currency(currencyCt, currencyId)\n        );\n    }\n\n    /// @notice Gauge whether the proposal for the given wallet and currency has expired\n    /// @param wallet The address of the concerned wallet\n    /// @param currencyCt The address of the concerned currency contract (address(0) == ETH)\n    /// @param currencyId The ID of the concerned currency (0 for ETH and ERC20)\n    /// @return true if proposal has expired, else false\n    function hasProposalExpired(address wallet, address currencyCt, uint256 currencyId)\n    public\n    view\n    returns (bool)\n    {\n        return driipSettlementChallengeState.hasProposalExpired(\n            wallet, MonetaryTypesLib.Currency(currencyCt, currencyId)\n        );\n    }\n\n    /// @notice Get the challenge nonce of the given wallet\n    /// @param wallet The address of the concerned wallet\n    /// @param currencyCt The address of the concerned currency contract (address(0) == ETH)\n    /// @param currencyId The ID of the concerned currency (0 for ETH and ERC20)\n    /// @return The challenge nonce\n    function proposalNonce(address wallet, address currencyCt, uint256 currencyId)\n    public\n    view\n    returns (uint256)\n    {\n        return driipSettlementChallengeState.proposalNonce(\n            wallet, MonetaryTypesLib.Currency(currencyCt, currencyId)\n        );\n    }\n\n    /// @notice Get the settlement proposal block number of the given wallet\n    /// @param wallet The address of the concerned wallet\n    /// @param currencyCt The address of the concerned currency contract (address(0) == ETH)\n    /// @param currencyId The ID of the concerned currency (0 for ETH and ERC20)\n    /// @return The settlement proposal block number\n    function proposalReferenceBlockNumber(address wallet, address currencyCt, uint256 currencyId)\n    public\n    view\n    returns (uint256)\n    {\n        return driipSettlementChallengeState.proposalReferenceBlockNumber(\n            wallet, MonetaryTypesLib.Currency(currencyCt, currencyId)\n        );\n    }\n\n    /// @notice Get the settlement proposal end time of the given wallet\n    /// @param wallet The address of the concerned wallet\n    /// @param currencyCt The address of the concerned currency contract (address(0) == ETH)\n    /// @param currencyId The ID of the concerned currency (0 for ETH and ERC20)\n    /// @return The settlement proposal end time\n    function proposalExpirationTime(address wallet, address currencyCt, uint256 currencyId)\n    public\n    view\n    returns (uint256)\n    {\n        return driipSettlementChallengeState.proposalExpirationTime(\n            wallet, MonetaryTypesLib.Currency(currencyCt, currencyId)\n        );\n    }\n\n    /// @notice Get the challenge status of the given wallet\n    /// @param wallet The address of the concerned wallet\n    /// @param currencyCt The address of the concerned currency contract (address(0) == ETH)\n    /// @param currencyId The ID of the concerned currency (0 for ETH and ERC20)\n    /// @return The challenge status\n    function proposalStatus(address wallet, address currencyCt, uint256 currencyId)\n    public\n    view\n    returns (SettlementChallengeTypesLib.Status)\n    {\n        return driipSettlementChallengeState.proposalStatus(\n            wallet, MonetaryTypesLib.Currency(currencyCt, currencyId)\n        );\n    }\n\n    /// @notice Get the settlement proposal stage amount of the given wallet and currency\n    /// @param wallet The address of the concerned wallet\n    /// @param currencyCt The address of the concerned currency contract (address(0) == ETH)\n    /// @param currencyId The ID of the concerned currency (0 for ETH and ERC20)\n    /// @return The settlement proposal stage amount\n    function proposalStageAmount(address wallet, address currencyCt, uint256 currencyId)\n    public\n    view\n    returns (int256)\n    {\n        return driipSettlementChallengeState.proposalStageAmount(\n            wallet, MonetaryTypesLib.Currency(currencyCt, currencyId)\n        );\n    }\n\n    /// @notice Get the settlement proposal target balance amount of the given wallet and currency\n    /// @param wallet The address of the concerned wallet\n    /// @param currencyCt The address of the concerned currency contract (address(0) == ETH)\n    /// @param currencyId The ID of the concerned currency (0 for ETH and ERC20)\n    /// @return The settlement proposal target balance amount\n    function proposalTargetBalanceAmount(address wallet, address currencyCt, uint256 currencyId)\n    public\n    view\n    returns (int256)\n    {\n        return driipSettlementChallengeState.proposalTargetBalanceAmount(\n            wallet, MonetaryTypesLib.Currency(currencyCt, currencyId)\n        );\n    }\n\n    /// @notice Get the settlement proposal driip hash of the given wallet and currency\n    /// @param wallet The address of the concerned wallet\n    /// @param currencyCt The address of the concerned currency contract (address(0) == ETH)\n    /// @param currencyId The ID of the concerned currency (0 for ETH and ERC20)\n    /// @return The settlement proposal driip hash\n    function proposalChallengedHash(address wallet, address currencyCt, uint256 currencyId)\n    public\n    view\n    returns (bytes32)\n    {\n        return driipSettlementChallengeState.proposalChallengedHash(\n            wallet, MonetaryTypesLib.Currency(currencyCt, currencyId)\n        );\n    }\n\n    /// @notice Get the settlement proposal driip type of the given wallet and currency\n    /// @param wallet The address of the concerned wallet\n    /// @param currencyCt The address of the concerned currency contract (address(0) == ETH)\n    /// @param currencyId The ID of the concerned currency (0 for ETH and ERC20)\n    /// @return The settlement proposal driip type\n    function proposalChallengedKind(address wallet, address currencyCt, uint256 currencyId)\n    public\n    view\n    returns (string memory)\n    {\n        return driipSettlementChallengeState.proposalChallengedKind(\n            wallet, MonetaryTypesLib.Currency(currencyCt, currencyId)\n        );\n    }\n\n    /// @notice Get the balance reward of the given wallet's settlement proposal\n    /// @param wallet The address of the concerned wallet\n    /// @param currencyCt The address of the concerned currency contract (address(0) == ETH)\n    /// @param currencyId The ID of the concerned currency (0 for ETH and ERC20)\n    /// @return The balance reward of the settlement proposal\n    function proposalWalletInitiated(address wallet, address currencyCt, uint256 currencyId)\n    public\n    view\n    returns (bool)\n    {\n        return driipSettlementChallengeState.proposalWalletInitiated(\n            wallet, MonetaryTypesLib.Currency(currencyCt, currencyId)\n        );\n    }\n\n    /// @notice Get the disqualification challenger of the given wallet and currency\n    /// @param wallet The address of the concerned wallet\n    /// @param currencyCt The address of the concerned currency contract (address(0) == ETH)\n    /// @param currencyId The ID of the concerned currency (0 for ETH and ERC20)\n    /// @return The challenger of the settlement disqualification\n    function proposalDisqualificationChallenger(address wallet, address currencyCt, uint256 currencyId)\n    public\n    view\n    returns (address)\n    {\n        return driipSettlementChallengeState.proposalDisqualificationChallenger(\n            wallet, MonetaryTypesLib.Currency(currencyCt, currencyId)\n        );\n    }\n    /// @notice Get the disqualification block number of the given wallet and currency\n    /// @param wallet The address of the concerned wallet\n    /// @param currencyCt The address of the concerned currency contract (address(0) == ETH)\n    /// @param currencyId The ID of the concerned currency (0 for ETH and ERC20)\n    /// @return The block number of the settlement disqualification\n    function proposalDisqualificationBlockNumber(address wallet, address currencyCt, uint256 currencyId)\n    public\n    view\n    returns (uint256)\n    {\n        return driipSettlementChallengeState.proposalDisqualificationBlockNumber(\n            wallet, MonetaryTypesLib.Currency(currencyCt, currencyId)\n        );\n    }\n\n    /// @notice Get the disqualification candidate kind of the given wallet and currency\n    /// @param wallet The address of the concerned wallet\n    /// @param currencyCt The address of the concerned currency contract (address(0) == ETH)\n    /// @param currencyId The ID of the concerned currency (0 for ETH and ERC20)\n    /// @return The candidate kind of the settlement disqualification\n    function proposalDisqualificationCandidateKind(address wallet, address currencyCt, uint256 currencyId)\n    public\n    view\n    returns (string memory)\n    {\n        return driipSettlementChallengeState.proposalDisqualificationCandidateKind(\n            wallet, MonetaryTypesLib.Currency(currencyCt, currencyId)\n        );\n    }\n\n    /// @notice Get the disqualification candidate hash of the given wallet and currency\n    /// @param wallet The address of the concerned wallet\n    /// @param currencyCt The address of the concerned currency contract (address(0) == ETH)\n    /// @param currencyId The ID of the concerned currency (0 for ETH and ERC20)\n    /// @return The candidate hash of the settlement disqualification\n    function proposalDisqualificationCandidateHash(address wallet, address currencyCt, uint256 currencyId)\n    public\n    view\n    returns (bytes32)\n    {\n        return driipSettlementChallengeState.proposalDisqualificationCandidateHash(\n            wallet, MonetaryTypesLib.Currency(currencyCt, currencyId)\n        );\n    }\n\n    /// @notice Challenge the settlement by providing payment candidate\n    /// @param wallet The wallet whose settlement is being challenged\n    /// @param payment The payment candidate that challenges the challenged driip\n    function challengeByPayment(address wallet, PaymentTypesLib.Payment memory payment)\n    public\n    onlyOperationalModeNormal\n    {\n        // Challenge by payment\n        driipSettlementDisputeByPayment.challengeByPayment(wallet, payment, msg.sender);\n\n        // Emit event\n        emit ChallengeByPaymentEvent(\n            wallet,\n            driipSettlementChallengeState.proposalNonce(wallet, payment.currency),\n            driipSettlementChallengeState.proposalCumulativeTransferAmount(wallet, payment.currency),\n            driipSettlementChallengeState.proposalStageAmount(wallet, payment.currency),\n            driipSettlementChallengeState.proposalTargetBalanceAmount(wallet, payment.currency),\n            payment.currency.ct, payment.currency.id, msg.sender\n        );\n    }\n\n    //\n    // Private functions\n    // -----------------------------------------------------------------------------------------------------------------\n    function _startChallengeFromPayment(address wallet, PaymentTypesLib.Payment memory payment,\n        int256 stageAmount, bool walletInitiated)\n    private\n    onlySealedPayment(payment)\n    {\n        // Require that current block number is beyond the earliest settlement challenge block number\n        require(\n            block.number >= configuration.earliestSettlementBlockNumber(),\n            \"Current block number below earliest settlement block number [DriipSettlementChallengeByPayment.sol:489]\"\n        );\n\n        // Require that given wallet is a payment party\n        require(\n            validator.isPaymentParty(payment, wallet),\n            \"Wallet is not payment party [DriipSettlementChallengeByPayment.sol:495]\"\n        );\n\n        // Require that there is no ongoing overlapping driip settlement challenge\n        require(\n            !driipSettlementChallengeState.hasProposal(wallet, payment.currency) ||\n        driipSettlementChallengeState.hasProposalTerminated(wallet, payment.currency),\n            \"Overlapping driip settlement challenge proposal found [DriipSettlementChallengeByPayment.sol:501]\"\n        );\n\n        // Require that there is no ongoing overlapping null settlement challenge\n        require(\n            !nullSettlementChallengeState.hasProposal(wallet, payment.currency) ||\n        nullSettlementChallengeState.hasProposalTerminated(wallet, payment.currency),\n            \"Overlapping null settlement challenge proposal found [DriipSettlementChallengeByPayment.sol:508]\"\n        );\n\n        // Deduce the concerned nonce and cumulative relative transfer\n        (uint256 nonce, int256 correctedCumulativeTransferAmount) = _paymentPartyProperties(payment, wallet);\n\n        // Require that the wallet nonce of the payment is higher than the highest settled wallet nonce\n        require(\n            driipSettlementState.maxNonceByWalletAndCurrency(wallet, payment.currency) < nonce,\n            \"Wallet's nonce below highest settled nonce [DriipSettlementChallengeByPayment.sol:518]\"\n        );\n\n        // Initiate proposal, including assurance that there is no overlap with active proposal\n        // Target balance amount is calculated as current (payment) balance - cumulativeTransferAmount - stageAmount\n        driipSettlementChallengeState.initiateProposal(\n            wallet, nonce, correctedCumulativeTransferAmount, stageAmount,\n            balanceTracker.fungibleActiveBalanceAmount(wallet, payment.currency)\n            .add(correctedCumulativeTransferAmount.sub(stageAmount)),\n            payment.currency, payment.blockNumber,\n            walletInitiated, payment.seals.operator.hash, PaymentTypesLib.PAYMENT_KIND()\n        );\n    }\n\n    function _stopChallenge(address wallet, MonetaryTypesLib.Currency memory currency, bool clearNonce, bool walletTerminated)\n    private\n    {\n        // Require that there is an unterminated driip settlement challenge proposal\n        require(\n            driipSettlementChallengeState.hasProposal(wallet, currency),\n            \"No proposal found [DriipSettlementChallengeByPayment.sol:538]\"\n        );\n        require(\n            !driipSettlementChallengeState.hasProposalTerminated(wallet, currency),\n            \"Proposal found terminated [DriipSettlementChallengeByPayment.sol:542]\"\n        );\n\n        // Terminate driip settlement challenge proposal\n        driipSettlementChallengeState.terminateProposal(wallet, currency, clearNonce, walletTerminated);\n\n        // Terminate dependent null settlement challenge proposal if existent\n        nullSettlementChallengeState.terminateProposal(wallet, currency);\n    }\n\n    function _paymentPartyProperties(PaymentTypesLib.Payment memory payment, address wallet)\n    private\n    view\n    returns (uint256 nonce, int256 correctedCumulativeTransferAmount)\n    {\n        // Obtain the active balance amount at the payment block\n        int256 activeBalanceAmountAtPaymentBlock = balanceTracker.fungibleActiveBalanceAmountByBlockNumber(\n            wallet, payment.currency, payment.blockNumber\n        );\n\n        // Obtain the delta settled amount\n        int256 deltaSettledBalanceAmount = driipSettlementState.settledAmountByBlockNumber(\n            wallet, payment.currency, payment.blockNumber\n        );\n\n        // Obtain nonce and cumulative (relative) transfer amount.\n        // Correct the cumulative transfer amount by the amount that has already been settled\n        if (validator.isPaymentSender(payment, wallet)) {\n            nonce = payment.sender.nonce;\n            correctedCumulativeTransferAmount = payment.sender.balances.current\n            .sub(activeBalanceAmountAtPaymentBlock)\n            .sub(deltaSettledBalanceAmount);\n        } else {\n            nonce = payment.recipient.nonce;\n            correctedCumulativeTransferAmount = payment.recipient.balances.current\n            .sub(activeBalanceAmountAtPaymentBlock)\n            .sub(deltaSettledBalanceAmount);\n        }\n    }\n}",
  "sourcePath": "/opt/buildagent/work/855e104608380c36/contracts/DriipSettlementChallengeByPayment.sol",
  "compiler": {
    "name": "solc",
    "version": "0.5.12+commit.7709ece9.Emscripten.clang"
  },
  "schemaVersion": "2.0.3",
  "updatedAt": "2019-10-23T00:21:40.647Z"
}