{
  "contractName": "DriipSettlementDisputeByPayment",
  "abi": [
    {
      "constant": false,
      "inputs": [
        {
          "name": "newFraudChallenge",
          "type": "address"
        }
      ],
      "name": "setFraudChallenge",
      "outputs": [],
      "payable": false,
      "stateMutability": "nonpayable",
      "type": "function"
    },
    {
      "constant": false,
      "inputs": [
        {
          "name": "newValidator",
          "type": "address"
        }
      ],
      "name": "setValidator",
      "outputs": [],
      "payable": false,
      "stateMutability": "nonpayable",
      "type": "function"
    },
    {
      "constant": true,
      "inputs": [
        {
          "name": "service",
          "type": "address"
        }
      ],
      "name": "isRegisteredActiveService",
      "outputs": [
        {
          "name": "",
          "type": "bool"
        }
      ],
      "payable": false,
      "stateMutability": "view",
      "type": "function"
    },
    {
      "constant": true,
      "inputs": [],
      "name": "balanceTracker",
      "outputs": [
        {
          "name": "",
          "type": "address"
        }
      ],
      "payable": false,
      "stateMutability": "view",
      "type": "function"
    },
    {
      "constant": true,
      "inputs": [],
      "name": "walletLockerFrozen",
      "outputs": [
        {
          "name": "",
          "type": "bool"
        }
      ],
      "payable": false,
      "stateMutability": "view",
      "type": "function"
    },
    {
      "constant": false,
      "inputs": [],
      "name": "triggerSelfDestruction",
      "outputs": [],
      "payable": false,
      "stateMutability": "nonpayable",
      "type": "function"
    },
    {
      "constant": false,
      "inputs": [
        {
          "name": "service",
          "type": "address"
        },
        {
          "name": "action",
          "type": "string"
        }
      ],
      "name": "enableServiceAction",
      "outputs": [],
      "payable": false,
      "stateMutability": "nonpayable",
      "type": "function"
    },
    {
      "constant": true,
      "inputs": [
        {
          "name": "service",
          "type": "address"
        }
      ],
      "name": "isRegisteredService",
      "outputs": [
        {
          "name": "",
          "type": "bool"
        }
      ],
      "payable": false,
      "stateMutability": "view",
      "type": "function"
    },
    {
      "constant": true,
      "inputs": [],
      "name": "selfDestructionDisabled",
      "outputs": [
        {
          "name": "",
          "type": "bool"
        }
      ],
      "payable": false,
      "stateMutability": "view",
      "type": "function"
    },
    {
      "constant": true,
      "inputs": [],
      "name": "validator",
      "outputs": [
        {
          "name": "",
          "type": "address"
        }
      ],
      "payable": false,
      "stateMutability": "view",
      "type": "function"
    },
    {
      "constant": false,
      "inputs": [
        {
          "name": "service",
          "type": "address"
        },
        {
          "name": "action",
          "type": "string"
        }
      ],
      "name": "disableServiceAction",
      "outputs": [],
      "payable": false,
      "stateMutability": "nonpayable",
      "type": "function"
    },
    {
      "constant": true,
      "inputs": [],
      "name": "serviceActivationTimeout",
      "outputs": [
        {
          "name": "",
          "type": "uint256"
        }
      ],
      "payable": false,
      "stateMutability": "view",
      "type": "function"
    },
    {
      "constant": true,
      "inputs": [],
      "name": "fraudChallenge",
      "outputs": [
        {
          "name": "",
          "type": "address"
        }
      ],
      "payable": false,
      "stateMutability": "view",
      "type": "function"
    },
    {
      "constant": true,
      "inputs": [],
      "name": "balanceTrackerFrozen",
      "outputs": [
        {
          "name": "",
          "type": "bool"
        }
      ],
      "payable": false,
      "stateMutability": "view",
      "type": "function"
    },
    {
      "constant": true,
      "inputs": [],
      "name": "destructor",
      "outputs": [
        {
          "name": "",
          "type": "address"
        }
      ],
      "payable": false,
      "stateMutability": "view",
      "type": "function"
    },
    {
      "constant": false,
      "inputs": [
        {
          "name": "service",
          "type": "address"
        }
      ],
      "name": "deregisterService",
      "outputs": [],
      "payable": false,
      "stateMutability": "nonpayable",
      "type": "function"
    },
    {
      "constant": true,
      "inputs": [],
      "name": "driipSettlementChallengeState",
      "outputs": [
        {
          "name": "",
          "type": "address"
        }
      ],
      "payable": false,
      "stateMutability": "view",
      "type": "function"
    },
    {
      "constant": true,
      "inputs": [],
      "name": "operator",
      "outputs": [
        {
          "name": "",
          "type": "address"
        }
      ],
      "payable": false,
      "stateMutability": "view",
      "type": "function"
    },
    {
      "constant": false,
      "inputs": [
        {
          "name": "newBalanceTracker",
          "type": "address"
        }
      ],
      "name": "setBalanceTracker",
      "outputs": [],
      "payable": false,
      "stateMutability": "nonpayable",
      "type": "function"
    },
    {
      "constant": false,
      "inputs": [],
      "name": "freezeWalletLocker",
      "outputs": [],
      "payable": false,
      "stateMutability": "nonpayable",
      "type": "function"
    },
    {
      "constant": true,
      "inputs": [
        {
          "name": "service",
          "type": "address"
        },
        {
          "name": "action",
          "type": "string"
        }
      ],
      "name": "isEnabledServiceAction",
      "outputs": [
        {
          "name": "",
          "type": "bool"
        }
      ],
      "payable": false,
      "stateMutability": "view",
      "type": "function"
    },
    {
      "constant": false,
      "inputs": [
        {
          "name": "newConfiguration",
          "type": "address"
        }
      ],
      "name": "setConfiguration",
      "outputs": [],
      "payable": false,
      "stateMutability": "nonpayable",
      "type": "function"
    },
    {
      "constant": true,
      "inputs": [],
      "name": "CHALLENGE_BY_PAYMENT_ACTION",
      "outputs": [
        {
          "name": "",
          "type": "string"
        }
      ],
      "payable": false,
      "stateMutability": "view",
      "type": "function"
    },
    {
      "constant": false,
      "inputs": [
        {
          "name": "newSecurityBond",
          "type": "address"
        }
      ],
      "name": "setSecurityBond",
      "outputs": [],
      "payable": false,
      "stateMutability": "nonpayable",
      "type": "function"
    },
    {
      "constant": true,
      "inputs": [],
      "name": "securityBond",
      "outputs": [
        {
          "name": "",
          "type": "address"
        }
      ],
      "payable": false,
      "stateMutability": "view",
      "type": "function"
    },
    {
      "constant": true,
      "inputs": [],
      "name": "configuration",
      "outputs": [
        {
          "name": "",
          "type": "address"
        }
      ],
      "payable": false,
      "stateMutability": "view",
      "type": "function"
    },
    {
      "constant": false,
      "inputs": [],
      "name": "disableSelfDestruction",
      "outputs": [],
      "payable": false,
      "stateMutability": "nonpayable",
      "type": "function"
    },
    {
      "constant": false,
      "inputs": [
        {
          "name": "timeoutInSeconds",
          "type": "uint256"
        }
      ],
      "name": "setServiceActivationTimeout",
      "outputs": [],
      "payable": false,
      "stateMutability": "nonpayable",
      "type": "function"
    },
    {
      "constant": false,
      "inputs": [
        {
          "name": "newWalletLocker",
          "type": "address"
        }
      ],
      "name": "setWalletLocker",
      "outputs": [],
      "payable": false,
      "stateMutability": "nonpayable",
      "type": "function"
    },
    {
      "constant": false,
      "inputs": [
        {
          "name": "service",
          "type": "address"
        }
      ],
      "name": "registerServiceDeferred",
      "outputs": [],
      "payable": false,
      "stateMutability": "nonpayable",
      "type": "function"
    },
    {
      "constant": false,
      "inputs": [
        {
          "name": "newDeployer",
          "type": "address"
        }
      ],
      "name": "setDeployer",
      "outputs": [],
      "payable": false,
      "stateMutability": "nonpayable",
      "type": "function"
    },
    {
      "constant": false,
      "inputs": [
        {
          "name": "newOperator",
          "type": "address"
        }
      ],
      "name": "setOperator",
      "outputs": [],
      "payable": false,
      "stateMutability": "nonpayable",
      "type": "function"
    },
    {
      "constant": false,
      "inputs": [],
      "name": "freezeBalanceTracker",
      "outputs": [],
      "payable": false,
      "stateMutability": "nonpayable",
      "type": "function"
    },
    {
      "constant": true,
      "inputs": [],
      "name": "deployer",
      "outputs": [
        {
          "name": "",
          "type": "address"
        }
      ],
      "payable": false,
      "stateMutability": "view",
      "type": "function"
    },
    {
      "constant": true,
      "inputs": [],
      "name": "walletLocker",
      "outputs": [
        {
          "name": "",
          "type": "address"
        }
      ],
      "payable": false,
      "stateMutability": "view",
      "type": "function"
    },
    {
      "constant": true,
      "inputs": [],
      "name": "nullSettlementChallengeState",
      "outputs": [
        {
          "name": "",
          "type": "address"
        }
      ],
      "payable": false,
      "stateMutability": "view",
      "type": "function"
    },
    {
      "constant": false,
      "inputs": [
        {
          "name": "service",
          "type": "address"
        }
      ],
      "name": "registerService",
      "outputs": [],
      "payable": false,
      "stateMutability": "nonpayable",
      "type": "function"
    },
    {
      "inputs": [
        {
          "name": "deployer",
          "type": "address"
        }
      ],
      "payable": false,
      "stateMutability": "nonpayable",
      "type": "constructor"
    },
    {
      "anonymous": false,
      "inputs": [
        {
          "indexed": false,
          "name": "oldDriipSettlementChallengeState",
          "type": "address"
        },
        {
          "indexed": false,
          "name": "newDriipSettlementChallengeState",
          "type": "address"
        }
      ],
      "name": "SetDriipSettlementChallengeStateEvent",
      "type": "event"
    },
    {
      "anonymous": false,
      "inputs": [
        {
          "indexed": false,
          "name": "oldNullSettlementChallengeState",
          "type": "address"
        },
        {
          "indexed": false,
          "name": "newNullSettlementChallengeState",
          "type": "address"
        }
      ],
      "name": "SetNullSettlementChallengeStateEvent",
      "type": "event"
    },
    {
      "anonymous": false,
      "inputs": [
        {
          "indexed": false,
          "name": "wallet",
          "type": "address"
        },
        {
          "indexed": false,
          "name": "nonce",
          "type": "uint256"
        },
        {
          "components": [
            {
              "name": "nonce",
              "type": "uint256"
            },
            {
              "name": "amount",
              "type": "int256"
            },
            {
              "components": [
                {
                  "name": "ct",
                  "type": "address"
                },
                {
                  "name": "id",
                  "type": "uint256"
                }
              ],
              "name": "currency",
              "type": "tuple"
            },
            {
              "components": [
                {
                  "name": "nonce",
                  "type": "uint256"
                },
                {
                  "name": "wallet",
                  "type": "address"
                },
                {
                  "components": [
                    {
                      "name": "current",
                      "type": "int256"
                    },
                    {
                      "name": "previous",
                      "type": "int256"
                    }
                  ],
                  "name": "balances",
                  "type": "tuple"
                },
                {
                  "components": [
                    {
                      "components": [
                        {
                          "name": "amount",
                          "type": "int256"
                        },
                        {
                          "components": [
                            {
                              "name": "ct",
                              "type": "address"
                            },
                            {
                              "name": "id",
                              "type": "uint256"
                            }
                          ],
                          "name": "currency",
                          "type": "tuple"
                        }
                      ],
                      "name": "single",
                      "type": "tuple"
                    },
                    {
                      "components": [
                        {
                          "name": "originId",
                          "type": "uint256"
                        },
                        {
                          "components": [
                            {
                              "name": "amount",
                              "type": "int256"
                            },
                            {
                              "components": [
                                {
                                  "name": "ct",
                                  "type": "address"
                                },
                                {
                                  "name": "id",
                                  "type": "uint256"
                                }
                              ],
                              "name": "currency",
                              "type": "tuple"
                            }
                          ],
                          "name": "figure",
                          "type": "tuple"
                        }
                      ],
                      "name": "total",
                      "type": "tuple[]"
                    }
                  ],
                  "name": "fees",
                  "type": "tuple"
                }
              ],
              "name": "sender",
              "type": "tuple"
            },
            {
              "components": [
                {
                  "name": "nonce",
                  "type": "uint256"
                },
                {
                  "name": "wallet",
                  "type": "address"
                },
                {
                  "components": [
                    {
                      "name": "current",
                      "type": "int256"
                    },
                    {
                      "name": "previous",
                      "type": "int256"
                    }
                  ],
                  "name": "balances",
                  "type": "tuple"
                },
                {
                  "components": [
                    {
                      "components": [
                        {
                          "name": "originId",
                          "type": "uint256"
                        },
                        {
                          "components": [
                            {
                              "name": "amount",
                              "type": "int256"
                            },
                            {
                              "components": [
                                {
                                  "name": "ct",
                                  "type": "address"
                                },
                                {
                                  "name": "id",
                                  "type": "uint256"
                                }
                              ],
                              "name": "currency",
                              "type": "tuple"
                            }
                          ],
                          "name": "figure",
                          "type": "tuple"
                        }
                      ],
                      "name": "total",
                      "type": "tuple[]"
                    }
                  ],
                  "name": "fees",
                  "type": "tuple"
                }
              ],
              "name": "recipient",
              "type": "tuple"
            },
            {
              "components": [
                {
                  "name": "single",
                  "type": "int256"
                },
                {
                  "name": "total",
                  "type": "int256"
                }
              ],
              "name": "transfers",
              "type": "tuple"
            },
            {
              "components": [
                {
                  "components": [
                    {
                      "name": "hash",
                      "type": "bytes32"
                    },
                    {
                      "components": [
                        {
                          "name": "r",
                          "type": "bytes32"
                        },
                        {
                          "name": "s",
                          "type": "bytes32"
                        },
                        {
                          "name": "v",
                          "type": "uint8"
                        }
                      ],
                      "name": "signature",
                      "type": "tuple"
                    }
                  ],
                  "name": "wallet",
                  "type": "tuple"
                },
                {
                  "components": [
                    {
                      "name": "hash",
                      "type": "bytes32"
                    },
                    {
                      "components": [
                        {
                          "name": "r",
                          "type": "bytes32"
                        },
                        {
                          "name": "s",
                          "type": "bytes32"
                        },
                        {
                          "name": "v",
                          "type": "uint8"
                        }
                      ],
                      "name": "signature",
                      "type": "tuple"
                    }
                  ],
                  "name": "operator",
                  "type": "tuple"
                }
              ],
              "name": "seals",
              "type": "tuple"
            },
            {
              "name": "blockNumber",
              "type": "uint256"
            },
            {
              "name": "operatorId",
              "type": "uint256"
            }
          ],
          "indexed": false,
          "name": "payment",
          "type": "tuple"
        },
        {
          "indexed": false,
          "name": "challenger",
          "type": "address"
        }
      ],
      "name": "ChallengeByPaymentEvent",
      "type": "event"
    },
    {
      "anonymous": false,
      "inputs": [
        {
          "indexed": false,
          "name": "timeoutInSeconds",
          "type": "uint256"
        }
      ],
      "name": "ServiceActivationTimeoutEvent",
      "type": "event"
    },
    {
      "anonymous": false,
      "inputs": [
        {
          "indexed": false,
          "name": "service",
          "type": "address"
        }
      ],
      "name": "RegisterServiceEvent",
      "type": "event"
    },
    {
      "anonymous": false,
      "inputs": [
        {
          "indexed": false,
          "name": "service",
          "type": "address"
        },
        {
          "indexed": false,
          "name": "timeout",
          "type": "uint256"
        }
      ],
      "name": "RegisterServiceDeferredEvent",
      "type": "event"
    },
    {
      "anonymous": false,
      "inputs": [
        {
          "indexed": false,
          "name": "service",
          "type": "address"
        }
      ],
      "name": "DeregisterServiceEvent",
      "type": "event"
    },
    {
      "anonymous": false,
      "inputs": [
        {
          "indexed": false,
          "name": "service",
          "type": "address"
        },
        {
          "indexed": false,
          "name": "action",
          "type": "string"
        }
      ],
      "name": "EnableServiceActionEvent",
      "type": "event"
    },
    {
      "anonymous": false,
      "inputs": [
        {
          "indexed": false,
          "name": "service",
          "type": "address"
        },
        {
          "indexed": false,
          "name": "action",
          "type": "string"
        }
      ],
      "name": "DisableServiceActionEvent",
      "type": "event"
    },
    {
      "anonymous": false,
      "inputs": [
        {
          "indexed": false,
          "name": "oldFraudChallenge",
          "type": "address"
        },
        {
          "indexed": false,
          "name": "newFraudChallenge",
          "type": "address"
        }
      ],
      "name": "SetFraudChallengeEvent",
      "type": "event"
    },
    {
      "anonymous": false,
      "inputs": [
        {
          "indexed": false,
          "name": "oldBalanceTracker",
          "type": "address"
        },
        {
          "indexed": false,
          "name": "newBalanceTracker",
          "type": "address"
        }
      ],
      "name": "SetBalanceTrackerEvent",
      "type": "event"
    },
    {
      "anonymous": false,
      "inputs": [],
      "name": "FreezeBalanceTrackerEvent",
      "type": "event"
    },
    {
      "anonymous": false,
      "inputs": [
        {
          "indexed": false,
          "name": "oldWalletLocker",
          "type": "address"
        },
        {
          "indexed": false,
          "name": "newWalletLocker",
          "type": "address"
        }
      ],
      "name": "SetWalletLockerEvent",
      "type": "event"
    },
    {
      "anonymous": false,
      "inputs": [],
      "name": "FreezeWalletLockerEvent",
      "type": "event"
    },
    {
      "anonymous": false,
      "inputs": [
        {
          "indexed": false,
          "name": "oldSecurityBond",
          "type": "address"
        },
        {
          "indexed": false,
          "name": "newSecurityBond",
          "type": "address"
        }
      ],
      "name": "SetSecurityBondEvent",
      "type": "event"
    },
    {
      "anonymous": false,
      "inputs": [
        {
          "indexed": false,
          "name": "oldValidator",
          "type": "address"
        },
        {
          "indexed": false,
          "name": "newValidator",
          "type": "address"
        }
      ],
      "name": "SetValidatorEvent",
      "type": "event"
    },
    {
      "anonymous": false,
      "inputs": [
        {
          "indexed": false,
          "name": "oldConfiguration",
          "type": "address"
        },
        {
          "indexed": false,
          "name": "newConfiguration",
          "type": "address"
        }
      ],
      "name": "SetConfigurationEvent",
      "type": "event"
    },
    {
      "anonymous": false,
      "inputs": [
        {
          "indexed": false,
          "name": "oldDeployer",
          "type": "address"
        },
        {
          "indexed": false,
          "name": "newDeployer",
          "type": "address"
        }
      ],
      "name": "SetDeployerEvent",
      "type": "event"
    },
    {
      "anonymous": false,
      "inputs": [
        {
          "indexed": false,
          "name": "oldOperator",
          "type": "address"
        },
        {
          "indexed": false,
          "name": "newOperator",
          "type": "address"
        }
      ],
      "name": "SetOperatorEvent",
      "type": "event"
    },
    {
      "anonymous": false,
      "inputs": [
        {
          "indexed": false,
          "name": "wallet",
          "type": "address"
        }
      ],
      "name": "SelfDestructionDisabledEvent",
      "type": "event"
    },
    {
      "anonymous": false,
      "inputs": [
        {
          "indexed": false,
          "name": "wallet",
          "type": "address"
        }
      ],
      "name": "TriggerSelfDestructionEvent",
      "type": "event"
    },
    {
      "constant": false,
      "inputs": [
        {
          "name": "newDriipSettlementChallengeState",
          "type": "address"
        }
      ],
      "name": "setDriipSettlementChallengeState",
      "outputs": [],
      "payable": false,
      "stateMutability": "nonpayable",
      "type": "function"
    },
    {
      "constant": false,
      "inputs": [
        {
          "name": "newNullSettlementChallengeState",
          "type": "address"
        }
      ],
      "name": "setNullSettlementChallengeState",
      "outputs": [],
      "payable": false,
      "stateMutability": "nonpayable",
      "type": "function"
    },
    {
      "constant": false,
      "inputs": [
        {
          "name": "wallet",
          "type": "address"
        },
        {
          "components": [
            {
              "name": "nonce",
              "type": "uint256"
            },
            {
              "name": "amount",
              "type": "int256"
            },
            {
              "components": [
                {
                  "name": "ct",
                  "type": "address"
                },
                {
                  "name": "id",
                  "type": "uint256"
                }
              ],
              "name": "currency",
              "type": "tuple"
            },
            {
              "components": [
                {
                  "name": "nonce",
                  "type": "uint256"
                },
                {
                  "name": "wallet",
                  "type": "address"
                },
                {
                  "components": [
                    {
                      "name": "current",
                      "type": "int256"
                    },
                    {
                      "name": "previous",
                      "type": "int256"
                    }
                  ],
                  "name": "balances",
                  "type": "tuple"
                },
                {
                  "components": [
                    {
                      "components": [
                        {
                          "name": "amount",
                          "type": "int256"
                        },
                        {
                          "components": [
                            {
                              "name": "ct",
                              "type": "address"
                            },
                            {
                              "name": "id",
                              "type": "uint256"
                            }
                          ],
                          "name": "currency",
                          "type": "tuple"
                        }
                      ],
                      "name": "single",
                      "type": "tuple"
                    },
                    {
                      "components": [
                        {
                          "name": "originId",
                          "type": "uint256"
                        },
                        {
                          "components": [
                            {
                              "name": "amount",
                              "type": "int256"
                            },
                            {
                              "components": [
                                {
                                  "name": "ct",
                                  "type": "address"
                                },
                                {
                                  "name": "id",
                                  "type": "uint256"
                                }
                              ],
                              "name": "currency",
                              "type": "tuple"
                            }
                          ],
                          "name": "figure",
                          "type": "tuple"
                        }
                      ],
                      "name": "total",
                      "type": "tuple[]"
                    }
                  ],
                  "name": "fees",
                  "type": "tuple"
                }
              ],
              "name": "sender",
              "type": "tuple"
            },
            {
              "components": [
                {
                  "name": "nonce",
                  "type": "uint256"
                },
                {
                  "name": "wallet",
                  "type": "address"
                },
                {
                  "components": [
                    {
                      "name": "current",
                      "type": "int256"
                    },
                    {
                      "name": "previous",
                      "type": "int256"
                    }
                  ],
                  "name": "balances",
                  "type": "tuple"
                },
                {
                  "components": [
                    {
                      "components": [
                        {
                          "name": "originId",
                          "type": "uint256"
                        },
                        {
                          "components": [
                            {
                              "name": "amount",
                              "type": "int256"
                            },
                            {
                              "components": [
                                {
                                  "name": "ct",
                                  "type": "address"
                                },
                                {
                                  "name": "id",
                                  "type": "uint256"
                                }
                              ],
                              "name": "currency",
                              "type": "tuple"
                            }
                          ],
                          "name": "figure",
                          "type": "tuple"
                        }
                      ],
                      "name": "total",
                      "type": "tuple[]"
                    }
                  ],
                  "name": "fees",
                  "type": "tuple"
                }
              ],
              "name": "recipient",
              "type": "tuple"
            },
            {
              "components": [
                {
                  "name": "single",
                  "type": "int256"
                },
                {
                  "name": "total",
                  "type": "int256"
                }
              ],
              "name": "transfers",
              "type": "tuple"
            },
            {
              "components": [
                {
                  "components": [
                    {
                      "name": "hash",
                      "type": "bytes32"
                    },
                    {
                      "components": [
                        {
                          "name": "r",
                          "type": "bytes32"
                        },
                        {
                          "name": "s",
                          "type": "bytes32"
                        },
                        {
                          "name": "v",
                          "type": "uint8"
                        }
                      ],
                      "name": "signature",
                      "type": "tuple"
                    }
                  ],
                  "name": "wallet",
                  "type": "tuple"
                },
                {
                  "components": [
                    {
                      "name": "hash",
                      "type": "bytes32"
                    },
                    {
                      "components": [
                        {
                          "name": "r",
                          "type": "bytes32"
                        },
                        {
                          "name": "s",
                          "type": "bytes32"
                        },
                        {
                          "name": "v",
                          "type": "uint8"
                        }
                      ],
                      "name": "signature",
                      "type": "tuple"
                    }
                  ],
                  "name": "operator",
                  "type": "tuple"
                }
              ],
              "name": "seals",
              "type": "tuple"
            },
            {
              "name": "blockNumber",
              "type": "uint256"
            },
            {
              "name": "operatorId",
              "type": "uint256"
            }
          ],
          "name": "payment",
          "type": "tuple"
        },
        {
          "name": "challenger",
          "type": "address"
        }
      ],
      "name": "challengeByPayment",
      "outputs": [],
      "payable": false,
      "stateMutability": "nonpayable",
      "type": "function"
    }
  ],
  "bytecode": "0x60806040523480156200001157600080fd5b5060405160208062003c868339810180604052620000339190810190620000b6565b8080600160a060020a03811615156200004b57600080fd5b600160a060020a0381163014156200006257600080fd5b506000805461010060a860020a031916610100600160a060020a039390931692830217905560018054600160a060020a031916909117905550620000eb565b6000620000af8251620000df565b9392505050565b600060208284031215620000c957600080fd5b6000620000d78484620000a1565b949350505050565b600160a060020a031690565b613b8b80620000fb6000396000f3006080604052600436106101d45763ffffffff60e060020a60003504166301370d0681146101d95780631327d3d8146101fb57806317ba3f901461021b5780631913909214610251578063240625d8146102735780632738a112146102885780632aa1c9d91461029d5780632b5672e3146102bd5780632b91e0a9146102dd5780632f013a00146102fd5780633a5381b5146103125780633b58c501146103275780633b7bea6c146103475780633bd7857f146103695780633e59b7061461037e5780634476d23b1461039357806350b08c02146103b557806351d7cd61146103d5578063570ca735146103ea578063598b75ad146103ff5780635dc60def1461041f5780635df1b0a314610434578063627f09c314610454578063635af94e146104745780636792ce6e146104965780636926832c146104b65780636b0570d0146104d65780636c70bee9146104eb5780636ccb43c81461050057806370327ea1146105205780637e15dd5c14610535578063892860b2146105555780638e8cef12146105755780639621473514610595578063b3ab15fb146105b5578063b52d470a146105d5578063d5f39488146105ea578063e8ae41e3146105ff578063fa7424f214610614578063fdd9ec7d14610629575b600080fd5b3480156101e557600080fd5b506101f96101f43660046132a2565b610649565b005b34801561020757600080fd5b506101f96102163660046132a2565b6106f1565b34801561022757600080fd5b5061023b610236366004613175565b610789565b60405161024891906139c0565b60405180910390f35b34801561025d57600080fd5b506102666107c1565b60405161024891906139dc565b34801561027f57600080fd5b5061023b6107d0565b34801561029457600080fd5b506101f96107e0565b3480156102a957600080fd5b506101f96102b83660046132a2565b610846565b3480156102c957600080fd5b506101f96102d83660046131b1565b6108d7565b3480156102e957600080fd5b5061023b6102f8366004613175565b610a07565b34801561030957600080fd5b5061023b610a25565b34801561031e57600080fd5b50610266610a2e565b34801561033357600080fd5b506101f96103423660046131b1565b610a3d565b34801561035357600080fd5b5061035c610b1f565b60405161024891906139ce565b34801561037557600080fd5b50610266610b25565b34801561038a57600080fd5b5061023b610b34565b34801561039f57600080fd5b506103a8610b44565b604051610248919061371b565b3480156103c157600080fd5b506101f96103d0366004613175565b610b58565b3480156103e157600080fd5b50610266610c1a565b3480156103f657600080fd5b506103a8610c29565b34801561040b57600080fd5b506101f961041a3660046132a2565b610c38565b34801561042b57600080fd5b506101f9610ce7565b34801561044057600080fd5b5061023b61044f3660046131b1565b610d3b565b34801561046057600080fd5b506101f961046f3660046132a2565b610d8c565b34801561048057600080fd5b50610489610e24565b6040516102489190613a13565b3480156104a257600080fd5b506101f96104b13660046132a2565b610e55565b3480156104c257600080fd5b506101f96104d1366004613202565b610eed565b3480156104e257600080fd5b50610266611546565b3480156104f757600080fd5b50610266611555565b34801561050c57600080fd5b506101f961051b3660046132a2565b611564565b34801561052c57600080fd5b506101f96115e8565b34801561054157600080fd5b506101f9610550366004613385565b61164b565b34801561056157600080fd5b506101f96105703660046132a2565b61169e565b34801561058157600080fd5b506101f9610590366004613175565b61174d565b3480156105a157600080fd5b506101f96105b0366004613175565b6117cb565b3480156105c157600080fd5b506101f96105d0366004613175565b611889565b3480156105e157600080fd5b506101f9611933565b3480156105f657600080fd5b506103a8611987565b34801561060b57600080fd5b5061026661199b565b34801561062057600080fd5b506102666119aa565b34801561063557600080fd5b506101f9610644366004613175565b6119b9565b6000610653611a32565b151561065e57600080fd5b81600160a060020a038116151561067457600080fd5b6007548390600160a060020a0390811690821681146106ea5760078054600160a060020a03878116600160a060020a0319831617909255604051911694507f07998fa7be97abe2427246ae4688298c89d6196bbffdf0997b9495a8d27bc673906106e190869088906139ea565b60405180910390a15b5050505050565b60006106fb611a32565b151561070657600080fd5b81600160a060020a038116151561071c57600080fd5b6003548390600160a060020a0390811690821681146106ea5760038054600160a060020a03878116600160a060020a0319831617909255604051911694507f1882af944a16549c3d4f60e3cd26f158b0c7aac3222cf32971fc21375ce05f60906106e190869088906139ea565b600061079482610a07565b80156107bb5750600160a060020a0382166000908152600860205260409020600101544210155b92915050565b600654600160a060020a031681565b60055460a060020a900460ff1681565b336107e9610b44565b600160a060020a0316146107fc57600080fd5b60005460ff161561080c57600080fd5b7f787a5d936e74f4b564b9153575886059829c78cd9927b1be5e0d976b317ef7363360405161083b919061371b565b60405180910390a133ff5b6000610850611a32565b151561085b57600080fd5b81600160a060020a038116151561087157600080fd5b600a8054600160a060020a03858116600160a060020a03198316179283905560405191811694507f4f7125332801996cdeaabf9cff1ac89ddf4b52c673558936affe853ab64a88da926108ca92869291909116906139ea565b60405180910390a1505050565b60006108e1611a32565b15156108ec57600080fd5b82600160a060020a038116151561090257600080fd5b600160a060020a03811630141561091857600080fd5b600160a060020a03841660009081526008602052604090205460ff16151561093f57600080fd5b61094883611a48565b600160a060020a038516600090815260086020908152604080832084845260020190915290205490925060ff161561097f57600080fd5b600160a060020a0384166000908152600860208181526040808420868552600281018352818520805460ff19166001908117909155938352600301805493840181558452922001839055517fec1b982d69bfc1a6fd8becf191d9a633486c822d3bdedd52303ca81fa6357501906109f990869086906138a4565b60405180910390a150505050565b600160a060020a031660009081526008602052604090205460ff1690565b60005460ff1681565b600354600160a060020a031681565b6000610a47611a32565b1515610a5257600080fd5b82600160a060020a0381161515610a6857600080fd5b600160a060020a038116301415610a7e57600080fd5b610a8783611a48565b600160a060020a038516600090815260086020908152604080832084845260020190915290205490925060ff161515610abf57600080fd5b600160a060020a038416600090815260086020908152604080832085845260020190915290819020805460ff19169055517f92f4af6130f47c92f3899e06611c8c6ef191fb81207ad2675d134af619d2fe7d906109f990869086906138a4565b60095481565b600754600160a060020a031681565b60065460a060020a900460ff1681565b6000546101009004600160a060020a031690565b610b60611a32565b1515610b6b57600080fd5b80600160a060020a0381161515610b8157600080fd5b600160a060020a038116301415610b9757600080fd5b600160a060020a03821660009081526008602052604090205460ff161515610bbe57600080fd5b600160a060020a03821660009081526008602052604090819020805460ff19169055517f777645c5437dfbf962f57a281ead25f3d513f2f8e938685bbfc1738e81c9880e90610c0e90849061371b565b60405180910390a15050565b600a54600160a060020a031681565b600154600160a060020a031681565b6000610c42611a32565b1515610c4d57600080fd5b81600160a060020a0381161515610c6357600080fd5b6006548390600160a060020a0390811690821681146106ea5760065460a060020a900460ff1615610c9357600080fd5b60068054600160a060020a03878116600160a060020a0319831617909255604051911694507fb2a91d3a71b0c5bc7c083153b3474378e489506ba98bd4ddb1b9056fdc594bb5906106e190869088906139ea565b610cef611a32565b1515610cfa57600080fd5b6005805460a060020a60ff02191660a060020a1790556040517f56ec8900b9c4bf84f4b715a53068ca06961dd49084c07b481931e2c2045346e690600090a1565b600080610d4783611a48565b9050610d5284610789565b8015610d845750600160a060020a038416600090815260086020908152604080832084845260020190915290205460ff165b949350505050565b6000610d96611a32565b1515610da157600080fd5b81600160a060020a0381161515610db757600080fd5b6002548390600160a060020a0390811690821681146106ea5760028054600160a060020a03878116600160a060020a0319831617909255604051911694507f634f61bf00e14adedce330c80c2823e16e184f189ebe853e1ddecc4a268477ff906106e190869088906139ea565b6040805180820190915260148152606260020a7318da185b1b195b99d957d89e57dc185e5b595b9d02602082015281565b6000610e5f611a32565b1515610e6a57600080fd5b81600160a060020a0381161515610e8057600080fd5b6004548390600160a060020a0390811690821681146106ea5760048054600160a060020a03878116600160a060020a0319831617909255604051911694507fc9f3f00c1760fe26985aeacb814a21c56ea289d680562e89b249681b08c30382906106e190869088906139ea565b6040805180820190915260148152606260020a7318da185b1b195b99d957d89e57dc185e5b595b9d026020820152610f253382610d3b565b1515610f3057600080fd5b60035460405160e060020a63a865476b0281528491600160a060020a03169063a865476b90610f63908490600401613a24565b602060405180830381600087803b158015610f7d57600080fd5b505af1158015610f91573d6000803e3d6000fd5b505050506040513d601f19601f82011682018060405250610fb59190810190613266565b1515610fc057600080fd5b60035460405160e060020a63ef04ec9502815285918791600160a060020a039091169063ef04ec9590610ff99085908590600401613a35565b602060405180830381600087803b15801561101357600080fd5b505af1158015611027573d6000803e3d6000fd5b505050506040513d601f19601f8201168201806040525061104b9190810190613266565b151561105657600080fd5b60075460c0870151602001515160405160e360020a6310c7a6c1028152600160a060020a039092169163863d360891611091916004016139ce565b602060405180830381600087803b1580156110ab57600080fd5b505af11580156110bf573d6000803e3d6000fd5b505050506040513d601f19601f820116820180604052506110e39190810190613266565b156110ed57600080fd5b600a54604080880151905160e060020a635482c735028152600160a060020a0390921691635482c73591611126918b91906004016138c4565b602060405180830381600087803b15801561114057600080fd5b505af1158015611154573d6000803e3d6000fd5b505050506040513d601f19601f820116820180604052506111789190810190613266565b1561118257600080fd5b600a54604080880151905160e060020a632ee2ed25028152600160a060020a0390921691632ee2ed25916111bb918b91906004016138c4565b602060405180830381600087803b1580156111d557600080fd5b505af11580156111e9573d6000803e3d6000fd5b505050506040513d601f19601f8201168201806040525061120d9190810190613284565b6060870151511161121d57600080fd5b600a54604080880151905160e060020a63553d90e9028152600160a060020a039092169163553d90e991611256918b91906004016138c4565b602060405180830381600087803b15801561127057600080fd5b505af1158015611284573d6000803e3d6000fd5b505050506040513d601f19601f820116820180604052506112a89190810190613284565b606087015151116112b857600080fd5b6112c28787611b12565b15156112cd57600080fd5b6112e98787606001516040015160000151886040015188611d88565b600a60009054906101000a9004600160a060020a0316600160a060020a031663667666c8888860400151888a60e001518b60600151600001518c60c00151602001516000015173__PaymentTypesLib_______________________635174abe96040518163ffffffff1660e060020a02815260040160006040518083038186803b15801561137657600080fd5b505af415801561138a573d6000803e3d6000fd5b505050506040513d6000823e601f3d908101601f191682016040526113b29190810190613351565b6040518863ffffffff1660e060020a0281526004016113d797969594939291906138df565b600060405180830381600087803b1580156113f157600080fd5b505af1158015611405573d6000803e3d6000fd5b5050600b546040808a0151905160e260020a6309a216d5028152600160a060020a0390921693506326885b549250611442918b91906004016138c4565b600060405180830381600087803b15801561145c57600080fd5b505af1158015611470573d6000803e3d6000fd5b5050600a546040808a0151905160e060020a632ee2ed250281527fd8d5bde9d752987d232cc8e9b1b2db3b12c3a339d7bc16524cfdf9aef99f65e494508b9350600160a060020a0390921691632ee2ed25916114d1918591906004016138c4565b602060405180830381600087803b1580156114eb57600080fd5b505af11580156114ff573d6000803e3d6000fd5b505050506040513d601f19601f820116820180604052506115239190810190613284565b88886040516115359493929190613969565b60405180910390a150505050505050565b600454600160a060020a031681565b600254600160a060020a031681565b600061156e611a32565b151561157957600080fd5b81600160a060020a038116151561158f57600080fd5b600b8054600160a060020a03858116600160a060020a03198316179283905560405191811694507ff21c127205310467822e10c64b2d9ffae588e019194d6af71f2bdddc0b7ef526926108ca92869291909116906139ea565b336115f1610b44565b600160a060020a03161461160457600080fd5b6000805460ff191660011790556040517fd5a2a04a775c741c2ca0dc46ea7ce4835190e1aaf1ca018def0e82568ec336169061164190339061371b565b60405180910390a1565b611653611a32565b151561165e57600080fd5b60098190556040517f4f1d324a1cbffc352fb64f1d73d95e4b200d92f99ef39bf2d7f5b41f946909d6906116939083906139ce565b60405180910390a150565b60006116a8611a32565b15156116b357600080fd5b81600160a060020a03811615156116c957600080fd5b6005548390600160a060020a0390811690821681146106ea5760055460a060020a900460ff16156116f957600080fd5b60058054600160a060020a03878116600160a060020a0319831617909255604051911694507fa44d361e26327b72a7ccbeae801b3c5cd7677ea4fa74168b289e273c46bfecfc906106e190869088906139ea565b611755611a32565b151561176057600080fd5b80600160a060020a038116151561177657600080fd5b600160a060020a03811630141561178c57600080fd5b61179882600954611e37565b7f7f3a8349917003ed377f6e9ae1608b92edd893903f8983bd274b1f8373dd3b1182600954604051610c0e92919061394e565b60006117d5611a32565b15156117e057600080fd5b81600160a060020a03811615156117f657600080fd5b600160a060020a03811630141561180c57600080fd5b600054600160a060020a0384811661010090920416146118845760008054600160a060020a0385811661010090810261010060a860020a0319841617909355604051929091041692507f977e5fa58e458501775e0008d275006294c5249e3c08d1d0e3a9f3acad14f6e4906108ca9084908690613729565b505050565b6000611893611e89565b151561189e57600080fd5b81600160a060020a03811615156118b457600080fd5b600160a060020a0381163014156118ca57600080fd5b600154600160a060020a038481169116146118845760018054600160a060020a03858116600160a060020a0319831617909255604051911692507f9f611b789425d0d5b90b920f1b2852907dd865c80074a30b1629aaa041d1812c906108ca9084908690613729565b61193b611a32565b151561194657600080fd5b6006805460a060020a60ff02191660a060020a1790556040517f9c567b65fe8caab5ec7bc979a498a1322c1d4baf01a30727cbca137187560ea290600090a1565b6000546101009004600160a060020a031681565b600554600160a060020a031681565b600b54600160a060020a031681565b6119c1611a32565b15156119cc57600080fd5b80600160a060020a03811615156119e257600080fd5b600160a060020a0381163014156119f857600080fd5b611a03826000611e37565b7fb619d545cb511bd5f02907a1eac4f4cb8dace7b1846852fb0bf5e553937481c182604051610c0e919061371b565b6000546101009004600160a060020a0316331490565b6000816040516020018082805190602001908083835b60208310611a7d5780518252601f199092019160209182019101611a5e565b6001836020036101000a0380198251168184511680821785525050505050509050019150506040516020818303038152906040526040518082805190602001908083835b60208310611ae05780518252601f199092019160209182019101611ac1565b5181516020939093036101000a6000190180199091169216919091179052604051920182900390912095945050505050565b600a54604080830151905160e060020a63c46fcd750281526000928392839283928392600160a060020a039091169163c46fcd7591611b56918b91906004016138c4565b602060405180830381600087803b158015611b7057600080fd5b505af1158015611b84573d6000803e3d6000fd5b505050506040513d601f19601f82011682018060405250611ba89190810190613284565b604080880151600a54915160e060020a6309df8b0b028152929650611c8d92611c5c928b9291600160a060020a03909116906309df8b0b90611bf090859085906004016138c4565b602060405180830381600087803b158015611c0a57600080fd5b505af1158015611c1e573d6000803e3d6000fd5b505050506040513d601f19601f82011682018060405250611c429190810190613284565b600654600160a060020a031692919063ffffffff611e9a16565b6040880151600654611c8191600160a060020a03909116908b9063ffffffff611eb416565b9063ffffffff6120d116565b6060870151604090810151519088015160e0890151600654939650611cca93611c8192600160a060020a03909116918c919063ffffffff611e9a16565b600a54604080890151905160e060020a638ab3e965028152929450600160a060020a0390911691638ab3e96591611d06918b91906004016138c4565b602060405180830381600087803b158015611d2057600080fd5b505af1158015611d34573d6000803e3d6000fd5b505050506040513d601f19601f82011682018060405250611d589190810190613284565b9050611d6a828263ffffffff6120d116565b611d7a858563ffffffff61210d16565b1294505b5050505092915050565b600a5460405160e260020a6333ca4eab028152600160a060020a039091169063cf293aac90611dbd90879086906004016138c4565b602060405180830381600087803b158015611dd757600080fd5b505af1158015611deb573d6000803e3d6000fd5b505050506040513d601f19601f82011682018060405250611e0f9190810190613266565b15611e2557611e2084848484612142565b611e31565b611e31848484846123c6565b50505050565b600160a060020a03821660009081526008602052604090205460ff161515611e8557600160a060020a0382166000908152600860205260409020805460ff1916600190811782554283019101555b5050565b600154600160a060020a0316331490565b600080611ea9868686866127eb565b509695505050505050565b60006120c784600160a060020a03166371f4ec518587600160a060020a0316634652ec746040518163ffffffff1660e060020a028152600401602060405180830381600087803b158015611f0757600080fd5b505af1158015611f1b573d6000803e3d6000fd5b505050506040513d601f19601f82011682018060405250611f3f9190810190613284565b8651602088015160405160e060020a63ffffffff8716028152611f6894939291906004016137fb565b602060405180830381600087803b158015611f8257600080fd5b505af1158015611f96573d6000803e3d6000fd5b505050506040513d601f19601f82011682018060405250611fba9190810190613284565b85600160a060020a03166371f4ec518688600160a060020a031663ded113106040518163ffffffff1660e060020a028152600401602060405180830381600087803b15801561200857600080fd5b505af115801561201c573d6000803e3d6000fd5b505050506040513d601f19601f820116820180604052506120409190810190613284565b8751602089015160405160e060020a63ffffffff871602815261206994939291906004016137fb565b602060405180830381600087803b15801561208357600080fd5b505af1158015612097573d6000803e3d6000fd5b505050506040513d601f19601f820116820180604052506120bb9190810190613284565b9063ffffffff61210d16565b90505b9392505050565b60008082121580156120e557508282840313155b806120fc57506000821280156120fc575082828403135b151561210757600080fd5b50900390565b60008282018183128015906121225750838112155b80612137575060008312801561213757508381125b15156120ca57600080fd5b600a5460405160e060020a63b6e2fc33028152600160a060020a039091169063b6e2fc339061217790879086906004016138c4565b602060405180830381600087803b15801561219157600080fd5b505af11580156121a5573d6000803e3d6000fd5b505050506040513d601f19601f820116820180604052506121c991908101906132c0565b60018111156121d457fe5b600114156122cd57600554600a5460405160e060020a6356587229028152600160a060020a03928316926346c5c02392889291169063565872299061221f90849089906004016138c4565b602060405180830381600087803b15801561223957600080fd5b505af115801561224d573d6000803e3d6000fd5b505050506040513d601f19601f820116820180604052506122719190810190613193565b8551602087015160405160e060020a63ffffffff871602815261229a9493929190600401613744565b600060405180830381600087803b1580156122b457600080fd5b505af11580156122c8573d6000803e3d6000fd5b505050505b60055482516020808501516002546040805160e060020a63fbdfd8e70281529051600160a060020a0396871696639a545322968c968a968d9692959094929093169263fbdfd8e792600480830193928290030181600087803b15801561233257600080fd5b505af1158015612346573d6000803e3d6000fd5b505050506040513d601f19601f8201168201806040525061236a9190810190613284565b6040518763ffffffff1660e060020a02815260040161238e96959493929190613779565b600060405180830381600087803b1580156123a857600080fd5b505af11580156123bc573d6000803e3d6000fd5b5050505050505050565b6123ce612b7c565b600a5460405160e060020a63b6e2fc33028152600091600160a060020a03169063b6e2fc339061240490899088906004016138c4565b602060405180830381600087803b15801561241e57600080fd5b505af1158015612432573d6000803e3d6000fd5b505050506040513d601f19601f8201168201806040525061245691908101906132c0565b600181111561246157fe5b600114156125575760048054600a5460405160e060020a6356587229028152600160a060020a0392831693634e791e0d93909216916356587229916124aa918c918b91016138c4565b602060405180830381600087803b1580156124c457600080fd5b505af11580156124d8573d6000803e3d6000fd5b505050506040513d601f19601f820116820180604052506124fc9190810190613193565b8651602088015160405160e060020a63ffffffff8616028152612524939291906004016137d3565b600060405180830381600087803b15801561253e57600080fd5b505af1158015612552573d6000803e3d6000fd5b505050505b61255f612aaf565b600480548251602080850151805191015160405160e160020a634197bc19028152959750600160a060020a039093169463832f7832946125a8948a949392909160009101613862565b600060405180830381600087803b1580156125c257600080fd5b505af11580156125d6573d6000803e3d6000fd5b50506004805487516020808a01516002546040805160e160020a63560069d9028152905173__SafeMathIntLib________________________995063755875b298508e97600160a060020a039788169763a72148eb979694169363ac00d3b293808301939192908290030181600087803b15801561265357600080fd5b505af1158015612667573d6000803e3d6000fd5b505050506040513d601f19601f8201168201806040525061268b9190810190613284565b6040518463ffffffff1660e060020a0281526004016126ac939291906139a5565b602060405180830381600087803b1580156126c657600080fd5b505af11580156126da573d6000803e3d6000fd5b505050506040513d601f19601f820116820180604052506126fe9190810190613284565b6040518363ffffffff1660e060020a02815260040161271e929190613a05565b60206040518083038186803b15801561273657600080fd5b505af415801561274a573d6000803e3d6000fd5b505050506040513d601f19601f8201168201806040525061276e9190810190613284565b600480548651602088015160405160e160020a634197bc19028152949550600160a060020a039092169363832f7832936127b19389938893909260009101613862565b600060405180830381600087803b1580156127cb57600080fd5b505af11580156127df573d6000803e3d6000fd5b50505050505050505050565b60008060008060008089600160a060020a031663a246138c8a8c600160a060020a031663ded113106040518163ffffffff1660e060020a028152600401602060405180830381600087803b15801561284257600080fd5b505af1158015612856573d6000803e3d6000fd5b505050506040513d601f19601f8201168201806040525061287a9190810190613284565b8b5160208d015160405160e060020a63ffffffff87160281526128a594939291908e90600401613816565b6040805180830381600087803b1580156128be57600080fd5b505af11580156128d2573d6000803e3d6000fd5b505050506040513d601f19601f820116820180604052506128f69190810190613321565b9350935089600160a060020a031663a246138c8a8c600160a060020a0316634652ec746040518163ffffffff1660e060020a028152600401602060405180830381600087803b15801561294857600080fd5b505af115801561295c573d6000803e3d6000fd5b505050506040513d601f19601f820116820180604052506129809190810190613284565b8b5160208d015160405160e060020a63ffffffff87160281526129ab94939291908e90600401613816565b6040805180830381600087803b1580156129c457600080fd5b505af11580156129d8573d6000803e3d6000fd5b505050506040513d601f19601f820116820180604052506129fc9190810190613321565b9092509050612a11848363ffffffff61210d16565b60405160e060020a63a682d5ad02815290965073__SafeMathUintLib_______________________9063a682d5ad90612a509086908590600401613a05565b60206040518083038186803b158015612a6857600080fd5b505af4158015612a7c573d6000803e3d6000fd5b505050506040513d601f19601f82011682018060405250612aa09190810190613284565b94505050505094509492505050565b612ab7612b7c565b6000806000600260009054906101000a9004600160a060020a0316600160a060020a031663ccd03d2e6040518163ffffffff1660e060020a028152600401606060405180830381600087803b158015612b0f57600080fd5b505af1158015612b23573d6000803e3d6000fd5b505050506040513d601f19601f82011682018060405250612b4791908101906132de565b6040805180820182529384528051808201909152600160a060020a039092168252602082810191909152820152949350505050565b60606040519081016040528060008152602001612b97612b9c565b905290565b604080518082019091526000808252602082015290565b60006120ca8235613acc565b60006120ca8251613acc565b6000601f82018313612bdc57600080fd5b8135612bef612bea82613a7b565b613a55565b91508181835260208401935060208101905083856080840282011115612c1457600080fd5b60005b83811015611d7e5781612c2a8882612dbf565b84525060209092019160809190910190600101612c17565b60006120ca8251613ad8565b60006120ca8235613add565b60006120ca8251613add565b60006120ca8235613ae6565b60006120ca8251613af1565b6000601f82018313612c8f57600080fd5b8135612c9d612bea82613a9b565b91508082526020830160208301858383011115612cb957600080fd5b612cc4838284613b0f565b50505092915050565b6000601f82018313612cde57600080fd5b8151612cec612bea82613a9b565b91508082526020830160208301858383011115612d0857600080fd5b612cc4838284613b1b565b600060408284031215612d2557600080fd5b612d2f6040613a55565b90506000612d3d8484612bb3565b8252506020612d4e84848301612c4e565b60208301525092915050565b600060408284031215612d6c57600080fd5b612d766040613a55565b90506000612d3d8484612c4e565b600060608284031215612d9657600080fd5b612da06040613a55565b90506000612dae8484612c4e565b8252506020612d4e84848301612d13565b600060808284031215612dd157600080fd5b612ddb6040613a55565b90506000612de98484612c4e565b8252506020612d4e84848301612d84565b600060a08284031215612e0c57600080fd5b612e166080613a55565b90506000612e248484612c4e565b8252506020612e3584848301612bb3565b6020830152506040612e4984828501612d5a565b60408301525060808201356001604060020a03811115612e6857600080fd5b612e74848285016130e4565b60608301525092915050565b600060a08284031215612e9257600080fd5b612e9c6080613a55565b90506000612eaa8484612c4e565b8252506020612ebb84848301612bb3565b6020830152506040612ecf84828501612d5a565b60408301525060808201356001604060020a03811115612eee57600080fd5b612e7484828501613092565b60006102408284031215612f0d57600080fd5b612f18610120613a55565b90506000612f268484612c4e565b8252506020612f3784848301612c4e565b6020830152506040612f4b84828501612d13565b60408301525060808201356001604060020a03811115612f6a57600080fd5b612f7684828501612e80565b60608301525060a08201356001604060020a03811115612f9557600080fd5b612fa184828501612dfa565b60808301525060c0612fb584828501612d5a565b60a083015250610100612fca8482850161312d565b60c083015250610200612fdf84828501612c4e565b60e083015250610220612ff484828501612c4e565b6101008301525092915050565b60006080828403121561301357600080fd5b61301d6040613a55565b9050600061302b8484612c4e565b8252506020612d4e8484830160006060828403121561304957600080fd5b6130536060613a55565b905060006130618484612c4e565b825250602061307284848301612c4e565b602083015250604061308684828501613169565b60408301525092915050565b6000608082840312156130a457600080fd5b6130ae6040613a55565b905060006130bc8484612d84565b82525060608201356001604060020a038111156130d857600080fd5b612d4e84828501612bcb565b6000602082840312156130f657600080fd5b6131006020613a55565b905081356001604060020a0381111561311857600080fd5b61312484828501612bcb565b82525092915050565b6000610100828403121561314057600080fd5b61314a6040613a55565b905060006131588484613001565b8252506080612d4e84848301613001565b60006120ca8235613ae0565b60006020828403121561318757600080fd5b6000610d848484612bb3565b6000602082840312156131a557600080fd5b6000610d848484612bbf565b600080604083850312156131c457600080fd5b60006131d08585612bb3565b92505060208301356001604060020a038111156131ec57600080fd5b6131f885828601612c7e565b9150509250929050565b60008060006060848603121561321757600080fd5b60006132238686612bb3565b93505060208401356001604060020a0381111561323f57600080fd5b61324b86828701612efa565b925050604061325c86828701612bb3565b9150509250925092565b60006020828403121561327857600080fd5b6000610d848484612c42565b60006020828403121561329657600080fd5b6000610d848484612c5a565b6000602082840312156132b457600080fd5b6000610d848484612c66565b6000602082840312156132d257600080fd5b6000610d848484612c72565b6000806000606084860312156132f357600080fd5b60006132ff8686612c5a565b935050602061331086828701612bbf565b925050604061325c86828701612c5a565b6000806040838503121561333457600080fd5b60006133408585612c5a565b92505060206131f885828601612c5a565b60006020828403121561336357600080fd5b81516001604060020a0381111561337957600080fd5b610d8484828501612ccd565b60006020828403121561339757600080fd5b6000610d848484612c4e565b6133ac81613acc565b82525050565b60006133bd82613ac8565b8084526020840193506133cf83613ac2565b60005b828110156133ff576133e58683516134bb565b6133ee82613ac2565b6080969096019591506001016133d2565b5093949350505050565b6133ac81613ad8565b6133ac81613add565b6133ac81613ae6565b6133ac81613b04565b600061343882613ac8565b80845261344c816020860160208601613b1b565b61345581613b47565b9093016020019392505050565b8051604083019061347384826133a3565b506020820151611e316020850182613412565b805160408301906134738482613412565b805160608301906134a88482613412565b506020820151611e316020850182613462565b805160808301906134cc8482613412565b506020820151611e316020850182613497565b805160009060a08401906134f38582613412565b50602083015161350660208601826133a3565b5060408301516135196040860182613486565b506060830151848203608086015261353182826136d5565b95945050505050565b805160009060a084019061354e8582613412565b50602083015161356160208601826133a3565b5060408301516135746040860182613486565b506060830151848203608086015261353182826136a9565b80516000906102408401906135a18582613412565b5060208301516135b46020860182613412565b5060408301516135c76040860182613462565b50606083015184820360808601526135df828261353a565b915050608083015184820360a08601526135f982826134df565b91505060a083015161360e60c0860182613486565b5060c08301516136226101008601826136ed565b5060e0830151613636610200860182613412565b5061010083015161364b610220860182613412565b509392505050565b805160808301906136648482613412565b506020820151611e316020850182805160608301906136838482613412565b5060208201516136966020850182613412565b506040820151611e316040850182613712565b805160009060808401906136bd8582613497565b506020830151848203606086015261353182826133b2565b805160208084526000919084019061353182826133b2565b80516101008301906136ff8482613653565b506020820151611e316080850182613653565b6133ac81613ae0565b602081016107bb82846133a3565b6040810161373782856133a3565b6120ca60208301846133a3565b6080810161375282876133a3565b61375f60208301866133a3565b61376c60408301856133a3565b6135316060830184613412565b60c0810161378782896133a3565b61379460208301886133a3565b6137a16040830187613412565b6137ae60608301866133a3565b6137bb6080830185613412565b6137c860a0830184613412565b979650505050505050565b606081016137e182866133a3565b6137ee60208301856133a3565b610d846040830184613412565b6080810161380982876133a3565b61375f6020830186613412565b60a0810161382482886133a3565b6138316020830187613412565b61383e60408301866133a3565b61384b6060830185613412565b6138586080830184613412565b9695505050505050565b60a0810161387082886133a3565b61387d6020830187613412565b61388a60408301866133a3565b6138976060830185613412565b6138586080830184613424565b604081016138b282856133a3565b81810360208301526120c7818461342d565b606081016138d282856133a3565b6120ca6020830184613462565b61010081016138ee828a6133a3565b6138fb6020830189613462565b61390860608301886133a3565b6139156080830187613412565b61392260a0830186613412565b61392f60c0830185613412565b81810360e0830152613941818461342d565b9998505050505050505050565b6040810161395c82856133a3565b6120ca6020830184613412565b6080810161397782876133a3565b6139846020830186613412565b8181036040830152613996818561358c565b905061353160608301846133a3565b606081016139b382866133a3565b6137ee6020830185613412565b602081016107bb8284613409565b602081016107bb8284613412565b602081016107bb828461341b565b604081016139f8828561341b565b6120ca602083018461341b565b6040810161395c8285613412565b602080825281016120ca818461342d565b602080825281016120ca818461358c565b60408082528101613a46818561358c565b90506120ca60208301846133a3565b6040518181016001604060020a0381118282101715613a7357600080fd5b604052919050565b60006001604060020a03821115613a9157600080fd5b5060209081020190565b60006001604060020a03821115613ab157600080fd5b506020601f91909101601f19160190565b60200190565b5190565b600160a060020a031690565b151590565b90565b60ff1690565b60006107bb82613acc565b600060028210613b0057600080fd5b5090565b60006107bb82613add565b82818337506000910152565b60005b83811015613b36578181015183820152602001613b1e565b83811115611e315750506000910152565b601f01601f1916905600a265627a7a7230582072b5734431f5d1c83e074aeb21beceff441d1ac5f288b003a51f5fc10c6b1b436c6578706572696d656e74616cf50037",
  "source": "/*\n * Hubii Nahmii\n *\n * Compliant with the Hubii Nahmii specification v0.12.\n *\n * Copyright (C) 2017-2018 Hubii AS\n */\n\npragma solidity ^0.4.25;\npragma experimental ABIEncoderV2;\n\nimport {Ownable} from \"./Ownable.sol\";\nimport {Configurable} from \"./Configurable.sol\";\nimport {Validatable} from \"./Validatable.sol\";\nimport {SecurityBondable} from \"./SecurityBondable.sol\";\nimport {WalletLockable} from \"./WalletLockable.sol\";\nimport {BalanceTrackable} from \"./BalanceTrackable.sol\";\nimport {FraudChallengable} from \"./FraudChallengable.sol\";\nimport {Servable} from \"./Servable.sol\";\nimport {SafeMathIntLib} from \"./SafeMathIntLib.sol\";\nimport {SafeMathUintLib} from \"./SafeMathUintLib.sol\";\nimport {MonetaryTypesLib} from \"./MonetaryTypesLib.sol\";\nimport {NahmiiTypesLib} from \"./NahmiiTypesLib.sol\";\nimport {PaymentTypesLib} from \"./PaymentTypesLib.sol\";\nimport {SettlementChallengeTypesLib} from \"./SettlementChallengeTypesLib.sol\";\nimport {DriipSettlementChallengeState} from \"./DriipSettlementChallengeState.sol\";\nimport {NullSettlementChallengeState} from \"./NullSettlementChallengeState.sol\";\nimport {BalanceTracker} from \"./BalanceTracker.sol\";\nimport {BalanceTrackerLib} from \"./BalanceTrackerLib.sol\";\n\n/**\n * @title DriipSettlementDisputeByPayment\n * @notice The where payment related disputes of driip settlement challenge happens\n */\ncontract DriipSettlementDisputeByPayment is Ownable, Configurable, Validatable, SecurityBondable, WalletLockable,\nBalanceTrackable, FraudChallengable, Servable {\n    using SafeMathIntLib for int256;\n    using SafeMathUintLib for uint256;\n    using BalanceTrackerLib for BalanceTracker;\n\n    //\n    // Constants\n    // -----------------------------------------------------------------------------------------------------------------\n    string constant public CHALLENGE_BY_PAYMENT_ACTION = \"challenge_by_payment\";\n\n    //\n    // Variables\n    // -----------------------------------------------------------------------------------------------------------------\n    DriipSettlementChallengeState public driipSettlementChallengeState;\n    NullSettlementChallengeState public nullSettlementChallengeState;\n\n    //\n    // Events\n    // -----------------------------------------------------------------------------------------------------------------\n    event SetDriipSettlementChallengeStateEvent(DriipSettlementChallengeState oldDriipSettlementChallengeState,\n        DriipSettlementChallengeState newDriipSettlementChallengeState);\n    event SetNullSettlementChallengeStateEvent(NullSettlementChallengeState oldNullSettlementChallengeState,\n        NullSettlementChallengeState newNullSettlementChallengeState);\n    event ChallengeByPaymentEvent(address wallet, uint256 nonce, PaymentTypesLib.Payment payment,\n        address challenger);\n\n    //\n    // Constructor\n    // -----------------------------------------------------------------------------------------------------------------\n    constructor(address deployer) Ownable(deployer) public {\n    }\n\n    /// @notice Set the driip settlement state contract\n    /// @param newDriipSettlementChallengeState The (address of) DriipSettlementChallengeState contract instance\n    function setDriipSettlementChallengeState(DriipSettlementChallengeState newDriipSettlementChallengeState) public\n    onlyDeployer\n    notNullAddress(newDriipSettlementChallengeState)\n    {\n        DriipSettlementChallengeState oldDriipSettlementChallengeState = driipSettlementChallengeState;\n        driipSettlementChallengeState = newDriipSettlementChallengeState;\n        emit SetDriipSettlementChallengeStateEvent(oldDriipSettlementChallengeState, driipSettlementChallengeState);\n    }\n\n    /// @notice Set the null settlement state contract\n    /// @param newNullSettlementChallengeState The (address of) NullSettlementChallengeState contract instance\n    function setNullSettlementChallengeState(NullSettlementChallengeState newNullSettlementChallengeState) public\n    onlyDeployer\n    notNullAddress(newNullSettlementChallengeState)\n    {\n        NullSettlementChallengeState oldNullSettlementChallengeState = nullSettlementChallengeState;\n        nullSettlementChallengeState = newNullSettlementChallengeState;\n        emit SetNullSettlementChallengeStateEvent(oldNullSettlementChallengeState, nullSettlementChallengeState);\n    }\n\n    /// @notice Challenge the driip settlement by providing payment candidate\n    /// @dev This challenges the payment sender's side of things\n    /// @param wallet The concerned party\n    /// @param payment The payment candidate that challenges the challenged driip\n    /// @param challenger The address of the challenger\n    function challengeByPayment(address wallet, PaymentTypesLib.Payment payment, address challenger)\n    public\n    onlyEnabledServiceAction(CHALLENGE_BY_PAYMENT_ACTION)\n    onlySealedPayment(payment)\n    onlyPaymentSender(payment, wallet)\n    {\n        // Require that payment candidate is not labelled fraudulent\n        require(!fraudChallenge.isFraudulentPaymentHash(payment.seals.operator.hash));\n\n        // Require that proposal has not expired\n        require(!driipSettlementChallengeState.hasProposalExpired(wallet, payment.currency));\n\n        // Require that payment party's nonce is strictly greater than proposal's nonce and its current\n        // disqualification nonce\n        require(payment.sender.nonce > driipSettlementChallengeState.proposalNonce(\n            wallet, payment.currency\n        ));\n        require(payment.sender.nonce > driipSettlementChallengeState.proposalDisqualificationNonce(\n            wallet, payment.currency\n        ));\n\n        // Require overrun for this payment to be a valid challenge candidate\n        require(_overrun(wallet, payment));\n\n        // Reward challenger\n        _settleRewards(wallet, payment.sender.balances.current, payment.currency, challenger);\n\n        // Disqualify proposal, effectively overriding any previous disqualification\n        driipSettlementChallengeState.disqualifyProposal(\n            wallet, payment.currency, challenger, payment.blockNumber,\n            payment.sender.nonce, payment.seals.operator.hash, PaymentTypesLib.PAYMENT_KIND()\n        );\n\n        // Cancel dependent null settlement challenge if existent\n        nullSettlementChallengeState.removeProposal(wallet, payment.currency);\n\n        // Emit event\n        emit ChallengeByPaymentEvent(\n            wallet, driipSettlementChallengeState.proposalNonce(wallet, payment.currency), payment, challenger\n        );\n    }\n\n    //\n    // Private functions\n    // -----------------------------------------------------------------------------------------------------------------\n    function _overrun(address wallet, PaymentTypesLib.Payment payment)\n    private\n    view\n    returns (bool)\n    {\n        // Get the target balance amount from the proposal\n        int targetBalanceAmount = driipSettlementChallengeState.proposalTargetBalanceAmount(\n            wallet, payment.currency\n        );\n\n        // Get the change in active balance since the start of the challenge\n        int256 deltaBalanceSinceStart = balanceTracker.fungibleActiveBalanceAmount(\n            wallet, payment.currency\n        ).sub(\n            balanceTracker.fungibleActiveBalanceAmountByBlockNumber(\n                wallet, payment.currency,\n                driipSettlementChallengeState.proposalBlockNumber(wallet, payment.currency)\n            )\n        );\n\n        // Get the cumulative transfer of the payment\n        int256 paymentCumulativeTransfer = balanceTracker.fungibleActiveBalanceAmountByBlockNumber(\n            wallet, payment.currency, payment.blockNumber\n        ).sub(payment.sender.balances.current);\n\n        // Get the cumulative transfer of the proposal (i.e. of challenged payment)\n        int proposalCumulativeTransfer = driipSettlementChallengeState.proposalCumulativeTransferAmount(\n            wallet, payment.currency\n        );\n\n        return targetBalanceAmount.add(deltaBalanceSinceStart) < paymentCumulativeTransfer.sub(proposalCumulativeTransfer);\n    }\n\n    // Lock wallet's balances or reward challenger by stake fraction\n    function _settleRewards(address wallet, int256 walletAmount, MonetaryTypesLib.Currency currency,\n        address challenger)\n    private\n    {\n        if (driipSettlementChallengeState.proposalWalletInitiated(wallet, currency))\n            _settleBalanceReward(wallet, walletAmount, currency, challenger);\n\n        else\n            _settleSecurityBondReward(wallet, walletAmount, currency, challenger);\n    }\n\n    function _settleBalanceReward(address wallet, int256 walletAmount, MonetaryTypesLib.Currency currency,\n        address challenger)\n    private\n    {\n        // Unlock wallet/currency for existing challenger if previously locked\n        if (SettlementChallengeTypesLib.Status.Disqualified == driipSettlementChallengeState.proposalStatus(\n            wallet, currency\n        ))\n            walletLocker.unlockFungibleByProxy(\n                wallet,\n                driipSettlementChallengeState.proposalDisqualificationChallenger(\n                    wallet, currency\n                ),\n                currency.ct, currency.id\n            );\n\n        // Lock wallet for new challenger\n        walletLocker.lockFungibleByProxy(\n            wallet, challenger, walletAmount, currency.ct, currency.id, configuration.settlementChallengeTimeout()\n        );\n    }\n\n    // Settle the two-component reward from security bond.\n    // The first component is flat figure as obtained from Configuration\n    // The second component is progressive and calculated as\n    //    min(walletAmount, fraction of SecurityBond's deposited balance)\n    // both amounts for the given currency\n    function _settleSecurityBondReward(address wallet, int256 walletAmount, MonetaryTypesLib.Currency currency,\n        address challenger)\n    private\n    {\n        // Deprive existing challenger of reward if previously locked\n        if (SettlementChallengeTypesLib.Status.Disqualified == driipSettlementChallengeState.proposalStatus(\n            wallet, currency\n        ))\n            securityBond.depriveAbsolute(\n                driipSettlementChallengeState.proposalDisqualificationChallenger(\n                    wallet, currency\n                ),\n                currency.ct, currency.id\n            );\n\n        // Reward the flat component\n        MonetaryTypesLib.Figure memory flatReward = _flatReward();\n        securityBond.rewardAbsolute(\n            challenger, flatReward.amount, flatReward.currency.ct, flatReward.currency.id, 0\n        );\n\n        // Reward the progressive component\n        int256 progressiveRewardAmount = walletAmount.clampMax(\n            securityBond.depositedFractionalBalance(\n                currency.ct, currency.id, configuration.operatorSettlementStakeFraction()\n            )\n        );\n        securityBond.rewardAbsolute(\n            challenger, progressiveRewardAmount, currency.ct, currency.id, 0\n        );\n    }\n\n    function _flatReward()\n    private\n    view\n    returns (MonetaryTypesLib.Figure)\n    {\n        (int256 amount, address currencyCt, uint256 currencyId) = configuration.operatorSettlementStake();\n        return MonetaryTypesLib.Figure(amount, MonetaryTypesLib.Currency(currencyCt, currencyId));\n    }\n}",
  "sourcePath": "/opt/buildagent/work/855e104608380c36/contracts/DriipSettlementDisputeByPayment.sol",
  "compiler": {
    "name": "solc",
    "version": "0.4.25+commit.59dbf8f1.Emscripten.clang"
  },
  "schemaVersion": "2.0.2",
  "updatedAt": "2019-04-02T08:24:31.961Z"
}