{
  "contractName": "DriipSettlementDisputeByTrade",
  "abi": [
    {
      "constant": false,
      "inputs": [
        {
          "name": "newFraudChallenge",
          "type": "address"
        }
      ],
      "name": "setFraudChallenge",
      "outputs": [],
      "payable": false,
      "stateMutability": "nonpayable",
      "type": "function"
    },
    {
      "constant": true,
      "inputs": [],
      "name": "cancelOrdersChallenge",
      "outputs": [
        {
          "name": "",
          "type": "address"
        }
      ],
      "payable": false,
      "stateMutability": "view",
      "type": "function"
    },
    {
      "constant": true,
      "inputs": [],
      "name": "CHALLENGE_BY_TRADE_ACTION",
      "outputs": [
        {
          "name": "",
          "type": "string"
        }
      ],
      "payable": false,
      "stateMutability": "view",
      "type": "function"
    },
    {
      "constant": true,
      "inputs": [],
      "name": "UNCHALLENGE_ORDER_CANDIDATE_BY_TRADE_ACTION",
      "outputs": [
        {
          "name": "",
          "type": "string"
        }
      ],
      "payable": false,
      "stateMutability": "view",
      "type": "function"
    },
    {
      "constant": false,
      "inputs": [
        {
          "name": "newValidator",
          "type": "address"
        }
      ],
      "name": "setValidator",
      "outputs": [],
      "payable": false,
      "stateMutability": "nonpayable",
      "type": "function"
    },
    {
      "constant": true,
      "inputs": [],
      "name": "CHALLENGE_BY_ORDER_ACTION",
      "outputs": [
        {
          "name": "",
          "type": "string"
        }
      ],
      "payable": false,
      "stateMutability": "view",
      "type": "function"
    },
    {
      "constant": true,
      "inputs": [
        {
          "name": "service",
          "type": "address"
        }
      ],
      "name": "isRegisteredActiveService",
      "outputs": [
        {
          "name": "",
          "type": "bool"
        }
      ],
      "payable": false,
      "stateMutability": "view",
      "type": "function"
    },
    {
      "constant": true,
      "inputs": [],
      "name": "walletLockerFrozen",
      "outputs": [
        {
          "name": "",
          "type": "bool"
        }
      ],
      "payable": false,
      "stateMutability": "view",
      "type": "function"
    },
    {
      "constant": false,
      "inputs": [],
      "name": "triggerSelfDestruction",
      "outputs": [],
      "payable": false,
      "stateMutability": "nonpayable",
      "type": "function"
    },
    {
      "constant": false,
      "inputs": [
        {
          "name": "service",
          "type": "address"
        },
        {
          "name": "action",
          "type": "string"
        }
      ],
      "name": "enableServiceAction",
      "outputs": [],
      "payable": false,
      "stateMutability": "nonpayable",
      "type": "function"
    },
    {
      "constant": true,
      "inputs": [
        {
          "name": "service",
          "type": "address"
        }
      ],
      "name": "isRegisteredService",
      "outputs": [
        {
          "name": "",
          "type": "bool"
        }
      ],
      "payable": false,
      "stateMutability": "view",
      "type": "function"
    },
    {
      "constant": true,
      "inputs": [],
      "name": "selfDestructionDisabled",
      "outputs": [
        {
          "name": "",
          "type": "bool"
        }
      ],
      "payable": false,
      "stateMutability": "view",
      "type": "function"
    },
    {
      "constant": true,
      "inputs": [],
      "name": "validator",
      "outputs": [
        {
          "name": "",
          "type": "address"
        }
      ],
      "payable": false,
      "stateMutability": "view",
      "type": "function"
    },
    {
      "constant": false,
      "inputs": [
        {
          "name": "service",
          "type": "address"
        },
        {
          "name": "action",
          "type": "string"
        }
      ],
      "name": "disableServiceAction",
      "outputs": [],
      "payable": false,
      "stateMutability": "nonpayable",
      "type": "function"
    },
    {
      "constant": true,
      "inputs": [],
      "name": "serviceActivationTimeout",
      "outputs": [
        {
          "name": "",
          "type": "uint256"
        }
      ],
      "payable": false,
      "stateMutability": "view",
      "type": "function"
    },
    {
      "constant": true,
      "inputs": [],
      "name": "fraudChallenge",
      "outputs": [
        {
          "name": "",
          "type": "address"
        }
      ],
      "payable": false,
      "stateMutability": "view",
      "type": "function"
    },
    {
      "constant": false,
      "inputs": [
        {
          "name": "newCancelOrdersChallenge",
          "type": "address"
        }
      ],
      "name": "setCancelOrdersChallenge",
      "outputs": [],
      "payable": false,
      "stateMutability": "nonpayable",
      "type": "function"
    },
    {
      "constant": true,
      "inputs": [],
      "name": "destructor",
      "outputs": [
        {
          "name": "",
          "type": "address"
        }
      ],
      "payable": false,
      "stateMutability": "view",
      "type": "function"
    },
    {
      "constant": false,
      "inputs": [
        {
          "name": "service",
          "type": "address"
        }
      ],
      "name": "deregisterService",
      "outputs": [],
      "payable": false,
      "stateMutability": "nonpayable",
      "type": "function"
    },
    {
      "constant": true,
      "inputs": [],
      "name": "driipSettlementChallengeState",
      "outputs": [
        {
          "name": "",
          "type": "address"
        }
      ],
      "payable": false,
      "stateMutability": "view",
      "type": "function"
    },
    {
      "constant": true,
      "inputs": [],
      "name": "operator",
      "outputs": [
        {
          "name": "",
          "type": "address"
        }
      ],
      "payable": false,
      "stateMutability": "view",
      "type": "function"
    },
    {
      "constant": false,
      "inputs": [],
      "name": "freezeWalletLocker",
      "outputs": [],
      "payable": false,
      "stateMutability": "nonpayable",
      "type": "function"
    },
    {
      "constant": true,
      "inputs": [
        {
          "name": "service",
          "type": "address"
        },
        {
          "name": "action",
          "type": "string"
        }
      ],
      "name": "isEnabledServiceAction",
      "outputs": [
        {
          "name": "",
          "type": "bool"
        }
      ],
      "payable": false,
      "stateMutability": "view",
      "type": "function"
    },
    {
      "constant": false,
      "inputs": [
        {
          "name": "newConfiguration",
          "type": "address"
        }
      ],
      "name": "setConfiguration",
      "outputs": [],
      "payable": false,
      "stateMutability": "nonpayable",
      "type": "function"
    },
    {
      "constant": false,
      "inputs": [
        {
          "name": "newSecurityBond",
          "type": "address"
        }
      ],
      "name": "setSecurityBond",
      "outputs": [],
      "payable": false,
      "stateMutability": "nonpayable",
      "type": "function"
    },
    {
      "constant": true,
      "inputs": [],
      "name": "securityBond",
      "outputs": [
        {
          "name": "",
          "type": "address"
        }
      ],
      "payable": false,
      "stateMutability": "view",
      "type": "function"
    },
    {
      "constant": true,
      "inputs": [],
      "name": "configuration",
      "outputs": [
        {
          "name": "",
          "type": "address"
        }
      ],
      "payable": false,
      "stateMutability": "view",
      "type": "function"
    },
    {
      "constant": false,
      "inputs": [],
      "name": "disableSelfDestruction",
      "outputs": [],
      "payable": false,
      "stateMutability": "nonpayable",
      "type": "function"
    },
    {
      "constant": false,
      "inputs": [
        {
          "name": "timeoutInSeconds",
          "type": "uint256"
        }
      ],
      "name": "setServiceActivationTimeout",
      "outputs": [],
      "payable": false,
      "stateMutability": "nonpayable",
      "type": "function"
    },
    {
      "constant": false,
      "inputs": [
        {
          "name": "newWalletLocker",
          "type": "address"
        }
      ],
      "name": "setWalletLocker",
      "outputs": [],
      "payable": false,
      "stateMutability": "nonpayable",
      "type": "function"
    },
    {
      "constant": false,
      "inputs": [
        {
          "name": "service",
          "type": "address"
        }
      ],
      "name": "registerServiceDeferred",
      "outputs": [],
      "payable": false,
      "stateMutability": "nonpayable",
      "type": "function"
    },
    {
      "constant": false,
      "inputs": [
        {
          "name": "newDeployer",
          "type": "address"
        }
      ],
      "name": "setDeployer",
      "outputs": [],
      "payable": false,
      "stateMutability": "nonpayable",
      "type": "function"
    },
    {
      "constant": false,
      "inputs": [
        {
          "name": "newOperator",
          "type": "address"
        }
      ],
      "name": "setOperator",
      "outputs": [],
      "payable": false,
      "stateMutability": "nonpayable",
      "type": "function"
    },
    {
      "constant": true,
      "inputs": [],
      "name": "deployer",
      "outputs": [
        {
          "name": "",
          "type": "address"
        }
      ],
      "payable": false,
      "stateMutability": "view",
      "type": "function"
    },
    {
      "constant": true,
      "inputs": [],
      "name": "walletLocker",
      "outputs": [
        {
          "name": "",
          "type": "address"
        }
      ],
      "payable": false,
      "stateMutability": "view",
      "type": "function"
    },
    {
      "constant": false,
      "inputs": [
        {
          "name": "service",
          "type": "address"
        }
      ],
      "name": "registerService",
      "outputs": [],
      "payable": false,
      "stateMutability": "nonpayable",
      "type": "function"
    },
    {
      "inputs": [
        {
          "name": "deployer",
          "type": "address"
        }
      ],
      "payable": false,
      "stateMutability": "nonpayable",
      "type": "constructor"
    },
    {
      "anonymous": false,
      "inputs": [
        {
          "indexed": false,
          "name": "oldDriipSettlementChallengeState",
          "type": "address"
        },
        {
          "indexed": false,
          "name": "newDriipSettlementChallengeState",
          "type": "address"
        }
      ],
      "name": "SetDriipSettlementChallengeStateEvent",
      "type": "event"
    },
    {
      "anonymous": false,
      "inputs": [
        {
          "indexed": false,
          "name": "nonce",
          "type": "uint256"
        },
        {
          "components": [
            {
              "name": "nonce",
              "type": "uint256"
            },
            {
              "name": "wallet",
              "type": "address"
            },
            {
              "components": [
                {
                  "name": "intention",
                  "type": "uint8"
                },
                {
                  "name": "amount",
                  "type": "int256"
                },
                {
                  "components": [
                    {
                      "components": [
                        {
                          "name": "ct",
                          "type": "address"
                        },
                        {
                          "name": "id",
                          "type": "uint256"
                        }
                      ],
                      "name": "intended",
                      "type": "tuple"
                    },
                    {
                      "components": [
                        {
                          "name": "ct",
                          "type": "address"
                        },
                        {
                          "name": "id",
                          "type": "uint256"
                        }
                      ],
                      "name": "conjugate",
                      "type": "tuple"
                    }
                  ],
                  "name": "currencies",
                  "type": "tuple"
                },
                {
                  "name": "rate",
                  "type": "int256"
                },
                {
                  "components": [
                    {
                      "name": "current",
                      "type": "int256"
                    },
                    {
                      "name": "previous",
                      "type": "int256"
                    }
                  ],
                  "name": "residuals",
                  "type": "tuple"
                }
              ],
              "name": "placement",
              "type": "tuple"
            },
            {
              "components": [
                {
                  "components": [
                    {
                      "name": "hash",
                      "type": "bytes32"
                    },
                    {
                      "components": [
                        {
                          "name": "r",
                          "type": "bytes32"
                        },
                        {
                          "name": "s",
                          "type": "bytes32"
                        },
                        {
                          "name": "v",
                          "type": "uint8"
                        }
                      ],
                      "name": "signature",
                      "type": "tuple"
                    }
                  ],
                  "name": "wallet",
                  "type": "tuple"
                },
                {
                  "components": [
                    {
                      "name": "hash",
                      "type": "bytes32"
                    },
                    {
                      "components": [
                        {
                          "name": "r",
                          "type": "bytes32"
                        },
                        {
                          "name": "s",
                          "type": "bytes32"
                        },
                        {
                          "name": "v",
                          "type": "uint8"
                        }
                      ],
                      "name": "signature",
                      "type": "tuple"
                    }
                  ],
                  "name": "operator",
                  "type": "tuple"
                }
              ],
              "name": "seals",
              "type": "tuple"
            },
            {
              "name": "blockNumber",
              "type": "uint256"
            },
            {
              "name": "operatorId",
              "type": "uint256"
            }
          ],
          "indexed": false,
          "name": "order",
          "type": "tuple"
        },
        {
          "indexed": false,
          "name": "challenger",
          "type": "address"
        }
      ],
      "name": "ChallengeByOrderEvent",
      "type": "event"
    },
    {
      "anonymous": false,
      "inputs": [
        {
          "indexed": false,
          "name": "nonce",
          "type": "uint256"
        },
        {
          "components": [
            {
              "name": "nonce",
              "type": "uint256"
            },
            {
              "name": "wallet",
              "type": "address"
            },
            {
              "components": [
                {
                  "name": "intention",
                  "type": "uint8"
                },
                {
                  "name": "amount",
                  "type": "int256"
                },
                {
                  "components": [
                    {
                      "components": [
                        {
                          "name": "ct",
                          "type": "address"
                        },
                        {
                          "name": "id",
                          "type": "uint256"
                        }
                      ],
                      "name": "intended",
                      "type": "tuple"
                    },
                    {
                      "components": [
                        {
                          "name": "ct",
                          "type": "address"
                        },
                        {
                          "name": "id",
                          "type": "uint256"
                        }
                      ],
                      "name": "conjugate",
                      "type": "tuple"
                    }
                  ],
                  "name": "currencies",
                  "type": "tuple"
                },
                {
                  "name": "rate",
                  "type": "int256"
                },
                {
                  "components": [
                    {
                      "name": "current",
                      "type": "int256"
                    },
                    {
                      "name": "previous",
                      "type": "int256"
                    }
                  ],
                  "name": "residuals",
                  "type": "tuple"
                }
              ],
              "name": "placement",
              "type": "tuple"
            },
            {
              "components": [
                {
                  "components": [
                    {
                      "name": "hash",
                      "type": "bytes32"
                    },
                    {
                      "components": [
                        {
                          "name": "r",
                          "type": "bytes32"
                        },
                        {
                          "name": "s",
                          "type": "bytes32"
                        },
                        {
                          "name": "v",
                          "type": "uint8"
                        }
                      ],
                      "name": "signature",
                      "type": "tuple"
                    }
                  ],
                  "name": "wallet",
                  "type": "tuple"
                },
                {
                  "components": [
                    {
                      "name": "hash",
                      "type": "bytes32"
                    },
                    {
                      "components": [
                        {
                          "name": "r",
                          "type": "bytes32"
                        },
                        {
                          "name": "s",
                          "type": "bytes32"
                        },
                        {
                          "name": "v",
                          "type": "uint8"
                        }
                      ],
                      "name": "signature",
                      "type": "tuple"
                    }
                  ],
                  "name": "operator",
                  "type": "tuple"
                }
              ],
              "name": "seals",
              "type": "tuple"
            },
            {
              "name": "blockNumber",
              "type": "uint256"
            },
            {
              "name": "operatorId",
              "type": "uint256"
            }
          ],
          "indexed": false,
          "name": "order",
          "type": "tuple"
        },
        {
          "components": [
            {
              "name": "nonce",
              "type": "uint256"
            },
            {
              "name": "amount",
              "type": "int256"
            },
            {
              "components": [
                {
                  "components": [
                    {
                      "name": "ct",
                      "type": "address"
                    },
                    {
                      "name": "id",
                      "type": "uint256"
                    }
                  ],
                  "name": "intended",
                  "type": "tuple"
                },
                {
                  "components": [
                    {
                      "name": "ct",
                      "type": "address"
                    },
                    {
                      "name": "id",
                      "type": "uint256"
                    }
                  ],
                  "name": "conjugate",
                  "type": "tuple"
                }
              ],
              "name": "currencies",
              "type": "tuple"
            },
            {
              "name": "rate",
              "type": "int256"
            },
            {
              "components": [
                {
                  "name": "nonce",
                  "type": "uint256"
                },
                {
                  "name": "wallet",
                  "type": "address"
                },
                {
                  "name": "rollingVolume",
                  "type": "uint256"
                },
                {
                  "name": "liquidityRole",
                  "type": "uint8"
                },
                {
                  "components": [
                    {
                      "name": "amount",
                      "type": "int256"
                    },
                    {
                      "components": [
                        {
                          "name": "wallet",
                          "type": "bytes32"
                        },
                        {
                          "name": "operator",
                          "type": "bytes32"
                        }
                      ],
                      "name": "hashes",
                      "type": "tuple"
                    },
                    {
                      "components": [
                        {
                          "name": "current",
                          "type": "int256"
                        },
                        {
                          "name": "previous",
                          "type": "int256"
                        }
                      ],
                      "name": "residuals",
                      "type": "tuple"
                    }
                  ],
                  "name": "order",
                  "type": "tuple"
                },
                {
                  "components": [
                    {
                      "components": [
                        {
                          "name": "current",
                          "type": "int256"
                        },
                        {
                          "name": "previous",
                          "type": "int256"
                        }
                      ],
                      "name": "intended",
                      "type": "tuple"
                    },
                    {
                      "components": [
                        {
                          "name": "current",
                          "type": "int256"
                        },
                        {
                          "name": "previous",
                          "type": "int256"
                        }
                      ],
                      "name": "conjugate",
                      "type": "tuple"
                    }
                  ],
                  "name": "balances",
                  "type": "tuple"
                },
                {
                  "components": [
                    {
                      "components": [
                        {
                          "name": "amount",
                          "type": "int256"
                        },
                        {
                          "components": [
                            {
                              "name": "ct",
                              "type": "address"
                            },
                            {
                              "name": "id",
                              "type": "uint256"
                            }
                          ],
                          "name": "currency",
                          "type": "tuple"
                        }
                      ],
                      "name": "single",
                      "type": "tuple"
                    },
                    {
                      "components": [
                        {
                          "name": "originId",
                          "type": "uint256"
                        },
                        {
                          "components": [
                            {
                              "name": "amount",
                              "type": "int256"
                            },
                            {
                              "components": [
                                {
                                  "name": "ct",
                                  "type": "address"
                                },
                                {
                                  "name": "id",
                                  "type": "uint256"
                                }
                              ],
                              "name": "currency",
                              "type": "tuple"
                            }
                          ],
                          "name": "figure",
                          "type": "tuple"
                        }
                      ],
                      "name": "total",
                      "type": "tuple[]"
                    }
                  ],
                  "name": "fees",
                  "type": "tuple"
                }
              ],
              "name": "buyer",
              "type": "tuple"
            },
            {
              "components": [
                {
                  "name": "nonce",
                  "type": "uint256"
                },
                {
                  "name": "wallet",
                  "type": "address"
                },
                {
                  "name": "rollingVolume",
                  "type": "uint256"
                },
                {
                  "name": "liquidityRole",
                  "type": "uint8"
                },
                {
                  "components": [
                    {
                      "name": "amount",
                      "type": "int256"
                    },
                    {
                      "components": [
                        {
                          "name": "wallet",
                          "type": "bytes32"
                        },
                        {
                          "name": "operator",
                          "type": "bytes32"
                        }
                      ],
                      "name": "hashes",
                      "type": "tuple"
                    },
                    {
                      "components": [
                        {
                          "name": "current",
                          "type": "int256"
                        },
                        {
                          "name": "previous",
                          "type": "int256"
                        }
                      ],
                      "name": "residuals",
                      "type": "tuple"
                    }
                  ],
                  "name": "order",
                  "type": "tuple"
                },
                {
                  "components": [
                    {
                      "components": [
                        {
                          "name": "current",
                          "type": "int256"
                        },
                        {
                          "name": "previous",
                          "type": "int256"
                        }
                      ],
                      "name": "intended",
                      "type": "tuple"
                    },
                    {
                      "components": [
                        {
                          "name": "current",
                          "type": "int256"
                        },
                        {
                          "name": "previous",
                          "type": "int256"
                        }
                      ],
                      "name": "conjugate",
                      "type": "tuple"
                    }
                  ],
                  "name": "balances",
                  "type": "tuple"
                },
                {
                  "components": [
                    {
                      "components": [
                        {
                          "name": "amount",
                          "type": "int256"
                        },
                        {
                          "components": [
                            {
                              "name": "ct",
                              "type": "address"
                            },
                            {
                              "name": "id",
                              "type": "uint256"
                            }
                          ],
                          "name": "currency",
                          "type": "tuple"
                        }
                      ],
                      "name": "single",
                      "type": "tuple"
                    },
                    {
                      "components": [
                        {
                          "name": "originId",
                          "type": "uint256"
                        },
                        {
                          "components": [
                            {
                              "name": "amount",
                              "type": "int256"
                            },
                            {
                              "components": [
                                {
                                  "name": "ct",
                                  "type": "address"
                                },
                                {
                                  "name": "id",
                                  "type": "uint256"
                                }
                              ],
                              "name": "currency",
                              "type": "tuple"
                            }
                          ],
                          "name": "figure",
                          "type": "tuple"
                        }
                      ],
                      "name": "total",
                      "type": "tuple[]"
                    }
                  ],
                  "name": "fees",
                  "type": "tuple"
                }
              ],
              "name": "seller",
              "type": "tuple"
            },
            {
              "components": [
                {
                  "components": [
                    {
                      "name": "single",
                      "type": "int256"
                    },
                    {
                      "name": "total",
                      "type": "int256"
                    }
                  ],
                  "name": "intended",
                  "type": "tuple"
                },
                {
                  "components": [
                    {
                      "name": "single",
                      "type": "int256"
                    },
                    {
                      "name": "total",
                      "type": "int256"
                    }
                  ],
                  "name": "conjugate",
                  "type": "tuple"
                }
              ],
              "name": "transfers",
              "type": "tuple"
            },
            {
              "components": [
                {
                  "name": "hash",
                  "type": "bytes32"
                },
                {
                  "components": [
                    {
                      "name": "r",
                      "type": "bytes32"
                    },
                    {
                      "name": "s",
                      "type": "bytes32"
                    },
                    {
                      "name": "v",
                      "type": "uint8"
                    }
                  ],
                  "name": "signature",
                  "type": "tuple"
                }
              ],
              "name": "seal",
              "type": "tuple"
            },
            {
              "name": "blockNumber",
              "type": "uint256"
            },
            {
              "name": "operatorId",
              "type": "uint256"
            }
          ],
          "indexed": false,
          "name": "trade",
          "type": "tuple"
        },
        {
          "indexed": false,
          "name": "unchallenger",
          "type": "address"
        }
      ],
      "name": "UnchallengeOrderCandidateByTradeEvent",
      "type": "event"
    },
    {
      "anonymous": false,
      "inputs": [
        {
          "indexed": false,
          "name": "wallet",
          "type": "address"
        },
        {
          "indexed": false,
          "name": "nonce",
          "type": "uint256"
        },
        {
          "components": [
            {
              "name": "nonce",
              "type": "uint256"
            },
            {
              "name": "amount",
              "type": "int256"
            },
            {
              "components": [
                {
                  "components": [
                    {
                      "name": "ct",
                      "type": "address"
                    },
                    {
                      "name": "id",
                      "type": "uint256"
                    }
                  ],
                  "name": "intended",
                  "type": "tuple"
                },
                {
                  "components": [
                    {
                      "name": "ct",
                      "type": "address"
                    },
                    {
                      "name": "id",
                      "type": "uint256"
                    }
                  ],
                  "name": "conjugate",
                  "type": "tuple"
                }
              ],
              "name": "currencies",
              "type": "tuple"
            },
            {
              "name": "rate",
              "type": "int256"
            },
            {
              "components": [
                {
                  "name": "nonce",
                  "type": "uint256"
                },
                {
                  "name": "wallet",
                  "type": "address"
                },
                {
                  "name": "rollingVolume",
                  "type": "uint256"
                },
                {
                  "name": "liquidityRole",
                  "type": "uint8"
                },
                {
                  "components": [
                    {
                      "name": "amount",
                      "type": "int256"
                    },
                    {
                      "components": [
                        {
                          "name": "wallet",
                          "type": "bytes32"
                        },
                        {
                          "name": "operator",
                          "type": "bytes32"
                        }
                      ],
                      "name": "hashes",
                      "type": "tuple"
                    },
                    {
                      "components": [
                        {
                          "name": "current",
                          "type": "int256"
                        },
                        {
                          "name": "previous",
                          "type": "int256"
                        }
                      ],
                      "name": "residuals",
                      "type": "tuple"
                    }
                  ],
                  "name": "order",
                  "type": "tuple"
                },
                {
                  "components": [
                    {
                      "components": [
                        {
                          "name": "current",
                          "type": "int256"
                        },
                        {
                          "name": "previous",
                          "type": "int256"
                        }
                      ],
                      "name": "intended",
                      "type": "tuple"
                    },
                    {
                      "components": [
                        {
                          "name": "current",
                          "type": "int256"
                        },
                        {
                          "name": "previous",
                          "type": "int256"
                        }
                      ],
                      "name": "conjugate",
                      "type": "tuple"
                    }
                  ],
                  "name": "balances",
                  "type": "tuple"
                },
                {
                  "components": [
                    {
                      "components": [
                        {
                          "name": "amount",
                          "type": "int256"
                        },
                        {
                          "components": [
                            {
                              "name": "ct",
                              "type": "address"
                            },
                            {
                              "name": "id",
                              "type": "uint256"
                            }
                          ],
                          "name": "currency",
                          "type": "tuple"
                        }
                      ],
                      "name": "single",
                      "type": "tuple"
                    },
                    {
                      "components": [
                        {
                          "name": "originId",
                          "type": "uint256"
                        },
                        {
                          "components": [
                            {
                              "name": "amount",
                              "type": "int256"
                            },
                            {
                              "components": [
                                {
                                  "name": "ct",
                                  "type": "address"
                                },
                                {
                                  "name": "id",
                                  "type": "uint256"
                                }
                              ],
                              "name": "currency",
                              "type": "tuple"
                            }
                          ],
                          "name": "figure",
                          "type": "tuple"
                        }
                      ],
                      "name": "total",
                      "type": "tuple[]"
                    }
                  ],
                  "name": "fees",
                  "type": "tuple"
                }
              ],
              "name": "buyer",
              "type": "tuple"
            },
            {
              "components": [
                {
                  "name": "nonce",
                  "type": "uint256"
                },
                {
                  "name": "wallet",
                  "type": "address"
                },
                {
                  "name": "rollingVolume",
                  "type": "uint256"
                },
                {
                  "name": "liquidityRole",
                  "type": "uint8"
                },
                {
                  "components": [
                    {
                      "name": "amount",
                      "type": "int256"
                    },
                    {
                      "components": [
                        {
                          "name": "wallet",
                          "type": "bytes32"
                        },
                        {
                          "name": "operator",
                          "type": "bytes32"
                        }
                      ],
                      "name": "hashes",
                      "type": "tuple"
                    },
                    {
                      "components": [
                        {
                          "name": "current",
                          "type": "int256"
                        },
                        {
                          "name": "previous",
                          "type": "int256"
                        }
                      ],
                      "name": "residuals",
                      "type": "tuple"
                    }
                  ],
                  "name": "order",
                  "type": "tuple"
                },
                {
                  "components": [
                    {
                      "components": [
                        {
                          "name": "current",
                          "type": "int256"
                        },
                        {
                          "name": "previous",
                          "type": "int256"
                        }
                      ],
                      "name": "intended",
                      "type": "tuple"
                    },
                    {
                      "components": [
                        {
                          "name": "current",
                          "type": "int256"
                        },
                        {
                          "name": "previous",
                          "type": "int256"
                        }
                      ],
                      "name": "conjugate",
                      "type": "tuple"
                    }
                  ],
                  "name": "balances",
                  "type": "tuple"
                },
                {
                  "components": [
                    {
                      "components": [
                        {
                          "name": "amount",
                          "type": "int256"
                        },
                        {
                          "components": [
                            {
                              "name": "ct",
                              "type": "address"
                            },
                            {
                              "name": "id",
                              "type": "uint256"
                            }
                          ],
                          "name": "currency",
                          "type": "tuple"
                        }
                      ],
                      "name": "single",
                      "type": "tuple"
                    },
                    {
                      "components": [
                        {
                          "name": "originId",
                          "type": "uint256"
                        },
                        {
                          "components": [
                            {
                              "name": "amount",
                              "type": "int256"
                            },
                            {
                              "components": [
                                {
                                  "name": "ct",
                                  "type": "address"
                                },
                                {
                                  "name": "id",
                                  "type": "uint256"
                                }
                              ],
                              "name": "currency",
                              "type": "tuple"
                            }
                          ],
                          "name": "figure",
                          "type": "tuple"
                        }
                      ],
                      "name": "total",
                      "type": "tuple[]"
                    }
                  ],
                  "name": "fees",
                  "type": "tuple"
                }
              ],
              "name": "seller",
              "type": "tuple"
            },
            {
              "components": [
                {
                  "components": [
                    {
                      "name": "single",
                      "type": "int256"
                    },
                    {
                      "name": "total",
                      "type": "int256"
                    }
                  ],
                  "name": "intended",
                  "type": "tuple"
                },
                {
                  "components": [
                    {
                      "name": "single",
                      "type": "int256"
                    },
                    {
                      "name": "total",
                      "type": "int256"
                    }
                  ],
                  "name": "conjugate",
                  "type": "tuple"
                }
              ],
              "name": "transfers",
              "type": "tuple"
            },
            {
              "components": [
                {
                  "name": "hash",
                  "type": "bytes32"
                },
                {
                  "components": [
                    {
                      "name": "r",
                      "type": "bytes32"
                    },
                    {
                      "name": "s",
                      "type": "bytes32"
                    },
                    {
                      "name": "v",
                      "type": "uint8"
                    }
                  ],
                  "name": "signature",
                  "type": "tuple"
                }
              ],
              "name": "seal",
              "type": "tuple"
            },
            {
              "name": "blockNumber",
              "type": "uint256"
            },
            {
              "name": "operatorId",
              "type": "uint256"
            }
          ],
          "indexed": false,
          "name": "trade",
          "type": "tuple"
        },
        {
          "indexed": false,
          "name": "challenger",
          "type": "address"
        }
      ],
      "name": "ChallengeByTradeEvent",
      "type": "event"
    },
    {
      "anonymous": false,
      "inputs": [
        {
          "indexed": false,
          "name": "timeoutInSeconds",
          "type": "uint256"
        }
      ],
      "name": "ServiceActivationTimeoutEvent",
      "type": "event"
    },
    {
      "anonymous": false,
      "inputs": [
        {
          "indexed": false,
          "name": "service",
          "type": "address"
        }
      ],
      "name": "RegisterServiceEvent",
      "type": "event"
    },
    {
      "anonymous": false,
      "inputs": [
        {
          "indexed": false,
          "name": "service",
          "type": "address"
        },
        {
          "indexed": false,
          "name": "timeout",
          "type": "uint256"
        }
      ],
      "name": "RegisterServiceDeferredEvent",
      "type": "event"
    },
    {
      "anonymous": false,
      "inputs": [
        {
          "indexed": false,
          "name": "service",
          "type": "address"
        }
      ],
      "name": "DeregisterServiceEvent",
      "type": "event"
    },
    {
      "anonymous": false,
      "inputs": [
        {
          "indexed": false,
          "name": "service",
          "type": "address"
        },
        {
          "indexed": false,
          "name": "action",
          "type": "string"
        }
      ],
      "name": "EnableServiceActionEvent",
      "type": "event"
    },
    {
      "anonymous": false,
      "inputs": [
        {
          "indexed": false,
          "name": "service",
          "type": "address"
        },
        {
          "indexed": false,
          "name": "action",
          "type": "string"
        }
      ],
      "name": "DisableServiceActionEvent",
      "type": "event"
    },
    {
      "anonymous": false,
      "inputs": [
        {
          "indexed": false,
          "name": "oldCancelOrdersChallenge",
          "type": "address"
        },
        {
          "indexed": false,
          "name": "newCancelOrdersChallenge",
          "type": "address"
        }
      ],
      "name": "SetCancelOrdersChallengeEvent",
      "type": "event"
    },
    {
      "anonymous": false,
      "inputs": [
        {
          "indexed": false,
          "name": "oldFraudChallenge",
          "type": "address"
        },
        {
          "indexed": false,
          "name": "newFraudChallenge",
          "type": "address"
        }
      ],
      "name": "SetFraudChallengeEvent",
      "type": "event"
    },
    {
      "anonymous": false,
      "inputs": [
        {
          "indexed": false,
          "name": "oldWalletLocker",
          "type": "address"
        },
        {
          "indexed": false,
          "name": "newWalletLocker",
          "type": "address"
        }
      ],
      "name": "SetWalletLockerEvent",
      "type": "event"
    },
    {
      "anonymous": false,
      "inputs": [],
      "name": "FreezeWalletLockerEvent",
      "type": "event"
    },
    {
      "anonymous": false,
      "inputs": [
        {
          "indexed": false,
          "name": "oldSecurityBond",
          "type": "address"
        },
        {
          "indexed": false,
          "name": "newSecurityBond",
          "type": "address"
        }
      ],
      "name": "SetSecurityBondEvent",
      "type": "event"
    },
    {
      "anonymous": false,
      "inputs": [
        {
          "indexed": false,
          "name": "oldValidator",
          "type": "address"
        },
        {
          "indexed": false,
          "name": "newValidator",
          "type": "address"
        }
      ],
      "name": "SetValidatorEvent",
      "type": "event"
    },
    {
      "anonymous": false,
      "inputs": [
        {
          "indexed": false,
          "name": "oldConfiguration",
          "type": "address"
        },
        {
          "indexed": false,
          "name": "newConfiguration",
          "type": "address"
        }
      ],
      "name": "SetConfigurationEvent",
      "type": "event"
    },
    {
      "anonymous": false,
      "inputs": [
        {
          "indexed": false,
          "name": "oldDeployer",
          "type": "address"
        },
        {
          "indexed": false,
          "name": "newDeployer",
          "type": "address"
        }
      ],
      "name": "SetDeployerEvent",
      "type": "event"
    },
    {
      "anonymous": false,
      "inputs": [
        {
          "indexed": false,
          "name": "oldOperator",
          "type": "address"
        },
        {
          "indexed": false,
          "name": "newOperator",
          "type": "address"
        }
      ],
      "name": "SetOperatorEvent",
      "type": "event"
    },
    {
      "anonymous": false,
      "inputs": [
        {
          "indexed": false,
          "name": "wallet",
          "type": "address"
        }
      ],
      "name": "SelfDestructionDisabledEvent",
      "type": "event"
    },
    {
      "anonymous": false,
      "inputs": [
        {
          "indexed": false,
          "name": "wallet",
          "type": "address"
        }
      ],
      "name": "TriggerSelfDestructionEvent",
      "type": "event"
    },
    {
      "constant": false,
      "inputs": [
        {
          "name": "newDriipSettlementChallengeState",
          "type": "address"
        }
      ],
      "name": "setDriipSettlementChallengeState",
      "outputs": [],
      "payable": false,
      "stateMutability": "nonpayable",
      "type": "function"
    },
    {
      "constant": false,
      "inputs": [
        {
          "components": [
            {
              "name": "nonce",
              "type": "uint256"
            },
            {
              "name": "wallet",
              "type": "address"
            },
            {
              "components": [
                {
                  "name": "intention",
                  "type": "uint8"
                },
                {
                  "name": "amount",
                  "type": "int256"
                },
                {
                  "components": [
                    {
                      "components": [
                        {
                          "name": "ct",
                          "type": "address"
                        },
                        {
                          "name": "id",
                          "type": "uint256"
                        }
                      ],
                      "name": "intended",
                      "type": "tuple"
                    },
                    {
                      "components": [
                        {
                          "name": "ct",
                          "type": "address"
                        },
                        {
                          "name": "id",
                          "type": "uint256"
                        }
                      ],
                      "name": "conjugate",
                      "type": "tuple"
                    }
                  ],
                  "name": "currencies",
                  "type": "tuple"
                },
                {
                  "name": "rate",
                  "type": "int256"
                },
                {
                  "components": [
                    {
                      "name": "current",
                      "type": "int256"
                    },
                    {
                      "name": "previous",
                      "type": "int256"
                    }
                  ],
                  "name": "residuals",
                  "type": "tuple"
                }
              ],
              "name": "placement",
              "type": "tuple"
            },
            {
              "components": [
                {
                  "components": [
                    {
                      "name": "hash",
                      "type": "bytes32"
                    },
                    {
                      "components": [
                        {
                          "name": "r",
                          "type": "bytes32"
                        },
                        {
                          "name": "s",
                          "type": "bytes32"
                        },
                        {
                          "name": "v",
                          "type": "uint8"
                        }
                      ],
                      "name": "signature",
                      "type": "tuple"
                    }
                  ],
                  "name": "wallet",
                  "type": "tuple"
                },
                {
                  "components": [
                    {
                      "name": "hash",
                      "type": "bytes32"
                    },
                    {
                      "components": [
                        {
                          "name": "r",
                          "type": "bytes32"
                        },
                        {
                          "name": "s",
                          "type": "bytes32"
                        },
                        {
                          "name": "v",
                          "type": "uint8"
                        }
                      ],
                      "name": "signature",
                      "type": "tuple"
                    }
                  ],
                  "name": "operator",
                  "type": "tuple"
                }
              ],
              "name": "seals",
              "type": "tuple"
            },
            {
              "name": "blockNumber",
              "type": "uint256"
            },
            {
              "name": "operatorId",
              "type": "uint256"
            }
          ],
          "name": "order",
          "type": "tuple"
        },
        {
          "name": "challenger",
          "type": "address"
        }
      ],
      "name": "challengeByOrder",
      "outputs": [],
      "payable": false,
      "stateMutability": "nonpayable",
      "type": "function"
    },
    {
      "constant": false,
      "inputs": [
        {
          "components": [
            {
              "name": "nonce",
              "type": "uint256"
            },
            {
              "name": "wallet",
              "type": "address"
            },
            {
              "components": [
                {
                  "name": "intention",
                  "type": "uint8"
                },
                {
                  "name": "amount",
                  "type": "int256"
                },
                {
                  "components": [
                    {
                      "components": [
                        {
                          "name": "ct",
                          "type": "address"
                        },
                        {
                          "name": "id",
                          "type": "uint256"
                        }
                      ],
                      "name": "intended",
                      "type": "tuple"
                    },
                    {
                      "components": [
                        {
                          "name": "ct",
                          "type": "address"
                        },
                        {
                          "name": "id",
                          "type": "uint256"
                        }
                      ],
                      "name": "conjugate",
                      "type": "tuple"
                    }
                  ],
                  "name": "currencies",
                  "type": "tuple"
                },
                {
                  "name": "rate",
                  "type": "int256"
                },
                {
                  "components": [
                    {
                      "name": "current",
                      "type": "int256"
                    },
                    {
                      "name": "previous",
                      "type": "int256"
                    }
                  ],
                  "name": "residuals",
                  "type": "tuple"
                }
              ],
              "name": "placement",
              "type": "tuple"
            },
            {
              "components": [
                {
                  "components": [
                    {
                      "name": "hash",
                      "type": "bytes32"
                    },
                    {
                      "components": [
                        {
                          "name": "r",
                          "type": "bytes32"
                        },
                        {
                          "name": "s",
                          "type": "bytes32"
                        },
                        {
                          "name": "v",
                          "type": "uint8"
                        }
                      ],
                      "name": "signature",
                      "type": "tuple"
                    }
                  ],
                  "name": "wallet",
                  "type": "tuple"
                },
                {
                  "components": [
                    {
                      "name": "hash",
                      "type": "bytes32"
                    },
                    {
                      "components": [
                        {
                          "name": "r",
                          "type": "bytes32"
                        },
                        {
                          "name": "s",
                          "type": "bytes32"
                        },
                        {
                          "name": "v",
                          "type": "uint8"
                        }
                      ],
                      "name": "signature",
                      "type": "tuple"
                    }
                  ],
                  "name": "operator",
                  "type": "tuple"
                }
              ],
              "name": "seals",
              "type": "tuple"
            },
            {
              "name": "blockNumber",
              "type": "uint256"
            },
            {
              "name": "operatorId",
              "type": "uint256"
            }
          ],
          "name": "order",
          "type": "tuple"
        },
        {
          "components": [
            {
              "name": "nonce",
              "type": "uint256"
            },
            {
              "name": "amount",
              "type": "int256"
            },
            {
              "components": [
                {
                  "components": [
                    {
                      "name": "ct",
                      "type": "address"
                    },
                    {
                      "name": "id",
                      "type": "uint256"
                    }
                  ],
                  "name": "intended",
                  "type": "tuple"
                },
                {
                  "components": [
                    {
                      "name": "ct",
                      "type": "address"
                    },
                    {
                      "name": "id",
                      "type": "uint256"
                    }
                  ],
                  "name": "conjugate",
                  "type": "tuple"
                }
              ],
              "name": "currencies",
              "type": "tuple"
            },
            {
              "name": "rate",
              "type": "int256"
            },
            {
              "components": [
                {
                  "name": "nonce",
                  "type": "uint256"
                },
                {
                  "name": "wallet",
                  "type": "address"
                },
                {
                  "name": "rollingVolume",
                  "type": "uint256"
                },
                {
                  "name": "liquidityRole",
                  "type": "uint8"
                },
                {
                  "components": [
                    {
                      "name": "amount",
                      "type": "int256"
                    },
                    {
                      "components": [
                        {
                          "name": "wallet",
                          "type": "bytes32"
                        },
                        {
                          "name": "operator",
                          "type": "bytes32"
                        }
                      ],
                      "name": "hashes",
                      "type": "tuple"
                    },
                    {
                      "components": [
                        {
                          "name": "current",
                          "type": "int256"
                        },
                        {
                          "name": "previous",
                          "type": "int256"
                        }
                      ],
                      "name": "residuals",
                      "type": "tuple"
                    }
                  ],
                  "name": "order",
                  "type": "tuple"
                },
                {
                  "components": [
                    {
                      "components": [
                        {
                          "name": "current",
                          "type": "int256"
                        },
                        {
                          "name": "previous",
                          "type": "int256"
                        }
                      ],
                      "name": "intended",
                      "type": "tuple"
                    },
                    {
                      "components": [
                        {
                          "name": "current",
                          "type": "int256"
                        },
                        {
                          "name": "previous",
                          "type": "int256"
                        }
                      ],
                      "name": "conjugate",
                      "type": "tuple"
                    }
                  ],
                  "name": "balances",
                  "type": "tuple"
                },
                {
                  "components": [
                    {
                      "components": [
                        {
                          "name": "amount",
                          "type": "int256"
                        },
                        {
                          "components": [
                            {
                              "name": "ct",
                              "type": "address"
                            },
                            {
                              "name": "id",
                              "type": "uint256"
                            }
                          ],
                          "name": "currency",
                          "type": "tuple"
                        }
                      ],
                      "name": "single",
                      "type": "tuple"
                    },
                    {
                      "components": [
                        {
                          "name": "originId",
                          "type": "uint256"
                        },
                        {
                          "components": [
                            {
                              "name": "amount",
                              "type": "int256"
                            },
                            {
                              "components": [
                                {
                                  "name": "ct",
                                  "type": "address"
                                },
                                {
                                  "name": "id",
                                  "type": "uint256"
                                }
                              ],
                              "name": "currency",
                              "type": "tuple"
                            }
                          ],
                          "name": "figure",
                          "type": "tuple"
                        }
                      ],
                      "name": "total",
                      "type": "tuple[]"
                    }
                  ],
                  "name": "fees",
                  "type": "tuple"
                }
              ],
              "name": "buyer",
              "type": "tuple"
            },
            {
              "components": [
                {
                  "name": "nonce",
                  "type": "uint256"
                },
                {
                  "name": "wallet",
                  "type": "address"
                },
                {
                  "name": "rollingVolume",
                  "type": "uint256"
                },
                {
                  "name": "liquidityRole",
                  "type": "uint8"
                },
                {
                  "components": [
                    {
                      "name": "amount",
                      "type": "int256"
                    },
                    {
                      "components": [
                        {
                          "name": "wallet",
                          "type": "bytes32"
                        },
                        {
                          "name": "operator",
                          "type": "bytes32"
                        }
                      ],
                      "name": "hashes",
                      "type": "tuple"
                    },
                    {
                      "components": [
                        {
                          "name": "current",
                          "type": "int256"
                        },
                        {
                          "name": "previous",
                          "type": "int256"
                        }
                      ],
                      "name": "residuals",
                      "type": "tuple"
                    }
                  ],
                  "name": "order",
                  "type": "tuple"
                },
                {
                  "components": [
                    {
                      "components": [
                        {
                          "name": "current",
                          "type": "int256"
                        },
                        {
                          "name": "previous",
                          "type": "int256"
                        }
                      ],
                      "name": "intended",
                      "type": "tuple"
                    },
                    {
                      "components": [
                        {
                          "name": "current",
                          "type": "int256"
                        },
                        {
                          "name": "previous",
                          "type": "int256"
                        }
                      ],
                      "name": "conjugate",
                      "type": "tuple"
                    }
                  ],
                  "name": "balances",
                  "type": "tuple"
                },
                {
                  "components": [
                    {
                      "components": [
                        {
                          "name": "amount",
                          "type": "int256"
                        },
                        {
                          "components": [
                            {
                              "name": "ct",
                              "type": "address"
                            },
                            {
                              "name": "id",
                              "type": "uint256"
                            }
                          ],
                          "name": "currency",
                          "type": "tuple"
                        }
                      ],
                      "name": "single",
                      "type": "tuple"
                    },
                    {
                      "components": [
                        {
                          "name": "originId",
                          "type": "uint256"
                        },
                        {
                          "components": [
                            {
                              "name": "amount",
                              "type": "int256"
                            },
                            {
                              "components": [
                                {
                                  "name": "ct",
                                  "type": "address"
                                },
                                {
                                  "name": "id",
                                  "type": "uint256"
                                }
                              ],
                              "name": "currency",
                              "type": "tuple"
                            }
                          ],
                          "name": "figure",
                          "type": "tuple"
                        }
                      ],
                      "name": "total",
                      "type": "tuple[]"
                    }
                  ],
                  "name": "fees",
                  "type": "tuple"
                }
              ],
              "name": "seller",
              "type": "tuple"
            },
            {
              "components": [
                {
                  "components": [
                    {
                      "name": "single",
                      "type": "int256"
                    },
                    {
                      "name": "total",
                      "type": "int256"
                    }
                  ],
                  "name": "intended",
                  "type": "tuple"
                },
                {
                  "components": [
                    {
                      "name": "single",
                      "type": "int256"
                    },
                    {
                      "name": "total",
                      "type": "int256"
                    }
                  ],
                  "name": "conjugate",
                  "type": "tuple"
                }
              ],
              "name": "transfers",
              "type": "tuple"
            },
            {
              "components": [
                {
                  "name": "hash",
                  "type": "bytes32"
                },
                {
                  "components": [
                    {
                      "name": "r",
                      "type": "bytes32"
                    },
                    {
                      "name": "s",
                      "type": "bytes32"
                    },
                    {
                      "name": "v",
                      "type": "uint8"
                    }
                  ],
                  "name": "signature",
                  "type": "tuple"
                }
              ],
              "name": "seal",
              "type": "tuple"
            },
            {
              "name": "blockNumber",
              "type": "uint256"
            },
            {
              "name": "operatorId",
              "type": "uint256"
            }
          ],
          "name": "trade",
          "type": "tuple"
        },
        {
          "name": "unchallenger",
          "type": "address"
        }
      ],
      "name": "unchallengeOrderCandidateByTrade",
      "outputs": [],
      "payable": false,
      "stateMutability": "nonpayable",
      "type": "function"
    },
    {
      "constant": false,
      "inputs": [
        {
          "name": "wallet",
          "type": "address"
        },
        {
          "components": [
            {
              "name": "nonce",
              "type": "uint256"
            },
            {
              "name": "amount",
              "type": "int256"
            },
            {
              "components": [
                {
                  "components": [
                    {
                      "name": "ct",
                      "type": "address"
                    },
                    {
                      "name": "id",
                      "type": "uint256"
                    }
                  ],
                  "name": "intended",
                  "type": "tuple"
                },
                {
                  "components": [
                    {
                      "name": "ct",
                      "type": "address"
                    },
                    {
                      "name": "id",
                      "type": "uint256"
                    }
                  ],
                  "name": "conjugate",
                  "type": "tuple"
                }
              ],
              "name": "currencies",
              "type": "tuple"
            },
            {
              "name": "rate",
              "type": "int256"
            },
            {
              "components": [
                {
                  "name": "nonce",
                  "type": "uint256"
                },
                {
                  "name": "wallet",
                  "type": "address"
                },
                {
                  "name": "rollingVolume",
                  "type": "uint256"
                },
                {
                  "name": "liquidityRole",
                  "type": "uint8"
                },
                {
                  "components": [
                    {
                      "name": "amount",
                      "type": "int256"
                    },
                    {
                      "components": [
                        {
                          "name": "wallet",
                          "type": "bytes32"
                        },
                        {
                          "name": "operator",
                          "type": "bytes32"
                        }
                      ],
                      "name": "hashes",
                      "type": "tuple"
                    },
                    {
                      "components": [
                        {
                          "name": "current",
                          "type": "int256"
                        },
                        {
                          "name": "previous",
                          "type": "int256"
                        }
                      ],
                      "name": "residuals",
                      "type": "tuple"
                    }
                  ],
                  "name": "order",
                  "type": "tuple"
                },
                {
                  "components": [
                    {
                      "components": [
                        {
                          "name": "current",
                          "type": "int256"
                        },
                        {
                          "name": "previous",
                          "type": "int256"
                        }
                      ],
                      "name": "intended",
                      "type": "tuple"
                    },
                    {
                      "components": [
                        {
                          "name": "current",
                          "type": "int256"
                        },
                        {
                          "name": "previous",
                          "type": "int256"
                        }
                      ],
                      "name": "conjugate",
                      "type": "tuple"
                    }
                  ],
                  "name": "balances",
                  "type": "tuple"
                },
                {
                  "components": [
                    {
                      "components": [
                        {
                          "name": "amount",
                          "type": "int256"
                        },
                        {
                          "components": [
                            {
                              "name": "ct",
                              "type": "address"
                            },
                            {
                              "name": "id",
                              "type": "uint256"
                            }
                          ],
                          "name": "currency",
                          "type": "tuple"
                        }
                      ],
                      "name": "single",
                      "type": "tuple"
                    },
                    {
                      "components": [
                        {
                          "name": "originId",
                          "type": "uint256"
                        },
                        {
                          "components": [
                            {
                              "name": "amount",
                              "type": "int256"
                            },
                            {
                              "components": [
                                {
                                  "name": "ct",
                                  "type": "address"
                                },
                                {
                                  "name": "id",
                                  "type": "uint256"
                                }
                              ],
                              "name": "currency",
                              "type": "tuple"
                            }
                          ],
                          "name": "figure",
                          "type": "tuple"
                        }
                      ],
                      "name": "total",
                      "type": "tuple[]"
                    }
                  ],
                  "name": "fees",
                  "type": "tuple"
                }
              ],
              "name": "buyer",
              "type": "tuple"
            },
            {
              "components": [
                {
                  "name": "nonce",
                  "type": "uint256"
                },
                {
                  "name": "wallet",
                  "type": "address"
                },
                {
                  "name": "rollingVolume",
                  "type": "uint256"
                },
                {
                  "name": "liquidityRole",
                  "type": "uint8"
                },
                {
                  "components": [
                    {
                      "name": "amount",
                      "type": "int256"
                    },
                    {
                      "components": [
                        {
                          "name": "wallet",
                          "type": "bytes32"
                        },
                        {
                          "name": "operator",
                          "type": "bytes32"
                        }
                      ],
                      "name": "hashes",
                      "type": "tuple"
                    },
                    {
                      "components": [
                        {
                          "name": "current",
                          "type": "int256"
                        },
                        {
                          "name": "previous",
                          "type": "int256"
                        }
                      ],
                      "name": "residuals",
                      "type": "tuple"
                    }
                  ],
                  "name": "order",
                  "type": "tuple"
                },
                {
                  "components": [
                    {
                      "components": [
                        {
                          "name": "current",
                          "type": "int256"
                        },
                        {
                          "name": "previous",
                          "type": "int256"
                        }
                      ],
                      "name": "intended",
                      "type": "tuple"
                    },
                    {
                      "components": [
                        {
                          "name": "current",
                          "type": "int256"
                        },
                        {
                          "name": "previous",
                          "type": "int256"
                        }
                      ],
                      "name": "conjugate",
                      "type": "tuple"
                    }
                  ],
                  "name": "balances",
                  "type": "tuple"
                },
                {
                  "components": [
                    {
                      "components": [
                        {
                          "name": "amount",
                          "type": "int256"
                        },
                        {
                          "components": [
                            {
                              "name": "ct",
                              "type": "address"
                            },
                            {
                              "name": "id",
                              "type": "uint256"
                            }
                          ],
                          "name": "currency",
                          "type": "tuple"
                        }
                      ],
                      "name": "single",
                      "type": "tuple"
                    },
                    {
                      "components": [
                        {
                          "name": "originId",
                          "type": "uint256"
                        },
                        {
                          "components": [
                            {
                              "name": "amount",
                              "type": "int256"
                            },
                            {
                              "components": [
                                {
                                  "name": "ct",
                                  "type": "address"
                                },
                                {
                                  "name": "id",
                                  "type": "uint256"
                                }
                              ],
                              "name": "currency",
                              "type": "tuple"
                            }
                          ],
                          "name": "figure",
                          "type": "tuple"
                        }
                      ],
                      "name": "total",
                      "type": "tuple[]"
                    }
                  ],
                  "name": "fees",
                  "type": "tuple"
                }
              ],
              "name": "seller",
              "type": "tuple"
            },
            {
              "components": [
                {
                  "components": [
                    {
                      "name": "single",
                      "type": "int256"
                    },
                    {
                      "name": "total",
                      "type": "int256"
                    }
                  ],
                  "name": "intended",
                  "type": "tuple"
                },
                {
                  "components": [
                    {
                      "name": "single",
                      "type": "int256"
                    },
                    {
                      "name": "total",
                      "type": "int256"
                    }
                  ],
                  "name": "conjugate",
                  "type": "tuple"
                }
              ],
              "name": "transfers",
              "type": "tuple"
            },
            {
              "components": [
                {
                  "name": "hash",
                  "type": "bytes32"
                },
                {
                  "components": [
                    {
                      "name": "r",
                      "type": "bytes32"
                    },
                    {
                      "name": "s",
                      "type": "bytes32"
                    },
                    {
                      "name": "v",
                      "type": "uint8"
                    }
                  ],
                  "name": "signature",
                  "type": "tuple"
                }
              ],
              "name": "seal",
              "type": "tuple"
            },
            {
              "name": "blockNumber",
              "type": "uint256"
            },
            {
              "name": "operatorId",
              "type": "uint256"
            }
          ],
          "name": "trade",
          "type": "tuple"
        },
        {
          "name": "challenger",
          "type": "address"
        }
      ],
      "name": "challengeByTrade",
      "outputs": [],
      "payable": false,
      "stateMutability": "nonpayable",
      "type": "function"
    }
  ],
  "bytecode": "0x60806040523480156200001157600080fd5b5060405160208062004f0f8339810180604052620000339190810190620000b6565b8080600160a060020a03811615156200004b57600080fd5b600160a060020a0381163014156200006257600080fd5b506000805461010060a860020a031916610100600160a060020a039390931692830217905560018054600160a060020a031916909117905550620000eb565b6000620000af8251620000df565b9392505050565b600060208284031215620000c957600080fd5b6000620000d78484620000a1565b949350505050565b600160a060020a031690565b614e1480620000fb6000396000f3006080604052600436106101d45763ffffffff60e060020a60003504166301370d0681146101d95780630608a938146101fb5780630cca956d1461021b57806312255c941461024657806312b52b3d146102685780631327d3d81461027d57806314f3a6331461029d57806317ba3f90146102b2578063240625d8146102df5780632738a112146102f45780632aa1c9d9146103095780632b5672e3146103295780632b91e0a9146103495780632f013a00146103695780633a5381b51461037e5780633b58c501146103935780633b7bea6c146103b35780633bd7857f146103d55780633dad7da4146103ea5780634476d23b1461040a57806350b08c021461042c57806351d7cd611461044c578063570ca735146104615780635dc60def146104765780635df1b0a31461048b578063627f09c3146104ab5780636792ce6e146104cb5780636b0570d0146104eb5780636c70bee91461050057806370327ea1146105155780637e15dd5c1461052a578063892860b21461054a5780638e8cef121461056a5780638eed83591461058a57806392272607146105aa57806396214735146105ca578063b3ab15fb146105ea578063d5f394881461060a578063e8ae41e31461061f578063fdd9ec7d14610634575b600080fd5b3480156101e557600080fd5b506101f96101f436600461430a565b610654565b005b34801561020757600080fd5b506101f96102163660046143ef565b6106fc565b34801561022757600080fd5b50610230611180565b60405161023d9190614bb6565b60405180910390f35b34801561025257600080fd5b5061025b61118f565b60405161023d9190614bed565b34801561027457600080fd5b5061025b6111be565b34801561028957600080fd5b506101f961029836600461430a565b6111f6565b3480156102a957600080fd5b5061025b61128e565b3480156102be57600080fd5b506102d26102cd3660046141dd565b6112bd565b60405161023d9190614b9a565b3480156102eb57600080fd5b506102d26112f5565b34801561030057600080fd5b506101f9611305565b34801561031557600080fd5b506101f961032436600461430a565b61136b565b34801561033557600080fd5b506101f9610344366004614219565b6113fc565b34801561035557600080fd5b506102d26103643660046141dd565b61152c565b34801561037557600080fd5b506102d261154a565b34801561038a57600080fd5b50610230611553565b34801561039f57600080fd5b506101f96103ae366004614219565b611562565b3480156103bf57600080fd5b506103c8611644565b60405161023d9190614ba8565b3480156103e157600080fd5b5061023061164a565b3480156103f657600080fd5b506101f961040536600461430a565b611659565b34801561041657600080fd5b5061041f6116f1565b60405161023d919061492a565b34801561043857600080fd5b506101f96104473660046141dd565b611705565b34801561045857600080fd5b506102306117c7565b34801561046d57600080fd5b5061041f6117d6565b34801561048257600080fd5b506101f96117e5565b34801561049757600080fd5b506102d26104a6366004614219565b611839565b3480156104b757600080fd5b506101f96104c636600461430a565b61188a565b3480156104d757600080fd5b506101f96104e636600461430a565b611922565b3480156104f757600080fd5b506102306119ba565b34801561050c57600080fd5b506102306119c9565b34801561052157600080fd5b506101f96119d8565b34801561053657600080fd5b506101f961054536600461444c565b611a3b565b34801561055657600080fd5b506101f961056536600461430a565b611a8e565b34801561057657600080fd5b506101f96105853660046141dd565b611b3d565b34801561059657600080fd5b506101f96105a53660046143bd565b611bbb565b3480156105b657600080fd5b506101f96105c536600461426a565b6122b0565b3480156105d657600080fd5b506101f96105e53660046141dd565b612a42565b3480156105f657600080fd5b506101f96106053660046141dd565b612b00565b34801561061657600080fd5b5061041f612baa565b34801561062b57600080fd5b50610230612bbe565b34801561064057600080fd5b506101f961064f3660046141dd565b612bcd565b600061065e612c46565b151561066957600080fd5b81600160a060020a038116151561067f57600080fd5b6006548390600160a060020a0390811690821681146106f55760068054600160a060020a03878116600160a060020a0319831617909255604051911694507f07998fa7be97abe2427246ae4688298c89d6196bbffdf0997b9495a8d27bc673906106ec9086908890614bc4565b60405180910390a15b5050505050565b610704613a60565b60008060606040519081016040528060248152602001600080516020614dbb833981519152815260200160e060020a6372616465028152506107463382611839565b151561075157600080fd5b60035460405160e060020a6331f2978b0281528891600160a060020a0316906331f2978b90610784908490600401614bfe565b602060405180830381600087803b15801561079e57600080fd5b505af11580156107b2573d6000803e3d6000fd5b505050506040513d601f19601f820116820180604052506107d691908101906142ce565b15156107e157600080fd5b60035460405160e160020a637211c8c70281528891600160a060020a03169063e423918e90610814908490600401614c0d565b602060405180830381600087803b15801561082e57600080fd5b505af1158015610842573d6000803e3d6000fd5b505050506040513d601f19601f8201168201806040525061086691908101906142ce565b151561087157600080fd5b602089015160035460405160e160020a6303e149c30281528a9291600160a060020a0316906307c29386906108ac9085908590600401614c1e565b602060405180830381600087803b1580156108c657600080fd5b505af11580156108da573d6000803e3d6000fd5b505050506040513d601f19601f820116820180604052506108fe91908101906142ce565b151561090957600080fd5b6109128b612c5c565b600a5460208d015160405160e060020a635482c735028152929a50600160a060020a0390911691635482c7359161094d918c90600401614a91565b602060405180830381600087803b15801561096757600080fd5b505af115801561097b573d6000803e3d6000fd5b505050506040513d601f19601f8201168201806040525061099f91908101906142ce565b156109a957600080fd5b600a5460208c015160405160e060020a63b6e2fc33028152600160a060020a039092169163b6e2fc33916109e1918c90600401614a91565b602060405180830381600087803b1580156109fb57600080fd5b505af1158015610a0f573d6000803e3d6000fd5b505050506040513d601f19601f82011682018060405250610a339190810190614328565b6001811115610a3e57fe5b600114610a4a57600080fd5b600a5460208c015160405160e160020a63160ed0cd028152610b6a92600160a060020a031691632c1da19a91610a8591908d90600401614a91565b600060405180830381600087803b158015610a9f57600080fd5b505af1158015610ab3573d6000803e3d6000fd5b505050506040513d6000823e601f3d908101601f19168201604052610adb9190810190614389565b73__TradeTypesLib_________________________63af75a2f76040518163ffffffff1660e060020a02815260040160006040518083038186803b158015610b2257600080fd5b505af4158015610b36573d6000803e3d6000fd5b505050506040513d6000823e601f3d908101601f19168201604052610b5e9190810190614389565b9063ffffffff612c9b16565b1515610b7557600080fd5b60065460e08b01515160405160e160020a6352c894d1028152600160a060020a039092169163a59129a291610bac91600401614ba8565b602060405180830381600087803b158015610bc657600080fd5b505af1158015610bda573d6000803e3d6000fd5b505050506040513d601f19601f82011682018060405250610bfe91908101906142ce565b15610c0857600080fd5b60065460608c0151602001515160405160e060020a63e1f5828b028152600160a060020a039092169163e1f5828b91610c4391600401614ba8565b602060405180830381600087803b158015610c5d57600080fd5b505af1158015610c71573d6000803e3d6000fd5b505050506040513d601f19601f82011682018060405250610c9591908101906142ce565b15610c9f57600080fd5b600a5460208c015160405160e060020a631b90e3c1028152600160a060020a0390921691631b90e3c191610cd7918c90600401614a91565b602060405180830381600087803b158015610cf157600080fd5b505af1158015610d05573d6000803e3d6000fd5b505050506040513d601f19601f82011682018060405250610d2991908101906142ec565b60608c015160200151519097508714610d4157600080fd5b610d4f8a8c60200151612d3a565b8714610d5a57600080fd5b600a5460208c015160405160e060020a6356587229028152600160a060020a0390921691635658722991610d92918c90600401614a91565b602060405180830381600087803b158015610dac57600080fd5b505af1158015610dc0573d6000803e3d6000fd5b505050506040513d601f19601f82011682018060405250610de491908101906141fb565b600a5460208d015160405160e260020a6333ca4eab028152929850600160a060020a039091169163cf293aac91610e1f918c90600401614a91565b602060405180830381600087803b158015610e3957600080fd5b505af1158015610e4d573d6000803e3d6000fd5b505050506040513d601f19601f82011682018060405250610e7191908101906142ce565b15610eed576005546020808d01518a51918b015160405160e060020a6346c5c023028152600160a060020a03909416936346c5c02393610eb693928c92600401614953565b600060405180830381600087803b158015610ed057600080fd5b505af1158015610ee4573d6000803e3d6000fd5b50505050610f5d565b60048054895160208b015160405160e060020a634e791e0d028152600160a060020a0390931693634e791e0d93610f2a938c9390929091016149e2565b600060405180830381600087803b158015610f4457600080fd5b505af1158015610f58573d6000803e3d6000fd5b505050505b600a5460208c015160405160e160020a6331ba74fb028152600160a060020a0390921691636374e9f691610f95918c90600401614a91565b600060405180830381600087803b158015610faf57600080fd5b505af1158015610fc3573d6000803e3d6000fd5b5050600480546002546040805160e260020a630a2d7e570281529051600160a060020a03938416965063760b829295508f9493909216926328b5f95c9282820192602092908290030181600087803b15801561101e57600080fd5b505af1158015611032573d6000803e3d6000fd5b505050506040513d601f19601f8201168201806040525061105691908101906142ec565b60006040518463ffffffff1660e060020a02815260040161107993929190614b1b565b600060405180830381600087803b15801561109357600080fd5b505af11580156110a7573d6000803e3d6000fd5b5050600a5460208e015160405160e060020a632ee2ed250281527f1787bae68d74e61c635b2fbee6c778c2a06ce036b886dbd0c6e0bcd6b706a1999450600160a060020a039092169250632ee2ed259161110691908d90600401614a91565b602060405180830381600087803b15801561112057600080fd5b505af1158015611134573d6000803e3d6000fd5b505050506040513d601f19601f8201168201806040525061115891908101906142ec565b8c8c8c60405161116b9493929190614c68565b60405180910390a15050505050505050505050565b600754600160a060020a031681565b6040805180820190915260128152607060020a716368616c6c656e67655f62795f747261646502602082015281565b60606040519081016040528060248152602001600080516020614dbb833981519152815260200160e060020a63726164650281525081565b6000611200612c46565b151561120b57600080fd5b81600160a060020a038116151561122157600080fd5b6003548390600160a060020a0390811690821681146106f55760038054600160a060020a03878116600160a060020a0319831617909255604051911694507f1882af944a16549c3d4f60e3cd26f158b0c7aac3222cf32971fc21375ce05f60906106ec9086908890614bc4565b6040805180820190915260128152607160020a7131b430b63632b733b2afb13cafb7b93232b902602082015281565b60006112c88261152c565b80156112ef5750600160a060020a0382166000908152600860205260409020600101544210155b92915050565b60055460a060020a900460ff1681565b3361130e6116f1565b600160a060020a03161461132157600080fd5b60005460ff161561133157600080fd5b7f787a5d936e74f4b564b9153575886059829c78cd9927b1be5e0d976b317ef73633604051611360919061492a565b60405180910390a133ff5b6000611375612c46565b151561138057600080fd5b81600160a060020a038116151561139657600080fd5b600a8054600160a060020a03858116600160a060020a03198316179283905560405191811694507f4f7125332801996cdeaabf9cff1ac89ddf4b52c673558936affe853ab64a88da926113ef9286929190911690614bc4565b60405180910390a1505050565b6000611406612c46565b151561141157600080fd5b82600160a060020a038116151561142757600080fd5b600160a060020a03811630141561143d57600080fd5b600160a060020a03841660009081526008602052604090205460ff16151561146457600080fd5b61146d83612df5565b600160a060020a038516600090815260086020908152604080832084845260020190915290205490925060ff16156114a457600080fd5b600160a060020a0384166000908152600860208181526040808420868552600281018352818520805460ff19166001908117909155938352600301805493840181558452922001839055517fec1b982d69bfc1a6fd8becf191d9a633486c822d3bdedd52303ca81fa63575019061151e9086908690614a71565b60405180910390a150505050565b600160a060020a031660009081526008602052604090205460ff1690565b60005460ff1681565b600354600160a060020a031681565b600061156c612c46565b151561157757600080fd5b82600160a060020a038116151561158d57600080fd5b600160a060020a0381163014156115a357600080fd5b6115ac83612df5565b600160a060020a038516600090815260086020908152604080832084845260020190915290205490925060ff1615156115e457600080fd5b600160a060020a038416600090815260086020908152604080832085845260020190915290819020805460ff19169055517f92f4af6130f47c92f3899e06611c8c6ef191fb81207ad2675d134af619d2fe7d9061151e9086908690614a71565b60095481565b600654600160a060020a031681565b6000611663612c46565b151561166e57600080fd5b81600160a060020a038116151561168457600080fd5b6007548390600160a060020a0390811690821681146106f55760078054600160a060020a03878116600160a060020a0319831617909255604051911694507fafe0f82771e36e01015c06151eff69190d6796b6359da2780a8dd89ded9b2205906106ec9086908890614bc4565b6000546101009004600160a060020a031690565b61170d612c46565b151561171857600080fd5b80600160a060020a038116151561172e57600080fd5b600160a060020a03811630141561174457600080fd5b600160a060020a03821660009081526008602052604090205460ff16151561176b57600080fd5b600160a060020a03821660009081526008602052604090819020805460ff19169055517f777645c5437dfbf962f57a281ead25f3d513f2f8e938685bbfc1738e81c9880e906117bb90849061492a565b60405180910390a15050565b600a54600160a060020a031681565b600154600160a060020a031681565b6117ed612c46565b15156117f857600080fd5b6005805460a060020a60ff02191660a060020a1790556040517f56ec8900b9c4bf84f4b715a53068ca06961dd49084c07b481931e2c2045346e690600090a1565b60008061184583612df5565b9050611850846112bd565b80156118825750600160a060020a038416600090815260086020908152604080832084845260020190915290205460ff165b949350505050565b6000611894612c46565b151561189f57600080fd5b81600160a060020a03811615156118b557600080fd5b6002548390600160a060020a0390811690821681146106f55760028054600160a060020a03878116600160a060020a0319831617909255604051911694507f634f61bf00e14adedce330c80c2823e16e184f189ebe853e1ddecc4a268477ff906106ec9086908890614bc4565b600061192c612c46565b151561193757600080fd5b81600160a060020a038116151561194d57600080fd5b6004548390600160a060020a0390811690821681146106f55760048054600160a060020a03878116600160a060020a0319831617909255604051911694507fc9f3f00c1760fe26985aeacb814a21c56ea289d680562e89b249681b08c30382906106ec9086908890614bc4565b600454600160a060020a031681565b600254600160a060020a031681565b336119e16116f1565b600160a060020a0316146119f457600080fd5b6000805460ff191660011790556040517fd5a2a04a775c741c2ca0dc46ea7ce4835190e1aaf1ca018def0e82568ec3361690611a3190339061492a565b60405180910390a1565b611a43612c46565b1515611a4e57600080fd5b60098190556040517f4f1d324a1cbffc352fb64f1d73d95e4b200d92f99ef39bf2d7f5b41f946909d690611a83908390614ba8565b60405180910390a150565b6000611a98612c46565b1515611aa357600080fd5b81600160a060020a0381161515611ab957600080fd5b6005548390600160a060020a0390811690821681146106f55760055460a060020a900460ff1615611ae957600080fd5b60058054600160a060020a03878116600160a060020a0319831617909255604051911694507fa44d361e26327b72a7ccbeae801b3c5cd7677ea4fa74168b289e273c46bfecfc906106ec9086908890614bc4565b611b45612c46565b1515611b5057600080fd5b80600160a060020a0381161515611b6657600080fd5b600160a060020a038116301415611b7c57600080fd5b611b8882600954612ebf565b7f7f3a8349917003ed377f6e9ae1608b92edd893903f8983bd274b1f8373dd3b11826009546040516117bb929190614a0a565b611bc3613a60565b6040805180820190915260128152607160020a7131b430b63632b733b2afb13cafb7b93232b9026020820152611bf93382611839565b1515611c0457600080fd5b60035460405160e060020a6331f2978b0281528591600160a060020a0316906331f2978b90611c37908490600401614bfe565b602060405180830381600087803b158015611c5157600080fd5b505af1158015611c65573d6000803e3d6000fd5b505050506040513d601f19601f82011682018060405250611c8991908101906142ce565b1515611c9457600080fd5b6006546060860151602001515160405160e060020a63e1f5828b028152600160a060020a039092169163e1f5828b91611ccf91600401614ba8565b602060405180830381600087803b158015611ce957600080fd5b505af1158015611cfd573d6000803e3d6000fd5b505050506040513d601f19601f82011682018060405250611d2191908101906142ce565b15611d2b57600080fd5b6007546020808701516060880151909101515160405160e160020a634deaf58b028152600160a060020a0390931692639bd5eb1692611d6e929091600401614a0a565b602060405180830381600087803b158015611d8857600080fd5b505af1158015611d9c573d6000803e3d6000fd5b505050506040513d601f19601f82011682018060405250611dc091908101906142ce565b15611dca57600080fd5b611dd385612c5c565b600a54602087015160405160e060020a635482c735028152929550600160a060020a0390911691635482c73591611e0e918790600401614a91565b602060405180830381600087803b158015611e2857600080fd5b505af1158015611e3c573d6000803e3d6000fd5b505050506040513d601f19601f82011682018060405250611e6091908101906142ce565b15611e6a57600080fd5b600a54602086015160405160e060020a632ee2ed25028152600160a060020a0390921691632ee2ed2591611ea2918790600401614a91565b602060405180830381600087803b158015611ebc57600080fd5b505af1158015611ed0573d6000803e3d6000fd5b505050506040513d601f19601f82011682018060405250611ef491908101906142ec565b855111611f0057600080fd5b600a54602086015160405160e060020a63553d90e9028152600160a060020a039092169163553d90e991611f38918790600401614a91565b602060405180830381600087803b158015611f5257600080fd5b505af1158015611f66573d6000803e3d6000fd5b505050506040513d601f19601f82011682018060405250611f8a91908101906142ec565b855111611f9657600080fd5b600a54602086015160405160e060020a63c46fcd75028152600160a060020a039092169163c46fcd7591611fce918790600401614a91565b602060405180830381600087803b158015611fe857600080fd5b505af1158015611ffc573d6000803e3d6000fd5b505050506040513d601f19601f8201168201806040525061202091908101906142ec565b61202986612f11565b1361203357600080fd5b6120d6856020015161204487612f11565b8587600260009054906101000a9004600160a060020a0316600160a060020a031663fbdfd8e76040518163ffffffff1660e060020a028152600401602060405180830381600087803b15801561209957600080fd5b505af11580156120ad573d6000803e3d6000fd5b505050506040513d601f19601f820116820180604052506120d191908101906142ec565b612f5c565b600a60009054906101000a9004600160a060020a0316600160a060020a031663667666c88660200151858789608001518a600001518b60600151602001516000015173__TradeTypesLib_________________________63af75a2f76040518163ffffffff1660e060020a02815260040160006040518083038186803b15801561215f57600080fd5b505af4158015612173573d6000803e3d6000fd5b505050506040513d6000823e601f3d908101601f1916820160405261219b9190810190614389565b6040518863ffffffff1660e060020a0281526004016121c09796959493929190614aac565b600060405180830381600087803b1580156121da57600080fd5b505af11580156121ee573d6000803e3d6000fd5b5050600a54602088015160405160e060020a632ee2ed250281527f692186b99bb015f5247f9db51faae16e52216ff8292cd97ddfd7777e69366e029450600160a060020a039092169250632ee2ed259161224d91908890600401614a91565b602060405180830381600087803b15801561226757600080fd5b505af115801561227b573d6000803e3d6000fd5b505050506040513d601f19601f8201168201806040525061229f91908101906142ec565b86866040516106ec93929190614c3e565b6122b8613a60565b6000604080519081016040528060128152602001607060020a716368616c6c656e67655f62795f7472616465028152506122f23382611839565b15156122fd57600080fd5b60035460405160e160020a637211c8c70281528691600160a060020a03169063e423918e90612330908490600401614c0d565b602060405180830381600087803b15801561234a57600080fd5b505af115801561235e573d6000803e3d6000fd5b505050506040513d601f19601f8201168201806040525061238291908101906142ce565b151561238d57600080fd5b60035460405160e160020a6303e149c302815287918991600160a060020a03909116906307c29386906123c69085908590600401614c1e565b602060405180830381600087803b1580156123e057600080fd5b505af11580156123f4573d6000803e3d6000fd5b505050506040513d601f19601f8201168201806040525061241891908101906142ce565b151561242357600080fd5b60065460e08901515160405160e160020a6352c894d1028152600160a060020a039092169163a59129a29161245a91600401614ba8565b602060405180830381600087803b15801561247457600080fd5b505af1158015612488573d6000803e3d6000fd5b505050506040513d601f19601f820116820180604052506124ac91908101906142ce565b156124b657600080fd5b600654600160a060020a031663e1f5828b6124d18a8c612d3a565b6040518263ffffffff1660e060020a0281526004016124f09190614ba8565b602060405180830381600087803b15801561250a57600080fd5b505af115801561251e573d6000803e3d6000fd5b505050506040513d601f19601f8201168201806040525061254291908101906142ce565b1561254c57600080fd5b600754600160a060020a0316639bd5eb168a6125688b82612d3a565b6040518363ffffffff1660e060020a028152600401612588929190614a0a565b602060405180830381600087803b1580156125a257600080fd5b505af11580156125b6573d6000803e3d6000fd5b505050506040513d601f19601f820116820180604052506125da91908101906142ce565b156125e457600080fd5b6125ee888a613006565b600a5460405160e060020a635482c735028152919750600160a060020a031690635482c73590612624908c908a90600401614a91565b602060405180830381600087803b15801561263e57600080fd5b505af1158015612652573d6000803e3d6000fd5b505050506040513d601f19601f8201168201806040525061267691908101906142ce565b1561268057600080fd5b61268a888a6130b1565b600a5460405160e060020a632ee2ed25028152919650600160a060020a031690632ee2ed25906126c0908c908a90600401614a91565b602060405180830381600087803b1580156126da57600080fd5b505af11580156126ee573d6000803e3d6000fd5b505050506040513d601f19601f8201168201806040525061271291908101906142ec565b851161271d57600080fd5b600a5460405160e060020a63553d90e9028152600160a060020a039091169063553d90e990612752908c908a90600401614a91565b602060405180830381600087803b15801561276c57600080fd5b505af1158015612780573d6000803e3d6000fd5b505050506040513d601f19601f820116820180604052506127a491908101906142ec565b85116127af57600080fd5b600a5460405160e060020a63c46fcd75028152600160a060020a039091169063c46fcd75906127e4908c908a90600401614a91565b602060405180830381600087803b1580156127fe57600080fd5b505af1158015612812573d6000803e3d6000fd5b505050506040513d601f19601f8201168201806040525061283691908101906142ec565b612840898b613152565b1361284a57600080fd5b612861896128588a8c6131f8565b888a6000612f5c565b600a60009054906101000a9004600160a060020a0316600160a060020a031663667666c88a888a8c61010001518a8e60e001516000015173__TradeTypesLib_________________________6332575cb66040518163ffffffff1660e060020a02815260040160006040518083038186803b1580156128df57600080fd5b505af41580156128f3573d6000803e3d6000fd5b505050506040513d6000823e601f3d908101601f1916820160405261291b9190810190614389565b6040518863ffffffff1660e060020a0281526004016129409796959493929190614aac565b600060405180830381600087803b15801561295a57600080fd5b505af115801561296e573d6000803e3d6000fd5b5050600a5460405160e060020a632ee2ed250281527fb69fdc3af3abb19f37028d39f381743ca840cb47e6b36f7c0399810761c4387093508c9250600160a060020a0390911690632ee2ed25906129cb9084908c90600401614a91565b602060405180830381600087803b1580156129e557600080fd5b505af11580156129f9573d6000803e3d6000fd5b505050506040513d601f19601f82011682018060405250612a1d91908101906142ec565b8a8a604051612a2f9493929190614b43565b60405180910390a1505050505050505050565b6000612a4c612c46565b1515612a5757600080fd5b81600160a060020a0381161515612a6d57600080fd5b600160a060020a038116301415612a8357600080fd5b600054600160a060020a038481166101009092041614612afb5760008054600160a060020a0385811661010090810261010060a860020a0319841617909355604051929091041692507f977e5fa58e458501775e0008d275006294c5249e3c08d1d0e3a9f3acad14f6e4906113ef9084908690614938565b505050565b6000612b0a6132a5565b1515612b1557600080fd5b81600160a060020a0381161515612b2b57600080fd5b600160a060020a038116301415612b4157600080fd5b600154600160a060020a03848116911614612afb5760018054600160a060020a03858116600160a060020a0319831617909255604051911692507f9f611b789425d0d5b90b920f1b2852907dd865c80074a30b1629aaa041d1812c906113ef9084908690614938565b6000546101009004600160a060020a031681565b600554600160a060020a031681565b612bd5612c46565b1515612be057600080fd5b80600160a060020a0381161515612bf657600080fd5b600160a060020a038116301415612c0c57600080fd5b612c17826000612ebf565b7fb619d545cb511bd5f02907a1eac4f4cb8dace7b1846852fb0bf5e553937481c1826040516117bb919061492a565b6000546101009004600160a060020a0316331490565b612c64613a60565b6040820151516001811115612c7557fe5b600114612c8e57816040015160400151602001516112ef565b5060409081015101515190565b8051825160009184918491849114612cb65760009350612d31565b5060005b8251811015612d2c578181815181101515612cd157fe5b90602001015160f860020a900460f860020a02600160f860020a0319168382815181101515612cfc57fe5b60209101015160f860020a9081900402600160f860020a03191614612d245760009350612d31565b600101612cba565b600193505b50505092915050565b60035460405160e060020a63059057d7028152600091600160a060020a03169063059057d790612d709086908690600401614c1e565b602060405180830381600087803b158015612d8a57600080fd5b505af1158015612d9e573d6000803e3d6000fd5b505050506040513d601f19601f82011682018060405250612dc291908101906142ce565b612ddc578260a00151608001516020015160200151612dee565b82608001516080015160200151602001515b9392505050565b6000816040516020018082805190602001908083835b60208310612e2a5780518252601f199092019160209182019101612e0b565b6001836020036101000a0380198251168184511680821785525050505050509050019150506040516020818303038152906040526040518082805190602001908083835b60208310612e8d5780518252601f199092019160209182019101612e6e565b5181516020939093036101000a6000190180199091169216919091179052604051920182900390912095945050505050565b600160a060020a03821660009081526008602052604090205460ff161515612f0d57600160a060020a0382166000908152600860205260409020805460ff1916600190811782554283019101555b5050565b6040810151516000906001811115612f2557fe5b600114612f505760408201516060810151602090910151612f4b9163ffffffff6132b616565b6112ef565b50604001516020015190565b600a5460405160e260020a6333ca4eab028152600160a060020a039091169063cf293aac90612f919088908790600401614a91565b602060405180830381600087803b158015612fab57600080fd5b505af1158015612fbf573d6000803e3d6000fd5b505050506040513d601f19601f82011682018060405250612fe391908101906142ce565b15612ff957612ff4858585856132eb565b6106f5565b6106f5858585858561356f565b61300e613a60565b60035460405160e060020a63059057d7028152600160a060020a039091169063059057d7906130439086908690600401614c1e565b602060405180830381600087803b15801561305d57600080fd5b505af1158015613071573d6000803e3d6000fd5b505050506040513d601f19601f8201168201806040525061309591908101906142ce565b6130a457604083015151612dee565b5050604001516020015190565b60035460405160e060020a63059057d7028152600091600160a060020a03169063059057d7906130e79086908690600401614c1e565b602060405180830381600087803b15801561310157600080fd5b505af1158015613115573d6000803e3d6000fd5b505050506040513d601f19601f8201168201806040525061313991908101906142ce565b6131485760a083015151612dee565b5050608001515190565b60035460405160e060020a63059057d7028152600091600160a060020a03169063059057d7906131889086908690600401614c1e565b602060405180830381600087803b1580156131a257600080fd5b505af11580156131b6573d6000803e3d6000fd5b505050506040513d601f19601f820116820180604052506131da91908101906142ce565b6131ea5760c08301515151612dee565b505060c00151602001515190565b60035460405160e060020a63059057d7028152600091600160a060020a03169063059057d79061322e9086908690600401614c1e565b602060405180830381600087803b15801561324857600080fd5b505af115801561325c573d6000803e3d6000fd5b505050506040513d601f19601f8201168201806040525061328091908101906142ce565b6132935760a08084015101515151612dee565b50506080015160a00151602001515190565b600154600160a060020a0316331490565b600060ff60020a831415806132cd57508160001914155b15156132d857600080fd5b81838115156132e357fe5b059392505050565b600a5460405160e060020a63b6e2fc33028152600160a060020a039091169063b6e2fc33906133209087908690600401614a91565b602060405180830381600087803b15801561333a57600080fd5b505af115801561334e573d6000803e3d6000fd5b505050506040513d601f19601f820116820180604052506133729190810190614328565b600181111561337d57fe5b6001141561347657600554600a5460405160e060020a6356587229028152600160a060020a03928316926346c5c0239288929116906356587229906133c89084908990600401614a91565b602060405180830381600087803b1580156133e257600080fd5b505af11580156133f6573d6000803e3d6000fd5b505050506040513d601f19601f8201168201806040525061341a91908101906141fb565b8551602087015160405160e060020a63ffffffff87160281526134439493929190600401614953565b600060405180830381600087803b15801561345d57600080fd5b505af1158015613471573d6000803e3d6000fd5b505050505b60055482516020808501516002546040805160e060020a63fbdfd8e70281529051600160a060020a0396871696639a545322968c968a968d9692959094929093169263fbdfd8e792600480830193928290030181600087803b1580156134db57600080fd5b505af11580156134ef573d6000803e3d6000fd5b505050506040513d601f19601f8201168201806040525061351391908101906142ec565b6040518763ffffffff1660e060020a02815260040161353796959493929190614988565b600060405180830381600087803b15801561355157600080fd5b505af1158015613565573d6000803e3d6000fd5b5050505050505050565b613577613a77565b600a5460405160e060020a63b6e2fc33028152600091600160a060020a03169063b6e2fc33906135ad908a908990600401614a91565b602060405180830381600087803b1580156135c757600080fd5b505af11580156135db573d6000803e3d6000fd5b505050506040513d601f19601f820116820180604052506135ff9190810190614328565b600181111561360a57fe5b600114156137005760048054600a5460405160e060020a6356587229028152600160a060020a0392831693634e791e0d9390921691635658722991613653918d918c9101614a91565b602060405180830381600087803b15801561366d57600080fd5b505af1158015613681573d6000803e3d6000fd5b505050506040513d601f19601f820116820180604052506136a591908101906141fb565b8751602089015160405160e060020a63ffffffff86160281526136cd939291906004016149e2565b600060405180830381600087803b1580156136e757600080fd5b505af11580156136fb573d6000803e3d6000fd5b505050505b613708613993565b600480548251602080850151805191015160405160e160020a634197bc19028152959750600160a060020a039093169463832f783294613750948b94939290918b9101614a25565b600060405180830381600087803b15801561376a57600080fd5b505af115801561377e573d6000803e3d6000fd5b50506004805488516020808b01516002546040805160e160020a63560069d9028152905173__SafeMathIntLib________________________995063755875b298508f97600160a060020a039788169763a72148eb979694169363ac00d3b293808301939192908290030181600087803b1580156137fb57600080fd5b505af115801561380f573d6000803e3d6000fd5b505050506040513d601f19601f8201168201806040525061383391908101906142ec565b6040518463ffffffff1660e060020a02815260040161385493929190614b7f565b602060405180830381600087803b15801561386e57600080fd5b505af1158015613882573d6000803e3d6000fd5b505050506040513d601f19601f820116820180604052506138a691908101906142ec565b6040518363ffffffff1660e060020a0281526004016138c6929190614bdf565b60206040518083038186803b1580156138de57600080fd5b505af41580156138f2573d6000803e3d6000fd5b505050506040513d601f19601f8201168201806040525061391691908101906142ec565b600480548751602089015160405160e160020a634197bc19028152949550600160a060020a039092169363832f783293613958938a93889390928b9101614a25565b600060405180830381600087803b15801561397257600080fd5b505af1158015613986573d6000803e3d6000fd5b5050505050505050505050565b61399b613a77565b6000806000600260009054906101000a9004600160a060020a0316600160a060020a031663ccd03d2e6040518163ffffffff1660e060020a028152600401606060405180830381600087803b1580156139f357600080fd5b505af1158015613a07573d6000803e3d6000fd5b505050506040513d601f19601f82011682018060405250613a2b9190810190614346565b6040805180820182529384528051808201909152600160a060020a039092168252602082810191909152820152949350505050565b604080518082019091526000808252602082015290565b60606040519081016040528060008152602001613a92613a60565b905290565b6000612dee8235614d1e565b6000612dee8251614d1e565b6000601f82018313613ac057600080fd5b8135613ad3613ace82614ccd565b614ca7565b91508181835260208401935060208101905083856080840282011115613af857600080fd5b60005b83811015613b265781613b0e8882613e45565b84525060209092019160809190910190600101613afb565b5050505092915050565b6000612dee8251614d2a565b6000612dee8235614d2f565b6000612dee8251614d2f565b6000612dee8235614d48565b6000612dee8235614d53565b6000612dee8251614d53565b6000601f82018313613b8957600080fd5b8135613b97613ace82614ced565b91508082526020830160208301858383011115613bb357600080fd5b612d31838284614d78565b6000601f82018313613bcf57600080fd5b8151613bdd613ace82614ced565b91508082526020830160208301858383011115613bf957600080fd5b612d31838284614d84565b600060408284031215613c1657600080fd5b613c206040614ca7565b90506000613c2e8484613a97565b8252506020613c3f84848301613b3c565b60208301525092915050565b600060408284031215613c5d57600080fd5b613c676040614ca7565b90506000613c2e8484613b3c565b600060608284031215613c8757600080fd5b613c916040614ca7565b90506000613c9f8484613b3c565b8252506020613c3f84848301613c04565b600060808284031215613cc257600080fd5b613ccc6040614ca7565b90506000613cda8484613c04565b8252506040613c3f84848301613c04565b600060808284031215613cfd57600080fd5b613d076040614ca7565b90506000613d158484613c4b565b8252506040613c3f84848301613c4b565b60006101208284031215613d3957600080fd5b613d4360a0614ca7565b90506000613d518484613b60565b8252506020613d6284848301613b3c565b6020830152506040613d7684828501613cb0565b60408301525060c0613d8a84828501613b3c565b60608301525060e0613d9e84828501613c4b565b60808301525092915050565b60006102a08284031215613dbd57600080fd5b613dc760c0614ca7565b90506000613dd58484613b3c565b8252506020613de684848301613a97565b6020830152506040613dfa84828501613d26565b604083015250610160613e0f84828501614195565b606083015250610260613e2484828501613b3c565b608083015250610280613e3984828501613b3c565b60a08301525092915050565b600060808284031215613e5757600080fd5b613e616040614ca7565b90506000613e6f8484613b3c565b8252506020613c3f84848301613c75565b600060808284031215613e9257600080fd5b613e9c6040614ca7565b90506000613eaa8484613b3c565b8252506020613c3f84848301600060608284031215613ec857600080fd5b613ed26060614ca7565b90506000613ee08484613b3c565b8252506020613ef184848301613b3c565b6020830152506040613f05848285016141d1565b60408301525092915050565b600060808284031215613f2357600080fd5b613f2d6040614ca7565b90506000613f3b8484613c75565b82525060608201356001604060020a03811115613f5757600080fd5b613c3f84828501613aaf565b600060a08284031215613f7557600080fd5b613f7f6060614ca7565b90506000613f8d8484613b3c565b8252506020613f9e84848301613c4b565b6020830152506060613f0584828501613c4b565b60006101c08284031215613fc557600080fd5b613fcf60e0614ca7565b90506000613fdd8484613b3c565b8252506020613fee84848301613a97565b602083015250604061400284828501613b3c565b604083015250606061401684828501613b60565b606083015250608061402a84828501613f63565b60808301525061012061403f84828501613ceb565b60a0830152506101a08201356001604060020a0381111561405f57600080fd5b61406b84828501613f11565b60c08301525092915050565b6000610260828403121561408a57600080fd5b614095610140614ca7565b905060006140a38484613b3c565b82525060206140b484848301613b3c565b60208301525060406140c884828501613cb0565b60408301525060c06140dc84828501613b3c565b60608301525060e08201356001604060020a038111156140fb57600080fd5b61410784828501613fb2565b6080830152506101008201356001604060020a0381111561412757600080fd5b61413384828501613fb2565b60a08301525061012061414884828501613ceb565b60c0830152506101a061415d84828501613e80565b60e08301525061022061417284828501613b3c565b6101008301525061024061418884828501613b3c565b6101208301525092915050565b600061010082840312156141a857600080fd5b6141b26040614ca7565b905060006141c08484613e80565b8252506080613c3f84848301613e80565b6000612dee8235614d42565b6000602082840312156141ef57600080fd5b60006118828484613a97565b60006020828403121561420d57600080fd5b60006118828484613aa3565b6000806040838503121561422c57600080fd5b60006142388585613a97565b92505060208301356001604060020a0381111561425457600080fd5b61426085828601613b78565b9150509250929050565b60008060006060848603121561427f57600080fd5b600061428b8686613a97565b93505060208401356001604060020a038111156142a757600080fd5b6142b386828701614077565b92505060406142c486828701613a97565b9150509250925092565b6000602082840312156142e057600080fd5b60006118828484613b30565b6000602082840312156142fe57600080fd5b60006118828484613b48565b60006020828403121561431c57600080fd5b60006118828484613b54565b60006020828403121561433a57600080fd5b60006118828484613b6c565b60008060006060848603121561435b57600080fd5b60006143678686613b48565b935050602061437886828701613aa3565b92505060406142c486828701613b48565b60006020828403121561439b57600080fd5b81516001604060020a038111156143b157600080fd5b61188284828501613bbe565b6000806102c083850312156143d157600080fd5b60006143dd8585613daa565b9250506102a061426085828601613a97565b60008060006102e0848603121561440557600080fd5b60006144118686613daa565b9350506102a08401356001604060020a0381111561442e57600080fd5b61443a86828701614077565b9250506102c06142c486828701613a97565b60006020828403121561445e57600080fd5b60006118828484613b3c565b61447381614d1e565b82525050565b600061448482614d1a565b80845260208401935061449683614d14565b60005b828110156144c6576144ac8683516146ab565b6144b582614d14565b608096909601959150600101614499565b5093949350505050565b61447381614d2a565b61447381614d2f565b61447381614d48565b61447381614d62565b61447381614d6d565b600061450882614d1a565b80845261451c816020860160208601614d84565b61452581614db0565b9093016020019392505050565b80516040830190614543848261446a565b50602082015161455660208501826144d9565b50505050565b8051604083019061454384826144d9565b8051606083019061457e84826144d9565b5060208201516145566020850182614532565b805160808301906145a28482614532565b5060208201516145566040850182614532565b805160808301906145c6848261455c565b506020820151614556604085018261455c565b80516101208301906145eb84826144eb565b5060208201516145fe60208501826144d9565b5060408201516146116040850182614591565b50606082015161462460c08501826144d9565b50608082015161455660e085018261455c565b80516102a083019061464984826144d9565b50602082015161465c602085018261446a565b50604082015161466f60408501826145d9565b5060608201516146836101608501826148fc565b5060808201516146976102608501826144d9565b5060a08201516145566102808501826144d9565b805160808301906146bc84826144d9565b506020820151614556602085018261456d565b805160808301906146e084826144d9565b5060208201516145566020850182805160608301906146ff84826144d9565b50602082015161471260208501826144d9565b5060408201516145566040850182614921565b80516000906080840190614739858261456d565b50602083015184820360608601526147518282614479565b95945050505050565b805160a083019061476b84826144d9565b50602082015161477e602085018261455c565b506040820151614556606085018261455c565b80516000906101c08401906147a685826144d9565b5060208301516147b9602086018261446a565b5060408301516147cc60408601826144d9565b5060608301516147df60608601826144eb565b5060808301516147f2608086018261475a565b5060a08301516148066101208601826145b5565b5060c08301518482036101a08601526147518282614725565b805160009061026084019061483485826144d9565b50602083015161484760208601826144d9565b50604083015161485a6040860182614591565b50606083015161486d60c08601826144d9565b50608083015184820360e08601526148858282614791565b91505060a08301518482036101008601526148a08282614791565b91505060c08301516148b66101208601826145b5565b5060e08301516148ca6101a08601826146cf565b506101008301516148df6102208601826144d9565b506101208301516148f46102408601826144d9565b509392505050565b805161010083019061490e84826146cf565b50602082015161455660808501826146cf565b61447381614d42565b602081016112ef828461446a565b60408101614946828561446a565b612dee602083018461446a565b60808101614961828761446a565b61496e602083018661446a565b61497b604083018561446a565b61475160608301846144d9565b60c08101614996828961446a565b6149a3602083018861446a565b6149b060408301876144d9565b6149bd606083018661446a565b6149ca60808301856144d9565b6149d760a08301846144d9565b979650505050505050565b606081016149f0828661446a565b6149fd602083018561446a565b61188260408301846144d9565b60408101614a18828561446a565b612dee60208301846144d9565b60a08101614a33828861446a565b614a4060208301876144d9565b614a4d604083018661446a565b614a5a60608301856144d9565b614a6760808301846144d9565b9695505050505050565b60408101614a7f828561446a565b818103602083015261188281846144fd565b60608101614a9f828561446a565b612dee6020830184614532565b6101008101614abb828a61446a565b614ac86020830189614532565b614ad5606083018861446a565b614ae260808301876144d9565b614aef60a08301866144d9565b614afc60c08301856144d9565b81810360e0830152614b0e81846144fd565b9998505050505050505050565b60608101614b29828661446a565b614b3660208301856144d9565b61188260408301846144f4565b60808101614b51828761446a565b614b5e60208301866144d9565b8181036040830152614b70818561481f565b9050614751606083018461446a565b60608101614b8d828661446a565b6149fd60208301856144d9565b602081016112ef82846144d0565b602081016112ef82846144d9565b602081016112ef82846144e2565b60408101614bd282856144e2565b612dee60208301846144e2565b60408101614a1882856144d9565b60208082528101612dee81846144fd565b6102a081016112ef8284614637565b60208082528101612dee818461481f565b60408082528101614c2f818561481f565b9050612dee602083018461446a565b6102e08101614c4d82866144d9565b614c5a6020830185614637565b6118826102c083018461446a565b6103008101614c7782876144d9565b614c846020830186614637565b8181036102c0830152614c97818561481f565b90506147516102e083018461446a565b6040518181016001604060020a0381118282101715614cc557600080fd5b604052919050565b60006001604060020a03821115614ce357600080fd5b5060209081020190565b60006001604060020a03821115614d0357600080fd5b506020601f91909101601f19160190565b60200190565b5190565b600160a060020a031690565b151590565b90565b600060028210614d3e57fe5b5090565b60ff1690565b60006112ef82614d1e565b600060028210614d3e57600080fd5b60006112ef82614d32565b60006112ef82614d2f565b82818337506000910152565b60005b83811015614d9f578181015183820152602001614d87565b838111156145565750506000910152565b601f01601f1916905600756e6368616c6c656e67655f6f726465725f63616e6469646174655f62795f74a265627a7a723058202834884098bf788d9f4a65a3b048e0caf494ae9833eb814d19c4d116b03e9edc6c6578706572696d656e74616cf50037",
  "source": "/*\n * Hubii Nahmii\n *\n * Compliant with the Hubii Nahmii specification v0.12.\n *\n * Copyright (C) 2017-2018 Hubii AS\n */\n\npragma solidity ^0.4.25;\npragma experimental ABIEncoderV2;\n\nimport {Ownable} from \"./Ownable.sol\";\nimport {Configurable} from \"./Configurable.sol\";\nimport {ValidatableV2} from \"./ValidatableV2.sol\";\nimport {SecurityBondable} from \"./SecurityBondable.sol\";\nimport {WalletLockable} from \"./WalletLockable.sol\";\nimport {FraudChallengable} from \"./FraudChallengable.sol\";\nimport {CancelOrdersChallengable} from \"./CancelOrdersChallengable.sol\";\nimport {Servable} from \"./Servable.sol\";\nimport {SafeMathIntLib} from \"./SafeMathIntLib.sol\";\nimport {SafeMathUintLib} from \"./SafeMathUintLib.sol\";\nimport {Strings} from \"solidity-util/lib/Strings.sol\";\nimport {MonetaryTypesLib} from \"./MonetaryTypesLib.sol\";\nimport {NahmiiTypesLib} from \"./NahmiiTypesLib.sol\";\nimport {TradeTypesLib} from \"./TradeTypesLib.sol\";\nimport {SettlementChallengeTypesLib} from \"./SettlementChallengeTypesLib.sol\";\nimport {DriipSettlementChallengeState} from \"./DriipSettlementChallengeState.sol\";\n\n/**\n * @title DriipSettlementDisputeByTrade\n * @notice The where trade related disputes of driip settlement challenge happens\n */\ncontract DriipSettlementDisputeByTrade is Ownable, Configurable, ValidatableV2, SecurityBondable, WalletLockable,\nFraudChallengable, CancelOrdersChallengable, Servable {\n    using SafeMathIntLib for int256;\n    using SafeMathUintLib for uint256;\n    using Strings for string;\n\n    //\n    // Constants\n    // -----------------------------------------------------------------------------------------------------------------\n    string constant public CHALLENGE_BY_ORDER_ACTION = \"challenge_by_order\";\n    string constant public UNCHALLENGE_ORDER_CANDIDATE_BY_TRADE_ACTION = \"unchallenge_order_candidate_by_trade\";\n    string constant public CHALLENGE_BY_TRADE_ACTION = \"challenge_by_trade\";\n\n    //\n    // Variables\n    // -----------------------------------------------------------------------------------------------------------------\n    DriipSettlementChallengeState public driipSettlementChallengeState;\n\n    //\n    // Events\n    // -----------------------------------------------------------------------------------------------------------------\n    event SetDriipSettlementChallengeStateEvent(DriipSettlementChallengeState oldDriipSettlementChallengeState,\n        DriipSettlementChallengeState newDriipSettlementChallengeState);\n    event ChallengeByOrderEvent(uint256 nonce, TradeTypesLib.Order order, address challenger);\n    event UnchallengeOrderCandidateByTradeEvent(uint256 nonce, TradeTypesLib.Order order,\n        TradeTypesLib.Trade trade, address unchallenger);\n    event ChallengeByTradeEvent(address wallet, uint256 nonce, TradeTypesLib.Trade trade,\n        address challenger);\n\n    //\n    // Constructor\n    // -----------------------------------------------------------------------------------------------------------------\n    constructor(address deployer) Ownable(deployer) public {\n    }\n\n    /// @notice Set the driip settlement state contract\n    /// @param newDriipSettlementChallengeState The (address of) DriipSettlementChallengeState contract instance\n    function setDriipSettlementChallengeState(DriipSettlementChallengeState newDriipSettlementChallengeState) public\n    onlyDeployer\n    notNullAddress(newDriipSettlementChallengeState)\n    {\n        DriipSettlementChallengeState oldDriipSettlementChallengeState = driipSettlementChallengeState;\n        driipSettlementChallengeState = newDriipSettlementChallengeState;\n        emit SetDriipSettlementChallengeStateEvent(oldDriipSettlementChallengeState, driipSettlementChallengeState);\n    }\n\n    /// @notice Challenge the driip settlement by providing order candidate\n    /// @param order The order candidate that challenges the challenged driip\n    /// @param challenger The address of the challenger\n    /// @dev If (candidate) order has buy intention consider _conjugate_ currency and amount, else\n    /// if (candidate) order has sell intention consider _intended_ currency and amount\n    function challengeByOrder(TradeTypesLib.Order order, address challenger) public\n    onlyEnabledServiceAction(CHALLENGE_BY_ORDER_ACTION)\n    onlySealedOrder(order)\n    {\n        // Require that candidate order is not labelled fraudulent or cancelled\n        require(!fraudChallenge.isFraudulentOrderHash(order.seals.operator.hash));\n        require(!cancelOrdersChallenge.isOrderCancelled(order.wallet, order.seals.operator.hash));\n\n        // Get the relevant currency\n        MonetaryTypesLib.Currency memory currency = _orderCurrency(order);\n\n        // Require that proposal has not expired\n        require(!driipSettlementChallengeState.hasProposalExpired(order.wallet, currency));\n\n        // Require that orders's nonce is strictly greater than proposal's nonce and its current\n        // disqualification nonce\n        require(order.nonce > driipSettlementChallengeState.proposalNonce(\n            order.wallet, currency\n        ));\n        require(order.nonce > driipSettlementChallengeState.proposalDisqualificationNonce(\n            order.wallet, currency\n        ));\n\n        // Require that transfer amount is strictly greater than the proposal's target balance amount\n        // for this order to be a valid challenge candidate\n        require(_orderTransferAmount(order) > driipSettlementChallengeState.proposalTargetBalanceAmount(\n            order.wallet, currency\n        ));\n\n        // Reward challenger\n        // TODO Need balance as part of order to replace transfer amount (_orderTransferAmount(order)) in call below\n        _settleRewards(\n            order.wallet, _orderTransferAmount(order), currency, challenger,\n            configuration.settlementChallengeTimeout()\n        );\n\n        // Disqualify proposal, effectively overriding any previous disqualification\n        driipSettlementChallengeState.disqualifyProposal(\n            order.wallet, currency, challenger, order.blockNumber,\n            order.nonce, order.seals.operator.hash, TradeTypesLib.ORDER_KIND()\n        );\n\n        // Emit event\n        emit ChallengeByOrderEvent(\n            driipSettlementChallengeState.proposalNonce(order.wallet, currency), order, challenger\n        );\n    }\n\n    /// @notice Unchallenge driip settlement by providing trade that shows that challenge order candidate has been filled\n    /// @param order The order candidate that challenged driip\n    /// @param trade The trade in which order has been filled\n    /// @param unchallenger The address of the unchallenger\n    function unchallengeOrderCandidateByTrade(TradeTypesLib.Order order, TradeTypesLib.Trade trade, address unchallenger)\n    public\n    onlyEnabledServiceAction(UNCHALLENGE_ORDER_CANDIDATE_BY_TRADE_ACTION)\n    onlySealedOrder(order)\n    onlySealedTrade(trade)\n    onlyTradeParty(trade, order.wallet)\n    {\n        // Get the relevant currency\n        MonetaryTypesLib.Currency memory currency = _orderCurrency(order);\n\n        // Require that proposal has not expired\n        require(!driipSettlementChallengeState.hasProposalExpired(order.wallet, currency));\n\n        // Require that proposal has been disqualified\n        require(SettlementChallengeTypesLib.Status.Disqualified == driipSettlementChallengeState.proposalStatus(\n            order.wallet, currency\n        ));\n\n        // Require that candidate kind is order\n        require(\n            TradeTypesLib.ORDER_KIND().compareTo(driipSettlementChallengeState.proposalDisqualificationCandidateKind(\n                order.wallet, currency\n            ))\n        );\n\n        // Require that trade and order are not labelled fraudulent\n        require(!fraudChallenge.isFraudulentTradeHash(trade.seal.hash));\n        require(!fraudChallenge.isFraudulentOrderHash(order.seals.operator.hash));\n\n        bytes32 candidateHash = driipSettlementChallengeState.proposalDisqualificationCandidateHash(\n            order.wallet, currency\n        );\n\n        // Require that the order's and trade' order hashes equal the candidate (order's) hash,\n        // and implicitly that order's and trade order's hashes equal\n        // Order wallet is buyer -> require candidate hash to match buyer's order hash\n        // Order wallet is seller -> require candidate hash to match seller's order hash\n        require(candidateHash == order.seals.operator.hash);\n        require(candidateHash == _tradeOrderHash(trade, order.wallet));\n\n        // Store old challenger\n        address challenger = driipSettlementChallengeState.proposalDisqualificationChallenger(\n            order.wallet, currency\n        );\n\n        // Unlock wallet's balances or deprive challenger\n        if (driipSettlementChallengeState.proposalWalletInitiated(order.wallet, currency))\n            walletLocker.unlockFungibleByProxy(order.wallet, challenger, currency.ct, currency.id);\n        else\n            securityBond.depriveAbsolute(challenger, currency.ct, currency.id);\n\n        // Requalify proposal\n        driipSettlementChallengeState.qualifyProposal(\n            order.wallet, currency\n        );\n\n        // Reward unchallenger\n        securityBond.rewardFractional(unchallenger, configuration.walletSettlementStakeFraction(), 0);\n\n        // Emit event\n        emit UnchallengeOrderCandidateByTradeEvent(\n            driipSettlementChallengeState.proposalNonce(order.wallet, currency), order, trade, unchallenger\n        );\n    }\n\n    /// @notice Challenge the driip settlement by providing trade candidate\n    /// @param wallet The wallet whose driip settlement is being challenged\n    /// @param trade The trade candidate that challenges the challenged driip\n    /// @param challenger The address of the challenger\n    /// @dev If wallet is buyer in (candidate) trade consider single _conjugate_ transfer in (candidate) trade. Else\n    /// if wallet is seller in (candidate) trade consider single _intended_ transfer in (candidate) trade\n    function challengeByTrade(address wallet, TradeTypesLib.Trade trade, address challenger)\n    public\n    onlyEnabledServiceAction(CHALLENGE_BY_TRADE_ACTION)\n    onlySealedTrade(trade)\n    onlyTradeParty(trade, wallet)\n    {\n        // Require that trade candidate is not labelled fraudulent\n        require(!fraudChallenge.isFraudulentTradeHash(trade.seal.hash));\n\n        // Require that wallet's order in trade is not labelled fraudulent or cancelled\n        require(!fraudChallenge.isFraudulentOrderHash(_tradeOrderHash(trade, wallet)));\n        require(!cancelOrdersChallenge.isOrderCancelled(wallet, _tradeOrderHash(trade, wallet)));\n\n        // Get the relevant currency\n        MonetaryTypesLib.Currency memory currency = _tradeCurrency(trade, wallet);\n\n        // Require that proposal has not expired\n        require(!driipSettlementChallengeState.hasProposalExpired(wallet, currency));\n\n        // Get the relevant nonce\n        uint256 nonce = _tradeNonce(trade, wallet);\n\n        // Require that trade party's nonce is strictly greater than proposal's nonce and its current\n        // disqualification nonce\n        require(nonce > driipSettlementChallengeState.proposalNonce(\n            wallet, currency\n        ));\n        require(nonce > driipSettlementChallengeState.proposalDisqualificationNonce(\n            wallet, currency\n        ));\n\n        // Require that transfer amount is strictly greater than the proposal's target balance amount\n        // for this trade to be a valid challenge candidate\n        require(_tradeTransferAmount(trade, wallet) > driipSettlementChallengeState.proposalTargetBalanceAmount(\n            wallet, currency\n        ));\n\n        // Reward challenger\n        _settleRewards(wallet, _tradeBalanceAmount(trade, wallet), currency, challenger, 0);\n\n        // Disqualify proposal, effectively overriding any previous disqualification\n        driipSettlementChallengeState.disqualifyProposal(\n            wallet, currency, challenger, trade.blockNumber,\n            nonce, trade.seal.hash, TradeTypesLib.TRADE_KIND()\n        );\n\n        // Emit event\n        emit ChallengeByTradeEvent(\n            wallet, driipSettlementChallengeState.proposalNonce(wallet, currency), trade, challenger\n        );\n    }\n\n    //\n    // Private functions\n    // -----------------------------------------------------------------------------------------------------------------\n    // Get the candidate order currency\n    // Buy order -> Conjugate currency\n    // Sell order -> Intended currency\n    function _orderCurrency(TradeTypesLib.Order order)\n    private\n    pure\n    returns (MonetaryTypesLib.Currency)\n    {\n        return TradeTypesLib.Intention.Sell == order.placement.intention ?\n        order.placement.currencies.intended :\n        order.placement.currencies.conjugate;\n    }\n\n    // Get the candidate order transfer\n    // Buy order -> Conjugate transfer\n    // Sell order -> Intended transfer\n    function _orderTransferAmount(TradeTypesLib.Order order)\n    private\n    pure\n    returns (int256)\n    {\n        return TradeTypesLib.Intention.Sell == order.placement.intention ?\n        order.placement.amount :\n        order.placement.amount.div(order.placement.rate);\n    }\n\n    function _tradeOrderHash(TradeTypesLib.Trade trade, address wallet)\n    private\n    view\n    returns (bytes32)\n    {\n        return validator.isTradeBuyer(trade, wallet) ?\n        trade.buyer.order.hashes.operator :\n        trade.seller.order.hashes.operator;\n    }\n\n    // Get the candidate trade currency\n    // Wallet is buyer in (candidate) trade -> Conjugate currency\n    // Wallet is seller in (candidate) trade -> Intended currency\n    function _tradeCurrency(TradeTypesLib.Trade trade, address wallet)\n    private\n    view\n    returns (MonetaryTypesLib.Currency)\n    {\n        return validator.isTradeBuyer(trade, wallet) ?\n        trade.currencies.conjugate :\n        trade.currencies.intended;\n    }\n\n    // Get the candidate trade nonce\n    // Wallet is buyer in (candidate) trade -> Buyer's nonce\n    // Wallet is seller in (candidate) trade -> Seller's nonce\n    function _tradeNonce(TradeTypesLib.Trade trade, address wallet)\n    private\n    view\n    returns (uint256)\n    {\n        return validator.isTradeBuyer(trade, wallet) ?\n        trade.buyer.nonce :\n        trade.seller.nonce;\n    }\n\n    // Get the candidate trade transfer amount\n    // Wallet is buyer in (candidate) trade -> Conjugate transfer\n    // Wallet is seller in (candidate) trade -> Intended transfer\n    function _tradeTransferAmount(TradeTypesLib.Trade trade, address wallet)\n    private\n    view\n    returns (int256)\n    {\n        return validator.isTradeBuyer(trade, wallet) ?\n        trade.transfers.conjugate.single :\n        trade.transfers.intended.single;\n    }\n\n    // Get the candidate trade balance amount\n    // Wallet is buyer in (candidate) trade -> Buyer's conjugate balance\n    // Wallet is seller in (candidate) trade -> Seller's intended balance\n    function _tradeBalanceAmount(TradeTypesLib.Trade trade, address wallet)\n    private\n    view\n    returns (int256)\n    {\n        return validator.isTradeBuyer(trade, wallet) ?\n        trade.buyer.balances.conjugate.current :\n        trade.seller.balances.intended.current;\n    }\n\n    // Lock wallet's balances or reward challenger by stake fraction\n    function _settleRewards(address wallet, int256 walletAmount, MonetaryTypesLib.Currency currency,\n        address challenger, uint256 unlockTimeoutInSeconds)\n    private\n    {\n        if (driipSettlementChallengeState.proposalWalletInitiated(wallet, currency))\n            _settleBalanceReward(wallet, walletAmount, currency, challenger);\n\n        else\n            _settleSecurityBondReward(wallet, walletAmount, currency, challenger, unlockTimeoutInSeconds);\n    }\n\n    function _settleBalanceReward(address wallet, int256 walletAmount, MonetaryTypesLib.Currency currency,\n        address challenger)\n    private\n    {\n        // Unlock wallet/currency for existing challenger if previously locked\n        if (SettlementChallengeTypesLib.Status.Disqualified == driipSettlementChallengeState.proposalStatus(\n            wallet, currency\n        ))\n            walletLocker.unlockFungibleByProxy(\n                wallet,\n                driipSettlementChallengeState.proposalDisqualificationChallenger(\n                    wallet, currency\n                ),\n                currency.ct, currency.id\n            );\n\n        // Lock wallet for new challenger\n        walletLocker.lockFungibleByProxy(\n            wallet, challenger, walletAmount, currency.ct, currency.id, configuration.settlementChallengeTimeout()\n        );\n    }\n\n    // Settle the two-component reward from security bond.\n    // The first component is flat figure as obtained from Configuration\n    // The second component is progressive and calculated as\n    //    min(walletAmount, fraction of SecurityBond's deposited balance)\n    // both amounts for the given currency\n    function _settleSecurityBondReward(address wallet, int256 walletAmount, MonetaryTypesLib.Currency currency,\n        address challenger, uint256 unlockTimeoutInSeconds)\n    private\n    {\n        // Deprive existing challenger of reward if previously locked\n        if (SettlementChallengeTypesLib.Status.Disqualified == driipSettlementChallengeState.proposalStatus(\n            wallet, currency\n        ))\n            securityBond.depriveAbsolute(\n                driipSettlementChallengeState.proposalDisqualificationChallenger(\n                    wallet, currency\n                ),\n                currency.ct, currency.id\n            );\n\n        // Reward the flat component\n        MonetaryTypesLib.Figure memory flatReward = _flatReward();\n        securityBond.rewardAbsolute(\n            challenger, flatReward.amount, flatReward.currency.ct, flatReward.currency.id, unlockTimeoutInSeconds\n        );\n\n        // Reward the progressive component\n        int256 progressiveRewardAmount = walletAmount.clampMax(\n            securityBond.depositedFractionalBalance(\n                currency.ct, currency.id, configuration.operatorSettlementStakeFraction()\n            )\n        );\n        securityBond.rewardAbsolute(\n            challenger, progressiveRewardAmount, currency.ct, currency.id, unlockTimeoutInSeconds\n        );\n    }\n\n    function _flatReward()\n    private\n    view\n    returns (MonetaryTypesLib.Figure)\n    {\n        (int256 amount, address currencyCt, uint256 currencyId) = configuration.operatorSettlementStake();\n        return MonetaryTypesLib.Figure(amount, MonetaryTypesLib.Currency(currencyCt, currencyId));\n    }\n}",
  "sourcePath": "/opt/buildagent/work/855e104608380c36/contracts/DriipSettlementDisputeByTrade.sol",
  "compiler": {
    "name": "solc",
    "version": "0.4.25+commit.59dbf8f1.Emscripten.clang"
  },
  "schemaVersion": "2.0.2",
  "updatedAt": "2019-04-02T08:24:32.006Z"
}