{
  "contractName": "DriipSettlementDisputeByOrder",
  "abi": [
    {
      "inputs": [
        {
          "internalType": "address",
          "name": "deployer",
          "type": "address"
        }
      ],
      "payable": false,
      "stateMutability": "nonpayable",
      "type": "constructor"
    },
    {
      "anonymous": false,
      "inputs": [
        {
          "indexed": false,
          "internalType": "uint256",
          "name": "nonce",
          "type": "uint256"
        },
        {
          "components": [
            {
              "internalType": "uint256",
              "name": "nonce",
              "type": "uint256"
            },
            {
              "internalType": "address",
              "name": "wallet",
              "type": "address"
            },
            {
              "components": [
                {
                  "internalType": "enum TradeTypesLib.Intention",
                  "name": "intention",
                  "type": "uint8"
                },
                {
                  "internalType": "int256",
                  "name": "amount",
                  "type": "int256"
                },
                {
                  "components": [
                    {
                      "components": [
                        {
                          "internalType": "address",
                          "name": "ct",
                          "type": "address"
                        },
                        {
                          "internalType": "uint256",
                          "name": "id",
                          "type": "uint256"
                        }
                      ],
                      "internalType": "struct MonetaryTypesLib.Currency",
                      "name": "intended",
                      "type": "tuple"
                    },
                    {
                      "components": [
                        {
                          "internalType": "address",
                          "name": "ct",
                          "type": "address"
                        },
                        {
                          "internalType": "uint256",
                          "name": "id",
                          "type": "uint256"
                        }
                      ],
                      "internalType": "struct MonetaryTypesLib.Currency",
                      "name": "conjugate",
                      "type": "tuple"
                    }
                  ],
                  "internalType": "struct NahmiiTypesLib.IntendedConjugateCurrency",
                  "name": "currencies",
                  "type": "tuple"
                },
                {
                  "internalType": "int256",
                  "name": "rate",
                  "type": "int256"
                },
                {
                  "components": [
                    {
                      "internalType": "int256",
                      "name": "current",
                      "type": "int256"
                    },
                    {
                      "internalType": "int256",
                      "name": "previous",
                      "type": "int256"
                    }
                  ],
                  "internalType": "struct NahmiiTypesLib.CurrentPreviousInt256",
                  "name": "residuals",
                  "type": "tuple"
                }
              ],
              "internalType": "struct TradeTypesLib.OrderPlacement",
              "name": "placement",
              "type": "tuple"
            },
            {
              "components": [
                {
                  "components": [
                    {
                      "internalType": "bytes32",
                      "name": "hash",
                      "type": "bytes32"
                    },
                    {
                      "components": [
                        {
                          "internalType": "bytes32",
                          "name": "r",
                          "type": "bytes32"
                        },
                        {
                          "internalType": "bytes32",
                          "name": "s",
                          "type": "bytes32"
                        },
                        {
                          "internalType": "uint8",
                          "name": "v",
                          "type": "uint8"
                        }
                      ],
                      "internalType": "struct NahmiiTypesLib.Signature",
                      "name": "signature",
                      "type": "tuple"
                    }
                  ],
                  "internalType": "struct NahmiiTypesLib.Seal",
                  "name": "wallet",
                  "type": "tuple"
                },
                {
                  "components": [
                    {
                      "internalType": "bytes32",
                      "name": "hash",
                      "type": "bytes32"
                    },
                    {
                      "components": [
                        {
                          "internalType": "bytes32",
                          "name": "r",
                          "type": "bytes32"
                        },
                        {
                          "internalType": "bytes32",
                          "name": "s",
                          "type": "bytes32"
                        },
                        {
                          "internalType": "uint8",
                          "name": "v",
                          "type": "uint8"
                        }
                      ],
                      "internalType": "struct NahmiiTypesLib.Signature",
                      "name": "signature",
                      "type": "tuple"
                    }
                  ],
                  "internalType": "struct NahmiiTypesLib.Seal",
                  "name": "operator",
                  "type": "tuple"
                }
              ],
              "internalType": "struct NahmiiTypesLib.WalletOperatorSeal",
              "name": "seals",
              "type": "tuple"
            },
            {
              "internalType": "uint256",
              "name": "blockNumber",
              "type": "uint256"
            },
            {
              "internalType": "uint256",
              "name": "operatorId",
              "type": "uint256"
            }
          ],
          "indexed": false,
          "internalType": "struct TradeTypesLib.Order",
          "name": "order",
          "type": "tuple"
        },
        {
          "indexed": false,
          "internalType": "address",
          "name": "challenger",
          "type": "address"
        }
      ],
      "name": "ChallengeByOrderEvent",
      "type": "event"
    },
    {
      "anonymous": false,
      "inputs": [
        {
          "indexed": false,
          "internalType": "address",
          "name": "service",
          "type": "address"
        }
      ],
      "name": "DeregisterServiceEvent",
      "type": "event"
    },
    {
      "anonymous": false,
      "inputs": [
        {
          "indexed": false,
          "internalType": "address",
          "name": "service",
          "type": "address"
        },
        {
          "indexed": false,
          "internalType": "string",
          "name": "action",
          "type": "string"
        }
      ],
      "name": "DisableServiceActionEvent",
      "type": "event"
    },
    {
      "anonymous": false,
      "inputs": [
        {
          "indexed": false,
          "internalType": "address",
          "name": "service",
          "type": "address"
        },
        {
          "indexed": false,
          "internalType": "string",
          "name": "action",
          "type": "string"
        }
      ],
      "name": "EnableServiceActionEvent",
      "type": "event"
    },
    {
      "anonymous": false,
      "inputs": [],
      "name": "FreezeBalanceTrackerEvent",
      "type": "event"
    },
    {
      "anonymous": false,
      "inputs": [],
      "name": "FreezeWalletLockerEvent",
      "type": "event"
    },
    {
      "anonymous": false,
      "inputs": [
        {
          "indexed": false,
          "internalType": "address",
          "name": "service",
          "type": "address"
        },
        {
          "indexed": false,
          "internalType": "uint256",
          "name": "timeout",
          "type": "uint256"
        }
      ],
      "name": "RegisterServiceDeferredEvent",
      "type": "event"
    },
    {
      "anonymous": false,
      "inputs": [
        {
          "indexed": false,
          "internalType": "address",
          "name": "service",
          "type": "address"
        }
      ],
      "name": "RegisterServiceEvent",
      "type": "event"
    },
    {
      "anonymous": false,
      "inputs": [
        {
          "indexed": false,
          "internalType": "address",
          "name": "wallet",
          "type": "address"
        }
      ],
      "name": "SelfDestructionDisabledEvent",
      "type": "event"
    },
    {
      "anonymous": false,
      "inputs": [
        {
          "indexed": false,
          "internalType": "uint256",
          "name": "timeoutInSeconds",
          "type": "uint256"
        }
      ],
      "name": "ServiceActivationTimeoutEvent",
      "type": "event"
    },
    {
      "anonymous": false,
      "inputs": [
        {
          "indexed": false,
          "internalType": "contract BalanceTracker",
          "name": "oldBalanceTracker",
          "type": "address"
        },
        {
          "indexed": false,
          "internalType": "contract BalanceTracker",
          "name": "newBalanceTracker",
          "type": "address"
        }
      ],
      "name": "SetBalanceTrackerEvent",
      "type": "event"
    },
    {
      "anonymous": false,
      "inputs": [
        {
          "indexed": false,
          "internalType": "contract CancelOrdersChallenge",
          "name": "oldCancelOrdersChallenge",
          "type": "address"
        },
        {
          "indexed": false,
          "internalType": "contract CancelOrdersChallenge",
          "name": "newCancelOrdersChallenge",
          "type": "address"
        }
      ],
      "name": "SetCancelOrdersChallengeEvent",
      "type": "event"
    },
    {
      "anonymous": false,
      "inputs": [
        {
          "indexed": false,
          "internalType": "contract Configuration",
          "name": "oldConfiguration",
          "type": "address"
        },
        {
          "indexed": false,
          "internalType": "contract Configuration",
          "name": "newConfiguration",
          "type": "address"
        }
      ],
      "name": "SetConfigurationEvent",
      "type": "event"
    },
    {
      "anonymous": false,
      "inputs": [
        {
          "indexed": false,
          "internalType": "address",
          "name": "oldDeployer",
          "type": "address"
        },
        {
          "indexed": false,
          "internalType": "address",
          "name": "newDeployer",
          "type": "address"
        }
      ],
      "name": "SetDeployerEvent",
      "type": "event"
    },
    {
      "anonymous": false,
      "inputs": [
        {
          "indexed": false,
          "internalType": "contract DriipSettlementChallengeState",
          "name": "oldDriipSettlementChallengeState",
          "type": "address"
        },
        {
          "indexed": false,
          "internalType": "contract DriipSettlementChallengeState",
          "name": "newDriipSettlementChallengeState",
          "type": "address"
        }
      ],
      "name": "SetDriipSettlementChallengeStateEvent",
      "type": "event"
    },
    {
      "anonymous": false,
      "inputs": [
        {
          "indexed": false,
          "internalType": "contract FraudChallenge",
          "name": "oldFraudChallenge",
          "type": "address"
        },
        {
          "indexed": false,
          "internalType": "contract FraudChallenge",
          "name": "newFraudChallenge",
          "type": "address"
        }
      ],
      "name": "SetFraudChallengeEvent",
      "type": "event"
    },
    {
      "anonymous": false,
      "inputs": [
        {
          "indexed": false,
          "internalType": "contract NullSettlementChallengeState",
          "name": "oldNullSettlementChallengeState",
          "type": "address"
        },
        {
          "indexed": false,
          "internalType": "contract NullSettlementChallengeState",
          "name": "newNullSettlementChallengeState",
          "type": "address"
        }
      ],
      "name": "SetNullSettlementChallengeStateEvent",
      "type": "event"
    },
    {
      "anonymous": false,
      "inputs": [
        {
          "indexed": false,
          "internalType": "address",
          "name": "oldOperator",
          "type": "address"
        },
        {
          "indexed": false,
          "internalType": "address",
          "name": "newOperator",
          "type": "address"
        }
      ],
      "name": "SetOperatorEvent",
      "type": "event"
    },
    {
      "anonymous": false,
      "inputs": [
        {
          "indexed": false,
          "internalType": "contract SecurityBond",
          "name": "oldSecurityBond",
          "type": "address"
        },
        {
          "indexed": false,
          "internalType": "contract SecurityBond",
          "name": "newSecurityBond",
          "type": "address"
        }
      ],
      "name": "SetSecurityBondEvent",
      "type": "event"
    },
    {
      "anonymous": false,
      "inputs": [
        {
          "indexed": false,
          "internalType": "contract ValidatorV2",
          "name": "oldValidator",
          "type": "address"
        },
        {
          "indexed": false,
          "internalType": "contract ValidatorV2",
          "name": "newValidator",
          "type": "address"
        }
      ],
      "name": "SetValidatorEvent",
      "type": "event"
    },
    {
      "anonymous": false,
      "inputs": [
        {
          "indexed": false,
          "internalType": "contract WalletLocker",
          "name": "oldWalletLocker",
          "type": "address"
        },
        {
          "indexed": false,
          "internalType": "contract WalletLocker",
          "name": "newWalletLocker",
          "type": "address"
        }
      ],
      "name": "SetWalletLockerEvent",
      "type": "event"
    },
    {
      "anonymous": false,
      "inputs": [
        {
          "indexed": false,
          "internalType": "address",
          "name": "wallet",
          "type": "address"
        }
      ],
      "name": "TriggerSelfDestructionEvent",
      "type": "event"
    },
    {
      "anonymous": false,
      "inputs": [
        {
          "indexed": false,
          "internalType": "uint256",
          "name": "nonce",
          "type": "uint256"
        },
        {
          "components": [
            {
              "internalType": "uint256",
              "name": "nonce",
              "type": "uint256"
            },
            {
              "internalType": "address",
              "name": "wallet",
              "type": "address"
            },
            {
              "components": [
                {
                  "internalType": "enum TradeTypesLib.Intention",
                  "name": "intention",
                  "type": "uint8"
                },
                {
                  "internalType": "int256",
                  "name": "amount",
                  "type": "int256"
                },
                {
                  "components": [
                    {
                      "components": [
                        {
                          "internalType": "address",
                          "name": "ct",
                          "type": "address"
                        },
                        {
                          "internalType": "uint256",
                          "name": "id",
                          "type": "uint256"
                        }
                      ],
                      "internalType": "struct MonetaryTypesLib.Currency",
                      "name": "intended",
                      "type": "tuple"
                    },
                    {
                      "components": [
                        {
                          "internalType": "address",
                          "name": "ct",
                          "type": "address"
                        },
                        {
                          "internalType": "uint256",
                          "name": "id",
                          "type": "uint256"
                        }
                      ],
                      "internalType": "struct MonetaryTypesLib.Currency",
                      "name": "conjugate",
                      "type": "tuple"
                    }
                  ],
                  "internalType": "struct NahmiiTypesLib.IntendedConjugateCurrency",
                  "name": "currencies",
                  "type": "tuple"
                },
                {
                  "internalType": "int256",
                  "name": "rate",
                  "type": "int256"
                },
                {
                  "components": [
                    {
                      "internalType": "int256",
                      "name": "current",
                      "type": "int256"
                    },
                    {
                      "internalType": "int256",
                      "name": "previous",
                      "type": "int256"
                    }
                  ],
                  "internalType": "struct NahmiiTypesLib.CurrentPreviousInt256",
                  "name": "residuals",
                  "type": "tuple"
                }
              ],
              "internalType": "struct TradeTypesLib.OrderPlacement",
              "name": "placement",
              "type": "tuple"
            },
            {
              "components": [
                {
                  "components": [
                    {
                      "internalType": "bytes32",
                      "name": "hash",
                      "type": "bytes32"
                    },
                    {
                      "components": [
                        {
                          "internalType": "bytes32",
                          "name": "r",
                          "type": "bytes32"
                        },
                        {
                          "internalType": "bytes32",
                          "name": "s",
                          "type": "bytes32"
                        },
                        {
                          "internalType": "uint8",
                          "name": "v",
                          "type": "uint8"
                        }
                      ],
                      "internalType": "struct NahmiiTypesLib.Signature",
                      "name": "signature",
                      "type": "tuple"
                    }
                  ],
                  "internalType": "struct NahmiiTypesLib.Seal",
                  "name": "wallet",
                  "type": "tuple"
                },
                {
                  "components": [
                    {
                      "internalType": "bytes32",
                      "name": "hash",
                      "type": "bytes32"
                    },
                    {
                      "components": [
                        {
                          "internalType": "bytes32",
                          "name": "r",
                          "type": "bytes32"
                        },
                        {
                          "internalType": "bytes32",
                          "name": "s",
                          "type": "bytes32"
                        },
                        {
                          "internalType": "uint8",
                          "name": "v",
                          "type": "uint8"
                        }
                      ],
                      "internalType": "struct NahmiiTypesLib.Signature",
                      "name": "signature",
                      "type": "tuple"
                    }
                  ],
                  "internalType": "struct NahmiiTypesLib.Seal",
                  "name": "operator",
                  "type": "tuple"
                }
              ],
              "internalType": "struct NahmiiTypesLib.WalletOperatorSeal",
              "name": "seals",
              "type": "tuple"
            },
            {
              "internalType": "uint256",
              "name": "blockNumber",
              "type": "uint256"
            },
            {
              "internalType": "uint256",
              "name": "operatorId",
              "type": "uint256"
            }
          ],
          "indexed": false,
          "internalType": "struct TradeTypesLib.Order",
          "name": "order",
          "type": "tuple"
        },
        {
          "components": [
            {
              "internalType": "uint256",
              "name": "nonce",
              "type": "uint256"
            },
            {
              "internalType": "int256",
              "name": "amount",
              "type": "int256"
            },
            {
              "components": [
                {
                  "components": [
                    {
                      "internalType": "address",
                      "name": "ct",
                      "type": "address"
                    },
                    {
                      "internalType": "uint256",
                      "name": "id",
                      "type": "uint256"
                    }
                  ],
                  "internalType": "struct MonetaryTypesLib.Currency",
                  "name": "intended",
                  "type": "tuple"
                },
                {
                  "components": [
                    {
                      "internalType": "address",
                      "name": "ct",
                      "type": "address"
                    },
                    {
                      "internalType": "uint256",
                      "name": "id",
                      "type": "uint256"
                    }
                  ],
                  "internalType": "struct MonetaryTypesLib.Currency",
                  "name": "conjugate",
                  "type": "tuple"
                }
              ],
              "internalType": "struct NahmiiTypesLib.IntendedConjugateCurrency",
              "name": "currencies",
              "type": "tuple"
            },
            {
              "internalType": "int256",
              "name": "rate",
              "type": "int256"
            },
            {
              "components": [
                {
                  "internalType": "uint256",
                  "name": "nonce",
                  "type": "uint256"
                },
                {
                  "internalType": "address",
                  "name": "wallet",
                  "type": "address"
                },
                {
                  "internalType": "uint256",
                  "name": "rollingVolume",
                  "type": "uint256"
                },
                {
                  "internalType": "enum TradeTypesLib.LiquidityRole",
                  "name": "liquidityRole",
                  "type": "uint8"
                },
                {
                  "components": [
                    {
                      "internalType": "int256",
                      "name": "amount",
                      "type": "int256"
                    },
                    {
                      "components": [
                        {
                          "internalType": "bytes32",
                          "name": "wallet",
                          "type": "bytes32"
                        },
                        {
                          "internalType": "bytes32",
                          "name": "operator",
                          "type": "bytes32"
                        }
                      ],
                      "internalType": "struct NahmiiTypesLib.WalletOperatorHashes",
                      "name": "hashes",
                      "type": "tuple"
                    },
                    {
                      "components": [
                        {
                          "internalType": "int256",
                          "name": "current",
                          "type": "int256"
                        },
                        {
                          "internalType": "int256",
                          "name": "previous",
                          "type": "int256"
                        }
                      ],
                      "internalType": "struct NahmiiTypesLib.CurrentPreviousInt256",
                      "name": "residuals",
                      "type": "tuple"
                    }
                  ],
                  "internalType": "struct TradeTypesLib.TradeOrder",
                  "name": "order",
                  "type": "tuple"
                },
                {
                  "components": [
                    {
                      "components": [
                        {
                          "internalType": "int256",
                          "name": "current",
                          "type": "int256"
                        },
                        {
                          "internalType": "int256",
                          "name": "previous",
                          "type": "int256"
                        }
                      ],
                      "internalType": "struct NahmiiTypesLib.CurrentPreviousInt256",
                      "name": "intended",
                      "type": "tuple"
                    },
                    {
                      "components": [
                        {
                          "internalType": "int256",
                          "name": "current",
                          "type": "int256"
                        },
                        {
                          "internalType": "int256",
                          "name": "previous",
                          "type": "int256"
                        }
                      ],
                      "internalType": "struct NahmiiTypesLib.CurrentPreviousInt256",
                      "name": "conjugate",
                      "type": "tuple"
                    }
                  ],
                  "internalType": "struct NahmiiTypesLib.IntendedConjugateCurrentPreviousInt256",
                  "name": "balances",
                  "type": "tuple"
                },
                {
                  "components": [
                    {
                      "components": [
                        {
                          "internalType": "int256",
                          "name": "amount",
                          "type": "int256"
                        },
                        {
                          "components": [
                            {
                              "internalType": "address",
                              "name": "ct",
                              "type": "address"
                            },
                            {
                              "internalType": "uint256",
                              "name": "id",
                              "type": "uint256"
                            }
                          ],
                          "internalType": "struct MonetaryTypesLib.Currency",
                          "name": "currency",
                          "type": "tuple"
                        }
                      ],
                      "internalType": "struct MonetaryTypesLib.Figure",
                      "name": "single",
                      "type": "tuple"
                    },
                    {
                      "components": [
                        {
                          "internalType": "uint256",
                          "name": "originId",
                          "type": "uint256"
                        },
                        {
                          "components": [
                            {
                              "internalType": "int256",
                              "name": "amount",
                              "type": "int256"
                            },
                            {
                              "components": [
                                {
                                  "internalType": "address",
                                  "name": "ct",
                                  "type": "address"
                                },
                                {
                                  "internalType": "uint256",
                                  "name": "id",
                                  "type": "uint256"
                                }
                              ],
                              "internalType": "struct MonetaryTypesLib.Currency",
                              "name": "currency",
                              "type": "tuple"
                            }
                          ],
                          "internalType": "struct MonetaryTypesLib.Figure",
                          "name": "figure",
                          "type": "tuple"
                        }
                      ],
                      "internalType": "struct NahmiiTypesLib.OriginFigure[]",
                      "name": "total",
                      "type": "tuple[]"
                    }
                  ],
                  "internalType": "struct NahmiiTypesLib.SingleFigureTotalOriginFigures",
                  "name": "fees",
                  "type": "tuple"
                }
              ],
              "internalType": "struct TradeTypesLib.TradeParty",
              "name": "buyer",
              "type": "tuple"
            },
            {
              "components": [
                {
                  "internalType": "uint256",
                  "name": "nonce",
                  "type": "uint256"
                },
                {
                  "internalType": "address",
                  "name": "wallet",
                  "type": "address"
                },
                {
                  "internalType": "uint256",
                  "name": "rollingVolume",
                  "type": "uint256"
                },
                {
                  "internalType": "enum TradeTypesLib.LiquidityRole",
                  "name": "liquidityRole",
                  "type": "uint8"
                },
                {
                  "components": [
                    {
                      "internalType": "int256",
                      "name": "amount",
                      "type": "int256"
                    },
                    {
                      "components": [
                        {
                          "internalType": "bytes32",
                          "name": "wallet",
                          "type": "bytes32"
                        },
                        {
                          "internalType": "bytes32",
                          "name": "operator",
                          "type": "bytes32"
                        }
                      ],
                      "internalType": "struct NahmiiTypesLib.WalletOperatorHashes",
                      "name": "hashes",
                      "type": "tuple"
                    },
                    {
                      "components": [
                        {
                          "internalType": "int256",
                          "name": "current",
                          "type": "int256"
                        },
                        {
                          "internalType": "int256",
                          "name": "previous",
                          "type": "int256"
                        }
                      ],
                      "internalType": "struct NahmiiTypesLib.CurrentPreviousInt256",
                      "name": "residuals",
                      "type": "tuple"
                    }
                  ],
                  "internalType": "struct TradeTypesLib.TradeOrder",
                  "name": "order",
                  "type": "tuple"
                },
                {
                  "components": [
                    {
                      "components": [
                        {
                          "internalType": "int256",
                          "name": "current",
                          "type": "int256"
                        },
                        {
                          "internalType": "int256",
                          "name": "previous",
                          "type": "int256"
                        }
                      ],
                      "internalType": "struct NahmiiTypesLib.CurrentPreviousInt256",
                      "name": "intended",
                      "type": "tuple"
                    },
                    {
                      "components": [
                        {
                          "internalType": "int256",
                          "name": "current",
                          "type": "int256"
                        },
                        {
                          "internalType": "int256",
                          "name": "previous",
                          "type": "int256"
                        }
                      ],
                      "internalType": "struct NahmiiTypesLib.CurrentPreviousInt256",
                      "name": "conjugate",
                      "type": "tuple"
                    }
                  ],
                  "internalType": "struct NahmiiTypesLib.IntendedConjugateCurrentPreviousInt256",
                  "name": "balances",
                  "type": "tuple"
                },
                {
                  "components": [
                    {
                      "components": [
                        {
                          "internalType": "int256",
                          "name": "amount",
                          "type": "int256"
                        },
                        {
                          "components": [
                            {
                              "internalType": "address",
                              "name": "ct",
                              "type": "address"
                            },
                            {
                              "internalType": "uint256",
                              "name": "id",
                              "type": "uint256"
                            }
                          ],
                          "internalType": "struct MonetaryTypesLib.Currency",
                          "name": "currency",
                          "type": "tuple"
                        }
                      ],
                      "internalType": "struct MonetaryTypesLib.Figure",
                      "name": "single",
                      "type": "tuple"
                    },
                    {
                      "components": [
                        {
                          "internalType": "uint256",
                          "name": "originId",
                          "type": "uint256"
                        },
                        {
                          "components": [
                            {
                              "internalType": "int256",
                              "name": "amount",
                              "type": "int256"
                            },
                            {
                              "components": [
                                {
                                  "internalType": "address",
                                  "name": "ct",
                                  "type": "address"
                                },
                                {
                                  "internalType": "uint256",
                                  "name": "id",
                                  "type": "uint256"
                                }
                              ],
                              "internalType": "struct MonetaryTypesLib.Currency",
                              "name": "currency",
                              "type": "tuple"
                            }
                          ],
                          "internalType": "struct MonetaryTypesLib.Figure",
                          "name": "figure",
                          "type": "tuple"
                        }
                      ],
                      "internalType": "struct NahmiiTypesLib.OriginFigure[]",
                      "name": "total",
                      "type": "tuple[]"
                    }
                  ],
                  "internalType": "struct NahmiiTypesLib.SingleFigureTotalOriginFigures",
                  "name": "fees",
                  "type": "tuple"
                }
              ],
              "internalType": "struct TradeTypesLib.TradeParty",
              "name": "seller",
              "type": "tuple"
            },
            {
              "components": [
                {
                  "components": [
                    {
                      "internalType": "int256",
                      "name": "single",
                      "type": "int256"
                    },
                    {
                      "internalType": "int256",
                      "name": "total",
                      "type": "int256"
                    }
                  ],
                  "internalType": "struct NahmiiTypesLib.SingleTotalInt256",
                  "name": "intended",
                  "type": "tuple"
                },
                {
                  "components": [
                    {
                      "internalType": "int256",
                      "name": "single",
                      "type": "int256"
                    },
                    {
                      "internalType": "int256",
                      "name": "total",
                      "type": "int256"
                    }
                  ],
                  "internalType": "struct NahmiiTypesLib.SingleTotalInt256",
                  "name": "conjugate",
                  "type": "tuple"
                }
              ],
              "internalType": "struct NahmiiTypesLib.IntendedConjugateSingleTotalInt256",
              "name": "transfers",
              "type": "tuple"
            },
            {
              "components": [
                {
                  "internalType": "bytes32",
                  "name": "hash",
                  "type": "bytes32"
                },
                {
                  "components": [
                    {
                      "internalType": "bytes32",
                      "name": "r",
                      "type": "bytes32"
                    },
                    {
                      "internalType": "bytes32",
                      "name": "s",
                      "type": "bytes32"
                    },
                    {
                      "internalType": "uint8",
                      "name": "v",
                      "type": "uint8"
                    }
                  ],
                  "internalType": "struct NahmiiTypesLib.Signature",
                  "name": "signature",
                  "type": "tuple"
                }
              ],
              "internalType": "struct NahmiiTypesLib.Seal",
              "name": "seal",
              "type": "tuple"
            },
            {
              "internalType": "uint256",
              "name": "blockNumber",
              "type": "uint256"
            },
            {
              "internalType": "uint256",
              "name": "operatorId",
              "type": "uint256"
            }
          ],
          "indexed": false,
          "internalType": "struct TradeTypesLib.Trade",
          "name": "trade",
          "type": "tuple"
        },
        {
          "indexed": false,
          "internalType": "address",
          "name": "unchallenger",
          "type": "address"
        }
      ],
      "name": "UnchallengeOrderCandidateByTradeEvent",
      "type": "event"
    },
    {
      "constant": true,
      "inputs": [],
      "name": "CHALLENGE_BY_ORDER_ACTION",
      "outputs": [
        {
          "internalType": "string",
          "name": "",
          "type": "string"
        }
      ],
      "payable": false,
      "stateMutability": "view",
      "type": "function"
    },
    {
      "constant": true,
      "inputs": [],
      "name": "balanceTracker",
      "outputs": [
        {
          "internalType": "contract BalanceTracker",
          "name": "",
          "type": "address"
        }
      ],
      "payable": false,
      "stateMutability": "view",
      "type": "function"
    },
    {
      "constant": true,
      "inputs": [],
      "name": "balanceTrackerFrozen",
      "outputs": [
        {
          "internalType": "bool",
          "name": "",
          "type": "bool"
        }
      ],
      "payable": false,
      "stateMutability": "view",
      "type": "function"
    },
    {
      "constant": true,
      "inputs": [],
      "name": "cancelOrdersChallenge",
      "outputs": [
        {
          "internalType": "contract CancelOrdersChallenge",
          "name": "",
          "type": "address"
        }
      ],
      "payable": false,
      "stateMutability": "view",
      "type": "function"
    },
    {
      "constant": true,
      "inputs": [],
      "name": "configuration",
      "outputs": [
        {
          "internalType": "contract Configuration",
          "name": "",
          "type": "address"
        }
      ],
      "payable": false,
      "stateMutability": "view",
      "type": "function"
    },
    {
      "constant": true,
      "inputs": [],
      "name": "deployer",
      "outputs": [
        {
          "internalType": "address",
          "name": "",
          "type": "address"
        }
      ],
      "payable": false,
      "stateMutability": "view",
      "type": "function"
    },
    {
      "constant": false,
      "inputs": [
        {
          "internalType": "address",
          "name": "service",
          "type": "address"
        }
      ],
      "name": "deregisterService",
      "outputs": [],
      "payable": false,
      "stateMutability": "nonpayable",
      "type": "function"
    },
    {
      "constant": true,
      "inputs": [],
      "name": "destructor",
      "outputs": [
        {
          "internalType": "address",
          "name": "",
          "type": "address"
        }
      ],
      "payable": false,
      "stateMutability": "view",
      "type": "function"
    },
    {
      "constant": false,
      "inputs": [],
      "name": "disableSelfDestruction",
      "outputs": [],
      "payable": false,
      "stateMutability": "nonpayable",
      "type": "function"
    },
    {
      "constant": false,
      "inputs": [
        {
          "internalType": "address",
          "name": "service",
          "type": "address"
        },
        {
          "internalType": "string",
          "name": "action",
          "type": "string"
        }
      ],
      "name": "disableServiceAction",
      "outputs": [],
      "payable": false,
      "stateMutability": "nonpayable",
      "type": "function"
    },
    {
      "constant": true,
      "inputs": [],
      "name": "driipSettlementChallengeState",
      "outputs": [
        {
          "internalType": "contract DriipSettlementChallengeState",
          "name": "",
          "type": "address"
        }
      ],
      "payable": false,
      "stateMutability": "view",
      "type": "function"
    },
    {
      "constant": false,
      "inputs": [
        {
          "internalType": "address",
          "name": "service",
          "type": "address"
        },
        {
          "internalType": "string",
          "name": "action",
          "type": "string"
        }
      ],
      "name": "enableServiceAction",
      "outputs": [],
      "payable": false,
      "stateMutability": "nonpayable",
      "type": "function"
    },
    {
      "constant": true,
      "inputs": [],
      "name": "fraudChallenge",
      "outputs": [
        {
          "internalType": "contract FraudChallenge",
          "name": "",
          "type": "address"
        }
      ],
      "payable": false,
      "stateMutability": "view",
      "type": "function"
    },
    {
      "constant": false,
      "inputs": [],
      "name": "freezeBalanceTracker",
      "outputs": [],
      "payable": false,
      "stateMutability": "nonpayable",
      "type": "function"
    },
    {
      "constant": false,
      "inputs": [],
      "name": "freezeWalletLocker",
      "outputs": [],
      "payable": false,
      "stateMutability": "nonpayable",
      "type": "function"
    },
    {
      "constant": true,
      "inputs": [
        {
          "internalType": "address",
          "name": "service",
          "type": "address"
        },
        {
          "internalType": "string",
          "name": "action",
          "type": "string"
        }
      ],
      "name": "isEnabledServiceAction",
      "outputs": [
        {
          "internalType": "bool",
          "name": "",
          "type": "bool"
        }
      ],
      "payable": false,
      "stateMutability": "view",
      "type": "function"
    },
    {
      "constant": true,
      "inputs": [
        {
          "internalType": "address",
          "name": "service",
          "type": "address"
        }
      ],
      "name": "isRegisteredActiveService",
      "outputs": [
        {
          "internalType": "bool",
          "name": "",
          "type": "bool"
        }
      ],
      "payable": false,
      "stateMutability": "view",
      "type": "function"
    },
    {
      "constant": true,
      "inputs": [
        {
          "internalType": "address",
          "name": "service",
          "type": "address"
        }
      ],
      "name": "isRegisteredService",
      "outputs": [
        {
          "internalType": "bool",
          "name": "",
          "type": "bool"
        }
      ],
      "payable": false,
      "stateMutability": "view",
      "type": "function"
    },
    {
      "constant": true,
      "inputs": [],
      "name": "nullSettlementChallengeState",
      "outputs": [
        {
          "internalType": "contract NullSettlementChallengeState",
          "name": "",
          "type": "address"
        }
      ],
      "payable": false,
      "stateMutability": "view",
      "type": "function"
    },
    {
      "constant": true,
      "inputs": [],
      "name": "operator",
      "outputs": [
        {
          "internalType": "address",
          "name": "",
          "type": "address"
        }
      ],
      "payable": false,
      "stateMutability": "view",
      "type": "function"
    },
    {
      "constant": false,
      "inputs": [
        {
          "internalType": "address",
          "name": "service",
          "type": "address"
        }
      ],
      "name": "registerService",
      "outputs": [],
      "payable": false,
      "stateMutability": "nonpayable",
      "type": "function"
    },
    {
      "constant": false,
      "inputs": [
        {
          "internalType": "address",
          "name": "service",
          "type": "address"
        }
      ],
      "name": "registerServiceDeferred",
      "outputs": [],
      "payable": false,
      "stateMutability": "nonpayable",
      "type": "function"
    },
    {
      "constant": true,
      "inputs": [],
      "name": "securityBond",
      "outputs": [
        {
          "internalType": "contract SecurityBond",
          "name": "",
          "type": "address"
        }
      ],
      "payable": false,
      "stateMutability": "view",
      "type": "function"
    },
    {
      "constant": true,
      "inputs": [],
      "name": "selfDestructionDisabled",
      "outputs": [
        {
          "internalType": "bool",
          "name": "",
          "type": "bool"
        }
      ],
      "payable": false,
      "stateMutability": "view",
      "type": "function"
    },
    {
      "constant": true,
      "inputs": [],
      "name": "serviceActivationTimeout",
      "outputs": [
        {
          "internalType": "uint256",
          "name": "",
          "type": "uint256"
        }
      ],
      "payable": false,
      "stateMutability": "view",
      "type": "function"
    },
    {
      "constant": false,
      "inputs": [
        {
          "internalType": "contract BalanceTracker",
          "name": "newBalanceTracker",
          "type": "address"
        }
      ],
      "name": "setBalanceTracker",
      "outputs": [],
      "payable": false,
      "stateMutability": "nonpayable",
      "type": "function"
    },
    {
      "constant": false,
      "inputs": [
        {
          "internalType": "contract CancelOrdersChallenge",
          "name": "newCancelOrdersChallenge",
          "type": "address"
        }
      ],
      "name": "setCancelOrdersChallenge",
      "outputs": [],
      "payable": false,
      "stateMutability": "nonpayable",
      "type": "function"
    },
    {
      "constant": false,
      "inputs": [
        {
          "internalType": "contract Configuration",
          "name": "newConfiguration",
          "type": "address"
        }
      ],
      "name": "setConfiguration",
      "outputs": [],
      "payable": false,
      "stateMutability": "nonpayable",
      "type": "function"
    },
    {
      "constant": false,
      "inputs": [
        {
          "internalType": "address",
          "name": "newDeployer",
          "type": "address"
        }
      ],
      "name": "setDeployer",
      "outputs": [],
      "payable": false,
      "stateMutability": "nonpayable",
      "type": "function"
    },
    {
      "constant": false,
      "inputs": [
        {
          "internalType": "contract FraudChallenge",
          "name": "newFraudChallenge",
          "type": "address"
        }
      ],
      "name": "setFraudChallenge",
      "outputs": [],
      "payable": false,
      "stateMutability": "nonpayable",
      "type": "function"
    },
    {
      "constant": false,
      "inputs": [
        {
          "internalType": "address",
          "name": "newOperator",
          "type": "address"
        }
      ],
      "name": "setOperator",
      "outputs": [],
      "payable": false,
      "stateMutability": "nonpayable",
      "type": "function"
    },
    {
      "constant": false,
      "inputs": [
        {
          "internalType": "contract SecurityBond",
          "name": "newSecurityBond",
          "type": "address"
        }
      ],
      "name": "setSecurityBond",
      "outputs": [],
      "payable": false,
      "stateMutability": "nonpayable",
      "type": "function"
    },
    {
      "constant": false,
      "inputs": [
        {
          "internalType": "uint256",
          "name": "timeoutInSeconds",
          "type": "uint256"
        }
      ],
      "name": "setServiceActivationTimeout",
      "outputs": [],
      "payable": false,
      "stateMutability": "nonpayable",
      "type": "function"
    },
    {
      "constant": false,
      "inputs": [
        {
          "internalType": "contract ValidatorV2",
          "name": "newValidator",
          "type": "address"
        }
      ],
      "name": "setValidator",
      "outputs": [],
      "payable": false,
      "stateMutability": "nonpayable",
      "type": "function"
    },
    {
      "constant": false,
      "inputs": [
        {
          "internalType": "contract WalletLocker",
          "name": "newWalletLocker",
          "type": "address"
        }
      ],
      "name": "setWalletLocker",
      "outputs": [],
      "payable": false,
      "stateMutability": "nonpayable",
      "type": "function"
    },
    {
      "constant": false,
      "inputs": [],
      "name": "triggerSelfDestruction",
      "outputs": [],
      "payable": false,
      "stateMutability": "nonpayable",
      "type": "function"
    },
    {
      "constant": true,
      "inputs": [],
      "name": "validator",
      "outputs": [
        {
          "internalType": "contract ValidatorV2",
          "name": "",
          "type": "address"
        }
      ],
      "payable": false,
      "stateMutability": "view",
      "type": "function"
    },
    {
      "constant": true,
      "inputs": [],
      "name": "walletLocker",
      "outputs": [
        {
          "internalType": "contract WalletLocker",
          "name": "",
          "type": "address"
        }
      ],
      "payable": false,
      "stateMutability": "view",
      "type": "function"
    },
    {
      "constant": true,
      "inputs": [],
      "name": "walletLockerFrozen",
      "outputs": [
        {
          "internalType": "bool",
          "name": "",
          "type": "bool"
        }
      ],
      "payable": false,
      "stateMutability": "view",
      "type": "function"
    },
    {
      "constant": false,
      "inputs": [
        {
          "internalType": "contract DriipSettlementChallengeState",
          "name": "newDriipSettlementChallengeState",
          "type": "address"
        }
      ],
      "name": "setDriipSettlementChallengeState",
      "outputs": [],
      "payable": false,
      "stateMutability": "nonpayable",
      "type": "function"
    },
    {
      "constant": false,
      "inputs": [
        {
          "internalType": "contract NullSettlementChallengeState",
          "name": "newNullSettlementChallengeState",
          "type": "address"
        }
      ],
      "name": "setNullSettlementChallengeState",
      "outputs": [],
      "payable": false,
      "stateMutability": "nonpayable",
      "type": "function"
    },
    {
      "constant": false,
      "inputs": [
        {
          "components": [
            {
              "internalType": "uint256",
              "name": "nonce",
              "type": "uint256"
            },
            {
              "internalType": "address",
              "name": "wallet",
              "type": "address"
            },
            {
              "components": [
                {
                  "internalType": "enum TradeTypesLib.Intention",
                  "name": "intention",
                  "type": "uint8"
                },
                {
                  "internalType": "int256",
                  "name": "amount",
                  "type": "int256"
                },
                {
                  "components": [
                    {
                      "components": [
                        {
                          "internalType": "address",
                          "name": "ct",
                          "type": "address"
                        },
                        {
                          "internalType": "uint256",
                          "name": "id",
                          "type": "uint256"
                        }
                      ],
                      "internalType": "struct MonetaryTypesLib.Currency",
                      "name": "intended",
                      "type": "tuple"
                    },
                    {
                      "components": [
                        {
                          "internalType": "address",
                          "name": "ct",
                          "type": "address"
                        },
                        {
                          "internalType": "uint256",
                          "name": "id",
                          "type": "uint256"
                        }
                      ],
                      "internalType": "struct MonetaryTypesLib.Currency",
                      "name": "conjugate",
                      "type": "tuple"
                    }
                  ],
                  "internalType": "struct NahmiiTypesLib.IntendedConjugateCurrency",
                  "name": "currencies",
                  "type": "tuple"
                },
                {
                  "internalType": "int256",
                  "name": "rate",
                  "type": "int256"
                },
                {
                  "components": [
                    {
                      "internalType": "int256",
                      "name": "current",
                      "type": "int256"
                    },
                    {
                      "internalType": "int256",
                      "name": "previous",
                      "type": "int256"
                    }
                  ],
                  "internalType": "struct NahmiiTypesLib.CurrentPreviousInt256",
                  "name": "residuals",
                  "type": "tuple"
                }
              ],
              "internalType": "struct TradeTypesLib.OrderPlacement",
              "name": "placement",
              "type": "tuple"
            },
            {
              "components": [
                {
                  "components": [
                    {
                      "internalType": "bytes32",
                      "name": "hash",
                      "type": "bytes32"
                    },
                    {
                      "components": [
                        {
                          "internalType": "bytes32",
                          "name": "r",
                          "type": "bytes32"
                        },
                        {
                          "internalType": "bytes32",
                          "name": "s",
                          "type": "bytes32"
                        },
                        {
                          "internalType": "uint8",
                          "name": "v",
                          "type": "uint8"
                        }
                      ],
                      "internalType": "struct NahmiiTypesLib.Signature",
                      "name": "signature",
                      "type": "tuple"
                    }
                  ],
                  "internalType": "struct NahmiiTypesLib.Seal",
                  "name": "wallet",
                  "type": "tuple"
                },
                {
                  "components": [
                    {
                      "internalType": "bytes32",
                      "name": "hash",
                      "type": "bytes32"
                    },
                    {
                      "components": [
                        {
                          "internalType": "bytes32",
                          "name": "r",
                          "type": "bytes32"
                        },
                        {
                          "internalType": "bytes32",
                          "name": "s",
                          "type": "bytes32"
                        },
                        {
                          "internalType": "uint8",
                          "name": "v",
                          "type": "uint8"
                        }
                      ],
                      "internalType": "struct NahmiiTypesLib.Signature",
                      "name": "signature",
                      "type": "tuple"
                    }
                  ],
                  "internalType": "struct NahmiiTypesLib.Seal",
                  "name": "operator",
                  "type": "tuple"
                }
              ],
              "internalType": "struct NahmiiTypesLib.WalletOperatorSeal",
              "name": "seals",
              "type": "tuple"
            },
            {
              "internalType": "uint256",
              "name": "blockNumber",
              "type": "uint256"
            },
            {
              "internalType": "uint256",
              "name": "operatorId",
              "type": "uint256"
            }
          ],
          "internalType": "struct TradeTypesLib.Order",
          "name": "order",
          "type": "tuple"
        },
        {
          "internalType": "address",
          "name": "challenger",
          "type": "address"
        }
      ],
      "name": "challengeByOrder",
      "outputs": [],
      "payable": false,
      "stateMutability": "nonpayable",
      "type": "function"
    }
  ],
  "bytecode": "0x60806040523480156200001157600080fd5b5060405162003d9f38038062003d9f8339810160408190526200003491620000b3565b80806001600160a01b0381166200004a57600080fd5b6001600160a01b0381163014156200006157600080fd5b5060008054610100600160a81b0319166101006001600160a01b0393909316928302179055600180546001600160a01b03191690911790555062000108565b8051620000ad81620000ee565b92915050565b600060208284031215620000c657600080fd5b6000620000d48484620000a0565b949350505050565b60006001600160a01b038216620000ad565b620000f981620000dc565b81146200010557600080fd5b50565b613c8780620001186000396000f3fe608060405234801561001057600080fd5b50600436106101ee5760003560e01c806301370d06146101f35780630cca956d146102085780631327d3d81461022657806314f3a6331461023957806317ba3f901461024e578063191390921461026e578063240625d8146102765780632738a1121461027e5780632aa1c9d9146102865780632b5672e3146102995780632b91e0a9146102ac5780632f013a00146102bf5780633a5381b5146102c75780633b58c501146102cf5780633b7bea6c146102e25780633bd7857f146102f75780633dad7da4146102ff5780633e59b706146103125780634476d23b1461031a57806350b08c021461032f57806351d7cd6114610342578063570ca7351461034a578063598b75ad146103525780635dc60def146103655780635df1b0a31461036d578063627f09c3146103805780636792ce6e146103935780636b0570d0146103a65780636c70bee9146103ae5780636ccb43c8146103b657806370327ea1146103c95780637e15dd5c146103d1578063892860b2146103e45780638e8cef12146103f75780638eed83591461040a578063962147351461041d578063b3ab15fb14610430578063b52d470a14610443578063d5f394881461044b578063e8ae41e314610453578063fa7424f21461045b578063fdd9ec7d14610463575b600080fd5b61020661020136600461300e565b610476565b005b610210610517565b60405161021d91906139c5565b60405180910390f35b61020661023436600461300e565b610526565b6102416105b7565b60405161021d91906139fc565b61026161025c366004612f45565b6105e5565b60405161021d91906139a9565b61021061061f565b61026161062e565b61020661063e565b61020661029436600461300e565b6106a4565b6102066102a7366004612f81565b61072b565b6102616102ba366004612f45565b610855565b610261610873565b61021061087c565b6102066102dd366004612f81565b61088b565b6102ea610967565b60405161021d91906139b7565b61021061096d565b61020661030d36600461300e565b61097c565b610261610a0d565b610322610a1d565b60405161021d919061376b565b61020661033d366004612f45565b610a31565b610210610aed565b610322610afc565b61020661036036600461300e565b610b0b565b610206610bcf565b61026161037b366004612f81565b610c1e565b61020661038e36600461300e565b610c71565b6102066103a136600461300e565b610d02565b610210610d93565b610210610da2565b6102066103c436600461300e565b610db1565b610206610e2b565b6102066103df36600461312d565b610e8e565b6102066103f236600461300e565b610edf565b610206610405366004612f45565b610f9a565b6102066104183660046130fb565b611014565b61020661042b366004612f45565b6117d9565b61020661043e366004612f45565b61188f565b610206611932565b610322611981565b610210611995565b6102106119a4565b610206610471366004612f45565b6119b3565b61047e611a28565b61048757600080fd5b806001600160a01b03811661049b57600080fd5b60075482906001600160a01b03908116908216811461051157600780546001600160a01b038681166001600160a01b03198316179092556040519116907f07998fa7be97abe2427246ae4688298c89d6196bbffdf0997b9495a8d27bc6739061050790839088906139d3565b60405180910390a1505b50505050565b6008546001600160a01b031681565b61052e611a28565b61053757600080fd5b806001600160a01b03811661054b57600080fd5b60035482906001600160a01b03908116908216811461051157600380546001600160a01b038681166001600160a01b03198316179092556040519116907f1882af944a16549c3d4f60e3cd26f158b0c7aac3222cf32971fc21375ce05f609061050790839088906139d3565b6040518060400160405280601281526020017131b430b63632b733b2afb13cafb7b93232b960711b81525081565b60006105f082610855565b801561061757506001600160a01b0382166000908152600960205260409020600101544210155b90505b919050565b6006546001600160a01b031681565b600554600160a01b900460ff1681565b33610647610a1d565b6001600160a01b03161461065a57600080fd5b60005460ff161561066a57600080fd5b7f787a5d936e74f4b564b9153575886059829c78cd9927b1be5e0d976b317ef736336040516106999190613779565b60405180910390a133ff5b6106ac611a28565b6106b557600080fd5b806001600160a01b0381166106c957600080fd5b600b80546001600160a01b038481166001600160a01b031983161792839055604051918116927f4f7125332801996cdeaabf9cff1ac89ddf4b52c673558936affe853ab64a88da9261071e92859216906139d3565b60405180910390a1505050565b610733611a28565b61073c57600080fd5b816001600160a01b03811661075057600080fd5b6001600160a01b03811630141561076657600080fd5b6001600160a01b03831660009081526009602052604090205460ff1661078b57600080fd5b600061079683611a3e565b6001600160a01b038516600090815260096020908152604080832084845260020190915290205490915060ff16156107cd57600080fd5b6001600160a01b0384166000908152600960208181526040808420858552600281018352818520805460ff19166001908117909155938352600301805493840181558452922001829055517fec1b982d69bfc1a6fd8becf191d9a633486c822d3bdedd52303ca81fa63575019061084790869086906138e4565b60405180910390a150505050565b6001600160a01b031660009081526009602052604090205460ff1690565b60005460ff1681565b6003546001600160a01b031681565b610893611a28565b61089c57600080fd5b816001600160a01b0381166108b057600080fd5b6001600160a01b0381163014156108c657600080fd5b60006108d183611a3e565b6001600160a01b038516600090815260096020908152604080832084845260020190915290205490915060ff1661090757600080fd5b6001600160a01b038416600090815260096020908152604080832084845260020190915290819020805460ff19169055517f92f4af6130f47c92f3899e06611c8c6ef191fb81207ad2675d134af619d2fe7d9061084790869086906138e4565b600a5481565b6007546001600160a01b031681565b610984611a28565b61098d57600080fd5b806001600160a01b0381166109a157600080fd5b60085482906001600160a01b03908116908216811461051157600880546001600160a01b038681166001600160a01b03198316179092556040519116907fafe0f82771e36e01015c06151eff69190d6796b6359da2780a8dd89ded9b22059061050790839088906139d3565b600654600160a01b900460ff1681565b60005461010090046001600160a01b031690565b610a39611a28565b610a4257600080fd5b806001600160a01b038116610a5657600080fd5b6001600160a01b038116301415610a6c57600080fd5b6001600160a01b03821660009081526009602052604090205460ff16610a9157600080fd5b6001600160a01b03821660009081526009602052604090819020805460ff19169055517f777645c5437dfbf962f57a281ead25f3d513f2f8e938685bbfc1738e81c9880e90610ae190849061376b565b60405180910390a15050565b600b546001600160a01b031681565b6001546001600160a01b031681565b610b13611a28565b610b1c57600080fd5b806001600160a01b038116610b3057600080fd5b60065482906001600160a01b03908116908216811461051157600654600160a01b900460ff1615610b7c5760405162461bcd60e51b8152600401610b7390613a4d565b60405180910390fd5b600680546001600160a01b038681166001600160a01b03198316179092556040519116907fb2a91d3a71b0c5bc7c083153b3474378e489506ba98bd4ddb1b9056fdc594bb59061050790839088906139d3565b610bd7611a28565b610be057600080fd5b6005805460ff60a01b1916600160a01b1790556040517f56ec8900b9c4bf84f4b715a53068ca06961dd49084c07b481931e2c2045346e690600090a1565b600080610c2a83611a3e565b9050610c35846105e5565b8015610c6757506001600160a01b038416600090815260096020908152604080832084845260020190915290205460ff165b9150505b92915050565b610c79611a28565b610c8257600080fd5b806001600160a01b038116610c9657600080fd5b60025482906001600160a01b03908116908216811461051157600280546001600160a01b038681166001600160a01b03198316179092556040519116907f634f61bf00e14adedce330c80c2823e16e184f189ebe853e1ddecc4a268477ff9061050790839088906139d3565b610d0a611a28565b610d1357600080fd5b806001600160a01b038116610d2757600080fd5b60045482906001600160a01b03908116908216811461051157600480546001600160a01b038681166001600160a01b03198316179092556040519116907fc9f3f00c1760fe26985aeacb814a21c56ea289d680562e89b249681b08c303829061050790839088906139d3565b6004546001600160a01b031681565b6002546001600160a01b031681565b610db9611a28565b610dc257600080fd5b806001600160a01b038116610dd657600080fd5b600c80546001600160a01b038481166001600160a01b031983161792839055604051918116927ff21c127205310467822e10c64b2d9ffae588e019194d6af71f2bdddc0b7ef5269261071e92859216906139d3565b33610e34610a1d565b6001600160a01b031614610e4757600080fd5b6000805460ff191660011790556040517fd5a2a04a775c741c2ca0dc46ea7ce4835190e1aaf1ca018def0e82568ec3361690610e84903390613779565b60405180910390a1565b610e96611a28565b610e9f57600080fd5b600a8190556040517f4f1d324a1cbffc352fb64f1d73d95e4b200d92f99ef39bf2d7f5b41f946909d690610ed49083906139b7565b60405180910390a150565b610ee7611a28565b610ef057600080fd5b806001600160a01b038116610f0457600080fd5b60055482906001600160a01b03908116908216811461051157600554600160a01b900460ff1615610f475760405162461bcd60e51b8152600401610b7390613a9d565b600580546001600160a01b038681166001600160a01b03198316179092556040519116907fa44d361e26327b72a7ccbeae801b3c5cd7677ea4fa74168b289e273c46bfecfc9061050790839088906139d3565b610fa2611a28565b610fab57600080fd5b806001600160a01b038116610fbf57600080fd5b6001600160a01b038116301415610fd557600080fd5b610fe182600a54611a6e565b7f7f3a8349917003ed377f6e9ae1608b92edd893903f8983bd274b1f8373dd3b1182600a54604051610ae1929190613862565b6040518060400160405280601281526020017131b430b63632b733b2afb13cafb7b93232b960711b8152506110493382610c1e565b61105257600080fd5b6003546040516331f2978b60e01b815284916001600160a01b0316906331f2978b90611082908490600401613aad565b60206040518083038186803b15801561109a57600080fd5b505afa1580156110ae573d6000803e3d6000fd5b505050506040513d601f19601f820116820180604052506110d29190810190612fd2565b6110ee5760405162461bcd60e51b8152600401610b7390613a8d565b6007546060850151602001515160405163e1f5828b60e01b81526001600160a01b039092169163e1f5828b91611126916004016139b7565b60206040518083038186803b15801561113e57600080fd5b505afa158015611152573d6000803e3d6000fd5b505050506040513d601f19601f820116820180604052506111769190810190612fd2565b156111935760405162461bcd60e51b8152600401610b7390613a1d565b60085460208086015160608701519091015151604051634deaf58b60e11b81526001600160a01b0390931692639bd5eb16926111d3929091600401613862565b60206040518083038186803b1580156111eb57600080fd5b505afa1580156111ff573d6000803e3d6000fd5b505050506040513d601f19601f820116820180604052506112239190810190612fd2565b156112405760405162461bcd60e51b8152600401610b7390613a7d565b611248612b7a565b61125185611abd565b600b54602087015160405163076470a560e31b81529293506001600160a01b0390911691633b23852891611289918590600401613904565b60206040518083038186803b1580156112a157600080fd5b505afa1580156112b5573d6000803e3d6000fd5b505050506040513d601f19601f820116820180604052506112d99190810190612fd2565b6112f55760405162461bcd60e51b8152600401610b7390613a2d565b600b546020860151604051635482c73560e01b81526001600160a01b0390921691635482c7359161132a918590600401613904565b60206040518083038186803b15801561134257600080fd5b505afa158015611356573d6000803e3d6000fd5b505050506040513d601f19601f8201168201806040525061137a9190810190612fd2565b156113975760405162461bcd60e51b8152600401610b7390613a0d565b600b546020860151604051632ee2ed2560e01b81526001600160a01b0390921691632ee2ed25916113cc918590600401613904565b60206040518083038186803b1580156113e457600080fd5b505afa1580156113f8573d6000803e3d6000fd5b505050506040513d601f19601f8201168201806040525061141c9190810190612ff0565b85511161143b5760405162461bcd60e51b8152600401610b7390613a3d565b600b54602086015160405163553d90e960e01b81526001600160a01b039092169163553d90e991611470918590600401613904565b60206040518083038186803b15801561148857600080fd5b505afa15801561149c573d6000803e3d6000fd5b505050506040513d601f19601f820116820180604052506114c09190810190612ff0565b8551116114df5760405162461bcd60e51b8152600401610b7390613a5d565b6114e98582611afc565b6115055760405162461bcd60e51b8152600401610b7390613a6d565b6115a3856020015161151687611d47565b8387600260009054906101000a90046001600160a01b03166001600160a01b031663fbdfd8e76040518163ffffffff1660e01b815260040160206040518083038186803b15801561156657600080fd5b505afa15801561157a573d6000803e3d6000fd5b505050506040513d601f19601f8201168201806040525061159e9190810190612ff0565b611d92565b600b60009054906101000a90046001600160a01b03166001600160a01b031663667666c88660200151838789608001518a600001518b60600151602001516000015173__TradeTypesLib_________________________63af75a2f76040518163ffffffff1660e01b815260040160006040518083038186803b15801561162957600080fd5b505af415801561163d573d6000803e3d6000fd5b505050506040513d6000823e601f3d908101601f1916820160405261166591908101906130c7565b6040518863ffffffff1660e01b8152600401611687979695949392919061391f565b600060405180830381600087803b1580156116a157600080fd5b505af11580156116b5573d6000803e3d6000fd5b5050600c546020880151604051632ce4e29b60e21b81526001600160a01b03909216935063b3938a6c92506116ee918590600401613904565b600060405180830381600087803b15801561170857600080fd5b505af115801561171c573d6000803e3d6000fd5b5050600b546020880151604051632ee2ed2560e01b81527f692186b99bb015f5247f9db51faae16e52216ff8292cd97ddfd7777e69366e0294506001600160a01b039092169250632ee2ed259161177891908690600401613904565b60206040518083038186803b15801561179057600080fd5b505afa1580156117a4573d6000803e3d6000fd5b505050506040513d601f19601f820116820180604052506117c89190810190612ff0565b868660405161050793929190613abc565b6117e1611a28565b6117ea57600080fd5b806001600160a01b0381166117fe57600080fd5b6001600160a01b03811630141561181457600080fd5b6000546001600160a01b03838116610100909204161461188b57600080546001600160a01b03848116610100908102610100600160a81b03198416179093556040519290910416907f977e5fa58e458501775e0008d275006294c5249e3c08d1d0e3a9f3acad14f6e49061071e9083908690613787565b5050565b611897611e3e565b6118a057600080fd5b806001600160a01b0381166118b457600080fd5b6001600160a01b0381163014156118ca57600080fd5b6001546001600160a01b0383811691161461188b57600180546001600160a01b038481166001600160a01b03198316179092556040519116907f9f611b789425d0d5b90b920f1b2852907dd865c80074a30b1629aaa041d1812c9061071e9083908690613787565b61193a611a28565b61194357600080fd5b6006805460ff60a01b1916600160a01b1790556040517f9c567b65fe8caab5ec7bc979a498a1322c1d4baf01a30727cbca137187560ea290600090a1565b60005461010090046001600160a01b031681565b6005546001600160a01b031681565b600c546001600160a01b031681565b6119bb611a28565b6119c457600080fd5b806001600160a01b0381166119d857600080fd5b6001600160a01b0381163014156119ee57600080fd5b6119f9826000611a6e565b7fb619d545cb511bd5f02907a1eac4f4cb8dace7b1846852fb0bf5e553937481c182604051610ae1919061376b565b60005461010090046001600160a01b0316331490565b600081604051602001611a51919061375f565b604051602081830303815290604052805190602001209050919050565b6001600160a01b03821660009081526009602052604090205460ff1661188b576001600160a01b0382166000908152600960205260409020805460ff1916600190811782554283019101555050565b611ac5612b7a565b6040820151516001811115611ad657fe5b600114611aef5781604001516040015160200151610617565b5060409081015101515190565b600b54602083015160405163c46fcd7560e01b815260009283926001600160a01b039091169163c46fcd7591611b36918790600401613904565b60206040518083038186803b158015611b4e57600080fd5b505afa158015611b62573d6000803e3d6000fd5b505050506040513d601f19601f82011682018060405250611b869190810190612ff0565b6020850151600b5460405163374852cb60e11b8152929350600092611c6792611c3792909188916001600160a01b031690636e90a59690611bcd9085908590600401613904565b60206040518083038186803b158015611be557600080fd5b505afa158015611bf9573d6000803e3d6000fd5b505050506040513d601f19601f82011682018060405250611c1d9190810190612ff0565b6006546001600160a01b031692919063ffffffff611e4f16565b6020870151600654611c5b916001600160a01b03909116908863ffffffff611e6b16565b9063ffffffff61207e16565b90506000611c86600019611c7a88611d47565b9063ffffffff6120b816565b600b546020880151604051638ab3e96560e01b8152929350600092611d1992600019926001600160a01b0390911691638ab3e96591611cc9918c90600401613904565b60206040518083038186803b158015611ce157600080fd5b505afa158015611cf5573d6000803e3d6000fd5b505050506040513d601f19601f82011682018060405250611c7a9190810190612ff0565b9050611d2b818363ffffffff61207e16565b611d3b858563ffffffff61211716565b12979650505050505050565b6040810151516000906001811115611d5b57fe5b600114611d865760408201516060810151602090910151611d819163ffffffff61214916565b610617565b50604001516020015190565b600b546040516333ca4eab60e21b81526001600160a01b039091169063cf293aac90611dc49088908790600401613904565b60206040518083038186803b158015611ddc57600080fd5b505afa158015611df0573d6000803e3d6000fd5b505050506040513d601f19601f82011682018060405250611e149190810190612fd2565b15611e2a57611e258585858561217a565b611e37565b611e3785858585856123ee565b5050505050565b6001546001600160a01b0316331490565b600080611e5e868686866127fb565b509150505b949350505050565b6000612074846001600160a01b03166371f4ec5185876001600160a01b0316634652ec746040518163ffffffff1660e01b815260040160206040518083038186803b158015611eb957600080fd5b505afa158015611ecd573d6000803e3d6000fd5b505050506040513d601f19601f82011682018060405250611ef19190810190612ff0565b865160208801516040516001600160e01b031960e087901b168152611f1c949392919060040161387d565b60206040518083038186803b158015611f3457600080fd5b505afa158015611f48573d6000803e3d6000fd5b505050506040513d601f19601f82011682018060405250611f6c9190810190612ff0565b856001600160a01b03166371f4ec5186886001600160a01b031663ded113106040518163ffffffff1660e01b815260040160206040518083038186803b158015611fb557600080fd5b505afa158015611fc9573d6000803e3d6000fd5b505050506040513d601f19601f82011682018060405250611fed9190810190612ff0565b875160208901516040516001600160e01b031960e087901b168152612018949392919060040161387d565b60206040518083038186803b15801561203057600080fd5b505afa158015612044573d6000803e3d6000fd5b505050506040513d601f19601f820116820180604052506120689190810190612ff0565b9063ffffffff61211716565b90505b9392505050565b600080821215801561209257508282840313155b806120a957506000821280156120a9575082828403135b6120b257600080fd5b50900390565b6000826000191415806120cf5750600160ff1b8214155b6120d857600080fd5b816000191415806120ed5750600160ff1b8314155b6120f657600080fd5b82820282158061210e57508383828161210b57fe5b05145b61207757600080fd5b600082820181831280159061212c5750838112155b8061210e575060008312801561210e575083811261207757600080fd5b6000600160ff1b8314158061216057508160001914155b61216957600080fd5b81838161217257fe5b059392505050565b600b5460405163b6e2fc3360e01b81526001600160a01b039091169063b6e2fc33906121ac9087908690600401613904565b60206040518083038186803b1580156121c457600080fd5b505afa1580156121d8573d6000803e3d6000fd5b505050506040513d601f19601f820116820180604052506121fc919081019061302c565b600181111561220757fe5b600114156122fd57600554600b54604051635658722960e01b81526001600160a01b03928316926346c5c02392889291169063565872299061224f9084908990600401613904565b60206040518083038186803b15801561226757600080fd5b505afa15801561227b573d6000803e3d6000fd5b505050506040513d601f19601f8201168201806040525061229f9190810190612f63565b855160208701516040516001600160e01b031960e087901b1681526122ca94939291906004016137a2565b600060405180830381600087803b1580156122e457600080fd5b505af11580156122f8573d6000803e3d6000fd5b505050505b60055482516020808501516002546040805163fbdfd8e760e01b815290516001600160a01b0396871696639a545322968c968a968d9692959094929093169263fbdfd8e79260048083019392829003018186803b15801561235d57600080fd5b505afa158015612371573d6000803e3d6000fd5b505050506040513d601f19601f820116820180604052506123959190810190612ff0565b6040518763ffffffff1660e01b81526004016123b6969594939291906137e0565b600060405180830381600087803b1580156123d057600080fd5b505af11580156123e4573d6000803e3d6000fd5b5050505050505050565b600b5460405163b6e2fc3360e01b81526001600160a01b039091169063b6e2fc33906124209088908790600401613904565b60206040518083038186803b15801561243857600080fd5b505afa15801561244c573d6000803e3d6000fd5b505050506040513d601f19601f82011682018060405250612470919081019061302c565b600181111561247b57fe5b6001141561256e5760048054600b54604051635658722960e01b81526001600160a01b0392831693634e791e0d93909216916356587229916124c1918b918a9101613904565b60206040518083038186803b1580156124d957600080fd5b505afa1580156124ed573d6000803e3d6000fd5b505050506040513d601f19601f820116820180604052506125119190810190612f63565b855160208701516040516001600160e01b031960e086901b16815261253b9392919060040161383a565b600060405180830381600087803b15801561255557600080fd5b505af1158015612569573d6000803e3d6000fd5b505050505b612576612b91565b61257e612ab2565b6004805482516020808501518051910151604051634197bc1960e11b81529596506001600160a01b039093169463832f7832946125c3948a94939290918a9101613898565b600060405180830381600087803b1580156125dd57600080fd5b505af11580156125f1573d6000803e3d6000fd5b50506004805487516020808a01516002546040805163560069d960e11b815290516000995073__SafeMathIntLib________________________985063755875b2978f976001600160a01b039081169763a72148eb979096959091169363ac00d3b293818401939091829003018186803b15801561266e57600080fd5b505afa158015612682573d6000803e3d6000fd5b505050506040513d601f19601f820116820180604052506126a69190810190612ff0565b6040518463ffffffff1660e01b81526004016126c49392919061398e565b60206040518083038186803b1580156126dc57600080fd5b505afa1580156126f0573d6000803e3d6000fd5b505050506040513d601f19601f820116820180604052506127149190810190612ff0565b6040518363ffffffff1660e01b81526004016127319291906139ee565b60206040518083038186803b15801561274957600080fd5b505af415801561275d573d6000803e3d6000fd5b505050506040513d601f19601f820116820180604052506127819190810190612ff0565b6004805487516020890151604051634197bc1960e11b81529495506001600160a01b039092169363832f7832936127c0938a93889390928b9101613898565b600060405180830381600087803b1580156127da57600080fd5b505af11580156127ee573d6000803e3d6000fd5b5050505050505050505050565b600080600080876001600160a01b031663a246138c888a6001600160a01b031663ded113106040518163ffffffff1660e01b815260040160206040518083038186803b15801561284a57600080fd5b505afa15801561285e573d6000803e3d6000fd5b505050506040513d601f19601f820116820180604052506128829190810190612ff0565b895160208b01516040516001600160e01b031960e087901b1681526128af94939291908c90600401613898565b604080518083038186803b1580156128c657600080fd5b505afa1580156128da573d6000803e3d6000fd5b505050506040513d601f19601f820116820180604052506128fe9190810190613097565b91509150600080896001600160a01b031663a246138c8a8c6001600160a01b0316634652ec746040518163ffffffff1660e01b815260040160206040518083038186803b15801561294e57600080fd5b505afa158015612962573d6000803e3d6000fd5b505050506040513d601f19601f820116820180604052506129869190810190612ff0565b8b5160208d01516040516001600160e01b031960e087901b1681526129b394939291908e90600401613898565b604080518083038186803b1580156129ca57600080fd5b505afa1580156129de573d6000803e3d6000fd5b505050506040513d601f19601f82011682018060405250612a029190810190613097565b9092509050612a17848363ffffffff61211716565b60405163a682d5ad60e01b815290965073__SafeMathUintLib_______________________9063a682d5ad90612a5390869085906004016139ee565b60206040518083038186803b158015612a6b57600080fd5b505af4158015612a7f573d6000803e3d6000fd5b505050506040513d601f19601f82011682018060405250612aa39190810190612ff0565b94505050505094509492505050565b612aba612b91565b6000806000600260009054906101000a90046001600160a01b03166001600160a01b031663ccd03d2e6040518163ffffffff1660e01b815260040160606040518083038186803b158015612b0d57600080fd5b505afa158015612b21573d6000803e3d6000fd5b505050506040513d601f19601f82011682018060405250612b45919081019061304a565b60408051808201825293845280518082019091526001600160a01b039092168252602082810191909152820152935050505090565b604080518082019091526000808252602082015290565b604051806040016040528060008152602001612bab612b7a565b905290565b8035610c6b81613bdf565b8051610c6b81613bdf565b8051610c6b81613bf3565b8035610c6b81613bfc565b8051610c6b81613bfc565b8035610c6b81613c05565b8035610c6b81613c0e565b8051610c6b81613c0e565b600082601f830112612c1957600080fd5b8135612c2c612c2782613b0c565b613ae6565b91508082526020830160208301858383011115612c4857600080fd5b612c53838284613b90565b50505092915050565b600082601f830112612c6d57600080fd5b8151612c7b612c2782613b0c565b91508082526020830160208301858383011115612c9757600080fd5b612c53838284613b9c565b600060408284031215612cb457600080fd5b612cbe6040613ae6565b90506000612ccc8484612bb0565b8252506020612cdd84848301612bd1565b60208301525092915050565b600060408284031215612cfb57600080fd5b612d056040613ae6565b90506000612ccc8484612bd1565b600060808284031215612d2557600080fd5b612d2f6040613ae6565b90506000612d3d8484612ca2565b8252506040612cdd84848301612ca2565b60006101208284031215612d6157600080fd5b612d6b60a0613ae6565b90506000612d798484612bf2565b8252506020612d8a84848301612bd1565b6020830152506040612d9e84828501612d13565b60408301525060c0612db284828501612bd1565b60608301525060e0612dc684828501612ce9565b60808301525092915050565b60006102a08284031215612de557600080fd5b612def60c0613ae6565b90506000612dfd8484612bd1565b8252506020612e0e84848301612bb0565b6020830152506040612e2284828501612d4e565b604083015250610160612e3784828501612efe565b606083015250610260612e4c84828501612bd1565b608083015250610280612e6184828501612bd1565b60a08301525092915050565b600060808284031215612e7f57600080fd5b612e896040613ae6565b90506000612e978484612bd1565b8252506020612cdd84848301600060608284031215612eb557600080fd5b612ebf6060613ae6565b90506000612ecd8484612bd1565b8252506020612ede84848301612bd1565b6020830152506040612ef284828501612f3a565b60408301525092915050565b60006101008284031215612f1157600080fd5b612f1b6040613ae6565b90506000612f298484612e6d565b8252506080612cdd84848301612e6d565b8035610c6b81613c1b565b600060208284031215612f5757600080fd5b6000610c678484612bb0565b600060208284031215612f7557600080fd5b6000610c678484612bbb565b60008060408385031215612f9457600080fd5b6000612fa08585612bb0565b92505060208301356001600160401b03811115612fbc57600080fd5b612fc885828601612c08565b9150509250929050565b600060208284031215612fe457600080fd5b6000610c678484612bc6565b60006020828403121561300257600080fd5b6000610c678484612bdc565b60006020828403121561302057600080fd5b6000610c678484612be7565b60006020828403121561303e57600080fd5b6000610c678484612bfd565b60008060006060848603121561305f57600080fd5b600061306b8686612bdc565b935050602061307c86828701612bbb565b925050604061308d86828701612bdc565b9150509250925092565b600080604083850312156130aa57600080fd5b60006130b68585612bdc565b9250506020612fc885828601612bdc565b6000602082840312156130d957600080fd5b81516001600160401b038111156130ef57600080fd5b610c6784828501612c5c565b6000806102c0838503121561310f57600080fd5b600061311b8585612dd2565b9250506102a0612fc885828601612bb0565b60006020828403121561313f57600080fd5b6000610c678484612bd1565b61315481613b7a565b82525050565b61315481613b40565b61315481613b4b565b61315481613b50565b61315481613b53565b61315481613b85565b600061319282613b33565b61319c8185613b37565b93506131ac818560208601613b9c565b6131b581613bc8565b9093019392505050565b60006131ca82613b33565b6131d4818561061a565b93506131e4818560208601613b9c565b9290920192915050565b60006131fb603e83613b37565b7f50726f706f73616c20666f756e642065787069726564205b447269697053657481527f746c656d656e744469737075746542794f726465722e736f6c3a3132355d0000602082015260400192915050565b600061325a603f83613b37565b7f4f72646572206465656d6564206672617564756c656e74205b4472696970536581527f74746c656d656e744469737075746542794f726465722e736f6c3a3130345d00602082015260400192915050565b60006132b9603983613b37565b7f4e6f2070726f706f73616c20666f756e64205b4472696970536574746c656d658152786e744469737075746542794f726465722e736f6c3a3131395d60381b602082015260400192915050565b6000613314605c83613b37565b600080516020613c2583398151915281527f207468616e2070726f706f73616c206e6f6e6365205b4472696970536574746c60208201527b656d656e744469737075746542794f726465722e736f6c3a3133325d60201b604082015260600192915050565b6000613386603083613b37565b7f42616c616e636520747261636b65722066726f7a656e205b42616c616e63655481526f7261636b61626c652e736f6c3a34335d60801b602082015260400192915050565b60006133d8606d83613b37565b600080516020613c2583398151915281527f207468616e2070726f706f73616c206469737175616c696669636174696f6e2060208201527f6e6f6e6365205b4472696970536574746c656d656e744469737075746542794f60408201526c726465722e736f6c3a3133365d60981b606082015260800192915050565b6000613461603e83613b37565b7f4e6f206f72646572206f76657272756e20666f756e64205b447269697053657481527f746c656d656e744469737075746542794f726465722e736f6c3a3134325d0000602082015260400192915050565b60006134c0603e83613b37565b7f4f72646572206465656d65642063616e63656c6c6564205b447269697053657481527f746c656d656e744469737075746542794f726465722e736f6c3a3131305d0000602082015260400192915050565b600061351f602e83613b37565b7f4f72646572207365616c73206e6f742067656e75696e65205b56616c6964617481526d61626c6556322e736f6c3a36305d60901b602082015260400192915050565b600061356f602c83613b37565b7f57616c6c6574206c6f636b65722066726f7a656e205b57616c6c65744c6f636b81526b61626c652e736f6c3a34335d60a01b602082015260400192915050565b805160408301906135c1848261315a565b506020820151610511602085018261316c565b805160408301906135c1848261316c565b805160808301906135f684826135b0565b50602082015161051160408501826135b0565b805161012083019061361b848261317e565b50602082015161362e602085018261316c565b50604082015161364160408501826135e5565b50606082015161365460c085018261316c565b50608082015161051160e08501826135d4565b80516102a0830190613679848261316c565b50602082015161368c602085018261315a565b50604082015161369f6040850182613609565b5060608201516136b3610160850182613731565b5060808201516136c761026085018261316c565b5060a082015161051161028085018261316c565b805160808301906136ec848261316c565b50602082015161051160208501828051606083019061370b848261316c565b50602082015161371e602085018261316c565b5060408201516105116040850182613756565b805161010083019061374384826136db565b50602082015161051160808501826136db565b61315481613b74565b600061207782846131bf565b60208101610c6b828461315a565b60208101610c6b828461314b565b60408101613795828561315a565b612077602083018461315a565b608081016137b0828761315a565b6137bd602083018661315a565b6137ca604083018561315a565b6137d7606083018461316c565b95945050505050565b60c081016137ee828961315a565b6137fb602083018861315a565b613808604083018761316c565b613815606083018661315a565b613822608083018561316c565b61382f60a083018461316c565b979650505050505050565b60608101613848828661315a565b613855602083018561315a565b611e63604083018461316c565b60408101613870828561315a565b612077602083018461316c565b6080810161388b828761315a565b6137bd602083018661316c565b60a081016138a6828861315a565b6138b3602083018761316c565b6138c0604083018661315a565b6138cd606083018561316c565b6138da608083018461316c565b9695505050505050565b604081016138f2828561315a565b81810360208301526120748184613187565b60608101613912828561315a565b61207760208301846135b0565b610100810161392e828a61315a565b61393b60208301896135b0565b613948606083018861315a565b613955608083018761316c565b61396260a083018661316c565b61396f60c083018561316c565b81810360e08301526139818184613187565b9998505050505050505050565b6060810161399c828661315a565b613855602083018561316c565b60208101610c6b8284613163565b60208101610c6b828461316c565b60208101610c6b8284613175565b604081016139e18285613175565b6120776020830184613175565b60408101613870828561316c565b602080825281016120778184613187565b60208082528101610617816131ee565b602080825281016106178161324d565b60208082528101610617816132ac565b6020808252810161061781613307565b6020808252810161061781613379565b60208082528101610617816133cb565b6020808252810161061781613454565b60208082528101610617816134b3565b6020808252810161061781613512565b6020808252810161061781613562565b6102a08101610c6b8284613667565b6102e08101613acb828661316c565b613ad86020830185613667565b611e636102c083018461315a565b6040518181016001600160401b0381118282101715613b0457600080fd5b604052919050565b60006001600160401b03821115613b2257600080fd5b506020601f91909101601f19160190565b5190565b90815260200190565b600061061782613b68565b151590565b90565b600061061782613b40565b8061061a81613bd2565b6001600160a01b031690565b60ff1690565b600061061782613b53565b600061061782613b5e565b82818337506000910152565b60005b83811015613bb7578181015183820152602001613b9f565b838111156105115750506000910152565b601f01601f191690565b60028110613bdc57fe5b50565b613be881613b40565b8114613bdc57600080fd5b613be881613b4b565b613be881613b50565b613be881613b53565b60028110613bdc57600080fd5b613be881613b7456fe4f72646572206e6f6e6365206e6f74207374726963746c792067726561746572a365627a7a72315820d0edf735c4f76be4ee45a2087e5729fc82dc7f90a582962d57b6e1998015b2676c6578706572696d656e74616cf564736f6c634300050c0040",
  "source": "/*\n * Hubii Nahmii\n *\n * Compliant with the Hubii Nahmii specification v0.12.\n *\n * Copyright (C) 2017-2018 Hubii AS\n */\n\npragma solidity >=0.4.25 <0.6.0;\npragma experimental ABIEncoderV2;\n\nimport {Ownable} from \"./Ownable.sol\";\nimport {Configurable} from \"./Configurable.sol\";\nimport {ValidatableV2} from \"./ValidatableV2.sol\";\nimport {SecurityBondable} from \"./SecurityBondable.sol\";\nimport {WalletLockable} from \"./WalletLockable.sol\";\nimport {BalanceTrackable} from \"./BalanceTrackable.sol\";\nimport {FraudChallengable} from \"./FraudChallengable.sol\";\nimport {CancelOrdersChallengable} from \"./CancelOrdersChallengable.sol\";\nimport {Servable} from \"./Servable.sol\";\nimport {SafeMathIntLib} from \"./SafeMathIntLib.sol\";\nimport {SafeMathUintLib} from \"./SafeMathUintLib.sol\";\nimport {Strings} from \"solidity-util/lib/Strings.sol\";\nimport {MonetaryTypesLib} from \"./MonetaryTypesLib.sol\";\nimport {NahmiiTypesLib} from \"./NahmiiTypesLib.sol\";\nimport {TradeTypesLib} from \"./TradeTypesLib.sol\";\nimport {SettlementChallengeTypesLib} from \"./SettlementChallengeTypesLib.sol\";\nimport {DriipSettlementChallengeState} from \"./DriipSettlementChallengeState.sol\";\nimport {NullSettlementChallengeState} from \"./NullSettlementChallengeState.sol\";\nimport {BalanceTracker} from \"./BalanceTracker.sol\";\nimport {BalanceTrackerLib} from \"./BalanceTrackerLib.sol\";\n\n/**\n * @title DriipSettlementDisputeByOrder\n * @notice The where order related disputes of driip settlement challenge happens\n */\ncontract DriipSettlementDisputeByOrder is Ownable, Configurable, ValidatableV2, SecurityBondable, WalletLockable,\nBalanceTrackable, FraudChallengable, CancelOrdersChallengable, Servable {\n    using SafeMathIntLib for int256;\n    using SafeMathUintLib for uint256;\n    using Strings for string;\n    using BalanceTrackerLib for BalanceTracker;\n\n    //\n    // Constants\n    // -----------------------------------------------------------------------------------------------------------------\n    string constant public CHALLENGE_BY_ORDER_ACTION = \"challenge_by_order\";\n\n    //\n    // Variables\n    // -----------------------------------------------------------------------------------------------------------------\n    DriipSettlementChallengeState public driipSettlementChallengeState;\n    NullSettlementChallengeState public nullSettlementChallengeState;\n\n    //\n    // Events\n    // -----------------------------------------------------------------------------------------------------------------\n    event SetDriipSettlementChallengeStateEvent(DriipSettlementChallengeState oldDriipSettlementChallengeState,\n        DriipSettlementChallengeState newDriipSettlementChallengeState);\n    event SetNullSettlementChallengeStateEvent(NullSettlementChallengeState oldNullSettlementChallengeState,\n        NullSettlementChallengeState newNullSettlementChallengeState);\n    event ChallengeByOrderEvent(uint256 nonce, TradeTypesLib.Order order, address challenger);\n    event UnchallengeOrderCandidateByTradeEvent(uint256 nonce, TradeTypesLib.Order order,\n        TradeTypesLib.Trade trade, address unchallenger);\n\n    //\n    // Constructor\n    // -----------------------------------------------------------------------------------------------------------------\n    constructor(address deployer) Ownable(deployer) public {\n    }\n\n    /// @notice Set the driip settlement state contract\n    /// @param newDriipSettlementChallengeState The (address of) DriipSettlementChallengeState contract instance\n    function setDriipSettlementChallengeState(DriipSettlementChallengeState newDriipSettlementChallengeState) public\n    onlyDeployer\n    notNullAddress(address(newDriipSettlementChallengeState))\n    {\n        DriipSettlementChallengeState oldDriipSettlementChallengeState = driipSettlementChallengeState;\n        driipSettlementChallengeState = newDriipSettlementChallengeState;\n        emit SetDriipSettlementChallengeStateEvent(oldDriipSettlementChallengeState, driipSettlementChallengeState);\n    }\n\n    /// @notice Set the null settlement state contract\n    /// @param newNullSettlementChallengeState The (address of) NullSettlementChallengeState contract instance\n    function setNullSettlementChallengeState(NullSettlementChallengeState newNullSettlementChallengeState) public\n    onlyDeployer\n    notNullAddress(address(newNullSettlementChallengeState))\n    {\n        NullSettlementChallengeState oldNullSettlementChallengeState = nullSettlementChallengeState;\n        nullSettlementChallengeState = newNullSettlementChallengeState;\n        emit SetNullSettlementChallengeStateEvent(oldNullSettlementChallengeState, nullSettlementChallengeState);\n    }\n\n    /// @notice Challenge the driip settlement by providing order candidate\n    /// @param order The order candidate that challenges the challenged driip\n    /// @param challenger The address of the challenger\n    /// @dev If (candidate) order has buy intention consider _conjugate_ currency and amount, else\n    /// if (candidate) order has sell intention consider _intended_ currency and amount\n    function challengeByOrder(TradeTypesLib.Order memory order, address challenger) public\n    onlyEnabledServiceAction(CHALLENGE_BY_ORDER_ACTION)\n    onlySealedOrder(order)\n    {\n        // Require that candidate order is not labelled fraudulent\n        require(\n            !fraudChallenge.isFraudulentOrderHash(order.seals.operator.hash),\n            \"Order deemed fraudulent [DriipSettlementDisputeByOrder.sol:104]\"\n        );\n\n        // Require that candidate order is not labelled cancelled\n        require(\n            !cancelOrdersChallenge.isOrderCancelled(order.wallet, order.seals.operator.hash),\n            \"Order deemed cancelled [DriipSettlementDisputeByOrder.sol:110]\"\n        );\n\n        // Get the relevant currency\n        MonetaryTypesLib.Currency memory currency = _orderCurrency(order);\n\n        // Require that proposal has been initiated\n        require(\n            driipSettlementChallengeState.hasProposal(order.wallet, currency),\n            \"No proposal found [DriipSettlementDisputeByOrder.sol:119]\"\n        );\n\n        // Require that proposal has not expired\n        require(\n            !driipSettlementChallengeState.hasProposalExpired(order.wallet, currency),\n            \"Proposal found expired [DriipSettlementDisputeByOrder.sol:125]\"\n        );\n\n        // Require that orders's nonce is strictly greater than proposal's nonce and its current\n        // disqualification nonce\n        require(\n            order.nonce > driipSettlementChallengeState.proposalNonce(order.wallet, currency),\n            \"Order nonce not strictly greater than proposal nonce [DriipSettlementDisputeByOrder.sol:132]\"\n        );\n        require(\n            order.nonce > driipSettlementChallengeState.proposalDisqualificationNonce(order.wallet, currency),\n            \"Order nonce not strictly greater than proposal disqualification nonce [DriipSettlementDisputeByOrder.sol:136]\"\n        );\n\n        // Require overrun for this trade to be a valid challenge candidate\n        require(_orderOverrun(order, currency), \"No order overrun found [DriipSettlementDisputeByOrder.sol:142]\");\n\n        // TODO Adjust when TradeTypesLib.OrderParty has been furnished with balances\n        // Reward challenger\n        _settleRewards(\n            order.wallet, _orderTransferAmount(order), currency, challenger,\n            configuration.settlementChallengeTimeout()\n        );\n\n        // Disqualify proposal, effectively overriding any previous disqualification\n        driipSettlementChallengeState.disqualifyProposal(\n            order.wallet, currency, challenger, order.blockNumber,\n            order.nonce, order.seals.operator.hash, TradeTypesLib.ORDER_KIND()\n        );\n\n        // Terminate dependent null settlement challenge proposal if existent\n        nullSettlementChallengeState.terminateProposal(order.wallet, currency);\n\n        // Emit event\n        emit ChallengeByOrderEvent(\n            driipSettlementChallengeState.proposalNonce(order.wallet, currency), order, challenger\n        );\n    }\n\n    //\n    // Private functions\n    // -----------------------------------------------------------------------------------------------------------------\n    function _orderOverrun(TradeTypesLib.Order memory order, MonetaryTypesLib.Currency memory currency)\n    private\n    view\n    returns (bool)\n    {\n        // Get the target balance amount from the proposal\n        int targetBalanceAmount = driipSettlementChallengeState.proposalTargetBalanceAmount(\n            order.wallet, currency\n        );\n\n        // Get the change in active balance since the start of the challenge\n        int256 deltaBalanceSinceStart = balanceTracker.fungibleActiveBalanceAmount(\n            order.wallet, currency\n        ).sub(\n            balanceTracker.fungibleActiveBalanceAmountByBlockNumber(\n                order.wallet, currency,\n                driipSettlementChallengeState.proposalReferenceBlockNumber(order.wallet, currency)\n            )\n        );\n\n        // Get the cumulative transfer of the trade\n        // TODO Remove when TradeTypesLib.OrderParty has been furnished with balances\n        int256 orderCumulativeTransfer = _orderTransferAmount(order).mul(- 1);\n        // TODO Uncomment when TradeTypesLib.OrderParty has been furnished with balances\n        //        int256 orderCumulativeTransfer = _orderBalanceAmount(order.wallet, trade).sub(\n        //            balanceTracker.fungibleActiveBalanceAmountByBlockNumber(order.wallet, currency, trade.blockNumber)\n        //        );\n\n        // Get the cumulative transfer of the proposal\n        int proposalCumulativeTransfer = driipSettlementChallengeState.proposalCumulativeTransferAmount(\n            order.wallet, currency\n        ).mul(- 1);\n\n        return targetBalanceAmount.add(deltaBalanceSinceStart) < proposalCumulativeTransfer.sub(orderCumulativeTransfer);\n    }\n\n    // Get the candidate order currency\n    // Buy order -> Conjugate currency\n    // Sell order -> Intended currency\n    function _orderCurrency(TradeTypesLib.Order memory order)\n    private\n    pure\n    returns (MonetaryTypesLib.Currency memory)\n    {\n        return TradeTypesLib.Intention.Sell == order.placement.intention ?\n        order.placement.currencies.intended :\n        order.placement.currencies.conjugate;\n    }\n\n    // TODO Uncomment when TradeTypesLib.OrderParty has been furnished with balances\n    // Get the candidate order balance amount\n    // Buy order -> Conjugate balance\n    // Sell order -> Intended balance\n    //    function _orderBalanceAmount(TradeTypesLib.Order memory order)\n    //    private\n    //    pure\n    //    returns (MonetaryTypesLib.Currency memory)\n    //    {\n    //        return TradeTypesLib.Intention.Sell == order.placement.intention ?\n    //        order.party.balances.intended :\n    //        order.party.balances.conjugate;\n    //    }\n\n    // TODO Remove when TradeTypesLib.OrderParty has been furnished with balances\n    // Get the candidate order transfer\n    // Buy order -> Conjugate transfer\n    // Sell order -> Intended transfer\n    function _orderTransferAmount(TradeTypesLib.Order memory order)\n    private\n    pure\n    returns (int256)\n    {\n        return TradeTypesLib.Intention.Sell == order.placement.intention ?\n        order.placement.amount :\n        order.placement.amount.div(order.placement.rate);\n    }\n\n    function _settleRewards(address wallet, int256 walletAmount, MonetaryTypesLib.Currency memory currency,\n        address challenger, uint256 unlockTimeoutInSeconds)\n    private\n    {\n        if (driipSettlementChallengeState.proposalWalletInitiated(wallet, currency))\n            _settleBalanceReward(wallet, walletAmount, currency, challenger);\n\n        else\n            _settleSecurityBondReward(wallet, walletAmount, currency, challenger, unlockTimeoutInSeconds);\n    }\n\n    function _settleBalanceReward(address wallet, int256 walletAmount, MonetaryTypesLib.Currency memory currency,\n        address challenger)\n    private\n    {\n        // Unlock wallet/currency for existing challenger if previously locked\n        if (SettlementChallengeTypesLib.Status.Disqualified == driipSettlementChallengeState.proposalStatus(\n            wallet, currency\n        ))\n            walletLocker.unlockFungibleByProxy(\n                wallet,\n                driipSettlementChallengeState.proposalDisqualificationChallenger(\n                    wallet, currency\n                ),\n                currency.ct, currency.id\n            );\n\n        // Lock wallet for new challenger\n        walletLocker.lockFungibleByProxy(\n            wallet, challenger, walletAmount, currency.ct, currency.id, configuration.settlementChallengeTimeout()\n        );\n    }\n\n    // Settle the two-component reward from security bond.\n    // The first component is flat figure as obtained from Configuration\n    // The second component is progressive and calculated as\n    //    min(walletAmount, fraction of SecurityBond's deposited balance)\n    // both amounts for the given currency\n    function _settleSecurityBondReward(address wallet, int256 walletAmount, MonetaryTypesLib.Currency memory currency,\n        address challenger, uint256 unlockTimeoutInSeconds)\n    private\n    {\n        // Deprive existing challenger of reward if previously locked\n        if (SettlementChallengeTypesLib.Status.Disqualified == driipSettlementChallengeState.proposalStatus(\n            wallet, currency\n        ))\n            securityBond.depriveAbsolute(\n                driipSettlementChallengeState.proposalDisqualificationChallenger(\n                    wallet, currency\n                ),\n                currency.ct, currency.id\n            );\n\n        // Reward the flat component\n        MonetaryTypesLib.Figure memory flatReward = _flatReward();\n        securityBond.rewardAbsolute(\n            challenger, flatReward.amount, flatReward.currency.ct, flatReward.currency.id, unlockTimeoutInSeconds\n        );\n\n        // Reward the progressive component\n        int256 progressiveRewardAmount = walletAmount.clampMax(\n            securityBond.depositedFractionalBalance(\n                currency.ct, currency.id, configuration.operatorSettlementStakeFraction()\n            )\n        );\n        securityBond.rewardAbsolute(\n            challenger, progressiveRewardAmount, currency.ct, currency.id, unlockTimeoutInSeconds\n        );\n    }\n\n    function _flatReward()\n    private\n    view\n    returns (MonetaryTypesLib.Figure memory)\n    {\n        (int256 amount, address currencyCt, uint256 currencyId) = configuration.operatorSettlementStake();\n        return MonetaryTypesLib.Figure(amount, MonetaryTypesLib.Currency(currencyCt, currencyId));\n    }\n}",
  "sourcePath": "/opt/buildagent/work/855e104608380c36/contracts/DriipSettlementDisputeByOrder.sol",
  "compiler": {
    "name": "solc",
    "version": "0.5.12+commit.7709ece9.Emscripten.clang"
  },
  "schemaVersion": "2.0.3",
  "updatedAt": "2019-10-23T00:21:40.705Z"
}