{
  "contractName": "DriipSettlementByTrade",
  "abi": [
    {
      "constant": false,
      "inputs": [
        {
          "name": "newFraudChallenge",
          "type": "address"
        }
      ],
      "name": "setFraudChallenge",
      "outputs": [],
      "payable": false,
      "stateMutability": "nonpayable",
      "type": "function"
    },
    {
      "constant": false,
      "inputs": [
        {
          "name": "newValidator",
          "type": "address"
        }
      ],
      "name": "setValidator",
      "outputs": [],
      "payable": false,
      "stateMutability": "nonpayable",
      "type": "function"
    },
    {
      "constant": true,
      "inputs": [],
      "name": "walletLockerFrozen",
      "outputs": [
        {
          "name": "",
          "type": "bool"
        }
      ],
      "payable": false,
      "stateMutability": "view",
      "type": "function"
    },
    {
      "constant": true,
      "inputs": [],
      "name": "driipSettlementState",
      "outputs": [
        {
          "name": "",
          "type": "address"
        }
      ],
      "payable": false,
      "stateMutability": "view",
      "type": "function"
    },
    {
      "constant": false,
      "inputs": [],
      "name": "triggerSelfDestruction",
      "outputs": [],
      "payable": false,
      "stateMutability": "nonpayable",
      "type": "function"
    },
    {
      "constant": true,
      "inputs": [],
      "name": "selfDestructionDisabled",
      "outputs": [
        {
          "name": "",
          "type": "bool"
        }
      ],
      "payable": false,
      "stateMutability": "view",
      "type": "function"
    },
    {
      "constant": true,
      "inputs": [],
      "name": "validator",
      "outputs": [
        {
          "name": "",
          "type": "address"
        }
      ],
      "payable": false,
      "stateMutability": "view",
      "type": "function"
    },
    {
      "constant": true,
      "inputs": [],
      "name": "fraudChallenge",
      "outputs": [
        {
          "name": "",
          "type": "address"
        }
      ],
      "payable": false,
      "stateMutability": "view",
      "type": "function"
    },
    {
      "constant": true,
      "inputs": [],
      "name": "destructor",
      "outputs": [
        {
          "name": "",
          "type": "address"
        }
      ],
      "payable": false,
      "stateMutability": "view",
      "type": "function"
    },
    {
      "constant": true,
      "inputs": [],
      "name": "driipSettlementChallengeState",
      "outputs": [
        {
          "name": "",
          "type": "address"
        }
      ],
      "payable": false,
      "stateMutability": "view",
      "type": "function"
    },
    {
      "constant": true,
      "inputs": [],
      "name": "operator",
      "outputs": [
        {
          "name": "",
          "type": "address"
        }
      ],
      "payable": false,
      "stateMutability": "view",
      "type": "function"
    },
    {
      "constant": false,
      "inputs": [],
      "name": "freezeWalletLocker",
      "outputs": [],
      "payable": false,
      "stateMutability": "nonpayable",
      "type": "function"
    },
    {
      "constant": false,
      "inputs": [
        {
          "name": "newConfiguration",
          "type": "address"
        }
      ],
      "name": "setConfiguration",
      "outputs": [],
      "payable": false,
      "stateMutability": "nonpayable",
      "type": "function"
    },
    {
      "constant": false,
      "inputs": [],
      "name": "freezeCommunityVote",
      "outputs": [],
      "payable": false,
      "stateMutability": "nonpayable",
      "type": "function"
    },
    {
      "constant": true,
      "inputs": [],
      "name": "configuration",
      "outputs": [
        {
          "name": "",
          "type": "address"
        }
      ],
      "payable": false,
      "stateMutability": "view",
      "type": "function"
    },
    {
      "constant": false,
      "inputs": [],
      "name": "disableSelfDestruction",
      "outputs": [],
      "payable": false,
      "stateMutability": "nonpayable",
      "type": "function"
    },
    {
      "constant": false,
      "inputs": [
        {
          "name": "newWalletLocker",
          "type": "address"
        }
      ],
      "name": "setWalletLocker",
      "outputs": [],
      "payable": false,
      "stateMutability": "nonpayable",
      "type": "function"
    },
    {
      "constant": true,
      "inputs": [],
      "name": "communityVoteFrozen",
      "outputs": [
        {
          "name": "",
          "type": "bool"
        }
      ],
      "payable": false,
      "stateMutability": "view",
      "type": "function"
    },
    {
      "constant": true,
      "inputs": [],
      "name": "revenueFund",
      "outputs": [
        {
          "name": "",
          "type": "address"
        }
      ],
      "payable": false,
      "stateMutability": "view",
      "type": "function"
    },
    {
      "constant": false,
      "inputs": [
        {
          "name": "newDeployer",
          "type": "address"
        }
      ],
      "name": "setDeployer",
      "outputs": [],
      "payable": false,
      "stateMutability": "nonpayable",
      "type": "function"
    },
    {
      "constant": false,
      "inputs": [
        {
          "name": "newOperator",
          "type": "address"
        }
      ],
      "name": "setOperator",
      "outputs": [],
      "payable": false,
      "stateMutability": "nonpayable",
      "type": "function"
    },
    {
      "constant": false,
      "inputs": [
        {
          "name": "newClientFund",
          "type": "address"
        }
      ],
      "name": "setClientFund",
      "outputs": [],
      "payable": false,
      "stateMutability": "nonpayable",
      "type": "function"
    },
    {
      "constant": true,
      "inputs": [],
      "name": "communityVote",
      "outputs": [
        {
          "name": "",
          "type": "address"
        }
      ],
      "payable": false,
      "stateMutability": "view",
      "type": "function"
    },
    {
      "constant": true,
      "inputs": [],
      "name": "deployer",
      "outputs": [
        {
          "name": "",
          "type": "address"
        }
      ],
      "payable": false,
      "stateMutability": "view",
      "type": "function"
    },
    {
      "constant": true,
      "inputs": [],
      "name": "clientFund",
      "outputs": [
        {
          "name": "",
          "type": "address"
        }
      ],
      "payable": false,
      "stateMutability": "view",
      "type": "function"
    },
    {
      "constant": false,
      "inputs": [
        {
          "name": "newCommunityVote",
          "type": "address"
        }
      ],
      "name": "setCommunityVote",
      "outputs": [],
      "payable": false,
      "stateMutability": "nonpayable",
      "type": "function"
    },
    {
      "constant": true,
      "inputs": [],
      "name": "walletLocker",
      "outputs": [
        {
          "name": "",
          "type": "address"
        }
      ],
      "payable": false,
      "stateMutability": "view",
      "type": "function"
    },
    {
      "constant": true,
      "inputs": [],
      "name": "partnerFund",
      "outputs": [
        {
          "name": "",
          "type": "address"
        }
      ],
      "payable": false,
      "stateMutability": "view",
      "type": "function"
    },
    {
      "inputs": [
        {
          "name": "deployer",
          "type": "address"
        }
      ],
      "payable": false,
      "stateMutability": "nonpayable",
      "type": "constructor"
    },
    {
      "anonymous": false,
      "inputs": [
        {
          "indexed": false,
          "name": "wallet",
          "type": "address"
        },
        {
          "components": [
            {
              "name": "nonce",
              "type": "uint256"
            },
            {
              "name": "amount",
              "type": "int256"
            },
            {
              "components": [
                {
                  "components": [
                    {
                      "name": "ct",
                      "type": "address"
                    },
                    {
                      "name": "id",
                      "type": "uint256"
                    }
                  ],
                  "name": "intended",
                  "type": "tuple"
                },
                {
                  "components": [
                    {
                      "name": "ct",
                      "type": "address"
                    },
                    {
                      "name": "id",
                      "type": "uint256"
                    }
                  ],
                  "name": "conjugate",
                  "type": "tuple"
                }
              ],
              "name": "currencies",
              "type": "tuple"
            },
            {
              "name": "rate",
              "type": "int256"
            },
            {
              "components": [
                {
                  "name": "nonce",
                  "type": "uint256"
                },
                {
                  "name": "wallet",
                  "type": "address"
                },
                {
                  "name": "rollingVolume",
                  "type": "uint256"
                },
                {
                  "name": "liquidityRole",
                  "type": "uint8"
                },
                {
                  "components": [
                    {
                      "name": "amount",
                      "type": "int256"
                    },
                    {
                      "components": [
                        {
                          "name": "wallet",
                          "type": "bytes32"
                        },
                        {
                          "name": "operator",
                          "type": "bytes32"
                        }
                      ],
                      "name": "hashes",
                      "type": "tuple"
                    },
                    {
                      "components": [
                        {
                          "name": "current",
                          "type": "int256"
                        },
                        {
                          "name": "previous",
                          "type": "int256"
                        }
                      ],
                      "name": "residuals",
                      "type": "tuple"
                    }
                  ],
                  "name": "order",
                  "type": "tuple"
                },
                {
                  "components": [
                    {
                      "components": [
                        {
                          "name": "current",
                          "type": "int256"
                        },
                        {
                          "name": "previous",
                          "type": "int256"
                        }
                      ],
                      "name": "intended",
                      "type": "tuple"
                    },
                    {
                      "components": [
                        {
                          "name": "current",
                          "type": "int256"
                        },
                        {
                          "name": "previous",
                          "type": "int256"
                        }
                      ],
                      "name": "conjugate",
                      "type": "tuple"
                    }
                  ],
                  "name": "balances",
                  "type": "tuple"
                },
                {
                  "components": [
                    {
                      "components": [
                        {
                          "name": "amount",
                          "type": "int256"
                        },
                        {
                          "components": [
                            {
                              "name": "ct",
                              "type": "address"
                            },
                            {
                              "name": "id",
                              "type": "uint256"
                            }
                          ],
                          "name": "currency",
                          "type": "tuple"
                        }
                      ],
                      "name": "single",
                      "type": "tuple"
                    },
                    {
                      "components": [
                        {
                          "name": "originId",
                          "type": "uint256"
                        },
                        {
                          "components": [
                            {
                              "name": "amount",
                              "type": "int256"
                            },
                            {
                              "components": [
                                {
                                  "name": "ct",
                                  "type": "address"
                                },
                                {
                                  "name": "id",
                                  "type": "uint256"
                                }
                              ],
                              "name": "currency",
                              "type": "tuple"
                            }
                          ],
                          "name": "figure",
                          "type": "tuple"
                        }
                      ],
                      "name": "total",
                      "type": "tuple[]"
                    }
                  ],
                  "name": "fees",
                  "type": "tuple"
                }
              ],
              "name": "buyer",
              "type": "tuple"
            },
            {
              "components": [
                {
                  "name": "nonce",
                  "type": "uint256"
                },
                {
                  "name": "wallet",
                  "type": "address"
                },
                {
                  "name": "rollingVolume",
                  "type": "uint256"
                },
                {
                  "name": "liquidityRole",
                  "type": "uint8"
                },
                {
                  "components": [
                    {
                      "name": "amount",
                      "type": "int256"
                    },
                    {
                      "components": [
                        {
                          "name": "wallet",
                          "type": "bytes32"
                        },
                        {
                          "name": "operator",
                          "type": "bytes32"
                        }
                      ],
                      "name": "hashes",
                      "type": "tuple"
                    },
                    {
                      "components": [
                        {
                          "name": "current",
                          "type": "int256"
                        },
                        {
                          "name": "previous",
                          "type": "int256"
                        }
                      ],
                      "name": "residuals",
                      "type": "tuple"
                    }
                  ],
                  "name": "order",
                  "type": "tuple"
                },
                {
                  "components": [
                    {
                      "components": [
                        {
                          "name": "current",
                          "type": "int256"
                        },
                        {
                          "name": "previous",
                          "type": "int256"
                        }
                      ],
                      "name": "intended",
                      "type": "tuple"
                    },
                    {
                      "components": [
                        {
                          "name": "current",
                          "type": "int256"
                        },
                        {
                          "name": "previous",
                          "type": "int256"
                        }
                      ],
                      "name": "conjugate",
                      "type": "tuple"
                    }
                  ],
                  "name": "balances",
                  "type": "tuple"
                },
                {
                  "components": [
                    {
                      "components": [
                        {
                          "name": "amount",
                          "type": "int256"
                        },
                        {
                          "components": [
                            {
                              "name": "ct",
                              "type": "address"
                            },
                            {
                              "name": "id",
                              "type": "uint256"
                            }
                          ],
                          "name": "currency",
                          "type": "tuple"
                        }
                      ],
                      "name": "single",
                      "type": "tuple"
                    },
                    {
                      "components": [
                        {
                          "name": "originId",
                          "type": "uint256"
                        },
                        {
                          "components": [
                            {
                              "name": "amount",
                              "type": "int256"
                            },
                            {
                              "components": [
                                {
                                  "name": "ct",
                                  "type": "address"
                                },
                                {
                                  "name": "id",
                                  "type": "uint256"
                                }
                              ],
                              "name": "currency",
                              "type": "tuple"
                            }
                          ],
                          "name": "figure",
                          "type": "tuple"
                        }
                      ],
                      "name": "total",
                      "type": "tuple[]"
                    }
                  ],
                  "name": "fees",
                  "type": "tuple"
                }
              ],
              "name": "seller",
              "type": "tuple"
            },
            {
              "components": [
                {
                  "components": [
                    {
                      "name": "single",
                      "type": "int256"
                    },
                    {
                      "name": "total",
                      "type": "int256"
                    }
                  ],
                  "name": "intended",
                  "type": "tuple"
                },
                {
                  "components": [
                    {
                      "name": "single",
                      "type": "int256"
                    },
                    {
                      "name": "total",
                      "type": "int256"
                    }
                  ],
                  "name": "conjugate",
                  "type": "tuple"
                }
              ],
              "name": "transfers",
              "type": "tuple"
            },
            {
              "components": [
                {
                  "name": "hash",
                  "type": "bytes32"
                },
                {
                  "components": [
                    {
                      "name": "r",
                      "type": "bytes32"
                    },
                    {
                      "name": "s",
                      "type": "bytes32"
                    },
                    {
                      "name": "v",
                      "type": "uint8"
                    }
                  ],
                  "name": "signature",
                  "type": "tuple"
                }
              ],
              "name": "seal",
              "type": "tuple"
            },
            {
              "name": "blockNumber",
              "type": "uint256"
            },
            {
              "name": "operatorId",
              "type": "uint256"
            }
          ],
          "indexed": false,
          "name": "trade",
          "type": "tuple"
        }
      ],
      "name": "SettleTradeEvent",
      "type": "event"
    },
    {
      "anonymous": false,
      "inputs": [
        {
          "indexed": false,
          "name": "proxy",
          "type": "address"
        },
        {
          "indexed": false,
          "name": "wallet",
          "type": "address"
        },
        {
          "components": [
            {
              "name": "nonce",
              "type": "uint256"
            },
            {
              "name": "amount",
              "type": "int256"
            },
            {
              "components": [
                {
                  "components": [
                    {
                      "name": "ct",
                      "type": "address"
                    },
                    {
                      "name": "id",
                      "type": "uint256"
                    }
                  ],
                  "name": "intended",
                  "type": "tuple"
                },
                {
                  "components": [
                    {
                      "name": "ct",
                      "type": "address"
                    },
                    {
                      "name": "id",
                      "type": "uint256"
                    }
                  ],
                  "name": "conjugate",
                  "type": "tuple"
                }
              ],
              "name": "currencies",
              "type": "tuple"
            },
            {
              "name": "rate",
              "type": "int256"
            },
            {
              "components": [
                {
                  "name": "nonce",
                  "type": "uint256"
                },
                {
                  "name": "wallet",
                  "type": "address"
                },
                {
                  "name": "rollingVolume",
                  "type": "uint256"
                },
                {
                  "name": "liquidityRole",
                  "type": "uint8"
                },
                {
                  "components": [
                    {
                      "name": "amount",
                      "type": "int256"
                    },
                    {
                      "components": [
                        {
                          "name": "wallet",
                          "type": "bytes32"
                        },
                        {
                          "name": "operator",
                          "type": "bytes32"
                        }
                      ],
                      "name": "hashes",
                      "type": "tuple"
                    },
                    {
                      "components": [
                        {
                          "name": "current",
                          "type": "int256"
                        },
                        {
                          "name": "previous",
                          "type": "int256"
                        }
                      ],
                      "name": "residuals",
                      "type": "tuple"
                    }
                  ],
                  "name": "order",
                  "type": "tuple"
                },
                {
                  "components": [
                    {
                      "components": [
                        {
                          "name": "current",
                          "type": "int256"
                        },
                        {
                          "name": "previous",
                          "type": "int256"
                        }
                      ],
                      "name": "intended",
                      "type": "tuple"
                    },
                    {
                      "components": [
                        {
                          "name": "current",
                          "type": "int256"
                        },
                        {
                          "name": "previous",
                          "type": "int256"
                        }
                      ],
                      "name": "conjugate",
                      "type": "tuple"
                    }
                  ],
                  "name": "balances",
                  "type": "tuple"
                },
                {
                  "components": [
                    {
                      "components": [
                        {
                          "name": "amount",
                          "type": "int256"
                        },
                        {
                          "components": [
                            {
                              "name": "ct",
                              "type": "address"
                            },
                            {
                              "name": "id",
                              "type": "uint256"
                            }
                          ],
                          "name": "currency",
                          "type": "tuple"
                        }
                      ],
                      "name": "single",
                      "type": "tuple"
                    },
                    {
                      "components": [
                        {
                          "name": "originId",
                          "type": "uint256"
                        },
                        {
                          "components": [
                            {
                              "name": "amount",
                              "type": "int256"
                            },
                            {
                              "components": [
                                {
                                  "name": "ct",
                                  "type": "address"
                                },
                                {
                                  "name": "id",
                                  "type": "uint256"
                                }
                              ],
                              "name": "currency",
                              "type": "tuple"
                            }
                          ],
                          "name": "figure",
                          "type": "tuple"
                        }
                      ],
                      "name": "total",
                      "type": "tuple[]"
                    }
                  ],
                  "name": "fees",
                  "type": "tuple"
                }
              ],
              "name": "buyer",
              "type": "tuple"
            },
            {
              "components": [
                {
                  "name": "nonce",
                  "type": "uint256"
                },
                {
                  "name": "wallet",
                  "type": "address"
                },
                {
                  "name": "rollingVolume",
                  "type": "uint256"
                },
                {
                  "name": "liquidityRole",
                  "type": "uint8"
                },
                {
                  "components": [
                    {
                      "name": "amount",
                      "type": "int256"
                    },
                    {
                      "components": [
                        {
                          "name": "wallet",
                          "type": "bytes32"
                        },
                        {
                          "name": "operator",
                          "type": "bytes32"
                        }
                      ],
                      "name": "hashes",
                      "type": "tuple"
                    },
                    {
                      "components": [
                        {
                          "name": "current",
                          "type": "int256"
                        },
                        {
                          "name": "previous",
                          "type": "int256"
                        }
                      ],
                      "name": "residuals",
                      "type": "tuple"
                    }
                  ],
                  "name": "order",
                  "type": "tuple"
                },
                {
                  "components": [
                    {
                      "components": [
                        {
                          "name": "current",
                          "type": "int256"
                        },
                        {
                          "name": "previous",
                          "type": "int256"
                        }
                      ],
                      "name": "intended",
                      "type": "tuple"
                    },
                    {
                      "components": [
                        {
                          "name": "current",
                          "type": "int256"
                        },
                        {
                          "name": "previous",
                          "type": "int256"
                        }
                      ],
                      "name": "conjugate",
                      "type": "tuple"
                    }
                  ],
                  "name": "balances",
                  "type": "tuple"
                },
                {
                  "components": [
                    {
                      "components": [
                        {
                          "name": "amount",
                          "type": "int256"
                        },
                        {
                          "components": [
                            {
                              "name": "ct",
                              "type": "address"
                            },
                            {
                              "name": "id",
                              "type": "uint256"
                            }
                          ],
                          "name": "currency",
                          "type": "tuple"
                        }
                      ],
                      "name": "single",
                      "type": "tuple"
                    },
                    {
                      "components": [
                        {
                          "name": "originId",
                          "type": "uint256"
                        },
                        {
                          "components": [
                            {
                              "name": "amount",
                              "type": "int256"
                            },
                            {
                              "components": [
                                {
                                  "name": "ct",
                                  "type": "address"
                                },
                                {
                                  "name": "id",
                                  "type": "uint256"
                                }
                              ],
                              "name": "currency",
                              "type": "tuple"
                            }
                          ],
                          "name": "figure",
                          "type": "tuple"
                        }
                      ],
                      "name": "total",
                      "type": "tuple[]"
                    }
                  ],
                  "name": "fees",
                  "type": "tuple"
                }
              ],
              "name": "seller",
              "type": "tuple"
            },
            {
              "components": [
                {
                  "components": [
                    {
                      "name": "single",
                      "type": "int256"
                    },
                    {
                      "name": "total",
                      "type": "int256"
                    }
                  ],
                  "name": "intended",
                  "type": "tuple"
                },
                {
                  "components": [
                    {
                      "name": "single",
                      "type": "int256"
                    },
                    {
                      "name": "total",
                      "type": "int256"
                    }
                  ],
                  "name": "conjugate",
                  "type": "tuple"
                }
              ],
              "name": "transfers",
              "type": "tuple"
            },
            {
              "components": [
                {
                  "name": "hash",
                  "type": "bytes32"
                },
                {
                  "components": [
                    {
                      "name": "r",
                      "type": "bytes32"
                    },
                    {
                      "name": "s",
                      "type": "bytes32"
                    },
                    {
                      "name": "v",
                      "type": "uint8"
                    }
                  ],
                  "name": "signature",
                  "type": "tuple"
                }
              ],
              "name": "seal",
              "type": "tuple"
            },
            {
              "name": "blockNumber",
              "type": "uint256"
            },
            {
              "name": "operatorId",
              "type": "uint256"
            }
          ],
          "indexed": false,
          "name": "trade",
          "type": "tuple"
        }
      ],
      "name": "SettleTradeByProxyEvent",
      "type": "event"
    },
    {
      "anonymous": false,
      "inputs": [
        {
          "indexed": false,
          "name": "oldDriipSettlementChallengeState",
          "type": "address"
        },
        {
          "indexed": false,
          "name": "newDriipSettlementChallengeState",
          "type": "address"
        }
      ],
      "name": "SetDriipSettlementChallengeStateEvent",
      "type": "event"
    },
    {
      "anonymous": false,
      "inputs": [
        {
          "indexed": false,
          "name": "oldDriipSettlementState",
          "type": "address"
        },
        {
          "indexed": false,
          "name": "newDriipSettlementState",
          "type": "address"
        }
      ],
      "name": "SetDriipSettlementStateEvent",
      "type": "event"
    },
    {
      "anonymous": false,
      "inputs": [
        {
          "indexed": false,
          "name": "oldRevenueFund",
          "type": "address"
        },
        {
          "indexed": false,
          "name": "newRevenueFund",
          "type": "address"
        }
      ],
      "name": "SetRevenueFundEvent",
      "type": "event"
    },
    {
      "anonymous": false,
      "inputs": [
        {
          "indexed": false,
          "name": "oldPartnerFund",
          "type": "address"
        },
        {
          "indexed": false,
          "name": "newPartnerFund",
          "type": "address"
        }
      ],
      "name": "SetPartnerFundEvent",
      "type": "event"
    },
    {
      "anonymous": false,
      "inputs": [
        {
          "indexed": false,
          "name": "wallet",
          "type": "address"
        },
        {
          "indexed": false,
          "name": "deltaAmount",
          "type": "int256"
        },
        {
          "indexed": false,
          "name": "cumulativeAmount",
          "type": "int256"
        },
        {
          "indexed": false,
          "name": "currencyCt",
          "type": "address"
        },
        {
          "indexed": false,
          "name": "currencyId",
          "type": "uint256"
        }
      ],
      "name": "StageFeesEvent",
      "type": "event"
    },
    {
      "anonymous": false,
      "inputs": [
        {
          "indexed": false,
          "name": "oldWalletLocker",
          "type": "address"
        },
        {
          "indexed": false,
          "name": "newWalletLocker",
          "type": "address"
        }
      ],
      "name": "SetWalletLockerEvent",
      "type": "event"
    },
    {
      "anonymous": false,
      "inputs": [],
      "name": "FreezeWalletLockerEvent",
      "type": "event"
    },
    {
      "anonymous": false,
      "inputs": [
        {
          "indexed": false,
          "name": "oldFraudChallenge",
          "type": "address"
        },
        {
          "indexed": false,
          "name": "newFraudChallenge",
          "type": "address"
        }
      ],
      "name": "SetFraudChallengeEvent",
      "type": "event"
    },
    {
      "anonymous": false,
      "inputs": [
        {
          "indexed": false,
          "name": "oldCommunityVote",
          "type": "address"
        },
        {
          "indexed": false,
          "name": "newCommunityVote",
          "type": "address"
        }
      ],
      "name": "SetCommunityVoteEvent",
      "type": "event"
    },
    {
      "anonymous": false,
      "inputs": [],
      "name": "FreezeCommunityVoteEvent",
      "type": "event"
    },
    {
      "anonymous": false,
      "inputs": [
        {
          "indexed": false,
          "name": "oldClientFund",
          "type": "address"
        },
        {
          "indexed": false,
          "name": "newClientFund",
          "type": "address"
        }
      ],
      "name": "SetClientFundEvent",
      "type": "event"
    },
    {
      "anonymous": false,
      "inputs": [
        {
          "indexed": false,
          "name": "oldValidator",
          "type": "address"
        },
        {
          "indexed": false,
          "name": "newValidator",
          "type": "address"
        }
      ],
      "name": "SetValidatorEvent",
      "type": "event"
    },
    {
      "anonymous": false,
      "inputs": [
        {
          "indexed": false,
          "name": "oldConfiguration",
          "type": "address"
        },
        {
          "indexed": false,
          "name": "newConfiguration",
          "type": "address"
        }
      ],
      "name": "SetConfigurationEvent",
      "type": "event"
    },
    {
      "anonymous": false,
      "inputs": [
        {
          "indexed": false,
          "name": "oldDeployer",
          "type": "address"
        },
        {
          "indexed": false,
          "name": "newDeployer",
          "type": "address"
        }
      ],
      "name": "SetDeployerEvent",
      "type": "event"
    },
    {
      "anonymous": false,
      "inputs": [
        {
          "indexed": false,
          "name": "oldOperator",
          "type": "address"
        },
        {
          "indexed": false,
          "name": "newOperator",
          "type": "address"
        }
      ],
      "name": "SetOperatorEvent",
      "type": "event"
    },
    {
      "anonymous": false,
      "inputs": [
        {
          "indexed": false,
          "name": "wallet",
          "type": "address"
        }
      ],
      "name": "SelfDestructionDisabledEvent",
      "type": "event"
    },
    {
      "anonymous": false,
      "inputs": [
        {
          "indexed": false,
          "name": "wallet",
          "type": "address"
        }
      ],
      "name": "TriggerSelfDestructionEvent",
      "type": "event"
    },
    {
      "constant": false,
      "inputs": [
        {
          "name": "newDriipSettlementChallengeState",
          "type": "address"
        }
      ],
      "name": "setDriipSettlementChallengeState",
      "outputs": [],
      "payable": false,
      "stateMutability": "nonpayable",
      "type": "function"
    },
    {
      "constant": false,
      "inputs": [
        {
          "name": "newDriipSettlementState",
          "type": "address"
        }
      ],
      "name": "setDriipSettlementState",
      "outputs": [],
      "payable": false,
      "stateMutability": "nonpayable",
      "type": "function"
    },
    {
      "constant": false,
      "inputs": [
        {
          "name": "newRevenueFund",
          "type": "address"
        }
      ],
      "name": "setRevenueFund",
      "outputs": [],
      "payable": false,
      "stateMutability": "nonpayable",
      "type": "function"
    },
    {
      "constant": false,
      "inputs": [
        {
          "name": "newPartnerFund",
          "type": "address"
        }
      ],
      "name": "setPartnerFund",
      "outputs": [],
      "payable": false,
      "stateMutability": "nonpayable",
      "type": "function"
    },
    {
      "constant": true,
      "inputs": [],
      "name": "settlementsCount",
      "outputs": [
        {
          "name": "",
          "type": "uint256"
        }
      ],
      "payable": false,
      "stateMutability": "view",
      "type": "function"
    },
    {
      "constant": true,
      "inputs": [
        {
          "name": "wallet",
          "type": "address"
        }
      ],
      "name": "settlementsCountByWallet",
      "outputs": [
        {
          "name": "",
          "type": "uint256"
        }
      ],
      "payable": false,
      "stateMutability": "view",
      "type": "function"
    },
    {
      "constant": true,
      "inputs": [
        {
          "name": "wallet",
          "type": "address"
        },
        {
          "name": "index",
          "type": "uint256"
        }
      ],
      "name": "settlementByWalletAndIndex",
      "outputs": [
        {
          "components": [
            {
              "name": "settledKind",
              "type": "string"
            },
            {
              "name": "settledHash",
              "type": "bytes32"
            },
            {
              "components": [
                {
                  "name": "nonce",
                  "type": "uint256"
                },
                {
                  "name": "wallet",
                  "type": "address"
                },
                {
                  "name": "done",
                  "type": "bool"
                }
              ],
              "name": "origin",
              "type": "tuple"
            },
            {
              "components": [
                {
                  "name": "nonce",
                  "type": "uint256"
                },
                {
                  "name": "wallet",
                  "type": "address"
                },
                {
                  "name": "done",
                  "type": "bool"
                }
              ],
              "name": "target",
              "type": "tuple"
            }
          ],
          "name": "",
          "type": "tuple"
        }
      ],
      "payable": false,
      "stateMutability": "view",
      "type": "function"
    },
    {
      "constant": true,
      "inputs": [
        {
          "name": "wallet",
          "type": "address"
        },
        {
          "name": "nonce",
          "type": "uint256"
        }
      ],
      "name": "settlementByWalletAndNonce",
      "outputs": [
        {
          "components": [
            {
              "name": "settledKind",
              "type": "string"
            },
            {
              "name": "settledHash",
              "type": "bytes32"
            },
            {
              "components": [
                {
                  "name": "nonce",
                  "type": "uint256"
                },
                {
                  "name": "wallet",
                  "type": "address"
                },
                {
                  "name": "done",
                  "type": "bool"
                }
              ],
              "name": "origin",
              "type": "tuple"
            },
            {
              "components": [
                {
                  "name": "nonce",
                  "type": "uint256"
                },
                {
                  "name": "wallet",
                  "type": "address"
                },
                {
                  "name": "done",
                  "type": "bool"
                }
              ],
              "name": "target",
              "type": "tuple"
            }
          ],
          "name": "",
          "type": "tuple"
        }
      ],
      "payable": false,
      "stateMutability": "view",
      "type": "function"
    },
    {
      "constant": false,
      "inputs": [
        {
          "components": [
            {
              "name": "nonce",
              "type": "uint256"
            },
            {
              "name": "amount",
              "type": "int256"
            },
            {
              "components": [
                {
                  "components": [
                    {
                      "name": "ct",
                      "type": "address"
                    },
                    {
                      "name": "id",
                      "type": "uint256"
                    }
                  ],
                  "name": "intended",
                  "type": "tuple"
                },
                {
                  "components": [
                    {
                      "name": "ct",
                      "type": "address"
                    },
                    {
                      "name": "id",
                      "type": "uint256"
                    }
                  ],
                  "name": "conjugate",
                  "type": "tuple"
                }
              ],
              "name": "currencies",
              "type": "tuple"
            },
            {
              "name": "rate",
              "type": "int256"
            },
            {
              "components": [
                {
                  "name": "nonce",
                  "type": "uint256"
                },
                {
                  "name": "wallet",
                  "type": "address"
                },
                {
                  "name": "rollingVolume",
                  "type": "uint256"
                },
                {
                  "name": "liquidityRole",
                  "type": "uint8"
                },
                {
                  "components": [
                    {
                      "name": "amount",
                      "type": "int256"
                    },
                    {
                      "components": [
                        {
                          "name": "wallet",
                          "type": "bytes32"
                        },
                        {
                          "name": "operator",
                          "type": "bytes32"
                        }
                      ],
                      "name": "hashes",
                      "type": "tuple"
                    },
                    {
                      "components": [
                        {
                          "name": "current",
                          "type": "int256"
                        },
                        {
                          "name": "previous",
                          "type": "int256"
                        }
                      ],
                      "name": "residuals",
                      "type": "tuple"
                    }
                  ],
                  "name": "order",
                  "type": "tuple"
                },
                {
                  "components": [
                    {
                      "components": [
                        {
                          "name": "current",
                          "type": "int256"
                        },
                        {
                          "name": "previous",
                          "type": "int256"
                        }
                      ],
                      "name": "intended",
                      "type": "tuple"
                    },
                    {
                      "components": [
                        {
                          "name": "current",
                          "type": "int256"
                        },
                        {
                          "name": "previous",
                          "type": "int256"
                        }
                      ],
                      "name": "conjugate",
                      "type": "tuple"
                    }
                  ],
                  "name": "balances",
                  "type": "tuple"
                },
                {
                  "components": [
                    {
                      "components": [
                        {
                          "name": "amount",
                          "type": "int256"
                        },
                        {
                          "components": [
                            {
                              "name": "ct",
                              "type": "address"
                            },
                            {
                              "name": "id",
                              "type": "uint256"
                            }
                          ],
                          "name": "currency",
                          "type": "tuple"
                        }
                      ],
                      "name": "single",
                      "type": "tuple"
                    },
                    {
                      "components": [
                        {
                          "name": "originId",
                          "type": "uint256"
                        },
                        {
                          "components": [
                            {
                              "name": "amount",
                              "type": "int256"
                            },
                            {
                              "components": [
                                {
                                  "name": "ct",
                                  "type": "address"
                                },
                                {
                                  "name": "id",
                                  "type": "uint256"
                                }
                              ],
                              "name": "currency",
                              "type": "tuple"
                            }
                          ],
                          "name": "figure",
                          "type": "tuple"
                        }
                      ],
                      "name": "total",
                      "type": "tuple[]"
                    }
                  ],
                  "name": "fees",
                  "type": "tuple"
                }
              ],
              "name": "buyer",
              "type": "tuple"
            },
            {
              "components": [
                {
                  "name": "nonce",
                  "type": "uint256"
                },
                {
                  "name": "wallet",
                  "type": "address"
                },
                {
                  "name": "rollingVolume",
                  "type": "uint256"
                },
                {
                  "name": "liquidityRole",
                  "type": "uint8"
                },
                {
                  "components": [
                    {
                      "name": "amount",
                      "type": "int256"
                    },
                    {
                      "components": [
                        {
                          "name": "wallet",
                          "type": "bytes32"
                        },
                        {
                          "name": "operator",
                          "type": "bytes32"
                        }
                      ],
                      "name": "hashes",
                      "type": "tuple"
                    },
                    {
                      "components": [
                        {
                          "name": "current",
                          "type": "int256"
                        },
                        {
                          "name": "previous",
                          "type": "int256"
                        }
                      ],
                      "name": "residuals",
                      "type": "tuple"
                    }
                  ],
                  "name": "order",
                  "type": "tuple"
                },
                {
                  "components": [
                    {
                      "components": [
                        {
                          "name": "current",
                          "type": "int256"
                        },
                        {
                          "name": "previous",
                          "type": "int256"
                        }
                      ],
                      "name": "intended",
                      "type": "tuple"
                    },
                    {
                      "components": [
                        {
                          "name": "current",
                          "type": "int256"
                        },
                        {
                          "name": "previous",
                          "type": "int256"
                        }
                      ],
                      "name": "conjugate",
                      "type": "tuple"
                    }
                  ],
                  "name": "balances",
                  "type": "tuple"
                },
                {
                  "components": [
                    {
                      "components": [
                        {
                          "name": "amount",
                          "type": "int256"
                        },
                        {
                          "components": [
                            {
                              "name": "ct",
                              "type": "address"
                            },
                            {
                              "name": "id",
                              "type": "uint256"
                            }
                          ],
                          "name": "currency",
                          "type": "tuple"
                        }
                      ],
                      "name": "single",
                      "type": "tuple"
                    },
                    {
                      "components": [
                        {
                          "name": "originId",
                          "type": "uint256"
                        },
                        {
                          "components": [
                            {
                              "name": "amount",
                              "type": "int256"
                            },
                            {
                              "components": [
                                {
                                  "name": "ct",
                                  "type": "address"
                                },
                                {
                                  "name": "id",
                                  "type": "uint256"
                                }
                              ],
                              "name": "currency",
                              "type": "tuple"
                            }
                          ],
                          "name": "figure",
                          "type": "tuple"
                        }
                      ],
                      "name": "total",
                      "type": "tuple[]"
                    }
                  ],
                  "name": "fees",
                  "type": "tuple"
                }
              ],
              "name": "seller",
              "type": "tuple"
            },
            {
              "components": [
                {
                  "components": [
                    {
                      "name": "single",
                      "type": "int256"
                    },
                    {
                      "name": "total",
                      "type": "int256"
                    }
                  ],
                  "name": "intended",
                  "type": "tuple"
                },
                {
                  "components": [
                    {
                      "name": "single",
                      "type": "int256"
                    },
                    {
                      "name": "total",
                      "type": "int256"
                    }
                  ],
                  "name": "conjugate",
                  "type": "tuple"
                }
              ],
              "name": "transfers",
              "type": "tuple"
            },
            {
              "components": [
                {
                  "name": "hash",
                  "type": "bytes32"
                },
                {
                  "components": [
                    {
                      "name": "r",
                      "type": "bytes32"
                    },
                    {
                      "name": "s",
                      "type": "bytes32"
                    },
                    {
                      "name": "v",
                      "type": "uint8"
                    }
                  ],
                  "name": "signature",
                  "type": "tuple"
                }
              ],
              "name": "seal",
              "type": "tuple"
            },
            {
              "name": "blockNumber",
              "type": "uint256"
            },
            {
              "name": "operatorId",
              "type": "uint256"
            }
          ],
          "name": "trade",
          "type": "tuple"
        }
      ],
      "name": "settleTrade",
      "outputs": [],
      "payable": false,
      "stateMutability": "nonpayable",
      "type": "function"
    },
    {
      "constant": false,
      "inputs": [
        {
          "name": "wallet",
          "type": "address"
        },
        {
          "components": [
            {
              "name": "nonce",
              "type": "uint256"
            },
            {
              "name": "amount",
              "type": "int256"
            },
            {
              "components": [
                {
                  "components": [
                    {
                      "name": "ct",
                      "type": "address"
                    },
                    {
                      "name": "id",
                      "type": "uint256"
                    }
                  ],
                  "name": "intended",
                  "type": "tuple"
                },
                {
                  "components": [
                    {
                      "name": "ct",
                      "type": "address"
                    },
                    {
                      "name": "id",
                      "type": "uint256"
                    }
                  ],
                  "name": "conjugate",
                  "type": "tuple"
                }
              ],
              "name": "currencies",
              "type": "tuple"
            },
            {
              "name": "rate",
              "type": "int256"
            },
            {
              "components": [
                {
                  "name": "nonce",
                  "type": "uint256"
                },
                {
                  "name": "wallet",
                  "type": "address"
                },
                {
                  "name": "rollingVolume",
                  "type": "uint256"
                },
                {
                  "name": "liquidityRole",
                  "type": "uint8"
                },
                {
                  "components": [
                    {
                      "name": "amount",
                      "type": "int256"
                    },
                    {
                      "components": [
                        {
                          "name": "wallet",
                          "type": "bytes32"
                        },
                        {
                          "name": "operator",
                          "type": "bytes32"
                        }
                      ],
                      "name": "hashes",
                      "type": "tuple"
                    },
                    {
                      "components": [
                        {
                          "name": "current",
                          "type": "int256"
                        },
                        {
                          "name": "previous",
                          "type": "int256"
                        }
                      ],
                      "name": "residuals",
                      "type": "tuple"
                    }
                  ],
                  "name": "order",
                  "type": "tuple"
                },
                {
                  "components": [
                    {
                      "components": [
                        {
                          "name": "current",
                          "type": "int256"
                        },
                        {
                          "name": "previous",
                          "type": "int256"
                        }
                      ],
                      "name": "intended",
                      "type": "tuple"
                    },
                    {
                      "components": [
                        {
                          "name": "current",
                          "type": "int256"
                        },
                        {
                          "name": "previous",
                          "type": "int256"
                        }
                      ],
                      "name": "conjugate",
                      "type": "tuple"
                    }
                  ],
                  "name": "balances",
                  "type": "tuple"
                },
                {
                  "components": [
                    {
                      "components": [
                        {
                          "name": "amount",
                          "type": "int256"
                        },
                        {
                          "components": [
                            {
                              "name": "ct",
                              "type": "address"
                            },
                            {
                              "name": "id",
                              "type": "uint256"
                            }
                          ],
                          "name": "currency",
                          "type": "tuple"
                        }
                      ],
                      "name": "single",
                      "type": "tuple"
                    },
                    {
                      "components": [
                        {
                          "name": "originId",
                          "type": "uint256"
                        },
                        {
                          "components": [
                            {
                              "name": "amount",
                              "type": "int256"
                            },
                            {
                              "components": [
                                {
                                  "name": "ct",
                                  "type": "address"
                                },
                                {
                                  "name": "id",
                                  "type": "uint256"
                                }
                              ],
                              "name": "currency",
                              "type": "tuple"
                            }
                          ],
                          "name": "figure",
                          "type": "tuple"
                        }
                      ],
                      "name": "total",
                      "type": "tuple[]"
                    }
                  ],
                  "name": "fees",
                  "type": "tuple"
                }
              ],
              "name": "buyer",
              "type": "tuple"
            },
            {
              "components": [
                {
                  "name": "nonce",
                  "type": "uint256"
                },
                {
                  "name": "wallet",
                  "type": "address"
                },
                {
                  "name": "rollingVolume",
                  "type": "uint256"
                },
                {
                  "name": "liquidityRole",
                  "type": "uint8"
                },
                {
                  "components": [
                    {
                      "name": "amount",
                      "type": "int256"
                    },
                    {
                      "components": [
                        {
                          "name": "wallet",
                          "type": "bytes32"
                        },
                        {
                          "name": "operator",
                          "type": "bytes32"
                        }
                      ],
                      "name": "hashes",
                      "type": "tuple"
                    },
                    {
                      "components": [
                        {
                          "name": "current",
                          "type": "int256"
                        },
                        {
                          "name": "previous",
                          "type": "int256"
                        }
                      ],
                      "name": "residuals",
                      "type": "tuple"
                    }
                  ],
                  "name": "order",
                  "type": "tuple"
                },
                {
                  "components": [
                    {
                      "components": [
                        {
                          "name": "current",
                          "type": "int256"
                        },
                        {
                          "name": "previous",
                          "type": "int256"
                        }
                      ],
                      "name": "intended",
                      "type": "tuple"
                    },
                    {
                      "components": [
                        {
                          "name": "current",
                          "type": "int256"
                        },
                        {
                          "name": "previous",
                          "type": "int256"
                        }
                      ],
                      "name": "conjugate",
                      "type": "tuple"
                    }
                  ],
                  "name": "balances",
                  "type": "tuple"
                },
                {
                  "components": [
                    {
                      "components": [
                        {
                          "name": "amount",
                          "type": "int256"
                        },
                        {
                          "components": [
                            {
                              "name": "ct",
                              "type": "address"
                            },
                            {
                              "name": "id",
                              "type": "uint256"
                            }
                          ],
                          "name": "currency",
                          "type": "tuple"
                        }
                      ],
                      "name": "single",
                      "type": "tuple"
                    },
                    {
                      "components": [
                        {
                          "name": "originId",
                          "type": "uint256"
                        },
                        {
                          "components": [
                            {
                              "name": "amount",
                              "type": "int256"
                            },
                            {
                              "components": [
                                {
                                  "name": "ct",
                                  "type": "address"
                                },
                                {
                                  "name": "id",
                                  "type": "uint256"
                                }
                              ],
                              "name": "currency",
                              "type": "tuple"
                            }
                          ],
                          "name": "figure",
                          "type": "tuple"
                        }
                      ],
                      "name": "total",
                      "type": "tuple[]"
                    }
                  ],
                  "name": "fees",
                  "type": "tuple"
                }
              ],
              "name": "seller",
              "type": "tuple"
            },
            {
              "components": [
                {
                  "components": [
                    {
                      "name": "single",
                      "type": "int256"
                    },
                    {
                      "name": "total",
                      "type": "int256"
                    }
                  ],
                  "name": "intended",
                  "type": "tuple"
                },
                {
                  "components": [
                    {
                      "name": "single",
                      "type": "int256"
                    },
                    {
                      "name": "total",
                      "type": "int256"
                    }
                  ],
                  "name": "conjugate",
                  "type": "tuple"
                }
              ],
              "name": "transfers",
              "type": "tuple"
            },
            {
              "components": [
                {
                  "name": "hash",
                  "type": "bytes32"
                },
                {
                  "components": [
                    {
                      "name": "r",
                      "type": "bytes32"
                    },
                    {
                      "name": "s",
                      "type": "bytes32"
                    },
                    {
                      "name": "v",
                      "type": "uint8"
                    }
                  ],
                  "name": "signature",
                  "type": "tuple"
                }
              ],
              "name": "seal",
              "type": "tuple"
            },
            {
              "name": "blockNumber",
              "type": "uint256"
            },
            {
              "name": "operatorId",
              "type": "uint256"
            }
          ],
          "name": "trade",
          "type": "tuple"
        }
      ],
      "name": "settleTradeByProxy",
      "outputs": [],
      "payable": false,
      "stateMutability": "nonpayable",
      "type": "function"
    }
  ],
  "bytecode": "0x60806040523480156200001157600080fd5b5060405160208062003c238339810180604052620000339190810190620000b6565b8080600160a060020a03811615156200004b57600080fd5b600160a060020a0381163014156200006257600080fd5b506000805461010060a860020a031916610100600160a060020a039390931692830217905560018054600160a060020a031916909117905550620000eb565b6000620000af8251620000df565b9392505050565b600060208284031215620000c957600080fd5b6000620000d78484620000a1565b949350505050565b600160a060020a031690565b613b2880620000fb6000396000f3006080604052600436106101be5763ffffffff60e060020a60003504166301370d0681146101c35780631327d3d8146101e5578063240625d81461020557806325c84441146102305780632738a112146102525780632aa1c9d9146102675780632f013a00146102875780633a5381b51461029c5780633bd7857f146102b1578063404e896f146102c65780634476d23b146102e657806351d7cd6114610308578063570ca7351461031d5780635dc60def14610332578063627f09c314610347578063670732a7146103675780636c70bee91461037c57806370327ea114610391578063892860b2146103a65780638c6913bc146103c65780638cf16a31146103e85780638e9d6cbd1461040857806395ff296d1461041d5780639621473514610432578063b3ab15fb14610452578063b71ded2f14610472578063bf24e7d014610492578063c0ffe1b4146104a7578063d2f08936146104d4578063d5f39488146104f4578063e71dcc3114610509578063e754476f14610529578063e86ab8f61461053e578063e8ae41e31461055e578063f152dd3814610573578063f1aa773414610593578063f345fb44146105a8578063fe4e7096146105c8575b600080fd5b3480156101cf57600080fd5b506101e36101de3660046130d3565b6105e8565b005b3480156101f157600080fd5b506101e36102003660046130d3565b610690565b34801561021157600080fd5b5061021a610728565b6040516102279190613917565b60405180910390f35b34801561023c57600080fd5b50610245610738565b6040516102279190613933565b34801561025e57600080fd5b506101e3610747565b34801561027357600080fd5b506101e36102823660046130d3565b6107ad565b34801561029357600080fd5b5061021a61083e565b3480156102a857600080fd5b50610245610847565b3480156102bd57600080fd5b50610245610856565b3480156102d257600080fd5b506101e36102e13660046130d3565b610865565b3480156102f257600080fd5b506102fb6108e9565b6040516102279190613623565b34801561031457600080fd5b506102456108fd565b34801561032957600080fd5b506102fb61090c565b34801561033e57600080fd5b506101e361091b565b34801561035357600080fd5b506101e36103623660046130d3565b61096f565b34801561037357600080fd5b506101e3610a07565b34801561038857600080fd5b50610245610a5b565b34801561039d57600080fd5b506101e3610a6a565b3480156103b257600080fd5b506101e36103c13660046130d3565b610acd565b3480156103d257600080fd5b506103db610b7c565b6040516102279190613925565b3480156103f457600080fd5b506101e3610403366004613195565b610c02565b34801561041457600080fd5b5061021a610c48565b34801561042957600080fd5b50610245610c58565b34801561043e57600080fd5b506101e361044d366004612ff0565b610c67565b34801561045e57600080fd5b506101e361046d366004612ff0565b610d25565b34801561047e57600080fd5b506101e361048d3660046130d3565b610dcf565b34801561049e57600080fd5b50610245610e67565b3480156104b357600080fd5b506104c76104c2366004613067565b610e76565b60405161022791906139b0565b3480156104e057600080fd5b506104c76104ef366004613067565b610f12565b34801561050057600080fd5b506102fb610f4f565b34801561051557600080fd5b506101e36105243660046130d3565b610f63565b34801561053557600080fd5b50610245610fe7565b34801561054a57600080fd5b506101e36105593660046130d3565b610ff6565b34801561056a57600080fd5b506102456110a5565b34801561057f57600080fd5b506101e361058e3660046130d3565b6110b4565b34801561059f57600080fd5b50610245611138565b3480156105b457600080fd5b506103db6105c3366004612ff0565b611147565b3480156105d457600080fd5b506101e36105e3366004613016565b6111cd565b60006105f2611229565b15156105fd57600080fd5b81600160a060020a038116151561061357600080fd5b6006548390600160a060020a0390811690821681146106895760068054600160a060020a03878116600160a060020a0319831617909255604051911694507f07998fa7be97abe2427246ae4688298c89d6196bbffdf0997b9495a8d27bc673906106809086908890613941565b60405180910390a15b5050505050565b600061069a611229565b15156106a557600080fd5b81600160a060020a03811615156106bb57600080fd5b6003548390600160a060020a0390811690821681146106895760038054600160a060020a03878116600160a060020a0319831617909255604051911694507f1882af944a16549c3d4f60e3cd26f158b0c7aac3222cf32971fc21375ce05f60906106809086908890613941565b60075460a060020a900460ff1681565b600954600160a060020a031681565b336107506108e9565b600160a060020a03161461076357600080fd5b60005460ff161561077357600080fd5b7f787a5d936e74f4b564b9153575886059829c78cd9927b1be5e0d976b317ef736336040516107a29190613623565b60405180910390a133ff5b60006107b7611229565b15156107c257600080fd5b81600160a060020a03811615156107d857600080fd5b60088054600160a060020a03858116600160a060020a03198316179283905560405191811694507f4f7125332801996cdeaabf9cff1ac89ddf4b52c673558936affe853ab64a88da926108319286929190911690613941565b60405180910390a1505050565b60005460ff1681565b600354600160a060020a031681565b600654600160a060020a031681565b600061086f611229565b151561087a57600080fd5b81600160a060020a038116151561089057600080fd5b60098054600160a060020a03858116600160a060020a03198316179283905560405191811694507f6d4735156f5fb1047cfcd4a9edf19e3291aec19d53916f8fee650ca3c2d73910926108319286929190911690613941565b6000546101009004600160a060020a031690565b600854600160a060020a031681565b600154600160a060020a031681565b610923611229565b151561092e57600080fd5b6007805460a060020a60ff02191660a060020a1790556040517f56ec8900b9c4bf84f4b715a53068ca06961dd49084c07b481931e2c2045346e690600090a1565b6000610979611229565b151561098457600080fd5b81600160a060020a038116151561099a57600080fd5b6002548390600160a060020a0390811690821681146106895760028054600160a060020a03878116600160a060020a0319831617909255604051911694507f634f61bf00e14adedce330c80c2823e16e184f189ebe853e1ddecc4a268477ff906106809086908890613941565b610a0f611229565b1515610a1a57600080fd5b6005805460a060020a60ff02191660a060020a1790556040517fc1668d45f18667fb6eadfbcacfd5cdcc7dd4ecdfc9b0ab8786cfdbad86bb83d890600090a1565b600254600160a060020a031681565b33610a736108e9565b600160a060020a031614610a8657600080fd5b6000805460ff191660011790556040517fd5a2a04a775c741c2ca0dc46ea7ce4835190e1aaf1ca018def0e82568ec3361690610ac3903390613623565b60405180910390a1565b6000610ad7611229565b1515610ae257600080fd5b81600160a060020a0381161515610af857600080fd5b6007548390600160a060020a0390811690821681146106895760075460a060020a900460ff1615610b2857600080fd5b60078054600160a060020a03878116600160a060020a0319831617909255604051911694507fa44d361e26327b72a7ccbeae801b3c5cd7677ea4fa74168b289e273c46bfecfc906106809086908890613941565b6009546040805160e260020a63231a44ef0281529051600092600160a060020a031691638c6913bc91600480830192602092919082900301818787803b158015610bc557600080fd5b505af1158015610bd9573d6000803e3d6000fd5b505050506040513d601f19601f82011682018060405250610bfd91908101906130b5565b905090565b610c0c338261123f565b7f657ab7ead09206283cbdeedb5264be5b351baa0c0f852fcfb6c6aa8182a64c573382604051610c3d92919061387f565b60405180910390a150565b60055460a060020a900460ff1681565b600a54600160a060020a031681565b6000610c71611229565b1515610c7c57600080fd5b81600160a060020a0381161515610c9257600080fd5b600160a060020a038116301415610ca857600080fd5b600054600160a060020a038481166101009092041614610d205760008054600160a060020a0385811661010090810261010060a860020a0319841617909355604051929091041692507f977e5fa58e458501775e0008d275006294c5249e3c08d1d0e3a9f3acad14f6e4906108319084908690613631565b505050565b6000610d2f61230d565b1515610d3a57600080fd5b81600160a060020a0381161515610d5057600080fd5b600160a060020a038116301415610d6657600080fd5b600154600160a060020a03848116911614610d205760018054600160a060020a03858116600160a060020a0319831617909255604051911692507f9f611b789425d0d5b90b920f1b2852907dd865c80074a30b1629aaa041d1812c906108319084908690613631565b6000610dd9611229565b1515610de457600080fd5b81600160a060020a0381161515610dfa57600080fd5b6004548390600160a060020a0390811690821681146106895760048054600160a060020a03878116600160a060020a0319831617909255604051911694507f4d96d2a04c886b313bd1e28be6324ed4c8867b3203e512756722f8be0195e16d906106809086908890613941565b600554600160a060020a031681565b610e7e6127ee565b60095460405160e260020a63303ff86d028152600160a060020a039091169063c0ffe1b490610eb3908690869060040161389f565b600060405180830381600087803b158015610ecd57600080fd5b505af1158015610ee1573d6000803e3d6000fd5b505050506040513d6000823e601f3d908101601f19168201604052610f099190810190613161565b90505b92915050565b610f1a6127ee565b60095460405160e160020a636978449b028152600160a060020a039091169063d2f0893690610eb3908690869060040161389f565b6000546101009004600160a060020a031681565b6000610f6d611229565b1515610f7857600080fd5b81600160a060020a0381161515610f8e57600080fd5b600b8054600160a060020a03858116600160a060020a03198316179283905560405191811694507f8b279c2b23bfeb78b16df477d9aca8834fa453d90eec75f2ab0c825a712c3d17926108319286929190911690613941565b600454600160a060020a031681565b6000611000611229565b151561100b57600080fd5b81600160a060020a038116151561102157600080fd5b6005548390600160a060020a0390811690821681146106895760055460a060020a900460ff161561105157600080fd5b60058054600160a060020a03878116600160a060020a0319831617909255604051911694507f624c4d4225a45f5bf8a9755adba1ef9be3464a9970b05a371fb6cca0c0caf204906106809086908890613941565b600754600160a060020a031681565b60006110be611229565b15156110c957600080fd5b81600160a060020a03811615156110df57600080fd5b600a8054600160a060020a03858116600160a060020a03198316179283905560405191811694507f0e0d0aee1efbecb32fba4a76ecc4cae4c9ed1c3ea3459ea8460c53ff4cb09bcf926108319286929190911690613941565b600b54600160a060020a031681565b60095460405160e260020a633cd17ed1028152600091600160a060020a03169063f345fb449061117b908590600401613623565b602060405180830381600087803b15801561119557600080fd5b505af11580156111a9573d6000803e3d6000fd5b505050506040513d601f19601f82011682018060405250610f0c91908101906130b5565b6111d561230d565b15156111e057600080fd5b6111ea828261123f565b7f5ddf2c9b4fff4cd73ea605875e6c0ac2282be29c511e97d607737a340849750733838360405161121d93929190613653565b60405180910390a15050565b6000546101009004600160a060020a0316331490565b6000611249612821565b60035460405160e160020a637211c8c70281528491600160a060020a03169063e423918e9061127c9084906004016139c1565b602060405180830381600087803b15801561129657600080fd5b505af11580156112aa573d6000803e3d6000fd5b505050506040513d601f19601f820116820180604052506112ce9190810190613097565b15156112d957600080fd5b60035460405160e160020a6303e149c302815285918791600160a060020a03909116906307c293869061131290859085906004016139d2565b602060405180830381600087803b15801561132c57600080fd5b505af1158015611340573d6000803e3d6000fd5b505050506040513d601f19601f820116820180604052506113649190810190613097565b151561136f57600080fd5b60065460e08701515160405160e160020a6352c894d1028152600160a060020a039092169163a59129a2916113a691600401613925565b602060405180830381600087803b1580156113c057600080fd5b505af11580156113d4573d6000803e3d6000fd5b505050506040513d601f19601f820116820180604052506113f89190810190613097565b1561140257600080fd5b60055460405160e060020a639243c9db028152600160a060020a0390911690639243c9db90611435908a90600401613623565b602060405180830381600087803b15801561144f57600080fd5b505af1158015611463573d6000803e3d6000fd5b505050506040513d601f19601f820116820180604052506114879190810190613097565b1561149157600080fd5b60075460405160e260020a631293efbb028152600160a060020a0390911690634a4fbeec906114c4908a90600401613623565b602060405180830381600087803b1580156114de57600080fd5b505af11580156114f2573d6000803e3d6000fd5b505050506040513d601f19601f820116820180604052506115169190810190613097565b1561152057600080fd5b60085460408088015151905160e060020a63da473c57028152600160a060020a039092169163da473c579161155a918b919060040161383c565b602060405180830381600087803b15801561157457600080fd5b505af1158015611588573d6000803e3d6000fd5b505050506040513d601f19601f820116820180604052506115ac91908101906130b5565b60e087015151146115bc57600080fd5b60085460408088015160200151905160e060020a63da473c57028152600160a060020a039092169163da473c57916115f9918b919060040161383c565b602060405180830381600087803b15801561161357600080fd5b505af1158015611627573d6000803e3d6000fd5b505050506040513d601f19601f8201168201806040525061164b91908101906130b5565b60e0870151511461165b57600080fd5b60085460408088015151905160e060020a635482c735028152600160a060020a0390921691635482c73591611695918b919060040161383c565b602060405180830381600087803b1580156116af57600080fd5b505af11580156116c3573d6000803e3d6000fd5b505050506040513d601f19601f820116820180604052506116e79190810190613097565b15156116f257600080fd5b60085460408088015160200151905160e060020a635482c735028152600160a060020a0390921691635482c7359161172f918b919060040161383c565b602060405180830381600087803b15801561174957600080fd5b505af115801561175d573d6000803e3d6000fd5b505050506040513d601f19601f820116820180604052506117819190810190613097565b151561178c57600080fd5b60085460408088015151905160e060020a63b6e2fc33028152600160a060020a039092169163b6e2fc33916117c6918b919060040161383c565b602060405180830381600087803b1580156117e057600080fd5b505af11580156117f4573d6000803e3d6000fd5b505050506040513d601f19601f8201168201806040525061181891908101906130f1565b600181111561182357fe5b1561182d57600080fd5b60085460408088015160200151905160e060020a63b6e2fc33028152600160a060020a039092169163b6e2fc339161186a918b919060040161383c565b602060405180830381600087803b15801561188457600080fd5b505af1158015611898573d6000803e3d6000fd5b505050506040513d601f19601f820116820180604052506118bc91908101906130f1565b60018111156118c757fe5b156118d157600080fd5b600260009054906101000a9004600160a060020a0316600160a060020a031663f71e860f6040518163ffffffff1660e060020a028152600401602060405180830381600087803b15801561192457600080fd5b505af1158015611938573d6000803e3d6000fd5b505050506040513d601f19601f8201168201806040525061195c9190810190613097565b80156119ee5750600560009054906101000a9004600160a060020a0316600160a060020a031663994e20766040518163ffffffff1660e060020a028152600401602060405180830381600087803b1580156119b657600080fd5b505af11580156119ca573d6000803e3d6000fd5b505050506040513d601f19601f820116820180604052506119ee9190810190613097565b80611a835750600960009054906101000a9004600160a060020a0316600160a060020a031663897d36aa6040518163ffffffff1660e060020a028152600401602060405180830381600087803b158015611a4757600080fd5b505af1158015611a5b573d6000803e3d6000fd5b505050506040513d601f19601f82011682018060405250611a7f91908101906130b5565b8651105b1515611a8e57600080fd5b600960009054906101000a9004600160a060020a0316600160a060020a0316638772531373__TradeTypesLib_________________________6332575cb66040518163ffffffff1660e060020a02815260040160006040518083038186803b158015611af957600080fd5b505af4158015611b0d573d6000803e3d6000fd5b505050506040513d6000823e601f3d908101601f19168201604052611b35919081019061310f565b60e08901515160a08a0151602080820151915160808d015191820151915160405160e060020a63ffffffff8916028152611b7696959493919060040161395c565b600060405180830381600087803b158015611b9057600080fd5b505af1158015611ba4573d6000803e3d6000fd5b50505050611bb2868861231e565b600954815160405160e060020a636b184dff028152939850919650600160a060020a031691636b184dff91611bee918b91908a906004016138ba565b602060405180830381600087803b158015611c0857600080fd5b505af1158015611c1c573d6000803e3d6000fd5b505050506040513d601f19601f82011682018060405250611c409190810190613097565b15611c4a57600080fd5b600954845160405160e060020a63e86c7f8d028152600160a060020a039092169163e86c7f8d91611c85918b91908a906001906004016138e2565b600060405180830381600087803b158015611c9f57600080fd5b505af1158015611cb3573d6000803e3d6000fd5b505085516009546040808b015151905160e060020a633858654b028152929450600160a060020a039091169250633858654b91611cf4918c9160040161383c565b602060405180830381600087803b158015611d0e57600080fd5b505af1158015611d22573d6000803e3d6000fd5b505050506040513d601f19601f82011682018060405250611d4691908101906130b5565b1015611f3d57600954604080880151518651915160e360020a6302847747028152600160a060020a0390931692631423ba3892611d8a928c92909190600401613857565b600060405180830381600087803b158015611da457600080fd5b505af1158015611db8573d6000803e3d6000fd5b50506004805460a088015151516040808c01515180516020909101516101008e0151925160e160020a63325d23a9028152600160a060020a0390951697506364ba47529650611e0d958f9592939192016137a5565b600060405180830381600087803b158015611e2757600080fd5b505af1158015611e3b573d6000803e3d6000fd5b5050600480546008546040808c015151905160e160020a633007230f028152600160a060020a03938416965063ad468df995508d94929093169263600e461e92611e8992869290910161383c565b602060405180830381600087803b158015611ea357600080fd5b505af1158015611eb7573d6000803e3d6000fd5b505050506040513d601f19601f82011682018060405250611edb91908101906130b5565b6040808b0151518051602090910151915160e060020a63ffffffff8716028152611f0a9493929060040161375f565b600060405180830381600087803b158015611f2457600080fd5b505af1158015611f38573d6000803e3d6000fd5b505050505b835160095460408089015160200151905160e060020a633858654b028152600160a060020a0390921691633858654b91611f7c918c919060040161383c565b602060405180830381600087803b158015611f9657600080fd5b505af1158015611faa573d6000803e3d6000fd5b505050506040513d601f19601f82011682018060405250611fce91908101906130b5565b10156121d357600954604080880151602001518651915160e360020a6302847747028152600160a060020a0390931692631423ba3892612015928c92909190600401613857565b600060405180830381600087803b15801561202f57600080fd5b505af1158015612043573d6000803e3d6000fd5b50506004805460a0880151602090810151516040808d015183015180519301516101008e0151915160e160020a63325d23a9028152600160a060020a0390951697506364ba4752965061209e958f95939493919291016137a5565b600060405180830381600087803b1580156120b857600080fd5b505af11580156120cc573d6000803e3d6000fd5b5050600480546008546040808c015160200151905160e160020a633007230f028152600160a060020a03938416965063ad468df995508d94929093169263600e461e9261211d92869290910161383c565b602060405180830381600087803b15801561213757600080fd5b505af115801561214b573d6000803e3d6000fd5b505050506040513d601f19601f8201168201806040525061216f91908101906130b5565b6040808b01516020908101518051910151915160e060020a63ffffffff87160281526121a09493929060040161375f565b600060405180830381600087803b1580156121ba57600080fd5b505af11580156121ce573d6000803e3d6000fd5b505050505b600a54600160a060020a03161561220b5760c084015160200151600a54855161220b928a929091600160a060020a03909116906123d5565b600960009054906101000a9004600160a060020a0316600160a060020a031663897d36aa6040518163ffffffff1660e060020a028152600401602060405180830381600087803b15801561225e57600080fd5b505af1158015612272573d6000803e3d6000fd5b505050506040513d601f19601f8201168201806040525061229691908101906130b5565b8651111561230457600954865160405160e260020a63123f2dcb028152600160a060020a03909216916348fcb72c916122d191600401613925565b600060405180830381600087803b1580156122eb57600080fd5b505af11580156122ff573d6000803e3d6000fd5b505050505b50505050505050565b600154600160a060020a0316331490565b6000612328612821565b60035460405160e060020a63d752a337028152600160a060020a039091169063d752a3379061235d90879087906004016139d2565b602060405180830381600087803b15801561237757600080fd5b505af115801561238b573d6000803e3d6000fd5b505050506040513d601f19601f820116820180604052506123af9190810190613097565b156123c357505060a08201516000906123ce565b505060808201516001905b9250929050565b60008080805b86518410156127e45786848151811015156123f257fe5b60209081029091010151511561242f57600b548751600160a060020a039091169088908690811061241f57fe5b6020908102909101015151612433565b8560005b9250925084600960009054906101000a9004600160a060020a0316600160a060020a0316636e17226a8a86868c8a81518110151561246d57fe5b9060200190602002015160200151602001516040518563ffffffff1660e060020a0281526004016124a19493929190613680565b6040805180830381600087803b1580156124ba57600080fd5b505af11580156124ce573d6000803e3d6000fd5b505050506040513d601f19601f820116820180604052506124f29190810190613143565b5110156127d9576009548751600160a060020a0390911690636e17226a908a90869086908c908a90811061252257fe5b9060200190602002015160200151602001516040518563ffffffff1660e060020a0281526004016125569493929190613680565b6040805180830381600087803b15801561256f57600080fd5b505af1158015612583573d6000803e3d6000fd5b505050506040513d601f19601f820116820180604052506125a79190810190613143565b6020015187858151811015156125b957fe5b60209081029091018101510151516009548951929091039250600160a060020a031690637657768c908a90869086908c908a9081106125f457fe5b90602001906020020151602001516020015160408051908101604052808c81526020018e8c81518110151561262557fe5b6020908102909101810151015151905260405160e060020a63ffffffff88160281526126589594939291906004016136b5565b600060405180830381600087803b15801561267257600080fd5b505af1158015612686573d6000803e3d6000fd5b50506004548951600160a060020a03909116925063158a034291508490869085908c908a9081106126b357fe5b60209081029091018101518101510151518c518d908b9081106126d257fe5b906020019060200201516020015160200151602001516040518663ffffffff1660e060020a02815260040161270b959493929190613701565b600060405180830381600087803b15801561272557600080fd5b505af1158015612739573d6000803e3d6000fd5b505050507f64fcac3c2b1ccc98d3039b49f7668a97654165a070c78fa3163859e4d5d097808882898781518110151561276e57fe5b60209081029091018101510151518a518b908990811061278a57fe5b60209081029091018101518101510151518b518c908a9081106127a957fe5b906020019060200201516020015160200151602001516040516127d09594939291906137fa565b60405180910390a15b6001909301926123db565b5050505050505050565b6040805161010081018252606081526000602082015290810161280f61286b565b815260200161281c61286b565b905290565b6040805161022081018252600080825260208201819052918101829052906060820190815260200161285161288b565b815260200161285e6128b3565b815260200161281c6128c7565b604080516060810182526000808252602082018190529181019190915290565b60a060405190810160405280600081526020016128a66128e8565b815260200161281c6128e8565b6080604051908101604052806128a66128e8565b6080604051908101604052806128db6128ff565b8152602001606081525090565b604080518082019091526000808252602082015290565b6060604051908101604052806000815260200161281c604080518082019091526000808252602082015290565b6000610f098235613a69565b6000610f098251613a69565b6000601f8201831361295557600080fd5b813561296861296382613a18565b6139f2565b9150818183526020840193506020810190508385608084028201111561298d57600080fd5b60005b838110156129bb57816129a38882612bb9565b84525060209092019160809190910190600101612990565b5050505092915050565b6000610f098251613a75565b6000610f098235613a7a565b6000610f098251613a7a565b6000610f098235613a93565b6000610f098235613a9e565b6000610f098251613a9e565b6000601f82018313612a1e57600080fd5b8151612a2c61296382613a38565b91508082526020830160208301858383011115612a4857600080fd5b612a53838284613ab8565b50505092915050565b600060408284031215612a6e57600080fd5b612a7860406139f2565b90506000612a86848461292c565b8252506020612a97848483016129d1565b60208301525092915050565b600060408284031215612ab557600080fd5b612abf60406139f2565b90506000612a8684846129d1565b600060608284031215612adf57600080fd5b612ae960406139f2565b90506000612af784846129d1565b8252506020612a9784848301612a5c565b600060808284031215612b1a57600080fd5b612b2460406139f2565b90506000612b328484612a5c565b8252506040612a9784848301612a5c565b600060808284031215612b5557600080fd5b612b5f60406139f2565b90506000612b6d8484612aa3565b8252506040612a9784848301612aa3565b600060408284031215612b9057600080fd5b612b9a60406139f2565b90506000612ba884846129dd565b8252506020612a97848483016129dd565b600060808284031215612bcb57600080fd5b612bd560406139f2565b90506000612be384846129d1565b8252506020612a9784848301612acd565b600060808284031215612c0657600080fd5b612c1060406139f2565b90506000612c1e84846129d1565b8252506020612a9784848301612d11565b600060608284031215612c4157600080fd5b612c4b60606139f2565b90506000612c5984846129dd565b8252506020612c6a84848301612938565b6020830152506040612c7e848285016129c5565b60408301525092915050565b60006101008284031215612c9d57600080fd5b612ca760806139f2565b82519091506001604060020a03811115612cc057600080fd5b612ccc84828501612a0d565b8252506020612cdd848483016129dd565b6020830152506040612cf184828501612c2f565b60408301525060a0612d0584828501612c2f565b60608301525092915050565b600060608284031215612d2357600080fd5b612d2d60606139f2565b90506000612d3b84846129d1565b8252506020612d4c848483016129d1565b6020830152506040612c7e84828501612fe4565b600060808284031215612d7257600080fd5b612d7c60406139f2565b90506000612d8a8484612acd565b82525060608201356001604060020a03811115612da657600080fd5b612a9784828501612944565b600060a08284031215612dc457600080fd5b612dce60606139f2565b90506000612ddc84846129d1565b8252506020612ded84848301612aa3565b6020830152506060612c7e84828501612aa3565b60006101c08284031215612e1457600080fd5b612e1e60e06139f2565b90506000612e2c84846129d1565b8252506020612e3d8484830161292c565b6020830152506040612e51848285016129d1565b6040830152506060612e65848285016129f5565b6060830152506080612e7984828501612db2565b608083015250610120612e8e84828501612b43565b60a0830152506101a08201356001604060020a03811115612eae57600080fd5b612eba84828501612d60565b60c08301525092915050565b60006102608284031215612ed957600080fd5b612ee46101406139f2565b90506000612ef284846129d1565b8252506020612f03848483016129d1565b6020830152506040612f1784828501612b08565b60408301525060c0612f2b848285016129d1565b60608301525060e08201356001604060020a03811115612f4a57600080fd5b612f5684828501612e01565b6080830152506101008201356001604060020a03811115612f7657600080fd5b612f8284828501612e01565b60a083015250610120612f9784828501612b43565b60c0830152506101a0612fac84828501612bf4565b60e083015250610220612fc1848285016129d1565b61010083015250610240612fd7848285016129d1565b6101208301525092915050565b6000610f098235613a8d565b60006020828403121561300257600080fd5b600061300e848461292c565b949350505050565b6000806040838503121561302957600080fd5b6000613035858561292c565b92505060208301356001604060020a0381111561305157600080fd5b61305d85828601612ec6565b9150509250929050565b6000806040838503121561307a57600080fd5b6000613086858561292c565b925050602061305d858286016129d1565b6000602082840312156130a957600080fd5b600061300e84846129c5565b6000602082840312156130c757600080fd5b600061300e84846129dd565b6000602082840312156130e557600080fd5b600061300e84846129e9565b60006020828403121561310357600080fd5b600061300e8484612a01565b60006020828403121561312157600080fd5b81516001604060020a0381111561313757600080fd5b61300e84828501612a0d565b60006040828403121561315557600080fd5b600061300e8484612b7e565b60006020828403121561317357600080fd5b81516001604060020a0381111561318957600080fd5b61300e84828501612c8a565b6000602082840312156131a757600080fd5b81356001604060020a038111156131bd57600080fd5b61300e84828501612ec6565b6131d281613a69565b82525050565b60006131e382613a65565b8084526020840193506131f583613a5f565b60005b828110156132255761320b868351613339565b61321482613a5f565b6080969096019591506001016131f8565b5093949350505050565b6131d281613a75565b6131d281613a7a565b6131d281613a93565b6131d281613aad565b600061325e82613a65565b808452613272816020860160208601613ab8565b61327b81613ae4565b9093016020019392505050565b6000815260200190565b805160408301906132a384826131c9565b5060208201516132b66020850182613238565b50505050565b805160408301906132a38482613238565b805160608301906132de8482613238565b5060208201516132b66020850182613292565b805160808301906133028482613292565b5060208201516132b66040850182613292565b8051608083019061332684826132bc565b5060208201516132b660408501826132bc565b8051608083019061334a8482613238565b5060208201516132b660208501826132cd565b8051608083019061336e8482613238565b5060208201516132b66020850182613414565b805160608301906133928482613238565b5060208201516133a560208501826131c9565b5060408201516132b6604085018261322f565b8051610100808452600091908401906133d18282613253565b91505060208301516133e66020860182613238565b5060408301516133f96040860182613381565b50606083015161340c60a0860182613381565b509392505050565b805160608301906134258482613238565b5060208201516134386020850182613238565b5060408201516132b6604085018261361a565b8051600090608084019061345f85826132cd565b506020830151848203606086015261347782826131d8565b95945050505050565b805160a08301906134918482613238565b5060208201516134a460208501826132bc565b5060408201516132b660608501826132bc565b80516000906101c08401906134cc8582613238565b5060208301516134df60208601826131c9565b5060408301516134f26040860182613238565b506060830151613505606086018261324a565b5060808301516135186080860182613480565b5060a083015161352c610120860182613315565b5060c08301518482036101a0860152613477828261344b565b805160009061026084019061355a8582613238565b50602083015161356d6020860182613238565b50604083015161358060408601826132f1565b50606083015161359360c0860182613238565b50608083015184820360e08601526135ab82826134b7565b91505060a08301518482036101008601526135c682826134b7565b91505060c08301516135dc610120860182613315565b5060e08301516135f06101a086018261335d565b50610100830151613605610220860182613238565b5061012083015161340c610240860182613238565b6131d281613a8d565b60208101610f0c82846131c9565b6040810161363f82856131c9565b61364c60208301846131c9565b9392505050565b6060810161366182866131c9565b61366e60208301856131c9565b81810360408301526134778184613545565b60a0810161368e82876131c9565b61369b6020830186613241565b6136a860408301856131c9565b6134776060830184613292565b60e081016136c382886131c9565b6136d06020830187613241565b6136dd60408301866131c9565b6136ea6060830185613292565b6136f760a08301846132bc565b9695505050505050565b60c0810161370f82886131c9565b61371c6020830187613241565b6137296040830186613238565b61373660608301856131c9565b6137436080830184613238565b81810360a083015261375481613288565b979650505050505050565b60a0810161376d82876131c9565b61377a6020830186613238565b61378760408301856131c9565b6137946060830184613238565b81810360808301526136f781613288565b60c081016137b382886131c9565b6137c06020830187613238565b6137cd60408301866131c9565b6137da6060830185613238565b81810360808301526137eb81613288565b90506136f760a0830184613238565b60a0810161380882886131c9565b6138156020830187613238565b6138226040830186613238565b61382f60608301856131c9565b6136f76080830184613238565b6060810161384a82856131c9565b61364c6020830184613292565b6080810161386582866131c9565b6138726020830185613292565b61300e6060830184613238565b6040810161388d82856131c9565b818103602083015261300e8184613545565b604081016138ad82856131c9565b61364c6020830184613238565b606081016138c882866131c9565b6138d56020830185613238565b61300e604083018461324a565b608081016138f082876131c9565b6138fd6020830186613238565b61390a604083018561324a565b613477606083018461322f565b60208101610f0c828461322f565b60208101610f0c8284613238565b60208101610f0c8284613241565b6040810161394f8285613241565b61364c6020830184613241565b60c0808252810161396d8189613253565b905061397c6020830188613238565b61398960408301876131c9565b6139966060830186613238565b6139a360808301856131c9565b61375460a0830184613238565b60208082528101610f0981846133b8565b60208082528101610f098184613545565b604080825281016139e38185613545565b905061364c60208301846131c9565b6040518181016001604060020a0381118282101715613a1057600080fd5b604052919050565b60006001604060020a03821115613a2e57600080fd5b5060209081020190565b60006001604060020a03821115613a4e57600080fd5b506020601f91909101601f19160190565b60200190565b5190565b600160a060020a031690565b151590565b90565b600060028210613a8957fe5b5090565b60ff1690565b6000610f0c82613a69565b600060028210613a8957600080fd5b6000610f0c82613a7d565b60005b83811015613ad3578181015183820152602001613abb565b838111156132b65750506000910152565b601f01601f1916905600a265627a7a7230582043df70fddc3d21ad67a2b701a75cb7210cddb59779486bd79376e4d3ea37d1ba6c6578706572696d656e74616cf50037",
  "source": "/*\n * Hubii Nahmii\n *\n * Compliant with the Hubii Nahmii specification v0.12.\n *\n * Copyright (C) 2017-2018 Hubii AS\n */\n\npragma solidity ^0.4.25;\npragma experimental ABIEncoderV2;\n\nimport {Ownable} from \"./Ownable.sol\";\nimport {Configurable} from \"./Configurable.sol\";\nimport {ValidatableV2} from \"./ValidatableV2.sol\";\nimport {ClientFundable} from \"./ClientFundable.sol\";\nimport {CommunityVotable} from \"./CommunityVotable.sol\";\nimport {FraudChallengable} from \"./FraudChallengable.sol\";\nimport {WalletLockable} from \"./WalletLockable.sol\";\nimport {RevenueFund} from \"./RevenueFund.sol\";\nimport {PartnerFund} from \"./PartnerFund.sol\";\nimport {DriipSettlementChallengeState} from \"./DriipSettlementChallengeState.sol\";\nimport {DriipSettlementState} from \"./DriipSettlementState.sol\";\nimport {Beneficiary} from \"./Beneficiary.sol\";\nimport {SafeMathIntLib} from \"./SafeMathIntLib.sol\";\nimport {SafeMathUintLib} from \"./SafeMathUintLib.sol\";\nimport {MonetaryTypesLib} from \"./MonetaryTypesLib.sol\";\nimport {NahmiiTypesLib} from \"./NahmiiTypesLib.sol\";\nimport {TradeTypesLib} from \"./TradeTypesLib.sol\";\nimport {DriipSettlementTypesLib} from \"./DriipSettlementTypesLib.sol\";\nimport {SettlementChallengeTypesLib} from \"./SettlementChallengeTypesLib.sol\";\n\n/**\n * @title DriipSettlementByTrade\n * @notice Where driip settlements pertaining to trade are finalized\n */\ncontract DriipSettlementByTrade is Ownable, Configurable, ValidatableV2, ClientFundable, CommunityVotable,\nFraudChallengable, WalletLockable {\n    using SafeMathIntLib for int256;\n    using SafeMathUintLib for uint256;\n\n    //\n    // Variables\n    // -----------------------------------------------------------------------------------------------------------------\n    DriipSettlementChallengeState public driipSettlementChallengeState;\n    DriipSettlementState public driipSettlementState;\n    RevenueFund public revenueFund;\n    PartnerFund public partnerFund;\n\n    //\n    // Events\n    // -----------------------------------------------------------------------------------------------------------------\n    event SettleTradeEvent(address wallet, TradeTypesLib.Trade trade);\n    event SettleTradeByProxyEvent(address proxy, address wallet, TradeTypesLib.Trade trade);\n    event SetDriipSettlementChallengeStateEvent(DriipSettlementChallengeState oldDriipSettlementChallengeState,\n        DriipSettlementChallengeState newDriipSettlementChallengeState);\n    event SetDriipSettlementStateEvent(DriipSettlementState oldDriipSettlementState,\n        DriipSettlementState newDriipSettlementState);\n    event SetRevenueFundEvent(RevenueFund oldRevenueFund, RevenueFund newRevenueFund);\n    event SetPartnerFundEvent(PartnerFund oldPartnerFund, PartnerFund newPartnerFund);\n    event StageFeesEvent(address wallet, int256 deltaAmount, int256 cumulativeAmount,\n        address currencyCt, uint256 currencyId);\n\n    //\n    // Constructor\n    // -----------------------------------------------------------------------------------------------------------------\n    constructor(address deployer) Ownable(deployer) public {\n    }\n\n    //\n    // Functions\n    // -----------------------------------------------------------------------------------------------------------------\n    /// @notice Set the driip settlement challenge state contract\n    /// @param newDriipSettlementChallengeState The (address of) DriipSettlementChallengeState contract instance\n    function setDriipSettlementChallengeState(DriipSettlementChallengeState newDriipSettlementChallengeState)\n    public\n    onlyDeployer\n    notNullAddress(newDriipSettlementChallengeState)\n    {\n        DriipSettlementChallengeState oldDriipSettlementChallengeState = driipSettlementChallengeState;\n        driipSettlementChallengeState = newDriipSettlementChallengeState;\n        emit SetDriipSettlementChallengeStateEvent(oldDriipSettlementChallengeState, driipSettlementChallengeState);\n    }\n\n    /// @notice Set the driip settlement state contract\n    /// @param newDriipSettlementState The (address of) DriipSettlementState contract instance\n    function setDriipSettlementState(DriipSettlementState newDriipSettlementState)\n    public\n    onlyDeployer\n    notNullAddress(newDriipSettlementState)\n    {\n        DriipSettlementState oldDriipSettlementState = driipSettlementState;\n        driipSettlementState = newDriipSettlementState;\n        emit SetDriipSettlementStateEvent(oldDriipSettlementState, driipSettlementState);\n    }\n\n    /// @notice Set the revenue fund contract\n    /// @param newRevenueFund The (address of) RevenueFund contract instance\n    function setRevenueFund(RevenueFund newRevenueFund)\n    public\n    onlyDeployer\n    notNullAddress(newRevenueFund)\n    {\n        RevenueFund oldRevenueFund = revenueFund;\n        revenueFund = newRevenueFund;\n        emit SetRevenueFundEvent(oldRevenueFund, revenueFund);\n    }\n\n    /// @notice Set the partner fund contract\n    /// @param newPartnerFund The (address of) partner contract instance\n    function setPartnerFund(PartnerFund newPartnerFund)\n    public\n    onlyDeployer\n    notNullAddress(newPartnerFund)\n    {\n        PartnerFund oldPartnerFund = partnerFund;\n        partnerFund = newPartnerFund;\n        emit SetPartnerFundEvent(oldPartnerFund, partnerFund);\n    }\n\n    /// @notice Get the count of settlements\n    function settlementsCount()\n    public\n    view\n    returns (uint256)\n    {\n        return driipSettlementState.settlementsCount();\n    }\n\n    /// @notice Get the count of settlements for given wallet\n    /// @param wallet The address for which to return settlement count\n    /// @return count of settlements for the provided wallet\n    function settlementsCountByWallet(address wallet)\n    public\n    view\n    returns (uint256)\n    {\n        return driipSettlementState.settlementsCountByWallet(wallet);\n    }\n\n    /// @notice Get settlement of given wallet and index\n    /// @param wallet The address for which to return settlement\n    /// @param index The wallet's settlement index\n    /// @return settlement for the provided wallet and index\n    function settlementByWalletAndIndex(address wallet, uint256 index)\n    public\n    view\n    returns (DriipSettlementTypesLib.Settlement)\n    {\n        return driipSettlementState.settlementByWalletAndIndex(wallet, index);\n    }\n\n    /// @notice Get settlement of given wallet and wallet nonce\n    /// @param wallet The address for which to return settlement\n    /// @param nonce The wallet's nonce\n    /// @return settlement for the provided wallet and index\n    function settlementByWalletAndNonce(address wallet, uint256 nonce)\n    public\n    view\n    returns (DriipSettlementTypesLib.Settlement)\n    {\n        return driipSettlementState.settlementByWalletAndNonce(wallet, nonce);\n    }\n\n    /// @notice Settle driip that is a trade\n    /// @param trade The trade to be settled\n    function settleTrade(TradeTypesLib.Trade trade)\n    public\n    {\n        // Settle trade\n        _settleTrade(msg.sender, trade);\n\n        // Emit event\n        emit SettleTradeEvent(msg.sender, trade);\n    }\n\n    /// @notice Settle driip that is a trade\n    /// @param wallet The wallet whose side of the trade is to be settled\n    /// @param trade The trade to be settled\n    function settleTradeByProxy(address wallet, TradeTypesLib.Trade trade)\n    public\n    onlyOperator\n    {\n        // Settle trade for wallet\n        _settleTrade(wallet, trade);\n\n        // Emit event\n        emit SettleTradeByProxyEvent(msg.sender, wallet, trade);\n    }\n\n    //\n    // Private functions\n    // -----------------------------------------------------------------------------------------------------------------\n    function _settleTrade(address wallet, TradeTypesLib.Trade trade)\n    private\n    onlySealedTrade(trade)\n    onlyTradeParty(trade, wallet)\n    {\n        require(!fraudChallenge.isFraudulentTradeHash(trade.seal.hash));\n        require(!communityVote.isDoubleSpenderWallet(wallet));\n\n        // Require that wallet is not locked\n        require(!walletLocker.isLocked(wallet));\n\n        // Require that the wallet's current driip settlement challenge proposals are defined wrt this trade\n        require(trade.seal.hash == driipSettlementChallengeState.proposalChallengedHash(wallet, trade.currencies.intended));\n        require(trade.seal.hash == driipSettlementChallengeState.proposalChallengedHash(wallet, trade.currencies.conjugate));\n\n        // Require that proposals have expired\n        require(driipSettlementChallengeState.hasProposalExpired(wallet, trade.currencies.intended));\n        require(driipSettlementChallengeState.hasProposalExpired(wallet, trade.currencies.conjugate));\n\n        // Require that driip settlement challenge proposals qualified\n        require(SettlementChallengeTypesLib.Status.Qualified == driipSettlementChallengeState.proposalStatus(\n            wallet, trade.currencies.intended\n        ));\n        require(SettlementChallengeTypesLib.Status.Qualified == driipSettlementChallengeState.proposalStatus(\n            wallet, trade.currencies.conjugate\n        ));\n\n        // Require that operational mode is normal and data is available, or that nonce is\n        // smaller than max null nonce\n        require((configuration.isOperationalModeNormal() && communityVote.isDataAvailable())\n            || (trade.nonce < driipSettlementState.maxDriipNonce()));\n\n        // Init settlement, i.e. create one if no such settlement exists for the double pair of wallets and nonces\n        driipSettlementState.initSettlement(\n            TradeTypesLib.TRADE_KIND(), trade.seal.hash,\n            trade.seller.wallet, trade.seller.nonce,\n            trade.buyer.wallet, trade.buyer.nonce\n        );\n\n        // Extract properties depending on settlement role\n        (\n        DriipSettlementTypesLib.SettlementRole settlementRole,\n        TradeTypesLib.TradeParty memory party\n        ) = _getRoleProperties(trade, wallet);\n\n        // If exists settlement of nonce then require that wallet has not already settled\n        require(!driipSettlementState.isSettlementRoleDone(\n            wallet, party.nonce, settlementRole\n        ));\n\n        // Set address of origin or target to prevent the same settlement from being resettled by this wallet\n        driipSettlementState.setSettlementRoleDone(\n            wallet, party.nonce, settlementRole, true\n        );\n\n        // If wallet has previously settled balance of the intended currency with higher driip nonce, then don't\n        // settle its balance again\n        if (driipSettlementState.maxNonceByWalletAndCurrency(wallet, trade.currencies.intended) < party.nonce) {\n            // Update settled nonce of wallet and currency\n            driipSettlementState.setMaxNonceByWalletAndCurrency(wallet, trade.currencies.intended, party.nonce);\n\n            // Update settled balance\n            clientFund.updateSettledBalance(\n                wallet, party.balances.intended.current, trade.currencies.intended.ct,\n                trade.currencies.intended.id, \"\", trade.blockNumber\n            );\n\n            // Stage (stage function assures positive amount only)\n            clientFund.stage(\n                wallet,\n                driipSettlementChallengeState.proposalStageAmount(wallet, trade.currencies.intended),\n                trade.currencies.intended.ct, trade.currencies.intended.id, \"\"\n            );\n        }\n\n        // If wallet has previously settled balance of the conjugate currency with higher driip nonce, then don't\n        // settle its balance again\n        if (driipSettlementState.maxNonceByWalletAndCurrency(wallet, trade.currencies.conjugate) < party.nonce) {\n            // Update settled nonce of wallet and currency\n            driipSettlementState.setMaxNonceByWalletAndCurrency(wallet, trade.currencies.conjugate, party.nonce);\n\n            // Update settled balance\n            clientFund.updateSettledBalance(\n                wallet, party.balances.conjugate.current, trade.currencies.conjugate.ct,\n                trade.currencies.conjugate.id, \"\", trade.blockNumber\n            );\n\n            // Stage (stage function assures positive amount only)\n            clientFund.stage(\n                wallet,\n                driipSettlementChallengeState.proposalStageAmount(wallet, trade.currencies.conjugate),\n                trade.currencies.conjugate.ct, trade.currencies.conjugate.id, \"\"\n            );\n        }\n\n        // Stage fees to revenue fund\n        if (address(0) != address(revenueFund))\n            _stageFees(wallet, party.fees.total, revenueFund, party.nonce);\n\n        // If trade global nonce is beyond max driip nonce then update max driip nonce\n        // TODO TBM when global nonce goes away\n        if (trade.nonce > driipSettlementState.maxDriipNonce())\n            driipSettlementState.setMaxDriipNonce(trade.nonce);\n    }\n\n    function _getRoleProperties(TradeTypesLib.Trade trade, address wallet)\n    private\n    view\n    returns (\n        DriipSettlementTypesLib.SettlementRole settlementRole,\n        TradeTypesLib.TradeParty memory party\n    )\n    {\n        if (validator.isTradeSeller(trade, wallet)) {\n            settlementRole = DriipSettlementTypesLib.SettlementRole.Origin;\n            party = trade.seller;\n\n        } else {\n            settlementRole = DriipSettlementTypesLib.SettlementRole.Target;\n            party = trade.buyer;\n        }\n    }\n\n    function _stageFees(address wallet, NahmiiTypesLib.OriginFigure[] fees,\n        Beneficiary protocolBeneficiary, uint256 nonce)\n    private\n    {\n        // For each origin figure...\n        for (uint256 i = 0; i < fees.length; i++) {\n            // Based on originId determine if this is protocol or partner fee, and if the latter define originId as destination in beneficiary\n            (Beneficiary beneficiary, address destination) =\n            (0 == fees[i].originId) ? (protocolBeneficiary, address(0)) : (partnerFund, address(fees[i].originId));\n\n            if (driipSettlementState.totalFee(wallet, beneficiary, destination, fees[i].figure.currency).nonce < nonce) {\n                // Get the amount previously staged\n                int256 deltaAmount = fees[i].figure.amount - driipSettlementState.totalFee(wallet, beneficiary, destination, fees[i].figure.currency).amount;\n\n                // Update fee total\n                driipSettlementState.setTotalFee(wallet, beneficiary, destination, fees[i].figure.currency, MonetaryTypesLib.NoncedAmount(nonce, fees[i].figure.amount));\n\n                // Transfer to beneficiary\n                clientFund.transferToBeneficiary(\n                    destination, beneficiary, deltaAmount, fees[i].figure.currency.ct, fees[i].figure.currency.id, \"\"\n                );\n\n                // Emit event\n                emit StageFeesEvent(\n                    wallet, deltaAmount, fees[i].figure.amount, fees[i].figure.currency.ct, fees[i].figure.currency.id\n                );\n            }\n        }\n    }\n}",
  "sourcePath": "/opt/buildagent/work/855e104608380c36/contracts/DriipSettlementByTrade.sol",
  "compiler": {
    "name": "solc",
    "version": "0.4.25+commit.59dbf8f1.Emscripten.clang"
  },
  "schemaVersion": "2.0.2",
  "updatedAt": "2019-04-02T08:24:31.866Z"
}