{
  "contractName": "DriipSettlementByTrade",
  "abi": [
    {
      "inputs": [
        {
          "internalType": "address",
          "name": "deployer",
          "type": "address"
        }
      ],
      "payable": false,
      "stateMutability": "nonpayable",
      "type": "constructor"
    },
    {
      "anonymous": false,
      "inputs": [],
      "name": "FreezeCommunityVoteEvent",
      "type": "event"
    },
    {
      "anonymous": false,
      "inputs": [],
      "name": "FreezeWalletLockerEvent",
      "type": "event"
    },
    {
      "anonymous": false,
      "inputs": [
        {
          "indexed": false,
          "internalType": "address",
          "name": "wallet",
          "type": "address"
        }
      ],
      "name": "SelfDestructionDisabledEvent",
      "type": "event"
    },
    {
      "anonymous": false,
      "inputs": [
        {
          "indexed": false,
          "internalType": "contract ClientFund",
          "name": "oldClientFund",
          "type": "address"
        },
        {
          "indexed": false,
          "internalType": "contract ClientFund",
          "name": "newClientFund",
          "type": "address"
        }
      ],
      "name": "SetClientFundEvent",
      "type": "event"
    },
    {
      "anonymous": false,
      "inputs": [
        {
          "indexed": false,
          "internalType": "contract CommunityVote",
          "name": "oldCommunityVote",
          "type": "address"
        },
        {
          "indexed": false,
          "internalType": "contract CommunityVote",
          "name": "newCommunityVote",
          "type": "address"
        }
      ],
      "name": "SetCommunityVoteEvent",
      "type": "event"
    },
    {
      "anonymous": false,
      "inputs": [
        {
          "indexed": false,
          "internalType": "contract Configuration",
          "name": "oldConfiguration",
          "type": "address"
        },
        {
          "indexed": false,
          "internalType": "contract Configuration",
          "name": "newConfiguration",
          "type": "address"
        }
      ],
      "name": "SetConfigurationEvent",
      "type": "event"
    },
    {
      "anonymous": false,
      "inputs": [
        {
          "indexed": false,
          "internalType": "address",
          "name": "oldDeployer",
          "type": "address"
        },
        {
          "indexed": false,
          "internalType": "address",
          "name": "newDeployer",
          "type": "address"
        }
      ],
      "name": "SetDeployerEvent",
      "type": "event"
    },
    {
      "anonymous": false,
      "inputs": [
        {
          "indexed": false,
          "internalType": "contract DriipSettlementChallengeState",
          "name": "oldDriipSettlementChallengeState",
          "type": "address"
        },
        {
          "indexed": false,
          "internalType": "contract DriipSettlementChallengeState",
          "name": "newDriipSettlementChallengeState",
          "type": "address"
        }
      ],
      "name": "SetDriipSettlementChallengeStateEvent",
      "type": "event"
    },
    {
      "anonymous": false,
      "inputs": [
        {
          "indexed": false,
          "internalType": "contract DriipSettlementState",
          "name": "oldDriipSettlementState",
          "type": "address"
        },
        {
          "indexed": false,
          "internalType": "contract DriipSettlementState",
          "name": "newDriipSettlementState",
          "type": "address"
        }
      ],
      "name": "SetDriipSettlementStateEvent",
      "type": "event"
    },
    {
      "anonymous": false,
      "inputs": [
        {
          "indexed": false,
          "internalType": "contract FraudChallenge",
          "name": "oldFraudChallenge",
          "type": "address"
        },
        {
          "indexed": false,
          "internalType": "contract FraudChallenge",
          "name": "newFraudChallenge",
          "type": "address"
        }
      ],
      "name": "SetFraudChallengeEvent",
      "type": "event"
    },
    {
      "anonymous": false,
      "inputs": [
        {
          "indexed": false,
          "internalType": "address",
          "name": "oldOperator",
          "type": "address"
        },
        {
          "indexed": false,
          "internalType": "address",
          "name": "newOperator",
          "type": "address"
        }
      ],
      "name": "SetOperatorEvent",
      "type": "event"
    },
    {
      "anonymous": false,
      "inputs": [
        {
          "indexed": false,
          "internalType": "contract PartnerFund",
          "name": "oldPartnerFund",
          "type": "address"
        },
        {
          "indexed": false,
          "internalType": "contract PartnerFund",
          "name": "newPartnerFund",
          "type": "address"
        }
      ],
      "name": "SetPartnerFundEvent",
      "type": "event"
    },
    {
      "anonymous": false,
      "inputs": [
        {
          "indexed": false,
          "internalType": "contract RevenueFund",
          "name": "oldRevenueFund",
          "type": "address"
        },
        {
          "indexed": false,
          "internalType": "contract RevenueFund",
          "name": "newRevenueFund",
          "type": "address"
        }
      ],
      "name": "SetRevenueFundEvent",
      "type": "event"
    },
    {
      "anonymous": false,
      "inputs": [
        {
          "indexed": false,
          "internalType": "contract ValidatorV2",
          "name": "oldValidator",
          "type": "address"
        },
        {
          "indexed": false,
          "internalType": "contract ValidatorV2",
          "name": "newValidator",
          "type": "address"
        }
      ],
      "name": "SetValidatorEvent",
      "type": "event"
    },
    {
      "anonymous": false,
      "inputs": [
        {
          "indexed": false,
          "internalType": "contract WalletLocker",
          "name": "oldWalletLocker",
          "type": "address"
        },
        {
          "indexed": false,
          "internalType": "contract WalletLocker",
          "name": "newWalletLocker",
          "type": "address"
        }
      ],
      "name": "SetWalletLockerEvent",
      "type": "event"
    },
    {
      "anonymous": false,
      "inputs": [
        {
          "indexed": false,
          "internalType": "address",
          "name": "proxy",
          "type": "address"
        },
        {
          "indexed": false,
          "internalType": "address",
          "name": "wallet",
          "type": "address"
        },
        {
          "components": [
            {
              "internalType": "uint256",
              "name": "nonce",
              "type": "uint256"
            },
            {
              "internalType": "int256",
              "name": "amount",
              "type": "int256"
            },
            {
              "components": [
                {
                  "components": [
                    {
                      "internalType": "address",
                      "name": "ct",
                      "type": "address"
                    },
                    {
                      "internalType": "uint256",
                      "name": "id",
                      "type": "uint256"
                    }
                  ],
                  "internalType": "struct MonetaryTypesLib.Currency",
                  "name": "intended",
                  "type": "tuple"
                },
                {
                  "components": [
                    {
                      "internalType": "address",
                      "name": "ct",
                      "type": "address"
                    },
                    {
                      "internalType": "uint256",
                      "name": "id",
                      "type": "uint256"
                    }
                  ],
                  "internalType": "struct MonetaryTypesLib.Currency",
                  "name": "conjugate",
                  "type": "tuple"
                }
              ],
              "internalType": "struct NahmiiTypesLib.IntendedConjugateCurrency",
              "name": "currencies",
              "type": "tuple"
            },
            {
              "internalType": "int256",
              "name": "rate",
              "type": "int256"
            },
            {
              "components": [
                {
                  "internalType": "uint256",
                  "name": "nonce",
                  "type": "uint256"
                },
                {
                  "internalType": "address",
                  "name": "wallet",
                  "type": "address"
                },
                {
                  "internalType": "uint256",
                  "name": "rollingVolume",
                  "type": "uint256"
                },
                {
                  "internalType": "enum TradeTypesLib.LiquidityRole",
                  "name": "liquidityRole",
                  "type": "uint8"
                },
                {
                  "components": [
                    {
                      "internalType": "int256",
                      "name": "amount",
                      "type": "int256"
                    },
                    {
                      "components": [
                        {
                          "internalType": "bytes32",
                          "name": "wallet",
                          "type": "bytes32"
                        },
                        {
                          "internalType": "bytes32",
                          "name": "operator",
                          "type": "bytes32"
                        }
                      ],
                      "internalType": "struct NahmiiTypesLib.WalletOperatorHashes",
                      "name": "hashes",
                      "type": "tuple"
                    },
                    {
                      "components": [
                        {
                          "internalType": "int256",
                          "name": "current",
                          "type": "int256"
                        },
                        {
                          "internalType": "int256",
                          "name": "previous",
                          "type": "int256"
                        }
                      ],
                      "internalType": "struct NahmiiTypesLib.CurrentPreviousInt256",
                      "name": "residuals",
                      "type": "tuple"
                    }
                  ],
                  "internalType": "struct TradeTypesLib.TradeOrder",
                  "name": "order",
                  "type": "tuple"
                },
                {
                  "components": [
                    {
                      "components": [
                        {
                          "internalType": "int256",
                          "name": "current",
                          "type": "int256"
                        },
                        {
                          "internalType": "int256",
                          "name": "previous",
                          "type": "int256"
                        }
                      ],
                      "internalType": "struct NahmiiTypesLib.CurrentPreviousInt256",
                      "name": "intended",
                      "type": "tuple"
                    },
                    {
                      "components": [
                        {
                          "internalType": "int256",
                          "name": "current",
                          "type": "int256"
                        },
                        {
                          "internalType": "int256",
                          "name": "previous",
                          "type": "int256"
                        }
                      ],
                      "internalType": "struct NahmiiTypesLib.CurrentPreviousInt256",
                      "name": "conjugate",
                      "type": "tuple"
                    }
                  ],
                  "internalType": "struct NahmiiTypesLib.IntendedConjugateCurrentPreviousInt256",
                  "name": "balances",
                  "type": "tuple"
                },
                {
                  "components": [
                    {
                      "components": [
                        {
                          "internalType": "int256",
                          "name": "amount",
                          "type": "int256"
                        },
                        {
                          "components": [
                            {
                              "internalType": "address",
                              "name": "ct",
                              "type": "address"
                            },
                            {
                              "internalType": "uint256",
                              "name": "id",
                              "type": "uint256"
                            }
                          ],
                          "internalType": "struct MonetaryTypesLib.Currency",
                          "name": "currency",
                          "type": "tuple"
                        }
                      ],
                      "internalType": "struct MonetaryTypesLib.Figure",
                      "name": "single",
                      "type": "tuple"
                    },
                    {
                      "components": [
                        {
                          "internalType": "uint256",
                          "name": "originId",
                          "type": "uint256"
                        },
                        {
                          "components": [
                            {
                              "internalType": "int256",
                              "name": "amount",
                              "type": "int256"
                            },
                            {
                              "components": [
                                {
                                  "internalType": "address",
                                  "name": "ct",
                                  "type": "address"
                                },
                                {
                                  "internalType": "uint256",
                                  "name": "id",
                                  "type": "uint256"
                                }
                              ],
                              "internalType": "struct MonetaryTypesLib.Currency",
                              "name": "currency",
                              "type": "tuple"
                            }
                          ],
                          "internalType": "struct MonetaryTypesLib.Figure",
                          "name": "figure",
                          "type": "tuple"
                        }
                      ],
                      "internalType": "struct NahmiiTypesLib.OriginFigure[]",
                      "name": "total",
                      "type": "tuple[]"
                    }
                  ],
                  "internalType": "struct NahmiiTypesLib.SingleFigureTotalOriginFigures",
                  "name": "fees",
                  "type": "tuple"
                }
              ],
              "internalType": "struct TradeTypesLib.TradeParty",
              "name": "buyer",
              "type": "tuple"
            },
            {
              "components": [
                {
                  "internalType": "uint256",
                  "name": "nonce",
                  "type": "uint256"
                },
                {
                  "internalType": "address",
                  "name": "wallet",
                  "type": "address"
                },
                {
                  "internalType": "uint256",
                  "name": "rollingVolume",
                  "type": "uint256"
                },
                {
                  "internalType": "enum TradeTypesLib.LiquidityRole",
                  "name": "liquidityRole",
                  "type": "uint8"
                },
                {
                  "components": [
                    {
                      "internalType": "int256",
                      "name": "amount",
                      "type": "int256"
                    },
                    {
                      "components": [
                        {
                          "internalType": "bytes32",
                          "name": "wallet",
                          "type": "bytes32"
                        },
                        {
                          "internalType": "bytes32",
                          "name": "operator",
                          "type": "bytes32"
                        }
                      ],
                      "internalType": "struct NahmiiTypesLib.WalletOperatorHashes",
                      "name": "hashes",
                      "type": "tuple"
                    },
                    {
                      "components": [
                        {
                          "internalType": "int256",
                          "name": "current",
                          "type": "int256"
                        },
                        {
                          "internalType": "int256",
                          "name": "previous",
                          "type": "int256"
                        }
                      ],
                      "internalType": "struct NahmiiTypesLib.CurrentPreviousInt256",
                      "name": "residuals",
                      "type": "tuple"
                    }
                  ],
                  "internalType": "struct TradeTypesLib.TradeOrder",
                  "name": "order",
                  "type": "tuple"
                },
                {
                  "components": [
                    {
                      "components": [
                        {
                          "internalType": "int256",
                          "name": "current",
                          "type": "int256"
                        },
                        {
                          "internalType": "int256",
                          "name": "previous",
                          "type": "int256"
                        }
                      ],
                      "internalType": "struct NahmiiTypesLib.CurrentPreviousInt256",
                      "name": "intended",
                      "type": "tuple"
                    },
                    {
                      "components": [
                        {
                          "internalType": "int256",
                          "name": "current",
                          "type": "int256"
                        },
                        {
                          "internalType": "int256",
                          "name": "previous",
                          "type": "int256"
                        }
                      ],
                      "internalType": "struct NahmiiTypesLib.CurrentPreviousInt256",
                      "name": "conjugate",
                      "type": "tuple"
                    }
                  ],
                  "internalType": "struct NahmiiTypesLib.IntendedConjugateCurrentPreviousInt256",
                  "name": "balances",
                  "type": "tuple"
                },
                {
                  "components": [
                    {
                      "components": [
                        {
                          "internalType": "int256",
                          "name": "amount",
                          "type": "int256"
                        },
                        {
                          "components": [
                            {
                              "internalType": "address",
                              "name": "ct",
                              "type": "address"
                            },
                            {
                              "internalType": "uint256",
                              "name": "id",
                              "type": "uint256"
                            }
                          ],
                          "internalType": "struct MonetaryTypesLib.Currency",
                          "name": "currency",
                          "type": "tuple"
                        }
                      ],
                      "internalType": "struct MonetaryTypesLib.Figure",
                      "name": "single",
                      "type": "tuple"
                    },
                    {
                      "components": [
                        {
                          "internalType": "uint256",
                          "name": "originId",
                          "type": "uint256"
                        },
                        {
                          "components": [
                            {
                              "internalType": "int256",
                              "name": "amount",
                              "type": "int256"
                            },
                            {
                              "components": [
                                {
                                  "internalType": "address",
                                  "name": "ct",
                                  "type": "address"
                                },
                                {
                                  "internalType": "uint256",
                                  "name": "id",
                                  "type": "uint256"
                                }
                              ],
                              "internalType": "struct MonetaryTypesLib.Currency",
                              "name": "currency",
                              "type": "tuple"
                            }
                          ],
                          "internalType": "struct MonetaryTypesLib.Figure",
                          "name": "figure",
                          "type": "tuple"
                        }
                      ],
                      "internalType": "struct NahmiiTypesLib.OriginFigure[]",
                      "name": "total",
                      "type": "tuple[]"
                    }
                  ],
                  "internalType": "struct NahmiiTypesLib.SingleFigureTotalOriginFigures",
                  "name": "fees",
                  "type": "tuple"
                }
              ],
              "internalType": "struct TradeTypesLib.TradeParty",
              "name": "seller",
              "type": "tuple"
            },
            {
              "components": [
                {
                  "components": [
                    {
                      "internalType": "int256",
                      "name": "single",
                      "type": "int256"
                    },
                    {
                      "internalType": "int256",
                      "name": "total",
                      "type": "int256"
                    }
                  ],
                  "internalType": "struct NahmiiTypesLib.SingleTotalInt256",
                  "name": "intended",
                  "type": "tuple"
                },
                {
                  "components": [
                    {
                      "internalType": "int256",
                      "name": "single",
                      "type": "int256"
                    },
                    {
                      "internalType": "int256",
                      "name": "total",
                      "type": "int256"
                    }
                  ],
                  "internalType": "struct NahmiiTypesLib.SingleTotalInt256",
                  "name": "conjugate",
                  "type": "tuple"
                }
              ],
              "internalType": "struct NahmiiTypesLib.IntendedConjugateSingleTotalInt256",
              "name": "transfers",
              "type": "tuple"
            },
            {
              "components": [
                {
                  "internalType": "bytes32",
                  "name": "hash",
                  "type": "bytes32"
                },
                {
                  "components": [
                    {
                      "internalType": "bytes32",
                      "name": "r",
                      "type": "bytes32"
                    },
                    {
                      "internalType": "bytes32",
                      "name": "s",
                      "type": "bytes32"
                    },
                    {
                      "internalType": "uint8",
                      "name": "v",
                      "type": "uint8"
                    }
                  ],
                  "internalType": "struct NahmiiTypesLib.Signature",
                  "name": "signature",
                  "type": "tuple"
                }
              ],
              "internalType": "struct NahmiiTypesLib.Seal",
              "name": "seal",
              "type": "tuple"
            },
            {
              "internalType": "uint256",
              "name": "blockNumber",
              "type": "uint256"
            },
            {
              "internalType": "uint256",
              "name": "operatorId",
              "type": "uint256"
            }
          ],
          "indexed": false,
          "internalType": "struct TradeTypesLib.Trade",
          "name": "trade",
          "type": "tuple"
        },
        {
          "indexed": false,
          "internalType": "string",
          "name": "standard",
          "type": "string"
        }
      ],
      "name": "SettleTradeByProxyEvent",
      "type": "event"
    },
    {
      "anonymous": false,
      "inputs": [
        {
          "indexed": false,
          "internalType": "address",
          "name": "wallet",
          "type": "address"
        },
        {
          "components": [
            {
              "internalType": "uint256",
              "name": "nonce",
              "type": "uint256"
            },
            {
              "internalType": "int256",
              "name": "amount",
              "type": "int256"
            },
            {
              "components": [
                {
                  "components": [
                    {
                      "internalType": "address",
                      "name": "ct",
                      "type": "address"
                    },
                    {
                      "internalType": "uint256",
                      "name": "id",
                      "type": "uint256"
                    }
                  ],
                  "internalType": "struct MonetaryTypesLib.Currency",
                  "name": "intended",
                  "type": "tuple"
                },
                {
                  "components": [
                    {
                      "internalType": "address",
                      "name": "ct",
                      "type": "address"
                    },
                    {
                      "internalType": "uint256",
                      "name": "id",
                      "type": "uint256"
                    }
                  ],
                  "internalType": "struct MonetaryTypesLib.Currency",
                  "name": "conjugate",
                  "type": "tuple"
                }
              ],
              "internalType": "struct NahmiiTypesLib.IntendedConjugateCurrency",
              "name": "currencies",
              "type": "tuple"
            },
            {
              "internalType": "int256",
              "name": "rate",
              "type": "int256"
            },
            {
              "components": [
                {
                  "internalType": "uint256",
                  "name": "nonce",
                  "type": "uint256"
                },
                {
                  "internalType": "address",
                  "name": "wallet",
                  "type": "address"
                },
                {
                  "internalType": "uint256",
                  "name": "rollingVolume",
                  "type": "uint256"
                },
                {
                  "internalType": "enum TradeTypesLib.LiquidityRole",
                  "name": "liquidityRole",
                  "type": "uint8"
                },
                {
                  "components": [
                    {
                      "internalType": "int256",
                      "name": "amount",
                      "type": "int256"
                    },
                    {
                      "components": [
                        {
                          "internalType": "bytes32",
                          "name": "wallet",
                          "type": "bytes32"
                        },
                        {
                          "internalType": "bytes32",
                          "name": "operator",
                          "type": "bytes32"
                        }
                      ],
                      "internalType": "struct NahmiiTypesLib.WalletOperatorHashes",
                      "name": "hashes",
                      "type": "tuple"
                    },
                    {
                      "components": [
                        {
                          "internalType": "int256",
                          "name": "current",
                          "type": "int256"
                        },
                        {
                          "internalType": "int256",
                          "name": "previous",
                          "type": "int256"
                        }
                      ],
                      "internalType": "struct NahmiiTypesLib.CurrentPreviousInt256",
                      "name": "residuals",
                      "type": "tuple"
                    }
                  ],
                  "internalType": "struct TradeTypesLib.TradeOrder",
                  "name": "order",
                  "type": "tuple"
                },
                {
                  "components": [
                    {
                      "components": [
                        {
                          "internalType": "int256",
                          "name": "current",
                          "type": "int256"
                        },
                        {
                          "internalType": "int256",
                          "name": "previous",
                          "type": "int256"
                        }
                      ],
                      "internalType": "struct NahmiiTypesLib.CurrentPreviousInt256",
                      "name": "intended",
                      "type": "tuple"
                    },
                    {
                      "components": [
                        {
                          "internalType": "int256",
                          "name": "current",
                          "type": "int256"
                        },
                        {
                          "internalType": "int256",
                          "name": "previous",
                          "type": "int256"
                        }
                      ],
                      "internalType": "struct NahmiiTypesLib.CurrentPreviousInt256",
                      "name": "conjugate",
                      "type": "tuple"
                    }
                  ],
                  "internalType": "struct NahmiiTypesLib.IntendedConjugateCurrentPreviousInt256",
                  "name": "balances",
                  "type": "tuple"
                },
                {
                  "components": [
                    {
                      "components": [
                        {
                          "internalType": "int256",
                          "name": "amount",
                          "type": "int256"
                        },
                        {
                          "components": [
                            {
                              "internalType": "address",
                              "name": "ct",
                              "type": "address"
                            },
                            {
                              "internalType": "uint256",
                              "name": "id",
                              "type": "uint256"
                            }
                          ],
                          "internalType": "struct MonetaryTypesLib.Currency",
                          "name": "currency",
                          "type": "tuple"
                        }
                      ],
                      "internalType": "struct MonetaryTypesLib.Figure",
                      "name": "single",
                      "type": "tuple"
                    },
                    {
                      "components": [
                        {
                          "internalType": "uint256",
                          "name": "originId",
                          "type": "uint256"
                        },
                        {
                          "components": [
                            {
                              "internalType": "int256",
                              "name": "amount",
                              "type": "int256"
                            },
                            {
                              "components": [
                                {
                                  "internalType": "address",
                                  "name": "ct",
                                  "type": "address"
                                },
                                {
                                  "internalType": "uint256",
                                  "name": "id",
                                  "type": "uint256"
                                }
                              ],
                              "internalType": "struct MonetaryTypesLib.Currency",
                              "name": "currency",
                              "type": "tuple"
                            }
                          ],
                          "internalType": "struct MonetaryTypesLib.Figure",
                          "name": "figure",
                          "type": "tuple"
                        }
                      ],
                      "internalType": "struct NahmiiTypesLib.OriginFigure[]",
                      "name": "total",
                      "type": "tuple[]"
                    }
                  ],
                  "internalType": "struct NahmiiTypesLib.SingleFigureTotalOriginFigures",
                  "name": "fees",
                  "type": "tuple"
                }
              ],
              "internalType": "struct TradeTypesLib.TradeParty",
              "name": "buyer",
              "type": "tuple"
            },
            {
              "components": [
                {
                  "internalType": "uint256",
                  "name": "nonce",
                  "type": "uint256"
                },
                {
                  "internalType": "address",
                  "name": "wallet",
                  "type": "address"
                },
                {
                  "internalType": "uint256",
                  "name": "rollingVolume",
                  "type": "uint256"
                },
                {
                  "internalType": "enum TradeTypesLib.LiquidityRole",
                  "name": "liquidityRole",
                  "type": "uint8"
                },
                {
                  "components": [
                    {
                      "internalType": "int256",
                      "name": "amount",
                      "type": "int256"
                    },
                    {
                      "components": [
                        {
                          "internalType": "bytes32",
                          "name": "wallet",
                          "type": "bytes32"
                        },
                        {
                          "internalType": "bytes32",
                          "name": "operator",
                          "type": "bytes32"
                        }
                      ],
                      "internalType": "struct NahmiiTypesLib.WalletOperatorHashes",
                      "name": "hashes",
                      "type": "tuple"
                    },
                    {
                      "components": [
                        {
                          "internalType": "int256",
                          "name": "current",
                          "type": "int256"
                        },
                        {
                          "internalType": "int256",
                          "name": "previous",
                          "type": "int256"
                        }
                      ],
                      "internalType": "struct NahmiiTypesLib.CurrentPreviousInt256",
                      "name": "residuals",
                      "type": "tuple"
                    }
                  ],
                  "internalType": "struct TradeTypesLib.TradeOrder",
                  "name": "order",
                  "type": "tuple"
                },
                {
                  "components": [
                    {
                      "components": [
                        {
                          "internalType": "int256",
                          "name": "current",
                          "type": "int256"
                        },
                        {
                          "internalType": "int256",
                          "name": "previous",
                          "type": "int256"
                        }
                      ],
                      "internalType": "struct NahmiiTypesLib.CurrentPreviousInt256",
                      "name": "intended",
                      "type": "tuple"
                    },
                    {
                      "components": [
                        {
                          "internalType": "int256",
                          "name": "current",
                          "type": "int256"
                        },
                        {
                          "internalType": "int256",
                          "name": "previous",
                          "type": "int256"
                        }
                      ],
                      "internalType": "struct NahmiiTypesLib.CurrentPreviousInt256",
                      "name": "conjugate",
                      "type": "tuple"
                    }
                  ],
                  "internalType": "struct NahmiiTypesLib.IntendedConjugateCurrentPreviousInt256",
                  "name": "balances",
                  "type": "tuple"
                },
                {
                  "components": [
                    {
                      "components": [
                        {
                          "internalType": "int256",
                          "name": "amount",
                          "type": "int256"
                        },
                        {
                          "components": [
                            {
                              "internalType": "address",
                              "name": "ct",
                              "type": "address"
                            },
                            {
                              "internalType": "uint256",
                              "name": "id",
                              "type": "uint256"
                            }
                          ],
                          "internalType": "struct MonetaryTypesLib.Currency",
                          "name": "currency",
                          "type": "tuple"
                        }
                      ],
                      "internalType": "struct MonetaryTypesLib.Figure",
                      "name": "single",
                      "type": "tuple"
                    },
                    {
                      "components": [
                        {
                          "internalType": "uint256",
                          "name": "originId",
                          "type": "uint256"
                        },
                        {
                          "components": [
                            {
                              "internalType": "int256",
                              "name": "amount",
                              "type": "int256"
                            },
                            {
                              "components": [
                                {
                                  "internalType": "address",
                                  "name": "ct",
                                  "type": "address"
                                },
                                {
                                  "internalType": "uint256",
                                  "name": "id",
                                  "type": "uint256"
                                }
                              ],
                              "internalType": "struct MonetaryTypesLib.Currency",
                              "name": "currency",
                              "type": "tuple"
                            }
                          ],
                          "internalType": "struct MonetaryTypesLib.Figure",
                          "name": "figure",
                          "type": "tuple"
                        }
                      ],
                      "internalType": "struct NahmiiTypesLib.OriginFigure[]",
                      "name": "total",
                      "type": "tuple[]"
                    }
                  ],
                  "internalType": "struct NahmiiTypesLib.SingleFigureTotalOriginFigures",
                  "name": "fees",
                  "type": "tuple"
                }
              ],
              "internalType": "struct TradeTypesLib.TradeParty",
              "name": "seller",
              "type": "tuple"
            },
            {
              "components": [
                {
                  "components": [
                    {
                      "internalType": "int256",
                      "name": "single",
                      "type": "int256"
                    },
                    {
                      "internalType": "int256",
                      "name": "total",
                      "type": "int256"
                    }
                  ],
                  "internalType": "struct NahmiiTypesLib.SingleTotalInt256",
                  "name": "intended",
                  "type": "tuple"
                },
                {
                  "components": [
                    {
                      "internalType": "int256",
                      "name": "single",
                      "type": "int256"
                    },
                    {
                      "internalType": "int256",
                      "name": "total",
                      "type": "int256"
                    }
                  ],
                  "internalType": "struct NahmiiTypesLib.SingleTotalInt256",
                  "name": "conjugate",
                  "type": "tuple"
                }
              ],
              "internalType": "struct NahmiiTypesLib.IntendedConjugateSingleTotalInt256",
              "name": "transfers",
              "type": "tuple"
            },
            {
              "components": [
                {
                  "internalType": "bytes32",
                  "name": "hash",
                  "type": "bytes32"
                },
                {
                  "components": [
                    {
                      "internalType": "bytes32",
                      "name": "r",
                      "type": "bytes32"
                    },
                    {
                      "internalType": "bytes32",
                      "name": "s",
                      "type": "bytes32"
                    },
                    {
                      "internalType": "uint8",
                      "name": "v",
                      "type": "uint8"
                    }
                  ],
                  "internalType": "struct NahmiiTypesLib.Signature",
                  "name": "signature",
                  "type": "tuple"
                }
              ],
              "internalType": "struct NahmiiTypesLib.Seal",
              "name": "seal",
              "type": "tuple"
            },
            {
              "internalType": "uint256",
              "name": "blockNumber",
              "type": "uint256"
            },
            {
              "internalType": "uint256",
              "name": "operatorId",
              "type": "uint256"
            }
          ],
          "indexed": false,
          "internalType": "struct TradeTypesLib.Trade",
          "name": "trade",
          "type": "tuple"
        },
        {
          "indexed": false,
          "internalType": "string",
          "name": "standard",
          "type": "string"
        }
      ],
      "name": "SettleTradeEvent",
      "type": "event"
    },
    {
      "anonymous": false,
      "inputs": [
        {
          "indexed": false,
          "internalType": "address",
          "name": "wallet",
          "type": "address"
        },
        {
          "indexed": false,
          "internalType": "int256",
          "name": "deltaAmount",
          "type": "int256"
        },
        {
          "indexed": false,
          "internalType": "int256",
          "name": "cumulativeAmount",
          "type": "int256"
        },
        {
          "indexed": false,
          "internalType": "address",
          "name": "currencyCt",
          "type": "address"
        },
        {
          "indexed": false,
          "internalType": "uint256",
          "name": "currencyId",
          "type": "uint256"
        }
      ],
      "name": "StageFeesEvent",
      "type": "event"
    },
    {
      "anonymous": false,
      "inputs": [
        {
          "indexed": false,
          "internalType": "address",
          "name": "wallet",
          "type": "address"
        }
      ],
      "name": "TriggerSelfDestructionEvent",
      "type": "event"
    },
    {
      "constant": true,
      "inputs": [],
      "name": "clientFund",
      "outputs": [
        {
          "internalType": "contract ClientFund",
          "name": "",
          "type": "address"
        }
      ],
      "payable": false,
      "stateMutability": "view",
      "type": "function"
    },
    {
      "constant": true,
      "inputs": [],
      "name": "communityVote",
      "outputs": [
        {
          "internalType": "contract CommunityVote",
          "name": "",
          "type": "address"
        }
      ],
      "payable": false,
      "stateMutability": "view",
      "type": "function"
    },
    {
      "constant": true,
      "inputs": [],
      "name": "communityVoteFrozen",
      "outputs": [
        {
          "internalType": "bool",
          "name": "",
          "type": "bool"
        }
      ],
      "payable": false,
      "stateMutability": "view",
      "type": "function"
    },
    {
      "constant": true,
      "inputs": [],
      "name": "configuration",
      "outputs": [
        {
          "internalType": "contract Configuration",
          "name": "",
          "type": "address"
        }
      ],
      "payable": false,
      "stateMutability": "view",
      "type": "function"
    },
    {
      "constant": true,
      "inputs": [],
      "name": "deployer",
      "outputs": [
        {
          "internalType": "address",
          "name": "",
          "type": "address"
        }
      ],
      "payable": false,
      "stateMutability": "view",
      "type": "function"
    },
    {
      "constant": true,
      "inputs": [],
      "name": "destructor",
      "outputs": [
        {
          "internalType": "address",
          "name": "",
          "type": "address"
        }
      ],
      "payable": false,
      "stateMutability": "view",
      "type": "function"
    },
    {
      "constant": false,
      "inputs": [],
      "name": "disableSelfDestruction",
      "outputs": [],
      "payable": false,
      "stateMutability": "nonpayable",
      "type": "function"
    },
    {
      "constant": true,
      "inputs": [],
      "name": "driipSettlementChallengeState",
      "outputs": [
        {
          "internalType": "contract DriipSettlementChallengeState",
          "name": "",
          "type": "address"
        }
      ],
      "payable": false,
      "stateMutability": "view",
      "type": "function"
    },
    {
      "constant": true,
      "inputs": [],
      "name": "driipSettlementState",
      "outputs": [
        {
          "internalType": "contract DriipSettlementState",
          "name": "",
          "type": "address"
        }
      ],
      "payable": false,
      "stateMutability": "view",
      "type": "function"
    },
    {
      "constant": true,
      "inputs": [],
      "name": "fraudChallenge",
      "outputs": [
        {
          "internalType": "contract FraudChallenge",
          "name": "",
          "type": "address"
        }
      ],
      "payable": false,
      "stateMutability": "view",
      "type": "function"
    },
    {
      "constant": false,
      "inputs": [],
      "name": "freezeCommunityVote",
      "outputs": [],
      "payable": false,
      "stateMutability": "nonpayable",
      "type": "function"
    },
    {
      "constant": false,
      "inputs": [],
      "name": "freezeWalletLocker",
      "outputs": [],
      "payable": false,
      "stateMutability": "nonpayable",
      "type": "function"
    },
    {
      "constant": true,
      "inputs": [],
      "name": "operator",
      "outputs": [
        {
          "internalType": "address",
          "name": "",
          "type": "address"
        }
      ],
      "payable": false,
      "stateMutability": "view",
      "type": "function"
    },
    {
      "constant": true,
      "inputs": [],
      "name": "partnerFund",
      "outputs": [
        {
          "internalType": "contract PartnerFund",
          "name": "",
          "type": "address"
        }
      ],
      "payable": false,
      "stateMutability": "view",
      "type": "function"
    },
    {
      "constant": true,
      "inputs": [],
      "name": "revenueFund",
      "outputs": [
        {
          "internalType": "contract RevenueFund",
          "name": "",
          "type": "address"
        }
      ],
      "payable": false,
      "stateMutability": "view",
      "type": "function"
    },
    {
      "constant": true,
      "inputs": [],
      "name": "selfDestructionDisabled",
      "outputs": [
        {
          "internalType": "bool",
          "name": "",
          "type": "bool"
        }
      ],
      "payable": false,
      "stateMutability": "view",
      "type": "function"
    },
    {
      "constant": false,
      "inputs": [
        {
          "internalType": "contract ClientFund",
          "name": "newClientFund",
          "type": "address"
        }
      ],
      "name": "setClientFund",
      "outputs": [],
      "payable": false,
      "stateMutability": "nonpayable",
      "type": "function"
    },
    {
      "constant": false,
      "inputs": [
        {
          "internalType": "contract CommunityVote",
          "name": "newCommunityVote",
          "type": "address"
        }
      ],
      "name": "setCommunityVote",
      "outputs": [],
      "payable": false,
      "stateMutability": "nonpayable",
      "type": "function"
    },
    {
      "constant": false,
      "inputs": [
        {
          "internalType": "contract Configuration",
          "name": "newConfiguration",
          "type": "address"
        }
      ],
      "name": "setConfiguration",
      "outputs": [],
      "payable": false,
      "stateMutability": "nonpayable",
      "type": "function"
    },
    {
      "constant": false,
      "inputs": [
        {
          "internalType": "address",
          "name": "newDeployer",
          "type": "address"
        }
      ],
      "name": "setDeployer",
      "outputs": [],
      "payable": false,
      "stateMutability": "nonpayable",
      "type": "function"
    },
    {
      "constant": false,
      "inputs": [
        {
          "internalType": "contract FraudChallenge",
          "name": "newFraudChallenge",
          "type": "address"
        }
      ],
      "name": "setFraudChallenge",
      "outputs": [],
      "payable": false,
      "stateMutability": "nonpayable",
      "type": "function"
    },
    {
      "constant": false,
      "inputs": [
        {
          "internalType": "address",
          "name": "newOperator",
          "type": "address"
        }
      ],
      "name": "setOperator",
      "outputs": [],
      "payable": false,
      "stateMutability": "nonpayable",
      "type": "function"
    },
    {
      "constant": false,
      "inputs": [
        {
          "internalType": "contract ValidatorV2",
          "name": "newValidator",
          "type": "address"
        }
      ],
      "name": "setValidator",
      "outputs": [],
      "payable": false,
      "stateMutability": "nonpayable",
      "type": "function"
    },
    {
      "constant": false,
      "inputs": [
        {
          "internalType": "contract WalletLocker",
          "name": "newWalletLocker",
          "type": "address"
        }
      ],
      "name": "setWalletLocker",
      "outputs": [],
      "payable": false,
      "stateMutability": "nonpayable",
      "type": "function"
    },
    {
      "constant": false,
      "inputs": [],
      "name": "triggerSelfDestruction",
      "outputs": [],
      "payable": false,
      "stateMutability": "nonpayable",
      "type": "function"
    },
    {
      "constant": true,
      "inputs": [],
      "name": "validator",
      "outputs": [
        {
          "internalType": "contract ValidatorV2",
          "name": "",
          "type": "address"
        }
      ],
      "payable": false,
      "stateMutability": "view",
      "type": "function"
    },
    {
      "constant": true,
      "inputs": [],
      "name": "walletLocker",
      "outputs": [
        {
          "internalType": "contract WalletLocker",
          "name": "",
          "type": "address"
        }
      ],
      "payable": false,
      "stateMutability": "view",
      "type": "function"
    },
    {
      "constant": true,
      "inputs": [],
      "name": "walletLockerFrozen",
      "outputs": [
        {
          "internalType": "bool",
          "name": "",
          "type": "bool"
        }
      ],
      "payable": false,
      "stateMutability": "view",
      "type": "function"
    },
    {
      "constant": false,
      "inputs": [
        {
          "internalType": "contract DriipSettlementChallengeState",
          "name": "newDriipSettlementChallengeState",
          "type": "address"
        }
      ],
      "name": "setDriipSettlementChallengeState",
      "outputs": [],
      "payable": false,
      "stateMutability": "nonpayable",
      "type": "function"
    },
    {
      "constant": false,
      "inputs": [
        {
          "internalType": "contract DriipSettlementState",
          "name": "newDriipSettlementState",
          "type": "address"
        }
      ],
      "name": "setDriipSettlementState",
      "outputs": [],
      "payable": false,
      "stateMutability": "nonpayable",
      "type": "function"
    },
    {
      "constant": false,
      "inputs": [
        {
          "internalType": "contract RevenueFund",
          "name": "newRevenueFund",
          "type": "address"
        }
      ],
      "name": "setRevenueFund",
      "outputs": [],
      "payable": false,
      "stateMutability": "nonpayable",
      "type": "function"
    },
    {
      "constant": false,
      "inputs": [
        {
          "internalType": "contract PartnerFund",
          "name": "newPartnerFund",
          "type": "address"
        }
      ],
      "name": "setPartnerFund",
      "outputs": [],
      "payable": false,
      "stateMutability": "nonpayable",
      "type": "function"
    },
    {
      "constant": true,
      "inputs": [],
      "name": "settlementsCount",
      "outputs": [
        {
          "internalType": "uint256",
          "name": "",
          "type": "uint256"
        }
      ],
      "payable": false,
      "stateMutability": "view",
      "type": "function"
    },
    {
      "constant": true,
      "inputs": [
        {
          "internalType": "address",
          "name": "wallet",
          "type": "address"
        }
      ],
      "name": "settlementsCountByWallet",
      "outputs": [
        {
          "internalType": "uint256",
          "name": "",
          "type": "uint256"
        }
      ],
      "payable": false,
      "stateMutability": "view",
      "type": "function"
    },
    {
      "constant": true,
      "inputs": [
        {
          "internalType": "address",
          "name": "wallet",
          "type": "address"
        },
        {
          "internalType": "uint256",
          "name": "index",
          "type": "uint256"
        }
      ],
      "name": "settlementByWalletAndIndex",
      "outputs": [
        {
          "components": [
            {
              "internalType": "string",
              "name": "settledKind",
              "type": "string"
            },
            {
              "internalType": "bytes32",
              "name": "settledHash",
              "type": "bytes32"
            },
            {
              "components": [
                {
                  "internalType": "uint256",
                  "name": "nonce",
                  "type": "uint256"
                },
                {
                  "internalType": "address",
                  "name": "wallet",
                  "type": "address"
                },
                {
                  "internalType": "uint256",
                  "name": "doneBlockNumber",
                  "type": "uint256"
                }
              ],
              "internalType": "struct DriipSettlementTypesLib.SettlementParty",
              "name": "origin",
              "type": "tuple"
            },
            {
              "components": [
                {
                  "internalType": "uint256",
                  "name": "nonce",
                  "type": "uint256"
                },
                {
                  "internalType": "address",
                  "name": "wallet",
                  "type": "address"
                },
                {
                  "internalType": "uint256",
                  "name": "doneBlockNumber",
                  "type": "uint256"
                }
              ],
              "internalType": "struct DriipSettlementTypesLib.SettlementParty",
              "name": "target",
              "type": "tuple"
            }
          ],
          "internalType": "struct DriipSettlementTypesLib.Settlement",
          "name": "",
          "type": "tuple"
        }
      ],
      "payable": false,
      "stateMutability": "view",
      "type": "function"
    },
    {
      "constant": true,
      "inputs": [
        {
          "internalType": "address",
          "name": "wallet",
          "type": "address"
        },
        {
          "internalType": "uint256",
          "name": "nonce",
          "type": "uint256"
        }
      ],
      "name": "settlementByWalletAndNonce",
      "outputs": [
        {
          "components": [
            {
              "internalType": "string",
              "name": "settledKind",
              "type": "string"
            },
            {
              "internalType": "bytes32",
              "name": "settledHash",
              "type": "bytes32"
            },
            {
              "components": [
                {
                  "internalType": "uint256",
                  "name": "nonce",
                  "type": "uint256"
                },
                {
                  "internalType": "address",
                  "name": "wallet",
                  "type": "address"
                },
                {
                  "internalType": "uint256",
                  "name": "doneBlockNumber",
                  "type": "uint256"
                }
              ],
              "internalType": "struct DriipSettlementTypesLib.SettlementParty",
              "name": "origin",
              "type": "tuple"
            },
            {
              "components": [
                {
                  "internalType": "uint256",
                  "name": "nonce",
                  "type": "uint256"
                },
                {
                  "internalType": "address",
                  "name": "wallet",
                  "type": "address"
                },
                {
                  "internalType": "uint256",
                  "name": "doneBlockNumber",
                  "type": "uint256"
                }
              ],
              "internalType": "struct DriipSettlementTypesLib.SettlementParty",
              "name": "target",
              "type": "tuple"
            }
          ],
          "internalType": "struct DriipSettlementTypesLib.Settlement",
          "name": "",
          "type": "tuple"
        }
      ],
      "payable": false,
      "stateMutability": "view",
      "type": "function"
    },
    {
      "constant": false,
      "inputs": [
        {
          "components": [
            {
              "internalType": "uint256",
              "name": "nonce",
              "type": "uint256"
            },
            {
              "internalType": "int256",
              "name": "amount",
              "type": "int256"
            },
            {
              "components": [
                {
                  "components": [
                    {
                      "internalType": "address",
                      "name": "ct",
                      "type": "address"
                    },
                    {
                      "internalType": "uint256",
                      "name": "id",
                      "type": "uint256"
                    }
                  ],
                  "internalType": "struct MonetaryTypesLib.Currency",
                  "name": "intended",
                  "type": "tuple"
                },
                {
                  "components": [
                    {
                      "internalType": "address",
                      "name": "ct",
                      "type": "address"
                    },
                    {
                      "internalType": "uint256",
                      "name": "id",
                      "type": "uint256"
                    }
                  ],
                  "internalType": "struct MonetaryTypesLib.Currency",
                  "name": "conjugate",
                  "type": "tuple"
                }
              ],
              "internalType": "struct NahmiiTypesLib.IntendedConjugateCurrency",
              "name": "currencies",
              "type": "tuple"
            },
            {
              "internalType": "int256",
              "name": "rate",
              "type": "int256"
            },
            {
              "components": [
                {
                  "internalType": "uint256",
                  "name": "nonce",
                  "type": "uint256"
                },
                {
                  "internalType": "address",
                  "name": "wallet",
                  "type": "address"
                },
                {
                  "internalType": "uint256",
                  "name": "rollingVolume",
                  "type": "uint256"
                },
                {
                  "internalType": "enum TradeTypesLib.LiquidityRole",
                  "name": "liquidityRole",
                  "type": "uint8"
                },
                {
                  "components": [
                    {
                      "internalType": "int256",
                      "name": "amount",
                      "type": "int256"
                    },
                    {
                      "components": [
                        {
                          "internalType": "bytes32",
                          "name": "wallet",
                          "type": "bytes32"
                        },
                        {
                          "internalType": "bytes32",
                          "name": "operator",
                          "type": "bytes32"
                        }
                      ],
                      "internalType": "struct NahmiiTypesLib.WalletOperatorHashes",
                      "name": "hashes",
                      "type": "tuple"
                    },
                    {
                      "components": [
                        {
                          "internalType": "int256",
                          "name": "current",
                          "type": "int256"
                        },
                        {
                          "internalType": "int256",
                          "name": "previous",
                          "type": "int256"
                        }
                      ],
                      "internalType": "struct NahmiiTypesLib.CurrentPreviousInt256",
                      "name": "residuals",
                      "type": "tuple"
                    }
                  ],
                  "internalType": "struct TradeTypesLib.TradeOrder",
                  "name": "order",
                  "type": "tuple"
                },
                {
                  "components": [
                    {
                      "components": [
                        {
                          "internalType": "int256",
                          "name": "current",
                          "type": "int256"
                        },
                        {
                          "internalType": "int256",
                          "name": "previous",
                          "type": "int256"
                        }
                      ],
                      "internalType": "struct NahmiiTypesLib.CurrentPreviousInt256",
                      "name": "intended",
                      "type": "tuple"
                    },
                    {
                      "components": [
                        {
                          "internalType": "int256",
                          "name": "current",
                          "type": "int256"
                        },
                        {
                          "internalType": "int256",
                          "name": "previous",
                          "type": "int256"
                        }
                      ],
                      "internalType": "struct NahmiiTypesLib.CurrentPreviousInt256",
                      "name": "conjugate",
                      "type": "tuple"
                    }
                  ],
                  "internalType": "struct NahmiiTypesLib.IntendedConjugateCurrentPreviousInt256",
                  "name": "balances",
                  "type": "tuple"
                },
                {
                  "components": [
                    {
                      "components": [
                        {
                          "internalType": "int256",
                          "name": "amount",
                          "type": "int256"
                        },
                        {
                          "components": [
                            {
                              "internalType": "address",
                              "name": "ct",
                              "type": "address"
                            },
                            {
                              "internalType": "uint256",
                              "name": "id",
                              "type": "uint256"
                            }
                          ],
                          "internalType": "struct MonetaryTypesLib.Currency",
                          "name": "currency",
                          "type": "tuple"
                        }
                      ],
                      "internalType": "struct MonetaryTypesLib.Figure",
                      "name": "single",
                      "type": "tuple"
                    },
                    {
                      "components": [
                        {
                          "internalType": "uint256",
                          "name": "originId",
                          "type": "uint256"
                        },
                        {
                          "components": [
                            {
                              "internalType": "int256",
                              "name": "amount",
                              "type": "int256"
                            },
                            {
                              "components": [
                                {
                                  "internalType": "address",
                                  "name": "ct",
                                  "type": "address"
                                },
                                {
                                  "internalType": "uint256",
                                  "name": "id",
                                  "type": "uint256"
                                }
                              ],
                              "internalType": "struct MonetaryTypesLib.Currency",
                              "name": "currency",
                              "type": "tuple"
                            }
                          ],
                          "internalType": "struct MonetaryTypesLib.Figure",
                          "name": "figure",
                          "type": "tuple"
                        }
                      ],
                      "internalType": "struct NahmiiTypesLib.OriginFigure[]",
                      "name": "total",
                      "type": "tuple[]"
                    }
                  ],
                  "internalType": "struct NahmiiTypesLib.SingleFigureTotalOriginFigures",
                  "name": "fees",
                  "type": "tuple"
                }
              ],
              "internalType": "struct TradeTypesLib.TradeParty",
              "name": "buyer",
              "type": "tuple"
            },
            {
              "components": [
                {
                  "internalType": "uint256",
                  "name": "nonce",
                  "type": "uint256"
                },
                {
                  "internalType": "address",
                  "name": "wallet",
                  "type": "address"
                },
                {
                  "internalType": "uint256",
                  "name": "rollingVolume",
                  "type": "uint256"
                },
                {
                  "internalType": "enum TradeTypesLib.LiquidityRole",
                  "name": "liquidityRole",
                  "type": "uint8"
                },
                {
                  "components": [
                    {
                      "internalType": "int256",
                      "name": "amount",
                      "type": "int256"
                    },
                    {
                      "components": [
                        {
                          "internalType": "bytes32",
                          "name": "wallet",
                          "type": "bytes32"
                        },
                        {
                          "internalType": "bytes32",
                          "name": "operator",
                          "type": "bytes32"
                        }
                      ],
                      "internalType": "struct NahmiiTypesLib.WalletOperatorHashes",
                      "name": "hashes",
                      "type": "tuple"
                    },
                    {
                      "components": [
                        {
                          "internalType": "int256",
                          "name": "current",
                          "type": "int256"
                        },
                        {
                          "internalType": "int256",
                          "name": "previous",
                          "type": "int256"
                        }
                      ],
                      "internalType": "struct NahmiiTypesLib.CurrentPreviousInt256",
                      "name": "residuals",
                      "type": "tuple"
                    }
                  ],
                  "internalType": "struct TradeTypesLib.TradeOrder",
                  "name": "order",
                  "type": "tuple"
                },
                {
                  "components": [
                    {
                      "components": [
                        {
                          "internalType": "int256",
                          "name": "current",
                          "type": "int256"
                        },
                        {
                          "internalType": "int256",
                          "name": "previous",
                          "type": "int256"
                        }
                      ],
                      "internalType": "struct NahmiiTypesLib.CurrentPreviousInt256",
                      "name": "intended",
                      "type": "tuple"
                    },
                    {
                      "components": [
                        {
                          "internalType": "int256",
                          "name": "current",
                          "type": "int256"
                        },
                        {
                          "internalType": "int256",
                          "name": "previous",
                          "type": "int256"
                        }
                      ],
                      "internalType": "struct NahmiiTypesLib.CurrentPreviousInt256",
                      "name": "conjugate",
                      "type": "tuple"
                    }
                  ],
                  "internalType": "struct NahmiiTypesLib.IntendedConjugateCurrentPreviousInt256",
                  "name": "balances",
                  "type": "tuple"
                },
                {
                  "components": [
                    {
                      "components": [
                        {
                          "internalType": "int256",
                          "name": "amount",
                          "type": "int256"
                        },
                        {
                          "components": [
                            {
                              "internalType": "address",
                              "name": "ct",
                              "type": "address"
                            },
                            {
                              "internalType": "uint256",
                              "name": "id",
                              "type": "uint256"
                            }
                          ],
                          "internalType": "struct MonetaryTypesLib.Currency",
                          "name": "currency",
                          "type": "tuple"
                        }
                      ],
                      "internalType": "struct MonetaryTypesLib.Figure",
                      "name": "single",
                      "type": "tuple"
                    },
                    {
                      "components": [
                        {
                          "internalType": "uint256",
                          "name": "originId",
                          "type": "uint256"
                        },
                        {
                          "components": [
                            {
                              "internalType": "int256",
                              "name": "amount",
                              "type": "int256"
                            },
                            {
                              "components": [
                                {
                                  "internalType": "address",
                                  "name": "ct",
                                  "type": "address"
                                },
                                {
                                  "internalType": "uint256",
                                  "name": "id",
                                  "type": "uint256"
                                }
                              ],
                              "internalType": "struct MonetaryTypesLib.Currency",
                              "name": "currency",
                              "type": "tuple"
                            }
                          ],
                          "internalType": "struct MonetaryTypesLib.Figure",
                          "name": "figure",
                          "type": "tuple"
                        }
                      ],
                      "internalType": "struct NahmiiTypesLib.OriginFigure[]",
                      "name": "total",
                      "type": "tuple[]"
                    }
                  ],
                  "internalType": "struct NahmiiTypesLib.SingleFigureTotalOriginFigures",
                  "name": "fees",
                  "type": "tuple"
                }
              ],
              "internalType": "struct TradeTypesLib.TradeParty",
              "name": "seller",
              "type": "tuple"
            },
            {
              "components": [
                {
                  "components": [
                    {
                      "internalType": "int256",
                      "name": "single",
                      "type": "int256"
                    },
                    {
                      "internalType": "int256",
                      "name": "total",
                      "type": "int256"
                    }
                  ],
                  "internalType": "struct NahmiiTypesLib.SingleTotalInt256",
                  "name": "intended",
                  "type": "tuple"
                },
                {
                  "components": [
                    {
                      "internalType": "int256",
                      "name": "single",
                      "type": "int256"
                    },
                    {
                      "internalType": "int256",
                      "name": "total",
                      "type": "int256"
                    }
                  ],
                  "internalType": "struct NahmiiTypesLib.SingleTotalInt256",
                  "name": "conjugate",
                  "type": "tuple"
                }
              ],
              "internalType": "struct NahmiiTypesLib.IntendedConjugateSingleTotalInt256",
              "name": "transfers",
              "type": "tuple"
            },
            {
              "components": [
                {
                  "internalType": "bytes32",
                  "name": "hash",
                  "type": "bytes32"
                },
                {
                  "components": [
                    {
                      "internalType": "bytes32",
                      "name": "r",
                      "type": "bytes32"
                    },
                    {
                      "internalType": "bytes32",
                      "name": "s",
                      "type": "bytes32"
                    },
                    {
                      "internalType": "uint8",
                      "name": "v",
                      "type": "uint8"
                    }
                  ],
                  "internalType": "struct NahmiiTypesLib.Signature",
                  "name": "signature",
                  "type": "tuple"
                }
              ],
              "internalType": "struct NahmiiTypesLib.Seal",
              "name": "seal",
              "type": "tuple"
            },
            {
              "internalType": "uint256",
              "name": "blockNumber",
              "type": "uint256"
            },
            {
              "internalType": "uint256",
              "name": "operatorId",
              "type": "uint256"
            }
          ],
          "internalType": "struct TradeTypesLib.Trade",
          "name": "trade",
          "type": "tuple"
        },
        {
          "internalType": "string",
          "name": "standard",
          "type": "string"
        }
      ],
      "name": "settleTrade",
      "outputs": [],
      "payable": false,
      "stateMutability": "nonpayable",
      "type": "function"
    },
    {
      "constant": false,
      "inputs": [
        {
          "internalType": "address",
          "name": "wallet",
          "type": "address"
        },
        {
          "components": [
            {
              "internalType": "uint256",
              "name": "nonce",
              "type": "uint256"
            },
            {
              "internalType": "int256",
              "name": "amount",
              "type": "int256"
            },
            {
              "components": [
                {
                  "components": [
                    {
                      "internalType": "address",
                      "name": "ct",
                      "type": "address"
                    },
                    {
                      "internalType": "uint256",
                      "name": "id",
                      "type": "uint256"
                    }
                  ],
                  "internalType": "struct MonetaryTypesLib.Currency",
                  "name": "intended",
                  "type": "tuple"
                },
                {
                  "components": [
                    {
                      "internalType": "address",
                      "name": "ct",
                      "type": "address"
                    },
                    {
                      "internalType": "uint256",
                      "name": "id",
                      "type": "uint256"
                    }
                  ],
                  "internalType": "struct MonetaryTypesLib.Currency",
                  "name": "conjugate",
                  "type": "tuple"
                }
              ],
              "internalType": "struct NahmiiTypesLib.IntendedConjugateCurrency",
              "name": "currencies",
              "type": "tuple"
            },
            {
              "internalType": "int256",
              "name": "rate",
              "type": "int256"
            },
            {
              "components": [
                {
                  "internalType": "uint256",
                  "name": "nonce",
                  "type": "uint256"
                },
                {
                  "internalType": "address",
                  "name": "wallet",
                  "type": "address"
                },
                {
                  "internalType": "uint256",
                  "name": "rollingVolume",
                  "type": "uint256"
                },
                {
                  "internalType": "enum TradeTypesLib.LiquidityRole",
                  "name": "liquidityRole",
                  "type": "uint8"
                },
                {
                  "components": [
                    {
                      "internalType": "int256",
                      "name": "amount",
                      "type": "int256"
                    },
                    {
                      "components": [
                        {
                          "internalType": "bytes32",
                          "name": "wallet",
                          "type": "bytes32"
                        },
                        {
                          "internalType": "bytes32",
                          "name": "operator",
                          "type": "bytes32"
                        }
                      ],
                      "internalType": "struct NahmiiTypesLib.WalletOperatorHashes",
                      "name": "hashes",
                      "type": "tuple"
                    },
                    {
                      "components": [
                        {
                          "internalType": "int256",
                          "name": "current",
                          "type": "int256"
                        },
                        {
                          "internalType": "int256",
                          "name": "previous",
                          "type": "int256"
                        }
                      ],
                      "internalType": "struct NahmiiTypesLib.CurrentPreviousInt256",
                      "name": "residuals",
                      "type": "tuple"
                    }
                  ],
                  "internalType": "struct TradeTypesLib.TradeOrder",
                  "name": "order",
                  "type": "tuple"
                },
                {
                  "components": [
                    {
                      "components": [
                        {
                          "internalType": "int256",
                          "name": "current",
                          "type": "int256"
                        },
                        {
                          "internalType": "int256",
                          "name": "previous",
                          "type": "int256"
                        }
                      ],
                      "internalType": "struct NahmiiTypesLib.CurrentPreviousInt256",
                      "name": "intended",
                      "type": "tuple"
                    },
                    {
                      "components": [
                        {
                          "internalType": "int256",
                          "name": "current",
                          "type": "int256"
                        },
                        {
                          "internalType": "int256",
                          "name": "previous",
                          "type": "int256"
                        }
                      ],
                      "internalType": "struct NahmiiTypesLib.CurrentPreviousInt256",
                      "name": "conjugate",
                      "type": "tuple"
                    }
                  ],
                  "internalType": "struct NahmiiTypesLib.IntendedConjugateCurrentPreviousInt256",
                  "name": "balances",
                  "type": "tuple"
                },
                {
                  "components": [
                    {
                      "components": [
                        {
                          "internalType": "int256",
                          "name": "amount",
                          "type": "int256"
                        },
                        {
                          "components": [
                            {
                              "internalType": "address",
                              "name": "ct",
                              "type": "address"
                            },
                            {
                              "internalType": "uint256",
                              "name": "id",
                              "type": "uint256"
                            }
                          ],
                          "internalType": "struct MonetaryTypesLib.Currency",
                          "name": "currency",
                          "type": "tuple"
                        }
                      ],
                      "internalType": "struct MonetaryTypesLib.Figure",
                      "name": "single",
                      "type": "tuple"
                    },
                    {
                      "components": [
                        {
                          "internalType": "uint256",
                          "name": "originId",
                          "type": "uint256"
                        },
                        {
                          "components": [
                            {
                              "internalType": "int256",
                              "name": "amount",
                              "type": "int256"
                            },
                            {
                              "components": [
                                {
                                  "internalType": "address",
                                  "name": "ct",
                                  "type": "address"
                                },
                                {
                                  "internalType": "uint256",
                                  "name": "id",
                                  "type": "uint256"
                                }
                              ],
                              "internalType": "struct MonetaryTypesLib.Currency",
                              "name": "currency",
                              "type": "tuple"
                            }
                          ],
                          "internalType": "struct MonetaryTypesLib.Figure",
                          "name": "figure",
                          "type": "tuple"
                        }
                      ],
                      "internalType": "struct NahmiiTypesLib.OriginFigure[]",
                      "name": "total",
                      "type": "tuple[]"
                    }
                  ],
                  "internalType": "struct NahmiiTypesLib.SingleFigureTotalOriginFigures",
                  "name": "fees",
                  "type": "tuple"
                }
              ],
              "internalType": "struct TradeTypesLib.TradeParty",
              "name": "buyer",
              "type": "tuple"
            },
            {
              "components": [
                {
                  "internalType": "uint256",
                  "name": "nonce",
                  "type": "uint256"
                },
                {
                  "internalType": "address",
                  "name": "wallet",
                  "type": "address"
                },
                {
                  "internalType": "uint256",
                  "name": "rollingVolume",
                  "type": "uint256"
                },
                {
                  "internalType": "enum TradeTypesLib.LiquidityRole",
                  "name": "liquidityRole",
                  "type": "uint8"
                },
                {
                  "components": [
                    {
                      "internalType": "int256",
                      "name": "amount",
                      "type": "int256"
                    },
                    {
                      "components": [
                        {
                          "internalType": "bytes32",
                          "name": "wallet",
                          "type": "bytes32"
                        },
                        {
                          "internalType": "bytes32",
                          "name": "operator",
                          "type": "bytes32"
                        }
                      ],
                      "internalType": "struct NahmiiTypesLib.WalletOperatorHashes",
                      "name": "hashes",
                      "type": "tuple"
                    },
                    {
                      "components": [
                        {
                          "internalType": "int256",
                          "name": "current",
                          "type": "int256"
                        },
                        {
                          "internalType": "int256",
                          "name": "previous",
                          "type": "int256"
                        }
                      ],
                      "internalType": "struct NahmiiTypesLib.CurrentPreviousInt256",
                      "name": "residuals",
                      "type": "tuple"
                    }
                  ],
                  "internalType": "struct TradeTypesLib.TradeOrder",
                  "name": "order",
                  "type": "tuple"
                },
                {
                  "components": [
                    {
                      "components": [
                        {
                          "internalType": "int256",
                          "name": "current",
                          "type": "int256"
                        },
                        {
                          "internalType": "int256",
                          "name": "previous",
                          "type": "int256"
                        }
                      ],
                      "internalType": "struct NahmiiTypesLib.CurrentPreviousInt256",
                      "name": "intended",
                      "type": "tuple"
                    },
                    {
                      "components": [
                        {
                          "internalType": "int256",
                          "name": "current",
                          "type": "int256"
                        },
                        {
                          "internalType": "int256",
                          "name": "previous",
                          "type": "int256"
                        }
                      ],
                      "internalType": "struct NahmiiTypesLib.CurrentPreviousInt256",
                      "name": "conjugate",
                      "type": "tuple"
                    }
                  ],
                  "internalType": "struct NahmiiTypesLib.IntendedConjugateCurrentPreviousInt256",
                  "name": "balances",
                  "type": "tuple"
                },
                {
                  "components": [
                    {
                      "components": [
                        {
                          "internalType": "int256",
                          "name": "amount",
                          "type": "int256"
                        },
                        {
                          "components": [
                            {
                              "internalType": "address",
                              "name": "ct",
                              "type": "address"
                            },
                            {
                              "internalType": "uint256",
                              "name": "id",
                              "type": "uint256"
                            }
                          ],
                          "internalType": "struct MonetaryTypesLib.Currency",
                          "name": "currency",
                          "type": "tuple"
                        }
                      ],
                      "internalType": "struct MonetaryTypesLib.Figure",
                      "name": "single",
                      "type": "tuple"
                    },
                    {
                      "components": [
                        {
                          "internalType": "uint256",
                          "name": "originId",
                          "type": "uint256"
                        },
                        {
                          "components": [
                            {
                              "internalType": "int256",
                              "name": "amount",
                              "type": "int256"
                            },
                            {
                              "components": [
                                {
                                  "internalType": "address",
                                  "name": "ct",
                                  "type": "address"
                                },
                                {
                                  "internalType": "uint256",
                                  "name": "id",
                                  "type": "uint256"
                                }
                              ],
                              "internalType": "struct MonetaryTypesLib.Currency",
                              "name": "currency",
                              "type": "tuple"
                            }
                          ],
                          "internalType": "struct MonetaryTypesLib.Figure",
                          "name": "figure",
                          "type": "tuple"
                        }
                      ],
                      "internalType": "struct NahmiiTypesLib.OriginFigure[]",
                      "name": "total",
                      "type": "tuple[]"
                    }
                  ],
                  "internalType": "struct NahmiiTypesLib.SingleFigureTotalOriginFigures",
                  "name": "fees",
                  "type": "tuple"
                }
              ],
              "internalType": "struct TradeTypesLib.TradeParty",
              "name": "seller",
              "type": "tuple"
            },
            {
              "components": [
                {
                  "components": [
                    {
                      "internalType": "int256",
                      "name": "single",
                      "type": "int256"
                    },
                    {
                      "internalType": "int256",
                      "name": "total",
                      "type": "int256"
                    }
                  ],
                  "internalType": "struct NahmiiTypesLib.SingleTotalInt256",
                  "name": "intended",
                  "type": "tuple"
                },
                {
                  "components": [
                    {
                      "internalType": "int256",
                      "name": "single",
                      "type": "int256"
                    },
                    {
                      "internalType": "int256",
                      "name": "total",
                      "type": "int256"
                    }
                  ],
                  "internalType": "struct NahmiiTypesLib.SingleTotalInt256",
                  "name": "conjugate",
                  "type": "tuple"
                }
              ],
              "internalType": "struct NahmiiTypesLib.IntendedConjugateSingleTotalInt256",
              "name": "transfers",
              "type": "tuple"
            },
            {
              "components": [
                {
                  "internalType": "bytes32",
                  "name": "hash",
                  "type": "bytes32"
                },
                {
                  "components": [
                    {
                      "internalType": "bytes32",
                      "name": "r",
                      "type": "bytes32"
                    },
                    {
                      "internalType": "bytes32",
                      "name": "s",
                      "type": "bytes32"
                    },
                    {
                      "internalType": "uint8",
                      "name": "v",
                      "type": "uint8"
                    }
                  ],
                  "internalType": "struct NahmiiTypesLib.Signature",
                  "name": "signature",
                  "type": "tuple"
                }
              ],
              "internalType": "struct NahmiiTypesLib.Seal",
              "name": "seal",
              "type": "tuple"
            },
            {
              "internalType": "uint256",
              "name": "blockNumber",
              "type": "uint256"
            },
            {
              "internalType": "uint256",
              "name": "operatorId",
              "type": "uint256"
            }
          ],
          "internalType": "struct TradeTypesLib.Trade",
          "name": "trade",
          "type": "tuple"
        },
        {
          "internalType": "string",
          "name": "standard",
          "type": "string"
        }
      ],
      "name": "settleTradeByProxy",
      "outputs": [],
      "payable": false,
      "stateMutability": "nonpayable",
      "type": "function"
    }
  ],
  "bytecode": "0x60806040523480156200001157600080fd5b5060405162004766380380620047668339810160408190526200003491620000b3565b80806001600160a01b0381166200004a57600080fd5b6001600160a01b0381163014156200006157600080fd5b5060008054610100600160a81b0319166101006001600160a01b0393909316928302179055600180546001600160a01b03191690911790555062000108565b8051620000ad81620000ee565b92915050565b600060208284031215620000c657600080fd5b6000620000d48484620000a0565b949350505050565b60006001600160a01b038216620000ad565b620000f981620000dc565b81146200010557600080fd5b50565b61464e80620001186000396000f3fe608060405234801561001057600080fd5b50600436106101c25760003560e01c806301370d06146101c75780631327d3d8146101dc578063240625d8146101ef57806325c844411461020d5780632738a112146102225780632aa1c9d91461022a5780632f013a001461023d5780633a5381b5146102455780633bd7857f1461024d578063404e896f146102555780634476d23b1461026857806351d7cd611461027d578063570ca735146102855780635dc60def1461028d578063627f09c314610295578063670732a7146102a85780636c70bee9146102b057806370327ea1146102b8578063892860b2146102c05780638c6913bc146102d35780638dad5805146102e85780638e9d6cbd146102fb57806395ff296d14610303578063962147351461030b578063ad2f42701461031e578063b3ab15fb14610331578063b71ded2f14610344578063bf24e7d014610357578063c0ffe1b41461035f578063d2f089361461037f578063d5f3948814610392578063e71dcc311461039a578063e754476f146103ad578063e86ab8f6146103b5578063e8ae41e3146103c8578063f152dd38146103d0578063f1aa7734146103e3578063f345fb44146103eb575b600080fd5b6101da6101d53660046131ed565b6103fe565b005b6101da6101ea3660046131ed565b61049f565b6101f7610530565b604051610204919061428c565b60405180910390f35b610215610540565b60405161020491906142a8565b6101da61054f565b6101da6102383660046131ed565b6105b5565b6101f761063c565b610215610645565b610215610654565b6101da6102633660046131ed565b610663565b6102706106dd565b6040516102049190613f03565b6102156106f1565b610270610700565b6101da61070f565b6101da6102a33660046131ed565b61075e565b6101da6107ef565b61021561083e565b6101da61084d565b6101da6102ce3660046131ed565b6108b0565b6102db610974565b604051610204919061429a565b6101da6102f63660046130fc565b6109f6565b6101f7610a47565b610215610a57565b6101da6103193660046130d6565b610a66565b6101da61032c3660046132af565b610b1c565b6101da61033f3660046130d6565b610b66565b6101da6103523660046131ed565b610c09565b610215610c9a565b61037261036d366004613177565b610ca9565b6040516102049190614465565b61037261038d366004613177565b610d40565b610270610d7a565b6101da6103a83660046131ed565b610d8e565b610215610e08565b6101da6103c33660046131ed565b610e17565b610215610ed2565b6101da6103de3660046131ed565b610ee1565b610215610f5b565b6102db6103f93660046130d6565b610f6a565b610406610ff3565b61040f57600080fd5b806001600160a01b03811661042357600080fd5b60065482906001600160a01b03908116908216811461049957600680546001600160a01b038681166001600160a01b03198316179092556040519116907f07998fa7be97abe2427246ae4688298c89d6196bbffdf0997b9495a8d27bc6739061048f90839088906142b6565b60405180910390a1505b50505050565b6104a7610ff3565b6104b057600080fd5b806001600160a01b0381166104c457600080fd5b60035482906001600160a01b03908116908216811461049957600380546001600160a01b038681166001600160a01b03198316179092556040519116907f1882af944a16549c3d4f60e3cd26f158b0c7aac3222cf32971fc21375ce05f609061048f90839088906142b6565b600754600160a01b900460ff1681565b6009546001600160a01b031681565b336105586106dd565b6001600160a01b03161461056b57600080fd5b60005460ff161561057b57600080fd5b7f787a5d936e74f4b564b9153575886059829c78cd9927b1be5e0d976b317ef736336040516105aa9190613f11565b60405180910390a133ff5b6105bd610ff3565b6105c657600080fd5b806001600160a01b0381166105da57600080fd5b600880546001600160a01b038481166001600160a01b031983161792839055604051918116927f4f7125332801996cdeaabf9cff1ac89ddf4b52c673558936affe853ab64a88da9261062f92859216906142b6565b60405180910390a1505050565b60005460ff1681565b6003546001600160a01b031681565b6006546001600160a01b031681565b61066b610ff3565b61067457600080fd5b806001600160a01b03811661068857600080fd5b600980546001600160a01b038481166001600160a01b031983161792839055604051918116927f6d4735156f5fb1047cfcd4a9edf19e3291aec19d53916f8fee650ca3c2d739109261062f92859216906142b6565b60005461010090046001600160a01b031690565b6008546001600160a01b031681565b6001546001600160a01b031681565b610717610ff3565b61072057600080fd5b6007805460ff60a01b1916600160a01b1790556040517f56ec8900b9c4bf84f4b715a53068ca06961dd49084c07b481931e2c2045346e690600090a1565b610766610ff3565b61076f57600080fd5b806001600160a01b03811661078357600080fd5b60025482906001600160a01b03908116908216811461049957600280546001600160a01b038681166001600160a01b03198316179092556040519116907f634f61bf00e14adedce330c80c2823e16e184f189ebe853e1ddecc4a268477ff9061048f90839088906142b6565b6107f7610ff3565b61080057600080fd5b6005805460ff60a01b1916600160a01b1790556040517fc1668d45f18667fb6eadfbcacfd5cdcc7dd4ecdfc9b0ab8786cfdbad86bb83d890600090a1565b6002546001600160a01b031681565b336108566106dd565b6001600160a01b03161461086957600080fd5b6000805460ff191660011790556040517fd5a2a04a775c741c2ca0dc46ea7ce4835190e1aaf1ca018def0e82568ec33616906108a6903390613f11565b60405180910390a1565b6108b8610ff3565b6108c157600080fd5b806001600160a01b0381166108d557600080fd5b60075482906001600160a01b03908116908216811461049957600754600160a01b900460ff16156109215760405162461bcd60e51b815260040161091890614455565b60405180910390fd5b600780546001600160a01b038681166001600160a01b03198316179092556040519116907fa44d361e26327b72a7ccbeae801b3c5cd7677ea4fa74168b289e273c46bfecfc9061048f90839088906142b6565b6009546040805163231a44ef60e21b815290516000926001600160a01b031691638c6913bc916004808301926020929190829003018186803b1580156109b957600080fd5b505afa1580156109cd573d6000803e3d6000fd5b505050506040513d601f19601f820116820180604052506109f191908101906131cf565b905090565b6109fe611009565b610a0757600080fd5b610a1283838361101a565b7f88d6cb1db9a0572afce08182d0908fcdefd7643c7ba61fc43c542ff725d7bb283384848460405161062f9493929190613f1f565b600554600160a01b900460ff1681565b600a546001600160a01b031681565b610a6e610ff3565b610a7757600080fd5b806001600160a01b038116610a8b57600080fd5b6001600160a01b038116301415610aa157600080fd5b6000546001600160a01b038381166101009092041614610b1857600080546001600160a01b03848116610100908102610100600160a81b03198416179093556040519290910416907f977e5fa58e458501775e0008d275006294c5249e3c08d1d0e3a9f3acad14f6e49061062f9083908690613f9e565b5050565b610b2733838361101a565b7fafad61a574cc15e5f25f2f29d946545913e5d72b920e6425f80fc7a17e82376d338383604051610b5a93929190613f6a565b60405180910390a15050565b610b6e611009565b610b7757600080fd5b806001600160a01b038116610b8b57600080fd5b6001600160a01b038116301415610ba157600080fd5b6001546001600160a01b03838116911614610b1857600180546001600160a01b038481166001600160a01b03198316179092556040519116907f9f611b789425d0d5b90b920f1b2852907dd865c80074a30b1629aaa041d1812c9061062f9083908690613f9e565b610c11610ff3565b610c1a57600080fd5b806001600160a01b038116610c2e57600080fd5b60045482906001600160a01b03908116908216811461049957600480546001600160a01b038681166001600160a01b03198316179092556040519116907f4d96d2a04c886b313bd1e28be6324ed4c8867b3203e512756722f8be0195e16d9061048f90839088906142b6565b6005546001600160a01b031681565b610cb1612879565b60095460405163303ff86d60e21b81526001600160a01b039091169063c0ffe1b490610ce390869086906004016141ec565b60006040518083038186803b158015610cfb57600080fd5b505afa158015610d0f573d6000803e3d6000fd5b505050506040513d6000823e601f3d908101601f19168201604052610d37919081019061327b565b90505b92915050565b610d48612879565b600954604051636978449b60e11b81526001600160a01b039091169063d2f0893690610ce390869086906004016141ec565b60005461010090046001600160a01b031681565b610d96610ff3565b610d9f57600080fd5b806001600160a01b038116610db357600080fd5b600b80546001600160a01b038481166001600160a01b031983161792839055604051918116927f8b279c2b23bfeb78b16df477d9aca8834fa453d90eec75f2ab0c825a712c3d179261062f92859216906142b6565b6004546001600160a01b031681565b610e1f610ff3565b610e2857600080fd5b806001600160a01b038116610e3c57600080fd5b60055482906001600160a01b03908116908216811461049957600554600160a01b900460ff1615610e7f5760405162461bcd60e51b8152600401610918906143b5565b600580546001600160a01b038681166001600160a01b03198316179092556040519116907f624c4d4225a45f5bf8a9755adba1ef9be3464a9970b05a371fb6cca0c0caf2049061048f90839088906142b6565b6007546001600160a01b031681565b610ee9610ff3565b610ef257600080fd5b806001600160a01b038116610f0657600080fd5b600a80546001600160a01b038481166001600160a01b031983161792839055604051918116927f0e0d0aee1efbecb32fba4a76ecc4cae4c9ed1c3ea3459ea8460c53ff4cb09bcf9261062f92859216906142b6565b600b546001600160a01b031681565b600954604051633cd17ed160e21b81526000916001600160a01b03169063f345fb4490610f9b908590600401613f03565b60206040518083038186803b158015610fb357600080fd5b505afa158015610fc7573d6000803e3d6000fd5b505050506040513d601f19601f82011682018060405250610feb91908101906131cf565b90505b919050565b60005461010090046001600160a01b0316331490565b6001546001600160a01b0316331490565b600354604051637211c8c760e11b815283916001600160a01b03169063e423918e9061104a908490600401614476565b60206040518083038186803b15801561106257600080fd5b505afa158015611076573d6000803e3d6000fd5b505050506040513d601f19601f8201168201806040525061109a91908101906131b1565b6110b65760405162461bcd60e51b815260040161091890614375565b6003546040516303e149c360e11b8152849186916001600160a01b03909116906307c29386906110ec9085908590600401614487565b60206040518083038186803b15801561110457600080fd5b505afa158015611118573d6000803e3d6000fd5b505050506040513d601f19601f8201168201806040525061113c91908101906131b1565b6111585760405162461bcd60e51b815260040161091890614365565b60065460e0860151516040516352c894d160e11b81526001600160a01b039092169163a59129a29161118c9160040161429a565b60206040518083038186803b1580156111a457600080fd5b505afa1580156111b8573d6000803e3d6000fd5b505050506040513d601f19601f820116820180604052506111dc91908101906131b1565b156111f95760405162461bcd60e51b8152600401610918906143f5565b600554604051639243c9db60e01b81526001600160a01b0390911690639243c9db90611229908990600401613f03565b60206040518083038186803b15801561124157600080fd5b505afa158015611255573d6000803e3d6000fd5b505050506040513d601f19601f8201168201806040525061127991908101906131b1565b156112965760405162461bcd60e51b815260040161091890614335565b600754604051631293efbb60e21b81526001600160a01b0390911690634a4fbeec906112c6908990600401613f03565b60206040518083038186803b1580156112de57600080fd5b505afa1580156112f2573d6000803e3d6000fd5b505050506040513d601f19601f8201168201806040525061131691908101906131b1565b156113335760405162461bcd60e51b815260040161091890614325565b60085460408087015151905163da473c5760e01b81526001600160a01b039092169163da473c579161136a918a9190600401614181565b60206040518083038186803b15801561138257600080fd5b505afa158015611396573d6000803e3d6000fd5b505050506040513d601f19601f820116820180604052506113ba91908101906131cf565b60e086015151146113dd5760405162461bcd60e51b8152600401610918906143a5565b60085460408087015160200151905163da473c5760e01b81526001600160a01b039092169163da473c5791611417918a9190600401614181565b60206040518083038186803b15801561142f57600080fd5b505afa158015611443573d6000803e3d6000fd5b505050506040513d601f19601f8201168201806040525061146791908101906131cf565b60e0860151511461148a5760405162461bcd60e51b815260040161091890614355565b60006114946128ab565b61149e8789612369565b60085481516040808c0151519051636543ade160e01b81529496509294506001600160a01b0390911692636543ade1926114df928d92909190600401614264565b60206040518083038186803b1580156114f757600080fd5b505afa15801561150b573d6000803e3d6000fd5b505050506040513d601f19601f8201168201806040525061152f91908101906131b1565b61154b5760405162461bcd60e51b815260040161091890614385565b60085481516040808a0151602001519051636543ade160e01b81526001600160a01b0390931692636543ade192611586928d92600401614264565b60206040518083038186803b15801561159e57600080fd5b505afa1580156115b2573d6000803e3d6000fd5b505050506040513d601f19601f820116820180604052506115d691908101906131b1565b6115f25760405162461bcd60e51b815260040161091890614445565b600854604080890151519051637ff81c3760e01b81526001600160a01b0390921691637ff81c3791611629918c9190600401614181565b60206040518083038186803b15801561164157600080fd5b505afa158015611655573d6000803e3d6000fd5b505050506040513d601f19601f8201168201806040525061167991908101906131b1565b156116965760405162461bcd60e51b8152600401610918906143e5565b600854604080890151602001519051637ff81c3760e01b81526001600160a01b0390921691637ff81c37916116d0918c9190600401614181565b60206040518083038186803b1580156116e857600080fd5b505afa1580156116fc573d6000803e3d6000fd5b505050506040513d601f19601f8201168201806040525061172091908101906131b1565b1561173d5760405162461bcd60e51b815260040161091890614395565b600854604080890151519051635482c73560e01b81526001600160a01b0390921691635482c73591611774918c9190600401614181565b60206040518083038186803b15801561178c57600080fd5b505afa1580156117a0573d6000803e3d6000fd5b505050506040513d601f19601f820116820180604052506117c491908101906131b1565b6117e05760405162461bcd60e51b8152600401610918906143c5565b600854604080890151602001519051635482c73560e01b81526001600160a01b0390921691635482c7359161181a918c9190600401614181565b60206040518083038186803b15801561183257600080fd5b505afa158015611846573d6000803e3d6000fd5b505050506040513d601f19601f8201168201806040525061186a91908101906131b1565b6118865760405162461bcd60e51b815260040161091890614425565b60085460408089015151905163b6e2fc3360e01b81526001600160a01b039092169163b6e2fc33916118bd918c9190600401614181565b60206040518083038186803b1580156118d557600080fd5b505afa1580156118e9573d6000803e3d6000fd5b505050506040513d601f19601f8201168201806040525061190d919081019061320b565b600181111561191857fe5b156119355760405162461bcd60e51b8152600401610918906143d5565b60085460408089015160200151905163b6e2fc3360e01b81526001600160a01b039092169163b6e2fc339161196f918c9190600401614181565b60206040518083038186803b15801561198757600080fd5b505afa15801561199b573d6000803e3d6000fd5b505050506040513d601f19601f820116820180604052506119bf919081019061320b565b60018111156119ca57fe5b156119e75760405162461bcd60e51b815260040161091890614415565b600260009054906101000a90046001600160a01b03166001600160a01b031663f71e860f6040518163ffffffff1660e01b815260040160206040518083038186803b158015611a3557600080fd5b505afa158015611a49573d6000803e3d6000fd5b505050506040513d601f19601f82011682018060405250611a6d91908101906131b1565b611a895760405162461bcd60e51b815260040161091890614345565b600560009054906101000a90046001600160a01b03166001600160a01b031663994e20766040518163ffffffff1660e01b815260040160206040518083038186803b158015611ad757600080fd5b505afa158015611aeb573d6000803e3d6000fd5b505050506040513d601f19601f82011682018060405250611b0f91908101906131b1565b611b2b5760405162461bcd60e51b815260040161091890614405565b600960009054906101000a90046001600160a01b03166001600160a01b0316638772531373__TradeTypesLib_________________________6332575cb66040518163ffffffff1660e01b815260040160006040518083038186803b158015611b9357600080fd5b505af4158015611ba7573d6000803e3d6000fd5b505050506040513d6000823e601f3d908101601f19168201604052611bcf9190810190613229565b60e08a8101515160a08c0151602080820151915160808f01519182015191516040519588901b6001600160e01b0319168652611c1196959192916004016142d1565b600060405180830381600087803b158015611c2b57600080fd5b505af1158015611c3f573d6000803e3d6000fd5b505060095483516040516309f0ac8560e41b81526001600160a01b039092169350639f0ac8509250611c78918c91908790600401614207565b60206040518083038186803b158015611c9057600080fd5b505afa158015611ca4573d6000803e3d6000fd5b505050506040513d601f19601f82011682018060405250611cc891908101906131b1565b15611ce55760405162461bcd60e51b815260040161091890614435565b600954815160405163f8eabcc160e01b81526001600160a01b039092169163f8eabcc191611d1d918c9190879060019060040161422f565b600060405180830381600087803b158015611d3757600080fd5b505af1158015611d4b573d6000803e3d6000fd5b505082516009546040808c0151519051633858654b60e01b81529294506001600160a01b039091169250633858654b91611d89918d91600401614181565b60206040518083038186803b158015611da157600080fd5b505afa158015611db5573d6000803e3d6000fd5b505050506040513d601f19601f82011682018060405250611dd991908101906131cf565b1015611fc6576009546040808901515183519151630284774760e31b81526001600160a01b0390931692631423ba3892611e1a928d929091906004016141c4565b600060405180830381600087803b158015611e3457600080fd5b505af1158015611e48573d6000803e3d6000fd5b50506004805460a085015151516040808d0151518051602090910151915163325d23a960e11b81526001600160a01b0390941696506364ba47529550611e97948f949192918e914391016140e9565b600060405180830381600087803b158015611eb157600080fd5b505af1158015611ec5573d6000803e3d6000fd5b5050600480546008546040808d0151519051633007230f60e11b81526001600160a01b03938416965063ad468df995508e94929093169263600e461e92611f10928692909101614181565b60206040518083038186803b158015611f2857600080fd5b505afa158015611f3c573d6000803e3d6000fd5b505050506040513d601f19601f82011682018060405250611f6091908101906131cf565b6040808c015151805160209091015191516001600160e01b031960e087901b168152611f93949392908d90600401614097565b600060405180830381600087803b158015611fad57600080fd5b505af1158015611fc1573d6000803e3d6000fd5b505050505b80516009546040808a0151602001519051633858654b60e01b81526001600160a01b0390921691633858654b91612002918d9190600401614181565b60206040518083038186803b15801561201a57600080fd5b505afa15801561202e573d6000803e3d6000fd5b505050506040513d601f19601f8201168201806040525061205291908101906131cf565b101561224b576009546040808901516020015183519151630284774760e31b81526001600160a01b0390931692631423ba3892612096928d929091906004016141c4565b600060405180830381600087803b1580156120b057600080fd5b505af11580156120c4573d6000803e3d6000fd5b50506004805460a0850151602090810151516040808e01518301518051930151905163325d23a960e11b81526001600160a01b0390941696506364ba47529550612117948f949293928e914391016140e9565b600060405180830381600087803b15801561213157600080fd5b505af1158015612145573d6000803e3d6000fd5b5050600480546008546040808d0151602001519051633007230f60e11b81526001600160a01b03938416965063ad468df995508e94929093169263600e461e92612193928692909101614181565b60206040518083038186803b1580156121ab57600080fd5b505afa1580156121bf573d6000803e3d6000fd5b505050506040513d601f19601f820116820180604052506121e391908101906131cf565b6040808c0151602090810151805191015191516001600160e01b031960e087901b168152612218949392908d90600401614097565b600060405180830381600087803b15801561223257600080fd5b505af1158015612246573d6000803e3d6000fd5b505050505b600a546001600160a01b0316156122845760c081015160200151600a548251612284928b9290916001600160a01b03909116908a61241b565b60085460408089015151905163524ad18360e11b81526001600160a01b039092169163a495a306916122be918c919060009060040161419c565b600060405180830381600087803b1580156122d857600080fd5b505af11580156122ec573d6000803e3d6000fd5b50506008546040808b015160200151905163524ad18360e11b81526001600160a01b03909216935063a495a306925061232d918c919060009060040161419c565b600060405180830381600087803b15801561234757600080fd5b505af115801561235b573d6000803e3d6000fd5b505050505050505050505050565b60006123736128ab565b60035460405163d752a33760e01b81526001600160a01b039091169063d752a337906123a59087908790600401614487565b60206040518083038186803b1580156123bd57600080fd5b505afa1580156123d1573d6000803e3d6000fd5b505050506040513d601f19601f820116820180604052506123f591908101906131b1565b1561240957505060a0820151600090612414565b505060808201516001905b9250929050565b60005b84518110156128375760008086838151811061243657fe5b60200260200101516000015160001461247757600b5487516001600160a01b039091169088908590811061246657fe5b60209081029190910101515161247b565b8560005b9150915084600960009054906101000a90046001600160a01b03166001600160a01b0316636e17226a8a85858c89815181106124b357fe5b602002602001015160200151602001516040518563ffffffff1660e01b81526004016124e29493929190613fc0565b604080518083038186803b1580156124f957600080fd5b505afa15801561250d573d6000803e3d6000fd5b505050506040513d601f19601f82011682018060405250612531919081019061325d565b51101561282d57600061261c600960009054906101000a90046001600160a01b03166001600160a01b0316636e17226a8b86868d8a8151811061257057fe5b602002602001015160200151602001516040518563ffffffff1660e01b815260040161259f9493929190613fc0565b604080518083038186803b1580156125b657600080fd5b505afa1580156125ca573d6000803e3d6000fd5b505050506040513d601f19601f820116820180604052506125ee919081019061325d565b602001518986815181106125fe57fe5b6020026020010151602001516000015161283f90919063ffffffff16565b60095489519192506001600160a01b031690637657768c908b90869086908d908a90811061264657fe5b6020026020010151602001516020015160405180604001604052808d81526020018f8c8151811061267357fe5b602002602001015160200151600001518152506040518663ffffffff1660e01b81526004016126a6959493929190613ff5565b600060405180830381600087803b1580156126c057600080fd5b505af11580156126d4573d6000803e3d6000fd5b50505050600460009054906101000a90046001600160a01b03166001600160a01b031663158a03428385848c898151811061270b57fe5b60200260200101516020015160200151600001518d8a8151811061272b57fe5b60200260200101516020015160200151602001518b6040518763ffffffff1660e01b815260040161276196959493929190614037565b600060405180830381600087803b15801561277b57600080fd5b505af115801561278f573d6000803e3d6000fd5b505050507f64fcac3c2b1ccc98d3039b49f7668a97654165a070c78fa3163859e4d5d0978089828a87815181106127c257fe5b602002602001015160200151600001518b88815181106127de57fe5b60200260200101516020015160200151600001518c89815181106127fe57fe5b602002602001015160200151602001516020015160405161282395949392919061413f565b60405180910390a1505b505060010161241e565b505050505050565b600080821215801561285357508282840313155b8061286a575060008212801561286a575082828403135b61287357600080fd5b50900390565b6040805160808101825260608152600060208201529081016128996128f4565b81526020016128a66128f4565b905290565b6040805160e08101825260008082526020820181905291810182905290606082019081526020016128da61291e565b81526020016128e7612945565b81526020016128a6612958565b60405180606001604052806000815260200160006001600160a01b03168152602001600081525090565b604051806060016040528060008152602001612938612978565b81526020016128a661298f565b604051806040016040528061293861298f565b604051806040016040528061296b6129a9565b8152602001606081525090565b604080518082019091526000808252602082015290565b604051806040016040528060008152602001600081525090565b6040518060400160405280600081526020016128a6604080518082019091526000808252602082015290565b8035610d3a816145c6565b8051610d3a816145c6565b600082601f8301126129fc57600080fd5b8135612a0f612a0a826144cd565b6144a7565b91508181835260208401935060208101905083856080840282011115612a3457600080fd5b60005b83811015612a625781612a4a8882612ca0565b84525060209092019160809190910190600101612a37565b5050505092915050565b8051610d3a816145da565b8035610d3a816145e3565b8051610d3a816145e3565b8035610d3a816145ec565b8035610d3a816145f5565b8051610d3a816145f5565b600082601f830112612abf57600080fd5b8151612acd612a0a826144ed565b91508082526020830160208301858383011115612ae957600080fd5b612af4838284614583565b50505092915050565b600082601f830112612b0e57600080fd5b8135612b1c612a0a826144ed565b91508082526020830160208301858383011115612b3857600080fd5b612af4838284614577565b600060408284031215612b5557600080fd5b612b5f60406144a7565b90506000612b6d84846129d5565b8252506020612b7e84848301612a77565b60208301525092915050565b600060408284031215612b9c57600080fd5b612ba660406144a7565b90506000612b6d8484612a77565b600060608284031215612bc657600080fd5b612bd060406144a7565b90506000612bde8484612a77565b8252506020612b7e84848301612b43565b600060808284031215612c0157600080fd5b612c0b60406144a7565b90506000612c198484612b43565b8252506040612b7e84848301612b43565b600060808284031215612c3c57600080fd5b612c4660406144a7565b90506000612c548484612b8a565b8252506040612b7e84848301612b8a565b600060408284031215612c7757600080fd5b612c8160406144a7565b90506000612c8f8484612a82565b8252506020612b7e84848301612a82565b600060808284031215612cb257600080fd5b612cbc60406144a7565b90506000612cca8484612a77565b8252506020612b7e84848301612bb4565b600060808284031215612ced57600080fd5b612cf760406144a7565b90506000612d058484612a77565b8252506020612b7e84848301612df8565b600060608284031215612d2857600080fd5b612d3260606144a7565b90506000612d408484612a82565b8252506020612d51848483016129e0565b6020830152506040612d6584828501612a82565b60408301525092915050565b60006101008284031215612d8457600080fd5b612d8e60806144a7565b82519091506001600160401b03811115612da757600080fd5b612db384828501612aae565b8252506020612dc484848301612a82565b6020830152506040612dd884828501612d16565b60408301525060a0612dec84828501612d16565b60608301525092915050565b600060608284031215612e0a57600080fd5b612e1460606144a7565b90506000612e228484612a77565b8252506020612e3384848301612a77565b6020830152506040612d65848285016130cb565b600060808284031215612e5957600080fd5b612e6360406144a7565b90506000612e718484612bb4565b82525060608201356001600160401b03811115612e8d57600080fd5b612b7e848285016129eb565b600060a08284031215612eab57600080fd5b612eb560606144a7565b90506000612ec38484612a77565b8252506020612ed484848301612b8a565b6020830152506060612d6584828501612b8a565b60006101c08284031215612efb57600080fd5b612f0560e06144a7565b90506000612f138484612a77565b8252506020612f24848483016129d5565b6020830152506040612f3884828501612a77565b6040830152506060612f4c84828501612a98565b6060830152506080612f6084828501612e99565b608083015250610120612f7584828501612c2a565b60a0830152506101a08201356001600160401b03811115612f9557600080fd5b612fa184828501612e47565b60c08301525092915050565b60006102608284031215612fc057600080fd5b612fcb6101406144a7565b90506000612fd98484612a77565b8252506020612fea84848301612a77565b6020830152506040612ffe84828501612bef565b60408301525060c061301284828501612a77565b60608301525060e08201356001600160401b0381111561303157600080fd5b61303d84828501612ee8565b6080830152506101008201356001600160401b0381111561305d57600080fd5b61306984828501612ee8565b60a08301525061012061307e84828501612c2a565b60c0830152506101a061309384828501612cdb565b60e0830152506102206130a884828501612a77565b610100830152506102406130be84828501612a77565b6101208301525092915050565b8035610d3a81614602565b6000602082840312156130e857600080fd5b60006130f484846129d5565b949350505050565b60008060006060848603121561311157600080fd5b600061311d86866129d5565b93505060208401356001600160401b0381111561313957600080fd5b61314586828701612fad565b92505060408401356001600160401b0381111561316157600080fd5b61316d86828701612afd565b9150509250925092565b6000806040838503121561318a57600080fd5b600061319685856129d5565b92505060206131a785828601612a77565b9150509250929050565b6000602082840312156131c357600080fd5b60006130f48484612a6c565b6000602082840312156131e157600080fd5b60006130f48484612a82565b6000602082840312156131ff57600080fd5b60006130f48484612a8d565b60006020828403121561321d57600080fd5b60006130f48484612aa3565b60006020828403121561323b57600080fd5b81516001600160401b0381111561325157600080fd5b6130f484828501612aae565b60006040828403121561326f57600080fd5b60006130f48484612c65565b60006020828403121561328d57600080fd5b81516001600160401b038111156132a357600080fd5b6130f484828501612d71565b600080604083850312156132c257600080fd5b82356001600160401b038111156132d857600080fd5b6132e485828601612fad565b92505060208301356001600160401b0381111561330057600080fd5b6131a785828601612afd565b60006133188383613c19565b505060800190565b61332981614561565b82525050565b61332981614527565b60006133438261451a565b61334d818561451e565b935061335883614514565b8060005b83811015613386578151613370888261330c565b975061337b83614514565b92505060010161335c565b509495945050505050565b61332981614532565b61332981614537565b6133298161453a565b6133298161456c565b60006133c08261451a565b6133ca818561451e565b93506133da818560208601614583565b6133e3816145af565b9093019392505050565b60006133fa60348361451e565b7f57616c6c657420666f756e64206c6f636b6564205b4472696970536574746c658152736d656e74427954726164652e736f6c3a3231305d60601b602082015260400192915050565b6000613450603d8361451e565b7f57616c6c6574206465656d656420646f75626c65207370656e646572205b447281527f696970536574746c656d656e74427954726164652e736f6c3a3230345d000000602082015260400192915050565b60006134af603c8361451e565b7f4e6f74206e6f726d616c206f7065726174696f6e616c206d6f6465205b44726981527b6970536574746c656d656e74427954726164652e736f6c3a3236395d60201b602082015260400192915050565b600061350d604b8361451e565b7f5472616465206e6f74206368616c6c656e67656420696e20636f6e6a7567617481527f652063757272656e6379205b4472696970536574746c656d656e74427954726160208201526a64652e736f6c3a3231375d60a81b604082015260600192915050565b6000613580602d8361451e565b7f57616c6c6574206e6f74207472616465207061727479205b56616c696461746181526c626c6556322e736f6c3a38355d60981b602082015260400192915050565b60006135cf602d8361451e565b7f5472616465207365616c206e6f742067656e75696e65205b56616c696461746181526c626c6556322e736f6c3a37305d60981b602082015260400192915050565b600061361e603b8361451e565b7f4e6f20696e74656e6465642070726f706f73616c20666f756e64205b4472696981527a70536574746c656d656e74427954726164652e736f6c3a3232395d60281b602082015260400192915050565b600061367b60448361451e565b7f436f6e6a75676174652070726f706f73616c20666f756e64207465726d696e6181527f746564205b4472696970536574746c656d656e74427954726164652e736f6c3a6020820152633234335d60e01b604082015260600192915050565b60006136e7604a8361451e565b7f5472616465206e6f74206368616c6c656e67656420696e20696e74656e64656481527f2063757272656e6379205b4472696970536574746c656d656e74427954726164602082015269652e736f6c3a3231335d60b01b604082015260600192915050565b6000613759602f8361451e565b7f436f6d6d756e69747920766f74652066726f7a656e205b436f6d6d756e69747981526e566f7461626c652e736f6c3a34315d60881b602082015260400192915050565b60006137aa60448361451e565b7f496e74656e6465642070726f706f73616c20666f756e64206e6f74206578706981527f726564205b4472696970536574746c656d656e74427954726164652e736f6c3a6020820152633234395d60e01b604082015260600192915050565b600061381660468361451e565b7f496e74656e6465642070726f706f73616c20666f756e64206e6f74207175616c81527f6966696564205b4472696970536574746c656d656e74427954726164652e736f6020820152656c3a3235395d60d01b604082015260600192915050565b600061388460438361451e565b7f496e74656e6465642070726f706f73616c20666f756e64207465726d696e617481527f6564205b4472696970536574746c656d656e74427954726164652e736f6c3a3260208201526233395d60e81b604082015260600192915050565b60006138ef60388361451e565b7f5472616465206465656d6564206672617564756c656e74205b4472696970536581527774746c656d656e74427954726164652e736f6c3a3230305d60401b602082015260400192915050565b600061394960338361451e565b7f44617461206e6f7420617661696c61626c65205b4472696970536574746c656d815272656e74427954726164652e736f6c3a3237305d60681b602082015260400192915050565b600061399e60478361451e565b7f436f6e6a75676174652070726f706f73616c20666f756e64206e6f742071756181527f6c6966696564205b4472696970536574746c656d656e74427954726164652e736020820152666f6c3a3236335d60c81b604082015260600192915050565b6000613a0d60458361451e565b7f436f6e6a75676174652070726f706f73616c20666f756e64206e6f742065787081527f69726564205b4472696970536574746c656d656e74427954726164652e736f6c6020820152643a3235335d60d81b604082015260600192915050565b6000613a7a603e8361451e565b7f536574746c656d656e7420706172747920616c726561647920646f6e65205b4481527f72696970536574746c656d656e74427954726164652e736f6c3a3238305d0000602082015260400192915050565b6000613ad9603c8361451e565b7f4e6f20636f6e6a75676174652070726f706f73616c20666f756e64205b44726981527b6970536574746c656d656e74427954726164652e736f6c3a3233335d60201b602082015260400192915050565b6000613b37602c8361451e565b7f57616c6c6574206c6f636b65722066726f7a656e205b57616c6c65744c6f636b81526b61626c652e736f6c3a34335d60a01b602082015260400192915050565b80516040830190613b89848261332f565b506020820151610499602085018261339a565b80516040830190613b89848261339a565b80516060830190613bbe848261339a565b5060208201516104996020850182613b78565b80516080830190613be28482613b78565b5060208201516104996040850182613b78565b80516080830190613c068482613b9c565b5060208201516104996040850182613b9c565b80516080830190613c2a848261339a565b5060208201516104996020850182613bad565b80516080830190613c4e848261339a565b5060208201516104996020850182613cf4565b80516060830190613c72848261339a565b506020820151613c85602085018261332f565b506040820151610499604085018261339a565b805161010080845260009190840190613cb182826133b5565b9150506020830151613cc6602086018261339a565b506040830151613cd96040860182613c61565b506060830151613cec60a0860182613c61565b509392505050565b80516060830190613d05848261339a565b506020820151613d18602085018261339a565b5060408201516104996040850182613efa565b80516000906080840190613d3f8582613bad565b5060208301518482036060860152613d578282613338565b95945050505050565b805160a0830190613d71848261339a565b506020820151613d846020850182613b9c565b5060408201516104996060850182613b9c565b80516000906101c0840190613dac858261339a565b506020830151613dbf602086018261332f565b506040830151613dd2604086018261339a565b506060830151613de560608601826133ac565b506080830151613df86080860182613d60565b5060a0830151613e0c610120860182613bf5565b5060c08301518482036101a0860152613d578282613d2b565b8051600090610260840190613e3a858261339a565b506020830151613e4d602086018261339a565b506040830151613e606040860182613bd1565b506060830151613e7360c086018261339a565b50608083015184820360e0860152613e8b8282613d97565b91505060a0830151848203610100860152613ea68282613d97565b91505060c0830151613ebc610120860182613bf5565b5060e0830151613ed06101a0860182613c3d565b50610100830151613ee561022086018261339a565b50610120830151613cec61024086018261339a565b6133298161455b565b60208101610d3a828461332f565b60208101610d3a8284613320565b60808101613f2d8287613320565b613f3a602083018661332f565b8181036040830152613f4c8185613e25565b90508181036060830152613f6081846133b5565b9695505050505050565b60608101613f788286613320565b8181036020830152613f8a8185613e25565b90508181036040830152613d5781846133b5565b60408101613fac828561332f565b613fb9602083018461332f565b9392505050565b60a08101613fce828761332f565b613fdb60208301866133a3565b613fe8604083018561332f565b613d576060830184613b78565b60e08101614003828861332f565b61401060208301876133a3565b61401d604083018661332f565b61402a6060830185613b78565b613f6060a0830184613b9c565b60c08101614045828961332f565b61405260208301886133a3565b61405f604083018761339a565b61406c606083018661332f565b614079608083018561339a565b81810360a083015261408b81846133b5565b98975050505050505050565b60a081016140a5828861332f565b6140b2602083018761339a565b6140bf604083018661332f565b6140cc606083018561339a565b81810360808301526140de81846133b5565b979650505050505050565b60c081016140f7828961332f565b614104602083018861339a565b614111604083018761332f565b61411e606083018661339a565b818103608083015261413081856133b5565b90506140de60a083018461339a565b60a0810161414d828861332f565b61415a602083018761339a565b614167604083018661339a565b614174606083018561332f565b613f60608083018461339a565b6060810161418f828561332f565b613fb96020830184613b78565b608081016141aa828661332f565b6141b76020830185613b78565b6130f46060830184613391565b608081016141d2828661332f565b6141df6020830185613b78565b6130f4606083018461339a565b604081016141fa828561332f565b613fb9602083018461339a565b60608101614215828661332f565b614222602083018561339a565b6130f460408301846133ac565b6080810161423d828761332f565b61424a602083018661339a565b61425760408301856133ac565b613d576060830184613391565b60808101614272828661332f565b61427f602083018561339a565b6130f46040830184613b78565b60208101610d3a8284613391565b60208101610d3a828461339a565b60208101610d3a82846133a3565b604081016142c482856133a3565b613fb960208301846133a3565b60c080825281016142e281896133b5565b90506142f1602083018861339a565b6142fe604083018761332f565b61430b606083018661339a565b614318608083018561332f565b6140de60a083018461339a565b60208082528101610feb816133ed565b60208082528101610feb81613443565b60208082528101610feb816134a2565b60208082528101610feb81613500565b60208082528101610feb81613573565b60208082528101610feb816135c2565b60208082528101610feb81613611565b60208082528101610feb8161366e565b60208082528101610feb816136da565b60208082528101610feb8161374c565b60208082528101610feb8161379d565b60208082528101610feb81613809565b60208082528101610feb81613877565b60208082528101610feb816138e2565b60208082528101610feb8161393c565b60208082528101610feb81613991565b60208082528101610feb81613a00565b60208082528101610feb81613a6d565b60208082528101610feb81613acc565b60208082528101610feb81613b2a565b60208082528101610d378184613c98565b60208082528101610d378184613e25565b604080825281016144988185613e25565b9050613fb9602083018461332f565b6040518181016001600160401b03811182821017156144c557600080fd5b604052919050565b60006001600160401b038211156144e357600080fd5b5060209081020190565b60006001600160401b0382111561450357600080fd5b506020601f91909101601f19160190565b60200190565b5190565b90815260200190565b6000610feb8261454f565b151590565b90565b6000610feb82614527565b80610fee816145b9565b6001600160a01b031690565b60ff1690565b6000610feb8261453a565b6000610feb82614545565b82818337506000910152565b60005b8381101561459e578181015183820152602001614586565b838111156104995750506000910152565b601f01601f191690565b600281106145c357fe5b50565b6145cf81614527565b81146145c357600080fd5b6145cf81614532565b6145cf81614537565b6145cf8161453a565b600281106145c357600080fd5b6145cf8161455b56fea365627a7a72315820a19a29036dee752308459b97774d6368ab5b5f7a7727e9b72a0cc6a26aac17616c6578706572696d656e74616cf564736f6c634300050c0040",
  "source": "/*\n * Hubii Nahmii\n *\n * Compliant with the Hubii Nahmii specification v0.12.\n *\n * Copyright (C) 2017-2018 Hubii AS\n */\n\npragma solidity >=0.4.25 <0.6.0;\npragma experimental ABIEncoderV2;\n\nimport {Ownable} from \"./Ownable.sol\";\nimport {Configurable} from \"./Configurable.sol\";\nimport {ValidatableV2} from \"./ValidatableV2.sol\";\nimport {ClientFundable} from \"./ClientFundable.sol\";\nimport {CommunityVotable} from \"./CommunityVotable.sol\";\nimport {FraudChallengable} from \"./FraudChallengable.sol\";\nimport {WalletLockable} from \"./WalletLockable.sol\";\nimport {RevenueFund} from \"./RevenueFund.sol\";\nimport {PartnerFund} from \"./PartnerFund.sol\";\nimport {DriipSettlementChallengeState} from \"./DriipSettlementChallengeState.sol\";\nimport {DriipSettlementState} from \"./DriipSettlementState.sol\";\nimport {Beneficiary} from \"./Beneficiary.sol\";\nimport {SafeMathIntLib} from \"./SafeMathIntLib.sol\";\nimport {SafeMathUintLib} from \"./SafeMathUintLib.sol\";\nimport {MonetaryTypesLib} from \"./MonetaryTypesLib.sol\";\nimport {NahmiiTypesLib} from \"./NahmiiTypesLib.sol\";\nimport {TradeTypesLib} from \"./TradeTypesLib.sol\";\nimport {DriipSettlementTypesLib} from \"./DriipSettlementTypesLib.sol\";\nimport {SettlementChallengeTypesLib} from \"./SettlementChallengeTypesLib.sol\";\n\n/**\n * @title DriipSettlementByTrade\n * @notice Where driip settlements pertaining to trade are finalized\n */\ncontract DriipSettlementByTrade is Ownable, Configurable, ValidatableV2, ClientFundable, CommunityVotable,\nFraudChallengable, WalletLockable {\n    using SafeMathIntLib for int256;\n    using SafeMathUintLib for uint256;\n\n    //\n    // Variables\n    // -----------------------------------------------------------------------------------------------------------------\n    DriipSettlementChallengeState public driipSettlementChallengeState;\n    DriipSettlementState public driipSettlementState;\n    RevenueFund public revenueFund;\n    PartnerFund public partnerFund;\n\n    //\n    // Events\n    // -----------------------------------------------------------------------------------------------------------------\n    event SettleTradeEvent(address wallet, TradeTypesLib.Trade trade, string standard);\n    event SettleTradeByProxyEvent(address proxy, address wallet, TradeTypesLib.Trade trade, string standard);\n    event SetDriipSettlementChallengeStateEvent(DriipSettlementChallengeState oldDriipSettlementChallengeState,\n        DriipSettlementChallengeState newDriipSettlementChallengeState);\n    event SetDriipSettlementStateEvent(DriipSettlementState oldDriipSettlementState,\n        DriipSettlementState newDriipSettlementState);\n    event SetRevenueFundEvent(RevenueFund oldRevenueFund, RevenueFund newRevenueFund);\n    event SetPartnerFundEvent(PartnerFund oldPartnerFund, PartnerFund newPartnerFund);\n    event StageFeesEvent(address wallet, int256 deltaAmount, int256 cumulativeAmount,\n        address currencyCt, uint256 currencyId);\n\n    //\n    // Constructor\n    // -----------------------------------------------------------------------------------------------------------------\n    constructor(address deployer) Ownable(deployer) public {\n    }\n\n    //\n    // Functions\n    // -----------------------------------------------------------------------------------------------------------------\n    /// @notice Set the driip settlement challenge state contract\n    /// @param newDriipSettlementChallengeState The (address of) DriipSettlementChallengeState contract instance\n    function setDriipSettlementChallengeState(DriipSettlementChallengeState newDriipSettlementChallengeState)\n    public\n    onlyDeployer\n    notNullAddress(address(newDriipSettlementChallengeState))\n    {\n        DriipSettlementChallengeState oldDriipSettlementChallengeState = driipSettlementChallengeState;\n        driipSettlementChallengeState = newDriipSettlementChallengeState;\n        emit SetDriipSettlementChallengeStateEvent(oldDriipSettlementChallengeState, driipSettlementChallengeState);\n    }\n\n    /// @notice Set the driip settlement state contract\n    /// @param newDriipSettlementState The (address of) DriipSettlementState contract instance\n    function setDriipSettlementState(DriipSettlementState newDriipSettlementState)\n    public\n    onlyDeployer\n    notNullAddress(address(newDriipSettlementState))\n    {\n        DriipSettlementState oldDriipSettlementState = driipSettlementState;\n        driipSettlementState = newDriipSettlementState;\n        emit SetDriipSettlementStateEvent(oldDriipSettlementState, driipSettlementState);\n    }\n\n    /// @notice Set the revenue fund contract\n    /// @param newRevenueFund The (address of) RevenueFund contract instance\n    function setRevenueFund(RevenueFund newRevenueFund)\n    public\n    onlyDeployer\n    notNullAddress(address(newRevenueFund))\n    {\n        RevenueFund oldRevenueFund = revenueFund;\n        revenueFund = newRevenueFund;\n        emit SetRevenueFundEvent(oldRevenueFund, revenueFund);\n    }\n\n    /// @notice Set the partner fund contract\n    /// @param newPartnerFund The (address of) partner contract instance\n    function setPartnerFund(PartnerFund newPartnerFund)\n    public\n    onlyDeployer\n    notNullAddress(address(newPartnerFund))\n    {\n        PartnerFund oldPartnerFund = partnerFund;\n        partnerFund = newPartnerFund;\n        emit SetPartnerFundEvent(oldPartnerFund, partnerFund);\n    }\n\n    /// @notice Get the count of settlements\n    function settlementsCount()\n    public\n    view\n    returns (uint256)\n    {\n        return driipSettlementState.settlementsCount();\n    }\n\n    /// @notice Get the count of settlements for given wallet\n    /// @param wallet The address for which to return settlement count\n    /// @return count of settlements for the provided wallet\n    function settlementsCountByWallet(address wallet)\n    public\n    view\n    returns (uint256)\n    {\n        return driipSettlementState.settlementsCountByWallet(wallet);\n    }\n\n    /// @notice Get settlement of given wallet and index\n    /// @param wallet The address for which to return settlement\n    /// @param index The wallet's settlement index\n    /// @return settlement for the provided wallet and index\n    function settlementByWalletAndIndex(address wallet, uint256 index)\n    public\n    view\n    returns (DriipSettlementTypesLib.Settlement memory)\n    {\n        return driipSettlementState.settlementByWalletAndIndex(wallet, index);\n    }\n\n    /// @notice Get settlement of given wallet and wallet nonce\n    /// @param wallet The address for which to return settlement\n    /// @param nonce The wallet's nonce\n    /// @return settlement for the provided wallet and index\n    function settlementByWalletAndNonce(address wallet, uint256 nonce)\n    public\n    view\n    returns (DriipSettlementTypesLib.Settlement memory)\n    {\n        return driipSettlementState.settlementByWalletAndNonce(wallet, nonce);\n    }\n\n    /// @notice Settle driip that is a trade\n    /// @param trade The trade to be settled\n    /// @param standard The standard of the token to be settled (discarded if settling ETH)\n    function settleTrade(TradeTypesLib.Trade memory trade, string memory standard)\n    public\n    {\n        // Settle trade\n        _settleTrade(msg.sender, trade, standard);\n\n        // Emit event\n        emit SettleTradeEvent(msg.sender, trade, standard);\n    }\n\n    /// @notice Settle driip that is a trade\n    /// @param wallet The wallet whose side of the trade is to be settled\n    /// @param trade The trade to be settled\n    /// @param standard The standard of the token to be settled (discarded if settling ETH)\n    function settleTradeByProxy(address wallet, TradeTypesLib.Trade memory trade, string memory standard)\n    public\n    onlyOperator\n    {\n        // Settle trade for wallet\n        _settleTrade(wallet, trade, standard);\n\n        // Emit event\n        emit SettleTradeByProxyEvent(msg.sender, wallet, trade, standard);\n    }\n\n    //\n    // Private functions\n    // -----------------------------------------------------------------------------------------------------------------\n    function _settleTrade(address wallet, TradeTypesLib.Trade memory trade, string memory standard)\n    private\n    onlySealedTrade(trade)\n    onlyTradeParty(trade, wallet)\n    {\n        require(\n            !fraudChallenge.isFraudulentTradeHash(trade.seal.hash),\n            \"Trade deemed fraudulent [DriipSettlementByTrade.sol:200]\"\n        );\n        require(\n            !communityVote.isDoubleSpenderWallet(wallet),\n            \"Wallet deemed double spender [DriipSettlementByTrade.sol:204]\"\n        );\n\n        // Require that wallet is not locked\n        require(!walletLocker.isLocked(wallet), \"Wallet found locked [DriipSettlementByTrade.sol:210]\");\n\n        // Require that the wallet's current driip settlement challenge proposals are defined wrt this trade\n        require(\n            trade.seal.hash == driipSettlementChallengeState.proposalChallengedHash(wallet, trade.currencies.intended),\n            \"Trade not challenged in intended currency [DriipSettlementByTrade.sol:213]\"\n        );\n        require(\n            trade.seal.hash == driipSettlementChallengeState.proposalChallengedHash(wallet, trade.currencies.conjugate),\n            \"Trade not challenged in conjugate currency [DriipSettlementByTrade.sol:217]\"\n        );\n\n        // Extract properties depending on settlement role\n        (\n        DriipSettlementTypesLib.SettlementRole settlementRole,\n        TradeTypesLib.TradeParty memory party\n        ) = _getRoleProperties(trade, wallet);\n\n        // Require that driip settlement challenge proposals have been initiated\n        require(\n            driipSettlementChallengeState.hasProposal(wallet, party.nonce, trade.currencies.intended),\n            \"No intended proposal found [DriipSettlementByTrade.sol:229]\"\n        );\n        require(\n            driipSettlementChallengeState.hasProposal(wallet, party.nonce, trade.currencies.conjugate),\n            \"No conjugate proposal found [DriipSettlementByTrade.sol:233]\"\n        );\n\n        // Require that driip settlement challenge proposal have not been terminated already\n        require(\n            !driipSettlementChallengeState.hasProposalTerminated(wallet, trade.currencies.intended),\n            \"Intended proposal found terminated [DriipSettlementByTrade.sol:239]\"\n        );\n        require(\n            !driipSettlementChallengeState.hasProposalTerminated(wallet, trade.currencies.conjugate),\n            \"Conjugate proposal found terminated [DriipSettlementByTrade.sol:243]\"\n        );\n\n        // Require that driip settlement challenge proposals have expired\n        require(\n            driipSettlementChallengeState.hasProposalExpired(wallet, trade.currencies.intended),\n            \"Intended proposal found not expired [DriipSettlementByTrade.sol:249]\"\n        );\n        require(\n            driipSettlementChallengeState.hasProposalExpired(wallet, trade.currencies.conjugate),\n            \"Conjugate proposal found not expired [DriipSettlementByTrade.sol:253]\"\n        );\n\n        // Require that driip settlement challenge proposals qualified\n        require(\n            SettlementChallengeTypesLib.Status.Qualified == driipSettlementChallengeState.proposalStatus(wallet, trade.currencies.intended),\n            \"Intended proposal found not qualified [DriipSettlementByTrade.sol:259]\"\n        );\n        require(\n            SettlementChallengeTypesLib.Status.Qualified == driipSettlementChallengeState.proposalStatus(wallet, trade.currencies.conjugate),\n            \"Conjugate proposal found not qualified [DriipSettlementByTrade.sol:263]\"\n        );\n\n        // Require that operational mode is normal and data is available\n        require(configuration.isOperationalModeNormal(), \"Not normal operational mode [DriipSettlementByTrade.sol:269]\");\n        require(communityVote.isDataAvailable(), \"Data not available [DriipSettlementByTrade.sol:270]\");\n\n        // Init settlement, i.e. create one if no such settlement exists for the double pair of wallets and nonces\n        driipSettlementState.initSettlement(\n            TradeTypesLib.TRADE_KIND(), trade.seal.hash,\n            trade.seller.wallet, trade.seller.nonce,\n            trade.buyer.wallet, trade.buyer.nonce\n        );\n\n        // If exists settlement of nonce then require that wallet has not already settled\n        require(\n            !driipSettlementState.isSettlementPartyDone(wallet, party.nonce, settlementRole),\n            \"Settlement party already done [DriipSettlementByTrade.sol:280]\"\n        );\n\n        // Set wallet's completion of this trade to prevent the same settlement from being resettled by this wallet\n        driipSettlementState.completeSettlement(\n            wallet, party.nonce, settlementRole, true\n        );\n\n        // If wallet has previously settled balance of the intended currency with higher driip nonce, then don't\n        // settle its balance again\n        if (driipSettlementState.maxNonceByWalletAndCurrency(wallet, trade.currencies.intended) < party.nonce) {\n            // Update settled nonce of wallet and currency\n            driipSettlementState.setMaxNonceByWalletAndCurrency(wallet, trade.currencies.intended, party.nonce);\n\n            // Update settled balance\n            clientFund.updateSettledBalance(\n                wallet, party.balances.intended.current, trade.currencies.intended.ct,\n                trade.currencies.intended.id, standard, block.number\n            );\n\n            // Stage (stage function assures positive amount only)\n            clientFund.stage(\n                wallet,\n                driipSettlementChallengeState.proposalStageAmount(wallet, trade.currencies.intended),\n                trade.currencies.intended.ct, trade.currencies.intended.id, standard\n            );\n        }\n\n        // If wallet has previously settled balance of the conjugate currency with higher driip nonce, then don't\n        // settle its balance again\n        if (driipSettlementState.maxNonceByWalletAndCurrency(wallet, trade.currencies.conjugate) < party.nonce) {\n            // Update settled nonce of wallet and currency\n            driipSettlementState.setMaxNonceByWalletAndCurrency(wallet, trade.currencies.conjugate, party.nonce);\n\n            // Update settled balance\n            clientFund.updateSettledBalance(\n                wallet, party.balances.conjugate.current, trade.currencies.conjugate.ct,\n                trade.currencies.conjugate.id, standard, block.number\n            );\n\n            // Stage (stage function assures positive amount only)\n            clientFund.stage(\n                wallet,\n                driipSettlementChallengeState.proposalStageAmount(wallet, trade.currencies.conjugate),\n                trade.currencies.conjugate.ct, trade.currencies.conjugate.id, standard\n            );\n        }\n\n        // Stage fees to revenue fund\n        if (address(0) != address(revenueFund))\n            _stageFees(wallet, party.fees.total, revenueFund, party.nonce, standard);\n\n        // Remove driip settlement challenge proposals\n        driipSettlementChallengeState.terminateProposal(wallet, trade.currencies.intended, false);\n        driipSettlementChallengeState.terminateProposal(wallet, trade.currencies.conjugate, false);\n    }\n\n    function _getRoleProperties(TradeTypesLib.Trade memory trade, address wallet)\n    private\n    view\n    returns (\n        DriipSettlementTypesLib.SettlementRole settlementRole,\n        TradeTypesLib.TradeParty memory party\n    )\n    {\n        if (validator.isTradeSeller(trade, wallet)) {\n            settlementRole = DriipSettlementTypesLib.SettlementRole.Origin;\n            party = trade.seller;\n\n        } else {\n            settlementRole = DriipSettlementTypesLib.SettlementRole.Target;\n            party = trade.buyer;\n        }\n    }\n\n    function _stageFees(address wallet, NahmiiTypesLib.OriginFigure[] memory fees,\n        Beneficiary protocolBeneficiary, uint256 nonce, string memory standard)\n    private\n    {\n        // For each origin figure...\n        for (uint256 i = 0; i < fees.length; i++) {\n            // Based on originId determine if this is protocol or partner fee, and if the latter define originId as destination in beneficiary\n            (Beneficiary beneficiary, address destination) =\n            (0 == fees[i].originId) ? (protocolBeneficiary, address(0)) : (partnerFund, address(fees[i].originId));\n\n            if (driipSettlementState.totalFee(wallet, beneficiary, destination, fees[i].figure.currency).nonce < nonce) {\n                // Get the amount previously staged\n                int256 deltaAmount = fees[i].figure.amount.sub(driipSettlementState.totalFee(wallet, beneficiary, destination, fees[i].figure.currency).amount);\n\n                // Update fee total\n                driipSettlementState.setTotalFee(wallet, beneficiary, destination, fees[i].figure.currency, MonetaryTypesLib.NoncedAmount(nonce, fees[i].figure.amount));\n\n                // Transfer to beneficiary\n                clientFund.transferToBeneficiary(\n                    destination, beneficiary, deltaAmount, fees[i].figure.currency.ct, fees[i].figure.currency.id, standard\n                );\n\n                // Emit event\n                emit StageFeesEvent(\n                    wallet, deltaAmount, fees[i].figure.amount, fees[i].figure.currency.ct, fees[i].figure.currency.id\n                );\n            }\n        }\n    }\n}",
  "sourcePath": "/opt/buildagent/work/855e104608380c36/contracts/DriipSettlementByTrade.sol",
  "compiler": {
    "name": "solc",
    "version": "0.5.12+commit.7709ece9.Emscripten.clang"
  },
  "schemaVersion": "2.0.3",
  "updatedAt": "2019-10-23T00:21:40.623Z"
}