{
  "contractName": "DriipSettlementChallengeState",
  "abi": [
    {
      "inputs": [
        {
          "internalType": "address",
          "name": "deployer",
          "type": "address"
        }
      ],
      "payable": false,
      "stateMutability": "nonpayable",
      "type": "constructor"
    },
    {
      "anonymous": false,
      "inputs": [
        {
          "indexed": false,
          "internalType": "address",
          "name": "service",
          "type": "address"
        }
      ],
      "name": "DeregisterServiceEvent",
      "type": "event"
    },
    {
      "anonymous": false,
      "inputs": [
        {
          "indexed": false,
          "internalType": "address",
          "name": "service",
          "type": "address"
        },
        {
          "indexed": false,
          "internalType": "string",
          "name": "action",
          "type": "string"
        }
      ],
      "name": "DisableServiceActionEvent",
      "type": "event"
    },
    {
      "anonymous": false,
      "inputs": [
        {
          "indexed": false,
          "internalType": "address",
          "name": "challengedWallet",
          "type": "address"
        },
        {
          "indexed": false,
          "internalType": "uint256",
          "name": "challengedNonce",
          "type": "uint256"
        },
        {
          "indexed": false,
          "internalType": "int256",
          "name": "cumulativeTransferAmount",
          "type": "int256"
        },
        {
          "indexed": false,
          "internalType": "int256",
          "name": "stageAmount",
          "type": "int256"
        },
        {
          "indexed": false,
          "internalType": "int256",
          "name": "targetBalanceAmount",
          "type": "int256"
        },
        {
          "components": [
            {
              "internalType": "address",
              "name": "ct",
              "type": "address"
            },
            {
              "internalType": "uint256",
              "name": "id",
              "type": "uint256"
            }
          ],
          "indexed": false,
          "internalType": "struct MonetaryTypesLib.Currency",
          "name": "currency",
          "type": "tuple"
        },
        {
          "indexed": false,
          "internalType": "uint256",
          "name": "blockNumber",
          "type": "uint256"
        },
        {
          "indexed": false,
          "internalType": "bool",
          "name": "walletInitiated",
          "type": "bool"
        },
        {
          "indexed": false,
          "internalType": "address",
          "name": "challengerWallet",
          "type": "address"
        },
        {
          "indexed": false,
          "internalType": "uint256",
          "name": "candidateNonce",
          "type": "uint256"
        },
        {
          "indexed": false,
          "internalType": "bytes32",
          "name": "candidateHash",
          "type": "bytes32"
        },
        {
          "indexed": false,
          "internalType": "string",
          "name": "candidateKind",
          "type": "string"
        }
      ],
      "name": "DisqualifyProposalEvent",
      "type": "event"
    },
    {
      "anonymous": false,
      "inputs": [
        {
          "indexed": false,
          "internalType": "address",
          "name": "service",
          "type": "address"
        },
        {
          "indexed": false,
          "internalType": "string",
          "name": "action",
          "type": "string"
        }
      ],
      "name": "EnableServiceActionEvent",
      "type": "event"
    },
    {
      "anonymous": false,
      "inputs": [],
      "name": "FreezeUpgradesEvent",
      "type": "event"
    },
    {
      "anonymous": false,
      "inputs": [
        {
          "indexed": false,
          "internalType": "address",
          "name": "wallet",
          "type": "address"
        },
        {
          "indexed": false,
          "internalType": "uint256",
          "name": "nonce",
          "type": "uint256"
        },
        {
          "indexed": false,
          "internalType": "int256",
          "name": "cumulativeTransferAmount",
          "type": "int256"
        },
        {
          "indexed": false,
          "internalType": "int256",
          "name": "stageAmount",
          "type": "int256"
        },
        {
          "indexed": false,
          "internalType": "int256",
          "name": "targetBalanceAmount",
          "type": "int256"
        },
        {
          "components": [
            {
              "internalType": "address",
              "name": "ct",
              "type": "address"
            },
            {
              "internalType": "uint256",
              "name": "id",
              "type": "uint256"
            }
          ],
          "indexed": false,
          "internalType": "struct MonetaryTypesLib.Currency",
          "name": "currency",
          "type": "tuple"
        },
        {
          "indexed": false,
          "internalType": "uint256",
          "name": "blockNumber",
          "type": "uint256"
        },
        {
          "indexed": false,
          "internalType": "bool",
          "name": "walletInitiated",
          "type": "bool"
        },
        {
          "indexed": false,
          "internalType": "bytes32",
          "name": "challengedHash",
          "type": "bytes32"
        },
        {
          "indexed": false,
          "internalType": "string",
          "name": "challengedKind",
          "type": "string"
        }
      ],
      "name": "InitiateProposalEvent",
      "type": "event"
    },
    {
      "anonymous": false,
      "inputs": [
        {
          "indexed": false,
          "internalType": "address",
          "name": "challengedWallet",
          "type": "address"
        },
        {
          "indexed": false,
          "internalType": "uint256",
          "name": "challengedNonce",
          "type": "uint256"
        },
        {
          "indexed": false,
          "internalType": "int256",
          "name": "cumulativeTransferAmount",
          "type": "int256"
        },
        {
          "indexed": false,
          "internalType": "int256",
          "name": "stageAmount",
          "type": "int256"
        },
        {
          "indexed": false,
          "internalType": "int256",
          "name": "targetBalanceAmount",
          "type": "int256"
        },
        {
          "components": [
            {
              "internalType": "address",
              "name": "ct",
              "type": "address"
            },
            {
              "internalType": "uint256",
              "name": "id",
              "type": "uint256"
            }
          ],
          "indexed": false,
          "internalType": "struct MonetaryTypesLib.Currency",
          "name": "currency",
          "type": "tuple"
        },
        {
          "indexed": false,
          "internalType": "uint256",
          "name": "blockNumber",
          "type": "uint256"
        },
        {
          "indexed": false,
          "internalType": "bool",
          "name": "walletInitiated",
          "type": "bool"
        },
        {
          "indexed": false,
          "internalType": "address",
          "name": "challengerWallet",
          "type": "address"
        },
        {
          "indexed": false,
          "internalType": "uint256",
          "name": "candidateNonce",
          "type": "uint256"
        },
        {
          "indexed": false,
          "internalType": "bytes32",
          "name": "candidateHash",
          "type": "bytes32"
        },
        {
          "indexed": false,
          "internalType": "string",
          "name": "candidateKind",
          "type": "string"
        }
      ],
      "name": "QualifyProposalEvent",
      "type": "event"
    },
    {
      "anonymous": false,
      "inputs": [
        {
          "indexed": false,
          "internalType": "address",
          "name": "service",
          "type": "address"
        },
        {
          "indexed": false,
          "internalType": "uint256",
          "name": "timeout",
          "type": "uint256"
        }
      ],
      "name": "RegisterServiceDeferredEvent",
      "type": "event"
    },
    {
      "anonymous": false,
      "inputs": [
        {
          "indexed": false,
          "internalType": "address",
          "name": "service",
          "type": "address"
        }
      ],
      "name": "RegisterServiceEvent",
      "type": "event"
    },
    {
      "anonymous": false,
      "inputs": [
        {
          "indexed": false,
          "internalType": "address",
          "name": "wallet",
          "type": "address"
        },
        {
          "indexed": false,
          "internalType": "uint256",
          "name": "nonce",
          "type": "uint256"
        },
        {
          "indexed": false,
          "internalType": "int256",
          "name": "cumulativeTransferAmount",
          "type": "int256"
        },
        {
          "indexed": false,
          "internalType": "int256",
          "name": "stageAmount",
          "type": "int256"
        },
        {
          "indexed": false,
          "internalType": "int256",
          "name": "targetBalanceAmount",
          "type": "int256"
        },
        {
          "components": [
            {
              "internalType": "address",
              "name": "ct",
              "type": "address"
            },
            {
              "internalType": "uint256",
              "name": "id",
              "type": "uint256"
            }
          ],
          "indexed": false,
          "internalType": "struct MonetaryTypesLib.Currency",
          "name": "currency",
          "type": "tuple"
        },
        {
          "indexed": false,
          "internalType": "uint256",
          "name": "blockNumber",
          "type": "uint256"
        },
        {
          "indexed": false,
          "internalType": "bool",
          "name": "walletInitiated",
          "type": "bool"
        },
        {
          "indexed": false,
          "internalType": "bytes32",
          "name": "challengedHash",
          "type": "bytes32"
        },
        {
          "indexed": false,
          "internalType": "string",
          "name": "challengedKind",
          "type": "string"
        }
      ],
      "name": "RemoveProposalEvent",
      "type": "event"
    },
    {
      "anonymous": false,
      "inputs": [
        {
          "indexed": false,
          "internalType": "address",
          "name": "wallet",
          "type": "address"
        }
      ],
      "name": "SelfDestructionDisabledEvent",
      "type": "event"
    },
    {
      "anonymous": false,
      "inputs": [
        {
          "indexed": false,
          "internalType": "uint256",
          "name": "timeoutInSeconds",
          "type": "uint256"
        }
      ],
      "name": "ServiceActivationTimeoutEvent",
      "type": "event"
    },
    {
      "anonymous": false,
      "inputs": [
        {
          "indexed": false,
          "internalType": "contract Configuration",
          "name": "oldConfiguration",
          "type": "address"
        },
        {
          "indexed": false,
          "internalType": "contract Configuration",
          "name": "newConfiguration",
          "type": "address"
        }
      ],
      "name": "SetConfigurationEvent",
      "type": "event"
    },
    {
      "anonymous": false,
      "inputs": [
        {
          "indexed": false,
          "internalType": "address",
          "name": "oldDeployer",
          "type": "address"
        },
        {
          "indexed": false,
          "internalType": "address",
          "name": "newDeployer",
          "type": "address"
        }
      ],
      "name": "SetDeployerEvent",
      "type": "event"
    },
    {
      "anonymous": false,
      "inputs": [
        {
          "indexed": false,
          "internalType": "address",
          "name": "oldOperator",
          "type": "address"
        },
        {
          "indexed": false,
          "internalType": "address",
          "name": "newOperator",
          "type": "address"
        }
      ],
      "name": "SetOperatorEvent",
      "type": "event"
    },
    {
      "anonymous": false,
      "inputs": [
        {
          "indexed": false,
          "internalType": "address",
          "name": "upgradeAgent",
          "type": "address"
        }
      ],
      "name": "SetUpgradeAgentEvent",
      "type": "event"
    },
    {
      "anonymous": false,
      "inputs": [
        {
          "indexed": false,
          "internalType": "address",
          "name": "wallet",
          "type": "address"
        },
        {
          "indexed": false,
          "internalType": "uint256",
          "name": "nonce",
          "type": "uint256"
        },
        {
          "indexed": false,
          "internalType": "int256",
          "name": "cumulativeTransferAmount",
          "type": "int256"
        },
        {
          "indexed": false,
          "internalType": "int256",
          "name": "stageAmount",
          "type": "int256"
        },
        {
          "indexed": false,
          "internalType": "int256",
          "name": "targetBalanceAmount",
          "type": "int256"
        },
        {
          "components": [
            {
              "internalType": "address",
              "name": "ct",
              "type": "address"
            },
            {
              "internalType": "uint256",
              "name": "id",
              "type": "uint256"
            }
          ],
          "indexed": false,
          "internalType": "struct MonetaryTypesLib.Currency",
          "name": "currency",
          "type": "tuple"
        },
        {
          "indexed": false,
          "internalType": "uint256",
          "name": "blockNumber",
          "type": "uint256"
        },
        {
          "indexed": false,
          "internalType": "bool",
          "name": "walletInitiated",
          "type": "bool"
        },
        {
          "indexed": false,
          "internalType": "bytes32",
          "name": "challengedHash",
          "type": "bytes32"
        },
        {
          "indexed": false,
          "internalType": "string",
          "name": "challengedKind",
          "type": "string"
        }
      ],
      "name": "TerminateProposalEvent",
      "type": "event"
    },
    {
      "anonymous": false,
      "inputs": [
        {
          "indexed": false,
          "internalType": "address",
          "name": "wallet",
          "type": "address"
        }
      ],
      "name": "TriggerSelfDestructionEvent",
      "type": "event"
    },
    {
      "anonymous": false,
      "inputs": [
        {
          "components": [
            {
              "internalType": "address",
              "name": "wallet",
              "type": "address"
            },
            {
              "internalType": "uint256",
              "name": "nonce",
              "type": "uint256"
            },
            {
              "internalType": "uint256",
              "name": "referenceBlockNumber",
              "type": "uint256"
            },
            {
              "internalType": "uint256",
              "name": "definitionBlockNumber",
              "type": "uint256"
            },
            {
              "internalType": "uint256",
              "name": "expirationTime",
              "type": "uint256"
            },
            {
              "internalType": "enum SettlementChallengeTypesLib.Status",
              "name": "status",
              "type": "uint8"
            },
            {
              "components": [
                {
                  "internalType": "int256",
                  "name": "cumulativeTransfer",
                  "type": "int256"
                },
                {
                  "internalType": "int256",
                  "name": "stage",
                  "type": "int256"
                },
                {
                  "internalType": "int256",
                  "name": "targetBalance",
                  "type": "int256"
                }
              ],
              "internalType": "struct SettlementChallengeTypesLib.Amounts",
              "name": "amounts",
              "type": "tuple"
            },
            {
              "components": [
                {
                  "internalType": "address",
                  "name": "ct",
                  "type": "address"
                },
                {
                  "internalType": "uint256",
                  "name": "id",
                  "type": "uint256"
                }
              ],
              "internalType": "struct MonetaryTypesLib.Currency",
              "name": "currency",
              "type": "tuple"
            },
            {
              "components": [
                {
                  "internalType": "string",
                  "name": "kind",
                  "type": "string"
                },
                {
                  "internalType": "bytes32",
                  "name": "hash",
                  "type": "bytes32"
                }
              ],
              "internalType": "struct SettlementChallengeTypesLib.Driip",
              "name": "challenged",
              "type": "tuple"
            },
            {
              "internalType": "bool",
              "name": "walletInitiated",
              "type": "bool"
            },
            {
              "internalType": "bool",
              "name": "terminated",
              "type": "bool"
            },
            {
              "components": [
                {
                  "internalType": "address",
                  "name": "challenger",
                  "type": "address"
                },
                {
                  "internalType": "uint256",
                  "name": "nonce",
                  "type": "uint256"
                },
                {
                  "internalType": "uint256",
                  "name": "blockNumber",
                  "type": "uint256"
                },
                {
                  "components": [
                    {
                      "internalType": "string",
                      "name": "kind",
                      "type": "string"
                    },
                    {
                      "internalType": "bytes32",
                      "name": "hash",
                      "type": "bytes32"
                    }
                  ],
                  "internalType": "struct SettlementChallengeTypesLib.Driip",
                  "name": "candidate",
                  "type": "tuple"
                }
              ],
              "internalType": "struct SettlementChallengeTypesLib.Disqualification",
              "name": "disqualification",
              "type": "tuple"
            }
          ],
          "indexed": false,
          "internalType": "struct SettlementChallengeTypesLib.Proposal",
          "name": "proposal",
          "type": "tuple"
        }
      ],
      "name": "UpgradeProposalEvent",
      "type": "event"
    },
    {
      "constant": true,
      "inputs": [],
      "name": "DISQUALIFY_PROPOSAL_ACTION",
      "outputs": [
        {
          "internalType": "string",
          "name": "",
          "type": "string"
        }
      ],
      "payable": false,
      "stateMutability": "view",
      "type": "function"
    },
    {
      "constant": true,
      "inputs": [],
      "name": "INITIATE_PROPOSAL_ACTION",
      "outputs": [
        {
          "internalType": "string",
          "name": "",
          "type": "string"
        }
      ],
      "payable": false,
      "stateMutability": "view",
      "type": "function"
    },
    {
      "constant": true,
      "inputs": [],
      "name": "QUALIFY_PROPOSAL_ACTION",
      "outputs": [
        {
          "internalType": "string",
          "name": "",
          "type": "string"
        }
      ],
      "payable": false,
      "stateMutability": "view",
      "type": "function"
    },
    {
      "constant": true,
      "inputs": [],
      "name": "REMOVE_PROPOSAL_ACTION",
      "outputs": [
        {
          "internalType": "string",
          "name": "",
          "type": "string"
        }
      ],
      "payable": false,
      "stateMutability": "view",
      "type": "function"
    },
    {
      "constant": true,
      "inputs": [],
      "name": "TERMINATE_PROPOSAL_ACTION",
      "outputs": [
        {
          "internalType": "string",
          "name": "",
          "type": "string"
        }
      ],
      "payable": false,
      "stateMutability": "view",
      "type": "function"
    },
    {
      "constant": true,
      "inputs": [],
      "name": "configuration",
      "outputs": [
        {
          "internalType": "contract Configuration",
          "name": "",
          "type": "address"
        }
      ],
      "payable": false,
      "stateMutability": "view",
      "type": "function"
    },
    {
      "constant": true,
      "inputs": [],
      "name": "deployer",
      "outputs": [
        {
          "internalType": "address",
          "name": "",
          "type": "address"
        }
      ],
      "payable": false,
      "stateMutability": "view",
      "type": "function"
    },
    {
      "constant": false,
      "inputs": [
        {
          "internalType": "address",
          "name": "service",
          "type": "address"
        }
      ],
      "name": "deregisterService",
      "outputs": [],
      "payable": false,
      "stateMutability": "nonpayable",
      "type": "function"
    },
    {
      "constant": true,
      "inputs": [],
      "name": "destructor",
      "outputs": [
        {
          "internalType": "address",
          "name": "",
          "type": "address"
        }
      ],
      "payable": false,
      "stateMutability": "view",
      "type": "function"
    },
    {
      "constant": false,
      "inputs": [],
      "name": "disableSelfDestruction",
      "outputs": [],
      "payable": false,
      "stateMutability": "nonpayable",
      "type": "function"
    },
    {
      "constant": false,
      "inputs": [
        {
          "internalType": "address",
          "name": "service",
          "type": "address"
        },
        {
          "internalType": "string",
          "name": "action",
          "type": "string"
        }
      ],
      "name": "disableServiceAction",
      "outputs": [],
      "payable": false,
      "stateMutability": "nonpayable",
      "type": "function"
    },
    {
      "constant": false,
      "inputs": [
        {
          "internalType": "address",
          "name": "service",
          "type": "address"
        },
        {
          "internalType": "string",
          "name": "action",
          "type": "string"
        }
      ],
      "name": "enableServiceAction",
      "outputs": [],
      "payable": false,
      "stateMutability": "nonpayable",
      "type": "function"
    },
    {
      "constant": false,
      "inputs": [],
      "name": "freezeUpgrades",
      "outputs": [],
      "payable": false,
      "stateMutability": "nonpayable",
      "type": "function"
    },
    {
      "constant": true,
      "inputs": [
        {
          "internalType": "address",
          "name": "service",
          "type": "address"
        },
        {
          "internalType": "string",
          "name": "action",
          "type": "string"
        }
      ],
      "name": "isEnabledServiceAction",
      "outputs": [
        {
          "internalType": "bool",
          "name": "",
          "type": "bool"
        }
      ],
      "payable": false,
      "stateMutability": "view",
      "type": "function"
    },
    {
      "constant": true,
      "inputs": [
        {
          "internalType": "address",
          "name": "service",
          "type": "address"
        }
      ],
      "name": "isRegisteredActiveService",
      "outputs": [
        {
          "internalType": "bool",
          "name": "",
          "type": "bool"
        }
      ],
      "payable": false,
      "stateMutability": "view",
      "type": "function"
    },
    {
      "constant": true,
      "inputs": [
        {
          "internalType": "address",
          "name": "service",
          "type": "address"
        }
      ],
      "name": "isRegisteredService",
      "outputs": [
        {
          "internalType": "bool",
          "name": "",
          "type": "bool"
        }
      ],
      "payable": false,
      "stateMutability": "view",
      "type": "function"
    },
    {
      "constant": true,
      "inputs": [],
      "name": "operator",
      "outputs": [
        {
          "internalType": "address",
          "name": "",
          "type": "address"
        }
      ],
      "payable": false,
      "stateMutability": "view",
      "type": "function"
    },
    {
      "constant": true,
      "inputs": [
        {
          "internalType": "address",
          "name": "",
          "type": "address"
        },
        {
          "internalType": "address",
          "name": "",
          "type": "address"
        },
        {
          "internalType": "uint256",
          "name": "",
          "type": "uint256"
        }
      ],
      "name": "proposalIndexByWalletCurrency",
      "outputs": [
        {
          "internalType": "uint256",
          "name": "",
          "type": "uint256"
        }
      ],
      "payable": false,
      "stateMutability": "view",
      "type": "function"
    },
    {
      "constant": true,
      "inputs": [
        {
          "internalType": "address",
          "name": "",
          "type": "address"
        },
        {
          "internalType": "uint256",
          "name": "",
          "type": "uint256"
        },
        {
          "internalType": "address",
          "name": "",
          "type": "address"
        },
        {
          "internalType": "uint256",
          "name": "",
          "type": "uint256"
        }
      ],
      "name": "proposalIndexByWalletNonceCurrency",
      "outputs": [
        {
          "internalType": "uint256",
          "name": "",
          "type": "uint256"
        }
      ],
      "payable": false,
      "stateMutability": "view",
      "type": "function"
    },
    {
      "constant": true,
      "inputs": [
        {
          "internalType": "uint256",
          "name": "",
          "type": "uint256"
        }
      ],
      "name": "proposals",
      "outputs": [
        {
          "internalType": "address",
          "name": "wallet",
          "type": "address"
        },
        {
          "internalType": "uint256",
          "name": "nonce",
          "type": "uint256"
        },
        {
          "internalType": "uint256",
          "name": "referenceBlockNumber",
          "type": "uint256"
        },
        {
          "internalType": "uint256",
          "name": "definitionBlockNumber",
          "type": "uint256"
        },
        {
          "internalType": "uint256",
          "name": "expirationTime",
          "type": "uint256"
        },
        {
          "internalType": "enum SettlementChallengeTypesLib.Status",
          "name": "status",
          "type": "uint8"
        },
        {
          "components": [
            {
              "internalType": "int256",
              "name": "cumulativeTransfer",
              "type": "int256"
            },
            {
              "internalType": "int256",
              "name": "stage",
              "type": "int256"
            },
            {
              "internalType": "int256",
              "name": "targetBalance",
              "type": "int256"
            }
          ],
          "internalType": "struct SettlementChallengeTypesLib.Amounts",
          "name": "amounts",
          "type": "tuple"
        },
        {
          "components": [
            {
              "internalType": "address",
              "name": "ct",
              "type": "address"
            },
            {
              "internalType": "uint256",
              "name": "id",
              "type": "uint256"
            }
          ],
          "internalType": "struct MonetaryTypesLib.Currency",
          "name": "currency",
          "type": "tuple"
        },
        {
          "components": [
            {
              "internalType": "string",
              "name": "kind",
              "type": "string"
            },
            {
              "internalType": "bytes32",
              "name": "hash",
              "type": "bytes32"
            }
          ],
          "internalType": "struct SettlementChallengeTypesLib.Driip",
          "name": "challenged",
          "type": "tuple"
        },
        {
          "internalType": "bool",
          "name": "walletInitiated",
          "type": "bool"
        },
        {
          "internalType": "bool",
          "name": "terminated",
          "type": "bool"
        },
        {
          "components": [
            {
              "internalType": "address",
              "name": "challenger",
              "type": "address"
            },
            {
              "internalType": "uint256",
              "name": "nonce",
              "type": "uint256"
            },
            {
              "internalType": "uint256",
              "name": "blockNumber",
              "type": "uint256"
            },
            {
              "components": [
                {
                  "internalType": "string",
                  "name": "kind",
                  "type": "string"
                },
                {
                  "internalType": "bytes32",
                  "name": "hash",
                  "type": "bytes32"
                }
              ],
              "internalType": "struct SettlementChallengeTypesLib.Driip",
              "name": "candidate",
              "type": "tuple"
            }
          ],
          "internalType": "struct SettlementChallengeTypesLib.Disqualification",
          "name": "disqualification",
          "type": "tuple"
        }
      ],
      "payable": false,
      "stateMutability": "view",
      "type": "function"
    },
    {
      "constant": false,
      "inputs": [
        {
          "internalType": "address",
          "name": "service",
          "type": "address"
        }
      ],
      "name": "registerService",
      "outputs": [],
      "payable": false,
      "stateMutability": "nonpayable",
      "type": "function"
    },
    {
      "constant": false,
      "inputs": [
        {
          "internalType": "address",
          "name": "service",
          "type": "address"
        }
      ],
      "name": "registerServiceDeferred",
      "outputs": [],
      "payable": false,
      "stateMutability": "nonpayable",
      "type": "function"
    },
    {
      "constant": true,
      "inputs": [],
      "name": "selfDestructionDisabled",
      "outputs": [
        {
          "internalType": "bool",
          "name": "",
          "type": "bool"
        }
      ],
      "payable": false,
      "stateMutability": "view",
      "type": "function"
    },
    {
      "constant": true,
      "inputs": [],
      "name": "serviceActivationTimeout",
      "outputs": [
        {
          "internalType": "uint256",
          "name": "",
          "type": "uint256"
        }
      ],
      "payable": false,
      "stateMutability": "view",
      "type": "function"
    },
    {
      "constant": false,
      "inputs": [
        {
          "internalType": "contract Configuration",
          "name": "newConfiguration",
          "type": "address"
        }
      ],
      "name": "setConfiguration",
      "outputs": [],
      "payable": false,
      "stateMutability": "nonpayable",
      "type": "function"
    },
    {
      "constant": false,
      "inputs": [
        {
          "internalType": "address",
          "name": "newDeployer",
          "type": "address"
        }
      ],
      "name": "setDeployer",
      "outputs": [],
      "payable": false,
      "stateMutability": "nonpayable",
      "type": "function"
    },
    {
      "constant": false,
      "inputs": [
        {
          "internalType": "address",
          "name": "newOperator",
          "type": "address"
        }
      ],
      "name": "setOperator",
      "outputs": [],
      "payable": false,
      "stateMutability": "nonpayable",
      "type": "function"
    },
    {
      "constant": false,
      "inputs": [
        {
          "internalType": "uint256",
          "name": "timeoutInSeconds",
          "type": "uint256"
        }
      ],
      "name": "setServiceActivationTimeout",
      "outputs": [],
      "payable": false,
      "stateMutability": "nonpayable",
      "type": "function"
    },
    {
      "constant": false,
      "inputs": [
        {
          "internalType": "address",
          "name": "_upgradeAgent",
          "type": "address"
        }
      ],
      "name": "setUpgradeAgent",
      "outputs": [],
      "payable": false,
      "stateMutability": "nonpayable",
      "type": "function"
    },
    {
      "constant": false,
      "inputs": [],
      "name": "triggerSelfDestruction",
      "outputs": [],
      "payable": false,
      "stateMutability": "nonpayable",
      "type": "function"
    },
    {
      "constant": true,
      "inputs": [],
      "name": "upgradeAgent",
      "outputs": [
        {
          "internalType": "address",
          "name": "",
          "type": "address"
        }
      ],
      "payable": false,
      "stateMutability": "view",
      "type": "function"
    },
    {
      "constant": true,
      "inputs": [],
      "name": "upgradesFrozen",
      "outputs": [
        {
          "internalType": "bool",
          "name": "",
          "type": "bool"
        }
      ],
      "payable": false,
      "stateMutability": "view",
      "type": "function"
    },
    {
      "constant": true,
      "inputs": [],
      "name": "proposalsCount",
      "outputs": [
        {
          "internalType": "uint256",
          "name": "",
          "type": "uint256"
        }
      ],
      "payable": false,
      "stateMutability": "view",
      "type": "function"
    },
    {
      "constant": false,
      "inputs": [
        {
          "internalType": "address",
          "name": "wallet",
          "type": "address"
        },
        {
          "internalType": "uint256",
          "name": "nonce",
          "type": "uint256"
        },
        {
          "internalType": "int256",
          "name": "cumulativeTransferAmount",
          "type": "int256"
        },
        {
          "internalType": "int256",
          "name": "stageAmount",
          "type": "int256"
        },
        {
          "internalType": "int256",
          "name": "targetBalanceAmount",
          "type": "int256"
        },
        {
          "components": [
            {
              "internalType": "address",
              "name": "ct",
              "type": "address"
            },
            {
              "internalType": "uint256",
              "name": "id",
              "type": "uint256"
            }
          ],
          "internalType": "struct MonetaryTypesLib.Currency",
          "name": "currency",
          "type": "tuple"
        },
        {
          "internalType": "uint256",
          "name": "blockNumber",
          "type": "uint256"
        },
        {
          "internalType": "bool",
          "name": "walletInitiated",
          "type": "bool"
        },
        {
          "internalType": "bytes32",
          "name": "challengedHash",
          "type": "bytes32"
        },
        {
          "internalType": "string",
          "name": "challengedKind",
          "type": "string"
        }
      ],
      "name": "initiateProposal",
      "outputs": [],
      "payable": false,
      "stateMutability": "nonpayable",
      "type": "function"
    },
    {
      "constant": false,
      "inputs": [
        {
          "internalType": "address",
          "name": "wallet",
          "type": "address"
        },
        {
          "components": [
            {
              "internalType": "address",
              "name": "ct",
              "type": "address"
            },
            {
              "internalType": "uint256",
              "name": "id",
              "type": "uint256"
            }
          ],
          "internalType": "struct MonetaryTypesLib.Currency",
          "name": "currency",
          "type": "tuple"
        },
        {
          "internalType": "bool",
          "name": "clearNonce",
          "type": "bool"
        },
        {
          "internalType": "bool",
          "name": "walletTerminated",
          "type": "bool"
        }
      ],
      "name": "terminateProposal",
      "outputs": [],
      "payable": false,
      "stateMutability": "nonpayable",
      "type": "function"
    },
    {
      "constant": false,
      "inputs": [
        {
          "internalType": "address",
          "name": "wallet",
          "type": "address"
        },
        {
          "components": [
            {
              "internalType": "address",
              "name": "ct",
              "type": "address"
            },
            {
              "internalType": "uint256",
              "name": "id",
              "type": "uint256"
            }
          ],
          "internalType": "struct MonetaryTypesLib.Currency",
          "name": "currency",
          "type": "tuple"
        },
        {
          "internalType": "bool",
          "name": "clearNonce",
          "type": "bool"
        }
      ],
      "name": "terminateProposal",
      "outputs": [],
      "payable": false,
      "stateMutability": "nonpayable",
      "type": "function"
    },
    {
      "constant": false,
      "inputs": [
        {
          "internalType": "address",
          "name": "wallet",
          "type": "address"
        },
        {
          "components": [
            {
              "internalType": "address",
              "name": "ct",
              "type": "address"
            },
            {
              "internalType": "uint256",
              "name": "id",
              "type": "uint256"
            }
          ],
          "internalType": "struct MonetaryTypesLib.Currency",
          "name": "currency",
          "type": "tuple"
        }
      ],
      "name": "removeProposal",
      "outputs": [],
      "payable": false,
      "stateMutability": "nonpayable",
      "type": "function"
    },
    {
      "constant": false,
      "inputs": [
        {
          "internalType": "address",
          "name": "wallet",
          "type": "address"
        },
        {
          "components": [
            {
              "internalType": "address",
              "name": "ct",
              "type": "address"
            },
            {
              "internalType": "uint256",
              "name": "id",
              "type": "uint256"
            }
          ],
          "internalType": "struct MonetaryTypesLib.Currency",
          "name": "currency",
          "type": "tuple"
        },
        {
          "internalType": "bool",
          "name": "walletTerminated",
          "type": "bool"
        }
      ],
      "name": "removeProposal",
      "outputs": [],
      "payable": false,
      "stateMutability": "nonpayable",
      "type": "function"
    },
    {
      "constant": false,
      "inputs": [
        {
          "internalType": "address",
          "name": "challengedWallet",
          "type": "address"
        },
        {
          "components": [
            {
              "internalType": "address",
              "name": "ct",
              "type": "address"
            },
            {
              "internalType": "uint256",
              "name": "id",
              "type": "uint256"
            }
          ],
          "internalType": "struct MonetaryTypesLib.Currency",
          "name": "currency",
          "type": "tuple"
        },
        {
          "internalType": "address",
          "name": "challengerWallet",
          "type": "address"
        },
        {
          "internalType": "uint256",
          "name": "blockNumber",
          "type": "uint256"
        },
        {
          "internalType": "uint256",
          "name": "candidateNonce",
          "type": "uint256"
        },
        {
          "internalType": "bytes32",
          "name": "candidateHash",
          "type": "bytes32"
        },
        {
          "internalType": "string",
          "name": "candidateKind",
          "type": "string"
        }
      ],
      "name": "disqualifyProposal",
      "outputs": [],
      "payable": false,
      "stateMutability": "nonpayable",
      "type": "function"
    },
    {
      "constant": false,
      "inputs": [
        {
          "internalType": "address",
          "name": "wallet",
          "type": "address"
        },
        {
          "components": [
            {
              "internalType": "address",
              "name": "ct",
              "type": "address"
            },
            {
              "internalType": "uint256",
              "name": "id",
              "type": "uint256"
            }
          ],
          "internalType": "struct MonetaryTypesLib.Currency",
          "name": "currency",
          "type": "tuple"
        }
      ],
      "name": "qualifyProposal",
      "outputs": [],
      "payable": false,
      "stateMutability": "nonpayable",
      "type": "function"
    },
    {
      "constant": true,
      "inputs": [
        {
          "internalType": "address",
          "name": "wallet",
          "type": "address"
        },
        {
          "internalType": "uint256",
          "name": "nonce",
          "type": "uint256"
        },
        {
          "components": [
            {
              "internalType": "address",
              "name": "ct",
              "type": "address"
            },
            {
              "internalType": "uint256",
              "name": "id",
              "type": "uint256"
            }
          ],
          "internalType": "struct MonetaryTypesLib.Currency",
          "name": "currency",
          "type": "tuple"
        }
      ],
      "name": "hasProposal",
      "outputs": [
        {
          "internalType": "bool",
          "name": "",
          "type": "bool"
        }
      ],
      "payable": false,
      "stateMutability": "view",
      "type": "function"
    },
    {
      "constant": true,
      "inputs": [
        {
          "internalType": "address",
          "name": "wallet",
          "type": "address"
        },
        {
          "components": [
            {
              "internalType": "address",
              "name": "ct",
              "type": "address"
            },
            {
              "internalType": "uint256",
              "name": "id",
              "type": "uint256"
            }
          ],
          "internalType": "struct MonetaryTypesLib.Currency",
          "name": "currency",
          "type": "tuple"
        }
      ],
      "name": "hasProposal",
      "outputs": [
        {
          "internalType": "bool",
          "name": "",
          "type": "bool"
        }
      ],
      "payable": false,
      "stateMutability": "view",
      "type": "function"
    },
    {
      "constant": true,
      "inputs": [
        {
          "internalType": "address",
          "name": "wallet",
          "type": "address"
        },
        {
          "components": [
            {
              "internalType": "address",
              "name": "ct",
              "type": "address"
            },
            {
              "internalType": "uint256",
              "name": "id",
              "type": "uint256"
            }
          ],
          "internalType": "struct MonetaryTypesLib.Currency",
          "name": "currency",
          "type": "tuple"
        }
      ],
      "name": "hasProposalTerminated",
      "outputs": [
        {
          "internalType": "bool",
          "name": "",
          "type": "bool"
        }
      ],
      "payable": false,
      "stateMutability": "view",
      "type": "function"
    },
    {
      "constant": true,
      "inputs": [
        {
          "internalType": "address",
          "name": "wallet",
          "type": "address"
        },
        {
          "components": [
            {
              "internalType": "address",
              "name": "ct",
              "type": "address"
            },
            {
              "internalType": "uint256",
              "name": "id",
              "type": "uint256"
            }
          ],
          "internalType": "struct MonetaryTypesLib.Currency",
          "name": "currency",
          "type": "tuple"
        }
      ],
      "name": "hasProposalExpired",
      "outputs": [
        {
          "internalType": "bool",
          "name": "",
          "type": "bool"
        }
      ],
      "payable": false,
      "stateMutability": "view",
      "type": "function"
    },
    {
      "constant": true,
      "inputs": [
        {
          "internalType": "address",
          "name": "wallet",
          "type": "address"
        },
        {
          "components": [
            {
              "internalType": "address",
              "name": "ct",
              "type": "address"
            },
            {
              "internalType": "uint256",
              "name": "id",
              "type": "uint256"
            }
          ],
          "internalType": "struct MonetaryTypesLib.Currency",
          "name": "currency",
          "type": "tuple"
        }
      ],
      "name": "proposalNonce",
      "outputs": [
        {
          "internalType": "uint256",
          "name": "",
          "type": "uint256"
        }
      ],
      "payable": false,
      "stateMutability": "view",
      "type": "function"
    },
    {
      "constant": true,
      "inputs": [
        {
          "internalType": "address",
          "name": "wallet",
          "type": "address"
        },
        {
          "components": [
            {
              "internalType": "address",
              "name": "ct",
              "type": "address"
            },
            {
              "internalType": "uint256",
              "name": "id",
              "type": "uint256"
            }
          ],
          "internalType": "struct MonetaryTypesLib.Currency",
          "name": "currency",
          "type": "tuple"
        }
      ],
      "name": "proposalReferenceBlockNumber",
      "outputs": [
        {
          "internalType": "uint256",
          "name": "",
          "type": "uint256"
        }
      ],
      "payable": false,
      "stateMutability": "view",
      "type": "function"
    },
    {
      "constant": true,
      "inputs": [
        {
          "internalType": "address",
          "name": "wallet",
          "type": "address"
        },
        {
          "components": [
            {
              "internalType": "address",
              "name": "ct",
              "type": "address"
            },
            {
              "internalType": "uint256",
              "name": "id",
              "type": "uint256"
            }
          ],
          "internalType": "struct MonetaryTypesLib.Currency",
          "name": "currency",
          "type": "tuple"
        }
      ],
      "name": "proposalDefinitionBlockNumber",
      "outputs": [
        {
          "internalType": "uint256",
          "name": "",
          "type": "uint256"
        }
      ],
      "payable": false,
      "stateMutability": "view",
      "type": "function"
    },
    {
      "constant": true,
      "inputs": [
        {
          "internalType": "address",
          "name": "wallet",
          "type": "address"
        },
        {
          "components": [
            {
              "internalType": "address",
              "name": "ct",
              "type": "address"
            },
            {
              "internalType": "uint256",
              "name": "id",
              "type": "uint256"
            }
          ],
          "internalType": "struct MonetaryTypesLib.Currency",
          "name": "currency",
          "type": "tuple"
        }
      ],
      "name": "proposalExpirationTime",
      "outputs": [
        {
          "internalType": "uint256",
          "name": "",
          "type": "uint256"
        }
      ],
      "payable": false,
      "stateMutability": "view",
      "type": "function"
    },
    {
      "constant": true,
      "inputs": [
        {
          "internalType": "address",
          "name": "wallet",
          "type": "address"
        },
        {
          "components": [
            {
              "internalType": "address",
              "name": "ct",
              "type": "address"
            },
            {
              "internalType": "uint256",
              "name": "id",
              "type": "uint256"
            }
          ],
          "internalType": "struct MonetaryTypesLib.Currency",
          "name": "currency",
          "type": "tuple"
        }
      ],
      "name": "proposalStatus",
      "outputs": [
        {
          "internalType": "enum SettlementChallengeTypesLib.Status",
          "name": "",
          "type": "uint8"
        }
      ],
      "payable": false,
      "stateMutability": "view",
      "type": "function"
    },
    {
      "constant": true,
      "inputs": [
        {
          "internalType": "address",
          "name": "wallet",
          "type": "address"
        },
        {
          "components": [
            {
              "internalType": "address",
              "name": "ct",
              "type": "address"
            },
            {
              "internalType": "uint256",
              "name": "id",
              "type": "uint256"
            }
          ],
          "internalType": "struct MonetaryTypesLib.Currency",
          "name": "currency",
          "type": "tuple"
        }
      ],
      "name": "proposalCumulativeTransferAmount",
      "outputs": [
        {
          "internalType": "int256",
          "name": "",
          "type": "int256"
        }
      ],
      "payable": false,
      "stateMutability": "view",
      "type": "function"
    },
    {
      "constant": true,
      "inputs": [
        {
          "internalType": "address",
          "name": "wallet",
          "type": "address"
        },
        {
          "components": [
            {
              "internalType": "address",
              "name": "ct",
              "type": "address"
            },
            {
              "internalType": "uint256",
              "name": "id",
              "type": "uint256"
            }
          ],
          "internalType": "struct MonetaryTypesLib.Currency",
          "name": "currency",
          "type": "tuple"
        }
      ],
      "name": "proposalStageAmount",
      "outputs": [
        {
          "internalType": "int256",
          "name": "",
          "type": "int256"
        }
      ],
      "payable": false,
      "stateMutability": "view",
      "type": "function"
    },
    {
      "constant": true,
      "inputs": [
        {
          "internalType": "address",
          "name": "wallet",
          "type": "address"
        },
        {
          "components": [
            {
              "internalType": "address",
              "name": "ct",
              "type": "address"
            },
            {
              "internalType": "uint256",
              "name": "id",
              "type": "uint256"
            }
          ],
          "internalType": "struct MonetaryTypesLib.Currency",
          "name": "currency",
          "type": "tuple"
        }
      ],
      "name": "proposalTargetBalanceAmount",
      "outputs": [
        {
          "internalType": "int256",
          "name": "",
          "type": "int256"
        }
      ],
      "payable": false,
      "stateMutability": "view",
      "type": "function"
    },
    {
      "constant": true,
      "inputs": [
        {
          "internalType": "address",
          "name": "wallet",
          "type": "address"
        },
        {
          "components": [
            {
              "internalType": "address",
              "name": "ct",
              "type": "address"
            },
            {
              "internalType": "uint256",
              "name": "id",
              "type": "uint256"
            }
          ],
          "internalType": "struct MonetaryTypesLib.Currency",
          "name": "currency",
          "type": "tuple"
        }
      ],
      "name": "proposalChallengedHash",
      "outputs": [
        {
          "internalType": "bytes32",
          "name": "",
          "type": "bytes32"
        }
      ],
      "payable": false,
      "stateMutability": "view",
      "type": "function"
    },
    {
      "constant": true,
      "inputs": [
        {
          "internalType": "address",
          "name": "wallet",
          "type": "address"
        },
        {
          "components": [
            {
              "internalType": "address",
              "name": "ct",
              "type": "address"
            },
            {
              "internalType": "uint256",
              "name": "id",
              "type": "uint256"
            }
          ],
          "internalType": "struct MonetaryTypesLib.Currency",
          "name": "currency",
          "type": "tuple"
        }
      ],
      "name": "proposalChallengedKind",
      "outputs": [
        {
          "internalType": "string",
          "name": "",
          "type": "string"
        }
      ],
      "payable": false,
      "stateMutability": "view",
      "type": "function"
    },
    {
      "constant": true,
      "inputs": [
        {
          "internalType": "address",
          "name": "wallet",
          "type": "address"
        },
        {
          "components": [
            {
              "internalType": "address",
              "name": "ct",
              "type": "address"
            },
            {
              "internalType": "uint256",
              "name": "id",
              "type": "uint256"
            }
          ],
          "internalType": "struct MonetaryTypesLib.Currency",
          "name": "currency",
          "type": "tuple"
        }
      ],
      "name": "proposalWalletInitiated",
      "outputs": [
        {
          "internalType": "bool",
          "name": "",
          "type": "bool"
        }
      ],
      "payable": false,
      "stateMutability": "view",
      "type": "function"
    },
    {
      "constant": true,
      "inputs": [
        {
          "internalType": "address",
          "name": "wallet",
          "type": "address"
        },
        {
          "components": [
            {
              "internalType": "address",
              "name": "ct",
              "type": "address"
            },
            {
              "internalType": "uint256",
              "name": "id",
              "type": "uint256"
            }
          ],
          "internalType": "struct MonetaryTypesLib.Currency",
          "name": "currency",
          "type": "tuple"
        }
      ],
      "name": "proposalDisqualificationChallenger",
      "outputs": [
        {
          "internalType": "address",
          "name": "",
          "type": "address"
        }
      ],
      "payable": false,
      "stateMutability": "view",
      "type": "function"
    },
    {
      "constant": true,
      "inputs": [
        {
          "internalType": "address",
          "name": "wallet",
          "type": "address"
        },
        {
          "components": [
            {
              "internalType": "address",
              "name": "ct",
              "type": "address"
            },
            {
              "internalType": "uint256",
              "name": "id",
              "type": "uint256"
            }
          ],
          "internalType": "struct MonetaryTypesLib.Currency",
          "name": "currency",
          "type": "tuple"
        }
      ],
      "name": "proposalDisqualificationNonce",
      "outputs": [
        {
          "internalType": "uint256",
          "name": "",
          "type": "uint256"
        }
      ],
      "payable": false,
      "stateMutability": "view",
      "type": "function"
    },
    {
      "constant": true,
      "inputs": [
        {
          "internalType": "address",
          "name": "wallet",
          "type": "address"
        },
        {
          "components": [
            {
              "internalType": "address",
              "name": "ct",
              "type": "address"
            },
            {
              "internalType": "uint256",
              "name": "id",
              "type": "uint256"
            }
          ],
          "internalType": "struct MonetaryTypesLib.Currency",
          "name": "currency",
          "type": "tuple"
        }
      ],
      "name": "proposalDisqualificationBlockNumber",
      "outputs": [
        {
          "internalType": "uint256",
          "name": "",
          "type": "uint256"
        }
      ],
      "payable": false,
      "stateMutability": "view",
      "type": "function"
    },
    {
      "constant": true,
      "inputs": [
        {
          "internalType": "address",
          "name": "wallet",
          "type": "address"
        },
        {
          "components": [
            {
              "internalType": "address",
              "name": "ct",
              "type": "address"
            },
            {
              "internalType": "uint256",
              "name": "id",
              "type": "uint256"
            }
          ],
          "internalType": "struct MonetaryTypesLib.Currency",
          "name": "currency",
          "type": "tuple"
        }
      ],
      "name": "proposalDisqualificationCandidateHash",
      "outputs": [
        {
          "internalType": "bytes32",
          "name": "",
          "type": "bytes32"
        }
      ],
      "payable": false,
      "stateMutability": "view",
      "type": "function"
    },
    {
      "constant": true,
      "inputs": [
        {
          "internalType": "address",
          "name": "wallet",
          "type": "address"
        },
        {
          "components": [
            {
              "internalType": "address",
              "name": "ct",
              "type": "address"
            },
            {
              "internalType": "uint256",
              "name": "id",
              "type": "uint256"
            }
          ],
          "internalType": "struct MonetaryTypesLib.Currency",
          "name": "currency",
          "type": "tuple"
        }
      ],
      "name": "proposalDisqualificationCandidateKind",
      "outputs": [
        {
          "internalType": "string",
          "name": "",
          "type": "string"
        }
      ],
      "payable": false,
      "stateMutability": "view",
      "type": "function"
    },
    {
      "constant": false,
      "inputs": [
        {
          "components": [
            {
              "internalType": "address",
              "name": "wallet",
              "type": "address"
            },
            {
              "internalType": "uint256",
              "name": "nonce",
              "type": "uint256"
            },
            {
              "internalType": "uint256",
              "name": "referenceBlockNumber",
              "type": "uint256"
            },
            {
              "internalType": "uint256",
              "name": "definitionBlockNumber",
              "type": "uint256"
            },
            {
              "internalType": "uint256",
              "name": "expirationTime",
              "type": "uint256"
            },
            {
              "internalType": "enum SettlementChallengeTypesLib.Status",
              "name": "status",
              "type": "uint8"
            },
            {
              "components": [
                {
                  "internalType": "int256",
                  "name": "cumulativeTransfer",
                  "type": "int256"
                },
                {
                  "internalType": "int256",
                  "name": "stage",
                  "type": "int256"
                },
                {
                  "internalType": "int256",
                  "name": "targetBalance",
                  "type": "int256"
                }
              ],
              "internalType": "struct SettlementChallengeTypesLib.Amounts",
              "name": "amounts",
              "type": "tuple"
            },
            {
              "components": [
                {
                  "internalType": "address",
                  "name": "ct",
                  "type": "address"
                },
                {
                  "internalType": "uint256",
                  "name": "id",
                  "type": "uint256"
                }
              ],
              "internalType": "struct MonetaryTypesLib.Currency",
              "name": "currency",
              "type": "tuple"
            },
            {
              "components": [
                {
                  "internalType": "string",
                  "name": "kind",
                  "type": "string"
                },
                {
                  "internalType": "bytes32",
                  "name": "hash",
                  "type": "bytes32"
                }
              ],
              "internalType": "struct SettlementChallengeTypesLib.Driip",
              "name": "challenged",
              "type": "tuple"
            },
            {
              "internalType": "bool",
              "name": "walletInitiated",
              "type": "bool"
            },
            {
              "internalType": "bool",
              "name": "terminated",
              "type": "bool"
            },
            {
              "components": [
                {
                  "internalType": "address",
                  "name": "challenger",
                  "type": "address"
                },
                {
                  "internalType": "uint256",
                  "name": "nonce",
                  "type": "uint256"
                },
                {
                  "internalType": "uint256",
                  "name": "blockNumber",
                  "type": "uint256"
                },
                {
                  "components": [
                    {
                      "internalType": "string",
                      "name": "kind",
                      "type": "string"
                    },
                    {
                      "internalType": "bytes32",
                      "name": "hash",
                      "type": "bytes32"
                    }
                  ],
                  "internalType": "struct SettlementChallengeTypesLib.Driip",
                  "name": "candidate",
                  "type": "tuple"
                }
              ],
              "internalType": "struct SettlementChallengeTypesLib.Disqualification",
              "name": "disqualification",
              "type": "tuple"
            }
          ],
          "internalType": "struct SettlementChallengeTypesLib.Proposal",
          "name": "proposal",
          "type": "tuple"
        }
      ],
      "name": "upgradeProposal",
      "outputs": [],
      "payable": false,
      "stateMutability": "nonpayable",
      "type": "function"
    }
  ],
  "bytecode": "0x60806040523480156200001157600080fd5b5060405162005fcd38038062005fcd8339810160408190526200003491620000b3565b80806001600160a01b0381166200004a57600080fd5b6001600160a01b0381163014156200006157600080fd5b5060008054610100600160a81b0319166101006001600160a01b0393909316928302179055600180546001600160a01b03191690911790555062000108565b8051620000ad81620000ee565b92915050565b600060208284031215620000c657600080fd5b6000620000d48484620000a0565b949350505050565b60006001600160a01b038216620000ad565b620000f981620000dc565b81146200010557600080fd5b50565b615eb580620001186000396000f3fe608060405234801561001057600080fd5b50600436106102bf5760003560e01c8063013cf08b146102c45780630a9f46ad146102f8578063152d07311461030d57806317ba3f90146103175780631b90e3c11461033757806326885b541461034a5780632738a1121461035d5780632b5672e3146103655780632b91e0a9146103785780632c1da19a1461038b5780632ee2ed25146103ab5780632f013a00146103be57806335a42383146103c65780633b238528146103d95780633b58c501146103ec5780633b7bea6c146103ff5780634476d23b1461040757806350b08c021461041c57806352a0dd101461042f5780635385f37b146104425780635482c73514610455578063553d90e914610468578063565872291461047b57806356ec90751461048e578063570ca735146104a15780635de4ccb0146104a95780635df1b0a3146104b15780635fc6100d146104c4578063600e461e146104d757806362250584146104ea578063627f09c3146104f25780636374e9f6146105055780636543ade114610518578063667666c81461052b57806366a6f36d1461053e5780636c70bee9146105515780636d439372146105665780636e90a5961461056e57806370327ea1146105815780637e15dd5c146105895780637ff81c371461059c57806388845c95146105af5780638ab3e965146105b75780638b4ed4c2146105ca5780638e8cef12146105dd57806390cfe999146105f057806394da13eb146105f8578063962147351461060b5780639d25487e1461061e578063a495a30614610626578063b3ab15fb14610639578063b6e2fc331461064c578063bb3bffe01461066c578063c46fcd751461067f578063cf293aac14610692578063d5f39488146106a5578063d7e7088a146106ad578063da473c57146106c0578063e58be020146106d3578063f99b128b146106db578063fdd9ec7d146106ee575b600080fd5b6102d76102d23660046148b1565b610701565b6040516102ef9c9b9a99989796959493929190615959565b60405180910390f35b610300610992565b6040516102ef9190615a16565b610315610999565b005b61032a610325366004614474565b610a34565b6040516102ef9190615a08565b610300610345366004614530565b610a6e565b610315610358366004614530565b610aee565b610315610cd1565b6103156103733660046144df565b610d37565b61032a610386366004614474565b610e5f565b61039e610399366004614530565b610e7d565b6040516102ef9190615a5b565b6103006103b9366004614530565b610f84565b61032a611001565b6103156103d4366004614657565b61100a565b61032a6103e7366004614530565b6112e5565b6103156103fa3660046144df565b61131f565b6103006113f9565b61040f6113ff565b6040516102ef919061565d565b61031561042a366004614474565b611413565b61031561043d366004614614565b6114cf565b610300610450366004614530565b6116f4565b61032a610463366004614530565b611771565b610300610476366004614530565b6117f1565b61040f610489366004614530565b611871565b61030061049c366004614530565b6118f8565b61040f611975565b61040f611984565b61032a6104bf3660046144df565b611993565b6103006104d23660046146b8565b6119e3565b6103006104e5366004614530565b611a0f565b61039e611a8f565b61031561050036600461485f565b611abb565b610315610513366004614530565b611b5b565b61032a6105263660046147fe565b611f0c565b610315610539366004614560565b611f51565b61030061054c366004614492565b6122c7565b6105596122ea565b6040516102ef9190615a24565b61032a6122f9565b61030061057c366004614530565b612309565b610315612386565b6103156105973660046148b1565b6123e9565b61032a6105aa366004614530565b61243a565b61039e6124c0565b6103006105c5366004614530565b6124ee565b6103006105d8366004614530565b61256e565b6103156105eb366004614474565b6125ee565b61039e612668565b61039e610606366004614530565b612693565b610315610619366004614474565b612761565b61039e612821565b610315610634366004614614565b61284e565b610315610647366004614474565b612acf565b61065f61065a366004614530565b612b72565b6040516102ef9190615a4d565b61031561067a36600461470d565b612bf3565b61030061068d366004614530565b612c98565b61032a6106a0366004614530565b612d18565b61040f612d99565b6103156106bb366004614474565b612dad565b6103006106ce366004614530565b612e51565b61039e612ed1565b6103156106e936600461487d565b612f00565b6103156106fc366004614474565b6132c4565b6006818154811061070e57fe5b90600052602060002090601302016000915090508060000160009054906101000a90046001600160a01b0316908060010154908060020154908060030154908060040154908060050160009054906101000a900460ff169080600601604051806060016040529081600082015481526020016001820154815260200160028201548152505090806009016040518060400160405290816000820160009054906101000a90046001600160a01b03166001600160a01b03166001600160a01b031681526020016001820154815250509080600b01604051806040016040529081600082018054600181600116156101000203166002900480601f0160208091040260200160405190810160405280929190818152602001828054600181600116156101000203166002900480156108855780601f1061085a57610100808354040283529160200191610885565b820191906000526020600020905b81548152906001019060200180831161086857829003601f168201915b5050509183525050600191820154602091820152600d84015460408051608081018252600e870180546001600160a01b03168252600f880154828601526010880154828401528251601189018054606060026101009a8316158b026000190190921691909104601f8101899004909802830181018652948201878152989960ff8088169a999097049096169795969395929480870194929391928492918491908401828280156109765780601f1061094b57610100808354040283529160200191610976565b820191906000526020600020905b81548152906001019060200180831161095957829003601f168201915b505050505081526020016001820154815250508152505090508c565b6006545b90565b6005546001600160a01b031633146109cc5760405162461bcd60e51b81526004016109c390615b7c565b60405180910390fd5b600554600160a01b900460ff16156109f65760405162461bcd60e51b81526004016109c390615b2c565b6005805460ff60a01b1916600160a01b1790556040517f256d81afb4cac3b3b3d32a91f6efd3463a78d7a9453a93cb0132f36a23972d4290600090a1565b6000610a3f82610e5f565b8015610a6657506001600160a01b0382166000908152600260205260409020600101544210155b90505b919050565b6001600160a01b0380831660009081526007602090815260408083208551909416835292815282822084820151835290529081205480610ac05760405162461bcd60e51b81526004016109c390615acc565b60066001820381548110610ad057fe5b60009182526020909120601260139092020101549150505b92915050565b6040518060400160405280600f81526020016e1c995b5bdd9957dc1c9bdc1bdcd85b608a1b815250610b203382611993565b610b2957600080fd5b6001600160a01b038084166000908152600760209081526040808320865190941683529281528282208582015183529052205480610b675750610ccc565b600080516020615e538339815191528460066001840381548110610b8757fe5b90600052602060002090601302016001015460066001850381548110610ba957fe5b90600052602060002090601302016006016000015460066001860381548110610bce57fe5b90600052602060002090601302016006016001015460066001870381548110610bf357fe5b9060005260206000209060130201600601600201548860066001890381548110610c1957fe5b906000526020600020906013020160020154600660018a0381548110610c3b57fe5b9060005260206000209060130201600d0160009054906101000a900460ff16600660018b0381548110610c6a57fe5b9060005260206000209060130201600b0160010154600660018c0381548110610c8f57fe5b9060005260206000209060130201600b01600001604051610cb99a999897969594939291906158cd565b60405180910390a1610cca81613339565b505b505050565b33610cda6113ff565b6001600160a01b031614610ced57600080fd5b60005460ff1615610cfd57600080fd5b7f787a5d936e74f4b564b9153575886059829c78cd9927b1be5e0d976b317ef73633604051610d2c919061566b565b60405180910390a133ff5b610d3f613893565b610d4857600080fd5b816001600160a01b038116610d5c57600080fd5b6001600160a01b038116301415610d7257600080fd5b6001600160a01b03831660009081526002602052604090205460ff16610d9757600080fd5b6000610da2836138a9565b6001600160a01b0385166000908152600260208181526040808420858552909201905290205490915060ff1615610dd857600080fd5b6001600160a01b03841660009081526002602081815260408084208585528084018352818520805460ff19166001908117909155938352600301805493840181558452922001829055517fec1b982d69bfc1a6fd8becf191d9a633486c822d3bdedd52303ca81fa635750190610e519086908690615694565b60405180910390a150505050565b6001600160a01b031660009081526002602052604090205460ff1690565b6001600160a01b038083166000908152600760209081526040808320855190941683529281528282208482015183529052205460609080610ed05760405162461bcd60e51b81526004016109c390615afc565b60066001820381548110610ee057fe5b6000918252602091829020601160139092020101805460408051601f6002600019610100600187161502019094169390930492830185900485028101850190915281815292830182828015610f765780601f10610f4b57610100808354040283529160200191610f76565b820191906000526020600020905b815481529060010190602001808311610f5957829003601f168201915b505050505091505092915050565b6001600160a01b0380831660009081526007602090815260408083208551909416835292815282822084820151835290529081205480610fd65760405162461bcd60e51b81526004016109c390615bdc565b60066001820381548110610fe657fe5b90600052602060002090601302016001015491505092915050565b60005460ff1681565b604051806040016040528060128152602001711d195c9b5a5b985d1957dc1c9bdc1bdcd85b60721b81525061103f3382611993565b61104857600080fd5b6001600160a01b03808616600090815260076020908152604080832088519094168352928152828220878201518352905220548061108657506112de565b6006600182038154811061109657fe5b60009182526020909120601390910201600d015460ff161515831515146110cf5760405162461bcd60e51b81526004016109c390615c3c565b8315611148576001600160a01b038616600090815260086020526040812060068054839190600019860190811061110257fe5b60009182526020808320600160139093020191909101548352828101939093526040918201812089516001600160a01b0316825283528181208984015182529092529020555b60016006600183038154811061115a57fe5b9060005260206000209060130201600d0160016101000a81548160ff021916908315150217905550600080516020615e1383398151915286600660018403815481106111a257fe5b906000526020600020906013020160010154600660018503815481106111c457fe5b906000526020600020906013020160060160000154600660018603815481106111e957fe5b9060005260206000209060130201600601600101546006600187038154811061120e57fe5b9060005260206000209060130201600601600201548a6006600189038154811061123457fe5b906000526020600020906013020160020154600660018a038154811061125657fe5b9060005260206000209060130201600d0160009054906101000a900460ff16600660018b038154811061128557fe5b9060005260206000209060130201600b0160010154600660018c03815481106112aa57fe5b9060005260206000209060130201600b016000016040516112d49a999897969594939291906158cd565b60405180910390a1505b5050505050565b6001600160a01b03918216600090815260076020908152604080832084519095168352938152838220928101518252919091522054151590565b611327613893565b61133057600080fd5b816001600160a01b03811661134457600080fd5b6001600160a01b03811630141561135a57600080fd5b6000611365836138a9565b6001600160a01b0385166000908152600260208181526040808420858552909201905290205490915060ff1661139a57600080fd5b6001600160a01b0384166000908152600260208181526040808420858552909201905290819020805460ff19169055517f92f4af6130f47c92f3899e06611c8c6ef191fb81207ad2675d134af619d2fe7d90610e519086908690615694565b60035481565b60005461010090046001600160a01b031690565b61141b613893565b61142457600080fd5b806001600160a01b03811661143857600080fd5b6001600160a01b03811630141561144e57600080fd5b6001600160a01b03821660009081526002602052604090205460ff1661147357600080fd5b6001600160a01b03821660009081526002602052604090819020805460ff19169055517f777645c5437dfbf962f57a281ead25f3d513f2f8e938685bbfc1738e81c9880e906114c390849061565d565b60405180910390a15050565b6040518060400160405280600f81526020016e1c995b5bdd9957dc1c9bdc1bdcd85b608a1b8152506115013382611993565b61150a57600080fd5b6001600160a01b0380851660009081526007602090815260408083208751909416835292815282822086820151835290522054806115485750610cca565b6006600182038154811061155857fe5b60009182526020909120601390910201600d015460ff161515831515146115915760405162461bcd60e51b81526004016109c390615bac565b600080516020615e5383398151915285600660018403815481106115b157fe5b906000526020600020906013020160010154600660018503815481106115d357fe5b906000526020600020906013020160060160000154600660018603815481106115f857fe5b9060005260206000209060130201600601600101546006600187038154811061161d57fe5b906000526020600020906013020160060160020154896006600189038154811061164357fe5b906000526020600020906013020160020154600660018a038154811061166557fe5b9060005260206000209060130201600d0160009054906101000a900460ff16600660018b038154811061169457fe5b9060005260206000209060130201600b0160010154600660018c03815481106116b957fe5b9060005260206000209060130201600b016000016040516116e39a999897969594939291906158cd565b60405180910390a16112de81613339565b6001600160a01b03808316600090815260076020908152604080832085519094168352928152828220848201518352905290812054806117465760405162461bcd60e51b81526004016109c390615b6c565b6006600182038154811061175657fe5b90600052602060002090601302016003015491505092915050565b6001600160a01b03808316600090815260076020908152604080832085519094168352928152828220848201518352905290812054806117c35760405162461bcd60e51b81526004016109c390615bcc565b600660018203815481106117d357fe5b90600052602060002090601302016004015442101591505092915050565b6001600160a01b03808316600090815260076020908152604080832085519094168352928152828220848201518352905290812054806118435760405162461bcd60e51b81526004016109c390615bbc565b6006600182038154811061185357fe5b9060005260206000209060130201600e016001015491505092915050565b6001600160a01b03808316600090815260076020908152604080832085519094168352928152828220848201518352905290812054806118c35760405162461bcd60e51b81526004016109c390615c0c565b600660018203815481106118d357fe5b60009182526020909120601390910201600e01546001600160a01b0316949350505050565b6001600160a01b038083166000908152600760209081526040808320855190941683529281528282208482015183529052908120548061194a5760405162461bcd60e51b81526004016109c390615b9c565b6006600182038154811061195a57fe5b90600052602060002090601302016004015491505092915050565b6001546001600160a01b031681565b6005546001600160a01b031681565b60008061199f836138a9565b90506119aa84610a34565b80156119db57506001600160a01b0384166000908152600260208181526040808420858552909201905290205460ff165b949350505050565b600860209081526000948552604080862082529385528385208152918452828420909152825290205481565b6001600160a01b0380831660009081526007602090815260408083208551909416835292815282822084820151835290529081205480611a615760405162461bcd60e51b81526004016109c390615aac565b60066001820381548110611a7157fe5b90600052602060002090601302016006016001015491505092915050565b6040518060400160405280601081526020016f1c5d585b1a599e57dc1c9bdc1bdcd85b60821b81525081565b611ac3613893565b611acc57600080fd5b806001600160a01b038116611ae057600080fd5b60045482906001600160a01b039081169082168114610cca57600480546001600160a01b038681166001600160a01b03198316179092556040519116907f634f61bf00e14adedce330c80c2823e16e184f189ebe853e1ddecc4a268477ff90611b4c9083908890615a32565b60405180910390a15050505050565b6040518060400160405280601081526020016f1c5d585b1a599e57dc1c9bdc1bdcd85b60821b815250611b8e3382611993565b611b9757600080fd5b6001600160a01b038084166000908152600760209081526040808320865190941683529281528282208582015183529052205480611be75760405162461bcd60e51b81526004016109c390615b4c565b7f30053b5bcb3227e70f74ff700ec19b19e81e85335d1363dd0c99832a0493b29c8460066001840381548110611c1957fe5b90600052602060002090601302016001015460066001850381548110611c3b57fe5b90600052602060002090601302016006016000015460066001860381548110611c6057fe5b90600052602060002090601302016006016001015460066001870381548110611c8557fe5b9060005260206000209060130201600601600201548860066001890381548110611cab57fe5b906000526020600020906013020160020154600660018a0381548110611ccd57fe5b9060005260206000209060130201600d0160009054906101000a900460ff16600660018b0381548110611cfc57fe5b60009182526020909120600e6013909202010154600680546001600160a01b03909216916000198d01908110611d2e57fe5b9060005260206000209060130201600e0160010154600660018d0381548110611d5357fe5b9060005260206000209060130201600e0160030160010154600660018e0381548110611d7b57fe5b9060005260206000209060130201600e01600301600001604051611daa9c9b9a99989796959493929190615789565b60405180910390a1600060066001830381548110611dc457fe5b60009182526020909120600560139092020101805460ff191660018381811115611dea57fe5b0217905550611e85600460009054906101000a90046001600160a01b03166001600160a01b031663fbdfd8e76040518163ffffffff1660e01b815260040160206040518083038186803b158015611e4057600080fd5b505afa158015611e54573d6000803e3d6000fd5b505050506040513d601f19601f82011682018060405250611e7891908101906148cf565b429063ffffffff6138d916565b60066001830381548110611e9557fe5b90600052602060002090601302016004018190555060066001820381548110611eba57fe5b600091825260208220600e60139092020190810180546001600160a01b0319168155600f820183905560108201839055919060110181611efa8282613ec6565b60018201600090555050505050505050565b6001600160a01b0380841660009081526008602090815260408083208684528252808320855190941683529281528282208482015183529052205415155b9392505050565b60405180604001604052806013815260200172191a5cdc5d585b1a599e57dc1c9bdc1bdcd85b606a1b815250611f873382611993565b611f9057600080fd5b6001600160a01b0380891660009081526007602090815260408083208b5190941683529281528282208a82015183529052205480611fe05760405162461bcd60e51b81526004016109c390615bfc565b600160066001830381548110611ff257fe5b60009182526020909120600560139092020101805460ff19166001838181111561201857fe5b021790555061206e600460009054906101000a90046001600160a01b03166001600160a01b031663fbdfd8e76040518163ffffffff1660e01b815260040160206040518083038186803b158015611e4057600080fd5b6006600183038154811061207e57fe5b90600052602060002090601302016004018190555086600660018303815481106120a457fe5b9060005260206000209060130201600e0160000160006101000a8154816001600160a01b0302191690836001600160a01b0316021790555084600660018303815481106120ed57fe5b9060005260206000209060130201600e0160010181905550856006600183038154811061211657fe5b9060005260206000209060130201600e0160020181905550836006600183038154811061213f57fe5b600091825260209091206012601390920201015560068054849190600019840190811061216857fe5b9060005260206000209060130201600e016003016000019080519060200190612192929190613f0d565b507f9303d1d4f110ee06b0b0a64cf77c16e0f0ac399bb14371df4c5801c6ac4827fb89600660018403815481106121c557fe5b906000526020600020906013020160010154600660018503815481106121e757fe5b9060005260206000209060130201600601600001546006600186038154811061220c57fe5b9060005260206000209060130201600601600101546006600187038154811061223157fe5b9060005260206000209060130201600601600201548d6006600189038154811061225757fe5b906000526020600020906013020160020154600660018a038154811061227957fe5b9060005260206000209060130201600d0160009054906101000a900460ff168f8e8e8e6040516122b49c9b9a999897969594939291906156cf565b60405180910390a1505050505050505050565b600760209081526000938452604080852082529284528284209052825290205481565b6004546001600160a01b031681565b600554600160a01b900460ff1681565b6001600160a01b038083166000908152600760209081526040808320855190941683529281528282208482015183529052908120548061235b5760405162461bcd60e51b81526004016109c390615a9c565b6006600182038154811061236b57fe5b90600052602060002090601302016002015491505092915050565b3361238f6113ff565b6001600160a01b0316146123a257600080fd5b6000805460ff191660011790556040517fd5a2a04a775c741c2ca0dc46ea7ce4835190e1aaf1ca018def0e82568ec33616906123df90339061566b565b60405180910390a1565b6123f1613893565b6123fa57600080fd5b60038190556040517f4f1d324a1cbffc352fb64f1d73d95e4b200d92f99ef39bf2d7f5b41f946909d69061242f908390615a16565b60405180910390a150565b6001600160a01b038083166000908152600760209081526040808320855190941683529281528282208482015183529052908120548061248c5760405162461bcd60e51b81526004016109c390615c1c565b6006600182038154811061249c57fe5b60009182526020909120601390910201600d0154610100900460ff16949350505050565b604051806040016040528060128152602001711d195c9b5a5b985d1957dc1c9bdc1bdcd85b60721b81525081565b6001600160a01b03808316600090815260076020908152604080832085519094168352928152828220848201518352905290812054806125405760405162461bcd60e51b81526004016109c390615a6c565b6006600182038154811061255057fe5b90600052602060002090601302016006016000015491505092915050565b6001600160a01b03808316600090815260076020908152604080832085519094168352928152828220848201518352905290812054806125c05760405162461bcd60e51b81526004016109c390615b0c565b600660018203815481106125d057fe5b9060005260206000209060130201600e016002015491505092915050565b6125f6613893565b6125ff57600080fd5b806001600160a01b03811661261357600080fd5b6001600160a01b03811630141561262957600080fd5b612635826003546138e8565b7f7f3a8349917003ed377f6e9ae1608b92edd893903f8983bd274b1f8373dd3b11826003546040516114c39291906156b4565b6040518060400160405280600f81526020016e1c995b5bdd9957dc1c9bdc1bdcd85b608a1b81525081565b6001600160a01b0380831660009081526007602090815260408083208551909416835292815282822084820151835290522054606090806126e65760405162461bcd60e51b81526004016109c390615aec565b600660018203815481106126f657fe5b6000918252602091829020600b60139092020101805460408051601f6002600019610100600187161502019094169390930492830185900485028101850190915281815292830182828015610f765780601f10610f4b57610100808354040283529160200191610f76565b612769613893565b61277257600080fd5b806001600160a01b03811661278657600080fd5b6001600160a01b03811630141561279c57600080fd5b6000546001600160a01b03838116610100909204161461281d57600080546001600160a01b03848116610100908102610100600160a81b03198416179093556040519290910416907f977e5fa58e458501775e0008d275006294c5249e3c08d1d0e3a9f3acad14f6e4906128139083908690615679565b60405180910390a1505b5050565b604051806040016040528060118152602001701a5b9a5d1a585d1957dc1c9bdc1bdcd85b607a1b81525081565b604051806040016040528060128152602001711d195c9b5a5b985d1957dc1c9bdc1bdcd85b60721b8152506128833382611993565b61288c57600080fd5b6001600160a01b0380851660009081526007602090815260408083208751909416835292815282822086820151835290522054806128ca5750610cca565b8215612943576001600160a01b03851660009081526008602052604081206006805483919060001986019081106128fd57fe5b60009182526020808320600160139093020191909101548352828101939093526040918201812088516001600160a01b0316825283528181208884015182529092529020555b60016006600183038154811061295557fe5b9060005260206000209060130201600d0160016101000a81548160ff021916908315150217905550600080516020615e13833981519152856006600184038154811061299d57fe5b906000526020600020906013020160010154600660018503815481106129bf57fe5b906000526020600020906013020160060160000154600660018603815481106129e457fe5b90600052602060002090601302016006016001015460066001870381548110612a0957fe5b9060005260206000209060130201600601600201548960066001890381548110612a2f57fe5b906000526020600020906013020160020154600660018a0381548110612a5157fe5b9060005260206000209060130201600d0160009054906101000a900460ff16600660018b0381548110612a8057fe5b9060005260206000209060130201600b0160010154600660018c0381548110612aa557fe5b9060005260206000209060130201600b01600001604051611b4c9a999897969594939291906158cd565b612ad7613937565b612ae057600080fd5b806001600160a01b038116612af457600080fd5b6001600160a01b038116301415612b0a57600080fd5b6001546001600160a01b0383811691161461281d57600180546001600160a01b038481166001600160a01b03198316179092556040519116907f9f611b789425d0d5b90b920f1b2852907dd865c80074a30b1629aaa041d1812c906128139083908690615679565b6001600160a01b0380831660009081526007602090815260408083208551909416835292815282822084820151835290529081205480612bc45760405162461bcd60e51b81526004016109c390615adc565b60066001820381548110612bd457fe5b600091825260209091206013909102016005015460ff16949350505050565b604051806040016040528060118152602001701a5b9a5d1a585d1957dc1c9bdc1bdcd85b607a1b815250612c273382611993565b612c3057600080fd5b612c428b8b8b8b8b8b8b8b8b8b613948565b7f223e32349b2f1c24d4fafe2f705321885e6d2a04c3e20e87ca62abcfdb51086d8b8b8b8b8b8b8b8b8b8b604051612c839a99989796959493929190615831565b60405180910390a15050505050505050505050565b6001600160a01b0380831660009081526007602090815260408083208551909416835292815282822084820151835290529081205480612cea5760405162461bcd60e51b81526004016109c390615c2c565b60066001820381548110612cfa57fe5b90600052602060002090601302016006016002015491505092915050565b6001600160a01b0380831660009081526007602090815260408083208551909416835292815282822084820151835290529081205480612d6a5760405162461bcd60e51b81526004016109c390615a7c565b60066001820381548110612d7a57fe5b60009182526020909120601390910201600d015460ff16949350505050565b60005461010090046001600160a01b031681565b600554600160a01b900460ff1615612dd75760405162461bcd60e51b81526004016109c390615abc565b6005546001600160a01b031615612e005760405162461bcd60e51b81526004016109c390615b8c565b600580546001600160a01b0319166001600160a01b0383811691909117918290556040517f17c27d402d17bcdbb9529dd01c9816f15dd0c961a9f86427efafa8910bbd1e849261242f92169061565d565b6001600160a01b0380831660009081526007602090815260408083208551909416835292815282822084820151835290529081205480612ea35760405162461bcd60e51b81526004016109c390615b1c565b60066001820381548110612eb357fe5b9060005260206000209060130201600b016001015491505092915050565b60405180604001604052806013815260200172191a5cdc5d585b1a599e57dc1c9bdc1bdcd85b606a1b81525081565b6005546001600160a01b03163314612f2a5760405162461bcd60e51b81526004016109c390615b7c565b600554600160a01b900460ff1615612f545760405162461bcd60e51b81526004016109c390615b2c565b80516001600160a01b039081166000908152600860209081526040808320828601518452825280832060e086018051519095168452825280832093518201518352929052205415612fb75760405162461bcd60e51b81526004016109c390615b5c565b600680546001818101808455600093909352835160139092027ff652222313e28459528d920b65115c16c04f3efc82aaedc97be59f3f377c0d3f810180546001600160a01b039094166001600160a01b031990941693909317835560208501517ff652222313e28459528d920b65115c16c04f3efc82aaedc97be59f3f377c0d4082015560408501517ff652222313e28459528d920b65115c16c04f3efc82aaedc97be59f3f377c0d4182015560608501517ff652222313e28459528d920b65115c16c04f3efc82aaedc97be59f3f377c0d4282015560808501517ff652222313e28459528d920b65115c16c04f3efc82aaedc97be59f3f377c0d4382015560a08501517ff652222313e28459528d920b65115c16c04f3efc82aaedc97be59f3f377c0d44909101805486949360ff199091169083818111156130f657fe5b021790555060c0820151805160068301556020808201516007840155604090910151600883015560e083015180516009840180546001600160a01b0319166001600160a01b03909216919091179055810151600a830155610100830151805180519192600b85019261316b9284920190613f0d565b50602091820151600190910155610120830151600d8301805461014086015115156101000261ff001993151560ff1990921691909117929092169190911790556101608301518051600e840180546001600160a01b039092166001600160a01b031990921691909117815581830151600f85015560408201516010850155606082015180518051939492939192601187019261320a9284920190613f0d565b5060209182015160019091015560065487516001600160a01b03908116600090815260078452604080822060e08c01805151851684529086528183208151870151845286528183208590558b5184168352600886528183208c87015184528652818320815151909416835292855280822092518501518252919093529182902081905590519095507f7bc508d8f7466b13c8eb09620627520659b65805b729eb3d47aa6f8997fe1c5194506114c393508692509050615c4c565b6132cc613893565b6132d557600080fd5b806001600160a01b0381166132e957600080fd5b6001600160a01b0381163014156132ff57600080fd5b61330a8260006138e8565b7fb619d545cb511bd5f02907a1eac4f4cb8dace7b1846852fb0bf5e553937481c1826040516114c3919061565d565b6000600760006006600185038154811061334f57fe5b600091825260208083206013909202909101546001600160a01b03168352820192909252604001812060068054919291600019860190811061338d57fe5b60009182526020808320600960139093020191909101546001600160a01b0316835282019290925260400181206006805491929160001986019081106133cf57fe5b9060005260206000209060130201600901600101548152602001908152602001600020819055506000600860006006600185038154811061340c57fe5b600091825260208083206013909202909101546001600160a01b03168352820192909252604001812060068054919291600019860190811061344a57fe5b906000526020600020906013020160010154815260200190815260200160002060006006600185038154811061347c57fe5b60009182526020808320600960139093020191909101546001600160a01b0316835282019290925260400181206006805491929160001986019081106134be57fe5b60009182526020808320600a60139093020191909101548352820192909252604001902055600654811015613880576006805460001981019081106134ff57fe5b90600052602060002090601302016006600183038154811061351d57fe5b60009182526020909120825460139092020180546001600160a01b0319166001600160a01b0390921691909117815560018083015481830155600280840154908301556003808401549083015560048084015490830155600580840154908301805460ff90921692909160ff191690838181111561359757fe5b021790555060068281015490820155600780830154908201556008808301549082015560098083015490820180546001600160a01b0319166001600160a01b03909216919091179055600a8083015490820155600b80830180549091830190613616908290849060026001821615610100026000190190911604613f8b565b5060019182015490820155600d8381018054918401805460ff938416151560ff19909116178082559154610100908190049093161515830261ff0019909216919091179055600e808501805491850180546001600160a01b0319166001600160a01b03909316929092178255600f80870154908601556010808701549086015560118087018054929593949093918701926136c39284928692600292811615909102600019011604613f8b565b5060018201548160010155505050509050508060076000600660018503815481106136ea57fe5b600091825260208083206013909202909101546001600160a01b03168352820192909252604001812060068054919291600019860190811061372857fe5b60009182526020808320600960139093020191909101546001600160a01b03168352820192909252604001812060068054919291600019860190811061376a57fe5b9060005260206000209060130201600901600101548152602001908152602001600020819055508060086000600660018503815481106137a657fe5b600091825260208083206013909202909101546001600160a01b0316835282019290925260400181206006805491929160001986019081106137e457fe5b906000526020600020906013020160010154815260200190815260200160002060006006600185038154811061381657fe5b60009182526020808320600960139093020191909101546001600160a01b03168352820192909252604001812060068054919291600019860190811061385857fe5b9060005260206000209060130201600901600101548152602001908152602001600020819055505b600680549061281d906000198301614000565b60005461010090046001600160a01b0316331490565b6000816040516020016138bc9190615651565b604051602081830303815290604052805190602001209050919050565b600082820183811015611f4a57fe5b6001600160a01b03821660009081526002602052604090205460ff1661281d576001600160a01b0382166000908152600260205260409020805460ff1916600190811782554283019101555050565b6001546001600160a01b0316331490565b6001600160a01b03808b1660009081526008602090815260408083208d845282528083208951909416835292815282822088820151835290522054156139a05760405162461bcd60e51b81526004016109c390615bec565b604051636b84d93160e01b815273__SafeMathIntLib________________________90636b84d931906139d7908a90600401615a16565b60206040518083038186803b1580156139ef57600080fd5b505af4158015613a03573d6000803e3d6000fd5b505050506040513d601f19601f82011682018060405250613a279190810190614841565b613a435760405162461bcd60e51b81526004016109c390615b3c565b604051636b84d93160e01b815273__SafeMathIntLib________________________90636b84d93190613a7a908990600401615a16565b60206040518083038186803b158015613a9257600080fd5b505af4158015613aa6573d6000803e3d6000fd5b505050506040513d601f19601f82011682018060405250613aca9190810190614841565b613ae65760405162461bcd60e51b81526004016109c390615a8c565b6001600160a01b03808b166000908152600760209081526040808320895190941683529281528282208882015183529052205480613b68576006805460010190613b309082614000565b6001600160a01b03808d1660009081526007602090815260408083208b5190941683529281528282208a820151835290522081905590505b8a60066001830381548110613b7957fe5b906000526020600020906013020160000160006101000a8154816001600160a01b0302191690836001600160a01b031602179055508960066001830381548110613bbf57fe5b9060005260206000209060130201600101819055508460066001830381548110613be557fe5b9060005260206000209060130201600201819055504360066001830381548110613c0b57fe5b906000526020600020906013020160030181905550613c71600460009054906101000a90046001600160a01b03166001600160a01b031663fbdfd8e76040518163ffffffff1660e01b815260040160206040518083038186803b158015611e4057600080fd5b60066001830381548110613c8157fe5b906000526020600020906013020160040181905550600060066001830381548110613ca857fe5b60009182526020909120600560139092020101805460ff191660018381811115613cce57fe5b02179055508560066001830381548110613ce457fe5b906000526020600020906013020160090160008201518160000160006101000a8154816001600160a01b0302191690836001600160a01b03160217905550602082015181600101559050508860066001830381548110613d4057fe5b9060005260206000209060130201600601600001819055508760066001830381548110613d6957fe5b9060005260206000209060130201600601600101819055508660066001830381548110613d9257fe5b9060005260206000209060130201600601600201819055508360066001830381548110613dbb57fe5b60009182526020822060139190910201600d01805460ff191692151592909217909155600680546000198401908110613df057fe5b9060005260206000209060130201600d0160016101000a81548160ff0219169083151502179055508260066001830381548110613e2957fe5b9060005260206000209060130201600b01600101819055508160066001830381548110613e5257fe5b9060005260206000209060130201600b016000019080519060200190613e79929190613f0d565b506001600160a01b039a8b1660009081526008602090815260408083209c83529b81528b82208851909d1682529b8c528a8120968c0151815295909a525050509490209490945550505050565b50805460018160011615610100020316600290046000825580601f10613eec5750613f0a565b601f016020900490600052602060002090810190613f0a919061402c565b50565b828054600181600116156101000203166002900490600052602060002090601f016020900481019282601f10613f4e57805160ff1916838001178555613f7b565b82800160010185558215613f7b579182015b82811115613f7b578251825591602001919060010190613f60565b50613f8792915061402c565b5090565b828054600181600116156101000203166002900490600052602060002090601f016020900481019282601f10613fc45780548555613f7b565b82800160010185558215613f7b57600052602060002091601f016020900482015b82811115613f7b578254825591600101919060010190613fe5565b815481835581811115610ccc57601302816013028360005260206000209182019101610ccc9190614046565b61099691905b80821115613f875760008155600101614032565b61099691905b80821115613f875780546001600160a01b0319908116825560006001830181905560028301819055600383018190556004830181905560058301805460ff19169055600683018190556007830181905560088301819055600983018054909216909155600a8201819055600b8201816140c58282613ec6565b506000600191909101819055600d8301805461ffff19169055600e830180546001600160a01b0319168155600f84018290556010840182905590601184018161410e8282613ec6565b6001820160009055505050505060130161404c565b8035610ae881615d56565b8035610ae881615d6a565b8051610ae881615d6a565b8035610ae881615d73565b8035610ae881615d7c565b8035610ae881615d85565b600082601f83011261417657600080fd5b813561418961418482615c83565b615c5d565b915080825260208301602083018583830111156141a557600080fd5b6141b0838284615d0a565b50505092915050565b6000606082840312156141cb57600080fd5b6141d56060615c5d565b905060006141e38484614144565b82525060206141f484848301614144565b602083015250604061420884828501614144565b60408301525092915050565b60006040828403121561422657600080fd5b6142306040615c5d565b9050600061423e8484614123565b825250602061424f84848301614144565b60208301525092915050565b60006080828403121561426d57600080fd5b6142776080615c5d565b905060006142858484614123565b825250602061429684848301614144565b60208301525060406142aa84828501614144565b60408301525060608201356001600160401b038111156142c957600080fd5b6142d5848285016142e1565b60608301525092915050565b6000604082840312156142f357600080fd5b6142fd6040615c5d565b905081356001600160401b0381111561431557600080fd5b61423e84828501614165565b60006101e0828403121561433457600080fd5b61433f610180615c5d565b9050600061434d8484614123565b825250602061435e84848301614144565b602083015250604061437284828501614144565b604083015250606061438684828501614144565b606083015250608061439a84828501614144565b60808301525060a06143ae8482850161415a565b60a08301525060c06143c2848285016141b9565b60c0830152506101206143d784828501614214565b60e0830152506101608201356001600160401b038111156143f757600080fd5b614403848285016142e1565b610100830152506101806144198482850161412e565b610120830152506101a061442f8482850161412e565b610140830152506101c08201356001600160401b0381111561445057600080fd5b61445c8482850161425b565b6101608301525092915050565b8051610ae881615d73565b60006020828403121561448657600080fd5b60006119db8484614123565b6000806000606084860312156144a757600080fd5b60006144b38686614123565b93505060206144c486828701614123565b92505060406144d586828701614144565b9150509250925092565b600080604083850312156144f257600080fd5b60006144fe8585614123565b92505060208301356001600160401b0381111561451a57600080fd5b61452685828601614165565b9150509250929050565b6000806060838503121561454357600080fd5b600061454f8585614123565b925050602061452685828601614214565b6000806000806000806000610100888a03121561457c57600080fd5b60006145888a8a614123565b97505060206145998a828b01614214565b96505060606145aa8a828b01614123565b95505060806145bb8a828b01614144565b94505060a06145cc8a828b01614144565b93505060c06145dd8a828b01614144565b92505060e08801356001600160401b038111156145f957600080fd5b6146058a828b01614165565b91505092959891949750929550565b60008060006080848603121561462957600080fd5b60006146358686614123565b935050602061464686828701614214565b92505060606144d58682870161412e565b60008060008060a0858703121561466d57600080fd5b60006146798787614123565b945050602061468a87828801614214565b935050606061469b8782880161412e565b92505060806146ac8782880161412e565b91505092959194509250565b600080600080608085870312156146ce57600080fd5b60006146da8787614123565b94505060206146eb87828801614144565b93505060406146fc87828801614123565b92505060606146ac87828801614144565b6000806000806000806000806000806101608b8d03121561472d57600080fd5b60006147398d8d614123565b9a5050602061474a8d828e01614144565b995050604061475b8d828e01614144565b985050606061476c8d828e01614144565b975050608061477d8d828e01614144565b96505060a061478e8d828e01614214565b95505060e061479f8d828e01614144565b9450506101006147b18d828e0161412e565b9350506101206147c38d828e01614144565b9250506101408b01356001600160401b038111156147e057600080fd5b6147ec8d828e01614165565b9150509295989b9194979a5092959850565b60008060006080848603121561481357600080fd5b600061481f8686614123565b935050602061483086828701614144565b92505060406144d586828701614214565b60006020828403121561485357600080fd5b60006119db8484614139565b60006020828403121561487157600080fd5b60006119db848461414f565b60006020828403121561488f57600080fd5b81356001600160401b038111156148a557600080fd5b6119db84828501614321565b6000602082840312156148c357600080fd5b60006119db8484614144565b6000602082840312156148e157600080fd5b60006119db8484614469565b6148f681615cf4565b82525050565b6148f681615cc3565b6148f681615cce565b6148f681610996565b6148f681615cd3565b6148f681615cff565b600061493482615cb6565b61493e8185615cba565b935061494e818560208601615d16565b61495781615d42565b9093019392505050565b600061496c82615cb6565b6149768185610a69565b9350614986818560208601615d16565b9290920192915050565b6000815460018116600081146149ad57600181146149d357614a12565b607f60028304166149be8187615cba565b60ff1984168152955050602085019250614a12565b600282046149e18187615cba565b95506149ec85615caa565b60005b82811015614a0b578154888201526001909101906020016149ef565b8701945050505b505092915050565b6000614a27605183615cba565b600080516020615d938339815191528152600080516020615db38339815191526020820152706e676553746174652e736f6c3a3434315d60781b604082015260600192915050565b6000614a7c605183615cba565b600080516020615d938339815191528152600080516020615db38339815191526020820152706e676553746174652e736f6c3a3531315d60781b604082015260600192915050565b6000614ad1604a83615cba565b7f5461726765742062616c616e636520616d6f756e74206e6f7420706f7369746981527f7665205b4472696970536574746c656d656e744368616c6c656e676553746174602082015269652e736f6c3a3632375d60b01b604082015260600192915050565b6000614b43605183615cba565b600080516020615d938339815191528152600080516020615db38339815191526020820152706e676553746174652e736f6c3a3338355d60781b604082015260600192915050565b6000614b98605183615cba565b600080516020615d938339815191528152600080516020615db38339815191526020820152706e676553746174652e736f6c3a3435355d60781b604082015260600192915050565b6000614bed602d83615cba565b600080516020615df383398151915281526c6461626c652e736f6c3a36395d60981b602082015260400192915050565b6000614c2a605183615cba565b600080516020615d938339815191528152600080516020615db38339815191526020820152706e676553746174652e736f6c3a3536375d60781b604082015260600192915050565b6000614c7f605183615cba565b600080516020615d938339815191528152600080516020615db38339815191526020820152706e676553746174652e736f6c3a3432375d60781b604082015260600192915050565b6000614cd4605183615cba565b600080516020615d938339815191528152600080516020615db38339815191526020820152706e676553746174652e736f6c3a3439375d60781b604082015260600192915050565b6000614d29605183615cba565b600080516020615d938339815191528152600080516020615db38339815191526020820152706e676553746174652e736f6c3a3538315d60781b604082015260600192915050565b6000614d7e605183615cba565b600080516020615d938339815191528152600080516020615db38339815191526020820152706e676553746174652e736f6c3a3535335d60781b604082015260600192915050565b6000614dd3605183615cba565b600080516020615d938339815191528152600080516020615db38339815191526020820152706e676553746174652e736f6c3a3438335d60781b604082015260600192915050565b6000614e28602d83615cba565b600080516020615df383398151915281526c6461626c652e736f6c3a36345d60981b602082015260400192915050565b6000614e65604183615cba565b7f537461676520616d6f756e74206e6f7420706f736974697665205b447269697081527f536574746c656d656e744368616c6c656e676553746174652e736f6c3a3632366020820152605d60f81b604082015260600192915050565b6000614ece605183615cba565b600080516020615d938339815191528152600080516020615db38339815191526020820152706e676553746174652e736f6c3a3238345d60781b604082015260600192915050565b6000614f23605683615cba565b7f50726f706f73616c2065786973747320666f722077616c6c65742c206e6f6e6381527f6520616e642063757272656e6379205b4472696970536574746c656d656e744360208201527568616c6c656e676553746174652e736f6c3a3539325d60501b604082015260600192915050565b6000614fa1605183615cba565b600080516020615d938339815191528152600080516020615db38339815191526020820152706e676553746174652e736f6c3a3339395d60781b604082015260600192915050565b6000614ff6602f83615cba565b7f43616c6c6572206973206e6f742075706772616465206167656e74205b55706781526e72616461626c652e736f6c3a36335d60881b602082015260400192915050565b6000615047603683615cba565b7f55706772616465206167656e742068617320616c7265616479206265656e20738152756574205b55706772616461626c652e736f6c3a33375d60501b602082015260400192915050565b600061509f605183615cba565b600080516020615d938339815191528152600080516020615db38339815191526020820152706e676553746174652e736f6c3a3431335d60781b604082015260600192915050565b60006150f4605283615cba565b600080516020615dd38339815191528152600080516020615e33833981519152602082015271656e676553746174652e736f6c3a3232355d60701b604082015260600192915050565b600061514a605183615cba565b600080516020615d938339815191528152600080516020615db38339815191526020820152706e676553746174652e736f6c3a3533395d60781b604082015260600192915050565b600061519f605183615cba565b600080516020615d938339815191528152600080516020615db38339815191526020820152706e676553746174652e736f6c3a3335375d60781b604082015260600192915050565b60006151f4605183615cba565b600080516020615d938339815191528152600080516020615db38339815191526020820152706e676553746174652e736f6c3a3337315d60781b604082015260600192915050565b6000615249605e83615cba565b7f4578697374696e672070726f706f73616c20666f756e6420666f722077616c6c81527f65742c206e6f6e636520616e642063757272656e6379205b447269697053657460208201527f746c656d656e744368616c6c656e676553746174652e736f6c3a3632305d0000604082015260600192915050565b60006152ce605183615cba565b600080516020615d938339815191528152600080516020615db38339815191526020820152706e676553746174652e736f6c3a3235355d60781b604082015260600192915050565b6000615323605183615cba565b600080516020615d938339815191528152600080516020615db38339815191526020820152706e676553746174652e736f6c3a3532355d60781b604082015260600192915050565b6000615378605183615cba565b600080516020615d938339815191528152600080516020615db38339815191526020820152706e676553746174652e736f6c3a3334325d60781b604082015260600192915050565b60006153cd605183615cba565b600080516020615d938339815191528152600080516020615db38339815191526020820152706e676553746174652e736f6c3a3436395d60781b604082015260600192915050565b6000615422605283615cba565b600080516020615dd38339815191528152600080516020615e33833981519152602082015271656e676553746174652e736f6c3a3136355d60701b604082015260600192915050565b8051606083019061547c848261490e565b50602082015161548f602085018261490e565b506040820151610cca604085018261490e565b805160408301906154b384826148fc565b506020820151610cca602085018261490e565b805160009060808401906154da85826148fc565b5060208301516154ed602086018261490e565b506040830151615500604086018261490e565b50606083015184820360608601526155188282615521565b95945050505050565b80516040808452600091908401906155398282614929565b915050602083015161554e602086018261490e565b509392505050565b80516000906101e084019061556b85826148fc565b50602083015161557e602086018261490e565b506040830151615591604086018261490e565b5060608301516155a4606086018261490e565b5060808301516155b7608086018261490e565b5060a08301516155ca60a0860182614920565b5060c08301516155dd60c086018261546b565b5060e08301516155f16101208601826154a2565b5061010083015184820361016086015261560b8282615521565b915050610120830151615622610180860182614905565b506101408301516156376101a0860182614905565b506101608301518482036101c086015261551882826154c6565b6000611f4a8284614961565b60208101610ae882846148fc565b60208101610ae882846148ed565b6040810161568782856148fc565b611f4a60208301846148fc565b604081016156a282856148fc565b81810360208301526119db8184614929565b604081016156c282856148fc565b611f4a602083018461490e565b6101a081016156de828f6148fc565b6156eb602083018e61490e565b6156f8604083018d61490e565b615705606083018c61490e565b615712608083018b61490e565b61571f60a083018a6154a2565b61572c60e083018961490e565b61573a610100830188614905565b6157486101208301876148fc565b61575661014083018661490e565b61576461016083018561490e565b8181036101808301526157778184614929565b9e9d5050505050505050505050505050565b6101a08101615798828f6148fc565b6157a5602083018e61490e565b6157b2604083018d61490e565b6157bf606083018c61490e565b6157cc608083018b61490e565b6157d960a083018a6154a2565b6157e660e083018961490e565b6157f4610100830188614905565b6158026101208301876148fc565b61581061014083018661490e565b61581e61016083018561490e565b8181036101808301526157778184614990565b6101608101615840828d6148fc565b61584d602083018c61490e565b61585a604083018b61490e565b615867606083018a61490e565b615874608083018961490e565b61588160a08301886154a2565b61588e60e083018761490e565b61589c610100830186614905565b6158aa61012083018561490e565b8181036101408301526158bd8184614929565b9c9b505050505050505050505050565b61016081016158dc828d6148fc565b6158e9602083018c61490e565b6158f6604083018b61490e565b615903606083018a61490e565b615910608083018961490e565b61591d60a08301886154a2565b61592a60e083018761490e565b615938610100830186614905565b61594661012083018561490e565b8181036101408301526158bd8184614990565b6101e08101615968828f6148fc565b615975602083018e61490e565b615982604083018d61490e565b61598f606083018c61490e565b61599c608083018b61490e565b6159a960a083018a614920565b6159b660c083018961546b565b6159c46101208301886154a2565b8181036101608301526159d78187615521565b90506159e7610180830186614905565b6159f56101a0830185614905565b8181036101c083015261577781846154c6565b60208101610ae88284614905565b60208101610ae8828461490e565b60208101610ae88284614917565b60408101615a408285614917565b611f4a6020830184614917565b60208101610ae88284614920565b60208082528101611f4a8184614929565b60208082528101610a6681614a1a565b60208082528101610a6681614a6f565b60208082528101610a6681614ac4565b60208082528101610a6681614b36565b60208082528101610a6681614b8b565b60208082528101610a6681614be0565b60208082528101610a6681614c1d565b60208082528101610a6681614c72565b60208082528101610a6681614cc7565b60208082528101610a6681614d1c565b60208082528101610a6681614d71565b60208082528101610a6681614dc6565b60208082528101610a6681614e1b565b60208082528101610a6681614e58565b60208082528101610a6681614ec1565b60208082528101610a6681614f16565b60208082528101610a6681614f94565b60208082528101610a6681614fe9565b60208082528101610a668161503a565b60208082528101610a6681615092565b60208082528101610a66816150e7565b60208082528101610a668161513d565b60208082528101610a6681615192565b60208082528101610a66816151e7565b60208082528101610a668161523c565b60208082528101610a66816152c1565b60208082528101610a6681615316565b60208082528101610a668161536b565b60208082528101610a66816153c0565b60208082528101610a6681615415565b60208082528101611f4a8184615556565b6040518181016001600160401b0381118282101715615c7b57600080fd5b604052919050565b60006001600160401b03821115615c9957600080fd5b506020601f91909101601f19160190565b60009081526020902090565b5190565b90815260200190565b6000610a6682615ce8565b151590565b6000610a6682615cc3565b80610a6981615d4c565b6001600160a01b031690565b6000610a6682615cd3565b6000610a6682615cde565b82818337506000910152565b60005b83811015615d31578181015183820152602001615d19565b83811115610cca5750506000910152565b601f01601f191690565b60028110613f0a57fe5b615d5f81615cc3565b8114613f0a57600080fd5b615d5f81615cce565b615d5f81610996565b615d5f81615cd3565b60028110613f0a57600080fdfe4e6f2070726f706f73616c20666f756e6420666f722077616c6c657420616e642063757272656e6379205b4472696970536574746c656d656e744368616c6c6557616c6c657420696e6974696174696f6e20616e64207465726d696e6174696f55706772616465732068617665206265656e2066726f7a656e205b55706772615341503fafb2b3c7b482b82c925fa31819cb664550542dfc04381047bfda5a006e206d69736d61746368205b4472696970536574746c656d656e744368616c6c3a6d38365b85333cd6ded79a907cefa2b76359249020967b3f50ab1942831cc9a365627a7a72315820ef72f0b6698edea73dca1e7b5226e27141bdeaeb9c7b8b208c941e2ced908b216c6578706572696d656e74616cf564736f6c634300050c0040",
  "source": "/*\n * Hubii Nahmii\n *\n * Compliant with the Hubii Nahmii specification v0.12.\n *\n * Copyright (C) 2017-2018 Hubii AS\n */\n\npragma solidity >=0.4.25 <0.6.0;\npragma experimental ABIEncoderV2;\n\nimport {Ownable} from \"./Ownable.sol\";\nimport {Servable} from \"./Servable.sol\";\nimport {Configurable} from \"./Configurable.sol\";\nimport {Upgradable} from \"./Upgradable.sol\";\nimport {SafeMathIntLib} from \"./SafeMathIntLib.sol\";\nimport {SafeMathUintLib} from \"./SafeMathUintLib.sol\";\nimport {MonetaryTypesLib} from \"./MonetaryTypesLib.sol\";\nimport {NahmiiTypesLib} from \"./NahmiiTypesLib.sol\";\nimport {SettlementChallengeTypesLib} from \"./SettlementChallengeTypesLib.sol\";\n\n/**\n * @title DriipSettlementChallengeState\n * @notice Where driip settlement challenge state is managed\n */\ncontract DriipSettlementChallengeState is Ownable, Servable, Configurable, Upgradable {\n    using SafeMathIntLib for int256;\n    using SafeMathUintLib for uint256;\n\n    //\n    // Constants\n    // -----------------------------------------------------------------------------------------------------------------\n    string constant public INITIATE_PROPOSAL_ACTION = \"initiate_proposal\";\n    string constant public TERMINATE_PROPOSAL_ACTION = \"terminate_proposal\";\n    string constant public REMOVE_PROPOSAL_ACTION = \"remove_proposal\";\n    string constant public DISQUALIFY_PROPOSAL_ACTION = \"disqualify_proposal\";\n    string constant public QUALIFY_PROPOSAL_ACTION = \"qualify_proposal\";\n\n    //\n    // Variables\n    // -----------------------------------------------------------------------------------------------------------------\n    SettlementChallengeTypesLib.Proposal[] public proposals;\n    mapping(address => mapping(address => mapping(uint256 => uint256))) public proposalIndexByWalletCurrency;\n    mapping(address => mapping(uint256 => mapping(address => mapping(uint256 => uint256)))) public proposalIndexByWalletNonceCurrency;\n\n    //\n    // Events\n    // -----------------------------------------------------------------------------------------------------------------\n    event InitiateProposalEvent(address wallet, uint256 nonce, int256 cumulativeTransferAmount, int256 stageAmount,\n        int256 targetBalanceAmount, MonetaryTypesLib.Currency currency, uint256 blockNumber, bool walletInitiated,\n        bytes32 challengedHash, string challengedKind);\n    event TerminateProposalEvent(address wallet, uint256 nonce, int256 cumulativeTransferAmount, int256 stageAmount,\n        int256 targetBalanceAmount, MonetaryTypesLib.Currency currency, uint256 blockNumber, bool walletInitiated,\n        bytes32 challengedHash, string challengedKind);\n    event RemoveProposalEvent(address wallet, uint256 nonce, int256 cumulativeTransferAmount, int256 stageAmount,\n        int256 targetBalanceAmount, MonetaryTypesLib.Currency currency, uint256 blockNumber, bool walletInitiated,\n        bytes32 challengedHash, string challengedKind);\n    event DisqualifyProposalEvent(address challengedWallet, uint256 challengedNonce, int256 cumulativeTransferAmount,\n        int256 stageAmount, int256 targetBalanceAmount, MonetaryTypesLib.Currency currency, uint256 blockNumber,\n        bool walletInitiated, address challengerWallet, uint256 candidateNonce, bytes32 candidateHash,\n        string candidateKind);\n    event QualifyProposalEvent(address challengedWallet, uint256 challengedNonce, int256 cumulativeTransferAmount,\n        int256 stageAmount, int256 targetBalanceAmount, MonetaryTypesLib.Currency currency, uint256 blockNumber,\n        bool walletInitiated, address challengerWallet, uint256 candidateNonce, bytes32 candidateHash,\n        string candidateKind);\n    event UpgradeProposalEvent(SettlementChallengeTypesLib.Proposal proposal);\n\n    //\n    // Constructor\n    // -----------------------------------------------------------------------------------------------------------------\n    constructor(address deployer) Ownable(deployer) public {\n    }\n\n    //\n    // Functions\n    // -----------------------------------------------------------------------------------------------------------------\n    /// @notice Get the number of proposals\n    /// @return The number of proposals\n    function proposalsCount()\n    public\n    view\n    returns (uint256)\n    {\n        return proposals.length;\n    }\n\n    /// @notice Initiate proposal\n    /// @param wallet The address of the concerned challenged wallet\n    /// @param nonce The wallet nonce\n    /// @param cumulativeTransferAmount The proposal cumulative transfer amount\n    /// @param stageAmount The proposal stage amount\n    /// @param targetBalanceAmount The proposal target balance amount\n    /// @param currency The concerned currency\n    /// @param blockNumber The proposal block number\n    /// @param walletInitiated True if reward from candidate balance\n    /// @param challengedHash The candidate driip hash\n    /// @param challengedKind The candidate driip kind\n    function initiateProposal(address wallet, uint256 nonce, int256 cumulativeTransferAmount, int256 stageAmount,\n        int256 targetBalanceAmount, MonetaryTypesLib.Currency memory currency, uint256 blockNumber, bool walletInitiated,\n        bytes32 challengedHash, string memory challengedKind)\n    public\n    onlyEnabledServiceAction(INITIATE_PROPOSAL_ACTION)\n    {\n        // Initiate proposal\n        _initiateProposal(\n            wallet, nonce, cumulativeTransferAmount, stageAmount, targetBalanceAmount,\n            currency, blockNumber, walletInitiated, challengedHash, challengedKind\n        );\n\n        // Emit event\n        emit InitiateProposalEvent(\n            wallet, nonce, cumulativeTransferAmount, stageAmount, targetBalanceAmount, currency,\n            blockNumber, walletInitiated, challengedHash, challengedKind\n        );\n    }\n\n    /// @notice Terminate a proposal\n    /// @param wallet The address of the concerned challenged wallet\n    /// @param currency The concerned currency\n    function terminateProposal(address wallet, MonetaryTypesLib.Currency memory currency, bool clearNonce)\n    public\n    onlyEnabledServiceAction(TERMINATE_PROPOSAL_ACTION)\n    {\n        // Get the proposal index\n        uint256 index = proposalIndexByWalletCurrency[wallet][currency.ct][currency.id];\n\n        // Return gracefully if there is no proposal to terminate\n        if (0 == index)\n            return;\n\n        // Clear wallet-nonce-currency triplet entry, which enables reinitiation of proposal for that triplet\n        if (clearNonce)\n            proposalIndexByWalletNonceCurrency[wallet][proposals[index - 1].nonce][currency.ct][currency.id] = 0;\n\n        // Terminate proposal\n        proposals[index - 1].terminated = true;\n\n        // Emit event\n        emit TerminateProposalEvent(\n            wallet, proposals[index - 1].nonce, proposals[index - 1].amounts.cumulativeTransfer,\n            proposals[index - 1].amounts.stage, proposals[index - 1].amounts.targetBalance, currency,\n            proposals[index - 1].referenceBlockNumber, proposals[index - 1].walletInitiated,\n            proposals[index - 1].challenged.hash, proposals[index - 1].challenged.kind\n        );\n    }\n\n    /// @notice Terminate a proposal\n    /// @param wallet The address of the concerned challenged wallet\n    /// @param currency The concerned currency\n    /// @param clearNonce Clear wallet-nonce-currency triplet entry\n    /// @param walletTerminated True if wallet terminated\n    function terminateProposal(address wallet, MonetaryTypesLib.Currency memory currency, bool clearNonce,\n        bool walletTerminated)\n    public\n    onlyEnabledServiceAction(TERMINATE_PROPOSAL_ACTION)\n    {\n        // Get the proposal index\n        uint256 index = proposalIndexByWalletCurrency[wallet][currency.ct][currency.id];\n\n        // Return gracefully if there is no proposal to terminate\n        if (0 == index)\n            return;\n\n        // Require that role that initialized (wallet or operator) can only cancel its own proposal\n        require(walletTerminated == proposals[index - 1].walletInitiated, \"Wallet initiation and termination mismatch [DriipSettlementChallengeState.sol:165]\");\n\n        // Clear wallet-nonce-currency triplet entry, which enables reinitiation of proposal for that triplet\n        if (clearNonce)\n            proposalIndexByWalletNonceCurrency[wallet][proposals[index - 1].nonce][currency.ct][currency.id] = 0;\n\n        // Terminate proposal\n        proposals[index - 1].terminated = true;\n\n        // Emit event\n        emit TerminateProposalEvent(\n            wallet, proposals[index - 1].nonce, proposals[index - 1].amounts.cumulativeTransfer,\n            proposals[index - 1].amounts.stage, proposals[index - 1].amounts.targetBalance, currency,\n            proposals[index - 1].referenceBlockNumber, proposals[index - 1].walletInitiated,\n            proposals[index - 1].challenged.hash, proposals[index - 1].challenged.kind\n        );\n    }\n\n    /// @notice Remove a proposal\n    /// @param wallet The address of the concerned challenged wallet\n    /// @param currency The concerned currency\n    function removeProposal(address wallet, MonetaryTypesLib.Currency memory currency)\n    public\n    onlyEnabledServiceAction(REMOVE_PROPOSAL_ACTION)\n    {\n        // Get the proposal index\n        uint256 index = proposalIndexByWalletCurrency[wallet][currency.ct][currency.id];\n\n        // Return gracefully if there is no proposal to remove\n        if (0 == index)\n            return;\n\n        // Emit event\n        emit RemoveProposalEvent(\n            wallet, proposals[index - 1].nonce, proposals[index - 1].amounts.cumulativeTransfer,\n            proposals[index - 1].amounts.stage, proposals[index - 1].amounts.targetBalance, currency,\n            proposals[index - 1].referenceBlockNumber, proposals[index - 1].walletInitiated,\n            proposals[index - 1].challenged.hash, proposals[index - 1].challenged.kind\n        );\n\n        // Remove proposal\n        _removeProposal(index);\n    }\n\n    /// @notice Remove a proposal\n    /// @param wallet The address of the concerned challenged wallet\n    /// @param currency The concerned currency\n    /// @param walletTerminated True if wallet terminated\n    function removeProposal(address wallet, MonetaryTypesLib.Currency memory currency, bool walletTerminated)\n    public\n    onlyEnabledServiceAction(REMOVE_PROPOSAL_ACTION)\n    {\n        // Get the proposal index\n        uint256 index = proposalIndexByWalletCurrency[wallet][currency.ct][currency.id];\n\n        // Return gracefully if there is no proposal to remove\n        if (0 == index)\n            return;\n\n        // Require that role that initialized (wallet or operator) can only cancel its own proposal\n        require(walletTerminated == proposals[index - 1].walletInitiated, \"Wallet initiation and termination mismatch [DriipSettlementChallengeState.sol:225]\");\n\n        // Emit event\n        emit RemoveProposalEvent(\n            wallet, proposals[index - 1].nonce, proposals[index - 1].amounts.cumulativeTransfer,\n            proposals[index - 1].amounts.stage, proposals[index - 1].amounts.targetBalance, currency,\n            proposals[index - 1].referenceBlockNumber, proposals[index - 1].walletInitiated,\n            proposals[index - 1].challenged.hash, proposals[index - 1].challenged.kind\n        );\n\n        // Remove proposal\n        _removeProposal(index);\n    }\n\n    /// @notice Disqualify a proposal\n    /// @dev A call to this function will intentionally override previous disqualifications if existent\n    /// @param challengedWallet The address of the concerned challenged wallet\n    /// @param currency The concerned currency\n    /// @param challengerWallet The address of the concerned challenger wallet\n    /// @param blockNumber The disqualification block number\n    /// @param candidateNonce The candidate nonce\n    /// @param candidateHash The candidate hash\n    /// @param candidateKind The candidate kind\n    function disqualifyProposal(address challengedWallet, MonetaryTypesLib.Currency memory currency, address challengerWallet,\n        uint256 blockNumber, uint256 candidateNonce, bytes32 candidateHash, string memory candidateKind)\n    public\n    onlyEnabledServiceAction(DISQUALIFY_PROPOSAL_ACTION)\n    {\n        // Get the proposal index\n        uint256 index = proposalIndexByWalletCurrency[challengedWallet][currency.ct][currency.id];\n        require(0 != index, \"No proposal found for wallet and currency [DriipSettlementChallengeState.sol:255]\");\n\n        // Update proposal\n        proposals[index - 1].status = SettlementChallengeTypesLib.Status.Disqualified;\n        proposals[index - 1].expirationTime = block.timestamp.add(configuration.settlementChallengeTimeout());\n        proposals[index - 1].disqualification.challenger = challengerWallet;\n        proposals[index - 1].disqualification.nonce = candidateNonce;\n        proposals[index - 1].disqualification.blockNumber = blockNumber;\n        proposals[index - 1].disqualification.candidate.hash = candidateHash;\n        proposals[index - 1].disqualification.candidate.kind = candidateKind;\n\n        // Emit event\n        emit DisqualifyProposalEvent(\n            challengedWallet, proposals[index - 1].nonce, proposals[index - 1].amounts.cumulativeTransfer,\n            proposals[index - 1].amounts.stage, proposals[index - 1].amounts.targetBalance,\n            currency, proposals[index - 1].referenceBlockNumber, proposals[index - 1].walletInitiated,\n            challengerWallet, candidateNonce, candidateHash, candidateKind\n        );\n    }\n\n    /// @notice (Re)Qualify a proposal\n    /// @param wallet The address of the concerned challenged wallet\n    /// @param currency The concerned currency\n    function qualifyProposal(address wallet, MonetaryTypesLib.Currency memory currency)\n    public\n    onlyEnabledServiceAction(QUALIFY_PROPOSAL_ACTION)\n    {\n        // Get the proposal index\n        uint256 index = proposalIndexByWalletCurrency[wallet][currency.ct][currency.id];\n        require(0 != index, \"No proposal found for wallet and currency [DriipSettlementChallengeState.sol:284]\");\n\n        // Emit event\n        emit QualifyProposalEvent(\n            wallet, proposals[index - 1].nonce, proposals[index - 1].amounts.cumulativeTransfer,\n            proposals[index - 1].amounts.stage, proposals[index - 1].amounts.targetBalance, currency,\n            proposals[index - 1].referenceBlockNumber, proposals[index - 1].walletInitiated,\n            proposals[index - 1].disqualification.challenger,\n            proposals[index - 1].disqualification.nonce,\n            proposals[index - 1].disqualification.candidate.hash,\n            proposals[index - 1].disqualification.candidate.kind\n        );\n\n        // Update proposal\n        proposals[index - 1].status = SettlementChallengeTypesLib.Status.Qualified;\n        proposals[index - 1].expirationTime = block.timestamp.add(configuration.settlementChallengeTimeout());\n        delete proposals[index - 1].disqualification;\n    }\n\n    /// @notice Gauge whether a driip settlement challenge for the given wallet-nonce-currency\n    /// triplet has been proposed and not later removed\n    /// @param wallet The address of the concerned wallet\n    /// @param nonce The wallet nonce\n    /// @param currency The concerned currency\n    /// @return true if driip settlement challenge has been, else false\n    function hasProposal(address wallet, uint256 nonce, MonetaryTypesLib.Currency memory currency)\n    public\n    view\n    returns (bool)\n    {\n        // 1-based index\n        return 0 != proposalIndexByWalletNonceCurrency[wallet][nonce][currency.ct][currency.id];\n    }\n\n    /// @notice Gauge whether the proposal for the given wallet and currency has expired\n    /// @param wallet The address of the concerned wallet\n    /// @param currency The concerned currency\n    /// @return true if proposal has expired, else false\n    function hasProposal(address wallet, MonetaryTypesLib.Currency memory currency)\n    public\n    view\n    returns (bool)\n    {\n        // 1-based index\n        return 0 != proposalIndexByWalletCurrency[wallet][currency.ct][currency.id];\n    }\n\n    /// @notice Gauge whether the proposal for the given wallet and currency has terminated\n    /// @param wallet The address of the concerned wallet\n    /// @param currency The concerned currency\n    /// @return true if proposal has terminated, else false\n    function hasProposalTerminated(address wallet, MonetaryTypesLib.Currency memory currency)\n    public\n    view\n    returns (bool)\n    {\n        // 1-based index\n        uint256 index = proposalIndexByWalletCurrency[wallet][currency.ct][currency.id];\n        require(0 != index, \"No proposal found for wallet and currency [DriipSettlementChallengeState.sol:342]\");\n        return proposals[index - 1].terminated;\n    }\n\n    /// @notice Gauge whether the proposal for the given wallet and currency has expired\n    /// @param wallet The address of the concerned wallet\n    /// @param currency The concerned currency\n    /// @return true if proposal has expired, else false\n    function hasProposalExpired(address wallet, MonetaryTypesLib.Currency memory currency)\n    public\n    view\n    returns (bool)\n    {\n        // 1-based index\n        uint256 index = proposalIndexByWalletCurrency[wallet][currency.ct][currency.id];\n        require(0 != index, \"No proposal found for wallet and currency [DriipSettlementChallengeState.sol:357]\");\n        return block.timestamp >= proposals[index - 1].expirationTime;\n    }\n\n    /// @notice Get the proposal nonce of the given wallet and currency\n    /// @param wallet The address of the concerned wallet\n    /// @param currency The concerned currency\n    /// @return The settlement proposal nonce\n    function proposalNonce(address wallet, MonetaryTypesLib.Currency memory currency)\n    public\n    view\n    returns (uint256)\n    {\n        uint256 index = proposalIndexByWalletCurrency[wallet][currency.ct][currency.id];\n        require(0 != index, \"No proposal found for wallet and currency [DriipSettlementChallengeState.sol:371]\");\n        return proposals[index - 1].nonce;\n    }\n\n    /// @notice Get the proposal reference block number of the given wallet and currency\n    /// @param wallet The address of the concerned wallet\n    /// @param currency The concerned currency\n    /// @return The settlement proposal reference block number\n    function proposalReferenceBlockNumber(address wallet, MonetaryTypesLib.Currency memory currency)\n    public\n    view\n    returns (uint256)\n    {\n        uint256 index = proposalIndexByWalletCurrency[wallet][currency.ct][currency.id];\n        require(0 != index, \"No proposal found for wallet and currency [DriipSettlementChallengeState.sol:385]\");\n        return proposals[index - 1].referenceBlockNumber;\n    }\n\n    /// @notice Get the proposal definition block number of the given wallet and currency\n    /// @param wallet The address of the concerned wallet\n    /// @param currency The concerned currency\n    /// @return The settlement proposal definition block number\n    function proposalDefinitionBlockNumber(address wallet, MonetaryTypesLib.Currency memory currency)\n    public\n    view\n    returns (uint256)\n    {\n        uint256 index = proposalIndexByWalletCurrency[wallet][currency.ct][currency.id];\n        require(0 != index, \"No proposal found for wallet and currency [DriipSettlementChallengeState.sol:399]\");\n        return proposals[index - 1].definitionBlockNumber;\n    }\n\n    /// @notice Get the proposal expiration time of the given wallet and currency\n    /// @param wallet The address of the concerned wallet\n    /// @param currency The concerned currency\n    /// @return The settlement proposal expiration time\n    function proposalExpirationTime(address wallet, MonetaryTypesLib.Currency memory currency)\n    public\n    view\n    returns (uint256)\n    {\n        uint256 index = proposalIndexByWalletCurrency[wallet][currency.ct][currency.id];\n        require(0 != index, \"No proposal found for wallet and currency [DriipSettlementChallengeState.sol:413]\");\n        return proposals[index - 1].expirationTime;\n    }\n\n    /// @notice Get the proposal status of the given wallet and currency\n    /// @param wallet The address of the concerned wallet\n    /// @param currency The concerned currency\n    /// @return The settlement proposal status\n    function proposalStatus(address wallet, MonetaryTypesLib.Currency memory currency)\n    public\n    view\n    returns (SettlementChallengeTypesLib.Status)\n    {\n        uint256 index = proposalIndexByWalletCurrency[wallet][currency.ct][currency.id];\n        require(0 != index, \"No proposal found for wallet and currency [DriipSettlementChallengeState.sol:427]\");\n        return proposals[index - 1].status;\n    }\n\n    /// @notice Get the proposal cumulative transfer amount of the given wallet and currency\n    /// @param wallet The address of the concerned wallet\n    /// @param currency The concerned currency\n    /// @return The settlement proposal cumulative transfer amount\n    function proposalCumulativeTransferAmount(address wallet, MonetaryTypesLib.Currency memory currency)\n    public\n    view\n    returns (int256)\n    {\n        uint256 index = proposalIndexByWalletCurrency[wallet][currency.ct][currency.id];\n        require(0 != index, \"No proposal found for wallet and currency [DriipSettlementChallengeState.sol:441]\");\n        return proposals[index - 1].amounts.cumulativeTransfer;\n    }\n\n    /// @notice Get the proposal stage amount of the given wallet and currency\n    /// @param wallet The address of the concerned wallet\n    /// @param currency The concerned currency\n    /// @return The settlement proposal stage amount\n    function proposalStageAmount(address wallet, MonetaryTypesLib.Currency memory currency)\n    public\n    view\n    returns (int256)\n    {\n        uint256 index = proposalIndexByWalletCurrency[wallet][currency.ct][currency.id];\n        require(0 != index, \"No proposal found for wallet and currency [DriipSettlementChallengeState.sol:455]\");\n        return proposals[index - 1].amounts.stage;\n    }\n\n    /// @notice Get the proposal target balance amount of the given wallet and currency\n    /// @param wallet The address of the concerned wallet\n    /// @param currency The concerned currency\n    /// @return The settlement proposal target balance amount\n    function proposalTargetBalanceAmount(address wallet, MonetaryTypesLib.Currency memory currency)\n    public\n    view\n    returns (int256)\n    {\n        uint256 index = proposalIndexByWalletCurrency[wallet][currency.ct][currency.id];\n        require(0 != index, \"No proposal found for wallet and currency [DriipSettlementChallengeState.sol:469]\");\n        return proposals[index - 1].amounts.targetBalance;\n    }\n\n    /// @notice Get the proposal challenged hash of the given wallet and currency\n    /// @param wallet The address of the concerned wallet\n    /// @param currency The concerned currency\n    /// @return The settlement proposal challenged hash\n    function proposalChallengedHash(address wallet, MonetaryTypesLib.Currency memory currency)\n    public\n    view\n    returns (bytes32)\n    {\n        uint256 index = proposalIndexByWalletCurrency[wallet][currency.ct][currency.id];\n        require(0 != index, \"No proposal found for wallet and currency [DriipSettlementChallengeState.sol:483]\");\n        return proposals[index - 1].challenged.hash;\n    }\n\n    /// @notice Get the proposal challenged kind of the given wallet and currency\n    /// @param wallet The address of the concerned wallet\n    /// @param currency The concerned currency\n    /// @return The settlement proposal challenged kind\n    function proposalChallengedKind(address wallet, MonetaryTypesLib.Currency memory currency)\n    public\n    view\n    returns (string memory)\n    {\n        uint256 index = proposalIndexByWalletCurrency[wallet][currency.ct][currency.id];\n        require(0 != index, \"No proposal found for wallet and currency [DriipSettlementChallengeState.sol:497]\");\n        return proposals[index - 1].challenged.kind;\n    }\n\n    /// @notice Get the proposal balance reward of the given wallet and currency\n    /// @param wallet The address of the concerned wallet\n    /// @param currency The concerned currency\n    /// @return The settlement proposal balance reward\n    function proposalWalletInitiated(address wallet, MonetaryTypesLib.Currency memory currency)\n    public\n    view\n    returns (bool)\n    {\n        uint256 index = proposalIndexByWalletCurrency[wallet][currency.ct][currency.id];\n        require(0 != index, \"No proposal found for wallet and currency [DriipSettlementChallengeState.sol:511]\");\n        return proposals[index - 1].walletInitiated;\n    }\n\n    /// @notice Get the proposal disqualification challenger of the given wallet and currency\n    /// @param wallet The address of the concerned wallet\n    /// @param currency The concerned currency\n    /// @return The settlement proposal disqualification challenger\n    function proposalDisqualificationChallenger(address wallet, MonetaryTypesLib.Currency memory currency)\n    public\n    view\n    returns (address)\n    {\n        uint256 index = proposalIndexByWalletCurrency[wallet][currency.ct][currency.id];\n        require(0 != index, \"No proposal found for wallet and currency [DriipSettlementChallengeState.sol:525]\");\n        return proposals[index - 1].disqualification.challenger;\n    }\n\n    /// @notice Get the proposal disqualification nonce of the given wallet and currency\n    /// @param wallet The address of the concerned wallet\n    /// @param currency The concerned currency\n    /// @return The settlement proposal disqualification nonce\n    function proposalDisqualificationNonce(address wallet, MonetaryTypesLib.Currency memory currency)\n    public\n    view\n    returns (uint256)\n    {\n        uint256 index = proposalIndexByWalletCurrency[wallet][currency.ct][currency.id];\n        require(0 != index, \"No proposal found for wallet and currency [DriipSettlementChallengeState.sol:539]\");\n        return proposals[index - 1].disqualification.nonce;\n    }\n\n    /// @notice Get the proposal disqualification block number of the given wallet and currency\n    /// @param wallet The address of the concerned wallet\n    /// @param currency The concerned currency\n    /// @return The settlement proposal disqualification block number\n    function proposalDisqualificationBlockNumber(address wallet, MonetaryTypesLib.Currency memory currency)\n    public\n    view\n    returns (uint256)\n    {\n        uint256 index = proposalIndexByWalletCurrency[wallet][currency.ct][currency.id];\n        require(0 != index, \"No proposal found for wallet and currency [DriipSettlementChallengeState.sol:553]\");\n        return proposals[index - 1].disqualification.blockNumber;\n    }\n\n    /// @notice Get the proposal disqualification candidate hash of the given wallet and currency\n    /// @param wallet The address of the concerned wallet\n    /// @param currency The concerned currency\n    /// @return The settlement proposal disqualification candidate hash\n    function proposalDisqualificationCandidateHash(address wallet, MonetaryTypesLib.Currency memory currency)\n    public\n    view\n    returns (bytes32)\n    {\n        uint256 index = proposalIndexByWalletCurrency[wallet][currency.ct][currency.id];\n        require(0 != index, \"No proposal found for wallet and currency [DriipSettlementChallengeState.sol:567]\");\n        return proposals[index - 1].disqualification.candidate.hash;\n    }\n\n    /// @notice Get the proposal disqualification candidate kind of the given wallet and currency\n    /// @param wallet The address of the concerned wallet\n    /// @param currency The concerned currency\n    /// @return The settlement proposal disqualification candidate kind\n    function proposalDisqualificationCandidateKind(address wallet, MonetaryTypesLib.Currency memory currency)\n    public\n    view\n    returns (string memory)\n    {\n        uint256 index = proposalIndexByWalletCurrency[wallet][currency.ct][currency.id];\n        require(0 != index, \"No proposal found for wallet and currency [DriipSettlementChallengeState.sol:581]\");\n        return proposals[index - 1].disqualification.candidate.kind;\n    }\n\n    /// @notice Upgrade proposal\n    /// @param proposal The concerned proposal\n    function upgradeProposal(SettlementChallengeTypesLib.Proposal memory proposal)\n    public\n    onlyWhenUpgrading\n    {\n        // Require that proposal has not been initialized/upgraded already\n        require(\n            0 == proposalIndexByWalletNonceCurrency[proposal.wallet][proposal.nonce][proposal.currency.ct][proposal.currency.id],\n            \"Proposal exists for wallet, nonce and currency [DriipSettlementChallengeState.sol:592]\"\n        );\n\n        // Push the settlement\n        proposals.push(proposal);\n\n        // Get the 1-based index\n        uint256 index = proposals.length;\n\n        // Update indices\n        proposalIndexByWalletCurrency[proposal.wallet][proposal.currency.ct][proposal.currency.id] = index;\n        proposalIndexByWalletNonceCurrency[proposal.wallet][proposal.nonce][proposal.currency.ct][proposal.currency.id] = index;\n\n        // Emit event\n        emit UpgradeProposalEvent(proposal);\n    }\n\n    //\n    // Private functions\n    // -----------------------------------------------------------------------------------------------------------------\n    function _initiateProposal(address wallet, uint256 nonce, int256 cumulativeTransferAmount, int256 stageAmount,\n        int256 targetBalanceAmount, MonetaryTypesLib.Currency memory currency, uint256 referenceBlockNumber, bool walletInitiated,\n        bytes32 challengedHash, string memory challengedKind)\n    private\n    {\n        // Require that there is no other proposal on the given wallet-nonce-currency triplet\n        require(\n            0 == proposalIndexByWalletNonceCurrency[wallet][nonce][currency.ct][currency.id],\n            \"Existing proposal found for wallet, nonce and currency [DriipSettlementChallengeState.sol:620]\"\n        );\n\n        // Require that stage and target balance amounts are positive\n        require(stageAmount.isPositiveInt256(), \"Stage amount not positive [DriipSettlementChallengeState.sol:626]\");\n        require(targetBalanceAmount.isPositiveInt256(), \"Target balance amount not positive [DriipSettlementChallengeState.sol:627]\");\n\n        uint256 index = proposalIndexByWalletCurrency[wallet][currency.ct][currency.id];\n\n        // Create proposal if needed\n        if (0 == index) {\n            index = ++(proposals.length);\n            proposalIndexByWalletCurrency[wallet][currency.ct][currency.id] = index;\n        }\n\n        // Populate proposal\n        proposals[index - 1].wallet = wallet;\n        proposals[index - 1].nonce = nonce;\n        proposals[index - 1].referenceBlockNumber = referenceBlockNumber;\n        proposals[index - 1].definitionBlockNumber = block.number;\n        proposals[index - 1].expirationTime = block.timestamp.add(configuration.settlementChallengeTimeout());\n        proposals[index - 1].status = SettlementChallengeTypesLib.Status.Qualified;\n        proposals[index - 1].currency = currency;\n        proposals[index - 1].amounts.cumulativeTransfer = cumulativeTransferAmount;\n        proposals[index - 1].amounts.stage = stageAmount;\n        proposals[index - 1].amounts.targetBalance = targetBalanceAmount;\n        proposals[index - 1].walletInitiated = walletInitiated;\n        proposals[index - 1].terminated = false;\n        proposals[index - 1].challenged.hash = challengedHash;\n        proposals[index - 1].challenged.kind = challengedKind;\n\n        // Update index of wallet-nonce-currency triplet\n        proposalIndexByWalletNonceCurrency[wallet][nonce][currency.ct][currency.id] = index;\n    }\n\n    function _removeProposal(uint256 index)\n    private\n    {\n        // Remove the proposal and clear references to it\n        proposalIndexByWalletCurrency[proposals[index - 1].wallet][proposals[index - 1].currency.ct][proposals[index - 1].currency.id] = 0;\n        proposalIndexByWalletNonceCurrency[proposals[index - 1].wallet][proposals[index - 1].nonce][proposals[index - 1].currency.ct][proposals[index - 1].currency.id] = 0;\n        if (index < proposals.length) {\n            proposals[index - 1] = proposals[proposals.length - 1];\n            proposalIndexByWalletCurrency[proposals[index - 1].wallet][proposals[index - 1].currency.ct][proposals[index - 1].currency.id] = index;\n            proposalIndexByWalletNonceCurrency[proposals[index - 1].wallet][proposals[index - 1].nonce][proposals[index - 1].currency.ct][proposals[index - 1].currency.id] = index;\n        }\n        proposals.length--;\n    }\n}",
  "sourcePath": "/opt/buildagent/work/855e104608380c36/contracts/DriipSettlementChallengeState.sol",
  "compiler": {
    "name": "solc",
    "version": "0.5.12+commit.7709ece9.Emscripten.clang"
  },
  "schemaVersion": "2.0.3",
  "updatedAt": "2019-10-23T00:21:40.684Z"
}