{
  "contractName": "DriipSettlementChallengeByPayment",
  "abi": [
    {
      "constant": true,
      "inputs": [],
      "name": "driipSettlementDisputeByPayment",
      "outputs": [
        {
          "name": "",
          "type": "address"
        }
      ],
      "payable": false,
      "stateMutability": "view",
      "type": "function"
    },
    {
      "constant": false,
      "inputs": [
        {
          "name": "newValidator",
          "type": "address"
        }
      ],
      "name": "setValidator",
      "outputs": [],
      "payable": false,
      "stateMutability": "nonpayable",
      "type": "function"
    },
    {
      "constant": true,
      "inputs": [],
      "name": "balanceTracker",
      "outputs": [
        {
          "name": "",
          "type": "address"
        }
      ],
      "payable": false,
      "stateMutability": "view",
      "type": "function"
    },
    {
      "constant": true,
      "inputs": [],
      "name": "walletLockerFrozen",
      "outputs": [
        {
          "name": "",
          "type": "bool"
        }
      ],
      "payable": false,
      "stateMutability": "view",
      "type": "function"
    },
    {
      "constant": false,
      "inputs": [],
      "name": "triggerSelfDestruction",
      "outputs": [],
      "payable": false,
      "stateMutability": "nonpayable",
      "type": "function"
    },
    {
      "constant": true,
      "inputs": [],
      "name": "selfDestructionDisabled",
      "outputs": [
        {
          "name": "",
          "type": "bool"
        }
      ],
      "payable": false,
      "stateMutability": "view",
      "type": "function"
    },
    {
      "constant": true,
      "inputs": [],
      "name": "validator",
      "outputs": [
        {
          "name": "",
          "type": "address"
        }
      ],
      "payable": false,
      "stateMutability": "view",
      "type": "function"
    },
    {
      "constant": true,
      "inputs": [],
      "name": "balanceTrackerFrozen",
      "outputs": [
        {
          "name": "",
          "type": "bool"
        }
      ],
      "payable": false,
      "stateMutability": "view",
      "type": "function"
    },
    {
      "constant": true,
      "inputs": [],
      "name": "destructor",
      "outputs": [
        {
          "name": "",
          "type": "address"
        }
      ],
      "payable": false,
      "stateMutability": "view",
      "type": "function"
    },
    {
      "constant": true,
      "inputs": [],
      "name": "driipSettlementChallengeState",
      "outputs": [
        {
          "name": "",
          "type": "address"
        }
      ],
      "payable": false,
      "stateMutability": "view",
      "type": "function"
    },
    {
      "constant": true,
      "inputs": [],
      "name": "operator",
      "outputs": [
        {
          "name": "",
          "type": "address"
        }
      ],
      "payable": false,
      "stateMutability": "view",
      "type": "function"
    },
    {
      "constant": false,
      "inputs": [
        {
          "name": "newBalanceTracker",
          "type": "address"
        }
      ],
      "name": "setBalanceTracker",
      "outputs": [],
      "payable": false,
      "stateMutability": "nonpayable",
      "type": "function"
    },
    {
      "constant": false,
      "inputs": [],
      "name": "freezeWalletLocker",
      "outputs": [],
      "payable": false,
      "stateMutability": "nonpayable",
      "type": "function"
    },
    {
      "constant": false,
      "inputs": [
        {
          "name": "newConfiguration",
          "type": "address"
        }
      ],
      "name": "setConfiguration",
      "outputs": [],
      "payable": false,
      "stateMutability": "nonpayable",
      "type": "function"
    },
    {
      "constant": true,
      "inputs": [],
      "name": "configuration",
      "outputs": [
        {
          "name": "",
          "type": "address"
        }
      ],
      "payable": false,
      "stateMutability": "view",
      "type": "function"
    },
    {
      "constant": false,
      "inputs": [],
      "name": "disableSelfDestruction",
      "outputs": [],
      "payable": false,
      "stateMutability": "nonpayable",
      "type": "function"
    },
    {
      "constant": false,
      "inputs": [
        {
          "name": "newWalletLocker",
          "type": "address"
        }
      ],
      "name": "setWalletLocker",
      "outputs": [],
      "payable": false,
      "stateMutability": "nonpayable",
      "type": "function"
    },
    {
      "constant": false,
      "inputs": [
        {
          "name": "newDeployer",
          "type": "address"
        }
      ],
      "name": "setDeployer",
      "outputs": [],
      "payable": false,
      "stateMutability": "nonpayable",
      "type": "function"
    },
    {
      "constant": false,
      "inputs": [
        {
          "name": "newOperator",
          "type": "address"
        }
      ],
      "name": "setOperator",
      "outputs": [],
      "payable": false,
      "stateMutability": "nonpayable",
      "type": "function"
    },
    {
      "constant": false,
      "inputs": [],
      "name": "freezeBalanceTracker",
      "outputs": [],
      "payable": false,
      "stateMutability": "nonpayable",
      "type": "function"
    },
    {
      "constant": true,
      "inputs": [],
      "name": "deployer",
      "outputs": [
        {
          "name": "",
          "type": "address"
        }
      ],
      "payable": false,
      "stateMutability": "view",
      "type": "function"
    },
    {
      "constant": true,
      "inputs": [],
      "name": "walletLocker",
      "outputs": [
        {
          "name": "",
          "type": "address"
        }
      ],
      "payable": false,
      "stateMutability": "view",
      "type": "function"
    },
    {
      "constant": true,
      "inputs": [],
      "name": "nullSettlementChallengeState",
      "outputs": [
        {
          "name": "",
          "type": "address"
        }
      ],
      "payable": false,
      "stateMutability": "view",
      "type": "function"
    },
    {
      "inputs": [
        {
          "name": "deployer",
          "type": "address"
        }
      ],
      "payable": false,
      "stateMutability": "nonpayable",
      "type": "constructor"
    },
    {
      "anonymous": false,
      "inputs": [
        {
          "indexed": false,
          "name": "oldDriipSettlementDisputeByPayment",
          "type": "address"
        },
        {
          "indexed": false,
          "name": "newDriipSettlementDisputeByPayment",
          "type": "address"
        }
      ],
      "name": "SetDriipSettlementDisputeByPaymentEvent",
      "type": "event"
    },
    {
      "anonymous": false,
      "inputs": [
        {
          "indexed": false,
          "name": "oldDriipSettlementChallengeState",
          "type": "address"
        },
        {
          "indexed": false,
          "name": "newDriipSettlementChallengeState",
          "type": "address"
        }
      ],
      "name": "SetDriipSettlementChallengeStateEvent",
      "type": "event"
    },
    {
      "anonymous": false,
      "inputs": [
        {
          "indexed": false,
          "name": "oldNullSettlementChallengeState",
          "type": "address"
        },
        {
          "indexed": false,
          "name": "newNullSettlementChallengeState",
          "type": "address"
        }
      ],
      "name": "SetNullSettlementChallengeStateEvent",
      "type": "event"
    },
    {
      "anonymous": false,
      "inputs": [
        {
          "indexed": false,
          "name": "wallet",
          "type": "address"
        },
        {
          "indexed": false,
          "name": "nonce",
          "type": "uint256"
        },
        {
          "indexed": false,
          "name": "cumulativeTransferAmount",
          "type": "int256"
        },
        {
          "indexed": false,
          "name": "stageAmount",
          "type": "int256"
        },
        {
          "indexed": false,
          "name": "targetBalanceAmount",
          "type": "int256"
        },
        {
          "indexed": false,
          "name": "currencyCt",
          "type": "address"
        },
        {
          "indexed": false,
          "name": "currencyId",
          "type": "uint256"
        }
      ],
      "name": "StartChallengeFromPaymentEvent",
      "type": "event"
    },
    {
      "anonymous": false,
      "inputs": [
        {
          "indexed": false,
          "name": "wallet",
          "type": "address"
        },
        {
          "indexed": false,
          "name": "nonce",
          "type": "uint256"
        },
        {
          "indexed": false,
          "name": "cumulativeTransferAmount",
          "type": "int256"
        },
        {
          "indexed": false,
          "name": "stageAmount",
          "type": "int256"
        },
        {
          "indexed": false,
          "name": "targetBalanceAmount",
          "type": "int256"
        },
        {
          "indexed": false,
          "name": "currencyCt",
          "type": "address"
        },
        {
          "indexed": false,
          "name": "currencyId",
          "type": "uint256"
        },
        {
          "indexed": false,
          "name": "proxy",
          "type": "address"
        }
      ],
      "name": "StartChallengeFromPaymentByProxyEvent",
      "type": "event"
    },
    {
      "anonymous": false,
      "inputs": [
        {
          "indexed": false,
          "name": "wallet",
          "type": "address"
        },
        {
          "indexed": false,
          "name": "nonce",
          "type": "uint256"
        },
        {
          "indexed": false,
          "name": "cumulativeTransferAmount",
          "type": "int256"
        },
        {
          "indexed": false,
          "name": "stageAmount",
          "type": "int256"
        },
        {
          "indexed": false,
          "name": "targetBalanceAmount",
          "type": "int256"
        },
        {
          "indexed": false,
          "name": "currencyCt",
          "type": "address"
        },
        {
          "indexed": false,
          "name": "currencyId",
          "type": "uint256"
        }
      ],
      "name": "StopChallengeEvent",
      "type": "event"
    },
    {
      "anonymous": false,
      "inputs": [
        {
          "indexed": false,
          "name": "wallet",
          "type": "address"
        },
        {
          "indexed": false,
          "name": "nonce",
          "type": "uint256"
        },
        {
          "indexed": false,
          "name": "cumulativeTransferAmount",
          "type": "int256"
        },
        {
          "indexed": false,
          "name": "stageAmount",
          "type": "int256"
        },
        {
          "indexed": false,
          "name": "targetBalanceAmount",
          "type": "int256"
        },
        {
          "indexed": false,
          "name": "currencyCt",
          "type": "address"
        },
        {
          "indexed": false,
          "name": "currencyId",
          "type": "uint256"
        },
        {
          "indexed": false,
          "name": "proxy",
          "type": "address"
        }
      ],
      "name": "StopChallengeByProxyEvent",
      "type": "event"
    },
    {
      "anonymous": false,
      "inputs": [
        {
          "indexed": false,
          "name": "challengedWallet",
          "type": "address"
        },
        {
          "indexed": false,
          "name": "nonce",
          "type": "uint256"
        },
        {
          "indexed": false,
          "name": "cumulativeTransferAmount",
          "type": "int256"
        },
        {
          "indexed": false,
          "name": "stageAmount",
          "type": "int256"
        },
        {
          "indexed": false,
          "name": "targetBalanceAmount",
          "type": "int256"
        },
        {
          "indexed": false,
          "name": "currencyCt",
          "type": "address"
        },
        {
          "indexed": false,
          "name": "currencyId",
          "type": "uint256"
        },
        {
          "indexed": false,
          "name": "challengerWallet",
          "type": "address"
        }
      ],
      "name": "ChallengeByPaymentEvent",
      "type": "event"
    },
    {
      "anonymous": false,
      "inputs": [
        {
          "indexed": false,
          "name": "oldBalanceTracker",
          "type": "address"
        },
        {
          "indexed": false,
          "name": "newBalanceTracker",
          "type": "address"
        }
      ],
      "name": "SetBalanceTrackerEvent",
      "type": "event"
    },
    {
      "anonymous": false,
      "inputs": [],
      "name": "FreezeBalanceTrackerEvent",
      "type": "event"
    },
    {
      "anonymous": false,
      "inputs": [
        {
          "indexed": false,
          "name": "oldWalletLocker",
          "type": "address"
        },
        {
          "indexed": false,
          "name": "newWalletLocker",
          "type": "address"
        }
      ],
      "name": "SetWalletLockerEvent",
      "type": "event"
    },
    {
      "anonymous": false,
      "inputs": [],
      "name": "FreezeWalletLockerEvent",
      "type": "event"
    },
    {
      "anonymous": false,
      "inputs": [
        {
          "indexed": false,
          "name": "oldValidator",
          "type": "address"
        },
        {
          "indexed": false,
          "name": "newValidator",
          "type": "address"
        }
      ],
      "name": "SetValidatorEvent",
      "type": "event"
    },
    {
      "anonymous": false,
      "inputs": [
        {
          "indexed": false,
          "name": "oldConfiguration",
          "type": "address"
        },
        {
          "indexed": false,
          "name": "newConfiguration",
          "type": "address"
        }
      ],
      "name": "SetConfigurationEvent",
      "type": "event"
    },
    {
      "anonymous": false,
      "inputs": [
        {
          "indexed": false,
          "name": "oldDeployer",
          "type": "address"
        },
        {
          "indexed": false,
          "name": "newDeployer",
          "type": "address"
        }
      ],
      "name": "SetDeployerEvent",
      "type": "event"
    },
    {
      "anonymous": false,
      "inputs": [
        {
          "indexed": false,
          "name": "oldOperator",
          "type": "address"
        },
        {
          "indexed": false,
          "name": "newOperator",
          "type": "address"
        }
      ],
      "name": "SetOperatorEvent",
      "type": "event"
    },
    {
      "anonymous": false,
      "inputs": [
        {
          "indexed": false,
          "name": "wallet",
          "type": "address"
        }
      ],
      "name": "SelfDestructionDisabledEvent",
      "type": "event"
    },
    {
      "anonymous": false,
      "inputs": [
        {
          "indexed": false,
          "name": "wallet",
          "type": "address"
        }
      ],
      "name": "TriggerSelfDestructionEvent",
      "type": "event"
    },
    {
      "constant": false,
      "inputs": [
        {
          "name": "newDriipSettlementDisputeByPayment",
          "type": "address"
        }
      ],
      "name": "setDriipSettlementDisputeByPayment",
      "outputs": [],
      "payable": false,
      "stateMutability": "nonpayable",
      "type": "function"
    },
    {
      "constant": false,
      "inputs": [
        {
          "name": "newDriipSettlementChallengeState",
          "type": "address"
        }
      ],
      "name": "setDriipSettlementChallengeState",
      "outputs": [],
      "payable": false,
      "stateMutability": "nonpayable",
      "type": "function"
    },
    {
      "constant": false,
      "inputs": [
        {
          "name": "newNullSettlementChallengeState",
          "type": "address"
        }
      ],
      "name": "setNullSettlementChallengeState",
      "outputs": [],
      "payable": false,
      "stateMutability": "nonpayable",
      "type": "function"
    },
    {
      "constant": false,
      "inputs": [
        {
          "components": [
            {
              "name": "nonce",
              "type": "uint256"
            },
            {
              "name": "amount",
              "type": "int256"
            },
            {
              "components": [
                {
                  "name": "ct",
                  "type": "address"
                },
                {
                  "name": "id",
                  "type": "uint256"
                }
              ],
              "name": "currency",
              "type": "tuple"
            },
            {
              "components": [
                {
                  "name": "nonce",
                  "type": "uint256"
                },
                {
                  "name": "wallet",
                  "type": "address"
                },
                {
                  "components": [
                    {
                      "name": "current",
                      "type": "int256"
                    },
                    {
                      "name": "previous",
                      "type": "int256"
                    }
                  ],
                  "name": "balances",
                  "type": "tuple"
                },
                {
                  "components": [
                    {
                      "components": [
                        {
                          "name": "amount",
                          "type": "int256"
                        },
                        {
                          "components": [
                            {
                              "name": "ct",
                              "type": "address"
                            },
                            {
                              "name": "id",
                              "type": "uint256"
                            }
                          ],
                          "name": "currency",
                          "type": "tuple"
                        }
                      ],
                      "name": "single",
                      "type": "tuple"
                    },
                    {
                      "components": [
                        {
                          "name": "originId",
                          "type": "uint256"
                        },
                        {
                          "components": [
                            {
                              "name": "amount",
                              "type": "int256"
                            },
                            {
                              "components": [
                                {
                                  "name": "ct",
                                  "type": "address"
                                },
                                {
                                  "name": "id",
                                  "type": "uint256"
                                }
                              ],
                              "name": "currency",
                              "type": "tuple"
                            }
                          ],
                          "name": "figure",
                          "type": "tuple"
                        }
                      ],
                      "name": "total",
                      "type": "tuple[]"
                    }
                  ],
                  "name": "fees",
                  "type": "tuple"
                }
              ],
              "name": "sender",
              "type": "tuple"
            },
            {
              "components": [
                {
                  "name": "nonce",
                  "type": "uint256"
                },
                {
                  "name": "wallet",
                  "type": "address"
                },
                {
                  "components": [
                    {
                      "name": "current",
                      "type": "int256"
                    },
                    {
                      "name": "previous",
                      "type": "int256"
                    }
                  ],
                  "name": "balances",
                  "type": "tuple"
                },
                {
                  "components": [
                    {
                      "components": [
                        {
                          "name": "originId",
                          "type": "uint256"
                        },
                        {
                          "components": [
                            {
                              "name": "amount",
                              "type": "int256"
                            },
                            {
                              "components": [
                                {
                                  "name": "ct",
                                  "type": "address"
                                },
                                {
                                  "name": "id",
                                  "type": "uint256"
                                }
                              ],
                              "name": "currency",
                              "type": "tuple"
                            }
                          ],
                          "name": "figure",
                          "type": "tuple"
                        }
                      ],
                      "name": "total",
                      "type": "tuple[]"
                    }
                  ],
                  "name": "fees",
                  "type": "tuple"
                }
              ],
              "name": "recipient",
              "type": "tuple"
            },
            {
              "components": [
                {
                  "name": "single",
                  "type": "int256"
                },
                {
                  "name": "total",
                  "type": "int256"
                }
              ],
              "name": "transfers",
              "type": "tuple"
            },
            {
              "components": [
                {
                  "components": [
                    {
                      "name": "hash",
                      "type": "bytes32"
                    },
                    {
                      "components": [
                        {
                          "name": "r",
                          "type": "bytes32"
                        },
                        {
                          "name": "s",
                          "type": "bytes32"
                        },
                        {
                          "name": "v",
                          "type": "uint8"
                        }
                      ],
                      "name": "signature",
                      "type": "tuple"
                    }
                  ],
                  "name": "wallet",
                  "type": "tuple"
                },
                {
                  "components": [
                    {
                      "name": "hash",
                      "type": "bytes32"
                    },
                    {
                      "components": [
                        {
                          "name": "r",
                          "type": "bytes32"
                        },
                        {
                          "name": "s",
                          "type": "bytes32"
                        },
                        {
                          "name": "v",
                          "type": "uint8"
                        }
                      ],
                      "name": "signature",
                      "type": "tuple"
                    }
                  ],
                  "name": "operator",
                  "type": "tuple"
                }
              ],
              "name": "seals",
              "type": "tuple"
            },
            {
              "name": "blockNumber",
              "type": "uint256"
            },
            {
              "name": "operatorId",
              "type": "uint256"
            }
          ],
          "name": "payment",
          "type": "tuple"
        },
        {
          "name": "stageAmount",
          "type": "int256"
        }
      ],
      "name": "startChallengeFromPayment",
      "outputs": [],
      "payable": false,
      "stateMutability": "nonpayable",
      "type": "function"
    },
    {
      "constant": false,
      "inputs": [
        {
          "name": "wallet",
          "type": "address"
        },
        {
          "components": [
            {
              "name": "nonce",
              "type": "uint256"
            },
            {
              "name": "amount",
              "type": "int256"
            },
            {
              "components": [
                {
                  "name": "ct",
                  "type": "address"
                },
                {
                  "name": "id",
                  "type": "uint256"
                }
              ],
              "name": "currency",
              "type": "tuple"
            },
            {
              "components": [
                {
                  "name": "nonce",
                  "type": "uint256"
                },
                {
                  "name": "wallet",
                  "type": "address"
                },
                {
                  "components": [
                    {
                      "name": "current",
                      "type": "int256"
                    },
                    {
                      "name": "previous",
                      "type": "int256"
                    }
                  ],
                  "name": "balances",
                  "type": "tuple"
                },
                {
                  "components": [
                    {
                      "components": [
                        {
                          "name": "amount",
                          "type": "int256"
                        },
                        {
                          "components": [
                            {
                              "name": "ct",
                              "type": "address"
                            },
                            {
                              "name": "id",
                              "type": "uint256"
                            }
                          ],
                          "name": "currency",
                          "type": "tuple"
                        }
                      ],
                      "name": "single",
                      "type": "tuple"
                    },
                    {
                      "components": [
                        {
                          "name": "originId",
                          "type": "uint256"
                        },
                        {
                          "components": [
                            {
                              "name": "amount",
                              "type": "int256"
                            },
                            {
                              "components": [
                                {
                                  "name": "ct",
                                  "type": "address"
                                },
                                {
                                  "name": "id",
                                  "type": "uint256"
                                }
                              ],
                              "name": "currency",
                              "type": "tuple"
                            }
                          ],
                          "name": "figure",
                          "type": "tuple"
                        }
                      ],
                      "name": "total",
                      "type": "tuple[]"
                    }
                  ],
                  "name": "fees",
                  "type": "tuple"
                }
              ],
              "name": "sender",
              "type": "tuple"
            },
            {
              "components": [
                {
                  "name": "nonce",
                  "type": "uint256"
                },
                {
                  "name": "wallet",
                  "type": "address"
                },
                {
                  "components": [
                    {
                      "name": "current",
                      "type": "int256"
                    },
                    {
                      "name": "previous",
                      "type": "int256"
                    }
                  ],
                  "name": "balances",
                  "type": "tuple"
                },
                {
                  "components": [
                    {
                      "components": [
                        {
                          "name": "originId",
                          "type": "uint256"
                        },
                        {
                          "components": [
                            {
                              "name": "amount",
                              "type": "int256"
                            },
                            {
                              "components": [
                                {
                                  "name": "ct",
                                  "type": "address"
                                },
                                {
                                  "name": "id",
                                  "type": "uint256"
                                }
                              ],
                              "name": "currency",
                              "type": "tuple"
                            }
                          ],
                          "name": "figure",
                          "type": "tuple"
                        }
                      ],
                      "name": "total",
                      "type": "tuple[]"
                    }
                  ],
                  "name": "fees",
                  "type": "tuple"
                }
              ],
              "name": "recipient",
              "type": "tuple"
            },
            {
              "components": [
                {
                  "name": "single",
                  "type": "int256"
                },
                {
                  "name": "total",
                  "type": "int256"
                }
              ],
              "name": "transfers",
              "type": "tuple"
            },
            {
              "components": [
                {
                  "components": [
                    {
                      "name": "hash",
                      "type": "bytes32"
                    },
                    {
                      "components": [
                        {
                          "name": "r",
                          "type": "bytes32"
                        },
                        {
                          "name": "s",
                          "type": "bytes32"
                        },
                        {
                          "name": "v",
                          "type": "uint8"
                        }
                      ],
                      "name": "signature",
                      "type": "tuple"
                    }
                  ],
                  "name": "wallet",
                  "type": "tuple"
                },
                {
                  "components": [
                    {
                      "name": "hash",
                      "type": "bytes32"
                    },
                    {
                      "components": [
                        {
                          "name": "r",
                          "type": "bytes32"
                        },
                        {
                          "name": "s",
                          "type": "bytes32"
                        },
                        {
                          "name": "v",
                          "type": "uint8"
                        }
                      ],
                      "name": "signature",
                      "type": "tuple"
                    }
                  ],
                  "name": "operator",
                  "type": "tuple"
                }
              ],
              "name": "seals",
              "type": "tuple"
            },
            {
              "name": "blockNumber",
              "type": "uint256"
            },
            {
              "name": "operatorId",
              "type": "uint256"
            }
          ],
          "name": "payment",
          "type": "tuple"
        },
        {
          "name": "stageAmount",
          "type": "int256"
        }
      ],
      "name": "startChallengeFromPaymentByProxy",
      "outputs": [],
      "payable": false,
      "stateMutability": "nonpayable",
      "type": "function"
    },
    {
      "constant": false,
      "inputs": [
        {
          "name": "currencyCt",
          "type": "address"
        },
        {
          "name": "currencyId",
          "type": "uint256"
        }
      ],
      "name": "stopChallenge",
      "outputs": [],
      "payable": false,
      "stateMutability": "nonpayable",
      "type": "function"
    },
    {
      "constant": false,
      "inputs": [
        {
          "name": "wallet",
          "type": "address"
        },
        {
          "name": "currencyCt",
          "type": "address"
        },
        {
          "name": "currencyId",
          "type": "uint256"
        }
      ],
      "name": "stopChallengeByProxy",
      "outputs": [],
      "payable": false,
      "stateMutability": "nonpayable",
      "type": "function"
    },
    {
      "constant": true,
      "inputs": [
        {
          "name": "wallet",
          "type": "address"
        },
        {
          "name": "currencyCt",
          "type": "address"
        },
        {
          "name": "currencyId",
          "type": "uint256"
        }
      ],
      "name": "hasProposalExpired",
      "outputs": [
        {
          "name": "",
          "type": "bool"
        }
      ],
      "payable": false,
      "stateMutability": "view",
      "type": "function"
    },
    {
      "constant": true,
      "inputs": [
        {
          "name": "wallet",
          "type": "address"
        },
        {
          "name": "currencyCt",
          "type": "address"
        },
        {
          "name": "currencyId",
          "type": "uint256"
        }
      ],
      "name": "proposalNonce",
      "outputs": [
        {
          "name": "",
          "type": "uint256"
        }
      ],
      "payable": false,
      "stateMutability": "view",
      "type": "function"
    },
    {
      "constant": true,
      "inputs": [
        {
          "name": "wallet",
          "type": "address"
        },
        {
          "name": "currencyCt",
          "type": "address"
        },
        {
          "name": "currencyId",
          "type": "uint256"
        }
      ],
      "name": "proposalBlockNumber",
      "outputs": [
        {
          "name": "",
          "type": "uint256"
        }
      ],
      "payable": false,
      "stateMutability": "view",
      "type": "function"
    },
    {
      "constant": true,
      "inputs": [
        {
          "name": "wallet",
          "type": "address"
        },
        {
          "name": "currencyCt",
          "type": "address"
        },
        {
          "name": "currencyId",
          "type": "uint256"
        }
      ],
      "name": "proposalExpirationTime",
      "outputs": [
        {
          "name": "",
          "type": "uint256"
        }
      ],
      "payable": false,
      "stateMutability": "view",
      "type": "function"
    },
    {
      "constant": true,
      "inputs": [
        {
          "name": "wallet",
          "type": "address"
        },
        {
          "name": "currencyCt",
          "type": "address"
        },
        {
          "name": "currencyId",
          "type": "uint256"
        }
      ],
      "name": "proposalStatus",
      "outputs": [
        {
          "name": "",
          "type": "uint8"
        }
      ],
      "payable": false,
      "stateMutability": "view",
      "type": "function"
    },
    {
      "constant": true,
      "inputs": [
        {
          "name": "wallet",
          "type": "address"
        },
        {
          "name": "currencyCt",
          "type": "address"
        },
        {
          "name": "currencyId",
          "type": "uint256"
        }
      ],
      "name": "proposalStageAmount",
      "outputs": [
        {
          "name": "",
          "type": "int256"
        }
      ],
      "payable": false,
      "stateMutability": "view",
      "type": "function"
    },
    {
      "constant": true,
      "inputs": [
        {
          "name": "wallet",
          "type": "address"
        },
        {
          "name": "currencyCt",
          "type": "address"
        },
        {
          "name": "currencyId",
          "type": "uint256"
        }
      ],
      "name": "proposalTargetBalanceAmount",
      "outputs": [
        {
          "name": "",
          "type": "int256"
        }
      ],
      "payable": false,
      "stateMutability": "view",
      "type": "function"
    },
    {
      "constant": true,
      "inputs": [
        {
          "name": "wallet",
          "type": "address"
        },
        {
          "name": "currencyCt",
          "type": "address"
        },
        {
          "name": "currencyId",
          "type": "uint256"
        }
      ],
      "name": "proposalChallengedHash",
      "outputs": [
        {
          "name": "",
          "type": "bytes32"
        }
      ],
      "payable": false,
      "stateMutability": "view",
      "type": "function"
    },
    {
      "constant": true,
      "inputs": [
        {
          "name": "wallet",
          "type": "address"
        },
        {
          "name": "currencyCt",
          "type": "address"
        },
        {
          "name": "currencyId",
          "type": "uint256"
        }
      ],
      "name": "proposalChallengedKind",
      "outputs": [
        {
          "name": "",
          "type": "string"
        }
      ],
      "payable": false,
      "stateMutability": "view",
      "type": "function"
    },
    {
      "constant": true,
      "inputs": [
        {
          "name": "wallet",
          "type": "address"
        },
        {
          "name": "currencyCt",
          "type": "address"
        },
        {
          "name": "currencyId",
          "type": "uint256"
        }
      ],
      "name": "proposalWalletInitiated",
      "outputs": [
        {
          "name": "",
          "type": "bool"
        }
      ],
      "payable": false,
      "stateMutability": "view",
      "type": "function"
    },
    {
      "constant": true,
      "inputs": [
        {
          "name": "wallet",
          "type": "address"
        },
        {
          "name": "currencyCt",
          "type": "address"
        },
        {
          "name": "currencyId",
          "type": "uint256"
        }
      ],
      "name": "proposalDisqualificationChallenger",
      "outputs": [
        {
          "name": "",
          "type": "address"
        }
      ],
      "payable": false,
      "stateMutability": "view",
      "type": "function"
    },
    {
      "constant": true,
      "inputs": [
        {
          "name": "wallet",
          "type": "address"
        },
        {
          "name": "currencyCt",
          "type": "address"
        },
        {
          "name": "currencyId",
          "type": "uint256"
        }
      ],
      "name": "proposalDisqualificationBlockNumber",
      "outputs": [
        {
          "name": "",
          "type": "uint256"
        }
      ],
      "payable": false,
      "stateMutability": "view",
      "type": "function"
    },
    {
      "constant": true,
      "inputs": [
        {
          "name": "wallet",
          "type": "address"
        },
        {
          "name": "currencyCt",
          "type": "address"
        },
        {
          "name": "currencyId",
          "type": "uint256"
        }
      ],
      "name": "proposalDisqualificationCandidateKind",
      "outputs": [
        {
          "name": "",
          "type": "string"
        }
      ],
      "payable": false,
      "stateMutability": "view",
      "type": "function"
    },
    {
      "constant": true,
      "inputs": [
        {
          "name": "wallet",
          "type": "address"
        },
        {
          "name": "currencyCt",
          "type": "address"
        },
        {
          "name": "currencyId",
          "type": "uint256"
        }
      ],
      "name": "proposalDisqualificationCandidateHash",
      "outputs": [
        {
          "name": "",
          "type": "bytes32"
        }
      ],
      "payable": false,
      "stateMutability": "view",
      "type": "function"
    },
    {
      "constant": false,
      "inputs": [
        {
          "name": "wallet",
          "type": "address"
        },
        {
          "components": [
            {
              "name": "nonce",
              "type": "uint256"
            },
            {
              "name": "amount",
              "type": "int256"
            },
            {
              "components": [
                {
                  "name": "ct",
                  "type": "address"
                },
                {
                  "name": "id",
                  "type": "uint256"
                }
              ],
              "name": "currency",
              "type": "tuple"
            },
            {
              "components": [
                {
                  "name": "nonce",
                  "type": "uint256"
                },
                {
                  "name": "wallet",
                  "type": "address"
                },
                {
                  "components": [
                    {
                      "name": "current",
                      "type": "int256"
                    },
                    {
                      "name": "previous",
                      "type": "int256"
                    }
                  ],
                  "name": "balances",
                  "type": "tuple"
                },
                {
                  "components": [
                    {
                      "components": [
                        {
                          "name": "amount",
                          "type": "int256"
                        },
                        {
                          "components": [
                            {
                              "name": "ct",
                              "type": "address"
                            },
                            {
                              "name": "id",
                              "type": "uint256"
                            }
                          ],
                          "name": "currency",
                          "type": "tuple"
                        }
                      ],
                      "name": "single",
                      "type": "tuple"
                    },
                    {
                      "components": [
                        {
                          "name": "originId",
                          "type": "uint256"
                        },
                        {
                          "components": [
                            {
                              "name": "amount",
                              "type": "int256"
                            },
                            {
                              "components": [
                                {
                                  "name": "ct",
                                  "type": "address"
                                },
                                {
                                  "name": "id",
                                  "type": "uint256"
                                }
                              ],
                              "name": "currency",
                              "type": "tuple"
                            }
                          ],
                          "name": "figure",
                          "type": "tuple"
                        }
                      ],
                      "name": "total",
                      "type": "tuple[]"
                    }
                  ],
                  "name": "fees",
                  "type": "tuple"
                }
              ],
              "name": "sender",
              "type": "tuple"
            },
            {
              "components": [
                {
                  "name": "nonce",
                  "type": "uint256"
                },
                {
                  "name": "wallet",
                  "type": "address"
                },
                {
                  "components": [
                    {
                      "name": "current",
                      "type": "int256"
                    },
                    {
                      "name": "previous",
                      "type": "int256"
                    }
                  ],
                  "name": "balances",
                  "type": "tuple"
                },
                {
                  "components": [
                    {
                      "components": [
                        {
                          "name": "originId",
                          "type": "uint256"
                        },
                        {
                          "components": [
                            {
                              "name": "amount",
                              "type": "int256"
                            },
                            {
                              "components": [
                                {
                                  "name": "ct",
                                  "type": "address"
                                },
                                {
                                  "name": "id",
                                  "type": "uint256"
                                }
                              ],
                              "name": "currency",
                              "type": "tuple"
                            }
                          ],
                          "name": "figure",
                          "type": "tuple"
                        }
                      ],
                      "name": "total",
                      "type": "tuple[]"
                    }
                  ],
                  "name": "fees",
                  "type": "tuple"
                }
              ],
              "name": "recipient",
              "type": "tuple"
            },
            {
              "components": [
                {
                  "name": "single",
                  "type": "int256"
                },
                {
                  "name": "total",
                  "type": "int256"
                }
              ],
              "name": "transfers",
              "type": "tuple"
            },
            {
              "components": [
                {
                  "components": [
                    {
                      "name": "hash",
                      "type": "bytes32"
                    },
                    {
                      "components": [
                        {
                          "name": "r",
                          "type": "bytes32"
                        },
                        {
                          "name": "s",
                          "type": "bytes32"
                        },
                        {
                          "name": "v",
                          "type": "uint8"
                        }
                      ],
                      "name": "signature",
                      "type": "tuple"
                    }
                  ],
                  "name": "wallet",
                  "type": "tuple"
                },
                {
                  "components": [
                    {
                      "name": "hash",
                      "type": "bytes32"
                    },
                    {
                      "components": [
                        {
                          "name": "r",
                          "type": "bytes32"
                        },
                        {
                          "name": "s",
                          "type": "bytes32"
                        },
                        {
                          "name": "v",
                          "type": "uint8"
                        }
                      ],
                      "name": "signature",
                      "type": "tuple"
                    }
                  ],
                  "name": "operator",
                  "type": "tuple"
                }
              ],
              "name": "seals",
              "type": "tuple"
            },
            {
              "name": "blockNumber",
              "type": "uint256"
            },
            {
              "name": "operatorId",
              "type": "uint256"
            }
          ],
          "name": "payment",
          "type": "tuple"
        }
      ],
      "name": "challengeByPayment",
      "outputs": [],
      "payable": false,
      "stateMutability": "nonpayable",
      "type": "function"
    }
  ],
  "bytecode": "0x60806040523480156200001157600080fd5b5060405160208062003fae8339810180604052620000339190810190620000b6565b8080600160a060020a03811615156200004b57600080fd5b600160a060020a0381163014156200006257600080fd5b506000805461010060a860020a031916610100600160a060020a039390931692830217905560018054600160a060020a031916909117905550620000eb565b6000620000af8251620000df565b9392505050565b600060208284031215620000c957600080fd5b6000620000d78484620000a1565b949350505050565b600160a060020a031690565b613eb380620000fb6000396000f30060806040526004361061020b5763ffffffff60e060020a600035041663039b9fb181146102105780630712abb0146102465780630fa6f23d146102735780631327d3d81461029557806316987929146102b757806319139092146102e4578063240625d8146102f95780632738a1121461031b5780632aa1c9d9146103305780632d3aae3f146103505780632f013a0014610370578063311a937f146103855780633a5381b5146103a55780633bebdcb5146103ba5780633e59b706146103da57806342cb4587146103ef5780634476d23b1461040f5780634dc8eb791461043157806351d7cd6114610451578063570ca73514610466578063598b75ad1461047b5780635dc60def1461049b578063627f09c3146104b05780636c70bee9146104d05780636ccb43c8146104e557806370327ea1146105055780637da5b11c1461051a578063892860b21461053a578063962147351461055a578063972fcee01461057a5780639882da6c1461059a578063adfb6778146105ba578063b3ab15fb146105da578063b52d470a146105fa578063c19df1e41461060f578063ca7f47ed1461062f578063cdbf94191461064f578063d5b68c621461066f578063d5f394881461068f578063e8ae41e3146106a4578063ed8a829d146106b9578063fa7424f2146106d9578063fb1a825e146106ee578063fca5192b1461070e578063fcd30b021461072e575b600080fd5b34801561021c57600080fd5b5061023061022b366004613490565b61074e565b60405161023d9190613d20565b60405180910390f35b34801561025257600080fd5b50610266610261366004613490565b6107fa565b60405161023d9190613d12565b34801561027f57600080fd5b50610288610898565b60405161023d9190613ce9565b3480156102a157600080fd5b506102b56102b03660046135e3565b6108a7565b005b3480156102c357600080fd5b506102d76102d2366004613490565b61094f565b60405161023d9190613cdb565b3480156102f057600080fd5b506102886109ed565b34801561030557600080fd5b5061030e6109fc565b60405161023d9190613ccd565b34801561032757600080fd5b506102b5610a0c565b34801561033c57600080fd5b506102b561034b3660046135e3565b610a72565b34801561035c57600080fd5b506102b561036b36600461352e565b610b03565b34801561037c57600080fd5b5061030e610d08565b34801561039157600080fd5b506102b56103a0366004613683565b610d11565b3480156103b157600080fd5b50610288610f9b565b3480156103c657600080fd5b5061030e6103d5366004613490565b610faa565b3480156103e657600080fd5b5061030e611048565b3480156103fb57600080fd5b506102d761040a366004613490565b611058565b34801561041b57600080fd5b506104246110a4565b60405161023d9190613a36565b34801561043d57600080fd5b506102b561044c3660046135e3565b6110b8565b34801561045d57600080fd5b5061028861113c565b34801561047257600080fd5b5061042461114b565b34801561048757600080fd5b506102b56104963660046135e3565b61115a565b3480156104a757600080fd5b506102b5611209565b3480156104bc57600080fd5b506102b56104cb3660046135e3565b61125d565b3480156104dc57600080fd5b506102886112f5565b3480156104f157600080fd5b506102b56105003660046135e3565b611304565b34801561051157600080fd5b506102b5611388565b34801561052657600080fd5b5061030e610535366004613490565b6113eb565b34801561054657600080fd5b506102b56105553660046135e3565b611437565b34801561056657600080fd5b506102b561057536600461344c565b6114e6565b34801561058657600080fd5b506102b5610595366004613490565b6115a4565b3480156105a657600080fd5b506102d76105b5366004613490565b61190d565b3480156105c657600080fd5b506102d76105d5366004613490565b611959565b3480156105e657600080fd5b506102b56105f536600461344c565b6119a5565b34801561060657600080fd5b506102b5611a4f565b34801561061b57600080fd5b506102b561062a366004613577565b611aa3565b34801561063b57600080fd5b5061023061064a366004613490565b611df6565b34801561065b57600080fd5b506102d761066a366004613490565b611e42565b34801561067b57600080fd5b506102d761068a366004613490565b611e8e565b34801561069b57600080fd5b50610424611eda565b3480156106b057600080fd5b50610288611eee565b3480156106c557600080fd5b506102b56106d43660046134dd565b611efd565b3480156106e557600080fd5b5061028861226d565b3480156106fa57600080fd5b506102d7610709366004613490565b61227c565b34801561071a57600080fd5b506102d7610729366004613490565b6122c8565b34801561073a57600080fd5b50610424610749366004613490565b612314565b600754604080518082018252600160a060020a03858116825260208201859052915160e060020a6394da13eb02815260609392909216916394da13eb9161079a91889190600401613ae0565b600060405180830381600087803b1580156107b457600080fd5b505af11580156107c8573d6000803e3d6000fd5b505050506040513d6000823e601f3d908101601f191682016040526107f0919081019061364f565b90505b9392505050565b600754604080518082018252600160a060020a03858116825260208201859052915160e060020a63b6e2fc33028152600093929092169163b6e2fc339161084691889190600401613ae0565b602060405180830381600087803b15801561086057600080fd5b505af1158015610874573d6000803e3d6000fd5b505050506040513d601f19601f820116820180604052506107f09190810190613601565b600654600160a060020a031681565b60006108b16123b2565b15156108bc57600080fd5b81600160a060020a03811615156108d257600080fd5b6003548390600160a060020a0390811690821681146109485760038054600160a060020a03878116600160a060020a0319831617909255604051911694507f1882af944a16549c3d4f60e3cd26f158b0c7aac3222cf32971fc21375ce05f609061093f9086908890613cf7565b60405180910390a15b5050505050565b600754604080518082018252600160a060020a03858116825260208201859052915160e060020a63c46fcd75028152600093929092169163c46fcd759161099b91889190600401613ae0565b602060405180830381600087803b1580156109b557600080fd5b505af11580156109c9573d6000803e3d6000fd5b505050506040513d601f19601f820116820180604052506107f091908101906135c5565b600554600160a060020a031681565b60045460a060020a900460ff1681565b33610a156110a4565b600160a060020a031614610a2857600080fd5b60005460ff1615610a3857600080fd5b7f787a5d936e74f4b564b9153575886059829c78cd9927b1be5e0d976b317ef73633604051610a679190613a36565b60405180910390a133ff5b6000610a7c6123b2565b1515610a8757600080fd5b81600160a060020a0381161515610a9d57600080fd5b60078054600160a060020a03858116600160a060020a03198316179283905560405191811694507f4f7125332801996cdeaabf9cff1ac89ddf4b52c673558936affe853ab64a88da92610af69286929190911690613cf7565b60405180910390a1505050565b610b0b6123c8565b1515610b1657600080fd5b610b2383838360006123d9565b600754604080840151905160e060020a632ee2ed250281527f505b0ba83acb520eb622fae274a079c14f40dd43f70fd9f1f8d2312fd4e76caf928692600160a060020a0390911691632ee2ed2591610b8091859190600401613ae0565b602060405180830381600087803b158015610b9a57600080fd5b505af1158015610bae573d6000803e3d6000fd5b505050506040513d601f19601f82011682018060405250610bd291908101906135c5565b600754604080870151905160e060020a638ab3e965028152600160a060020a0390921691638ab3e96591610c0b918a9190600401613ae0565b602060405180830381600087803b158015610c2557600080fd5b505af1158015610c39573d6000803e3d6000fd5b505050506040513d601f19601f82011682018060405250610c5d91908101906135c5565b600754604080880151905160e060020a63c46fcd750281528792600160a060020a03169163c46fcd7591610c95918c91600401613ae0565b602060405180830381600087803b158015610caf57600080fd5b505af1158015610cc3573d6000803e3d6000fd5b505050506040513d601f19601f82011682018060405250610ce791908101906135c5565b60408089015180516020909101519151610af6979695949392903390613bba565b60005460ff1681565b6004805460405160e260020a631293efbb028152600160a060020a0390911691634a4fbeec91610d4391339101613a36565b602060405180830381600087803b158015610d5d57600080fd5b505af1158015610d71573d6000803e3d6000fd5b505050506040513d601f19601f82011682018060405250610d9591908101906135a7565b15610d9f57600080fd5b610dac33838360016123d9565b600754604080840151905160e060020a632ee2ed250281527f1d8a75ed090cb569da62b746afdb83f0969831d5d9b9bb1a11320bc11c438c9f923392600160a060020a0390911691632ee2ed2591610e0991859190600401613ae0565b602060405180830381600087803b158015610e2357600080fd5b505af1158015610e37573d6000803e3d6000fd5b505050506040513d601f19601f82011682018060405250610e5b91908101906135c5565b600754604080870151905160e060020a638ab3e965028152600160a060020a0390921691638ab3e96591610e9491339190600401613ae0565b602060405180830381600087803b158015610eae57600080fd5b505af1158015610ec2573d6000803e3d6000fd5b505050506040513d601f19601f82011682018060405250610ee691908101906135c5565b600754604080880151905160e060020a63c46fcd750281528792600160a060020a03169163c46fcd7591610f1e913391600401613ae0565b602060405180830381600087803b158015610f3857600080fd5b505af1158015610f4c573d6000803e3d6000fd5b505050506040513d601f19601f82011682018060405250610f7091908101906135c5565b60408089015180516020909101519151610f8f97969594939290613b52565b60405180910390a15050565b600354600160a060020a031681565b600754604080518082018252600160a060020a03858116825260208201859052915160e060020a635482c7350281526000939290921691635482c73591610ff691889190600401613ae0565b602060405180830381600087803b15801561101057600080fd5b505af1158015611024573d6000803e3d6000fd5b505050506040513d601f19601f820116820180604052506107f091908101906135a7565b60055460a060020a900460ff1681565b600754604080518082018252600160a060020a03858116825260208201859052915160e160020a633007230f028152600093929092169163600e461e9161099b91889190600401613ae0565b6000546101009004600160a060020a031690565b60006110c26123b2565b15156110cd57600080fd5b81600160a060020a03811615156110e357600080fd5b60068054600160a060020a03858116600160a060020a03198316179283905560405191811694507f663141f76be1f253f0e608edd55c18b0816521f3b635e072c1c2f710dde6ed1992610af69286929190911690613cf7565b600754600160a060020a031681565b600154600160a060020a031681565b60006111646123b2565b151561116f57600080fd5b81600160a060020a038116151561118557600080fd5b6005548390600160a060020a0390811690821681146109485760055460a060020a900460ff16156111b557600080fd5b60058054600160a060020a03878116600160a060020a0319831617909255604051911694507fb2a91d3a71b0c5bc7c083153b3474378e489506ba98bd4ddb1b9056fdc594bb59061093f9086908890613cf7565b6112116123b2565b151561121c57600080fd5b6004805460a060020a60ff02191660a060020a1790556040517f56ec8900b9c4bf84f4b715a53068ca06961dd49084c07b481931e2c2045346e690600090a1565b60006112676123b2565b151561127257600080fd5b81600160a060020a038116151561128857600080fd5b6002548390600160a060020a0390811690821681146109485760028054600160a060020a03878116600160a060020a0319831617909255604051911694507f634f61bf00e14adedce330c80c2823e16e184f189ebe853e1ddecc4a268477ff9061093f9086908890613cf7565b600254600160a060020a031681565b600061130e6123b2565b151561131957600080fd5b81600160a060020a038116151561132f57600080fd5b60088054600160a060020a03858116600160a060020a03198316179283905560405191811694507ff21c127205310467822e10c64b2d9ffae588e019194d6af71f2bdddc0b7ef52692610af69286929190911690613cf7565b336113916110a4565b600160a060020a0316146113a457600080fd5b6000805460ff191660011790556040517fd5a2a04a775c741c2ca0dc46ea7ce4835190e1aaf1ca018def0e82568ec33616906113e1903390613a36565b60405180910390a1565b600754604080518082018252600160a060020a03858116825260208201859052915160e260020a6333ca4eab028152600093929092169163cf293aac91610ff691889190600401613ae0565b60006114416123b2565b151561144c57600080fd5b81600160a060020a038116151561146257600080fd5b6004548390600160a060020a0390811690821681146109485760045460a060020a900460ff161561149257600080fd5b60048054600160a060020a03878116600160a060020a0319831617909255604051911694507fa44d361e26327b72a7ccbeae801b3c5cd7677ea4fa74168b289e273c46bfecfc9061093f9086908890613cf7565b60006114f06123b2565b15156114fb57600080fd5b81600160a060020a038116151561151157600080fd5b600160a060020a03811630141561152757600080fd5b600054600160a060020a03848116610100909204161461159f5760008054600160a060020a0385811661010090810261010060a860020a0319841617909355604051929091041692507f977e5fa58e458501775e0008d275006294c5249e3c08d1d0e3a9f3acad14f6e490610af69084908690613a44565b505050565b6115ac612eaf565b6115b46123c8565b15156115bf57600080fd5b50604080518082018252600160a060020a03808516825260208201849052600754925160e060020a632ee2ed2502815291927f55681e18b795929fa6b2ebef09244e035285788d963bf5d6e3968dc2bf8addf09287929190911690632ee2ed25906116309084908790600401613ae0565b602060405180830381600087803b15801561164a57600080fd5b505af115801561165e573d6000803e3d6000fd5b505050506040513d601f19601f8201168201806040525061168291908101906135c5565b60075460405160e060020a638ab3e965028152600160a060020a0390911690638ab3e965906116b7908a908890600401613ae0565b602060405180830381600087803b1580156116d157600080fd5b505af11580156116e5573d6000803e3d6000fd5b505050506040513d601f19601f8201168201806040525061170991908101906135c5565b60075460405160e160020a633007230f028152600160a060020a039091169063600e461e9061173e908b908990600401613ae0565b602060405180830381600087803b15801561175857600080fd5b505af115801561176c573d6000803e3d6000fd5b505050506040513d601f19601f8201168201806040525061179091908101906135c5565b60075460405160e060020a63c46fcd75028152600160a060020a039091169063c46fcd75906117c5908c908a90600401613ae0565b602060405180830381600087803b1580156117df57600080fd5b505af11580156117f3573d6000803e3d6000fd5b505050506040513d601f19601f8201168201806040525061181791908101906135c5565b88883360405161182e989796959493929190613bba565b60405180910390a160075460405160e460020a63052a0dd1028152600160a060020a03909116906352a0dd109061186e9087908590600090600401613afb565b600060405180830381600087803b15801561188857600080fd5b505af115801561189c573d6000803e3d6000fd5b505060085460405160e260020a6309a216d5028152600160a060020a0390911692506326885b5491506118d59087908590600401613ae0565b600060405180830381600087803b1580156118ef57600080fd5b505af1158015611903573d6000803e3d6000fd5b5050505050505050565b600754604080518082018252600160a060020a03858116825260208201859052915160e060020a63da473c57028152600093929092169163da473c579161099b91889190600401613ae0565b600754604080518082018252600160a060020a03858116825260208201859052915160e060020a631b90e3c10281526000939290921691631b90e3c19161099b91889190600401613ae0565b60006119af6123c8565b15156119ba57600080fd5b81600160a060020a03811615156119d057600080fd5b600160a060020a0381163014156119e657600080fd5b600154600160a060020a0384811691161461159f5760018054600160a060020a03858116600160a060020a0319831617909255604051911692507f9f611b789425d0d5b90b920f1b2852907dd865c80074a30b1629aaa041d1812c90610af69084908690613a44565b611a576123b2565b1515611a6257600080fd5b6005805460a060020a60ff02191660a060020a1790556040517f9c567b65fe8caab5ec7bc979a498a1322c1d4baf01a30727cbca137187560ea290600090a1565b611aab612eaf565b50604080518082018252600160a060020a03808516825260208201849052600754925160e060020a632ee2ed2502815291927f46e3d3c7067c83d22286a7cf49b1ac45b28d128a51b1d4a3b9bdc3927a6da0be9233929190911690632ee2ed2590611b1c9084908790600401613ae0565b602060405180830381600087803b158015611b3657600080fd5b505af1158015611b4a573d6000803e3d6000fd5b505050506040513d601f19601f82011682018060405250611b6e91908101906135c5565b60075460405160e060020a638ab3e965028152600160a060020a0390911690638ab3e96590611ba39033908890600401613ae0565b602060405180830381600087803b158015611bbd57600080fd5b505af1158015611bd1573d6000803e3d6000fd5b505050506040513d601f19601f82011682018060405250611bf591908101906135c5565b60075460405160e160020a633007230f028152600160a060020a039091169063600e461e90611c2a9033908990600401613ae0565b602060405180830381600087803b158015611c4457600080fd5b505af1158015611c58573d6000803e3d6000fd5b505050506040513d601f19601f82011682018060405250611c7c91908101906135c5565b60075460405160e060020a63c46fcd75028152600160a060020a039091169063c46fcd7590611cb19033908a90600401613ae0565b602060405180830381600087803b158015611ccb57600080fd5b505af1158015611cdf573d6000803e3d6000fd5b505050506040513d601f19601f82011682018060405250611d0391908101906135c5565b8888604051611d189796959493929190613b52565b60405180910390a160075460405160e460020a63052a0dd1028152600160a060020a03909116906352a0dd1090611d589033908590600190600401613afb565b600060405180830381600087803b158015611d7257600080fd5b505af1158015611d86573d6000803e3d6000fd5b505060085460405160e260020a6309a216d5028152600160a060020a0390911692506326885b549150611dbf9033908590600401613ae0565b600060405180830381600087803b158015611dd957600080fd5b505af1158015611ded573d6000803e3d6000fd5b50505050505050565b600754604080518082018252600160a060020a03858116825260208201859052915160e160020a63160ed0cd0281526060939290921691632c1da19a9161079a91889190600401613ae0565b600754604080518082018252600160a060020a03858116825260208201859052915160e060020a632ee2ed250281526000939290921691632ee2ed259161099b91889190600401613ae0565b600754604080518082018252600160a060020a03858116825260208201859052915160e160020a6345a76a610281526000939290921691638b4ed4c29161099b91889190600401613ae0565b6000546101009004600160a060020a031681565b600454600160a060020a031681565b600260009054906101000a9004600160a060020a0316600160a060020a031663f71e860f6040518163ffffffff1660e060020a028152600401602060405180830381600087803b158015611f5057600080fd5b505af1158015611f64573d6000803e3d6000fd5b505050506040513d601f19601f82011682018060405250611f8891908101906135a7565b1515611f9357600080fd5b60065460405160e260020a631a49a0cb028152600160a060020a0390911690636926832c90611fca90859085903390600401613b23565b600060405180830381600087803b158015611fe457600080fd5b505af1158015611ff8573d6000803e3d6000fd5b5050600754604080850151905160e060020a632ee2ed250281527fffa28bfeaa617be065ef4f9cbd4448b8ac8e99c98f00741cd2d78fa4732cf9cf9450869350600160a060020a0390921691632ee2ed259161205991859190600401613ae0565b602060405180830381600087803b15801561207357600080fd5b505af1158015612087573d6000803e3d6000fd5b505050506040513d601f19601f820116820180604052506120ab91908101906135c5565b600754604080860151905160e060020a638ab3e965028152600160a060020a0390921691638ab3e965916120e491899190600401613ae0565b602060405180830381600087803b1580156120fe57600080fd5b505af1158015612112573d6000803e3d6000fd5b505050506040513d601f19601f8201168201806040525061213691908101906135c5565b600754604080870151905160e160020a633007230f028152600160a060020a039092169163600e461e9161216f918a9190600401613ae0565b602060405180830381600087803b15801561218957600080fd5b505af115801561219d573d6000803e3d6000fd5b505050506040513d601f19601f820116820180604052506121c191908101906135c5565b600754604080880151905160e060020a63c46fcd75028152600160a060020a039092169163c46fcd75916121fa918b9190600401613ae0565b602060405180830381600087803b15801561221457600080fd5b505af1158015612228573d6000803e3d6000fd5b505050506040513d601f19601f8201168201806040525061224c91908101906135c5565b60408088015180516020909101519151610f8f979695949392903390613bba565b600854600160a060020a031681565b600754604080518082018252600160a060020a03858116825260208201859052915160e060020a6356ec907502815260009392909216916356ec90759161099b91889190600401613ae0565b600754604080518082018252600160a060020a03858116825260208201859052915160e060020a6309df8b0b02815260009392909216916309df8b0b9161099b91889190600401613ae0565b600754604080518082018252600160a060020a03858116825260208201859052915160e060020a6356587229028152600093929092169163565872299161236091889190600401613ae0565b602060405180830381600087803b15801561237a57600080fd5b505af115801561238e573d6000803e3d6000fd5b505050506040513d601f19601f820116820180604052506107f09190810190613472565b6000546101009004600160a060020a0316331490565b600154600160a060020a0316331490565b60035460405160e060020a63a865476b02815260009182918691600160a060020a03169063a865476b90612411908490600401613d31565b602060405180830381600087803b15801561242b57600080fd5b505af115801561243f573d6000803e3d6000fd5b505050506040513d601f19601f8201168201806040525061246391908101906135a7565b151561246e57600080fd5b600260009054906101000a9004600160a060020a0316600160a060020a031663b6bf41766040518163ffffffff1660e060020a028152600401602060405180830381600087803b1580156124c157600080fd5b505af11580156124d5573d6000803e3d6000fd5b505050506040513d601f19601f820116820180604052506124f991908101906135c5565b43101561250557600080fd5b60035460405160e160020a635f1132b7028152600160a060020a039091169063be22656e9061253a9089908b90600401613d42565b602060405180830381600087803b15801561255457600080fd5b505af1158015612568573d6000803e3d6000fd5b505050506040513d601f19601f8201168201806040525061258c91908101906135a7565b151561259757600080fd5b600754604080880151905160e060020a635482c735028152600160a060020a0390921691635482c735916125d0918b9190600401613ae0565b602060405180830381600087803b1580156125ea57600080fd5b505af11580156125fe573d6000803e3d6000fd5b505050506040513d601f19601f8201168201806040525061262291908101906135a7565b151561262d57600080fd5b600854604080880151905160e060020a635482c735028152600160a060020a0390921691635482c73591612666918b9190600401613ae0565b602060405180830381600087803b15801561268057600080fd5b505af1158015612694573d6000803e3d6000fd5b505050506040513d601f19601f820116820180604052506126b891908101906135a7565b15156126c357600080fd5b6126cd868861283b565b6007549194509250600160a060020a031663ec01fa808885858961273d6126fa838363ffffffff61294816565b6127318f8f60400151600560009054906101000a9004600160a060020a0316600160a060020a031661297d9092919063ffffffff16565b9063ffffffff612b9016565b8c604001518d60e001518c8f60c00151602001516000015173__PaymentTypesLib_______________________635174abe96040518163ffffffff1660e060020a02815260040160006040518083038186803b15801561279c57600080fd5b505af41580156127b0573d6000803e3d6000fd5b505050506040513d6000823e601f3d908101601f191682016040526127d8919081019061364f565b6040518b63ffffffff1660e060020a0281526004016128009a99989796959493929190613c31565b600060405180830381600087803b15801561281a57600080fd5b505af115801561282e573d6000803e3d6000fd5b5050505050505050505050565b604082015160e08301516005546000928392839261286d92600160a060020a039091169187919063ffffffff612bd116565b60035460405160e060020a63ef04ec95028152919250600160a060020a03169063ef04ec95906128a39088908890600401613d42565b602060405180830381600087803b1580156128bd57600080fd5b505af11580156128d1573d6000803e3d6000fd5b505050506040513d601f19601f820116820180604052506128f591908101906135a7565b61291d57608085015180516040909101515161291890839063ffffffff612b9016565b61293c565b606085015180516040909101515161293c90839063ffffffff612b9016565b92509250509250929050565b600082820181831280159061295d5750838112155b80612972575060008312801561297257508381125b15156107f357600080fd5b60006107f084600160a060020a03166371f4ec518587600160a060020a0316634652ec746040518163ffffffff1660e060020a028152600401602060405180830381600087803b1580156129d057600080fd5b505af11580156129e4573d6000803e3d6000fd5b505050506040513d601f19601f82011682018060405250612a0891908101906135c5565b8651602088015160405160e060020a63ffffffff8716028152612a319493929190600401613a5f565b602060405180830381600087803b158015612a4b57600080fd5b505af1158015612a5f573d6000803e3d6000fd5b505050506040513d601f19601f82011682018060405250612a8391908101906135c5565b85600160a060020a03166371f4ec518688600160a060020a031663ded113106040518163ffffffff1660e060020a028152600401602060405180830381600087803b158015612ad157600080fd5b505af1158015612ae5573d6000803e3d6000fd5b505050506040513d601f19601f82011682018060405250612b0991908101906135c5565b8751602089015160405160e060020a63ffffffff8716028152612b329493929190600401613a5f565b602060405180830381600087803b158015612b4c57600080fd5b505af1158015612b60573d6000803e3d6000fd5b505050506040513d601f19601f82011682018060405250612b8491908101906135c5565b9063ffffffff61294816565b6000808212158015612ba457508282840313155b80612bbb5750600082128015612bbb575082828403135b1515612bc657600080fd5b508082035b92915050565b600080612be086868686612beb565b509695505050505050565b60008060008060008089600160a060020a031663a246138c8a8c600160a060020a031663ded113106040518163ffffffff1660e060020a028152600401602060405180830381600087803b158015612c4257600080fd5b505af1158015612c56573d6000803e3d6000fd5b505050506040513d601f19601f82011682018060405250612c7a91908101906135c5565b8b5160208d015160405160e060020a63ffffffff8716028152612ca594939291908e90600401613a94565b6040805180830381600087803b158015612cbe57600080fd5b505af1158015612cd2573d6000803e3d6000fd5b505050506040513d601f19601f82011682018060405250612cf6919081019061361f565b9350935089600160a060020a031663a246138c8a8c600160a060020a0316634652ec746040518163ffffffff1660e060020a028152600401602060405180830381600087803b158015612d4857600080fd5b505af1158015612d5c573d6000803e3d6000fd5b505050506040513d601f19601f82011682018060405250612d8091908101906135c5565b8b5160208d015160405160e060020a63ffffffff8716028152612dab94939291908e90600401613a94565b6040805180830381600087803b158015612dc457600080fd5b505af1158015612dd8573d6000803e3d6000fd5b505050506040513d601f19601f82011682018060405250612dfc919081019061361f565b9092509050612e11848363ffffffff61294816565b60405160e060020a63a682d5ad02815290965073__SafeMathUintLib_______________________9063a682d5ad90612e509086908590600401613d62565b60206040518083038186803b158015612e6857600080fd5b505af4158015612e7c573d6000803e3d6000fd5b505050506040513d601f19601f82011682018060405250612ea091908101906135c5565b94505050505094509492505050565b604080518082019091526000808252602082015290565b60006107f38235613df4565b60006107f38251613df4565b6000601f82018313612eef57600080fd5b8135612f02612efd82613da3565b613d7d565b91508181835260208401935060208101905083856080840282011115612f2757600080fd5b60005b83811015612f555781612f3d8882613096565b84525060209092019160809190910190600101612f2a565b5050505092915050565b60006107f38251613e00565b60006107f38235613e05565b60006107f38251613e05565b60006107f38235613e1e565b60006107f38251613e29565b6000601f82018313612fac57600080fd5b8151612fba612efd82613dc3565b91508082526020830160208301858383011115612fd657600080fd5b612fe1838284613e43565b50505092915050565b600060408284031215612ffc57600080fd5b6130066040613d7d565b905060006130148484612ec6565b825250602061302584848301612f6b565b60208301525092915050565b60006040828403121561304357600080fd5b61304d6040613d7d565b905060006130148484612f6b565b60006060828403121561306d57600080fd5b6130776040613d7d565b905060006130858484612f6b565b825250602061302584848301612fea565b6000608082840312156130a857600080fd5b6130b26040613d7d565b905060006130c08484612f6b565b82525060206130258484830161305b565b600060a082840312156130e357600080fd5b6130ed6080613d7d565b905060006130fb8484612f6b565b825250602061310c84848301612ec6565b602083015250604061312084828501613031565b60408301525060808201356001604060020a0381111561313f57600080fd5b61314b848285016133bb565b60608301525092915050565b600060a0828403121561316957600080fd5b6131736080613d7d565b905060006131818484612f6b565b825250602061319284848301612ec6565b60208301525060406131a684828501613031565b60408301525060808201356001604060020a038111156131c557600080fd5b61314b84828501613369565b600061024082840312156131e457600080fd5b6131ef610120613d7d565b905060006131fd8484612f6b565b825250602061320e84848301612f6b565b602083015250604061322284828501612fea565b60408301525060808201356001604060020a0381111561324157600080fd5b61324d84828501613157565b60608301525060a08201356001604060020a0381111561326c57600080fd5b613278848285016130d1565b60808301525060c061328c84828501613031565b60a0830152506101006132a184828501613404565b60c0830152506102006132b684828501612f6b565b60e0830152506102206132cb84828501612f6b565b6101008301525092915050565b6000608082840312156132ea57600080fd5b6132f46040613d7d565b905060006133028484612f6b565b82525060206130258484830160006060828403121561332057600080fd5b61332a6060613d7d565b905060006133388484612f6b565b825250602061334984848301612f6b565b602083015250604061335d84828501613440565b60408301525092915050565b60006080828403121561337b57600080fd5b6133856040613d7d565b90506000613393848461305b565b82525060608201356001604060020a038111156133af57600080fd5b61302584828501612ede565b6000602082840312156133cd57600080fd5b6133d76020613d7d565b905081356001604060020a038111156133ef57600080fd5b6133fb84828501612ede565b82525092915050565b6000610100828403121561341757600080fd5b6134216040613d7d565b9050600061342f84846132d8565b8252506080613025848483016132d8565b60006107f38235613e18565b60006020828403121561345e57600080fd5b600061346a8484612ec6565b949350505050565b60006020828403121561348457600080fd5b600061346a8484612ed2565b6000806000606084860312156134a557600080fd5b60006134b18686612ec6565b93505060206134c286828701612ec6565b92505060406134d386828701612f6b565b9150509250925092565b600080604083850312156134f057600080fd5b60006134fc8585612ec6565b92505060208301356001604060020a0381111561351857600080fd5b613524858286016131d1565b9150509250929050565b60008060006060848603121561354357600080fd5b600061354f8686612ec6565b93505060208401356001604060020a0381111561356b57600080fd5b6134c2868287016131d1565b6000806040838503121561358a57600080fd5b60006135968585612ec6565b925050602061352485828601612f6b565b6000602082840312156135b957600080fd5b600061346a8484612f5f565b6000602082840312156135d757600080fd5b600061346a8484612f77565b6000602082840312156135f557600080fd5b600061346a8484612f83565b60006020828403121561361357600080fd5b600061346a8484612f8f565b6000806040838503121561363257600080fd5b600061363e8585612f77565b925050602061352485828601612f77565b60006020828403121561366157600080fd5b81516001604060020a0381111561367757600080fd5b61346a84828501612f9b565b6000806040838503121561369657600080fd5b82356001604060020a038111156136ac57600080fd5b613596858286016131d1565b6136c181613df4565b82525050565b60006136d282613df0565b8084526020840193506136e483613dea565b60005b82811015613714576136fa8683516137d6565b61370382613dea565b6080969096019591506001016136e7565b5093949350505050565b6136c181613e00565b6136c181613e05565b6136c181613e1e565b6136c181613e38565b600061374d82613df0565b808452613761816020860160208601613e43565b61376a81613e6f565b9093016020019392505050565b8051604083019061378884826136b8565b50602082015161379b6020850182613727565b50505050565b805160408301906137888482613727565b805160608301906137c38482613727565b50602082015161379b6020850182613777565b805160808301906137e78482613727565b50602082015161379b60208501826137b2565b805160009060a084019061380e8582613727565b50602083015161382160208601826136b8565b50604083015161383460408601826137a1565b506060830151848203608086015261384c82826139f0565b95945050505050565b805160009060a08401906138698582613727565b50602083015161387c60208601826136b8565b50604083015161388f60408601826137a1565b506060830151848203608086015261384c82826139c4565b80516000906102408401906138bc8582613727565b5060208301516138cf6020860182613727565b5060408301516138e26040860182613777565b50606083015184820360808601526138fa8282613855565b915050608083015184820360a086015261391482826137fa565b91505060a083015161392960c08601826137a1565b5060c083015161393d610100860182613a08565b5060e0830151613951610200860182613727565b50610100830151613966610220860182613727565b509392505050565b8051608083019061397f8482613727565b50602082015161379b60208501828051606083019061399e8482613727565b5060208201516139b16020850182613727565b50604082015161379b6040850182613a2d565b805160009060808401906139d885826137b2565b506020830151848203606086015261384c82826136c7565b805160208084526000919084019061384c82826136c7565b8051610100830190613a1a848261396e565b50602082015161379b608085018261396e565b6136c181613e18565b60208101612bcb82846136b8565b60408101613a5282856136b8565b6107f360208301846136b8565b60808101613a6d82876136b8565b613a7a6020830186613727565b613a8760408301856136b8565b61384c6060830184613727565b60a08101613aa282886136b8565b613aaf6020830187613727565b613abc60408301866136b8565b613ac96060830185613727565b613ad66080830184613727565b9695505050505050565b60608101613aee82856136b8565b6107f36020830184613777565b60808101613b0982866136b8565b613b166020830185613777565b61346a606083018461371e565b60608101613b3182866136b8565b8181036020830152613b4381856138a7565b905061346a60408301846136b8565b60e08101613b60828a6136b8565b613b6d6020830189613727565b613b7a6040830188613727565b613b876060830187613727565b613b946080830186613727565b613ba160a08301856136b8565b613bae60c0830184613727565b98975050505050505050565b6101008101613bc9828b6136b8565b613bd6602083018a613727565b613be36040830189613727565b613bf06060830188613727565b613bfd6080830187613727565b613c0a60a08301866136b8565b613c1760c0830185613727565b613c2460e08301846136b8565b9998505050505050505050565b6101608101613c40828d6136b8565b613c4d602083018c613727565b613c5a604083018b613727565b613c67606083018a613727565b613c746080830189613727565b613c8160a0830188613777565b613c8e60e0830187613727565b613c9c61010083018661371e565b613caa610120830185613727565b818103610140830152613cbd8184613742565b9c9b505050505050505050505050565b60208101612bcb828461371e565b60208101612bcb8284613727565b60208101612bcb8284613730565b60408101613d058285613730565b6107f36020830184613730565b60208101612bcb8284613739565b602080825281016107f38184613742565b602080825281016107f381846138a7565b60408082528101613d5381856138a7565b90506107f360208301846136b8565b60408101613d708285613727565b6107f36020830184613727565b6040518181016001604060020a0381118282101715613d9b57600080fd5b604052919050565b60006001604060020a03821115613db957600080fd5b5060209081020190565b60006001604060020a03821115613dd957600080fd5b506020601f91909101601f19160190565b60200190565b5190565b600160a060020a031690565b151590565b90565b600060028210613e1457fe5b5090565b60ff1690565b6000612bcb82613df4565b600060028210613e1457600080fd5b6000612bcb82613e08565b60005b83811015613e5e578181015183820152602001613e46565b8381111561379b5750506000910152565b601f01601f1916905600a265627a7a72305820b1471fdfa6ac26e6fda6b6ba8f71702b2979e8c2610fafa7a6eb65298fffedc56c6578706572696d656e74616cf50037",
  "source": "/*\n * Hubii Nahmii\n *\n * Compliant with the Hubii Nahmii specification v0.12.\n *\n * Copyright (C) 2017-2018 Hubii AS\n */\n\npragma solidity ^0.4.25;\npragma experimental ABIEncoderV2;\n\nimport {Ownable} from \"./Ownable.sol\";\nimport {ConfigurableOperational} from \"./ConfigurableOperational.sol\";\nimport {Validatable} from \"./Validatable.sol\";\nimport {WalletLockable} from \"./WalletLockable.sol\";\nimport {BalanceTrackable} from \"./BalanceTrackable.sol\";\nimport {SafeMathIntLib} from \"./SafeMathIntLib.sol\";\nimport {SafeMathUintLib} from \"./SafeMathUintLib.sol\";\nimport {DriipSettlementDisputeByPayment} from \"./DriipSettlementDisputeByPayment.sol\";\nimport {DriipSettlementChallengeState} from \"./DriipSettlementChallengeState.sol\";\nimport {NullSettlementChallengeState} from \"./NullSettlementChallengeState.sol\";\nimport {MonetaryTypesLib} from \"./MonetaryTypesLib.sol\";\nimport {NahmiiTypesLib} from \"./NahmiiTypesLib.sol\";\nimport {PaymentTypesLib} from \"./PaymentTypesLib.sol\";\nimport {SettlementChallengeTypesLib} from \"./SettlementChallengeTypesLib.sol\";\nimport {BalanceTracker} from \"./BalanceTracker.sol\";\nimport {BalanceTrackerLib} from \"./BalanceTrackerLib.sol\";\n\n/**\n * @title DriipSettlementChallengeByPayment\n * @notice Where driip settlements pertaining to payments are started and disputed\n */\ncontract DriipSettlementChallengeByPayment is Ownable, ConfigurableOperational, Validatable, WalletLockable,\nBalanceTrackable {\n    using SafeMathIntLib for int256;\n    using SafeMathUintLib for uint256;\n    using BalanceTrackerLib for BalanceTracker;\n\n    //\n    // Variables\n    // -----------------------------------------------------------------------------------------------------------------\n    DriipSettlementDisputeByPayment public driipSettlementDisputeByPayment;\n    DriipSettlementChallengeState public driipSettlementChallengeState;\n    NullSettlementChallengeState public nullSettlementChallengeState;\n\n    //\n    // Events\n    // -----------------------------------------------------------------------------------------------------------------\n    event SetDriipSettlementDisputeByPaymentEvent(DriipSettlementDisputeByPayment oldDriipSettlementDisputeByPayment,\n        DriipSettlementDisputeByPayment newDriipSettlementDisputeByPayment);\n    event SetDriipSettlementChallengeStateEvent(DriipSettlementChallengeState oldDriipSettlementChallengeState,\n        DriipSettlementChallengeState newDriipSettlementChallengeState);\n    event SetNullSettlementChallengeStateEvent(NullSettlementChallengeState oldNullSettlementChallengeState,\n        NullSettlementChallengeState newNullSettlementChallengeState);\n    event StartChallengeFromPaymentEvent(address wallet, uint256 nonce, int256 cumulativeTransferAmount, int256 stageAmount,\n        int256 targetBalanceAmount, address currencyCt, uint256 currencyId);\n    event StartChallengeFromPaymentByProxyEvent(address wallet, uint256 nonce, int256 cumulativeTransferAmount, int256 stageAmount,\n        int256 targetBalanceAmount, address currencyCt, uint256 currencyId, address proxy);\n    event StopChallengeEvent(address wallet, uint256 nonce, int256 cumulativeTransferAmount, int256 stageAmount,\n        int256 targetBalanceAmount, address currencyCt, uint256 currencyId);\n    event StopChallengeByProxyEvent(address wallet, uint256 nonce, int256 cumulativeTransferAmount, int256 stageAmount,\n        int256 targetBalanceAmount, address currencyCt, uint256 currencyId, address proxy);\n    event ChallengeByPaymentEvent(address challengedWallet, uint256 nonce, int256 cumulativeTransferAmount, int256 stageAmount,\n        int256 targetBalanceAmount, address currencyCt, uint256 currencyId, address challengerWallet);\n\n    //\n    // Constructor\n    // -----------------------------------------------------------------------------------------------------------------\n    constructor(address deployer) Ownable(deployer) public {\n    }\n\n    //\n    // Functions\n    // -----------------------------------------------------------------------------------------------------------------\n    /// @notice Set the settlement dispute contract\n    /// @param newDriipSettlementDisputeByPayment The (address of) DriipSettlementDisputeByPayment contract instance\n    function setDriipSettlementDisputeByPayment(DriipSettlementDisputeByPayment newDriipSettlementDisputeByPayment)\n    public\n    onlyDeployer\n    notNullAddress(newDriipSettlementDisputeByPayment)\n    {\n        DriipSettlementDisputeByPayment oldDriipSettlementDisputeByPayment = driipSettlementDisputeByPayment;\n        driipSettlementDisputeByPayment = newDriipSettlementDisputeByPayment;\n        emit SetDriipSettlementDisputeByPaymentEvent(oldDriipSettlementDisputeByPayment, driipSettlementDisputeByPayment);\n    }\n\n    /// @notice Set the driip settlement challenge state contract\n    /// @param newDriipSettlementChallengeState The (address of) DriipSettlementChallengeState contract instance\n    function setDriipSettlementChallengeState(DriipSettlementChallengeState newDriipSettlementChallengeState)\n    public\n    onlyDeployer\n    notNullAddress(newDriipSettlementChallengeState)\n    {\n        DriipSettlementChallengeState oldDriipSettlementChallengeState = driipSettlementChallengeState;\n        driipSettlementChallengeState = newDriipSettlementChallengeState;\n        emit SetDriipSettlementChallengeStateEvent(oldDriipSettlementChallengeState, driipSettlementChallengeState);\n    }\n\n    /// @notice Set the null settlement challenge state contract\n    /// @param newNullSettlementChallengeState The (address of) NullSettlementChallengeState contract instance\n    function setNullSettlementChallengeState(NullSettlementChallengeState newNullSettlementChallengeState)\n    public\n    onlyDeployer\n    notNullAddress(newNullSettlementChallengeState)\n    {\n        NullSettlementChallengeState oldNullSettlementChallengeState = nullSettlementChallengeState;\n        nullSettlementChallengeState = newNullSettlementChallengeState;\n        emit SetNullSettlementChallengeStateEvent(oldNullSettlementChallengeState, nullSettlementChallengeState);\n    }\n\n    /// @notice Start settlement challenge on payment\n    /// @param payment The challenged payment\n    /// @param stageAmount Amount of payment currency to be staged\n    function startChallengeFromPayment(PaymentTypesLib.Payment payment, int256 stageAmount)\n    public\n    {\n        // Require that wallet is not temporarily disqualified\n        require(!walletLocker.isLocked(msg.sender));\n\n        // Start challenge for wallet\n        _startChallengeFromPayment(msg.sender, payment, stageAmount, true);\n\n        // Emit event\n        emit StartChallengeFromPaymentEvent(\n            msg.sender,\n            driipSettlementChallengeState.proposalNonce(msg.sender, payment.currency),\n            driipSettlementChallengeState.proposalCumulativeTransferAmount(msg.sender, payment.currency),\n            stageAmount,\n            driipSettlementChallengeState.proposalTargetBalanceAmount(msg.sender, payment.currency),\n            payment.currency.ct, payment.currency.id\n        );\n    }\n\n    /// @notice Start settlement challenge on payment\n    /// @param wallet The concerned party\n    /// @param payment The challenged payment\n    /// @param stageAmount Amount of payment currency to be staged\n    function startChallengeFromPaymentByProxy(address wallet, PaymentTypesLib.Payment payment, int256 stageAmount)\n    public\n    onlyOperator\n    {\n        // Start challenge for wallet\n        _startChallengeFromPayment(wallet, payment, stageAmount, false);\n\n        // Emit event\n        emit StartChallengeFromPaymentByProxyEvent(\n            wallet,\n            driipSettlementChallengeState.proposalNonce(wallet, payment.currency),\n            driipSettlementChallengeState.proposalCumulativeTransferAmount(wallet, payment.currency),\n            stageAmount,\n            driipSettlementChallengeState.proposalTargetBalanceAmount(wallet, payment.currency),\n            payment.currency.ct, payment.currency.id, msg.sender\n        );\n    }\n\n    /// @notice Stop settlement challenge\n    /// @param currencyCt The address of the concerned currency contract (address(0) == ETH)\n    /// @param currencyId The ID of the concerned currency (0 for ETH and ERC20)\n    function stopChallenge(address currencyCt, uint256 currencyId)\n    public\n    {\n        // Define currency\n        MonetaryTypesLib.Currency memory currency = MonetaryTypesLib.Currency(currencyCt, currencyId);\n\n        // Emit event\n        emit StopChallengeEvent(\n            msg.sender,\n            driipSettlementChallengeState.proposalNonce(msg.sender, currency),\n            driipSettlementChallengeState.proposalCumulativeTransferAmount(msg.sender, currency),\n            driipSettlementChallengeState.proposalStageAmount(msg.sender, currency),\n            driipSettlementChallengeState.proposalTargetBalanceAmount(msg.sender, currency),\n            currencyCt, currencyId\n        );\n\n        // Stop driip settlement challenge\n        driipSettlementChallengeState.removeProposal(msg.sender, currency, true);\n\n        // Stop dependent null settlement challenge if existent\n        nullSettlementChallengeState.removeProposal(msg.sender, currency);\n    }\n\n    /// @notice Stop settlement challenge\n    /// @param wallet The concerned wallet\n    /// @param currencyCt The address of the concerned currency contract (address(0) == ETH)\n    /// @param currencyId The ID of the concerned currency (0 for ETH and ERC20)\n    function stopChallengeByProxy(address wallet, address currencyCt, uint256 currencyId)\n    public\n    onlyOperator\n    {\n        // Define currency\n        MonetaryTypesLib.Currency memory currency = MonetaryTypesLib.Currency(currencyCt, currencyId);\n\n        // Emit event\n        emit StopChallengeByProxyEvent(\n            wallet,\n            driipSettlementChallengeState.proposalNonce(wallet, currency),\n            driipSettlementChallengeState.proposalCumulativeTransferAmount(wallet, currency),\n            driipSettlementChallengeState.proposalStageAmount(wallet, currency),\n            driipSettlementChallengeState.proposalTargetBalanceAmount(wallet, currency),\n            currencyCt, currencyId, msg.sender\n        );\n\n        // Stop driip settlement challenge\n        driipSettlementChallengeState.removeProposal(wallet, currency, false);\n\n        // Stop dependent null settlement challenge if existent\n        nullSettlementChallengeState.removeProposal(wallet, currency);\n    }\n\n    /// @notice Gauge whether the proposal for the given wallet and currency has expired\n    /// @param wallet The address of the concerned wallet\n    /// @param currencyCt The address of the concerned currency contract (address(0) == ETH)\n    /// @param currencyId The ID of the concerned currency (0 for ETH and ERC20)\n    /// @return true if proposal has expired, else false\n    function hasProposalExpired(address wallet, address currencyCt, uint256 currencyId)\n    public\n    view\n    returns (bool)\n    {\n        return driipSettlementChallengeState.hasProposalExpired(\n            wallet, MonetaryTypesLib.Currency(currencyCt, currencyId)\n        );\n    }\n\n    /// @notice Get the challenge nonce of the given wallet\n    /// @param wallet The address of the concerned wallet\n    /// @param currencyCt The address of the concerned currency contract (address(0) == ETH)\n    /// @param currencyId The ID of the concerned currency (0 for ETH and ERC20)\n    /// @return The challenge nonce\n    function proposalNonce(address wallet, address currencyCt, uint256 currencyId)\n    public\n    view\n    returns (uint256)\n    {\n        return driipSettlementChallengeState.proposalNonce(\n            wallet, MonetaryTypesLib.Currency(currencyCt, currencyId)\n        );\n    }\n\n    /// @notice Get the settlement proposal block number of the given wallet\n    /// @param wallet The address of the concerned wallet\n    /// @param currencyCt The address of the concerned currency contract (address(0) == ETH)\n    /// @param currencyId The ID of the concerned currency (0 for ETH and ERC20)\n    /// @return The settlement proposal block number\n    function proposalBlockNumber(address wallet, address currencyCt, uint256 currencyId)\n    public\n    view\n    returns (uint256)\n    {\n        return driipSettlementChallengeState.proposalBlockNumber(\n            wallet, MonetaryTypesLib.Currency(currencyCt, currencyId)\n        );\n    }\n\n    /// @notice Get the settlement proposal end time of the given wallet\n    /// @param wallet The address of the concerned wallet\n    /// @param currencyCt The address of the concerned currency contract (address(0) == ETH)\n    /// @param currencyId The ID of the concerned currency (0 for ETH and ERC20)\n    /// @return The settlement proposal end time\n    function proposalExpirationTime(address wallet, address currencyCt, uint256 currencyId)\n    public\n    view\n    returns (uint256)\n    {\n        return driipSettlementChallengeState.proposalExpirationTime(\n            wallet, MonetaryTypesLib.Currency(currencyCt, currencyId)\n        );\n    }\n\n    /// @notice Get the challenge status of the given wallet\n    /// @param wallet The address of the concerned wallet\n    /// @param currencyCt The address of the concerned currency contract (address(0) == ETH)\n    /// @param currencyId The ID of the concerned currency (0 for ETH and ERC20)\n    /// @return The challenge status\n    function proposalStatus(address wallet, address currencyCt, uint256 currencyId)\n    public\n    view\n    returns (SettlementChallengeTypesLib.Status)\n    {\n        return driipSettlementChallengeState.proposalStatus(\n            wallet, MonetaryTypesLib.Currency(currencyCt, currencyId)\n        );\n    }\n\n    /// @notice Get the settlement proposal stage amount of the given wallet and currency\n    /// @param wallet The address of the concerned wallet\n    /// @param currencyCt The address of the concerned currency contract (address(0) == ETH)\n    /// @param currencyId The ID of the concerned currency (0 for ETH and ERC20)\n    /// @return The settlement proposal stage amount\n    function proposalStageAmount(address wallet, address currencyCt, uint256 currencyId)\n    public\n    view\n    returns (int256)\n    {\n        return driipSettlementChallengeState.proposalStageAmount(\n            wallet, MonetaryTypesLib.Currency(currencyCt, currencyId)\n        );\n    }\n\n    /// @notice Get the settlement proposal target balance amount of the given wallet and currency\n    /// @param wallet The address of the concerned wallet\n    /// @param currencyCt The address of the concerned currency contract (address(0) == ETH)\n    /// @param currencyId The ID of the concerned currency (0 for ETH and ERC20)\n    /// @return The settlement proposal target balance amount\n    function proposalTargetBalanceAmount(address wallet, address currencyCt, uint256 currencyId)\n    public\n    view\n    returns (int256)\n    {\n        return driipSettlementChallengeState.proposalTargetBalanceAmount(\n            wallet, MonetaryTypesLib.Currency(currencyCt, currencyId)\n        );\n    }\n\n    /// @notice Get the settlement proposal driip hash of the given wallet and currency\n    /// @param wallet The address of the concerned wallet\n    /// @param currencyCt The address of the concerned currency contract (address(0) == ETH)\n    /// @param currencyId The ID of the concerned currency (0 for ETH and ERC20)\n    /// @return The settlement proposal driip hash\n    function proposalChallengedHash(address wallet, address currencyCt, uint256 currencyId)\n    public\n    view\n    returns (bytes32)\n    {\n        return driipSettlementChallengeState.proposalChallengedHash(\n            wallet, MonetaryTypesLib.Currency(currencyCt, currencyId)\n        );\n    }\n\n    /// @notice Get the settlement proposal driip type of the given wallet and currency\n    /// @param wallet The address of the concerned wallet\n    /// @param currencyCt The address of the concerned currency contract (address(0) == ETH)\n    /// @param currencyId The ID of the concerned currency (0 for ETH and ERC20)\n    /// @return The settlement proposal driip type\n    function proposalChallengedKind(address wallet, address currencyCt, uint256 currencyId)\n    public\n    view\n    returns (string)\n    {\n        return driipSettlementChallengeState.proposalChallengedKind(\n            wallet, MonetaryTypesLib.Currency(currencyCt, currencyId)\n        );\n    }\n\n    /// @notice Get the balance reward of the given wallet's settlement proposal\n    /// @param wallet The address of the concerned wallet\n    /// @param currencyCt The address of the concerned currency contract (address(0) == ETH)\n    /// @param currencyId The ID of the concerned currency (0 for ETH and ERC20)\n    /// @return The balance reward of the settlement proposal\n    function proposalWalletInitiated(address wallet, address currencyCt, uint256 currencyId)\n    public\n    view\n    returns (bool)\n    {\n        return driipSettlementChallengeState.proposalWalletInitiated(\n            wallet, MonetaryTypesLib.Currency(currencyCt, currencyId)\n        );\n    }\n\n    /// @notice Get the disqualification challenger of the given wallet and currency\n    /// @param wallet The address of the concerned wallet\n    /// @param currencyCt The address of the concerned currency contract (address(0) == ETH)\n    /// @param currencyId The ID of the concerned currency (0 for ETH and ERC20)\n    /// @return The challenger of the settlement disqualification\n    function proposalDisqualificationChallenger(address wallet, address currencyCt, uint256 currencyId)\n    public\n    view\n    returns (address)\n    {\n        return driipSettlementChallengeState.proposalDisqualificationChallenger(\n            wallet, MonetaryTypesLib.Currency(currencyCt, currencyId)\n        );\n    }\n    /// @notice Get the disqualification block number of the given wallet and currency\n    /// @param wallet The address of the concerned wallet\n    /// @param currencyCt The address of the concerned currency contract (address(0) == ETH)\n    /// @param currencyId The ID of the concerned currency (0 for ETH and ERC20)\n    /// @return The block number of the settlement disqualification\n    function proposalDisqualificationBlockNumber(address wallet, address currencyCt, uint256 currencyId)\n    public\n    view\n    returns (uint256)\n    {\n        return driipSettlementChallengeState.proposalDisqualificationBlockNumber(\n            wallet, MonetaryTypesLib.Currency(currencyCt, currencyId)\n        );\n    }\n\n    /// @notice Get the disqualification candidate kind of the given wallet and currency\n    /// @param wallet The address of the concerned wallet\n    /// @param currencyCt The address of the concerned currency contract (address(0) == ETH)\n    /// @param currencyId The ID of the concerned currency (0 for ETH and ERC20)\n    /// @return The candidate kind of the settlement disqualification\n    function proposalDisqualificationCandidateKind(address wallet, address currencyCt, uint256 currencyId)\n    public\n    view\n    returns (string)\n    {\n        return driipSettlementChallengeState.proposalDisqualificationCandidateKind(\n            wallet, MonetaryTypesLib.Currency(currencyCt, currencyId)\n        );\n    }\n\n    /// @notice Get the disqualification candidate hash of the given wallet and currency\n    /// @param wallet The address of the concerned wallet\n    /// @param currencyCt The address of the concerned currency contract (address(0) == ETH)\n    /// @param currencyId The ID of the concerned currency (0 for ETH and ERC20)\n    /// @return The candidate hash of the settlement disqualification\n    function proposalDisqualificationCandidateHash(address wallet, address currencyCt, uint256 currencyId)\n    public\n    view\n    returns (bytes32)\n    {\n        return driipSettlementChallengeState.proposalDisqualificationCandidateHash(\n            wallet, MonetaryTypesLib.Currency(currencyCt, currencyId)\n        );\n    }\n\n    /// @notice Challenge the settlement by providing payment candidate\n    /// @param wallet The wallet whose settlement is being challenged\n    /// @param payment The payment candidate that challenges the challenged driip\n    function challengeByPayment(address wallet, PaymentTypesLib.Payment payment)\n    public\n    onlyOperationalModeNormal\n    {\n        // Challenge by payment\n        driipSettlementDisputeByPayment.challengeByPayment(wallet, payment, msg.sender);\n\n        // Emit event\n        emit ChallengeByPaymentEvent(\n            wallet,\n            driipSettlementChallengeState.proposalNonce(wallet, payment.currency),\n            driipSettlementChallengeState.proposalCumulativeTransferAmount(wallet, payment.currency),\n            driipSettlementChallengeState.proposalStageAmount(wallet, payment.currency),\n            driipSettlementChallengeState.proposalTargetBalanceAmount(wallet, payment.currency),\n            payment.currency.ct, payment.currency.id, msg.sender\n        );\n    }\n\n    //\n    // Private functions\n    // -----------------------------------------------------------------------------------------------------------------\n    function _startChallengeFromPayment(address wallet, PaymentTypesLib.Payment payment,\n        int256 stageAmount, bool walletInitiated)\n    private\n    onlySealedPayment(payment)\n    {\n        // Require that current block number is beyond the earliest settlement challenge block number\n        require(block.number >= configuration.earliestSettlementBlockNumber());\n\n        // Require that given wallet is a payment party\n        require(validator.isPaymentParty(payment, wallet));\n\n        // Require that there is no ongoing overlapping driip settlement challenge\n        require(driipSettlementChallengeState.hasProposalExpired(wallet, payment.currency));\n\n        // Require that there is no ongoing overlapping null settlement challenge\n        require(nullSettlementChallengeState.hasProposalExpired(wallet, payment.currency));\n\n        // Deduce the concerned nonce and cumulative relative transfer\n        (uint256 nonce, int256 cumulativeTransferAmount) = _paymentPartyProperties(payment, wallet);\n\n        // Add proposal, including assurance that there is no overlap with active proposal\n        // Target balance amount is calculated as current balance - cumulativeTransferAmount - stageAmount\n        driipSettlementChallengeState.addProposal(\n            wallet, nonce, cumulativeTransferAmount, stageAmount,\n            balanceTracker.fungibleActiveBalanceAmount(wallet, payment.currency).sub(cumulativeTransferAmount.add(stageAmount)),\n            payment.currency, payment.blockNumber,\n            walletInitiated, payment.seals.operator.hash, PaymentTypesLib.PAYMENT_KIND()\n        );\n    }\n\n    function _paymentPartyProperties(PaymentTypesLib.Payment payment, address wallet)\n    private\n    view\n    returns (uint256, int256)\n    {\n        // Obtain the active balance amount at the payment block\n        int256 balanceAmountAtPaymentBlock = balanceTracker.fungibleActiveBalanceAmountByBlockNumber(wallet, payment.currency, payment.blockNumber);\n\n        // Return wallet nonce and cumulative relative transfer\n        return validator.isPaymentSender(payment, wallet) ?\n        (payment.sender.nonce, balanceAmountAtPaymentBlock.sub(payment.sender.balances.current)) :\n    (payment.recipient.nonce, balanceAmountAtPaymentBlock.sub(payment.recipient.balances.current));\n    }\n}\n",
  "sourcePath": "/opt/buildagent/work/855e104608380c36/contracts/DriipSettlementChallengeByPayment.sol",
  "compiler": {
    "name": "solc",
    "version": "0.4.25+commit.59dbf8f1.Emscripten.clang"
  },
  "schemaVersion": "2.0.2",
  "updatedAt": "2019-04-02T08:24:31.942Z"
}