{
  "contractName": "DriipSettlementByPayment",
  "abi": [
    {
      "inputs": [
        {
          "internalType": "address",
          "name": "deployer",
          "type": "address"
        }
      ],
      "payable": false,
      "stateMutability": "nonpayable",
      "type": "constructor"
    },
    {
      "anonymous": false,
      "inputs": [],
      "name": "FreezeBalanceTrackerEvent",
      "type": "event"
    },
    {
      "anonymous": false,
      "inputs": [],
      "name": "FreezeCommunityVoteEvent",
      "type": "event"
    },
    {
      "anonymous": false,
      "inputs": [],
      "name": "FreezeWalletLockerEvent",
      "type": "event"
    },
    {
      "anonymous": false,
      "inputs": [
        {
          "indexed": false,
          "internalType": "address",
          "name": "wallet",
          "type": "address"
        }
      ],
      "name": "SelfDestructionDisabledEvent",
      "type": "event"
    },
    {
      "anonymous": false,
      "inputs": [
        {
          "indexed": false,
          "internalType": "contract BalanceTracker",
          "name": "oldBalanceTracker",
          "type": "address"
        },
        {
          "indexed": false,
          "internalType": "contract BalanceTracker",
          "name": "newBalanceTracker",
          "type": "address"
        }
      ],
      "name": "SetBalanceTrackerEvent",
      "type": "event"
    },
    {
      "anonymous": false,
      "inputs": [
        {
          "indexed": false,
          "internalType": "contract ClientFund",
          "name": "oldClientFund",
          "type": "address"
        },
        {
          "indexed": false,
          "internalType": "contract ClientFund",
          "name": "newClientFund",
          "type": "address"
        }
      ],
      "name": "SetClientFundEvent",
      "type": "event"
    },
    {
      "anonymous": false,
      "inputs": [
        {
          "indexed": false,
          "internalType": "contract CommunityVote",
          "name": "oldCommunityVote",
          "type": "address"
        },
        {
          "indexed": false,
          "internalType": "contract CommunityVote",
          "name": "newCommunityVote",
          "type": "address"
        }
      ],
      "name": "SetCommunityVoteEvent",
      "type": "event"
    },
    {
      "anonymous": false,
      "inputs": [
        {
          "indexed": false,
          "internalType": "contract Configuration",
          "name": "oldConfiguration",
          "type": "address"
        },
        {
          "indexed": false,
          "internalType": "contract Configuration",
          "name": "newConfiguration",
          "type": "address"
        }
      ],
      "name": "SetConfigurationEvent",
      "type": "event"
    },
    {
      "anonymous": false,
      "inputs": [
        {
          "indexed": false,
          "internalType": "address",
          "name": "oldDeployer",
          "type": "address"
        },
        {
          "indexed": false,
          "internalType": "address",
          "name": "newDeployer",
          "type": "address"
        }
      ],
      "name": "SetDeployerEvent",
      "type": "event"
    },
    {
      "anonymous": false,
      "inputs": [
        {
          "indexed": false,
          "internalType": "contract DriipSettlementChallengeState",
          "name": "oldDriipSettlementChallengeState",
          "type": "address"
        },
        {
          "indexed": false,
          "internalType": "contract DriipSettlementChallengeState",
          "name": "newDriipSettlementChallengeState",
          "type": "address"
        }
      ],
      "name": "SetDriipSettlementChallengeStateEvent",
      "type": "event"
    },
    {
      "anonymous": false,
      "inputs": [
        {
          "indexed": false,
          "internalType": "contract DriipSettlementState",
          "name": "oldDriipSettlementState",
          "type": "address"
        },
        {
          "indexed": false,
          "internalType": "contract DriipSettlementState",
          "name": "newDriipSettlementState",
          "type": "address"
        }
      ],
      "name": "SetDriipSettlementStateEvent",
      "type": "event"
    },
    {
      "anonymous": false,
      "inputs": [
        {
          "indexed": false,
          "internalType": "contract FraudChallenge",
          "name": "oldFraudChallenge",
          "type": "address"
        },
        {
          "indexed": false,
          "internalType": "contract FraudChallenge",
          "name": "newFraudChallenge",
          "type": "address"
        }
      ],
      "name": "SetFraudChallengeEvent",
      "type": "event"
    },
    {
      "anonymous": false,
      "inputs": [
        {
          "indexed": false,
          "internalType": "address",
          "name": "oldOperator",
          "type": "address"
        },
        {
          "indexed": false,
          "internalType": "address",
          "name": "newOperator",
          "type": "address"
        }
      ],
      "name": "SetOperatorEvent",
      "type": "event"
    },
    {
      "anonymous": false,
      "inputs": [
        {
          "indexed": false,
          "internalType": "contract PartnerBenefactor",
          "name": "oldPartnerBenefactor",
          "type": "address"
        },
        {
          "indexed": false,
          "internalType": "contract PartnerBenefactor",
          "name": "newPartnerBenefactor",
          "type": "address"
        }
      ],
      "name": "SetPartnerBenefactorEvent",
      "type": "event"
    },
    {
      "anonymous": false,
      "inputs": [
        {
          "indexed": false,
          "internalType": "contract RevenueFund",
          "name": "oldRevenueFund",
          "type": "address"
        },
        {
          "indexed": false,
          "internalType": "contract RevenueFund",
          "name": "newRevenueFund",
          "type": "address"
        }
      ],
      "name": "SetRevenueFundEvent",
      "type": "event"
    },
    {
      "anonymous": false,
      "inputs": [
        {
          "indexed": false,
          "internalType": "contract Validator",
          "name": "oldValidator",
          "type": "address"
        },
        {
          "indexed": false,
          "internalType": "contract Validator",
          "name": "newValidator",
          "type": "address"
        }
      ],
      "name": "SetValidatorEvent",
      "type": "event"
    },
    {
      "anonymous": false,
      "inputs": [
        {
          "indexed": false,
          "internalType": "contract WalletLocker",
          "name": "oldWalletLocker",
          "type": "address"
        },
        {
          "indexed": false,
          "internalType": "contract WalletLocker",
          "name": "newWalletLocker",
          "type": "address"
        }
      ],
      "name": "SetWalletLockerEvent",
      "type": "event"
    },
    {
      "anonymous": false,
      "inputs": [
        {
          "indexed": false,
          "internalType": "address",
          "name": "proxy",
          "type": "address"
        },
        {
          "indexed": false,
          "internalType": "address",
          "name": "wallet",
          "type": "address"
        },
        {
          "components": [
            {
              "internalType": "int256",
              "name": "amount",
              "type": "int256"
            },
            {
              "components": [
                {
                  "internalType": "address",
                  "name": "ct",
                  "type": "address"
                },
                {
                  "internalType": "uint256",
                  "name": "id",
                  "type": "uint256"
                }
              ],
              "internalType": "struct MonetaryTypesLib.Currency",
              "name": "currency",
              "type": "tuple"
            },
            {
              "components": [
                {
                  "internalType": "uint256",
                  "name": "nonce",
                  "type": "uint256"
                },
                {
                  "internalType": "address",
                  "name": "wallet",
                  "type": "address"
                },
                {
                  "components": [
                    {
                      "internalType": "int256",
                      "name": "current",
                      "type": "int256"
                    },
                    {
                      "internalType": "int256",
                      "name": "previous",
                      "type": "int256"
                    }
                  ],
                  "internalType": "struct NahmiiTypesLib.CurrentPreviousInt256",
                  "name": "balances",
                  "type": "tuple"
                },
                {
                  "components": [
                    {
                      "components": [
                        {
                          "internalType": "int256",
                          "name": "amount",
                          "type": "int256"
                        },
                        {
                          "components": [
                            {
                              "internalType": "address",
                              "name": "ct",
                              "type": "address"
                            },
                            {
                              "internalType": "uint256",
                              "name": "id",
                              "type": "uint256"
                            }
                          ],
                          "internalType": "struct MonetaryTypesLib.Currency",
                          "name": "currency",
                          "type": "tuple"
                        }
                      ],
                      "internalType": "struct MonetaryTypesLib.Figure",
                      "name": "single",
                      "type": "tuple"
                    },
                    {
                      "components": [
                        {
                          "internalType": "uint256",
                          "name": "originId",
                          "type": "uint256"
                        },
                        {
                          "components": [
                            {
                              "internalType": "int256",
                              "name": "amount",
                              "type": "int256"
                            },
                            {
                              "components": [
                                {
                                  "internalType": "address",
                                  "name": "ct",
                                  "type": "address"
                                },
                                {
                                  "internalType": "uint256",
                                  "name": "id",
                                  "type": "uint256"
                                }
                              ],
                              "internalType": "struct MonetaryTypesLib.Currency",
                              "name": "currency",
                              "type": "tuple"
                            }
                          ],
                          "internalType": "struct MonetaryTypesLib.Figure",
                          "name": "figure",
                          "type": "tuple"
                        }
                      ],
                      "internalType": "struct NahmiiTypesLib.OriginFigure[]",
                      "name": "total",
                      "type": "tuple[]"
                    }
                  ],
                  "internalType": "struct NahmiiTypesLib.SingleFigureTotalOriginFigures",
                  "name": "fees",
                  "type": "tuple"
                },
                {
                  "internalType": "string",
                  "name": "data",
                  "type": "string"
                }
              ],
              "internalType": "struct PaymentTypesLib.PaymentSenderParty",
              "name": "sender",
              "type": "tuple"
            },
            {
              "components": [
                {
                  "internalType": "uint256",
                  "name": "nonce",
                  "type": "uint256"
                },
                {
                  "internalType": "address",
                  "name": "wallet",
                  "type": "address"
                },
                {
                  "components": [
                    {
                      "internalType": "int256",
                      "name": "current",
                      "type": "int256"
                    },
                    {
                      "internalType": "int256",
                      "name": "previous",
                      "type": "int256"
                    }
                  ],
                  "internalType": "struct NahmiiTypesLib.CurrentPreviousInt256",
                  "name": "balances",
                  "type": "tuple"
                },
                {
                  "components": [
                    {
                      "components": [
                        {
                          "internalType": "uint256",
                          "name": "originId",
                          "type": "uint256"
                        },
                        {
                          "components": [
                            {
                              "internalType": "int256",
                              "name": "amount",
                              "type": "int256"
                            },
                            {
                              "components": [
                                {
                                  "internalType": "address",
                                  "name": "ct",
                                  "type": "address"
                                },
                                {
                                  "internalType": "uint256",
                                  "name": "id",
                                  "type": "uint256"
                                }
                              ],
                              "internalType": "struct MonetaryTypesLib.Currency",
                              "name": "currency",
                              "type": "tuple"
                            }
                          ],
                          "internalType": "struct MonetaryTypesLib.Figure",
                          "name": "figure",
                          "type": "tuple"
                        }
                      ],
                      "internalType": "struct NahmiiTypesLib.OriginFigure[]",
                      "name": "total",
                      "type": "tuple[]"
                    }
                  ],
                  "internalType": "struct NahmiiTypesLib.TotalOriginFigures",
                  "name": "fees",
                  "type": "tuple"
                }
              ],
              "internalType": "struct PaymentTypesLib.PaymentRecipientParty",
              "name": "recipient",
              "type": "tuple"
            },
            {
              "components": [
                {
                  "internalType": "int256",
                  "name": "single",
                  "type": "int256"
                },
                {
                  "internalType": "int256",
                  "name": "total",
                  "type": "int256"
                }
              ],
              "internalType": "struct NahmiiTypesLib.SingleTotalInt256",
              "name": "transfers",
              "type": "tuple"
            },
            {
              "components": [
                {
                  "components": [
                    {
                      "internalType": "bytes32",
                      "name": "hash",
                      "type": "bytes32"
                    },
                    {
                      "components": [
                        {
                          "internalType": "bytes32",
                          "name": "r",
                          "type": "bytes32"
                        },
                        {
                          "internalType": "bytes32",
                          "name": "s",
                          "type": "bytes32"
                        },
                        {
                          "internalType": "uint8",
                          "name": "v",
                          "type": "uint8"
                        }
                      ],
                      "internalType": "struct NahmiiTypesLib.Signature",
                      "name": "signature",
                      "type": "tuple"
                    }
                  ],
                  "internalType": "struct NahmiiTypesLib.Seal",
                  "name": "wallet",
                  "type": "tuple"
                },
                {
                  "components": [
                    {
                      "internalType": "bytes32",
                      "name": "hash",
                      "type": "bytes32"
                    },
                    {
                      "components": [
                        {
                          "internalType": "bytes32",
                          "name": "r",
                          "type": "bytes32"
                        },
                        {
                          "internalType": "bytes32",
                          "name": "s",
                          "type": "bytes32"
                        },
                        {
                          "internalType": "uint8",
                          "name": "v",
                          "type": "uint8"
                        }
                      ],
                      "internalType": "struct NahmiiTypesLib.Signature",
                      "name": "signature",
                      "type": "tuple"
                    }
                  ],
                  "internalType": "struct NahmiiTypesLib.Seal",
                  "name": "operator",
                  "type": "tuple"
                }
              ],
              "internalType": "struct NahmiiTypesLib.WalletOperatorSeal",
              "name": "seals",
              "type": "tuple"
            },
            {
              "internalType": "uint256",
              "name": "blockNumber",
              "type": "uint256"
            },
            {
              "components": [
                {
                  "internalType": "uint256",
                  "name": "id",
                  "type": "uint256"
                },
                {
                  "internalType": "string",
                  "name": "data",
                  "type": "string"
                }
              ],
              "internalType": "struct PaymentTypesLib.Operator",
              "name": "operator",
              "type": "tuple"
            }
          ],
          "indexed": false,
          "internalType": "struct PaymentTypesLib.Payment",
          "name": "payment",
          "type": "tuple"
        },
        {
          "indexed": false,
          "internalType": "string",
          "name": "standard",
          "type": "string"
        }
      ],
      "name": "SettlePaymentByProxyEvent",
      "type": "event"
    },
    {
      "anonymous": false,
      "inputs": [
        {
          "indexed": false,
          "internalType": "address",
          "name": "wallet",
          "type": "address"
        },
        {
          "components": [
            {
              "internalType": "int256",
              "name": "amount",
              "type": "int256"
            },
            {
              "components": [
                {
                  "internalType": "address",
                  "name": "ct",
                  "type": "address"
                },
                {
                  "internalType": "uint256",
                  "name": "id",
                  "type": "uint256"
                }
              ],
              "internalType": "struct MonetaryTypesLib.Currency",
              "name": "currency",
              "type": "tuple"
            },
            {
              "components": [
                {
                  "internalType": "uint256",
                  "name": "nonce",
                  "type": "uint256"
                },
                {
                  "internalType": "address",
                  "name": "wallet",
                  "type": "address"
                },
                {
                  "components": [
                    {
                      "internalType": "int256",
                      "name": "current",
                      "type": "int256"
                    },
                    {
                      "internalType": "int256",
                      "name": "previous",
                      "type": "int256"
                    }
                  ],
                  "internalType": "struct NahmiiTypesLib.CurrentPreviousInt256",
                  "name": "balances",
                  "type": "tuple"
                },
                {
                  "components": [
                    {
                      "components": [
                        {
                          "internalType": "int256",
                          "name": "amount",
                          "type": "int256"
                        },
                        {
                          "components": [
                            {
                              "internalType": "address",
                              "name": "ct",
                              "type": "address"
                            },
                            {
                              "internalType": "uint256",
                              "name": "id",
                              "type": "uint256"
                            }
                          ],
                          "internalType": "struct MonetaryTypesLib.Currency",
                          "name": "currency",
                          "type": "tuple"
                        }
                      ],
                      "internalType": "struct MonetaryTypesLib.Figure",
                      "name": "single",
                      "type": "tuple"
                    },
                    {
                      "components": [
                        {
                          "internalType": "uint256",
                          "name": "originId",
                          "type": "uint256"
                        },
                        {
                          "components": [
                            {
                              "internalType": "int256",
                              "name": "amount",
                              "type": "int256"
                            },
                            {
                              "components": [
                                {
                                  "internalType": "address",
                                  "name": "ct",
                                  "type": "address"
                                },
                                {
                                  "internalType": "uint256",
                                  "name": "id",
                                  "type": "uint256"
                                }
                              ],
                              "internalType": "struct MonetaryTypesLib.Currency",
                              "name": "currency",
                              "type": "tuple"
                            }
                          ],
                          "internalType": "struct MonetaryTypesLib.Figure",
                          "name": "figure",
                          "type": "tuple"
                        }
                      ],
                      "internalType": "struct NahmiiTypesLib.OriginFigure[]",
                      "name": "total",
                      "type": "tuple[]"
                    }
                  ],
                  "internalType": "struct NahmiiTypesLib.SingleFigureTotalOriginFigures",
                  "name": "fees",
                  "type": "tuple"
                },
                {
                  "internalType": "string",
                  "name": "data",
                  "type": "string"
                }
              ],
              "internalType": "struct PaymentTypesLib.PaymentSenderParty",
              "name": "sender",
              "type": "tuple"
            },
            {
              "components": [
                {
                  "internalType": "uint256",
                  "name": "nonce",
                  "type": "uint256"
                },
                {
                  "internalType": "address",
                  "name": "wallet",
                  "type": "address"
                },
                {
                  "components": [
                    {
                      "internalType": "int256",
                      "name": "current",
                      "type": "int256"
                    },
                    {
                      "internalType": "int256",
                      "name": "previous",
                      "type": "int256"
                    }
                  ],
                  "internalType": "struct NahmiiTypesLib.CurrentPreviousInt256",
                  "name": "balances",
                  "type": "tuple"
                },
                {
                  "components": [
                    {
                      "components": [
                        {
                          "internalType": "uint256",
                          "name": "originId",
                          "type": "uint256"
                        },
                        {
                          "components": [
                            {
                              "internalType": "int256",
                              "name": "amount",
                              "type": "int256"
                            },
                            {
                              "components": [
                                {
                                  "internalType": "address",
                                  "name": "ct",
                                  "type": "address"
                                },
                                {
                                  "internalType": "uint256",
                                  "name": "id",
                                  "type": "uint256"
                                }
                              ],
                              "internalType": "struct MonetaryTypesLib.Currency",
                              "name": "currency",
                              "type": "tuple"
                            }
                          ],
                          "internalType": "struct MonetaryTypesLib.Figure",
                          "name": "figure",
                          "type": "tuple"
                        }
                      ],
                      "internalType": "struct NahmiiTypesLib.OriginFigure[]",
                      "name": "total",
                      "type": "tuple[]"
                    }
                  ],
                  "internalType": "struct NahmiiTypesLib.TotalOriginFigures",
                  "name": "fees",
                  "type": "tuple"
                }
              ],
              "internalType": "struct PaymentTypesLib.PaymentRecipientParty",
              "name": "recipient",
              "type": "tuple"
            },
            {
              "components": [
                {
                  "internalType": "int256",
                  "name": "single",
                  "type": "int256"
                },
                {
                  "internalType": "int256",
                  "name": "total",
                  "type": "int256"
                }
              ],
              "internalType": "struct NahmiiTypesLib.SingleTotalInt256",
              "name": "transfers",
              "type": "tuple"
            },
            {
              "components": [
                {
                  "components": [
                    {
                      "internalType": "bytes32",
                      "name": "hash",
                      "type": "bytes32"
                    },
                    {
                      "components": [
                        {
                          "internalType": "bytes32",
                          "name": "r",
                          "type": "bytes32"
                        },
                        {
                          "internalType": "bytes32",
                          "name": "s",
                          "type": "bytes32"
                        },
                        {
                          "internalType": "uint8",
                          "name": "v",
                          "type": "uint8"
                        }
                      ],
                      "internalType": "struct NahmiiTypesLib.Signature",
                      "name": "signature",
                      "type": "tuple"
                    }
                  ],
                  "internalType": "struct NahmiiTypesLib.Seal",
                  "name": "wallet",
                  "type": "tuple"
                },
                {
                  "components": [
                    {
                      "internalType": "bytes32",
                      "name": "hash",
                      "type": "bytes32"
                    },
                    {
                      "components": [
                        {
                          "internalType": "bytes32",
                          "name": "r",
                          "type": "bytes32"
                        },
                        {
                          "internalType": "bytes32",
                          "name": "s",
                          "type": "bytes32"
                        },
                        {
                          "internalType": "uint8",
                          "name": "v",
                          "type": "uint8"
                        }
                      ],
                      "internalType": "struct NahmiiTypesLib.Signature",
                      "name": "signature",
                      "type": "tuple"
                    }
                  ],
                  "internalType": "struct NahmiiTypesLib.Seal",
                  "name": "operator",
                  "type": "tuple"
                }
              ],
              "internalType": "struct NahmiiTypesLib.WalletOperatorSeal",
              "name": "seals",
              "type": "tuple"
            },
            {
              "internalType": "uint256",
              "name": "blockNumber",
              "type": "uint256"
            },
            {
              "components": [
                {
                  "internalType": "uint256",
                  "name": "id",
                  "type": "uint256"
                },
                {
                  "internalType": "string",
                  "name": "data",
                  "type": "string"
                }
              ],
              "internalType": "struct PaymentTypesLib.Operator",
              "name": "operator",
              "type": "tuple"
            }
          ],
          "indexed": false,
          "internalType": "struct PaymentTypesLib.Payment",
          "name": "payment",
          "type": "tuple"
        },
        {
          "indexed": false,
          "internalType": "string",
          "name": "standard",
          "type": "string"
        }
      ],
      "name": "SettlePaymentEvent",
      "type": "event"
    },
    {
      "anonymous": false,
      "inputs": [
        {
          "indexed": false,
          "internalType": "address",
          "name": "wallet",
          "type": "address"
        },
        {
          "indexed": false,
          "internalType": "int256",
          "name": "deltaAmount",
          "type": "int256"
        },
        {
          "indexed": false,
          "internalType": "int256",
          "name": "cumulativeAmount",
          "type": "int256"
        },
        {
          "indexed": false,
          "internalType": "address",
          "name": "currencyCt",
          "type": "address"
        },
        {
          "indexed": false,
          "internalType": "uint256",
          "name": "currencyId",
          "type": "uint256"
        }
      ],
      "name": "StageFeesEvent",
      "type": "event"
    },
    {
      "anonymous": false,
      "inputs": [
        {
          "indexed": false,
          "internalType": "address",
          "name": "wallet",
          "type": "address"
        }
      ],
      "name": "TriggerSelfDestructionEvent",
      "type": "event"
    },
    {
      "constant": true,
      "inputs": [],
      "name": "balanceTracker",
      "outputs": [
        {
          "internalType": "contract BalanceTracker",
          "name": "",
          "type": "address"
        }
      ],
      "payable": false,
      "stateMutability": "view",
      "type": "function"
    },
    {
      "constant": true,
      "inputs": [],
      "name": "balanceTrackerFrozen",
      "outputs": [
        {
          "internalType": "bool",
          "name": "",
          "type": "bool"
        }
      ],
      "payable": false,
      "stateMutability": "view",
      "type": "function"
    },
    {
      "constant": true,
      "inputs": [],
      "name": "clientFund",
      "outputs": [
        {
          "internalType": "contract ClientFund",
          "name": "",
          "type": "address"
        }
      ],
      "payable": false,
      "stateMutability": "view",
      "type": "function"
    },
    {
      "constant": true,
      "inputs": [],
      "name": "communityVote",
      "outputs": [
        {
          "internalType": "contract CommunityVote",
          "name": "",
          "type": "address"
        }
      ],
      "payable": false,
      "stateMutability": "view",
      "type": "function"
    },
    {
      "constant": true,
      "inputs": [],
      "name": "communityVoteFrozen",
      "outputs": [
        {
          "internalType": "bool",
          "name": "",
          "type": "bool"
        }
      ],
      "payable": false,
      "stateMutability": "view",
      "type": "function"
    },
    {
      "constant": true,
      "inputs": [],
      "name": "configuration",
      "outputs": [
        {
          "internalType": "contract Configuration",
          "name": "",
          "type": "address"
        }
      ],
      "payable": false,
      "stateMutability": "view",
      "type": "function"
    },
    {
      "constant": true,
      "inputs": [],
      "name": "deployer",
      "outputs": [
        {
          "internalType": "address",
          "name": "",
          "type": "address"
        }
      ],
      "payable": false,
      "stateMutability": "view",
      "type": "function"
    },
    {
      "constant": true,
      "inputs": [],
      "name": "destructor",
      "outputs": [
        {
          "internalType": "address",
          "name": "",
          "type": "address"
        }
      ],
      "payable": false,
      "stateMutability": "view",
      "type": "function"
    },
    {
      "constant": false,
      "inputs": [],
      "name": "disableSelfDestruction",
      "outputs": [],
      "payable": false,
      "stateMutability": "nonpayable",
      "type": "function"
    },
    {
      "constant": true,
      "inputs": [],
      "name": "driipSettlementChallengeState",
      "outputs": [
        {
          "internalType": "contract DriipSettlementChallengeState",
          "name": "",
          "type": "address"
        }
      ],
      "payable": false,
      "stateMutability": "view",
      "type": "function"
    },
    {
      "constant": true,
      "inputs": [],
      "name": "driipSettlementState",
      "outputs": [
        {
          "internalType": "contract DriipSettlementState",
          "name": "",
          "type": "address"
        }
      ],
      "payable": false,
      "stateMutability": "view",
      "type": "function"
    },
    {
      "constant": true,
      "inputs": [],
      "name": "fraudChallenge",
      "outputs": [
        {
          "internalType": "contract FraudChallenge",
          "name": "",
          "type": "address"
        }
      ],
      "payable": false,
      "stateMutability": "view",
      "type": "function"
    },
    {
      "constant": false,
      "inputs": [],
      "name": "freezeBalanceTracker",
      "outputs": [],
      "payable": false,
      "stateMutability": "nonpayable",
      "type": "function"
    },
    {
      "constant": false,
      "inputs": [],
      "name": "freezeCommunityVote",
      "outputs": [],
      "payable": false,
      "stateMutability": "nonpayable",
      "type": "function"
    },
    {
      "constant": false,
      "inputs": [],
      "name": "freezeWalletLocker",
      "outputs": [],
      "payable": false,
      "stateMutability": "nonpayable",
      "type": "function"
    },
    {
      "constant": true,
      "inputs": [],
      "name": "operator",
      "outputs": [
        {
          "internalType": "address",
          "name": "",
          "type": "address"
        }
      ],
      "payable": false,
      "stateMutability": "view",
      "type": "function"
    },
    {
      "constant": true,
      "inputs": [],
      "name": "partnerBenefactor",
      "outputs": [
        {
          "internalType": "contract PartnerBenefactor",
          "name": "",
          "type": "address"
        }
      ],
      "payable": false,
      "stateMutability": "view",
      "type": "function"
    },
    {
      "constant": true,
      "inputs": [],
      "name": "revenueFund",
      "outputs": [
        {
          "internalType": "contract RevenueFund",
          "name": "",
          "type": "address"
        }
      ],
      "payable": false,
      "stateMutability": "view",
      "type": "function"
    },
    {
      "constant": true,
      "inputs": [],
      "name": "selfDestructionDisabled",
      "outputs": [
        {
          "internalType": "bool",
          "name": "",
          "type": "bool"
        }
      ],
      "payable": false,
      "stateMutability": "view",
      "type": "function"
    },
    {
      "constant": false,
      "inputs": [
        {
          "internalType": "contract BalanceTracker",
          "name": "newBalanceTracker",
          "type": "address"
        }
      ],
      "name": "setBalanceTracker",
      "outputs": [],
      "payable": false,
      "stateMutability": "nonpayable",
      "type": "function"
    },
    {
      "constant": false,
      "inputs": [
        {
          "internalType": "contract ClientFund",
          "name": "newClientFund",
          "type": "address"
        }
      ],
      "name": "setClientFund",
      "outputs": [],
      "payable": false,
      "stateMutability": "nonpayable",
      "type": "function"
    },
    {
      "constant": false,
      "inputs": [
        {
          "internalType": "contract CommunityVote",
          "name": "newCommunityVote",
          "type": "address"
        }
      ],
      "name": "setCommunityVote",
      "outputs": [],
      "payable": false,
      "stateMutability": "nonpayable",
      "type": "function"
    },
    {
      "constant": false,
      "inputs": [
        {
          "internalType": "contract Configuration",
          "name": "newConfiguration",
          "type": "address"
        }
      ],
      "name": "setConfiguration",
      "outputs": [],
      "payable": false,
      "stateMutability": "nonpayable",
      "type": "function"
    },
    {
      "constant": false,
      "inputs": [
        {
          "internalType": "address",
          "name": "newDeployer",
          "type": "address"
        }
      ],
      "name": "setDeployer",
      "outputs": [],
      "payable": false,
      "stateMutability": "nonpayable",
      "type": "function"
    },
    {
      "constant": false,
      "inputs": [
        {
          "internalType": "contract FraudChallenge",
          "name": "newFraudChallenge",
          "type": "address"
        }
      ],
      "name": "setFraudChallenge",
      "outputs": [],
      "payable": false,
      "stateMutability": "nonpayable",
      "type": "function"
    },
    {
      "constant": false,
      "inputs": [
        {
          "internalType": "address",
          "name": "newOperator",
          "type": "address"
        }
      ],
      "name": "setOperator",
      "outputs": [],
      "payable": false,
      "stateMutability": "nonpayable",
      "type": "function"
    },
    {
      "constant": false,
      "inputs": [
        {
          "internalType": "contract PartnerBenefactor",
          "name": "newPartnerBenefactor",
          "type": "address"
        }
      ],
      "name": "setPartnerBenefactor",
      "outputs": [],
      "payable": false,
      "stateMutability": "nonpayable",
      "type": "function"
    },
    {
      "constant": false,
      "inputs": [
        {
          "internalType": "contract Validator",
          "name": "newValidator",
          "type": "address"
        }
      ],
      "name": "setValidator",
      "outputs": [],
      "payable": false,
      "stateMutability": "nonpayable",
      "type": "function"
    },
    {
      "constant": false,
      "inputs": [
        {
          "internalType": "contract WalletLocker",
          "name": "newWalletLocker",
          "type": "address"
        }
      ],
      "name": "setWalletLocker",
      "outputs": [],
      "payable": false,
      "stateMutability": "nonpayable",
      "type": "function"
    },
    {
      "constant": false,
      "inputs": [],
      "name": "triggerSelfDestruction",
      "outputs": [],
      "payable": false,
      "stateMutability": "nonpayable",
      "type": "function"
    },
    {
      "constant": true,
      "inputs": [],
      "name": "validator",
      "outputs": [
        {
          "internalType": "contract Validator",
          "name": "",
          "type": "address"
        }
      ],
      "payable": false,
      "stateMutability": "view",
      "type": "function"
    },
    {
      "constant": true,
      "inputs": [],
      "name": "walletLocker",
      "outputs": [
        {
          "internalType": "contract WalletLocker",
          "name": "",
          "type": "address"
        }
      ],
      "payable": false,
      "stateMutability": "view",
      "type": "function"
    },
    {
      "constant": true,
      "inputs": [],
      "name": "walletLockerFrozen",
      "outputs": [
        {
          "internalType": "bool",
          "name": "",
          "type": "bool"
        }
      ],
      "payable": false,
      "stateMutability": "view",
      "type": "function"
    },
    {
      "constant": false,
      "inputs": [
        {
          "internalType": "contract DriipSettlementChallengeState",
          "name": "newDriipSettlementChallengeState",
          "type": "address"
        }
      ],
      "name": "setDriipSettlementChallengeState",
      "outputs": [],
      "payable": false,
      "stateMutability": "nonpayable",
      "type": "function"
    },
    {
      "constant": false,
      "inputs": [
        {
          "internalType": "contract DriipSettlementState",
          "name": "newDriipSettlementState",
          "type": "address"
        }
      ],
      "name": "setDriipSettlementState",
      "outputs": [],
      "payable": false,
      "stateMutability": "nonpayable",
      "type": "function"
    },
    {
      "constant": false,
      "inputs": [
        {
          "internalType": "contract RevenueFund",
          "name": "newRevenueFund",
          "type": "address"
        }
      ],
      "name": "setRevenueFund",
      "outputs": [],
      "payable": false,
      "stateMutability": "nonpayable",
      "type": "function"
    },
    {
      "constant": true,
      "inputs": [],
      "name": "settlementsCount",
      "outputs": [
        {
          "internalType": "uint256",
          "name": "",
          "type": "uint256"
        }
      ],
      "payable": false,
      "stateMutability": "view",
      "type": "function"
    },
    {
      "constant": true,
      "inputs": [
        {
          "internalType": "address",
          "name": "wallet",
          "type": "address"
        }
      ],
      "name": "settlementsCountByWallet",
      "outputs": [
        {
          "internalType": "uint256",
          "name": "",
          "type": "uint256"
        }
      ],
      "payable": false,
      "stateMutability": "view",
      "type": "function"
    },
    {
      "constant": true,
      "inputs": [
        {
          "internalType": "address",
          "name": "wallet",
          "type": "address"
        },
        {
          "internalType": "uint256",
          "name": "index",
          "type": "uint256"
        }
      ],
      "name": "settlementByWalletAndIndex",
      "outputs": [
        {
          "components": [
            {
              "internalType": "string",
              "name": "settledKind",
              "type": "string"
            },
            {
              "internalType": "bytes32",
              "name": "settledHash",
              "type": "bytes32"
            },
            {
              "components": [
                {
                  "internalType": "uint256",
                  "name": "nonce",
                  "type": "uint256"
                },
                {
                  "internalType": "address",
                  "name": "wallet",
                  "type": "address"
                },
                {
                  "internalType": "uint256",
                  "name": "doneBlockNumber",
                  "type": "uint256"
                }
              ],
              "internalType": "struct DriipSettlementTypesLib.SettlementParty",
              "name": "origin",
              "type": "tuple"
            },
            {
              "components": [
                {
                  "internalType": "uint256",
                  "name": "nonce",
                  "type": "uint256"
                },
                {
                  "internalType": "address",
                  "name": "wallet",
                  "type": "address"
                },
                {
                  "internalType": "uint256",
                  "name": "doneBlockNumber",
                  "type": "uint256"
                }
              ],
              "internalType": "struct DriipSettlementTypesLib.SettlementParty",
              "name": "target",
              "type": "tuple"
            }
          ],
          "internalType": "struct DriipSettlementTypesLib.Settlement",
          "name": "",
          "type": "tuple"
        }
      ],
      "payable": false,
      "stateMutability": "view",
      "type": "function"
    },
    {
      "constant": true,
      "inputs": [
        {
          "internalType": "address",
          "name": "wallet",
          "type": "address"
        },
        {
          "internalType": "uint256",
          "name": "nonce",
          "type": "uint256"
        }
      ],
      "name": "settlementByWalletAndNonce",
      "outputs": [
        {
          "components": [
            {
              "internalType": "string",
              "name": "settledKind",
              "type": "string"
            },
            {
              "internalType": "bytes32",
              "name": "settledHash",
              "type": "bytes32"
            },
            {
              "components": [
                {
                  "internalType": "uint256",
                  "name": "nonce",
                  "type": "uint256"
                },
                {
                  "internalType": "address",
                  "name": "wallet",
                  "type": "address"
                },
                {
                  "internalType": "uint256",
                  "name": "doneBlockNumber",
                  "type": "uint256"
                }
              ],
              "internalType": "struct DriipSettlementTypesLib.SettlementParty",
              "name": "origin",
              "type": "tuple"
            },
            {
              "components": [
                {
                  "internalType": "uint256",
                  "name": "nonce",
                  "type": "uint256"
                },
                {
                  "internalType": "address",
                  "name": "wallet",
                  "type": "address"
                },
                {
                  "internalType": "uint256",
                  "name": "doneBlockNumber",
                  "type": "uint256"
                }
              ],
              "internalType": "struct DriipSettlementTypesLib.SettlementParty",
              "name": "target",
              "type": "tuple"
            }
          ],
          "internalType": "struct DriipSettlementTypesLib.Settlement",
          "name": "",
          "type": "tuple"
        }
      ],
      "payable": false,
      "stateMutability": "view",
      "type": "function"
    },
    {
      "constant": false,
      "inputs": [
        {
          "components": [
            {
              "internalType": "int256",
              "name": "amount",
              "type": "int256"
            },
            {
              "components": [
                {
                  "internalType": "address",
                  "name": "ct",
                  "type": "address"
                },
                {
                  "internalType": "uint256",
                  "name": "id",
                  "type": "uint256"
                }
              ],
              "internalType": "struct MonetaryTypesLib.Currency",
              "name": "currency",
              "type": "tuple"
            },
            {
              "components": [
                {
                  "internalType": "uint256",
                  "name": "nonce",
                  "type": "uint256"
                },
                {
                  "internalType": "address",
                  "name": "wallet",
                  "type": "address"
                },
                {
                  "components": [
                    {
                      "internalType": "int256",
                      "name": "current",
                      "type": "int256"
                    },
                    {
                      "internalType": "int256",
                      "name": "previous",
                      "type": "int256"
                    }
                  ],
                  "internalType": "struct NahmiiTypesLib.CurrentPreviousInt256",
                  "name": "balances",
                  "type": "tuple"
                },
                {
                  "components": [
                    {
                      "components": [
                        {
                          "internalType": "int256",
                          "name": "amount",
                          "type": "int256"
                        },
                        {
                          "components": [
                            {
                              "internalType": "address",
                              "name": "ct",
                              "type": "address"
                            },
                            {
                              "internalType": "uint256",
                              "name": "id",
                              "type": "uint256"
                            }
                          ],
                          "internalType": "struct MonetaryTypesLib.Currency",
                          "name": "currency",
                          "type": "tuple"
                        }
                      ],
                      "internalType": "struct MonetaryTypesLib.Figure",
                      "name": "single",
                      "type": "tuple"
                    },
                    {
                      "components": [
                        {
                          "internalType": "uint256",
                          "name": "originId",
                          "type": "uint256"
                        },
                        {
                          "components": [
                            {
                              "internalType": "int256",
                              "name": "amount",
                              "type": "int256"
                            },
                            {
                              "components": [
                                {
                                  "internalType": "address",
                                  "name": "ct",
                                  "type": "address"
                                },
                                {
                                  "internalType": "uint256",
                                  "name": "id",
                                  "type": "uint256"
                                }
                              ],
                              "internalType": "struct MonetaryTypesLib.Currency",
                              "name": "currency",
                              "type": "tuple"
                            }
                          ],
                          "internalType": "struct MonetaryTypesLib.Figure",
                          "name": "figure",
                          "type": "tuple"
                        }
                      ],
                      "internalType": "struct NahmiiTypesLib.OriginFigure[]",
                      "name": "total",
                      "type": "tuple[]"
                    }
                  ],
                  "internalType": "struct NahmiiTypesLib.SingleFigureTotalOriginFigures",
                  "name": "fees",
                  "type": "tuple"
                },
                {
                  "internalType": "string",
                  "name": "data",
                  "type": "string"
                }
              ],
              "internalType": "struct PaymentTypesLib.PaymentSenderParty",
              "name": "sender",
              "type": "tuple"
            },
            {
              "components": [
                {
                  "internalType": "uint256",
                  "name": "nonce",
                  "type": "uint256"
                },
                {
                  "internalType": "address",
                  "name": "wallet",
                  "type": "address"
                },
                {
                  "components": [
                    {
                      "internalType": "int256",
                      "name": "current",
                      "type": "int256"
                    },
                    {
                      "internalType": "int256",
                      "name": "previous",
                      "type": "int256"
                    }
                  ],
                  "internalType": "struct NahmiiTypesLib.CurrentPreviousInt256",
                  "name": "balances",
                  "type": "tuple"
                },
                {
                  "components": [
                    {
                      "components": [
                        {
                          "internalType": "uint256",
                          "name": "originId",
                          "type": "uint256"
                        },
                        {
                          "components": [
                            {
                              "internalType": "int256",
                              "name": "amount",
                              "type": "int256"
                            },
                            {
                              "components": [
                                {
                                  "internalType": "address",
                                  "name": "ct",
                                  "type": "address"
                                },
                                {
                                  "internalType": "uint256",
                                  "name": "id",
                                  "type": "uint256"
                                }
                              ],
                              "internalType": "struct MonetaryTypesLib.Currency",
                              "name": "currency",
                              "type": "tuple"
                            }
                          ],
                          "internalType": "struct MonetaryTypesLib.Figure",
                          "name": "figure",
                          "type": "tuple"
                        }
                      ],
                      "internalType": "struct NahmiiTypesLib.OriginFigure[]",
                      "name": "total",
                      "type": "tuple[]"
                    }
                  ],
                  "internalType": "struct NahmiiTypesLib.TotalOriginFigures",
                  "name": "fees",
                  "type": "tuple"
                }
              ],
              "internalType": "struct PaymentTypesLib.PaymentRecipientParty",
              "name": "recipient",
              "type": "tuple"
            },
            {
              "components": [
                {
                  "internalType": "int256",
                  "name": "single",
                  "type": "int256"
                },
                {
                  "internalType": "int256",
                  "name": "total",
                  "type": "int256"
                }
              ],
              "internalType": "struct NahmiiTypesLib.SingleTotalInt256",
              "name": "transfers",
              "type": "tuple"
            },
            {
              "components": [
                {
                  "components": [
                    {
                      "internalType": "bytes32",
                      "name": "hash",
                      "type": "bytes32"
                    },
                    {
                      "components": [
                        {
                          "internalType": "bytes32",
                          "name": "r",
                          "type": "bytes32"
                        },
                        {
                          "internalType": "bytes32",
                          "name": "s",
                          "type": "bytes32"
                        },
                        {
                          "internalType": "uint8",
                          "name": "v",
                          "type": "uint8"
                        }
                      ],
                      "internalType": "struct NahmiiTypesLib.Signature",
                      "name": "signature",
                      "type": "tuple"
                    }
                  ],
                  "internalType": "struct NahmiiTypesLib.Seal",
                  "name": "wallet",
                  "type": "tuple"
                },
                {
                  "components": [
                    {
                      "internalType": "bytes32",
                      "name": "hash",
                      "type": "bytes32"
                    },
                    {
                      "components": [
                        {
                          "internalType": "bytes32",
                          "name": "r",
                          "type": "bytes32"
                        },
                        {
                          "internalType": "bytes32",
                          "name": "s",
                          "type": "bytes32"
                        },
                        {
                          "internalType": "uint8",
                          "name": "v",
                          "type": "uint8"
                        }
                      ],
                      "internalType": "struct NahmiiTypesLib.Signature",
                      "name": "signature",
                      "type": "tuple"
                    }
                  ],
                  "internalType": "struct NahmiiTypesLib.Seal",
                  "name": "operator",
                  "type": "tuple"
                }
              ],
              "internalType": "struct NahmiiTypesLib.WalletOperatorSeal",
              "name": "seals",
              "type": "tuple"
            },
            {
              "internalType": "uint256",
              "name": "blockNumber",
              "type": "uint256"
            },
            {
              "components": [
                {
                  "internalType": "uint256",
                  "name": "id",
                  "type": "uint256"
                },
                {
                  "internalType": "string",
                  "name": "data",
                  "type": "string"
                }
              ],
              "internalType": "struct PaymentTypesLib.Operator",
              "name": "operator",
              "type": "tuple"
            }
          ],
          "internalType": "struct PaymentTypesLib.Payment",
          "name": "payment",
          "type": "tuple"
        },
        {
          "internalType": "string",
          "name": "standard",
          "type": "string"
        }
      ],
      "name": "settlePayment",
      "outputs": [],
      "payable": false,
      "stateMutability": "nonpayable",
      "type": "function"
    },
    {
      "constant": false,
      "inputs": [
        {
          "internalType": "address",
          "name": "wallet",
          "type": "address"
        },
        {
          "components": [
            {
              "internalType": "int256",
              "name": "amount",
              "type": "int256"
            },
            {
              "components": [
                {
                  "internalType": "address",
                  "name": "ct",
                  "type": "address"
                },
                {
                  "internalType": "uint256",
                  "name": "id",
                  "type": "uint256"
                }
              ],
              "internalType": "struct MonetaryTypesLib.Currency",
              "name": "currency",
              "type": "tuple"
            },
            {
              "components": [
                {
                  "internalType": "uint256",
                  "name": "nonce",
                  "type": "uint256"
                },
                {
                  "internalType": "address",
                  "name": "wallet",
                  "type": "address"
                },
                {
                  "components": [
                    {
                      "internalType": "int256",
                      "name": "current",
                      "type": "int256"
                    },
                    {
                      "internalType": "int256",
                      "name": "previous",
                      "type": "int256"
                    }
                  ],
                  "internalType": "struct NahmiiTypesLib.CurrentPreviousInt256",
                  "name": "balances",
                  "type": "tuple"
                },
                {
                  "components": [
                    {
                      "components": [
                        {
                          "internalType": "int256",
                          "name": "amount",
                          "type": "int256"
                        },
                        {
                          "components": [
                            {
                              "internalType": "address",
                              "name": "ct",
                              "type": "address"
                            },
                            {
                              "internalType": "uint256",
                              "name": "id",
                              "type": "uint256"
                            }
                          ],
                          "internalType": "struct MonetaryTypesLib.Currency",
                          "name": "currency",
                          "type": "tuple"
                        }
                      ],
                      "internalType": "struct MonetaryTypesLib.Figure",
                      "name": "single",
                      "type": "tuple"
                    },
                    {
                      "components": [
                        {
                          "internalType": "uint256",
                          "name": "originId",
                          "type": "uint256"
                        },
                        {
                          "components": [
                            {
                              "internalType": "int256",
                              "name": "amount",
                              "type": "int256"
                            },
                            {
                              "components": [
                                {
                                  "internalType": "address",
                                  "name": "ct",
                                  "type": "address"
                                },
                                {
                                  "internalType": "uint256",
                                  "name": "id",
                                  "type": "uint256"
                                }
                              ],
                              "internalType": "struct MonetaryTypesLib.Currency",
                              "name": "currency",
                              "type": "tuple"
                            }
                          ],
                          "internalType": "struct MonetaryTypesLib.Figure",
                          "name": "figure",
                          "type": "tuple"
                        }
                      ],
                      "internalType": "struct NahmiiTypesLib.OriginFigure[]",
                      "name": "total",
                      "type": "tuple[]"
                    }
                  ],
                  "internalType": "struct NahmiiTypesLib.SingleFigureTotalOriginFigures",
                  "name": "fees",
                  "type": "tuple"
                },
                {
                  "internalType": "string",
                  "name": "data",
                  "type": "string"
                }
              ],
              "internalType": "struct PaymentTypesLib.PaymentSenderParty",
              "name": "sender",
              "type": "tuple"
            },
            {
              "components": [
                {
                  "internalType": "uint256",
                  "name": "nonce",
                  "type": "uint256"
                },
                {
                  "internalType": "address",
                  "name": "wallet",
                  "type": "address"
                },
                {
                  "components": [
                    {
                      "internalType": "int256",
                      "name": "current",
                      "type": "int256"
                    },
                    {
                      "internalType": "int256",
                      "name": "previous",
                      "type": "int256"
                    }
                  ],
                  "internalType": "struct NahmiiTypesLib.CurrentPreviousInt256",
                  "name": "balances",
                  "type": "tuple"
                },
                {
                  "components": [
                    {
                      "components": [
                        {
                          "internalType": "uint256",
                          "name": "originId",
                          "type": "uint256"
                        },
                        {
                          "components": [
                            {
                              "internalType": "int256",
                              "name": "amount",
                              "type": "int256"
                            },
                            {
                              "components": [
                                {
                                  "internalType": "address",
                                  "name": "ct",
                                  "type": "address"
                                },
                                {
                                  "internalType": "uint256",
                                  "name": "id",
                                  "type": "uint256"
                                }
                              ],
                              "internalType": "struct MonetaryTypesLib.Currency",
                              "name": "currency",
                              "type": "tuple"
                            }
                          ],
                          "internalType": "struct MonetaryTypesLib.Figure",
                          "name": "figure",
                          "type": "tuple"
                        }
                      ],
                      "internalType": "struct NahmiiTypesLib.OriginFigure[]",
                      "name": "total",
                      "type": "tuple[]"
                    }
                  ],
                  "internalType": "struct NahmiiTypesLib.TotalOriginFigures",
                  "name": "fees",
                  "type": "tuple"
                }
              ],
              "internalType": "struct PaymentTypesLib.PaymentRecipientParty",
              "name": "recipient",
              "type": "tuple"
            },
            {
              "components": [
                {
                  "internalType": "int256",
                  "name": "single",
                  "type": "int256"
                },
                {
                  "internalType": "int256",
                  "name": "total",
                  "type": "int256"
                }
              ],
              "internalType": "struct NahmiiTypesLib.SingleTotalInt256",
              "name": "transfers",
              "type": "tuple"
            },
            {
              "components": [
                {
                  "components": [
                    {
                      "internalType": "bytes32",
                      "name": "hash",
                      "type": "bytes32"
                    },
                    {
                      "components": [
                        {
                          "internalType": "bytes32",
                          "name": "r",
                          "type": "bytes32"
                        },
                        {
                          "internalType": "bytes32",
                          "name": "s",
                          "type": "bytes32"
                        },
                        {
                          "internalType": "uint8",
                          "name": "v",
                          "type": "uint8"
                        }
                      ],
                      "internalType": "struct NahmiiTypesLib.Signature",
                      "name": "signature",
                      "type": "tuple"
                    }
                  ],
                  "internalType": "struct NahmiiTypesLib.Seal",
                  "name": "wallet",
                  "type": "tuple"
                },
                {
                  "components": [
                    {
                      "internalType": "bytes32",
                      "name": "hash",
                      "type": "bytes32"
                    },
                    {
                      "components": [
                        {
                          "internalType": "bytes32",
                          "name": "r",
                          "type": "bytes32"
                        },
                        {
                          "internalType": "bytes32",
                          "name": "s",
                          "type": "bytes32"
                        },
                        {
                          "internalType": "uint8",
                          "name": "v",
                          "type": "uint8"
                        }
                      ],
                      "internalType": "struct NahmiiTypesLib.Signature",
                      "name": "signature",
                      "type": "tuple"
                    }
                  ],
                  "internalType": "struct NahmiiTypesLib.Seal",
                  "name": "operator",
                  "type": "tuple"
                }
              ],
              "internalType": "struct NahmiiTypesLib.WalletOperatorSeal",
              "name": "seals",
              "type": "tuple"
            },
            {
              "internalType": "uint256",
              "name": "blockNumber",
              "type": "uint256"
            },
            {
              "components": [
                {
                  "internalType": "uint256",
                  "name": "id",
                  "type": "uint256"
                },
                {
                  "internalType": "string",
                  "name": "data",
                  "type": "string"
                }
              ],
              "internalType": "struct PaymentTypesLib.Operator",
              "name": "operator",
              "type": "tuple"
            }
          ],
          "internalType": "struct PaymentTypesLib.Payment",
          "name": "payment",
          "type": "tuple"
        },
        {
          "internalType": "string",
          "name": "standard",
          "type": "string"
        }
      ],
      "name": "settlePaymentByProxy",
      "outputs": [],
      "payable": false,
      "stateMutability": "nonpayable",
      "type": "function"
    }
  ],
  "bytecode": "0x60806040523480156200001157600080fd5b5060405162004951380380620049518339810160408190526200003491620000b3565b80806001600160a01b0381166200004a57600080fd5b6001600160a01b0381163014156200006157600080fd5b5060008054610100600160a81b0319166101006001600160a01b0393909316928302179055600180546001600160a01b03191690911790555062000108565b8051620000ad81620000ee565b92915050565b600060208284031215620000c657600080fd5b6000620000d48484620000a0565b949350505050565b60006001600160a01b038216620000ad565b620000f981620000dc565b81146200010557600080fd5b50565b61483980620001186000396000f3fe608060405234801561001057600080fd5b50600436106101ee5760003560e01c806301370d06146101f35780631327d3d814610208578063191390921461021b578063240625d81461023957806325c844411461024e5780632738a112146102565780632aa1c9d91461025e5780632f013a00146102715780633a5381b5146102795780633bd7857f146102815780633e59b70614610289578063404e896f146102915780634476d23b146102a457806351d7cd61146102b9578063570ca735146102c15780635736db99146102c9578063598b75ad146102dc5780635dc60def146102ef578063627f09c3146102f7578063670732a71461030a5780636c70bee91461031257806370327ea11461031a578063892860b2146103225780638aa96f26146103355780638c6913bc1461033d5780638e9d6cbd1461035257806395ff296d1461035a5780639621473514610362578063b0c8e20514610375578063b3ab15fb14610388578063b52d470a1461039b578063b71ded2f146103a3578063bf24e7d0146103b6578063c0ffe1b4146103be578063d2f08936146103de578063d5f39488146103f1578063dd3056ca146103f9578063e754476f1461040c578063e86ab8f614610414578063e8ae41e314610427578063f152dd381461042f578063f345fb4414610442575b600080fd5b61020661020136600461356b565b610455565b005b61020661021636600461356b565b6104f6565b610223610587565b60405161023091906144c5565b60405180910390f35b610241610596565b60405161023091906144a9565b6102236105a6565b6102066105b5565b61020661026c36600461356b565b61061b565b6102416106a2565b6102236106ab565b6102236106ba565b6102416106c9565b61020661029f36600461356b565b6106d9565b6102ac610753565b60405161023091906140b6565b610223610767565b6102ac610776565b6102066102d736600461356b565b610785565b6102066102ea36600461356b565b610816565b6102066108da565b61020661030536600461356b565b610929565b6102066109ba565b610223610a09565b610206610a18565b61020661033036600461356b565b610a7b565b610223610b36565b610345610b45565b60405161023091906144b7565b610241610bc7565b610223610bd7565b61020661037036600461345c565b610be6565b61020661038336600461347a565b610c9c565b61020661039636600461345c565b610ced565b610206610d90565b6102066103b136600461356b565b610ddf565b610223610e70565b6103d16103cc3660046134f5565b610e7f565b6040516102309190614673565b6103d16103ec3660046134f5565b610f16565b6102ac610f50565b610206610407366004613647565b610f64565b610223610fae565b61020661042236600461356b565b610fbd565b610223611078565b61020661043d36600461356b565b611087565b61034561045036600461345c565b611101565b61045d61118a565b61046657600080fd5b806001600160a01b03811661047a57600080fd5b60075482906001600160a01b0390811690821681146104f057600780546001600160a01b038681166001600160a01b03198316179092556040519116907f07998fa7be97abe2427246ae4688298c89d6196bbffdf0997b9495a8d27bc673906104e690839088906144d3565b60405180910390a1505b50505050565b6104fe61118a565b61050757600080fd5b806001600160a01b03811661051b57600080fd5b60035482906001600160a01b0390811690821681146104f057600380546001600160a01b038681166001600160a01b03198316179092556040519116907f1882af944a16549c3d4f60e3cd26f158b0c7aac3222cf32971fc21375ce05f60906104e690839088906144d3565b6005546001600160a01b031681565b600854600160a01b900460ff1681565b600b546001600160a01b031681565b336105be610753565b6001600160a01b0316146105d157600080fd5b60005460ff16156105e157600080fd5b7f787a5d936e74f4b564b9153575886059829c78cd9927b1be5e0d976b317ef7363360405161061091906140c4565b60405180910390a133ff5b61062361118a565b61062c57600080fd5b806001600160a01b03811661064057600080fd5b600a80546001600160a01b038481166001600160a01b031983161792839055604051918116927f4f7125332801996cdeaabf9cff1ac89ddf4b52c673558936affe853ab64a88da9261069592859216906144d3565b60405180910390a1505050565b60005460ff1681565b6003546001600160a01b031681565b6007546001600160a01b031681565b600554600160a01b900460ff1681565b6106e161118a565b6106ea57600080fd5b806001600160a01b0381166106fe57600080fd5b600b80546001600160a01b038481166001600160a01b031983161792839055604051918116927f6d4735156f5fb1047cfcd4a9edf19e3291aec19d53916f8fee650ca3c2d739109261069592859216906144d3565b60005461010090046001600160a01b031690565b600a546001600160a01b031681565b6001546001600160a01b031681565b61078d61118a565b61079657600080fd5b806001600160a01b0381166107aa57600080fd5b60095482906001600160a01b0390811690821681146104f057600980546001600160a01b038681166001600160a01b03198316179092556040519116907febf60ff5929740b0a97ee47e911fae91589cc49afdca90ec269737058e7fab91906104e690839088906144d3565b61081e61118a565b61082757600080fd5b806001600160a01b03811661083b57600080fd5b60055482906001600160a01b0390811690821681146104f057600554600160a01b900460ff16156108875760405162461bcd60e51b815260040161087e90614572565b60405180910390fd5b600580546001600160a01b038681166001600160a01b03198316179092556040519116907fb2a91d3a71b0c5bc7c083153b3474378e489506ba98bd4ddb1b9056fdc594bb5906104e690839088906144d3565b6108e261118a565b6108eb57600080fd5b6008805460ff60a01b1916600160a01b1790556040517f56ec8900b9c4bf84f4b715a53068ca06961dd49084c07b481931e2c2045346e690600090a1565b61093161118a565b61093a57600080fd5b806001600160a01b03811661094e57600080fd5b60025482906001600160a01b0390811690821681146104f057600280546001600160a01b038681166001600160a01b03198316179092556040519116907f634f61bf00e14adedce330c80c2823e16e184f189ebe853e1ddecc4a268477ff906104e690839088906144d3565b6109c261118a565b6109cb57600080fd5b6006805460ff60a01b1916600160a01b1790556040517fc1668d45f18667fb6eadfbcacfd5cdcc7dd4ecdfc9b0ab8786cfdbad86bb83d890600090a1565b6002546001600160a01b031681565b33610a21610753565b6001600160a01b031614610a3457600080fd5b6000805460ff191660011790556040517fd5a2a04a775c741c2ca0dc46ea7ce4835190e1aaf1ca018def0e82568ec3361690610a719033906140c4565b60405180910390a1565b610a8361118a565b610a8c57600080fd5b806001600160a01b038116610aa057600080fd5b60085482906001600160a01b0390811690821681146104f057600854600160a01b900460ff1615610ae35760405162461bcd60e51b815260040161087e90614632565b600880546001600160a01b038681166001600160a01b03198316179092556040519116907fa44d361e26327b72a7ccbeae801b3c5cd7677ea4fa74168b289e273c46bfecfc906104e690839088906144d3565b6009546001600160a01b031681565b600b546040805163231a44ef60e21b815290516000926001600160a01b031691638c6913bc916004808301926020929190829003018186803b158015610b8a57600080fd5b505afa158015610b9e573d6000803e3d6000fd5b505050506040513d601f19601f82011682018060405250610bc2919081019061354d565b905090565b600654600160a01b900460ff1681565b600c546001600160a01b031681565b610bee61118a565b610bf757600080fd5b806001600160a01b038116610c0b57600080fd5b6001600160a01b038116301415610c2157600080fd5b6000546001600160a01b038381166101009092041614610c9857600080546001600160a01b03848116610100908102610100600160a81b03198416179093556040519290910416907f977e5fa58e458501775e0008d275006294c5249e3c08d1d0e3a9f3acad14f6e4906106959083908690614151565b5050565b610ca46111a0565b610cad57600080fd5b610cb88383836111b1565b7f2ac9ebc2da0aa92179f0e3daa8d52d8712a3922edda87c72b050c2b0898730503384848460405161069594939291906140d2565b610cf56111a0565b610cfe57600080fd5b806001600160a01b038116610d1257600080fd5b6001600160a01b038116301415610d2857600080fd5b6001546001600160a01b03838116911614610c9857600180546001600160a01b038481166001600160a01b03198316179092556040519116907f9f611b789425d0d5b90b920f1b2852907dd865c80074a30b1629aaa041d1812c906106959083908690614151565b610d9861118a565b610da157600080fd5b6005805460ff60a01b1916600160a01b1790556040517f9c567b65fe8caab5ec7bc979a498a1322c1d4baf01a30727cbca137187560ea290600090a1565b610de761118a565b610df057600080fd5b806001600160a01b038116610e0457600080fd5b60045482906001600160a01b0390811690821681146104f057600480546001600160a01b038681166001600160a01b03198316179092556040519116907f4d96d2a04c886b313bd1e28be6324ed4c8867b3203e512756722f8be0195e16d906104e690839088906144d3565b6006546001600160a01b031681565b610e87612c9d565b600b5460405163303ff86d60e21b81526001600160a01b039091169063c0ffe1b490610eb99086908690600401614409565b60006040518083038186803b158015610ed157600080fd5b505afa158015610ee5573d6000803e3d6000fd5b505050506040513d6000823e601f3d908101601f19168201604052610f0d91908101906136a4565b90505b92915050565b610f1e612c9d565b600b54604051636978449b60e11b81526001600160a01b039091169063d2f0893690610eb99086908690600401614409565b60005461010090046001600160a01b031681565b610f6f3383836111b1565b7fb6d612c8f6da6a2956a25a735b6e54de99363dfdb50a02565ab53b1adc65b3d6338383604051610fa29392919061411d565b60405180910390a15050565b6004546001600160a01b031681565b610fc561118a565b610fce57600080fd5b806001600160a01b038116610fe257600080fd5b60065482906001600160a01b0390811690821681146104f057600654600160a01b900460ff16156110255760405162461bcd60e51b815260040161087e906145b2565b600680546001600160a01b038681166001600160a01b03198316179092556040519116907f624c4d4225a45f5bf8a9755adba1ef9be3464a9970b05a371fb6cca0c0caf204906104e690839088906144d3565b6008546001600160a01b031681565b61108f61118a565b61109857600080fd5b806001600160a01b0381166110ac57600080fd5b600c80546001600160a01b038481166001600160a01b031983161792839055604051918116927f0e0d0aee1efbecb32fba4a76ecc4cae4c9ed1c3ea3459ea8460c53ff4cb09bcf9261069592859216906144d3565b600b54604051633cd17ed160e21b81526000916001600160a01b03169063f345fb44906111329085906004016140b6565b60206040518083038186803b15801561114a57600080fd5b505afa15801561115e573d6000803e3d6000fd5b505050506040513d601f19601f82011682018060405250611182919081019061354d565b90505b919050565b60005461010090046001600160a01b0316331490565b6001546001600160a01b0316331490565b60035460405163273f8b6560e11b815283916001600160a01b031690634e7f16ca906111e1908490600401614642565b60206040518083038186803b1580156111f957600080fd5b505afa15801561120d573d6000803e3d6000fd5b505050506040513d601f19601f82011682018060405250611231919081019061352f565b61124d5760405162461bcd60e51b815260040161087e90614622565b60035460405163f59d1a7560e01b8152849186916001600160a01b039091169063f59d1a75906112839085908590600401614653565b60206040518083038186803b15801561129b57600080fd5b505afa1580156112af573d6000803e3d6000fd5b505050506040513d601f19601f820116820180604052506112d3919081019061352f565b6112ef5760405162461bcd60e51b815260040161087e90614582565b60075460a086015160200151516040516310c7a6c160e31b81526001600160a01b039092169163863d360891611327916004016144b7565b60206040518083038186803b15801561133f57600080fd5b505afa158015611353573d6000803e3d6000fd5b505050506040513d601f19601f82011682018060405250611377919081019061352f565b156113945760405162461bcd60e51b815260040161087e906145c2565b600654604051639243c9db60e01b81526001600160a01b0390911690639243c9db906113c49089906004016140b6565b60206040518083038186803b1580156113dc57600080fd5b505afa1580156113f0573d6000803e3d6000fd5b505050506040513d601f19601f82011682018060405250611414919081019061352f565b156114315760405162461bcd60e51b815260040161087e906145a2565b600854604051631293efbb60e21b81526001600160a01b0390911690634a4fbeec906114619089906004016140b6565b60206040518083038186803b15801561147957600080fd5b505afa15801561148d573d6000803e3d6000fd5b505050506040513d601f19601f820116820180604052506114b1919081019061352f565b156114ce5760405162461bcd60e51b815260040161087e906145e2565b600a54602086015160405163da473c5760e01b81526001600160a01b039092169163da473c5791611504918a919060040161439e565b60206040518083038186803b15801561151c57600080fd5b505afa158015611530573d6000803e3d6000fd5b505050506040513d601f19601f82011682018060405250611554919081019061354d565b60a086015160200151511461157b5760405162461bcd60e51b815260040161087e906145f2565b6000806115888789611ba8565b600a5460208a0151604051636543ade160e01b81529395509193506001600160a01b031691636543ade1916115c3918c918691600401614481565b60206040518083038186803b1580156115db57600080fd5b505afa1580156115ef573d6000803e3d6000fd5b505050506040513d601f19601f82011682018060405250611613919081019061352f565b61162f5760405162461bcd60e51b815260040161087e90614602565b600a546020880151604051637ff81c3760e01b81526001600160a01b0390921691637ff81c3791611665918c919060040161439e565b60206040518083038186803b15801561167d57600080fd5b505afa158015611691573d6000803e3d6000fd5b505050506040513d601f19601f820116820180604052506116b5919081019061352f565b156116d25760405162461bcd60e51b815260040161087e90614592565b600a546020880151604051635482c73560e01b81526001600160a01b0390921691635482c73591611708918c919060040161439e565b60206040518083038186803b15801561172057600080fd5b505afa158015611734573d6000803e3d6000fd5b505050506040513d601f19601f82011682018060405250611758919081019061352f565b6117745760405162461bcd60e51b815260040161087e90614552565b600a54602088015160405163b6e2fc3360e01b81526001600160a01b039092169163b6e2fc33916117aa918c919060040161439e565b60206040518083038186803b1580156117c257600080fd5b505afa1580156117d6573d6000803e3d6000fd5b505050506040513d601f19601f820116820180604052506117fa91908101906135a7565b600181111561180557fe5b156118225760405162461bcd60e51b815260040161087e90614612565b600260009054906101000a90046001600160a01b03166001600160a01b031663f71e860f6040518163ffffffff1660e01b815260040160206040518083038186803b15801561187057600080fd5b505afa158015611884573d6000803e3d6000fd5b505050506040513d601f19601f820116820180604052506118a8919081019061352f565b6118c45760405162461bcd60e51b815260040161087e906145d2565b600660009054906101000a90046001600160a01b03166001600160a01b031663994e20766040518163ffffffff1660e01b815260040160206040518083038186803b15801561191257600080fd5b505afa158015611926573d6000803e3d6000fd5b505050506040513d601f19601f8201168201806040525061194a919081019061352f565b6119665760405162461bcd60e51b815260040161087e90614562565b600b60009054906101000a90046001600160a01b03166001600160a01b0316638772531373__PaymentTypesLib_______________________635174abe96040518163ffffffff1660e01b815260040160006040518083038186803b1580156119ce57600080fd5b505af41580156119e2573d6000803e3d6000fd5b505050506040513d6000823e601f3d908101601f19168201604052611a0a91908101906135f5565b60a08a0151602090810151516040808d015180840151905160608f015194850151945192516001600160e01b031960e089901b168152611a5396959293919291906004016144ee565b600060405180830381600087803b158015611a6d57600080fd5b505af1158015611a81573d6000803e3d6000fd5b5050600b546040516309f0ac8560e41b81526001600160a01b039091169250639f0ac8509150611ab9908b9085908790600401614424565b60206040518083038186803b158015611ad157600080fd5b505afa158015611ae5573d6000803e3d6000fd5b505050506040513d601f19601f82011682018060405250611b09919081019061352f565b15611b265760405162461bcd60e51b815260040161087e90614542565b611b338888888486611c57565b600a54602088015160405163524ad18360e11b81526001600160a01b039092169163a495a30691611b6c918c91906000906004016143b9565b600060405180830381600087803b158015611b8657600080fd5b505af1158015611b9a573d6000803e3d6000fd5b505050505050505050505050565b60035460405163d308b9db60e01b815260009182916001600160a01b039091169063d308b9db90611bdf9087908790600401614653565b60206040518083038186803b158015611bf757600080fd5b505afa158015611c0b573d6000803e3d6000fd5b505050506040513d601f19601f82011682018060405250611c2f919081019061352f565b15611c44575050604082015151600090611c50565b50506060820151516001905b9250929050565b6000806060611c668789612094565b600b5460208b0151604051633858654b60e01b81529497509295509093506000926001600160a01b0390911691633858654b91611ca7918d9160040161439e565b60206040518083038186803b158015611cbf57600080fd5b505afa158015611cd3573d6000803e3d6000fd5b505050506040513d601f19601f82011682018060405250611cf7919081019061354d565b90508581101561208957600b546020890151604051630284774760e31b81526001600160a01b0390921691631423ba3891611d39918d91908b906004016143e1565b600060405180830381600087803b158015611d5357600080fd5b505af1158015611d67573d6000803e3d6000fd5b5050600480546020808d0151805191015160405163325d23a960e11b81526001600160a01b0390931695506364ba47529450611dad938f938b9392918f914391016142de565b600060405180830381600087803b158015611dc757600080fd5b505af1158015611ddb573d6000803e3d6000fd5b5050600b5460208b015160c08c015160405163fb721b5360e01b81526001600160a01b03909316945063fb721b539350611e1d928e9289929091600401614369565b600060405180830381600087803b158015611e3757600080fd5b505af1158015611e4b573d6000803e3d6000fd5b5050600a5460208b0151604051633007230f60e11b8152600094506001600160a01b03909216925063600e461e91611e87918e9160040161439e565b60206040518083038186803b158015611e9f57600080fd5b505afa158015611eb3573d6000803e3d6000fd5b505050506040513d601f19601f82011682018060405250611ed7919081019061354d565b6040516351750e5360e11b815290915073__SafeMathIntLib________________________9063a2ea1ca690611f119084906004016144b7565b60206040518083038186803b158015611f2957600080fd5b505af4158015611f3d573d6000803e3d6000fd5b505050506040513d601f19601f82011682018060405250611f61919081019061352f565b15611ff257600460009054906101000a90046001600160a01b03166001600160a01b031663ad468df98b838c60200151600001518d60200151602001518d6040518663ffffffff1660e01b8152600401611fbf95949392919061428c565b600060405180830381600087803b158015611fd957600080fd5b505af1158015611fed573d6000803e3d6000fd5b505050505b600c546001600160a01b03161561201e57600c5461201e908b9085906001600160a01b03168a8c612282565b600b5460405163f8eabcc160e01b81526001600160a01b039091169063f8eabcc190612055908d908b908b9060019060040161444c565b600060405180830381600087803b15801561206f57600080fd5b505af1158015612083573d6000803e3d6000fd5b50505050505b505050505050505050565b60035460405163d308b9db60e01b815260009182916060916001600160a01b03169063d308b9db906120cc9088908890600401614653565b60206040518083038186803b1580156120e457600080fd5b505afa1580156120f8573d6000803e3d6000fd5b505050506040513d601f19601f8201168201806040525061211c919081019061352f565b1561213f5750604080850151908101515160609091015160200151909250612154565b50606080850151604081015151910151519092505b602085015160c0860151600554600092612183926001600160a01b03909216918891904363ffffffff61292a16565b600b54602088015160c089015160405163bc8dd4cd60e01b81529394506000936001600160a01b039093169263bc8dd4cd926121c3928b926004016143e1565b60206040518083038186803b1580156121db57600080fd5b505afa1580156121ef573d6000803e3d6000fd5b505050506040513d601f19601f82011682018060405250612213919081019061354d565b602088015160c089015160055492935061226192849261225592612248926001600160a01b0316918c9163ffffffff61295116565b889063ffffffff61296d16565b9063ffffffff61296d16565b935061227781612255878563ffffffff6129a716565b945050509250925092565b60005b845181101561292257600085828151811061229c57fe5b602002602001015160000151600014156122b75750836124a0565b600960009054906101000a90046001600160a01b03166001600160a01b03166367299f366040518163ffffffff1660e01b815260040160206040518083038186803b15801561230557600080fd5b505afa158015612319573d6000803e3d6000fd5b505050506040513d601f19601f8201168201806040525061233d919081019061354d565b60001080156123e85750600960009054906101000a90046001600160a01b03166001600160a01b03166367299f366040518163ffffffff1660e01b815260040160206040518083038186803b15801561239557600080fd5b505afa1580156123a9573d6000803e3d6000fd5b505050506040513d601f19601f820116820180604052506123cd919081019061354d565b8683815181106123d957fe5b60200260200101516000015111155b156124a05760095486516001600160a01b039091169063efeb5e5890612431906001908a908790811061241757fe5b6020026020010151600001516129da90919063ffffffff16565b6040518263ffffffff1660e01b815260040161244d91906144b7565b60206040518083038186803b15801561246557600080fd5b505afa158015612479573d6000803e3d6000fd5b505050506040513d601f19601f8201168201806040525061249d9190810190613589565b90505b6001600160a01b0381166124b4575061291a565b60008683815181106124c257fe5b602002602001015160000151905084600b60009054906101000a90046001600160a01b03166001600160a01b0316636e17226a8a85858c898151811061250457fe5b602002602001015160200151602001516040518563ffffffff1660e01b815260040161253394939291906141b5565b604080518083038186803b15801561254a57600080fd5b505afa15801561255e573d6000803e3d6000fd5b505050506040513d601f19601f820116820180604052506125829190810190613629565b51101561291757600061266d600b60009054906101000a90046001600160a01b03166001600160a01b0316636e17226a8b86868d8a815181106125c157fe5b602002602001015160200151602001516040518563ffffffff1660e01b81526004016125f094939291906141b5565b604080518083038186803b15801561260757600080fd5b505afa15801561261b573d6000803e3d6000fd5b505050506040513d601f19601f8201168201806040525061263f9190810190613629565b6020015189868151811061264f57fe5b6020026020010151602001516000015161296d90919063ffffffff16565b6040516351750e5360e11b815290915073__SafeMathIntLib________________________9063a2ea1ca6906126a79084906004016144b7565b60206040518083038186803b1580156126bf57600080fd5b505af41580156126d3573d6000803e3d6000fd5b505050506040513d601f19601f820116820180604052506126f7919081019061352f565b1561291557600b60009054906101000a90046001600160a01b03166001600160a01b0316637657768c8a85858c898151811061272f57fe5b6020026020010151602001516020015160405180604001604052808d81526020018f8c8151811061275c57fe5b602002602001015160200151600001518152506040518663ffffffff1660e01b815260040161278f9594939291906141ea565b600060405180830381600087803b1580156127a957600080fd5b505af11580156127bd573d6000803e3d6000fd5b50505050600460009054906101000a90046001600160a01b03166001600160a01b031663158a03428a85848c89815181106127f457fe5b60200260200101516020015160200151600001518d8a8151811061281457fe5b60200260200101516020015160200151602001518b6040518763ffffffff1660e01b815260040161284a9695949392919061422c565b600060405180830381600087803b15801561286457600080fd5b505af1158015612878573d6000803e3d6000fd5b505050507f64fcac3c2b1ccc98d3039b49f7668a97654165a070c78fa3163859e4d5d0978089828a87815181106128ab57fe5b602002602001015160200151600001518b88815181106128c757fe5b60200260200101516020015160200151600001518c89815181106128e757fe5b602002602001015160200151602001516020015160405161290c959493929190614334565b60405180910390a15b505b50505b600101612285565b505050505050565b600061293886868686612951565b61294487878786612951565b0390505b95945050505050565b600080612960868686866129e6565b509150505b949350505050565b600080821215801561298157508282840313155b806129985750600082128015612998575082828403135b6129a157600080fd5b50900390565b60008282018183128015906129bc5750838112155b806129d157506000831280156129d157508381125b610f0d57600080fd5b6000828211156129a157fe5b600080600080876001600160a01b031663a246138c888a6001600160a01b031663ded113106040518163ffffffff1660e01b815260040160206040518083038186803b158015612a3557600080fd5b505afa158015612a49573d6000803e3d6000fd5b505050506040513d601f19601f82011682018060405250612a6d919081019061354d565b895160208b01516040516001600160e01b031960e087901b168152612a9a94939291908c90600401614173565b604080518083038186803b158015612ab157600080fd5b505afa158015612ac5573d6000803e3d6000fd5b505050506040513d601f19601f82011682018060405250612ae991908101906135c5565b91509150600080896001600160a01b031663a246138c8a8c6001600160a01b0316634652ec746040518163ffffffff1660e01b815260040160206040518083038186803b158015612b3957600080fd5b505afa158015612b4d573d6000803e3d6000fd5b505050506040513d601f19601f82011682018060405250612b71919081019061354d565b8b5160208d01516040516001600160e01b031960e087901b168152612b9e94939291908e90600401614173565b604080518083038186803b158015612bb557600080fd5b505afa158015612bc9573d6000803e3d6000fd5b505050506040513d601f19601f82011682018060405250612bed91908101906135c5565b9092509050612c02848363ffffffff6129a716565b60405163a682d5ad60e01b815290965073__SafeMathUintLib_______________________9063a682d5ad90612c3e9086908590600401614684565b60206040518083038186803b158015612c5657600080fd5b505af4158015612c6a573d6000803e3d6000fd5b505050506040513d601f19601f82011682018060405250612c8e919081019061354d565b94505050505094509492505050565b604080516080810182526060815260006020820152908101612cbd612ccf565b8152602001612cca612ccf565b905290565b60405180606001604052806000815260200160006001600160a01b03168152602001600081525090565b8035610f10816147b1565b8051610f10816147b1565b600082601f830112612d2057600080fd5b8135612d33612d2e826146b8565b614692565b91508181835260208401935060208101905083856080840282011115612d5857600080fd5b60005b83811015612d865781612d6e8882612fa0565b84525060209092019160809190910190600101612d5b565b5050505092915050565b8051610f10816147c5565b8035610f10816147ce565b8051610f10816147ce565b8035610f10816147d7565b8051610f10816147d7565b8051610f10816147e0565b600082601f830112612de357600080fd5b8135612df1612d2e826146d8565b91508082526020830160208301858383011115612e0d57600080fd5b612e18838284614762565b50505092915050565b600082601f830112612e3257600080fd5b8151612e40612d2e826146d8565b91508082526020830160208301858383011115612e5c57600080fd5b612e1883828461476e565b600060408284031215612e7957600080fd5b612e836040614692565b90506000612e918484612cf9565b8252506020612ea284848301612d9b565b60208301525092915050565b600060408284031215612ec057600080fd5b612eca6040614692565b90506000612e918484612d9b565b600060608284031215612eea57600080fd5b612ef46040614692565b90506000612f028484612d9b565b8252506020612ea284848301612e67565b600060408284031215612f2557600080fd5b612f2f6040614692565b90506000612f3d8484612da6565b8252506020612ea284848301612da6565b600060408284031215612f6057600080fd5b612f6a6040614692565b90506000612f788484612d9b565b82525060208201356001600160401b03811115612f9457600080fd5b612ea284828501612dd2565b600060808284031215612fb257600080fd5b612fbc6040614692565b90506000612fca8484612d9b565b8252506020612ea284848301612ed8565b600060a08284031215612fed57600080fd5b612ff76080614692565b905060006130058484612d9b565b825250602061301684848301612cf9565b602083015250604061302a84828501612eae565b60408301525060808201356001600160401b0381111561304957600080fd5b613055848285016133cc565b60608301525092915050565b600060c0828403121561307357600080fd5b61307d60a0614692565b9050600061308b8484612d9b565b825250602061309c84848301612cf9565b60208301525060406130b084828501612eae565b60408301525060808201356001600160401b038111156130cf57600080fd5b6130db8482850161337a565b60608301525060a08201356001600160401b038111156130fa57600080fd5b61310684828501612dd2565b60808301525092915050565b6000610220828403121561312557600080fd5b613130610100614692565b9050600061313e8484612d9b565b825250602061314f84848301612e67565b60208301525060608201356001600160401b0381111561316e57600080fd5b61317a84828501613061565b60408301525060808201356001600160401b0381111561319957600080fd5b6131a584828501612fdb565b60608301525060a06131b984828501612eae565b60808301525060e06131cd84828501613415565b60a0830152506101e06131e284828501612d9b565b60c0830152506102008201356001600160401b0381111561320257600080fd5b61320e84828501612f4e565b60e08301525092915050565b60006080828403121561322c57600080fd5b6132366040614692565b905060006132448484612d9b565b8252506020612ea28484830161332b565b60006060828403121561326757600080fd5b6132716060614692565b9050600061327f8484612da6565b825250602061329084848301612d04565b60208301525060406132a484828501612da6565b60408301525092915050565b600061010082840312156132c357600080fd5b6132cd6080614692565b82519091506001600160401b038111156132e657600080fd5b6132f284828501612e21565b825250602061330384848301612da6565b602083015250604061331784828501613255565b60408301525060a061305584828501613255565b60006060828403121561333d57600080fd5b6133476060614692565b905060006133558484612d9b565b825250602061336684848301612d9b565b60208301525060406132a484828501613451565b60006080828403121561338c57600080fd5b6133966040614692565b905060006133a48484612ed8565b82525060608201356001600160401b038111156133c057600080fd5b612ea284828501612d0f565b6000602082840312156133de57600080fd5b6133e86020614692565b905081356001600160401b0381111561340057600080fd5b61340c84828501612d0f565b82525092915050565b6000610100828403121561342857600080fd5b6134326040614692565b90506000613440848461321a565b8252506080612ea28484830161321a565b8035610f10816147ed565b60006020828403121561346e57600080fd5b60006129658484612cf9565b60008060006060848603121561348f57600080fd5b600061349b8686612cf9565b93505060208401356001600160401b038111156134b757600080fd5b6134c386828701613112565b92505060408401356001600160401b038111156134df57600080fd5b6134eb86828701612dd2565b9150509250925092565b6000806040838503121561350857600080fd5b60006135148585612cf9565b925050602061352585828601612d9b565b9150509250929050565b60006020828403121561354157600080fd5b60006129658484612d90565b60006020828403121561355f57600080fd5b60006129658484612da6565b60006020828403121561357d57600080fd5b60006129658484612db1565b60006020828403121561359b57600080fd5b60006129658484612dbc565b6000602082840312156135b957600080fd5b60006129658484612dc7565b600080604083850312156135d857600080fd5b60006135e48585612da6565b925050602061352585828601612da6565b60006020828403121561360757600080fd5b81516001600160401b0381111561361d57600080fd5b61296584828501612e21565b60006040828403121561363b57600080fd5b60006129658484612f13565b6000806040838503121561365a57600080fd5b82356001600160401b0381111561367057600080fd5b61367c85828601613112565b92505060208301356001600160401b0381111561369857600080fd5b61352585828601612dd2565b6000602082840312156136b657600080fd5b81516001600160401b038111156136cc57600080fd5b612965848285016132b0565b60006136e48383613dc5565b505060800190565b6136f58161474c565b82525050565b6136f581614712565b600061370f82614705565b6137198185614709565b9350613724836146ff565b8060005b8381101561375257815161373c88826136d8565b9750613747836146ff565b925050600101613728565b509495945050505050565b6136f58161471d565b6136f581614722565b6136f581614725565b6136f581614757565b600061378c82614705565b6137968185614709565b93506137a681856020860161476e565b6137af8161479a565b9093019392505050565b60006137c6604083614709565b7f536574746c656d656e7420706172747920616c726561647920646f6e65205b4481527f72696970536574746c656d656e7442795061796d656e742e736f6c3a3234375d602082015260400192915050565b6000613825603d83614709565b7f50726f706f73616c20666f756e64206e6f742065787069726564205b4472696981527f70536574746c656d656e7442795061796d656e742e736f6c3a3232345d000000602082015260400192915050565b6000613884603583614709565b7f44617461206e6f7420617661696c61626c65205b4472696970536574746c656d815274656e7442795061796d656e742e736f6c3a3233375d60581b602082015260400192915050565b60006138db603083614709565b7f42616c616e636520747261636b65722066726f7a656e205b42616c616e63655481526f7261636b61626c652e736f6c3a34335d60801b602082015260400192915050565b600061392d602d83614709565b7f57616c6c6574206e6f74207061796d656e74207061727479205b56616c69646181526c7461626c652e736f6c3a37305d60981b602082015260400192915050565b600061397c603c83614709565b7f50726f706f73616c20666f756e64207465726d696e61746564205b447269697081527b536574746c656d656e7442795061796d656e742e736f6c3a3231385d60201b602082015260400192915050565b60006139da603f83614709565b7f57616c6c6574206465656d656420646f75626c65207370656e646572205b447281527f696970536574746c656d656e7442795061796d656e742e736f6c3a3139345d00602082015260400192915050565b6000613a39602f83614709565b7f436f6d6d756e69747920766f74652066726f7a656e205b436f6d6d756e69747981526e566f7461626c652e736f6c3a34315d60881b602082015260400192915050565b6000613a8a603c83614709565b7f5061796d656e74206465656d6564206672617564756c656e74205b447269697081527b536574746c656d656e7442795061796d656e742e736f6c3a3139305d60201b602082015260400192915050565b6000613ae8603e83614709565b7f4e6f74206e6f726d616c206f7065726174696f6e616c206d6f6465205b44726981527f6970536574746c656d656e7442795061796d656e742e736f6c3a3233365d0000602082015260400192915050565b6000613b47603683614709565b7f57616c6c657420666f756e64206c6f636b6564205b4472696970536574746c658152756d656e7442795061796d656e742e736f6c3a3230305d60501b602082015260400192915050565b6000613b9f603983614709565b7f5061796d656e74206e6f74206368616c6c656e676564205b4472696970536574815278746c656d656e7442795061796d656e742e736f6c3a3230335d60381b602082015260400192915050565b6000613bfa603483614709565b7f4e6f2070726f706f73616c20666f756e64205b4472696970536574746c656d658152736e7442795061796d656e742e736f6c3a3231325d60601b602082015260400192915050565b6000613c50603f83614709565b7f50726f706f73616c20666f756e64206e6f74207175616c6966696564205b447281527f696970536574746c656d656e7442795061796d656e742e736f6c3a3233305d00602082015260400192915050565b6000613caf602e83614709565b7f5061796d656e74207365616c73206e6f742067656e75696e65205b56616c696481526d617461626c652e736f6c3a36355d60901b602082015260400192915050565b6000613cff602c83614709565b7f57616c6c6574206c6f636b65722066726f7a656e205b57616c6c65744c6f636b81526b61626c652e736f6c3a34335d60a01b602082015260400192915050565b80516040830190613d5184826136fb565b5060208201516104f06020850182613766565b80516040830190613d518482613766565b80516060830190613d868482613766565b5060208201516104f06020850182613d40565b80516000906040840190613dad8582613766565b50602083015184820360208601526129488282613781565b80516080830190613dd68482613766565b5060208201516104f06020850182613d75565b805160009060a0840190613dfd8582613766565b506020830151613e1060208601826136fb565b506040830151613e236040860182613d64565b50606083015184820360808601526129488282614070565b805160009060c0840190613e4f8582613766565b506020830151613e6260208601826136fb565b506040830151613e756040860182613d64565b5060608301518482036080860152613e8d8282614044565b915050608083015184820360a08601526129488282613781565b8051600090610220840190613ebc8582613766565b506020830151613ecf6020860182613d40565b5060408301518482036060860152613ee78282613e3b565b91505060608301518482036080860152613f018282613de9565b9150506080830151613f1660a0860182613d64565b5060a0830151613f2960e0860182614088565b5060c0830151613f3d6101e0860182613766565b5060e08301518482036102008601526129488282613d99565b80516080830190613f678482613766565b5060208201516104f0602085018261400d565b80516060830190613f8b8482613766565b506020820151613f9e60208501826136fb565b5060408201516104f06040850182613766565b805161010080845260009190840190613fca8282613781565b9150506020830151613fdf6020860182613766565b506040830151613ff26040860182613f7a565b50606083015161400560a0860182613f7a565b509392505050565b8051606083019061401e8482613766565b5060208201516140316020850182613766565b5060408201516104f060408501826140ad565b805160009060808401906140588582613d75565b50602083015184820360608601526129488282613704565b80516020808452600091908401906129488282613704565b805161010083019061409a8482613f56565b5060208201516104f06080850182613f56565b6136f581614746565b60208101610f1082846136fb565b60208101610f1082846136ec565b608081016140e082876136ec565b6140ed60208301866136fb565b81810360408301526140ff8185613ea7565b905081810360608301526141138184613781565b9695505050505050565b6060810161412b82866136ec565b818103602083015261413d8185613ea7565b905081810360408301526129488184613781565b6040810161415f82856136fb565b61416c60208301846136fb565b9392505050565b60a0810161418182886136fb565b61418e6020830187613766565b61419b60408301866136fb565b6141a86060830185613766565b6141136080830184613766565b60a081016141c382876136fb565b6141d0602083018661376f565b6141dd60408301856136fb565b6129486060830184613d40565b60e081016141f882886136fb565b614205602083018761376f565b61421260408301866136fb565b61421f6060830185613d40565b61411360a0830184613d64565b60c0810161423a82896136fb565b614247602083018861376f565b6142546040830187613766565b61426160608301866136fb565b61426e6080830185613766565b81810360a08301526142808184613781565b98975050505050505050565b60a0810161429a82886136fb565b6142a76020830187613766565b6142b460408301866136fb565b6142c16060830185613766565b81810360808301526142d38184613781565b979650505050505050565b60c081016142ec82896136fb565b6142f96020830188613766565b61430660408301876136fb565b6143136060830186613766565b81810360808301526143258185613781565b90506142d360a0830184613766565b60a0810161434282886136fb565b61434f6020830187613766565b61435c6040830186613766565b6141a860608301856136fb565b60a0810161437782876136fb565b6143846020830186613766565b6143916040830185613d40565b6129486080830184613766565b606081016143ac82856136fb565b61416c6020830184613d40565b608081016143c782866136fb565b6143d46020830185613d40565b612965606083018461375d565b608081016143ef82866136fb565b6143fc6020830185613d40565b6129656060830184613766565b6040810161441782856136fb565b61416c6020830184613766565b6060810161443282866136fb565b61443f6020830185613766565b6129656040830184613778565b6080810161445a82876136fb565b6144676020830186613766565b6144746040830185613778565b612948606083018461375d565b6080810161448f82866136fb565b61449c6020830185613766565b6129656040830184613d40565b60208101610f10828461375d565b60208101610f108284613766565b60208101610f10828461376f565b604081016144e1828561376f565b61416c602083018461376f565b60c080825281016144ff8189613781565b905061450e6020830188613766565b61451b60408301876136fb565b6145286060830186613766565b61453560808301856136fb565b6142d360a0830184613766565b60208082528101611182816137b9565b6020808252810161118281613818565b6020808252810161118281613877565b60208082528101611182816138ce565b6020808252810161118281613920565b602080825281016111828161396f565b60208082528101611182816139cd565b6020808252810161118281613a2c565b6020808252810161118281613a7d565b6020808252810161118281613adb565b6020808252810161118281613b3a565b6020808252810161118281613b92565b6020808252810161118281613bed565b6020808252810161118281613c43565b6020808252810161118281613ca2565b6020808252810161118281613cf2565b60208082528101610f0d8184613ea7565b604080825281016146648185613ea7565b905061416c60208301846136fb565b60208082528101610f0d8184613fb1565b604081016144178285613766565b6040518181016001600160401b03811182821017156146b057600080fd5b604052919050565b60006001600160401b038211156146ce57600080fd5b5060209081020190565b60006001600160401b038211156146ee57600080fd5b506020601f91909101601f19160190565b60200190565b5190565b90815260200190565b60006111828261473a565b151590565b90565b600061118282614712565b80611185816147a4565b6001600160a01b031690565b60ff1690565b600061118282614725565b600061118282614730565b82818337506000910152565b60005b83811015614789578181015183820152602001614771565b838111156104f05750506000910152565b601f01601f191690565b600281106147ae57fe5b50565b6147ba81614712565b81146147ae57600080fd5b6147ba8161471d565b6147ba81614722565b6147ba81614725565b600281106147ae57600080fd5b6147ba8161474656fea365627a7a72315820b15dcf5cc11545d0407273e5d60644f04d41feb1a8883f401ff6ba2368aee5766c6578706572696d656e74616cf564736f6c634300050c0040",
  "source": "/*\n * Hubii Nahmii\n *\n * Compliant with the Hubii Nahmii specification v0.12.\n *\n * Copyright (C) 2017-2018 Hubii AS\n */\n\npragma solidity >=0.4.25 <0.6.0;\npragma experimental ABIEncoderV2;\n\nimport {Ownable} from \"./Ownable.sol\";\nimport {Configurable} from \"./Configurable.sol\";\nimport {Validatable} from \"./Validatable.sol\";\nimport {ClientFundable} from \"./ClientFundable.sol\";\nimport {BalanceTrackable} from \"./BalanceTrackable.sol\";\nimport {CommunityVotable} from \"./CommunityVotable.sol\";\nimport {FraudChallengable} from \"./FraudChallengable.sol\";\nimport {WalletLockable} from \"./WalletLockable.sol\";\nimport {PartnerBenefactorable} from \"./PartnerBenefactorable.sol\";\nimport {RevenueFund} from \"./RevenueFund.sol\";\nimport {DriipSettlementChallengeState} from \"./DriipSettlementChallengeState.sol\";\nimport {DriipSettlementState} from \"./DriipSettlementState.sol\";\nimport {Beneficiary} from \"./Beneficiary.sol\";\nimport {SafeMathIntLib} from \"./SafeMathIntLib.sol\";\nimport {SafeMathUintLib} from \"./SafeMathUintLib.sol\";\nimport {MonetaryTypesLib} from \"./MonetaryTypesLib.sol\";\nimport {NahmiiTypesLib} from \"./NahmiiTypesLib.sol\";\nimport {PaymentTypesLib} from \"./PaymentTypesLib.sol\";\nimport {DriipSettlementTypesLib} from \"./DriipSettlementTypesLib.sol\";\nimport {SettlementChallengeTypesLib} from \"./SettlementChallengeTypesLib.sol\";\nimport {BalanceTracker} from \"./BalanceTracker.sol\";\nimport {BalanceTrackerLib} from \"./BalanceTrackerLib.sol\";\n\n/**\n * @title DriipSettlementByPayment\n * @notice Where driip settlements pertaining to payment are finalized\n */\ncontract DriipSettlementByPayment is Ownable, Configurable, Validatable, ClientFundable, BalanceTrackable,\nCommunityVotable, FraudChallengable, WalletLockable, PartnerBenefactorable {\n    using SafeMathIntLib for int256;\n    using SafeMathUintLib for uint256;\n    using BalanceTrackerLib for BalanceTracker;\n\n    //\n    // Variables\n    // -----------------------------------------------------------------------------------------------------------------\n    DriipSettlementChallengeState public driipSettlementChallengeState;\n    DriipSettlementState public driipSettlementState;\n    RevenueFund public revenueFund;\n\n    //\n    // Events\n    // -----------------------------------------------------------------------------------------------------------------\n    event SettlePaymentEvent(address wallet, PaymentTypesLib.Payment payment, string standard);\n    event SettlePaymentByProxyEvent(address proxy, address wallet, PaymentTypesLib.Payment payment, string standard);\n    event SetDriipSettlementChallengeStateEvent(DriipSettlementChallengeState oldDriipSettlementChallengeState,\n        DriipSettlementChallengeState newDriipSettlementChallengeState);\n    event SetDriipSettlementStateEvent(DriipSettlementState oldDriipSettlementState,\n        DriipSettlementState newDriipSettlementState);\n    event SetRevenueFundEvent(RevenueFund oldRevenueFund, RevenueFund newRevenueFund);\n    event StageFeesEvent(address wallet, int256 deltaAmount, int256 cumulativeAmount,\n        address currencyCt, uint256 currencyId);\n\n    //\n    // Constructor\n    // -----------------------------------------------------------------------------------------------------------------\n    constructor(address deployer) Ownable(deployer) public {\n    }\n\n    //\n    // Functions\n    // -----------------------------------------------------------------------------------------------------------------\n    /// @notice Set the driip settlement challenge state contract\n    /// @param newDriipSettlementChallengeState The (address of) DriipSettlementChallengeState contract instance\n    function setDriipSettlementChallengeState(DriipSettlementChallengeState newDriipSettlementChallengeState)\n    public\n    onlyDeployer\n    notNullAddress(address(newDriipSettlementChallengeState))\n    {\n        DriipSettlementChallengeState oldDriipSettlementChallengeState = driipSettlementChallengeState;\n        driipSettlementChallengeState = newDriipSettlementChallengeState;\n        emit SetDriipSettlementChallengeStateEvent(oldDriipSettlementChallengeState, driipSettlementChallengeState);\n    }\n\n    /// @notice Set the driip settlement state contract\n    /// @param newDriipSettlementState The (address of) DriipSettlementState contract instance\n    function setDriipSettlementState(DriipSettlementState newDriipSettlementState)\n    public\n    onlyDeployer\n    notNullAddress(address(newDriipSettlementState))\n    {\n        DriipSettlementState oldDriipSettlementState = driipSettlementState;\n        driipSettlementState = newDriipSettlementState;\n        emit SetDriipSettlementStateEvent(oldDriipSettlementState, driipSettlementState);\n    }\n\n    /// @notice Set the revenue fund contract\n    /// @param newRevenueFund The (address of) RevenueFund contract instance\n    function setRevenueFund(RevenueFund newRevenueFund)\n    public\n    onlyDeployer\n    notNullAddress(address(newRevenueFund))\n    {\n        RevenueFund oldRevenueFund = revenueFund;\n        revenueFund = newRevenueFund;\n        emit SetRevenueFundEvent(oldRevenueFund, revenueFund);\n    }\n\n    /// @notice Get the count of settlements\n    function settlementsCount()\n    public\n    view\n    returns (uint256)\n    {\n        return driipSettlementState.settlementsCount();\n    }\n\n    /// @notice Get the count of settlements for given wallet\n    /// @param wallet The address for which to return settlement count\n    /// @return count of settlements for the provided wallet\n    function settlementsCountByWallet(address wallet)\n    public\n    view\n    returns (uint256)\n    {\n        return driipSettlementState.settlementsCountByWallet(wallet);\n    }\n\n    /// @notice Get settlement of given wallet and index\n    /// @param wallet The address for which to return settlement\n    /// @param index The wallet's settlement index\n    /// @return settlement for the provided wallet and index\n    function settlementByWalletAndIndex(address wallet, uint256 index)\n    public\n    view\n    returns (DriipSettlementTypesLib.Settlement memory)\n    {\n        return driipSettlementState.settlementByWalletAndIndex(wallet, index);\n    }\n\n    /// @notice Get settlement of given wallet and wallet nonce\n    /// @param wallet The address for which to return settlement\n    /// @param nonce The wallet's nonce\n    /// @return settlement for the provided wallet and index\n    function settlementByWalletAndNonce(address wallet, uint256 nonce)\n    public\n    view\n    returns (DriipSettlementTypesLib.Settlement memory)\n    {\n        return driipSettlementState.settlementByWalletAndNonce(wallet, nonce);\n    }\n\n    /// @notice Settle driip that is a payment\n    /// @param payment The payment to be settled\n    /// @param standard The standard of the token to be settled (discarded if settling ETH)\n    function settlePayment(PaymentTypesLib.Payment memory payment, string memory standard)\n    public\n    {\n        // Settle payment\n        _settlePayment(msg.sender, payment, standard);\n\n        // Emit event\n        emit SettlePaymentEvent(msg.sender, payment, standard);\n    }\n\n    /// @notice Settle driip that is a payment\n    /// @param wallet The wallet whose side of the payment is to be settled\n    /// @param payment The payment to be settled\n    /// @param standard The standard of the token to be settled (discarded if settling ETH)\n    function settlePaymentByProxy(address wallet, PaymentTypesLib.Payment memory payment, string memory standard)\n    public\n    onlyOperator\n    {\n        // Settle payment for wallet\n        _settlePayment(wallet, payment, standard);\n\n        // Emit event\n        emit SettlePaymentByProxyEvent(msg.sender, wallet, payment, standard);\n    }\n\n    //\n    // Private functions\n    // -----------------------------------------------------------------------------------------------------------------\n    function _settlePayment(address wallet, PaymentTypesLib.Payment memory payment, string memory standard)\n    private\n    onlySealedPayment(payment)\n    onlyPaymentParty(payment, wallet)\n    {\n        require(\n            !fraudChallenge.isFraudulentPaymentHash(payment.seals.operator.hash),\n            \"Payment deemed fraudulent [DriipSettlementByPayment.sol:190]\"\n        );\n        require(\n            !communityVote.isDoubleSpenderWallet(wallet),\n            \"Wallet deemed double spender [DriipSettlementByPayment.sol:194]\"\n        );\n\n        // Require that wallet is not locked\n        require(!walletLocker.isLocked(wallet), \"Wallet found locked [DriipSettlementByPayment.sol:200]\");\n\n        // Require that the wallet's current driip settlement challenge proposal is defined wrt this payment\n        require(\n            payment.seals.operator.hash == driipSettlementChallengeState.proposalChallengedHash(wallet, payment.currency),\n            \"Payment not challenged [DriipSettlementByPayment.sol:203]\"\n        );\n\n        // Extract settlement role and nonce\n        (DriipSettlementTypesLib.SettlementRole settlementRole, uint256 nonce) = _getSettlementRoleNonce(payment, wallet);\n\n        // Require that driip settlement challenge proposal has been initiated\n        require(\n            driipSettlementChallengeState.hasProposal(wallet, nonce, payment.currency),\n            \"No proposal found [DriipSettlementByPayment.sol:212]\"\n        );\n\n        // Require that driip settlement challenge proposal has not been terminated already\n        require(\n            !driipSettlementChallengeState.hasProposalTerminated(wallet, payment.currency),\n            \"Proposal found terminated [DriipSettlementByPayment.sol:218]\"\n        );\n\n        // Require that driip settlement challenge proposal has expired\n        require(\n            driipSettlementChallengeState.hasProposalExpired(wallet, payment.currency),\n            \"Proposal found not expired [DriipSettlementByPayment.sol:224]\"\n        );\n\n        // Require that driip settlement challenge proposal qualified\n        require(\n            SettlementChallengeTypesLib.Status.Qualified == driipSettlementChallengeState.proposalStatus(wallet, payment.currency),\n            \"Proposal found not qualified [DriipSettlementByPayment.sol:230]\"\n        );\n\n        // Require that operational mode is normal and data is available\n        require(configuration.isOperationalModeNormal(), \"Not normal operational mode [DriipSettlementByPayment.sol:236]\");\n        require(communityVote.isDataAvailable(), \"Data not available [DriipSettlementByPayment.sol:237]\");\n\n        // Init settlement, i.e. create one if no such settlement exists for the double pair of wallets and nonces\n        driipSettlementState.initSettlement(\n            PaymentTypesLib.PAYMENT_KIND(), payment.seals.operator.hash,\n            payment.sender.wallet, payment.sender.nonce,\n            payment.recipient.wallet, payment.recipient.nonce\n        );\n\n        // If exists settlement of nonce then require that wallet has not already settled\n        require(\n            !driipSettlementState.isSettlementPartyDone(wallet, nonce, settlementRole),\n            \"Settlement party already done [DriipSettlementByPayment.sol:247]\"\n        );\n\n        // Execute settlement\n        _settle(wallet, payment, standard, nonce, settlementRole);\n\n        // Terminate proposal\n        driipSettlementChallengeState.terminateProposal(wallet, payment.currency, false);\n    }\n\n    function _settle(address wallet, PaymentTypesLib.Payment memory payment, string memory standard,\n        uint256 nonce, DriipSettlementTypesLib.SettlementRole settlementRole)\n    private\n    {\n        // Extract current balance and total fees\n        (int256 correctedCurrentBalanceAmount, int settleAmount, NahmiiTypesLib.OriginFigure[] memory totalFees) =\n        _paymentPartyProperties(payment, wallet);\n\n        // Get max nonce for wallet and currency\n        uint256 maxNonce = driipSettlementState.maxNonceByWalletAndCurrency(wallet, payment.currency);\n\n        // If wallet has previously settled balance of the concerned currency with higher wallet nonce, then don't\n        // settle balance again\n        if (maxNonce < nonce) {\n            // Update max nonce of wallet and currency\n            driipSettlementState.setMaxNonceByWalletAndCurrency(wallet, payment.currency, nonce);\n\n            // Update settled balance\n            clientFund.updateSettledBalance(\n                wallet, correctedCurrentBalanceAmount, payment.currency.ct, payment.currency.id, standard, block.number\n            );\n\n            // Update settled amount\n            driipSettlementState.addSettledAmountByBlockNumber(wallet, settleAmount, payment.currency, payment.blockNumber);\n\n            // Stage (stage function assures positive amount only)\n            int256 stageAmount = driipSettlementChallengeState.proposalStageAmount(wallet, payment.currency);\n            if (stageAmount.isNonZeroPositiveInt256())\n                clientFund.stage(wallet, stageAmount, payment.currency.ct, payment.currency.id, standard);\n\n            // Stage fees to revenue fund\n            if (address(0) != address(revenueFund))\n                _stageFees(wallet, totalFees, revenueFund, nonce, standard);\n\n            // Complete settlement of party\n            driipSettlementState.completeSettlement(\n                wallet, nonce, settlementRole, true\n            );\n        }\n    }\n\n    function _getSettlementRoleNonce(PaymentTypesLib.Payment memory payment, address wallet)\n    private\n    view\n    returns (DriipSettlementTypesLib.SettlementRole settlementRole, uint256 nonce)\n    {\n        if (validator.isPaymentSender(payment, wallet)) {\n            settlementRole = DriipSettlementTypesLib.SettlementRole.Origin;\n            nonce = payment.sender.nonce;\n        } else {\n            settlementRole = DriipSettlementTypesLib.SettlementRole.Target;\n            nonce = payment.recipient.nonce;\n        }\n    }\n\n    function _paymentPartyProperties(PaymentTypesLib.Payment memory payment,\n        address wallet)\n    private\n    view\n    returns (int256 correctedPaymentBalanceAmount, int settleAmount, NahmiiTypesLib.OriginFigure[] memory totalFees)\n    {\n        if (validator.isPaymentSender(payment, wallet)) {\n            correctedPaymentBalanceAmount = payment.sender.balances.current;\n            totalFees = payment.sender.fees.total;\n        } else {\n            correctedPaymentBalanceAmount = payment.recipient.balances.current;\n            totalFees = payment.recipient.fees.total;\n        }\n\n        // Obtain delta in active balance amount since payment's block number\n        int256 deltaActiveBalanceAmount = balanceTracker.fungibleActiveDeltaBalanceAmountByBlockNumbers(\n            wallet, payment.currency, payment.blockNumber, block.number\n        );\n\n        // Obtain delta in settled balance amount\n        int256 deltaSettledBalanceAmount = driipSettlementState.settledAmountByBlockNumber(\n            wallet, payment.currency, payment.blockNumber\n        );\n\n        // Calculate settle amount by this payment\n        settleAmount = correctedPaymentBalanceAmount.sub(\n            balanceTracker.fungibleActiveBalanceAmountByBlockNumber(\n                wallet, payment.currency, payment.blockNumber\n            )\n        ).sub(deltaSettledBalanceAmount);\n\n        // Correct the payment's balance by on-chain deltas\n        correctedPaymentBalanceAmount = correctedPaymentBalanceAmount\n        .add(deltaActiveBalanceAmount)\n        .sub(deltaSettledBalanceAmount);\n    }\n\n    function _stageFees(address wallet, NahmiiTypesLib.OriginFigure[] memory fees,\n        Beneficiary protocolBeneficiary, uint256 nonce, string memory standard)\n    private\n    {\n        // For each origin figure...\n        for (uint256 i = 0; i < fees.length; i++) {\n            // Based on originId determine the fee beneficiary\n            Beneficiary beneficiary;\n            if (0 == fees[i].originId)\n                beneficiary = protocolBeneficiary;\n            else if (\n                0 < partnerBenefactor.registeredBeneficiariesCount() &&\n                fees[i].originId <= partnerBenefactor.registeredBeneficiariesCount()\n            )\n                beneficiary = partnerBenefactor.beneficiaries(fees[i].originId.sub(1));\n\n            // Continue if there is no beneficiary corresponding to the origin ID\n            if (address(0) == address(beneficiary))\n                continue;\n\n            // Define destination from origin ID\n            address destination = address(fees[i].originId);\n\n            // If the nonce of the last total fee update is smaller then the current nonce...\n            if (driipSettlementState.totalFee(wallet, beneficiary, destination, fees[i].figure.currency).nonce < nonce) {\n                // Get the amount previously staged\n                int256 deltaAmount = fees[i].figure.amount.sub(driipSettlementState.totalFee(wallet, beneficiary, destination, fees[i].figure.currency).amount);\n\n                // If the fee delta is strictly positive...\n                if (deltaAmount.isNonZeroPositiveInt256()) {\n                    // Update total fee\n                    driipSettlementState.setTotalFee(wallet, beneficiary, destination, fees[i].figure.currency, MonetaryTypesLib.NoncedAmount(nonce, fees[i].figure.amount));\n\n                    // Stage to beneficiary\n                    clientFund.transferToBeneficiary(\n                        wallet, beneficiary, deltaAmount, fees[i].figure.currency.ct, fees[i].figure.currency.id, standard\n                    );\n\n                    // Emit event\n                    emit StageFeesEvent(\n                        wallet, deltaAmount, fees[i].figure.amount, fees[i].figure.currency.ct, fees[i].figure.currency.id\n                    );\n                }\n            }\n        }\n    }\n}",
  "sourcePath": "/opt/buildagent/work/855e104608380c36/contracts/DriipSettlementByPayment.sol",
  "compiler": {
    "name": "solc",
    "version": "0.5.12+commit.7709ece9.Emscripten.clang"
  },
  "schemaVersion": "2.0.3",
  "updatedAt": "2019-10-23T00:21:40.553Z"
}