{
  "contractName": "ERC20TransferController",
  "abi": [
    {
      "anonymous": false,
      "inputs": [
        {
          "indexed": false,
          "internalType": "address",
          "name": "from",
          "type": "address"
        },
        {
          "indexed": false,
          "internalType": "address",
          "name": "to",
          "type": "address"
        },
        {
          "indexed": false,
          "internalType": "uint256",
          "name": "value",
          "type": "uint256"
        },
        {
          "indexed": false,
          "internalType": "address",
          "name": "currencyCt",
          "type": "address"
        },
        {
          "indexed": false,
          "internalType": "uint256",
          "name": "currencyId",
          "type": "uint256"
        }
      ],
      "name": "CurrencyTransferred",
      "type": "event"
    },
    {
      "constant": true,
      "inputs": [],
      "name": "getApproveSignature",
      "outputs": [
        {
          "internalType": "bytes4",
          "name": "",
          "type": "bytes4"
        }
      ],
      "payable": false,
      "stateMutability": "pure",
      "type": "function"
    },
    {
      "constant": true,
      "inputs": [],
      "name": "getDispatchSignature",
      "outputs": [
        {
          "internalType": "bytes4",
          "name": "",
          "type": "bytes4"
        }
      ],
      "payable": false,
      "stateMutability": "pure",
      "type": "function"
    },
    {
      "constant": true,
      "inputs": [],
      "name": "getReceiveSignature",
      "outputs": [
        {
          "internalType": "bytes4",
          "name": "",
          "type": "bytes4"
        }
      ],
      "payable": false,
      "stateMutability": "pure",
      "type": "function"
    },
    {
      "constant": true,
      "inputs": [],
      "name": "isFungible",
      "outputs": [
        {
          "internalType": "bool",
          "name": "",
          "type": "bool"
        }
      ],
      "payable": false,
      "stateMutability": "view",
      "type": "function"
    },
    {
      "constant": true,
      "inputs": [],
      "name": "standard",
      "outputs": [
        {
          "internalType": "string",
          "name": "",
          "type": "string"
        }
      ],
      "payable": false,
      "stateMutability": "view",
      "type": "function"
    },
    {
      "constant": false,
      "inputs": [
        {
          "internalType": "address",
          "name": "from",
          "type": "address"
        },
        {
          "internalType": "address",
          "name": "to",
          "type": "address"
        },
        {
          "internalType": "uint256",
          "name": "amount",
          "type": "uint256"
        },
        {
          "internalType": "address",
          "name": "currencyCt",
          "type": "address"
        },
        {
          "internalType": "uint256",
          "name": "currencyId",
          "type": "uint256"
        }
      ],
      "name": "receive",
      "outputs": [],
      "payable": false,
      "stateMutability": "nonpayable",
      "type": "function"
    },
    {
      "constant": false,
      "inputs": [
        {
          "internalType": "address",
          "name": "to",
          "type": "address"
        },
        {
          "internalType": "uint256",
          "name": "amount",
          "type": "uint256"
        },
        {
          "internalType": "address",
          "name": "currencyCt",
          "type": "address"
        },
        {
          "internalType": "uint256",
          "name": "currencyId",
          "type": "uint256"
        }
      ],
      "name": "approve",
      "outputs": [],
      "payable": false,
      "stateMutability": "nonpayable",
      "type": "function"
    },
    {
      "constant": false,
      "inputs": [
        {
          "internalType": "address",
          "name": "from",
          "type": "address"
        },
        {
          "internalType": "address",
          "name": "to",
          "type": "address"
        },
        {
          "internalType": "uint256",
          "name": "amount",
          "type": "uint256"
        },
        {
          "internalType": "address",
          "name": "currencyCt",
          "type": "address"
        },
        {
          "internalType": "uint256",
          "name": "currencyId",
          "type": "uint256"
        }
      ],
      "name": "dispatch",
      "outputs": [],
      "payable": false,
      "stateMutability": "nonpayable",
      "type": "function"
    }
  ],
  "bytecode": "0x608060405234801561001057600080fd5b50610aeb806100206000396000f3fe608060405234801561001057600080fd5b50600436106100785760003560e01c806303d873ee1461007d578063064dc61b146100c35780631711a894146101075780635a3b7e421461012c5780637228941f146101a95780637eb2e835146101b1578063a89c2e5a146101eb578063ad502f5714610207575b600080fd5b6100c1600480360360a081101561009357600080fd5b506001600160a01b03813581169160208101358216916040820135916060810135909116906080013561020f565b005b6100c1600480360360a08110156100d957600080fd5b506001600160a01b038135811691602081013582169160408201359160608101359091169060800135610474565b61010f6105ee565b604080516001600160e01b03199092168252519081900360200190f35b61013461060e565b6040805160208082528351818301528351919283929083019185019080838360005b8381101561016e578181015183820152602001610156565b50505050905090810190601f16801561019b5780820380516001836020036101000a031916815260200191505b509250505060405180910390f35b61010f61062d565b6100c1600480360360808110156101c757600080fd5b506001600160a01b038135811691602081013591604082013516906060013561064d565b6101f3610796565b604080519115158252519081900360200190f35b61010f61079b565b6000831161024e5760405162461bcd60e51b815260040180806020018281038252603c815260200180610891603c913960400191505060405180910390fd5b801561028b5760405162461bcd60e51b8152600401808060200182810382526035815260200180610a4a6035913960400191505060405180910390fd5b816001600160a01b031663095ea7b386856040518363ffffffff1660e01b815260040180836001600160a01b03166001600160a01b0316815260200182815260200192505050602060405180830381600087803b1580156102eb57600080fd5b505af11580156102ff573d6000803e3d6000fd5b505050506040513d602081101561031557600080fd5b50516103525760405162461bcd60e51b8152600401808060200182810382526038815260200180610a7f6038913960400191505060405180910390fd5b604080516323b872dd60e01b81526001600160a01b0387811660048301528681166024830152604482018690529151918416916323b872dd916064808201926020929091908290030181600087803b1580156103ad57600080fd5b505af11580156103c1573d6000803e3d6000fd5b505050506040513d60208110156103d757600080fd5b50516104145760405162461bcd60e51b81526004018080602001828103825260388152602001806109d66038913960400191505060405180910390fd5b604080516001600160a01b0380881682528087166020830152818301869052841660608201526080810183905290517f9067318deb9eb7339cff3f130c88e19bc44e1a2e80c249023604a98d708d691b9181900360a00190a15050505050565b336104b05760405162461bcd60e51b815260040180806020018281038252603f81526020018061096f603f913960400191505060405180910390fd5b600083116104ef5760405162461bcd60e51b815260040180806020018281038252603c81526020018061081d603c913960400191505060405180910390fd5b801561052c5760405162461bcd60e51b81526004018080602001828103825260358152602001806109026035913960400191505060405180910390fd5b604080516323b872dd60e01b81526001600160a01b0387811660048301528681166024830152604482018690529151918416916323b872dd916064808201926020929091908290030181600087803b15801561058757600080fd5b505af115801561059b573d6000803e3d6000fd5b505050506040513d60208110156105b157600080fd5b50516104145760405162461bcd60e51b81526004018080602001828103825260388152602001806109376038913960400191505060405180910390fd5b600060405180806109ae6028913960280190506040518091039020905090565b604080518082019091526005815264045524332360dc1b602082015290565b600060405180806107bc6031913960310190506040518091039020905090565b6000831161068c5760405162461bcd60e51b815260040180806020018281038252603c815260200180610a0e603c913960400191505060405180910390fd5b80156106c95760405162461bcd60e51b81526004018080602001828103825260358152602001806108cd6035913960400191505060405180910390fd5b816001600160a01b031663095ea7b385856040518363ffffffff1660e01b815260040180836001600160a01b03166001600160a01b0316815260200182815260200192505050602060405180830381600087803b15801561072957600080fd5b505af115801561073d573d6000803e3d6000fd5b505050506040513d602081101561075357600080fd5b50516107905760405162461bcd60e51b81526004018080602001828103825260388152602001806108596038913960400191505060405180910390fd5b50505050565b600190565b600060405180806107ed603091396030019050604051809103902090509056fe646973706174636828616464726573732c616464726573732c75696e743235362c616464726573732c75696e74323536297265636569766528616464726573732c616464726573732c75696e743235362c616464726573732c75696e7432353629416d6f756e74206973207374726963746c7920706f736974697665205b45524332305472616e73666572436f6e74726f6c6c65722e736f6c3a34385d417070726f76616c206e6f74207375636365737366756c205b45524332305472616e73666572436f6e74726f6c6c65722e736f6c3a36345d416d6f756e74206973207374726963746c7920706f736974697665205b45524332305472616e73666572436f6e74726f6c6c65722e736f6c3a37315d43757272656e6379204944206973206e6f742030205b45524332305472616e73666572436f6e74726f6c6c65722e736f6c3a36325d43757272656e6379204944206973206e6f742030205b45524332305472616e73666572436f6e74726f6c6c65722e736f6c3a34395d5472616e73666572206e6f74207375636365737366756c205b45524332305472616e73666572436f6e74726f6c6c65722e736f6c3a35315d4d6573736167652073656e646572206973206e756c6c2061646472657373205b45524332305472616e73666572436f6e74726f6c6c65722e736f6c3a34375d617070726f766528616464726573732c75696e743235362c616464726573732c75696e74323536295472616e73666572206e6f74207375636365737366756c205b45524332305472616e73666572436f6e74726f6c6c65722e736f6c3a37355d416d6f756e74206973207374726963746c7920706f736974697665205b45524332305472616e73666572436f6e74726f6c6c65722e736f6c3a36315d43757272656e6379204944206973206e6f742030205b45524332305472616e73666572436f6e74726f6c6c65722e736f6c3a37325d417070726f76616c206e6f74207375636365737366756c205b45524332305472616e73666572436f6e74726f6c6c65722e736f6c3a37345da265627a7a7231582020c66037356292c3eadbf4eb19f0b31e128ae5981541d9c2a9267d5f8764bfc564736f6c634300050c0032",
  "source": "/*\n * Hubii Nahmii\n *\n * Compliant with the Hubii Nahmii specification v0.12.\n *\n * Copyright (C) 2017-2018 Hubii AS\n */\n\npragma solidity >=0.4.25 <0.6.0;\n\nimport {TransferController} from \"./TransferController.sol\";\nimport {IERC20} from \"openzeppelin-solidity/contracts/token/ERC20/IERC20.sol\";\n\n/**\n * @title ERC20TransferController\n * @notice Handles transfers of ERC20 tokens\n */\ncontract ERC20TransferController is TransferController {\n    //\n    // Constants\n    // -----------------------------------------------------------------------------------------------------------------\n    string constant _standard = \"ERC20\";\n\n    //\n    // Functions\n    // -----------------------------------------------------------------------------------------------------------------\n    function isFungible()\n    public\n    view\n    returns (bool)\n    {\n        return true;\n    }\n\n    function standard()\n    public\n    view\n    returns (string memory)\n    {\n        return _standard;\n    }\n\n    /// @notice MUST be called with DELEGATECALL\n    function receive(address from, address to, uint256 amount, address currencyCt, uint256 currencyId)\n    public\n    {\n        require(msg.sender != address(0), \"Message sender is null address [ERC20TransferController.sol:47]\");\n        require(amount > 0, \"Amount is strictly positive [ERC20TransferController.sol:48]\");\n        require(currencyId == 0, \"Currency ID is not 0 [ERC20TransferController.sol:49]\");\n\n        require(IERC20(currencyCt).transferFrom(from, to, amount), \"Transfer not successful [ERC20TransferController.sol:51]\");\n\n        // Emit event\n        emit CurrencyTransferred(from, to, amount, currencyCt, currencyId);\n    }\n\n    /// @notice MUST be called with DELEGATECALL\n    function approve(address to, uint256 amount, address currencyCt, uint256 currencyId)\n    public\n    {\n        require(amount > 0, \"Amount is strictly positive [ERC20TransferController.sol:61]\");\n        require(currencyId == 0, \"Currency ID is not 0 [ERC20TransferController.sol:62]\");\n\n        require(IERC20(currencyCt).approve(to, amount), \"Approval not successful [ERC20TransferController.sol:64]\");\n    }\n\n    /// @notice MUST be called with DELEGATECALL\n    function dispatch(address from, address to, uint256 amount, address currencyCt, uint256 currencyId)\n    public\n    {\n        require(amount > 0, \"Amount is strictly positive [ERC20TransferController.sol:71]\");\n        require(currencyId == 0, \"Currency ID is not 0 [ERC20TransferController.sol:72]\");\n\n        require(IERC20(currencyCt).approve(from, amount), \"Approval not successful [ERC20TransferController.sol:74]\");\n        require(IERC20(currencyCt).transferFrom(from, to, amount), \"Transfer not successful [ERC20TransferController.sol:75]\");\n\n        // Emit event\n        emit CurrencyTransferred(from, to, amount, currencyCt, currencyId);\n    }\n}",
  "sourcePath": "/opt/buildagent/work/855e104608380c36/contracts/ERC20TransferController.sol",
  "compiler": {
    "name": "solc",
    "version": "0.5.12+commit.7709ece9.Emscripten.clang"
  },
  "schemaVersion": "2.0.3",
  "updatedAt": "2019-10-23T00:21:40.758Z"
}