{
  "contractName": "ERC721TransferController",
  "abi": [
    {
      "constant": true,
      "inputs": [],
      "name": "getApproveSignature",
      "outputs": [
        {
          "name": "",
          "type": "bytes4"
        }
      ],
      "payable": false,
      "stateMutability": "pure",
      "type": "function"
    },
    {
      "constant": true,
      "inputs": [],
      "name": "getDispatchSignature",
      "outputs": [
        {
          "name": "",
          "type": "bytes4"
        }
      ],
      "payable": false,
      "stateMutability": "pure",
      "type": "function"
    },
    {
      "constant": true,
      "inputs": [],
      "name": "getReceiveSignature",
      "outputs": [
        {
          "name": "",
          "type": "bytes4"
        }
      ],
      "payable": false,
      "stateMutability": "pure",
      "type": "function"
    },
    {
      "anonymous": false,
      "inputs": [
        {
          "indexed": false,
          "name": "from",
          "type": "address"
        },
        {
          "indexed": false,
          "name": "to",
          "type": "address"
        },
        {
          "indexed": false,
          "name": "value",
          "type": "uint256"
        },
        {
          "indexed": false,
          "name": "currencyCt",
          "type": "address"
        },
        {
          "indexed": false,
          "name": "currencyId",
          "type": "uint256"
        }
      ],
      "name": "CurrencyTransferred",
      "type": "event"
    },
    {
      "constant": true,
      "inputs": [],
      "name": "isFungible",
      "outputs": [
        {
          "name": "",
          "type": "bool"
        }
      ],
      "payable": false,
      "stateMutability": "view",
      "type": "function"
    },
    {
      "constant": false,
      "inputs": [
        {
          "name": "from",
          "type": "address"
        },
        {
          "name": "to",
          "type": "address"
        },
        {
          "name": "id",
          "type": "uint256"
        },
        {
          "name": "currencyCt",
          "type": "address"
        },
        {
          "name": "currencyId",
          "type": "uint256"
        }
      ],
      "name": "receive",
      "outputs": [],
      "payable": false,
      "stateMutability": "nonpayable",
      "type": "function"
    },
    {
      "constant": false,
      "inputs": [
        {
          "name": "to",
          "type": "address"
        },
        {
          "name": "id",
          "type": "uint256"
        },
        {
          "name": "currencyCt",
          "type": "address"
        },
        {
          "name": "currencyId",
          "type": "uint256"
        }
      ],
      "name": "approve",
      "outputs": [],
      "payable": false,
      "stateMutability": "nonpayable",
      "type": "function"
    },
    {
      "constant": false,
      "inputs": [
        {
          "name": "from",
          "type": "address"
        },
        {
          "name": "to",
          "type": "address"
        },
        {
          "name": "id",
          "type": "uint256"
        },
        {
          "name": "currencyCt",
          "type": "address"
        },
        {
          "name": "currencyId",
          "type": "uint256"
        }
      ],
      "name": "dispatch",
      "outputs": [],
      "payable": false,
      "stateMutability": "nonpayable",
      "type": "function"
    }
  ],
  "bytecode": "0x608060405234801561001057600080fd5b506102f0806100206000396000f3006080604052600436106100695763ffffffff60e060020a60003504166303d873ee811461006e578063064dc61b1461006e5780631711a894146100a45780637228941f146100d65780637eb2e835146100eb578063a89c2e5a14610119578063ad502f5714610142575b600080fd5b34801561007a57600080fd5b506100a2600160a060020a036004358116906024358116906044359060643516608435610157565b005b3480156100b057600080fd5b506100b96101c2565b60408051600160e060020a03199092168252519081900360200190f35b3480156100e257600080fd5b506100b961020b565b3480156100f757600080fd5b506100a2600160a060020a03600435811690602435906044351660643561025d565b34801561012557600080fd5b5061012e61026e565b604080519115158252519081900360200190f35b34801561014e57600080fd5b506100b9610273565b801561016257600080fd5b60408051600160a060020a0380881682528087166020830152818301869052841660608201526080810183905290517f9067318deb9eb7339cff3f130c88e19bc44e1a2e80c249023604a98d708d691b9181900360a00190a15050505050565b604080517f617070726f766528616464726573732c75696e743235362c616464726573732c815260c060020a6775696e7432353629026020820152905190819003602801902090565b604080517f646973706174636828616464726573732c616464726573732c75696e743235368152607860020a702c616464726573732c75696e7432353629026020820152905190819003603101902090565b801561026857600080fd5b50505050565b600090565b604080517f7265636569766528616464726573732c616464726573732c75696e743235362c8152608060020a6f616464726573732c75696e74323536290260208201529051908190036030019020905600a165627a7a72305820a95ae37a41dcd263f6d5ac361e93a0307c5e5222f3dcc8d074868c6fa6e825a30029",
  "source": "/*\n * Hubii Nahmii\n *\n * Compliant with the Hubii Nahmii specification v0.12.\n *\n * Copyright (C) 2017-2018 Hubii AS\n */\n\npragma solidity ^0.4.25;\n\nimport {TransferController} from \"./TransferController.sol\";\nimport {IERC721} from \"openzeppelin-solidity/contracts/token/ERC721/IERC721.sol\";\n\n/**\n * @title ERC721TransferController\n * @notice Handles transfers of ERC721 tokens\n */\ncontract ERC721TransferController is TransferController {\n    //\n    // Functions\n    // -----------------------------------------------------------------------------------------------------------------\n    function isFungible()\n    public\n    view\n    returns (bool)\n    {\n        return false;\n    }\n\n    function receive(address from, address to, uint256 id, address currencyCt, uint256 currencyId)\n    public\n    {\n        require(currencyId == 0);\n\n        //        IERC721(currencyCt).transferFrom(from, to, id);\n\n        // Emit event\n        emit CurrencyTransferred(from, to, id, currencyCt, currencyId);\n    }\n\n    /// @notice MUST be called with DELEGATECALL\n    function approve(address to, uint256 id, address currencyCt, uint256 currencyId)\n    public\n    {\n        require(currencyId == 0);\n\n        //        IERC721(currencyCt).approve(to, id);\n    }\n\n    /// @notice MUST be called with DELEGATECALL\n    function dispatch(address from, address to, uint256 id, address currencyCt, uint256 currencyId)\n    public\n    {\n        require(currencyId == 0);\n\n        //        IERC721(currencyCt).approve(from, id);\n        //        IERC721(currencyCt).transferFrom(from, to, id);\n\n        // Emit eventid\n        emit CurrencyTransferred(from, to, id, currencyCt, currencyId);\n    }\n}\n",
  "sourcePath": "/opt/buildagent/work/855e104608380c36/contracts/ERC721TransferController.sol",
  "compiler": {
    "name": "solc",
    "version": "0.4.25+commit.59dbf8f1.Emscripten.clang"
  },
  "schemaVersion": "2.0.1",
  "updatedAt": "2019-01-31T11:28:29.556Z"
}