{
  "contractName": "ERC721Mintable",
  "abi": [
    {
      "constant": true,
      "inputs": [
        {
          "name": "interfaceId",
          "type": "bytes4"
        }
      ],
      "name": "supportsInterface",
      "outputs": [
        {
          "name": "",
          "type": "bool"
        }
      ],
      "payable": false,
      "stateMutability": "view",
      "type": "function"
    },
    {
      "constant": true,
      "inputs": [
        {
          "name": "tokenId",
          "type": "uint256"
        }
      ],
      "name": "getApproved",
      "outputs": [
        {
          "name": "",
          "type": "address"
        }
      ],
      "payable": false,
      "stateMutability": "view",
      "type": "function"
    },
    {
      "constant": false,
      "inputs": [
        {
          "name": "to",
          "type": "address"
        },
        {
          "name": "tokenId",
          "type": "uint256"
        }
      ],
      "name": "approve",
      "outputs": [],
      "payable": false,
      "stateMutability": "nonpayable",
      "type": "function"
    },
    {
      "constant": false,
      "inputs": [
        {
          "name": "from",
          "type": "address"
        },
        {
          "name": "to",
          "type": "address"
        },
        {
          "name": "tokenId",
          "type": "uint256"
        }
      ],
      "name": "transferFrom",
      "outputs": [],
      "payable": false,
      "stateMutability": "nonpayable",
      "type": "function"
    },
    {
      "constant": false,
      "inputs": [
        {
          "name": "from",
          "type": "address"
        },
        {
          "name": "to",
          "type": "address"
        },
        {
          "name": "tokenId",
          "type": "uint256"
        }
      ],
      "name": "safeTransferFrom",
      "outputs": [],
      "payable": false,
      "stateMutability": "nonpayable",
      "type": "function"
    },
    {
      "constant": true,
      "inputs": [
        {
          "name": "tokenId",
          "type": "uint256"
        }
      ],
      "name": "ownerOf",
      "outputs": [
        {
          "name": "",
          "type": "address"
        }
      ],
      "payable": false,
      "stateMutability": "view",
      "type": "function"
    },
    {
      "constant": true,
      "inputs": [
        {
          "name": "owner",
          "type": "address"
        }
      ],
      "name": "balanceOf",
      "outputs": [
        {
          "name": "",
          "type": "uint256"
        }
      ],
      "payable": false,
      "stateMutability": "view",
      "type": "function"
    },
    {
      "constant": false,
      "inputs": [
        {
          "name": "account",
          "type": "address"
        }
      ],
      "name": "addMinter",
      "outputs": [],
      "payable": false,
      "stateMutability": "nonpayable",
      "type": "function"
    },
    {
      "constant": false,
      "inputs": [],
      "name": "renounceMinter",
      "outputs": [],
      "payable": false,
      "stateMutability": "nonpayable",
      "type": "function"
    },
    {
      "constant": false,
      "inputs": [
        {
          "name": "to",
          "type": "address"
        },
        {
          "name": "approved",
          "type": "bool"
        }
      ],
      "name": "setApprovalForAll",
      "outputs": [],
      "payable": false,
      "stateMutability": "nonpayable",
      "type": "function"
    },
    {
      "constant": true,
      "inputs": [
        {
          "name": "account",
          "type": "address"
        }
      ],
      "name": "isMinter",
      "outputs": [
        {
          "name": "",
          "type": "bool"
        }
      ],
      "payable": false,
      "stateMutability": "view",
      "type": "function"
    },
    {
      "constant": false,
      "inputs": [
        {
          "name": "from",
          "type": "address"
        },
        {
          "name": "to",
          "type": "address"
        },
        {
          "name": "tokenId",
          "type": "uint256"
        },
        {
          "name": "_data",
          "type": "bytes"
        }
      ],
      "name": "safeTransferFrom",
      "outputs": [],
      "payable": false,
      "stateMutability": "nonpayable",
      "type": "function"
    },
    {
      "constant": true,
      "inputs": [
        {
          "name": "owner",
          "type": "address"
        },
        {
          "name": "operator",
          "type": "address"
        }
      ],
      "name": "isApprovedForAll",
      "outputs": [
        {
          "name": "",
          "type": "bool"
        }
      ],
      "payable": false,
      "stateMutability": "view",
      "type": "function"
    },
    {
      "anonymous": false,
      "inputs": [
        {
          "indexed": true,
          "name": "account",
          "type": "address"
        }
      ],
      "name": "MinterAdded",
      "type": "event"
    },
    {
      "anonymous": false,
      "inputs": [
        {
          "indexed": true,
          "name": "account",
          "type": "address"
        }
      ],
      "name": "MinterRemoved",
      "type": "event"
    },
    {
      "anonymous": false,
      "inputs": [
        {
          "indexed": true,
          "name": "from",
          "type": "address"
        },
        {
          "indexed": true,
          "name": "to",
          "type": "address"
        },
        {
          "indexed": true,
          "name": "tokenId",
          "type": "uint256"
        }
      ],
      "name": "Transfer",
      "type": "event"
    },
    {
      "anonymous": false,
      "inputs": [
        {
          "indexed": true,
          "name": "owner",
          "type": "address"
        },
        {
          "indexed": true,
          "name": "approved",
          "type": "address"
        },
        {
          "indexed": true,
          "name": "tokenId",
          "type": "uint256"
        }
      ],
      "name": "Approval",
      "type": "event"
    },
    {
      "anonymous": false,
      "inputs": [
        {
          "indexed": true,
          "name": "owner",
          "type": "address"
        },
        {
          "indexed": true,
          "name": "operator",
          "type": "address"
        },
        {
          "indexed": false,
          "name": "approved",
          "type": "bool"
        }
      ],
      "name": "ApprovalForAll",
      "type": "event"
    },
    {
      "constant": false,
      "inputs": [
        {
          "name": "to",
          "type": "address"
        },
        {
          "name": "tokenId",
          "type": "uint256"
        }
      ],
      "name": "mint",
      "outputs": [
        {
          "name": "",
          "type": "bool"
        }
      ],
      "payable": false,
      "stateMutability": "nonpayable",
      "type": "function"
    }
  ],
  "bytecode": "0x60806040526100367f01ffc9a70000000000000000000000000000000000000000000000000000000064010000000061007f810204565b6100687f80ac58cd0000000000000000000000000000000000000000000000000000000064010000000061007f810204565b61007a336401000000006100eb810204565b6101c8565b7fffffffff0000000000000000000000000000000000000000000000000000000080821614156100ae57600080fd5b7fffffffff00000000000000000000000000000000000000000000000000000000166000908152602081905260409020805460ff19166001179055565b610103600582640100000000610ac361013a82021704565b604051600160a060020a038216907f6ae172837ea30b801fbfcdd4108aa1d5bf8ff775444fd70256b44e6bf3dfc3f690600090a250565b600160a060020a038116151561014f57600080fd5b6101628282640100000000610191810204565b1561016c57600080fd5b600160a060020a0316600090815260209190915260409020805460ff19166001179055565b6000600160a060020a03821615156101a857600080fd5b50600160a060020a03166000908152602091909152604090205460ff1690565b610bb1806101d76000396000f3006080604052600436106100b65763ffffffff60e060020a60003504166301ffc9a781146100bb578063081812fc146100f1578063095ea7b31461012557806323b872dd1461014b57806340c10f191461017557806342842e0e146101995780636352211e146101c357806370a08231146101db578063983b2d561461020e578063986502751461022f578063a22cb46514610244578063aa271e1a1461026a578063b88d4fde1461028b578063e985e9c5146102fa575b600080fd5b3480156100c757600080fd5b506100dd600160e060020a031960043516610321565b604080519115158252519081900360200190f35b3480156100fd57600080fd5b50610109600435610340565b60408051600160a060020a039092168252519081900360200190f35b34801561013157600080fd5b50610149600160a060020a0360043516602435610372565b005b34801561015757600080fd5b50610149600160a060020a036004358116906024351660443561041b565b34801561018157600080fd5b506100dd600160a060020a0360043516602435610497565b3480156101a557600080fd5b50610149600160a060020a03600435811690602435166044356104c0565b3480156101cf57600080fd5b506101096004356104e1565b3480156101e757600080fd5b506101fc600160a060020a036004351661050b565b60408051918252519081900360200190f35b34801561021a57600080fd5b50610149600160a060020a036004351661053e565b34801561023b57600080fd5b5061014961055e565b34801561025057600080fd5b50610149600160a060020a03600435166024351515610569565b34801561027657600080fd5b506100dd600160a060020a03600435166105ed565b34801561029757600080fd5b50604080516020601f60643560048181013592830184900484028501840190955281845261014994600160a060020a0381358116956024803590921695604435953695608494019181908401838280828437509497506106009650505050505050565b34801561030657600080fd5b506100dd600160a060020a0360043581169060243516610628565b600160e060020a03191660009081526020819052604090205460ff1690565b600061034b82610656565b151561035657600080fd5b50600090815260026020526040902054600160a060020a031690565b600061037d826104e1565b9050600160a060020a03838116908216141561039857600080fd5b33600160a060020a03821614806103b457506103b48133610628565b15156103bf57600080fd5b6000828152600260205260408082208054600160a060020a031916600160a060020a0387811691821790925591518593918516917f8c5be1e5ebec7d5bd14f71427d1e84f3dd0314c0f7b2291e5b200ac8c7c3b92591a4505050565b6104253382610673565b151561043057600080fd5b600160a060020a038216151561044557600080fd5b61044f83826106d2565b6104598382610736565b61046382826107bf565b8082600160a060020a031684600160a060020a0316600080516020610b6683398151915260405160405180910390a4505050565b60006104a2336105ed565b15156104ad57600080fd5b6104b78383610842565b50600192915050565b6104dc8383836020604051908101604052806000815250610600565b505050565b600081815260016020526040812054600160a060020a031680151561050557600080fd5b92915050565b6000600160a060020a038216151561052257600080fd5b50600160a060020a031660009081526003602052604090205490565b610547336105ed565b151561055257600080fd5b61055b8161088b565b50565b610567336108d3565b565b600160a060020a03821633141561057f57600080fd5b336000818152600460209081526040808320600160a060020a03871680855290835292819020805460ff1916861515908117909155815190815290519293927f17307eab39ab6107e8899845ad3d59bd9653f200f220920489ca2b5937696c31929181900390910190a35050565b600061050560058363ffffffff61091b16565b61060b84848461041b565b61061784848484610952565b151561062257600080fd5b50505050565b600160a060020a03918216600090815260046020908152604080832093909416825291909152205460ff1690565b600090815260016020526040902054600160a060020a0316151590565b60008061067f836104e1565b905080600160a060020a031684600160a060020a031614806106ba575083600160a060020a03166106af84610340565b600160a060020a0316145b806106ca57506106ca8185610628565b949350505050565b81600160a060020a03166106e5826104e1565b600160a060020a0316146106f857600080fd5b600081815260026020526040902054600160a060020a0316156107325760008181526002602052604090208054600160a060020a03191690555b5050565b81600160a060020a0316610749826104e1565b600160a060020a03161461075c57600080fd5b600160a060020a03821660009081526003602052604090205461078690600163ffffffff610a9316565b600160a060020a039092166000908152600360209081526040808320949094559181526001909152208054600160a060020a0319169055565b600081815260016020526040902054600160a060020a0316156107e157600080fd5b60008181526001602081815260408084208054600160a060020a031916600160a060020a038816908117909155845260039091529091205461082291610aaa565b600160a060020a0390921660009081526003602052604090209190915550565b600160a060020a038216151561085757600080fd5b61086182826107bf565b6040518190600160a060020a03841690600090600080516020610b66833981519152908290a45050565b61089c60058263ffffffff610ac316565b604051600160a060020a038216907f6ae172837ea30b801fbfcdd4108aa1d5bf8ff775444fd70256b44e6bf3dfc3f690600090a250565b6108e460058263ffffffff610b1116565b604051600160a060020a038216907fe94479a9f7e1952cc78f2d6baab678adc1b772d936c6583def489e524cb6669290600090a250565b6000600160a060020a038216151561093257600080fd5b50600160a060020a03166000908152602091909152604090205460ff1690565b60008061096785600160a060020a0316610b5d565b15156109765760019150610a8a565b60405160e160020a630a85bd010281523360048201818152600160a060020a03898116602485015260448401889052608060648501908152875160848601528751918a169463150b7a0294938c938b938b93909160a490910190602085019080838360005b838110156109f35781810151838201526020016109db565b50505050905090810190601f168015610a205780820380516001836020036101000a031916815260200191505b5095505050505050602060405180830381600087803b158015610a4257600080fd5b505af1158015610a56573d6000803e3d6000fd5b505050506040513d6020811015610a6c57600080fd5b5051600160e060020a0319811660e160020a630a85bd010214925090505b50949350505050565b60008083831115610aa357600080fd5b5050900390565b600082820183811015610abc57600080fd5b9392505050565b600160a060020a0381161515610ad857600080fd5b610ae2828261091b565b15610aec57600080fd5b600160a060020a0316600090815260209190915260409020805460ff19166001179055565b600160a060020a0381161515610b2657600080fd5b610b30828261091b565b1515610b3b57600080fd5b600160a060020a0316600090815260209190915260409020805460ff19169055565b6000903b11905600ddf252ad1be2c89b69c2b068fc378daa952ba7f163c4a11628f55a4df523b3efa165627a7a72305820c91da20c56ac603cc19b416dd60cefabf00a08d8117109e8f3a13f10eb5dcb660029",
  "source": "pragma solidity ^0.4.24;\n\nimport \"./ERC721.sol\";\nimport \"../../access/roles/MinterRole.sol\";\n\n/**\n * @title ERC721Mintable\n * @dev ERC721 minting logic\n */\ncontract ERC721Mintable is ERC721, MinterRole {\n  /**\n   * @dev Function to mint tokens\n   * @param to The address that will receive the minted tokens.\n   * @param tokenId The token id to mint.\n   * @return A boolean that indicates if the operation was successful.\n   */\n  function mint(\n    address to,\n    uint256 tokenId\n  )\n    public\n    onlyMinter\n    returns (bool)\n  {\n    _mint(to, tokenId);\n    return true;\n  }\n}\n",
  "sourcePath": "openzeppelin-solidity/contracts/token/ERC721/ERC721Mintable.sol",
  "compiler": {
    "name": "solc",
    "version": "0.4.25+commit.59dbf8f1.Emscripten.clang"
  },
  "schemaVersion": "2.0.2",
  "updatedAt": "2019-04-02T06:20:37.156Z"
}