{
  "contractName": "FraudChallengeBySuccessiveTrades",
  "abi": [
    {
      "constant": false,
      "inputs": [
        {
          "name": "newFraudChallenge",
          "type": "address"
        }
      ],
      "name": "setFraudChallenge",
      "outputs": [],
      "payable": false,
      "stateMutability": "nonpayable",
      "type": "function"
    },
    {
      "constant": false,
      "inputs": [
        {
          "name": "newValidator",
          "type": "address"
        }
      ],
      "name": "setValidator",
      "outputs": [],
      "payable": false,
      "stateMutability": "nonpayable",
      "type": "function"
    },
    {
      "constant": true,
      "inputs": [],
      "name": "walletLockerFrozen",
      "outputs": [
        {
          "name": "",
          "type": "bool"
        }
      ],
      "payable": false,
      "stateMutability": "view",
      "type": "function"
    },
    {
      "constant": false,
      "inputs": [],
      "name": "triggerSelfDestruction",
      "outputs": [],
      "payable": false,
      "stateMutability": "nonpayable",
      "type": "function"
    },
    {
      "constant": true,
      "inputs": [],
      "name": "selfDestructionDisabled",
      "outputs": [
        {
          "name": "",
          "type": "bool"
        }
      ],
      "payable": false,
      "stateMutability": "view",
      "type": "function"
    },
    {
      "constant": true,
      "inputs": [],
      "name": "validator",
      "outputs": [
        {
          "name": "",
          "type": "address"
        }
      ],
      "payable": false,
      "stateMutability": "view",
      "type": "function"
    },
    {
      "constant": true,
      "inputs": [],
      "name": "fraudChallenge",
      "outputs": [
        {
          "name": "",
          "type": "address"
        }
      ],
      "payable": false,
      "stateMutability": "view",
      "type": "function"
    },
    {
      "constant": true,
      "inputs": [],
      "name": "destructor",
      "outputs": [
        {
          "name": "",
          "type": "address"
        }
      ],
      "payable": false,
      "stateMutability": "view",
      "type": "function"
    },
    {
      "constant": true,
      "inputs": [],
      "name": "operator",
      "outputs": [
        {
          "name": "",
          "type": "address"
        }
      ],
      "payable": false,
      "stateMutability": "view",
      "type": "function"
    },
    {
      "constant": false,
      "inputs": [],
      "name": "freezeWalletLocker",
      "outputs": [],
      "payable": false,
      "stateMutability": "nonpayable",
      "type": "function"
    },
    {
      "constant": false,
      "inputs": [
        {
          "name": "newConfiguration",
          "type": "address"
        }
      ],
      "name": "setConfiguration",
      "outputs": [],
      "payable": false,
      "stateMutability": "nonpayable",
      "type": "function"
    },
    {
      "constant": false,
      "inputs": [
        {
          "name": "newSecurityBond",
          "type": "address"
        }
      ],
      "name": "setSecurityBond",
      "outputs": [],
      "payable": false,
      "stateMutability": "nonpayable",
      "type": "function"
    },
    {
      "constant": true,
      "inputs": [],
      "name": "securityBond",
      "outputs": [
        {
          "name": "",
          "type": "address"
        }
      ],
      "payable": false,
      "stateMutability": "view",
      "type": "function"
    },
    {
      "constant": true,
      "inputs": [],
      "name": "configuration",
      "outputs": [
        {
          "name": "",
          "type": "address"
        }
      ],
      "payable": false,
      "stateMutability": "view",
      "type": "function"
    },
    {
      "constant": false,
      "inputs": [],
      "name": "disableSelfDestruction",
      "outputs": [],
      "payable": false,
      "stateMutability": "nonpayable",
      "type": "function"
    },
    {
      "constant": false,
      "inputs": [
        {
          "name": "newWalletLocker",
          "type": "address"
        }
      ],
      "name": "setWalletLocker",
      "outputs": [],
      "payable": false,
      "stateMutability": "nonpayable",
      "type": "function"
    },
    {
      "constant": false,
      "inputs": [
        {
          "name": "newDeployer",
          "type": "address"
        }
      ],
      "name": "setDeployer",
      "outputs": [],
      "payable": false,
      "stateMutability": "nonpayable",
      "type": "function"
    },
    {
      "constant": false,
      "inputs": [
        {
          "name": "newOperator",
          "type": "address"
        }
      ],
      "name": "setOperator",
      "outputs": [],
      "payable": false,
      "stateMutability": "nonpayable",
      "type": "function"
    },
    {
      "constant": true,
      "inputs": [],
      "name": "deployer",
      "outputs": [
        {
          "name": "",
          "type": "address"
        }
      ],
      "payable": false,
      "stateMutability": "view",
      "type": "function"
    },
    {
      "constant": true,
      "inputs": [],
      "name": "walletLocker",
      "outputs": [
        {
          "name": "",
          "type": "address"
        }
      ],
      "payable": false,
      "stateMutability": "view",
      "type": "function"
    },
    {
      "inputs": [
        {
          "name": "deployer",
          "type": "address"
        }
      ],
      "payable": false,
      "stateMutability": "nonpayable",
      "type": "constructor"
    },
    {
      "anonymous": false,
      "inputs": [
        {
          "indexed": false,
          "name": "firstTradeHash",
          "type": "bytes32"
        },
        {
          "indexed": false,
          "name": "lastTradeHash",
          "type": "bytes32"
        },
        {
          "indexed": false,
          "name": "challenger",
          "type": "address"
        },
        {
          "indexed": false,
          "name": "lockedWallet",
          "type": "address"
        }
      ],
      "name": "ChallengeBySuccessiveTradesEvent",
      "type": "event"
    },
    {
      "anonymous": false,
      "inputs": [
        {
          "indexed": false,
          "name": "oldWalletLocker",
          "type": "address"
        },
        {
          "indexed": false,
          "name": "newWalletLocker",
          "type": "address"
        }
      ],
      "name": "SetWalletLockerEvent",
      "type": "event"
    },
    {
      "anonymous": false,
      "inputs": [],
      "name": "FreezeWalletLockerEvent",
      "type": "event"
    },
    {
      "anonymous": false,
      "inputs": [
        {
          "indexed": false,
          "name": "oldSecurityBond",
          "type": "address"
        },
        {
          "indexed": false,
          "name": "newSecurityBond",
          "type": "address"
        }
      ],
      "name": "SetSecurityBondEvent",
      "type": "event"
    },
    {
      "anonymous": false,
      "inputs": [
        {
          "indexed": false,
          "name": "oldValidator",
          "type": "address"
        },
        {
          "indexed": false,
          "name": "newValidator",
          "type": "address"
        }
      ],
      "name": "SetValidatorEvent",
      "type": "event"
    },
    {
      "anonymous": false,
      "inputs": [
        {
          "indexed": false,
          "name": "oldConfiguration",
          "type": "address"
        },
        {
          "indexed": false,
          "name": "newConfiguration",
          "type": "address"
        }
      ],
      "name": "SetConfigurationEvent",
      "type": "event"
    },
    {
      "anonymous": false,
      "inputs": [
        {
          "indexed": false,
          "name": "oldFraudChallenge",
          "type": "address"
        },
        {
          "indexed": false,
          "name": "newFraudChallenge",
          "type": "address"
        }
      ],
      "name": "SetFraudChallengeEvent",
      "type": "event"
    },
    {
      "anonymous": false,
      "inputs": [
        {
          "indexed": false,
          "name": "oldDeployer",
          "type": "address"
        },
        {
          "indexed": false,
          "name": "newDeployer",
          "type": "address"
        }
      ],
      "name": "SetDeployerEvent",
      "type": "event"
    },
    {
      "anonymous": false,
      "inputs": [
        {
          "indexed": false,
          "name": "oldOperator",
          "type": "address"
        },
        {
          "indexed": false,
          "name": "newOperator",
          "type": "address"
        }
      ],
      "name": "SetOperatorEvent",
      "type": "event"
    },
    {
      "anonymous": false,
      "inputs": [
        {
          "indexed": false,
          "name": "wallet",
          "type": "address"
        }
      ],
      "name": "SelfDestructionDisabledEvent",
      "type": "event"
    },
    {
      "anonymous": false,
      "inputs": [
        {
          "indexed": false,
          "name": "wallet",
          "type": "address"
        }
      ],
      "name": "TriggerSelfDestructionEvent",
      "type": "event"
    },
    {
      "constant": false,
      "inputs": [
        {
          "components": [
            {
              "name": "nonce",
              "type": "uint256"
            },
            {
              "name": "amount",
              "type": "int256"
            },
            {
              "components": [
                {
                  "components": [
                    {
                      "name": "ct",
                      "type": "address"
                    },
                    {
                      "name": "id",
                      "type": "uint256"
                    }
                  ],
                  "name": "intended",
                  "type": "tuple"
                },
                {
                  "components": [
                    {
                      "name": "ct",
                      "type": "address"
                    },
                    {
                      "name": "id",
                      "type": "uint256"
                    }
                  ],
                  "name": "conjugate",
                  "type": "tuple"
                }
              ],
              "name": "currencies",
              "type": "tuple"
            },
            {
              "name": "rate",
              "type": "int256"
            },
            {
              "components": [
                {
                  "name": "nonce",
                  "type": "uint256"
                },
                {
                  "name": "wallet",
                  "type": "address"
                },
                {
                  "name": "rollingVolume",
                  "type": "uint256"
                },
                {
                  "name": "liquidityRole",
                  "type": "uint8"
                },
                {
                  "components": [
                    {
                      "name": "amount",
                      "type": "int256"
                    },
                    {
                      "components": [
                        {
                          "name": "wallet",
                          "type": "bytes32"
                        },
                        {
                          "name": "operator",
                          "type": "bytes32"
                        }
                      ],
                      "name": "hashes",
                      "type": "tuple"
                    },
                    {
                      "components": [
                        {
                          "name": "current",
                          "type": "int256"
                        },
                        {
                          "name": "previous",
                          "type": "int256"
                        }
                      ],
                      "name": "residuals",
                      "type": "tuple"
                    }
                  ],
                  "name": "order",
                  "type": "tuple"
                },
                {
                  "components": [
                    {
                      "components": [
                        {
                          "name": "current",
                          "type": "int256"
                        },
                        {
                          "name": "previous",
                          "type": "int256"
                        }
                      ],
                      "name": "intended",
                      "type": "tuple"
                    },
                    {
                      "components": [
                        {
                          "name": "current",
                          "type": "int256"
                        },
                        {
                          "name": "previous",
                          "type": "int256"
                        }
                      ],
                      "name": "conjugate",
                      "type": "tuple"
                    }
                  ],
                  "name": "balances",
                  "type": "tuple"
                },
                {
                  "components": [
                    {
                      "components": [
                        {
                          "name": "amount",
                          "type": "int256"
                        },
                        {
                          "components": [
                            {
                              "name": "ct",
                              "type": "address"
                            },
                            {
                              "name": "id",
                              "type": "uint256"
                            }
                          ],
                          "name": "currency",
                          "type": "tuple"
                        }
                      ],
                      "name": "single",
                      "type": "tuple"
                    },
                    {
                      "components": [
                        {
                          "name": "originId",
                          "type": "uint256"
                        },
                        {
                          "components": [
                            {
                              "name": "amount",
                              "type": "int256"
                            },
                            {
                              "components": [
                                {
                                  "name": "ct",
                                  "type": "address"
                                },
                                {
                                  "name": "id",
                                  "type": "uint256"
                                }
                              ],
                              "name": "currency",
                              "type": "tuple"
                            }
                          ],
                          "name": "figure",
                          "type": "tuple"
                        }
                      ],
                      "name": "total",
                      "type": "tuple[]"
                    }
                  ],
                  "name": "fees",
                  "type": "tuple"
                }
              ],
              "name": "buyer",
              "type": "tuple"
            },
            {
              "components": [
                {
                  "name": "nonce",
                  "type": "uint256"
                },
                {
                  "name": "wallet",
                  "type": "address"
                },
                {
                  "name": "rollingVolume",
                  "type": "uint256"
                },
                {
                  "name": "liquidityRole",
                  "type": "uint8"
                },
                {
                  "components": [
                    {
                      "name": "amount",
                      "type": "int256"
                    },
                    {
                      "components": [
                        {
                          "name": "wallet",
                          "type": "bytes32"
                        },
                        {
                          "name": "operator",
                          "type": "bytes32"
                        }
                      ],
                      "name": "hashes",
                      "type": "tuple"
                    },
                    {
                      "components": [
                        {
                          "name": "current",
                          "type": "int256"
                        },
                        {
                          "name": "previous",
                          "type": "int256"
                        }
                      ],
                      "name": "residuals",
                      "type": "tuple"
                    }
                  ],
                  "name": "order",
                  "type": "tuple"
                },
                {
                  "components": [
                    {
                      "components": [
                        {
                          "name": "current",
                          "type": "int256"
                        },
                        {
                          "name": "previous",
                          "type": "int256"
                        }
                      ],
                      "name": "intended",
                      "type": "tuple"
                    },
                    {
                      "components": [
                        {
                          "name": "current",
                          "type": "int256"
                        },
                        {
                          "name": "previous",
                          "type": "int256"
                        }
                      ],
                      "name": "conjugate",
                      "type": "tuple"
                    }
                  ],
                  "name": "balances",
                  "type": "tuple"
                },
                {
                  "components": [
                    {
                      "components": [
                        {
                          "name": "amount",
                          "type": "int256"
                        },
                        {
                          "components": [
                            {
                              "name": "ct",
                              "type": "address"
                            },
                            {
                              "name": "id",
                              "type": "uint256"
                            }
                          ],
                          "name": "currency",
                          "type": "tuple"
                        }
                      ],
                      "name": "single",
                      "type": "tuple"
                    },
                    {
                      "components": [
                        {
                          "name": "originId",
                          "type": "uint256"
                        },
                        {
                          "components": [
                            {
                              "name": "amount",
                              "type": "int256"
                            },
                            {
                              "components": [
                                {
                                  "name": "ct",
                                  "type": "address"
                                },
                                {
                                  "name": "id",
                                  "type": "uint256"
                                }
                              ],
                              "name": "currency",
                              "type": "tuple"
                            }
                          ],
                          "name": "figure",
                          "type": "tuple"
                        }
                      ],
                      "name": "total",
                      "type": "tuple[]"
                    }
                  ],
                  "name": "fees",
                  "type": "tuple"
                }
              ],
              "name": "seller",
              "type": "tuple"
            },
            {
              "components": [
                {
                  "components": [
                    {
                      "name": "single",
                      "type": "int256"
                    },
                    {
                      "name": "total",
                      "type": "int256"
                    }
                  ],
                  "name": "intended",
                  "type": "tuple"
                },
                {
                  "components": [
                    {
                      "name": "single",
                      "type": "int256"
                    },
                    {
                      "name": "total",
                      "type": "int256"
                    }
                  ],
                  "name": "conjugate",
                  "type": "tuple"
                }
              ],
              "name": "transfers",
              "type": "tuple"
            },
            {
              "components": [
                {
                  "name": "hash",
                  "type": "bytes32"
                },
                {
                  "components": [
                    {
                      "name": "r",
                      "type": "bytes32"
                    },
                    {
                      "name": "s",
                      "type": "bytes32"
                    },
                    {
                      "name": "v",
                      "type": "uint8"
                    }
                  ],
                  "name": "signature",
                  "type": "tuple"
                }
              ],
              "name": "seal",
              "type": "tuple"
            },
            {
              "name": "blockNumber",
              "type": "uint256"
            },
            {
              "name": "operatorId",
              "type": "uint256"
            }
          ],
          "name": "firstTrade",
          "type": "tuple"
        },
        {
          "components": [
            {
              "name": "nonce",
              "type": "uint256"
            },
            {
              "name": "amount",
              "type": "int256"
            },
            {
              "components": [
                {
                  "components": [
                    {
                      "name": "ct",
                      "type": "address"
                    },
                    {
                      "name": "id",
                      "type": "uint256"
                    }
                  ],
                  "name": "intended",
                  "type": "tuple"
                },
                {
                  "components": [
                    {
                      "name": "ct",
                      "type": "address"
                    },
                    {
                      "name": "id",
                      "type": "uint256"
                    }
                  ],
                  "name": "conjugate",
                  "type": "tuple"
                }
              ],
              "name": "currencies",
              "type": "tuple"
            },
            {
              "name": "rate",
              "type": "int256"
            },
            {
              "components": [
                {
                  "name": "nonce",
                  "type": "uint256"
                },
                {
                  "name": "wallet",
                  "type": "address"
                },
                {
                  "name": "rollingVolume",
                  "type": "uint256"
                },
                {
                  "name": "liquidityRole",
                  "type": "uint8"
                },
                {
                  "components": [
                    {
                      "name": "amount",
                      "type": "int256"
                    },
                    {
                      "components": [
                        {
                          "name": "wallet",
                          "type": "bytes32"
                        },
                        {
                          "name": "operator",
                          "type": "bytes32"
                        }
                      ],
                      "name": "hashes",
                      "type": "tuple"
                    },
                    {
                      "components": [
                        {
                          "name": "current",
                          "type": "int256"
                        },
                        {
                          "name": "previous",
                          "type": "int256"
                        }
                      ],
                      "name": "residuals",
                      "type": "tuple"
                    }
                  ],
                  "name": "order",
                  "type": "tuple"
                },
                {
                  "components": [
                    {
                      "components": [
                        {
                          "name": "current",
                          "type": "int256"
                        },
                        {
                          "name": "previous",
                          "type": "int256"
                        }
                      ],
                      "name": "intended",
                      "type": "tuple"
                    },
                    {
                      "components": [
                        {
                          "name": "current",
                          "type": "int256"
                        },
                        {
                          "name": "previous",
                          "type": "int256"
                        }
                      ],
                      "name": "conjugate",
                      "type": "tuple"
                    }
                  ],
                  "name": "balances",
                  "type": "tuple"
                },
                {
                  "components": [
                    {
                      "components": [
                        {
                          "name": "amount",
                          "type": "int256"
                        },
                        {
                          "components": [
                            {
                              "name": "ct",
                              "type": "address"
                            },
                            {
                              "name": "id",
                              "type": "uint256"
                            }
                          ],
                          "name": "currency",
                          "type": "tuple"
                        }
                      ],
                      "name": "single",
                      "type": "tuple"
                    },
                    {
                      "components": [
                        {
                          "name": "originId",
                          "type": "uint256"
                        },
                        {
                          "components": [
                            {
                              "name": "amount",
                              "type": "int256"
                            },
                            {
                              "components": [
                                {
                                  "name": "ct",
                                  "type": "address"
                                },
                                {
                                  "name": "id",
                                  "type": "uint256"
                                }
                              ],
                              "name": "currency",
                              "type": "tuple"
                            }
                          ],
                          "name": "figure",
                          "type": "tuple"
                        }
                      ],
                      "name": "total",
                      "type": "tuple[]"
                    }
                  ],
                  "name": "fees",
                  "type": "tuple"
                }
              ],
              "name": "buyer",
              "type": "tuple"
            },
            {
              "components": [
                {
                  "name": "nonce",
                  "type": "uint256"
                },
                {
                  "name": "wallet",
                  "type": "address"
                },
                {
                  "name": "rollingVolume",
                  "type": "uint256"
                },
                {
                  "name": "liquidityRole",
                  "type": "uint8"
                },
                {
                  "components": [
                    {
                      "name": "amount",
                      "type": "int256"
                    },
                    {
                      "components": [
                        {
                          "name": "wallet",
                          "type": "bytes32"
                        },
                        {
                          "name": "operator",
                          "type": "bytes32"
                        }
                      ],
                      "name": "hashes",
                      "type": "tuple"
                    },
                    {
                      "components": [
                        {
                          "name": "current",
                          "type": "int256"
                        },
                        {
                          "name": "previous",
                          "type": "int256"
                        }
                      ],
                      "name": "residuals",
                      "type": "tuple"
                    }
                  ],
                  "name": "order",
                  "type": "tuple"
                },
                {
                  "components": [
                    {
                      "components": [
                        {
                          "name": "current",
                          "type": "int256"
                        },
                        {
                          "name": "previous",
                          "type": "int256"
                        }
                      ],
                      "name": "intended",
                      "type": "tuple"
                    },
                    {
                      "components": [
                        {
                          "name": "current",
                          "type": "int256"
                        },
                        {
                          "name": "previous",
                          "type": "int256"
                        }
                      ],
                      "name": "conjugate",
                      "type": "tuple"
                    }
                  ],
                  "name": "balances",
                  "type": "tuple"
                },
                {
                  "components": [
                    {
                      "components": [
                        {
                          "name": "amount",
                          "type": "int256"
                        },
                        {
                          "components": [
                            {
                              "name": "ct",
                              "type": "address"
                            },
                            {
                              "name": "id",
                              "type": "uint256"
                            }
                          ],
                          "name": "currency",
                          "type": "tuple"
                        }
                      ],
                      "name": "single",
                      "type": "tuple"
                    },
                    {
                      "components": [
                        {
                          "name": "originId",
                          "type": "uint256"
                        },
                        {
                          "components": [
                            {
                              "name": "amount",
                              "type": "int256"
                            },
                            {
                              "components": [
                                {
                                  "name": "ct",
                                  "type": "address"
                                },
                                {
                                  "name": "id",
                                  "type": "uint256"
                                }
                              ],
                              "name": "currency",
                              "type": "tuple"
                            }
                          ],
                          "name": "figure",
                          "type": "tuple"
                        }
                      ],
                      "name": "total",
                      "type": "tuple[]"
                    }
                  ],
                  "name": "fees",
                  "type": "tuple"
                }
              ],
              "name": "seller",
              "type": "tuple"
            },
            {
              "components": [
                {
                  "components": [
                    {
                      "name": "single",
                      "type": "int256"
                    },
                    {
                      "name": "total",
                      "type": "int256"
                    }
                  ],
                  "name": "intended",
                  "type": "tuple"
                },
                {
                  "components": [
                    {
                      "name": "single",
                      "type": "int256"
                    },
                    {
                      "name": "total",
                      "type": "int256"
                    }
                  ],
                  "name": "conjugate",
                  "type": "tuple"
                }
              ],
              "name": "transfers",
              "type": "tuple"
            },
            {
              "components": [
                {
                  "name": "hash",
                  "type": "bytes32"
                },
                {
                  "components": [
                    {
                      "name": "r",
                      "type": "bytes32"
                    },
                    {
                      "name": "s",
                      "type": "bytes32"
                    },
                    {
                      "name": "v",
                      "type": "uint8"
                    }
                  ],
                  "name": "signature",
                  "type": "tuple"
                }
              ],
              "name": "seal",
              "type": "tuple"
            },
            {
              "name": "blockNumber",
              "type": "uint256"
            },
            {
              "name": "operatorId",
              "type": "uint256"
            }
          ],
          "name": "lastTrade",
          "type": "tuple"
        },
        {
          "name": "wallet",
          "type": "address"
        },
        {
          "name": "currencyCt",
          "type": "address"
        },
        {
          "name": "currencyId",
          "type": "uint256"
        }
      ],
      "name": "challenge",
      "outputs": [],
      "payable": false,
      "stateMutability": "nonpayable",
      "type": "function"
    }
  ],
  "bytecode": "0x60806040523480156200001157600080fd5b50604051602080620021078339810180604052620000339190810190620000b6565b8080600160a060020a03811615156200004b57600080fd5b600160a060020a0381163014156200006257600080fd5b506000805461010060a860020a031916610100600160a060020a039390931692830217905560018054600160a060020a031916909117905550620000eb565b6000620000af8251620000df565b9392505050565b600060208284031215620000c957600080fd5b6000620000d78484620000a1565b949350505050565b600160a060020a031690565b61200c80620000fb6000396000f3006080604052600436106101035763ffffffff60e060020a60003504166301370d0681146101085780631327d3d81461012a578063240625d81461014a5780632738a112146101755780632f013a001461018a5780633a5381b51461019f5780633bd7857f146101c15780634476d23b146101d6578063570ca735146101f85780635dc60def1461020d578063627f09c3146102225780636792ce6e146102425780636b0570d0146102625780636c70bee91461027757806370327ea11461028c578063892860b2146102a157806396214735146102c1578063b034d882146102e1578063b3ab15fb14610301578063d5f3948814610321578063e8ae41e314610336575b600080fd5b34801561011457600080fd5b506101286101233660046118c1565b61034b565b005b34801561013657600080fd5b506101286101453660046118c1565b6103f3565b34801561015657600080fd5b5061015f61048b565b60405161016c9190611dd6565b60405180910390f35b34801561018157600080fd5b5061012861049b565b34801561019657600080fd5b5061015f610501565b3480156101ab57600080fd5b506101b461050a565b60405161016c9190611e27565b3480156101cd57600080fd5b506101b4610519565b3480156101e257600080fd5b506101eb610528565b60405161016c9190611d33565b34801561020457600080fd5b506101eb61053c565b34801561021957600080fd5b5061012861054b565b34801561022e57600080fd5b5061012861023d3660046118c1565b61059f565b34801561024e57600080fd5b5061012861025d3660046118c1565b610637565b34801561026e57600080fd5b506101b46106cf565b34801561028357600080fd5b506101b46106de565b34801561029857600080fd5b506101286106ed565b3480156102ad57600080fd5b506101286102bc3660046118c1565b610750565b3480156102cd57600080fd5b506101286102dc36600461187d565b6107ff565b3480156102ed57600080fd5b506101286102fc3660046118df565b6108c6565b34801561030d57600080fd5b5061012861031c36600461187d565b6111bf565b34801561032d57600080fd5b506101eb611269565b34801561034257600080fd5b506101b461127d565b600061035561128c565b151561036057600080fd5b81600160a060020a038116151561037657600080fd5b6002548390600160a060020a0390811690821681146103ec5760028054600160a060020a03878116600160a060020a0319831617909255604051911694507f07998fa7be97abe2427246ae4688298c89d6196bbffdf0997b9495a8d27bc673906103e39086908890611e35565b60405180910390a15b5050505050565b60006103fd61128c565b151561040857600080fd5b81600160a060020a038116151561041e57600080fd5b6004548390600160a060020a0390811690821681146103ec5760048054600160a060020a03878116600160a060020a0319831617909255604051911694507f1882af944a16549c3d4f60e3cd26f158b0c7aac3222cf32971fc21375ce05f60906103e39086908890611e35565b60065460a060020a900460ff1681565b336104a4610528565b600160a060020a0316146104b757600080fd5b60005460ff16156104c757600080fd5b7f787a5d936e74f4b564b9153575886059829c78cd9927b1be5e0d976b317ef736336040516104f69190611d33565b60405180910390a133ff5b60005460ff1681565b600454600160a060020a031681565b600254600160a060020a031681565b6000546101009004600160a060020a031690565b600154600160a060020a031681565b61055361128c565b151561055e57600080fd5b6006805460a060020a60ff02191660a060020a1790556040517f56ec8900b9c4bf84f4b715a53068ca06961dd49084c07b481931e2c2045346e690600090a1565b60006105a961128c565b15156105b457600080fd5b81600160a060020a03811615156105ca57600080fd5b6003548390600160a060020a0390811690821681146103ec5760038054600160a060020a03878116600160a060020a0319831617909255604051911694507f634f61bf00e14adedce330c80c2823e16e184f189ebe853e1ddecc4a268477ff906103e39086908890611e35565b600061064161128c565b151561064c57600080fd5b81600160a060020a038116151561066257600080fd5b6005548390600160a060020a0390811690821681146103ec5760058054600160a060020a03878116600160a060020a0319831617909255604051911694507fc9f3f00c1760fe26985aeacb814a21c56ea289d680562e89b249681b08c30382906103e39086908890611e35565b600554600160a060020a031681565b600354600160a060020a031681565b336106f6610528565b600160a060020a03161461070957600080fd5b6000805460ff191660011790556040517fd5a2a04a775c741c2ca0dc46ea7ce4835190e1aaf1ca018def0e82568ec3361690610746903390611d33565b60405180910390a1565b600061075a61128c565b151561076557600080fd5b81600160a060020a038116151561077b57600080fd5b6006548390600160a060020a0390811690821681146103ec5760065460a060020a900460ff16156107ab57600080fd5b60068054600160a060020a03878116600160a060020a0319831617909255604051911694507fa44d361e26327b72a7ccbeae801b3c5cd7677ea4fa74168b289e273c46bfecfc906103e39086908890611e35565b600061080961128c565b151561081457600080fd5b81600160a060020a038116151561082a57600080fd5b600160a060020a03811630141561084057600080fd5b600054600160a060020a0384811661010090920416146108c15760008054600160a060020a0385811661010090810261010060a860020a0319841617909355604051929091041692507f977e5fa58e458501775e0008d275006294c5249e3c08d1d0e3a9f3acad14f6e4906108b89084908690611d47565b60405180910390a15b505050565b600080600080600360009054906101000a9004600160a060020a0316600160a060020a031663f71e860f6040518163ffffffff1660e060020a028152600401602060405180830381600087803b15801561091f57600080fd5b505af1158015610933573d6000803e3d6000fd5b505050506040513d601f19601f8201168201806040525061095791908101906118a3565b151561096257600080fd5b6004805460405160e160020a637211c8c70281528b92600160a060020a039092169163e423918e9161099691859101611e50565b602060405180830381600087803b1580156109b057600080fd5b505af11580156109c4573d6000803e3d6000fd5b505050506040513d601f19601f820116820180604052506109e891908101906118a3565b15156109f357600080fd5b6004805460405160e160020a637211c8c70281528b92600160a060020a039092169163e423918e91610a2791859101611e50565b602060405180830381600087803b158015610a4157600080fd5b505af1158015610a55573d6000803e3d6000fd5b505050506040513d601f19601f82011682018060405250610a7991908101906118a3565b1515610a8457600080fd5b6004805460405160e160020a6303e149c3028152600160a060020a03909116916307c2938691610ab8918f918e9101611e61565b602060405180830381600087803b158015610ad257600080fd5b505af1158015610ae6573d6000803e3d6000fd5b505050506040513d601f19601f82011682018060405250610b0a91908101906118a3565b1515610b1557600080fd5b6004805460405160e160020a6303e149c3028152600160a060020a03909116916307c2938691610b49918e918e9101611e61565b602060405180830381600087803b158015610b6357600080fd5b505af1158015610b77573d6000803e3d6000fd5b505050506040513d601f19601f82011682018060405250610b9b91908101906118a3565b1515610ba657600080fd5b60408b01515151600160a060020a038981169116148015610bcf575060408b0151516020015187145b80610c04575060408b01516020015151600160a060020a038981169116148015610c0457508a60400151602001516020015187145b1515610c0f57600080fd5b60408a01515151600160a060020a038981169116148015610c38575060408a0151516020015187145b80610c6d575060408a01516020015151600160a060020a038981169116148015610c6d57508960400151602001516020015187145b1515610c7857600080fd5b8a6080015160200151600160a060020a031689600160a060020a031614610ca0576001610ca3565b60005b9550896080015160200151600160a060020a031689600160a060020a031614610ccd576001610cd0565b60005b9450600460009054906101000a9004600160a060020a0316600160a060020a0316633746fe3e8c888d896040518563ffffffff1660e060020a028152600401610d1c9493929190611ee7565b602060405180830381600087803b158015610d3657600080fd5b505af1158015610d4a573d6000803e3d6000fd5b505050506040513d601f19601f82011682018060405250610d6e91908101906118a3565b1515610d7957600080fd5b60408b01515151600160a060020a038981169116148015610da2575060408b0151516020015187145b610dad576001610db0565b60005b60408b01515151909450600160a060020a038981169116148015610ddc575060408a0151516020015187145b610de7576001610dea565b60005b9250600460009054906101000a9004600160a060020a0316600160a060020a0316637676a1728c88878e8a896040518763ffffffff1660e060020a028152600401610e3a96959493929190611e81565b602060405180830381600087803b158015610e5457600080fd5b505af1158015610e68573d6000803e3d6000fd5b505050506040513d601f19601f82011682018060405250610e8c91908101906118a3565b8015610f2f5750600460009054906101000a9004600160a060020a0316600160a060020a031663091081378c888d896040518563ffffffff1660e060020a028152600401610edd9493929190611ee7565b602060405180830381600087803b158015610ef757600080fd5b505af1158015610f0b573d6000803e3d6000fd5b505050506040513d601f19601f82011682018060405250610f2f91908101906118a3565b15610f3957600080fd5b600360009054906101000a9004600160a060020a0316600160a060020a031663f8e6e8886040518163ffffffff1660e060020a028152600401600060405180830381600087803b158015610f8c57600080fd5b505af1158015610fa0573d6000803e3d6000fd5b505060025460e08d01515160405160e060020a6375d8655b028152600160a060020a0390921693506375d8655b9250610fdb91600401611de4565b600060405180830381600087803b158015610ff557600080fd5b505af1158015611009573d6000803e3d6000fd5b50506005546003546040805160e060020a639699f3370281529051600160a060020a03938416955063760b82929450339390921691639699f337916004808201926020929091908290030181600087803b15801561106657600080fd5b505af115801561107a573d6000803e3d6000fd5b505050506040513d601f19601f8201168201806040525061109e9190810190611981565b60006040518463ffffffff1660e060020a0281526004016110c193929190611dae565b600060405180830381600087803b1580156110db57600080fd5b505af11580156110ef573d6000803e3d6000fd5b5050600654600160a060020a031691506353d3b39390508a336111138e8a896112a2565b8c8c6040518663ffffffff1660e060020a028152600401611138959493929190611d62565b600060405180830381600087803b15801561115257600080fd5b505af1158015611166573d6000803e3d6000fd5b50505060e0808d015151908c0151516040517f5ef318228204743db4562de9d5ca7ea63765f21f9e28208d8b3375c0be510bc493506111aa92919033908e90611df2565b60405180910390a15050505050505050505050565b60006111c9611325565b15156111d457600080fd5b81600160a060020a03811615156111ea57600080fd5b600160a060020a03811630141561120057600080fd5b600154600160a060020a038481169116146108c15760018054600160a060020a03858116600160a060020a0319831617909255604051911692507f9f611b789425d0d5b90b920f1b2852907dd865c80074a30b1629aaa041d1812c906108b89084908690611d47565b6000546101009004600160a060020a031681565b600654600160a060020a031681565b6000546101009004600160a060020a0316331490565b60008260018111156112b057fe5b15156112ed578160018111156112c257fe5b15156112d95750608083015160a00151515161131e565b50608083015160a00151602001515161131e565b8160018111156112f957fe5b151561130f575060a0808401510151515161131e565b5060a080840151015160200151515b9392505050565b600154600160a060020a0316331490565b600061131e8235611f78565b6000601f8201831361135357600080fd5b813561136661136182611f4e565b611f28565b9150818183526020840193506020810190508385608084028201111561138b57600080fd5b60005b838110156113b957816113a18882611515565b8452506020909201916080919091019060010161138e565b5050505092915050565b600061131e8251611f84565b600061131e8235611f89565b600061131e8235611fa2565b600061131e8235611fad565b60006040828403121561140557600080fd5b61140f6040611f28565b9050600061141d8484611336565b825250602061142e848483016113cf565b60208301525092915050565b60006040828403121561144c57600080fd5b6114566040611f28565b9050600061141d84846113cf565b60006060828403121561147657600080fd5b6114806040611f28565b9050600061148e84846113cf565b825250602061142e848483016113f3565b6000608082840312156114b157600080fd5b6114bb6040611f28565b905060006114c984846113f3565b825250604061142e848483016113f3565b6000608082840312156114ec57600080fd5b6114f66040611f28565b90506000611504848461143a565b825250604061142e8484830161143a565b60006080828403121561152757600080fd5b6115316040611f28565b9050600061153f84846113cf565b825250602061142e84848301611464565b60006080828403121561156257600080fd5b61156c6040611f28565b9050600061157a84846113cf565b825250602061142e8484830160006060828403121561159857600080fd5b6115a26060611f28565b905060006115b084846113cf565b82525060206115c1848483016113cf565b60208301525060406115d584828501611871565b60408301525092915050565b6000608082840312156115f357600080fd5b6115fd6040611f28565b9050600061160b8484611464565b82525060608201356001604060020a0381111561162757600080fd5b61142e84828501611342565b600060a0828403121561164557600080fd5b61164f6060611f28565b9050600061165d84846113cf565b825250602061166e8484830161143a565b60208301525060606115d58482850161143a565b60006101c0828403121561169557600080fd5b61169f60e0611f28565b905060006116ad84846113cf565b82525060206116be84848301611336565b60208301525060406116d2848285016113cf565b60408301525060606116e6848285016113e7565b60608301525060806116fa84828501611633565b60808301525061012061170f848285016114da565b60a0830152506101a08201356001604060020a0381111561172f57600080fd5b61173b848285016115e1565b60c08301525092915050565b6000610260828403121561175a57600080fd5b611765610140611f28565b9050600061177384846113cf565b8252506020611784848483016113cf565b60208301525060406117988482850161149f565b60408301525060c06117ac848285016113cf565b60608301525060e08201356001604060020a038111156117cb57600080fd5b6117d784828501611682565b6080830152506101008201356001604060020a038111156117f757600080fd5b61180384828501611682565b60a083015250610120611818848285016114da565b60c0830152506101a061182d84828501611550565b60e083015250610220611842848285016113cf565b61010083015250610240611858848285016113cf565b6101208301525092915050565b600061131e8251611f89565b600061131e8235611f9c565b60006020828403121561188f57600080fd5b600061189b8484611336565b949350505050565b6000602082840312156118b557600080fd5b600061189b84846113c3565b6000602082840312156118d357600080fd5b600061189b84846113db565b600080600080600060a086880312156118f757600080fd5b85356001604060020a0381111561190d57600080fd5b61191988828901611747565b95505060208601356001604060020a0381111561193557600080fd5b61194188828901611747565b945050604061195288828901611336565b935050606061196388828901611336565b9250506080611974888289016113cf565b9150509295509295909350565b60006020828403121561199357600080fd5b600061189b8484611865565b6119a881611f78565b82525050565b60006119b982611f74565b8084526020840193506119cb83611f6e565b60005b828110156119fb576119e1868351611ad9565b6119ea82611f6e565b6080969096019591506001016119ce565b5093949350505050565b6119a881611f84565b6119a881611f89565b6119a881611fa2565b6119a881611fbc565b6119a881611fc7565b80516040830190611a43848261199f565b506020820151611a566020850182611a0e565b50505050565b80516040830190611a438482611a0e565b80516060830190611a7e8482611a0e565b506020820151611a566020850182611a32565b80516080830190611aa28482611a32565b506020820151611a566040850182611a32565b80516080830190611ac68482611a5c565b506020820151611a566040850182611a5c565b80516080830190611aea8482611a0e565b506020820151611a566020850182611a6d565b80516080830190611b0e8482611a0e565b506020820151611a56602085018280516060830190611b2d8482611a0e565b506020820151611b406020850182611a0e565b506040820151611a566040850182611d2a565b80516000906080840190611b678582611a6d565b5060208301518482036060860152611b7f82826119ae565b95945050505050565b805160a0830190611b998482611a0e565b506020820151611bac6020850182611a5c565b506040820151611a566060850182611a5c565b80516000906101c0840190611bd48582611a0e565b506020830151611be7602086018261199f565b506040830151611bfa6040860182611a0e565b506060830151611c0d6060860182611a20565b506080830151611c206080860182611b88565b5060a0830151611c34610120860182611ab5565b5060c08301518482036101a0860152611b7f8282611b53565b8051600090610260840190611c628582611a0e565b506020830151611c756020860182611a0e565b506040830151611c886040860182611a91565b506060830151611c9b60c0860182611a0e565b50608083015184820360e0860152611cb38282611bbf565b91505060a0830151848203610100860152611cce8282611bbf565b91505060c0830151611ce4610120860182611ab5565b5060e0830151611cf86101a0860182611afd565b50610100830151611d0d610220860182611a0e565b50610120830151611d22610240860182611a0e565b509392505050565b6119a881611f9c565b60208101611d41828461199f565b92915050565b60408101611d55828561199f565b61131e602083018461199f565b60a08101611d70828861199f565b611d7d602083018761199f565b611d8a6040830186611a0e565b611d97606083018561199f565b611da46080830184611a0e565b9695505050505050565b60608101611dbc828661199f565b611dc96020830185611a0e565b61189b6040830184611a29565b60208101611d418284611a05565b60208101611d418284611a0e565b60808101611e008287611a0e565b611e0d6020830186611a0e565b611e1a604083018561199f565b611b7f606083018461199f565b60208101611d418284611a17565b60408101611e438285611a17565b61131e6020830184611a17565b6020808252810161131e8184611c4d565b60408082528101611e728185611c4d565b905061131e602083018461199f565b60c08082528101611e928189611c4d565b9050611ea16020830188611a20565b611eae6040830187611a20565b8181036060830152611ec08186611c4d565b9050611ecf6080830185611a20565b611edc60a0830184611a20565b979650505050505050565b60808082528101611ef88187611c4d565b9050611f076020830186611a20565b8181036040830152611f198185611c4d565b9050611b7f6060830184611a20565b6040518181016001604060020a0381118282101715611f4657600080fd5b604052919050565b60006001604060020a03821115611f6457600080fd5b5060209081020190565b60200190565b5190565b600160a060020a031690565b151590565b90565b600060028210611f9857fe5b5090565b60ff1690565b6000611d4182611f78565b600060028210611f9857600080fd5b6000611d4182611f8c565b6000611d4182611f895600a265627a7a72305820ab7dfe72efab0be51d432bac0c9b312ada4770846a66527079bd8cbbf1f919356c6578706572696d656e74616cf50037",
  "source": "/*\n * Hubii Nahmii\n *\n * Compliant with the Hubii Nahmii specification v0.12.\n *\n * Copyright (C) 2017-2018 Hubii AS\n */\n\npragma solidity ^0.4.25;\npragma experimental ABIEncoderV2;\n\nimport {Ownable} from \"./Ownable.sol\";\nimport {FraudChallengable} from \"./FraudChallengable.sol\";\nimport {Challenge} from \"./Challenge.sol\";\nimport {Validatable} from \"./Validatable.sol\";\nimport {SecurityBondable} from \"./SecurityBondable.sol\";\nimport {WalletLockable} from \"./WalletLockable.sol\";\nimport {NahmiiTypesLib} from \"./NahmiiTypesLib.sol\";\nimport {SafeMathIntLib} from \"./SafeMathIntLib.sol\";\n\n/**\n * @title FraudChallengeBySuccessiveTrades\n * @notice Where driips are challenged wrt fraud by mismatch in successive trades\n */\ncontract FraudChallengeBySuccessiveTrades is Ownable, FraudChallengable, Challenge, Validatable,\nSecurityBondable, WalletLockable {\n    using SafeMathIntLib for int256;\n\n    //\n    // Events\n    // -----------------------------------------------------------------------------------------------------------------\n    event ChallengeBySuccessiveTradesEvent(bytes32 firstTradeHash, bytes32 lastTradeHash,\n        address challenger, address lockedWallet);\n\n    //\n    // Constructor\n    // -----------------------------------------------------------------------------------------------------------------\n    constructor(address deployer) Ownable(deployer) public {\n    }\n\n    //\n    // Functions\n    // -----------------------------------------------------------------------------------------------------------------\n    /// @notice Submit two trade candidates in continuous Fraud Challenge (FC)\n    /// to be tested for succession differences\n    /// @param firstTrade Reference trade\n    /// @param lastTrade Fraudulent trade candidate\n    /// @param wallet The address of the concerned wallet\n    /// @param currencyCt The address of the concerned currency contract (address(0) == ETH)\n    /// @param currencyId The ID of the concerned currency (0 for ETH and ERC20)\n    function challenge(\n        NahmiiTypesLib.Trade firstTrade,\n        NahmiiTypesLib.Trade lastTrade,\n        address wallet,\n        address currencyCt,\n        uint256 currencyId\n    )\n    public\n    onlyOperationalModeNormal\n    onlySealedTrade(firstTrade)\n    onlySealedTrade(lastTrade)\n    {\n        require(validator.isTradeParty(firstTrade, wallet));\n        require(validator.isTradeParty(lastTrade, wallet));\n        require(\n            (currencyCt == firstTrade.currencies.intended.ct && currencyId == firstTrade.currencies.intended.id) ||\n            (currencyCt == firstTrade.currencies.conjugate.ct && currencyId == firstTrade.currencies.conjugate.id)\n        );\n        require(\n            (currencyCt == lastTrade.currencies.intended.ct && currencyId == lastTrade.currencies.intended.id) ||\n            (currencyCt == lastTrade.currencies.conjugate.ct && currencyId == lastTrade.currencies.conjugate.id)\n        );\n\n        NahmiiTypesLib.TradePartyRole firstTradePartyRole = (wallet == firstTrade.buyer.wallet ? NahmiiTypesLib.TradePartyRole.Buyer : NahmiiTypesLib.TradePartyRole.Seller);\n        NahmiiTypesLib.TradePartyRole lastTradePartyRole = (wallet == lastTrade.buyer.wallet ? NahmiiTypesLib.TradePartyRole.Buyer : NahmiiTypesLib.TradePartyRole.Seller);\n\n        require(validator.isSuccessiveTradesPartyNonces(firstTrade, firstTradePartyRole, lastTrade, lastTradePartyRole));\n\n        NahmiiTypesLib.CurrencyRole firstTradeCurrencyRole = (currencyCt == firstTrade.currencies.intended.ct && currencyId == firstTrade.currencies.intended.id ? NahmiiTypesLib.CurrencyRole.Intended : NahmiiTypesLib.CurrencyRole.Conjugate);\n        NahmiiTypesLib.CurrencyRole lastTradeCurrencyRole = (currencyCt == lastTrade.currencies.intended.ct && currencyId == lastTrade.currencies.intended.id ? NahmiiTypesLib.CurrencyRole.Intended : NahmiiTypesLib.CurrencyRole.Conjugate);\n\n        // Require existence of fraud signal\n        require(!(\n            (validator.isGenuineSuccessiveTradesBalances(firstTrade, firstTradePartyRole, firstTradeCurrencyRole, lastTrade, lastTradePartyRole, lastTradeCurrencyRole)) &&\n            (validator.isGenuineSuccessiveTradesTotalFees(firstTrade, firstTradePartyRole, lastTrade, lastTradePartyRole))\n        ));\n\n        // Toggle operational mode exit\n        configuration.setOperationalModeExit();\n\n        // Tag last trade (hash) as fraudulent\n        fraudChallenge.addFraudulentTradeHash(lastTrade.seal.hash);\n\n        // Reward stake fraction\n        securityBond.rewardFractional(msg.sender, configuration.fraudStakeFraction(), 0);\n\n        // Lock amount of size equivalent to wallet's balance of intended or conjugate currencies\n        walletLocker.lockFungibleByProxy(\n            wallet, msg.sender,\n            _tradeLockAmount(lastTrade, lastTradePartyRole, lastTradeCurrencyRole),\n            currencyCt, currencyId\n        );\n\n        // Emit event\n        emit ChallengeBySuccessiveTradesEvent(\n            firstTrade.seal.hash, lastTrade.seal.hash, msg.sender, wallet\n        );\n    }\n\n    //\n    // Private functions\n    // -----------------------------------------------------------------------------------------------------------------\n    function _tradeLockAmount(NahmiiTypesLib.Trade trade, NahmiiTypesLib.TradePartyRole tradePartyRole,\n        NahmiiTypesLib.CurrencyRole currencyRole)\n    private\n    pure\n    returns (int256)\n    {\n        if (NahmiiTypesLib.TradePartyRole.Buyer == tradePartyRole)\n            if (NahmiiTypesLib.CurrencyRole.Intended == currencyRole)\n                return trade.buyer.balances.intended.current;\n            else // NahmiiTypesLib.CurrencyRole.Conjugate == currencyRole\n                return trade.buyer.balances.conjugate.current;\n        else // NahmiiTypesLib.TradePartyRole.Seller == tradePartyRole)\n            if (NahmiiTypesLib.CurrencyRole.Intended == currencyRole)\n                return trade.seller.balances.intended.current;\n            else // NahmiiTypesLib.CurrencyRole.Conjugate == currencyRole\n                return trade.seller.balances.conjugate.current;\n    }\n}",
  "sourcePath": "/opt/buildagent/work/855e104608380c36/contracts/FraudChallengeBySuccessiveTrades.sol",
  "compiler": {
    "name": "solc",
    "version": "0.4.25+commit.59dbf8f1.Emscripten.clang"
  },
  "schemaVersion": "2.0.1",
  "updatedAt": "2019-01-31T11:28:29.622Z"
}