{
  "contractName": "FraudChallengeByTradeOrderResiduals",
  "abi": [
    {
      "constant": false,
      "inputs": [
        {
          "name": "newFraudChallenge",
          "type": "address"
        }
      ],
      "name": "setFraudChallenge",
      "outputs": [],
      "payable": false,
      "stateMutability": "nonpayable",
      "type": "function"
    },
    {
      "constant": false,
      "inputs": [
        {
          "name": "newValidator",
          "type": "address"
        }
      ],
      "name": "setValidator",
      "outputs": [],
      "payable": false,
      "stateMutability": "nonpayable",
      "type": "function"
    },
    {
      "constant": true,
      "inputs": [],
      "name": "walletLockerFrozen",
      "outputs": [
        {
          "name": "",
          "type": "bool"
        }
      ],
      "payable": false,
      "stateMutability": "view",
      "type": "function"
    },
    {
      "constant": false,
      "inputs": [],
      "name": "triggerSelfDestruction",
      "outputs": [],
      "payable": false,
      "stateMutability": "nonpayable",
      "type": "function"
    },
    {
      "constant": true,
      "inputs": [],
      "name": "selfDestructionDisabled",
      "outputs": [
        {
          "name": "",
          "type": "bool"
        }
      ],
      "payable": false,
      "stateMutability": "view",
      "type": "function"
    },
    {
      "constant": true,
      "inputs": [],
      "name": "validator",
      "outputs": [
        {
          "name": "",
          "type": "address"
        }
      ],
      "payable": false,
      "stateMutability": "view",
      "type": "function"
    },
    {
      "constant": true,
      "inputs": [],
      "name": "fraudChallenge",
      "outputs": [
        {
          "name": "",
          "type": "address"
        }
      ],
      "payable": false,
      "stateMutability": "view",
      "type": "function"
    },
    {
      "constant": true,
      "inputs": [],
      "name": "destructor",
      "outputs": [
        {
          "name": "",
          "type": "address"
        }
      ],
      "payable": false,
      "stateMutability": "view",
      "type": "function"
    },
    {
      "constant": true,
      "inputs": [],
      "name": "operator",
      "outputs": [
        {
          "name": "",
          "type": "address"
        }
      ],
      "payable": false,
      "stateMutability": "view",
      "type": "function"
    },
    {
      "constant": false,
      "inputs": [],
      "name": "freezeWalletLocker",
      "outputs": [],
      "payable": false,
      "stateMutability": "nonpayable",
      "type": "function"
    },
    {
      "constant": false,
      "inputs": [
        {
          "name": "newConfiguration",
          "type": "address"
        }
      ],
      "name": "setConfiguration",
      "outputs": [],
      "payable": false,
      "stateMutability": "nonpayable",
      "type": "function"
    },
    {
      "constant": false,
      "inputs": [
        {
          "name": "newSecurityBond",
          "type": "address"
        }
      ],
      "name": "setSecurityBond",
      "outputs": [],
      "payable": false,
      "stateMutability": "nonpayable",
      "type": "function"
    },
    {
      "constant": true,
      "inputs": [],
      "name": "securityBond",
      "outputs": [
        {
          "name": "",
          "type": "address"
        }
      ],
      "payable": false,
      "stateMutability": "view",
      "type": "function"
    },
    {
      "constant": true,
      "inputs": [],
      "name": "configuration",
      "outputs": [
        {
          "name": "",
          "type": "address"
        }
      ],
      "payable": false,
      "stateMutability": "view",
      "type": "function"
    },
    {
      "constant": false,
      "inputs": [],
      "name": "disableSelfDestruction",
      "outputs": [],
      "payable": false,
      "stateMutability": "nonpayable",
      "type": "function"
    },
    {
      "constant": false,
      "inputs": [
        {
          "name": "newWalletLocker",
          "type": "address"
        }
      ],
      "name": "setWalletLocker",
      "outputs": [],
      "payable": false,
      "stateMutability": "nonpayable",
      "type": "function"
    },
    {
      "constant": false,
      "inputs": [
        {
          "name": "newDeployer",
          "type": "address"
        }
      ],
      "name": "setDeployer",
      "outputs": [],
      "payable": false,
      "stateMutability": "nonpayable",
      "type": "function"
    },
    {
      "constant": false,
      "inputs": [
        {
          "name": "newOperator",
          "type": "address"
        }
      ],
      "name": "setOperator",
      "outputs": [],
      "payable": false,
      "stateMutability": "nonpayable",
      "type": "function"
    },
    {
      "constant": true,
      "inputs": [],
      "name": "deployer",
      "outputs": [
        {
          "name": "",
          "type": "address"
        }
      ],
      "payable": false,
      "stateMutability": "view",
      "type": "function"
    },
    {
      "constant": true,
      "inputs": [],
      "name": "walletLocker",
      "outputs": [
        {
          "name": "",
          "type": "address"
        }
      ],
      "payable": false,
      "stateMutability": "view",
      "type": "function"
    },
    {
      "inputs": [
        {
          "name": "deployer",
          "type": "address"
        }
      ],
      "payable": false,
      "stateMutability": "nonpayable",
      "type": "constructor"
    },
    {
      "anonymous": false,
      "inputs": [
        {
          "indexed": false,
          "name": "firstTradeHash",
          "type": "bytes32"
        },
        {
          "indexed": false,
          "name": "lastTradeHash",
          "type": "bytes32"
        },
        {
          "indexed": false,
          "name": "challenger",
          "type": "address"
        },
        {
          "indexed": false,
          "name": "lockedWallet",
          "type": "address"
        }
      ],
      "name": "ChallengeByTradeOrderResidualsEvent",
      "type": "event"
    },
    {
      "anonymous": false,
      "inputs": [
        {
          "indexed": false,
          "name": "oldWalletLocker",
          "type": "address"
        },
        {
          "indexed": false,
          "name": "newWalletLocker",
          "type": "address"
        }
      ],
      "name": "SetWalletLockerEvent",
      "type": "event"
    },
    {
      "anonymous": false,
      "inputs": [],
      "name": "FreezeWalletLockerEvent",
      "type": "event"
    },
    {
      "anonymous": false,
      "inputs": [
        {
          "indexed": false,
          "name": "oldSecurityBond",
          "type": "address"
        },
        {
          "indexed": false,
          "name": "newSecurityBond",
          "type": "address"
        }
      ],
      "name": "SetSecurityBondEvent",
      "type": "event"
    },
    {
      "anonymous": false,
      "inputs": [
        {
          "indexed": false,
          "name": "oldValidator",
          "type": "address"
        },
        {
          "indexed": false,
          "name": "newValidator",
          "type": "address"
        }
      ],
      "name": "SetValidatorEvent",
      "type": "event"
    },
    {
      "anonymous": false,
      "inputs": [
        {
          "indexed": false,
          "name": "oldConfiguration",
          "type": "address"
        },
        {
          "indexed": false,
          "name": "newConfiguration",
          "type": "address"
        }
      ],
      "name": "SetConfigurationEvent",
      "type": "event"
    },
    {
      "anonymous": false,
      "inputs": [
        {
          "indexed": false,
          "name": "oldFraudChallenge",
          "type": "address"
        },
        {
          "indexed": false,
          "name": "newFraudChallenge",
          "type": "address"
        }
      ],
      "name": "SetFraudChallengeEvent",
      "type": "event"
    },
    {
      "anonymous": false,
      "inputs": [
        {
          "indexed": false,
          "name": "oldDeployer",
          "type": "address"
        },
        {
          "indexed": false,
          "name": "newDeployer",
          "type": "address"
        }
      ],
      "name": "SetDeployerEvent",
      "type": "event"
    },
    {
      "anonymous": false,
      "inputs": [
        {
          "indexed": false,
          "name": "oldOperator",
          "type": "address"
        },
        {
          "indexed": false,
          "name": "newOperator",
          "type": "address"
        }
      ],
      "name": "SetOperatorEvent",
      "type": "event"
    },
    {
      "anonymous": false,
      "inputs": [
        {
          "indexed": false,
          "name": "wallet",
          "type": "address"
        }
      ],
      "name": "SelfDestructionDisabledEvent",
      "type": "event"
    },
    {
      "anonymous": false,
      "inputs": [
        {
          "indexed": false,
          "name": "wallet",
          "type": "address"
        }
      ],
      "name": "TriggerSelfDestructionEvent",
      "type": "event"
    },
    {
      "constant": false,
      "inputs": [
        {
          "components": [
            {
              "name": "nonce",
              "type": "uint256"
            },
            {
              "name": "amount",
              "type": "int256"
            },
            {
              "components": [
                {
                  "components": [
                    {
                      "name": "ct",
                      "type": "address"
                    },
                    {
                      "name": "id",
                      "type": "uint256"
                    }
                  ],
                  "name": "intended",
                  "type": "tuple"
                },
                {
                  "components": [
                    {
                      "name": "ct",
                      "type": "address"
                    },
                    {
                      "name": "id",
                      "type": "uint256"
                    }
                  ],
                  "name": "conjugate",
                  "type": "tuple"
                }
              ],
              "name": "currencies",
              "type": "tuple"
            },
            {
              "name": "rate",
              "type": "int256"
            },
            {
              "components": [
                {
                  "name": "nonce",
                  "type": "uint256"
                },
                {
                  "name": "wallet",
                  "type": "address"
                },
                {
                  "name": "rollingVolume",
                  "type": "uint256"
                },
                {
                  "name": "liquidityRole",
                  "type": "uint8"
                },
                {
                  "components": [
                    {
                      "name": "amount",
                      "type": "int256"
                    },
                    {
                      "components": [
                        {
                          "name": "wallet",
                          "type": "bytes32"
                        },
                        {
                          "name": "operator",
                          "type": "bytes32"
                        }
                      ],
                      "name": "hashes",
                      "type": "tuple"
                    },
                    {
                      "components": [
                        {
                          "name": "current",
                          "type": "int256"
                        },
                        {
                          "name": "previous",
                          "type": "int256"
                        }
                      ],
                      "name": "residuals",
                      "type": "tuple"
                    }
                  ],
                  "name": "order",
                  "type": "tuple"
                },
                {
                  "components": [
                    {
                      "components": [
                        {
                          "name": "current",
                          "type": "int256"
                        },
                        {
                          "name": "previous",
                          "type": "int256"
                        }
                      ],
                      "name": "intended",
                      "type": "tuple"
                    },
                    {
                      "components": [
                        {
                          "name": "current",
                          "type": "int256"
                        },
                        {
                          "name": "previous",
                          "type": "int256"
                        }
                      ],
                      "name": "conjugate",
                      "type": "tuple"
                    }
                  ],
                  "name": "balances",
                  "type": "tuple"
                },
                {
                  "components": [
                    {
                      "components": [
                        {
                          "name": "amount",
                          "type": "int256"
                        },
                        {
                          "components": [
                            {
                              "name": "ct",
                              "type": "address"
                            },
                            {
                              "name": "id",
                              "type": "uint256"
                            }
                          ],
                          "name": "currency",
                          "type": "tuple"
                        }
                      ],
                      "name": "single",
                      "type": "tuple"
                    },
                    {
                      "components": [
                        {
                          "name": "originId",
                          "type": "uint256"
                        },
                        {
                          "components": [
                            {
                              "name": "amount",
                              "type": "int256"
                            },
                            {
                              "components": [
                                {
                                  "name": "ct",
                                  "type": "address"
                                },
                                {
                                  "name": "id",
                                  "type": "uint256"
                                }
                              ],
                              "name": "currency",
                              "type": "tuple"
                            }
                          ],
                          "name": "figure",
                          "type": "tuple"
                        }
                      ],
                      "name": "total",
                      "type": "tuple[]"
                    }
                  ],
                  "name": "fees",
                  "type": "tuple"
                }
              ],
              "name": "buyer",
              "type": "tuple"
            },
            {
              "components": [
                {
                  "name": "nonce",
                  "type": "uint256"
                },
                {
                  "name": "wallet",
                  "type": "address"
                },
                {
                  "name": "rollingVolume",
                  "type": "uint256"
                },
                {
                  "name": "liquidityRole",
                  "type": "uint8"
                },
                {
                  "components": [
                    {
                      "name": "amount",
                      "type": "int256"
                    },
                    {
                      "components": [
                        {
                          "name": "wallet",
                          "type": "bytes32"
                        },
                        {
                          "name": "operator",
                          "type": "bytes32"
                        }
                      ],
                      "name": "hashes",
                      "type": "tuple"
                    },
                    {
                      "components": [
                        {
                          "name": "current",
                          "type": "int256"
                        },
                        {
                          "name": "previous",
                          "type": "int256"
                        }
                      ],
                      "name": "residuals",
                      "type": "tuple"
                    }
                  ],
                  "name": "order",
                  "type": "tuple"
                },
                {
                  "components": [
                    {
                      "components": [
                        {
                          "name": "current",
                          "type": "int256"
                        },
                        {
                          "name": "previous",
                          "type": "int256"
                        }
                      ],
                      "name": "intended",
                      "type": "tuple"
                    },
                    {
                      "components": [
                        {
                          "name": "current",
                          "type": "int256"
                        },
                        {
                          "name": "previous",
                          "type": "int256"
                        }
                      ],
                      "name": "conjugate",
                      "type": "tuple"
                    }
                  ],
                  "name": "balances",
                  "type": "tuple"
                },
                {
                  "components": [
                    {
                      "components": [
                        {
                          "name": "amount",
                          "type": "int256"
                        },
                        {
                          "components": [
                            {
                              "name": "ct",
                              "type": "address"
                            },
                            {
                              "name": "id",
                              "type": "uint256"
                            }
                          ],
                          "name": "currency",
                          "type": "tuple"
                        }
                      ],
                      "name": "single",
                      "type": "tuple"
                    },
                    {
                      "components": [
                        {
                          "name": "originId",
                          "type": "uint256"
                        },
                        {
                          "components": [
                            {
                              "name": "amount",
                              "type": "int256"
                            },
                            {
                              "components": [
                                {
                                  "name": "ct",
                                  "type": "address"
                                },
                                {
                                  "name": "id",
                                  "type": "uint256"
                                }
                              ],
                              "name": "currency",
                              "type": "tuple"
                            }
                          ],
                          "name": "figure",
                          "type": "tuple"
                        }
                      ],
                      "name": "total",
                      "type": "tuple[]"
                    }
                  ],
                  "name": "fees",
                  "type": "tuple"
                }
              ],
              "name": "seller",
              "type": "tuple"
            },
            {
              "components": [
                {
                  "components": [
                    {
                      "name": "single",
                      "type": "int256"
                    },
                    {
                      "name": "total",
                      "type": "int256"
                    }
                  ],
                  "name": "intended",
                  "type": "tuple"
                },
                {
                  "components": [
                    {
                      "name": "single",
                      "type": "int256"
                    },
                    {
                      "name": "total",
                      "type": "int256"
                    }
                  ],
                  "name": "conjugate",
                  "type": "tuple"
                }
              ],
              "name": "transfers",
              "type": "tuple"
            },
            {
              "components": [
                {
                  "name": "hash",
                  "type": "bytes32"
                },
                {
                  "components": [
                    {
                      "name": "r",
                      "type": "bytes32"
                    },
                    {
                      "name": "s",
                      "type": "bytes32"
                    },
                    {
                      "name": "v",
                      "type": "uint8"
                    }
                  ],
                  "name": "signature",
                  "type": "tuple"
                }
              ],
              "name": "seal",
              "type": "tuple"
            },
            {
              "name": "blockNumber",
              "type": "uint256"
            },
            {
              "name": "operatorId",
              "type": "uint256"
            }
          ],
          "name": "firstTrade",
          "type": "tuple"
        },
        {
          "components": [
            {
              "name": "nonce",
              "type": "uint256"
            },
            {
              "name": "amount",
              "type": "int256"
            },
            {
              "components": [
                {
                  "components": [
                    {
                      "name": "ct",
                      "type": "address"
                    },
                    {
                      "name": "id",
                      "type": "uint256"
                    }
                  ],
                  "name": "intended",
                  "type": "tuple"
                },
                {
                  "components": [
                    {
                      "name": "ct",
                      "type": "address"
                    },
                    {
                      "name": "id",
                      "type": "uint256"
                    }
                  ],
                  "name": "conjugate",
                  "type": "tuple"
                }
              ],
              "name": "currencies",
              "type": "tuple"
            },
            {
              "name": "rate",
              "type": "int256"
            },
            {
              "components": [
                {
                  "name": "nonce",
                  "type": "uint256"
                },
                {
                  "name": "wallet",
                  "type": "address"
                },
                {
                  "name": "rollingVolume",
                  "type": "uint256"
                },
                {
                  "name": "liquidityRole",
                  "type": "uint8"
                },
                {
                  "components": [
                    {
                      "name": "amount",
                      "type": "int256"
                    },
                    {
                      "components": [
                        {
                          "name": "wallet",
                          "type": "bytes32"
                        },
                        {
                          "name": "operator",
                          "type": "bytes32"
                        }
                      ],
                      "name": "hashes",
                      "type": "tuple"
                    },
                    {
                      "components": [
                        {
                          "name": "current",
                          "type": "int256"
                        },
                        {
                          "name": "previous",
                          "type": "int256"
                        }
                      ],
                      "name": "residuals",
                      "type": "tuple"
                    }
                  ],
                  "name": "order",
                  "type": "tuple"
                },
                {
                  "components": [
                    {
                      "components": [
                        {
                          "name": "current",
                          "type": "int256"
                        },
                        {
                          "name": "previous",
                          "type": "int256"
                        }
                      ],
                      "name": "intended",
                      "type": "tuple"
                    },
                    {
                      "components": [
                        {
                          "name": "current",
                          "type": "int256"
                        },
                        {
                          "name": "previous",
                          "type": "int256"
                        }
                      ],
                      "name": "conjugate",
                      "type": "tuple"
                    }
                  ],
                  "name": "balances",
                  "type": "tuple"
                },
                {
                  "components": [
                    {
                      "components": [
                        {
                          "name": "amount",
                          "type": "int256"
                        },
                        {
                          "components": [
                            {
                              "name": "ct",
                              "type": "address"
                            },
                            {
                              "name": "id",
                              "type": "uint256"
                            }
                          ],
                          "name": "currency",
                          "type": "tuple"
                        }
                      ],
                      "name": "single",
                      "type": "tuple"
                    },
                    {
                      "components": [
                        {
                          "name": "originId",
                          "type": "uint256"
                        },
                        {
                          "components": [
                            {
                              "name": "amount",
                              "type": "int256"
                            },
                            {
                              "components": [
                                {
                                  "name": "ct",
                                  "type": "address"
                                },
                                {
                                  "name": "id",
                                  "type": "uint256"
                                }
                              ],
                              "name": "currency",
                              "type": "tuple"
                            }
                          ],
                          "name": "figure",
                          "type": "tuple"
                        }
                      ],
                      "name": "total",
                      "type": "tuple[]"
                    }
                  ],
                  "name": "fees",
                  "type": "tuple"
                }
              ],
              "name": "buyer",
              "type": "tuple"
            },
            {
              "components": [
                {
                  "name": "nonce",
                  "type": "uint256"
                },
                {
                  "name": "wallet",
                  "type": "address"
                },
                {
                  "name": "rollingVolume",
                  "type": "uint256"
                },
                {
                  "name": "liquidityRole",
                  "type": "uint8"
                },
                {
                  "components": [
                    {
                      "name": "amount",
                      "type": "int256"
                    },
                    {
                      "components": [
                        {
                          "name": "wallet",
                          "type": "bytes32"
                        },
                        {
                          "name": "operator",
                          "type": "bytes32"
                        }
                      ],
                      "name": "hashes",
                      "type": "tuple"
                    },
                    {
                      "components": [
                        {
                          "name": "current",
                          "type": "int256"
                        },
                        {
                          "name": "previous",
                          "type": "int256"
                        }
                      ],
                      "name": "residuals",
                      "type": "tuple"
                    }
                  ],
                  "name": "order",
                  "type": "tuple"
                },
                {
                  "components": [
                    {
                      "components": [
                        {
                          "name": "current",
                          "type": "int256"
                        },
                        {
                          "name": "previous",
                          "type": "int256"
                        }
                      ],
                      "name": "intended",
                      "type": "tuple"
                    },
                    {
                      "components": [
                        {
                          "name": "current",
                          "type": "int256"
                        },
                        {
                          "name": "previous",
                          "type": "int256"
                        }
                      ],
                      "name": "conjugate",
                      "type": "tuple"
                    }
                  ],
                  "name": "balances",
                  "type": "tuple"
                },
                {
                  "components": [
                    {
                      "components": [
                        {
                          "name": "amount",
                          "type": "int256"
                        },
                        {
                          "components": [
                            {
                              "name": "ct",
                              "type": "address"
                            },
                            {
                              "name": "id",
                              "type": "uint256"
                            }
                          ],
                          "name": "currency",
                          "type": "tuple"
                        }
                      ],
                      "name": "single",
                      "type": "tuple"
                    },
                    {
                      "components": [
                        {
                          "name": "originId",
                          "type": "uint256"
                        },
                        {
                          "components": [
                            {
                              "name": "amount",
                              "type": "int256"
                            },
                            {
                              "components": [
                                {
                                  "name": "ct",
                                  "type": "address"
                                },
                                {
                                  "name": "id",
                                  "type": "uint256"
                                }
                              ],
                              "name": "currency",
                              "type": "tuple"
                            }
                          ],
                          "name": "figure",
                          "type": "tuple"
                        }
                      ],
                      "name": "total",
                      "type": "tuple[]"
                    }
                  ],
                  "name": "fees",
                  "type": "tuple"
                }
              ],
              "name": "seller",
              "type": "tuple"
            },
            {
              "components": [
                {
                  "components": [
                    {
                      "name": "single",
                      "type": "int256"
                    },
                    {
                      "name": "total",
                      "type": "int256"
                    }
                  ],
                  "name": "intended",
                  "type": "tuple"
                },
                {
                  "components": [
                    {
                      "name": "single",
                      "type": "int256"
                    },
                    {
                      "name": "total",
                      "type": "int256"
                    }
                  ],
                  "name": "conjugate",
                  "type": "tuple"
                }
              ],
              "name": "transfers",
              "type": "tuple"
            },
            {
              "components": [
                {
                  "name": "hash",
                  "type": "bytes32"
                },
                {
                  "components": [
                    {
                      "name": "r",
                      "type": "bytes32"
                    },
                    {
                      "name": "s",
                      "type": "bytes32"
                    },
                    {
                      "name": "v",
                      "type": "uint8"
                    }
                  ],
                  "name": "signature",
                  "type": "tuple"
                }
              ],
              "name": "seal",
              "type": "tuple"
            },
            {
              "name": "blockNumber",
              "type": "uint256"
            },
            {
              "name": "operatorId",
              "type": "uint256"
            }
          ],
          "name": "lastTrade",
          "type": "tuple"
        },
        {
          "name": "wallet",
          "type": "address"
        }
      ],
      "name": "challenge",
      "outputs": [],
      "payable": false,
      "stateMutability": "nonpayable",
      "type": "function"
    }
  ],
  "bytecode": "0x60806040523480156200001157600080fd5b5060405160208062001fab8339810180604052620000339190810190620000b6565b8080600160a060020a03811615156200004b57600080fd5b600160a060020a0381163014156200006257600080fd5b506000805461010060a860020a031916610100600160a060020a039390931692830217905560018054600160a060020a031916909117905550620000eb565b6000620000af8251620000df565b9392505050565b600060208284031215620000c957600080fd5b6000620000d78484620000a1565b949350505050565b600160a060020a031690565b611eb080620000fb6000396000f3006080604052600436106101035763ffffffff60e060020a60003504166301370d0681146101085780631327d3d81461012a578063240625d81461014a5780632738a112146101755780632f013a001461018a5780633a5381b51461019f5780633bd7857f146101c15780634476d23b146101d6578063570ca735146101f85780635dc60def1461020d578063627f09c3146102225780636792ce6e146102425780636b0570d0146102625780636c70bee91461027757806370327ea11461028c578063892860b2146102a157806396214735146102c1578063b3ab15fb146102e1578063d5f3948814610301578063e8ae41e314610316578063ec8725f21461032b575b600080fd5b34801561011457600080fd5b506101286101233660046117b7565b61034b565b005b34801561013657600080fd5b506101286101453660046117b7565b6103f3565b34801561015657600080fd5b5061015f61048b565b60405161016c9190611cac565b60405180910390f35b34801561018157600080fd5b5061012861049b565b34801561019657600080fd5b5061015f610501565b3480156101ab57600080fd5b506101b461050a565b60405161016c9190611cfd565b3480156101cd57600080fd5b506101b4610519565b3480156101e257600080fd5b506101eb610528565b60405161016c9190611c01565b34801561020457600080fd5b506101eb61053c565b34801561021957600080fd5b5061012861054b565b34801561022e57600080fd5b5061012861023d3660046117b7565b61059f565b34801561024e57600080fd5b5061012861025d3660046117b7565b610637565b34801561026e57600080fd5b506101b46106cf565b34801561028357600080fd5b506101b46106de565b34801561029857600080fd5b506101286106ed565b3480156102ad57600080fd5b506101286102bc3660046117b7565b610750565b3480156102cd57600080fd5b506101286102dc366004611773565b6107ff565b3480156102ed57600080fd5b506101286102fc366004611773565b6108c6565b34801561030d57600080fd5b506101eb610970565b34801561032257600080fd5b506101b4610984565b34801561033757600080fd5b506101286103463660046117d5565b610993565b600061035561118c565b151561036057600080fd5b81600160a060020a038116151561037657600080fd5b6002548390600160a060020a0390811690821681146103ec5760028054600160a060020a03878116600160a060020a0319831617909255604051911694507f07998fa7be97abe2427246ae4688298c89d6196bbffdf0997b9495a8d27bc673906103e39086908890611d0b565b60405180910390a15b5050505050565b60006103fd61118c565b151561040857600080fd5b81600160a060020a038116151561041e57600080fd5b6004548390600160a060020a0390811690821681146103ec5760048054600160a060020a03878116600160a060020a0319831617909255604051911694507f1882af944a16549c3d4f60e3cd26f158b0c7aac3222cf32971fc21375ce05f60906103e39086908890611d0b565b60065460a060020a900460ff1681565b336104a4610528565b600160a060020a0316146104b757600080fd5b60005460ff16156104c757600080fd5b7f787a5d936e74f4b564b9153575886059829c78cd9927b1be5e0d976b317ef736336040516104f69190611c01565b60405180910390a133ff5b60005460ff1681565b600454600160a060020a031681565b600254600160a060020a031681565b6000546101009004600160a060020a031690565b600154600160a060020a031681565b61055361118c565b151561055e57600080fd5b6006805460a060020a60ff02191660a060020a1790556040517f56ec8900b9c4bf84f4b715a53068ca06961dd49084c07b481931e2c2045346e690600090a1565b60006105a961118c565b15156105b457600080fd5b81600160a060020a03811615156105ca57600080fd5b6003548390600160a060020a0390811690821681146103ec5760038054600160a060020a03878116600160a060020a0319831617909255604051911694507f634f61bf00e14adedce330c80c2823e16e184f189ebe853e1ddecc4a268477ff906103e39086908890611d0b565b600061064161118c565b151561064c57600080fd5b81600160a060020a038116151561066257600080fd5b6005548390600160a060020a0390811690821681146103ec5760058054600160a060020a03878116600160a060020a0319831617909255604051911694507fc9f3f00c1760fe26985aeacb814a21c56ea289d680562e89b249681b08c30382906103e39086908890611d0b565b600554600160a060020a031681565b600354600160a060020a031681565b336106f6610528565b600160a060020a03161461070957600080fd5b6000805460ff191660011790556040517fd5a2a04a775c741c2ca0dc46ea7ce4835190e1aaf1ca018def0e82568ec3361690610746903390611c01565b60405180910390a1565b600061075a61118c565b151561076557600080fd5b81600160a060020a038116151561077b57600080fd5b6006548390600160a060020a0390811690821681146103ec5760065460a060020a900460ff16156107ab57600080fd5b60068054600160a060020a03878116600160a060020a0319831617909255604051911694507fa44d361e26327b72a7ccbeae801b3c5cd7677ea4fa74168b289e273c46bfecfc906103e39086908890611d0b565b600061080961118c565b151561081457600080fd5b81600160a060020a038116151561082a57600080fd5b600160a060020a03811630141561084057600080fd5b600054600160a060020a0384811661010090920416146108c15760008054600160a060020a0385811661010090810261010060a860020a0319841617909355604051929091041692507f977e5fa58e458501775e0008d275006294c5249e3c08d1d0e3a9f3acad14f6e4906108b89084908690611c0f565b60405180910390a15b505050565b60006108d06111a2565b15156108db57600080fd5b81600160a060020a03811615156108f157600080fd5b600160a060020a03811630141561090757600080fd5b600154600160a060020a038481169116146108c15760018054600160a060020a03858116600160a060020a0319831617909255604051911692507f9f611b789425d0d5b90b920f1b2852907dd865c80074a30b1629aaa041d1812c906108b89084908690611c0f565b6000546101009004600160a060020a031681565b600654600160a060020a031681565b600080600360009054906101000a9004600160a060020a0316600160a060020a031663f71e860f6040518163ffffffff1660e060020a028152600401602060405180830381600087803b1580156109e957600080fd5b505af11580156109fd573d6000803e3d6000fd5b505050506040513d601f19601f82011682018060405250610a219190810190611799565b1515610a2c57600080fd5b6004805460405160e160020a637211c8c70281528792600160a060020a039092169163e423918e91610a6091859101611d26565b602060405180830381600087803b158015610a7a57600080fd5b505af1158015610a8e573d6000803e3d6000fd5b505050506040513d601f19601f82011682018060405250610ab29190810190611799565b1515610abd57600080fd5b6004805460405160e160020a637211c8c70281528792600160a060020a039092169163e423918e91610af191859101611d26565b602060405180830381600087803b158015610b0b57600080fd5b505af1158015610b1f573d6000803e3d6000fd5b505050506040513d601f19601f82011682018060405250610b439190810190611799565b1515610b4e57600080fd5b6004805460405160e160020a6303e149c3028152600160a060020a03909116916307c2938691610b82918b918a9101611d37565b602060405180830381600087803b158015610b9c57600080fd5b505af1158015610bb0573d6000803e3d6000fd5b505050506040513d601f19601f82011682018060405250610bd49190810190611799565b1515610bdf57600080fd5b6004805460405160e160020a6303e149c3028152600160a060020a03909116916307c2938691610c13918a918a9101611d37565b602060405180830381600087803b158015610c2d57600080fd5b505af1158015610c41573d6000803e3d6000fd5b505050506040513d601f19601f82011682018060405250610c659190810190611799565b1515610c7057600080fd5b866080015160200151600160a060020a031685600160a060020a031614610c98576001610c9b565b60005b9350856080015160200151600160a060020a031685600160a060020a031614610cc5576001610cc8565b60005b9250826001811115610cd657fe5b846001811115610ce257fe5b14610cec57600080fd5b836001811115610cf857fe5b1515610d285760808087015181015160209081015151898301519092015101515114610d2357600080fd5b610d50565b60a08087015160809081015160209081015151928a01519091015101515114610d5057600080fd5b6004805460405160e160020a631ba37f1f028152600160a060020a0390911691633746fe3e91610d88918b9189918c918a9101611d57565b602060405180830381600087803b158015610da257600080fd5b505af1158015610db6573d6000803e3d6000fd5b505050506040513d601f19601f82011682018060405250610dda9190810190611799565b1515610de557600080fd5b6004805460405160e260020a630c7ec789028152600160a060020a03909116916331fb1e2491610e1b918b918b918a9101611d98565b602060405180830381600087803b158015610e3557600080fd5b505af1158015610e49573d6000803e3d6000fd5b505050506040513d601f19601f82011682018060405250610e6d9190810190611799565b15610e7757600080fd5b600360009054906101000a9004600160a060020a0316600160a060020a031663f8e6e8886040518163ffffffff1660e060020a028152600401600060405180830381600087803b158015610eca57600080fd5b505af1158015610ede573d6000803e3d6000fd5b505060025460e08901515160405160e060020a6375d8655b028152600160a060020a0390921693506375d8655b9250610f1991600401611cba565b600060405180830381600087803b158015610f3357600080fd5b505af1158015610f47573d6000803e3d6000fd5b50506005546003546040805160e060020a639699f3370281529051600160a060020a03938416955063760b82929450339390921691639699f337916004808201926020929091908290030181600087803b158015610fa457600080fd5b505af1158015610fb8573d6000803e3d6000fd5b505050506040513d601f19601f82011682018060405250610fdc919081019061184f565b60006040518463ffffffff1660e060020a028152600401610fff93929190611c84565b600060405180830381600087803b15801561101957600080fd5b505af115801561102d573d6000803e3d6000fd5b5050600654600160a060020a03169150639a545322905086336110508a886111b3565b6040808c0151518051602090910151915160e060020a63ffffffff88160281526110839594939290600090600401611c2a565b600060405180830381600087803b15801561109d57600080fd5b505af11580156110b1573d6000803e3d6000fd5b5050600654600160a060020a03169150639a545322905086336110d48a886111ea565b6040808c01516020908101518051910151915160e060020a63ffffffff88160281526111099594939290600090600401611c2a565b600060405180830381600087803b15801561112357600080fd5b505af1158015611137573d6000803e3d6000fd5b50505060e0808901515190880151516040517f19bce462cce6b1dffa0eecc216414a9dabff1354acbc69c4c91bbf3cde1eaf4c935061117b92919033908a90611cc8565b60405180910390a150505050505050565b6000546101009004600160a060020a0316331490565b600154600160a060020a0316331490565b60008160018111156111c157fe5b15156111d85750608082015160a0015151516111e4565b5060a080830151015151515b92915050565b60008160018111156111f857fe5b15156112125750608082015160a0015160200151516111e4565b5060a080830151015160200151516111e4565b60006112318235611e1c565b9392505050565b6000601f8201831361124957600080fd5b813561125c61125782611df2565b611dcc565b9150818183526020840193506020810190508385608084028201111561128157600080fd5b60005b838110156112af5781611297888261140b565b84525060209092019160809190910190600101611284565b5050505092915050565b60006112318251611e28565b60006112318235611e2d565b60006112318235611e46565b60006112318235611e51565b6000604082840312156112fb57600080fd5b6113056040611dcc565b905060006113138484611225565b8252506020611324848483016112c5565b60208301525092915050565b60006040828403121561134257600080fd5b61134c6040611dcc565b9050600061131384846112c5565b60006060828403121561136c57600080fd5b6113766040611dcc565b9050600061138484846112c5565b8252506020611324848483016112e9565b6000608082840312156113a757600080fd5b6113b16040611dcc565b905060006113bf84846112e9565b8252506040611324848483016112e9565b6000608082840312156113e257600080fd5b6113ec6040611dcc565b905060006113fa8484611330565b825250604061132484848301611330565b60006080828403121561141d57600080fd5b6114276040611dcc565b9050600061143584846112c5565b82525060206113248484830161135a565b60006080828403121561145857600080fd5b6114626040611dcc565b9050600061147084846112c5565b82525060206113248484830160006060828403121561148e57600080fd5b6114986060611dcc565b905060006114a684846112c5565b82525060206114b7848483016112c5565b60208301525060406114cb84828501611767565b60408301525092915050565b6000608082840312156114e957600080fd5b6114f36040611dcc565b90506000611501848461135a565b82525060608201356001604060020a0381111561151d57600080fd5b61132484828501611238565b600060a0828403121561153b57600080fd5b6115456060611dcc565b9050600061155384846112c5565b825250602061156484848301611330565b60208301525060606114cb84828501611330565b60006101c0828403121561158b57600080fd5b61159560e0611dcc565b905060006115a384846112c5565b82525060206115b484848301611225565b60208301525060406115c8848285016112c5565b60408301525060606115dc848285016112dd565b60608301525060806115f084828501611529565b608083015250610120611605848285016113d0565b60a0830152506101a08201356001604060020a0381111561162557600080fd5b611631848285016114d7565b60c08301525092915050565b6000610260828403121561165057600080fd5b61165b610140611dcc565b9050600061166984846112c5565b825250602061167a848483016112c5565b602083015250604061168e84828501611395565b60408301525060c06116a2848285016112c5565b60608301525060e08201356001604060020a038111156116c157600080fd5b6116cd84828501611578565b6080830152506101008201356001604060020a038111156116ed57600080fd5b6116f984828501611578565b60a08301525061012061170e848285016113d0565b60c0830152506101a061172384828501611446565b60e083015250610220611738848285016112c5565b6101008301525061024061174e848285016112c5565b6101208301525092915050565b60006112318251611e2d565b60006112318235611e40565b60006020828403121561178557600080fd5b60006117918484611225565b949350505050565b6000602082840312156117ab57600080fd5b600061179184846112b9565b6000602082840312156117c957600080fd5b600061179184846112d1565b6000806000606084860312156117ea57600080fd5b83356001604060020a0381111561180057600080fd5b61180c8682870161163d565b93505060208401356001604060020a0381111561182857600080fd5b6118348682870161163d565b925050604061184586828701611225565b9150509250925092565b60006020828403121561186157600080fd5b6000611791848461175b565b61187681611e1c565b82525050565b600061188782611e18565b80845260208401935061189983611e12565b60005b828110156118c9576118af8683516119a7565b6118b882611e12565b60809690960195915060010161189c565b5093949350505050565b61187681611e28565b61187681611e2d565b61187681611e46565b61187681611e60565b61187681611e6b565b80516040830190611911848261186d565b50602082015161192460208501826118dc565b50505050565b8051604083019061191184826118dc565b8051606083019061194c84826118dc565b5060208201516119246020850182611900565b805160808301906119708482611900565b5060208201516119246040850182611900565b80516080830190611994848261192a565b506020820151611924604085018261192a565b805160808301906119b884826118dc565b506020820151611924602085018261193b565b805160808301906119dc84826118dc565b5060208201516119246020850182805160608301906119fb84826118dc565b506020820151611a0e60208501826118dc565b5060408201516119246040850182611bf8565b80516000906080840190611a35858261193b565b5060208301518482036060860152611a4d828261187c565b95945050505050565b805160a0830190611a6784826118dc565b506020820151611a7a602085018261192a565b506040820151611924606085018261192a565b80516000906101c0840190611aa285826118dc565b506020830151611ab5602086018261186d565b506040830151611ac860408601826118dc565b506060830151611adb60608601826118ee565b506080830151611aee6080860182611a56565b5060a0830151611b02610120860182611983565b5060c08301518482036101a0860152611a4d8282611a21565b8051600090610260840190611b3085826118dc565b506020830151611b4360208601826118dc565b506040830151611b56604086018261195f565b506060830151611b6960c08601826118dc565b50608083015184820360e0860152611b818282611a8d565b91505060a0830151848203610100860152611b9c8282611a8d565b91505060c0830151611bb2610120860182611983565b5060e0830151611bc66101a08601826119cb565b50610100830151611bdb6102208601826118dc565b50610120830151611bf06102408601826118dc565b509392505050565b61187681611e40565b602081016111e4828461186d565b60408101611c1d828561186d565b611231602083018461186d565b60c08101611c38828961186d565b611c45602083018861186d565b611c5260408301876118dc565b611c5f606083018661186d565b611c6c60808301856118dc565b611c7960a08301846118f7565b979650505050505050565b60608101611c92828661186d565b611c9f60208301856118dc565b61179160408301846118f7565b602081016111e482846118d3565b602081016111e482846118dc565b60808101611cd682876118dc565b611ce360208301866118dc565b611cf0604083018561186d565b611a4d606083018461186d565b602081016111e482846118e5565b60408101611d1982856118e5565b61123160208301846118e5565b602080825281016112318184611b1b565b60408082528101611d488185611b1b565b9050611231602083018461186d565b60808082528101611d688187611b1b565b9050611d7760208301866118ee565b8181036040830152611d898185611b1b565b9050611a4d60608301846118ee565b60608082528101611da98186611b1b565b90508181036020830152611dbd8185611b1b565b905061179160408301846118ee565b6040518181016001604060020a0381118282101715611dea57600080fd5b604052919050565b60006001604060020a03821115611e0857600080fd5b5060209081020190565b60200190565b5190565b600160a060020a031690565b151590565b90565b600060028210611e3c57fe5b5090565b60ff1690565b60006111e482611e1c565b600060028210611e3c57600080fd5b60006111e482611e30565b60006111e482611e2d5600a265627a7a72305820e69f1ec845eac5fc19da6e01ec04459cf963dd5839fd3424065a946c98430c886c6578706572696d656e74616cf50037",
  "source": "/*\n * Hubii Nahmii\n *\n * Compliant with the Hubii Nahmii specification v0.12.\n *\n * Copyright (C) 2017-2018 Hubii AS\n */\n\npragma solidity ^0.4.25;\npragma experimental ABIEncoderV2;\n\nimport {Ownable} from \"./Ownable.sol\";\nimport {FraudChallengable} from \"./FraudChallengable.sol\";\nimport {ConfigurableOperational} from \"./ConfigurableOperational.sol\";\nimport {ValidatableV2} from \"./ValidatableV2.sol\";\nimport {SecurityBondable} from \"./SecurityBondable.sol\";\nimport {WalletLockable} from \"./WalletLockable.sol\";\nimport {TradeTypesLib} from \"./TradeTypesLib.sol\";\nimport {SafeMathIntLib} from \"./SafeMathIntLib.sol\";\n\n/**\n * @title FraudChallengeByTradeOrderResiduals\n * @notice Where driips are challenged wrt fraud by mismatch in trade order residuals\n */\ncontract FraudChallengeByTradeOrderResiduals is Ownable, FraudChallengable, ConfigurableOperational, ValidatableV2,\nSecurityBondable, WalletLockable {\n    using SafeMathIntLib for int256;\n\n    //\n    // Events\n    // -----------------------------------------------------------------------------------------------------------------\n    event ChallengeByTradeOrderResidualsEvent(bytes32 firstTradeHash, bytes32 lastTradeHash,\n        address challenger, address lockedWallet);\n\n    //\n    // Constructor\n    // -----------------------------------------------------------------------------------------------------------------\n    constructor(address deployer) Ownable(deployer) public {\n    }\n\n    //\n    // Functions\n    // -----------------------------------------------------------------------------------------------------------------\n    /// @notice Submit two trade candidates in continuous Fraud Challenge (FC) to be tested for\n    /// trade order residual differences\n    /// @param firstTrade Reference trade\n    /// @param lastTrade Fraudulent trade candidate\n    /// @param wallet The address of the concerned wallet\n    function challenge(\n        TradeTypesLib.Trade firstTrade,\n        TradeTypesLib.Trade lastTrade,\n        address wallet\n    )\n    public\n    onlyOperationalModeNormal\n    onlySealedTrade(firstTrade)\n    onlySealedTrade(lastTrade)\n    {\n        require(validator.isTradeParty(firstTrade, wallet));\n        require(validator.isTradeParty(lastTrade, wallet));\n\n        // Require that the wallet has the same party role in both trades\n        TradeTypesLib.TradePartyRole firstTradePartyRole = (wallet == firstTrade.buyer.wallet ? TradeTypesLib.TradePartyRole.Buyer : TradeTypesLib.TradePartyRole.Seller);\n        TradeTypesLib.TradePartyRole lastTradePartyRole = (wallet == lastTrade.buyer.wallet ? TradeTypesLib.TradePartyRole.Buyer : TradeTypesLib.TradePartyRole.Seller);\n        require(firstTradePartyRole == lastTradePartyRole);\n\n        // Require that the two trades's relevant wallet order hash (that excludes residual) are equal\n        if (TradeTypesLib.TradePartyRole.Buyer == firstTradePartyRole)\n            require(firstTrade.buyer.order.hashes.wallet == lastTrade.buyer.order.hashes.wallet);\n        else // TradeTypesLib.TradePartyRole.Seller == firstTradePartyRole\n            require(firstTrade.seller.order.hashes.wallet == lastTrade.seller.order.hashes.wallet);\n\n        require(validator.isSuccessiveTradesPartyNonces(firstTrade, firstTradePartyRole, lastTrade, lastTradePartyRole));\n\n        // Require existence of fraud signal\n        require(!validator.isGenuineSuccessiveTradeOrderResiduals(firstTrade, lastTrade, firstTradePartyRole));\n\n        // Toggle operational mode exit\n        configuration.setOperationalModeExit();\n\n        // Tag last trade (hash) as fraudulent\n        fraudChallenge.addFraudulentTradeHash(lastTrade.seal.hash);\n\n        // Reward stake fraction\n        securityBond.rewardFractional(msg.sender, configuration.fraudStakeFraction(), 0);\n\n        // Lock amounts of size equivalent to last trade's balances\n        walletLocker.lockFungibleByProxy(\n            wallet, msg.sender,\n            _tradeIntendedLockAmount(lastTrade, lastTradePartyRole),\n            lastTrade.currencies.intended.ct, lastTrade.currencies.intended.id, 0\n        );\n        walletLocker.lockFungibleByProxy(\n            wallet, msg.sender,\n            _tradeConjugateLockAmount(lastTrade, lastTradePartyRole),\n            lastTrade.currencies.conjugate.ct, lastTrade.currencies.conjugate.id, 0\n        );\n\n        // Emit event\n        emit ChallengeByTradeOrderResidualsEvent(\n            firstTrade.seal.hash, lastTrade.seal.hash, msg.sender, wallet\n        );\n    }\n\n    //\n    // Private functions\n    // -----------------------------------------------------------------------------------------------------------------\n    function _tradeIntendedLockAmount(TradeTypesLib.Trade trade, TradeTypesLib.TradePartyRole tradePartyRole)\n    private\n    pure\n    returns (int256)\n    {\n        if (TradeTypesLib.TradePartyRole.Buyer == tradePartyRole)\n            return trade.buyer.balances.intended.current;\n        else // TradeTypesLib.TradePartyRole.Seller == tradePartyRole)\n            return trade.seller.balances.intended.current;\n    }\n\n    function _tradeConjugateLockAmount(TradeTypesLib.Trade trade, TradeTypesLib.TradePartyRole tradePartyRole)\n    private\n    pure\n    returns (int256)\n    {\n        if (TradeTypesLib.TradePartyRole.Buyer == tradePartyRole)\n            return trade.buyer.balances.conjugate.current;\n        else // TradeTypesLib.TradePartyRole.Seller == tradePartyRole)\n            return trade.seller.balances.conjugate.current;\n    }\n}",
  "sourcePath": "/opt/buildagent/work/855e104608380c36/contracts/FraudChallengeByTradeOrderResiduals.sol",
  "compiler": {
    "name": "solc",
    "version": "0.4.25+commit.59dbf8f1.Emscripten.clang"
  },
  "schemaVersion": "2.0.2",
  "updatedAt": "2019-04-02T08:24:32.048Z"
}