{
  "contractName": "FraudChallengeByDuplicateDriipNonceOfPayments",
  "abi": [
    {
      "constant": false,
      "inputs": [
        {
          "name": "newFraudChallenge",
          "type": "address"
        }
      ],
      "name": "setFraudChallenge",
      "outputs": [],
      "payable": false,
      "stateMutability": "nonpayable",
      "type": "function"
    },
    {
      "constant": false,
      "inputs": [
        {
          "name": "newValidator",
          "type": "address"
        }
      ],
      "name": "setValidator",
      "outputs": [],
      "payable": false,
      "stateMutability": "nonpayable",
      "type": "function"
    },
    {
      "constant": false,
      "inputs": [],
      "name": "triggerSelfDestruction",
      "outputs": [],
      "payable": false,
      "stateMutability": "nonpayable",
      "type": "function"
    },
    {
      "constant": true,
      "inputs": [],
      "name": "selfDestructionDisabled",
      "outputs": [
        {
          "name": "",
          "type": "bool"
        }
      ],
      "payable": false,
      "stateMutability": "view",
      "type": "function"
    },
    {
      "constant": true,
      "inputs": [],
      "name": "validator",
      "outputs": [
        {
          "name": "",
          "type": "address"
        }
      ],
      "payable": false,
      "stateMutability": "view",
      "type": "function"
    },
    {
      "constant": true,
      "inputs": [],
      "name": "fraudChallenge",
      "outputs": [
        {
          "name": "",
          "type": "address"
        }
      ],
      "payable": false,
      "stateMutability": "view",
      "type": "function"
    },
    {
      "constant": true,
      "inputs": [],
      "name": "destructor",
      "outputs": [
        {
          "name": "",
          "type": "address"
        }
      ],
      "payable": false,
      "stateMutability": "view",
      "type": "function"
    },
    {
      "constant": true,
      "inputs": [],
      "name": "operator",
      "outputs": [
        {
          "name": "",
          "type": "address"
        }
      ],
      "payable": false,
      "stateMutability": "view",
      "type": "function"
    },
    {
      "constant": false,
      "inputs": [
        {
          "name": "newConfiguration",
          "type": "address"
        }
      ],
      "name": "setConfiguration",
      "outputs": [],
      "payable": false,
      "stateMutability": "nonpayable",
      "type": "function"
    },
    {
      "constant": false,
      "inputs": [
        {
          "name": "newSecurityBond",
          "type": "address"
        }
      ],
      "name": "setSecurityBond",
      "outputs": [],
      "payable": false,
      "stateMutability": "nonpayable",
      "type": "function"
    },
    {
      "constant": true,
      "inputs": [],
      "name": "securityBond",
      "outputs": [
        {
          "name": "",
          "type": "address"
        }
      ],
      "payable": false,
      "stateMutability": "view",
      "type": "function"
    },
    {
      "constant": true,
      "inputs": [],
      "name": "configuration",
      "outputs": [
        {
          "name": "",
          "type": "address"
        }
      ],
      "payable": false,
      "stateMutability": "view",
      "type": "function"
    },
    {
      "constant": false,
      "inputs": [],
      "name": "disableSelfDestruction",
      "outputs": [],
      "payable": false,
      "stateMutability": "nonpayable",
      "type": "function"
    },
    {
      "constant": false,
      "inputs": [
        {
          "name": "newDeployer",
          "type": "address"
        }
      ],
      "name": "setDeployer",
      "outputs": [],
      "payable": false,
      "stateMutability": "nonpayable",
      "type": "function"
    },
    {
      "constant": false,
      "inputs": [
        {
          "name": "newOperator",
          "type": "address"
        }
      ],
      "name": "setOperator",
      "outputs": [],
      "payable": false,
      "stateMutability": "nonpayable",
      "type": "function"
    },
    {
      "constant": true,
      "inputs": [],
      "name": "deployer",
      "outputs": [
        {
          "name": "",
          "type": "address"
        }
      ],
      "payable": false,
      "stateMutability": "view",
      "type": "function"
    },
    {
      "inputs": [
        {
          "name": "deployer",
          "type": "address"
        }
      ],
      "payable": false,
      "stateMutability": "nonpayable",
      "type": "constructor"
    },
    {
      "anonymous": false,
      "inputs": [
        {
          "indexed": false,
          "name": "paymentHash1",
          "type": "bytes32"
        },
        {
          "indexed": false,
          "name": "paymentHash2",
          "type": "bytes32"
        },
        {
          "indexed": false,
          "name": "challenger",
          "type": "address"
        }
      ],
      "name": "ChallengeByDuplicateDriipNonceOfPaymentsEvent",
      "type": "event"
    },
    {
      "anonymous": false,
      "inputs": [
        {
          "indexed": false,
          "name": "oldSecurityBond",
          "type": "address"
        },
        {
          "indexed": false,
          "name": "newSecurityBond",
          "type": "address"
        }
      ],
      "name": "SetSecurityBondEvent",
      "type": "event"
    },
    {
      "anonymous": false,
      "inputs": [
        {
          "indexed": false,
          "name": "oldValidator",
          "type": "address"
        },
        {
          "indexed": false,
          "name": "newValidator",
          "type": "address"
        }
      ],
      "name": "SetValidatorEvent",
      "type": "event"
    },
    {
      "anonymous": false,
      "inputs": [
        {
          "indexed": false,
          "name": "oldConfiguration",
          "type": "address"
        },
        {
          "indexed": false,
          "name": "newConfiguration",
          "type": "address"
        }
      ],
      "name": "SetConfigurationEvent",
      "type": "event"
    },
    {
      "anonymous": false,
      "inputs": [
        {
          "indexed": false,
          "name": "oldFraudChallenge",
          "type": "address"
        },
        {
          "indexed": false,
          "name": "newFraudChallenge",
          "type": "address"
        }
      ],
      "name": "SetFraudChallengeEvent",
      "type": "event"
    },
    {
      "anonymous": false,
      "inputs": [
        {
          "indexed": false,
          "name": "oldDeployer",
          "type": "address"
        },
        {
          "indexed": false,
          "name": "newDeployer",
          "type": "address"
        }
      ],
      "name": "SetDeployerEvent",
      "type": "event"
    },
    {
      "anonymous": false,
      "inputs": [
        {
          "indexed": false,
          "name": "oldOperator",
          "type": "address"
        },
        {
          "indexed": false,
          "name": "newOperator",
          "type": "address"
        }
      ],
      "name": "SetOperatorEvent",
      "type": "event"
    },
    {
      "anonymous": false,
      "inputs": [
        {
          "indexed": false,
          "name": "wallet",
          "type": "address"
        }
      ],
      "name": "SelfDestructionDisabledEvent",
      "type": "event"
    },
    {
      "anonymous": false,
      "inputs": [
        {
          "indexed": false,
          "name": "wallet",
          "type": "address"
        }
      ],
      "name": "TriggerSelfDestructionEvent",
      "type": "event"
    },
    {
      "constant": false,
      "inputs": [
        {
          "components": [
            {
              "name": "nonce",
              "type": "uint256"
            },
            {
              "name": "amount",
              "type": "int256"
            },
            {
              "components": [
                {
                  "name": "ct",
                  "type": "address"
                },
                {
                  "name": "id",
                  "type": "uint256"
                }
              ],
              "name": "currency",
              "type": "tuple"
            },
            {
              "components": [
                {
                  "name": "nonce",
                  "type": "uint256"
                },
                {
                  "name": "wallet",
                  "type": "address"
                },
                {
                  "components": [
                    {
                      "name": "current",
                      "type": "int256"
                    },
                    {
                      "name": "previous",
                      "type": "int256"
                    }
                  ],
                  "name": "balances",
                  "type": "tuple"
                },
                {
                  "components": [
                    {
                      "components": [
                        {
                          "name": "amount",
                          "type": "int256"
                        },
                        {
                          "components": [
                            {
                              "name": "ct",
                              "type": "address"
                            },
                            {
                              "name": "id",
                              "type": "uint256"
                            }
                          ],
                          "name": "currency",
                          "type": "tuple"
                        }
                      ],
                      "name": "single",
                      "type": "tuple"
                    },
                    {
                      "components": [
                        {
                          "name": "originId",
                          "type": "uint256"
                        },
                        {
                          "components": [
                            {
                              "name": "amount",
                              "type": "int256"
                            },
                            {
                              "components": [
                                {
                                  "name": "ct",
                                  "type": "address"
                                },
                                {
                                  "name": "id",
                                  "type": "uint256"
                                }
                              ],
                              "name": "currency",
                              "type": "tuple"
                            }
                          ],
                          "name": "figure",
                          "type": "tuple"
                        }
                      ],
                      "name": "total",
                      "type": "tuple[]"
                    }
                  ],
                  "name": "fees",
                  "type": "tuple"
                }
              ],
              "name": "sender",
              "type": "tuple"
            },
            {
              "components": [
                {
                  "name": "nonce",
                  "type": "uint256"
                },
                {
                  "name": "wallet",
                  "type": "address"
                },
                {
                  "components": [
                    {
                      "name": "current",
                      "type": "int256"
                    },
                    {
                      "name": "previous",
                      "type": "int256"
                    }
                  ],
                  "name": "balances",
                  "type": "tuple"
                },
                {
                  "components": [
                    {
                      "components": [
                        {
                          "name": "originId",
                          "type": "uint256"
                        },
                        {
                          "components": [
                            {
                              "name": "amount",
                              "type": "int256"
                            },
                            {
                              "components": [
                                {
                                  "name": "ct",
                                  "type": "address"
                                },
                                {
                                  "name": "id",
                                  "type": "uint256"
                                }
                              ],
                              "name": "currency",
                              "type": "tuple"
                            }
                          ],
                          "name": "figure",
                          "type": "tuple"
                        }
                      ],
                      "name": "total",
                      "type": "tuple[]"
                    }
                  ],
                  "name": "fees",
                  "type": "tuple"
                }
              ],
              "name": "recipient",
              "type": "tuple"
            },
            {
              "components": [
                {
                  "name": "single",
                  "type": "int256"
                },
                {
                  "name": "total",
                  "type": "int256"
                }
              ],
              "name": "transfers",
              "type": "tuple"
            },
            {
              "components": [
                {
                  "components": [
                    {
                      "name": "hash",
                      "type": "bytes32"
                    },
                    {
                      "components": [
                        {
                          "name": "r",
                          "type": "bytes32"
                        },
                        {
                          "name": "s",
                          "type": "bytes32"
                        },
                        {
                          "name": "v",
                          "type": "uint8"
                        }
                      ],
                      "name": "signature",
                      "type": "tuple"
                    }
                  ],
                  "name": "wallet",
                  "type": "tuple"
                },
                {
                  "components": [
                    {
                      "name": "hash",
                      "type": "bytes32"
                    },
                    {
                      "components": [
                        {
                          "name": "r",
                          "type": "bytes32"
                        },
                        {
                          "name": "s",
                          "type": "bytes32"
                        },
                        {
                          "name": "v",
                          "type": "uint8"
                        }
                      ],
                      "name": "signature",
                      "type": "tuple"
                    }
                  ],
                  "name": "operator",
                  "type": "tuple"
                }
              ],
              "name": "seals",
              "type": "tuple"
            },
            {
              "name": "blockNumber",
              "type": "uint256"
            },
            {
              "name": "operatorId",
              "type": "uint256"
            }
          ],
          "name": "payment1",
          "type": "tuple"
        },
        {
          "components": [
            {
              "name": "nonce",
              "type": "uint256"
            },
            {
              "name": "amount",
              "type": "int256"
            },
            {
              "components": [
                {
                  "name": "ct",
                  "type": "address"
                },
                {
                  "name": "id",
                  "type": "uint256"
                }
              ],
              "name": "currency",
              "type": "tuple"
            },
            {
              "components": [
                {
                  "name": "nonce",
                  "type": "uint256"
                },
                {
                  "name": "wallet",
                  "type": "address"
                },
                {
                  "components": [
                    {
                      "name": "current",
                      "type": "int256"
                    },
                    {
                      "name": "previous",
                      "type": "int256"
                    }
                  ],
                  "name": "balances",
                  "type": "tuple"
                },
                {
                  "components": [
                    {
                      "components": [
                        {
                          "name": "amount",
                          "type": "int256"
                        },
                        {
                          "components": [
                            {
                              "name": "ct",
                              "type": "address"
                            },
                            {
                              "name": "id",
                              "type": "uint256"
                            }
                          ],
                          "name": "currency",
                          "type": "tuple"
                        }
                      ],
                      "name": "single",
                      "type": "tuple"
                    },
                    {
                      "components": [
                        {
                          "name": "originId",
                          "type": "uint256"
                        },
                        {
                          "components": [
                            {
                              "name": "amount",
                              "type": "int256"
                            },
                            {
                              "components": [
                                {
                                  "name": "ct",
                                  "type": "address"
                                },
                                {
                                  "name": "id",
                                  "type": "uint256"
                                }
                              ],
                              "name": "currency",
                              "type": "tuple"
                            }
                          ],
                          "name": "figure",
                          "type": "tuple"
                        }
                      ],
                      "name": "total",
                      "type": "tuple[]"
                    }
                  ],
                  "name": "fees",
                  "type": "tuple"
                }
              ],
              "name": "sender",
              "type": "tuple"
            },
            {
              "components": [
                {
                  "name": "nonce",
                  "type": "uint256"
                },
                {
                  "name": "wallet",
                  "type": "address"
                },
                {
                  "components": [
                    {
                      "name": "current",
                      "type": "int256"
                    },
                    {
                      "name": "previous",
                      "type": "int256"
                    }
                  ],
                  "name": "balances",
                  "type": "tuple"
                },
                {
                  "components": [
                    {
                      "components": [
                        {
                          "name": "originId",
                          "type": "uint256"
                        },
                        {
                          "components": [
                            {
                              "name": "amount",
                              "type": "int256"
                            },
                            {
                              "components": [
                                {
                                  "name": "ct",
                                  "type": "address"
                                },
                                {
                                  "name": "id",
                                  "type": "uint256"
                                }
                              ],
                              "name": "currency",
                              "type": "tuple"
                            }
                          ],
                          "name": "figure",
                          "type": "tuple"
                        }
                      ],
                      "name": "total",
                      "type": "tuple[]"
                    }
                  ],
                  "name": "fees",
                  "type": "tuple"
                }
              ],
              "name": "recipient",
              "type": "tuple"
            },
            {
              "components": [
                {
                  "name": "single",
                  "type": "int256"
                },
                {
                  "name": "total",
                  "type": "int256"
                }
              ],
              "name": "transfers",
              "type": "tuple"
            },
            {
              "components": [
                {
                  "components": [
                    {
                      "name": "hash",
                      "type": "bytes32"
                    },
                    {
                      "components": [
                        {
                          "name": "r",
                          "type": "bytes32"
                        },
                        {
                          "name": "s",
                          "type": "bytes32"
                        },
                        {
                          "name": "v",
                          "type": "uint8"
                        }
                      ],
                      "name": "signature",
                      "type": "tuple"
                    }
                  ],
                  "name": "wallet",
                  "type": "tuple"
                },
                {
                  "components": [
                    {
                      "name": "hash",
                      "type": "bytes32"
                    },
                    {
                      "components": [
                        {
                          "name": "r",
                          "type": "bytes32"
                        },
                        {
                          "name": "s",
                          "type": "bytes32"
                        },
                        {
                          "name": "v",
                          "type": "uint8"
                        }
                      ],
                      "name": "signature",
                      "type": "tuple"
                    }
                  ],
                  "name": "operator",
                  "type": "tuple"
                }
              ],
              "name": "seals",
              "type": "tuple"
            },
            {
              "name": "blockNumber",
              "type": "uint256"
            },
            {
              "name": "operatorId",
              "type": "uint256"
            }
          ],
          "name": "payment2",
          "type": "tuple"
        }
      ],
      "name": "challenge",
      "outputs": [],
      "payable": false,
      "stateMutability": "nonpayable",
      "type": "function"
    }
  ],
  "bytecode": "0x60806040523480156200001157600080fd5b506040516020806200184c8339810180604052620000339190810190620000b6565b8080600160a060020a03811615156200004b57600080fd5b600160a060020a0381163014156200006257600080fd5b506000805461010060a860020a031916610100600160a060020a039390931692830217905560018054600160a060020a031916909117905550620000eb565b6000620000af8251620000df565b9392505050565b600060208284031215620000c957600080fd5b6000620000d78484620000a1565b949350505050565b600160a060020a031690565b61175180620000fb6000396000f3006080604052600436106100d75763ffffffff60e060020a60003504166301370d0681146100dc5780631327d3d8146100fe5780632738a1121461011e5780632f013a00146101335780633a5381b51461015e5780633bd7857f146101805780634476d23b14610195578063570ca735146101b7578063627f09c3146101cc5780636792ce6e146101ec5780636b0570d01461020c5780636c70bee91461022157806370327ea114610236578063962147351461024b578063b3ab15fb1461026b578063d5f394881461028b578063ea0890cc146102a0575b600080fd5b3480156100e857600080fd5b506100fc6100f73660046111d6565b6102c0565b005b34801561010a57600080fd5b506100fc6101193660046111d6565b610368565b34801561012a57600080fd5b506100fc610400565b34801561013f57600080fd5b50610148610466565b6040516101559190611619565b60405180910390f35b34801561016a57600080fd5b5061017361046f565b604051610155919061165d565b34801561018c57600080fd5b5061017361047e565b3480156101a157600080fd5b506101aa61048d565b60405161015591906115c2565b3480156101c357600080fd5b506101aa6104a1565b3480156101d857600080fd5b506100fc6101e73660046111d6565b6104b0565b3480156101f857600080fd5b506100fc6102073660046111d6565b610548565b34801561021857600080fd5b506101736105e0565b34801561022d57600080fd5b506101736105ef565b34801561024257600080fd5b506100fc6105fe565b34801561025757600080fd5b506100fc610266366004611192565b610661565b34801561027757600080fd5b506100fc610286366004611192565b610728565b34801561029757600080fd5b506101aa6107d2565b3480156102ac57600080fd5b506100fc6102bb3660046111f4565b6107e6565b60006102ca610c45565b15156102d557600080fd5b81600160a060020a03811615156102eb57600080fd5b6002548390600160a060020a0390811690821681146103615760028054600160a060020a03878116600160a060020a0319831617909255604051911694507f07998fa7be97abe2427246ae4688298c89d6196bbffdf0997b9495a8d27bc67390610358908690889061166b565b60405180910390a15b5050505050565b6000610372610c45565b151561037d57600080fd5b81600160a060020a038116151561039357600080fd5b6004548390600160a060020a0390811690821681146103615760048054600160a060020a03878116600160a060020a0319831617909255604051911694507f1882af944a16549c3d4f60e3cd26f158b0c7aac3222cf32971fc21375ce05f6090610358908690889061166b565b3361040961048d565b600160a060020a03161461041c57600080fd5b60005460ff161561042c57600080fd5b7f787a5d936e74f4b564b9153575886059829c78cd9927b1be5e0d976b317ef7363360405161045b91906115c2565b60405180910390a133ff5b60005460ff1681565b600454600160a060020a031681565b600254600160a060020a031681565b6000546101009004600160a060020a031690565b600154600160a060020a031681565b60006104ba610c45565b15156104c557600080fd5b81600160a060020a03811615156104db57600080fd5b6003548390600160a060020a0390811690821681146103615760038054600160a060020a03878116600160a060020a0319831617909255604051911694507f634f61bf00e14adedce330c80c2823e16e184f189ebe853e1ddecc4a268477ff90610358908690889061166b565b6000610552610c45565b151561055d57600080fd5b81600160a060020a038116151561057357600080fd5b6005548390600160a060020a0390811690821681146103615760058054600160a060020a03878116600160a060020a0319831617909255604051911694507fc9f3f00c1760fe26985aeacb814a21c56ea289d680562e89b249681b08c3038290610358908690889061166b565b600554600160a060020a031681565b600354600160a060020a031681565b3361060761048d565b600160a060020a03161461061a57600080fd5b6000805460ff191660011790556040517fd5a2a04a775c741c2ca0dc46ea7ce4835190e1aaf1ca018def0e82568ec33616906106579033906115c2565b60405180910390a1565b600061066b610c45565b151561067657600080fd5b81600160a060020a038116151561068c57600080fd5b600160a060020a0381163014156106a257600080fd5b600054600160a060020a0384811661010090920416146107235760008054600160a060020a0385811661010090810261010060a860020a0319841617909355604051929091041692507f977e5fa58e458501775e0008d275006294c5249e3c08d1d0e3a9f3acad14f6e49061071a90849086906115d6565b60405180910390a15b505050565b6000610732610c5b565b151561073d57600080fd5b81600160a060020a038116151561075357600080fd5b600160a060020a03811630141561076957600080fd5b600154600160a060020a038481169116146107235760018054600160a060020a03858116600160a060020a0319831617909255604051911692507f9f611b789425d0d5b90b920f1b2852907dd865c80074a30b1629aaa041d1812c9061071a90849086906115d6565b6000546101009004600160a060020a031681565b600360009054906101000a9004600160a060020a0316600160a060020a031663f71e860f6040518163ffffffff1660e060020a028152600401602060405180830381600087803b15801561083957600080fd5b505af115801561084d573d6000803e3d6000fd5b505050506040513d601f19601f8201168201806040525061087191908101906111b8565b151561087c57600080fd5b6004805460405160e060020a63a865476b0281528492600160a060020a039092169163a865476b916108b091859101611686565b602060405180830381600087803b1580156108ca57600080fd5b505af11580156108de573d6000803e3d6000fd5b505050506040513d601f19601f8201168201806040525061090291908101906111b8565b151561090d57600080fd5b6004805460405160e060020a63a865476b0281528492600160a060020a039092169163a865476b9161094191859101611686565b602060405180830381600087803b15801561095b57600080fd5b505af115801561096f573d6000803e3d6000fd5b505050506040513d601f19601f8201168201806040525061099391908101906111b8565b151561099e57600080fd5b60c0808401515151908501515151148015906109bb575082518451145b15156109c657600080fd5b600360009054906101000a9004600160a060020a0316600160a060020a031663f8e6e8886040518163ffffffff1660e060020a028152600401600060405180830381600087803b158015610a1957600080fd5b505af1158015610a2d573d6000803e3d6000fd5b505060025460c0870151602001515160405160e060020a6388cb0a49028152600160a060020a0390921693506388cb0a499250610a6c91600401611627565b600060405180830381600087803b158015610a8657600080fd5b505af1158015610a9a573d6000803e3d6000fd5b505060025460c0860151602001515160405160e060020a6388cb0a49028152600160a060020a0390921693506388cb0a499250610ad991600401611627565b600060405180830381600087803b158015610af357600080fd5b505af1158015610b07573d6000803e3d6000fd5b50506005546003546040805160e060020a639699f3370281529051600160a060020a03938416955063760b82929450339390921691639699f337916004808201926020929091908290030181600087803b158015610b6457600080fd5b505af1158015610b78573d6000803e3d6000fd5b505050506040513d601f19601f82011682018060405250610b9c919081019061125b565b60006040518463ffffffff1660e060020a028152600401610bbf939291906115f1565b600060405180830381600087803b158015610bd957600080fd5b505af1158015610bed573d6000803e3d6000fd5b50505060c08086015160209081015151918601510151516040517f8732db2d7e723343646468f03e064c938eb08cd649cf778dd23385dad58758ef9350610c379291903390611635565b60405180910390a150505050565b6000546101009004600160a060020a0316331490565b600154600160a060020a0316331490565b6000610c7882356116e7565b9392505050565b6000601f82018313610c9057600080fd5b8135610ca3610c9e826116bd565b611697565b91508181835260208401935060208101905083856080840282011115610cc857600080fd5b60005b83811015610cf65781610cde8882610dd0565b84525060209092019160809190910190600101610ccb565b5050505092915050565b6000610c7882516116f3565b6000610c7882356116f8565b6000610c788235611701565b600060408284031215610d3657600080fd5b610d406040611697565b90506000610d4e8484610c6c565b8252506020610d5f84848301610d0c565b60208301525092915050565b600060408284031215610d7d57600080fd5b610d876040611697565b90506000610d4e8484610d0c565b600060608284031215610da757600080fd5b610db16040611697565b90506000610dbf8484610d0c565b8252506020610d5f84848301610d24565b600060808284031215610de257600080fd5b610dec6040611697565b90506000610dfa8484610d0c565b8252506020610d5f84848301610d95565b600060a08284031215610e1d57600080fd5b610e276080611697565b90506000610e358484610d0c565b8252506020610e4684848301610c6c565b6020830152506040610e5a84828501610d6b565b60408301525060808201356001604060020a03811115610e7957600080fd5b610e85848285016110f5565b60608301525092915050565b600060a08284031215610ea357600080fd5b610ead6080611697565b90506000610ebb8484610d0c565b8252506020610ecc84848301610c6c565b6020830152506040610ee084828501610d6b565b60408301525060808201356001604060020a03811115610eff57600080fd5b610e85848285016110a3565b60006102408284031215610f1e57600080fd5b610f29610120611697565b90506000610f378484610d0c565b8252506020610f4884848301610d0c565b6020830152506040610f5c84828501610d24565b60408301525060808201356001604060020a03811115610f7b57600080fd5b610f8784828501610e91565b60608301525060a08201356001604060020a03811115610fa657600080fd5b610fb284828501610e0b565b60808301525060c0610fc684828501610d6b565b60a083015250610100610fdb8482850161113e565b60c083015250610200610ff084828501610d0c565b60e08301525061022061100584828501610d0c565b6101008301525092915050565b60006080828403121561102457600080fd5b61102e6040611697565b9050600061103c8484610d0c565b8252506020610d5f8484830160006060828403121561105a57600080fd5b6110646060611697565b905060006110728484610d0c565b825250602061108384848301610d0c565b602083015250604061109784828501611186565b60408301525092915050565b6000608082840312156110b557600080fd5b6110bf6040611697565b905060006110cd8484610d95565b82525060608201356001604060020a038111156110e957600080fd5b610d5f84828501610c7f565b60006020828403121561110757600080fd5b6111116020611697565b905081356001604060020a0381111561112957600080fd5b61113584828501610c7f565b82525092915050565b6000610100828403121561115157600080fd5b61115b6040611697565b905060006111698484611012565b8252506080610d5f84848301611012565b6000610c7882516116f8565b6000610c7882356116fb565b6000602082840312156111a457600080fd5b60006111b08484610c6c565b949350505050565b6000602082840312156111ca57600080fd5b60006111b08484610d00565b6000602082840312156111e857600080fd5b60006111b08484610d18565b6000806040838503121561120757600080fd5b82356001604060020a0381111561121d57600080fd5b61122985828601610f0b565b92505060208301356001604060020a0381111561124557600080fd5b61125185828601610f0b565b9150509250929050565b60006020828403121561126d57600080fd5b60006111b0848461117a565b611282816116e7565b82525050565b6000611293826116e3565b8084526020840193506112a5836116dd565b60005b828110156112d5576112bb868351611362565b6112c4826116dd565b6080969096019591506001016112a8565b5093949350505050565b611282816116f3565b611282816116f8565b61128281611701565b6112828161170c565b805160408301906113148482611279565b50602082015161132760208501826112e8565b50505050565b8051604083019061131484826112e8565b8051606083019061134f84826112e8565b5060208201516113276020850182611303565b8051608083019061137384826112e8565b506020820151611327602085018261133e565b805160009060a084019061139a85826112e8565b5060208301516113ad6020860182611279565b5060408301516113c0604086018261132d565b50606083015184820360808601526113d8828261157c565b95945050505050565b805160009060a08401906113f585826112e8565b5060208301516114086020860182611279565b50604083015161141b604086018261132d565b50606083015184820360808601526113d88282611550565b805160009061024084019061144885826112e8565b50602083015161145b60208601826112e8565b50604083015161146e6040860182611303565b506060830151848203608086015261148682826113e1565b915050608083015184820360a08601526114a08282611386565b91505060a08301516114b560c086018261132d565b5060c08301516114c9610100860182611594565b5060e08301516114dd6102008601826112e8565b506101008301516114f26102208601826112e8565b509392505050565b8051608083019061150b84826112e8565b50602082015161132760208501828051606083019061152a84826112e8565b50602082015161153d60208501826112e8565b50604082015161132760408501826115b9565b80516000906080840190611564858261133e565b50602083015184820360608601526113d88282611288565b80516020808452600091908401906113d88282611288565b80516101008301906115a684826114fa565b50602082015161132760808501826114fa565b611282816116fb565b602081016115d08284611279565b92915050565b604081016115e48285611279565b610c786020830184611279565b606081016115ff8286611279565b61160c60208301856112e8565b6111b060408301846112fa565b602081016115d082846112df565b602081016115d082846112e8565b6060810161164382866112e8565b61165060208301856112e8565b6111b06040830184611279565b602081016115d082846112f1565b6040810161167982856112f1565b610c7860208301846112f1565b60208082528101610c788184611433565b6040518181016001604060020a03811182821017156116b557600080fd5b604052919050565b60006001604060020a038211156116d357600080fd5b5060209081020190565b60200190565b5190565b600160a060020a031690565b151590565b90565b60ff1690565b60006115d0826116e7565b60006115d0826116f85600a265627a7a723058203a4199ec527492ccf686384f601de70f2f49f7bfca0e7b6960f8d0c8da4eba826c6578706572696d656e74616cf50037",
  "source": "/*\n * Hubii Nahmii\n *\n * Compliant with the Hubii Nahmii specification v0.12.\n *\n * Copyright (C) 2017-2018 Hubii AS\n */\n\npragma solidity ^0.4.25;\npragma experimental ABIEncoderV2;\n\nimport {Ownable} from \"./Ownable.sol\";\nimport {FraudChallengable} from \"./FraudChallengable.sol\";\nimport {ConfigurableOperational} from \"./ConfigurableOperational.sol\";\nimport {Validatable} from \"./Validatable.sol\";\nimport {SecurityBondable} from \"./SecurityBondable.sol\";\nimport {PaymentTypesLib} from \"./PaymentTypesLib.sol\";\n\n/**\n * @title FraudChallengeByDuplicateDriipNonceOfPayments\n * @notice Where driips are challenged wrt fraud by duplicate drip nonce of payments\n */\ncontract FraudChallengeByDuplicateDriipNonceOfPayments is Ownable, FraudChallengable, ConfigurableOperational, Validatable,\nSecurityBondable {\n    //\n    // Events\n    // -----------------------------------------------------------------------------------------------------------------\n    event ChallengeByDuplicateDriipNonceOfPaymentsEvent(bytes32 paymentHash1,\n        bytes32 paymentHash2, address challenger);\n\n    //\n    // Constructor\n    // -----------------------------------------------------------------------------------------------------------------\n    constructor(address deployer) Ownable(deployer) public {\n    }\n\n    //\n    // Functions\n    // -----------------------------------------------------------------------------------------------------------------\n    /// @notice Submit two payment candidates in continuous Fraud Challenge (FC) to be tested for\n    /// duplicate driip nonce\n    /// @param payment1 First payment with duplicate driip nonce\n    /// @param payment2 Second payment with duplicate driip nonce\n    function challenge(\n        PaymentTypesLib.Payment payment1,\n        PaymentTypesLib.Payment payment2\n    )\n    public\n    onlyOperationalModeNormal\n    onlySealedPayment(payment1)\n    onlySealedPayment(payment2)\n    {\n        // Require existence of fraud signal\n        require(\n            payment1.seals.wallet.hash != payment2.seals.wallet.hash &&\n            payment1.nonce == payment2.nonce\n        );\n\n        // Toggle operational mode exit\n        configuration.setOperationalModeExit();\n\n        // Tag trades (hashes) as fraudulent\n        fraudChallenge.addFraudulentPaymentHash(payment1.seals.operator.hash);\n        fraudChallenge.addFraudulentPaymentHash(payment2.seals.operator.hash);\n\n        // Reward stake fraction\n        securityBond.rewardFractional(msg.sender, configuration.fraudStakeFraction(), 0);\n\n        // Emit event\n        emit ChallengeByDuplicateDriipNonceOfPaymentsEvent(\n            payment1.seals.operator.hash, payment2.seals.operator.hash, msg.sender\n        );\n    }\n}",
  "sourcePath": "/opt/buildagent/work/855e104608380c36/contracts/FraudChallengeByDuplicateDriipNonceOfPayments.sol",
  "compiler": {
    "name": "solc",
    "version": "0.4.25+commit.59dbf8f1.Emscripten.clang"
  },
  "schemaVersion": "2.0.2",
  "updatedAt": "2019-04-02T06:20:36.940Z"
}