{
  "contractName": "FraudChallengeByPayment",
  "abi": [
    {
      "constant": false,
      "inputs": [
        {
          "name": "newFraudChallenge",
          "type": "address"
        }
      ],
      "name": "setFraudChallenge",
      "outputs": [],
      "payable": false,
      "stateMutability": "nonpayable",
      "type": "function"
    },
    {
      "constant": false,
      "inputs": [
        {
          "name": "newValidator",
          "type": "address"
        }
      ],
      "name": "setValidator",
      "outputs": [],
      "payable": false,
      "stateMutability": "nonpayable",
      "type": "function"
    },
    {
      "constant": true,
      "inputs": [],
      "name": "walletLockerFrozen",
      "outputs": [
        {
          "name": "",
          "type": "bool"
        }
      ],
      "payable": false,
      "stateMutability": "view",
      "type": "function"
    },
    {
      "constant": false,
      "inputs": [],
      "name": "triggerSelfDestruction",
      "outputs": [],
      "payable": false,
      "stateMutability": "nonpayable",
      "type": "function"
    },
    {
      "constant": true,
      "inputs": [],
      "name": "selfDestructionDisabled",
      "outputs": [
        {
          "name": "",
          "type": "bool"
        }
      ],
      "payable": false,
      "stateMutability": "view",
      "type": "function"
    },
    {
      "constant": true,
      "inputs": [],
      "name": "validator",
      "outputs": [
        {
          "name": "",
          "type": "address"
        }
      ],
      "payable": false,
      "stateMutability": "view",
      "type": "function"
    },
    {
      "constant": true,
      "inputs": [],
      "name": "fraudChallenge",
      "outputs": [
        {
          "name": "",
          "type": "address"
        }
      ],
      "payable": false,
      "stateMutability": "view",
      "type": "function"
    },
    {
      "constant": true,
      "inputs": [],
      "name": "destructor",
      "outputs": [
        {
          "name": "",
          "type": "address"
        }
      ],
      "payable": false,
      "stateMutability": "view",
      "type": "function"
    },
    {
      "constant": true,
      "inputs": [],
      "name": "operator",
      "outputs": [
        {
          "name": "",
          "type": "address"
        }
      ],
      "payable": false,
      "stateMutability": "view",
      "type": "function"
    },
    {
      "constant": false,
      "inputs": [],
      "name": "freezeWalletLocker",
      "outputs": [],
      "payable": false,
      "stateMutability": "nonpayable",
      "type": "function"
    },
    {
      "constant": false,
      "inputs": [
        {
          "name": "newConfiguration",
          "type": "address"
        }
      ],
      "name": "setConfiguration",
      "outputs": [],
      "payable": false,
      "stateMutability": "nonpayable",
      "type": "function"
    },
    {
      "constant": false,
      "inputs": [
        {
          "name": "newSecurityBond",
          "type": "address"
        }
      ],
      "name": "setSecurityBond",
      "outputs": [],
      "payable": false,
      "stateMutability": "nonpayable",
      "type": "function"
    },
    {
      "constant": true,
      "inputs": [],
      "name": "securityBond",
      "outputs": [
        {
          "name": "",
          "type": "address"
        }
      ],
      "payable": false,
      "stateMutability": "view",
      "type": "function"
    },
    {
      "constant": true,
      "inputs": [],
      "name": "configuration",
      "outputs": [
        {
          "name": "",
          "type": "address"
        }
      ],
      "payable": false,
      "stateMutability": "view",
      "type": "function"
    },
    {
      "constant": false,
      "inputs": [],
      "name": "disableSelfDestruction",
      "outputs": [],
      "payable": false,
      "stateMutability": "nonpayable",
      "type": "function"
    },
    {
      "constant": false,
      "inputs": [
        {
          "name": "newWalletLocker",
          "type": "address"
        }
      ],
      "name": "setWalletLocker",
      "outputs": [],
      "payable": false,
      "stateMutability": "nonpayable",
      "type": "function"
    },
    {
      "constant": false,
      "inputs": [
        {
          "name": "newDeployer",
          "type": "address"
        }
      ],
      "name": "setDeployer",
      "outputs": [],
      "payable": false,
      "stateMutability": "nonpayable",
      "type": "function"
    },
    {
      "constant": false,
      "inputs": [
        {
          "name": "newOperator",
          "type": "address"
        }
      ],
      "name": "setOperator",
      "outputs": [],
      "payable": false,
      "stateMutability": "nonpayable",
      "type": "function"
    },
    {
      "constant": true,
      "inputs": [],
      "name": "deployer",
      "outputs": [
        {
          "name": "",
          "type": "address"
        }
      ],
      "payable": false,
      "stateMutability": "view",
      "type": "function"
    },
    {
      "constant": true,
      "inputs": [],
      "name": "walletLocker",
      "outputs": [
        {
          "name": "",
          "type": "address"
        }
      ],
      "payable": false,
      "stateMutability": "view",
      "type": "function"
    },
    {
      "inputs": [
        {
          "name": "deployer",
          "type": "address"
        }
      ],
      "payable": false,
      "stateMutability": "nonpayable",
      "type": "constructor"
    },
    {
      "anonymous": false,
      "inputs": [
        {
          "indexed": false,
          "name": "paymentHash",
          "type": "bytes32"
        },
        {
          "indexed": false,
          "name": "challenger",
          "type": "address"
        },
        {
          "indexed": false,
          "name": "lockedSender",
          "type": "address"
        },
        {
          "indexed": false,
          "name": "lockedRecipient",
          "type": "address"
        }
      ],
      "name": "ChallengeByPaymentEvent",
      "type": "event"
    },
    {
      "anonymous": false,
      "inputs": [
        {
          "indexed": false,
          "name": "oldWalletLocker",
          "type": "address"
        },
        {
          "indexed": false,
          "name": "newWalletLocker",
          "type": "address"
        }
      ],
      "name": "SetWalletLockerEvent",
      "type": "event"
    },
    {
      "anonymous": false,
      "inputs": [],
      "name": "FreezeWalletLockerEvent",
      "type": "event"
    },
    {
      "anonymous": false,
      "inputs": [
        {
          "indexed": false,
          "name": "oldSecurityBond",
          "type": "address"
        },
        {
          "indexed": false,
          "name": "newSecurityBond",
          "type": "address"
        }
      ],
      "name": "SetSecurityBondEvent",
      "type": "event"
    },
    {
      "anonymous": false,
      "inputs": [
        {
          "indexed": false,
          "name": "oldValidator",
          "type": "address"
        },
        {
          "indexed": false,
          "name": "newValidator",
          "type": "address"
        }
      ],
      "name": "SetValidatorEvent",
      "type": "event"
    },
    {
      "anonymous": false,
      "inputs": [
        {
          "indexed": false,
          "name": "oldConfiguration",
          "type": "address"
        },
        {
          "indexed": false,
          "name": "newConfiguration",
          "type": "address"
        }
      ],
      "name": "SetConfigurationEvent",
      "type": "event"
    },
    {
      "anonymous": false,
      "inputs": [
        {
          "indexed": false,
          "name": "oldFraudChallenge",
          "type": "address"
        },
        {
          "indexed": false,
          "name": "newFraudChallenge",
          "type": "address"
        }
      ],
      "name": "SetFraudChallengeEvent",
      "type": "event"
    },
    {
      "anonymous": false,
      "inputs": [
        {
          "indexed": false,
          "name": "oldDeployer",
          "type": "address"
        },
        {
          "indexed": false,
          "name": "newDeployer",
          "type": "address"
        }
      ],
      "name": "SetDeployerEvent",
      "type": "event"
    },
    {
      "anonymous": false,
      "inputs": [
        {
          "indexed": false,
          "name": "oldOperator",
          "type": "address"
        },
        {
          "indexed": false,
          "name": "newOperator",
          "type": "address"
        }
      ],
      "name": "SetOperatorEvent",
      "type": "event"
    },
    {
      "anonymous": false,
      "inputs": [
        {
          "indexed": false,
          "name": "wallet",
          "type": "address"
        }
      ],
      "name": "SelfDestructionDisabledEvent",
      "type": "event"
    },
    {
      "anonymous": false,
      "inputs": [
        {
          "indexed": false,
          "name": "wallet",
          "type": "address"
        }
      ],
      "name": "TriggerSelfDestructionEvent",
      "type": "event"
    },
    {
      "constant": false,
      "inputs": [
        {
          "components": [
            {
              "name": "nonce",
              "type": "uint256"
            },
            {
              "name": "amount",
              "type": "int256"
            },
            {
              "components": [
                {
                  "name": "ct",
                  "type": "address"
                },
                {
                  "name": "id",
                  "type": "uint256"
                }
              ],
              "name": "currency",
              "type": "tuple"
            },
            {
              "components": [
                {
                  "name": "nonce",
                  "type": "uint256"
                },
                {
                  "name": "wallet",
                  "type": "address"
                },
                {
                  "components": [
                    {
                      "name": "current",
                      "type": "int256"
                    },
                    {
                      "name": "previous",
                      "type": "int256"
                    }
                  ],
                  "name": "balances",
                  "type": "tuple"
                },
                {
                  "components": [
                    {
                      "components": [
                        {
                          "name": "amount",
                          "type": "int256"
                        },
                        {
                          "components": [
                            {
                              "name": "ct",
                              "type": "address"
                            },
                            {
                              "name": "id",
                              "type": "uint256"
                            }
                          ],
                          "name": "currency",
                          "type": "tuple"
                        }
                      ],
                      "name": "single",
                      "type": "tuple"
                    },
                    {
                      "components": [
                        {
                          "name": "originId",
                          "type": "uint256"
                        },
                        {
                          "components": [
                            {
                              "name": "amount",
                              "type": "int256"
                            },
                            {
                              "components": [
                                {
                                  "name": "ct",
                                  "type": "address"
                                },
                                {
                                  "name": "id",
                                  "type": "uint256"
                                }
                              ],
                              "name": "currency",
                              "type": "tuple"
                            }
                          ],
                          "name": "figure",
                          "type": "tuple"
                        }
                      ],
                      "name": "total",
                      "type": "tuple[]"
                    }
                  ],
                  "name": "fees",
                  "type": "tuple"
                }
              ],
              "name": "sender",
              "type": "tuple"
            },
            {
              "components": [
                {
                  "name": "nonce",
                  "type": "uint256"
                },
                {
                  "name": "wallet",
                  "type": "address"
                },
                {
                  "components": [
                    {
                      "name": "current",
                      "type": "int256"
                    },
                    {
                      "name": "previous",
                      "type": "int256"
                    }
                  ],
                  "name": "balances",
                  "type": "tuple"
                },
                {
                  "components": [
                    {
                      "components": [
                        {
                          "name": "originId",
                          "type": "uint256"
                        },
                        {
                          "components": [
                            {
                              "name": "amount",
                              "type": "int256"
                            },
                            {
                              "components": [
                                {
                                  "name": "ct",
                                  "type": "address"
                                },
                                {
                                  "name": "id",
                                  "type": "uint256"
                                }
                              ],
                              "name": "currency",
                              "type": "tuple"
                            }
                          ],
                          "name": "figure",
                          "type": "tuple"
                        }
                      ],
                      "name": "total",
                      "type": "tuple[]"
                    }
                  ],
                  "name": "fees",
                  "type": "tuple"
                }
              ],
              "name": "recipient",
              "type": "tuple"
            },
            {
              "components": [
                {
                  "name": "single",
                  "type": "int256"
                },
                {
                  "name": "total",
                  "type": "int256"
                }
              ],
              "name": "transfers",
              "type": "tuple"
            },
            {
              "components": [
                {
                  "components": [
                    {
                      "name": "hash",
                      "type": "bytes32"
                    },
                    {
                      "components": [
                        {
                          "name": "r",
                          "type": "bytes32"
                        },
                        {
                          "name": "s",
                          "type": "bytes32"
                        },
                        {
                          "name": "v",
                          "type": "uint8"
                        }
                      ],
                      "name": "signature",
                      "type": "tuple"
                    }
                  ],
                  "name": "wallet",
                  "type": "tuple"
                },
                {
                  "components": [
                    {
                      "name": "hash",
                      "type": "bytes32"
                    },
                    {
                      "components": [
                        {
                          "name": "r",
                          "type": "bytes32"
                        },
                        {
                          "name": "s",
                          "type": "bytes32"
                        },
                        {
                          "name": "v",
                          "type": "uint8"
                        }
                      ],
                      "name": "signature",
                      "type": "tuple"
                    }
                  ],
                  "name": "operator",
                  "type": "tuple"
                }
              ],
              "name": "seals",
              "type": "tuple"
            },
            {
              "name": "blockNumber",
              "type": "uint256"
            },
            {
              "name": "operatorId",
              "type": "uint256"
            }
          ],
          "name": "payment",
          "type": "tuple"
        }
      ],
      "name": "challenge",
      "outputs": [],
      "payable": false,
      "stateMutability": "nonpayable",
      "type": "function"
    }
  ],
  "bytecode": "0x60806040523480156200001157600080fd5b5060405160208062001f658339810180604052620000339190810190620000b6565b8080600160a060020a03811615156200004b57600080fd5b600160a060020a0381163014156200006257600080fd5b506000805461010060a860020a031916610100600160a060020a039390931692830217905560018054600160a060020a031916909117905550620000eb565b6000620000af8251620000df565b9392505050565b600060208284031215620000c957600080fd5b6000620000d78484620000a1565b949350505050565b600160a060020a031690565b611e6a80620000fb6000396000f3006080604052600436106101035763ffffffff60e060020a60003504166301370d0681146101085780631327d3d81461012a578063240625d81461014a5780632738a112146101755780632f013a001461018a5780633a5381b51461019f5780633bd7857f146101c15780634476d23b146101d6578063570ca735146101f85780635dc60def1461020d578063627f09c3146102225780636792ce6e146102425780636b0570d0146102625780636c70bee91461027757806370327ea11461028c578063892860b2146102a157806396214735146102c1578063b3ab15fb146102e1578063d1f29ec814610301578063d5f3948814610321578063e8ae41e314610336575b600080fd5b34801561011457600080fd5b50610128610123366004611892565b61034b565b005b34801561013657600080fd5b50610128610145366004611892565b6103f3565b34801561015657600080fd5b5061015f61048b565b60405161016c9190611cfd565b60405180910390f35b34801561018157600080fd5b5061012861049b565b34801561019657600080fd5b5061015f610501565b3480156101ab57600080fd5b506101b461050a565b60405161016c9190611d76565b3480156101cd57600080fd5b506101b4610519565b3480156101e257600080fd5b506101eb610528565b60405161016c9190611c4c565b34801561020457600080fd5b506101eb61053c565b34801561021957600080fd5b5061012861054b565b34801561022e57600080fd5b5061012861023d366004611892565b61059f565b34801561024e57600080fd5b5061012861025d366004611892565b610637565b34801561026e57600080fd5b506101b46106cf565b34801561028357600080fd5b506101b46106de565b34801561029857600080fd5b506101286106ed565b3480156102ad57600080fd5b506101286102bc366004611892565b610750565b3480156102cd57600080fd5b506101286102dc36600461184e565b6107ff565b3480156102ed57600080fd5b506101286102fc36600461184e565b6108c6565b34801561030d57600080fd5b5061012861031c3660046118b0565b610970565b34801561032d57600080fd5b506101eb6112de565b34801561034257600080fd5b506101b46112f2565b6000610355611301565b151561036057600080fd5b81600160a060020a038116151561037657600080fd5b6002548390600160a060020a0390811690821681146103ec5760028054600160a060020a03878116600160a060020a0319831617909255604051911694507f07998fa7be97abe2427246ae4688298c89d6196bbffdf0997b9495a8d27bc673906103e39086908890611d84565b60405180910390a15b5050505050565b60006103fd611301565b151561040857600080fd5b81600160a060020a038116151561041e57600080fd5b6004548390600160a060020a0390811690821681146103ec5760048054600160a060020a03878116600160a060020a0319831617909255604051911694507f1882af944a16549c3d4f60e3cd26f158b0c7aac3222cf32971fc21375ce05f60906103e39086908890611d84565b60065460a060020a900460ff1681565b336104a4610528565b600160a060020a0316146104b757600080fd5b60005460ff16156104c757600080fd5b7f787a5d936e74f4b564b9153575886059829c78cd9927b1be5e0d976b317ef736336040516104f69190611c4c565b60405180910390a133ff5b60005460ff1681565b600454600160a060020a031681565b600254600160a060020a031681565b6000546101009004600160a060020a031690565b600154600160a060020a031681565b610553611301565b151561055e57600080fd5b6006805460a060020a60ff02191660a060020a1790556040517f56ec8900b9c4bf84f4b715a53068ca06961dd49084c07b481931e2c2045346e690600090a1565b60006105a9611301565b15156105b457600080fd5b81600160a060020a03811615156105ca57600080fd5b6003548390600160a060020a0390811690821681146103ec5760038054600160a060020a03878116600160a060020a0319831617909255604051911694507f634f61bf00e14adedce330c80c2823e16e184f189ebe853e1ddecc4a268477ff906103e39086908890611d84565b6000610641611301565b151561064c57600080fd5b81600160a060020a038116151561066257600080fd5b6005548390600160a060020a0390811690821681146103ec5760058054600160a060020a03878116600160a060020a0319831617909255604051911694507fc9f3f00c1760fe26985aeacb814a21c56ea289d680562e89b249681b08c30382906103e39086908890611d84565b600554600160a060020a031681565b600354600160a060020a031681565b336106f6610528565b600160a060020a03161461070957600080fd5b6000805460ff191660011790556040517fd5a2a04a775c741c2ca0dc46ea7ce4835190e1aaf1ca018def0e82568ec3361690610746903390611c4c565b60405180910390a1565b600061075a611301565b151561076557600080fd5b81600160a060020a038116151561077b57600080fd5b6006548390600160a060020a0390811690821681146103ec5760065460a060020a900460ff16156107ab57600080fd5b60068054600160a060020a03878116600160a060020a0319831617909255604051911694507fa44d361e26327b72a7ccbeae801b3c5cd7677ea4fa74168b289e273c46bfecfc906103e39086908890611d84565b6000610809611301565b151561081457600080fd5b81600160a060020a038116151561082a57600080fd5b600160a060020a03811630141561084057600080fd5b600054600160a060020a0384811661010090920416146108c15760008054600160a060020a0385811661010090810261010060a860020a0319841617909355604051929091041692507f977e5fa58e458501775e0008d275006294c5249e3c08d1d0e3a9f3acad14f6e4906108b89084908690611c60565b60405180910390a15b505050565b60006108d0611317565b15156108db57600080fd5b81600160a060020a03811615156108f157600080fd5b600160a060020a03811630141561090757600080fd5b600154600160a060020a038481169116146108c15760018054600160a060020a03858116600160a060020a0319831617909255604051911692507f9f611b789425d0d5b90b920f1b2852907dd865c80074a30b1629aaa041d1812c906108b89084908690611c60565b6000806000600360009054906101000a9004600160a060020a0316600160a060020a031663f71e860f6040518163ffffffff1660e060020a028152600401602060405180830381600087803b1580156109c857600080fd5b505af11580156109dc573d6000803e3d6000fd5b505050506040513d601f19601f82011682018060405250610a009190810190611874565b1515610a0b57600080fd5b6004805460405160e060020a63e415b3930281528692600160a060020a039092169163e415b39391610a3f91859101611d9f565b602060405180830381600087803b158015610a5957600080fd5b505af1158015610a6d573d6000803e3d6000fd5b505050506040513d601f19601f82011682018060405250610a919190810190611874565b1515610a9c57600080fd5b6004805460405160e060020a63d7858faf028152600160a060020a039091169163d7858faf91610ace91899101611d9f565b602060405180830381600087803b158015610ae857600080fd5b505af1158015610afc573d6000803e3d6000fd5b505050506040513d601f19601f82011682018060405250610b209190810190611874565b1515610b2b57600080fd5b6004805460c087015151805160209182015160608a01519092015160405160e060020a63041b6fa3028152600160a060020a039094169463041b6fa394610b7494929101611d4e565b602060405180830381600087803b158015610b8e57600080fd5b505af1158015610ba2573d6000803e3d6000fd5b505050506040513d601f19601f82011682018060405250610bc69190810190611874565b6004805460405160e060020a638ec768f5028152929650600160a060020a031691638ec768f591610bf991899101611d9f565b602060405180830381600087803b158015610c1357600080fd5b505af1158015610c27573d6000803e3d6000fd5b505050506040513d601f19601f82011682018060405250610c4b9190810190611874565b610de7576004805460405160e060020a63a08f115f028152600160a060020a039091169163a08f115f91610c8191899101611d9f565b602060405180830381600087803b158015610c9b57600080fd5b505af1158015610caf573d6000803e3d6000fd5b505050506040513d601f19601f82011682018060405250610cd39190810190611874565b8015610d5e57506004805460405160e060020a63809ee2d5028152600160a060020a039091169163809ee2d591610d0c91899101611d9f565b602060405180830381600087803b158015610d2657600080fd5b505af1158015610d3a573d6000803e3d6000fd5b505050506040513d601f19601f82011682018060405250610d5e9190810190611874565b6004805460405160e160020a634024f241028152600160a060020a0390911691638049e48291610d90918a9101611d9f565b602060405180830381600087803b158015610daa57600080fd5b505af1158015610dbe573d6000803e3d6000fd5b505050506040513d601f19601f82011682018060405250610de29190810190611874565b610f7a565b6004805460405160e060020a637cd0ab59028152600160a060020a0390911691637cd0ab5991610e1991899101611d9f565b602060405180830381600087803b158015610e3357600080fd5b505af1158015610e47573d6000803e3d6000fd5b505050506040513d601f19601f82011682018060405250610e6b9190810190611874565b8015610ef657506004805460405160e460020a630fe4be13028152600160a060020a039091169163fe4be13091610ea491899101611d9f565b602060405180830381600087803b158015610ebe57600080fd5b505af1158015610ed2573d6000803e3d6000fd5b505050506040513d601f19601f82011682018060405250610ef69190810190611874565b6004805460405160e160020a63376032b9028152600160a060020a0390911691636ec0657291610f28918a9101611d9f565b602060405180830381600087803b158015610f4257600080fd5b505af1158015610f56573d6000803e3d6000fd5b505050506040513d601f19601f82011682018060405250610f7a9190810190611874565b92509250838015610f885750825b8015610f915750815b15610f9b57600080fd5b600360009054906101000a9004600160a060020a0316600160a060020a031663f8e6e8886040518163ffffffff1660e060020a028152600401600060405180830381600087803b158015610fee57600080fd5b505af1158015611002573d6000803e3d6000fd5b505060025460c0880151602001515160405160e060020a6388cb0a49028152600160a060020a0390921693506388cb0a49925061104191600401611d0b565b600060405180830381600087803b15801561105b57600080fd5b505af115801561106f573d6000803e3d6000fd5b50506005546003546040805160e060020a639699f3370281529051600160a060020a03938416955063760b82929450339390921691639699f337916004808201926020929091908290030181600087803b1580156110cc57600080fd5b505af11580156110e0573d6000803e3d6000fd5b505050506040513d601f19601f8201168201806040525061110491908101906118e4565b60006040518463ffffffff1660e060020a02815260040161112793929190611cd5565b600060405180830381600087803b15801561114157600080fd5b505af1158015611155573d6000803e3d6000fd5b505050508215156111e757600654606086015160208082015160409283015151838a01518051930151935160e160020a634d2a2991028152600160a060020a0390951694639a545322946111b494339392909190600090600401611c7b565b600060405180830381600087803b1580156111ce57600080fd5b505af11580156111e2573d6000803e3d6000fd5b505050505b81151561127557600654608086015160208082015160409283015151838a01518051930151935160e160020a634d2a2991028152600160a060020a0390951694639a5453229461124294339392909190600090600401611c7b565b600060405180830381600087803b15801561125c57600080fd5b505af1158015611270573d6000803e3d6000fd5b505050505b60c085015160200151517f1867d422c3d2f9832da01618be1211b2a501f160977a3a42ef3f262fcd4c65869033856112b5578760600151602001516112b8565b60005b856112cb578860800151602001516112ce565b60005b6040516103e39493929190611d19565b6000546101009004600160a060020a031681565b600654600160a060020a031681565b6000546101009004600160a060020a0316331490565b600154600160a060020a0316331490565b60006113348235611e00565b9392505050565b6000601f8201831361134c57600080fd5b813561135f61135a82611dd6565b611db0565b9150818183526020840193506020810190508385608084028201111561138457600080fd5b60005b838110156113b2578161139a888261148c565b84525060209092019160809190910190600101611387565b5050505092915050565b60006113348251611e0c565b60006113348235611e11565b60006113348235611e1a565b6000604082840312156113f257600080fd5b6113fc6040611db0565b9050600061140a8484611328565b825250602061141b848483016113c8565b60208301525092915050565b60006040828403121561143957600080fd5b6114436040611db0565b9050600061140a84846113c8565b60006060828403121561146357600080fd5b61146d6040611db0565b9050600061147b84846113c8565b825250602061141b848483016113e0565b60006080828403121561149e57600080fd5b6114a86040611db0565b905060006114b684846113c8565b825250602061141b84848301611451565b600060a082840312156114d957600080fd5b6114e36080611db0565b905060006114f184846113c8565b825250602061150284848301611328565b602083015250604061151684828501611427565b60408301525060808201356001604060020a0381111561153557600080fd5b611541848285016117b1565b60608301525092915050565b600060a0828403121561155f57600080fd5b6115696080611db0565b9050600061157784846113c8565b825250602061158884848301611328565b602083015250604061159c84828501611427565b60408301525060808201356001604060020a038111156115bb57600080fd5b6115418482850161175f565b600061024082840312156115da57600080fd5b6115e5610120611db0565b905060006115f384846113c8565b8252506020611604848483016113c8565b6020830152506040611618848285016113e0565b60408301525060808201356001604060020a0381111561163757600080fd5b6116438482850161154d565b60608301525060a08201356001604060020a0381111561166257600080fd5b61166e848285016114c7565b60808301525060c061168284828501611427565b60a083015250610100611697848285016117fa565b60c0830152506102006116ac848285016113c8565b60e0830152506102206116c1848285016113c8565b6101008301525092915050565b6000608082840312156116e057600080fd5b6116ea6040611db0565b905060006116f884846113c8565b825250602061141b8484830160006060828403121561171657600080fd5b6117206060611db0565b9050600061172e84846113c8565b825250602061173f848483016113c8565b602083015250604061175384828501611842565b60408301525092915050565b60006080828403121561177157600080fd5b61177b6040611db0565b905060006117898484611451565b82525060608201356001604060020a038111156117a557600080fd5b61141b8482850161133b565b6000602082840312156117c357600080fd5b6117cd6020611db0565b905081356001604060020a038111156117e557600080fd5b6117f18482850161133b565b82525092915050565b6000610100828403121561180d57600080fd5b6118176040611db0565b9050600061182584846116ce565b825250608061141b848483016116ce565b60006113348251611e11565b60006113348235611e14565b60006020828403121561186057600080fd5b600061186c8484611328565b949350505050565b60006020828403121561188657600080fd5b600061186c84846113bc565b6000602082840312156118a457600080fd5b600061186c84846113d4565b6000602082840312156118c257600080fd5b81356001604060020a038111156118d857600080fd5b61186c848285016115c7565b6000602082840312156118f657600080fd5b600061186c8484611836565b61190b81611e00565b82525050565b600061191c82611dfc565b80845260208401935061192e83611df6565b60005b8281101561195e576119448683516119eb565b61194d82611df6565b608096909601959150600101611931565b5093949350505050565b61190b81611e0c565b61190b81611e11565b61190b81611e1a565b61190b81611e25565b8051604083019061199d8482611902565b5060208201516119b06020850182611971565b50505050565b8051604083019061199d8482611971565b805160608301906119d88482611971565b5060208201516119b0602085018261198c565b805160808301906119fc8482611971565b5060208201516119b060208501826119c7565b805160009060a0840190611a238582611971565b506020830151611a366020860182611902565b506040830151611a4960408601826119b6565b5060608301518482036080860152611a618282611c06565b95945050505050565b805160009060a0840190611a7e8582611971565b506020830151611a916020860182611902565b506040830151611aa460408601826119b6565b5060608301518482036080860152611a618282611bda565b8051600090610240840190611ad18582611971565b506020830151611ae46020860182611971565b506040830151611af7604086018261198c565b5060608301518482036080860152611b0f8282611a6a565b915050608083015184820360a0860152611b298282611a0f565b91505060a0830151611b3e60c08601826119b6565b5060c0830151611b52610100860182611c1e565b5060e0830151611b66610200860182611971565b50610100830151611b7b610220860182611971565b509392505050565b80516080830190611b948482611971565b5060208201516119b060208501825b80516060830190611bb48482611971565b506020820151611bc76020850182611971565b5060408201516119b06040850182611c43565b80516000906080840190611bee85826119c7565b5060208301518482036060860152611a618282611911565b8051602080845260009190840190611a618282611911565b8051610100830190611c308482611b83565b5060208201516119b06080850182611b83565b61190b81611e14565b60208101611c5a8284611902565b92915050565b60408101611c6e8285611902565b6113346020830184611902565b60c08101611c898289611902565b611c966020830188611902565b611ca36040830187611971565b611cb06060830186611902565b611cbd6080830185611971565b611cca60a0830184611983565b979650505050505050565b60608101611ce38286611902565b611cf06020830185611971565b61186c6040830184611983565b60208101611c5a8284611968565b60208101611c5a8284611971565b60808101611d278287611971565b611d346020830186611902565b611d416040830185611902565b611a616060830184611902565b60a08101611d5c8286611971565b611d696020830185611ba3565b61186c6080830184611902565b60208101611c5a828461197a565b60408101611d92828561197a565b611334602083018461197a565b602080825281016113348184611abc565b6040518181016001604060020a0381118282101715611dce57600080fd5b604052919050565b60006001604060020a03821115611dec57600080fd5b5060209081020190565b60200190565b5190565b600160a060020a031690565b151590565b90565b60ff1690565b6000611c5a82611e00565b6000611c5a82611e115600a265627a7a72305820855e1885fd9bf3be9c14a50883e209495c998914f10931504b7611a206734c106c6578706572696d656e74616cf50037",
  "source": "/*\n * Hubii Nahmii\n *\n * Compliant with the Hubii Nahmii specification v0.12.\n *\n * Copyright (C) 2017-2018 Hubii AS\n */\n\npragma solidity ^0.4.25;\npragma experimental ABIEncoderV2;\n\nimport {Ownable} from \"./Ownable.sol\";\nimport {FraudChallengable} from \"./FraudChallengable.sol\";\nimport {ConfigurableOperational} from \"./ConfigurableOperational.sol\";\nimport {Validatable} from \"./Validatable.sol\";\nimport {SecurityBondable} from \"./SecurityBondable.sol\";\nimport {WalletLockable} from \"./WalletLockable.sol\";\nimport {PaymentTypesLib} from \"./PaymentTypesLib.sol\";\n\n/**\n * @title FraudChallengeByPayment\n * @notice Where driips are challenged wrt fraud by mismatch in single trade property values\n */\ncontract FraudChallengeByPayment is Ownable, FraudChallengable, ConfigurableOperational, Validatable,\nSecurityBondable, WalletLockable {\n    //\n    // Events\n    // -----------------------------------------------------------------------------------------------------------------\n    event ChallengeByPaymentEvent(bytes32 paymentHash, address challenger,\n        address lockedSender, address lockedRecipient);\n\n    //\n    // Constructor\n    // -----------------------------------------------------------------------------------------------------------------\n    constructor(address deployer) Ownable(deployer) public {\n    }\n\n    //\n    // Functions\n    // -----------------------------------------------------------------------------------------------------------------\n    /// @notice Submit a payment candidate in continuous Fraud Challenge (FC)\n    /// @param payment Fraudulent payment candidate\n    function challenge(PaymentTypesLib.Payment payment)\n    public\n    onlyOperationalModeNormal\n    onlyOperatorSealedPayment(payment)\n    {\n        require(validator.isGenuinePaymentWalletHash(payment));\n\n        // Genuineness affected by wallet not having signed the payment\n        bool genuineWalletSignature = validator.isGenuineWalletSignature(\n            payment.seals.wallet.hash, payment.seals.wallet.signature, payment.sender.wallet\n        );\n\n        // Genuineness affected by sender and recipient\n        (bool genuineSenderAndFee, bool genuineRecipient) =\n        validator.isPaymentCurrencyNonFungible(payment) ?\n        (\n        validator.isGenuinePaymentSenderOfNonFungible(payment) && validator.isGenuinePaymentFeeOfNonFungible(payment),\n        validator.isGenuinePaymentRecipientOfNonFungible(payment)\n        ) :\n        (\n        validator.isGenuinePaymentSenderOfFungible(payment) && validator.isGenuinePaymentFeeOfFungible(payment),\n    validator.isGenuinePaymentRecipientOfFungible(payment)\n    );\n\n        // Require existence of fraud signal\n        require(!(genuineWalletSignature && genuineSenderAndFee && genuineRecipient));\n\n        // Toggle operational mode exit\n        configuration.setOperationalModeExit();\n\n        // Tag payment (hash) as fraudulent\n        fraudChallenge.addFraudulentPaymentHash(payment.seals.operator.hash);\n\n        // Reward stake fraction\n        securityBond.rewardFractional(msg.sender, configuration.fraudStakeFraction(), 0);\n\n        // Lock amount of size equivalent to payment amount of sender\n        if (!genuineSenderAndFee)\n            walletLocker.lockFungibleByProxy(\n                payment.sender.wallet, msg.sender, payment.sender.balances.current,\n                payment.currency.ct, payment.currency.id, 0\n            );\n\n        // Lock amount of size equivalent to payment amount of recipient\n        if (!genuineRecipient)\n            walletLocker.lockFungibleByProxy(\n                payment.recipient.wallet, msg.sender, payment.recipient.balances.current,\n                payment.currency.ct, payment.currency.id, 0\n            );\n\n        // Emit event\n        emit ChallengeByPaymentEvent(\n            payment.seals.operator.hash, msg.sender,\n            genuineSenderAndFee ? address(0) : payment.sender.wallet,\n            genuineRecipient ? address(0) : payment.recipient.wallet\n        );\n    }\n}",
  "sourcePath": "/opt/buildagent/work/855e104608380c36/contracts/FraudChallengeByPayment.sol",
  "compiler": {
    "name": "solc",
    "version": "0.4.25+commit.59dbf8f1.Emscripten.clang"
  },
  "schemaVersion": "2.0.2",
  "updatedAt": "2019-04-02T08:24:31.990Z"
}