{
  "contractName": "FraudChallengeBySuccessiveTrades",
  "abi": [
    {
      "inputs": [
        {
          "internalType": "address",
          "name": "deployer",
          "type": "address"
        }
      ],
      "payable": false,
      "stateMutability": "nonpayable",
      "type": "constructor"
    },
    {
      "anonymous": false,
      "inputs": [
        {
          "indexed": false,
          "internalType": "bytes32",
          "name": "firstTradeHash",
          "type": "bytes32"
        },
        {
          "indexed": false,
          "internalType": "bytes32",
          "name": "lastTradeHash",
          "type": "bytes32"
        },
        {
          "indexed": false,
          "internalType": "address",
          "name": "challenger",
          "type": "address"
        },
        {
          "indexed": false,
          "internalType": "address",
          "name": "lockedWallet",
          "type": "address"
        }
      ],
      "name": "ChallengeBySuccessiveTradesEvent",
      "type": "event"
    },
    {
      "anonymous": false,
      "inputs": [],
      "name": "FreezeBalanceTrackerEvent",
      "type": "event"
    },
    {
      "anonymous": false,
      "inputs": [],
      "name": "FreezeWalletLockerEvent",
      "type": "event"
    },
    {
      "anonymous": false,
      "inputs": [
        {
          "indexed": false,
          "internalType": "address",
          "name": "wallet",
          "type": "address"
        }
      ],
      "name": "SelfDestructionDisabledEvent",
      "type": "event"
    },
    {
      "anonymous": false,
      "inputs": [
        {
          "indexed": false,
          "internalType": "contract BalanceTracker",
          "name": "oldBalanceTracker",
          "type": "address"
        },
        {
          "indexed": false,
          "internalType": "contract BalanceTracker",
          "name": "newBalanceTracker",
          "type": "address"
        }
      ],
      "name": "SetBalanceTrackerEvent",
      "type": "event"
    },
    {
      "anonymous": false,
      "inputs": [
        {
          "indexed": false,
          "internalType": "contract Configuration",
          "name": "oldConfiguration",
          "type": "address"
        },
        {
          "indexed": false,
          "internalType": "contract Configuration",
          "name": "newConfiguration",
          "type": "address"
        }
      ],
      "name": "SetConfigurationEvent",
      "type": "event"
    },
    {
      "anonymous": false,
      "inputs": [
        {
          "indexed": false,
          "internalType": "address",
          "name": "oldDeployer",
          "type": "address"
        },
        {
          "indexed": false,
          "internalType": "address",
          "name": "newDeployer",
          "type": "address"
        }
      ],
      "name": "SetDeployerEvent",
      "type": "event"
    },
    {
      "anonymous": false,
      "inputs": [
        {
          "indexed": false,
          "internalType": "contract FraudChallenge",
          "name": "oldFraudChallenge",
          "type": "address"
        },
        {
          "indexed": false,
          "internalType": "contract FraudChallenge",
          "name": "newFraudChallenge",
          "type": "address"
        }
      ],
      "name": "SetFraudChallengeEvent",
      "type": "event"
    },
    {
      "anonymous": false,
      "inputs": [
        {
          "indexed": false,
          "internalType": "address",
          "name": "oldOperator",
          "type": "address"
        },
        {
          "indexed": false,
          "internalType": "address",
          "name": "newOperator",
          "type": "address"
        }
      ],
      "name": "SetOperatorEvent",
      "type": "event"
    },
    {
      "anonymous": false,
      "inputs": [
        {
          "indexed": false,
          "internalType": "contract SecurityBond",
          "name": "oldSecurityBond",
          "type": "address"
        },
        {
          "indexed": false,
          "internalType": "contract SecurityBond",
          "name": "newSecurityBond",
          "type": "address"
        }
      ],
      "name": "SetSecurityBondEvent",
      "type": "event"
    },
    {
      "anonymous": false,
      "inputs": [
        {
          "indexed": false,
          "internalType": "contract ValidatorV2",
          "name": "oldValidator",
          "type": "address"
        },
        {
          "indexed": false,
          "internalType": "contract ValidatorV2",
          "name": "newValidator",
          "type": "address"
        }
      ],
      "name": "SetValidatorEvent",
      "type": "event"
    },
    {
      "anonymous": false,
      "inputs": [
        {
          "indexed": false,
          "internalType": "contract WalletLocker",
          "name": "oldWalletLocker",
          "type": "address"
        },
        {
          "indexed": false,
          "internalType": "contract WalletLocker",
          "name": "newWalletLocker",
          "type": "address"
        }
      ],
      "name": "SetWalletLockerEvent",
      "type": "event"
    },
    {
      "anonymous": false,
      "inputs": [
        {
          "indexed": false,
          "internalType": "address",
          "name": "wallet",
          "type": "address"
        }
      ],
      "name": "TriggerSelfDestructionEvent",
      "type": "event"
    },
    {
      "constant": true,
      "inputs": [],
      "name": "balanceTracker",
      "outputs": [
        {
          "internalType": "contract BalanceTracker",
          "name": "",
          "type": "address"
        }
      ],
      "payable": false,
      "stateMutability": "view",
      "type": "function"
    },
    {
      "constant": true,
      "inputs": [],
      "name": "balanceTrackerFrozen",
      "outputs": [
        {
          "internalType": "bool",
          "name": "",
          "type": "bool"
        }
      ],
      "payable": false,
      "stateMutability": "view",
      "type": "function"
    },
    {
      "constant": true,
      "inputs": [],
      "name": "configuration",
      "outputs": [
        {
          "internalType": "contract Configuration",
          "name": "",
          "type": "address"
        }
      ],
      "payable": false,
      "stateMutability": "view",
      "type": "function"
    },
    {
      "constant": true,
      "inputs": [],
      "name": "deployer",
      "outputs": [
        {
          "internalType": "address",
          "name": "",
          "type": "address"
        }
      ],
      "payable": false,
      "stateMutability": "view",
      "type": "function"
    },
    {
      "constant": true,
      "inputs": [],
      "name": "destructor",
      "outputs": [
        {
          "internalType": "address",
          "name": "",
          "type": "address"
        }
      ],
      "payable": false,
      "stateMutability": "view",
      "type": "function"
    },
    {
      "constant": false,
      "inputs": [],
      "name": "disableSelfDestruction",
      "outputs": [],
      "payable": false,
      "stateMutability": "nonpayable",
      "type": "function"
    },
    {
      "constant": true,
      "inputs": [],
      "name": "fraudChallenge",
      "outputs": [
        {
          "internalType": "contract FraudChallenge",
          "name": "",
          "type": "address"
        }
      ],
      "payable": false,
      "stateMutability": "view",
      "type": "function"
    },
    {
      "constant": false,
      "inputs": [],
      "name": "freezeBalanceTracker",
      "outputs": [],
      "payable": false,
      "stateMutability": "nonpayable",
      "type": "function"
    },
    {
      "constant": false,
      "inputs": [],
      "name": "freezeWalletLocker",
      "outputs": [],
      "payable": false,
      "stateMutability": "nonpayable",
      "type": "function"
    },
    {
      "constant": true,
      "inputs": [],
      "name": "operator",
      "outputs": [
        {
          "internalType": "address",
          "name": "",
          "type": "address"
        }
      ],
      "payable": false,
      "stateMutability": "view",
      "type": "function"
    },
    {
      "constant": true,
      "inputs": [],
      "name": "securityBond",
      "outputs": [
        {
          "internalType": "contract SecurityBond",
          "name": "",
          "type": "address"
        }
      ],
      "payable": false,
      "stateMutability": "view",
      "type": "function"
    },
    {
      "constant": true,
      "inputs": [],
      "name": "selfDestructionDisabled",
      "outputs": [
        {
          "internalType": "bool",
          "name": "",
          "type": "bool"
        }
      ],
      "payable": false,
      "stateMutability": "view",
      "type": "function"
    },
    {
      "constant": false,
      "inputs": [
        {
          "internalType": "contract BalanceTracker",
          "name": "newBalanceTracker",
          "type": "address"
        }
      ],
      "name": "setBalanceTracker",
      "outputs": [],
      "payable": false,
      "stateMutability": "nonpayable",
      "type": "function"
    },
    {
      "constant": false,
      "inputs": [
        {
          "internalType": "contract Configuration",
          "name": "newConfiguration",
          "type": "address"
        }
      ],
      "name": "setConfiguration",
      "outputs": [],
      "payable": false,
      "stateMutability": "nonpayable",
      "type": "function"
    },
    {
      "constant": false,
      "inputs": [
        {
          "internalType": "address",
          "name": "newDeployer",
          "type": "address"
        }
      ],
      "name": "setDeployer",
      "outputs": [],
      "payable": false,
      "stateMutability": "nonpayable",
      "type": "function"
    },
    {
      "constant": false,
      "inputs": [
        {
          "internalType": "contract FraudChallenge",
          "name": "newFraudChallenge",
          "type": "address"
        }
      ],
      "name": "setFraudChallenge",
      "outputs": [],
      "payable": false,
      "stateMutability": "nonpayable",
      "type": "function"
    },
    {
      "constant": false,
      "inputs": [
        {
          "internalType": "address",
          "name": "newOperator",
          "type": "address"
        }
      ],
      "name": "setOperator",
      "outputs": [],
      "payable": false,
      "stateMutability": "nonpayable",
      "type": "function"
    },
    {
      "constant": false,
      "inputs": [
        {
          "internalType": "contract SecurityBond",
          "name": "newSecurityBond",
          "type": "address"
        }
      ],
      "name": "setSecurityBond",
      "outputs": [],
      "payable": false,
      "stateMutability": "nonpayable",
      "type": "function"
    },
    {
      "constant": false,
      "inputs": [
        {
          "internalType": "contract ValidatorV2",
          "name": "newValidator",
          "type": "address"
        }
      ],
      "name": "setValidator",
      "outputs": [],
      "payable": false,
      "stateMutability": "nonpayable",
      "type": "function"
    },
    {
      "constant": false,
      "inputs": [
        {
          "internalType": "contract WalletLocker",
          "name": "newWalletLocker",
          "type": "address"
        }
      ],
      "name": "setWalletLocker",
      "outputs": [],
      "payable": false,
      "stateMutability": "nonpayable",
      "type": "function"
    },
    {
      "constant": false,
      "inputs": [],
      "name": "triggerSelfDestruction",
      "outputs": [],
      "payable": false,
      "stateMutability": "nonpayable",
      "type": "function"
    },
    {
      "constant": true,
      "inputs": [],
      "name": "validator",
      "outputs": [
        {
          "internalType": "contract ValidatorV2",
          "name": "",
          "type": "address"
        }
      ],
      "payable": false,
      "stateMutability": "view",
      "type": "function"
    },
    {
      "constant": true,
      "inputs": [],
      "name": "walletLocker",
      "outputs": [
        {
          "internalType": "contract WalletLocker",
          "name": "",
          "type": "address"
        }
      ],
      "payable": false,
      "stateMutability": "view",
      "type": "function"
    },
    {
      "constant": true,
      "inputs": [],
      "name": "walletLockerFrozen",
      "outputs": [
        {
          "internalType": "bool",
          "name": "",
          "type": "bool"
        }
      ],
      "payable": false,
      "stateMutability": "view",
      "type": "function"
    },
    {
      "constant": false,
      "inputs": [
        {
          "components": [
            {
              "internalType": "uint256",
              "name": "nonce",
              "type": "uint256"
            },
            {
              "internalType": "int256",
              "name": "amount",
              "type": "int256"
            },
            {
              "components": [
                {
                  "components": [
                    {
                      "internalType": "address",
                      "name": "ct",
                      "type": "address"
                    },
                    {
                      "internalType": "uint256",
                      "name": "id",
                      "type": "uint256"
                    }
                  ],
                  "internalType": "struct MonetaryTypesLib.Currency",
                  "name": "intended",
                  "type": "tuple"
                },
                {
                  "components": [
                    {
                      "internalType": "address",
                      "name": "ct",
                      "type": "address"
                    },
                    {
                      "internalType": "uint256",
                      "name": "id",
                      "type": "uint256"
                    }
                  ],
                  "internalType": "struct MonetaryTypesLib.Currency",
                  "name": "conjugate",
                  "type": "tuple"
                }
              ],
              "internalType": "struct NahmiiTypesLib.IntendedConjugateCurrency",
              "name": "currencies",
              "type": "tuple"
            },
            {
              "internalType": "int256",
              "name": "rate",
              "type": "int256"
            },
            {
              "components": [
                {
                  "internalType": "uint256",
                  "name": "nonce",
                  "type": "uint256"
                },
                {
                  "internalType": "address",
                  "name": "wallet",
                  "type": "address"
                },
                {
                  "internalType": "uint256",
                  "name": "rollingVolume",
                  "type": "uint256"
                },
                {
                  "internalType": "enum TradeTypesLib.LiquidityRole",
                  "name": "liquidityRole",
                  "type": "uint8"
                },
                {
                  "components": [
                    {
                      "internalType": "int256",
                      "name": "amount",
                      "type": "int256"
                    },
                    {
                      "components": [
                        {
                          "internalType": "bytes32",
                          "name": "wallet",
                          "type": "bytes32"
                        },
                        {
                          "internalType": "bytes32",
                          "name": "operator",
                          "type": "bytes32"
                        }
                      ],
                      "internalType": "struct NahmiiTypesLib.WalletOperatorHashes",
                      "name": "hashes",
                      "type": "tuple"
                    },
                    {
                      "components": [
                        {
                          "internalType": "int256",
                          "name": "current",
                          "type": "int256"
                        },
                        {
                          "internalType": "int256",
                          "name": "previous",
                          "type": "int256"
                        }
                      ],
                      "internalType": "struct NahmiiTypesLib.CurrentPreviousInt256",
                      "name": "residuals",
                      "type": "tuple"
                    }
                  ],
                  "internalType": "struct TradeTypesLib.TradeOrder",
                  "name": "order",
                  "type": "tuple"
                },
                {
                  "components": [
                    {
                      "components": [
                        {
                          "internalType": "int256",
                          "name": "current",
                          "type": "int256"
                        },
                        {
                          "internalType": "int256",
                          "name": "previous",
                          "type": "int256"
                        }
                      ],
                      "internalType": "struct NahmiiTypesLib.CurrentPreviousInt256",
                      "name": "intended",
                      "type": "tuple"
                    },
                    {
                      "components": [
                        {
                          "internalType": "int256",
                          "name": "current",
                          "type": "int256"
                        },
                        {
                          "internalType": "int256",
                          "name": "previous",
                          "type": "int256"
                        }
                      ],
                      "internalType": "struct NahmiiTypesLib.CurrentPreviousInt256",
                      "name": "conjugate",
                      "type": "tuple"
                    }
                  ],
                  "internalType": "struct NahmiiTypesLib.IntendedConjugateCurrentPreviousInt256",
                  "name": "balances",
                  "type": "tuple"
                },
                {
                  "components": [
                    {
                      "components": [
                        {
                          "internalType": "int256",
                          "name": "amount",
                          "type": "int256"
                        },
                        {
                          "components": [
                            {
                              "internalType": "address",
                              "name": "ct",
                              "type": "address"
                            },
                            {
                              "internalType": "uint256",
                              "name": "id",
                              "type": "uint256"
                            }
                          ],
                          "internalType": "struct MonetaryTypesLib.Currency",
                          "name": "currency",
                          "type": "tuple"
                        }
                      ],
                      "internalType": "struct MonetaryTypesLib.Figure",
                      "name": "single",
                      "type": "tuple"
                    },
                    {
                      "components": [
                        {
                          "internalType": "uint256",
                          "name": "originId",
                          "type": "uint256"
                        },
                        {
                          "components": [
                            {
                              "internalType": "int256",
                              "name": "amount",
                              "type": "int256"
                            },
                            {
                              "components": [
                                {
                                  "internalType": "address",
                                  "name": "ct",
                                  "type": "address"
                                },
                                {
                                  "internalType": "uint256",
                                  "name": "id",
                                  "type": "uint256"
                                }
                              ],
                              "internalType": "struct MonetaryTypesLib.Currency",
                              "name": "currency",
                              "type": "tuple"
                            }
                          ],
                          "internalType": "struct MonetaryTypesLib.Figure",
                          "name": "figure",
                          "type": "tuple"
                        }
                      ],
                      "internalType": "struct NahmiiTypesLib.OriginFigure[]",
                      "name": "total",
                      "type": "tuple[]"
                    }
                  ],
                  "internalType": "struct NahmiiTypesLib.SingleFigureTotalOriginFigures",
                  "name": "fees",
                  "type": "tuple"
                }
              ],
              "internalType": "struct TradeTypesLib.TradeParty",
              "name": "buyer",
              "type": "tuple"
            },
            {
              "components": [
                {
                  "internalType": "uint256",
                  "name": "nonce",
                  "type": "uint256"
                },
                {
                  "internalType": "address",
                  "name": "wallet",
                  "type": "address"
                },
                {
                  "internalType": "uint256",
                  "name": "rollingVolume",
                  "type": "uint256"
                },
                {
                  "internalType": "enum TradeTypesLib.LiquidityRole",
                  "name": "liquidityRole",
                  "type": "uint8"
                },
                {
                  "components": [
                    {
                      "internalType": "int256",
                      "name": "amount",
                      "type": "int256"
                    },
                    {
                      "components": [
                        {
                          "internalType": "bytes32",
                          "name": "wallet",
                          "type": "bytes32"
                        },
                        {
                          "internalType": "bytes32",
                          "name": "operator",
                          "type": "bytes32"
                        }
                      ],
                      "internalType": "struct NahmiiTypesLib.WalletOperatorHashes",
                      "name": "hashes",
                      "type": "tuple"
                    },
                    {
                      "components": [
                        {
                          "internalType": "int256",
                          "name": "current",
                          "type": "int256"
                        },
                        {
                          "internalType": "int256",
                          "name": "previous",
                          "type": "int256"
                        }
                      ],
                      "internalType": "struct NahmiiTypesLib.CurrentPreviousInt256",
                      "name": "residuals",
                      "type": "tuple"
                    }
                  ],
                  "internalType": "struct TradeTypesLib.TradeOrder",
                  "name": "order",
                  "type": "tuple"
                },
                {
                  "components": [
                    {
                      "components": [
                        {
                          "internalType": "int256",
                          "name": "current",
                          "type": "int256"
                        },
                        {
                          "internalType": "int256",
                          "name": "previous",
                          "type": "int256"
                        }
                      ],
                      "internalType": "struct NahmiiTypesLib.CurrentPreviousInt256",
                      "name": "intended",
                      "type": "tuple"
                    },
                    {
                      "components": [
                        {
                          "internalType": "int256",
                          "name": "current",
                          "type": "int256"
                        },
                        {
                          "internalType": "int256",
                          "name": "previous",
                          "type": "int256"
                        }
                      ],
                      "internalType": "struct NahmiiTypesLib.CurrentPreviousInt256",
                      "name": "conjugate",
                      "type": "tuple"
                    }
                  ],
                  "internalType": "struct NahmiiTypesLib.IntendedConjugateCurrentPreviousInt256",
                  "name": "balances",
                  "type": "tuple"
                },
                {
                  "components": [
                    {
                      "components": [
                        {
                          "internalType": "int256",
                          "name": "amount",
                          "type": "int256"
                        },
                        {
                          "components": [
                            {
                              "internalType": "address",
                              "name": "ct",
                              "type": "address"
                            },
                            {
                              "internalType": "uint256",
                              "name": "id",
                              "type": "uint256"
                            }
                          ],
                          "internalType": "struct MonetaryTypesLib.Currency",
                          "name": "currency",
                          "type": "tuple"
                        }
                      ],
                      "internalType": "struct MonetaryTypesLib.Figure",
                      "name": "single",
                      "type": "tuple"
                    },
                    {
                      "components": [
                        {
                          "internalType": "uint256",
                          "name": "originId",
                          "type": "uint256"
                        },
                        {
                          "components": [
                            {
                              "internalType": "int256",
                              "name": "amount",
                              "type": "int256"
                            },
                            {
                              "components": [
                                {
                                  "internalType": "address",
                                  "name": "ct",
                                  "type": "address"
                                },
                                {
                                  "internalType": "uint256",
                                  "name": "id",
                                  "type": "uint256"
                                }
                              ],
                              "internalType": "struct MonetaryTypesLib.Currency",
                              "name": "currency",
                              "type": "tuple"
                            }
                          ],
                          "internalType": "struct MonetaryTypesLib.Figure",
                          "name": "figure",
                          "type": "tuple"
                        }
                      ],
                      "internalType": "struct NahmiiTypesLib.OriginFigure[]",
                      "name": "total",
                      "type": "tuple[]"
                    }
                  ],
                  "internalType": "struct NahmiiTypesLib.SingleFigureTotalOriginFigures",
                  "name": "fees",
                  "type": "tuple"
                }
              ],
              "internalType": "struct TradeTypesLib.TradeParty",
              "name": "seller",
              "type": "tuple"
            },
            {
              "components": [
                {
                  "components": [
                    {
                      "internalType": "int256",
                      "name": "single",
                      "type": "int256"
                    },
                    {
                      "internalType": "int256",
                      "name": "total",
                      "type": "int256"
                    }
                  ],
                  "internalType": "struct NahmiiTypesLib.SingleTotalInt256",
                  "name": "intended",
                  "type": "tuple"
                },
                {
                  "components": [
                    {
                      "internalType": "int256",
                      "name": "single",
                      "type": "int256"
                    },
                    {
                      "internalType": "int256",
                      "name": "total",
                      "type": "int256"
                    }
                  ],
                  "internalType": "struct NahmiiTypesLib.SingleTotalInt256",
                  "name": "conjugate",
                  "type": "tuple"
                }
              ],
              "internalType": "struct NahmiiTypesLib.IntendedConjugateSingleTotalInt256",
              "name": "transfers",
              "type": "tuple"
            },
            {
              "components": [
                {
                  "internalType": "bytes32",
                  "name": "hash",
                  "type": "bytes32"
                },
                {
                  "components": [
                    {
                      "internalType": "bytes32",
                      "name": "r",
                      "type": "bytes32"
                    },
                    {
                      "internalType": "bytes32",
                      "name": "s",
                      "type": "bytes32"
                    },
                    {
                      "internalType": "uint8",
                      "name": "v",
                      "type": "uint8"
                    }
                  ],
                  "internalType": "struct NahmiiTypesLib.Signature",
                  "name": "signature",
                  "type": "tuple"
                }
              ],
              "internalType": "struct NahmiiTypesLib.Seal",
              "name": "seal",
              "type": "tuple"
            },
            {
              "internalType": "uint256",
              "name": "blockNumber",
              "type": "uint256"
            },
            {
              "internalType": "uint256",
              "name": "operatorId",
              "type": "uint256"
            }
          ],
          "internalType": "struct TradeTypesLib.Trade",
          "name": "firstTrade",
          "type": "tuple"
        },
        {
          "components": [
            {
              "internalType": "uint256",
              "name": "nonce",
              "type": "uint256"
            },
            {
              "internalType": "int256",
              "name": "amount",
              "type": "int256"
            },
            {
              "components": [
                {
                  "components": [
                    {
                      "internalType": "address",
                      "name": "ct",
                      "type": "address"
                    },
                    {
                      "internalType": "uint256",
                      "name": "id",
                      "type": "uint256"
                    }
                  ],
                  "internalType": "struct MonetaryTypesLib.Currency",
                  "name": "intended",
                  "type": "tuple"
                },
                {
                  "components": [
                    {
                      "internalType": "address",
                      "name": "ct",
                      "type": "address"
                    },
                    {
                      "internalType": "uint256",
                      "name": "id",
                      "type": "uint256"
                    }
                  ],
                  "internalType": "struct MonetaryTypesLib.Currency",
                  "name": "conjugate",
                  "type": "tuple"
                }
              ],
              "internalType": "struct NahmiiTypesLib.IntendedConjugateCurrency",
              "name": "currencies",
              "type": "tuple"
            },
            {
              "internalType": "int256",
              "name": "rate",
              "type": "int256"
            },
            {
              "components": [
                {
                  "internalType": "uint256",
                  "name": "nonce",
                  "type": "uint256"
                },
                {
                  "internalType": "address",
                  "name": "wallet",
                  "type": "address"
                },
                {
                  "internalType": "uint256",
                  "name": "rollingVolume",
                  "type": "uint256"
                },
                {
                  "internalType": "enum TradeTypesLib.LiquidityRole",
                  "name": "liquidityRole",
                  "type": "uint8"
                },
                {
                  "components": [
                    {
                      "internalType": "int256",
                      "name": "amount",
                      "type": "int256"
                    },
                    {
                      "components": [
                        {
                          "internalType": "bytes32",
                          "name": "wallet",
                          "type": "bytes32"
                        },
                        {
                          "internalType": "bytes32",
                          "name": "operator",
                          "type": "bytes32"
                        }
                      ],
                      "internalType": "struct NahmiiTypesLib.WalletOperatorHashes",
                      "name": "hashes",
                      "type": "tuple"
                    },
                    {
                      "components": [
                        {
                          "internalType": "int256",
                          "name": "current",
                          "type": "int256"
                        },
                        {
                          "internalType": "int256",
                          "name": "previous",
                          "type": "int256"
                        }
                      ],
                      "internalType": "struct NahmiiTypesLib.CurrentPreviousInt256",
                      "name": "residuals",
                      "type": "tuple"
                    }
                  ],
                  "internalType": "struct TradeTypesLib.TradeOrder",
                  "name": "order",
                  "type": "tuple"
                },
                {
                  "components": [
                    {
                      "components": [
                        {
                          "internalType": "int256",
                          "name": "current",
                          "type": "int256"
                        },
                        {
                          "internalType": "int256",
                          "name": "previous",
                          "type": "int256"
                        }
                      ],
                      "internalType": "struct NahmiiTypesLib.CurrentPreviousInt256",
                      "name": "intended",
                      "type": "tuple"
                    },
                    {
                      "components": [
                        {
                          "internalType": "int256",
                          "name": "current",
                          "type": "int256"
                        },
                        {
                          "internalType": "int256",
                          "name": "previous",
                          "type": "int256"
                        }
                      ],
                      "internalType": "struct NahmiiTypesLib.CurrentPreviousInt256",
                      "name": "conjugate",
                      "type": "tuple"
                    }
                  ],
                  "internalType": "struct NahmiiTypesLib.IntendedConjugateCurrentPreviousInt256",
                  "name": "balances",
                  "type": "tuple"
                },
                {
                  "components": [
                    {
                      "components": [
                        {
                          "internalType": "int256",
                          "name": "amount",
                          "type": "int256"
                        },
                        {
                          "components": [
                            {
                              "internalType": "address",
                              "name": "ct",
                              "type": "address"
                            },
                            {
                              "internalType": "uint256",
                              "name": "id",
                              "type": "uint256"
                            }
                          ],
                          "internalType": "struct MonetaryTypesLib.Currency",
                          "name": "currency",
                          "type": "tuple"
                        }
                      ],
                      "internalType": "struct MonetaryTypesLib.Figure",
                      "name": "single",
                      "type": "tuple"
                    },
                    {
                      "components": [
                        {
                          "internalType": "uint256",
                          "name": "originId",
                          "type": "uint256"
                        },
                        {
                          "components": [
                            {
                              "internalType": "int256",
                              "name": "amount",
                              "type": "int256"
                            },
                            {
                              "components": [
                                {
                                  "internalType": "address",
                                  "name": "ct",
                                  "type": "address"
                                },
                                {
                                  "internalType": "uint256",
                                  "name": "id",
                                  "type": "uint256"
                                }
                              ],
                              "internalType": "struct MonetaryTypesLib.Currency",
                              "name": "currency",
                              "type": "tuple"
                            }
                          ],
                          "internalType": "struct MonetaryTypesLib.Figure",
                          "name": "figure",
                          "type": "tuple"
                        }
                      ],
                      "internalType": "struct NahmiiTypesLib.OriginFigure[]",
                      "name": "total",
                      "type": "tuple[]"
                    }
                  ],
                  "internalType": "struct NahmiiTypesLib.SingleFigureTotalOriginFigures",
                  "name": "fees",
                  "type": "tuple"
                }
              ],
              "internalType": "struct TradeTypesLib.TradeParty",
              "name": "buyer",
              "type": "tuple"
            },
            {
              "components": [
                {
                  "internalType": "uint256",
                  "name": "nonce",
                  "type": "uint256"
                },
                {
                  "internalType": "address",
                  "name": "wallet",
                  "type": "address"
                },
                {
                  "internalType": "uint256",
                  "name": "rollingVolume",
                  "type": "uint256"
                },
                {
                  "internalType": "enum TradeTypesLib.LiquidityRole",
                  "name": "liquidityRole",
                  "type": "uint8"
                },
                {
                  "components": [
                    {
                      "internalType": "int256",
                      "name": "amount",
                      "type": "int256"
                    },
                    {
                      "components": [
                        {
                          "internalType": "bytes32",
                          "name": "wallet",
                          "type": "bytes32"
                        },
                        {
                          "internalType": "bytes32",
                          "name": "operator",
                          "type": "bytes32"
                        }
                      ],
                      "internalType": "struct NahmiiTypesLib.WalletOperatorHashes",
                      "name": "hashes",
                      "type": "tuple"
                    },
                    {
                      "components": [
                        {
                          "internalType": "int256",
                          "name": "current",
                          "type": "int256"
                        },
                        {
                          "internalType": "int256",
                          "name": "previous",
                          "type": "int256"
                        }
                      ],
                      "internalType": "struct NahmiiTypesLib.CurrentPreviousInt256",
                      "name": "residuals",
                      "type": "tuple"
                    }
                  ],
                  "internalType": "struct TradeTypesLib.TradeOrder",
                  "name": "order",
                  "type": "tuple"
                },
                {
                  "components": [
                    {
                      "components": [
                        {
                          "internalType": "int256",
                          "name": "current",
                          "type": "int256"
                        },
                        {
                          "internalType": "int256",
                          "name": "previous",
                          "type": "int256"
                        }
                      ],
                      "internalType": "struct NahmiiTypesLib.CurrentPreviousInt256",
                      "name": "intended",
                      "type": "tuple"
                    },
                    {
                      "components": [
                        {
                          "internalType": "int256",
                          "name": "current",
                          "type": "int256"
                        },
                        {
                          "internalType": "int256",
                          "name": "previous",
                          "type": "int256"
                        }
                      ],
                      "internalType": "struct NahmiiTypesLib.CurrentPreviousInt256",
                      "name": "conjugate",
                      "type": "tuple"
                    }
                  ],
                  "internalType": "struct NahmiiTypesLib.IntendedConjugateCurrentPreviousInt256",
                  "name": "balances",
                  "type": "tuple"
                },
                {
                  "components": [
                    {
                      "components": [
                        {
                          "internalType": "int256",
                          "name": "amount",
                          "type": "int256"
                        },
                        {
                          "components": [
                            {
                              "internalType": "address",
                              "name": "ct",
                              "type": "address"
                            },
                            {
                              "internalType": "uint256",
                              "name": "id",
                              "type": "uint256"
                            }
                          ],
                          "internalType": "struct MonetaryTypesLib.Currency",
                          "name": "currency",
                          "type": "tuple"
                        }
                      ],
                      "internalType": "struct MonetaryTypesLib.Figure",
                      "name": "single",
                      "type": "tuple"
                    },
                    {
                      "components": [
                        {
                          "internalType": "uint256",
                          "name": "originId",
                          "type": "uint256"
                        },
                        {
                          "components": [
                            {
                              "internalType": "int256",
                              "name": "amount",
                              "type": "int256"
                            },
                            {
                              "components": [
                                {
                                  "internalType": "address",
                                  "name": "ct",
                                  "type": "address"
                                },
                                {
                                  "internalType": "uint256",
                                  "name": "id",
                                  "type": "uint256"
                                }
                              ],
                              "internalType": "struct MonetaryTypesLib.Currency",
                              "name": "currency",
                              "type": "tuple"
                            }
                          ],
                          "internalType": "struct MonetaryTypesLib.Figure",
                          "name": "figure",
                          "type": "tuple"
                        }
                      ],
                      "internalType": "struct NahmiiTypesLib.OriginFigure[]",
                      "name": "total",
                      "type": "tuple[]"
                    }
                  ],
                  "internalType": "struct NahmiiTypesLib.SingleFigureTotalOriginFigures",
                  "name": "fees",
                  "type": "tuple"
                }
              ],
              "internalType": "struct TradeTypesLib.TradeParty",
              "name": "seller",
              "type": "tuple"
            },
            {
              "components": [
                {
                  "components": [
                    {
                      "internalType": "int256",
                      "name": "single",
                      "type": "int256"
                    },
                    {
                      "internalType": "int256",
                      "name": "total",
                      "type": "int256"
                    }
                  ],
                  "internalType": "struct NahmiiTypesLib.SingleTotalInt256",
                  "name": "intended",
                  "type": "tuple"
                },
                {
                  "components": [
                    {
                      "internalType": "int256",
                      "name": "single",
                      "type": "int256"
                    },
                    {
                      "internalType": "int256",
                      "name": "total",
                      "type": "int256"
                    }
                  ],
                  "internalType": "struct NahmiiTypesLib.SingleTotalInt256",
                  "name": "conjugate",
                  "type": "tuple"
                }
              ],
              "internalType": "struct NahmiiTypesLib.IntendedConjugateSingleTotalInt256",
              "name": "transfers",
              "type": "tuple"
            },
            {
              "components": [
                {
                  "internalType": "bytes32",
                  "name": "hash",
                  "type": "bytes32"
                },
                {
                  "components": [
                    {
                      "internalType": "bytes32",
                      "name": "r",
                      "type": "bytes32"
                    },
                    {
                      "internalType": "bytes32",
                      "name": "s",
                      "type": "bytes32"
                    },
                    {
                      "internalType": "uint8",
                      "name": "v",
                      "type": "uint8"
                    }
                  ],
                  "internalType": "struct NahmiiTypesLib.Signature",
                  "name": "signature",
                  "type": "tuple"
                }
              ],
              "internalType": "struct NahmiiTypesLib.Seal",
              "name": "seal",
              "type": "tuple"
            },
            {
              "internalType": "uint256",
              "name": "blockNumber",
              "type": "uint256"
            },
            {
              "internalType": "uint256",
              "name": "operatorId",
              "type": "uint256"
            }
          ],
          "internalType": "struct TradeTypesLib.Trade",
          "name": "lastTrade",
          "type": "tuple"
        },
        {
          "internalType": "address",
          "name": "wallet",
          "type": "address"
        },
        {
          "internalType": "address",
          "name": "currencyCt",
          "type": "address"
        },
        {
          "internalType": "uint256",
          "name": "currencyId",
          "type": "uint256"
        }
      ],
      "name": "challenge",
      "outputs": [],
      "payable": false,
      "stateMutability": "nonpayable",
      "type": "function"
    }
  ],
  "bytecode": "0x60806040523480156200001157600080fd5b506040516200288d3803806200288d8339810160408190526200003491620000b3565b80806001600160a01b0381166200004a57600080fd5b6001600160a01b0381163014156200006157600080fd5b5060008054610100600160a81b0319166101006001600160a01b0393909316928302179055600180546001600160a01b03191690911790555062000108565b8051620000ad81620000ee565b92915050565b600060208284031215620000c657600080fd5b6000620000d48484620000a0565b949350505050565b60006001600160a01b038216620000ad565b620000f981620000dc565b81146200010557600080fd5b50565b61277580620001186000396000f3fe608060405234801561001057600080fd5b50600436106101335760003560e01c806301370d06146101385780631327d3d81461014d5780631913909214610160578063240625d81461017e5780632738a112146101935780632f013a001461019b5780633a5381b5146101a35780633bd7857f146101ab5780633e59b706146101b35780634476d23b146101bb578063570ca735146101d0578063598b75ad146101d85780635dc60def146101eb578063627f09c3146101f35780636792ce6e146102065780636b0570d0146102195780636c70bee91461022157806370327ea114610229578063892860b2146102315780639621473514610244578063b034d88214610257578063b3ab15fb1461026a578063b52d470a1461027d578063d5f3948814610285578063e8ae41e31461028d575b600080fd5b61014b610146366004611d5b565b610295565b005b61014b61015b366004611d5b565b610336565b6101686103c7565b604051610175919061249d565b60405180910390f35b6101866103d6565b604051610175919061244c565b61014b6103e6565b61018661044c565b610168610455565b610168610464565b610186610473565b6101c3610483565b6040516101759190612347565b6101c3610497565b61014b6101e6366004611d5b565b6104a6565b61014b61056a565b61014b610201366004611d5b565b6105b9565b61014b610214366004611d5b565b61064a565b6101686106db565b6101686106ea565b61014b6106f9565b61014b61023f366004611d5b565b61075c565b61014b610252366004611d01565b610817565b61014b610265366004611db3565b6108d7565b61014b610278366004611d01565b61119a565b61014b61123d565b6101c361128c565b6101686112a0565b61029d6112af565b6102a657600080fd5b806001600160a01b0381166102ba57600080fd5b60025482906001600160a01b03908116908216811461033057600280546001600160a01b038681166001600160a01b03198316179092556040519116907f07998fa7be97abe2427246ae4688298c89d6196bbffdf0997b9495a8d27bc6739061032690839088906124ab565b60405180910390a1505b50505050565b61033e6112af565b61034757600080fd5b806001600160a01b03811661035b57600080fd5b60045482906001600160a01b03908116908216811461033057600480546001600160a01b038681166001600160a01b03198316179092556040519116907f1882af944a16549c3d4f60e3cd26f158b0c7aac3222cf32971fc21375ce05f609061032690839088906124ab565b6007546001600160a01b031681565b600654600160a01b900460ff1681565b336103ef610483565b6001600160a01b03161461040257600080fd5b60005460ff161561041257600080fd5b7f787a5d936e74f4b564b9153575886059829c78cd9927b1be5e0d976b317ef736336040516104419190612355565b60405180910390a133ff5b60005460ff1681565b6004546001600160a01b031681565b6002546001600160a01b031681565b600754600160a01b900460ff1681565b60005461010090046001600160a01b031690565b6001546001600160a01b031681565b6104ae6112af565b6104b757600080fd5b806001600160a01b0381166104cb57600080fd5b60075482906001600160a01b03908116908216811461033057600754600160a01b900460ff16156105175760405162461bcd60e51b815260040161050e906124d6565b60405180910390fd5b600780546001600160a01b038681166001600160a01b03198316179092556040519116907fb2a91d3a71b0c5bc7c083153b3474378e489506ba98bd4ddb1b9056fdc594bb59061032690839088906124ab565b6105726112af565b61057b57600080fd5b6006805460ff60a01b1916600160a01b1790556040517f56ec8900b9c4bf84f4b715a53068ca06961dd49084c07b481931e2c2045346e690600090a1565b6105c16112af565b6105ca57600080fd5b806001600160a01b0381166105de57600080fd5b60035482906001600160a01b03908116908216811461033057600380546001600160a01b038681166001600160a01b03198316179092556040519116907f634f61bf00e14adedce330c80c2823e16e184f189ebe853e1ddecc4a268477ff9061032690839088906124ab565b6106526112af565b61065b57600080fd5b806001600160a01b03811661066f57600080fd5b60055482906001600160a01b03908116908216811461033057600580546001600160a01b038681166001600160a01b03198316179092556040519116907fc9f3f00c1760fe26985aeacb814a21c56ea289d680562e89b249681b08c303829061032690839088906124ab565b6005546001600160a01b031681565b6003546001600160a01b031681565b33610702610483565b6001600160a01b03161461071557600080fd5b6000805460ff191660011790556040517fd5a2a04a775c741c2ca0dc46ea7ce4835190e1aaf1ca018def0e82568ec3361690610752903390612355565b60405180910390a1565b6107646112af565b61076d57600080fd5b806001600160a01b03811661078157600080fd5b60065482906001600160a01b03908116908216811461033057600654600160a01b900460ff16156107c45760405162461bcd60e51b815260040161050e906124f6565b600680546001600160a01b038681166001600160a01b03198316179092556040519116907fa44d361e26327b72a7ccbeae801b3c5cd7677ea4fa74168b289e273c46bfecfc9061032690839088906124ab565b61081f6112af565b61082857600080fd5b806001600160a01b03811661083c57600080fd5b6001600160a01b03811630141561085257600080fd5b6000546001600160a01b0383811661010090920416146108d357600080546001600160a01b03848116610100908102610100600160a81b03198416179093556040519290910416907f977e5fa58e458501775e0008d275006294c5249e3c08d1d0e3a9f3acad14f6e4906108c9908390869061238b565b60405180910390a1505b5050565b600360009054906101000a90046001600160a01b03166001600160a01b031663f71e860f6040518163ffffffff1660e01b815260040160206040518083038186803b15801561092557600080fd5b505afa158015610939573d6000803e3d6000fd5b505050506040513d601f19601f8201168201806040525061095d9190810190611d1f565b6109795760405162461bcd60e51b815260040161050e906124c6565b60048054604051637211c8c760e11b815287926001600160a01b039092169163e423918e916109aa91859101612506565b60206040518083038186803b1580156109c257600080fd5b505afa1580156109d6573d6000803e3d6000fd5b505050506040513d601f19601f820116820180604052506109fa9190810190611d1f565b610a165760405162461bcd60e51b815260040161050e906124e6565b60048054604051637211c8c760e11b815287926001600160a01b039092169163e423918e91610a4791859101612506565b60206040518083038186803b158015610a5f57600080fd5b505afa158015610a73573d6000803e3d6000fd5b505050506040513d601f19601f82011682018060405250610a979190810190611d1f565b610ab35760405162461bcd60e51b815260040161050e906124e6565b600480546040516303e149c360e11b81526001600160a01b03909116916307c2938691610ae4918b918a9101612517565b60206040518083038186803b158015610afc57600080fd5b505afa158015610b10573d6000803e3d6000fd5b505050506040513d601f19601f82011682018060405250610b349190810190611d1f565b610b3d57600080fd5b600480546040516303e149c360e11b81526001600160a01b03909116916307c2938691610b6e918a918a9101612517565b60206040518083038186803b158015610b8657600080fd5b505afa158015610b9a573d6000803e3d6000fd5b505050506040513d601f19601f82011682018060405250610bbe9190810190611d1f565b610bc757600080fd5b600480546040805180820182526001600160a01b03888116825260208201889052915163da0d191960e01b8152919092169263da0d191992610c0b928c92016125ec565b60206040518083038186803b158015610c2357600080fd5b505afa158015610c37573d6000803e3d6000fd5b505050506040513d601f19601f82011682018060405250610c5b9190810190611d1f565b610c6457600080fd5b600480546040805180820182526001600160a01b03888116825260208201889052915163da0d191960e01b8152919092169263da0d191992610ca8928b92016125ec565b60206040518083038186803b158015610cc057600080fd5b505afa158015610cd4573d6000803e3d6000fd5b505050506040513d601f19601f82011682018060405250610cf89190810190611d1f565b610d0157600080fd5b6000806000806000610d328c8c8c60405180604001604052808e6001600160a01b031681526020018d8152506112c5565b94509450945094509450600460009054906101000a90046001600160a01b03166001600160a01b0316633746fe3e8d878e886040518563ffffffff1660e01b8152600401610d8394939291906125ab565b60206040518083038186803b158015610d9b57600080fd5b505afa158015610daf573d6000803e3d6000fd5b505050506040513d601f19601f82011682018060405250610dd39190810190611d1f565b610ddc57600080fd5b600460009054906101000a90046001600160a01b03166001600160a01b0316634f21beda8d87868f8988886040518863ffffffff1660e01b8152600401610e299796959493929190612537565b60206040518083038186803b158015610e4157600080fd5b505afa158015610e55573d6000803e3d6000fd5b505050506040513d601f19601f82011682018060405250610e799190810190611d1f565b8015610f175750600460009054906101000a90046001600160a01b03166001600160a01b031663091081378d878e886040518563ffffffff1660e01b8152600401610ec794939291906125ab565b60206040518083038186803b158015610edf57600080fd5b505afa158015610ef3573d6000803e3d6000fd5b505050506040513d601f19601f82011682018060405250610f179190810190611d1f565b15610f2157600080fd5b600360009054906101000a90046001600160a01b03166001600160a01b031663f8e6e8886040518163ffffffff1660e01b8152600401600060405180830381600087803b158015610f7157600080fd5b505af1158015610f85573d6000803e3d6000fd5b505060025460e08e0151516040516375d8655b60e01b81526001600160a01b0390921693506375d8655b9250610fbd9160040161245a565b600060405180830381600087803b158015610fd757600080fd5b505af1158015610feb573d6000803e3d6000fd5b505060055460035460408051639699f33760e01b815290516001600160a01b03938416955063760b82929450339390921691639699f33791600480820192602092909190829003018186803b15801561104357600080fd5b505afa158015611057573d6000803e3d6000fd5b505050506040513d601f19601f8201168201806040525061107b9190810190611d3d565b60006040518463ffffffff1660e01b815260040161109b93929190612363565b600060405180830381600087803b1580156110b557600080fd5b505af11580156110c9573d6000803e3d6000fd5b50506006546001600160a01b03169150639a54532290508b336110ed8f8988611337565b8d8d60006040518763ffffffff1660e01b8152600401611112969594939291906123a6565b600060405180830381600087803b15801561112c57600080fd5b505af1158015611140573d6000803e3d6000fd5b50505060e0808e015151908d0151516040517f5ef318228204743db4562de9d5ca7ea63765f21f9e28208d8b3375c0be510bc4935061118492919033908f90612468565b60405180910390a1505050505050505050505050565b6111a26113b4565b6111ab57600080fd5b806001600160a01b0381166111bf57600080fd5b6001600160a01b0381163014156111d557600080fd5b6001546001600160a01b038381169116146108d357600180546001600160a01b038481166001600160a01b03198316179092556040519116907f9f611b789425d0d5b90b920f1b2852907dd865c80074a30b1629aaa041d1812c906108c9908390869061238b565b6112456112af565b61124e57600080fd5b6007805460ff60a01b1916600160a01b1790556040517f9c567b65fe8caab5ec7bc979a498a1322c1d4baf01a30727cbca137187560ea290600090a1565b60005461010090046001600160a01b031681565b6006546001600160a01b031681565b60005461010090046001600160a01b0316331490565b60008060008060006112d789886113c5565b94506112e388886113c5565b93506112ef8987611460565b92506112fb8887611460565b610100808b0151908a015160075492945061132a926001600160a01b0316918a918a919063ffffffff61149416565b9050945094509450945094565b600082600181111561134557fe5b61137e5781600181111561135557fe5b61136a5750608083015160a0015151516113ad565b50608083015160a0015160200151516113ad565b81600181111561138a57fe5b61139e575060a080840151015151516113ad565b5060a080840151015160200151515b9392505050565b6001546001600160a01b0316331490565b6004805460405163059057d760e01b81526000926001600160a01b039092169163059057d7916113f9918791879101612517565b60206040518083038186803b15801561141157600080fd5b505afa158015611425573d6000803e3d6000fd5b505050506040513d601f19601f820116820180604052506114499190810190611d1f565b611454576001611457565b60005b90505b92915050565b60048054604051630377f3c960e51b81526000926001600160a01b0390921691636efe7920916113f99187918791016125ec565b60006114a2868686866114bb565b6114ae878787866114bb565b0390505b95945050505050565b6000806114ca868686866114d7565b509150505b949350505050565b600080600080876001600160a01b031663a246138c888a6001600160a01b031663ded113106040518163ffffffff1660e01b815260040160206040518083038186803b15801561152657600080fd5b505afa15801561153a573d6000803e3d6000fd5b505050506040513d601f19601f8201168201806040525061155e9190810190611d3d565b895160208b01516040516001600160e01b031960e087901b16815261158b94939291908c90600401612400565b604080518083038186803b1580156115a257600080fd5b505afa1580156115b6573d6000803e3d6000fd5b505050506040513d601f19601f820116820180604052506115da9190810190611d79565b91509150600080896001600160a01b031663a246138c8a8c6001600160a01b0316634652ec746040518163ffffffff1660e01b815260040160206040518083038186803b15801561162a57600080fd5b505afa15801561163e573d6000803e3d6000fd5b505050506040513d601f19601f820116820180604052506116629190810190611d3d565b8b5160208d01516040516001600160e01b031960e087901b16815261168f94939291908e90600401612400565b604080518083038186803b1580156116a657600080fd5b505afa1580156116ba573d6000803e3d6000fd5b505050506040513d601f19601f820116820180604052506116de9190810190611d79565b90925090506116f3848363ffffffff61178e16565b60405163a682d5ad60e01b815290965073__SafeMathUintLib_______________________9063a682d5ad9061172f908690859060040161260c565b60206040518083038186803b15801561174757600080fd5b505af415801561175b573d6000803e3d6000fd5b505050506040513d601f19601f8201168201806040525061177f9190810190611d3d565b94505050505094509492505050565b60008282018183128015906117a35750838112155b806117b857506000831280156117b857508381125b61145757600080fd5b803561145a816126ed565b600082601f8301126117dd57600080fd5b81356117f06117eb8261264d565b612627565b9150818183526020840193506020810190508385608084028201111561181557600080fd5b60005b83811015611843578161182b88826119a6565b84525060209092019160809190910190600101611818565b5050505092915050565b805161145a81612701565b803561145a8161270a565b805161145a8161270a565b803561145a81612713565b803561145a8161271c565b60006040828403121561189657600080fd5b6118a06040612627565b905060006118ae84846117c1565b82525060206118bf84848301611858565b60208301525092915050565b6000604082840312156118dd57600080fd5b6118e76040612627565b905060006118ae8484611858565b60006060828403121561190757600080fd5b6119116040612627565b9050600061191f8484611858565b82525060206118bf84848301611884565b60006080828403121561194257600080fd5b61194c6040612627565b9050600061195a8484611884565b82525060406118bf84848301611884565b60006080828403121561197d57600080fd5b6119876040612627565b9050600061199584846118cb565b82525060406118bf848483016118cb565b6000608082840312156119b857600080fd5b6119c26040612627565b905060006119d08484611858565b82525060206118bf848483016118f5565b6000608082840312156119f357600080fd5b6119fd6040612627565b90506000611a0b8484611858565b82525060206118bf84848301600060608284031215611a2957600080fd5b611a336060612627565b90506000611a418484611858565b8252506020611a5284848301611858565b6020830152506040611a6684828501611cf6565b60408301525092915050565b600060808284031215611a8457600080fd5b611a8e6040612627565b90506000611a9c84846118f5565b82525060608201356001600160401b03811115611ab857600080fd5b6118bf848285016117cc565b600060a08284031215611ad657600080fd5b611ae06060612627565b90506000611aee8484611858565b8252506020611aff848483016118cb565b6020830152506060611a66848285016118cb565b60006101c08284031215611b2657600080fd5b611b3060e0612627565b90506000611b3e8484611858565b8252506020611b4f848483016117c1565b6020830152506040611b6384828501611858565b6040830152506060611b7784828501611879565b6060830152506080611b8b84828501611ac4565b608083015250610120611ba08482850161196b565b60a0830152506101a08201356001600160401b03811115611bc057600080fd5b611bcc84828501611a72565b60c08301525092915050565b60006102608284031215611beb57600080fd5b611bf6610140612627565b90506000611c048484611858565b8252506020611c1584848301611858565b6020830152506040611c2984828501611930565b60408301525060c0611c3d84828501611858565b60608301525060e08201356001600160401b03811115611c5c57600080fd5b611c6884828501611b13565b6080830152506101008201356001600160401b03811115611c8857600080fd5b611c9484828501611b13565b60a083015250610120611ca98482850161196b565b60c0830152506101a0611cbe848285016119e1565b60e083015250610220611cd384828501611858565b61010083015250610240611ce984828501611858565b6101208301525092915050565b803561145a81612729565b600060208284031215611d1357600080fd5b60006114cf84846117c1565b600060208284031215611d3157600080fd5b60006114cf848461184d565b600060208284031215611d4f57600080fd5b60006114cf8484611863565b600060208284031215611d6d57600080fd5b60006114cf848461186e565b60008060408385031215611d8c57600080fd5b6000611d988585611863565b9250506020611da985828601611863565b9150509250929050565b600080600080600060a08688031215611dcb57600080fd5b85356001600160401b03811115611de157600080fd5b611ded88828901611bd8565b95505060208601356001600160401b03811115611e0957600080fd5b611e1588828901611bd8565b9450506040611e26888289016117c1565b9350506060611e37888289016117c1565b9250506080611e4888828901611858565b9150509295509295909350565b6000611e6183836120f6565b505060800190565b611e72816126bf565b82525050565b611e7281612680565b6000611e8c82612673565b611e968185612677565b9350611ea18361266d565b8060005b83811015611ecf578151611eb98882611e55565b9750611ec48361266d565b925050600101611ea5565b509495945050505050565b611e728161268b565b611e7281612690565b611e7281612693565b611e72816126ca565b611e72816126d5565b6000611f14603f83612677565b7f4f7065726174696f6e616c206d6f6465206973206e6f74206e6f726d616c205b81527f436f6e666967757261626c654f7065726174696f6e616c2e736f6c3a32325d00602082015260400192915050565b6000611f73603083612677565b7f42616c616e636520747261636b65722066726f7a656e205b42616c616e63655481526f7261636b61626c652e736f6c3a34335d60801b602082015260400192915050565b6000611fc5602d83612677565b7f5472616465207365616c206e6f742067656e75696e65205b56616c696461746181526c626c6556322e736f6c3a37305d60981b602082015260400192915050565b6000612014602c83612677565b7f57616c6c6574206c6f636b65722066726f7a656e205b57616c6c65744c6f636b81526b61626c652e736f6c3a34335d60a01b602082015260400192915050565b805160408301906120668482611e78565b5060208201516103306020850182611ee3565b805160408301906120668482611ee3565b8051606083019061209b8482611ee3565b5060208201516103306020850182612055565b805160808301906120bf8482612055565b5060208201516103306040850182612055565b805160808301906120e38482612079565b5060208201516103306040850182612079565b805160808301906121078482611ee3565b506020820151610330602085018261208a565b8051608083019061212b8482611ee3565b50602082015161033060208501828051606083019061214a8482611ee3565b50602082015161215d6020850182611ee3565b506040820151610330604085018261233e565b80516000906080840190612184858261208a565b50602083015184820360608601526114b28282611e81565b805160a08301906121ad8482611ee3565b5060208201516121c06020850182612079565b5060408201516103306060850182612079565b80516000906101c08401906121e88582611ee3565b5060208301516121fb6020860182611e78565b50604083015161220e6040860182611ee3565b5060608301516122216060860182611ef5565b506080830151612234608086018261219c565b5060a08301516122486101208601826120d2565b5060c08301518482036101a08601526114b28282612170565b80516000906102608401906122768582611ee3565b5060208301516122896020860182611ee3565b50604083015161229c60408601826120ae565b5060608301516122af60c0860182611ee3565b50608083015184820360e08601526122c782826121d3565b91505060a08301518482036101008601526122e282826121d3565b91505060c08301516122f86101208601826120d2565b5060e083015161230c6101a086018261211a565b50610100830151612321610220860182611ee3565b50610120830151612336610240860182611ee3565b509392505050565b611e72816126b9565b6020810161145a8284611e78565b6020810161145a8284611e69565b606081016123718286611e69565b61237e6020830185611ee3565b6114cf6040830184611efe565b604081016123998285611e78565b6113ad6020830184611e78565b60c081016123b48289611e78565b6123c16020830188611e69565b6123ce6040830187611ee3565b6123db6060830186611e78565b6123e86080830185611ee3565b6123f560a0830184611efe565b979650505050505050565b60a0810161240e8288611e78565b61241b6020830187611ee3565b6124286040830186611e78565b6124356060830185611ee3565b6124426080830184611ee3565b9695505050505050565b6020810161145a8284611eda565b6020810161145a8284611ee3565b608081016124768287611ee3565b6124836020830186611ee3565b6124906040830185611e69565b6114b26060830184611e78565b6020810161145a8284611eec565b604081016124b98285611eec565b6113ad6020830184611eec565b6020808252810161145a81611f07565b6020808252810161145a81611f66565b6020808252810161145a81611fb8565b6020808252810161145a81612007565b602080825281016114578184612261565b604080825281016125288185612261565b90506113ad6020830184611e78565b60e08082528101612548818a612261565b90506125576020830189611ef5565b6125646040830188611ef5565b81810360608301526125768187612261565b90506125856080830186611ef5565b61259260a0830185611ef5565b61259f60c0830184611ee3565b98975050505050505050565b608080825281016125bc8187612261565b90506125cb6020830186611ef5565b81810360408301526125dd8185612261565b90506114b26060830184611ef5565b606080825281016125fd8185612261565b90506113ad6020830184612055565b6040810161261a8285611ee3565b6113ad6020830184611ee3565b6040518181016001600160401b038111828210171561264557600080fd5b604052919050565b60006001600160401b0382111561266357600080fd5b5060209081020190565b60200190565b5190565b90815260200190565b600061145a826126ad565b151590565b90565b600061145a82612680565b806126a8816126e0565b919050565b6001600160a01b031690565b60ff1690565b600061145a82612693565b600061145a8261269e565b600061145a82612690565b600281106126ea57fe5b50565b6126f681612680565b81146126ea57600080fd5b6126f68161268b565b6126f681612690565b6126f681612693565b600281106126ea57600080fd5b6126f6816126b956fea365627a7a72315820862407f51495d826ef87ca9f2c2b639c3f6ab88ebd6326f0b2d612449df56c466c6578706572696d656e74616cf564736f6c634300050c0040",
  "source": "/*\n * Hubii Nahmii\n *\n * Compliant with the Hubii Nahmii specification v0.12.\n *\n * Copyright (C) 2017-2018 Hubii AS\n */\n\npragma solidity >=0.4.25 <0.6.0;\npragma experimental ABIEncoderV2;\n\nimport {Ownable} from \"./Ownable.sol\";\nimport {FraudChallengable} from \"./FraudChallengable.sol\";\nimport {ConfigurableOperational} from \"./ConfigurableOperational.sol\";\nimport {ValidatableV2} from \"./ValidatableV2.sol\";\nimport {SecurityBondable} from \"./SecurityBondable.sol\";\nimport {WalletLockable} from \"./WalletLockable.sol\";\nimport {BalanceTrackable} from \"./BalanceTrackable.sol\";\nimport {TradeTypesLib} from \"./TradeTypesLib.sol\";\nimport {MonetaryTypesLib} from \"./MonetaryTypesLib.sol\";\nimport {SafeMathIntLib} from \"./SafeMathIntLib.sol\";\nimport {BalanceTracker} from \"./BalanceTracker.sol\";\nimport {BalanceTrackerLib} from \"./BalanceTrackerLib.sol\";\n\n/**\n * @title FraudChallengeBySuccessiveTrades\n * @notice Where driips are challenged wrt fraud by mismatch in successive trades\n */\ncontract FraudChallengeBySuccessiveTrades is Ownable, FraudChallengable, ConfigurableOperational, ValidatableV2,\nSecurityBondable, WalletLockable, BalanceTrackable {\n    using SafeMathIntLib for int256;\n    using BalanceTrackerLib for BalanceTracker;\n\n    //\n    // Events\n    // -----------------------------------------------------------------------------------------------------------------\n    event ChallengeBySuccessiveTradesEvent(bytes32 firstTradeHash, bytes32 lastTradeHash,\n        address challenger, address lockedWallet);\n\n    //\n    // Constructor\n    // -----------------------------------------------------------------------------------------------------------------\n    constructor(address deployer) Ownable(deployer) public {\n    }\n\n    //\n    // Functions\n    // -----------------------------------------------------------------------------------------------------------------\n    /// @notice Submit two trade candidates in continuous Fraud Challenge (FC)\n    /// to be tested for succession differences\n    /// @param firstTrade Reference trade\n    /// @param lastTrade Fraudulent trade candidate\n    /// @param wallet The address of the concerned wallet\n    /// @param currencyCt The address of the concerned currency contract (address(0) == ETH)\n    /// @param currencyId The ID of the concerned currency (0 for ETH and ERC20)\n    function challenge(\n        TradeTypesLib.Trade memory firstTrade,\n        TradeTypesLib.Trade memory lastTrade,\n        address wallet,\n        address currencyCt,\n        uint256 currencyId\n    )\n    public\n    onlyOperationalModeNormal\n    onlySealedTrade(firstTrade)\n    onlySealedTrade(lastTrade)\n    {\n        require(validator.isTradeParty(firstTrade, wallet));\n        require(validator.isTradeParty(lastTrade, wallet));\n\n        require(validator.isTradeCurrency(firstTrade, MonetaryTypesLib.Currency(currencyCt, currencyId)));\n        require(validator.isTradeCurrency(lastTrade, MonetaryTypesLib.Currency(currencyCt, currencyId)));\n\n        (\n        TradeTypesLib.TradePartyRole firstTradePartyRole,\n        TradeTypesLib.TradePartyRole lastTradePartyRole,\n        TradeTypesLib.CurrencyRole firstTradeCurrencyRole,\n        TradeTypesLib.CurrencyRole lastTradeCurrencyRole,\n        int256 deltaActiveBalance\n        )\n        = _rolesAndDeltaActiveBalance(firstTrade, lastTrade, wallet, MonetaryTypesLib.Currency(currencyCt, currencyId));\n\n        require(validator.isSuccessiveTradesPartyNonces(firstTrade, firstTradePartyRole, lastTrade, lastTradePartyRole));\n\n        // Require existence of fraud signal\n        require(!(\n        validator.isGenuineSuccessiveTradesBalances(firstTrade, firstTradePartyRole, firstTradeCurrencyRole, lastTrade, lastTradePartyRole, lastTradeCurrencyRole, deltaActiveBalance) &&\n        validator.isGenuineSuccessiveTradesTotalFees(firstTrade, firstTradePartyRole, lastTrade, lastTradePartyRole)\n        ));\n\n        // Toggle operational mode exit\n        configuration.setOperationalModeExit();\n\n        // Tag last trade (hash) as fraudulent\n        fraudChallenge.addFraudulentTradeHash(lastTrade.seal.hash);\n\n        // Reward stake fraction\n        securityBond.rewardFractional(msg.sender, configuration.fraudStakeFraction(), 0);\n\n        // Lock amount of size equivalent to wallet's balance of intended or conjugate currencies\n        walletLocker.lockFungibleByProxy(\n            wallet, msg.sender,\n            _tradeLockAmount(lastTrade, lastTradePartyRole, lastTradeCurrencyRole),\n            currencyCt, currencyId, 0\n        );\n\n        // Emit event\n        emit ChallengeBySuccessiveTradesEvent(\n            firstTrade.seal.hash, lastTrade.seal.hash, msg.sender, wallet\n        );\n    }\n\n    //\n    // Private functions\n    // -----------------------------------------------------------------------------------------------------------------\n    function _rolesAndDeltaActiveBalance(TradeTypesLib.Trade memory firstTrade, TradeTypesLib.Trade memory lastTrade, address wallet,\n        MonetaryTypesLib.Currency memory currency)\n    private\n    view\n    returns (\n        TradeTypesLib.TradePartyRole firstTradePartyRole, TradeTypesLib.TradePartyRole lastTradePartyRole,\n        TradeTypesLib.CurrencyRole firstTradeCurrencyRole, TradeTypesLib.CurrencyRole lastTradeCurrencyRole,\n        int256 deltaActiveBalance\n    )\n    {\n        firstTradePartyRole = _tradePartyRole(firstTrade, wallet);\n        lastTradePartyRole = _tradePartyRole(lastTrade, wallet);\n\n        firstTradeCurrencyRole = _tradeCurrencyRole(firstTrade, currency);\n        lastTradeCurrencyRole = _tradeCurrencyRole(lastTrade, currency);\n\n        deltaActiveBalance = balanceTracker.fungibleActiveDeltaBalanceAmountByBlockNumbers(\n            wallet, currency, firstTrade.blockNumber, lastTrade.blockNumber\n        );\n    }\n\n    function _tradePartyRole(TradeTypesLib.Trade memory trade, address wallet)\n    private\n    view\n    returns (TradeTypesLib.TradePartyRole)\n    {\n        return validator.isTradeBuyer(trade, wallet) ?\n        TradeTypesLib.TradePartyRole.Buyer :\n        TradeTypesLib.TradePartyRole.Seller;\n    }\n\n    function _tradeCurrencyRole(TradeTypesLib.Trade memory trade, MonetaryTypesLib.Currency memory currency)\n    private\n    view\n    returns (TradeTypesLib.CurrencyRole)\n    {\n        return validator.isTradeIntendedCurrency(trade, currency) ?\n        TradeTypesLib.CurrencyRole.Intended :\n        TradeTypesLib.CurrencyRole.Conjugate;\n    }\n\n    function _tradeCurrency(TradeTypesLib.Trade memory trade, TradeTypesLib.CurrencyRole currencyRole)\n    private\n    pure\n    returns (MonetaryTypesLib.Currency memory)\n    {\n        if (TradeTypesLib.CurrencyRole.Intended == currencyRole)\n            return trade.currencies.intended;\n        else // TradeTypesLib.CurrencyRole.Conjugate == currencyRole\n            return trade.currencies.conjugate;\n    }\n\n    function _tradeLockAmount(TradeTypesLib.Trade memory trade, TradeTypesLib.TradePartyRole tradePartyRole,\n        TradeTypesLib.CurrencyRole currencyRole)\n    private\n    pure\n    returns (int256)\n    {\n        if (TradeTypesLib.TradePartyRole.Buyer == tradePartyRole)\n            if (TradeTypesLib.CurrencyRole.Intended == currencyRole)\n                return trade.buyer.balances.intended.current;\n            else // TradeTypesLib.CurrencyRole.Conjugate == currencyRole\n                return trade.buyer.balances.conjugate.current;\n        else // TradeTypesLib.TradePartyRole.Seller == tradePartyRole)\n            if (TradeTypesLib.CurrencyRole.Intended == currencyRole)\n                return trade.seller.balances.intended.current;\n            else // TradeTypesLib.CurrencyRole.Conjugate == currencyRole\n                return trade.seller.balances.conjugate.current;\n    }\n}",
  "sourcePath": "/opt/buildagent/work/855e104608380c36/contracts/FraudChallengeBySuccessiveTrades.sol",
  "compiler": {
    "name": "solc",
    "version": "0.5.12+commit.7709ece9.Emscripten.clang"
  },
  "schemaVersion": "2.0.3",
  "updatedAt": "2019-10-23T00:21:40.812Z"
}