{
  "contractName": "FraudChallengeBySuccessiveTrades",
  "abi": [
    {
      "constant": false,
      "inputs": [
        {
          "name": "newFraudChallenge",
          "type": "address"
        }
      ],
      "name": "setFraudChallenge",
      "outputs": [],
      "payable": false,
      "stateMutability": "nonpayable",
      "type": "function"
    },
    {
      "constant": false,
      "inputs": [
        {
          "name": "newValidator",
          "type": "address"
        }
      ],
      "name": "setValidator",
      "outputs": [],
      "payable": false,
      "stateMutability": "nonpayable",
      "type": "function"
    },
    {
      "constant": true,
      "inputs": [],
      "name": "balanceTracker",
      "outputs": [
        {
          "name": "",
          "type": "address"
        }
      ],
      "payable": false,
      "stateMutability": "view",
      "type": "function"
    },
    {
      "constant": true,
      "inputs": [],
      "name": "walletLockerFrozen",
      "outputs": [
        {
          "name": "",
          "type": "bool"
        }
      ],
      "payable": false,
      "stateMutability": "view",
      "type": "function"
    },
    {
      "constant": false,
      "inputs": [],
      "name": "triggerSelfDestruction",
      "outputs": [],
      "payable": false,
      "stateMutability": "nonpayable",
      "type": "function"
    },
    {
      "constant": true,
      "inputs": [],
      "name": "selfDestructionDisabled",
      "outputs": [
        {
          "name": "",
          "type": "bool"
        }
      ],
      "payable": false,
      "stateMutability": "view",
      "type": "function"
    },
    {
      "constant": true,
      "inputs": [],
      "name": "validator",
      "outputs": [
        {
          "name": "",
          "type": "address"
        }
      ],
      "payable": false,
      "stateMutability": "view",
      "type": "function"
    },
    {
      "constant": true,
      "inputs": [],
      "name": "fraudChallenge",
      "outputs": [
        {
          "name": "",
          "type": "address"
        }
      ],
      "payable": false,
      "stateMutability": "view",
      "type": "function"
    },
    {
      "constant": true,
      "inputs": [],
      "name": "balanceTrackerFrozen",
      "outputs": [
        {
          "name": "",
          "type": "bool"
        }
      ],
      "payable": false,
      "stateMutability": "view",
      "type": "function"
    },
    {
      "constant": true,
      "inputs": [],
      "name": "destructor",
      "outputs": [
        {
          "name": "",
          "type": "address"
        }
      ],
      "payable": false,
      "stateMutability": "view",
      "type": "function"
    },
    {
      "constant": true,
      "inputs": [],
      "name": "operator",
      "outputs": [
        {
          "name": "",
          "type": "address"
        }
      ],
      "payable": false,
      "stateMutability": "view",
      "type": "function"
    },
    {
      "constant": false,
      "inputs": [
        {
          "name": "newBalanceTracker",
          "type": "address"
        }
      ],
      "name": "setBalanceTracker",
      "outputs": [],
      "payable": false,
      "stateMutability": "nonpayable",
      "type": "function"
    },
    {
      "constant": false,
      "inputs": [],
      "name": "freezeWalletLocker",
      "outputs": [],
      "payable": false,
      "stateMutability": "nonpayable",
      "type": "function"
    },
    {
      "constant": false,
      "inputs": [
        {
          "name": "newConfiguration",
          "type": "address"
        }
      ],
      "name": "setConfiguration",
      "outputs": [],
      "payable": false,
      "stateMutability": "nonpayable",
      "type": "function"
    },
    {
      "constant": false,
      "inputs": [
        {
          "name": "newSecurityBond",
          "type": "address"
        }
      ],
      "name": "setSecurityBond",
      "outputs": [],
      "payable": false,
      "stateMutability": "nonpayable",
      "type": "function"
    },
    {
      "constant": true,
      "inputs": [],
      "name": "securityBond",
      "outputs": [
        {
          "name": "",
          "type": "address"
        }
      ],
      "payable": false,
      "stateMutability": "view",
      "type": "function"
    },
    {
      "constant": true,
      "inputs": [],
      "name": "configuration",
      "outputs": [
        {
          "name": "",
          "type": "address"
        }
      ],
      "payable": false,
      "stateMutability": "view",
      "type": "function"
    },
    {
      "constant": false,
      "inputs": [],
      "name": "disableSelfDestruction",
      "outputs": [],
      "payable": false,
      "stateMutability": "nonpayable",
      "type": "function"
    },
    {
      "constant": false,
      "inputs": [
        {
          "name": "newWalletLocker",
          "type": "address"
        }
      ],
      "name": "setWalletLocker",
      "outputs": [],
      "payable": false,
      "stateMutability": "nonpayable",
      "type": "function"
    },
    {
      "constant": false,
      "inputs": [
        {
          "name": "newDeployer",
          "type": "address"
        }
      ],
      "name": "setDeployer",
      "outputs": [],
      "payable": false,
      "stateMutability": "nonpayable",
      "type": "function"
    },
    {
      "constant": false,
      "inputs": [
        {
          "name": "newOperator",
          "type": "address"
        }
      ],
      "name": "setOperator",
      "outputs": [],
      "payable": false,
      "stateMutability": "nonpayable",
      "type": "function"
    },
    {
      "constant": false,
      "inputs": [],
      "name": "freezeBalanceTracker",
      "outputs": [],
      "payable": false,
      "stateMutability": "nonpayable",
      "type": "function"
    },
    {
      "constant": true,
      "inputs": [],
      "name": "deployer",
      "outputs": [
        {
          "name": "",
          "type": "address"
        }
      ],
      "payable": false,
      "stateMutability": "view",
      "type": "function"
    },
    {
      "constant": true,
      "inputs": [],
      "name": "walletLocker",
      "outputs": [
        {
          "name": "",
          "type": "address"
        }
      ],
      "payable": false,
      "stateMutability": "view",
      "type": "function"
    },
    {
      "inputs": [
        {
          "name": "deployer",
          "type": "address"
        }
      ],
      "payable": false,
      "stateMutability": "nonpayable",
      "type": "constructor"
    },
    {
      "anonymous": false,
      "inputs": [
        {
          "indexed": false,
          "name": "firstTradeHash",
          "type": "bytes32"
        },
        {
          "indexed": false,
          "name": "lastTradeHash",
          "type": "bytes32"
        },
        {
          "indexed": false,
          "name": "challenger",
          "type": "address"
        },
        {
          "indexed": false,
          "name": "lockedWallet",
          "type": "address"
        }
      ],
      "name": "ChallengeBySuccessiveTradesEvent",
      "type": "event"
    },
    {
      "anonymous": false,
      "inputs": [
        {
          "indexed": false,
          "name": "oldBalanceTracker",
          "type": "address"
        },
        {
          "indexed": false,
          "name": "newBalanceTracker",
          "type": "address"
        }
      ],
      "name": "SetBalanceTrackerEvent",
      "type": "event"
    },
    {
      "anonymous": false,
      "inputs": [],
      "name": "FreezeBalanceTrackerEvent",
      "type": "event"
    },
    {
      "anonymous": false,
      "inputs": [
        {
          "indexed": false,
          "name": "oldWalletLocker",
          "type": "address"
        },
        {
          "indexed": false,
          "name": "newWalletLocker",
          "type": "address"
        }
      ],
      "name": "SetWalletLockerEvent",
      "type": "event"
    },
    {
      "anonymous": false,
      "inputs": [],
      "name": "FreezeWalletLockerEvent",
      "type": "event"
    },
    {
      "anonymous": false,
      "inputs": [
        {
          "indexed": false,
          "name": "oldSecurityBond",
          "type": "address"
        },
        {
          "indexed": false,
          "name": "newSecurityBond",
          "type": "address"
        }
      ],
      "name": "SetSecurityBondEvent",
      "type": "event"
    },
    {
      "anonymous": false,
      "inputs": [
        {
          "indexed": false,
          "name": "oldValidator",
          "type": "address"
        },
        {
          "indexed": false,
          "name": "newValidator",
          "type": "address"
        }
      ],
      "name": "SetValidatorEvent",
      "type": "event"
    },
    {
      "anonymous": false,
      "inputs": [
        {
          "indexed": false,
          "name": "oldConfiguration",
          "type": "address"
        },
        {
          "indexed": false,
          "name": "newConfiguration",
          "type": "address"
        }
      ],
      "name": "SetConfigurationEvent",
      "type": "event"
    },
    {
      "anonymous": false,
      "inputs": [
        {
          "indexed": false,
          "name": "oldFraudChallenge",
          "type": "address"
        },
        {
          "indexed": false,
          "name": "newFraudChallenge",
          "type": "address"
        }
      ],
      "name": "SetFraudChallengeEvent",
      "type": "event"
    },
    {
      "anonymous": false,
      "inputs": [
        {
          "indexed": false,
          "name": "oldDeployer",
          "type": "address"
        },
        {
          "indexed": false,
          "name": "newDeployer",
          "type": "address"
        }
      ],
      "name": "SetDeployerEvent",
      "type": "event"
    },
    {
      "anonymous": false,
      "inputs": [
        {
          "indexed": false,
          "name": "oldOperator",
          "type": "address"
        },
        {
          "indexed": false,
          "name": "newOperator",
          "type": "address"
        }
      ],
      "name": "SetOperatorEvent",
      "type": "event"
    },
    {
      "anonymous": false,
      "inputs": [
        {
          "indexed": false,
          "name": "wallet",
          "type": "address"
        }
      ],
      "name": "SelfDestructionDisabledEvent",
      "type": "event"
    },
    {
      "anonymous": false,
      "inputs": [
        {
          "indexed": false,
          "name": "wallet",
          "type": "address"
        }
      ],
      "name": "TriggerSelfDestructionEvent",
      "type": "event"
    },
    {
      "constant": false,
      "inputs": [
        {
          "components": [
            {
              "name": "nonce",
              "type": "uint256"
            },
            {
              "name": "amount",
              "type": "int256"
            },
            {
              "components": [
                {
                  "components": [
                    {
                      "name": "ct",
                      "type": "address"
                    },
                    {
                      "name": "id",
                      "type": "uint256"
                    }
                  ],
                  "name": "intended",
                  "type": "tuple"
                },
                {
                  "components": [
                    {
                      "name": "ct",
                      "type": "address"
                    },
                    {
                      "name": "id",
                      "type": "uint256"
                    }
                  ],
                  "name": "conjugate",
                  "type": "tuple"
                }
              ],
              "name": "currencies",
              "type": "tuple"
            },
            {
              "name": "rate",
              "type": "int256"
            },
            {
              "components": [
                {
                  "name": "nonce",
                  "type": "uint256"
                },
                {
                  "name": "wallet",
                  "type": "address"
                },
                {
                  "name": "rollingVolume",
                  "type": "uint256"
                },
                {
                  "name": "liquidityRole",
                  "type": "uint8"
                },
                {
                  "components": [
                    {
                      "name": "amount",
                      "type": "int256"
                    },
                    {
                      "components": [
                        {
                          "name": "wallet",
                          "type": "bytes32"
                        },
                        {
                          "name": "operator",
                          "type": "bytes32"
                        }
                      ],
                      "name": "hashes",
                      "type": "tuple"
                    },
                    {
                      "components": [
                        {
                          "name": "current",
                          "type": "int256"
                        },
                        {
                          "name": "previous",
                          "type": "int256"
                        }
                      ],
                      "name": "residuals",
                      "type": "tuple"
                    }
                  ],
                  "name": "order",
                  "type": "tuple"
                },
                {
                  "components": [
                    {
                      "components": [
                        {
                          "name": "current",
                          "type": "int256"
                        },
                        {
                          "name": "previous",
                          "type": "int256"
                        }
                      ],
                      "name": "intended",
                      "type": "tuple"
                    },
                    {
                      "components": [
                        {
                          "name": "current",
                          "type": "int256"
                        },
                        {
                          "name": "previous",
                          "type": "int256"
                        }
                      ],
                      "name": "conjugate",
                      "type": "tuple"
                    }
                  ],
                  "name": "balances",
                  "type": "tuple"
                },
                {
                  "components": [
                    {
                      "components": [
                        {
                          "name": "amount",
                          "type": "int256"
                        },
                        {
                          "components": [
                            {
                              "name": "ct",
                              "type": "address"
                            },
                            {
                              "name": "id",
                              "type": "uint256"
                            }
                          ],
                          "name": "currency",
                          "type": "tuple"
                        }
                      ],
                      "name": "single",
                      "type": "tuple"
                    },
                    {
                      "components": [
                        {
                          "name": "originId",
                          "type": "uint256"
                        },
                        {
                          "components": [
                            {
                              "name": "amount",
                              "type": "int256"
                            },
                            {
                              "components": [
                                {
                                  "name": "ct",
                                  "type": "address"
                                },
                                {
                                  "name": "id",
                                  "type": "uint256"
                                }
                              ],
                              "name": "currency",
                              "type": "tuple"
                            }
                          ],
                          "name": "figure",
                          "type": "tuple"
                        }
                      ],
                      "name": "total",
                      "type": "tuple[]"
                    }
                  ],
                  "name": "fees",
                  "type": "tuple"
                }
              ],
              "name": "buyer",
              "type": "tuple"
            },
            {
              "components": [
                {
                  "name": "nonce",
                  "type": "uint256"
                },
                {
                  "name": "wallet",
                  "type": "address"
                },
                {
                  "name": "rollingVolume",
                  "type": "uint256"
                },
                {
                  "name": "liquidityRole",
                  "type": "uint8"
                },
                {
                  "components": [
                    {
                      "name": "amount",
                      "type": "int256"
                    },
                    {
                      "components": [
                        {
                          "name": "wallet",
                          "type": "bytes32"
                        },
                        {
                          "name": "operator",
                          "type": "bytes32"
                        }
                      ],
                      "name": "hashes",
                      "type": "tuple"
                    },
                    {
                      "components": [
                        {
                          "name": "current",
                          "type": "int256"
                        },
                        {
                          "name": "previous",
                          "type": "int256"
                        }
                      ],
                      "name": "residuals",
                      "type": "tuple"
                    }
                  ],
                  "name": "order",
                  "type": "tuple"
                },
                {
                  "components": [
                    {
                      "components": [
                        {
                          "name": "current",
                          "type": "int256"
                        },
                        {
                          "name": "previous",
                          "type": "int256"
                        }
                      ],
                      "name": "intended",
                      "type": "tuple"
                    },
                    {
                      "components": [
                        {
                          "name": "current",
                          "type": "int256"
                        },
                        {
                          "name": "previous",
                          "type": "int256"
                        }
                      ],
                      "name": "conjugate",
                      "type": "tuple"
                    }
                  ],
                  "name": "balances",
                  "type": "tuple"
                },
                {
                  "components": [
                    {
                      "components": [
                        {
                          "name": "amount",
                          "type": "int256"
                        },
                        {
                          "components": [
                            {
                              "name": "ct",
                              "type": "address"
                            },
                            {
                              "name": "id",
                              "type": "uint256"
                            }
                          ],
                          "name": "currency",
                          "type": "tuple"
                        }
                      ],
                      "name": "single",
                      "type": "tuple"
                    },
                    {
                      "components": [
                        {
                          "name": "originId",
                          "type": "uint256"
                        },
                        {
                          "components": [
                            {
                              "name": "amount",
                              "type": "int256"
                            },
                            {
                              "components": [
                                {
                                  "name": "ct",
                                  "type": "address"
                                },
                                {
                                  "name": "id",
                                  "type": "uint256"
                                }
                              ],
                              "name": "currency",
                              "type": "tuple"
                            }
                          ],
                          "name": "figure",
                          "type": "tuple"
                        }
                      ],
                      "name": "total",
                      "type": "tuple[]"
                    }
                  ],
                  "name": "fees",
                  "type": "tuple"
                }
              ],
              "name": "seller",
              "type": "tuple"
            },
            {
              "components": [
                {
                  "components": [
                    {
                      "name": "single",
                      "type": "int256"
                    },
                    {
                      "name": "total",
                      "type": "int256"
                    }
                  ],
                  "name": "intended",
                  "type": "tuple"
                },
                {
                  "components": [
                    {
                      "name": "single",
                      "type": "int256"
                    },
                    {
                      "name": "total",
                      "type": "int256"
                    }
                  ],
                  "name": "conjugate",
                  "type": "tuple"
                }
              ],
              "name": "transfers",
              "type": "tuple"
            },
            {
              "components": [
                {
                  "name": "hash",
                  "type": "bytes32"
                },
                {
                  "components": [
                    {
                      "name": "r",
                      "type": "bytes32"
                    },
                    {
                      "name": "s",
                      "type": "bytes32"
                    },
                    {
                      "name": "v",
                      "type": "uint8"
                    }
                  ],
                  "name": "signature",
                  "type": "tuple"
                }
              ],
              "name": "seal",
              "type": "tuple"
            },
            {
              "name": "blockNumber",
              "type": "uint256"
            },
            {
              "name": "operatorId",
              "type": "uint256"
            }
          ],
          "name": "firstTrade",
          "type": "tuple"
        },
        {
          "components": [
            {
              "name": "nonce",
              "type": "uint256"
            },
            {
              "name": "amount",
              "type": "int256"
            },
            {
              "components": [
                {
                  "components": [
                    {
                      "name": "ct",
                      "type": "address"
                    },
                    {
                      "name": "id",
                      "type": "uint256"
                    }
                  ],
                  "name": "intended",
                  "type": "tuple"
                },
                {
                  "components": [
                    {
                      "name": "ct",
                      "type": "address"
                    },
                    {
                      "name": "id",
                      "type": "uint256"
                    }
                  ],
                  "name": "conjugate",
                  "type": "tuple"
                }
              ],
              "name": "currencies",
              "type": "tuple"
            },
            {
              "name": "rate",
              "type": "int256"
            },
            {
              "components": [
                {
                  "name": "nonce",
                  "type": "uint256"
                },
                {
                  "name": "wallet",
                  "type": "address"
                },
                {
                  "name": "rollingVolume",
                  "type": "uint256"
                },
                {
                  "name": "liquidityRole",
                  "type": "uint8"
                },
                {
                  "components": [
                    {
                      "name": "amount",
                      "type": "int256"
                    },
                    {
                      "components": [
                        {
                          "name": "wallet",
                          "type": "bytes32"
                        },
                        {
                          "name": "operator",
                          "type": "bytes32"
                        }
                      ],
                      "name": "hashes",
                      "type": "tuple"
                    },
                    {
                      "components": [
                        {
                          "name": "current",
                          "type": "int256"
                        },
                        {
                          "name": "previous",
                          "type": "int256"
                        }
                      ],
                      "name": "residuals",
                      "type": "tuple"
                    }
                  ],
                  "name": "order",
                  "type": "tuple"
                },
                {
                  "components": [
                    {
                      "components": [
                        {
                          "name": "current",
                          "type": "int256"
                        },
                        {
                          "name": "previous",
                          "type": "int256"
                        }
                      ],
                      "name": "intended",
                      "type": "tuple"
                    },
                    {
                      "components": [
                        {
                          "name": "current",
                          "type": "int256"
                        },
                        {
                          "name": "previous",
                          "type": "int256"
                        }
                      ],
                      "name": "conjugate",
                      "type": "tuple"
                    }
                  ],
                  "name": "balances",
                  "type": "tuple"
                },
                {
                  "components": [
                    {
                      "components": [
                        {
                          "name": "amount",
                          "type": "int256"
                        },
                        {
                          "components": [
                            {
                              "name": "ct",
                              "type": "address"
                            },
                            {
                              "name": "id",
                              "type": "uint256"
                            }
                          ],
                          "name": "currency",
                          "type": "tuple"
                        }
                      ],
                      "name": "single",
                      "type": "tuple"
                    },
                    {
                      "components": [
                        {
                          "name": "originId",
                          "type": "uint256"
                        },
                        {
                          "components": [
                            {
                              "name": "amount",
                              "type": "int256"
                            },
                            {
                              "components": [
                                {
                                  "name": "ct",
                                  "type": "address"
                                },
                                {
                                  "name": "id",
                                  "type": "uint256"
                                }
                              ],
                              "name": "currency",
                              "type": "tuple"
                            }
                          ],
                          "name": "figure",
                          "type": "tuple"
                        }
                      ],
                      "name": "total",
                      "type": "tuple[]"
                    }
                  ],
                  "name": "fees",
                  "type": "tuple"
                }
              ],
              "name": "buyer",
              "type": "tuple"
            },
            {
              "components": [
                {
                  "name": "nonce",
                  "type": "uint256"
                },
                {
                  "name": "wallet",
                  "type": "address"
                },
                {
                  "name": "rollingVolume",
                  "type": "uint256"
                },
                {
                  "name": "liquidityRole",
                  "type": "uint8"
                },
                {
                  "components": [
                    {
                      "name": "amount",
                      "type": "int256"
                    },
                    {
                      "components": [
                        {
                          "name": "wallet",
                          "type": "bytes32"
                        },
                        {
                          "name": "operator",
                          "type": "bytes32"
                        }
                      ],
                      "name": "hashes",
                      "type": "tuple"
                    },
                    {
                      "components": [
                        {
                          "name": "current",
                          "type": "int256"
                        },
                        {
                          "name": "previous",
                          "type": "int256"
                        }
                      ],
                      "name": "residuals",
                      "type": "tuple"
                    }
                  ],
                  "name": "order",
                  "type": "tuple"
                },
                {
                  "components": [
                    {
                      "components": [
                        {
                          "name": "current",
                          "type": "int256"
                        },
                        {
                          "name": "previous",
                          "type": "int256"
                        }
                      ],
                      "name": "intended",
                      "type": "tuple"
                    },
                    {
                      "components": [
                        {
                          "name": "current",
                          "type": "int256"
                        },
                        {
                          "name": "previous",
                          "type": "int256"
                        }
                      ],
                      "name": "conjugate",
                      "type": "tuple"
                    }
                  ],
                  "name": "balances",
                  "type": "tuple"
                },
                {
                  "components": [
                    {
                      "components": [
                        {
                          "name": "amount",
                          "type": "int256"
                        },
                        {
                          "components": [
                            {
                              "name": "ct",
                              "type": "address"
                            },
                            {
                              "name": "id",
                              "type": "uint256"
                            }
                          ],
                          "name": "currency",
                          "type": "tuple"
                        }
                      ],
                      "name": "single",
                      "type": "tuple"
                    },
                    {
                      "components": [
                        {
                          "name": "originId",
                          "type": "uint256"
                        },
                        {
                          "components": [
                            {
                              "name": "amount",
                              "type": "int256"
                            },
                            {
                              "components": [
                                {
                                  "name": "ct",
                                  "type": "address"
                                },
                                {
                                  "name": "id",
                                  "type": "uint256"
                                }
                              ],
                              "name": "currency",
                              "type": "tuple"
                            }
                          ],
                          "name": "figure",
                          "type": "tuple"
                        }
                      ],
                      "name": "total",
                      "type": "tuple[]"
                    }
                  ],
                  "name": "fees",
                  "type": "tuple"
                }
              ],
              "name": "seller",
              "type": "tuple"
            },
            {
              "components": [
                {
                  "components": [
                    {
                      "name": "single",
                      "type": "int256"
                    },
                    {
                      "name": "total",
                      "type": "int256"
                    }
                  ],
                  "name": "intended",
                  "type": "tuple"
                },
                {
                  "components": [
                    {
                      "name": "single",
                      "type": "int256"
                    },
                    {
                      "name": "total",
                      "type": "int256"
                    }
                  ],
                  "name": "conjugate",
                  "type": "tuple"
                }
              ],
              "name": "transfers",
              "type": "tuple"
            },
            {
              "components": [
                {
                  "name": "hash",
                  "type": "bytes32"
                },
                {
                  "components": [
                    {
                      "name": "r",
                      "type": "bytes32"
                    },
                    {
                      "name": "s",
                      "type": "bytes32"
                    },
                    {
                      "name": "v",
                      "type": "uint8"
                    }
                  ],
                  "name": "signature",
                  "type": "tuple"
                }
              ],
              "name": "seal",
              "type": "tuple"
            },
            {
              "name": "blockNumber",
              "type": "uint256"
            },
            {
              "name": "operatorId",
              "type": "uint256"
            }
          ],
          "name": "lastTrade",
          "type": "tuple"
        },
        {
          "name": "wallet",
          "type": "address"
        },
        {
          "name": "currencyCt",
          "type": "address"
        },
        {
          "name": "currencyId",
          "type": "uint256"
        }
      ],
      "name": "challenge",
      "outputs": [],
      "payable": false,
      "stateMutability": "nonpayable",
      "type": "function"
    }
  ],
  "bytecode": "0x60806040523480156200001157600080fd5b50604051602080620028338339810180604052620000339190810190620000b6565b8080600160a060020a03811615156200004b57600080fd5b600160a060020a0381163014156200006257600080fd5b506000805461010060a860020a031916610100600160a060020a039390931692830217905560018054600160a060020a031916909117905550620000eb565b6000620000af8251620000df565b9392505050565b600060208284031215620000c957600080fd5b6000620000d78484620000a1565b949350505050565b600160a060020a031690565b61273880620000fb6000396000f30060806040526004361061012f5763ffffffff60e060020a60003504166301370d0681146101345780631327d3d8146101565780631913909214610176578063240625d8146101a15780632738a112146101c35780632f013a00146101d85780633a5381b5146101ed5780633bd7857f146102025780633e59b706146102175780634476d23b1461022c578063570ca7351461024e578063598b75ad146102635780635dc60def14610283578063627f09c3146102985780636792ce6e146102b85780636b0570d0146102d85780636c70bee9146102ed57806370327ea114610302578063892860b2146103175780639621473514610337578063b034d88214610357578063b3ab15fb14610377578063b52d470a14610397578063d5f39488146103ac578063e8ae41e3146103c1575b600080fd5b34801561014057600080fd5b5061015461014f366004611f3d565b6103d6565b005b34801561016257600080fd5b50610154610171366004611f3d565b61047e565b34801561018257600080fd5b5061018b610516565b604051610198919061250a565b60405180910390f35b3480156101ad57600080fd5b506101b6610525565b60405161019891906124b9565b3480156101cf57600080fd5b50610154610535565b3480156101e457600080fd5b506101b661059b565b3480156101f957600080fd5b5061018b6105a4565b34801561020e57600080fd5b5061018b6105b3565b34801561022357600080fd5b506101b66105c2565b34801561023857600080fd5b506102416105d2565b60405161019891906123c2565b34801561025a57600080fd5b506102416105e6565b34801561026f57600080fd5b5061015461027e366004611f3d565b6105f5565b34801561028f57600080fd5b506101546106a4565b3480156102a457600080fd5b506101546102b3366004611f3d565b6106f8565b3480156102c457600080fd5b506101546102d3366004611f3d565b610790565b3480156102e457600080fd5b5061018b610828565b3480156102f957600080fd5b5061018b610837565b34801561030e57600080fd5b50610154610846565b34801561032357600080fd5b50610154610332366004611f3d565b6108a9565b34801561034357600080fd5b50610154610352366004611edb565b610958565b34801561036357600080fd5b50610154610372366004611f95565b610a1f565b34801561038357600080fd5b50610154610392366004611edb565b611346565b3480156103a357600080fd5b506101546113f0565b3480156103b857600080fd5b50610241611444565b3480156103cd57600080fd5b5061018b611458565b60006103e0611467565b15156103eb57600080fd5b81600160a060020a038116151561040157600080fd5b6002548390600160a060020a0390811690821681146104775760028054600160a060020a03878116600160a060020a0319831617909255604051911694507f07998fa7be97abe2427246ae4688298c89d6196bbffdf0997b9495a8d27bc6739061046e9086908890612518565b60405180910390a15b5050505050565b6000610488611467565b151561049357600080fd5b81600160a060020a03811615156104a957600080fd5b6004548390600160a060020a0390811690821681146104775760048054600160a060020a03878116600160a060020a0319831617909255604051911694507f1882af944a16549c3d4f60e3cd26f158b0c7aac3222cf32971fc21375ce05f609061046e9086908890612518565b600754600160a060020a031681565b60065460a060020a900460ff1681565b3361053e6105d2565b600160a060020a03161461055157600080fd5b60005460ff161561056157600080fd5b7f787a5d936e74f4b564b9153575886059829c78cd9927b1be5e0d976b317ef7363360405161059091906123c2565b60405180910390a133ff5b60005460ff1681565b600454600160a060020a031681565b600254600160a060020a031681565b60075460a060020a900460ff1681565b6000546101009004600160a060020a031690565b600154600160a060020a031681565b60006105ff611467565b151561060a57600080fd5b81600160a060020a038116151561062057600080fd5b6007548390600160a060020a0390811690821681146104775760075460a060020a900460ff161561065057600080fd5b60078054600160a060020a03878116600160a060020a0319831617909255604051911694507fb2a91d3a71b0c5bc7c083153b3474378e489506ba98bd4ddb1b9056fdc594bb59061046e9086908890612518565b6106ac611467565b15156106b757600080fd5b6006805460a060020a60ff02191660a060020a1790556040517f56ec8900b9c4bf84f4b715a53068ca06961dd49084c07b481931e2c2045346e690600090a1565b6000610702611467565b151561070d57600080fd5b81600160a060020a038116151561072357600080fd5b6003548390600160a060020a0390811690821681146104775760038054600160a060020a03878116600160a060020a0319831617909255604051911694507f634f61bf00e14adedce330c80c2823e16e184f189ebe853e1ddecc4a268477ff9061046e9086908890612518565b600061079a611467565b15156107a557600080fd5b81600160a060020a03811615156107bb57600080fd5b6005548390600160a060020a0390811690821681146104775760058054600160a060020a03878116600160a060020a0319831617909255604051911694507fc9f3f00c1760fe26985aeacb814a21c56ea289d680562e89b249681b08c303829061046e9086908890612518565b600554600160a060020a031681565b600354600160a060020a031681565b3361084f6105d2565b600160a060020a03161461086257600080fd5b6000805460ff191660011790556040517fd5a2a04a775c741c2ca0dc46ea7ce4835190e1aaf1ca018def0e82568ec336169061089f9033906123c2565b60405180910390a1565b60006108b3611467565b15156108be57600080fd5b81600160a060020a03811615156108d457600080fd5b6006548390600160a060020a0390811690821681146104775760065460a060020a900460ff161561090457600080fd5b60068054600160a060020a03878116600160a060020a0319831617909255604051911694507fa44d361e26327b72a7ccbeae801b3c5cd7677ea4fa74168b289e273c46bfecfc9061046e9086908890612518565b6000610962611467565b151561096d57600080fd5b81600160a060020a038116151561098357600080fd5b600160a060020a03811630141561099957600080fd5b600054600160a060020a038481166101009092041614610a1a5760008054600160a060020a0385811661010090810261010060a860020a0319841617909355604051929091041692507f977e5fa58e458501775e0008d275006294c5249e3c08d1d0e3a9f3acad14f6e490610a1190849086906123d0565b60405180910390a15b505050565b6000806000806000600360009054906101000a9004600160a060020a0316600160a060020a031663f71e860f6040518163ffffffff1660e060020a028152600401602060405180830381600087803b158015610a7a57600080fd5b505af1158015610a8e573d6000803e3d6000fd5b505050506040513d601f19601f82011682018060405250610ab29190810190611f01565b1515610abd57600080fd5b6004805460405160e160020a637211c8c70281528c92600160a060020a039092169163e423918e91610af191859101612533565b602060405180830381600087803b158015610b0b57600080fd5b505af1158015610b1f573d6000803e3d6000fd5b505050506040513d601f19601f82011682018060405250610b439190810190611f01565b1515610b4e57600080fd5b6004805460405160e160020a637211c8c70281528c92600160a060020a039092169163e423918e91610b8291859101612533565b602060405180830381600087803b158015610b9c57600080fd5b505af1158015610bb0573d6000803e3d6000fd5b505050506040513d601f19601f82011682018060405250610bd49190810190611f01565b1515610bdf57600080fd5b600460009054906101000a9004600160a060020a0316600160a060020a03166307c293868d8c6040518363ffffffff1660e060020a028152600401610c25929190612544565b602060405180830381600087803b158015610c3f57600080fd5b505af1158015610c53573d6000803e3d6000fd5b505050506040513d601f19601f82011682018060405250610c779190810190611f01565b1515610c8257600080fd5b6004805460405160e160020a6303e149c3028152600160a060020a03909116916307c2938691610cb6918f918f9101612544565b602060405180830381600087803b158015610cd057600080fd5b505af1158015610ce4573d6000803e3d6000fd5b505050506040513d601f19601f82011682018060405250610d089190810190611f01565b1515610d1357600080fd5b600460009054906101000a9004600160a060020a0316600160a060020a031663da0d19198d60408051908101604052808d600160a060020a031681526020018c8152506040518363ffffffff1660e060020a028152600401610d76929190612619565b602060405180830381600087803b158015610d9057600080fd5b505af1158015610da4573d6000803e3d6000fd5b505050506040513d601f19601f82011682018060405250610dc89190810190611f01565b1515610dd357600080fd5b600460009054906101000a9004600160a060020a0316600160a060020a031663da0d19198c60408051908101604052808d600160a060020a031681526020018c8152506040518363ffffffff1660e060020a028152600401610e36929190612619565b602060405180830381600087803b158015610e5057600080fd5b505af1158015610e64573d6000803e3d6000fd5b505050506040513d601f19601f82011682018060405250610e889190810190611f01565b1515610e9357600080fd5b610ebc8c8c8c60408051908101604052808e600160a060020a031681526020018d81525061147d565b96509650965096509650600460009054906101000a9004600160a060020a0316600160a060020a0316633746fe3e8d898e8a6040518563ffffffff1660e060020a028152600401610f1094939291906125d8565b602060405180830381600087803b158015610f2a57600080fd5b505af1158015610f3e573d6000803e3d6000fd5b505050506040513d601f19601f82011682018060405250610f629190810190611f01565b1515610f6d57600080fd5b600460009054906101000a9004600160a060020a0316600160a060020a0316634f21beda8d89888f8b8a8a6040518863ffffffff1660e060020a028152600401610fbd9796959493929190612564565b602060405180830381600087803b158015610fd757600080fd5b505af1158015610feb573d6000803e3d6000fd5b505050506040513d601f19601f8201168201806040525061100f9190810190611f01565b80156110b25750600460009054906101000a9004600160a060020a0316600160a060020a031663091081378d898e8a6040518563ffffffff1660e060020a02815260040161106094939291906125d8565b602060405180830381600087803b15801561107a57600080fd5b505af115801561108e573d6000803e3d6000fd5b505050506040513d601f19601f820116820180604052506110b29190810190611f01565b156110bc57600080fd5b600360009054906101000a9004600160a060020a0316600160a060020a031663f8e6e8886040518163ffffffff1660e060020a028152600401600060405180830381600087803b15801561110f57600080fd5b505af1158015611123573d6000803e3d6000fd5b505060025460e08e01515160405160e060020a6375d8655b028152600160a060020a0390921693506375d8655b925061115e916004016124c7565b600060405180830381600087803b15801561117857600080fd5b505af115801561118c573d6000803e3d6000fd5b50506005546003546040805160e060020a639699f3370281529051600160a060020a03938416955063760b82929450339390921691639699f337916004808201926020929091908290030181600087803b1580156111e957600080fd5b505af11580156111fd573d6000803e3d6000fd5b505050506040513d601f19601f820116820180604052506112219190810190611f1f565b60006040518463ffffffff1660e060020a02815260040161124493929190612491565b600060405180830381600087803b15801561125e57600080fd5b505af1158015611272573d6000803e3d6000fd5b5050600654600160a060020a03169150639a54532290508b336112968f8b8a6114ef565b8d8d60006040518763ffffffff1660e060020a0281526004016112be969594939291906123eb565b600060405180830381600087803b1580156112d857600080fd5b505af11580156112ec573d6000803e3d6000fd5b50505060e0808e015151908d0151516040517f5ef318228204743db4562de9d5ca7ea63765f21f9e28208d8b3375c0be510bc4935061133092919033908f906124d5565b60405180910390a1505050505050505050505050565b6000611350611572565b151561135b57600080fd5b81600160a060020a038116151561137157600080fd5b600160a060020a03811630141561138757600080fd5b600154600160a060020a03848116911614610a1a5760018054600160a060020a03858116600160a060020a0319831617909255604051911692507f9f611b789425d0d5b90b920f1b2852907dd865c80074a30b1629aaa041d1812c90610a1190849086906123d0565b6113f8611467565b151561140357600080fd5b6007805460a060020a60ff02191660a060020a1790556040517f9c567b65fe8caab5ec7bc979a498a1322c1d4baf01a30727cbca137187560ea290600090a1565b6000546101009004600160a060020a031681565b600654600160a060020a031681565b6000546101009004600160a060020a0316331490565b600080600080600061148f8988611583565b945061149b8888611583565b93506114a78987611623565b92506114b38887611623565b610100808b0151908a01516007549294506114e292600160a060020a0316918a918a919063ffffffff61165a16565b9050945094509450945094565b60008260018111156114fd57fe5b151561153a5781600181111561150f57fe5b15156115265750608083015160a00151515161156b565b50608083015160a00151602001515161156b565b81600181111561154657fe5b151561155c575060a0808401510151515161156b565b5060a080840151015160200151515b9392505050565b600154600160a060020a0316331490565b6004805460405160e060020a63059057d7028152600092600160a060020a039092169163059057d7916115ba918791879101612544565b602060405180830381600087803b1580156115d457600080fd5b505af11580156115e8573d6000803e3d6000fd5b505050506040513d601f19601f8201168201806040525061160c9190810190611f01565b61161757600161161a565b60005b90505b92915050565b6004805460405160e560020a630377f3c9028152600092600160a060020a0390921691636efe7920916115ba918791879101612619565b600061166886868686611681565b61167487878786611681565b0390505b95945050505050565b6000806116908686868661169b565b509695505050505050565b60008060008060008089600160a060020a031663a246138c8a8c600160a060020a031663ded113106040518163ffffffff1660e060020a028152600401602060405180830381600087803b1580156116f257600080fd5b505af1158015611706573d6000803e3d6000fd5b505050506040513d601f19601f8201168201806040525061172a9190810190611f1f565b8b5160208d015160405160e060020a63ffffffff871602815261175594939291908e90600401612445565b6040805180830381600087803b15801561176e57600080fd5b505af1158015611782573d6000803e3d6000fd5b505050506040513d601f19601f820116820180604052506117a69190810190611f5b565b9350935089600160a060020a031663a246138c8a8c600160a060020a0316634652ec746040518163ffffffff1660e060020a028152600401602060405180830381600087803b1580156117f857600080fd5b505af115801561180c573d6000803e3d6000fd5b505050506040513d601f19601f820116820180604052506118309190810190611f1f565b8b5160208d015160405160e060020a63ffffffff871602815261185b94939291908e90600401612445565b6040805180830381600087803b15801561187457600080fd5b505af1158015611888573d6000803e3d6000fd5b505050506040513d601f19601f820116820180604052506118ac9190810190611f5b565b90925090506118c1848363ffffffff61195f16565b60405160e060020a63a682d5ad02815290965073__SafeMathUintLib_______________________9063a682d5ad906119009086908590600401612639565b60206040518083038186803b15801561191857600080fd5b505af415801561192c573d6000803e3d6000fd5b505050506040513d601f19601f820116820180604052506119509190810190611f1f565b94505050505094509492505050565b60008282018183128015906119745750838112155b80611989575060008312801561198957508381125b151561156b57600080fd5b600061161a82356126a4565b6000601f820183136119b157600080fd5b81356119c46119bf8261267a565b612654565b915081818352602084019350602081019050838560808402820111156119e957600080fd5b60005b83811015611a1757816119ff8882611b7f565b845250602090920191608091909101906001016119ec565b5050505092915050565b600061161a82516126b0565b600061161a82356126b5565b600061161a82516126b5565b600061161a82356126ce565b600061161a82356126d9565b600060408284031215611a6f57600080fd5b611a796040612654565b90506000611a878484611994565b8252506020611a9884848301611a2d565b60208301525092915050565b600060408284031215611ab657600080fd5b611ac06040612654565b90506000611a878484611a2d565b600060608284031215611ae057600080fd5b611aea6040612654565b90506000611af88484611a2d565b8252506020611a9884848301611a5d565b600060808284031215611b1b57600080fd5b611b256040612654565b90506000611b338484611a5d565b8252506040611a9884848301611a5d565b600060808284031215611b5657600080fd5b611b606040612654565b90506000611b6e8484611aa4565b8252506040611a9884848301611aa4565b600060808284031215611b9157600080fd5b611b9b6040612654565b90506000611ba98484611a2d565b8252506020611a9884848301611ace565b600060808284031215611bcc57600080fd5b611bd66040612654565b90506000611be48484611a2d565b8252506020611a9884848301600060608284031215611c0257600080fd5b611c0c6060612654565b90506000611c1a8484611a2d565b8252506020611c2b84848301611a2d565b6020830152506040611c3f84828501611ecf565b60408301525092915050565b600060808284031215611c5d57600080fd5b611c676040612654565b90506000611c758484611ace565b82525060608201356001604060020a03811115611c9157600080fd5b611a98848285016119a0565b600060a08284031215611caf57600080fd5b611cb96060612654565b90506000611cc78484611a2d565b8252506020611cd884848301611aa4565b6020830152506060611c3f84828501611aa4565b60006101c08284031215611cff57600080fd5b611d0960e0612654565b90506000611d178484611a2d565b8252506020611d2884848301611994565b6020830152506040611d3c84828501611a2d565b6040830152506060611d5084828501611a51565b6060830152506080611d6484828501611c9d565b608083015250610120611d7984828501611b44565b60a0830152506101a08201356001604060020a03811115611d9957600080fd5b611da584828501611c4b565b60c08301525092915050565b60006102608284031215611dc457600080fd5b611dcf610140612654565b90506000611ddd8484611a2d565b8252506020611dee84848301611a2d565b6020830152506040611e0284828501611b09565b60408301525060c0611e1684828501611a2d565b60608301525060e08201356001604060020a03811115611e3557600080fd5b611e4184828501611cec565b6080830152506101008201356001604060020a03811115611e6157600080fd5b611e6d84828501611cec565b60a083015250610120611e8284828501611b44565b60c0830152506101a0611e9784828501611bba565b60e083015250610220611eac84828501611a2d565b61010083015250610240611ec284828501611a2d565b6101208301525092915050565b600061161a82356126c8565b600060208284031215611eed57600080fd5b6000611ef98484611994565b949350505050565b600060208284031215611f1357600080fd5b6000611ef98484611a21565b600060208284031215611f3157600080fd5b6000611ef98484611a39565b600060208284031215611f4f57600080fd5b6000611ef98484611a45565b60008060408385031215611f6e57600080fd5b6000611f7a8585611a39565b9250506020611f8b85828601611a39565b9150509250929050565b600080600080600060a08688031215611fad57600080fd5b85356001604060020a03811115611fc357600080fd5b611fcf88828901611db1565b95505060208601356001604060020a03811115611feb57600080fd5b611ff788828901611db1565b945050604061200888828901611994565b935050606061201988828901611994565b925050608061202a88828901611a2d565b9150509295509295909350565b612040816126a4565b82525050565b6000612051826126a0565b8084526020840193506120638361269a565b60005b8281101561209357612079868351612171565b6120828261269a565b608096909601959150600101612066565b5093949350505050565b612040816126b0565b612040816126b5565b612040816126ce565b612040816126e8565b612040816126f3565b805160408301906120db8482612037565b5060208201516120ee60208501826120a6565b50505050565b805160408301906120db84826120a6565b8051606083019061211684826120a6565b5060208201516120ee60208501826120ca565b8051608083019061213a84826120ca565b5060208201516120ee60408501826120ca565b8051608083019061215e84826120f4565b5060208201516120ee60408501826120f4565b8051608083019061218284826120a6565b5060208201516120ee6020850182612105565b805160808301906121a684826120a6565b5060208201516120ee6020850182805160608301906121c584826120a6565b5060208201516121d860208501826120a6565b5060408201516120ee60408501826123b9565b805160009060808401906121ff8582612105565b50602083015184820360608601526116788282612046565b805160a083019061222884826120a6565b50602082015161223b60208501826120f4565b5060408201516120ee60608501826120f4565b80516000906101c084019061226385826120a6565b5060208301516122766020860182612037565b50604083015161228960408601826120a6565b50606083015161229c60608601826120b8565b5060808301516122af6080860182612217565b5060a08301516122c361012086018261214d565b5060c08301518482036101a086015261167882826121eb565b80516000906102608401906122f185826120a6565b50602083015161230460208601826120a6565b5060408301516123176040860182612129565b50606083015161232a60c08601826120a6565b50608083015184820360e0860152612342828261224e565b91505060a083015184820361010086015261235d828261224e565b91505060c083015161237361012086018261214d565b5060e08301516123876101a0860182612195565b5061010083015161239c6102208601826120a6565b506101208301516123b16102408601826120a6565b509392505050565b612040816126c8565b6020810161161d8284612037565b604081016123de8285612037565b61156b6020830184612037565b60c081016123f98289612037565b6124066020830188612037565b61241360408301876120a6565b6124206060830186612037565b61242d60808301856120a6565b61243a60a08301846120c1565b979650505050505050565b60a081016124538288612037565b61246060208301876120a6565b61246d6040830186612037565b61247a60608301856120a6565b61248760808301846120a6565b9695505050505050565b6060810161249f8286612037565b6124ac60208301856120a6565b611ef960408301846120c1565b6020810161161d828461209d565b6020810161161d82846120a6565b608081016124e382876120a6565b6124f060208301866120a6565b6124fd6040830185612037565b6116786060830184612037565b6020810161161d82846120af565b6040810161252682856120af565b61156b60208301846120af565b6020808252810161161a81846122dc565b6040808252810161255581856122dc565b905061156b6020830184612037565b60e08082528101612575818a6122dc565b905061258460208301896120b8565b61259160408301886120b8565b81810360608301526125a381876122dc565b90506125b260808301866120b8565b6125bf60a08301856120b8565b6125cc60c08301846120a6565b98975050505050505050565b608080825281016125e981876122dc565b90506125f860208301866120b8565b818103604083015261260a81856122dc565b905061167860608301846120b8565b6060808252810161262a81856122dc565b905061156b60208301846120ca565b6040810161264782856120a6565b61156b60208301846120a6565b6040518181016001604060020a038111828210171561267257600080fd5b604052919050565b60006001604060020a0382111561269057600080fd5b5060209081020190565b60200190565b5190565b600160a060020a031690565b151590565b90565b6000600282106126c457fe5b5090565b60ff1690565b600061161d826126a4565b6000600282106126c457600080fd5b600061161d826126b8565b600061161d826126b55600a265627a7a72305820d4cd3f7de753106f65741411fbbdce4679bef544b56ab8d0b5a5728f1bca5a006c6578706572696d656e74616cf50037",
  "source": "/*\n * Hubii Nahmii\n *\n * Compliant with the Hubii Nahmii specification v0.12.\n *\n * Copyright (C) 2017-2018 Hubii AS\n */\n\npragma solidity ^0.4.25;\npragma experimental ABIEncoderV2;\n\nimport {Ownable} from \"./Ownable.sol\";\nimport {FraudChallengable} from \"./FraudChallengable.sol\";\nimport {ConfigurableOperational} from \"./ConfigurableOperational.sol\";\nimport {ValidatableV2} from \"./ValidatableV2.sol\";\nimport {SecurityBondable} from \"./SecurityBondable.sol\";\nimport {WalletLockable} from \"./WalletLockable.sol\";\nimport {BalanceTrackable} from \"./BalanceTrackable.sol\";\nimport {TradeTypesLib} from \"./TradeTypesLib.sol\";\nimport {MonetaryTypesLib} from \"./MonetaryTypesLib.sol\";\nimport {SafeMathIntLib} from \"./SafeMathIntLib.sol\";\nimport {BalanceTracker} from \"./BalanceTracker.sol\";\nimport {BalanceTrackerLib} from \"./BalanceTrackerLib.sol\";\n\n/**\n * @title FraudChallengeBySuccessiveTrades\n * @notice Where driips are challenged wrt fraud by mismatch in successive trades\n */\ncontract FraudChallengeBySuccessiveTrades is Ownable, FraudChallengable, ConfigurableOperational, ValidatableV2,\nSecurityBondable, WalletLockable, BalanceTrackable {\n    using SafeMathIntLib for int256;\n    using BalanceTrackerLib for BalanceTracker;\n\n    //\n    // Events\n    // -----------------------------------------------------------------------------------------------------------------\n    event ChallengeBySuccessiveTradesEvent(bytes32 firstTradeHash, bytes32 lastTradeHash,\n        address challenger, address lockedWallet);\n\n    //\n    // Constructor\n    // -----------------------------------------------------------------------------------------------------------------\n    constructor(address deployer) Ownable(deployer) public {\n    }\n\n    //\n    // Functions\n    // -----------------------------------------------------------------------------------------------------------------\n    /// @notice Submit two trade candidates in continuous Fraud Challenge (FC)\n    /// to be tested for succession differences\n    /// @param firstTrade Reference trade\n    /// @param lastTrade Fraudulent trade candidate\n    /// @param wallet The address of the concerned wallet\n    /// @param currencyCt The address of the concerned currency contract (address(0) == ETH)\n    /// @param currencyId The ID of the concerned currency (0 for ETH and ERC20)\n    function challenge(\n        TradeTypesLib.Trade firstTrade,\n        TradeTypesLib.Trade lastTrade,\n        address wallet,\n        address currencyCt,\n        uint256 currencyId\n    )\n    public\n    onlyOperationalModeNormal\n    onlySealedTrade(firstTrade)\n    onlySealedTrade(lastTrade)\n    {\n        require(validator.isTradeParty(firstTrade, wallet));\n        require(validator.isTradeParty(lastTrade, wallet));\n\n        require(validator.isTradeCurrency(firstTrade, MonetaryTypesLib.Currency(currencyCt, currencyId)));\n        require(validator.isTradeCurrency(lastTrade, MonetaryTypesLib.Currency(currencyCt, currencyId)));\n\n        (\n        TradeTypesLib.TradePartyRole firstTradePartyRole,\n        TradeTypesLib.TradePartyRole lastTradePartyRole,\n        TradeTypesLib.CurrencyRole firstTradeCurrencyRole,\n        TradeTypesLib.CurrencyRole lastTradeCurrencyRole,\n        int256 deltaActiveBalance\n        )\n        = _rolesAndDeltaActiveBalance(firstTrade, lastTrade, wallet, MonetaryTypesLib.Currency(currencyCt, currencyId));\n\n        require(validator.isSuccessiveTradesPartyNonces(firstTrade, firstTradePartyRole, lastTrade, lastTradePartyRole));\n\n        // Require existence of fraud signal\n        require(!(\n        validator.isGenuineSuccessiveTradesBalances(firstTrade, firstTradePartyRole, firstTradeCurrencyRole, lastTrade, lastTradePartyRole, lastTradeCurrencyRole, deltaActiveBalance) &&\n        validator.isGenuineSuccessiveTradesTotalFees(firstTrade, firstTradePartyRole, lastTrade, lastTradePartyRole)\n        ));\n\n        // Toggle operational mode exit\n        configuration.setOperationalModeExit();\n\n        // Tag last trade (hash) as fraudulent\n        fraudChallenge.addFraudulentTradeHash(lastTrade.seal.hash);\n\n        // Reward stake fraction\n        securityBond.rewardFractional(msg.sender, configuration.fraudStakeFraction(), 0);\n\n        // Lock amount of size equivalent to wallet's balance of intended or conjugate currencies\n        walletLocker.lockFungibleByProxy(\n            wallet, msg.sender,\n            _tradeLockAmount(lastTrade, lastTradePartyRole, lastTradeCurrencyRole),\n            currencyCt, currencyId, 0\n        );\n\n        // Emit event\n        emit ChallengeBySuccessiveTradesEvent(\n            firstTrade.seal.hash, lastTrade.seal.hash, msg.sender, wallet\n        );\n    }\n\n    //\n    // Private functions\n    // -----------------------------------------------------------------------------------------------------------------\n    function _rolesAndDeltaActiveBalance(TradeTypesLib.Trade firstTrade, TradeTypesLib.Trade lastTrade, address wallet,\n        MonetaryTypesLib.Currency currency)\n    private\n    view\n    returns (\n        TradeTypesLib.TradePartyRole firstTradePartyRole, TradeTypesLib.TradePartyRole lastTradePartyRole,\n        TradeTypesLib.CurrencyRole firstTradeCurrencyRole, TradeTypesLib.CurrencyRole lastTradeCurrencyRole,\n        int256 deltaActiveBalance\n    )\n    {\n        firstTradePartyRole = _tradePartyRole(firstTrade, wallet);\n        lastTradePartyRole = _tradePartyRole(lastTrade, wallet);\n\n        firstTradeCurrencyRole = _tradeCurrencyRole(firstTrade, currency);\n        lastTradeCurrencyRole = _tradeCurrencyRole(lastTrade, currency);\n\n        deltaActiveBalance = balanceTracker.fungibleActiveDeltaBalanceAmountByBlockNumbers(\n            wallet, currency, firstTrade.blockNumber, lastTrade.blockNumber\n        );\n    }\n\n    function _tradePartyRole(TradeTypesLib.Trade trade, address wallet)\n    private\n    view\n    returns (TradeTypesLib.TradePartyRole)\n    {\n        return validator.isTradeBuyer(trade, wallet) ?\n        TradeTypesLib.TradePartyRole.Buyer :\n        TradeTypesLib.TradePartyRole.Seller;\n    }\n\n    function _tradeCurrencyRole(TradeTypesLib.Trade trade, MonetaryTypesLib.Currency currency)\n    private\n    view\n    returns (TradeTypesLib.CurrencyRole)\n    {\n        return validator.isTradeIntendedCurrency(trade, currency) ?\n        TradeTypesLib.CurrencyRole.Intended :\n        TradeTypesLib.CurrencyRole.Conjugate;\n    }\n\n    function _tradeCurrency(TradeTypesLib.Trade trade, TradeTypesLib.CurrencyRole currencyRole)\n    private\n    pure\n    returns (MonetaryTypesLib.Currency)\n    {\n        if (TradeTypesLib.CurrencyRole.Intended == currencyRole)\n            return trade.currencies.intended;\n        else // TradeTypesLib.CurrencyRole.Conjugate == currencyRole\n            return trade.currencies.conjugate;\n    }\n\n    function _tradeLockAmount(TradeTypesLib.Trade trade, TradeTypesLib.TradePartyRole tradePartyRole,\n        TradeTypesLib.CurrencyRole currencyRole)\n    private\n    pure\n    returns (int256)\n    {\n        if (TradeTypesLib.TradePartyRole.Buyer == tradePartyRole)\n            if (TradeTypesLib.CurrencyRole.Intended == currencyRole)\n                return trade.buyer.balances.intended.current;\n            else // TradeTypesLib.CurrencyRole.Conjugate == currencyRole\n                return trade.buyer.balances.conjugate.current;\n        else // TradeTypesLib.TradePartyRole.Seller == tradePartyRole)\n            if (TradeTypesLib.CurrencyRole.Intended == currencyRole)\n                return trade.seller.balances.intended.current;\n            else // TradeTypesLib.CurrencyRole.Conjugate == currencyRole\n                return trade.seller.balances.conjugate.current;\n    }\n}",
  "sourcePath": "/opt/buildagent/work/855e104608380c36/contracts/FraudChallengeBySuccessiveTrades.sol",
  "compiler": {
    "name": "solc",
    "version": "0.4.25+commit.59dbf8f1.Emscripten.clang"
  },
  "schemaVersion": "2.0.2",
  "updatedAt": "2019-04-02T08:24:32.031Z"
}