{
  "contractName": "FraudChallengeByTradeOrderResiduals",
  "abi": [
    {
      "inputs": [
        {
          "internalType": "address",
          "name": "deployer",
          "type": "address"
        }
      ],
      "payable": false,
      "stateMutability": "nonpayable",
      "type": "constructor"
    },
    {
      "anonymous": false,
      "inputs": [
        {
          "indexed": false,
          "internalType": "bytes32",
          "name": "firstTradeHash",
          "type": "bytes32"
        },
        {
          "indexed": false,
          "internalType": "bytes32",
          "name": "lastTradeHash",
          "type": "bytes32"
        },
        {
          "indexed": false,
          "internalType": "address",
          "name": "challenger",
          "type": "address"
        },
        {
          "indexed": false,
          "internalType": "address",
          "name": "lockedWallet",
          "type": "address"
        }
      ],
      "name": "ChallengeByTradeOrderResidualsEvent",
      "type": "event"
    },
    {
      "anonymous": false,
      "inputs": [],
      "name": "FreezeWalletLockerEvent",
      "type": "event"
    },
    {
      "anonymous": false,
      "inputs": [
        {
          "indexed": false,
          "internalType": "address",
          "name": "wallet",
          "type": "address"
        }
      ],
      "name": "SelfDestructionDisabledEvent",
      "type": "event"
    },
    {
      "anonymous": false,
      "inputs": [
        {
          "indexed": false,
          "internalType": "contract Configuration",
          "name": "oldConfiguration",
          "type": "address"
        },
        {
          "indexed": false,
          "internalType": "contract Configuration",
          "name": "newConfiguration",
          "type": "address"
        }
      ],
      "name": "SetConfigurationEvent",
      "type": "event"
    },
    {
      "anonymous": false,
      "inputs": [
        {
          "indexed": false,
          "internalType": "address",
          "name": "oldDeployer",
          "type": "address"
        },
        {
          "indexed": false,
          "internalType": "address",
          "name": "newDeployer",
          "type": "address"
        }
      ],
      "name": "SetDeployerEvent",
      "type": "event"
    },
    {
      "anonymous": false,
      "inputs": [
        {
          "indexed": false,
          "internalType": "contract FraudChallenge",
          "name": "oldFraudChallenge",
          "type": "address"
        },
        {
          "indexed": false,
          "internalType": "contract FraudChallenge",
          "name": "newFraudChallenge",
          "type": "address"
        }
      ],
      "name": "SetFraudChallengeEvent",
      "type": "event"
    },
    {
      "anonymous": false,
      "inputs": [
        {
          "indexed": false,
          "internalType": "address",
          "name": "oldOperator",
          "type": "address"
        },
        {
          "indexed": false,
          "internalType": "address",
          "name": "newOperator",
          "type": "address"
        }
      ],
      "name": "SetOperatorEvent",
      "type": "event"
    },
    {
      "anonymous": false,
      "inputs": [
        {
          "indexed": false,
          "internalType": "contract SecurityBond",
          "name": "oldSecurityBond",
          "type": "address"
        },
        {
          "indexed": false,
          "internalType": "contract SecurityBond",
          "name": "newSecurityBond",
          "type": "address"
        }
      ],
      "name": "SetSecurityBondEvent",
      "type": "event"
    },
    {
      "anonymous": false,
      "inputs": [
        {
          "indexed": false,
          "internalType": "contract ValidatorV2",
          "name": "oldValidator",
          "type": "address"
        },
        {
          "indexed": false,
          "internalType": "contract ValidatorV2",
          "name": "newValidator",
          "type": "address"
        }
      ],
      "name": "SetValidatorEvent",
      "type": "event"
    },
    {
      "anonymous": false,
      "inputs": [
        {
          "indexed": false,
          "internalType": "contract WalletLocker",
          "name": "oldWalletLocker",
          "type": "address"
        },
        {
          "indexed": false,
          "internalType": "contract WalletLocker",
          "name": "newWalletLocker",
          "type": "address"
        }
      ],
      "name": "SetWalletLockerEvent",
      "type": "event"
    },
    {
      "anonymous": false,
      "inputs": [
        {
          "indexed": false,
          "internalType": "address",
          "name": "wallet",
          "type": "address"
        }
      ],
      "name": "TriggerSelfDestructionEvent",
      "type": "event"
    },
    {
      "constant": true,
      "inputs": [],
      "name": "configuration",
      "outputs": [
        {
          "internalType": "contract Configuration",
          "name": "",
          "type": "address"
        }
      ],
      "payable": false,
      "stateMutability": "view",
      "type": "function"
    },
    {
      "constant": true,
      "inputs": [],
      "name": "deployer",
      "outputs": [
        {
          "internalType": "address",
          "name": "",
          "type": "address"
        }
      ],
      "payable": false,
      "stateMutability": "view",
      "type": "function"
    },
    {
      "constant": true,
      "inputs": [],
      "name": "destructor",
      "outputs": [
        {
          "internalType": "address",
          "name": "",
          "type": "address"
        }
      ],
      "payable": false,
      "stateMutability": "view",
      "type": "function"
    },
    {
      "constant": false,
      "inputs": [],
      "name": "disableSelfDestruction",
      "outputs": [],
      "payable": false,
      "stateMutability": "nonpayable",
      "type": "function"
    },
    {
      "constant": true,
      "inputs": [],
      "name": "fraudChallenge",
      "outputs": [
        {
          "internalType": "contract FraudChallenge",
          "name": "",
          "type": "address"
        }
      ],
      "payable": false,
      "stateMutability": "view",
      "type": "function"
    },
    {
      "constant": false,
      "inputs": [],
      "name": "freezeWalletLocker",
      "outputs": [],
      "payable": false,
      "stateMutability": "nonpayable",
      "type": "function"
    },
    {
      "constant": true,
      "inputs": [],
      "name": "operator",
      "outputs": [
        {
          "internalType": "address",
          "name": "",
          "type": "address"
        }
      ],
      "payable": false,
      "stateMutability": "view",
      "type": "function"
    },
    {
      "constant": true,
      "inputs": [],
      "name": "securityBond",
      "outputs": [
        {
          "internalType": "contract SecurityBond",
          "name": "",
          "type": "address"
        }
      ],
      "payable": false,
      "stateMutability": "view",
      "type": "function"
    },
    {
      "constant": true,
      "inputs": [],
      "name": "selfDestructionDisabled",
      "outputs": [
        {
          "internalType": "bool",
          "name": "",
          "type": "bool"
        }
      ],
      "payable": false,
      "stateMutability": "view",
      "type": "function"
    },
    {
      "constant": false,
      "inputs": [
        {
          "internalType": "contract Configuration",
          "name": "newConfiguration",
          "type": "address"
        }
      ],
      "name": "setConfiguration",
      "outputs": [],
      "payable": false,
      "stateMutability": "nonpayable",
      "type": "function"
    },
    {
      "constant": false,
      "inputs": [
        {
          "internalType": "address",
          "name": "newDeployer",
          "type": "address"
        }
      ],
      "name": "setDeployer",
      "outputs": [],
      "payable": false,
      "stateMutability": "nonpayable",
      "type": "function"
    },
    {
      "constant": false,
      "inputs": [
        {
          "internalType": "contract FraudChallenge",
          "name": "newFraudChallenge",
          "type": "address"
        }
      ],
      "name": "setFraudChallenge",
      "outputs": [],
      "payable": false,
      "stateMutability": "nonpayable",
      "type": "function"
    },
    {
      "constant": false,
      "inputs": [
        {
          "internalType": "address",
          "name": "newOperator",
          "type": "address"
        }
      ],
      "name": "setOperator",
      "outputs": [],
      "payable": false,
      "stateMutability": "nonpayable",
      "type": "function"
    },
    {
      "constant": false,
      "inputs": [
        {
          "internalType": "contract SecurityBond",
          "name": "newSecurityBond",
          "type": "address"
        }
      ],
      "name": "setSecurityBond",
      "outputs": [],
      "payable": false,
      "stateMutability": "nonpayable",
      "type": "function"
    },
    {
      "constant": false,
      "inputs": [
        {
          "internalType": "contract ValidatorV2",
          "name": "newValidator",
          "type": "address"
        }
      ],
      "name": "setValidator",
      "outputs": [],
      "payable": false,
      "stateMutability": "nonpayable",
      "type": "function"
    },
    {
      "constant": false,
      "inputs": [
        {
          "internalType": "contract WalletLocker",
          "name": "newWalletLocker",
          "type": "address"
        }
      ],
      "name": "setWalletLocker",
      "outputs": [],
      "payable": false,
      "stateMutability": "nonpayable",
      "type": "function"
    },
    {
      "constant": false,
      "inputs": [],
      "name": "triggerSelfDestruction",
      "outputs": [],
      "payable": false,
      "stateMutability": "nonpayable",
      "type": "function"
    },
    {
      "constant": true,
      "inputs": [],
      "name": "validator",
      "outputs": [
        {
          "internalType": "contract ValidatorV2",
          "name": "",
          "type": "address"
        }
      ],
      "payable": false,
      "stateMutability": "view",
      "type": "function"
    },
    {
      "constant": true,
      "inputs": [],
      "name": "walletLocker",
      "outputs": [
        {
          "internalType": "contract WalletLocker",
          "name": "",
          "type": "address"
        }
      ],
      "payable": false,
      "stateMutability": "view",
      "type": "function"
    },
    {
      "constant": true,
      "inputs": [],
      "name": "walletLockerFrozen",
      "outputs": [
        {
          "internalType": "bool",
          "name": "",
          "type": "bool"
        }
      ],
      "payable": false,
      "stateMutability": "view",
      "type": "function"
    },
    {
      "constant": false,
      "inputs": [
        {
          "components": [
            {
              "internalType": "uint256",
              "name": "nonce",
              "type": "uint256"
            },
            {
              "internalType": "int256",
              "name": "amount",
              "type": "int256"
            },
            {
              "components": [
                {
                  "components": [
                    {
                      "internalType": "address",
                      "name": "ct",
                      "type": "address"
                    },
                    {
                      "internalType": "uint256",
                      "name": "id",
                      "type": "uint256"
                    }
                  ],
                  "internalType": "struct MonetaryTypesLib.Currency",
                  "name": "intended",
                  "type": "tuple"
                },
                {
                  "components": [
                    {
                      "internalType": "address",
                      "name": "ct",
                      "type": "address"
                    },
                    {
                      "internalType": "uint256",
                      "name": "id",
                      "type": "uint256"
                    }
                  ],
                  "internalType": "struct MonetaryTypesLib.Currency",
                  "name": "conjugate",
                  "type": "tuple"
                }
              ],
              "internalType": "struct NahmiiTypesLib.IntendedConjugateCurrency",
              "name": "currencies",
              "type": "tuple"
            },
            {
              "internalType": "int256",
              "name": "rate",
              "type": "int256"
            },
            {
              "components": [
                {
                  "internalType": "uint256",
                  "name": "nonce",
                  "type": "uint256"
                },
                {
                  "internalType": "address",
                  "name": "wallet",
                  "type": "address"
                },
                {
                  "internalType": "uint256",
                  "name": "rollingVolume",
                  "type": "uint256"
                },
                {
                  "internalType": "enum TradeTypesLib.LiquidityRole",
                  "name": "liquidityRole",
                  "type": "uint8"
                },
                {
                  "components": [
                    {
                      "internalType": "int256",
                      "name": "amount",
                      "type": "int256"
                    },
                    {
                      "components": [
                        {
                          "internalType": "bytes32",
                          "name": "wallet",
                          "type": "bytes32"
                        },
                        {
                          "internalType": "bytes32",
                          "name": "operator",
                          "type": "bytes32"
                        }
                      ],
                      "internalType": "struct NahmiiTypesLib.WalletOperatorHashes",
                      "name": "hashes",
                      "type": "tuple"
                    },
                    {
                      "components": [
                        {
                          "internalType": "int256",
                          "name": "current",
                          "type": "int256"
                        },
                        {
                          "internalType": "int256",
                          "name": "previous",
                          "type": "int256"
                        }
                      ],
                      "internalType": "struct NahmiiTypesLib.CurrentPreviousInt256",
                      "name": "residuals",
                      "type": "tuple"
                    }
                  ],
                  "internalType": "struct TradeTypesLib.TradeOrder",
                  "name": "order",
                  "type": "tuple"
                },
                {
                  "components": [
                    {
                      "components": [
                        {
                          "internalType": "int256",
                          "name": "current",
                          "type": "int256"
                        },
                        {
                          "internalType": "int256",
                          "name": "previous",
                          "type": "int256"
                        }
                      ],
                      "internalType": "struct NahmiiTypesLib.CurrentPreviousInt256",
                      "name": "intended",
                      "type": "tuple"
                    },
                    {
                      "components": [
                        {
                          "internalType": "int256",
                          "name": "current",
                          "type": "int256"
                        },
                        {
                          "internalType": "int256",
                          "name": "previous",
                          "type": "int256"
                        }
                      ],
                      "internalType": "struct NahmiiTypesLib.CurrentPreviousInt256",
                      "name": "conjugate",
                      "type": "tuple"
                    }
                  ],
                  "internalType": "struct NahmiiTypesLib.IntendedConjugateCurrentPreviousInt256",
                  "name": "balances",
                  "type": "tuple"
                },
                {
                  "components": [
                    {
                      "components": [
                        {
                          "internalType": "int256",
                          "name": "amount",
                          "type": "int256"
                        },
                        {
                          "components": [
                            {
                              "internalType": "address",
                              "name": "ct",
                              "type": "address"
                            },
                            {
                              "internalType": "uint256",
                              "name": "id",
                              "type": "uint256"
                            }
                          ],
                          "internalType": "struct MonetaryTypesLib.Currency",
                          "name": "currency",
                          "type": "tuple"
                        }
                      ],
                      "internalType": "struct MonetaryTypesLib.Figure",
                      "name": "single",
                      "type": "tuple"
                    },
                    {
                      "components": [
                        {
                          "internalType": "uint256",
                          "name": "originId",
                          "type": "uint256"
                        },
                        {
                          "components": [
                            {
                              "internalType": "int256",
                              "name": "amount",
                              "type": "int256"
                            },
                            {
                              "components": [
                                {
                                  "internalType": "address",
                                  "name": "ct",
                                  "type": "address"
                                },
                                {
                                  "internalType": "uint256",
                                  "name": "id",
                                  "type": "uint256"
                                }
                              ],
                              "internalType": "struct MonetaryTypesLib.Currency",
                              "name": "currency",
                              "type": "tuple"
                            }
                          ],
                          "internalType": "struct MonetaryTypesLib.Figure",
                          "name": "figure",
                          "type": "tuple"
                        }
                      ],
                      "internalType": "struct NahmiiTypesLib.OriginFigure[]",
                      "name": "total",
                      "type": "tuple[]"
                    }
                  ],
                  "internalType": "struct NahmiiTypesLib.SingleFigureTotalOriginFigures",
                  "name": "fees",
                  "type": "tuple"
                }
              ],
              "internalType": "struct TradeTypesLib.TradeParty",
              "name": "buyer",
              "type": "tuple"
            },
            {
              "components": [
                {
                  "internalType": "uint256",
                  "name": "nonce",
                  "type": "uint256"
                },
                {
                  "internalType": "address",
                  "name": "wallet",
                  "type": "address"
                },
                {
                  "internalType": "uint256",
                  "name": "rollingVolume",
                  "type": "uint256"
                },
                {
                  "internalType": "enum TradeTypesLib.LiquidityRole",
                  "name": "liquidityRole",
                  "type": "uint8"
                },
                {
                  "components": [
                    {
                      "internalType": "int256",
                      "name": "amount",
                      "type": "int256"
                    },
                    {
                      "components": [
                        {
                          "internalType": "bytes32",
                          "name": "wallet",
                          "type": "bytes32"
                        },
                        {
                          "internalType": "bytes32",
                          "name": "operator",
                          "type": "bytes32"
                        }
                      ],
                      "internalType": "struct NahmiiTypesLib.WalletOperatorHashes",
                      "name": "hashes",
                      "type": "tuple"
                    },
                    {
                      "components": [
                        {
                          "internalType": "int256",
                          "name": "current",
                          "type": "int256"
                        },
                        {
                          "internalType": "int256",
                          "name": "previous",
                          "type": "int256"
                        }
                      ],
                      "internalType": "struct NahmiiTypesLib.CurrentPreviousInt256",
                      "name": "residuals",
                      "type": "tuple"
                    }
                  ],
                  "internalType": "struct TradeTypesLib.TradeOrder",
                  "name": "order",
                  "type": "tuple"
                },
                {
                  "components": [
                    {
                      "components": [
                        {
                          "internalType": "int256",
                          "name": "current",
                          "type": "int256"
                        },
                        {
                          "internalType": "int256",
                          "name": "previous",
                          "type": "int256"
                        }
                      ],
                      "internalType": "struct NahmiiTypesLib.CurrentPreviousInt256",
                      "name": "intended",
                      "type": "tuple"
                    },
                    {
                      "components": [
                        {
                          "internalType": "int256",
                          "name": "current",
                          "type": "int256"
                        },
                        {
                          "internalType": "int256",
                          "name": "previous",
                          "type": "int256"
                        }
                      ],
                      "internalType": "struct NahmiiTypesLib.CurrentPreviousInt256",
                      "name": "conjugate",
                      "type": "tuple"
                    }
                  ],
                  "internalType": "struct NahmiiTypesLib.IntendedConjugateCurrentPreviousInt256",
                  "name": "balances",
                  "type": "tuple"
                },
                {
                  "components": [
                    {
                      "components": [
                        {
                          "internalType": "int256",
                          "name": "amount",
                          "type": "int256"
                        },
                        {
                          "components": [
                            {
                              "internalType": "address",
                              "name": "ct",
                              "type": "address"
                            },
                            {
                              "internalType": "uint256",
                              "name": "id",
                              "type": "uint256"
                            }
                          ],
                          "internalType": "struct MonetaryTypesLib.Currency",
                          "name": "currency",
                          "type": "tuple"
                        }
                      ],
                      "internalType": "struct MonetaryTypesLib.Figure",
                      "name": "single",
                      "type": "tuple"
                    },
                    {
                      "components": [
                        {
                          "internalType": "uint256",
                          "name": "originId",
                          "type": "uint256"
                        },
                        {
                          "components": [
                            {
                              "internalType": "int256",
                              "name": "amount",
                              "type": "int256"
                            },
                            {
                              "components": [
                                {
                                  "internalType": "address",
                                  "name": "ct",
                                  "type": "address"
                                },
                                {
                                  "internalType": "uint256",
                                  "name": "id",
                                  "type": "uint256"
                                }
                              ],
                              "internalType": "struct MonetaryTypesLib.Currency",
                              "name": "currency",
                              "type": "tuple"
                            }
                          ],
                          "internalType": "struct MonetaryTypesLib.Figure",
                          "name": "figure",
                          "type": "tuple"
                        }
                      ],
                      "internalType": "struct NahmiiTypesLib.OriginFigure[]",
                      "name": "total",
                      "type": "tuple[]"
                    }
                  ],
                  "internalType": "struct NahmiiTypesLib.SingleFigureTotalOriginFigures",
                  "name": "fees",
                  "type": "tuple"
                }
              ],
              "internalType": "struct TradeTypesLib.TradeParty",
              "name": "seller",
              "type": "tuple"
            },
            {
              "components": [
                {
                  "components": [
                    {
                      "internalType": "int256",
                      "name": "single",
                      "type": "int256"
                    },
                    {
                      "internalType": "int256",
                      "name": "total",
                      "type": "int256"
                    }
                  ],
                  "internalType": "struct NahmiiTypesLib.SingleTotalInt256",
                  "name": "intended",
                  "type": "tuple"
                },
                {
                  "components": [
                    {
                      "internalType": "int256",
                      "name": "single",
                      "type": "int256"
                    },
                    {
                      "internalType": "int256",
                      "name": "total",
                      "type": "int256"
                    }
                  ],
                  "internalType": "struct NahmiiTypesLib.SingleTotalInt256",
                  "name": "conjugate",
                  "type": "tuple"
                }
              ],
              "internalType": "struct NahmiiTypesLib.IntendedConjugateSingleTotalInt256",
              "name": "transfers",
              "type": "tuple"
            },
            {
              "components": [
                {
                  "internalType": "bytes32",
                  "name": "hash",
                  "type": "bytes32"
                },
                {
                  "components": [
                    {
                      "internalType": "bytes32",
                      "name": "r",
                      "type": "bytes32"
                    },
                    {
                      "internalType": "bytes32",
                      "name": "s",
                      "type": "bytes32"
                    },
                    {
                      "internalType": "uint8",
                      "name": "v",
                      "type": "uint8"
                    }
                  ],
                  "internalType": "struct NahmiiTypesLib.Signature",
                  "name": "signature",
                  "type": "tuple"
                }
              ],
              "internalType": "struct NahmiiTypesLib.Seal",
              "name": "seal",
              "type": "tuple"
            },
            {
              "internalType": "uint256",
              "name": "blockNumber",
              "type": "uint256"
            },
            {
              "internalType": "uint256",
              "name": "operatorId",
              "type": "uint256"
            }
          ],
          "internalType": "struct TradeTypesLib.Trade",
          "name": "firstTrade",
          "type": "tuple"
        },
        {
          "components": [
            {
              "internalType": "uint256",
              "name": "nonce",
              "type": "uint256"
            },
            {
              "internalType": "int256",
              "name": "amount",
              "type": "int256"
            },
            {
              "components": [
                {
                  "components": [
                    {
                      "internalType": "address",
                      "name": "ct",
                      "type": "address"
                    },
                    {
                      "internalType": "uint256",
                      "name": "id",
                      "type": "uint256"
                    }
                  ],
                  "internalType": "struct MonetaryTypesLib.Currency",
                  "name": "intended",
                  "type": "tuple"
                },
                {
                  "components": [
                    {
                      "internalType": "address",
                      "name": "ct",
                      "type": "address"
                    },
                    {
                      "internalType": "uint256",
                      "name": "id",
                      "type": "uint256"
                    }
                  ],
                  "internalType": "struct MonetaryTypesLib.Currency",
                  "name": "conjugate",
                  "type": "tuple"
                }
              ],
              "internalType": "struct NahmiiTypesLib.IntendedConjugateCurrency",
              "name": "currencies",
              "type": "tuple"
            },
            {
              "internalType": "int256",
              "name": "rate",
              "type": "int256"
            },
            {
              "components": [
                {
                  "internalType": "uint256",
                  "name": "nonce",
                  "type": "uint256"
                },
                {
                  "internalType": "address",
                  "name": "wallet",
                  "type": "address"
                },
                {
                  "internalType": "uint256",
                  "name": "rollingVolume",
                  "type": "uint256"
                },
                {
                  "internalType": "enum TradeTypesLib.LiquidityRole",
                  "name": "liquidityRole",
                  "type": "uint8"
                },
                {
                  "components": [
                    {
                      "internalType": "int256",
                      "name": "amount",
                      "type": "int256"
                    },
                    {
                      "components": [
                        {
                          "internalType": "bytes32",
                          "name": "wallet",
                          "type": "bytes32"
                        },
                        {
                          "internalType": "bytes32",
                          "name": "operator",
                          "type": "bytes32"
                        }
                      ],
                      "internalType": "struct NahmiiTypesLib.WalletOperatorHashes",
                      "name": "hashes",
                      "type": "tuple"
                    },
                    {
                      "components": [
                        {
                          "internalType": "int256",
                          "name": "current",
                          "type": "int256"
                        },
                        {
                          "internalType": "int256",
                          "name": "previous",
                          "type": "int256"
                        }
                      ],
                      "internalType": "struct NahmiiTypesLib.CurrentPreviousInt256",
                      "name": "residuals",
                      "type": "tuple"
                    }
                  ],
                  "internalType": "struct TradeTypesLib.TradeOrder",
                  "name": "order",
                  "type": "tuple"
                },
                {
                  "components": [
                    {
                      "components": [
                        {
                          "internalType": "int256",
                          "name": "current",
                          "type": "int256"
                        },
                        {
                          "internalType": "int256",
                          "name": "previous",
                          "type": "int256"
                        }
                      ],
                      "internalType": "struct NahmiiTypesLib.CurrentPreviousInt256",
                      "name": "intended",
                      "type": "tuple"
                    },
                    {
                      "components": [
                        {
                          "internalType": "int256",
                          "name": "current",
                          "type": "int256"
                        },
                        {
                          "internalType": "int256",
                          "name": "previous",
                          "type": "int256"
                        }
                      ],
                      "internalType": "struct NahmiiTypesLib.CurrentPreviousInt256",
                      "name": "conjugate",
                      "type": "tuple"
                    }
                  ],
                  "internalType": "struct NahmiiTypesLib.IntendedConjugateCurrentPreviousInt256",
                  "name": "balances",
                  "type": "tuple"
                },
                {
                  "components": [
                    {
                      "components": [
                        {
                          "internalType": "int256",
                          "name": "amount",
                          "type": "int256"
                        },
                        {
                          "components": [
                            {
                              "internalType": "address",
                              "name": "ct",
                              "type": "address"
                            },
                            {
                              "internalType": "uint256",
                              "name": "id",
                              "type": "uint256"
                            }
                          ],
                          "internalType": "struct MonetaryTypesLib.Currency",
                          "name": "currency",
                          "type": "tuple"
                        }
                      ],
                      "internalType": "struct MonetaryTypesLib.Figure",
                      "name": "single",
                      "type": "tuple"
                    },
                    {
                      "components": [
                        {
                          "internalType": "uint256",
                          "name": "originId",
                          "type": "uint256"
                        },
                        {
                          "components": [
                            {
                              "internalType": "int256",
                              "name": "amount",
                              "type": "int256"
                            },
                            {
                              "components": [
                                {
                                  "internalType": "address",
                                  "name": "ct",
                                  "type": "address"
                                },
                                {
                                  "internalType": "uint256",
                                  "name": "id",
                                  "type": "uint256"
                                }
                              ],
                              "internalType": "struct MonetaryTypesLib.Currency",
                              "name": "currency",
                              "type": "tuple"
                            }
                          ],
                          "internalType": "struct MonetaryTypesLib.Figure",
                          "name": "figure",
                          "type": "tuple"
                        }
                      ],
                      "internalType": "struct NahmiiTypesLib.OriginFigure[]",
                      "name": "total",
                      "type": "tuple[]"
                    }
                  ],
                  "internalType": "struct NahmiiTypesLib.SingleFigureTotalOriginFigures",
                  "name": "fees",
                  "type": "tuple"
                }
              ],
              "internalType": "struct TradeTypesLib.TradeParty",
              "name": "buyer",
              "type": "tuple"
            },
            {
              "components": [
                {
                  "internalType": "uint256",
                  "name": "nonce",
                  "type": "uint256"
                },
                {
                  "internalType": "address",
                  "name": "wallet",
                  "type": "address"
                },
                {
                  "internalType": "uint256",
                  "name": "rollingVolume",
                  "type": "uint256"
                },
                {
                  "internalType": "enum TradeTypesLib.LiquidityRole",
                  "name": "liquidityRole",
                  "type": "uint8"
                },
                {
                  "components": [
                    {
                      "internalType": "int256",
                      "name": "amount",
                      "type": "int256"
                    },
                    {
                      "components": [
                        {
                          "internalType": "bytes32",
                          "name": "wallet",
                          "type": "bytes32"
                        },
                        {
                          "internalType": "bytes32",
                          "name": "operator",
                          "type": "bytes32"
                        }
                      ],
                      "internalType": "struct NahmiiTypesLib.WalletOperatorHashes",
                      "name": "hashes",
                      "type": "tuple"
                    },
                    {
                      "components": [
                        {
                          "internalType": "int256",
                          "name": "current",
                          "type": "int256"
                        },
                        {
                          "internalType": "int256",
                          "name": "previous",
                          "type": "int256"
                        }
                      ],
                      "internalType": "struct NahmiiTypesLib.CurrentPreviousInt256",
                      "name": "residuals",
                      "type": "tuple"
                    }
                  ],
                  "internalType": "struct TradeTypesLib.TradeOrder",
                  "name": "order",
                  "type": "tuple"
                },
                {
                  "components": [
                    {
                      "components": [
                        {
                          "internalType": "int256",
                          "name": "current",
                          "type": "int256"
                        },
                        {
                          "internalType": "int256",
                          "name": "previous",
                          "type": "int256"
                        }
                      ],
                      "internalType": "struct NahmiiTypesLib.CurrentPreviousInt256",
                      "name": "intended",
                      "type": "tuple"
                    },
                    {
                      "components": [
                        {
                          "internalType": "int256",
                          "name": "current",
                          "type": "int256"
                        },
                        {
                          "internalType": "int256",
                          "name": "previous",
                          "type": "int256"
                        }
                      ],
                      "internalType": "struct NahmiiTypesLib.CurrentPreviousInt256",
                      "name": "conjugate",
                      "type": "tuple"
                    }
                  ],
                  "internalType": "struct NahmiiTypesLib.IntendedConjugateCurrentPreviousInt256",
                  "name": "balances",
                  "type": "tuple"
                },
                {
                  "components": [
                    {
                      "components": [
                        {
                          "internalType": "int256",
                          "name": "amount",
                          "type": "int256"
                        },
                        {
                          "components": [
                            {
                              "internalType": "address",
                              "name": "ct",
                              "type": "address"
                            },
                            {
                              "internalType": "uint256",
                              "name": "id",
                              "type": "uint256"
                            }
                          ],
                          "internalType": "struct MonetaryTypesLib.Currency",
                          "name": "currency",
                          "type": "tuple"
                        }
                      ],
                      "internalType": "struct MonetaryTypesLib.Figure",
                      "name": "single",
                      "type": "tuple"
                    },
                    {
                      "components": [
                        {
                          "internalType": "uint256",
                          "name": "originId",
                          "type": "uint256"
                        },
                        {
                          "components": [
                            {
                              "internalType": "int256",
                              "name": "amount",
                              "type": "int256"
                            },
                            {
                              "components": [
                                {
                                  "internalType": "address",
                                  "name": "ct",
                                  "type": "address"
                                },
                                {
                                  "internalType": "uint256",
                                  "name": "id",
                                  "type": "uint256"
                                }
                              ],
                              "internalType": "struct MonetaryTypesLib.Currency",
                              "name": "currency",
                              "type": "tuple"
                            }
                          ],
                          "internalType": "struct MonetaryTypesLib.Figure",
                          "name": "figure",
                          "type": "tuple"
                        }
                      ],
                      "internalType": "struct NahmiiTypesLib.OriginFigure[]",
                      "name": "total",
                      "type": "tuple[]"
                    }
                  ],
                  "internalType": "struct NahmiiTypesLib.SingleFigureTotalOriginFigures",
                  "name": "fees",
                  "type": "tuple"
                }
              ],
              "internalType": "struct TradeTypesLib.TradeParty",
              "name": "seller",
              "type": "tuple"
            },
            {
              "components": [
                {
                  "components": [
                    {
                      "internalType": "int256",
                      "name": "single",
                      "type": "int256"
                    },
                    {
                      "internalType": "int256",
                      "name": "total",
                      "type": "int256"
                    }
                  ],
                  "internalType": "struct NahmiiTypesLib.SingleTotalInt256",
                  "name": "intended",
                  "type": "tuple"
                },
                {
                  "components": [
                    {
                      "internalType": "int256",
                      "name": "single",
                      "type": "int256"
                    },
                    {
                      "internalType": "int256",
                      "name": "total",
                      "type": "int256"
                    }
                  ],
                  "internalType": "struct NahmiiTypesLib.SingleTotalInt256",
                  "name": "conjugate",
                  "type": "tuple"
                }
              ],
              "internalType": "struct NahmiiTypesLib.IntendedConjugateSingleTotalInt256",
              "name": "transfers",
              "type": "tuple"
            },
            {
              "components": [
                {
                  "internalType": "bytes32",
                  "name": "hash",
                  "type": "bytes32"
                },
                {
                  "components": [
                    {
                      "internalType": "bytes32",
                      "name": "r",
                      "type": "bytes32"
                    },
                    {
                      "internalType": "bytes32",
                      "name": "s",
                      "type": "bytes32"
                    },
                    {
                      "internalType": "uint8",
                      "name": "v",
                      "type": "uint8"
                    }
                  ],
                  "internalType": "struct NahmiiTypesLib.Signature",
                  "name": "signature",
                  "type": "tuple"
                }
              ],
              "internalType": "struct NahmiiTypesLib.Seal",
              "name": "seal",
              "type": "tuple"
            },
            {
              "internalType": "uint256",
              "name": "blockNumber",
              "type": "uint256"
            },
            {
              "internalType": "uint256",
              "name": "operatorId",
              "type": "uint256"
            }
          ],
          "internalType": "struct TradeTypesLib.Trade",
          "name": "lastTrade",
          "type": "tuple"
        },
        {
          "internalType": "address",
          "name": "wallet",
          "type": "address"
        }
      ],
      "name": "challenge",
      "outputs": [],
      "payable": false,
      "stateMutability": "nonpayable",
      "type": "function"
    }
  ],
  "bytecode": "0x60806040523480156200001157600080fd5b5060405162002056380380620020568339810160408190526200003491620000b3565b80806001600160a01b0381166200004a57600080fd5b6001600160a01b0381163014156200006157600080fd5b5060008054610100600160a81b0319166101006001600160a01b0393909316928302179055600180546001600160a01b03191690911790555062000108565b8051620000ad81620000ee565b92915050565b600060208284031215620000c657600080fd5b6000620000d48484620000a0565b949350505050565b60006001600160a01b038216620000ad565b620000f981620000dc565b81146200010557600080fd5b50565b611f3e80620001186000396000f3fe608060405234801561001057600080fd5b50600436106101075760003560e01c806301370d061461010c5780631327d3d814610121578063240625d8146101345780632738a112146101525780632f013a001461015a5780633a5381b5146101625780633bd7857f146101775780634476d23b1461017f578063570ca735146101945780635dc60def1461019c578063627f09c3146101a45780636792ce6e146101b75780636b0570d0146101ca5780636c70bee9146101d257806370327ea1146101da578063892860b2146101e257806396214735146101f5578063b3ab15fb14610208578063d5f394881461021b578063e8ae41e314610223578063ec8725f21461022b575b600080fd5b61011f61011a366004611681565b61023e565b005b61011f61012f366004611681565b6102df565b61013c610370565b6040516101499190611ca0565b60405180910390f35b61011f610380565b61013c6103e6565b61016a6103ef565b6040516101499190611cf1565b61016a6103fe565b61018761040d565b6040516101499190611be0565b610187610421565b61011f610430565b61011f6101b2366004611681565b61047f565b61011f6101c5366004611681565b610510565b61016a6105a1565b61016a6105b0565b61011f6105bf565b61011f6101f0366004611681565b610622565b61011f61020336600461163d565b6106e6565b61011f61021636600461163d565b6107a6565b610187610849565b61016a61085d565b61011f61023936600461169f565b61086c565b610246611068565b61024f57600080fd5b806001600160a01b03811661026357600080fd5b60025482906001600160a01b0390811690821681146102d957600280546001600160a01b038681166001600160a01b03198316179092556040519116907f07998fa7be97abe2427246ae4688298c89d6196bbffdf0997b9495a8d27bc673906102cf9083908890611cff565b60405180910390a1505b50505050565b6102e7611068565b6102f057600080fd5b806001600160a01b03811661030457600080fd5b60045482906001600160a01b0390811690821681146102d957600480546001600160a01b038681166001600160a01b03198316179092556040519116907f1882af944a16549c3d4f60e3cd26f158b0c7aac3222cf32971fc21375ce05f60906102cf9083908890611cff565b600654600160a01b900460ff1681565b3361038961040d565b6001600160a01b03161461039c57600080fd5b60005460ff16156103ac57600080fd5b7f787a5d936e74f4b564b9153575886059829c78cd9927b1be5e0d976b317ef736336040516103db9190611bee565b60405180910390a133ff5b60005460ff1681565b6004546001600160a01b031681565b6002546001600160a01b031681565b60005461010090046001600160a01b031690565b6001546001600160a01b031681565b610438611068565b61044157600080fd5b6006805460ff60a01b1916600160a01b1790556040517f56ec8900b9c4bf84f4b715a53068ca06961dd49084c07b481931e2c2045346e690600090a1565b610487611068565b61049057600080fd5b806001600160a01b0381166104a457600080fd5b60035482906001600160a01b0390811690821681146102d957600380546001600160a01b038681166001600160a01b03198316179092556040519116907f634f61bf00e14adedce330c80c2823e16e184f189ebe853e1ddecc4a268477ff906102cf9083908890611cff565b610518611068565b61052157600080fd5b806001600160a01b03811661053557600080fd5b60055482906001600160a01b0390811690821681146102d957600580546001600160a01b038681166001600160a01b03198316179092556040519116907fc9f3f00c1760fe26985aeacb814a21c56ea289d680562e89b249681b08c30382906102cf9083908890611cff565b6005546001600160a01b031681565b6003546001600160a01b031681565b336105c861040d565b6001600160a01b0316146105db57600080fd5b6000805460ff191660011790556040517fd5a2a04a775c741c2ca0dc46ea7ce4835190e1aaf1ca018def0e82568ec3361690610618903390611bee565b60405180910390a1565b61062a611068565b61063357600080fd5b806001600160a01b03811661064757600080fd5b60065482906001600160a01b0390811690821681146102d957600654600160a01b900460ff16156106935760405162461bcd60e51b815260040161068a90611d3a565b60405180910390fd5b600680546001600160a01b038681166001600160a01b03198316179092556040519116907fa44d361e26327b72a7ccbeae801b3c5cd7677ea4fa74168b289e273c46bfecfc906102cf9083908890611cff565b6106ee611068565b6106f757600080fd5b806001600160a01b03811661070b57600080fd5b6001600160a01b03811630141561072157600080fd5b6000546001600160a01b0383811661010090920416146107a257600080546001600160a01b03848116610100908102610100600160a81b03198416179093556040519290910416907f977e5fa58e458501775e0008d275006294c5249e3c08d1d0e3a9f3acad14f6e4906107989083908690611c24565b60405180910390a1505b5050565b6107ae61107e565b6107b757600080fd5b806001600160a01b0381166107cb57600080fd5b6001600160a01b0381163014156107e157600080fd5b6001546001600160a01b038381169116146107a257600180546001600160a01b038481166001600160a01b03198316179092556040519116907f9f611b789425d0d5b90b920f1b2852907dd865c80074a30b1629aaa041d1812c906107989083908690611c24565b60005461010090046001600160a01b031681565b6006546001600160a01b031681565b600360009054906101000a90046001600160a01b03166001600160a01b031663f71e860f6040518163ffffffff1660e01b815260040160206040518083038186803b1580156108ba57600080fd5b505afa1580156108ce573d6000803e3d6000fd5b505050506040513d601f19601f820116820180604052506108f29190810190611663565b61090e5760405162461bcd60e51b815260040161068a90611d1a565b60048054604051637211c8c760e11b815285926001600160a01b039092169163e423918e9161093f91859101611d4a565b60206040518083038186803b15801561095757600080fd5b505afa15801561096b573d6000803e3d6000fd5b505050506040513d601f19601f8201168201806040525061098f9190810190611663565b6109ab5760405162461bcd60e51b815260040161068a90611d2a565b60048054604051637211c8c760e11b815285926001600160a01b039092169163e423918e916109dc91859101611d4a565b60206040518083038186803b1580156109f457600080fd5b505afa158015610a08573d6000803e3d6000fd5b505050506040513d601f19601f82011682018060405250610a2c9190810190611663565b610a485760405162461bcd60e51b815260040161068a90611d2a565b600480546040516303e149c360e11b81526001600160a01b03909116916307c2938691610a79918991889101611d5b565b60206040518083038186803b158015610a9157600080fd5b505afa158015610aa5573d6000803e3d6000fd5b505050506040513d601f19601f82011682018060405250610ac99190810190611663565b610ad257600080fd5b600480546040516303e149c360e11b81526001600160a01b03909116916307c2938691610b03918891889101611d5b565b60206040518083038186803b158015610b1b57600080fd5b505afa158015610b2f573d6000803e3d6000fd5b505050506040513d601f19601f82011682018060405250610b539190810190611663565b610b5c57600080fd5b60008560800151602001516001600160a01b0316846001600160a01b031614610b86576001610b89565b60005b905060008560800151602001516001600160a01b0316856001600160a01b031614610bb5576001610bb8565b60005b9050806001811115610bc657fe5b826001811115610bd257fe5b14610bdc57600080fd5b816001811115610be857fe5b610c165760808087015181015160209081015151898301519092015101515114610c1157600080fd5b610c42565b8560a001516080015160200151600001518760a0015160800151602001516000015114610c4257600080fd5b60048054604051631ba37f1f60e11b81526001600160a01b0390911691633746fe3e91610c77918b9187918c91889101611d7b565b60206040518083038186803b158015610c8f57600080fd5b505afa158015610ca3573d6000803e3d6000fd5b505050506040513d601f19601f82011682018060405250610cc79190810190611663565b610cd057600080fd5b60048054604051630c7ec78960e21b81526001600160a01b03909116916331fb1e2491610d03918b918b91889101611dbc565b60206040518083038186803b158015610d1b57600080fd5b505afa158015610d2f573d6000803e3d6000fd5b505050506040513d601f19601f82011682018060405250610d539190810190611663565b15610d5d57600080fd5b600360009054906101000a90046001600160a01b03166001600160a01b031663f8e6e8886040518163ffffffff1660e01b8152600401600060405180830381600087803b158015610dad57600080fd5b505af1158015610dc1573d6000803e3d6000fd5b505060025460e0890151516040516375d8655b60e01b81526001600160a01b0390921693506375d8655b9250610df991600401611cae565b600060405180830381600087803b158015610e1357600080fd5b505af1158015610e27573d6000803e3d6000fd5b505060055460035460408051639699f33760e01b815290516001600160a01b03938416955063760b82929450339390921691639699f33791600480820192602092909190829003018186803b158015610e7f57600080fd5b505afa158015610e93573d6000803e3d6000fd5b505050506040513d601f19601f82011682018060405250610eb79190810190611719565b60006040518463ffffffff1660e01b8152600401610ed793929190611bfc565b600060405180830381600087803b158015610ef157600080fd5b505af1158015610f05573d6000803e3d6000fd5b50506006546001600160a01b03169150639a54532290508633610f288a8661108f565b6040808c015151805160209091015191516001600160e01b031960e088901b168152610f5d9594939290600090600401611c46565b600060405180830381600087803b158015610f7757600080fd5b505af1158015610f8b573d6000803e3d6000fd5b50506006546001600160a01b03169150639a54532290508633610fae8a866110c4565b6040808c0151602090810151805191015191516001600160e01b031960e088901b168152610fe59594939290600090600401611c46565b600060405180830381600087803b158015610fff57600080fd5b505af1158015611013573d6000803e3d6000fd5b50505060e0808901515190880151516040517f19bce462cce6b1dffa0eecc216414a9dabff1354acbc69c4c91bbf3cde1eaf4c935061105792919033908a90611cbc565b60405180910390a150505050505050565b60005461010090046001600160a01b0316331490565b6001546001600160a01b0316331490565b600081600181111561109d57fe5b6110b25750608082015160a0015151516110be565b5060a080830151015151515b92915050565b60008160018111156110d257fe5b6110ea5750608082015160a0015160200151516110be565b5060a080830151015160200151516110be565b80356110be81611eb6565b600082601f83011261111957600080fd5b813561112c61112782611e16565b611df0565b9150818183526020840193506020810190508385608084028201111561115157600080fd5b60005b8381101561117f578161116788826112d7565b84525060209092019160809190910190600101611154565b5050505092915050565b80516110be81611eca565b80356110be81611ed3565b80356110be81611edc565b80356110be81611ee5565b6000604082840312156111c757600080fd5b6111d16040611df0565b905060006111df84846110fd565b82525060206111f084848301611194565b60208301525092915050565b60006040828403121561120e57600080fd5b6112186040611df0565b905060006111df8484611194565b60006060828403121561123857600080fd5b6112426040611df0565b905060006112508484611194565b82525060206111f0848483016111b5565b60006080828403121561127357600080fd5b61127d6040611df0565b9050600061128b84846111b5565b82525060406111f0848483016111b5565b6000608082840312156112ae57600080fd5b6112b86040611df0565b905060006112c684846111fc565b82525060406111f0848483016111fc565b6000608082840312156112e957600080fd5b6112f36040611df0565b905060006113018484611194565b82525060206111f084848301611226565b60006080828403121561132457600080fd5b61132e6040611df0565b9050600061133c8484611194565b82525060206111f08484830160006060828403121561135a57600080fd5b6113646060611df0565b905060006113728484611194565b825250602061138384848301611194565b602083015250604061139784828501611632565b60408301525092915050565b6000608082840312156113b557600080fd5b6113bf6040611df0565b905060006113cd8484611226565b82525060608201356001600160401b038111156113e957600080fd5b6111f084828501611108565b600060a0828403121561140757600080fd5b6114116060611df0565b9050600061141f8484611194565b8252506020611430848483016111fc565b6020830152506060611397848285016111fc565b60006101c0828403121561145757600080fd5b61146160e0611df0565b9050600061146f8484611194565b8252506020611480848483016110fd565b602083015250604061149484828501611194565b60408301525060606114a8848285016111aa565b60608301525060806114bc848285016113f5565b6080830152506101206114d18482850161129c565b60a0830152506101a08201356001600160401b038111156114f157600080fd5b6114fd848285016113a3565b60c08301525092915050565b6000610260828403121561151c57600080fd5b611527610140611df0565b905060006115358484611194565b825250602061154684848301611194565b602083015250604061155a84828501611261565b60408301525060c061156e84828501611194565b60608301525060e08201356001600160401b0381111561158d57600080fd5b61159984828501611444565b6080830152506101008201356001600160401b038111156115b957600080fd5b6115c584828501611444565b60a0830152506101206115da8482850161129c565b60c0830152506101a06115ef84828501611312565b60e08301525061022061160484828501611194565b6101008301525061024061161a84828501611194565b6101208301525092915050565b80516110be81611ed3565b80356110be81611ef2565b60006020828403121561164f57600080fd5b600061165b84846110fd565b949350505050565b60006020828403121561167557600080fd5b600061165b8484611189565b60006020828403121561169357600080fd5b600061165b848461119f565b6000806000606084860312156116b457600080fd5b83356001600160401b038111156116ca57600080fd5b6116d686828701611509565b93505060208401356001600160401b038111156116f257600080fd5b6116fe86828701611509565b925050604061170f868287016110fd565b9150509250925092565b60006020828403121561172b57600080fd5b600061165b8484611627565b60006117438383611986565b505060800190565b61175481611e88565b82525050565b61175481611e49565b600061176e82611e3c565b6117788185611e40565b935061178383611e36565b8060005b838110156117b157815161179b8882611737565b97506117a683611e36565b925050600101611787565b509495945050505050565b61175481611e54565b61175481611e59565b61175481611e5c565b61175481611e93565b61175481611e9e565b60006117f6603f83611e40565b7f4f7065726174696f6e616c206d6f6465206973206e6f74206e6f726d616c205b81527f436f6e666967757261626c654f7065726174696f6e616c2e736f6c3a32325d00602082015260400192915050565b6000611855602d83611e40565b7f5472616465207365616c206e6f742067656e75696e65205b56616c696461746181526c626c6556322e736f6c3a37305d60981b602082015260400192915050565b60006118a4602c83611e40565b7f57616c6c6574206c6f636b65722066726f7a656e205b57616c6c65744c6f636b81526b61626c652e736f6c3a34335d60a01b602082015260400192915050565b805160408301906118f6848261175a565b5060208201516102d960208501826117c5565b805160408301906118f684826117c5565b8051606083019061192b84826117c5565b5060208201516102d960208501826118e5565b8051608083019061194f84826118e5565b5060208201516102d960408501826118e5565b805160808301906119738482611909565b5060208201516102d96040850182611909565b8051608083019061199784826117c5565b5060208201516102d9602085018261191a565b805160808301906119bb84826117c5565b5060208201516102d96020850182805160608301906119da84826117c5565b5060208201516119ed60208501826117c5565b5060408201516102d96040850182611bd7565b80516000906080840190611a14858261191a565b5060208301518482036060860152611a2c8282611763565b95945050505050565b805160a0830190611a4684826117c5565b506020820151611a596020850182611909565b5060408201516102d96060850182611909565b80516000906101c0840190611a8185826117c5565b506020830151611a94602086018261175a565b506040830151611aa760408601826117c5565b506060830151611aba60608601826117d7565b506080830151611acd6080860182611a35565b5060a0830151611ae1610120860182611962565b5060c08301518482036101a0860152611a2c8282611a00565b8051600090610260840190611b0f85826117c5565b506020830151611b2260208601826117c5565b506040830151611b35604086018261193e565b506060830151611b4860c08601826117c5565b50608083015184820360e0860152611b608282611a6c565b91505060a0830151848203610100860152611b7b8282611a6c565b91505060c0830151611b91610120860182611962565b5060e0830151611ba56101a08601826119aa565b50610100830151611bba6102208601826117c5565b50610120830151611bcf6102408601826117c5565b509392505050565b61175481611e82565b602081016110be828461175a565b602081016110be828461174b565b60608101611c0a828661174b565b611c1760208301856117c5565b61165b60408301846117e0565b60408101611c32828561175a565b611c3f602083018461175a565b9392505050565b60c08101611c54828961175a565b611c61602083018861174b565b611c6e60408301876117c5565b611c7b606083018661175a565b611c8860808301856117c5565b611c9560a08301846117e0565b979650505050505050565b602081016110be82846117bc565b602081016110be82846117c5565b60808101611cca82876117c5565b611cd760208301866117c5565b611ce4604083018561174b565b611a2c606083018461175a565b602081016110be82846117ce565b60408101611d0d82856117ce565b611c3f60208301846117ce565b602080825281016110be816117e9565b602080825281016110be81611848565b602080825281016110be81611897565b60208082528101611c3f8184611afa565b60408082528101611d6c8185611afa565b9050611c3f602083018461175a565b60808082528101611d8c8187611afa565b9050611d9b60208301866117d7565b8181036040830152611dad8185611afa565b9050611a2c60608301846117d7565b60608082528101611dcd8186611afa565b90508181036020830152611de18185611afa565b905061165b60408301846117d7565b6040518181016001600160401b0381118282101715611e0e57600080fd5b604052919050565b60006001600160401b03821115611e2c57600080fd5b5060209081020190565b60200190565b5190565b90815260200190565b60006110be82611e76565b151590565b90565b60006110be82611e49565b80611e7181611ea9565b919050565b6001600160a01b031690565b60ff1690565b60006110be82611e5c565b60006110be82611e67565b60006110be82611e59565b60028110611eb357fe5b50565b611ebf81611e49565b8114611eb357600080fd5b611ebf81611e54565b611ebf81611e59565b611ebf81611e5c565b60028110611eb357600080fd5b611ebf81611e8256fea365627a7a72315820f5444cdea1da378bd90344b1d6ea133301778775c665c635cce9ad99f80378646c6578706572696d656e74616cf564736f6c634300050c0040",
  "source": "/*\n * Hubii Nahmii\n *\n * Compliant with the Hubii Nahmii specification v0.12.\n *\n * Copyright (C) 2017-2018 Hubii AS\n */\n\npragma solidity >=0.4.25 <0.6.0;\npragma experimental ABIEncoderV2;\n\nimport {Ownable} from \"./Ownable.sol\";\nimport {FraudChallengable} from \"./FraudChallengable.sol\";\nimport {ConfigurableOperational} from \"./ConfigurableOperational.sol\";\nimport {ValidatableV2} from \"./ValidatableV2.sol\";\nimport {SecurityBondable} from \"./SecurityBondable.sol\";\nimport {WalletLockable} from \"./WalletLockable.sol\";\nimport {TradeTypesLib} from \"./TradeTypesLib.sol\";\nimport {SafeMathIntLib} from \"./SafeMathIntLib.sol\";\n\n/**\n * @title FraudChallengeByTradeOrderResiduals\n * @notice Where driips are challenged wrt fraud by mismatch in trade order residuals\n */\ncontract FraudChallengeByTradeOrderResiduals is Ownable, FraudChallengable, ConfigurableOperational, ValidatableV2,\nSecurityBondable, WalletLockable {\n    using SafeMathIntLib for int256;\n\n    //\n    // Events\n    // -----------------------------------------------------------------------------------------------------------------\n    event ChallengeByTradeOrderResidualsEvent(bytes32 firstTradeHash, bytes32 lastTradeHash,\n        address challenger, address lockedWallet);\n\n    //\n    // Constructor\n    // -----------------------------------------------------------------------------------------------------------------\n    constructor(address deployer) Ownable(deployer) public {\n    }\n\n    //\n    // Functions\n    // -----------------------------------------------------------------------------------------------------------------\n    /// @notice Submit two trade candidates in continuous Fraud Challenge (FC) to be tested for\n    /// trade order residual differences\n    /// @param firstTrade Reference trade\n    /// @param lastTrade Fraudulent trade candidate\n    /// @param wallet The address of the concerned wallet\n    function challenge(\n        TradeTypesLib.Trade memory firstTrade,\n        TradeTypesLib.Trade memory lastTrade,\n        address wallet\n    )\n    public\n    onlyOperationalModeNormal\n    onlySealedTrade(firstTrade)\n    onlySealedTrade(lastTrade)\n    {\n        require(validator.isTradeParty(firstTrade, wallet));\n        require(validator.isTradeParty(lastTrade, wallet));\n\n        // Require that the wallet has the same party role in both trades\n        TradeTypesLib.TradePartyRole firstTradePartyRole = (wallet == firstTrade.buyer.wallet ? TradeTypesLib.TradePartyRole.Buyer : TradeTypesLib.TradePartyRole.Seller);\n        TradeTypesLib.TradePartyRole lastTradePartyRole = (wallet == lastTrade.buyer.wallet ? TradeTypesLib.TradePartyRole.Buyer : TradeTypesLib.TradePartyRole.Seller);\n        require(firstTradePartyRole == lastTradePartyRole);\n\n        // Require that the two trades's relevant wallet order hash (that excludes residual) are equal\n        if (TradeTypesLib.TradePartyRole.Buyer == firstTradePartyRole)\n            require(firstTrade.buyer.order.hashes.wallet == lastTrade.buyer.order.hashes.wallet);\n        else // TradeTypesLib.TradePartyRole.Seller == firstTradePartyRole\n            require(firstTrade.seller.order.hashes.wallet == lastTrade.seller.order.hashes.wallet);\n\n        require(validator.isSuccessiveTradesPartyNonces(firstTrade, firstTradePartyRole, lastTrade, lastTradePartyRole));\n\n        // Require existence of fraud signal\n        require(!validator.isGenuineSuccessiveTradeOrderResiduals(firstTrade, lastTrade, firstTradePartyRole));\n\n        // Toggle operational mode exit\n        configuration.setOperationalModeExit();\n\n        // Tag last trade (hash) as fraudulent\n        fraudChallenge.addFraudulentTradeHash(lastTrade.seal.hash);\n\n        // Reward stake fraction\n        securityBond.rewardFractional(msg.sender, configuration.fraudStakeFraction(), 0);\n\n        // Lock amounts of size equivalent to last trade's balances\n        walletLocker.lockFungibleByProxy(\n            wallet, msg.sender,\n            _tradeIntendedLockAmount(lastTrade, lastTradePartyRole),\n            lastTrade.currencies.intended.ct, lastTrade.currencies.intended.id, 0\n        );\n        walletLocker.lockFungibleByProxy(\n            wallet, msg.sender,\n            _tradeConjugateLockAmount(lastTrade, lastTradePartyRole),\n            lastTrade.currencies.conjugate.ct, lastTrade.currencies.conjugate.id, 0\n        );\n\n        // Emit event\n        emit ChallengeByTradeOrderResidualsEvent(\n            firstTrade.seal.hash, lastTrade.seal.hash, msg.sender, wallet\n        );\n    }\n\n    //\n    // Private functions\n    // -----------------------------------------------------------------------------------------------------------------\n    function _tradeIntendedLockAmount(TradeTypesLib.Trade memory trade, TradeTypesLib.TradePartyRole tradePartyRole)\n    private\n    pure\n    returns (int256)\n    {\n        if (TradeTypesLib.TradePartyRole.Buyer == tradePartyRole)\n            return trade.buyer.balances.intended.current;\n        else // TradeTypesLib.TradePartyRole.Seller == tradePartyRole)\n            return trade.seller.balances.intended.current;\n    }\n\n    function _tradeConjugateLockAmount(TradeTypesLib.Trade memory trade, TradeTypesLib.TradePartyRole tradePartyRole)\n    private\n    pure\n    returns (int256)\n    {\n        if (TradeTypesLib.TradePartyRole.Buyer == tradePartyRole)\n            return trade.buyer.balances.conjugate.current;\n        else // TradeTypesLib.TradePartyRole.Seller == tradePartyRole)\n            return trade.seller.balances.conjugate.current;\n    }\n}",
  "sourcePath": "/opt/buildagent/work/855e104608380c36/contracts/FraudChallengeByTradeOrderResiduals.sol",
  "compiler": {
    "name": "solc",
    "version": "0.5.12+commit.7709ece9.Emscripten.clang"
  },
  "schemaVersion": "2.0.3",
  "updatedAt": "2019-10-23T00:21:40.828Z"
}