{
  "contractName": "FraudChallengeByDuplicateDriipNonceOfTradeAndPayment",
  "abi": [
    {
      "constant": false,
      "inputs": [
        {
          "name": "newFraudChallenge",
          "type": "address"
        }
      ],
      "name": "setFraudChallenge",
      "outputs": [],
      "payable": false,
      "stateMutability": "nonpayable",
      "type": "function"
    },
    {
      "constant": false,
      "inputs": [
        {
          "name": "newValidator",
          "type": "address"
        }
      ],
      "name": "setValidator",
      "outputs": [],
      "payable": false,
      "stateMutability": "nonpayable",
      "type": "function"
    },
    {
      "constant": false,
      "inputs": [],
      "name": "triggerSelfDestruction",
      "outputs": [],
      "payable": false,
      "stateMutability": "nonpayable",
      "type": "function"
    },
    {
      "constant": true,
      "inputs": [],
      "name": "selfDestructionDisabled",
      "outputs": [
        {
          "name": "",
          "type": "bool"
        }
      ],
      "payable": false,
      "stateMutability": "view",
      "type": "function"
    },
    {
      "constant": true,
      "inputs": [],
      "name": "validator",
      "outputs": [
        {
          "name": "",
          "type": "address"
        }
      ],
      "payable": false,
      "stateMutability": "view",
      "type": "function"
    },
    {
      "constant": true,
      "inputs": [],
      "name": "fraudChallenge",
      "outputs": [
        {
          "name": "",
          "type": "address"
        }
      ],
      "payable": false,
      "stateMutability": "view",
      "type": "function"
    },
    {
      "constant": true,
      "inputs": [],
      "name": "destructor",
      "outputs": [
        {
          "name": "",
          "type": "address"
        }
      ],
      "payable": false,
      "stateMutability": "view",
      "type": "function"
    },
    {
      "constant": true,
      "inputs": [],
      "name": "operator",
      "outputs": [
        {
          "name": "",
          "type": "address"
        }
      ],
      "payable": false,
      "stateMutability": "view",
      "type": "function"
    },
    {
      "constant": false,
      "inputs": [
        {
          "name": "newConfiguration",
          "type": "address"
        }
      ],
      "name": "setConfiguration",
      "outputs": [],
      "payable": false,
      "stateMutability": "nonpayable",
      "type": "function"
    },
    {
      "constant": false,
      "inputs": [
        {
          "name": "newSecurityBond",
          "type": "address"
        }
      ],
      "name": "setSecurityBond",
      "outputs": [],
      "payable": false,
      "stateMutability": "nonpayable",
      "type": "function"
    },
    {
      "constant": true,
      "inputs": [],
      "name": "securityBond",
      "outputs": [
        {
          "name": "",
          "type": "address"
        }
      ],
      "payable": false,
      "stateMutability": "view",
      "type": "function"
    },
    {
      "constant": true,
      "inputs": [],
      "name": "configuration",
      "outputs": [
        {
          "name": "",
          "type": "address"
        }
      ],
      "payable": false,
      "stateMutability": "view",
      "type": "function"
    },
    {
      "constant": false,
      "inputs": [],
      "name": "disableSelfDestruction",
      "outputs": [],
      "payable": false,
      "stateMutability": "nonpayable",
      "type": "function"
    },
    {
      "constant": false,
      "inputs": [
        {
          "name": "newDeployer",
          "type": "address"
        }
      ],
      "name": "setDeployer",
      "outputs": [],
      "payable": false,
      "stateMutability": "nonpayable",
      "type": "function"
    },
    {
      "constant": false,
      "inputs": [
        {
          "name": "newOperator",
          "type": "address"
        }
      ],
      "name": "setOperator",
      "outputs": [],
      "payable": false,
      "stateMutability": "nonpayable",
      "type": "function"
    },
    {
      "constant": true,
      "inputs": [],
      "name": "deployer",
      "outputs": [
        {
          "name": "",
          "type": "address"
        }
      ],
      "payable": false,
      "stateMutability": "view",
      "type": "function"
    },
    {
      "inputs": [
        {
          "name": "deployer",
          "type": "address"
        }
      ],
      "payable": false,
      "stateMutability": "nonpayable",
      "type": "constructor"
    },
    {
      "anonymous": false,
      "inputs": [
        {
          "indexed": false,
          "name": "tradeHash",
          "type": "bytes32"
        },
        {
          "indexed": false,
          "name": "paymentHash",
          "type": "bytes32"
        },
        {
          "indexed": false,
          "name": "challenger",
          "type": "address"
        }
      ],
      "name": "ChallengeByDuplicateDriipNonceOfTradeAndPaymentEvent",
      "type": "event"
    },
    {
      "anonymous": false,
      "inputs": [
        {
          "indexed": false,
          "name": "oldSecurityBond",
          "type": "address"
        },
        {
          "indexed": false,
          "name": "newSecurityBond",
          "type": "address"
        }
      ],
      "name": "SetSecurityBondEvent",
      "type": "event"
    },
    {
      "anonymous": false,
      "inputs": [
        {
          "indexed": false,
          "name": "oldValidator",
          "type": "address"
        },
        {
          "indexed": false,
          "name": "newValidator",
          "type": "address"
        }
      ],
      "name": "SetValidatorEvent",
      "type": "event"
    },
    {
      "anonymous": false,
      "inputs": [
        {
          "indexed": false,
          "name": "oldConfiguration",
          "type": "address"
        },
        {
          "indexed": false,
          "name": "newConfiguration",
          "type": "address"
        }
      ],
      "name": "SetConfigurationEvent",
      "type": "event"
    },
    {
      "anonymous": false,
      "inputs": [
        {
          "indexed": false,
          "name": "oldFraudChallenge",
          "type": "address"
        },
        {
          "indexed": false,
          "name": "newFraudChallenge",
          "type": "address"
        }
      ],
      "name": "SetFraudChallengeEvent",
      "type": "event"
    },
    {
      "anonymous": false,
      "inputs": [
        {
          "indexed": false,
          "name": "oldDeployer",
          "type": "address"
        },
        {
          "indexed": false,
          "name": "newDeployer",
          "type": "address"
        }
      ],
      "name": "SetDeployerEvent",
      "type": "event"
    },
    {
      "anonymous": false,
      "inputs": [
        {
          "indexed": false,
          "name": "oldOperator",
          "type": "address"
        },
        {
          "indexed": false,
          "name": "newOperator",
          "type": "address"
        }
      ],
      "name": "SetOperatorEvent",
      "type": "event"
    },
    {
      "anonymous": false,
      "inputs": [
        {
          "indexed": false,
          "name": "wallet",
          "type": "address"
        }
      ],
      "name": "SelfDestructionDisabledEvent",
      "type": "event"
    },
    {
      "anonymous": false,
      "inputs": [
        {
          "indexed": false,
          "name": "wallet",
          "type": "address"
        }
      ],
      "name": "TriggerSelfDestructionEvent",
      "type": "event"
    },
    {
      "constant": false,
      "inputs": [
        {
          "components": [
            {
              "name": "nonce",
              "type": "uint256"
            },
            {
              "name": "amount",
              "type": "int256"
            },
            {
              "components": [
                {
                  "components": [
                    {
                      "name": "ct",
                      "type": "address"
                    },
                    {
                      "name": "id",
                      "type": "uint256"
                    }
                  ],
                  "name": "intended",
                  "type": "tuple"
                },
                {
                  "components": [
                    {
                      "name": "ct",
                      "type": "address"
                    },
                    {
                      "name": "id",
                      "type": "uint256"
                    }
                  ],
                  "name": "conjugate",
                  "type": "tuple"
                }
              ],
              "name": "currencies",
              "type": "tuple"
            },
            {
              "name": "rate",
              "type": "int256"
            },
            {
              "components": [
                {
                  "name": "nonce",
                  "type": "uint256"
                },
                {
                  "name": "wallet",
                  "type": "address"
                },
                {
                  "name": "rollingVolume",
                  "type": "uint256"
                },
                {
                  "name": "liquidityRole",
                  "type": "uint8"
                },
                {
                  "components": [
                    {
                      "name": "amount",
                      "type": "int256"
                    },
                    {
                      "components": [
                        {
                          "name": "wallet",
                          "type": "bytes32"
                        },
                        {
                          "name": "operator",
                          "type": "bytes32"
                        }
                      ],
                      "name": "hashes",
                      "type": "tuple"
                    },
                    {
                      "components": [
                        {
                          "name": "current",
                          "type": "int256"
                        },
                        {
                          "name": "previous",
                          "type": "int256"
                        }
                      ],
                      "name": "residuals",
                      "type": "tuple"
                    }
                  ],
                  "name": "order",
                  "type": "tuple"
                },
                {
                  "components": [
                    {
                      "components": [
                        {
                          "name": "current",
                          "type": "int256"
                        },
                        {
                          "name": "previous",
                          "type": "int256"
                        }
                      ],
                      "name": "intended",
                      "type": "tuple"
                    },
                    {
                      "components": [
                        {
                          "name": "current",
                          "type": "int256"
                        },
                        {
                          "name": "previous",
                          "type": "int256"
                        }
                      ],
                      "name": "conjugate",
                      "type": "tuple"
                    }
                  ],
                  "name": "balances",
                  "type": "tuple"
                },
                {
                  "components": [
                    {
                      "components": [
                        {
                          "name": "amount",
                          "type": "int256"
                        },
                        {
                          "components": [
                            {
                              "name": "ct",
                              "type": "address"
                            },
                            {
                              "name": "id",
                              "type": "uint256"
                            }
                          ],
                          "name": "currency",
                          "type": "tuple"
                        }
                      ],
                      "name": "single",
                      "type": "tuple"
                    },
                    {
                      "components": [
                        {
                          "name": "originId",
                          "type": "uint256"
                        },
                        {
                          "components": [
                            {
                              "name": "amount",
                              "type": "int256"
                            },
                            {
                              "components": [
                                {
                                  "name": "ct",
                                  "type": "address"
                                },
                                {
                                  "name": "id",
                                  "type": "uint256"
                                }
                              ],
                              "name": "currency",
                              "type": "tuple"
                            }
                          ],
                          "name": "figure",
                          "type": "tuple"
                        }
                      ],
                      "name": "total",
                      "type": "tuple[]"
                    }
                  ],
                  "name": "fees",
                  "type": "tuple"
                }
              ],
              "name": "buyer",
              "type": "tuple"
            },
            {
              "components": [
                {
                  "name": "nonce",
                  "type": "uint256"
                },
                {
                  "name": "wallet",
                  "type": "address"
                },
                {
                  "name": "rollingVolume",
                  "type": "uint256"
                },
                {
                  "name": "liquidityRole",
                  "type": "uint8"
                },
                {
                  "components": [
                    {
                      "name": "amount",
                      "type": "int256"
                    },
                    {
                      "components": [
                        {
                          "name": "wallet",
                          "type": "bytes32"
                        },
                        {
                          "name": "operator",
                          "type": "bytes32"
                        }
                      ],
                      "name": "hashes",
                      "type": "tuple"
                    },
                    {
                      "components": [
                        {
                          "name": "current",
                          "type": "int256"
                        },
                        {
                          "name": "previous",
                          "type": "int256"
                        }
                      ],
                      "name": "residuals",
                      "type": "tuple"
                    }
                  ],
                  "name": "order",
                  "type": "tuple"
                },
                {
                  "components": [
                    {
                      "components": [
                        {
                          "name": "current",
                          "type": "int256"
                        },
                        {
                          "name": "previous",
                          "type": "int256"
                        }
                      ],
                      "name": "intended",
                      "type": "tuple"
                    },
                    {
                      "components": [
                        {
                          "name": "current",
                          "type": "int256"
                        },
                        {
                          "name": "previous",
                          "type": "int256"
                        }
                      ],
                      "name": "conjugate",
                      "type": "tuple"
                    }
                  ],
                  "name": "balances",
                  "type": "tuple"
                },
                {
                  "components": [
                    {
                      "components": [
                        {
                          "name": "amount",
                          "type": "int256"
                        },
                        {
                          "components": [
                            {
                              "name": "ct",
                              "type": "address"
                            },
                            {
                              "name": "id",
                              "type": "uint256"
                            }
                          ],
                          "name": "currency",
                          "type": "tuple"
                        }
                      ],
                      "name": "single",
                      "type": "tuple"
                    },
                    {
                      "components": [
                        {
                          "name": "originId",
                          "type": "uint256"
                        },
                        {
                          "components": [
                            {
                              "name": "amount",
                              "type": "int256"
                            },
                            {
                              "components": [
                                {
                                  "name": "ct",
                                  "type": "address"
                                },
                                {
                                  "name": "id",
                                  "type": "uint256"
                                }
                              ],
                              "name": "currency",
                              "type": "tuple"
                            }
                          ],
                          "name": "figure",
                          "type": "tuple"
                        }
                      ],
                      "name": "total",
                      "type": "tuple[]"
                    }
                  ],
                  "name": "fees",
                  "type": "tuple"
                }
              ],
              "name": "seller",
              "type": "tuple"
            },
            {
              "components": [
                {
                  "components": [
                    {
                      "name": "single",
                      "type": "int256"
                    },
                    {
                      "name": "total",
                      "type": "int256"
                    }
                  ],
                  "name": "intended",
                  "type": "tuple"
                },
                {
                  "components": [
                    {
                      "name": "single",
                      "type": "int256"
                    },
                    {
                      "name": "total",
                      "type": "int256"
                    }
                  ],
                  "name": "conjugate",
                  "type": "tuple"
                }
              ],
              "name": "transfers",
              "type": "tuple"
            },
            {
              "components": [
                {
                  "name": "hash",
                  "type": "bytes32"
                },
                {
                  "components": [
                    {
                      "name": "r",
                      "type": "bytes32"
                    },
                    {
                      "name": "s",
                      "type": "bytes32"
                    },
                    {
                      "name": "v",
                      "type": "uint8"
                    }
                  ],
                  "name": "signature",
                  "type": "tuple"
                }
              ],
              "name": "seal",
              "type": "tuple"
            },
            {
              "name": "blockNumber",
              "type": "uint256"
            },
            {
              "name": "operatorId",
              "type": "uint256"
            }
          ],
          "name": "trade",
          "type": "tuple"
        },
        {
          "components": [
            {
              "name": "nonce",
              "type": "uint256"
            },
            {
              "name": "amount",
              "type": "int256"
            },
            {
              "components": [
                {
                  "name": "ct",
                  "type": "address"
                },
                {
                  "name": "id",
                  "type": "uint256"
                }
              ],
              "name": "currency",
              "type": "tuple"
            },
            {
              "components": [
                {
                  "name": "nonce",
                  "type": "uint256"
                },
                {
                  "name": "wallet",
                  "type": "address"
                },
                {
                  "components": [
                    {
                      "name": "current",
                      "type": "int256"
                    },
                    {
                      "name": "previous",
                      "type": "int256"
                    }
                  ],
                  "name": "balances",
                  "type": "tuple"
                },
                {
                  "components": [
                    {
                      "components": [
                        {
                          "name": "amount",
                          "type": "int256"
                        },
                        {
                          "components": [
                            {
                              "name": "ct",
                              "type": "address"
                            },
                            {
                              "name": "id",
                              "type": "uint256"
                            }
                          ],
                          "name": "currency",
                          "type": "tuple"
                        }
                      ],
                      "name": "single",
                      "type": "tuple"
                    },
                    {
                      "components": [
                        {
                          "name": "originId",
                          "type": "uint256"
                        },
                        {
                          "components": [
                            {
                              "name": "amount",
                              "type": "int256"
                            },
                            {
                              "components": [
                                {
                                  "name": "ct",
                                  "type": "address"
                                },
                                {
                                  "name": "id",
                                  "type": "uint256"
                                }
                              ],
                              "name": "currency",
                              "type": "tuple"
                            }
                          ],
                          "name": "figure",
                          "type": "tuple"
                        }
                      ],
                      "name": "total",
                      "type": "tuple[]"
                    }
                  ],
                  "name": "fees",
                  "type": "tuple"
                }
              ],
              "name": "sender",
              "type": "tuple"
            },
            {
              "components": [
                {
                  "name": "nonce",
                  "type": "uint256"
                },
                {
                  "name": "wallet",
                  "type": "address"
                },
                {
                  "components": [
                    {
                      "name": "current",
                      "type": "int256"
                    },
                    {
                      "name": "previous",
                      "type": "int256"
                    }
                  ],
                  "name": "balances",
                  "type": "tuple"
                },
                {
                  "components": [
                    {
                      "components": [
                        {
                          "name": "originId",
                          "type": "uint256"
                        },
                        {
                          "components": [
                            {
                              "name": "amount",
                              "type": "int256"
                            },
                            {
                              "components": [
                                {
                                  "name": "ct",
                                  "type": "address"
                                },
                                {
                                  "name": "id",
                                  "type": "uint256"
                                }
                              ],
                              "name": "currency",
                              "type": "tuple"
                            }
                          ],
                          "name": "figure",
                          "type": "tuple"
                        }
                      ],
                      "name": "total",
                      "type": "tuple[]"
                    }
                  ],
                  "name": "fees",
                  "type": "tuple"
                }
              ],
              "name": "recipient",
              "type": "tuple"
            },
            {
              "components": [
                {
                  "name": "single",
                  "type": "int256"
                },
                {
                  "name": "total",
                  "type": "int256"
                }
              ],
              "name": "transfers",
              "type": "tuple"
            },
            {
              "components": [
                {
                  "components": [
                    {
                      "name": "hash",
                      "type": "bytes32"
                    },
                    {
                      "components": [
                        {
                          "name": "r",
                          "type": "bytes32"
                        },
                        {
                          "name": "s",
                          "type": "bytes32"
                        },
                        {
                          "name": "v",
                          "type": "uint8"
                        }
                      ],
                      "name": "signature",
                      "type": "tuple"
                    }
                  ],
                  "name": "wallet",
                  "type": "tuple"
                },
                {
                  "components": [
                    {
                      "name": "hash",
                      "type": "bytes32"
                    },
                    {
                      "components": [
                        {
                          "name": "r",
                          "type": "bytes32"
                        },
                        {
                          "name": "s",
                          "type": "bytes32"
                        },
                        {
                          "name": "v",
                          "type": "uint8"
                        }
                      ],
                      "name": "signature",
                      "type": "tuple"
                    }
                  ],
                  "name": "operator",
                  "type": "tuple"
                }
              ],
              "name": "seals",
              "type": "tuple"
            },
            {
              "name": "blockNumber",
              "type": "uint256"
            },
            {
              "name": "operatorId",
              "type": "uint256"
            }
          ],
          "name": "payment",
          "type": "tuple"
        }
      ],
      "name": "challenge",
      "outputs": [],
      "payable": false,
      "stateMutability": "nonpayable",
      "type": "function"
    }
  ],
  "bytecode": "0x60806040523480156200001157600080fd5b5060405160208062001d048339810180604052620000339190810190620000b6565b8080600160a060020a03811615156200004b57600080fd5b600160a060020a0381163014156200006257600080fd5b506000805461010060a860020a031916610100600160a060020a039390931692830217905560018054600160a060020a031916909117905550620000eb565b6000620000af8251620000df565b9392505050565b600060208284031215620000c957600080fd5b6000620000d78484620000a1565b949350505050565b600160a060020a031690565b611c0980620000fb6000396000f3006080604052600436106100d75763ffffffff60e060020a60003504166301370d0681146100dc5780631327d3d8146100fe5780632738a1121461011e5780632f013a00146101335780633a5381b51461015e5780633bd7857f146101805780634476d23b14610195578063570ca735146101b7578063627f09c3146101cc5780636792ce6e146101ec5780636a06219a1461020c5780636b0570d01461022c5780636c70bee91461024157806370327ea114610256578063962147351461026b578063b3ab15fb1461028b578063d5f39488146102ab575b600080fd5b3480156100e857600080fd5b506100fc6100f7366004611468565b6102c0565b005b34801561010a57600080fd5b506100fc610119366004611468565b610368565b34801561012a57600080fd5b506100fc610400565b34801561013f57600080fd5b50610148610466565b6040516101559190611a96565b60405180910390f35b34801561016a57600080fd5b5061017361046f565b6040516101559190611ada565b34801561018c57600080fd5b5061017361047e565b3480156101a157600080fd5b506101aa61048d565b6040516101559190611a3f565b3480156101c357600080fd5b506101aa6104a1565b3480156101d857600080fd5b506100fc6101e7366004611468565b6104b0565b3480156101f857600080fd5b506100fc610207366004611468565b610548565b34801561021857600080fd5b506100fc610227366004611486565b6105e0565b34801561023857600080fd5b50610173610a1d565b34801561024d57600080fd5b50610173610a2c565b34801561026257600080fd5b506100fc610a3b565b34801561027757600080fd5b506100fc610286366004611424565b610a9e565b34801561029757600080fd5b506100fc6102a6366004611424565b610b65565b3480156102b757600080fd5b506101aa610c0f565b60006102ca610c23565b15156102d557600080fd5b81600160a060020a03811615156102eb57600080fd5b6002548390600160a060020a0390811690821681146103615760028054600160a060020a03878116600160a060020a0319831617909255604051911694507f07998fa7be97abe2427246ae4688298c89d6196bbffdf0997b9495a8d27bc673906103589086908890611ae8565b60405180910390a15b5050505050565b6000610372610c23565b151561037d57600080fd5b81600160a060020a038116151561039357600080fd5b6004548390600160a060020a0390811690821681146103615760048054600160a060020a03878116600160a060020a0319831617909255604051911694507f1882af944a16549c3d4f60e3cd26f158b0c7aac3222cf32971fc21375ce05f60906103589086908890611ae8565b3361040961048d565b600160a060020a03161461041c57600080fd5b60005460ff161561042c57600080fd5b7f787a5d936e74f4b564b9153575886059829c78cd9927b1be5e0d976b317ef7363360405161045b9190611a3f565b60405180910390a133ff5b60005460ff1681565b600454600160a060020a031681565b600254600160a060020a031681565b6000546101009004600160a060020a031690565b600154600160a060020a031681565b60006104ba610c23565b15156104c557600080fd5b81600160a060020a03811615156104db57600080fd5b6003548390600160a060020a0390811690821681146103615760038054600160a060020a03878116600160a060020a0319831617909255604051911694507f634f61bf00e14adedce330c80c2823e16e184f189ebe853e1ddecc4a268477ff906103589086908890611ae8565b6000610552610c23565b151561055d57600080fd5b81600160a060020a038116151561057357600080fd5b6005548390600160a060020a0390811690821681146103615760058054600160a060020a03878116600160a060020a0319831617909255604051911694507fc9f3f00c1760fe26985aeacb814a21c56ea289d680562e89b249681b08c30382906103589086908890611ae8565b600360009054906101000a9004600160a060020a0316600160a060020a031663f71e860f6040518163ffffffff1660e060020a028152600401602060405180830381600087803b15801561063357600080fd5b505af1158015610647573d6000803e3d6000fd5b505050506040513d601f19601f8201168201806040525061066b919081019061144a565b151561067657600080fd5b6004805460405160e160020a637211c8c70281528492600160a060020a039092169163e423918e916106aa91859101611b14565b602060405180830381600087803b1580156106c457600080fd5b505af11580156106d8573d6000803e3d6000fd5b505050506040513d601f19601f820116820180604052506106fc919081019061144a565b151561070757600080fd5b6004805460405160e060020a63a865476b0281528492600160a060020a039092169163a865476b9161073b91859101611b03565b602060405180830381600087803b15801561075557600080fd5b505af1158015610769573d6000803e3d6000fd5b505050506040513d601f19601f8201168201806040525061078d919081019061144a565b151561079857600080fd5b82518451146107a657600080fd5b600360009054906101000a9004600160a060020a0316600160a060020a031663f8e6e8886040518163ffffffff1660e060020a028152600401600060405180830381600087803b1580156107f957600080fd5b505af115801561080d573d6000803e3d6000fd5b505060025460e08701515160405160e060020a6375d8655b028152600160a060020a0390921693506375d8655b925061084891600401611aa4565b600060405180830381600087803b15801561086257600080fd5b505af1158015610876573d6000803e3d6000fd5b505060025460c0860151602001515160405160e060020a6388cb0a49028152600160a060020a0390921693506388cb0a4992506108b591600401611aa4565b600060405180830381600087803b1580156108cf57600080fd5b505af11580156108e3573d6000803e3d6000fd5b50506005546003546040805160e060020a639699f3370281529051600160a060020a03938416955063760b82929450339390921691639699f337916004808201926020929091908290030181600087803b15801561094057600080fd5b505af1158015610954573d6000803e3d6000fd5b505050506040513d601f19601f8201168201806040525061097891908101906114ed565b60006040518463ffffffff1660e060020a02815260040161099b93929190611a6e565b600060405180830381600087803b1580156109b557600080fd5b505af11580156109c9573d6000803e3d6000fd5b50505060e08501515160c085015160200151516040517fc2f1c7c11d23566143ab8ec3d13174e6794edbd843f956688e18fb079eb50bed9350610a0f9291903390611ab2565b60405180910390a150505050565b600554600160a060020a031681565b600354600160a060020a031681565b33610a4461048d565b600160a060020a031614610a5757600080fd5b6000805460ff191660011790556040517fd5a2a04a775c741c2ca0dc46ea7ce4835190e1aaf1ca018def0e82568ec3361690610a94903390611a3f565b60405180910390a1565b6000610aa8610c23565b1515610ab357600080fd5b81600160a060020a0381161515610ac957600080fd5b600160a060020a038116301415610adf57600080fd5b600054600160a060020a038481166101009092041614610b605760008054600160a060020a0385811661010090810261010060a860020a0319841617909355604051929091041692507f977e5fa58e458501775e0008d275006294c5249e3c08d1d0e3a9f3acad14f6e490610b579084908690611a53565b60405180910390a15b505050565b6000610b6f610c39565b1515610b7a57600080fd5b81600160a060020a0381161515610b9057600080fd5b600160a060020a038116301415610ba657600080fd5b600154600160a060020a03848116911614610b605760018054600160a060020a03858116600160a060020a0319831617909255604051911692507f9f611b789425d0d5b90b920f1b2852907dd865c80074a30b1629aaa041d1812c90610b579084908690611a53565b6000546101009004600160a060020a031681565b6000546101009004600160a060020a0316331490565b600154600160a060020a0316331490565b6000610c568235611b75565b9392505050565b6000601f82018313610c6e57600080fd5b8135610c81610c7c82611b4b565b611b25565b91508181835260208401935060208101905083856080840282011115610ca657600080fd5b60005b83811015610cd45781610cbc8882610e30565b84525060209092019160809190910190600101610ca9565b5050505092915050565b6000610c568251611b81565b6000610c568235611b86565b6000610c568235611b9f565b6000610c568235611baa565b600060408284031215610d2057600080fd5b610d2a6040611b25565b90506000610d388484610c4a565b8252506020610d4984848301610cea565b60208301525092915050565b600060408284031215610d6757600080fd5b610d716040611b25565b90506000610d388484610cea565b600060608284031215610d9157600080fd5b610d9b6040611b25565b90506000610da98484610cea565b8252506020610d4984848301610d0e565b600060808284031215610dcc57600080fd5b610dd66040611b25565b90506000610de48484610d0e565b8252506040610d4984848301610d0e565b600060808284031215610e0757600080fd5b610e116040611b25565b90506000610e1f8484610d55565b8252506040610d4984848301610d55565b600060808284031215610e4257600080fd5b610e4c6040611b25565b90506000610e5a8484610cea565b8252506020610d4984848301610d7f565b600060a08284031215610e7d57600080fd5b610e876080611b25565b90506000610e958484610cea565b8252506020610ea684848301610c4a565b6020830152506040610eba84828501610d55565b60408301525060808201356001604060020a03811115610ed957600080fd5b610ee584828501611155565b60608301525092915050565b600060a08284031215610f0357600080fd5b610f0d6080611b25565b90506000610f1b8484610cea565b8252506020610f2c84848301610c4a565b6020830152506040610f4084828501610d55565b60408301525060808201356001604060020a03811115610f5f57600080fd5b610ee584828501611103565b60006102408284031215610f7e57600080fd5b610f89610120611b25565b90506000610f978484610cea565b8252506020610fa884848301610cea565b6020830152506040610fbc84828501610d0e565b60408301525060808201356001604060020a03811115610fdb57600080fd5b610fe784828501610ef1565b60608301525060a08201356001604060020a0381111561100657600080fd5b61101284828501610e6b565b60808301525060c061102684828501610d55565b60a08301525061010061103b848285016113d0565b60c08301525061020061105084828501610cea565b60e08301525061022061106584828501610cea565b6101008301525092915050565b60006080828403121561108457600080fd5b61108e6040611b25565b9050600061109c8484610cea565b8252506020610d49848483016000606082840312156110ba57600080fd5b6110c46060611b25565b905060006110d28484610cea565b82525060206110e384848301610cea565b60208301525060406110f784828501611418565b60408301525092915050565b60006080828403121561111557600080fd5b61111f6040611b25565b9050600061112d8484610d7f565b82525060608201356001604060020a0381111561114957600080fd5b610d4984828501610c5d565b60006020828403121561116757600080fd5b6111716020611b25565b905081356001604060020a0381111561118957600080fd5b61119584828501610c5d565b82525092915050565b600060a082840312156111b057600080fd5b6111ba6060611b25565b905060006111c88484610cea565b82525060206111d984848301610d55565b60208301525060606110f784828501610d55565b60006101c0828403121561120057600080fd5b61120a60e0611b25565b905060006112188484610cea565b825250602061122984848301610c4a565b602083015250604061123d84828501610cea565b604083015250606061125184828501610d02565b60608301525060806112658482850161119e565b60808301525061012061127a84828501610df5565b60a0830152506101a08201356001604060020a0381111561129a57600080fd5b6112a684828501611103565b60c08301525092915050565b600061026082840312156112c557600080fd5b6112d0610140611b25565b905060006112de8484610cea565b82525060206112ef84848301610cea565b602083015250604061130384828501610dba565b60408301525060c061131784828501610cea565b60608301525060e08201356001604060020a0381111561133657600080fd5b611342848285016111ed565b6080830152506101008201356001604060020a0381111561136257600080fd5b61136e848285016111ed565b60a08301525061012061138384828501610df5565b60c0830152506101a061139884828501611072565b60e0830152506102206113ad84828501610cea565b610100830152506102406113c384828501610cea565b6101208301525092915050565b600061010082840312156113e357600080fd5b6113ed6040611b25565b905060006113fb8484611072565b8252506080610d4984848301611072565b6000610c568251611b86565b6000610c568235611b99565b60006020828403121561143657600080fd5b60006114428484610c4a565b949350505050565b60006020828403121561145c57600080fd5b60006114428484610cde565b60006020828403121561147a57600080fd5b60006114428484610cf6565b6000806040838503121561149957600080fd5b82356001604060020a038111156114af57600080fd5b6114bb858286016112b2565b92505060208301356001604060020a038111156114d757600080fd5b6114e385828601610f6b565b9150509250929050565b6000602082840312156114ff57600080fd5b6000611442848461140c565b61151481611b75565b82525050565b600061152582611b71565b80845260208401935061153783611b6b565b60005b828110156115675761154d868351611645565b61155682611b6b565b60809690960195915060010161153a565b5093949350505050565b61151481611b81565b61151481611b86565b61151481611b9f565b61151481611bb9565b61151481611bc4565b805160408301906115af848261150b565b5060208201516115c2602085018261157a565b50505050565b805160408301906115af848261157a565b805160608301906115ea848261157a565b5060208201516115c2602085018261159e565b8051608083019061160e848261159e565b5060208201516115c2604085018261159e565b8051608083019061163284826115c8565b5060208201516115c260408501826115c8565b80516080830190611656848261157a565b5060208201516115c260208501826115d9565b805160009060a084019061167d858261157a565b506020830151611690602086018261150b565b5060408301516116a360408601826115c8565b50606083015184820360808601526116bb828261185f565b95945050505050565b805160009060a08401906116d8858261157a565b5060208301516116eb602086018261150b565b5060408301516116fe60408601826115c8565b50606083015184820360808601526116bb8282611833565b805160009061024084019061172b858261157a565b50602083015161173e602086018261157a565b506040830151611751604086018261159e565b506060830151848203608086015261176982826116c4565b915050608083015184820360a08601526117838282611669565b91505060a083015161179860c08601826115c8565b5060c08301516117ac610100860182611a11565b5060e08301516117c061020086018261157a565b506101008301516117d561022086018261157a565b509392505050565b805160808301906117ee848261157a565b5060208201516115c260208501828051606083019061180d848261157a565b506020820151611820602085018261157a565b5060408201516115c26040850182611a36565b8051600090608084019061184785826115d9565b50602083015184820360608601526116bb828261151a565b80516020808452600091908401906116bb828261151a565b805160a0830190611888848261157a565b50602082015161189b60208501826115c8565b5060408201516115c260608501826115c8565b80516000906101c08401906118c3858261157a565b5060208301516118d6602086018261150b565b5060408301516118e9604086018261157a565b5060608301516118fc606086018261158c565b50608083015161190f6080860182611877565b5060a0830151611923610120860182611621565b5060c08301518482036101a08601526116bb8282611833565b8051600090610260840190611951858261157a565b506020830151611964602086018261157a565b50604083015161197760408601826115fd565b50606083015161198a60c086018261157a565b50608083015184820360e08601526119a282826118ae565b91505060a08301518482036101008601526119bd82826118ae565b91505060c08301516119d3610120860182611621565b5060e08301516119e76101a08601826117dd565b506101008301516119fc61022086018261157a565b506101208301516117d561024086018261157a565b8051610100830190611a2384826117dd565b5060208201516115c260808501826117dd565b61151481611b99565b60208101611a4d828461150b565b92915050565b60408101611a61828561150b565b610c56602083018461150b565b60608101611a7c828661150b565b611a89602083018561157a565b6114426040830184611595565b60208101611a4d8284611571565b60208101611a4d828461157a565b60608101611ac0828661157a565b611acd602083018561157a565b611442604083018461150b565b60208101611a4d8284611583565b60408101611af68285611583565b610c566020830184611583565b60208082528101610c568184611716565b60208082528101610c56818461193c565b6040518181016001604060020a0381118282101715611b4357600080fd5b604052919050565b60006001604060020a03821115611b6157600080fd5b5060209081020190565b60200190565b5190565b600160a060020a031690565b151590565b90565b600060028210611b9557fe5b5090565b60ff1690565b6000611a4d82611b75565b600060028210611b9557600080fd5b6000611a4d82611b89565b6000611a4d82611b865600a265627a7a72305820eca8c284767240220ea04273701edccfd934a91c1d8bbebc0ceeea061fdef1d46c6578706572696d656e74616cf50037",
  "source": "/*\n * Hubii Nahmii\n *\n * Compliant with the Hubii Nahmii specification v0.12.\n *\n * Copyright (C) 2017-2018 Hubii AS\n */\n\npragma solidity ^0.4.25;\npragma experimental ABIEncoderV2;\n\nimport {Ownable} from \"./Ownable.sol\";\nimport {FraudChallengable} from \"./FraudChallengable.sol\";\nimport {Challenge} from \"./Challenge.sol\";\nimport {Validatable} from \"./Validatable.sol\";\nimport {SecurityBondable} from \"./SecurityBondable.sol\";\nimport {NahmiiTypesLib} from \"./NahmiiTypesLib.sol\";\n\n/**\n * @title FraudChallengeByDuplicateDriipNonceOfTradeAndPayment\n * @notice Where driips are challenged wrt fraud by duplicate drip nonce of trade and payment\n */\ncontract FraudChallengeByDuplicateDriipNonceOfTradeAndPayment is Ownable, FraudChallengable, Challenge, Validatable,\nSecurityBondable {\n    //\n    // Events\n    // -----------------------------------------------------------------------------------------------------------------\n    event ChallengeByDuplicateDriipNonceOfTradeAndPaymentEvent(bytes32 tradeHash,\n        bytes32 paymentHash, address challenger);\n\n    //\n    // Constructor\n    // -----------------------------------------------------------------------------------------------------------------\n    constructor(address deployer) Ownable(deployer) public {\n    }\n\n    //\n    // Functions\n    // -----------------------------------------------------------------------------------------------------------------\n    /// @notice Submit one trade candidate and one payment candidate in continuous Fraud\n    /// Challenge (FC) to be tested for duplicate driip nonce\n    /// @param trade Trade with duplicate driip nonce\n    /// @param payment Payment with duplicate driip nonce\n    function challenge(\n        NahmiiTypesLib.Trade trade,\n        NahmiiTypesLib.Payment payment\n    )\n    public\n    onlyOperationalModeNormal\n    onlySealedTrade(trade)\n    onlySealedPayment(payment)\n    {\n        // Require existence of fraud signal\n        require(trade.nonce == payment.nonce);\n\n        // Toggle operational mode exit\n        configuration.setOperationalModeExit();\n\n        // Tag trades (hashes) as fraudulent\n        fraudChallenge.addFraudulentTradeHash(trade.seal.hash);\n        fraudChallenge.addFraudulentPaymentHash(payment.seals.operator.hash);\n\n        // Reward stake fraction\n        securityBond.rewardFractional(msg.sender, configuration.fraudStakeFraction(), 0);\n\n        // Emit event\n        emit ChallengeByDuplicateDriipNonceOfTradeAndPaymentEvent(\n            trade.seal.hash, payment.seals.operator.hash, msg.sender\n        );\n    }\n}",
  "sourcePath": "/opt/buildagent/work/855e104608380c36/contracts/FraudChallengeByDuplicateDriipNonceOfTradeAndPayment.sol",
  "compiler": {
    "name": "solc",
    "version": "0.4.25+commit.59dbf8f1.Emscripten.clang"
  },
  "schemaVersion": "2.0.1",
  "updatedAt": "2019-01-31T11:28:29.574Z"
}