{
  "contractName": "FraudChallengeByTrade",
  "abi": [
    {
      "inputs": [
        {
          "internalType": "address",
          "name": "deployer",
          "type": "address"
        }
      ],
      "payable": false,
      "stateMutability": "nonpayable",
      "type": "constructor"
    },
    {
      "anonymous": false,
      "inputs": [
        {
          "indexed": false,
          "internalType": "bytes32",
          "name": "tradeHash",
          "type": "bytes32"
        },
        {
          "indexed": false,
          "internalType": "address",
          "name": "challenger",
          "type": "address"
        },
        {
          "indexed": false,
          "internalType": "address",
          "name": "lockedBuyer",
          "type": "address"
        },
        {
          "indexed": false,
          "internalType": "address",
          "name": "lockedSeller",
          "type": "address"
        }
      ],
      "name": "ChallengeByTradeEvent",
      "type": "event"
    },
    {
      "anonymous": false,
      "inputs": [],
      "name": "FreezeWalletLockerEvent",
      "type": "event"
    },
    {
      "anonymous": false,
      "inputs": [
        {
          "indexed": false,
          "internalType": "address",
          "name": "wallet",
          "type": "address"
        }
      ],
      "name": "SelfDestructionDisabledEvent",
      "type": "event"
    },
    {
      "anonymous": false,
      "inputs": [
        {
          "indexed": false,
          "internalType": "contract Configuration",
          "name": "oldConfiguration",
          "type": "address"
        },
        {
          "indexed": false,
          "internalType": "contract Configuration",
          "name": "newConfiguration",
          "type": "address"
        }
      ],
      "name": "SetConfigurationEvent",
      "type": "event"
    },
    {
      "anonymous": false,
      "inputs": [
        {
          "indexed": false,
          "internalType": "address",
          "name": "oldDeployer",
          "type": "address"
        },
        {
          "indexed": false,
          "internalType": "address",
          "name": "newDeployer",
          "type": "address"
        }
      ],
      "name": "SetDeployerEvent",
      "type": "event"
    },
    {
      "anonymous": false,
      "inputs": [
        {
          "indexed": false,
          "internalType": "contract FraudChallenge",
          "name": "oldFraudChallenge",
          "type": "address"
        },
        {
          "indexed": false,
          "internalType": "contract FraudChallenge",
          "name": "newFraudChallenge",
          "type": "address"
        }
      ],
      "name": "SetFraudChallengeEvent",
      "type": "event"
    },
    {
      "anonymous": false,
      "inputs": [
        {
          "indexed": false,
          "internalType": "address",
          "name": "oldOperator",
          "type": "address"
        },
        {
          "indexed": false,
          "internalType": "address",
          "name": "newOperator",
          "type": "address"
        }
      ],
      "name": "SetOperatorEvent",
      "type": "event"
    },
    {
      "anonymous": false,
      "inputs": [
        {
          "indexed": false,
          "internalType": "contract SecurityBond",
          "name": "oldSecurityBond",
          "type": "address"
        },
        {
          "indexed": false,
          "internalType": "contract SecurityBond",
          "name": "newSecurityBond",
          "type": "address"
        }
      ],
      "name": "SetSecurityBondEvent",
      "type": "event"
    },
    {
      "anonymous": false,
      "inputs": [
        {
          "indexed": false,
          "internalType": "contract ValidatorV2",
          "name": "oldValidator",
          "type": "address"
        },
        {
          "indexed": false,
          "internalType": "contract ValidatorV2",
          "name": "newValidator",
          "type": "address"
        }
      ],
      "name": "SetValidatorEvent",
      "type": "event"
    },
    {
      "anonymous": false,
      "inputs": [
        {
          "indexed": false,
          "internalType": "contract WalletLocker",
          "name": "oldWalletLocker",
          "type": "address"
        },
        {
          "indexed": false,
          "internalType": "contract WalletLocker",
          "name": "newWalletLocker",
          "type": "address"
        }
      ],
      "name": "SetWalletLockerEvent",
      "type": "event"
    },
    {
      "anonymous": false,
      "inputs": [
        {
          "indexed": false,
          "internalType": "address",
          "name": "wallet",
          "type": "address"
        }
      ],
      "name": "TriggerSelfDestructionEvent",
      "type": "event"
    },
    {
      "constant": true,
      "inputs": [],
      "name": "configuration",
      "outputs": [
        {
          "internalType": "contract Configuration",
          "name": "",
          "type": "address"
        }
      ],
      "payable": false,
      "stateMutability": "view",
      "type": "function"
    },
    {
      "constant": true,
      "inputs": [],
      "name": "deployer",
      "outputs": [
        {
          "internalType": "address",
          "name": "",
          "type": "address"
        }
      ],
      "payable": false,
      "stateMutability": "view",
      "type": "function"
    },
    {
      "constant": true,
      "inputs": [],
      "name": "destructor",
      "outputs": [
        {
          "internalType": "address",
          "name": "",
          "type": "address"
        }
      ],
      "payable": false,
      "stateMutability": "view",
      "type": "function"
    },
    {
      "constant": false,
      "inputs": [],
      "name": "disableSelfDestruction",
      "outputs": [],
      "payable": false,
      "stateMutability": "nonpayable",
      "type": "function"
    },
    {
      "constant": true,
      "inputs": [],
      "name": "fraudChallenge",
      "outputs": [
        {
          "internalType": "contract FraudChallenge",
          "name": "",
          "type": "address"
        }
      ],
      "payable": false,
      "stateMutability": "view",
      "type": "function"
    },
    {
      "constant": false,
      "inputs": [],
      "name": "freezeWalletLocker",
      "outputs": [],
      "payable": false,
      "stateMutability": "nonpayable",
      "type": "function"
    },
    {
      "constant": true,
      "inputs": [],
      "name": "operator",
      "outputs": [
        {
          "internalType": "address",
          "name": "",
          "type": "address"
        }
      ],
      "payable": false,
      "stateMutability": "view",
      "type": "function"
    },
    {
      "constant": true,
      "inputs": [],
      "name": "securityBond",
      "outputs": [
        {
          "internalType": "contract SecurityBond",
          "name": "",
          "type": "address"
        }
      ],
      "payable": false,
      "stateMutability": "view",
      "type": "function"
    },
    {
      "constant": true,
      "inputs": [],
      "name": "selfDestructionDisabled",
      "outputs": [
        {
          "internalType": "bool",
          "name": "",
          "type": "bool"
        }
      ],
      "payable": false,
      "stateMutability": "view",
      "type": "function"
    },
    {
      "constant": false,
      "inputs": [
        {
          "internalType": "contract Configuration",
          "name": "newConfiguration",
          "type": "address"
        }
      ],
      "name": "setConfiguration",
      "outputs": [],
      "payable": false,
      "stateMutability": "nonpayable",
      "type": "function"
    },
    {
      "constant": false,
      "inputs": [
        {
          "internalType": "address",
          "name": "newDeployer",
          "type": "address"
        }
      ],
      "name": "setDeployer",
      "outputs": [],
      "payable": false,
      "stateMutability": "nonpayable",
      "type": "function"
    },
    {
      "constant": false,
      "inputs": [
        {
          "internalType": "contract FraudChallenge",
          "name": "newFraudChallenge",
          "type": "address"
        }
      ],
      "name": "setFraudChallenge",
      "outputs": [],
      "payable": false,
      "stateMutability": "nonpayable",
      "type": "function"
    },
    {
      "constant": false,
      "inputs": [
        {
          "internalType": "address",
          "name": "newOperator",
          "type": "address"
        }
      ],
      "name": "setOperator",
      "outputs": [],
      "payable": false,
      "stateMutability": "nonpayable",
      "type": "function"
    },
    {
      "constant": false,
      "inputs": [
        {
          "internalType": "contract SecurityBond",
          "name": "newSecurityBond",
          "type": "address"
        }
      ],
      "name": "setSecurityBond",
      "outputs": [],
      "payable": false,
      "stateMutability": "nonpayable",
      "type": "function"
    },
    {
      "constant": false,
      "inputs": [
        {
          "internalType": "contract ValidatorV2",
          "name": "newValidator",
          "type": "address"
        }
      ],
      "name": "setValidator",
      "outputs": [],
      "payable": false,
      "stateMutability": "nonpayable",
      "type": "function"
    },
    {
      "constant": false,
      "inputs": [
        {
          "internalType": "contract WalletLocker",
          "name": "newWalletLocker",
          "type": "address"
        }
      ],
      "name": "setWalletLocker",
      "outputs": [],
      "payable": false,
      "stateMutability": "nonpayable",
      "type": "function"
    },
    {
      "constant": false,
      "inputs": [],
      "name": "triggerSelfDestruction",
      "outputs": [],
      "payable": false,
      "stateMutability": "nonpayable",
      "type": "function"
    },
    {
      "constant": true,
      "inputs": [],
      "name": "validator",
      "outputs": [
        {
          "internalType": "contract ValidatorV2",
          "name": "",
          "type": "address"
        }
      ],
      "payable": false,
      "stateMutability": "view",
      "type": "function"
    },
    {
      "constant": true,
      "inputs": [],
      "name": "walletLocker",
      "outputs": [
        {
          "internalType": "contract WalletLocker",
          "name": "",
          "type": "address"
        }
      ],
      "payable": false,
      "stateMutability": "view",
      "type": "function"
    },
    {
      "constant": true,
      "inputs": [],
      "name": "walletLockerFrozen",
      "outputs": [
        {
          "internalType": "bool",
          "name": "",
          "type": "bool"
        }
      ],
      "payable": false,
      "stateMutability": "view",
      "type": "function"
    },
    {
      "constant": false,
      "inputs": [
        {
          "components": [
            {
              "internalType": "uint256",
              "name": "nonce",
              "type": "uint256"
            },
            {
              "internalType": "int256",
              "name": "amount",
              "type": "int256"
            },
            {
              "components": [
                {
                  "components": [
                    {
                      "internalType": "address",
                      "name": "ct",
                      "type": "address"
                    },
                    {
                      "internalType": "uint256",
                      "name": "id",
                      "type": "uint256"
                    }
                  ],
                  "internalType": "struct MonetaryTypesLib.Currency",
                  "name": "intended",
                  "type": "tuple"
                },
                {
                  "components": [
                    {
                      "internalType": "address",
                      "name": "ct",
                      "type": "address"
                    },
                    {
                      "internalType": "uint256",
                      "name": "id",
                      "type": "uint256"
                    }
                  ],
                  "internalType": "struct MonetaryTypesLib.Currency",
                  "name": "conjugate",
                  "type": "tuple"
                }
              ],
              "internalType": "struct NahmiiTypesLib.IntendedConjugateCurrency",
              "name": "currencies",
              "type": "tuple"
            },
            {
              "internalType": "int256",
              "name": "rate",
              "type": "int256"
            },
            {
              "components": [
                {
                  "internalType": "uint256",
                  "name": "nonce",
                  "type": "uint256"
                },
                {
                  "internalType": "address",
                  "name": "wallet",
                  "type": "address"
                },
                {
                  "internalType": "uint256",
                  "name": "rollingVolume",
                  "type": "uint256"
                },
                {
                  "internalType": "enum TradeTypesLib.LiquidityRole",
                  "name": "liquidityRole",
                  "type": "uint8"
                },
                {
                  "components": [
                    {
                      "internalType": "int256",
                      "name": "amount",
                      "type": "int256"
                    },
                    {
                      "components": [
                        {
                          "internalType": "bytes32",
                          "name": "wallet",
                          "type": "bytes32"
                        },
                        {
                          "internalType": "bytes32",
                          "name": "operator",
                          "type": "bytes32"
                        }
                      ],
                      "internalType": "struct NahmiiTypesLib.WalletOperatorHashes",
                      "name": "hashes",
                      "type": "tuple"
                    },
                    {
                      "components": [
                        {
                          "internalType": "int256",
                          "name": "current",
                          "type": "int256"
                        },
                        {
                          "internalType": "int256",
                          "name": "previous",
                          "type": "int256"
                        }
                      ],
                      "internalType": "struct NahmiiTypesLib.CurrentPreviousInt256",
                      "name": "residuals",
                      "type": "tuple"
                    }
                  ],
                  "internalType": "struct TradeTypesLib.TradeOrder",
                  "name": "order",
                  "type": "tuple"
                },
                {
                  "components": [
                    {
                      "components": [
                        {
                          "internalType": "int256",
                          "name": "current",
                          "type": "int256"
                        },
                        {
                          "internalType": "int256",
                          "name": "previous",
                          "type": "int256"
                        }
                      ],
                      "internalType": "struct NahmiiTypesLib.CurrentPreviousInt256",
                      "name": "intended",
                      "type": "tuple"
                    },
                    {
                      "components": [
                        {
                          "internalType": "int256",
                          "name": "current",
                          "type": "int256"
                        },
                        {
                          "internalType": "int256",
                          "name": "previous",
                          "type": "int256"
                        }
                      ],
                      "internalType": "struct NahmiiTypesLib.CurrentPreviousInt256",
                      "name": "conjugate",
                      "type": "tuple"
                    }
                  ],
                  "internalType": "struct NahmiiTypesLib.IntendedConjugateCurrentPreviousInt256",
                  "name": "balances",
                  "type": "tuple"
                },
                {
                  "components": [
                    {
                      "components": [
                        {
                          "internalType": "int256",
                          "name": "amount",
                          "type": "int256"
                        },
                        {
                          "components": [
                            {
                              "internalType": "address",
                              "name": "ct",
                              "type": "address"
                            },
                            {
                              "internalType": "uint256",
                              "name": "id",
                              "type": "uint256"
                            }
                          ],
                          "internalType": "struct MonetaryTypesLib.Currency",
                          "name": "currency",
                          "type": "tuple"
                        }
                      ],
                      "internalType": "struct MonetaryTypesLib.Figure",
                      "name": "single",
                      "type": "tuple"
                    },
                    {
                      "components": [
                        {
                          "internalType": "uint256",
                          "name": "originId",
                          "type": "uint256"
                        },
                        {
                          "components": [
                            {
                              "internalType": "int256",
                              "name": "amount",
                              "type": "int256"
                            },
                            {
                              "components": [
                                {
                                  "internalType": "address",
                                  "name": "ct",
                                  "type": "address"
                                },
                                {
                                  "internalType": "uint256",
                                  "name": "id",
                                  "type": "uint256"
                                }
                              ],
                              "internalType": "struct MonetaryTypesLib.Currency",
                              "name": "currency",
                              "type": "tuple"
                            }
                          ],
                          "internalType": "struct MonetaryTypesLib.Figure",
                          "name": "figure",
                          "type": "tuple"
                        }
                      ],
                      "internalType": "struct NahmiiTypesLib.OriginFigure[]",
                      "name": "total",
                      "type": "tuple[]"
                    }
                  ],
                  "internalType": "struct NahmiiTypesLib.SingleFigureTotalOriginFigures",
                  "name": "fees",
                  "type": "tuple"
                }
              ],
              "internalType": "struct TradeTypesLib.TradeParty",
              "name": "buyer",
              "type": "tuple"
            },
            {
              "components": [
                {
                  "internalType": "uint256",
                  "name": "nonce",
                  "type": "uint256"
                },
                {
                  "internalType": "address",
                  "name": "wallet",
                  "type": "address"
                },
                {
                  "internalType": "uint256",
                  "name": "rollingVolume",
                  "type": "uint256"
                },
                {
                  "internalType": "enum TradeTypesLib.LiquidityRole",
                  "name": "liquidityRole",
                  "type": "uint8"
                },
                {
                  "components": [
                    {
                      "internalType": "int256",
                      "name": "amount",
                      "type": "int256"
                    },
                    {
                      "components": [
                        {
                          "internalType": "bytes32",
                          "name": "wallet",
                          "type": "bytes32"
                        },
                        {
                          "internalType": "bytes32",
                          "name": "operator",
                          "type": "bytes32"
                        }
                      ],
                      "internalType": "struct NahmiiTypesLib.WalletOperatorHashes",
                      "name": "hashes",
                      "type": "tuple"
                    },
                    {
                      "components": [
                        {
                          "internalType": "int256",
                          "name": "current",
                          "type": "int256"
                        },
                        {
                          "internalType": "int256",
                          "name": "previous",
                          "type": "int256"
                        }
                      ],
                      "internalType": "struct NahmiiTypesLib.CurrentPreviousInt256",
                      "name": "residuals",
                      "type": "tuple"
                    }
                  ],
                  "internalType": "struct TradeTypesLib.TradeOrder",
                  "name": "order",
                  "type": "tuple"
                },
                {
                  "components": [
                    {
                      "components": [
                        {
                          "internalType": "int256",
                          "name": "current",
                          "type": "int256"
                        },
                        {
                          "internalType": "int256",
                          "name": "previous",
                          "type": "int256"
                        }
                      ],
                      "internalType": "struct NahmiiTypesLib.CurrentPreviousInt256",
                      "name": "intended",
                      "type": "tuple"
                    },
                    {
                      "components": [
                        {
                          "internalType": "int256",
                          "name": "current",
                          "type": "int256"
                        },
                        {
                          "internalType": "int256",
                          "name": "previous",
                          "type": "int256"
                        }
                      ],
                      "internalType": "struct NahmiiTypesLib.CurrentPreviousInt256",
                      "name": "conjugate",
                      "type": "tuple"
                    }
                  ],
                  "internalType": "struct NahmiiTypesLib.IntendedConjugateCurrentPreviousInt256",
                  "name": "balances",
                  "type": "tuple"
                },
                {
                  "components": [
                    {
                      "components": [
                        {
                          "internalType": "int256",
                          "name": "amount",
                          "type": "int256"
                        },
                        {
                          "components": [
                            {
                              "internalType": "address",
                              "name": "ct",
                              "type": "address"
                            },
                            {
                              "internalType": "uint256",
                              "name": "id",
                              "type": "uint256"
                            }
                          ],
                          "internalType": "struct MonetaryTypesLib.Currency",
                          "name": "currency",
                          "type": "tuple"
                        }
                      ],
                      "internalType": "struct MonetaryTypesLib.Figure",
                      "name": "single",
                      "type": "tuple"
                    },
                    {
                      "components": [
                        {
                          "internalType": "uint256",
                          "name": "originId",
                          "type": "uint256"
                        },
                        {
                          "components": [
                            {
                              "internalType": "int256",
                              "name": "amount",
                              "type": "int256"
                            },
                            {
                              "components": [
                                {
                                  "internalType": "address",
                                  "name": "ct",
                                  "type": "address"
                                },
                                {
                                  "internalType": "uint256",
                                  "name": "id",
                                  "type": "uint256"
                                }
                              ],
                              "internalType": "struct MonetaryTypesLib.Currency",
                              "name": "currency",
                              "type": "tuple"
                            }
                          ],
                          "internalType": "struct MonetaryTypesLib.Figure",
                          "name": "figure",
                          "type": "tuple"
                        }
                      ],
                      "internalType": "struct NahmiiTypesLib.OriginFigure[]",
                      "name": "total",
                      "type": "tuple[]"
                    }
                  ],
                  "internalType": "struct NahmiiTypesLib.SingleFigureTotalOriginFigures",
                  "name": "fees",
                  "type": "tuple"
                }
              ],
              "internalType": "struct TradeTypesLib.TradeParty",
              "name": "seller",
              "type": "tuple"
            },
            {
              "components": [
                {
                  "components": [
                    {
                      "internalType": "int256",
                      "name": "single",
                      "type": "int256"
                    },
                    {
                      "internalType": "int256",
                      "name": "total",
                      "type": "int256"
                    }
                  ],
                  "internalType": "struct NahmiiTypesLib.SingleTotalInt256",
                  "name": "intended",
                  "type": "tuple"
                },
                {
                  "components": [
                    {
                      "internalType": "int256",
                      "name": "single",
                      "type": "int256"
                    },
                    {
                      "internalType": "int256",
                      "name": "total",
                      "type": "int256"
                    }
                  ],
                  "internalType": "struct NahmiiTypesLib.SingleTotalInt256",
                  "name": "conjugate",
                  "type": "tuple"
                }
              ],
              "internalType": "struct NahmiiTypesLib.IntendedConjugateSingleTotalInt256",
              "name": "transfers",
              "type": "tuple"
            },
            {
              "components": [
                {
                  "internalType": "bytes32",
                  "name": "hash",
                  "type": "bytes32"
                },
                {
                  "components": [
                    {
                      "internalType": "bytes32",
                      "name": "r",
                      "type": "bytes32"
                    },
                    {
                      "internalType": "bytes32",
                      "name": "s",
                      "type": "bytes32"
                    },
                    {
                      "internalType": "uint8",
                      "name": "v",
                      "type": "uint8"
                    }
                  ],
                  "internalType": "struct NahmiiTypesLib.Signature",
                  "name": "signature",
                  "type": "tuple"
                }
              ],
              "internalType": "struct NahmiiTypesLib.Seal",
              "name": "seal",
              "type": "tuple"
            },
            {
              "internalType": "uint256",
              "name": "blockNumber",
              "type": "uint256"
            },
            {
              "internalType": "uint256",
              "name": "operatorId",
              "type": "uint256"
            }
          ],
          "internalType": "struct TradeTypesLib.Trade",
          "name": "trade",
          "type": "tuple"
        }
      ],
      "name": "challenge",
      "outputs": [],
      "payable": false,
      "stateMutability": "nonpayable",
      "type": "function"
    }
  ],
  "bytecode": "0x60806040523480156200001157600080fd5b50604051620021e6380380620021e68339810160408190526200003491620000b3565b80806001600160a01b0381166200004a57600080fd5b6001600160a01b0381163014156200006157600080fd5b5060008054610100600160a81b0319166101006001600160a01b0393909316928302179055600180546001600160a01b03191690911790555062000108565b8051620000ad81620000ee565b92915050565b600060208284031215620000c657600080fd5b6000620000d48484620000a0565b949350505050565b60006001600160a01b038216620000ad565b620000f981620000dc565b81146200010557600080fd5b50565b6120ce80620001186000396000f3fe608060405234801561001057600080fd5b50600436106101075760003560e01c806301370d061461010c5780631327d3d81461012157806316cabd4714610134578063240625d8146101475780632738a112146101655780632f013a001461016d5780633a5381b5146101755780633bd7857f1461018a5780634476d23b14610192578063570ca735146101a75780635dc60def146101af578063627f09c3146101b75780636792ce6e146101ca5780636b0570d0146101dd5780636c70bee9146101e557806370327ea1146101ed578063892860b2146101f55780639621473514610208578063b3ab15fb1461021b578063d5f394881461022e578063e8ae41e314610236575b600080fd5b61011f61011a3660046118ec565b61023e565b005b61011f61012f3660046118ec565b6102df565b61011f61014236600461190a565b610370565b61014f610e48565b60405161015c9190611ec5565b60405180910390f35b61011f610e58565b61014f610ebe565b61017d610ec7565b60405161015c9190611f16565b61017d610ed6565b61019a610ee5565b60405161015c9190611e05565b61019a610ef9565b61011f610f08565b61011f6101c53660046118ec565b610f57565b61011f6101d83660046118ec565b610fe8565b61017d611079565b61017d611088565b61011f611097565b61011f6102033660046118ec565b6110fa565b61011f6102163660046118a8565b6111b5565b61011f6102293660046118a8565b611275565b61019a611318565b61017d61132c565b61024661133b565b61024f57600080fd5b806001600160a01b03811661026357600080fd5b60025482906001600160a01b0390811690821681146102d957600280546001600160a01b038681166001600160a01b03198316179092556040519116907f07998fa7be97abe2427246ae4688298c89d6196bbffdf0997b9495a8d27bc673906102cf9083908890611f24565b60405180910390a1505b50505050565b6102e761133b565b6102f057600080fd5b806001600160a01b03811661030457600080fd5b60045482906001600160a01b0390811690821681146102d957600480546001600160a01b038681166001600160a01b03198316179092556040519116907f1882af944a16549c3d4f60e3cd26f158b0c7aac3222cf32971fc21375ce05f60906102cf9083908890611f24565b600360009054906101000a90046001600160a01b03166001600160a01b031663f71e860f6040518163ffffffff1660e01b815260040160206040518083038186803b1580156103be57600080fd5b505afa1580156103d2573d6000803e3d6000fd5b505050506040513d601f19601f820116820180604052506103f691908101906118ce565b61041b5760405162461bcd60e51b815260040161041290611f3f565b60405180910390fd5b60048054604051637211c8c760e11b815283926001600160a01b039092169163e423918e9161044c91859101611f6f565b60206040518083038186803b15801561046457600080fd5b505afa158015610478573d6000803e3d6000fd5b505050506040513d601f19601f8201168201806040525061049c91908101906118ce565b6104b85760405162461bcd60e51b815260040161041290611f4f565b6004805460405163d587271760e01b81526000926001600160a01b039092169163d5872717916104ea91879101611f6f565b60206040518083038186803b15801561050257600080fd5b505afa158015610516573d6000803e3d6000fd5b505050506040513d601f19601f8201168201806040525061053a91908101906118ce565b6106485760048054604051632b1a3a1960e11b81526001600160a01b039091169163563474329161056d91879101611f6f565b60206040518083038186803b15801561058557600080fd5b505afa158015610599573d6000803e3d6000fd5b505050506040513d601f19601f820116820180604052506105bd91908101906118ce565b8015610643575060048054604051633427a68760e21b81526001600160a01b039091169163d09e9a1c916105f391879101611f6f565b60206040518083038186803b15801561060b57600080fd5b505afa15801561061f573d6000803e3d6000fd5b505050506040513d601f19601f8201168201806040525061064391908101906118ce565b61074d565b600480546040516349c3fc7760e11b81526001600160a01b0390911691639387f8ee9161067791879101611f6f565b60206040518083038186803b15801561068f57600080fd5b505afa1580156106a3573d6000803e3d6000fd5b505050506040513d601f19601f820116820180604052506106c791908101906118ce565b801561074d57506004805460405163b0ee5a5b60e01b81526001600160a01b039091169163b0ee5a5b916106fd91879101611f6f565b60206040518083038186803b15801561071557600080fd5b505afa158015610729573d6000803e3d6000fd5b505050506040513d601f19601f8201168201806040525061074d91908101906118ce565b60048054604051637105512560e11b81529293506000926001600160a01b039091169163e20aa24a9161078291889101611f6f565b60206040518083038186803b15801561079a57600080fd5b505afa1580156107ae573d6000803e3d6000fd5b505050506040513d601f19601f820116820180604052506107d291908101906118ce565b6108e057600480546040516377a901cd60e01b81526001600160a01b03909116916377a901cd9161080591889101611f6f565b60206040518083038186803b15801561081d57600080fd5b505afa158015610831573d6000803e3d6000fd5b505050506040513d601f19601f8201168201806040525061085591908101906118ce565b80156108db575060048054604051630e88468f60e21b81526001600160a01b0390911691633a211a3c9161088b91889101611f6f565b60206040518083038186803b1580156108a357600080fd5b505afa1580156108b7573d6000803e3d6000fd5b505050506040513d601f19601f820116820180604052506108db91908101906118ce565b6109e5565b6004805460405163095f4df760e41b81526001600160a01b03909116916395f4df709161090f91889101611f6f565b60206040518083038186803b15801561092757600080fd5b505afa15801561093b573d6000803e3d6000fd5b505050506040513d601f19601f8201168201806040525061095f91908101906118ce565b80156109e557506004805460405163d2e362a160e01b81526001600160a01b039091169163d2e362a19161099591889101611f6f565b60206040518083038186803b1580156109ad57600080fd5b505afa1580156109c1573d6000803e3d6000fd5b505050506040513d601f19601f820116820180604052506109e591908101906118ce565b90508180156109f15750805b156109fb57600080fd5b600360009054906101000a90046001600160a01b03166001600160a01b031663f8e6e8886040518163ffffffff1660e01b8152600401600060405180830381600087803b158015610a4b57600080fd5b505af1158015610a5f573d6000803e3d6000fd5b505060025460e0870151516040516375d8655b60e01b81526001600160a01b0390921693506375d8655b9250610a9791600401611ed3565b600060405180830381600087803b158015610ab157600080fd5b505af1158015610ac5573d6000803e3d6000fd5b505060055460035460408051639699f33760e01b815290516001600160a01b03938416955063760b82929450339390921691639699f33791600480820192602092909190829003018186803b158015610b1d57600080fd5b505afa158015610b31573d6000803e3d6000fd5b505050506040513d601f19601f82011682018060405250610b55919081019061193e565b60006040518463ffffffff1660e01b8152600401610b7593929190611e21565b600060405180830381600087803b158015610b8f57600080fd5b505af1158015610ba3573d6000803e3d6000fd5b5050505081610cbd57600654608085015160208082015160a09092015151516040808901515180519301519051634d2a299160e11b81526001600160a01b0390951694639a54532294610c0194909333939092600090600401611e6b565b600060405180830381600087803b158015610c1b57600080fd5b505af1158015610c2f573d6000803e3d6000fd5b5050600654608087015160208082015160a090920151810151516040808b015183015180519301519051634d2a299160e11b81526001600160a01b039095169650639a5453229550610c8a9433939190600090600401611e6b565b600060405180830381600087803b158015610ca457600080fd5b505af1158015610cb8573d6000803e3d6000fd5b505050505b80610dd55760065460a080860151602080820151919092015151516040808901515180519401519051634d2a299160e11b81526001600160a01b0390951694639a54532294610d16949333939092600090600401611e6b565b600060405180830381600087803b158015610d3057600080fd5b505af1158015610d44573d6000803e3d6000fd5b505060065460a0808801516020808201519190920151820151516040808b015184015180519401519051634d2a299160e11b81526001600160a01b039095169650639a5453229550610da29492933393909190600090600401611e6b565b600060405180830381600087803b158015610dbc57600080fd5b505af1158015610dd0573d6000803e3d6000fd5b505050505b60e0840151517f4b1c77e1b2b1e3866c73bbddcaf9f4cad172b890bfab938da442005e1234d407903384610e1157866080015160200151610e14565b60005b84610e27578760a0015160200151610e2a565b60005b604051610e3a9493929190611ee1565b60405180910390a150505050565b600654600160a01b900460ff1681565b33610e61610ee5565b6001600160a01b031614610e7457600080fd5b60005460ff1615610e8457600080fd5b7f787a5d936e74f4b564b9153575886059829c78cd9927b1be5e0d976b317ef73633604051610eb39190611e13565b60405180910390a133ff5b60005460ff1681565b6004546001600160a01b031681565b6002546001600160a01b031681565b60005461010090046001600160a01b031690565b6001546001600160a01b031681565b610f1061133b565b610f1957600080fd5b6006805460ff60a01b1916600160a01b1790556040517f56ec8900b9c4bf84f4b715a53068ca06961dd49084c07b481931e2c2045346e690600090a1565b610f5f61133b565b610f6857600080fd5b806001600160a01b038116610f7c57600080fd5b60035482906001600160a01b0390811690821681146102d957600380546001600160a01b038681166001600160a01b03198316179092556040519116907f634f61bf00e14adedce330c80c2823e16e184f189ebe853e1ddecc4a268477ff906102cf9083908890611f24565b610ff061133b565b610ff957600080fd5b806001600160a01b03811661100d57600080fd5b60055482906001600160a01b0390811690821681146102d957600580546001600160a01b038681166001600160a01b03198316179092556040519116907fc9f3f00c1760fe26985aeacb814a21c56ea289d680562e89b249681b08c30382906102cf9083908890611f24565b6005546001600160a01b031681565b6003546001600160a01b031681565b336110a0610ee5565b6001600160a01b0316146110b357600080fd5b6000805460ff191660011790556040517fd5a2a04a775c741c2ca0dc46ea7ce4835190e1aaf1ca018def0e82568ec33616906110f0903390611e13565b60405180910390a1565b61110261133b565b61110b57600080fd5b806001600160a01b03811661111f57600080fd5b60065482906001600160a01b0390811690821681146102d957600654600160a01b900460ff16156111625760405162461bcd60e51b815260040161041290611f5f565b600680546001600160a01b038681166001600160a01b03198316179092556040519116907fa44d361e26327b72a7ccbeae801b3c5cd7677ea4fa74168b289e273c46bfecfc906102cf9083908890611f24565b6111bd61133b565b6111c657600080fd5b806001600160a01b0381166111da57600080fd5b6001600160a01b0381163014156111f057600080fd5b6000546001600160a01b03838116610100909204161461127157600080546001600160a01b03848116610100908102610100600160a81b03198416179093556040519290910416907f977e5fa58e458501775e0008d275006294c5249e3c08d1d0e3a9f3acad14f6e4906112679083908690611e49565b60405180910390a1505b5050565b61127d611351565b61128657600080fd5b806001600160a01b03811661129a57600080fd5b6001600160a01b0381163014156112b057600080fd5b6001546001600160a01b0383811691161461127157600180546001600160a01b038481166001600160a01b03198316179092556040519116907f9f611b789425d0d5b90b920f1b2852907dd865c80074a30b1629aaa041d1812c906112679083908690611e49565b60005461010090046001600160a01b031681565b6006546001600160a01b031681565b60005461010090046001600160a01b0316331490565b6001546001600160a01b0316331490565b803561136d81612046565b92915050565b600082601f83011261138457600080fd5b813561139761139282611fa6565b611f80565b915081818352602084019350602081019050838560808402820111156113bc57600080fd5b60005b838110156113ea57816113d28882611542565b845250602090920191608091909101906001016113bf565b5050505092915050565b805161136d8161205a565b803561136d81612063565b803561136d8161206c565b803561136d81612075565b60006040828403121561143257600080fd5b61143c6040611f80565b9050600061144a8484611362565b825250602061145b848483016113ff565b60208301525092915050565b60006040828403121561147957600080fd5b6114836040611f80565b9050600061144a84846113ff565b6000606082840312156114a357600080fd5b6114ad6040611f80565b905060006114bb84846113ff565b825250602061145b84848301611420565b6000608082840312156114de57600080fd5b6114e86040611f80565b905060006114f68484611420565b825250604061145b84848301611420565b60006080828403121561151957600080fd5b6115236040611f80565b905060006115318484611467565b825250604061145b84848301611467565b60006080828403121561155457600080fd5b61155e6040611f80565b9050600061156c84846113ff565b825250602061145b84848301611491565b60006080828403121561158f57600080fd5b6115996040611f80565b905060006115a784846113ff565b825250602061145b848483016000606082840312156115c557600080fd5b6115cf6060611f80565b905060006115dd84846113ff565b82525060206115ee848483016113ff565b60208301525060406116028482850161189d565b60408301525092915050565b60006080828403121561162057600080fd5b61162a6040611f80565b905060006116388484611491565b82525060608201356001600160401b0381111561165457600080fd5b61145b84828501611373565b600060a0828403121561167257600080fd5b61167c6060611f80565b9050600061168a84846113ff565b825250602061169b84848301611467565b602083015250606061160284828501611467565b60006101c082840312156116c257600080fd5b6116cc60e0611f80565b905060006116da84846113ff565b82525060206116eb84848301611362565b60208301525060406116ff848285016113ff565b604083015250606061171384828501611415565b606083015250608061172784828501611660565b60808301525061012061173c84828501611507565b60a0830152506101a08201356001600160401b0381111561175c57600080fd5b6117688482850161160e565b60c08301525092915050565b6000610260828403121561178757600080fd5b611792610140611f80565b905060006117a084846113ff565b82525060206117b1848483016113ff565b60208301525060406117c5848285016114cc565b60408301525060c06117d9848285016113ff565b60608301525060e08201356001600160401b038111156117f857600080fd5b611804848285016116af565b6080830152506101008201356001600160401b0381111561182457600080fd5b611830848285016116af565b60a08301525061012061184584828501611507565b60c0830152506101a061185a8482850161157d565b60e08301525061022061186f848285016113ff565b61010083015250610240611885848285016113ff565b6101208301525092915050565b805161136d81612063565b803561136d81612082565b6000602082840312156118ba57600080fd5b60006118c68484611362565b949350505050565b6000602082840312156118e057600080fd5b60006118c684846113f4565b6000602082840312156118fe57600080fd5b60006118c6848461140a565b60006020828403121561191c57600080fd5b81356001600160401b0381111561193257600080fd5b6118c684828501611774565b60006020828403121561195057600080fd5b60006118c68484611892565b60006119688383611bab565b505060800190565b61197981612018565b82525050565b61197981611fd9565b600061199382611fcc565b61199d8185611fd0565b93506119a883611fc6565b8060005b838110156119d65781516119c0888261195c565b97506119cb83611fc6565b9250506001016119ac565b509495945050505050565b61197981611fe4565b61197981611fe9565b61197981611fec565b61197981612023565b6119798161202e565b6000611a1b603f83611fd0565b7f4f7065726174696f6e616c206d6f6465206973206e6f74206e6f726d616c205b81527f436f6e666967757261626c654f7065726174696f6e616c2e736f6c3a32325d00602082015260400192915050565b6000611a7a602d83611fd0565b7f5472616465207365616c206e6f742067656e75696e65205b56616c696461746181526c626c6556322e736f6c3a37305d60981b602082015260400192915050565b6000611ac9602c83611fd0565b7f57616c6c6574206c6f636b65722066726f7a656e205b57616c6c65744c6f636b81526b61626c652e736f6c3a34335d60a01b602082015260400192915050565b80516040830190611b1b848261197f565b5060208201516102d960208501826119ea565b80516040830190611b1b84826119ea565b80516060830190611b5084826119ea565b5060208201516102d96020850182611b0a565b80516080830190611b748482611b0a565b5060208201516102d96040850182611b0a565b80516080830190611b988482611b2e565b5060208201516102d96040850182611b2e565b80516080830190611bbc84826119ea565b5060208201516102d96020850182611b3f565b80516080830190611be084826119ea565b5060208201516102d9602085018280516060830190611bff84826119ea565b506020820151611c1260208501826119ea565b5060408201516102d96040850182611dfc565b80516000906080840190611c398582611b3f565b5060208301518482036060860152611c518282611988565b95945050505050565b805160a0830190611c6b84826119ea565b506020820151611c7e6020850182611b2e565b5060408201516102d96060850182611b2e565b80516000906101c0840190611ca685826119ea565b506020830151611cb9602086018261197f565b506040830151611ccc60408601826119ea565b506060830151611cdf60608601826119fc565b506080830151611cf26080860182611c5a565b5060a0830151611d06610120860182611b87565b5060c08301518482036101a0860152611c518282611c25565b8051600090610260840190611d3485826119ea565b506020830151611d4760208601826119ea565b506040830151611d5a6040860182611b63565b506060830151611d6d60c08601826119ea565b50608083015184820360e0860152611d858282611c91565b91505060a0830151848203610100860152611da08282611c91565b91505060c0830151611db6610120860182611b87565b5060e0830151611dca6101a0860182611bcf565b50610100830151611ddf6102208601826119ea565b50610120830151611df46102408601826119ea565b509392505050565b61197981612012565b6020810161136d828461197f565b6020810161136d8284611970565b60608101611e2f8286611970565b611e3c60208301856119ea565b6118c66040830184611a05565b60408101611e57828561197f565b611e64602083018461197f565b9392505050565b60c08101611e79828961197f565b611e866020830188611970565b611e9360408301876119ea565b611ea0606083018661197f565b611ead60808301856119ea565b611eba60a0830184611a05565b979650505050505050565b6020810161136d82846119e1565b6020810161136d82846119ea565b60808101611eef82876119ea565b611efc6020830186611970565b611f09604083018561197f565b611c51606083018461197f565b6020810161136d82846119f3565b60408101611f3282856119f3565b611e6460208301846119f3565b6020808252810161136d81611a0e565b6020808252810161136d81611a6d565b6020808252810161136d81611abc565b60208082528101611e648184611d1f565b6040518181016001600160401b0381118282101715611f9e57600080fd5b604052919050565b60006001600160401b03821115611fbc57600080fd5b5060209081020190565b60200190565b5190565b90815260200190565b600061136d82612006565b151590565b90565b600061136d82611fd9565b8061200181612039565b919050565b6001600160a01b031690565b60ff1690565b600061136d82611fec565b600061136d82611ff7565b600061136d82611fe9565b6002811061204357fe5b50565b61204f81611fd9565b811461204357600080fd5b61204f81611fe4565b61204f81611fe9565b61204f81611fec565b6002811061204357600080fd5b61204f8161201256fea365627a7a7231582061f73c8b6acfda599156e4d19c9960f6a1b2c145b273a2500e48fe59c03a29706c6578706572696d656e74616cf564736f6c634300050c0040",
  "source": "/*\n * Hubii Nahmii\n *\n * Compliant with the Hubii Nahmii specification v0.12.\n *\n * Copyright (C) 2017-2018 Hubii AS\n */\n\npragma solidity >=0.4.25 <0.6.0;\npragma experimental ABIEncoderV2;\n\nimport {Ownable} from \"./Ownable.sol\";\nimport {FraudChallengable} from \"./FraudChallengable.sol\";\nimport {ConfigurableOperational} from \"./ConfigurableOperational.sol\";\nimport {ValidatableV2} from \"./ValidatableV2.sol\";\nimport {SecurityBondable} from \"./SecurityBondable.sol\";\nimport {WalletLockable} from \"./WalletLockable.sol\";\nimport {TradeTypesLib} from \"./TradeTypesLib.sol\";\nimport {SafeMathIntLib} from \"./SafeMathIntLib.sol\";\n\n/**\n * @title FraudChallengeByTrade\n * @notice Where driips are challenged wrt fraud by mismatch in single trade property values\n */\ncontract FraudChallengeByTrade is Ownable, FraudChallengable, ConfigurableOperational, ValidatableV2,\nSecurityBondable, WalletLockable {\n    using SafeMathIntLib for int256;\n\n    //\n    // Events\n    // -----------------------------------------------------------------------------------------------------------------\n    event ChallengeByTradeEvent(bytes32 tradeHash, address challenger, address lockedBuyer, address lockedSeller);\n\n    //\n    // Constructor\n    // -----------------------------------------------------------------------------------------------------------------\n    constructor(address deployer) Ownable(deployer) public {\n    }\n\n    //\n    // Functions\n    // -----------------------------------------------------------------------------------------------------------------\n    /// @notice Submit a trade candidate in continuous Fraud Challenge (FC)\n    /// @param trade Fraudulent trade candidate\n    function challenge(TradeTypesLib.Trade memory trade)\n    public\n    onlyOperationalModeNormal\n    onlySealedTrade(trade)\n    {\n        // Genuineness affected by buyer\n        bool genuineBuyerAndFee = validator.isTradeIntendedCurrencyNonFungible(trade) ?\n        validator.isGenuineTradeBuyerOfNonFungible(trade) && validator.isGenuineTradeBuyerFeeOfNonFungible(trade) :\n        validator.isGenuineTradeBuyerOfFungible(trade) && validator.isGenuineTradeBuyerFeeOfFungible(trade);\n\n        // Genuineness affected by seller\n        bool genuineSellerAndFee = validator.isTradeConjugateCurrencyNonFungible(trade) ?\n        validator.isGenuineTradeSellerOfNonFungible(trade) && validator.isGenuineTradeSellerFeeOfNonFungible(trade) :\n        validator.isGenuineTradeSellerOfFungible(trade) && validator.isGenuineTradeSellerFeeOfFungible(trade);\n\n        // Require existence of fraud signal\n        require(!(genuineBuyerAndFee && genuineSellerAndFee));\n\n        // Toggle operational mode exit\n        configuration.setOperationalModeExit();\n\n        // Tag trade (hash) as fraudulent\n        fraudChallenge.addFraudulentTradeHash(trade.seal.hash);\n\n        // Reward stake fraction\n        securityBond.rewardFractional(msg.sender, configuration.fraudStakeFraction(), 0);\n\n        // Lock amount of size equivalent to trade intended and conjugate amounts of buyer\n        if (!genuineBuyerAndFee) {\n            walletLocker.lockFungibleByProxy(\n                trade.buyer.wallet, msg.sender, trade.buyer.balances.intended.current,\n                trade.currencies.intended.ct, trade.currencies.intended.id, 0\n            );\n            walletLocker.lockFungibleByProxy(\n                trade.buyer.wallet, msg.sender, trade.buyer.balances.conjugate.current,\n                trade.currencies.conjugate.ct, trade.currencies.conjugate.id, 0\n            );\n        }\n\n        // Lock amount of size equivalent to trade intended and conjugate amounts of seller\n        if (!genuineSellerAndFee) {\n            walletLocker.lockFungibleByProxy(\n                trade.seller.wallet, msg.sender, trade.seller.balances.intended.current,\n                trade.currencies.intended.ct, trade.currencies.intended.id, 0\n            );\n            walletLocker.lockFungibleByProxy(\n                trade.seller.wallet, msg.sender, trade.seller.balances.conjugate.current,\n                trade.currencies.conjugate.ct, trade.currencies.conjugate.id, 0\n            );\n        }\n\n        // Emit event\n        emit ChallengeByTradeEvent(\n            trade.seal.hash, msg.sender,\n            genuineBuyerAndFee ? address(0) : trade.buyer.wallet,\n            genuineSellerAndFee ? address(0) : trade.seller.wallet\n        );\n    }\n}",
  "sourcePath": "/opt/buildagent/work/855e104608380c36/contracts/FraudChallengeByTrade.sol",
  "compiler": {
    "name": "solc",
    "version": "0.5.12+commit.7709ece9.Emscripten.clang"
  },
  "schemaVersion": "2.0.3",
  "updatedAt": "2019-10-23T00:21:40.806Z"
}