{
  "contractName": "FraudChallengeByPaymentSucceedingTrade",
  "abi": [
    {
      "constant": false,
      "inputs": [
        {
          "name": "newFraudChallenge",
          "type": "address"
        }
      ],
      "name": "setFraudChallenge",
      "outputs": [],
      "payable": false,
      "stateMutability": "nonpayable",
      "type": "function"
    },
    {
      "constant": false,
      "inputs": [
        {
          "name": "newValidator",
          "type": "address"
        }
      ],
      "name": "setValidator",
      "outputs": [],
      "payable": false,
      "stateMutability": "nonpayable",
      "type": "function"
    },
    {
      "constant": true,
      "inputs": [],
      "name": "walletLockerFrozen",
      "outputs": [
        {
          "name": "",
          "type": "bool"
        }
      ],
      "payable": false,
      "stateMutability": "view",
      "type": "function"
    },
    {
      "constant": false,
      "inputs": [],
      "name": "triggerSelfDestruction",
      "outputs": [],
      "payable": false,
      "stateMutability": "nonpayable",
      "type": "function"
    },
    {
      "constant": true,
      "inputs": [],
      "name": "selfDestructionDisabled",
      "outputs": [
        {
          "name": "",
          "type": "bool"
        }
      ],
      "payable": false,
      "stateMutability": "view",
      "type": "function"
    },
    {
      "constant": true,
      "inputs": [],
      "name": "validator",
      "outputs": [
        {
          "name": "",
          "type": "address"
        }
      ],
      "payable": false,
      "stateMutability": "view",
      "type": "function"
    },
    {
      "constant": true,
      "inputs": [],
      "name": "fraudChallenge",
      "outputs": [
        {
          "name": "",
          "type": "address"
        }
      ],
      "payable": false,
      "stateMutability": "view",
      "type": "function"
    },
    {
      "constant": true,
      "inputs": [],
      "name": "destructor",
      "outputs": [
        {
          "name": "",
          "type": "address"
        }
      ],
      "payable": false,
      "stateMutability": "view",
      "type": "function"
    },
    {
      "constant": true,
      "inputs": [],
      "name": "operator",
      "outputs": [
        {
          "name": "",
          "type": "address"
        }
      ],
      "payable": false,
      "stateMutability": "view",
      "type": "function"
    },
    {
      "constant": false,
      "inputs": [],
      "name": "freezeWalletLocker",
      "outputs": [],
      "payable": false,
      "stateMutability": "nonpayable",
      "type": "function"
    },
    {
      "constant": false,
      "inputs": [
        {
          "name": "newConfiguration",
          "type": "address"
        }
      ],
      "name": "setConfiguration",
      "outputs": [],
      "payable": false,
      "stateMutability": "nonpayable",
      "type": "function"
    },
    {
      "constant": false,
      "inputs": [
        {
          "name": "newSecurityBond",
          "type": "address"
        }
      ],
      "name": "setSecurityBond",
      "outputs": [],
      "payable": false,
      "stateMutability": "nonpayable",
      "type": "function"
    },
    {
      "constant": true,
      "inputs": [],
      "name": "securityBond",
      "outputs": [
        {
          "name": "",
          "type": "address"
        }
      ],
      "payable": false,
      "stateMutability": "view",
      "type": "function"
    },
    {
      "constant": true,
      "inputs": [],
      "name": "configuration",
      "outputs": [
        {
          "name": "",
          "type": "address"
        }
      ],
      "payable": false,
      "stateMutability": "view",
      "type": "function"
    },
    {
      "constant": false,
      "inputs": [],
      "name": "disableSelfDestruction",
      "outputs": [],
      "payable": false,
      "stateMutability": "nonpayable",
      "type": "function"
    },
    {
      "constant": false,
      "inputs": [
        {
          "name": "newWalletLocker",
          "type": "address"
        }
      ],
      "name": "setWalletLocker",
      "outputs": [],
      "payable": false,
      "stateMutability": "nonpayable",
      "type": "function"
    },
    {
      "constant": false,
      "inputs": [
        {
          "name": "newDeployer",
          "type": "address"
        }
      ],
      "name": "setDeployer",
      "outputs": [],
      "payable": false,
      "stateMutability": "nonpayable",
      "type": "function"
    },
    {
      "constant": false,
      "inputs": [
        {
          "name": "newOperator",
          "type": "address"
        }
      ],
      "name": "setOperator",
      "outputs": [],
      "payable": false,
      "stateMutability": "nonpayable",
      "type": "function"
    },
    {
      "constant": true,
      "inputs": [],
      "name": "deployer",
      "outputs": [
        {
          "name": "",
          "type": "address"
        }
      ],
      "payable": false,
      "stateMutability": "view",
      "type": "function"
    },
    {
      "constant": true,
      "inputs": [],
      "name": "walletLocker",
      "outputs": [
        {
          "name": "",
          "type": "address"
        }
      ],
      "payable": false,
      "stateMutability": "view",
      "type": "function"
    },
    {
      "inputs": [
        {
          "name": "deployer",
          "type": "address"
        }
      ],
      "payable": false,
      "stateMutability": "nonpayable",
      "type": "constructor"
    },
    {
      "anonymous": false,
      "inputs": [
        {
          "indexed": false,
          "name": "tradeHash",
          "type": "bytes32"
        },
        {
          "indexed": false,
          "name": "paymentHash",
          "type": "bytes32"
        },
        {
          "indexed": false,
          "name": "challenger",
          "type": "address"
        },
        {
          "indexed": false,
          "name": "lockedWallet",
          "type": "address"
        }
      ],
      "name": "ChallengeByPaymentSucceedingTradeEvent",
      "type": "event"
    },
    {
      "anonymous": false,
      "inputs": [
        {
          "indexed": false,
          "name": "oldWalletLocker",
          "type": "address"
        },
        {
          "indexed": false,
          "name": "newWalletLocker",
          "type": "address"
        }
      ],
      "name": "SetWalletLockerEvent",
      "type": "event"
    },
    {
      "anonymous": false,
      "inputs": [],
      "name": "FreezeWalletLockerEvent",
      "type": "event"
    },
    {
      "anonymous": false,
      "inputs": [
        {
          "indexed": false,
          "name": "oldSecurityBond",
          "type": "address"
        },
        {
          "indexed": false,
          "name": "newSecurityBond",
          "type": "address"
        }
      ],
      "name": "SetSecurityBondEvent",
      "type": "event"
    },
    {
      "anonymous": false,
      "inputs": [
        {
          "indexed": false,
          "name": "oldValidator",
          "type": "address"
        },
        {
          "indexed": false,
          "name": "newValidator",
          "type": "address"
        }
      ],
      "name": "SetValidatorEvent",
      "type": "event"
    },
    {
      "anonymous": false,
      "inputs": [
        {
          "indexed": false,
          "name": "oldConfiguration",
          "type": "address"
        },
        {
          "indexed": false,
          "name": "newConfiguration",
          "type": "address"
        }
      ],
      "name": "SetConfigurationEvent",
      "type": "event"
    },
    {
      "anonymous": false,
      "inputs": [
        {
          "indexed": false,
          "name": "oldFraudChallenge",
          "type": "address"
        },
        {
          "indexed": false,
          "name": "newFraudChallenge",
          "type": "address"
        }
      ],
      "name": "SetFraudChallengeEvent",
      "type": "event"
    },
    {
      "anonymous": false,
      "inputs": [
        {
          "indexed": false,
          "name": "oldDeployer",
          "type": "address"
        },
        {
          "indexed": false,
          "name": "newDeployer",
          "type": "address"
        }
      ],
      "name": "SetDeployerEvent",
      "type": "event"
    },
    {
      "anonymous": false,
      "inputs": [
        {
          "indexed": false,
          "name": "oldOperator",
          "type": "address"
        },
        {
          "indexed": false,
          "name": "newOperator",
          "type": "address"
        }
      ],
      "name": "SetOperatorEvent",
      "type": "event"
    },
    {
      "anonymous": false,
      "inputs": [
        {
          "indexed": false,
          "name": "wallet",
          "type": "address"
        }
      ],
      "name": "SelfDestructionDisabledEvent",
      "type": "event"
    },
    {
      "anonymous": false,
      "inputs": [
        {
          "indexed": false,
          "name": "wallet",
          "type": "address"
        }
      ],
      "name": "TriggerSelfDestructionEvent",
      "type": "event"
    },
    {
      "constant": false,
      "inputs": [
        {
          "components": [
            {
              "name": "nonce",
              "type": "uint256"
            },
            {
              "name": "amount",
              "type": "int256"
            },
            {
              "components": [
                {
                  "components": [
                    {
                      "name": "ct",
                      "type": "address"
                    },
                    {
                      "name": "id",
                      "type": "uint256"
                    }
                  ],
                  "name": "intended",
                  "type": "tuple"
                },
                {
                  "components": [
                    {
                      "name": "ct",
                      "type": "address"
                    },
                    {
                      "name": "id",
                      "type": "uint256"
                    }
                  ],
                  "name": "conjugate",
                  "type": "tuple"
                }
              ],
              "name": "currencies",
              "type": "tuple"
            },
            {
              "name": "rate",
              "type": "int256"
            },
            {
              "components": [
                {
                  "name": "nonce",
                  "type": "uint256"
                },
                {
                  "name": "wallet",
                  "type": "address"
                },
                {
                  "name": "rollingVolume",
                  "type": "uint256"
                },
                {
                  "name": "liquidityRole",
                  "type": "uint8"
                },
                {
                  "components": [
                    {
                      "name": "amount",
                      "type": "int256"
                    },
                    {
                      "components": [
                        {
                          "name": "wallet",
                          "type": "bytes32"
                        },
                        {
                          "name": "operator",
                          "type": "bytes32"
                        }
                      ],
                      "name": "hashes",
                      "type": "tuple"
                    },
                    {
                      "components": [
                        {
                          "name": "current",
                          "type": "int256"
                        },
                        {
                          "name": "previous",
                          "type": "int256"
                        }
                      ],
                      "name": "residuals",
                      "type": "tuple"
                    }
                  ],
                  "name": "order",
                  "type": "tuple"
                },
                {
                  "components": [
                    {
                      "components": [
                        {
                          "name": "current",
                          "type": "int256"
                        },
                        {
                          "name": "previous",
                          "type": "int256"
                        }
                      ],
                      "name": "intended",
                      "type": "tuple"
                    },
                    {
                      "components": [
                        {
                          "name": "current",
                          "type": "int256"
                        },
                        {
                          "name": "previous",
                          "type": "int256"
                        }
                      ],
                      "name": "conjugate",
                      "type": "tuple"
                    }
                  ],
                  "name": "balances",
                  "type": "tuple"
                },
                {
                  "components": [
                    {
                      "components": [
                        {
                          "name": "amount",
                          "type": "int256"
                        },
                        {
                          "components": [
                            {
                              "name": "ct",
                              "type": "address"
                            },
                            {
                              "name": "id",
                              "type": "uint256"
                            }
                          ],
                          "name": "currency",
                          "type": "tuple"
                        }
                      ],
                      "name": "single",
                      "type": "tuple"
                    },
                    {
                      "components": [
                        {
                          "name": "originId",
                          "type": "uint256"
                        },
                        {
                          "components": [
                            {
                              "name": "amount",
                              "type": "int256"
                            },
                            {
                              "components": [
                                {
                                  "name": "ct",
                                  "type": "address"
                                },
                                {
                                  "name": "id",
                                  "type": "uint256"
                                }
                              ],
                              "name": "currency",
                              "type": "tuple"
                            }
                          ],
                          "name": "figure",
                          "type": "tuple"
                        }
                      ],
                      "name": "total",
                      "type": "tuple[]"
                    }
                  ],
                  "name": "fees",
                  "type": "tuple"
                }
              ],
              "name": "buyer",
              "type": "tuple"
            },
            {
              "components": [
                {
                  "name": "nonce",
                  "type": "uint256"
                },
                {
                  "name": "wallet",
                  "type": "address"
                },
                {
                  "name": "rollingVolume",
                  "type": "uint256"
                },
                {
                  "name": "liquidityRole",
                  "type": "uint8"
                },
                {
                  "components": [
                    {
                      "name": "amount",
                      "type": "int256"
                    },
                    {
                      "components": [
                        {
                          "name": "wallet",
                          "type": "bytes32"
                        },
                        {
                          "name": "operator",
                          "type": "bytes32"
                        }
                      ],
                      "name": "hashes",
                      "type": "tuple"
                    },
                    {
                      "components": [
                        {
                          "name": "current",
                          "type": "int256"
                        },
                        {
                          "name": "previous",
                          "type": "int256"
                        }
                      ],
                      "name": "residuals",
                      "type": "tuple"
                    }
                  ],
                  "name": "order",
                  "type": "tuple"
                },
                {
                  "components": [
                    {
                      "components": [
                        {
                          "name": "current",
                          "type": "int256"
                        },
                        {
                          "name": "previous",
                          "type": "int256"
                        }
                      ],
                      "name": "intended",
                      "type": "tuple"
                    },
                    {
                      "components": [
                        {
                          "name": "current",
                          "type": "int256"
                        },
                        {
                          "name": "previous",
                          "type": "int256"
                        }
                      ],
                      "name": "conjugate",
                      "type": "tuple"
                    }
                  ],
                  "name": "balances",
                  "type": "tuple"
                },
                {
                  "components": [
                    {
                      "components": [
                        {
                          "name": "amount",
                          "type": "int256"
                        },
                        {
                          "components": [
                            {
                              "name": "ct",
                              "type": "address"
                            },
                            {
                              "name": "id",
                              "type": "uint256"
                            }
                          ],
                          "name": "currency",
                          "type": "tuple"
                        }
                      ],
                      "name": "single",
                      "type": "tuple"
                    },
                    {
                      "components": [
                        {
                          "name": "originId",
                          "type": "uint256"
                        },
                        {
                          "components": [
                            {
                              "name": "amount",
                              "type": "int256"
                            },
                            {
                              "components": [
                                {
                                  "name": "ct",
                                  "type": "address"
                                },
                                {
                                  "name": "id",
                                  "type": "uint256"
                                }
                              ],
                              "name": "currency",
                              "type": "tuple"
                            }
                          ],
                          "name": "figure",
                          "type": "tuple"
                        }
                      ],
                      "name": "total",
                      "type": "tuple[]"
                    }
                  ],
                  "name": "fees",
                  "type": "tuple"
                }
              ],
              "name": "seller",
              "type": "tuple"
            },
            {
              "components": [
                {
                  "components": [
                    {
                      "name": "single",
                      "type": "int256"
                    },
                    {
                      "name": "total",
                      "type": "int256"
                    }
                  ],
                  "name": "intended",
                  "type": "tuple"
                },
                {
                  "components": [
                    {
                      "name": "single",
                      "type": "int256"
                    },
                    {
                      "name": "total",
                      "type": "int256"
                    }
                  ],
                  "name": "conjugate",
                  "type": "tuple"
                }
              ],
              "name": "transfers",
              "type": "tuple"
            },
            {
              "components": [
                {
                  "name": "hash",
                  "type": "bytes32"
                },
                {
                  "components": [
                    {
                      "name": "r",
                      "type": "bytes32"
                    },
                    {
                      "name": "s",
                      "type": "bytes32"
                    },
                    {
                      "name": "v",
                      "type": "uint8"
                    }
                  ],
                  "name": "signature",
                  "type": "tuple"
                }
              ],
              "name": "seal",
              "type": "tuple"
            },
            {
              "name": "blockNumber",
              "type": "uint256"
            },
            {
              "name": "operatorId",
              "type": "uint256"
            }
          ],
          "name": "trade",
          "type": "tuple"
        },
        {
          "components": [
            {
              "name": "nonce",
              "type": "uint256"
            },
            {
              "name": "amount",
              "type": "int256"
            },
            {
              "components": [
                {
                  "name": "ct",
                  "type": "address"
                },
                {
                  "name": "id",
                  "type": "uint256"
                }
              ],
              "name": "currency",
              "type": "tuple"
            },
            {
              "components": [
                {
                  "name": "nonce",
                  "type": "uint256"
                },
                {
                  "name": "wallet",
                  "type": "address"
                },
                {
                  "components": [
                    {
                      "name": "current",
                      "type": "int256"
                    },
                    {
                      "name": "previous",
                      "type": "int256"
                    }
                  ],
                  "name": "balances",
                  "type": "tuple"
                },
                {
                  "components": [
                    {
                      "components": [
                        {
                          "name": "amount",
                          "type": "int256"
                        },
                        {
                          "components": [
                            {
                              "name": "ct",
                              "type": "address"
                            },
                            {
                              "name": "id",
                              "type": "uint256"
                            }
                          ],
                          "name": "currency",
                          "type": "tuple"
                        }
                      ],
                      "name": "single",
                      "type": "tuple"
                    },
                    {
                      "components": [
                        {
                          "name": "originId",
                          "type": "uint256"
                        },
                        {
                          "components": [
                            {
                              "name": "amount",
                              "type": "int256"
                            },
                            {
                              "components": [
                                {
                                  "name": "ct",
                                  "type": "address"
                                },
                                {
                                  "name": "id",
                                  "type": "uint256"
                                }
                              ],
                              "name": "currency",
                              "type": "tuple"
                            }
                          ],
                          "name": "figure",
                          "type": "tuple"
                        }
                      ],
                      "name": "total",
                      "type": "tuple[]"
                    }
                  ],
                  "name": "fees",
                  "type": "tuple"
                }
              ],
              "name": "sender",
              "type": "tuple"
            },
            {
              "components": [
                {
                  "name": "nonce",
                  "type": "uint256"
                },
                {
                  "name": "wallet",
                  "type": "address"
                },
                {
                  "components": [
                    {
                      "name": "current",
                      "type": "int256"
                    },
                    {
                      "name": "previous",
                      "type": "int256"
                    }
                  ],
                  "name": "balances",
                  "type": "tuple"
                },
                {
                  "components": [
                    {
                      "components": [
                        {
                          "name": "originId",
                          "type": "uint256"
                        },
                        {
                          "components": [
                            {
                              "name": "amount",
                              "type": "int256"
                            },
                            {
                              "components": [
                                {
                                  "name": "ct",
                                  "type": "address"
                                },
                                {
                                  "name": "id",
                                  "type": "uint256"
                                }
                              ],
                              "name": "currency",
                              "type": "tuple"
                            }
                          ],
                          "name": "figure",
                          "type": "tuple"
                        }
                      ],
                      "name": "total",
                      "type": "tuple[]"
                    }
                  ],
                  "name": "fees",
                  "type": "tuple"
                }
              ],
              "name": "recipient",
              "type": "tuple"
            },
            {
              "components": [
                {
                  "name": "single",
                  "type": "int256"
                },
                {
                  "name": "total",
                  "type": "int256"
                }
              ],
              "name": "transfers",
              "type": "tuple"
            },
            {
              "components": [
                {
                  "components": [
                    {
                      "name": "hash",
                      "type": "bytes32"
                    },
                    {
                      "components": [
                        {
                          "name": "r",
                          "type": "bytes32"
                        },
                        {
                          "name": "s",
                          "type": "bytes32"
                        },
                        {
                          "name": "v",
                          "type": "uint8"
                        }
                      ],
                      "name": "signature",
                      "type": "tuple"
                    }
                  ],
                  "name": "wallet",
                  "type": "tuple"
                },
                {
                  "components": [
                    {
                      "name": "hash",
                      "type": "bytes32"
                    },
                    {
                      "components": [
                        {
                          "name": "r",
                          "type": "bytes32"
                        },
                        {
                          "name": "s",
                          "type": "bytes32"
                        },
                        {
                          "name": "v",
                          "type": "uint8"
                        }
                      ],
                      "name": "signature",
                      "type": "tuple"
                    }
                  ],
                  "name": "operator",
                  "type": "tuple"
                }
              ],
              "name": "seals",
              "type": "tuple"
            },
            {
              "name": "blockNumber",
              "type": "uint256"
            },
            {
              "name": "operatorId",
              "type": "uint256"
            }
          ],
          "name": "payment",
          "type": "tuple"
        },
        {
          "name": "wallet",
          "type": "address"
        },
        {
          "name": "currencyCt",
          "type": "address"
        },
        {
          "name": "currencyId",
          "type": "uint256"
        }
      ],
      "name": "challenge",
      "outputs": [],
      "payable": false,
      "stateMutability": "nonpayable",
      "type": "function"
    }
  ],
  "bytecode": "0x60806040523480156200001157600080fd5b50604051602080620024988339810180604052620000339190810190620000b6565b8080600160a060020a03811615156200004b57600080fd5b600160a060020a0381163014156200006257600080fd5b506000805461010060a860020a031916610100600160a060020a039390931692830217905560018054600160a060020a031916909117905550620000eb565b6000620000af8251620000df565b9392505050565b600060208284031215620000c957600080fd5b6000620000d78484620000a1565b949350505050565b600160a060020a031690565b61239d80620000fb6000396000f3006080604052600436106101035763ffffffff60e060020a60003504166301370d0681146101085780631327d3d81461012a578063240625d81461014a5780632738a112146101755780632f013a001461018a5780633a5381b51461019f5780633bd7857f146101c15780634476d23b146101d6578063570ca735146101f85780635dc60def1461020d578063627f09c3146102225780636792ce6e146102425780636b0570d0146102625780636c70bee91461027757806370327ea11461028c5780637a770bef146102a1578063892860b2146102c157806396214735146102e1578063b3ab15fb14610301578063d5f3948814610321578063e8ae41e314610336575b600080fd5b34801561011457600080fd5b50610128610123366004611a75565b61034b565b005b34801561013657600080fd5b50610128610145366004611a75565b6103f3565b34801561015657600080fd5b5061015f61048b565b60405161016c919061212b565b60405180910390f35b34801561018157600080fd5b5061012861049b565b34801561019657600080fd5b5061015f610501565b3480156101ab57600080fd5b506101b461050a565b60405161016c919061217c565b3480156101cd57600080fd5b506101b4610519565b3480156101e257600080fd5b506101eb610528565b60405161016c9190612087565b34801561020457600080fd5b506101eb61053c565b34801561021957600080fd5b5061012861054b565b34801561022e57600080fd5b5061012861023d366004611a75565b61059f565b34801561024e57600080fd5b5061012861025d366004611a75565b610637565b34801561026e57600080fd5b506101b46106cf565b34801561028357600080fd5b506101b46106de565b34801561029857600080fd5b506101286106ed565b3480156102ad57600080fd5b506101286102bc366004611a93565b610750565b3480156102cd57600080fd5b506101286102dc366004611a75565b610fbe565b3480156102ed57600080fd5b506101286102fc366004611a31565b61106d565b34801561030d57600080fd5b5061012861031c366004611a31565b611134565b34801561032d57600080fd5b506101eb6111de565b34801561034257600080fd5b506101b46111f2565b6000610355611201565b151561036057600080fd5b81600160a060020a038116151561037657600080fd5b6002548390600160a060020a0390811690821681146103ec5760028054600160a060020a03878116600160a060020a0319831617909255604051911694507f07998fa7be97abe2427246ae4688298c89d6196bbffdf0997b9495a8d27bc673906103e3908690889061218a565b60405180910390a15b5050505050565b60006103fd611201565b151561040857600080fd5b81600160a060020a038116151561041e57600080fd5b6004548390600160a060020a0390811690821681146103ec5760048054600160a060020a03878116600160a060020a0319831617909255604051911694507f1882af944a16549c3d4f60e3cd26f158b0c7aac3222cf32971fc21375ce05f60906103e3908690889061218a565b60065460a060020a900460ff1681565b336104a4610528565b600160a060020a0316146104b757600080fd5b60005460ff16156104c757600080fd5b7f787a5d936e74f4b564b9153575886059829c78cd9927b1be5e0d976b317ef736336040516104f69190612087565b60405180910390a133ff5b60005460ff1681565b600454600160a060020a031681565b600254600160a060020a031681565b6000546101009004600160a060020a031690565b600154600160a060020a031681565b610553611201565b151561055e57600080fd5b6006805460a060020a60ff02191660a060020a1790556040517f56ec8900b9c4bf84f4b715a53068ca06961dd49084c07b481931e2c2045346e690600090a1565b60006105a9611201565b15156105b457600080fd5b81600160a060020a03811615156105ca57600080fd5b6003548390600160a060020a0390811690821681146103ec5760038054600160a060020a03878116600160a060020a0319831617909255604051911694507f634f61bf00e14adedce330c80c2823e16e184f189ebe853e1ddecc4a268477ff906103e3908690889061218a565b6000610641611201565b151561064c57600080fd5b81600160a060020a038116151561066257600080fd5b6005548390600160a060020a0390811690821681146103ec5760058054600160a060020a03878116600160a060020a0319831617909255604051911694507fc9f3f00c1760fe26985aeacb814a21c56ea289d680562e89b249681b08c30382906103e3908690889061218a565b600554600160a060020a031681565b600354600160a060020a031681565b336106f6610528565b600160a060020a03161461070957600080fd5b6000805460ff191660011790556040517fd5a2a04a775c741c2ca0dc46ea7ce4835190e1aaf1ca018def0e82568ec3361690610746903390612087565b60405180910390a1565b6000806000600360009054906101000a9004600160a060020a0316600160a060020a031663f71e860f6040518163ffffffff1660e060020a028152600401602060405180830381600087803b1580156107a857600080fd5b505af11580156107bc573d6000803e3d6000fd5b505050506040513d601f19601f820116820180604052506107e09190810190611a57565b15156107eb57600080fd5b6004805460405160e160020a637211c8c70281528a92600160a060020a039092169163e423918e9161081f918591016121d6565b602060405180830381600087803b15801561083957600080fd5b505af115801561084d573d6000803e3d6000fd5b505050506040513d601f19601f820116820180604052506108719190810190611a57565b151561087c57600080fd5b6004805460405160e060020a63a865476b0281528a92600160a060020a039092169163a865476b916108b0918591016121a5565b602060405180830381600087803b1580156108ca57600080fd5b505af11580156108de573d6000803e3d6000fd5b505050506040513d601f19601f820116820180604052506109029190810190611a57565b151561090d57600080fd5b6004805460405160e160020a6303e149c3028152600160a060020a03909116916307c2938691610941918e918d91016121e7565b602060405180830381600087803b15801561095b57600080fd5b505af115801561096f573d6000803e3d6000fd5b505050506040513d601f19601f820116820180604052506109939190810190611a57565b151561099e57600080fd5b6004805460405160e160020a635f1132b7028152600160a060020a039091169163be22656e916109d2918d918d91016121b6565b602060405180830381600087803b1580156109ec57600080fd5b505af1158015610a00573d6000803e3d6000fd5b505050506040513d601f19601f82011682018060405250610a249190810190611a57565b1515610a2f57600080fd5b60408a01515151600160a060020a038881169116148015610a58575060408a0151516020015186145b80610a8d575060408a01516020015151600160a060020a038881169116148015610a8d57508960400151602001516020015186145b1515610a9857600080fd5b604089015151600160a060020a038881169116148015610abf575088604001516020015186145b1515610aca57600080fd5b896080015160200151600160a060020a031688600160a060020a031614610af2576001610af5565b60005b9450886060015160200151600160a060020a031688600160a060020a031614610b1f576001610b22565b60005b6004805460405160e060020a63acf9ef69028152929650600160a060020a03169163acf9ef6991610b5b918e918a918f918b9101612278565b602060405180830381600087803b158015610b7557600080fd5b505af1158015610b89573d6000803e3d6000fd5b505050506040513d601f19601f82011682018060405250610bad9190810190611a57565b1515610bb857600080fd5b60408a01515151600160a060020a038881169116148015610be1575060408a0151516020015186145b610bec576001610bef565b60005b9250600460009054906101000a9004600160a060020a0316600160a060020a031663e3a1fdcb8b87868d896040518663ffffffff1660e060020a028152600401610c3d9594939291906121f8565b602060405180830381600087803b158015610c5757600080fd5b505af1158015610c6b573d6000803e3d6000fd5b505050506040513d601f19601f82011682018060405250610c8f9190810190611a57565b8015610d1e57506004805460405160e160020a6317192e6f028152600160a060020a0390911691632e325cde91610ccc918e918a918f9101612246565b602060405180830381600087803b158015610ce657600080fd5b505af1158015610cfa573d6000803e3d6000fd5b505050506040513d601f19601f82011682018060405250610d1e9190810190611a57565b15610d2857600080fd5b600360009054906101000a9004600160a060020a0316600160a060020a031663f8e6e8886040518163ffffffff1660e060020a028152600401600060405180830381600087803b158015610d7b57600080fd5b505af1158015610d8f573d6000803e3d6000fd5b505060025460c08c0151602001515160405160e060020a6388cb0a49028152600160a060020a0390921693506388cb0a499250610dce91600401612139565b600060405180830381600087803b158015610de857600080fd5b505af1158015610dfc573d6000803e3d6000fd5b50506005546003546040805160e060020a639699f3370281529051600160a060020a03938416955063760b82929450339390921691639699f337916004808201926020929091908290030181600087803b158015610e5957600080fd5b505af1158015610e6d573d6000803e3d6000fd5b505050506040513d601f19601f82011682018060405250610e919190810190611b35565b60006040518463ffffffff1660e060020a028152600401610eb493929190612103565b600060405180830381600087803b158015610ece57600080fd5b505af1158015610ee2573d6000803e3d6000fd5b5050600654600160a060020a031691506353d3b39390508933610f058d89611217565b6040808f01518051602090910151915160e060020a63ffffffff8816028152610f3495949392906004016120b7565b600060405180830381600087803b158015610f4e57600080fd5b505af1158015610f62573d6000803e3d6000fd5b50505060e08b01515160c08b015160200151516040517f33d663697ae2f1470a1e7efa92d0c2700f24bc6c102d455a22ae5cd2cb13033a9350610faa92919033908d90612147565b60405180910390a150505050505050505050565b6000610fc8611201565b1515610fd357600080fd5b81600160a060020a0381161515610fe957600080fd5b6006548390600160a060020a0390811690821681146103ec5760065460a060020a900460ff161561101957600080fd5b60068054600160a060020a03878116600160a060020a0319831617909255604051911694507fa44d361e26327b72a7ccbeae801b3c5cd7677ea4fa74168b289e273c46bfecfc906103e3908690889061218a565b6000611077611201565b151561108257600080fd5b81600160a060020a038116151561109857600080fd5b600160a060020a0381163014156110ae57600080fd5b600054600160a060020a03848116610100909204161461112f5760008054600160a060020a0385811661010090810261010060a860020a0319841617909355604051929091041692507f977e5fa58e458501775e0008d275006294c5249e3c08d1d0e3a9f3acad14f6e4906111269084908690612095565b60405180910390a15b505050565b600061113e61124d565b151561114957600080fd5b81600160a060020a038116151561115f57600080fd5b600160a060020a03811630141561117557600080fd5b600154600160a060020a0384811691161461112f5760018054600160a060020a03858116600160a060020a0319831617909255604051911692507f9f611b789425d0d5b90b920f1b2852907dd865c80074a30b1629aaa041d1812c906111269084908690612095565b6000546101009004600160a060020a031681565b600654600160a060020a031681565b6000546101009004600160a060020a0316331490565b600081600181111561122557fe5b156112395760808301516040015151611244565b606083015160400151515b90505b92915050565b600154600160a060020a0316331490565b60006112448235612309565b6000601f8201831361127b57600080fd5b813561128e611289826122df565b6122b9565b915081818352602084019350602081019050838560808402820111156112b357600080fd5b60005b838110156112e157816112c9888261143d565b845250602090920191608091909101906001016112b6565b5050505092915050565b60006112448251612315565b6000611244823561231a565b60006112448235612333565b6000611244823561233e565b60006040828403121561132d57600080fd5b61133760406122b9565b90506000611345848461125e565b8252506020611356848483016112f7565b60208301525092915050565b60006040828403121561137457600080fd5b61137e60406122b9565b9050600061134584846112f7565b60006060828403121561139e57600080fd5b6113a860406122b9565b905060006113b684846112f7565b82525060206113568484830161131b565b6000608082840312156113d957600080fd5b6113e360406122b9565b905060006113f1848461131b565b82525060406113568484830161131b565b60006080828403121561141457600080fd5b61141e60406122b9565b9050600061142c8484611362565b825250604061135684848301611362565b60006080828403121561144f57600080fd5b61145960406122b9565b9050600061146784846112f7565b82525060206113568484830161138c565b600060a0828403121561148a57600080fd5b61149460806122b9565b905060006114a284846112f7565b82525060206114b38484830161125e565b60208301525060406114c784828501611362565b60408301525060808201356001604060020a038111156114e657600080fd5b6114f284828501611762565b60608301525092915050565b600060a0828403121561151057600080fd5b61151a60806122b9565b9050600061152884846112f7565b82525060206115398484830161125e565b602083015250604061154d84828501611362565b60408301525060808201356001604060020a0381111561156c57600080fd5b6114f284828501611710565b6000610240828403121561158b57600080fd5b6115966101206122b9565b905060006115a484846112f7565b82525060206115b5848483016112f7565b60208301525060406115c98482850161131b565b60408301525060808201356001604060020a038111156115e857600080fd5b6115f4848285016114fe565b60608301525060a08201356001604060020a0381111561161357600080fd5b61161f84828501611478565b60808301525060c061163384828501611362565b60a083015250610100611648848285016119dd565b60c08301525061020061165d848285016112f7565b60e083015250610220611672848285016112f7565b6101008301525092915050565b60006080828403121561169157600080fd5b61169b60406122b9565b905060006116a984846112f7565b8252506020611356848483016000606082840312156116c757600080fd5b6116d160606122b9565b905060006116df84846112f7565b82525060206116f0848483016112f7565b602083015250604061170484828501611a25565b60408301525092915050565b60006080828403121561172257600080fd5b61172c60406122b9565b9050600061173a848461138c565b82525060608201356001604060020a0381111561175657600080fd5b6113568482850161126a565b60006020828403121561177457600080fd5b61177e60206122b9565b905081356001604060020a0381111561179657600080fd5b6117a28482850161126a565b82525092915050565b600060a082840312156117bd57600080fd5b6117c760606122b9565b905060006117d584846112f7565b82525060206117e684848301611362565b602083015250606061170484828501611362565b60006101c0828403121561180d57600080fd5b61181760e06122b9565b9050600061182584846112f7565b82525060206118368484830161125e565b602083015250604061184a848285016112f7565b604083015250606061185e8482850161130f565b6060830152506080611872848285016117ab565b60808301525061012061188784828501611402565b60a0830152506101a08201356001604060020a038111156118a757600080fd5b6118b384828501611710565b60c08301525092915050565b600061026082840312156118d257600080fd5b6118dd6101406122b9565b905060006118eb84846112f7565b82525060206118fc848483016112f7565b6020830152506040611910848285016113c7565b60408301525060c0611924848285016112f7565b60608301525060e08201356001604060020a0381111561194357600080fd5b61194f848285016117fa565b6080830152506101008201356001604060020a0381111561196f57600080fd5b61197b848285016117fa565b60a08301525061012061199084828501611402565b60c0830152506101a06119a58482850161167f565b60e0830152506102206119ba848285016112f7565b610100830152506102406119d0848285016112f7565b6101208301525092915050565b600061010082840312156119f057600080fd5b6119fa60406122b9565b90506000611a08848461167f565b82525060806113568484830161167f565b6000611244825161231a565b6000611244823561232d565b600060208284031215611a4357600080fd5b6000611a4f848461125e565b949350505050565b600060208284031215611a6957600080fd5b6000611a4f84846112eb565b600060208284031215611a8757600080fd5b6000611a4f8484611303565b600080600080600060a08688031215611aab57600080fd5b85356001604060020a03811115611ac157600080fd5b611acd888289016118bf565b95505060208601356001604060020a03811115611ae957600080fd5b611af588828901611578565b9450506040611b068882890161125e565b9350506060611b178882890161125e565b9250506080611b28888289016112f7565b9150509295509295909350565b600060208284031215611b4757600080fd5b6000611a4f8484611a19565b611b5c81612309565b82525050565b6000611b6d82612305565b808452602084019350611b7f836122ff565b60005b82811015611baf57611b95868351611c8d565b611b9e826122ff565b608096909601959150600101611b82565b5093949350505050565b611b5c81612315565b611b5c8161231a565b611b5c81612333565b611b5c8161234d565b611b5c81612358565b80516040830190611bf78482611b53565b506020820151611c0a6020850182611bc2565b50505050565b80516040830190611bf78482611bc2565b80516060830190611c328482611bc2565b506020820151611c0a6020850182611be6565b80516080830190611c568482611be6565b506020820151611c0a6040850182611be6565b80516080830190611c7a8482611c10565b506020820151611c0a6040850182611c10565b80516080830190611c9e8482611bc2565b506020820151611c0a6020850182611c21565b805160009060a0840190611cc58582611bc2565b506020830151611cd86020860182611b53565b506040830151611ceb6040860182611c10565b5060608301518482036080860152611d038282611ea7565b95945050505050565b805160009060a0840190611d208582611bc2565b506020830151611d336020860182611b53565b506040830151611d466040860182611c10565b5060608301518482036080860152611d038282611e7b565b8051600090610240840190611d738582611bc2565b506020830151611d866020860182611bc2565b506040830151611d996040860182611be6565b5060608301518482036080860152611db18282611d0c565b915050608083015184820360a0860152611dcb8282611cb1565b91505060a0830151611de060c0860182611c10565b5060c0830151611df4610100860182612059565b5060e0830151611e08610200860182611bc2565b50610100830151611e1d610220860182611bc2565b509392505050565b80516080830190611e368482611bc2565b506020820151611c0a602085018280516060830190611e558482611bc2565b506020820151611e686020850182611bc2565b506040820151611c0a604085018261207e565b80516000906080840190611e8f8582611c21565b5060208301518482036060860152611d038282611b62565b8051602080845260009190840190611d038282611b62565b805160a0830190611ed08482611bc2565b506020820151611ee36020850182611c10565b506040820151611c0a6060850182611c10565b80516000906101c0840190611f0b8582611bc2565b506020830151611f1e6020860182611b53565b506040830151611f316040860182611bc2565b506060830151611f446060860182611bd4565b506080830151611f576080860182611ebf565b5060a0830151611f6b610120860182611c69565b5060c08301518482036101a0860152611d038282611e7b565b8051600090610260840190611f998582611bc2565b506020830151611fac6020860182611bc2565b506040830151611fbf6040860182611c45565b506060830151611fd260c0860182611bc2565b50608083015184820360e0860152611fea8282611ef6565b91505060a08301518482036101008601526120058282611ef6565b91505060c083015161201b610120860182611c69565b5060e083015161202f6101a0860182611e25565b50610100830151612044610220860182611bc2565b50610120830151611e1d610240860182611bc2565b805161010083019061206b8482611e25565b506020820151611c0a6080850182611e25565b611b5c8161232d565b602081016112478284611b53565b604081016120a38285611b53565b6120b06020830184611b53565b9392505050565b60a081016120c58288611b53565b6120d26020830187611b53565b6120df6040830186611bc2565b6120ec6060830185611b53565b6120f96080830184611bc2565b9695505050505050565b606081016121118286611b53565b61211e6020830185611bc2565b611a4f6040830184611bdd565b602081016112478284611bb9565b602081016112478284611bc2565b608081016121558287611bc2565b6121626020830186611bc2565b61216f6040830185611b53565b611d036060830184611b53565b602081016112478284611bcb565b604081016121988285611bcb565b6120b06020830184611bcb565b602080825281016112448184611d5e565b604080825281016121c78185611d5e565b90506120b06020830184611b53565b602080825281016112448184611f84565b604080825281016121c78185611f84565b60a080825281016122098188611f84565b90506122186020830187611bd4565b6122256040830186611bd4565b81810360608301526122378185611d5e565b90506120f96080830184611bd4565b606080825281016122578186611f84565b90506122666020830185611bd4565b8181036040830152611d038184611d5e565b608080825281016122898187611f84565b90506122986020830186611bd4565b81810360408301526122aa8185611d5e565b9050611d036060830184611bd4565b6040518181016001604060020a03811182821017156122d757600080fd5b604052919050565b60006001604060020a038211156122f557600080fd5b5060209081020190565b60200190565b5190565b600160a060020a031690565b151590565b90565b60006002821061232957fe5b5090565b60ff1690565b600061124782612309565b60006002821061232957600080fd5b60006112478261231d565b60006112478261231a5600a265627a7a723058208113d62ebfa069383276fa43d377f9ccc6f7ac4f8e7832f9f276c831ae3ce8666c6578706572696d656e74616cf50037",
  "source": "/*\n * Hubii Nahmii\n *\n * Compliant with the Hubii Nahmii specification v0.12.\n *\n * Copyright (C) 2017-2018 Hubii AS\n */\n\npragma solidity ^0.4.25;\npragma experimental ABIEncoderV2;\n\nimport {Ownable} from \"./Ownable.sol\";\nimport {FraudChallengable} from \"./FraudChallengable.sol\";\nimport {Challenge} from \"./Challenge.sol\";\nimport {Validatable} from \"./Validatable.sol\";\nimport {SecurityBondable} from \"./SecurityBondable.sol\";\nimport {WalletLockable} from \"./WalletLockable.sol\";\nimport {NahmiiTypesLib} from \"./NahmiiTypesLib.sol\";\n\n/**\n * @title FraudChallengeByPaymentSucceedingTrade\n * @notice Where driips are challenged wrt fraud by mismatch in payment succeeding trade\n */\ncontract FraudChallengeByPaymentSucceedingTrade is Ownable, FraudChallengable, Challenge, Validatable,\nSecurityBondable, WalletLockable {\n    //\n    // Events\n    // -----------------------------------------------------------------------------------------------------------------\n    event ChallengeByPaymentSucceedingTradeEvent(bytes32 tradeHash,\n        bytes32 paymentHash, address challenger, address lockedWallet);\n\n    //\n    // Constructor\n    // -----------------------------------------------------------------------------------------------------------------\n    constructor(address deployer) Ownable(deployer) public {\n    }\n\n    //\n    // Functions\n    // -----------------------------------------------------------------------------------------------------------------\n    /// @notice Submit trade and subsequent payment candidates in continuous Fraud Challenge (FC)\n    /// to be tested for succession differences in balance and fees\n    /// @param trade Reference trade\n    /// @param payment Fraudulent payment candidate\n    /// @param wallet The address of the concerned wallet\n    /// @param currencyCt The address of the concerned currency contract (address(0) == ETH)\n    /// @param currencyId The ID of the concerned currency (0 for ETH and ERC20)\n    function challenge(\n        NahmiiTypesLib.Trade trade,\n        NahmiiTypesLib.Payment payment,\n        address wallet,\n        address currencyCt,\n        uint256 currencyId\n    )\n    public\n    onlyOperationalModeNormal\n    onlySealedTrade(trade)\n    onlySealedPayment(payment)\n    {\n        require(validator.isTradeParty(trade, wallet));\n        require(validator.isPaymentParty(payment, wallet));\n        require(\n            (currencyCt == trade.currencies.intended.ct && currencyId == trade.currencies.intended.id) ||\n            (currencyCt == trade.currencies.conjugate.ct && currencyId == trade.currencies.conjugate.id)\n        );\n        require(currencyCt == payment.currency.ct && currencyId == payment.currency.id);\n\n        NahmiiTypesLib.TradePartyRole tradePartyRole = (wallet == trade.buyer.wallet ? NahmiiTypesLib.TradePartyRole.Buyer : NahmiiTypesLib.TradePartyRole.Seller);\n        NahmiiTypesLib.PaymentPartyRole paymentPartyRole = (wallet == payment.sender.wallet ? NahmiiTypesLib.PaymentPartyRole.Sender : NahmiiTypesLib.PaymentPartyRole.Recipient);\n\n        require(validator.isSuccessiveTradePaymentPartyNonces(trade, tradePartyRole, payment, paymentPartyRole));\n\n        NahmiiTypesLib.CurrencyRole tradeCurrencyRole = (currencyCt == trade.currencies.intended.ct && currencyId == trade.currencies.intended.id ? NahmiiTypesLib.CurrencyRole.Intended : NahmiiTypesLib.CurrencyRole.Conjugate);\n\n        // Require existence of fraud signal\n        require(!(\n            (validator.isGenuineSuccessiveTradePaymentBalances(trade, tradePartyRole, tradeCurrencyRole, payment, paymentPartyRole)) &&\n            (validator.isGenuineSuccessiveTradePaymentTotalFees(trade, tradePartyRole, payment))\n        ));\n\n        // Toggle operational mode exit\n        configuration.setOperationalModeExit();\n\n        // Tag payment (hash) as fraudulent\n        fraudChallenge.addFraudulentPaymentHash(payment.seals.operator.hash);\n\n        // Reward stake fraction\n        securityBond.rewardFractional(msg.sender, configuration.fraudStakeFraction(), 0);\n\n        // Lock amount of size equivalent to payment amount\n        walletLocker.lockFungibleByProxy(\n            wallet, msg.sender,\n            _paymentLockAmount(payment, paymentPartyRole),\n            payment.currency.ct, payment.currency.id\n        );\n\n        // Emit event\n        emit ChallengeByPaymentSucceedingTradeEvent(\n            trade.seal.hash, payment.seals.operator.hash, msg.sender, wallet\n        );\n    }\n\n    //\n    // Private functions\n    // -----------------------------------------------------------------------------------------------------------------\n    function _paymentLockAmount(NahmiiTypesLib.Payment payment, NahmiiTypesLib.PaymentPartyRole paymentPartyRole)\n    private\n    pure\n    returns (int256)\n    {\n        return NahmiiTypesLib.PaymentPartyRole.Sender == paymentPartyRole ?\n        payment.sender.balances.current :\n        payment.recipient.balances.current;\n    }\n\n}",
  "sourcePath": "/opt/buildagent/work/855e104608380c36/contracts/FraudChallengeByPaymentSucceedingTrade.sol",
  "compiler": {
    "name": "solc",
    "version": "0.4.25+commit.59dbf8f1.Emscripten.clang"
  },
  "schemaVersion": "2.0.1",
  "updatedAt": "2019-01-31T11:28:29.612Z"
}