{
  "contractName": "FraudChallengeByOrder",
  "abi": [
    {
      "constant": false,
      "inputs": [
        {
          "name": "newFraudChallenge",
          "type": "address"
        }
      ],
      "name": "setFraudChallenge",
      "outputs": [],
      "payable": false,
      "stateMutability": "nonpayable",
      "type": "function"
    },
    {
      "constant": false,
      "inputs": [
        {
          "name": "newValidator",
          "type": "address"
        }
      ],
      "name": "setValidator",
      "outputs": [],
      "payable": false,
      "stateMutability": "nonpayable",
      "type": "function"
    },
    {
      "constant": false,
      "inputs": [],
      "name": "triggerSelfDestruction",
      "outputs": [],
      "payable": false,
      "stateMutability": "nonpayable",
      "type": "function"
    },
    {
      "constant": true,
      "inputs": [],
      "name": "selfDestructionDisabled",
      "outputs": [
        {
          "name": "",
          "type": "bool"
        }
      ],
      "payable": false,
      "stateMutability": "view",
      "type": "function"
    },
    {
      "constant": true,
      "inputs": [],
      "name": "validator",
      "outputs": [
        {
          "name": "",
          "type": "address"
        }
      ],
      "payable": false,
      "stateMutability": "view",
      "type": "function"
    },
    {
      "constant": true,
      "inputs": [],
      "name": "fraudChallenge",
      "outputs": [
        {
          "name": "",
          "type": "address"
        }
      ],
      "payable": false,
      "stateMutability": "view",
      "type": "function"
    },
    {
      "constant": true,
      "inputs": [],
      "name": "destructor",
      "outputs": [
        {
          "name": "",
          "type": "address"
        }
      ],
      "payable": false,
      "stateMutability": "view",
      "type": "function"
    },
    {
      "constant": true,
      "inputs": [],
      "name": "operator",
      "outputs": [
        {
          "name": "",
          "type": "address"
        }
      ],
      "payable": false,
      "stateMutability": "view",
      "type": "function"
    },
    {
      "constant": false,
      "inputs": [
        {
          "name": "newConfiguration",
          "type": "address"
        }
      ],
      "name": "setConfiguration",
      "outputs": [],
      "payable": false,
      "stateMutability": "nonpayable",
      "type": "function"
    },
    {
      "constant": false,
      "inputs": [
        {
          "name": "newSecurityBond",
          "type": "address"
        }
      ],
      "name": "setSecurityBond",
      "outputs": [],
      "payable": false,
      "stateMutability": "nonpayable",
      "type": "function"
    },
    {
      "constant": true,
      "inputs": [],
      "name": "securityBond",
      "outputs": [
        {
          "name": "",
          "type": "address"
        }
      ],
      "payable": false,
      "stateMutability": "view",
      "type": "function"
    },
    {
      "constant": true,
      "inputs": [],
      "name": "configuration",
      "outputs": [
        {
          "name": "",
          "type": "address"
        }
      ],
      "payable": false,
      "stateMutability": "view",
      "type": "function"
    },
    {
      "constant": false,
      "inputs": [],
      "name": "disableSelfDestruction",
      "outputs": [],
      "payable": false,
      "stateMutability": "nonpayable",
      "type": "function"
    },
    {
      "constant": false,
      "inputs": [
        {
          "name": "newDeployer",
          "type": "address"
        }
      ],
      "name": "setDeployer",
      "outputs": [],
      "payable": false,
      "stateMutability": "nonpayable",
      "type": "function"
    },
    {
      "constant": false,
      "inputs": [
        {
          "name": "newOperator",
          "type": "address"
        }
      ],
      "name": "setOperator",
      "outputs": [],
      "payable": false,
      "stateMutability": "nonpayable",
      "type": "function"
    },
    {
      "constant": true,
      "inputs": [],
      "name": "deployer",
      "outputs": [
        {
          "name": "",
          "type": "address"
        }
      ],
      "payable": false,
      "stateMutability": "view",
      "type": "function"
    },
    {
      "inputs": [
        {
          "name": "deployer",
          "type": "address"
        }
      ],
      "payable": false,
      "stateMutability": "nonpayable",
      "type": "constructor"
    },
    {
      "anonymous": false,
      "inputs": [
        {
          "indexed": false,
          "name": "orderHash",
          "type": "bytes32"
        },
        {
          "indexed": false,
          "name": "challenger",
          "type": "address"
        }
      ],
      "name": "ChallengeByOrderEvent",
      "type": "event"
    },
    {
      "anonymous": false,
      "inputs": [
        {
          "indexed": false,
          "name": "oldSecurityBond",
          "type": "address"
        },
        {
          "indexed": false,
          "name": "newSecurityBond",
          "type": "address"
        }
      ],
      "name": "SetSecurityBondEvent",
      "type": "event"
    },
    {
      "anonymous": false,
      "inputs": [
        {
          "indexed": false,
          "name": "oldValidator",
          "type": "address"
        },
        {
          "indexed": false,
          "name": "newValidator",
          "type": "address"
        }
      ],
      "name": "SetValidatorEvent",
      "type": "event"
    },
    {
      "anonymous": false,
      "inputs": [
        {
          "indexed": false,
          "name": "oldConfiguration",
          "type": "address"
        },
        {
          "indexed": false,
          "name": "newConfiguration",
          "type": "address"
        }
      ],
      "name": "SetConfigurationEvent",
      "type": "event"
    },
    {
      "anonymous": false,
      "inputs": [
        {
          "indexed": false,
          "name": "oldFraudChallenge",
          "type": "address"
        },
        {
          "indexed": false,
          "name": "newFraudChallenge",
          "type": "address"
        }
      ],
      "name": "SetFraudChallengeEvent",
      "type": "event"
    },
    {
      "anonymous": false,
      "inputs": [
        {
          "indexed": false,
          "name": "oldDeployer",
          "type": "address"
        },
        {
          "indexed": false,
          "name": "newDeployer",
          "type": "address"
        }
      ],
      "name": "SetDeployerEvent",
      "type": "event"
    },
    {
      "anonymous": false,
      "inputs": [
        {
          "indexed": false,
          "name": "oldOperator",
          "type": "address"
        },
        {
          "indexed": false,
          "name": "newOperator",
          "type": "address"
        }
      ],
      "name": "SetOperatorEvent",
      "type": "event"
    },
    {
      "anonymous": false,
      "inputs": [
        {
          "indexed": false,
          "name": "wallet",
          "type": "address"
        }
      ],
      "name": "SelfDestructionDisabledEvent",
      "type": "event"
    },
    {
      "anonymous": false,
      "inputs": [
        {
          "indexed": false,
          "name": "wallet",
          "type": "address"
        }
      ],
      "name": "TriggerSelfDestructionEvent",
      "type": "event"
    },
    {
      "constant": false,
      "inputs": [
        {
          "components": [
            {
              "name": "nonce",
              "type": "uint256"
            },
            {
              "name": "wallet",
              "type": "address"
            },
            {
              "components": [
                {
                  "name": "intention",
                  "type": "uint8"
                },
                {
                  "name": "amount",
                  "type": "int256"
                },
                {
                  "components": [
                    {
                      "components": [
                        {
                          "name": "ct",
                          "type": "address"
                        },
                        {
                          "name": "id",
                          "type": "uint256"
                        }
                      ],
                      "name": "intended",
                      "type": "tuple"
                    },
                    {
                      "components": [
                        {
                          "name": "ct",
                          "type": "address"
                        },
                        {
                          "name": "id",
                          "type": "uint256"
                        }
                      ],
                      "name": "conjugate",
                      "type": "tuple"
                    }
                  ],
                  "name": "currencies",
                  "type": "tuple"
                },
                {
                  "name": "rate",
                  "type": "int256"
                },
                {
                  "components": [
                    {
                      "name": "current",
                      "type": "int256"
                    },
                    {
                      "name": "previous",
                      "type": "int256"
                    }
                  ],
                  "name": "residuals",
                  "type": "tuple"
                }
              ],
              "name": "placement",
              "type": "tuple"
            },
            {
              "components": [
                {
                  "components": [
                    {
                      "name": "hash",
                      "type": "bytes32"
                    },
                    {
                      "components": [
                        {
                          "name": "r",
                          "type": "bytes32"
                        },
                        {
                          "name": "s",
                          "type": "bytes32"
                        },
                        {
                          "name": "v",
                          "type": "uint8"
                        }
                      ],
                      "name": "signature",
                      "type": "tuple"
                    }
                  ],
                  "name": "wallet",
                  "type": "tuple"
                },
                {
                  "components": [
                    {
                      "name": "hash",
                      "type": "bytes32"
                    },
                    {
                      "components": [
                        {
                          "name": "r",
                          "type": "bytes32"
                        },
                        {
                          "name": "s",
                          "type": "bytes32"
                        },
                        {
                          "name": "v",
                          "type": "uint8"
                        }
                      ],
                      "name": "signature",
                      "type": "tuple"
                    }
                  ],
                  "name": "operator",
                  "type": "tuple"
                }
              ],
              "name": "seals",
              "type": "tuple"
            },
            {
              "name": "blockNumber",
              "type": "uint256"
            },
            {
              "name": "operatorId",
              "type": "uint256"
            }
          ],
          "name": "order",
          "type": "tuple"
        }
      ],
      "name": "challenge",
      "outputs": [],
      "payable": false,
      "stateMutability": "nonpayable",
      "type": "function"
    }
  ],
  "bytecode": "0x608060405234801561001057600080fd5b50604051602080611465833981018060405261002f91908101906100ad565b8080600160a060020a038116151561004657600080fd5b600160a060020a03811630141561005c57600080fd5b506000805461010060a860020a031916610100600160a060020a039390931692830217905560018054600160a060020a0319169091179055506100df565b60006100a682516100d3565b9392505050565b6000602082840312156100bf57600080fd5b60006100cb848461009a565b949350505050565b600160a060020a031690565b611377806100ee6000396000f3006080604052600436106100d75763ffffffff60e060020a60003504166301370d0681146100dc5780631327d3d8146100fe5780632738a1121461011e5780632f013a00146101335780633a5381b51461015e5780633bd7857f146101805780634476d23b14610195578063570ca735146101b7578063627f09c3146101cc5780636792ce6e146101ec5780636b0570d01461020c5780636c70bee91461022157806370327ea114610236578063904e1feb1461024b578063962147351461026b578063b3ab15fb1461028b578063d5f39488146102ab575b600080fd5b3480156100e857600080fd5b506100fc6100f7366004610f8f565b6102c0565b005b34801561010a57600080fd5b506100fc610119366004610f8f565b610368565b34801561012a57600080fd5b506100fc610400565b34801561013f57600080fd5b50610148610466565b6040516101559190611233565b60405180910390f35b34801561016a57600080fd5b5061017361046f565b6040516101559190611285565b34801561018c57600080fd5b5061017361047e565b3480156101a157600080fd5b506101aa61048d565b60405161015591906111dc565b3480156101c357600080fd5b506101aa6104a1565b3480156101d857600080fd5b506100fc6101e7366004610f8f565b6104b0565b3480156101f857600080fd5b506100fc610207366004610f8f565b610548565b34801561021857600080fd5b506101736105e0565b34801561022d57600080fd5b506101736105ef565b34801561024257600080fd5b506100fc6105fe565b34801561025757600080fd5b506100fc610266366004610fad565b610661565b34801561027757600080fd5b506100fc610286366004610f4b565b610ab5565b34801561029757600080fd5b506100fc6102a6366004610f4b565b610b73565b3480156102b757600080fd5b506101aa610c1d565b60006102ca610c31565b15156102d557600080fd5b81600160a060020a03811615156102eb57600080fd5b6002548390600160a060020a0390811690821681146103615760028054600160a060020a03878116600160a060020a0319831617909255604051911694507f07998fa7be97abe2427246ae4688298c89d6196bbffdf0997b9495a8d27bc673906103589086908890611293565b60405180910390a15b5050505050565b6000610372610c31565b151561037d57600080fd5b81600160a060020a038116151561039357600080fd5b6004548390600160a060020a0390811690821681146103615760048054600160a060020a03878116600160a060020a0319831617909255604051911694507f1882af944a16549c3d4f60e3cd26f158b0c7aac3222cf32971fc21375ce05f60906103589086908890611293565b3361040961048d565b600160a060020a03161461041c57600080fd5b60005460ff161561042c57600080fd5b7f787a5d936e74f4b564b9153575886059829c78cd9927b1be5e0d976b317ef7363360405161045b91906111dc565b60405180910390a133ff5b60005460ff1681565b600454600160a060020a031681565b600254600160a060020a031681565b6000546101009004600160a060020a031690565b600154600160a060020a031681565b60006104ba610c31565b15156104c557600080fd5b81600160a060020a03811615156104db57600080fd5b6003548390600160a060020a0390811690821681146103615760038054600160a060020a03878116600160a060020a0319831617909255604051911694507f634f61bf00e14adedce330c80c2823e16e184f189ebe853e1ddecc4a268477ff906103589086908890611293565b6000610552610c31565b151561055d57600080fd5b81600160a060020a038116151561057357600080fd5b6005548390600160a060020a0390811690821681146103615760058054600160a060020a03878116600160a060020a0319831617909255604051911694507fc9f3f00c1760fe26985aeacb814a21c56ea289d680562e89b249681b08c30382906103589086908890611293565b600554600160a060020a031681565b600354600160a060020a031681565b3361060761048d565b600160a060020a03161461061a57600080fd5b6000805460ff191660011790556040517fd5a2a04a775c741c2ca0dc46ea7ce4835190e1aaf1ca018def0e82568ec33616906106579033906111dc565b60405180910390a1565b6003546040805160e060020a63f71e860f0281529051600092600160a060020a03169163f71e860f91600480830192602092919082900301818787803b1580156106aa57600080fd5b505af11580156106be573d6000803e3d6000fd5b505050506040513d601f19601f820116820180604052506106e29190810190610f71565b15156106ed57600080fd5b6004805460405160e360020a63035ff7110281528492600160a060020a0390921691631affb88891610721918591016112ae565b602060405180830381600087803b15801561073b57600080fd5b505af115801561074f573d6000803e3d6000fd5b505050506040513d601f19601f820116820180604052506107739190810190610f71565b151561077e57600080fd5b6004805460405160e560020a6301206cd5028152600160a060020a039091169163240d9aa0916107b0918791016112ae565b602060405180830381600087803b1580156107ca57600080fd5b505af11580156107de573d6000803e3d6000fd5b505050506040513d601f19601f820116820180604052506108029190810190610f71565b151561080d57600080fd5b6004805460608501515180516020918201519187015160405160e060020a63041b6fa3028152600160a060020a039094169463041b6fa3946108519492910161125d565b602060405180830381600087803b15801561086b57600080fd5b505af115801561087f573d6000803e3d6000fd5b505050506040513d601f19601f820116820180604052506108a39190810190610f71565b915081156108b057600080fd5b600360009054906101000a9004600160a060020a0316600160a060020a031663f8e6e8886040518163ffffffff1660e060020a028152600401600060405180830381600087803b15801561090357600080fd5b505af1158015610917573d6000803e3d6000fd5b50506002546060860151602001515160405160e060020a63536739e1028152600160a060020a03909216935063536739e1925061095691600401611241565b600060405180830381600087803b15801561097057600080fd5b505af1158015610984573d6000803e3d6000fd5b50506005546003546040805160e060020a639699f3370281529051600160a060020a03938416955063760b82929450339390921691639699f337916004808201926020929091908290030181600087803b1580156109e157600080fd5b505af11580156109f5573d6000803e3d6000fd5b505050506040513d601f19601f82011682018060405250610a199190810190610fcc565b60006040518463ffffffff1660e060020a028152600401610a3c9392919061120b565b600060405180830381600087803b158015610a5657600080fd5b505af1158015610a6a573d6000803e3d6000fd5b50505050606083015160200151516040517f79f1f71f09e1cba5e1f5a430fa0ff2ccef4fc9bc154deae7ba4d3559c50e570791610aa891339061124f565b60405180910390a1505050565b6000610abf610c31565b1515610aca57600080fd5b81600160a060020a0381161515610ae057600080fd5b600160a060020a038116301415610af657600080fd5b600054600160a060020a038481166101009092041614610b6e5760008054600160a060020a0385811661010090810261010060a860020a0319841617909355604051929091041692507f977e5fa58e458501775e0008d275006294c5249e3c08d1d0e3a9f3acad14f6e490610aa890849086906111f0565b505050565b6000610b7d610c47565b1515610b8857600080fd5b81600160a060020a0381161515610b9e57600080fd5b600160a060020a038116301415610bb457600080fd5b600154600160a060020a03848116911614610b6e5760018054600160a060020a03858116600160a060020a0319831617909255604051911692507f9f611b789425d0d5b90b920f1b2852907dd865c80074a30b1629aaa041d1812c90610aa890849086906111f0565b6000546101009004600160a060020a031681565b6000546101009004600160a060020a0316331490565b600154600160a060020a0316331490565b6000610c6482356112e3565b9392505050565b6000610c6482516112ef565b6000610c6482356112f4565b6000610c64823561130d565b6000610c648235611318565b600060408284031215610cad57600080fd5b610cb760406112bd565b90506000610cc58484610c58565b8252506020610cd684848301610c77565b60208301525092915050565b600060408284031215610cf457600080fd5b610cfe60406112bd565b90506000610cc58484610c77565b600060808284031215610d1e57600080fd5b610d2860406112bd565b90506000610d368484610c9b565b8252506040610cd684848301610c9b565b60006101208284031215610d5a57600080fd5b610d6460a06112bd565b90506000610d728484610c8f565b8252506020610d8384848301610c77565b6020830152506040610d9784828501610d0c565b60408301525060c0610dab84828501610c77565b60608301525060e0610dbf84828501610ce2565b60808301525092915050565b60006102a08284031215610dde57600080fd5b610de860c06112bd565b90506000610df68484610c77565b8252506020610e0784848301610c58565b6020830152506040610e1b84828501610d47565b604083015250610160610e3084828501610ef7565b606083015250610260610e4584828501610c77565b608083015250610280610e5a84828501610c77565b60a08301525092915050565b600060808284031215610e7857600080fd5b610e8260406112bd565b90506000610e908484610c77565b8252506020610cd684848301600060608284031215610eae57600080fd5b610eb860606112bd565b90506000610ec68484610c77565b8252506020610ed784848301610c77565b6020830152506040610eeb84828501610f3f565b60408301525092915050565b60006101008284031215610f0a57600080fd5b610f1460406112bd565b90506000610f228484610e66565b8252506080610cd684848301610e66565b6000610c6482516112f4565b6000610c648235611307565b600060208284031215610f5d57600080fd5b6000610f698484610c58565b949350505050565b600060208284031215610f8357600080fd5b6000610f698484610c6b565b600060208284031215610fa157600080fd5b6000610f698484610c83565b60006102a08284031215610fc057600080fd5b6000610f698484610dcb565b600060208284031215610fde57600080fd5b6000610f698484610f33565b610ff3816112e3565b82525050565b610ff3816112ef565b610ff3816112f4565b610ff38161130d565b610ff381611327565b610ff381611332565b805160408301906110378482610fea565b50602082015161104a6020850182611002565b50505050565b805160408301906110378482611002565b805160808301906110728482611026565b50602082015161104a6040850182611026565b80516101208301906110978482611014565b5060208201516110aa6020850182611002565b5060408201516110bd6040850182611061565b5060608201516110d060c0850182611002565b50608082015161104a60e0850182611050565b80516102a08301906110f58482611002565b5060208201516111086020850182610fea565b50604082015161111b6040850182611085565b50606082015161112f6101608501826111ae565b506080820151611143610260850182611002565b5060a082015161104a610280850182611002565b805160808301906111688482611002565b50602082015161104a60208501825b805160608301906111888482611002565b50602082015161119b6020850182611002565b50604082015161104a60408501826111d3565b80516101008301906111c08482611157565b50602082015161104a6080850182611157565b610ff381611307565b602081016111ea8284610fea565b92915050565b604081016111fe8285610fea565b610c646020830184610fea565b606081016112198286610fea565b6112266020830185611002565b610f69604083018461101d565b602081016111ea8284610ff9565b602081016111ea8284611002565b604081016111fe8285611002565b60a0810161126b8286611002565b6112786020830185611177565b610f696080830184610fea565b602081016111ea828461100b565b604081016112a1828561100b565b610c64602083018461100b565b6102a081016111ea82846110e3565b6040518181016001604060020a03811182821017156112db57600080fd5b604052919050565b600160a060020a031690565b151590565b90565b60006002821061130357fe5b5090565b60ff1690565b60006111ea826112e3565b60006002821061130357600080fd5b60006111ea826112f7565b60006111ea826112f45600a265627a7a72305820203276acba034c56d59352c187de89b1a28e5f92f7c5c2b23331302efe8507ad6c6578706572696d656e74616cf50037",
  "source": "/*\n * Hubii Nahmii\n *\n * Compliant with the Hubii Nahmii specification v0.12.\n *\n * Copyright (C) 2017-2018 Hubii AS\n */\n\npragma solidity ^0.4.25;\npragma experimental ABIEncoderV2;\n\nimport {Ownable} from \"./Ownable.sol\";\nimport {FraudChallengable} from \"./FraudChallengable.sol\";\nimport {Challenge} from \"./Challenge.sol\";\nimport {Validatable} from \"./Validatable.sol\";\nimport {SecurityBondable} from \"./SecurityBondable.sol\";\nimport {NahmiiTypesLib} from \"./NahmiiTypesLib.sol\";\n\n/**\n * @title FraudChallengeByOrder\n * @notice Where order is challenged wrt signature error\n */\ncontract FraudChallengeByOrder is Ownable, FraudChallengable, Challenge, Validatable,\nSecurityBondable {\n    //\n    // Events\n    // -----------------------------------------------------------------------------------------------------------------\n    event ChallengeByOrderEvent(bytes32 orderHash, address challenger);\n\n    //\n    // Constructor\n    // -----------------------------------------------------------------------------------------------------------------\n    constructor(address deployer) Ownable(deployer) public {\n    }\n\n    //\n    // Functions\n    // -----------------------------------------------------------------------------------------------------------------\n    /// @notice Submit an order candidate in continuous Fraud Challenge (FC)\n    /// @param order Fraudulent order candidate\n    function challenge(NahmiiTypesLib.Order order)\n    public\n    onlyOperationalModeNormal\n    onlyOperatorSealedOrder(order)\n    {\n        require(validator.isGenuineOrderWalletHash(order));\n\n        // Genuineness affected by wallet not having signed the payment\n        bool genuineWalletSignature = validator.isGenuineWalletSignature(\n            order.seals.wallet.hash, order.seals.wallet.signature, order.wallet\n        );\n\n        // Require existence of fraud signal\n        require(!genuineWalletSignature);\n\n        // Toggle operational mode exit\n        configuration.setOperationalModeExit();\n\n        // Tag order (hash) as fraudulent\n        fraudChallenge.addFraudulentOrderHash(order.seals.operator.hash);\n\n        // Reward stake fraction\n        securityBond.rewardFractional(msg.sender, configuration.fraudStakeFraction(), 0);\n\n        // TODO Consider balance reward when balance of spending currency has been added to order\n\n        // Emit event\n        emit ChallengeByOrderEvent(order.seals.operator.hash, msg.sender);\n    }\n}",
  "sourcePath": "/opt/buildagent/work/855e104608380c36/contracts/FraudChallengeByOrder.sol",
  "compiler": {
    "name": "solc",
    "version": "0.4.25+commit.59dbf8f1.Emscripten.clang"
  },
  "schemaVersion": "2.0.1",
  "updatedAt": "2019-01-31T11:28:29.579Z"
}