{
  "contractName": "Hasher",
  "abi": [
    {
      "constant": false,
      "inputs": [],
      "name": "triggerSelfDestruction",
      "outputs": [],
      "payable": false,
      "stateMutability": "nonpayable",
      "type": "function"
    },
    {
      "constant": true,
      "inputs": [],
      "name": "selfDestructionDisabled",
      "outputs": [
        {
          "name": "",
          "type": "bool"
        }
      ],
      "payable": false,
      "stateMutability": "view",
      "type": "function"
    },
    {
      "constant": true,
      "inputs": [],
      "name": "destructor",
      "outputs": [
        {
          "name": "",
          "type": "address"
        }
      ],
      "payable": false,
      "stateMutability": "view",
      "type": "function"
    },
    {
      "constant": true,
      "inputs": [],
      "name": "operator",
      "outputs": [
        {
          "name": "",
          "type": "address"
        }
      ],
      "payable": false,
      "stateMutability": "view",
      "type": "function"
    },
    {
      "constant": false,
      "inputs": [],
      "name": "disableSelfDestruction",
      "outputs": [],
      "payable": false,
      "stateMutability": "nonpayable",
      "type": "function"
    },
    {
      "constant": false,
      "inputs": [
        {
          "name": "newDeployer",
          "type": "address"
        }
      ],
      "name": "setDeployer",
      "outputs": [],
      "payable": false,
      "stateMutability": "nonpayable",
      "type": "function"
    },
    {
      "constant": false,
      "inputs": [
        {
          "name": "newOperator",
          "type": "address"
        }
      ],
      "name": "setOperator",
      "outputs": [],
      "payable": false,
      "stateMutability": "nonpayable",
      "type": "function"
    },
    {
      "constant": true,
      "inputs": [],
      "name": "deployer",
      "outputs": [
        {
          "name": "",
          "type": "address"
        }
      ],
      "payable": false,
      "stateMutability": "view",
      "type": "function"
    },
    {
      "inputs": [
        {
          "name": "deployer",
          "type": "address"
        }
      ],
      "payable": false,
      "stateMutability": "nonpayable",
      "type": "constructor"
    },
    {
      "anonymous": false,
      "inputs": [
        {
          "indexed": false,
          "name": "oldDeployer",
          "type": "address"
        },
        {
          "indexed": false,
          "name": "newDeployer",
          "type": "address"
        }
      ],
      "name": "SetDeployerEvent",
      "type": "event"
    },
    {
      "anonymous": false,
      "inputs": [
        {
          "indexed": false,
          "name": "oldOperator",
          "type": "address"
        },
        {
          "indexed": false,
          "name": "newOperator",
          "type": "address"
        }
      ],
      "name": "SetOperatorEvent",
      "type": "event"
    },
    {
      "anonymous": false,
      "inputs": [
        {
          "indexed": false,
          "name": "wallet",
          "type": "address"
        }
      ],
      "name": "SelfDestructionDisabledEvent",
      "type": "event"
    },
    {
      "anonymous": false,
      "inputs": [
        {
          "indexed": false,
          "name": "wallet",
          "type": "address"
        }
      ],
      "name": "TriggerSelfDestructionEvent",
      "type": "event"
    },
    {
      "constant": true,
      "inputs": [
        {
          "components": [
            {
              "name": "nonce",
              "type": "uint256"
            },
            {
              "name": "wallet",
              "type": "address"
            },
            {
              "components": [
                {
                  "name": "intention",
                  "type": "uint8"
                },
                {
                  "name": "amount",
                  "type": "int256"
                },
                {
                  "components": [
                    {
                      "components": [
                        {
                          "name": "ct",
                          "type": "address"
                        },
                        {
                          "name": "id",
                          "type": "uint256"
                        }
                      ],
                      "name": "intended",
                      "type": "tuple"
                    },
                    {
                      "components": [
                        {
                          "name": "ct",
                          "type": "address"
                        },
                        {
                          "name": "id",
                          "type": "uint256"
                        }
                      ],
                      "name": "conjugate",
                      "type": "tuple"
                    }
                  ],
                  "name": "currencies",
                  "type": "tuple"
                },
                {
                  "name": "rate",
                  "type": "int256"
                },
                {
                  "components": [
                    {
                      "name": "current",
                      "type": "int256"
                    },
                    {
                      "name": "previous",
                      "type": "int256"
                    }
                  ],
                  "name": "residuals",
                  "type": "tuple"
                }
              ],
              "name": "placement",
              "type": "tuple"
            },
            {
              "components": [
                {
                  "components": [
                    {
                      "name": "hash",
                      "type": "bytes32"
                    },
                    {
                      "components": [
                        {
                          "name": "r",
                          "type": "bytes32"
                        },
                        {
                          "name": "s",
                          "type": "bytes32"
                        },
                        {
                          "name": "v",
                          "type": "uint8"
                        }
                      ],
                      "name": "signature",
                      "type": "tuple"
                    }
                  ],
                  "name": "wallet",
                  "type": "tuple"
                },
                {
                  "components": [
                    {
                      "name": "hash",
                      "type": "bytes32"
                    },
                    {
                      "components": [
                        {
                          "name": "r",
                          "type": "bytes32"
                        },
                        {
                          "name": "s",
                          "type": "bytes32"
                        },
                        {
                          "name": "v",
                          "type": "uint8"
                        }
                      ],
                      "name": "signature",
                      "type": "tuple"
                    }
                  ],
                  "name": "operator",
                  "type": "tuple"
                }
              ],
              "name": "seals",
              "type": "tuple"
            },
            {
              "name": "blockNumber",
              "type": "uint256"
            },
            {
              "name": "operatorId",
              "type": "uint256"
            }
          ],
          "name": "order",
          "type": "tuple"
        }
      ],
      "name": "hashOrderAsWallet",
      "outputs": [
        {
          "name": "",
          "type": "bytes32"
        }
      ],
      "payable": false,
      "stateMutability": "pure",
      "type": "function"
    },
    {
      "constant": true,
      "inputs": [
        {
          "components": [
            {
              "name": "nonce",
              "type": "uint256"
            },
            {
              "name": "wallet",
              "type": "address"
            },
            {
              "components": [
                {
                  "name": "intention",
                  "type": "uint8"
                },
                {
                  "name": "amount",
                  "type": "int256"
                },
                {
                  "components": [
                    {
                      "components": [
                        {
                          "name": "ct",
                          "type": "address"
                        },
                        {
                          "name": "id",
                          "type": "uint256"
                        }
                      ],
                      "name": "intended",
                      "type": "tuple"
                    },
                    {
                      "components": [
                        {
                          "name": "ct",
                          "type": "address"
                        },
                        {
                          "name": "id",
                          "type": "uint256"
                        }
                      ],
                      "name": "conjugate",
                      "type": "tuple"
                    }
                  ],
                  "name": "currencies",
                  "type": "tuple"
                },
                {
                  "name": "rate",
                  "type": "int256"
                },
                {
                  "components": [
                    {
                      "name": "current",
                      "type": "int256"
                    },
                    {
                      "name": "previous",
                      "type": "int256"
                    }
                  ],
                  "name": "residuals",
                  "type": "tuple"
                }
              ],
              "name": "placement",
              "type": "tuple"
            },
            {
              "components": [
                {
                  "components": [
                    {
                      "name": "hash",
                      "type": "bytes32"
                    },
                    {
                      "components": [
                        {
                          "name": "r",
                          "type": "bytes32"
                        },
                        {
                          "name": "s",
                          "type": "bytes32"
                        },
                        {
                          "name": "v",
                          "type": "uint8"
                        }
                      ],
                      "name": "signature",
                      "type": "tuple"
                    }
                  ],
                  "name": "wallet",
                  "type": "tuple"
                },
                {
                  "components": [
                    {
                      "name": "hash",
                      "type": "bytes32"
                    },
                    {
                      "components": [
                        {
                          "name": "r",
                          "type": "bytes32"
                        },
                        {
                          "name": "s",
                          "type": "bytes32"
                        },
                        {
                          "name": "v",
                          "type": "uint8"
                        }
                      ],
                      "name": "signature",
                      "type": "tuple"
                    }
                  ],
                  "name": "operator",
                  "type": "tuple"
                }
              ],
              "name": "seals",
              "type": "tuple"
            },
            {
              "name": "blockNumber",
              "type": "uint256"
            },
            {
              "name": "operatorId",
              "type": "uint256"
            }
          ],
          "name": "order",
          "type": "tuple"
        }
      ],
      "name": "hashOrderAsOperator",
      "outputs": [
        {
          "name": "",
          "type": "bytes32"
        }
      ],
      "payable": false,
      "stateMutability": "pure",
      "type": "function"
    },
    {
      "constant": true,
      "inputs": [
        {
          "components": [
            {
              "name": "nonce",
              "type": "uint256"
            },
            {
              "name": "amount",
              "type": "int256"
            },
            {
              "components": [
                {
                  "components": [
                    {
                      "name": "ct",
                      "type": "address"
                    },
                    {
                      "name": "id",
                      "type": "uint256"
                    }
                  ],
                  "name": "intended",
                  "type": "tuple"
                },
                {
                  "components": [
                    {
                      "name": "ct",
                      "type": "address"
                    },
                    {
                      "name": "id",
                      "type": "uint256"
                    }
                  ],
                  "name": "conjugate",
                  "type": "tuple"
                }
              ],
              "name": "currencies",
              "type": "tuple"
            },
            {
              "name": "rate",
              "type": "int256"
            },
            {
              "components": [
                {
                  "name": "nonce",
                  "type": "uint256"
                },
                {
                  "name": "wallet",
                  "type": "address"
                },
                {
                  "name": "rollingVolume",
                  "type": "uint256"
                },
                {
                  "name": "liquidityRole",
                  "type": "uint8"
                },
                {
                  "components": [
                    {
                      "name": "amount",
                      "type": "int256"
                    },
                    {
                      "components": [
                        {
                          "name": "wallet",
                          "type": "bytes32"
                        },
                        {
                          "name": "operator",
                          "type": "bytes32"
                        }
                      ],
                      "name": "hashes",
                      "type": "tuple"
                    },
                    {
                      "components": [
                        {
                          "name": "current",
                          "type": "int256"
                        },
                        {
                          "name": "previous",
                          "type": "int256"
                        }
                      ],
                      "name": "residuals",
                      "type": "tuple"
                    }
                  ],
                  "name": "order",
                  "type": "tuple"
                },
                {
                  "components": [
                    {
                      "components": [
                        {
                          "name": "current",
                          "type": "int256"
                        },
                        {
                          "name": "previous",
                          "type": "int256"
                        }
                      ],
                      "name": "intended",
                      "type": "tuple"
                    },
                    {
                      "components": [
                        {
                          "name": "current",
                          "type": "int256"
                        },
                        {
                          "name": "previous",
                          "type": "int256"
                        }
                      ],
                      "name": "conjugate",
                      "type": "tuple"
                    }
                  ],
                  "name": "balances",
                  "type": "tuple"
                },
                {
                  "components": [
                    {
                      "components": [
                        {
                          "name": "amount",
                          "type": "int256"
                        },
                        {
                          "components": [
                            {
                              "name": "ct",
                              "type": "address"
                            },
                            {
                              "name": "id",
                              "type": "uint256"
                            }
                          ],
                          "name": "currency",
                          "type": "tuple"
                        }
                      ],
                      "name": "single",
                      "type": "tuple"
                    },
                    {
                      "components": [
                        {
                          "name": "originId",
                          "type": "uint256"
                        },
                        {
                          "components": [
                            {
                              "name": "amount",
                              "type": "int256"
                            },
                            {
                              "components": [
                                {
                                  "name": "ct",
                                  "type": "address"
                                },
                                {
                                  "name": "id",
                                  "type": "uint256"
                                }
                              ],
                              "name": "currency",
                              "type": "tuple"
                            }
                          ],
                          "name": "figure",
                          "type": "tuple"
                        }
                      ],
                      "name": "total",
                      "type": "tuple[]"
                    }
                  ],
                  "name": "fees",
                  "type": "tuple"
                }
              ],
              "name": "buyer",
              "type": "tuple"
            },
            {
              "components": [
                {
                  "name": "nonce",
                  "type": "uint256"
                },
                {
                  "name": "wallet",
                  "type": "address"
                },
                {
                  "name": "rollingVolume",
                  "type": "uint256"
                },
                {
                  "name": "liquidityRole",
                  "type": "uint8"
                },
                {
                  "components": [
                    {
                      "name": "amount",
                      "type": "int256"
                    },
                    {
                      "components": [
                        {
                          "name": "wallet",
                          "type": "bytes32"
                        },
                        {
                          "name": "operator",
                          "type": "bytes32"
                        }
                      ],
                      "name": "hashes",
                      "type": "tuple"
                    },
                    {
                      "components": [
                        {
                          "name": "current",
                          "type": "int256"
                        },
                        {
                          "name": "previous",
                          "type": "int256"
                        }
                      ],
                      "name": "residuals",
                      "type": "tuple"
                    }
                  ],
                  "name": "order",
                  "type": "tuple"
                },
                {
                  "components": [
                    {
                      "components": [
                        {
                          "name": "current",
                          "type": "int256"
                        },
                        {
                          "name": "previous",
                          "type": "int256"
                        }
                      ],
                      "name": "intended",
                      "type": "tuple"
                    },
                    {
                      "components": [
                        {
                          "name": "current",
                          "type": "int256"
                        },
                        {
                          "name": "previous",
                          "type": "int256"
                        }
                      ],
                      "name": "conjugate",
                      "type": "tuple"
                    }
                  ],
                  "name": "balances",
                  "type": "tuple"
                },
                {
                  "components": [
                    {
                      "components": [
                        {
                          "name": "amount",
                          "type": "int256"
                        },
                        {
                          "components": [
                            {
                              "name": "ct",
                              "type": "address"
                            },
                            {
                              "name": "id",
                              "type": "uint256"
                            }
                          ],
                          "name": "currency",
                          "type": "tuple"
                        }
                      ],
                      "name": "single",
                      "type": "tuple"
                    },
                    {
                      "components": [
                        {
                          "name": "originId",
                          "type": "uint256"
                        },
                        {
                          "components": [
                            {
                              "name": "amount",
                              "type": "int256"
                            },
                            {
                              "components": [
                                {
                                  "name": "ct",
                                  "type": "address"
                                },
                                {
                                  "name": "id",
                                  "type": "uint256"
                                }
                              ],
                              "name": "currency",
                              "type": "tuple"
                            }
                          ],
                          "name": "figure",
                          "type": "tuple"
                        }
                      ],
                      "name": "total",
                      "type": "tuple[]"
                    }
                  ],
                  "name": "fees",
                  "type": "tuple"
                }
              ],
              "name": "seller",
              "type": "tuple"
            },
            {
              "components": [
                {
                  "components": [
                    {
                      "name": "single",
                      "type": "int256"
                    },
                    {
                      "name": "total",
                      "type": "int256"
                    }
                  ],
                  "name": "intended",
                  "type": "tuple"
                },
                {
                  "components": [
                    {
                      "name": "single",
                      "type": "int256"
                    },
                    {
                      "name": "total",
                      "type": "int256"
                    }
                  ],
                  "name": "conjugate",
                  "type": "tuple"
                }
              ],
              "name": "transfers",
              "type": "tuple"
            },
            {
              "components": [
                {
                  "name": "hash",
                  "type": "bytes32"
                },
                {
                  "components": [
                    {
                      "name": "r",
                      "type": "bytes32"
                    },
                    {
                      "name": "s",
                      "type": "bytes32"
                    },
                    {
                      "name": "v",
                      "type": "uint8"
                    }
                  ],
                  "name": "signature",
                  "type": "tuple"
                }
              ],
              "name": "seal",
              "type": "tuple"
            },
            {
              "name": "blockNumber",
              "type": "uint256"
            },
            {
              "name": "operatorId",
              "type": "uint256"
            }
          ],
          "name": "trade",
          "type": "tuple"
        }
      ],
      "name": "hashTrade",
      "outputs": [
        {
          "name": "",
          "type": "bytes32"
        }
      ],
      "payable": false,
      "stateMutability": "pure",
      "type": "function"
    },
    {
      "constant": true,
      "inputs": [
        {
          "components": [
            {
              "name": "nonce",
              "type": "uint256"
            },
            {
              "name": "amount",
              "type": "int256"
            },
            {
              "components": [
                {
                  "name": "ct",
                  "type": "address"
                },
                {
                  "name": "id",
                  "type": "uint256"
                }
              ],
              "name": "currency",
              "type": "tuple"
            },
            {
              "components": [
                {
                  "name": "nonce",
                  "type": "uint256"
                },
                {
                  "name": "wallet",
                  "type": "address"
                },
                {
                  "components": [
                    {
                      "name": "current",
                      "type": "int256"
                    },
                    {
                      "name": "previous",
                      "type": "int256"
                    }
                  ],
                  "name": "balances",
                  "type": "tuple"
                },
                {
                  "components": [
                    {
                      "components": [
                        {
                          "name": "amount",
                          "type": "int256"
                        },
                        {
                          "components": [
                            {
                              "name": "ct",
                              "type": "address"
                            },
                            {
                              "name": "id",
                              "type": "uint256"
                            }
                          ],
                          "name": "currency",
                          "type": "tuple"
                        }
                      ],
                      "name": "single",
                      "type": "tuple"
                    },
                    {
                      "components": [
                        {
                          "name": "originId",
                          "type": "uint256"
                        },
                        {
                          "components": [
                            {
                              "name": "amount",
                              "type": "int256"
                            },
                            {
                              "components": [
                                {
                                  "name": "ct",
                                  "type": "address"
                                },
                                {
                                  "name": "id",
                                  "type": "uint256"
                                }
                              ],
                              "name": "currency",
                              "type": "tuple"
                            }
                          ],
                          "name": "figure",
                          "type": "tuple"
                        }
                      ],
                      "name": "total",
                      "type": "tuple[]"
                    }
                  ],
                  "name": "fees",
                  "type": "tuple"
                }
              ],
              "name": "sender",
              "type": "tuple"
            },
            {
              "components": [
                {
                  "name": "nonce",
                  "type": "uint256"
                },
                {
                  "name": "wallet",
                  "type": "address"
                },
                {
                  "components": [
                    {
                      "name": "current",
                      "type": "int256"
                    },
                    {
                      "name": "previous",
                      "type": "int256"
                    }
                  ],
                  "name": "balances",
                  "type": "tuple"
                },
                {
                  "components": [
                    {
                      "components": [
                        {
                          "name": "originId",
                          "type": "uint256"
                        },
                        {
                          "components": [
                            {
                              "name": "amount",
                              "type": "int256"
                            },
                            {
                              "components": [
                                {
                                  "name": "ct",
                                  "type": "address"
                                },
                                {
                                  "name": "id",
                                  "type": "uint256"
                                }
                              ],
                              "name": "currency",
                              "type": "tuple"
                            }
                          ],
                          "name": "figure",
                          "type": "tuple"
                        }
                      ],
                      "name": "total",
                      "type": "tuple[]"
                    }
                  ],
                  "name": "fees",
                  "type": "tuple"
                }
              ],
              "name": "recipient",
              "type": "tuple"
            },
            {
              "components": [
                {
                  "name": "single",
                  "type": "int256"
                },
                {
                  "name": "total",
                  "type": "int256"
                }
              ],
              "name": "transfers",
              "type": "tuple"
            },
            {
              "components": [
                {
                  "components": [
                    {
                      "name": "hash",
                      "type": "bytes32"
                    },
                    {
                      "components": [
                        {
                          "name": "r",
                          "type": "bytes32"
                        },
                        {
                          "name": "s",
                          "type": "bytes32"
                        },
                        {
                          "name": "v",
                          "type": "uint8"
                        }
                      ],
                      "name": "signature",
                      "type": "tuple"
                    }
                  ],
                  "name": "wallet",
                  "type": "tuple"
                },
                {
                  "components": [
                    {
                      "name": "hash",
                      "type": "bytes32"
                    },
                    {
                      "components": [
                        {
                          "name": "r",
                          "type": "bytes32"
                        },
                        {
                          "name": "s",
                          "type": "bytes32"
                        },
                        {
                          "name": "v",
                          "type": "uint8"
                        }
                      ],
                      "name": "signature",
                      "type": "tuple"
                    }
                  ],
                  "name": "operator",
                  "type": "tuple"
                }
              ],
              "name": "seals",
              "type": "tuple"
            },
            {
              "name": "blockNumber",
              "type": "uint256"
            },
            {
              "name": "operatorId",
              "type": "uint256"
            }
          ],
          "name": "payment",
          "type": "tuple"
        }
      ],
      "name": "hashPaymentAsWallet",
      "outputs": [
        {
          "name": "",
          "type": "bytes32"
        }
      ],
      "payable": false,
      "stateMutability": "pure",
      "type": "function"
    },
    {
      "constant": true,
      "inputs": [
        {
          "components": [
            {
              "name": "nonce",
              "type": "uint256"
            },
            {
              "name": "amount",
              "type": "int256"
            },
            {
              "components": [
                {
                  "name": "ct",
                  "type": "address"
                },
                {
                  "name": "id",
                  "type": "uint256"
                }
              ],
              "name": "currency",
              "type": "tuple"
            },
            {
              "components": [
                {
                  "name": "nonce",
                  "type": "uint256"
                },
                {
                  "name": "wallet",
                  "type": "address"
                },
                {
                  "components": [
                    {
                      "name": "current",
                      "type": "int256"
                    },
                    {
                      "name": "previous",
                      "type": "int256"
                    }
                  ],
                  "name": "balances",
                  "type": "tuple"
                },
                {
                  "components": [
                    {
                      "components": [
                        {
                          "name": "amount",
                          "type": "int256"
                        },
                        {
                          "components": [
                            {
                              "name": "ct",
                              "type": "address"
                            },
                            {
                              "name": "id",
                              "type": "uint256"
                            }
                          ],
                          "name": "currency",
                          "type": "tuple"
                        }
                      ],
                      "name": "single",
                      "type": "tuple"
                    },
                    {
                      "components": [
                        {
                          "name": "originId",
                          "type": "uint256"
                        },
                        {
                          "components": [
                            {
                              "name": "amount",
                              "type": "int256"
                            },
                            {
                              "components": [
                                {
                                  "name": "ct",
                                  "type": "address"
                                },
                                {
                                  "name": "id",
                                  "type": "uint256"
                                }
                              ],
                              "name": "currency",
                              "type": "tuple"
                            }
                          ],
                          "name": "figure",
                          "type": "tuple"
                        }
                      ],
                      "name": "total",
                      "type": "tuple[]"
                    }
                  ],
                  "name": "fees",
                  "type": "tuple"
                }
              ],
              "name": "sender",
              "type": "tuple"
            },
            {
              "components": [
                {
                  "name": "nonce",
                  "type": "uint256"
                },
                {
                  "name": "wallet",
                  "type": "address"
                },
                {
                  "components": [
                    {
                      "name": "current",
                      "type": "int256"
                    },
                    {
                      "name": "previous",
                      "type": "int256"
                    }
                  ],
                  "name": "balances",
                  "type": "tuple"
                },
                {
                  "components": [
                    {
                      "components": [
                        {
                          "name": "originId",
                          "type": "uint256"
                        },
                        {
                          "components": [
                            {
                              "name": "amount",
                              "type": "int256"
                            },
                            {
                              "components": [
                                {
                                  "name": "ct",
                                  "type": "address"
                                },
                                {
                                  "name": "id",
                                  "type": "uint256"
                                }
                              ],
                              "name": "currency",
                              "type": "tuple"
                            }
                          ],
                          "name": "figure",
                          "type": "tuple"
                        }
                      ],
                      "name": "total",
                      "type": "tuple[]"
                    }
                  ],
                  "name": "fees",
                  "type": "tuple"
                }
              ],
              "name": "recipient",
              "type": "tuple"
            },
            {
              "components": [
                {
                  "name": "single",
                  "type": "int256"
                },
                {
                  "name": "total",
                  "type": "int256"
                }
              ],
              "name": "transfers",
              "type": "tuple"
            },
            {
              "components": [
                {
                  "components": [
                    {
                      "name": "hash",
                      "type": "bytes32"
                    },
                    {
                      "components": [
                        {
                          "name": "r",
                          "type": "bytes32"
                        },
                        {
                          "name": "s",
                          "type": "bytes32"
                        },
                        {
                          "name": "v",
                          "type": "uint8"
                        }
                      ],
                      "name": "signature",
                      "type": "tuple"
                    }
                  ],
                  "name": "wallet",
                  "type": "tuple"
                },
                {
                  "components": [
                    {
                      "name": "hash",
                      "type": "bytes32"
                    },
                    {
                      "components": [
                        {
                          "name": "r",
                          "type": "bytes32"
                        },
                        {
                          "name": "s",
                          "type": "bytes32"
                        },
                        {
                          "name": "v",
                          "type": "uint8"
                        }
                      ],
                      "name": "signature",
                      "type": "tuple"
                    }
                  ],
                  "name": "operator",
                  "type": "tuple"
                }
              ],
              "name": "seals",
              "type": "tuple"
            },
            {
              "name": "blockNumber",
              "type": "uint256"
            },
            {
              "name": "operatorId",
              "type": "uint256"
            }
          ],
          "name": "payment",
          "type": "tuple"
        }
      ],
      "name": "hashPaymentAsOperator",
      "outputs": [
        {
          "name": "",
          "type": "bytes32"
        }
      ],
      "payable": false,
      "stateMutability": "pure",
      "type": "function"
    },
    {
      "constant": true,
      "inputs": [
        {
          "components": [
            {
              "name": "intention",
              "type": "uint8"
            },
            {
              "name": "amount",
              "type": "int256"
            },
            {
              "components": [
                {
                  "components": [
                    {
                      "name": "ct",
                      "type": "address"
                    },
                    {
                      "name": "id",
                      "type": "uint256"
                    }
                  ],
                  "name": "intended",
                  "type": "tuple"
                },
                {
                  "components": [
                    {
                      "name": "ct",
                      "type": "address"
                    },
                    {
                      "name": "id",
                      "type": "uint256"
                    }
                  ],
                  "name": "conjugate",
                  "type": "tuple"
                }
              ],
              "name": "currencies",
              "type": "tuple"
            },
            {
              "name": "rate",
              "type": "int256"
            },
            {
              "components": [
                {
                  "name": "current",
                  "type": "int256"
                },
                {
                  "name": "previous",
                  "type": "int256"
                }
              ],
              "name": "residuals",
              "type": "tuple"
            }
          ],
          "name": "orderPlacement",
          "type": "tuple"
        }
      ],
      "name": "hashOrderPlacement",
      "outputs": [
        {
          "name": "",
          "type": "bytes32"
        }
      ],
      "payable": false,
      "stateMutability": "pure",
      "type": "function"
    },
    {
      "constant": true,
      "inputs": [
        {
          "components": [
            {
              "name": "nonce",
              "type": "uint256"
            },
            {
              "name": "amount",
              "type": "int256"
            },
            {
              "components": [
                {
                  "components": [
                    {
                      "name": "ct",
                      "type": "address"
                    },
                    {
                      "name": "id",
                      "type": "uint256"
                    }
                  ],
                  "name": "intended",
                  "type": "tuple"
                },
                {
                  "components": [
                    {
                      "name": "ct",
                      "type": "address"
                    },
                    {
                      "name": "id",
                      "type": "uint256"
                    }
                  ],
                  "name": "conjugate",
                  "type": "tuple"
                }
              ],
              "name": "currencies",
              "type": "tuple"
            },
            {
              "name": "rate",
              "type": "int256"
            },
            {
              "components": [
                {
                  "name": "nonce",
                  "type": "uint256"
                },
                {
                  "name": "wallet",
                  "type": "address"
                },
                {
                  "name": "rollingVolume",
                  "type": "uint256"
                },
                {
                  "name": "liquidityRole",
                  "type": "uint8"
                },
                {
                  "components": [
                    {
                      "name": "amount",
                      "type": "int256"
                    },
                    {
                      "components": [
                        {
                          "name": "wallet",
                          "type": "bytes32"
                        },
                        {
                          "name": "operator",
                          "type": "bytes32"
                        }
                      ],
                      "name": "hashes",
                      "type": "tuple"
                    },
                    {
                      "components": [
                        {
                          "name": "current",
                          "type": "int256"
                        },
                        {
                          "name": "previous",
                          "type": "int256"
                        }
                      ],
                      "name": "residuals",
                      "type": "tuple"
                    }
                  ],
                  "name": "order",
                  "type": "tuple"
                },
                {
                  "components": [
                    {
                      "components": [
                        {
                          "name": "current",
                          "type": "int256"
                        },
                        {
                          "name": "previous",
                          "type": "int256"
                        }
                      ],
                      "name": "intended",
                      "type": "tuple"
                    },
                    {
                      "components": [
                        {
                          "name": "current",
                          "type": "int256"
                        },
                        {
                          "name": "previous",
                          "type": "int256"
                        }
                      ],
                      "name": "conjugate",
                      "type": "tuple"
                    }
                  ],
                  "name": "balances",
                  "type": "tuple"
                },
                {
                  "components": [
                    {
                      "components": [
                        {
                          "name": "amount",
                          "type": "int256"
                        },
                        {
                          "components": [
                            {
                              "name": "ct",
                              "type": "address"
                            },
                            {
                              "name": "id",
                              "type": "uint256"
                            }
                          ],
                          "name": "currency",
                          "type": "tuple"
                        }
                      ],
                      "name": "single",
                      "type": "tuple"
                    },
                    {
                      "components": [
                        {
                          "name": "originId",
                          "type": "uint256"
                        },
                        {
                          "components": [
                            {
                              "name": "amount",
                              "type": "int256"
                            },
                            {
                              "components": [
                                {
                                  "name": "ct",
                                  "type": "address"
                                },
                                {
                                  "name": "id",
                                  "type": "uint256"
                                }
                              ],
                              "name": "currency",
                              "type": "tuple"
                            }
                          ],
                          "name": "figure",
                          "type": "tuple"
                        }
                      ],
                      "name": "total",
                      "type": "tuple[]"
                    }
                  ],
                  "name": "fees",
                  "type": "tuple"
                }
              ],
              "name": "buyer",
              "type": "tuple"
            },
            {
              "components": [
                {
                  "name": "nonce",
                  "type": "uint256"
                },
                {
                  "name": "wallet",
                  "type": "address"
                },
                {
                  "name": "rollingVolume",
                  "type": "uint256"
                },
                {
                  "name": "liquidityRole",
                  "type": "uint8"
                },
                {
                  "components": [
                    {
                      "name": "amount",
                      "type": "int256"
                    },
                    {
                      "components": [
                        {
                          "name": "wallet",
                          "type": "bytes32"
                        },
                        {
                          "name": "operator",
                          "type": "bytes32"
                        }
                      ],
                      "name": "hashes",
                      "type": "tuple"
                    },
                    {
                      "components": [
                        {
                          "name": "current",
                          "type": "int256"
                        },
                        {
                          "name": "previous",
                          "type": "int256"
                        }
                      ],
                      "name": "residuals",
                      "type": "tuple"
                    }
                  ],
                  "name": "order",
                  "type": "tuple"
                },
                {
                  "components": [
                    {
                      "components": [
                        {
                          "name": "current",
                          "type": "int256"
                        },
                        {
                          "name": "previous",
                          "type": "int256"
                        }
                      ],
                      "name": "intended",
                      "type": "tuple"
                    },
                    {
                      "components": [
                        {
                          "name": "current",
                          "type": "int256"
                        },
                        {
                          "name": "previous",
                          "type": "int256"
                        }
                      ],
                      "name": "conjugate",
                      "type": "tuple"
                    }
                  ],
                  "name": "balances",
                  "type": "tuple"
                },
                {
                  "components": [
                    {
                      "components": [
                        {
                          "name": "amount",
                          "type": "int256"
                        },
                        {
                          "components": [
                            {
                              "name": "ct",
                              "type": "address"
                            },
                            {
                              "name": "id",
                              "type": "uint256"
                            }
                          ],
                          "name": "currency",
                          "type": "tuple"
                        }
                      ],
                      "name": "single",
                      "type": "tuple"
                    },
                    {
                      "components": [
                        {
                          "name": "originId",
                          "type": "uint256"
                        },
                        {
                          "components": [
                            {
                              "name": "amount",
                              "type": "int256"
                            },
                            {
                              "components": [
                                {
                                  "name": "ct",
                                  "type": "address"
                                },
                                {
                                  "name": "id",
                                  "type": "uint256"
                                }
                              ],
                              "name": "currency",
                              "type": "tuple"
                            }
                          ],
                          "name": "figure",
                          "type": "tuple"
                        }
                      ],
                      "name": "total",
                      "type": "tuple[]"
                    }
                  ],
                  "name": "fees",
                  "type": "tuple"
                }
              ],
              "name": "seller",
              "type": "tuple"
            },
            {
              "components": [
                {
                  "components": [
                    {
                      "name": "single",
                      "type": "int256"
                    },
                    {
                      "name": "total",
                      "type": "int256"
                    }
                  ],
                  "name": "intended",
                  "type": "tuple"
                },
                {
                  "components": [
                    {
                      "name": "single",
                      "type": "int256"
                    },
                    {
                      "name": "total",
                      "type": "int256"
                    }
                  ],
                  "name": "conjugate",
                  "type": "tuple"
                }
              ],
              "name": "transfers",
              "type": "tuple"
            },
            {
              "components": [
                {
                  "name": "hash",
                  "type": "bytes32"
                },
                {
                  "components": [
                    {
                      "name": "r",
                      "type": "bytes32"
                    },
                    {
                      "name": "s",
                      "type": "bytes32"
                    },
                    {
                      "name": "v",
                      "type": "uint8"
                    }
                  ],
                  "name": "signature",
                  "type": "tuple"
                }
              ],
              "name": "seal",
              "type": "tuple"
            },
            {
              "name": "blockNumber",
              "type": "uint256"
            },
            {
              "name": "operatorId",
              "type": "uint256"
            }
          ],
          "name": "trade",
          "type": "tuple"
        }
      ],
      "name": "hashTradeRoot",
      "outputs": [
        {
          "name": "",
          "type": "bytes32"
        }
      ],
      "payable": false,
      "stateMutability": "pure",
      "type": "function"
    },
    {
      "constant": true,
      "inputs": [
        {
          "components": [
            {
              "name": "nonce",
              "type": "uint256"
            },
            {
              "name": "wallet",
              "type": "address"
            },
            {
              "name": "rollingVolume",
              "type": "uint256"
            },
            {
              "name": "liquidityRole",
              "type": "uint8"
            },
            {
              "components": [
                {
                  "name": "amount",
                  "type": "int256"
                },
                {
                  "components": [
                    {
                      "name": "wallet",
                      "type": "bytes32"
                    },
                    {
                      "name": "operator",
                      "type": "bytes32"
                    }
                  ],
                  "name": "hashes",
                  "type": "tuple"
                },
                {
                  "components": [
                    {
                      "name": "current",
                      "type": "int256"
                    },
                    {
                      "name": "previous",
                      "type": "int256"
                    }
                  ],
                  "name": "residuals",
                  "type": "tuple"
                }
              ],
              "name": "order",
              "type": "tuple"
            },
            {
              "components": [
                {
                  "components": [
                    {
                      "name": "current",
                      "type": "int256"
                    },
                    {
                      "name": "previous",
                      "type": "int256"
                    }
                  ],
                  "name": "intended",
                  "type": "tuple"
                },
                {
                  "components": [
                    {
                      "name": "current",
                      "type": "int256"
                    },
                    {
                      "name": "previous",
                      "type": "int256"
                    }
                  ],
                  "name": "conjugate",
                  "type": "tuple"
                }
              ],
              "name": "balances",
              "type": "tuple"
            },
            {
              "components": [
                {
                  "components": [
                    {
                      "name": "amount",
                      "type": "int256"
                    },
                    {
                      "components": [
                        {
                          "name": "ct",
                          "type": "address"
                        },
                        {
                          "name": "id",
                          "type": "uint256"
                        }
                      ],
                      "name": "currency",
                      "type": "tuple"
                    }
                  ],
                  "name": "single",
                  "type": "tuple"
                },
                {
                  "components": [
                    {
                      "name": "originId",
                      "type": "uint256"
                    },
                    {
                      "components": [
                        {
                          "name": "amount",
                          "type": "int256"
                        },
                        {
                          "components": [
                            {
                              "name": "ct",
                              "type": "address"
                            },
                            {
                              "name": "id",
                              "type": "uint256"
                            }
                          ],
                          "name": "currency",
                          "type": "tuple"
                        }
                      ],
                      "name": "figure",
                      "type": "tuple"
                    }
                  ],
                  "name": "total",
                  "type": "tuple[]"
                }
              ],
              "name": "fees",
              "type": "tuple"
            }
          ],
          "name": "tradeParty",
          "type": "tuple"
        }
      ],
      "name": "hashTradeParty",
      "outputs": [
        {
          "name": "",
          "type": "bytes32"
        }
      ],
      "payable": false,
      "stateMutability": "pure",
      "type": "function"
    },
    {
      "constant": true,
      "inputs": [
        {
          "components": [
            {
              "name": "nonce",
              "type": "uint256"
            },
            {
              "name": "wallet",
              "type": "address"
            },
            {
              "name": "rollingVolume",
              "type": "uint256"
            },
            {
              "name": "liquidityRole",
              "type": "uint8"
            },
            {
              "components": [
                {
                  "name": "amount",
                  "type": "int256"
                },
                {
                  "components": [
                    {
                      "name": "wallet",
                      "type": "bytes32"
                    },
                    {
                      "name": "operator",
                      "type": "bytes32"
                    }
                  ],
                  "name": "hashes",
                  "type": "tuple"
                },
                {
                  "components": [
                    {
                      "name": "current",
                      "type": "int256"
                    },
                    {
                      "name": "previous",
                      "type": "int256"
                    }
                  ],
                  "name": "residuals",
                  "type": "tuple"
                }
              ],
              "name": "order",
              "type": "tuple"
            },
            {
              "components": [
                {
                  "components": [
                    {
                      "name": "current",
                      "type": "int256"
                    },
                    {
                      "name": "previous",
                      "type": "int256"
                    }
                  ],
                  "name": "intended",
                  "type": "tuple"
                },
                {
                  "components": [
                    {
                      "name": "current",
                      "type": "int256"
                    },
                    {
                      "name": "previous",
                      "type": "int256"
                    }
                  ],
                  "name": "conjugate",
                  "type": "tuple"
                }
              ],
              "name": "balances",
              "type": "tuple"
            },
            {
              "components": [
                {
                  "components": [
                    {
                      "name": "amount",
                      "type": "int256"
                    },
                    {
                      "components": [
                        {
                          "name": "ct",
                          "type": "address"
                        },
                        {
                          "name": "id",
                          "type": "uint256"
                        }
                      ],
                      "name": "currency",
                      "type": "tuple"
                    }
                  ],
                  "name": "single",
                  "type": "tuple"
                },
                {
                  "components": [
                    {
                      "name": "originId",
                      "type": "uint256"
                    },
                    {
                      "components": [
                        {
                          "name": "amount",
                          "type": "int256"
                        },
                        {
                          "components": [
                            {
                              "name": "ct",
                              "type": "address"
                            },
                            {
                              "name": "id",
                              "type": "uint256"
                            }
                          ],
                          "name": "currency",
                          "type": "tuple"
                        }
                      ],
                      "name": "figure",
                      "type": "tuple"
                    }
                  ],
                  "name": "total",
                  "type": "tuple[]"
                }
              ],
              "name": "fees",
              "type": "tuple"
            }
          ],
          "name": "tradeParty",
          "type": "tuple"
        }
      ],
      "name": "hashTradePartyRoot",
      "outputs": [
        {
          "name": "",
          "type": "bytes32"
        }
      ],
      "payable": false,
      "stateMutability": "pure",
      "type": "function"
    },
    {
      "constant": true,
      "inputs": [
        {
          "components": [
            {
              "name": "amount",
              "type": "int256"
            },
            {
              "components": [
                {
                  "name": "wallet",
                  "type": "bytes32"
                },
                {
                  "name": "operator",
                  "type": "bytes32"
                }
              ],
              "name": "hashes",
              "type": "tuple"
            },
            {
              "components": [
                {
                  "name": "current",
                  "type": "int256"
                },
                {
                  "name": "previous",
                  "type": "int256"
                }
              ],
              "name": "residuals",
              "type": "tuple"
            }
          ],
          "name": "tradeOrder",
          "type": "tuple"
        }
      ],
      "name": "hashTradeOrder",
      "outputs": [
        {
          "name": "",
          "type": "bytes32"
        }
      ],
      "payable": false,
      "stateMutability": "pure",
      "type": "function"
    },
    {
      "constant": true,
      "inputs": [
        {
          "components": [
            {
              "name": "nonce",
              "type": "uint256"
            },
            {
              "name": "amount",
              "type": "int256"
            },
            {
              "components": [
                {
                  "name": "ct",
                  "type": "address"
                },
                {
                  "name": "id",
                  "type": "uint256"
                }
              ],
              "name": "currency",
              "type": "tuple"
            },
            {
              "components": [
                {
                  "name": "nonce",
                  "type": "uint256"
                },
                {
                  "name": "wallet",
                  "type": "address"
                },
                {
                  "components": [
                    {
                      "name": "current",
                      "type": "int256"
                    },
                    {
                      "name": "previous",
                      "type": "int256"
                    }
                  ],
                  "name": "balances",
                  "type": "tuple"
                },
                {
                  "components": [
                    {
                      "components": [
                        {
                          "name": "amount",
                          "type": "int256"
                        },
                        {
                          "components": [
                            {
                              "name": "ct",
                              "type": "address"
                            },
                            {
                              "name": "id",
                              "type": "uint256"
                            }
                          ],
                          "name": "currency",
                          "type": "tuple"
                        }
                      ],
                      "name": "single",
                      "type": "tuple"
                    },
                    {
                      "components": [
                        {
                          "name": "originId",
                          "type": "uint256"
                        },
                        {
                          "components": [
                            {
                              "name": "amount",
                              "type": "int256"
                            },
                            {
                              "components": [
                                {
                                  "name": "ct",
                                  "type": "address"
                                },
                                {
                                  "name": "id",
                                  "type": "uint256"
                                }
                              ],
                              "name": "currency",
                              "type": "tuple"
                            }
                          ],
                          "name": "figure",
                          "type": "tuple"
                        }
                      ],
                      "name": "total",
                      "type": "tuple[]"
                    }
                  ],
                  "name": "fees",
                  "type": "tuple"
                }
              ],
              "name": "sender",
              "type": "tuple"
            },
            {
              "components": [
                {
                  "name": "nonce",
                  "type": "uint256"
                },
                {
                  "name": "wallet",
                  "type": "address"
                },
                {
                  "components": [
                    {
                      "name": "current",
                      "type": "int256"
                    },
                    {
                      "name": "previous",
                      "type": "int256"
                    }
                  ],
                  "name": "balances",
                  "type": "tuple"
                },
                {
                  "components": [
                    {
                      "components": [
                        {
                          "name": "originId",
                          "type": "uint256"
                        },
                        {
                          "components": [
                            {
                              "name": "amount",
                              "type": "int256"
                            },
                            {
                              "components": [
                                {
                                  "name": "ct",
                                  "type": "address"
                                },
                                {
                                  "name": "id",
                                  "type": "uint256"
                                }
                              ],
                              "name": "currency",
                              "type": "tuple"
                            }
                          ],
                          "name": "figure",
                          "type": "tuple"
                        }
                      ],
                      "name": "total",
                      "type": "tuple[]"
                    }
                  ],
                  "name": "fees",
                  "type": "tuple"
                }
              ],
              "name": "recipient",
              "type": "tuple"
            },
            {
              "components": [
                {
                  "name": "single",
                  "type": "int256"
                },
                {
                  "name": "total",
                  "type": "int256"
                }
              ],
              "name": "transfers",
              "type": "tuple"
            },
            {
              "components": [
                {
                  "components": [
                    {
                      "name": "hash",
                      "type": "bytes32"
                    },
                    {
                      "components": [
                        {
                          "name": "r",
                          "type": "bytes32"
                        },
                        {
                          "name": "s",
                          "type": "bytes32"
                        },
                        {
                          "name": "v",
                          "type": "uint8"
                        }
                      ],
                      "name": "signature",
                      "type": "tuple"
                    }
                  ],
                  "name": "wallet",
                  "type": "tuple"
                },
                {
                  "components": [
                    {
                      "name": "hash",
                      "type": "bytes32"
                    },
                    {
                      "components": [
                        {
                          "name": "r",
                          "type": "bytes32"
                        },
                        {
                          "name": "s",
                          "type": "bytes32"
                        },
                        {
                          "name": "v",
                          "type": "uint8"
                        }
                      ],
                      "name": "signature",
                      "type": "tuple"
                    }
                  ],
                  "name": "operator",
                  "type": "tuple"
                }
              ],
              "name": "seals",
              "type": "tuple"
            },
            {
              "name": "blockNumber",
              "type": "uint256"
            },
            {
              "name": "operatorId",
              "type": "uint256"
            }
          ],
          "name": "payment",
          "type": "tuple"
        }
      ],
      "name": "hashPaymentAmountCurrency",
      "outputs": [
        {
          "name": "",
          "type": "bytes32"
        }
      ],
      "payable": false,
      "stateMutability": "pure",
      "type": "function"
    },
    {
      "constant": true,
      "inputs": [
        {
          "components": [
            {
              "name": "nonce",
              "type": "uint256"
            },
            {
              "name": "wallet",
              "type": "address"
            },
            {
              "components": [
                {
                  "name": "current",
                  "type": "int256"
                },
                {
                  "name": "previous",
                  "type": "int256"
                }
              ],
              "name": "balances",
              "type": "tuple"
            },
            {
              "components": [
                {
                  "components": [
                    {
                      "name": "amount",
                      "type": "int256"
                    },
                    {
                      "components": [
                        {
                          "name": "ct",
                          "type": "address"
                        },
                        {
                          "name": "id",
                          "type": "uint256"
                        }
                      ],
                      "name": "currency",
                      "type": "tuple"
                    }
                  ],
                  "name": "single",
                  "type": "tuple"
                },
                {
                  "components": [
                    {
                      "name": "originId",
                      "type": "uint256"
                    },
                    {
                      "components": [
                        {
                          "name": "amount",
                          "type": "int256"
                        },
                        {
                          "components": [
                            {
                              "name": "ct",
                              "type": "address"
                            },
                            {
                              "name": "id",
                              "type": "uint256"
                            }
                          ],
                          "name": "currency",
                          "type": "tuple"
                        }
                      ],
                      "name": "figure",
                      "type": "tuple"
                    }
                  ],
                  "name": "total",
                  "type": "tuple[]"
                }
              ],
              "name": "fees",
              "type": "tuple"
            }
          ],
          "name": "paymentSenderParty",
          "type": "tuple"
        }
      ],
      "name": "hashPaymentSenderPartyAsOperator",
      "outputs": [
        {
          "name": "",
          "type": "bytes32"
        }
      ],
      "payable": false,
      "stateMutability": "pure",
      "type": "function"
    },
    {
      "constant": true,
      "inputs": [
        {
          "components": [
            {
              "name": "nonce",
              "type": "uint256"
            },
            {
              "name": "wallet",
              "type": "address"
            },
            {
              "components": [
                {
                  "name": "current",
                  "type": "int256"
                },
                {
                  "name": "previous",
                  "type": "int256"
                }
              ],
              "name": "balances",
              "type": "tuple"
            },
            {
              "components": [
                {
                  "components": [
                    {
                      "name": "originId",
                      "type": "uint256"
                    },
                    {
                      "components": [
                        {
                          "name": "amount",
                          "type": "int256"
                        },
                        {
                          "components": [
                            {
                              "name": "ct",
                              "type": "address"
                            },
                            {
                              "name": "id",
                              "type": "uint256"
                            }
                          ],
                          "name": "currency",
                          "type": "tuple"
                        }
                      ],
                      "name": "figure",
                      "type": "tuple"
                    }
                  ],
                  "name": "total",
                  "type": "tuple[]"
                }
              ],
              "name": "fees",
              "type": "tuple"
            }
          ],
          "name": "paymentRecipientParty",
          "type": "tuple"
        }
      ],
      "name": "hashPaymentRecipientPartyAsOperator",
      "outputs": [
        {
          "name": "",
          "type": "bytes32"
        }
      ],
      "payable": false,
      "stateMutability": "pure",
      "type": "function"
    },
    {
      "constant": true,
      "inputs": [
        {
          "components": [
            {
              "components": [
                {
                  "name": "single",
                  "type": "int256"
                },
                {
                  "name": "total",
                  "type": "int256"
                }
              ],
              "name": "intended",
              "type": "tuple"
            },
            {
              "components": [
                {
                  "name": "single",
                  "type": "int256"
                },
                {
                  "name": "total",
                  "type": "int256"
                }
              ],
              "name": "conjugate",
              "type": "tuple"
            }
          ],
          "name": "intededConjugateSingleTotalInt256",
          "type": "tuple"
        }
      ],
      "name": "hashIntendedConjugateSingleTotalInt256",
      "outputs": [
        {
          "name": "",
          "type": "bytes32"
        }
      ],
      "payable": false,
      "stateMutability": "pure",
      "type": "function"
    },
    {
      "constant": true,
      "inputs": [
        {
          "components": [
            {
              "name": "current",
              "type": "int256"
            },
            {
              "name": "previous",
              "type": "int256"
            }
          ],
          "name": "currentPreviousInt256",
          "type": "tuple"
        }
      ],
      "name": "hashCurrentPreviousInt256",
      "outputs": [
        {
          "name": "",
          "type": "bytes32"
        }
      ],
      "payable": false,
      "stateMutability": "pure",
      "type": "function"
    },
    {
      "constant": true,
      "inputs": [
        {
          "components": [
            {
              "name": "single",
              "type": "int256"
            },
            {
              "name": "total",
              "type": "int256"
            }
          ],
          "name": "singleTotalInt256",
          "type": "tuple"
        }
      ],
      "name": "hashSingleTotalInt256",
      "outputs": [
        {
          "name": "",
          "type": "bytes32"
        }
      ],
      "payable": false,
      "stateMutability": "pure",
      "type": "function"
    },
    {
      "constant": true,
      "inputs": [
        {
          "components": [
            {
              "components": [
                {
                  "name": "current",
                  "type": "int256"
                },
                {
                  "name": "previous",
                  "type": "int256"
                }
              ],
              "name": "intended",
              "type": "tuple"
            },
            {
              "components": [
                {
                  "name": "current",
                  "type": "int256"
                },
                {
                  "name": "previous",
                  "type": "int256"
                }
              ],
              "name": "conjugate",
              "type": "tuple"
            }
          ],
          "name": "intendedConjugateCurrentPreviousInt256",
          "type": "tuple"
        }
      ],
      "name": "hashIntendedConjugateCurrentPreviousInt256",
      "outputs": [
        {
          "name": "",
          "type": "bytes32"
        }
      ],
      "payable": false,
      "stateMutability": "pure",
      "type": "function"
    },
    {
      "constant": true,
      "inputs": [
        {
          "components": [
            {
              "name": "amount",
              "type": "int256"
            },
            {
              "components": [
                {
                  "name": "ct",
                  "type": "address"
                },
                {
                  "name": "id",
                  "type": "uint256"
                }
              ],
              "name": "currency",
              "type": "tuple"
            }
          ],
          "name": "figure",
          "type": "tuple"
        }
      ],
      "name": "hashFigure",
      "outputs": [
        {
          "name": "",
          "type": "bytes32"
        }
      ],
      "payable": false,
      "stateMutability": "pure",
      "type": "function"
    },
    {
      "constant": true,
      "inputs": [
        {
          "components": [
            {
              "name": "originId",
              "type": "uint256"
            },
            {
              "components": [
                {
                  "name": "amount",
                  "type": "int256"
                },
                {
                  "components": [
                    {
                      "name": "ct",
                      "type": "address"
                    },
                    {
                      "name": "id",
                      "type": "uint256"
                    }
                  ],
                  "name": "currency",
                  "type": "tuple"
                }
              ],
              "name": "figure",
              "type": "tuple"
            }
          ],
          "name": "originFigures",
          "type": "tuple[]"
        }
      ],
      "name": "hashOriginFigures",
      "outputs": [
        {
          "name": "",
          "type": "bytes32"
        }
      ],
      "payable": false,
      "stateMutability": "pure",
      "type": "function"
    },
    {
      "constant": true,
      "inputs": [
        {
          "name": "_uint256",
          "type": "uint256"
        }
      ],
      "name": "hashUint256",
      "outputs": [
        {
          "name": "",
          "type": "bytes32"
        }
      ],
      "payable": false,
      "stateMutability": "pure",
      "type": "function"
    },
    {
      "constant": true,
      "inputs": [
        {
          "name": "_address",
          "type": "address"
        }
      ],
      "name": "hashAddress",
      "outputs": [
        {
          "name": "",
          "type": "bytes32"
        }
      ],
      "payable": false,
      "stateMutability": "pure",
      "type": "function"
    },
    {
      "constant": true,
      "inputs": [
        {
          "components": [
            {
              "name": "r",
              "type": "bytes32"
            },
            {
              "name": "s",
              "type": "bytes32"
            },
            {
              "name": "v",
              "type": "uint8"
            }
          ],
          "name": "signature",
          "type": "tuple"
        }
      ],
      "name": "hashSignature",
      "outputs": [
        {
          "name": "",
          "type": "bytes32"
        }
      ],
      "payable": false,
      "stateMutability": "pure",
      "type": "function"
    }
  ],
  "bytecode": "0x60806040523480156200001157600080fd5b50604051602080620020dc8339810180604052620000339190810190620000b6565b8080600160a060020a03811615156200004b57600080fd5b600160a060020a0381163014156200006257600080fd5b506000805461010060a860020a031916610100600160a060020a039390931692830217905560018054600160a060020a031916909117905550620000eb565b6000620000af8251620000df565b9392505050565b600060208284031215620000c957600080fd5b6000620000d78484620000a1565b949350505050565b600160a060020a031690565b611fe180620000fb6000396000f3006080604052600436106101665763ffffffff60e060020a60003504166315c74fe7811461016b5780632738a112146101a15780632f013a00146101b8578063312aa825146101da57806333bc8735146101fa5780633aa5fe591461021a57806340e870e01461023a5780634476d23b1461025a57806352a585cb1461027c578063570ca7351461029c57806370327ea1146102b157806370bc7394146102c65780638171de22146102e65780638ec18c8f146102c6578063962147351461030657806397b115f414610326578063a07cdfbb14610346578063a32165aa14610366578063a9b03a6f14610386578063aad06a54146103a6578063b3ab15fb146103c6578063ba479cb2146103e6578063c9f9d4ab14610406578063d39d317414610426578063d5f3948814610446578063dc072b951461045b578063dd27efe21461045b578063f988ea121461047b578063fd076fff1461049b578063fff4bcc6146104bb575b600080fd5b34801561017757600080fd5b5061018b610186366004611cf0565b6104db565b6040516101989190611f26565b60405180910390f35b3480156101ad57600080fd5b506101b661059a565b005b3480156101c457600080fd5b506101cd610600565b6040516101989190611f18565b3480156101e657600080fd5b5061018b6101f5366004611e06565b610609565b34801561020657600080fd5b5061018b610215366004611dd2565b61067c565b34801561022657600080fd5b5061018b610235366004611c78565b610742565b34801561024657600080fd5b5061018b610255366004611dd2565b6107aa565b34801561026657600080fd5b5061026f6108a5565b6040516101989190611ee9565b34801561028857600080fd5b5061018b610297366004611e24565b6108b9565b3480156102a857600080fd5b5061026f61093f565b3480156102bd57600080fd5b506101b661094e565b3480156102d257600080fd5b5061018b6102e1366004611d0e565b6109b1565b3480156102f257600080fd5b5061018b610301366004611e42565b610a28565b34801561031257600080fd5b506101b6610321366004611c78565b610acc565b34801561033257600080fd5b5061018b610341366004611e42565b610b93565b34801561035257600080fd5b5061018b610361366004611e76565b610be9565b34801561037257600080fd5b5061018b610381366004611d2c565b610c9a565b34801561039257600080fd5b5061018b6103a1366004611dd2565b610d82565b3480156103b257600080fd5b5061018b6103c1366004611e76565b610e0e565b3480156103d257600080fd5b506101b66103e1366004611c78565b610ee5565b3480156103f257600080fd5b5061018b610401366004611d4b565b610f8f565b34801561041257600080fd5b5061018b610421366004611d9e565b611037565b34801561043257600080fd5b5061018b610441366004611eaa565b611081565b34801561045257600080fd5b5061026f6110d1565b34801561046757600080fd5b5061018b610476366004611cd2565b6110e5565b34801561048757600080fd5b5061018b610496366004611c9e565b611145565b3480156104a757600080fd5b5061018b6104b6366004611d4b565b611297565b3480156104c757600080fd5b5061018b6104d6366004611d6a565b6112d4565b600081600001518260200151600001518360200151602001516040516020018084815260200183600160a060020a0316600160a060020a0316606060020a02815260140182815260200193505050506040516020818303038152906040526040518082805190602001908083835b602083106105685780518252601f199092019160209182019101610549565b5181516020939093036101000a6000190180199091169216919091179052604051920182900390912095945050505050565b336105a36108a5565b600160a060020a0316146105b657600080fd5b60005460ff16156105c657600080fd5b7f787a5d936e74f4b564b9153575886059829c78cd9927b1be5e0d976b317ef736336040516105f59190611ee9565b60405180910390a133ff5b60005460ff1681565b6040818101518251602080850151845160ff90941660f860020a02848301526021840192909252604180840192909252835180840390920182526061909201928390528051600093919282918482019181908490849083106105685780518252601f199092019160209182019101610549565b60008060008061068b85610d82565b925061069e856060015160200151610742565b91506106b1856080015160200151610742565b6040805160208082018790528183018690526060808301859052835180840390910181526080909201928390528151939450909282918401908083835b6020831061070d5780518252601f1990920191602091820191016106ee565b5181516020939093036101000a6000190180199091169216919091179052604051920182900390912098975050505050505050565b6000816040516020018082600160a060020a0316600160a060020a0316606060020a028152601401915050604051602081830303815290604052604051808280519060200190808383602083106105685780518252601f199092019160209182019101610549565b6000806000806000806107c88760c001516000015160200151610609565b94506107d78760000151611081565b93506107e68760600151611037565b92506107f587608001516112d4565b91506108048760a001516110e5565b604080516020808201899052818301889052606082018790526080820186905260a08083018590528351808403909101815260c0909201928390528151939450909282918401908083835b6020831061086e5780518252601f19909201916020918201910161084f565b5181516020939093036101000a600019018019909116921691909117905260405192018290039091209a9950505050505050505050565b6000546101009004600160a060020a031690565b6020808201518051908201518351604080860151805190860151825180880196909652858301949094526060850192909252608084019190915260a0808401929092528051808403909201825260c0909201918290528051600093919291829190840190808383602083106105685780518252601f199092019160209182019101610549565b600154600160a060020a031681565b336109576108a5565b600160a060020a03161461096a57600080fd5b6000805460ff191660011790556040517fd5a2a04a775c741c2ca0dc46ea7ce4835190e1aaf1ca018def0e82568ec33616906109a7903390611ee9565b60405180910390a1565b805180516020918201518284015180519084015160408051808701959095528481019390935260608401919091526080808401919091528151808403909101815260a0909201908190528151600093829190840190808383602083106105685780518252601f199092019160209182019101610549565b600081600001518260200151836040015184606001516040516020018085815260200184600160a060020a0316600160a060020a0316606060020a028152601401838152602001826001811115610a7b57fe5b60ff1660f860020a028152600101945050505050604051602081830303815290604052604051808280519060200190808383602083106105685780518252601f199092019160209182019101610549565b6000610ad6611309565b1515610ae157600080fd5b81600160a060020a0381161515610af757600080fd5b600160a060020a038116301415610b0d57600080fd5b600054600160a060020a038481166101009092041614610b8e5760008054600160a060020a0385811661010090810261010060a860020a0319841617909355604051929091041692507f977e5fa58e458501775e0008d275006294c5249e3c08d1d0e3a9f3acad14f6e490610b859084908690611efd565b60405180910390a15b505050565b600080600080600080610ba587610a28565b9450610bb487608001516108b9565b9350610bc38760a001516109b1565b9250610bd68760c00151600001516104db565b91506108048760c0015160200151611145565b80516020808301516040808501518051805190850151918501518051908601516060808a01518651808a019a909a5289870197909752606060020a600160a060020a039485168102918a019190915260748901949094529116909102609486015260a885015260c8808501929092528051808503909201825260e89093019283905280516000939192829190840190808383602083106105685780518252601f199092019160209182019101610549565b80516020808301516040808501518051805190850151918501518051908601516060890151945160009897939592939192910180886001811115610cda57fe5b60ff1660f860020a02815260010187815260200186600160a060020a0316600160a060020a0316606060020a02815260140185815260200184600160a060020a0316600160a060020a0316606060020a028152601401838152602001828152602001975050505050505050604051602081830303815290604052604051808280519060200190808383602083106105685780518252601f199092019160209182019101610549565b600081602001518260400151600001518360400151602001516040516020018084815260200183600160a060020a0316600160a060020a0316606060020a0281526014018281526020019350505050604051602081830303815290604052604051808280519060200190808383602083106105685780518252601f199092019160209182019101610549565b6000806000806000610e1f86610be9565b9350610e2e8660800151610b93565b9250610e3d8660a00151610b93565b9150610e4c8660c001516109b1565b6040805160208082018890528183018790526060820186905260808083018590528351808403909101815260a0909201928390528151939450909282918401908083835b60208310610eaf5780518252601f199092019160209182019101610e90565b5181516020939093036101000a600019018019909116921691909117905260405192018290039091209998505050505050505050565b6000610eef61131f565b1515610efa57600080fd5b81600160a060020a0381161515610f1057600080fd5b600160a060020a038116301415610f2657600080fd5b600154600160a060020a03848116911614610b8e5760018054600160a060020a03858116600160a060020a0319831617909255604051911692507f9f611b789425d0d5b90b920f1b2852907dd865c80074a30b1629aaa041d1812c90610b859084908690611efd565b6000806000610fa18460200151610742565b9150610fb08460400151610c9a565b6040805160208082018690528183018490528251808303840181526060909201928390528151939450909282918401908083835b602083106110035780518252601f199092019160209182019101610fe4565b5181516020939093036101000a60001901801990911692169190911790526040519201829003909120979650505050505050565b600080600080600061104c8660000151611081565b935061105b86604001516110e5565b925061106e8660600151600001516104db565b9150610e4c866060015160200151611145565b60008160405160200180828152602001915050604051602081830303815290604052604051808280519060200190808383602083106105685780518252601f199092019160209182019101610549565b6000546101009004600160a060020a031681565b6000816000015182602001516040516020018083815260200182815260200192505050604051602081830303815290604052604051808280519060200190808383602083106105685780518252601f199092019160209182019101610549565b600080805b83518110156112905781848281518110151561116257fe5b6020908102909101015151855186908490811061117b57fe5b6020908102909101810151015151865187908590811061119757fe5b602090810290910181015181015101515187518890869081106111b657fe5b9060200190602002015160200151602001516020015160405160200180866000191660001916815260200185815260200184815260200183600160a060020a0316600160a060020a0316606060020a028152601401828152602001955050505050506040516020818303038152906040526040518082805190602001908083835b602083106112565780518252601f199092019160209182019101611237565b5181516020939093036101000a6000190180199091169216919091179052604051920182900390912094505050600191909101905061114a565b5092915050565b6000806000806112aa8560000151611081565b92506112c185606001516000015160200151610609565b91506106b18560400151608001516110e5565b6000806000806112e78560000151611081565b92506112f685604001516110e5565b91506106b1856060015160000151611145565b6000546101009004600160a060020a0316331490565b600154600160a060020a0316331490565b600061133c8235611f7a565b9392505050565b6000601f8201831361135457600080fd5b813561136761136282611f5a565b611f34565b9150818183526020840193506020810190508385608084028201111561138c57600080fd5b60005b838110156113ba57816113a2888261168f565b8452506020909201916080919091019060010161138f565b5050505092915050565b6000601f820183136113d557600080fd5b81356113e361136282611f5a565b9150818183526020840193506020810190508385608084028201111561140857600080fd5b60005b838110156113ba578161141e888261168f565b8452506020909201916080919091019060010161140b565b600061133c8235611f8b565b600061133c8235611f8e565b60006040828403121561146057600080fd5b61146a6040611f34565b905060006114788484611330565b825250602061148984848301611436565b60208301525092915050565b6000604082840312156114a757600080fd5b6114b16040611f34565b905060006114788484611436565b6000606082840312156114d157600080fd5b6114db6040611f34565b905060006114e98484611436565b82525060206114898484830161144e565b60006080828403121561150c57600080fd5b6115166040611f34565b90506000611524848461144e565b82525060406114898484830161144e565b60006080828403121561154757600080fd5b6115516040611f34565b9050600061155f8484611495565b825250604061148984848301611495565b6000610120828403121561158357600080fd5b61158d60a0611f34565b9050600061159b8484611442565b82525060206115ac84848301611436565b60208301525060406115c0848285016114fa565b60408301525060c06115d484828501611436565b60608301525060e06115e884828501611495565b60808301525092915050565b60006102a0828403121561160757600080fd5b61161160c0611f34565b9050600061161f8484611436565b825250602061163084848301611330565b602083015250604061164484828501611570565b60408301525061016061165984828501611c30565b60608301525061026061166e84828501611436565b60808301525061028061168384828501611436565b60a08301525092915050565b6000608082840312156116a157600080fd5b6116ab6040611f34565b905060006116b98484611436565b8252506020611489848483016114bf565b600060a082840312156116dc57600080fd5b6116e66080611f34565b905060006116f48484611436565b825250602061170584848301611330565b602083015250604061171984828501611495565b60408301525060808201356001604060020a0381111561173857600080fd5b611744848285016119b5565b60608301525092915050565b600060a0828403121561176257600080fd5b61176c6080611f34565b9050600061177a8484611436565b825250602061178b84848301611330565b602083015250604061179f84828501611495565b60408301525060808201356001604060020a038111156117be57600080fd5b61174484828501611963565b600061024082840312156117dd57600080fd5b6117e8610120611f34565b905060006117f68484611436565b825250602061180784848301611436565b602083015250604061181b8482850161144e565b60408301525060808201356001604060020a0381111561183a57600080fd5b61184684828501611750565b60608301525060a08201356001604060020a0381111561186557600080fd5b611871848285016116ca565b60808301525060c061188584828501611495565b60a08301525061010061189a84828501611c30565b60c0830152506102006118af84828501611436565b60e0830152506102206118c484828501611436565b6101008301525092915050565b6000608082840312156118e357600080fd5b6118ed6040611f34565b905060006118fb8484611436565b8252506020611489848483015b60006060828403121561191a57600080fd5b6119246060611f34565b905060006119328484611436565b825250602061194384848301611436565b602083015250604061195784828501611c6c565b60408301525092915050565b60006080828403121561197557600080fd5b61197f6040611f34565b9050600061198d84846114bf565b82525060608201356001604060020a038111156119a957600080fd5b61148984828501611343565b6000602082840312156119c757600080fd5b6119d16020611f34565b905081356001604060020a038111156119e957600080fd5b6119f584828501611343565b82525092915050565b600060a08284031215611a1057600080fd5b611a1a6060611f34565b90506000611a288484611436565b8252506020611a3984848301611495565b602083015250606061195784828501611495565b60006101c08284031215611a6057600080fd5b611a6a60e0611f34565b90506000611a788484611436565b8252506020611a8984848301611330565b6020830152506040611a9d84828501611436565b6040830152506060611ab184828501611442565b6060830152506080611ac5848285016119fe565b608083015250610120611ada84828501611535565b60a0830152506101a08201356001604060020a03811115611afa57600080fd5b611b0684828501611963565b60c08301525092915050565b60006102608284031215611b2557600080fd5b611b30610140611f34565b90506000611b3e8484611436565b8252506020611b4f84848301611436565b6020830152506040611b63848285016114fa565b60408301525060c0611b7784828501611436565b60608301525060e08201356001604060020a03811115611b9657600080fd5b611ba284828501611a4d565b6080830152506101008201356001604060020a03811115611bc257600080fd5b611bce84828501611a4d565b60a083015250610120611be384828501611535565b60c0830152506101a0611bf8848285016118d1565b60e083015250610220611c0d84828501611436565b61010083015250610240611c2384828501611436565b6101208301525092915050565b60006101008284031215611c4357600080fd5b611c4d6040611f34565b90506000611c5b84846118d1565b8252506080611489848483016118d1565b600061133c8235611fa1565b600060208284031215611c8a57600080fd5b6000611c968484611330565b949350505050565b600060208284031215611cb057600080fd5b81356001604060020a03811115611cc657600080fd5b611c96848285016113c4565b600060408284031215611ce457600080fd5b6000611c968484611495565b600060608284031215611d0257600080fd5b6000611c9684846114bf565b600060808284031215611d2057600080fd5b6000611c968484611535565b60006101208284031215611d3f57600080fd5b6000611c968484611570565b60006102a08284031215611d5e57600080fd5b6000611c9684846115f4565b600060208284031215611d7c57600080fd5b81356001604060020a03811115611d9257600080fd5b611c96848285016116ca565b600060208284031215611db057600080fd5b81356001604060020a03811115611dc657600080fd5b611c9684828501611750565b600060208284031215611de457600080fd5b81356001604060020a03811115611dfa57600080fd5b611c96848285016117ca565b600060608284031215611e1857600080fd5b6000611c968484611908565b600060a08284031215611e3657600080fd5b6000611c9684846119fe565b600060208284031215611e5457600080fd5b81356001604060020a03811115611e6a57600080fd5b611c9684828501611a4d565b600060208284031215611e8857600080fd5b81356001604060020a03811115611e9e57600080fd5b611c9684828501611b12565b600060208284031215611ebc57600080fd5b6000611c968484611436565b611ed181611f7a565b82525050565b611ed181611f86565b611ed181611f8b565b60208101611ef78284611ec8565b92915050565b60408101611f0b8285611ec8565b61133c6020830184611ec8565b60208101611ef78284611ed7565b60208101611ef78284611ee0565b6040518181016001604060020a0381118282101715611f5257600080fd5b604052919050565b60006001604060020a03821115611f7057600080fd5b5060209081020190565b600160a060020a031690565b151590565b90565b600060028210611f9d57600080fd5b5090565b60ff16905600a265627a7a72305820c479e383e1f24958342c97cfe1b082383a0476f8f7cabc4a658cdb23edeea1376c6578706572696d656e74616cf50037",
  "source": "/*\n * Hubii Nahmii\n *\n * Compliant with the Hubii Nahmii specification v0.12.\n *\n * Copyright (C) 2017-2018 Hubii AS\n */\n\npragma solidity ^0.4.25;\npragma experimental ABIEncoderV2;\n\nimport {Ownable} from \"./Ownable.sol\";\nimport {MonetaryTypesLib} from \"./MonetaryTypesLib.sol\";\nimport {NahmiiTypesLib} from \"./NahmiiTypesLib.sol\";\n\n/**\n * @title Hasher\n * @notice Contract that hashes types in NahmiiTypesLib contract\n */\ncontract Hasher is Ownable {\n    //\n    // Constructor\n    // -----------------------------------------------------------------------------------------------------------------\n    constructor(address deployer) Ownable(deployer) public {\n    }\n\n    //\n    // Functions\n    // -----------------------------------------------------------------------------------------------------------------\n    function hashOrderAsWallet(NahmiiTypesLib.Order order)\n    public\n    pure\n    returns (bytes32)\n    {\n        bytes32 rootHash = hashAddress(order.wallet);\n        bytes32 placementHash = hashOrderPlacement(order.placement);\n\n        return keccak256(abi.encodePacked(rootHash, placementHash));\n    }\n\n    function hashOrderAsOperator(NahmiiTypesLib.Order order)\n    public\n    pure\n    returns (bytes32)\n    {\n        bytes32 rootHash = hashUint256(order.nonce);\n        bytes32 walletSignatureHash = hashSignature(order.seals.wallet.signature);\n        bytes32 placementResidualsHash = hashCurrentPreviousInt256(order.placement.residuals);\n\n        return keccak256(abi.encodePacked(rootHash, walletSignatureHash, placementResidualsHash));\n    }\n\n    function hashTrade(NahmiiTypesLib.Trade trade)\n    public\n    pure\n    returns (bytes32)\n    {\n        bytes32 rootHash = hashTradeRoot(trade);\n        bytes32 buyerHash = hashTradeParty(trade.buyer);\n        bytes32 sellerHash = hashTradeParty(trade.seller);\n        bytes32 transfersHash = hashIntendedConjugateSingleTotalInt256(trade.transfers);\n\n        return keccak256(abi.encodePacked(rootHash, buyerHash, sellerHash, transfersHash));\n    }\n\n    function hashPaymentAsWallet(NahmiiTypesLib.Payment payment)\n    public\n    pure\n    returns (bytes32)\n    {\n        bytes32 amountCurrencyHash = hashPaymentAmountCurrency(payment);\n        bytes32 senderHash = hashAddress(payment.sender.wallet);\n        bytes32 recipientHash = hashAddress(payment.recipient.wallet);\n\n        return keccak256(abi.encodePacked(amountCurrencyHash, senderHash, recipientHash));\n    }\n\n    function hashPaymentAsOperator(NahmiiTypesLib.Payment payment)\n    public\n    pure\n    returns (bytes32)\n    {\n        bytes32 walletSignatureHash = hashSignature(payment.seals.wallet.signature);\n        bytes32 nonceHash = hashUint256(payment.nonce);\n        bytes32 senderHash = hashPaymentSenderPartyAsOperator(payment.sender);\n        bytes32 recipientHash = hashPaymentRecipientPartyAsOperator(payment.recipient);\n        bytes32 transfersHash = hashSingleTotalInt256(payment.transfers);\n\n        return keccak256(abi.encodePacked(\n                walletSignatureHash, nonceHash, senderHash, recipientHash, transfersHash\n            ));\n    }\n\n    function hashOrderPlacement(NahmiiTypesLib.OrderPlacement orderPlacement)\n    public\n    pure\n    returns (bytes32)\n    {\n        return keccak256(abi.encodePacked(\n                orderPlacement.intention,\n                orderPlacement.amount,\n                orderPlacement.currencies.intended.ct,\n                orderPlacement.currencies.intended.id,\n                orderPlacement.currencies.conjugate.ct,\n                orderPlacement.currencies.conjugate.id,\n                orderPlacement.rate\n            ));\n    }\n\n    function hashTradeRoot(NahmiiTypesLib.Trade trade)\n    public\n    pure\n    returns (bytes32)\n    {\n        return keccak256(abi.encodePacked(\n                trade.nonce,\n                trade.amount,\n                trade.currencies.intended.ct,\n                trade.currencies.intended.id,\n                trade.currencies.conjugate.ct,\n                trade.currencies.conjugate.id,\n                trade.rate\n            ));\n    }\n\n    function hashTradeParty(NahmiiTypesLib.TradeParty tradeParty)\n    public\n    pure\n    returns (bytes32)\n    {\n        bytes32 rootHash = hashTradePartyRoot(tradeParty);\n        bytes32 orderHash = hashTradeOrder(tradeParty.order);\n        bytes32 balancesHash = hashIntendedConjugateCurrentPreviousInt256(tradeParty.balances);\n        bytes32 singleFeeHash = hashFigure(tradeParty.fees.single);\n        bytes32 totalFeesHash = hashOriginFigures(tradeParty.fees.total);\n\n        return keccak256(abi.encodePacked(\n                rootHash, orderHash, balancesHash, singleFeeHash, totalFeesHash\n            ));\n    }\n\n    function hashTradePartyRoot(NahmiiTypesLib.TradeParty tradeParty)\n    public\n    pure\n    returns (bytes32)\n    {\n        return keccak256(abi.encodePacked(\n                tradeParty.nonce,\n                tradeParty.wallet,\n                tradeParty.rollingVolume,\n                tradeParty.liquidityRole\n            ));\n    }\n\n    function hashTradeOrder(NahmiiTypesLib.TradeOrder tradeOrder)\n    public\n    pure\n    returns (bytes32)\n    {\n        return keccak256(abi.encodePacked(\n                tradeOrder.hashes.wallet,\n                tradeOrder.hashes.operator,\n                tradeOrder.amount,\n                tradeOrder.residuals.current,\n                tradeOrder.residuals.previous\n            ));\n    }\n\n    function hashPaymentAmountCurrency(NahmiiTypesLib.Payment payment)\n    public\n    pure\n    returns (bytes32)\n    {\n        return keccak256(abi.encodePacked(\n                payment.amount,\n                payment.currency.ct,\n                payment.currency.id\n            ));\n    }\n\n    function hashPaymentSenderPartyAsOperator(\n        NahmiiTypesLib.PaymentSenderParty paymentSenderParty)\n    public\n    pure\n    returns (bytes32)\n    {\n        bytes32 rootHash = hashUint256(paymentSenderParty.nonce);\n        bytes32 balancesHash = hashCurrentPreviousInt256(paymentSenderParty.balances);\n        bytes32 singleFeeHash = hashFigure(paymentSenderParty.fees.single);\n        bytes32 totalFeesHash = hashOriginFigures(paymentSenderParty.fees.total);\n\n        return keccak256(abi.encodePacked(\n                rootHash, balancesHash, singleFeeHash, totalFeesHash\n            ));\n    }\n\n    function hashPaymentRecipientPartyAsOperator(\n        NahmiiTypesLib.PaymentRecipientParty paymentRecipientParty)\n    public\n    pure\n    returns (bytes32)\n    {\n        bytes32 rootHash = hashUint256(paymentRecipientParty.nonce);\n        bytes32 balancesHash = hashCurrentPreviousInt256(paymentRecipientParty.balances);\n        bytes32 totalFeesHash = hashOriginFigures(paymentRecipientParty.fees.total);\n\n        return keccak256(abi.encodePacked(\n                rootHash, balancesHash, totalFeesHash\n            ));\n    }\n\n    function hashIntendedConjugateSingleTotalInt256(\n        NahmiiTypesLib.IntendedConjugateSingleTotalInt256 intededConjugateSingleTotalInt256)\n    public\n    pure\n    returns (bytes32)\n    {\n        return keccak256(abi.encodePacked(\n                intededConjugateSingleTotalInt256.intended.single,\n                intededConjugateSingleTotalInt256.intended.total,\n                intededConjugateSingleTotalInt256.conjugate.single,\n                intededConjugateSingleTotalInt256.conjugate.total\n            ));\n    }\n\n    function hashCurrentPreviousInt256(\n        NahmiiTypesLib.CurrentPreviousInt256 currentPreviousInt256)\n    public\n    pure\n    returns (bytes32)\n    {\n        return keccak256(abi.encodePacked(\n                currentPreviousInt256.current,\n                currentPreviousInt256.previous\n            ));\n    }\n\n    function hashSingleTotalInt256(\n        NahmiiTypesLib.SingleTotalInt256 singleTotalInt256)\n    public\n    pure\n    returns (bytes32)\n    {\n        return keccak256(abi.encodePacked(\n                singleTotalInt256.single,\n                singleTotalInt256.total\n            ));\n    }\n\n    function hashIntendedConjugateCurrentPreviousInt256(\n        NahmiiTypesLib.IntendedConjugateCurrentPreviousInt256 intendedConjugateCurrentPreviousInt256)\n    public\n    pure\n    returns (bytes32)\n    {\n        return keccak256(abi.encodePacked(\n                intendedConjugateCurrentPreviousInt256.intended.current,\n                intendedConjugateCurrentPreviousInt256.intended.previous,\n                intendedConjugateCurrentPreviousInt256.conjugate.current,\n                intendedConjugateCurrentPreviousInt256.conjugate.previous\n            ));\n    }\n\n    function hashFigure(MonetaryTypesLib.Figure figure)\n    public\n    pure\n    returns (bytes32)\n    {\n        return keccak256(abi.encodePacked(\n                figure.amount,\n                figure.currency.ct,\n                figure.currency.id\n            ));\n    }\n\n    function hashOriginFigures(NahmiiTypesLib.OriginFigure[] originFigures)\n    public\n    pure\n    returns (bytes32)\n    {\n        bytes32 hash;\n        for (uint256 i = 0; i < originFigures.length; i++) {\n            hash = keccak256(abi.encodePacked(\n                    hash,\n                    originFigures[i].originId,\n                    originFigures[i].figure.amount,\n                    originFigures[i].figure.currency.ct,\n                    originFigures[i].figure.currency.id\n                )\n            );\n        }\n        return hash;\n    }\n\n    function hashUint256(uint256 _uint256)\n    public\n    pure\n    returns (bytes32)\n    {\n        return keccak256(abi.encodePacked(_uint256));\n    }\n\n    function hashAddress(address _address)\n    public\n    pure\n    returns (bytes32)\n    {\n        return keccak256(abi.encodePacked(_address));\n    }\n\n    function hashSignature(NahmiiTypesLib.Signature signature)\n    public\n    pure\n    returns (bytes32)\n    {\n        return keccak256(abi.encodePacked(\n                signature.v,\n                signature.r,\n                signature.s\n            ));\n    }\n}",
  "sourcePath": "/opt/buildagent/work/855e104608380c36/contracts/Hasher.sol",
  "compiler": {
    "name": "solc",
    "version": "0.4.25+commit.59dbf8f1.Emscripten.clang"
  },
  "schemaVersion": "2.0.1",
  "updatedAt": "2019-01-31T11:28:29.659Z"
}