{
  "contractName": "Migrations",
  "abi": [
    {
      "inputs": [],
      "payable": false,
      "stateMutability": "nonpayable",
      "type": "constructor"
    },
    {
      "anonymous": false,
      "inputs": [
        {
          "indexed": false,
          "internalType": "address",
          "name": "wallet",
          "type": "address"
        }
      ],
      "name": "SelfDestructionDisabledEvent",
      "type": "event"
    },
    {
      "anonymous": false,
      "inputs": [
        {
          "indexed": false,
          "internalType": "address",
          "name": "oldDeployer",
          "type": "address"
        },
        {
          "indexed": false,
          "internalType": "address",
          "name": "newDeployer",
          "type": "address"
        }
      ],
      "name": "SetDeployerEvent",
      "type": "event"
    },
    {
      "anonymous": false,
      "inputs": [
        {
          "indexed": false,
          "internalType": "address",
          "name": "oldOperator",
          "type": "address"
        },
        {
          "indexed": false,
          "internalType": "address",
          "name": "newOperator",
          "type": "address"
        }
      ],
      "name": "SetOperatorEvent",
      "type": "event"
    },
    {
      "anonymous": false,
      "inputs": [
        {
          "indexed": false,
          "internalType": "address",
          "name": "wallet",
          "type": "address"
        }
      ],
      "name": "TriggerSelfDestructionEvent",
      "type": "event"
    },
    {
      "constant": true,
      "inputs": [],
      "name": "deployer",
      "outputs": [
        {
          "internalType": "address",
          "name": "",
          "type": "address"
        }
      ],
      "payable": false,
      "stateMutability": "view",
      "type": "function"
    },
    {
      "constant": true,
      "inputs": [],
      "name": "destructor",
      "outputs": [
        {
          "internalType": "address",
          "name": "",
          "type": "address"
        }
      ],
      "payable": false,
      "stateMutability": "view",
      "type": "function"
    },
    {
      "constant": false,
      "inputs": [],
      "name": "disableSelfDestruction",
      "outputs": [],
      "payable": false,
      "stateMutability": "nonpayable",
      "type": "function"
    },
    {
      "constant": true,
      "inputs": [],
      "name": "last_completed_migration",
      "outputs": [
        {
          "internalType": "uint256",
          "name": "",
          "type": "uint256"
        }
      ],
      "payable": false,
      "stateMutability": "view",
      "type": "function"
    },
    {
      "constant": true,
      "inputs": [],
      "name": "operator",
      "outputs": [
        {
          "internalType": "address",
          "name": "",
          "type": "address"
        }
      ],
      "payable": false,
      "stateMutability": "view",
      "type": "function"
    },
    {
      "constant": true,
      "inputs": [],
      "name": "selfDestructionDisabled",
      "outputs": [
        {
          "internalType": "bool",
          "name": "",
          "type": "bool"
        }
      ],
      "payable": false,
      "stateMutability": "view",
      "type": "function"
    },
    {
      "constant": false,
      "inputs": [
        {
          "internalType": "address",
          "name": "newDeployer",
          "type": "address"
        }
      ],
      "name": "setDeployer",
      "outputs": [],
      "payable": false,
      "stateMutability": "nonpayable",
      "type": "function"
    },
    {
      "constant": false,
      "inputs": [
        {
          "internalType": "address",
          "name": "newOperator",
          "type": "address"
        }
      ],
      "name": "setOperator",
      "outputs": [],
      "payable": false,
      "stateMutability": "nonpayable",
      "type": "function"
    },
    {
      "constant": false,
      "inputs": [],
      "name": "triggerSelfDestruction",
      "outputs": [],
      "payable": false,
      "stateMutability": "nonpayable",
      "type": "function"
    },
    {
      "constant": false,
      "inputs": [
        {
          "internalType": "uint256",
          "name": "completed",
          "type": "uint256"
        }
      ],
      "name": "setCompleted",
      "outputs": [],
      "payable": false,
      "stateMutability": "nonpayable",
      "type": "function"
    },
    {
      "constant": false,
      "inputs": [
        {
          "internalType": "address",
          "name": "newAddress",
          "type": "address"
        }
      ],
      "name": "upgrade",
      "outputs": [],
      "payable": false,
      "stateMutability": "nonpayable",
      "type": "function"
    }
  ],
  "bytecode": "0x608060405234801561001057600080fd5b5033808061001d57600080fd5b6001600160a01b03811630141561003357600080fd5b50600080546001600160a01b039092166101008102610100600160a81b0319909316929092179055600180546001600160a01b03191690911790556105138061007d6000396000f3fe608060405234801561001057600080fd5b50600436106100995760003560e01c80630900f0101461009e5780632738a112146100c65780632f013a00146100ce578063445df0ac146100ea5780634476d23b14610104578063570ca7351461012857806370327ea1146101305780639621473514610138578063b3ab15fb1461015e578063d5f3948814610184578063fdacd5761461018c575b600080fd5b6100c4600480360360208110156100b457600080fd5b50356001600160a01b03166101a9565b005b6100c4610223565b6100d6610285565b604080519115158252519081900360200190f35b6100f261028e565b60408051918252519081900360200190f35b61010c610294565b604080516001600160a01b039092168252519081900360200190f35b61010c6102a8565b6100c46102b7565b6100c46004803603602081101561014e57600080fd5b50356001600160a01b0316610315565b6100c46004803603602081101561017457600080fd5b50356001600160a01b03166103d9565b61010c61048d565b6100c4600480360360208110156101a257600080fd5b50356104a1565b6101b16104b7565b6101ba57600080fd5b6000819050806001600160a01b031663fdacd5766002546040518263ffffffff1660e01b815260040180828152602001915050600060405180830381600087803b15801561020757600080fd5b505af115801561021b573d6000803e3d6000fd5b505050505050565b3361022c610294565b6001600160a01b03161461023f57600080fd5b60005460ff161561024f57600080fd5b6040805133815290517f787a5d936e74f4b564b9153575886059829c78cd9927b1be5e0d976b317ef7369181900360200190a133ff5b60005460ff1681565b60025481565b60005461010090046001600160a01b031690565b6001546001600160a01b031681565b336102c0610294565b6001600160a01b0316146102d357600080fd5b6000805460ff191660011790556040805133815290517fd5a2a04a775c741c2ca0dc46ea7ce4835190e1aaf1ca018def0e82568ec336169181900360200190a1565b61031d6104b7565b61032657600080fd5b806001600160a01b03811661033a57600080fd5b6001600160a01b03811630141561035057600080fd5b6000546001600160a01b0383811661010090920416146103d557600080546001600160a01b03848116610100818102610100600160a81b03198516179094556040805194909304919091168084526020840191909152815190927f977e5fa58e458501775e0008d275006294c5249e3c08d1d0e3a9f3acad14f6e492908290030190a1505b5050565b6103e16104cd565b6103ea57600080fd5b806001600160a01b0381166103fe57600080fd5b6001600160a01b03811630141561041457600080fd5b6001546001600160a01b038381169116146103d557600180546001600160a01b038481166001600160a01b0319831681179093556040805191909216808252602082019390935281517f9f611b789425d0d5b90b920f1b2852907dd865c80074a30b1629aaa041d1812c929181900390910190a1505050565b60005461010090046001600160a01b031681565b6104a96104b7565b6104b257600080fd5b600255565b60005461010090046001600160a01b0316331490565b6001546001600160a01b031633149056fea265627a7a72315820cf8c666b07d5e8f86f976dad37af4625c099a3b3d8fa5b3f954dcc5769fedb9c64736f6c634300050c0032",
  "source": "/*\n * Hubii Nahmii\n *\n * Compliant with the Hubii Nahmii specification v0.12.\n *\n * Copyright (C) 2017-2018 Hubii AS\n */\n\npragma solidity >=0.4.25 <0.6.0;\n\nimport {Ownable} from \"./Ownable.sol\";\n\ncontract Migrations is Ownable {\n    //\n    // Variables\n    // -----------------------------------------------------------------------------------------------------------------\n    uint public last_completed_migration;\n\n    //\n    // Constructor\n    // -----------------------------------------------------------------------------------------------------------------\n    constructor() Ownable(msg.sender) public  {\n    }\n\n    //\n    // Functions\n    // -----------------------------------------------------------------------------------------------------------------\n    function setCompleted(uint completed)\n    public\n    onlyDeployer\n    {\n        last_completed_migration = completed;\n    }\n\n    function upgrade(address newAddress)\n    public\n    onlyDeployer\n    {\n        Migrations upgraded = Migrations(newAddress);\n        upgraded.setCompleted(last_completed_migration);\n    }\n}\n",
  "sourcePath": "/opt/buildagent/work/855e104608380c36/contracts/Migrations.sol",
  "compiler": {
    "name": "solc",
    "version": "0.5.12+commit.7709ece9.Emscripten.clang"
  },
  "schemaVersion": "2.0.3",
  "updatedAt": "2019-10-23T00:21:41.361Z"
}