{
  "contractName": "Migrations",
  "abi": [
    {
      "constant": false,
      "inputs": [],
      "name": "triggerSelfDestruction",
      "outputs": [],
      "payable": false,
      "stateMutability": "nonpayable",
      "type": "function"
    },
    {
      "constant": true,
      "inputs": [],
      "name": "selfDestructionDisabled",
      "outputs": [
        {
          "name": "",
          "type": "bool"
        }
      ],
      "payable": false,
      "stateMutability": "view",
      "type": "function"
    },
    {
      "constant": true,
      "inputs": [],
      "name": "last_completed_migration",
      "outputs": [
        {
          "name": "",
          "type": "uint256"
        }
      ],
      "payable": false,
      "stateMutability": "view",
      "type": "function"
    },
    {
      "constant": true,
      "inputs": [],
      "name": "destructor",
      "outputs": [
        {
          "name": "",
          "type": "address"
        }
      ],
      "payable": false,
      "stateMutability": "view",
      "type": "function"
    },
    {
      "constant": true,
      "inputs": [],
      "name": "operator",
      "outputs": [
        {
          "name": "",
          "type": "address"
        }
      ],
      "payable": false,
      "stateMutability": "view",
      "type": "function"
    },
    {
      "constant": false,
      "inputs": [],
      "name": "disableSelfDestruction",
      "outputs": [],
      "payable": false,
      "stateMutability": "nonpayable",
      "type": "function"
    },
    {
      "constant": false,
      "inputs": [
        {
          "name": "newDeployer",
          "type": "address"
        }
      ],
      "name": "setDeployer",
      "outputs": [],
      "payable": false,
      "stateMutability": "nonpayable",
      "type": "function"
    },
    {
      "constant": false,
      "inputs": [
        {
          "name": "newOperator",
          "type": "address"
        }
      ],
      "name": "setOperator",
      "outputs": [],
      "payable": false,
      "stateMutability": "nonpayable",
      "type": "function"
    },
    {
      "constant": true,
      "inputs": [],
      "name": "deployer",
      "outputs": [
        {
          "name": "",
          "type": "address"
        }
      ],
      "payable": false,
      "stateMutability": "view",
      "type": "function"
    },
    {
      "inputs": [],
      "payable": false,
      "stateMutability": "nonpayable",
      "type": "constructor"
    },
    {
      "anonymous": false,
      "inputs": [
        {
          "indexed": false,
          "name": "oldDeployer",
          "type": "address"
        },
        {
          "indexed": false,
          "name": "newDeployer",
          "type": "address"
        }
      ],
      "name": "SetDeployerEvent",
      "type": "event"
    },
    {
      "anonymous": false,
      "inputs": [
        {
          "indexed": false,
          "name": "oldOperator",
          "type": "address"
        },
        {
          "indexed": false,
          "name": "newOperator",
          "type": "address"
        }
      ],
      "name": "SetOperatorEvent",
      "type": "event"
    },
    {
      "anonymous": false,
      "inputs": [
        {
          "indexed": false,
          "name": "wallet",
          "type": "address"
        }
      ],
      "name": "SelfDestructionDisabledEvent",
      "type": "event"
    },
    {
      "anonymous": false,
      "inputs": [
        {
          "indexed": false,
          "name": "wallet",
          "type": "address"
        }
      ],
      "name": "TriggerSelfDestructionEvent",
      "type": "event"
    },
    {
      "constant": false,
      "inputs": [
        {
          "name": "completed",
          "type": "uint256"
        }
      ],
      "name": "setCompleted",
      "outputs": [],
      "payable": false,
      "stateMutability": "nonpayable",
      "type": "function"
    },
    {
      "constant": false,
      "inputs": [
        {
          "name": "newAddress",
          "type": "address"
        }
      ],
      "name": "upgrade",
      "outputs": [],
      "payable": false,
      "stateMutability": "nonpayable",
      "type": "function"
    }
  ],
  "bytecode": "0x608060405234801561001057600080fd5b50338080151561001f57600080fd5b600160a060020a03811630141561003557600080fd5b5060008054600160a060020a03909216610100810261010060a860020a031990931692909217905560018054600160a060020a03191690911790556105658061007f6000396000f3006080604052600436106100955763ffffffff60e060020a6000350416630900f010811461009a5780632738a112146100bd5780632f013a00146100d2578063445df0ac146100fb5780634476d23b14610122578063570ca7351461015357806370327ea114610168578063962147351461017d578063b3ab15fb1461019e578063d5f39488146101bf578063fdacd576146101d4575b600080fd5b3480156100a657600080fd5b506100bb600160a060020a03600435166101ec565b005b3480156100c957600080fd5b506100bb61026b565b3480156100de57600080fd5b506100e76102cd565b604080519115158252519081900360200190f35b34801561010757600080fd5b506101106102d6565b60408051918252519081900360200190f35b34801561012e57600080fd5b506101376102dc565b60408051600160a060020a039092168252519081900360200190f35b34801561015f57600080fd5b506101376102f0565b34801561017457600080fd5b506100bb6102ff565b34801561018957600080fd5b506100bb600160a060020a036004351661035d565b3480156101aa57600080fd5b506100bb600160a060020a0360043516610429565b3480156101cb57600080fd5b506101376104e6565b3480156101e057600080fd5b506100bb6004356104fa565b60006101f6610512565b151561020157600080fd5b81905080600160a060020a031663fdacd5766002546040518263ffffffff1660e060020a02815260040180828152602001915050600060405180830381600087803b15801561024f57600080fd5b505af1158015610263573d6000803e3d6000fd5b505050505050565b336102746102dc565b600160a060020a03161461028757600080fd5b60005460ff161561029757600080fd5b6040805133815290517f787a5d936e74f4b564b9153575886059829c78cd9927b1be5e0d976b317ef7369181900360200190a133ff5b60005460ff1681565b60025481565b6000546101009004600160a060020a031690565b600154600160a060020a031681565b336103086102dc565b600160a060020a03161461031b57600080fd5b6000805460ff191660011790556040805133815290517fd5a2a04a775c741c2ca0dc46ea7ce4835190e1aaf1ca018def0e82568ec336169181900360200190a1565b6000610367610512565b151561037257600080fd5b81600160a060020a038116151561038857600080fd5b600160a060020a03811630141561039e57600080fd5b600054600160a060020a0384811661010090920416146104245760008054600160a060020a0385811661010081810261010060a860020a0319851617909455604080519490930491909116808452602084019190915281519094507f977e5fa58e458501775e0008d275006294c5249e3c08d1d0e3a9f3acad14f6e49281900390910190a15b505050565b6000610433610528565b151561043e57600080fd5b81600160a060020a038116151561045457600080fd5b600160a060020a03811630141561046a57600080fd5b600154600160a060020a038481169116146104245760018054600160a060020a03858116600160a060020a0319831681179093556040805191909216808252602082019390935281519294507f9f611b789425d0d5b90b920f1b2852907dd865c80074a30b1629aaa041d1812c929081900390910190a1505050565b6000546101009004600160a060020a031681565b610502610512565b151561050d57600080fd5b600255565b6000546101009004600160a060020a0316331490565b600154600160a060020a03163314905600a165627a7a72305820c13f0ac840258f4380604a3dc5bc618f6fc0aaa3029ffd8d3bcb073deccb82120029",
  "source": "/*\n * Hubii Nahmii\n *\n * Compliant with the Hubii Nahmii specification v0.12.\n *\n * Copyright (C) 2017-2018 Hubii AS\n */\n\npragma solidity ^0.4.25;\n\nimport {Ownable} from \"./Ownable.sol\";\n\ncontract Migrations is Ownable {\n    //\n    // Variables\n    // -----------------------------------------------------------------------------------------------------------------\n    uint public last_completed_migration;\n\n    //\n    // Constructor\n    // -----------------------------------------------------------------------------------------------------------------\n    constructor() Ownable(msg.sender) public  {\n    }\n\n    //\n    // Functions\n    // -----------------------------------------------------------------------------------------------------------------\n    function setCompleted(uint completed)\n    public\n    onlyDeployer\n    {\n        last_completed_migration = completed;\n    }\n\n    function upgrade(address newAddress)\n    public\n    onlyDeployer\n    {\n        Migrations upgraded = Migrations(newAddress);\n        upgraded.setCompleted(last_completed_migration);\n    }\n}\n",
  "sourcePath": "/opt/buildagent/work/855e104608380c36/contracts/Migrations.sol",
  "compiler": {
    "name": "solc",
    "version": "0.4.25+commit.59dbf8f1.Emscripten.clang"
  },
  "schemaVersion": "2.0.2",
  "updatedAt": "2019-04-02T08:24:32.529Z"
}