{
  "contractName": "MockedRevenueTokenManager",
  "abi": [
    {
      "constant": true,
      "inputs": [],
      "name": "_releasedAmountBlocksIn",
      "outputs": [
        {
          "name": "",
          "type": "uint256"
        }
      ],
      "payable": false,
      "stateMutability": "view",
      "type": "function"
    },
    {
      "constant": true,
      "inputs": [],
      "name": "token",
      "outputs": [
        {
          "name": "",
          "type": "address"
        }
      ],
      "payable": false,
      "stateMutability": "view",
      "type": "function"
    },
    {
      "inputs": [],
      "payable": false,
      "stateMutability": "nonpayable",
      "type": "constructor"
    },
    {
      "constant": false,
      "inputs": [],
      "name": "_reset",
      "outputs": [],
      "payable": false,
      "stateMutability": "nonpayable",
      "type": "function"
    },
    {
      "constant": true,
      "inputs": [
        {
          "name": "",
          "type": "uint256"
        },
        {
          "name": "",
          "type": "uint256"
        }
      ],
      "name": "releasedAmountBlocksIn",
      "outputs": [
        {
          "name": "",
          "type": "uint256"
        }
      ],
      "payable": false,
      "stateMutability": "view",
      "type": "function"
    },
    {
      "constant": false,
      "inputs": [
        {
          "name": "_rabIn",
          "type": "uint256"
        }
      ],
      "name": "_setReleasedAmountBlocksIn",
      "outputs": [],
      "payable": false,
      "stateMutability": "nonpayable",
      "type": "function"
    }
  ],
  "bytecode": "0x608060405234801561001057600080fd5b5061001961005b565b604051809103906000f080158015610035573d6000803e3d6000fd5b5060008054600160a060020a031916600160a060020a039290921691909117905561006b565b6040516102088061029c83390190565b6102228061007a6000396000f3006080604052600436106100535763ffffffff60e060020a6000350416631592f0ab81146100585780637603a7fd1461006f57806385a4757e1461008f578063e96e8695146100c5578063fc0c546a146100da575b600080fd5b34801561006457600080fd5b5061006d6100fc565b005b34801561007b57600080fd5b5061006d61008a36600461013a565b610103565b34801561009b57600080fd5b506100af6100aa366004610160565b610108565b6040516100bc91906101c0565b60405180910390f35b3480156100d157600080fd5b506100af610112565b3480156100e657600080fd5b506100ef610118565b6040516100bc91906101b2565b6000600155565b600155565b6001545b92915050565b60015481565b600054600160a060020a031681565b600061013382356101da565b9392505050565b60006020828403121561014c57600080fd5b60006101588484610127565b949350505050565b6000806040838503121561017357600080fd5b600061017f8585610127565b925050602061019085828601610127565b9150509250929050565b6101a3816101dd565b82525050565b6101a3816101da565b6020810161010c828461019a565b6020810161010c82846101a9565b600160a060020a031690565b90565b600061010c826101ce5600a265627a7a72305820ef0fc771afcd498311a6d94acef3bde051d20ed4e7a2d471c447ceb81f0715b76c6578706572696d656e74616cf50037608060405234801561001057600080fd5b506101e8806100206000396000f3006080604052600436106100485763ffffffff60e060020a6000350416631592f0ab811461004d57806355f729c81461006457806394c9446e1461008f578063a52079ea146100af575b600080fd5b34801561005957600080fd5b506100626100cf565b005b34801561007057600080fd5b506100796100d5565b604051610086919061018b565b60405180910390f35b34801561009b57600080fd5b506100626100aa366004610156565b6100db565b3480156100bb57600080fd5b506100796100ca366004610109565b6100e0565b60008055565b60005481565b600055565b6000549392505050565b60006100f682356101a2565b9392505050565b60006100f6823561019f565b60008060006060848603121561011e57600080fd5b600061012a86866100ea565b935050602061013b868287016100fd565b925050604061014c868287016100fd565b9150509250925092565b60006020828403121561016857600080fd5b600061017484846100fd565b949350505050565b6101858161019f565b82525050565b60208101610199828461017c565b92915050565b90565b600160a060020a0316905600a265627a7a72305820a69c4a6fb8a867da25cbe99a38d95e8cdeef384ff9ffcf8ba03d7970e415d5486c6578706572696d656e74616cf50037",
  "source": "/*\n * Hubii Nahmii\n *\n * Compliant with the Hubii Nahmii specification v0.12.\n *\n * Copyright (C) 2017-2018 Hubii AS\n */\n\npragma solidity ^0.4.25;\npragma experimental ABIEncoderV2;\n\nimport {MockedRevenueToken} from \"./MockedRevenueToken.sol\";\n\n/**\n * @title MockedRevenueTokenManager\n * @notice Mocked implementation of RevenueTokenManager\n */\ncontract MockedRevenueTokenManager {\n    //\n    // Variables\n    // -----------------------------------------------------------------------------------------------------------------\n    MockedRevenueToken public token;\n    uint256 public _releasedAmountBlocksIn;\n\n    //\n    // Constructor\n    // -----------------------------------------------------------------------------------------------------------------\n    constructor() public\n    {\n        token = new MockedRevenueToken();\n    }\n\n    //\n    // Functions\n    // -----------------------------------------------------------------------------------------------------------------\n    function _reset()\n    public\n    {\n        _releasedAmountBlocksIn = 0;\n    }\n\n    function releasedAmountBlocksIn(uint256, uint256)\n    public\n    view\n    returns (uint256)\n    {\n        return _releasedAmountBlocksIn;\n    }\n\n    function _setReleasedAmountBlocksIn(uint256 _rabIn)\n    public\n    {\n        _releasedAmountBlocksIn = _rabIn;\n    }\n}\n",
  "sourcePath": "/opt/buildagent/work/855e104608380c36/contracts/test/MockedRevenueTokenManager.sol",
  "compiler": {
    "name": "solc",
    "version": "0.4.25+commit.59dbf8f1.Emscripten.clang"
  },
  "schemaVersion": "2.0.2",
  "updatedAt": "2019-04-02T06:20:37.134Z"
}