{
  "contractName": "MockedSecurityBondService",
  "abi": [
    {
      "inputs": [
        {
          "internalType": "address",
          "name": "deployer",
          "type": "address"
        }
      ],
      "payable": false,
      "stateMutability": "nonpayable",
      "type": "constructor"
    },
    {
      "anonymous": false,
      "inputs": [
        {
          "indexed": false,
          "internalType": "address",
          "name": "wallet",
          "type": "address"
        }
      ],
      "name": "SelfDestructionDisabledEvent",
      "type": "event"
    },
    {
      "anonymous": false,
      "inputs": [
        {
          "indexed": false,
          "internalType": "address",
          "name": "oldDeployer",
          "type": "address"
        },
        {
          "indexed": false,
          "internalType": "address",
          "name": "newDeployer",
          "type": "address"
        }
      ],
      "name": "SetDeployerEvent",
      "type": "event"
    },
    {
      "anonymous": false,
      "inputs": [
        {
          "indexed": false,
          "internalType": "address",
          "name": "oldOperator",
          "type": "address"
        },
        {
          "indexed": false,
          "internalType": "address",
          "name": "newOperator",
          "type": "address"
        }
      ],
      "name": "SetOperatorEvent",
      "type": "event"
    },
    {
      "anonymous": false,
      "inputs": [
        {
          "indexed": false,
          "internalType": "contract SecurityBond",
          "name": "oldSecurityBond",
          "type": "address"
        },
        {
          "indexed": false,
          "internalType": "contract SecurityBond",
          "name": "newSecurityBond",
          "type": "address"
        }
      ],
      "name": "SetSecurityBondEvent",
      "type": "event"
    },
    {
      "anonymous": false,
      "inputs": [
        {
          "indexed": false,
          "internalType": "address",
          "name": "wallet",
          "type": "address"
        }
      ],
      "name": "TriggerSelfDestructionEvent",
      "type": "event"
    },
    {
      "constant": true,
      "inputs": [],
      "name": "deployer",
      "outputs": [
        {
          "internalType": "address",
          "name": "",
          "type": "address"
        }
      ],
      "payable": false,
      "stateMutability": "view",
      "type": "function"
    },
    {
      "constant": true,
      "inputs": [],
      "name": "destructor",
      "outputs": [
        {
          "internalType": "address",
          "name": "",
          "type": "address"
        }
      ],
      "payable": false,
      "stateMutability": "view",
      "type": "function"
    },
    {
      "constant": false,
      "inputs": [],
      "name": "disableSelfDestruction",
      "outputs": [],
      "payable": false,
      "stateMutability": "nonpayable",
      "type": "function"
    },
    {
      "constant": true,
      "inputs": [],
      "name": "operator",
      "outputs": [
        {
          "internalType": "address",
          "name": "",
          "type": "address"
        }
      ],
      "payable": false,
      "stateMutability": "view",
      "type": "function"
    },
    {
      "constant": true,
      "inputs": [],
      "name": "securityBond",
      "outputs": [
        {
          "internalType": "contract SecurityBond",
          "name": "",
          "type": "address"
        }
      ],
      "payable": false,
      "stateMutability": "view",
      "type": "function"
    },
    {
      "constant": true,
      "inputs": [],
      "name": "selfDestructionDisabled",
      "outputs": [
        {
          "internalType": "bool",
          "name": "",
          "type": "bool"
        }
      ],
      "payable": false,
      "stateMutability": "view",
      "type": "function"
    },
    {
      "constant": false,
      "inputs": [
        {
          "internalType": "address",
          "name": "newDeployer",
          "type": "address"
        }
      ],
      "name": "setDeployer",
      "outputs": [],
      "payable": false,
      "stateMutability": "nonpayable",
      "type": "function"
    },
    {
      "constant": false,
      "inputs": [
        {
          "internalType": "address",
          "name": "newOperator",
          "type": "address"
        }
      ],
      "name": "setOperator",
      "outputs": [],
      "payable": false,
      "stateMutability": "nonpayable",
      "type": "function"
    },
    {
      "constant": false,
      "inputs": [
        {
          "internalType": "contract SecurityBond",
          "name": "newSecurityBond",
          "type": "address"
        }
      ],
      "name": "setSecurityBond",
      "outputs": [],
      "payable": false,
      "stateMutability": "nonpayable",
      "type": "function"
    },
    {
      "constant": false,
      "inputs": [],
      "name": "triggerSelfDestruction",
      "outputs": [],
      "payable": false,
      "stateMutability": "nonpayable",
      "type": "function"
    },
    {
      "constant": false,
      "inputs": [
        {
          "internalType": "address",
          "name": "wallet",
          "type": "address"
        },
        {
          "internalType": "uint256",
          "name": "fraction",
          "type": "uint256"
        },
        {
          "internalType": "uint256",
          "name": "unlockTimeoutInSeconds",
          "type": "uint256"
        }
      ],
      "name": "rewardFractional",
      "outputs": [],
      "payable": false,
      "stateMutability": "nonpayable",
      "type": "function"
    },
    {
      "constant": false,
      "inputs": [
        {
          "internalType": "address",
          "name": "wallet",
          "type": "address"
        },
        {
          "internalType": "int256",
          "name": "amount",
          "type": "int256"
        },
        {
          "internalType": "address",
          "name": "currencyCt",
          "type": "address"
        },
        {
          "internalType": "uint256",
          "name": "currencyId",
          "type": "uint256"
        },
        {
          "internalType": "uint256",
          "name": "unlockTimeoutInSeconds",
          "type": "uint256"
        }
      ],
      "name": "rewardAbsolute",
      "outputs": [],
      "payable": false,
      "stateMutability": "nonpayable",
      "type": "function"
    },
    {
      "constant": false,
      "inputs": [
        {
          "internalType": "address",
          "name": "wallet",
          "type": "address"
        }
      ],
      "name": "depriveFractional",
      "outputs": [],
      "payable": false,
      "stateMutability": "nonpayable",
      "type": "function"
    },
    {
      "constant": false,
      "inputs": [
        {
          "internalType": "address",
          "name": "wallet",
          "type": "address"
        },
        {
          "internalType": "address",
          "name": "currencyCt",
          "type": "address"
        },
        {
          "internalType": "uint256",
          "name": "currencyId",
          "type": "uint256"
        }
      ],
      "name": "depriveAbsolute",
      "outputs": [],
      "payable": false,
      "stateMutability": "nonpayable",
      "type": "function"
    }
  ],
  "bytecode": "0x608060405234801561001057600080fd5b50604051610aa3380380610aa383398101604081905261002f916100a9565b80806001600160a01b03811661004457600080fd5b6001600160a01b03811630141561005a57600080fd5b5060008054610100600160a81b0319166101006001600160a01b0393909316928302179055600180546001600160a01b0319169091179055506100f7565b80516100a3816100e0565b92915050565b6000602082840312156100bb57600080fd5b60006100c78484610098565b949350505050565b60006001600160a01b0382166100a3565b6100e9816100cf565b81146100f457600080fd5b50565b61099d806101066000396000f3fe608060405234801561001057600080fd5b50600436106100ba5760003560e01c80632738a112146100bf5780632f013a00146100c95780634476d23b146100e75780634e791e0d146100fc578063570ca7351461010f578063574c508c146101175780636792ce6e1461012a5780636b0570d01461013d57806370327ea114610152578063760b82921461015a578063832f78321461016d5780639621473514610180578063b3ab15fb14610193578063d5f39488146101a6575b600080fd5b6100c76101ae565b005b6100d1610214565b6040516100de91906108c5565b60405180910390f35b6100ef61021d565b6040516100de91906107f8565b6100c761010a3660046106b3565b610231565b6100ef61029c565b6100c761012536600461068d565b6102ab565b6100c76101383660046107a7565b610310565b6101456103b1565b6040516100de91906108d3565b6100c76103c0565b6100c7610168366004610775565b610423565b6100c761017b366004610700565b610457565b6100c761018e36600461068d565b6104c8565b6100c76101a136600461068d565b610588565b6100ef61062b565b336101b761021d565b6001600160a01b0316146101ca57600080fd5b60005460ff16156101da57600080fd5b7f787a5d936e74f4b564b9153575886059829c78cd9927b1be5e0d976b317ef736336040516102099190610806565b60405180910390a133ff5b60005460ff1681565b60005461010090046001600160a01b031690565b600254604051634e791e0d60e01b81526001600160a01b0390911690634e791e0d9061026590869086908690600401610836565b600060405180830381600087803b15801561027f57600080fd5b505af1158015610293573d6000803e3d6000fd5b50505050505050565b6001546001600160a01b031681565b6002546040516315d3142360e21b81526001600160a01b039091169063574c508c906102db9084906004016107f8565b600060405180830381600087803b1580156102f557600080fd5b505af1158015610309573d6000803e3d6000fd5b5050505050565b61031861063f565b61032157600080fd5b806001600160a01b03811661033557600080fd5b60025482906001600160a01b0390811690821681146103ab57600280546001600160a01b038681166001600160a01b03198316179092556040519116907fc9f3f00c1760fe26985aeacb814a21c56ea289d680562e89b249681b08c30382906103a190839088906108e1565b60405180910390a1505b50505050565b6002546001600160a01b031681565b336103c961021d565b6001600160a01b0316146103dc57600080fd5b6000805460ff191660011790556040517fd5a2a04a775c741c2ca0dc46ea7ce4835190e1aaf1ca018def0e82568ec3361690610419903390610806565b60405180910390a1565b600254604051633b05c14960e11b81526001600160a01b039091169063760b829290610265908690869086906004016108aa565b600254604051634197bc1960e11b81526001600160a01b039091169063832f78329061048f908890889088908890889060040161085e565b600060405180830381600087803b1580156104a957600080fd5b505af11580156104bd573d6000803e3d6000fd5b505050505050505050565b6104d061063f565b6104d957600080fd5b806001600160a01b0381166104ed57600080fd5b6001600160a01b03811630141561050357600080fd5b6000546001600160a01b03838116610100909204161461058457600080546001600160a01b03848116610100908102610100600160a81b03198416179093556040519290910416907f977e5fa58e458501775e0008d275006294c5249e3c08d1d0e3a9f3acad14f6e49061057a9083908690610814565b60405180910390a1505b5050565b610590610655565b61059957600080fd5b806001600160a01b0381166105ad57600080fd5b6001600160a01b0381163014156105c357600080fd5b6001546001600160a01b0383811691161461058457600180546001600160a01b038481166001600160a01b03198316179092556040519116907f9f611b789425d0d5b90b920f1b2852907dd865c80074a30b1629aaa041d1812c9061057a9083908690610814565b60005461010090046001600160a01b031681565b60005461010090046001600160a01b0316331490565b6001546001600160a01b0316331490565b803561067181610931565b92915050565b803561067181610948565b803561067181610951565b60006020828403121561069f57600080fd5b60006106ab8484610666565b949350505050565b6000806000606084860312156106c857600080fd5b60006106d48686610666565b93505060206106e586828701610666565b92505060406106f686828701610682565b9150509250925092565b600080600080600060a0868803121561071857600080fd5b60006107248888610666565b955050602061073588828901610682565b945050604061074688828901610666565b935050606061075788828901610682565b925050608061076888828901610682565b9150509295509295909350565b60008060006060848603121561078a57600080fd5b60006107968686610666565b93505060206106e586828701610682565b6000602082840312156107b957600080fd5b60006106ab8484610677565b6107ce81610926565b82525050565b6107ce816108fc565b6107ce81610907565b6107ce8161090c565b6107ce81610917565b6020810161067182846107d4565b6020810161067182846107c5565b6040810161082282856107d4565b61082f60208301846107d4565b9392505050565b6060810161084482866107d4565b61085160208301856107d4565b6106ab60408301846107ef565b60a0810161086c82886107d4565b61087960208301876107ef565b61088660408301866107d4565b61089360608301856107ef565b6108a060808301846107ef565b9695505050505050565b606081016108b882866107d4565b61085160208301856107ef565b6020810161067182846107dd565b6020810161067182846107e6565b604081016108ef82856107e6565b61082f60208301846107e6565b60006106718261091a565b151590565b6000610671826108fc565b90565b6001600160a01b031690565b60006106718261090c565b61093a816108fc565b811461094557600080fd5b50565b61093a8161090c565b61093a8161091756fea365627a7a72315820a2159ed089a8f6a3a6c29243c9df82c090ef1556457dce3079f9e15fba5d55456c6578706572696d656e74616cf564736f6c634300050c0040",
  "source": "/*\n * Hubii Nahmii\n *\n * Compliant with the Hubii Nahmii specification v0.12.\n *\n * Copyright (C) 2017-2018 Hubii AS\n */\n\npragma solidity >=0.4.25 <0.6.0;\npragma experimental ABIEncoderV2;\n\nimport {Ownable} from \"../Ownable.sol\";\nimport {SecurityBondable} from \"../SecurityBondable.sol\";\nimport {Beneficiary} from \"../Beneficiary.sol\";\n\n/**\n * @title MockedSecurityBondService\n * @notice Mocked implementation of service contract that interacts with SecurityBond\n */\ncontract MockedSecurityBondService is Ownable, SecurityBondable {\n    //\n    // Constructor\n    // -----------------------------------------------------------------------------------------------------------------\n    constructor(address deployer) Ownable(deployer) public {\n    }\n\n    //\n    // Functions\n    // -----------------------------------------------------------------------------------------------------------------\n    function rewardFractional(address wallet, uint256 fraction, uint256 unlockTimeoutInSeconds)\n    public\n    {\n        securityBond.rewardFractional(wallet, fraction, unlockTimeoutInSeconds);\n    }\n\n    function rewardAbsolute(address wallet, int256 amount, address currencyCt, uint256 currencyId,\n        uint256 unlockTimeoutInSeconds)\n    public\n    {\n        securityBond.rewardAbsolute(wallet, amount, currencyCt, currencyId, unlockTimeoutInSeconds);\n    }\n\n    function depriveFractional(address wallet)\n    public\n    {\n        securityBond.depriveFractional(wallet);\n    }\n\n    function depriveAbsolute(address wallet, address currencyCt, uint256 currencyId)\n    public\n    {\n        securityBond.depriveAbsolute(wallet, currencyCt, currencyId);\n    }\n}",
  "sourcePath": "/opt/buildagent/work/855e104608380c36/contracts/test/MockedSecurityBondService.sol",
  "compiler": {
    "name": "solc",
    "version": "0.5.12+commit.7709ece9.Emscripten.clang"
  },
  "schemaVersion": "2.0.3",
  "updatedAt": "2019-10-22T21:00:29.590Z"
}