{
  "contractName": "MockedClientFund",
  "abi": [
    {
      "anonymous": false,
      "inputs": [
        {
          "indexed": false,
          "internalType": "address",
          "name": "lockedWallet",
          "type": "address"
        },
        {
          "indexed": false,
          "internalType": "address",
          "name": "lockerWallet",
          "type": "address"
        }
      ],
      "name": "LockBalancesEvent",
      "type": "event"
    },
    {
      "anonymous": false,
      "inputs": [
        {
          "indexed": false,
          "internalType": "address",
          "name": "wallet",
          "type": "address"
        },
        {
          "indexed": false,
          "internalType": "int256",
          "name": "value",
          "type": "int256"
        },
        {
          "indexed": false,
          "internalType": "address",
          "name": "currencyCt",
          "type": "address"
        },
        {
          "indexed": false,
          "internalType": "uint256",
          "name": "currencyId",
          "type": "uint256"
        },
        {
          "indexed": false,
          "internalType": "string",
          "name": "standard",
          "type": "string"
        }
      ],
      "name": "StageEvent",
      "type": "event"
    },
    {
      "anonymous": false,
      "inputs": [
        {
          "indexed": false,
          "internalType": "address",
          "name": "sourceWallet",
          "type": "address"
        },
        {
          "indexed": false,
          "internalType": "contract Beneficiary",
          "name": "beneficiary",
          "type": "address"
        },
        {
          "indexed": false,
          "internalType": "int256",
          "name": "value",
          "type": "int256"
        },
        {
          "indexed": false,
          "internalType": "address",
          "name": "currencyCt",
          "type": "address"
        },
        {
          "indexed": false,
          "internalType": "uint256",
          "name": "currencyId",
          "type": "uint256"
        },
        {
          "indexed": false,
          "internalType": "string",
          "name": "standard",
          "type": "string"
        }
      ],
      "name": "StageToBeneficiaryEvent",
      "type": "event"
    },
    {
      "anonymous": false,
      "inputs": [
        {
          "indexed": false,
          "internalType": "address",
          "name": "wallet",
          "type": "address"
        },
        {
          "indexed": false,
          "internalType": "contract Beneficiary",
          "name": "beneficiary",
          "type": "address"
        },
        {
          "indexed": false,
          "internalType": "int256",
          "name": "value",
          "type": "int256"
        },
        {
          "indexed": false,
          "internalType": "address",
          "name": "currencyCt",
          "type": "address"
        },
        {
          "indexed": false,
          "internalType": "uint256",
          "name": "currencyId",
          "type": "uint256"
        },
        {
          "indexed": false,
          "internalType": "string",
          "name": "standard",
          "type": "string"
        }
      ],
      "name": "TransferToBeneficiaryEvent",
      "type": "event"
    },
    {
      "anonymous": false,
      "inputs": [
        {
          "indexed": false,
          "internalType": "address",
          "name": "lockedWallet",
          "type": "address"
        },
        {
          "indexed": false,
          "internalType": "address",
          "name": "lockerWallet",
          "type": "address"
        }
      ],
      "name": "UnlockBalancesEvent",
      "type": "event"
    },
    {
      "anonymous": false,
      "inputs": [
        {
          "indexed": false,
          "internalType": "address",
          "name": "wallet",
          "type": "address"
        },
        {
          "indexed": false,
          "internalType": "int256",
          "name": "value",
          "type": "int256"
        },
        {
          "indexed": false,
          "internalType": "address",
          "name": "currencyCt",
          "type": "address"
        },
        {
          "indexed": false,
          "internalType": "uint256",
          "name": "currencyId",
          "type": "uint256"
        }
      ],
      "name": "UpdateSettledBalanceEvent",
      "type": "event"
    },
    {
      "constant": true,
      "inputs": [
        {
          "internalType": "uint256",
          "name": "",
          "type": "uint256"
        }
      ],
      "name": "beneficiaryTransfers",
      "outputs": [
        {
          "internalType": "address",
          "name": "sourceWallet",
          "type": "address"
        },
        {
          "internalType": "address",
          "name": "targetWallet",
          "type": "address"
        },
        {
          "components": [
            {
              "internalType": "int256",
              "name": "amount",
              "type": "int256"
            },
            {
              "components": [
                {
                  "internalType": "address",
                  "name": "ct",
                  "type": "address"
                },
                {
                  "internalType": "uint256",
                  "name": "id",
                  "type": "uint256"
                }
              ],
              "internalType": "struct MonetaryTypesLib.Currency",
              "name": "currency",
              "type": "tuple"
            }
          ],
          "internalType": "struct MonetaryTypesLib.Figure",
          "name": "figure",
          "type": "tuple"
        },
        {
          "internalType": "string",
          "name": "standard",
          "type": "string"
        },
        {
          "internalType": "uint256",
          "name": "blockNumber",
          "type": "uint256"
        }
      ],
      "payable": false,
      "stateMutability": "view",
      "type": "function"
    },
    {
      "constant": true,
      "inputs": [
        {
          "internalType": "uint256",
          "name": "",
          "type": "uint256"
        }
      ],
      "name": "settledBalanceUpdates",
      "outputs": [
        {
          "internalType": "address",
          "name": "sourceWallet",
          "type": "address"
        },
        {
          "internalType": "address",
          "name": "targetWallet",
          "type": "address"
        },
        {
          "components": [
            {
              "internalType": "int256",
              "name": "amount",
              "type": "int256"
            },
            {
              "components": [
                {
                  "internalType": "address",
                  "name": "ct",
                  "type": "address"
                },
                {
                  "internalType": "uint256",
                  "name": "id",
                  "type": "uint256"
                }
              ],
              "internalType": "struct MonetaryTypesLib.Currency",
              "name": "currency",
              "type": "tuple"
            }
          ],
          "internalType": "struct MonetaryTypesLib.Figure",
          "name": "figure",
          "type": "tuple"
        },
        {
          "internalType": "string",
          "name": "standard",
          "type": "string"
        },
        {
          "internalType": "uint256",
          "name": "blockNumber",
          "type": "uint256"
        }
      ],
      "payable": false,
      "stateMutability": "view",
      "type": "function"
    },
    {
      "constant": true,
      "inputs": [
        {
          "internalType": "uint256",
          "name": "",
          "type": "uint256"
        }
      ],
      "name": "stages",
      "outputs": [
        {
          "internalType": "address",
          "name": "sourceWallet",
          "type": "address"
        },
        {
          "internalType": "address",
          "name": "targetWallet",
          "type": "address"
        },
        {
          "components": [
            {
              "internalType": "int256",
              "name": "amount",
              "type": "int256"
            },
            {
              "components": [
                {
                  "internalType": "address",
                  "name": "ct",
                  "type": "address"
                },
                {
                  "internalType": "uint256",
                  "name": "id",
                  "type": "uint256"
                }
              ],
              "internalType": "struct MonetaryTypesLib.Currency",
              "name": "currency",
              "type": "tuple"
            }
          ],
          "internalType": "struct MonetaryTypesLib.Figure",
          "name": "figure",
          "type": "tuple"
        },
        {
          "internalType": "string",
          "name": "standard",
          "type": "string"
        },
        {
          "internalType": "uint256",
          "name": "blockNumber",
          "type": "uint256"
        }
      ],
      "payable": false,
      "stateMutability": "view",
      "type": "function"
    },
    {
      "constant": false,
      "inputs": [],
      "name": "_reset",
      "outputs": [],
      "payable": false,
      "stateMutability": "nonpayable",
      "type": "function"
    },
    {
      "constant": false,
      "inputs": [
        {
          "internalType": "address",
          "name": "wallet",
          "type": "address"
        },
        {
          "internalType": "int256",
          "name": "value",
          "type": "int256"
        },
        {
          "internalType": "address",
          "name": "currencyCt",
          "type": "address"
        },
        {
          "internalType": "uint256",
          "name": "currencyId",
          "type": "uint256"
        },
        {
          "internalType": "string",
          "name": "standard",
          "type": "string"
        },
        {
          "internalType": "uint256",
          "name": "blockNumber",
          "type": "uint256"
        }
      ],
      "name": "updateSettledBalance",
      "outputs": [],
      "payable": false,
      "stateMutability": "nonpayable",
      "type": "function"
    },
    {
      "constant": true,
      "inputs": [],
      "name": "_settledBalanceUpdatesCount",
      "outputs": [
        {
          "internalType": "uint256",
          "name": "",
          "type": "uint256"
        }
      ],
      "payable": false,
      "stateMutability": "view",
      "type": "function"
    },
    {
      "constant": true,
      "inputs": [
        {
          "internalType": "uint256",
          "name": "index",
          "type": "uint256"
        }
      ],
      "name": "_settledBalanceUpdates",
      "outputs": [
        {
          "internalType": "address",
          "name": "",
          "type": "address"
        },
        {
          "internalType": "int256",
          "name": "",
          "type": "int256"
        },
        {
          "internalType": "address",
          "name": "",
          "type": "address"
        },
        {
          "internalType": "uint256",
          "name": "",
          "type": "uint256"
        },
        {
          "internalType": "string",
          "name": "",
          "type": "string"
        },
        {
          "internalType": "uint256",
          "name": "",
          "type": "uint256"
        }
      ],
      "payable": false,
      "stateMutability": "view",
      "type": "function"
    },
    {
      "constant": false,
      "inputs": [
        {
          "internalType": "address",
          "name": "wallet",
          "type": "address"
        },
        {
          "internalType": "int256",
          "name": "value",
          "type": "int256"
        },
        {
          "internalType": "address",
          "name": "currencyCt",
          "type": "address"
        },
        {
          "internalType": "uint256",
          "name": "currencyId",
          "type": "uint256"
        },
        {
          "internalType": "string",
          "name": "standard",
          "type": "string"
        }
      ],
      "name": "stage",
      "outputs": [],
      "payable": false,
      "stateMutability": "nonpayable",
      "type": "function"
    },
    {
      "constant": false,
      "inputs": [
        {
          "internalType": "address",
          "name": "wallet",
          "type": "address"
        },
        {
          "internalType": "contract Beneficiary",
          "name": "beneficiary",
          "type": "address"
        },
        {
          "internalType": "int256",
          "name": "value",
          "type": "int256"
        },
        {
          "internalType": "address",
          "name": "currencyCt",
          "type": "address"
        },
        {
          "internalType": "uint256",
          "name": "currencyId",
          "type": "uint256"
        },
        {
          "internalType": "string",
          "name": "standard",
          "type": "string"
        }
      ],
      "name": "stageToBeneficiary",
      "outputs": [],
      "payable": false,
      "stateMutability": "nonpayable",
      "type": "function"
    },
    {
      "constant": true,
      "inputs": [],
      "name": "_stagesCount",
      "outputs": [
        {
          "internalType": "uint256",
          "name": "",
          "type": "uint256"
        }
      ],
      "payable": false,
      "stateMutability": "view",
      "type": "function"
    },
    {
      "constant": true,
      "inputs": [
        {
          "internalType": "uint256",
          "name": "index",
          "type": "uint256"
        }
      ],
      "name": "_stages",
      "outputs": [
        {
          "internalType": "address",
          "name": "",
          "type": "address"
        },
        {
          "internalType": "address",
          "name": "",
          "type": "address"
        },
        {
          "internalType": "int256",
          "name": "",
          "type": "int256"
        },
        {
          "internalType": "address",
          "name": "",
          "type": "address"
        },
        {
          "internalType": "uint256",
          "name": "",
          "type": "uint256"
        },
        {
          "internalType": "string",
          "name": "",
          "type": "string"
        }
      ],
      "payable": false,
      "stateMutability": "view",
      "type": "function"
    },
    {
      "constant": false,
      "inputs": [
        {
          "internalType": "address",
          "name": "wallet",
          "type": "address"
        },
        {
          "internalType": "contract Beneficiary",
          "name": "beneficiary",
          "type": "address"
        },
        {
          "internalType": "int256",
          "name": "value",
          "type": "int256"
        },
        {
          "internalType": "address",
          "name": "currencyCt",
          "type": "address"
        },
        {
          "internalType": "uint256",
          "name": "currencyId",
          "type": "uint256"
        },
        {
          "internalType": "string",
          "name": "standard",
          "type": "string"
        }
      ],
      "name": "transferToBeneficiary",
      "outputs": [],
      "payable": false,
      "stateMutability": "nonpayable",
      "type": "function"
    },
    {
      "constant": true,
      "inputs": [],
      "name": "_beneficiaryTransfersCount",
      "outputs": [
        {
          "internalType": "uint256",
          "name": "",
          "type": "uint256"
        }
      ],
      "payable": false,
      "stateMutability": "view",
      "type": "function"
    },
    {
      "constant": true,
      "inputs": [
        {
          "internalType": "uint256",
          "name": "index",
          "type": "uint256"
        }
      ],
      "name": "_beneficiaryTransfers",
      "outputs": [
        {
          "internalType": "address",
          "name": "",
          "type": "address"
        },
        {
          "internalType": "address",
          "name": "",
          "type": "address"
        },
        {
          "internalType": "int256",
          "name": "",
          "type": "int256"
        },
        {
          "internalType": "address",
          "name": "",
          "type": "address"
        },
        {
          "internalType": "uint256",
          "name": "",
          "type": "uint256"
        },
        {
          "internalType": "string",
          "name": "",
          "type": "string"
        }
      ],
      "payable": false,
      "stateMutability": "view",
      "type": "function"
    }
  ],
  "bytecode": "0x608060405234801561001057600080fd5b50611616806100206000396000f3fe608060405234801561001057600080fd5b50600436106100ba5760003560e01c8063158a0342146100bf5780631592f0ab146100d457806336b18714146100dc57806338f00d7c146100fa57806359a035ae14610102578063623245ea1461012657806364ba47521461014b578063845ddcb21461015e5780638bdcd98314610171578063953a25e614610179578063a2c903dc1461019e578063ad468df9146101b1578063eacfa850146101c4578063f8297dbe146101d7575b600080fd5b6100d26100cd366004610fe5565b6101ea565b005b6100d26103d7565b6100e4610402565b6040516100f19190611421565b60405180910390f35b6100e4610409565b6101156101103660046111a0565b61040f565b6040516100f19594939291906112cd565b6101396101343660046111a0565b61050e565b6040516100f1969594939291906113cb565b6100d261015936600461110f565b610695565b61011561016c3660046111a0565b61086a565b6100e4610877565b61018c6101873660046111a0565b61087d565b6040516100f19695949392919061126d565b6101156101ac3660046111a0565b610a1c565b6100d26101bf366004611083565b610a29565b61018c6101d23660046111a0565b610ba3565b6100d26101e5366004610fe5565b610c8c565b6040805160a0810182526001600160a01b0380891682528781166020808401918252845180860186528981528551808701875289851681528083018990528183015294840194855260608401868152600060808601819052600280546001810180835591909252865160079092027f405787fa12a823e0f2b7631cc41b3ba8828b3321ca811111fa75cd3aa3bb5ace810180549388166001600160a01b031994851617815595517f405787fa12a823e0f2b7631cc41b3ba8828b3321ca811111fa75cd3aa3bb5acf82018054918916918516919091179055975180517f405787fa12a823e0f2b7631cc41b3ba8828b3321ca811111fa75cd3aa3bb5ad08a015584015180517f405787fa12a823e0f2b7631cc41b3ba8828b3321ca811111fa75cd3aa3bb5ad18a018054919098169316929092179095558201517f405787fa12a823e0f2b7631cc41b3ba8828b3321ca811111fa75cd3aa3bb5ad287015551805193959293610380937f405787fa12a823e0f2b7631cc41b3ba8828b3321ca811111fa75cd3aa3bb5ad301929190910190610dfc565b50608082015181600601555050507f464d34e7809466899b7d90f10c09d1f6cc16e042bdcc94647bfb30cba7055bdb8686868686866040516103c796959493929190611320565b60405180910390a1505050505050565b60006103e38180610e7a565b5060006103f1600182610e7a565b5060006103ff600282610e7a565b50565b6000545b90565b60025490565b6002818154811061041c57fe5b600091825260209182902060079190910201805460018083015460408051808201825260028087015482528251808401845260038801546001600160a01b0390811682526004890154828b0152838a019190915260058801805485516101009882161598909802600019011692909204601f81018a90048a0287018a0190945283865295861698509490921695919493918301828280156104fe5780601f106104d3576101008083540402835291602001916104fe565b820191906000526020600020905b8154815290600101906020018083116104e157829003601f168201915b5050505050908060060154905085565b6000806000806060600080878154811061052457fe5b6000918252602082206007909102015481546001600160a01b0390911691908990811061054d57fe5b9060005260206000209060070201600201600001546000898154811061056f57fe5b6000918252602082206003600790920201015481546001600160a01b0390911691908b90811061059b57fe5b90600052602060002090600702016002016001016001015460008b815481106105c057fe5b906000526020600020906007020160050160008c815481106105de57fe5b600091825260209182902060066007909202010154825460408051601f6002600019610100600187161502019094169390930492830185900485028101850190915281815291928491908301828280156106795780601f1061064e57610100808354040283529160200191610679565b820191906000526020600020905b81548152906001019060200180831161065c57829003601f168201915b5050505050915095509550955095509550955091939550919395565b6040805160a0810182526001600160a01b03808916825260006020808401828152855180870187528b8152865180880188528b861681528084018b9052818401529585019586526060850188815260808601889052835460018101808655948052865160079091027f290decd9548b62a8d60345a988386fc84ba6bc95484008f6362f93160ef3e563810180549288166001600160a01b031993841617815593517f290decd9548b62a8d60345a988386fc84ba6bc95484008f6362f93160ef3e56482018054918916918416919091179055975180517f290decd9548b62a8d60345a988386fc84ba6bc95484008f6362f93160ef3e5658a015584015180517f290decd9548b62a8d60345a988386fc84ba6bc95484008f6362f93160ef3e5668a01805491909816921691909117909555938201517f290decd9548b62a8d60345a988386fc84ba6bc95484008f6362f93160ef3e567870155925180519295610827937f290decd9548b62a8d60345a988386fc84ba6bc95484008f6362f93160ef3e568909101929190910190610dfc565b50608082015181600601555050507f6ded3dfe9bc210e5b60b695bac6bd623844003b866c14264d44e91b8352a4fad868686866040516103c7949392919061133b565b6001818154811061041c57fe5b60015490565b600080600080600060606001878154811061089457fe5b6000918252602090912060079091020154600180546001600160a01b0390921691899081106108bf57fe5b906000526020600020906007020160010160009054906101000a90046001600160a01b0316600189815481106108f157fe5b90600052602060002090600702016002016000015460018a8154811061091357fe5b6000918252602090912060036007909202010154600180546001600160a01b03909216918c90811061094157fe5b90600052602060002090600702016002016001016001015460018c8154811061096657fe5b6000918252602091829020600560079092020101805460408051601f600260001961010060018716150201909416939093049283018590048502810185019091528181529192839190830182828015610a005780601f106109d557610100808354040283529160200191610a00565b820191906000526020600020905b8154815290600101906020018083116109e357829003601f168201915b5050505050905095509550955095509550955091939550919395565b6000818154811061041c57fe5b6040805160a0810182526001600160a01b03878116825260006020808401828152855180870187528a8152865180880188528a861681528084018a905281840152958501958652606085018781526080860184905260018054808201808355919095528651600080516020611554833981519152600790960295860180546001600160a01b031990811692891692909217815593516000805160206115948339815191528701805483169189169190911790559751805160008051602061153483398151915287015584015180516000805160206115b483398151915287018054909a169716969096179097559382015160008051602061151483398151915284015592518051610b4f9360008051602061157483398151915201929190910190610dfc565b50608082015181600601555050507f462bde4a439059b7dfed3922e66013be9d01b4919fe50e06042b73e6c9b1f6578585858585604051610b94959493929190611379565b60405180910390a15050505050565b6000806000806000606060028781548110610bba57fe5b6000918252602090912060079091020154600280546001600160a01b039092169189908110610be557fe5b906000526020600020906007020160010160009054906101000a90046001600160a01b031660028981548110610c1757fe5b90600052602060002090600702016002016000015460028a81548110610c3957fe5b6000918252602090912060036007909202010154600280546001600160a01b03909216918c908110610c6757fe5b90600052602060002090600702016002016001016001015460028c8154811061096657fe5b6040805160a0810182526001600160a01b0380891682528781166020808401918252845180860186528981528551808701875289851681528083018990528183015294840194855260608401868152600060808601819052600180548082018083559190925286516007909202600080516020611554833981519152810180549388166001600160a01b0319948516178155955160008051602061159483398151915282018054918916918516919091179055975180516000805160206115348339815191528a015584015180516000805160206115b48339815191528a0180549190981693169290921790955582015160008051602061151483398151915287015551805193959293610db59360008051602061157483398151915201929190910190610dfc565b50608082015181600601555050507f4c50864967876f6fcf5151a5e907d94d9c7b3d7780ca1c7f576680a2126ba39b8686868686866040516103c796959493929190611320565b828054600181600116156101000203166002900490600052602060002090601f016020900481019282601f10610e3d57805160ff1916838001178555610e6a565b82800160010185558215610e6a579182015b82811115610e6a578251825591602001919060010190610e4f565b50610e76929150610eab565b5090565b815481835581811115610ea657600702816007028360005260206000209182019101610ea69190610ec5565b505050565b61040691905b80821115610e765760008155600101610eb1565b61040691905b80821115610e765780546001600160a01b031990811682556001820180548216905560006002830181905560038301805490921690915560048201819055610f166005830182610f26565b5060006006820155600701610ecb565b50805460018160011615610100020316600290046000825580601f10610f4c57506103ff565b601f0160209004906000526020600020908101906103ff9190610eab565b8035610f75816114ed565b92915050565b8035610f7581611501565b8035610f758161150a565b600082601f830112610fa257600080fd5b8135610fb5610fb082611455565b61142f565b91508082526020830160208301858383011115610fd157600080fd5b610fdc8382846114ab565b50505092915050565b60008060008060008060c08789031215610ffe57600080fd5b600061100a8989610f6a565b965050602061101b89828a01610f7b565b955050604061102c89828a01610f86565b945050606061103d89828a01610f6a565b935050608061104e89828a01610f86565b92505060a08701356001600160401b0381111561106a57600080fd5b61107689828a01610f91565b9150509295509295509295565b600080600080600060a0868803121561109b57600080fd5b60006110a78888610f6a565b95505060206110b888828901610f86565b94505060406110c988828901610f6a565b93505060606110da88828901610f86565b92505060808601356001600160401b038111156110f657600080fd5b61110288828901610f91565b9150509295509295909350565b60008060008060008060c0878903121561112857600080fd5b60006111348989610f6a565b965050602061114589828a01610f86565b955050604061115689828a01610f6a565b945050606061116789828a01610f86565b93505060808701356001600160401b0381111561118357600080fd5b61118f89828a01610f91565b92505060a061107689828a01610f86565b6000602082840312156111b257600080fd5b60006111be8484610f86565b949350505050565b6111cf81611489565b82525050565b6111cf81611494565b6111cf81610406565b60006111f28261147c565b6111fc8185611480565b935061120c8185602086016114b7565b611215816114e3565b9093019392505050565b8051604083019061123084826111c6565b50602082015161124360208501826111de565b50505050565b8051606083019061125a84826111de565b506020820151611243602085018261121f565b60c0810161127b82896111c6565b61128860208301886111c6565b61129560408301876111de565b6112a260608301866111c6565b6112af60808301856111de565b81810360a08301526112c181846111e7565b98975050505050505050565b60e081016112db82886111c6565b6112e860208301876111c6565b6112f56040830186611249565b81810360a083015261130781856111e7565b905061131660c08301846111de565b9695505050505050565b60c0810161132e82896111c6565b61128860208301886111d5565b6080810161134982876111c6565b61135660208301866111de565b61136360408301856111c6565b61137060608301846111de565b95945050505050565b60a0810161138782886111c6565b61139460208301876111de565b6113a160408301866111c6565b6113ae60608301856111de565b81810360808301526113c081846111e7565b979650505050505050565b60c081016113d982896111c6565b6113e660208301886111de565b6113f360408301876111c6565b61140060608301866111de565b818103608083015261141281856111e7565b90506113c060a08301846111de565b60208101610f7582846111de565b6040518181016001600160401b038111828210171561144d57600080fd5b604052919050565b60006001600160401b0382111561146b57600080fd5b506020601f91909101601f19160190565b5190565b90815260200190565b6000610f758261149f565b6000610f7582611489565b6001600160a01b031690565b82818337506000910152565b60005b838110156114d25781810151838201526020016114ba565b838111156112435750506000910152565b601f01601f191690565b6114f681611489565b81146103ff57600080fd5b6114f681611494565b6114f68161040656feb10e2d527612073b26eecdfd717e6a320cf44b4afac2b0732d9fcbe2b7fa0cfab10e2d527612073b26eecdfd717e6a320cf44b4afac2b0732d9fcbe2b7fa0cf8b10e2d527612073b26eecdfd717e6a320cf44b4afac2b0732d9fcbe2b7fa0cf6b10e2d527612073b26eecdfd717e6a320cf44b4afac2b0732d9fcbe2b7fa0cfbb10e2d527612073b26eecdfd717e6a320cf44b4afac2b0732d9fcbe2b7fa0cf7b10e2d527612073b26eecdfd717e6a320cf44b4afac2b0732d9fcbe2b7fa0cf9a365627a7a7231582037eea6aeb2ba6da387d46fc3a4d9105f71921c71ebdb89bab6a1527ac2a223116c6578706572696d656e74616cf564736f6c634300050c0040",
  "source": "/*\n * Hubii Nahmii\n *\n * Compliant with the Hubii Nahmii specification v0.12.\n *\n * Copyright (C) 2017-2018 Hubii AS\n */\n\npragma solidity >=0.4.25 <0.6.0;\npragma experimental ABIEncoderV2;\n\nimport {MonetaryTypesLib} from \"../MonetaryTypesLib.sol\";\nimport {Beneficiary} from \"../Beneficiary.sol\";\n\n/**\n * @title MockedClientFund\n * @notice Mocked implementation of client fund contract\n */\ncontract MockedClientFund {\n    //\n    // Types\n    // -----------------------------------------------------------------------------------------------------------------\n    struct Change {\n        address sourceWallet;\n        address targetWallet;\n        MonetaryTypesLib.Figure figure;\n        string standard;\n        uint256 blockNumber;\n    }\n\n    struct BalanceLogEntry {\n        int256 amount;\n        uint256 blockNumber;\n    }\n\n    //\n    // Variables\n    // -----------------------------------------------------------------------------------------------------------------\n    Change[] public settledBalanceUpdates;\n    Change[] public stages;\n    Change[] public beneficiaryTransfers;\n\n    //\n    // Events\n    // -----------------------------------------------------------------------------------------------------------------\n    event LockBalancesEvent(address lockedWallet, address lockerWallet);\n    event UnlockBalancesEvent(address lockedWallet, address lockerWallet);\n    event UpdateSettledBalanceEvent(address wallet, int256 value, address currencyCt,\n        uint256 currencyId);\n    event StageEvent(address wallet, int256 value, address currencyCt, uint256 currencyId,\n        string standard);\n    event StageToBeneficiaryEvent(address sourceWallet, Beneficiary beneficiary, int256 value,\n        address currencyCt, uint256 currencyId, string standard);\n    event TransferToBeneficiaryEvent(address wallet, Beneficiary beneficiary, int256 value,\n        address currencyCt, uint256 currencyId, string standard);\n\n    //\n    // Functions\n    // -----------------------------------------------------------------------------------------------------------------\n    function _reset()\n    public\n    {\n        settledBalanceUpdates.length = 0;\n        stages.length = 0;\n        beneficiaryTransfers.length = 0;\n    }\n\n    function updateSettledBalance(address wallet, int256 value, address currencyCt,\n        uint256 currencyId, string memory standard, uint256 blockNumber)\n    public\n    {\n        settledBalanceUpdates.push(\n            Change(\n                wallet,\n                address(0),\n                MonetaryTypesLib.Figure(\n                    value,\n                    MonetaryTypesLib.Currency(currencyCt, currencyId)\n                ),\n                standard,\n                blockNumber\n            )\n        );\n        emit UpdateSettledBalanceEvent(wallet, value, currencyCt, currencyId);\n    }\n\n    function _settledBalanceUpdatesCount()\n    public\n    view\n    returns (uint256)\n    {\n        return settledBalanceUpdates.length;\n    }\n\n    function _settledBalanceUpdates(uint256 index)\n    public\n    view\n    returns (address, int256, address, uint256, string memory, uint256) {\n        return (\n        settledBalanceUpdates[index].sourceWallet,\n        settledBalanceUpdates[index].figure.amount,\n        settledBalanceUpdates[index].figure.currency.ct,\n        settledBalanceUpdates[index].figure.currency.id,\n        settledBalanceUpdates[index].standard,\n        settledBalanceUpdates[index].blockNumber\n        );\n    }\n\n    function stage(address wallet, int256 value, address currencyCt, uint256 currencyId,\n        string memory standard)\n    public\n    {\n        stages.push(\n            Change(\n                wallet,\n                address(0),\n                MonetaryTypesLib.Figure(\n                    value,\n                    MonetaryTypesLib.Currency(currencyCt, currencyId)\n                ),\n                standard,\n                0\n            )\n        );\n        emit StageEvent(wallet, value, currencyCt, currencyId, standard);\n    }\n\n    function stageToBeneficiary(address wallet, Beneficiary beneficiary, int256 value,\n        address currencyCt, uint256 currencyId, string memory standard)\n    public\n    {\n        stages.push(\n            Change(\n                wallet,\n                address(beneficiary),\n                MonetaryTypesLib.Figure(\n                    value,\n                    MonetaryTypesLib.Currency(currencyCt, currencyId)\n                ),\n                standard,\n                0\n            )\n        );\n        emit StageToBeneficiaryEvent(wallet, beneficiary, value, currencyCt, currencyId, standard);\n    }\n\n    function _stagesCount()\n    public\n    view\n    returns (uint256)\n    {\n        return stages.length;\n    }\n\n    function _stages(uint256 index)\n    public\n    view\n    returns (address, address, int256, address, uint256, string memory)\n    {\n        return (\n        stages[index].sourceWallet,\n        stages[index].targetWallet,\n        stages[index].figure.amount,\n        stages[index].figure.currency.ct,\n        stages[index].figure.currency.id,\n        stages[index].standard\n        );\n    }\n\n    function transferToBeneficiary(address wallet, Beneficiary beneficiary, int256 value,\n        address currencyCt, uint256 currencyId, string memory standard)\n    public\n    {\n        beneficiaryTransfers.push(\n            Change(\n                wallet,\n                address(beneficiary),\n                MonetaryTypesLib.Figure(\n                    value,\n                    MonetaryTypesLib.Currency(currencyCt, currencyId)\n                ),\n                standard,\n                0\n            )\n        );\n        emit TransferToBeneficiaryEvent(wallet, beneficiary, value, currencyCt, currencyId, standard);\n    }\n\n    function _beneficiaryTransfersCount()\n    public\n    view\n    returns (uint256)\n    {\n        return beneficiaryTransfers.length;\n    }\n\n    function _beneficiaryTransfers(uint256 index)\n    public\n    view\n    returns (address, address, int256, address, uint256, string memory)\n    {\n        return (\n        beneficiaryTransfers[index].sourceWallet,\n        beneficiaryTransfers[index].targetWallet,\n        beneficiaryTransfers[index].figure.amount,\n        beneficiaryTransfers[index].figure.currency.ct,\n        beneficiaryTransfers[index].figure.currency.id,\n        beneficiaryTransfers[index].standard\n        );\n    }\n}",
  "sourcePath": "/opt/buildagent/work/855e104608380c36/contracts/test/MockedClientFund.sol",
  "compiler": {
    "name": "solc",
    "version": "0.5.12+commit.7709ece9.Emscripten.clang"
  },
  "schemaVersion": "2.0.3",
  "updatedAt": "2019-10-23T00:21:40.851Z"
}