{
  "contractName": "MockedNullSettlementDisputeByPayment",
  "abi": [
    {
      "constant": true,
      "inputs": [],
      "name": "_challengeByPaymentCount",
      "outputs": [
        {
          "name": "",
          "type": "uint256"
        }
      ],
      "payable": false,
      "stateMutability": "view",
      "type": "function"
    },
    {
      "constant": false,
      "inputs": [],
      "name": "_reset",
      "outputs": [],
      "payable": false,
      "stateMutability": "nonpayable",
      "type": "function"
    },
    {
      "constant": false,
      "inputs": [
        {
          "name": "",
          "type": "address"
        },
        {
          "components": [
            {
              "name": "nonce",
              "type": "uint256"
            },
            {
              "name": "amount",
              "type": "int256"
            },
            {
              "components": [
                {
                  "name": "ct",
                  "type": "address"
                },
                {
                  "name": "id",
                  "type": "uint256"
                }
              ],
              "name": "currency",
              "type": "tuple"
            },
            {
              "components": [
                {
                  "name": "nonce",
                  "type": "uint256"
                },
                {
                  "name": "wallet",
                  "type": "address"
                },
                {
                  "components": [
                    {
                      "name": "current",
                      "type": "int256"
                    },
                    {
                      "name": "previous",
                      "type": "int256"
                    }
                  ],
                  "name": "balances",
                  "type": "tuple"
                },
                {
                  "components": [
                    {
                      "components": [
                        {
                          "name": "amount",
                          "type": "int256"
                        },
                        {
                          "components": [
                            {
                              "name": "ct",
                              "type": "address"
                            },
                            {
                              "name": "id",
                              "type": "uint256"
                            }
                          ],
                          "name": "currency",
                          "type": "tuple"
                        }
                      ],
                      "name": "single",
                      "type": "tuple"
                    },
                    {
                      "components": [
                        {
                          "name": "originId",
                          "type": "uint256"
                        },
                        {
                          "components": [
                            {
                              "name": "amount",
                              "type": "int256"
                            },
                            {
                              "components": [
                                {
                                  "name": "ct",
                                  "type": "address"
                                },
                                {
                                  "name": "id",
                                  "type": "uint256"
                                }
                              ],
                              "name": "currency",
                              "type": "tuple"
                            }
                          ],
                          "name": "figure",
                          "type": "tuple"
                        }
                      ],
                      "name": "total",
                      "type": "tuple[]"
                    }
                  ],
                  "name": "fees",
                  "type": "tuple"
                }
              ],
              "name": "sender",
              "type": "tuple"
            },
            {
              "components": [
                {
                  "name": "nonce",
                  "type": "uint256"
                },
                {
                  "name": "wallet",
                  "type": "address"
                },
                {
                  "components": [
                    {
                      "name": "current",
                      "type": "int256"
                    },
                    {
                      "name": "previous",
                      "type": "int256"
                    }
                  ],
                  "name": "balances",
                  "type": "tuple"
                },
                {
                  "components": [
                    {
                      "components": [
                        {
                          "name": "originId",
                          "type": "uint256"
                        },
                        {
                          "components": [
                            {
                              "name": "amount",
                              "type": "int256"
                            },
                            {
                              "components": [
                                {
                                  "name": "ct",
                                  "type": "address"
                                },
                                {
                                  "name": "id",
                                  "type": "uint256"
                                }
                              ],
                              "name": "currency",
                              "type": "tuple"
                            }
                          ],
                          "name": "figure",
                          "type": "tuple"
                        }
                      ],
                      "name": "total",
                      "type": "tuple[]"
                    }
                  ],
                  "name": "fees",
                  "type": "tuple"
                }
              ],
              "name": "recipient",
              "type": "tuple"
            },
            {
              "components": [
                {
                  "name": "single",
                  "type": "int256"
                },
                {
                  "name": "total",
                  "type": "int256"
                }
              ],
              "name": "transfers",
              "type": "tuple"
            },
            {
              "components": [
                {
                  "components": [
                    {
                      "name": "hash",
                      "type": "bytes32"
                    },
                    {
                      "components": [
                        {
                          "name": "r",
                          "type": "bytes32"
                        },
                        {
                          "name": "s",
                          "type": "bytes32"
                        },
                        {
                          "name": "v",
                          "type": "uint8"
                        }
                      ],
                      "name": "signature",
                      "type": "tuple"
                    }
                  ],
                  "name": "wallet",
                  "type": "tuple"
                },
                {
                  "components": [
                    {
                      "name": "hash",
                      "type": "bytes32"
                    },
                    {
                      "components": [
                        {
                          "name": "r",
                          "type": "bytes32"
                        },
                        {
                          "name": "s",
                          "type": "bytes32"
                        },
                        {
                          "name": "v",
                          "type": "uint8"
                        }
                      ],
                      "name": "signature",
                      "type": "tuple"
                    }
                  ],
                  "name": "operator",
                  "type": "tuple"
                }
              ],
              "name": "seals",
              "type": "tuple"
            },
            {
              "name": "blockNumber",
              "type": "uint256"
            },
            {
              "name": "operatorId",
              "type": "uint256"
            }
          ],
          "name": "",
          "type": "tuple"
        },
        {
          "name": "",
          "type": "address"
        }
      ],
      "name": "challengeByPayment",
      "outputs": [],
      "payable": false,
      "stateMutability": "nonpayable",
      "type": "function"
    }
  ],
  "bytecode": "0x608060405234801561001057600080fd5b506106dc806100206000396000f30060806040526004361061003d5763ffffffff60e060020a6000350416631592f0ab811461004257806326977d8b146100595780636926832c14610084575b600080fd5b34801561004e57600080fd5b506100576100a4565b005b34801561006557600080fd5b5061006e6100aa565b60405161007b9190610633565b60405180910390f35b34801561009057600080fd5b5061005761009f3660046105c0565b6100b0565b60008055565b60005481565b505060008054600101905550565b60006100ca8235610690565b9392505050565b6000601f820183136100e257600080fd5b81356100f56100f08261066d565b610647565b9150818183526020840193506020810190508385608084028201111561011a57600080fd5b60005b838110156101485781610130888261020a565b8452506020909201916080919091019060010161011d565b5050505092915050565b60006100ca823561068d565b60006040828403121561017057600080fd5b61017a6040610647565b9050600061018884846100be565b825250602061019984848301610152565b60208301525092915050565b6000604082840312156101b757600080fd5b6101c16040610647565b905060006101888484610152565b6000606082840312156101e157600080fd5b6101eb6040610647565b905060006101f98484610152565b82525060206101998484830161015e565b60006080828403121561021c57600080fd5b6102266040610647565b905060006102348484610152565b8252506020610199848483016101cf565b600060a0828403121561025757600080fd5b6102616080610647565b9050600061026f8484610152565b8252506020610280848483016100be565b6020830152506040610294848285016101a5565b60408301525060808201356001604060020a038111156102b357600080fd5b6102bf8482850161052f565b60608301525092915050565b600060a082840312156102dd57600080fd5b6102e76080610647565b905060006102f58484610152565b8252506020610306848483016100be565b602083015250604061031a848285016101a5565b60408301525060808201356001604060020a0381111561033957600080fd5b6102bf848285016104dd565b6000610240828403121561035857600080fd5b610363610120610647565b905060006103718484610152565b825250602061038284848301610152565b60208301525060406103968482850161015e565b60408301525060808201356001604060020a038111156103b557600080fd5b6103c1848285016102cb565b60608301525060a08201356001604060020a038111156103e057600080fd5b6103ec84828501610245565b60808301525060c0610400848285016101a5565b60a08301525061010061041584828501610578565b60c08301525061020061042a84828501610152565b60e08301525061022061043f84828501610152565b6101008301525092915050565b60006080828403121561045e57600080fd5b6104686040610647565b905060006104768484610152565b82525060206101998484830160006060828403121561049457600080fd5b61049e6060610647565b905060006104ac8484610152565b82525060206104bd84848301610152565b60208301525060406104d1848285016105b4565b60408301525092915050565b6000608082840312156104ef57600080fd5b6104f96040610647565b9050600061050784846101cf565b82525060608201356001604060020a0381111561052357600080fd5b610199848285016100d1565b60006020828403121561054157600080fd5b61054b6020610647565b905081356001604060020a0381111561056357600080fd5b61056f848285016100d1565b82525092915050565b6000610100828403121561058b57600080fd5b6105956040610647565b905060006105a3848461044c565b82525060806101998484830161044c565b60006100ca823561069c565b6000806000606084860312156105d557600080fd5b60006105e186866100be565b93505060208401356001604060020a038111156105fd57600080fd5b61060986828701610345565b925050604061061a868287016100be565b9150509250925092565b61062d8161068d565b82525050565b602081016106418284610624565b92915050565b6040518181016001604060020a038111828210171561066557600080fd5b604052919050565b60006001604060020a0382111561068357600080fd5b5060209081020190565b90565b600160a060020a031690565b60ff16905600a265627a7a723058207923c3f43d52d95b76a2caaec27ecc3e42be4a3707d2e301c20d626bf824f1856c6578706572696d656e74616cf50037",
  "source": "/*\n * Hubii Nahmii\n *\n * Compliant with the Hubii Nahmii specification v0.12.\n *\n * Copyright (C) 2017-2018 Hubii AS\n */\n\npragma solidity ^0.4.25;\npragma experimental ABIEncoderV2;\n\nimport {PaymentTypesLib} from \"../PaymentTypesLib.sol\";\n\n/**\n * @title MockedNullSettlementDisputeByPayment\n * @notice Mocked implementation of null settlement dispute by payment contract\n */\ncontract MockedNullSettlementDisputeByPayment {\n    uint256 public _challengeByPaymentCount;\n\n    function _reset()\n    public\n    {\n        _challengeByPaymentCount = 0;\n    }\n\n    function challengeByPayment(address, PaymentTypesLib.Payment, address)\n    public\n    {\n        _challengeByPaymentCount++;\n    }\n}",
  "sourcePath": "/opt/buildagent/work/855e104608380c36/contracts/test/MockedNullSettlementDisputeByPayment.sol",
  "compiler": {
    "name": "solc",
    "version": "0.4.25+commit.59dbf8f1.Emscripten.clang"
  },
  "schemaVersion": "2.0.2",
  "updatedAt": "2019-04-02T06:20:37.123Z"
}