{
  "contractName": "MockedWalletLocker",
  "abi": [
    {
      "anonymous": false,
      "inputs": [
        {
          "indexed": false,
          "internalType": "address",
          "name": "lockedWallet",
          "type": "address"
        },
        {
          "indexed": false,
          "internalType": "address",
          "name": "lockerWallet",
          "type": "address"
        },
        {
          "indexed": false,
          "internalType": "int256",
          "name": "amount",
          "type": "int256"
        },
        {
          "indexed": false,
          "internalType": "address",
          "name": "currencyCt",
          "type": "address"
        },
        {
          "indexed": false,
          "internalType": "uint256",
          "name": "currencyId",
          "type": "uint256"
        },
        {
          "indexed": false,
          "internalType": "uint256",
          "name": "visibleTimeoutInSeconds",
          "type": "uint256"
        }
      ],
      "name": "LockFungibleByProxyEvent",
      "type": "event"
    },
    {
      "anonymous": false,
      "inputs": [
        {
          "indexed": false,
          "internalType": "address",
          "name": "lockedWallet",
          "type": "address"
        },
        {
          "indexed": false,
          "internalType": "address",
          "name": "lockerWallet",
          "type": "address"
        },
        {
          "indexed": false,
          "internalType": "int256[]",
          "name": "ids",
          "type": "int256[]"
        },
        {
          "indexed": false,
          "internalType": "address",
          "name": "currencyCt",
          "type": "address"
        },
        {
          "indexed": false,
          "internalType": "uint256",
          "name": "currencyId",
          "type": "uint256"
        },
        {
          "indexed": false,
          "internalType": "uint256",
          "name": "visibleTimeoutInSeconds",
          "type": "uint256"
        }
      ],
      "name": "LockNonFungibleByProxyEvent",
      "type": "event"
    },
    {
      "anonymous": false,
      "inputs": [
        {
          "indexed": false,
          "internalType": "address",
          "name": "lockedWallet",
          "type": "address"
        },
        {
          "indexed": false,
          "internalType": "address",
          "name": "lockerWallet",
          "type": "address"
        },
        {
          "indexed": false,
          "internalType": "address",
          "name": "currencyCt",
          "type": "address"
        },
        {
          "indexed": false,
          "internalType": "uint256",
          "name": "currencyId",
          "type": "uint256"
        }
      ],
      "name": "UnlockFungibleByProxyEvent",
      "type": "event"
    },
    {
      "anonymous": false,
      "inputs": [
        {
          "indexed": false,
          "internalType": "address",
          "name": "lockedWallet",
          "type": "address"
        },
        {
          "indexed": false,
          "internalType": "address",
          "name": "lockerWallet",
          "type": "address"
        },
        {
          "indexed": false,
          "internalType": "address",
          "name": "currencyCt",
          "type": "address"
        },
        {
          "indexed": false,
          "internalType": "uint256",
          "name": "currencyId",
          "type": "uint256"
        }
      ],
      "name": "UnlockFungibleEvent",
      "type": "event"
    },
    {
      "anonymous": false,
      "inputs": [
        {
          "indexed": false,
          "internalType": "address",
          "name": "lockedWallet",
          "type": "address"
        },
        {
          "indexed": false,
          "internalType": "address",
          "name": "lockerWallet",
          "type": "address"
        },
        {
          "indexed": false,
          "internalType": "address",
          "name": "currencyCt",
          "type": "address"
        },
        {
          "indexed": false,
          "internalType": "uint256",
          "name": "currencyId",
          "type": "uint256"
        }
      ],
      "name": "UnlockNonFungibleByProxyEvent",
      "type": "event"
    },
    {
      "anonymous": false,
      "inputs": [
        {
          "indexed": false,
          "internalType": "address",
          "name": "lockedWallet",
          "type": "address"
        },
        {
          "indexed": false,
          "internalType": "address",
          "name": "lockerWallet",
          "type": "address"
        },
        {
          "indexed": false,
          "internalType": "address",
          "name": "currencyCt",
          "type": "address"
        },
        {
          "indexed": false,
          "internalType": "uint256",
          "name": "currencyId",
          "type": "uint256"
        }
      ],
      "name": "UnlockNonFungibleEvent",
      "type": "event"
    },
    {
      "constant": true,
      "inputs": [],
      "name": "_lockedAmount",
      "outputs": [
        {
          "internalType": "int256",
          "name": "",
          "type": "int256"
        }
      ],
      "payable": false,
      "stateMutability": "view",
      "type": "function"
    },
    {
      "constant": true,
      "inputs": [
        {
          "internalType": "uint256",
          "name": "",
          "type": "uint256"
        }
      ],
      "name": "_lockedIdsByIndices",
      "outputs": [
        {
          "internalType": "int256",
          "name": "",
          "type": "int256"
        }
      ],
      "payable": false,
      "stateMutability": "view",
      "type": "function"
    },
    {
      "constant": true,
      "inputs": [],
      "name": "_lockedIdsCount",
      "outputs": [
        {
          "internalType": "uint256",
          "name": "",
          "type": "uint256"
        }
      ],
      "payable": false,
      "stateMutability": "view",
      "type": "function"
    },
    {
      "constant": true,
      "inputs": [
        {
          "internalType": "uint256",
          "name": "",
          "type": "uint256"
        }
      ],
      "name": "fungibleLocks",
      "outputs": [
        {
          "internalType": "address",
          "name": "lockedWallet",
          "type": "address"
        },
        {
          "internalType": "address",
          "name": "lockerWallet",
          "type": "address"
        },
        {
          "internalType": "int256",
          "name": "amount",
          "type": "int256"
        },
        {
          "internalType": "address",
          "name": "currencyCt",
          "type": "address"
        },
        {
          "internalType": "uint256",
          "name": "currencyId",
          "type": "uint256"
        },
        {
          "internalType": "uint256",
          "name": "visibleTimeout",
          "type": "uint256"
        }
      ],
      "payable": false,
      "stateMutability": "view",
      "type": "function"
    },
    {
      "constant": true,
      "inputs": [
        {
          "internalType": "uint256",
          "name": "",
          "type": "uint256"
        }
      ],
      "name": "fungibleUnlocks",
      "outputs": [
        {
          "internalType": "address",
          "name": "lockedWallet",
          "type": "address"
        },
        {
          "internalType": "address",
          "name": "lockerWallet",
          "type": "address"
        },
        {
          "internalType": "address",
          "name": "currencyCt",
          "type": "address"
        },
        {
          "internalType": "uint256",
          "name": "currencyId",
          "type": "uint256"
        }
      ],
      "payable": false,
      "stateMutability": "view",
      "type": "function"
    },
    {
      "constant": true,
      "inputs": [],
      "name": "locked",
      "outputs": [
        {
          "internalType": "bool",
          "name": "",
          "type": "bool"
        }
      ],
      "payable": false,
      "stateMutability": "view",
      "type": "function"
    },
    {
      "constant": true,
      "inputs": [
        {
          "internalType": "uint256",
          "name": "",
          "type": "uint256"
        }
      ],
      "name": "lockedWallets",
      "outputs": [
        {
          "internalType": "address",
          "name": "",
          "type": "address"
        }
      ],
      "payable": false,
      "stateMutability": "view",
      "type": "function"
    },
    {
      "constant": true,
      "inputs": [
        {
          "internalType": "uint256",
          "name": "",
          "type": "uint256"
        }
      ],
      "name": "nonFungibleLocks",
      "outputs": [
        {
          "internalType": "address",
          "name": "lockedWallet",
          "type": "address"
        },
        {
          "internalType": "address",
          "name": "lockerWallet",
          "type": "address"
        },
        {
          "internalType": "address",
          "name": "currencyCt",
          "type": "address"
        },
        {
          "internalType": "uint256",
          "name": "currencyId",
          "type": "uint256"
        },
        {
          "internalType": "uint256",
          "name": "visibleTimeout",
          "type": "uint256"
        }
      ],
      "payable": false,
      "stateMutability": "view",
      "type": "function"
    },
    {
      "constant": true,
      "inputs": [
        {
          "internalType": "uint256",
          "name": "",
          "type": "uint256"
        }
      ],
      "name": "nonFungibleUnlocks",
      "outputs": [
        {
          "internalType": "address",
          "name": "lockedWallet",
          "type": "address"
        },
        {
          "internalType": "address",
          "name": "lockerWallet",
          "type": "address"
        },
        {
          "internalType": "address",
          "name": "currencyCt",
          "type": "address"
        },
        {
          "internalType": "uint256",
          "name": "currencyId",
          "type": "uint256"
        }
      ],
      "payable": false,
      "stateMutability": "view",
      "type": "function"
    },
    {
      "constant": true,
      "inputs": [
        {
          "internalType": "uint256",
          "name": "",
          "type": "uint256"
        }
      ],
      "name": "unlockedWallets",
      "outputs": [
        {
          "internalType": "address",
          "name": "",
          "type": "address"
        }
      ],
      "payable": false,
      "stateMutability": "view",
      "type": "function"
    },
    {
      "constant": false,
      "inputs": [],
      "name": "_reset",
      "outputs": [],
      "payable": false,
      "stateMutability": "nonpayable",
      "type": "function"
    },
    {
      "constant": false,
      "inputs": [
        {
          "internalType": "address",
          "name": "lockedWallet",
          "type": "address"
        },
        {
          "internalType": "address",
          "name": "lockerWallet",
          "type": "address"
        },
        {
          "internalType": "int256",
          "name": "amount",
          "type": "int256"
        },
        {
          "internalType": "address",
          "name": "currencyCt",
          "type": "address"
        },
        {
          "internalType": "uint256",
          "name": "currencyId",
          "type": "uint256"
        },
        {
          "internalType": "uint256",
          "name": "visibleTimeoutInSeconds",
          "type": "uint256"
        }
      ],
      "name": "lockFungibleByProxy",
      "outputs": [],
      "payable": false,
      "stateMutability": "nonpayable",
      "type": "function"
    },
    {
      "constant": false,
      "inputs": [
        {
          "internalType": "address",
          "name": "lockedWallet",
          "type": "address"
        },
        {
          "internalType": "address",
          "name": "lockerWallet",
          "type": "address"
        },
        {
          "internalType": "int256[]",
          "name": "ids",
          "type": "int256[]"
        },
        {
          "internalType": "address",
          "name": "currencyCt",
          "type": "address"
        },
        {
          "internalType": "uint256",
          "name": "currencyId",
          "type": "uint256"
        },
        {
          "internalType": "uint256",
          "name": "visibleTimeoutInSeconds",
          "type": "uint256"
        }
      ],
      "name": "lockNonFungibleByProxy",
      "outputs": [],
      "payable": false,
      "stateMutability": "nonpayable",
      "type": "function"
    },
    {
      "constant": false,
      "inputs": [
        {
          "internalType": "address",
          "name": "lockedWallet",
          "type": "address"
        },
        {
          "internalType": "address",
          "name": "lockerWallet",
          "type": "address"
        },
        {
          "internalType": "address",
          "name": "currencyCt",
          "type": "address"
        },
        {
          "internalType": "uint256",
          "name": "currencyId",
          "type": "uint256"
        }
      ],
      "name": "unlockFungible",
      "outputs": [],
      "payable": false,
      "stateMutability": "nonpayable",
      "type": "function"
    },
    {
      "constant": false,
      "inputs": [
        {
          "internalType": "address",
          "name": "lockedWallet",
          "type": "address"
        },
        {
          "internalType": "address",
          "name": "lockerWallet",
          "type": "address"
        },
        {
          "internalType": "address",
          "name": "currencyCt",
          "type": "address"
        },
        {
          "internalType": "uint256",
          "name": "currencyId",
          "type": "uint256"
        }
      ],
      "name": "unlockFungibleByProxy",
      "outputs": [],
      "payable": false,
      "stateMutability": "nonpayable",
      "type": "function"
    },
    {
      "constant": false,
      "inputs": [
        {
          "internalType": "address",
          "name": "lockedWallet",
          "type": "address"
        },
        {
          "internalType": "address",
          "name": "lockerWallet",
          "type": "address"
        },
        {
          "internalType": "address",
          "name": "currencyCt",
          "type": "address"
        },
        {
          "internalType": "uint256",
          "name": "currencyId",
          "type": "uint256"
        }
      ],
      "name": "unlockNonFungible",
      "outputs": [],
      "payable": false,
      "stateMutability": "nonpayable",
      "type": "function"
    },
    {
      "constant": false,
      "inputs": [
        {
          "internalType": "address",
          "name": "lockedWallet",
          "type": "address"
        },
        {
          "internalType": "address",
          "name": "lockerWallet",
          "type": "address"
        },
        {
          "internalType": "address",
          "name": "currencyCt",
          "type": "address"
        },
        {
          "internalType": "uint256",
          "name": "currencyId",
          "type": "uint256"
        }
      ],
      "name": "unlockNonFungibleByProxy",
      "outputs": [],
      "payable": false,
      "stateMutability": "nonpayable",
      "type": "function"
    },
    {
      "constant": true,
      "inputs": [],
      "name": "_lockedWalletsCount",
      "outputs": [
        {
          "internalType": "uint256",
          "name": "",
          "type": "uint256"
        }
      ],
      "payable": false,
      "stateMutability": "view",
      "type": "function"
    },
    {
      "constant": true,
      "inputs": [],
      "name": "_unlockedWalletsCount",
      "outputs": [
        {
          "internalType": "uint256",
          "name": "",
          "type": "uint256"
        }
      ],
      "payable": false,
      "stateMutability": "view",
      "type": "function"
    },
    {
      "constant": true,
      "inputs": [],
      "name": "_fungibleLocksCount",
      "outputs": [
        {
          "internalType": "uint256",
          "name": "",
          "type": "uint256"
        }
      ],
      "payable": false,
      "stateMutability": "view",
      "type": "function"
    },
    {
      "constant": true,
      "inputs": [],
      "name": "_fungibleUnlocksCount",
      "outputs": [
        {
          "internalType": "uint256",
          "name": "",
          "type": "uint256"
        }
      ],
      "payable": false,
      "stateMutability": "view",
      "type": "function"
    },
    {
      "constant": true,
      "inputs": [],
      "name": "_nonFungibleLocksCount",
      "outputs": [
        {
          "internalType": "uint256",
          "name": "",
          "type": "uint256"
        }
      ],
      "payable": false,
      "stateMutability": "view",
      "type": "function"
    },
    {
      "constant": true,
      "inputs": [],
      "name": "_nonFungibleUnlocksCount",
      "outputs": [
        {
          "internalType": "uint256",
          "name": "",
          "type": "uint256"
        }
      ],
      "payable": false,
      "stateMutability": "view",
      "type": "function"
    },
    {
      "constant": true,
      "inputs": [
        {
          "internalType": "address",
          "name": "",
          "type": "address"
        },
        {
          "internalType": "address",
          "name": "",
          "type": "address"
        },
        {
          "internalType": "uint256",
          "name": "",
          "type": "uint256"
        }
      ],
      "name": "isLocked",
      "outputs": [
        {
          "internalType": "bool",
          "name": "",
          "type": "bool"
        }
      ],
      "payable": false,
      "stateMutability": "view",
      "type": "function"
    },
    {
      "constant": true,
      "inputs": [
        {
          "internalType": "address",
          "name": "",
          "type": "address"
        },
        {
          "internalType": "address",
          "name": "",
          "type": "address"
        },
        {
          "internalType": "address",
          "name": "",
          "type": "address"
        },
        {
          "internalType": "uint256",
          "name": "",
          "type": "uint256"
        }
      ],
      "name": "isLocked",
      "outputs": [
        {
          "internalType": "bool",
          "name": "",
          "type": "bool"
        }
      ],
      "payable": false,
      "stateMutability": "view",
      "type": "function"
    },
    {
      "constant": true,
      "inputs": [
        {
          "internalType": "address",
          "name": "",
          "type": "address"
        }
      ],
      "name": "isLocked",
      "outputs": [
        {
          "internalType": "bool",
          "name": "",
          "type": "bool"
        }
      ],
      "payable": false,
      "stateMutability": "view",
      "type": "function"
    },
    {
      "constant": false,
      "inputs": [
        {
          "internalType": "bool",
          "name": "_locked",
          "type": "bool"
        }
      ],
      "name": "_setLocked",
      "outputs": [],
      "payable": false,
      "stateMutability": "nonpayable",
      "type": "function"
    },
    {
      "constant": true,
      "inputs": [
        {
          "internalType": "address",
          "name": "",
          "type": "address"
        },
        {
          "internalType": "address",
          "name": "",
          "type": "address"
        },
        {
          "internalType": "address",
          "name": "",
          "type": "address"
        },
        {
          "internalType": "uint256",
          "name": "",
          "type": "uint256"
        }
      ],
      "name": "lockedAmount",
      "outputs": [
        {
          "internalType": "int256",
          "name": "",
          "type": "int256"
        }
      ],
      "payable": false,
      "stateMutability": "view",
      "type": "function"
    },
    {
      "constant": false,
      "inputs": [
        {
          "internalType": "int256",
          "name": "amount",
          "type": "int256"
        }
      ],
      "name": "_setLockedAmount",
      "outputs": [],
      "payable": false,
      "stateMutability": "nonpayable",
      "type": "function"
    },
    {
      "constant": true,
      "inputs": [
        {
          "internalType": "address",
          "name": "",
          "type": "address"
        },
        {
          "internalType": "address",
          "name": "",
          "type": "address"
        },
        {
          "internalType": "address",
          "name": "",
          "type": "address"
        },
        {
          "internalType": "uint256",
          "name": "",
          "type": "uint256"
        }
      ],
      "name": "lockedIdsCount",
      "outputs": [
        {
          "internalType": "uint256",
          "name": "",
          "type": "uint256"
        }
      ],
      "payable": false,
      "stateMutability": "view",
      "type": "function"
    },
    {
      "constant": false,
      "inputs": [
        {
          "internalType": "uint256",
          "name": "count",
          "type": "uint256"
        }
      ],
      "name": "_setLockedIdsCount",
      "outputs": [],
      "payable": false,
      "stateMutability": "nonpayable",
      "type": "function"
    },
    {
      "constant": true,
      "inputs": [
        {
          "internalType": "address",
          "name": "",
          "type": "address"
        },
        {
          "internalType": "address",
          "name": "",
          "type": "address"
        },
        {
          "internalType": "address",
          "name": "",
          "type": "address"
        },
        {
          "internalType": "uint256",
          "name": "",
          "type": "uint256"
        },
        {
          "internalType": "uint256",
          "name": "",
          "type": "uint256"
        },
        {
          "internalType": "uint256",
          "name": "",
          "type": "uint256"
        }
      ],
      "name": "lockedIdsByIndices",
      "outputs": [
        {
          "internalType": "int256[]",
          "name": "",
          "type": "int256[]"
        }
      ],
      "payable": false,
      "stateMutability": "view",
      "type": "function"
    },
    {
      "constant": false,
      "inputs": [
        {
          "internalType": "int256[]",
          "name": "ids",
          "type": "int256[]"
        }
      ],
      "name": "_setLockedIdsByIndices",
      "outputs": [],
      "payable": false,
      "stateMutability": "nonpayable",
      "type": "function"
    }
  ],
  "bytecode": "0x608060405234801561001057600080fd5b5061179b806100206000396000f3fe608060405234801561001057600080fd5b506004361061018b5760003560e01c80630895b81f146101905780630d044085146101f25780630deca4d1146102405780631592f0ab1461029257806318d49ba31461029c5780631fe7d534146102b95780632b879782146102d85780633143885d1461032257806346c5c0231461035e5780634a4fbeec1461039a5780635c3d8ebc146103c0578063626dd6c3146103fc5780636c818cda14610438578063738d83321461048f5780637829eecf146105305780637e91b73a146105385780638fdafa14146105555780638ff1642d1461058e578063905cb3241461065c5780639a17fbc2146106645780639a5453221461066c5780639f45b2ab146106b6578063a13ff3c3146106f2578063a8ab409d146106fa578063ad56603914610702578063b0c60ff31461070a578063b29f239f14610712578063ba2b87c21461072f578063c41570bd1461074c578063cf30901214610769578063d8a939f314610771578063e96e48ea14610779578063fb31154d14610811575b600080fd5b6101ad600480360360208110156101a657600080fd5b503561084d565b604080516001600160a01b039788168152958716602087015285810194909452919094166060840152608083019390935260a082019290925290519081900360c00190f35b61022e6004803603608081101561020857600080fd5b506001600160a01b0381358116916020810135821691604082013516906060013561089e565b60408051918252519081900360200190f35b61025d6004803603602081101561025657600080fd5b50356108a9565b604080516001600160a01b03958616815293851660208501529190931682820152606082019290925290519081900360800190f35b61029a6108f0565b005b61029a600480360360208110156102b257600080fd5b5035610967565b61029a600480360360208110156102cf57600080fd5b5035151561096c565b61030e600480360360608110156102ee57600080fd5b506001600160a01b0381358116916020810135909116906040013561097f565b604080519115158252519081900360200190f35b61030e6004803603608081101561033857600080fd5b506001600160a01b0381358116916020810135821691604082013516906060013561098c565b61029a6004803603608081101561037457600080fd5b506001600160a01b0381358116916020810135821691604082013516906060013561099a565b61030e600480360360208110156103b057600080fd5b50356001600160a01b0316610ad1565b61029a600480360360808110156103d657600080fd5b506001600160a01b03813581169160208101358216916040820135169060600135610adb565b61029a6004803603608081101561041257600080fd5b506001600160a01b03813581169160208101358216916040820135169060600135610c13565b6104556004803603602081101561044e57600080fd5b5035610d4a565b604080516001600160a01b039687168152948616602086015292909416838301526060830152608082019290925290519081900360a00190f35b61029a600480360360208110156104a557600080fd5b810190602081018135600160201b8111156104bf57600080fd5b8201836020820111156104d157600080fd5b803590602001918460208302840111600160201b831117156104f257600080fd5b919080806020026020016040519081016040528093929190818152602001838360200280828437600092019190915250929550610d96945050505050565b61022e610dad565b61025d6004803603602081101561054e57600080fd5b5035610db4565b6105726004803603602081101561056b57600080fd5b5035610dc1565b604080516001600160a01b039092168252519081900360200190f35b61029a600480360360c08110156105a457600080fd5b6001600160a01b038235811692602081013590911691810190606081016040820135600160201b8111156105d757600080fd5b8201836020820111156105e957600080fd5b803590602001918460208302840111600160201b8311171561060a57600080fd5b919080806020026020016040519081016040528093929190818152602001838360200280828437600092019190915250929550506001600160a01b038335169350505060208101359060400135610de8565b61022e611017565b61022e61101d565b61029a600480360360c081101561068257600080fd5b506001600160a01b038135811691602081013582169160408201359160608101359091169060808101359060a00135611023565b61022e600480360360808110156106cc57600080fd5b506001600160a01b03813581169160208101358216916040820135169060600135611229565b61022e611234565b61022e61123a565b61022e611240565b61022e611246565b61029a6004803603602081101561072857600080fd5b503561124c565b61022e6004803603602081101561074557600080fd5b5035611251565b6105726004803603602081101561076257600080fd5b503561126f565b61030e61127c565b61022e611285565b6107c1600480360360c081101561078f57600080fd5b506001600160a01b03813581169160208101358216916040820135169060608101359060808101359060a0013561128b565b60408051602080825283518183015283519192839290830191858101910280838360005b838110156107fd5781810151838201526020016107e5565b505050509050019250505060405180910390f35b61029a6004803603608081101561082757600080fd5b506001600160a01b038135811691602081013582169160408201351690606001356112ea565b6000818154811061085a57fe5b60009182526020909120600690910201805460018201546002830154600384015460048501546005909501546001600160a01b039485169650928416949193169186565b600754949350505050565b600381815481106108b657fe5b600091825260209091206004909102018054600182015460028301546003909301546001600160a01b039283169450908216929091169084565b60006108fc8180611422565b50600061090a600182611453565b50600061091860028261147f565b506000610926600382611453565b5060006109346004826114ab565b5060006109426005826114ab565b506006805460ff191690556000600781905560088190556109646009826114ab565b50565b600755565b6006805460ff1916911515919091179055565b60065460ff169392505050565b60065460ff16949350505050565b60408051608080820183526001600160a01b0380881680845287821660208086018281528985168789018181526060808a018c815260018054808201825560008281529c51600490910260008051602061170783398151915281018054928d166001600160a01b0319938416179055965160008051602061172783398151915288018054918d1691831691909117905593516000805160206116e78339815191528701805491909b169085161790995551600080516020611747833981519152909401939093556005805497880181559098526000805160206116678339815191529095018054909716841790965586519283528201528085019190915291820184905291517f3e85e14c08c49304e748a1e147fbbcefcb34dfedec73e807585482e3eb721869929181900390910190a150505050565b5060065460ff1690565b60408051608080820183526001600160a01b0380881680845287821660208086018281528985168789018181526060808a018c8152600380546001818101835560009283529c5160049091026000805160206116a783398151915281018054928d166001600160a01b0319938416179055965160008051602061168783398151915288018054918d1691831691909117905593516000805160206116c78339815191528701805491909b1690851617909955516000805160206116478339815191529094019390935560058054998a01815590965260008051602061166783398151915290970180549095168417909455865192835282015280850193909352820184905291517f356ea7385328d09a9a979fe4cc150558a482674bf362a75e11254d116f366e46929181900390910190a150505050565b60408051608080820183526001600160a01b0380881680845287821660208086018281528985168789018181526060808a018c815260018054808201825560008281529c51600490910260008051602061170783398151915281018054928d166001600160a01b0319938416179055965160008051602061172783398151915288018054918d1691831691909117905593516000805160206116e78339815191528701805491909b169085161790995551600080516020611747833981519152909401939093556005805497880181559098526000805160206116678339815191529095018054909716841790965586519283528201528085019190915291820184905291517f20c0018a10fcad4bc21f3e0dd6115c1df8d3240288191b8649982f94909b85c7929181900390910190a150505050565b60028181548110610d5757fe5b6000918252602090912060069091020180546001820154600383015460048401546005909401546001600160a01b039384169550918316939216919085565b8051610da99060099060208401906114cf565b5050565b6002545b90565b600181815481106108b657fe5b60058181548110610dce57fe5b6000918252602090912001546001600160a01b0316905081565b6040805160c0810182526001600160a01b038089168252878116602080840191825293830188815287831660608501526080840187905260a084018690526002805460018101808355600092909252855160069091027f405787fa12a823e0f2b7631cc41b3ba8828b3321ca811111fa75cd3aa3bb5ace810180549287166001600160a01b031993841617815594517f405787fa12a823e0f2b7631cc41b3ba8828b3321ca811111fa75cd3aa3bb5acf82018054919097169216919091179094559051805191959293610ee2937f405787fa12a823e0f2b7631cc41b3ba8828b3321ca811111fa75cd3aa3bb5ad0909101929101906114cf565b506060828101516003830180546001600160a01b039283166001600160a01b03199182161790915560808086015160048087019190915560a096870151600590960195909555845460018101865560009586527f8a35acfbc15ff81a39ae7d344fd709f28e8600b4aa8c65c6b64bfe7fe36bd19b0180548e8516931683179055604080519283528c8416602084810191909152938b1694830194909452810188905293840186905260c091840182815289519285019290925288517f0b73766e6576880ed14eb7bf691d7a034b69058b7e51b422f9e3f4ec7fb1aecf95508b948b948b948b948b948b949360e08501928981019202908190849084905b83811015610ff7578181015183820152602001610fdf565b5050505090500197505050505050505060405180910390a1505050505050565b60075481565b60035490565b60006040518060c00160405280886001600160a01b03168152602001876001600160a01b03168152602001868152602001856001600160a01b03168152602001848152602001838152509080600181540180825580915050906001820390600052602060002090600602016000909192909190915060008201518160000160006101000a8154816001600160a01b0302191690836001600160a01b0316021790555060208201518160010160006101000a8154816001600160a01b0302191690836001600160a01b031602179055506040820151816002015560608201518160030160006101000a8154816001600160a01b0302191690836001600160a01b031602179055506080820151816004015560a0820151816005015550505060048690806001815401808255809150509060018203906000526020600020016000909192909190916101000a8154816001600160a01b0302191690836001600160a01b03160217905550507f8f07c61a4e90ac86dd462d483c81e224183ac1eb573981c41e538769bffae08986868686868660405180876001600160a01b03166001600160a01b03168152602001866001600160a01b03166001600160a01b03168152602001858152602001846001600160a01b03166001600160a01b03168152602001838152602001828152602001965050505050505060405180910390a1505050505050565b600854949350505050565b60055490565b60045490565b60085481565b60005490565b600855565b6009818154811061125e57fe5b600091825260209091200154905081565b60048181548110610dce57fe5b60065460ff1681565b60015490565b606060098054806020026020016040519081016040528092919081815260200182805480156112d957602002820191906000526020600020905b8154815260200190600101908083116112c5575b505050505090509695505050505050565b60408051608080820183526001600160a01b0380881680845287821660208086018281528985168789018181526060808a018c8152600380546001818101835560009283529c5160049091026000805160206116a783398151915281018054928d166001600160a01b0319938416179055965160008051602061168783398151915288018054918d1691831691909117905593516000805160206116c78339815191528701805491909b1690851617909955516000805160206116478339815191529094019390935560058054998a01815590965260008051602061166783398151915290970180549095168417909455865192835282015280850193909352820184905291517f755c60ab47b3fc5fe06257d2fa5462ee3cf2e6146c6bd8383534da9fdd96c120929181900390910190a150505050565b81548183558181111561144e5760060281600602836000526020600020918201910161144e919061151a565b505050565b81548183558181111561144e5760040281600402836000526020600020918201910161144e919061156b565b81548183558181111561144e5760060281600602836000526020600020918201910161144e91906115ad565b81548183558181111561144e5760008381526020902061144e91810190830161160e565b82805482825590600052602060002090810192821561150a579160200282015b8281111561150a5782518255916020019190600101906114ef565b5061151692915061160e565b5090565b610db191905b808211156115165780546001600160a01b0319908116825560018201805482169055600060028301819055600383018054909216909155600482018190556005820155600601611520565b610db191905b808211156115165780546001600160a01b0319908116825560018201805482169055600282018054909116905560006003820155600401611571565b610db191905b808211156115165780546001600160a01b03199081168255600182018054909116905560006115e56002830182611628565b506003810180546001600160a01b031916905560006004820181905560058201556006016115b3565b610db191905b808211156115165760008155600101611614565b5080546000825590600052602060002090810190610964919061160e56fec2575a0e9e593c00f959f8c92f12db2869c3395a3b0502d05e2516446f71f85e036b6384b5eca791c62761152d0c79bb0604c104a5fb6f4eb0703f3154bb3db0c2575a0e9e593c00f959f8c92f12db2869c3395a3b0502d05e2516446f71f85cc2575a0e9e593c00f959f8c92f12db2869c3395a3b0502d05e2516446f71f85bc2575a0e9e593c00f959f8c92f12db2869c3395a3b0502d05e2516446f71f85db10e2d527612073b26eecdfd717e6a320cf44b4afac2b0732d9fcbe2b7fa0cf8b10e2d527612073b26eecdfd717e6a320cf44b4afac2b0732d9fcbe2b7fa0cf6b10e2d527612073b26eecdfd717e6a320cf44b4afac2b0732d9fcbe2b7fa0cf7b10e2d527612073b26eecdfd717e6a320cf44b4afac2b0732d9fcbe2b7fa0cf9a265627a7a72315820e5421dad34282a0a201c7ae324ad0dac392fbefd59cc06f9d31f663b4b4436a364736f6c634300050c0032",
  "source": "/*\n * Hubii Nahmii\n *\n * Compliant with the Hubii Nahmii specification v0.12.\n *\n * Copyright (C) 2017-2018 Hubii AS\n */\n\npragma solidity >=0.4.25 <0.6.0;\n\n/**\n * @title MockedWalletLocker\n * @notice Mocked implementation of wallet locker contract\n */\ncontract MockedWalletLocker {\n    //\n    // Types\n    // -----------------------------------------------------------------------------------------------------------------\n    struct FungibleLock {\n        address lockedWallet;\n        address lockerWallet;\n        int256 amount;\n        address currencyCt;\n        uint256 currencyId;\n        uint256 visibleTimeout;\n    }\n\n    struct NonFungibleLock {\n        address lockedWallet;\n        address lockerWallet;\n        int256[] ids;\n        address currencyCt;\n        uint256 currencyId;\n        uint256 visibleTimeout;\n    }\n\n    struct Unlock {\n        address lockedWallet;\n        address lockerWallet;\n        address currencyCt;\n        uint256 currencyId;\n    }\n\n    //\n    // Variables\n    // -----------------------------------------------------------------------------------------------------------------\n    FungibleLock[] public fungibleLocks;\n    Unlock[] public fungibleUnlocks;\n    NonFungibleLock[] public nonFungibleLocks;\n    Unlock[] public nonFungibleUnlocks;\n\n    address[] public lockedWallets;\n    address[] public unlockedWallets;\n\n    bool public locked;\n    int256 public _lockedAmount;\n    uint256 public _lockedIdsCount;\n    int256[] public _lockedIdsByIndices;\n\n    //\n    // Events\n    // -----------------------------------------------------------------------------------------------------------------\n    event LockFungibleByProxyEvent(address lockedWallet, address lockerWallet, int256 amount,\n        address currencyCt, uint256 currencyId, uint256 visibleTimeoutInSeconds);\n    event LockNonFungibleByProxyEvent(address lockedWallet, address lockerWallet, int256[] ids,\n        address currencyCt, uint256 currencyId, uint256 visibleTimeoutInSeconds);\n    event UnlockFungibleEvent(address lockedWallet, address lockerWallet, address currencyCt,\n        uint256 currencyId);\n    event UnlockFungibleByProxyEvent(address lockedWallet, address lockerWallet, address currencyCt,\n        uint256 currencyId);\n    event UnlockNonFungibleEvent(address lockedWallet, address lockerWallet, address currencyCt,\n        uint256 currencyId);\n    event UnlockNonFungibleByProxyEvent(address lockedWallet, address lockerWallet, address currencyCt,\n        uint256 currencyId);\n\n    //\n    // Functions\n    // -----------------------------------------------------------------------------------------------------------------\n    function _reset()\n    public\n    {\n        fungibleLocks.length = 0;\n        fungibleUnlocks.length = 0;\n        nonFungibleLocks.length = 0;\n        nonFungibleUnlocks.length = 0;\n        lockedWallets.length = 0;\n        unlockedWallets.length = 0;\n        locked = false;\n        _lockedAmount = 0;\n        _lockedIdsCount = 0;\n        _lockedIdsByIndices.length = 0;\n    }\n\n    function lockFungibleByProxy(address lockedWallet, address lockerWallet, int256 amount,\n        address currencyCt, uint256 currencyId, uint256 visibleTimeoutInSeconds)\n    public\n    {\n        fungibleLocks.push(\n            FungibleLock(\n                lockedWallet, lockerWallet, amount, currencyCt, currencyId, visibleTimeoutInSeconds\n            )\n        );\n        lockedWallets.push(lockedWallet);\n        emit LockFungibleByProxyEvent(\n            lockedWallet, lockerWallet, amount, currencyCt, currencyId, visibleTimeoutInSeconds\n        );\n    }\n\n    function lockNonFungibleByProxy(address lockedWallet, address lockerWallet, int256[] memory ids,\n        address currencyCt, uint256 currencyId, uint256 visibleTimeoutInSeconds)\n    public\n    {\n        nonFungibleLocks.push(\n            NonFungibleLock(\n                lockedWallet, lockerWallet, ids, currencyCt, currencyId, visibleTimeoutInSeconds\n            )\n        );\n        lockedWallets.push(lockedWallet);\n        emit LockNonFungibleByProxyEvent(\n            lockedWallet, lockerWallet, ids, currencyCt, currencyId, visibleTimeoutInSeconds\n        );\n    }\n\n    function unlockFungible(address lockedWallet, address lockerWallet,\n        address currencyCt, uint256 currencyId)\n    public\n    {\n        fungibleUnlocks.push(Unlock(lockedWallet, lockerWallet, currencyCt, currencyId));\n        unlockedWallets.push(lockedWallet);\n        emit UnlockFungibleEvent(lockedWallet, lockerWallet, currencyCt, currencyId);\n    }\n\n    function unlockFungibleByProxy(address lockedWallet, address lockerWallet,\n        address currencyCt, uint256 currencyId)\n    public\n    {\n        fungibleUnlocks.push(Unlock(lockedWallet, lockerWallet, currencyCt, currencyId));\n        unlockedWallets.push(lockedWallet);\n        emit UnlockFungibleByProxyEvent(lockedWallet, lockerWallet, currencyCt, currencyId);\n    }\n\n    function unlockNonFungible(address lockedWallet, address lockerWallet,\n        address currencyCt, uint256 currencyId)\n    public\n    {\n        nonFungibleUnlocks.push(Unlock(lockedWallet, lockerWallet, currencyCt, currencyId));\n        unlockedWallets.push(lockedWallet);\n        emit UnlockNonFungibleEvent(lockedWallet, lockerWallet, currencyCt, currencyId);\n    }\n\n    function unlockNonFungibleByProxy(address lockedWallet, address lockerWallet,\n        address currencyCt, uint256 currencyId)\n    public\n    {\n        nonFungibleUnlocks.push(Unlock(lockedWallet, lockerWallet, currencyCt, currencyId));\n        unlockedWallets.push(lockedWallet);\n        emit UnlockNonFungibleByProxyEvent(lockedWallet, lockerWallet, currencyCt, currencyId);\n    }\n\n    function _lockedWalletsCount()\n    public\n    view\n    returns (uint256)\n    {\n        return lockedWallets.length;\n    }\n\n    function _unlockedWalletsCount()\n    public\n    view\n    returns (uint256)\n    {\n        return unlockedWallets.length;\n    }\n\n    function _fungibleLocksCount()\n    public\n    view\n    returns (uint256)\n    {\n        return fungibleLocks.length;\n    }\n\n    function _fungibleUnlocksCount()\n    public\n    view\n    returns (uint256)\n    {\n        return fungibleUnlocks.length;\n    }\n\n    function _nonFungibleLocksCount()\n    public\n    view\n    returns (uint256)\n    {\n        return nonFungibleLocks.length;\n    }\n\n    function _nonFungibleUnlocksCount()\n    public\n    view\n    returns (uint256)\n    {\n        return nonFungibleUnlocks.length;\n    }\n\n    function isLocked(address)\n    public\n    view\n    returns (bool)\n    {\n        return locked;\n    }\n\n    function isLocked(address, address, uint256)\n    public\n    view\n    returns (bool)\n    {\n        return locked;\n    }\n\n    function isLocked(address, address, address, uint256)\n    public\n    view\n    returns (bool)\n    {\n        return locked;\n    }\n\n    function _setLocked(bool _locked)\n    public\n    {\n        locked = _locked;\n    }\n\n    function lockedAmount(address, address, address, uint256)\n    public\n    view\n    returns (int256)\n    {\n        return _lockedAmount;\n    }\n\n    function _setLockedAmount(int256 amount)\n    public\n    {\n        _lockedAmount = amount;\n    }\n\n    function lockedIdsCount(address, address, address, uint256)\n    public\n    view\n    returns (uint256)\n    {\n        return _lockedIdsCount;\n    }\n\n    function _setLockedIdsCount(uint256 count)\n    public\n    {\n        _lockedIdsCount = count;\n    }\n\n    function lockedIdsByIndices(address, address, address, uint256, uint256, uint256)\n    public\n    view\n    returns (int256[] memory)\n    {\n        return _lockedIdsByIndices;\n    }\n\n    function _setLockedIdsByIndices(int256[] memory ids)\n    public\n    {\n        _lockedIdsByIndices = ids;\n    }\n}",
  "sourcePath": "/opt/buildagent/work/855e104608380c36/contracts/test/MockedWalletLocker.sol",
  "compiler": {
    "name": "solc",
    "version": "0.5.12+commit.7709ece9.Emscripten.clang"
  },
  "schemaVersion": "2.0.3",
  "updatedAt": "2019-10-22T21:00:29.609Z"
}