{
  "contractName": "MockedAccrualBeneficiary",
  "abi": [
    {
      "anonymous": false,
      "inputs": [],
      "name": "CloseAccrualPeriodEvent",
      "type": "event"
    },
    {
      "constant": true,
      "inputs": [
        {
          "internalType": "uint256",
          "name": "",
          "type": "uint256"
        }
      ],
      "name": "_benefits",
      "outputs": [
        {
          "internalType": "address",
          "name": "wallet",
          "type": "address"
        },
        {
          "internalType": "string",
          "name": "balanceType",
          "type": "string"
        },
        {
          "components": [
            {
              "internalType": "int256",
              "name": "amount",
              "type": "int256"
            },
            {
              "components": [
                {
                  "internalType": "address",
                  "name": "ct",
                  "type": "address"
                },
                {
                  "internalType": "uint256",
                  "name": "id",
                  "type": "uint256"
                }
              ],
              "internalType": "struct MonetaryTypesLib.Currency",
              "name": "currency",
              "type": "tuple"
            }
          ],
          "internalType": "struct MonetaryTypesLib.Figure",
          "name": "figure",
          "type": "tuple"
        },
        {
          "internalType": "string",
          "name": "standard",
          "type": "string"
        }
      ],
      "payable": false,
      "stateMutability": "view",
      "type": "function"
    },
    {
      "constant": true,
      "inputs": [],
      "name": "_closedAccrualPeriodsCount",
      "outputs": [
        {
          "internalType": "uint256",
          "name": "",
          "type": "uint256"
        }
      ],
      "payable": false,
      "stateMutability": "view",
      "type": "function"
    },
    {
      "constant": true,
      "inputs": [
        {
          "internalType": "uint256",
          "name": "index",
          "type": "uint256"
        }
      ],
      "name": "_getBenefit",
      "outputs": [
        {
          "internalType": "address",
          "name": "wallet",
          "type": "address"
        },
        {
          "internalType": "string",
          "name": "balanceType",
          "type": "string"
        },
        {
          "internalType": "int256",
          "name": "amount",
          "type": "int256"
        },
        {
          "internalType": "address",
          "name": "currencyCt",
          "type": "address"
        },
        {
          "internalType": "uint256",
          "name": "currencyId",
          "type": "uint256"
        },
        {
          "internalType": "string",
          "name": "standard",
          "type": "string"
        }
      ],
      "payable": false,
      "stateMutability": "view",
      "type": "function"
    },
    {
      "constant": false,
      "inputs": [
        {
          "internalType": "address",
          "name": "wallet",
          "type": "address"
        },
        {
          "internalType": "string",
          "name": "balanceType",
          "type": "string"
        }
      ],
      "name": "receiveEthersTo",
      "outputs": [],
      "payable": true,
      "stateMutability": "payable",
      "type": "function"
    },
    {
      "constant": false,
      "inputs": [
        {
          "internalType": "address",
          "name": "wallet",
          "type": "address"
        },
        {
          "internalType": "string",
          "name": "balanceType",
          "type": "string"
        },
        {
          "internalType": "int256",
          "name": "amount",
          "type": "int256"
        },
        {
          "internalType": "address",
          "name": "currencyCt",
          "type": "address"
        },
        {
          "internalType": "uint256",
          "name": "currencyId",
          "type": "uint256"
        },
        {
          "internalType": "string",
          "name": "standard",
          "type": "string"
        }
      ],
      "name": "receiveTokensTo",
      "outputs": [],
      "payable": false,
      "stateMutability": "nonpayable",
      "type": "function"
    },
    {
      "constant": false,
      "inputs": [],
      "name": "_reset",
      "outputs": [],
      "payable": false,
      "stateMutability": "nonpayable",
      "type": "function"
    },
    {
      "constant": false,
      "inputs": [
        {
          "components": [
            {
              "internalType": "address",
              "name": "ct",
              "type": "address"
            },
            {
              "internalType": "uint256",
              "name": "id",
              "type": "uint256"
            }
          ],
          "internalType": "struct MonetaryTypesLib.Currency[]",
          "name": "",
          "type": "tuple[]"
        }
      ],
      "name": "closeAccrualPeriod",
      "outputs": [],
      "payable": false,
      "stateMutability": "nonpayable",
      "type": "function"
    }
  ],
  "bytecode": "0x608060405234801561001057600080fd5b50610e22806100206000396000f3fe6080604052600436106100605760003560e01c8063062df780146100655780631592f0ab14610090578063477fbc39146100a75780635f289651146100c7578063a7654a1f146100e7578063ab34a92c146100fa578063d2c6a9b01461012c575b600080fd5b34801561007157600080fd5b5061007a61015c565b6040516100879190610ca7565b60405180910390f35b34801561009c57600080fd5b506100a5610162565b005b3480156100b357600080fd5b506100a56100c2366004610afd565b610171565b3480156100d357600080fd5b506100a56100e2366004610a48565b61017c565b6100a56100f53660046109f7565b610289565b34801561010657600080fd5b5061011a610115366004610b39565b61039f565b60405161008796959493929190610bf5565b34801561013857600080fd5b5061014c610147366004610b39565b6105b1565b6040516100879493929190610c5c565b60015481565b61016a610741565b6000600155565b506001805481019055565b604080516080810182526001600160a01b03888116825260208083018981528451808601865289815285518087018752898516815280840189905281840152948401949094526060830185905260008054600181018083559180528451600080516020610da0833981519152600690920291820180546001600160a01b0319169190951617845594518051919561022893600080516020610dc083398151915290910192910190610750565b5060408201518051600283015560209081015180516003840180546001600160a01b0319166001600160a01b0390921691909117905581015160048301556060830151805161027d9260058501920190610750565b50505050505050505050565b604080516080810182526001600160a01b0384811682526020808301858152845180860186523481528551808701875260008082528185018190528285019190915285870191909152855180840190965280865260608501959095528454600181018087559580528451600080516020610da0833981519152600690920291820180546001600160a01b031916919095161784559051805161034293600080516020610dc0833981519152909301929190910190610750565b5060408201518051600283015560209081015180516003840180546001600160a01b0319166001600160a01b039092169190911790558101516004830155606083015180516103979260058501920190610750565b505050505050565b6000606060008060006060600087815481106103b757fe5b6000918252602082206006909102015481546001600160a01b039091169750889081106103e057fe5b90600052602060002090600602016001018054600181600116156101000203166002900480601f0160208091040260200160405190810160405280929190818152602001828054600181600116156101000203166002900480156104855780601f1061045a57610100808354040283529160200191610485565b820191906000526020600020905b81548152906001019060200180831161046857829003601f168201915b505050505094506000878154811061049957fe5b9060005260206000209060060201600201600001549350600087815481106104bd57fe5b6000918252602082206003600690920201015481546001600160a01b039091169450889081106104e957fe5b6000918252602082206004600690920201015481549093508890811061050b57fe5b6000918252602091829020600560069092020101805460408051601f60026000196101006001871615020190941693909304928301859004850281018501909152818152928301828280156105a15780601f10610576576101008083540402835291602001916105a1565b820191906000526020600020905b81548152906001019060200180831161058457829003601f168201915b5050505050905091939550919395565b600081815481106105be57fe5b600091825260209182902060069091020180546001808301805460408051601f60026000199685161561010002969096019093169490940491820187900487028401870190528083526001600160a01b03909316955092939092919083018282801561066b5780601f106106405761010080835404028352916020019161066b565b820191906000526020600020905b81548152906001019060200180831161064e57829003601f168201915b505060408051808201825260028781015482528251808401845260038901546001600160a01b0316815260048901546020808301919091528084019190915260058901805485516101006001831615026000190190911693909304601f8101839004830284018301909552848352979892979296509094509092508301828280156107375780601f1061070c57610100808354040283529160200191610737565b820191906000526020600020905b81548152906001019060200180831161071a57829003601f168201915b5050505050905084565b600061074d81806107ce565b50565b828054600181600116156101000203166002900490600052602060002090601f016020900481019282601f1061079157805160ff19168380011785556107be565b828001600101855582156107be579182015b828111156107be5782518255916020019190600101906107a3565b506107ca9291506107ff565b5090565b8154818355818111156107fa576006028160060283600052602060002091820191016107fa919061081c565b505050565b61081991905b808211156107ca5760008155600101610805565b90565b61081991905b808211156107ca5780546001600160a01b031916815560006108476001830182610880565b6000600283018190556003830180546001600160a01b031916905560048301819055610877906005840190610880565b50600601610822565b50805460018160011615610100020316600290046000825580601f106108a6575061074d565b601f01602090049060005260206000209081019061074d91906107ff565b80356108cf81610d82565b92915050565b600082601f8301126108e657600080fd5b81356108f96108f482610cdb565b610cb5565b9150818183526020840193506020810190508385604084028201111561091e57600080fd5b60005b8381101561094c578161093488826109b0565b84525060209092019160409190910190600101610921565b5050505092915050565b80356108cf81610d96565b600082601f83011261097257600080fd5b81356109806108f482610cfb565b9150808252602083016020830185838301111561099c57600080fd5b6109a7838284610d40565b50505092915050565b6000604082840312156109c257600080fd5b6109cc6040610cb5565b905060006109da84846108c4565b82525060206109eb84848301610956565b60208301525092915050565b60008060408385031215610a0a57600080fd5b6000610a1685856108c4565b92505060208301356001600160401b03811115610a3257600080fd5b610a3e85828601610961565b9150509250929050565b60008060008060008060c08789031215610a6157600080fd5b6000610a6d89896108c4565b96505060208701356001600160401b03811115610a8957600080fd5b610a9589828a01610961565b9550506040610aa689828a01610956565b9450506060610ab789828a016108c4565b9350506080610ac889828a01610956565b92505060a08701356001600160401b03811115610ae457600080fd5b610af089828a01610961565b9150509295509295509295565b600060208284031215610b0f57600080fd5b81356001600160401b03811115610b2557600080fd5b610b31848285016108d5565b949350505050565b600060208284031215610b4b57600080fd5b6000610b318484610956565b610b6081610d2f565b82525050565b610b6081610819565b6000610b7a82610d22565b610b848185610d26565b9350610b94818560208601610d4c565b610b9d81610d78565b9093019392505050565b80516040830190610bb88482610b57565b506020820151610bcb6020850182610b66565b50505050565b80516060830190610be28482610b66565b506020820151610bcb6020850182610ba7565b60c08101610c038289610b57565b8181036020830152610c158188610b6f565b9050610c246040830187610b66565b610c316060830186610b57565b610c3e6080830185610b66565b81810360a0830152610c508184610b6f565b98975050505050505050565b60c08101610c6a8287610b57565b8181036020830152610c7c8186610b6f565b9050610c8b6040830185610bd1565b81810360a0830152610c9d8184610b6f565b9695505050505050565b602081016108cf8284610b66565b6040518181016001600160401b0381118282101715610cd357600080fd5b604052919050565b60006001600160401b03821115610cf157600080fd5b5060209081020190565b60006001600160401b03821115610d1157600080fd5b506020601f91909101601f19160190565b5190565b90815260200190565b60006001600160a01b0382166108cf565b82818337506000910152565b60005b83811015610d67578181015183820152602001610d4f565b83811115610bcb5750506000910152565b601f01601f191690565b610d8b81610d2f565b811461074d57600080fd5b610d8b8161081956fe290decd9548b62a8d60345a988386fc84ba6bc95484008f6362f93160ef3e563290decd9548b62a8d60345a988386fc84ba6bc95484008f6362f93160ef3e564a365627a7a7231582021231d77826ddf3a849bcb6ac690ebe13b6fb489556fc7be17d098198128b6b06c6578706572696d656e74616cf564736f6c634300050c0040",
  "source": "/*\n * Hubii Nahmii\n *\n * Compliant with the Hubii Nahmii specification v0.12.\n *\n * Copyright (C) 2017-2018 Hubii AS\n */\n\npragma solidity >=0.4.25 <0.6.0;\npragma experimental ABIEncoderV2;\n\nimport {AccrualBeneficiary} from \"../AccrualBeneficiary.sol\";\nimport {MockedBeneficiary} from \"./MockedBeneficiary.sol\";\nimport {MonetaryTypesLib} from \"../MonetaryTypesLib.sol\";\n\n/**\n * @title MockedAccrualBeneficiary\n * @notice Mocked implementation of accrual beneficiary\n */\ncontract MockedAccrualBeneficiary is AccrualBeneficiary, MockedBeneficiary {\n    //\n    // Variables\n    // -----------------------------------------------------------------------------------------------------------------\n    uint256 public _closedAccrualPeriodsCount;\n\n    //\n    // Functions\n    // -----------------------------------------------------------------------------------------------------------------\n    function _reset()\n    public\n    {\n        super._reset();\n        _closedAccrualPeriodsCount = 0;\n    }\n\n    function closeAccrualPeriod(MonetaryTypesLib.Currency[] memory)\n    public\n    {\n        _closedAccrualPeriodsCount++;\n    }\n}",
  "sourcePath": "/opt/buildagent/work/855e104608380c36/contracts/test/MockedAccrualBeneficiary.sol",
  "compiler": {
    "name": "solc",
    "version": "0.5.12+commit.7709ece9.Emscripten.clang"
  },
  "schemaVersion": "2.0.3",
  "updatedAt": "2019-10-22T21:00:29.559Z"
}