{
  "contractName": "MockedBenefactor",
  "abi": [
    {
      "anonymous": false,
      "inputs": [
        {
          "indexed": false,
          "internalType": "contract Beneficiary",
          "name": "beneficiary",
          "type": "address"
        }
      ],
      "name": "DeregisterBeneficiaryEvent",
      "type": "event"
    },
    {
      "anonymous": false,
      "inputs": [
        {
          "indexed": false,
          "internalType": "contract Beneficiary",
          "name": "beneficiary",
          "type": "address"
        }
      ],
      "name": "RegisterBeneficiaryEvent",
      "type": "event"
    },
    {
      "constant": true,
      "inputs": [
        {
          "internalType": "uint256",
          "name": "",
          "type": "uint256"
        }
      ],
      "name": "beneficiaries",
      "outputs": [
        {
          "internalType": "contract Beneficiary",
          "name": "",
          "type": "address"
        }
      ],
      "payable": false,
      "stateMutability": "view",
      "type": "function"
    },
    {
      "constant": true,
      "inputs": [
        {
          "internalType": "address",
          "name": "",
          "type": "address"
        }
      ],
      "name": "beneficiaryIndexByAddress",
      "outputs": [
        {
          "internalType": "uint256",
          "name": "",
          "type": "uint256"
        }
      ],
      "payable": false,
      "stateMutability": "view",
      "type": "function"
    },
    {
      "constant": false,
      "inputs": [],
      "name": "_reset",
      "outputs": [],
      "payable": false,
      "stateMutability": "nonpayable",
      "type": "function"
    },
    {
      "constant": false,
      "inputs": [
        {
          "internalType": "contract Beneficiary",
          "name": "beneficiary",
          "type": "address"
        }
      ],
      "name": "registerBeneficiary",
      "outputs": [
        {
          "internalType": "bool",
          "name": "",
          "type": "bool"
        }
      ],
      "payable": false,
      "stateMutability": "nonpayable",
      "type": "function"
    },
    {
      "constant": false,
      "inputs": [
        {
          "internalType": "contract Beneficiary",
          "name": "beneficiary",
          "type": "address"
        }
      ],
      "name": "deregisterBeneficiary",
      "outputs": [
        {
          "internalType": "bool",
          "name": "",
          "type": "bool"
        }
      ],
      "payable": false,
      "stateMutability": "nonpayable",
      "type": "function"
    },
    {
      "constant": true,
      "inputs": [
        {
          "internalType": "contract Beneficiary",
          "name": "beneficiary",
          "type": "address"
        }
      ],
      "name": "isRegisteredBeneficiary",
      "outputs": [
        {
          "internalType": "bool",
          "name": "",
          "type": "bool"
        }
      ],
      "payable": false,
      "stateMutability": "view",
      "type": "function"
    },
    {
      "constant": true,
      "inputs": [],
      "name": "registeredBeneficiariesCount",
      "outputs": [
        {
          "internalType": "uint256",
          "name": "",
          "type": "uint256"
        }
      ],
      "payable": false,
      "stateMutability": "view",
      "type": "function"
    }
  ],
  "bytecode": "0x608060405234801561001057600080fd5b506104fb806100206000396000f3fe608060405234801561001057600080fd5b506004361061006d5760003560e01c806304fd3130146100725780631592f0ab146100ac5780631caf1d6d146100b657806344b53737146100dc57806367299f3614610114578063cdd8b2b21461011c578063efeb5e5814610142575b600080fd5b6100986004803603602081101561008857600080fd5b50356001600160a01b031661017b565b604080519115158252519081900360200190f35b6100b461019c565b005b610098600480360360208110156100cc57600080fd5b50356001600160a01b03166101f6565b610102600480360360208110156100f257600080fd5b50356001600160a01b0316610358565b60408051918252519081900360200190f35b61010261036a565b6100986004803603602081101561013257600080fd5b50356001600160a01b0316610371565b61015f6004803603602081101561015857600080fd5b5035610437565b604080516001600160a01b039092168252519081900360200190f35b6001600160a01b03811660009081526001602052604090205415155b919050565b60005b6000548110156101e8576000600160008084815481106101bb57fe5b60009182526020808320909101546001600160a01b0316835282019290925260400190205560010161019f565b506101f460008061045e565b565b6001600160a01b038116600090815260016020526040812054829061021f576000915050610197565b6001600160a01b038116600090815260016020526040812054905460001991820191018110156102e75760008054600019810190811061025b57fe5b600091825260208220015481546001600160a01b0390911691908390811061027f57fe5b9060005260206000200160006101000a8154816001600160a01b0302191690836001600160a01b0316021790555080600101600160008084815481106102c157fe5b60009182526020808320909101546001600160a01b031683528201929092526040019020555b60008054906102fa90600019830161047f565b506001600160a01b038083166000908152600160209081526040808320929092558151928716835290517f33f51cf787669db5b5aff6ba597298fd010748de93aaadef29aae876cef4a8c39281900390910190a15060019392505050565b60016020526000908152604090205481565b6000545b90565b6001600160a01b03811660009081526001602052604081205482901561039b576000915050610197565b60008054600180820183557f290decd9548b62a8d60345a988386fc84ba6bc95484008f6362f93160ef3e56390910180546001600160a01b0319166001600160a01b0387811691821790925583549185168452602092835260409384902091909155825190815291517fdd62ff6d9c23793871e7d4796bde6c5dfb2bf8bcbd4186411cee3eb9f61895219281900390910190a150600192915050565b6000818154811061044457fe5b6000918252602090912001546001600160a01b0316905081565b508054600082559060005260206000209081019061047c91906104a8565b50565b8154818355818111156104a3576000838152602090206104a39181019083016104a8565b505050565b61036e91905b808211156104c257600081556001016104ae565b509056fea265627a7a72315820c007d771aefaec0575d101f342f641949dbb6bd706bc7e002ceb6ef723f1cdaf64736f6c634300050c0032",
  "source": "/*\n * Hubii Nahmii\n *\n * Compliant with the Hubii Nahmii specification v0.12.\n *\n * Copyright (C) 2017-2018 Hubii AS\n */\n\npragma solidity >=0.4.25 <0.6.0;\n\nimport {Ownable} from \"../Ownable.sol\";\nimport {Beneficiary} from \"../Beneficiary.sol\";\n\n/**\n * @title MockedBenefactor\n * @notice Mocked implementation of benefactor\n */\ncontract MockedBenefactor {\n    //\n    // Variables\n    // -----------------------------------------------------------------------------------------------------------------\n    Beneficiary[] public beneficiaries;\n    mapping(address => uint256) public beneficiaryIndexByAddress;\n\n    //\n    // Events\n    // -----------------------------------------------------------------------------------------------------------------\n    event RegisterBeneficiaryEvent(Beneficiary beneficiary);\n    event DeregisterBeneficiaryEvent(Beneficiary beneficiary);\n\n    //\n    // Functions\n    // -----------------------------------------------------------------------------------------------------------------\n    function _reset()\n    public\n    {\n        for (uint256 i = 0; i < beneficiaries.length; i++)\n            beneficiaryIndexByAddress[address(beneficiaries[i])] = 0;\n        delete beneficiaries;\n    }\n\n    function registerBeneficiary(Beneficiary beneficiary)\n    public\n    returns (bool)\n    {\n        address _beneficiary = address(beneficiary);\n\n        if (beneficiaryIndexByAddress[_beneficiary] > 0)\n            return false;\n\n        beneficiaries.push(beneficiary);\n        beneficiaryIndexByAddress[_beneficiary] = beneficiaries.length;\n\n        // Emit event\n        emit RegisterBeneficiaryEvent(beneficiary);\n\n        return true;\n    }\n\n    function deregisterBeneficiary(Beneficiary beneficiary)\n    public\n    returns (bool)\n    {\n        address _beneficiary = address(beneficiary);\n\n        if (beneficiaryIndexByAddress[_beneficiary] == 0)\n            return false;\n\n        uint256 idx = beneficiaryIndexByAddress[_beneficiary] - 1;\n        if (idx < beneficiaries.length - 1) {\n            // Remap the last item in the array to this index\n            beneficiaries[idx] = beneficiaries[beneficiaries.length - 1];\n            beneficiaryIndexByAddress[address(beneficiaries[idx])] = idx + 1;\n        }\n        beneficiaries.length--;\n        beneficiaryIndexByAddress[_beneficiary] = 0;\n\n        // Emit event\n        emit DeregisterBeneficiaryEvent(beneficiary);\n\n        return true;\n    }\n\n    function isRegisteredBeneficiary(Beneficiary beneficiary)\n    public\n    view\n    returns (bool)\n    {\n        return beneficiaryIndexByAddress[address(beneficiary)] > 0;\n    }\n\n    function registeredBeneficiariesCount()\n    public\n    view\n    returns (uint256)\n    {\n        return beneficiaries.length;\n    }}\n",
  "sourcePath": "/opt/buildagent/work/855e104608380c36/contracts/test/MockedBenefactor.sol",
  "compiler": {
    "name": "solc",
    "version": "0.5.12+commit.7709ece9.Emscripten.clang"
  },
  "schemaVersion": "2.0.3",
  "updatedAt": "2019-10-22T21:00:29.561Z"
}