{
  "contractName": "MockedDriipSettlementDisputeByPayment",
  "abi": [
    {
      "constant": true,
      "inputs": [],
      "name": "_challengeByPaymentCount",
      "outputs": [
        {
          "internalType": "uint256",
          "name": "",
          "type": "uint256"
        }
      ],
      "payable": false,
      "stateMutability": "view",
      "type": "function"
    },
    {
      "constant": false,
      "inputs": [],
      "name": "_reset",
      "outputs": [],
      "payable": false,
      "stateMutability": "nonpayable",
      "type": "function"
    },
    {
      "constant": false,
      "inputs": [
        {
          "internalType": "address",
          "name": "",
          "type": "address"
        },
        {
          "components": [
            {
              "internalType": "int256",
              "name": "amount",
              "type": "int256"
            },
            {
              "components": [
                {
                  "internalType": "address",
                  "name": "ct",
                  "type": "address"
                },
                {
                  "internalType": "uint256",
                  "name": "id",
                  "type": "uint256"
                }
              ],
              "internalType": "struct MonetaryTypesLib.Currency",
              "name": "currency",
              "type": "tuple"
            },
            {
              "components": [
                {
                  "internalType": "uint256",
                  "name": "nonce",
                  "type": "uint256"
                },
                {
                  "internalType": "address",
                  "name": "wallet",
                  "type": "address"
                },
                {
                  "components": [
                    {
                      "internalType": "int256",
                      "name": "current",
                      "type": "int256"
                    },
                    {
                      "internalType": "int256",
                      "name": "previous",
                      "type": "int256"
                    }
                  ],
                  "internalType": "struct NahmiiTypesLib.CurrentPreviousInt256",
                  "name": "balances",
                  "type": "tuple"
                },
                {
                  "components": [
                    {
                      "components": [
                        {
                          "internalType": "int256",
                          "name": "amount",
                          "type": "int256"
                        },
                        {
                          "components": [
                            {
                              "internalType": "address",
                              "name": "ct",
                              "type": "address"
                            },
                            {
                              "internalType": "uint256",
                              "name": "id",
                              "type": "uint256"
                            }
                          ],
                          "internalType": "struct MonetaryTypesLib.Currency",
                          "name": "currency",
                          "type": "tuple"
                        }
                      ],
                      "internalType": "struct MonetaryTypesLib.Figure",
                      "name": "single",
                      "type": "tuple"
                    },
                    {
                      "components": [
                        {
                          "internalType": "uint256",
                          "name": "originId",
                          "type": "uint256"
                        },
                        {
                          "components": [
                            {
                              "internalType": "int256",
                              "name": "amount",
                              "type": "int256"
                            },
                            {
                              "components": [
                                {
                                  "internalType": "address",
                                  "name": "ct",
                                  "type": "address"
                                },
                                {
                                  "internalType": "uint256",
                                  "name": "id",
                                  "type": "uint256"
                                }
                              ],
                              "internalType": "struct MonetaryTypesLib.Currency",
                              "name": "currency",
                              "type": "tuple"
                            }
                          ],
                          "internalType": "struct MonetaryTypesLib.Figure",
                          "name": "figure",
                          "type": "tuple"
                        }
                      ],
                      "internalType": "struct NahmiiTypesLib.OriginFigure[]",
                      "name": "total",
                      "type": "tuple[]"
                    }
                  ],
                  "internalType": "struct NahmiiTypesLib.SingleFigureTotalOriginFigures",
                  "name": "fees",
                  "type": "tuple"
                },
                {
                  "internalType": "string",
                  "name": "data",
                  "type": "string"
                }
              ],
              "internalType": "struct PaymentTypesLib.PaymentSenderParty",
              "name": "sender",
              "type": "tuple"
            },
            {
              "components": [
                {
                  "internalType": "uint256",
                  "name": "nonce",
                  "type": "uint256"
                },
                {
                  "internalType": "address",
                  "name": "wallet",
                  "type": "address"
                },
                {
                  "components": [
                    {
                      "internalType": "int256",
                      "name": "current",
                      "type": "int256"
                    },
                    {
                      "internalType": "int256",
                      "name": "previous",
                      "type": "int256"
                    }
                  ],
                  "internalType": "struct NahmiiTypesLib.CurrentPreviousInt256",
                  "name": "balances",
                  "type": "tuple"
                },
                {
                  "components": [
                    {
                      "components": [
                        {
                          "internalType": "uint256",
                          "name": "originId",
                          "type": "uint256"
                        },
                        {
                          "components": [
                            {
                              "internalType": "int256",
                              "name": "amount",
                              "type": "int256"
                            },
                            {
                              "components": [
                                {
                                  "internalType": "address",
                                  "name": "ct",
                                  "type": "address"
                                },
                                {
                                  "internalType": "uint256",
                                  "name": "id",
                                  "type": "uint256"
                                }
                              ],
                              "internalType": "struct MonetaryTypesLib.Currency",
                              "name": "currency",
                              "type": "tuple"
                            }
                          ],
                          "internalType": "struct MonetaryTypesLib.Figure",
                          "name": "figure",
                          "type": "tuple"
                        }
                      ],
                      "internalType": "struct NahmiiTypesLib.OriginFigure[]",
                      "name": "total",
                      "type": "tuple[]"
                    }
                  ],
                  "internalType": "struct NahmiiTypesLib.TotalOriginFigures",
                  "name": "fees",
                  "type": "tuple"
                }
              ],
              "internalType": "struct PaymentTypesLib.PaymentRecipientParty",
              "name": "recipient",
              "type": "tuple"
            },
            {
              "components": [
                {
                  "internalType": "int256",
                  "name": "single",
                  "type": "int256"
                },
                {
                  "internalType": "int256",
                  "name": "total",
                  "type": "int256"
                }
              ],
              "internalType": "struct NahmiiTypesLib.SingleTotalInt256",
              "name": "transfers",
              "type": "tuple"
            },
            {
              "components": [
                {
                  "components": [
                    {
                      "internalType": "bytes32",
                      "name": "hash",
                      "type": "bytes32"
                    },
                    {
                      "components": [
                        {
                          "internalType": "bytes32",
                          "name": "r",
                          "type": "bytes32"
                        },
                        {
                          "internalType": "bytes32",
                          "name": "s",
                          "type": "bytes32"
                        },
                        {
                          "internalType": "uint8",
                          "name": "v",
                          "type": "uint8"
                        }
                      ],
                      "internalType": "struct NahmiiTypesLib.Signature",
                      "name": "signature",
                      "type": "tuple"
                    }
                  ],
                  "internalType": "struct NahmiiTypesLib.Seal",
                  "name": "wallet",
                  "type": "tuple"
                },
                {
                  "components": [
                    {
                      "internalType": "bytes32",
                      "name": "hash",
                      "type": "bytes32"
                    },
                    {
                      "components": [
                        {
                          "internalType": "bytes32",
                          "name": "r",
                          "type": "bytes32"
                        },
                        {
                          "internalType": "bytes32",
                          "name": "s",
                          "type": "bytes32"
                        },
                        {
                          "internalType": "uint8",
                          "name": "v",
                          "type": "uint8"
                        }
                      ],
                      "internalType": "struct NahmiiTypesLib.Signature",
                      "name": "signature",
                      "type": "tuple"
                    }
                  ],
                  "internalType": "struct NahmiiTypesLib.Seal",
                  "name": "operator",
                  "type": "tuple"
                }
              ],
              "internalType": "struct NahmiiTypesLib.WalletOperatorSeal",
              "name": "seals",
              "type": "tuple"
            },
            {
              "internalType": "uint256",
              "name": "blockNumber",
              "type": "uint256"
            },
            {
              "components": [
                {
                  "internalType": "uint256",
                  "name": "id",
                  "type": "uint256"
                },
                {
                  "internalType": "string",
                  "name": "data",
                  "type": "string"
                }
              ],
              "internalType": "struct PaymentTypesLib.Operator",
              "name": "operator",
              "type": "tuple"
            }
          ],
          "internalType": "struct PaymentTypesLib.Payment",
          "name": "",
          "type": "tuple"
        },
        {
          "internalType": "address",
          "name": "",
          "type": "address"
        }
      ],
      "name": "challengeByPayment",
      "outputs": [],
      "payable": false,
      "stateMutability": "nonpayable",
      "type": "function"
    }
  ],
  "bytecode": "0x608060405234801561001057600080fd5b506107f8806100206000396000f3fe608060405234801561001057600080fd5b50600436106100415760003560e01c80631592f0ab146100465780631d5ccaf21461005057806326977d8b14610063575b600080fd5b61004e610081565b005b61004e61005e366004610672565b610087565b61006b610095565b60405161007891906106e5565b60405180910390f35b60008055565b505060008054600101905550565b60005481565b80356100a68161078c565b92915050565b600082601f8301126100bd57600080fd5b81356100d06100cb82610719565b6106f3565b915081818352602084019350602081019050838560808402820111156100f557600080fd5b60005b83811015610123578161010b8882610285565b845250602090920191608091909101906001016100f8565b5050505092915050565b80356100a6816107a3565b600082601f83011261014957600080fd5b81356101576100cb82610739565b9150808252602083016020830185838301111561017357600080fd5b61017e838284610780565b50505092915050565b60006040828403121561019957600080fd5b6101a360406106f3565b905060006101b1848461009b565b82525060206101c28484830161012d565b60208301525092915050565b6000604082840312156101e057600080fd5b6101ea60406106f3565b905060006101b1848461012d565b60006060828403121561020a57600080fd5b61021460406106f3565b90506000610222848461012d565b82525060206101c284848301610187565b60006040828403121561024557600080fd5b61024f60406106f3565b9050600061025d848461012d565b82525060208201356001600160401b0381111561027957600080fd5b6101c284828501610138565b60006080828403121561029757600080fd5b6102a160406106f3565b905060006102af848461012d565b82525060206101c2848483016101f8565b600060a082840312156102d257600080fd5b6102dc60806106f3565b905060006102ea848461012d565b82525060206102fb8484830161009b565b602083015250604061030f848285016101ce565b60408301525060808201356001600160401b0381111561032e57600080fd5b61033a848285016105e2565b60608301525092915050565b600060c0828403121561035857600080fd5b61036260a06106f3565b90506000610370848461012d565b82525060206103818484830161009b565b6020830152506040610395848285016101ce565b60408301525060808201356001600160401b038111156103b457600080fd5b6103c084828501610590565b60608301525060a08201356001600160401b038111156103df57600080fd5b6103eb84828501610138565b60808301525092915050565b6000610220828403121561040a57600080fd5b6104156101006106f3565b90506000610423848461012d565b825250602061043484848301610187565b60208301525060608201356001600160401b0381111561045357600080fd5b61045f84828501610346565b60408301525060808201356001600160401b0381111561047e57600080fd5b61048a848285016102c0565b60608301525060a061049e848285016101ce565b60808301525060e06104b28482850161062b565b60a0830152506101e06104c78482850161012d565b60c0830152506102008201356001600160401b038111156104e757600080fd5b6104f384828501610233565b60e08301525092915050565b60006080828403121561051157600080fd5b61051b60406106f3565b90506000610529848461012d565b82525060206101c28484830160006060828403121561054757600080fd5b61055160606106f3565b9050600061055f848461012d565b82525060206105708484830161012d565b602083015250604061058484828501610667565b60408301525092915050565b6000608082840312156105a257600080fd5b6105ac60406106f3565b905060006105ba84846101f8565b82525060608201356001600160401b038111156105d657600080fd5b6101c2848285016100ac565b6000602082840312156105f457600080fd5b6105fe60206106f3565b905081356001600160401b0381111561061657600080fd5b610622848285016100ac565b82525092915050565b6000610100828403121561063e57600080fd5b61064860406106f3565b9050600061065684846104ff565b82525060806101c2848483016104ff565b80356100a6816107ac565b60008060006060848603121561068757600080fd5b6000610693868661009b565b93505060208401356001600160401b038111156106af57600080fd5b6106bb868287016103f7565b92505060406106cc8682870161009b565b9150509250925092565b6106df8161076b565b82525050565b602081016100a682846106d6565b6040518181016001600160401b038111828210171561071157600080fd5b604052919050565b60006001600160401b0382111561072f57600080fd5b5060209081020190565b60006001600160401b0382111561074f57600080fd5b506020601f91909101601f19160190565b60006100a68261076e565b90565b6001600160a01b031690565b60ff1690565b82818337506000910152565b61079581610760565b81146107a057600080fd5b50565b6107958161076b565b6107958161077a56fea365627a7a7231582054607966f13ffd81f86302579e7d56c8051f64b4dd178bff90e3da526ac119146c6578706572696d656e74616cf564736f6c634300050c0040",
  "source": "/*\n * Hubii Nahmii\n *\n * Compliant with the Hubii Nahmii specification v0.12.\n *\n * Copyright (C) 2017-2018 Hubii AS\n */\n\npragma solidity >=0.4.25 <0.6.0;\npragma experimental ABIEncoderV2;\n\nimport {PaymentTypesLib} from \"../PaymentTypesLib.sol\";\n\n/**\n * @title MockedDriipSettlementDisputeByPayment\n * @notice Mocked implementation of driip settlement dispute by payment contract\n */\ncontract MockedDriipSettlementDisputeByPayment {\n    uint256 public _challengeByPaymentCount;\n\n    function _reset()\n    public\n    {\n        _challengeByPaymentCount = 0;\n    }\n\n    function challengeByPayment(address, PaymentTypesLib.Payment memory, address)\n    public\n    {\n        _challengeByPaymentCount++;\n    }\n}",
  "sourcePath": "/opt/buildagent/work/855e104608380c36/contracts/test/MockedDriipSettlementDisputeByPayment.sol",
  "compiler": {
    "name": "solc",
    "version": "0.5.12+commit.7709ece9.Emscripten.clang"
  },
  "schemaVersion": "2.0.3",
  "updatedAt": "2019-10-23T00:21:40.844Z"
}