{
  "contractName": "MockedNullSettlementDisputeByTrade",
  "abi": [
    {
      "constant": true,
      "inputs": [],
      "name": "_challengeByTradeCount",
      "outputs": [
        {
          "name": "",
          "type": "uint256"
        }
      ],
      "payable": false,
      "stateMutability": "view",
      "type": "function"
    },
    {
      "constant": true,
      "inputs": [],
      "name": "_challengeByOrderCount",
      "outputs": [
        {
          "name": "",
          "type": "uint256"
        }
      ],
      "payable": false,
      "stateMutability": "view",
      "type": "function"
    },
    {
      "constant": false,
      "inputs": [],
      "name": "_reset",
      "outputs": [],
      "payable": false,
      "stateMutability": "nonpayable",
      "type": "function"
    },
    {
      "constant": false,
      "inputs": [
        {
          "components": [
            {
              "name": "nonce",
              "type": "uint256"
            },
            {
              "name": "wallet",
              "type": "address"
            },
            {
              "components": [
                {
                  "name": "intention",
                  "type": "uint8"
                },
                {
                  "name": "amount",
                  "type": "int256"
                },
                {
                  "components": [
                    {
                      "components": [
                        {
                          "name": "ct",
                          "type": "address"
                        },
                        {
                          "name": "id",
                          "type": "uint256"
                        }
                      ],
                      "name": "intended",
                      "type": "tuple"
                    },
                    {
                      "components": [
                        {
                          "name": "ct",
                          "type": "address"
                        },
                        {
                          "name": "id",
                          "type": "uint256"
                        }
                      ],
                      "name": "conjugate",
                      "type": "tuple"
                    }
                  ],
                  "name": "currencies",
                  "type": "tuple"
                },
                {
                  "name": "rate",
                  "type": "int256"
                },
                {
                  "components": [
                    {
                      "name": "current",
                      "type": "int256"
                    },
                    {
                      "name": "previous",
                      "type": "int256"
                    }
                  ],
                  "name": "residuals",
                  "type": "tuple"
                }
              ],
              "name": "placement",
              "type": "tuple"
            },
            {
              "components": [
                {
                  "components": [
                    {
                      "name": "hash",
                      "type": "bytes32"
                    },
                    {
                      "components": [
                        {
                          "name": "r",
                          "type": "bytes32"
                        },
                        {
                          "name": "s",
                          "type": "bytes32"
                        },
                        {
                          "name": "v",
                          "type": "uint8"
                        }
                      ],
                      "name": "signature",
                      "type": "tuple"
                    }
                  ],
                  "name": "wallet",
                  "type": "tuple"
                },
                {
                  "components": [
                    {
                      "name": "hash",
                      "type": "bytes32"
                    },
                    {
                      "components": [
                        {
                          "name": "r",
                          "type": "bytes32"
                        },
                        {
                          "name": "s",
                          "type": "bytes32"
                        },
                        {
                          "name": "v",
                          "type": "uint8"
                        }
                      ],
                      "name": "signature",
                      "type": "tuple"
                    }
                  ],
                  "name": "operator",
                  "type": "tuple"
                }
              ],
              "name": "seals",
              "type": "tuple"
            },
            {
              "name": "blockNumber",
              "type": "uint256"
            },
            {
              "name": "operatorId",
              "type": "uint256"
            }
          ],
          "name": "",
          "type": "tuple"
        },
        {
          "name": "",
          "type": "address"
        }
      ],
      "name": "challengeByOrder",
      "outputs": [],
      "payable": false,
      "stateMutability": "nonpayable",
      "type": "function"
    },
    {
      "constant": false,
      "inputs": [
        {
          "name": "",
          "type": "address"
        },
        {
          "components": [
            {
              "name": "nonce",
              "type": "uint256"
            },
            {
              "name": "amount",
              "type": "int256"
            },
            {
              "components": [
                {
                  "components": [
                    {
                      "name": "ct",
                      "type": "address"
                    },
                    {
                      "name": "id",
                      "type": "uint256"
                    }
                  ],
                  "name": "intended",
                  "type": "tuple"
                },
                {
                  "components": [
                    {
                      "name": "ct",
                      "type": "address"
                    },
                    {
                      "name": "id",
                      "type": "uint256"
                    }
                  ],
                  "name": "conjugate",
                  "type": "tuple"
                }
              ],
              "name": "currencies",
              "type": "tuple"
            },
            {
              "name": "rate",
              "type": "int256"
            },
            {
              "components": [
                {
                  "name": "nonce",
                  "type": "uint256"
                },
                {
                  "name": "wallet",
                  "type": "address"
                },
                {
                  "name": "rollingVolume",
                  "type": "uint256"
                },
                {
                  "name": "liquidityRole",
                  "type": "uint8"
                },
                {
                  "components": [
                    {
                      "name": "amount",
                      "type": "int256"
                    },
                    {
                      "components": [
                        {
                          "name": "wallet",
                          "type": "bytes32"
                        },
                        {
                          "name": "operator",
                          "type": "bytes32"
                        }
                      ],
                      "name": "hashes",
                      "type": "tuple"
                    },
                    {
                      "components": [
                        {
                          "name": "current",
                          "type": "int256"
                        },
                        {
                          "name": "previous",
                          "type": "int256"
                        }
                      ],
                      "name": "residuals",
                      "type": "tuple"
                    }
                  ],
                  "name": "order",
                  "type": "tuple"
                },
                {
                  "components": [
                    {
                      "components": [
                        {
                          "name": "current",
                          "type": "int256"
                        },
                        {
                          "name": "previous",
                          "type": "int256"
                        }
                      ],
                      "name": "intended",
                      "type": "tuple"
                    },
                    {
                      "components": [
                        {
                          "name": "current",
                          "type": "int256"
                        },
                        {
                          "name": "previous",
                          "type": "int256"
                        }
                      ],
                      "name": "conjugate",
                      "type": "tuple"
                    }
                  ],
                  "name": "balances",
                  "type": "tuple"
                },
                {
                  "components": [
                    {
                      "components": [
                        {
                          "name": "amount",
                          "type": "int256"
                        },
                        {
                          "components": [
                            {
                              "name": "ct",
                              "type": "address"
                            },
                            {
                              "name": "id",
                              "type": "uint256"
                            }
                          ],
                          "name": "currency",
                          "type": "tuple"
                        }
                      ],
                      "name": "single",
                      "type": "tuple"
                    },
                    {
                      "components": [
                        {
                          "name": "originId",
                          "type": "uint256"
                        },
                        {
                          "components": [
                            {
                              "name": "amount",
                              "type": "int256"
                            },
                            {
                              "components": [
                                {
                                  "name": "ct",
                                  "type": "address"
                                },
                                {
                                  "name": "id",
                                  "type": "uint256"
                                }
                              ],
                              "name": "currency",
                              "type": "tuple"
                            }
                          ],
                          "name": "figure",
                          "type": "tuple"
                        }
                      ],
                      "name": "total",
                      "type": "tuple[]"
                    }
                  ],
                  "name": "fees",
                  "type": "tuple"
                }
              ],
              "name": "buyer",
              "type": "tuple"
            },
            {
              "components": [
                {
                  "name": "nonce",
                  "type": "uint256"
                },
                {
                  "name": "wallet",
                  "type": "address"
                },
                {
                  "name": "rollingVolume",
                  "type": "uint256"
                },
                {
                  "name": "liquidityRole",
                  "type": "uint8"
                },
                {
                  "components": [
                    {
                      "name": "amount",
                      "type": "int256"
                    },
                    {
                      "components": [
                        {
                          "name": "wallet",
                          "type": "bytes32"
                        },
                        {
                          "name": "operator",
                          "type": "bytes32"
                        }
                      ],
                      "name": "hashes",
                      "type": "tuple"
                    },
                    {
                      "components": [
                        {
                          "name": "current",
                          "type": "int256"
                        },
                        {
                          "name": "previous",
                          "type": "int256"
                        }
                      ],
                      "name": "residuals",
                      "type": "tuple"
                    }
                  ],
                  "name": "order",
                  "type": "tuple"
                },
                {
                  "components": [
                    {
                      "components": [
                        {
                          "name": "current",
                          "type": "int256"
                        },
                        {
                          "name": "previous",
                          "type": "int256"
                        }
                      ],
                      "name": "intended",
                      "type": "tuple"
                    },
                    {
                      "components": [
                        {
                          "name": "current",
                          "type": "int256"
                        },
                        {
                          "name": "previous",
                          "type": "int256"
                        }
                      ],
                      "name": "conjugate",
                      "type": "tuple"
                    }
                  ],
                  "name": "balances",
                  "type": "tuple"
                },
                {
                  "components": [
                    {
                      "components": [
                        {
                          "name": "amount",
                          "type": "int256"
                        },
                        {
                          "components": [
                            {
                              "name": "ct",
                              "type": "address"
                            },
                            {
                              "name": "id",
                              "type": "uint256"
                            }
                          ],
                          "name": "currency",
                          "type": "tuple"
                        }
                      ],
                      "name": "single",
                      "type": "tuple"
                    },
                    {
                      "components": [
                        {
                          "name": "originId",
                          "type": "uint256"
                        },
                        {
                          "components": [
                            {
                              "name": "amount",
                              "type": "int256"
                            },
                            {
                              "components": [
                                {
                                  "name": "ct",
                                  "type": "address"
                                },
                                {
                                  "name": "id",
                                  "type": "uint256"
                                }
                              ],
                              "name": "currency",
                              "type": "tuple"
                            }
                          ],
                          "name": "figure",
                          "type": "tuple"
                        }
                      ],
                      "name": "total",
                      "type": "tuple[]"
                    }
                  ],
                  "name": "fees",
                  "type": "tuple"
                }
              ],
              "name": "seller",
              "type": "tuple"
            },
            {
              "components": [
                {
                  "components": [
                    {
                      "name": "single",
                      "type": "int256"
                    },
                    {
                      "name": "total",
                      "type": "int256"
                    }
                  ],
                  "name": "intended",
                  "type": "tuple"
                },
                {
                  "components": [
                    {
                      "name": "single",
                      "type": "int256"
                    },
                    {
                      "name": "total",
                      "type": "int256"
                    }
                  ],
                  "name": "conjugate",
                  "type": "tuple"
                }
              ],
              "name": "transfers",
              "type": "tuple"
            },
            {
              "components": [
                {
                  "name": "hash",
                  "type": "bytes32"
                },
                {
                  "components": [
                    {
                      "name": "r",
                      "type": "bytes32"
                    },
                    {
                      "name": "s",
                      "type": "bytes32"
                    },
                    {
                      "name": "v",
                      "type": "uint8"
                    }
                  ],
                  "name": "signature",
                  "type": "tuple"
                }
              ],
              "name": "seal",
              "type": "tuple"
            },
            {
              "name": "blockNumber",
              "type": "uint256"
            },
            {
              "name": "operatorId",
              "type": "uint256"
            }
          ],
          "name": "",
          "type": "tuple"
        },
        {
          "name": "",
          "type": "address"
        }
      ],
      "name": "challengeByTrade",
      "outputs": [],
      "payable": false,
      "stateMutability": "nonpayable",
      "type": "function"
    }
  ],
  "bytecode": "0x608060405234801561001057600080fd5b5061090f806100206000396000f3006080604052600436106100535763ffffffff60e060020a6000350416631592f0ab811461005857806332f405891461006f5780638eed83591461009a57806392272607146100ba578063c9258438146100da575b600080fd5b34801561006457600080fd5b5061006d6100ef565b005b34801561007b57600080fd5b506100846100f9565b6040516100919190610853565b60405180910390f35b3480156100a657600080fd5b5061006d6100b5366004610808565b6100ff565b3480156100c657600080fd5b5061006d6100d53660046107a4565b61010c565b3480156100e657600080fd5b50610084610119565b6000808055600155565b60015481565b5050600080546001019055565b5050600180548101905550565b60005481565b600061012b82356108b0565b9392505050565b6000601f8201831361014357600080fd5b81356101566101518261088d565b610867565b9150818183526020840193506020810190508385608084028201111561017b57600080fd5b60005b838110156101a95781610191888261040c565b8452506020909201916080919091019060010161017e565b5050505092915050565b600061012b82356108ad565b600061012b82356108bc565b6000604082840312156101dd57600080fd5b6101e76040610867565b905060006101f5848461011f565b8252506020610206848483016101b3565b60208301525092915050565b60006040828403121561022457600080fd5b61022e6040610867565b905060006101f584846101b3565b60006060828403121561024e57600080fd5b6102586040610867565b9050600061026684846101b3565b8252506020610206848483016101cb565b60006080828403121561028957600080fd5b6102936040610867565b905060006102a184846101cb565b8252506040610206848483016101cb565b6000608082840312156102c457600080fd5b6102ce6040610867565b905060006102dc8484610212565b825250604061020684848301610212565b6000610120828403121561030057600080fd5b61030a60a0610867565b9050600061031884846101bf565b8252506020610329848483016101b3565b602083015250604061033d84828501610277565b60408301525060c0610351848285016101b3565b60608301525060e061036584828501610212565b60808301525092915050565b60006102a0828403121561038457600080fd5b61038e60c0610867565b9050600061039c84846101b3565b82525060206103ad8484830161011f565b60208301525060406103c1848285016102ed565b6040830152506101606103d68482850161075c565b6060830152506102606103eb848285016101b3565b608083015250610280610400848285016101b3565b60a08301525092915050565b60006080828403121561041e57600080fd5b6104286040610867565b9050600061043684846101b3565b82525060206102068484830161023c565b60006080828403121561045957600080fd5b6104636040610867565b9050600061047184846101b3565b82525060206102068484830160006060828403121561048f57600080fd5b6104996060610867565b905060006104a784846101b3565b82525060206104b8848483016101b3565b60208301525060406104cc84828501610798565b60408301525092915050565b6000608082840312156104ea57600080fd5b6104f46040610867565b90506000610502848461023c565b82525060608201356001604060020a0381111561051e57600080fd5b61020684828501610132565b600060a0828403121561053c57600080fd5b6105466060610867565b9050600061055484846101b3565b825250602061056584848301610212565b60208301525060606104cc84828501610212565b60006101c0828403121561058c57600080fd5b61059660e0610867565b905060006105a484846101b3565b82525060206105b58484830161011f565b60208301525060406105c9848285016101b3565b60408301525060606105dd848285016101bf565b60608301525060806105f18482850161052a565b608083015250610120610606848285016102b2565b60a0830152506101a08201356001604060020a0381111561062657600080fd5b610632848285016104d8565b60c08301525092915050565b6000610260828403121561065157600080fd5b61065c610140610867565b9050600061066a84846101b3565b825250602061067b848483016101b3565b602083015250604061068f84828501610277565b60408301525060c06106a3848285016101b3565b60608301525060e08201356001604060020a038111156106c257600080fd5b6106ce84828501610579565b6080830152506101008201356001604060020a038111156106ee57600080fd5b6106fa84828501610579565b60a08301525061012061070f848285016102b2565b60c0830152506101a061072484828501610447565b60e083015250610220610739848285016101b3565b6101008301525061024061074f848285016101b3565b6101208301525092915050565b6000610100828403121561076f57600080fd5b6107796040610867565b905060006107878484610447565b825250608061020684848301610447565b600061012b82356108cf565b6000806000606084860312156107b957600080fd5b60006107c5868661011f565b93505060208401356001604060020a038111156107e157600080fd5b6107ed8682870161063e565b92505060406107fe8682870161011f565b9150509250925092565b6000806102c0838503121561081c57600080fd5b60006108288585610371565b9250506102a061083a8582860161011f565b9150509250929050565b61084d816108ad565b82525050565b602081016108618284610844565b92915050565b6040518181016001604060020a038111828210171561088557600080fd5b604052919050565b60006001604060020a038211156108a357600080fd5b5060209081020190565b90565b600160a060020a031690565b6000600282106108cb57600080fd5b5090565b60ff16905600a265627a7a723058203662a3c078d11a5be398a9c7254bb202d588c6837d9cc36d60ccfffd691561e36c6578706572696d656e74616cf50037",
  "source": "/*\n * Hubii Nahmii\n *\n * Compliant with the Hubii Nahmii specification v0.12.\n *\n * Copyright (C) 2017-2018 Hubii AS\n */\n\npragma solidity ^0.4.25;\npragma experimental ABIEncoderV2;\n\nimport {TradeTypesLib} from \"../TradeTypesLib.sol\";\n\n/**\n * @title MockedNullSettlementDisputeByTrade\n * @notice Mocked implementation of null settlement dispute by trade contract\n */\ncontract MockedNullSettlementDisputeByTrade {\n    uint256 public _challengeByOrderCount;\n    uint256 public _challengeByTradeCount;\n\n    function _reset()\n    public\n    {\n        _challengeByOrderCount = 0;\n        _challengeByTradeCount = 0;\n    }\n\n    function challengeByOrder(TradeTypesLib.Order, address)\n    public\n    {\n        _challengeByOrderCount++;\n    }\n\n    function challengeByTrade(address, TradeTypesLib.Trade, address)\n    public\n    {\n        _challengeByTradeCount++;\n    }\n}",
  "sourcePath": "/opt/buildagent/work/855e104608380c36/contracts/test/MockedNullSettlementDisputeByTrade.sol",
  "compiler": {
    "name": "solc",
    "version": "0.4.25+commit.59dbf8f1.Emscripten.clang"
  },
  "schemaVersion": "2.0.2",
  "updatedAt": "2019-04-02T06:20:37.124Z"
}