{
  "contractName": "MockedRevenueToken",
  "abi": [
    {
      "constant": true,
      "inputs": [],
      "name": "_balanceBlocksIn",
      "outputs": [
        {
          "internalType": "uint256",
          "name": "",
          "type": "uint256"
        }
      ],
      "payable": false,
      "stateMutability": "view",
      "type": "function"
    },
    {
      "constant": false,
      "inputs": [],
      "name": "_reset",
      "outputs": [],
      "payable": false,
      "stateMutability": "nonpayable",
      "type": "function"
    },
    {
      "constant": true,
      "inputs": [
        {
          "internalType": "address",
          "name": "",
          "type": "address"
        },
        {
          "internalType": "uint256",
          "name": "",
          "type": "uint256"
        },
        {
          "internalType": "uint256",
          "name": "",
          "type": "uint256"
        }
      ],
      "name": "balanceBlocksIn",
      "outputs": [
        {
          "internalType": "uint256",
          "name": "",
          "type": "uint256"
        }
      ],
      "payable": false,
      "stateMutability": "view",
      "type": "function"
    },
    {
      "constant": false,
      "inputs": [
        {
          "internalType": "uint256",
          "name": "_bbIn",
          "type": "uint256"
        }
      ],
      "name": "_setBalanceBlocksIn",
      "outputs": [],
      "payable": false,
      "stateMutability": "nonpayable",
      "type": "function"
    }
  ],
  "bytecode": "0x608060405234801561001057600080fd5b506101dd806100206000396000f3fe608060405234801561001057600080fd5b506004361061004c5760003560e01c80631592f0ab1461005157806355f729c81461005b57806394c9446e14610079578063a52079ea1461008c575b600080fd5b61005961009f565b005b6100636100a5565b6040516100709190610158565b60405180910390f35b610059610087366004610123565b6100ab565b61006361009a3660046100d6565b6100b0565b60008055565b60005481565b600055565b6000549392505050565b80356100c58161017a565b92915050565b80356100c581610191565b6000806000606084860312156100eb57600080fd5b60006100f786866100ba565b9350506020610108868287016100cb565b9250506040610119868287016100cb565b9150509250925092565b60006020828403121561013557600080fd5b600061014184846100cb565b949350505050565b61015281610177565b82525050565b602081016100c58284610149565b60006001600160a01b0382166100c5565b90565b61018381610166565b811461018e57600080fd5b50565b6101838161017756fea365627a7a72315820522e36c91d56cabd9afcb89cb23266fbc6d6f241c26a7a497345cd324be5712a6c6578706572696d656e74616cf564736f6c634300050c0040",
  "source": "/*\n * Hubii Nahmii\n *\n * Compliant with the Hubii Nahmii specification v0.12.\n *\n * Copyright (C) 2017-2018 Hubii AS\n */\n\npragma solidity >=0.4.25 <0.6.0;\npragma experimental ABIEncoderV2;\n\n/**\n * @title MockedRevenueToken\n * @notice Mocked implementation of RevenueToken\n */\ncontract MockedRevenueToken {\n    //\n    // Variables\n    // -----------------------------------------------------------------------------------------------------------------\n    uint256 public _balanceBlocksIn;\n\n    //\n    // Functions\n    // -----------------------------------------------------------------------------------------------------------------\n    function _reset()\n    public\n    {\n        _balanceBlocksIn = 0;\n    }\n\n    function balanceBlocksIn(address, uint256, uint256)\n    public\n    view\n    returns (uint256)\n    {\n        return _balanceBlocksIn;\n    }\n\n    function _setBalanceBlocksIn(uint256 _bbIn)\n    public\n    {\n        _balanceBlocksIn = _bbIn;\n    }\n}\n",
  "sourcePath": "/opt/buildagent/work/855e104608380c36/contracts/test/MockedRevenueToken.sol",
  "compiler": {
    "name": "solc",
    "version": "0.5.12+commit.7709ece9.Emscripten.clang"
  },
  "schemaVersion": "2.0.3",
  "updatedAt": "2019-10-22T21:00:29.588Z"
}