{
  "contractName": "MockedCommunityVote",
  "abi": [
    {
      "inputs": [],
      "payable": false,
      "stateMutability": "nonpayable",
      "type": "constructor"
    },
    {
      "constant": true,
      "inputs": [],
      "name": "dataAvailable",
      "outputs": [
        {
          "internalType": "bool",
          "name": "",
          "type": "bool"
        }
      ],
      "payable": false,
      "stateMutability": "view",
      "type": "function"
    },
    {
      "constant": true,
      "inputs": [
        {
          "internalType": "uint256",
          "name": "",
          "type": "uint256"
        }
      ],
      "name": "doubleSpenderWalletStats",
      "outputs": [
        {
          "internalType": "bool",
          "name": "",
          "type": "bool"
        }
      ],
      "payable": false,
      "stateMutability": "view",
      "type": "function"
    },
    {
      "constant": true,
      "inputs": [],
      "name": "doubleSpenderWalletStatsIndex",
      "outputs": [
        {
          "internalType": "uint256",
          "name": "",
          "type": "uint256"
        }
      ],
      "payable": false,
      "stateMutability": "view",
      "type": "function"
    },
    {
      "constant": true,
      "inputs": [],
      "name": "maxDriipNonce",
      "outputs": [
        {
          "internalType": "uint256",
          "name": "",
          "type": "uint256"
        }
      ],
      "payable": false,
      "stateMutability": "view",
      "type": "function"
    },
    {
      "constant": true,
      "inputs": [],
      "name": "maxNullNonce",
      "outputs": [
        {
          "internalType": "uint256",
          "name": "",
          "type": "uint256"
        }
      ],
      "payable": false,
      "stateMutability": "view",
      "type": "function"
    },
    {
      "constant": false,
      "inputs": [],
      "name": "_reset",
      "outputs": [],
      "payable": false,
      "stateMutability": "nonpayable",
      "type": "function"
    },
    {
      "constant": false,
      "inputs": [
        {
          "internalType": "bool",
          "name": "doubleSpender",
          "type": "bool"
        }
      ],
      "name": "addDoubleSpenderWallet",
      "outputs": [
        {
          "internalType": "address[3]",
          "name": "",
          "type": "address[3]"
        }
      ],
      "payable": false,
      "stateMutability": "nonpayable",
      "type": "function"
    },
    {
      "constant": false,
      "inputs": [
        {
          "internalType": "address",
          "name": "",
          "type": "address"
        }
      ],
      "name": "isDoubleSpenderWallet",
      "outputs": [
        {
          "internalType": "bool",
          "name": "",
          "type": "bool"
        }
      ],
      "payable": false,
      "stateMutability": "nonpayable",
      "type": "function"
    },
    {
      "constant": false,
      "inputs": [
        {
          "internalType": "uint256",
          "name": "_maxDriipNonce",
          "type": "uint256"
        }
      ],
      "name": "setMaxDriipNonce",
      "outputs": [
        {
          "internalType": "uint256",
          "name": "",
          "type": "uint256"
        }
      ],
      "payable": false,
      "stateMutability": "nonpayable",
      "type": "function"
    },
    {
      "constant": true,
      "inputs": [],
      "name": "getMaxDriipNonce",
      "outputs": [
        {
          "internalType": "uint256",
          "name": "",
          "type": "uint256"
        }
      ],
      "payable": false,
      "stateMutability": "view",
      "type": "function"
    },
    {
      "constant": false,
      "inputs": [
        {
          "internalType": "uint256",
          "name": "_maxNullNonce",
          "type": "uint256"
        }
      ],
      "name": "setMaxNullNonce",
      "outputs": [
        {
          "internalType": "uint256",
          "name": "",
          "type": "uint256"
        }
      ],
      "payable": false,
      "stateMutability": "nonpayable",
      "type": "function"
    },
    {
      "constant": true,
      "inputs": [],
      "name": "getMaxNullNonce",
      "outputs": [
        {
          "internalType": "uint256",
          "name": "",
          "type": "uint256"
        }
      ],
      "payable": false,
      "stateMutability": "view",
      "type": "function"
    },
    {
      "constant": false,
      "inputs": [
        {
          "internalType": "bool",
          "name": "_dataAvailable",
          "type": "bool"
        }
      ],
      "name": "setDataAvailable",
      "outputs": [
        {
          "internalType": "bool",
          "name": "",
          "type": "bool"
        }
      ],
      "payable": false,
      "stateMutability": "nonpayable",
      "type": "function"
    },
    {
      "constant": true,
      "inputs": [],
      "name": "isDataAvailable",
      "outputs": [
        {
          "internalType": "bool",
          "name": "",
          "type": "bool"
        }
      ],
      "payable": false,
      "stateMutability": "view",
      "type": "function"
    }
  ],
  "bytecode": "0x608060405234801561001057600080fd5b506100226001600160e01b0361002716565b6100ac565b6000600281905560038190556004805460ff1916600117905561004a8180610052565b506000600155565b81548183558181111561008657601f016020900481601f01602090048360005260206000209182019101610086919061008b565b505050565b6100a991905b808211156100a55760008155600101610091565b5090565b90565b61041e806100bb6000396000f3fe608060405234801561001057600080fd5b50600436106100ba5760003560e01c806309ea2709146100bf5780631592f0ab146100f25780631f344070146100fc57806348fcb72c146101165780636266236714610133578063897d36aa1461013b5780638d2cba1314610143578063901fe0471461019a578063916bd294146101a25780639243c9db146101aa578063994e2076146101d0578063b5b9c7bf146101d8578063f0684680146101e0578063f3aa2039146101fd575b600080fd5b6100de600480360360208110156100d557600080fd5b5035151561021a565b604080519115158252519081900360200190f35b6100fa61022b565b005b610104610256565b60408051918252519081900360200190f35b6101046004803603602081101561012c57600080fd5b503561025d565b610104610265565b61010461026b565b6101626004803603602081101561015957600080fd5b50351515610271565b6040518082606080838360005b8381101561018757818101518382015260200161016f565b5050505090500191505060405180910390f35b6100de6102cd565b6101046102d6565b6100de600480360360208110156101c057600080fd5b50356001600160a01b03166102dc565b6100de61032c565b610104610335565b610104600480360360208110156101f657600080fd5b503561033b565b6100de6004803603602081101561021357600080fd5b5035610343565b6004805460ff191682151517905590565b6000600281905560038190556004805460ff1916600117905561024e8180610374565b506000600155565b6002545b90565b600281905590565b60035481565b60025481565b6102796103ad565b60008054600181018255908052602081047f290decd9548b62a8d60345a988386fc84ba6bc95484008f6362f93160ef3e563018054931515601f9092166101000a91820260ff909202199093161790915590565b60045460ff1681565b60015481565b600080541561032357600180548082019091556000805490919081106102fe57fe5b90600052602060002090602091828204019190069054906101000a900460ff16610326565b60005b92915050565b60045460ff1690565b60035490565b600381905590565b6000818154811061035057fe5b9060005260206000209060209182820401919006915054906101000a900460ff1681565b8154818355818111156103a857601f016020900481601f016020900483600052602060002091820191016103a891906103cb565b505050565b60405180606001604052806003906020820280388339509192915050565b61025a91905b808211156103e557600081556001016103d1565b509056fea265627a7a723158203ed12a970b15f1b67938ce53ef4262948fd6e1ee6a8a9e4b50da65ca49068ad764736f6c634300050c0032",
  "source": "/*\n * Hubii Nahmii\n *\n * Compliant with the Hubii Nahmii specification v0.12.\n *\n * Copyright (C) 2017-2018 Hubii AS\n */\npragma solidity >=0.4.25 <0.6.0;\n\n/**\n * @title MockedCommunityVote\n * @notice Mocked implementation of community vote contract\n */\ncontract MockedCommunityVote {\n    //\n    // Variables\n    // -----------------------------------------------------------------------------------------------------------------\n    bool[] public doubleSpenderWalletStats;\n    uint256 public doubleSpenderWalletStatsIndex;\n    uint256 public maxDriipNonce;\n    uint256 public maxNullNonce;\n    bool public dataAvailable;\n\n    //\n    // Constructor\n    // -----------------------------------------------------------------------------------------------------------------\n    constructor() public {\n        _reset();\n    }\n\n    //\n    // Functions\n    // -----------------------------------------------------------------------------------------------------------------\n    function _reset()\n    public\n    {\n        maxDriipNonce = 0;\n        maxNullNonce = 0;\n        dataAvailable = true;\n        doubleSpenderWalletStats.length = 0;\n        doubleSpenderWalletStatsIndex = 0;\n    }\n\n    function addDoubleSpenderWallet(bool doubleSpender)\n    public\n    returns (address[3] memory)\n    {\n        doubleSpenderWalletStats.push(doubleSpender);\n    }\n\n    function isDoubleSpenderWallet(address)\n    public\n    returns (bool)\n    {\n        return doubleSpenderWalletStats.length == 0 ? false : doubleSpenderWalletStats[doubleSpenderWalletStatsIndex++];\n    }\n\n    function setMaxDriipNonce(uint256 _maxDriipNonce)\n    public\n    returns (uint256)\n    {\n        return maxDriipNonce = _maxDriipNonce;\n    }\n\n    function getMaxDriipNonce()\n    public\n    view\n    returns (uint256)\n    {\n        return maxDriipNonce;\n    }\n\n    function setMaxNullNonce(uint256 _maxNullNonce)\n    public\n    returns (uint256)\n    {\n        return maxNullNonce = _maxNullNonce;\n    }\n\n    function getMaxNullNonce()\n    public\n    view\n    returns (uint256)\n    {\n        return maxNullNonce;\n    }\n\n    function setDataAvailable(bool _dataAvailable)\n    public\n    returns (bool)\n    {\n        return dataAvailable = _dataAvailable;\n    }\n\n    function isDataAvailable()\n    public\n    view\n    returns (bool)\n    {\n        return dataAvailable;\n    }\n}",
  "sourcePath": "/opt/buildagent/work/855e104608380c36/contracts/test/MockedCommunityVote.sol",
  "compiler": {
    "name": "solc",
    "version": "0.5.12+commit.7709ece9.Emscripten.clang"
  },
  "schemaVersion": "2.0.3",
  "updatedAt": "2019-10-22T21:00:29.566Z"
}