{
  "contractName": "MockedSecurityBond",
  "abi": [
    {
      "inputs": [],
      "payable": false,
      "stateMutability": "nonpayable",
      "type": "constructor"
    },
    {
      "anonymous": false,
      "inputs": [
        {
          "indexed": false,
          "internalType": "address",
          "name": "wallet",
          "type": "address"
        },
        {
          "indexed": false,
          "internalType": "address",
          "name": "currencyCt",
          "type": "address"
        },
        {
          "indexed": false,
          "internalType": "uint256",
          "name": "currencyId",
          "type": "uint256"
        }
      ],
      "name": "DepriveAbsoluteEvent",
      "type": "event"
    },
    {
      "anonymous": false,
      "inputs": [
        {
          "indexed": false,
          "internalType": "address",
          "name": "wallet",
          "type": "address"
        }
      ],
      "name": "DepriveFractionalEvent",
      "type": "event"
    },
    {
      "anonymous": false,
      "inputs": [
        {
          "indexed": false,
          "internalType": "address",
          "name": "wallet",
          "type": "address"
        },
        {
          "indexed": false,
          "internalType": "int256",
          "name": "amount",
          "type": "int256"
        },
        {
          "indexed": false,
          "internalType": "address",
          "name": "currencyCt",
          "type": "address"
        },
        {
          "indexed": false,
          "internalType": "uint256",
          "name": "currencyId",
          "type": "uint256"
        },
        {
          "indexed": false,
          "internalType": "uint256",
          "name": "unlockTimeoutInSeconds",
          "type": "uint256"
        }
      ],
      "name": "RewardAbsoluteEvent",
      "type": "event"
    },
    {
      "anonymous": false,
      "inputs": [
        {
          "indexed": false,
          "internalType": "address",
          "name": "wallet",
          "type": "address"
        },
        {
          "indexed": false,
          "internalType": "uint256",
          "name": "fraction",
          "type": "uint256"
        },
        {
          "indexed": false,
          "internalType": "uint256",
          "name": "unlockTimeoutInSeconds",
          "type": "uint256"
        }
      ],
      "name": "RewardFractionalEvent",
      "type": "event"
    },
    {
      "constant": true,
      "inputs": [
        {
          "internalType": "uint256",
          "name": "",
          "type": "uint256"
        }
      ],
      "name": "absoluteDeprivals",
      "outputs": [
        {
          "internalType": "address",
          "name": "wallet",
          "type": "address"
        },
        {
          "components": [
            {
              "internalType": "address",
              "name": "ct",
              "type": "address"
            },
            {
              "internalType": "uint256",
              "name": "id",
              "type": "uint256"
            }
          ],
          "internalType": "struct MonetaryTypesLib.Currency",
          "name": "currency",
          "type": "tuple"
        }
      ],
      "payable": false,
      "stateMutability": "view",
      "type": "function"
    },
    {
      "constant": true,
      "inputs": [
        {
          "internalType": "uint256",
          "name": "",
          "type": "uint256"
        }
      ],
      "name": "absoluteRewards",
      "outputs": [
        {
          "internalType": "address",
          "name": "wallet",
          "type": "address"
        },
        {
          "internalType": "int256",
          "name": "amount",
          "type": "int256"
        },
        {
          "components": [
            {
              "internalType": "address",
              "name": "ct",
              "type": "address"
            },
            {
              "internalType": "uint256",
              "name": "id",
              "type": "uint256"
            }
          ],
          "internalType": "struct MonetaryTypesLib.Currency",
          "name": "currency",
          "type": "tuple"
        },
        {
          "internalType": "uint256",
          "name": "unlockTime",
          "type": "uint256"
        }
      ],
      "payable": false,
      "stateMutability": "view",
      "type": "function"
    },
    {
      "constant": true,
      "inputs": [
        {
          "internalType": "uint256",
          "name": "",
          "type": "uint256"
        }
      ],
      "name": "fractionalDeprivals",
      "outputs": [
        {
          "internalType": "address",
          "name": "",
          "type": "address"
        }
      ],
      "payable": false,
      "stateMutability": "view",
      "type": "function"
    },
    {
      "constant": true,
      "inputs": [
        {
          "internalType": "uint256",
          "name": "",
          "type": "uint256"
        }
      ],
      "name": "fractionalRewards",
      "outputs": [
        {
          "internalType": "address",
          "name": "wallet",
          "type": "address"
        },
        {
          "internalType": "uint256",
          "name": "fraction",
          "type": "uint256"
        },
        {
          "internalType": "uint256",
          "name": "unlockTime",
          "type": "uint256"
        }
      ],
      "payable": false,
      "stateMutability": "view",
      "type": "function"
    },
    {
      "constant": false,
      "inputs": [],
      "name": "_reset",
      "outputs": [],
      "payable": false,
      "stateMutability": "nonpayable",
      "type": "function"
    },
    {
      "constant": true,
      "inputs": [
        {
          "internalType": "address",
          "name": "",
          "type": "address"
        },
        {
          "internalType": "uint256",
          "name": "",
          "type": "uint256"
        }
      ],
      "name": "depositedBalance",
      "outputs": [
        {
          "internalType": "int256",
          "name": "",
          "type": "int256"
        }
      ],
      "payable": false,
      "stateMutability": "view",
      "type": "function"
    },
    {
      "constant": false,
      "inputs": [
        {
          "internalType": "int256",
          "name": "balance",
          "type": "int256"
        }
      ],
      "name": "_setDepositedBalance",
      "outputs": [
        {
          "internalType": "int256",
          "name": "",
          "type": "int256"
        }
      ],
      "payable": false,
      "stateMutability": "nonpayable",
      "type": "function"
    },
    {
      "constant": true,
      "inputs": [
        {
          "internalType": "address",
          "name": "",
          "type": "address"
        },
        {
          "internalType": "uint256",
          "name": "",
          "type": "uint256"
        },
        {
          "internalType": "uint256",
          "name": "",
          "type": "uint256"
        }
      ],
      "name": "depositedFractionalBalance",
      "outputs": [
        {
          "internalType": "int256",
          "name": "",
          "type": "int256"
        }
      ],
      "payable": false,
      "stateMutability": "view",
      "type": "function"
    },
    {
      "constant": false,
      "inputs": [
        {
          "internalType": "int256",
          "name": "balance",
          "type": "int256"
        }
      ],
      "name": "_setDepositedFractionalBalance",
      "outputs": [
        {
          "internalType": "int256",
          "name": "",
          "type": "int256"
        }
      ],
      "payable": false,
      "stateMutability": "nonpayable",
      "type": "function"
    },
    {
      "constant": true,
      "inputs": [],
      "name": "_fractionalRewardsCount",
      "outputs": [
        {
          "internalType": "uint256",
          "name": "",
          "type": "uint256"
        }
      ],
      "payable": false,
      "stateMutability": "view",
      "type": "function"
    },
    {
      "constant": true,
      "inputs": [],
      "name": "_absoluteRewardsCount",
      "outputs": [
        {
          "internalType": "uint256",
          "name": "",
          "type": "uint256"
        }
      ],
      "payable": false,
      "stateMutability": "view",
      "type": "function"
    },
    {
      "constant": true,
      "inputs": [],
      "name": "_fractionalDeprivalsCount",
      "outputs": [
        {
          "internalType": "uint256",
          "name": "",
          "type": "uint256"
        }
      ],
      "payable": false,
      "stateMutability": "view",
      "type": "function"
    },
    {
      "constant": true,
      "inputs": [],
      "name": "_absoluteDeprivalsCount",
      "outputs": [
        {
          "internalType": "uint256",
          "name": "",
          "type": "uint256"
        }
      ],
      "payable": false,
      "stateMutability": "view",
      "type": "function"
    },
    {
      "constant": false,
      "inputs": [
        {
          "internalType": "address",
          "name": "wallet",
          "type": "address"
        },
        {
          "internalType": "uint256",
          "name": "fraction",
          "type": "uint256"
        },
        {
          "internalType": "uint256",
          "name": "unlockTimeoutInSeconds",
          "type": "uint256"
        }
      ],
      "name": "rewardFractional",
      "outputs": [],
      "payable": false,
      "stateMutability": "nonpayable",
      "type": "function"
    },
    {
      "constant": false,
      "inputs": [
        {
          "internalType": "address",
          "name": "wallet",
          "type": "address"
        },
        {
          "internalType": "int256",
          "name": "amount",
          "type": "int256"
        },
        {
          "internalType": "address",
          "name": "currencyCt",
          "type": "address"
        },
        {
          "internalType": "uint256",
          "name": "currencyId",
          "type": "uint256"
        },
        {
          "internalType": "uint256",
          "name": "unlockTimeoutInSeconds",
          "type": "uint256"
        }
      ],
      "name": "rewardAbsolute",
      "outputs": [],
      "payable": false,
      "stateMutability": "nonpayable",
      "type": "function"
    },
    {
      "constant": false,
      "inputs": [
        {
          "internalType": "address",
          "name": "wallet",
          "type": "address"
        }
      ],
      "name": "depriveFractional",
      "outputs": [],
      "payable": false,
      "stateMutability": "nonpayable",
      "type": "function"
    },
    {
      "constant": false,
      "inputs": [
        {
          "internalType": "address",
          "name": "wallet",
          "type": "address"
        },
        {
          "internalType": "address",
          "name": "currencyCt",
          "type": "address"
        },
        {
          "internalType": "uint256",
          "name": "currencyId",
          "type": "uint256"
        }
      ],
      "name": "depriveAbsolute",
      "outputs": [],
      "payable": false,
      "stateMutability": "nonpayable",
      "type": "function"
    }
  ],
  "bytecode": "0x608060405234801561001057600080fd5b50610cc7806100206000396000f3fe608060405234801561001057600080fd5b50600436106100db5760003560e01c80631592f0ab146100e05780631f5dc1d5146100ea578063204093b9146101085780634e791e0d1461012b578063574c508c1461013e5780635b217ff2146101515780636491b03c1461017257806372e2565e1461017a578063760b8292146101825780637bf791b414610195578063832f7832146101a85780638e9a9fb4146101bb578063a72148eb146101c3578063abdb2947146101d6578063b4373c12146101f8578063bb4b96e514610218578063d92e56501461022b575b600080fd5b6100e861023e565b005b6100f2610280565b6040516100ff9190610c37565b60405180910390f35b61011b610116366004610abc565b610287565b6040516100ff9493929190610bd0565b6100e861013936600461098e565b6102e4565b6100e861014c366004610968565b6103ff565b61016461015f366004610abc565b610485565b6040516100ff929190610c0e565b6100f26104d4565b6100f26104da565b6100e8610190366004610a8a565b6104e0565b6100f26101a3366004610a50565b6105d0565b6100e86101b63660046109db565b6105da565b6100f2610754565b6100f26101d1366004610a8a565b61075a565b6101e96101e4366004610abc565b610765565b6040516100ff93929190610c29565b61020b610206366004610abc565b61079f565b6040516100ff9190610b25565b6100f2610226366004610abc565b6107c6565b6100f2610239366004610abc565b6107ce565b600080805560018190556102536002826107d6565b506000610261600382610807565b50600061026f600482610833565b50600061027d600582610857565b50565b6005545b90565b6003818154811061029457fe5b6000918252602091829020600590910201805460018201546040805180820190915260028401546001600160a01b0390811682526003850154958201959095526004909301549390911693509184565b6040805180820182526001600160a01b038086168252825180840184528582168152602081810186905280840191825260058054600181018255600091909152935160039094027f036b6384b5eca791c62761152d0c79bb0604c104a5fb6f4eb0703f3154bb3db0810180549585166001600160a01b0319968716179055915180517f036b6384b5eca791c62761152d0c79bb0604c104a5fb6f4eb0703f3154bb3db184018054919095169516949094179092559101517f036b6384b5eca791c62761152d0c79bb0604c104a5fb6f4eb0703f3154bb3db290910155517fbe279051278beb74b39439a6607e4c7b251434c6c56d816204362071d0316e31906103f290339085908590610b41565b60405180910390a1505050565b600480546001810182556000919091527f8a35acfbc15ff81a39ae7d344fd709f28e8600b4aa8c65c6b64bfe7fe36bd19b0180546001600160a01b0319166001600160a01b0383161790556040517f5de82f16f836921738d3d8905f3dd390385d976108f5789e979d512b6587eba39061047a903390610b33565b60405180910390a150565b6005818154811061049257fe5b600091825260209182902060039091020180546040805180820190915260018301546001600160a01b0390811682526002909301549381019390935216915082565b60035490565b60025490565b604080516060810182526001600160a01b038581168252602082018581528284018581526002805460018101825560009190915293517f405787fa12a823e0f2b7631cc41b3ba8828b3321ca811111fa75cd3aa3bb5ace600390950294850180546001600160a01b0319169190941617909255517f405787fa12a823e0f2b7631cc41b3ba8828b3321ca811111fa75cd3aa3bb5acf830155517f405787fa12a823e0f2b7631cc41b3ba8828b3321ca811111fa75cd3aa3bb5ad090910155517fa95044891f433f92149fc3220f83b1b5738ec70653e8941daab2d28eb5caa86f906103f290339085908590610bb5565b6000545b92915050565b604080516080810182526001600160a01b03808816825260208083018881528451808601865288841681528083018890528486019081526060850187815260038054600181018255600091909152955160059096027fc2575a0e9e593c00f959f8c92f12db2869c3395a3b0502d05e2516446f71f85b810180549787166001600160a01b031998891617905592517fc2575a0e9e593c00f959f8c92f12db2869c3395a3b0502d05e2516446f71f85c840155905180517fc2575a0e9e593c00f959f8c92f12db2869c3395a3b0502d05e2516446f71f85d84018054919096169616959095179093559201517fc2575a0e9e593c00f959f8c92f12db2869c3395a3b0502d05e2516446f71f85e830155517fc2575a0e9e593c00f959f8c92f12db2869c3395a3b0502d05e2516446f71f85f90910155517ff03f792cc259b34ff6311e1e7cb37a37484181d96e25e23ab8700d7ddabdf4f4906107459033908790879087908790610b69565b60405180910390a15050505050565b60045490565b6001545b9392505050565b6002818154811061077257fe5b60009182526020909120600390910201805460018201546002909201546001600160a01b03909116925083565b600481815481106107ac57fe5b6000918252602090912001546001600160a01b0316905081565b600155600090565b600090815590565b815481835581811115610802576003028160030283600052602060002091820191016108029190610883565b505050565b8154818355818111156108025760050281600502836000526020600020918201910161080291906108b9565b81548183558181111561080257600083815260209020610802918101908301610900565b81548183558181111561080257600302816003028360005260206000209182019101610802919061091a565b61028491905b808211156108b55780546001600160a01b03191681556000600182018190556002820155600301610889565b5090565b61028491905b808211156108b55780546001600160a01b031990811682556000600183018190556002830180549092169091556003820181905560048201556005016108bf565b61028491905b808211156108b55760008155600101610906565b61028491905b808211156108b55780546001600160a01b03199081168255600182018054909116905560006002820155600301610920565b80356105d481610c67565b80356105d481610c7b565b60006020828403121561097a57600080fd5b60006109868484610952565b949350505050565b6000806000606084860312156109a357600080fd5b60006109af8686610952565b93505060206109c086828701610952565b92505060406109d18682870161095d565b9150509250925092565b600080600080600060a086880312156109f357600080fd5b60006109ff8888610952565b9550506020610a108882890161095d565b9450506040610a2188828901610952565b9350506060610a328882890161095d565b9250506080610a438882890161095d565b9150509295509295909350565b60008060408385031215610a6357600080fd5b6000610a6f8585610952565b9250506020610a808582860161095d565b9150509250929050565b600080600060608486031215610a9f57600080fd5b6000610aab8686610952565b93505060206109c08682870161095d565b600060208284031215610ace57600080fd5b6000610986848461095d565b610ae381610c56565b82525050565b610ae381610c45565b610ae381610284565b80516040830190610b0c8482610ae9565b506020820151610b1f6020850182610af2565b50505050565b602081016105d48284610ae9565b602081016105d48284610ada565b60608101610b4f8286610ada565b610b5c6020830185610ae9565b6109866040830184610af2565b60a08101610b778288610ada565b610b846020830187610af2565b610b916040830186610ae9565b610b9e6060830185610af2565b610bab6080830184610af2565b9695505050505050565b60608101610bc38286610ada565b610b5c6020830185610af2565b60a08101610bde8287610ae9565b610beb6020830186610af2565b610bf86040830185610afb565b610c056080830184610af2565b95945050505050565b60608101610c1c8285610ae9565b61075e6020830184610afb565b60608101610bc38286610ae9565b602081016105d48284610af2565b60006001600160a01b0382166105d4565b60006105d48260006105d482610c45565b610c7081610c45565b811461027d57600080fd5b610c708161028456fea365627a7a72315820e2f26ca94b01c68c9eda2b228c91fda53f87ddfa4e8326aa68b138d9ae6988396c6578706572696d656e74616cf564736f6c634300050c0040",
  "source": "/*\n * Hubii Nahmii\n *\n * Compliant with the Hubii Nahmii specification v0.12.\n *\n * Copyright (C) 2017-2018 Hubii AS\n */\n\npragma solidity >=0.4.25 <0.6.0;\n\npragma experimental ABIEncoderV2;\n\nimport {MonetaryTypesLib} from \"../MonetaryTypesLib.sol\";\n\n/**\n * @title MockedSecurityBond\n * @notice Mocked implementation of security bond contract\n */\ncontract MockedSecurityBond {\n    //\n    // Structures\n    // -----------------------------------------------------------------------------------------------------------------\n    struct FractionalReward {\n        address wallet;\n        uint256 fraction;\n        uint256 unlockTime;\n    }\n\n    struct AbsoluteReward {\n        address wallet;\n        int256 amount;\n        MonetaryTypesLib.Currency currency;\n        uint256 unlockTime;\n    }\n\n    struct AbsoluteDeprival {\n        address wallet;\n        MonetaryTypesLib.Currency currency;\n    }\n\n    //\n    // Variables\n    // -----------------------------------------------------------------------------------------------------------------\n    int256 _depositedBalance;\n    int256 _depositedFractionalBalance;\n\n    FractionalReward[] public fractionalRewards;\n    AbsoluteReward[] public absoluteRewards;\n    address[] public fractionalDeprivals;\n    AbsoluteDeprival[] public absoluteDeprivals;\n\n    //\n    // Events\n    // -----------------------------------------------------------------------------------------------------------------\n    event RewardFractionalEvent(address wallet, uint256 fraction, uint256 unlockTimeoutInSeconds);\n    event RewardAbsoluteEvent(address wallet, int256 amount, address currencyCt, uint256 currencyId,\n        uint256 unlockTimeoutInSeconds);\n    event DepriveFractionalEvent(address wallet);\n    event DepriveAbsoluteEvent(address wallet, address currencyCt, uint256 currencyId);\n\n    //\n    // Constructor\n    // -----------------------------------------------------------------------------------------------------------------\n    constructor() public {\n    }\n\n    //\n    // Functions\n    // -----------------------------------------------------------------------------------------------------------------\n    function _reset()\n    public\n    {\n        _depositedBalance = 0;\n        _depositedFractionalBalance = 0;\n        fractionalRewards.length = 0;\n        absoluteRewards.length = 0;\n        fractionalDeprivals.length = 0;\n        absoluteDeprivals.length = 0;\n    }\n\n    function depositedBalance(address, uint256)\n    public\n    view\n    returns (int256)\n    {\n        return _depositedBalance;\n    }\n\n    function _setDepositedBalance(int256 balance)\n    public\n    returns (int256)\n    {\n        _depositedBalance = balance;\n    }\n\n    function depositedFractionalBalance(address, uint256, uint256)\n    public\n    view\n    returns (int256)\n    {\n        return _depositedFractionalBalance;\n    }\n\n    function _setDepositedFractionalBalance(int256 balance)\n    public\n    returns (int256)\n    {\n        _depositedFractionalBalance = balance;\n    }\n\n    function _fractionalRewardsCount()\n    public\n    view\n    returns (uint256)\n    {\n        return fractionalRewards.length;\n    }\n\n    function _absoluteRewardsCount()\n    public\n    view\n    returns (uint256)\n    {\n        return absoluteRewards.length;\n    }\n\n    function _fractionalDeprivalsCount()\n    public\n    view\n    returns (uint256)\n    {\n        return fractionalDeprivals.length;\n    }\n\n    function _absoluteDeprivalsCount()\n    public\n    view\n    returns (uint256)\n    {\n        return absoluteDeprivals.length;\n    }\n\n    function rewardFractional(address wallet, uint256 fraction, uint256 unlockTimeoutInSeconds)\n    public\n    {\n        fractionalRewards.push(\n            FractionalReward(wallet, fraction, unlockTimeoutInSeconds)\n        );\n        emit RewardFractionalEvent(msg.sender, fraction, unlockTimeoutInSeconds);\n    }\n\n    function rewardAbsolute(address wallet, int256 amount, address currencyCt, uint256 currencyId,\n        uint256 unlockTimeoutInSeconds)\n    public\n    {\n        absoluteRewards.push(\n            AbsoluteReward(wallet, amount, MonetaryTypesLib.Currency(currencyCt, currencyId), unlockTimeoutInSeconds)\n        );\n        emit RewardAbsoluteEvent(msg.sender, amount, currencyCt, currencyId, unlockTimeoutInSeconds);\n    }\n\n    function depriveFractional(address wallet)\n    public\n    {\n        fractionalDeprivals.push(wallet);\n        emit DepriveFractionalEvent(msg.sender);\n    }\n\n    function depriveAbsolute(address wallet, address currencyCt, uint256 currencyId)\n    public\n    {\n        absoluteDeprivals.push(AbsoluteDeprival(wallet, MonetaryTypesLib.Currency(currencyCt, currencyId)));\n        emit DepriveAbsoluteEvent(msg.sender, currencyCt, currencyId);\n    }\n}",
  "sourcePath": "/opt/buildagent/work/855e104608380c36/contracts/test/MockedSecurityBond.sol",
  "compiler": {
    "name": "solc",
    "version": "0.5.12+commit.7709ece9.Emscripten.clang"
  },
  "schemaVersion": "2.0.3",
  "updatedAt": "2019-10-22T21:00:29.589Z"
}