{
  "contractName": "MockedNullSettlementState",
  "abi": [
    {
      "constant": true,
      "inputs": [],
      "name": "_maxNonceByWalletAndCurrency",
      "outputs": [
        {
          "internalType": "uint256",
          "name": "",
          "type": "uint256"
        }
      ],
      "payable": false,
      "stateMutability": "view",
      "type": "function"
    },
    {
      "constant": true,
      "inputs": [],
      "name": "maxNullNonce",
      "outputs": [
        {
          "internalType": "uint256",
          "name": "",
          "type": "uint256"
        }
      ],
      "payable": false,
      "stateMutability": "view",
      "type": "function"
    },
    {
      "constant": false,
      "inputs": [],
      "name": "_reset",
      "outputs": [],
      "payable": false,
      "stateMutability": "nonpayable",
      "type": "function"
    },
    {
      "constant": true,
      "inputs": [
        {
          "internalType": "address",
          "name": "",
          "type": "address"
        },
        {
          "components": [
            {
              "internalType": "address",
              "name": "ct",
              "type": "address"
            },
            {
              "internalType": "uint256",
              "name": "id",
              "type": "uint256"
            }
          ],
          "internalType": "struct MonetaryTypesLib.Currency",
          "name": "",
          "type": "tuple"
        }
      ],
      "name": "maxNonceByWalletAndCurrency",
      "outputs": [
        {
          "internalType": "uint256",
          "name": "",
          "type": "uint256"
        }
      ],
      "payable": false,
      "stateMutability": "view",
      "type": "function"
    },
    {
      "constant": false,
      "inputs": [
        {
          "internalType": "address",
          "name": "",
          "type": "address"
        },
        {
          "components": [
            {
              "internalType": "address",
              "name": "ct",
              "type": "address"
            },
            {
              "internalType": "uint256",
              "name": "id",
              "type": "uint256"
            }
          ],
          "internalType": "struct MonetaryTypesLib.Currency",
          "name": "",
          "type": "tuple"
        },
        {
          "internalType": "uint256",
          "name": "maxNonce",
          "type": "uint256"
        }
      ],
      "name": "setMaxNonceByWalletAndCurrency",
      "outputs": [],
      "payable": false,
      "stateMutability": "nonpayable",
      "type": "function"
    },
    {
      "constant": false,
      "inputs": [
        {
          "internalType": "uint256",
          "name": "_maxNullNonce",
          "type": "uint256"
        }
      ],
      "name": "setMaxNullNonce",
      "outputs": [],
      "payable": false,
      "stateMutability": "nonpayable",
      "type": "function"
    }
  ],
  "bytecode": "0x608060405234801561001057600080fd5b506102c0806100206000396000f3fe608060405234801561001057600080fd5b50600436106100625760003560e01c80631423ba38146100675780631592f0ab1461007c5780633858654b1461008457806362662367146100ad578063741ee9a0146100b5578063f0684680146100bd575b600080fd5b61007a610075366004610193565b6100d0565b005b61007a6100d7565b610097610092366004610159565b6100e1565b6040516100a49190610215565b60405180910390f35b6100976100eb565b6100976100f1565b61007a6100cb3660046101e0565b6100f7565b6000555050565b6000808055600155565b6000545b92915050565b60015481565b60005481565b600155565b80356100e58161025d565b60006040828403121561011957600080fd5b6101236040610223565b9050600061013184846100fc565b82525060206101428484830161014e565b60208301525092915050565b80356100e581610274565b6000806060838503121561016c57600080fd5b600061017885856100fc565b925050602061018985828601610107565b9150509250929050565b6000806000608084860312156101a857600080fd5b60006101b486866100fc565b93505060206101c586828701610107565b92505060606101d68682870161014e565b9150509250925092565b6000602082840312156101f257600080fd5b60006101fe848461014e565b949350505050565b61020f8161025a565b82525050565b602081016100e58284610206565b6040518181016001600160401b038111828210171561024157600080fd5b604052919050565b60006001600160a01b0382166100e5565b90565b61026681610249565b811461027157600080fd5b50565b6102668161025a56fea365627a7a723158201464f6db827e558c609f0a9e6071d7a6c39f82f872d01553e668baf00f1512fe6c6578706572696d656e74616cf564736f6c634300050c0040",
  "source": "/*\n * Hubii Nahmii\n *\n * Compliant with the Hubii Nahmii specification v0.12.\n *\n * Copyright (C) 2017-2018 Hubii AS\n */\n\npragma solidity >=0.4.25 <0.6.0;\n\nimport {MonetaryTypesLib} from \"../MonetaryTypesLib.sol\";\npragma experimental ABIEncoderV2;\n\n/**\n * @title MockedNullSettlementState\n * @notice Mocked implementation of null settlement state contract\n */\ncontract MockedNullSettlementState {\n\n    uint256 public _maxNonceByWalletAndCurrency;\n    uint256 public maxNullNonce;\n\n    function _reset()\n    public\n    {\n        delete _maxNonceByWalletAndCurrency;\n        delete maxNullNonce;\n    }\n\n    function maxNonceByWalletAndCurrency(address, MonetaryTypesLib.Currency memory)\n    public\n    view\n    returns (uint256)\n    {\n        return _maxNonceByWalletAndCurrency;\n    }\n\n    function setMaxNonceByWalletAndCurrency(address, MonetaryTypesLib.Currency memory,\n        uint256 maxNonce)\n    public\n    {\n        _maxNonceByWalletAndCurrency = maxNonce;\n    }\n\n    function setMaxNullNonce(uint256 _maxNullNonce)\n    public\n    {\n        maxNullNonce = _maxNullNonce;\n    }\n}",
  "sourcePath": "/opt/buildagent/work/855e104608380c36/contracts/test/MockedNullSettlementState.sol",
  "compiler": {
    "name": "solc",
    "version": "0.5.12+commit.7709ece9.Emscripten.clang"
  },
  "schemaVersion": "2.0.3",
  "updatedAt": "2019-10-22T21:00:29.588Z"
}