{
  "contractName": "MockedTokenHolderRevenueFundService",
  "abi": [
    {
      "constant": true,
      "inputs": [
        {
          "internalType": "uint256",
          "name": "",
          "type": "uint256"
        }
      ],
      "name": "_benefits",
      "outputs": [
        {
          "internalType": "address",
          "name": "wallet",
          "type": "address"
        },
        {
          "internalType": "string",
          "name": "balanceType",
          "type": "string"
        },
        {
          "components": [
            {
              "internalType": "int256",
              "name": "amount",
              "type": "int256"
            },
            {
              "components": [
                {
                  "internalType": "address",
                  "name": "ct",
                  "type": "address"
                },
                {
                  "internalType": "uint256",
                  "name": "id",
                  "type": "uint256"
                }
              ],
              "internalType": "struct MonetaryTypesLib.Currency",
              "name": "currency",
              "type": "tuple"
            }
          ],
          "internalType": "struct MonetaryTypesLib.Figure",
          "name": "figure",
          "type": "tuple"
        },
        {
          "internalType": "string",
          "name": "standard",
          "type": "string"
        }
      ],
      "payable": false,
      "stateMutability": "view",
      "type": "function"
    },
    {
      "constant": true,
      "inputs": [],
      "name": "_tokenHolderRevenueFund",
      "outputs": [
        {
          "internalType": "contract TokenHolderRevenueFund",
          "name": "",
          "type": "address"
        }
      ],
      "payable": false,
      "stateMutability": "view",
      "type": "function"
    },
    {
      "constant": false,
      "inputs": [],
      "name": "_reset",
      "outputs": [],
      "payable": false,
      "stateMutability": "nonpayable",
      "type": "function"
    },
    {
      "constant": false,
      "inputs": [
        {
          "internalType": "contract TokenHolderRevenueFund",
          "name": "tokenHolderRevenueFund",
          "type": "address"
        }
      ],
      "name": "setTokenHolderRevenueFund",
      "outputs": [],
      "payable": false,
      "stateMutability": "nonpayable",
      "type": "function"
    },
    {
      "constant": false,
      "inputs": [
        {
          "components": [
            {
              "internalType": "address",
              "name": "ct",
              "type": "address"
            },
            {
              "internalType": "uint256",
              "name": "id",
              "type": "uint256"
            }
          ],
          "internalType": "struct MonetaryTypesLib.Currency[]",
          "name": "currencies",
          "type": "tuple[]"
        }
      ],
      "name": "closeAccrualPeriod",
      "outputs": [],
      "payable": false,
      "stateMutability": "nonpayable",
      "type": "function"
    },
    {
      "constant": false,
      "inputs": [
        {
          "internalType": "address",
          "name": "wallet",
          "type": "address"
        },
        {
          "internalType": "string",
          "name": "balanceType",
          "type": "string"
        }
      ],
      "name": "receiveEthersTo",
      "outputs": [],
      "payable": true,
      "stateMutability": "payable",
      "type": "function"
    },
    {
      "constant": false,
      "inputs": [
        {
          "internalType": "address",
          "name": "wallet",
          "type": "address"
        },
        {
          "internalType": "string",
          "name": "balanceType",
          "type": "string"
        },
        {
          "internalType": "int256",
          "name": "amount",
          "type": "int256"
        },
        {
          "internalType": "address",
          "name": "currencyCt",
          "type": "address"
        },
        {
          "internalType": "uint256",
          "name": "currencyId",
          "type": "uint256"
        },
        {
          "internalType": "string",
          "name": "standard",
          "type": "string"
        }
      ],
      "name": "receiveTokensTo",
      "outputs": [],
      "payable": false,
      "stateMutability": "nonpayable",
      "type": "function"
    },
    {
      "constant": true,
      "inputs": [
        {
          "internalType": "uint256",
          "name": "index",
          "type": "uint256"
        }
      ],
      "name": "_getBenefit",
      "outputs": [
        {
          "internalType": "address",
          "name": "wallet",
          "type": "address"
        },
        {
          "internalType": "string",
          "name": "balanceType",
          "type": "string"
        },
        {
          "internalType": "int256",
          "name": "amount",
          "type": "int256"
        },
        {
          "internalType": "address",
          "name": "currencyCt",
          "type": "address"
        },
        {
          "internalType": "uint256",
          "name": "currencyId",
          "type": "uint256"
        },
        {
          "internalType": "string",
          "name": "standard",
          "type": "string"
        }
      ],
      "payable": false,
      "stateMutability": "view",
      "type": "function"
    }
  ],
  "bytecode": "0x608060405234801561001057600080fd5b50610fac806100206000396000f3fe60806040526004361061006b5760003560e01c80631592f0ab146100705780631da826be14610087578063477fbc39146100a75780635f289651146100c7578063982c90aa146100e7578063a7654a1f14610112578063ab34a92c14610125578063d2c6a9b014610157575b600080fd5b34801561007c57600080fd5b50610085610187565b005b34801561009357600080fd5b506100856100a2366004610bf7565b610197565b3480156100b357600080fd5b506100856100c2366004610bbb565b6101b9565b3480156100d357600080fd5b506100856100e2366004610b06565b61021e565b3480156100f357600080fd5b506100fc61032d565b6040516101099190610e11565b60405180910390f35b610085610120366004610ab5565b61033c565b34801561013157600080fd5b50610145610140366004610c15565b610454565b60405161010996959493929190610d47565b34801561016357600080fd5b50610177610172366004610c15565b610673565b6040516101099493929190610dae565b6000610194600182610803565b50565b600080546001600160a01b0319166001600160a01b0392909216919091179055565b60005460405163477fbc3960e01b81526001600160a01b039091169063477fbc39906101e9908490600401610df9565b600060405180830381600087803b15801561020357600080fd5b505af1158015610217573d6000803e3d6000fd5b5050505050565b604080516080810182526001600160a01b038881168252602080830189815284518086018652898152855180870187528985168152808401899052818401529484019490945260608301859052600180548082018083556000929092528451600080516020610f2a833981519152600690920291820180546001600160a01b031916919095161784559451805191956102cc93600080516020610f4a83398151915290910192910190610834565b5060408201518051600283015560209081015180516003840180546001600160a01b0319166001600160a01b039092169190911790558101516004830155606083015180516103219260058501920190610834565b50505050505050505050565b6000546001600160a01b031681565b604080516080810182526001600160a01b03848116825260208083018581528451808601865234815285518087018752600080825281850181905282850191909152858701919091528551808401909652808652606085019590955260018054808201808355919096528451600080516020610f2a833981519152600690970296870180546001600160a01b031916919095161784559051805191956103f793600080516020610f4a83398151915290910192910190610834565b5060408201518051600283015560209081015180516003840180546001600160a01b0319166001600160a01b0390921691909117905581015160048301556060830151805161044c9260058501920190610834565b505050505050565b60006060600080600060606001878154811061046c57fe5b6000918252602090912060069091020154600180546001600160a01b039092169750908890811061049957fe5b90600052602060002090600602016001018054600181600116156101000203166002900480601f01602080910402602001604051908101604052809291908181526020018280546001816001161561010002031660029004801561053e5780601f106105135761010080835404028352916020019161053e565b820191906000526020600020905b81548152906001019060200180831161052157829003601f168201915b505050505094506001878154811061055257fe5b90600052602060002090600602016002016000015493506001878154811061057657fe5b6000918252602090912060036006909202010154600180546001600160a01b03909216945090889081106105a657fe5b9060005260206000209060060201600201600101600101549150600187815481106105cd57fe5b6000918252602091829020600560069092020101805460408051601f60026000196101006001871615020190941693909304928301859004850281018501909152818152928301828280156106635780601f1061063857610100808354040283529160200191610663565b820191906000526020600020905b81548152906001019060200180831161064657829003601f168201915b5050505050905091939550919395565b6001818154811061068057fe5b600091825260209182902060069091020180546001808301805460408051601f60026000199685161561010002969096019093169490940491820187900487028401870190528083526001600160a01b03909316955092939092919083018282801561072d5780601f106107025761010080835404028352916020019161072d565b820191906000526020600020905b81548152906001019060200180831161071057829003601f168201915b505060408051808201825260028781015482528251808401845260038901546001600160a01b0316815260048901546020808301919091528084019190915260058901805485516101006001831615026000190190911693909304601f8101839004830284018301909552848352979892979296509094509092508301828280156107f95780601f106107ce576101008083540402835291602001916107f9565b820191906000526020600020905b8154815290600101906020018083116107dc57829003601f168201915b5050505050905084565b81548183558181111561082f5760060281600602836000526020600020918201910161082f91906108b2565b505050565b828054600181600116156101000203166002900490600052602060002090601f016020900481019282601f1061087557805160ff19168380011785556108a2565b828001600101855582156108a2579182015b828111156108a2578251825591602001919060010190610887565b506108ae929150610919565b5090565b61091691905b808211156108ae5780546001600160a01b031916815560006108dd6001830182610933565b6000600283018190556003830180546001600160a01b03191690556004830181905561090d906005840190610933565b506006016108b8565b90565b61091691905b808211156108ae576000815560010161091f565b50805460018160011615610100020316600290046000825580601f106109595750610194565b601f0160209004906000526020600020908101906101949190610919565b803561098281610f03565b92915050565b600082601f83011261099957600080fd5b81356109ac6109a782610e45565b610e1f565b915081818352602084019350602081019050838560408402820111156109d157600080fd5b60005b838110156109ff57816109e78882610a6e565b845250602090920191604091909101906001016109d4565b5050505092915050565b803561098281610f17565b803561098281610f20565b600082601f830112610a3057600080fd5b8135610a3e6109a782610e65565b91508082526020830160208301858383011115610a5a57600080fd5b610a65838284610ec1565b50505092915050565b600060408284031215610a8057600080fd5b610a8a6040610e1f565b90506000610a988484610977565b8252506020610aa984848301610a14565b60208301525092915050565b60008060408385031215610ac857600080fd5b6000610ad48585610977565b92505060208301356001600160401b03811115610af057600080fd5b610afc85828601610a1f565b9150509250929050565b60008060008060008060c08789031215610b1f57600080fd5b6000610b2b8989610977565b96505060208701356001600160401b03811115610b4757600080fd5b610b5389828a01610a1f565b9550506040610b6489828a01610a14565b9450506060610b7589828a01610977565b9350506080610b8689828a01610a14565b92505060a08701356001600160401b03811115610ba257600080fd5b610bae89828a01610a1f565b9150509295509295509295565b600060208284031215610bcd57600080fd5b81356001600160401b03811115610be357600080fd5b610bef84828501610988565b949350505050565b600060208284031215610c0957600080fd5b6000610bef8484610a09565b600060208284031215610c2757600080fd5b6000610bef8484610a14565b6000610c3f8383610cf9565b505060400190565b610c5081610e9f565b82525050565b6000610c6182610e92565b610c6b8185610e96565b9350610c7683610e8c565b8060005b83811015610ca4578151610c8e8882610c33565b9750610c9983610e8c565b925050600101610c7a565b509495945050505050565b610c5081610eaa565b610c5081610916565b6000610ccc82610e92565b610cd68185610e96565b9350610ce6818560208601610ecd565b610cef81610ef9565b9093019392505050565b80516040830190610d0a8482610c47565b506020820151610d1d6020850182610cb8565b50505050565b80516060830190610d348482610cb8565b506020820151610d1d6020850182610cf9565b60c08101610d558289610c47565b8181036020830152610d678188610cc1565b9050610d766040830187610cb8565b610d836060830186610c47565b610d906080830185610cb8565b81810360a0830152610da28184610cc1565b98975050505050505050565b60c08101610dbc8287610c47565b8181036020830152610dce8186610cc1565b9050610ddd6040830185610d23565b81810360a0830152610def8184610cc1565b9695505050505050565b60208082528101610e0a8184610c56565b9392505050565b602081016109828284610caf565b6040518181016001600160401b0381118282101715610e3d57600080fd5b604052919050565b60006001600160401b03821115610e5b57600080fd5b5060209081020190565b60006001600160401b03821115610e7b57600080fd5b506020601f91909101601f19160190565b60200190565b5190565b90815260200190565b600061098282610eb5565b600061098282610e9f565b6001600160a01b031690565b82818337506000910152565b60005b83811015610ee8578181015183820152602001610ed0565b83811115610d1d5750506000910152565b601f01601f191690565b610f0c81610e9f565b811461019457600080fd5b610f0c81610eaa565b610f0c8161091656feb10e2d527612073b26eecdfd717e6a320cf44b4afac2b0732d9fcbe2b7fa0cf6b10e2d527612073b26eecdfd717e6a320cf44b4afac2b0732d9fcbe2b7fa0cf7a365627a7a72315820508c3f12d4c28998606ae95aac746cfac33a26a46cd5b8847f262968edf657036c6578706572696d656e74616cf564736f6c634300050c0040",
  "source": "/*\n * Hubii Nahmii\n *\n * Compliant with the Hubii Nahmii specification v0.12.\n *\n * Copyright (C) 2017-2018 Hubii AS\n */\n\npragma solidity >=0.4.25 <0.6.0;\npragma experimental ABIEncoderV2;\n\nimport {Beneficiary} from \"../Beneficiary.sol\";\nimport {TokenHolderRevenueFund} from \"../TokenHolderRevenueFund.sol\";\nimport {MonetaryTypesLib} from \"../MonetaryTypesLib.sol\";\n\n/**\n * @title MockedTokenHolderRevenueFundService\n * @notice Mocked implementation of service contract that interacts with TokenHolderRevenueFund\n */\ncontract MockedTokenHolderRevenueFundService is Beneficiary {\n    //\n    // Types\n    // -----------------------------------------------------------------------------------------------------------------\n    struct Benefit {\n        address wallet;\n        string balanceType;\n        MonetaryTypesLib.Figure figure;\n        string standard;\n    }\n\n    //\n    // Variables\n    // -----------------------------------------------------------------------------------------------------------------\n    TokenHolderRevenueFund public _tokenHolderRevenueFund;\n\n    Benefit[] public _benefits;\n\n    //\n    // Functions\n    // -----------------------------------------------------------------------------------------------------------------\n    function _reset()\n    public\n    {\n        _benefits.length = 0;\n    }\n\n    function setTokenHolderRevenueFund(TokenHolderRevenueFund tokenHolderRevenueFund)\n    public\n    {\n        _tokenHolderRevenueFund = tokenHolderRevenueFund;\n    }\n\n    function closeAccrualPeriod(MonetaryTypesLib.Currency[] memory currencies)\n    public\n    {\n        _tokenHolderRevenueFund.closeAccrualPeriod(currencies);\n    }\n\n    function receiveEthersTo(address wallet, string memory balanceType)\n    public\n    payable\n    {\n        _benefits.push(\n            Benefit(\n                wallet,\n                balanceType,\n                MonetaryTypesLib.Figure(\n                    int256(msg.value),\n                    MonetaryTypesLib.Currency(address(0), 0)\n                ),\n                \"\"\n            )\n        );\n    }\n\n    function receiveTokensTo(address wallet, string memory balanceType, int256 amount,\n        address currencyCt, uint256 currencyId, string memory standard)\n    public\n    {\n        _benefits.push(\n            Benefit(\n                wallet,\n                balanceType,\n                MonetaryTypesLib.Figure(\n                    amount,\n                    MonetaryTypesLib.Currency(currencyCt, currencyId)\n                ),\n                standard\n            )\n        );\n    }\n\n    function _getBenefit(uint256 index)\n    public\n    view\n    returns (address wallet, string memory balanceType, int256 amount, address currencyCt,\n        uint256 currencyId, string memory standard)\n    {\n        wallet = _benefits[index].wallet;\n        balanceType = _benefits[index].balanceType;\n        amount = _benefits[index].figure.amount;\n        currencyCt = _benefits[index].figure.currency.ct;\n        currencyId = _benefits[index].figure.currency.id;\n        standard = _benefits[index].standard;\n    }\n}",
  "sourcePath": "/opt/buildagent/work/855e104608380c36/contracts/test/MockedTokenHolderRevenueFundService.sol",
  "compiler": {
    "name": "solc",
    "version": "0.5.12+commit.7709ece9.Emscripten.clang"
  },
  "schemaVersion": "2.0.3",
  "updatedAt": "2019-10-22T21:00:29.591Z"
}