{
  "contractName": "MockedBalanceTracker",
  "abi": [
    {
      "inputs": [],
      "payable": false,
      "stateMutability": "nonpayable",
      "type": "constructor"
    },
    {
      "constant": true,
      "inputs": [],
      "name": "DEPOSITED_BALANCE_TYPE",
      "outputs": [
        {
          "internalType": "string",
          "name": "",
          "type": "string"
        }
      ],
      "payable": false,
      "stateMutability": "view",
      "type": "function"
    },
    {
      "constant": true,
      "inputs": [],
      "name": "SETTLED_BALANCE_TYPE",
      "outputs": [
        {
          "internalType": "string",
          "name": "",
          "type": "string"
        }
      ],
      "payable": false,
      "stateMutability": "view",
      "type": "function"
    },
    {
      "constant": true,
      "inputs": [],
      "name": "STAGED_BALANCE_TYPE",
      "outputs": [
        {
          "internalType": "string",
          "name": "",
          "type": "string"
        }
      ],
      "payable": false,
      "stateMutability": "view",
      "type": "function"
    },
    {
      "constant": true,
      "inputs": [],
      "name": "depositedBalanceType",
      "outputs": [
        {
          "internalType": "bytes32",
          "name": "",
          "type": "bytes32"
        }
      ],
      "payable": false,
      "stateMutability": "view",
      "type": "function"
    },
    {
      "constant": true,
      "inputs": [],
      "name": "settledBalanceType",
      "outputs": [
        {
          "internalType": "bytes32",
          "name": "",
          "type": "bytes32"
        }
      ],
      "payable": false,
      "stateMutability": "view",
      "type": "function"
    },
    {
      "constant": true,
      "inputs": [],
      "name": "stagedBalanceType",
      "outputs": [
        {
          "internalType": "bytes32",
          "name": "",
          "type": "bytes32"
        }
      ],
      "payable": false,
      "stateMutability": "view",
      "type": "function"
    },
    {
      "constant": false,
      "inputs": [],
      "name": "_reset",
      "outputs": [],
      "payable": false,
      "stateMutability": "nonpayable",
      "type": "function"
    },
    {
      "constant": false,
      "inputs": [
        {
          "internalType": "bytes32",
          "name": "_type",
          "type": "bytes32"
        },
        {
          "internalType": "int256",
          "name": "amount",
          "type": "int256"
        }
      ],
      "name": "_set",
      "outputs": [],
      "payable": false,
      "stateMutability": "nonpayable",
      "type": "function"
    },
    {
      "constant": true,
      "inputs": [
        {
          "internalType": "address",
          "name": "",
          "type": "address"
        },
        {
          "internalType": "bytes32",
          "name": "_type",
          "type": "bytes32"
        },
        {
          "internalType": "address",
          "name": "",
          "type": "address"
        },
        {
          "internalType": "uint256",
          "name": "",
          "type": "uint256"
        }
      ],
      "name": "get",
      "outputs": [
        {
          "internalType": "int256",
          "name": "",
          "type": "int256"
        }
      ],
      "payable": false,
      "stateMutability": "view",
      "type": "function"
    },
    {
      "constant": false,
      "inputs": [
        {
          "internalType": "bytes32",
          "name": "_type",
          "type": "bytes32"
        },
        {
          "internalType": "uint256",
          "name": "size",
          "type": "uint256"
        }
      ],
      "name": "_setFungibleRecordsCount",
      "outputs": [],
      "payable": false,
      "stateMutability": "nonpayable",
      "type": "function"
    },
    {
      "constant": true,
      "inputs": [
        {
          "internalType": "address",
          "name": "",
          "type": "address"
        },
        {
          "internalType": "bytes32",
          "name": "_type",
          "type": "bytes32"
        },
        {
          "internalType": "address",
          "name": "",
          "type": "address"
        },
        {
          "internalType": "uint256",
          "name": "",
          "type": "uint256"
        }
      ],
      "name": "fungibleRecordsCount",
      "outputs": [
        {
          "internalType": "uint256",
          "name": "",
          "type": "uint256"
        }
      ],
      "payable": false,
      "stateMutability": "view",
      "type": "function"
    },
    {
      "constant": false,
      "inputs": [
        {
          "internalType": "bytes32",
          "name": "_type",
          "type": "bytes32"
        },
        {
          "internalType": "int256",
          "name": "amount",
          "type": "int256"
        },
        {
          "internalType": "uint256",
          "name": "blockNumber",
          "type": "uint256"
        }
      ],
      "name": "_setFungibleRecord",
      "outputs": [],
      "payable": false,
      "stateMutability": "nonpayable",
      "type": "function"
    },
    {
      "constant": true,
      "inputs": [
        {
          "internalType": "address",
          "name": "",
          "type": "address"
        },
        {
          "internalType": "bytes32",
          "name": "_type",
          "type": "bytes32"
        },
        {
          "internalType": "address",
          "name": "",
          "type": "address"
        },
        {
          "internalType": "uint256",
          "name": "",
          "type": "uint256"
        },
        {
          "internalType": "uint256",
          "name": "",
          "type": "uint256"
        }
      ],
      "name": "fungibleRecordByBlockNumber",
      "outputs": [
        {
          "internalType": "int256",
          "name": "amount",
          "type": "int256"
        },
        {
          "internalType": "uint256",
          "name": "blockNumber",
          "type": "uint256"
        }
      ],
      "payable": false,
      "stateMutability": "view",
      "type": "function"
    },
    {
      "constant": true,
      "inputs": [
        {
          "internalType": "address",
          "name": "wallet",
          "type": "address"
        },
        {
          "internalType": "bytes32",
          "name": "_type",
          "type": "bytes32"
        },
        {
          "internalType": "address",
          "name": "currencyCt",
          "type": "address"
        },
        {
          "internalType": "uint256",
          "name": "currencyId",
          "type": "uint256"
        }
      ],
      "name": "lastFungibleRecord",
      "outputs": [
        {
          "internalType": "int256",
          "name": "amount",
          "type": "int256"
        },
        {
          "internalType": "uint256",
          "name": "blockNumber",
          "type": "uint256"
        }
      ],
      "payable": false,
      "stateMutability": "view",
      "type": "function"
    }
  ],
  "bytecode": "0x608060405234801561001057600080fd5b506040518060400160405280600981526020017f6465706f736974656400000000000000000000000000000000000000000000008152506040516020018082805190602001908083835b602083106100795780518252601f19909201916020918201910161005a565b51815160209384036101000a60001901801990921691161790526040805192909401828103601f19018352808552825192820192909220600055818401845260078083527f736574746c656400000000000000000000000000000000000000000000000000838301908152945192965091019350839291508083835b602083106101145780518252601f1990920191602091820191016100f5565b51815160209384036101000a60001901801990921691161790526040805192909401828103601f19018352808552825192820192909220600155818401845260068083527f7374616765640000000000000000000000000000000000000000000000000000838301908152945192965091019350839291508083835b602083106101af5780518252601f199092019160209182019101610190565b6001836020036101000a03801982511681845116808217855250505050505090500191505060405160208183030381529060405280519060200120600281905550610776806101ff6000396000f3fe608060405234801561001057600080fd5b50600436106100ba5760003560e01c8063091a194b146100bf5780631592f0ab1461010b57806345de4006146101155780634652ec74146101385780635106c20314610140578063528162c2146101bd5780636f4a1815146101c557806371f4ec511461021857806379d6373c14610252578063a246138c1461025a578063c60c5b6c1461029a578063d22625bf146102a2578063ded11310146102cb578063e2fff48a146102d3575b600080fd5b6100f9600480360360808110156100d557600080fd5b506001600160a01b03813581169160208101359160408201351690606001356102f6565b60408051918252519081900360200190f35b61011361030c565b005b6101136004803603604081101561012b57600080fd5b50803590602001356104d3565b6100f9610544565b61014861054a565b6040805160208082528351818301528351919283929083019185019080838360005b8381101561018257818101518382015260200161016a565b50505050905090810190601f1680156101af5780820380516001836020036101000a031916815260200191505b509250505060405180910390f35b61014861056f565b6101ff600480360360808110156101db57600080fd5b506001600160a01b0381358116916020810135916040820135169060600135610591565b6040805192835260208301919091528051918290030190f35b6100f96004803603608081101561022e57600080fd5b506001600160a01b03813581169160208101359160408201351690606001356105af565b6100f96105c5565b6101ff600480360360a081101561027057600080fd5b506001600160a01b03813581169160208101359160408201351690606081013590608001356105cb565b6101486105eb565b610113600480360360608110156102b857600080fd5b508035906020810135906040013561060e565b6100f961068a565b610113600480360360408110156102e957600080fd5b5080359060200135610690565b5050600090815260066020526040902054919050565b60005b60045481101561038f576000600360006004848154811061032c57fe5b90600052602060002001548152602001908152602001600020819055506000600560006004848154811061035c57fe5b60009182526020808320919091015483528201929092526040019020805460ff191691151591909117905560010161030f565b600061039c600482610701565b50600090505b60075481101561042257600060066000600784815481106103bf57fe5b9060005260206000200154815260200190815260200160002081905550600060086000600784815481106103ef57fe5b60009182526020808320919091015483528201929092526040019020805460ff19169115159190911790556001016103a2565b600061042f600782610701565b50600090505b600a548110156104c25760096000600a838154811061045057fe5b90600052602060002001548152602001908152602001600020600080820160009055600182016000905550506000600b6000600a848154811061048f57fe5b60009182526020808320919091015483528201929092526040019020805460ff1916911515919091179055600101610435565b60006104cf600a82610701565b5050565b6000828152600360209081526040808320849055600590915290205460ff166104cf57506000818152600560205260408120805460ff191660019081179091556004805491820181559091527f8a35acfbc15ff81a39ae7d344fd709f28e8600b4aa8c65c6b64bfe7fe36bd19b0155565b60015481565b6040518060400160405280600981526020016819195c1bdcda5d195960ba1b81525081565b604051806040016040528060068152602001651cdd1859d95960d21b81525081565b6000806105a28686868660006105cb565b9150915094509492505050565b5050600090815260036020526040902054919050565b60025481565b505050600090815260096020526040902080546001909101549092909150565b604051806040016040528060078152602001661cd95d1d1b195960ca1b81525081565b6000838152600960209081526040808320858155600101849055600b90915290205460ff16610685576000838152600b60205260408120805460ff19166001908117909155600a805491820181559091527fc65a7bb8d6351c1cf70c95a316cc6a92839c986682d98bc35f958f4883f9d2a8018390555b505050565b60005481565b6000828152600660209081526040808320849055600890915290205460ff166104cf57506000818152600860205260408120805460ff191660019081179091556007805491820181559091527fa66cc928b5edb82af9bd49922954155ab7b0942694bea4ce44661d9a8736c6880155565b8154818355818111156106855760008381526020902061068591810190830161073e91905b8082111561073a5760008155600101610726565b5090565b9056fea265627a7a7231582057b5af433d8107e46161dca8f0761d8379c1c252590a7567067d6be77642766164736f6c634300050c0032",
  "source": "/*\n * Hubii Nahmii\n *\n * Compliant with the Hubii Nahmii specification v0.12.\n *\n * Copyright (C) 2017-2018 Hubii AS\n */\n\npragma solidity >=0.4.25 <0.6.0;\n\n/**\n * @title MockedBalanceTracker\n * @notice Mocked implementation of balance tracker contract\n */\ncontract MockedBalanceTracker {\n    //\n    // Constants\n    // -----------------------------------------------------------------------------------------------------------------\n    string constant public DEPOSITED_BALANCE_TYPE = \"deposited\";\n    string constant public SETTLED_BALANCE_TYPE = \"settled\";\n    string constant public STAGED_BALANCE_TYPE = \"staged\";\n\n    //\n    // Types\n    // -----------------------------------------------------------------------------------------------------------------\n    struct FungibleRecord {\n        int256 amount;\n        uint256 blockNumber;\n    }\n\n    //\n    // Variables\n    // -----------------------------------------------------------------------------------------------------------------\n    bytes32 public depositedBalanceType;\n    bytes32 public settledBalanceType;\n    bytes32 public stagedBalanceType;\n\n    mapping(bytes32 => int256) private _fungibleBalanceAmountByType;\n    bytes32[] private _fungibleBalanceAmountTypes;\n    mapping(bytes32 => bool) private _fungibleBalanceAmountSet;\n\n    mapping(bytes32 => uint256) private _fungibleRecordsCountByType;\n    bytes32[] private _fungibleRecordsCountTypes;\n    mapping(bytes32 => bool) private _fungibleRecordsCountSet;\n\n    mapping(bytes32 => FungibleRecord) private _fungibleRecordByType;\n    bytes32[] private _fungibleRecordTypes;\n    mapping(bytes32 => bool) private _fungibleRecordTypeSet;\n\n    //\n    // Constructor\n    // -----------------------------------------------------------------------------------------------------------------\n    constructor()\n    public\n    {\n        depositedBalanceType = keccak256(abi.encodePacked(DEPOSITED_BALANCE_TYPE));\n        settledBalanceType = keccak256(abi.encodePacked(SETTLED_BALANCE_TYPE));\n        stagedBalanceType = keccak256(abi.encodePacked(STAGED_BALANCE_TYPE));\n    }\n\n    //\n    // Functions\n    // -----------------------------------------------------------------------------------------------------------------\n    function _reset()\n    public\n    {\n        uint256 i;\n\n        for (i = 0; i < _fungibleBalanceAmountTypes.length; i++) {\n            _fungibleBalanceAmountByType[_fungibleBalanceAmountTypes[i]] = 0;\n            _fungibleBalanceAmountSet[_fungibleBalanceAmountTypes[i]] = false;\n        }\n        _fungibleBalanceAmountTypes.length = 0;\n\n        for (i = 0; i < _fungibleRecordsCountTypes.length; i++) {\n            _fungibleRecordsCountByType[_fungibleRecordsCountTypes[i]] = 0;\n            _fungibleRecordsCountSet[_fungibleRecordsCountTypes[i]] = false;\n        }\n        _fungibleRecordsCountTypes.length = 0;\n\n        for (i = 0; i < _fungibleRecordTypes.length; i++) {\n            delete _fungibleRecordByType[_fungibleRecordTypes[i]];\n            _fungibleRecordTypeSet[_fungibleRecordTypes[i]] = false;\n        }\n        _fungibleRecordTypes.length = 0;\n    }\n\n    function _set(bytes32 _type, int256 amount)\n    public\n    {\n        _fungibleBalanceAmountByType[_type] = amount;\n\n        if (!_fungibleBalanceAmountSet[_type]) {\n            _fungibleBalanceAmountSet[_type] = true;\n            _fungibleBalanceAmountTypes.push(_type);\n        }\n    }\n\n    function get(address, bytes32 _type, address, uint256)\n    public\n    view\n    returns (int256)\n    {\n        return _fungibleBalanceAmountByType[_type];\n    }\n\n    function _setFungibleRecordsCount(bytes32 _type, uint256 size)\n    public\n    {\n        _fungibleRecordsCountByType[_type] = size;\n\n        if (!_fungibleRecordsCountSet[_type]) {\n            _fungibleRecordsCountSet[_type] = true;\n            _fungibleRecordsCountTypes.push(_type);\n        }\n    }\n\n    function fungibleRecordsCount(address, bytes32 _type, address, uint256)\n    public\n    view\n    returns (uint256)\n    {\n        return _fungibleRecordsCountByType[_type];\n    }\n\n    function _setFungibleRecord(bytes32 _type, int256 amount, uint256 blockNumber)\n    public\n    {\n        _fungibleRecordByType[_type].amount = amount;\n        _fungibleRecordByType[_type].blockNumber = blockNumber;\n\n        if (!_fungibleRecordTypeSet[_type]) {\n            _fungibleRecordTypeSet[_type] = true;\n            _fungibleRecordTypes.push(_type);\n        }\n    }\n\n    function fungibleRecordByBlockNumber(address, bytes32 _type, address, uint256, uint256)\n    public\n    view\n    returns (int256 amount, uint256 blockNumber)\n    {\n        amount = _fungibleRecordByType[_type].amount;\n        blockNumber = _fungibleRecordByType[_type].blockNumber;\n    }\n\n    function lastFungibleRecord(address wallet, bytes32 _type, address currencyCt, uint256 currencyId)\n    public\n    view\n    returns (int256 amount, uint256 blockNumber)\n    {\n        return fungibleRecordByBlockNumber(wallet, _type, currencyCt, currencyId, 0);\n    }\n}",
  "sourcePath": "/opt/buildagent/work/855e104608380c36/contracts/test/MockedBalanceTracker.sol",
  "compiler": {
    "name": "solc",
    "version": "0.5.12+commit.7709ece9.Emscripten.clang"
  },
  "schemaVersion": "2.0.3",
  "updatedAt": "2019-10-22T21:00:29.559Z"
}