{
  "contractName": "MockedTokenHolderRevenueFund",
  "abi": [
    {
      "constant": true,
      "inputs": [
        {
          "name": "",
          "type": "uint256"
        }
      ],
      "name": "_claimTransfers",
      "outputs": [
        {
          "name": "beneficiary",
          "type": "address"
        },
        {
          "name": "destWallet",
          "type": "address"
        },
        {
          "name": "balanceType",
          "type": "string"
        },
        {
          "components": [
            {
              "name": "ct",
              "type": "address"
            },
            {
              "name": "id",
              "type": "uint256"
            }
          ],
          "name": "currency",
          "type": "tuple"
        },
        {
          "name": "standard",
          "type": "string"
        }
      ],
      "payable": false,
      "stateMutability": "view",
      "type": "function"
    },
    {
      "constant": false,
      "inputs": [],
      "name": "_reset",
      "outputs": [],
      "payable": false,
      "stateMutability": "nonpayable",
      "type": "function"
    },
    {
      "constant": false,
      "inputs": [
        {
          "name": "beneficiary",
          "type": "address"
        },
        {
          "name": "destWallet",
          "type": "address"
        },
        {
          "name": "balanceType",
          "type": "string"
        },
        {
          "name": "currencyCt",
          "type": "address"
        },
        {
          "name": "currencyId",
          "type": "uint256"
        },
        {
          "name": "standard",
          "type": "string"
        }
      ],
      "name": "claimAndTransferToBeneficiary",
      "outputs": [],
      "payable": false,
      "stateMutability": "nonpayable",
      "type": "function"
    },
    {
      "constant": true,
      "inputs": [
        {
          "name": "index",
          "type": "uint256"
        }
      ],
      "name": "_getClaimTransfer",
      "outputs": [
        {
          "name": "beneficiary",
          "type": "address"
        },
        {
          "name": "destWallet",
          "type": "address"
        },
        {
          "name": "balanceType",
          "type": "string"
        },
        {
          "name": "currencyCt",
          "type": "address"
        },
        {
          "name": "currencyId",
          "type": "uint256"
        },
        {
          "name": "standard",
          "type": "string"
        }
      ],
      "payable": false,
      "stateMutability": "view",
      "type": "function"
    }
  ],
  "bytecode": "0x608060405234801561001057600080fd5b50610aeb806100206000396000f3006080604052600436106100485763ffffffff60e060020a6000350416631592f0ab811461004d578063ce25621314610064578063d26fb2a914610084578063d282c063146100be575b600080fd5b34801561005957600080fd5b506100626100f0565b005b34801561007057600080fd5b5061006261007f3660046107e6565b6100ff565b34801561009057600080fd5b506100a461009f36600461089b565b610259565b6040516100b59594939291906109a8565b60405180910390f35b3480156100ca57600080fd5b506100de6100d936600461089b565b6103dd565b6040516100b596959493929190610941565b60006100fc81806105ed565b50565b6040805160a081018252600160a060020a0380891682528781166020808401918252838501898152855180870190965288841686528582018890526060850195909552608084018690526000805460018101808355918052855160069091027f290decd9548b62a8d60345a988386fc84ba6bc95484008f6362f93160ef3e56381018054928716600160a060020a031993841617815594517f290decd9548b62a8d60345a988386fc84ba6bc95484008f6362f93160ef3e5648201805491909716921691909117909455945180519293610202937f290decd9548b62a8d60345a988386fc84ba6bc95484008f6362f93160ef3e56590910192919091019061061e565b5060608201518051600383018054600160a060020a031916600160a060020a0390921691909117905560209081015160048301556080830151805161024d926005850192019061061e565b50505050505050505050565b600080548290811061026757fe5b600091825260209182902060069091020180546001808301546002808501805460408051601f60001997841615610100029790970190921693909304948501889004880281018801909252838252600160a060020a039485169750919093169490919083018282801561031b5780601f106102f05761010080835404028352916020019161031b565b820191906000526020600020905b8154815290600101906020018083116102fe57829003601f168201915b50506040805180820182526003870154600160a060020a031681526004870154602080830191909152600588018054845160026101006001841615026000190190921691909104601f8101849004840282018401909552848152979892979296509194509092508301828280156103d35780601f106103a8576101008083540402835291602001916103d3565b820191906000526020600020905b8154815290600101906020018083116103b657829003601f168201915b5050505050905085565b600080606060008060606000878154811015156103f657fe5b600091825260208220600690910201548154600160a060020a0390911697508890811061041f57fe5b600091825260208220600160069092020101548154600160a060020a0390911696508890811061044b57fe5b600091825260209182902060026006909202018101805460408051601f6000196101006001861615020190931694909404918201859004850284018501905280835291929091908301828280156104e35780601f106104b8576101008083540402835291602001916104e3565b820191906000526020600020905b8154815290600101906020018083116104c657829003601f168201915b505050505093506000878154811015156104f957fe5b600091825260208220600360069092020101548154600160a060020a0390911694508890811061052557fe5b6000918252602082206004600690920201015481549093508890811061054757fe5b6000918252602091829020600560069092020101805460408051601f60026000196101006001871615020190941693909304928301859004850281018501909152818152928301828280156105dd5780601f106105b2576101008083540402835291602001916105dd565b820191906000526020600020905b8154815290600101906020018083116105c057829003601f168201915b5050505050905091939550919395565b81548183558181111561061957600602816006028360005260206000209182019101610619919061069c565b505050565b828054600181600116156101000203166002900490600052602060002090601f016020900481019282601f1061065f57805160ff191683800117855561068c565b8280016001018555821561068c579182015b8281111561068c578251825591602001919060010190610671565b50610698929150610709565b5090565b61070691905b80821115610698578054600160a060020a03199081168255600182018054909116905560006106d46002830182610723565b600382018054600160a060020a03191690556000600483018190556106fd906005840190610723565b506006016106a2565b90565b61070691905b80821115610698576000815560010161070f565b50805460018160011615610100020316600290046000825580601f1061074957506100fc565b601f0160209004906000526020600020908101906100fc9190610709565b60006107738235610a52565b9392505050565b60006107738235610a5e565b6000601f8201831361079757600080fd5b81356107aa6107a582610a27565b610a01565b915080825260208301602083018583830111156107c657600080fd5b6107d1838284610a6f565b50505092915050565b60006107738235610706565b60008060008060008060c087890312156107ff57600080fd5b600061080b898961077a565b965050602061081c89828a01610767565b95505060408701356001604060020a0381111561083857600080fd5b61084489828a01610786565b945050606061085589828a01610767565b935050608061086689828a016107da565b92505060a08701356001604060020a0381111561088257600080fd5b61088e89828a01610786565b9150509295509295509295565b6000602082840312156108ad57600080fd5b60006108b984846107da565b949350505050565b6108ca81610a52565b82525050565b6108ca81610a5e565b60006108e482610a4e565b8084526108f8816020860160208601610a7b565b61090181610aa7565b9093016020019392505050565b8051604083019061091f84826108c1565b5060208201516109326020850182610938565b50505050565b6108ca81610706565b60c0810161094f82896108d0565b61095c60208301886108c1565b818103604083015261096e81876108d9565b905061097d60608301866108c1565b61098a6080830185610938565b81810360a083015261099c81846108d9565b98975050505050505050565b60c081016109b682886108d0565b6109c360208301876108c1565b81810360408301526109d581866108d9565b90506109e4606083018561090e565b81810360a08301526109f681846108d9565b979650505050505050565b6040518181016001604060020a0381118282101715610a1f57600080fd5b604052919050565b60006001604060020a03821115610a3d57600080fd5b506020601f91909101601f19160190565b5190565b600160a060020a031690565b6000610a6982610a52565b92915050565b82818337506000910152565b60005b83811015610a96578181015183820152602001610a7e565b838111156109325750506000910152565b601f01601f1916905600a265627a7a72305820fb8155997a43d2bb7df93ddd72abfc093b877cd8c1705e87979a7c4ac65310206c6578706572696d656e74616cf50037",
  "source": "/*\n * Hubii Nahmii\n *\n * Compliant with the Hubii Nahmii specification v0.12.\n *\n * Copyright (C) 2017-2018 Hubii AS\n */\n\npragma solidity ^0.4.25;\npragma experimental ABIEncoderV2;\n\nimport {Beneficiary} from \"../Beneficiary.sol\";\nimport {MonetaryTypesLib} from \"../MonetaryTypesLib.sol\";\n\n/**\n * @title MockedTokenHolderRevenueFund\n * @notice Mocked implementation of TokenHolderRevenueFund\n */\ncontract MockedTokenHolderRevenueFund /*is Beneficiary*/ {\n    //\n    // Types\n    // -----------------------------------------------------------------------------------------------------------------\n    struct ClaimTransfer {\n        Beneficiary beneficiary;\n        address destWallet;\n        string balanceType;\n        MonetaryTypesLib.Currency currency;\n        string standard;\n    }\n\n    //\n    // Variables\n    // -----------------------------------------------------------------------------------------------------------------\n    ClaimTransfer[] public _claimTransfers;\n\n    //\n    // Functions\n    // -----------------------------------------------------------------------------------------------------------------\n    function _reset()\n    public\n    {\n        _claimTransfers.length = 0;\n    }\n\n    function claimAndTransferToBeneficiary(Beneficiary beneficiary, address destWallet, string balanceType,\n        address currencyCt, uint256 currencyId, string standard)\n    public\n    {\n        _claimTransfers.push(\n            ClaimTransfer(\n                beneficiary, destWallet, balanceType, MonetaryTypesLib.Currency(currencyCt, currencyId), standard\n            )\n        );\n    }\n\n    function _getClaimTransfer(uint256 index)\n    public\n    view\n    returns (Beneficiary beneficiary, address destWallet, string balanceType,\n        address currencyCt, uint256 currencyId, string standard)\n    {\n        beneficiary = _claimTransfers[index].beneficiary;\n        destWallet = _claimTransfers[index].destWallet;\n        balanceType = _claimTransfers[index].balanceType;\n        currencyCt = _claimTransfers[index].currency.ct;\n        currencyId = _claimTransfers[index].currency.id;\n        standard = _claimTransfers[index].standard;\n    }\n}",
  "sourcePath": "/opt/buildagent/work/855e104608380c36/contracts/test/MockedTokenHolderRevenueFund.sol",
  "compiler": {
    "name": "solc",
    "version": "0.4.25+commit.59dbf8f1.Emscripten.clang"
  },
  "schemaVersion": "2.0.2",
  "updatedAt": "2019-04-02T06:20:37.136Z"
}