{
  "contractName": "MockedConfiguration",
  "abi": [
    {
      "constant": false,
      "inputs": [
        {
          "name": "fromBlockNumber",
          "type": "uint256"
        },
        {
          "name": "nominal",
          "type": "int256"
        },
        {
          "name": "discountTiers",
          "type": "int256[]"
        },
        {
          "name": "discountValues",
          "type": "int256[]"
        }
      ],
      "name": "setTradeMakerFee",
      "outputs": [],
      "payable": false,
      "stateMutability": "nonpayable",
      "type": "function"
    },
    {
      "constant": true,
      "inputs": [],
      "name": "operationalMode",
      "outputs": [
        {
          "name": "",
          "type": "uint8"
        }
      ],
      "payable": false,
      "stateMutability": "view",
      "type": "function"
    },
    {
      "constant": true,
      "inputs": [
        {
          "name": "currencyCt",
          "type": "address"
        },
        {
          "name": "currencyId",
          "type": "uint256"
        }
      ],
      "name": "feeCurrenciesCount",
      "outputs": [
        {
          "name": "",
          "type": "uint256"
        }
      ],
      "payable": false,
      "stateMutability": "view",
      "type": "function"
    },
    {
      "constant": true,
      "inputs": [
        {
          "name": "blockNumber",
          "type": "uint256"
        },
        {
          "name": "currencyCt",
          "type": "address"
        },
        {
          "name": "currencyId",
          "type": "uint256"
        }
      ],
      "name": "currencyPaymentMinimumFee",
      "outputs": [
        {
          "name": "",
          "type": "int256"
        }
      ],
      "payable": false,
      "stateMutability": "view",
      "type": "function"
    },
    {
      "constant": true,
      "inputs": [
        {
          "name": "service",
          "type": "address"
        }
      ],
      "name": "isRegisteredActiveService",
      "outputs": [
        {
          "name": "",
          "type": "bool"
        }
      ],
      "payable": false,
      "stateMutability": "view",
      "type": "function"
    },
    {
      "constant": false,
      "inputs": [
        {
          "name": "fromBlockNumber",
          "type": "uint256"
        },
        {
          "name": "referenceCurrencyCt",
          "type": "address"
        },
        {
          "name": "referenceCurrencyId",
          "type": "uint256"
        },
        {
          "name": "feeCurrencyCt",
          "type": "address"
        },
        {
          "name": "feeCurrencyId",
          "type": "uint256"
        }
      ],
      "name": "setFeeCurrency",
      "outputs": [],
      "payable": false,
      "stateMutability": "nonpayable",
      "type": "function"
    },
    {
      "constant": true,
      "inputs": [
        {
          "name": "blockNumber",
          "type": "uint256"
        },
        {
          "name": "currencyCt",
          "type": "address"
        },
        {
          "name": "currencyId",
          "type": "uint256"
        },
        {
          "name": "discountTier",
          "type": "int256"
        }
      ],
      "name": "currencyPaymentFee",
      "outputs": [
        {
          "name": "",
          "type": "int256"
        }
      ],
      "payable": false,
      "stateMutability": "view",
      "type": "function"
    },
    {
      "constant": false,
      "inputs": [
        {
          "name": "fromBlockNumber",
          "type": "uint256"
        },
        {
          "name": "nominal",
          "type": "int256"
        }
      ],
      "name": "setPaymentMinimumFee",
      "outputs": [],
      "payable": false,
      "stateMutability": "nonpayable",
      "type": "function"
    },
    {
      "constant": true,
      "inputs": [
        {
          "name": "blockNumber",
          "type": "uint256"
        },
        {
          "name": "discountTier",
          "type": "int256"
        }
      ],
      "name": "tradeMakerFee",
      "outputs": [
        {
          "name": "",
          "type": "int256"
        }
      ],
      "payable": false,
      "stateMutability": "view",
      "type": "function"
    },
    {
      "constant": false,
      "inputs": [],
      "name": "triggerSelfDestruction",
      "outputs": [],
      "payable": false,
      "stateMutability": "nonpayable",
      "type": "function"
    },
    {
      "constant": true,
      "inputs": [
        {
          "name": "blockNumber",
          "type": "uint256"
        }
      ],
      "name": "paymentMinimumFee",
      "outputs": [
        {
          "name": "",
          "type": "int256"
        }
      ],
      "payable": false,
      "stateMutability": "view",
      "type": "function"
    },
    {
      "constant": true,
      "inputs": [],
      "name": "walletSettlementStakeFraction",
      "outputs": [
        {
          "name": "",
          "type": "uint256"
        }
      ],
      "payable": false,
      "stateMutability": "view",
      "type": "function"
    },
    {
      "constant": true,
      "inputs": [],
      "name": "paymentMinimumFeesCount",
      "outputs": [
        {
          "name": "",
          "type": "uint256"
        }
      ],
      "payable": false,
      "stateMutability": "view",
      "type": "function"
    },
    {
      "constant": true,
      "inputs": [],
      "name": "walletLockTimeout",
      "outputs": [
        {
          "name": "",
          "type": "uint256"
        }
      ],
      "payable": false,
      "stateMutability": "view",
      "type": "function"
    },
    {
      "constant": false,
      "inputs": [
        {
          "name": "service",
          "type": "address"
        },
        {
          "name": "action",
          "type": "string"
        }
      ],
      "name": "enableServiceAction",
      "outputs": [],
      "payable": false,
      "stateMutability": "nonpayable",
      "type": "function"
    },
    {
      "constant": true,
      "inputs": [
        {
          "name": "service",
          "type": "address"
        }
      ],
      "name": "isRegisteredService",
      "outputs": [
        {
          "name": "",
          "type": "bool"
        }
      ],
      "payable": false,
      "stateMutability": "view",
      "type": "function"
    },
    {
      "constant": true,
      "inputs": [],
      "name": "selfDestructionDisabled",
      "outputs": [
        {
          "name": "",
          "type": "bool"
        }
      ],
      "payable": false,
      "stateMutability": "view",
      "type": "function"
    },
    {
      "constant": false,
      "inputs": [
        {
          "name": "service",
          "type": "address"
        },
        {
          "name": "action",
          "type": "string"
        }
      ],
      "name": "disableServiceAction",
      "outputs": [],
      "payable": false,
      "stateMutability": "nonpayable",
      "type": "function"
    },
    {
      "constant": true,
      "inputs": [],
      "name": "serviceActivationTimeout",
      "outputs": [
        {
          "name": "",
          "type": "uint256"
        }
      ],
      "payable": false,
      "stateMutability": "view",
      "type": "function"
    },
    {
      "constant": false,
      "inputs": [
        {
          "name": "fromBlockNumber",
          "type": "uint256"
        },
        {
          "name": "timeoutInSeconds",
          "type": "uint256"
        }
      ],
      "name": "setWalletLockTimeout",
      "outputs": [],
      "payable": false,
      "stateMutability": "nonpayable",
      "type": "function"
    },
    {
      "constant": false,
      "inputs": [
        {
          "name": "fromBlockNumber",
          "type": "uint256"
        },
        {
          "name": "stakeFraction",
          "type": "uint256"
        }
      ],
      "name": "setWalletSettlementStakeFraction",
      "outputs": [],
      "payable": false,
      "stateMutability": "nonpayable",
      "type": "function"
    },
    {
      "constant": true,
      "inputs": [],
      "name": "destructor",
      "outputs": [
        {
          "name": "",
          "type": "address"
        }
      ],
      "payable": false,
      "stateMutability": "view",
      "type": "function"
    },
    {
      "constant": true,
      "inputs": [],
      "name": "confirmationBlocks",
      "outputs": [
        {
          "name": "",
          "type": "uint256"
        }
      ],
      "payable": false,
      "stateMutability": "view",
      "type": "function"
    },
    {
      "constant": false,
      "inputs": [
        {
          "name": "fromBlockNumber",
          "type": "uint256"
        },
        {
          "name": "nominal",
          "type": "int256"
        },
        {
          "name": "discountTiers",
          "type": "int256[]"
        },
        {
          "name": "discountValues",
          "type": "int256[]"
        }
      ],
      "name": "setPaymentFee",
      "outputs": [],
      "payable": false,
      "stateMutability": "nonpayable",
      "type": "function"
    },
    {
      "constant": true,
      "inputs": [
        {
          "name": "currencyCt",
          "type": "address"
        },
        {
          "name": "currencyId",
          "type": "uint256"
        }
      ],
      "name": "currencyPaymentMinimumFeesCount",
      "outputs": [
        {
          "name": "",
          "type": "uint256"
        }
      ],
      "payable": false,
      "stateMutability": "view",
      "type": "function"
    },
    {
      "constant": false,
      "inputs": [
        {
          "name": "service",
          "type": "address"
        }
      ],
      "name": "deregisterService",
      "outputs": [],
      "payable": false,
      "stateMutability": "nonpayable",
      "type": "function"
    },
    {
      "constant": true,
      "inputs": [],
      "name": "tradeMakerMinimumFeesCount",
      "outputs": [
        {
          "name": "",
          "type": "uint256"
        }
      ],
      "payable": false,
      "stateMutability": "view",
      "type": "function"
    },
    {
      "constant": false,
      "inputs": [
        {
          "name": "fromBlockNumber",
          "type": "uint256"
        },
        {
          "name": "stakeAmount",
          "type": "int256"
        },
        {
          "name": "stakeCurrencyCt",
          "type": "address"
        },
        {
          "name": "stakeCurrencyId",
          "type": "uint256"
        }
      ],
      "name": "setOperatorSettlementStake",
      "outputs": [],
      "payable": false,
      "stateMutability": "nonpayable",
      "type": "function"
    },
    {
      "constant": true,
      "inputs": [],
      "name": "operator",
      "outputs": [
        {
          "name": "",
          "type": "address"
        }
      ],
      "payable": false,
      "stateMutability": "view",
      "type": "function"
    },
    {
      "constant": true,
      "inputs": [
        {
          "name": "service",
          "type": "address"
        },
        {
          "name": "action",
          "type": "string"
        }
      ],
      "name": "isEnabledServiceAction",
      "outputs": [
        {
          "name": "",
          "type": "bool"
        }
      ],
      "payable": false,
      "stateMutability": "view",
      "type": "function"
    },
    {
      "constant": false,
      "inputs": [
        {
          "name": "fromBlockNumber",
          "type": "uint256"
        },
        {
          "name": "nominal",
          "type": "int256"
        },
        {
          "name": "discountTiers",
          "type": "int256[]"
        },
        {
          "name": "discountValues",
          "type": "int256[]"
        }
      ],
      "name": "setTradeTakerFee",
      "outputs": [],
      "payable": false,
      "stateMutability": "nonpayable",
      "type": "function"
    },
    {
      "constant": false,
      "inputs": [
        {
          "name": "fromBlockNumber",
          "type": "uint256"
        },
        {
          "name": "nominal",
          "type": "int256"
        }
      ],
      "name": "setTradeTakerMinimumFee",
      "outputs": [],
      "payable": false,
      "stateMutability": "nonpayable",
      "type": "function"
    },
    {
      "constant": true,
      "inputs": [
        {
          "name": "blockNumber",
          "type": "uint256"
        },
        {
          "name": "discountTier",
          "type": "int256"
        }
      ],
      "name": "tradeTakerFee",
      "outputs": [
        {
          "name": "",
          "type": "int256"
        }
      ],
      "payable": false,
      "stateMutability": "view",
      "type": "function"
    },
    {
      "constant": false,
      "inputs": [],
      "name": "disableSelfDestruction",
      "outputs": [],
      "payable": false,
      "stateMutability": "nonpayable",
      "type": "function"
    },
    {
      "constant": false,
      "inputs": [
        {
          "name": "fromBlockNumber",
          "type": "uint256"
        },
        {
          "name": "stakeFraction",
          "type": "uint256"
        }
      ],
      "name": "setOperatorSettlementStakeFraction",
      "outputs": [],
      "payable": false,
      "stateMutability": "nonpayable",
      "type": "function"
    },
    {
      "constant": false,
      "inputs": [
        {
          "name": "fromBlockNumber",
          "type": "uint256"
        },
        {
          "name": "timeoutInSeconds",
          "type": "uint256"
        }
      ],
      "name": "setSettlementChallengeTimeout",
      "outputs": [],
      "payable": false,
      "stateMutability": "nonpayable",
      "type": "function"
    },
    {
      "constant": false,
      "inputs": [
        {
          "name": "fromBlockNumber",
          "type": "uint256"
        },
        {
          "name": "newUpdateDelayBlocks",
          "type": "uint256"
        }
      ],
      "name": "setUpdateDelayBlocks",
      "outputs": [],
      "payable": false,
      "stateMutability": "nonpayable",
      "type": "function"
    },
    {
      "constant": false,
      "inputs": [
        {
          "name": "fromBlockNumber",
          "type": "uint256"
        },
        {
          "name": "stakeFraction",
          "type": "uint256"
        }
      ],
      "name": "setFraudStakeFraction",
      "outputs": [],
      "payable": false,
      "stateMutability": "nonpayable",
      "type": "function"
    },
    {
      "constant": false,
      "inputs": [
        {
          "name": "timeoutInSeconds",
          "type": "uint256"
        }
      ],
      "name": "setServiceActivationTimeout",
      "outputs": [],
      "payable": false,
      "stateMutability": "nonpayable",
      "type": "function"
    },
    {
      "constant": true,
      "inputs": [
        {
          "name": "currencyCt",
          "type": "address"
        },
        {
          "name": "currencyId",
          "type": "uint256"
        }
      ],
      "name": "currencyPaymentFeesCount",
      "outputs": [
        {
          "name": "",
          "type": "uint256"
        }
      ],
      "payable": false,
      "stateMutability": "view",
      "type": "function"
    },
    {
      "constant": true,
      "inputs": [],
      "name": "tradeTakerFeesCount",
      "outputs": [
        {
          "name": "",
          "type": "uint256"
        }
      ],
      "payable": false,
      "stateMutability": "view",
      "type": "function"
    },
    {
      "constant": true,
      "inputs": [],
      "name": "updateDelayBlocksCount",
      "outputs": [
        {
          "name": "",
          "type": "uint256"
        }
      ],
      "payable": false,
      "stateMutability": "view",
      "type": "function"
    },
    {
      "constant": true,
      "inputs": [],
      "name": "paymentFeesCount",
      "outputs": [
        {
          "name": "",
          "type": "uint256"
        }
      ],
      "payable": false,
      "stateMutability": "view",
      "type": "function"
    },
    {
      "constant": true,
      "inputs": [],
      "name": "tradeTakerMinimumFeesCount",
      "outputs": [
        {
          "name": "",
          "type": "uint256"
        }
      ],
      "payable": false,
      "stateMutability": "view",
      "type": "function"
    },
    {
      "constant": false,
      "inputs": [
        {
          "name": "service",
          "type": "address"
        }
      ],
      "name": "registerServiceDeferred",
      "outputs": [],
      "payable": false,
      "stateMutability": "nonpayable",
      "type": "function"
    },
    {
      "constant": false,
      "inputs": [
        {
          "name": "fromBlockNumber",
          "type": "uint256"
        },
        {
          "name": "timeoutInSeconds",
          "type": "uint256"
        }
      ],
      "name": "setCancelOrderChallengeTimeout",
      "outputs": [],
      "payable": false,
      "stateMutability": "nonpayable",
      "type": "function"
    },
    {
      "constant": true,
      "inputs": [],
      "name": "cancelOrderChallengeTimeout",
      "outputs": [
        {
          "name": "",
          "type": "uint256"
        }
      ],
      "payable": false,
      "stateMutability": "view",
      "type": "function"
    },
    {
      "constant": false,
      "inputs": [
        {
          "name": "newDeployer",
          "type": "address"
        }
      ],
      "name": "setDeployer",
      "outputs": [],
      "payable": false,
      "stateMutability": "nonpayable",
      "type": "function"
    },
    {
      "constant": true,
      "inputs": [],
      "name": "fraudStakeFraction",
      "outputs": [
        {
          "name": "",
          "type": "uint256"
        }
      ],
      "payable": false,
      "stateMutability": "view",
      "type": "function"
    },
    {
      "constant": false,
      "inputs": [],
      "name": "disableEarliestSettlementBlockNumberUpdate",
      "outputs": [],
      "payable": false,
      "stateMutability": "nonpayable",
      "type": "function"
    },
    {
      "constant": true,
      "inputs": [
        {
          "name": "blockNumber",
          "type": "uint256"
        },
        {
          "name": "currencyCt",
          "type": "address"
        },
        {
          "name": "currencyId",
          "type": "uint256"
        }
      ],
      "name": "feeCurrency",
      "outputs": [
        {
          "name": "ct",
          "type": "address"
        },
        {
          "name": "id",
          "type": "uint256"
        }
      ],
      "payable": false,
      "stateMutability": "view",
      "type": "function"
    },
    {
      "constant": true,
      "inputs": [],
      "name": "operatorSettlementStakeFraction",
      "outputs": [
        {
          "name": "",
          "type": "uint256"
        }
      ],
      "payable": false,
      "stateMutability": "view",
      "type": "function"
    },
    {
      "constant": true,
      "inputs": [
        {
          "name": "blockNumber",
          "type": "uint256"
        },
        {
          "name": "discountTier",
          "type": "int256"
        }
      ],
      "name": "paymentFee",
      "outputs": [
        {
          "name": "",
          "type": "int256"
        }
      ],
      "payable": false,
      "stateMutability": "view",
      "type": "function"
    },
    {
      "constant": true,
      "inputs": [],
      "name": "tradeMakerFeesCount",
      "outputs": [
        {
          "name": "",
          "type": "uint256"
        }
      ],
      "payable": false,
      "stateMutability": "view",
      "type": "function"
    },
    {
      "constant": false,
      "inputs": [
        {
          "name": "newOperator",
          "type": "address"
        }
      ],
      "name": "setOperator",
      "outputs": [],
      "payable": false,
      "stateMutability": "nonpayable",
      "type": "function"
    },
    {
      "constant": true,
      "inputs": [],
      "name": "earliestSettlementBlockNumber",
      "outputs": [
        {
          "name": "",
          "type": "uint256"
        }
      ],
      "payable": false,
      "stateMutability": "view",
      "type": "function"
    },
    {
      "constant": true,
      "inputs": [],
      "name": "OPERATIONAL_MODE_ACTION",
      "outputs": [
        {
          "name": "",
          "type": "string"
        }
      ],
      "payable": false,
      "stateMutability": "view",
      "type": "function"
    },
    {
      "constant": true,
      "inputs": [],
      "name": "isOperationalModeExit",
      "outputs": [
        {
          "name": "",
          "type": "bool"
        }
      ],
      "payable": false,
      "stateMutability": "view",
      "type": "function"
    },
    {
      "constant": true,
      "inputs": [],
      "name": "confirmationBlocksCount",
      "outputs": [
        {
          "name": "",
          "type": "uint256"
        }
      ],
      "payable": false,
      "stateMutability": "view",
      "type": "function"
    },
    {
      "constant": false,
      "inputs": [
        {
          "name": "fromBlockNumber",
          "type": "uint256"
        },
        {
          "name": "currencyCt",
          "type": "address"
        },
        {
          "name": "currencyId",
          "type": "uint256"
        },
        {
          "name": "nominal",
          "type": "int256"
        }
      ],
      "name": "setCurrencyPaymentMinimumFee",
      "outputs": [],
      "payable": false,
      "stateMutability": "nonpayable",
      "type": "function"
    },
    {
      "constant": true,
      "inputs": [],
      "name": "updateDelayBlocks",
      "outputs": [
        {
          "name": "",
          "type": "uint256"
        }
      ],
      "payable": false,
      "stateMutability": "view",
      "type": "function"
    },
    {
      "constant": true,
      "inputs": [],
      "name": "operatorSettlementStake",
      "outputs": [
        {
          "name": "amount",
          "type": "int256"
        },
        {
          "name": "currencyCt",
          "type": "address"
        },
        {
          "name": "currencyId",
          "type": "uint256"
        }
      ],
      "payable": false,
      "stateMutability": "view",
      "type": "function"
    },
    {
      "constant": true,
      "inputs": [],
      "name": "deployer",
      "outputs": [
        {
          "name": "",
          "type": "address"
        }
      ],
      "payable": false,
      "stateMutability": "view",
      "type": "function"
    },
    {
      "constant": true,
      "inputs": [],
      "name": "earliestSettlementBlockNumberUpdateDisabled",
      "outputs": [
        {
          "name": "",
          "type": "bool"
        }
      ],
      "payable": false,
      "stateMutability": "view",
      "type": "function"
    },
    {
      "constant": true,
      "inputs": [
        {
          "name": "blockNumber",
          "type": "uint256"
        }
      ],
      "name": "tradeMakerMinimumFee",
      "outputs": [
        {
          "name": "",
          "type": "int256"
        }
      ],
      "payable": false,
      "stateMutability": "view",
      "type": "function"
    },
    {
      "constant": true,
      "inputs": [
        {
          "name": "blockNumber",
          "type": "uint256"
        }
      ],
      "name": "tradeTakerMinimumFee",
      "outputs": [
        {
          "name": "",
          "type": "int256"
        }
      ],
      "payable": false,
      "stateMutability": "view",
      "type": "function"
    },
    {
      "constant": false,
      "inputs": [
        {
          "name": "fromBlockNumber",
          "type": "uint256"
        },
        {
          "name": "nominal",
          "type": "int256"
        }
      ],
      "name": "setTradeMakerMinimumFee",
      "outputs": [],
      "payable": false,
      "stateMutability": "nonpayable",
      "type": "function"
    },
    {
      "constant": false,
      "inputs": [
        {
          "name": "_earliestSettlementBlockNumber",
          "type": "uint256"
        }
      ],
      "name": "setEarliestSettlementBlockNumber",
      "outputs": [],
      "payable": false,
      "stateMutability": "nonpayable",
      "type": "function"
    },
    {
      "constant": true,
      "inputs": [],
      "name": "isOperationalModeNormal",
      "outputs": [
        {
          "name": "",
          "type": "bool"
        }
      ],
      "payable": false,
      "stateMutability": "view",
      "type": "function"
    },
    {
      "constant": false,
      "inputs": [
        {
          "name": "fromBlockNumber",
          "type": "uint256"
        },
        {
          "name": "currencyCt",
          "type": "address"
        },
        {
          "name": "currencyId",
          "type": "uint256"
        },
        {
          "name": "nominal",
          "type": "int256"
        },
        {
          "name": "discountTiers",
          "type": "int256[]"
        },
        {
          "name": "discountValues",
          "type": "int256[]"
        }
      ],
      "name": "setCurrencyPaymentFee",
      "outputs": [],
      "payable": false,
      "stateMutability": "nonpayable",
      "type": "function"
    },
    {
      "constant": false,
      "inputs": [],
      "name": "setOperationalModeExit",
      "outputs": [],
      "payable": false,
      "stateMutability": "nonpayable",
      "type": "function"
    },
    {
      "constant": true,
      "inputs": [],
      "name": "settlementChallengeTimeout",
      "outputs": [
        {
          "name": "",
          "type": "uint256"
        }
      ],
      "payable": false,
      "stateMutability": "view",
      "type": "function"
    },
    {
      "constant": false,
      "inputs": [
        {
          "name": "service",
          "type": "address"
        }
      ],
      "name": "registerService",
      "outputs": [],
      "payable": false,
      "stateMutability": "nonpayable",
      "type": "function"
    },
    {
      "constant": false,
      "inputs": [
        {
          "name": "fromBlockNumber",
          "type": "uint256"
        },
        {
          "name": "newConfirmationBlocks",
          "type": "uint256"
        }
      ],
      "name": "setConfirmationBlocks",
      "outputs": [],
      "payable": false,
      "stateMutability": "nonpayable",
      "type": "function"
    },
    {
      "inputs": [
        {
          "name": "owner",
          "type": "address"
        }
      ],
      "payable": false,
      "stateMutability": "nonpayable",
      "type": "constructor"
    },
    {
      "anonymous": false,
      "inputs": [],
      "name": "SetOperationalModeExitEvent",
      "type": "event"
    },
    {
      "anonymous": false,
      "inputs": [
        {
          "indexed": false,
          "name": "fromBlockNumber",
          "type": "uint256"
        },
        {
          "indexed": false,
          "name": "newBlocks",
          "type": "uint256"
        }
      ],
      "name": "SetUpdateDelayBlocksEvent",
      "type": "event"
    },
    {
      "anonymous": false,
      "inputs": [
        {
          "indexed": false,
          "name": "fromBlockNumber",
          "type": "uint256"
        },
        {
          "indexed": false,
          "name": "newBlocks",
          "type": "uint256"
        }
      ],
      "name": "SetConfirmationBlocksEvent",
      "type": "event"
    },
    {
      "anonymous": false,
      "inputs": [
        {
          "indexed": false,
          "name": "fromBlockNumber",
          "type": "uint256"
        },
        {
          "indexed": false,
          "name": "nominal",
          "type": "int256"
        },
        {
          "indexed": false,
          "name": "discountTiers",
          "type": "int256[]"
        },
        {
          "indexed": false,
          "name": "discountValues",
          "type": "int256[]"
        }
      ],
      "name": "SetTradeMakerFeeEvent",
      "type": "event"
    },
    {
      "anonymous": false,
      "inputs": [
        {
          "indexed": false,
          "name": "fromBlockNumber",
          "type": "uint256"
        },
        {
          "indexed": false,
          "name": "nominal",
          "type": "int256"
        },
        {
          "indexed": false,
          "name": "discountTiers",
          "type": "int256[]"
        },
        {
          "indexed": false,
          "name": "discountValues",
          "type": "int256[]"
        }
      ],
      "name": "SetTradeTakerFeeEvent",
      "type": "event"
    },
    {
      "anonymous": false,
      "inputs": [
        {
          "indexed": false,
          "name": "fromBlockNumber",
          "type": "uint256"
        },
        {
          "indexed": false,
          "name": "nominal",
          "type": "int256"
        },
        {
          "indexed": false,
          "name": "discountTiers",
          "type": "int256[]"
        },
        {
          "indexed": false,
          "name": "discountValues",
          "type": "int256[]"
        }
      ],
      "name": "SetPaymentFeeEvent",
      "type": "event"
    },
    {
      "anonymous": false,
      "inputs": [
        {
          "indexed": false,
          "name": "fromBlockNumber",
          "type": "uint256"
        },
        {
          "indexed": false,
          "name": "currencyCt",
          "type": "address"
        },
        {
          "indexed": false,
          "name": "currencyId",
          "type": "uint256"
        },
        {
          "indexed": false,
          "name": "nominal",
          "type": "int256"
        },
        {
          "indexed": false,
          "name": "discountTiers",
          "type": "int256[]"
        },
        {
          "indexed": false,
          "name": "discountValues",
          "type": "int256[]"
        }
      ],
      "name": "SetCurrencyPaymentFeeEvent",
      "type": "event"
    },
    {
      "anonymous": false,
      "inputs": [
        {
          "indexed": false,
          "name": "fromBlockNumber",
          "type": "uint256"
        },
        {
          "indexed": false,
          "name": "nominal",
          "type": "int256"
        }
      ],
      "name": "SetTradeMakerMinimumFeeEvent",
      "type": "event"
    },
    {
      "anonymous": false,
      "inputs": [
        {
          "indexed": false,
          "name": "fromBlockNumber",
          "type": "uint256"
        },
        {
          "indexed": false,
          "name": "nominal",
          "type": "int256"
        }
      ],
      "name": "SetTradeTakerMinimumFeeEvent",
      "type": "event"
    },
    {
      "anonymous": false,
      "inputs": [
        {
          "indexed": false,
          "name": "fromBlockNumber",
          "type": "uint256"
        },
        {
          "indexed": false,
          "name": "nominal",
          "type": "int256"
        }
      ],
      "name": "SetPaymentMinimumFeeEvent",
      "type": "event"
    },
    {
      "anonymous": false,
      "inputs": [
        {
          "indexed": false,
          "name": "fromBlockNumber",
          "type": "uint256"
        },
        {
          "indexed": false,
          "name": "currencyCt",
          "type": "address"
        },
        {
          "indexed": false,
          "name": "currencyId",
          "type": "uint256"
        },
        {
          "indexed": false,
          "name": "nominal",
          "type": "int256"
        }
      ],
      "name": "SetCurrencyPaymentMinimumFeeEvent",
      "type": "event"
    },
    {
      "anonymous": false,
      "inputs": [
        {
          "indexed": false,
          "name": "fromBlockNumber",
          "type": "uint256"
        },
        {
          "indexed": false,
          "name": "referenceCurrencyCt",
          "type": "address"
        },
        {
          "indexed": false,
          "name": "referenceCurrencyId",
          "type": "uint256"
        },
        {
          "indexed": false,
          "name": "feeCurrencyCt",
          "type": "address"
        },
        {
          "indexed": false,
          "name": "feeCurrencyId",
          "type": "uint256"
        }
      ],
      "name": "SetFeeCurrencyEvent",
      "type": "event"
    },
    {
      "anonymous": false,
      "inputs": [
        {
          "indexed": false,
          "name": "fromBlockNumber",
          "type": "uint256"
        },
        {
          "indexed": false,
          "name": "timeoutInSeconds",
          "type": "uint256"
        }
      ],
      "name": "SetWalletLockTimeoutEvent",
      "type": "event"
    },
    {
      "anonymous": false,
      "inputs": [
        {
          "indexed": false,
          "name": "fromBlockNumber",
          "type": "uint256"
        },
        {
          "indexed": false,
          "name": "timeoutInSeconds",
          "type": "uint256"
        }
      ],
      "name": "SetCancelOrderChallengeTimeoutEvent",
      "type": "event"
    },
    {
      "anonymous": false,
      "inputs": [
        {
          "indexed": false,
          "name": "fromBlockNumber",
          "type": "uint256"
        },
        {
          "indexed": false,
          "name": "timeoutInSeconds",
          "type": "uint256"
        }
      ],
      "name": "SetSettlementChallengeTimeoutEvent",
      "type": "event"
    },
    {
      "anonymous": false,
      "inputs": [
        {
          "indexed": false,
          "name": "fromBlockNumber",
          "type": "uint256"
        },
        {
          "indexed": false,
          "name": "stakeFraction",
          "type": "uint256"
        }
      ],
      "name": "SetWalletSettlementStakeFractionEvent",
      "type": "event"
    },
    {
      "anonymous": false,
      "inputs": [
        {
          "indexed": false,
          "name": "fromBlockNumber",
          "type": "uint256"
        },
        {
          "indexed": false,
          "name": "stakeFraction",
          "type": "uint256"
        }
      ],
      "name": "SetOperatorSettlementStakeFractionEvent",
      "type": "event"
    },
    {
      "anonymous": false,
      "inputs": [
        {
          "indexed": false,
          "name": "fromBlockNumber",
          "type": "uint256"
        },
        {
          "indexed": false,
          "name": "stakeAmount",
          "type": "int256"
        },
        {
          "indexed": false,
          "name": "stakeCurrencyCt",
          "type": "address"
        },
        {
          "indexed": false,
          "name": "stakeCurrencyId",
          "type": "uint256"
        }
      ],
      "name": "SetOperatorSettlementStakeEvent",
      "type": "event"
    },
    {
      "anonymous": false,
      "inputs": [
        {
          "indexed": false,
          "name": "fromBlockNumber",
          "type": "uint256"
        },
        {
          "indexed": false,
          "name": "stakeFraction",
          "type": "uint256"
        }
      ],
      "name": "SetFraudStakeFractionEvent",
      "type": "event"
    },
    {
      "anonymous": false,
      "inputs": [
        {
          "indexed": false,
          "name": "earliestSettlementBlockNumber",
          "type": "uint256"
        }
      ],
      "name": "SetEarliestSettlementBlockNumberEvent",
      "type": "event"
    },
    {
      "anonymous": false,
      "inputs": [],
      "name": "DisableEarliestSettlementBlockNumberUpdateEvent",
      "type": "event"
    },
    {
      "anonymous": false,
      "inputs": [
        {
          "indexed": false,
          "name": "timeoutInSeconds",
          "type": "uint256"
        }
      ],
      "name": "ServiceActivationTimeoutEvent",
      "type": "event"
    },
    {
      "anonymous": false,
      "inputs": [
        {
          "indexed": false,
          "name": "service",
          "type": "address"
        }
      ],
      "name": "RegisterServiceEvent",
      "type": "event"
    },
    {
      "anonymous": false,
      "inputs": [
        {
          "indexed": false,
          "name": "service",
          "type": "address"
        },
        {
          "indexed": false,
          "name": "timeout",
          "type": "uint256"
        }
      ],
      "name": "RegisterServiceDeferredEvent",
      "type": "event"
    },
    {
      "anonymous": false,
      "inputs": [
        {
          "indexed": false,
          "name": "service",
          "type": "address"
        }
      ],
      "name": "DeregisterServiceEvent",
      "type": "event"
    },
    {
      "anonymous": false,
      "inputs": [
        {
          "indexed": false,
          "name": "service",
          "type": "address"
        },
        {
          "indexed": false,
          "name": "action",
          "type": "string"
        }
      ],
      "name": "EnableServiceActionEvent",
      "type": "event"
    },
    {
      "anonymous": false,
      "inputs": [
        {
          "indexed": false,
          "name": "service",
          "type": "address"
        },
        {
          "indexed": false,
          "name": "action",
          "type": "string"
        }
      ],
      "name": "DisableServiceActionEvent",
      "type": "event"
    },
    {
      "anonymous": false,
      "inputs": [
        {
          "indexed": false,
          "name": "oldDeployer",
          "type": "address"
        },
        {
          "indexed": false,
          "name": "newDeployer",
          "type": "address"
        }
      ],
      "name": "SetDeployerEvent",
      "type": "event"
    },
    {
      "anonymous": false,
      "inputs": [
        {
          "indexed": false,
          "name": "oldOperator",
          "type": "address"
        },
        {
          "indexed": false,
          "name": "newOperator",
          "type": "address"
        }
      ],
      "name": "SetOperatorEvent",
      "type": "event"
    },
    {
      "anonymous": false,
      "inputs": [
        {
          "indexed": false,
          "name": "wallet",
          "type": "address"
        }
      ],
      "name": "SelfDestructionDisabledEvent",
      "type": "event"
    },
    {
      "anonymous": false,
      "inputs": [
        {
          "indexed": false,
          "name": "wallet",
          "type": "address"
        }
      ],
      "name": "TriggerSelfDestructionEvent",
      "type": "event"
    },
    {
      "constant": false,
      "inputs": [],
      "name": "_reset",
      "outputs": [],
      "payable": false,
      "stateMutability": "nonpayable",
      "type": "function"
    }
  ],
  "bytecode": "0x60806040526004805460ff191690553480156200001b57600080fd5b50604051602080620037a48339810160405251808080600160a060020a03811615156200004757600080fd5b600160a060020a0381163014156200005e57600080fd5b506000805461010060a860020a031916610100600160a060020a039390931692830217815560018054600160a060020a031916909217909155620000b5906005904390640100000000620000d0810262002ce51704565b50620000c964010000000062000148810204565b5062000154565b82541580620001025750825483906000198101908110620000ed57fe5b90600052602060002090600202016000015482115b15156200010e57600080fd5b6040805180820190915291825260208083019182528354600181810186556000958652919094209251600290940290920192835551910155565b6004805460ff19169055565b61364080620001646000396000f3006080604052600436106103555763ffffffff60e060020a6000350416630783e3db811461035a5780630f4e7469146103f357806312e5c6541461042c578063158c1848146104625780631592f0ab1461048957806317ba3f901461049e5780631af78f09146104d35780631b6eb59f146105045780632585f2781461052e57806326c3acc3146105495780632738a11214610564578063273cc25f1461057957806328b5f95c1461059157806328eb2edd146105a657806329ea3faa146105bb5780632b5672e3146105d05780632b91e0a9146106375780632f013a00146106585780633b58c5011461066d5780633b7bea6c146106d45780633b8bba6c146106e957806342399aea146107045780634476d23b1461071f578063460a58aa146107505780634a6cf845146107655780634fd9b0e5146107fc57806350b08c0214610820578063543877301461084157806354f4338014610856578063570ca735146108805780635df1b0a31461089557806363f6e017146108fc5780636c671a52146109935780636c98600c146109ae57806370327ea1146109c957806374bcea6b146109de578063768f594c146109f95780637782284014610a1457806377bad2cf14610a2f5780637e15dd5c14610a4a5780637e86466614610a62578063847bb18214610a86578063854e7fbf14610a9b578063868a674f14610ab057806389eec48614610ac55780638e8cef1214610ada57806393d1243f14610afb578063940b810014610b165780639621473514610b2b5780639699f33714610b4c5780639bbb0ff214610b61578063a329fad514610b76578063ac00d3b214610bc0578063ad08605414610bd5578063b12aa34314610bf0578063b3ab15fb14610c05578063b6bf417614610c26578063b78272e014610c3b578063be18948014610cc5578063c136df8514610cda578063c1959cc514610cef578063c946b6e914610d19578063ccd03d2e14610d2e578063d5f3948814610d69578063d7f0f97114610d7e578063dc7dc62c14610d93578063ecb41ad814610dab578063efda7ffc14610dc3578063f69c70a014610dde578063f71e860f14610df6578063f8b37af014610e0b578063f8e6e88814610eb4578063fbdfd8e714610ec9578063fdd9ec7d14610ede578063fe98a9dc14610eff575b600080fd5b34801561036657600080fd5b5060408051602060046044358181013583810280860185019096528085526103f1958335956024803596369695606495939492019291829185019084908082843750506040805187358901803560208181028481018201909552818452989b9a998901989297509082019550935083925085019084908082843750949750610f1a9650505050505050565b005b3480156103ff57600080fd5b50610408611040565b6040518082600181111561041857fe5b60ff16815260200191505060405180910390f35b34801561043857600080fd5b50610450600160a060020a0360043516602435611049565b60408051918252519081900360200190f35b34801561046e57600080fd5b50610450600435600160a060020a0360243516604435611083565b34801561049557600080fd5b506103f16110fa565b3480156104aa57600080fd5b506104bf600160a060020a0360043516611106565b604080519115158252519081900360200190f35b3480156104df57600080fd5b506103f1600435600160a060020a03602435811690604435906064351660843561113e565b34801561051057600080fd5b50610450600435600160a060020a0360243516604435606435611221565b34801561053a57600080fd5b506103f16004356024356112a2565b34801561055557600080fd5b50610450600435602435611334565b34801561057057600080fd5b506103f1611348565b34801561058557600080fd5b506104506004356113aa565b34801561059d57600080fd5b506104506113bd565b3480156105b257600080fd5b506104506113cf565b3480156105c757600080fd5b506104506113db565b3480156105dc57600080fd5b5060408051602060046024803582810135601f81018590048502860185019096528585526103f1958335600160a060020a03169536956044949193909101919081908401838280828437509497506113e79650505050505050565b34801561064357600080fd5b506104bf600160a060020a0360043516611582565b34801561066457600080fd5b506104bf6115a0565b34801561067957600080fd5b5060408051602060046024803582810135601f81018590048502860185019096528585526103f1958335600160a060020a03169536956044949193909101919081908401838280828437509497506115a99650505050505050565b3480156106e057600080fd5b506104506116be565b3480156106f557600080fd5b506103f16004356024356116c4565b34801561071057600080fd5b506103f1600435602435611756565b34801561072b57600080fd5b506107346117e8565b60408051600160a060020a039092168252519081900360200190f35b34801561075c57600080fd5b506104506117fc565b34801561077157600080fd5b5060408051602060046044358181013583810280860185019096528085526103f1958335956024803596369695606495939492019291829185019084908082843750506040805187358901803560208181028481018201909552818452989b9a9989019892975090820195509350839250850190849080828437509497506118089650505050505050565b34801561080857600080fd5b50610450600160a060020a03600435166024356118d0565b34801561082c57600080fd5b506103f1600160a060020a03600435166118fc565b34801561084d57600080fd5b506104506119bb565b34801561086257600080fd5b506103f1600435602435600160a060020a03604435166064356119c7565b34801561088c57600080fd5b50610734611aa8565b3480156108a157600080fd5b5060408051602060046024803582810135601f81018590048502860185019096528585526104bf958335600160a060020a0316953695604494919390910191908190840183828082843750949750611ab79650505050505050565b34801561090857600080fd5b5060408051602060046044358181013583810280860185019096528085526103f1958335956024803596369695606495939492019291829185019084908082843750506040805187358901803560208181028481018201909552818452989b9a998901989297509082019550935083925085019084908082843750949750611b099650505050505050565b34801561099f57600080fd5b506103f1600435602435611bd1565b3480156109ba57600080fd5b50610450600435602435611c63565b3480156109d557600080fd5b506103f1611c77565b3480156109ea57600080fd5b506103f1600435602435611cd5565b348015610a0557600080fd5b506103f1600435602435611d67565b348015610a2057600080fd5b506103f1600435602435611df9565b348015610a3b57600080fd5b506103f1600435602435611e8b565b348015610a5657600080fd5b506103f1600435611f1d565b348015610a6e57600080fd5b50610450600160a060020a0360043516602435611f6b565b348015610a9257600080fd5b50610450611f97565b348015610aa757600080fd5b50610450611fa3565b348015610abc57600080fd5b50610450611faf565b348015610ad157600080fd5b50610450611fbb565b348015610ae657600080fd5b506103f1600160a060020a0360043516611fc7565b348015610b0757600080fd5b506103f160043560243561205d565b348015610b2257600080fd5b506104506120ef565b348015610b3757600080fd5b506103f1600160a060020a03600435166120fb565b348015610b5857600080fd5b506104506121c7565b348015610b6d57600080fd5b506103f16121d3565b348015610b8257600080fd5b50610b9d600435600160a060020a036024351660443561221e565b60408051600160a060020a03909316835260208301919091528051918290030190f35b348015610bcc57600080fd5b50610450612275565b348015610be157600080fd5b50610450600435602435612281565b348015610bfc57600080fd5b50610450612295565b348015610c1157600080fd5b506103f1600160a060020a03600435166122a1565b348015610c3257600080fd5b5061045061235e565b348015610c4757600080fd5b50610c50612364565b6040805160208082528351818301528351919283929083019185019080838360005b83811015610c8a578181015183820152602001610c72565b50505050905090810190601f168015610cb75780820380516001836020036101000a031916815260200191505b509250505060405180910390f35b348015610cd157600080fd5b506104bf612391565b348015610ce657600080fd5b506104506123ae565b348015610cfb57600080fd5b506103f1600435600160a060020a03602435166044356064356123ba565b348015610d2557600080fd5b50610450612484565b348015610d3a57600080fd5b50610d43612490565b60408051938452600160a060020a03909216602084015282820152519081900360600190f35b348015610d7557600080fd5b506107346124c3565b348015610d8a57600080fd5b506104bf6124d7565b348015610d9f57600080fd5b506104506004356124e0565b348015610db757600080fd5b506104506004356124f3565b348015610dcf57600080fd5b506103f1600435602435612506565b348015610dea57600080fd5b506103f1600435612598565b348015610e0257600080fd5b506104bf6125e6565b348015610e1757600080fd5b5060408051602060046084358181013583810280860185019096528085526103f19583359560248035600160a060020a03169660443596606435963696919560a495949091019282919085019084908082843750506040805187358901803560208181028481018201909552818452989b9a9989019892975090820195509350839250850190849080828437509497506126019650505050505050565b348015610ec057600080fd5b506103f161276d565b348015610ed557600080fd5b506104506127e4565b348015610eea57600080fd5b506103f1600160a060020a03600435166127f0565b348015610f0b57600080fd5b506103f160043560243561287a565b610f2261290c565b1515610f2d57600080fd5b83610f38600561291d565b1580610f4f5750610f496005612921565b43018110155b1515610f5a57600080fd5b610f6e60078686868663ffffffff61292d16565b7f8ec36e523af9a3433562968ade78ee302be3c4306c6815d30bc17fbc6f658f4485858585604051808581526020018481526020018060200180602001838103835285818151815260200191508051906020019060200280838360005b83811015610fe3578181015183820152602001610fcb565b50505050905001838103825284818151815260200191508051906020019060200280838360005b8381101561102257818101518382015260200161100a565b50505050905001965050505050505060405180910390a15050505050565b60045460ff1681565b600061107c604080519081016040528085600160a060020a0316815260200184815250600f6129f690919063ffffffff16565b9392505050565b600160a060020a0382166000908152600e6020908152604080832084845290915281206110af9061291d565b600010156110f157600160a060020a0383166000908152600e6020908152604080832085845290915290206110ea908563ffffffff612a2016565b905061107c565b6110ea846113aa565b6004805460ff19169055565b600061111182611582565b80156111385750600160a060020a0382166000908152600260205260409020600101544210155b92915050565b61114661290c565b151561115157600080fd5b8461115c600561291d565b1580611173575061116d6005612921565b43018110155b151561117e57600080fd5b604080518082018252600160a060020a03808816825260208083018890528351808501909452908616835282018490526111c291600f91899163ffffffff612a3716565b60408051878152600160a060020a038088166020830152818301879052851660608201526080810184905290517fd6db40c81246b0bc2d29bb51b5d58d3e36502ac9898ab35237d4136a5172c2b29181900360a00190a1505050505050565b600160a060020a0383166000908152600a60209081526040808320858452909152812061124d9061291d565b6000101561129057600160a060020a0384166000908152600a60209081526040808320868452909152902061128990868463ffffffff612b5316565b905061129a565b6112898583612281565b949350505050565b6112aa61290c565b15156112b557600080fd5b816112c0600561291d565b15806112d757506112d16005612921565b43018110155b15156112e257600080fd5b6112f4600d848463ffffffff612ce516565b604080518481526020810184905281517f8db08e27454fa2b4fb1a49c88f48d25b6561af54f240ad2f3beb4887830f1e9d929181900390910190a1505050565b600061107c6007848463ffffffff612b5316565b336113516117e8565b600160a060020a03161461136457600080fd5b60005460ff161561137457600080fd5b6040805133815290517f787a5d936e74f4b564b9153575886059829c78cd9927b1be5e0d976b317ef7369181900360200190a133ff5b6000611138600d8363ffffffff612a2016565b60006113c96014612921565b90505b90565b60006113c9600d61291d565b60006113c96010612921565b60006113f1612d5a565b15156113fc57600080fd5b82600160a060020a038116151561141257600080fd5b600160a060020a03811630141561142857600080fd5b600160a060020a03841660009081526002602052604090205460ff16151561144f57600080fd5b61145883612d70565b600160a060020a0385166000908152600260208181526040808420858552909201905290205490925060ff161561148e57600080fd5b600160a060020a03841660008181526002602081815260408084208785528084018352818520805460ff19166001908117909155938352600301805493840181558452818420909201869055815193845283810182815287519285019290925286517fec1b982d69bfc1a6fd8becf191d9a633486c822d3bdedd52303ca81fa635750194899489949193919260608501928601918190849084905b83811015611541578181015183820152602001611529565b50505050905090810190601f16801561156e5780820380516001836020036101000a031916815260200191505b50935050505060405180910390a150505050565b600160a060020a031660009081526002602052604090205460ff1690565b60005460ff1681565b60006115b3612d5a565b15156115be57600080fd5b82600160a060020a03811615156115d457600080fd5b600160a060020a0381163014156115ea57600080fd5b6115f383612d70565b600160a060020a0385166000908152600260208181526040808420858552909201905290205490925060ff16151561162a57600080fd5b600160a060020a03841660008181526002602081815260408084208785529092018152818320805460ff19169055815193845283810182815287519285019290925286517f92f4af6130f47c92f3899e06611c8c6ef191fb81207ad2675d134af619d2fe7d948994899491939192606085019286019181908490849083811015611541578181015183820152602001611529565b60035481565b6116cc61290c565b15156116d757600080fd5b816116e2600561291d565b15806116f957506116f36005612921565b43018110155b151561170457600080fd5b6117166010848463ffffffff612ce516565b604080518481526020810184905281517f599f1c845a3e9ff375e1e3c7e61a6ff2faac7ed7e9cc45db40fd2b73f5384504929181900390910190a1505050565b61175e61290c565b151561176957600080fd5b81611774600561291d565b158061178b57506117856005612921565b43018110155b151561179657600080fd5b6117a86014848463ffffffff612ce516565b604080518481526020810184905281517f46627504a56b77179118cc2fc2139516c5abaa99efc1d64afa509f91be130c45929181900390910190a1505050565b6000546101009004600160a060020a031690565b60006113c96006612921565b61181061290c565b151561181b57600080fd5b83611826600561291d565b158061183d57506118376005612921565b43018110155b151561184857600080fd5b61185c60098686868663ffffffff61292d16565b7f8dcd79c2f73c725f825147941deccba2addafb9f7f2e775777710f5debba9668858585856040518085815260200184815260200180602001806020018381038352858181518152602001915080519060200190602002808383600083811015610fe3578181015183820152602001610fcb565b600160a060020a0382166000908152600e60209081526040808320848452909152812061107c9061291d565b611904612d5a565b151561190f57600080fd5b80600160a060020a038116151561192557600080fd5b600160a060020a03811630141561193b57600080fd5b600160a060020a03821660009081526002602052604090205460ff16151561196257600080fd5b600160a060020a038216600081815260026020908152604091829020805460ff19169055815192835290517f777645c5437dfbf962f57a281ead25f3d513f2f8e938685bbfc1738e81c9880e9281900390910190a15050565b60006113c9600b61291d565b6119cf613517565b6119d761290c565b15156119e257600080fd5b846119ed600561291d565b1580611a0457506119fe6005612921565b43018110155b1515611a0f57600080fd5b6040805180820182528681528151808301909252600160a060020a038616825260208281018690528101919091529150611a516016878463ffffffff612e5516565b6040805187815260208101879052600160a060020a038616818301526060810185905290517f0446e894f61064d2b9ac2f66e25bc440e0bcb2c00de07a5f1b076b8ed83efa919181900360800190a1505050505050565b600154600160a060020a031681565b600080611ac383612d70565b9050611ace84611106565b8015611aff5750600160a060020a0384166000908152600260208181526040808420858552909201905290205460ff165b91505b5092915050565b611b1161290c565b1515611b1c57600080fd5b83611b27600561291d565b1580611b3e5750611b386005612921565b43018110155b1515611b4957600080fd5b611b5d60088686868663ffffffff61292d16565b7fd3143532264a48ed8985128261dac4f97460a18e532266606874e734e5f95119858585856040518085815260200184815260200180602001806020018381038352858181518152602001915080519060200190602002808383600083811015610fe3578181015183820152602001610fcb565b611bd961290c565b1515611be457600080fd5b81611bef600561291d565b1580611c065750611c006005612921565b43018110155b1515611c1157600080fd5b611c23600c848463ffffffff612ce516565b604080518481526020810184905281517f4c67330f24d50310990ba512d41f5016c43176108456cdf8b3afa5f2c56c72e1929181900390910190a1505050565b600061107c6008848463ffffffff612b5316565b33611c806117e8565b600160a060020a031614611c9357600080fd5b6000805460ff191660011790556040805133815290517fd5a2a04a775c741c2ca0dc46ea7ce4835190e1aaf1ca018def0e82568ec336169181900360200190a1565b611cdd61290c565b1515611ce857600080fd5b81611cf3600561291d565b1580611d0a5750611d046005612921565b43018110155b1515611d1557600080fd5b611d276015848463ffffffff612ce516565b604080518481526020810184905281517f89d1e4eeae3e50e6d57909b1ff05821c208283d43c3c6eede3463fce9801bcbf929181900390910190a1505050565b611d6f61290c565b1515611d7a57600080fd5b81611d85600561291d565b1580611d9c5750611d966005612921565b43018110155b1515611da757600080fd5b611db96012848463ffffffff612ce516565b604080518481526020810184905281517ffaae0268144aeab0eb789ad33da1cc7f926da22cdc4cfb89e4c2dcc87cf71924929181900390910190a1505050565b611e0161290c565b1515611e0c57600080fd5b81611e17600561291d565b1580611e2e5750611e286005612921565b43018110155b1515611e3957600080fd5b611e4b6005848463ffffffff612ce516565b604080518481526020810184905281517fb18e0b90fd56f3d1f73c768d7f107937813899fe6676f8348f996ad670b99004929181900390910190a1505050565b611e9361290c565b1515611e9e57600080fd5b81611ea9600561291d565b1580611ec05750611eba6005612921565b43018110155b1515611ecb57600080fd5b611edd6013848463ffffffff612ce516565b604080518481526020810184905281517fb04162ce72310207d5c9ceced2e6df3ddd15272642b0e53af3c7e83f0d0dc491929181900390910190a1505050565b611f25612d5a565b1515611f3057600080fd5b60038190556040805182815290517f4f1d324a1cbffc352fb64f1d73d95e4b200d92f99ef39bf2d7f5b41f946909d69181900360200190a150565b600160a060020a0382166000908152600a60209081526040808320848452909152812061107c9061291d565b60006113c9600861291d565b60006113c9600561291d565b60006113c9600961291d565b60006113c9600c61291d565b611fcf612d5a565b1515611fda57600080fd5b80600160a060020a0381161515611ff057600080fd5b600160a060020a03811630141561200657600080fd5b61201282600354612f02565b60035460408051600160a060020a0385168152602081019290925280517f7f3a8349917003ed377f6e9ae1608b92edd893903f8983bd274b1f8373dd3b119281900390910190a15050565b61206561290c565b151561207057600080fd5b8161207b600561291d565b1580612092575061208c6005612921565b43018110155b151561209d57600080fd5b6120af6011848463ffffffff612ce516565b604080518481526020810184905281517f081f0b4c81d1de8d02805cc089a2d5a665837d8c19b438f4558128149df8fcfc929181900390910190a1505050565b60006113c96011612921565b6000612105612d5a565b151561211057600080fd5b81600160a060020a038116151561212657600080fd5b600160a060020a03811630141561213c57600080fd5b600054600160a060020a0384811661010090920416146121c25760008054600160a060020a0385811661010081810261010060a860020a0319851617909455604080519490930491909116808452602084019190915281519094507f977e5fa58e458501775e0008d275006294c5249e3c08d1d0e3a9f3acad14f6e49281900390910190a15b505050565b60006113c96013612921565b6121db61290c565b15156121e657600080fd5b6018805460ff191660011790556040517f99d6c8c83d6b3086e44ac9a4cff201904eb96dc84e20289516e1d6d5f387d30c90600090a1565b6000806000612256604080519081016040528087600160a060020a031681526020018681525087600f612f549092919063ffffffff16565b8054600190910154600160a060020a0390911697909650945050505050565b60006113c96015612921565b600061107c6009848463ffffffff612b5316565b60006113c9600761291d565b60006122ab61290c565b15156122b657600080fd5b81600160a060020a03811615156122cc57600080fd5b600160a060020a0381163014156122e257600080fd5b600154600160a060020a038481169116146121c25760018054600160a060020a03858116600160a060020a0319831681179093556040805191909216808252602082019390935281519294507f9f611b789425d0d5b90b920f1b2852907dd865c80074a30b1629aaa041d1812c929081900390910190a1505050565b60175481565b6040805180820190915260108152608060020a6f6f7065726174696f6e616c5f6d6f646502602082015281565b60045460009060ff1660018111156123a557fe5b60015b14905090565b60006113c9600661291d565b6123c261290c565b15156123cd57600080fd5b836123d8600561291d565b15806123ef57506123e96005612921565b43018110155b15156123fa57600080fd5b600160a060020a0384166000908152600e60209081526040808320868452909152902061242e90868463ffffffff612ce516565b60408051868152600160a060020a03861660208201528082018590526060810184905290517ffed51dfd288a74f4e3f4fd59cad1bb9151c6f8e27c781c703ce6ea532e3deac29181900360800190a15050505050565b60006113c96005612921565b6000806000806124a06016612f6c565b805460018201546002909201549096600160a060020a0390921695509350915050565b6000546101009004600160a060020a031681565b60185460ff1681565b6000611138600b8363ffffffff612a2016565b6000611138600c8363ffffffff612a2016565b61250e61290c565b151561251957600080fd5b81612524600561291d565b158061253b57506125356005612921565b43018110155b151561254657600080fd5b612558600b848463ffffffff612ce516565b604080518481526020810184905281517f3fb8054aedc542a59b81ca6dd84e6ed5a0f62964ea31cb27f2d61d7f36f2a342929181900390910190a1505050565b6125a061290c565b15156125ab57600080fd5b60178190556040805182815290517fece7c57702b5ad94b9848802d1e225954b064cd5538fd55082e3e29c29474e459181900360200190a150565b60045460009060ff1660018111156125fa57fe5b60006123a8565b61260961290c565b151561261457600080fd5b8561261f600561291d565b158061263657506126306005612921565b43018110155b151561264157600080fd5b600160a060020a0386166000908152600a602090815260408083208884529091529020612677908886868663ffffffff61292d16565b7ff3fafbde2ad0fcd494a4d98dbde01b8571066edaa67de40a48d794b0583efd0a8787878787876040518087815260200186600160a060020a0316600160a060020a031681526020018581526020018481526020018060200180602001838103835285818151815260200191508051906020019060200280838360005b8381101561270c5781810151838201526020016126f4565b50505050905001838103825284818151815260200191508051906020019060200280838360005b8381101561274b578181015183820152602001612733565b505050509050019850505050505050505060405180910390a150505050505050565b6040805180820190915260108152608060020a6f6f7065726174696f6e616c5f6d6f64650260208201526127a13382611ab7565b15156127ac57600080fd5b6004805460ff191660011790556040517e4feb6c9c7b4bc8e858a1e16b46315cd121d46eb476f1d2a0b79c1508b89e3290600090a150565b60006113c96012612921565b6127f8612d5a565b151561280357600080fd5b80600160a060020a038116151561281957600080fd5b600160a060020a03811630141561282f57600080fd5b61283a826000612f02565b60408051600160a060020a038416815290517fb619d545cb511bd5f02907a1eac4f4cb8dace7b1846852fb0bf5e553937481c19181900360200190a15050565b61288261290c565b151561288d57600080fd5b81612898600561291d565b15806128af57506128a96005612921565b43018110155b15156128ba57600080fd5b6128cc6006848463ffffffff612ce516565b604080518481526020810184905281517febf63d40c9708ad4550ba5278373615a245fcf66e7b70faf9e6b8b90396fa2c8929181900390910190a1505050565b600154600160a060020a0316331490565b5490565b60006111388243612f78565b6000808251845114151561294057600080fd5b61294b878787612f84565b86548790600019810190811061295d57fe5b90600052602060002090600302019150600090505b83518110156129ed57816002016040805190810160405280868481518110151561299857fe5b90602001906020020151815260200185848151811015156129b557fe5b602090810290910181015190915282546001818101855560009485529382902083516002909202019081559101519082015501612972565b50505050505050565b8051600160a060020a03166000908152602092835260408082209284015182529190925290205490565b6000612a2c8383613001565b602001519392505050565b8151600160a060020a03166000908152602085815260408083208286015184529091529020541580612aca57508151600160a060020a039081166000908152602086815260408083208287018051855290835281842087519095168452888352818420905184529091529020548154600019909101908110612ab557fe5b90600052602060002090600302016000015483115b1515612ad557600080fd5b8151600160a060020a0390811660009081526020958652604080822094870151825293865283812084518086019095529484528386019283528454600180820187559582529086902093516003909102909301928355905180519383018054600160a060020a03191694909216939093179055910151600290910155565b6000612b5d613537565b6000612b698686613053565b915081604001515160001015612cd457612b87826040015185613111565b90508060001015612cd457612ccd73__ConstantsLib__________________________62a123336040518163ffffffff1660e060020a02815260040160206040518083038186803b158015612bdb57600080fd5b505af4158015612bef573d6000803e3d6000fd5b505050506040513d6020811015612c0557600080fd5b505160408401518051612cc191612cb0916000198701908110612c2457fe5b906020019060200201516020015173__ConstantsLib__________________________62a123336040518163ffffffff1660e060020a02815260040160206040518083038186803b158015612c7857600080fd5b505af4158015612c8c573d6000803e3d6000fd5b505050506040513d6020811015612ca257600080fd5b50519063ffffffff61316e16565b60208601519063ffffffff6131aa16565b9063ffffffff61321316565b9250612cdc565b816020015192505b50509392505050565b82541580612d155750825483906000198101908110612d0057fe5b90600052602060002090600202016000015482115b1515612d2057600080fd5b6040805180820190915291825260208083019182528354600181810186556000958652919094209251600290940290920192835551910155565b6000546101009004600160a060020a0316331490565b6000816040516020018082805190602001908083835b60208310612da55780518252601f199092019160209182019101612d86565b6001836020036101000a0380198251168184511680821785525050505050509050019150506040516020818303038152906040526040518082805190602001908083835b60208310612e085780518252601f199092019160209182019101612de9565b5181516020939093036101000a6000190180199091169216919091179052604051920182900390912095945050505050565b82541580612d155750825483906000198101908110612d0057fe5b82541580612e855750825483906000198101908110612e7057fe5b90600052602060002090600402016000015482115b1515612e9057600080fd5b604080518082019091529182526020808301918252835460018082018655600095865294829020935160049091029093019283559051805193830193909355918201518051600283018054600160a060020a031916600160a060020a0390921691909117905590910151600390910155565b600160a060020a03821660009081526002602052604090205460ff161515612f5057600160a060020a0382166000908152600260205260409020805460ff1916600190811782554283019101555b5050565b6000612f61848484613248565b600101949350505050565b60006111388243613299565b6000612a2c83836132af565b82546000901580612fb75750835484906000198101908110612fa257fe5b90600052602060002090600302016000015483115b1515612fc257600080fd5b8354612fd18560018301613559565b50835484906000198101908110612fe457fe5b600091825260209091206003909102019283555060019091015550565b613009613585565b8261301481846132c2565b8154811061301e57fe5b906000526020600020906002020160408051908101604052908160008201548152602001600182015481525050905092915050565b61305b613537565b82613066818461331a565b8154811061307057fe5b906000526020600020906003020160606040519081016040529081600082015481526020016001820154815260200160028201805480602002602001604051908101604052809291908181526020016000905b828210156131025760008481526020908190206040805180820190915260028502909101805482526001908101548284015290835290920191016130c3565b50505091525090949350505050565b6000808351600010151561312457600080fd5b5082515b600081111561316457836001820381518110151561314257fe5b6020908102909101015151831261315b57809150611b02565b60001901613128565b5060009392505050565b600080821215801561318257508282840313155b806131995750600082128015613199575082828403135b15156131a457600080fd5b50900390565b600080836000191415806131c2575060ff60020a8314155b15156131cd57600080fd5b826000191415806131e2575060ff60020a8414155b15156131ed57600080fd5b50828202821580613208575083838281151561320557fe5b05145b151561107c57600080fd5b600060ff60020a8314158061322a57508160001914155b151561323557600080fd5b818381151561324057fe5b059392505050565b8151600160a060020a03166000908152602084815260408083208286015184529091528120613278858585613372565b8154811061328257fe5b906000526020600020906003020190509392505050565b60006132a5838361343a565b6001019392505050565b6132b7613585565b826130148184613467565b8154600090819081106132d457600080fd5b508254600019015b600081106103555783548490829081106132f257fe5b6000918252602090912060029091020154831061331157809150611b02565b600019016132dc565b81546000908190811061332c57600080fd5b508254600019015b6000811061035557835484908290811061334a57fe5b6000918252602090912060039091020154831061336957809150611b02565b60001901613334565b8151600160a060020a0316600090815260208481526040808320828601518452909152812054819081106133a557600080fd5b508251600160a060020a0316600090815260208581526040808320828701518452909152902054600019015b60008110610355578351600160a060020a0316600090815260208681526040808320828801518452909152902080548290811061340a57fe5b6000918252602090912060039091020154831061342957809150613432565b600019016133d1565b509392505050565b60008261344781846134bf565b8154811061345157fe5b9060005260206000209060040201905092915050565b81546000908190811061347957600080fd5b508254600019015b6000811061035557835484908290811061349757fe5b600091825260209091206002909102015483106134b657809150611b02565b60001901613481565b8154600090819081106134d157600080fd5b508254600019015b600081106103555783548490829081106134ef57fe5b6000918252602090912060049091020154831061350e57809150611b02565b600019016134d9565b60606040519081016040528060008152602001613532613585565b905290565b6060604051908101604052806000815260200160008152602001606081525090565b8154818355818111156121c2576003028160030283600052602060002091820191016121c2919061359c565b604080518082019091526000808252602082015290565b6113cc91905b808211156135cc576000808255600182018190556135c360028301826135d0565b506003016135a2565b5090565b50805460008255600202906000526020600020908101906135f191906135f4565b50565b6113cc91905b808211156135cc57600080825560018201556002016135fa5600a165627a7a72305820cd81825eada08b2e9c9558f587f84c69566520b4434e2afca3acae8b24deb2eb0029",
  "source": "/*\n * Hubii Nahmii\n *\n * Compliant with the Hubii Nahmii specification v0.12.\n *\n * Copyright (C) 2017-2018 Hubii AS\n */\n\npragma solidity ^0.4.25;\n\nimport {Configuration} from \"../Configuration.sol\";\n\n/**\n * @title MockedConfiguration\n * @notice Mocked implementation of configuration contract\n */\ncontract MockedConfiguration is Configuration {\n    //\n    // Constructor\n    // -----------------------------------------------------------------------------------------------------------------\n    constructor(address owner) public Configuration(owner) {\n        _reset();\n    }\n\n    //\n    // Functions\n    // -----------------------------------------------------------------------------------------------------------------\n    function _reset()\n    public\n    {\n        operationalMode = OperationalMode.Normal;\n    }\n}\n",
  "sourcePath": "/opt/buildagent/work/855e104608380c36/contracts/test/MockedConfiguration.sol",
  "compiler": {
    "name": "solc",
    "version": "0.4.25+commit.59dbf8f1.Emscripten.clang"
  },
  "schemaVersion": "2.0.2",
  "updatedAt": "2019-04-02T08:24:32.061Z"
}