{
  "contractName": "MockedCancelOrdersChallenge",
  "abi": [
    {
      "inputs": [],
      "payable": false,
      "stateMutability": "nonpayable",
      "type": "constructor"
    },
    {
      "anonymous": false,
      "inputs": [
        {
          "indexed": false,
          "internalType": "bytes32[]",
          "name": "orders",
          "type": "bytes32[]"
        },
        {
          "indexed": false,
          "internalType": "address",
          "name": "wallet",
          "type": "address"
        }
      ],
      "name": "CancelOrdersByHashEvent",
      "type": "event"
    },
    {
      "anonymous": false,
      "inputs": [
        {
          "components": [
            {
              "internalType": "uint256",
              "name": "nonce",
              "type": "uint256"
            },
            {
              "internalType": "address",
              "name": "wallet",
              "type": "address"
            },
            {
              "components": [
                {
                  "internalType": "enum TradeTypesLib.Intention",
                  "name": "intention",
                  "type": "uint8"
                },
                {
                  "internalType": "int256",
                  "name": "amount",
                  "type": "int256"
                },
                {
                  "components": [
                    {
                      "components": [
                        {
                          "internalType": "address",
                          "name": "ct",
                          "type": "address"
                        },
                        {
                          "internalType": "uint256",
                          "name": "id",
                          "type": "uint256"
                        }
                      ],
                      "internalType": "struct MonetaryTypesLib.Currency",
                      "name": "intended",
                      "type": "tuple"
                    },
                    {
                      "components": [
                        {
                          "internalType": "address",
                          "name": "ct",
                          "type": "address"
                        },
                        {
                          "internalType": "uint256",
                          "name": "id",
                          "type": "uint256"
                        }
                      ],
                      "internalType": "struct MonetaryTypesLib.Currency",
                      "name": "conjugate",
                      "type": "tuple"
                    }
                  ],
                  "internalType": "struct NahmiiTypesLib.IntendedConjugateCurrency",
                  "name": "currencies",
                  "type": "tuple"
                },
                {
                  "internalType": "int256",
                  "name": "rate",
                  "type": "int256"
                },
                {
                  "components": [
                    {
                      "internalType": "int256",
                      "name": "current",
                      "type": "int256"
                    },
                    {
                      "internalType": "int256",
                      "name": "previous",
                      "type": "int256"
                    }
                  ],
                  "internalType": "struct NahmiiTypesLib.CurrentPreviousInt256",
                  "name": "residuals",
                  "type": "tuple"
                }
              ],
              "internalType": "struct TradeTypesLib.OrderPlacement",
              "name": "placement",
              "type": "tuple"
            },
            {
              "components": [
                {
                  "components": [
                    {
                      "internalType": "bytes32",
                      "name": "hash",
                      "type": "bytes32"
                    },
                    {
                      "components": [
                        {
                          "internalType": "bytes32",
                          "name": "r",
                          "type": "bytes32"
                        },
                        {
                          "internalType": "bytes32",
                          "name": "s",
                          "type": "bytes32"
                        },
                        {
                          "internalType": "uint8",
                          "name": "v",
                          "type": "uint8"
                        }
                      ],
                      "internalType": "struct NahmiiTypesLib.Signature",
                      "name": "signature",
                      "type": "tuple"
                    }
                  ],
                  "internalType": "struct NahmiiTypesLib.Seal",
                  "name": "wallet",
                  "type": "tuple"
                },
                {
                  "components": [
                    {
                      "internalType": "bytes32",
                      "name": "hash",
                      "type": "bytes32"
                    },
                    {
                      "components": [
                        {
                          "internalType": "bytes32",
                          "name": "r",
                          "type": "bytes32"
                        },
                        {
                          "internalType": "bytes32",
                          "name": "s",
                          "type": "bytes32"
                        },
                        {
                          "internalType": "uint8",
                          "name": "v",
                          "type": "uint8"
                        }
                      ],
                      "internalType": "struct NahmiiTypesLib.Signature",
                      "name": "signature",
                      "type": "tuple"
                    }
                  ],
                  "internalType": "struct NahmiiTypesLib.Seal",
                  "name": "operator",
                  "type": "tuple"
                }
              ],
              "internalType": "struct NahmiiTypesLib.WalletOperatorSeal",
              "name": "seals",
              "type": "tuple"
            },
            {
              "internalType": "uint256",
              "name": "blockNumber",
              "type": "uint256"
            },
            {
              "internalType": "uint256",
              "name": "operatorId",
              "type": "uint256"
            }
          ],
          "indexed": false,
          "internalType": "struct TradeTypesLib.Order[]",
          "name": "orders",
          "type": "tuple[]"
        },
        {
          "indexed": false,
          "internalType": "address",
          "name": "wallet",
          "type": "address"
        }
      ],
      "name": "CancelOrdersEvent",
      "type": "event"
    },
    {
      "constant": false,
      "inputs": [],
      "name": "_reset",
      "outputs": [],
      "payable": false,
      "stateMutability": "nonpayable",
      "type": "function"
    },
    {
      "constant": false,
      "inputs": [
        {
          "components": [
            {
              "internalType": "uint256",
              "name": "nonce",
              "type": "uint256"
            },
            {
              "internalType": "address",
              "name": "wallet",
              "type": "address"
            },
            {
              "components": [
                {
                  "internalType": "enum TradeTypesLib.Intention",
                  "name": "intention",
                  "type": "uint8"
                },
                {
                  "internalType": "int256",
                  "name": "amount",
                  "type": "int256"
                },
                {
                  "components": [
                    {
                      "components": [
                        {
                          "internalType": "address",
                          "name": "ct",
                          "type": "address"
                        },
                        {
                          "internalType": "uint256",
                          "name": "id",
                          "type": "uint256"
                        }
                      ],
                      "internalType": "struct MonetaryTypesLib.Currency",
                      "name": "intended",
                      "type": "tuple"
                    },
                    {
                      "components": [
                        {
                          "internalType": "address",
                          "name": "ct",
                          "type": "address"
                        },
                        {
                          "internalType": "uint256",
                          "name": "id",
                          "type": "uint256"
                        }
                      ],
                      "internalType": "struct MonetaryTypesLib.Currency",
                      "name": "conjugate",
                      "type": "tuple"
                    }
                  ],
                  "internalType": "struct NahmiiTypesLib.IntendedConjugateCurrency",
                  "name": "currencies",
                  "type": "tuple"
                },
                {
                  "internalType": "int256",
                  "name": "rate",
                  "type": "int256"
                },
                {
                  "components": [
                    {
                      "internalType": "int256",
                      "name": "current",
                      "type": "int256"
                    },
                    {
                      "internalType": "int256",
                      "name": "previous",
                      "type": "int256"
                    }
                  ],
                  "internalType": "struct NahmiiTypesLib.CurrentPreviousInt256",
                  "name": "residuals",
                  "type": "tuple"
                }
              ],
              "internalType": "struct TradeTypesLib.OrderPlacement",
              "name": "placement",
              "type": "tuple"
            },
            {
              "components": [
                {
                  "components": [
                    {
                      "internalType": "bytes32",
                      "name": "hash",
                      "type": "bytes32"
                    },
                    {
                      "components": [
                        {
                          "internalType": "bytes32",
                          "name": "r",
                          "type": "bytes32"
                        },
                        {
                          "internalType": "bytes32",
                          "name": "s",
                          "type": "bytes32"
                        },
                        {
                          "internalType": "uint8",
                          "name": "v",
                          "type": "uint8"
                        }
                      ],
                      "internalType": "struct NahmiiTypesLib.Signature",
                      "name": "signature",
                      "type": "tuple"
                    }
                  ],
                  "internalType": "struct NahmiiTypesLib.Seal",
                  "name": "wallet",
                  "type": "tuple"
                },
                {
                  "components": [
                    {
                      "internalType": "bytes32",
                      "name": "hash",
                      "type": "bytes32"
                    },
                    {
                      "components": [
                        {
                          "internalType": "bytes32",
                          "name": "r",
                          "type": "bytes32"
                        },
                        {
                          "internalType": "bytes32",
                          "name": "s",
                          "type": "bytes32"
                        },
                        {
                          "internalType": "uint8",
                          "name": "v",
                          "type": "uint8"
                        }
                      ],
                      "internalType": "struct NahmiiTypesLib.Signature",
                      "name": "signature",
                      "type": "tuple"
                    }
                  ],
                  "internalType": "struct NahmiiTypesLib.Seal",
                  "name": "operator",
                  "type": "tuple"
                }
              ],
              "internalType": "struct NahmiiTypesLib.WalletOperatorSeal",
              "name": "seals",
              "type": "tuple"
            },
            {
              "internalType": "uint256",
              "name": "blockNumber",
              "type": "uint256"
            },
            {
              "internalType": "uint256",
              "name": "operatorId",
              "type": "uint256"
            }
          ],
          "internalType": "struct TradeTypesLib.Order[]",
          "name": "orders",
          "type": "tuple[]"
        }
      ],
      "name": "cancelOrders",
      "outputs": [],
      "payable": false,
      "stateMutability": "nonpayable",
      "type": "function"
    },
    {
      "constant": false,
      "inputs": [
        {
          "internalType": "bytes32[]",
          "name": "orderHashes",
          "type": "bytes32[]"
        }
      ],
      "name": "cancelOrdersByHash",
      "outputs": [],
      "payable": false,
      "stateMutability": "nonpayable",
      "type": "function"
    },
    {
      "constant": true,
      "inputs": [
        {
          "internalType": "address",
          "name": "",
          "type": "address"
        },
        {
          "internalType": "bytes32",
          "name": "orderHash",
          "type": "bytes32"
        }
      ],
      "name": "isOrderCancelled",
      "outputs": [
        {
          "internalType": "bool",
          "name": "",
          "type": "bool"
        }
      ],
      "payable": false,
      "stateMutability": "view",
      "type": "function"
    }
  ],
  "bytecode": "0x608060405234801561001057600080fd5b50610b70806100206000396000f3fe608060405234801561001057600080fd5b506004361061004c5760003560e01c80631592f0ab146100515780638f38575b1461005b5780639bd5eb161461006e578063e00104dd14610097575b600080fd5b6100596100aa565b005b610059610069366004610713565b61010c565b61008161007c36600461069d565b6101d5565b60405161008e9190610a37565b60405180910390f35b6100596100a53660046106d7565b6101ee565b60005b6000548110156100fc576000600160008084815481106100c957fe5b60009182526020808320919091015483528201929092526040019020805460ff19169115159190911790556001016100ad565b506000610109818061029c565b50565b60005b815181101561019857600082828151811061012657fe5b60209081029190910181015160600151810151518254600181810185556000948552928420015583519091829185908590811061015f57fe5b60209081029190910181015160600151810151518252810191909152604001600020805460ff191691151591909117905560010161010f565b507f568da6d57c7b32c4770dce7121d462139f7f66dc6b3f9a3fdaea062ef59e5dad81336040516101ca929190610a26565b60405180910390a150565b60008181526001602052604090205460ff165b92915050565b60005b815181101561026a57600082828151811061020857fe5b6020908102919091018101518254600181810185556000948552928420015583519091829185908590811061023957fe5b6020908102919091018101518252810191909152604001600020805460ff19169115159190911790556001016101f1565b507f4d626c8c62a442963af8e417771367c373bbedc6acfc33744f2f80c038d25f5981336040516101ca9291906109ff565b8154818355818111156102c0576000838152602090206102c09181019083016102c5565b505050565b6102e391905b808211156102df57600081556001016102cb565b5090565b90565b80356101e881610afa565b600082601f83011261030257600080fd5b813561031561031082610a6b565b610a45565b9150818183526020840193506020810190508385602084028201111561033a57600080fd5b60005b83811015610366578161035088826103e4565b845250602092830192919091019060010161033d565b5050505092915050565b600082601f83011261038157600080fd5b813561038f61031082610a6b565b91508181835260208401935060208101905083856102a08402820111156103b557600080fd5b60005b8381101561036657816103cb888261052a565b8452506020909201916102a091909101906001016103b8565b80356101e881610b0e565b80356101e881610b17565b60006040828403121561040c57600080fd5b6104166040610a45565b9050600061042484846102e6565b8252506020610435848483016103e4565b60208301525092915050565b60006040828403121561045357600080fd5b61045d6040610a45565b9050600061042484846103e4565b60006080828403121561047d57600080fd5b6104876040610a45565b9050600061049584846103fa565b8252506040610435848483016103fa565b600061012082840312156104b957600080fd5b6104c360a0610a45565b905060006104d184846103ef565b82525060206104e2848483016103e4565b60208301525060406104f68482850161046b565b60408301525060c061050a848285016103e4565b60608301525060e061051e84828501610441565b60808301525092915050565b60006102a0828403121561053d57600080fd5b61054760c0610a45565b9050600061055584846103e4565b8252506020610566848483016102e6565b602083015250604061057a848285016104a6565b60408301525061016061058f84828501610656565b6060830152506102606105a4848285016103e4565b6080830152506102806105b9848285016103e4565b60a08301525092915050565b6000608082840312156105d757600080fd5b6105e16040610a45565b905060006105ef84846103e4565b82525060206104358484830160006060828403121561060d57600080fd5b6106176060610a45565b9050600061062584846103e4565b8252506020610636848483016103e4565b602083015250604061064a84828501610692565b60408301525092915050565b6000610100828403121561066957600080fd5b6106736040610a45565b9050600061068184846105c5565b8252506080610435848483016105c5565b80356101e881610b24565b600080604083850312156106b057600080fd5b60006106bc85856102e6565b92505060206106cd858286016103e4565b9150509250929050565b6000602082840312156106e957600080fd5b81356001600160401b038111156106ff57600080fd5b61070b848285016102f1565b949350505050565b60006020828403121561072557600080fd5b81356001600160401b0381111561073b57600080fd5b61070b84828501610370565b60006107538383610838565b505060200190565b60006107678383610907565b50506102a00190565b61077981610acf565b82525050565b61077981610a9e565b600061079382610a91565b61079d8185610a95565b93506107a883610a8b565b8060005b838110156107d65781516107c08882610747565b97506107cb83610a8b565b9250506001016107ac565b509495945050505050565b60006107ec82610a91565b6107f68185610a95565b935061080183610a8b565b8060005b838110156107d6578151610819888261075b565b975061082483610a8b565b925050600101610805565b61077981610aa9565b610779816102e3565b61077981610ada565b8051604083019061085b848261077f565b50602082015161086e6020850182610838565b50505050565b8051604083019061085b8482610838565b80516080830190610896848261084a565b50602082015161086e604085018261084a565b80516101208301906108bb8482610841565b5060208201516108ce6020850182610838565b5060408201516108e16040850182610885565b5060608201516108f460c0850182610838565b50608082015161086e60e0850182610874565b80516102a08301906109198482610838565b50602082015161092c602085018261077f565b50604082015161093f60408501826108a9565b5060608201516109536101608501826109d1565b506080820151610967610260850182610838565b5060a082015161086e610280850182610838565b8051608083019061098c8482610838565b50602082015161086e6020850182805160608301906109ab8482610838565b5060208201516109be6020850182610838565b50604082015161086e60408501826109f6565b80516101008301906109e3848261097b565b50602082015161086e608085018261097b565b61077981610ac9565b60408082528101610a108185610788565b9050610a1f6020830184610770565b9392505050565b60408082528101610a1081856107e1565b602081016101e8828461082f565b6040518181016001600160401b0381118282101715610a6357600080fd5b604052919050565b60006001600160401b03821115610a8157600080fd5b5060209081020190565b60200190565b5190565b90815260200190565b60006101e882610abd565b151590565b80610ab881610af0565b919050565b6001600160a01b031690565b60ff1690565b60006101e882610ae5565b60006101e882610aae565b60006101e882610a9e565b6002811061010957fe5b610b0381610a9e565b811461010957600080fd5b610b03816102e3565b6002811061010957600080fd5b610b0381610ac956fea365627a7a72315820061a74beec10a642b925559f8f4d81db84c58b82de6d48365df580e2298317546c6578706572696d656e74616cf564736f6c634300050c0040",
  "source": "/*\n * Hubii Nahmii\n *\n * Compliant with the Hubii Nahmii specification v0.12.\n *\n * Copyright (C) 2017-2018 Hubii AS\n */\n\npragma solidity >=0.4.25 <0.6.0;\npragma experimental ABIEncoderV2;\n\nimport {TradeTypesLib} from \"../TradeTypesLib.sol\";\n\n/**\n * @title MockedCancelOrdersChallenge\n * @notice Mocked implementation of cancel orders challenge contract\n */\ncontract MockedCancelOrdersChallenge {\n    //\n    // Variables\n    // -----------------------------------------------------------------------------------------------------------------\n    bytes32[] cancelledOrderHashes;\n    mapping(bytes32 => bool) orderHashCancelledMap;\n\n    //\n    // Events\n    // -----------------------------------------------------------------------------------------------------------------\n    event CancelOrdersEvent(TradeTypesLib.Order[] orders, address wallet);\n    event CancelOrdersByHashEvent(bytes32[] orders, address wallet);\n\n    //\n    // Constructor\n    // -----------------------------------------------------------------------------------------------------------------\n    constructor() public {\n    }\n\n    //\n    // Functions\n    // -----------------------------------------------------------------------------------------------------------------\n    function _reset()\n    public\n    {\n        for (uint256 i = 0; i < cancelledOrderHashes.length; i++)\n            orderHashCancelledMap[cancelledOrderHashes[i]] = false;\n        cancelledOrderHashes.length = 0;\n    }\n\n    function cancelOrders(TradeTypesLib.Order[] memory orders)\n    public\n    {\n        for (uint256 i = 0; i < orders.length; i++) {\n            cancelledOrderHashes.push(orders[i].seals.operator.hash);\n            orderHashCancelledMap[orders[i].seals.operator.hash] = true;\n        }\n\n        emit CancelOrdersEvent(orders, msg.sender);\n    }\n\n    function cancelOrdersByHash(bytes32[] memory orderHashes)\n    public\n    {\n        for (uint256 i = 0; i < orderHashes.length; i++) {\n            cancelledOrderHashes.push(orderHashes[i]);\n            orderHashCancelledMap[orderHashes[i]] = true;\n        }\n\n        emit CancelOrdersByHashEvent(orderHashes, msg.sender);\n    }\n\n    function isOrderCancelled(address, bytes32 orderHash)\n    public\n    view\n    returns (bool)\n    {\n        return orderHashCancelledMap[orderHash];\n    }\n}",
  "sourcePath": "/opt/buildagent/work/855e104608380c36/contracts/test/MockedCancelOrdersChallenge.sol",
  "compiler": {
    "name": "solc",
    "version": "0.5.12+commit.7709ece9.Emscripten.clang"
  },
  "schemaVersion": "2.0.3",
  "updatedAt": "2019-10-23T00:21:40.841Z"
}