{
  "contractName": "MockedBeneficiary",
  "abi": [
    {
      "constant": true,
      "inputs": [
        {
          "internalType": "uint256",
          "name": "",
          "type": "uint256"
        }
      ],
      "name": "_benefits",
      "outputs": [
        {
          "internalType": "address",
          "name": "wallet",
          "type": "address"
        },
        {
          "internalType": "string",
          "name": "balanceType",
          "type": "string"
        },
        {
          "components": [
            {
              "internalType": "int256",
              "name": "amount",
              "type": "int256"
            },
            {
              "components": [
                {
                  "internalType": "address",
                  "name": "ct",
                  "type": "address"
                },
                {
                  "internalType": "uint256",
                  "name": "id",
                  "type": "uint256"
                }
              ],
              "internalType": "struct MonetaryTypesLib.Currency",
              "name": "currency",
              "type": "tuple"
            }
          ],
          "internalType": "struct MonetaryTypesLib.Figure",
          "name": "figure",
          "type": "tuple"
        },
        {
          "internalType": "string",
          "name": "standard",
          "type": "string"
        }
      ],
      "payable": false,
      "stateMutability": "view",
      "type": "function"
    },
    {
      "constant": false,
      "inputs": [],
      "name": "_reset",
      "outputs": [],
      "payable": false,
      "stateMutability": "nonpayable",
      "type": "function"
    },
    {
      "constant": false,
      "inputs": [
        {
          "internalType": "address",
          "name": "wallet",
          "type": "address"
        },
        {
          "internalType": "string",
          "name": "balanceType",
          "type": "string"
        }
      ],
      "name": "receiveEthersTo",
      "outputs": [],
      "payable": true,
      "stateMutability": "payable",
      "type": "function"
    },
    {
      "constant": false,
      "inputs": [
        {
          "internalType": "address",
          "name": "wallet",
          "type": "address"
        },
        {
          "internalType": "string",
          "name": "balanceType",
          "type": "string"
        },
        {
          "internalType": "int256",
          "name": "amount",
          "type": "int256"
        },
        {
          "internalType": "address",
          "name": "currencyCt",
          "type": "address"
        },
        {
          "internalType": "uint256",
          "name": "currencyId",
          "type": "uint256"
        },
        {
          "internalType": "string",
          "name": "standard",
          "type": "string"
        }
      ],
      "name": "receiveTokensTo",
      "outputs": [],
      "payable": false,
      "stateMutability": "nonpayable",
      "type": "function"
    },
    {
      "constant": true,
      "inputs": [
        {
          "internalType": "uint256",
          "name": "index",
          "type": "uint256"
        }
      ],
      "name": "_getBenefit",
      "outputs": [
        {
          "internalType": "address",
          "name": "wallet",
          "type": "address"
        },
        {
          "internalType": "string",
          "name": "balanceType",
          "type": "string"
        },
        {
          "internalType": "int256",
          "name": "amount",
          "type": "int256"
        },
        {
          "internalType": "address",
          "name": "currencyCt",
          "type": "address"
        },
        {
          "internalType": "uint256",
          "name": "currencyId",
          "type": "uint256"
        },
        {
          "internalType": "string",
          "name": "standard",
          "type": "string"
        }
      ],
      "payable": false,
      "stateMutability": "view",
      "type": "function"
    }
  ],
  "bytecode": "0x608060405234801561001057600080fd5b50610c85806100206000396000f3fe60806040526004361061004a5760003560e01c80631592f0ab1461004f5780635f28965114610066578063a7654a1f14610086578063ab34a92c14610099578063d2c6a9b0146100d4575b600080fd5b34801561005b57600080fd5b50610064610104565b005b34801561007257600080fd5b5061006461008136600461090d565b610113565b6100646100943660046108bc565b610220565b3480156100a557600080fd5b506100b96100b43660046109c2565b610336565b6040516100cb96959493929190610a86565b60405180910390f35b3480156100e057600080fd5b506100f46100ef3660046109c2565b610548565b6040516100cb9493929190610aed565b600061011081806106d8565b50565b604080516080810182526001600160a01b03888116825260208083018981528451808601865289815285518087018752898516815280840189905281840152948401949094526060830185905260008054600181018083559180528451600080516020610c03833981519152600690920291820180546001600160a01b031916919095161784559451805191956101bf93600080516020610c2383398151915290910192910190610709565b5060408201518051600283015560209081015180516003840180546001600160a01b0319166001600160a01b039092169190911790558101516004830155606083015180516102149260058501920190610709565b50505050505050505050565b604080516080810182526001600160a01b0384811682526020808301858152845180860186523481528551808701875260008082528185018190528285019190915285870191909152855180840190965280865260608501959095528454600181018087559580528451600080516020610c03833981519152600690920291820180546001600160a01b03191691909516178455905180516102d993600080516020610c23833981519152909301929190910190610709565b5060408201518051600283015560209081015180516003840180546001600160a01b0319166001600160a01b0390921691909117905581015160048301556060830151805161032e9260058501920190610709565b505050505050565b60006060600080600060606000878154811061034e57fe5b6000918252602082206006909102015481546001600160a01b0390911697508890811061037757fe5b90600052602060002090600602016001018054600181600116156101000203166002900480601f01602080910402602001604051908101604052809291908181526020018280546001816001161561010002031660029004801561041c5780601f106103f15761010080835404028352916020019161041c565b820191906000526020600020905b8154815290600101906020018083116103ff57829003601f168201915b505050505094506000878154811061043057fe5b90600052602060002090600602016002016000015493506000878154811061045457fe5b6000918252602082206003600690920201015481546001600160a01b0390911694508890811061048057fe5b600091825260208220600460069092020101548154909350889081106104a257fe5b6000918252602091829020600560069092020101805460408051601f60026000196101006001871615020190941693909304928301859004850281018501909152818152928301828280156105385780601f1061050d57610100808354040283529160200191610538565b820191906000526020600020905b81548152906001019060200180831161051b57829003601f168201915b5050505050905091939550919395565b6000818154811061055557fe5b600091825260209182902060069091020180546001808301805460408051601f60026000199685161561010002969096019093169490940491820187900487028401870190528083526001600160a01b0390931695509293909291908301828280156106025780601f106105d757610100808354040283529160200191610602565b820191906000526020600020905b8154815290600101906020018083116105e557829003601f168201915b505060408051808201825260028781015482528251808401845260038901546001600160a01b0316815260048901546020808301919091528084019190915260058901805485516101006001831615026000190190911693909304601f8101839004830284018301909552848352979892979296509094509092508301828280156106ce5780601f106106a3576101008083540402835291602001916106ce565b820191906000526020600020905b8154815290600101906020018083116106b157829003601f168201915b5050505050905084565b815481835581811115610704576006028160060283600052602060002091820191016107049190610787565b505050565b828054600181600116156101000203166002900490600052602060002090601f016020900481019282601f1061074a57805160ff1916838001178555610777565b82800160010185558215610777579182015b8281111561077757825182559160200191906001019061075c565b506107839291506107ee565b5090565b6107eb91905b808211156107835780546001600160a01b031916815560006107b26001830182610808565b6000600283018190556003830180546001600160a01b0319169055600483018190556107e2906005840190610808565b5060060161078d565b90565b6107eb91905b8082111561078357600081556001016107f4565b50805460018160011615610100020316600290046000825580601f1061082e5750610110565b601f01602090049060005260206000209081019061011091906107ee565b803561085781610be5565b92915050565b803561085781610bf9565b600082601f83011261087957600080fd5b813561088c61088782610b5e565b610b38565b915080825260208301602083018583830111156108a857600080fd5b6108b3838284610ba3565b50505092915050565b600080604083850312156108cf57600080fd5b60006108db858561084c565b92505060208301356001600160401b038111156108f757600080fd5b61090385828601610868565b9150509250929050565b60008060008060008060c0878903121561092657600080fd5b6000610932898961084c565b96505060208701356001600160401b0381111561094e57600080fd5b61095a89828a01610868565b955050604061096b89828a0161085d565b945050606061097c89828a0161084c565b935050608061098d89828a0161085d565b92505060a08701356001600160401b038111156109a957600080fd5b6109b589828a01610868565b9150509295509295509295565b6000602082840312156109d457600080fd5b60006109e0848461085d565b949350505050565b6109f181610b92565b82525050565b6109f1816107eb565b6000610a0b82610b85565b610a158185610b89565b9350610a25818560208601610baf565b610a2e81610bdb565b9093019392505050565b80516040830190610a4984826109e8565b506020820151610a5c60208501826109f7565b50505050565b80516060830190610a7384826109f7565b506020820151610a5c6020850182610a38565b60c08101610a9482896109e8565b8181036020830152610aa68188610a00565b9050610ab560408301876109f7565b610ac260608301866109e8565b610acf60808301856109f7565b81810360a0830152610ae18184610a00565b98975050505050505050565b60c08101610afb82876109e8565b8181036020830152610b0d8186610a00565b9050610b1c6040830185610a62565b81810360a0830152610b2e8184610a00565b9695505050505050565b6040518181016001600160401b0381118282101715610b5657600080fd5b604052919050565b60006001600160401b03821115610b7457600080fd5b506020601f91909101601f19160190565b5190565b90815260200190565b60006001600160a01b038216610857565b82818337506000910152565b60005b83811015610bca578181015183820152602001610bb2565b83811115610a5c5750506000910152565b601f01601f191690565b610bee81610b92565b811461011057600080fd5b610bee816107eb56fe290decd9548b62a8d60345a988386fc84ba6bc95484008f6362f93160ef3e563290decd9548b62a8d60345a988386fc84ba6bc95484008f6362f93160ef3e564a365627a7a723158201d45146ae9965f3253e475b262256f306565f47e48fa5ce1b9fbb686dcb56a886c6578706572696d656e74616cf564736f6c634300050c0040",
  "source": "/*\n * Hubii Nahmii\n *\n * Compliant with the Hubii Nahmii specification v0.12.\n *\n * Copyright (C) 2017-2018 Hubii AS\n */\n\npragma solidity >=0.4.25 <0.6.0;\npragma experimental ABIEncoderV2;\n\nimport {Beneficiary} from \"../Beneficiary.sol\";\nimport {MonetaryTypesLib} from \"../MonetaryTypesLib.sol\";\n\n/**\n * @title MockedBeneficiary\n * @notice Mocked implementation of beneficiary\n */\ncontract MockedBeneficiary is Beneficiary {\n    //\n    // Types\n    // -----------------------------------------------------------------------------------------------------------------\n    struct Benefit {\n        address wallet;\n        string balanceType;\n        MonetaryTypesLib.Figure figure;\n        string standard;\n    }\n\n    //\n    // Variables\n    // -----------------------------------------------------------------------------------------------------------------\n    Benefit[] public _benefits;\n\n    //\n    // Functions\n    // -----------------------------------------------------------------------------------------------------------------\n    function _reset()\n    public\n    {\n        _benefits.length = 0;\n    }\n\n    function receiveEthersTo(address wallet, string memory balanceType)\n    public\n    payable\n    {\n        _benefits.push(\n            Benefit(\n                wallet,\n                balanceType,\n                MonetaryTypesLib.Figure(\n                    int256(msg.value),\n                    MonetaryTypesLib.Currency(address(0), 0)\n                ),\n                \"\"\n            )\n        );\n    }\n\n    function receiveTokensTo(address wallet, string memory balanceType, int256 amount,\n        address currencyCt, uint256 currencyId, string memory standard)\n    public\n    {\n        _benefits.push(\n            Benefit(\n                wallet,\n                balanceType,\n                MonetaryTypesLib.Figure(\n                    amount,\n                    MonetaryTypesLib.Currency(currencyCt, currencyId)\n                ),\n                standard\n            )\n        );\n    }\n\n    function _getBenefit(uint256 index)\n    public\n    view\n    returns (address wallet, string memory balanceType, int256 amount, address currencyCt,\n        uint256 currencyId, string memory standard)\n    {\n        wallet = _benefits[index].wallet;\n        balanceType = _benefits[index].balanceType;\n        amount = _benefits[index].figure.amount;\n        currencyCt = _benefits[index].figure.currency.ct;\n        currencyId = _benefits[index].figure.currency.id;\n        standard = _benefits[index].standard;\n    }\n}",
  "sourcePath": "/opt/buildagent/work/855e104608380c36/contracts/test/MockedBeneficiary.sol",
  "compiler": {
    "name": "solc",
    "version": "0.5.12+commit.7709ece9.Emscripten.clang"
  },
  "schemaVersion": "2.0.3",
  "updatedAt": "2019-10-23T00:21:40.832Z"
}