{
  "contractName": "MockedRevenueTokenManager",
  "abi": [
    {
      "inputs": [],
      "payable": false,
      "stateMutability": "nonpayable",
      "type": "constructor"
    },
    {
      "constant": true,
      "inputs": [],
      "name": "_releasedAmountBlocksIn",
      "outputs": [
        {
          "internalType": "uint256",
          "name": "",
          "type": "uint256"
        }
      ],
      "payable": false,
      "stateMutability": "view",
      "type": "function"
    },
    {
      "constant": true,
      "inputs": [],
      "name": "token",
      "outputs": [
        {
          "internalType": "contract MockedRevenueToken",
          "name": "",
          "type": "address"
        }
      ],
      "payable": false,
      "stateMutability": "view",
      "type": "function"
    },
    {
      "constant": false,
      "inputs": [],
      "name": "_reset",
      "outputs": [],
      "payable": false,
      "stateMutability": "nonpayable",
      "type": "function"
    },
    {
      "constant": true,
      "inputs": [
        {
          "internalType": "uint256",
          "name": "",
          "type": "uint256"
        },
        {
          "internalType": "uint256",
          "name": "",
          "type": "uint256"
        }
      ],
      "name": "releasedAmountBlocksIn",
      "outputs": [
        {
          "internalType": "uint256",
          "name": "",
          "type": "uint256"
        }
      ],
      "payable": false,
      "stateMutability": "view",
      "type": "function"
    },
    {
      "constant": false,
      "inputs": [
        {
          "internalType": "uint256",
          "name": "_rabIn",
          "type": "uint256"
        }
      ],
      "name": "_setReleasedAmountBlocksIn",
      "outputs": [],
      "payable": false,
      "stateMutability": "nonpayable",
      "type": "function"
    }
  ],
  "bytecode": "0x608060405234801561001057600080fd5b5060405161001d9061005f565b604051809103906000f080158015610039573d6000803e3d6000fd5b50600080546001600160a01b0319166001600160a01b039290921691909117905561006c565b6101fd8061027e83390190565b6102038061007b6000396000f3fe608060405234801561001057600080fd5b50600436106100575760003560e01c80631592f0ab1461005c5780637603a7fd1461006657806385a4757e14610079578063e96e8695146100a2578063fc0c546a146100aa575b600080fd5b6100646100bf565b005b6100646100743660046100f5565b6100c6565b61008c61008736600461011b565b6100cb565b604051610099919061017b565b60405180910390f35b61008c6100d5565b6100b26100db565b604051610099919061016d565b6000600155565b600155565b6001545b92915050565b60015481565b6000546001600160a01b031681565b80356100cf816101a9565b60006020828403121561010757600080fd5b600061011384846100ea565b949350505050565b6000806040838503121561012e57600080fd5b600061013a85856100ea565b925050602061014b858286016100ea565b9150509250929050565b61015e81610198565b82525050565b61015e81610195565b602081016100cf8284610155565b602081016100cf8284610164565b6001600160a01b031690565b90565b60006100cf8260006100cf82610189565b6101b281610195565b81146101bd57600080fd5b5056fea365627a7a723158208cc554730b6b35d573111d5f1f2046ff7bdbb48d0da36c39e81d19b5d9a917626c6578706572696d656e74616cf564736f6c634300050c0040608060405234801561001057600080fd5b506101dd806100206000396000f3fe608060405234801561001057600080fd5b506004361061004c5760003560e01c80631592f0ab1461005157806355f729c81461005b57806394c9446e14610079578063a52079ea1461008c575b600080fd5b61005961009f565b005b6100636100a5565b6040516100709190610158565b60405180910390f35b610059610087366004610123565b6100ab565b61006361009a3660046100d6565b6100b0565b60008055565b60005481565b600055565b6000549392505050565b80356100c58161017a565b92915050565b80356100c581610191565b6000806000606084860312156100eb57600080fd5b60006100f786866100ba565b9350506020610108868287016100cb565b9250506040610119868287016100cb565b9150509250925092565b60006020828403121561013557600080fd5b600061014184846100cb565b949350505050565b61015281610177565b82525050565b602081016100c58284610149565b60006001600160a01b0382166100c5565b90565b61018381610166565b811461018e57600080fd5b50565b6101838161017756fea365627a7a72315820522e36c91d56cabd9afcb89cb23266fbc6d6f241c26a7a497345cd324be5712a6c6578706572696d656e74616cf564736f6c634300050c0040",
  "source": "/*\n * Hubii Nahmii\n *\n * Compliant with the Hubii Nahmii specification v0.12.\n *\n * Copyright (C) 2017-2018 Hubii AS\n */\n\npragma solidity >=0.4.25 <0.6.0;\npragma experimental ABIEncoderV2;\n\nimport {MockedRevenueToken} from \"./MockedRevenueToken.sol\";\n\n/**\n * @title MockedRevenueTokenManager\n * @notice Mocked implementation of RevenueTokenManager\n */\ncontract MockedRevenueTokenManager {\n    //\n    // Variables\n    // -----------------------------------------------------------------------------------------------------------------\n    MockedRevenueToken public token;\n    uint256 public _releasedAmountBlocksIn;\n\n    //\n    // Constructor\n    // -----------------------------------------------------------------------------------------------------------------\n    constructor() public\n    {\n        token = new MockedRevenueToken();\n    }\n\n    //\n    // Functions\n    // -----------------------------------------------------------------------------------------------------------------\n    function _reset()\n    public\n    {\n        _releasedAmountBlocksIn = 0;\n    }\n\n    function releasedAmountBlocksIn(uint256, uint256)\n    public\n    view\n    returns (uint256)\n    {\n        return _releasedAmountBlocksIn;\n    }\n\n    function _setReleasedAmountBlocksIn(uint256 _rabIn)\n    public\n    {\n        _releasedAmountBlocksIn = _rabIn;\n    }\n}\n",
  "sourcePath": "/opt/buildagent/work/855e104608380c36/contracts/test/MockedRevenueTokenManager.sol",
  "compiler": {
    "name": "solc",
    "version": "0.5.12+commit.7709ece9.Emscripten.clang"
  },
  "schemaVersion": "2.0.3",
  "updatedAt": "2019-10-22T21:00:29.588Z"
}