{
  "contractName": "MockedClientFund",
  "abi": [
    {
      "constant": true,
      "inputs": [
        {
          "name": "",
          "type": "uint256"
        }
      ],
      "name": "beneficiaryTransfers",
      "outputs": [
        {
          "name": "sourceWallet",
          "type": "address"
        },
        {
          "name": "targetWallet",
          "type": "address"
        },
        {
          "components": [
            {
              "name": "amount",
              "type": "int256"
            },
            {
              "components": [
                {
                  "name": "ct",
                  "type": "address"
                },
                {
                  "name": "id",
                  "type": "uint256"
                }
              ],
              "name": "currency",
              "type": "tuple"
            }
          ],
          "name": "figure",
          "type": "tuple"
        },
        {
          "name": "standard",
          "type": "string"
        },
        {
          "name": "blockNumber",
          "type": "uint256"
        }
      ],
      "payable": false,
      "stateMutability": "view",
      "type": "function"
    },
    {
      "constant": true,
      "inputs": [
        {
          "name": "",
          "type": "uint256"
        }
      ],
      "name": "stages",
      "outputs": [
        {
          "name": "sourceWallet",
          "type": "address"
        },
        {
          "name": "targetWallet",
          "type": "address"
        },
        {
          "components": [
            {
              "name": "amount",
              "type": "int256"
            },
            {
              "components": [
                {
                  "name": "ct",
                  "type": "address"
                },
                {
                  "name": "id",
                  "type": "uint256"
                }
              ],
              "name": "currency",
              "type": "tuple"
            }
          ],
          "name": "figure",
          "type": "tuple"
        },
        {
          "name": "standard",
          "type": "string"
        },
        {
          "name": "blockNumber",
          "type": "uint256"
        }
      ],
      "payable": false,
      "stateMutability": "view",
      "type": "function"
    },
    {
      "constant": true,
      "inputs": [
        {
          "name": "",
          "type": "uint256"
        }
      ],
      "name": "settledBalanceUpdates",
      "outputs": [
        {
          "name": "sourceWallet",
          "type": "address"
        },
        {
          "name": "targetWallet",
          "type": "address"
        },
        {
          "components": [
            {
              "name": "amount",
              "type": "int256"
            },
            {
              "components": [
                {
                  "name": "ct",
                  "type": "address"
                },
                {
                  "name": "id",
                  "type": "uint256"
                }
              ],
              "name": "currency",
              "type": "tuple"
            }
          ],
          "name": "figure",
          "type": "tuple"
        },
        {
          "name": "standard",
          "type": "string"
        },
        {
          "name": "blockNumber",
          "type": "uint256"
        }
      ],
      "payable": false,
      "stateMutability": "view",
      "type": "function"
    },
    {
      "anonymous": false,
      "inputs": [
        {
          "indexed": false,
          "name": "lockedWallet",
          "type": "address"
        },
        {
          "indexed": false,
          "name": "lockerWallet",
          "type": "address"
        }
      ],
      "name": "LockBalancesEvent",
      "type": "event"
    },
    {
      "anonymous": false,
      "inputs": [
        {
          "indexed": false,
          "name": "lockedWallet",
          "type": "address"
        },
        {
          "indexed": false,
          "name": "lockerWallet",
          "type": "address"
        }
      ],
      "name": "UnlockBalancesEvent",
      "type": "event"
    },
    {
      "anonymous": false,
      "inputs": [
        {
          "indexed": false,
          "name": "wallet",
          "type": "address"
        },
        {
          "indexed": false,
          "name": "value",
          "type": "int256"
        },
        {
          "indexed": false,
          "name": "currencyCt",
          "type": "address"
        },
        {
          "indexed": false,
          "name": "currencyId",
          "type": "uint256"
        }
      ],
      "name": "UpdateSettledBalanceEvent",
      "type": "event"
    },
    {
      "anonymous": false,
      "inputs": [
        {
          "indexed": false,
          "name": "wallet",
          "type": "address"
        },
        {
          "indexed": false,
          "name": "value",
          "type": "int256"
        },
        {
          "indexed": false,
          "name": "currencyCt",
          "type": "address"
        },
        {
          "indexed": false,
          "name": "currencyId",
          "type": "uint256"
        }
      ],
      "name": "StageEvent",
      "type": "event"
    },
    {
      "constant": false,
      "inputs": [],
      "name": "_reset",
      "outputs": [],
      "payable": false,
      "stateMutability": "nonpayable",
      "type": "function"
    },
    {
      "constant": false,
      "inputs": [
        {
          "name": "wallet",
          "type": "address"
        },
        {
          "name": "value",
          "type": "int256"
        },
        {
          "name": "currencyCt",
          "type": "address"
        },
        {
          "name": "currencyId",
          "type": "uint256"
        },
        {
          "name": "standard",
          "type": "string"
        },
        {
          "name": "blockNumber",
          "type": "uint256"
        }
      ],
      "name": "updateSettledBalance",
      "outputs": [],
      "payable": false,
      "stateMutability": "nonpayable",
      "type": "function"
    },
    {
      "constant": true,
      "inputs": [],
      "name": "_settledBalanceUpdatesCount",
      "outputs": [
        {
          "name": "",
          "type": "uint256"
        }
      ],
      "payable": false,
      "stateMutability": "view",
      "type": "function"
    },
    {
      "constant": true,
      "inputs": [
        {
          "name": "index",
          "type": "uint256"
        }
      ],
      "name": "_settledBalanceUpdates",
      "outputs": [
        {
          "name": "",
          "type": "address"
        },
        {
          "name": "",
          "type": "int256"
        },
        {
          "name": "",
          "type": "address"
        },
        {
          "name": "",
          "type": "uint256"
        },
        {
          "name": "",
          "type": "string"
        }
      ],
      "payable": false,
      "stateMutability": "view",
      "type": "function"
    },
    {
      "constant": false,
      "inputs": [
        {
          "name": "wallet",
          "type": "address"
        },
        {
          "name": "amount",
          "type": "int256"
        },
        {
          "name": "currencyCt",
          "type": "address"
        },
        {
          "name": "currencyId",
          "type": "uint256"
        },
        {
          "name": "standard",
          "type": "string"
        }
      ],
      "name": "stage",
      "outputs": [],
      "payable": false,
      "stateMutability": "nonpayable",
      "type": "function"
    },
    {
      "constant": true,
      "inputs": [],
      "name": "_stagesCount",
      "outputs": [
        {
          "name": "",
          "type": "uint256"
        }
      ],
      "payable": false,
      "stateMutability": "view",
      "type": "function"
    },
    {
      "constant": true,
      "inputs": [
        {
          "name": "index",
          "type": "uint256"
        }
      ],
      "name": "_stages",
      "outputs": [
        {
          "name": "",
          "type": "address"
        },
        {
          "name": "",
          "type": "address"
        },
        {
          "name": "",
          "type": "int256"
        },
        {
          "name": "",
          "type": "address"
        },
        {
          "name": "",
          "type": "uint256"
        },
        {
          "name": "",
          "type": "string"
        }
      ],
      "payable": false,
      "stateMutability": "view",
      "type": "function"
    },
    {
      "constant": false,
      "inputs": [
        {
          "name": "wallet",
          "type": "address"
        },
        {
          "name": "beneficiary",
          "type": "address"
        },
        {
          "name": "amount",
          "type": "int256"
        },
        {
          "name": "currencyCt",
          "type": "address"
        },
        {
          "name": "currencyId",
          "type": "uint256"
        },
        {
          "name": "standard",
          "type": "string"
        }
      ],
      "name": "transferToBeneficiary",
      "outputs": [],
      "payable": false,
      "stateMutability": "nonpayable",
      "type": "function"
    },
    {
      "constant": true,
      "inputs": [],
      "name": "_beneficiaryTransfersCount",
      "outputs": [
        {
          "name": "",
          "type": "uint256"
        }
      ],
      "payable": false,
      "stateMutability": "view",
      "type": "function"
    },
    {
      "constant": true,
      "inputs": [
        {
          "name": "index",
          "type": "uint256"
        }
      ],
      "name": "_beneficiaryTransfers",
      "outputs": [
        {
          "name": "",
          "type": "address"
        },
        {
          "name": "",
          "type": "address"
        },
        {
          "name": "",
          "type": "int256"
        },
        {
          "name": "",
          "type": "address"
        },
        {
          "name": "",
          "type": "uint256"
        },
        {
          "name": "",
          "type": "string"
        }
      ],
      "payable": false,
      "stateMutability": "view",
      "type": "function"
    }
  ],
  "bytecode": "0x608060405234801561001057600080fd5b50611195806100206000396000f3006080604052600436106100ab5763ffffffff60e060020a600035041663158a034281146100b05780631592f0ab1461012f57806336b187141461014457806338f00d7c1461016b57806359a035ae14610180578063623245ea1461025057806364ba4752146102e0578063845ddcb21461035b5780638bdcd98314610373578063953a25e614610388578063a2c903dc14610471578063ad468df914610489578063eacfa85014610502575b600080fd5b3480156100bc57600080fd5b50604080516020600460a43581810135601f810184900484028501840190955284845261012d948235600160a060020a03908116956024803583169660443596606435909416956084359536959460c4949093920191819084018382808284375094975061051a9650505050505050565b005b34801561013b57600080fd5b5061012d6106c6565b34801561015057600080fd5b506101596106f1565b60408051918252519081900360200190f35b34801561017757600080fd5b506101596106f8565b34801561018c57600080fd5b506101986004356106fe565b6040518086600160a060020a0316600160a060020a0316815260200185600160a060020a0316600160a060020a0316815260200184815260200180602001838152602001828103825284818151815260200191508051906020019080838360005b838110156102115781810151838201526020016101f9565b50505050905090810190601f16801561023e5780820380516001836020036101000a031916815260200191505b50965050505050505060405180910390f35b34801561025c57600080fd5b506102686004356107fe565b6040518086600160a060020a0316600160a060020a0316815260200185815260200184600160a060020a0316600160a060020a031681526020018381526020018060200182810382528381815181526020019150805190602001908083836000838110156102115781810151838201526020016101f9565b3480156102ec57600080fd5b50604080516020601f60843560048181013592830184900484028501840190955281845261012d94600160a060020a0381358116956024803596604435909316956064359536959460a49493919091019190819084018382808284375094975050933594506109649350505050565b34801561036757600080fd5b50610198600435610b5e565b34801561037f57600080fd5b50610159610b6c565b34801561039457600080fd5b506103a0600435610b72565b6040518087600160a060020a0316600160a060020a0316815260200186600160a060020a0316600160a060020a0316815260200185815260200184600160a060020a0316600160a060020a0316815260200183815260200180602001828103825283818151815260200191508051906020019080838360005b83811015610431578181015183820152602001610419565b50505050905090810190601f16801561045e5780820380516001836020036101000a031916815260200191505b5097505050505050505060405180910390f35b34801561047d57600080fd5b50610198600435610d0e565b34801561049557600080fd5b50604080516020601f60843560048181013592830184900484028501840190955281845261012d94600160a060020a0381358116956024803596604435909316956064359536959460a494939190910191908190840183828082843750949750610d1c9650505050505050565b34801561050e57600080fd5b506103a0600435610f15565b6040805160a081018252600160a060020a0380891682528781166020808401918252845180860186528981528551808701875289851681528083018990528183015294840194855260608401868152600060808601819052600280546001810180835591909252865160079092027f405787fa12a823e0f2b7631cc41b3ba8828b3321ca811111fa75cd3aa3bb5ace81018054938816600160a060020a031994851617815595517f405787fa12a823e0f2b7631cc41b3ba8828b3321ca811111fa75cd3aa3bb5acf82018054918916918516919091179055975180517f405787fa12a823e0f2b7631cc41b3ba8828b3321ca811111fa75cd3aa3bb5ad08a015584015180517f405787fa12a823e0f2b7631cc41b3ba8828b3321ca811111fa75cd3aa3bb5ad18a018054919098169316929092179095558201517f405787fa12a823e0f2b7631cc41b3ba8828b3321ca811111fa75cd3aa3bb5ad2870155518051939592936106b0937f405787fa12a823e0f2b7631cc41b3ba8828b3321ca811111fa75cd3aa3bb5ad301929190910190610ffb565b5060808201518160060155505050505050505050565b60006106d28180611079565b5060006106e0600182611079565b5060006106ee600282611079565b50565b6000545b90565b60025490565b600280548290811061070c57fe5b60009182526020918290206007919091020180546001808301546040805180820182526002808701548252825180840184526003880154600160a060020a0390811682526004890154828b0152838a019190915260058801805485516101009882161598909802600019011692909204601f81018a90048a0287018a0190945283865295861698509490921695919493918301828280156107ee5780601f106107c3576101008083540402835291602001916107ee565b820191906000526020600020905b8154815290600101906020018083116107d157829003601f168201915b5050505050908060060154905085565b600080600080606060008681548110151561081557fe5b600091825260208220600790910201548154600160a060020a0390911691908890811061083e57fe5b90600052602060002090600702016002016000015460008881548110151561086257fe5b600091825260208220600360079092020101548154600160a060020a0390911691908a90811061088e57fe5b6000918252602082206004600790920201015481549091908b9081106108b057fe5b6000918252602091829020600560079092020101805460408051601f60026000196101006001871615020190941693909304928301859004850281018501909152818152919283919083018282801561094a5780601f1061091f5761010080835404028352916020019161094a565b820191906000526020600020905b81548152906001019060200180831161092d57829003601f168201915b505050505090509450945094509450945091939590929450565b6040805160a081018252600160a060020a03808916825260006020808401828152855180870187528b8152865180880188528b861681528084018b9052818401529585019586526060850188815260808601889052835460018101808655948052865160079091027f290decd9548b62a8d60345a988386fc84ba6bc95484008f6362f93160ef3e56381018054928816600160a060020a031993841617815593517f290decd9548b62a8d60345a988386fc84ba6bc95484008f6362f93160ef3e56482018054918916918416919091179055975180517f290decd9548b62a8d60345a988386fc84ba6bc95484008f6362f93160ef3e5658a015584015180517f290decd9548b62a8d60345a988386fc84ba6bc95484008f6362f93160ef3e5668a01805491909816921691909117909555938201517f290decd9548b62a8d60345a988386fc84ba6bc95484008f6362f93160ef3e567870155925180519295610af6937f290decd9548b62a8d60345a988386fc84ba6bc95484008f6362f93160ef3e568909101929190910190610ffb565b5060809182015160069091015560408051600160a060020a03808b168252602082018a90528816818301526060810187905290517f6ded3dfe9bc210e5b60b695bac6bd623844003b866c14264d44e91b8352a4fad93509081900390910190a1505050505050565b600180548290811061070c57fe5b60015490565b60008060008060006060600187815481101515610b8b57fe5b600091825260209091206007909102015460018054600160a060020a039092169189908110610bb657fe5b6000918252602090912060016007909202018101548154600160a060020a0390911691908a908110610be457fe5b90600052602060002090600702016002016000015460018a815481101515610c0857fe5b600091825260209091206003600790920201015460018054600160a060020a03909216918c908110610c3657fe5b6000918252602090912060046007909202010154600180548d908110610c5857fe5b6000918252602091829020600560079092020101805460408051601f600260001961010060018716150201909416939093049283018590048502810185019091528181529192839190830182828015610cf25780601f10610cc757610100808354040283529160200191610cf2565b820191906000526020600020905b815481529060010190602001808311610cd557829003601f168201915b5050505050905095509550955095509550955091939550919395565b600080548290811061070c57fe5b6040805160a081018252600160a060020a03878116825260006020808401828152855180870187528a8152865180880188528a861681528084018a9052818401529585019586526060850187815260808601849052600180548082018083559190955286517fb10e2d527612073b26eecdfd717e6a320cf44b4afac2b0732d9fcbe2b7fa0cf660079096029586018054600160a060020a031990811692891692909217815593517fb10e2d527612073b26eecdfd717e6a320cf44b4afac2b0732d9fcbe2b7fa0cf7870180548316918916919091179055975180517fb10e2d527612073b26eecdfd717e6a320cf44b4afac2b0732d9fcbe2b7fa0cf887015584015180517fb10e2d527612073b26eecdfd717e6a320cf44b4afac2b0732d9fcbe2b7fa0cf987018054909a16971696909617909755938201517fb10e2d527612073b26eecdfd717e6a320cf44b4afac2b0732d9fcbe2b7fa0cfa84015592518051610eae937fb10e2d527612073b26eecdfd717e6a320cf44b4afac2b0732d9fcbe2b7fa0cfb01929190910190610ffb565b5060809182015160069091015560408051600160a060020a03808a168252602082018990528716818301526060810186905290517f573abd56f40c687bfaaabb8d68c68c84cc343b51fe661ff2080e2a6977b3c2b493509081900390910190a15050505050565b60008060008060006060600287815481101515610f2e57fe5b600091825260209091206007909102015460028054600160a060020a039092169189908110610f5957fe5b600091825260209091206001600790920201015460028054600160a060020a03909216918a908110610f8757fe5b90600052602060002090600702016002016000015460028a815481101515610fab57fe5b600091825260209091206003600790920201015460028054600160a060020a03909216918c908110610fd957fe5b6000918252602090912060046007909202010154600280548d908110610c5857fe5b828054600181600116156101000203166002900490600052602060002090601f016020900481019282601f1061103c57805160ff1916838001178555611069565b82800160010185558215611069579182015b8281111561106957825182559160200191906001019061104e565b506110759291506110aa565b5090565b8154818355818111156110a5576007028160070283600052602060002091820191016110a591906110c4565b505050565b6106f591905b8082111561107557600081556001016110b0565b6106f591905b80821115611075578054600160a060020a0319908116825560018201805482169055600060028301819055600383018054909216909155600482018190556111156005830182611125565b50600060068201556007016110ca565b50805460018160011615610100020316600290046000825580601f1061114b57506106ee565b601f0160209004906000526020600020908101906106ee91906110aa5600a165627a7a72305820e3ad87d6e719bdbe55ff1d174d4282629ee1f678f32373c1fe8353f762e3be220029",
  "source": "/*\n * Hubii Nahmii\n *\n * Compliant with the Hubii Nahmii specification v0.12.\n *\n * Copyright (C) 2017-2018 Hubii AS\n */\n\npragma solidity ^0.4.25;\n\nimport {MonetaryTypesLib} from \"../MonetaryTypesLib.sol\";\nimport {Beneficiary} from \"../Beneficiary.sol\";\n\n/**\n * @title MockedClientFund\n * @notice Mocked implementation of client fund contract\n */\ncontract MockedClientFund {\n    //\n    // Types\n    // -----------------------------------------------------------------------------------------------------------------\n    struct Update {\n        address sourceWallet;\n        address targetWallet;\n        MonetaryTypesLib.Figure figure;\n        string standard;\n        uint256 blockNumber;\n    }\n\n    struct BalanceLogEntry {\n        int256 amount;\n        uint256 blockNumber;\n    }\n\n    //\n    // Variables\n    // -----------------------------------------------------------------------------------------------------------------\n    Update[] public settledBalanceUpdates;\n    Update[] public stages;\n    Update[] public beneficiaryTransfers;\n\n    //\n    // Events\n    // -----------------------------------------------------------------------------------------------------------------\n    event LockBalancesEvent(address lockedWallet, address lockerWallet);\n    event UnlockBalancesEvent(address lockedWallet, address lockerWallet);\n    event UpdateSettledBalanceEvent(address wallet, int256 value, address currencyCt, uint256 currencyId);\n    event StageEvent(address wallet, int256 value, address currencyCt, uint256 currencyId);\n\n    //\n    // Functions\n    // -----------------------------------------------------------------------------------------------------------------\n    function _reset()\n    public\n    {\n        settledBalanceUpdates.length = 0;\n        stages.length = 0;\n        beneficiaryTransfers.length = 0;\n    }\n\n    function updateSettledBalance(address wallet, int256 value, address currencyCt,\n        uint256 currencyId, string standard, uint256 blockNumber)\n    public\n    {\n        settledBalanceUpdates.push(\n            Update(\n                wallet,\n                address(0),\n                MonetaryTypesLib.Figure(\n                    value,\n                    MonetaryTypesLib.Currency(currencyCt, currencyId)\n                ),\n                standard,\n                blockNumber\n            )\n        );\n        emit UpdateSettledBalanceEvent(wallet, value, currencyCt, currencyId);\n    }\n\n    function _settledBalanceUpdatesCount()\n    public\n    view\n    returns (uint256)\n    {\n        return settledBalanceUpdates.length;\n    }\n\n    function _settledBalanceUpdates(uint256 index)\n    public\n    view\n    returns (address, int256, address, uint256, string) {\n        return (\n        settledBalanceUpdates[index].sourceWallet,\n        settledBalanceUpdates[index].figure.amount,\n        settledBalanceUpdates[index].figure.currency.ct,\n        settledBalanceUpdates[index].figure.currency.id,\n        settledBalanceUpdates[index].standard\n        );\n    }\n\n    function stage(address wallet, int256 amount, address currencyCt, uint256 currencyId,\n        string standard)\n    public\n    {\n        stages.push(\n            Update(\n                wallet,\n                address(0),\n                MonetaryTypesLib.Figure(\n                    amount,\n                    MonetaryTypesLib.Currency(currencyCt, currencyId)\n                ),\n                standard,\n                0\n            )\n        );\n        emit StageEvent(wallet, amount, currencyCt, currencyId);\n    }\n\n    function _stagesCount()\n    public\n    view\n    returns (uint256)\n    {\n        return stages.length;\n    }\n\n    function _stages(uint256 index)\n    public\n    view\n    returns (address, address, int256, address, uint256, string)\n    {\n        return (\n        stages[index].sourceWallet,\n        stages[index].targetWallet,\n        stages[index].figure.amount,\n        stages[index].figure.currency.ct,\n        stages[index].figure.currency.id,\n        stages[index].standard\n        );\n    }\n\n    function transferToBeneficiary(address wallet, Beneficiary beneficiary, int256 amount,\n        address currencyCt, uint256 currencyId, string standard)\n    public\n    {\n        beneficiaryTransfers.push(\n            Update(\n                wallet,\n                address(beneficiary),\n                MonetaryTypesLib.Figure(\n                    amount,\n                    MonetaryTypesLib.Currency(currencyCt, currencyId)\n                ),\n                standard,\n                0\n            )\n        );\n    }\n\n    function _beneficiaryTransfersCount()\n    public\n    view\n    returns (uint256)\n    {\n        return beneficiaryTransfers.length;\n    }\n\n    function _beneficiaryTransfers(uint256 index)\n    public\n    view\n    returns (address, address, int256, address, uint256, string)\n    {\n        return (\n        beneficiaryTransfers[index].sourceWallet,\n        beneficiaryTransfers[index].targetWallet,\n        beneficiaryTransfers[index].figure.amount,\n        beneficiaryTransfers[index].figure.currency.ct,\n        beneficiaryTransfers[index].figure.currency.id,\n        beneficiaryTransfers[index].standard\n        );\n    }\n}",
  "sourcePath": "/opt/buildagent/work/855e104608380c36/contracts/test/MockedClientFund.sol",
  "compiler": {
    "name": "solc",
    "version": "0.4.25+commit.59dbf8f1.Emscripten.clang"
  },
  "schemaVersion": "2.0.2",
  "updatedAt": "2019-04-02T08:24:32.076Z"
}