{
  "contractName": "MockedTokenHolderRevenueFund",
  "abi": [
    {
      "constant": true,
      "inputs": [
        {
          "internalType": "uint256",
          "name": "",
          "type": "uint256"
        }
      ],
      "name": "_claimTransfers",
      "outputs": [
        {
          "internalType": "contract Beneficiary",
          "name": "beneficiary",
          "type": "address"
        },
        {
          "internalType": "address",
          "name": "destWallet",
          "type": "address"
        },
        {
          "internalType": "string",
          "name": "balanceType",
          "type": "string"
        },
        {
          "components": [
            {
              "internalType": "address",
              "name": "ct",
              "type": "address"
            },
            {
              "internalType": "uint256",
              "name": "id",
              "type": "uint256"
            }
          ],
          "internalType": "struct MonetaryTypesLib.Currency",
          "name": "currency",
          "type": "tuple"
        },
        {
          "internalType": "string",
          "name": "standard",
          "type": "string"
        }
      ],
      "payable": false,
      "stateMutability": "view",
      "type": "function"
    },
    {
      "constant": false,
      "inputs": [],
      "name": "_reset",
      "outputs": [],
      "payable": false,
      "stateMutability": "nonpayable",
      "type": "function"
    },
    {
      "constant": false,
      "inputs": [
        {
          "internalType": "contract Beneficiary",
          "name": "beneficiary",
          "type": "address"
        },
        {
          "internalType": "address",
          "name": "destWallet",
          "type": "address"
        },
        {
          "internalType": "string",
          "name": "balanceType",
          "type": "string"
        },
        {
          "internalType": "address",
          "name": "currencyCt",
          "type": "address"
        },
        {
          "internalType": "uint256",
          "name": "currencyId",
          "type": "uint256"
        },
        {
          "internalType": "string",
          "name": "standard",
          "type": "string"
        }
      ],
      "name": "claimAndTransferToBeneficiary",
      "outputs": [],
      "payable": false,
      "stateMutability": "nonpayable",
      "type": "function"
    },
    {
      "constant": true,
      "inputs": [
        {
          "internalType": "uint256",
          "name": "index",
          "type": "uint256"
        }
      ],
      "name": "_getClaimTransfer",
      "outputs": [
        {
          "internalType": "contract Beneficiary",
          "name": "beneficiary",
          "type": "address"
        },
        {
          "internalType": "address",
          "name": "destWallet",
          "type": "address"
        },
        {
          "internalType": "string",
          "name": "balanceType",
          "type": "string"
        },
        {
          "internalType": "address",
          "name": "currencyCt",
          "type": "address"
        },
        {
          "internalType": "uint256",
          "name": "currencyId",
          "type": "uint256"
        },
        {
          "internalType": "string",
          "name": "standard",
          "type": "string"
        }
      ],
      "payable": false,
      "stateMutability": "view",
      "type": "function"
    }
  ],
  "bytecode": "0x608060405234801561001057600080fd5b50610af4806100206000396000f3fe608060405234801561001057600080fd5b506004361061004c5760003560e01c80631592f0ab14610051578063ce2562131461005b578063d26fb2a91461006e578063d282c0631461009b575b600080fd5b6100596100c0565b005b6100596100693660046107af565b6100cf565b61008161007c366004610864565b610229565b604051610092959493929190610974565b60405180910390f35b6100ae6100a9366004610864565b6103ac565b6040516100929695949392919061090d565b60006100cc81806105ba565b50565b6040805160a0810182526001600160a01b0380891682528781166020808401918252838501898152855180870190965288841686528582018890526060850195909552608084018690526000805460018101808355918052855160069091027f290decd9548b62a8d60345a988386fc84ba6bc95484008f6362f93160ef3e563810180549287166001600160a01b031993841617815594517f290decd9548b62a8d60345a988386fc84ba6bc95484008f6362f93160ef3e56482018054919097169216919091179094559451805192936101d2937f290decd9548b62a8d60345a988386fc84ba6bc95484008f6362f93160ef3e5659091019291909101906105eb565b50606082015180516003830180546001600160a01b0319166001600160a01b0390921691909117905560209081015160048301556080830151805161021d92600585019201906105eb565b50505050505050505050565b6000818154811061023657fe5b600091825260209182902060069091020180546001808301546002808501805460408051601f600019978416156101000297909701909216939093049485018890048802810188019092528382526001600160a01b03948516975091909316949091908301828280156102ea5780601f106102bf576101008083540402835291602001916102ea565b820191906000526020600020905b8154815290600101906020018083116102cd57829003601f168201915b505060408051808201825260038701546001600160a01b031681526004870154602080830191909152600588018054845160026101006001841615026000190190921691909104601f8101849004840282018401909552848152979892979296509194509092508301828280156103a25780601f10610377576101008083540402835291602001916103a2565b820191906000526020600020905b81548152906001019060200180831161038557829003601f168201915b5050505050905085565b60008060606000806060600087815481106103c357fe5b6000918252602082206006909102015481546001600160a01b039091169750889081106103ec57fe5b6000918252602082206001600690920201015481546001600160a01b0390911696508890811061041857fe5b600091825260209182902060026006909202018101805460408051601f6000196101006001861615020190931694909404918201859004850284018501905280835291929091908301828280156104b05780601f10610485576101008083540402835291602001916104b0565b820191906000526020600020905b81548152906001019060200180831161049357829003601f168201915b50505050509350600087815481106104c457fe5b6000918252602082206003600690920201015481546001600160a01b039091169450889081106104f057fe5b90600052602060002090600602016003016001015491506000878154811061051457fe5b6000918252602091829020600560069092020101805460408051601f60026000196101006001871615020190941693909304928301859004850281018501909152818152928301828280156105aa5780601f1061057f576101008083540402835291602001916105aa565b820191906000526020600020905b81548152906001019060200180831161058d57829003601f168201915b5050505050905091939550919395565b8154818355818111156105e6576006028160060283600052602060002091820191016105e69190610669565b505050565b828054600181600116156101000203166002900490600052602060002090601f016020900481019282601f1061062c57805160ff1916838001178555610659565b82800160010185558215610659579182015b8281111561065957825182559160200191906001019061063e565b506106659291506106d6565b5090565b6106d391905b808211156106655780546001600160a01b03199081168255600182018054909116905560006106a160028301826106f0565b6003820180546001600160a01b03191690556000600483018190556106ca9060058401906106f0565b5060060161066f565b90565b6106d391905b8082111561066557600081556001016106dc565b50805460018160011615610100020316600290046000825580601f1061071657506100cc565b601f0160209004906000526020600020908101906100cc91906106d6565b803561073f81610a8b565b92915050565b803561073f81610a9f565b600082601f83011261076157600080fd5b813561077461076f826109f3565b6109cd565b9150808252602083016020830185838301111561079057600080fd5b61079b838284610a49565b50505092915050565b803561073f81610aa8565b60008060008060008060c087890312156107c857600080fd5b60006107d48989610745565b96505060206107e589828a01610734565b95505060408701356001600160401b0381111561080157600080fd5b61080d89828a01610750565b945050606061081e89828a01610734565b935050608061082f89828a016107a4565b92505060a08701356001600160401b0381111561084b57600080fd5b61085789828a01610750565b9150509295509295509295565b60006020828403121561087657600080fd5b600061088284846107a4565b949350505050565b61089381610a27565b82525050565b61089381610a32565b60006108ad82610a1a565b6108b78185610a1e565b93506108c7818560208601610a55565b6108d081610a81565b9093019392505050565b805160408301906108eb848261088a565b5060208201516108fe6020850182610904565b50505050565b610893816106d3565b60c0810161091b8289610899565b610928602083018861088a565b818103604083015261093a81876108a2565b9050610949606083018661088a565b6109566080830185610904565b81810360a083015261096881846108a2565b98975050505050505050565b60c081016109828288610899565b61098f602083018761088a565b81810360408301526109a181866108a2565b90506109b060608301856108da565b81810360a08301526109c281846108a2565b979650505050505050565b6040518181016001600160401b03811182821017156109eb57600080fd5b604052919050565b60006001600160401b03821115610a0957600080fd5b506020601f91909101601f19160190565b5190565b90815260200190565b600061073f82610a3d565b600061073f82610a27565b6001600160a01b031690565b82818337506000910152565b60005b83811015610a70578181015183820152602001610a58565b838111156108fe5750506000910152565b601f01601f191690565b610a9481610a27565b81146100cc57600080fd5b610a9481610a32565b610a94816106d356fea365627a7a72315820a0948734ae4a49fd92408cee2c9cf89a3eb360c337bf5b9910aa9866751c36db6c6578706572696d656e74616cf564736f6c634300050c0040",
  "source": "/*\n * Hubii Nahmii\n *\n * Compliant with the Hubii Nahmii specification v0.12.\n *\n * Copyright (C) 2017-2018 Hubii AS\n */\n\npragma solidity >=0.4.25 <0.6.0;\npragma experimental ABIEncoderV2;\n\nimport {Beneficiary} from \"../Beneficiary.sol\";\nimport {MonetaryTypesLib} from \"../MonetaryTypesLib.sol\";\n\n/**\n * @title MockedTokenHolderRevenueFund\n * @notice Mocked implementation of TokenHolderRevenueFund\n */\ncontract MockedTokenHolderRevenueFund /*is Beneficiary*/ {\n    //\n    // Types\n    // -----------------------------------------------------------------------------------------------------------------\n    struct ClaimTransfer {\n        Beneficiary beneficiary;\n        address destWallet;\n        string balanceType;\n        MonetaryTypesLib.Currency currency;\n        string standard;\n    }\n\n    //\n    // Variables\n    // -----------------------------------------------------------------------------------------------------------------\n    ClaimTransfer[] public _claimTransfers;\n\n    //\n    // Functions\n    // -----------------------------------------------------------------------------------------------------------------\n    function _reset()\n    public\n    {\n        _claimTransfers.length = 0;\n    }\n\n    function claimAndTransferToBeneficiary(Beneficiary beneficiary, address destWallet, string memory balanceType,\n        address currencyCt, uint256 currencyId, string memory standard)\n    public\n    {\n        _claimTransfers.push(\n            ClaimTransfer(\n                beneficiary, destWallet, balanceType, MonetaryTypesLib.Currency(currencyCt, currencyId), standard\n            )\n        );\n    }\n\n    function _getClaimTransfer(uint256 index)\n    public\n    view\n    returns (Beneficiary beneficiary, address destWallet, string memory balanceType,\n        address currencyCt, uint256 currencyId, string memory standard)\n    {\n        beneficiary = _claimTransfers[index].beneficiary;\n        destWallet = _claimTransfers[index].destWallet;\n        balanceType = _claimTransfers[index].balanceType;\n        currencyCt = _claimTransfers[index].currency.ct;\n        currencyId = _claimTransfers[index].currency.id;\n        standard = _claimTransfers[index].standard;\n    }\n}",
  "sourcePath": "/opt/buildagent/work/855e104608380c36/contracts/test/MockedTokenHolderRevenueFund.sol",
  "compiler": {
    "name": "solc",
    "version": "0.5.12+commit.7709ece9.Emscripten.clang"
  },
  "schemaVersion": "2.0.3",
  "updatedAt": "2019-10-22T21:00:29.590Z"
}