{
  "contractName": "MockedDriipSettlementState",
  "abi": [
    {
      "constant": true,
      "inputs": [],
      "name": "_maxNonceByWalletAndCurrency",
      "outputs": [
        {
          "internalType": "uint256",
          "name": "",
          "type": "uint256"
        }
      ],
      "payable": false,
      "stateMutability": "view",
      "type": "function"
    },
    {
      "constant": true,
      "inputs": [],
      "name": "_settledAmount",
      "outputs": [
        {
          "internalType": "int256",
          "name": "",
          "type": "int256"
        }
      ],
      "payable": false,
      "stateMutability": "view",
      "type": "function"
    },
    {
      "constant": true,
      "inputs": [],
      "name": "_totalFee",
      "outputs": [
        {
          "internalType": "uint256",
          "name": "nonce",
          "type": "uint256"
        },
        {
          "internalType": "int256",
          "name": "amount",
          "type": "int256"
        }
      ],
      "payable": false,
      "stateMutability": "view",
      "type": "function"
    },
    {
      "constant": true,
      "inputs": [],
      "name": "maxDriipNonce",
      "outputs": [
        {
          "internalType": "uint256",
          "name": "",
          "type": "uint256"
        }
      ],
      "payable": false,
      "stateMutability": "view",
      "type": "function"
    },
    {
      "constant": true,
      "inputs": [
        {
          "internalType": "uint256",
          "name": "",
          "type": "uint256"
        }
      ],
      "name": "settlements",
      "outputs": [
        {
          "internalType": "string",
          "name": "settledKind",
          "type": "string"
        },
        {
          "internalType": "bytes32",
          "name": "settledHash",
          "type": "bytes32"
        },
        {
          "components": [
            {
              "internalType": "uint256",
              "name": "nonce",
              "type": "uint256"
            },
            {
              "internalType": "address",
              "name": "wallet",
              "type": "address"
            },
            {
              "internalType": "uint256",
              "name": "doneBlockNumber",
              "type": "uint256"
            }
          ],
          "internalType": "struct DriipSettlementTypesLib.SettlementParty",
          "name": "origin",
          "type": "tuple"
        },
        {
          "components": [
            {
              "internalType": "uint256",
              "name": "nonce",
              "type": "uint256"
            },
            {
              "internalType": "address",
              "name": "wallet",
              "type": "address"
            },
            {
              "internalType": "uint256",
              "name": "doneBlockNumber",
              "type": "uint256"
            }
          ],
          "internalType": "struct DriipSettlementTypesLib.SettlementParty",
          "name": "target",
          "type": "tuple"
        }
      ],
      "payable": false,
      "stateMutability": "view",
      "type": "function"
    },
    {
      "constant": false,
      "inputs": [],
      "name": "_reset",
      "outputs": [],
      "payable": false,
      "stateMutability": "nonpayable",
      "type": "function"
    },
    {
      "constant": true,
      "inputs": [],
      "name": "settlementsCount",
      "outputs": [
        {
          "internalType": "uint256",
          "name": "",
          "type": "uint256"
        }
      ],
      "payable": false,
      "stateMutability": "view",
      "type": "function"
    },
    {
      "constant": false,
      "inputs": [
        {
          "internalType": "string",
          "name": "settledKind",
          "type": "string"
        },
        {
          "internalType": "bytes32",
          "name": "settledHash",
          "type": "bytes32"
        },
        {
          "internalType": "address",
          "name": "originWallet",
          "type": "address"
        },
        {
          "internalType": "uint256",
          "name": "originNonce",
          "type": "uint256"
        },
        {
          "internalType": "address",
          "name": "targetWallet",
          "type": "address"
        },
        {
          "internalType": "uint256",
          "name": "targetNonce",
          "type": "uint256"
        }
      ],
      "name": "initSettlement",
      "outputs": [],
      "payable": false,
      "stateMutability": "nonpayable",
      "type": "function"
    },
    {
      "constant": false,
      "inputs": [
        {
          "internalType": "address",
          "name": "",
          "type": "address"
        },
        {
          "internalType": "uint256",
          "name": "",
          "type": "uint256"
        },
        {
          "internalType": "enum DriipSettlementTypesLib.SettlementRole",
          "name": "settlementRole",
          "type": "uint8"
        },
        {
          "internalType": "bool",
          "name": "done",
          "type": "bool"
        }
      ],
      "name": "completeSettlement",
      "outputs": [],
      "payable": false,
      "stateMutability": "nonpayable",
      "type": "function"
    },
    {
      "constant": true,
      "inputs": [
        {
          "internalType": "address",
          "name": "",
          "type": "address"
        },
        {
          "internalType": "uint256",
          "name": "",
          "type": "uint256"
        },
        {
          "internalType": "enum DriipSettlementTypesLib.SettlementRole",
          "name": "settlementRole",
          "type": "uint8"
        }
      ],
      "name": "isSettlementPartyDone",
      "outputs": [
        {
          "internalType": "bool",
          "name": "",
          "type": "bool"
        }
      ],
      "payable": false,
      "stateMutability": "view",
      "type": "function"
    },
    {
      "constant": true,
      "inputs": [
        {
          "internalType": "address",
          "name": "",
          "type": "address"
        },
        {
          "internalType": "uint256",
          "name": "",
          "type": "uint256"
        }
      ],
      "name": "isSettlementPartyDone",
      "outputs": [
        {
          "internalType": "bool",
          "name": "",
          "type": "bool"
        }
      ],
      "payable": false,
      "stateMutability": "view",
      "type": "function"
    },
    {
      "constant": false,
      "inputs": [
        {
          "internalType": "enum DriipSettlementTypesLib.SettlementRole",
          "name": "settlementRole",
          "type": "uint8"
        },
        {
          "internalType": "bool",
          "name": "done",
          "type": "bool"
        }
      ],
      "name": "_setSettlementPartyDone",
      "outputs": [],
      "payable": false,
      "stateMutability": "nonpayable",
      "type": "function"
    },
    {
      "constant": true,
      "inputs": [
        {
          "internalType": "address",
          "name": "",
          "type": "address"
        },
        {
          "internalType": "uint256",
          "name": "",
          "type": "uint256"
        }
      ],
      "name": "settlementPartyDoneBlockNumber",
      "outputs": [
        {
          "internalType": "uint256",
          "name": "",
          "type": "uint256"
        }
      ],
      "payable": false,
      "stateMutability": "view",
      "type": "function"
    },
    {
      "constant": true,
      "inputs": [
        {
          "internalType": "address",
          "name": "",
          "type": "address"
        },
        {
          "internalType": "uint256",
          "name": "",
          "type": "uint256"
        },
        {
          "internalType": "enum DriipSettlementTypesLib.SettlementRole",
          "name": "settlementRole",
          "type": "uint8"
        }
      ],
      "name": "settlementPartyDoneBlockNumber",
      "outputs": [
        {
          "internalType": "uint256",
          "name": "",
          "type": "uint256"
        }
      ],
      "payable": false,
      "stateMutability": "view",
      "type": "function"
    },
    {
      "constant": false,
      "inputs": [
        {
          "internalType": "enum DriipSettlementTypesLib.SettlementRole",
          "name": "settlementRole",
          "type": "uint8"
        },
        {
          "internalType": "uint256",
          "name": "doneBlockNumber",
          "type": "uint256"
        }
      ],
      "name": "_setSettlementPartyDoneBlockNumber",
      "outputs": [],
      "payable": false,
      "stateMutability": "nonpayable",
      "type": "function"
    },
    {
      "constant": false,
      "inputs": [],
      "name": "_addSettlementIfNone",
      "outputs": [
        {
          "internalType": "uint256",
          "name": "",
          "type": "uint256"
        }
      ],
      "payable": false,
      "stateMutability": "nonpayable",
      "type": "function"
    },
    {
      "constant": true,
      "inputs": [
        {
          "internalType": "address",
          "name": "",
          "type": "address"
        },
        {
          "components": [
            {
              "internalType": "address",
              "name": "ct",
              "type": "address"
            },
            {
              "internalType": "uint256",
              "name": "id",
              "type": "uint256"
            }
          ],
          "internalType": "struct MonetaryTypesLib.Currency",
          "name": "",
          "type": "tuple"
        }
      ],
      "name": "maxNonceByWalletAndCurrency",
      "outputs": [
        {
          "internalType": "uint256",
          "name": "",
          "type": "uint256"
        }
      ],
      "payable": false,
      "stateMutability": "view",
      "type": "function"
    },
    {
      "constant": false,
      "inputs": [
        {
          "internalType": "address",
          "name": "",
          "type": "address"
        },
        {
          "components": [
            {
              "internalType": "address",
              "name": "ct",
              "type": "address"
            },
            {
              "internalType": "uint256",
              "name": "id",
              "type": "uint256"
            }
          ],
          "internalType": "struct MonetaryTypesLib.Currency",
          "name": "",
          "type": "tuple"
        },
        {
          "internalType": "uint256",
          "name": "maxNonce",
          "type": "uint256"
        }
      ],
      "name": "setMaxNonceByWalletAndCurrency",
      "outputs": [],
      "payable": false,
      "stateMutability": "nonpayable",
      "type": "function"
    },
    {
      "constant": false,
      "inputs": [
        {
          "internalType": "uint256",
          "name": "_maxDriipNonce",
          "type": "uint256"
        }
      ],
      "name": "setMaxDriipNonce",
      "outputs": [],
      "payable": false,
      "stateMutability": "nonpayable",
      "type": "function"
    },
    {
      "constant": true,
      "inputs": [
        {
          "internalType": "address",
          "name": "",
          "type": "address"
        },
        {
          "components": [
            {
              "internalType": "address",
              "name": "ct",
              "type": "address"
            },
            {
              "internalType": "uint256",
              "name": "id",
              "type": "uint256"
            }
          ],
          "internalType": "struct MonetaryTypesLib.Currency",
          "name": "",
          "type": "tuple"
        },
        {
          "internalType": "uint256",
          "name": "",
          "type": "uint256"
        }
      ],
      "name": "settledAmountByBlockNumber",
      "outputs": [
        {
          "internalType": "int256",
          "name": "",
          "type": "int256"
        }
      ],
      "payable": false,
      "stateMutability": "view",
      "type": "function"
    },
    {
      "constant": false,
      "inputs": [
        {
          "internalType": "address",
          "name": "",
          "type": "address"
        },
        {
          "internalType": "int256",
          "name": "amount",
          "type": "int256"
        },
        {
          "components": [
            {
              "internalType": "address",
              "name": "ct",
              "type": "address"
            },
            {
              "internalType": "uint256",
              "name": "id",
              "type": "uint256"
            }
          ],
          "internalType": "struct MonetaryTypesLib.Currency",
          "name": "",
          "type": "tuple"
        },
        {
          "internalType": "uint256",
          "name": "",
          "type": "uint256"
        }
      ],
      "name": "addSettledAmountByBlockNumber",
      "outputs": [],
      "payable": false,
      "stateMutability": "nonpayable",
      "type": "function"
    },
    {
      "constant": true,
      "inputs": [
        {
          "internalType": "address",
          "name": "",
          "type": "address"
        },
        {
          "internalType": "contract Beneficiary",
          "name": "",
          "type": "address"
        },
        {
          "internalType": "address",
          "name": "",
          "type": "address"
        },
        {
          "components": [
            {
              "internalType": "address",
              "name": "ct",
              "type": "address"
            },
            {
              "internalType": "uint256",
              "name": "id",
              "type": "uint256"
            }
          ],
          "internalType": "struct MonetaryTypesLib.Currency",
          "name": "",
          "type": "tuple"
        }
      ],
      "name": "totalFee",
      "outputs": [
        {
          "components": [
            {
              "internalType": "uint256",
              "name": "nonce",
              "type": "uint256"
            },
            {
              "internalType": "int256",
              "name": "amount",
              "type": "int256"
            }
          ],
          "internalType": "struct MonetaryTypesLib.NoncedAmount",
          "name": "",
          "type": "tuple"
        }
      ],
      "payable": false,
      "stateMutability": "view",
      "type": "function"
    },
    {
      "constant": false,
      "inputs": [
        {
          "internalType": "address",
          "name": "",
          "type": "address"
        },
        {
          "internalType": "contract Beneficiary",
          "name": "",
          "type": "address"
        },
        {
          "internalType": "address",
          "name": "",
          "type": "address"
        },
        {
          "components": [
            {
              "internalType": "address",
              "name": "ct",
              "type": "address"
            },
            {
              "internalType": "uint256",
              "name": "id",
              "type": "uint256"
            }
          ],
          "internalType": "struct MonetaryTypesLib.Currency",
          "name": "",
          "type": "tuple"
        },
        {
          "components": [
            {
              "internalType": "uint256",
              "name": "nonce",
              "type": "uint256"
            },
            {
              "internalType": "int256",
              "name": "amount",
              "type": "int256"
            }
          ],
          "internalType": "struct MonetaryTypesLib.NoncedAmount",
          "name": "fee",
          "type": "tuple"
        }
      ],
      "name": "setTotalFee",
      "outputs": [],
      "payable": false,
      "stateMutability": "nonpayable",
      "type": "function"
    }
  ],
  "bytecode": "0x608060405234801561001057600080fd5b50611282806100206000396000f3fe608060405234801561001057600080fd5b506004361061011d5760003560e01c806308df7dc8146101225780631423ba381461014e5780631592f0ab14610163578063283f78201461016b5780633858654b1461018157806348fcb72c146101a157806349c5615e146101b457806368ce1c3e146101c75780636e17226a146101cf578063741ee9a0146101ef5780637657768c146101f7578063877253131461020a578063897d36aa1461021d5780638c6913bc1461022557806396a787b31461022d5780639f0ac85014610240578063a3c9232c14610260578063a56a415914610268578063bc8dd4cd1461027b578063c5018bca1461028e578063d265245a146102a1578063f8eabcc1146102b4578063fb721b53146102c7575b600080fd5b610135610130366004610fc1565b6102da565b60405161014594939291906110d3565b60405180910390f35b61016161015c366004610dc0565b6103ed565b005b6101616103f4565b61017361041a565b604051610145929190611125565b61019461018f366004610d86565b610423565b60405161014591906110c5565b6101616101af366004610fc1565b61042d565b6101946101c2366004610e0d565b610432565b61019461051c565b6101e26101dd366004610c5b565b610522565b6040516101459190611117565b61019461054a565b610161610205366004610cbc565b610550565b610161610218366004610f24565b610562565b61019461069e565b6101946106a4565b61016161023b366004610ed5565b6106ab565b61025361024e366004610e3d565b610737565b60405161014591906110b7565b6101946107bd565b610194610276366004610e3d565b6107e9565b610194610289366004610dc0565b610861565b61025361029c366004610e0d565b61086b565b6101616102af366004610f05565b6108e1565b6101616102c2366004610e80565b610920565b6101616102d5366004610d31565b61099e565b600081815481106102e757fe5b60009182526020918290206008919091020180546040805160026001841615610100026000190190931692909204601f8101859004850283018501909152808252919350918391908301828280156103805780601f1061035557610100808354040283529160200191610380565b820191906000526020600020905b81548152906001019060200180831161036357829003601f168201915b50505050600183015460408051606080820183526002870154825260038701546001600160a01b0390811660208085019190915260048901548486015284519283018552600589015483526006890154909116908201526007909601549186019190915292939092915084565b6001555050565b6103ff6000806109ac565b60006001819055600281905560038190556004819055600555565b60045460055482565b6001545b92915050565b600255565b6000805461043f57600080fd5b60008054600019810191908290811061045457fe5b90600052602060002090600802016002016002015473__SafeMathUintLib_______________________63a682d5ad90916000848154811061049257fe5b9060005260206000209060080201600501600201546040518363ffffffff1660e01b81526004016104c4929190611125565b60206040518083038186803b1580156104dc57600080fd5b505af41580156104f0573d6000803e3d6000fd5b505050506040513d601f19601f820116820180604052506105149190810190610fdf565b949350505050565b60035481565b61052a6109d0565b506040805180820190915260045481526005546020820152949350505050565b60015481565b80516004556020015160055550505050565b600061056c6107bd565b9050866000828154811061057c57fe5b906000526020600020906008020160000190805190602001906105a09291906109ea565b5085600082815481106105af57fe5b90600052602060002090600802016001018190555083600082815481106105d257fe5b90600052602060002090600802016002016000018190555084600082815481106105f857fe5b906000526020600020906008020160020160010160006101000a8154816001600160a01b0302191690836001600160a01b03160217905550816000828154811061063e57fe5b906000526020600020906008020160050160000181905550826000828154811061066457fe5b6000918252602090912060089091020160060180546001600160a01b0319166001600160a01b039290921691909117905550505050505050565b60025481565b6000545b90565b6000546106b757600080fd5b600054600019018260018111156106ca57fe5b61070257816106da5760006106dc565b435b600082815481106106e957fe5b6000918252602090912060046008909202010155610732565b8161070e576000610710565b435b6000828154811061071d57fe5b60009182526020909120600760089092020101555b505050565b60008054610747575060006107b6565b6000546000190182600181111561075a57fe5b61078c576000818154811061076b57fe5b906000526020600020906008020160020160020154600014159150506107b6565b6000818154811061079957fe5b906000526020600020906008020160050160020154600014159150505b9392505050565b600080546107dc5760008054906107d79060018301610a68565b6107e4565b600054600019015b905090565b600080546107f657600080fd5b6000546000190182600181111561080957fe5b610837576000818154811061081a57fe5b9060005260206000209060080201600201600201549150506107b6565b6000818154811061084457fe5b9060005260206000209060080201600501600201549150506107b6565b6003549392505050565b6000805461087b57506000610427565b6000805460001981019190600119810190811061089457fe5b90600052602060002090600802016002016002015460001415806105145750600060018203815481106108c357fe5b60009182526020909120600760089092020101541515949350505050565b6000546108ed57600080fd5b6000546000190182600181111561090057fe5b6109125781600082815481106106e957fe5b816000828154811061071d57fe5b600061092a6107bd565b9050600083600181111561093a57fe5b15610962576000828154811061094c57fe5b9060005260206000209060080201600501610981565b6000828154811061096f57fe5b90600052602060002090600802016002015b90508261098f576000610991565b435b6002909101555050505050565b505060038054909101905550565b50805460008255600802906000526020600020908101906109cd9190610a90565b50565b604051806040016040528060008152602001600081525090565b828054600181600116156101000203166002900490600052602060002090601f016020900481019282601f10610a2b57805160ff1916838001178555610a58565b82800160010185558215610a58579182015b82811115610a58578251825591602001919060010190610a3d565b50610a64929150610af6565b5090565b8154818355818111156107325760080281600802836000526020600020918201910161073291905b6106a891905b80821115610a64576000610aaa8282610b10565b50600060018201819055600282018190556003820180546001600160a01b0319908116909155600483018290556005830182905560068301805490911690556007820155600801610a96565b6106a891905b80821115610a645760008155600101610afc565b50805460018160011615610100020316600290046000825580601f10610b3657506109cd565b601f0160209004906000526020600020908101906109cd9190610af6565b803561042781611203565b803561042781611217565b803561042781611220565b803561042781611229565b803561042781611232565b600082601f830112610b9c57600080fd5b8135610baf610baa82611166565b611140565b91508082526020830160208301858383011115610bcb57600080fd5b610bd68382846111c1565b50505092915050565b600060408284031215610bf157600080fd5b610bfb6040611140565b90506000610c098484610b54565b8252506020610c1a84848301610b6a565b60208301525092915050565b600060408284031215610c3857600080fd5b610c426040611140565b90506000610c098484610b6a565b805161042781611220565b60008060008060a08587031215610c7157600080fd5b6000610c7d8787610b54565b9450506020610c8e87828801610b75565b9350506040610c9f87828801610b54565b9250506060610cb087828801610bdf565b91505092959194509250565b600080600080600060e08688031215610cd457600080fd5b6000610ce08888610b54565b9550506020610cf188828901610b75565b9450506040610d0288828901610b54565b9350506060610d1388828901610bdf565b92505060a0610d2488828901610c26565b9150509295509295909350565b60008060008060a08587031215610d4757600080fd5b6000610d538787610b54565b9450506020610d6487828801610b6a565b9350506040610d7587828801610bdf565b9250506080610cb087828801610b6a565b60008060608385031215610d9957600080fd5b6000610da58585610b54565b9250506020610db685828601610bdf565b9150509250929050565b600080600060808486031215610dd557600080fd5b6000610de18686610b54565b9350506020610df286828701610bdf565b9250506060610e0386828701610b6a565b9150509250925092565b60008060408385031215610e2057600080fd5b6000610e2c8585610b54565b9250506020610db685828601610b6a565b600080600060608486031215610e5257600080fd5b6000610e5e8686610b54565b9350506020610e6f86828701610b6a565b9250506040610e0386828701610b80565b60008060008060808587031215610e9657600080fd5b6000610ea28787610b54565b9450506020610eb387828801610b6a565b9350506040610ec487828801610b80565b9250506060610cb087828801610b5f565b60008060408385031215610ee857600080fd5b6000610ef48585610b80565b9250506020610db685828601610b5f565b60008060408385031215610f1857600080fd5b6000610e2c8585610b80565b60008060008060008060c08789031215610f3d57600080fd5b86356001600160401b03811115610f5357600080fd5b610f5f89828a01610b8b565b9650506020610f7089828a01610b6a565b9550506040610f8189828a01610b54565b9450506060610f9289828a01610b6a565b9350506080610fa389828a01610b54565b92505060a0610fb489828a01610b6a565b9150509295509295509295565b600060208284031215610fd357600080fd5b60006105148484610b6a565b600060208284031215610ff157600080fd5b60006105148484610c50565b6110068161119a565b82525050565b611006816111a5565b611006816106a8565b60006110298261118d565b6110338185611191565b93506110438185602086016111cd565b61104c816111f9565b9093019392505050565b805160408301906110678482611015565b50602082015161107a6020850182611015565b50505050565b805160608301906110918482611015565b5060208201516110a46020850182610ffd565b50604082015161107a6040850182611015565b60208101610427828461100c565b602081016104278284611015565b61010080825281016110e5818761101e565b90506110f46020830186611015565b6111016040830185611080565b61110e60a0830184611080565b95945050505050565b604081016104278284611056565b604081016111338285611015565b6107b66020830184611015565b6040518181016001600160401b038111828210171561115e57600080fd5b604052919050565b60006001600160401b0382111561117c57600080fd5b506020601f91909101601f19160190565b5190565b90815260200190565b6000610427826111b5565b151590565b60006104278261119a565b6001600160a01b031690565b82818337506000910152565b60005b838110156111e85781810151838201526020016111d0565b8381111561107a5750506000910152565b601f01601f191690565b61120c8161119a565b81146109cd57600080fd5b61120c816111a5565b61120c816106a8565b61120c816111aa565b600281106109cd57600080fdfea365627a7a7231582092019db3e77bbbca8ae715a0acd969b6462fa55eaf6fa1e10e4cd278db0432e86c6578706572696d656e74616cf564736f6c634300050c0040",
  "source": "/*\n * Hubii Nahmii\n *\n * Compliant with the Hubii Nahmii specification v0.12.\n *\n * Copyright (C) 2017-2018 Hubii AS\n */\n\npragma solidity >=0.4.25 <0.6.0;\npragma experimental ABIEncoderV2;\n\nimport {DriipSettlementTypesLib} from \"../DriipSettlementTypesLib.sol\";\nimport {MonetaryTypesLib} from \"../MonetaryTypesLib.sol\";\nimport {Beneficiary} from \"../Beneficiary.sol\";\nimport {SafeMathUintLib} from \"../SafeMathUintLib.sol\";\n\n/**\n * @title MockedDriipSettlementState\n * @notice Mocked implementation of driip settlement state contract\n */\ncontract MockedDriipSettlementState {\n    using SafeMathUintLib for uint256;\n\n    DriipSettlementTypesLib.Settlement[] public settlements;\n    uint256 public _maxNonceByWalletAndCurrency;\n    uint256 public maxDriipNonce;\n    int256 public _settledAmount;\n    MonetaryTypesLib.NoncedAmount public _totalFee;\n\n    function _reset()\n    public\n    {\n        delete settlements;\n        delete _maxNonceByWalletAndCurrency;\n        delete maxDriipNonce;\n        delete _settledAmount;\n        delete _totalFee;\n    }\n\n    function settlementsCount()\n    public\n    view\n    returns (uint256)\n    {\n        return settlements.length;\n    }\n\n    function initSettlement(string memory settledKind, bytes32 settledHash, address originWallet,\n        uint256 originNonce, address targetWallet, uint256 targetNonce)\n    public\n    {\n        uint256 index = _addSettlementIfNone();\n        settlements[index].settledKind = settledKind;\n        settlements[index].settledHash = settledHash;\n        settlements[index].origin.nonce = originNonce;\n        settlements[index].origin.wallet = originWallet;\n        settlements[index].target.nonce = targetNonce;\n        settlements[index].target.wallet = targetWallet;\n    }\n\n    function completeSettlement(address, uint256,\n        DriipSettlementTypesLib.SettlementRole settlementRole,\n        bool done)\n    public\n    {\n        uint256 index = _addSettlementIfNone();\n\n        DriipSettlementTypesLib.SettlementParty storage settlementParty =\n        DriipSettlementTypesLib.SettlementRole.Origin == settlementRole ?\n        settlements[index].origin :\n        settlements[index].target;\n\n        settlementParty.doneBlockNumber = done ? block.number : 0;\n    }\n\n    function isSettlementPartyDone(address, uint256)\n    public\n    view\n    returns (bool)\n    {\n        if (0 == settlements.length)\n            return false;\n\n        uint256 index = settlements.length - 1;\n\n        return (0 != settlements[index - 1].origin.doneBlockNumber || 0 != settlements[index - 1].target.doneBlockNumber);\n    }\n\n    function isSettlementPartyDone(address, uint256,\n        DriipSettlementTypesLib.SettlementRole settlementRole)\n    public\n    view\n    returns (bool)\n    {\n        if (0 == settlements.length)\n            return false;\n\n        uint256 index = settlements.length - 1;\n\n        if (DriipSettlementTypesLib.SettlementRole.Origin == settlementRole)\n            return 0 != settlements[index].origin.doneBlockNumber;\n        else\n            return 0 != settlements[index].target.doneBlockNumber;\n    }\n\n    function _setSettlementPartyDone(DriipSettlementTypesLib.SettlementRole settlementRole, bool done)\n    public\n    {\n        require(0 < settlements.length);\n\n        uint256 index = settlements.length - 1;\n\n        if (DriipSettlementTypesLib.SettlementRole.Origin == settlementRole)\n            settlements[index].origin.doneBlockNumber = done ? block.number : 0;\n        else\n            settlements[index].target.doneBlockNumber = done ? block.number : 0;\n    }\n\n    function settlementPartyDoneBlockNumber(address, uint256)\n    public\n    view\n    returns (uint256)\n    {\n        require(0 < settlements.length);\n\n        uint256 index = settlements.length - 1;\n\n        return settlements[index].origin.doneBlockNumber.clampMin(settlements[index].target.doneBlockNumber);\n    }\n\n    function settlementPartyDoneBlockNumber(address, uint256,\n        DriipSettlementTypesLib.SettlementRole settlementRole)\n    public\n    view\n    returns (uint256)\n    {\n        require(0 < settlements.length);\n\n        uint256 index = settlements.length - 1;\n\n        if (DriipSettlementTypesLib.SettlementRole.Origin == settlementRole)\n            return settlements[index].origin.doneBlockNumber;\n        else\n            return settlements[index].target.doneBlockNumber;\n    }\n\n    function _setSettlementPartyDoneBlockNumber(DriipSettlementTypesLib.SettlementRole settlementRole, uint256 doneBlockNumber)\n    public\n    {\n        require(0 < settlements.length);\n\n        uint256 index = settlements.length - 1;\n\n        if (DriipSettlementTypesLib.SettlementRole.Origin == settlementRole)\n            settlements[index].origin.doneBlockNumber = doneBlockNumber;\n        else\n            settlements[index].target.doneBlockNumber = doneBlockNumber;\n    }\n\n    function _addSettlementIfNone()\n    public\n    returns (uint256)\n    {\n        return settlements.length > 0 ? settlements.length - 1 : settlements.length++;\n    }\n\n    function maxNonceByWalletAndCurrency(address, MonetaryTypesLib.Currency memory)\n    public\n    view\n    returns (uint256)\n    {\n        return _maxNonceByWalletAndCurrency;\n    }\n\n    function setMaxNonceByWalletAndCurrency(address, MonetaryTypesLib.Currency memory,\n        uint256 maxNonce)\n    public\n    {\n        _maxNonceByWalletAndCurrency = maxNonce;\n    }\n\n    function setMaxDriipNonce(uint256 _maxDriipNonce)\n    public\n    {\n        maxDriipNonce = _maxDriipNonce;\n    }\n\n    function settledAmountByBlockNumber(address, MonetaryTypesLib.Currency memory, uint256)\n    public\n    view\n    returns (int256) {\n        return _settledAmount;\n    }\n\n    function addSettledAmountByBlockNumber(address, int256 amount, MonetaryTypesLib.Currency memory, uint256)\n    public\n    {\n        _settledAmount += amount;\n    }\n\n    function totalFee(address, Beneficiary, address, MonetaryTypesLib.Currency memory)\n    public\n    view\n    returns (MonetaryTypesLib.NoncedAmount memory)\n    {\n        return _totalFee;\n    }\n\n    function setTotalFee(address, Beneficiary, address, MonetaryTypesLib.Currency memory,\n        MonetaryTypesLib.NoncedAmount memory fee)\n    public\n    {\n        _totalFee = fee;\n    }\n}",
  "sourcePath": "/opt/buildagent/work/855e104608380c36/contracts/test/MockedDriipSettlementState.sol",
  "compiler": {
    "name": "solc",
    "version": "0.5.12+commit.7709ece9.Emscripten.clang"
  },
  "schemaVersion": "2.0.3",
  "updatedAt": "2019-10-23T00:21:40.871Z"
}