{
  "contractName": "MockedCancelOrdersChallenge",
  "abi": [
    {
      "inputs": [],
      "payable": false,
      "stateMutability": "nonpayable",
      "type": "constructor"
    },
    {
      "anonymous": false,
      "inputs": [
        {
          "components": [
            {
              "name": "nonce",
              "type": "uint256"
            },
            {
              "name": "wallet",
              "type": "address"
            },
            {
              "components": [
                {
                  "name": "intention",
                  "type": "uint8"
                },
                {
                  "name": "amount",
                  "type": "int256"
                },
                {
                  "components": [
                    {
                      "components": [
                        {
                          "name": "ct",
                          "type": "address"
                        },
                        {
                          "name": "id",
                          "type": "uint256"
                        }
                      ],
                      "name": "intended",
                      "type": "tuple"
                    },
                    {
                      "components": [
                        {
                          "name": "ct",
                          "type": "address"
                        },
                        {
                          "name": "id",
                          "type": "uint256"
                        }
                      ],
                      "name": "conjugate",
                      "type": "tuple"
                    }
                  ],
                  "name": "currencies",
                  "type": "tuple"
                },
                {
                  "name": "rate",
                  "type": "int256"
                },
                {
                  "components": [
                    {
                      "name": "current",
                      "type": "int256"
                    },
                    {
                      "name": "previous",
                      "type": "int256"
                    }
                  ],
                  "name": "residuals",
                  "type": "tuple"
                }
              ],
              "name": "placement",
              "type": "tuple"
            },
            {
              "components": [
                {
                  "components": [
                    {
                      "name": "hash",
                      "type": "bytes32"
                    },
                    {
                      "components": [
                        {
                          "name": "r",
                          "type": "bytes32"
                        },
                        {
                          "name": "s",
                          "type": "bytes32"
                        },
                        {
                          "name": "v",
                          "type": "uint8"
                        }
                      ],
                      "name": "signature",
                      "type": "tuple"
                    }
                  ],
                  "name": "wallet",
                  "type": "tuple"
                },
                {
                  "components": [
                    {
                      "name": "hash",
                      "type": "bytes32"
                    },
                    {
                      "components": [
                        {
                          "name": "r",
                          "type": "bytes32"
                        },
                        {
                          "name": "s",
                          "type": "bytes32"
                        },
                        {
                          "name": "v",
                          "type": "uint8"
                        }
                      ],
                      "name": "signature",
                      "type": "tuple"
                    }
                  ],
                  "name": "operator",
                  "type": "tuple"
                }
              ],
              "name": "seals",
              "type": "tuple"
            },
            {
              "name": "blockNumber",
              "type": "uint256"
            },
            {
              "name": "operatorId",
              "type": "uint256"
            }
          ],
          "indexed": false,
          "name": "orders",
          "type": "tuple[]"
        },
        {
          "indexed": false,
          "name": "wallet",
          "type": "address"
        }
      ],
      "name": "CancelOrdersEvent",
      "type": "event"
    },
    {
      "anonymous": false,
      "inputs": [
        {
          "indexed": false,
          "name": "orders",
          "type": "bytes32[]"
        },
        {
          "indexed": false,
          "name": "wallet",
          "type": "address"
        }
      ],
      "name": "CancelOrdersByHashEvent",
      "type": "event"
    },
    {
      "constant": false,
      "inputs": [],
      "name": "_reset",
      "outputs": [],
      "payable": false,
      "stateMutability": "nonpayable",
      "type": "function"
    },
    {
      "constant": false,
      "inputs": [
        {
          "components": [
            {
              "name": "nonce",
              "type": "uint256"
            },
            {
              "name": "wallet",
              "type": "address"
            },
            {
              "components": [
                {
                  "name": "intention",
                  "type": "uint8"
                },
                {
                  "name": "amount",
                  "type": "int256"
                },
                {
                  "components": [
                    {
                      "components": [
                        {
                          "name": "ct",
                          "type": "address"
                        },
                        {
                          "name": "id",
                          "type": "uint256"
                        }
                      ],
                      "name": "intended",
                      "type": "tuple"
                    },
                    {
                      "components": [
                        {
                          "name": "ct",
                          "type": "address"
                        },
                        {
                          "name": "id",
                          "type": "uint256"
                        }
                      ],
                      "name": "conjugate",
                      "type": "tuple"
                    }
                  ],
                  "name": "currencies",
                  "type": "tuple"
                },
                {
                  "name": "rate",
                  "type": "int256"
                },
                {
                  "components": [
                    {
                      "name": "current",
                      "type": "int256"
                    },
                    {
                      "name": "previous",
                      "type": "int256"
                    }
                  ],
                  "name": "residuals",
                  "type": "tuple"
                }
              ],
              "name": "placement",
              "type": "tuple"
            },
            {
              "components": [
                {
                  "components": [
                    {
                      "name": "hash",
                      "type": "bytes32"
                    },
                    {
                      "components": [
                        {
                          "name": "r",
                          "type": "bytes32"
                        },
                        {
                          "name": "s",
                          "type": "bytes32"
                        },
                        {
                          "name": "v",
                          "type": "uint8"
                        }
                      ],
                      "name": "signature",
                      "type": "tuple"
                    }
                  ],
                  "name": "wallet",
                  "type": "tuple"
                },
                {
                  "components": [
                    {
                      "name": "hash",
                      "type": "bytes32"
                    },
                    {
                      "components": [
                        {
                          "name": "r",
                          "type": "bytes32"
                        },
                        {
                          "name": "s",
                          "type": "bytes32"
                        },
                        {
                          "name": "v",
                          "type": "uint8"
                        }
                      ],
                      "name": "signature",
                      "type": "tuple"
                    }
                  ],
                  "name": "operator",
                  "type": "tuple"
                }
              ],
              "name": "seals",
              "type": "tuple"
            },
            {
              "name": "blockNumber",
              "type": "uint256"
            },
            {
              "name": "operatorId",
              "type": "uint256"
            }
          ],
          "name": "orders",
          "type": "tuple[]"
        }
      ],
      "name": "cancelOrders",
      "outputs": [],
      "payable": false,
      "stateMutability": "nonpayable",
      "type": "function"
    },
    {
      "constant": false,
      "inputs": [
        {
          "name": "orderHashes",
          "type": "bytes32[]"
        }
      ],
      "name": "cancelOrdersByHash",
      "outputs": [],
      "payable": false,
      "stateMutability": "nonpayable",
      "type": "function"
    },
    {
      "constant": true,
      "inputs": [
        {
          "name": "",
          "type": "address"
        },
        {
          "name": "orderHash",
          "type": "bytes32"
        }
      ],
      "name": "isOrderCancelled",
      "outputs": [
        {
          "name": "",
          "type": "bool"
        }
      ],
      "payable": false,
      "stateMutability": "view",
      "type": "function"
    }
  ],
  "bytecode": "0x608060405234801561001057600080fd5b50610b0f806100206000396000f3006080604052600436106100485763ffffffff60e060020a6000350416631592f0ab811461004d5780638f38575b146100645780639bd5eb1614610084578063e00104dd146100ba575b600080fd5b34801561005957600080fd5b506100626100da565b005b34801561007057600080fd5b5061006261007f366004610751565b61013e565b34801561009057600080fd5b506100a461009f3660046106db565b610208565b6040516100b19190610a3a565b60405180910390f35b3480156100c657600080fd5b506100626100d5366004610715565b610221565b60005b60005481101561012e5760006001600080848154811015156100fb57fe5b60009182526020808320919091015483528201929092526040019020805460ff19169115159190911790556001016100dd565b600061013a81806102cf565b5050565b60005b81518110156101cb576000828281518110151561015a57fe5b602090810290910181015160600151810151518254600181810185556000948552928420015583519091829185908590811061019257fe5b60209081029190910181015160600151810151518252810191909152604001600020805460ff1916911515919091179055600101610141565b7f568da6d57c7b32c4770dce7121d462139f7f66dc6b3f9a3fdaea062ef59e5dad82336040516101fc929190610a29565b60405180910390a15050565b60008181526001602052604090205460ff165b92915050565b60005b815181101561029e576000828281518110151561023d57fe5b60209081029091018101518254600181810185556000948552928420015583519091829185908590811061026d57fe5b6020908102919091018101518252810191909152604001600020805460ff1916911515919091179055600101610224565b7f4d626c8c62a442963af8e417771367c373bbedc6acfc33744f2f80c038d25f5982336040516101fc929190610a09565b8154818355818111156102f3576000838152602090206102f39181019083016102f8565b505050565b61031691905b8082111561031257600081556001016102fe565b5090565b90565b60006103258235610a98565b9392505050565b6000601f8201831361033d57600080fd5b813561035061034b82610a6e565b610a48565b9150818183526020840193506020810190508385602084028201111561037557600080fd5b60005b838110156103a1578161038b888261041f565b8452506020928301929190910190600101610378565b5050505092915050565b6000601f820183136103bc57600080fd5b81356103ca61034b82610a6e565b91508181835260208401935060208101905083856102a08402820111156103f057600080fd5b60005b838110156103a157816104068882610567565b8452506020909201916102a091909101906001016103f3565b60006103258235610316565b60006103258235610abb565b60006040828403121561044957600080fd5b6104536040610a48565b905060006104618484610319565b82525060206104728484830161041f565b60208301525092915050565b60006040828403121561049057600080fd5b61049a6040610a48565b90506000610461848461041f565b6000608082840312156104ba57600080fd5b6104c46040610a48565b905060006104d28484610437565b825250604061047284848301610437565b600061012082840312156104f657600080fd5b61050060a0610a48565b9050600061050e848461042b565b825250602061051f8484830161041f565b6020830152506040610533848285016104a8565b60408301525060c06105478482850161041f565b60608301525060e061055b8482850161047e565b60808301525092915050565b60006102a0828403121561057a57600080fd5b61058460c0610a48565b90506000610592848461041f565b82525060206105a384848301610319565b60208301525060406105b7848285016104e3565b6040830152506101606105cc84828501610693565b6060830152506102606105e18482850161041f565b6080830152506102806105f68482850161041f565b60a08301525092915050565b60006080828403121561061457600080fd5b61061e6040610a48565b9050600061062c848461041f565b82525060206104728484830160006060828403121561064a57600080fd5b6106546060610a48565b90506000610662848461041f565b82525060206106738484830161041f565b6020830152506040610687848285016106cf565b60408301525092915050565b600061010082840312156106a657600080fd5b6106b06040610a48565b905060006106be8484610602565b825250608061047284848301610602565b60006103258235610ab5565b600080604083850312156106ee57600080fd5b60006106fa8585610319565b925050602061070b8582860161041f565b9150509250929050565b60006020828403121561072757600080fd5b81356001604060020a0381111561073d57600080fd5b6107498482850161032c565b949350505050565b60006020828403121561076357600080fd5b81356001604060020a0381111561077957600080fd5b610749848285016103ab565b61078e81610a98565b82525050565b600061079f82610a94565b8084526020840193506107b183610a8e565b60005b828110156107e1576107c7868351610842565b6107d082610a8e565b6020969096019591506001016107b4565b5093949350505050565b60006107f682610a94565b80845260208401935061080883610a8e565b60005b828110156107e15761081e868351610911565b61082782610a8e565b6102a09690960195915060010161080b565b61078e81610aa4565b61078e81610316565b61078e81610aca565b805160408301906108658482610785565b5060208201516108786020850182610842565b50505050565b805160408301906108658482610842565b805160808301906108a08482610854565b5060208201516108786040850182610854565b80516101208301906108c5848261084b565b5060208201516108d86020850182610842565b5060408201516108eb604085018261088f565b5060608201516108fe60c0850182610842565b50608082015161087860e085018261087e565b80516102a08301906109238482610842565b5060208201516109366020850182610785565b50604082015161094960408501826108b3565b50606082015161095d6101608501826109db565b506080820151610971610260850182610842565b5060a0820151610878610280850182610842565b805160808301906109968482610842565b5060208201516108786020850182805160608301906109b58482610842565b5060208201516109c86020850182610842565b5060408201516108786040850182610a00565b80516101008301906109ed8482610985565b5060208201516108786080850182610985565b61078e81610ab5565b60408082528101610a1a8185610794565b90506103256020830184610785565b60408082528101610a1a81856107eb565b6020810161021b8284610839565b6040518181016001604060020a0381118282101715610a6657600080fd5b604052919050565b60006001604060020a03821115610a8457600080fd5b5060209081020190565b60200190565b5190565b600160a060020a031690565b151590565b60006002821061031257fe5b60ff1690565b60006002821061031257600080fd5b600061021b82610aa95600a265627a7a7230582045f846e6bee70e1fb73f0b49ff7758e976295fee443a98cf0e1efeca1cac70236c6578706572696d656e74616cf50037",
  "source": "/*\n * Hubii Nahmii\n *\n * Compliant with the Hubii Nahmii specification v0.12.\n *\n * Copyright (C) 2017-2018 Hubii AS\n */\n\npragma solidity ^0.4.25;\npragma experimental ABIEncoderV2;\n\nimport {TradeTypesLib} from \"../TradeTypesLib.sol\";\n\n/**\n * @title MockedCancelOrdersChallenge\n * @notice Mocked implementation of cancel orders challenge contract\n */\ncontract MockedCancelOrdersChallenge {\n    //\n    // Variables\n    // -----------------------------------------------------------------------------------------------------------------\n    bytes32[] cancelledOrderHashes;\n    mapping(bytes32 => bool) orderHashCancelledMap;\n\n    //\n    // Events\n    // -----------------------------------------------------------------------------------------------------------------\n    event CancelOrdersEvent(TradeTypesLib.Order[] orders, address wallet);\n    event CancelOrdersByHashEvent(bytes32[] orders, address wallet);\n\n    //\n    // Constructor\n    // -----------------------------------------------------------------------------------------------------------------\n    constructor() public {\n    }\n\n    //\n    // Functions\n    // -----------------------------------------------------------------------------------------------------------------\n    function _reset()\n    public\n    {\n        for (uint256 i = 0; i < cancelledOrderHashes.length; i++)\n            orderHashCancelledMap[cancelledOrderHashes[i]] = false;\n        cancelledOrderHashes.length = 0;\n    }\n\n    function cancelOrders(TradeTypesLib.Order[] orders)\n    public\n    {\n        for (uint256 i = 0; i < orders.length; i++) {\n            cancelledOrderHashes.push(orders[i].seals.operator.hash);\n            orderHashCancelledMap[orders[i].seals.operator.hash] = true;\n        }\n\n        emit CancelOrdersEvent(orders, msg.sender);\n    }\n\n    function cancelOrdersByHash(bytes32[] orderHashes)\n    public\n    {\n        for (uint256 i = 0; i < orderHashes.length; i++) {\n            cancelledOrderHashes.push(orderHashes[i]);\n            orderHashCancelledMap[orderHashes[i]] = true;\n        }\n\n        emit CancelOrdersByHashEvent(orderHashes, msg.sender);\n    }\n\n    function isOrderCancelled(address, bytes32 orderHash)\n    public\n    view\n    returns (bool)\n    {\n        return orderHashCancelledMap[orderHash];\n    }\n}",
  "sourcePath": "/opt/buildagent/work/855e104608380c36/contracts/test/MockedCancelOrdersChallenge.sol",
  "compiler": {
    "name": "solc",
    "version": "0.4.25+commit.59dbf8f1.Emscripten.clang"
  },
  "schemaVersion": "2.0.2",
  "updatedAt": "2019-04-02T08:24:32.059Z"
}