{
  "contractName": "MockedSecurityBondService",
  "abi": [
    {
      "constant": false,
      "inputs": [],
      "name": "triggerSelfDestruction",
      "outputs": [],
      "payable": false,
      "stateMutability": "nonpayable",
      "type": "function"
    },
    {
      "constant": true,
      "inputs": [],
      "name": "selfDestructionDisabled",
      "outputs": [
        {
          "name": "",
          "type": "bool"
        }
      ],
      "payable": false,
      "stateMutability": "view",
      "type": "function"
    },
    {
      "constant": true,
      "inputs": [],
      "name": "destructor",
      "outputs": [
        {
          "name": "",
          "type": "address"
        }
      ],
      "payable": false,
      "stateMutability": "view",
      "type": "function"
    },
    {
      "constant": true,
      "inputs": [],
      "name": "operator",
      "outputs": [
        {
          "name": "",
          "type": "address"
        }
      ],
      "payable": false,
      "stateMutability": "view",
      "type": "function"
    },
    {
      "constant": false,
      "inputs": [
        {
          "name": "newSecurityBond",
          "type": "address"
        }
      ],
      "name": "setSecurityBond",
      "outputs": [],
      "payable": false,
      "stateMutability": "nonpayable",
      "type": "function"
    },
    {
      "constant": true,
      "inputs": [],
      "name": "securityBond",
      "outputs": [
        {
          "name": "",
          "type": "address"
        }
      ],
      "payable": false,
      "stateMutability": "view",
      "type": "function"
    },
    {
      "constant": false,
      "inputs": [],
      "name": "disableSelfDestruction",
      "outputs": [],
      "payable": false,
      "stateMutability": "nonpayable",
      "type": "function"
    },
    {
      "constant": false,
      "inputs": [
        {
          "name": "newDeployer",
          "type": "address"
        }
      ],
      "name": "setDeployer",
      "outputs": [],
      "payable": false,
      "stateMutability": "nonpayable",
      "type": "function"
    },
    {
      "constant": false,
      "inputs": [
        {
          "name": "newOperator",
          "type": "address"
        }
      ],
      "name": "setOperator",
      "outputs": [],
      "payable": false,
      "stateMutability": "nonpayable",
      "type": "function"
    },
    {
      "constant": true,
      "inputs": [],
      "name": "deployer",
      "outputs": [
        {
          "name": "",
          "type": "address"
        }
      ],
      "payable": false,
      "stateMutability": "view",
      "type": "function"
    },
    {
      "inputs": [
        {
          "name": "deployer",
          "type": "address"
        }
      ],
      "payable": false,
      "stateMutability": "nonpayable",
      "type": "constructor"
    },
    {
      "anonymous": false,
      "inputs": [
        {
          "indexed": false,
          "name": "oldSecurityBond",
          "type": "address"
        },
        {
          "indexed": false,
          "name": "newSecurityBond",
          "type": "address"
        }
      ],
      "name": "SetSecurityBondEvent",
      "type": "event"
    },
    {
      "anonymous": false,
      "inputs": [
        {
          "indexed": false,
          "name": "oldDeployer",
          "type": "address"
        },
        {
          "indexed": false,
          "name": "newDeployer",
          "type": "address"
        }
      ],
      "name": "SetDeployerEvent",
      "type": "event"
    },
    {
      "anonymous": false,
      "inputs": [
        {
          "indexed": false,
          "name": "oldOperator",
          "type": "address"
        },
        {
          "indexed": false,
          "name": "newOperator",
          "type": "address"
        }
      ],
      "name": "SetOperatorEvent",
      "type": "event"
    },
    {
      "anonymous": false,
      "inputs": [
        {
          "indexed": false,
          "name": "wallet",
          "type": "address"
        }
      ],
      "name": "SelfDestructionDisabledEvent",
      "type": "event"
    },
    {
      "anonymous": false,
      "inputs": [
        {
          "indexed": false,
          "name": "wallet",
          "type": "address"
        }
      ],
      "name": "TriggerSelfDestructionEvent",
      "type": "event"
    },
    {
      "constant": false,
      "inputs": [
        {
          "name": "wallet",
          "type": "address"
        },
        {
          "name": "fraction",
          "type": "uint256"
        },
        {
          "name": "unlockTimeoutInSeconds",
          "type": "uint256"
        }
      ],
      "name": "rewardFractional",
      "outputs": [],
      "payable": false,
      "stateMutability": "nonpayable",
      "type": "function"
    },
    {
      "constant": false,
      "inputs": [
        {
          "name": "wallet",
          "type": "address"
        },
        {
          "name": "amount",
          "type": "int256"
        },
        {
          "name": "currencyCt",
          "type": "address"
        },
        {
          "name": "currencyId",
          "type": "uint256"
        },
        {
          "name": "unlockTimeoutInSeconds",
          "type": "uint256"
        }
      ],
      "name": "rewardAbsolute",
      "outputs": [],
      "payable": false,
      "stateMutability": "nonpayable",
      "type": "function"
    },
    {
      "constant": false,
      "inputs": [
        {
          "name": "wallet",
          "type": "address"
        }
      ],
      "name": "depriveFractional",
      "outputs": [],
      "payable": false,
      "stateMutability": "nonpayable",
      "type": "function"
    },
    {
      "constant": false,
      "inputs": [
        {
          "name": "wallet",
          "type": "address"
        },
        {
          "name": "currencyCt",
          "type": "address"
        },
        {
          "name": "currencyId",
          "type": "uint256"
        }
      ],
      "name": "depriveAbsolute",
      "outputs": [],
      "payable": false,
      "stateMutability": "nonpayable",
      "type": "function"
    }
  ],
  "bytecode": "0x608060405234801561001057600080fd5b50604051602080610b01833981018060405261002f91908101906100ad565b8080600160a060020a038116151561004657600080fd5b600160a060020a03811630141561005c57600080fd5b506000805461010060a860020a031916610100600160a060020a039390931692830217905560018054600160a060020a0319169091179055506100df565b60006100a682516100d3565b9392505050565b6000602082840312156100bf57600080fd5b60006100cb848461009a565b949350505050565b600160a060020a031690565b610a13806100ee6000396000f3006080604052600436106100b65763ffffffff60e060020a6000350416632738a11281146100bb5780632f013a00146100d25780634476d23b146100fd5780634e791e0d1461011f578063570ca7351461013f578063574c508c146101545780636792ce6e146101745780636b0570d01461019457806370327ea1146101b6578063760b8292146101cb578063832f7832146101eb578063962147351461020b578063b3ab15fb1461022b578063d5f394881461024b575b600080fd5b3480156100c757600080fd5b506100d0610260565b005b3480156100de57600080fd5b506100e76102c6565b6040516100f49190610983565b60405180910390f35b34801561010957600080fd5b506101126102cf565b6040516100f491906108c5565b34801561012b57600080fd5b506100d061013a366004610789565b6102e3565b34801561014b57600080fd5b50610112610351565b34801561016057600080fd5b506100d061016f366004610763565b610360565b34801561018057600080fd5b506100d061018f36600461087d565b6103c8565b3480156101a057600080fd5b506101a961046f565b6040516100f49190610991565b3480156101c257600080fd5b506100d061047e565b3480156101d757600080fd5b506100d06101e636600461084b565b6104e1565b3480156101f757600080fd5b506100d06102063660046107d6565b610518565b34801561021757600080fd5b506100d0610226366004610763565b61058c565b34801561023757600080fd5b506100d0610246366004610763565b610653565b34801561025757600080fd5b506101126106fd565b336102696102cf565b600160a060020a03161461027c57600080fd5b60005460ff161561028c57600080fd5b7f787a5d936e74f4b564b9153575886059829c78cd9927b1be5e0d976b317ef736336040516102bb91906108c5565b60405180910390a133ff5b60005460ff1681565b6000546101009004600160a060020a031690565b60025460405160e060020a634e791e0d028152600160a060020a0390911690634e791e0d9061031a908690869086906004016108f4565b600060405180830381600087803b15801561033457600080fd5b505af1158015610348573d6000803e3d6000fd5b50505050505050565b600154600160a060020a031681565b60025460405160e260020a6315d31423028152600160a060020a039091169063574c508c906103939084906004016108c5565b600060405180830381600087803b1580156103ad57600080fd5b505af11580156103c1573d6000803e3d6000fd5b5050505050565b60006103d2610711565b15156103dd57600080fd5b81600160a060020a03811615156103f357600080fd5b6002548390600160a060020a0390811690821681146103c15760028054600160a060020a03878116600160a060020a0319831617909255604051911694507fc9f3f00c1760fe26985aeacb814a21c56ea289d680562e89b249681b08c3038290610460908690889061099f565b60405180910390a15050505050565b600254600160a060020a031681565b336104876102cf565b600160a060020a03161461049a57600080fd5b6000805460ff191660011790556040517fd5a2a04a775c741c2ca0dc46ea7ce4835190e1aaf1ca018def0e82568ec33616906104d79033906108c5565b60405180910390a1565b60025460405160e160020a633b05c149028152600160a060020a039091169063760b82929061031a90869086908690600401610968565b60025460405160e160020a634197bc19028152600160a060020a039091169063832f783290610553908890889088908890889060040161091c565b600060405180830381600087803b15801561056d57600080fd5b505af1158015610581573d6000803e3d6000fd5b505050505050505050565b6000610596610711565b15156105a157600080fd5b81600160a060020a03811615156105b757600080fd5b600160a060020a0381163014156105cd57600080fd5b600054600160a060020a03848116610100909204161461064e5760008054600160a060020a0385811661010090810261010060a860020a0319841617909355604051929091041692507f977e5fa58e458501775e0008d275006294c5249e3c08d1d0e3a9f3acad14f6e49061064590849086906108d9565b60405180910390a15b505050565b600061065d610727565b151561066857600080fd5b81600160a060020a038116151561067e57600080fd5b600160a060020a03811630141561069457600080fd5b600154600160a060020a0384811691161461064e5760018054600160a060020a03858116600160a060020a0319831617909255604051911692507f9f611b789425d0d5b90b920f1b2852907dd865c80074a30b1629aaa041d1812c9061064590849086906108d9565b6000546101009004600160a060020a031681565b6000546101009004600160a060020a0316331490565b600154600160a060020a0316331490565b600061074482356109ba565b9392505050565b600061074482356109ce565b600061074482356109cb565b60006020828403121561077557600080fd5b60006107818484610738565b949350505050565b60008060006060848603121561079e57600080fd5b60006107aa8686610738565b93505060206107bb86828701610738565b92505060406107cc86828701610757565b9150509250925092565b600080600080600060a086880312156107ee57600080fd5b60006107fa8888610738565b955050602061080b88828901610757565b945050604061081c88828901610738565b935050606061082d88828901610757565b925050608061083e88828901610757565b9150509295509295909350565b60008060006060848603121561086057600080fd5b600061086c8686610738565b93505060206107bb86828701610757565b60006020828403121561088f57600080fd5b6000610781848461074b565b6108a4816109ba565b82525050565b6108a4816109c6565b6108a4816109ce565b6108a4816109cb565b602081016108d3828461089b565b92915050565b604081016108e7828561089b565b610744602083018461089b565b60608101610902828661089b565b61090f602083018561089b565b61078160408301846108bc565b60a0810161092a828861089b565b61093760208301876108bc565b610944604083018661089b565b61095160608301856108bc565b61095e60808301846108bc565b9695505050505050565b60608101610976828661089b565b61090f60208301856108bc565b602081016108d382846108aa565b602081016108d382846108b3565b604081016109ad82856108b3565b61074460208301846108b3565b600160a060020a031690565b151590565b90565b60006108d3826109ba5600a265627a7a72305820d8d5d18c59e8bbe9e7477c3137f3dc18632903e3c438e66135abc78ec4bc24026c6578706572696d656e74616cf50037",
  "source": "/*\n * Hubii Nahmii\n *\n * Compliant with the Hubii Nahmii specification v0.12.\n *\n * Copyright (C) 2017-2018 Hubii AS\n */\n\npragma solidity ^0.4.25;\npragma experimental ABIEncoderV2;\n\nimport {Ownable} from \"../Ownable.sol\";\nimport {SecurityBondable} from \"../SecurityBondable.sol\";\nimport {Beneficiary} from \"../Beneficiary.sol\";\n\n/**\n * @title MockedSecurityBondService\n * @notice Mocked implementation of service contract that interacts with SecurityBond\n */\ncontract MockedSecurityBondService is Ownable, SecurityBondable {\n    //\n    // Constructor\n    // -----------------------------------------------------------------------------------------------------------------\n    constructor(address deployer) Ownable(deployer) public {\n    }\n\n    //\n    // Functions\n    // -----------------------------------------------------------------------------------------------------------------\n    function rewardFractional(address wallet, uint256 fraction, uint256 unlockTimeoutInSeconds)\n    public\n    {\n        securityBond.rewardFractional(wallet, fraction, unlockTimeoutInSeconds);\n    }\n\n    function rewardAbsolute(address wallet, int256 amount, address currencyCt, uint256 currencyId,\n        uint256 unlockTimeoutInSeconds)\n    public\n    {\n        securityBond.rewardAbsolute(wallet, amount, currencyCt, currencyId, unlockTimeoutInSeconds);\n    }\n\n    function depriveFractional(address wallet)\n    public\n    {\n        securityBond.depriveFractional(wallet);\n    }\n\n    function depriveAbsolute(address wallet, address currencyCt, uint256 currencyId)\n    public\n    {\n        securityBond.depriveAbsolute(wallet, currencyCt, currencyId);\n    }\n}",
  "sourcePath": "/opt/buildagent/work/855e104608380c36/contracts/test/MockedSecurityBondService.sol",
  "compiler": {
    "name": "solc",
    "version": "0.4.25+commit.59dbf8f1.Emscripten.clang"
  },
  "schemaVersion": "2.0.2",
  "updatedAt": "2019-04-02T06:20:37.135Z"
}