{
  "contractName": "MockedAccrualBeneficiary",
  "abi": [
    {
      "constant": true,
      "inputs": [],
      "name": "_closedAccrualPeriodsCount",
      "outputs": [
        {
          "name": "",
          "type": "uint256"
        }
      ],
      "payable": false,
      "stateMutability": "view",
      "type": "function"
    },
    {
      "constant": false,
      "inputs": [
        {
          "name": "wallet",
          "type": "address"
        },
        {
          "name": "balanceType",
          "type": "string"
        },
        {
          "name": "amount",
          "type": "int256"
        },
        {
          "name": "currencyCt",
          "type": "address"
        },
        {
          "name": "currencyId",
          "type": "uint256"
        },
        {
          "name": "standard",
          "type": "string"
        }
      ],
      "name": "receiveTokensTo",
      "outputs": [],
      "payable": false,
      "stateMutability": "nonpayable",
      "type": "function"
    },
    {
      "constant": false,
      "inputs": [
        {
          "name": "wallet",
          "type": "address"
        },
        {
          "name": "balanceType",
          "type": "string"
        }
      ],
      "name": "receiveEthersTo",
      "outputs": [],
      "payable": true,
      "stateMutability": "payable",
      "type": "function"
    },
    {
      "constant": true,
      "inputs": [
        {
          "name": "index",
          "type": "uint256"
        }
      ],
      "name": "_getBenefit",
      "outputs": [
        {
          "name": "wallet",
          "type": "address"
        },
        {
          "name": "balanceType",
          "type": "string"
        },
        {
          "name": "amount",
          "type": "int256"
        },
        {
          "name": "currencyCt",
          "type": "address"
        },
        {
          "name": "currencyId",
          "type": "uint256"
        },
        {
          "name": "standard",
          "type": "string"
        }
      ],
      "payable": false,
      "stateMutability": "view",
      "type": "function"
    },
    {
      "constant": true,
      "inputs": [
        {
          "name": "",
          "type": "uint256"
        }
      ],
      "name": "_benefits",
      "outputs": [
        {
          "name": "wallet",
          "type": "address"
        },
        {
          "name": "balanceType",
          "type": "string"
        },
        {
          "components": [
            {
              "name": "amount",
              "type": "int256"
            },
            {
              "components": [
                {
                  "name": "ct",
                  "type": "address"
                },
                {
                  "name": "id",
                  "type": "uint256"
                }
              ],
              "name": "currency",
              "type": "tuple"
            }
          ],
          "name": "figure",
          "type": "tuple"
        },
        {
          "name": "standard",
          "type": "string"
        }
      ],
      "payable": false,
      "stateMutability": "view",
      "type": "function"
    },
    {
      "anonymous": false,
      "inputs": [],
      "name": "CloseAccrualPeriodEvent",
      "type": "event"
    },
    {
      "constant": false,
      "inputs": [],
      "name": "_reset",
      "outputs": [],
      "payable": false,
      "stateMutability": "nonpayable",
      "type": "function"
    },
    {
      "constant": false,
      "inputs": [
        {
          "components": [
            {
              "name": "ct",
              "type": "address"
            },
            {
              "name": "id",
              "type": "uint256"
            }
          ],
          "name": "",
          "type": "tuple[]"
        }
      ],
      "name": "closeAccrualPeriod",
      "outputs": [],
      "payable": false,
      "stateMutability": "nonpayable",
      "type": "function"
    }
  ],
  "bytecode": "0x608060405234801561001057600080fd5b50610e00806100206000396000f3006080604052600436106100695763ffffffff60e060020a600035041663062df780811461006e5780631592f0ab14610099578063477fbc39146100b05780635f289651146100d0578063a7654a1f146100f0578063ab34a92c14610103578063d2c6a9b014610135575b600080fd5b34801561007a57600080fd5b50610083610165565b6040516100909190610cb3565b60405180910390f35b3480156100a557600080fd5b506100ae61016b565b005b3480156100bc57600080fd5b506100ae6100cb366004610b0c565b61017a565b3480156100dc57600080fd5b506100ae6100eb366004610a57565b610185565b6100ae6100fe366004610a06565b610292565b34801561010f57600080fd5b5061012361011e366004610b48565b6103a8565b60405161009096959493929190610c01565b34801561014157600080fd5b50610155610150366004610b48565b6105bc565b6040516100909493929190610c68565b60015481565b61017361074d565b6000600155565b506001805481019055565b60408051608081018252600160a060020a03888116825260208083018981528451808601865289815285518087018752898516815280840189905281840152948401949094526060830185905260008054600181018083559180528451600080516020610d8783398151915260069092029182018054600160a060020a0319169190951617845594518051919561023193600080516020610da78339815191529091019291019061075c565b506040820151805160028301556020908101518051600384018054600160a060020a031916600160a060020a03909216919091179055810151600483015560608301518051610286926005850192019061075c565b50505050505050505050565b60408051608081018252600160a060020a0384811682526020808301858152845180860186523481528551808701875260008082528185018190528285019190915285870191909152855180840190965280865260608501959095528454600181018087559580528451600080516020610d8783398151915260069092029182018054600160a060020a031916919095161784559051805161034b93600080516020610da783398151915290930192919091019061075c565b506040820151805160028301556020908101518051600384018054600160a060020a031916600160a060020a039092169190911790558101516004830155606083015180516103a0926005850192019061075c565b505050505050565b60006060600080600060606000878154811015156103c257fe5b600091825260208220600690910201548154600160a060020a039091169750889081106103eb57fe5b90600052602060002090600602016001018054600181600116156101000203166002900480601f0160208091040260200160405190810160405280929190818152602001828054600181600116156101000203166002900480156104905780601f1061046557610100808354040283529160200191610490565b820191906000526020600020905b81548152906001019060200180831161047357829003601f168201915b505050505094506000878154811015156104a657fe5b600091825260208220600260069092020101548154909550889081106104c857fe5b600091825260208220600360069092020101548154600160a060020a039091169450889081106104f457fe5b6000918252602082206004600690920201015481549093508890811061051657fe5b6000918252602091829020600560069092020101805460408051601f60026000196101006001871615020190941693909304928301859004850281018501909152818152928301828280156105ac5780601f10610581576101008083540402835291602001916105ac565b820191906000526020600020905b81548152906001019060200180831161058f57829003601f168201915b5050505050905091939550919395565b60008054829081106105ca57fe5b600091825260209182902060069091020180546001808301805460408051601f6002600019968516156101000296909601909316949094049182018790048702840187019052808352600160a060020a0390931695509293909291908301828280156106775780601f1061064c57610100808354040283529160200191610677565b820191906000526020600020905b81548152906001019060200180831161065a57829003601f168201915b50506040805180820182526002878101548252825180840184526003890154600160a060020a0316815260048901546020808301919091528084019190915260058901805485516101006001831615026000190190911693909304601f8101839004830284018301909552848352979892979296509094509092508301828280156107435780601f1061071857610100808354040283529160200191610743565b820191906000526020600020905b81548152906001019060200180831161072657829003601f168201915b5050505050905084565b600061075981806107da565b50565b828054600181600116156101000203166002900490600052602060002090601f016020900481019282601f1061079d57805160ff19168380011785556107ca565b828001600101855582156107ca579182015b828111156107ca5782518255916020019190600101906107af565b506107d692915061080b565b5090565b815481835581811115610806576006028160060283600052602060002091820191016108069190610828565b505050565b61082591905b808211156107d65760008155600101610811565b90565b61082591905b808211156107d6578054600160a060020a03191681556000610853600183018261088c565b600060028301819055600383018054600160a060020a03191690556004830181905561088390600584019061088c565b5060060161082e565b50805460018160011615610100020316600290046000825580601f106108b25750610759565b601f016020900490600052602060002090810190610759919061080b565b60006108dc8235610d38565b9392505050565b6000601f820183136108f457600080fd5b813561090761090282610ced565b610cc7565b9150818183526020840193506020810190508385604084028201111561092c57600080fd5b60005b8381101561095a578161094288826109bf565b8452506020909201916040919091019060010161092f565b5050505092915050565b60006108dc8235610825565b6000601f8201831361098157600080fd5b813561098f61090282610d0d565b915080825260208301602083018583830111156109ab57600080fd5b6109b6838284610d44565b50505092915050565b6000604082840312156109d157600080fd5b6109db6040610cc7565b905060006109e984846108d0565b82525060206109fa84848301610964565b60208301525092915050565b60008060408385031215610a1957600080fd5b6000610a2585856108d0565b92505060208301356001604060020a03811115610a4157600080fd5b610a4d85828601610970565b9150509250929050565b60008060008060008060c08789031215610a7057600080fd5b6000610a7c89896108d0565b96505060208701356001604060020a03811115610a9857600080fd5b610aa489828a01610970565b9550506040610ab589828a01610964565b9450506060610ac689828a016108d0565b9350506080610ad789828a01610964565b92505060a08701356001604060020a03811115610af357600080fd5b610aff89828a01610970565b9150509295509295509295565b600060208284031215610b1e57600080fd5b81356001604060020a03811115610b3457600080fd5b610b40848285016108e3565b949350505050565b600060208284031215610b5a57600080fd5b6000610b408484610964565b610b6f81610d38565b82525050565b610b6f81610825565b6000610b8982610d34565b808452610b9d816020860160208601610d50565b610ba681610d7c565b9093016020019392505050565b80516040830190610bc48482610b66565b506020820151610bd76020850182610b75565b50505050565b80516060830190610bee8482610b75565b506020820151610bd76020850182610bb3565b60c08101610c0f8289610b66565b8181036020830152610c218188610b7e565b9050610c306040830187610b75565b610c3d6060830186610b66565b610c4a6080830185610b75565b81810360a0830152610c5c8184610b7e565b98975050505050505050565b60c08101610c768287610b66565b8181036020830152610c888186610b7e565b9050610c976040830185610bdd565b81810360a0830152610ca98184610b7e565b9695505050505050565b60208101610cc18284610b75565b92915050565b6040518181016001604060020a0381118282101715610ce557600080fd5b604052919050565b60006001604060020a03821115610d0357600080fd5b5060209081020190565b60006001604060020a03821115610d2357600080fd5b506020601f91909101601f19160190565b5190565b600160a060020a031690565b82818337506000910152565b60005b83811015610d6b578181015183820152602001610d53565b83811115610bd75750506000910152565b601f01601f1916905600290decd9548b62a8d60345a988386fc84ba6bc95484008f6362f93160ef3e563290decd9548b62a8d60345a988386fc84ba6bc95484008f6362f93160ef3e564a265627a7a72305820dca2b9430722a164cc55ef957b4587c11ee76d3215362fb6224828fa0ec772c86c6578706572696d656e74616cf50037",
  "source": "/*\n * Hubii Nahmii\n *\n * Compliant with the Hubii Nahmii specification v0.12.\n *\n * Copyright (C) 2017-2018 Hubii AS\n */\n\npragma solidity ^0.4.25;\npragma experimental ABIEncoderV2;\n\nimport {AccrualBeneficiary} from \"../AccrualBeneficiary.sol\";\nimport {MockedBeneficiary} from \"./MockedBeneficiary.sol\";\nimport {MonetaryTypesLib} from \"../MonetaryTypesLib.sol\";\n\n/**\n * @title MockedAccrualBeneficiary\n * @notice Mocked implementation of accrual beneficiary\n */\ncontract MockedAccrualBeneficiary is AccrualBeneficiary, MockedBeneficiary {\n    //\n    // Variables\n    // -----------------------------------------------------------------------------------------------------------------\n    uint256 public _closedAccrualPeriodsCount;\n\n    //\n    // Functions\n    // -----------------------------------------------------------------------------------------------------------------\n    function _reset()\n    public\n    {\n        super._reset();\n        _closedAccrualPeriodsCount = 0;\n    }\n\n    function closeAccrualPeriod(MonetaryTypesLib.Currency[])\n    public\n    {\n        _closedAccrualPeriodsCount++;\n    }\n}",
  "sourcePath": "/opt/buildagent/work/855e104608380c36/contracts/test/MockedAccrualBeneficiary.sol",
  "compiler": {
    "name": "solc",
    "version": "0.4.25+commit.59dbf8f1.Emscripten.clang"
  },
  "schemaVersion": "2.0.2",
  "updatedAt": "2019-04-02T06:20:37.104Z"
}