{
  "contractName": "MockedClientFundService",
  "abi": [
    {
      "inputs": [
        {
          "internalType": "address",
          "name": "deployer",
          "type": "address"
        }
      ],
      "payable": false,
      "stateMutability": "nonpayable",
      "type": "constructor"
    },
    {
      "anonymous": false,
      "inputs": [
        {
          "indexed": false,
          "internalType": "address",
          "name": "wallet",
          "type": "address"
        }
      ],
      "name": "SelfDestructionDisabledEvent",
      "type": "event"
    },
    {
      "anonymous": false,
      "inputs": [
        {
          "indexed": false,
          "internalType": "contract ClientFund",
          "name": "oldClientFund",
          "type": "address"
        },
        {
          "indexed": false,
          "internalType": "contract ClientFund",
          "name": "newClientFund",
          "type": "address"
        }
      ],
      "name": "SetClientFundEvent",
      "type": "event"
    },
    {
      "anonymous": false,
      "inputs": [
        {
          "indexed": false,
          "internalType": "address",
          "name": "oldDeployer",
          "type": "address"
        },
        {
          "indexed": false,
          "internalType": "address",
          "name": "newDeployer",
          "type": "address"
        }
      ],
      "name": "SetDeployerEvent",
      "type": "event"
    },
    {
      "anonymous": false,
      "inputs": [
        {
          "indexed": false,
          "internalType": "address",
          "name": "oldOperator",
          "type": "address"
        },
        {
          "indexed": false,
          "internalType": "address",
          "name": "newOperator",
          "type": "address"
        }
      ],
      "name": "SetOperatorEvent",
      "type": "event"
    },
    {
      "anonymous": false,
      "inputs": [
        {
          "indexed": false,
          "internalType": "address",
          "name": "wallet",
          "type": "address"
        }
      ],
      "name": "TriggerSelfDestructionEvent",
      "type": "event"
    },
    {
      "constant": true,
      "inputs": [],
      "name": "clientFund",
      "outputs": [
        {
          "internalType": "contract ClientFund",
          "name": "",
          "type": "address"
        }
      ],
      "payable": false,
      "stateMutability": "view",
      "type": "function"
    },
    {
      "constant": true,
      "inputs": [],
      "name": "deployer",
      "outputs": [
        {
          "internalType": "address",
          "name": "",
          "type": "address"
        }
      ],
      "payable": false,
      "stateMutability": "view",
      "type": "function"
    },
    {
      "constant": true,
      "inputs": [],
      "name": "destructor",
      "outputs": [
        {
          "internalType": "address",
          "name": "",
          "type": "address"
        }
      ],
      "payable": false,
      "stateMutability": "view",
      "type": "function"
    },
    {
      "constant": false,
      "inputs": [],
      "name": "disableSelfDestruction",
      "outputs": [],
      "payable": false,
      "stateMutability": "nonpayable",
      "type": "function"
    },
    {
      "constant": true,
      "inputs": [],
      "name": "operator",
      "outputs": [
        {
          "internalType": "address",
          "name": "",
          "type": "address"
        }
      ],
      "payable": false,
      "stateMutability": "view",
      "type": "function"
    },
    {
      "constant": true,
      "inputs": [],
      "name": "selfDestructionDisabled",
      "outputs": [
        {
          "internalType": "bool",
          "name": "",
          "type": "bool"
        }
      ],
      "payable": false,
      "stateMutability": "view",
      "type": "function"
    },
    {
      "constant": false,
      "inputs": [
        {
          "internalType": "contract ClientFund",
          "name": "newClientFund",
          "type": "address"
        }
      ],
      "name": "setClientFund",
      "outputs": [],
      "payable": false,
      "stateMutability": "nonpayable",
      "type": "function"
    },
    {
      "constant": false,
      "inputs": [
        {
          "internalType": "address",
          "name": "newDeployer",
          "type": "address"
        }
      ],
      "name": "setDeployer",
      "outputs": [],
      "payable": false,
      "stateMutability": "nonpayable",
      "type": "function"
    },
    {
      "constant": false,
      "inputs": [
        {
          "internalType": "address",
          "name": "newOperator",
          "type": "address"
        }
      ],
      "name": "setOperator",
      "outputs": [],
      "payable": false,
      "stateMutability": "nonpayable",
      "type": "function"
    },
    {
      "constant": false,
      "inputs": [],
      "name": "triggerSelfDestruction",
      "outputs": [],
      "payable": false,
      "stateMutability": "nonpayable",
      "type": "function"
    },
    {
      "constant": false,
      "inputs": [
        {
          "internalType": "address",
          "name": "wallet",
          "type": "address"
        },
        {
          "internalType": "int256",
          "name": "amount",
          "type": "int256"
        },
        {
          "internalType": "address",
          "name": "currencyCt",
          "type": "address"
        },
        {
          "internalType": "uint256",
          "name": "currencyId",
          "type": "uint256"
        },
        {
          "internalType": "string",
          "name": "standard",
          "type": "string"
        },
        {
          "internalType": "uint256",
          "name": "blockNumber",
          "type": "uint256"
        }
      ],
      "name": "updateSettledBalance",
      "outputs": [],
      "payable": false,
      "stateMutability": "nonpayable",
      "type": "function"
    },
    {
      "constant": false,
      "inputs": [
        {
          "internalType": "address",
          "name": "wallet",
          "type": "address"
        },
        {
          "internalType": "int256",
          "name": "amount",
          "type": "int256"
        },
        {
          "internalType": "address",
          "name": "currencyCt",
          "type": "address"
        },
        {
          "internalType": "uint256",
          "name": "currencyId",
          "type": "uint256"
        },
        {
          "internalType": "string",
          "name": "standard",
          "type": "string"
        }
      ],
      "name": "stage",
      "outputs": [],
      "payable": false,
      "stateMutability": "nonpayable",
      "type": "function"
    },
    {
      "constant": false,
      "inputs": [
        {
          "internalType": "address",
          "name": "wallet",
          "type": "address"
        },
        {
          "internalType": "contract Beneficiary",
          "name": "beneficiary",
          "type": "address"
        },
        {
          "internalType": "int256",
          "name": "amount",
          "type": "int256"
        },
        {
          "internalType": "address",
          "name": "currencyCt",
          "type": "address"
        },
        {
          "internalType": "uint256",
          "name": "currencyId",
          "type": "uint256"
        },
        {
          "internalType": "string",
          "name": "standard",
          "type": "string"
        }
      ],
      "name": "stageToBeneficiary",
      "outputs": [],
      "payable": false,
      "stateMutability": "nonpayable",
      "type": "function"
    },
    {
      "constant": false,
      "inputs": [
        {
          "internalType": "address",
          "name": "wallet",
          "type": "address"
        },
        {
          "internalType": "contract Beneficiary",
          "name": "beneficiary",
          "type": "address"
        },
        {
          "internalType": "int256",
          "name": "amount",
          "type": "int256"
        },
        {
          "internalType": "address",
          "name": "currencyCt",
          "type": "address"
        },
        {
          "internalType": "uint256",
          "name": "currencyId",
          "type": "uint256"
        },
        {
          "internalType": "string",
          "name": "standard",
          "type": "string"
        }
      ],
      "name": "transferToBeneficiary",
      "outputs": [],
      "payable": false,
      "stateMutability": "nonpayable",
      "type": "function"
    }
  ],
  "bytecode": "0x608060405234801561001057600080fd5b50604051610cef380380610cef83398101604081905261002f916100a9565b80806001600160a01b03811661004457600080fd5b6001600160a01b03811630141561005a57600080fd5b5060008054610100600160a81b0319166101006001600160a01b0393909316928302179055600180546001600160a01b0319169091179055506100f7565b80516100a3816100e0565b92915050565b6000602082840312156100bb57600080fd5b60006100c78484610098565b949350505050565b60006001600160a01b0382166100a3565b6100e9816100cf565b81146100f457600080fd5b50565b610be9806101066000396000f3fe608060405234801561001057600080fd5b50600436106100ba5760003560e01c8063158a0342146100bf5780632738a112146100d45780632f013a00146100dc5780634476d23b146100fa578063570ca7351461010f57806364ba47521461011757806370327ea11461012a5780639621473514610132578063ad468df914610145578063b3ab15fb14610158578063b71ded2f1461016b578063d5f394881461017e578063e754476f14610186578063f8297dbe1461019b575b600080fd5b6100d26100cd3660046106eb565b6101ae565b005b6100d2610222565b6100e4610288565b6040516100f19190610a75565b60405180910390f35b610102610291565b6040516100f1919061092f565b6101026102a5565b6100d2610125366004610815565b6102b4565b6100d26102ee565b6100d26101403660046106c5565b610351565b6100d2610153366004610789565b610411565b6100d26101663660046106c5565b610482565b6100d26101793660046108a6565b610525565b6101026105c6565b61018e6105da565b6040516100f19190610a83565b6100d26101a93660046106eb565b6105e9565b600254604051630ac501a160e11b81526001600160a01b039091169063158a0342906101e89089908990899089908990899060040161096d565b600060405180830381600087803b15801561020257600080fd5b505af1158015610216573d6000803e3d6000fd5b50505050505050505050565b3361022b610291565b6001600160a01b03161461023e57600080fd5b60005460ff161561024e57600080fd5b7f787a5d936e74f4b564b9153575886059829c78cd9927b1be5e0d976b317ef7363360405161027d919061093d565b60405180910390a133ff5b60005460ff1681565b60005461010090046001600160a01b031690565b6001546001600160a01b031681565b60025460405163325d23a960e11b81526001600160a01b03909116906364ba4752906101e890899089908990899089908990600401610a1f565b336102f7610291565b6001600160a01b03161461030a57600080fd5b6000805460ff191660011790556040517fd5a2a04a775c741c2ca0dc46ea7ce4835190e1aaf1ca018def0e82568ec336169061034790339061093d565b60405180910390a1565b610359610623565b61036257600080fd5b806001600160a01b03811661037657600080fd5b6001600160a01b03811630141561038c57600080fd5b6000546001600160a01b03838116610100909204161461040d57600080546001600160a01b03848116610100908102610100600160a81b03198416179093556040519290910416907f977e5fa58e458501775e0008d275006294c5249e3c08d1d0e3a9f3acad14f6e490610403908390869061094b565b60405180910390a1505b5050565b60025460405163ad468df960e01b81526001600160a01b039091169063ad468df99061044990889088908890889088906004016109cd565b600060405180830381600087803b15801561046357600080fd5b505af1158015610477573d6000803e3d6000fd5b505050505050505050565b61048a610639565b61049357600080fd5b806001600160a01b0381166104a757600080fd5b6001600160a01b0381163014156104bd57600080fd5b6001546001600160a01b0383811691161461040d57600180546001600160a01b038481166001600160a01b03198316179092556040519116907f9f611b789425d0d5b90b920f1b2852907dd865c80074a30b1629aaa041d1812c90610403908390869061094b565b61052d610623565b61053657600080fd5b806001600160a01b03811661054a57600080fd5b60025482906001600160a01b0390811690821681146105c057600280546001600160a01b038681166001600160a01b03198316179092556040519116907f4d96d2a04c886b313bd1e28be6324ed4c8867b3203e512756722f8be0195e16d906105b69083908890610a91565b60405180910390a1505b50505050565b60005461010090046001600160a01b031681565b6002546001600160a01b031681565b600254604051637c14bedf60e11b81526001600160a01b039091169063f8297dbe906101e89089908990899089908990899060040161096d565b60005461010090046001600160a01b0316331490565b6001546001600160a01b0316331490565b803561065581610b7d565b92915050565b803561065581610b94565b803561065581610b9d565b600082601f83011261068257600080fd5b813561069561069082610ad2565b610aac565b915080825260208301602083018583830111156106b157600080fd5b6106bc838284610b3b565b50505092915050565b6000602082840312156106d757600080fd5b60006106e3848461064a565b949350505050565b60008060008060008060c0878903121561070457600080fd5b6000610710898961064a565b965050602061072189828a0161065b565b955050604061073289828a01610666565b945050606061074389828a0161064a565b935050608061075489828a01610666565b92505060a08701356001600160401b0381111561077057600080fd5b61077c89828a01610671565b9150509295509295509295565b600080600080600060a086880312156107a157600080fd5b60006107ad888861064a565b95505060206107be88828901610666565b94505060406107cf8882890161064a565b93505060606107e088828901610666565b92505060808601356001600160401b038111156107fc57600080fd5b61080888828901610671565b9150509295509295909350565b60008060008060008060c0878903121561082e57600080fd5b600061083a898961064a565b965050602061084b89828a01610666565b955050604061085c89828a0161064a565b945050606061086d89828a01610666565b93505060808701356001600160401b0381111561088957600080fd5b61089589828a01610671565b92505060a061077c89828a01610666565b6000602082840312156108b857600080fd5b60006106e3848461065b565b6108cd81610b30565b82525050565b6108cd81610b06565b6108cd81610b11565b6108cd81610b16565b6108cd81610b21565b600061090282610af9565b61090c8185610afd565b935061091c818560208601610b47565b61092581610b73565b9093019392505050565b6020810161065582846108d3565b6020810161065582846108c4565b6040810161095982856108d3565b61096660208301846108d3565b9392505050565b60c0810161097b82896108d3565b61098860208301886108e5565b61099560408301876108ee565b6109a260608301866108d3565b6109af60808301856108ee565b81810360a08301526109c181846108f7565b98975050505050505050565b60a081016109db82886108d3565b6109e860208301876108ee565b6109f560408301866108d3565b610a0260608301856108ee565b8181036080830152610a1481846108f7565b979650505050505050565b60c08101610a2d82896108d3565b610a3a60208301886108ee565b610a4760408301876108d3565b610a5460608301866108ee565b8181036080830152610a6681856108f7565b9050610a1460a08301846108ee565b6020810161065582846108dc565b6020810161065582846108e5565b60408101610a9f82856108e5565b61096660208301846108e5565b6040518181016001600160401b0381118282101715610aca57600080fd5b604052919050565b60006001600160401b03821115610ae857600080fd5b506020601f91909101601f19160190565b5190565b90815260200190565b600061065582610b24565b151590565b600061065582610b06565b90565b6001600160a01b031690565b600061065582610b16565b82818337506000910152565b60005b83811015610b62578181015183820152602001610b4a565b838111156105c05750506000910152565b601f01601f191690565b610b8681610b06565b8114610b9157600080fd5b50565b610b8681610b16565b610b8681610b2156fea365627a7a7231582053f3ee8d695e6b5ddb77ecace1d92f096c8579d182849b8165094f9cd7a799f76c6578706572696d656e74616cf564736f6c634300050c0040",
  "source": "/*\n * Hubii Nahmii\n *\n * Compliant with the Hubii Nahmii specification v0.12.\n *\n * Copyright (C) 2017-2018 Hubii AS\n */\n\npragma solidity >=0.4.25 <0.6.0;\npragma experimental ABIEncoderV2;\n\nimport {Ownable} from \"../Ownable.sol\";\nimport {ClientFundable} from \"../ClientFundable.sol\";\nimport {Beneficiary} from \"../Beneficiary.sol\";\n\n/**\n * @title MockedClientFundService\n * @notice Mocked implementation of service contract that interacts with ClientFund\n */\ncontract MockedClientFundService is Ownable, ClientFundable {\n    //\n    // Constructor\n    // -----------------------------------------------------------------------------------------------------------------\n    constructor(address deployer) Ownable(deployer) public {\n    }\n\n    //\n    // Functions\n    // -----------------------------------------------------------------------------------------------------------------\n    function updateSettledBalance(address wallet, int256 amount, address currencyCt, uint256 currencyId,\n        string memory standard, uint256 blockNumber)\n    public\n    {\n        clientFund.updateSettledBalance(wallet, amount, currencyCt, currencyId, standard, blockNumber);\n    }\n\n    function stage(address wallet, int256 amount, address currencyCt, uint256 currencyId, string memory standard)\n    public\n    {\n        clientFund.stage(wallet, amount, currencyCt, currencyId, standard);\n    }\n\n    function stageToBeneficiary(address wallet, Beneficiary beneficiary, int256 amount,\n        address currencyCt, uint256 currencyId, string memory standard)\n    public\n    {\n        clientFund.stageToBeneficiary(wallet, beneficiary, amount, currencyCt, currencyId, standard);\n    }\n\n    function transferToBeneficiary(address wallet, Beneficiary beneficiary, int256 amount,\n        address currencyCt, uint256 currencyId, string memory standard)\n    public\n    {\n        clientFund.transferToBeneficiary(wallet, beneficiary, amount, currencyCt, currencyId, standard);\n    }\n}",
  "sourcePath": "/opt/buildagent/work/855e104608380c36/contracts/test/MockedClientFundService.sol",
  "compiler": {
    "name": "solc",
    "version": "0.5.12+commit.7709ece9.Emscripten.clang"
  },
  "schemaVersion": "2.0.3",
  "updatedAt": "2019-10-22T21:00:29.566Z"
}