{
  "contractName": "NullSettlementDispute",
  "abi": [
    {
      "constant": false,
      "inputs": [
        {
          "name": "newFraudChallenge",
          "type": "address"
        }
      ],
      "name": "setFraudChallenge",
      "outputs": [],
      "payable": false,
      "stateMutability": "nonpayable",
      "type": "function"
    },
    {
      "constant": true,
      "inputs": [],
      "name": "cancelOrdersChallenge",
      "outputs": [
        {
          "name": "",
          "type": "address"
        }
      ],
      "payable": false,
      "stateMutability": "view",
      "type": "function"
    },
    {
      "constant": false,
      "inputs": [
        {
          "name": "newValidator",
          "type": "address"
        }
      ],
      "name": "setValidator",
      "outputs": [],
      "payable": false,
      "stateMutability": "nonpayable",
      "type": "function"
    },
    {
      "constant": true,
      "inputs": [],
      "name": "walletLockerFrozen",
      "outputs": [
        {
          "name": "",
          "type": "bool"
        }
      ],
      "payable": false,
      "stateMutability": "view",
      "type": "function"
    },
    {
      "constant": false,
      "inputs": [],
      "name": "triggerSelfDestruction",
      "outputs": [],
      "payable": false,
      "stateMutability": "nonpayable",
      "type": "function"
    },
    {
      "constant": true,
      "inputs": [],
      "name": "selfDestructionDisabled",
      "outputs": [
        {
          "name": "",
          "type": "bool"
        }
      ],
      "payable": false,
      "stateMutability": "view",
      "type": "function"
    },
    {
      "constant": true,
      "inputs": [],
      "name": "validator",
      "outputs": [
        {
          "name": "",
          "type": "address"
        }
      ],
      "payable": false,
      "stateMutability": "view",
      "type": "function"
    },
    {
      "constant": true,
      "inputs": [],
      "name": "fraudChallenge",
      "outputs": [
        {
          "name": "",
          "type": "address"
        }
      ],
      "payable": false,
      "stateMutability": "view",
      "type": "function"
    },
    {
      "constant": false,
      "inputs": [
        {
          "name": "newCancelOrdersChallenge",
          "type": "address"
        }
      ],
      "name": "setCancelOrdersChallenge",
      "outputs": [],
      "payable": false,
      "stateMutability": "nonpayable",
      "type": "function"
    },
    {
      "constant": true,
      "inputs": [],
      "name": "destructor",
      "outputs": [
        {
          "name": "",
          "type": "address"
        }
      ],
      "payable": false,
      "stateMutability": "view",
      "type": "function"
    },
    {
      "constant": true,
      "inputs": [],
      "name": "operator",
      "outputs": [
        {
          "name": "",
          "type": "address"
        }
      ],
      "payable": false,
      "stateMutability": "view",
      "type": "function"
    },
    {
      "constant": false,
      "inputs": [],
      "name": "freezeWalletLocker",
      "outputs": [],
      "payable": false,
      "stateMutability": "nonpayable",
      "type": "function"
    },
    {
      "constant": false,
      "inputs": [
        {
          "name": "newConfiguration",
          "type": "address"
        }
      ],
      "name": "setConfiguration",
      "outputs": [],
      "payable": false,
      "stateMutability": "nonpayable",
      "type": "function"
    },
    {
      "constant": false,
      "inputs": [
        {
          "name": "newSecurityBond",
          "type": "address"
        }
      ],
      "name": "setSecurityBond",
      "outputs": [],
      "payable": false,
      "stateMutability": "nonpayable",
      "type": "function"
    },
    {
      "constant": true,
      "inputs": [],
      "name": "securityBond",
      "outputs": [
        {
          "name": "",
          "type": "address"
        }
      ],
      "payable": false,
      "stateMutability": "view",
      "type": "function"
    },
    {
      "constant": true,
      "inputs": [],
      "name": "configuration",
      "outputs": [
        {
          "name": "",
          "type": "address"
        }
      ],
      "payable": false,
      "stateMutability": "view",
      "type": "function"
    },
    {
      "constant": false,
      "inputs": [],
      "name": "disableSelfDestruction",
      "outputs": [],
      "payable": false,
      "stateMutability": "nonpayable",
      "type": "function"
    },
    {
      "constant": false,
      "inputs": [
        {
          "name": "newWalletLocker",
          "type": "address"
        }
      ],
      "name": "setWalletLocker",
      "outputs": [],
      "payable": false,
      "stateMutability": "nonpayable",
      "type": "function"
    },
    {
      "constant": false,
      "inputs": [
        {
          "name": "newDeployer",
          "type": "address"
        }
      ],
      "name": "setDeployer",
      "outputs": [],
      "payable": false,
      "stateMutability": "nonpayable",
      "type": "function"
    },
    {
      "constant": true,
      "inputs": [],
      "name": "nullSettlementChallenge",
      "outputs": [
        {
          "name": "",
          "type": "address"
        }
      ],
      "payable": false,
      "stateMutability": "view",
      "type": "function"
    },
    {
      "constant": false,
      "inputs": [
        {
          "name": "newOperator",
          "type": "address"
        }
      ],
      "name": "setOperator",
      "outputs": [],
      "payable": false,
      "stateMutability": "nonpayable",
      "type": "function"
    },
    {
      "constant": true,
      "inputs": [],
      "name": "deployer",
      "outputs": [
        {
          "name": "",
          "type": "address"
        }
      ],
      "payable": false,
      "stateMutability": "view",
      "type": "function"
    },
    {
      "constant": true,
      "inputs": [],
      "name": "walletLocker",
      "outputs": [
        {
          "name": "",
          "type": "address"
        }
      ],
      "payable": false,
      "stateMutability": "view",
      "type": "function"
    },
    {
      "inputs": [
        {
          "name": "deployer",
          "type": "address"
        }
      ],
      "payable": false,
      "stateMutability": "nonpayable",
      "type": "constructor"
    },
    {
      "anonymous": false,
      "inputs": [
        {
          "indexed": false,
          "name": "oldNullSettlementChallenge",
          "type": "address"
        },
        {
          "indexed": false,
          "name": "newNullSettlementChallenge",
          "type": "address"
        }
      ],
      "name": "SetNullSettlementChallengeEvent",
      "type": "event"
    },
    {
      "anonymous": false,
      "inputs": [
        {
          "indexed": false,
          "name": "wallet",
          "type": "address"
        },
        {
          "indexed": false,
          "name": "nonce",
          "type": "uint256"
        },
        {
          "indexed": false,
          "name": "candidateHash",
          "type": "bytes32"
        },
        {
          "indexed": false,
          "name": "challenger",
          "type": "address"
        }
      ],
      "name": "ChallengeByOrderEvent",
      "type": "event"
    },
    {
      "anonymous": false,
      "inputs": [
        {
          "indexed": false,
          "name": "wallet",
          "type": "address"
        },
        {
          "indexed": false,
          "name": "nonce",
          "type": "uint256"
        },
        {
          "indexed": false,
          "name": "candidateHash",
          "type": "bytes32"
        },
        {
          "indexed": false,
          "name": "challenger",
          "type": "address"
        }
      ],
      "name": "ChallengeByTradeEvent",
      "type": "event"
    },
    {
      "anonymous": false,
      "inputs": [
        {
          "indexed": false,
          "name": "wallet",
          "type": "address"
        },
        {
          "indexed": false,
          "name": "nonce",
          "type": "uint256"
        },
        {
          "indexed": false,
          "name": "candidateHash",
          "type": "bytes32"
        },
        {
          "indexed": false,
          "name": "challenger",
          "type": "address"
        }
      ],
      "name": "ChallengeByPaymentEvent",
      "type": "event"
    },
    {
      "anonymous": false,
      "inputs": [
        {
          "indexed": false,
          "name": "oldCancelOrdersChallenge",
          "type": "address"
        },
        {
          "indexed": false,
          "name": "newCancelOrdersChallenge",
          "type": "address"
        }
      ],
      "name": "SetCancelOrdersChallengeEvent",
      "type": "event"
    },
    {
      "anonymous": false,
      "inputs": [
        {
          "indexed": false,
          "name": "oldFraudChallenge",
          "type": "address"
        },
        {
          "indexed": false,
          "name": "newFraudChallenge",
          "type": "address"
        }
      ],
      "name": "SetFraudChallengeEvent",
      "type": "event"
    },
    {
      "anonymous": false,
      "inputs": [
        {
          "indexed": false,
          "name": "oldWalletLocker",
          "type": "address"
        },
        {
          "indexed": false,
          "name": "newWalletLocker",
          "type": "address"
        }
      ],
      "name": "SetWalletLockerEvent",
      "type": "event"
    },
    {
      "anonymous": false,
      "inputs": [],
      "name": "FreezeWalletLockerEvent",
      "type": "event"
    },
    {
      "anonymous": false,
      "inputs": [
        {
          "indexed": false,
          "name": "oldSecurityBond",
          "type": "address"
        },
        {
          "indexed": false,
          "name": "newSecurityBond",
          "type": "address"
        }
      ],
      "name": "SetSecurityBondEvent",
      "type": "event"
    },
    {
      "anonymous": false,
      "inputs": [
        {
          "indexed": false,
          "name": "oldValidator",
          "type": "address"
        },
        {
          "indexed": false,
          "name": "newValidator",
          "type": "address"
        }
      ],
      "name": "SetValidatorEvent",
      "type": "event"
    },
    {
      "anonymous": false,
      "inputs": [
        {
          "indexed": false,
          "name": "oldConfiguration",
          "type": "address"
        },
        {
          "indexed": false,
          "name": "newConfiguration",
          "type": "address"
        }
      ],
      "name": "SetConfigurationEvent",
      "type": "event"
    },
    {
      "anonymous": false,
      "inputs": [
        {
          "indexed": false,
          "name": "oldDeployer",
          "type": "address"
        },
        {
          "indexed": false,
          "name": "newDeployer",
          "type": "address"
        }
      ],
      "name": "SetDeployerEvent",
      "type": "event"
    },
    {
      "anonymous": false,
      "inputs": [
        {
          "indexed": false,
          "name": "oldOperator",
          "type": "address"
        },
        {
          "indexed": false,
          "name": "newOperator",
          "type": "address"
        }
      ],
      "name": "SetOperatorEvent",
      "type": "event"
    },
    {
      "anonymous": false,
      "inputs": [
        {
          "indexed": false,
          "name": "wallet",
          "type": "address"
        }
      ],
      "name": "SelfDestructionDisabledEvent",
      "type": "event"
    },
    {
      "anonymous": false,
      "inputs": [
        {
          "indexed": false,
          "name": "wallet",
          "type": "address"
        }
      ],
      "name": "TriggerSelfDestructionEvent",
      "type": "event"
    },
    {
      "constant": false,
      "inputs": [
        {
          "name": "newNullSettlementChallenge",
          "type": "address"
        }
      ],
      "name": "setNullSettlementChallenge",
      "outputs": [],
      "payable": false,
      "stateMutability": "nonpayable",
      "type": "function"
    },
    {
      "constant": false,
      "inputs": [
        {
          "components": [
            {
              "name": "nonce",
              "type": "uint256"
            },
            {
              "name": "wallet",
              "type": "address"
            },
            {
              "components": [
                {
                  "name": "intention",
                  "type": "uint8"
                },
                {
                  "name": "amount",
                  "type": "int256"
                },
                {
                  "components": [
                    {
                      "components": [
                        {
                          "name": "ct",
                          "type": "address"
                        },
                        {
                          "name": "id",
                          "type": "uint256"
                        }
                      ],
                      "name": "intended",
                      "type": "tuple"
                    },
                    {
                      "components": [
                        {
                          "name": "ct",
                          "type": "address"
                        },
                        {
                          "name": "id",
                          "type": "uint256"
                        }
                      ],
                      "name": "conjugate",
                      "type": "tuple"
                    }
                  ],
                  "name": "currencies",
                  "type": "tuple"
                },
                {
                  "name": "rate",
                  "type": "int256"
                },
                {
                  "components": [
                    {
                      "name": "current",
                      "type": "int256"
                    },
                    {
                      "name": "previous",
                      "type": "int256"
                    }
                  ],
                  "name": "residuals",
                  "type": "tuple"
                }
              ],
              "name": "placement",
              "type": "tuple"
            },
            {
              "components": [
                {
                  "components": [
                    {
                      "name": "hash",
                      "type": "bytes32"
                    },
                    {
                      "components": [
                        {
                          "name": "r",
                          "type": "bytes32"
                        },
                        {
                          "name": "s",
                          "type": "bytes32"
                        },
                        {
                          "name": "v",
                          "type": "uint8"
                        }
                      ],
                      "name": "signature",
                      "type": "tuple"
                    }
                  ],
                  "name": "wallet",
                  "type": "tuple"
                },
                {
                  "components": [
                    {
                      "name": "hash",
                      "type": "bytes32"
                    },
                    {
                      "components": [
                        {
                          "name": "r",
                          "type": "bytes32"
                        },
                        {
                          "name": "s",
                          "type": "bytes32"
                        },
                        {
                          "name": "v",
                          "type": "uint8"
                        }
                      ],
                      "name": "signature",
                      "type": "tuple"
                    }
                  ],
                  "name": "operator",
                  "type": "tuple"
                }
              ],
              "name": "seals",
              "type": "tuple"
            },
            {
              "name": "blockNumber",
              "type": "uint256"
            },
            {
              "name": "operatorId",
              "type": "uint256"
            }
          ],
          "name": "order",
          "type": "tuple"
        },
        {
          "name": "challenger",
          "type": "address"
        }
      ],
      "name": "challengeByOrder",
      "outputs": [],
      "payable": false,
      "stateMutability": "nonpayable",
      "type": "function"
    },
    {
      "constant": false,
      "inputs": [
        {
          "name": "wallet",
          "type": "address"
        },
        {
          "components": [
            {
              "name": "nonce",
              "type": "uint256"
            },
            {
              "name": "amount",
              "type": "int256"
            },
            {
              "components": [
                {
                  "components": [
                    {
                      "name": "ct",
                      "type": "address"
                    },
                    {
                      "name": "id",
                      "type": "uint256"
                    }
                  ],
                  "name": "intended",
                  "type": "tuple"
                },
                {
                  "components": [
                    {
                      "name": "ct",
                      "type": "address"
                    },
                    {
                      "name": "id",
                      "type": "uint256"
                    }
                  ],
                  "name": "conjugate",
                  "type": "tuple"
                }
              ],
              "name": "currencies",
              "type": "tuple"
            },
            {
              "name": "rate",
              "type": "int256"
            },
            {
              "components": [
                {
                  "name": "nonce",
                  "type": "uint256"
                },
                {
                  "name": "wallet",
                  "type": "address"
                },
                {
                  "name": "rollingVolume",
                  "type": "uint256"
                },
                {
                  "name": "liquidityRole",
                  "type": "uint8"
                },
                {
                  "components": [
                    {
                      "name": "amount",
                      "type": "int256"
                    },
                    {
                      "components": [
                        {
                          "name": "wallet",
                          "type": "bytes32"
                        },
                        {
                          "name": "operator",
                          "type": "bytes32"
                        }
                      ],
                      "name": "hashes",
                      "type": "tuple"
                    },
                    {
                      "components": [
                        {
                          "name": "current",
                          "type": "int256"
                        },
                        {
                          "name": "previous",
                          "type": "int256"
                        }
                      ],
                      "name": "residuals",
                      "type": "tuple"
                    }
                  ],
                  "name": "order",
                  "type": "tuple"
                },
                {
                  "components": [
                    {
                      "components": [
                        {
                          "name": "current",
                          "type": "int256"
                        },
                        {
                          "name": "previous",
                          "type": "int256"
                        }
                      ],
                      "name": "intended",
                      "type": "tuple"
                    },
                    {
                      "components": [
                        {
                          "name": "current",
                          "type": "int256"
                        },
                        {
                          "name": "previous",
                          "type": "int256"
                        }
                      ],
                      "name": "conjugate",
                      "type": "tuple"
                    }
                  ],
                  "name": "balances",
                  "type": "tuple"
                },
                {
                  "components": [
                    {
                      "components": [
                        {
                          "name": "amount",
                          "type": "int256"
                        },
                        {
                          "components": [
                            {
                              "name": "ct",
                              "type": "address"
                            },
                            {
                              "name": "id",
                              "type": "uint256"
                            }
                          ],
                          "name": "currency",
                          "type": "tuple"
                        }
                      ],
                      "name": "single",
                      "type": "tuple"
                    },
                    {
                      "components": [
                        {
                          "name": "originId",
                          "type": "uint256"
                        },
                        {
                          "components": [
                            {
                              "name": "amount",
                              "type": "int256"
                            },
                            {
                              "components": [
                                {
                                  "name": "ct",
                                  "type": "address"
                                },
                                {
                                  "name": "id",
                                  "type": "uint256"
                                }
                              ],
                              "name": "currency",
                              "type": "tuple"
                            }
                          ],
                          "name": "figure",
                          "type": "tuple"
                        }
                      ],
                      "name": "total",
                      "type": "tuple[]"
                    }
                  ],
                  "name": "fees",
                  "type": "tuple"
                }
              ],
              "name": "buyer",
              "type": "tuple"
            },
            {
              "components": [
                {
                  "name": "nonce",
                  "type": "uint256"
                },
                {
                  "name": "wallet",
                  "type": "address"
                },
                {
                  "name": "rollingVolume",
                  "type": "uint256"
                },
                {
                  "name": "liquidityRole",
                  "type": "uint8"
                },
                {
                  "components": [
                    {
                      "name": "amount",
                      "type": "int256"
                    },
                    {
                      "components": [
                        {
                          "name": "wallet",
                          "type": "bytes32"
                        },
                        {
                          "name": "operator",
                          "type": "bytes32"
                        }
                      ],
                      "name": "hashes",
                      "type": "tuple"
                    },
                    {
                      "components": [
                        {
                          "name": "current",
                          "type": "int256"
                        },
                        {
                          "name": "previous",
                          "type": "int256"
                        }
                      ],
                      "name": "residuals",
                      "type": "tuple"
                    }
                  ],
                  "name": "order",
                  "type": "tuple"
                },
                {
                  "components": [
                    {
                      "components": [
                        {
                          "name": "current",
                          "type": "int256"
                        },
                        {
                          "name": "previous",
                          "type": "int256"
                        }
                      ],
                      "name": "intended",
                      "type": "tuple"
                    },
                    {
                      "components": [
                        {
                          "name": "current",
                          "type": "int256"
                        },
                        {
                          "name": "previous",
                          "type": "int256"
                        }
                      ],
                      "name": "conjugate",
                      "type": "tuple"
                    }
                  ],
                  "name": "balances",
                  "type": "tuple"
                },
                {
                  "components": [
                    {
                      "components": [
                        {
                          "name": "amount",
                          "type": "int256"
                        },
                        {
                          "components": [
                            {
                              "name": "ct",
                              "type": "address"
                            },
                            {
                              "name": "id",
                              "type": "uint256"
                            }
                          ],
                          "name": "currency",
                          "type": "tuple"
                        }
                      ],
                      "name": "single",
                      "type": "tuple"
                    },
                    {
                      "components": [
                        {
                          "name": "originId",
                          "type": "uint256"
                        },
                        {
                          "components": [
                            {
                              "name": "amount",
                              "type": "int256"
                            },
                            {
                              "components": [
                                {
                                  "name": "ct",
                                  "type": "address"
                                },
                                {
                                  "name": "id",
                                  "type": "uint256"
                                }
                              ],
                              "name": "currency",
                              "type": "tuple"
                            }
                          ],
                          "name": "figure",
                          "type": "tuple"
                        }
                      ],
                      "name": "total",
                      "type": "tuple[]"
                    }
                  ],
                  "name": "fees",
                  "type": "tuple"
                }
              ],
              "name": "seller",
              "type": "tuple"
            },
            {
              "components": [
                {
                  "components": [
                    {
                      "name": "single",
                      "type": "int256"
                    },
                    {
                      "name": "total",
                      "type": "int256"
                    }
                  ],
                  "name": "intended",
                  "type": "tuple"
                },
                {
                  "components": [
                    {
                      "name": "single",
                      "type": "int256"
                    },
                    {
                      "name": "total",
                      "type": "int256"
                    }
                  ],
                  "name": "conjugate",
                  "type": "tuple"
                }
              ],
              "name": "transfers",
              "type": "tuple"
            },
            {
              "components": [
                {
                  "name": "hash",
                  "type": "bytes32"
                },
                {
                  "components": [
                    {
                      "name": "r",
                      "type": "bytes32"
                    },
                    {
                      "name": "s",
                      "type": "bytes32"
                    },
                    {
                      "name": "v",
                      "type": "uint8"
                    }
                  ],
                  "name": "signature",
                  "type": "tuple"
                }
              ],
              "name": "seal",
              "type": "tuple"
            },
            {
              "name": "blockNumber",
              "type": "uint256"
            },
            {
              "name": "operatorId",
              "type": "uint256"
            }
          ],
          "name": "trade",
          "type": "tuple"
        },
        {
          "name": "challenger",
          "type": "address"
        }
      ],
      "name": "challengeByTrade",
      "outputs": [],
      "payable": false,
      "stateMutability": "nonpayable",
      "type": "function"
    },
    {
      "constant": false,
      "inputs": [
        {
          "name": "wallet",
          "type": "address"
        },
        {
          "components": [
            {
              "name": "nonce",
              "type": "uint256"
            },
            {
              "name": "amount",
              "type": "int256"
            },
            {
              "components": [
                {
                  "name": "ct",
                  "type": "address"
                },
                {
                  "name": "id",
                  "type": "uint256"
                }
              ],
              "name": "currency",
              "type": "tuple"
            },
            {
              "components": [
                {
                  "name": "nonce",
                  "type": "uint256"
                },
                {
                  "name": "wallet",
                  "type": "address"
                },
                {
                  "components": [
                    {
                      "name": "current",
                      "type": "int256"
                    },
                    {
                      "name": "previous",
                      "type": "int256"
                    }
                  ],
                  "name": "balances",
                  "type": "tuple"
                },
                {
                  "components": [
                    {
                      "components": [
                        {
                          "name": "amount",
                          "type": "int256"
                        },
                        {
                          "components": [
                            {
                              "name": "ct",
                              "type": "address"
                            },
                            {
                              "name": "id",
                              "type": "uint256"
                            }
                          ],
                          "name": "currency",
                          "type": "tuple"
                        }
                      ],
                      "name": "single",
                      "type": "tuple"
                    },
                    {
                      "components": [
                        {
                          "name": "originId",
                          "type": "uint256"
                        },
                        {
                          "components": [
                            {
                              "name": "amount",
                              "type": "int256"
                            },
                            {
                              "components": [
                                {
                                  "name": "ct",
                                  "type": "address"
                                },
                                {
                                  "name": "id",
                                  "type": "uint256"
                                }
                              ],
                              "name": "currency",
                              "type": "tuple"
                            }
                          ],
                          "name": "figure",
                          "type": "tuple"
                        }
                      ],
                      "name": "total",
                      "type": "tuple[]"
                    }
                  ],
                  "name": "fees",
                  "type": "tuple"
                }
              ],
              "name": "sender",
              "type": "tuple"
            },
            {
              "components": [
                {
                  "name": "nonce",
                  "type": "uint256"
                },
                {
                  "name": "wallet",
                  "type": "address"
                },
                {
                  "components": [
                    {
                      "name": "current",
                      "type": "int256"
                    },
                    {
                      "name": "previous",
                      "type": "int256"
                    }
                  ],
                  "name": "balances",
                  "type": "tuple"
                },
                {
                  "components": [
                    {
                      "components": [
                        {
                          "name": "originId",
                          "type": "uint256"
                        },
                        {
                          "components": [
                            {
                              "name": "amount",
                              "type": "int256"
                            },
                            {
                              "components": [
                                {
                                  "name": "ct",
                                  "type": "address"
                                },
                                {
                                  "name": "id",
                                  "type": "uint256"
                                }
                              ],
                              "name": "currency",
                              "type": "tuple"
                            }
                          ],
                          "name": "figure",
                          "type": "tuple"
                        }
                      ],
                      "name": "total",
                      "type": "tuple[]"
                    }
                  ],
                  "name": "fees",
                  "type": "tuple"
                }
              ],
              "name": "recipient",
              "type": "tuple"
            },
            {
              "components": [
                {
                  "name": "single",
                  "type": "int256"
                },
                {
                  "name": "total",
                  "type": "int256"
                }
              ],
              "name": "transfers",
              "type": "tuple"
            },
            {
              "components": [
                {
                  "components": [
                    {
                      "name": "hash",
                      "type": "bytes32"
                    },
                    {
                      "components": [
                        {
                          "name": "r",
                          "type": "bytes32"
                        },
                        {
                          "name": "s",
                          "type": "bytes32"
                        },
                        {
                          "name": "v",
                          "type": "uint8"
                        }
                      ],
                      "name": "signature",
                      "type": "tuple"
                    }
                  ],
                  "name": "wallet",
                  "type": "tuple"
                },
                {
                  "components": [
                    {
                      "name": "hash",
                      "type": "bytes32"
                    },
                    {
                      "components": [
                        {
                          "name": "r",
                          "type": "bytes32"
                        },
                        {
                          "name": "s",
                          "type": "bytes32"
                        },
                        {
                          "name": "v",
                          "type": "uint8"
                        }
                      ],
                      "name": "signature",
                      "type": "tuple"
                    }
                  ],
                  "name": "operator",
                  "type": "tuple"
                }
              ],
              "name": "seals",
              "type": "tuple"
            },
            {
              "name": "blockNumber",
              "type": "uint256"
            },
            {
              "name": "operatorId",
              "type": "uint256"
            }
          ],
          "name": "payment",
          "type": "tuple"
        },
        {
          "name": "challenger",
          "type": "address"
        }
      ],
      "name": "challengeByPayment",
      "outputs": [],
      "payable": false,
      "stateMutability": "nonpayable",
      "type": "function"
    }
  ],
  "bytecode": "0x60806040523480156200001157600080fd5b50604051602080620041358339810180604052620000339190810190620000b6565b8080600160a060020a03811615156200004b57600080fd5b600160a060020a0381163014156200006257600080fd5b506000805461010060a860020a031916610100600160a060020a039390931692830217905560018054600160a060020a031916909117905550620000eb565b6000620000af8251620000df565b9392505050565b600060208284031215620000c957600080fd5b6000620000d78484620000a1565b949350505050565b600160a060020a031690565b61403a80620000fb6000396000f3006080604052600436106101455763ffffffff60e060020a60003504166301370d06811461014a5780630cca956d1461016c5780631327d3d8146101975780631c8c3647146101b7578063240625d8146101d75780632738a112146101f95780632f013a001461020e5780633a5381b5146102235780633bd7857f146102385780633dad7da41461024d5780634476d23b1461026d578063570ca7351461028f5780635dc60def146102a4578063627f09c3146102b95780636792ce6e146102d95780636926832c146102f95780636b0570d0146103195780636c70bee91461032e57806370327ea114610343578063892860b2146103585780638eed835914610378578063922726071461039857806396214735146103b8578063a4812259146103d8578063b3ab15fb146103ed578063d5f394881461040d578063e8ae41e314610422575b600080fd5b34801561015657600080fd5b5061016a6101653660046135fa565b610437565b005b34801561017857600080fd5b506101816104df565b60405161018e9190613eb1565b60405180910390f35b3480156101a357600080fd5b5061016a6101b23660046135fa565b6104ee565b3480156101c357600080fd5b5061016a6101d23660046135fa565b610586565b3480156101e357600080fd5b506101ec610617565b60405161018e9190613e95565b34801561020557600080fd5b5061016a610627565b34801561021a57600080fd5b506101ec61068d565b34801561022f57600080fd5b50610181610696565b34801561024457600080fd5b506101816106a5565b34801561025957600080fd5b5061016a6102683660046135fa565b6106b4565b34801561027957600080fd5b5061028261074c565b60405161018e9190613cbb565b34801561029b57600080fd5b50610282610760565b3480156102b057600080fd5b5061016a61076f565b3480156102c557600080fd5b5061016a6102d43660046135fa565b6107c3565b3480156102e557600080fd5b5061016a6102f43660046135fa565b61085b565b34801561030557600080fd5b5061016a610314366004613511565b6108f3565b34801561032557600080fd5b50610181610f6b565b34801561033a57600080fd5b50610181610f7a565b34801561034f57600080fd5b5061016a610f89565b34801561036457600080fd5b5061016a6103733660046135fa565b610fec565b34801561038457600080fd5b5061016a610393366004613679565b61109b565b3480156103a457600080fd5b5061016a6103b3366004613575565b611715565b3480156103c457600080fd5b5061016a6103d33660046134cd565b611e93565b3480156103e457600080fd5b50610181611f51565b3480156103f957600080fd5b5061016a6104083660046134cd565b611f60565b34801561041957600080fd5b5061028261200a565b34801561042e57600080fd5b5061018161201e565b600061044161202d565b151561044c57600080fd5b81600160a060020a038116151561046257600080fd5b6006548390600160a060020a0390811690821681146104d85760068054600160a060020a03878116600160a060020a0319831617909255604051911694507f07998fa7be97abe2427246ae4688298c89d6196bbffdf0997b9495a8d27bc673906104cf9086908890613ebf565b60405180910390a15b5050505050565b600754600160a060020a031681565b60006104f861202d565b151561050357600080fd5b81600160a060020a038116151561051957600080fd5b6003548390600160a060020a0390811690821681146104d85760038054600160a060020a03878116600160a060020a0319831617909255604051911694507f1882af944a16549c3d4f60e3cd26f158b0c7aac3222cf32971fc21375ce05f60906104cf9086908890613ebf565b600061059061202d565b151561059b57600080fd5b81600160a060020a03811615156105b157600080fd5b60088054600160a060020a03858116600160a060020a03198316179283905560405191811694507f471bc6479108ad1defa31d1004fbdfd77575b55eb8acd5ae73b48d4345542ca89261060a9286929190911690613ebf565b60405180910390a1505050565b60055460a060020a900460ff1681565b3361063061074c565b600160a060020a03161461064357600080fd5b60005460ff161561065357600080fd5b7f787a5d936e74f4b564b9153575886059829c78cd9927b1be5e0d976b317ef736336040516106829190613cbb565b60405180910390a133ff5b60005460ff1681565b600354600160a060020a031681565b600654600160a060020a031681565b60006106be61202d565b15156106c957600080fd5b81600160a060020a03811615156106df57600080fd5b6007548390600160a060020a0390811690821681146104d85760078054600160a060020a03878116600160a060020a0319831617909255604051911694507fafe0f82771e36e01015c06151eff69190d6796b6359da2780a8dd89ded9b2205906104cf9086908890613ebf565b6000546101009004600160a060020a031690565b600154600160a060020a031681565b61077761202d565b151561078257600080fd5b6005805460a060020a60ff02191660a060020a1790556040517f56ec8900b9c4bf84f4b715a53068ca06961dd49084c07b481931e2c2045346e690600090a1565b60006107cd61202d565b15156107d857600080fd5b81600160a060020a03811615156107ee57600080fd5b6002548390600160a060020a0390811690821681146104d85760028054600160a060020a03878116600160a060020a0319831617909255604051911694507f634f61bf00e14adedce330c80c2823e16e184f189ebe853e1ddecc4a268477ff906104cf9086908890613ebf565b600061086561202d565b151561087057600080fd5b81600160a060020a038116151561088657600080fd5b6004548390600160a060020a0390811690821681146104d85760048054600160a060020a03878116600160a060020a0319831617909255604051911694507fc9f3f00c1760fe26985aeacb814a21c56ea289d680562e89b249681b08c30382906104cf9086908890613ebf565b600854600160a060020a0316331461090a57600080fd5b60035460405160e060020a63a865476b0281528391600160a060020a03169063a865476b9061093d908490600401613ef7565b602060405180830381600087803b15801561095757600080fd5b505af115801561096b573d6000803e3d6000fd5b505050506040513d601f19601f8201168201806040525061098f91908101906135be565b151561099a57600080fd5b60035460405160e160020a635f1132b702815284918691600160a060020a039091169063be22656e906109d39085908590600401613f08565b602060405180830381600087803b1580156109ed57600080fd5b505af1158015610a01573d6000803e3d6000fd5b505050506040513d601f19601f82011682018060405250610a2591908101906135be565b1515610a3057600080fd5b60065460c0860151602001515160405160e360020a6310c7a6c1028152600160a060020a039092169163863d360891610a6b91600401613ea3565b602060405180830381600087803b158015610a8557600080fd5b505af1158015610a99573d6000803e3d6000fd5b505050506040513d601f19601f82011682018060405250610abd91908101906135be565b15610ac757600080fd5b6008546040808701518051602090910151915160e060020a633bebdcb5028152600160a060020a0390931692633bebdcb592610b0a928b92909190600401613d65565b602060405180830381600087803b158015610b2457600080fd5b505af1158015610b38573d6000803e3d6000fd5b505050506040513d601f19601f82011682018060405250610b5c91908101906135be565b15610b6657600080fd5b6008546040808701518051602090910151915160e060020a63fca5192b028152600160a060020a039093169263fca5192b92610ba9928b92909190600401613d65565b602060405180830381600087803b158015610bc357600080fd5b505af1158015610bd7573d6000803e3d6000fd5b505050506040513d601f19601f82011682018060405250610bfb91908101906135dc565b60e08601511015610c0b57600080fd5b6008546040808701518051602090910151915160e160020a636adb4631028152600160a060020a039093169263d5b68c6292610c4e928b92909190600401613d65565b602060405180830381600087803b158015610c6857600080fd5b505af1158015610c7c573d6000803e3d6000fd5b505050506040513d601f19601f82011682018060405250610ca091908101906135dc565b60e08601511015610cb057600080fd5b6008546040808701518051602090910151915160e060020a6316987929028152600160a060020a0390931692631698792992610cf3928b92909190600401613d65565b602060405180830381600087803b158015610d0d57600080fd5b505af1158015610d21573d6000803e3d6000fd5b505050506040513d601f19601f82011682018060405250610d4591908101906135dc565b60a08601515113610d5557600080fd5b610d7386866060015160400151600001518760400151876000612043565b600854604080870151805160209182015160e08a015160c08b01519093015151935160e060020a63811111b5028152600160a060020a039095169463811111b594610dca948d9493928c9290600390600401613d8d565b600060405180830381600087803b158015610de457600080fd5b505af1158015610df8573d6000803e3d6000fd5b50506008546040808901518051602090910151915160e060020a63cdbf94190281527f35d89835d9f23fc2bf71e154fc61ca13fdaef44a49b3a93638e64220c516929b95508b9450600160a060020a039093169263cdbf941992610e63928692909190600401613d65565b602060405180830381600087803b158015610e7d57600080fd5b505af1158015610e91573d6000803e3d6000fd5b505050506040513d601f19601f82011682018060405250610eb591908101906135dc565b6008546040808a01518051602090910151915160e360020a6315bf6cef028152600160a060020a039093169263adfb677892610ef8928e92909190600401613d65565b602060405180830381600087803b158015610f1257600080fd5b505af1158015610f26573d6000803e3d6000fd5b505050506040513d601f19601f82011682018060405250610f4a91908101906135dc565b87604051610f5b9493929190613e45565b60405180910390a1505050505050565b600454600160a060020a031681565b600254600160a060020a031681565b33610f9261074c565b600160a060020a031614610fa557600080fd5b6000805460ff191660011790556040517fd5a2a04a775c741c2ca0dc46ea7ce4835190e1aaf1ca018def0e82568ec3361690610fe2903390613cbb565b60405180910390a1565b6000610ff661202d565b151561100157600080fd5b81600160a060020a038116151561101757600080fd5b6005548390600160a060020a0390811690821681146104d85760055460a060020a900460ff161561104757600080fd5b60058054600160a060020a03878116600160a060020a0319831617909255604051911694507fa44d361e26327b72a7ccbeae801b3c5cd7677ea4fa74168b289e273c46bfecfc906104cf9086908890613ebf565b6110a3612b8c565b600854600160a060020a031633146110ba57600080fd5b60035460405160e060020a6331f2978b0281528491600160a060020a0316906331f2978b906110ed908490600401613ee8565b602060405180830381600087803b15801561110757600080fd5b505af115801561111b573d6000803e3d6000fd5b505050506040513d601f19601f8201168201806040525061113f91908101906135be565b151561114a57600080fd5b6006546060850151602001515160405160e060020a63e1f5828b028152600160a060020a039092169163e1f5828b9161118591600401613ea3565b602060405180830381600087803b15801561119f57600080fd5b505af11580156111b3573d6000803e3d6000fd5b505050506040513d601f19601f820116820180604052506111d791908101906135be565b156111e157600080fd5b6007546020808601516060870151909101515160405160e160020a634deaf58b028152600160a060020a0390931692639bd5eb1692611224929091600401613df5565b602060405180830381600087803b15801561123e57600080fd5b505af1158015611252573d6000803e3d6000fd5b505050506040513d601f19601f8201168201806040525061127691908101906135be565b1561128057600080fd5b611289846120f2565b60085460208087015183519184015160405160e060020a633bebdcb5028152949650600160a060020a0390931693633bebdcb5936112ca9391600401613d65565b602060405180830381600087803b1580156112e457600080fd5b505af11580156112f8573d6000803e3d6000fd5b505050506040513d601f19601f8201168201806040525061131c91908101906135be565b1561132657600080fd5b60085460208086015184519185015160405160e060020a63fca5192b028152600160a060020a039094169363fca5192b9361136693929091600401613d65565b602060405180830381600087803b15801561138057600080fd5b505af1158015611394573d6000803e3d6000fd5b505050506040513d601f19601f820116820180604052506113b891908101906135dc565b608085015110156113c857600080fd5b60085460208086015184519185015160405160e160020a636adb4631028152600160a060020a039094169363d5b68c629361140893929091600401613d65565b602060405180830381600087803b15801561142257600080fd5b505af1158015611436573d6000803e3d6000fd5b505050506040513d601f19601f8201168201806040525061145a91908101906135dc565b6080850151101561146a57600080fd5b60085460208086015184519185015160405160e060020a6316987929028152600160a060020a03909416936316987929936114aa93929091600401613d65565b602060405180830381600087803b1580156114c457600080fd5b505af11580156114d8573d6000803e3d6000fd5b505050506040513d601f19601f820116820180604052506114fc91908101906135dc565b61150585612134565b1361150f57600080fd5b611529846020015161152086612134565b84866000612043565b600854602080860151845185830151608089015160608a0151909401515160405160e060020a63811111b5028152600160a060020a039096169563811111b59561157d959493928b92600190600401613d8d565b600060405180830381600087803b15801561159757600080fd5b505af11580156115ab573d6000803e3d6000fd5b50505060208086015160085485519286015160405160e060020a63cdbf94190281527f15a35a2531496dea3fa857a3aed28e293b49c694feffae2fa03e74c163c990b595509293600160a060020a039092169263cdbf941992611612928692600401613d65565b602060405180830381600087803b15801561162c57600080fd5b505af1158015611640573d6000803e3d6000fd5b505050506040513d601f19601f8201168201806040525061166491908101906135dc565b60085460208089015187519188015160405160e360020a6315bf6cef028152600160a060020a039094169363adfb6778936116a493929091600401613d65565b602060405180830381600087803b1580156116be57600080fd5b505af11580156116d2573d6000803e3d6000fd5b505050506040513d601f19601f820116820180604052506116f691908101906135dc565b866040516117079493929190613e45565b60405180910390a150505050565b61171d612b8c565b600854600160a060020a0316331461173457600080fd5b60035460405160e160020a637211c8c70281528491600160a060020a03169063e423918e90611767908490600401613f28565b602060405180830381600087803b15801561178157600080fd5b505af1158015611795573d6000803e3d6000fd5b505050506040513d601f19601f820116820180604052506117b991908101906135be565b15156117c457600080fd5b60035460405160e160020a6303e149c302815285918791600160a060020a03909116906307c29386906117fd9085908590600401613f39565b602060405180830381600087803b15801561181757600080fd5b505af115801561182b573d6000803e3d6000fd5b505050506040513d601f19601f8201168201806040525061184f91908101906135be565b151561185a57600080fd5b60065460e08701515160405160e160020a6352c894d1028152600160a060020a039092169163a59129a29161189191600401613ea3565b602060405180830381600087803b1580156118ab57600080fd5b505af11580156118bf573d6000803e3d6000fd5b505050506040513d601f19601f820116820180604052506118e391908101906135be565b156118ed57600080fd5b600654600160a060020a031663e1f5828b611908888a61217f565b6040518263ffffffff1660e060020a0281526004016119279190613ea3565b602060405180830381600087803b15801561194157600080fd5b505af1158015611955573d6000803e3d6000fd5b505050506040513d601f19601f8201168201806040525061197991908101906135be565b1561198357600080fd5b600754600160a060020a0316639bd5eb168861199f898261217f565b6040518363ffffffff1660e060020a0281526004016119bf929190613df5565b602060405180830381600087803b1580156119d957600080fd5b505af11580156119ed573d6000803e3d6000fd5b505050506040513d601f19601f82011682018060405250611a1191908101906135be565b15611a1b57600080fd5b611a25868861223a565b6008548151602083015160405160e060020a633bebdcb5028152939750600160a060020a0390921692633bebdcb592611a65928c92909190600401613d65565b602060405180830381600087803b158015611a7f57600080fd5b505af1158015611a93573d6000803e3d6000fd5b505050506040513d601f19601f82011682018060405250611ab791908101906135be565b15611ac157600080fd5b6008548451602086015160405160e060020a63fca5192b028152600160a060020a039093169263fca5192b92611afb928c92600401613d65565b602060405180830381600087803b158015611b1557600080fd5b505af1158015611b29573d6000803e3d6000fd5b505050506040513d601f19601f82011682018060405250611b4d91908101906135dc565b6101008701511015611b5e57600080fd5b6008548451602086015160405160e160020a636adb4631028152600160a060020a039093169263d5b68c6292611b98928c92600401613d65565b602060405180830381600087803b158015611bb257600080fd5b505af1158015611bc6573d6000803e3d6000fd5b505050506040513d601f19601f82011682018060405250611bea91908101906135dc565b6101008701511015611bfb57600080fd5b6008548451602086015160405160e060020a6316987929028152600160a060020a0390931692631698792992611c35928c92600401613d65565b602060405180830381600087803b158015611c4f57600080fd5b505af1158015611c63573d6000803e3d6000fd5b505050506040513d601f19601f82011682018060405250611c8791908101906135dc565b611c9187896122e5565b13611c9b57600080fd5b611cb287611ca9888a61238b565b86886000612043565b6008548451602086015161010089015160e08a01515160405160e060020a63811111b5028152600160a060020a039095169463811111b594611d03948e94919390928d929190600290600401613d8d565b600060405180830381600087803b158015611d1d57600080fd5b505af1158015611d31573d6000803e3d6000fd5b50506008548651602088015160405160e060020a63cdbf94190281527f63cc1acf7b85609ef63f16f89070cfda0f38ec9894b7171ad40b2caa96012e6b95508c9450600160a060020a039093169263cdbf941992611d93928692600401613d65565b602060405180830381600087803b158015611dad57600080fd5b505af1158015611dc1573d6000803e3d6000fd5b505050506040513d601f19601f82011682018060405250611de591908101906135dc565b6008548751602089015160405160e360020a6315bf6cef028152600160a060020a039093169263adfb677892611e1f928f92600401613d65565b602060405180830381600087803b158015611e3957600080fd5b505af1158015611e4d573d6000803e3d6000fd5b505050506040513d601f19601f82011682018060405250611e7191908101906135dc565b88604051611e829493929190613e45565b60405180910390a150505050505050565b6000611e9d61202d565b1515611ea857600080fd5b81600160a060020a0381161515611ebe57600080fd5b600160a060020a038116301415611ed457600080fd5b600054600160a060020a038481166101009092041614611f4c5760008054600160a060020a0385811661010090810261010060a860020a0319841617909355604051929091041692507f977e5fa58e458501775e0008d275006294c5249e3c08d1d0e3a9f3acad14f6e49061060a9084908690613cc9565b505050565b600854600160a060020a031681565b6000611f6a612438565b1515611f7557600080fd5b81600160a060020a0381161515611f8b57600080fd5b600160a060020a038116301415611fa157600080fd5b600154600160a060020a03848116911614611f4c5760018054600160a060020a03858116600160a060020a0319831617909255604051911692507f9f611b789425d0d5b90b920f1b2852907dd865c80074a30b1629aaa041d1812c9061060a9084908690613cc9565b6000546101009004600160a060020a031681565b600554600160a060020a031681565b6000546101009004600160a060020a0316331490565b6008548351602085015160405160e060020a635252358d028152600160a060020a0390931692635252358d9261207d928a92600401613d65565b602060405180830381600087803b15801561209757600080fd5b505af11580156120ab573d6000803e3d6000fd5b505050506040513d601f19601f820116820180604052506120cf91908101906135be565b156120e5576120e085858585612449565b6104d8565b6104d88585858585612657565b6120fa612b8c565b604082015151600181111561210b57fe5b600114612124578160400151604001516020015161212e565b6040808301510151515b92915050565b604081015151600090600181111561214857fe5b600114612173576040820151606081015160209091015161216e9163ffffffff612a8a16565b61212e565b50604001516020015190565b60035460405160e060020a63059057d7028152600091600160a060020a03169063059057d7906121b59086908690600401613f39565b602060405180830381600087803b1580156121cf57600080fd5b505af11580156121e3573d6000803e3d6000fd5b505050506040513d601f19601f8201168201806040525061220791908101906135be565b612221578260a00151608001516020015160200151612233565b82608001516080015160200151602001515b9392505050565b612242612b8c565b60035460405160e060020a63059057d7028152600160a060020a039091169063059057d7906122779086908690600401613f39565b602060405180830381600087803b15801561229157600080fd5b505af11580156122a5573d6000803e3d6000fd5b505050506040513d601f19601f820116820180604052506122c991908101906135be565b6122d857604083015151612233565b5050604001516020015190565b60035460405160e060020a63059057d7028152600091600160a060020a03169063059057d79061231b9086908690600401613f39565b602060405180830381600087803b15801561233557600080fd5b505af1158015612349573d6000803e3d6000fd5b505050506040513d601f19601f8201168201806040525061236d91908101906135be565b61237d5760c08301515151612233565b505060c00151602001515190565b60035460405160e060020a63059057d7028152600091600160a060020a03169063059057d7906123c19086908690600401613f39565b602060405180830381600087803b1580156123db57600080fd5b505af11580156123ef573d6000803e3d6000fd5b505050506040513d601f19601f8201168201806040525061241391908101906135be565b6124265760a08084015101515151612233565b50506080015160a00151602001515190565b600154600160a060020a0316331490565b6008548251602084015160405160e460020a62712abb028152600160a060020a0390931692630712abb092612482928992600401613d65565b602060405180830381600087803b15801561249c57600080fd5b505af11580156124b0573d6000803e3d6000fd5b505050506040513d601f19601f820116820180604052506124d49190810190613618565b60018111156124df57fe5b600114156125df576005546008548351602085015160405160e160020a637e698581028152600160a060020a03948516946346c5c023948a9491169263fcd30b02926125319286929091600401613d65565b602060405180830381600087803b15801561254b57600080fd5b505af115801561255f573d6000803e3d6000fd5b505050506040513d601f19601f8201168201806040525061258391908101906134f3565b8551602087015160405160e060020a63ffffffff87160281526125ac9493929190600401613ce4565b600060405180830381600087803b1580156125c657600080fd5b505af11580156125da573d6000803e3d6000fd5b505050505b6005548251602084015160405160e060020a6353d3b393028152600160a060020a03909316926353d3b3939261261f92899287928a929091600401613d19565b600060405180830381600087803b15801561263957600080fd5b505af115801561264d573d6000803e3d6000fd5b5050505050505050565b61265f612ba3565b6008548451602086015160405160e460020a62712abb028152600093600160a060020a031692630712abb09261269b928c929190600401613d65565b602060405180830381600087803b1580156126b557600080fd5b505af11580156126c9573d6000803e3d6000fd5b505050506040513d601f19601f820116820180604052506126ed9190810190613618565b60018111156126f857fe5b600114156127f757600480546008548751602089015160405160e160020a637e698581028152600160a060020a0394851695634e791e0d959094169363fcd30b029361274a938f939192909101613d65565b602060405180830381600087803b15801561276457600080fd5b505af1158015612778573d6000803e3d6000fd5b505050506040513d601f19601f8201168201806040525061279c91908101906134f3565b8751602089015160405160e060020a63ffffffff86160281526127c493929190600401613d65565b600060405180830381600087803b1580156127de57600080fd5b505af11580156127f2573d6000803e3d6000fd5b505050505b6127ff612abf565b600480548251602080850151805191015160405160e160020a634197bc19028152959750600160a060020a039093169463832f783294612847948b94939290918b9101613e10565b600060405180830381600087803b15801561286157600080fd5b505af1158015612875573d6000803e3d6000fd5b50506004805488516020808b01516002546040805160e160020a63560069d9028152905173__SafeMathIntLib________________________995063755875b298508f97600160a060020a039788169763a72148eb979694169363ac00d3b293808301939192908290030181600087803b1580156128f257600080fd5b505af1158015612906573d6000803e3d6000fd5b505050506040513d601f19601f8201168201806040525061292a91908101906135dc565b6040518463ffffffff1660e060020a02815260040161294b93929190613e7a565b602060405180830381600087803b15801561296557600080fd5b505af1158015612979573d6000803e3d6000fd5b505050506040513d601f19601f8201168201806040525061299d91908101906135dc565b6040518363ffffffff1660e060020a0281526004016129bd929190613eda565b60206040518083038186803b1580156129d557600080fd5b505af41580156129e9573d6000803e3d6000fd5b505050506040513d601f19601f82011682018060405250612a0d91908101906135dc565b600480548751602089015160405160e160020a634197bc19028152949550600160a060020a039092169363832f783293612a4f938a93889390928b9101613e10565b600060405180830381600087803b158015612a6957600080fd5b505af1158015612a7d573d6000803e3d6000fd5b5050505050505050505050565b600060ff60020a83141580612aa157508160001914155b1515612aac57600080fd5b8183811515612ab757fe5b059392505050565b612ac7612ba3565b6000806000600260009054906101000a9004600160a060020a0316600160a060020a031663ccd03d2e6040518163ffffffff1660e060020a028152600401606060405180830381600087803b158015612b1f57600080fd5b505af1158015612b33573d6000803e3d6000fd5b505050506040513d601f19601f82011682018060405250612b579190810190613636565b6040805180820182529384528051808201909152600160a060020a039092168252602082810191909152820152949350505050565b604080518082019091526000808252602082015290565b60606040519081016040528060008152602001612bbe612b8c565b905290565b60006122338235613f9a565b60006122338251613f9a565b6000601f82018313612bec57600080fd5b8135612bff612bfa82613f70565b613f4a565b91508181835260208401935060208101905083856080840282011115612c2457600080fd5b60005b83811015612c525781612c3a8882612ee5565b84525060209092019160809190910190600101612c27565b5050505092915050565b60006122338251613fa6565b60006122338235613fab565b60006122338251613fab565b60006122338235613fd0565b60006122338235613fdb565b60006122338251613fdb565b600060408284031215612cb657600080fd5b612cc06040613f4a565b90506000612cce8484612bc3565b8252506020612cdf84848301612c68565b60208301525092915050565b600060408284031215612cfd57600080fd5b612d076040613f4a565b90506000612cce8484612c68565b600060608284031215612d2757600080fd5b612d316040613f4a565b90506000612d3f8484612c68565b8252506020612cdf84848301612ca4565b600060808284031215612d6257600080fd5b612d6c6040613f4a565b90506000612d7a8484612ca4565b8252506040612cdf84848301612ca4565b600060808284031215612d9d57600080fd5b612da76040613f4a565b90506000612db58484612ceb565b8252506040612cdf84848301612ceb565b60006101208284031215612dd957600080fd5b612de360a0613f4a565b90506000612df18484612c8c565b8252506020612e0284848301612c68565b6020830152506040612e1684828501612d50565b60408301525060c0612e2a84828501612c68565b60608301525060e0612e3e84828501612ceb565b60808301525092915050565b60006102a08284031215612e5d57600080fd5b612e6760c0613f4a565b90506000612e758484612c68565b8252506020612e8684848301612bc3565b6020830152506040612e9a84828501612dc6565b604083015250610160612eaf84828501613485565b606083015250610260612ec484828501612c68565b608083015250610280612ed984828501612c68565b60a08301525092915050565b600060808284031215612ef757600080fd5b612f016040613f4a565b90506000612f0f8484612c68565b8252506020612cdf84848301612d15565b600060a08284031215612f3257600080fd5b612f3c6080613f4a565b90506000612f4a8484612c68565b8252506020612f5b84848301612bc3565b6020830152506040612f6f84828501612ceb565b60408301525060808201356001604060020a03811115612f8e57600080fd5b612f9a8482850161320a565b60608301525092915050565b600060a08284031215612fb857600080fd5b612fc26080613f4a565b90506000612fd08484612c68565b8252506020612fe184848301612bc3565b6020830152506040612ff584828501612ceb565b60408301525060808201356001604060020a0381111561301457600080fd5b612f9a848285016131b8565b6000610240828403121561303357600080fd5b61303e610120613f4a565b9050600061304c8484612c68565b825250602061305d84848301612c68565b602083015250604061307184828501612ca4565b60408301525060808201356001604060020a0381111561309057600080fd5b61309c84828501612fa6565b60608301525060a08201356001604060020a038111156130bb57600080fd5b6130c784828501612f20565b60808301525060c06130db84828501612ceb565b60a0830152506101006130f084828501613485565b60c08301525061020061310584828501612c68565b60e08301525061022061311a84828501612c68565b6101008301525092915050565b60006080828403121561313957600080fd5b6131436040613f4a565b905060006131518484612c68565b8252506020612cdf8484830160006060828403121561316f57600080fd5b6131796060613f4a565b905060006131878484612c68565b825250602061319884848301612c68565b60208301525060406131ac848285016134c1565b60408301525092915050565b6000608082840312156131ca57600080fd5b6131d46040613f4a565b905060006131e28484612d15565b82525060608201356001604060020a038111156131fe57600080fd5b612cdf84828501612bdb565b60006020828403121561321c57600080fd5b6132266020613f4a565b905081356001604060020a0381111561323e57600080fd5b61324a84828501612bdb565b82525092915050565b600060a0828403121561326557600080fd5b61326f6060613f4a565b9050600061327d8484612c68565b825250602061328e84848301612ceb565b60208301525060606131ac84828501612ceb565b60006101c082840312156132b557600080fd5b6132bf60e0613f4a565b905060006132cd8484612c68565b82525060206132de84848301612bc3565b60208301525060406132f284828501612c68565b604083015250606061330684828501612c8c565b606083015250608061331a84828501613253565b60808301525061012061332f84828501612d8b565b60a0830152506101a08201356001604060020a0381111561334f57600080fd5b61335b848285016131b8565b60c08301525092915050565b6000610260828403121561337a57600080fd5b613385610140613f4a565b905060006133938484612c68565b82525060206133a484848301612c68565b60208301525060406133b884828501612d50565b60408301525060c06133cc84828501612c68565b60608301525060e08201356001604060020a038111156133eb57600080fd5b6133f7848285016132a2565b6080830152506101008201356001604060020a0381111561341757600080fd5b613423848285016132a2565b60a08301525061012061343884828501612d8b565b60c0830152506101a061344d84828501613127565b60e08301525061022061346284828501612c68565b6101008301525061024061347884828501612c68565b6101208301525092915050565b6000610100828403121561349857600080fd5b6134a26040613f4a565b905060006134b08484613127565b8252506080612cdf84848301613127565b60006122338235613fca565b6000602082840312156134df57600080fd5b60006134eb8484612bc3565b949350505050565b60006020828403121561350557600080fd5b60006134eb8484612bcf565b60008060006060848603121561352657600080fd5b60006135328686612bc3565b93505060208401356001604060020a0381111561354e57600080fd5b61355a86828701613020565b925050604061356b86828701612bc3565b9150509250925092565b60008060006060848603121561358a57600080fd5b60006135968686612bc3565b93505060208401356001604060020a038111156135b257600080fd5b61355a86828701613367565b6000602082840312156135d057600080fd5b60006134eb8484612c5c565b6000602082840312156135ee57600080fd5b60006134eb8484612c74565b60006020828403121561360c57600080fd5b60006134eb8484612c80565b60006020828403121561362a57600080fd5b60006134eb8484612c98565b60008060006060848603121561364b57600080fd5b60006136578686612c74565b935050602061366886828701612bcf565b925050604061356b86828701612c74565b6000806102c0838503121561368d57600080fd5b60006136998585612e4a565b9250506102a06136ab85828601612bc3565b9150509250929050565b6136be81613f9a565b82525050565b60006136cf82613f96565b8084526020840193506136e183613f90565b60005b82811015613711576136f78683516138c1565b61370082613f90565b6080969096019591506001016136e4565b5093949350505050565b6136be81613fa6565b6136be81613fab565b6136be81613fd0565b6136be81613fea565b6136be81613ff5565b8051604083019061375984826136b5565b50602082015161376c6020850182613724565b50505050565b805160408301906137598482613724565b805160608301906137948482613724565b50602082015161376c6020850182613748565b805160808301906137b88482613748565b50602082015161376c6040850182613748565b805160808301906137dc8482613772565b50602082015161376c6040850182613772565b8051610120830190613801848261373f565b5060208201516138146020850182613724565b50604082015161382760408501826137a7565b50606082015161383a60c0850182613724565b50608082015161376c60e0850182613772565b80516102a083019061385f8482613724565b50602082015161387260208501826136b5565b50604082015161388560408501826137ef565b506060820151613899610160850182613c8d565b5060808201516138ad610260850182613724565b5060a082015161376c610280850182613724565b805160808301906138d28482613724565b50602082015161376c6020850182613783565b805160009060a08401906138f98582613724565b50602083015161390c60208601826136b5565b50604083015161391f6040860182613772565b50606083015184820360808601526139378282613adb565b95945050505050565b805160009060a08401906139548582613724565b50602083015161396760208601826136b5565b50604083015161397a6040860182613772565b50606083015184820360808601526139378282613aaf565b80516000906102408401906139a78582613724565b5060208301516139ba6020860182613724565b5060408301516139cd6040860182613748565b50606083015184820360808601526139e58282613940565b915050608083015184820360a08601526139ff82826138e5565b91505060a0830151613a1460c0860182613772565b5060c0830151613a28610100860182613c8d565b5060e0830151613a3c610200860182613724565b50610100830151613a51610220860182613724565b509392505050565b80516080830190613a6a8482613724565b50602082015161376c602085018280516060830190613a898482613724565b506020820151613a9c6020850182613724565b50604082015161376c6040850182613cb2565b80516000906080840190613ac38582613783565b506020830151848203606086015261393782826136c4565b805160208084526000919084019061393782826136c4565b805160a0830190613b048482613724565b506020820151613b176020850182613772565b50604082015161376c6060850182613772565b80516000906101c0840190613b3f8582613724565b506020830151613b5260208601826136b5565b506040830151613b656040860182613724565b506060830151613b78606086018261373f565b506080830151613b8b6080860182613af3565b5060a0830151613b9f6101208601826137cb565b5060c08301518482036101a08601526139378282613aaf565b8051600090610260840190613bcd8582613724565b506020830151613be06020860182613724565b506040830151613bf360408601826137a7565b506060830151613c0660c0860182613724565b50608083015184820360e0860152613c1e8282613b2a565b91505060a0830151848203610100860152613c398282613b2a565b91505060c0830151613c4f6101208601826137cb565b5060e0830151613c636101a0860182613a59565b50610100830151613c78610220860182613724565b50610120830151613a51610240860182613724565b8051610100830190613c9f8482613a59565b50602082015161376c6080850182613a59565b6136be81613fca565b6020810161212e82846136b5565b60408101613cd782856136b5565b61223360208301846136b5565b60808101613cf282876136b5565b613cff60208301866136b5565b613d0c60408301856136b5565b6139376060830184613724565b60a08101613d2782886136b5565b613d3460208301876136b5565b613d416040830186613724565b613d4e60608301856136b5565b613d5b6080830184613724565b9695505050505050565b60608101613d7382866136b5565b613d8060208301856136b5565b6134eb6040830184613724565b60e08101613d9b828a6136b5565b613da860208301896136b5565b613db56040830188613724565b613dc260608301876136b5565b613dcf6080830186613724565b613ddc60a0830185613724565b613de960c0830184613736565b98975050505050505050565b60408101613e0382856136b5565b6122336020830184613724565b60a08101613e1e82886136b5565b613e2b6020830187613724565b613e3860408301866136b5565b613d4e6060830185613724565b60808101613e5382876136b5565b613e606020830186613724565b613e6d6040830185613724565b61393760608301846136b5565b60608101613e8882866136b5565b613d806020830185613724565b6020810161212e828461371b565b6020810161212e8284613724565b6020810161212e828461372d565b60408101613ecd828561372d565b612233602083018461372d565b60408101613e038285613724565b6102a0810161212e828461384d565b602080825281016122338184613992565b60408082528101613f198185613992565b905061223360208301846136b5565b602080825281016122338184613bb8565b60408082528101613f198185613bb8565b6040518181016001604060020a0381118282101715613f6857600080fd5b604052919050565b60006001604060020a03821115613f8657600080fd5b5060209081020190565b60200190565b5190565b600160a060020a031690565b151590565b90565b600060048210613fba57fe5b5090565b600060028210613fba57fe5b60ff1690565b600061212e82613f9a565b600060028210613fba57600080fd5b600061212e82613fae565b600061212e82613fbe5600a265627a7a72305820896a5a774fd723040f82a1de5cc1ab3598f7add788bdd929c34e29ad9148c5186c6578706572696d656e74616cf50037",
  "source": "/*\n * Hubii Nahmii\n *\n * Compliant with the Hubii Nahmii specification v0.12.\n *\n * Copyright (C) 2017-2018 Hubii AS\n */\n\npragma solidity ^0.4.25;\npragma experimental ABIEncoderV2;\n\nimport {Ownable} from \"./Ownable.sol\";\nimport {Configurable} from \"./Configurable.sol\";\nimport {Validatable} from \"./Validatable.sol\";\nimport {SecurityBondable} from \"./SecurityBondable.sol\";\nimport {WalletLockable} from \"./WalletLockable.sol\";\nimport {FraudChallengable} from \"./FraudChallengable.sol\";\nimport {CancelOrdersChallengable} from \"./CancelOrdersChallengable.sol\";\nimport {SafeMathIntLib} from \"./SafeMathIntLib.sol\";\nimport {SafeMathUintLib} from \"./SafeMathUintLib.sol\";\nimport {MonetaryTypesLib} from \"./MonetaryTypesLib.sol\";\nimport {NahmiiTypesLib} from \"./NahmiiTypesLib.sol\";\nimport {SettlementTypesLib} from \"./SettlementTypesLib.sol\";\nimport {CancelOrdersChallenge} from \"./CancelOrdersChallenge.sol\";\nimport {NullSettlementChallenge} from \"./NullSettlementChallenge.sol\";\n\n/**\n * @title NullSettlementDispute\n * @notice The workhorse of null settlement challenges, utilized by NullSettlementChallenge\n */\ncontract NullSettlementDispute is Ownable, Configurable, Validatable, SecurityBondable, WalletLockable,\nFraudChallengable, CancelOrdersChallengable {\n    using SafeMathIntLib for int256;\n    using SafeMathUintLib for uint256;\n\n    //\n    // Variables\n    // -----------------------------------------------------------------------------------------------------------------\n    NullSettlementChallenge public nullSettlementChallenge;\n\n    //\n    // Events\n    // -----------------------------------------------------------------------------------------------------------------\n    event SetNullSettlementChallengeEvent(NullSettlementChallenge oldNullSettlementChallenge,\n        NullSettlementChallenge newNullSettlementChallenge);\n    event ChallengeByOrderEvent(address wallet, uint256 nonce,\n        bytes32 candidateHash, address challenger);\n    event ChallengeByTradeEvent(address wallet, uint256 nonce,\n        bytes32 candidateHash, address challenger);\n    event ChallengeByPaymentEvent(address wallet, uint256 nonce,\n        bytes32 candidateHash, address challenger);\n\n    //\n    // Constructor\n    // -----------------------------------------------------------------------------------------------------------------\n    constructor(address deployer) Ownable(deployer) public {\n    }\n\n    /// @notice Set the settlement challenge contract\n    /// @param newNullSettlementChallenge The (address of) NullSettlementChallenge contract instance\n    function setNullSettlementChallenge(NullSettlementChallenge newNullSettlementChallenge) public\n    onlyDeployer\n    notNullAddress(newNullSettlementChallenge)\n    {\n        NullSettlementChallenge oldNullSettlementChallenge = nullSettlementChallenge;\n        nullSettlementChallenge = newNullSettlementChallenge;\n        emit SetNullSettlementChallengeEvent(oldNullSettlementChallenge, nullSettlementChallenge);\n    }\n\n    /// @notice Challenge the settlement by providing order candidate\n    /// @param order The order candidate that challenges\n    /// @param challenger The address of the challenger\n    /// @dev If (candidate) order has buy intention consider _conjugate_ currency and amount, else\n    /// if (candidate) order has sell intention consider _intended_ currency and amount\n    function challengeByOrder(NahmiiTypesLib.Order order, address challenger)\n    public\n    onlyNullSettlementChallenge\n    onlySealedOrder(order)\n    {\n        // Require that order candidate is not labelled fraudulent or cancelled\n        require(!fraudChallenge.isFraudulentOrderHash(order.seals.operator.hash));\n        require(!cancelOrdersChallenge.isOrderCancelled(order.wallet, order.seals.operator.hash));\n\n        // Get the relevant currency\n        MonetaryTypesLib.Currency memory currency = _orderCurrency(order);\n\n        // Require that proposal has not expired\n        require(!nullSettlementChallenge.hasProposalExpired(order.wallet, currency.ct, currency.id));\n\n        // TODO Replace by wallet nonce\n        // Require that payment's block number is not earlier than proposal's block number or its current\n        // disqualification block number\n        require(order.blockNumber >= nullSettlementChallenge.proposalBlockNumber(\n            order.wallet, currency.ct, currency.id\n        ));\n        require(order.blockNumber >= nullSettlementChallenge.proposalDisqualificationBlockNumber(\n            order.wallet, currency.ct, currency.id\n        ));\n\n        // Require that transfer amount is strictly greater than the proposal's target balance amount\n        // for this order to be a valid challenge candidate\n        require(_orderTransferAmount(order) > nullSettlementChallenge.proposalTargetBalanceAmount(\n            order.wallet, currency.ct, currency.id\n        ));\n\n        // Reward challenger\n        // TODO Need balance as part of order to replace transfer amount (_orderTransferAmount(order)) in call below\n        _settleRewards(order.wallet, _orderTransferAmount(order), currency, challenger, 0);\n\n        // Disqualify proposal, effectively overriding any previous disqualification\n        nullSettlementChallenge.disqualifyProposal(\n            order.wallet, currency.ct, currency.id, challenger, order.blockNumber,\n            order.seals.operator.hash, SettlementTypesLib.CandidateType.Order\n        );\n\n        // Emit event\n        emit ChallengeByOrderEvent(\n            order.wallet,\n            nullSettlementChallenge.proposalNonce(order.wallet, currency.ct, currency.id),\n            nullSettlementChallenge.proposalDisqualificationCandidateHash(order.wallet, currency.ct, currency.id),\n            challenger\n        );\n    }\n\n    /// @notice Challenge the settlement by providing trade candidate\n    /// @param wallet The wallet whose settlement is being challenged\n    /// @param trade The trade candidate that challenges\n    /// @param challenger The address of the challenger\n    /// @dev If wallet is buyer in (candidate) trade consider single _conjugate_ transfer in (candidate) trade. Else\n    /// if wallet is seller in (candidate) trade consider single _intended_ transfer in (candidate) trade\n    function challengeByTrade(address wallet, NahmiiTypesLib.Trade trade, address challenger)\n    public\n    onlyNullSettlementChallenge\n    onlySealedTrade(trade)\n    onlyTradeParty(trade, wallet)\n    {\n        // Require that trade candidate is not labelled fraudulent\n        require(!fraudChallenge.isFraudulentTradeHash(trade.seal.hash));\n\n        // Require that wallet's order in trade is not labelled fraudulent or cancelled\n        require(!fraudChallenge.isFraudulentOrderHash(_tradeOrderHash(trade, wallet)));\n        require(!cancelOrdersChallenge.isOrderCancelled(wallet, _tradeOrderHash(trade, wallet)));\n\n        // Get the relevant currency\n        MonetaryTypesLib.Currency memory currency = _tradeCurrency(trade, wallet);\n\n        // Require that proposal has not expired\n        require(!nullSettlementChallenge.hasProposalExpired(wallet, currency.ct, currency.id));\n\n        // TODO Replace by wallet nonce\n        // Require that payment's block number is not earlier than proposal's block number or its current\n        // disqualification block number\n        require(trade.blockNumber >= nullSettlementChallenge.proposalBlockNumber(\n            wallet, currency.ct, currency.id\n        ));\n        require(trade.blockNumber >= nullSettlementChallenge.proposalDisqualificationBlockNumber(\n            wallet, currency.ct, currency.id\n        ));\n\n        // Require that transfer amount is strictly greater than the proposal's target balance amount\n        // for this trade to be a valid challenge candidate\n        require(_tradeTransferAmount(trade, wallet) > nullSettlementChallenge.proposalTargetBalanceAmount(\n            wallet, currency.ct, currency.id\n        ));\n\n        // Reward challenger\n        _settleRewards(wallet, _tradeBalanceAmount(trade, wallet), currency, challenger, 0);\n\n        // Disqualify proposal, effectively overriding any previous disqualification\n        nullSettlementChallenge.disqualifyProposal(\n            wallet, currency.ct, currency.id, challenger, trade.blockNumber,\n            trade.seal.hash, SettlementTypesLib.CandidateType.Trade\n        );\n\n        // Emit event\n        emit ChallengeByTradeEvent(\n            wallet,\n            nullSettlementChallenge.proposalNonce(wallet, currency.ct, currency.id),\n            nullSettlementChallenge.proposalDisqualificationCandidateHash(wallet, currency.ct, currency.id),\n            challenger\n        );\n    }\n\n    /// @notice Challenge the settlement by providing payment candidate\n    /// @dev This challenges the payment sender's side of things\n    /// @param wallet The wallet whose settlement is being challenged\n    /// @param payment The payment candidate that challenges\n    /// @param challenger The address of the challenger\n    function challengeByPayment(address wallet, NahmiiTypesLib.Payment payment, address challenger)\n    public\n    onlyNullSettlementChallenge\n    onlySealedPayment(payment)\n    onlyPaymentParty(payment, wallet)\n    {\n        // Require that payment candidate is not labelled fraudulent\n        require(!fraudChallenge.isFraudulentPaymentHash(payment.seals.operator.hash));\n\n        // Require that proposal has not expired\n        require(!nullSettlementChallenge.hasProposalExpired(wallet, payment.currency.ct, payment.currency.id));\n\n        // TODO Replace by wallet nonce\n        // Require that payment's block number is not earlier than proposal's block number or its current\n        // disqualification block number\n        require(payment.blockNumber >= nullSettlementChallenge.proposalBlockNumber(\n            wallet, payment.currency.ct, payment.currency.id\n        ));\n        require(payment.blockNumber >= nullSettlementChallenge.proposalDisqualificationBlockNumber(\n            wallet, payment.currency.ct, payment.currency.id\n        ));\n\n        // Require that transfer amount is strictly greater than the proposal's target balance amount\n        // for this payment to be a valid challenge candidate\n        require(payment.transfers.single > nullSettlementChallenge.proposalTargetBalanceAmount(\n            wallet, payment.currency.ct, payment.currency.id\n        ));\n\n        // Reward challenger\n        _settleRewards(wallet, payment.sender.balances.current, payment.currency, challenger, 0);\n\n        // Disqualify proposal, effectively overriding any previous disqualification\n        nullSettlementChallenge.disqualifyProposal(\n            wallet, payment.currency.ct, payment.currency.id, challenger, payment.blockNumber,\n            payment.seals.operator.hash, SettlementTypesLib.CandidateType.Payment\n        );\n\n        // Emit event\n        emit ChallengeByPaymentEvent(\n            wallet,\n            nullSettlementChallenge.proposalNonce(wallet, payment.currency.ct, payment.currency.id),\n            nullSettlementChallenge.proposalDisqualificationCandidateHash(wallet, payment.currency.ct, payment.currency.id),\n            challenger\n        );\n    }\n\n    //\n    // Private functions\n    // -----------------------------------------------------------------------------------------------------------------\n    // Get the candidate order currency\n    // Buy order -> Conjugate currency\n    // Sell order -> Intended currency\n    function _orderCurrency(NahmiiTypesLib.Order order)\n    private\n    pure\n    returns (MonetaryTypesLib.Currency)\n    {\n        return NahmiiTypesLib.Intention.Sell == order.placement.intention ?\n        order.placement.currencies.intended :\n        order.placement.currencies.conjugate;\n    }\n\n    // Get the candidate order transfer\n    // Buy order -> Conjugate transfer\n    // Sell order -> Intended transfer\n    function _orderTransferAmount(NahmiiTypesLib.Order order)\n    private\n    pure\n    returns (int256)\n    {\n        return NahmiiTypesLib.Intention.Sell == order.placement.intention ?\n        order.placement.amount :\n        order.placement.amount.div(order.placement.rate);\n    }\n\n    function _tradeOrderHash(NahmiiTypesLib.Trade trade, address wallet)\n    private\n    view\n    returns (bytes32)\n    {\n        return validator.isTradeBuyer(trade, wallet) ?\n        trade.buyer.order.hashes.operator :\n        trade.seller.order.hashes.operator;\n    }\n\n    // Get the candidate trade currency\n    // Wallet is buyer in (candidate) trade -> Conjugate currency\n    // Wallet is seller in (candidate) trade -> Intended currency\n    function _tradeCurrency(NahmiiTypesLib.Trade trade, address wallet)\n    private\n    view\n    returns (MonetaryTypesLib.Currency)\n    {\n        return validator.isTradeBuyer(trade, wallet) ?\n        trade.currencies.conjugate :\n        trade.currencies.intended;\n    }\n\n    // Get the candidate trade transfer amount\n    // Wallet is buyer in (candidate) trade -> Conjugate transfer\n    // Wallet is seller in (candidate) trade -> Intended transfer\n    function _tradeTransferAmount(NahmiiTypesLib.Trade trade, address wallet)\n    private\n    view\n    returns (int256)\n    {\n        return validator.isTradeBuyer(trade, wallet) ?\n        trade.transfers.conjugate.single :\n        trade.transfers.intended.single;\n    }\n\n    // Get the candidate trade balance amount\n    // Wallet is buyer in (candidate) trade -> Buyer's conjugate balance\n    // Wallet is seller in (candidate) trade -> Seller's intended balance\n    function _tradeBalanceAmount(NahmiiTypesLib.Trade trade, address wallet)\n    private\n    view\n    returns (int256)\n    {\n        return validator.isTradeBuyer(trade, wallet) ?\n        trade.buyer.balances.conjugate.current :\n        trade.seller.balances.intended.current;\n    }\n\n    function _settleRewards(address wallet, int256 walletAmount, MonetaryTypesLib.Currency currency,\n        address challenger, uint256 unlockTimeoutInSeconds)\n    private\n    {\n        if (nullSettlementChallenge.proposalBalanceReward(wallet, currency.ct, currency.id))\n            _settleBalanceReward(wallet, walletAmount, currency, challenger);\n\n        else\n            _settleSecurityBondReward(wallet, walletAmount, currency, challenger, unlockTimeoutInSeconds);\n    }\n\n    function _settleBalanceReward(address wallet, int256 walletAmount, MonetaryTypesLib.Currency currency,\n        address challenger)\n    private\n    {\n        // Unlock wallet/currency for existing challenger if previously locked\n        if (SettlementTypesLib.Status.Disqualified == nullSettlementChallenge.proposalStatus(\n            wallet, currency.ct, currency.id\n        ))\n            walletLocker.unlockFungibleByProxy(\n                wallet,\n                nullSettlementChallenge.proposalDisqualificationChallenger(\n                    wallet, currency.ct, currency.id\n                ),\n                currency.ct, currency.id\n            );\n\n        // Lock wallet for new challenger\n        walletLocker.lockFungibleByProxy(wallet, challenger, walletAmount, currency.ct, currency.id);\n    }\n\n    // Settle the two-component reward from security bond.\n    // The first component is flat figure as obtained from Configuration\n    // The second component is progressive and calculated as\n    //    min(walletAmount, fraction of SecurityBond's deposited balance)\n    // both amounts for the given currency\n    function _settleSecurityBondReward(address wallet, int256 walletAmount, MonetaryTypesLib.Currency currency,\n        address challenger, uint256 unlockTimeoutInSeconds)\n    private\n    {\n        // Deprive existing challenger of reward if previously locked\n        if (SettlementTypesLib.Status.Disqualified == nullSettlementChallenge.proposalStatus(\n            wallet, currency.ct, currency.id\n        ))\n            securityBond.depriveAbsolute(\n                nullSettlementChallenge.proposalDisqualificationChallenger(\n                    wallet, currency.ct, currency.id\n                ),\n                currency.ct, currency.id\n            );\n\n        // Reward the flat component\n        MonetaryTypesLib.Figure memory flatReward = _flatReward();\n        securityBond.rewardAbsolute(\n            challenger, flatReward.amount, flatReward.currency.ct, flatReward.currency.id, unlockTimeoutInSeconds\n        );\n\n        // Reward the progressive component\n        int256 progressiveRewardAmount = walletAmount.clampMax(\n            securityBond.depositedFractionalBalance(currency.ct, currency.id, configuration.operatorSettlementStakeFraction())\n        );\n        securityBond.rewardAbsolute(\n            challenger, progressiveRewardAmount, currency.ct, currency.id, unlockTimeoutInSeconds\n        );\n    }\n\n    function _flatReward()\n    private\n    view\n    returns (MonetaryTypesLib.Figure)\n    {\n        (int256 amount, address currencyCt, uint256 currencyId) = configuration.operatorSettlementStake();\n        return MonetaryTypesLib.Figure(amount, MonetaryTypesLib.Currency(currencyCt, currencyId));\n    }\n\n    //\n    // Modifiers\n    // -----------------------------------------------------------------------------------------------------------------\n    modifier onlyNullSettlementChallenge() {\n        require(msg.sender == address(nullSettlementChallenge));\n        _;\n    }\n}",
  "sourcePath": "/opt/buildagent/work/855e104608380c36/contracts/NullSettlementDispute.sol",
  "compiler": {
    "name": "solc",
    "version": "0.4.25+commit.59dbf8f1.Emscripten.clang"
  },
  "schemaVersion": "2.0.1",
  "updatedAt": "2019-01-31T11:28:29.766Z"
}