{
  "contractName": "NullSettlementChallengeState",
  "abi": [
    {
      "constant": true,
      "inputs": [
        {
          "name": "",
          "type": "uint256"
        }
      ],
      "name": "proposals",
      "outputs": [
        {
          "name": "wallet",
          "type": "address"
        },
        {
          "name": "nonce",
          "type": "uint256"
        },
        {
          "name": "blockNumber",
          "type": "uint256"
        },
        {
          "name": "expirationTime",
          "type": "uint256"
        },
        {
          "name": "status",
          "type": "uint8"
        },
        {
          "components": [
            {
              "name": "cumulativeTransfer",
              "type": "int256"
            },
            {
              "name": "stage",
              "type": "int256"
            },
            {
              "name": "targetBalance",
              "type": "int256"
            }
          ],
          "name": "amounts",
          "type": "tuple"
        },
        {
          "components": [
            {
              "name": "ct",
              "type": "address"
            },
            {
              "name": "id",
              "type": "uint256"
            }
          ],
          "name": "currency",
          "type": "tuple"
        },
        {
          "components": [
            {
              "name": "kind",
              "type": "string"
            },
            {
              "name": "hash",
              "type": "bytes32"
            }
          ],
          "name": "challenged",
          "type": "tuple"
        },
        {
          "name": "walletInitiated",
          "type": "bool"
        },
        {
          "components": [
            {
              "name": "challenger",
              "type": "address"
            },
            {
              "name": "nonce",
              "type": "uint256"
            },
            {
              "name": "blockNumber",
              "type": "uint256"
            },
            {
              "components": [
                {
                  "name": "kind",
                  "type": "string"
                },
                {
                  "name": "hash",
                  "type": "bytes32"
                }
              ],
              "name": "candidate",
              "type": "tuple"
            }
          ],
          "name": "disqualification",
          "type": "tuple"
        }
      ],
      "payable": false,
      "stateMutability": "view",
      "type": "function"
    },
    {
      "constant": true,
      "inputs": [
        {
          "name": "service",
          "type": "address"
        }
      ],
      "name": "isRegisteredActiveService",
      "outputs": [
        {
          "name": "",
          "type": "bool"
        }
      ],
      "payable": false,
      "stateMutability": "view",
      "type": "function"
    },
    {
      "constant": true,
      "inputs": [],
      "name": "balanceTracker",
      "outputs": [
        {
          "name": "",
          "type": "address"
        }
      ],
      "payable": false,
      "stateMutability": "view",
      "type": "function"
    },
    {
      "constant": false,
      "inputs": [],
      "name": "triggerSelfDestruction",
      "outputs": [],
      "payable": false,
      "stateMutability": "nonpayable",
      "type": "function"
    },
    {
      "constant": false,
      "inputs": [
        {
          "name": "service",
          "type": "address"
        },
        {
          "name": "action",
          "type": "string"
        }
      ],
      "name": "enableServiceAction",
      "outputs": [],
      "payable": false,
      "stateMutability": "nonpayable",
      "type": "function"
    },
    {
      "constant": true,
      "inputs": [
        {
          "name": "service",
          "type": "address"
        }
      ],
      "name": "isRegisteredService",
      "outputs": [
        {
          "name": "",
          "type": "bool"
        }
      ],
      "payable": false,
      "stateMutability": "view",
      "type": "function"
    },
    {
      "constant": true,
      "inputs": [],
      "name": "selfDestructionDisabled",
      "outputs": [
        {
          "name": "",
          "type": "bool"
        }
      ],
      "payable": false,
      "stateMutability": "view",
      "type": "function"
    },
    {
      "constant": false,
      "inputs": [
        {
          "name": "service",
          "type": "address"
        },
        {
          "name": "action",
          "type": "string"
        }
      ],
      "name": "disableServiceAction",
      "outputs": [],
      "payable": false,
      "stateMutability": "nonpayable",
      "type": "function"
    },
    {
      "constant": true,
      "inputs": [],
      "name": "serviceActivationTimeout",
      "outputs": [
        {
          "name": "",
          "type": "uint256"
        }
      ],
      "payable": false,
      "stateMutability": "view",
      "type": "function"
    },
    {
      "constant": true,
      "inputs": [],
      "name": "balanceTrackerFrozen",
      "outputs": [
        {
          "name": "",
          "type": "bool"
        }
      ],
      "payable": false,
      "stateMutability": "view",
      "type": "function"
    },
    {
      "constant": true,
      "inputs": [],
      "name": "destructor",
      "outputs": [
        {
          "name": "",
          "type": "address"
        }
      ],
      "payable": false,
      "stateMutability": "view",
      "type": "function"
    },
    {
      "constant": false,
      "inputs": [
        {
          "name": "service",
          "type": "address"
        }
      ],
      "name": "deregisterService",
      "outputs": [],
      "payable": false,
      "stateMutability": "nonpayable",
      "type": "function"
    },
    {
      "constant": true,
      "inputs": [],
      "name": "operator",
      "outputs": [
        {
          "name": "",
          "type": "address"
        }
      ],
      "payable": false,
      "stateMutability": "view",
      "type": "function"
    },
    {
      "constant": false,
      "inputs": [
        {
          "name": "newBalanceTracker",
          "type": "address"
        }
      ],
      "name": "setBalanceTracker",
      "outputs": [],
      "payable": false,
      "stateMutability": "nonpayable",
      "type": "function"
    },
    {
      "constant": true,
      "inputs": [
        {
          "name": "service",
          "type": "address"
        },
        {
          "name": "action",
          "type": "string"
        }
      ],
      "name": "isEnabledServiceAction",
      "outputs": [
        {
          "name": "",
          "type": "bool"
        }
      ],
      "payable": false,
      "stateMutability": "view",
      "type": "function"
    },
    {
      "constant": false,
      "inputs": [
        {
          "name": "newConfiguration",
          "type": "address"
        }
      ],
      "name": "setConfiguration",
      "outputs": [],
      "payable": false,
      "stateMutability": "nonpayable",
      "type": "function"
    },
    {
      "constant": true,
      "inputs": [
        {
          "name": "",
          "type": "address"
        },
        {
          "name": "",
          "type": "address"
        },
        {
          "name": "",
          "type": "uint256"
        }
      ],
      "name": "proposalIndexByWalletCurrency",
      "outputs": [
        {
          "name": "",
          "type": "uint256"
        }
      ],
      "payable": false,
      "stateMutability": "view",
      "type": "function"
    },
    {
      "constant": true,
      "inputs": [],
      "name": "configuration",
      "outputs": [
        {
          "name": "",
          "type": "address"
        }
      ],
      "payable": false,
      "stateMutability": "view",
      "type": "function"
    },
    {
      "constant": false,
      "inputs": [],
      "name": "disableSelfDestruction",
      "outputs": [],
      "payable": false,
      "stateMutability": "nonpayable",
      "type": "function"
    },
    {
      "constant": false,
      "inputs": [
        {
          "name": "timeoutInSeconds",
          "type": "uint256"
        }
      ],
      "name": "setServiceActivationTimeout",
      "outputs": [],
      "payable": false,
      "stateMutability": "nonpayable",
      "type": "function"
    },
    {
      "constant": false,
      "inputs": [
        {
          "name": "service",
          "type": "address"
        }
      ],
      "name": "registerServiceDeferred",
      "outputs": [],
      "payable": false,
      "stateMutability": "nonpayable",
      "type": "function"
    },
    {
      "constant": true,
      "inputs": [],
      "name": "REMOVE_PROPOSAL_ACTION",
      "outputs": [
        {
          "name": "",
          "type": "string"
        }
      ],
      "payable": false,
      "stateMutability": "view",
      "type": "function"
    },
    {
      "constant": false,
      "inputs": [
        {
          "name": "newDeployer",
          "type": "address"
        }
      ],
      "name": "setDeployer",
      "outputs": [],
      "payable": false,
      "stateMutability": "nonpayable",
      "type": "function"
    },
    {
      "constant": false,
      "inputs": [
        {
          "name": "newOperator",
          "type": "address"
        }
      ],
      "name": "setOperator",
      "outputs": [],
      "payable": false,
      "stateMutability": "nonpayable",
      "type": "function"
    },
    {
      "constant": false,
      "inputs": [],
      "name": "freezeBalanceTracker",
      "outputs": [],
      "payable": false,
      "stateMutability": "nonpayable",
      "type": "function"
    },
    {
      "constant": true,
      "inputs": [],
      "name": "deployer",
      "outputs": [
        {
          "name": "",
          "type": "address"
        }
      ],
      "payable": false,
      "stateMutability": "view",
      "type": "function"
    },
    {
      "constant": true,
      "inputs": [],
      "name": "DISQUALIFY_PROPOSAL_ACTION",
      "outputs": [
        {
          "name": "",
          "type": "string"
        }
      ],
      "payable": false,
      "stateMutability": "view",
      "type": "function"
    },
    {
      "constant": true,
      "inputs": [],
      "name": "ADD_PROPOSAL_ACTION",
      "outputs": [
        {
          "name": "",
          "type": "string"
        }
      ],
      "payable": false,
      "stateMutability": "view",
      "type": "function"
    },
    {
      "constant": false,
      "inputs": [
        {
          "name": "service",
          "type": "address"
        }
      ],
      "name": "registerService",
      "outputs": [],
      "payable": false,
      "stateMutability": "nonpayable",
      "type": "function"
    },
    {
      "inputs": [
        {
          "name": "deployer",
          "type": "address"
        }
      ],
      "payable": false,
      "stateMutability": "nonpayable",
      "type": "constructor"
    },
    {
      "anonymous": false,
      "inputs": [
        {
          "indexed": false,
          "name": "wallet",
          "type": "address"
        },
        {
          "indexed": false,
          "name": "nonce",
          "type": "uint256"
        },
        {
          "indexed": false,
          "name": "stageAmount",
          "type": "int256"
        },
        {
          "indexed": false,
          "name": "targetBalanceAmount",
          "type": "int256"
        },
        {
          "components": [
            {
              "name": "ct",
              "type": "address"
            },
            {
              "name": "id",
              "type": "uint256"
            }
          ],
          "indexed": false,
          "name": "currency",
          "type": "tuple"
        },
        {
          "indexed": false,
          "name": "blockNumber",
          "type": "uint256"
        },
        {
          "indexed": false,
          "name": "walletInitiated",
          "type": "bool"
        }
      ],
      "name": "AddProposalEvent",
      "type": "event"
    },
    {
      "anonymous": false,
      "inputs": [
        {
          "indexed": false,
          "name": "wallet",
          "type": "address"
        },
        {
          "indexed": false,
          "name": "nonce",
          "type": "uint256"
        },
        {
          "indexed": false,
          "name": "stageAmount",
          "type": "int256"
        },
        {
          "indexed": false,
          "name": "targetBalanceAmount",
          "type": "int256"
        },
        {
          "components": [
            {
              "name": "ct",
              "type": "address"
            },
            {
              "name": "id",
              "type": "uint256"
            }
          ],
          "indexed": false,
          "name": "currency",
          "type": "tuple"
        },
        {
          "indexed": false,
          "name": "blockNumber",
          "type": "uint256"
        },
        {
          "indexed": false,
          "name": "walletInitiated",
          "type": "bool"
        }
      ],
      "name": "RemoveProposalEvent",
      "type": "event"
    },
    {
      "anonymous": false,
      "inputs": [
        {
          "indexed": false,
          "name": "challengedWallet",
          "type": "address"
        },
        {
          "indexed": false,
          "name": "challangedNonce",
          "type": "uint256"
        },
        {
          "indexed": false,
          "name": "stageAmount",
          "type": "int256"
        },
        {
          "indexed": false,
          "name": "targetBalanceAmount",
          "type": "int256"
        },
        {
          "components": [
            {
              "name": "ct",
              "type": "address"
            },
            {
              "name": "id",
              "type": "uint256"
            }
          ],
          "indexed": false,
          "name": "currency",
          "type": "tuple"
        },
        {
          "indexed": false,
          "name": "blockNumber",
          "type": "uint256"
        },
        {
          "indexed": false,
          "name": "walletInitiated",
          "type": "bool"
        },
        {
          "indexed": false,
          "name": "challengerWallet",
          "type": "address"
        },
        {
          "indexed": false,
          "name": "candidateNonce",
          "type": "uint256"
        },
        {
          "indexed": false,
          "name": "candidateHash",
          "type": "bytes32"
        },
        {
          "indexed": false,
          "name": "candidateKind",
          "type": "string"
        }
      ],
      "name": "DisqualifyProposalEvent",
      "type": "event"
    },
    {
      "anonymous": false,
      "inputs": [
        {
          "indexed": false,
          "name": "oldBalanceTracker",
          "type": "address"
        },
        {
          "indexed": false,
          "name": "newBalanceTracker",
          "type": "address"
        }
      ],
      "name": "SetBalanceTrackerEvent",
      "type": "event"
    },
    {
      "anonymous": false,
      "inputs": [],
      "name": "FreezeBalanceTrackerEvent",
      "type": "event"
    },
    {
      "anonymous": false,
      "inputs": [
        {
          "indexed": false,
          "name": "oldConfiguration",
          "type": "address"
        },
        {
          "indexed": false,
          "name": "newConfiguration",
          "type": "address"
        }
      ],
      "name": "SetConfigurationEvent",
      "type": "event"
    },
    {
      "anonymous": false,
      "inputs": [
        {
          "indexed": false,
          "name": "timeoutInSeconds",
          "type": "uint256"
        }
      ],
      "name": "ServiceActivationTimeoutEvent",
      "type": "event"
    },
    {
      "anonymous": false,
      "inputs": [
        {
          "indexed": false,
          "name": "service",
          "type": "address"
        }
      ],
      "name": "RegisterServiceEvent",
      "type": "event"
    },
    {
      "anonymous": false,
      "inputs": [
        {
          "indexed": false,
          "name": "service",
          "type": "address"
        },
        {
          "indexed": false,
          "name": "timeout",
          "type": "uint256"
        }
      ],
      "name": "RegisterServiceDeferredEvent",
      "type": "event"
    },
    {
      "anonymous": false,
      "inputs": [
        {
          "indexed": false,
          "name": "service",
          "type": "address"
        }
      ],
      "name": "DeregisterServiceEvent",
      "type": "event"
    },
    {
      "anonymous": false,
      "inputs": [
        {
          "indexed": false,
          "name": "service",
          "type": "address"
        },
        {
          "indexed": false,
          "name": "action",
          "type": "string"
        }
      ],
      "name": "EnableServiceActionEvent",
      "type": "event"
    },
    {
      "anonymous": false,
      "inputs": [
        {
          "indexed": false,
          "name": "service",
          "type": "address"
        },
        {
          "indexed": false,
          "name": "action",
          "type": "string"
        }
      ],
      "name": "DisableServiceActionEvent",
      "type": "event"
    },
    {
      "anonymous": false,
      "inputs": [
        {
          "indexed": false,
          "name": "oldDeployer",
          "type": "address"
        },
        {
          "indexed": false,
          "name": "newDeployer",
          "type": "address"
        }
      ],
      "name": "SetDeployerEvent",
      "type": "event"
    },
    {
      "anonymous": false,
      "inputs": [
        {
          "indexed": false,
          "name": "oldOperator",
          "type": "address"
        },
        {
          "indexed": false,
          "name": "newOperator",
          "type": "address"
        }
      ],
      "name": "SetOperatorEvent",
      "type": "event"
    },
    {
      "anonymous": false,
      "inputs": [
        {
          "indexed": false,
          "name": "wallet",
          "type": "address"
        }
      ],
      "name": "SelfDestructionDisabledEvent",
      "type": "event"
    },
    {
      "anonymous": false,
      "inputs": [
        {
          "indexed": false,
          "name": "wallet",
          "type": "address"
        }
      ],
      "name": "TriggerSelfDestructionEvent",
      "type": "event"
    },
    {
      "constant": true,
      "inputs": [],
      "name": "proposalsCount",
      "outputs": [
        {
          "name": "",
          "type": "uint256"
        }
      ],
      "payable": false,
      "stateMutability": "view",
      "type": "function"
    },
    {
      "constant": false,
      "inputs": [
        {
          "name": "wallet",
          "type": "address"
        },
        {
          "name": "nonce",
          "type": "uint256"
        },
        {
          "name": "stageAmount",
          "type": "int256"
        },
        {
          "name": "targetBalanceAmount",
          "type": "int256"
        },
        {
          "components": [
            {
              "name": "ct",
              "type": "address"
            },
            {
              "name": "id",
              "type": "uint256"
            }
          ],
          "name": "currency",
          "type": "tuple"
        },
        {
          "name": "blockNumber",
          "type": "uint256"
        },
        {
          "name": "walletInitiated",
          "type": "bool"
        }
      ],
      "name": "addProposal",
      "outputs": [],
      "payable": false,
      "stateMutability": "nonpayable",
      "type": "function"
    },
    {
      "constant": false,
      "inputs": [
        {
          "name": "wallet",
          "type": "address"
        },
        {
          "components": [
            {
              "name": "ct",
              "type": "address"
            },
            {
              "name": "id",
              "type": "uint256"
            }
          ],
          "name": "currency",
          "type": "tuple"
        },
        {
          "name": "walletTerminated",
          "type": "bool"
        }
      ],
      "name": "removeProposal",
      "outputs": [],
      "payable": false,
      "stateMutability": "nonpayable",
      "type": "function"
    },
    {
      "constant": false,
      "inputs": [
        {
          "name": "wallet",
          "type": "address"
        },
        {
          "components": [
            {
              "name": "ct",
              "type": "address"
            },
            {
              "name": "id",
              "type": "uint256"
            }
          ],
          "name": "currency",
          "type": "tuple"
        }
      ],
      "name": "removeProposal",
      "outputs": [],
      "payable": false,
      "stateMutability": "nonpayable",
      "type": "function"
    },
    {
      "constant": false,
      "inputs": [
        {
          "name": "challengedWallet",
          "type": "address"
        },
        {
          "components": [
            {
              "name": "ct",
              "type": "address"
            },
            {
              "name": "id",
              "type": "uint256"
            }
          ],
          "name": "currency",
          "type": "tuple"
        },
        {
          "name": "challengerWallet",
          "type": "address"
        },
        {
          "name": "blockNumber",
          "type": "uint256"
        },
        {
          "name": "candidateNonce",
          "type": "uint256"
        },
        {
          "name": "candidateHash",
          "type": "bytes32"
        },
        {
          "name": "candidateKind",
          "type": "string"
        }
      ],
      "name": "disqualifyProposal",
      "outputs": [],
      "payable": false,
      "stateMutability": "nonpayable",
      "type": "function"
    },
    {
      "constant": true,
      "inputs": [
        {
          "name": "wallet",
          "type": "address"
        },
        {
          "components": [
            {
              "name": "ct",
              "type": "address"
            },
            {
              "name": "id",
              "type": "uint256"
            }
          ],
          "name": "currency",
          "type": "tuple"
        }
      ],
      "name": "hasProposalExpired",
      "outputs": [
        {
          "name": "",
          "type": "bool"
        }
      ],
      "payable": false,
      "stateMutability": "view",
      "type": "function"
    },
    {
      "constant": true,
      "inputs": [
        {
          "name": "wallet",
          "type": "address"
        },
        {
          "components": [
            {
              "name": "ct",
              "type": "address"
            },
            {
              "name": "id",
              "type": "uint256"
            }
          ],
          "name": "currency",
          "type": "tuple"
        }
      ],
      "name": "proposalNonce",
      "outputs": [
        {
          "name": "",
          "type": "uint256"
        }
      ],
      "payable": false,
      "stateMutability": "view",
      "type": "function"
    },
    {
      "constant": true,
      "inputs": [
        {
          "name": "wallet",
          "type": "address"
        },
        {
          "components": [
            {
              "name": "ct",
              "type": "address"
            },
            {
              "name": "id",
              "type": "uint256"
            }
          ],
          "name": "currency",
          "type": "tuple"
        }
      ],
      "name": "proposalBlockNumber",
      "outputs": [
        {
          "name": "",
          "type": "uint256"
        }
      ],
      "payable": false,
      "stateMutability": "view",
      "type": "function"
    },
    {
      "constant": true,
      "inputs": [
        {
          "name": "wallet",
          "type": "address"
        },
        {
          "components": [
            {
              "name": "ct",
              "type": "address"
            },
            {
              "name": "id",
              "type": "uint256"
            }
          ],
          "name": "currency",
          "type": "tuple"
        }
      ],
      "name": "proposalExpirationTime",
      "outputs": [
        {
          "name": "",
          "type": "uint256"
        }
      ],
      "payable": false,
      "stateMutability": "view",
      "type": "function"
    },
    {
      "constant": true,
      "inputs": [
        {
          "name": "wallet",
          "type": "address"
        },
        {
          "components": [
            {
              "name": "ct",
              "type": "address"
            },
            {
              "name": "id",
              "type": "uint256"
            }
          ],
          "name": "currency",
          "type": "tuple"
        }
      ],
      "name": "proposalStatus",
      "outputs": [
        {
          "name": "",
          "type": "uint8"
        }
      ],
      "payable": false,
      "stateMutability": "view",
      "type": "function"
    },
    {
      "constant": true,
      "inputs": [
        {
          "name": "wallet",
          "type": "address"
        },
        {
          "components": [
            {
              "name": "ct",
              "type": "address"
            },
            {
              "name": "id",
              "type": "uint256"
            }
          ],
          "name": "currency",
          "type": "tuple"
        }
      ],
      "name": "proposalStageAmount",
      "outputs": [
        {
          "name": "",
          "type": "int256"
        }
      ],
      "payable": false,
      "stateMutability": "view",
      "type": "function"
    },
    {
      "constant": true,
      "inputs": [
        {
          "name": "wallet",
          "type": "address"
        },
        {
          "components": [
            {
              "name": "ct",
              "type": "address"
            },
            {
              "name": "id",
              "type": "uint256"
            }
          ],
          "name": "currency",
          "type": "tuple"
        }
      ],
      "name": "proposalTargetBalanceAmount",
      "outputs": [
        {
          "name": "",
          "type": "int256"
        }
      ],
      "payable": false,
      "stateMutability": "view",
      "type": "function"
    },
    {
      "constant": true,
      "inputs": [
        {
          "name": "wallet",
          "type": "address"
        },
        {
          "components": [
            {
              "name": "ct",
              "type": "address"
            },
            {
              "name": "id",
              "type": "uint256"
            }
          ],
          "name": "currency",
          "type": "tuple"
        }
      ],
      "name": "proposalWalletInitiated",
      "outputs": [
        {
          "name": "",
          "type": "bool"
        }
      ],
      "payable": false,
      "stateMutability": "view",
      "type": "function"
    },
    {
      "constant": true,
      "inputs": [
        {
          "name": "wallet",
          "type": "address"
        },
        {
          "components": [
            {
              "name": "ct",
              "type": "address"
            },
            {
              "name": "id",
              "type": "uint256"
            }
          ],
          "name": "currency",
          "type": "tuple"
        }
      ],
      "name": "proposalDisqualificationChallenger",
      "outputs": [
        {
          "name": "",
          "type": "address"
        }
      ],
      "payable": false,
      "stateMutability": "view",
      "type": "function"
    },
    {
      "constant": true,
      "inputs": [
        {
          "name": "wallet",
          "type": "address"
        },
        {
          "components": [
            {
              "name": "ct",
              "type": "address"
            },
            {
              "name": "id",
              "type": "uint256"
            }
          ],
          "name": "currency",
          "type": "tuple"
        }
      ],
      "name": "proposalDisqualificationBlockNumber",
      "outputs": [
        {
          "name": "",
          "type": "uint256"
        }
      ],
      "payable": false,
      "stateMutability": "view",
      "type": "function"
    },
    {
      "constant": true,
      "inputs": [
        {
          "name": "wallet",
          "type": "address"
        },
        {
          "components": [
            {
              "name": "ct",
              "type": "address"
            },
            {
              "name": "id",
              "type": "uint256"
            }
          ],
          "name": "currency",
          "type": "tuple"
        }
      ],
      "name": "proposalDisqualificationNonce",
      "outputs": [
        {
          "name": "",
          "type": "uint256"
        }
      ],
      "payable": false,
      "stateMutability": "view",
      "type": "function"
    },
    {
      "constant": true,
      "inputs": [
        {
          "name": "wallet",
          "type": "address"
        },
        {
          "components": [
            {
              "name": "ct",
              "type": "address"
            },
            {
              "name": "id",
              "type": "uint256"
            }
          ],
          "name": "currency",
          "type": "tuple"
        }
      ],
      "name": "proposalDisqualificationCandidateHash",
      "outputs": [
        {
          "name": "",
          "type": "bytes32"
        }
      ],
      "payable": false,
      "stateMutability": "view",
      "type": "function"
    },
    {
      "constant": true,
      "inputs": [
        {
          "name": "wallet",
          "type": "address"
        },
        {
          "components": [
            {
              "name": "ct",
              "type": "address"
            },
            {
              "name": "id",
              "type": "uint256"
            }
          ],
          "name": "currency",
          "type": "tuple"
        }
      ],
      "name": "proposalDisqualificationCandidateKind",
      "outputs": [
        {
          "name": "",
          "type": "string"
        }
      ],
      "payable": false,
      "stateMutability": "view",
      "type": "function"
    }
  ],
  "bytecode": "0x60806040523480156200001157600080fd5b50604051602080620036158339810180604052620000339190810190620000b6565b8080600160a060020a03811615156200004b57600080fd5b600160a060020a0381163014156200006257600080fd5b506000805461010060a860020a031916610100600160a060020a039390931692830217905560018054600160a060020a031916909117905550620000eb565b6000620000af8251620000df565b9392505050565b600060208284031215620000c957600080fd5b6000620000d78484620000a1565b949350505050565b600160a060020a031690565b61351a80620000fb6000396000f3006080604052600436106102215763ffffffff60e060020a600035041663013cf08b811461022657806309df8b0b146102655780630a9f46ad1461029257806317ba3f90146102a757806319139092146102d45780631b90e3c1146102f657806326885b54146103165780632738a112146103385780632b5672e31461034d5780632b91e0a91461036d5780632c1da19a1461038d5780632ee2ed25146103ba5780632f013a00146103da5780633b58c501146103ef5780633b7bea6c1461040f5780633e169c5a146104245780633e59b706146104445780634476d23b1461045957806350b08c021461047b57806352a0dd101461049b5780635482c735146104bb578063553d90e9146104db57806356587229146104fb57806356ec90751461051b578063570ca7351461053b578063598b75ad146105505780635df1b0a314610570578063600e461e14610590578063627f09c3146105b0578063667666c8146105d057806366a6f36d146105f05780636c70bee91461061057806370327ea1146106255780637e15dd5c1461063a5780638b4ed4c21461065a5780638e8cef121461067a57806390cfe9991461069a57806396214735146106af578063b3ab15fb146106cf578063b52d470a146106ef578063b6e2fc3314610704578063c46fcd7514610731578063cf293aac14610751578063d5f3948814610771578063e58be02014610786578063f0d500091461079b578063fdd9ec7d146107b0575b600080fd5b34801561023257600080fd5b50610246610241366004612feb565b6107d0565b60405161025c9a999897969594939291906132f2565b60405180910390f35b34801561027157600080fd5b50610285610280366004612dfa565b6109f4565b60405161025c91906133a4565b34801561029e57600080fd5b50610285610a62565b3480156102b357600080fd5b506102c76102c2366004612d3e565b610a69565b60405161025c9190613396565b3480156102e057600080fd5b506102e9610aa1565b60405161025c91906133b2565b34801561030257600080fd5b50610285610311366004612dfa565b610ab0565b34801561032257600080fd5b50610336610331366004612dfa565b610b1f565b005b34801561034457600080fd5b50610336610c9e565b34801561035957600080fd5b50610336610368366004612da9565b610d04565b34801561037957600080fd5b506102c7610388366004612d3e565b610e32565b34801561039957600080fd5b506103ad6103a8366004612dfa565b610e50565b60405161025c91906133e9565b3480156103c657600080fd5b506102856103d5366004612dfa565b610f48565b3480156103e657600080fd5b506102c7610fb6565b3480156103fb57600080fd5b5061033661040a366004612da9565b610fbf565b34801561041b57600080fd5b5061028561109f565b34801561043057600080fd5b5061033661043f366004612f21565b6110a5565b34801561045057600080fd5b506102c761113c565b34801561046557600080fd5b5061046e61114c565b60405161025c919061317a565b34801561048757600080fd5b50610336610496366004612d3e565b611160565b3480156104a757600080fd5b506103366104b6366004612ede565b611222565b3480156104c757600080fd5b506102c76104d6366004612dfa565b6113d9565b3480156104e757600080fd5b506102856104f6366004612dfa565b611474565b34801561050757600080fd5b5061046e610516366004612dfa565b6114e5565b34801561052757600080fd5b50610285610536366004612dfa565b61155d565b34801561054757600080fd5b5061046e6115cb565b34801561055c57600080fd5b5061033661056b366004612fcd565b6115da565b34801561057c57600080fd5b506102c761058b366004612da9565b611698565b34801561059c57600080fd5b506102856105ab366004612dfa565b6116e8565b3480156105bc57600080fd5b506103366105cb366004612fcd565b611759565b3480156105dc57600080fd5b506103366105eb366004612e2a565b6117f1565b3480156105fc57600080fd5b5061028561060b366004612d5c565b611b95565b34801561061c57600080fd5b506102e9611bb8565b34801561063157600080fd5b50610336611bc7565b34801561064657600080fd5b50610336610655366004612feb565b611c2a565b34801561066657600080fd5b50610285610675366004612dfa565b611c7d565b34801561068657600080fd5b50610336610695366004612d3e565b611cee565b3480156106a657600080fd5b506103ad611d6c565b3480156106bb57600080fd5b506103366106ca366004612d3e565b611d98565b3480156106db57600080fd5b506103366106ea366004612d3e565b611e5f565b3480156106fb57600080fd5b50610336611f09565b34801561071057600080fd5b5061072461071f366004612dfa565b611f5d565b60405161025c91906133db565b34801561073d57600080fd5b5061028561074c366004612dfa565b611fcf565b34801561075d57600080fd5b506102c761076c366004612dfa565b612040565b34801561077d57600080fd5b5061046e6120b2565b34801561079257600080fd5b506103ad6120c6565b3480156107a757600080fd5b506103ad6120f6565b3480156107bc57600080fd5b506103366107cb366004612d3e565b61211f565b60068054829081106107de57fe5b6000918252602091829020601290910201805460018083015460028085015460038601546004870154604080516060818101835260058b0154825260068b0154828d015260078b0154828401528251808401845260088c0154600160a060020a03908116825260098d0154828f01528451600a8e018054601f6000199e821615610100029e909e01169a909a049b8c018f9004909e028e0183018552938d018a815293909a169c50969a9499939860ff90931697909692959394939284929184918401828280156108f05780601f106108c5576101008083540402835291602001916108f0565b820191906000526020600020905b8154815290600101906020018083116108d357829003601f168201915b5050509183525050600191820154602091820152600c84015460408051608081018252600d87018054600160a060020a03168252600e88015482860152600f880154828401528251601089018054601f600299821615610100026000190190911698909804978801879004909602810160609081018552938101878152979860ff9095169794969295919484870194919384928491908401828280156109d75780601f106109ac576101008083540402835291602001916109d7565b820191906000526020600020905b8154815290600101906020018083116109ba57829003601f168201915b50505091835250506001919091015460209091015290525090508a565b600160a060020a03808316600090815260076020908152604080832085519094168352928152828220848201518352905290812054801515610a3557600080fd5b600680546000198301908110610a4757fe5b90600052602060002090601202016002015491505092915050565b6006545b90565b6000610a7482610e32565b8015610a9b5750600160a060020a0382166000908152600260205260409020600101544210155b92915050565b600554600160a060020a031681565b600160a060020a03808316600090815260076020908152604080832085519094168352928152828220848201518352905290812054801515610af157600080fd5b600680546000198301908110610b0357fe5b6000918252602090912060129091020160110154949350505050565b60006040805190810160405280600f8152602001608a60020a6e1c995b5bdd9957dc1c9bdc1bdcd85b02815250610b563382611698565b1515610b6157600080fd5b600160a060020a03808516600090815260076020908152604080832087519094168352928152828220868201518352905220549150811515610ba257610c98565b6000805160206134c183398151915284600660018503815481101515610bc457fe5b906000526020600020906012020160010154600660018603815481101515610be857fe5b906000526020600020906012020160050160010154600660018703815481101515610c0f57fe5b90600052602060002090601202016005016002015487600660018903815481101515610c3757fe5b906000526020600020906012020160020154600660018a03815481101515610c5b57fe5b60009182526020909120600c6012909202010154604051610c859796959493929160ff16906131de565b60405180910390a1610c9682612198565b505b50505050565b33610ca761114c565b600160a060020a031614610cba57600080fd5b60005460ff1615610cca57600080fd5b7f787a5d936e74f4b564b9153575886059829c78cd9927b1be5e0d976b317ef73633604051610cf9919061317a565b60405180910390a133ff5b6000610d0e6124fd565b1515610d1957600080fd5b82600160a060020a0381161515610d2f57600080fd5b600160a060020a038116301415610d4557600080fd5b600160a060020a03841660009081526002602052604090205460ff161515610d6c57600080fd5b610d7583612513565b600160a060020a0385166000908152600260208181526040808420858552909201905290205490925060ff1615610dab57600080fd5b600160a060020a03841660009081526002602081815260408084208685528084018352818520805460ff19166001908117909155938352600301805493840181558452922001839055517fec1b982d69bfc1a6fd8becf191d9a633486c822d3bdedd52303ca81fa635750190610e2490869086906131a3565b60405180910390a150505050565b600160a060020a031660009081526002602052604090205460ff1690565b600160a060020a0380831660009081526007602090815260408083208551909416835292815282822084820151835290522054606090801515610e9257600080fd5b600680546000198301908110610ea457fe5b6000918252602091829020601060129092020101805460408051601f6002600019610100600187161502019094169390930492830185900485028101850190915281815292830182828015610f3a5780601f10610f0f57610100808354040283529160200191610f3a565b820191906000526020600020905b815481529060010190602001808311610f1d57829003601f168201915b505050505091505092915050565b600160a060020a03808316600090815260076020908152604080832085519094168352928152828220848201518352905290812054801515610f8957600080fd5b600680546000198301908110610f9b57fe5b90600052602060002090601202016001015491505092915050565b60005460ff1681565b6000610fc96124fd565b1515610fd457600080fd5b82600160a060020a0381161515610fea57600080fd5b600160a060020a03811630141561100057600080fd5b61100983612513565b600160a060020a0385166000908152600260208181526040808420858552909201905290205490925060ff16151561104057600080fd5b600160a060020a0384166000908152600260208181526040808420868552909201905290819020805460ff19169055517f92f4af6130f47c92f3899e06611c8c6ef191fb81207ad2675d134af619d2fe7d90610e2490869086906131a3565b60035481565b60408051808201909152600c815260a260020a6b18591917dc1c9bdc1bdcd85b0260208201526110d53382611698565b15156110e057600080fd5b6110ef888888888888886125dd565b7f85f55b35f83be656c925e41339a9ad8b7b483ddb81375140e27507db44d480ca8888888888888860405161112a97969594939291906131de565b60405180910390a15050505050505050565b60055460a060020a900460ff1681565b6000546101009004600160a060020a031690565b6111686124fd565b151561117357600080fd5b80600160a060020a038116151561118957600080fd5b600160a060020a03811630141561119f57600080fd5b600160a060020a03821660009081526002602052604090205460ff1615156111c657600080fd5b600160a060020a03821660009081526002602052604090819020805460ff19169055517f777645c5437dfbf962f57a281ead25f3d513f2f8e938685bbfc1738e81c9880e9061121690849061317a565b60405180910390a15050565b60006040805190810160405280600f8152602001608a60020a6e1c995b5bdd9957dc1c9bdc1bdcd85b028152506112593382611698565b151561126457600080fd5b600160a060020a038086166000908152600760209081526040808320885190941683529281528282208782015183529052205491508115156112a557610c96565b6006805460001984019081106112b757fe5b60009182526020909120601290910201600c015460ff161515831515146112dd57600080fd5b6000805160206134c1833981519152856006600185038154811015156112ff57fe5b90600052602060002090601202016001015460066001860381548110151561132357fe5b90600052602060002090601202016005016001015460066001870381548110151561134a57fe5b9060005260206000209060120201600501600201548860066001890381548110151561137257fe5b906000526020600020906012020160020154600660018a0381548110151561139657fe5b60009182526020909120600c60129092020101546040516113c09796959493929160ff16906131de565b60405180910390a16113d182612198565b505050505050565b600160a060020a0380831660009081526007602090815260408083208551909416835292815282822084820151835290529081205480158061143e575060068054600019830190811061142857fe5b9060005260206000209060120201600101546000145b8061146c575060068054600019830190811061145657fe5b9060005260206000209060120201600301544210155b949350505050565b600160a060020a038083166000908152600760209081526040808320855190941683529281528282208482015183529052908120548015156114b557600080fd5b6006805460001983019081106114c757fe5b9060005260206000209060120201600d016001015491505092915050565b600160a060020a0380831660009081526007602090815260408083208551909416835292815282822084820151835290529081205480151561152657600080fd5b60068054600019830190811061153857fe5b60009182526020909120601290910201600d0154600160a060020a0316949350505050565b600160a060020a0380831660009081526007602090815260408083208551909416835292815282822084820151835290529081205480151561159e57600080fd5b6006805460001983019081106115b057fe5b90600052602060002090601202016003015491505092915050565b600154600160a060020a031681565b60006115e46124fd565b15156115ef57600080fd5b81600160a060020a038116151561160557600080fd5b6005548390600160a060020a039081169082168114610c965760055460a060020a900460ff161561163557600080fd5b60058054600160a060020a03878116600160a060020a0319831617909255604051911694507fb2a91d3a71b0c5bc7c083153b3474378e489506ba98bd4ddb1b9056fdc594bb59061168990869088906133c0565b60405180910390a15050505050565b6000806116a483612513565b90506116af84610a69565b801561146c5750600160a060020a0384166000908152600260208181526040808420858552909201905290205460ff1691505092915050565b600160a060020a0380831660009081526007602090815260408083208551909416835292815282822084820151835290529081205480151561172957600080fd5b60068054600019830190811061173b57fe5b90600052602060002090601202016005016001015491505092915050565b60006117636124fd565b151561176e57600080fd5b81600160a060020a038116151561178457600080fd5b6004548390600160a060020a039081169082168114610c965760048054600160a060020a03878116600160a060020a0319831617909255604051911694507f634f61bf00e14adedce330c80c2823e16e184f189ebe853e1ddecc4a268477ff9061168990869088906133c0565b6000604080519081016040528060138152602001606a60020a72191a5cdc5d585b1a599e57dc1c9bdc1bdcd85b0281525061182c3382611698565b151561183757600080fd5b600160a060020a03808a1660009081526007602090815260408083208c5190941683529281528282208b820151835290522054915081151561187857600080fd5b600160066001840381548110151561188c57fe5b60009182526020909120600460129092020101805460ff1916600183818111156118b257fe5b0217905550611952600460009054906101000a9004600160a060020a0316600160a060020a031663fbdfd8e76040518163ffffffff1660e060020a028152600401602060405180830381600087803b15801561190d57600080fd5b505af1158015611921573d6000803e3d6000fd5b505050506040513d601f19601f820116820180604052506119459190810190613009565b429063ffffffff61298d16565b60068054600019850190811061196457fe5b9060005260206000209060120201600301819055508660066001840381548110151561198c57fe5b9060005260206000209060120201600d0160000160006101000a815481600160a060020a030219169083600160a060020a03160217905550846006600184038154811015156119d757fe5b60009182526020909120600e6012909202010155600680548791906000198501908110611a0057fe5b60009182526020909120600f6012909202010155600680548591906000198501908110611a2957fe5b6000918252602090912060116012909202010155600680548491906000198501908110611a5257fe5b9060005260206000209060120201600d016003016000019080519060200190611a7c929190612a06565b507f8bacef72bf6455be1f2f376b412755609a1aa75badaa82dce17da01e07699e8689600660018503815481101515611ab157fe5b906000526020600020906012020160010154600660018603815481101515611ad557fe5b906000526020600020906012020160050160010154600660018703815481101515611afc57fe5b9060005260206000209060120201600501600201548c600660018903815481101515611b2457fe5b906000526020600020906012020160020154600660018a03815481101515611b4857fe5b9060005260206000209060120201600c0160009054906101000a900460ff168e8d8d8d604051611b829b9a99989796959493929190613247565b60405180910390a1505050505050505050565b600760209081526000938452604080852082529284528284209052825290205481565b600454600160a060020a031681565b33611bd061114c565b600160a060020a031614611be357600080fd5b6000805460ff191660011790556040517fd5a2a04a775c741c2ca0dc46ea7ce4835190e1aaf1ca018def0e82568ec3361690611c2090339061317a565b60405180910390a1565b611c326124fd565b1515611c3d57600080fd5b60038190556040517f4f1d324a1cbffc352fb64f1d73d95e4b200d92f99ef39bf2d7f5b41f946909d690611c729083906133a4565b60405180910390a150565b600160a060020a03808316600090815260076020908152604080832085519094168352928152828220848201518352905290812054801515611cbe57600080fd5b600680546000198301908110611cd057fe5b9060005260206000209060120201600d016002015491505092915050565b611cf66124fd565b1515611d0157600080fd5b80600160a060020a0381161515611d1757600080fd5b600160a060020a038116301415611d2d57600080fd5b611d39826003546129a3565b7f7f3a8349917003ed377f6e9ae1608b92edd893903f8983bd274b1f8373dd3b11826003546040516112169291906131c3565b60408051808201909152600f8152608a60020a6e1c995b5bdd9957dc1c9bdc1bdcd85b02602082015281565b6000611da26124fd565b1515611dad57600080fd5b81600160a060020a0381161515611dc357600080fd5b600160a060020a038116301415611dd957600080fd5b600054600160a060020a038481166101009092041614611e5a5760008054600160a060020a0385811661010090810261010060a860020a0319841617909355604051929091041692507f977e5fa58e458501775e0008d275006294c5249e3c08d1d0e3a9f3acad14f6e490611e519084908690613188565b60405180910390a15b505050565b6000611e696129f5565b1515611e7457600080fd5b81600160a060020a0381161515611e8a57600080fd5b600160a060020a038116301415611ea057600080fd5b600154600160a060020a03848116911614611e5a5760018054600160a060020a03858116600160a060020a0319831617909255604051911692507f9f611b789425d0d5b90b920f1b2852907dd865c80074a30b1629aaa041d1812c90611e519084908690613188565b611f116124fd565b1515611f1c57600080fd5b6005805460a060020a60ff02191660a060020a1790556040517f9c567b65fe8caab5ec7bc979a498a1322c1d4baf01a30727cbca137187560ea290600090a1565b600160a060020a03808316600090815260076020908152604080832085519094168352928152828220848201518352905290812054801515611f9e57600080fd5b600680546000198301908110611fb057fe5b600091825260209091206012909102016004015460ff16949350505050565b600160a060020a0380831660009081526007602090815260408083208551909416835292815282822084820151835290529081205480151561201057600080fd5b60068054600019830190811061202257fe5b90600052602060002090601202016005016002015491505092915050565b600160a060020a0380831660009081526007602090815260408083208551909416835292815282822084820151835290529081205480151561208157600080fd5b60068054600019830190811061209357fe5b60009182526020909120601290910201600c015460ff16949350505050565b6000546101009004600160a060020a031681565b6040805180820190915260138152606a60020a72191a5cdc5d585b1a599e57dc1c9bdc1bdcd85b02602082015281565b60408051808201909152600c815260a260020a6b18591917dc1c9bdc1bdcd85b02602082015281565b6121276124fd565b151561213257600080fd5b80600160a060020a038116151561214857600080fd5b600160a060020a03811630141561215e57600080fd5b6121698260006129a3565b7fb619d545cb511bd5f02907a1eac4f4cb8dace7b1846852fb0bf5e553937481c182604051611216919061317a565b600080600760006006600186038154811015156121b157fe5b60009182526020808320601290920290910154600160a060020a0316835282019290925260400181206006805491929160001987019081106121ef57fe5b6000918252602080832060086012909302019190910154600160a060020a03168352820192909252604001812060068054919291600019870190811061223157fe5b600091825260208083206009601290930201919091015483528201929092526040019020556006548210156124e45760068054600019810190811061227257fe5b906000526020600020906012020160066001840381548110151561229257fe5b6000918252602090912082546012909202018054600160a060020a031916600160a060020a03909216919091178155600180830154818301556002808401549083015560038084015490830155600480840154908301805460ff90921692909160ff191690838181111561230257fe5b02179055506005828101549082015560068083015490820155600780830154908201556008808301549082018054600160a060020a031916600160a060020a0390921691909117905560098083015490820155600a80830180549091830190612381908290849060026001821615610100026000190190911604612a84565b5060019182015490820155600c83810154908301805460ff909216151560ff19909216919091179055600d80840180549184018054600160a060020a031916600160a060020a03909316929092178255600e8086015490850155600f80860154908501556010808601805492949092918601916124139183918591600290821615610100026000190190911604612a84565b506001918201549101555050600680548593506007925060009190600019850190811061243c57fe5b60009182526020808320601290920290910154600160a060020a03168352820192909252604001812060068054919291600019870190811061247a57fe5b6000918252602080832060086012909302019190910154600160a060020a0316835282019290925260400181206006805491929160001987019081106124bc57fe5b9060005260206000209060120201600801600101548152602001908152602001600020819055505b60068054906124f7906000198301612af9565b50919050565b6000546101009004600160a060020a0316331490565b6000816040516020018082805190602001908083835b602083106125485780518252601f199092019160209182019101612529565b6001836020036101000a0380198251168184511680821785525050505050509050019150506040516020818303038152906040526040518082805190602001908083835b602083106125ab5780518252601f19909201916020918201910161258c565b5181516020939093036101000a6000190180199091169216919091179052604051920182900390912095945050505050565b60405160e060020a636b84d93102815273__SafeMathIntLib________________________90636b84d931906126179088906004016133a4565b60206040518083038186803b15801561262f57600080fd5b505af4158015612643573d6000803e3d6000fd5b505050506040513d601f19601f820116820180604052506126679190810190612faf565b151561267257600080fd5b60405160e060020a636b84d93102815273__SafeMathIntLib________________________90636b84d931906126ac9087906004016133a4565b60206040518083038186803b1580156126c457600080fd5b505af41580156126d8573d6000803e3d6000fd5b505050506040513d601f19601f820116820180604052506126fc9190810190612faf565b151561270757600080fd5b60068054906127199060018301612af9565b5060068054889190600019810190811061272f57fe5b600091825260209091206012909102018054600160a060020a031916600160a060020a039290921691909117905560068054879190600019810190811061277257fe5b600091825260209091206001601290920201015560068054839190600019810190811061279b57fe5b906000526020600020906012020160020181905550612806600460009054906101000a9004600160a060020a0316600160a060020a031663fbdfd8e76040518163ffffffff1660e060020a028152600401602060405180830381600087803b15801561190d57600080fd5b60068054600019810190811061281857fe5b6000918252602082206003601290920201019190915560068054600019810190811061284057fe5b60009182526020909120600460129092020101805460ff19166001838181111561286657fe5b021790555060068054849190600019810190811061288057fe5b6000918252602091829020835160129290920201600881018054600160a060020a031916600160a060020a03909316929092179091559101516009909101556006805486919060001981019081106128d457fe5b600091825260209091206006601290920201810191909155805485919060001981019081106128ff57fe5b600091825260209091206007601290920201015560068054829190600019810190811061292857fe5b60009182526020808320601292909202909101600c01805460ff191693151593909317909255600654600160a060020a03998a1682526007835260408083208751909b1683529983528982209583015182529490915296909620919091555050505050565b60008282018381101561299c57fe5b9392505050565b600160a060020a03821660009081526002602052604090205460ff1615156129f157600160a060020a0382166000908152600260205260409020805460ff1916600190811782554283019101555b5050565b600154600160a060020a0316331490565b828054600181600116156101000203166002900490600052602060002090601f016020900481019282601f10612a4757805160ff1916838001178555612a74565b82800160010185558215612a74579182015b82811115612a74578251825591602001919060010190612a59565b50612a80929150612b25565b5090565b828054600181600116156101000203166002900490600052602060002090601f016020900481019282601f10612abd5780548555612a74565b82800160010185558215612a7457600052602060002091601f016020900482015b82811115612a74578254825591600101919060010190612ade565b815481835581811115611e5a57601202816012028360005260206000209182019101611e5a9190612b3f565b610a6691905b80821115612a805760008155600101612b2b565b610a6691905b80821115612a80578054600160a060020a03199081168255600060018301819055600283018190556003830181905560048301805460ff1916905560058301819055600683018190556007830181905560088301805490921690915560098201819055600a820181612bb78282612c14565b506000600191909101819055600c8301805460ff19169055600d83018054600160a060020a0319168155600e8401829055600f8401829055906010840181612bff8282612c14565b60018201600090555050505050601201612b45565b50805460018160011615610100020316600290046000825580601f10612c3a5750612c58565b601f016020900490600052602060002090810190612c589190612b25565b50565b600061299c823561344b565b600061299c8235613457565b600061299c8251613457565b600061299c8235610a66565b600061299c8235613468565b6000601f82018313612ca857600080fd5b8135612cbb612cb682613420565b6133fa565b91508082526020830160208301858383011115612cd757600080fd5b612ce283828461347e565b50505092915050565b600060408284031215612cfd57600080fd5b612d0760406133fa565b90506000612d158484612c5b565b8252506020612d2684848301612c7f565b60208301525092915050565b600061299c8251610a66565b600060208284031215612d5057600080fd5b600061146c8484612c5b565b600080600060608486031215612d7157600080fd5b6000612d7d8686612c5b565b9350506020612d8e86828701612c5b565b9250506040612d9f86828701612c7f565b9150509250925092565b60008060408385031215612dbc57600080fd5b6000612dc88585612c5b565b92505060208301356001604060020a03811115612de457600080fd5b612df085828601612c97565b9150509250929050565b60008060608385031215612e0d57600080fd5b6000612e198585612c5b565b9250506020612df085828601612ceb565b6000806000806000806000610100888a031215612e4657600080fd5b6000612e528a8a612c5b565b9750506020612e638a828b01612ceb565b9650506060612e748a828b01612c5b565b9550506080612e858a828b01612c7f565b94505060a0612e968a828b01612c7f565b93505060c0612ea78a828b01612c7f565b92505060e08801356001604060020a03811115612ec357600080fd5b612ecf8a828b01612c97565b91505092959891949750929550565b600080600060808486031215612ef357600080fd5b6000612eff8686612c5b565b9350506020612f1086828701612ceb565b9250506060612d9f86828701612c67565b6000806000806000806000610100888a031215612f3d57600080fd5b6000612f498a8a612c5b565b9750506020612f5a8a828b01612c7f565b9650506040612f6b8a828b01612c7f565b9550506060612f7c8a828b01612c7f565b9450506080612f8d8a828b01612ceb565b93505060c0612f9e8a828b01612c7f565b92505060e0612ecf8a828b01612c67565b600060208284031215612fc157600080fd5b600061146c8484612c73565b600060208284031215612fdf57600080fd5b600061146c8484612c8b565b600060208284031215612ffd57600080fd5b600061146c8484612c7f565b60006020828403121561301b57600080fd5b600061146c8484612d32565b6130308161344b565b82525050565b61303081613457565b61303081610a66565b61303081613468565b61303081613473565b600061306582613447565b80845261307981602086016020860161348a565b613082816134b6565b9093016020019392505050565b805160608301906130a0848261303f565b5060208201516130b3602085018261303f565b506040820151610c98604085018261303f565b805160408301906130d78482613027565b506020820151610c98602085018261303f565b805160009060808401906130fe8582613027565b506020830151613111602086018261303f565b506040830151613124604086018261303f565b506060830151848203606086015261313c8282613145565b95945050505050565b805160408084526000919084019061315d828261305a565b9150506020830151613172602086018261303f565b509392505050565b60208101610a9b8284613027565b604081016131968285613027565b61299c6020830184613027565b604081016131b18285613027565b818103602083015261146c818461305a565b604081016131d18285613027565b61299c602083018461303f565b61010081016131ed828a613027565b6131fa602083018961303f565b613207604083018861303f565b613214606083018761303f565b61322160808301866130c6565b61322e60c083018561303f565b61323b60e0830184613036565b98975050505050505050565b6101808101613256828e613027565b613263602083018d61303f565b613270604083018c61303f565b61327d606083018b61303f565b61328a608083018a6130c6565b61329760c083018961303f565b6132a460e0830188613036565b6132b2610100830187613027565b6132c061012083018661303f565b6132ce61014083018561303f565b8181036101608301526132e1818461305a565b9d9c50505050505050505050505050565b6101a08101613301828d613027565b61330e602083018c61303f565b61331b604083018b61303f565b613328606083018a61303f565b6133356080830189613051565b61334260a083018861308f565b6133506101008301876130c6565b8181036101408301526133638186613145565b9050613373610160830185613036565b81810361018083015261338681846130ea565b9c9b505050505050505050505050565b60208101610a9b8284613036565b60208101610a9b828461303f565b60208101610a9b8284613048565b604081016133ce8285613048565b61299c6020830184613048565b60208101610a9b8284613051565b6020808252810161299c818461305a565b6040518181016001604060020a038111828210171561341857600080fd5b604052919050565b60006001604060020a0382111561343657600080fd5b506020601f91909101601f19160190565b5190565b600160a060020a031690565b151590565b600060028210612a8057fe5b6000610a9b8261344b565b6000610a9b8261345c565b82818337506000910152565b60005b838110156134a557818101518382015260200161348d565b83811115610c985750506000910152565b601f01601f1916905600339eee9d150f0bc8955ebdbba0b1ba60f5882070d87f6c9c6d95b742a369534aa265627a7a723058202bb57721ac2680876000f2d6a63088050fc2950793faf80a39a02e4ee6eae99b6c6578706572696d656e74616cf50037",
  "source": "/*\n * Hubii Nahmii\n *\n * Compliant with the Hubii Nahmii specification v0.12.\n *\n * Copyright (C) 2017-2018 Hubii AS\n */\n\npragma solidity ^0.4.25;\npragma experimental ABIEncoderV2;\n\nimport {Ownable} from \"./Ownable.sol\";\nimport {Servable} from \"./Servable.sol\";\nimport {Configurable} from \"./Configurable.sol\";\nimport {BalanceTrackable} from \"./BalanceTrackable.sol\";\nimport {SafeMathIntLib} from \"./SafeMathIntLib.sol\";\nimport {SafeMathUintLib} from \"./SafeMathUintLib.sol\";\nimport {MonetaryTypesLib} from \"./MonetaryTypesLib.sol\";\nimport {NahmiiTypesLib} from \"./NahmiiTypesLib.sol\";\nimport {SettlementChallengeTypesLib} from \"./SettlementChallengeTypesLib.sol\";\n\n/**\n * @title NullSettlementChallengeState\n * @notice Where null settlements challenge state is managed\n */\ncontract NullSettlementChallengeState is Ownable, Servable, Configurable, BalanceTrackable {\n    using SafeMathIntLib for int256;\n    using SafeMathUintLib for uint256;\n\n    //\n    // Constants\n    // -----------------------------------------------------------------------------------------------------------------\n    string constant public ADD_PROPOSAL_ACTION = \"add_proposal\";\n    string constant public REMOVE_PROPOSAL_ACTION = \"remove_proposal\";\n    string constant public DISQUALIFY_PROPOSAL_ACTION = \"disqualify_proposal\";\n\n    //\n    // Variables\n    // -----------------------------------------------------------------------------------------------------------------\n    SettlementChallengeTypesLib.Proposal[] public proposals;\n    mapping(address => mapping(address => mapping(uint256 => uint256))) public proposalIndexByWalletCurrency;\n\n    //\n    // Events\n    // -----------------------------------------------------------------------------------------------------------------\n    event AddProposalEvent(address wallet, uint256 nonce, int256 stageAmount, int256 targetBalanceAmount,\n        MonetaryTypesLib.Currency currency, uint256 blockNumber, bool walletInitiated);\n    event RemoveProposalEvent(address wallet, uint256 nonce, int256 stageAmount, int256 targetBalanceAmount,\n        MonetaryTypesLib.Currency currency, uint256 blockNumber, bool walletInitiated);\n    event DisqualifyProposalEvent(address challengedWallet, uint256 challangedNonce, int256 stageAmount,\n        int256 targetBalanceAmount, MonetaryTypesLib.Currency currency, uint256 blockNumber, bool walletInitiated,\n        address challengerWallet, uint256 candidateNonce, bytes32 candidateHash, string candidateKind);\n\n    //\n    // Constructor\n    // -----------------------------------------------------------------------------------------------------------------\n    constructor(address deployer) Ownable(deployer) public {\n    }\n\n    //\n    // Functions\n    // -----------------------------------------------------------------------------------------------------------------\n    /// @notice Get the number of proposals\n    /// @return The number of proposals\n    function proposalsCount()\n    public\n    view\n    returns (uint256)\n    {\n        return proposals.length;\n    }\n\n    /// @notice Add proposal\n    /// @param wallet The address of the concerned challenged wallet\n    /// @param nonce The wallet nonce\n    /// @param stageAmount The proposal stage amount\n    /// @param targetBalanceAmount The proposal target balance amount\n    /// @param currency The concerned currency\n    /// @param blockNumber The proposal block number\n    /// @param walletInitiated True if reward from candidate balance\n    function addProposal(address wallet, uint256 nonce, int256 stageAmount, int256 targetBalanceAmount,\n        MonetaryTypesLib.Currency currency, uint256 blockNumber, bool walletInitiated)\n    public\n    onlyEnabledServiceAction(ADD_PROPOSAL_ACTION)\n    {\n        // Add proposal\n        _addProposal(\n            wallet, nonce, stageAmount, targetBalanceAmount,\n            currency, blockNumber, walletInitiated\n        );\n\n        // Emit event\n        emit AddProposalEvent(\n            wallet, nonce, stageAmount, targetBalanceAmount, currency,\n            blockNumber, walletInitiated\n        );\n    }\n\n    /// @notice Remove a proposal\n    /// @param wallet The address of the concerned challenged wallet\n    /// @param currency The concerned currency\n    function removeProposal(address wallet, MonetaryTypesLib.Currency currency)\n    public\n    onlyEnabledServiceAction(REMOVE_PROPOSAL_ACTION)\n    {\n        // Get the proposal index\n        uint256 index = proposalIndexByWalletCurrency[wallet][currency.ct][currency.id];\n\n        // Return gracefully if there is no proposal to cancel\n        if (0 == index)\n            return;\n\n        // Emit event\n        emit RemoveProposalEvent(\n            wallet, proposals[index - 1].nonce, proposals[index - 1].amounts.stage,\n            proposals[index - 1].amounts.targetBalance, currency,\n            proposals[index - 1].blockNumber, proposals[index - 1].walletInitiated\n        );\n\n        // Remove proposal\n        _removeProposal(index);\n    }\n\n    /// @notice Remove a proposal\n    /// @param wallet The address of the concerned challenged wallet\n    /// @param currency The concerned currency\n    /// @param walletTerminated True if wallet terminated\n    function removeProposal(address wallet, MonetaryTypesLib.Currency currency, bool walletTerminated)\n    public\n    onlyEnabledServiceAction(REMOVE_PROPOSAL_ACTION)\n    {\n        // Get the proposal index\n        uint256 index = proposalIndexByWalletCurrency[wallet][currency.ct][currency.id];\n\n        // Return gracefully if there is no proposal to cancel\n        if (0 == index)\n            return;\n\n        // Require that role that initialized (wallet or operator) can only cancel its own proposal\n        require(walletTerminated == proposals[index - 1].walletInitiated);\n\n        // Emit event\n        emit RemoveProposalEvent(\n            wallet, proposals[index - 1].nonce, proposals[index - 1].amounts.stage,\n            proposals[index - 1].amounts.targetBalance, currency,\n            proposals[index - 1].blockNumber, proposals[index - 1].walletInitiated\n        );\n\n        // Remove proposal\n        _removeProposal(index);\n    }\n\n    /// @notice Disqualify a proposal\n    /// @dev A call to this function will intentionally override previous disqualifications if existent\n    /// @param challengedWallet The address of the concerned challenged wallet\n    /// @param currency The concerned currency\n    /// @param challengerWallet The address of the concerned challenger wallet\n    /// @param blockNumber The disqualification block number\n    /// @param candidateNonce The candidate nonce\n    /// @param candidateHash The candidate hash\n    /// @param candidateKind The candidate kind\n    function disqualifyProposal(address challengedWallet, MonetaryTypesLib.Currency currency, address challengerWallet,\n        uint256 blockNumber, uint256 candidateNonce, bytes32 candidateHash, string candidateKind)\n    public\n    onlyEnabledServiceAction(DISQUALIFY_PROPOSAL_ACTION)\n    {\n        // Get the proposal index\n        uint256 index = proposalIndexByWalletCurrency[challengedWallet][currency.ct][currency.id];\n        require(0 != index);\n\n        // Update proposal\n        proposals[index - 1].status = SettlementChallengeTypesLib.Status.Disqualified;\n        proposals[index - 1].expirationTime = block.timestamp.add(configuration.settlementChallengeTimeout());\n        proposals[index - 1].disqualification.challenger = challengerWallet;\n        proposals[index - 1].disqualification.nonce = candidateNonce;\n        proposals[index - 1].disqualification.blockNumber = blockNumber;\n        proposals[index - 1].disqualification.candidate.hash = candidateHash;\n        proposals[index - 1].disqualification.candidate.kind = candidateKind;\n\n        // Emit event\n        emit DisqualifyProposalEvent(\n            challengedWallet, proposals[index - 1].nonce, proposals[index - 1].amounts.stage,\n            proposals[index - 1].amounts.targetBalance, currency, proposals[index - 1].blockNumber,\n            proposals[index - 1].walletInitiated, challengerWallet, candidateNonce, candidateHash, candidateKind\n        );\n    }\n\n    /// @notice Gauge whether the proposal for the given wallet and currency has expired\n    /// @param wallet The address of the concerned wallet\n    /// @param currency The concerned currency\n    /// @return true if proposal has expired, else false\n    function hasProposalExpired(address wallet, MonetaryTypesLib.Currency currency)\n    public\n    view\n    returns (bool)\n    {\n        // 1-based index\n        uint256 index = proposalIndexByWalletCurrency[wallet][currency.ct][currency.id];\n        return (\n        0 == index ||\n        0 == proposals[index - 1].nonce ||\n        block.timestamp >= proposals[index - 1].expirationTime\n        );\n    }\n\n    /// @notice Get the settlement proposal challenge nonce of the given wallet and currency\n    /// @param wallet The address of the concerned wallet\n    /// @param currency The concerned currency\n    /// @return The settlement proposal nonce\n    function proposalNonce(address wallet, MonetaryTypesLib.Currency currency)\n    public\n    view\n    returns (uint256)\n    {\n        uint256 index = proposalIndexByWalletCurrency[wallet][currency.ct][currency.id];\n        require(0 != index);\n        return proposals[index - 1].nonce;\n    }\n\n    /// @notice Get the settlement proposal block number of the given wallet and currency\n    /// @param wallet The address of the concerned wallet\n    /// @param currency The concerned currency\n    /// @return The settlement proposal block number\n    function proposalBlockNumber(address wallet, MonetaryTypesLib.Currency currency)\n    public\n    view\n    returns (uint256)\n    {\n        uint256 index = proposalIndexByWalletCurrency[wallet][currency.ct][currency.id];\n        require(0 != index);\n        return proposals[index - 1].blockNumber;\n    }\n\n    /// @notice Get the settlement proposal expiration time of the given wallet and currency\n    /// @param wallet The address of the concerned wallet\n    /// @param currency The concerned currency\n    /// @return The settlement proposal expiration time\n    function proposalExpirationTime(address wallet, MonetaryTypesLib.Currency currency)\n    public\n    view\n    returns (uint256)\n    {\n        uint256 index = proposalIndexByWalletCurrency[wallet][currency.ct][currency.id];\n        require(0 != index);\n        return proposals[index - 1].expirationTime;\n    }\n\n    /// @notice Get the settlement proposal status of the given wallet and currency\n    /// @param wallet The address of the concerned wallet\n    /// @param currency The concerned currency\n    /// @return The settlement proposal status\n    function proposalStatus(address wallet, MonetaryTypesLib.Currency currency)\n    public\n    view\n    returns (SettlementChallengeTypesLib.Status)\n    {\n        uint256 index = proposalIndexByWalletCurrency[wallet][currency.ct][currency.id];\n        require(0 != index);\n        return proposals[index - 1].status;\n    }\n\n    /// @notice Get the settlement proposal stage amount of the given wallet and currency\n    /// @param wallet The address of the concerned wallet\n    /// @param currency The concerned currency\n    /// @return The settlement proposal stage amount\n    function proposalStageAmount(address wallet, MonetaryTypesLib.Currency currency)\n    public\n    view\n    returns (int256)\n    {\n        uint256 index = proposalIndexByWalletCurrency[wallet][currency.ct][currency.id];\n        require(0 != index);\n        return proposals[index - 1].amounts.stage;\n    }\n\n    /// @notice Get the settlement proposal target balance amount of the given wallet and currency\n    /// @param wallet The address of the concerned wallet\n    /// @param currency The concerned currency\n    /// @return The settlement proposal target balance amount\n    function proposalTargetBalanceAmount(address wallet, MonetaryTypesLib.Currency currency)\n    public\n    view\n    returns (int256)\n    {\n        uint256 index = proposalIndexByWalletCurrency[wallet][currency.ct][currency.id];\n        require(0 != index);\n        return proposals[index - 1].amounts.targetBalance;\n    }\n\n    /// @notice Get the settlement proposal balance reward of the given wallet and currency\n    /// @param wallet The address of the concerned wallet\n    /// @param currency The concerned currency\n    /// @return The settlement proposal balance reward\n    function proposalWalletInitiated(address wallet, MonetaryTypesLib.Currency currency)\n    public\n    view\n    returns (bool)\n    {\n        uint256 index = proposalIndexByWalletCurrency[wallet][currency.ct][currency.id];\n        require(0 != index);\n        return proposals[index - 1].walletInitiated;\n    }\n\n    /// @notice Get the settlement proposal disqualification challenger of the given wallet and currency\n    /// @param wallet The address of the concerned wallet\n    /// @param currency The concerned currency\n    /// @return The settlement proposal disqualification challenger\n    function proposalDisqualificationChallenger(address wallet, MonetaryTypesLib.Currency currency)\n    public\n    view\n    returns (address)\n    {\n        uint256 index = proposalIndexByWalletCurrency[wallet][currency.ct][currency.id];\n        require(0 != index);\n        return proposals[index - 1].disqualification.challenger;\n    }\n\n    /// @notice Get the settlement proposal disqualification block number of the given wallet and currency\n    /// @param wallet The address of the concerned wallet\n    /// @param currency The concerned currency\n    /// @return The settlement proposal disqualification block number\n    function proposalDisqualificationBlockNumber(address wallet, MonetaryTypesLib.Currency currency)\n    public\n    view\n    returns (uint256)\n    {\n        uint256 index = proposalIndexByWalletCurrency[wallet][currency.ct][currency.id];\n        require(0 != index);\n        return proposals[index - 1].disqualification.blockNumber;\n    }\n\n    /// @notice Get the settlement proposal disqualification nonce of the given wallet and currency\n    /// @param wallet The address of the concerned wallet\n    /// @param currency The concerned currency\n    /// @return The settlement proposal disqualification nonce\n    function proposalDisqualificationNonce(address wallet, MonetaryTypesLib.Currency currency)\n    public\n    view\n    returns (uint256)\n    {\n        uint256 index = proposalIndexByWalletCurrency[wallet][currency.ct][currency.id];\n        require(0 != index);\n        return proposals[index - 1].disqualification.nonce;\n    }\n\n    /// @notice Get the settlement proposal disqualification candidate hash of the given wallet and currency\n    /// @param wallet The address of the concerned wallet\n    /// @param currency The concerned currency\n    /// @return The settlement proposal disqualification candidate hash\n    function proposalDisqualificationCandidateHash(address wallet, MonetaryTypesLib.Currency currency)\n    public\n    view\n    returns (bytes32)\n    {\n        uint256 index = proposalIndexByWalletCurrency[wallet][currency.ct][currency.id];\n        require(0 != index);\n        return proposals[index - 1].disqualification.candidate.hash;\n    }\n\n    /// @notice Get the settlement proposal disqualification candidate kind of the given wallet and currency\n    /// @param wallet The address of the concerned wallet\n    /// @param currency The concerned currency\n    /// @return The settlement proposal disqualification candidate kind\n    function proposalDisqualificationCandidateKind(address wallet, MonetaryTypesLib.Currency currency)\n    public\n    view\n    returns (string)\n    {\n        uint256 index = proposalIndexByWalletCurrency[wallet][currency.ct][currency.id];\n        require(0 != index);\n        return proposals[index - 1].disqualification.candidate.kind;\n    }\n\n    //\n    // Private functions\n    // -----------------------------------------------------------------------------------------------------------------\n    function _addProposal(address wallet, uint256 nonce, int256 stageAmount, int256 targetBalanceAmount,\n        MonetaryTypesLib.Currency currency, uint256 blockNumber, bool walletInitiated)\n    private\n    {\n        // Require that stage and target balance amounts are positive\n        require(stageAmount.isPositiveInt256());\n        require(targetBalanceAmount.isPositiveInt256());\n\n        // Create proposal\n        proposals.length++;\n\n        // Populate proposal\n        proposals[proposals.length - 1].wallet = wallet;\n        proposals[proposals.length - 1].nonce = nonce;\n        proposals[proposals.length - 1].blockNumber = blockNumber;\n        proposals[proposals.length - 1].expirationTime = block.timestamp.add(configuration.settlementChallengeTimeout());\n        proposals[proposals.length - 1].status = SettlementChallengeTypesLib.Status.Qualified;\n        proposals[proposals.length - 1].currency = currency;\n        proposals[proposals.length - 1].amounts.stage = stageAmount;\n        proposals[proposals.length - 1].amounts.targetBalance = targetBalanceAmount;\n        proposals[proposals.length - 1].walletInitiated = walletInitiated;\n\n        // Store proposal index\n        proposalIndexByWalletCurrency[wallet][currency.ct][currency.id] = proposals.length;\n    }\n\n    function _removeProposal(uint256 index)\n    private\n    returns (bool)\n    {\n        // Remove the proposal and clear references to it\n        proposalIndexByWalletCurrency[proposals[index - 1].wallet][proposals[index - 1].currency.ct][proposals[index - 1].currency.id] = 0;\n        if (index < proposals.length) {\n            proposals[index - 1] = proposals[proposals.length - 1];\n            proposalIndexByWalletCurrency[proposals[index - 1].wallet][proposals[index - 1].currency.ct][proposals[index - 1].currency.id] = index;\n        }\n        proposals.length--;\n    }\n\n    function _activeBalanceLogEntry(address wallet, address currencyCt, uint256 currencyId)\n    private\n    view\n    returns (int256 amount, uint256 blockNumber)\n    {\n        // Get last log record of deposited and settled balances\n        (int256 depositedAmount, uint256 depositedBlockNumber) = balanceTracker.lastFungibleRecord(\n            wallet, balanceTracker.depositedBalanceType(), currencyCt, currencyId\n        );\n        (int256 settledAmount, uint256 settledBlockNumber) = balanceTracker.lastFungibleRecord(\n            wallet, balanceTracker.settledBalanceType(), currencyCt, currencyId\n        );\n\n        // Set amount as the sum of deposited and settled\n        amount = depositedAmount.add(settledAmount);\n\n        // Set block number as the latest of deposited and settled\n        blockNumber = depositedBlockNumber > settledBlockNumber ? depositedBlockNumber : settledBlockNumber;\n    }\n}\n",
  "sourcePath": "/opt/buildagent/work/855e104608380c36/contracts/NullSettlementChallengeState.sol",
  "compiler": {
    "name": "solc",
    "version": "0.4.25+commit.59dbf8f1.Emscripten.clang"
  },
  "schemaVersion": "2.0.2",
  "updatedAt": "2019-04-02T08:24:32.168Z"
}