{
  "contractName": "NullSettlementChallengeState",
  "abi": [
    {
      "inputs": [
        {
          "internalType": "address",
          "name": "deployer",
          "type": "address"
        }
      ],
      "payable": false,
      "stateMutability": "nonpayable",
      "type": "constructor"
    },
    {
      "anonymous": false,
      "inputs": [
        {
          "indexed": false,
          "internalType": "address",
          "name": "service",
          "type": "address"
        }
      ],
      "name": "DeregisterServiceEvent",
      "type": "event"
    },
    {
      "anonymous": false,
      "inputs": [
        {
          "indexed": false,
          "internalType": "address",
          "name": "service",
          "type": "address"
        },
        {
          "indexed": false,
          "internalType": "string",
          "name": "action",
          "type": "string"
        }
      ],
      "name": "DisableServiceActionEvent",
      "type": "event"
    },
    {
      "anonymous": false,
      "inputs": [
        {
          "indexed": false,
          "internalType": "address",
          "name": "challengedWallet",
          "type": "address"
        },
        {
          "indexed": false,
          "internalType": "uint256",
          "name": "challangedNonce",
          "type": "uint256"
        },
        {
          "indexed": false,
          "internalType": "int256",
          "name": "stageAmount",
          "type": "int256"
        },
        {
          "indexed": false,
          "internalType": "int256",
          "name": "targetBalanceAmount",
          "type": "int256"
        },
        {
          "components": [
            {
              "internalType": "address",
              "name": "ct",
              "type": "address"
            },
            {
              "internalType": "uint256",
              "name": "id",
              "type": "uint256"
            }
          ],
          "indexed": false,
          "internalType": "struct MonetaryTypesLib.Currency",
          "name": "currency",
          "type": "tuple"
        },
        {
          "indexed": false,
          "internalType": "uint256",
          "name": "blockNumber",
          "type": "uint256"
        },
        {
          "indexed": false,
          "internalType": "bool",
          "name": "walletInitiated",
          "type": "bool"
        },
        {
          "indexed": false,
          "internalType": "address",
          "name": "challengerWallet",
          "type": "address"
        },
        {
          "indexed": false,
          "internalType": "uint256",
          "name": "candidateNonce",
          "type": "uint256"
        },
        {
          "indexed": false,
          "internalType": "bytes32",
          "name": "candidateHash",
          "type": "bytes32"
        },
        {
          "indexed": false,
          "internalType": "string",
          "name": "candidateKind",
          "type": "string"
        }
      ],
      "name": "DisqualifyProposalEvent",
      "type": "event"
    },
    {
      "anonymous": false,
      "inputs": [
        {
          "indexed": false,
          "internalType": "address",
          "name": "service",
          "type": "address"
        },
        {
          "indexed": false,
          "internalType": "string",
          "name": "action",
          "type": "string"
        }
      ],
      "name": "EnableServiceActionEvent",
      "type": "event"
    },
    {
      "anonymous": false,
      "inputs": [],
      "name": "FreezeBalanceTrackerEvent",
      "type": "event"
    },
    {
      "anonymous": false,
      "inputs": [],
      "name": "FreezeUpgradesEvent",
      "type": "event"
    },
    {
      "anonymous": false,
      "inputs": [
        {
          "indexed": false,
          "internalType": "address",
          "name": "wallet",
          "type": "address"
        },
        {
          "indexed": false,
          "internalType": "uint256",
          "name": "nonce",
          "type": "uint256"
        },
        {
          "indexed": false,
          "internalType": "int256",
          "name": "stageAmount",
          "type": "int256"
        },
        {
          "indexed": false,
          "internalType": "int256",
          "name": "targetBalanceAmount",
          "type": "int256"
        },
        {
          "components": [
            {
              "internalType": "address",
              "name": "ct",
              "type": "address"
            },
            {
              "internalType": "uint256",
              "name": "id",
              "type": "uint256"
            }
          ],
          "indexed": false,
          "internalType": "struct MonetaryTypesLib.Currency",
          "name": "currency",
          "type": "tuple"
        },
        {
          "indexed": false,
          "internalType": "uint256",
          "name": "blockNumber",
          "type": "uint256"
        },
        {
          "indexed": false,
          "internalType": "bool",
          "name": "walletInitiated",
          "type": "bool"
        }
      ],
      "name": "InitiateProposalEvent",
      "type": "event"
    },
    {
      "anonymous": false,
      "inputs": [
        {
          "indexed": false,
          "internalType": "address",
          "name": "service",
          "type": "address"
        },
        {
          "indexed": false,
          "internalType": "uint256",
          "name": "timeout",
          "type": "uint256"
        }
      ],
      "name": "RegisterServiceDeferredEvent",
      "type": "event"
    },
    {
      "anonymous": false,
      "inputs": [
        {
          "indexed": false,
          "internalType": "address",
          "name": "service",
          "type": "address"
        }
      ],
      "name": "RegisterServiceEvent",
      "type": "event"
    },
    {
      "anonymous": false,
      "inputs": [
        {
          "indexed": false,
          "internalType": "address",
          "name": "wallet",
          "type": "address"
        },
        {
          "indexed": false,
          "internalType": "uint256",
          "name": "nonce",
          "type": "uint256"
        },
        {
          "indexed": false,
          "internalType": "int256",
          "name": "stageAmount",
          "type": "int256"
        },
        {
          "indexed": false,
          "internalType": "int256",
          "name": "targetBalanceAmount",
          "type": "int256"
        },
        {
          "components": [
            {
              "internalType": "address",
              "name": "ct",
              "type": "address"
            },
            {
              "internalType": "uint256",
              "name": "id",
              "type": "uint256"
            }
          ],
          "indexed": false,
          "internalType": "struct MonetaryTypesLib.Currency",
          "name": "currency",
          "type": "tuple"
        },
        {
          "indexed": false,
          "internalType": "uint256",
          "name": "blockNumber",
          "type": "uint256"
        },
        {
          "indexed": false,
          "internalType": "bool",
          "name": "walletInitiated",
          "type": "bool"
        }
      ],
      "name": "RemoveProposalEvent",
      "type": "event"
    },
    {
      "anonymous": false,
      "inputs": [
        {
          "indexed": false,
          "internalType": "address",
          "name": "wallet",
          "type": "address"
        }
      ],
      "name": "SelfDestructionDisabledEvent",
      "type": "event"
    },
    {
      "anonymous": false,
      "inputs": [
        {
          "indexed": false,
          "internalType": "uint256",
          "name": "timeoutInSeconds",
          "type": "uint256"
        }
      ],
      "name": "ServiceActivationTimeoutEvent",
      "type": "event"
    },
    {
      "anonymous": false,
      "inputs": [
        {
          "indexed": false,
          "internalType": "contract BalanceTracker",
          "name": "oldBalanceTracker",
          "type": "address"
        },
        {
          "indexed": false,
          "internalType": "contract BalanceTracker",
          "name": "newBalanceTracker",
          "type": "address"
        }
      ],
      "name": "SetBalanceTrackerEvent",
      "type": "event"
    },
    {
      "anonymous": false,
      "inputs": [
        {
          "indexed": false,
          "internalType": "contract Configuration",
          "name": "oldConfiguration",
          "type": "address"
        },
        {
          "indexed": false,
          "internalType": "contract Configuration",
          "name": "newConfiguration",
          "type": "address"
        }
      ],
      "name": "SetConfigurationEvent",
      "type": "event"
    },
    {
      "anonymous": false,
      "inputs": [
        {
          "indexed": false,
          "internalType": "address",
          "name": "oldDeployer",
          "type": "address"
        },
        {
          "indexed": false,
          "internalType": "address",
          "name": "newDeployer",
          "type": "address"
        }
      ],
      "name": "SetDeployerEvent",
      "type": "event"
    },
    {
      "anonymous": false,
      "inputs": [
        {
          "indexed": false,
          "internalType": "address",
          "name": "oldOperator",
          "type": "address"
        },
        {
          "indexed": false,
          "internalType": "address",
          "name": "newOperator",
          "type": "address"
        }
      ],
      "name": "SetOperatorEvent",
      "type": "event"
    },
    {
      "anonymous": false,
      "inputs": [
        {
          "indexed": false,
          "internalType": "address",
          "name": "upgradeAgent",
          "type": "address"
        }
      ],
      "name": "SetUpgradeAgentEvent",
      "type": "event"
    },
    {
      "anonymous": false,
      "inputs": [
        {
          "indexed": false,
          "internalType": "address",
          "name": "wallet",
          "type": "address"
        },
        {
          "indexed": false,
          "internalType": "uint256",
          "name": "nonce",
          "type": "uint256"
        },
        {
          "indexed": false,
          "internalType": "int256",
          "name": "stageAmount",
          "type": "int256"
        },
        {
          "indexed": false,
          "internalType": "int256",
          "name": "targetBalanceAmount",
          "type": "int256"
        },
        {
          "components": [
            {
              "internalType": "address",
              "name": "ct",
              "type": "address"
            },
            {
              "internalType": "uint256",
              "name": "id",
              "type": "uint256"
            }
          ],
          "indexed": false,
          "internalType": "struct MonetaryTypesLib.Currency",
          "name": "currency",
          "type": "tuple"
        },
        {
          "indexed": false,
          "internalType": "uint256",
          "name": "blockNumber",
          "type": "uint256"
        },
        {
          "indexed": false,
          "internalType": "bool",
          "name": "walletInitiated",
          "type": "bool"
        }
      ],
      "name": "TerminateProposalEvent",
      "type": "event"
    },
    {
      "anonymous": false,
      "inputs": [
        {
          "indexed": false,
          "internalType": "address",
          "name": "wallet",
          "type": "address"
        }
      ],
      "name": "TriggerSelfDestructionEvent",
      "type": "event"
    },
    {
      "anonymous": false,
      "inputs": [
        {
          "components": [
            {
              "internalType": "address",
              "name": "wallet",
              "type": "address"
            },
            {
              "internalType": "uint256",
              "name": "nonce",
              "type": "uint256"
            },
            {
              "internalType": "uint256",
              "name": "referenceBlockNumber",
              "type": "uint256"
            },
            {
              "internalType": "uint256",
              "name": "definitionBlockNumber",
              "type": "uint256"
            },
            {
              "internalType": "uint256",
              "name": "expirationTime",
              "type": "uint256"
            },
            {
              "internalType": "enum SettlementChallengeTypesLib.Status",
              "name": "status",
              "type": "uint8"
            },
            {
              "components": [
                {
                  "internalType": "int256",
                  "name": "cumulativeTransfer",
                  "type": "int256"
                },
                {
                  "internalType": "int256",
                  "name": "stage",
                  "type": "int256"
                },
                {
                  "internalType": "int256",
                  "name": "targetBalance",
                  "type": "int256"
                }
              ],
              "internalType": "struct SettlementChallengeTypesLib.Amounts",
              "name": "amounts",
              "type": "tuple"
            },
            {
              "components": [
                {
                  "internalType": "address",
                  "name": "ct",
                  "type": "address"
                },
                {
                  "internalType": "uint256",
                  "name": "id",
                  "type": "uint256"
                }
              ],
              "internalType": "struct MonetaryTypesLib.Currency",
              "name": "currency",
              "type": "tuple"
            },
            {
              "components": [
                {
                  "internalType": "string",
                  "name": "kind",
                  "type": "string"
                },
                {
                  "internalType": "bytes32",
                  "name": "hash",
                  "type": "bytes32"
                }
              ],
              "internalType": "struct SettlementChallengeTypesLib.Driip",
              "name": "challenged",
              "type": "tuple"
            },
            {
              "internalType": "bool",
              "name": "walletInitiated",
              "type": "bool"
            },
            {
              "internalType": "bool",
              "name": "terminated",
              "type": "bool"
            },
            {
              "components": [
                {
                  "internalType": "address",
                  "name": "challenger",
                  "type": "address"
                },
                {
                  "internalType": "uint256",
                  "name": "nonce",
                  "type": "uint256"
                },
                {
                  "internalType": "uint256",
                  "name": "blockNumber",
                  "type": "uint256"
                },
                {
                  "components": [
                    {
                      "internalType": "string",
                      "name": "kind",
                      "type": "string"
                    },
                    {
                      "internalType": "bytes32",
                      "name": "hash",
                      "type": "bytes32"
                    }
                  ],
                  "internalType": "struct SettlementChallengeTypesLib.Driip",
                  "name": "candidate",
                  "type": "tuple"
                }
              ],
              "internalType": "struct SettlementChallengeTypesLib.Disqualification",
              "name": "disqualification",
              "type": "tuple"
            }
          ],
          "indexed": false,
          "internalType": "struct SettlementChallengeTypesLib.Proposal",
          "name": "proposal",
          "type": "tuple"
        }
      ],
      "name": "UpgradeProposalEvent",
      "type": "event"
    },
    {
      "constant": true,
      "inputs": [],
      "name": "DISQUALIFY_PROPOSAL_ACTION",
      "outputs": [
        {
          "internalType": "string",
          "name": "",
          "type": "string"
        }
      ],
      "payable": false,
      "stateMutability": "view",
      "type": "function"
    },
    {
      "constant": true,
      "inputs": [],
      "name": "INITIATE_PROPOSAL_ACTION",
      "outputs": [
        {
          "internalType": "string",
          "name": "",
          "type": "string"
        }
      ],
      "payable": false,
      "stateMutability": "view",
      "type": "function"
    },
    {
      "constant": true,
      "inputs": [],
      "name": "REMOVE_PROPOSAL_ACTION",
      "outputs": [
        {
          "internalType": "string",
          "name": "",
          "type": "string"
        }
      ],
      "payable": false,
      "stateMutability": "view",
      "type": "function"
    },
    {
      "constant": true,
      "inputs": [],
      "name": "TERMINATE_PROPOSAL_ACTION",
      "outputs": [
        {
          "internalType": "string",
          "name": "",
          "type": "string"
        }
      ],
      "payable": false,
      "stateMutability": "view",
      "type": "function"
    },
    {
      "constant": true,
      "inputs": [],
      "name": "balanceTracker",
      "outputs": [
        {
          "internalType": "contract BalanceTracker",
          "name": "",
          "type": "address"
        }
      ],
      "payable": false,
      "stateMutability": "view",
      "type": "function"
    },
    {
      "constant": true,
      "inputs": [],
      "name": "balanceTrackerFrozen",
      "outputs": [
        {
          "internalType": "bool",
          "name": "",
          "type": "bool"
        }
      ],
      "payable": false,
      "stateMutability": "view",
      "type": "function"
    },
    {
      "constant": true,
      "inputs": [],
      "name": "configuration",
      "outputs": [
        {
          "internalType": "contract Configuration",
          "name": "",
          "type": "address"
        }
      ],
      "payable": false,
      "stateMutability": "view",
      "type": "function"
    },
    {
      "constant": true,
      "inputs": [],
      "name": "deployer",
      "outputs": [
        {
          "internalType": "address",
          "name": "",
          "type": "address"
        }
      ],
      "payable": false,
      "stateMutability": "view",
      "type": "function"
    },
    {
      "constant": false,
      "inputs": [
        {
          "internalType": "address",
          "name": "service",
          "type": "address"
        }
      ],
      "name": "deregisterService",
      "outputs": [],
      "payable": false,
      "stateMutability": "nonpayable",
      "type": "function"
    },
    {
      "constant": true,
      "inputs": [],
      "name": "destructor",
      "outputs": [
        {
          "internalType": "address",
          "name": "",
          "type": "address"
        }
      ],
      "payable": false,
      "stateMutability": "view",
      "type": "function"
    },
    {
      "constant": false,
      "inputs": [],
      "name": "disableSelfDestruction",
      "outputs": [],
      "payable": false,
      "stateMutability": "nonpayable",
      "type": "function"
    },
    {
      "constant": false,
      "inputs": [
        {
          "internalType": "address",
          "name": "service",
          "type": "address"
        },
        {
          "internalType": "string",
          "name": "action",
          "type": "string"
        }
      ],
      "name": "disableServiceAction",
      "outputs": [],
      "payable": false,
      "stateMutability": "nonpayable",
      "type": "function"
    },
    {
      "constant": false,
      "inputs": [
        {
          "internalType": "address",
          "name": "service",
          "type": "address"
        },
        {
          "internalType": "string",
          "name": "action",
          "type": "string"
        }
      ],
      "name": "enableServiceAction",
      "outputs": [],
      "payable": false,
      "stateMutability": "nonpayable",
      "type": "function"
    },
    {
      "constant": false,
      "inputs": [],
      "name": "freezeBalanceTracker",
      "outputs": [],
      "payable": false,
      "stateMutability": "nonpayable",
      "type": "function"
    },
    {
      "constant": false,
      "inputs": [],
      "name": "freezeUpgrades",
      "outputs": [],
      "payable": false,
      "stateMutability": "nonpayable",
      "type": "function"
    },
    {
      "constant": true,
      "inputs": [
        {
          "internalType": "address",
          "name": "service",
          "type": "address"
        },
        {
          "internalType": "string",
          "name": "action",
          "type": "string"
        }
      ],
      "name": "isEnabledServiceAction",
      "outputs": [
        {
          "internalType": "bool",
          "name": "",
          "type": "bool"
        }
      ],
      "payable": false,
      "stateMutability": "view",
      "type": "function"
    },
    {
      "constant": true,
      "inputs": [
        {
          "internalType": "address",
          "name": "service",
          "type": "address"
        }
      ],
      "name": "isRegisteredActiveService",
      "outputs": [
        {
          "internalType": "bool",
          "name": "",
          "type": "bool"
        }
      ],
      "payable": false,
      "stateMutability": "view",
      "type": "function"
    },
    {
      "constant": true,
      "inputs": [
        {
          "internalType": "address",
          "name": "service",
          "type": "address"
        }
      ],
      "name": "isRegisteredService",
      "outputs": [
        {
          "internalType": "bool",
          "name": "",
          "type": "bool"
        }
      ],
      "payable": false,
      "stateMutability": "view",
      "type": "function"
    },
    {
      "constant": true,
      "inputs": [],
      "name": "operator",
      "outputs": [
        {
          "internalType": "address",
          "name": "",
          "type": "address"
        }
      ],
      "payable": false,
      "stateMutability": "view",
      "type": "function"
    },
    {
      "constant": true,
      "inputs": [
        {
          "internalType": "address",
          "name": "",
          "type": "address"
        },
        {
          "internalType": "address",
          "name": "",
          "type": "address"
        },
        {
          "internalType": "uint256",
          "name": "",
          "type": "uint256"
        }
      ],
      "name": "proposalIndexByWalletCurrency",
      "outputs": [
        {
          "internalType": "uint256",
          "name": "",
          "type": "uint256"
        }
      ],
      "payable": false,
      "stateMutability": "view",
      "type": "function"
    },
    {
      "constant": true,
      "inputs": [
        {
          "internalType": "uint256",
          "name": "",
          "type": "uint256"
        }
      ],
      "name": "proposals",
      "outputs": [
        {
          "internalType": "address",
          "name": "wallet",
          "type": "address"
        },
        {
          "internalType": "uint256",
          "name": "nonce",
          "type": "uint256"
        },
        {
          "internalType": "uint256",
          "name": "referenceBlockNumber",
          "type": "uint256"
        },
        {
          "internalType": "uint256",
          "name": "definitionBlockNumber",
          "type": "uint256"
        },
        {
          "internalType": "uint256",
          "name": "expirationTime",
          "type": "uint256"
        },
        {
          "internalType": "enum SettlementChallengeTypesLib.Status",
          "name": "status",
          "type": "uint8"
        },
        {
          "components": [
            {
              "internalType": "int256",
              "name": "cumulativeTransfer",
              "type": "int256"
            },
            {
              "internalType": "int256",
              "name": "stage",
              "type": "int256"
            },
            {
              "internalType": "int256",
              "name": "targetBalance",
              "type": "int256"
            }
          ],
          "internalType": "struct SettlementChallengeTypesLib.Amounts",
          "name": "amounts",
          "type": "tuple"
        },
        {
          "components": [
            {
              "internalType": "address",
              "name": "ct",
              "type": "address"
            },
            {
              "internalType": "uint256",
              "name": "id",
              "type": "uint256"
            }
          ],
          "internalType": "struct MonetaryTypesLib.Currency",
          "name": "currency",
          "type": "tuple"
        },
        {
          "components": [
            {
              "internalType": "string",
              "name": "kind",
              "type": "string"
            },
            {
              "internalType": "bytes32",
              "name": "hash",
              "type": "bytes32"
            }
          ],
          "internalType": "struct SettlementChallengeTypesLib.Driip",
          "name": "challenged",
          "type": "tuple"
        },
        {
          "internalType": "bool",
          "name": "walletInitiated",
          "type": "bool"
        },
        {
          "internalType": "bool",
          "name": "terminated",
          "type": "bool"
        },
        {
          "components": [
            {
              "internalType": "address",
              "name": "challenger",
              "type": "address"
            },
            {
              "internalType": "uint256",
              "name": "nonce",
              "type": "uint256"
            },
            {
              "internalType": "uint256",
              "name": "blockNumber",
              "type": "uint256"
            },
            {
              "components": [
                {
                  "internalType": "string",
                  "name": "kind",
                  "type": "string"
                },
                {
                  "internalType": "bytes32",
                  "name": "hash",
                  "type": "bytes32"
                }
              ],
              "internalType": "struct SettlementChallengeTypesLib.Driip",
              "name": "candidate",
              "type": "tuple"
            }
          ],
          "internalType": "struct SettlementChallengeTypesLib.Disqualification",
          "name": "disqualification",
          "type": "tuple"
        }
      ],
      "payable": false,
      "stateMutability": "view",
      "type": "function"
    },
    {
      "constant": false,
      "inputs": [
        {
          "internalType": "address",
          "name": "service",
          "type": "address"
        }
      ],
      "name": "registerService",
      "outputs": [],
      "payable": false,
      "stateMutability": "nonpayable",
      "type": "function"
    },
    {
      "constant": false,
      "inputs": [
        {
          "internalType": "address",
          "name": "service",
          "type": "address"
        }
      ],
      "name": "registerServiceDeferred",
      "outputs": [],
      "payable": false,
      "stateMutability": "nonpayable",
      "type": "function"
    },
    {
      "constant": true,
      "inputs": [],
      "name": "selfDestructionDisabled",
      "outputs": [
        {
          "internalType": "bool",
          "name": "",
          "type": "bool"
        }
      ],
      "payable": false,
      "stateMutability": "view",
      "type": "function"
    },
    {
      "constant": true,
      "inputs": [],
      "name": "serviceActivationTimeout",
      "outputs": [
        {
          "internalType": "uint256",
          "name": "",
          "type": "uint256"
        }
      ],
      "payable": false,
      "stateMutability": "view",
      "type": "function"
    },
    {
      "constant": false,
      "inputs": [
        {
          "internalType": "contract BalanceTracker",
          "name": "newBalanceTracker",
          "type": "address"
        }
      ],
      "name": "setBalanceTracker",
      "outputs": [],
      "payable": false,
      "stateMutability": "nonpayable",
      "type": "function"
    },
    {
      "constant": false,
      "inputs": [
        {
          "internalType": "contract Configuration",
          "name": "newConfiguration",
          "type": "address"
        }
      ],
      "name": "setConfiguration",
      "outputs": [],
      "payable": false,
      "stateMutability": "nonpayable",
      "type": "function"
    },
    {
      "constant": false,
      "inputs": [
        {
          "internalType": "address",
          "name": "newDeployer",
          "type": "address"
        }
      ],
      "name": "setDeployer",
      "outputs": [],
      "payable": false,
      "stateMutability": "nonpayable",
      "type": "function"
    },
    {
      "constant": false,
      "inputs": [
        {
          "internalType": "address",
          "name": "newOperator",
          "type": "address"
        }
      ],
      "name": "setOperator",
      "outputs": [],
      "payable": false,
      "stateMutability": "nonpayable",
      "type": "function"
    },
    {
      "constant": false,
      "inputs": [
        {
          "internalType": "uint256",
          "name": "timeoutInSeconds",
          "type": "uint256"
        }
      ],
      "name": "setServiceActivationTimeout",
      "outputs": [],
      "payable": false,
      "stateMutability": "nonpayable",
      "type": "function"
    },
    {
      "constant": false,
      "inputs": [
        {
          "internalType": "address",
          "name": "_upgradeAgent",
          "type": "address"
        }
      ],
      "name": "setUpgradeAgent",
      "outputs": [],
      "payable": false,
      "stateMutability": "nonpayable",
      "type": "function"
    },
    {
      "constant": false,
      "inputs": [],
      "name": "triggerSelfDestruction",
      "outputs": [],
      "payable": false,
      "stateMutability": "nonpayable",
      "type": "function"
    },
    {
      "constant": true,
      "inputs": [],
      "name": "upgradeAgent",
      "outputs": [
        {
          "internalType": "address",
          "name": "",
          "type": "address"
        }
      ],
      "payable": false,
      "stateMutability": "view",
      "type": "function"
    },
    {
      "constant": true,
      "inputs": [],
      "name": "upgradesFrozen",
      "outputs": [
        {
          "internalType": "bool",
          "name": "",
          "type": "bool"
        }
      ],
      "payable": false,
      "stateMutability": "view",
      "type": "function"
    },
    {
      "constant": true,
      "inputs": [],
      "name": "proposalsCount",
      "outputs": [
        {
          "internalType": "uint256",
          "name": "",
          "type": "uint256"
        }
      ],
      "payable": false,
      "stateMutability": "view",
      "type": "function"
    },
    {
      "constant": false,
      "inputs": [
        {
          "internalType": "address",
          "name": "wallet",
          "type": "address"
        },
        {
          "internalType": "uint256",
          "name": "nonce",
          "type": "uint256"
        },
        {
          "internalType": "int256",
          "name": "stageAmount",
          "type": "int256"
        },
        {
          "internalType": "int256",
          "name": "targetBalanceAmount",
          "type": "int256"
        },
        {
          "components": [
            {
              "internalType": "address",
              "name": "ct",
              "type": "address"
            },
            {
              "internalType": "uint256",
              "name": "id",
              "type": "uint256"
            }
          ],
          "internalType": "struct MonetaryTypesLib.Currency",
          "name": "currency",
          "type": "tuple"
        },
        {
          "internalType": "uint256",
          "name": "blockNumber",
          "type": "uint256"
        },
        {
          "internalType": "bool",
          "name": "walletInitiated",
          "type": "bool"
        }
      ],
      "name": "initiateProposal",
      "outputs": [],
      "payable": false,
      "stateMutability": "nonpayable",
      "type": "function"
    },
    {
      "constant": false,
      "inputs": [
        {
          "internalType": "address",
          "name": "wallet",
          "type": "address"
        },
        {
          "components": [
            {
              "internalType": "address",
              "name": "ct",
              "type": "address"
            },
            {
              "internalType": "uint256",
              "name": "id",
              "type": "uint256"
            }
          ],
          "internalType": "struct MonetaryTypesLib.Currency",
          "name": "currency",
          "type": "tuple"
        }
      ],
      "name": "terminateProposal",
      "outputs": [],
      "payable": false,
      "stateMutability": "nonpayable",
      "type": "function"
    },
    {
      "constant": false,
      "inputs": [
        {
          "internalType": "address",
          "name": "wallet",
          "type": "address"
        },
        {
          "components": [
            {
              "internalType": "address",
              "name": "ct",
              "type": "address"
            },
            {
              "internalType": "uint256",
              "name": "id",
              "type": "uint256"
            }
          ],
          "internalType": "struct MonetaryTypesLib.Currency",
          "name": "currency",
          "type": "tuple"
        },
        {
          "internalType": "bool",
          "name": "walletTerminated",
          "type": "bool"
        }
      ],
      "name": "terminateProposal",
      "outputs": [],
      "payable": false,
      "stateMutability": "nonpayable",
      "type": "function"
    },
    {
      "constant": false,
      "inputs": [
        {
          "internalType": "address",
          "name": "wallet",
          "type": "address"
        },
        {
          "components": [
            {
              "internalType": "address",
              "name": "ct",
              "type": "address"
            },
            {
              "internalType": "uint256",
              "name": "id",
              "type": "uint256"
            }
          ],
          "internalType": "struct MonetaryTypesLib.Currency",
          "name": "currency",
          "type": "tuple"
        },
        {
          "internalType": "bool",
          "name": "walletTerminated",
          "type": "bool"
        }
      ],
      "name": "removeProposal",
      "outputs": [],
      "payable": false,
      "stateMutability": "nonpayable",
      "type": "function"
    },
    {
      "constant": false,
      "inputs": [
        {
          "internalType": "address",
          "name": "wallet",
          "type": "address"
        },
        {
          "components": [
            {
              "internalType": "address",
              "name": "ct",
              "type": "address"
            },
            {
              "internalType": "uint256",
              "name": "id",
              "type": "uint256"
            }
          ],
          "internalType": "struct MonetaryTypesLib.Currency",
          "name": "currency",
          "type": "tuple"
        }
      ],
      "name": "removeProposal",
      "outputs": [],
      "payable": false,
      "stateMutability": "nonpayable",
      "type": "function"
    },
    {
      "constant": false,
      "inputs": [
        {
          "internalType": "address",
          "name": "challengedWallet",
          "type": "address"
        },
        {
          "components": [
            {
              "internalType": "address",
              "name": "ct",
              "type": "address"
            },
            {
              "internalType": "uint256",
              "name": "id",
              "type": "uint256"
            }
          ],
          "internalType": "struct MonetaryTypesLib.Currency",
          "name": "currency",
          "type": "tuple"
        },
        {
          "internalType": "address",
          "name": "challengerWallet",
          "type": "address"
        },
        {
          "internalType": "uint256",
          "name": "blockNumber",
          "type": "uint256"
        },
        {
          "internalType": "uint256",
          "name": "candidateNonce",
          "type": "uint256"
        },
        {
          "internalType": "bytes32",
          "name": "candidateHash",
          "type": "bytes32"
        },
        {
          "internalType": "string",
          "name": "candidateKind",
          "type": "string"
        }
      ],
      "name": "disqualifyProposal",
      "outputs": [],
      "payable": false,
      "stateMutability": "nonpayable",
      "type": "function"
    },
    {
      "constant": true,
      "inputs": [
        {
          "internalType": "address",
          "name": "wallet",
          "type": "address"
        },
        {
          "components": [
            {
              "internalType": "address",
              "name": "ct",
              "type": "address"
            },
            {
              "internalType": "uint256",
              "name": "id",
              "type": "uint256"
            }
          ],
          "internalType": "struct MonetaryTypesLib.Currency",
          "name": "currency",
          "type": "tuple"
        }
      ],
      "name": "hasProposal",
      "outputs": [
        {
          "internalType": "bool",
          "name": "",
          "type": "bool"
        }
      ],
      "payable": false,
      "stateMutability": "view",
      "type": "function"
    },
    {
      "constant": true,
      "inputs": [
        {
          "internalType": "address",
          "name": "wallet",
          "type": "address"
        },
        {
          "components": [
            {
              "internalType": "address",
              "name": "ct",
              "type": "address"
            },
            {
              "internalType": "uint256",
              "name": "id",
              "type": "uint256"
            }
          ],
          "internalType": "struct MonetaryTypesLib.Currency",
          "name": "currency",
          "type": "tuple"
        }
      ],
      "name": "hasProposalTerminated",
      "outputs": [
        {
          "internalType": "bool",
          "name": "",
          "type": "bool"
        }
      ],
      "payable": false,
      "stateMutability": "view",
      "type": "function"
    },
    {
      "constant": true,
      "inputs": [
        {
          "internalType": "address",
          "name": "wallet",
          "type": "address"
        },
        {
          "components": [
            {
              "internalType": "address",
              "name": "ct",
              "type": "address"
            },
            {
              "internalType": "uint256",
              "name": "id",
              "type": "uint256"
            }
          ],
          "internalType": "struct MonetaryTypesLib.Currency",
          "name": "currency",
          "type": "tuple"
        }
      ],
      "name": "hasProposalExpired",
      "outputs": [
        {
          "internalType": "bool",
          "name": "",
          "type": "bool"
        }
      ],
      "payable": false,
      "stateMutability": "view",
      "type": "function"
    },
    {
      "constant": true,
      "inputs": [
        {
          "internalType": "address",
          "name": "wallet",
          "type": "address"
        },
        {
          "components": [
            {
              "internalType": "address",
              "name": "ct",
              "type": "address"
            },
            {
              "internalType": "uint256",
              "name": "id",
              "type": "uint256"
            }
          ],
          "internalType": "struct MonetaryTypesLib.Currency",
          "name": "currency",
          "type": "tuple"
        }
      ],
      "name": "proposalNonce",
      "outputs": [
        {
          "internalType": "uint256",
          "name": "",
          "type": "uint256"
        }
      ],
      "payable": false,
      "stateMutability": "view",
      "type": "function"
    },
    {
      "constant": true,
      "inputs": [
        {
          "internalType": "address",
          "name": "wallet",
          "type": "address"
        },
        {
          "components": [
            {
              "internalType": "address",
              "name": "ct",
              "type": "address"
            },
            {
              "internalType": "uint256",
              "name": "id",
              "type": "uint256"
            }
          ],
          "internalType": "struct MonetaryTypesLib.Currency",
          "name": "currency",
          "type": "tuple"
        }
      ],
      "name": "proposalReferenceBlockNumber",
      "outputs": [
        {
          "internalType": "uint256",
          "name": "",
          "type": "uint256"
        }
      ],
      "payable": false,
      "stateMutability": "view",
      "type": "function"
    },
    {
      "constant": true,
      "inputs": [
        {
          "internalType": "address",
          "name": "wallet",
          "type": "address"
        },
        {
          "components": [
            {
              "internalType": "address",
              "name": "ct",
              "type": "address"
            },
            {
              "internalType": "uint256",
              "name": "id",
              "type": "uint256"
            }
          ],
          "internalType": "struct MonetaryTypesLib.Currency",
          "name": "currency",
          "type": "tuple"
        }
      ],
      "name": "proposalDefinitionBlockNumber",
      "outputs": [
        {
          "internalType": "uint256",
          "name": "",
          "type": "uint256"
        }
      ],
      "payable": false,
      "stateMutability": "view",
      "type": "function"
    },
    {
      "constant": true,
      "inputs": [
        {
          "internalType": "address",
          "name": "wallet",
          "type": "address"
        },
        {
          "components": [
            {
              "internalType": "address",
              "name": "ct",
              "type": "address"
            },
            {
              "internalType": "uint256",
              "name": "id",
              "type": "uint256"
            }
          ],
          "internalType": "struct MonetaryTypesLib.Currency",
          "name": "currency",
          "type": "tuple"
        }
      ],
      "name": "proposalExpirationTime",
      "outputs": [
        {
          "internalType": "uint256",
          "name": "",
          "type": "uint256"
        }
      ],
      "payable": false,
      "stateMutability": "view",
      "type": "function"
    },
    {
      "constant": true,
      "inputs": [
        {
          "internalType": "address",
          "name": "wallet",
          "type": "address"
        },
        {
          "components": [
            {
              "internalType": "address",
              "name": "ct",
              "type": "address"
            },
            {
              "internalType": "uint256",
              "name": "id",
              "type": "uint256"
            }
          ],
          "internalType": "struct MonetaryTypesLib.Currency",
          "name": "currency",
          "type": "tuple"
        }
      ],
      "name": "proposalStatus",
      "outputs": [
        {
          "internalType": "enum SettlementChallengeTypesLib.Status",
          "name": "",
          "type": "uint8"
        }
      ],
      "payable": false,
      "stateMutability": "view",
      "type": "function"
    },
    {
      "constant": true,
      "inputs": [
        {
          "internalType": "address",
          "name": "wallet",
          "type": "address"
        },
        {
          "components": [
            {
              "internalType": "address",
              "name": "ct",
              "type": "address"
            },
            {
              "internalType": "uint256",
              "name": "id",
              "type": "uint256"
            }
          ],
          "internalType": "struct MonetaryTypesLib.Currency",
          "name": "currency",
          "type": "tuple"
        }
      ],
      "name": "proposalStageAmount",
      "outputs": [
        {
          "internalType": "int256",
          "name": "",
          "type": "int256"
        }
      ],
      "payable": false,
      "stateMutability": "view",
      "type": "function"
    },
    {
      "constant": true,
      "inputs": [
        {
          "internalType": "address",
          "name": "wallet",
          "type": "address"
        },
        {
          "components": [
            {
              "internalType": "address",
              "name": "ct",
              "type": "address"
            },
            {
              "internalType": "uint256",
              "name": "id",
              "type": "uint256"
            }
          ],
          "internalType": "struct MonetaryTypesLib.Currency",
          "name": "currency",
          "type": "tuple"
        }
      ],
      "name": "proposalTargetBalanceAmount",
      "outputs": [
        {
          "internalType": "int256",
          "name": "",
          "type": "int256"
        }
      ],
      "payable": false,
      "stateMutability": "view",
      "type": "function"
    },
    {
      "constant": true,
      "inputs": [
        {
          "internalType": "address",
          "name": "wallet",
          "type": "address"
        },
        {
          "components": [
            {
              "internalType": "address",
              "name": "ct",
              "type": "address"
            },
            {
              "internalType": "uint256",
              "name": "id",
              "type": "uint256"
            }
          ],
          "internalType": "struct MonetaryTypesLib.Currency",
          "name": "currency",
          "type": "tuple"
        }
      ],
      "name": "proposalWalletInitiated",
      "outputs": [
        {
          "internalType": "bool",
          "name": "",
          "type": "bool"
        }
      ],
      "payable": false,
      "stateMutability": "view",
      "type": "function"
    },
    {
      "constant": true,
      "inputs": [
        {
          "internalType": "address",
          "name": "wallet",
          "type": "address"
        },
        {
          "components": [
            {
              "internalType": "address",
              "name": "ct",
              "type": "address"
            },
            {
              "internalType": "uint256",
              "name": "id",
              "type": "uint256"
            }
          ],
          "internalType": "struct MonetaryTypesLib.Currency",
          "name": "currency",
          "type": "tuple"
        }
      ],
      "name": "proposalDisqualificationChallenger",
      "outputs": [
        {
          "internalType": "address",
          "name": "",
          "type": "address"
        }
      ],
      "payable": false,
      "stateMutability": "view",
      "type": "function"
    },
    {
      "constant": true,
      "inputs": [
        {
          "internalType": "address",
          "name": "wallet",
          "type": "address"
        },
        {
          "components": [
            {
              "internalType": "address",
              "name": "ct",
              "type": "address"
            },
            {
              "internalType": "uint256",
              "name": "id",
              "type": "uint256"
            }
          ],
          "internalType": "struct MonetaryTypesLib.Currency",
          "name": "currency",
          "type": "tuple"
        }
      ],
      "name": "proposalDisqualificationBlockNumber",
      "outputs": [
        {
          "internalType": "uint256",
          "name": "",
          "type": "uint256"
        }
      ],
      "payable": false,
      "stateMutability": "view",
      "type": "function"
    },
    {
      "constant": true,
      "inputs": [
        {
          "internalType": "address",
          "name": "wallet",
          "type": "address"
        },
        {
          "components": [
            {
              "internalType": "address",
              "name": "ct",
              "type": "address"
            },
            {
              "internalType": "uint256",
              "name": "id",
              "type": "uint256"
            }
          ],
          "internalType": "struct MonetaryTypesLib.Currency",
          "name": "currency",
          "type": "tuple"
        }
      ],
      "name": "proposalDisqualificationNonce",
      "outputs": [
        {
          "internalType": "uint256",
          "name": "",
          "type": "uint256"
        }
      ],
      "payable": false,
      "stateMutability": "view",
      "type": "function"
    },
    {
      "constant": true,
      "inputs": [
        {
          "internalType": "address",
          "name": "wallet",
          "type": "address"
        },
        {
          "components": [
            {
              "internalType": "address",
              "name": "ct",
              "type": "address"
            },
            {
              "internalType": "uint256",
              "name": "id",
              "type": "uint256"
            }
          ],
          "internalType": "struct MonetaryTypesLib.Currency",
          "name": "currency",
          "type": "tuple"
        }
      ],
      "name": "proposalDisqualificationCandidateHash",
      "outputs": [
        {
          "internalType": "bytes32",
          "name": "",
          "type": "bytes32"
        }
      ],
      "payable": false,
      "stateMutability": "view",
      "type": "function"
    },
    {
      "constant": true,
      "inputs": [
        {
          "internalType": "address",
          "name": "wallet",
          "type": "address"
        },
        {
          "components": [
            {
              "internalType": "address",
              "name": "ct",
              "type": "address"
            },
            {
              "internalType": "uint256",
              "name": "id",
              "type": "uint256"
            }
          ],
          "internalType": "struct MonetaryTypesLib.Currency",
          "name": "currency",
          "type": "tuple"
        }
      ],
      "name": "proposalDisqualificationCandidateKind",
      "outputs": [
        {
          "internalType": "string",
          "name": "",
          "type": "string"
        }
      ],
      "payable": false,
      "stateMutability": "view",
      "type": "function"
    },
    {
      "constant": false,
      "inputs": [
        {
          "components": [
            {
              "internalType": "address",
              "name": "wallet",
              "type": "address"
            },
            {
              "internalType": "uint256",
              "name": "nonce",
              "type": "uint256"
            },
            {
              "internalType": "uint256",
              "name": "referenceBlockNumber",
              "type": "uint256"
            },
            {
              "internalType": "uint256",
              "name": "definitionBlockNumber",
              "type": "uint256"
            },
            {
              "internalType": "uint256",
              "name": "expirationTime",
              "type": "uint256"
            },
            {
              "internalType": "enum SettlementChallengeTypesLib.Status",
              "name": "status",
              "type": "uint8"
            },
            {
              "components": [
                {
                  "internalType": "int256",
                  "name": "cumulativeTransfer",
                  "type": "int256"
                },
                {
                  "internalType": "int256",
                  "name": "stage",
                  "type": "int256"
                },
                {
                  "internalType": "int256",
                  "name": "targetBalance",
                  "type": "int256"
                }
              ],
              "internalType": "struct SettlementChallengeTypesLib.Amounts",
              "name": "amounts",
              "type": "tuple"
            },
            {
              "components": [
                {
                  "internalType": "address",
                  "name": "ct",
                  "type": "address"
                },
                {
                  "internalType": "uint256",
                  "name": "id",
                  "type": "uint256"
                }
              ],
              "internalType": "struct MonetaryTypesLib.Currency",
              "name": "currency",
              "type": "tuple"
            },
            {
              "components": [
                {
                  "internalType": "string",
                  "name": "kind",
                  "type": "string"
                },
                {
                  "internalType": "bytes32",
                  "name": "hash",
                  "type": "bytes32"
                }
              ],
              "internalType": "struct SettlementChallengeTypesLib.Driip",
              "name": "challenged",
              "type": "tuple"
            },
            {
              "internalType": "bool",
              "name": "walletInitiated",
              "type": "bool"
            },
            {
              "internalType": "bool",
              "name": "terminated",
              "type": "bool"
            },
            {
              "components": [
                {
                  "internalType": "address",
                  "name": "challenger",
                  "type": "address"
                },
                {
                  "internalType": "uint256",
                  "name": "nonce",
                  "type": "uint256"
                },
                {
                  "internalType": "uint256",
                  "name": "blockNumber",
                  "type": "uint256"
                },
                {
                  "components": [
                    {
                      "internalType": "string",
                      "name": "kind",
                      "type": "string"
                    },
                    {
                      "internalType": "bytes32",
                      "name": "hash",
                      "type": "bytes32"
                    }
                  ],
                  "internalType": "struct SettlementChallengeTypesLib.Driip",
                  "name": "candidate",
                  "type": "tuple"
                }
              ],
              "internalType": "struct SettlementChallengeTypesLib.Disqualification",
              "name": "disqualification",
              "type": "tuple"
            }
          ],
          "internalType": "struct SettlementChallengeTypesLib.Proposal",
          "name": "proposal",
          "type": "tuple"
        }
      ],
      "name": "upgradeProposal",
      "outputs": [],
      "payable": false,
      "stateMutability": "nonpayable",
      "type": "function"
    }
  ],
  "bytecode": "0x60806040523480156200001157600080fd5b5060405162004f5038038062004f508339810160408190526200003491620000b3565b80806001600160a01b0381166200004a57600080fd5b6001600160a01b0381163014156200006157600080fd5b5060008054610100600160a81b0319166101006001600160a01b0393909316928302179055600180546001600160a01b03191690911790555062000108565b8051620000ad81620000ee565b92915050565b600060208284031215620000c657600080fd5b6000620000d48484620000a0565b949350505050565b60006001600160a01b038216620000ad565b620000f981620000dc565b81146200010557600080fd5b50565b614e3880620001186000396000f3fe608060405234801561001057600080fd5b506004361061029e5760003560e01c8063013cf08b146102a35780630a9f46ad146102d7578063152d0731146102ec57806317ba3f90146102f657806319139092146103165780631b90e3c11461032b57806326885b541461033e5780632738a112146103515780632b5672e3146103595780632b91e0a91461036c5780632c1da19a1461037f5780632ee2ed251461039f5780632f013a00146103b25780633b238528146103ba5780633b58c501146103cd5780633b7bea6c146103e05780633e59b706146103e85780634476d23b146103f057806350b08c021461040557806352a0dd10146104185780635385f37b1461042b5780635482c7351461043e578063553d90e914610451578063565872291461046457806356ec907514610477578063570ca7351461048a578063598b75ad146104925780635de4ccb0146104a55780635df1b0a3146104ad578063600e461e146104c0578063627f09c3146104d3578063667666c8146104e657806366a6f36d146104f95780636c70bee91461050c5780636d439372146105145780636e90a5961461051c57806370327ea11461052f5780637e15dd5c146105375780637ff81c371461054a57806388845c951461055d5780638b4ed4c2146105655780638e8cef121461057857806390cfe9991461058b57806396214735146105935780639d25487e146105a6578063a495a306146105ae578063b3938a6c146105c1578063b3ab15fb146105d4578063b52d470a146105e7578063b6e2fc33146105ef578063ba5152881461060f578063c46fcd7514610622578063cf293aac14610635578063d5f3948814610648578063d7e7088a14610650578063e58be02014610663578063f99b128b1461066b578063fdd9ec7d1461067e575b600080fd5b6102b66102b1366004613bf4565b610691565b6040516102ce9c9b9a99989796959493929190614916565b60405180910390f35b6102df610922565b6040516102ce91906149e5565b6102f4610929565b005b610309610304366004613913565b6109c4565b6040516102ce91906149d7565b61031e6109fe565b6040516102ce91906149f3565b6102df6103393660046139cf565b610a0d565b6102f461034c3660046139cf565b610a8d565b6102f4610bf8565b6102f461036736600461397e565b610c5e565b61030961037a366004613913565b610d86565b61039261038d3660046139cf565b610da4565b6040516102ce9190614a2a565b6102df6103ad3660046139cf565b610eab565b610309610f28565b6103096103c83660046139cf565b610f31565b6102f46103db36600461397e565b610f6b565b6102df611045565b61030961104b565b6103f861105b565b6040516102ce9190614790565b6102f4610413366004613913565b61106f565b6102f4610426366004613ab3565b61112b565b6102df6104393660046139cf565b6112e0565b61030961044c3660046139cf565b61135d565b6102df61045f3660046139cf565b6113dd565b6103f86104723660046139cf565b61145d565b6102df6104853660046139cf565b6114e4565b6103f8611561565b6102f46104a0366004613ba2565b611570565b6103f861163a565b6103096104bb36600461397e565b611649565b6102df6104ce3660046139cf565b611699565b6102f46104e1366004613ba2565b611719565b6102f46104f43660046139ff565b6117aa565b6102df610507366004613931565b611b3f565b61031e611b62565b610309611b71565b6102df61052a3660046139cf565b611b81565b6102f4611bfe565b6102f4610545366004613bf4565b611c61565b6103096105583660046139cf565b611cb2565b610392611d38565b6102df6105733660046139cf565b611d66565b6102f4610586366004613913565b611de6565b610392611e60565b6102f46105a1366004613913565b611e8b565b610392611f4b565b6102f46105bc366004613ab3565b611f78565b6102f46105cf3660046139cf565b612150565b6102f46105e2366004613913565b6122df565b6102f4612382565b6106026105fd3660046139cf565b6123d1565b6040516102ce9190614a1c565b6102f461061d366004613af6565b612452565b6102df6106303660046139cf565b6124eb565b6103096106433660046139cf565b61256b565b6103f86125ec565b6102f461065e366004613913565b612600565b6103926126a4565b6102f4610679366004613bc0565b6126d3565b6102f461068c366004613913565b612a57565b6007818154811061069e57fe5b90600052602060002090601302016000915090508060000160009054906101000a90046001600160a01b0316908060010154908060020154908060030154908060040154908060050160009054906101000a900460ff169080600601604051806060016040529081600082015481526020016001820154815260200160028201548152505090806009016040518060400160405290816000820160009054906101000a90046001600160a01b03166001600160a01b03166001600160a01b031681526020016001820154815250509080600b01604051806040016040529081600082018054600181600116156101000203166002900480601f0160208091040260200160405190810160405280929190818152602001828054600181600116156101000203166002900480156108155780601f106107ea57610100808354040283529160200191610815565b820191906000526020600020905b8154815290600101906020018083116107f857829003601f168201915b5050509183525050600191820154602091820152600d84015460408051608081018252600e870180546001600160a01b03168252600f880154828601526010880154828401528251601189018054606060026101009a8316158b026000190190921691909104601f8101899004909802830181018652948201878152989960ff8088169a999097049096169795969395929480870194929391928492918491908401828280156109065780601f106108db57610100808354040283529160200191610906565b820191906000526020600020905b8154815290600101906020018083116108e957829003601f168201915b505050505081526020016001820154815250508152505090508c565b6007545b90565b6006546001600160a01b0316331461095c5760405162461bcd60e51b815260040161095390614b7b565b60405180910390fd5b600654600160a01b900460ff16156109865760405162461bcd60e51b815260040161095390614aab565b6006805460ff60a01b1916600160a01b1790556040517f256d81afb4cac3b3b3d32a91f6efd3463a78d7a9453a93cb0132f36a23972d4290600090a1565b60006109cf82610d86565b80156109f657506001600160a01b0382166000908152600260205260409020600101544210155b90505b919050565b6005546001600160a01b031681565b6001600160a01b0380831660009081526008602090815260408083208551909416835292815282822084820151835290529081205480610a5f5760405162461bcd60e51b815260040161095390614bbb565b60076001820381548110610a6f57fe5b60009182526020909120601260139092020101549150505b92915050565b6040518060400160405280600f81526020016e1c995b5bdd9957dc1c9bdc1bdcd85b608a1b815250610abf3382611649565b610ac857600080fd5b6001600160a01b038084166000908152600860209081526040808320865190941683529281528282208582015183529052205480610b065750610bf3565b600080516020614db68339815191528460076001840381548110610b2657fe5b90600052602060002090601302016001015460076001850381548110610b4857fe5b90600052602060002090601302016006016001015460076001860381548110610b6d57fe5b9060005260206000209060130201600601600201548760076001880381548110610b9357fe5b90600052602060002090601302016002015460076001890381548110610bb557fe5b60009182526020909120600d6013909202010154604051610bdf9796959493929160ff1690614802565b60405180910390a1610bf081612acc565b50505b505050565b33610c0161105b565b6001600160a01b031614610c1457600080fd5b60005460ff1615610c2457600080fd5b7f787a5d936e74f4b564b9153575886059829c78cd9927b1be5e0d976b317ef73633604051610c53919061479e565b60405180910390a133ff5b610c66612e50565b610c6f57600080fd5b816001600160a01b038116610c8357600080fd5b6001600160a01b038116301415610c9957600080fd5b6001600160a01b03831660009081526002602052604090205460ff16610cbe57600080fd5b6000610cc983612e66565b6001600160a01b0385166000908152600260208181526040808420858552909201905290205490915060ff1615610cff57600080fd5b6001600160a01b03841660009081526002602081815260408084208585528084018352818520805460ff19166001908117909155938352600301805493840181558452922001829055517fec1b982d69bfc1a6fd8becf191d9a633486c822d3bdedd52303ca81fa635750190610d7890869086906147c7565b60405180910390a150505050565b6001600160a01b031660009081526002602052604090205460ff1690565b6001600160a01b038083166000908152600860209081526040808320855190941683529281528282208482015183529052205460609080610df75760405162461bcd60e51b815260040161095390614a8b565b60076001820381548110610e0757fe5b6000918252602091829020601160139092020101805460408051601f6002600019610100600187161502019094169390930492830185900485028101850190915281815292830182828015610e9d5780601f10610e7257610100808354040283529160200191610e9d565b820191906000526020600020905b815481529060010190602001808311610e8057829003601f168201915b505050505091505092915050565b6001600160a01b0380831660009081526008602090815260408083208551909416835292815282822084820151835290529081205480610efd5760405162461bcd60e51b815260040161095390614b1b565b60076001820381548110610f0d57fe5b90600052602060002090601302016001015491505092915050565b60005460ff1681565b6001600160a01b03918216600090815260086020908152604080832084519095168352938152838220928101518252919091522054151590565b610f73612e50565b610f7c57600080fd5b816001600160a01b038116610f9057600080fd5b6001600160a01b038116301415610fa657600080fd5b6000610fb183612e66565b6001600160a01b0385166000908152600260208181526040808420858552909201905290205490915060ff16610fe657600080fd5b6001600160a01b0384166000908152600260208181526040808420858552909201905290819020805460ff19169055517f92f4af6130f47c92f3899e06611c8c6ef191fb81207ad2675d134af619d2fe7d90610d7890869086906147c7565b60035481565b600554600160a01b900460ff1681565b60005461010090046001600160a01b031690565b611077612e50565b61108057600080fd5b806001600160a01b03811661109457600080fd5b6001600160a01b0381163014156110aa57600080fd5b6001600160a01b03821660009081526002602052604090205460ff166110cf57600080fd5b6001600160a01b03821660009081526002602052604090819020805460ff19169055517f777645c5437dfbf962f57a281ead25f3d513f2f8e938685bbfc1738e81c9880e9061111f908490614790565b60405180910390a15050565b6040518060400160405280600f81526020016e1c995b5bdd9957dc1c9bdc1bdcd85b608a1b81525061115d3382611649565b61116657600080fd5b6001600160a01b0380851660009081526008602090815260408083208751909416835292815282822086820151835290522054806111a457506112da565b600760018203815481106111b457fe5b60009182526020909120601390910201600d015460ff161515831515146111ed5760405162461bcd60e51b815260040161095390614a7b565b600080516020614db6833981519152856007600184038154811061120d57fe5b9060005260206000209060130201600101546007600185038154811061122f57fe5b9060005260206000209060130201600601600101546007600186038154811061125457fe5b906000526020600020906013020160060160020154886007600188038154811061127a57fe5b9060005260206000209060130201600201546007600189038154811061129c57fe5b60009182526020909120600d60139092020101546040516112c69796959493929160ff1690614802565b60405180910390a16112d781612acc565b50505b50505050565b6001600160a01b03808316600090815260086020908152604080832085519094168352928152828220848201518352905290812054806113325760405162461bcd60e51b815260040161095390614aeb565b6007600182038154811061134257fe5b90600052602060002090601302016003015491505092915050565b6001600160a01b03808316600090815260086020908152604080832085519094168352928152828220848201518352905290812054806113af5760405162461bcd60e51b815260040161095390614bab565b600760018203815481106113bf57fe5b90600052602060002090601302016004015442101591505092915050565b6001600160a01b038083166000908152600860209081526040808320855190941683529281528282208482015183529052908120548061142f5760405162461bcd60e51b815260040161095390614a6b565b6007600182038154811061143f57fe5b9060005260206000209060130201600e016001015491505092915050565b6001600160a01b03808316600090815260086020908152604080832085519094168352928152828220848201518352905290812054806114af5760405162461bcd60e51b815260040161095390614b3b565b600760018203815481106114bf57fe5b60009182526020909120601390910201600e01546001600160a01b0316949350505050565b6001600160a01b03808316600090815260086020908152604080832085519094168352928152828220848201518352905290812054806115365760405162461bcd60e51b815260040161095390614b4b565b6007600182038154811061154657fe5b90600052602060002090601302016004015491505092915050565b6001546001600160a01b031681565b611578612e50565b61158157600080fd5b806001600160a01b03811661159557600080fd5b60055482906001600160a01b0390811690821681146112da57600554600160a01b900460ff16156115d85760405162461bcd60e51b815260040161095390614a4b565b600580546001600160a01b038681166001600160a01b03198316179092556040519116907fb2a91d3a71b0c5bc7c083153b3474378e489506ba98bd4ddb1b9056fdc594bb59061162b9083908890614a01565b60405180910390a15050505050565b6006546001600160a01b031681565b60008061165583612e66565b9050611660846109c4565b801561169157506001600160a01b0384166000908152600260208181526040808420858552909201905290205460ff165b949350505050565b6001600160a01b03808316600090815260086020908152604080832085519094168352928152828220848201518352905290812054806116eb5760405162461bcd60e51b815260040161095390614a3b565b600760018203815481106116fb57fe5b90600052602060002090601302016006016001015491505092915050565b611721612e50565b61172a57600080fd5b806001600160a01b03811661173e57600080fd5b60045482906001600160a01b0390811690821681146112da57600480546001600160a01b038681166001600160a01b03198316179092556040519116907f634f61bf00e14adedce330c80c2823e16e184f189ebe853e1ddecc4a268477ff9061162b9083908890614a01565b60405180604001604052806013815260200172191a5cdc5d585b1a599e57dc1c9bdc1bdcd85b606a1b8152506117e03382611649565b6117e957600080fd5b6001600160a01b0380891660009081526008602090815260408083208b5190941683529281528282208a820151835290522054806118395760405162461bcd60e51b815260040161095390614a9b565b60016007600183038154811061184b57fe5b60009182526020909120600560139092020101805460ff19166001838181111561187157fe5b021790555061190c600460009054906101000a90046001600160a01b03166001600160a01b031663fbdfd8e76040518163ffffffff1660e01b815260040160206040518083038186803b1580156118c757600080fd5b505afa1580156118db573d6000803e3d6000fd5b505050506040513d601f19601f820116820180604052506118ff9190810190613c12565b429063ffffffff612e9616565b6007600183038154811061191c57fe5b906000526020600020906013020160040181905550866007600183038154811061194257fe5b9060005260206000209060130201600e0160000160006101000a8154816001600160a01b0302191690836001600160a01b03160217905550846007600183038154811061198b57fe5b9060005260206000209060130201600e016001018190555085600760018303815481106119b457fe5b9060005260206000209060130201600e016002018190555083600760018303815481106119dd57fe5b6000918252602090912060126013909202010155600780548491906000198401908110611a0657fe5b9060005260206000209060130201600e016003016000019080519060200190611a30929190613365565b507f8bacef72bf6455be1f2f376b412755609a1aa75badaa82dce17da01e07699e868960076001840381548110611a6357fe5b90600052602060002090601302016001015460076001850381548110611a8557fe5b90600052602060002090601302016006016001015460076001860381548110611aaa57fe5b9060005260206000209060130201600601600201548c60076001880381548110611ad057fe5b90600052602060002090601302016002015460076001890381548110611af257fe5b9060005260206000209060130201600d0160009054906101000a900460ff168e8d8d8d604051611b2c9b9a9998979695949392919061486b565b60405180910390a1505050505050505050565b600860209081526000938452604080852082529284528284209052825290205481565b6004546001600160a01b031681565b600654600160a01b900460ff1681565b6001600160a01b0380831660009081526008602090815260408083208551909416835292815282822084820151835290529081205480611bd35760405162461bcd60e51b815260040161095390614b2b565b60076001820381548110611be357fe5b90600052602060002090601302016002015491505092915050565b33611c0761105b565b6001600160a01b031614611c1a57600080fd5b6000805460ff191660011790556040517fd5a2a04a775c741c2ca0dc46ea7ce4835190e1aaf1ca018def0e82568ec3361690611c5790339061479e565b60405180910390a1565b611c69612e50565b611c7257600080fd5b60038190556040517f4f1d324a1cbffc352fb64f1d73d95e4b200d92f99ef39bf2d7f5b41f946909d690611ca79083906149e5565b60405180910390a150565b6001600160a01b0380831660009081526008602090815260408083208551909416835292815282822084820151835290529081205480611d045760405162461bcd60e51b815260040161095390614abb565b60076001820381548110611d1457fe5b60009182526020909120601390910201600d0154610100900460ff16949350505050565b604051806040016040528060128152602001711d195c9b5a5b985d1957dc1c9bdc1bdcd85b60721b81525081565b6001600160a01b0380831660009081526008602090815260408083208551909416835292815282822084820151835290529081205480611db85760405162461bcd60e51b815260040161095390614acb565b60076001820381548110611dc857fe5b9060005260206000209060130201600e016002015491505092915050565b611dee612e50565b611df757600080fd5b806001600160a01b038116611e0b57600080fd5b6001600160a01b038116301415611e2157600080fd5b611e2d82600354612eac565b7f7f3a8349917003ed377f6e9ae1608b92edd893903f8983bd274b1f8373dd3b118260035460405161111f9291906147e7565b6040518060400160405280600f81526020016e1c995b5bdd9957dc1c9bdc1bdcd85b608a1b81525081565b611e93612e50565b611e9c57600080fd5b806001600160a01b038116611eb057600080fd5b6001600160a01b038116301415611ec657600080fd5b6000546001600160a01b038381166101009092041614611f4757600080546001600160a01b03848116610100908102610100600160a81b03198416179093556040519290910416907f977e5fa58e458501775e0008d275006294c5249e3c08d1d0e3a9f3acad14f6e490611f3d90839086906147ac565b60405180910390a1505b5050565b604051806040016040528060118152602001701a5b9a5d1a585d1957dc1c9bdc1bdcd85b607a1b81525081565b604051806040016040528060128152602001711d195c9b5a5b985d1957dc1c9bdc1bdcd85b60721b815250611fad3382611649565b611fb657600080fd5b6001600160a01b038085166000908152600860209081526040808320875190941683529281528282208682015183529052205480611ff457506112da565b6007600182038154811061200457fe5b60009182526020909120601390910201600d015460ff1615158315151461203d5760405162461bcd60e51b815260040161095390614b0b565b60016007600183038154811061204f57fe5b9060005260206000209060130201600d0160016101000a81548160ff021916908315150217905550600080516020614dd6833981519152856007600184038154811061209757fe5b906000526020600020906013020160010154600760018503815481106120b957fe5b906000526020600020906013020160060160010154600760018603815481106120de57fe5b906000526020600020906013020160060160020154886007600188038154811061210457fe5b9060005260206000209060130201600201546007600189038154811061212657fe5b60009182526020909120600d601390920201015460405161162b9796959493929160ff1690614802565b604051806040016040528060128152602001711d195c9b5a5b985d1957dc1c9bdc1bdcd85b60721b8152506121853382611649565b61218e57600080fd5b6001600160a01b0380841660009081526008602090815260408083208651909416835292815282822085820151835290522054806121cc5750610bf3565b6001600760018303815481106121de57fe5b9060005260206000209060130201600d0160016101000a81548160ff021916908315150217905550600080516020614dd6833981519152846007600184038154811061222657fe5b9060005260206000209060130201600101546007600185038154811061224857fe5b9060005260206000209060130201600601600101546007600186038154811061226d57fe5b906000526020600020906013020160060160020154876007600188038154811061229357fe5b906000526020600020906013020160020154600760018903815481106122b557fe5b60009182526020909120600d6013909202010154604051610d789796959493929160ff1690614802565b6122e7612efb565b6122f057600080fd5b806001600160a01b03811661230457600080fd5b6001600160a01b03811630141561231a57600080fd5b6001546001600160a01b03838116911614611f4757600180546001600160a01b038481166001600160a01b03198316179092556040519116907f9f611b789425d0d5b90b920f1b2852907dd865c80074a30b1629aaa041d1812c90611f3d90839086906147ac565b61238a612e50565b61239357600080fd5b6005805460ff60a01b1916600160a01b1790556040517f9c567b65fe8caab5ec7bc979a498a1322c1d4baf01a30727cbca137187560ea290600090a1565b6001600160a01b03808316600090815260086020908152604080832085519094168352928152828220848201518352905290812054806124235760405162461bcd60e51b815260040161095390614afb565b6007600182038154811061243357fe5b600091825260209091206013909102016005015460ff16949350505050565b604051806040016040528060118152602001701a5b9a5d1a585d1957dc1c9bdc1bdcd85b607a1b8152506124863382611649565b61248f57600080fd5b61249e88888888888888612f0c565b7f4d1aefd530da064576e9da8db9b9c3e60ac26bf1e3253e950248171b13b14e7f888888888888886040516124d99796959493929190614802565b60405180910390a15050505050505050565b6001600160a01b038083166000908152600860209081526040808320855190941683529281528282208482015183529052908120548061253d5760405162461bcd60e51b815260040161095390614bcb565b6007600182038154811061254d57fe5b90600052602060002090601302016006016002015491505092915050565b6001600160a01b03808316600090815260086020908152604080832085519094168352928152828220848201518352905290812054806125bd5760405162461bcd60e51b815260040161095390614adb565b600760018203815481106125cd57fe5b60009182526020909120601390910201600d015460ff16949350505050565b60005461010090046001600160a01b031681565b600654600160a01b900460ff161561262a5760405162461bcd60e51b815260040161095390614a5b565b6006546001600160a01b0316156126535760405162461bcd60e51b815260040161095390614b8b565b600680546001600160a01b0319166001600160a01b0383811691909117918290556040517f17c27d402d17bcdbb9529dd01c9816f15dd0c961a9f86427efafa8910bbd1e8492611ca7921690614790565b60405180604001604052806013815260200172191a5cdc5d585b1a599e57dc1c9bdc1bdcd85b606a1b81525081565b6006546001600160a01b031633146126fd5760405162461bcd60e51b815260040161095390614b7b565b600654600160a01b900460ff16156127275760405162461bcd60e51b815260040161095390614aab565b80516001600160a01b03908116600090815260086020908152604080832060e08601805151909516845282528083209351820151835292905220541561277f5760405162461bcd60e51b815260040161095390614b5b565b600780546001818101808455600093909352835160139092027fa66cc928b5edb82af9bd49922954155ab7b0942694bea4ce44661d9a8736c688810180546001600160a01b039094166001600160a01b031990941693909317835560208501517fa66cc928b5edb82af9bd49922954155ab7b0942694bea4ce44661d9a8736c68982015560408501517fa66cc928b5edb82af9bd49922954155ab7b0942694bea4ce44661d9a8736c68a82015560608501517fa66cc928b5edb82af9bd49922954155ab7b0942694bea4ce44661d9a8736c68b82015560808501517fa66cc928b5edb82af9bd49922954155ab7b0942694bea4ce44661d9a8736c68c82015560a08501517fa66cc928b5edb82af9bd49922954155ab7b0942694bea4ce44661d9a8736c68d909101805486949360ff199091169083818111156128be57fe5b021790555060c0820151805160068301556020808201516007840155604090910151600883015560e083015180516009840180546001600160a01b0319166001600160a01b03909216919091179055810151600a830155610100830151805180519192600b8501926129339284920190613365565b50602091820151600190910155610120830151600d8301805461014086015115156101000261ff001993151560ff1990921691909117929092169190911790556101608301518051600e840180546001600160a01b039092166001600160a01b031990921691909117815581830151600f8501556040820151601085015560608201518051805193949293919260118701926129d29284920190613365565b5060209182015160019091015560075487516001600160a01b03908116600090815260088452604080822060e08c018051519094168352855280822092518501518252919093529182902081905590519095507f7bc508d8f7466b13c8eb09620627520659b65805b729eb3d47aa6f8997fe1c51945061111f93508692509050614bdb565b612a5f612e50565b612a6857600080fd5b806001600160a01b038116612a7c57600080fd5b6001600160a01b038116301415612a9257600080fd5b612a9d826000612eac565b7fb619d545cb511bd5f02907a1eac4f4cb8dace7b1846852fb0bf5e553937481c18260405161111f9190614790565b6000806008600060076001860381548110612ae357fe5b600091825260208083206013909202909101546001600160a01b031683528201929092526040018120600780549192916000198701908110612b2157fe5b60009182526020808320600960139093020191909101546001600160a01b031683528201929092526040018120600780549192916000198701908110612b6357fe5b60009182526020808320600a60139093020191909101548352820192909252604001902055600754821015612e3757600780546000198101908110612ba457fe5b906000526020600020906013020160076001840381548110612bc257fe5b60009182526020909120825460139092020180546001600160a01b0319166001600160a01b0390921691909117815560018083015481830155600280840154908301556003808401549083015560048084015490830155600580840154908301805460ff90921692909160ff1916908381811115612c3c57fe5b021790555060068281015490820155600780830154908201556008808301549082015560098083015490820180546001600160a01b0319166001600160a01b03909216919091179055600a8083015490820155600b80830180549091830190612cbb9082908490600260018216156101000260001901909116046133e3565b5060019182015490820155600d8381018054918401805460ff938416151560ff19909116178082559154610100908190049093161515830261ff0019909216919091179055600e808501805491850180546001600160a01b0319166001600160a01b03909316929092178255600f8087015490860155601080870154908601556011808701805492959394909391870192612d6892849286926002928116159091026000190116046133e3565b506001820154816001015550505050905050816008600060076001860381548110612d8f57fe5b600091825260208083206013909202909101546001600160a01b031683528201929092526040018120600780549192916000198701908110612dcd57fe5b60009182526020808320600960139093020191909101546001600160a01b031683528201929092526040018120600780549192916000198701908110612e0f57fe5b9060005260206000209060130201600901600101548152602001908152602001600020819055505b6007805490612e4a906000198301613458565b50919050565b60005461010090046001600160a01b0316331490565b600081604051602001612e799190614784565b604051602081830303815290604052805190602001209050919050565b600082820183811015612ea557fe5b9392505050565b6001600160a01b03821660009081526002602052604090205460ff16611f47576001600160a01b0382166000908152600260205260409020805460ff1916600190811782554283019101555050565b6001546001600160a01b0316331490565b604051636b84d93160e01b815273__SafeMathIntLib________________________90636b84d93190612f439088906004016149e5565b60206040518083038186803b158015612f5b57600080fd5b505af4158015612f6f573d6000803e3d6000fd5b505050506040513d601f19601f82011682018060405250612f939190810190613b84565b612faf5760405162461bcd60e51b815260040161095390614b9b565b604051636b84d93160e01b815273__SafeMathIntLib________________________90636b84d93190612fe69087906004016149e5565b60206040518083038186803b158015612ffe57600080fd5b505af4158015613012573d6000803e3d6000fd5b505050506040513d601f19601f820116820180604052506130369190810190613b84565b6130525760405162461bcd60e51b815260040161095390614b6b565b6001600160a01b0380881660009081526008602090815260408083208751909416835292815282822086820151835290522054806130d457600780546001019061309c9082613458565b6001600160a01b03808a1660009081526008602090815260408083208951909416835292815282822088820151835290522081905590505b87600760018303815481106130e557fe5b906000526020600020906013020160000160006101000a8154816001600160a01b0302191690836001600160a01b03160217905550866007600183038154811061312b57fe5b906000526020600020906013020160010181905550826007600183038154811061315157fe5b906000526020600020906013020160020181905550436007600183038154811061317757fe5b9060005260206000209060130201600301819055506131dd600460009054906101000a90046001600160a01b03166001600160a01b031663fbdfd8e76040518163ffffffff1660e01b815260040160206040518083038186803b1580156118c757600080fd5b600760018303815481106131ed57fe5b90600052602060002090601302016004018190555060006007600183038154811061321457fe5b60009182526020909120600560139092020101805460ff19166001838181111561323a57fe5b0217905550836007600183038154811061325057fe5b906000526020600020906013020160090160008201518160000160006101000a8154816001600160a01b0302191690836001600160a01b031602179055506020820151816001015590505085600760018303815481106132ac57fe5b90600052602060002090601302016006016001018190555084600760018303815481106132d557fe5b90600052602060002090601302016006016002018190555081600760018303815481106132fe57fe5b60009182526020822060139190910201600d01805460ff19169215159290921790915560078054600019840190811061333357fe5b9060005260206000209060130201600d0160016101000a81548160ff0219169083151502179055505050505050505050565b828054600181600116156101000203166002900490600052602060002090601f016020900481019282601f106133a657805160ff19168380011785556133d3565b828001600101855582156133d3579182015b828111156133d35782518255916020019190600101906133b8565b506133df929150613484565b5090565b828054600181600116156101000203166002900490600052602060002090601f016020900481019282601f1061341c57805485556133d3565b828001600101855582156133d357600052602060002091601f016020900482015b828111156133d357825482559160010191906001019061343d565b815481835581811115610bf357601302816013028360005260206000209182019101610bf3919061349e565b61092691905b808211156133df576000815560010161348a565b61092691905b808211156133df5780546001600160a01b0319908116825560006001830181905560028301819055600383018190556004830181905560058301805460ff19169055600683018190556007830181905560088301819055600983018054909216909155600a8201819055600b82018161351d828261357b565b506000600191909101819055600d8301805461ffff19169055600e830180546001600160a01b0319168155600f840182905560108401829055906011840181613566828261357b565b600182016000905550505050506013016134a4565b50805460018160011615610100020316600290046000825580601f106135a157506135bf565b601f0160209004906000526020600020908101906135bf9190613484565b50565b8035610a8781614cd9565b8035610a8781614ced565b8051610a8781614ced565b8035610a8781614cf6565b8035610a8781614cff565b8035610a8781614d08565b600082601f83011261361557600080fd5b813561362861362382614c12565b614bec565b9150808252602083016020830185838301111561364457600080fd5b61364f838284614c8d565b50505092915050565b60006060828403121561366a57600080fd5b6136746060614bec565b9050600061368284846135e3565b8252506020613693848483016135e3565b60208301525060406136a7848285016135e3565b60408301525092915050565b6000604082840312156136c557600080fd5b6136cf6040614bec565b905060006136dd84846135c2565b82525060206136ee848483016135e3565b60208301525092915050565b60006080828403121561370c57600080fd5b6137166080614bec565b9050600061372484846135c2565b8252506020613735848483016135e3565b6020830152506040613749848285016135e3565b60408301525060608201356001600160401b0381111561376857600080fd5b61377484828501613780565b60608301525092915050565b60006040828403121561379257600080fd5b61379c6040614bec565b905081356001600160401b038111156137b457600080fd5b6136dd84828501613604565b60006101e082840312156137d357600080fd5b6137de610180614bec565b905060006137ec84846135c2565b82525060206137fd848483016135e3565b6020830152506040613811848285016135e3565b6040830152506060613825848285016135e3565b6060830152506080613839848285016135e3565b60808301525060a061384d848285016135f9565b60a08301525060c061386184828501613658565b60c083015250610120613876848285016136b3565b60e0830152506101608201356001600160401b0381111561389657600080fd5b6138a284828501613780565b610100830152506101806138b8848285016135cd565b610120830152506101a06138ce848285016135cd565b610140830152506101c08201356001600160401b038111156138ef57600080fd5b6138fb848285016136fa565b6101608301525092915050565b8051610a8781614cf6565b60006020828403121561392557600080fd5b600061169184846135c2565b60008060006060848603121561394657600080fd5b600061395286866135c2565b9350506020613963868287016135c2565b9250506040613974868287016135e3565b9150509250925092565b6000806040838503121561399157600080fd5b600061399d85856135c2565b92505060208301356001600160401b038111156139b957600080fd5b6139c585828601613604565b9150509250929050565b600080606083850312156139e257600080fd5b60006139ee85856135c2565b92505060206139c5858286016136b3565b6000806000806000806000610100888a031215613a1b57600080fd5b6000613a278a8a6135c2565b9750506020613a388a828b016136b3565b9650506060613a498a828b016135c2565b9550506080613a5a8a828b016135e3565b94505060a0613a6b8a828b016135e3565b93505060c0613a7c8a828b016135e3565b92505060e08801356001600160401b03811115613a9857600080fd5b613aa48a828b01613604565b91505092959891949750929550565b600080600060808486031215613ac857600080fd5b6000613ad486866135c2565b9350506020613ae5868287016136b3565b9250506060613974868287016135cd565b6000806000806000806000610100888a031215613b1257600080fd5b6000613b1e8a8a6135c2565b9750506020613b2f8a828b016135e3565b9650506040613b408a828b016135e3565b9550506060613b518a828b016135e3565b9450506080613b628a828b016136b3565b93505060c0613b738a828b016135e3565b92505060e0613aa48a828b016135cd565b600060208284031215613b9657600080fd5b600061169184846135d8565b600060208284031215613bb457600080fd5b600061169184846135ee565b600060208284031215613bd257600080fd5b81356001600160401b03811115613be857600080fd5b611691848285016137c0565b600060208284031215613c0657600080fd5b600061169184846135e3565b600060208284031215613c2457600080fd5b60006116918484613908565b613c3981614c77565b82525050565b613c3981614c46565b613c3981614c51565b613c3981610926565b613c3981614c56565b613c3981614c82565b6000613c7782614c39565b613c818185614c3d565b9350613c91818560208601614c99565b613c9a81614cc5565b9093019392505050565b6000613caf82614c39565b613cb981856109f9565b9350613cc9818560208601614c99565b9290920192915050565b6000613ce0605083614c3d565b600080516020614d368339815191528152600080516020614d1683398151915260208201526f676553746174652e736f6c3a3337305d60801b604082015260600192915050565b6000613d34603083614c3d565b7f42616c616e636520747261636b65722066726f7a656e205b42616c616e63655481526f7261636b61626c652e736f6c3a34335d60801b602082015260400192915050565b6000613d86602d83614c3d565b600080516020614d9683398151915281526c6461626c652e736f6c3a36395d60981b602082015260400192915050565b6000613dc3605083614c3d565b600080516020614d368339815191528152600080516020614d1683398151915260208201526f676553746174652e736f6c3a3434305d60801b604082015260600192915050565b6000613e17605183614c3d565b600080516020614d568339815191528152600080516020614d768339815191526020820152706e676553746174652e736f6c3a3139395d60781b604082015260600192915050565b6000613e6c605083614c3d565b600080516020614d368339815191528152600080516020614d1683398151915260208201526f676553746174652e736f6c3a3436385d60801b604082015260600192915050565b6000613ec0605283614c3d565b7f4e6f20736574746c656d656e7420666f756e6420666f722077616c6c6574206181527f6e642063757272656e6379205b4e756c6c536574746c656d656e744368616c6c602082015271656e676553746174652e736f6c3a3232385d60701b604082015260600192915050565b6000613f3a602d83614c3d565b600080516020614d9683398151915281526c6461626c652e736f6c3a36345d60981b602082015260400192915050565b6000613f77605083614c3d565b600080516020614d368339815191528152600080516020614d1683398151915260208201526f676553746174652e736f6c3a3237315d60801b604082015260600192915050565b6000613fcb605083614c3d565b600080516020614d368339815191528152600080516020614d1683398151915260208201526f676553746174652e736f6c3a3432365d60801b604082015260600192915050565b600061401f605083614c3d565b600080516020614d368339815191528152600080516020614d1683398151915260208201526f676553746174652e736f6c3a3339385d60801b604082015260600192915050565b6000614073605083614c3d565b600080516020614d368339815191528152600080516020614d1683398151915260208201526f676553746174652e736f6c3a3332385d60801b604082015260600192915050565b60006140c7605083614c3d565b600080516020614d368339815191528152600080516020614d1683398151915260208201526f676553746174652e736f6c3a3335365d60801b604082015260600192915050565b600061411b605183614c3d565b600080516020614d568339815191528152600080516020614d768339815191526020820152706e676553746174652e736f6c3a3134355d60781b604082015260600192915050565b6000614170605083614c3d565b600080516020614d368339815191528152600080516020614d1683398151915260208201526f676553746174652e736f6c3a3330305d60801b604082015260600192915050565b60006141c4605083614c3d565b600080516020614d368339815191528152600080516020614d1683398151915260208201526f676553746174652e736f6c3a3331345d60801b604082015260600192915050565b6000614218605083614c3d565b600080516020614d368339815191528152600080516020614d1683398151915260208201526f676553746174652e736f6c3a3431325d60801b604082015260600192915050565b600061426c605083614c3d565b600080516020614d368339815191528152600080516020614d1683398151915260208201526f676553746174652e736f6c3a3334325d60801b604082015260600192915050565b60006142c0604e83614c3d565b7f50726f706f73616c2065786973747320666f722077616c6c657420616e64206381527f757272656e6379205b4e756c6c536574746c656d656e744368616c6c656e676560208201526d53746174652e736f6c3a3437395d60901b604082015260600192915050565b6000614336604983614c3d565b7f5461726765742062616c616e636520616d6f756e74206e6f7420706f7369746981527f7665205b4e756c6c536574746c656d656e744368616c6c656e676553746174656020820152682e736f6c3a3530375d60b81b604082015260600192915050565b60006143a7602f83614c3d565b7f43616c6c6572206973206e6f742075706772616465206167656e74205b55706781526e72616461626c652e736f6c3a36335d60881b602082015260400192915050565b60006143f8603683614c3d565b7f55706772616465206167656e742068617320616c7265616479206265656e20738152756574205b55706772616461626c652e736f6c3a33375d60501b602082015260400192915050565b6000614450604083614c3d565b7f537461676520616d6f756e74206e6f7420706f736974697665205b4e756c6c5381527f6574746c656d656e744368616c6c656e676553746174652e736f6c3a3530365d602082015260400192915050565b60006144af605083614c3d565b600080516020614d368339815191528152600080516020614d1683398151915260208201526f676553746174652e736f6c3a3238365d60801b604082015260600192915050565b6000614503605083614c3d565b600080516020614d368339815191528152600080516020614d1683398151915260208201526f676553746174652e736f6c3a3435345d60801b604082015260600192915050565b6000614557605083614c3d565b600080516020614d368339815191528152600080516020614d1683398151915260208201526f676553746174652e736f6c3a3338345d60801b604082015260600192915050565b805160608301906145af8482613c51565b5060208201516145c26020850182613c51565b5060408201516112da6040850182613c51565b805160408301906145e68482613c3f565b5060208201516112da6020850182613c51565b8051600090608084019061460d8582613c3f565b5060208301516146206020860182613c51565b5060408301516146336040860182613c51565b506060830151848203606086015261464b8282614654565b95945050505050565b805160408084526000919084019061466c8282613c6c565b91505060208301516146816020860182613c51565b509392505050565b80516000906101e084019061469e8582613c3f565b5060208301516146b16020860182613c51565b5060408301516146c46040860182613c51565b5060608301516146d76060860182613c51565b5060808301516146ea6080860182613c51565b5060a08301516146fd60a0860182613c63565b5060c083015161471060c086018261459e565b5060e08301516147246101208601826145d5565b5061010083015184820361016086015261473e8282614654565b915050610120830151614755610180860182613c48565b5061014083015161476a6101a0860182613c48565b506101608301518482036101c086015261464b82826145f9565b6000612ea58284613ca4565b60208101610a878284613c3f565b60208101610a878284613c30565b604081016147ba8285613c3f565b612ea56020830184613c3f565b604081016147d58285613c3f565b81810360208301526116918184613c6c565b604081016147f58285613c3f565b612ea56020830184613c51565b6101008101614811828a613c3f565b61481e6020830189613c51565b61482b6040830188613c51565b6148386060830187613c51565b61484560808301866145d5565b61485260c0830185613c51565b61485f60e0830184613c48565b98975050505050505050565b610180810161487a828e613c3f565b614887602083018d613c51565b614894604083018c613c51565b6148a1606083018b613c51565b6148ae608083018a6145d5565b6148bb60c0830189613c51565b6148c860e0830188613c48565b6148d6610100830187613c3f565b6148e4610120830186613c51565b6148f2610140830185613c51565b8181036101608301526149058184613c6c565b9d9c50505050505050505050505050565b6101e08101614925828f613c3f565b614932602083018e613c51565b61493f604083018d613c51565b61494c606083018c613c51565b614959608083018b613c51565b61496660a083018a613c63565b61497360c083018961459e565b6149816101208301886145d5565b8181036101608301526149948187614654565b90506149a4610180830186613c48565b6149b26101a0830185613c48565b8181036101c08301526149c581846145f9565b9e9d5050505050505050505050505050565b60208101610a878284613c48565b60208101610a878284613c51565b60208101610a878284613c5a565b60408101614a0f8285613c5a565b612ea56020830184613c5a565b60208101610a878284613c63565b60208082528101612ea58184613c6c565b602080825281016109f681613cd3565b602080825281016109f681613d27565b602080825281016109f681613d79565b602080825281016109f681613db6565b602080825281016109f681613e0a565b602080825281016109f681613e5f565b602080825281016109f681613eb3565b602080825281016109f681613f2d565b602080825281016109f681613f6a565b602080825281016109f681613fbe565b602080825281016109f681614012565b602080825281016109f681614066565b602080825281016109f6816140ba565b602080825281016109f68161410e565b602080825281016109f681614163565b602080825281016109f6816141b7565b602080825281016109f68161420b565b602080825281016109f68161425f565b602080825281016109f6816142b3565b602080825281016109f681614329565b602080825281016109f68161439a565b602080825281016109f6816143eb565b602080825281016109f681614443565b602080825281016109f6816144a2565b602080825281016109f6816144f6565b602080825281016109f68161454a565b60208082528101612ea58184614689565b6040518181016001600160401b0381118282101715614c0a57600080fd5b604052919050565b60006001600160401b03821115614c2857600080fd5b506020601f91909101601f19160190565b5190565b90815260200190565b60006109f682614c6b565b151590565b60006109f682614c46565b806109f981614ccf565b6001600160a01b031690565b60006109f682614c56565b60006109f682614c61565b82818337506000910152565b60005b83811015614cb4578181015183820152602001614c9c565b838111156112da5750506000910152565b601f01601f191690565b600281106135bf57fe5b614ce281614c46565b81146135bf57600080fd5b614ce281614c51565b614ce281610926565b614ce281614c56565b600281106135bf57600080fdfe2063757272656e6379205b4e756c6c536574746c656d656e744368616c6c656e4e6f2070726f706f73616c20666f756e6420666f722077616c6c657420616e6457616c6c657420696e6974696174696f6e20616e64207465726d696e6174696f6e206d69736d61746368205b4e756c6c536574746c656d656e744368616c6c6555706772616465732068617665206265656e2066726f7a656e205b5570677261339eee9d150f0bc8955ebdbba0b1ba60f5882070d87f6c9c6d95b742a369534a79fdef6f6cf78a7287462299c9571d405670896215fe6a8577175cbceb3d95f9a365627a7a723158207e52e0738ca766f64fe87547d175ab3d796d99d550663bb0356b7e5c9600dd576c6578706572696d656e74616cf564736f6c634300050c0040",
  "source": "/*\n * Hubii Nahmii\n *\n * Compliant with the Hubii Nahmii specification v0.12.\n *\n * Copyright (C) 2017-2018 Hubii AS\n */\n\npragma solidity >=0.4.25 <0.6.0;\npragma experimental ABIEncoderV2;\n\nimport {Ownable} from \"./Ownable.sol\";\nimport {Servable} from \"./Servable.sol\";\nimport {Configurable} from \"./Configurable.sol\";\nimport {BalanceTrackable} from \"./BalanceTrackable.sol\";\nimport {Upgradable} from \"./Upgradable.sol\";\nimport {SafeMathIntLib} from \"./SafeMathIntLib.sol\";\nimport {SafeMathUintLib} from \"./SafeMathUintLib.sol\";\nimport {MonetaryTypesLib} from \"./MonetaryTypesLib.sol\";\nimport {NahmiiTypesLib} from \"./NahmiiTypesLib.sol\";\nimport {SettlementChallengeTypesLib} from \"./SettlementChallengeTypesLib.sol\";\n\n/**\n * @title NullSettlementChallengeState\n * @notice Where null settlements challenge state is managed\n */\ncontract NullSettlementChallengeState is Ownable, Servable, Configurable, BalanceTrackable, Upgradable {\n    using SafeMathIntLib for int256;\n    using SafeMathUintLib for uint256;\n\n    //\n    // Constants\n    // -----------------------------------------------------------------------------------------------------------------\n    string constant public INITIATE_PROPOSAL_ACTION = \"initiate_proposal\";\n    string constant public TERMINATE_PROPOSAL_ACTION = \"terminate_proposal\";\n    string constant public REMOVE_PROPOSAL_ACTION = \"remove_proposal\";\n    string constant public DISQUALIFY_PROPOSAL_ACTION = \"disqualify_proposal\";\n\n    //\n    // Variables\n    // -----------------------------------------------------------------------------------------------------------------\n    SettlementChallengeTypesLib.Proposal[] public proposals;\n    mapping(address => mapping(address => mapping(uint256 => uint256))) public proposalIndexByWalletCurrency;\n\n    //\n    // Events\n    // -----------------------------------------------------------------------------------------------------------------\n    event InitiateProposalEvent(address wallet, uint256 nonce, int256 stageAmount, int256 targetBalanceAmount,\n        MonetaryTypesLib.Currency currency, uint256 blockNumber, bool walletInitiated);\n    event TerminateProposalEvent(address wallet, uint256 nonce, int256 stageAmount, int256 targetBalanceAmount,\n        MonetaryTypesLib.Currency currency, uint256 blockNumber, bool walletInitiated);\n    event RemoveProposalEvent(address wallet, uint256 nonce, int256 stageAmount, int256 targetBalanceAmount,\n        MonetaryTypesLib.Currency currency, uint256 blockNumber, bool walletInitiated);\n    event DisqualifyProposalEvent(address challengedWallet, uint256 challangedNonce, int256 stageAmount,\n        int256 targetBalanceAmount, MonetaryTypesLib.Currency currency, uint256 blockNumber, bool walletInitiated,\n        address challengerWallet, uint256 candidateNonce, bytes32 candidateHash, string candidateKind);\n    event UpgradeProposalEvent(SettlementChallengeTypesLib.Proposal proposal);\n\n    //\n    // Constructor\n    // -----------------------------------------------------------------------------------------------------------------\n    constructor(address deployer) Ownable(deployer) public {\n    }\n\n    //\n    // Functions\n    // -----------------------------------------------------------------------------------------------------------------\n    /// @notice Get the number of proposals\n    /// @return The number of proposals\n    function proposalsCount()\n    public\n    view\n    returns (uint256)\n    {\n        return proposals.length;\n    }\n\n    /// @notice Initiate a proposal\n    /// @param wallet The address of the concerned challenged wallet\n    /// @param nonce The wallet nonce\n    /// @param stageAmount The proposal stage amount\n    /// @param targetBalanceAmount The proposal target balance amount\n    /// @param currency The concerned currency\n    /// @param blockNumber The proposal block number\n    /// @param walletInitiated True if initiated by the concerned challenged wallet\n    function initiateProposal(address wallet, uint256 nonce, int256 stageAmount, int256 targetBalanceAmount,\n        MonetaryTypesLib.Currency memory currency, uint256 blockNumber, bool walletInitiated)\n    public\n    onlyEnabledServiceAction(INITIATE_PROPOSAL_ACTION)\n    {\n        // Initiate proposal\n        _initiateProposal(\n            wallet, nonce, stageAmount, targetBalanceAmount,\n            currency, blockNumber, walletInitiated\n        );\n\n        // Emit event\n        emit InitiateProposalEvent(\n            wallet, nonce, stageAmount, targetBalanceAmount, currency,\n            blockNumber, walletInitiated\n        );\n    }\n\n    /// @notice Terminate a proposal\n    /// @param wallet The address of the concerned challenged wallet\n    /// @param currency The concerned currency\n    function terminateProposal(address wallet, MonetaryTypesLib.Currency memory currency)\n    public\n    onlyEnabledServiceAction(TERMINATE_PROPOSAL_ACTION)\n    {\n        // Get the proposal index\n        uint256 index = proposalIndexByWalletCurrency[wallet][currency.ct][currency.id];\n\n        // Return gracefully if there is no proposal to terminate\n        if (0 == index)\n            return;\n\n        // Terminate proposal\n        proposals[index - 1].terminated = true;\n\n        // Emit event\n        emit TerminateProposalEvent(\n            wallet, proposals[index - 1].nonce, proposals[index - 1].amounts.stage,\n            proposals[index - 1].amounts.targetBalance, currency,\n            proposals[index - 1].referenceBlockNumber, proposals[index - 1].walletInitiated\n        );\n    }\n\n    /// @notice Terminate a proposal\n    /// @param wallet The address of the concerned challenged wallet\n    /// @param currency The concerned currency\n    /// @param walletTerminated True if wallet terminated\n    function terminateProposal(address wallet, MonetaryTypesLib.Currency memory currency, bool walletTerminated)\n    public\n    onlyEnabledServiceAction(TERMINATE_PROPOSAL_ACTION)\n    {\n        // Get the proposal index\n        uint256 index = proposalIndexByWalletCurrency[wallet][currency.ct][currency.id];\n\n        // Return gracefully if there is no proposal to terminate\n        if (0 == index)\n            return;\n\n        // Require that role that initialized (wallet or operator) can only cancel its own proposal\n        require(walletTerminated == proposals[index - 1].walletInitiated, \"Wallet initiation and termination mismatch [NullSettlementChallengeState.sol:145]\");\n\n        // Terminate proposal\n        proposals[index - 1].terminated = true;\n\n        // Emit event\n        emit TerminateProposalEvent(\n            wallet, proposals[index - 1].nonce, proposals[index - 1].amounts.stage,\n            proposals[index - 1].amounts.targetBalance, currency,\n            proposals[index - 1].referenceBlockNumber, proposals[index - 1].walletInitiated\n        );\n    }\n\n    /// @notice Remove a proposal\n    /// @param wallet The address of the concerned challenged wallet\n    /// @param currency The concerned currency\n    function removeProposal(address wallet, MonetaryTypesLib.Currency memory currency)\n    public\n    onlyEnabledServiceAction(REMOVE_PROPOSAL_ACTION)\n    {\n        // Get the proposal index\n        uint256 index = proposalIndexByWalletCurrency[wallet][currency.ct][currency.id];\n\n        // Return gracefully if there is no proposal to remove\n        if (0 == index)\n            return;\n\n        // Emit event\n        emit RemoveProposalEvent(\n            wallet, proposals[index - 1].nonce, proposals[index - 1].amounts.stage,\n            proposals[index - 1].amounts.targetBalance, currency,\n            proposals[index - 1].referenceBlockNumber, proposals[index - 1].walletInitiated\n        );\n\n        // Remove proposal\n        _removeProposal(index);\n    }\n\n    /// @notice Remove a proposal\n    /// @param wallet The address of the concerned challenged wallet\n    /// @param currency The concerned currency\n    /// @param walletTerminated True if wallet terminated\n    function removeProposal(address wallet, MonetaryTypesLib.Currency memory currency, bool walletTerminated)\n    public\n    onlyEnabledServiceAction(REMOVE_PROPOSAL_ACTION)\n    {\n        // Get the proposal index\n        uint256 index = proposalIndexByWalletCurrency[wallet][currency.ct][currency.id];\n\n        // Return gracefully if there is no proposal to remove\n        if (0 == index)\n            return;\n\n        // Require that role that initialized (wallet or operator) can only cancel its own proposal\n        require(walletTerminated == proposals[index - 1].walletInitiated, \"Wallet initiation and termination mismatch [NullSettlementChallengeState.sol:199]\");\n\n        // Emit event\n        emit RemoveProposalEvent(\n            wallet, proposals[index - 1].nonce, proposals[index - 1].amounts.stage,\n            proposals[index - 1].amounts.targetBalance, currency,\n            proposals[index - 1].referenceBlockNumber, proposals[index - 1].walletInitiated\n        );\n\n        // Remove proposal\n        _removeProposal(index);\n    }\n\n    /// @notice Disqualify a proposal\n    /// @dev A call to this function will intentionally override previous disqualifications if existent\n    /// @param challengedWallet The address of the concerned challenged wallet\n    /// @param currency The concerned currency\n    /// @param challengerWallet The address of the concerned challenger wallet\n    /// @param blockNumber The disqualification block number\n    /// @param candidateNonce The candidate nonce\n    /// @param candidateHash The candidate hash\n    /// @param candidateKind The candidate kind\n    function disqualifyProposal(address challengedWallet, MonetaryTypesLib.Currency memory currency, address challengerWallet,\n        uint256 blockNumber, uint256 candidateNonce, bytes32 candidateHash, string memory candidateKind)\n    public\n    onlyEnabledServiceAction(DISQUALIFY_PROPOSAL_ACTION)\n    {\n        // Get the proposal index\n        uint256 index = proposalIndexByWalletCurrency[challengedWallet][currency.ct][currency.id];\n        require(0 != index, \"No settlement found for wallet and currency [NullSettlementChallengeState.sol:228]\");\n\n        // Update proposal\n        proposals[index - 1].status = SettlementChallengeTypesLib.Status.Disqualified;\n        proposals[index - 1].expirationTime = block.timestamp.add(configuration.settlementChallengeTimeout());\n        proposals[index - 1].disqualification.challenger = challengerWallet;\n        proposals[index - 1].disqualification.nonce = candidateNonce;\n        proposals[index - 1].disqualification.blockNumber = blockNumber;\n        proposals[index - 1].disqualification.candidate.hash = candidateHash;\n        proposals[index - 1].disqualification.candidate.kind = candidateKind;\n\n        // Emit event\n        emit DisqualifyProposalEvent(\n            challengedWallet, proposals[index - 1].nonce, proposals[index - 1].amounts.stage,\n            proposals[index - 1].amounts.targetBalance, currency, proposals[index - 1].referenceBlockNumber,\n            proposals[index - 1].walletInitiated, challengerWallet, candidateNonce, candidateHash, candidateKind\n        );\n    }\n\n    /// @notice Gauge whether the proposal for the given wallet and currency has expired\n    /// @param wallet The address of the concerned wallet\n    /// @param currency The concerned currency\n    /// @return true if proposal has expired, else false\n    function hasProposal(address wallet, MonetaryTypesLib.Currency memory currency)\n    public\n    view\n    returns (bool)\n    {\n        // 1-based index\n        return 0 != proposalIndexByWalletCurrency[wallet][currency.ct][currency.id];\n    }\n\n    /// @notice Gauge whether the proposal for the given wallet and currency has terminated\n    /// @param wallet The address of the concerned wallet\n    /// @param currency The concerned currency\n    /// @return true if proposal has terminated, else false\n    function hasProposalTerminated(address wallet, MonetaryTypesLib.Currency memory currency)\n    public\n    view\n    returns (bool)\n    {\n        // 1-based index\n        uint256 index = proposalIndexByWalletCurrency[wallet][currency.ct][currency.id];\n        require(0 != index, \"No proposal found for wallet and currency [NullSettlementChallengeState.sol:271]\");\n        return proposals[index - 1].terminated;\n    }\n\n    /// @notice Gauge whether the proposal for the given wallet and currency has expired\n    /// @param wallet The address of the concerned wallet\n    /// @param currency The concerned currency\n    /// @return true if proposal has expired, else false\n    function hasProposalExpired(address wallet, MonetaryTypesLib.Currency memory currency)\n    public\n    view\n    returns (bool)\n    {\n        // 1-based index\n        uint256 index = proposalIndexByWalletCurrency[wallet][currency.ct][currency.id];\n        require(0 != index, \"No proposal found for wallet and currency [NullSettlementChallengeState.sol:286]\");\n        return block.timestamp >= proposals[index - 1].expirationTime;\n    }\n\n    /// @notice Get the settlement proposal challenge nonce of the given wallet and currency\n    /// @param wallet The address of the concerned wallet\n    /// @param currency The concerned currency\n    /// @return The settlement proposal nonce\n    function proposalNonce(address wallet, MonetaryTypesLib.Currency memory currency)\n    public\n    view\n    returns (uint256)\n    {\n        uint256 index = proposalIndexByWalletCurrency[wallet][currency.ct][currency.id];\n        require(0 != index, \"No proposal found for wallet and currency [NullSettlementChallengeState.sol:300]\");\n        return proposals[index - 1].nonce;\n    }\n\n    /// @notice Get the settlement proposal reference block number of the given wallet and currency\n    /// @param wallet The address of the concerned wallet\n    /// @param currency The concerned currency\n    /// @return The settlement proposal reference block number\n    function proposalReferenceBlockNumber(address wallet, MonetaryTypesLib.Currency memory currency)\n    public\n    view\n    returns (uint256)\n    {\n        uint256 index = proposalIndexByWalletCurrency[wallet][currency.ct][currency.id];\n        require(0 != index, \"No proposal found for wallet and currency [NullSettlementChallengeState.sol:314]\");\n        return proposals[index - 1].referenceBlockNumber;\n    }\n\n    /// @notice Get the settlement proposal definition block number of the given wallet and currency\n    /// @param wallet The address of the concerned wallet\n    /// @param currency The concerned currency\n    /// @return The settlement proposal reference block number\n    function proposalDefinitionBlockNumber(address wallet, MonetaryTypesLib.Currency memory currency)\n    public\n    view\n    returns (uint256)\n    {\n        uint256 index = proposalIndexByWalletCurrency[wallet][currency.ct][currency.id];\n        require(0 != index, \"No proposal found for wallet and currency [NullSettlementChallengeState.sol:328]\");\n        return proposals[index - 1].definitionBlockNumber;\n    }\n\n    /// @notice Get the settlement proposal expiration time of the given wallet and currency\n    /// @param wallet The address of the concerned wallet\n    /// @param currency The concerned currency\n    /// @return The settlement proposal expiration time\n    function proposalExpirationTime(address wallet, MonetaryTypesLib.Currency memory currency)\n    public\n    view\n    returns (uint256)\n    {\n        uint256 index = proposalIndexByWalletCurrency[wallet][currency.ct][currency.id];\n        require(0 != index, \"No proposal found for wallet and currency [NullSettlementChallengeState.sol:342]\");\n        return proposals[index - 1].expirationTime;\n    }\n\n    /// @notice Get the settlement proposal status of the given wallet and currency\n    /// @param wallet The address of the concerned wallet\n    /// @param currency The concerned currency\n    /// @return The settlement proposal status\n    function proposalStatus(address wallet, MonetaryTypesLib.Currency memory currency)\n    public\n    view\n    returns (SettlementChallengeTypesLib.Status)\n    {\n        uint256 index = proposalIndexByWalletCurrency[wallet][currency.ct][currency.id];\n        require(0 != index, \"No proposal found for wallet and currency [NullSettlementChallengeState.sol:356]\");\n        return proposals[index - 1].status;\n    }\n\n    /// @notice Get the settlement proposal stage amount of the given wallet and currency\n    /// @param wallet The address of the concerned wallet\n    /// @param currency The concerned currency\n    /// @return The settlement proposal stage amount\n    function proposalStageAmount(address wallet, MonetaryTypesLib.Currency memory currency)\n    public\n    view\n    returns (int256)\n    {\n        uint256 index = proposalIndexByWalletCurrency[wallet][currency.ct][currency.id];\n        require(0 != index, \"No proposal found for wallet and currency [NullSettlementChallengeState.sol:370]\");\n        return proposals[index - 1].amounts.stage;\n    }\n\n    /// @notice Get the settlement proposal target balance amount of the given wallet and currency\n    /// @param wallet The address of the concerned wallet\n    /// @param currency The concerned currency\n    /// @return The settlement proposal target balance amount\n    function proposalTargetBalanceAmount(address wallet, MonetaryTypesLib.Currency memory currency)\n    public\n    view\n    returns (int256)\n    {\n        uint256 index = proposalIndexByWalletCurrency[wallet][currency.ct][currency.id];\n        require(0 != index, \"No proposal found for wallet and currency [NullSettlementChallengeState.sol:384]\");\n        return proposals[index - 1].amounts.targetBalance;\n    }\n\n    /// @notice Get the settlement proposal balance reward of the given wallet and currency\n    /// @param wallet The address of the concerned wallet\n    /// @param currency The concerned currency\n    /// @return The settlement proposal balance reward\n    function proposalWalletInitiated(address wallet, MonetaryTypesLib.Currency memory currency)\n    public\n    view\n    returns (bool)\n    {\n        uint256 index = proposalIndexByWalletCurrency[wallet][currency.ct][currency.id];\n        require(0 != index, \"No proposal found for wallet and currency [NullSettlementChallengeState.sol:398]\");\n        return proposals[index - 1].walletInitiated;\n    }\n\n    /// @notice Get the settlement proposal disqualification challenger of the given wallet and currency\n    /// @param wallet The address of the concerned wallet\n    /// @param currency The concerned currency\n    /// @return The settlement proposal disqualification challenger\n    function proposalDisqualificationChallenger(address wallet, MonetaryTypesLib.Currency memory currency)\n    public\n    view\n    returns (address)\n    {\n        uint256 index = proposalIndexByWalletCurrency[wallet][currency.ct][currency.id];\n        require(0 != index, \"No proposal found for wallet and currency [NullSettlementChallengeState.sol:412]\");\n        return proposals[index - 1].disqualification.challenger;\n    }\n\n    /// @notice Get the settlement proposal disqualification block number of the given wallet and currency\n    /// @param wallet The address of the concerned wallet\n    /// @param currency The concerned currency\n    /// @return The settlement proposal disqualification block number\n    function proposalDisqualificationBlockNumber(address wallet, MonetaryTypesLib.Currency memory currency)\n    public\n    view\n    returns (uint256)\n    {\n        uint256 index = proposalIndexByWalletCurrency[wallet][currency.ct][currency.id];\n        require(0 != index, \"No proposal found for wallet and currency [NullSettlementChallengeState.sol:426]\");\n        return proposals[index - 1].disqualification.blockNumber;\n    }\n\n    /// @notice Get the settlement proposal disqualification nonce of the given wallet and currency\n    /// @param wallet The address of the concerned wallet\n    /// @param currency The concerned currency\n    /// @return The settlement proposal disqualification nonce\n    function proposalDisqualificationNonce(address wallet, MonetaryTypesLib.Currency memory currency)\n    public\n    view\n    returns (uint256)\n    {\n        uint256 index = proposalIndexByWalletCurrency[wallet][currency.ct][currency.id];\n        require(0 != index, \"No proposal found for wallet and currency [NullSettlementChallengeState.sol:440]\");\n        return proposals[index - 1].disqualification.nonce;\n    }\n\n    /// @notice Get the settlement proposal disqualification candidate hash of the given wallet and currency\n    /// @param wallet The address of the concerned wallet\n    /// @param currency The concerned currency\n    /// @return The settlement proposal disqualification candidate hash\n    function proposalDisqualificationCandidateHash(address wallet, MonetaryTypesLib.Currency memory currency)\n    public\n    view\n    returns (bytes32)\n    {\n        uint256 index = proposalIndexByWalletCurrency[wallet][currency.ct][currency.id];\n        require(0 != index, \"No proposal found for wallet and currency [NullSettlementChallengeState.sol:454]\");\n        return proposals[index - 1].disqualification.candidate.hash;\n    }\n\n    /// @notice Get the settlement proposal disqualification candidate kind of the given wallet and currency\n    /// @param wallet The address of the concerned wallet\n    /// @param currency The concerned currency\n    /// @return The settlement proposal disqualification candidate kind\n    function proposalDisqualificationCandidateKind(address wallet, MonetaryTypesLib.Currency memory currency)\n    public\n    view\n    returns (string memory)\n    {\n        uint256 index = proposalIndexByWalletCurrency[wallet][currency.ct][currency.id];\n        require(0 != index, \"No proposal found for wallet and currency [NullSettlementChallengeState.sol:468]\");\n        return proposals[index - 1].disqualification.candidate.kind;\n    }\n\n    /// @notice Upgrade proposal\n    /// @param proposal The concerned proposal\n    function upgradeProposal(SettlementChallengeTypesLib.Proposal memory proposal)\n    public\n    onlyWhenUpgrading\n    {\n        // Require that proposal has not been initialized/upgraded already\n        require(\n            0 == proposalIndexByWalletCurrency[proposal.wallet][proposal.currency.ct][proposal.currency.id],\n            \"Proposal exists for wallet and currency [NullSettlementChallengeState.sol:479]\"\n        );\n\n        // Push the settlement\n        proposals.push(proposal);\n\n        // Get the 1-based index\n        uint256 index = proposals.length;\n\n        // Update indices\n        proposalIndexByWalletCurrency[proposal.wallet][proposal.currency.ct][proposal.currency.id] = index;\n\n        // Emit event\n        emit UpgradeProposalEvent(proposal);\n    }\n\n\n    //\n    // Private functions\n    // -----------------------------------------------------------------------------------------------------------------\n    function _initiateProposal(address wallet, uint256 nonce, int256 stageAmount, int256 targetBalanceAmount,\n        MonetaryTypesLib.Currency memory currency, uint256 referenceBlockNumber, bool walletInitiated)\n    private\n    {\n        // Require that stage and target balance amounts are positive\n        require(stageAmount.isPositiveInt256(), \"Stage amount not positive [NullSettlementChallengeState.sol:506]\");\n        require(targetBalanceAmount.isPositiveInt256(), \"Target balance amount not positive [NullSettlementChallengeState.sol:507]\");\n\n        uint256 index = proposalIndexByWalletCurrency[wallet][currency.ct][currency.id];\n\n        // Create proposal if needed\n        if (0 == index) {\n            index = ++(proposals.length);\n            proposalIndexByWalletCurrency[wallet][currency.ct][currency.id] = index;\n        }\n\n        // Populate proposal\n        proposals[index - 1].wallet = wallet;\n        proposals[index - 1].nonce = nonce;\n        proposals[index - 1].referenceBlockNumber = referenceBlockNumber;\n        proposals[index - 1].definitionBlockNumber = block.number;\n        proposals[index - 1].expirationTime = block.timestamp.add(configuration.settlementChallengeTimeout());\n        proposals[index - 1].status = SettlementChallengeTypesLib.Status.Qualified;\n        proposals[index - 1].currency = currency;\n        proposals[index - 1].amounts.stage = stageAmount;\n        proposals[index - 1].amounts.targetBalance = targetBalanceAmount;\n        proposals[index - 1].walletInitiated = walletInitiated;\n        proposals[index - 1].terminated = false;\n    }\n\n    function _removeProposal(uint256 index)\n    private\n    returns (bool)\n    {\n        // Remove the proposal and clear references to it\n        proposalIndexByWalletCurrency[proposals[index - 1].wallet][proposals[index - 1].currency.ct][proposals[index - 1].currency.id] = 0;\n        if (index < proposals.length) {\n            proposals[index - 1] = proposals[proposals.length - 1];\n            proposalIndexByWalletCurrency[proposals[index - 1].wallet][proposals[index - 1].currency.ct][proposals[index - 1].currency.id] = index;\n        }\n        proposals.length--;\n    }\n\n    function _activeBalanceLogEntry(address wallet, address currencyCt, uint256 currencyId)\n    private\n    view\n    returns (int256 amount, uint256 blockNumber)\n    {\n        // Get last log record of deposited and settled balances\n        (int256 depositedAmount, uint256 depositedBlockNumber) = balanceTracker.lastFungibleRecord(\n            wallet, balanceTracker.depositedBalanceType(), currencyCt, currencyId\n        );\n        (int256 settledAmount, uint256 settledBlockNumber) = balanceTracker.lastFungibleRecord(\n            wallet, balanceTracker.settledBalanceType(), currencyCt, currencyId\n        );\n\n        // Set amount as the sum of deposited and settled\n        amount = depositedAmount.add(settledAmount);\n\n        // Set block number as the latest of deposited and settled\n        blockNumber = depositedBlockNumber > settledBlockNumber ? depositedBlockNumber : settledBlockNumber;\n    }\n}",
  "sourcePath": "/opt/buildagent/work/855e104608380c36/contracts/NullSettlementChallengeState.sol",
  "compiler": {
    "name": "solc",
    "version": "0.5.12+commit.7709ece9.Emscripten.clang"
  },
  "schemaVersion": "2.0.3",
  "updatedAt": "2019-10-23T00:21:41.159Z"
}