{
  "contractName": "NullSettlementChallengeByTrade",
  "abi": [
    {
      "inputs": [
        {
          "internalType": "address",
          "name": "deployer",
          "type": "address"
        }
      ],
      "payable": false,
      "stateMutability": "nonpayable",
      "type": "constructor"
    },
    {
      "anonymous": false,
      "inputs": [
        {
          "indexed": false,
          "internalType": "address",
          "name": "challengedWallet",
          "type": "address"
        },
        {
          "indexed": false,
          "internalType": "uint256",
          "name": "nonce",
          "type": "uint256"
        },
        {
          "indexed": false,
          "internalType": "int256",
          "name": "stageAmount",
          "type": "int256"
        },
        {
          "indexed": false,
          "internalType": "int256",
          "name": "targetBalanceAmount",
          "type": "int256"
        },
        {
          "indexed": false,
          "internalType": "address",
          "name": "currencyCt",
          "type": "address"
        },
        {
          "indexed": false,
          "internalType": "uint256",
          "name": "currencyId",
          "type": "uint256"
        },
        {
          "indexed": false,
          "internalType": "address",
          "name": "challengerWallet",
          "type": "address"
        }
      ],
      "name": "ChallengeByTradeEvent",
      "type": "event"
    },
    {
      "anonymous": false,
      "inputs": [],
      "name": "FreezeBalanceTrackerEvent",
      "type": "event"
    },
    {
      "anonymous": false,
      "inputs": [],
      "name": "FreezeWalletLockerEvent",
      "type": "event"
    },
    {
      "anonymous": false,
      "inputs": [
        {
          "indexed": false,
          "internalType": "address",
          "name": "wallet",
          "type": "address"
        }
      ],
      "name": "SelfDestructionDisabledEvent",
      "type": "event"
    },
    {
      "anonymous": false,
      "inputs": [
        {
          "indexed": false,
          "internalType": "contract BalanceTracker",
          "name": "oldBalanceTracker",
          "type": "address"
        },
        {
          "indexed": false,
          "internalType": "contract BalanceTracker",
          "name": "newBalanceTracker",
          "type": "address"
        }
      ],
      "name": "SetBalanceTrackerEvent",
      "type": "event"
    },
    {
      "anonymous": false,
      "inputs": [
        {
          "indexed": false,
          "internalType": "contract Configuration",
          "name": "oldConfiguration",
          "type": "address"
        },
        {
          "indexed": false,
          "internalType": "contract Configuration",
          "name": "newConfiguration",
          "type": "address"
        }
      ],
      "name": "SetConfigurationEvent",
      "type": "event"
    },
    {
      "anonymous": false,
      "inputs": [
        {
          "indexed": false,
          "internalType": "address",
          "name": "oldDeployer",
          "type": "address"
        },
        {
          "indexed": false,
          "internalType": "address",
          "name": "newDeployer",
          "type": "address"
        }
      ],
      "name": "SetDeployerEvent",
      "type": "event"
    },
    {
      "anonymous": false,
      "inputs": [
        {
          "indexed": false,
          "internalType": "contract DriipSettlementChallengeState",
          "name": "oldDriipSettlementChallengeState",
          "type": "address"
        },
        {
          "indexed": false,
          "internalType": "contract DriipSettlementChallengeState",
          "name": "newDriipSettlementChallengeState",
          "type": "address"
        }
      ],
      "name": "SetDriipSettlementChallengeStateEvent",
      "type": "event"
    },
    {
      "anonymous": false,
      "inputs": [
        {
          "indexed": false,
          "internalType": "contract NullSettlementChallengeState",
          "name": "oldNullSettlementChallengeState",
          "type": "address"
        },
        {
          "indexed": false,
          "internalType": "contract NullSettlementChallengeState",
          "name": "newNullSettlementChallengeState",
          "type": "address"
        }
      ],
      "name": "SetNullSettlementChallengeStateEvent",
      "type": "event"
    },
    {
      "anonymous": false,
      "inputs": [
        {
          "indexed": false,
          "internalType": "contract NullSettlementDisputeByTrade",
          "name": "oldNullSettlementDisputeByTrade",
          "type": "address"
        },
        {
          "indexed": false,
          "internalType": "contract NullSettlementDisputeByTrade",
          "name": "newNullSettlementDisputeByTrade",
          "type": "address"
        }
      ],
      "name": "SetNullSettlementDisputeByTradeEvent",
      "type": "event"
    },
    {
      "anonymous": false,
      "inputs": [
        {
          "indexed": false,
          "internalType": "address",
          "name": "oldOperator",
          "type": "address"
        },
        {
          "indexed": false,
          "internalType": "address",
          "name": "newOperator",
          "type": "address"
        }
      ],
      "name": "SetOperatorEvent",
      "type": "event"
    },
    {
      "anonymous": false,
      "inputs": [
        {
          "indexed": false,
          "internalType": "contract ValidatorV2",
          "name": "oldValidator",
          "type": "address"
        },
        {
          "indexed": false,
          "internalType": "contract ValidatorV2",
          "name": "newValidator",
          "type": "address"
        }
      ],
      "name": "SetValidatorEvent",
      "type": "event"
    },
    {
      "anonymous": false,
      "inputs": [
        {
          "indexed": false,
          "internalType": "contract WalletLocker",
          "name": "oldWalletLocker",
          "type": "address"
        },
        {
          "indexed": false,
          "internalType": "contract WalletLocker",
          "name": "newWalletLocker",
          "type": "address"
        }
      ],
      "name": "SetWalletLockerEvent",
      "type": "event"
    },
    {
      "anonymous": false,
      "inputs": [
        {
          "indexed": false,
          "internalType": "address",
          "name": "proxy",
          "type": "address"
        },
        {
          "indexed": false,
          "internalType": "address",
          "name": "wallet",
          "type": "address"
        },
        {
          "indexed": false,
          "internalType": "int256",
          "name": "amount",
          "type": "int256"
        },
        {
          "indexed": false,
          "internalType": "address",
          "name": "stageCurrencyCt",
          "type": "address"
        },
        {
          "indexed": false,
          "internalType": "uint256",
          "name": "stageCurrencyId",
          "type": "uint256"
        }
      ],
      "name": "StartChallengeByProxyEvent",
      "type": "event"
    },
    {
      "anonymous": false,
      "inputs": [
        {
          "indexed": false,
          "internalType": "address",
          "name": "wallet",
          "type": "address"
        },
        {
          "indexed": false,
          "internalType": "int256",
          "name": "amount",
          "type": "int256"
        },
        {
          "indexed": false,
          "internalType": "address",
          "name": "stageCurrencyCt",
          "type": "address"
        },
        {
          "indexed": false,
          "internalType": "uint256",
          "name": "stageCurrencyId",
          "type": "uint256"
        }
      ],
      "name": "StartChallengeEvent",
      "type": "event"
    },
    {
      "anonymous": false,
      "inputs": [
        {
          "indexed": false,
          "internalType": "address",
          "name": "proxy",
          "type": "address"
        },
        {
          "indexed": false,
          "internalType": "address",
          "name": "wallet",
          "type": "address"
        },
        {
          "indexed": false,
          "internalType": "address",
          "name": "currencyCt",
          "type": "address"
        },
        {
          "indexed": false,
          "internalType": "uint256",
          "name": "currencyId",
          "type": "uint256"
        }
      ],
      "name": "StopChallengeByProxyEvent",
      "type": "event"
    },
    {
      "anonymous": false,
      "inputs": [
        {
          "indexed": false,
          "internalType": "address",
          "name": "wallet",
          "type": "address"
        },
        {
          "indexed": false,
          "internalType": "address",
          "name": "currencyCt",
          "type": "address"
        },
        {
          "indexed": false,
          "internalType": "uint256",
          "name": "currencyId",
          "type": "uint256"
        }
      ],
      "name": "StopChallengeEvent",
      "type": "event"
    },
    {
      "anonymous": false,
      "inputs": [
        {
          "indexed": false,
          "internalType": "address",
          "name": "wallet",
          "type": "address"
        }
      ],
      "name": "TriggerSelfDestructionEvent",
      "type": "event"
    },
    {
      "constant": true,
      "inputs": [],
      "name": "balanceTracker",
      "outputs": [
        {
          "internalType": "contract BalanceTracker",
          "name": "",
          "type": "address"
        }
      ],
      "payable": false,
      "stateMutability": "view",
      "type": "function"
    },
    {
      "constant": true,
      "inputs": [],
      "name": "balanceTrackerFrozen",
      "outputs": [
        {
          "internalType": "bool",
          "name": "",
          "type": "bool"
        }
      ],
      "payable": false,
      "stateMutability": "view",
      "type": "function"
    },
    {
      "constant": true,
      "inputs": [],
      "name": "configuration",
      "outputs": [
        {
          "internalType": "contract Configuration",
          "name": "",
          "type": "address"
        }
      ],
      "payable": false,
      "stateMutability": "view",
      "type": "function"
    },
    {
      "constant": true,
      "inputs": [],
      "name": "deployer",
      "outputs": [
        {
          "internalType": "address",
          "name": "",
          "type": "address"
        }
      ],
      "payable": false,
      "stateMutability": "view",
      "type": "function"
    },
    {
      "constant": true,
      "inputs": [],
      "name": "destructor",
      "outputs": [
        {
          "internalType": "address",
          "name": "",
          "type": "address"
        }
      ],
      "payable": false,
      "stateMutability": "view",
      "type": "function"
    },
    {
      "constant": false,
      "inputs": [],
      "name": "disableSelfDestruction",
      "outputs": [],
      "payable": false,
      "stateMutability": "nonpayable",
      "type": "function"
    },
    {
      "constant": true,
      "inputs": [],
      "name": "driipSettlementChallengeState",
      "outputs": [
        {
          "internalType": "contract DriipSettlementChallengeState",
          "name": "",
          "type": "address"
        }
      ],
      "payable": false,
      "stateMutability": "view",
      "type": "function"
    },
    {
      "constant": false,
      "inputs": [],
      "name": "freezeBalanceTracker",
      "outputs": [],
      "payable": false,
      "stateMutability": "nonpayable",
      "type": "function"
    },
    {
      "constant": false,
      "inputs": [],
      "name": "freezeWalletLocker",
      "outputs": [],
      "payable": false,
      "stateMutability": "nonpayable",
      "type": "function"
    },
    {
      "constant": true,
      "inputs": [],
      "name": "nullSettlementChallengeState",
      "outputs": [
        {
          "internalType": "contract NullSettlementChallengeState",
          "name": "",
          "type": "address"
        }
      ],
      "payable": false,
      "stateMutability": "view",
      "type": "function"
    },
    {
      "constant": true,
      "inputs": [],
      "name": "nullSettlementDisputeByTrade",
      "outputs": [
        {
          "internalType": "contract NullSettlementDisputeByTrade",
          "name": "",
          "type": "address"
        }
      ],
      "payable": false,
      "stateMutability": "view",
      "type": "function"
    },
    {
      "constant": true,
      "inputs": [],
      "name": "operator",
      "outputs": [
        {
          "internalType": "address",
          "name": "",
          "type": "address"
        }
      ],
      "payable": false,
      "stateMutability": "view",
      "type": "function"
    },
    {
      "constant": true,
      "inputs": [],
      "name": "selfDestructionDisabled",
      "outputs": [
        {
          "internalType": "bool",
          "name": "",
          "type": "bool"
        }
      ],
      "payable": false,
      "stateMutability": "view",
      "type": "function"
    },
    {
      "constant": false,
      "inputs": [
        {
          "internalType": "contract BalanceTracker",
          "name": "newBalanceTracker",
          "type": "address"
        }
      ],
      "name": "setBalanceTracker",
      "outputs": [],
      "payable": false,
      "stateMutability": "nonpayable",
      "type": "function"
    },
    {
      "constant": false,
      "inputs": [
        {
          "internalType": "contract Configuration",
          "name": "newConfiguration",
          "type": "address"
        }
      ],
      "name": "setConfiguration",
      "outputs": [],
      "payable": false,
      "stateMutability": "nonpayable",
      "type": "function"
    },
    {
      "constant": false,
      "inputs": [
        {
          "internalType": "address",
          "name": "newDeployer",
          "type": "address"
        }
      ],
      "name": "setDeployer",
      "outputs": [],
      "payable": false,
      "stateMutability": "nonpayable",
      "type": "function"
    },
    {
      "constant": false,
      "inputs": [
        {
          "internalType": "address",
          "name": "newOperator",
          "type": "address"
        }
      ],
      "name": "setOperator",
      "outputs": [],
      "payable": false,
      "stateMutability": "nonpayable",
      "type": "function"
    },
    {
      "constant": false,
      "inputs": [
        {
          "internalType": "contract ValidatorV2",
          "name": "newValidator",
          "type": "address"
        }
      ],
      "name": "setValidator",
      "outputs": [],
      "payable": false,
      "stateMutability": "nonpayable",
      "type": "function"
    },
    {
      "constant": false,
      "inputs": [
        {
          "internalType": "contract WalletLocker",
          "name": "newWalletLocker",
          "type": "address"
        }
      ],
      "name": "setWalletLocker",
      "outputs": [],
      "payable": false,
      "stateMutability": "nonpayable",
      "type": "function"
    },
    {
      "constant": false,
      "inputs": [],
      "name": "triggerSelfDestruction",
      "outputs": [],
      "payable": false,
      "stateMutability": "nonpayable",
      "type": "function"
    },
    {
      "constant": true,
      "inputs": [],
      "name": "validator",
      "outputs": [
        {
          "internalType": "contract ValidatorV2",
          "name": "",
          "type": "address"
        }
      ],
      "payable": false,
      "stateMutability": "view",
      "type": "function"
    },
    {
      "constant": true,
      "inputs": [],
      "name": "walletLocker",
      "outputs": [
        {
          "internalType": "contract WalletLocker",
          "name": "",
          "type": "address"
        }
      ],
      "payable": false,
      "stateMutability": "view",
      "type": "function"
    },
    {
      "constant": true,
      "inputs": [],
      "name": "walletLockerFrozen",
      "outputs": [
        {
          "internalType": "bool",
          "name": "",
          "type": "bool"
        }
      ],
      "payable": false,
      "stateMutability": "view",
      "type": "function"
    },
    {
      "constant": false,
      "inputs": [
        {
          "internalType": "contract NullSettlementDisputeByTrade",
          "name": "newNullSettlementDisputeByTrade",
          "type": "address"
        }
      ],
      "name": "setNullSettlementDisputeByTrade",
      "outputs": [],
      "payable": false,
      "stateMutability": "nonpayable",
      "type": "function"
    },
    {
      "constant": false,
      "inputs": [
        {
          "internalType": "contract NullSettlementChallengeState",
          "name": "newNullSettlementChallengeState",
          "type": "address"
        }
      ],
      "name": "setNullSettlementChallengeState",
      "outputs": [],
      "payable": false,
      "stateMutability": "nonpayable",
      "type": "function"
    },
    {
      "constant": false,
      "inputs": [
        {
          "internalType": "contract DriipSettlementChallengeState",
          "name": "newDriipSettlementChallengeState",
          "type": "address"
        }
      ],
      "name": "setDriipSettlementChallengeState",
      "outputs": [],
      "payable": false,
      "stateMutability": "nonpayable",
      "type": "function"
    },
    {
      "constant": false,
      "inputs": [
        {
          "internalType": "int256",
          "name": "amount",
          "type": "int256"
        },
        {
          "internalType": "address",
          "name": "currencyCt",
          "type": "address"
        },
        {
          "internalType": "uint256",
          "name": "currencyId",
          "type": "uint256"
        }
      ],
      "name": "startChallenge",
      "outputs": [],
      "payable": false,
      "stateMutability": "nonpayable",
      "type": "function"
    },
    {
      "constant": false,
      "inputs": [
        {
          "internalType": "address",
          "name": "wallet",
          "type": "address"
        },
        {
          "internalType": "int256",
          "name": "amount",
          "type": "int256"
        },
        {
          "internalType": "address",
          "name": "currencyCt",
          "type": "address"
        },
        {
          "internalType": "uint256",
          "name": "currencyId",
          "type": "uint256"
        }
      ],
      "name": "startChallengeByProxy",
      "outputs": [],
      "payable": false,
      "stateMutability": "nonpayable",
      "type": "function"
    },
    {
      "constant": false,
      "inputs": [
        {
          "internalType": "address",
          "name": "currencyCt",
          "type": "address"
        },
        {
          "internalType": "uint256",
          "name": "currencyId",
          "type": "uint256"
        }
      ],
      "name": "stopChallenge",
      "outputs": [],
      "payable": false,
      "stateMutability": "nonpayable",
      "type": "function"
    },
    {
      "constant": false,
      "inputs": [
        {
          "internalType": "address",
          "name": "wallet",
          "type": "address"
        },
        {
          "internalType": "address",
          "name": "currencyCt",
          "type": "address"
        },
        {
          "internalType": "uint256",
          "name": "currencyId",
          "type": "uint256"
        }
      ],
      "name": "stopChallengeByProxy",
      "outputs": [],
      "payable": false,
      "stateMutability": "nonpayable",
      "type": "function"
    },
    {
      "constant": true,
      "inputs": [
        {
          "internalType": "address",
          "name": "wallet",
          "type": "address"
        },
        {
          "internalType": "address",
          "name": "currencyCt",
          "type": "address"
        },
        {
          "internalType": "uint256",
          "name": "currencyId",
          "type": "uint256"
        }
      ],
      "name": "hasProposalExpired",
      "outputs": [
        {
          "internalType": "bool",
          "name": "",
          "type": "bool"
        }
      ],
      "payable": false,
      "stateMutability": "view",
      "type": "function"
    },
    {
      "constant": true,
      "inputs": [
        {
          "internalType": "address",
          "name": "wallet",
          "type": "address"
        },
        {
          "internalType": "address",
          "name": "currencyCt",
          "type": "address"
        },
        {
          "internalType": "uint256",
          "name": "currencyId",
          "type": "uint256"
        }
      ],
      "name": "proposalNonce",
      "outputs": [
        {
          "internalType": "uint256",
          "name": "",
          "type": "uint256"
        }
      ],
      "payable": false,
      "stateMutability": "view",
      "type": "function"
    },
    {
      "constant": true,
      "inputs": [
        {
          "internalType": "address",
          "name": "wallet",
          "type": "address"
        },
        {
          "internalType": "address",
          "name": "currencyCt",
          "type": "address"
        },
        {
          "internalType": "uint256",
          "name": "currencyId",
          "type": "uint256"
        }
      ],
      "name": "proposalReferenceBlockNumber",
      "outputs": [
        {
          "internalType": "uint256",
          "name": "",
          "type": "uint256"
        }
      ],
      "payable": false,
      "stateMutability": "view",
      "type": "function"
    },
    {
      "constant": true,
      "inputs": [
        {
          "internalType": "address",
          "name": "wallet",
          "type": "address"
        },
        {
          "internalType": "address",
          "name": "currencyCt",
          "type": "address"
        },
        {
          "internalType": "uint256",
          "name": "currencyId",
          "type": "uint256"
        }
      ],
      "name": "proposalExpirationTime",
      "outputs": [
        {
          "internalType": "uint256",
          "name": "",
          "type": "uint256"
        }
      ],
      "payable": false,
      "stateMutability": "view",
      "type": "function"
    },
    {
      "constant": true,
      "inputs": [
        {
          "internalType": "address",
          "name": "wallet",
          "type": "address"
        },
        {
          "internalType": "address",
          "name": "currencyCt",
          "type": "address"
        },
        {
          "internalType": "uint256",
          "name": "currencyId",
          "type": "uint256"
        }
      ],
      "name": "proposalStatus",
      "outputs": [
        {
          "internalType": "enum SettlementChallengeTypesLib.Status",
          "name": "",
          "type": "uint8"
        }
      ],
      "payable": false,
      "stateMutability": "view",
      "type": "function"
    },
    {
      "constant": true,
      "inputs": [
        {
          "internalType": "address",
          "name": "wallet",
          "type": "address"
        },
        {
          "internalType": "address",
          "name": "currencyCt",
          "type": "address"
        },
        {
          "internalType": "uint256",
          "name": "currencyId",
          "type": "uint256"
        }
      ],
      "name": "proposalStageAmount",
      "outputs": [
        {
          "internalType": "int256",
          "name": "",
          "type": "int256"
        }
      ],
      "payable": false,
      "stateMutability": "view",
      "type": "function"
    },
    {
      "constant": true,
      "inputs": [
        {
          "internalType": "address",
          "name": "wallet",
          "type": "address"
        },
        {
          "internalType": "address",
          "name": "currencyCt",
          "type": "address"
        },
        {
          "internalType": "uint256",
          "name": "currencyId",
          "type": "uint256"
        }
      ],
      "name": "proposalTargetBalanceAmount",
      "outputs": [
        {
          "internalType": "int256",
          "name": "",
          "type": "int256"
        }
      ],
      "payable": false,
      "stateMutability": "view",
      "type": "function"
    },
    {
      "constant": true,
      "inputs": [
        {
          "internalType": "address",
          "name": "wallet",
          "type": "address"
        },
        {
          "internalType": "address",
          "name": "currencyCt",
          "type": "address"
        },
        {
          "internalType": "uint256",
          "name": "currencyId",
          "type": "uint256"
        }
      ],
      "name": "proposalWalletInitiated",
      "outputs": [
        {
          "internalType": "bool",
          "name": "",
          "type": "bool"
        }
      ],
      "payable": false,
      "stateMutability": "view",
      "type": "function"
    },
    {
      "constant": true,
      "inputs": [
        {
          "internalType": "address",
          "name": "wallet",
          "type": "address"
        },
        {
          "internalType": "address",
          "name": "currencyCt",
          "type": "address"
        },
        {
          "internalType": "uint256",
          "name": "currencyId",
          "type": "uint256"
        }
      ],
      "name": "proposalDisqualificationChallenger",
      "outputs": [
        {
          "internalType": "address",
          "name": "",
          "type": "address"
        }
      ],
      "payable": false,
      "stateMutability": "view",
      "type": "function"
    },
    {
      "constant": true,
      "inputs": [
        {
          "internalType": "address",
          "name": "wallet",
          "type": "address"
        },
        {
          "internalType": "address",
          "name": "currencyCt",
          "type": "address"
        },
        {
          "internalType": "uint256",
          "name": "currencyId",
          "type": "uint256"
        }
      ],
      "name": "proposalDisqualificationBlockNumber",
      "outputs": [
        {
          "internalType": "uint256",
          "name": "",
          "type": "uint256"
        }
      ],
      "payable": false,
      "stateMutability": "view",
      "type": "function"
    },
    {
      "constant": true,
      "inputs": [
        {
          "internalType": "address",
          "name": "wallet",
          "type": "address"
        },
        {
          "internalType": "address",
          "name": "currencyCt",
          "type": "address"
        },
        {
          "internalType": "uint256",
          "name": "currencyId",
          "type": "uint256"
        }
      ],
      "name": "proposalDisqualificationCandidateKind",
      "outputs": [
        {
          "internalType": "string",
          "name": "",
          "type": "string"
        }
      ],
      "payable": false,
      "stateMutability": "view",
      "type": "function"
    },
    {
      "constant": true,
      "inputs": [
        {
          "internalType": "address",
          "name": "wallet",
          "type": "address"
        },
        {
          "internalType": "address",
          "name": "currencyCt",
          "type": "address"
        },
        {
          "internalType": "uint256",
          "name": "currencyId",
          "type": "uint256"
        }
      ],
      "name": "proposalDisqualificationCandidateHash",
      "outputs": [
        {
          "internalType": "bytes32",
          "name": "",
          "type": "bytes32"
        }
      ],
      "payable": false,
      "stateMutability": "view",
      "type": "function"
    },
    {
      "constant": false,
      "inputs": [
        {
          "internalType": "address",
          "name": "wallet",
          "type": "address"
        },
        {
          "components": [
            {
              "internalType": "uint256",
              "name": "nonce",
              "type": "uint256"
            },
            {
              "internalType": "int256",
              "name": "amount",
              "type": "int256"
            },
            {
              "components": [
                {
                  "components": [
                    {
                      "internalType": "address",
                      "name": "ct",
                      "type": "address"
                    },
                    {
                      "internalType": "uint256",
                      "name": "id",
                      "type": "uint256"
                    }
                  ],
                  "internalType": "struct MonetaryTypesLib.Currency",
                  "name": "intended",
                  "type": "tuple"
                },
                {
                  "components": [
                    {
                      "internalType": "address",
                      "name": "ct",
                      "type": "address"
                    },
                    {
                      "internalType": "uint256",
                      "name": "id",
                      "type": "uint256"
                    }
                  ],
                  "internalType": "struct MonetaryTypesLib.Currency",
                  "name": "conjugate",
                  "type": "tuple"
                }
              ],
              "internalType": "struct NahmiiTypesLib.IntendedConjugateCurrency",
              "name": "currencies",
              "type": "tuple"
            },
            {
              "internalType": "int256",
              "name": "rate",
              "type": "int256"
            },
            {
              "components": [
                {
                  "internalType": "uint256",
                  "name": "nonce",
                  "type": "uint256"
                },
                {
                  "internalType": "address",
                  "name": "wallet",
                  "type": "address"
                },
                {
                  "internalType": "uint256",
                  "name": "rollingVolume",
                  "type": "uint256"
                },
                {
                  "internalType": "enum TradeTypesLib.LiquidityRole",
                  "name": "liquidityRole",
                  "type": "uint8"
                },
                {
                  "components": [
                    {
                      "internalType": "int256",
                      "name": "amount",
                      "type": "int256"
                    },
                    {
                      "components": [
                        {
                          "internalType": "bytes32",
                          "name": "wallet",
                          "type": "bytes32"
                        },
                        {
                          "internalType": "bytes32",
                          "name": "operator",
                          "type": "bytes32"
                        }
                      ],
                      "internalType": "struct NahmiiTypesLib.WalletOperatorHashes",
                      "name": "hashes",
                      "type": "tuple"
                    },
                    {
                      "components": [
                        {
                          "internalType": "int256",
                          "name": "current",
                          "type": "int256"
                        },
                        {
                          "internalType": "int256",
                          "name": "previous",
                          "type": "int256"
                        }
                      ],
                      "internalType": "struct NahmiiTypesLib.CurrentPreviousInt256",
                      "name": "residuals",
                      "type": "tuple"
                    }
                  ],
                  "internalType": "struct TradeTypesLib.TradeOrder",
                  "name": "order",
                  "type": "tuple"
                },
                {
                  "components": [
                    {
                      "components": [
                        {
                          "internalType": "int256",
                          "name": "current",
                          "type": "int256"
                        },
                        {
                          "internalType": "int256",
                          "name": "previous",
                          "type": "int256"
                        }
                      ],
                      "internalType": "struct NahmiiTypesLib.CurrentPreviousInt256",
                      "name": "intended",
                      "type": "tuple"
                    },
                    {
                      "components": [
                        {
                          "internalType": "int256",
                          "name": "current",
                          "type": "int256"
                        },
                        {
                          "internalType": "int256",
                          "name": "previous",
                          "type": "int256"
                        }
                      ],
                      "internalType": "struct NahmiiTypesLib.CurrentPreviousInt256",
                      "name": "conjugate",
                      "type": "tuple"
                    }
                  ],
                  "internalType": "struct NahmiiTypesLib.IntendedConjugateCurrentPreviousInt256",
                  "name": "balances",
                  "type": "tuple"
                },
                {
                  "components": [
                    {
                      "components": [
                        {
                          "internalType": "int256",
                          "name": "amount",
                          "type": "int256"
                        },
                        {
                          "components": [
                            {
                              "internalType": "address",
                              "name": "ct",
                              "type": "address"
                            },
                            {
                              "internalType": "uint256",
                              "name": "id",
                              "type": "uint256"
                            }
                          ],
                          "internalType": "struct MonetaryTypesLib.Currency",
                          "name": "currency",
                          "type": "tuple"
                        }
                      ],
                      "internalType": "struct MonetaryTypesLib.Figure",
                      "name": "single",
                      "type": "tuple"
                    },
                    {
                      "components": [
                        {
                          "internalType": "uint256",
                          "name": "originId",
                          "type": "uint256"
                        },
                        {
                          "components": [
                            {
                              "internalType": "int256",
                              "name": "amount",
                              "type": "int256"
                            },
                            {
                              "components": [
                                {
                                  "internalType": "address",
                                  "name": "ct",
                                  "type": "address"
                                },
                                {
                                  "internalType": "uint256",
                                  "name": "id",
                                  "type": "uint256"
                                }
                              ],
                              "internalType": "struct MonetaryTypesLib.Currency",
                              "name": "currency",
                              "type": "tuple"
                            }
                          ],
                          "internalType": "struct MonetaryTypesLib.Figure",
                          "name": "figure",
                          "type": "tuple"
                        }
                      ],
                      "internalType": "struct NahmiiTypesLib.OriginFigure[]",
                      "name": "total",
                      "type": "tuple[]"
                    }
                  ],
                  "internalType": "struct NahmiiTypesLib.SingleFigureTotalOriginFigures",
                  "name": "fees",
                  "type": "tuple"
                }
              ],
              "internalType": "struct TradeTypesLib.TradeParty",
              "name": "buyer",
              "type": "tuple"
            },
            {
              "components": [
                {
                  "internalType": "uint256",
                  "name": "nonce",
                  "type": "uint256"
                },
                {
                  "internalType": "address",
                  "name": "wallet",
                  "type": "address"
                },
                {
                  "internalType": "uint256",
                  "name": "rollingVolume",
                  "type": "uint256"
                },
                {
                  "internalType": "enum TradeTypesLib.LiquidityRole",
                  "name": "liquidityRole",
                  "type": "uint8"
                },
                {
                  "components": [
                    {
                      "internalType": "int256",
                      "name": "amount",
                      "type": "int256"
                    },
                    {
                      "components": [
                        {
                          "internalType": "bytes32",
                          "name": "wallet",
                          "type": "bytes32"
                        },
                        {
                          "internalType": "bytes32",
                          "name": "operator",
                          "type": "bytes32"
                        }
                      ],
                      "internalType": "struct NahmiiTypesLib.WalletOperatorHashes",
                      "name": "hashes",
                      "type": "tuple"
                    },
                    {
                      "components": [
                        {
                          "internalType": "int256",
                          "name": "current",
                          "type": "int256"
                        },
                        {
                          "internalType": "int256",
                          "name": "previous",
                          "type": "int256"
                        }
                      ],
                      "internalType": "struct NahmiiTypesLib.CurrentPreviousInt256",
                      "name": "residuals",
                      "type": "tuple"
                    }
                  ],
                  "internalType": "struct TradeTypesLib.TradeOrder",
                  "name": "order",
                  "type": "tuple"
                },
                {
                  "components": [
                    {
                      "components": [
                        {
                          "internalType": "int256",
                          "name": "current",
                          "type": "int256"
                        },
                        {
                          "internalType": "int256",
                          "name": "previous",
                          "type": "int256"
                        }
                      ],
                      "internalType": "struct NahmiiTypesLib.CurrentPreviousInt256",
                      "name": "intended",
                      "type": "tuple"
                    },
                    {
                      "components": [
                        {
                          "internalType": "int256",
                          "name": "current",
                          "type": "int256"
                        },
                        {
                          "internalType": "int256",
                          "name": "previous",
                          "type": "int256"
                        }
                      ],
                      "internalType": "struct NahmiiTypesLib.CurrentPreviousInt256",
                      "name": "conjugate",
                      "type": "tuple"
                    }
                  ],
                  "internalType": "struct NahmiiTypesLib.IntendedConjugateCurrentPreviousInt256",
                  "name": "balances",
                  "type": "tuple"
                },
                {
                  "components": [
                    {
                      "components": [
                        {
                          "internalType": "int256",
                          "name": "amount",
                          "type": "int256"
                        },
                        {
                          "components": [
                            {
                              "internalType": "address",
                              "name": "ct",
                              "type": "address"
                            },
                            {
                              "internalType": "uint256",
                              "name": "id",
                              "type": "uint256"
                            }
                          ],
                          "internalType": "struct MonetaryTypesLib.Currency",
                          "name": "currency",
                          "type": "tuple"
                        }
                      ],
                      "internalType": "struct MonetaryTypesLib.Figure",
                      "name": "single",
                      "type": "tuple"
                    },
                    {
                      "components": [
                        {
                          "internalType": "uint256",
                          "name": "originId",
                          "type": "uint256"
                        },
                        {
                          "components": [
                            {
                              "internalType": "int256",
                              "name": "amount",
                              "type": "int256"
                            },
                            {
                              "components": [
                                {
                                  "internalType": "address",
                                  "name": "ct",
                                  "type": "address"
                                },
                                {
                                  "internalType": "uint256",
                                  "name": "id",
                                  "type": "uint256"
                                }
                              ],
                              "internalType": "struct MonetaryTypesLib.Currency",
                              "name": "currency",
                              "type": "tuple"
                            }
                          ],
                          "internalType": "struct MonetaryTypesLib.Figure",
                          "name": "figure",
                          "type": "tuple"
                        }
                      ],
                      "internalType": "struct NahmiiTypesLib.OriginFigure[]",
                      "name": "total",
                      "type": "tuple[]"
                    }
                  ],
                  "internalType": "struct NahmiiTypesLib.SingleFigureTotalOriginFigures",
                  "name": "fees",
                  "type": "tuple"
                }
              ],
              "internalType": "struct TradeTypesLib.TradeParty",
              "name": "seller",
              "type": "tuple"
            },
            {
              "components": [
                {
                  "components": [
                    {
                      "internalType": "int256",
                      "name": "single",
                      "type": "int256"
                    },
                    {
                      "internalType": "int256",
                      "name": "total",
                      "type": "int256"
                    }
                  ],
                  "internalType": "struct NahmiiTypesLib.SingleTotalInt256",
                  "name": "intended",
                  "type": "tuple"
                },
                {
                  "components": [
                    {
                      "internalType": "int256",
                      "name": "single",
                      "type": "int256"
                    },
                    {
                      "internalType": "int256",
                      "name": "total",
                      "type": "int256"
                    }
                  ],
                  "internalType": "struct NahmiiTypesLib.SingleTotalInt256",
                  "name": "conjugate",
                  "type": "tuple"
                }
              ],
              "internalType": "struct NahmiiTypesLib.IntendedConjugateSingleTotalInt256",
              "name": "transfers",
              "type": "tuple"
            },
            {
              "components": [
                {
                  "internalType": "bytes32",
                  "name": "hash",
                  "type": "bytes32"
                },
                {
                  "components": [
                    {
                      "internalType": "bytes32",
                      "name": "r",
                      "type": "bytes32"
                    },
                    {
                      "internalType": "bytes32",
                      "name": "s",
                      "type": "bytes32"
                    },
                    {
                      "internalType": "uint8",
                      "name": "v",
                      "type": "uint8"
                    }
                  ],
                  "internalType": "struct NahmiiTypesLib.Signature",
                  "name": "signature",
                  "type": "tuple"
                }
              ],
              "internalType": "struct NahmiiTypesLib.Seal",
              "name": "seal",
              "type": "tuple"
            },
            {
              "internalType": "uint256",
              "name": "blockNumber",
              "type": "uint256"
            },
            {
              "internalType": "uint256",
              "name": "operatorId",
              "type": "uint256"
            }
          ],
          "internalType": "struct TradeTypesLib.Trade",
          "name": "trade",
          "type": "tuple"
        }
      ],
      "name": "challengeByTrade",
      "outputs": [],
      "payable": false,
      "stateMutability": "nonpayable",
      "type": "function"
    }
  ],
  "bytecode": "0x60806040523480156200001157600080fd5b5060405162003671380380620036718339810160408190526200003491620000b3565b80806001600160a01b0381166200004a57600080fd5b6001600160a01b0381163014156200006157600080fd5b5060008054610100600160a81b0319166101006001600160a01b0393909316928302179055600180546001600160a01b03191690911790555062000108565b8051620000ad81620000ee565b92915050565b600060208284031215620000c657600080fd5b6000620000d48484620000a0565b949350505050565b60006001600160a01b038216620000ad565b620000f981620000dc565b81146200010557600080fd5b50565b61355980620001186000396000f3fe608060405234801561001057600080fd5b50600436106101f95760003560e01c80630712abb0146101fe5780631327d3d814610227578063169879291461023c578063191390921461025c578063240625d8146102715780632738a112146102865780632aa1c9d91461028e5780632f013a00146102a157806339fc1571146102a95780633a5381b5146102b15780633bebdcb5146102b95780633e59b706146102cc57806342cb4587146102d45780634476d23b146102e757806349c56d49146102fc57806351d7cd611461030f578063570ca73514610317578063598b75ad1461031f5780635dc60def14610332578063627f09c31461033a5780636c70bee91461034d5780636ccb43c8146103555780636de6a5d21461036857806370327ea11461037b5780637da5b11c1461038357806387a9417c14610396578063892860b2146103a957806396214735146103bc578063972fcee0146103cf578063adfb6778146103e2578063b3ab15fb146103f5578063b52d470a14610408578063c19df1e414610410578063c1c6816514610423578063ca7f47ed14610436578063cdbf941914610456578063d5b68c6214610469578063d5f394881461047c578063e8ae41e314610484578063f7b876171461048c578063fa7424f21461049f578063fb1a825e146104a7578063fcd30b02146104ba575b600080fd5b61021161020c366004612812565b6104cd565b60405161021e91906132ff565b60405180910390f35b61023a61023536600461297d565b610570565b005b61024f61024a366004612812565b610611565b60405161021e91906132c8565b6102646106aa565b60405161021e91906132d6565b6102796106b9565b60405161021e91906132ba565b61023a6106c9565b61023a61029c36600461297d565b61072f565b6102796107b6565b6102646107bf565b6102646107ce565b6102796102c7366004612812565b6107dd565b610279610876565b61024f6102e2366004612812565b610886565b6102ef6108cf565b60405161021e919061307a565b61023a61030a3660046128c0565b6108e3565b610264610bcc565b6102ef610bdb565b61023a61032d36600461297d565b610bea565b61023a610ca5565b61023a61034836600461297d565b610cf4565b610264610d85565b61023a61036336600461297d565b610d94565b61024f610376366004612812565b610e0e565b61023a610e57565b610279610391366004612812565b610eba565b61023a6103a436600461297d565b610f03565b61023a6103b736600461297d565b610f7d565b61023a6103ca3660046127ce565b611038565b61023a6103dd366004612812565b6110ee565b61024f6103f0366004612812565b61115d565b61023a6104033660046127ce565b6111a6565b61023a611249565b61023a61041e366004612911565b611298565b61023a6104313660046129b9565b611300565b610449610444366004612812565b6113fc565b60405161021e919061330d565b61024f610464366004612812565b611499565b61024f610477366004612812565b6114e2565b6102ef61152b565b61026461153f565b61023a61049a36600461285f565b61154e565b6102646115ce565b61024f6104b5366004612812565b6115dd565b6102ef6104c8366004612812565b611626565b6007546040805180820182526001600160a01b03858116825260208201859052915163b6e2fc3360e01b8152600093929092169163b6e2fc339161051691889190600401613183565b60206040518083038186803b15801561052e57600080fd5b505afa158015610542573d6000803e3d6000fd5b505050506040513d601f19601f82011682018060405250610566919081019061299b565b90505b9392505050565b6105786116bf565b61058157600080fd5b806001600160a01b03811661059557600080fd5b60035482906001600160a01b03908116908216811461060b57600380546001600160a01b038681166001600160a01b03198316179092556040519116907f1882af944a16549c3d4f60e3cd26f158b0c7aac3222cf32971fc21375ce05f609061060190839088906132e4565b60405180910390a1505b50505050565b6007546040805180820182526001600160a01b03858116825260208201859052915163c46fcd7560e01b8152600093929092169163c46fcd759161065a91889190600401613183565b60206040518083038186803b15801561067257600080fd5b505afa158015610686573d6000803e3d6000fd5b505050506040513d601f19601f82011682018060405250610566919081019061295f565b6004546001600160a01b031681565b600554600160a01b900460ff1681565b336106d26108cf565b6001600160a01b0316146106e557600080fd5b60005460ff16156106f557600080fd5b7f787a5d936e74f4b564b9153575886059829c78cd9927b1be5e0d976b317ef736336040516107249190613088565b60405180910390a133ff5b6107376116bf565b61074057600080fd5b806001600160a01b03811661075457600080fd5b600880546001600160a01b038481166001600160a01b031983161792839055604051918116927f4f7125332801996cdeaabf9cff1ac89ddf4b52c673558936affe853ab64a88da926107a992859216906132e4565b60405180910390a1505050565b60005460ff1681565b6006546001600160a01b031681565b6003546001600160a01b031681565b6007546040805180820182526001600160a01b038581168252602082018590529151635482c73560e01b81526000939290921691635482c7359161082691889190600401613183565b60206040518083038186803b15801561083e57600080fd5b505afa158015610852573d6000803e3d6000fd5b505050506040513d601f19601f820116820180604052506105669190810190612941565b600454600160a01b900460ff1681565b6007546040805180820182526001600160a01b038581168252602082018590529151633007230f60e11b8152600093929092169163600e461e9161065a91889190600401613183565b60005461010090046001600160a01b031690565b600260009054906101000a90046001600160a01b03166001600160a01b031663f71e860f6040518163ffffffff1660e01b815260040160206040518083038186803b15801561093157600080fd5b505afa158015610945573d6000803e3d6000fd5b505050506040513d601f19601f820116820180604052506109699190810190612941565b61098e5760405162461bcd60e51b81526004016109859061331e565b60405180910390fd5b600654604051639227260760e01b81526001600160a01b03909116906392272607906109c2908590859033906004016131c6565b600060405180830381600087803b1580156109dc57600080fd5b505af11580156109f0573d6000803e3d6000fd5b505050506109fc612212565b610a0682846116d5565b600754604051632ee2ed2560e01b81529192507f2dc333e55326fb4fcb01f57d3fc5a4bf14b6e944d15052c161e0a7947f20bd9b9185916001600160a01b031690632ee2ed2590610a5d9084908790600401613183565b60206040518083038186803b158015610a7557600080fd5b505afa158015610a89573d6000803e3d6000fd5b505050506040513d601f19601f82011682018060405250610aad919081019061295f565b600754604051633007230f60e11b81526001600160a01b039091169063600e461e90610adf9089908890600401613183565b60206040518083038186803b158015610af757600080fd5b505afa158015610b0b573d6000803e3d6000fd5b505050506040513d601f19601f82011682018060405250610b2f919081019061295f565b60075460405163c46fcd7560e01b81526001600160a01b039091169063c46fcd7590610b61908a908990600401613183565b60206040518083038186803b158015610b7957600080fd5b505afa158015610b8d573d6000803e3d6000fd5b505050506040513d601f19601f82011682018060405250610bb1919081019061295f565b855160208701516040516107a99695949392919033906131f5565b6008546001600160a01b031681565b6001546001600160a01b031681565b610bf26116bf565b610bfb57600080fd5b806001600160a01b038116610c0f57600080fd5b60045482906001600160a01b03908116908216811461060b57600454600160a01b900460ff1615610c525760405162461bcd60e51b81526004016109859061333e565b600480546001600160a01b038681166001600160a01b03198316179092556040519116907fb2a91d3a71b0c5bc7c083153b3474378e489506ba98bd4ddb1b9056fdc594bb59061060190839088906132e4565b610cad6116bf565b610cb657600080fd5b6005805460ff60a01b1916600160a01b1790556040517f56ec8900b9c4bf84f4b715a53068ca06961dd49084c07b481931e2c2045346e690600090a1565b610cfc6116bf565b610d0557600080fd5b806001600160a01b038116610d1957600080fd5b60025482906001600160a01b03908116908216811461060b57600280546001600160a01b038681166001600160a01b03198316179092556040519116907f634f61bf00e14adedce330c80c2823e16e184f189ebe853e1ddecc4a268477ff9061060190839088906132e4565b6002546001600160a01b031681565b610d9c6116bf565b610da557600080fd5b806001600160a01b038116610db957600080fd5b600780546001600160a01b038481166001600160a01b031983161792839055604051918116927ff21c127205310467822e10c64b2d9ffae588e019194d6af71f2bdddc0b7ef526926107a992859216906132e4565b6007546040805180820182526001600160a01b03858116825260208201859052915163374852cb60e11b81526000939290921691636e90a5969161065a91889190600401613183565b33610e606108cf565b6001600160a01b031614610e7357600080fd5b6000805460ff191660011790556040517fd5a2a04a775c741c2ca0dc46ea7ce4835190e1aaf1ca018def0e82568ec3361690610eb0903390613088565b60405180910390a1565b6007546040805180820182526001600160a01b0385811682526020820185905291516333ca4eab60e21b8152600093929092169163cf293aac9161082691889190600401613183565b610f0b6116bf565b610f1457600080fd5b806001600160a01b038116610f2857600080fd5b600680546001600160a01b038481166001600160a01b031983161792839055604051918116927f2445b990fd10a27ce0493f9946388c02f768b079f2aa51240584b616128e9282926107a992859216906132e4565b610f856116bf565b610f8e57600080fd5b806001600160a01b038116610fa257600080fd5b60055482906001600160a01b03908116908216811461060b57600554600160a01b900460ff1615610fe55760405162461bcd60e51b81526004016109859061336e565b600580546001600160a01b038681166001600160a01b03198316179092556040519116907fa44d361e26327b72a7ccbeae801b3c5cd7677ea4fa74168b289e273c46bfecfc9061060190839088906132e4565b6110406116bf565b61104957600080fd5b806001600160a01b03811661105d57600080fd5b6001600160a01b03811630141561107357600080fd5b6000546001600160a01b0383811661010090920416146110ea57600080546001600160a01b03848116610100908102610100600160a81b03198416179093556040519290910416907f977e5fa58e458501775e0008d275006294c5249e3c08d1d0e3a9f3acad14f6e4906107a9908390869061315a565b5050565b6110f6611781565b6110ff57600080fd5b611128836040518060400160405280856001600160a01b03168152602001848152506000611792565b7f5d5800b5b4d9de839f4e933323589d790e5cc56733d895c8af8a69c8e1d830ca338484846040516107a99493929190613096565b6007546040805180820182526001600160a01b038581168252602082018590529151631b90e3c160e01b81526000939290921691631b90e3c19161065a91889190600401613183565b6111ae611781565b6111b757600080fd5b806001600160a01b0381166111cb57600080fd5b6001600160a01b0381163014156111e157600080fd5b6001546001600160a01b038381169116146110ea57600180546001600160a01b038481166001600160a01b03198316179092556040519116907f9f611b789425d0d5b90b920f1b2852907dd865c80074a30b1629aaa041d1812c906107a9908390869061315a565b6112516116bf565b61125a57600080fd5b6004805460ff60a01b1916600160a01b1790556040517f9c567b65fe8caab5ec7bc979a498a1322c1d4baf01a30727cbca137187560ea290600090a1565b6112c1336040518060400160405280856001600160a01b03168152602001848152506001611792565b7fc495387f762dad3340f9d4869758066c81d4592e6d13edc66792fe718d887d8f3383836040516112f493929190613117565b60405180910390a15050565b600554604051631293efbb60e21b81526001600160a01b0390911690634a4fbeec90611330903390600401613088565b60206040518083038186803b15801561134857600080fd5b505afa15801561135c573d6000803e3d6000fd5b505050506040513d601f19601f820116820180604052506113809190810190612941565b1561139d5760405162461bcd60e51b81526004016109859061334e565b6113c733846040518060400160405280866001600160a01b031681526020018581525060016117fd565b7f3ea6a5f0533a257a4d3b7d514288450c5601dd58e5017bc15c7e32d6cf1ae039338484846040516107a9949392919061313f565b6007546040805180820182526001600160a01b03858116825260208201859052915163160ed0cd60e11b81526060939290921691632c1da19a9161144591889190600401613183565b60006040518083038186803b15801561145d57600080fd5b505afa158015611471573d6000803e3d6000fd5b505050506040513d6000823e601f3d908101601f191682016040526105669190810190612a0a565b6007546040805180820182526001600160a01b038581168252602082018590529151632ee2ed2560e01b81526000939290921691632ee2ed259161065a91889190600401613183565b6007546040805180820182526001600160a01b0385811682526020820185905291516345a76a6160e11b81526000939290921691638b4ed4c29161065a91889190600401613183565b60005461010090046001600160a01b031681565b6005546001600160a01b031681565b611556611781565b61155f57600080fd5b61158984846040518060400160405280866001600160a01b031681526020018581525060006117fd565b7f5c2e5356cead72ecdf07d7e8b0d17de67df6aac7550613234585f8e5cf7c407633858585856040516115c09594939291906130cb565b60405180910390a150505050565b6007546001600160a01b031681565b6007546040805180820182526001600160a01b0385811682526020820185905291516356ec907560e01b815260009392909216916356ec90759161065a91889190600401613183565b6007546040805180820182526001600160a01b038581168252602082018590529151635658722960e01b8152600093929092169163565872299161166f91889190600401613183565b60206040518083038186803b15801561168757600080fd5b505afa15801561169b573d6000803e3d6000fd5b505050506040513d601f19601f8201168201806040525061056691908101906127f4565b60005461010090046001600160a01b0316331490565b6116dd612212565b60035460405163059057d760e01b81526001600160a01b039091169063059057d79061170f908690869060040161337e565b60206040518083038186803b15801561172757600080fd5b505afa15801561173b573d6000803e3d6000fd5b505050506040513d601f19601f8201168201806040525061175f9190810190612941565b61176e57604083015151611778565b8260400151602001515b90505b92915050565b6001546001600160a01b0316331490565b60075460405163524ad18360e11b81526001600160a01b039091169063a495a306906117c69086908690869060040161319e565b600060405180830381600087803b1580156117e057600080fd5b505af11580156117f4573d6000803e3d6000fd5b50505050505050565b600260009054906101000a90046001600160a01b03166001600160a01b031663b6bf41766040518163ffffffff1660e01b815260040160206040518083038186803b15801561184b57600080fd5b505afa15801561185f573d6000803e3d6000fd5b505050506040513d601f19601f82011682018060405250611883919081019061295f565b4310156118a25760405162461bcd60e51b81526004016109859061335e565b60075460405163076470a560e31b81526001600160a01b0390911690633b238528906118d49087908690600401613183565b60206040518083038186803b1580156118ec57600080fd5b505afa158015611900573d6000803e3d6000fd5b505050506040513d601f19601f820116820180604052506119249190810190612941565b15806119ad5750600754604051635482c73560e01b81526001600160a01b0390911690635482c7359061195d9087908690600401613183565b60206040518083038186803b15801561197557600080fd5b505afa158015611989573d6000803e3d6000fd5b505050506040513d601f19601f820116820180604052506119ad9190810190612941565b6119c95760405162461bcd60e51b81526004016109859061332e565b60008060008060006119db8988611a8e565b600754949950929750909550935091506001600160a01b031663ba5152888a838b611a2c611a1f82611a138b8b63ffffffff611ef316565b9063ffffffff611ef316565b8b9063ffffffff611f2616565b8c8a8d6040518863ffffffff1660e01b8152600401611a51979695949392919061325d565b600060405180830381600087803b158015611a6b57600080fd5b505af1158015611a7f573d6000803e3d6000fd5b50505050505050505050505050565b6004546000908190819081908190611ab6906001600160a01b0316888863ffffffff611f6016565b60085460405163076470a560e31b81529297509095506001600160a01b031690633b23852890611aec908a908a90600401613183565b60206040518083038186803b158015611b0457600080fd5b505afa158015611b18573d6000803e3d6000fd5b505050506040513d601f19601f82011682018060405250611b3c9190810190612941565b15611d5457600854604051637ff81c3760e01b81526001600160a01b0390911690637ff81c3790611b73908a908a90600401613183565b60206040518083038186803b158015611b8b57600080fd5b505afa158015611b9f573d6000803e3d6000fd5b505050506040513d601f19601f82011682018060405250611bc39190810190612941565b611ccf57600854604051638ab3e96560e01b81526001600160a01b0390911690638ab3e96590611bf9908a908a90600401613183565b60206040518083038186803b158015611c1157600080fd5b505afa158015611c25573d6000803e3d6000fd5b505050506040513d601f19601f82011682018060405250611c49919081019061295f565b600854604051633007230f60e11b81529194506001600160a01b03169063600e461e90611c7c908a908a90600401613183565b60206040518083038186803b158015611c9457600080fd5b505afa158015611ca8573d6000803e3d6000fd5b505050506040513d601f19601f82011682018060405250611ccc919081019061295f565b91505b600854604051632ee2ed2560e01b81526001600160a01b0390911690632ee2ed2590611d01908a908a90600401613183565b60206040518083038186803b158015611d1957600080fd5b505afa158015611d2d573d6000803e3d6000fd5b505050506040513d601f19601f82011682018060405250611d51919081019061295f565b90505b60075460405163076470a560e31b81526001600160a01b0390911690633b23852890611d86908a908a90600401613183565b60206040518083038186803b158015611d9e57600080fd5b505afa158015611db2573d6000803e3d6000fd5b505050506040513d601f19601f82011682018060405250611dd69190810190612941565b15611ee957600754604051632ee2ed2560e01b815273__SafeMathUintLib_______________________9163a682d5ad9184916001600160a01b031690632ee2ed2590611e29908d908d90600401613183565b60206040518083038186803b158015611e4157600080fd5b505afa158015611e55573d6000803e3d6000fd5b505050506040513d601f19601f82011682018060405250611e79919081019061295f565b6040518363ffffffff1660e01b8152600401611e9692919061339e565b60206040518083038186803b158015611eae57600080fd5b505af4158015611ec2573d6000803e3d6000fd5b505050506040513d601f19601f82011682018060405250611ee6919081019061295f565b90505b9295509295909350565b6000828201818312801590611f085750838112155b80611f1d5750600083128015611f1d57508381125b61177857600080fd5b6000808212158015611f3a57508282840313155b80611f515750600082128015611f51575082828403135b611f5a57600080fd5b50900390565b600080600080866001600160a01b0316636f4a181587896001600160a01b031663ded113106040518163ffffffff1660e01b815260040160206040518083038186803b158015611faf57600080fd5b505afa158015611fc3573d6000803e3d6000fd5b505050506040513d601f19601f82011682018060405250611fe7919081019061295f565b885160208a01516040516001600160e01b031960e087901b1681526120129493929190600401613175565b604080518083038186803b15801561202957600080fd5b505afa15801561203d573d6000803e3d6000fd5b505050506040513d601f19601f8201168201806040525061206191908101906129da565b91509150600080886001600160a01b0316636f4a1815898b6001600160a01b0316634652ec746040518163ffffffff1660e01b815260040160206040518083038186803b1580156120b157600080fd5b505afa1580156120c5573d6000803e3d6000fd5b505050506040513d601f19601f820116820180604052506120e9919081019061295f565b8a5160208c01516040516001600160e01b031960e087901b1681526121149493929190600401613175565b604080518083038186803b15801561212b57600080fd5b505afa15801561213f573d6000803e3d6000fd5b505050506040513d601f19601f8201168201806040525061216391908101906129da565b9092509050612178848363ffffffff611ef316565b60405163a682d5ad60e01b815290965073__SafeMathUintLib_______________________9063a682d5ad906121b4908690859060040161339e565b60206040518083038186803b1580156121cc57600080fd5b505af41580156121e0573d6000803e3d6000fd5b505050506040513d601f19601f82011682018060405250612204919081019061295f565b945050505050935093915050565b604080518082019091526000808252602082015290565b803561177b816134d1565b805161177b816134d1565b600082601f83011261225057600080fd5b813561226361225e826133df565b6133b9565b9150818183526020840193506020810190508385608084028201111561228857600080fd5b60005b838110156122b6578161229e8882612473565b8452506020909201916080919091019060010161228b565b5050505092915050565b805161177b816134e5565b803561177b816134ee565b805161177b816134ee565b803561177b816134f7565b803561177b81613500565b805161177b81613500565b600082601f83011261231357600080fd5b815161232161225e826133ff565b9150808252602083016020830185838301111561233d57600080fd5b61234883828461348e565b50505092915050565b60006040828403121561236357600080fd5b61236d60406133b9565b9050600061237b8484612229565b825250602061238c848483016122cb565b60208301525092915050565b6000604082840312156123aa57600080fd5b6123b460406133b9565b9050600061237b84846122cb565b6000606082840312156123d457600080fd5b6123de60406133b9565b905060006123ec84846122cb565b825250602061238c84848301612351565b60006080828403121561240f57600080fd5b61241960406133b9565b905060006124278484612351565b825250604061238c84848301612351565b60006080828403121561244a57600080fd5b61245460406133b9565b905060006124628484612398565b825250604061238c84848301612398565b60006080828403121561248557600080fd5b61248f60406133b9565b9050600061249d84846122cb565b825250602061238c848483016123c2565b6000608082840312156124c057600080fd5b6124ca60406133b9565b905060006124d884846122cb565b825250602061238c848483016000606082840312156124f657600080fd5b61250060606133b9565b9050600061250e84846122cb565b825250602061251f848483016122cb565b6020830152506040612533848285016127c3565b60408301525092915050565b60006080828403121561255157600080fd5b61255b60406133b9565b9050600061256984846123c2565b82525060608201356001600160401b0381111561258557600080fd5b61238c8482850161223f565b600060a082840312156125a357600080fd5b6125ad60606133b9565b905060006125bb84846122cb565b82525060206125cc84848301612398565b602083015250606061253384828501612398565b60006101c082840312156125f357600080fd5b6125fd60e06133b9565b9050600061260b84846122cb565b825250602061261c84848301612229565b6020830152506040612630848285016122cb565b6040830152506060612644848285016122ec565b606083015250608061265884828501612591565b60808301525061012061266d84828501612438565b60a0830152506101a08201356001600160401b0381111561268d57600080fd5b6126998482850161253f565b60c08301525092915050565b600061026082840312156126b857600080fd5b6126c36101406133b9565b905060006126d184846122cb565b82525060206126e2848483016122cb565b60208301525060406126f6848285016123fd565b60408301525060c061270a848285016122cb565b60608301525060e08201356001600160401b0381111561272957600080fd5b612735848285016125e0565b6080830152506101008201356001600160401b0381111561275557600080fd5b612761848285016125e0565b60a08301525061012061277684828501612438565b60c0830152506101a061278b848285016124ae565b60e0830152506102206127a0848285016122cb565b610100830152506102406127b6848285016122cb565b6101208301525092915050565b803561177b8161350d565b6000602082840312156127e057600080fd5b60006127ec8484612229565b949350505050565b60006020828403121561280657600080fd5b60006127ec8484612234565b60008060006060848603121561282757600080fd5b60006128338686612229565b935050602061284486828701612229565b9250506040612855868287016122cb565b9150509250925092565b6000806000806080858703121561287557600080fd5b60006128818787612229565b9450506020612892878288016122cb565b93505060406128a387828801612229565b92505060606128b4878288016122cb565b91505092959194509250565b600080604083850312156128d357600080fd5b60006128df8585612229565b92505060208301356001600160401b038111156128fb57600080fd5b612907858286016126a5565b9150509250929050565b6000806040838503121561292457600080fd5b60006129308585612229565b9250506020612907858286016122cb565b60006020828403121561295357600080fd5b60006127ec84846122c0565b60006020828403121561297157600080fd5b60006127ec84846122d6565b60006020828403121561298f57600080fd5b60006127ec84846122e1565b6000602082840312156129ad57600080fd5b60006127ec84846122f7565b6000806000606084860312156129ce57600080fd5b600061283386866122cb565b600080604083850312156129ed57600080fd5b60006129f985856122d6565b9250506020612907858286016122d6565b600060208284031215612a1c57600080fd5b81516001600160401b03811115612a3257600080fd5b6127ec84828501612302565b6000612a4a8383612e20565b505060800190565b612a5b81613478565b82525050565b612a5b81613439565b6000612a758261342c565b612a7f8185613430565b9350612a8a83613426565b8060005b83811015612ab8578151612aa28882612a3e565b9750612aad83613426565b925050600101612a8e565b509495945050505050565b612a5b81613444565b612a5b81613449565b612a5b8161344c565b612a5b81613483565b6000612af28261342c565b612afc8185613430565b9350612b0c81856020860161348e565b612b15816134ba565b9093019392505050565b6000612b2c603f83613430565b7f4f7065726174696f6e616c206d6f6465206973206e6f74206e6f726d616c205b81527f436f6e666967757261626c654f7065726174696f6e616c2e736f6c3a32325d00602082015260400192915050565b6000612b8b605d83613430565b7f4f7665726c617070696e67206e756c6c20736574746c656d656e74206368616c81527f6c656e67652070726f706f73616c20666f756e64205b4e756c6c536574746c6560208201527f6d656e744368616c6c656e6765427954726164652e736f6c3a3338365d000000604082015260600192915050565b6000612c10603083613430565b7f42616c616e636520747261636b65722066726f7a656e205b42616c616e63655481526f7261636b61626c652e736f6c3a34335d60801b602082015260400192915050565b6000612c62602883613430565b7f5b4e756c6c536574746c656d656e744368616c6c656e6765427954726164652e815267736f6c3a3131355d60c01b602082015260400192915050565b6000612cac606483613430565b7f43757272656e7420626c6f636b206e756d6265722062656c6f77206561726c6981527f65737420736574746c656d656e7420626c6f636b206e756d626572205b4e756c60208201527f6c536574746c656d656e744368616c6c656e6765427954726164652e736f6c3a6040820152633338305d60e01b606082015260800192915050565b6000612d3e602c83613430565b7f57616c6c6574206c6f636b65722066726f7a656e205b57616c6c65744c6f636b81526b61626c652e736f6c3a34335d60a01b602082015260400192915050565b80516040830190612d908482612a61565b50602082015161060b6020850182612acc565b80516040830190612d908482612acc565b80516060830190612dc58482612acc565b50602082015161060b6020850182612d7f565b80516080830190612de98482612d7f565b50602082015161060b6040850182612d7f565b80516080830190612e0d8482612da3565b50602082015161060b6040850182612da3565b80516080830190612e318482612acc565b50602082015161060b6020850182612db4565b80516080830190612e558482612acc565b50602082015161060b602085018280516060830190612e748482612acc565b506020820151612e876020850182612acc565b50604082015161060b6040850182613071565b80516000906080840190612eae8582612db4565b5060208301518482036060860152612ec68282612a6a565b95945050505050565b805160a0830190612ee08482612acc565b506020820151612ef36020850182612da3565b50604082015161060b6060850182612da3565b80516000906101c0840190612f1b8582612acc565b506020830151612f2e6020860182612a61565b506040830151612f416040860182612acc565b506060830151612f546060860182612ade565b506080830151612f676080860182612ecf565b5060a0830151612f7b610120860182612dfc565b5060c08301518482036101a0860152612ec68282612e9a565b8051600090610260840190612fa98582612acc565b506020830151612fbc6020860182612acc565b506040830151612fcf6040860182612dd8565b506060830151612fe260c0860182612acc565b50608083015184820360e0860152612ffa8282612f06565b91505060a08301518482036101008601526130158282612f06565b91505060c083015161302b610120860182612dfc565b5060e083015161303f6101a0860182612e44565b50610100830151613054610220860182612acc565b50610120830151613069610240860182612acc565b509392505050565b612a5b81613472565b6020810161177b8284612a61565b6020810161177b8284612a52565b608081016130a48287612a52565b6130b16020830186612a61565b6130be6040830185612a61565b612ec66060830184612acc565b60a081016130d98288612a52565b6130e66020830187612a61565b6130f36040830186612acc565b6131006060830185612a61565b61310d6080830184612acc565b9695505050505050565b606081016131258286612a52565b6131326020830185612a61565b6127ec6040830184612acc565b6080810161314d8287612a52565b6130b16020830186612acc565b604081016131688285612a61565b6105696020830184612a61565b6080810161314d8287612a61565b606081016131918285612a61565b6105696020830184612d7f565b608081016131ac8286612a61565b6131b96020830185612d7f565b6127ec6060830184612ac3565b606081016131d48286612a61565b81810360208301526131e68185612f94565b90506127ec6040830184612a52565b60e08101613203828a612a61565b6132106020830189612acc565b61321d6040830188612acc565b61322a6060830187612acc565b6132376080830186612a61565b61324460a0830185612acc565b61325160c0830184612a52565b98975050505050505050565b610100810161326c828a612a61565b6132796020830189612acc565b6132866040830188612acc565b6132936060830187612acc565b6132a06080830186612d7f565b6132ad60c0830185612acc565b61325160e0830184612ac3565b6020810161177b8284612ac3565b6020810161177b8284612acc565b6020810161177b8284612ad5565b604081016132f28285612ad5565b6105696020830184612ad5565b6020810161177b8284612ade565b602080825281016117788184612ae7565b6020808252810161177b81612b1f565b6020808252810161177b81612b7e565b6020808252810161177b81612c03565b6020808252810161177b81612c55565b6020808252810161177b81612c9f565b6020808252810161177b81612d31565b6040808252810161338f8185612f94565b90506105696020830184612a61565b604081016133ac8285612acc565b6105696020830184612acc565b6040518181016001600160401b03811182821017156133d757600080fd5b604052919050565b60006001600160401b038211156133f557600080fd5b5060209081020190565b60006001600160401b0382111561341557600080fd5b506020601f91909101601f19160190565b60200190565b5190565b90815260200190565b600061177b82613466565b151590565b90565b600061177b82613439565b80613461816134c4565b919050565b6001600160a01b031690565b60ff1690565b600061177b8261344c565b600061177b82613457565b60005b838110156134a9578181015183820152602001613491565b8381111561060b5750506000910152565b601f01601f191690565b600281106134ce57fe5b50565b6134da81613439565b81146134ce57600080fd5b6134da81613444565b6134da81613449565b6134da8161344c565b600281106134ce57600080fd5b6134da8161347256fea365627a7a7231582057ca14ce8763b7384aa2c0270da6afec9b8a24ac0d98d76f210d6d05b63e5f3a6c6578706572696d656e74616cf564736f6c634300050c0040",
  "source": "/*\n * Hubii Nahmii\n *\n * Compliant with the Hubii Nahmii specification v0.12.\n *\n * Copyright (C) 2017-2018 Hubii AS\n */\n\npragma solidity >=0.4.25 <0.6.0;\npragma experimental ABIEncoderV2;\n\nimport {Ownable} from \"./Ownable.sol\";\nimport {ConfigurableOperational} from \"./ConfigurableOperational.sol\";\nimport {ValidatableV2} from \"./ValidatableV2.sol\";\nimport {BalanceTrackable} from \"./BalanceTrackable.sol\";\nimport {WalletLockable} from \"./WalletLockable.sol\";\nimport {SafeMathIntLib} from \"./SafeMathIntLib.sol\";\nimport {SafeMathUintLib} from \"./SafeMathUintLib.sol\";\nimport {NullSettlementDisputeByTrade} from \"./NullSettlementDisputeByTrade.sol\";\nimport {NullSettlementChallengeState} from \"./NullSettlementChallengeState.sol\";\nimport {DriipSettlementChallengeState} from \"./DriipSettlementChallengeState.sol\";\nimport {MonetaryTypesLib} from \"./MonetaryTypesLib.sol\";\nimport {TradeTypesLib} from \"./TradeTypesLib.sol\";\nimport {SettlementChallengeTypesLib} from \"./SettlementChallengeTypesLib.sol\";\nimport {BalanceTracker} from \"./BalanceTracker.sol\";\nimport {BalanceTrackerLib} from \"./BalanceTrackerLib.sol\";\n\n/**\n * @title NullSettlementChallengeByTrade\n * @notice Where null settlements pertaining to trade are started and disputed\n */\ncontract NullSettlementChallengeByTrade is Ownable, ConfigurableOperational, ValidatableV2, BalanceTrackable, WalletLockable {\n    using SafeMathIntLib for int256;\n    using SafeMathUintLib for uint256;\n    using BalanceTrackerLib for BalanceTracker;\n\n    //\n    // Variables\n    // -----------------------------------------------------------------------------------------------------------------\n    NullSettlementDisputeByTrade public nullSettlementDisputeByTrade;\n    NullSettlementChallengeState public nullSettlementChallengeState;\n    DriipSettlementChallengeState public driipSettlementChallengeState;\n\n    //\n    // Events\n    // -----------------------------------------------------------------------------------------------------------------\n    event SetNullSettlementDisputeByTradeEvent(NullSettlementDisputeByTrade oldNullSettlementDisputeByTrade,\n        NullSettlementDisputeByTrade newNullSettlementDisputeByTrade);\n    event SetNullSettlementChallengeStateEvent(NullSettlementChallengeState oldNullSettlementChallengeState,\n        NullSettlementChallengeState newNullSettlementChallengeState);\n    event SetDriipSettlementChallengeStateEvent(DriipSettlementChallengeState oldDriipSettlementChallengeState,\n        DriipSettlementChallengeState newDriipSettlementChallengeState);\n    event StartChallengeEvent(address wallet, int256 amount, address stageCurrencyCt,\n        uint stageCurrencyId);\n    event StartChallengeByProxyEvent(address proxy, address wallet, int256 amount,\n        address stageCurrencyCt, uint stageCurrencyId);\n    event StopChallengeEvent(address wallet, address currencyCt, uint256 currencyId);\n    event StopChallengeByProxyEvent(address proxy, address wallet, address currencyCt, uint256 currencyId);\n    event ChallengeByTradeEvent(address challengedWallet, uint256 nonce, int256 stageAmount,\n        int256 targetBalanceAmount, address currencyCt, uint256 currencyId, address challengerWallet);\n\n    //\n    // Constructor\n    // -----------------------------------------------------------------------------------------------------------------\n    constructor(address deployer) Ownable(deployer) public {\n    }\n\n    //\n    // Functions\n    // -----------------------------------------------------------------------------------------------------------------\n    /// @notice Set the settlement dispute contract\n    /// @param newNullSettlementDisputeByTrade The (address of) NullSettlementDisputeByTrade contract instance\n    function setNullSettlementDisputeByTrade(NullSettlementDisputeByTrade newNullSettlementDisputeByTrade)\n    public\n    onlyDeployer\n    notNullAddress(address(newNullSettlementDisputeByTrade))\n    {\n        NullSettlementDisputeByTrade oldNullSettlementDisputeByTrade = nullSettlementDisputeByTrade;\n        nullSettlementDisputeByTrade = newNullSettlementDisputeByTrade;\n        emit SetNullSettlementDisputeByTradeEvent(oldNullSettlementDisputeByTrade, nullSettlementDisputeByTrade);\n    }\n\n    /// @notice Set the settlement challenge state contract\n    /// @param newNullSettlementChallengeState The (address of) NullSettlementChallengeState contract instance\n    function setNullSettlementChallengeState(NullSettlementChallengeState newNullSettlementChallengeState)\n    public\n    onlyDeployer\n    notNullAddress(address(newNullSettlementChallengeState))\n    {\n        NullSettlementChallengeState oldNullSettlementChallengeState = nullSettlementChallengeState;\n        nullSettlementChallengeState = newNullSettlementChallengeState;\n        emit SetNullSettlementChallengeStateEvent(oldNullSettlementChallengeState, nullSettlementChallengeState);\n    }\n\n    /// @notice Set the driip settlement challenge state contract\n    /// @param newDriipSettlementChallengeState The (address of) DriipSettlementChallengeState contract instance\n    function setDriipSettlementChallengeState(DriipSettlementChallengeState newDriipSettlementChallengeState)\n    public\n    onlyDeployer\n    notNullAddress(address(newDriipSettlementChallengeState))\n    {\n        DriipSettlementChallengeState oldDriipSettlementChallengeState = driipSettlementChallengeState;\n        driipSettlementChallengeState = newDriipSettlementChallengeState;\n        emit SetDriipSettlementChallengeStateEvent(oldDriipSettlementChallengeState, driipSettlementChallengeState);\n    }\n\n    /// @notice Start settlement challenge\n    /// @param amount The concerned amount to stage\n    /// @param currencyCt The address of the concerned currency contract (address(0) == ETH)\n    /// @param currencyId The ID of the concerned currency (0 for ETH and ERC20)\n    function startChallenge(int256 amount, address currencyCt, uint256 currencyId)\n    public\n    {\n        // Require that wallet is not locked\n        require(!walletLocker.isLocked(msg.sender), \"[NullSettlementChallengeByTrade.sol:115]\");\n\n        // Start challenge for wallet\n        _startChallenge(msg.sender, amount, MonetaryTypesLib.Currency(currencyCt, currencyId), true);\n\n        // Emit event\n        emit StartChallengeEvent(msg.sender, amount, currencyCt, currencyId);\n    }\n\n    /// @notice Start settlement challenge for the given wallet\n    /// @param wallet The address of the concerned wallet\n    /// @param amount The concerned amount to stage\n    /// @param currencyCt The address of the concerned currency contract (address(0) == ETH)\n    /// @param currencyId The ID of the concerned currency (0 for ETH and ERC20)\n    function startChallengeByProxy(address wallet, int256 amount, address currencyCt, uint256 currencyId)\n    public\n    onlyOperator\n    {\n        // Start challenge for wallet\n        _startChallenge(wallet, amount, MonetaryTypesLib.Currency(currencyCt, currencyId), false);\n\n        // Emit event\n        emit StartChallengeByProxyEvent(msg.sender, wallet, amount, currencyCt, currencyId);\n    }\n\n    /// @notice Stop settlement challenge\n    /// @param currencyCt The address of the concerned currency contract (address(0) == ETH)\n    /// @param currencyId The ID of the concerned currency (0 for ETH and ERC20)\n    function stopChallenge(address currencyCt, uint256 currencyId)\n    public\n    {\n        // Stop challenge\n        _stopChallenge(msg.sender, MonetaryTypesLib.Currency(currencyCt, currencyId), true);\n\n        // Emit event\n        emit StopChallengeEvent(msg.sender, currencyCt, currencyId);\n    }\n\n    /// @notice Stop settlement challenge\n    /// @param wallet The concerned wallet\n    /// @param currencyCt The address of the concerned currency contract (address(0) == ETH)\n    /// @param currencyId The ID of the concerned currency (0 for ETH and ERC20)\n    function stopChallengeByProxy(address wallet, address currencyCt, uint256 currencyId)\n    public\n    onlyOperator\n    {\n        // Stop challenge\n        _stopChallenge(wallet, MonetaryTypesLib.Currency(currencyCt, currencyId), false);\n\n        // Emit event\n        emit StopChallengeByProxyEvent(msg.sender, wallet, currencyCt, currencyId);\n    }\n\n    /// @notice Gauge whether the proposal for the given wallet and currency has expired\n    /// @param wallet The address of the concerned wallet\n    /// @param currencyCt The address of the concerned currency contract (address(0) == ETH)\n    /// @param currencyId The ID of the concerned currency (0 for ETH and ERC20)\n    /// @return true if proposal has expired, else false\n    function hasProposalExpired(address wallet, address currencyCt, uint256 currencyId)\n    public\n    view\n    returns (bool)\n    {\n        return nullSettlementChallengeState.hasProposalExpired(\n            wallet, MonetaryTypesLib.Currency(currencyCt, currencyId)\n        );\n    }\n\n    /// @notice Get the challenge nonce of the given wallet\n    /// @param wallet The address of the concerned wallet\n    /// @param currencyCt The address of the concerned currency contract (address(0) == ETH)\n    /// @param currencyId The ID of the concerned currency (0 for ETH and ERC20)\n    /// @return The challenge nonce\n    function proposalNonce(address wallet, address currencyCt, uint256 currencyId)\n    public\n    view\n    returns (uint256)\n    {\n        return nullSettlementChallengeState.proposalNonce(\n            wallet, MonetaryTypesLib.Currency(currencyCt, currencyId)\n        );\n    }\n\n    /// @notice Get the settlement proposal block number of the given wallet\n    /// @param wallet The address of the concerned wallet\n    /// @param currencyCt The address of the concerned currency contract (address(0) == ETH)\n    /// @param currencyId The ID of the concerned currency (0 for ETH and ERC20)\n    /// @return The settlement proposal block number\n    function proposalReferenceBlockNumber(address wallet, address currencyCt, uint256 currencyId)\n    public\n    view\n    returns (uint256)\n    {\n        return nullSettlementChallengeState.proposalReferenceBlockNumber(\n            wallet, MonetaryTypesLib.Currency(currencyCt, currencyId)\n        );\n    }\n\n    /// @notice Get the settlement proposal end time of the given wallet\n    /// @param wallet The address of the concerned wallet\n    /// @param currencyCt The address of the concerned currency contract (address(0) == ETH)\n    /// @param currencyId The ID of the concerned currency (0 for ETH and ERC20)\n    /// @return The settlement proposal end time\n    function proposalExpirationTime(address wallet, address currencyCt, uint256 currencyId)\n    public\n    view\n    returns (uint256)\n    {\n        return nullSettlementChallengeState.proposalExpirationTime(\n            wallet, MonetaryTypesLib.Currency(currencyCt, currencyId)\n        );\n    }\n\n    /// @notice Get the challenge status of the given wallet\n    /// @param wallet The address of the concerned wallet\n    /// @param currencyCt The address of the concerned currency contract (address(0) == ETH)\n    /// @param currencyId The ID of the concerned currency (0 for ETH and ERC20)\n    /// @return The challenge status\n    function proposalStatus(address wallet, address currencyCt, uint256 currencyId)\n    public\n    view\n    returns (SettlementChallengeTypesLib.Status)\n    {\n        return nullSettlementChallengeState.proposalStatus(\n            wallet, MonetaryTypesLib.Currency(currencyCt, currencyId)\n        );\n    }\n\n    /// @notice Get the settlement proposal stage amount of the given wallet and currency\n    /// @param wallet The address of the concerned wallet\n    /// @param currencyCt The address of the concerned currency contract (address(0) == ETH)\n    /// @param currencyId The ID of the concerned currency (0 for ETH and ERC20)\n    /// @return The settlement proposal stage amount\n    function proposalStageAmount(address wallet, address currencyCt, uint256 currencyId)\n    public\n    view\n    returns (int256)\n    {\n        return nullSettlementChallengeState.proposalStageAmount(\n            wallet, MonetaryTypesLib.Currency(currencyCt, currencyId)\n        );\n    }\n\n    /// @notice Get the settlement proposal target balance amount of the given wallet and currency\n    /// @param wallet The address of the concerned wallet\n    /// @param currencyCt The address of the concerned currency contract (address(0) == ETH)\n    /// @param currencyId The ID of the concerned currency (0 for ETH and ERC20)\n    /// @return The settlement proposal target balance amount\n    function proposalTargetBalanceAmount(address wallet, address currencyCt, uint256 currencyId)\n    public\n    view\n    returns (int256)\n    {\n        return nullSettlementChallengeState.proposalTargetBalanceAmount(\n            wallet, MonetaryTypesLib.Currency(currencyCt, currencyId)\n        );\n    }\n\n    /// @notice Get the balance reward of the given wallet's settlement proposal\n    /// @param wallet The address of the concerned wallet\n    /// @param currencyCt The address of the concerned currency contract (address(0) == ETH)\n    /// @param currencyId The ID of the concerned currency (0 for ETH and ERC20)\n    /// @return The balance reward of the settlement proposal\n    function proposalWalletInitiated(address wallet, address currencyCt, uint256 currencyId)\n    public\n    view\n    returns (bool)\n    {\n        return nullSettlementChallengeState.proposalWalletInitiated(\n            wallet, MonetaryTypesLib.Currency(currencyCt, currencyId)\n        );\n    }\n\n    /// @notice Get the disqualification challenger of the given wallet and currency\n    /// @param wallet The address of the concerned wallet\n    /// @param currencyCt The address of the concerned currency contract (address(0) == ETH)\n    /// @param currencyId The ID of the concerned currency (0 for ETH and ERC20)\n    /// @return The challenger of the settlement disqualification\n    function proposalDisqualificationChallenger(address wallet, address currencyCt, uint256 currencyId)\n    public\n    view\n    returns (address)\n    {\n        return nullSettlementChallengeState.proposalDisqualificationChallenger(\n            wallet, MonetaryTypesLib.Currency(currencyCt, currencyId)\n        );\n    }\n\n    /// @notice Get the disqualification block number of the given wallet and currency\n    /// @param wallet The address of the concerned wallet\n    /// @param currencyCt The address of the concerned currency contract (address(0) == ETH)\n    /// @param currencyId The ID of the concerned currency (0 for ETH and ERC20)\n    /// @return The block number of the settlement disqualification\n    function proposalDisqualificationBlockNumber(address wallet, address currencyCt, uint256 currencyId)\n    public\n    view\n    returns (uint256)\n    {\n        return nullSettlementChallengeState.proposalDisqualificationBlockNumber(\n            wallet, MonetaryTypesLib.Currency(currencyCt, currencyId)\n        );\n    }\n\n    /// @notice Get the disqualification candidate kind of the given wallet and currency\n    /// @param wallet The address of the concerned wallet\n    /// @param currencyCt The address of the concerned currency contract (address(0) == ETH)\n    /// @param currencyId The ID of the concerned currency (0 for ETH and ERC20)\n    /// @return The candidate kind of the settlement disqualification\n    function proposalDisqualificationCandidateKind(address wallet, address currencyCt, uint256 currencyId)\n    public\n    view\n    returns (string memory)\n    {\n        return nullSettlementChallengeState.proposalDisqualificationCandidateKind(\n            wallet, MonetaryTypesLib.Currency(currencyCt, currencyId)\n        );\n    }\n\n    /// @notice Get the disqualification candidate hash of the given wallet and currency\n    /// @param wallet The address of the concerned wallet\n    /// @param currencyCt The address of the concerned currency contract (address(0) == ETH)\n    /// @param currencyId The ID of the concerned currency (0 for ETH and ERC20)\n    /// @return The candidate hash of the settlement disqualification\n    function proposalDisqualificationCandidateHash(address wallet, address currencyCt, uint256 currencyId)\n    public\n    view\n    returns (bytes32)\n    {\n        return nullSettlementChallengeState.proposalDisqualificationCandidateHash(\n            wallet, MonetaryTypesLib.Currency(currencyCt, currencyId)\n        );\n    }\n\n    /// @notice Challenge the settlement by providing trade candidate\n    /// @param wallet The wallet whose settlement is being challenged\n    /// @param trade The trade candidate that challenges the null\n    function challengeByTrade(address wallet, TradeTypesLib.Trade memory trade)\n    public\n    onlyOperationalModeNormal\n    {\n        // Challenge by trade\n        nullSettlementDisputeByTrade.challengeByTrade(wallet, trade, msg.sender);\n\n        // Get concerned currency\n        MonetaryTypesLib.Currency memory currency = _tradeCurrency(trade, wallet);\n\n        // Emit event\n        emit ChallengeByTradeEvent(\n            wallet,\n            nullSettlementChallengeState.proposalNonce(wallet, currency),\n            nullSettlementChallengeState.proposalStageAmount(wallet, currency),\n            nullSettlementChallengeState.proposalTargetBalanceAmount(wallet, currency),\n            currency.ct, currency.id,\n            msg.sender\n        );\n    }\n\n    //\n    // Private functions\n    // -----------------------------------------------------------------------------------------------------------------\n    function _startChallenge(address wallet, int256 stageAmount, MonetaryTypesLib.Currency memory currency,\n        bool walletInitiated)\n    private\n    {\n        // Require that current block number is beyond the earliest settlement challenge block number\n        require(\n            block.number >= configuration.earliestSettlementBlockNumber(),\n            \"Current block number below earliest settlement block number [NullSettlementChallengeByTrade.sol:380]\"\n        );\n\n        // Require that there is no ongoing overlapping null settlement challenge\n        require(\n            !nullSettlementChallengeState.hasProposal(wallet, currency) ||\n        nullSettlementChallengeState.hasProposalExpired(wallet, currency),\n            \"Overlapping null settlement challenge proposal found [NullSettlementChallengeByTrade.sol:386]\"\n        );\n\n        // Get the last logged active balance amount and block number, properties of overlapping DSC\n        // and the baseline nonce\n        (\n        int256 activeBalanceAmount, uint256 activeBalanceBlockNumber,\n        int256 dscCumulativeTransferAmount, int256 dscStageAmount,\n        uint256 nonce\n        ) = _externalProperties(\n            wallet, currency\n        );\n\n        // Initiate proposal, including assurance that there is no overlap with active proposal\n        // Target balance amount is calculated as current balance - DSC cumulativeTransferAmount - DSC stage amount - NSC stageAmount\n        nullSettlementChallengeState.initiateProposal(\n            wallet, nonce, stageAmount,\n            activeBalanceAmount.sub(\n                dscCumulativeTransferAmount.add(dscStageAmount).add(stageAmount)\n            ),\n            currency,\n            activeBalanceBlockNumber, walletInitiated\n        );\n    }\n\n    function _stopChallenge(address wallet, MonetaryTypesLib.Currency memory currency, bool walletTerminated)\n    private\n    {\n        // Terminate proposal\n        nullSettlementChallengeState.terminateProposal(wallet, currency, walletTerminated);\n    }\n\n    function _externalProperties(address wallet, MonetaryTypesLib.Currency memory currency)\n    private\n    view\n    returns (\n        int256 activeBalanceAmount, uint256 activeBalanceBlockNumber,\n        int256 dscCumulativeTransferAmount, int256 dscStageAmount,\n        uint256 nonce\n    ) {\n        (activeBalanceAmount, activeBalanceBlockNumber) = balanceTracker.fungibleActiveRecord(\n            wallet, currency\n        );\n\n        if (driipSettlementChallengeState.hasProposal(wallet, currency)) {\n            if (!driipSettlementChallengeState.hasProposalTerminated(wallet, currency)) {\n                dscCumulativeTransferAmount = driipSettlementChallengeState.proposalCumulativeTransferAmount(wallet, currency);\n                dscStageAmount = driipSettlementChallengeState.proposalStageAmount(wallet, currency);\n            }\n\n            nonce = driipSettlementChallengeState.proposalNonce(wallet, currency);\n        }\n\n        if (nullSettlementChallengeState.hasProposal(wallet, currency))\n            nonce = nonce.clampMin(nullSettlementChallengeState.proposalNonce(wallet, currency));\n    }\n\n    // Get the candidate trade currency\n    // Wallet is buyer in (candidate) trade -> Conjugate currency\n    // Wallet is seller in (candidate) trade -> Intended currency\n    function _tradeCurrency(TradeTypesLib.Trade memory trade, address wallet)\n    private\n    view\n    returns (MonetaryTypesLib.Currency memory)\n    {\n        return validator.isTradeBuyer(trade, wallet) ?\n        trade.currencies.conjugate :\n        trade.currencies.intended;\n    }\n}",
  "sourcePath": "/opt/buildagent/work/855e104608380c36/contracts/NullSettlementChallengeByTrade.sol",
  "compiler": {
    "name": "solc",
    "version": "0.5.12+commit.7709ece9.Emscripten.clang"
  },
  "schemaVersion": "2.0.3",
  "updatedAt": "2019-10-23T00:21:41.092Z"
}