{
  "contractName": "NullSettlementState",
  "abi": [
    {
      "inputs": [
        {
          "internalType": "address",
          "name": "deployer",
          "type": "address"
        }
      ],
      "payable": false,
      "stateMutability": "nonpayable",
      "type": "constructor"
    },
    {
      "anonymous": false,
      "inputs": [
        {
          "indexed": false,
          "internalType": "address",
          "name": "service",
          "type": "address"
        }
      ],
      "name": "DeregisterServiceEvent",
      "type": "event"
    },
    {
      "anonymous": false,
      "inputs": [
        {
          "indexed": false,
          "internalType": "address",
          "name": "service",
          "type": "address"
        },
        {
          "indexed": false,
          "internalType": "string",
          "name": "action",
          "type": "string"
        }
      ],
      "name": "DisableServiceActionEvent",
      "type": "event"
    },
    {
      "anonymous": false,
      "inputs": [
        {
          "indexed": false,
          "internalType": "address",
          "name": "service",
          "type": "address"
        },
        {
          "indexed": false,
          "internalType": "string",
          "name": "action",
          "type": "string"
        }
      ],
      "name": "EnableServiceActionEvent",
      "type": "event"
    },
    {
      "anonymous": false,
      "inputs": [],
      "name": "FreezeCommunityVoteEvent",
      "type": "event"
    },
    {
      "anonymous": false,
      "inputs": [
        {
          "indexed": false,
          "internalType": "address",
          "name": "service",
          "type": "address"
        },
        {
          "indexed": false,
          "internalType": "uint256",
          "name": "timeout",
          "type": "uint256"
        }
      ],
      "name": "RegisterServiceDeferredEvent",
      "type": "event"
    },
    {
      "anonymous": false,
      "inputs": [
        {
          "indexed": false,
          "internalType": "address",
          "name": "service",
          "type": "address"
        }
      ],
      "name": "RegisterServiceEvent",
      "type": "event"
    },
    {
      "anonymous": false,
      "inputs": [
        {
          "indexed": false,
          "internalType": "address",
          "name": "wallet",
          "type": "address"
        }
      ],
      "name": "SelfDestructionDisabledEvent",
      "type": "event"
    },
    {
      "anonymous": false,
      "inputs": [
        {
          "indexed": false,
          "internalType": "uint256",
          "name": "timeoutInSeconds",
          "type": "uint256"
        }
      ],
      "name": "ServiceActivationTimeoutEvent",
      "type": "event"
    },
    {
      "anonymous": false,
      "inputs": [
        {
          "indexed": false,
          "internalType": "contract CommunityVote",
          "name": "oldCommunityVote",
          "type": "address"
        },
        {
          "indexed": false,
          "internalType": "contract CommunityVote",
          "name": "newCommunityVote",
          "type": "address"
        }
      ],
      "name": "SetCommunityVoteEvent",
      "type": "event"
    },
    {
      "anonymous": false,
      "inputs": [
        {
          "indexed": false,
          "internalType": "address",
          "name": "oldDeployer",
          "type": "address"
        },
        {
          "indexed": false,
          "internalType": "address",
          "name": "newDeployer",
          "type": "address"
        }
      ],
      "name": "SetDeployerEvent",
      "type": "event"
    },
    {
      "anonymous": false,
      "inputs": [
        {
          "indexed": false,
          "internalType": "address",
          "name": "wallet",
          "type": "address"
        },
        {
          "components": [
            {
              "internalType": "address",
              "name": "ct",
              "type": "address"
            },
            {
              "internalType": "uint256",
              "name": "id",
              "type": "uint256"
            }
          ],
          "indexed": false,
          "internalType": "struct MonetaryTypesLib.Currency",
          "name": "currency",
          "type": "tuple"
        },
        {
          "indexed": false,
          "internalType": "uint256",
          "name": "maxNonce",
          "type": "uint256"
        }
      ],
      "name": "SetMaxNonceByWalletAndCurrencyEvent",
      "type": "event"
    },
    {
      "anonymous": false,
      "inputs": [
        {
          "indexed": false,
          "internalType": "uint256",
          "name": "maxNullNonce",
          "type": "uint256"
        }
      ],
      "name": "SetMaxNullNonceEvent",
      "type": "event"
    },
    {
      "anonymous": false,
      "inputs": [
        {
          "indexed": false,
          "internalType": "address",
          "name": "oldOperator",
          "type": "address"
        },
        {
          "indexed": false,
          "internalType": "address",
          "name": "newOperator",
          "type": "address"
        }
      ],
      "name": "SetOperatorEvent",
      "type": "event"
    },
    {
      "anonymous": false,
      "inputs": [
        {
          "indexed": false,
          "internalType": "address",
          "name": "wallet",
          "type": "address"
        }
      ],
      "name": "TriggerSelfDestructionEvent",
      "type": "event"
    },
    {
      "anonymous": false,
      "inputs": [
        {
          "indexed": false,
          "internalType": "uint256",
          "name": "maxNullNonce",
          "type": "uint256"
        }
      ],
      "name": "UpdateMaxNullNonceFromCommunityVoteEvent",
      "type": "event"
    },
    {
      "constant": true,
      "inputs": [],
      "name": "SET_MAX_NONCE_ACTION",
      "outputs": [
        {
          "internalType": "string",
          "name": "",
          "type": "string"
        }
      ],
      "payable": false,
      "stateMutability": "view",
      "type": "function"
    },
    {
      "constant": true,
      "inputs": [],
      "name": "SET_MAX_NULL_NONCE_ACTION",
      "outputs": [
        {
          "internalType": "string",
          "name": "",
          "type": "string"
        }
      ],
      "payable": false,
      "stateMutability": "view",
      "type": "function"
    },
    {
      "constant": true,
      "inputs": [],
      "name": "communityVote",
      "outputs": [
        {
          "internalType": "contract CommunityVote",
          "name": "",
          "type": "address"
        }
      ],
      "payable": false,
      "stateMutability": "view",
      "type": "function"
    },
    {
      "constant": true,
      "inputs": [],
      "name": "communityVoteFrozen",
      "outputs": [
        {
          "internalType": "bool",
          "name": "",
          "type": "bool"
        }
      ],
      "payable": false,
      "stateMutability": "view",
      "type": "function"
    },
    {
      "constant": true,
      "inputs": [],
      "name": "deployer",
      "outputs": [
        {
          "internalType": "address",
          "name": "",
          "type": "address"
        }
      ],
      "payable": false,
      "stateMutability": "view",
      "type": "function"
    },
    {
      "constant": false,
      "inputs": [
        {
          "internalType": "address",
          "name": "service",
          "type": "address"
        }
      ],
      "name": "deregisterService",
      "outputs": [],
      "payable": false,
      "stateMutability": "nonpayable",
      "type": "function"
    },
    {
      "constant": true,
      "inputs": [],
      "name": "destructor",
      "outputs": [
        {
          "internalType": "address",
          "name": "",
          "type": "address"
        }
      ],
      "payable": false,
      "stateMutability": "view",
      "type": "function"
    },
    {
      "constant": false,
      "inputs": [],
      "name": "disableSelfDestruction",
      "outputs": [],
      "payable": false,
      "stateMutability": "nonpayable",
      "type": "function"
    },
    {
      "constant": false,
      "inputs": [
        {
          "internalType": "address",
          "name": "service",
          "type": "address"
        },
        {
          "internalType": "string",
          "name": "action",
          "type": "string"
        }
      ],
      "name": "disableServiceAction",
      "outputs": [],
      "payable": false,
      "stateMutability": "nonpayable",
      "type": "function"
    },
    {
      "constant": false,
      "inputs": [
        {
          "internalType": "address",
          "name": "service",
          "type": "address"
        },
        {
          "internalType": "string",
          "name": "action",
          "type": "string"
        }
      ],
      "name": "enableServiceAction",
      "outputs": [],
      "payable": false,
      "stateMutability": "nonpayable",
      "type": "function"
    },
    {
      "constant": false,
      "inputs": [],
      "name": "freezeCommunityVote",
      "outputs": [],
      "payable": false,
      "stateMutability": "nonpayable",
      "type": "function"
    },
    {
      "constant": true,
      "inputs": [
        {
          "internalType": "address",
          "name": "service",
          "type": "address"
        },
        {
          "internalType": "string",
          "name": "action",
          "type": "string"
        }
      ],
      "name": "isEnabledServiceAction",
      "outputs": [
        {
          "internalType": "bool",
          "name": "",
          "type": "bool"
        }
      ],
      "payable": false,
      "stateMutability": "view",
      "type": "function"
    },
    {
      "constant": true,
      "inputs": [
        {
          "internalType": "address",
          "name": "service",
          "type": "address"
        }
      ],
      "name": "isRegisteredActiveService",
      "outputs": [
        {
          "internalType": "bool",
          "name": "",
          "type": "bool"
        }
      ],
      "payable": false,
      "stateMutability": "view",
      "type": "function"
    },
    {
      "constant": true,
      "inputs": [
        {
          "internalType": "address",
          "name": "service",
          "type": "address"
        }
      ],
      "name": "isRegisteredService",
      "outputs": [
        {
          "internalType": "bool",
          "name": "",
          "type": "bool"
        }
      ],
      "payable": false,
      "stateMutability": "view",
      "type": "function"
    },
    {
      "constant": true,
      "inputs": [],
      "name": "maxNullNonce",
      "outputs": [
        {
          "internalType": "uint256",
          "name": "",
          "type": "uint256"
        }
      ],
      "payable": false,
      "stateMutability": "view",
      "type": "function"
    },
    {
      "constant": true,
      "inputs": [],
      "name": "operator",
      "outputs": [
        {
          "internalType": "address",
          "name": "",
          "type": "address"
        }
      ],
      "payable": false,
      "stateMutability": "view",
      "type": "function"
    },
    {
      "constant": false,
      "inputs": [
        {
          "internalType": "address",
          "name": "service",
          "type": "address"
        }
      ],
      "name": "registerService",
      "outputs": [],
      "payable": false,
      "stateMutability": "nonpayable",
      "type": "function"
    },
    {
      "constant": false,
      "inputs": [
        {
          "internalType": "address",
          "name": "service",
          "type": "address"
        }
      ],
      "name": "registerServiceDeferred",
      "outputs": [],
      "payable": false,
      "stateMutability": "nonpayable",
      "type": "function"
    },
    {
      "constant": true,
      "inputs": [],
      "name": "selfDestructionDisabled",
      "outputs": [
        {
          "internalType": "bool",
          "name": "",
          "type": "bool"
        }
      ],
      "payable": false,
      "stateMutability": "view",
      "type": "function"
    },
    {
      "constant": true,
      "inputs": [],
      "name": "serviceActivationTimeout",
      "outputs": [
        {
          "internalType": "uint256",
          "name": "",
          "type": "uint256"
        }
      ],
      "payable": false,
      "stateMutability": "view",
      "type": "function"
    },
    {
      "constant": false,
      "inputs": [
        {
          "internalType": "contract CommunityVote",
          "name": "newCommunityVote",
          "type": "address"
        }
      ],
      "name": "setCommunityVote",
      "outputs": [],
      "payable": false,
      "stateMutability": "nonpayable",
      "type": "function"
    },
    {
      "constant": false,
      "inputs": [
        {
          "internalType": "address",
          "name": "newDeployer",
          "type": "address"
        }
      ],
      "name": "setDeployer",
      "outputs": [],
      "payable": false,
      "stateMutability": "nonpayable",
      "type": "function"
    },
    {
      "constant": false,
      "inputs": [
        {
          "internalType": "address",
          "name": "newOperator",
          "type": "address"
        }
      ],
      "name": "setOperator",
      "outputs": [],
      "payable": false,
      "stateMutability": "nonpayable",
      "type": "function"
    },
    {
      "constant": false,
      "inputs": [
        {
          "internalType": "uint256",
          "name": "timeoutInSeconds",
          "type": "uint256"
        }
      ],
      "name": "setServiceActivationTimeout",
      "outputs": [],
      "payable": false,
      "stateMutability": "nonpayable",
      "type": "function"
    },
    {
      "constant": false,
      "inputs": [],
      "name": "triggerSelfDestruction",
      "outputs": [],
      "payable": false,
      "stateMutability": "nonpayable",
      "type": "function"
    },
    {
      "constant": true,
      "inputs": [
        {
          "internalType": "address",
          "name": "",
          "type": "address"
        },
        {
          "internalType": "address",
          "name": "",
          "type": "address"
        },
        {
          "internalType": "uint256",
          "name": "",
          "type": "uint256"
        }
      ],
      "name": "walletCurrencyMaxNonce",
      "outputs": [
        {
          "internalType": "uint256",
          "name": "",
          "type": "uint256"
        }
      ],
      "payable": false,
      "stateMutability": "view",
      "type": "function"
    },
    {
      "constant": false,
      "inputs": [
        {
          "internalType": "uint256",
          "name": "_maxNullNonce",
          "type": "uint256"
        }
      ],
      "name": "setMaxNullNonce",
      "outputs": [],
      "payable": false,
      "stateMutability": "nonpayable",
      "type": "function"
    },
    {
      "constant": true,
      "inputs": [
        {
          "internalType": "address",
          "name": "wallet",
          "type": "address"
        },
        {
          "components": [
            {
              "internalType": "address",
              "name": "ct",
              "type": "address"
            },
            {
              "internalType": "uint256",
              "name": "id",
              "type": "uint256"
            }
          ],
          "internalType": "struct MonetaryTypesLib.Currency",
          "name": "currency",
          "type": "tuple"
        }
      ],
      "name": "maxNonceByWalletAndCurrency",
      "outputs": [
        {
          "internalType": "uint256",
          "name": "",
          "type": "uint256"
        }
      ],
      "payable": false,
      "stateMutability": "view",
      "type": "function"
    },
    {
      "constant": false,
      "inputs": [
        {
          "internalType": "address",
          "name": "wallet",
          "type": "address"
        },
        {
          "components": [
            {
              "internalType": "address",
              "name": "ct",
              "type": "address"
            },
            {
              "internalType": "uint256",
              "name": "id",
              "type": "uint256"
            }
          ],
          "internalType": "struct MonetaryTypesLib.Currency",
          "name": "currency",
          "type": "tuple"
        },
        {
          "internalType": "uint256",
          "name": "_maxNullNonce",
          "type": "uint256"
        }
      ],
      "name": "setMaxNonceByWalletAndCurrency",
      "outputs": [],
      "payable": false,
      "stateMutability": "nonpayable",
      "type": "function"
    },
    {
      "constant": false,
      "inputs": [],
      "name": "updateMaxNullNonceFromCommunityVote",
      "outputs": [],
      "payable": false,
      "stateMutability": "nonpayable",
      "type": "function"
    }
  ],
  "bytecode": "0x60806040523480156200001157600080fd5b50604051620015ba380380620015ba8339810160408190526200003491620000b3565b80806001600160a01b0381166200004a57600080fd5b6001600160a01b0381163014156200006157600080fd5b5060008054610100600160a81b0319166101006001600160a01b0393909316928302179055600180546001600160a01b03191690911790555062000108565b8051620000ad81620000ee565b92915050565b600060208284031215620000c657600080fd5b6000620000d48484620000a0565b949350505050565b60006001600160a01b038216620000ad565b620000f981620000dc565b81146200010557600080fd5b50565b6114a280620001186000396000f3fe608060405234801561001057600080fd5b506004361061016a5760003560e01c80630cecc0f81461016f5780631423ba381461018d57806317ba3f90146101a25780632738a112146101c25780632b5672e3146101ca5780632b91e0a9146101dd5780632f013a00146101f05780633858654b146101f85780633b58c501146102185780633b7bea6c1461022b5780634476d23b1461023357806350b08c0214610248578063570ca7351461025b5780635df1b0a3146102635780636266236714610276578063670732a71461027e57806369cdd8351461028657806370327ea11461028e5780637e15dd5c146102965780638e8cef12146102a95780638e9d6cbd146102bc57806396214735146102c4578063b3ab15fb146102d7578063be3be251146102ea578063bf24e7d0146102f2578063d5f3948814610307578063e86ab8f61461030f578063e8bec62b14610322578063f068468014610335578063fdd9ec7d14610348575b600080fd5b61017761035b565b6040516101849190611331565b60405180910390f35b6101a061019b3660046110a5565b610384565b005b6101b56101b0366004610fb9565b610434565b60405161018491906112fa565b6101a061046c565b6101a06101d8366004611024565b6104d2565b6101b56101eb366004610fb9565b6105ec565b6101b561060a565b61020b610206366004611075565b610613565b6040516101849190611352565b6101a0610226366004611024565b61064b565b61020b610725565b61023b61072b565b6040516101849190611260565b6101a0610256366004610fb9565b61073f565b61023b6107fb565b6101b5610271366004611024565b61080a565b61020b61085a565b6101a0610860565b6101776108af565b6101a06108dd565b6101a06102a4366004611106565b610940565b6101a06102b7366004610fb9565b610991565b6101b5610a0b565b6101a06102d2366004610fb9565b610a1b565b6101a06102e5366004610fb9565b610adb565b6101a0610b7e565b6102fa610c4a565b6040516101849190611308565b61023b610c59565b6101a061031d3660046110e8565b610c6d565b61020b610330366004610fd7565b610d41565b6101a0610343366004611106565b610d64565b6101a0610356366004610fb9565b610dd7565b6040518060400160405280600d81526020016c7365745f6d61785f6e6f6e636560981b81525081565b6040518060400160405280600d81526020016c7365745f6d61785f6e6f6e636560981b8152506103b4338261080a565b6103bd57600080fd5b6001600160a01b038085166000908152600660209081526040808320875190941683529281528282208682015183529052819020839055517f627686b1b476427bcfe4120b0777072ab5c48442194270d02480b3c6373459ac90610426908690869086906112b7565b60405180910390a150505050565b600061043f826105ec565b801561046657506001600160a01b0382166000908152600260205260409020600101544210155b92915050565b3361047561072b565b6001600160a01b03161461048857600080fd5b60005460ff161561049857600080fd5b7f787a5d936e74f4b564b9153575886059829c78cd9927b1be5e0d976b317ef736336040516104c7919061126e565b60405180910390a133ff5b6104da610e4c565b6104e357600080fd5b816001600160a01b0381166104f757600080fd5b6001600160a01b03811630141561050d57600080fd5b6001600160a01b03831660009081526002602052604090205460ff1661053257600080fd5b600061053d83610e62565b6001600160a01b0385166000908152600260208181526040808420858552909201905290205490915060ff161561057357600080fd5b6001600160a01b03841660009081526002602081815260408084208585528084018352818520805460ff19166001908117909155938352600301805493840181558452922001829055517fec1b982d69bfc1a6fd8becf191d9a633486c822d3bdedd52303ca81fa6357501906104269086908690611297565b6001600160a01b031660009081526002602052604090205460ff1690565b60005460ff1681565b6001600160a01b0391821660009081526006602090815260408083208451909516835293815283822092810151825291909152205490565b610653610e4c565b61065c57600080fd5b816001600160a01b03811661067057600080fd5b6001600160a01b03811630141561068657600080fd5b600061069183610e62565b6001600160a01b0385166000908152600260208181526040808420858552909201905290205490915060ff166106c657600080fd5b6001600160a01b0384166000908152600260208181526040808420858552909201905290819020805460ff19169055517f92f4af6130f47c92f3899e06611c8c6ef191fb81207ad2675d134af619d2fe7d906104269086908690611297565b60035481565b60005461010090046001600160a01b031690565b610747610e4c565b61075057600080fd5b806001600160a01b03811661076457600080fd5b6001600160a01b03811630141561077a57600080fd5b6001600160a01b03821660009081526002602052604090205460ff1661079f57600080fd5b6001600160a01b03821660009081526002602052604090819020805460ff19169055517f777645c5437dfbf962f57a281ead25f3d513f2f8e938685bbfc1738e81c9880e906107ef908490611260565b60405180910390a15050565b6001546001600160a01b031681565b60008061081683610e62565b905061082184610434565b801561085257506001600160a01b0384166000908152600260208181526040808420858552909201905290205460ff165b949350505050565b60055481565b610868610e4c565b61087157600080fd5b6004805460ff60a01b1916600160a01b1790556040517fc1668d45f18667fb6eadfbcacfd5cdcc7dd4ecdfc9b0ab8786cfdbad86bb83d890600090a1565b604051806040016040528060128152602001717365745f6d61785f6e756c6c5f6e6f6e636560701b81525081565b336108e661072b565b6001600160a01b0316146108f957600080fd5b6000805460ff191660011790556040517fd5a2a04a775c741c2ca0dc46ea7ce4835190e1aaf1ca018def0e82568ec336169061093690339061126e565b60405180910390a1565b610948610e4c565b61095157600080fd5b60038190556040517f4f1d324a1cbffc352fb64f1d73d95e4b200d92f99ef39bf2d7f5b41f946909d690610986908390611352565b60405180910390a150565b610999610e4c565b6109a257600080fd5b806001600160a01b0381166109b657600080fd5b6001600160a01b0381163014156109cc57600080fd5b6109d882600354610e92565b7f7f3a8349917003ed377f6e9ae1608b92edd893903f8983bd274b1f8373dd3b11826003546040516107ef9291906112df565b600454600160a01b900460ff1681565b610a23610e4c565b610a2c57600080fd5b806001600160a01b038116610a4057600080fd5b6001600160a01b038116301415610a5657600080fd5b6000546001600160a01b038381166101009092041614610ad757600080546001600160a01b03848116610100908102610100600160a81b03198416179093556040519290910416907f977e5fa58e458501775e0008d275006294c5249e3c08d1d0e3a9f3acad14f6e490610acd908390869061127c565b60405180910390a1505b5050565b610ae3610ee1565b610aec57600080fd5b806001600160a01b038116610b0057600080fd5b6001600160a01b038116301415610b1657600080fd5b6001546001600160a01b03838116911614610ad757600180546001600160a01b038481166001600160a01b03198316179092556040519116907f9f611b789425d0d5b90b920f1b2852907dd865c80074a30b1629aaa041d1812c90610acd908390869061127c565b6000600460009054906101000a90046001600160a01b03166001600160a01b031663b5b9c7bf6040518163ffffffff1660e01b815260040160206040518083038186803b158015610bce57600080fd5b505afa158015610be2573d6000803e3d6000fd5b505050506040513d601f19601f82011682018060405250610c069190810190611124565b905080610c135750610c48565b60058190556040517fcfad23b673b1ec74bc8cf0a3cfcf315f330bb498ee409ef476839d20df104a1190610986908390611352565b565b6004546001600160a01b031681565b60005461010090046001600160a01b031681565b610c75610e4c565b610c7e57600080fd5b806001600160a01b038116610c9257600080fd5b60045482906001600160a01b039081169082168114610d3b57600454600160a01b900460ff1615610cde5760405162461bcd60e51b8152600401610cd590611342565b60405180910390fd5b600480546001600160a01b038681166001600160a01b03198316179092556040519116907f624c4d4225a45f5bf8a9755adba1ef9be3464a9970b05a371fb6cca0c0caf20490610d319083908890611316565b60405180910390a1505b50505050565b600660209081526000938452604080852082529284528284209052825290205481565b604051806040016040528060128152602001717365745f6d61785f6e756c6c5f6e6f6e636560701b815250610d99338261080a565b610da257600080fd5b60058290556040517fcdaada53179669398f6d8b3bff9dba1832f3de9589c72c40f11dc47accefecc6906107ef908490611352565b610ddf610e4c565b610de857600080fd5b806001600160a01b038116610dfc57600080fd5b6001600160a01b038116301415610e1257600080fd5b610e1d826000610e92565b7fb619d545cb511bd5f02907a1eac4f4cb8dace7b1846852fb0bf5e553937481c1826040516107ef9190611260565b60005461010090046001600160a01b0316331490565b600081604051602001610e75919061124d565b604051602081830303815290604052805190602001209050919050565b6001600160a01b03821660009081526002602052604090205460ff16610ad7576001600160a01b0382166000908152600260205260409020805460ff1916600190811782554283019101555050565b6001546001600160a01b0316331490565b803561046681611436565b80356104668161144d565b600082601f830112610f1957600080fd5b8135610f2c610f2782611386565b611360565b91508082526020830160208301858383011115610f4857600080fd5b610f538382846113f4565b50505092915050565b600060408284031215610f6e57600080fd5b610f786040611360565b90506000610f868484610ef2565b8252506020610f9784848301610fa3565b60208301525092915050565b803561046681611456565b805161046681611456565b600060208284031215610fcb57600080fd5b60006108528484610ef2565b600080600060608486031215610fec57600080fd5b6000610ff88686610ef2565b935050602061100986828701610ef2565b925050604061101a86828701610fa3565b9150509250925092565b6000806040838503121561103757600080fd5b60006110438585610ef2565b92505060208301356001600160401b0381111561105f57600080fd5b61106b85828601610f08565b9150509250929050565b6000806060838503121561108857600080fd5b60006110948585610ef2565b925050602061106b85828601610f5c565b6000806000608084860312156110ba57600080fd5b60006110c68686610ef2565b93505060206110d786828701610f5c565b925050606061101a86828701610fa3565b6000602082840312156110fa57600080fd5b60006108528484610efd565b60006020828403121561111857600080fd5b60006108528484610fa3565b60006020828403121561113657600080fd5b60006108528484610fae565b61114b816113e9565b82525050565b61114b816113bf565b61114b816113ca565b61114b816113cf565b6000611177826113ad565b61118181856113b1565b9350611191818560208601611400565b61119a8161142c565b9093019392505050565b60006111af826113ad565b6111b981856113ba565b93506111c9818560208601611400565b9290920192915050565b60006111e0602f836113b1565b7f436f6d6d756e69747920766f74652066726f7a656e205b436f6d6d756e69747981526e566f7461626c652e736f6c3a34315d60881b602082015260400192915050565b805160408301906112358482611151565b506020820151610d3b60208501825b61114b816113e6565b600061125982846111a4565b9392505050565b602081016104668284611151565b602081016104668284611142565b6040810161128a8285611151565b6112596020830184611151565b604081016112a58285611151565b8181036020830152610852818461116c565b608081016112c58286611151565b6112d26020830185611224565b6108526060830184611244565b604081016112ed8285611151565b6112596020830184611244565b60208101610466828461115a565b602081016104668284611163565b604081016113248285611163565b6112596020830184611163565b60208082528101611259818461116c565b60208082528101610466816111d3565b602081016104668284611244565b6040518181016001600160401b038111828210171561137e57600080fd5b604052919050565b60006001600160401b0382111561139c57600080fd5b506020601f91909101601f19160190565b5190565b90815260200190565b919050565b6000610466826113da565b151590565b6000610466826113bf565b6001600160a01b031690565b90565b6000610466826113cf565b82818337506000910152565b60005b8381101561141b578181015183820152602001611403565b83811115610d3b5750506000910152565b601f01601f191690565b61143f816113bf565b811461144a57600080fd5b50565b61143f816113cf565b61143f816113e656fea365627a7a72315820512a7064b4573d1392d018c13c8ee77b2c499e686cadc113befc2cc5f470f1aa6c6578706572696d656e74616cf564736f6c634300050c0040",
  "source": "/*\n * Hubii Nahmii\n *\n * Compliant with the Hubii Nahmii specification v0.12.\n *\n * Copyright (C) 2017-2018 Hubii AS\n */\n\npragma solidity >=0.4.25 <0.6.0;\npragma experimental ABIEncoderV2;\n\nimport {Ownable} from \"./Ownable.sol\";\nimport {Servable} from \"./Servable.sol\";\nimport {CommunityVotable} from \"./CommunityVotable.sol\";\nimport {RevenueFund} from \"./RevenueFund.sol\";\nimport {Beneficiary} from \"./Beneficiary.sol\";\nimport {SafeMathIntLib} from \"./SafeMathIntLib.sol\";\nimport {SafeMathUintLib} from \"./SafeMathUintLib.sol\";\nimport {MonetaryTypesLib} from \"./MonetaryTypesLib.sol\";\n\n/**\n * @title NullSettlementState\n * @notice Where null settlement state is managed\n */\ncontract NullSettlementState is Ownable, Servable, CommunityVotable {\n    using SafeMathIntLib for int256;\n    using SafeMathUintLib for uint256;\n\n    //\n    // Constants\n    // -----------------------------------------------------------------------------------------------------------------\n    string constant public SET_MAX_NULL_NONCE_ACTION = \"set_max_null_nonce\";\n    string constant public SET_MAX_NONCE_ACTION = \"set_max_nonce\";\n\n    //\n    // Variables\n    // -----------------------------------------------------------------------------------------------------------------\n    uint256 public maxNullNonce;\n\n    mapping(address => mapping(address => mapping(uint256 => uint256))) public walletCurrencyMaxNonce;\n\n    //\n    // Events\n    // -----------------------------------------------------------------------------------------------------------------\n    event SetMaxNullNonceEvent(uint256 maxNullNonce);\n    event SetMaxNonceByWalletAndCurrencyEvent(address wallet, MonetaryTypesLib.Currency currency,\n        uint256 maxNonce);\n    event UpdateMaxNullNonceFromCommunityVoteEvent(uint256 maxNullNonce);\n\n    //\n    // Constructor\n    // -----------------------------------------------------------------------------------------------------------------\n    constructor(address deployer) Ownable(deployer) public {\n    }\n\n    //\n    // Functions\n    // -----------------------------------------------------------------------------------------------------------------\n    /// @notice Set the max null nonce\n    /// @param _maxNullNonce The max nonce\n    function setMaxNullNonce(uint256 _maxNullNonce)\n    public\n    onlyEnabledServiceAction(SET_MAX_NULL_NONCE_ACTION)\n    {\n        // Update max nonce value\n        maxNullNonce = _maxNullNonce;\n\n        // Emit event\n        emit SetMaxNullNonceEvent(_maxNullNonce);\n    }\n\n    /// @notice Get the max null nonce of the given wallet and currency\n    /// @param wallet The address of the concerned wallet\n    /// @param currency The concerned currency\n    /// @return The max nonce\n    function maxNonceByWalletAndCurrency(address wallet, MonetaryTypesLib.Currency memory currency)\n    public\n    view\n    returns (uint256) {\n        return walletCurrencyMaxNonce[wallet][currency.ct][currency.id];\n    }\n\n    /// @notice Set the max null nonce of the given wallet and currency\n    /// @param wallet The address of the concerned wallet\n    /// @param currency The concerned currency\n    /// @param _maxNullNonce The max nonce\n    function setMaxNonceByWalletAndCurrency(address wallet, MonetaryTypesLib.Currency memory currency,\n        uint256 _maxNullNonce)\n    public\n    onlyEnabledServiceAction(SET_MAX_NONCE_ACTION)\n    {\n        // Update max nonce value\n        walletCurrencyMaxNonce[wallet][currency.ct][currency.id] = _maxNullNonce;\n\n        // Emit event\n        emit SetMaxNonceByWalletAndCurrencyEvent(wallet, currency, _maxNullNonce);\n    }\n\n    /// @notice Update the max null settlement nonce property from CommunityVote contract\n    function updateMaxNullNonceFromCommunityVote()\n    public\n    {\n        uint256 _maxNullNonce = communityVote.getMaxNullNonce();\n        if (0 == _maxNullNonce)\n            return;\n\n        maxNullNonce = _maxNullNonce;\n\n        // Emit event\n        emit UpdateMaxNullNonceFromCommunityVoteEvent(maxNullNonce);\n    }\n}",
  "sourcePath": "/opt/buildagent/work/855e104608380c36/contracts/NullSettlementState.sol",
  "compiler": {
    "name": "solc",
    "version": "0.5.12+commit.7709ece9.Emscripten.clang"
  },
  "schemaVersion": "2.0.3",
  "updatedAt": "2019-10-23T00:21:41.143Z"
}