{
  "contractName": "NullSettlementDisputeByTrade",
  "abi": [
    {
      "constant": false,
      "inputs": [
        {
          "name": "newFraudChallenge",
          "type": "address"
        }
      ],
      "name": "setFraudChallenge",
      "outputs": [],
      "payable": false,
      "stateMutability": "nonpayable",
      "type": "function"
    },
    {
      "constant": true,
      "inputs": [],
      "name": "cancelOrdersChallenge",
      "outputs": [
        {
          "name": "",
          "type": "address"
        }
      ],
      "payable": false,
      "stateMutability": "view",
      "type": "function"
    },
    {
      "constant": true,
      "inputs": [],
      "name": "CHALLENGE_BY_TRADE_ACTION",
      "outputs": [
        {
          "name": "",
          "type": "string"
        }
      ],
      "payable": false,
      "stateMutability": "view",
      "type": "function"
    },
    {
      "constant": false,
      "inputs": [
        {
          "name": "newValidator",
          "type": "address"
        }
      ],
      "name": "setValidator",
      "outputs": [],
      "payable": false,
      "stateMutability": "nonpayable",
      "type": "function"
    },
    {
      "constant": true,
      "inputs": [],
      "name": "CHALLENGE_BY_ORDER_ACTION",
      "outputs": [
        {
          "name": "",
          "type": "string"
        }
      ],
      "payable": false,
      "stateMutability": "view",
      "type": "function"
    },
    {
      "constant": true,
      "inputs": [
        {
          "name": "service",
          "type": "address"
        }
      ],
      "name": "isRegisteredActiveService",
      "outputs": [
        {
          "name": "",
          "type": "bool"
        }
      ],
      "payable": false,
      "stateMutability": "view",
      "type": "function"
    },
    {
      "constant": true,
      "inputs": [],
      "name": "walletLockerFrozen",
      "outputs": [
        {
          "name": "",
          "type": "bool"
        }
      ],
      "payable": false,
      "stateMutability": "view",
      "type": "function"
    },
    {
      "constant": false,
      "inputs": [],
      "name": "triggerSelfDestruction",
      "outputs": [],
      "payable": false,
      "stateMutability": "nonpayable",
      "type": "function"
    },
    {
      "constant": false,
      "inputs": [
        {
          "name": "service",
          "type": "address"
        },
        {
          "name": "action",
          "type": "string"
        }
      ],
      "name": "enableServiceAction",
      "outputs": [],
      "payable": false,
      "stateMutability": "nonpayable",
      "type": "function"
    },
    {
      "constant": true,
      "inputs": [
        {
          "name": "service",
          "type": "address"
        }
      ],
      "name": "isRegisteredService",
      "outputs": [
        {
          "name": "",
          "type": "bool"
        }
      ],
      "payable": false,
      "stateMutability": "view",
      "type": "function"
    },
    {
      "constant": true,
      "inputs": [],
      "name": "selfDestructionDisabled",
      "outputs": [
        {
          "name": "",
          "type": "bool"
        }
      ],
      "payable": false,
      "stateMutability": "view",
      "type": "function"
    },
    {
      "constant": true,
      "inputs": [],
      "name": "validator",
      "outputs": [
        {
          "name": "",
          "type": "address"
        }
      ],
      "payable": false,
      "stateMutability": "view",
      "type": "function"
    },
    {
      "constant": false,
      "inputs": [
        {
          "name": "service",
          "type": "address"
        },
        {
          "name": "action",
          "type": "string"
        }
      ],
      "name": "disableServiceAction",
      "outputs": [],
      "payable": false,
      "stateMutability": "nonpayable",
      "type": "function"
    },
    {
      "constant": true,
      "inputs": [],
      "name": "serviceActivationTimeout",
      "outputs": [
        {
          "name": "",
          "type": "uint256"
        }
      ],
      "payable": false,
      "stateMutability": "view",
      "type": "function"
    },
    {
      "constant": true,
      "inputs": [],
      "name": "fraudChallenge",
      "outputs": [
        {
          "name": "",
          "type": "address"
        }
      ],
      "payable": false,
      "stateMutability": "view",
      "type": "function"
    },
    {
      "constant": false,
      "inputs": [
        {
          "name": "newCancelOrdersChallenge",
          "type": "address"
        }
      ],
      "name": "setCancelOrdersChallenge",
      "outputs": [],
      "payable": false,
      "stateMutability": "nonpayable",
      "type": "function"
    },
    {
      "constant": true,
      "inputs": [],
      "name": "destructor",
      "outputs": [
        {
          "name": "",
          "type": "address"
        }
      ],
      "payable": false,
      "stateMutability": "view",
      "type": "function"
    },
    {
      "constant": false,
      "inputs": [
        {
          "name": "service",
          "type": "address"
        }
      ],
      "name": "deregisterService",
      "outputs": [],
      "payable": false,
      "stateMutability": "nonpayable",
      "type": "function"
    },
    {
      "constant": true,
      "inputs": [],
      "name": "operator",
      "outputs": [
        {
          "name": "",
          "type": "address"
        }
      ],
      "payable": false,
      "stateMutability": "view",
      "type": "function"
    },
    {
      "constant": false,
      "inputs": [],
      "name": "freezeWalletLocker",
      "outputs": [],
      "payable": false,
      "stateMutability": "nonpayable",
      "type": "function"
    },
    {
      "constant": true,
      "inputs": [
        {
          "name": "service",
          "type": "address"
        },
        {
          "name": "action",
          "type": "string"
        }
      ],
      "name": "isEnabledServiceAction",
      "outputs": [
        {
          "name": "",
          "type": "bool"
        }
      ],
      "payable": false,
      "stateMutability": "view",
      "type": "function"
    },
    {
      "constant": false,
      "inputs": [
        {
          "name": "newConfiguration",
          "type": "address"
        }
      ],
      "name": "setConfiguration",
      "outputs": [],
      "payable": false,
      "stateMutability": "nonpayable",
      "type": "function"
    },
    {
      "constant": false,
      "inputs": [
        {
          "name": "newSecurityBond",
          "type": "address"
        }
      ],
      "name": "setSecurityBond",
      "outputs": [],
      "payable": false,
      "stateMutability": "nonpayable",
      "type": "function"
    },
    {
      "constant": true,
      "inputs": [],
      "name": "securityBond",
      "outputs": [
        {
          "name": "",
          "type": "address"
        }
      ],
      "payable": false,
      "stateMutability": "view",
      "type": "function"
    },
    {
      "constant": true,
      "inputs": [],
      "name": "configuration",
      "outputs": [
        {
          "name": "",
          "type": "address"
        }
      ],
      "payable": false,
      "stateMutability": "view",
      "type": "function"
    },
    {
      "constant": false,
      "inputs": [],
      "name": "disableSelfDestruction",
      "outputs": [],
      "payable": false,
      "stateMutability": "nonpayable",
      "type": "function"
    },
    {
      "constant": false,
      "inputs": [
        {
          "name": "timeoutInSeconds",
          "type": "uint256"
        }
      ],
      "name": "setServiceActivationTimeout",
      "outputs": [],
      "payable": false,
      "stateMutability": "nonpayable",
      "type": "function"
    },
    {
      "constant": false,
      "inputs": [
        {
          "name": "newWalletLocker",
          "type": "address"
        }
      ],
      "name": "setWalletLocker",
      "outputs": [],
      "payable": false,
      "stateMutability": "nonpayable",
      "type": "function"
    },
    {
      "constant": false,
      "inputs": [
        {
          "name": "service",
          "type": "address"
        }
      ],
      "name": "registerServiceDeferred",
      "outputs": [],
      "payable": false,
      "stateMutability": "nonpayable",
      "type": "function"
    },
    {
      "constant": false,
      "inputs": [
        {
          "name": "newDeployer",
          "type": "address"
        }
      ],
      "name": "setDeployer",
      "outputs": [],
      "payable": false,
      "stateMutability": "nonpayable",
      "type": "function"
    },
    {
      "constant": false,
      "inputs": [
        {
          "name": "newOperator",
          "type": "address"
        }
      ],
      "name": "setOperator",
      "outputs": [],
      "payable": false,
      "stateMutability": "nonpayable",
      "type": "function"
    },
    {
      "constant": true,
      "inputs": [],
      "name": "deployer",
      "outputs": [
        {
          "name": "",
          "type": "address"
        }
      ],
      "payable": false,
      "stateMutability": "view",
      "type": "function"
    },
    {
      "constant": true,
      "inputs": [],
      "name": "walletLocker",
      "outputs": [
        {
          "name": "",
          "type": "address"
        }
      ],
      "payable": false,
      "stateMutability": "view",
      "type": "function"
    },
    {
      "constant": true,
      "inputs": [],
      "name": "nullSettlementChallengeState",
      "outputs": [
        {
          "name": "",
          "type": "address"
        }
      ],
      "payable": false,
      "stateMutability": "view",
      "type": "function"
    },
    {
      "constant": false,
      "inputs": [
        {
          "name": "service",
          "type": "address"
        }
      ],
      "name": "registerService",
      "outputs": [],
      "payable": false,
      "stateMutability": "nonpayable",
      "type": "function"
    },
    {
      "inputs": [
        {
          "name": "deployer",
          "type": "address"
        }
      ],
      "payable": false,
      "stateMutability": "nonpayable",
      "type": "constructor"
    },
    {
      "anonymous": false,
      "inputs": [
        {
          "indexed": false,
          "name": "oldNullSettlementChallengeState",
          "type": "address"
        },
        {
          "indexed": false,
          "name": "newNullSettlementChallengeState",
          "type": "address"
        }
      ],
      "name": "SetNullSettlementChallengeStateEvent",
      "type": "event"
    },
    {
      "anonymous": false,
      "inputs": [
        {
          "indexed": false,
          "name": "nonce",
          "type": "uint256"
        },
        {
          "components": [
            {
              "name": "nonce",
              "type": "uint256"
            },
            {
              "name": "wallet",
              "type": "address"
            },
            {
              "components": [
                {
                  "name": "intention",
                  "type": "uint8"
                },
                {
                  "name": "amount",
                  "type": "int256"
                },
                {
                  "components": [
                    {
                      "components": [
                        {
                          "name": "ct",
                          "type": "address"
                        },
                        {
                          "name": "id",
                          "type": "uint256"
                        }
                      ],
                      "name": "intended",
                      "type": "tuple"
                    },
                    {
                      "components": [
                        {
                          "name": "ct",
                          "type": "address"
                        },
                        {
                          "name": "id",
                          "type": "uint256"
                        }
                      ],
                      "name": "conjugate",
                      "type": "tuple"
                    }
                  ],
                  "name": "currencies",
                  "type": "tuple"
                },
                {
                  "name": "rate",
                  "type": "int256"
                },
                {
                  "components": [
                    {
                      "name": "current",
                      "type": "int256"
                    },
                    {
                      "name": "previous",
                      "type": "int256"
                    }
                  ],
                  "name": "residuals",
                  "type": "tuple"
                }
              ],
              "name": "placement",
              "type": "tuple"
            },
            {
              "components": [
                {
                  "components": [
                    {
                      "name": "hash",
                      "type": "bytes32"
                    },
                    {
                      "components": [
                        {
                          "name": "r",
                          "type": "bytes32"
                        },
                        {
                          "name": "s",
                          "type": "bytes32"
                        },
                        {
                          "name": "v",
                          "type": "uint8"
                        }
                      ],
                      "name": "signature",
                      "type": "tuple"
                    }
                  ],
                  "name": "wallet",
                  "type": "tuple"
                },
                {
                  "components": [
                    {
                      "name": "hash",
                      "type": "bytes32"
                    },
                    {
                      "components": [
                        {
                          "name": "r",
                          "type": "bytes32"
                        },
                        {
                          "name": "s",
                          "type": "bytes32"
                        },
                        {
                          "name": "v",
                          "type": "uint8"
                        }
                      ],
                      "name": "signature",
                      "type": "tuple"
                    }
                  ],
                  "name": "operator",
                  "type": "tuple"
                }
              ],
              "name": "seals",
              "type": "tuple"
            },
            {
              "name": "blockNumber",
              "type": "uint256"
            },
            {
              "name": "operatorId",
              "type": "uint256"
            }
          ],
          "indexed": false,
          "name": "order",
          "type": "tuple"
        },
        {
          "indexed": false,
          "name": "challenger",
          "type": "address"
        }
      ],
      "name": "ChallengeByOrderEvent",
      "type": "event"
    },
    {
      "anonymous": false,
      "inputs": [
        {
          "indexed": false,
          "name": "wallet",
          "type": "address"
        },
        {
          "indexed": false,
          "name": "nonce",
          "type": "uint256"
        },
        {
          "components": [
            {
              "name": "nonce",
              "type": "uint256"
            },
            {
              "name": "amount",
              "type": "int256"
            },
            {
              "components": [
                {
                  "components": [
                    {
                      "name": "ct",
                      "type": "address"
                    },
                    {
                      "name": "id",
                      "type": "uint256"
                    }
                  ],
                  "name": "intended",
                  "type": "tuple"
                },
                {
                  "components": [
                    {
                      "name": "ct",
                      "type": "address"
                    },
                    {
                      "name": "id",
                      "type": "uint256"
                    }
                  ],
                  "name": "conjugate",
                  "type": "tuple"
                }
              ],
              "name": "currencies",
              "type": "tuple"
            },
            {
              "name": "rate",
              "type": "int256"
            },
            {
              "components": [
                {
                  "name": "nonce",
                  "type": "uint256"
                },
                {
                  "name": "wallet",
                  "type": "address"
                },
                {
                  "name": "rollingVolume",
                  "type": "uint256"
                },
                {
                  "name": "liquidityRole",
                  "type": "uint8"
                },
                {
                  "components": [
                    {
                      "name": "amount",
                      "type": "int256"
                    },
                    {
                      "components": [
                        {
                          "name": "wallet",
                          "type": "bytes32"
                        },
                        {
                          "name": "operator",
                          "type": "bytes32"
                        }
                      ],
                      "name": "hashes",
                      "type": "tuple"
                    },
                    {
                      "components": [
                        {
                          "name": "current",
                          "type": "int256"
                        },
                        {
                          "name": "previous",
                          "type": "int256"
                        }
                      ],
                      "name": "residuals",
                      "type": "tuple"
                    }
                  ],
                  "name": "order",
                  "type": "tuple"
                },
                {
                  "components": [
                    {
                      "components": [
                        {
                          "name": "current",
                          "type": "int256"
                        },
                        {
                          "name": "previous",
                          "type": "int256"
                        }
                      ],
                      "name": "intended",
                      "type": "tuple"
                    },
                    {
                      "components": [
                        {
                          "name": "current",
                          "type": "int256"
                        },
                        {
                          "name": "previous",
                          "type": "int256"
                        }
                      ],
                      "name": "conjugate",
                      "type": "tuple"
                    }
                  ],
                  "name": "balances",
                  "type": "tuple"
                },
                {
                  "components": [
                    {
                      "components": [
                        {
                          "name": "amount",
                          "type": "int256"
                        },
                        {
                          "components": [
                            {
                              "name": "ct",
                              "type": "address"
                            },
                            {
                              "name": "id",
                              "type": "uint256"
                            }
                          ],
                          "name": "currency",
                          "type": "tuple"
                        }
                      ],
                      "name": "single",
                      "type": "tuple"
                    },
                    {
                      "components": [
                        {
                          "name": "originId",
                          "type": "uint256"
                        },
                        {
                          "components": [
                            {
                              "name": "amount",
                              "type": "int256"
                            },
                            {
                              "components": [
                                {
                                  "name": "ct",
                                  "type": "address"
                                },
                                {
                                  "name": "id",
                                  "type": "uint256"
                                }
                              ],
                              "name": "currency",
                              "type": "tuple"
                            }
                          ],
                          "name": "figure",
                          "type": "tuple"
                        }
                      ],
                      "name": "total",
                      "type": "tuple[]"
                    }
                  ],
                  "name": "fees",
                  "type": "tuple"
                }
              ],
              "name": "buyer",
              "type": "tuple"
            },
            {
              "components": [
                {
                  "name": "nonce",
                  "type": "uint256"
                },
                {
                  "name": "wallet",
                  "type": "address"
                },
                {
                  "name": "rollingVolume",
                  "type": "uint256"
                },
                {
                  "name": "liquidityRole",
                  "type": "uint8"
                },
                {
                  "components": [
                    {
                      "name": "amount",
                      "type": "int256"
                    },
                    {
                      "components": [
                        {
                          "name": "wallet",
                          "type": "bytes32"
                        },
                        {
                          "name": "operator",
                          "type": "bytes32"
                        }
                      ],
                      "name": "hashes",
                      "type": "tuple"
                    },
                    {
                      "components": [
                        {
                          "name": "current",
                          "type": "int256"
                        },
                        {
                          "name": "previous",
                          "type": "int256"
                        }
                      ],
                      "name": "residuals",
                      "type": "tuple"
                    }
                  ],
                  "name": "order",
                  "type": "tuple"
                },
                {
                  "components": [
                    {
                      "components": [
                        {
                          "name": "current",
                          "type": "int256"
                        },
                        {
                          "name": "previous",
                          "type": "int256"
                        }
                      ],
                      "name": "intended",
                      "type": "tuple"
                    },
                    {
                      "components": [
                        {
                          "name": "current",
                          "type": "int256"
                        },
                        {
                          "name": "previous",
                          "type": "int256"
                        }
                      ],
                      "name": "conjugate",
                      "type": "tuple"
                    }
                  ],
                  "name": "balances",
                  "type": "tuple"
                },
                {
                  "components": [
                    {
                      "components": [
                        {
                          "name": "amount",
                          "type": "int256"
                        },
                        {
                          "components": [
                            {
                              "name": "ct",
                              "type": "address"
                            },
                            {
                              "name": "id",
                              "type": "uint256"
                            }
                          ],
                          "name": "currency",
                          "type": "tuple"
                        }
                      ],
                      "name": "single",
                      "type": "tuple"
                    },
                    {
                      "components": [
                        {
                          "name": "originId",
                          "type": "uint256"
                        },
                        {
                          "components": [
                            {
                              "name": "amount",
                              "type": "int256"
                            },
                            {
                              "components": [
                                {
                                  "name": "ct",
                                  "type": "address"
                                },
                                {
                                  "name": "id",
                                  "type": "uint256"
                                }
                              ],
                              "name": "currency",
                              "type": "tuple"
                            }
                          ],
                          "name": "figure",
                          "type": "tuple"
                        }
                      ],
                      "name": "total",
                      "type": "tuple[]"
                    }
                  ],
                  "name": "fees",
                  "type": "tuple"
                }
              ],
              "name": "seller",
              "type": "tuple"
            },
            {
              "components": [
                {
                  "components": [
                    {
                      "name": "single",
                      "type": "int256"
                    },
                    {
                      "name": "total",
                      "type": "int256"
                    }
                  ],
                  "name": "intended",
                  "type": "tuple"
                },
                {
                  "components": [
                    {
                      "name": "single",
                      "type": "int256"
                    },
                    {
                      "name": "total",
                      "type": "int256"
                    }
                  ],
                  "name": "conjugate",
                  "type": "tuple"
                }
              ],
              "name": "transfers",
              "type": "tuple"
            },
            {
              "components": [
                {
                  "name": "hash",
                  "type": "bytes32"
                },
                {
                  "components": [
                    {
                      "name": "r",
                      "type": "bytes32"
                    },
                    {
                      "name": "s",
                      "type": "bytes32"
                    },
                    {
                      "name": "v",
                      "type": "uint8"
                    }
                  ],
                  "name": "signature",
                  "type": "tuple"
                }
              ],
              "name": "seal",
              "type": "tuple"
            },
            {
              "name": "blockNumber",
              "type": "uint256"
            },
            {
              "name": "operatorId",
              "type": "uint256"
            }
          ],
          "indexed": false,
          "name": "trade",
          "type": "tuple"
        },
        {
          "indexed": false,
          "name": "challenger",
          "type": "address"
        }
      ],
      "name": "ChallengeByTradeEvent",
      "type": "event"
    },
    {
      "anonymous": false,
      "inputs": [
        {
          "indexed": false,
          "name": "timeoutInSeconds",
          "type": "uint256"
        }
      ],
      "name": "ServiceActivationTimeoutEvent",
      "type": "event"
    },
    {
      "anonymous": false,
      "inputs": [
        {
          "indexed": false,
          "name": "service",
          "type": "address"
        }
      ],
      "name": "RegisterServiceEvent",
      "type": "event"
    },
    {
      "anonymous": false,
      "inputs": [
        {
          "indexed": false,
          "name": "service",
          "type": "address"
        },
        {
          "indexed": false,
          "name": "timeout",
          "type": "uint256"
        }
      ],
      "name": "RegisterServiceDeferredEvent",
      "type": "event"
    },
    {
      "anonymous": false,
      "inputs": [
        {
          "indexed": false,
          "name": "service",
          "type": "address"
        }
      ],
      "name": "DeregisterServiceEvent",
      "type": "event"
    },
    {
      "anonymous": false,
      "inputs": [
        {
          "indexed": false,
          "name": "service",
          "type": "address"
        },
        {
          "indexed": false,
          "name": "action",
          "type": "string"
        }
      ],
      "name": "EnableServiceActionEvent",
      "type": "event"
    },
    {
      "anonymous": false,
      "inputs": [
        {
          "indexed": false,
          "name": "service",
          "type": "address"
        },
        {
          "indexed": false,
          "name": "action",
          "type": "string"
        }
      ],
      "name": "DisableServiceActionEvent",
      "type": "event"
    },
    {
      "anonymous": false,
      "inputs": [
        {
          "indexed": false,
          "name": "oldCancelOrdersChallenge",
          "type": "address"
        },
        {
          "indexed": false,
          "name": "newCancelOrdersChallenge",
          "type": "address"
        }
      ],
      "name": "SetCancelOrdersChallengeEvent",
      "type": "event"
    },
    {
      "anonymous": false,
      "inputs": [
        {
          "indexed": false,
          "name": "oldFraudChallenge",
          "type": "address"
        },
        {
          "indexed": false,
          "name": "newFraudChallenge",
          "type": "address"
        }
      ],
      "name": "SetFraudChallengeEvent",
      "type": "event"
    },
    {
      "anonymous": false,
      "inputs": [
        {
          "indexed": false,
          "name": "oldWalletLocker",
          "type": "address"
        },
        {
          "indexed": false,
          "name": "newWalletLocker",
          "type": "address"
        }
      ],
      "name": "SetWalletLockerEvent",
      "type": "event"
    },
    {
      "anonymous": false,
      "inputs": [],
      "name": "FreezeWalletLockerEvent",
      "type": "event"
    },
    {
      "anonymous": false,
      "inputs": [
        {
          "indexed": false,
          "name": "oldSecurityBond",
          "type": "address"
        },
        {
          "indexed": false,
          "name": "newSecurityBond",
          "type": "address"
        }
      ],
      "name": "SetSecurityBondEvent",
      "type": "event"
    },
    {
      "anonymous": false,
      "inputs": [
        {
          "indexed": false,
          "name": "oldValidator",
          "type": "address"
        },
        {
          "indexed": false,
          "name": "newValidator",
          "type": "address"
        }
      ],
      "name": "SetValidatorEvent",
      "type": "event"
    },
    {
      "anonymous": false,
      "inputs": [
        {
          "indexed": false,
          "name": "oldConfiguration",
          "type": "address"
        },
        {
          "indexed": false,
          "name": "newConfiguration",
          "type": "address"
        }
      ],
      "name": "SetConfigurationEvent",
      "type": "event"
    },
    {
      "anonymous": false,
      "inputs": [
        {
          "indexed": false,
          "name": "oldDeployer",
          "type": "address"
        },
        {
          "indexed": false,
          "name": "newDeployer",
          "type": "address"
        }
      ],
      "name": "SetDeployerEvent",
      "type": "event"
    },
    {
      "anonymous": false,
      "inputs": [
        {
          "indexed": false,
          "name": "oldOperator",
          "type": "address"
        },
        {
          "indexed": false,
          "name": "newOperator",
          "type": "address"
        }
      ],
      "name": "SetOperatorEvent",
      "type": "event"
    },
    {
      "anonymous": false,
      "inputs": [
        {
          "indexed": false,
          "name": "wallet",
          "type": "address"
        }
      ],
      "name": "SelfDestructionDisabledEvent",
      "type": "event"
    },
    {
      "anonymous": false,
      "inputs": [
        {
          "indexed": false,
          "name": "wallet",
          "type": "address"
        }
      ],
      "name": "TriggerSelfDestructionEvent",
      "type": "event"
    },
    {
      "constant": false,
      "inputs": [
        {
          "name": "newNullSettlementChallengeState",
          "type": "address"
        }
      ],
      "name": "setNullSettlementChallengeState",
      "outputs": [],
      "payable": false,
      "stateMutability": "nonpayable",
      "type": "function"
    },
    {
      "constant": false,
      "inputs": [
        {
          "components": [
            {
              "name": "nonce",
              "type": "uint256"
            },
            {
              "name": "wallet",
              "type": "address"
            },
            {
              "components": [
                {
                  "name": "intention",
                  "type": "uint8"
                },
                {
                  "name": "amount",
                  "type": "int256"
                },
                {
                  "components": [
                    {
                      "components": [
                        {
                          "name": "ct",
                          "type": "address"
                        },
                        {
                          "name": "id",
                          "type": "uint256"
                        }
                      ],
                      "name": "intended",
                      "type": "tuple"
                    },
                    {
                      "components": [
                        {
                          "name": "ct",
                          "type": "address"
                        },
                        {
                          "name": "id",
                          "type": "uint256"
                        }
                      ],
                      "name": "conjugate",
                      "type": "tuple"
                    }
                  ],
                  "name": "currencies",
                  "type": "tuple"
                },
                {
                  "name": "rate",
                  "type": "int256"
                },
                {
                  "components": [
                    {
                      "name": "current",
                      "type": "int256"
                    },
                    {
                      "name": "previous",
                      "type": "int256"
                    }
                  ],
                  "name": "residuals",
                  "type": "tuple"
                }
              ],
              "name": "placement",
              "type": "tuple"
            },
            {
              "components": [
                {
                  "components": [
                    {
                      "name": "hash",
                      "type": "bytes32"
                    },
                    {
                      "components": [
                        {
                          "name": "r",
                          "type": "bytes32"
                        },
                        {
                          "name": "s",
                          "type": "bytes32"
                        },
                        {
                          "name": "v",
                          "type": "uint8"
                        }
                      ],
                      "name": "signature",
                      "type": "tuple"
                    }
                  ],
                  "name": "wallet",
                  "type": "tuple"
                },
                {
                  "components": [
                    {
                      "name": "hash",
                      "type": "bytes32"
                    },
                    {
                      "components": [
                        {
                          "name": "r",
                          "type": "bytes32"
                        },
                        {
                          "name": "s",
                          "type": "bytes32"
                        },
                        {
                          "name": "v",
                          "type": "uint8"
                        }
                      ],
                      "name": "signature",
                      "type": "tuple"
                    }
                  ],
                  "name": "operator",
                  "type": "tuple"
                }
              ],
              "name": "seals",
              "type": "tuple"
            },
            {
              "name": "blockNumber",
              "type": "uint256"
            },
            {
              "name": "operatorId",
              "type": "uint256"
            }
          ],
          "name": "order",
          "type": "tuple"
        },
        {
          "name": "challenger",
          "type": "address"
        }
      ],
      "name": "challengeByOrder",
      "outputs": [],
      "payable": false,
      "stateMutability": "nonpayable",
      "type": "function"
    },
    {
      "constant": false,
      "inputs": [
        {
          "name": "wallet",
          "type": "address"
        },
        {
          "components": [
            {
              "name": "nonce",
              "type": "uint256"
            },
            {
              "name": "amount",
              "type": "int256"
            },
            {
              "components": [
                {
                  "components": [
                    {
                      "name": "ct",
                      "type": "address"
                    },
                    {
                      "name": "id",
                      "type": "uint256"
                    }
                  ],
                  "name": "intended",
                  "type": "tuple"
                },
                {
                  "components": [
                    {
                      "name": "ct",
                      "type": "address"
                    },
                    {
                      "name": "id",
                      "type": "uint256"
                    }
                  ],
                  "name": "conjugate",
                  "type": "tuple"
                }
              ],
              "name": "currencies",
              "type": "tuple"
            },
            {
              "name": "rate",
              "type": "int256"
            },
            {
              "components": [
                {
                  "name": "nonce",
                  "type": "uint256"
                },
                {
                  "name": "wallet",
                  "type": "address"
                },
                {
                  "name": "rollingVolume",
                  "type": "uint256"
                },
                {
                  "name": "liquidityRole",
                  "type": "uint8"
                },
                {
                  "components": [
                    {
                      "name": "amount",
                      "type": "int256"
                    },
                    {
                      "components": [
                        {
                          "name": "wallet",
                          "type": "bytes32"
                        },
                        {
                          "name": "operator",
                          "type": "bytes32"
                        }
                      ],
                      "name": "hashes",
                      "type": "tuple"
                    },
                    {
                      "components": [
                        {
                          "name": "current",
                          "type": "int256"
                        },
                        {
                          "name": "previous",
                          "type": "int256"
                        }
                      ],
                      "name": "residuals",
                      "type": "tuple"
                    }
                  ],
                  "name": "order",
                  "type": "tuple"
                },
                {
                  "components": [
                    {
                      "components": [
                        {
                          "name": "current",
                          "type": "int256"
                        },
                        {
                          "name": "previous",
                          "type": "int256"
                        }
                      ],
                      "name": "intended",
                      "type": "tuple"
                    },
                    {
                      "components": [
                        {
                          "name": "current",
                          "type": "int256"
                        },
                        {
                          "name": "previous",
                          "type": "int256"
                        }
                      ],
                      "name": "conjugate",
                      "type": "tuple"
                    }
                  ],
                  "name": "balances",
                  "type": "tuple"
                },
                {
                  "components": [
                    {
                      "components": [
                        {
                          "name": "amount",
                          "type": "int256"
                        },
                        {
                          "components": [
                            {
                              "name": "ct",
                              "type": "address"
                            },
                            {
                              "name": "id",
                              "type": "uint256"
                            }
                          ],
                          "name": "currency",
                          "type": "tuple"
                        }
                      ],
                      "name": "single",
                      "type": "tuple"
                    },
                    {
                      "components": [
                        {
                          "name": "originId",
                          "type": "uint256"
                        },
                        {
                          "components": [
                            {
                              "name": "amount",
                              "type": "int256"
                            },
                            {
                              "components": [
                                {
                                  "name": "ct",
                                  "type": "address"
                                },
                                {
                                  "name": "id",
                                  "type": "uint256"
                                }
                              ],
                              "name": "currency",
                              "type": "tuple"
                            }
                          ],
                          "name": "figure",
                          "type": "tuple"
                        }
                      ],
                      "name": "total",
                      "type": "tuple[]"
                    }
                  ],
                  "name": "fees",
                  "type": "tuple"
                }
              ],
              "name": "buyer",
              "type": "tuple"
            },
            {
              "components": [
                {
                  "name": "nonce",
                  "type": "uint256"
                },
                {
                  "name": "wallet",
                  "type": "address"
                },
                {
                  "name": "rollingVolume",
                  "type": "uint256"
                },
                {
                  "name": "liquidityRole",
                  "type": "uint8"
                },
                {
                  "components": [
                    {
                      "name": "amount",
                      "type": "int256"
                    },
                    {
                      "components": [
                        {
                          "name": "wallet",
                          "type": "bytes32"
                        },
                        {
                          "name": "operator",
                          "type": "bytes32"
                        }
                      ],
                      "name": "hashes",
                      "type": "tuple"
                    },
                    {
                      "components": [
                        {
                          "name": "current",
                          "type": "int256"
                        },
                        {
                          "name": "previous",
                          "type": "int256"
                        }
                      ],
                      "name": "residuals",
                      "type": "tuple"
                    }
                  ],
                  "name": "order",
                  "type": "tuple"
                },
                {
                  "components": [
                    {
                      "components": [
                        {
                          "name": "current",
                          "type": "int256"
                        },
                        {
                          "name": "previous",
                          "type": "int256"
                        }
                      ],
                      "name": "intended",
                      "type": "tuple"
                    },
                    {
                      "components": [
                        {
                          "name": "current",
                          "type": "int256"
                        },
                        {
                          "name": "previous",
                          "type": "int256"
                        }
                      ],
                      "name": "conjugate",
                      "type": "tuple"
                    }
                  ],
                  "name": "balances",
                  "type": "tuple"
                },
                {
                  "components": [
                    {
                      "components": [
                        {
                          "name": "amount",
                          "type": "int256"
                        },
                        {
                          "components": [
                            {
                              "name": "ct",
                              "type": "address"
                            },
                            {
                              "name": "id",
                              "type": "uint256"
                            }
                          ],
                          "name": "currency",
                          "type": "tuple"
                        }
                      ],
                      "name": "single",
                      "type": "tuple"
                    },
                    {
                      "components": [
                        {
                          "name": "originId",
                          "type": "uint256"
                        },
                        {
                          "components": [
                            {
                              "name": "amount",
                              "type": "int256"
                            },
                            {
                              "components": [
                                {
                                  "name": "ct",
                                  "type": "address"
                                },
                                {
                                  "name": "id",
                                  "type": "uint256"
                                }
                              ],
                              "name": "currency",
                              "type": "tuple"
                            }
                          ],
                          "name": "figure",
                          "type": "tuple"
                        }
                      ],
                      "name": "total",
                      "type": "tuple[]"
                    }
                  ],
                  "name": "fees",
                  "type": "tuple"
                }
              ],
              "name": "seller",
              "type": "tuple"
            },
            {
              "components": [
                {
                  "components": [
                    {
                      "name": "single",
                      "type": "int256"
                    },
                    {
                      "name": "total",
                      "type": "int256"
                    }
                  ],
                  "name": "intended",
                  "type": "tuple"
                },
                {
                  "components": [
                    {
                      "name": "single",
                      "type": "int256"
                    },
                    {
                      "name": "total",
                      "type": "int256"
                    }
                  ],
                  "name": "conjugate",
                  "type": "tuple"
                }
              ],
              "name": "transfers",
              "type": "tuple"
            },
            {
              "components": [
                {
                  "name": "hash",
                  "type": "bytes32"
                },
                {
                  "components": [
                    {
                      "name": "r",
                      "type": "bytes32"
                    },
                    {
                      "name": "s",
                      "type": "bytes32"
                    },
                    {
                      "name": "v",
                      "type": "uint8"
                    }
                  ],
                  "name": "signature",
                  "type": "tuple"
                }
              ],
              "name": "seal",
              "type": "tuple"
            },
            {
              "name": "blockNumber",
              "type": "uint256"
            },
            {
              "name": "operatorId",
              "type": "uint256"
            }
          ],
          "name": "trade",
          "type": "tuple"
        },
        {
          "name": "challenger",
          "type": "address"
        }
      ],
      "name": "challengeByTrade",
      "outputs": [],
      "payable": false,
      "stateMutability": "nonpayable",
      "type": "function"
    }
  ],
  "bytecode": "0x60806040523480156200001157600080fd5b50604051602080620042018339810180604052620000339190810190620000b6565b8080600160a060020a03811615156200004b57600080fd5b600160a060020a0381163014156200006257600080fd5b506000805461010060a860020a031916610100600160a060020a039390931692830217905560018054600160a060020a031916909117905550620000eb565b6000620000af8251620000df565b9392505050565b600060208284031215620000c957600080fd5b6000620000d78484620000a1565b949350505050565b600160a060020a031690565b61410680620000fb6000396000f3006080604052600436106101be5763ffffffff60e060020a60003504166301370d0681146101c35780630cca956d146101e557806312255c94146102105780631327d3d81461023257806314f3a6331461025257806317ba3f9014610267578063240625d8146102945780632738a112146102a95780632b5672e3146102be5780632b91e0a9146102de5780632f013a00146102fe5780633a5381b5146103135780633b58c501146103285780633b7bea6c146103485780633bd7857f1461036a5780633dad7da41461037f5780634476d23b1461039f57806350b08c02146103c1578063570ca735146103e15780635dc60def146103f65780635df1b0a31461040b578063627f09c31461042b5780636792ce6e1461044b5780636b0570d01461046b5780636c70bee9146104805780636ccb43c81461049557806370327ea1146104b55780637e15dd5c146104ca578063892860b2146104ea5780638e8cef121461050a5780638eed83591461052a578063922726071461054a578063962147351461056a578063b3ab15fb1461058a578063d5f39488146105aa578063e8ae41e3146105bf578063fa7424f2146105d4578063fdd9ec7d146105e9575b600080fd5b3480156101cf57600080fd5b506101e36101de3660046136c8565b610609565b005b3480156101f157600080fd5b506101fa6106b1565b6040516102079190613f07565b60405180910390f35b34801561021c57600080fd5b506102256106c0565b6040516102079190613f3e565b34801561023e57600080fd5b506101e361024d3660046136c8565b6106ef565b34801561025e57600080fd5b50610225610787565b34801561027357600080fd5b506102876102823660046135b9565b6107b6565b6040516102079190613eeb565b3480156102a057600080fd5b506102876107ee565b3480156102b557600080fd5b506101e36107fe565b3480156102ca57600080fd5b506101e36102d93660046135f5565b610864565b3480156102ea57600080fd5b506102876102f93660046135b9565b610994565b34801561030a57600080fd5b506102876109b2565b34801561031f57600080fd5b506101fa6109bb565b34801561033457600080fd5b506101e36103433660046135f5565b6109ca565b34801561035457600080fd5b5061035d610aac565b6040516102079190613ef9565b34801561037657600080fd5b506101fa610ab2565b34801561038b57600080fd5b506101e361039a3660046136c8565b610ac1565b3480156103ab57600080fd5b506103b4610b59565b6040516102079190613ca3565b3480156103cd57600080fd5b506101e36103dc3660046135b9565b610b6d565b3480156103ed57600080fd5b506103b4610c2f565b34801561040257600080fd5b506101e3610c3e565b34801561041757600080fd5b506102876104263660046135f5565b610c92565b34801561043757600080fd5b506101e36104463660046136c8565b610ce3565b34801561045757600080fd5b506101e36104663660046136c8565b610d7b565b34801561047757600080fd5b506101fa610e13565b34801561048c57600080fd5b506101fa610e22565b3480156104a157600080fd5b506101e36104b03660046136c8565b610e31565b3480156104c157600080fd5b506101e3610ec2565b3480156104d657600080fd5b506101e36104e53660046137cb565b610f25565b3480156104f657600080fd5b506101e36105053660046136c8565b610f78565b34801561051657600080fd5b506101e36105253660046135b9565b611027565b34801561053657600080fd5b506101e3610545366004613799565b6110a5565b34801561055657600080fd5b506101e3610565366004613646565b61170f565b34801561057657600080fd5b506101e36105853660046135b9565b611e9f565b34801561059657600080fd5b506101e36105a53660046135b9565b611f5d565b3480156105b657600080fd5b506103b4612007565b3480156105cb57600080fd5b506101fa61201b565b3480156105e057600080fd5b506101fa61202a565b3480156105f557600080fd5b506101e36106043660046135b9565b612039565b60006106136120b2565b151561061e57600080fd5b81600160a060020a038116151561063457600080fd5b6006548390600160a060020a0390811690821681146106aa5760068054600160a060020a03878116600160a060020a0319831617909255604051911694507f07998fa7be97abe2427246ae4688298c89d6196bbffdf0997b9495a8d27bc673906106a19086908890613f15565b60405180910390a15b5050505050565b600754600160a060020a031681565b6040805180820190915260128152607060020a716368616c6c656e67655f62795f747261646502602082015281565b60006106f96120b2565b151561070457600080fd5b81600160a060020a038116151561071a57600080fd5b6003548390600160a060020a0390811690821681146106aa5760038054600160a060020a03878116600160a060020a0319831617909255604051911694507f1882af944a16549c3d4f60e3cd26f158b0c7aac3222cf32971fc21375ce05f60906106a19086908890613f15565b6040805180820190915260128152607160020a7131b430b63632b733b2afb13cafb7b93232b902602082015281565b60006107c182610994565b80156107e85750600160a060020a0382166000908152600860205260409020600101544210155b92915050565b60055460a060020a900460ff1681565b33610807610b59565b600160a060020a03161461081a57600080fd5b60005460ff161561082a57600080fd5b7f787a5d936e74f4b564b9153575886059829c78cd9927b1be5e0d976b317ef736336040516108599190613ca3565b60405180910390a133ff5b600061086e6120b2565b151561087957600080fd5b82600160a060020a038116151561088f57600080fd5b600160a060020a0381163014156108a557600080fd5b600160a060020a03841660009081526008602052604090205460ff1615156108cc57600080fd5b6108d5836120c8565b600160a060020a038516600090815260086020908152604080832084845260020190915290205490925060ff161561090c57600080fd5b600160a060020a0384166000908152600860208181526040808420868552600281018352818520805460ff19166001908117909155938352600301805493840181558452922001839055517fec1b982d69bfc1a6fd8becf191d9a633486c822d3bdedd52303ca81fa6357501906109869086908690613dea565b60405180910390a150505050565b600160a060020a031660009081526008602052604090205460ff1690565b60005460ff1681565b600354600160a060020a031681565b60006109d46120b2565b15156109df57600080fd5b82600160a060020a03811615156109f557600080fd5b600160a060020a038116301415610a0b57600080fd5b610a14836120c8565b600160a060020a038516600090815260086020908152604080832084845260020190915290205490925060ff161515610a4c57600080fd5b600160a060020a038416600090815260086020908152604080832085845260020190915290819020805460ff19169055517f92f4af6130f47c92f3899e06611c8c6ef191fb81207ad2675d134af619d2fe7d906109869086908690613dea565b60095481565b600654600160a060020a031681565b6000610acb6120b2565b1515610ad657600080fd5b81600160a060020a0381161515610aec57600080fd5b6007548390600160a060020a0390811690821681146106aa5760078054600160a060020a03878116600160a060020a0319831617909255604051911694507fafe0f82771e36e01015c06151eff69190d6796b6359da2780a8dd89ded9b2205906106a19086908890613f15565b6000546101009004600160a060020a031690565b610b756120b2565b1515610b8057600080fd5b80600160a060020a0381161515610b9657600080fd5b600160a060020a038116301415610bac57600080fd5b600160a060020a03821660009081526008602052604090205460ff161515610bd357600080fd5b600160a060020a03821660009081526008602052604090819020805460ff19169055517f777645c5437dfbf962f57a281ead25f3d513f2f8e938685bbfc1738e81c9880e90610c23908490613ca3565b60405180910390a15050565b600154600160a060020a031681565b610c466120b2565b1515610c5157600080fd5b6005805460a060020a60ff02191660a060020a1790556040517f56ec8900b9c4bf84f4b715a53068ca06961dd49084c07b481931e2c2045346e690600090a1565b600080610c9e836120c8565b9050610ca9846107b6565b8015610cdb5750600160a060020a038416600090815260086020908152604080832084845260020190915290205460ff165b949350505050565b6000610ced6120b2565b1515610cf857600080fd5b81600160a060020a0381161515610d0e57600080fd5b6002548390600160a060020a0390811690821681146106aa5760028054600160a060020a03878116600160a060020a0319831617909255604051911694507f634f61bf00e14adedce330c80c2823e16e184f189ebe853e1ddecc4a268477ff906106a19086908890613f15565b6000610d856120b2565b1515610d9057600080fd5b81600160a060020a0381161515610da657600080fd5b6004548390600160a060020a0390811690821681146106aa5760048054600160a060020a03878116600160a060020a0319831617909255604051911694507fc9f3f00c1760fe26985aeacb814a21c56ea289d680562e89b249681b08c30382906106a19086908890613f15565b600454600160a060020a031681565b600254600160a060020a031681565b6000610e3b6120b2565b1515610e4657600080fd5b81600160a060020a0381161515610e5c57600080fd5b600a8054600160a060020a03858116600160a060020a03198316179283905560405191811694507ff21c127205310467822e10c64b2d9ffae588e019194d6af71f2bdddc0b7ef52692610eb59286929190911690613f15565b60405180910390a1505050565b33610ecb610b59565b600160a060020a031614610ede57600080fd5b6000805460ff191660011790556040517fd5a2a04a775c741c2ca0dc46ea7ce4835190e1aaf1ca018def0e82568ec3361690610f1b903390613ca3565b60405180910390a1565b610f2d6120b2565b1515610f3857600080fd5b60098190556040517f4f1d324a1cbffc352fb64f1d73d95e4b200d92f99ef39bf2d7f5b41f946909d690610f6d908390613ef9565b60405180910390a150565b6000610f826120b2565b1515610f8d57600080fd5b81600160a060020a0381161515610fa357600080fd5b6005548390600160a060020a0390811690821681146106aa5760055460a060020a900460ff1615610fd357600080fd5b60058054600160a060020a03878116600160a060020a0319831617909255604051911694507fa44d361e26327b72a7ccbeae801b3c5cd7677ea4fa74168b289e273c46bfecfc906106a19086908890613f15565b61102f6120b2565b151561103a57600080fd5b80600160a060020a038116151561105057600080fd5b600160a060020a03811630141561106657600080fd5b61107282600954612192565b7f7f3a8349917003ed377f6e9ae1608b92edd893903f8983bd274b1f8373dd3b1182600954604051610c23929190613d83565b6110ad612e33565b6040805180820190915260128152607160020a7131b430b63632b733b2afb13cafb7b93232b90260208201526110e33382610c92565b15156110ee57600080fd5b60035460405160e060020a6331f2978b0281528591600160a060020a0316906331f2978b90611121908490600401613f4f565b602060405180830381600087803b15801561113b57600080fd5b505af115801561114f573d6000803e3d6000fd5b505050506040513d601f19601f8201168201806040525061117391908101906136aa565b151561117e57600080fd5b6006546060860151602001515160405160e060020a63e1f5828b028152600160a060020a039092169163e1f5828b916111b991600401613ef9565b602060405180830381600087803b1580156111d357600080fd5b505af11580156111e7573d6000803e3d6000fd5b505050506040513d601f19601f8201168201806040525061120b91908101906136aa565b1561121557600080fd5b6007546020808701516060880151909101515160405160e160020a634deaf58b028152600160a060020a0390931692639bd5eb1692611258929091600401613d83565b602060405180830381600087803b15801561127257600080fd5b505af1158015611286573d6000803e3d6000fd5b505050506040513d601f19601f820116820180604052506112aa91908101906136aa565b156112b457600080fd5b6112bd856121e4565b600a54602087015160405160e060020a635482c735028152929550600160a060020a0390911691635482c735916112f8918790600401613e0a565b602060405180830381600087803b15801561131257600080fd5b505af1158015611326573d6000803e3d6000fd5b505050506040513d601f19601f8201168201806040525061134a91908101906136aa565b1561135457600080fd5b600a54602086015160405160e060020a632ee2ed25028152600160a060020a0390921691632ee2ed259161138c918790600401613e0a565b602060405180830381600087803b1580156113a657600080fd5b505af11580156113ba573d6000803e3d6000fd5b505050506040513d601f19601f820116820180604052506113de9190810190613704565b8551116113ea57600080fd5b600a54602086015160405160e060020a63553d90e9028152600160a060020a039092169163553d90e991611422918790600401613e0a565b602060405180830381600087803b15801561143c57600080fd5b505af1158015611450573d6000803e3d6000fd5b505050506040513d601f19601f820116820180604052506114749190810190613704565b85511161148057600080fd5b600a54602086015160405160e060020a63c46fcd75028152600160a060020a039092169163c46fcd75916114b8918790600401613e0a565b602060405180830381600087803b1580156114d257600080fd5b505af11580156114e6573d6000803e3d6000fd5b505050506040513d601f19601f8201168201806040525061150a9190810190613704565b61151386612223565b1361151d57600080fd5b611535856020015161152e87612223565b858761226e565b600a60009054906101000a9004600160a060020a0316600160a060020a031663667666c88660200151858789608001518a600001518b60600151602001516000015173__TradeTypesLib_________________________63af75a2f76040518163ffffffff1660e060020a02815260040160006040518083038186803b1580156115be57600080fd5b505af41580156115d2573d6000803e3d6000fd5b505050506040513d6000823e601f3d908101601f191682016040526115fa9190810190613765565b6040518863ffffffff1660e060020a02815260040161161f9796959493929190613e25565b600060405180830381600087803b15801561163957600080fd5b505af115801561164d573d6000803e3d6000fd5b5050600a54602088015160405160e060020a632ee2ed250281527f692186b99bb015f5247f9db51faae16e52216ff8292cd97ddfd7777e69366e029450600160a060020a039092169250632ee2ed25916116ac91908890600401613e0a565b602060405180830381600087803b1580156116c657600080fd5b505af11580156116da573d6000803e3d6000fd5b505050506040513d601f19601f820116820180604052506116fe9190810190613704565b86866040516106a193929190613f8f565b611717612e33565b6000604080519081016040528060128152602001607060020a716368616c6c656e67655f62795f7472616465028152506117513382610c92565b151561175c57600080fd5b60035460405160e160020a637211c8c70281528691600160a060020a03169063e423918e9061178f908490600401613f5e565b602060405180830381600087803b1580156117a957600080fd5b505af11580156117bd573d6000803e3d6000fd5b505050506040513d601f19601f820116820180604052506117e191908101906136aa565b15156117ec57600080fd5b60035460405160e160020a6303e149c302815287918991600160a060020a03909116906307c29386906118259085908590600401613f6f565b602060405180830381600087803b15801561183f57600080fd5b505af1158015611853573d6000803e3d6000fd5b505050506040513d601f19601f8201168201806040525061187791908101906136aa565b151561188257600080fd5b60065460e08901515160405160e160020a6352c894d1028152600160a060020a039092169163a59129a2916118b991600401613ef9565b602060405180830381600087803b1580156118d357600080fd5b505af11580156118e7573d6000803e3d6000fd5b505050506040513d601f19601f8201168201806040525061190b91908101906136aa565b1561191557600080fd5b600654600160a060020a031663e1f5828b6119308a8c61231d565b6040518263ffffffff1660e060020a02815260040161194f9190613ef9565b602060405180830381600087803b15801561196957600080fd5b505af115801561197d573d6000803e3d6000fd5b505050506040513d601f19601f820116820180604052506119a191908101906136aa565b156119ab57600080fd5b600754600160a060020a0316639bd5eb168a6119c78b8261231d565b6040518363ffffffff1660e060020a0281526004016119e7929190613d83565b602060405180830381600087803b158015611a0157600080fd5b505af1158015611a15573d6000803e3d6000fd5b505050506040513d601f19601f82011682018060405250611a3991908101906136aa565b15611a4357600080fd5b611a4d888a6123d8565b600a5460405160e060020a635482c735028152919750600160a060020a031690635482c73590611a83908c908a90600401613e0a565b602060405180830381600087803b158015611a9d57600080fd5b505af1158015611ab1573d6000803e3d6000fd5b505050506040513d601f19601f82011682018060405250611ad591908101906136aa565b15611adf57600080fd5b611ae9888a612483565b600a5460405160e060020a632ee2ed25028152919650600160a060020a031690632ee2ed2590611b1f908c908a90600401613e0a565b602060405180830381600087803b158015611b3957600080fd5b505af1158015611b4d573d6000803e3d6000fd5b505050506040513d601f19601f82011682018060405250611b719190810190613704565b8511611b7c57600080fd5b600a5460405160e060020a63553d90e9028152600160a060020a039091169063553d90e990611bb1908c908a90600401613e0a565b602060405180830381600087803b158015611bcb57600080fd5b505af1158015611bdf573d6000803e3d6000fd5b505050506040513d601f19601f82011682018060405250611c039190810190613704565b8511611c0e57600080fd5b600a5460405160e060020a63c46fcd75028152600160a060020a039091169063c46fcd7590611c43908c908a90600401613e0a565b602060405180830381600087803b158015611c5d57600080fd5b505af1158015611c71573d6000803e3d6000fd5b505050506040513d601f19601f82011682018060405250611c959190810190613704565b611c9f898b612524565b13611ca957600080fd5b611cbe89611cb78a8c6125ca565b888a61226e565b600a60009054906101000a9004600160a060020a0316600160a060020a031663667666c88a888a8c61010001518a8e60e001516000015173__TradeTypesLib_________________________6332575cb66040518163ffffffff1660e060020a02815260040160006040518083038186803b158015611d3c57600080fd5b505af4158015611d50573d6000803e3d6000fd5b505050506040513d6000823e601f3d908101601f19168201604052611d789190810190613765565b6040518863ffffffff1660e060020a028152600401611d9d9796959493929190613e25565b600060405180830381600087803b158015611db757600080fd5b505af1158015611dcb573d6000803e3d6000fd5b5050600a5460405160e060020a632ee2ed250281527fb69fdc3af3abb19f37028d39f381743ca840cb47e6b36f7c0399810761c4387093508c9250600160a060020a0390911690632ee2ed2590611e289084908c90600401613e0a565b602060405180830381600087803b158015611e4257600080fd5b505af1158015611e56573d6000803e3d6000fd5b505050506040513d601f19601f82011682018060405250611e7a9190810190613704565b8a8a604051611e8c9493929190613e94565b60405180910390a1505050505050505050565b6000611ea96120b2565b1515611eb457600080fd5b81600160a060020a0381161515611eca57600080fd5b600160a060020a038116301415611ee057600080fd5b600054600160a060020a038481166101009092041614611f585760008054600160a060020a0385811661010090810261010060a860020a0319841617909355604051929091041692507f977e5fa58e458501775e0008d275006294c5249e3c08d1d0e3a9f3acad14f6e490610eb59084908690613cb1565b505050565b6000611f67612677565b1515611f7257600080fd5b81600160a060020a0381161515611f8857600080fd5b600160a060020a038116301415611f9e57600080fd5b600154600160a060020a03848116911614611f585760018054600160a060020a03858116600160a060020a0319831617909255604051911692507f9f611b789425d0d5b90b920f1b2852907dd865c80074a30b1629aaa041d1812c90610eb59084908690613cb1565b6000546101009004600160a060020a031681565b600554600160a060020a031681565b600a54600160a060020a031681565b6120416120b2565b151561204c57600080fd5b80600160a060020a038116151561206257600080fd5b600160a060020a03811630141561207857600080fd5b612083826000612192565b7fb619d545cb511bd5f02907a1eac4f4cb8dace7b1846852fb0bf5e553937481c182604051610c239190613ca3565b6000546101009004600160a060020a0316331490565b6000816040516020018082805190602001908083835b602083106120fd5780518252601f1990920191602091820191016120de565b6001836020036101000a0380198251168184511680821785525050505050509050019150506040516020818303038152906040526040518082805190602001908083835b602083106121605780518252601f199092019160209182019101612141565b5181516020939093036101000a6000190180199091169216919091179052604051920182900390912095945050505050565b600160a060020a03821660009081526008602052604090205460ff1615156121e057600160a060020a0382166000908152600860205260409020805460ff1916600190811782554283019101555b5050565b6121ec612e33565b60408201515160018111156121fd57fe5b60011461221657816040015160400151602001516107e8565b5060409081015101515190565b604081015151600090600181111561223757fe5b600114612262576040820151606081015160209091015161225d9163ffffffff61268816565b6107e8565b50604001516020015190565b600a5460405160e260020a6333ca4eab028152600160a060020a039091169063cf293aac906122a39087908690600401613e0a565b602060405180830381600087803b1580156122bd57600080fd5b505af11580156122d1573d6000803e3d6000fd5b505050506040513d601f19601f820116820180604052506122f591908101906136aa565b1561230b57612306848484846126bd565b612317565b61231784848484612941565b50505050565b60035460405160e060020a63059057d7028152600091600160a060020a03169063059057d7906123539086908690600401613f6f565b602060405180830381600087803b15801561236d57600080fd5b505af1158015612381573d6000803e3d6000fd5b505050506040513d601f19601f820116820180604052506123a591908101906136aa565b6123bf578260a001516080015160200151602001516123d1565b82608001516080015160200151602001515b9392505050565b6123e0612e33565b60035460405160e060020a63059057d7028152600160a060020a039091169063059057d7906124159086908690600401613f6f565b602060405180830381600087803b15801561242f57600080fd5b505af1158015612443573d6000803e3d6000fd5b505050506040513d601f19601f8201168201806040525061246791908101906136aa565b612476576040830151516123d1565b5050604001516020015190565b60035460405160e060020a63059057d7028152600091600160a060020a03169063059057d7906124b99086908690600401613f6f565b602060405180830381600087803b1580156124d357600080fd5b505af11580156124e7573d6000803e3d6000fd5b505050506040513d601f19601f8201168201806040525061250b91908101906136aa565b61251a5760a0830151516123d1565b5050608001515190565b60035460405160e060020a63059057d7028152600091600160a060020a03169063059057d79061255a9086908690600401613f6f565b602060405180830381600087803b15801561257457600080fd5b505af1158015612588573d6000803e3d6000fd5b505050506040513d601f19601f820116820180604052506125ac91908101906136aa565b6125bc5760c083015151516123d1565b505060c00151602001515190565b60035460405160e060020a63059057d7028152600091600160a060020a03169063059057d7906126009086908690600401613f6f565b602060405180830381600087803b15801561261a57600080fd5b505af115801561262e573d6000803e3d6000fd5b505050506040513d601f19601f8201168201806040525061265291908101906136aa565b6126655760a080840151015151516123d1565b50506080015160a00151602001515190565b600154600160a060020a0316331490565b600060ff60020a8314158061269f57508160001914155b15156126aa57600080fd5b81838115156126b557fe5b059392505050565b600a5460405160e060020a63b6e2fc33028152600160a060020a039091169063b6e2fc33906126f29087908690600401613e0a565b602060405180830381600087803b15801561270c57600080fd5b505af1158015612720573d6000803e3d6000fd5b505050506040513d601f19601f8201168201806040525061274491908101906136e6565b600181111561274f57fe5b6001141561284857600554600a5460405160e060020a6356587229028152600160a060020a03928316926346c5c02392889291169063565872299061279a9084908990600401613e0a565b602060405180830381600087803b1580156127b457600080fd5b505af11580156127c8573d6000803e3d6000fd5b505050506040513d601f19601f820116820180604052506127ec91908101906135d7565b8551602087015160405160e060020a63ffffffff87160281526128159493929190600401613ccc565b600060405180830381600087803b15801561282f57600080fd5b505af1158015612843573d6000803e3d6000fd5b505050505b60055482516020808501516002546040805160e060020a63fbdfd8e70281529051600160a060020a0396871696639a545322968c968a968d9692959094929093169263fbdfd8e792600480830193928290030181600087803b1580156128ad57600080fd5b505af11580156128c1573d6000803e3d6000fd5b505050506040513d601f19601f820116820180604052506128e59190810190613704565b6040518763ffffffff1660e060020a02815260040161290996959493929190613d01565b600060405180830381600087803b15801561292357600080fd5b505af1158015612937573d6000803e3d6000fd5b5050505050505050565b612949612e4a565b600a5460405160e060020a63b6e2fc33028152600091600160a060020a03169063b6e2fc339061297f9089908890600401613e0a565b602060405180830381600087803b15801561299957600080fd5b505af11580156129ad573d6000803e3d6000fd5b505050506040513d601f19601f820116820180604052506129d191908101906136e6565b60018111156129dc57fe5b60011415612ad25760048054600a5460405160e060020a6356587229028152600160a060020a0392831693634e791e0d9390921691635658722991612a25918c918b9101613e0a565b602060405180830381600087803b158015612a3f57600080fd5b505af1158015612a53573d6000803e3d6000fd5b505050506040513d601f19601f82011682018060405250612a7791908101906135d7565b8651602088015160405160e060020a63ffffffff8616028152612a9f93929190600401613d5b565b600060405180830381600087803b158015612ab957600080fd5b505af1158015612acd573d6000803e3d6000fd5b505050505b612ada612d66565b600480548251602080850151805191015160405160e160020a634197bc19028152959750600160a060020a039093169463832f783294612b23948a949392909160009101613d9e565b600060405180830381600087803b158015612b3d57600080fd5b505af1158015612b51573d6000803e3d6000fd5b50506004805487516020808a01516002546040805160e160020a63560069d9028152905173__SafeMathIntLib________________________995063755875b298508e97600160a060020a039788169763a72148eb979694169363ac00d3b293808301939192908290030181600087803b158015612bce57600080fd5b505af1158015612be2573d6000803e3d6000fd5b505050506040513d601f19601f82011682018060405250612c069190810190613704565b6040518463ffffffff1660e060020a028152600401612c2793929190613ed0565b602060405180830381600087803b158015612c4157600080fd5b505af1158015612c55573d6000803e3d6000fd5b505050506040513d601f19601f82011682018060405250612c799190810190613704565b6040518363ffffffff1660e060020a028152600401612c99929190613f30565b60206040518083038186803b158015612cb157600080fd5b505af4158015612cc5573d6000803e3d6000fd5b505050506040513d601f19601f82011682018060405250612ce99190810190613704565b600480548651602088015160405160e160020a634197bc19028152949550600160a060020a039092169363832f783293612d2c9389938893909260009101613d9e565b600060405180830381600087803b158015612d4657600080fd5b505af1158015612d5a573d6000803e3d6000fd5b50505050505050505050565b612d6e612e4a565b6000806000600260009054906101000a9004600160a060020a0316600160a060020a031663ccd03d2e6040518163ffffffff1660e060020a028152600401606060405180830381600087803b158015612dc657600080fd5b505af1158015612dda573d6000803e3d6000fd5b505050506040513d601f19601f82011682018060405250612dfe9190810190613722565b6040805180820182529384528051808201909152600160a060020a039092168252602082810191909152820152949350505050565b604080518082019091526000808252602082015290565b60606040519081016040528060008152602001612e65612e33565b905290565b60006123d18235614030565b60006123d18251614030565b6000601f82018313612e9357600080fd5b8135612ea6612ea182613fdf565b613fb9565b91508181835260208401935060208101905083856080840282011115612ecb57600080fd5b60005b83811015612ef95781612ee18882613221565b84525060209092019160809190910190600101612ece565b5050505092915050565b60006123d1825161403c565b60006123d18235614041565b60006123d1823561405a565b60006123d18235614065565b60006123d18251614065565b60006123d18251614041565b6000601f82018313612f5c57600080fd5b8135612f6a612ea182613fff565b91508082526020830160208301858383011115612f8657600080fd5b612f9183828461408a565b50505092915050565b6000601f82018313612fab57600080fd5b8151612fb9612ea182613fff565b91508082526020830160208301858383011115612fd557600080fd5b612f91838284614096565b600060408284031215612ff257600080fd5b612ffc6040613fb9565b9050600061300a8484612e6a565b825250602061301b84848301612f0f565b60208301525092915050565b60006040828403121561303957600080fd5b6130436040613fb9565b9050600061300a8484612f0f565b60006060828403121561306357600080fd5b61306d6040613fb9565b9050600061307b8484612f0f565b825250602061301b84848301612fe0565b60006080828403121561309e57600080fd5b6130a86040613fb9565b905060006130b68484612fe0565b825250604061301b84848301612fe0565b6000608082840312156130d957600080fd5b6130e36040613fb9565b905060006130f18484613027565b825250604061301b84848301613027565b6000610120828403121561311557600080fd5b61311f60a0613fb9565b9050600061312d8484612f27565b825250602061313e84848301612f0f565b60208301525060406131528482850161308c565b60408301525060c061316684828501612f0f565b60608301525060e061317a84828501613027565b60808301525092915050565b60006102a0828403121561319957600080fd5b6131a360c0613fb9565b905060006131b18484612f0f565b82525060206131c284848301612e6a565b60208301525060406131d684828501613102565b6040830152506101606131eb84828501613571565b60608301525061026061320084828501612f0f565b60808301525061028061321584828501612f0f565b60a08301525092915050565b60006080828403121561323357600080fd5b61323d6040613fb9565b9050600061324b8484612f0f565b825250602061301b84848301613051565b60006080828403121561326e57600080fd5b6132786040613fb9565b905060006132868484612f0f565b825250602061301b848483016000606082840312156132a457600080fd5b6132ae6060613fb9565b905060006132bc8484612f0f565b82525060206132cd84848301612f0f565b60208301525060406132e1848285016135ad565b60408301525092915050565b6000608082840312156132ff57600080fd5b6133096040613fb9565b905060006133178484613051565b82525060608201356001604060020a0381111561333357600080fd5b61301b84828501612e82565b600060a0828403121561335157600080fd5b61335b6060613fb9565b905060006133698484612f0f565b825250602061337a84848301613027565b60208301525060606132e184828501613027565b60006101c082840312156133a157600080fd5b6133ab60e0613fb9565b905060006133b98484612f0f565b82525060206133ca84848301612e6a565b60208301525060406133de84828501612f0f565b60408301525060606133f284828501612f27565b60608301525060806134068482850161333f565b60808301525061012061341b848285016130c7565b60a0830152506101a08201356001604060020a0381111561343b57600080fd5b613447848285016132ed565b60c08301525092915050565b6000610260828403121561346657600080fd5b613471610140613fb9565b9050600061347f8484612f0f565b825250602061349084848301612f0f565b60208301525060406134a48482850161308c565b60408301525060c06134b884828501612f0f565b60608301525060e08201356001604060020a038111156134d757600080fd5b6134e38482850161338e565b6080830152506101008201356001604060020a0381111561350357600080fd5b61350f8482850161338e565b60a083015250610120613524848285016130c7565b60c0830152506101a06135398482850161325c565b60e08301525061022061354e84828501612f0f565b6101008301525061024061356484828501612f0f565b6101208301525092915050565b6000610100828403121561358457600080fd5b61358e6040613fb9565b9050600061359c848461325c565b825250608061301b8484830161325c565b60006123d18235614054565b6000602082840312156135cb57600080fd5b6000610cdb8484612e6a565b6000602082840312156135e957600080fd5b6000610cdb8484612e76565b6000806040838503121561360857600080fd5b60006136148585612e6a565b92505060208301356001604060020a0381111561363057600080fd5b61363c85828601612f4b565b9150509250929050565b60008060006060848603121561365b57600080fd5b60006136678686612e6a565b93505060208401356001604060020a0381111561368357600080fd5b61368f86828701613453565b92505060406136a086828701612e6a565b9150509250925092565b6000602082840312156136bc57600080fd5b6000610cdb8484612f03565b6000602082840312156136da57600080fd5b6000610cdb8484612f1b565b6000602082840312156136f857600080fd5b6000610cdb8484612f33565b60006020828403121561371657600080fd5b6000610cdb8484612f3f565b60008060006060848603121561373757600080fd5b60006137438686612f3f565b935050602061375486828701612e76565b92505060406136a086828701612f3f565b60006020828403121561377757600080fd5b81516001604060020a0381111561378d57600080fd5b610cdb84828501612f9a565b6000806102c083850312156137ad57600080fd5b60006137b98585613186565b9250506102a061363c85828601612e6a565b6000602082840312156137dd57600080fd5b6000610cdb8484612f0f565b6137f281614030565b82525050565b60006138038261402c565b80845260208401935061381583614026565b60005b828110156138455761382b868351613a24565b61383482614026565b608096909601959150600101613818565b5093949350505050565b6137f28161403c565b6137f281614041565b6137f28161405a565b6137f281614074565b6137f28161407f565b60006138878261402c565b80845261389b816020860160208601614096565b6138a4816140c2565b9093016020019392505050565b805160408301906138c284826137e9565b5060208201516123176020850182613858565b805160408301906138c28482613858565b805160608301906138f78482613858565b50602082015161231760208501826138b1565b8051608083019061391b84826138b1565b50602082015161231760408501826138b1565b8051608083019061393f84826138d5565b50602082015161231760408501826138d5565b8051610120830190613964848261386a565b5060208201516139776020850182613858565b50604082015161398a604085018261390a565b50606082015161399d60c0850182613858565b50608082015161231760e08501826138d5565b80516102a08301906139c28482613858565b5060208201516139d560208501826137e9565b5060408201516139e86040850182613952565b5060608201516139fc610160850182613c75565b506080820151613a10610260850182613858565b5060a0820151612317610280850182613858565b80516080830190613a358482613858565b50602082015161231760208501826138e6565b80516080830190613a598482613858565b506020820151612317602085018280516060830190613a788482613858565b506020820151613a8b6020850182613858565b5060408201516123176040850182613c9a565b80516000906080840190613ab285826138e6565b5060208301518482036060860152613aca82826137f8565b95945050505050565b805160a0830190613ae48482613858565b506020820151613af760208501826138d5565b50604082015161231760608501826138d5565b80516000906101c0840190613b1f8582613858565b506020830151613b3260208601826137e9565b506040830151613b456040860182613858565b506060830151613b58606086018261386a565b506080830151613b6b6080860182613ad3565b5060a0830151613b7f61012086018261392e565b5060c08301518482036101a0860152613aca8282613a9e565b8051600090610260840190613bad8582613858565b506020830151613bc06020860182613858565b506040830151613bd3604086018261390a565b506060830151613be660c0860182613858565b50608083015184820360e0860152613bfe8282613b0a565b91505060a0830151848203610100860152613c198282613b0a565b91505060c0830151613c2f61012086018261392e565b5060e0830151613c436101a0860182613a48565b50610100830151613c58610220860182613858565b50610120830151613c6d610240860182613858565b509392505050565b8051610100830190613c878482613a48565b5060208201516123176080850182613a48565b6137f281614054565b602081016107e882846137e9565b60408101613cbf82856137e9565b6123d160208301846137e9565b60808101613cda82876137e9565b613ce760208301866137e9565b613cf460408301856137e9565b613aca6060830184613858565b60c08101613d0f82896137e9565b613d1c60208301886137e9565b613d296040830187613858565b613d3660608301866137e9565b613d436080830185613858565b613d5060a0830184613858565b979650505050505050565b60608101613d6982866137e9565b613d7660208301856137e9565b610cdb6040830184613858565b60408101613d9182856137e9565b6123d16020830184613858565b60a08101613dac82886137e9565b613db96020830187613858565b613dc660408301866137e9565b613dd36060830185613858565b613de06080830184613873565b9695505050505050565b60408101613df882856137e9565b8181036020830152610cdb818461387c565b60608101613e1882856137e9565b6123d160208301846138b1565b6101008101613e34828a6137e9565b613e4160208301896138b1565b613e4e60608301886137e9565b613e5b6080830187613858565b613e6860a0830186613858565b613e7560c0830185613858565b81810360e0830152613e87818461387c565b9998505050505050505050565b60808101613ea282876137e9565b613eaf6020830186613858565b8181036040830152613ec18185613b98565b9050613aca60608301846137e9565b60608101613ede82866137e9565b613d766020830185613858565b602081016107e8828461384f565b602081016107e88284613858565b602081016107e88284613861565b60408101613f238285613861565b6123d16020830184613861565b60408101613d918285613858565b602080825281016123d1818461387c565b6102a081016107e882846139b0565b602080825281016123d18184613b98565b60408082528101613f808185613b98565b90506123d160208301846137e9565b6102e08101613f9e8286613858565b613fab60208301856139b0565b610cdb6102c08301846137e9565b6040518181016001604060020a0381118282101715613fd757600080fd5b604052919050565b60006001604060020a03821115613ff557600080fd5b5060209081020190565b60006001604060020a0382111561401557600080fd5b506020601f91909101601f19160190565b60200190565b5190565b600160a060020a031690565b151590565b90565b60006002821061405057fe5b5090565b60ff1690565b60006107e882614030565b60006002821061405057600080fd5b60006107e882614044565b60006107e882614041565b82818337506000910152565b60005b838110156140b1578181015183820152602001614099565b838111156123175750506000910152565b601f01601f1916905600a265627a7a72305820e332421dd3c21eaaccb4231042475ca344481af1c1cd3e71064dcc8c50453a026c6578706572696d656e74616cf50037",
  "source": "/*\n * Hubii Nahmii\n *\n * Compliant with the Hubii Nahmii specification v0.12.\n *\n * Copyright (C) 2017-2018 Hubii AS\n */\n\npragma solidity ^0.4.25;\npragma experimental ABIEncoderV2;\n\nimport {Ownable} from \"./Ownable.sol\";\nimport {Configurable} from \"./Configurable.sol\";\nimport {ValidatableV2} from \"./ValidatableV2.sol\";\nimport {SecurityBondable} from \"./SecurityBondable.sol\";\nimport {WalletLockable} from \"./WalletLockable.sol\";\nimport {FraudChallengable} from \"./FraudChallengable.sol\";\nimport {CancelOrdersChallengable} from \"./CancelOrdersChallengable.sol\";\nimport {Servable} from \"./Servable.sol\";\nimport {SafeMathIntLib} from \"./SafeMathIntLib.sol\";\nimport {SafeMathUintLib} from \"./SafeMathUintLib.sol\";\nimport {MonetaryTypesLib} from \"./MonetaryTypesLib.sol\";\nimport {TradeTypesLib} from \"./TradeTypesLib.sol\";\nimport {SettlementChallengeTypesLib} from \"./SettlementChallengeTypesLib.sol\";\nimport {NullSettlementChallengeState} from \"./NullSettlementChallengeState.sol\";\n\n/**\n * @title NullSettlementDisputeByTrade\n * @notice The where trade related disputes of null settlement challenge happens\n */\ncontract NullSettlementDisputeByTrade is Ownable, Configurable, ValidatableV2, SecurityBondable, WalletLockable,\nFraudChallengable, CancelOrdersChallengable, Servable {\n    using SafeMathIntLib for int256;\n    using SafeMathUintLib for uint256;\n\n    //\n    // Constants\n    // -----------------------------------------------------------------------------------------------------------------\n    string constant public CHALLENGE_BY_ORDER_ACTION = \"challenge_by_order\";\n    string constant public CHALLENGE_BY_TRADE_ACTION = \"challenge_by_trade\";\n\n    //\n    // Variables\n    // -----------------------------------------------------------------------------------------------------------------\n    NullSettlementChallengeState public nullSettlementChallengeState;\n\n    //\n    // Events\n    // -----------------------------------------------------------------------------------------------------------------\n    event SetNullSettlementChallengeStateEvent(NullSettlementChallengeState oldNullSettlementChallengeState,\n        NullSettlementChallengeState newNullSettlementChallengeState);\n    event ChallengeByOrderEvent(uint256 nonce, TradeTypesLib.Order order, address challenger);\n    event ChallengeByTradeEvent(address wallet, uint256 nonce, TradeTypesLib.Trade trade,\n        address challenger);\n\n    //\n    // Constructor\n    // -----------------------------------------------------------------------------------------------------------------\n    constructor(address deployer) Ownable(deployer) public {\n    }\n\n    /// @notice Set the settlement challenge state contract\n    /// @param newNullSettlementChallengeState The (address of) NullSettlementChallengeState contract instance\n    function setNullSettlementChallengeState(NullSettlementChallengeState newNullSettlementChallengeState) public\n    onlyDeployer\n    notNullAddress(newNullSettlementChallengeState)\n    {\n        NullSettlementChallengeState oldNullSettlementChallengeState = nullSettlementChallengeState;\n        nullSettlementChallengeState = newNullSettlementChallengeState;\n        emit SetNullSettlementChallengeStateEvent(oldNullSettlementChallengeState, nullSettlementChallengeState);\n    }\n\n    /// @notice Challenge the settlement by providing order candidate\n    /// @param order The order candidate that challenges\n    /// @param challenger The address of the challenger\n    /// @dev If (candidate) order has buy intention consider _conjugate_ currency and amount, else\n    /// if (candidate) order has sell intention consider _intended_ currency and amount\n    function challengeByOrder(TradeTypesLib.Order order, address challenger)\n    public\n    onlyEnabledServiceAction(CHALLENGE_BY_ORDER_ACTION)\n    onlySealedOrder(order)\n    {\n        // Require that order candidate is not labelled fraudulent or cancelled\n        require(!fraudChallenge.isFraudulentOrderHash(order.seals.operator.hash));\n        require(!cancelOrdersChallenge.isOrderCancelled(order.wallet, order.seals.operator.hash));\n\n        // Get the relevant currency\n        MonetaryTypesLib.Currency memory currency = _orderCurrency(order);\n\n        // Require that proposal has not expired\n        require(!nullSettlementChallengeState.hasProposalExpired(order.wallet, currency));\n\n        // Require that orders's nonce is strictly greater than proposal's nonce and its current\n        // disqualification nonce\n        require(order.nonce > nullSettlementChallengeState.proposalNonce(\n            order.wallet, currency\n        ));\n        require(order.nonce > nullSettlementChallengeState.proposalDisqualificationNonce(\n            order.wallet, currency\n        ));\n\n        // Require that transfer amount is strictly greater than the proposal's target balance amount\n        // for this order to be a valid challenge candidate\n        require(_orderTransferAmount(order) > nullSettlementChallengeState.proposalTargetBalanceAmount(\n            order.wallet, currency\n        ));\n\n        // Reward challenger\n        // TODO Need balance as part of order to replace transfer amount (_orderTransferAmount(order)) in call below\n        _settleRewards(order.wallet, _orderTransferAmount(order), currency, challenger);\n\n        // Disqualify proposal, effectively overriding any previous disqualification\n        nullSettlementChallengeState.disqualifyProposal(\n            order.wallet, currency, challenger, order.blockNumber,\n            order.nonce, order.seals.operator.hash, TradeTypesLib.ORDER_KIND()\n        );\n\n        // Emit event\n        emit ChallengeByOrderEvent(\n            nullSettlementChallengeState.proposalNonce(order.wallet, currency), order, challenger\n        );\n    }\n\n    /// @notice Challenge the settlement by providing trade candidate\n    /// @param wallet The wallet whose settlement is being challenged\n    /// @param trade The trade candidate that challenges\n    /// @param challenger The address of the challenger\n    /// @dev If wallet is buyer in (candidate) trade consider single _conjugate_ transfer in (candidate) trade. Else\n    /// if wallet is seller in (candidate) trade consider single _intended_ transfer in (candidate) trade\n    function challengeByTrade(address wallet, TradeTypesLib.Trade trade, address challenger)\n    public\n    onlyEnabledServiceAction(CHALLENGE_BY_TRADE_ACTION)\n    onlySealedTrade(trade)\n    onlyTradeParty(trade, wallet)\n    {\n        // Require that trade candidate is not labelled fraudulent\n        require(!fraudChallenge.isFraudulentTradeHash(trade.seal.hash));\n\n        // Require that wallet's order in trade is not labelled fraudulent or cancelled\n        require(!fraudChallenge.isFraudulentOrderHash(_tradeOrderHash(trade, wallet)));\n        require(!cancelOrdersChallenge.isOrderCancelled(wallet, _tradeOrderHash(trade, wallet)));\n\n        // Get the relevant currency\n        MonetaryTypesLib.Currency memory currency = _tradeCurrency(trade, wallet);\n\n        // Require that proposal has not expired\n        require(!nullSettlementChallengeState.hasProposalExpired(wallet, currency));\n\n        // Get the relevant nonce\n        uint256 nonce = _tradeNonce(trade, wallet);\n\n        // Require that trade party's nonce is strictly greater than proposal's nonce and its current\n        // disqualification nonce\n        require(nonce > nullSettlementChallengeState.proposalNonce(\n            wallet, currency\n        ));\n        require(nonce > nullSettlementChallengeState.proposalDisqualificationNonce(\n            wallet, currency\n        ));\n\n        // Require that transfer amount is strictly greater than the proposal's target balance amount\n        // for this trade to be a valid challenge candidate\n        require(_tradeTransferAmount(trade, wallet) > nullSettlementChallengeState.proposalTargetBalanceAmount(\n            wallet, currency\n        ));\n\n        // Reward challenger\n        _settleRewards(wallet, _tradeBalanceAmount(trade, wallet), currency, challenger);\n\n        // Disqualify proposal, effectively overriding any previous disqualification\n        nullSettlementChallengeState.disqualifyProposal(\n            wallet, currency, challenger, trade.blockNumber,\n            nonce, trade.seal.hash, TradeTypesLib.TRADE_KIND()\n        );\n\n        // Emit event\n        emit ChallengeByTradeEvent(\n            wallet, nullSettlementChallengeState.proposalNonce(wallet, currency), trade, challenger\n        );\n    }\n\n    //\n    // Private functions\n    // -----------------------------------------------------------------------------------------------------------------\n    // Get the candidate order currency\n    // Buy order -> Conjugate currency\n    // Sell order -> Intended currency\n    function _orderCurrency(TradeTypesLib.Order order)\n    private\n    pure\n    returns (MonetaryTypesLib.Currency)\n    {\n        return TradeTypesLib.Intention.Sell == order.placement.intention ?\n        order.placement.currencies.intended :\n        order.placement.currencies.conjugate;\n    }\n\n    // Get the candidate order transfer\n    // Buy order -> Conjugate transfer\n    // Sell order -> Intended transfer\n    function _orderTransferAmount(TradeTypesLib.Order order)\n    private\n    pure\n    returns (int256)\n    {\n        return TradeTypesLib.Intention.Sell == order.placement.intention ?\n        order.placement.amount :\n        order.placement.amount.div(order.placement.rate);\n    }\n\n    function _tradeOrderHash(TradeTypesLib.Trade trade, address wallet)\n    private\n    view\n    returns (bytes32)\n    {\n        return validator.isTradeBuyer(trade, wallet) ?\n        trade.buyer.order.hashes.operator :\n        trade.seller.order.hashes.operator;\n    }\n\n    // Get the candidate trade currency\n    // Wallet is buyer in (candidate) trade -> Conjugate currency\n    // Wallet is seller in (candidate) trade -> Intended currency\n    function _tradeCurrency(TradeTypesLib.Trade trade, address wallet)\n    private\n    view\n    returns (MonetaryTypesLib.Currency)\n    {\n        return validator.isTradeBuyer(trade, wallet) ?\n        trade.currencies.conjugate :\n        trade.currencies.intended;\n    }\n\n    // Get the candidate trade nonce\n    // Wallet is buyer in (candidate) trade -> Buyer's nonce\n    // Wallet is seller in (candidate) trade -> Seller's nonce\n    function _tradeNonce(TradeTypesLib.Trade trade, address wallet)\n    private\n    view\n    returns (uint256)\n    {\n        return validator.isTradeBuyer(trade, wallet) ?\n        trade.buyer.nonce :\n        trade.seller.nonce;\n    }\n\n    // Get the candidate trade transfer amount\n    // Wallet is buyer in (candidate) trade -> Conjugate transfer\n    // Wallet is seller in (candidate) trade -> Intended transfer\n    function _tradeTransferAmount(TradeTypesLib.Trade trade, address wallet)\n    private\n    view\n    returns (int256)\n    {\n        return validator.isTradeBuyer(trade, wallet) ?\n        trade.transfers.conjugate.single :\n        trade.transfers.intended.single;\n    }\n\n    // Get the candidate trade balance amount\n    // Wallet is buyer in (candidate) trade -> Buyer's conjugate balance\n    // Wallet is seller in (candidate) trade -> Seller's intended balance\n    function _tradeBalanceAmount(TradeTypesLib.Trade trade, address wallet)\n    private\n    view\n    returns (int256)\n    {\n        return validator.isTradeBuyer(trade, wallet) ?\n        trade.buyer.balances.conjugate.current :\n        trade.seller.balances.intended.current;\n    }\n\n    function _settleRewards(address wallet, int256 walletAmount, MonetaryTypesLib.Currency currency,\n        address challenger)\n    private\n    {\n        if (nullSettlementChallengeState.proposalWalletInitiated(wallet, currency))\n            _settleBalanceReward(wallet, walletAmount, currency, challenger);\n\n        else\n            _settleSecurityBondReward(wallet, walletAmount, currency, challenger);\n    }\n\n    function _settleBalanceReward(address wallet, int256 walletAmount, MonetaryTypesLib.Currency currency,\n        address challenger)\n    private\n    {\n        // Unlock wallet/currency for existing challenger if previously locked\n        if (SettlementChallengeTypesLib.Status.Disqualified == nullSettlementChallengeState.proposalStatus(\n            wallet, currency\n        ))\n            walletLocker.unlockFungibleByProxy(\n                wallet,\n                nullSettlementChallengeState.proposalDisqualificationChallenger(\n                    wallet, currency\n                ),\n                currency.ct, currency.id\n            );\n\n        // Lock wallet for new challenger\n        walletLocker.lockFungibleByProxy(\n            wallet, challenger, walletAmount, currency.ct, currency.id, configuration.settlementChallengeTimeout()\n        );\n    }\n\n    // Settle the two-component reward from security bond.\n    // The first component is flat figure as obtained from Configuration\n    // The second component is progressive and calculated as\n    //    min(walletAmount, fraction of SecurityBond's deposited balance)\n    // both amounts for the given currency\n    function _settleSecurityBondReward(address wallet, int256 walletAmount, MonetaryTypesLib.Currency currency,\n        address challenger)\n    private\n    {\n        // Deprive existing challenger of reward if previously locked\n        if (SettlementChallengeTypesLib.Status.Disqualified == nullSettlementChallengeState.proposalStatus(\n            wallet, currency\n        ))\n            securityBond.depriveAbsolute(\n                nullSettlementChallengeState.proposalDisqualificationChallenger(\n                    wallet, currency\n                ),\n                currency.ct, currency.id\n            );\n\n        // Reward the flat component\n        MonetaryTypesLib.Figure memory flatReward = _flatReward();\n        securityBond.rewardAbsolute(\n            challenger, flatReward.amount, flatReward.currency.ct, flatReward.currency.id, 0\n        );\n\n        // Reward the progressive component\n        int256 progressiveRewardAmount = walletAmount.clampMax(\n            securityBond.depositedFractionalBalance(\n                currency.ct, currency.id, configuration.operatorSettlementStakeFraction()\n            )\n        );\n        securityBond.rewardAbsolute(\n            challenger, progressiveRewardAmount, currency.ct, currency.id, 0\n        );\n    }\n\n    function _flatReward()\n    private\n    view\n    returns (MonetaryTypesLib.Figure)\n    {\n        (int256 amount, address currencyCt, uint256 currencyId) = configuration.operatorSettlementStake();\n        return MonetaryTypesLib.Figure(amount, MonetaryTypesLib.Currency(currencyCt, currencyId));\n    }\n}",
  "sourcePath": "/opt/buildagent/work/855e104608380c36/contracts/NullSettlementDisputeByTrade.sol",
  "compiler": {
    "name": "solc",
    "version": "0.4.25+commit.59dbf8f1.Emscripten.clang"
  },
  "schemaVersion": "2.0.2",
  "updatedAt": "2019-04-02T08:24:32.183Z"
}