{
  "contractName": "NullSettlementChallengeByPayment",
  "abi": [
    {
      "constant": true,
      "inputs": [],
      "name": "balanceTracker",
      "outputs": [
        {
          "name": "",
          "type": "address"
        }
      ],
      "payable": false,
      "stateMutability": "view",
      "type": "function"
    },
    {
      "constant": true,
      "inputs": [],
      "name": "walletLockerFrozen",
      "outputs": [
        {
          "name": "",
          "type": "bool"
        }
      ],
      "payable": false,
      "stateMutability": "view",
      "type": "function"
    },
    {
      "constant": false,
      "inputs": [],
      "name": "triggerSelfDestruction",
      "outputs": [],
      "payable": false,
      "stateMutability": "nonpayable",
      "type": "function"
    },
    {
      "constant": true,
      "inputs": [],
      "name": "selfDestructionDisabled",
      "outputs": [
        {
          "name": "",
          "type": "bool"
        }
      ],
      "payable": false,
      "stateMutability": "view",
      "type": "function"
    },
    {
      "constant": true,
      "inputs": [],
      "name": "balanceTrackerFrozen",
      "outputs": [
        {
          "name": "",
          "type": "bool"
        }
      ],
      "payable": false,
      "stateMutability": "view",
      "type": "function"
    },
    {
      "constant": true,
      "inputs": [],
      "name": "nullSettlementDisputeByPayment",
      "outputs": [
        {
          "name": "",
          "type": "address"
        }
      ],
      "payable": false,
      "stateMutability": "view",
      "type": "function"
    },
    {
      "constant": true,
      "inputs": [],
      "name": "destructor",
      "outputs": [
        {
          "name": "",
          "type": "address"
        }
      ],
      "payable": false,
      "stateMutability": "view",
      "type": "function"
    },
    {
      "constant": true,
      "inputs": [],
      "name": "driipSettlementChallengeState",
      "outputs": [
        {
          "name": "",
          "type": "address"
        }
      ],
      "payable": false,
      "stateMutability": "view",
      "type": "function"
    },
    {
      "constant": true,
      "inputs": [],
      "name": "operator",
      "outputs": [
        {
          "name": "",
          "type": "address"
        }
      ],
      "payable": false,
      "stateMutability": "view",
      "type": "function"
    },
    {
      "constant": false,
      "inputs": [
        {
          "name": "newBalanceTracker",
          "type": "address"
        }
      ],
      "name": "setBalanceTracker",
      "outputs": [],
      "payable": false,
      "stateMutability": "nonpayable",
      "type": "function"
    },
    {
      "constant": false,
      "inputs": [],
      "name": "freezeWalletLocker",
      "outputs": [],
      "payable": false,
      "stateMutability": "nonpayable",
      "type": "function"
    },
    {
      "constant": false,
      "inputs": [
        {
          "name": "newConfiguration",
          "type": "address"
        }
      ],
      "name": "setConfiguration",
      "outputs": [],
      "payable": false,
      "stateMutability": "nonpayable",
      "type": "function"
    },
    {
      "constant": true,
      "inputs": [],
      "name": "configuration",
      "outputs": [
        {
          "name": "",
          "type": "address"
        }
      ],
      "payable": false,
      "stateMutability": "view",
      "type": "function"
    },
    {
      "constant": false,
      "inputs": [],
      "name": "disableSelfDestruction",
      "outputs": [],
      "payable": false,
      "stateMutability": "nonpayable",
      "type": "function"
    },
    {
      "constant": true,
      "inputs": [],
      "name": "nullSettlementState",
      "outputs": [
        {
          "name": "",
          "type": "address"
        }
      ],
      "payable": false,
      "stateMutability": "view",
      "type": "function"
    },
    {
      "constant": false,
      "inputs": [
        {
          "name": "newWalletLocker",
          "type": "address"
        }
      ],
      "name": "setWalletLocker",
      "outputs": [],
      "payable": false,
      "stateMutability": "nonpayable",
      "type": "function"
    },
    {
      "constant": false,
      "inputs": [
        {
          "name": "newDeployer",
          "type": "address"
        }
      ],
      "name": "setDeployer",
      "outputs": [],
      "payable": false,
      "stateMutability": "nonpayable",
      "type": "function"
    },
    {
      "constant": false,
      "inputs": [
        {
          "name": "newOperator",
          "type": "address"
        }
      ],
      "name": "setOperator",
      "outputs": [],
      "payable": false,
      "stateMutability": "nonpayable",
      "type": "function"
    },
    {
      "constant": false,
      "inputs": [],
      "name": "freezeBalanceTracker",
      "outputs": [],
      "payable": false,
      "stateMutability": "nonpayable",
      "type": "function"
    },
    {
      "constant": true,
      "inputs": [],
      "name": "deployer",
      "outputs": [
        {
          "name": "",
          "type": "address"
        }
      ],
      "payable": false,
      "stateMutability": "view",
      "type": "function"
    },
    {
      "constant": true,
      "inputs": [],
      "name": "walletLocker",
      "outputs": [
        {
          "name": "",
          "type": "address"
        }
      ],
      "payable": false,
      "stateMutability": "view",
      "type": "function"
    },
    {
      "constant": true,
      "inputs": [],
      "name": "nullSettlementChallengeState",
      "outputs": [
        {
          "name": "",
          "type": "address"
        }
      ],
      "payable": false,
      "stateMutability": "view",
      "type": "function"
    },
    {
      "inputs": [
        {
          "name": "deployer",
          "type": "address"
        }
      ],
      "payable": false,
      "stateMutability": "nonpayable",
      "type": "constructor"
    },
    {
      "anonymous": false,
      "inputs": [
        {
          "indexed": false,
          "name": "oldNullSettlementDisputeByPayment",
          "type": "address"
        },
        {
          "indexed": false,
          "name": "newNullSettlementDisputeByPayment",
          "type": "address"
        }
      ],
      "name": "SetNullSettlementDisputeByPaymentEvent",
      "type": "event"
    },
    {
      "anonymous": false,
      "inputs": [
        {
          "indexed": false,
          "name": "oldNullSettlementChallengeState",
          "type": "address"
        },
        {
          "indexed": false,
          "name": "newNullSettlementChallengeState",
          "type": "address"
        }
      ],
      "name": "SetNullSettlementChallengeStateEvent",
      "type": "event"
    },
    {
      "anonymous": false,
      "inputs": [
        {
          "indexed": false,
          "name": "oldNullSettlementState",
          "type": "address"
        },
        {
          "indexed": false,
          "name": "newNullSettlementState",
          "type": "address"
        }
      ],
      "name": "SetNullSettlementStateEvent",
      "type": "event"
    },
    {
      "anonymous": false,
      "inputs": [
        {
          "indexed": false,
          "name": "oldDriipSettlementChallengeState",
          "type": "address"
        },
        {
          "indexed": false,
          "name": "newDriipSettlementChallengeState",
          "type": "address"
        }
      ],
      "name": "SetDriipSettlementChallengeStateEvent",
      "type": "event"
    },
    {
      "anonymous": false,
      "inputs": [
        {
          "indexed": false,
          "name": "wallet",
          "type": "address"
        },
        {
          "indexed": false,
          "name": "nonce",
          "type": "uint256"
        },
        {
          "indexed": false,
          "name": "stageAmount",
          "type": "int256"
        },
        {
          "indexed": false,
          "name": "targetBalanceAmount",
          "type": "int256"
        },
        {
          "indexed": false,
          "name": "currencyCt",
          "type": "address"
        },
        {
          "indexed": false,
          "name": "currencyId",
          "type": "uint256"
        }
      ],
      "name": "StartChallengeEvent",
      "type": "event"
    },
    {
      "anonymous": false,
      "inputs": [
        {
          "indexed": false,
          "name": "wallet",
          "type": "address"
        },
        {
          "indexed": false,
          "name": "nonce",
          "type": "uint256"
        },
        {
          "indexed": false,
          "name": "stageAmount",
          "type": "int256"
        },
        {
          "indexed": false,
          "name": "targetBalanceAmount",
          "type": "int256"
        },
        {
          "indexed": false,
          "name": "currencyCt",
          "type": "address"
        },
        {
          "indexed": false,
          "name": "currencyId",
          "type": "uint256"
        },
        {
          "indexed": false,
          "name": "proxy",
          "type": "address"
        }
      ],
      "name": "StartChallengeByProxyEvent",
      "type": "event"
    },
    {
      "anonymous": false,
      "inputs": [
        {
          "indexed": false,
          "name": "wallet",
          "type": "address"
        },
        {
          "indexed": false,
          "name": "nonce",
          "type": "uint256"
        },
        {
          "indexed": false,
          "name": "stageAmount",
          "type": "int256"
        },
        {
          "indexed": false,
          "name": "targetBalanceAmount",
          "type": "int256"
        },
        {
          "indexed": false,
          "name": "currencyCt",
          "type": "address"
        },
        {
          "indexed": false,
          "name": "currencyId",
          "type": "uint256"
        }
      ],
      "name": "StopChallengeEvent",
      "type": "event"
    },
    {
      "anonymous": false,
      "inputs": [
        {
          "indexed": false,
          "name": "wallet",
          "type": "address"
        },
        {
          "indexed": false,
          "name": "nonce",
          "type": "uint256"
        },
        {
          "indexed": false,
          "name": "stageAmount",
          "type": "int256"
        },
        {
          "indexed": false,
          "name": "targetBalanceAmount",
          "type": "int256"
        },
        {
          "indexed": false,
          "name": "currencyCt",
          "type": "address"
        },
        {
          "indexed": false,
          "name": "currencyId",
          "type": "uint256"
        },
        {
          "indexed": false,
          "name": "proxy",
          "type": "address"
        }
      ],
      "name": "StopChallengeByProxyEvent",
      "type": "event"
    },
    {
      "anonymous": false,
      "inputs": [
        {
          "indexed": false,
          "name": "challengedWallet",
          "type": "address"
        },
        {
          "indexed": false,
          "name": "nonce",
          "type": "uint256"
        },
        {
          "indexed": false,
          "name": "stageAmount",
          "type": "int256"
        },
        {
          "indexed": false,
          "name": "targetBalanceAmount",
          "type": "int256"
        },
        {
          "indexed": false,
          "name": "currencyCt",
          "type": "address"
        },
        {
          "indexed": false,
          "name": "currencyId",
          "type": "uint256"
        },
        {
          "indexed": false,
          "name": "challengerWallet",
          "type": "address"
        }
      ],
      "name": "ChallengeByPaymentEvent",
      "type": "event"
    },
    {
      "anonymous": false,
      "inputs": [
        {
          "indexed": false,
          "name": "oldWalletLocker",
          "type": "address"
        },
        {
          "indexed": false,
          "name": "newWalletLocker",
          "type": "address"
        }
      ],
      "name": "SetWalletLockerEvent",
      "type": "event"
    },
    {
      "anonymous": false,
      "inputs": [],
      "name": "FreezeWalletLockerEvent",
      "type": "event"
    },
    {
      "anonymous": false,
      "inputs": [
        {
          "indexed": false,
          "name": "oldBalanceTracker",
          "type": "address"
        },
        {
          "indexed": false,
          "name": "newBalanceTracker",
          "type": "address"
        }
      ],
      "name": "SetBalanceTrackerEvent",
      "type": "event"
    },
    {
      "anonymous": false,
      "inputs": [],
      "name": "FreezeBalanceTrackerEvent",
      "type": "event"
    },
    {
      "anonymous": false,
      "inputs": [
        {
          "indexed": false,
          "name": "oldConfiguration",
          "type": "address"
        },
        {
          "indexed": false,
          "name": "newConfiguration",
          "type": "address"
        }
      ],
      "name": "SetConfigurationEvent",
      "type": "event"
    },
    {
      "anonymous": false,
      "inputs": [
        {
          "indexed": false,
          "name": "oldDeployer",
          "type": "address"
        },
        {
          "indexed": false,
          "name": "newDeployer",
          "type": "address"
        }
      ],
      "name": "SetDeployerEvent",
      "type": "event"
    },
    {
      "anonymous": false,
      "inputs": [
        {
          "indexed": false,
          "name": "oldOperator",
          "type": "address"
        },
        {
          "indexed": false,
          "name": "newOperator",
          "type": "address"
        }
      ],
      "name": "SetOperatorEvent",
      "type": "event"
    },
    {
      "anonymous": false,
      "inputs": [
        {
          "indexed": false,
          "name": "wallet",
          "type": "address"
        }
      ],
      "name": "SelfDestructionDisabledEvent",
      "type": "event"
    },
    {
      "anonymous": false,
      "inputs": [
        {
          "indexed": false,
          "name": "wallet",
          "type": "address"
        }
      ],
      "name": "TriggerSelfDestructionEvent",
      "type": "event"
    },
    {
      "constant": false,
      "inputs": [
        {
          "name": "newNullSettlementDisputeByPayment",
          "type": "address"
        }
      ],
      "name": "setNullSettlementDisputeByPayment",
      "outputs": [],
      "payable": false,
      "stateMutability": "nonpayable",
      "type": "function"
    },
    {
      "constant": false,
      "inputs": [
        {
          "name": "newNullSettlementChallengeState",
          "type": "address"
        }
      ],
      "name": "setNullSettlementChallengeState",
      "outputs": [],
      "payable": false,
      "stateMutability": "nonpayable",
      "type": "function"
    },
    {
      "constant": false,
      "inputs": [
        {
          "name": "newNullSettlementState",
          "type": "address"
        }
      ],
      "name": "setNullSettlementState",
      "outputs": [],
      "payable": false,
      "stateMutability": "nonpayable",
      "type": "function"
    },
    {
      "constant": false,
      "inputs": [
        {
          "name": "newDriipSettlementChallengeState",
          "type": "address"
        }
      ],
      "name": "setDriipSettlementChallengeState",
      "outputs": [],
      "payable": false,
      "stateMutability": "nonpayable",
      "type": "function"
    },
    {
      "constant": false,
      "inputs": [
        {
          "name": "amount",
          "type": "int256"
        },
        {
          "name": "currencyCt",
          "type": "address"
        },
        {
          "name": "currencyId",
          "type": "uint256"
        }
      ],
      "name": "startChallenge",
      "outputs": [],
      "payable": false,
      "stateMutability": "nonpayable",
      "type": "function"
    },
    {
      "constant": false,
      "inputs": [
        {
          "name": "wallet",
          "type": "address"
        },
        {
          "name": "amount",
          "type": "int256"
        },
        {
          "name": "currencyCt",
          "type": "address"
        },
        {
          "name": "currencyId",
          "type": "uint256"
        }
      ],
      "name": "startChallengeByProxy",
      "outputs": [],
      "payable": false,
      "stateMutability": "nonpayable",
      "type": "function"
    },
    {
      "constant": false,
      "inputs": [
        {
          "name": "currencyCt",
          "type": "address"
        },
        {
          "name": "currencyId",
          "type": "uint256"
        }
      ],
      "name": "stopChallenge",
      "outputs": [],
      "payable": false,
      "stateMutability": "nonpayable",
      "type": "function"
    },
    {
      "constant": false,
      "inputs": [
        {
          "name": "wallet",
          "type": "address"
        },
        {
          "name": "currencyCt",
          "type": "address"
        },
        {
          "name": "currencyId",
          "type": "uint256"
        }
      ],
      "name": "stopChallengeByProxy",
      "outputs": [],
      "payable": false,
      "stateMutability": "nonpayable",
      "type": "function"
    },
    {
      "constant": true,
      "inputs": [
        {
          "name": "wallet",
          "type": "address"
        },
        {
          "name": "currencyCt",
          "type": "address"
        },
        {
          "name": "currencyId",
          "type": "uint256"
        }
      ],
      "name": "hasProposalExpired",
      "outputs": [
        {
          "name": "",
          "type": "bool"
        }
      ],
      "payable": false,
      "stateMutability": "view",
      "type": "function"
    },
    {
      "constant": true,
      "inputs": [
        {
          "name": "wallet",
          "type": "address"
        },
        {
          "name": "currencyCt",
          "type": "address"
        },
        {
          "name": "currencyId",
          "type": "uint256"
        }
      ],
      "name": "proposalNonce",
      "outputs": [
        {
          "name": "",
          "type": "uint256"
        }
      ],
      "payable": false,
      "stateMutability": "view",
      "type": "function"
    },
    {
      "constant": true,
      "inputs": [
        {
          "name": "wallet",
          "type": "address"
        },
        {
          "name": "currencyCt",
          "type": "address"
        },
        {
          "name": "currencyId",
          "type": "uint256"
        }
      ],
      "name": "proposalBlockNumber",
      "outputs": [
        {
          "name": "",
          "type": "uint256"
        }
      ],
      "payable": false,
      "stateMutability": "view",
      "type": "function"
    },
    {
      "constant": true,
      "inputs": [
        {
          "name": "wallet",
          "type": "address"
        },
        {
          "name": "currencyCt",
          "type": "address"
        },
        {
          "name": "currencyId",
          "type": "uint256"
        }
      ],
      "name": "proposalExpirationTime",
      "outputs": [
        {
          "name": "",
          "type": "uint256"
        }
      ],
      "payable": false,
      "stateMutability": "view",
      "type": "function"
    },
    {
      "constant": true,
      "inputs": [
        {
          "name": "wallet",
          "type": "address"
        },
        {
          "name": "currencyCt",
          "type": "address"
        },
        {
          "name": "currencyId",
          "type": "uint256"
        }
      ],
      "name": "proposalStatus",
      "outputs": [
        {
          "name": "",
          "type": "uint8"
        }
      ],
      "payable": false,
      "stateMutability": "view",
      "type": "function"
    },
    {
      "constant": true,
      "inputs": [
        {
          "name": "wallet",
          "type": "address"
        },
        {
          "name": "currencyCt",
          "type": "address"
        },
        {
          "name": "currencyId",
          "type": "uint256"
        }
      ],
      "name": "proposalStageAmount",
      "outputs": [
        {
          "name": "",
          "type": "int256"
        }
      ],
      "payable": false,
      "stateMutability": "view",
      "type": "function"
    },
    {
      "constant": true,
      "inputs": [
        {
          "name": "wallet",
          "type": "address"
        },
        {
          "name": "currencyCt",
          "type": "address"
        },
        {
          "name": "currencyId",
          "type": "uint256"
        }
      ],
      "name": "proposalTargetBalanceAmount",
      "outputs": [
        {
          "name": "",
          "type": "int256"
        }
      ],
      "payable": false,
      "stateMutability": "view",
      "type": "function"
    },
    {
      "constant": true,
      "inputs": [
        {
          "name": "wallet",
          "type": "address"
        },
        {
          "name": "currencyCt",
          "type": "address"
        },
        {
          "name": "currencyId",
          "type": "uint256"
        }
      ],
      "name": "proposalWalletInitiated",
      "outputs": [
        {
          "name": "",
          "type": "bool"
        }
      ],
      "payable": false,
      "stateMutability": "view",
      "type": "function"
    },
    {
      "constant": true,
      "inputs": [
        {
          "name": "wallet",
          "type": "address"
        },
        {
          "name": "currencyCt",
          "type": "address"
        },
        {
          "name": "currencyId",
          "type": "uint256"
        }
      ],
      "name": "proposalDisqualificationChallenger",
      "outputs": [
        {
          "name": "",
          "type": "address"
        }
      ],
      "payable": false,
      "stateMutability": "view",
      "type": "function"
    },
    {
      "constant": true,
      "inputs": [
        {
          "name": "wallet",
          "type": "address"
        },
        {
          "name": "currencyCt",
          "type": "address"
        },
        {
          "name": "currencyId",
          "type": "uint256"
        }
      ],
      "name": "proposalDisqualificationBlockNumber",
      "outputs": [
        {
          "name": "",
          "type": "uint256"
        }
      ],
      "payable": false,
      "stateMutability": "view",
      "type": "function"
    },
    {
      "constant": true,
      "inputs": [
        {
          "name": "wallet",
          "type": "address"
        },
        {
          "name": "currencyCt",
          "type": "address"
        },
        {
          "name": "currencyId",
          "type": "uint256"
        }
      ],
      "name": "proposalDisqualificationCandidateKind",
      "outputs": [
        {
          "name": "",
          "type": "string"
        }
      ],
      "payable": false,
      "stateMutability": "view",
      "type": "function"
    },
    {
      "constant": true,
      "inputs": [
        {
          "name": "wallet",
          "type": "address"
        },
        {
          "name": "currencyCt",
          "type": "address"
        },
        {
          "name": "currencyId",
          "type": "uint256"
        }
      ],
      "name": "proposalDisqualificationCandidateHash",
      "outputs": [
        {
          "name": "",
          "type": "bytes32"
        }
      ],
      "payable": false,
      "stateMutability": "view",
      "type": "function"
    },
    {
      "constant": false,
      "inputs": [
        {
          "name": "wallet",
          "type": "address"
        },
        {
          "components": [
            {
              "name": "nonce",
              "type": "uint256"
            },
            {
              "name": "amount",
              "type": "int256"
            },
            {
              "components": [
                {
                  "name": "ct",
                  "type": "address"
                },
                {
                  "name": "id",
                  "type": "uint256"
                }
              ],
              "name": "currency",
              "type": "tuple"
            },
            {
              "components": [
                {
                  "name": "nonce",
                  "type": "uint256"
                },
                {
                  "name": "wallet",
                  "type": "address"
                },
                {
                  "components": [
                    {
                      "name": "current",
                      "type": "int256"
                    },
                    {
                      "name": "previous",
                      "type": "int256"
                    }
                  ],
                  "name": "balances",
                  "type": "tuple"
                },
                {
                  "components": [
                    {
                      "components": [
                        {
                          "name": "amount",
                          "type": "int256"
                        },
                        {
                          "components": [
                            {
                              "name": "ct",
                              "type": "address"
                            },
                            {
                              "name": "id",
                              "type": "uint256"
                            }
                          ],
                          "name": "currency",
                          "type": "tuple"
                        }
                      ],
                      "name": "single",
                      "type": "tuple"
                    },
                    {
                      "components": [
                        {
                          "name": "originId",
                          "type": "uint256"
                        },
                        {
                          "components": [
                            {
                              "name": "amount",
                              "type": "int256"
                            },
                            {
                              "components": [
                                {
                                  "name": "ct",
                                  "type": "address"
                                },
                                {
                                  "name": "id",
                                  "type": "uint256"
                                }
                              ],
                              "name": "currency",
                              "type": "tuple"
                            }
                          ],
                          "name": "figure",
                          "type": "tuple"
                        }
                      ],
                      "name": "total",
                      "type": "tuple[]"
                    }
                  ],
                  "name": "fees",
                  "type": "tuple"
                }
              ],
              "name": "sender",
              "type": "tuple"
            },
            {
              "components": [
                {
                  "name": "nonce",
                  "type": "uint256"
                },
                {
                  "name": "wallet",
                  "type": "address"
                },
                {
                  "components": [
                    {
                      "name": "current",
                      "type": "int256"
                    },
                    {
                      "name": "previous",
                      "type": "int256"
                    }
                  ],
                  "name": "balances",
                  "type": "tuple"
                },
                {
                  "components": [
                    {
                      "components": [
                        {
                          "name": "originId",
                          "type": "uint256"
                        },
                        {
                          "components": [
                            {
                              "name": "amount",
                              "type": "int256"
                            },
                            {
                              "components": [
                                {
                                  "name": "ct",
                                  "type": "address"
                                },
                                {
                                  "name": "id",
                                  "type": "uint256"
                                }
                              ],
                              "name": "currency",
                              "type": "tuple"
                            }
                          ],
                          "name": "figure",
                          "type": "tuple"
                        }
                      ],
                      "name": "total",
                      "type": "tuple[]"
                    }
                  ],
                  "name": "fees",
                  "type": "tuple"
                }
              ],
              "name": "recipient",
              "type": "tuple"
            },
            {
              "components": [
                {
                  "name": "single",
                  "type": "int256"
                },
                {
                  "name": "total",
                  "type": "int256"
                }
              ],
              "name": "transfers",
              "type": "tuple"
            },
            {
              "components": [
                {
                  "components": [
                    {
                      "name": "hash",
                      "type": "bytes32"
                    },
                    {
                      "components": [
                        {
                          "name": "r",
                          "type": "bytes32"
                        },
                        {
                          "name": "s",
                          "type": "bytes32"
                        },
                        {
                          "name": "v",
                          "type": "uint8"
                        }
                      ],
                      "name": "signature",
                      "type": "tuple"
                    }
                  ],
                  "name": "wallet",
                  "type": "tuple"
                },
                {
                  "components": [
                    {
                      "name": "hash",
                      "type": "bytes32"
                    },
                    {
                      "components": [
                        {
                          "name": "r",
                          "type": "bytes32"
                        },
                        {
                          "name": "s",
                          "type": "bytes32"
                        },
                        {
                          "name": "v",
                          "type": "uint8"
                        }
                      ],
                      "name": "signature",
                      "type": "tuple"
                    }
                  ],
                  "name": "operator",
                  "type": "tuple"
                }
              ],
              "name": "seals",
              "type": "tuple"
            },
            {
              "name": "blockNumber",
              "type": "uint256"
            },
            {
              "name": "operatorId",
              "type": "uint256"
            }
          ],
          "name": "payment",
          "type": "tuple"
        }
      ],
      "name": "challengeByPayment",
      "outputs": [],
      "payable": false,
      "stateMutability": "nonpayable",
      "type": "function"
    }
  ],
  "bytecode": "0x60806040523480156200001157600080fd5b50604051602080620037538339810180604052620000339190810190620000b6565b8080600160a060020a03811615156200004b57600080fd5b600160a060020a0381163014156200006257600080fd5b506000805461010060a860020a031916610100600160a060020a039390931692830217905560018054600160a060020a031916909117905550620000eb565b6000620000af8251620000df565b9392505050565b600060208284031215620000c957600080fd5b6000620000d78484620000a1565b949350505050565b600160a060020a031690565b61365880620000fb6000396000f3006080604052600436106101f55763ffffffff60e060020a6000350416630712abb081146101fa5780631698792914610230578063191390921461025d578063240625d81461027f5780632738a112146102a15780632aa1c9d9146102b85780632f013a00146102d85780633a9a5169146102ed5780633bebdcb51461030d5780633e59b7061461032d57806342cb458714610342578063432737a9146103625780634476d23b1461037757806351d7cd6114610399578063570ca735146103ae578063598b75ad146103c35780635dc60def146103e3578063627f09c3146103f85780636c70bee9146104185780636ccb43c81461042d57806370327ea11461044d57806379bf6b36146104625780637da5b11c14610477578063892860b21461049757806396214735146104b7578063972fcee0146104d7578063adfb6778146104f7578063b3ab15fb14610517578063b52d470a14610537578063c19df1e41461054c578063c1c681651461056c578063ca7f47ed1461058c578063cdbf9419146105b9578063d5b68c62146105d9578063d5f39488146105f9578063da5a3b701461060e578063e8ae41e31461062e578063ed8a829d14610643578063f7b8761714610663578063fa7424f214610683578063fb1a825e14610698578063fca5192b146106b8578063fcd30b02146106d8575b600080fd5b34801561020657600080fd5b5061021a610215366004612d0a565b6106f8565b60405161022791906134e8565b60405180910390f35b34801561023c57600080fd5b5061025061024b366004612d0a565b6107a0565b60405161022791906134b1565b34801561026957600080fd5b5061027261083e565b60405161022791906134bf565b34801561028b57600080fd5b5061029461084d565b60405161022791906134a3565b3480156102ad57600080fd5b506102b661085d565b005b3480156102c457600080fd5b506102b66102d3366004612e75565b6108c3565b3480156102e457600080fd5b50610294610954565b3480156102f957600080fd5b506102b6610308366004612e75565b61095d565b34801561031957600080fd5b50610294610328366004612d0a565b6109e1565b34801561033957600080fd5b50610294610a7f565b34801561034e57600080fd5b5061025061035d366004612d0a565b610a8f565b34801561036e57600080fd5b50610272610adb565b34801561038357600080fd5b5061038c610aea565b60405161022791906132b4565b3480156103a557600080fd5b50610272610afe565b3480156103ba57600080fd5b5061038c610b0d565b3480156103cf57600080fd5b506102b66103de366004612e75565b610b1c565b3480156103ef57600080fd5b506102b6610bdb565b34801561040457600080fd5b506102b6610413366004612e75565b610c2f565b34801561042457600080fd5b50610272610cc7565b34801561043957600080fd5b506102b6610448366004612e75565b610cd6565b34801561045957600080fd5b506102b6610d5a565b34801561046e57600080fd5b50610272610dbd565b34801561048357600080fd5b50610294610492366004612d0a565b610dcc565b3480156104a357600080fd5b506102b66104b2366004612e75565b610e18565b3480156104c357600080fd5b506102b66104d2366004612cc6565b610ec7565b3480156104e357600080fd5b506102b66104f2366004612d0a565b610f85565b34801561050357600080fd5b50610250610512366004612d0a565b6111ff565b34801561052357600080fd5b506102b6610532366004612cc6565b61124b565b34801561054357600080fd5b506102b66112f5565b34801561055857600080fd5b506102b6610567366004612e09565b611349565b34801561057857600080fd5b506102b6610587366004612eb1565b6115ad565b34801561059857600080fd5b506105ac6105a7366004612d0a565b6117c2565b60405161022791906134f6565b3480156105c557600080fd5b506102506105d4366004612d0a565b611864565b3480156105e557600080fd5b506102506105f4366004612d0a565b6118b0565b34801561060557600080fd5b5061038c6118fc565b34801561061a57600080fd5b506102b6610629366004612e75565b611910565b34801561063a57600080fd5b50610272611994565b34801561064f57600080fd5b506102b661065e366004612db8565b6119a3565b34801561066f57600080fd5b506102b661067e366004612d57565b611c93565b34801561068f57600080fd5b50610272611e21565b3480156106a457600080fd5b506102506106b3366004612d0a565b611e30565b3480156106c457600080fd5b506102506106d3366004612d0a565b611e7c565b3480156106e457600080fd5b5061038c6106f3366004612d0a565b611ec8565b600654604080518082018252600160a060020a03858116825260208201859052915160e060020a63b6e2fc33028152600093929092169163b6e2fc339161074491889190600401613312565b602060405180830381600087803b15801561075e57600080fd5b505af1158015610772573d6000803e3d6000fd5b505050506040513d601f19601f820116820180604052506107969190810190612e93565b90505b9392505050565b600654604080518082018252600160a060020a03858116825260208201859052915160e060020a63c46fcd75028152600093929092169163c46fcd75916107ec91889190600401613312565b602060405180830381600087803b15801561080657600080fd5b505af115801561081a573d6000803e3d6000fd5b505050506040513d601f19601f820116820180604052506107969190810190612e57565b600354600160a060020a031681565b60045460a060020a900460ff1681565b33610866610aea565b600160a060020a03161461087957600080fd5b60005460ff161561088957600080fd5b7f787a5d936e74f4b564b9153575886059829c78cd9927b1be5e0d976b317ef736336040516108b891906132b4565b60405180910390a133ff5b60006108cd611f66565b15156108d857600080fd5b81600160a060020a03811615156108ee57600080fd5b60088054600160a060020a03858116600160a060020a03198316179283905560405191811694507f4f7125332801996cdeaabf9cff1ac89ddf4b52c673558936affe853ab64a88da9261094792869291909116906134cd565b60405180910390a1505050565b60005460ff1681565b6000610967611f66565b151561097257600080fd5b81600160a060020a038116151561098857600080fd5b60058054600160a060020a03858116600160a060020a03198316179283905560405191811694507fc6df38d22dc8a254e1252fc1b697f23c5120d8f4b93ee52e02c167913724e5a19261094792869291909116906134cd565b600654604080518082018252600160a060020a03858116825260208201859052915160e060020a635482c7350281526000939290921691635482c73591610a2d91889190600401613312565b602060405180830381600087803b158015610a4757600080fd5b505af1158015610a5b573d6000803e3d6000fd5b505050506040513d601f19601f820116820180604052506107969190810190612e39565b60035460a060020a900460ff1681565b600654604080518082018252600160a060020a03858116825260208201859052915160e160020a633007230f028152600093929092169163600e461e916107ec91889190600401613312565b600554600160a060020a031681565b6000546101009004600160a060020a031690565b600854600160a060020a031681565b600154600160a060020a031681565b6000610b26611f66565b1515610b3157600080fd5b81600160a060020a0381161515610b4757600080fd5b6003548390600160a060020a039081169082168114610bd45760035460a060020a900460ff1615610b7757600080fd5b60038054600160a060020a03878116600160a060020a0319831617909255604051911694507fb2a91d3a71b0c5bc7c083153b3474378e489506ba98bd4ddb1b9056fdc594bb590610bcb90869088906134cd565b60405180910390a15b5050505050565b610be3611f66565b1515610bee57600080fd5b6004805460a060020a60ff02191660a060020a1790556040517f56ec8900b9c4bf84f4b715a53068ca06961dd49084c07b481931e2c2045346e690600090a1565b6000610c39611f66565b1515610c4457600080fd5b81600160a060020a0381161515610c5a57600080fd5b6002548390600160a060020a039081169082168114610bd45760028054600160a060020a03878116600160a060020a0319831617909255604051911694507f634f61bf00e14adedce330c80c2823e16e184f189ebe853e1ddecc4a268477ff90610bcb90869088906134cd565b600254600160a060020a031681565b6000610ce0611f66565b1515610ceb57600080fd5b81600160a060020a0381161515610d0157600080fd5b60068054600160a060020a03858116600160a060020a03198316179283905560405191811694507ff21c127205310467822e10c64b2d9ffae588e019194d6af71f2bdddc0b7ef5269261094792869291909116906134cd565b33610d63610aea565b600160a060020a031614610d7657600080fd5b6000805460ff191660011790556040517fd5a2a04a775c741c2ca0dc46ea7ce4835190e1aaf1ca018def0e82568ec3361690610db39033906132b4565b60405180910390a1565b600754600160a060020a031681565b600654604080518082018252600160a060020a03858116825260208201859052915160e260020a6333ca4eab028152600093929092169163cf293aac91610a2d91889190600401613312565b6000610e22611f66565b1515610e2d57600080fd5b81600160a060020a0381161515610e4357600080fd5b6004548390600160a060020a039081169082168114610bd45760045460a060020a900460ff1615610e7357600080fd5b60048054600160a060020a03878116600160a060020a0319831617909255604051911694507fa44d361e26327b72a7ccbeae801b3c5cd7677ea4fa74168b289e273c46bfecfc90610bcb90869088906134cd565b6000610ed1611f66565b1515610edc57600080fd5b81600160a060020a0381161515610ef257600080fd5b600160a060020a038116301415610f0857600080fd5b600054600160a060020a038481166101009092041614610f805760008054600160a060020a0385811661010090810261010060a860020a0319841617909355604051929091041692507f977e5fa58e458501775e0008d275006294c5249e3c08d1d0e3a9f3acad14f6e49061094790849086906132c2565b505050565b610f8d612729565b610f95611f7c565b1515610fa057600080fd5b50604080518082018252600160a060020a03808516825260208201849052600654925160e060020a632ee2ed2502815291927f331a7a95f54f8fd2f704fc347c5fbc74dbe69df9d036ab5ab588141816c9ce719287929190911690632ee2ed25906110119084908790600401613312565b602060405180830381600087803b15801561102b57600080fd5b505af115801561103f573d6000803e3d6000fd5b505050506040513d601f19601f820116820180604052506110639190810190612e57565b60065460405160e160020a633007230f028152600160a060020a039091169063600e461e90611098908a908890600401613312565b602060405180830381600087803b1580156110b257600080fd5b505af11580156110c6573d6000803e3d6000fd5b505050506040513d601f19601f820116820180604052506110ea9190810190612e57565b60065460405160e060020a63c46fcd75028152600160a060020a039091169063c46fcd759061111f908b908990600401613312565b602060405180830381600087803b15801561113957600080fd5b505af115801561114d573d6000803e3d6000fd5b505050506040513d601f19601f820116820180604052506111719190810190612e57565b87873360405161118797969594939291906133de565b60405180910390a160065460405160e460020a63052a0dd1028152600160a060020a03909116906352a0dd10906111c7908790859060009060040161332d565b600060405180830381600087803b1580156111e157600080fd5b505af11580156111f5573d6000803e3d6000fd5b5050505050505050565b600654604080518082018252600160a060020a03858116825260208201859052915160e060020a631b90e3c10281526000939290921691631b90e3c1916107ec91889190600401613312565b6000611255611f7c565b151561126057600080fd5b81600160a060020a038116151561127657600080fd5b600160a060020a03811630141561128c57600080fd5b600154600160a060020a03848116911614610f805760018054600160a060020a03858116600160a060020a0319831617909255604051911692507f9f611b789425d0d5b90b920f1b2852907dd865c80074a30b1629aaa041d1812c9061094790849086906132c2565b6112fd611f66565b151561130857600080fd5b6003805460a060020a60ff02191660a060020a1790556040517f9c567b65fe8caab5ec7bc979a498a1322c1d4baf01a30727cbca137187560ea290600090a1565b611351612729565b50604080518082018252600160a060020a03808516825260208201849052600654925160e060020a632ee2ed2502815291927f2f3367cd03f2b565585b46dd1847e4281e1da4344ee0951b37a4e3744429ee719233929190911690632ee2ed25906113c29084908790600401613312565b602060405180830381600087803b1580156113dc57600080fd5b505af11580156113f0573d6000803e3d6000fd5b505050506040513d601f19601f820116820180604052506114149190810190612e57565b60065460405160e160020a633007230f028152600160a060020a039091169063600e461e906114499033908890600401613312565b602060405180830381600087803b15801561146357600080fd5b505af1158015611477573d6000803e3d6000fd5b505050506040513d601f19601f8201168201806040525061149b9190810190612e57565b60065460405160e060020a63c46fcd75028152600160a060020a039091169063c46fcd75906114d09033908990600401613312565b602060405180830381600087803b1580156114ea57600080fd5b505af11580156114fe573d6000803e3d6000fd5b505050506040513d601f19601f820116820180604052506115229190810190612e57565b878760405161153696959493929190613384565b60405180910390a160065460405160e460020a63052a0dd1028152600160a060020a03909116906352a0dd1090611576903390859060019060040161332d565b600060405180830381600087803b15801561159057600080fd5b505af11580156115a4573d6000803e3d6000fd5b50505050505050565b6115b5612729565b6004805460405160e260020a631293efbb028152600160a060020a0390911691634a4fbeec916115e7913391016132b4565b602060405180830381600087803b15801561160157600080fd5b505af1158015611615573d6000803e3d6000fd5b505050506040513d601f19601f820116820180604052506116399190810190612e39565b1561164357600080fd5b5060408051808201909152600160a060020a03831681526020810182905261166e3385836001611f8d565b60065460405160e060020a632ee2ed250281527f9fd18f38c7e2276025a98cb5db3f31de60aafb2e54cc249475b00ed551204037913391600160a060020a0390911690632ee2ed25906116c79084908790600401613312565b602060405180830381600087803b1580156116e157600080fd5b505af11580156116f5573d6000803e3d6000fd5b505050506040513d601f19601f820116820180604052506117199190810190612e57565b60065460405160e060020a63c46fcd750281528891600160a060020a03169063c46fcd759061174e9033908990600401613312565b602060405180830381600087803b15801561176857600080fd5b505af115801561177c573d6000803e3d6000fd5b505050506040513d601f19601f820116820180604052506117a09190810190612e57565b87876040516117b496959493929190613384565b60405180910390a150505050565b600654604080518082018252600160a060020a03858116825260208201859052915160e160020a63160ed0cd0281526060939290921691632c1da19a9161180e91889190600401613312565b600060405180830381600087803b15801561182857600080fd5b505af115801561183c573d6000803e3d6000fd5b505050506040513d6000823e601f3d908101601f191682016040526107969190810190612f02565b600654604080518082018252600160a060020a03858116825260208201859052915160e060020a632ee2ed250281526000939290921691632ee2ed25916107ec91889190600401613312565b600654604080518082018252600160a060020a03858116825260208201859052915160e160020a6345a76a610281526000939290921691638b4ed4c2916107ec91889190600401613312565b6000546101009004600160a060020a031681565b600061191a611f66565b151561192557600080fd5b81600160a060020a038116151561193b57600080fd5b60078054600160a060020a03858116600160a060020a03198316179283905560405191811694507f7983934b0c7a4c64fbf3454ed2053b3bc71c8fd637308a7d2ee8eb51cbc68e359261094792869291909116906134cd565b600454600160a060020a031681565b600260009054906101000a9004600160a060020a0316600160a060020a031663f71e860f6040518163ffffffff1660e060020a028152600401602060405180830381600087803b1580156119f657600080fd5b505af1158015611a0a573d6000803e3d6000fd5b505050506040513d601f19601f82011682018060405250611a2e9190810190612e39565b1515611a3957600080fd5b60055460405160e260020a631a49a0cb028152600160a060020a0390911690636926832c90611a7090859085903390600401613355565b600060405180830381600087803b158015611a8a57600080fd5b505af1158015611a9e573d6000803e3d6000fd5b5050600654604080850151905160e060020a632ee2ed250281527f816c32add3b1eb6d7b4021fb065f85035aa258ad260c90b7d62dec06994e7d0d9450869350600160a060020a0390921691632ee2ed2591611aff91859190600401613312565b602060405180830381600087803b158015611b1957600080fd5b505af1158015611b2d573d6000803e3d6000fd5b505050506040513d601f19601f82011682018060405250611b519190810190612e57565b600654604080860151905160e160020a633007230f028152600160a060020a039092169163600e461e91611b8a91899190600401613312565b602060405180830381600087803b158015611ba457600080fd5b505af1158015611bb8573d6000803e3d6000fd5b505050506040513d601f19601f82011682018060405250611bdc9190810190612e57565b600654604080870151905160e060020a63c46fcd75028152600160a060020a039092169163c46fcd7591611c15918a9190600401613312565b602060405180830381600087803b158015611c2f57600080fd5b505af1158015611c43573d6000803e3d6000fd5b505050506040513d601f19601f82011682018060405250611c679190810190612e57565b60408087015180516020909101519151611c8796959493929033906133de565b60405180910390a15050565b611c9b612729565b611ca3611f7c565b1515611cae57600080fd5b5060408051808201909152600160a060020a038316815260208101829052611cd98585836000611f8d565b60065460405160e060020a632ee2ed250281527f1c1550c804afba781c62ad68b7d90fa1fcbb95c8181a5cce15e5973c7ab0cfdc918791600160a060020a0390911690632ee2ed2590611d329084908790600401613312565b602060405180830381600087803b158015611d4c57600080fd5b505af1158015611d60573d6000803e3d6000fd5b505050506040513d601f19601f82011682018060405250611d849190810190612e57565b60065460405160e060020a63c46fcd750281528891600160a060020a03169063c46fcd7590611db9908c908990600401613312565b602060405180830381600087803b158015611dd357600080fd5b505af1158015611de7573d6000803e3d6000fd5b505050506040513d601f19601f82011682018060405250611e0b9190810190612e57565b878733604051610bcb97969594939291906133de565b600654600160a060020a031681565b600654604080518082018252600160a060020a03858116825260208201859052915160e060020a6356ec907502815260009392909216916356ec9075916107ec91889190600401613312565b600654604080518082018252600160a060020a03858116825260208201859052915160e060020a6309df8b0b02815260009392909216916309df8b0b916107ec91889190600401613312565b600654604080518082018252600160a060020a03858116825260208201859052915160e060020a63565872290281526000939290921691635658722991611f1491889190600401613312565b602060405180830381600087803b158015611f2e57600080fd5b505af1158015611f42573d6000803e3d6000fd5b505050506040513d601f19601f820116820180604052506107969190810190612cec565b6000546101009004600160a060020a0316331490565b600154600160a060020a0316331490565b6000806000806000600260009054906101000a9004600160a060020a0316600160a060020a031663b6bf41766040518163ffffffff1660e060020a028152600401602060405180830381600087803b158015611fe857600080fd5b505af1158015611ffc573d6000803e3d6000fd5b505050506040513d601f19601f820116820180604052506120209190810190612e57565b43101561202c57600080fd5b60065460405160e060020a635482c735028152600160a060020a0390911690635482c73590612061908c908b90600401613312565b602060405180830381600087803b15801561207b57600080fd5b505af115801561208f573d6000803e3d6000fd5b505050506040513d601f19601f820116820180604052506120b39190810190612e39565b15156120be57600080fd5b6120c88988612214565b60075460405160e060020a633858654b0281529499509297509095509350600160a060020a031690633858654b90612106908c908b90600401613312565b602060405180830381600087803b15801561212057600080fd5b505af1158015612134573d6000803e3d6000fd5b505050506040513d601f19601f820116820180604052506121589190810190612e57565b600654909150600160a060020a0316633e169c5a8a61217e84600163ffffffff6123e516565b8b6121af6121a2826121968b8b63ffffffff6123f416565b9063ffffffff6123f416565b8b9063ffffffff61242916565b8c8a8d6040518863ffffffff1660e060020a0281526004016121d79796959493929190613446565b600060405180830381600087803b1580156121f157600080fd5b505af1158015612205573d6000803e3d6000fd5b50505050505050505050505050565b60035460009081908190819061223a90600160a060020a0316878763ffffffff61246a16565b60085460405160e360020a63076470a5028152929650909450600160a060020a031690633b238528906122739089908990600401613312565b602060405180830381600087803b15801561228d57600080fd5b505af11580156122a1573d6000803e3d6000fd5b505050506040513d601f19601f820116820180604052506122c59190810190612e39565b156123dc5760085460405160e060020a638ab3e965028152600160a060020a0390911690638ab3e965906122ff9089908990600401613312565b602060405180830381600087803b15801561231957600080fd5b505af115801561232d573d6000803e3d6000fd5b505050506040513d601f19601f820116820180604052506123519190810190612e57565b60085460405160e160020a633007230f028152919350600160a060020a03169063600e461e906123879089908990600401613312565b602060405180830381600087803b1580156123a157600080fd5b505af11580156123b5573d6000803e3d6000fd5b505050506040513d601f19601f820116820180604052506123d99190810190612e57565b90505b92959194509250565b60008282018381101561079957fe5b60008282018183128015906124095750838112155b8061241e575060008312801561241e57508381125b151561079957600080fd5b600080821215801561243d57508282840313155b806124545750600082128015612454575082828403135b151561245f57600080fd5b508082035b92915050565b60008060008060008088600160a060020a0316636f4a1815898b600160a060020a031663ded113106040518163ffffffff1660e060020a028152600401602060405180830381600087803b1580156124c157600080fd5b505af11580156124d5573d6000803e3d6000fd5b505050506040513d601f19601f820116820180604052506124f99190810190612e57565b8a5160208c015160405160e060020a63ffffffff871602815261252294939291906004016132dd565b6040805180830381600087803b15801561253b57600080fd5b505af115801561254f573d6000803e3d6000fd5b505050506040513d601f19601f820116820180604052506125739190810190612ed2565b9350935088600160a060020a0316636f4a1815898b600160a060020a0316634652ec746040518163ffffffff1660e060020a028152600401602060405180830381600087803b1580156125c557600080fd5b505af11580156125d9573d6000803e3d6000fd5b505050506040513d601f19601f820116820180604052506125fd9190810190612e57565b8a5160208c015160405160e060020a63ffffffff871602815261262694939291906004016132dd565b6040805180830381600087803b15801561263f57600080fd5b505af1158015612653573d6000803e3d6000fd5b505050506040513d601f19601f820116820180604052506126779190810190612ed2565b909250905061268c848363ffffffff6123f416565b60405160e060020a63a682d5ad02815290965073__SafeMathUintLib_______________________9063a682d5ad906126cb9086908590600401613507565b60206040518083038186803b1580156126e357600080fd5b505af41580156126f7573d6000803e3d6000fd5b505050506040513d601f19601f8201168201806040525061271b9190810190612e57565b945050505050935093915050565b604080518082019091526000808252602082015290565b60006107998235613599565b60006107998251613599565b6000601f8201831361276957600080fd5b813561277c61277782613548565b613522565b915081818352602084019350602081019050838560808402820111156127a157600080fd5b60005b838110156127cf57816127b78882612910565b845250602090920191608091909101906001016127a4565b5050505092915050565b600061079982516135a5565b600061079982356135aa565b600061079982516135aa565b600061079982356135c3565b600061079982516135ce565b6000601f8201831361282657600080fd5b815161283461277782613568565b9150808252602083016020830185838301111561285057600080fd5b61285b8382846135e8565b50505092915050565b60006040828403121561287657600080fd5b6128806040613522565b9050600061288e8484612740565b825250602061289f848483016127e5565b60208301525092915050565b6000604082840312156128bd57600080fd5b6128c76040613522565b9050600061288e84846127e5565b6000606082840312156128e757600080fd5b6128f16040613522565b905060006128ff84846127e5565b825250602061289f84848301612864565b60006080828403121561292257600080fd5b61292c6040613522565b9050600061293a84846127e5565b825250602061289f848483016128d5565b600060a0828403121561295d57600080fd5b6129676080613522565b9050600061297584846127e5565b825250602061298684848301612740565b602083015250604061299a848285016128ab565b60408301525060808201356001604060020a038111156129b957600080fd5b6129c584828501612c35565b60608301525092915050565b600060a082840312156129e357600080fd5b6129ed6080613522565b905060006129fb84846127e5565b8252506020612a0c84848301612740565b6020830152506040612a20848285016128ab565b60408301525060808201356001604060020a03811115612a3f57600080fd5b6129c584828501612be3565b60006102408284031215612a5e57600080fd5b612a69610120613522565b90506000612a7784846127e5565b8252506020612a88848483016127e5565b6020830152506040612a9c84828501612864565b60408301525060808201356001604060020a03811115612abb57600080fd5b612ac7848285016129d1565b60608301525060a08201356001604060020a03811115612ae657600080fd5b612af28482850161294b565b60808301525060c0612b06848285016128ab565b60a083015250610100612b1b84828501612c7e565b60c083015250610200612b30848285016127e5565b60e083015250610220612b45848285016127e5565b6101008301525092915050565b600060808284031215612b6457600080fd5b612b6e6040613522565b90506000612b7c84846127e5565b825250602061289f84848301600060608284031215612b9a57600080fd5b612ba46060613522565b90506000612bb284846127e5565b8252506020612bc3848483016127e5565b6020830152506040612bd784828501612cba565b60408301525092915050565b600060808284031215612bf557600080fd5b612bff6040613522565b90506000612c0d84846128d5565b82525060608201356001604060020a03811115612c2957600080fd5b61289f84828501612758565b600060208284031215612c4757600080fd5b612c516020613522565b905081356001604060020a03811115612c6957600080fd5b612c7584828501612758565b82525092915050565b60006101008284031215612c9157600080fd5b612c9b6040613522565b90506000612ca98484612b52565b825250608061289f84848301612b52565b600061079982356135bd565b600060208284031215612cd857600080fd5b6000612ce48484612740565b949350505050565b600060208284031215612cfe57600080fd5b6000612ce4848461274c565b600080600060608486031215612d1f57600080fd5b6000612d2b8686612740565b9350506020612d3c86828701612740565b9250506040612d4d868287016127e5565b9150509250925092565b60008060008060808587031215612d6d57600080fd5b6000612d798787612740565b9450506020612d8a878288016127e5565b9350506040612d9b87828801612740565b9250506060612dac878288016127e5565b91505092959194509250565b60008060408385031215612dcb57600080fd5b6000612dd78585612740565b92505060208301356001604060020a03811115612df357600080fd5b612dff85828601612a4b565b9150509250929050565b60008060408385031215612e1c57600080fd5b6000612e288585612740565b9250506020612dff858286016127e5565b600060208284031215612e4b57600080fd5b6000612ce484846127d9565b600060208284031215612e6957600080fd5b6000612ce484846127f1565b600060208284031215612e8757600080fd5b6000612ce484846127fd565b600060208284031215612ea557600080fd5b6000612ce48484612809565b600080600060608486031215612ec657600080fd5b6000612d2b86866127e5565b60008060408385031215612ee557600080fd5b6000612ef185856127f1565b9250506020612dff858286016127f1565b600060208284031215612f1457600080fd5b81516001604060020a03811115612f2a57600080fd5b612ce484828501612815565b612f3f81613599565b82525050565b6000612f5082613595565b808452602084019350612f628361358f565b60005b82811015612f9257612f78868351613054565b612f818261358f565b608096909601959150600101612f65565b5093949350505050565b612f3f816135a5565b612f3f816135aa565b612f3f816135c3565b612f3f816135dd565b6000612fcb82613595565b808452612fdf8160208601602086016135e8565b612fe881613614565b9093016020019392505050565b805160408301906130068482612f36565b5060208201516130196020850182612fa5565b50505050565b805160408301906130068482612fa5565b805160608301906130418482612fa5565b5060208201516130196020850182612ff5565b805160808301906130658482612fa5565b5060208201516130196020850182613030565b805160009060a084019061308c8582612fa5565b50602083015161309f6020860182612f36565b5060408301516130b2604086018261301f565b50606083015184820360808601526130ca828261326e565b95945050505050565b805160009060a08401906130e78582612fa5565b5060208301516130fa6020860182612f36565b50604083015161310d604086018261301f565b50606083015184820360808601526130ca8282613242565b805160009061024084019061313a8582612fa5565b50602083015161314d6020860182612fa5565b5060408301516131606040860182612ff5565b506060830151848203608086015261317882826130d3565b915050608083015184820360a08601526131928282613078565b91505060a08301516131a760c086018261301f565b5060c08301516131bb610100860182613286565b5060e08301516131cf610200860182612fa5565b506101008301516131e4610220860182612fa5565b509392505050565b805160808301906131fd8482612fa5565b50602082015161301960208501828051606083019061321c8482612fa5565b50602082015161322f6020850182612fa5565b50604082015161301960408501826132ab565b805160009060808401906132568582613030565b50602083015184820360608601526130ca8282612f45565b80516020808452600091908401906130ca8282612f45565b805161010083019061329884826131ec565b50602082015161301960808501826131ec565b612f3f816135bd565b602081016124648284612f36565b604081016132d08285612f36565b6107996020830184612f36565b608081016132eb8287612f36565b6132f86020830186612fa5565b6133056040830185612f36565b6130ca6060830184612fa5565b606081016133208285612f36565b6107996020830184612ff5565b6080810161333b8286612f36565b6133486020830185612ff5565b612ce46060830184612f9c565b606081016133638286612f36565b81810360208301526133758185613125565b9050612ce46040830184612f36565b60c081016133928289612f36565b61339f6020830188612fa5565b6133ac6040830187612fa5565b6133b96060830186612fa5565b6133c66080830185612f36565b6133d360a0830184612fa5565b979650505050505050565b60e081016133ec828a612f36565b6133f96020830189612fa5565b6134066040830188612fa5565b6134136060830187612fa5565b6134206080830186612f36565b61342d60a0830185612fa5565b61343a60c0830184612f36565b98975050505050505050565b6101008101613455828a612f36565b6134626020830189612fa5565b61346f6040830188612fa5565b61347c6060830187612fa5565b6134896080830186612ff5565b61349660c0830185612fa5565b61343a60e0830184612f9c565b602081016124648284612f9c565b602081016124648284612fa5565b602081016124648284612fae565b604081016134db8285612fae565b6107996020830184612fae565b602081016124648284612fb7565b602080825281016107998184612fc0565b604081016135158285612fa5565b6107996020830184612fa5565b6040518181016001604060020a038111828210171561354057600080fd5b604052919050565b60006001604060020a0382111561355e57600080fd5b5060209081020190565b60006001604060020a0382111561357e57600080fd5b506020601f91909101601f19160190565b60200190565b5190565b600160a060020a031690565b151590565b90565b6000600282106135b957fe5b5090565b60ff1690565b600061246482613599565b6000600282106135b957600080fd5b6000612464826135ad565b60005b838110156136035781810151838201526020016135eb565b838111156130195750506000910152565b601f01601f1916905600a265627a7a72305820a51dd457a5567fea3b5b7e2939f19dbb99323d29f198bb13f740fde196f189976c6578706572696d656e74616cf50037",
  "source": "/*\n * Hubii Nahmii\n *\n * Compliant with the Hubii Nahmii specification v0.12.\n *\n * Copyright (C) 2017-2018 Hubii AS\n */\n\npragma solidity ^0.4.25;\npragma experimental ABIEncoderV2;\n\nimport {Ownable} from \"./Ownable.sol\";\nimport {ConfigurableOperational} from \"./ConfigurableOperational.sol\";\nimport {BalanceTrackable} from \"./BalanceTrackable.sol\";\nimport {WalletLockable} from \"./WalletLockable.sol\";\nimport {SafeMathIntLib} from \"./SafeMathIntLib.sol\";\nimport {SafeMathUintLib} from \"./SafeMathUintLib.sol\";\nimport {NullSettlementDisputeByPayment} from \"./NullSettlementDisputeByPayment.sol\";\nimport {NullSettlementChallengeState} from \"./NullSettlementChallengeState.sol\";\nimport {NullSettlementState} from \"./NullSettlementState.sol\";\nimport {DriipSettlementChallengeState} from \"./DriipSettlementChallengeState.sol\";\nimport {MonetaryTypesLib} from \"./MonetaryTypesLib.sol\";\nimport {PaymentTypesLib} from \"./PaymentTypesLib.sol\";\nimport {SettlementChallengeTypesLib} from \"./SettlementChallengeTypesLib.sol\";\nimport {BalanceTracker} from \"./BalanceTracker.sol\";\nimport {BalanceTrackerLib} from \"./BalanceTrackerLib.sol\";\n\n/**\n * @title NullSettlementChallengeByPayment\n * @notice Where null settlements pertaining to payments are started and disputed\n */\ncontract NullSettlementChallengeByPayment is Ownable, ConfigurableOperational, BalanceTrackable, WalletLockable {\n    using SafeMathIntLib for int256;\n    using SafeMathUintLib for uint256;\n    using BalanceTrackerLib for BalanceTracker;\n\n    //\n    // Variables\n    // -----------------------------------------------------------------------------------------------------------------\n    NullSettlementDisputeByPayment public nullSettlementDisputeByPayment;\n    NullSettlementChallengeState public nullSettlementChallengeState;\n    NullSettlementState public nullSettlementState;\n    DriipSettlementChallengeState public driipSettlementChallengeState;\n\n    //\n    // Events\n    // -----------------------------------------------------------------------------------------------------------------\n    event SetNullSettlementDisputeByPaymentEvent(NullSettlementDisputeByPayment oldNullSettlementDisputeByPayment,\n        NullSettlementDisputeByPayment newNullSettlementDisputeByPayment);\n    event SetNullSettlementChallengeStateEvent(NullSettlementChallengeState oldNullSettlementChallengeState,\n        NullSettlementChallengeState newNullSettlementChallengeState);\n    event SetNullSettlementStateEvent(NullSettlementState oldNullSettlementState,\n        NullSettlementState newNullSettlementState);\n    event SetDriipSettlementChallengeStateEvent(DriipSettlementChallengeState oldDriipSettlementChallengeState,\n        DriipSettlementChallengeState newDriipSettlementChallengeState);\n    event StartChallengeEvent(address wallet, uint256 nonce, int256 stageAmount, int256 targetBalanceAmount,\n        address currencyCt, uint currencyId);\n    event StartChallengeByProxyEvent(address wallet, uint256 nonce, int256 stageAmount, int256 targetBalanceAmount,\n        address currencyCt, uint currencyId, address proxy);\n    event StopChallengeEvent(address wallet, uint256 nonce, int256 stageAmount, int256 targetBalanceAmount,\n        address currencyCt, uint256 currencyId);\n    event StopChallengeByProxyEvent(address wallet, uint256 nonce, int256 stageAmount, int256 targetBalanceAmount,\n        address currencyCt, uint256 currencyId, address proxy);\n    event ChallengeByPaymentEvent(address challengedWallet, uint256 nonce, int256 stageAmount, int256 targetBalanceAmount,\n        address currencyCt, uint256 currencyId, address challengerWallet);\n\n    //\n    // Constructor\n    // -----------------------------------------------------------------------------------------------------------------\n    constructor(address deployer) Ownable(deployer) public {\n    }\n\n    //\n    // Functions\n    // -----------------------------------------------------------------------------------------------------------------\n    /// @notice Set the settlement dispute contract\n    /// @param newNullSettlementDisputeByPayment The (address of) NullSettlementDisputeByPayment contract instance\n    function setNullSettlementDisputeByPayment(NullSettlementDisputeByPayment newNullSettlementDisputeByPayment)\n    public\n    onlyDeployer\n    notNullAddress(newNullSettlementDisputeByPayment)\n    {\n        NullSettlementDisputeByPayment oldNullSettlementDisputeByPayment = nullSettlementDisputeByPayment;\n        nullSettlementDisputeByPayment = newNullSettlementDisputeByPayment;\n        emit SetNullSettlementDisputeByPaymentEvent(oldNullSettlementDisputeByPayment, nullSettlementDisputeByPayment);\n    }\n\n    /// @notice Set the null settlement challenge state contract\n    /// @param newNullSettlementChallengeState The (address of) NullSettlementChallengeState contract instance\n    function setNullSettlementChallengeState(NullSettlementChallengeState newNullSettlementChallengeState)\n    public\n    onlyDeployer\n    notNullAddress(newNullSettlementChallengeState)\n    {\n        NullSettlementChallengeState oldNullSettlementChallengeState = nullSettlementChallengeState;\n        nullSettlementChallengeState = newNullSettlementChallengeState;\n        emit SetNullSettlementChallengeStateEvent(oldNullSettlementChallengeState, nullSettlementChallengeState);\n    }\n\n    /// @notice Set the null settlement state contract\n    /// @param newNullSettlementState The (address of) NullSettlementState contract instance\n    function setNullSettlementState(NullSettlementState newNullSettlementState)\n    public\n    onlyDeployer\n    notNullAddress(newNullSettlementState)\n    {\n        NullSettlementState oldNullSettlementState = nullSettlementState;\n        nullSettlementState = newNullSettlementState;\n        emit SetNullSettlementStateEvent(oldNullSettlementState, nullSettlementState);\n    }\n\n    /// @notice Set the driip settlement challenge state contract\n    /// @param newDriipSettlementChallengeState The (address of) DriipSettlementChallengeState contract instance\n    function setDriipSettlementChallengeState(DriipSettlementChallengeState newDriipSettlementChallengeState)\n    public\n    onlyDeployer\n    notNullAddress(newDriipSettlementChallengeState)\n    {\n        DriipSettlementChallengeState oldDriipSettlementChallengeState = driipSettlementChallengeState;\n        driipSettlementChallengeState = newDriipSettlementChallengeState;\n        emit SetDriipSettlementChallengeStateEvent(oldDriipSettlementChallengeState, driipSettlementChallengeState);\n    }\n\n    /// @notice Start settlement challenge\n    /// @param amount The concerned amount to stage\n    /// @param currencyCt The address of the concerned currency contract (address(0) == ETH)\n    /// @param currencyId The ID of the concerned currency (0 for ETH and ERC20)\n    function startChallenge(int256 amount, address currencyCt, uint256 currencyId)\n    public\n    {\n        // Require that wallet is not locked\n        require(!walletLocker.isLocked(msg.sender));\n\n        // Define currency\n        MonetaryTypesLib.Currency memory currency = MonetaryTypesLib.Currency(currencyCt, currencyId);\n\n        // Start challenge for wallet\n        _startChallenge(msg.sender, amount, currency, true);\n\n        // Emit event\n        emit StartChallengeEvent(\n            msg.sender,\n            nullSettlementChallengeState.proposalNonce(msg.sender, currency),\n            amount,\n            nullSettlementChallengeState.proposalTargetBalanceAmount(msg.sender, currency),\n            currencyCt, currencyId\n        );\n    }\n\n    /// @notice Start settlement challenge for the given wallet\n    /// @param wallet The address of the concerned wallet\n    /// @param amount The concerned amount to stage\n    /// @param currencyCt The address of the concerned currency contract (address(0) == ETH)\n    /// @param currencyId The ID of the concerned currency (0 for ETH and ERC20)\n    function startChallengeByProxy(address wallet, int256 amount, address currencyCt, uint256 currencyId)\n    public\n    onlyOperator\n    {\n        // Define currency\n        MonetaryTypesLib.Currency memory currency = MonetaryTypesLib.Currency(currencyCt, currencyId);\n\n        // Start challenge for wallet\n        _startChallenge(wallet, amount, currency, false);\n\n        // Emit event\n        emit StartChallengeByProxyEvent(\n            wallet,\n            nullSettlementChallengeState.proposalNonce(wallet, currency),\n            amount,\n            nullSettlementChallengeState.proposalTargetBalanceAmount(wallet, currency),\n            currencyCt, currencyId, msg.sender\n        );\n    }\n\n    /// @notice Stop settlement challenge\n    /// @param currencyCt The address of the concerned currency contract (address(0) == ETH)\n    /// @param currencyId The ID of the concerned currency (0 for ETH and ERC20)\n    function stopChallenge(address currencyCt, uint256 currencyId)\n    public\n    {\n        // Define currency\n        MonetaryTypesLib.Currency memory currency = MonetaryTypesLib.Currency(currencyCt, currencyId);\n\n        // Emit event\n        emit StopChallengeEvent(\n            msg.sender,\n            nullSettlementChallengeState.proposalNonce(msg.sender, currency),\n            nullSettlementChallengeState.proposalStageAmount(msg.sender, currency),\n            nullSettlementChallengeState.proposalTargetBalanceAmount(msg.sender, currency),\n            currencyCt, currencyId\n        );\n\n        // Stop challenge\n        nullSettlementChallengeState.removeProposal(\n            msg.sender, currency, true\n        );\n    }\n\n    /// @notice Stop settlement challenge\n    /// @param wallet The concerned wallet\n    /// @param currencyCt The address of the concerned currency contract (address(0) == ETH)\n    /// @param currencyId The ID of the concerned currency (0 for ETH and ERC20)\n    function stopChallengeByProxy(address wallet, address currencyCt, uint256 currencyId)\n    public\n    onlyOperator\n    {\n        // Define currency\n        MonetaryTypesLib.Currency memory currency = MonetaryTypesLib.Currency(currencyCt, currencyId);\n\n        // Emit event\n        emit StopChallengeByProxyEvent(\n            wallet,\n            nullSettlementChallengeState.proposalNonce(wallet, currency),\n            nullSettlementChallengeState.proposalStageAmount(wallet, currency),\n            nullSettlementChallengeState.proposalTargetBalanceAmount(wallet, currency),\n            currencyCt, currencyId, msg.sender\n        );\n\n        // Stop challenge\n        nullSettlementChallengeState.removeProposal(\n            wallet, currency, false\n        );\n    }\n\n    /// @notice Gauge whether the proposal for the given wallet and currency has expired\n    /// @param wallet The address of the concerned wallet\n    /// @param currencyCt The address of the concerned currency contract (address(0) == ETH)\n    /// @param currencyId The ID of the concerned currency (0 for ETH and ERC20)\n    /// @return true if proposal has expired, else false\n    function hasProposalExpired(address wallet, address currencyCt, uint256 currencyId)\n    public\n    view\n    returns (bool)\n    {\n        return nullSettlementChallengeState.hasProposalExpired(\n            wallet, MonetaryTypesLib.Currency(currencyCt, currencyId)\n        );\n    }\n\n    /// @notice Get the challenge nonce of the given wallet\n    /// @param wallet The address of the concerned wallet\n    /// @param currencyCt The address of the concerned currency contract (address(0) == ETH)\n    /// @param currencyId The ID of the concerned currency (0 for ETH and ERC20)\n    /// @return The challenge nonce\n    function proposalNonce(address wallet, address currencyCt, uint256 currencyId)\n    public\n    view\n    returns (uint256)\n    {\n        return nullSettlementChallengeState.proposalNonce(\n            wallet, MonetaryTypesLib.Currency(currencyCt, currencyId)\n        );\n    }\n\n    /// @notice Get the settlement proposal block number of the given wallet\n    /// @param wallet The address of the concerned wallet\n    /// @param currencyCt The address of the concerned currency contract (address(0) == ETH)\n    /// @param currencyId The ID of the concerned currency (0 for ETH and ERC20)\n    /// @return The settlement proposal block number\n    function proposalBlockNumber(address wallet, address currencyCt, uint256 currencyId)\n    public\n    view\n    returns (uint256)\n    {\n        return nullSettlementChallengeState.proposalBlockNumber(\n            wallet, MonetaryTypesLib.Currency(currencyCt, currencyId)\n        );\n    }\n\n    /// @notice Get the settlement proposal end time of the given wallet\n    /// @param wallet The address of the concerned wallet\n    /// @param currencyCt The address of the concerned currency contract (address(0) == ETH)\n    /// @param currencyId The ID of the concerned currency (0 for ETH and ERC20)\n    /// @return The settlement proposal end time\n    function proposalExpirationTime(address wallet, address currencyCt, uint256 currencyId)\n    public\n    view\n    returns (uint256)\n    {\n        return nullSettlementChallengeState.proposalExpirationTime(\n            wallet, MonetaryTypesLib.Currency(currencyCt, currencyId)\n        );\n    }\n\n    /// @notice Get the challenge status of the given wallet\n    /// @param wallet The address of the concerned wallet\n    /// @param currencyCt The address of the concerned currency contract (address(0) == ETH)\n    /// @param currencyId The ID of the concerned currency (0 for ETH and ERC20)\n    /// @return The challenge status\n    function proposalStatus(address wallet, address currencyCt, uint256 currencyId)\n    public\n    view\n    returns (SettlementChallengeTypesLib.Status)\n    {\n        return nullSettlementChallengeState.proposalStatus(\n            wallet, MonetaryTypesLib.Currency(currencyCt, currencyId)\n        );\n    }\n\n    /// @notice Get the settlement proposal stage amount of the given wallet and currency\n    /// @param wallet The address of the concerned wallet\n    /// @param currencyCt The address of the concerned currency contract (address(0) == ETH)\n    /// @param currencyId The ID of the concerned currency (0 for ETH and ERC20)\n    /// @return The settlement proposal stage amount\n    function proposalStageAmount(address wallet, address currencyCt, uint256 currencyId)\n    public\n    view\n    returns (int256)\n    {\n        return nullSettlementChallengeState.proposalStageAmount(\n            wallet, MonetaryTypesLib.Currency(currencyCt, currencyId)\n        );\n    }\n\n    /// @notice Get the settlement proposal target balance amount of the given wallet and currency\n    /// @param wallet The address of the concerned wallet\n    /// @param currencyCt The address of the concerned currency contract (address(0) == ETH)\n    /// @param currencyId The ID of the concerned currency (0 for ETH and ERC20)\n    /// @return The settlement proposal target balance amount\n    function proposalTargetBalanceAmount(address wallet, address currencyCt, uint256 currencyId)\n    public\n    view\n    returns (int256)\n    {\n        return nullSettlementChallengeState.proposalTargetBalanceAmount(\n            wallet, MonetaryTypesLib.Currency(currencyCt, currencyId)\n        );\n    }\n\n    /// @notice Get the balance reward of the given wallet's settlement proposal\n    /// @param wallet The address of the concerned wallet\n    /// @param currencyCt The address of the concerned currency contract (address(0) == ETH)\n    /// @param currencyId The ID of the concerned currency (0 for ETH and ERC20)\n    /// @return The balance reward of the settlement proposal\n    function proposalWalletInitiated(address wallet, address currencyCt, uint256 currencyId)\n    public\n    view\n    returns (bool)\n    {\n        return nullSettlementChallengeState.proposalWalletInitiated(\n            wallet, MonetaryTypesLib.Currency(currencyCt, currencyId)\n        );\n    }\n\n    /// @notice Get the disqualification challenger of the given wallet and currency\n    /// @param wallet The address of the concerned wallet\n    /// @param currencyCt The address of the concerned currency contract (address(0) == ETH)\n    /// @param currencyId The ID of the concerned currency (0 for ETH and ERC20)\n    /// @return The challenger of the settlement disqualification\n    function proposalDisqualificationChallenger(address wallet, address currencyCt, uint256 currencyId)\n    public\n    view\n    returns (address)\n    {\n        return nullSettlementChallengeState.proposalDisqualificationChallenger(\n            wallet, MonetaryTypesLib.Currency(currencyCt, currencyId)\n        );\n    }\n\n    /// @notice Get the disqualification block number of the given wallet and currency\n    /// @param wallet The address of the concerned wallet\n    /// @param currencyCt The address of the concerned currency contract (address(0) == ETH)\n    /// @param currencyId The ID of the concerned currency (0 for ETH and ERC20)\n    /// @return The block number of the settlement disqualification\n    function proposalDisqualificationBlockNumber(address wallet, address currencyCt, uint256 currencyId)\n    public\n    view\n    returns (uint256)\n    {\n        return nullSettlementChallengeState.proposalDisqualificationBlockNumber(\n            wallet, MonetaryTypesLib.Currency(currencyCt, currencyId)\n        );\n    }\n\n    /// @notice Get the disqualification candidate kind of the given wallet and currency\n    /// @param wallet The address of the concerned wallet\n    /// @param currencyCt The address of the concerned currency contract (address(0) == ETH)\n    /// @param currencyId The ID of the concerned currency (0 for ETH and ERC20)\n    /// @return The candidate kind of the settlement disqualification\n    function proposalDisqualificationCandidateKind(address wallet, address currencyCt, uint256 currencyId)\n    public\n    view\n    returns (string)\n    {\n        return nullSettlementChallengeState.proposalDisqualificationCandidateKind(\n            wallet, MonetaryTypesLib.Currency(currencyCt, currencyId)\n        );\n    }\n\n    /// @notice Get the disqualification candidate hash of the given wallet and currency\n    /// @param wallet The address of the concerned wallet\n    /// @param currencyCt The address of the concerned currency contract (address(0) == ETH)\n    /// @param currencyId The ID of the concerned currency (0 for ETH and ERC20)\n    /// @return The candidate hash of the settlement disqualification\n    function proposalDisqualificationCandidateHash(address wallet, address currencyCt, uint256 currencyId)\n    public\n    view\n    returns (bytes32)\n    {\n        return nullSettlementChallengeState.proposalDisqualificationCandidateHash(\n            wallet, MonetaryTypesLib.Currency(currencyCt, currencyId)\n        );\n    }\n\n    /// @notice Challenge the settlement by providing payment candidate\n    /// @param wallet The wallet whose settlement is being challenged\n    /// @param payment The payment candidate that challenges the null\n    function challengeByPayment(address wallet, PaymentTypesLib.Payment payment)\n    public\n    onlyOperationalModeNormal\n    {\n        // Challenge by payment\n        nullSettlementDisputeByPayment.challengeByPayment(wallet, payment, msg.sender);\n\n        // Emit event\n        emit ChallengeByPaymentEvent(\n            wallet,\n            nullSettlementChallengeState.proposalNonce(wallet, payment.currency),\n            nullSettlementChallengeState.proposalStageAmount(wallet, payment.currency),\n            nullSettlementChallengeState.proposalTargetBalanceAmount(wallet, payment.currency),\n            payment.currency.ct, payment.currency.id, msg.sender\n        );\n    }\n\n    //\n    // Private functions\n    // -----------------------------------------------------------------------------------------------------------------\n    function _startChallenge(address wallet, int256 stageAmount, MonetaryTypesLib.Currency currency,\n        bool walletInitiated)\n    private\n    {\n        // Require that current block number is beyond the earliest settlement challenge block number\n        require(block.number >= configuration.earliestSettlementBlockNumber());\n\n        // Require that there is no ongoing overlapping null settlement challenge\n        require(nullSettlementChallengeState.hasProposalExpired(wallet, currency));\n\n        // Get the last logged active balance amount and block number\n        (\n        int256 activeBalanceAmount, uint256 activeBalanceBlockNumber,\n        int256 dscCumulativeTransferAmount, int256 dscStageAmount\n        ) = _externalProperties(\n            wallet, currency\n        );\n\n        // Obtain highest settled wallet nonce\n        uint256 nonce = nullSettlementState.maxNonceByWalletAndCurrency(wallet, currency);\n\n        // Add proposal, including assurance that there is no overlap with active proposal\n        // Target balance amount is calculated as current balance - DSC cumulativeTransferAmount - DSC stage amount - NSC stageAmount\n        nullSettlementChallengeState.addProposal(\n            wallet, nonce.add(1), stageAmount,\n            activeBalanceAmount.sub(\n                dscCumulativeTransferAmount.add(dscStageAmount).add(stageAmount)\n            ),\n            currency,\n            activeBalanceBlockNumber, walletInitiated\n        );\n    }\n\n    function _externalProperties(address wallet, MonetaryTypesLib.Currency currency)\n    private\n    view\n    returns (\n        int256 activeBalanceAmount, uint256 activeBalanceBlockNumber,\n        int256 dscCumulativeTransferAmount, int256 dscStageAmount\n    ) {\n        (activeBalanceAmount, activeBalanceBlockNumber) = balanceTracker.fungibleActiveRecord(\n            wallet, currency\n        );\n\n        if (driipSettlementChallengeState.hasProposal(wallet, currency)) {\n            dscCumulativeTransferAmount = driipSettlementChallengeState.proposalCumulativeTransferAmount(wallet, currency);\n            dscStageAmount = driipSettlementChallengeState.proposalStageAmount(wallet, currency);\n        }\n    }\n}\n",
  "sourcePath": "/opt/buildagent/work/855e104608380c36/contracts/NullSettlementChallengeByPayment.sol",
  "compiler": {
    "name": "solc",
    "version": "0.4.25+commit.59dbf8f1.Emscripten.clang"
  },
  "schemaVersion": "2.0.2",
  "updatedAt": "2019-04-02T08:24:32.128Z"
}