{
  "contractName": "NullSettlementDisputeByTrade",
  "abi": [
    {
      "inputs": [
        {
          "internalType": "address",
          "name": "deployer",
          "type": "address"
        }
      ],
      "payable": false,
      "stateMutability": "nonpayable",
      "type": "constructor"
    },
    {
      "anonymous": false,
      "inputs": [
        {
          "indexed": false,
          "internalType": "uint256",
          "name": "nonce",
          "type": "uint256"
        },
        {
          "components": [
            {
              "internalType": "uint256",
              "name": "nonce",
              "type": "uint256"
            },
            {
              "internalType": "address",
              "name": "wallet",
              "type": "address"
            },
            {
              "components": [
                {
                  "internalType": "enum TradeTypesLib.Intention",
                  "name": "intention",
                  "type": "uint8"
                },
                {
                  "internalType": "int256",
                  "name": "amount",
                  "type": "int256"
                },
                {
                  "components": [
                    {
                      "components": [
                        {
                          "internalType": "address",
                          "name": "ct",
                          "type": "address"
                        },
                        {
                          "internalType": "uint256",
                          "name": "id",
                          "type": "uint256"
                        }
                      ],
                      "internalType": "struct MonetaryTypesLib.Currency",
                      "name": "intended",
                      "type": "tuple"
                    },
                    {
                      "components": [
                        {
                          "internalType": "address",
                          "name": "ct",
                          "type": "address"
                        },
                        {
                          "internalType": "uint256",
                          "name": "id",
                          "type": "uint256"
                        }
                      ],
                      "internalType": "struct MonetaryTypesLib.Currency",
                      "name": "conjugate",
                      "type": "tuple"
                    }
                  ],
                  "internalType": "struct NahmiiTypesLib.IntendedConjugateCurrency",
                  "name": "currencies",
                  "type": "tuple"
                },
                {
                  "internalType": "int256",
                  "name": "rate",
                  "type": "int256"
                },
                {
                  "components": [
                    {
                      "internalType": "int256",
                      "name": "current",
                      "type": "int256"
                    },
                    {
                      "internalType": "int256",
                      "name": "previous",
                      "type": "int256"
                    }
                  ],
                  "internalType": "struct NahmiiTypesLib.CurrentPreviousInt256",
                  "name": "residuals",
                  "type": "tuple"
                }
              ],
              "internalType": "struct TradeTypesLib.OrderPlacement",
              "name": "placement",
              "type": "tuple"
            },
            {
              "components": [
                {
                  "components": [
                    {
                      "internalType": "bytes32",
                      "name": "hash",
                      "type": "bytes32"
                    },
                    {
                      "components": [
                        {
                          "internalType": "bytes32",
                          "name": "r",
                          "type": "bytes32"
                        },
                        {
                          "internalType": "bytes32",
                          "name": "s",
                          "type": "bytes32"
                        },
                        {
                          "internalType": "uint8",
                          "name": "v",
                          "type": "uint8"
                        }
                      ],
                      "internalType": "struct NahmiiTypesLib.Signature",
                      "name": "signature",
                      "type": "tuple"
                    }
                  ],
                  "internalType": "struct NahmiiTypesLib.Seal",
                  "name": "wallet",
                  "type": "tuple"
                },
                {
                  "components": [
                    {
                      "internalType": "bytes32",
                      "name": "hash",
                      "type": "bytes32"
                    },
                    {
                      "components": [
                        {
                          "internalType": "bytes32",
                          "name": "r",
                          "type": "bytes32"
                        },
                        {
                          "internalType": "bytes32",
                          "name": "s",
                          "type": "bytes32"
                        },
                        {
                          "internalType": "uint8",
                          "name": "v",
                          "type": "uint8"
                        }
                      ],
                      "internalType": "struct NahmiiTypesLib.Signature",
                      "name": "signature",
                      "type": "tuple"
                    }
                  ],
                  "internalType": "struct NahmiiTypesLib.Seal",
                  "name": "operator",
                  "type": "tuple"
                }
              ],
              "internalType": "struct NahmiiTypesLib.WalletOperatorSeal",
              "name": "seals",
              "type": "tuple"
            },
            {
              "internalType": "uint256",
              "name": "blockNumber",
              "type": "uint256"
            },
            {
              "internalType": "uint256",
              "name": "operatorId",
              "type": "uint256"
            }
          ],
          "indexed": false,
          "internalType": "struct TradeTypesLib.Order",
          "name": "order",
          "type": "tuple"
        },
        {
          "indexed": false,
          "internalType": "address",
          "name": "challenger",
          "type": "address"
        }
      ],
      "name": "ChallengeByOrderEvent",
      "type": "event"
    },
    {
      "anonymous": false,
      "inputs": [
        {
          "indexed": false,
          "internalType": "address",
          "name": "wallet",
          "type": "address"
        },
        {
          "indexed": false,
          "internalType": "uint256",
          "name": "nonce",
          "type": "uint256"
        },
        {
          "components": [
            {
              "internalType": "uint256",
              "name": "nonce",
              "type": "uint256"
            },
            {
              "internalType": "int256",
              "name": "amount",
              "type": "int256"
            },
            {
              "components": [
                {
                  "components": [
                    {
                      "internalType": "address",
                      "name": "ct",
                      "type": "address"
                    },
                    {
                      "internalType": "uint256",
                      "name": "id",
                      "type": "uint256"
                    }
                  ],
                  "internalType": "struct MonetaryTypesLib.Currency",
                  "name": "intended",
                  "type": "tuple"
                },
                {
                  "components": [
                    {
                      "internalType": "address",
                      "name": "ct",
                      "type": "address"
                    },
                    {
                      "internalType": "uint256",
                      "name": "id",
                      "type": "uint256"
                    }
                  ],
                  "internalType": "struct MonetaryTypesLib.Currency",
                  "name": "conjugate",
                  "type": "tuple"
                }
              ],
              "internalType": "struct NahmiiTypesLib.IntendedConjugateCurrency",
              "name": "currencies",
              "type": "tuple"
            },
            {
              "internalType": "int256",
              "name": "rate",
              "type": "int256"
            },
            {
              "components": [
                {
                  "internalType": "uint256",
                  "name": "nonce",
                  "type": "uint256"
                },
                {
                  "internalType": "address",
                  "name": "wallet",
                  "type": "address"
                },
                {
                  "internalType": "uint256",
                  "name": "rollingVolume",
                  "type": "uint256"
                },
                {
                  "internalType": "enum TradeTypesLib.LiquidityRole",
                  "name": "liquidityRole",
                  "type": "uint8"
                },
                {
                  "components": [
                    {
                      "internalType": "int256",
                      "name": "amount",
                      "type": "int256"
                    },
                    {
                      "components": [
                        {
                          "internalType": "bytes32",
                          "name": "wallet",
                          "type": "bytes32"
                        },
                        {
                          "internalType": "bytes32",
                          "name": "operator",
                          "type": "bytes32"
                        }
                      ],
                      "internalType": "struct NahmiiTypesLib.WalletOperatorHashes",
                      "name": "hashes",
                      "type": "tuple"
                    },
                    {
                      "components": [
                        {
                          "internalType": "int256",
                          "name": "current",
                          "type": "int256"
                        },
                        {
                          "internalType": "int256",
                          "name": "previous",
                          "type": "int256"
                        }
                      ],
                      "internalType": "struct NahmiiTypesLib.CurrentPreviousInt256",
                      "name": "residuals",
                      "type": "tuple"
                    }
                  ],
                  "internalType": "struct TradeTypesLib.TradeOrder",
                  "name": "order",
                  "type": "tuple"
                },
                {
                  "components": [
                    {
                      "components": [
                        {
                          "internalType": "int256",
                          "name": "current",
                          "type": "int256"
                        },
                        {
                          "internalType": "int256",
                          "name": "previous",
                          "type": "int256"
                        }
                      ],
                      "internalType": "struct NahmiiTypesLib.CurrentPreviousInt256",
                      "name": "intended",
                      "type": "tuple"
                    },
                    {
                      "components": [
                        {
                          "internalType": "int256",
                          "name": "current",
                          "type": "int256"
                        },
                        {
                          "internalType": "int256",
                          "name": "previous",
                          "type": "int256"
                        }
                      ],
                      "internalType": "struct NahmiiTypesLib.CurrentPreviousInt256",
                      "name": "conjugate",
                      "type": "tuple"
                    }
                  ],
                  "internalType": "struct NahmiiTypesLib.IntendedConjugateCurrentPreviousInt256",
                  "name": "balances",
                  "type": "tuple"
                },
                {
                  "components": [
                    {
                      "components": [
                        {
                          "internalType": "int256",
                          "name": "amount",
                          "type": "int256"
                        },
                        {
                          "components": [
                            {
                              "internalType": "address",
                              "name": "ct",
                              "type": "address"
                            },
                            {
                              "internalType": "uint256",
                              "name": "id",
                              "type": "uint256"
                            }
                          ],
                          "internalType": "struct MonetaryTypesLib.Currency",
                          "name": "currency",
                          "type": "tuple"
                        }
                      ],
                      "internalType": "struct MonetaryTypesLib.Figure",
                      "name": "single",
                      "type": "tuple"
                    },
                    {
                      "components": [
                        {
                          "internalType": "uint256",
                          "name": "originId",
                          "type": "uint256"
                        },
                        {
                          "components": [
                            {
                              "internalType": "int256",
                              "name": "amount",
                              "type": "int256"
                            },
                            {
                              "components": [
                                {
                                  "internalType": "address",
                                  "name": "ct",
                                  "type": "address"
                                },
                                {
                                  "internalType": "uint256",
                                  "name": "id",
                                  "type": "uint256"
                                }
                              ],
                              "internalType": "struct MonetaryTypesLib.Currency",
                              "name": "currency",
                              "type": "tuple"
                            }
                          ],
                          "internalType": "struct MonetaryTypesLib.Figure",
                          "name": "figure",
                          "type": "tuple"
                        }
                      ],
                      "internalType": "struct NahmiiTypesLib.OriginFigure[]",
                      "name": "total",
                      "type": "tuple[]"
                    }
                  ],
                  "internalType": "struct NahmiiTypesLib.SingleFigureTotalOriginFigures",
                  "name": "fees",
                  "type": "tuple"
                }
              ],
              "internalType": "struct TradeTypesLib.TradeParty",
              "name": "buyer",
              "type": "tuple"
            },
            {
              "components": [
                {
                  "internalType": "uint256",
                  "name": "nonce",
                  "type": "uint256"
                },
                {
                  "internalType": "address",
                  "name": "wallet",
                  "type": "address"
                },
                {
                  "internalType": "uint256",
                  "name": "rollingVolume",
                  "type": "uint256"
                },
                {
                  "internalType": "enum TradeTypesLib.LiquidityRole",
                  "name": "liquidityRole",
                  "type": "uint8"
                },
                {
                  "components": [
                    {
                      "internalType": "int256",
                      "name": "amount",
                      "type": "int256"
                    },
                    {
                      "components": [
                        {
                          "internalType": "bytes32",
                          "name": "wallet",
                          "type": "bytes32"
                        },
                        {
                          "internalType": "bytes32",
                          "name": "operator",
                          "type": "bytes32"
                        }
                      ],
                      "internalType": "struct NahmiiTypesLib.WalletOperatorHashes",
                      "name": "hashes",
                      "type": "tuple"
                    },
                    {
                      "components": [
                        {
                          "internalType": "int256",
                          "name": "current",
                          "type": "int256"
                        },
                        {
                          "internalType": "int256",
                          "name": "previous",
                          "type": "int256"
                        }
                      ],
                      "internalType": "struct NahmiiTypesLib.CurrentPreviousInt256",
                      "name": "residuals",
                      "type": "tuple"
                    }
                  ],
                  "internalType": "struct TradeTypesLib.TradeOrder",
                  "name": "order",
                  "type": "tuple"
                },
                {
                  "components": [
                    {
                      "components": [
                        {
                          "internalType": "int256",
                          "name": "current",
                          "type": "int256"
                        },
                        {
                          "internalType": "int256",
                          "name": "previous",
                          "type": "int256"
                        }
                      ],
                      "internalType": "struct NahmiiTypesLib.CurrentPreviousInt256",
                      "name": "intended",
                      "type": "tuple"
                    },
                    {
                      "components": [
                        {
                          "internalType": "int256",
                          "name": "current",
                          "type": "int256"
                        },
                        {
                          "internalType": "int256",
                          "name": "previous",
                          "type": "int256"
                        }
                      ],
                      "internalType": "struct NahmiiTypesLib.CurrentPreviousInt256",
                      "name": "conjugate",
                      "type": "tuple"
                    }
                  ],
                  "internalType": "struct NahmiiTypesLib.IntendedConjugateCurrentPreviousInt256",
                  "name": "balances",
                  "type": "tuple"
                },
                {
                  "components": [
                    {
                      "components": [
                        {
                          "internalType": "int256",
                          "name": "amount",
                          "type": "int256"
                        },
                        {
                          "components": [
                            {
                              "internalType": "address",
                              "name": "ct",
                              "type": "address"
                            },
                            {
                              "internalType": "uint256",
                              "name": "id",
                              "type": "uint256"
                            }
                          ],
                          "internalType": "struct MonetaryTypesLib.Currency",
                          "name": "currency",
                          "type": "tuple"
                        }
                      ],
                      "internalType": "struct MonetaryTypesLib.Figure",
                      "name": "single",
                      "type": "tuple"
                    },
                    {
                      "components": [
                        {
                          "internalType": "uint256",
                          "name": "originId",
                          "type": "uint256"
                        },
                        {
                          "components": [
                            {
                              "internalType": "int256",
                              "name": "amount",
                              "type": "int256"
                            },
                            {
                              "components": [
                                {
                                  "internalType": "address",
                                  "name": "ct",
                                  "type": "address"
                                },
                                {
                                  "internalType": "uint256",
                                  "name": "id",
                                  "type": "uint256"
                                }
                              ],
                              "internalType": "struct MonetaryTypesLib.Currency",
                              "name": "currency",
                              "type": "tuple"
                            }
                          ],
                          "internalType": "struct MonetaryTypesLib.Figure",
                          "name": "figure",
                          "type": "tuple"
                        }
                      ],
                      "internalType": "struct NahmiiTypesLib.OriginFigure[]",
                      "name": "total",
                      "type": "tuple[]"
                    }
                  ],
                  "internalType": "struct NahmiiTypesLib.SingleFigureTotalOriginFigures",
                  "name": "fees",
                  "type": "tuple"
                }
              ],
              "internalType": "struct TradeTypesLib.TradeParty",
              "name": "seller",
              "type": "tuple"
            },
            {
              "components": [
                {
                  "components": [
                    {
                      "internalType": "int256",
                      "name": "single",
                      "type": "int256"
                    },
                    {
                      "internalType": "int256",
                      "name": "total",
                      "type": "int256"
                    }
                  ],
                  "internalType": "struct NahmiiTypesLib.SingleTotalInt256",
                  "name": "intended",
                  "type": "tuple"
                },
                {
                  "components": [
                    {
                      "internalType": "int256",
                      "name": "single",
                      "type": "int256"
                    },
                    {
                      "internalType": "int256",
                      "name": "total",
                      "type": "int256"
                    }
                  ],
                  "internalType": "struct NahmiiTypesLib.SingleTotalInt256",
                  "name": "conjugate",
                  "type": "tuple"
                }
              ],
              "internalType": "struct NahmiiTypesLib.IntendedConjugateSingleTotalInt256",
              "name": "transfers",
              "type": "tuple"
            },
            {
              "components": [
                {
                  "internalType": "bytes32",
                  "name": "hash",
                  "type": "bytes32"
                },
                {
                  "components": [
                    {
                      "internalType": "bytes32",
                      "name": "r",
                      "type": "bytes32"
                    },
                    {
                      "internalType": "bytes32",
                      "name": "s",
                      "type": "bytes32"
                    },
                    {
                      "internalType": "uint8",
                      "name": "v",
                      "type": "uint8"
                    }
                  ],
                  "internalType": "struct NahmiiTypesLib.Signature",
                  "name": "signature",
                  "type": "tuple"
                }
              ],
              "internalType": "struct NahmiiTypesLib.Seal",
              "name": "seal",
              "type": "tuple"
            },
            {
              "internalType": "uint256",
              "name": "blockNumber",
              "type": "uint256"
            },
            {
              "internalType": "uint256",
              "name": "operatorId",
              "type": "uint256"
            }
          ],
          "indexed": false,
          "internalType": "struct TradeTypesLib.Trade",
          "name": "trade",
          "type": "tuple"
        },
        {
          "indexed": false,
          "internalType": "address",
          "name": "challenger",
          "type": "address"
        }
      ],
      "name": "ChallengeByTradeEvent",
      "type": "event"
    },
    {
      "anonymous": false,
      "inputs": [
        {
          "indexed": false,
          "internalType": "address",
          "name": "service",
          "type": "address"
        }
      ],
      "name": "DeregisterServiceEvent",
      "type": "event"
    },
    {
      "anonymous": false,
      "inputs": [
        {
          "indexed": false,
          "internalType": "address",
          "name": "service",
          "type": "address"
        },
        {
          "indexed": false,
          "internalType": "string",
          "name": "action",
          "type": "string"
        }
      ],
      "name": "DisableServiceActionEvent",
      "type": "event"
    },
    {
      "anonymous": false,
      "inputs": [
        {
          "indexed": false,
          "internalType": "address",
          "name": "service",
          "type": "address"
        },
        {
          "indexed": false,
          "internalType": "string",
          "name": "action",
          "type": "string"
        }
      ],
      "name": "EnableServiceActionEvent",
      "type": "event"
    },
    {
      "anonymous": false,
      "inputs": [],
      "name": "FreezeBalanceTrackerEvent",
      "type": "event"
    },
    {
      "anonymous": false,
      "inputs": [],
      "name": "FreezeWalletLockerEvent",
      "type": "event"
    },
    {
      "anonymous": false,
      "inputs": [
        {
          "indexed": false,
          "internalType": "address",
          "name": "service",
          "type": "address"
        },
        {
          "indexed": false,
          "internalType": "uint256",
          "name": "timeout",
          "type": "uint256"
        }
      ],
      "name": "RegisterServiceDeferredEvent",
      "type": "event"
    },
    {
      "anonymous": false,
      "inputs": [
        {
          "indexed": false,
          "internalType": "address",
          "name": "service",
          "type": "address"
        }
      ],
      "name": "RegisterServiceEvent",
      "type": "event"
    },
    {
      "anonymous": false,
      "inputs": [
        {
          "indexed": false,
          "internalType": "address",
          "name": "wallet",
          "type": "address"
        }
      ],
      "name": "SelfDestructionDisabledEvent",
      "type": "event"
    },
    {
      "anonymous": false,
      "inputs": [
        {
          "indexed": false,
          "internalType": "uint256",
          "name": "timeoutInSeconds",
          "type": "uint256"
        }
      ],
      "name": "ServiceActivationTimeoutEvent",
      "type": "event"
    },
    {
      "anonymous": false,
      "inputs": [
        {
          "indexed": false,
          "internalType": "contract BalanceTracker",
          "name": "oldBalanceTracker",
          "type": "address"
        },
        {
          "indexed": false,
          "internalType": "contract BalanceTracker",
          "name": "newBalanceTracker",
          "type": "address"
        }
      ],
      "name": "SetBalanceTrackerEvent",
      "type": "event"
    },
    {
      "anonymous": false,
      "inputs": [
        {
          "indexed": false,
          "internalType": "contract CancelOrdersChallenge",
          "name": "oldCancelOrdersChallenge",
          "type": "address"
        },
        {
          "indexed": false,
          "internalType": "contract CancelOrdersChallenge",
          "name": "newCancelOrdersChallenge",
          "type": "address"
        }
      ],
      "name": "SetCancelOrdersChallengeEvent",
      "type": "event"
    },
    {
      "anonymous": false,
      "inputs": [
        {
          "indexed": false,
          "internalType": "contract Configuration",
          "name": "oldConfiguration",
          "type": "address"
        },
        {
          "indexed": false,
          "internalType": "contract Configuration",
          "name": "newConfiguration",
          "type": "address"
        }
      ],
      "name": "SetConfigurationEvent",
      "type": "event"
    },
    {
      "anonymous": false,
      "inputs": [
        {
          "indexed": false,
          "internalType": "address",
          "name": "oldDeployer",
          "type": "address"
        },
        {
          "indexed": false,
          "internalType": "address",
          "name": "newDeployer",
          "type": "address"
        }
      ],
      "name": "SetDeployerEvent",
      "type": "event"
    },
    {
      "anonymous": false,
      "inputs": [
        {
          "indexed": false,
          "internalType": "contract FraudChallenge",
          "name": "oldFraudChallenge",
          "type": "address"
        },
        {
          "indexed": false,
          "internalType": "contract FraudChallenge",
          "name": "newFraudChallenge",
          "type": "address"
        }
      ],
      "name": "SetFraudChallengeEvent",
      "type": "event"
    },
    {
      "anonymous": false,
      "inputs": [
        {
          "indexed": false,
          "internalType": "contract NullSettlementChallengeState",
          "name": "oldNullSettlementChallengeState",
          "type": "address"
        },
        {
          "indexed": false,
          "internalType": "contract NullSettlementChallengeState",
          "name": "newNullSettlementChallengeState",
          "type": "address"
        }
      ],
      "name": "SetNullSettlementChallengeStateEvent",
      "type": "event"
    },
    {
      "anonymous": false,
      "inputs": [
        {
          "indexed": false,
          "internalType": "address",
          "name": "oldOperator",
          "type": "address"
        },
        {
          "indexed": false,
          "internalType": "address",
          "name": "newOperator",
          "type": "address"
        }
      ],
      "name": "SetOperatorEvent",
      "type": "event"
    },
    {
      "anonymous": false,
      "inputs": [
        {
          "indexed": false,
          "internalType": "contract SecurityBond",
          "name": "oldSecurityBond",
          "type": "address"
        },
        {
          "indexed": false,
          "internalType": "contract SecurityBond",
          "name": "newSecurityBond",
          "type": "address"
        }
      ],
      "name": "SetSecurityBondEvent",
      "type": "event"
    },
    {
      "anonymous": false,
      "inputs": [
        {
          "indexed": false,
          "internalType": "contract ValidatorV2",
          "name": "oldValidator",
          "type": "address"
        },
        {
          "indexed": false,
          "internalType": "contract ValidatorV2",
          "name": "newValidator",
          "type": "address"
        }
      ],
      "name": "SetValidatorEvent",
      "type": "event"
    },
    {
      "anonymous": false,
      "inputs": [
        {
          "indexed": false,
          "internalType": "contract WalletLocker",
          "name": "oldWalletLocker",
          "type": "address"
        },
        {
          "indexed": false,
          "internalType": "contract WalletLocker",
          "name": "newWalletLocker",
          "type": "address"
        }
      ],
      "name": "SetWalletLockerEvent",
      "type": "event"
    },
    {
      "anonymous": false,
      "inputs": [
        {
          "indexed": false,
          "internalType": "address",
          "name": "wallet",
          "type": "address"
        }
      ],
      "name": "TriggerSelfDestructionEvent",
      "type": "event"
    },
    {
      "constant": true,
      "inputs": [],
      "name": "CHALLENGE_BY_TRADE_ACTION",
      "outputs": [
        {
          "internalType": "string",
          "name": "",
          "type": "string"
        }
      ],
      "payable": false,
      "stateMutability": "view",
      "type": "function"
    },
    {
      "constant": true,
      "inputs": [],
      "name": "balanceTracker",
      "outputs": [
        {
          "internalType": "contract BalanceTracker",
          "name": "",
          "type": "address"
        }
      ],
      "payable": false,
      "stateMutability": "view",
      "type": "function"
    },
    {
      "constant": true,
      "inputs": [],
      "name": "balanceTrackerFrozen",
      "outputs": [
        {
          "internalType": "bool",
          "name": "",
          "type": "bool"
        }
      ],
      "payable": false,
      "stateMutability": "view",
      "type": "function"
    },
    {
      "constant": true,
      "inputs": [],
      "name": "cancelOrdersChallenge",
      "outputs": [
        {
          "internalType": "contract CancelOrdersChallenge",
          "name": "",
          "type": "address"
        }
      ],
      "payable": false,
      "stateMutability": "view",
      "type": "function"
    },
    {
      "constant": true,
      "inputs": [],
      "name": "configuration",
      "outputs": [
        {
          "internalType": "contract Configuration",
          "name": "",
          "type": "address"
        }
      ],
      "payable": false,
      "stateMutability": "view",
      "type": "function"
    },
    {
      "constant": true,
      "inputs": [],
      "name": "deployer",
      "outputs": [
        {
          "internalType": "address",
          "name": "",
          "type": "address"
        }
      ],
      "payable": false,
      "stateMutability": "view",
      "type": "function"
    },
    {
      "constant": false,
      "inputs": [
        {
          "internalType": "address",
          "name": "service",
          "type": "address"
        }
      ],
      "name": "deregisterService",
      "outputs": [],
      "payable": false,
      "stateMutability": "nonpayable",
      "type": "function"
    },
    {
      "constant": true,
      "inputs": [],
      "name": "destructor",
      "outputs": [
        {
          "internalType": "address",
          "name": "",
          "type": "address"
        }
      ],
      "payable": false,
      "stateMutability": "view",
      "type": "function"
    },
    {
      "constant": false,
      "inputs": [],
      "name": "disableSelfDestruction",
      "outputs": [],
      "payable": false,
      "stateMutability": "nonpayable",
      "type": "function"
    },
    {
      "constant": false,
      "inputs": [
        {
          "internalType": "address",
          "name": "service",
          "type": "address"
        },
        {
          "internalType": "string",
          "name": "action",
          "type": "string"
        }
      ],
      "name": "disableServiceAction",
      "outputs": [],
      "payable": false,
      "stateMutability": "nonpayable",
      "type": "function"
    },
    {
      "constant": false,
      "inputs": [
        {
          "internalType": "address",
          "name": "service",
          "type": "address"
        },
        {
          "internalType": "string",
          "name": "action",
          "type": "string"
        }
      ],
      "name": "enableServiceAction",
      "outputs": [],
      "payable": false,
      "stateMutability": "nonpayable",
      "type": "function"
    },
    {
      "constant": true,
      "inputs": [],
      "name": "fraudChallenge",
      "outputs": [
        {
          "internalType": "contract FraudChallenge",
          "name": "",
          "type": "address"
        }
      ],
      "payable": false,
      "stateMutability": "view",
      "type": "function"
    },
    {
      "constant": false,
      "inputs": [],
      "name": "freezeBalanceTracker",
      "outputs": [],
      "payable": false,
      "stateMutability": "nonpayable",
      "type": "function"
    },
    {
      "constant": false,
      "inputs": [],
      "name": "freezeWalletLocker",
      "outputs": [],
      "payable": false,
      "stateMutability": "nonpayable",
      "type": "function"
    },
    {
      "constant": true,
      "inputs": [
        {
          "internalType": "address",
          "name": "service",
          "type": "address"
        },
        {
          "internalType": "string",
          "name": "action",
          "type": "string"
        }
      ],
      "name": "isEnabledServiceAction",
      "outputs": [
        {
          "internalType": "bool",
          "name": "",
          "type": "bool"
        }
      ],
      "payable": false,
      "stateMutability": "view",
      "type": "function"
    },
    {
      "constant": true,
      "inputs": [
        {
          "internalType": "address",
          "name": "service",
          "type": "address"
        }
      ],
      "name": "isRegisteredActiveService",
      "outputs": [
        {
          "internalType": "bool",
          "name": "",
          "type": "bool"
        }
      ],
      "payable": false,
      "stateMutability": "view",
      "type": "function"
    },
    {
      "constant": true,
      "inputs": [
        {
          "internalType": "address",
          "name": "service",
          "type": "address"
        }
      ],
      "name": "isRegisteredService",
      "outputs": [
        {
          "internalType": "bool",
          "name": "",
          "type": "bool"
        }
      ],
      "payable": false,
      "stateMutability": "view",
      "type": "function"
    },
    {
      "constant": true,
      "inputs": [],
      "name": "nullSettlementChallengeState",
      "outputs": [
        {
          "internalType": "contract NullSettlementChallengeState",
          "name": "",
          "type": "address"
        }
      ],
      "payable": false,
      "stateMutability": "view",
      "type": "function"
    },
    {
      "constant": true,
      "inputs": [],
      "name": "operator",
      "outputs": [
        {
          "internalType": "address",
          "name": "",
          "type": "address"
        }
      ],
      "payable": false,
      "stateMutability": "view",
      "type": "function"
    },
    {
      "constant": false,
      "inputs": [
        {
          "internalType": "address",
          "name": "service",
          "type": "address"
        }
      ],
      "name": "registerService",
      "outputs": [],
      "payable": false,
      "stateMutability": "nonpayable",
      "type": "function"
    },
    {
      "constant": false,
      "inputs": [
        {
          "internalType": "address",
          "name": "service",
          "type": "address"
        }
      ],
      "name": "registerServiceDeferred",
      "outputs": [],
      "payable": false,
      "stateMutability": "nonpayable",
      "type": "function"
    },
    {
      "constant": true,
      "inputs": [],
      "name": "securityBond",
      "outputs": [
        {
          "internalType": "contract SecurityBond",
          "name": "",
          "type": "address"
        }
      ],
      "payable": false,
      "stateMutability": "view",
      "type": "function"
    },
    {
      "constant": true,
      "inputs": [],
      "name": "selfDestructionDisabled",
      "outputs": [
        {
          "internalType": "bool",
          "name": "",
          "type": "bool"
        }
      ],
      "payable": false,
      "stateMutability": "view",
      "type": "function"
    },
    {
      "constant": true,
      "inputs": [],
      "name": "serviceActivationTimeout",
      "outputs": [
        {
          "internalType": "uint256",
          "name": "",
          "type": "uint256"
        }
      ],
      "payable": false,
      "stateMutability": "view",
      "type": "function"
    },
    {
      "constant": false,
      "inputs": [
        {
          "internalType": "contract BalanceTracker",
          "name": "newBalanceTracker",
          "type": "address"
        }
      ],
      "name": "setBalanceTracker",
      "outputs": [],
      "payable": false,
      "stateMutability": "nonpayable",
      "type": "function"
    },
    {
      "constant": false,
      "inputs": [
        {
          "internalType": "contract CancelOrdersChallenge",
          "name": "newCancelOrdersChallenge",
          "type": "address"
        }
      ],
      "name": "setCancelOrdersChallenge",
      "outputs": [],
      "payable": false,
      "stateMutability": "nonpayable",
      "type": "function"
    },
    {
      "constant": false,
      "inputs": [
        {
          "internalType": "contract Configuration",
          "name": "newConfiguration",
          "type": "address"
        }
      ],
      "name": "setConfiguration",
      "outputs": [],
      "payable": false,
      "stateMutability": "nonpayable",
      "type": "function"
    },
    {
      "constant": false,
      "inputs": [
        {
          "internalType": "address",
          "name": "newDeployer",
          "type": "address"
        }
      ],
      "name": "setDeployer",
      "outputs": [],
      "payable": false,
      "stateMutability": "nonpayable",
      "type": "function"
    },
    {
      "constant": false,
      "inputs": [
        {
          "internalType": "contract FraudChallenge",
          "name": "newFraudChallenge",
          "type": "address"
        }
      ],
      "name": "setFraudChallenge",
      "outputs": [],
      "payable": false,
      "stateMutability": "nonpayable",
      "type": "function"
    },
    {
      "constant": false,
      "inputs": [
        {
          "internalType": "address",
          "name": "newOperator",
          "type": "address"
        }
      ],
      "name": "setOperator",
      "outputs": [],
      "payable": false,
      "stateMutability": "nonpayable",
      "type": "function"
    },
    {
      "constant": false,
      "inputs": [
        {
          "internalType": "contract SecurityBond",
          "name": "newSecurityBond",
          "type": "address"
        }
      ],
      "name": "setSecurityBond",
      "outputs": [],
      "payable": false,
      "stateMutability": "nonpayable",
      "type": "function"
    },
    {
      "constant": false,
      "inputs": [
        {
          "internalType": "uint256",
          "name": "timeoutInSeconds",
          "type": "uint256"
        }
      ],
      "name": "setServiceActivationTimeout",
      "outputs": [],
      "payable": false,
      "stateMutability": "nonpayable",
      "type": "function"
    },
    {
      "constant": false,
      "inputs": [
        {
          "internalType": "contract ValidatorV2",
          "name": "newValidator",
          "type": "address"
        }
      ],
      "name": "setValidator",
      "outputs": [],
      "payable": false,
      "stateMutability": "nonpayable",
      "type": "function"
    },
    {
      "constant": false,
      "inputs": [
        {
          "internalType": "contract WalletLocker",
          "name": "newWalletLocker",
          "type": "address"
        }
      ],
      "name": "setWalletLocker",
      "outputs": [],
      "payable": false,
      "stateMutability": "nonpayable",
      "type": "function"
    },
    {
      "constant": false,
      "inputs": [],
      "name": "triggerSelfDestruction",
      "outputs": [],
      "payable": false,
      "stateMutability": "nonpayable",
      "type": "function"
    },
    {
      "constant": true,
      "inputs": [],
      "name": "validator",
      "outputs": [
        {
          "internalType": "contract ValidatorV2",
          "name": "",
          "type": "address"
        }
      ],
      "payable": false,
      "stateMutability": "view",
      "type": "function"
    },
    {
      "constant": true,
      "inputs": [],
      "name": "walletLocker",
      "outputs": [
        {
          "internalType": "contract WalletLocker",
          "name": "",
          "type": "address"
        }
      ],
      "payable": false,
      "stateMutability": "view",
      "type": "function"
    },
    {
      "constant": true,
      "inputs": [],
      "name": "walletLockerFrozen",
      "outputs": [
        {
          "internalType": "bool",
          "name": "",
          "type": "bool"
        }
      ],
      "payable": false,
      "stateMutability": "view",
      "type": "function"
    },
    {
      "constant": false,
      "inputs": [
        {
          "internalType": "contract NullSettlementChallengeState",
          "name": "newNullSettlementChallengeState",
          "type": "address"
        }
      ],
      "name": "setNullSettlementChallengeState",
      "outputs": [],
      "payable": false,
      "stateMutability": "nonpayable",
      "type": "function"
    },
    {
      "constant": false,
      "inputs": [
        {
          "internalType": "address",
          "name": "wallet",
          "type": "address"
        },
        {
          "components": [
            {
              "internalType": "uint256",
              "name": "nonce",
              "type": "uint256"
            },
            {
              "internalType": "int256",
              "name": "amount",
              "type": "int256"
            },
            {
              "components": [
                {
                  "components": [
                    {
                      "internalType": "address",
                      "name": "ct",
                      "type": "address"
                    },
                    {
                      "internalType": "uint256",
                      "name": "id",
                      "type": "uint256"
                    }
                  ],
                  "internalType": "struct MonetaryTypesLib.Currency",
                  "name": "intended",
                  "type": "tuple"
                },
                {
                  "components": [
                    {
                      "internalType": "address",
                      "name": "ct",
                      "type": "address"
                    },
                    {
                      "internalType": "uint256",
                      "name": "id",
                      "type": "uint256"
                    }
                  ],
                  "internalType": "struct MonetaryTypesLib.Currency",
                  "name": "conjugate",
                  "type": "tuple"
                }
              ],
              "internalType": "struct NahmiiTypesLib.IntendedConjugateCurrency",
              "name": "currencies",
              "type": "tuple"
            },
            {
              "internalType": "int256",
              "name": "rate",
              "type": "int256"
            },
            {
              "components": [
                {
                  "internalType": "uint256",
                  "name": "nonce",
                  "type": "uint256"
                },
                {
                  "internalType": "address",
                  "name": "wallet",
                  "type": "address"
                },
                {
                  "internalType": "uint256",
                  "name": "rollingVolume",
                  "type": "uint256"
                },
                {
                  "internalType": "enum TradeTypesLib.LiquidityRole",
                  "name": "liquidityRole",
                  "type": "uint8"
                },
                {
                  "components": [
                    {
                      "internalType": "int256",
                      "name": "amount",
                      "type": "int256"
                    },
                    {
                      "components": [
                        {
                          "internalType": "bytes32",
                          "name": "wallet",
                          "type": "bytes32"
                        },
                        {
                          "internalType": "bytes32",
                          "name": "operator",
                          "type": "bytes32"
                        }
                      ],
                      "internalType": "struct NahmiiTypesLib.WalletOperatorHashes",
                      "name": "hashes",
                      "type": "tuple"
                    },
                    {
                      "components": [
                        {
                          "internalType": "int256",
                          "name": "current",
                          "type": "int256"
                        },
                        {
                          "internalType": "int256",
                          "name": "previous",
                          "type": "int256"
                        }
                      ],
                      "internalType": "struct NahmiiTypesLib.CurrentPreviousInt256",
                      "name": "residuals",
                      "type": "tuple"
                    }
                  ],
                  "internalType": "struct TradeTypesLib.TradeOrder",
                  "name": "order",
                  "type": "tuple"
                },
                {
                  "components": [
                    {
                      "components": [
                        {
                          "internalType": "int256",
                          "name": "current",
                          "type": "int256"
                        },
                        {
                          "internalType": "int256",
                          "name": "previous",
                          "type": "int256"
                        }
                      ],
                      "internalType": "struct NahmiiTypesLib.CurrentPreviousInt256",
                      "name": "intended",
                      "type": "tuple"
                    },
                    {
                      "components": [
                        {
                          "internalType": "int256",
                          "name": "current",
                          "type": "int256"
                        },
                        {
                          "internalType": "int256",
                          "name": "previous",
                          "type": "int256"
                        }
                      ],
                      "internalType": "struct NahmiiTypesLib.CurrentPreviousInt256",
                      "name": "conjugate",
                      "type": "tuple"
                    }
                  ],
                  "internalType": "struct NahmiiTypesLib.IntendedConjugateCurrentPreviousInt256",
                  "name": "balances",
                  "type": "tuple"
                },
                {
                  "components": [
                    {
                      "components": [
                        {
                          "internalType": "int256",
                          "name": "amount",
                          "type": "int256"
                        },
                        {
                          "components": [
                            {
                              "internalType": "address",
                              "name": "ct",
                              "type": "address"
                            },
                            {
                              "internalType": "uint256",
                              "name": "id",
                              "type": "uint256"
                            }
                          ],
                          "internalType": "struct MonetaryTypesLib.Currency",
                          "name": "currency",
                          "type": "tuple"
                        }
                      ],
                      "internalType": "struct MonetaryTypesLib.Figure",
                      "name": "single",
                      "type": "tuple"
                    },
                    {
                      "components": [
                        {
                          "internalType": "uint256",
                          "name": "originId",
                          "type": "uint256"
                        },
                        {
                          "components": [
                            {
                              "internalType": "int256",
                              "name": "amount",
                              "type": "int256"
                            },
                            {
                              "components": [
                                {
                                  "internalType": "address",
                                  "name": "ct",
                                  "type": "address"
                                },
                                {
                                  "internalType": "uint256",
                                  "name": "id",
                                  "type": "uint256"
                                }
                              ],
                              "internalType": "struct MonetaryTypesLib.Currency",
                              "name": "currency",
                              "type": "tuple"
                            }
                          ],
                          "internalType": "struct MonetaryTypesLib.Figure",
                          "name": "figure",
                          "type": "tuple"
                        }
                      ],
                      "internalType": "struct NahmiiTypesLib.OriginFigure[]",
                      "name": "total",
                      "type": "tuple[]"
                    }
                  ],
                  "internalType": "struct NahmiiTypesLib.SingleFigureTotalOriginFigures",
                  "name": "fees",
                  "type": "tuple"
                }
              ],
              "internalType": "struct TradeTypesLib.TradeParty",
              "name": "buyer",
              "type": "tuple"
            },
            {
              "components": [
                {
                  "internalType": "uint256",
                  "name": "nonce",
                  "type": "uint256"
                },
                {
                  "internalType": "address",
                  "name": "wallet",
                  "type": "address"
                },
                {
                  "internalType": "uint256",
                  "name": "rollingVolume",
                  "type": "uint256"
                },
                {
                  "internalType": "enum TradeTypesLib.LiquidityRole",
                  "name": "liquidityRole",
                  "type": "uint8"
                },
                {
                  "components": [
                    {
                      "internalType": "int256",
                      "name": "amount",
                      "type": "int256"
                    },
                    {
                      "components": [
                        {
                          "internalType": "bytes32",
                          "name": "wallet",
                          "type": "bytes32"
                        },
                        {
                          "internalType": "bytes32",
                          "name": "operator",
                          "type": "bytes32"
                        }
                      ],
                      "internalType": "struct NahmiiTypesLib.WalletOperatorHashes",
                      "name": "hashes",
                      "type": "tuple"
                    },
                    {
                      "components": [
                        {
                          "internalType": "int256",
                          "name": "current",
                          "type": "int256"
                        },
                        {
                          "internalType": "int256",
                          "name": "previous",
                          "type": "int256"
                        }
                      ],
                      "internalType": "struct NahmiiTypesLib.CurrentPreviousInt256",
                      "name": "residuals",
                      "type": "tuple"
                    }
                  ],
                  "internalType": "struct TradeTypesLib.TradeOrder",
                  "name": "order",
                  "type": "tuple"
                },
                {
                  "components": [
                    {
                      "components": [
                        {
                          "internalType": "int256",
                          "name": "current",
                          "type": "int256"
                        },
                        {
                          "internalType": "int256",
                          "name": "previous",
                          "type": "int256"
                        }
                      ],
                      "internalType": "struct NahmiiTypesLib.CurrentPreviousInt256",
                      "name": "intended",
                      "type": "tuple"
                    },
                    {
                      "components": [
                        {
                          "internalType": "int256",
                          "name": "current",
                          "type": "int256"
                        },
                        {
                          "internalType": "int256",
                          "name": "previous",
                          "type": "int256"
                        }
                      ],
                      "internalType": "struct NahmiiTypesLib.CurrentPreviousInt256",
                      "name": "conjugate",
                      "type": "tuple"
                    }
                  ],
                  "internalType": "struct NahmiiTypesLib.IntendedConjugateCurrentPreviousInt256",
                  "name": "balances",
                  "type": "tuple"
                },
                {
                  "components": [
                    {
                      "components": [
                        {
                          "internalType": "int256",
                          "name": "amount",
                          "type": "int256"
                        },
                        {
                          "components": [
                            {
                              "internalType": "address",
                              "name": "ct",
                              "type": "address"
                            },
                            {
                              "internalType": "uint256",
                              "name": "id",
                              "type": "uint256"
                            }
                          ],
                          "internalType": "struct MonetaryTypesLib.Currency",
                          "name": "currency",
                          "type": "tuple"
                        }
                      ],
                      "internalType": "struct MonetaryTypesLib.Figure",
                      "name": "single",
                      "type": "tuple"
                    },
                    {
                      "components": [
                        {
                          "internalType": "uint256",
                          "name": "originId",
                          "type": "uint256"
                        },
                        {
                          "components": [
                            {
                              "internalType": "int256",
                              "name": "amount",
                              "type": "int256"
                            },
                            {
                              "components": [
                                {
                                  "internalType": "address",
                                  "name": "ct",
                                  "type": "address"
                                },
                                {
                                  "internalType": "uint256",
                                  "name": "id",
                                  "type": "uint256"
                                }
                              ],
                              "internalType": "struct MonetaryTypesLib.Currency",
                              "name": "currency",
                              "type": "tuple"
                            }
                          ],
                          "internalType": "struct MonetaryTypesLib.Figure",
                          "name": "figure",
                          "type": "tuple"
                        }
                      ],
                      "internalType": "struct NahmiiTypesLib.OriginFigure[]",
                      "name": "total",
                      "type": "tuple[]"
                    }
                  ],
                  "internalType": "struct NahmiiTypesLib.SingleFigureTotalOriginFigures",
                  "name": "fees",
                  "type": "tuple"
                }
              ],
              "internalType": "struct TradeTypesLib.TradeParty",
              "name": "seller",
              "type": "tuple"
            },
            {
              "components": [
                {
                  "components": [
                    {
                      "internalType": "int256",
                      "name": "single",
                      "type": "int256"
                    },
                    {
                      "internalType": "int256",
                      "name": "total",
                      "type": "int256"
                    }
                  ],
                  "internalType": "struct NahmiiTypesLib.SingleTotalInt256",
                  "name": "intended",
                  "type": "tuple"
                },
                {
                  "components": [
                    {
                      "internalType": "int256",
                      "name": "single",
                      "type": "int256"
                    },
                    {
                      "internalType": "int256",
                      "name": "total",
                      "type": "int256"
                    }
                  ],
                  "internalType": "struct NahmiiTypesLib.SingleTotalInt256",
                  "name": "conjugate",
                  "type": "tuple"
                }
              ],
              "internalType": "struct NahmiiTypesLib.IntendedConjugateSingleTotalInt256",
              "name": "transfers",
              "type": "tuple"
            },
            {
              "components": [
                {
                  "internalType": "bytes32",
                  "name": "hash",
                  "type": "bytes32"
                },
                {
                  "components": [
                    {
                      "internalType": "bytes32",
                      "name": "r",
                      "type": "bytes32"
                    },
                    {
                      "internalType": "bytes32",
                      "name": "s",
                      "type": "bytes32"
                    },
                    {
                      "internalType": "uint8",
                      "name": "v",
                      "type": "uint8"
                    }
                  ],
                  "internalType": "struct NahmiiTypesLib.Signature",
                  "name": "signature",
                  "type": "tuple"
                }
              ],
              "internalType": "struct NahmiiTypesLib.Seal",
              "name": "seal",
              "type": "tuple"
            },
            {
              "internalType": "uint256",
              "name": "blockNumber",
              "type": "uint256"
            },
            {
              "internalType": "uint256",
              "name": "operatorId",
              "type": "uint256"
            }
          ],
          "internalType": "struct TradeTypesLib.Trade",
          "name": "trade",
          "type": "tuple"
        },
        {
          "internalType": "address",
          "name": "challenger",
          "type": "address"
        }
      ],
      "name": "challengeByTrade",
      "outputs": [],
      "payable": false,
      "stateMutability": "nonpayable",
      "type": "function"
    }
  ],
  "bytecode": "0x60806040523480156200001157600080fd5b5060405162004432380380620044328339810160408190526200003491620000b3565b80806001600160a01b0381166200004a57600080fd5b6001600160a01b0381163014156200006157600080fd5b5060008054610100600160a81b0319166101006001600160a01b0393909316928302179055600180546001600160a01b03191690911790555062000108565b8051620000ad81620000ee565b92915050565b600060208284031215620000c657600080fd5b6000620000d48484620000a0565b949350505050565b60006001600160a01b038216620000ad565b620000f981620000dc565b81146200010557600080fd5b50565b61431a80620001186000396000f3fe608060405234801561001057600080fd5b50600436106101d85760003560e01c806301370d06146101dd5780630cca956d146101f257806312255c94146102105780631327d3d81461022557806317ba3f90146102385780631913909214610258578063240625d8146102605780632738a112146102685780632b5672e3146102705780632b91e0a9146102835780632f013a00146102965780633a5381b51461029e5780633b58c501146102a65780633b7bea6c146102b95780633bd7857f146102ce5780633dad7da4146102d65780633e59b706146102e95780634476d23b146102f157806350b08c0214610306578063570ca73514610319578063598b75ad146103215780635dc60def146103345780635df1b0a31461033c578063627f09c31461034f5780636792ce6e146103625780636b0570d0146103755780636c70bee91461037d5780636ccb43c81461038557806370327ea1146103985780637e15dd5c146103a0578063892860b2146103b35780638e8cef12146103c657806392272607146103d957806396214735146103ec578063b3ab15fb146103ff578063b52d470a14610412578063d5f394881461041a578063e8ae41e314610422578063fa7424f21461042a578063fdd9ec7d14610432575b600080fd5b6101f06101eb3660046133b3565b610445565b005b6101fa6104e6565b604051610207919061400f565b60405180910390f35b6102186104f5565b6040516102079190614046565b6101f06102333660046133b3565b610523565b61024b610246366004613286565b6105b4565b6040516102079190613ff3565b6101fa6105ee565b61024b6105fd565b6101f061060d565b6101f061027e3660046132c2565b610673565b61024b610291366004613286565b61079d565b61024b6107bb565b6101fa6107c4565b6101f06102b43660046132c2565b6107d3565b6102c16108af565b6040516102079190614001565b6101fa6108b5565b6101f06102e43660046133b3565b6108c4565b61024b610955565b6102f9610965565b6040516102079190613d40565b6101f0610314366004613286565b610979565b6102f9610a35565b6101f061032f3660046133b3565b610a44565b6101f0610b08565b61024b61034a3660046132c2565b610b57565b6101f061035d3660046133b3565b610baa565b6101f06103703660046133b3565b610c3b565b6101fa610ccc565b6101fa610cdb565b6101f06103933660046133b3565b610cea565b6101f0610d71565b6101f06103ae366004613496565b610dd4565b6101f06103c13660046133b3565b610e25565b6101f06103d4366004613286565b610ee0565b6101f06103e7366004613313565b610f5a565b6101f06103fa366004613286565b611770565b6101f061040d366004613286565b611826565b6101f06118c9565b6102f9611918565b6101fa61192c565b6101fa61193b565b6101f0610440366004613286565b61194a565b61044d6119bf565b61045657600080fd5b806001600160a01b03811661046a57600080fd5b60075482906001600160a01b0390811690821681146104e057600780546001600160a01b038681166001600160a01b03198316179092556040519116907f07998fa7be97abe2427246ae4688298c89d6196bbffdf0997b9495a8d27bc673906104d6908390889061401d565b60405180910390a1505b50505050565b6008546001600160a01b031681565b604051806040016040528060128152602001716368616c6c656e67655f62795f747261646560701b81525081565b61052b6119bf565b61053457600080fd5b806001600160a01b03811661054857600080fd5b60035482906001600160a01b0390811690821681146104e057600380546001600160a01b038681166001600160a01b03198316179092556040519116907f1882af944a16549c3d4f60e3cd26f158b0c7aac3222cf32971fc21375ce05f60906104d6908390889061401d565b60006105bf8261079d565b80156105e657506001600160a01b0382166000908152600960205260409020600101544210155b90505b919050565b6006546001600160a01b031681565b600554600160a01b900460ff1681565b33610616610965565b6001600160a01b03161461062957600080fd5b60005460ff161561063957600080fd5b7f787a5d936e74f4b564b9153575886059829c78cd9927b1be5e0d976b317ef736336040516106689190613d4e565b60405180910390a133ff5b61067b6119bf565b61068457600080fd5b816001600160a01b03811661069857600080fd5b6001600160a01b0381163014156106ae57600080fd5b6001600160a01b03831660009081526009602052604090205460ff166106d357600080fd5b60006106de836119d5565b6001600160a01b038516600090815260096020908152604080832084845260020190915290205490915060ff161561071557600080fd5b6001600160a01b0384166000908152600960208181526040808420858552600281018352818520805460ff19166001908117909155938352600301805493840181558452922001829055517fec1b982d69bfc1a6fd8becf191d9a633486c822d3bdedd52303ca81fa63575019061078f9086908690613ef2565b60405180910390a150505050565b6001600160a01b031660009081526009602052604090205460ff1690565b60005460ff1681565b6003546001600160a01b031681565b6107db6119bf565b6107e457600080fd5b816001600160a01b0381166107f857600080fd5b6001600160a01b03811630141561080e57600080fd5b6000610819836119d5565b6001600160a01b038516600090815260096020908152604080832084845260020190915290205490915060ff1661084f57600080fd5b6001600160a01b038416600090815260096020908152604080832084845260020190915290819020805460ff19169055517f92f4af6130f47c92f3899e06611c8c6ef191fb81207ad2675d134af619d2fe7d9061078f9086908690613ef2565b600a5481565b6007546001600160a01b031681565b6108cc6119bf565b6108d557600080fd5b806001600160a01b0381166108e957600080fd5b60085482906001600160a01b0390811690821681146104e057600880546001600160a01b038681166001600160a01b03198316179092556040519116907fafe0f82771e36e01015c06151eff69190d6796b6359da2780a8dd89ded9b2205906104d6908390889061401d565b600654600160a01b900460ff1681565b60005461010090046001600160a01b031690565b6109816119bf565b61098a57600080fd5b806001600160a01b03811661099e57600080fd5b6001600160a01b0381163014156109b457600080fd5b6001600160a01b03821660009081526009602052604090205460ff166109d957600080fd5b6001600160a01b03821660009081526009602052604090819020805460ff19169055517f777645c5437dfbf962f57a281ead25f3d513f2f8e938685bbfc1738e81c9880e90610a29908490613d40565b60405180910390a15050565b6001546001600160a01b031681565b610a4c6119bf565b610a5557600080fd5b806001600160a01b038116610a6957600080fd5b60065482906001600160a01b0390811690821681146104e057600654600160a01b900460ff1615610ab55760405162461bcd60e51b8152600401610aac90614087565b60405180910390fd5b600680546001600160a01b038681166001600160a01b03198316179092556040519116907fb2a91d3a71b0c5bc7c083153b3474378e489506ba98bd4ddb1b9056fdc594bb5906104d6908390889061401d565b610b106119bf565b610b1957600080fd5b6005805460ff60a01b1916600160a01b1790556040517f56ec8900b9c4bf84f4b715a53068ca06961dd49084c07b481931e2c2045346e690600090a1565b600080610b63836119d5565b9050610b6e846105b4565b8015610ba057506001600160a01b038416600090815260096020908152604080832084845260020190915290205460ff165b9150505b92915050565b610bb26119bf565b610bbb57600080fd5b806001600160a01b038116610bcf57600080fd5b60025482906001600160a01b0390811690821681146104e057600280546001600160a01b038681166001600160a01b03198316179092556040519116907f634f61bf00e14adedce330c80c2823e16e184f189ebe853e1ddecc4a268477ff906104d6908390889061401d565b610c436119bf565b610c4c57600080fd5b806001600160a01b038116610c6057600080fd5b60045482906001600160a01b0390811690821681146104e057600480546001600160a01b038681166001600160a01b03198316179092556040519116907fc9f3f00c1760fe26985aeacb814a21c56ea289d680562e89b249681b08c30382906104d6908390889061401d565b6004546001600160a01b031681565b6002546001600160a01b031681565b610cf26119bf565b610cfb57600080fd5b806001600160a01b038116610d0f57600080fd5b600b80546001600160a01b038481166001600160a01b031983161792839055604051918116927ff21c127205310467822e10c64b2d9ffae588e019194d6af71f2bdddc0b7ef52692610d64928592169061401d565b60405180910390a1505050565b33610d7a610965565b6001600160a01b031614610d8d57600080fd5b6000805460ff191660011790556040517fd5a2a04a775c741c2ca0dc46ea7ce4835190e1aaf1ca018def0e82568ec3361690610dca903390613d4e565b60405180910390a1565b610ddc6119bf565b610de557600080fd5b600a8190556040517f4f1d324a1cbffc352fb64f1d73d95e4b200d92f99ef39bf2d7f5b41f946909d690610e1a908390614001565b60405180910390a150565b610e2d6119bf565b610e3657600080fd5b806001600160a01b038116610e4a57600080fd5b60055482906001600160a01b0390811690821681146104e057600554600160a01b900460ff1615610e8d5760405162461bcd60e51b8152600401610aac90614107565b600580546001600160a01b038681166001600160a01b03198316179092556040519116907fa44d361e26327b72a7ccbeae801b3c5cd7677ea4fa74168b289e273c46bfecfc906104d6908390889061401d565b610ee86119bf565b610ef157600080fd5b806001600160a01b038116610f0557600080fd5b6001600160a01b038116301415610f1b57600080fd5b610f2782600a54611a05565b7f7f3a8349917003ed377f6e9ae1608b92edd893903f8983bd274b1f8373dd3b1182600a54604051610a29929190613e2e565b604051806040016040528060128152602001716368616c6c656e67655f62795f747261646560701b815250610f8f3382610b57565b610f9857600080fd5b600354604051637211c8c760e11b815284916001600160a01b03169063e423918e90610fc8908490600401614117565b60206040518083038186803b158015610fe057600080fd5b505afa158015610ff4573d6000803e3d6000fd5b505050506040513d601f19601f820116820180604052506110189190810190613377565b6110345760405162461bcd60e51b8152600401610aac906140d7565b6003546040516303e149c360e11b8152859187916001600160a01b03909116906307c293869061106a9085908590600401614128565b60206040518083038186803b15801561108257600080fd5b505afa158015611096573d6000803e3d6000fd5b505050506040513d601f19601f820116820180604052506110ba9190810190613377565b6110d65760405162461bcd60e51b8152600401610aac90614077565b60075460e0870151516040516352c894d160e11b81526001600160a01b039092169163a59129a29161110a91600401614001565b60206040518083038186803b15801561112257600080fd5b505afa158015611136573d6000803e3d6000fd5b505050506040513d601f19601f8201168201806040525061115a9190810190613377565b156111775760405162461bcd60e51b8152600401610aac90614097565b6007546001600160a01b031663e1f5828b6111928989611a54565b6040518263ffffffff1660e01b81526004016111ae9190614001565b60206040518083038186803b1580156111c657600080fd5b505afa1580156111da573d6000803e3d6000fd5b505050506040513d601f19601f820116820180604052506111fe9190810190613377565b1561121b5760405162461bcd60e51b8152600401610aac906140b7565b6008546001600160a01b0316639bd5eb1688611237818a611a54565b6040518363ffffffff1660e01b8152600401611254929190613e2e565b60206040518083038186803b15801561126c57600080fd5b505afa158015611280573d6000803e3d6000fd5b505050506040513d601f19601f820116820180604052506112a49190810190613377565b156112c15760405162461bcd60e51b8152600401610aac906140e7565b6112c9612c65565b6112d38888611b0a565b600b5460405163076470a560e31b81529192506001600160a01b031690633b23852890611306908b908590600401613f12565b60206040518083038186803b15801561131e57600080fd5b505afa158015611332573d6000803e3d6000fd5b505050506040513d601f19601f820116820180604052506113569190810190613377565b6113725760405162461bcd60e51b8152600401610aac906140c7565b600b54604051635482c73560e01b81526001600160a01b0390911690635482c735906113a4908b908590600401613f12565b60206040518083038186803b1580156113bc57600080fd5b505afa1580156113d0573d6000803e3d6000fd5b505050506040513d601f19601f820116820180604052506113f49190810190613377565b156114115760405162461bcd60e51b8152600401610aac906140f7565b600061141d8989611bb1565b600b54604051632ee2ed2560e01b81529192506001600160a01b031690632ee2ed2590611450908c908690600401613f12565b60206040518083038186803b15801561146857600080fd5b505afa15801561147c573d6000803e3d6000fd5b505050506040513d601f19601f820116820180604052506114a09190810190613395565b81116114be5760405162461bcd60e51b8152600401610aac90614067565b600b5460405163553d90e960e01b81526001600160a01b039091169063553d90e9906114f0908c908690600401613f12565b60206040518083038186803b15801561150857600080fd5b505afa15801561151c573d6000803e3d6000fd5b505050506040513d601f19601f820116820180604052506115409190810190613395565b811161155e5760405162461bcd60e51b8152600401610aac90614057565b611569898984611c4e565b6115855760405162461bcd60e51b8152600401610aac906140a7565b61159a896115938b8b611e16565b848a611ebf565b600b60009054906101000a90046001600160a01b03166001600160a01b031663667666c88a848a8c6101000151868e60e001516000015173__TradeTypesLib_________________________6332575cb66040518163ffffffff1660e01b815260040160006040518083038186803b15801561161557600080fd5b505af4158015611629573d6000803e3d6000fd5b505050506040513d6000823e601f3d908101601f191682016040526116519190810190613462565b6040518863ffffffff1660e01b81526004016116739796959493929190613f2d565b600060405180830381600087803b15801561168d57600080fd5b505af11580156116a1573d6000803e3d6000fd5b5050600b54604051632ee2ed2560e01b81527fb69fdc3af3abb19f37028d39f381743ca840cb47e6b36f7c0399810761c4387093508c92506001600160a01b0390911690632ee2ed25906116fb9084908890600401613f12565b60206040518083038186803b15801561171357600080fd5b505afa158015611727573d6000803e3d6000fd5b505050506040513d601f19601f8201168201806040525061174b9190810190613395565b8a8a60405161175d9493929190613f9c565b60405180910390a1505050505050505050565b6117786119bf565b61178157600080fd5b806001600160a01b03811661179557600080fd5b6001600160a01b0381163014156117ab57600080fd5b6000546001600160a01b03838116610100909204161461182257600080546001600160a01b03848116610100908102610100600160a81b03198416179093556040519290910416907f977e5fa58e458501775e0008d275006294c5249e3c08d1d0e3a9f3acad14f6e490610d649083908690613d5c565b5050565b61182e611f63565b61183757600080fd5b806001600160a01b03811661184b57600080fd5b6001600160a01b03811630141561186157600080fd5b6001546001600160a01b0383811691161461182257600180546001600160a01b038481166001600160a01b03198316179092556040519116907f9f611b789425d0d5b90b920f1b2852907dd865c80074a30b1629aaa041d1812c90610d649083908690613d5c565b6118d16119bf565b6118da57600080fd5b6006805460ff60a01b1916600160a01b1790556040517f9c567b65fe8caab5ec7bc979a498a1322c1d4baf01a30727cbca137187560ea290600090a1565b60005461010090046001600160a01b031681565b6005546001600160a01b031681565b600b546001600160a01b031681565b6119526119bf565b61195b57600080fd5b806001600160a01b03811661196f57600080fd5b6001600160a01b03811630141561198557600080fd5b611990826000611a05565b7fb619d545cb511bd5f02907a1eac4f4cb8dace7b1846852fb0bf5e553937481c182604051610a299190613d40565b60005461010090046001600160a01b0316331490565b6000816040516020016119e89190613d34565b604051602081830303815290604052805190602001209050919050565b6001600160a01b03821660009081526009602052604090205460ff16611822576001600160a01b0382166000908152600960205260409020805460ff1916600190811782554283019101555050565b60035460405163059057d760e01b81526000916001600160a01b03169063059057d790611a879085908790600401614128565b60206040518083038186803b158015611a9f57600080fd5b505afa158015611ab3573d6000803e3d6000fd5b505050506040513d601f19601f82011682018060405250611ad79190810190613377565b611af1578160a00151608001516020015160200151611b03565b81608001516080015160200151602001515b9392505050565b611b12612c65565b60035460405163059057d760e01b81526001600160a01b039091169063059057d790611b449085908790600401614128565b60206040518083038186803b158015611b5c57600080fd5b505afa158015611b70573d6000803e3d6000fd5b505050506040513d601f19601f82011682018060405250611b949190810190613377565b611ba357604082015151611b03565b506040015160200151919050565b60035460405163059057d760e01b81526000916001600160a01b03169063059057d790611be49085908790600401614128565b60206040518083038186803b158015611bfc57600080fd5b505afa158015611c10573d6000803e3d6000fd5b505050506040513d601f19601f82011682018060405250611c349190810190613377565b611c435760a082015151611b03565b506080015151919050565b600b5460405163c46fcd7560e01b815260009182916001600160a01b039091169063c46fcd7590611c859088908790600401613f12565b60206040518083038186803b158015611c9d57600080fd5b505afa158015611cb1573d6000803e3d6000fd5b505050506040513d601f19601f82011682018060405250611cd59190810190613395565b600b5460405163374852cb60e11b8152919250600091611dac91611d8391899188916001600160a01b0390911690636e90a59690611d199085908590600401613f12565b60206040518083038186803b158015611d3157600080fd5b505afa158015611d45573d6000803e3d6000fd5b505050506040513d601f19601f82011682018060405250611d699190810190613395565b6006546001600160a01b031692919063ffffffff611f7416565b600654611da0906001600160a01b0316898863ffffffff611f9016565b9063ffffffff61219916565b610100860151600654919250600091611de691611ddc916001600160a01b0316908a90899063ffffffff611f7416565b611da08989611e16565b9050611dfa8160001963ffffffff6121d316565b611e0a848463ffffffff61223216565b12979650505050505050565b60035460405163059057d760e01b81526000916001600160a01b03169063059057d790611e499085908790600401614128565b60206040518083038186803b158015611e6157600080fd5b505afa158015611e75573d6000803e3d6000fd5b505050506040513d601f19601f82011682018060405250611e999190810190613377565b611eac5760a08083015101515151611b03565b506080015160a001516020015151919050565b600b546040516333ca4eab60e21b81526001600160a01b039091169063cf293aac90611ef19087908690600401613f12565b60206040518083038186803b158015611f0957600080fd5b505afa158015611f1d573d6000803e3d6000fd5b505050506040513d601f19601f82011682018060405250611f419190810190613377565b15611f5757611f5284848484612264565b6104e0565b6104e0848484846124d8565b6001546001600160a01b0316331490565b600080611f83868686866128e6565b509150505b949350505050565b6000611f88846001600160a01b03166371f4ec5185876001600160a01b0316634652ec746040518163ffffffff1660e01b815260040160206040518083038186803b158015611fde57600080fd5b505afa158015611ff2573d6000803e3d6000fd5b505050506040513d601f19601f820116820180604052506120169190810190613395565b865160208801516040516001600160e01b031960e087901b1681526120419493929190600401613e49565b60206040518083038186803b15801561205957600080fd5b505afa15801561206d573d6000803e3d6000fd5b505050506040513d601f19601f820116820180604052506120919190810190613395565b856001600160a01b03166371f4ec5186886001600160a01b031663ded113106040518163ffffffff1660e01b815260040160206040518083038186803b1580156120da57600080fd5b505afa1580156120ee573d6000803e3d6000fd5b505050506040513d601f19601f820116820180604052506121129190810190613395565b875160208901516040516001600160e01b031960e087901b16815261213d9493929190600401613e49565b60206040518083038186803b15801561215557600080fd5b505afa158015612169573d6000803e3d6000fd5b505050506040513d601f19601f8201168201806040525061218d9190810190613395565b9063ffffffff61223216565b60008082121580156121ad57508282840313155b806121c457506000821280156121c4575082828403135b6121cd57600080fd5b50900390565b6000826000191415806121ea5750600160ff1b8214155b6121f357600080fd5b816000191415806122085750600160ff1b8314155b61221157600080fd5b82820282158061222957508383828161222657fe5b05145b611b0357600080fd5b60008282018183128015906122475750838112155b8061222957506000831280156122295750838112611b0357600080fd5b600b5460405163b6e2fc3360e01b81526001600160a01b039091169063b6e2fc33906122969087908690600401613f12565b60206040518083038186803b1580156122ae57600080fd5b505afa1580156122c2573d6000803e3d6000fd5b505050506040513d601f19601f820116820180604052506122e691908101906133d1565b60018111156122f157fe5b600114156123e757600554600b54604051635658722960e01b81526001600160a01b03928316926346c5c0239288929116906356587229906123399084908990600401613f12565b60206040518083038186803b15801561235157600080fd5b505afa158015612365573d6000803e3d6000fd5b505050506040513d601f19601f8201168201806040525061238991908101906132a4565b855160208701516040516001600160e01b031960e087901b1681526123b49493929190600401613d77565b600060405180830381600087803b1580156123ce57600080fd5b505af11580156123e2573d6000803e3d6000fd5b505050505b60055482516020808501516002546040805163fbdfd8e760e01b815290516001600160a01b0396871696639a545322968c968a968d9692959094929093169263fbdfd8e79260048083019392829003018186803b15801561244757600080fd5b505afa15801561245b573d6000803e3d6000fd5b505050506040513d601f19601f8201168201806040525061247f9190810190613395565b6040518763ffffffff1660e01b81526004016124a096959493929190613dac565b600060405180830381600087803b1580156124ba57600080fd5b505af11580156124ce573d6000803e3d6000fd5b5050505050505050565b600b5460405163b6e2fc3360e01b81526001600160a01b039091169063b6e2fc339061250a9087908690600401613f12565b60206040518083038186803b15801561252257600080fd5b505afa158015612536573d6000803e3d6000fd5b505050506040513d601f19601f8201168201806040525061255a91908101906133d1565b600181111561256557fe5b600114156126585760048054600b54604051635658722960e01b81526001600160a01b0392831693634e791e0d93909216916356587229916125ab918a91899101613f12565b60206040518083038186803b1580156125c357600080fd5b505afa1580156125d7573d6000803e3d6000fd5b505050506040513d601f19601f820116820180604052506125fb91908101906132a4565b845160208601516040516001600160e01b031960e086901b16815261262593929190600401613e06565b600060405180830381600087803b15801561263f57600080fd5b505af1158015612653573d6000803e3d6000fd5b505050505b612660612c7c565b612668612b9d565b6004805482516020808501518051910151604051634197bc1960e11b81529596506001600160a01b039093169463832f7832946126ae9489949392909160009101613eb0565b600060405180830381600087803b1580156126c857600080fd5b505af11580156126dc573d6000803e3d6000fd5b50506004805486516020808901516002546040805163560069d960e11b815290516000995073__SafeMathIntLib________________________985063755875b2978e976001600160a01b039081169763a72148eb979096959091169363ac00d3b293818401939091829003018186803b15801561275957600080fd5b505afa15801561276d573d6000803e3d6000fd5b505050506040513d601f19601f820116820180604052506127919190810190613395565b6040518463ffffffff1660e01b81526004016127af93929190613fd8565b60206040518083038186803b1580156127c757600080fd5b505afa1580156127db573d6000803e3d6000fd5b505050506040513d601f19601f820116820180604052506127ff9190810190613395565b6040518363ffffffff1660e01b815260040161281c929190614038565b60206040518083038186803b15801561283457600080fd5b505af4158015612848573d6000803e3d6000fd5b505050506040513d601f19601f8201168201806040525061286c9190810190613395565b6004805486516020880151604051634197bc1960e11b81529495506001600160a01b039092169363832f7832936128ac9389938893909260009101613eb0565b600060405180830381600087803b1580156128c657600080fd5b505af11580156128da573d6000803e3d6000fd5b50505050505050505050565b600080600080876001600160a01b031663a246138c888a6001600160a01b031663ded113106040518163ffffffff1660e01b815260040160206040518083038186803b15801561293557600080fd5b505afa158015612949573d6000803e3d6000fd5b505050506040513d601f19601f8201168201806040525061296d9190810190613395565b895160208b01516040516001600160e01b031960e087901b16815261299a94939291908c90600401613e64565b604080518083038186803b1580156129b157600080fd5b505afa1580156129c5573d6000803e3d6000fd5b505050506040513d601f19601f820116820180604052506129e99190810190613432565b91509150600080896001600160a01b031663a246138c8a8c6001600160a01b0316634652ec746040518163ffffffff1660e01b815260040160206040518083038186803b158015612a3957600080fd5b505afa158015612a4d573d6000803e3d6000fd5b505050506040513d601f19601f82011682018060405250612a719190810190613395565b8b5160208d01516040516001600160e01b031960e087901b168152612a9e94939291908e90600401613e64565b604080518083038186803b158015612ab557600080fd5b505afa158015612ac9573d6000803e3d6000fd5b505050506040513d601f19601f82011682018060405250612aed9190810190613432565b9092509050612b02848363ffffffff61223216565b60405163a682d5ad60e01b815290965073__SafeMathUintLib_______________________9063a682d5ad90612b3e9086908590600401614038565b60206040518083038186803b158015612b5657600080fd5b505af4158015612b6a573d6000803e3d6000fd5b505050506040513d601f19601f82011682018060405250612b8e9190810190613395565b94505050505094509492505050565b612ba5612c7c565b6000806000600260009054906101000a90046001600160a01b03166001600160a01b031663ccd03d2e6040518163ffffffff1660e01b815260040160606040518083038186803b158015612bf857600080fd5b505afa158015612c0c573d6000803e3d6000fd5b505050506040513d601f19601f82011682018060405250612c3091908101906133ef565b60408051808201825293845280518082019091526001600160a01b039092168252602082810191909152820152935050505090565b604080518082019091526000808252602082015290565b604051806040016040528060008152602001612c96612c65565b905290565b8035610ba481614272565b8051610ba481614272565b600082601f830112612cc257600080fd5b8135612cd5612cd08261416e565b614148565b91508181835260208401935060208101905083856080840282011115612cfa57600080fd5b60005b83811015612d285781612d108882612f2b565b84525060209092019160809190910190600101612cfd565b5050505092915050565b8051610ba481614286565b8035610ba48161428f565b8051610ba48161428f565b8035610ba481614298565b8035610ba4816142a1565b8051610ba4816142a1565b600082601f830112612d8557600080fd5b8135612d93612cd08261418e565b91508082526020830160208301858383011115612daf57600080fd5b612dba838284614223565b50505092915050565b600082601f830112612dd457600080fd5b8151612de2612cd08261418e565b91508082526020830160208301858383011115612dfe57600080fd5b612dba83828461422f565b600060408284031215612e1b57600080fd5b612e256040614148565b90506000612e338484612c9b565b8252506020612e4484848301612d3d565b60208301525092915050565b600060408284031215612e6257600080fd5b612e6c6040614148565b90506000612e338484612d3d565b600060608284031215612e8c57600080fd5b612e966040614148565b90506000612ea48484612d3d565b8252506020612e4484848301612e09565b600060808284031215612ec757600080fd5b612ed16040614148565b90506000612edf8484612e09565b8252506040612e4484848301612e09565b600060808284031215612f0257600080fd5b612f0c6040614148565b90506000612f1a8484612e50565b8252506040612e4484848301612e50565b600060808284031215612f3d57600080fd5b612f476040614148565b90506000612f558484612d3d565b8252506020612e4484848301612e7a565b600060808284031215612f7857600080fd5b612f826040614148565b90506000612f908484612d3d565b8252506020612e4484848301600060608284031215612fae57600080fd5b612fb86060614148565b90506000612fc68484612d3d565b8252506020612fd784848301612d3d565b6020830152506040612feb8482850161327b565b60408301525092915050565b60006080828403121561300957600080fd5b6130136040614148565b905060006130218484612e7a565b82525060608201356001600160401b0381111561303d57600080fd5b612e4484828501612cb1565b600060a0828403121561305b57600080fd5b6130656060614148565b905060006130738484612d3d565b825250602061308484848301612e50565b6020830152506060612feb84828501612e50565b60006101c082840312156130ab57600080fd5b6130b560e0614148565b905060006130c38484612d3d565b82525060206130d484848301612c9b565b60208301525060406130e884828501612d3d565b60408301525060606130fc84828501612d5e565b606083015250608061311084828501613049565b60808301525061012061312584828501612ef0565b60a0830152506101a08201356001600160401b0381111561314557600080fd5b61315184828501612ff7565b60c08301525092915050565b6000610260828403121561317057600080fd5b61317b610140614148565b905060006131898484612d3d565b825250602061319a84848301612d3d565b60208301525060406131ae84828501612eb5565b60408301525060c06131c284828501612d3d565b60608301525060e08201356001600160401b038111156131e157600080fd5b6131ed84828501613098565b6080830152506101008201356001600160401b0381111561320d57600080fd5b61321984828501613098565b60a08301525061012061322e84828501612ef0565b60c0830152506101a061324384828501612f66565b60e08301525061022061325884828501612d3d565b6101008301525061024061326e84828501612d3d565b6101208301525092915050565b8035610ba4816142ae565b60006020828403121561329857600080fd5b6000610ba08484612c9b565b6000602082840312156132b657600080fd5b6000610ba08484612ca6565b600080604083850312156132d557600080fd5b60006132e18585612c9b565b92505060208301356001600160401b038111156132fd57600080fd5b61330985828601612d74565b9150509250929050565b60008060006060848603121561332857600080fd5b60006133348686612c9b565b93505060208401356001600160401b0381111561335057600080fd5b61335c8682870161315d565b925050604061336d86828701612c9b565b9150509250925092565b60006020828403121561338957600080fd5b6000610ba08484612d32565b6000602082840312156133a757600080fd5b6000610ba08484612d48565b6000602082840312156133c557600080fd5b6000610ba08484612d53565b6000602082840312156133e357600080fd5b6000610ba08484612d69565b60008060006060848603121561340457600080fd5b60006134108686612d48565b935050602061342186828701612ca6565b925050604061336d86828701612d48565b6000806040838503121561344557600080fd5b60006134518585612d48565b925050602061330985828601612d48565b60006020828403121561347457600080fd5b81516001600160401b0381111561348a57600080fd5b610ba084828501612dc3565b6000602082840312156134a857600080fd5b6000610ba08484612d3d565b60006134c08383613ada565b505060800190565b6134d181614202565b82525050565b6134d1816141c8565b60006134eb826141bb565b6134f581856141bf565b9350613500836141b5565b8060005b8381101561352e57815161351888826134b4565b9750613523836141b5565b925050600101613504565b509495945050505050565b6134d1816141d3565b6134d1816141d8565b6134d1816141db565b6134d18161420d565b6134d181614218565b6000613571826141bb565b61357b81856141bf565b935061358b81856020860161422f565b6135948161425b565b9093019392505050565b60006135a9826141bb565b6135b381856105e9565b93506135c381856020860161422f565b9290920192915050565b60006135da606c836141bf565b6000805160206142b883398151915281527f207468616e2070726f706f73616c206469737175616c696669636174696f6e2060208201527f6e6f6e6365205b4e756c6c536574746c656d656e74446973707574654279547260408201526b6164652e736f6c3a3133305d60a01b606082015260800192915050565b6000613662605b836141bf565b6000805160206142b883398151915281527f207468616e2070726f706f73616c206e6f6e6365205b4e756c6c536574746c6560208201527a6d656e7444697370757465427954726164652e736f6c3a3132365d60281b604082015260600192915050565b60006136d3602d836141bf565b7f57616c6c6574206e6f74207472616465207061727479205b56616c696461746181526c626c6556322e736f6c3a38355d60981b602082015260400192915050565b60006137226030836141bf565b7f42616c616e636520747261636b65722066726f7a656e205b42616c616e63655481526f7261636b61626c652e736f6c3a34335d60801b602082015260400192915050565b6000613774603d836141bf565b7f5472616465206465656d6564206672617564756c656e74205b4e756c6c53657481527f746c656d656e7444697370757465427954726164652e736f6c3a38395d000000602082015260400192915050565b60006137d3603d836141bf565b7f4e6f207472616465206f76657272756e20666f756e64205b4e756c6c5365747481527f6c656d656e7444697370757465427954726164652e736f6c3a3133365d000000602082015260400192915050565b6000613832603d836141bf565b7f4f72646572206465656d6564206672617564756c656e74205b4e756c6c53657481527f746c656d656e7444697370757465427954726164652e736f6c3a39355d000000602082015260400192915050565b60006138916038836141bf565b7f4e6f2070726f706f73616c20666f756e64205b4e756c6c536574746c656d656e8152777444697370757465427954726164652e736f6c3a3131305d60401b602082015260400192915050565b60006138eb602d836141bf565b7f5472616465207365616c206e6f742067656e75696e65205b56616c696461746181526c626c6556322e736f6c3a37305d60981b602082015260400192915050565b600061393a603d836141bf565b7f4f72646572206465656d65642063616e63656c6c6564205b4e756c6c5365747481527f6c656d656e7444697370757465427954726164652e736f6c3a3130315d000000602082015260400192915050565b6000613999603d836141bf565b7f50726f706f73616c20666f756e642065787069726564205b4e756c6c5365747481527f6c656d656e7444697370757465427954726164652e736f6c3a3131365d000000602082015260400192915050565b60006139f8602c836141bf565b7f57616c6c6574206c6f636b65722066726f7a656e205b57616c6c65744c6f636b81526b61626c652e736f6c3a34335d60a01b602082015260400192915050565b80516040830190613a4a84826134d7565b5060208201516104e06020850182613542565b80516040830190613a4a8482613542565b80516060830190613a7f8482613542565b5060208201516104e06020850182613a39565b80516080830190613aa38482613a39565b5060208201516104e06040850182613a39565b80516080830190613ac78482613a5d565b5060208201516104e06040850182613a5d565b80516080830190613aeb8482613542565b5060208201516104e06020850182613a6e565b80516080830190613b0f8482613542565b5060208201516104e0602085018280516060830190613b2e8482613542565b506020820151613b416020850182613542565b5060408201516104e06040850182613d2b565b80516000906080840190613b688582613a6e565b5060208301518482036060860152613b8082826134e0565b95945050505050565b805160a0830190613b9a8482613542565b506020820151613bad6020850182613a5d565b5060408201516104e06060850182613a5d565b80516000906101c0840190613bd58582613542565b506020830151613be860208601826134d7565b506040830151613bfb6040860182613542565b506060830151613c0e6060860182613554565b506080830151613c216080860182613b89565b5060a0830151613c35610120860182613ab6565b5060c08301518482036101a0860152613b808282613b54565b8051600090610260840190613c638582613542565b506020830151613c766020860182613542565b506040830151613c896040860182613a92565b506060830151613c9c60c0860182613542565b50608083015184820360e0860152613cb48282613bc0565b91505060a0830151848203610100860152613ccf8282613bc0565b91505060c0830151613ce5610120860182613ab6565b5060e0830151613cf96101a0860182613afe565b50610100830151613d0e610220860182613542565b50610120830151613d23610240860182613542565b509392505050565b6134d1816141fc565b6000611b03828461359e565b60208101610ba482846134d7565b60208101610ba482846134c8565b60408101613d6a82856134d7565b611b0360208301846134d7565b60808101613d8582876134d7565b613d9260208301866134d7565b613d9f60408301856134d7565b613b806060830184613542565b60c08101613dba82896134d7565b613dc760208301886134d7565b613dd46040830187613542565b613de160608301866134d7565b613dee6080830185613542565b613dfb60a0830184613542565b979650505050505050565b60608101613e1482866134d7565b613e2160208301856134d7565b611f886040830184613542565b60408101613e3c82856134d7565b611b036020830184613542565b60808101613e5782876134d7565b613d926020830186613542565b60a08101613e7282886134d7565b613e7f6020830187613542565b613e8c60408301866134d7565b613e996060830185613542565b613ea66080830184613542565b9695505050505050565b60a08101613ebe82886134d7565b613ecb6020830187613542565b613ed860408301866134d7565b613ee56060830185613542565b613ea6608083018461355d565b60408101613f0082856134d7565b8181036020830152611f888184613566565b60608101613f2082856134d7565b611b036020830184613a39565b6101008101613f3c828a6134d7565b613f496020830189613a39565b613f5660608301886134d7565b613f636080830187613542565b613f7060a0830186613542565b613f7d60c0830185613542565b81810360e0830152613f8f8184613566565b9998505050505050505050565b60808101613faa82876134d7565b613fb76020830186613542565b8181036040830152613fc98185613c4e565b9050613b8060608301846134d7565b60608101613fe682866134d7565b613e216020830185613542565b60208101610ba48284613539565b60208101610ba48284613542565b60208101610ba4828461354b565b6040810161402b828561354b565b611b03602083018461354b565b60408101613e3c8285613542565b60208082528101611b038184613566565b602080825281016105e6816135cd565b602080825281016105e681613655565b602080825281016105e6816136c6565b602080825281016105e681613715565b602080825281016105e681613767565b602080825281016105e6816137c6565b602080825281016105e681613825565b602080825281016105e681613884565b602080825281016105e6816138de565b602080825281016105e68161392d565b602080825281016105e68161398c565b602080825281016105e6816139eb565b60208082528101611b038184613c4e565b604080825281016141398185613c4e565b9050611b0360208301846134d7565b6040518181016001600160401b038111828210171561416657600080fd5b604052919050565b60006001600160401b0382111561418457600080fd5b5060209081020190565b60006001600160401b038211156141a457600080fd5b506020601f91909101601f19160190565b60200190565b5190565b90815260200190565b60006105e6826141f0565b151590565b90565b60006105e6826141c8565b806105e981614265565b6001600160a01b031690565b60ff1690565b60006105e6826141db565b60006105e6826141e6565b60006105e6826141d8565b82818337506000910152565b60005b8381101561424a578181015183820152602001614232565b838111156104e05750506000910152565b601f01601f191690565b6002811061426f57fe5b50565b61427b816141c8565b811461426f57600080fd5b61427b816141d3565b61427b816141d8565b61427b816141db565b6002811061426f57600080fd5b61427b816141fc56fe5472616465206e6f6e6365206e6f74207374726963746c792067726561746572a365627a7a72315820f43326b26e57864a1d7c0b76a5dada76a317f0907bd99bccaf302d54914706196c6578706572696d656e74616cf564736f6c634300050c0040",
  "source": "/*\n * Hubii Nahmii\n *\n * Compliant with the Hubii Nahmii specification v0.12.\n *\n * Copyright (C) 2017-2018 Hubii AS\n */\n\npragma solidity >=0.4.25 <0.6.0;\npragma experimental ABIEncoderV2;\n\nimport {Ownable} from \"./Ownable.sol\";\nimport {Configurable} from \"./Configurable.sol\";\nimport {ValidatableV2} from \"./ValidatableV2.sol\";\nimport {SecurityBondable} from \"./SecurityBondable.sol\";\nimport {WalletLockable} from \"./WalletLockable.sol\";\nimport {BalanceTrackable} from \"./BalanceTrackable.sol\";\nimport {FraudChallengable} from \"./FraudChallengable.sol\";\nimport {CancelOrdersChallengable} from \"./CancelOrdersChallengable.sol\";\nimport {Servable} from \"./Servable.sol\";\nimport {SafeMathIntLib} from \"./SafeMathIntLib.sol\";\nimport {SafeMathUintLib} from \"./SafeMathUintLib.sol\";\nimport {MonetaryTypesLib} from \"./MonetaryTypesLib.sol\";\nimport {TradeTypesLib} from \"./TradeTypesLib.sol\";\nimport {SettlementChallengeTypesLib} from \"./SettlementChallengeTypesLib.sol\";\nimport {NullSettlementChallengeState} from \"./NullSettlementChallengeState.sol\";\nimport {BalanceTracker} from \"./BalanceTracker.sol\";\nimport {BalanceTrackerLib} from \"./BalanceTrackerLib.sol\";\n\n/**\n * @title NullSettlementDisputeByTrade\n * @notice The where trade related disputes of null settlement challenge happens\n */\ncontract NullSettlementDisputeByTrade is Ownable, Configurable, ValidatableV2, SecurityBondable, WalletLockable,\nBalanceTrackable, FraudChallengable, CancelOrdersChallengable, Servable {\n    using SafeMathIntLib for int256;\n    using SafeMathUintLib for uint256;\n    using BalanceTrackerLib for BalanceTracker;\n\n    //\n    // Constants\n    // -----------------------------------------------------------------------------------------------------------------\n    string constant public CHALLENGE_BY_TRADE_ACTION = \"challenge_by_trade\";\n\n    //\n    // Variables\n    // -----------------------------------------------------------------------------------------------------------------\n    NullSettlementChallengeState public nullSettlementChallengeState;\n\n    //\n    // Events\n    // -----------------------------------------------------------------------------------------------------------------\n    event SetNullSettlementChallengeStateEvent(NullSettlementChallengeState oldNullSettlementChallengeState,\n        NullSettlementChallengeState newNullSettlementChallengeState);\n    event ChallengeByOrderEvent(uint256 nonce, TradeTypesLib.Order order, address challenger);\n    event ChallengeByTradeEvent(address wallet, uint256 nonce, TradeTypesLib.Trade trade,\n        address challenger);\n\n    //\n    // Constructor\n    // -----------------------------------------------------------------------------------------------------------------\n    constructor(address deployer) Ownable(deployer) public {\n    }\n\n    /// @notice Set the settlement challenge state contract\n    /// @param newNullSettlementChallengeState The (address of) NullSettlementChallengeState contract instance\n    function setNullSettlementChallengeState(NullSettlementChallengeState newNullSettlementChallengeState) public\n    onlyDeployer\n    notNullAddress(address(newNullSettlementChallengeState))\n    {\n        NullSettlementChallengeState oldNullSettlementChallengeState = nullSettlementChallengeState;\n        nullSettlementChallengeState = newNullSettlementChallengeState;\n        emit SetNullSettlementChallengeStateEvent(oldNullSettlementChallengeState, nullSettlementChallengeState);\n    }\n\n    /// @notice Challenge the settlement by providing trade candidate\n    /// @param wallet The wallet whose settlement is being challenged\n    /// @param trade The trade candidate that challenges\n    /// @param challenger The address of the challenger\n    /// @dev If wallet is buyer in (candidate) trade consider single _conjugate_ transfer in (candidate) trade. Else\n    /// if wallet is seller in (candidate) trade consider single _intended_ transfer in (candidate) trade\n    function challengeByTrade(address wallet, TradeTypesLib.Trade memory trade, address challenger)\n    public\n    onlyEnabledServiceAction(CHALLENGE_BY_TRADE_ACTION)\n    onlySealedTrade(trade)\n    onlyTradeParty(trade, wallet)\n    {\n        // Require that trade candidate is not labelled fraudulent\n        require(\n            !fraudChallenge.isFraudulentTradeHash(trade.seal.hash),\n            \"Trade deemed fraudulent [NullSettlementDisputeByTrade.sol:89]\"\n        );\n\n        // Require that wallet's order in trade is not labelled fraudulent\n        require(\n            !fraudChallenge.isFraudulentOrderHash(_tradeOrderHash(wallet, trade)),\n            \"Order deemed fraudulent [NullSettlementDisputeByTrade.sol:95]\"\n        );\n\n        // Require that wallet's order in trade is not labelled cancelled\n        require(\n            !cancelOrdersChallenge.isOrderCancelled(wallet, _tradeOrderHash(wallet, trade)),\n            \"Order deemed cancelled [NullSettlementDisputeByTrade.sol:101]\"\n        );\n\n        // Get the relevant currency\n        MonetaryTypesLib.Currency memory currency = _tradeCurrency(wallet, trade);\n\n        // Require that proposal has been initiated\n        require(\n            nullSettlementChallengeState.hasProposal(wallet, currency),\n            \"No proposal found [NullSettlementDisputeByTrade.sol:110]\"\n        );\n\n        // Require that proposal has not expired\n        require(\n            !nullSettlementChallengeState.hasProposalExpired(wallet, currency),\n            \"Proposal found expired [NullSettlementDisputeByTrade.sol:116]\"\n        );\n\n        // Get the relevant nonce\n        uint256 nonce = _tradeNonce(wallet, trade);\n\n        // Require that trade party's nonce is strictly greater than proposal's nonce and its current\n        // disqualification nonce\n        require(\n            nonce > nullSettlementChallengeState.proposalNonce(wallet, currency),\n            \"Trade nonce not strictly greater than proposal nonce [NullSettlementDisputeByTrade.sol:126]\"\n        );\n        require(\n            nonce > nullSettlementChallengeState.proposalDisqualificationNonce(wallet, currency),\n            \"Trade nonce not strictly greater than proposal disqualification nonce [NullSettlementDisputeByTrade.sol:130]\"\n        );\n\n        // Require overrun for this trade to be a valid challenge candidate\n        require(_tradeOverrun(wallet, trade, currency), \"No trade overrun found [NullSettlementDisputeByTrade.sol:136]\");\n\n        // Reward challenger\n        _settleRewards(wallet, _tradeCurrentBalanceAmount(wallet, trade), currency, challenger);\n\n        // Disqualify proposal, effectively overriding any previous disqualification\n        nullSettlementChallengeState.disqualifyProposal(\n            wallet, currency, challenger, trade.blockNumber,\n            nonce, trade.seal.hash, TradeTypesLib.TRADE_KIND()\n        );\n\n        // Emit event\n        emit ChallengeByTradeEvent(\n            wallet, nullSettlementChallengeState.proposalNonce(wallet, currency), trade, challenger\n        );\n    }\n\n    //\n    // Private functions\n    // -----------------------------------------------------------------------------------------------------------------\n    function _tradeOverrun(address wallet, TradeTypesLib.Trade memory trade, MonetaryTypesLib.Currency memory currency)\n    private\n    view\n    returns (bool)\n    {\n        // Get the target balance amount from the proposal\n        int targetBalanceAmount = nullSettlementChallengeState.proposalTargetBalanceAmount(\n            wallet, currency\n        );\n\n        // Get the change in active balance since the start of the challenge\n        int256 deltaBalanceSinceStart = balanceTracker.fungibleActiveBalanceAmount(\n            wallet, currency\n        ).sub(\n            balanceTracker.fungibleActiveBalanceAmountByBlockNumber(\n                wallet, currency,\n                nullSettlementChallengeState.proposalReferenceBlockNumber(wallet, currency)\n            )\n        );\n\n        // Get the cumulative transfer of the trade\n        int256 cumulativeTransfer = _tradeCurrentBalanceAmount(wallet, trade).sub(\n            balanceTracker.fungibleActiveBalanceAmountByBlockNumber(wallet, currency, trade.blockNumber)\n        );\n\n        return targetBalanceAmount.add(deltaBalanceSinceStart) < cumulativeTransfer.mul(- 1);\n    }\n\n    function _tradeOrderHash(address wallet, TradeTypesLib.Trade memory trade)\n    private\n    view\n    returns (bytes32)\n    {\n        return validator.isTradeBuyer(trade, wallet) ?\n        trade.buyer.order.hashes.operator :\n        trade.seller.order.hashes.operator;\n    }\n\n    // Get the candidate trade currency\n    // Wallet is buyer in (candidate) trade -> Conjugate currency\n    // Wallet is seller in (candidate) trade -> Intended currency\n    function _tradeCurrency(address wallet, TradeTypesLib.Trade memory trade)\n    private\n    view\n    returns (MonetaryTypesLib.Currency memory)\n    {\n        return validator.isTradeBuyer(trade, wallet) ?\n        trade.currencies.conjugate :\n        trade.currencies.intended;\n    }\n\n    // Get the candidate trade nonce\n    // Wallet is buyer in (candidate) trade -> Buyer's nonce\n    // Wallet is seller in (candidate) trade -> Seller's nonce\n    function _tradeNonce(address wallet, TradeTypesLib.Trade memory trade)\n    private\n    view\n    returns (uint256)\n    {\n        return validator.isTradeBuyer(trade, wallet) ?\n        trade.buyer.nonce :\n        trade.seller.nonce;\n    }\n\n    // Get the candidate trade current balance amount\n    // Wallet is buyer in (candidate) trade -> Buyer's conjugate balance\n    // Wallet is seller in (candidate) trade -> Seller's intended balance\n    function _tradeCurrentBalanceAmount(address wallet, TradeTypesLib.Trade memory trade)\n    private\n    view\n    returns (int256)\n    {\n        return validator.isTradeBuyer(trade, wallet) ?\n        trade.buyer.balances.conjugate.current :\n        trade.seller.balances.intended.current;\n    }\n\n    function _settleRewards(address wallet, int256 walletAmount, MonetaryTypesLib.Currency memory currency,\n        address challenger)\n    private\n    {\n        if (nullSettlementChallengeState.proposalWalletInitiated(wallet, currency))\n            _settleBalanceReward(wallet, walletAmount, currency, challenger);\n\n        else\n            _settleSecurityBondReward(wallet, walletAmount, currency, challenger);\n    }\n\n    function _settleBalanceReward(address wallet, int256 walletAmount, MonetaryTypesLib.Currency memory currency,\n        address challenger)\n    private\n    {\n        // Unlock wallet/currency for existing challenger if previously locked\n        if (SettlementChallengeTypesLib.Status.Disqualified == nullSettlementChallengeState.proposalStatus(\n            wallet, currency\n        ))\n            walletLocker.unlockFungibleByProxy(\n                wallet,\n                nullSettlementChallengeState.proposalDisqualificationChallenger(\n                    wallet, currency\n                ),\n                currency.ct, currency.id\n            );\n\n        // Lock wallet for new challenger\n        walletLocker.lockFungibleByProxy(\n            wallet, challenger, walletAmount, currency.ct, currency.id, configuration.settlementChallengeTimeout()\n        );\n    }\n\n    // Settle the two-component reward from security bond.\n    // The first component is flat figure as obtained from Configuration\n    // The second component is progressive and calculated as\n    //    min(walletAmount, fraction of SecurityBond's deposited balance)\n    // both amounts for the given currency\n    function _settleSecurityBondReward(address wallet, int256 walletAmount, MonetaryTypesLib.Currency memory currency,\n        address challenger)\n    private\n    {\n        // Deprive existing challenger of reward if previously locked\n        if (SettlementChallengeTypesLib.Status.Disqualified == nullSettlementChallengeState.proposalStatus(\n            wallet, currency\n        ))\n            securityBond.depriveAbsolute(\n                nullSettlementChallengeState.proposalDisqualificationChallenger(\n                    wallet, currency\n                ),\n                currency.ct, currency.id\n            );\n\n        // Reward the flat component\n        MonetaryTypesLib.Figure memory flatReward = _flatReward();\n        securityBond.rewardAbsolute(\n            challenger, flatReward.amount, flatReward.currency.ct, flatReward.currency.id, 0\n        );\n\n        // Reward the progressive component\n        int256 progressiveRewardAmount = walletAmount.clampMax(\n            securityBond.depositedFractionalBalance(\n                currency.ct, currency.id, configuration.operatorSettlementStakeFraction()\n            )\n        );\n        securityBond.rewardAbsolute(\n            challenger, progressiveRewardAmount, currency.ct, currency.id, 0\n        );\n    }\n\n    function _flatReward()\n    private\n    view\n    returns (MonetaryTypesLib.Figure memory)\n    {\n        (int256 amount, address currencyCt, uint256 currencyId) = configuration.operatorSettlementStake();\n        return MonetaryTypesLib.Figure(amount, MonetaryTypesLib.Currency(currencyCt, currencyId));\n    }\n}",
  "sourcePath": "/opt/buildagent/work/855e104608380c36/contracts/NullSettlementDisputeByTrade.sol",
  "compiler": {
    "name": "solc",
    "version": "0.5.12+commit.7709ece9.Emscripten.clang"
  },
  "schemaVersion": "2.0.3",
  "updatedAt": "2019-10-23T00:21:41.178Z"
}