{
  "contractName": "NullSettlementChallengeByTrade",
  "abi": [
    {
      "constant": true,
      "inputs": [],
      "name": "balanceTracker",
      "outputs": [
        {
          "name": "",
          "type": "address"
        }
      ],
      "payable": false,
      "stateMutability": "view",
      "type": "function"
    },
    {
      "constant": true,
      "inputs": [],
      "name": "walletLockerFrozen",
      "outputs": [
        {
          "name": "",
          "type": "bool"
        }
      ],
      "payable": false,
      "stateMutability": "view",
      "type": "function"
    },
    {
      "constant": false,
      "inputs": [],
      "name": "triggerSelfDestruction",
      "outputs": [],
      "payable": false,
      "stateMutability": "nonpayable",
      "type": "function"
    },
    {
      "constant": true,
      "inputs": [],
      "name": "selfDestructionDisabled",
      "outputs": [
        {
          "name": "",
          "type": "bool"
        }
      ],
      "payable": false,
      "stateMutability": "view",
      "type": "function"
    },
    {
      "constant": true,
      "inputs": [],
      "name": "nullSettlementDisputeByTrade",
      "outputs": [
        {
          "name": "",
          "type": "address"
        }
      ],
      "payable": false,
      "stateMutability": "view",
      "type": "function"
    },
    {
      "constant": true,
      "inputs": [],
      "name": "balanceTrackerFrozen",
      "outputs": [
        {
          "name": "",
          "type": "bool"
        }
      ],
      "payable": false,
      "stateMutability": "view",
      "type": "function"
    },
    {
      "constant": true,
      "inputs": [],
      "name": "destructor",
      "outputs": [
        {
          "name": "",
          "type": "address"
        }
      ],
      "payable": false,
      "stateMutability": "view",
      "type": "function"
    },
    {
      "constant": true,
      "inputs": [],
      "name": "operator",
      "outputs": [
        {
          "name": "",
          "type": "address"
        }
      ],
      "payable": false,
      "stateMutability": "view",
      "type": "function"
    },
    {
      "constant": false,
      "inputs": [
        {
          "name": "newBalanceTracker",
          "type": "address"
        }
      ],
      "name": "setBalanceTracker",
      "outputs": [],
      "payable": false,
      "stateMutability": "nonpayable",
      "type": "function"
    },
    {
      "constant": false,
      "inputs": [],
      "name": "freezeWalletLocker",
      "outputs": [],
      "payable": false,
      "stateMutability": "nonpayable",
      "type": "function"
    },
    {
      "constant": false,
      "inputs": [
        {
          "name": "newConfiguration",
          "type": "address"
        }
      ],
      "name": "setConfiguration",
      "outputs": [],
      "payable": false,
      "stateMutability": "nonpayable",
      "type": "function"
    },
    {
      "constant": true,
      "inputs": [],
      "name": "configuration",
      "outputs": [
        {
          "name": "",
          "type": "address"
        }
      ],
      "payable": false,
      "stateMutability": "view",
      "type": "function"
    },
    {
      "constant": false,
      "inputs": [],
      "name": "disableSelfDestruction",
      "outputs": [],
      "payable": false,
      "stateMutability": "nonpayable",
      "type": "function"
    },
    {
      "constant": true,
      "inputs": [],
      "name": "nullSettlementState",
      "outputs": [
        {
          "name": "",
          "type": "address"
        }
      ],
      "payable": false,
      "stateMutability": "view",
      "type": "function"
    },
    {
      "constant": false,
      "inputs": [
        {
          "name": "newWalletLocker",
          "type": "address"
        }
      ],
      "name": "setWalletLocker",
      "outputs": [],
      "payable": false,
      "stateMutability": "nonpayable",
      "type": "function"
    },
    {
      "constant": false,
      "inputs": [
        {
          "name": "newDeployer",
          "type": "address"
        }
      ],
      "name": "setDeployer",
      "outputs": [],
      "payable": false,
      "stateMutability": "nonpayable",
      "type": "function"
    },
    {
      "constant": false,
      "inputs": [
        {
          "name": "newOperator",
          "type": "address"
        }
      ],
      "name": "setOperator",
      "outputs": [],
      "payable": false,
      "stateMutability": "nonpayable",
      "type": "function"
    },
    {
      "constant": false,
      "inputs": [],
      "name": "freezeBalanceTracker",
      "outputs": [],
      "payable": false,
      "stateMutability": "nonpayable",
      "type": "function"
    },
    {
      "constant": true,
      "inputs": [],
      "name": "deployer",
      "outputs": [
        {
          "name": "",
          "type": "address"
        }
      ],
      "payable": false,
      "stateMutability": "view",
      "type": "function"
    },
    {
      "constant": true,
      "inputs": [],
      "name": "walletLocker",
      "outputs": [
        {
          "name": "",
          "type": "address"
        }
      ],
      "payable": false,
      "stateMutability": "view",
      "type": "function"
    },
    {
      "constant": true,
      "inputs": [],
      "name": "nullSettlementChallengeState",
      "outputs": [
        {
          "name": "",
          "type": "address"
        }
      ],
      "payable": false,
      "stateMutability": "view",
      "type": "function"
    },
    {
      "inputs": [
        {
          "name": "deployer",
          "type": "address"
        }
      ],
      "payable": false,
      "stateMutability": "nonpayable",
      "type": "constructor"
    },
    {
      "anonymous": false,
      "inputs": [
        {
          "indexed": false,
          "name": "oldNullSettlementDisputeByTrade",
          "type": "address"
        },
        {
          "indexed": false,
          "name": "newNullSettlementDisputeByTrade",
          "type": "address"
        }
      ],
      "name": "SetNullSettlementDisputeByTradeEvent",
      "type": "event"
    },
    {
      "anonymous": false,
      "inputs": [
        {
          "indexed": false,
          "name": "oldNullSettlementChallengeState",
          "type": "address"
        },
        {
          "indexed": false,
          "name": "newNullSettlementChallengeState",
          "type": "address"
        }
      ],
      "name": "SetNullSettlementChallengeStateEvent",
      "type": "event"
    },
    {
      "anonymous": false,
      "inputs": [
        {
          "indexed": false,
          "name": "oldNullSettlementState",
          "type": "address"
        },
        {
          "indexed": false,
          "name": "newNullSettlementState",
          "type": "address"
        }
      ],
      "name": "SetNullSettlementStateEvent",
      "type": "event"
    },
    {
      "anonymous": false,
      "inputs": [
        {
          "indexed": false,
          "name": "wallet",
          "type": "address"
        },
        {
          "indexed": false,
          "name": "amount",
          "type": "int256"
        },
        {
          "indexed": false,
          "name": "stageCurrencyCt",
          "type": "address"
        },
        {
          "indexed": false,
          "name": "stageCurrencyId",
          "type": "uint256"
        }
      ],
      "name": "StartChallengeEvent",
      "type": "event"
    },
    {
      "anonymous": false,
      "inputs": [
        {
          "indexed": false,
          "name": "proxy",
          "type": "address"
        },
        {
          "indexed": false,
          "name": "wallet",
          "type": "address"
        },
        {
          "indexed": false,
          "name": "amount",
          "type": "int256"
        },
        {
          "indexed": false,
          "name": "stageCurrencyCt",
          "type": "address"
        },
        {
          "indexed": false,
          "name": "stageCurrencyId",
          "type": "uint256"
        }
      ],
      "name": "StartChallengeByProxyEvent",
      "type": "event"
    },
    {
      "anonymous": false,
      "inputs": [
        {
          "indexed": false,
          "name": "wallet",
          "type": "address"
        },
        {
          "indexed": false,
          "name": "currencyCt",
          "type": "address"
        },
        {
          "indexed": false,
          "name": "currencyId",
          "type": "uint256"
        }
      ],
      "name": "StopChallengeEvent",
      "type": "event"
    },
    {
      "anonymous": false,
      "inputs": [
        {
          "indexed": false,
          "name": "proxy",
          "type": "address"
        },
        {
          "indexed": false,
          "name": "wallet",
          "type": "address"
        },
        {
          "indexed": false,
          "name": "currencyCt",
          "type": "address"
        },
        {
          "indexed": false,
          "name": "currencyId",
          "type": "uint256"
        }
      ],
      "name": "StopChallengeByProxyEvent",
      "type": "event"
    },
    {
      "anonymous": false,
      "inputs": [
        {
          "indexed": false,
          "name": "oldWalletLocker",
          "type": "address"
        },
        {
          "indexed": false,
          "name": "newWalletLocker",
          "type": "address"
        }
      ],
      "name": "SetWalletLockerEvent",
      "type": "event"
    },
    {
      "anonymous": false,
      "inputs": [],
      "name": "FreezeWalletLockerEvent",
      "type": "event"
    },
    {
      "anonymous": false,
      "inputs": [
        {
          "indexed": false,
          "name": "oldBalanceTracker",
          "type": "address"
        },
        {
          "indexed": false,
          "name": "newBalanceTracker",
          "type": "address"
        }
      ],
      "name": "SetBalanceTrackerEvent",
      "type": "event"
    },
    {
      "anonymous": false,
      "inputs": [],
      "name": "FreezeBalanceTrackerEvent",
      "type": "event"
    },
    {
      "anonymous": false,
      "inputs": [
        {
          "indexed": false,
          "name": "oldConfiguration",
          "type": "address"
        },
        {
          "indexed": false,
          "name": "newConfiguration",
          "type": "address"
        }
      ],
      "name": "SetConfigurationEvent",
      "type": "event"
    },
    {
      "anonymous": false,
      "inputs": [
        {
          "indexed": false,
          "name": "oldDeployer",
          "type": "address"
        },
        {
          "indexed": false,
          "name": "newDeployer",
          "type": "address"
        }
      ],
      "name": "SetDeployerEvent",
      "type": "event"
    },
    {
      "anonymous": false,
      "inputs": [
        {
          "indexed": false,
          "name": "oldOperator",
          "type": "address"
        },
        {
          "indexed": false,
          "name": "newOperator",
          "type": "address"
        }
      ],
      "name": "SetOperatorEvent",
      "type": "event"
    },
    {
      "anonymous": false,
      "inputs": [
        {
          "indexed": false,
          "name": "wallet",
          "type": "address"
        }
      ],
      "name": "SelfDestructionDisabledEvent",
      "type": "event"
    },
    {
      "anonymous": false,
      "inputs": [
        {
          "indexed": false,
          "name": "wallet",
          "type": "address"
        }
      ],
      "name": "TriggerSelfDestructionEvent",
      "type": "event"
    },
    {
      "constant": false,
      "inputs": [
        {
          "name": "newNullSettlementDisputeByTrade",
          "type": "address"
        }
      ],
      "name": "setNullSettlementDisputeByTrade",
      "outputs": [],
      "payable": false,
      "stateMutability": "nonpayable",
      "type": "function"
    },
    {
      "constant": false,
      "inputs": [
        {
          "name": "newNullSettlementChallengeState",
          "type": "address"
        }
      ],
      "name": "setNullSettlementChallengeState",
      "outputs": [],
      "payable": false,
      "stateMutability": "nonpayable",
      "type": "function"
    },
    {
      "constant": false,
      "inputs": [
        {
          "name": "newNullSettlementState",
          "type": "address"
        }
      ],
      "name": "setNullSettlementState",
      "outputs": [],
      "payable": false,
      "stateMutability": "nonpayable",
      "type": "function"
    },
    {
      "constant": false,
      "inputs": [
        {
          "name": "amount",
          "type": "int256"
        },
        {
          "name": "currencyCt",
          "type": "address"
        },
        {
          "name": "currencyId",
          "type": "uint256"
        }
      ],
      "name": "startChallenge",
      "outputs": [],
      "payable": false,
      "stateMutability": "nonpayable",
      "type": "function"
    },
    {
      "constant": false,
      "inputs": [
        {
          "name": "wallet",
          "type": "address"
        },
        {
          "name": "amount",
          "type": "int256"
        },
        {
          "name": "currencyCt",
          "type": "address"
        },
        {
          "name": "currencyId",
          "type": "uint256"
        }
      ],
      "name": "startChallengeByProxy",
      "outputs": [],
      "payable": false,
      "stateMutability": "nonpayable",
      "type": "function"
    },
    {
      "constant": false,
      "inputs": [
        {
          "name": "currencyCt",
          "type": "address"
        },
        {
          "name": "currencyId",
          "type": "uint256"
        }
      ],
      "name": "stopChallenge",
      "outputs": [],
      "payable": false,
      "stateMutability": "nonpayable",
      "type": "function"
    },
    {
      "constant": false,
      "inputs": [
        {
          "name": "wallet",
          "type": "address"
        },
        {
          "name": "currencyCt",
          "type": "address"
        },
        {
          "name": "currencyId",
          "type": "uint256"
        }
      ],
      "name": "stopChallengeByProxy",
      "outputs": [],
      "payable": false,
      "stateMutability": "nonpayable",
      "type": "function"
    },
    {
      "constant": true,
      "inputs": [
        {
          "name": "wallet",
          "type": "address"
        },
        {
          "name": "currencyCt",
          "type": "address"
        },
        {
          "name": "currencyId",
          "type": "uint256"
        }
      ],
      "name": "hasProposalExpired",
      "outputs": [
        {
          "name": "",
          "type": "bool"
        }
      ],
      "payable": false,
      "stateMutability": "view",
      "type": "function"
    },
    {
      "constant": true,
      "inputs": [
        {
          "name": "wallet",
          "type": "address"
        },
        {
          "name": "currencyCt",
          "type": "address"
        },
        {
          "name": "currencyId",
          "type": "uint256"
        }
      ],
      "name": "proposalNonce",
      "outputs": [
        {
          "name": "",
          "type": "uint256"
        }
      ],
      "payable": false,
      "stateMutability": "view",
      "type": "function"
    },
    {
      "constant": true,
      "inputs": [
        {
          "name": "wallet",
          "type": "address"
        },
        {
          "name": "currencyCt",
          "type": "address"
        },
        {
          "name": "currencyId",
          "type": "uint256"
        }
      ],
      "name": "proposalBlockNumber",
      "outputs": [
        {
          "name": "",
          "type": "uint256"
        }
      ],
      "payable": false,
      "stateMutability": "view",
      "type": "function"
    },
    {
      "constant": true,
      "inputs": [
        {
          "name": "wallet",
          "type": "address"
        },
        {
          "name": "currencyCt",
          "type": "address"
        },
        {
          "name": "currencyId",
          "type": "uint256"
        }
      ],
      "name": "proposalExpirationTime",
      "outputs": [
        {
          "name": "",
          "type": "uint256"
        }
      ],
      "payable": false,
      "stateMutability": "view",
      "type": "function"
    },
    {
      "constant": true,
      "inputs": [
        {
          "name": "wallet",
          "type": "address"
        },
        {
          "name": "currencyCt",
          "type": "address"
        },
        {
          "name": "currencyId",
          "type": "uint256"
        }
      ],
      "name": "proposalStatus",
      "outputs": [
        {
          "name": "",
          "type": "uint8"
        }
      ],
      "payable": false,
      "stateMutability": "view",
      "type": "function"
    },
    {
      "constant": true,
      "inputs": [
        {
          "name": "wallet",
          "type": "address"
        },
        {
          "name": "currencyCt",
          "type": "address"
        },
        {
          "name": "currencyId",
          "type": "uint256"
        }
      ],
      "name": "proposalStageAmount",
      "outputs": [
        {
          "name": "",
          "type": "int256"
        }
      ],
      "payable": false,
      "stateMutability": "view",
      "type": "function"
    },
    {
      "constant": true,
      "inputs": [
        {
          "name": "wallet",
          "type": "address"
        },
        {
          "name": "currencyCt",
          "type": "address"
        },
        {
          "name": "currencyId",
          "type": "uint256"
        }
      ],
      "name": "proposalTargetBalanceAmount",
      "outputs": [
        {
          "name": "",
          "type": "int256"
        }
      ],
      "payable": false,
      "stateMutability": "view",
      "type": "function"
    },
    {
      "constant": true,
      "inputs": [
        {
          "name": "wallet",
          "type": "address"
        },
        {
          "name": "currencyCt",
          "type": "address"
        },
        {
          "name": "currencyId",
          "type": "uint256"
        }
      ],
      "name": "proposalWalletInitiated",
      "outputs": [
        {
          "name": "",
          "type": "bool"
        }
      ],
      "payable": false,
      "stateMutability": "view",
      "type": "function"
    },
    {
      "constant": true,
      "inputs": [
        {
          "name": "wallet",
          "type": "address"
        },
        {
          "name": "currencyCt",
          "type": "address"
        },
        {
          "name": "currencyId",
          "type": "uint256"
        }
      ],
      "name": "proposalDisqualificationChallenger",
      "outputs": [
        {
          "name": "",
          "type": "address"
        }
      ],
      "payable": false,
      "stateMutability": "view",
      "type": "function"
    },
    {
      "constant": true,
      "inputs": [
        {
          "name": "wallet",
          "type": "address"
        },
        {
          "name": "currencyCt",
          "type": "address"
        },
        {
          "name": "currencyId",
          "type": "uint256"
        }
      ],
      "name": "proposalDisqualificationBlockNumber",
      "outputs": [
        {
          "name": "",
          "type": "uint256"
        }
      ],
      "payable": false,
      "stateMutability": "view",
      "type": "function"
    },
    {
      "constant": true,
      "inputs": [
        {
          "name": "wallet",
          "type": "address"
        },
        {
          "name": "currencyCt",
          "type": "address"
        },
        {
          "name": "currencyId",
          "type": "uint256"
        }
      ],
      "name": "proposalDisqualificationCandidateKind",
      "outputs": [
        {
          "name": "",
          "type": "string"
        }
      ],
      "payable": false,
      "stateMutability": "view",
      "type": "function"
    },
    {
      "constant": true,
      "inputs": [
        {
          "name": "wallet",
          "type": "address"
        },
        {
          "name": "currencyCt",
          "type": "address"
        },
        {
          "name": "currencyId",
          "type": "uint256"
        }
      ],
      "name": "proposalDisqualificationCandidateHash",
      "outputs": [
        {
          "name": "",
          "type": "bytes32"
        }
      ],
      "payable": false,
      "stateMutability": "view",
      "type": "function"
    },
    {
      "constant": false,
      "inputs": [
        {
          "components": [
            {
              "name": "nonce",
              "type": "uint256"
            },
            {
              "name": "wallet",
              "type": "address"
            },
            {
              "components": [
                {
                  "name": "intention",
                  "type": "uint8"
                },
                {
                  "name": "amount",
                  "type": "int256"
                },
                {
                  "components": [
                    {
                      "components": [
                        {
                          "name": "ct",
                          "type": "address"
                        },
                        {
                          "name": "id",
                          "type": "uint256"
                        }
                      ],
                      "name": "intended",
                      "type": "tuple"
                    },
                    {
                      "components": [
                        {
                          "name": "ct",
                          "type": "address"
                        },
                        {
                          "name": "id",
                          "type": "uint256"
                        }
                      ],
                      "name": "conjugate",
                      "type": "tuple"
                    }
                  ],
                  "name": "currencies",
                  "type": "tuple"
                },
                {
                  "name": "rate",
                  "type": "int256"
                },
                {
                  "components": [
                    {
                      "name": "current",
                      "type": "int256"
                    },
                    {
                      "name": "previous",
                      "type": "int256"
                    }
                  ],
                  "name": "residuals",
                  "type": "tuple"
                }
              ],
              "name": "placement",
              "type": "tuple"
            },
            {
              "components": [
                {
                  "components": [
                    {
                      "name": "hash",
                      "type": "bytes32"
                    },
                    {
                      "components": [
                        {
                          "name": "r",
                          "type": "bytes32"
                        },
                        {
                          "name": "s",
                          "type": "bytes32"
                        },
                        {
                          "name": "v",
                          "type": "uint8"
                        }
                      ],
                      "name": "signature",
                      "type": "tuple"
                    }
                  ],
                  "name": "wallet",
                  "type": "tuple"
                },
                {
                  "components": [
                    {
                      "name": "hash",
                      "type": "bytes32"
                    },
                    {
                      "components": [
                        {
                          "name": "r",
                          "type": "bytes32"
                        },
                        {
                          "name": "s",
                          "type": "bytes32"
                        },
                        {
                          "name": "v",
                          "type": "uint8"
                        }
                      ],
                      "name": "signature",
                      "type": "tuple"
                    }
                  ],
                  "name": "operator",
                  "type": "tuple"
                }
              ],
              "name": "seals",
              "type": "tuple"
            },
            {
              "name": "blockNumber",
              "type": "uint256"
            },
            {
              "name": "operatorId",
              "type": "uint256"
            }
          ],
          "name": "order",
          "type": "tuple"
        }
      ],
      "name": "challengeByOrder",
      "outputs": [],
      "payable": false,
      "stateMutability": "nonpayable",
      "type": "function"
    },
    {
      "constant": false,
      "inputs": [
        {
          "name": "wallet",
          "type": "address"
        },
        {
          "components": [
            {
              "name": "nonce",
              "type": "uint256"
            },
            {
              "name": "amount",
              "type": "int256"
            },
            {
              "components": [
                {
                  "components": [
                    {
                      "name": "ct",
                      "type": "address"
                    },
                    {
                      "name": "id",
                      "type": "uint256"
                    }
                  ],
                  "name": "intended",
                  "type": "tuple"
                },
                {
                  "components": [
                    {
                      "name": "ct",
                      "type": "address"
                    },
                    {
                      "name": "id",
                      "type": "uint256"
                    }
                  ],
                  "name": "conjugate",
                  "type": "tuple"
                }
              ],
              "name": "currencies",
              "type": "tuple"
            },
            {
              "name": "rate",
              "type": "int256"
            },
            {
              "components": [
                {
                  "name": "nonce",
                  "type": "uint256"
                },
                {
                  "name": "wallet",
                  "type": "address"
                },
                {
                  "name": "rollingVolume",
                  "type": "uint256"
                },
                {
                  "name": "liquidityRole",
                  "type": "uint8"
                },
                {
                  "components": [
                    {
                      "name": "amount",
                      "type": "int256"
                    },
                    {
                      "components": [
                        {
                          "name": "wallet",
                          "type": "bytes32"
                        },
                        {
                          "name": "operator",
                          "type": "bytes32"
                        }
                      ],
                      "name": "hashes",
                      "type": "tuple"
                    },
                    {
                      "components": [
                        {
                          "name": "current",
                          "type": "int256"
                        },
                        {
                          "name": "previous",
                          "type": "int256"
                        }
                      ],
                      "name": "residuals",
                      "type": "tuple"
                    }
                  ],
                  "name": "order",
                  "type": "tuple"
                },
                {
                  "components": [
                    {
                      "components": [
                        {
                          "name": "current",
                          "type": "int256"
                        },
                        {
                          "name": "previous",
                          "type": "int256"
                        }
                      ],
                      "name": "intended",
                      "type": "tuple"
                    },
                    {
                      "components": [
                        {
                          "name": "current",
                          "type": "int256"
                        },
                        {
                          "name": "previous",
                          "type": "int256"
                        }
                      ],
                      "name": "conjugate",
                      "type": "tuple"
                    }
                  ],
                  "name": "balances",
                  "type": "tuple"
                },
                {
                  "components": [
                    {
                      "components": [
                        {
                          "name": "amount",
                          "type": "int256"
                        },
                        {
                          "components": [
                            {
                              "name": "ct",
                              "type": "address"
                            },
                            {
                              "name": "id",
                              "type": "uint256"
                            }
                          ],
                          "name": "currency",
                          "type": "tuple"
                        }
                      ],
                      "name": "single",
                      "type": "tuple"
                    },
                    {
                      "components": [
                        {
                          "name": "originId",
                          "type": "uint256"
                        },
                        {
                          "components": [
                            {
                              "name": "amount",
                              "type": "int256"
                            },
                            {
                              "components": [
                                {
                                  "name": "ct",
                                  "type": "address"
                                },
                                {
                                  "name": "id",
                                  "type": "uint256"
                                }
                              ],
                              "name": "currency",
                              "type": "tuple"
                            }
                          ],
                          "name": "figure",
                          "type": "tuple"
                        }
                      ],
                      "name": "total",
                      "type": "tuple[]"
                    }
                  ],
                  "name": "fees",
                  "type": "tuple"
                }
              ],
              "name": "buyer",
              "type": "tuple"
            },
            {
              "components": [
                {
                  "name": "nonce",
                  "type": "uint256"
                },
                {
                  "name": "wallet",
                  "type": "address"
                },
                {
                  "name": "rollingVolume",
                  "type": "uint256"
                },
                {
                  "name": "liquidityRole",
                  "type": "uint8"
                },
                {
                  "components": [
                    {
                      "name": "amount",
                      "type": "int256"
                    },
                    {
                      "components": [
                        {
                          "name": "wallet",
                          "type": "bytes32"
                        },
                        {
                          "name": "operator",
                          "type": "bytes32"
                        }
                      ],
                      "name": "hashes",
                      "type": "tuple"
                    },
                    {
                      "components": [
                        {
                          "name": "current",
                          "type": "int256"
                        },
                        {
                          "name": "previous",
                          "type": "int256"
                        }
                      ],
                      "name": "residuals",
                      "type": "tuple"
                    }
                  ],
                  "name": "order",
                  "type": "tuple"
                },
                {
                  "components": [
                    {
                      "components": [
                        {
                          "name": "current",
                          "type": "int256"
                        },
                        {
                          "name": "previous",
                          "type": "int256"
                        }
                      ],
                      "name": "intended",
                      "type": "tuple"
                    },
                    {
                      "components": [
                        {
                          "name": "current",
                          "type": "int256"
                        },
                        {
                          "name": "previous",
                          "type": "int256"
                        }
                      ],
                      "name": "conjugate",
                      "type": "tuple"
                    }
                  ],
                  "name": "balances",
                  "type": "tuple"
                },
                {
                  "components": [
                    {
                      "components": [
                        {
                          "name": "amount",
                          "type": "int256"
                        },
                        {
                          "components": [
                            {
                              "name": "ct",
                              "type": "address"
                            },
                            {
                              "name": "id",
                              "type": "uint256"
                            }
                          ],
                          "name": "currency",
                          "type": "tuple"
                        }
                      ],
                      "name": "single",
                      "type": "tuple"
                    },
                    {
                      "components": [
                        {
                          "name": "originId",
                          "type": "uint256"
                        },
                        {
                          "components": [
                            {
                              "name": "amount",
                              "type": "int256"
                            },
                            {
                              "components": [
                                {
                                  "name": "ct",
                                  "type": "address"
                                },
                                {
                                  "name": "id",
                                  "type": "uint256"
                                }
                              ],
                              "name": "currency",
                              "type": "tuple"
                            }
                          ],
                          "name": "figure",
                          "type": "tuple"
                        }
                      ],
                      "name": "total",
                      "type": "tuple[]"
                    }
                  ],
                  "name": "fees",
                  "type": "tuple"
                }
              ],
              "name": "seller",
              "type": "tuple"
            },
            {
              "components": [
                {
                  "components": [
                    {
                      "name": "single",
                      "type": "int256"
                    },
                    {
                      "name": "total",
                      "type": "int256"
                    }
                  ],
                  "name": "intended",
                  "type": "tuple"
                },
                {
                  "components": [
                    {
                      "name": "single",
                      "type": "int256"
                    },
                    {
                      "name": "total",
                      "type": "int256"
                    }
                  ],
                  "name": "conjugate",
                  "type": "tuple"
                }
              ],
              "name": "transfers",
              "type": "tuple"
            },
            {
              "components": [
                {
                  "name": "hash",
                  "type": "bytes32"
                },
                {
                  "components": [
                    {
                      "name": "r",
                      "type": "bytes32"
                    },
                    {
                      "name": "s",
                      "type": "bytes32"
                    },
                    {
                      "name": "v",
                      "type": "uint8"
                    }
                  ],
                  "name": "signature",
                  "type": "tuple"
                }
              ],
              "name": "seal",
              "type": "tuple"
            },
            {
              "name": "blockNumber",
              "type": "uint256"
            },
            {
              "name": "operatorId",
              "type": "uint256"
            }
          ],
          "name": "trade",
          "type": "tuple"
        }
      ],
      "name": "challengeByTrade",
      "outputs": [],
      "payable": false,
      "stateMutability": "nonpayable",
      "type": "function"
    }
  ],
  "bytecode": "0x60806040523480156200001157600080fd5b50604051602080620030278339810180604052620000339190810190620000b6565b8080600160a060020a03811615156200004b57600080fd5b600160a060020a0381163014156200006257600080fd5b506000805461010060a860020a031916610100600160a060020a039390931692830217905560018054600160a060020a031916909117905550620000eb565b6000620000af8251620000df565b9392505050565b600060208284031215620000c957600080fd5b6000620000d78484620000a1565b949350505050565b600160a060020a031690565b612f2c80620000fb6000396000f3006080604052600436106101ea5763ffffffff60e060020a6000350416630712abb081146101ef5780631110f49a1461022557806316987929146102475780631913909214610274578063240625d8146102965780632738a112146102b85780632f013a00146102cd57806339fc1571146102e25780633bebdcb5146102f75780633e59b7061461031757806342cb45871461032c5780634476d23b1461034c57806349c56d491461036e578063570ca7351461038e578063598b75ad146103a35780635dc60def146103c3578063627f09c3146103d85780636c70bee9146103f85780636ccb43c81461040d57806370327ea11461042d57806379bf6b36146104425780637da5b11c1461045757806387a9417c14610477578063892860b21461049757806396214735146104b7578063972fcee0146104d7578063adfb6778146104f7578063b3ab15fb14610517578063b52d470a14610537578063c19df1e41461054c578063c1c681651461056c578063ca7f47ed1461058c578063cdbf9419146105b9578063d5b68c62146105d9578063d5f39488146105f9578063da5a3b701461060e578063e8ae41e31461062e578063f7b8761714610643578063fa7424f214610663578063fb1a825e14610678578063fca5192b14610698578063fcd30b02146106b8575b600080fd5b3480156101fb57600080fd5b5061020f61020a366004612490565b6106d8565b60405161021c9190612d9f565b60405180910390f35b34801561023157600080fd5b506102456102403660046126bc565b610780565b005b34801561025357600080fd5b50610267610262366004612490565b610880565b60405161021c9190612d68565b34801561028057600080fd5b5061028961091e565b60405161021c9190612d76565b3480156102a257600080fd5b506102ab61092d565b60405161021c9190612d5a565b3480156102c457600080fd5b5061024561093d565b3480156102d957600080fd5b506102ab6109a3565b3480156102ee57600080fd5b506102896109ac565b34801561030357600080fd5b506102ab610312366004612490565b6109bb565b34801561032357600080fd5b506102ab610a59565b34801561033857600080fd5b50610267610347366004612490565b610a69565b34801561035857600080fd5b50610361610ab5565b60405161021c9190612b92565b34801561037a57600080fd5b5061024561038936600461253e565b610ac9565b34801561039a57600080fd5b50610361610bcc565b3480156103af57600080fd5b506102456103be3660046125fb565b610bdb565b3480156103cf57600080fd5b50610245610c99565b3480156103e457600080fd5b506102456103f33660046125fb565b610ced565b34801561040457600080fd5b50610289610d85565b34801561041957600080fd5b506102456104283660046125fb565b610d94565b34801561043957600080fd5b50610245610e25565b34801561044e57600080fd5b50610289610e88565b34801561046357600080fd5b506102ab610472366004612490565b610e97565b34801561048357600080fd5b506102456104923660046125fb565b610ee3565b3480156104a357600080fd5b506102456104b23660046125fb565b610f67565b3480156104c357600080fd5b506102456104d236600461244c565b611016565b3480156104e357600080fd5b506102456104f2366004612490565b6110d4565b34801561050357600080fd5b50610267610512366004612490565b611145565b34801561052357600080fd5b5061024561053236600461244c565b611191565b34801561054357600080fd5b5061024561123b565b34801561055857600080fd5b5061024561056736600461258f565b61128f565b34801561057857600080fd5b50610245610587366004612637565b6112f7565b34801561059857600080fd5b506105ac6105a7366004612490565b6113e4565b60405161021c9190612dad565b3480156105c557600080fd5b506102676105d4366004612490565b611486565b3480156105e557600080fd5b506102676105f4366004612490565b6114d2565b34801561060557600080fd5b5061036161151e565b34801561061a57600080fd5b506102456106293660046125fb565b611532565b34801561063a57600080fd5b506102896115b6565b34801561064f57600080fd5b5061024561065e3660046124dd565b6115c5565b34801561066f57600080fd5b50610289611647565b34801561068457600080fd5b50610267610693366004612490565b611656565b3480156106a457600080fd5b506102676106b3366004612490565b6116a2565b3480156106c457600080fd5b506103616106d3366004612490565b6116ee565b600654604080518082018252600160a060020a03858116825260208201859052915160e060020a63b6e2fc33028152600093929092169163b6e2fc339161072491889190600401612c7f565b602060405180830381600087803b15801561073e57600080fd5b505af1158015610752573d6000803e3d6000fd5b505050506040513d601f19601f820116820180604052506107769190810190612619565b90505b9392505050565b600260009054906101000a9004600160a060020a0316600160a060020a031663f71e860f6040518163ffffffff1660e060020a028152600401602060405180830381600087803b1580156107d357600080fd5b505af11580156107e7573d6000803e3d6000fd5b505050506040513d601f19601f8201168201806040525061080b91908101906125bf565b151561081657600080fd5b60055460405160e060020a638eed8359028152600160a060020a0390911690638eed83599061084b9084903390600401612dbe565b600060405180830381600087803b15801561086557600080fd5b505af1158015610879573d6000803e3d6000fd5b5050505050565b600654604080518082018252600160a060020a03858116825260208201859052915160e060020a63c46fcd75028152600093929092169163c46fcd75916108cc91889190600401612c7f565b602060405180830381600087803b1580156108e657600080fd5b505af11580156108fa573d6000803e3d6000fd5b505050506040513d601f19601f8201168201806040525061077691908101906125dd565b600354600160a060020a031681565b60045460a060020a900460ff1681565b33610946610ab5565b600160a060020a03161461095957600080fd5b60005460ff161561096957600080fd5b7f787a5d936e74f4b564b9153575886059829c78cd9927b1be5e0d976b317ef736336040516109989190612b92565b60405180910390a133ff5b60005460ff1681565b600554600160a060020a031681565b600654604080518082018252600160a060020a03858116825260208201859052915160e060020a635482c7350281526000939290921691635482c73591610a0791889190600401612c7f565b602060405180830381600087803b158015610a2157600080fd5b505af1158015610a35573d6000803e3d6000fd5b505050506040513d601f19601f8201168201806040525061077691908101906125bf565b60035460a060020a900460ff1681565b600654604080518082018252600160a060020a03858116825260208201859052915160e160020a633007230f028152600093929092169163600e461e916108cc91889190600401612c7f565b6000546101009004600160a060020a031690565b600260009054906101000a9004600160a060020a0316600160a060020a031663f71e860f6040518163ffffffff1660e060020a028152600401602060405180830381600087803b158015610b1c57600080fd5b505af1158015610b30573d6000803e3d6000fd5b505050506040513d601f19601f82011682018060405250610b5491908101906125bf565b1515610b5f57600080fd5b60055460405160e060020a6392272607028152600160a060020a0390911690639227260790610b9690859085903390600401612cc2565b600060405180830381600087803b158015610bb057600080fd5b505af1158015610bc4573d6000803e3d6000fd5b505050505050565b600154600160a060020a031681565b6000610be561178c565b1515610bf057600080fd5b81600160a060020a0381161515610c0657600080fd5b6003548390600160a060020a0390811690821681146108795760035460a060020a900460ff1615610c3657600080fd5b60038054600160a060020a03878116600160a060020a0319831617909255604051911694507fb2a91d3a71b0c5bc7c083153b3474378e489506ba98bd4ddb1b9056fdc594bb590610c8a9086908890612d84565b60405180910390a15050505050565b610ca161178c565b1515610cac57600080fd5b6004805460a060020a60ff02191660a060020a1790556040517f56ec8900b9c4bf84f4b715a53068ca06961dd49084c07b481931e2c2045346e690600090a1565b6000610cf761178c565b1515610d0257600080fd5b81600160a060020a0381161515610d1857600080fd5b6002548390600160a060020a0390811690821681146108795760028054600160a060020a03878116600160a060020a0319831617909255604051911694507f634f61bf00e14adedce330c80c2823e16e184f189ebe853e1ddecc4a268477ff90610c8a9086908890612d84565b600254600160a060020a031681565b6000610d9e61178c565b1515610da957600080fd5b81600160a060020a0381161515610dbf57600080fd5b60068054600160a060020a03858116600160a060020a03198316179283905560405191811694507ff21c127205310467822e10c64b2d9ffae588e019194d6af71f2bdddc0b7ef52692610e189286929190911690612d84565b60405180910390a1505050565b33610e2e610ab5565b600160a060020a031614610e4157600080fd5b6000805460ff191660011790556040517fd5a2a04a775c741c2ca0dc46ea7ce4835190e1aaf1ca018def0e82568ec3361690610e7e903390612b92565b60405180910390a1565b600754600160a060020a031681565b600654604080518082018252600160a060020a03858116825260208201859052915160e260020a6333ca4eab028152600093929092169163cf293aac91610a0791889190600401612c7f565b6000610eed61178c565b1515610ef857600080fd5b81600160a060020a0381161515610f0e57600080fd5b60058054600160a060020a03858116600160a060020a03198316179283905560405191811694507f2445b990fd10a27ce0493f9946388c02f768b079f2aa51240584b616128e928292610e189286929190911690612d84565b6000610f7161178c565b1515610f7c57600080fd5b81600160a060020a0381161515610f9257600080fd5b6004548390600160a060020a0390811690821681146108795760045460a060020a900460ff1615610fc257600080fd5b60048054600160a060020a03878116600160a060020a0319831617909255604051911694507fa44d361e26327b72a7ccbeae801b3c5cd7677ea4fa74168b289e273c46bfecfc90610c8a9086908890612d84565b600061102061178c565b151561102b57600080fd5b81600160a060020a038116151561104157600080fd5b600160a060020a03811630141561105757600080fd5b600054600160a060020a0384811661010090920416146110cf5760008054600160a060020a0385811661010090810261010060a860020a0319841617909355604051929091041692507f977e5fa58e458501775e0008d275006294c5249e3c08d1d0e3a9f3acad14f6e490610e189084908690612ba0565b505050565b6110dc6117a2565b15156110e757600080fd5b61111083604080519081016040528085600160a060020a031681526020018481525060006117b3565b7f5d5800b5b4d9de839f4e933323589d790e5cc56733d895c8af8a69c8e1d830ca33848484604051610e189493929190612bbb565b600654604080518082018252600160a060020a03858116825260208201859052915160e060020a631b90e3c10281526000939290921691631b90e3c1916108cc91889190600401612c7f565b600061119b6117a2565b15156111a657600080fd5b81600160a060020a03811615156111bc57600080fd5b600160a060020a0381163014156111d257600080fd5b600154600160a060020a038481169116146110cf5760018054600160a060020a03858116600160a060020a0319831617909255604051911692507f9f611b789425d0d5b90b920f1b2852907dd865c80074a30b1629aaa041d1812c90610e189084908690612ba0565b61124361178c565b151561124e57600080fd5b6003805460a060020a60ff02191660a060020a1790556040517f9c567b65fe8caab5ec7bc979a498a1322c1d4baf01a30727cbca137187560ea290600090a1565b6112b833604080519081016040528085600160a060020a031681526020018481525060016117b3565b7fc495387f762dad3340f9d4869758066c81d4592e6d13edc66792fe718d887d8f3383836040516112eb93929190612c3c565b60405180910390a15050565b6004805460405160e260020a631293efbb028152600160a060020a0390911691634a4fbeec9161132991339101612b92565b602060405180830381600087803b15801561134357600080fd5b505af1158015611357573d6000803e3d6000fd5b505050506040513d601f19601f8201168201806040525061137b91908101906125bf565b1561138557600080fd5b6113af3384604080519081016040528086600160a060020a03168152602001858152506001611821565b7f3ea6a5f0533a257a4d3b7d514288450c5601dd58e5017bc15c7e32d6cf1ae03933848484604051610e189493929190612c64565b600654604080518082018252600160a060020a03858116825260208201859052915160e160020a63160ed0cd0281526060939290921691632c1da19a9161143091889190600401612c7f565b600060405180830381600087803b15801561144a57600080fd5b505af115801561145e573d6000803e3d6000fd5b505050506040513d6000823e601f3d908101601f191682016040526107769190810190612688565b600654604080518082018252600160a060020a03858116825260208201859052915160e060020a632ee2ed250281526000939290921691632ee2ed25916108cc91889190600401612c7f565b600654604080518082018252600160a060020a03858116825260208201859052915160e160020a6345a76a610281526000939290921691638b4ed4c2916108cc91889190600401612c7f565b6000546101009004600160a060020a031681565b600061153c61178c565b151561154757600080fd5b81600160a060020a038116151561155d57600080fd5b60078054600160a060020a03858116600160a060020a03198316179283905560405191811694507f7983934b0c7a4c64fbf3454ed2053b3bc71c8fd637308a7d2ee8eb51cbc68e3592610e189286929190911690612d84565b600454600160a060020a031681565b6115cd6117a2565b15156115d857600080fd5b6116028484604080519081016040528086600160a060020a03168152602001858152506000611821565b7f5c2e5356cead72ecdf07d7e8b0d17de67df6aac7550613234585f8e5cf7c40763385858585604051611639959493929190612bf0565b60405180910390a150505050565b600654600160a060020a031681565b600654604080518082018252600160a060020a03858116825260208201859052915160e060020a6356ec907502815260009392909216916356ec9075916108cc91889190600401612c7f565b600654604080518082018252600160a060020a03858116825260208201859052915160e060020a6309df8b0b02815260009392909216916309df8b0b916108cc91889190600401612c7f565b600654604080518082018252600160a060020a03858116825260208201859052915160e060020a6356587229028152600093929092169163565872299161173a91889190600401612c7f565b602060405180830381600087803b15801561175457600080fd5b505af1158015611768573d6000803e3d6000fd5b505050506040513d601f19601f820116820180604052506107769190810190612472565b6000546101009004600160a060020a0316331490565b600154600160a060020a0316331490565b60065460405160e460020a63052a0dd1028152600160a060020a03909116906352a0dd10906117ea90869086908690600401612c9a565b600060405180830381600087803b15801561180457600080fd5b505af1158015611818573d6000803e3d6000fd5b50505050505050565b6000806000600260009054906101000a9004600160a060020a0316600160a060020a031663b6bf41766040518163ffffffff1660e060020a028152600401602060405180830381600087803b15801561187957600080fd5b505af115801561188d573d6000803e3d6000fd5b505050506040513d601f19601f820116820180604052506118b191908101906125dd565b4310156118bd57600080fd5b6003546118da90600160a060020a0316888763ffffffff6119ff16565b60075460405160e060020a633858654b028152929550909350600160a060020a031690633858654b90611913908a908990600401612c7f565b602060405180830381600087803b15801561192d57600080fd5b505af1158015611941573d6000803e3d6000fd5b505050506040513d601f19601f8201168201806040525061196591908101906125dd565b600654909150600160a060020a0316633e169c5a8861198b84600163ffffffff611cbe16565b8961199c888263ffffffff611ccd16565b8a888b6040518863ffffffff1660e060020a0281526004016119c49796959493929190612cf1565b600060405180830381600087803b1580156119de57600080fd5b505af11580156119f2573d6000803e3d6000fd5b5050505050505050505050565b60008060008060008088600160a060020a0316636f4a1815898b600160a060020a031663ded113106040518163ffffffff1660e060020a028152600401602060405180830381600087803b158015611a5657600080fd5b505af1158015611a6a573d6000803e3d6000fd5b505050506040513d601f19601f82011682018060405250611a8e91908101906125dd565b8a5160208c015160405160e060020a63ffffffff8716028152611ab79493929190600401612c64565b6040805180830381600087803b158015611ad057600080fd5b505af1158015611ae4573d6000803e3d6000fd5b505050506040513d601f19601f82011682018060405250611b089190810190612658565b9350935088600160a060020a0316636f4a1815898b600160a060020a0316634652ec746040518163ffffffff1660e060020a028152600401602060405180830381600087803b158015611b5a57600080fd5b505af1158015611b6e573d6000803e3d6000fd5b505050506040513d601f19601f82011682018060405250611b9291908101906125dd565b8a5160208c015160405160e060020a63ffffffff8716028152611bbb9493929190600401612c64565b6040805180830381600087803b158015611bd457600080fd5b505af1158015611be8573d6000803e3d6000fd5b505050506040513d601f19601f82011682018060405250611c0c9190810190612658565b9092509050611c21848363ffffffff611d0e16565b60405160e060020a63a682d5ad02815290965073__SafeMathUintLib_______________________9063a682d5ad90611c609086908590600401612ddb565b60206040518083038186803b158015611c7857600080fd5b505af4158015611c8c573d6000803e3d6000fd5b505050506040513d601f19601f82011682018060405250611cb091908101906125dd565b945050505050935093915050565b60008282018381101561077957fe5b6000808212158015611ce157508282840313155b80611cf85750600082128015611cf8575082828403135b1515611d0357600080fd5b508082035b92915050565b6000828201818312801590611d235750838112155b80611d385750600083128015611d3857508381125b151561077957600080fd5b60006107798235612e6d565b60006107798251612e6d565b6000601f82018313611d6c57600080fd5b8135611d7f611d7a82612e1c565b612df6565b91508181835260208401935060208101905083856080840282011115611da457600080fd5b60005b83811015611dd25781611dba88826120b4565b84525060209092019160809190910190600101611da7565b5050505092915050565b60006107798251612e79565b60006107798235612e7e565b60006107798251612e7e565b60006107798235612e97565b60006107798235612ea2565b60006107798251612ea2565b6000601f82018313611e3557600080fd5b8151611e43611d7a82612e3c565b91508082526020830160208301858383011115611e5f57600080fd5b611e6a838284612ebc565b50505092915050565b600060408284031215611e8557600080fd5b611e8f6040612df6565b90506000611e9d8484611d43565b8252506020611eae84848301611de8565b60208301525092915050565b600060408284031215611ecc57600080fd5b611ed66040612df6565b90506000611e9d8484611de8565b600060608284031215611ef657600080fd5b611f006040612df6565b90506000611f0e8484611de8565b8252506020611eae84848301611e73565b600060808284031215611f3157600080fd5b611f3b6040612df6565b90506000611f498484611e73565b8252506040611eae84848301611e73565b600060808284031215611f6c57600080fd5b611f766040612df6565b90506000611f848484611eba565b8252506040611eae84848301611eba565b60006101208284031215611fa857600080fd5b611fb260a0612df6565b90506000611fc08484611e0c565b8252506020611fd184848301611de8565b6020830152506040611fe584828501611f1f565b60408301525060c0611ff984828501611de8565b60608301525060e061200d84828501611eba565b60808301525092915050565b60006102a0828403121561202c57600080fd5b61203660c0612df6565b905060006120448484611de8565b825250602061205584848301611d43565b602083015250604061206984828501611f95565b60408301525061016061207e84828501612404565b60608301525061026061209384828501611de8565b6080830152506102806120a884828501611de8565b60a08301525092915050565b6000608082840312156120c657600080fd5b6120d06040612df6565b905060006120de8484611de8565b8252506020611eae84848301611ee4565b60006080828403121561210157600080fd5b61210b6040612df6565b905060006121198484611de8565b8252506020611eae8484830160006060828403121561213757600080fd5b6121416060612df6565b9050600061214f8484611de8565b825250602061216084848301611de8565b602083015250604061217484828501612440565b60408301525092915050565b60006080828403121561219257600080fd5b61219c6040612df6565b905060006121aa8484611ee4565b82525060608201356001604060020a038111156121c657600080fd5b611eae84828501611d5b565b600060a082840312156121e457600080fd5b6121ee6060612df6565b905060006121fc8484611de8565b825250602061220d84848301611eba565b602083015250606061217484828501611eba565b60006101c0828403121561223457600080fd5b61223e60e0612df6565b9050600061224c8484611de8565b825250602061225d84848301611d43565b602083015250604061227184828501611de8565b604083015250606061228584828501611e0c565b6060830152506080612299848285016121d2565b6080830152506101206122ae84828501611f5a565b60a0830152506101a08201356001604060020a038111156122ce57600080fd5b6122da84828501612180565b60c08301525092915050565b600061026082840312156122f957600080fd5b612304610140612df6565b905060006123128484611de8565b825250602061232384848301611de8565b602083015250604061233784828501611f1f565b60408301525060c061234b84828501611de8565b60608301525060e08201356001604060020a0381111561236a57600080fd5b61237684828501612221565b6080830152506101008201356001604060020a0381111561239657600080fd5b6123a284828501612221565b60a0830152506101206123b784828501611f5a565b60c0830152506101a06123cc848285016120ef565b60e0830152506102206123e184828501611de8565b610100830152506102406123f784828501611de8565b6101208301525092915050565b6000610100828403121561241757600080fd5b6124216040612df6565b9050600061242f84846120ef565b8252506080611eae848483016120ef565b60006107798235612e91565b60006020828403121561245e57600080fd5b600061246a8484611d43565b949350505050565b60006020828403121561248457600080fd5b600061246a8484611d4f565b6000806000606084860312156124a557600080fd5b60006124b18686611d43565b93505060206124c286828701611d43565b92505060406124d386828701611de8565b9150509250925092565b600080600080608085870312156124f357600080fd5b60006124ff8787611d43565b945050602061251087828801611de8565b935050604061252187828801611d43565b925050606061253287828801611de8565b91505092959194509250565b6000806040838503121561255157600080fd5b600061255d8585611d43565b92505060208301356001604060020a0381111561257957600080fd5b612585858286016122e6565b9150509250929050565b600080604083850312156125a257600080fd5b60006125ae8585611d43565b925050602061258585828601611de8565b6000602082840312156125d157600080fd5b600061246a8484611ddc565b6000602082840312156125ef57600080fd5b600061246a8484611df4565b60006020828403121561260d57600080fd5b600061246a8484611e00565b60006020828403121561262b57600080fd5b600061246a8484611e18565b60008060006060848603121561264c57600080fd5b60006124b18686611de8565b6000806040838503121561266b57600080fd5b60006126778585611df4565b925050602061258585828601611df4565b60006020828403121561269a57600080fd5b81516001604060020a038111156126b057600080fd5b61246a84828501611e24565b60006102a082840312156126cf57600080fd5b600061246a8484612019565b6126e481612e6d565b82525050565b60006126f582612e69565b80845260208401935061270783612e63565b60005b828110156127375761271d868351612913565b61272682612e63565b60809690960195915060010161270a565b5093949350505050565b6126e481612e79565b6126e481612e7e565b6126e481612e97565b6126e481612eb1565b600061277082612e69565b808452612784816020860160208601612ebc565b61278d81612ee8565b9093016020019392505050565b805160408301906127ab84826126db565b5060208201516127be602085018261274a565b50505050565b805160408301906127ab848261274a565b805160608301906127e6848261274a565b5060208201516127be602085018261279a565b8051608083019061280a848261279a565b5060208201516127be604085018261279a565b8051608083019061282e84826127c4565b5060208201516127be60408501826127c4565b8051610120830190612853848261275c565b506020820151612866602085018261274a565b50604082015161287960408501826127f9565b50606082015161288c60c085018261274a565b5060808201516127be60e08501826127c4565b80516102a08301906128b1848261274a565b5060208201516128c460208501826126db565b5060408201516128d76040850182612841565b5060608201516128eb610160850182612b64565b5060808201516128ff61026085018261274a565b5060a08201516127be61028085018261274a565b80516080830190612924848261274a565b5060208201516127be60208501826127d5565b80516080830190612948848261274a565b5060208201516127be602085018280516060830190612967848261274a565b50602082015161297a602085018261274a565b5060408201516127be6040850182612b89565b805160009060808401906129a185826127d5565b50602083015184820360608601526129b982826126ea565b95945050505050565b805160a08301906129d3848261274a565b5060208201516129e660208501826127c4565b5060408201516127be60608501826127c4565b80516000906101c0840190612a0e858261274a565b506020830151612a2160208601826126db565b506040830151612a34604086018261274a565b506060830151612a47606086018261275c565b506080830151612a5a60808601826129c2565b5060a0830151612a6e61012086018261281d565b5060c08301518482036101a08601526129b9828261298d565b8051600090610260840190612a9c858261274a565b506020830151612aaf602086018261274a565b506040830151612ac260408601826127f9565b506060830151612ad560c086018261274a565b50608083015184820360e0860152612aed82826129f9565b91505060a0830151848203610100860152612b0882826129f9565b91505060c0830151612b1e61012086018261281d565b5060e0830151612b326101a0860182612937565b50610100830151612b4761022086018261274a565b50610120830151612b5c61024086018261274a565b509392505050565b8051610100830190612b768482612937565b5060208201516127be6080850182612937565b6126e481612e91565b60208101611d0882846126db565b60408101612bae82856126db565b61077960208301846126db565b60808101612bc982876126db565b612bd660208301866126db565b612be360408301856126db565b6129b9606083018461274a565b60a08101612bfe82886126db565b612c0b60208301876126db565b612c18604083018661274a565b612c2560608301856126db565b612c32608083018461274a565b9695505050505050565b60608101612c4a82866126db565b612c5760208301856126db565b61246a604083018461274a565b60808101612c7282876126db565b612bd6602083018661274a565b60608101612c8d82856126db565b610779602083018461279a565b60808101612ca882866126db565b612cb5602083018561279a565b61246a6060830184612741565b60608101612cd082866126db565b8181036020830152612ce28185612a87565b905061246a60408301846126db565b6101008101612d00828a6126db565b612d0d602083018961274a565b612d1a604083018861274a565b612d27606083018761274a565b612d34608083018661279a565b612d4160c083018561274a565b612d4e60e0830184612741565b98975050505050505050565b60208101611d088284612741565b60208101611d08828461274a565b60208101611d088284612753565b60408101612d928285612753565b6107796020830184612753565b60208101611d08828461275c565b602080825281016107798184612765565b6102c08101612dcd828561289f565b6107796102a08301846126db565b60408101612de9828561274a565b610779602083018461274a565b6040518181016001604060020a0381118282101715612e1457600080fd5b604052919050565b60006001604060020a03821115612e3257600080fd5b5060209081020190565b60006001604060020a03821115612e5257600080fd5b506020601f91909101601f19160190565b60200190565b5190565b600160a060020a031690565b151590565b90565b600060028210612e8d57fe5b5090565b60ff1690565b6000611d0882612e6d565b600060028210612e8d57600080fd5b6000611d0882612e81565b60005b83811015612ed7578181015183820152602001612ebf565b838111156127be5750506000910152565b601f01601f1916905600a265627a7a7230582087150c194fe2b97c208b82b96db939d480bb3ea8441f6bdab2179ec1f3bc02ec6c6578706572696d656e74616cf50037",
  "source": "/*\n * Hubii Nahmii\n *\n * Compliant with the Hubii Nahmii specification v0.12.\n *\n * Copyright (C) 2017-2018 Hubii AS\n */\n\npragma solidity ^0.4.25;\npragma experimental ABIEncoderV2;\n\nimport {Ownable} from \"./Ownable.sol\";\nimport {ConfigurableOperational} from \"./ConfigurableOperational.sol\";\nimport {BalanceTracker} from \"./BalanceTracker.sol\";\nimport {BalanceTrackable} from \"./BalanceTrackable.sol\";\nimport {WalletLockable} from \"./WalletLockable.sol\";\nimport {SafeMathIntLib} from \"./SafeMathIntLib.sol\";\nimport {SafeMathUintLib} from \"./SafeMathUintLib.sol\";\nimport {NullSettlementDisputeByTrade} from \"./NullSettlementDisputeByTrade.sol\";\nimport {NullSettlementChallengeState} from \"./NullSettlementChallengeState.sol\";\nimport {NullSettlementState} from \"./NullSettlementState.sol\";\nimport {MonetaryTypesLib} from \"./MonetaryTypesLib.sol\";\nimport {TradeTypesLib} from \"./TradeTypesLib.sol\";\nimport {SettlementChallengeTypesLib} from \"./SettlementChallengeTypesLib.sol\";\nimport {BalanceTrackerLib} from \"./BalanceTrackerLib.sol\";\n\n/**\n * @title NullSettlementChallengeByTrade\n * @notice Where null settlements pertaining to trade are started and disputed\n */\ncontract NullSettlementChallengeByTrade is Ownable, ConfigurableOperational, BalanceTrackable, WalletLockable {\n    using SafeMathIntLib for int256;\n    using SafeMathUintLib for uint256;\n    using BalanceTrackerLib for BalanceTracker;\n\n    //\n    // Variables\n    // -----------------------------------------------------------------------------------------------------------------\n    NullSettlementDisputeByTrade public nullSettlementDisputeByTrade;\n    NullSettlementChallengeState public nullSettlementChallengeState;\n    NullSettlementState public nullSettlementState;\n\n    //\n    // Events\n    // -----------------------------------------------------------------------------------------------------------------\n    event SetNullSettlementDisputeByTradeEvent(NullSettlementDisputeByTrade oldNullSettlementDisputeByTrade,\n        NullSettlementDisputeByTrade newNullSettlementDisputeByTrade);\n    event SetNullSettlementChallengeStateEvent(NullSettlementChallengeState oldNullSettlementChallengeState,\n        NullSettlementChallengeState newNullSettlementChallengeState);\n    event SetNullSettlementStateEvent(NullSettlementState oldNullSettlementState,\n        NullSettlementState newNullSettlementState);\n    event StartChallengeEvent(address wallet, int256 amount, address stageCurrencyCt,\n        uint stageCurrencyId);\n    event StartChallengeByProxyEvent(address proxy, address wallet, int256 amount,\n        address stageCurrencyCt, uint stageCurrencyId);\n    event StopChallengeEvent(address wallet, address currencyCt, uint256 currencyId);\n    event StopChallengeByProxyEvent(address proxy, address wallet, address currencyCt, uint256 currencyId);\n\n    //\n    // Constructor\n    // -----------------------------------------------------------------------------------------------------------------\n    constructor(address deployer) Ownable(deployer) public {\n    }\n\n    //\n    // Functions\n    // -----------------------------------------------------------------------------------------------------------------\n    /// @notice Set the settlement dispute contract\n    /// @param newNullSettlementDisputeByTrade The (address of) NullSettlementDisputeByTrade contract instance\n    function setNullSettlementDisputeByTrade(NullSettlementDisputeByTrade newNullSettlementDisputeByTrade)\n    public\n    onlyDeployer\n    notNullAddress(newNullSettlementDisputeByTrade)\n    {\n        NullSettlementDisputeByTrade oldNullSettlementDisputeByTrade = nullSettlementDisputeByTrade;\n        nullSettlementDisputeByTrade = newNullSettlementDisputeByTrade;\n        emit SetNullSettlementDisputeByTradeEvent(oldNullSettlementDisputeByTrade, nullSettlementDisputeByTrade);\n    }\n\n    /// @notice Set the settlement challenge state contract\n    /// @param newNullSettlementChallengeState The (address of) NullSettlementChallengeState contract instance\n    function setNullSettlementChallengeState(NullSettlementChallengeState newNullSettlementChallengeState)\n    public\n    onlyDeployer\n    notNullAddress(newNullSettlementChallengeState)\n    {\n        NullSettlementChallengeState oldNullSettlementChallengeState = nullSettlementChallengeState;\n        nullSettlementChallengeState = newNullSettlementChallengeState;\n        emit SetNullSettlementChallengeStateEvent(oldNullSettlementChallengeState, nullSettlementChallengeState);\n    }\n\n    /// @notice Set the driip settlement state contract\n    /// @param newNullSettlementState The (address of) NullSettlementState contract instance\n    function setNullSettlementState(NullSettlementState newNullSettlementState)\n    public\n    onlyDeployer\n    notNullAddress(newNullSettlementState)\n    {\n        NullSettlementState oldNullSettlementState = nullSettlementState;\n        nullSettlementState = newNullSettlementState;\n        emit SetNullSettlementStateEvent(oldNullSettlementState, nullSettlementState);\n    }\n\n    /// @notice Start settlement challenge\n    /// @param amount The concerned amount to stage\n    /// @param currencyCt The address of the concerned currency contract (address(0) == ETH)\n    /// @param currencyId The ID of the concerned currency (0 for ETH and ERC20)\n    function startChallenge(int256 amount, address currencyCt, uint256 currencyId)\n    public\n    {\n        // Require that wallet is not locked\n        require(!walletLocker.isLocked(msg.sender));\n\n        // Start challenge for wallet\n        _startChallenge(msg.sender, amount, MonetaryTypesLib.Currency(currencyCt, currencyId), true);\n\n        // Emit event\n        emit StartChallengeEvent(msg.sender, amount, currencyCt, currencyId);\n    }\n\n    /// @notice Start settlement challenge for the given wallet\n    /// @param wallet The address of the concerned wallet\n    /// @param amount The concerned amount to stage\n    /// @param currencyCt The address of the concerned currency contract (address(0) == ETH)\n    /// @param currencyId The ID of the concerned currency (0 for ETH and ERC20)\n    function startChallengeByProxy(address wallet, int256 amount, address currencyCt, uint256 currencyId)\n    public\n    onlyOperator\n    {\n        // Start challenge for wallet\n        _startChallenge(wallet, amount, MonetaryTypesLib.Currency(currencyCt, currencyId), false);\n\n        // Emit event\n        emit StartChallengeByProxyEvent(msg.sender, wallet, amount, currencyCt, currencyId);\n    }\n\n    /// @notice Stop settlement challenge\n    /// @param currencyCt The address of the concerned currency contract (address(0) == ETH)\n    /// @param currencyId The ID of the concerned currency (0 for ETH and ERC20)\n    function stopChallenge(address currencyCt, uint256 currencyId)\n    public\n    {\n        // Stop challenge\n        _stopChallenge(msg.sender, MonetaryTypesLib.Currency(currencyCt, currencyId), true);\n\n        // Emit event\n        emit StopChallengeEvent(msg.sender, currencyCt, currencyId);\n    }\n\n    /// @notice Stop settlement challenge\n    /// @param wallet The concerned wallet\n    /// @param currencyCt The address of the concerned currency contract (address(0) == ETH)\n    /// @param currencyId The ID of the concerned currency (0 for ETH and ERC20)\n    function stopChallengeByProxy(address wallet, address currencyCt, uint256 currencyId)\n    public\n    onlyOperator\n    {\n        // Stop challenge\n        _stopChallenge(wallet, MonetaryTypesLib.Currency(currencyCt, currencyId), false);\n\n        // Emit event\n        emit StopChallengeByProxyEvent(msg.sender, wallet, currencyCt, currencyId);\n    }\n\n    /// @notice Gauge whether the proposal for the given wallet and currency has expired\n    /// @param wallet The address of the concerned wallet\n    /// @param currencyCt The address of the concerned currency contract (address(0) == ETH)\n    /// @param currencyId The ID of the concerned currency (0 for ETH and ERC20)\n    /// @return true if proposal has expired, else false\n    function hasProposalExpired(address wallet, address currencyCt, uint256 currencyId)\n    public\n    view\n    returns (bool)\n    {\n        return nullSettlementChallengeState.hasProposalExpired(\n            wallet, MonetaryTypesLib.Currency(currencyCt, currencyId)\n        );\n    }\n\n    /// @notice Get the challenge nonce of the given wallet\n    /// @param wallet The address of the concerned wallet\n    /// @param currencyCt The address of the concerned currency contract (address(0) == ETH)\n    /// @param currencyId The ID of the concerned currency (0 for ETH and ERC20)\n    /// @return The challenge nonce\n    function proposalNonce(address wallet, address currencyCt, uint256 currencyId)\n    public\n    view\n    returns (uint256)\n    {\n        return nullSettlementChallengeState.proposalNonce(\n            wallet, MonetaryTypesLib.Currency(currencyCt, currencyId)\n        );\n    }\n\n    /// @notice Get the settlement proposal block number of the given wallet\n    /// @param wallet The address of the concerned wallet\n    /// @param currencyCt The address of the concerned currency contract (address(0) == ETH)\n    /// @param currencyId The ID of the concerned currency (0 for ETH and ERC20)\n    /// @return The settlement proposal block number\n    function proposalBlockNumber(address wallet, address currencyCt, uint256 currencyId)\n    public\n    view\n    returns (uint256)\n    {\n        return nullSettlementChallengeState.proposalBlockNumber(\n            wallet, MonetaryTypesLib.Currency(currencyCt, currencyId)\n        );\n    }\n\n    /// @notice Get the settlement proposal end time of the given wallet\n    /// @param wallet The address of the concerned wallet\n    /// @param currencyCt The address of the concerned currency contract (address(0) == ETH)\n    /// @param currencyId The ID of the concerned currency (0 for ETH and ERC20)\n    /// @return The settlement proposal end time\n    function proposalExpirationTime(address wallet, address currencyCt, uint256 currencyId)\n    public\n    view\n    returns (uint256)\n    {\n        return nullSettlementChallengeState.proposalExpirationTime(\n            wallet, MonetaryTypesLib.Currency(currencyCt, currencyId)\n        );\n    }\n\n    /// @notice Get the challenge status of the given wallet\n    /// @param wallet The address of the concerned wallet\n    /// @param currencyCt The address of the concerned currency contract (address(0) == ETH)\n    /// @param currencyId The ID of the concerned currency (0 for ETH and ERC20)\n    /// @return The challenge status\n    function proposalStatus(address wallet, address currencyCt, uint256 currencyId)\n    public\n    view\n    returns (SettlementChallengeTypesLib.Status)\n    {\n        return nullSettlementChallengeState.proposalStatus(\n            wallet, MonetaryTypesLib.Currency(currencyCt, currencyId)\n        );\n    }\n\n    /// @notice Get the settlement proposal stage amount of the given wallet and currency\n    /// @param wallet The address of the concerned wallet\n    /// @param currencyCt The address of the concerned currency contract (address(0) == ETH)\n    /// @param currencyId The ID of the concerned currency (0 for ETH and ERC20)\n    /// @return The settlement proposal stage amount\n    function proposalStageAmount(address wallet, address currencyCt, uint256 currencyId)\n    public\n    view\n    returns (int256)\n    {\n        return nullSettlementChallengeState.proposalStageAmount(\n            wallet, MonetaryTypesLib.Currency(currencyCt, currencyId)\n        );\n    }\n\n    /// @notice Get the settlement proposal target balance amount of the given wallet and currency\n    /// @param wallet The address of the concerned wallet\n    /// @param currencyCt The address of the concerned currency contract (address(0) == ETH)\n    /// @param currencyId The ID of the concerned currency (0 for ETH and ERC20)\n    /// @return The settlement proposal target balance amount\n    function proposalTargetBalanceAmount(address wallet, address currencyCt, uint256 currencyId)\n    public\n    view\n    returns (int256)\n    {\n        return nullSettlementChallengeState.proposalTargetBalanceAmount(\n            wallet, MonetaryTypesLib.Currency(currencyCt, currencyId)\n        );\n    }\n\n    /// @notice Get the balance reward of the given wallet's settlement proposal\n    /// @param wallet The address of the concerned wallet\n    /// @param currencyCt The address of the concerned currency contract (address(0) == ETH)\n    /// @param currencyId The ID of the concerned currency (0 for ETH and ERC20)\n    /// @return The balance reward of the settlement proposal\n    function proposalWalletInitiated(address wallet, address currencyCt, uint256 currencyId)\n    public\n    view\n    returns (bool)\n    {\n        return nullSettlementChallengeState.proposalWalletInitiated(\n            wallet, MonetaryTypesLib.Currency(currencyCt, currencyId)\n        );\n    }\n\n    /// @notice Get the disqualification challenger of the given wallet and currency\n    /// @param wallet The address of the concerned wallet\n    /// @param currencyCt The address of the concerned currency contract (address(0) == ETH)\n    /// @param currencyId The ID of the concerned currency (0 for ETH and ERC20)\n    /// @return The challenger of the settlement disqualification\n    function proposalDisqualificationChallenger(address wallet, address currencyCt, uint256 currencyId)\n    public\n    view\n    returns (address)\n    {\n        return nullSettlementChallengeState.proposalDisqualificationChallenger(\n            wallet, MonetaryTypesLib.Currency(currencyCt, currencyId)\n        );\n    }\n\n    /// @notice Get the disqualification block number of the given wallet and currency\n    /// @param wallet The address of the concerned wallet\n    /// @param currencyCt The address of the concerned currency contract (address(0) == ETH)\n    /// @param currencyId The ID of the concerned currency (0 for ETH and ERC20)\n    /// @return The block number of the settlement disqualification\n    function proposalDisqualificationBlockNumber(address wallet, address currencyCt, uint256 currencyId)\n    public\n    view\n    returns (uint256)\n    {\n        return nullSettlementChallengeState.proposalDisqualificationBlockNumber(\n            wallet, MonetaryTypesLib.Currency(currencyCt, currencyId)\n        );\n    }\n\n    /// @notice Get the disqualification candidate kind of the given wallet and currency\n    /// @param wallet The address of the concerned wallet\n    /// @param currencyCt The address of the concerned currency contract (address(0) == ETH)\n    /// @param currencyId The ID of the concerned currency (0 for ETH and ERC20)\n    /// @return The candidate kind of the settlement disqualification\n    function proposalDisqualificationCandidateKind(address wallet, address currencyCt, uint256 currencyId)\n    public\n    view\n    returns (string)\n    {\n        return nullSettlementChallengeState.proposalDisqualificationCandidateKind(\n            wallet, MonetaryTypesLib.Currency(currencyCt, currencyId)\n        );\n    }\n\n    /// @notice Get the disqualification candidate hash of the given wallet and currency\n    /// @param wallet The address of the concerned wallet\n    /// @param currencyCt The address of the concerned currency contract (address(0) == ETH)\n    /// @param currencyId The ID of the concerned currency (0 for ETH and ERC20)\n    /// @return The candidate hash of the settlement disqualification\n    function proposalDisqualificationCandidateHash(address wallet, address currencyCt, uint256 currencyId)\n    public\n    view\n    returns (bytes32)\n    {\n        return nullSettlementChallengeState.proposalDisqualificationCandidateHash(\n            wallet, MonetaryTypesLib.Currency(currencyCt, currencyId)\n        );\n    }\n\n    /// @notice Challenge the settlement by providing order candidate\n    /// @param order The order candidate that challenges the null\n    function challengeByOrder(TradeTypesLib.Order order)\n    public\n    onlyOperationalModeNormal\n    {\n        nullSettlementDisputeByTrade.challengeByOrder(order, msg.sender);\n    }\n\n    /// @notice Challenge the settlement by providing trade candidate\n    /// @param wallet The wallet whose settlement is being challenged\n    /// @param trade The trade candidate that challenges the null\n    function challengeByTrade(address wallet, TradeTypesLib.Trade trade)\n    public\n    onlyOperationalModeNormal\n    {\n        nullSettlementDisputeByTrade.challengeByTrade(wallet, trade, msg.sender);\n    }\n\n    //\n    // Private functions\n    // -----------------------------------------------------------------------------------------------------------------\n    function _startChallenge(address wallet, int256 stageAmount, MonetaryTypesLib.Currency currency,\n        bool walletInitiated)\n    private\n    {\n        // Require that current block number is beyond the earliest settlement challenge block number\n        require(block.number >= configuration.earliestSettlementBlockNumber());\n\n        // Get the last logged active balance amount and block number\n        (int256 activeBalanceAmount, uint256 activeBalanceBlockNumber) = balanceTracker.fungibleActiveRecord(\n            wallet, currency\n        );\n\n        // Obtain highest settled wallet nonce\n        uint256 nonce = nullSettlementState.maxNonceByWalletAndCurrency(wallet, currency);\n\n        // Add proposal, including assurance that there is no overlap with active proposal\n        nullSettlementChallengeState.addProposal(\n            wallet, nonce.add(1), stageAmount, activeBalanceAmount.sub(stageAmount), currency,\n            activeBalanceBlockNumber, walletInitiated\n        );\n    }\n\n    function _stopChallenge(address wallet, MonetaryTypesLib.Currency currency, bool walletTerminated)\n    private\n    {\n        // Stop challenge\n        nullSettlementChallengeState.removeProposal(wallet, currency, walletTerminated);\n    }\n}\n",
  "sourcePath": "/opt/buildagent/work/855e104608380c36/contracts/NullSettlementChallengeByTrade.sol",
  "compiler": {
    "name": "solc",
    "version": "0.4.25+commit.59dbf8f1.Emscripten.clang"
  },
  "schemaVersion": "2.0.2",
  "updatedAt": "2019-04-02T08:24:32.139Z"
}