{
  "contractName": "NullSettlement",
  "abi": [
    {
      "inputs": [
        {
          "internalType": "address",
          "name": "deployer",
          "type": "address"
        }
      ],
      "payable": false,
      "stateMutability": "nonpayable",
      "type": "constructor"
    },
    {
      "anonymous": false,
      "inputs": [],
      "name": "FreezeCommunityVoteEvent",
      "type": "event"
    },
    {
      "anonymous": false,
      "inputs": [
        {
          "indexed": false,
          "internalType": "address",
          "name": "wallet",
          "type": "address"
        }
      ],
      "name": "SelfDestructionDisabledEvent",
      "type": "event"
    },
    {
      "anonymous": false,
      "inputs": [
        {
          "indexed": false,
          "internalType": "contract ClientFund",
          "name": "oldClientFund",
          "type": "address"
        },
        {
          "indexed": false,
          "internalType": "contract ClientFund",
          "name": "newClientFund",
          "type": "address"
        }
      ],
      "name": "SetClientFundEvent",
      "type": "event"
    },
    {
      "anonymous": false,
      "inputs": [
        {
          "indexed": false,
          "internalType": "contract CommunityVote",
          "name": "oldCommunityVote",
          "type": "address"
        },
        {
          "indexed": false,
          "internalType": "contract CommunityVote",
          "name": "newCommunityVote",
          "type": "address"
        }
      ],
      "name": "SetCommunityVoteEvent",
      "type": "event"
    },
    {
      "anonymous": false,
      "inputs": [
        {
          "indexed": false,
          "internalType": "contract Configuration",
          "name": "oldConfiguration",
          "type": "address"
        },
        {
          "indexed": false,
          "internalType": "contract Configuration",
          "name": "newConfiguration",
          "type": "address"
        }
      ],
      "name": "SetConfigurationEvent",
      "type": "event"
    },
    {
      "anonymous": false,
      "inputs": [
        {
          "indexed": false,
          "internalType": "address",
          "name": "oldDeployer",
          "type": "address"
        },
        {
          "indexed": false,
          "internalType": "address",
          "name": "newDeployer",
          "type": "address"
        }
      ],
      "name": "SetDeployerEvent",
      "type": "event"
    },
    {
      "anonymous": false,
      "inputs": [
        {
          "indexed": false,
          "internalType": "contract DriipSettlementChallengeState",
          "name": "oldDriipSettlementChallengeState",
          "type": "address"
        },
        {
          "indexed": false,
          "internalType": "contract DriipSettlementChallengeState",
          "name": "newDriipSettlementChallengeState",
          "type": "address"
        }
      ],
      "name": "SetDriipSettlementChallengeStateEvent",
      "type": "event"
    },
    {
      "anonymous": false,
      "inputs": [
        {
          "indexed": false,
          "internalType": "contract NullSettlementChallengeState",
          "name": "oldNullSettlementChallengeState",
          "type": "address"
        },
        {
          "indexed": false,
          "internalType": "contract NullSettlementChallengeState",
          "name": "newNullSettlementChallengeState",
          "type": "address"
        }
      ],
      "name": "SetNullSettlementChallengeStateEvent",
      "type": "event"
    },
    {
      "anonymous": false,
      "inputs": [
        {
          "indexed": false,
          "internalType": "contract NullSettlementState",
          "name": "oldNullSettlementState",
          "type": "address"
        },
        {
          "indexed": false,
          "internalType": "contract NullSettlementState",
          "name": "newNullSettlementState",
          "type": "address"
        }
      ],
      "name": "SetNullSettlementStateEvent",
      "type": "event"
    },
    {
      "anonymous": false,
      "inputs": [
        {
          "indexed": false,
          "internalType": "address",
          "name": "oldOperator",
          "type": "address"
        },
        {
          "indexed": false,
          "internalType": "address",
          "name": "newOperator",
          "type": "address"
        }
      ],
      "name": "SetOperatorEvent",
      "type": "event"
    },
    {
      "anonymous": false,
      "inputs": [
        {
          "indexed": false,
          "internalType": "address",
          "name": "proxy",
          "type": "address"
        },
        {
          "indexed": false,
          "internalType": "address",
          "name": "wallet",
          "type": "address"
        },
        {
          "indexed": false,
          "internalType": "address",
          "name": "currencyCt",
          "type": "address"
        },
        {
          "indexed": false,
          "internalType": "uint256",
          "name": "currencyId",
          "type": "uint256"
        },
        {
          "indexed": false,
          "internalType": "string",
          "name": "standard",
          "type": "string"
        }
      ],
      "name": "SettleNullByProxyEvent",
      "type": "event"
    },
    {
      "anonymous": false,
      "inputs": [
        {
          "indexed": false,
          "internalType": "address",
          "name": "wallet",
          "type": "address"
        },
        {
          "indexed": false,
          "internalType": "address",
          "name": "currencyCt",
          "type": "address"
        },
        {
          "indexed": false,
          "internalType": "uint256",
          "name": "currencyId",
          "type": "uint256"
        },
        {
          "indexed": false,
          "internalType": "string",
          "name": "standard",
          "type": "string"
        }
      ],
      "name": "SettleNullEvent",
      "type": "event"
    },
    {
      "anonymous": false,
      "inputs": [
        {
          "indexed": false,
          "internalType": "address",
          "name": "wallet",
          "type": "address"
        }
      ],
      "name": "TriggerSelfDestructionEvent",
      "type": "event"
    },
    {
      "constant": true,
      "inputs": [],
      "name": "clientFund",
      "outputs": [
        {
          "internalType": "contract ClientFund",
          "name": "",
          "type": "address"
        }
      ],
      "payable": false,
      "stateMutability": "view",
      "type": "function"
    },
    {
      "constant": true,
      "inputs": [],
      "name": "communityVote",
      "outputs": [
        {
          "internalType": "contract CommunityVote",
          "name": "",
          "type": "address"
        }
      ],
      "payable": false,
      "stateMutability": "view",
      "type": "function"
    },
    {
      "constant": true,
      "inputs": [],
      "name": "communityVoteFrozen",
      "outputs": [
        {
          "internalType": "bool",
          "name": "",
          "type": "bool"
        }
      ],
      "payable": false,
      "stateMutability": "view",
      "type": "function"
    },
    {
      "constant": true,
      "inputs": [],
      "name": "configuration",
      "outputs": [
        {
          "internalType": "contract Configuration",
          "name": "",
          "type": "address"
        }
      ],
      "payable": false,
      "stateMutability": "view",
      "type": "function"
    },
    {
      "constant": true,
      "inputs": [],
      "name": "deployer",
      "outputs": [
        {
          "internalType": "address",
          "name": "",
          "type": "address"
        }
      ],
      "payable": false,
      "stateMutability": "view",
      "type": "function"
    },
    {
      "constant": true,
      "inputs": [],
      "name": "destructor",
      "outputs": [
        {
          "internalType": "address",
          "name": "",
          "type": "address"
        }
      ],
      "payable": false,
      "stateMutability": "view",
      "type": "function"
    },
    {
      "constant": false,
      "inputs": [],
      "name": "disableSelfDestruction",
      "outputs": [],
      "payable": false,
      "stateMutability": "nonpayable",
      "type": "function"
    },
    {
      "constant": true,
      "inputs": [],
      "name": "driipSettlementChallengeState",
      "outputs": [
        {
          "internalType": "contract DriipSettlementChallengeState",
          "name": "",
          "type": "address"
        }
      ],
      "payable": false,
      "stateMutability": "view",
      "type": "function"
    },
    {
      "constant": false,
      "inputs": [],
      "name": "freezeCommunityVote",
      "outputs": [],
      "payable": false,
      "stateMutability": "nonpayable",
      "type": "function"
    },
    {
      "constant": true,
      "inputs": [],
      "name": "nullSettlementChallengeState",
      "outputs": [
        {
          "internalType": "contract NullSettlementChallengeState",
          "name": "",
          "type": "address"
        }
      ],
      "payable": false,
      "stateMutability": "view",
      "type": "function"
    },
    {
      "constant": true,
      "inputs": [],
      "name": "nullSettlementState",
      "outputs": [
        {
          "internalType": "contract NullSettlementState",
          "name": "",
          "type": "address"
        }
      ],
      "payable": false,
      "stateMutability": "view",
      "type": "function"
    },
    {
      "constant": true,
      "inputs": [],
      "name": "operator",
      "outputs": [
        {
          "internalType": "address",
          "name": "",
          "type": "address"
        }
      ],
      "payable": false,
      "stateMutability": "view",
      "type": "function"
    },
    {
      "constant": true,
      "inputs": [],
      "name": "selfDestructionDisabled",
      "outputs": [
        {
          "internalType": "bool",
          "name": "",
          "type": "bool"
        }
      ],
      "payable": false,
      "stateMutability": "view",
      "type": "function"
    },
    {
      "constant": false,
      "inputs": [
        {
          "internalType": "contract ClientFund",
          "name": "newClientFund",
          "type": "address"
        }
      ],
      "name": "setClientFund",
      "outputs": [],
      "payable": false,
      "stateMutability": "nonpayable",
      "type": "function"
    },
    {
      "constant": false,
      "inputs": [
        {
          "internalType": "contract CommunityVote",
          "name": "newCommunityVote",
          "type": "address"
        }
      ],
      "name": "setCommunityVote",
      "outputs": [],
      "payable": false,
      "stateMutability": "nonpayable",
      "type": "function"
    },
    {
      "constant": false,
      "inputs": [
        {
          "internalType": "contract Configuration",
          "name": "newConfiguration",
          "type": "address"
        }
      ],
      "name": "setConfiguration",
      "outputs": [],
      "payable": false,
      "stateMutability": "nonpayable",
      "type": "function"
    },
    {
      "constant": false,
      "inputs": [
        {
          "internalType": "address",
          "name": "newDeployer",
          "type": "address"
        }
      ],
      "name": "setDeployer",
      "outputs": [],
      "payable": false,
      "stateMutability": "nonpayable",
      "type": "function"
    },
    {
      "constant": false,
      "inputs": [
        {
          "internalType": "address",
          "name": "newOperator",
          "type": "address"
        }
      ],
      "name": "setOperator",
      "outputs": [],
      "payable": false,
      "stateMutability": "nonpayable",
      "type": "function"
    },
    {
      "constant": false,
      "inputs": [],
      "name": "triggerSelfDestruction",
      "outputs": [],
      "payable": false,
      "stateMutability": "nonpayable",
      "type": "function"
    },
    {
      "constant": false,
      "inputs": [
        {
          "internalType": "contract NullSettlementChallengeState",
          "name": "newNullSettlementChallengeState",
          "type": "address"
        }
      ],
      "name": "setNullSettlementChallengeState",
      "outputs": [],
      "payable": false,
      "stateMutability": "nonpayable",
      "type": "function"
    },
    {
      "constant": false,
      "inputs": [
        {
          "internalType": "contract NullSettlementState",
          "name": "newNullSettlementState",
          "type": "address"
        }
      ],
      "name": "setNullSettlementState",
      "outputs": [],
      "payable": false,
      "stateMutability": "nonpayable",
      "type": "function"
    },
    {
      "constant": false,
      "inputs": [
        {
          "internalType": "contract DriipSettlementChallengeState",
          "name": "newDriipSettlementChallengeState",
          "type": "address"
        }
      ],
      "name": "setDriipSettlementChallengeState",
      "outputs": [],
      "payable": false,
      "stateMutability": "nonpayable",
      "type": "function"
    },
    {
      "constant": false,
      "inputs": [
        {
          "internalType": "address",
          "name": "currencyCt",
          "type": "address"
        },
        {
          "internalType": "uint256",
          "name": "currencyId",
          "type": "uint256"
        },
        {
          "internalType": "string",
          "name": "standard",
          "type": "string"
        }
      ],
      "name": "settleNull",
      "outputs": [],
      "payable": false,
      "stateMutability": "nonpayable",
      "type": "function"
    },
    {
      "constant": false,
      "inputs": [
        {
          "internalType": "address",
          "name": "wallet",
          "type": "address"
        },
        {
          "internalType": "address",
          "name": "currencyCt",
          "type": "address"
        },
        {
          "internalType": "uint256",
          "name": "currencyId",
          "type": "uint256"
        },
        {
          "internalType": "string",
          "name": "standard",
          "type": "string"
        }
      ],
      "name": "settleNullByProxy",
      "outputs": [],
      "payable": false,
      "stateMutability": "nonpayable",
      "type": "function"
    }
  ],
  "bytecode": "0x60806040523480156200001157600080fd5b5060405162001c1e38038062001c1e8339810160408190526200003491620000b3565b80806001600160a01b0381166200004a57600080fd5b6001600160a01b0381163014156200006157600080fd5b5060008054610100600160a81b0319166101006001600160a01b0393909316928302179055600180546001600160a01b03191690911790555062000108565b8051620000ad81620000ee565b92915050565b600060208284031215620000c657600080fd5b6000620000d48484620000a0565b949350505050565b60006001600160a01b038216620000ad565b620000f981620000dc565b81146200010557600080fd5b50565b611b0680620001186000396000f3fe608060405234801561001057600080fd5b50600436106101285760003560e01c80632738a1121461012d5780632aa1c9d9146101375780632f013a001461014a5780634476d23b1461016857806351d7cd611461017d578063570ca73514610192578063627f09c31461019a57806366a83a6f146101ad578063670732a7146101c05780636c70bee9146101c85780636ccb43c8146101d057806370327ea1146101e357806379bf6b36146101eb5780637d1c66f5146101f35780638e9d6cbd14610206578063962147351461020e578063b3ab15fb14610221578063b71ded2f14610234578063bf24e7d014610247578063d5f394881461024f578063da5a3b7014610257578063e754476f1461026a578063e86ab8f614610272578063fa7424f214610285575b600080fd5b61013561028d565b005b6101356101453660046113a0565b6102f3565b61015261037a565b60405161015f91906118ec565b60405180910390f35b610170610383565b60405161015f91906117ba565b610185610397565b60405161015f91906118fa565b6101706103a6565b6101356101a83660046113a0565b6103b5565b6101356101bb36600461131e565b610456565b6101356104b3565b610185610502565b6101356101de3660046113a0565b610511565b61013561058b565b6101856105ee565b6101356102013660046112a6565b6105fd565b61015261067b565b61013561021c366004611280565b61068b565b61013561022f366004611280565b610741565b6101356102423660046113a0565b6107e4565b610185610875565b610170610884565b6101356102653660046113a0565b610898565b610185610912565b6101356102803660046113a0565b610921565b6101856109e5565b33610296610383565b6001600160a01b0316146102a957600080fd5b60005460ff16156102b957600080fd5b7f787a5d936e74f4b564b9153575886059829c78cd9927b1be5e0d976b317ef736336040516102e891906117c8565b60405180910390a133ff5b6102fb6109f4565b61030457600080fd5b806001600160a01b03811661031857600080fd5b600780546001600160a01b038481166001600160a01b031983161792839055604051918116927f4f7125332801996cdeaabf9cff1ac89ddf4b52c673558936affe853ab64a88da9261036d9285921690611908565b60405180910390a1505050565b60005460ff1681565b60005461010090046001600160a01b031690565b6007546001600160a01b031681565b6001546001600160a01b031681565b6103bd6109f4565b6103c657600080fd5b806001600160a01b0381166103da57600080fd5b60025482906001600160a01b03908116908216811461045057600280546001600160a01b038681166001600160a01b03198316179092556040519116907f634f61bf00e14adedce330c80c2823e16e184f189ebe853e1ddecc4a268477ff906104469083908890611908565b60405180910390a1505b50505050565b61047e336040518060400160405280866001600160a01b031681526020018581525083610a0a565b7f7af90506400bab47d6ae3ab121fdc88885ef30e2a90b93bb288f718d4b0140e13384848460405161036d9493929190611828565b6104bb6109f4565b6104c457600080fd5b6004805460ff60a01b1916600160a01b1790556040517fc1668d45f18667fb6eadfbcacfd5cdcc7dd4ecdfc9b0ab8786cfdbad86bb83d890600090a1565b6002546001600160a01b031681565b6105196109f4565b61052257600080fd5b806001600160a01b03811661053657600080fd5b600580546001600160a01b038481166001600160a01b031983161792839055604051918116927ff21c127205310467822e10c64b2d9ffae588e019194d6af71f2bdddc0b7ef5269261036d9285921690611908565b33610594610383565b6001600160a01b0316146105a757600080fd5b6000805460ff191660011790556040517fd5a2a04a775c741c2ca0dc46ea7ce4835190e1aaf1ca018def0e82568ec33616906105e49033906117c8565b60405180910390a1565b6006546001600160a01b031681565b6106056111d3565b61060e57600080fd5b610636846040518060400160405280866001600160a01b031681526020018581525083610a0a565b7f2230380baaf6690f9dafe46d5407a6f9ebc1bfc5bc0e0488bf5fd36504a7cf0a338585858560405161066d9594939291906117d6565b60405180910390a150505050565b600454600160a01b900460ff1681565b6106936109f4565b61069c57600080fd5b806001600160a01b0381166106b057600080fd5b6001600160a01b0381163014156106c657600080fd5b6000546001600160a01b03838116610100909204161461073d57600080546001600160a01b03848116610100908102610100600160a81b03198416179093556040519290910416907f977e5fa58e458501775e0008d275006294c5249e3c08d1d0e3a9f3acad14f6e49061036d908390869061186c565b5050565b6107496111d3565b61075257600080fd5b806001600160a01b03811661076657600080fd5b6001600160a01b03811630141561077c57600080fd5b6001546001600160a01b0383811691161461073d57600180546001600160a01b038481166001600160a01b03198316179092556040519116907f9f611b789425d0d5b90b920f1b2852907dd865c80074a30b1629aaa041d1812c9061036d908390869061186c565b6107ec6109f4565b6107f557600080fd5b806001600160a01b03811661080957600080fd5b60035482906001600160a01b03908116908216811461045057600380546001600160a01b038681166001600160a01b03198316179092556040519116907f4d96d2a04c886b313bd1e28be6324ed4c8867b3203e512756722f8be0195e16d906104469083908890611908565b6004546001600160a01b031681565b60005461010090046001600160a01b031681565b6108a06109f4565b6108a957600080fd5b806001600160a01b0381166108bd57600080fd5b600680546001600160a01b038481166001600160a01b031983161792839055604051918116927f7983934b0c7a4c64fbf3454ed2053b3bc71c8fd637308a7d2ee8eb51cbc68e359261036d9285921690611908565b6003546001600160a01b031681565b6109296109f4565b61093257600080fd5b806001600160a01b03811661094657600080fd5b60045482906001600160a01b03908116908216811461045057600454600160a01b900460ff16156109925760405162461bcd60e51b815260040161098990611993565b60405180910390fd5b600480546001600160a01b038681166001600160a01b03198316179092556040519116907f624c4d4225a45f5bf8a9755adba1ef9be3464a9970b05a371fb6cca0c0caf204906104469083908890611908565b6005546001600160a01b031681565b60005461010090046001600160a01b0316331490565b60075460405163076470a560e31b81526001600160a01b0390911690633b23852890610a3c90869086906004016118a9565b60206040518083038186803b158015610a5457600080fd5b505afa158015610a68573d6000803e3d6000fd5b505050506040513d601f19601f82011682018060405250610a8c9190810190611382565b1580610b155750600754604051637ff81c3760e01b81526001600160a01b0390911690637ff81c3790610ac590869086906004016118a9565b60206040518083038186803b158015610add57600080fd5b505afa158015610af1573d6000803e3d6000fd5b505050506040513d601f19601f82011682018060405250610b159190810190611382565b610b315760405162461bcd60e51b815260040161098990611973565b60055460405163076470a560e31b81526001600160a01b0390911690633b23852890610b6390869086906004016118a9565b60206040518083038186803b158015610b7b57600080fd5b505afa158015610b8f573d6000803e3d6000fd5b505050506040513d601f19601f82011682018060405250610bb39190810190611382565b610bcf5760405162461bcd60e51b815260040161098990611943565b600554604051637ff81c3760e01b81526001600160a01b0390911690637ff81c3790610c0190869086906004016118a9565b60206040518083038186803b158015610c1957600080fd5b505afa158015610c2d573d6000803e3d6000fd5b505050506040513d601f19601f82011682018060405250610c519190810190611382565b15610c6e5760405162461bcd60e51b815260040161098990611963565b600554604051635482c73560e01b81526001600160a01b0390911690635482c73590610ca090869086906004016118a9565b60206040518083038186803b158015610cb857600080fd5b505afa158015610ccc573d6000803e3d6000fd5b505050506040513d601f19601f82011682018060405250610cf09190810190611382565b610d0c5760405162461bcd60e51b815260040161098990611933565b60055460405163b6e2fc3360e01b81526001600160a01b039091169063b6e2fc3390610d3e90869086906004016118a9565b60206040518083038186803b158015610d5657600080fd5b505afa158015610d6a573d6000803e3d6000fd5b505050506040513d601f19601f82011682018060405250610d8e91908101906113be565b6001811115610d9957fe5b15610db65760405162461bcd60e51b8152600401610989906119a3565b600260009054906101000a90046001600160a01b03166001600160a01b031663f71e860f6040518163ffffffff1660e01b815260040160206040518083038186803b158015610e0457600080fd5b505afa158015610e18573d6000803e3d6000fd5b505050506040513d601f19601f82011682018060405250610e3c9190810190611382565b610e585760405162461bcd60e51b815260040161098990611983565b6004805460408051634ca7103b60e11b815290516001600160a01b039092169263994e2076928282019260209290829003018186803b158015610e9a57600080fd5b505afa158015610eae573d6000803e3d6000fd5b505050506040513d601f19601f82011682018060405250610ed29190810190611382565b610eee5760405162461bcd60e51b815260040161098990611923565b600554604051632ee2ed2560e01b81526000916001600160a01b031690632ee2ed2590610f2190879087906004016118a9565b60206040518083038186803b158015610f3957600080fd5b505afa158015610f4d573d6000803e3d6000fd5b505050506040513d601f19601f82011682018060405250610f7191908101906113dc565b600654604051633858654b60e01b81529192506001600160a01b031690633858654b90610fa490879087906004016118a9565b60206040518083038186803b158015610fbc57600080fd5b505afa158015610fd0573d6000803e3d6000fd5b505050506040513d601f19601f82011682018060405250610ff491908101906113dc565b8110156110135760405162461bcd60e51b815260040161098990611953565b600654604051630284774760e31b81526001600160a01b0390911690631423ba3890611047908790879086906004016118c4565b600060405180830381600087803b15801561106157600080fd5b505af1158015611075573d6000803e3d6000fd5b5050600354600554604051633007230f60e11b81526001600160a01b03928316945063ad468df9935088929091169063600e461e906110ba9084908a906004016118a9565b60206040518083038186803b1580156110d257600080fd5b505afa1580156110e6573d6000803e3d6000fd5b505050506040513d601f19601f8201168201806040525061110a91908101906113dc565b865160208801516040516001600160e01b031960e087901b1681526111379493929190899060040161188e565b600060405180830381600087803b15801561115157600080fd5b505af1158015611165573d6000803e3d6000fd5b5050600554604051632ce4e29b60e21b81526001600160a01b03909116925063b3938a6c915061119b90879087906004016118a9565b600060405180830381600087803b1580156111b557600080fd5b505af11580156111c9573d6000803e3d6000fd5b5050505050505050565b6001546001600160a01b0316331490565b80356111ef81611a84565b92915050565b80516111ef81611a9b565b80356111ef81611aa4565b80516111ef81611aad565b80516111ef81611aba565b600082601f83011261123257600080fd5b8135611245611240826119d9565b6119b3565b9150808252602083016020830185838301111561126157600080fd5b61126c838284611a42565b50505092915050565b80356111ef81611aba565b60006020828403121561129257600080fd5b600061129e84846111e4565b949350505050565b600080600080608085870312156112bc57600080fd5b60006112c887876111e4565b94505060206112d9878288016111e4565b93505060406112ea87828801611275565b92505060608501356001600160401b0381111561130657600080fd5b61131287828801611221565b91505092959194509250565b60008060006060848603121561133357600080fd5b600061133f86866111e4565b935050602061135086828701611275565b92505060408401356001600160401b0381111561136c57600080fd5b61137886828701611221565b9150509250925092565b60006020828403121561139457600080fd5b600061129e84846111f5565b6000602082840312156113b257600080fd5b600061129e8484611200565b6000602082840312156113d057600080fd5b600061129e848461120b565b6000602082840312156113ee57600080fd5b600061129e8484611216565b61140381611a37565b82525050565b61140381611a0d565b61140381611a18565b61140381611a1d565b61140381611a28565b600061143882611a00565b6114428185611a04565b9350611452818560208601611a4e565b61145b81611a7a565b9093019392505050565b6000611472602b83611a04565b7f44617461206e6f7420617661696c61626c65205b4e756c6c536574746c656d6581526a6e742e736f6c3a3135395d60a81b602082015260400192915050565b60006114bf603383611a04565b7f50726f706f73616c20666f756e64206e6f742065787069726564205b4e756c6c815272536574746c656d656e742e736f6c3a3134395d60681b602082015260400192915050565b6000611514602a83611a04565b7f4e6f2070726f706f73616c20666f756e64205b4e756c6c536574746c656d656e815269742e736f6c3a3134335d60b01b602082015260400192915050565b6000611560605383611a04565b7f4e6f6e6365206465656d656420736d616c6c6572207468616e206d6178206e6f81527f6e63652062792077616c6c657420616e642063757272656e6379205b4e756c6c602082015272536574746c656d656e742e736f6c3a3136365d60681b604082015260600192915050565b60006115db603283611a04565b7f50726f706f73616c20666f756e64207465726d696e61746564205b4e756c6c538152716574746c656d656e742e736f6c3a3134365d60701b602082015260400192915050565b600061162f604e83611a04565b7f4f7665726c617070696e6720647269697020736574746c656d656e742063686181527f6c6c656e67652070726f706f73616c20666f756e64205b4e756c6c536574746c60208201526d656d656e742e736f6c3a3133365d60901b604082015260600192915050565b60006116a5603483611a04565b7f4e6f74206e6f726d616c206f7065726174696f6e616c206d6f6465205b4e756c8152736c536574746c656d656e742e736f6c3a3135385d60601b602082015260400192915050565b60006116fb602f83611a04565b7f436f6d6d756e69747920766f74652066726f7a656e205b436f6d6d756e69747981526e566f7461626c652e736f6c3a34315d60881b602082015260400192915050565b600061174c603583611a04565b7f50726f706f73616c20666f756e64206e6f74207175616c6966696564205b4e758152746c6c536574746c656d656e742e736f6c3a3135325d60581b602082015260400192915050565b805160408301906117a78482611409565b5060208201516104506020850182611424565b602081016111ef8284611409565b602081016111ef82846113fa565b60a081016117e482886113fa565b6117f16020830187611409565b6117fe6040830186611409565b61180b6060830185611424565b818103608083015261181d818461142d565b979650505050505050565b6080810161183682876113fa565b6118436020830186611409565b6118506040830185611424565b8181036060830152611862818461142d565b9695505050505050565b6040810161187a8285611409565b6118876020830184611409565b9392505050565b60a0810161189c8288611409565b6117f16020830187611424565b606081016118b78285611409565b6118876020830184611796565b608081016118d28286611409565b6118df6020830185611796565b61129e6060830184611424565b602081016111ef8284611412565b602081016111ef828461141b565b60408101611916828561141b565b611887602083018461141b565b602080825281016111ef81611465565b602080825281016111ef816114b2565b602080825281016111ef81611507565b602080825281016111ef81611553565b602080825281016111ef816115ce565b602080825281016111ef81611622565b602080825281016111ef81611698565b602080825281016111ef816116ee565b602080825281016111ef8161173f565b6040518181016001600160401b03811182821017156119d157600080fd5b604052919050565b60006001600160401b038211156119ef57600080fd5b506020601f91909101601f19160190565b5190565b90815260200190565b60006111ef82611a2b565b151590565b60006111ef82611a0d565b90565b6001600160a01b031690565b60006111ef82611a1d565b82818337506000910152565b60005b83811015611a69578181015183820152602001611a51565b838111156104505750506000910152565b601f01601f191690565b611a8d81611a0d565b8114611a9857600080fd5b50565b611a8d81611a18565b611a8d81611a1d565b60028110611a9857600080fd5b611a8d81611a2856fea365627a7a72315820d023194c17e68b213ec51b92ef068fba3120172bcbbe78e2378dc7bd544763556c6578706572696d656e74616cf564736f6c634300050c0040",
  "source": "/*\n * Hubii Nahmii\n *\n * Compliant with the Hubii Nahmii specification v0.12.\n *\n * Copyright (C) 2017-2018 Hubii AS\n */\n\npragma solidity >=0.4.25 <0.6.0;\npragma experimental ABIEncoderV2;\n\nimport {Ownable} from \"./Ownable.sol\";\nimport {Configurable} from \"./Configurable.sol\";\nimport {ClientFundable} from \"./ClientFundable.sol\";\nimport {CommunityVotable} from \"./CommunityVotable.sol\";\nimport {RevenueFund} from \"./RevenueFund.sol\";\nimport {NullSettlementChallengeState} from \"./NullSettlementChallengeState.sol\";\nimport {NullSettlementState} from \"./NullSettlementState.sol\";\nimport {DriipSettlementChallengeState} from \"./DriipSettlementChallengeState.sol\";\nimport {Beneficiary} from \"./Beneficiary.sol\";\nimport {SafeMathIntLib} from \"./SafeMathIntLib.sol\";\nimport {SafeMathUintLib} from \"./SafeMathUintLib.sol\";\nimport {MonetaryTypesLib} from \"./MonetaryTypesLib.sol\";\nimport {SettlementChallengeTypesLib} from \"./SettlementChallengeTypesLib.sol\";\n\n/**\n * @title NullSettlement\n * @notice Where null settlement are finalized\n */\ncontract NullSettlement is Ownable, Configurable, ClientFundable, CommunityVotable {\n    using SafeMathIntLib for int256;\n    using SafeMathUintLib for uint256;\n\n    //\n    // Variables\n    // -----------------------------------------------------------------------------------------------------------------\n    NullSettlementChallengeState public nullSettlementChallengeState;\n    NullSettlementState public nullSettlementState;\n    DriipSettlementChallengeState public driipSettlementChallengeState;\n\n    //\n    // Events\n    // -----------------------------------------------------------------------------------------------------------------\n    event SetNullSettlementChallengeStateEvent(NullSettlementChallengeState oldNullSettlementChallengeState,\n        NullSettlementChallengeState newNullSettlementChallengeState);\n    event SetNullSettlementStateEvent(NullSettlementState oldNullSettlementState,\n        NullSettlementState newNullSettlementState);\n    event SetDriipSettlementChallengeStateEvent(DriipSettlementChallengeState oldDriipSettlementChallengeState,\n        DriipSettlementChallengeState newDriipSettlementChallengeState);\n    event SettleNullEvent(address wallet, address currencyCt, uint256 currencyId, string standard);\n    event SettleNullByProxyEvent(address proxy, address wallet, address currencyCt,\n        uint256 currencyId, string standard);\n\n    //\n    // Constructor\n    // -----------------------------------------------------------------------------------------------------------------\n    constructor(address deployer) Ownable(deployer) public {\n    }\n\n    //\n    // Functions\n    // -----------------------------------------------------------------------------------------------------------------\n    /// @notice Set the null settlement challenge state contract\n    /// @param newNullSettlementChallengeState The (address of) NullSettlementChallengeState contract instance\n    function setNullSettlementChallengeState(NullSettlementChallengeState newNullSettlementChallengeState)\n    public\n    onlyDeployer\n    notNullAddress(address(newNullSettlementChallengeState))\n    {\n        NullSettlementChallengeState oldNullSettlementChallengeState = nullSettlementChallengeState;\n        nullSettlementChallengeState = newNullSettlementChallengeState;\n        emit SetNullSettlementChallengeStateEvent(oldNullSettlementChallengeState, nullSettlementChallengeState);\n    }\n\n    /// @notice Set the null settlement state contract\n    /// @param newNullSettlementState The (address of) NullSettlementState contract instance\n    function setNullSettlementState(NullSettlementState newNullSettlementState)\n    public\n    onlyDeployer\n    notNullAddress(address(newNullSettlementState))\n    {\n        NullSettlementState oldNullSettlementState = nullSettlementState;\n        nullSettlementState = newNullSettlementState;\n        emit SetNullSettlementStateEvent(oldNullSettlementState, nullSettlementState);\n    }\n\n    /// @notice Set the driip settlement challenge state contract\n    /// @param newDriipSettlementChallengeState The (address of) DriipSettlementChallengeState contract instance\n    function setDriipSettlementChallengeState(DriipSettlementChallengeState newDriipSettlementChallengeState)\n    public\n    onlyDeployer\n    notNullAddress(address(newDriipSettlementChallengeState))\n    {\n        DriipSettlementChallengeState oldDriipSettlementChallengeState = driipSettlementChallengeState;\n        driipSettlementChallengeState = newDriipSettlementChallengeState;\n        emit SetDriipSettlementChallengeStateEvent(oldDriipSettlementChallengeState, driipSettlementChallengeState);\n    }\n\n    /// @notice Settle null\n    /// @param currencyCt The address of the concerned currency contract (address(0) == ETH)\n    /// @param currencyId The ID of the concerned currency (0 for ETH and ERC20)\n    /// @param standard The standard of the token to be settled (discarded if settling ETH)\n    function settleNull(address currencyCt, uint256 currencyId, string memory standard)\n    public\n    {\n        // Settle null\n        _settleNull(msg.sender, MonetaryTypesLib.Currency(currencyCt, currencyId), standard);\n\n        // Emit event\n        emit SettleNullEvent(msg.sender, currencyCt, currencyId, standard);\n    }\n\n    /// @notice Settle null by proxy\n    /// @param wallet The address of the concerned wallet\n    /// @param currencyCt The address of the concerned currency contract (address(0) == ETH)\n    /// @param currencyId The ID of the concerned currency (0 for ETH and ERC20)\n    /// @param standard The standard of the token to be settled (discarded if settling ETH)\n    function settleNullByProxy(address wallet, address currencyCt, uint256 currencyId, string memory standard)\n    public\n    onlyOperator\n    {\n        // Settle null of wallet\n        _settleNull(wallet, MonetaryTypesLib.Currency(currencyCt, currencyId), standard);\n\n        // Emit event\n        emit SettleNullByProxyEvent(msg.sender, wallet, currencyCt, currencyId, standard);\n    }\n\n    //\n    // Private functions\n    // -----------------------------------------------------------------------------------------------------------------\n    function _settleNull(address wallet, MonetaryTypesLib.Currency memory currency, string memory standard)\n    private\n    {\n        // Require that there is no overlapping driip settlement challenge\n        require(\n            !driipSettlementChallengeState.hasProposal(wallet, currency) ||\n        driipSettlementChallengeState.hasProposalTerminated(wallet, currency),\n            \"Overlapping driip settlement challenge proposal found [NullSettlement.sol:136]\"\n        );\n\n        // Require that null settlement challenge proposal has been initiated\n        require(nullSettlementChallengeState.hasProposal(wallet, currency), \"No proposal found [NullSettlement.sol:143]\");\n\n        // Require that null settlement challenge proposal has not been terminated already\n        require(!nullSettlementChallengeState.hasProposalTerminated(wallet, currency), \"Proposal found terminated [NullSettlement.sol:146]\");\n\n        // Require that null settlement challenge proposal has expired\n        require(nullSettlementChallengeState.hasProposalExpired(wallet, currency), \"Proposal found not expired [NullSettlement.sol:149]\");\n\n        // Require that null settlement challenge qualified\n        require(SettlementChallengeTypesLib.Status.Qualified == nullSettlementChallengeState.proposalStatus(\n            wallet, currency\n        ), \"Proposal found not qualified [NullSettlement.sol:152]\");\n\n        // Require that operational mode is normal and data is available, or that nonce is\n        // smaller than max null nonce\n        require(configuration.isOperationalModeNormal(), \"Not normal operational mode [NullSettlement.sol:158]\");\n        require(communityVote.isDataAvailable(), \"Data not available [NullSettlement.sol:159]\");\n\n        // Get null settlement challenge proposal nonce\n        uint256 nonce = nullSettlementChallengeState.proposalNonce(wallet, currency);\n\n        // If wallet has previously settled balance of the concerned currency with higher\n        // null settlement nonce, then don't settle again\n        require(nonce >= nullSettlementState.maxNonceByWalletAndCurrency(wallet, currency), \"Nonce deemed smaller than max nonce by wallet and currency [NullSettlement.sol:166]\");\n\n        // Update settled nonce of wallet and currency\n        nullSettlementState.setMaxNonceByWalletAndCurrency(wallet, currency, nonce);\n\n        // Stage the proposed amount\n        clientFund.stage(\n            wallet,\n            nullSettlementChallengeState.proposalStageAmount(\n                wallet, currency\n            ),\n            currency.ct, currency.id, standard\n        );\n\n        // Remove null settlement challenge proposal\n        nullSettlementChallengeState.terminateProposal(wallet, currency);\n    }\n}",
  "sourcePath": "/opt/buildagent/work/855e104608380c36/contracts/NullSettlement.sol",
  "compiler": {
    "name": "solc",
    "version": "0.5.12+commit.7709ece9.Emscripten.clang"
  },
  "schemaVersion": "2.0.3",
  "updatedAt": "2019-10-23T00:21:41.027Z"
}