{
  "contractName": "NullSettlement",
  "abi": [
    {
      "constant": false,
      "inputs": [],
      "name": "triggerSelfDestruction",
      "outputs": [],
      "payable": false,
      "stateMutability": "nonpayable",
      "type": "function"
    },
    {
      "constant": true,
      "inputs": [],
      "name": "selfDestructionDisabled",
      "outputs": [
        {
          "name": "",
          "type": "bool"
        }
      ],
      "payable": false,
      "stateMutability": "view",
      "type": "function"
    },
    {
      "constant": true,
      "inputs": [],
      "name": "destructor",
      "outputs": [
        {
          "name": "",
          "type": "address"
        }
      ],
      "payable": false,
      "stateMutability": "view",
      "type": "function"
    },
    {
      "constant": true,
      "inputs": [],
      "name": "driipSettlementChallengeState",
      "outputs": [
        {
          "name": "",
          "type": "address"
        }
      ],
      "payable": false,
      "stateMutability": "view",
      "type": "function"
    },
    {
      "constant": true,
      "inputs": [],
      "name": "operator",
      "outputs": [
        {
          "name": "",
          "type": "address"
        }
      ],
      "payable": false,
      "stateMutability": "view",
      "type": "function"
    },
    {
      "constant": false,
      "inputs": [
        {
          "name": "newConfiguration",
          "type": "address"
        }
      ],
      "name": "setConfiguration",
      "outputs": [],
      "payable": false,
      "stateMutability": "nonpayable",
      "type": "function"
    },
    {
      "constant": false,
      "inputs": [],
      "name": "freezeCommunityVote",
      "outputs": [],
      "payable": false,
      "stateMutability": "nonpayable",
      "type": "function"
    },
    {
      "constant": true,
      "inputs": [],
      "name": "configuration",
      "outputs": [
        {
          "name": "",
          "type": "address"
        }
      ],
      "payable": false,
      "stateMutability": "view",
      "type": "function"
    },
    {
      "constant": false,
      "inputs": [],
      "name": "disableSelfDestruction",
      "outputs": [],
      "payable": false,
      "stateMutability": "nonpayable",
      "type": "function"
    },
    {
      "constant": true,
      "inputs": [],
      "name": "nullSettlementState",
      "outputs": [
        {
          "name": "",
          "type": "address"
        }
      ],
      "payable": false,
      "stateMutability": "view",
      "type": "function"
    },
    {
      "constant": true,
      "inputs": [],
      "name": "communityVoteFrozen",
      "outputs": [
        {
          "name": "",
          "type": "bool"
        }
      ],
      "payable": false,
      "stateMutability": "view",
      "type": "function"
    },
    {
      "constant": false,
      "inputs": [
        {
          "name": "newDeployer",
          "type": "address"
        }
      ],
      "name": "setDeployer",
      "outputs": [],
      "payable": false,
      "stateMutability": "nonpayable",
      "type": "function"
    },
    {
      "constant": false,
      "inputs": [
        {
          "name": "newOperator",
          "type": "address"
        }
      ],
      "name": "setOperator",
      "outputs": [],
      "payable": false,
      "stateMutability": "nonpayable",
      "type": "function"
    },
    {
      "constant": false,
      "inputs": [
        {
          "name": "newClientFund",
          "type": "address"
        }
      ],
      "name": "setClientFund",
      "outputs": [],
      "payable": false,
      "stateMutability": "nonpayable",
      "type": "function"
    },
    {
      "constant": true,
      "inputs": [],
      "name": "communityVote",
      "outputs": [
        {
          "name": "",
          "type": "address"
        }
      ],
      "payable": false,
      "stateMutability": "view",
      "type": "function"
    },
    {
      "constant": true,
      "inputs": [],
      "name": "deployer",
      "outputs": [
        {
          "name": "",
          "type": "address"
        }
      ],
      "payable": false,
      "stateMutability": "view",
      "type": "function"
    },
    {
      "constant": true,
      "inputs": [],
      "name": "clientFund",
      "outputs": [
        {
          "name": "",
          "type": "address"
        }
      ],
      "payable": false,
      "stateMutability": "view",
      "type": "function"
    },
    {
      "constant": false,
      "inputs": [
        {
          "name": "newCommunityVote",
          "type": "address"
        }
      ],
      "name": "setCommunityVote",
      "outputs": [],
      "payable": false,
      "stateMutability": "nonpayable",
      "type": "function"
    },
    {
      "constant": true,
      "inputs": [],
      "name": "nullSettlementChallengeState",
      "outputs": [
        {
          "name": "",
          "type": "address"
        }
      ],
      "payable": false,
      "stateMutability": "view",
      "type": "function"
    },
    {
      "inputs": [
        {
          "name": "deployer",
          "type": "address"
        }
      ],
      "payable": false,
      "stateMutability": "nonpayable",
      "type": "constructor"
    },
    {
      "anonymous": false,
      "inputs": [
        {
          "indexed": false,
          "name": "oldNullSettlementChallengeState",
          "type": "address"
        },
        {
          "indexed": false,
          "name": "newNullSettlementChallengeState",
          "type": "address"
        }
      ],
      "name": "SetNullSettlementChallengeStateEvent",
      "type": "event"
    },
    {
      "anonymous": false,
      "inputs": [
        {
          "indexed": false,
          "name": "oldNullSettlementState",
          "type": "address"
        },
        {
          "indexed": false,
          "name": "newNullSettlementState",
          "type": "address"
        }
      ],
      "name": "SetNullSettlementStateEvent",
      "type": "event"
    },
    {
      "anonymous": false,
      "inputs": [
        {
          "indexed": false,
          "name": "oldDriipSettlementChallengeState",
          "type": "address"
        },
        {
          "indexed": false,
          "name": "newDriipSettlementChallengeState",
          "type": "address"
        }
      ],
      "name": "SetDriipSettlementChallengeStateEvent",
      "type": "event"
    },
    {
      "anonymous": false,
      "inputs": [
        {
          "indexed": false,
          "name": "wallet",
          "type": "address"
        },
        {
          "indexed": false,
          "name": "currencyCt",
          "type": "address"
        },
        {
          "indexed": false,
          "name": "currencyId",
          "type": "uint256"
        }
      ],
      "name": "SettleNullEvent",
      "type": "event"
    },
    {
      "anonymous": false,
      "inputs": [
        {
          "indexed": false,
          "name": "proxy",
          "type": "address"
        },
        {
          "indexed": false,
          "name": "wallet",
          "type": "address"
        },
        {
          "indexed": false,
          "name": "currencyCt",
          "type": "address"
        },
        {
          "indexed": false,
          "name": "currencyId",
          "type": "uint256"
        }
      ],
      "name": "SettleNullByProxyEvent",
      "type": "event"
    },
    {
      "anonymous": false,
      "inputs": [
        {
          "indexed": false,
          "name": "oldCommunityVote",
          "type": "address"
        },
        {
          "indexed": false,
          "name": "newCommunityVote",
          "type": "address"
        }
      ],
      "name": "SetCommunityVoteEvent",
      "type": "event"
    },
    {
      "anonymous": false,
      "inputs": [],
      "name": "FreezeCommunityVoteEvent",
      "type": "event"
    },
    {
      "anonymous": false,
      "inputs": [
        {
          "indexed": false,
          "name": "oldClientFund",
          "type": "address"
        },
        {
          "indexed": false,
          "name": "newClientFund",
          "type": "address"
        }
      ],
      "name": "SetClientFundEvent",
      "type": "event"
    },
    {
      "anonymous": false,
      "inputs": [
        {
          "indexed": false,
          "name": "oldConfiguration",
          "type": "address"
        },
        {
          "indexed": false,
          "name": "newConfiguration",
          "type": "address"
        }
      ],
      "name": "SetConfigurationEvent",
      "type": "event"
    },
    {
      "anonymous": false,
      "inputs": [
        {
          "indexed": false,
          "name": "oldDeployer",
          "type": "address"
        },
        {
          "indexed": false,
          "name": "newDeployer",
          "type": "address"
        }
      ],
      "name": "SetDeployerEvent",
      "type": "event"
    },
    {
      "anonymous": false,
      "inputs": [
        {
          "indexed": false,
          "name": "oldOperator",
          "type": "address"
        },
        {
          "indexed": false,
          "name": "newOperator",
          "type": "address"
        }
      ],
      "name": "SetOperatorEvent",
      "type": "event"
    },
    {
      "anonymous": false,
      "inputs": [
        {
          "indexed": false,
          "name": "wallet",
          "type": "address"
        }
      ],
      "name": "SelfDestructionDisabledEvent",
      "type": "event"
    },
    {
      "anonymous": false,
      "inputs": [
        {
          "indexed": false,
          "name": "wallet",
          "type": "address"
        }
      ],
      "name": "TriggerSelfDestructionEvent",
      "type": "event"
    },
    {
      "constant": false,
      "inputs": [
        {
          "name": "newNullSettlementChallengeState",
          "type": "address"
        }
      ],
      "name": "setNullSettlementChallengeState",
      "outputs": [],
      "payable": false,
      "stateMutability": "nonpayable",
      "type": "function"
    },
    {
      "constant": false,
      "inputs": [
        {
          "name": "newNullSettlementState",
          "type": "address"
        }
      ],
      "name": "setNullSettlementState",
      "outputs": [],
      "payable": false,
      "stateMutability": "nonpayable",
      "type": "function"
    },
    {
      "constant": false,
      "inputs": [
        {
          "name": "newDriipSettlementChallengeState",
          "type": "address"
        }
      ],
      "name": "setDriipSettlementChallengeState",
      "outputs": [],
      "payable": false,
      "stateMutability": "nonpayable",
      "type": "function"
    },
    {
      "constant": false,
      "inputs": [
        {
          "name": "currencyCt",
          "type": "address"
        },
        {
          "name": "currencyId",
          "type": "uint256"
        }
      ],
      "name": "settleNull",
      "outputs": [],
      "payable": false,
      "stateMutability": "nonpayable",
      "type": "function"
    },
    {
      "constant": false,
      "inputs": [
        {
          "name": "wallet",
          "type": "address"
        },
        {
          "name": "currencyCt",
          "type": "address"
        },
        {
          "name": "currencyId",
          "type": "uint256"
        }
      ],
      "name": "settleNullByProxy",
      "outputs": [],
      "payable": false,
      "stateMutability": "nonpayable",
      "type": "function"
    }
  ],
  "bytecode": "0x60806040523480156200001157600080fd5b50604051602080620017628339810180604052620000339190810190620000b6565b8080600160a060020a03811615156200004b57600080fd5b600160a060020a0381163014156200006257600080fd5b506000805461010060a860020a031916610100600160a060020a039390931692830217905560018054600160a060020a031916909117905550620000eb565b6000620000af8251620000df565b9392505050565b600060208284031215620000c957600080fd5b6000620000d78484620000a1565b949350505050565b600160a060020a031690565b61166780620000fb6000396000f3006080604052600436106101245763ffffffff60e060020a6000350416632738a11281146101295780632aa1c9d9146101405780632f013a00146101605780634476d23b1461018b57806351d7cd61146101ad578063570ca735146101cf578063627f09c3146101e4578063670732a7146102045780636c70bee9146102195780636ccb43c81461022e57806370327ea11461024e57806379bf6b36146102635780638e9d6cbd14610278578063962147351461028d578063b3ab15fb146102ad578063b71ded2f146102cd578063bf24e7d0146102ed578063c0ed469a14610302578063cb672aaf14610322578063d5f3948814610342578063da5a3b7014610357578063e754476f14610377578063e86ab8f61461038c578063fa7424f2146103ac575b600080fd5b34801561013557600080fd5b5061013e6103c1565b005b34801561014c57600080fd5b5061013e61015b3660046113d6565b610427565b34801561016c57600080fd5b506101756104b8565b60405161018291906115b6565b60405180910390f35b34801561019757600080fd5b506101a06104c1565b604051610182919061148e565b3480156101b957600080fd5b506101c26104d5565b60405161018291906115c4565b3480156101db57600080fd5b506101a06104e4565b3480156101f057600080fd5b5061013e6101ff3660046113d6565b6104f3565b34801561021057600080fd5b5061013e61059b565b34801561022557600080fd5b506101c26105ef565b34801561023a57600080fd5b5061013e6102493660046113d6565b6105fe565b34801561025a57600080fd5b5061013e610682565b34801561026f57600080fd5b506101c26106e5565b34801561028457600080fd5b506101756106f4565b34801561029957600080fd5b5061013e6102a836600461130b565b610704565b3480156102b957600080fd5b5061013e6102c836600461130b565b6107c2565b3480156102d957600080fd5b5061013e6102e83660046113d6565b61086c565b3480156102f957600080fd5b506101c2610904565b34801561030e57600080fd5b5061013e61031d36600461137e565b610913565b34801561032e57600080fd5b5061013e61033d366004611331565b610979565b34801561034e57600080fd5b506101a06109e8565b34801561036357600080fd5b5061013e6103723660046113d6565b6109fc565b34801561038357600080fd5b506101c2610a80565b34801561039857600080fd5b5061013e6103a73660046113d6565b610a8f565b3480156103b857600080fd5b506101c2610b3e565b336103ca6104c1565b600160a060020a0316146103dd57600080fd5b60005460ff16156103ed57600080fd5b7f787a5d936e74f4b564b9153575886059829c78cd9927b1be5e0d976b317ef7363360405161041c919061148e565b60405180910390a133ff5b6000610431610b4d565b151561043c57600080fd5b81600160a060020a038116151561045257600080fd5b60078054600160a060020a03858116600160a060020a03198316179283905560405191811694507f4f7125332801996cdeaabf9cff1ac89ddf4b52c673558936affe853ab64a88da926104ab92869291909116906115d2565b60405180910390a1505050565b60005460ff1681565b6000546101009004600160a060020a031690565b600754600160a060020a031681565b600154600160a060020a031681565b60006104fd610b4d565b151561050857600080fd5b81600160a060020a038116151561051e57600080fd5b6002548390600160a060020a0390811690821681146105945760028054600160a060020a03878116600160a060020a0319831617909255604051911694507f634f61bf00e14adedce330c80c2823e16e184f189ebe853e1ddecc4a268477ff9061058b90869088906115d2565b60405180910390a15b5050505050565b6105a3610b4d565b15156105ae57600080fd5b6004805460a060020a60ff02191660a060020a1790556040517fc1668d45f18667fb6eadfbcacfd5cdcc7dd4ecdfc9b0ab8786cfdbad86bb83d890600090a1565b600254600160a060020a031681565b6000610608610b4d565b151561061357600080fd5b81600160a060020a038116151561062957600080fd5b60058054600160a060020a03858116600160a060020a03198316179283905560405191811694507ff21c127205310467822e10c64b2d9ffae588e019194d6af71f2bdddc0b7ef526926104ab92869291909116906115d2565b3361068b6104c1565b600160a060020a03161461069e57600080fd5b6000805460ff191660011790556040517fd5a2a04a775c741c2ca0dc46ea7ce4835190e1aaf1ca018def0e82568ec33616906106db90339061148e565b60405180910390a1565b600654600160a060020a031681565b60045460a060020a900460ff1681565b600061070e610b4d565b151561071957600080fd5b81600160a060020a038116151561072f57600080fd5b600160a060020a03811630141561074557600080fd5b600054600160a060020a0384811661010090920416146107bd5760008054600160a060020a0385811661010090810261010060a860020a0319841617909355604051929091041692507f977e5fa58e458501775e0008d275006294c5249e3c08d1d0e3a9f3acad14f6e4906104ab90849086906114a2565b505050565b60006107cc610b63565b15156107d757600080fd5b81600160a060020a03811615156107ed57600080fd5b600160a060020a03811630141561080357600080fd5b600154600160a060020a038481169116146107bd5760018054600160a060020a03858116600160a060020a0319831617909255604051911692507f9f611b789425d0d5b90b920f1b2852907dd865c80074a30b1629aaa041d1812c906104ab90849086906114a2565b6000610876610b4d565b151561088157600080fd5b81600160a060020a038116151561089757600080fd5b6003548390600160a060020a0390811690821681146105945760038054600160a060020a03878116600160a060020a0319831617909255604051911694507f4d96d2a04c886b313bd1e28be6324ed4c8867b3203e512756722f8be0195e16d9061058b90869088906115d2565b600454600160a060020a031681565b61093a33604080519081016040528085600160a060020a0316815260200184815250610b74565b7f6574166dc846aecab63a391ea731ee7c38e8135ea68ac3ae30841da74a85615b33838360405161096d939291906114fb565b60405180910390a15050565b610981610b63565b151561098c57600080fd5b6109b383604080519081016040528085600160a060020a0316815260200184815250610b74565b7f47db2eb1eec2571e1eca0e41d75ddc29f72e4860f69e8b63ecbb73e70faf309a338484846040516104ab94939291906114bd565b6000546101009004600160a060020a031681565b6000610a06610b4d565b1515610a1157600080fd5b81600160a060020a0381161515610a2757600080fd5b60068054600160a060020a03858116600160a060020a03198316179283905560405191811694507f7983934b0c7a4c64fbf3454ed2053b3bc71c8fd637308a7d2ee8eb51cbc68e35926104ab92869291909116906115d2565b600354600160a060020a031681565b6000610a99610b4d565b1515610aa457600080fd5b81600160a060020a0381161515610aba57600080fd5b6004548390600160a060020a0390811690821681146105945760045460a060020a900460ff1615610aea57600080fd5b60048054600160a060020a03878116600160a060020a0319831617909255604051911694507f624c4d4225a45f5bf8a9755adba1ef9be3464a9970b05a371fb6cca0c0caf2049061058b90869088906115d2565b600554600160a060020a031681565b6000546101009004600160a060020a0316331490565b600154600160a060020a0316331490565b60075460405160e360020a63076470a5028152600091600160a060020a031690633b23852890610baa9086908690600401611573565b602060405180830381600087803b158015610bc457600080fd5b505af1158015610bd8573d6000803e3d6000fd5b505050506040513d601f19601f82011682018060405250610bfc91908101906113b8565b15610c0657600080fd5b60055460405160e060020a635482c735028152600160a060020a0390911690635482c73590610c3b9086908690600401611573565b602060405180830381600087803b158015610c5557600080fd5b505af1158015610c69573d6000803e3d6000fd5b505050506040513d601f19601f82011682018060405250610c8d91908101906113b8565b1515610c9857600080fd5b60055460405160e060020a63b6e2fc33028152600160a060020a039091169063b6e2fc3390610ccd9086908690600401611573565b602060405180830381600087803b158015610ce757600080fd5b505af1158015610cfb573d6000803e3d6000fd5b505050506040513d601f19601f82011682018060405250610d1f91908101906113f4565b6001811115610d2a57fe5b15610d3457600080fd5b60055460405160e060020a632ee2ed25028152600160a060020a0390911690632ee2ed2590610d699086908690600401611573565b602060405180830381600087803b158015610d8357600080fd5b505af1158015610d97573d6000803e3d6000fd5b505050506040513d601f19601f82011682018060405250610dbb9190810190611412565b9050600260009054906101000a9004600160a060020a0316600160a060020a031663f71e860f6040518163ffffffff1660e060020a028152600401602060405180830381600087803b158015610e1057600080fd5b505af1158015610e24573d6000803e3d6000fd5b505050506040513d601f19601f82011682018060405250610e4891908101906113b8565b8015610ece5750600480546040805160e160020a634ca7103b0281529051600160a060020a039092169263994e20769282820192602092908290030181600087803b158015610e9657600080fd5b505af1158015610eaa573d6000803e3d6000fd5b505050506040513d601f19601f82011682018060405250610ece91908101906113b8565b80610f625750600660009054906101000a9004600160a060020a0316600160a060020a031663626623676040518163ffffffff1660e060020a028152600401602060405180830381600087803b158015610f2757600080fd5b505af1158015610f3b573d6000803e3d6000fd5b505050506040513d601f19601f82011682018060405250610f5f9190810190611412565b81105b1515610f6d57600080fd5b60065460405160e060020a633858654b028152600160a060020a0390911690633858654b90610fa29086908690600401611573565b602060405180830381600087803b158015610fbc57600080fd5b505af1158015610fd0573d6000803e3d6000fd5b505050506040513d601f19601f82011682018060405250610ff49190810190611412565b8111610fff57600080fd5b60065460405160e360020a6302847747028152600160a060020a0390911690631423ba38906110369086908690869060040161158e565b600060405180830381600087803b15801561105057600080fd5b505af1158015611064573d6000803e3d6000fd5b505060035460055460405160e160020a633007230f028152600160a060020a03928316945063ad468df9935087929091169063600e461e906110ac9084908990600401611573565b602060405180830381600087803b1580156110c657600080fd5b505af11580156110da573d6000803e3d6000fd5b505050506040513d601f19601f820116820180604052506110fe9190810190611412565b8551602087015160405160e060020a63ffffffff87160281526111279493929190600401611523565b600060405180830381600087803b15801561114157600080fd5b505af1158015611155573d6000803e3d6000fd5b505060055460405160e260020a6309a216d5028152600160a060020a0390911692506326885b54915061118e9086908690600401611573565b600060405180830381600087803b1580156111a857600080fd5b505af11580156111bc573d6000803e3d6000fd5b50505050600660009054906101000a9004600160a060020a0316600160a060020a031663626623676040518163ffffffff1660e060020a028152600401602060405180830381600087803b15801561121357600080fd5b505af1158015611227573d6000803e3d6000fd5b505050506040513d601f19601f8201168201806040525061124b9190810190611412565b8111156107bd5760065460405160e760020a6301e0d08d028152600160a060020a039091169063f0684680906112859084906004016115ed565b600060405180830381600087803b15801561129f57600080fd5b505af11580156112b3573d6000803e3d6000fd5b50505050505050565b60006112c882356115fb565b9392505050565b60006112c88251611607565b60006112c8823561160f565b60006112c8825161161a565b60006112c8825161160c565b60006112c8823561160c565b60006020828403121561131d57600080fd5b600061132984846112bc565b949350505050565b60008060006060848603121561134657600080fd5b600061135286866112bc565b9350506020611363868287016112bc565b9250506040611374868287016112ff565b9150509250925092565b6000806040838503121561139157600080fd5b600061139d85856112bc565b92505060206113ae858286016112ff565b9150509250929050565b6000602082840312156113ca57600080fd5b600061132984846112cf565b6000602082840312156113e857600080fd5b600061132984846112db565b60006020828403121561140657600080fd5b600061132984846112e7565b60006020828403121561142457600080fd5b600061132984846112f3565b611439816115fb565b82525050565b61143981611607565b6114398161160f565b6114398161160c565b6000815260200190565b805160408301906114758482611430565b5060208201516114886020850182611451565b50505050565b6020810161149c8284611430565b92915050565b604081016114b08285611430565b6112c86020830184611430565b608081016114cb8287611430565b6114d86020830186611430565b6114e56040830185611430565b6114f26060830184611451565b95945050505050565b606081016115098286611430565b6115166020830185611430565b6113296040830184611451565b60a081016115318287611430565b61153e6020830186611451565b61154b6040830185611430565b6115586060830184611451565b81810360808301526115698161145a565b9695505050505050565b606081016115818285611430565b6112c86020830184611464565b6080810161159c8286611430565b6115a96020830185611464565b6113296060830184611451565b6020810161149c828461143f565b6020810161149c8284611448565b604081016115e08285611448565b6112c86020830184611448565b6020810161149c8284611451565b600160a060020a031690565b151590565b90565b600061149c826115fb565b60006002821061162957600080fd5b50905600a265627a7a7230582012a8e4817202d68a152897c33e10287fcfb02ba3aab1a6411d6aa05311ae04df6c6578706572696d656e74616cf50037",
  "source": "/*\n * Hubii Nahmii\n *\n * Compliant with the Hubii Nahmii specification v0.12.\n *\n * Copyright (C) 2017-2018 Hubii AS\n */\n\npragma solidity ^0.4.25;\npragma experimental ABIEncoderV2;\n\nimport {Ownable} from \"./Ownable.sol\";\nimport {Configurable} from \"./Configurable.sol\";\nimport {ClientFundable} from \"./ClientFundable.sol\";\nimport {CommunityVotable} from \"./CommunityVotable.sol\";\nimport {RevenueFund} from \"./RevenueFund.sol\";\nimport {NullSettlementChallengeState} from \"./NullSettlementChallengeState.sol\";\nimport {NullSettlementState} from \"./NullSettlementState.sol\";\nimport {DriipSettlementChallengeState} from \"./DriipSettlementChallengeState.sol\";\nimport {Beneficiary} from \"./Beneficiary.sol\";\nimport {SafeMathIntLib} from \"./SafeMathIntLib.sol\";\nimport {SafeMathUintLib} from \"./SafeMathUintLib.sol\";\nimport {MonetaryTypesLib} from \"./MonetaryTypesLib.sol\";\nimport {SettlementChallengeTypesLib} from \"./SettlementChallengeTypesLib.sol\";\n\n/**\n * @title NullSettlement\n * @notice Where null settlement are finalized\n */\ncontract NullSettlement is Ownable, Configurable, ClientFundable, CommunityVotable {\n    using SafeMathIntLib for int256;\n    using SafeMathUintLib for uint256;\n\n    //\n    // Variables\n    // -----------------------------------------------------------------------------------------------------------------\n    NullSettlementChallengeState public nullSettlementChallengeState;\n    NullSettlementState public nullSettlementState;\n    DriipSettlementChallengeState public driipSettlementChallengeState;\n\n    //\n    // Events\n    // -----------------------------------------------------------------------------------------------------------------\n    event SetNullSettlementChallengeStateEvent(NullSettlementChallengeState oldNullSettlementChallengeState,\n        NullSettlementChallengeState newNullSettlementChallengeState);\n    event SetNullSettlementStateEvent(NullSettlementState oldNullSettlementState,\n        NullSettlementState newNullSettlementState);\n    event SetDriipSettlementChallengeStateEvent(DriipSettlementChallengeState oldDriipSettlementChallengeState,\n        DriipSettlementChallengeState newDriipSettlementChallengeState);\n    event SettleNullEvent(address wallet, address currencyCt, uint256 currencyId);\n    event SettleNullByProxyEvent(address proxy, address wallet, address currencyCt,\n        uint256 currencyId);\n\n    //\n    // Constructor\n    // -----------------------------------------------------------------------------------------------------------------\n    constructor(address deployer) Ownable(deployer) public {\n    }\n\n    //\n    // Functions\n    // -----------------------------------------------------------------------------------------------------------------\n    /// @notice Set the null settlement challenge state contract\n    /// @param newNullSettlementChallengeState The (address of) NullSettlementChallengeState contract instance\n    function setNullSettlementChallengeState(NullSettlementChallengeState newNullSettlementChallengeState)\n    public\n    onlyDeployer\n    notNullAddress(newNullSettlementChallengeState)\n    {\n        NullSettlementChallengeState oldNullSettlementChallengeState = nullSettlementChallengeState;\n        nullSettlementChallengeState = newNullSettlementChallengeState;\n        emit SetNullSettlementChallengeStateEvent(oldNullSettlementChallengeState, nullSettlementChallengeState);\n    }\n\n    /// @notice Set the null settlement state contract\n    /// @param newNullSettlementState The (address of) NullSettlementState contract instance\n    function setNullSettlementState(NullSettlementState newNullSettlementState)\n    public\n    onlyDeployer\n    notNullAddress(newNullSettlementState)\n    {\n        NullSettlementState oldNullSettlementState = nullSettlementState;\n        nullSettlementState = newNullSettlementState;\n        emit SetNullSettlementStateEvent(oldNullSettlementState, nullSettlementState);\n    }\n\n    /// @notice Set the driip settlement challenge state contract\n    /// @param newDriipSettlementChallengeState The (address of) DriipSettlementChallengeState contract instance\n    function setDriipSettlementChallengeState(DriipSettlementChallengeState newDriipSettlementChallengeState)\n    public\n    onlyDeployer\n    notNullAddress(newDriipSettlementChallengeState)\n    {\n        DriipSettlementChallengeState oldDriipSettlementChallengeState = driipSettlementChallengeState;\n        driipSettlementChallengeState = newDriipSettlementChallengeState;\n        emit SetDriipSettlementChallengeStateEvent(oldDriipSettlementChallengeState, driipSettlementChallengeState);\n    }\n\n    /// @notice Settle null\n    /// @param currencyCt The address of the concerned currency contract (address(0) == ETH)\n    /// @param currencyId The ID of the concerned currency (0 for ETH and ERC20)\n    function settleNull(address currencyCt, uint256 currencyId)\n    public\n    {\n        // Settle null\n        _settleNull(msg.sender, MonetaryTypesLib.Currency(currencyCt, currencyId));\n\n        // Emit event\n        emit SettleNullEvent(msg.sender, currencyCt, currencyId);\n    }\n\n    /// @notice Settle null by proxy\n    /// @param wallet The address of the concerned wallet\n    /// @param currencyCt The address of the concerned currency contract (address(0) == ETH)\n    /// @param currencyId The ID of the concerned currency (0 for ETH and ERC20)\n    function settleNullByProxy(address wallet, address currencyCt, uint256 currencyId)\n    public\n    onlyOperator\n    {\n        // Settle null of wallet\n        _settleNull(wallet, MonetaryTypesLib.Currency(currencyCt, currencyId));\n\n        // Emit event\n        emit SettleNullByProxyEvent(msg.sender, wallet, currencyCt, currencyId);\n    }\n\n    //\n    // Private functions\n    // -----------------------------------------------------------------------------------------------------------------\n    function _settleNull(address wallet, MonetaryTypesLib.Currency currency)\n    private\n    {\n        // Require that there is no overlapping driip settlement challenge\n        require(!driipSettlementChallengeState.hasProposal(wallet, currency));\n\n        // Require that null settlement challenge proposal has expired\n        require(nullSettlementChallengeState.hasProposalExpired(wallet, currency));\n\n        // Require that null settlement challenge qualified\n        require(SettlementChallengeTypesLib.Status.Qualified == nullSettlementChallengeState.proposalStatus(\n            wallet, currency\n        ));\n\n        // Get null settlement challenge proposal nonce\n        uint256 nonce = nullSettlementChallengeState.proposalNonce(wallet, currency);\n\n        // Require that operational mode is normal and data is available, or that nonce is\n        // smaller than max null nonce\n        require((configuration.isOperationalModeNormal() && communityVote.isDataAvailable())\n            || (nonce < nullSettlementState.maxNullNonce()));\n\n        // If wallet has previously settled balance of the concerned currency with higher\n        // null settlement nonce, then don't settle again\n        require(nonce > nullSettlementState.maxNonceByWalletAndCurrency(wallet, currency));\n\n        // Update settled nonce of wallet and currency\n        nullSettlementState.setMaxNonceByWalletAndCurrency(wallet, currency, nonce);\n\n        // Stage the proposed amount\n        clientFund.stage(\n            wallet,\n            nullSettlementChallengeState.proposalStageAmount(\n                wallet, currency\n            ),\n            currency.ct, currency.id, \"\"\n        );\n\n        // Remove null settlement challenge proposal\n        nullSettlementChallengeState.removeProposal(wallet, currency);\n\n        // If payment nonce is beyond max null settlement nonce then update max null nonce\n        if (nonce > nullSettlementState.maxNullNonce())\n            nullSettlementState.setMaxNullNonce(nonce);\n    }\n}",
  "sourcePath": "/opt/buildagent/work/855e104608380c36/contracts/NullSettlement.sol",
  "compiler": {
    "name": "solc",
    "version": "0.4.25+commit.59dbf8f1.Emscripten.clang"
  },
  "schemaVersion": "2.0.2",
  "updatedAt": "2019-04-02T08:24:32.085Z"
}