{
  "contractName": "NullSettlementDisputeByOrder",
  "abi": [
    {
      "inputs": [
        {
          "internalType": "address",
          "name": "deployer",
          "type": "address"
        }
      ],
      "payable": false,
      "stateMutability": "nonpayable",
      "type": "constructor"
    },
    {
      "anonymous": false,
      "inputs": [
        {
          "indexed": false,
          "internalType": "uint256",
          "name": "nonce",
          "type": "uint256"
        },
        {
          "components": [
            {
              "internalType": "uint256",
              "name": "nonce",
              "type": "uint256"
            },
            {
              "internalType": "address",
              "name": "wallet",
              "type": "address"
            },
            {
              "components": [
                {
                  "internalType": "enum TradeTypesLib.Intention",
                  "name": "intention",
                  "type": "uint8"
                },
                {
                  "internalType": "int256",
                  "name": "amount",
                  "type": "int256"
                },
                {
                  "components": [
                    {
                      "components": [
                        {
                          "internalType": "address",
                          "name": "ct",
                          "type": "address"
                        },
                        {
                          "internalType": "uint256",
                          "name": "id",
                          "type": "uint256"
                        }
                      ],
                      "internalType": "struct MonetaryTypesLib.Currency",
                      "name": "intended",
                      "type": "tuple"
                    },
                    {
                      "components": [
                        {
                          "internalType": "address",
                          "name": "ct",
                          "type": "address"
                        },
                        {
                          "internalType": "uint256",
                          "name": "id",
                          "type": "uint256"
                        }
                      ],
                      "internalType": "struct MonetaryTypesLib.Currency",
                      "name": "conjugate",
                      "type": "tuple"
                    }
                  ],
                  "internalType": "struct NahmiiTypesLib.IntendedConjugateCurrency",
                  "name": "currencies",
                  "type": "tuple"
                },
                {
                  "internalType": "int256",
                  "name": "rate",
                  "type": "int256"
                },
                {
                  "components": [
                    {
                      "internalType": "int256",
                      "name": "current",
                      "type": "int256"
                    },
                    {
                      "internalType": "int256",
                      "name": "previous",
                      "type": "int256"
                    }
                  ],
                  "internalType": "struct NahmiiTypesLib.CurrentPreviousInt256",
                  "name": "residuals",
                  "type": "tuple"
                }
              ],
              "internalType": "struct TradeTypesLib.OrderPlacement",
              "name": "placement",
              "type": "tuple"
            },
            {
              "components": [
                {
                  "components": [
                    {
                      "internalType": "bytes32",
                      "name": "hash",
                      "type": "bytes32"
                    },
                    {
                      "components": [
                        {
                          "internalType": "bytes32",
                          "name": "r",
                          "type": "bytes32"
                        },
                        {
                          "internalType": "bytes32",
                          "name": "s",
                          "type": "bytes32"
                        },
                        {
                          "internalType": "uint8",
                          "name": "v",
                          "type": "uint8"
                        }
                      ],
                      "internalType": "struct NahmiiTypesLib.Signature",
                      "name": "signature",
                      "type": "tuple"
                    }
                  ],
                  "internalType": "struct NahmiiTypesLib.Seal",
                  "name": "wallet",
                  "type": "tuple"
                },
                {
                  "components": [
                    {
                      "internalType": "bytes32",
                      "name": "hash",
                      "type": "bytes32"
                    },
                    {
                      "components": [
                        {
                          "internalType": "bytes32",
                          "name": "r",
                          "type": "bytes32"
                        },
                        {
                          "internalType": "bytes32",
                          "name": "s",
                          "type": "bytes32"
                        },
                        {
                          "internalType": "uint8",
                          "name": "v",
                          "type": "uint8"
                        }
                      ],
                      "internalType": "struct NahmiiTypesLib.Signature",
                      "name": "signature",
                      "type": "tuple"
                    }
                  ],
                  "internalType": "struct NahmiiTypesLib.Seal",
                  "name": "operator",
                  "type": "tuple"
                }
              ],
              "internalType": "struct NahmiiTypesLib.WalletOperatorSeal",
              "name": "seals",
              "type": "tuple"
            },
            {
              "internalType": "uint256",
              "name": "blockNumber",
              "type": "uint256"
            },
            {
              "internalType": "uint256",
              "name": "operatorId",
              "type": "uint256"
            }
          ],
          "indexed": false,
          "internalType": "struct TradeTypesLib.Order",
          "name": "order",
          "type": "tuple"
        },
        {
          "indexed": false,
          "internalType": "address",
          "name": "challenger",
          "type": "address"
        }
      ],
      "name": "ChallengeByOrderEvent",
      "type": "event"
    },
    {
      "anonymous": false,
      "inputs": [
        {
          "indexed": false,
          "internalType": "address",
          "name": "service",
          "type": "address"
        }
      ],
      "name": "DeregisterServiceEvent",
      "type": "event"
    },
    {
      "anonymous": false,
      "inputs": [
        {
          "indexed": false,
          "internalType": "address",
          "name": "service",
          "type": "address"
        },
        {
          "indexed": false,
          "internalType": "string",
          "name": "action",
          "type": "string"
        }
      ],
      "name": "DisableServiceActionEvent",
      "type": "event"
    },
    {
      "anonymous": false,
      "inputs": [
        {
          "indexed": false,
          "internalType": "address",
          "name": "service",
          "type": "address"
        },
        {
          "indexed": false,
          "internalType": "string",
          "name": "action",
          "type": "string"
        }
      ],
      "name": "EnableServiceActionEvent",
      "type": "event"
    },
    {
      "anonymous": false,
      "inputs": [],
      "name": "FreezeBalanceTrackerEvent",
      "type": "event"
    },
    {
      "anonymous": false,
      "inputs": [],
      "name": "FreezeWalletLockerEvent",
      "type": "event"
    },
    {
      "anonymous": false,
      "inputs": [
        {
          "indexed": false,
          "internalType": "address",
          "name": "service",
          "type": "address"
        },
        {
          "indexed": false,
          "internalType": "uint256",
          "name": "timeout",
          "type": "uint256"
        }
      ],
      "name": "RegisterServiceDeferredEvent",
      "type": "event"
    },
    {
      "anonymous": false,
      "inputs": [
        {
          "indexed": false,
          "internalType": "address",
          "name": "service",
          "type": "address"
        }
      ],
      "name": "RegisterServiceEvent",
      "type": "event"
    },
    {
      "anonymous": false,
      "inputs": [
        {
          "indexed": false,
          "internalType": "address",
          "name": "wallet",
          "type": "address"
        }
      ],
      "name": "SelfDestructionDisabledEvent",
      "type": "event"
    },
    {
      "anonymous": false,
      "inputs": [
        {
          "indexed": false,
          "internalType": "uint256",
          "name": "timeoutInSeconds",
          "type": "uint256"
        }
      ],
      "name": "ServiceActivationTimeoutEvent",
      "type": "event"
    },
    {
      "anonymous": false,
      "inputs": [
        {
          "indexed": false,
          "internalType": "contract BalanceTracker",
          "name": "oldBalanceTracker",
          "type": "address"
        },
        {
          "indexed": false,
          "internalType": "contract BalanceTracker",
          "name": "newBalanceTracker",
          "type": "address"
        }
      ],
      "name": "SetBalanceTrackerEvent",
      "type": "event"
    },
    {
      "anonymous": false,
      "inputs": [
        {
          "indexed": false,
          "internalType": "contract CancelOrdersChallenge",
          "name": "oldCancelOrdersChallenge",
          "type": "address"
        },
        {
          "indexed": false,
          "internalType": "contract CancelOrdersChallenge",
          "name": "newCancelOrdersChallenge",
          "type": "address"
        }
      ],
      "name": "SetCancelOrdersChallengeEvent",
      "type": "event"
    },
    {
      "anonymous": false,
      "inputs": [
        {
          "indexed": false,
          "internalType": "contract Configuration",
          "name": "oldConfiguration",
          "type": "address"
        },
        {
          "indexed": false,
          "internalType": "contract Configuration",
          "name": "newConfiguration",
          "type": "address"
        }
      ],
      "name": "SetConfigurationEvent",
      "type": "event"
    },
    {
      "anonymous": false,
      "inputs": [
        {
          "indexed": false,
          "internalType": "address",
          "name": "oldDeployer",
          "type": "address"
        },
        {
          "indexed": false,
          "internalType": "address",
          "name": "newDeployer",
          "type": "address"
        }
      ],
      "name": "SetDeployerEvent",
      "type": "event"
    },
    {
      "anonymous": false,
      "inputs": [
        {
          "indexed": false,
          "internalType": "contract FraudChallenge",
          "name": "oldFraudChallenge",
          "type": "address"
        },
        {
          "indexed": false,
          "internalType": "contract FraudChallenge",
          "name": "newFraudChallenge",
          "type": "address"
        }
      ],
      "name": "SetFraudChallengeEvent",
      "type": "event"
    },
    {
      "anonymous": false,
      "inputs": [
        {
          "indexed": false,
          "internalType": "contract NullSettlementChallengeState",
          "name": "oldNullSettlementChallengeState",
          "type": "address"
        },
        {
          "indexed": false,
          "internalType": "contract NullSettlementChallengeState",
          "name": "newNullSettlementChallengeState",
          "type": "address"
        }
      ],
      "name": "SetNullSettlementChallengeStateEvent",
      "type": "event"
    },
    {
      "anonymous": false,
      "inputs": [
        {
          "indexed": false,
          "internalType": "address",
          "name": "oldOperator",
          "type": "address"
        },
        {
          "indexed": false,
          "internalType": "address",
          "name": "newOperator",
          "type": "address"
        }
      ],
      "name": "SetOperatorEvent",
      "type": "event"
    },
    {
      "anonymous": false,
      "inputs": [
        {
          "indexed": false,
          "internalType": "contract SecurityBond",
          "name": "oldSecurityBond",
          "type": "address"
        },
        {
          "indexed": false,
          "internalType": "contract SecurityBond",
          "name": "newSecurityBond",
          "type": "address"
        }
      ],
      "name": "SetSecurityBondEvent",
      "type": "event"
    },
    {
      "anonymous": false,
      "inputs": [
        {
          "indexed": false,
          "internalType": "contract ValidatorV2",
          "name": "oldValidator",
          "type": "address"
        },
        {
          "indexed": false,
          "internalType": "contract ValidatorV2",
          "name": "newValidator",
          "type": "address"
        }
      ],
      "name": "SetValidatorEvent",
      "type": "event"
    },
    {
      "anonymous": false,
      "inputs": [
        {
          "indexed": false,
          "internalType": "contract WalletLocker",
          "name": "oldWalletLocker",
          "type": "address"
        },
        {
          "indexed": false,
          "internalType": "contract WalletLocker",
          "name": "newWalletLocker",
          "type": "address"
        }
      ],
      "name": "SetWalletLockerEvent",
      "type": "event"
    },
    {
      "anonymous": false,
      "inputs": [
        {
          "indexed": false,
          "internalType": "address",
          "name": "wallet",
          "type": "address"
        }
      ],
      "name": "TriggerSelfDestructionEvent",
      "type": "event"
    },
    {
      "constant": true,
      "inputs": [],
      "name": "CHALLENGE_BY_ORDER_ACTION",
      "outputs": [
        {
          "internalType": "string",
          "name": "",
          "type": "string"
        }
      ],
      "payable": false,
      "stateMutability": "view",
      "type": "function"
    },
    {
      "constant": true,
      "inputs": [],
      "name": "balanceTracker",
      "outputs": [
        {
          "internalType": "contract BalanceTracker",
          "name": "",
          "type": "address"
        }
      ],
      "payable": false,
      "stateMutability": "view",
      "type": "function"
    },
    {
      "constant": true,
      "inputs": [],
      "name": "balanceTrackerFrozen",
      "outputs": [
        {
          "internalType": "bool",
          "name": "",
          "type": "bool"
        }
      ],
      "payable": false,
      "stateMutability": "view",
      "type": "function"
    },
    {
      "constant": true,
      "inputs": [],
      "name": "cancelOrdersChallenge",
      "outputs": [
        {
          "internalType": "contract CancelOrdersChallenge",
          "name": "",
          "type": "address"
        }
      ],
      "payable": false,
      "stateMutability": "view",
      "type": "function"
    },
    {
      "constant": true,
      "inputs": [],
      "name": "configuration",
      "outputs": [
        {
          "internalType": "contract Configuration",
          "name": "",
          "type": "address"
        }
      ],
      "payable": false,
      "stateMutability": "view",
      "type": "function"
    },
    {
      "constant": true,
      "inputs": [],
      "name": "deployer",
      "outputs": [
        {
          "internalType": "address",
          "name": "",
          "type": "address"
        }
      ],
      "payable": false,
      "stateMutability": "view",
      "type": "function"
    },
    {
      "constant": false,
      "inputs": [
        {
          "internalType": "address",
          "name": "service",
          "type": "address"
        }
      ],
      "name": "deregisterService",
      "outputs": [],
      "payable": false,
      "stateMutability": "nonpayable",
      "type": "function"
    },
    {
      "constant": true,
      "inputs": [],
      "name": "destructor",
      "outputs": [
        {
          "internalType": "address",
          "name": "",
          "type": "address"
        }
      ],
      "payable": false,
      "stateMutability": "view",
      "type": "function"
    },
    {
      "constant": false,
      "inputs": [],
      "name": "disableSelfDestruction",
      "outputs": [],
      "payable": false,
      "stateMutability": "nonpayable",
      "type": "function"
    },
    {
      "constant": false,
      "inputs": [
        {
          "internalType": "address",
          "name": "service",
          "type": "address"
        },
        {
          "internalType": "string",
          "name": "action",
          "type": "string"
        }
      ],
      "name": "disableServiceAction",
      "outputs": [],
      "payable": false,
      "stateMutability": "nonpayable",
      "type": "function"
    },
    {
      "constant": false,
      "inputs": [
        {
          "internalType": "address",
          "name": "service",
          "type": "address"
        },
        {
          "internalType": "string",
          "name": "action",
          "type": "string"
        }
      ],
      "name": "enableServiceAction",
      "outputs": [],
      "payable": false,
      "stateMutability": "nonpayable",
      "type": "function"
    },
    {
      "constant": true,
      "inputs": [],
      "name": "fraudChallenge",
      "outputs": [
        {
          "internalType": "contract FraudChallenge",
          "name": "",
          "type": "address"
        }
      ],
      "payable": false,
      "stateMutability": "view",
      "type": "function"
    },
    {
      "constant": false,
      "inputs": [],
      "name": "freezeBalanceTracker",
      "outputs": [],
      "payable": false,
      "stateMutability": "nonpayable",
      "type": "function"
    },
    {
      "constant": false,
      "inputs": [],
      "name": "freezeWalletLocker",
      "outputs": [],
      "payable": false,
      "stateMutability": "nonpayable",
      "type": "function"
    },
    {
      "constant": true,
      "inputs": [
        {
          "internalType": "address",
          "name": "service",
          "type": "address"
        },
        {
          "internalType": "string",
          "name": "action",
          "type": "string"
        }
      ],
      "name": "isEnabledServiceAction",
      "outputs": [
        {
          "internalType": "bool",
          "name": "",
          "type": "bool"
        }
      ],
      "payable": false,
      "stateMutability": "view",
      "type": "function"
    },
    {
      "constant": true,
      "inputs": [
        {
          "internalType": "address",
          "name": "service",
          "type": "address"
        }
      ],
      "name": "isRegisteredActiveService",
      "outputs": [
        {
          "internalType": "bool",
          "name": "",
          "type": "bool"
        }
      ],
      "payable": false,
      "stateMutability": "view",
      "type": "function"
    },
    {
      "constant": true,
      "inputs": [
        {
          "internalType": "address",
          "name": "service",
          "type": "address"
        }
      ],
      "name": "isRegisteredService",
      "outputs": [
        {
          "internalType": "bool",
          "name": "",
          "type": "bool"
        }
      ],
      "payable": false,
      "stateMutability": "view",
      "type": "function"
    },
    {
      "constant": true,
      "inputs": [],
      "name": "nullSettlementChallengeState",
      "outputs": [
        {
          "internalType": "contract NullSettlementChallengeState",
          "name": "",
          "type": "address"
        }
      ],
      "payable": false,
      "stateMutability": "view",
      "type": "function"
    },
    {
      "constant": true,
      "inputs": [],
      "name": "operator",
      "outputs": [
        {
          "internalType": "address",
          "name": "",
          "type": "address"
        }
      ],
      "payable": false,
      "stateMutability": "view",
      "type": "function"
    },
    {
      "constant": false,
      "inputs": [
        {
          "internalType": "address",
          "name": "service",
          "type": "address"
        }
      ],
      "name": "registerService",
      "outputs": [],
      "payable": false,
      "stateMutability": "nonpayable",
      "type": "function"
    },
    {
      "constant": false,
      "inputs": [
        {
          "internalType": "address",
          "name": "service",
          "type": "address"
        }
      ],
      "name": "registerServiceDeferred",
      "outputs": [],
      "payable": false,
      "stateMutability": "nonpayable",
      "type": "function"
    },
    {
      "constant": true,
      "inputs": [],
      "name": "securityBond",
      "outputs": [
        {
          "internalType": "contract SecurityBond",
          "name": "",
          "type": "address"
        }
      ],
      "payable": false,
      "stateMutability": "view",
      "type": "function"
    },
    {
      "constant": true,
      "inputs": [],
      "name": "selfDestructionDisabled",
      "outputs": [
        {
          "internalType": "bool",
          "name": "",
          "type": "bool"
        }
      ],
      "payable": false,
      "stateMutability": "view",
      "type": "function"
    },
    {
      "constant": true,
      "inputs": [],
      "name": "serviceActivationTimeout",
      "outputs": [
        {
          "internalType": "uint256",
          "name": "",
          "type": "uint256"
        }
      ],
      "payable": false,
      "stateMutability": "view",
      "type": "function"
    },
    {
      "constant": false,
      "inputs": [
        {
          "internalType": "contract BalanceTracker",
          "name": "newBalanceTracker",
          "type": "address"
        }
      ],
      "name": "setBalanceTracker",
      "outputs": [],
      "payable": false,
      "stateMutability": "nonpayable",
      "type": "function"
    },
    {
      "constant": false,
      "inputs": [
        {
          "internalType": "contract CancelOrdersChallenge",
          "name": "newCancelOrdersChallenge",
          "type": "address"
        }
      ],
      "name": "setCancelOrdersChallenge",
      "outputs": [],
      "payable": false,
      "stateMutability": "nonpayable",
      "type": "function"
    },
    {
      "constant": false,
      "inputs": [
        {
          "internalType": "contract Configuration",
          "name": "newConfiguration",
          "type": "address"
        }
      ],
      "name": "setConfiguration",
      "outputs": [],
      "payable": false,
      "stateMutability": "nonpayable",
      "type": "function"
    },
    {
      "constant": false,
      "inputs": [
        {
          "internalType": "address",
          "name": "newDeployer",
          "type": "address"
        }
      ],
      "name": "setDeployer",
      "outputs": [],
      "payable": false,
      "stateMutability": "nonpayable",
      "type": "function"
    },
    {
      "constant": false,
      "inputs": [
        {
          "internalType": "contract FraudChallenge",
          "name": "newFraudChallenge",
          "type": "address"
        }
      ],
      "name": "setFraudChallenge",
      "outputs": [],
      "payable": false,
      "stateMutability": "nonpayable",
      "type": "function"
    },
    {
      "constant": false,
      "inputs": [
        {
          "internalType": "address",
          "name": "newOperator",
          "type": "address"
        }
      ],
      "name": "setOperator",
      "outputs": [],
      "payable": false,
      "stateMutability": "nonpayable",
      "type": "function"
    },
    {
      "constant": false,
      "inputs": [
        {
          "internalType": "contract SecurityBond",
          "name": "newSecurityBond",
          "type": "address"
        }
      ],
      "name": "setSecurityBond",
      "outputs": [],
      "payable": false,
      "stateMutability": "nonpayable",
      "type": "function"
    },
    {
      "constant": false,
      "inputs": [
        {
          "internalType": "uint256",
          "name": "timeoutInSeconds",
          "type": "uint256"
        }
      ],
      "name": "setServiceActivationTimeout",
      "outputs": [],
      "payable": false,
      "stateMutability": "nonpayable",
      "type": "function"
    },
    {
      "constant": false,
      "inputs": [
        {
          "internalType": "contract ValidatorV2",
          "name": "newValidator",
          "type": "address"
        }
      ],
      "name": "setValidator",
      "outputs": [],
      "payable": false,
      "stateMutability": "nonpayable",
      "type": "function"
    },
    {
      "constant": false,
      "inputs": [
        {
          "internalType": "contract WalletLocker",
          "name": "newWalletLocker",
          "type": "address"
        }
      ],
      "name": "setWalletLocker",
      "outputs": [],
      "payable": false,
      "stateMutability": "nonpayable",
      "type": "function"
    },
    {
      "constant": false,
      "inputs": [],
      "name": "triggerSelfDestruction",
      "outputs": [],
      "payable": false,
      "stateMutability": "nonpayable",
      "type": "function"
    },
    {
      "constant": true,
      "inputs": [],
      "name": "validator",
      "outputs": [
        {
          "internalType": "contract ValidatorV2",
          "name": "",
          "type": "address"
        }
      ],
      "payable": false,
      "stateMutability": "view",
      "type": "function"
    },
    {
      "constant": true,
      "inputs": [],
      "name": "walletLocker",
      "outputs": [
        {
          "internalType": "contract WalletLocker",
          "name": "",
          "type": "address"
        }
      ],
      "payable": false,
      "stateMutability": "view",
      "type": "function"
    },
    {
      "constant": true,
      "inputs": [],
      "name": "walletLockerFrozen",
      "outputs": [
        {
          "internalType": "bool",
          "name": "",
          "type": "bool"
        }
      ],
      "payable": false,
      "stateMutability": "view",
      "type": "function"
    },
    {
      "constant": false,
      "inputs": [
        {
          "internalType": "contract NullSettlementChallengeState",
          "name": "newNullSettlementChallengeState",
          "type": "address"
        }
      ],
      "name": "setNullSettlementChallengeState",
      "outputs": [],
      "payable": false,
      "stateMutability": "nonpayable",
      "type": "function"
    },
    {
      "constant": false,
      "inputs": [
        {
          "components": [
            {
              "internalType": "uint256",
              "name": "nonce",
              "type": "uint256"
            },
            {
              "internalType": "address",
              "name": "wallet",
              "type": "address"
            },
            {
              "components": [
                {
                  "internalType": "enum TradeTypesLib.Intention",
                  "name": "intention",
                  "type": "uint8"
                },
                {
                  "internalType": "int256",
                  "name": "amount",
                  "type": "int256"
                },
                {
                  "components": [
                    {
                      "components": [
                        {
                          "internalType": "address",
                          "name": "ct",
                          "type": "address"
                        },
                        {
                          "internalType": "uint256",
                          "name": "id",
                          "type": "uint256"
                        }
                      ],
                      "internalType": "struct MonetaryTypesLib.Currency",
                      "name": "intended",
                      "type": "tuple"
                    },
                    {
                      "components": [
                        {
                          "internalType": "address",
                          "name": "ct",
                          "type": "address"
                        },
                        {
                          "internalType": "uint256",
                          "name": "id",
                          "type": "uint256"
                        }
                      ],
                      "internalType": "struct MonetaryTypesLib.Currency",
                      "name": "conjugate",
                      "type": "tuple"
                    }
                  ],
                  "internalType": "struct NahmiiTypesLib.IntendedConjugateCurrency",
                  "name": "currencies",
                  "type": "tuple"
                },
                {
                  "internalType": "int256",
                  "name": "rate",
                  "type": "int256"
                },
                {
                  "components": [
                    {
                      "internalType": "int256",
                      "name": "current",
                      "type": "int256"
                    },
                    {
                      "internalType": "int256",
                      "name": "previous",
                      "type": "int256"
                    }
                  ],
                  "internalType": "struct NahmiiTypesLib.CurrentPreviousInt256",
                  "name": "residuals",
                  "type": "tuple"
                }
              ],
              "internalType": "struct TradeTypesLib.OrderPlacement",
              "name": "placement",
              "type": "tuple"
            },
            {
              "components": [
                {
                  "components": [
                    {
                      "internalType": "bytes32",
                      "name": "hash",
                      "type": "bytes32"
                    },
                    {
                      "components": [
                        {
                          "internalType": "bytes32",
                          "name": "r",
                          "type": "bytes32"
                        },
                        {
                          "internalType": "bytes32",
                          "name": "s",
                          "type": "bytes32"
                        },
                        {
                          "internalType": "uint8",
                          "name": "v",
                          "type": "uint8"
                        }
                      ],
                      "internalType": "struct NahmiiTypesLib.Signature",
                      "name": "signature",
                      "type": "tuple"
                    }
                  ],
                  "internalType": "struct NahmiiTypesLib.Seal",
                  "name": "wallet",
                  "type": "tuple"
                },
                {
                  "components": [
                    {
                      "internalType": "bytes32",
                      "name": "hash",
                      "type": "bytes32"
                    },
                    {
                      "components": [
                        {
                          "internalType": "bytes32",
                          "name": "r",
                          "type": "bytes32"
                        },
                        {
                          "internalType": "bytes32",
                          "name": "s",
                          "type": "bytes32"
                        },
                        {
                          "internalType": "uint8",
                          "name": "v",
                          "type": "uint8"
                        }
                      ],
                      "internalType": "struct NahmiiTypesLib.Signature",
                      "name": "signature",
                      "type": "tuple"
                    }
                  ],
                  "internalType": "struct NahmiiTypesLib.Seal",
                  "name": "operator",
                  "type": "tuple"
                }
              ],
              "internalType": "struct NahmiiTypesLib.WalletOperatorSeal",
              "name": "seals",
              "type": "tuple"
            },
            {
              "internalType": "uint256",
              "name": "blockNumber",
              "type": "uint256"
            },
            {
              "internalType": "uint256",
              "name": "operatorId",
              "type": "uint256"
            }
          ],
          "internalType": "struct TradeTypesLib.Order",
          "name": "order",
          "type": "tuple"
        },
        {
          "internalType": "address",
          "name": "challenger",
          "type": "address"
        }
      ],
      "name": "challengeByOrder",
      "outputs": [],
      "payable": false,
      "stateMutability": "nonpayable",
      "type": "function"
    }
  ],
  "bytecode": "0x60806040523480156200001157600080fd5b5060405162003bb138038062003bb18339810160408190526200003491620000b3565b80806001600160a01b0381166200004a57600080fd5b6001600160a01b0381163014156200006157600080fd5b5060008054610100600160a81b0319166101006001600160a01b0393909316928302179055600180546001600160a01b03191690911790555062000108565b8051620000ad81620000ee565b92915050565b600060208284031215620000c657600080fd5b6000620000d48484620000a0565b949350505050565b60006001600160a01b038216620000ad565b620000f981620000dc565b81146200010557600080fd5b50565b613a9980620001186000396000f3fe608060405234801561001057600080fd5b50600436106101d85760003560e01c806301370d06146101dd5780630cca956d146101f25780631327d3d81461021057806314f3a6331461022357806317ba3f90146102385780631913909214610258578063240625d8146102605780632738a112146102685780632b5672e3146102705780632b91e0a9146102835780632f013a00146102965780633a5381b51461029e5780633b58c501146102a65780633b7bea6c146102b95780633bd7857f146102ce5780633dad7da4146102d65780633e59b706146102e95780634476d23b146102f157806350b08c0214610306578063570ca73514610319578063598b75ad146103215780635dc60def146103345780635df1b0a31461033c578063627f09c31461034f5780636792ce6e146103625780636b0570d0146103755780636c70bee91461037d5780636ccb43c81461038557806370327ea1146103985780637e15dd5c146103a0578063892860b2146103b35780638e8cef12146103c65780638eed8359146103d957806396214735146103ec578063b3ab15fb146103ff578063b52d470a14610412578063d5f394881461041a578063e8ae41e314610422578063fa7424f21461042a578063fdd9ec7d14610432575b600080fd5b6101f06101eb366004612dce565b610445565b005b6101fa6104e6565b60405161020791906137cc565b60405180910390f35b6101f061021e366004612dce565b6104f5565b61022b610586565b6040516102079190613803565b61024b610246366004612d05565b6105b4565b60405161020791906137b0565b6101fa6105ee565b61024b6105fd565b6101f061060d565b6101f061027e366004612d41565b610673565b61024b610291366004612d05565b61079d565b61024b6107bb565b6101fa6107c4565b6101f06102b4366004612d41565b6107d3565b6102c16108af565b60405161020791906137be565b6101fa6108b5565b6101f06102e4366004612dce565b6108c4565b61024b610955565b6102f9610965565b6040516102079190613530565b6101f0610314366004612d05565b610979565b6102f9610a35565b6101f061032f366004612dce565b610a44565b6101f0610b08565b61024b61034a366004612d41565b610b57565b6101f061035d366004612dce565b610baa565b6101f0610370366004612dce565b610c3b565b6101fa610ccc565b6101fa610cdb565b6101f0610393366004612dce565b610cea565b6101f0610d71565b6101f06103ae366004612eed565b610dd4565b6101f06103c1366004612dce565b610e25565b6101f06103d4366004612d05565b610ee0565b6101f06103e7366004612ebb565b610f5a565b6101f06103fa366004612d05565b611632565b6101f061040d366004612d05565b6116e8565b6101f061178b565b6102f96117da565b6101fa6117ee565b6101fa6117fd565b6101f0610440366004612d05565b61180c565b61044d611881565b61045657600080fd5b806001600160a01b03811661046a57600080fd5b60075482906001600160a01b0390811690821681146104e057600780546001600160a01b038681166001600160a01b03198316179092556040519116907f07998fa7be97abe2427246ae4688298c89d6196bbffdf0997b9495a8d27bc673906104d690839088906137da565b60405180910390a1505b50505050565b6008546001600160a01b031681565b6104fd611881565b61050657600080fd5b806001600160a01b03811661051a57600080fd5b60035482906001600160a01b0390811690821681146104e057600380546001600160a01b038681166001600160a01b03198316179092556040519116907f1882af944a16549c3d4f60e3cd26f158b0c7aac3222cf32971fc21375ce05f60906104d690839088906137da565b6040518060400160405280601281526020017131b430b63632b733b2afb13cafb7b93232b960711b81525081565b60006105bf8261079d565b80156105e657506001600160a01b0382166000908152600960205260409020600101544210155b90505b919050565b6006546001600160a01b031681565b600554600160a01b900460ff1681565b33610616610965565b6001600160a01b03161461062957600080fd5b60005460ff161561063957600080fd5b7f787a5d936e74f4b564b9153575886059829c78cd9927b1be5e0d976b317ef73633604051610668919061353e565b60405180910390a133ff5b61067b611881565b61068457600080fd5b816001600160a01b03811661069857600080fd5b6001600160a01b0381163014156106ae57600080fd5b6001600160a01b03831660009081526009602052604090205460ff166106d357600080fd5b60006106de83611897565b6001600160a01b038516600090815260096020908152604080832084845260020190915290205490915060ff161561071557600080fd5b6001600160a01b0384166000908152600960208181526040808420858552600281018352818520805460ff19166001908117909155938352600301805493840181558452922001829055517fec1b982d69bfc1a6fd8becf191d9a633486c822d3bdedd52303ca81fa63575019061078f90869086906136eb565b60405180910390a150505050565b6001600160a01b031660009081526009602052604090205460ff1690565b60005460ff1681565b6003546001600160a01b031681565b6107db611881565b6107e457600080fd5b816001600160a01b0381166107f857600080fd5b6001600160a01b03811630141561080e57600080fd5b600061081983611897565b6001600160a01b038516600090815260096020908152604080832084845260020190915290205490915060ff1661084f57600080fd5b6001600160a01b038416600090815260096020908152604080832084845260020190915290819020805460ff19169055517f92f4af6130f47c92f3899e06611c8c6ef191fb81207ad2675d134af619d2fe7d9061078f90869086906136eb565b600a5481565b6007546001600160a01b031681565b6108cc611881565b6108d557600080fd5b806001600160a01b0381166108e957600080fd5b60085482906001600160a01b0390811690821681146104e057600880546001600160a01b038681166001600160a01b03198316179092556040519116907fafe0f82771e36e01015c06151eff69190d6796b6359da2780a8dd89ded9b2205906104d690839088906137da565b600654600160a01b900460ff1681565b60005461010090046001600160a01b031690565b610981611881565b61098a57600080fd5b806001600160a01b03811661099e57600080fd5b6001600160a01b0381163014156109b457600080fd5b6001600160a01b03821660009081526009602052604090205460ff166109d957600080fd5b6001600160a01b03821660009081526009602052604090819020805460ff19169055517f777645c5437dfbf962f57a281ead25f3d513f2f8e938685bbfc1738e81c9880e90610a29908490613530565b60405180910390a15050565b6001546001600160a01b031681565b610a4c611881565b610a5557600080fd5b806001600160a01b038116610a6957600080fd5b60065482906001600160a01b0390811690821681146104e057600654600160a01b900460ff1615610ab55760405162461bcd60e51b8152600401610aac90613814565b60405180910390fd5b600680546001600160a01b038681166001600160a01b03198316179092556040519116907fb2a91d3a71b0c5bc7c083153b3474378e489506ba98bd4ddb1b9056fdc594bb5906104d690839088906137da565b610b10611881565b610b1957600080fd5b6005805460ff60a01b1916600160a01b1790556040517f56ec8900b9c4bf84f4b715a53068ca06961dd49084c07b481931e2c2045346e690600090a1565b600080610b6383611897565b9050610b6e846105b4565b8015610ba057506001600160a01b038416600090815260096020908152604080832084845260020190915290205460ff165b9150505b92915050565b610bb2611881565b610bbb57600080fd5b806001600160a01b038116610bcf57600080fd5b60025482906001600160a01b0390811690821681146104e057600280546001600160a01b038681166001600160a01b03198316179092556040519116907f634f61bf00e14adedce330c80c2823e16e184f189ebe853e1ddecc4a268477ff906104d690839088906137da565b610c43611881565b610c4c57600080fd5b806001600160a01b038116610c6057600080fd5b60045482906001600160a01b0390811690821681146104e057600480546001600160a01b038681166001600160a01b03198316179092556040519116907fc9f3f00c1760fe26985aeacb814a21c56ea289d680562e89b249681b08c30382906104d690839088906137da565b6004546001600160a01b031681565b6002546001600160a01b031681565b610cf2611881565b610cfb57600080fd5b806001600160a01b038116610d0f57600080fd5b600b80546001600160a01b038481166001600160a01b031983161792839055604051918116927ff21c127205310467822e10c64b2d9ffae588e019194d6af71f2bdddc0b7ef52692610d6492859216906137da565b60405180910390a1505050565b33610d7a610965565b6001600160a01b031614610d8d57600080fd5b6000805460ff191660011790556040517fd5a2a04a775c741c2ca0dc46ea7ce4835190e1aaf1ca018def0e82568ec3361690610dca90339061353e565b60405180910390a1565b610ddc611881565b610de557600080fd5b600a8190556040517f4f1d324a1cbffc352fb64f1d73d95e4b200d92f99ef39bf2d7f5b41f946909d690610e1a9083906137be565b60405180910390a150565b610e2d611881565b610e3657600080fd5b806001600160a01b038116610e4a57600080fd5b60055482906001600160a01b0390811690821681146104e057600554600160a01b900460ff1615610e8d5760405162461bcd60e51b8152600401610aac906138a4565b600580546001600160a01b038681166001600160a01b03198316179092556040519116907fa44d361e26327b72a7ccbeae801b3c5cd7677ea4fa74168b289e273c46bfecfc906104d690839088906137da565b610ee8611881565b610ef157600080fd5b806001600160a01b038116610f0557600080fd5b6001600160a01b038116301415610f1b57600080fd5b610f2782600a546118c7565b7f7f3a8349917003ed377f6e9ae1608b92edd893903f8983bd274b1f8373dd3b1182600a54604051610a29929190613627565b6040518060400160405280601281526020017131b430b63632b733b2afb13cafb7b93232b960711b815250610f8f3382610b57565b610f9857600080fd5b6003546040516331f2978b60e01b815284916001600160a01b0316906331f2978b90610fc89084906004016138b4565b60206040518083038186803b158015610fe057600080fd5b505afa158015610ff4573d6000803e3d6000fd5b505050506040513d601f19601f820116820180604052506110189190810190612d92565b6110345760405162461bcd60e51b8152600401610aac90613884565b6007546060850151602001515160405163e1f5828b60e01b81526001600160a01b039092169163e1f5828b9161106c916004016137be565b60206040518083038186803b15801561108457600080fd5b505afa158015611098573d6000803e3d6000fd5b505050506040513d601f19601f820116820180604052506110bc9190810190612d92565b156110d95760405162461bcd60e51b8152600401610aac90613834565b60085460208086015160608701519091015151604051634deaf58b60e11b81526001600160a01b0390931692639bd5eb1692611119929091600401613627565b60206040518083038186803b15801561113157600080fd5b505afa158015611145573d6000803e3d6000fd5b505050506040513d601f19601f820116820180604052506111699190810190612d92565b156111865760405162461bcd60e51b8152600401610aac90613894565b61118e61293a565b61119785611916565b600b54602087015160405163076470a560e31b81529293506001600160a01b0390911691633b238528916111cf91859060040161370b565b60206040518083038186803b1580156111e757600080fd5b505afa1580156111fb573d6000803e3d6000fd5b505050506040513d601f19601f8201168201806040525061121f9190810190612d92565b61123b5760405162461bcd60e51b8152600401610aac90613854565b600b546020860151604051635482c73560e01b81526001600160a01b0390921691635482c7359161127091859060040161370b565b60206040518083038186803b15801561128857600080fd5b505afa15801561129c573d6000803e3d6000fd5b505050506040513d601f19601f820116820180604052506112c09190810190612d92565b156112dd5760405162461bcd60e51b8152600401610aac90613864565b600b546020860151604051632ee2ed2560e01b81526001600160a01b0390921691632ee2ed259161131291859060040161370b565b60206040518083038186803b15801561132a57600080fd5b505afa15801561133e573d6000803e3d6000fd5b505050506040513d601f19601f820116820180604052506113629190810190612db0565b8551116113815760405162461bcd60e51b8152600401610aac90613874565b600b54602086015160405163553d90e960e01b81526001600160a01b039092169163553d90e9916113b691859060040161370b565b60206040518083038186803b1580156113ce57600080fd5b505afa1580156113e2573d6000803e3d6000fd5b505050506040513d601f19601f820116820180604052506114069190810190612db0565b8551116114255760405162461bcd60e51b8152600401610aac90613824565b61142f8582611955565b61144b5760405162461bcd60e51b8152600401610aac90613844565b611463856020015161145c87611b0e565b8387611b59565b600b60009054906101000a90046001600160a01b03166001600160a01b031663667666c88660200151838789608001518a600001518b60600151602001516000015173__TradeTypesLib_________________________63af75a2f76040518163ffffffff1660e01b815260040160006040518083038186803b1580156114e957600080fd5b505af41580156114fd573d6000803e3d6000fd5b505050506040513d6000823e601f3d908101601f191682016040526115259190810190612e87565b6040518863ffffffff1660e01b81526004016115479796959493929190613726565b600060405180830381600087803b15801561156157600080fd5b505af1158015611575573d6000803e3d6000fd5b5050600b546020880151604051632ee2ed2560e01b81527f692186b99bb015f5247f9db51faae16e52216ff8292cd97ddfd7777e69366e0294506001600160a01b039092169250632ee2ed25916115d19190869060040161370b565b60206040518083038186803b1580156115e957600080fd5b505afa1580156115fd573d6000803e3d6000fd5b505050506040513d601f19601f820116820180604052506116219190810190612db0565b86866040516104d6939291906138c3565b61163a611881565b61164357600080fd5b806001600160a01b03811661165757600080fd5b6001600160a01b03811630141561166d57600080fd5b6000546001600160a01b0383811661010090920416146116e457600080546001600160a01b03848116610100908102610100600160a81b03198416179093556040519290910416907f977e5fa58e458501775e0008d275006294c5249e3c08d1d0e3a9f3acad14f6e490610d64908390869061354c565b5050565b6116f0611bfd565b6116f957600080fd5b806001600160a01b03811661170d57600080fd5b6001600160a01b03811630141561172357600080fd5b6001546001600160a01b038381169116146116e457600180546001600160a01b038481166001600160a01b03198316179092556040519116907f9f611b789425d0d5b90b920f1b2852907dd865c80074a30b1629aaa041d1812c90610d64908390869061354c565b611793611881565b61179c57600080fd5b6006805460ff60a01b1916600160a01b1790556040517f9c567b65fe8caab5ec7bc979a498a1322c1d4baf01a30727cbca137187560ea290600090a1565b60005461010090046001600160a01b031681565b6005546001600160a01b031681565b600b546001600160a01b031681565b611814611881565b61181d57600080fd5b806001600160a01b03811661183157600080fd5b6001600160a01b03811630141561184757600080fd5b6118528260006118c7565b7fb619d545cb511bd5f02907a1eac4f4cb8dace7b1846852fb0bf5e553937481c182604051610a299190613530565b60005461010090046001600160a01b0316331490565b6000816040516020016118aa9190613524565b604051602081830303815290604052805190602001209050919050565b6001600160a01b03821660009081526009602052604090205460ff166116e4576001600160a01b0382166000908152600960205260409020805460ff1916600190811782554283019101555050565b61191e61293a565b604082015151600181111561192f57fe5b60011461194857816040015160400151602001516105e6565b5060409081015101515190565b600b54602083015160405163c46fcd7560e01b815260009283926001600160a01b039091169163c46fcd759161198f91879060040161370b565b60206040518083038186803b1580156119a757600080fd5b505afa1580156119bb573d6000803e3d6000fd5b505050506040513d601f19601f820116820180604052506119df9190810190612db0565b6020850151600b5460405163374852cb60e11b8152929350600092611ac092611a9092909188916001600160a01b031690636e90a59690611a26908590859060040161370b565b60206040518083038186803b158015611a3e57600080fd5b505afa158015611a52573d6000803e3d6000fd5b505050506040513d601f19601f82011682018060405250611a769190810190612db0565b6006546001600160a01b031692919063ffffffff611c0e16565b6020870151600654611ab4916001600160a01b03909116908863ffffffff611c2a16565b9063ffffffff611e3d16565b90506000611adf600019611ad388611b0e565b9063ffffffff611e7716565b9050611af38160001963ffffffff611e7716565b611b03848463ffffffff611ed616565b129695505050505050565b6040810151516000906001811115611b2257fe5b600114611b4d5760408201516060810151602090910151611b489163ffffffff611f0816565b6105e6565b50604001516020015190565b600b546040516333ca4eab60e21b81526001600160a01b039091169063cf293aac90611b8b908790869060040161370b565b60206040518083038186803b158015611ba357600080fd5b505afa158015611bb7573d6000803e3d6000fd5b505050506040513d601f19601f82011682018060405250611bdb9190810190612d92565b15611bf157611bec84848484611f39565b6104e0565b6104e0848484846121ad565b6001546001600160a01b0316331490565b600080611c1d868686866125bb565b509150505b949350505050565b6000611e33846001600160a01b03166371f4ec5185876001600160a01b0316634652ec746040518163ffffffff1660e01b815260040160206040518083038186803b158015611c7857600080fd5b505afa158015611c8c573d6000803e3d6000fd5b505050506040513d601f19601f82011682018060405250611cb09190810190612db0565b865160208801516040516001600160e01b031960e087901b168152611cdb9493929190600401613642565b60206040518083038186803b158015611cf357600080fd5b505afa158015611d07573d6000803e3d6000fd5b505050506040513d601f19601f82011682018060405250611d2b9190810190612db0565b856001600160a01b03166371f4ec5186886001600160a01b031663ded113106040518163ffffffff1660e01b815260040160206040518083038186803b158015611d7457600080fd5b505afa158015611d88573d6000803e3d6000fd5b505050506040513d601f19601f82011682018060405250611dac9190810190612db0565b875160208901516040516001600160e01b031960e087901b168152611dd79493929190600401613642565b60206040518083038186803b158015611def57600080fd5b505afa158015611e03573d6000803e3d6000fd5b505050506040513d601f19601f82011682018060405250611e279190810190612db0565b9063ffffffff611ed616565b90505b9392505050565b6000808212158015611e5157508282840313155b80611e685750600082128015611e68575082828403135b611e7157600080fd5b50900390565b600082600019141580611e8e5750600160ff1b8214155b611e9757600080fd5b81600019141580611eac5750600160ff1b8314155b611eb557600080fd5b828202821580611ecd575083838281611eca57fe5b05145b611e3657600080fd5b6000828201818312801590611eeb5750838112155b80611ecd5750600083128015611ecd5750838112611e3657600080fd5b6000600160ff1b83141580611f1f57508160001914155b611f2857600080fd5b818381611f3157fe5b059392505050565b600b5460405163b6e2fc3360e01b81526001600160a01b039091169063b6e2fc3390611f6b908790869060040161370b565b60206040518083038186803b158015611f8357600080fd5b505afa158015611f97573d6000803e3d6000fd5b505050506040513d601f19601f82011682018060405250611fbb9190810190612dec565b6001811115611fc657fe5b600114156120bc57600554600b54604051635658722960e01b81526001600160a01b03928316926346c5c02392889291169063565872299061200e908490899060040161370b565b60206040518083038186803b15801561202657600080fd5b505afa15801561203a573d6000803e3d6000fd5b505050506040513d601f19601f8201168201806040525061205e9190810190612d23565b855160208701516040516001600160e01b031960e087901b1681526120899493929190600401613567565b600060405180830381600087803b1580156120a357600080fd5b505af11580156120b7573d6000803e3d6000fd5b505050505b60055482516020808501516002546040805163fbdfd8e760e01b815290516001600160a01b0396871696639a545322968c968a968d9692959094929093169263fbdfd8e79260048083019392829003018186803b15801561211c57600080fd5b505afa158015612130573d6000803e3d6000fd5b505050506040513d601f19601f820116820180604052506121549190810190612db0565b6040518763ffffffff1660e01b8152600401612175969594939291906135a5565b600060405180830381600087803b15801561218f57600080fd5b505af11580156121a3573d6000803e3d6000fd5b5050505050505050565b600b5460405163b6e2fc3360e01b81526001600160a01b039091169063b6e2fc33906121df908790869060040161370b565b60206040518083038186803b1580156121f757600080fd5b505afa15801561220b573d6000803e3d6000fd5b505050506040513d601f19601f8201168201806040525061222f9190810190612dec565b600181111561223a57fe5b6001141561232d5760048054600b54604051635658722960e01b81526001600160a01b0392831693634e791e0d9390921691635658722991612280918a9189910161370b565b60206040518083038186803b15801561229857600080fd5b505afa1580156122ac573d6000803e3d6000fd5b505050506040513d601f19601f820116820180604052506122d09190810190612d23565b845160208601516040516001600160e01b031960e086901b1681526122fa939291906004016135ff565b600060405180830381600087803b15801561231457600080fd5b505af1158015612328573d6000803e3d6000fd5b505050505b612335612951565b61233d612872565b6004805482516020808501518051910151604051634197bc1960e11b81529596506001600160a01b039093169463832f78329461238394899493929091600091016136a9565b600060405180830381600087803b15801561239d57600080fd5b505af11580156123b1573d6000803e3d6000fd5b50506004805486516020808901516002546040805163560069d960e11b815290516000995073__SafeMathIntLib________________________985063755875b2978e976001600160a01b039081169763a72148eb979096959091169363ac00d3b293818401939091829003018186803b15801561242e57600080fd5b505afa158015612442573d6000803e3d6000fd5b505050506040513d601f19601f820116820180604052506124669190810190612db0565b6040518463ffffffff1660e01b815260040161248493929190613795565b60206040518083038186803b15801561249c57600080fd5b505afa1580156124b0573d6000803e3d6000fd5b505050506040513d601f19601f820116820180604052506124d49190810190612db0565b6040518363ffffffff1660e01b81526004016124f19291906137f5565b60206040518083038186803b15801561250957600080fd5b505af415801561251d573d6000803e3d6000fd5b505050506040513d601f19601f820116820180604052506125419190810190612db0565b6004805486516020880151604051634197bc1960e11b81529495506001600160a01b039092169363832f78329361258193899388939092600091016136a9565b600060405180830381600087803b15801561259b57600080fd5b505af11580156125af573d6000803e3d6000fd5b50505050505050505050565b600080600080876001600160a01b031663a246138c888a6001600160a01b031663ded113106040518163ffffffff1660e01b815260040160206040518083038186803b15801561260a57600080fd5b505afa15801561261e573d6000803e3d6000fd5b505050506040513d601f19601f820116820180604052506126429190810190612db0565b895160208b01516040516001600160e01b031960e087901b16815261266f94939291908c9060040161365d565b604080518083038186803b15801561268657600080fd5b505afa15801561269a573d6000803e3d6000fd5b505050506040513d601f19601f820116820180604052506126be9190810190612e57565b91509150600080896001600160a01b031663a246138c8a8c6001600160a01b0316634652ec746040518163ffffffff1660e01b815260040160206040518083038186803b15801561270e57600080fd5b505afa158015612722573d6000803e3d6000fd5b505050506040513d601f19601f820116820180604052506127469190810190612db0565b8b5160208d01516040516001600160e01b031960e087901b16815261277394939291908e9060040161365d565b604080518083038186803b15801561278a57600080fd5b505afa15801561279e573d6000803e3d6000fd5b505050506040513d601f19601f820116820180604052506127c29190810190612e57565b90925090506127d7848363ffffffff611ed616565b60405163a682d5ad60e01b815290965073__SafeMathUintLib_______________________9063a682d5ad9061281390869085906004016137f5565b60206040518083038186803b15801561282b57600080fd5b505af415801561283f573d6000803e3d6000fd5b505050506040513d601f19601f820116820180604052506128639190810190612db0565b94505050505094509492505050565b61287a612951565b6000806000600260009054906101000a90046001600160a01b03166001600160a01b031663ccd03d2e6040518163ffffffff1660e01b815260040160606040518083038186803b1580156128cd57600080fd5b505afa1580156128e1573d6000803e3d6000fd5b505050506040513d601f19601f820116820180604052506129059190810190612e0a565b60408051808201825293845280518082019091526001600160a01b039092168252602082810191909152820152935050505090565b604080518082019091526000808252602082015290565b60405180604001604052806000815260200161296b61293a565b905290565b8035610ba4816139f1565b8051610ba4816139f1565b8051610ba481613a05565b8035610ba481613a0e565b8051610ba481613a0e565b8035610ba481613a17565b8035610ba481613a20565b8051610ba481613a20565b600082601f8301126129d957600080fd5b81356129ec6129e782613913565b6138ed565b91508082526020830160208301858383011115612a0857600080fd5b612a138382846139a2565b50505092915050565b600082601f830112612a2d57600080fd5b8151612a3b6129e782613913565b91508082526020830160208301858383011115612a5757600080fd5b612a138382846139ae565b600060408284031215612a7457600080fd5b612a7e60406138ed565b90506000612a8c8484612970565b8252506020612a9d84848301612991565b60208301525092915050565b600060408284031215612abb57600080fd5b612ac560406138ed565b90506000612a8c8484612991565b600060808284031215612ae557600080fd5b612aef60406138ed565b90506000612afd8484612a62565b8252506040612a9d84848301612a62565b60006101208284031215612b2157600080fd5b612b2b60a06138ed565b90506000612b3984846129b2565b8252506020612b4a84848301612991565b6020830152506040612b5e84828501612ad3565b60408301525060c0612b7284828501612991565b60608301525060e0612b8684828501612aa9565b60808301525092915050565b60006102a08284031215612ba557600080fd5b612baf60c06138ed565b90506000612bbd8484612991565b8252506020612bce84848301612970565b6020830152506040612be284828501612b0e565b604083015250610160612bf784828501612cbe565b606083015250610260612c0c84828501612991565b608083015250610280612c2184828501612991565b60a08301525092915050565b600060808284031215612c3f57600080fd5b612c4960406138ed565b90506000612c578484612991565b8252506020612a9d84848301600060608284031215612c7557600080fd5b612c7f60606138ed565b90506000612c8d8484612991565b8252506020612c9e84848301612991565b6020830152506040612cb284828501612cfa565b60408301525092915050565b60006101008284031215612cd157600080fd5b612cdb60406138ed565b90506000612ce98484612c2d565b8252506080612a9d84848301612c2d565b8035610ba481613a2d565b600060208284031215612d1757600080fd5b6000610ba08484612970565b600060208284031215612d3557600080fd5b6000610ba0848461297b565b60008060408385031215612d5457600080fd5b6000612d608585612970565b92505060208301356001600160401b03811115612d7c57600080fd5b612d88858286016129c8565b9150509250929050565b600060208284031215612da457600080fd5b6000610ba08484612986565b600060208284031215612dc257600080fd5b6000610ba0848461299c565b600060208284031215612de057600080fd5b6000610ba084846129a7565b600060208284031215612dfe57600080fd5b6000610ba084846129bd565b600080600060608486031215612e1f57600080fd5b6000612e2b868661299c565b9350506020612e3c8682870161297b565b9250506040612e4d8682870161299c565b9150509250925092565b60008060408385031215612e6a57600080fd5b6000612e76858561299c565b9250506020612d888582860161299c565b600060208284031215612e9957600080fd5b81516001600160401b03811115612eaf57600080fd5b610ba084828501612a1c565b6000806102c08385031215612ecf57600080fd5b6000612edb8585612b92565b9250506102a0612d8885828601612970565b600060208284031215612eff57600080fd5b6000610ba08484612991565b612f1481613981565b82525050565b612f1481613947565b612f1481613952565b612f1481613957565b612f148161395a565b612f148161398c565b612f1481613997565b6000612f5b8261393a565b612f65818561393e565b9350612f758185602086016139ae565b612f7e816139da565b9093019392505050565b6000612f938261393a565b612f9d81856105e9565b9350612fad8185602086016139ae565b9290920192915050565b6000612fc460308361393e565b7f42616c616e636520747261636b65722066726f7a656e205b42616c616e63655481526f7261636b61626c652e736f6c3a34335d60801b602082015260400192915050565b6000613016606c8361393e565b600080516020613a3783398151915281527f207468616e2070726f706f73616c206469737175616c696669636174696f6e2060208201527f6e6f6e6365205b4e756c6c536574746c656d656e744469737075746542794f7260408201526b6465722e736f6c3a3131375d60a01b606082015260800192915050565b600061309e603d8361393e565b7f4f72646572206465656d6564206672617564756c656e74205b4e756c6c53657481527f746c656d656e744469737075746542794f726465722e736f6c3a38355d000000602082015260400192915050565b60006130fd603d8361393e565b7f4e6f206f72646572206f76657272756e20666f756e64205b4e756c6c5365747481527f6c656d656e744469737075746542794f726465722e736f6c3a3132335d000000602082015260400192915050565b600061315c60388361393e565b7f4e6f2070726f706f73616c20666f756e64205b4e756c6c536574746c656d656e815277744469737075746542794f726465722e736f6c3a3130305d60401b602082015260400192915050565b60006131b6603d8361393e565b7f50726f706f73616c20666f756e642065787069726564205b4e756c6c5365747481527f6c656d656e744469737075746542794f726465722e736f6c3a3130365d000000602082015260400192915050565b6000613215605b8361393e565b600080516020613a3783398151915281527f207468616e2070726f706f73616c206e6f6e6365205b4e756c6c536574746c6560208201527a6d656e744469737075746542794f726465722e736f6c3a3131335d60281b604082015260600192915050565b6000613286602e8361393e565b7f4f72646572207365616c73206e6f742067656e75696e65205b56616c6964617481526d61626c6556322e736f6c3a36305d60901b602082015260400192915050565b60006132d6603c8361393e565b7f4f72646572206465656d65642063616e63656c6c6564205b4e756c6c5365747481527b6c656d656e744469737075746542794f726465722e736f6c3a39315d60201b602082015260400192915050565b6000613334602c8361393e565b7f57616c6c6574206c6f636b65722066726f7a656e205b57616c6c65744c6f636b81526b61626c652e736f6c3a34335d60a01b602082015260400192915050565b805160408301906133868482612f1a565b5060208201516104e06020850182612f2c565b805160408301906133868482612f2c565b805160808301906133bb8482613375565b5060208201516104e06040850182613375565b80516101208301906133e08482612f3e565b5060208201516133f36020850182612f2c565b50604082015161340660408501826133aa565b50606082015161341960c0850182612f2c565b5060808201516104e060e0850182613399565b80516102a083019061343e8482612f2c565b5060208201516134516020850182612f1a565b50604082015161346460408501826133ce565b5060608201516134786101608501826134f6565b50608082015161348c610260850182612f2c565b5060a08201516104e0610280850182612f2c565b805160808301906134b18482612f2c565b5060208201516104e06020850182805160608301906134d08482612f2c565b5060208201516134e36020850182612f2c565b5060408201516104e0604085018261351b565b805161010083019061350884826134a0565b5060208201516104e060808501826134a0565b612f148161397b565b6000611e368284612f88565b60208101610ba48284612f1a565b60208101610ba48284612f0b565b6040810161355a8285612f1a565b611e366020830184612f1a565b608081016135758287612f1a565b6135826020830186612f1a565b61358f6040830185612f1a565b61359c6060830184612f2c565b95945050505050565b60c081016135b38289612f1a565b6135c06020830188612f1a565b6135cd6040830187612f2c565b6135da6060830186612f1a565b6135e76080830185612f2c565b6135f460a0830184612f2c565b979650505050505050565b6060810161360d8286612f1a565b61361a6020830185612f1a565b611c226040830184612f2c565b604081016136358285612f1a565b611e366020830184612f2c565b608081016136508287612f1a565b6135826020830186612f2c565b60a0810161366b8288612f1a565b6136786020830187612f2c565b6136856040830186612f1a565b6136926060830185612f2c565b61369f6080830184612f2c565b9695505050505050565b60a081016136b78288612f1a565b6136c46020830187612f2c565b6136d16040830186612f1a565b6136de6060830185612f2c565b61369f6080830184612f47565b604081016136f98285612f1a565b8181036020830152611e338184612f50565b606081016137198285612f1a565b611e366020830184613375565b6101008101613735828a612f1a565b6137426020830189613375565b61374f6060830188612f1a565b61375c6080830187612f2c565b61376960a0830186612f2c565b61377660c0830185612f2c565b81810360e08301526137888184612f50565b9998505050505050505050565b606081016137a38286612f1a565b61361a6020830185612f2c565b60208101610ba48284612f23565b60208101610ba48284612f2c565b60208101610ba48284612f35565b604081016137e88285612f35565b611e366020830184612f35565b604081016136358285612f2c565b60208082528101611e368184612f50565b602080825281016105e681612fb7565b602080825281016105e681613009565b602080825281016105e681613091565b602080825281016105e6816130f0565b602080825281016105e68161314f565b602080825281016105e6816131a9565b602080825281016105e681613208565b602080825281016105e681613279565b602080825281016105e6816132c9565b602080825281016105e681613327565b6102a08101610ba4828461342c565b6102e081016138d28286612f2c565b6138df602083018561342c565b611c226102c0830184612f1a565b6040518181016001600160401b038111828210171561390b57600080fd5b604052919050565b60006001600160401b0382111561392957600080fd5b506020601f91909101601f19160190565b5190565b90815260200190565b60006105e68261396f565b151590565b90565b60006105e682613947565b806105e9816139e4565b6001600160a01b031690565b60ff1690565b60006105e68261395a565b60006105e682613965565b60006105e682613957565b82818337506000910152565b60005b838110156139c95781810151838201526020016139b1565b838111156104e05750506000910152565b601f01601f191690565b600281106139ee57fe5b50565b6139fa81613947565b81146139ee57600080fd5b6139fa81613952565b6139fa81613957565b6139fa8161395a565b600281106139ee57600080fd5b6139fa8161397b56fe4f72646572206e6f6e6365206e6f74207374726963746c792067726561746572a365627a7a723158207aa7e220e0d9082f025223d92a0f2fba7bf330df17734067d66044902545ebc76c6578706572696d656e74616cf564736f6c634300050c0040",
  "source": "/*\n * Hubii Nahmii\n *\n * Compliant with the Hubii Nahmii specification v0.12.\n *\n * Copyright (C) 2017-2018 Hubii AS\n */\n\npragma solidity >=0.4.25 <0.6.0;\npragma experimental ABIEncoderV2;\n\nimport {Ownable} from \"./Ownable.sol\";\nimport {Configurable} from \"./Configurable.sol\";\nimport {ValidatableV2} from \"./ValidatableV2.sol\";\nimport {SecurityBondable} from \"./SecurityBondable.sol\";\nimport {WalletLockable} from \"./WalletLockable.sol\";\nimport {BalanceTrackable} from \"./BalanceTrackable.sol\";\nimport {FraudChallengable} from \"./FraudChallengable.sol\";\nimport {CancelOrdersChallengable} from \"./CancelOrdersChallengable.sol\";\nimport {Servable} from \"./Servable.sol\";\nimport {SafeMathIntLib} from \"./SafeMathIntLib.sol\";\nimport {SafeMathUintLib} from \"./SafeMathUintLib.sol\";\nimport {MonetaryTypesLib} from \"./MonetaryTypesLib.sol\";\nimport {TradeTypesLib} from \"./TradeTypesLib.sol\";\nimport {SettlementChallengeTypesLib} from \"./SettlementChallengeTypesLib.sol\";\nimport {NullSettlementChallengeState} from \"./NullSettlementChallengeState.sol\";\nimport {BalanceTracker} from \"./BalanceTracker.sol\";\nimport {BalanceTrackerLib} from \"./BalanceTrackerLib.sol\";\n\n/**\n * @title NullSettlementDisputeByOrder\n * @notice The where order related disputes of null settlement challenge happens\n */\ncontract NullSettlementDisputeByOrder is Ownable, Configurable, ValidatableV2, SecurityBondable, WalletLockable,\nBalanceTrackable, FraudChallengable, CancelOrdersChallengable, Servable {\n    using SafeMathIntLib for int256;\n    using SafeMathUintLib for uint256;\n    using BalanceTrackerLib for BalanceTracker;\n\n    //\n    // Constants\n    // -----------------------------------------------------------------------------------------------------------------\n    string constant public CHALLENGE_BY_ORDER_ACTION = \"challenge_by_order\";\n\n    //\n    // Variables\n    // -----------------------------------------------------------------------------------------------------------------\n    NullSettlementChallengeState public nullSettlementChallengeState;\n\n    //\n    // Events\n    // -----------------------------------------------------------------------------------------------------------------\n    event SetNullSettlementChallengeStateEvent(NullSettlementChallengeState oldNullSettlementChallengeState,\n        NullSettlementChallengeState newNullSettlementChallengeState);\n    event ChallengeByOrderEvent(uint256 nonce, TradeTypesLib.Order order, address challenger);\n\n    //\n    // Constructor\n    // -----------------------------------------------------------------------------------------------------------------\n    constructor(address deployer) Ownable(deployer) public {\n    }\n\n    /// @notice Set the settlement challenge state contract\n    /// @param newNullSettlementChallengeState The (address of) NullSettlementChallengeState contract instance\n    function setNullSettlementChallengeState(NullSettlementChallengeState newNullSettlementChallengeState) public\n    onlyDeployer\n    notNullAddress(address(newNullSettlementChallengeState))\n    {\n        NullSettlementChallengeState oldNullSettlementChallengeState = nullSettlementChallengeState;\n        nullSettlementChallengeState = newNullSettlementChallengeState;\n        emit SetNullSettlementChallengeStateEvent(oldNullSettlementChallengeState, nullSettlementChallengeState);\n    }\n\n    /// @notice Challenge the settlement by providing order candidate\n    /// @param order The order candidate that challenges\n    /// @param challenger The address of the challenger\n    /// @dev If (candidate) order has buy intention consider _conjugate_ currency and amount, else\n    /// if (candidate) order has sell intention consider _intended_ currency and amount\n    function challengeByOrder(TradeTypesLib.Order memory order, address challenger)\n    public\n    onlyEnabledServiceAction(CHALLENGE_BY_ORDER_ACTION)\n    onlySealedOrder(order)\n    {\n        // Require that candidate order is not labelled fraudulent\n        require(\n            !fraudChallenge.isFraudulentOrderHash(order.seals.operator.hash),\n            \"Order deemed fraudulent [NullSettlementDisputeByOrder.sol:85]\"\n        );\n\n        // Require that candidate order is not labelled cancelled\n        require(\n            !cancelOrdersChallenge.isOrderCancelled(order.wallet, order.seals.operator.hash),\n            \"Order deemed cancelled [NullSettlementDisputeByOrder.sol:91]\"\n        );\n\n        // Get the relevant currency\n        MonetaryTypesLib.Currency memory currency = _orderCurrency(order);\n\n        // Require that proposal has been initiated\n        require(\n            nullSettlementChallengeState.hasProposal(order.wallet, currency),\n            \"No proposal found [NullSettlementDisputeByOrder.sol:100]\"\n        );\n\n        // Require that proposal has not expired\n        require(\n            !nullSettlementChallengeState.hasProposalExpired(order.wallet, currency),\n            \"Proposal found expired [NullSettlementDisputeByOrder.sol:106]\"\n        );\n\n        // Require that orders's nonce is strictly greater than proposal's nonce and its current\n        // disqualification nonce\n        require(\n            order.nonce > nullSettlementChallengeState.proposalNonce(order.wallet, currency),\n            \"Order nonce not strictly greater than proposal nonce [NullSettlementDisputeByOrder.sol:113]\"\n        );\n        require(\n            order.nonce > nullSettlementChallengeState.proposalDisqualificationNonce(order.wallet, currency),\n            \"Order nonce not strictly greater than proposal disqualification nonce [NullSettlementDisputeByOrder.sol:117]\"\n        );\n\n        // Require overrun for this trade to be a valid challenge candidate\n        require(_orderOverrun(order, currency), \"No order overrun found [NullSettlementDisputeByOrder.sol:123]\");\n\n        // TODO Adjust when TradeTypesLib.OrderParty has been furnished with balances\n        // Reward challenger\n        _settleRewards(order.wallet, _orderTransferAmount(order), currency, challenger);\n\n        // Disqualify proposal, effectively overriding any previous disqualification\n        nullSettlementChallengeState.disqualifyProposal(\n            order.wallet, currency, challenger, order.blockNumber,\n            order.nonce, order.seals.operator.hash, TradeTypesLib.ORDER_KIND()\n        );\n\n        // Emit event\n        emit ChallengeByOrderEvent(\n            nullSettlementChallengeState.proposalNonce(order.wallet, currency), order, challenger\n        );\n    }\n\n    //\n    // Private functions\n    // -----------------------------------------------------------------------------------------------------------------\n    function _orderOverrun(TradeTypesLib.Order memory order, MonetaryTypesLib.Currency memory currency)\n    private\n    view\n    returns (bool)\n    {\n        // Get the target balance amount from the proposal\n        int targetBalanceAmount = nullSettlementChallengeState.proposalTargetBalanceAmount(\n            order.wallet, currency\n        );\n\n        // Get the change in active balance since the start of the challenge\n        int256 deltaBalanceSinceStart = balanceTracker.fungibleActiveBalanceAmount(\n            order.wallet, currency\n        ).sub(\n            balanceTracker.fungibleActiveBalanceAmountByBlockNumber(\n                order.wallet, currency,\n                nullSettlementChallengeState.proposalReferenceBlockNumber(order.wallet, currency)\n            )\n        );\n\n        // Get the cumulative transfer of the trade\n        // TODO Remove when TradeTypesLib.OrderParty has been furnished with balances\n        int256 orderCumulativeTransfer = _orderTransferAmount(order).mul(- 1);\n        // TODO Uncomment when TradeTypesLib.OrderParty has been furnished with balances\n        //        int256 orderCumulativeTransfer = _orderBalanceAmount(order.wallet, trade).sub(\n        //            balanceTracker.fungibleActiveBalanceAmountByBlockNumber(order.wallet, currency, trade.blockNumber)\n        //        );\n\n        return targetBalanceAmount.add(deltaBalanceSinceStart) < orderCumulativeTransfer.mul(- 1);\n    }\n\n    // Get the candidate order currency\n    // Buy order -> Conjugate currency\n    // Sell order -> Intended currency\n    function _orderCurrency(TradeTypesLib.Order memory order)\n    private\n    pure\n    returns (MonetaryTypesLib.Currency memory)\n    {\n        return TradeTypesLib.Intention.Sell == order.placement.intention ?\n        order.placement.currencies.intended :\n        order.placement.currencies.conjugate;\n    }\n\n    // TODO Uncomment when TradeTypesLib.OrderParty has been furnished with balances\n    // Get the candidate order balance amount\n    // Buy order -> Conjugate balance\n    // Sell order -> Intended balance\n    //    function _orderBalanceAmount(TradeTypesLib.Order memory order)\n    //    private\n    //    pure\n    //    returns (MonetaryTypesLib.Currency memory)\n    //    {\n    //        return TradeTypesLib.Intention.Sell == order.placement.intention ?\n    //        order.party.balances.intended :\n    //        order.party.balances.conjugate;\n    //    }\n\n    // TODO Remove when TradeTypesLib.OrderParty has been furnished with balances\n    // Get the candidate order transfer\n    // Buy order -> Conjugate transfer\n    // Sell order -> Intended transfer\n    function _orderTransferAmount(TradeTypesLib.Order memory order)\n    private\n    pure\n    returns (int256)\n    {\n        return TradeTypesLib.Intention.Sell == order.placement.intention ?\n        order.placement.amount :\n        order.placement.amount.div(order.placement.rate);\n    }\n\n    function _settleRewards(address wallet, int256 walletAmount, MonetaryTypesLib.Currency memory currency,\n        address challenger)\n    private\n    {\n        if (nullSettlementChallengeState.proposalWalletInitiated(wallet, currency))\n            _settleBalanceReward(wallet, walletAmount, currency, challenger);\n\n        else\n            _settleSecurityBondReward(wallet, walletAmount, currency, challenger);\n    }\n\n    function _settleBalanceReward(address wallet, int256 walletAmount, MonetaryTypesLib.Currency memory currency,\n        address challenger)\n    private\n    {\n        // Unlock wallet/currency for existing challenger if previously locked\n        if (SettlementChallengeTypesLib.Status.Disqualified == nullSettlementChallengeState.proposalStatus(\n            wallet, currency\n        ))\n            walletLocker.unlockFungibleByProxy(\n                wallet,\n                nullSettlementChallengeState.proposalDisqualificationChallenger(\n                    wallet, currency\n                ),\n                currency.ct, currency.id\n            );\n\n        // Lock wallet for new challenger\n        walletLocker.lockFungibleByProxy(\n            wallet, challenger, walletAmount, currency.ct, currency.id, configuration.settlementChallengeTimeout()\n        );\n    }\n\n    // Settle the two-component reward from security bond.\n    // The first component is flat figure as obtained from Configuration\n    // The second component is progressive and calculated as\n    //    min(walletAmount, fraction of SecurityBond's deposited balance)\n    // both amounts for the given currency\n    function _settleSecurityBondReward(address wallet, int256 walletAmount, MonetaryTypesLib.Currency memory currency,\n        address challenger)\n    private\n    {\n        // Deprive existing challenger of reward if previously locked\n        if (SettlementChallengeTypesLib.Status.Disqualified == nullSettlementChallengeState.proposalStatus(\n            wallet, currency\n        ))\n            securityBond.depriveAbsolute(\n                nullSettlementChallengeState.proposalDisqualificationChallenger(\n                    wallet, currency\n                ),\n                currency.ct, currency.id\n            );\n\n        // Reward the flat component\n        MonetaryTypesLib.Figure memory flatReward = _flatReward();\n        securityBond.rewardAbsolute(\n            challenger, flatReward.amount, flatReward.currency.ct, flatReward.currency.id, 0\n        );\n\n        // Reward the progressive component\n        int256 progressiveRewardAmount = walletAmount.clampMax(\n            securityBond.depositedFractionalBalance(\n                currency.ct, currency.id, configuration.operatorSettlementStakeFraction()\n            )\n        );\n        securityBond.rewardAbsolute(\n            challenger, progressiveRewardAmount, currency.ct, currency.id, 0\n        );\n    }\n\n    function _flatReward()\n    private\n    view\n    returns (MonetaryTypesLib.Figure memory)\n    {\n        (int256 amount, address currencyCt, uint256 currencyId) = configuration.operatorSettlementStake();\n        return MonetaryTypesLib.Figure(amount, MonetaryTypesLib.Currency(currencyCt, currencyId));\n    }\n}",
  "sourcePath": "/opt/buildagent/work/855e104608380c36/contracts/NullSettlementDisputeByOrder.sol",
  "compiler": {
    "name": "solc",
    "version": "0.5.12+commit.7709ece9.Emscripten.clang"
  },
  "schemaVersion": "2.0.3",
  "updatedAt": "2019-10-23T00:21:41.128Z"
}