{
  "contractName": "NullSettlementChallengeByPayment",
  "abi": [
    {
      "inputs": [
        {
          "internalType": "address",
          "name": "deployer",
          "type": "address"
        }
      ],
      "payable": false,
      "stateMutability": "nonpayable",
      "type": "constructor"
    },
    {
      "anonymous": false,
      "inputs": [
        {
          "indexed": false,
          "internalType": "address",
          "name": "challengedWallet",
          "type": "address"
        },
        {
          "indexed": false,
          "internalType": "uint256",
          "name": "nonce",
          "type": "uint256"
        },
        {
          "indexed": false,
          "internalType": "int256",
          "name": "stageAmount",
          "type": "int256"
        },
        {
          "indexed": false,
          "internalType": "int256",
          "name": "targetBalanceAmount",
          "type": "int256"
        },
        {
          "indexed": false,
          "internalType": "address",
          "name": "currencyCt",
          "type": "address"
        },
        {
          "indexed": false,
          "internalType": "uint256",
          "name": "currencyId",
          "type": "uint256"
        },
        {
          "indexed": false,
          "internalType": "address",
          "name": "challengerWallet",
          "type": "address"
        }
      ],
      "name": "ChallengeByPaymentEvent",
      "type": "event"
    },
    {
      "anonymous": false,
      "inputs": [],
      "name": "FreezeBalanceTrackerEvent",
      "type": "event"
    },
    {
      "anonymous": false,
      "inputs": [],
      "name": "FreezeWalletLockerEvent",
      "type": "event"
    },
    {
      "anonymous": false,
      "inputs": [
        {
          "indexed": false,
          "internalType": "address",
          "name": "wallet",
          "type": "address"
        }
      ],
      "name": "SelfDestructionDisabledEvent",
      "type": "event"
    },
    {
      "anonymous": false,
      "inputs": [
        {
          "indexed": false,
          "internalType": "contract BalanceTracker",
          "name": "oldBalanceTracker",
          "type": "address"
        },
        {
          "indexed": false,
          "internalType": "contract BalanceTracker",
          "name": "newBalanceTracker",
          "type": "address"
        }
      ],
      "name": "SetBalanceTrackerEvent",
      "type": "event"
    },
    {
      "anonymous": false,
      "inputs": [
        {
          "indexed": false,
          "internalType": "contract Configuration",
          "name": "oldConfiguration",
          "type": "address"
        },
        {
          "indexed": false,
          "internalType": "contract Configuration",
          "name": "newConfiguration",
          "type": "address"
        }
      ],
      "name": "SetConfigurationEvent",
      "type": "event"
    },
    {
      "anonymous": false,
      "inputs": [
        {
          "indexed": false,
          "internalType": "address",
          "name": "oldDeployer",
          "type": "address"
        },
        {
          "indexed": false,
          "internalType": "address",
          "name": "newDeployer",
          "type": "address"
        }
      ],
      "name": "SetDeployerEvent",
      "type": "event"
    },
    {
      "anonymous": false,
      "inputs": [
        {
          "indexed": false,
          "internalType": "contract DriipSettlementChallengeState",
          "name": "oldDriipSettlementChallengeState",
          "type": "address"
        },
        {
          "indexed": false,
          "internalType": "contract DriipSettlementChallengeState",
          "name": "newDriipSettlementChallengeState",
          "type": "address"
        }
      ],
      "name": "SetDriipSettlementChallengeStateEvent",
      "type": "event"
    },
    {
      "anonymous": false,
      "inputs": [
        {
          "indexed": false,
          "internalType": "contract NullSettlementChallengeState",
          "name": "oldNullSettlementChallengeState",
          "type": "address"
        },
        {
          "indexed": false,
          "internalType": "contract NullSettlementChallengeState",
          "name": "newNullSettlementChallengeState",
          "type": "address"
        }
      ],
      "name": "SetNullSettlementChallengeStateEvent",
      "type": "event"
    },
    {
      "anonymous": false,
      "inputs": [
        {
          "indexed": false,
          "internalType": "contract NullSettlementDisputeByPayment",
          "name": "oldNullSettlementDisputeByPayment",
          "type": "address"
        },
        {
          "indexed": false,
          "internalType": "contract NullSettlementDisputeByPayment",
          "name": "newNullSettlementDisputeByPayment",
          "type": "address"
        }
      ],
      "name": "SetNullSettlementDisputeByPaymentEvent",
      "type": "event"
    },
    {
      "anonymous": false,
      "inputs": [
        {
          "indexed": false,
          "internalType": "address",
          "name": "oldOperator",
          "type": "address"
        },
        {
          "indexed": false,
          "internalType": "address",
          "name": "newOperator",
          "type": "address"
        }
      ],
      "name": "SetOperatorEvent",
      "type": "event"
    },
    {
      "anonymous": false,
      "inputs": [
        {
          "indexed": false,
          "internalType": "contract WalletLocker",
          "name": "oldWalletLocker",
          "type": "address"
        },
        {
          "indexed": false,
          "internalType": "contract WalletLocker",
          "name": "newWalletLocker",
          "type": "address"
        }
      ],
      "name": "SetWalletLockerEvent",
      "type": "event"
    },
    {
      "anonymous": false,
      "inputs": [
        {
          "indexed": false,
          "internalType": "address",
          "name": "wallet",
          "type": "address"
        },
        {
          "indexed": false,
          "internalType": "uint256",
          "name": "nonce",
          "type": "uint256"
        },
        {
          "indexed": false,
          "internalType": "int256",
          "name": "stageAmount",
          "type": "int256"
        },
        {
          "indexed": false,
          "internalType": "int256",
          "name": "targetBalanceAmount",
          "type": "int256"
        },
        {
          "indexed": false,
          "internalType": "address",
          "name": "currencyCt",
          "type": "address"
        },
        {
          "indexed": false,
          "internalType": "uint256",
          "name": "currencyId",
          "type": "uint256"
        },
        {
          "indexed": false,
          "internalType": "address",
          "name": "proxy",
          "type": "address"
        }
      ],
      "name": "StartChallengeByProxyEvent",
      "type": "event"
    },
    {
      "anonymous": false,
      "inputs": [
        {
          "indexed": false,
          "internalType": "address",
          "name": "wallet",
          "type": "address"
        },
        {
          "indexed": false,
          "internalType": "uint256",
          "name": "nonce",
          "type": "uint256"
        },
        {
          "indexed": false,
          "internalType": "int256",
          "name": "stageAmount",
          "type": "int256"
        },
        {
          "indexed": false,
          "internalType": "int256",
          "name": "targetBalanceAmount",
          "type": "int256"
        },
        {
          "indexed": false,
          "internalType": "address",
          "name": "currencyCt",
          "type": "address"
        },
        {
          "indexed": false,
          "internalType": "uint256",
          "name": "currencyId",
          "type": "uint256"
        }
      ],
      "name": "StartChallengeEvent",
      "type": "event"
    },
    {
      "anonymous": false,
      "inputs": [
        {
          "indexed": false,
          "internalType": "address",
          "name": "wallet",
          "type": "address"
        },
        {
          "indexed": false,
          "internalType": "uint256",
          "name": "nonce",
          "type": "uint256"
        },
        {
          "indexed": false,
          "internalType": "int256",
          "name": "stageAmount",
          "type": "int256"
        },
        {
          "indexed": false,
          "internalType": "int256",
          "name": "targetBalanceAmount",
          "type": "int256"
        },
        {
          "indexed": false,
          "internalType": "address",
          "name": "currencyCt",
          "type": "address"
        },
        {
          "indexed": false,
          "internalType": "uint256",
          "name": "currencyId",
          "type": "uint256"
        },
        {
          "indexed": false,
          "internalType": "address",
          "name": "proxy",
          "type": "address"
        }
      ],
      "name": "StopChallengeByProxyEvent",
      "type": "event"
    },
    {
      "anonymous": false,
      "inputs": [
        {
          "indexed": false,
          "internalType": "address",
          "name": "wallet",
          "type": "address"
        },
        {
          "indexed": false,
          "internalType": "uint256",
          "name": "nonce",
          "type": "uint256"
        },
        {
          "indexed": false,
          "internalType": "int256",
          "name": "stageAmount",
          "type": "int256"
        },
        {
          "indexed": false,
          "internalType": "int256",
          "name": "targetBalanceAmount",
          "type": "int256"
        },
        {
          "indexed": false,
          "internalType": "address",
          "name": "currencyCt",
          "type": "address"
        },
        {
          "indexed": false,
          "internalType": "uint256",
          "name": "currencyId",
          "type": "uint256"
        }
      ],
      "name": "StopChallengeEvent",
      "type": "event"
    },
    {
      "anonymous": false,
      "inputs": [
        {
          "indexed": false,
          "internalType": "address",
          "name": "wallet",
          "type": "address"
        }
      ],
      "name": "TriggerSelfDestructionEvent",
      "type": "event"
    },
    {
      "constant": true,
      "inputs": [],
      "name": "balanceTracker",
      "outputs": [
        {
          "internalType": "contract BalanceTracker",
          "name": "",
          "type": "address"
        }
      ],
      "payable": false,
      "stateMutability": "view",
      "type": "function"
    },
    {
      "constant": true,
      "inputs": [],
      "name": "balanceTrackerFrozen",
      "outputs": [
        {
          "internalType": "bool",
          "name": "",
          "type": "bool"
        }
      ],
      "payable": false,
      "stateMutability": "view",
      "type": "function"
    },
    {
      "constant": true,
      "inputs": [],
      "name": "configuration",
      "outputs": [
        {
          "internalType": "contract Configuration",
          "name": "",
          "type": "address"
        }
      ],
      "payable": false,
      "stateMutability": "view",
      "type": "function"
    },
    {
      "constant": true,
      "inputs": [],
      "name": "deployer",
      "outputs": [
        {
          "internalType": "address",
          "name": "",
          "type": "address"
        }
      ],
      "payable": false,
      "stateMutability": "view",
      "type": "function"
    },
    {
      "constant": true,
      "inputs": [],
      "name": "destructor",
      "outputs": [
        {
          "internalType": "address",
          "name": "",
          "type": "address"
        }
      ],
      "payable": false,
      "stateMutability": "view",
      "type": "function"
    },
    {
      "constant": false,
      "inputs": [],
      "name": "disableSelfDestruction",
      "outputs": [],
      "payable": false,
      "stateMutability": "nonpayable",
      "type": "function"
    },
    {
      "constant": true,
      "inputs": [],
      "name": "driipSettlementChallengeState",
      "outputs": [
        {
          "internalType": "contract DriipSettlementChallengeState",
          "name": "",
          "type": "address"
        }
      ],
      "payable": false,
      "stateMutability": "view",
      "type": "function"
    },
    {
      "constant": false,
      "inputs": [],
      "name": "freezeBalanceTracker",
      "outputs": [],
      "payable": false,
      "stateMutability": "nonpayable",
      "type": "function"
    },
    {
      "constant": false,
      "inputs": [],
      "name": "freezeWalletLocker",
      "outputs": [],
      "payable": false,
      "stateMutability": "nonpayable",
      "type": "function"
    },
    {
      "constant": true,
      "inputs": [],
      "name": "nullSettlementChallengeState",
      "outputs": [
        {
          "internalType": "contract NullSettlementChallengeState",
          "name": "",
          "type": "address"
        }
      ],
      "payable": false,
      "stateMutability": "view",
      "type": "function"
    },
    {
      "constant": true,
      "inputs": [],
      "name": "nullSettlementDisputeByPayment",
      "outputs": [
        {
          "internalType": "contract NullSettlementDisputeByPayment",
          "name": "",
          "type": "address"
        }
      ],
      "payable": false,
      "stateMutability": "view",
      "type": "function"
    },
    {
      "constant": true,
      "inputs": [],
      "name": "operator",
      "outputs": [
        {
          "internalType": "address",
          "name": "",
          "type": "address"
        }
      ],
      "payable": false,
      "stateMutability": "view",
      "type": "function"
    },
    {
      "constant": true,
      "inputs": [],
      "name": "selfDestructionDisabled",
      "outputs": [
        {
          "internalType": "bool",
          "name": "",
          "type": "bool"
        }
      ],
      "payable": false,
      "stateMutability": "view",
      "type": "function"
    },
    {
      "constant": false,
      "inputs": [
        {
          "internalType": "contract BalanceTracker",
          "name": "newBalanceTracker",
          "type": "address"
        }
      ],
      "name": "setBalanceTracker",
      "outputs": [],
      "payable": false,
      "stateMutability": "nonpayable",
      "type": "function"
    },
    {
      "constant": false,
      "inputs": [
        {
          "internalType": "contract Configuration",
          "name": "newConfiguration",
          "type": "address"
        }
      ],
      "name": "setConfiguration",
      "outputs": [],
      "payable": false,
      "stateMutability": "nonpayable",
      "type": "function"
    },
    {
      "constant": false,
      "inputs": [
        {
          "internalType": "address",
          "name": "newDeployer",
          "type": "address"
        }
      ],
      "name": "setDeployer",
      "outputs": [],
      "payable": false,
      "stateMutability": "nonpayable",
      "type": "function"
    },
    {
      "constant": false,
      "inputs": [
        {
          "internalType": "address",
          "name": "newOperator",
          "type": "address"
        }
      ],
      "name": "setOperator",
      "outputs": [],
      "payable": false,
      "stateMutability": "nonpayable",
      "type": "function"
    },
    {
      "constant": false,
      "inputs": [
        {
          "internalType": "contract WalletLocker",
          "name": "newWalletLocker",
          "type": "address"
        }
      ],
      "name": "setWalletLocker",
      "outputs": [],
      "payable": false,
      "stateMutability": "nonpayable",
      "type": "function"
    },
    {
      "constant": false,
      "inputs": [],
      "name": "triggerSelfDestruction",
      "outputs": [],
      "payable": false,
      "stateMutability": "nonpayable",
      "type": "function"
    },
    {
      "constant": true,
      "inputs": [],
      "name": "walletLocker",
      "outputs": [
        {
          "internalType": "contract WalletLocker",
          "name": "",
          "type": "address"
        }
      ],
      "payable": false,
      "stateMutability": "view",
      "type": "function"
    },
    {
      "constant": true,
      "inputs": [],
      "name": "walletLockerFrozen",
      "outputs": [
        {
          "internalType": "bool",
          "name": "",
          "type": "bool"
        }
      ],
      "payable": false,
      "stateMutability": "view",
      "type": "function"
    },
    {
      "constant": false,
      "inputs": [
        {
          "internalType": "contract NullSettlementDisputeByPayment",
          "name": "newNullSettlementDisputeByPayment",
          "type": "address"
        }
      ],
      "name": "setNullSettlementDisputeByPayment",
      "outputs": [],
      "payable": false,
      "stateMutability": "nonpayable",
      "type": "function"
    },
    {
      "constant": false,
      "inputs": [
        {
          "internalType": "contract NullSettlementChallengeState",
          "name": "newNullSettlementChallengeState",
          "type": "address"
        }
      ],
      "name": "setNullSettlementChallengeState",
      "outputs": [],
      "payable": false,
      "stateMutability": "nonpayable",
      "type": "function"
    },
    {
      "constant": false,
      "inputs": [
        {
          "internalType": "contract DriipSettlementChallengeState",
          "name": "newDriipSettlementChallengeState",
          "type": "address"
        }
      ],
      "name": "setDriipSettlementChallengeState",
      "outputs": [],
      "payable": false,
      "stateMutability": "nonpayable",
      "type": "function"
    },
    {
      "constant": false,
      "inputs": [
        {
          "internalType": "int256",
          "name": "amount",
          "type": "int256"
        },
        {
          "internalType": "address",
          "name": "currencyCt",
          "type": "address"
        },
        {
          "internalType": "uint256",
          "name": "currencyId",
          "type": "uint256"
        }
      ],
      "name": "startChallenge",
      "outputs": [],
      "payable": false,
      "stateMutability": "nonpayable",
      "type": "function"
    },
    {
      "constant": false,
      "inputs": [
        {
          "internalType": "address",
          "name": "wallet",
          "type": "address"
        },
        {
          "internalType": "int256",
          "name": "amount",
          "type": "int256"
        },
        {
          "internalType": "address",
          "name": "currencyCt",
          "type": "address"
        },
        {
          "internalType": "uint256",
          "name": "currencyId",
          "type": "uint256"
        }
      ],
      "name": "startChallengeByProxy",
      "outputs": [],
      "payable": false,
      "stateMutability": "nonpayable",
      "type": "function"
    },
    {
      "constant": false,
      "inputs": [
        {
          "internalType": "address",
          "name": "currencyCt",
          "type": "address"
        },
        {
          "internalType": "uint256",
          "name": "currencyId",
          "type": "uint256"
        }
      ],
      "name": "stopChallenge",
      "outputs": [],
      "payable": false,
      "stateMutability": "nonpayable",
      "type": "function"
    },
    {
      "constant": false,
      "inputs": [
        {
          "internalType": "address",
          "name": "wallet",
          "type": "address"
        },
        {
          "internalType": "address",
          "name": "currencyCt",
          "type": "address"
        },
        {
          "internalType": "uint256",
          "name": "currencyId",
          "type": "uint256"
        }
      ],
      "name": "stopChallengeByProxy",
      "outputs": [],
      "payable": false,
      "stateMutability": "nonpayable",
      "type": "function"
    },
    {
      "constant": true,
      "inputs": [
        {
          "internalType": "address",
          "name": "wallet",
          "type": "address"
        },
        {
          "internalType": "address",
          "name": "currencyCt",
          "type": "address"
        },
        {
          "internalType": "uint256",
          "name": "currencyId",
          "type": "uint256"
        }
      ],
      "name": "hasProposal",
      "outputs": [
        {
          "internalType": "bool",
          "name": "",
          "type": "bool"
        }
      ],
      "payable": false,
      "stateMutability": "view",
      "type": "function"
    },
    {
      "constant": true,
      "inputs": [
        {
          "internalType": "address",
          "name": "wallet",
          "type": "address"
        },
        {
          "internalType": "address",
          "name": "currencyCt",
          "type": "address"
        },
        {
          "internalType": "uint256",
          "name": "currencyId",
          "type": "uint256"
        }
      ],
      "name": "hasProposalTerminated",
      "outputs": [
        {
          "internalType": "bool",
          "name": "",
          "type": "bool"
        }
      ],
      "payable": false,
      "stateMutability": "view",
      "type": "function"
    },
    {
      "constant": true,
      "inputs": [
        {
          "internalType": "address",
          "name": "wallet",
          "type": "address"
        },
        {
          "internalType": "address",
          "name": "currencyCt",
          "type": "address"
        },
        {
          "internalType": "uint256",
          "name": "currencyId",
          "type": "uint256"
        }
      ],
      "name": "hasProposalExpired",
      "outputs": [
        {
          "internalType": "bool",
          "name": "",
          "type": "bool"
        }
      ],
      "payable": false,
      "stateMutability": "view",
      "type": "function"
    },
    {
      "constant": true,
      "inputs": [
        {
          "internalType": "address",
          "name": "wallet",
          "type": "address"
        },
        {
          "internalType": "address",
          "name": "currencyCt",
          "type": "address"
        },
        {
          "internalType": "uint256",
          "name": "currencyId",
          "type": "uint256"
        }
      ],
      "name": "proposalNonce",
      "outputs": [
        {
          "internalType": "uint256",
          "name": "",
          "type": "uint256"
        }
      ],
      "payable": false,
      "stateMutability": "view",
      "type": "function"
    },
    {
      "constant": true,
      "inputs": [
        {
          "internalType": "address",
          "name": "wallet",
          "type": "address"
        },
        {
          "internalType": "address",
          "name": "currencyCt",
          "type": "address"
        },
        {
          "internalType": "uint256",
          "name": "currencyId",
          "type": "uint256"
        }
      ],
      "name": "proposalReferenceBlockNumber",
      "outputs": [
        {
          "internalType": "uint256",
          "name": "",
          "type": "uint256"
        }
      ],
      "payable": false,
      "stateMutability": "view",
      "type": "function"
    },
    {
      "constant": true,
      "inputs": [
        {
          "internalType": "address",
          "name": "wallet",
          "type": "address"
        },
        {
          "internalType": "address",
          "name": "currencyCt",
          "type": "address"
        },
        {
          "internalType": "uint256",
          "name": "currencyId",
          "type": "uint256"
        }
      ],
      "name": "proposalExpirationTime",
      "outputs": [
        {
          "internalType": "uint256",
          "name": "",
          "type": "uint256"
        }
      ],
      "payable": false,
      "stateMutability": "view",
      "type": "function"
    },
    {
      "constant": true,
      "inputs": [
        {
          "internalType": "address",
          "name": "wallet",
          "type": "address"
        },
        {
          "internalType": "address",
          "name": "currencyCt",
          "type": "address"
        },
        {
          "internalType": "uint256",
          "name": "currencyId",
          "type": "uint256"
        }
      ],
      "name": "proposalStatus",
      "outputs": [
        {
          "internalType": "enum SettlementChallengeTypesLib.Status",
          "name": "",
          "type": "uint8"
        }
      ],
      "payable": false,
      "stateMutability": "view",
      "type": "function"
    },
    {
      "constant": true,
      "inputs": [
        {
          "internalType": "address",
          "name": "wallet",
          "type": "address"
        },
        {
          "internalType": "address",
          "name": "currencyCt",
          "type": "address"
        },
        {
          "internalType": "uint256",
          "name": "currencyId",
          "type": "uint256"
        }
      ],
      "name": "proposalStageAmount",
      "outputs": [
        {
          "internalType": "int256",
          "name": "",
          "type": "int256"
        }
      ],
      "payable": false,
      "stateMutability": "view",
      "type": "function"
    },
    {
      "constant": true,
      "inputs": [
        {
          "internalType": "address",
          "name": "wallet",
          "type": "address"
        },
        {
          "internalType": "address",
          "name": "currencyCt",
          "type": "address"
        },
        {
          "internalType": "uint256",
          "name": "currencyId",
          "type": "uint256"
        }
      ],
      "name": "proposalTargetBalanceAmount",
      "outputs": [
        {
          "internalType": "int256",
          "name": "",
          "type": "int256"
        }
      ],
      "payable": false,
      "stateMutability": "view",
      "type": "function"
    },
    {
      "constant": true,
      "inputs": [
        {
          "internalType": "address",
          "name": "wallet",
          "type": "address"
        },
        {
          "internalType": "address",
          "name": "currencyCt",
          "type": "address"
        },
        {
          "internalType": "uint256",
          "name": "currencyId",
          "type": "uint256"
        }
      ],
      "name": "proposalWalletInitiated",
      "outputs": [
        {
          "internalType": "bool",
          "name": "",
          "type": "bool"
        }
      ],
      "payable": false,
      "stateMutability": "view",
      "type": "function"
    },
    {
      "constant": true,
      "inputs": [
        {
          "internalType": "address",
          "name": "wallet",
          "type": "address"
        },
        {
          "internalType": "address",
          "name": "currencyCt",
          "type": "address"
        },
        {
          "internalType": "uint256",
          "name": "currencyId",
          "type": "uint256"
        }
      ],
      "name": "proposalDisqualificationChallenger",
      "outputs": [
        {
          "internalType": "address",
          "name": "",
          "type": "address"
        }
      ],
      "payable": false,
      "stateMutability": "view",
      "type": "function"
    },
    {
      "constant": true,
      "inputs": [
        {
          "internalType": "address",
          "name": "wallet",
          "type": "address"
        },
        {
          "internalType": "address",
          "name": "currencyCt",
          "type": "address"
        },
        {
          "internalType": "uint256",
          "name": "currencyId",
          "type": "uint256"
        }
      ],
      "name": "proposalDisqualificationBlockNumber",
      "outputs": [
        {
          "internalType": "uint256",
          "name": "",
          "type": "uint256"
        }
      ],
      "payable": false,
      "stateMutability": "view",
      "type": "function"
    },
    {
      "constant": true,
      "inputs": [
        {
          "internalType": "address",
          "name": "wallet",
          "type": "address"
        },
        {
          "internalType": "address",
          "name": "currencyCt",
          "type": "address"
        },
        {
          "internalType": "uint256",
          "name": "currencyId",
          "type": "uint256"
        }
      ],
      "name": "proposalDisqualificationCandidateKind",
      "outputs": [
        {
          "internalType": "string",
          "name": "",
          "type": "string"
        }
      ],
      "payable": false,
      "stateMutability": "view",
      "type": "function"
    },
    {
      "constant": true,
      "inputs": [
        {
          "internalType": "address",
          "name": "wallet",
          "type": "address"
        },
        {
          "internalType": "address",
          "name": "currencyCt",
          "type": "address"
        },
        {
          "internalType": "uint256",
          "name": "currencyId",
          "type": "uint256"
        }
      ],
      "name": "proposalDisqualificationCandidateHash",
      "outputs": [
        {
          "internalType": "bytes32",
          "name": "",
          "type": "bytes32"
        }
      ],
      "payable": false,
      "stateMutability": "view",
      "type": "function"
    },
    {
      "constant": false,
      "inputs": [
        {
          "internalType": "address",
          "name": "wallet",
          "type": "address"
        },
        {
          "components": [
            {
              "internalType": "int256",
              "name": "amount",
              "type": "int256"
            },
            {
              "components": [
                {
                  "internalType": "address",
                  "name": "ct",
                  "type": "address"
                },
                {
                  "internalType": "uint256",
                  "name": "id",
                  "type": "uint256"
                }
              ],
              "internalType": "struct MonetaryTypesLib.Currency",
              "name": "currency",
              "type": "tuple"
            },
            {
              "components": [
                {
                  "internalType": "uint256",
                  "name": "nonce",
                  "type": "uint256"
                },
                {
                  "internalType": "address",
                  "name": "wallet",
                  "type": "address"
                },
                {
                  "components": [
                    {
                      "internalType": "int256",
                      "name": "current",
                      "type": "int256"
                    },
                    {
                      "internalType": "int256",
                      "name": "previous",
                      "type": "int256"
                    }
                  ],
                  "internalType": "struct NahmiiTypesLib.CurrentPreviousInt256",
                  "name": "balances",
                  "type": "tuple"
                },
                {
                  "components": [
                    {
                      "components": [
                        {
                          "internalType": "int256",
                          "name": "amount",
                          "type": "int256"
                        },
                        {
                          "components": [
                            {
                              "internalType": "address",
                              "name": "ct",
                              "type": "address"
                            },
                            {
                              "internalType": "uint256",
                              "name": "id",
                              "type": "uint256"
                            }
                          ],
                          "internalType": "struct MonetaryTypesLib.Currency",
                          "name": "currency",
                          "type": "tuple"
                        }
                      ],
                      "internalType": "struct MonetaryTypesLib.Figure",
                      "name": "single",
                      "type": "tuple"
                    },
                    {
                      "components": [
                        {
                          "internalType": "uint256",
                          "name": "originId",
                          "type": "uint256"
                        },
                        {
                          "components": [
                            {
                              "internalType": "int256",
                              "name": "amount",
                              "type": "int256"
                            },
                            {
                              "components": [
                                {
                                  "internalType": "address",
                                  "name": "ct",
                                  "type": "address"
                                },
                                {
                                  "internalType": "uint256",
                                  "name": "id",
                                  "type": "uint256"
                                }
                              ],
                              "internalType": "struct MonetaryTypesLib.Currency",
                              "name": "currency",
                              "type": "tuple"
                            }
                          ],
                          "internalType": "struct MonetaryTypesLib.Figure",
                          "name": "figure",
                          "type": "tuple"
                        }
                      ],
                      "internalType": "struct NahmiiTypesLib.OriginFigure[]",
                      "name": "total",
                      "type": "tuple[]"
                    }
                  ],
                  "internalType": "struct NahmiiTypesLib.SingleFigureTotalOriginFigures",
                  "name": "fees",
                  "type": "tuple"
                },
                {
                  "internalType": "string",
                  "name": "data",
                  "type": "string"
                }
              ],
              "internalType": "struct PaymentTypesLib.PaymentSenderParty",
              "name": "sender",
              "type": "tuple"
            },
            {
              "components": [
                {
                  "internalType": "uint256",
                  "name": "nonce",
                  "type": "uint256"
                },
                {
                  "internalType": "address",
                  "name": "wallet",
                  "type": "address"
                },
                {
                  "components": [
                    {
                      "internalType": "int256",
                      "name": "current",
                      "type": "int256"
                    },
                    {
                      "internalType": "int256",
                      "name": "previous",
                      "type": "int256"
                    }
                  ],
                  "internalType": "struct NahmiiTypesLib.CurrentPreviousInt256",
                  "name": "balances",
                  "type": "tuple"
                },
                {
                  "components": [
                    {
                      "components": [
                        {
                          "internalType": "uint256",
                          "name": "originId",
                          "type": "uint256"
                        },
                        {
                          "components": [
                            {
                              "internalType": "int256",
                              "name": "amount",
                              "type": "int256"
                            },
                            {
                              "components": [
                                {
                                  "internalType": "address",
                                  "name": "ct",
                                  "type": "address"
                                },
                                {
                                  "internalType": "uint256",
                                  "name": "id",
                                  "type": "uint256"
                                }
                              ],
                              "internalType": "struct MonetaryTypesLib.Currency",
                              "name": "currency",
                              "type": "tuple"
                            }
                          ],
                          "internalType": "struct MonetaryTypesLib.Figure",
                          "name": "figure",
                          "type": "tuple"
                        }
                      ],
                      "internalType": "struct NahmiiTypesLib.OriginFigure[]",
                      "name": "total",
                      "type": "tuple[]"
                    }
                  ],
                  "internalType": "struct NahmiiTypesLib.TotalOriginFigures",
                  "name": "fees",
                  "type": "tuple"
                }
              ],
              "internalType": "struct PaymentTypesLib.PaymentRecipientParty",
              "name": "recipient",
              "type": "tuple"
            },
            {
              "components": [
                {
                  "internalType": "int256",
                  "name": "single",
                  "type": "int256"
                },
                {
                  "internalType": "int256",
                  "name": "total",
                  "type": "int256"
                }
              ],
              "internalType": "struct NahmiiTypesLib.SingleTotalInt256",
              "name": "transfers",
              "type": "tuple"
            },
            {
              "components": [
                {
                  "components": [
                    {
                      "internalType": "bytes32",
                      "name": "hash",
                      "type": "bytes32"
                    },
                    {
                      "components": [
                        {
                          "internalType": "bytes32",
                          "name": "r",
                          "type": "bytes32"
                        },
                        {
                          "internalType": "bytes32",
                          "name": "s",
                          "type": "bytes32"
                        },
                        {
                          "internalType": "uint8",
                          "name": "v",
                          "type": "uint8"
                        }
                      ],
                      "internalType": "struct NahmiiTypesLib.Signature",
                      "name": "signature",
                      "type": "tuple"
                    }
                  ],
                  "internalType": "struct NahmiiTypesLib.Seal",
                  "name": "wallet",
                  "type": "tuple"
                },
                {
                  "components": [
                    {
                      "internalType": "bytes32",
                      "name": "hash",
                      "type": "bytes32"
                    },
                    {
                      "components": [
                        {
                          "internalType": "bytes32",
                          "name": "r",
                          "type": "bytes32"
                        },
                        {
                          "internalType": "bytes32",
                          "name": "s",
                          "type": "bytes32"
                        },
                        {
                          "internalType": "uint8",
                          "name": "v",
                          "type": "uint8"
                        }
                      ],
                      "internalType": "struct NahmiiTypesLib.Signature",
                      "name": "signature",
                      "type": "tuple"
                    }
                  ],
                  "internalType": "struct NahmiiTypesLib.Seal",
                  "name": "operator",
                  "type": "tuple"
                }
              ],
              "internalType": "struct NahmiiTypesLib.WalletOperatorSeal",
              "name": "seals",
              "type": "tuple"
            },
            {
              "internalType": "uint256",
              "name": "blockNumber",
              "type": "uint256"
            },
            {
              "components": [
                {
                  "internalType": "uint256",
                  "name": "id",
                  "type": "uint256"
                },
                {
                  "internalType": "string",
                  "name": "data",
                  "type": "string"
                }
              ],
              "internalType": "struct PaymentTypesLib.Operator",
              "name": "operator",
              "type": "tuple"
            }
          ],
          "internalType": "struct PaymentTypesLib.Payment",
          "name": "payment",
          "type": "tuple"
        }
      ],
      "name": "challengeByPayment",
      "outputs": [],
      "payable": false,
      "stateMutability": "nonpayable",
      "type": "function"
    }
  ],
  "bytecode": "0x60806040523480156200001157600080fd5b5060405162003d9d38038062003d9d8339810160408190526200003491620000b3565b80806001600160a01b0381166200004a57600080fd5b6001600160a01b0381163014156200006157600080fd5b5060008054610100600160a81b0319166101006001600160a01b0393909316928302179055600180546001600160a01b03191690911790555062000108565b8051620000ad81620000ee565b92915050565b600060208284031215620000c657600080fd5b6000620000d48484620000a0565b949350505050565b60006001600160a01b038216620000ad565b620000f981620000dc565b81146200010557600080fd5b50565b613c8580620001186000396000f3fe608060405234801561001057600080fd5b50600436106101f95760003560e01c80630712abb0146101fe57806316987929146102275780631913909214610247578063240625d81461025c5780632738a112146102715780632aa1c9d91461027b5780632f013a001461028e5780633a9a5169146102965780633bebdcb5146102a95780633e59b706146102bc57806342cb4587146102c4578063432737a9146102d75780634476d23b146102df57806346d1d3c4146102f457806351d7cd6114610307578063570ca7351461030f578063598b75ad146103175780635dc60def1461032a578063627f09c3146103325780636c70bee9146103455780636ccb43c81461034d5780636de6a5d21461036057806370327ea1146103735780637da5b11c1461037b578063892860b21461038e578063911eb965146103a157806396214735146103b4578063972fcee0146103c7578063adfb6778146103da578063b3ab15fb146103ed578063b52d470a14610400578063bb9357de14610408578063c19df1e41461041b578063c1c681651461042e578063ca7f47ed14610441578063cdbf941914610461578063d5b68c6214610474578063d5f3948814610487578063e8ae41e31461048f578063f7b8761714610497578063fa7424f2146104aa578063fb1a825e146104b2578063fcd30b02146104c5575b600080fd5b61021161020c366004612e9a565b6104d8565b60405161021e9190613a1f565b60405180910390f35b61023a610235366004612e9a565b61057b565b60405161021e91906139e8565b61024f610614565b60405161021e91906139f6565b610264610623565b60405161021e91906139da565b610279610633565b005b610279610289366004613005565b610699565b610264610720565b6102796102a4366004613005565b610729565b6102646102b7366004612e9a565b6107a3565b61026461083c565b61023a6102d2366004612e9a565b61084c565b61024f610895565b6102e76108a4565b60405161021e91906137cf565b610264610302366004612e9a565b6108b8565b61024f610901565b6102e7610910565b610279610325366004613005565b61091f565b6102796109f3565b610279610340366004613005565b610a42565b61024f610ad3565b61027961035b366004613005565b610ae2565b61023a61036e366004612e9a565b610b5c565b610279610ba5565b610264610389366004612e9a565b610c08565b61027961039c366004613005565b610c51565b6102796103af366004612f48565b610d0c565b6102796103c2366004612e56565b610ff5565b6102796103d5366004612e9a565b6110ab565b61023a6103e8366004612e9a565b6112be565b6102796103fb366004612e56565b611307565b6102796113aa565b610264610416366004612e9a565b6113f9565b610279610429366004612f99565b611442565b61027961043c366004613041565b611634565b61045461044f366004612e9a565b611841565b60405161021e9190613a2d565b61023a61046f366004612e9a565b6118de565b61023a610482366004612e9a565b611927565b6102e7611970565b61024f611984565b6102796104a5366004612ee7565b611993565b61024f611b17565b61023a6104c0366004612e9a565b611b26565b6102e76104d3366004612e9a565b611b6f565b6006546040805180820182526001600160a01b03858116825260208201859052915163b6e2fc3360e01b8152600093929092169163b6e2fc3391610521918891906004016138b0565b60206040518083038186803b15801561053957600080fd5b505afa15801561054d573d6000803e3d6000fd5b505050506040513d601f19601f820116820180604052506105719190810190613023565b90505b9392505050565b6006546040805180820182526001600160a01b03858116825260208201859052915163c46fcd7560e01b8152600093929092169163c46fcd75916105c4918891906004016138b0565b60206040518083038186803b1580156105dc57600080fd5b505afa1580156105f0573d6000803e3d6000fd5b505050506040513d601f19601f820116820180604052506105719190810190612fe7565b6003546001600160a01b031681565b600454600160a01b900460ff1681565b3361063c6108a4565b6001600160a01b03161461064f57600080fd5b60005460ff161561065f57600080fd5b7f787a5d936e74f4b564b9153575886059829c78cd9927b1be5e0d976b317ef7363360405161068e91906137dd565b60405180910390a133ff5b6106a1611c08565b6106aa57600080fd5b806001600160a01b0381166106be57600080fd5b600780546001600160a01b038481166001600160a01b031983161792839055604051918116927f4f7125332801996cdeaabf9cff1ac89ddf4b52c673558936affe853ab64a88da926107139285921690613a04565b60405180910390a1505050565b60005460ff1681565b610731611c08565b61073a57600080fd5b806001600160a01b03811661074e57600080fd5b600580546001600160a01b038481166001600160a01b031983161792839055604051918116927fc6df38d22dc8a254e1252fc1b697f23c5120d8f4b93ee52e02c167913724e5a1926107139285921690613a04565b6006546040805180820182526001600160a01b038581168252602082018590529151635482c73560e01b81526000939290921691635482c735916107ec918891906004016138b0565b60206040518083038186803b15801561080457600080fd5b505afa158015610818573d6000803e3d6000fd5b505050506040513d601f19601f820116820180604052506105719190810190612fc9565b600354600160a01b900460ff1681565b6006546040805180820182526001600160a01b038581168252602082018590529151633007230f60e11b8152600093929092169163600e461e916105c4918891906004016138b0565b6005546001600160a01b031681565b60005461010090046001600160a01b031690565b6006546040805180820182526001600160a01b038581168252602082018590529151637ff81c3760e01b81526000939290921691637ff81c37916107ec918891906004016138b0565b6007546001600160a01b031681565b6001546001600160a01b031681565b610927611c08565b61093057600080fd5b806001600160a01b03811661094457600080fd5b60035482906001600160a01b0390811690821681146109ed57600354600160a01b900460ff16156109905760405162461bcd60e51b815260040161098790613a5e565b60405180910390fd5b600380546001600160a01b038681166001600160a01b03198316179092556040519116907fb2a91d3a71b0c5bc7c083153b3474378e489506ba98bd4ddb1b9056fdc594bb5906109e39083908890613a04565b60405180910390a1505b50505050565b6109fb611c08565b610a0457600080fd5b6004805460ff60a01b1916600160a01b1790556040517f56ec8900b9c4bf84f4b715a53068ca06961dd49084c07b481931e2c2045346e690600090a1565b610a4a611c08565b610a5357600080fd5b806001600160a01b038116610a6757600080fd5b60025482906001600160a01b0390811690821681146109ed57600280546001600160a01b038681166001600160a01b03198316179092556040519116907f634f61bf00e14adedce330c80c2823e16e184f189ebe853e1ddecc4a268477ff906109e39083908890613a04565b6002546001600160a01b031681565b610aea611c08565b610af357600080fd5b806001600160a01b038116610b0757600080fd5b600680546001600160a01b038481166001600160a01b031983161792839055604051918116927ff21c127205310467822e10c64b2d9ffae588e019194d6af71f2bdddc0b7ef526926107139285921690613a04565b6006546040805180820182526001600160a01b03858116825260208201859052915163374852cb60e11b81526000939290921691636e90a596916105c4918891906004016138b0565b33610bae6108a4565b6001600160a01b031614610bc157600080fd5b6000805460ff191660011790556040517fd5a2a04a775c741c2ca0dc46ea7ce4835190e1aaf1ca018def0e82568ec3361690610bfe9033906137dd565b60405180910390a1565b6006546040805180820182526001600160a01b0385811682526020820185905291516333ca4eab60e21b8152600093929092169163cf293aac916107ec918891906004016138b0565b610c59611c08565b610c6257600080fd5b806001600160a01b038116610c7657600080fd5b60045482906001600160a01b0390811690821681146109ed57600454600160a01b900460ff1615610cb95760405162461bcd60e51b815260040161098790613aae565b600480546001600160a01b038681166001600160a01b03198316179092556040519116907fa44d361e26327b72a7ccbeae801b3c5cd7677ea4fa74168b289e273c46bfecfc906109e39083908890613a04565b600260009054906101000a90046001600160a01b03166001600160a01b031663f71e860f6040518163ffffffff1660e01b815260040160206040518083038186803b158015610d5a57600080fd5b505afa158015610d6e573d6000803e3d6000fd5b505050506040513d601f19601f82011682018060405250610d929190810190612fc9565b610dae5760405162461bcd60e51b815260040161098790613a3e565b600554604051630eae657960e11b81526001600160a01b0390911690631d5ccaf290610de2908590859033906004016138e6565b600060405180830381600087803b158015610dfc57600080fd5b505af1158015610e10573d6000803e3d6000fd5b50506006546020840151604051632ee2ed2560e01b81527f816c32add3b1eb6d7b4021fb065f85035aa258ad260c90b7d62dec06994e7d0d94508693506001600160a01b0390921691632ee2ed2591610e6e918591906004016138b0565b60206040518083038186803b158015610e8657600080fd5b505afa158015610e9a573d6000803e3d6000fd5b505050506040513d601f19601f82011682018060405250610ebe9190810190612fe7565b6006546020850151604051633007230f60e11b81526001600160a01b039092169163600e461e91610ef4918991906004016138b0565b60206040518083038186803b158015610f0c57600080fd5b505afa158015610f20573d6000803e3d6000fd5b505050506040513d601f19601f82011682018060405250610f449190810190612fe7565b600654602086015160405163c46fcd7560e01b81526001600160a01b039092169163c46fcd7591610f7a918a91906004016138b0565b60206040518083038186803b158015610f9257600080fd5b505afa158015610fa6573d6000803e3d6000fd5b505050506040513d601f19601f82011682018060405250610fca9190810190612fe7565b6020808701518051910151604051610fe9969594939291903390613915565b60405180910390a15050565b610ffd611c08565b61100657600080fd5b806001600160a01b03811661101a57600080fd5b6001600160a01b03811630141561103057600080fd5b6000546001600160a01b0383811661010090920416146110a757600080546001600160a01b03848116610100908102610100600160a81b03198416179093556040519290910416907f977e5fa58e458501775e0008d275006294c5249e3c08d1d0e3a9f3acad14f6e4906107139083908690613860565b5050565b6110b3611c1e565b6110bc57600080fd5b6110c46127f1565b6040518060400160405280846001600160a01b031681526020018381525090506110f084826000611c2f565b600654604051632ee2ed2560e01b81527f331a7a95f54f8fd2f704fc347c5fbc74dbe69df9d036ab5ab588141816c9ce719186916001600160a01b0390911690632ee2ed259061114690849087906004016138b0565b60206040518083038186803b15801561115e57600080fd5b505afa158015611172573d6000803e3d6000fd5b505050506040513d601f19601f820116820180604052506111969190810190612fe7565b600654604051633007230f60e11b81526001600160a01b039091169063600e461e906111c8908a9088906004016138b0565b60206040518083038186803b1580156111e057600080fd5b505afa1580156111f4573d6000803e3d6000fd5b505050506040513d601f19601f820116820180604052506112189190810190612fe7565b60065460405163c46fcd7560e01b81526001600160a01b039091169063c46fcd759061124a908b9089906004016138b0565b60206040518083038186803b15801561126257600080fd5b505afa158015611276573d6000803e3d6000fd5b505050506040513d601f19601f8201168201806040525061129a9190810190612fe7565b8787336040516112b09796959493929190613915565b60405180910390a150505050565b6006546040805180820182526001600160a01b038581168252602082018590529151631b90e3c160e01b81526000939290921691631b90e3c1916105c4918891906004016138b0565b61130f611c1e565b61131857600080fd5b806001600160a01b03811661132c57600080fd5b6001600160a01b03811630141561134257600080fd5b6001546001600160a01b038381169116146110a757600180546001600160a01b038481166001600160a01b03198316179092556040519116907f9f611b789425d0d5b90b920f1b2852907dd865c80074a30b1629aaa041d1812c906107139083908690613860565b6113b2611c08565b6113bb57600080fd5b6003805460ff60a01b1916600160a01b1790556040517f9c567b65fe8caab5ec7bc979a498a1322c1d4baf01a30727cbca137187560ea290600090a1565b6006546040805180820182526001600160a01b03858116825260208201859052915163076470a560e31b81526000939290921691633b238528916107ec918891906004016138b0565b61144a6127f1565b6040518060400160405280846001600160a01b0316815260200183815250905061147633826001611c2f565b600654604051632ee2ed2560e01b81527f2f3367cd03f2b565585b46dd1847e4281e1da4344ee0951b37a4e3744429ee719133916001600160a01b0390911690632ee2ed25906114cc90849087906004016137eb565b60206040518083038186803b1580156114e457600080fd5b505afa1580156114f8573d6000803e3d6000fd5b505050506040513d601f19601f8201168201806040525061151c9190810190612fe7565b600654604051633007230f60e11b81526001600160a01b039091169063600e461e9061154e90339088906004016137eb565b60206040518083038186803b15801561156657600080fd5b505afa15801561157a573d6000803e3d6000fd5b505050506040513d601f19601f8201168201806040525061159e9190810190612fe7565b60065460405163c46fcd7560e01b81526001600160a01b039091169063c46fcd75906115d090339089906004016137eb565b60206040518083038186803b1580156115e857600080fd5b505afa1580156115fc573d6000803e3d6000fd5b505050506040513d601f19601f820116820180604052506116209190810190612fe7565b878760405161071396959493929190613806565b60048054604051631293efbb60e21b81526001600160a01b0390911691634a4fbeec91611663913391016137dd565b60206040518083038186803b15801561167b57600080fd5b505afa15801561168f573d6000803e3d6000fd5b505050506040513d601f19601f820116820180604052506116b39190810190612fc9565b156116d05760405162461bcd60e51b815260040161098790613a8e565b6116d86127f1565b6040518060400160405280846001600160a01b031681526020018381525090506117053385836001611dd7565b600654604051632ee2ed2560e01b81527f9fd18f38c7e2276025a98cb5db3f31de60aafb2e54cc249475b00ed5512040379133916001600160a01b0390911690632ee2ed259061175b90849087906004016137eb565b60206040518083038186803b15801561177357600080fd5b505afa158015611787573d6000803e3d6000fd5b505050506040513d601f19601f820116820180604052506117ab9190810190612fe7565b60065460405163c46fcd7560e01b815288916001600160a01b03169063c46fcd75906117dd90339089906004016137eb565b60206040518083038186803b1580156117f557600080fd5b505afa158015611809573d6000803e3d6000fd5b505050506040513d601f19601f8201168201806040525061182d9190810190612fe7565b87876040516112b096959493929190613806565b6006546040805180820182526001600160a01b03858116825260208201859052915163160ed0cd60e11b81526060939290921691632c1da19a9161188a918891906004016138b0565b60006040518083038186803b1580156118a257600080fd5b505afa1580156118b6573d6000803e3d6000fd5b505050506040513d6000823e601f3d908101601f191682016040526105719190810190613092565b6006546040805180820182526001600160a01b038581168252602082018590529151632ee2ed2560e01b81526000939290921691632ee2ed25916105c4918891906004016138b0565b6006546040805180820182526001600160a01b0385811682526020820185905291516345a76a6160e11b81526000939290921691638b4ed4c2916105c4918891906004016138b0565b60005461010090046001600160a01b031681565b6004546001600160a01b031681565b61199b611c1e565b6119a457600080fd5b6119ac6127f1565b6040518060400160405280846001600160a01b031681526020018381525090506119d98585836000611dd7565b600654604051632ee2ed2560e01b81527f1c1550c804afba781c62ad68b7d90fa1fcbb95c8181a5cce15e5973c7ab0cfdc9187916001600160a01b0390911690632ee2ed2590611a2f90849087906004016138b0565b60206040518083038186803b158015611a4757600080fd5b505afa158015611a5b573d6000803e3d6000fd5b505050506040513d601f19601f82011682018060405250611a7f9190810190612fe7565b60065460405163c46fcd7560e01b815288916001600160a01b03169063c46fcd7590611ab1908c9089906004016138b0565b60206040518083038186803b158015611ac957600080fd5b505afa158015611add573d6000803e3d6000fd5b505050506040513d601f19601f82011682018060405250611b019190810190612fe7565b8787336040516109e39796959493929190613915565b6006546001600160a01b031681565b6006546040805180820182526001600160a01b0385811682526020820185905291516356ec907560e01b815260009392909216916356ec9075916105c4918891906004016138b0565b6006546040805180820182526001600160a01b038581168252602082018590529151635658722960e01b81526000939290921691635658722991611bb8918891906004016138b0565b60206040518083038186803b158015611bd057600080fd5b505afa158015611be4573d6000803e3d6000fd5b505050506040513d601f19601f820116820180604052506105719190810190612e7c565b60005461010090046001600160a01b0316331490565b6001546001600160a01b0316331490565b60065460405163076470a560e31b81526001600160a01b0390911690633b23852890611c6190869086906004016138b0565b60206040518083038186803b158015611c7957600080fd5b505afa158015611c8d573d6000803e3d6000fd5b505050506040513d601f19601f82011682018060405250611cb19190810190612fc9565b611ccd5760405162461bcd60e51b815260040161098790613a4e565b600654604051637ff81c3760e01b81526001600160a01b0390911690637ff81c3790611cff90869086906004016138b0565b60206040518083038186803b158015611d1757600080fd5b505afa158015611d2b573d6000803e3d6000fd5b505050506040513d601f19601f82011682018060405250611d4f9190810190612fc9565b15611d6c5760405162461bcd60e51b815260040161098790613a6e565b60065460405163524ad18360e11b81526001600160a01b039091169063a495a30690611da0908690869086906004016138be565b600060405180830381600087803b158015611dba57600080fd5b505af1158015611dce573d6000803e3d6000fd5b50505050505050565b600260009054906101000a90046001600160a01b03166001600160a01b031663b6bf41766040518163ffffffff1660e01b815260040160206040518083038186803b158015611e2557600080fd5b505afa158015611e39573d6000803e3d6000fd5b505050506040513d601f19601f82011682018060405250611e5d9190810190612fe7565b431015611e7c5760405162461bcd60e51b815260040161098790613a7e565b60065460405163076470a560e31b81526001600160a01b0390911690633b23852890611eae90879086906004016138b0565b60206040518083038186803b158015611ec657600080fd5b505afa158015611eda573d6000803e3d6000fd5b505050506040513d601f19601f82011682018060405250611efe9190810190612fc9565b1580611f875750600654604051635482c73560e01b81526001600160a01b0390911690635482c73590611f3790879086906004016138b0565b60206040518083038186803b158015611f4f57600080fd5b505afa158015611f63573d6000803e3d6000fd5b505050506040513d601f19601f82011682018060405250611f879190810190612fc9565b611fa35760405162461bcd60e51b815260040161098790613a9e565b6000806000806000611fb58988612068565b600654949950929750909550935091506001600160a01b031663ba5152888a838b612006611ff982611fed8b8b63ffffffff6124cd16565b9063ffffffff6124cd16565b8b9063ffffffff61250c16565b8c8a8d6040518863ffffffff1660e01b815260040161202b979695949392919061397d565b600060405180830381600087803b15801561204557600080fd5b505af1158015612059573d6000803e3d6000fd5b50505050505050505050505050565b6003546000908190819081908190612090906001600160a01b0316888863ffffffff61253f16565b60075460405163076470a560e31b81529297509095506001600160a01b031690633b238528906120c6908a908a906004016138b0565b60206040518083038186803b1580156120de57600080fd5b505afa1580156120f2573d6000803e3d6000fd5b505050506040513d601f19601f820116820180604052506121169190810190612fc9565b1561232e57600754604051637ff81c3760e01b81526001600160a01b0390911690637ff81c379061214d908a908a906004016138b0565b60206040518083038186803b15801561216557600080fd5b505afa158015612179573d6000803e3d6000fd5b505050506040513d601f19601f8201168201806040525061219d9190810190612fc9565b6122a957600754604051638ab3e96560e01b81526001600160a01b0390911690638ab3e965906121d3908a908a906004016138b0565b60206040518083038186803b1580156121eb57600080fd5b505afa1580156121ff573d6000803e3d6000fd5b505050506040513d601f19601f820116820180604052506122239190810190612fe7565b600754604051633007230f60e11b81529194506001600160a01b03169063600e461e90612256908a908a906004016138b0565b60206040518083038186803b15801561226e57600080fd5b505afa158015612282573d6000803e3d6000fd5b505050506040513d601f19601f820116820180604052506122a69190810190612fe7565b91505b600754604051632ee2ed2560e01b81526001600160a01b0390911690632ee2ed25906122db908a908a906004016138b0565b60206040518083038186803b1580156122f357600080fd5b505afa158015612307573d6000803e3d6000fd5b505050506040513d601f19601f8201168201806040525061232b9190810190612fe7565b90505b60065460405163076470a560e31b81526001600160a01b0390911690633b23852890612360908a908a906004016138b0565b60206040518083038186803b15801561237857600080fd5b505afa15801561238c573d6000803e3d6000fd5b505050506040513d601f19601f820116820180604052506123b09190810190612fc9565b156124c357600654604051632ee2ed2560e01b815273__SafeMathUintLib_______________________9163a682d5ad9184916001600160a01b031690632ee2ed2590612403908d908d906004016138b0565b60206040518083038186803b15801561241b57600080fd5b505afa15801561242f573d6000803e3d6000fd5b505050506040513d601f19601f820116820180604052506124539190810190612fe7565b6040518363ffffffff1660e01b8152600401612470929190613abe565b60206040518083038186803b15801561248857600080fd5b505af415801561249c573d6000803e3d6000fd5b505050506040513d601f19601f820116820180604052506124c09190810190612fe7565b90505b9295509295909350565b60008082121580156124e157508282840313155b806124f857506000821280156124f8575082828403135b61250157600080fd5b508082035b92915050565b60008282018183128015906125215750838112155b80612536575060008312801561253657508381125b61057457600080fd5b600080600080866001600160a01b0316636f4a181587896001600160a01b031663ded113106040518163ffffffff1660e01b815260040160206040518083038186803b15801561258e57600080fd5b505afa1580156125a2573d6000803e3d6000fd5b505050506040513d601f19601f820116820180604052506125c69190810190612fe7565b885160208a01516040516001600160e01b031960e087901b1681526125f1949392919060040161387b565b604080518083038186803b15801561260857600080fd5b505afa15801561261c573d6000803e3d6000fd5b505050506040513d601f19601f820116820180604052506126409190810190613062565b91509150600080886001600160a01b0316636f4a1815898b6001600160a01b0316634652ec746040518163ffffffff1660e01b815260040160206040518083038186803b15801561269057600080fd5b505afa1580156126a4573d6000803e3d6000fd5b505050506040513d601f19601f820116820180604052506126c89190810190612fe7565b8a5160208c01516040516001600160e01b031960e087901b1681526126f3949392919060040161387b565b604080518083038186803b15801561270a57600080fd5b505afa15801561271e573d6000803e3d6000fd5b505050506040513d601f19601f820116820180604052506127429190810190613062565b9092509050612757848363ffffffff61250c16565b60405163a682d5ad60e01b815290965073__SafeMathUintLib_______________________9063a682d5ad906127939086908590600401613abe565b60206040518083038186803b1580156127ab57600080fd5b505af41580156127bf573d6000803e3d6000fd5b505050506040513d601f19601f820116820180604052506127e39190810190612fe7565b945050505050935093915050565b604080518082019091526000808252602082015290565b803561250681613bfd565b805161250681613bfd565b600082601f83011261282f57600080fd5b813561284261283d82613aff565b613ad9565b9150818183526020840193506020810190508385608084028201111561286757600080fd5b60005b83811015612895578161287d8882612a69565b8452506020909201916080919091019060010161286a565b5050505092915050565b805161250681613c11565b803561250681613c1a565b805161250681613c1a565b803561250681613c23565b805161250681613c2c565b600082601f8301126128e757600080fd5b81356128f561283d82613b1f565b9150808252602083016020830185838301111561291157600080fd5b61291c838284613bae565b50505092915050565b600082601f83011261293657600080fd5b815161294461283d82613b1f565b9150808252602083016020830185838301111561296057600080fd5b61291c838284613bba565b60006040828403121561297d57600080fd5b6129876040613ad9565b905060006129958484612808565b82525060206129a6848483016128aa565b60208301525092915050565b6000604082840312156129c457600080fd5b6129ce6040613ad9565b9050600061299584846128aa565b6000606082840312156129ee57600080fd5b6129f86040613ad9565b90506000612a0684846128aa565b82525060206129a68484830161296b565b600060408284031215612a2957600080fd5b612a336040613ad9565b90506000612a4184846128aa565b82525060208201356001600160401b03811115612a5d57600080fd5b6129a6848285016128d6565b600060808284031215612a7b57600080fd5b612a856040613ad9565b90506000612a9384846128aa565b82525060206129a6848483016129dc565b600060a08284031215612ab657600080fd5b612ac06080613ad9565b90506000612ace84846128aa565b8252506020612adf84848301612808565b6020830152506040612af3848285016129b2565b60408301525060808201356001600160401b03811115612b1257600080fd5b612b1e84828501612dc6565b60608301525092915050565b600060c08284031215612b3c57600080fd5b612b4660a0613ad9565b90506000612b5484846128aa565b8252506020612b6584848301612808565b6020830152506040612b79848285016129b2565b60408301525060808201356001600160401b03811115612b9857600080fd5b612ba484828501612d74565b60608301525060a08201356001600160401b03811115612bc357600080fd5b612bcf848285016128d6565b60808301525092915050565b60006102208284031215612bee57600080fd5b612bf9610100613ad9565b90506000612c0784846128aa565b8252506020612c188484830161296b565b60208301525060608201356001600160401b03811115612c3757600080fd5b612c4384828501612b2a565b60408301525060808201356001600160401b03811115612c6257600080fd5b612c6e84828501612aa4565b60608301525060a0612c82848285016129b2565b60808301525060e0612c9684828501612e0f565b60a0830152506101e0612cab848285016128aa565b60c0830152506102008201356001600160401b03811115612ccb57600080fd5b612cd784828501612a17565b60e08301525092915050565b600060808284031215612cf557600080fd5b612cff6040613ad9565b90506000612d0d84846128aa565b82525060206129a684848301600060608284031215612d2b57600080fd5b612d356060613ad9565b90506000612d4384846128aa565b8252506020612d54848483016128aa565b6020830152506040612d6884828501612e4b565b60408301525092915050565b600060808284031215612d8657600080fd5b612d906040613ad9565b90506000612d9e84846129dc565b82525060608201356001600160401b03811115612dba57600080fd5b6129a68482850161281e565b600060208284031215612dd857600080fd5b612de26020613ad9565b905081356001600160401b03811115612dfa57600080fd5b612e068482850161281e565b82525092915050565b60006101008284031215612e2257600080fd5b612e2c6040613ad9565b90506000612e3a8484612ce3565b82525060806129a684848301612ce3565b803561250681613c39565b600060208284031215612e6857600080fd5b6000612e748484612808565b949350505050565b600060208284031215612e8e57600080fd5b6000612e748484612813565b600080600060608486031215612eaf57600080fd5b6000612ebb8686612808565b9350506020612ecc86828701612808565b9250506040612edd868287016128aa565b9150509250925092565b60008060008060808587031215612efd57600080fd5b6000612f098787612808565b9450506020612f1a878288016128aa565b9350506040612f2b87828801612808565b9250506060612f3c878288016128aa565b91505092959194509250565b60008060408385031215612f5b57600080fd5b6000612f678585612808565b92505060208301356001600160401b03811115612f8357600080fd5b612f8f85828601612bdb565b9150509250929050565b60008060408385031215612fac57600080fd5b6000612fb88585612808565b9250506020612f8f858286016128aa565b600060208284031215612fdb57600080fd5b6000612e74848461289f565b600060208284031215612ff957600080fd5b6000612e7484846128b5565b60006020828403121561301757600080fd5b6000612e7484846128c0565b60006020828403121561303557600080fd5b6000612e7484846128cb565b60008060006060848603121561305657600080fd5b6000612ebb86866128aa565b6000806040838503121561307557600080fd5b600061308185856128b5565b9250506020612f8f858286016128b5565b6000602082840312156130a457600080fd5b81516001600160401b038111156130ba57600080fd5b612e7484828501612925565b60006130d28383613576565b505060800190565b6130e381613b98565b82525050565b6130e381613b59565b60006130fd82613b4c565b6131078185613b50565b935061311283613b46565b8060005b8381101561314057815161312a88826130c6565b975061313583613b46565b925050600101613116565b509495945050505050565b6130e381613b64565b6130e381613b69565b6130e381613b6c565b6130e381613ba3565b600061317a82613b4c565b6131848185613b50565b9350613194818560208601613bba565b61319d81613be6565b9093019392505050565b60006131b4603f83613b50565b7f4f7065726174696f6e616c206d6f6465206973206e6f74206e6f726d616c205b81527f436f6e666967757261626c654f7065726174696f6e616c2e736f6c3a32325d00602082015260400192915050565b6000613213603c83613b50565b7f4e6f2070726f706f73616c20666f756e64205b4e756c6c536574746c656d656e81527b744368616c6c656e676542795061796d656e742e736f6c3a3438315d60201b602082015260400192915050565b6000613271603083613b50565b7f42616c616e636520747261636b65722066726f7a656e205b42616c616e63655481526f7261636b61626c652e736f6c3a34335d60801b602082015260400192915050565b60006132c3604483613b50565b7f50726f706f73616c20666f756e64207465726d696e61746564205b4e756c6c5381527f6574746c656d656e744368616c6c656e676542795061796d656e742e736f6c3a6020820152633438325d60e01b604082015260600192915050565b600061332f606683613b50565b7f43757272656e7420626c6f636b206e756d6265722062656c6f77206561726c6981527f65737420736574746c656d656e7420626c6f636b206e756d626572205b4e756c60208201527f6c536574746c656d656e744368616c6c656e676542795061796d656e742e736f6040820152656c3a3434335d60d01b606082015260800192915050565b60006133c3603e83613b50565b7f57616c6c657420666f756e64206c6f636b6564205b4e756c6c536574746c656d81527f656e744368616c6c656e676542795061796d656e742e736f6c3a3131365d0000602082015260400192915050565b6000613422605f83613b50565b7f4f7665726c617070696e67206e756c6c20736574746c656d656e74206368616c81527f6c656e67652070726f706f73616c20666f756e64205b4e756c6c536574746c6560208201527f6d656e744368616c6c656e676542795061796d656e742e736f6c3a3434395d00604082015260600192915050565b60006134a7602c83613b50565b7f57616c6c6574206c6f636b65722066726f7a656e205b57616c6c65744c6f636b81526b61626c652e736f6c3a34335d60a01b602082015260400192915050565b805160408301906134f984826130e9565b5060208201516109ed6020850182613154565b805160408301906134f98482613154565b8051606083019061352e8482613154565b5060208201516109ed60208501826134e8565b805160009060408401906135558582613154565b506020830151848203602086015261356d828261316f565b95945050505050565b805160808301906135878482613154565b5060208201516109ed602085018261351d565b805160009060a08401906135ae8582613154565b5060208301516135c160208601826130e9565b5060408301516135d4604086018261350c565b506060830151848203608086015261356d8282613789565b805160009060c08401906136008582613154565b50602083015161361360208601826130e9565b506040830151613626604086018261350c565b506060830151848203608086015261363e828261375d565b915050608083015184820360a086015261356d828261316f565b805160009061022084019061366d8582613154565b50602083015161368060208601826134e8565b506040830151848203606086015261369882826135ec565b915050606083015184820360808601526136b2828261359a565b91505060808301516136c760a086018261350c565b5060a08301516136da60e08601826137a1565b5060c08301516136ee6101e0860182613154565b5060e083015184820361020086015261356d8282613541565b805160808301906137188482613154565b5060208201516109ed6020850182805160608301906137378482613154565b50602082015161374a6020850182613154565b5060408201516109ed60408501826137c6565b80516000906080840190613771858261351d565b506020830151848203606086015261356d82826130f2565b805160208084526000919084019061356d82826130f2565b80516101008301906137b38482613707565b5060208201516109ed6080850182613707565b6130e381613b92565b6020810161250682846130e9565b6020810161250682846130da565b606081016137f982856130da565b61057460208301846134e8565b60c0810161381482896130da565b6138216020830188613154565b61382e6040830187613154565b61383b6060830186613154565b61384860808301856130e9565b61385560a0830184613154565b979650505050505050565b6040810161386e82856130e9565b61057460208301846130e9565b6080810161388982876130e9565b6138966020830186613154565b6138a360408301856130e9565b61356d6060830184613154565b606081016137f982856130e9565b608081016138cc82866130e9565b6138d960208301856134e8565b612e74606083018461314b565b606081016138f482866130e9565b81810360208301526139068185613658565b9050612e7460408301846130da565b60e08101613923828a6130e9565b6139306020830189613154565b61393d6040830188613154565b61394a6060830187613154565b61395760808301866130e9565b61396460a0830185613154565b61397160c08301846130da565b98975050505050505050565b610100810161398c828a6130e9565b6139996020830189613154565b6139a66040830188613154565b6139b36060830187613154565b6139c060808301866134e8565b6139cd60c0830185613154565b61397160e083018461314b565b60208101612506828461314b565b602081016125068284613154565b60208101612506828461315d565b60408101613a12828561315d565b610574602083018461315d565b602081016125068284613166565b60208082528101610574818461316f565b60208082528101612506816131a7565b6020808252810161250681613206565b6020808252810161250681613264565b60208082528101612506816132b6565b6020808252810161250681613322565b60208082528101612506816133b6565b6020808252810161250681613415565b602080825281016125068161349a565b60408101613acc8285613154565b6105746020830184613154565b6040518181016001600160401b0381118282101715613af757600080fd5b604052919050565b60006001600160401b03821115613b1557600080fd5b5060209081020190565b60006001600160401b03821115613b3557600080fd5b506020601f91909101601f19160190565b60200190565b5190565b90815260200190565b600061250682613b86565b151590565b90565b600061250682613b59565b80613b8181613bf0565b919050565b6001600160a01b031690565b60ff1690565b600061250682613b6c565b600061250682613b77565b82818337506000910152565b60005b83811015613bd5578181015183820152602001613bbd565b838111156109ed5750506000910152565b601f01601f191690565b60028110613bfa57fe5b50565b613c0681613b59565b8114613bfa57600080fd5b613c0681613b64565b613c0681613b69565b613c0681613b6c565b60028110613bfa57600080fd5b613c0681613b9256fea365627a7a7231582004398185336bc659ade65233c926a879d98a36f0c4365e3cd218115787c07bbc6c6578706572696d656e74616cf564736f6c634300050c0040",
  "source": "/*\n * Hubii Nahmii\n *\n * Compliant with the Hubii Nahmii specification v0.12.\n *\n * Copyright (C) 2017-2018 Hubii AS\n */\n\npragma solidity >=0.4.25 <0.6.0;\npragma experimental ABIEncoderV2;\n\nimport {Ownable} from \"./Ownable.sol\";\nimport {ConfigurableOperational} from \"./ConfigurableOperational.sol\";\nimport {BalanceTrackable} from \"./BalanceTrackable.sol\";\nimport {WalletLockable} from \"./WalletLockable.sol\";\nimport {SafeMathIntLib} from \"./SafeMathIntLib.sol\";\nimport {SafeMathUintLib} from \"./SafeMathUintLib.sol\";\nimport {NullSettlementDisputeByPayment} from \"./NullSettlementDisputeByPayment.sol\";\nimport {NullSettlementChallengeState} from \"./NullSettlementChallengeState.sol\";\nimport {DriipSettlementChallengeState} from \"./DriipSettlementChallengeState.sol\";\nimport {MonetaryTypesLib} from \"./MonetaryTypesLib.sol\";\nimport {PaymentTypesLib} from \"./PaymentTypesLib.sol\";\nimport {SettlementChallengeTypesLib} from \"./SettlementChallengeTypesLib.sol\";\nimport {BalanceTracker} from \"./BalanceTracker.sol\";\nimport {BalanceTrackerLib} from \"./BalanceTrackerLib.sol\";\n\n/**\n * @title NullSettlementChallengeByPayment\n * @notice Where null settlements pertaining to payments are started and disputed\n */\ncontract NullSettlementChallengeByPayment is Ownable, ConfigurableOperational, BalanceTrackable, WalletLockable {\n    using SafeMathIntLib for int256;\n    using SafeMathUintLib for uint256;\n    using BalanceTrackerLib for BalanceTracker;\n\n    //\n    // Variables\n    // -----------------------------------------------------------------------------------------------------------------\n    NullSettlementDisputeByPayment public nullSettlementDisputeByPayment;\n    NullSettlementChallengeState public nullSettlementChallengeState;\n    DriipSettlementChallengeState public driipSettlementChallengeState;\n\n    //\n    // Events\n    // -----------------------------------------------------------------------------------------------------------------\n    event SetNullSettlementDisputeByPaymentEvent(NullSettlementDisputeByPayment oldNullSettlementDisputeByPayment,\n        NullSettlementDisputeByPayment newNullSettlementDisputeByPayment);\n    event SetNullSettlementChallengeStateEvent(NullSettlementChallengeState oldNullSettlementChallengeState,\n        NullSettlementChallengeState newNullSettlementChallengeState);\n    event SetDriipSettlementChallengeStateEvent(DriipSettlementChallengeState oldDriipSettlementChallengeState,\n        DriipSettlementChallengeState newDriipSettlementChallengeState);\n    event StartChallengeEvent(address wallet, uint256 nonce, int256 stageAmount, int256 targetBalanceAmount,\n        address currencyCt, uint currencyId);\n    event StartChallengeByProxyEvent(address wallet, uint256 nonce, int256 stageAmount, int256 targetBalanceAmount,\n        address currencyCt, uint currencyId, address proxy);\n    event StopChallengeEvent(address wallet, uint256 nonce, int256 stageAmount, int256 targetBalanceAmount,\n        address currencyCt, uint256 currencyId);\n    event StopChallengeByProxyEvent(address wallet, uint256 nonce, int256 stageAmount, int256 targetBalanceAmount,\n        address currencyCt, uint256 currencyId, address proxy);\n    event ChallengeByPaymentEvent(address challengedWallet, uint256 nonce, int256 stageAmount, int256 targetBalanceAmount,\n        address currencyCt, uint256 currencyId, address challengerWallet);\n\n    //\n    // Constructor\n    // -----------------------------------------------------------------------------------------------------------------\n    constructor(address deployer) Ownable(deployer) public {\n    }\n\n    //\n    // Functions\n    // -----------------------------------------------------------------------------------------------------------------\n    /// @notice Set the settlement dispute contract\n    /// @param newNullSettlementDisputeByPayment The (address of) NullSettlementDisputeByPayment contract instance\n    function setNullSettlementDisputeByPayment(NullSettlementDisputeByPayment newNullSettlementDisputeByPayment)\n    public\n    onlyDeployer\n    notNullAddress(address(newNullSettlementDisputeByPayment))\n    {\n        NullSettlementDisputeByPayment oldNullSettlementDisputeByPayment = nullSettlementDisputeByPayment;\n        nullSettlementDisputeByPayment = newNullSettlementDisputeByPayment;\n        emit SetNullSettlementDisputeByPaymentEvent(oldNullSettlementDisputeByPayment, nullSettlementDisputeByPayment);\n    }\n\n    /// @notice Set the null settlement challenge state contract\n    /// @param newNullSettlementChallengeState The (address of) NullSettlementChallengeState contract instance\n    function setNullSettlementChallengeState(NullSettlementChallengeState newNullSettlementChallengeState)\n    public\n    onlyDeployer\n    notNullAddress(address(newNullSettlementChallengeState))\n    {\n        NullSettlementChallengeState oldNullSettlementChallengeState = nullSettlementChallengeState;\n        nullSettlementChallengeState = newNullSettlementChallengeState;\n        emit SetNullSettlementChallengeStateEvent(oldNullSettlementChallengeState, nullSettlementChallengeState);\n    }\n\n    /// @notice Set the driip settlement challenge state contract\n    /// @param newDriipSettlementChallengeState The (address of) DriipSettlementChallengeState contract instance\n    function setDriipSettlementChallengeState(DriipSettlementChallengeState newDriipSettlementChallengeState)\n    public\n    onlyDeployer\n    notNullAddress(address(newDriipSettlementChallengeState))\n    {\n        DriipSettlementChallengeState oldDriipSettlementChallengeState = driipSettlementChallengeState;\n        driipSettlementChallengeState = newDriipSettlementChallengeState;\n        emit SetDriipSettlementChallengeStateEvent(oldDriipSettlementChallengeState, driipSettlementChallengeState);\n    }\n\n    /// @notice Start settlement challenge\n    /// @param amount The concerned amount to stage\n    /// @param currencyCt The address of the concerned currency contract (address(0) == ETH)\n    /// @param currencyId The ID of the concerned currency (0 for ETH and ERC20)\n    function startChallenge(int256 amount, address currencyCt, uint256 currencyId)\n    public\n    {\n        // Require that wallet is not locked\n        require(!walletLocker.isLocked(msg.sender), \"Wallet found locked [NullSettlementChallengeByPayment.sol:116]\");\n\n        // Define currency\n        MonetaryTypesLib.Currency memory currency = MonetaryTypesLib.Currency(currencyCt, currencyId);\n\n        // Start challenge for wallet\n        _startChallenge(msg.sender, amount, currency, true);\n\n        // Emit event\n        emit StartChallengeEvent(\n            msg.sender,\n            nullSettlementChallengeState.proposalNonce(msg.sender, currency),\n            amount,\n            nullSettlementChallengeState.proposalTargetBalanceAmount(msg.sender, currency),\n            currencyCt, currencyId\n        );\n    }\n\n    /// @notice Start settlement challenge for the given wallet\n    /// @param wallet The address of the concerned wallet\n    /// @param amount The concerned amount to stage\n    /// @param currencyCt The address of the concerned currency contract (address(0) == ETH)\n    /// @param currencyId The ID of the concerned currency (0 for ETH and ERC20)\n    function startChallengeByProxy(address wallet, int256 amount, address currencyCt, uint256 currencyId)\n    public\n    onlyOperator\n    {\n        // Define currency\n        MonetaryTypesLib.Currency memory currency = MonetaryTypesLib.Currency(currencyCt, currencyId);\n\n        // Start challenge for wallet\n        _startChallenge(wallet, amount, currency, false);\n\n        // Emit event\n        emit StartChallengeByProxyEvent(\n            wallet,\n            nullSettlementChallengeState.proposalNonce(wallet, currency),\n            amount,\n            nullSettlementChallengeState.proposalTargetBalanceAmount(wallet, currency),\n            currencyCt, currencyId, msg.sender\n        );\n    }\n\n    /// @notice Stop settlement challenge\n    /// @param currencyCt The address of the concerned currency contract (address(0) == ETH)\n    /// @param currencyId The ID of the concerned currency (0 for ETH and ERC20)\n    function stopChallenge(address currencyCt, uint256 currencyId)\n    public\n    {\n        // Define currency\n        MonetaryTypesLib.Currency memory currency = MonetaryTypesLib.Currency(currencyCt, currencyId);\n\n        // Stop challenge\n        _stopChallenge(msg.sender, currency, true);\n\n        // Emit event\n        emit StopChallengeEvent(\n            msg.sender,\n            nullSettlementChallengeState.proposalNonce(msg.sender, currency),\n            nullSettlementChallengeState.proposalStageAmount(msg.sender, currency),\n            nullSettlementChallengeState.proposalTargetBalanceAmount(msg.sender, currency),\n            currencyCt, currencyId\n        );\n    }\n\n    /// @notice Stop settlement challenge\n    /// @param wallet The concerned wallet\n    /// @param currencyCt The address of the concerned currency contract (address(0) == ETH)\n    /// @param currencyId The ID of the concerned currency (0 for ETH and ERC20)\n    function stopChallengeByProxy(address wallet, address currencyCt, uint256 currencyId)\n    public\n    onlyOperator\n    {\n        // Define currency\n        MonetaryTypesLib.Currency memory currency = MonetaryTypesLib.Currency(currencyCt, currencyId);\n\n        // Stop challenge\n        _stopChallenge(wallet, currency, false);\n\n        // Emit event\n        emit StopChallengeByProxyEvent(\n            wallet,\n            nullSettlementChallengeState.proposalNonce(wallet, currency),\n            nullSettlementChallengeState.proposalStageAmount(wallet, currency),\n            nullSettlementChallengeState.proposalTargetBalanceAmount(wallet, currency),\n            currencyCt, currencyId, msg.sender\n        );\n    }\n\n    /// @notice Gauge whether the proposal for the given wallet and currency has been defined\n    /// @param wallet The address of the concerned wallet\n    /// @param currencyCt The address of the concerned currency contract (address(0) == ETH)\n    /// @param currencyId The ID of the concerned currency (0 for ETH and ERC20)\n    /// @return true if proposal has been initiated, else false\n    function hasProposal(address wallet, address currencyCt, uint256 currencyId)\n    public\n    view\n    returns (bool)\n    {\n        return nullSettlementChallengeState.hasProposal(\n            wallet, MonetaryTypesLib.Currency(currencyCt, currencyId)\n        );\n    }\n\n    /// @notice Gauge whether the proposal for the given wallet and currency has terminated\n    /// @param wallet The address of the concerned wallet\n    /// @param currencyCt The address of the concerned currency contract (address(0) == ETH)\n    /// @param currencyId The ID of the concerned currency (0 for ETH and ERC20)\n    /// @return true if proposal has terminated, else false\n    function hasProposalTerminated(address wallet, address currencyCt, uint256 currencyId)\n    public\n    view\n    returns (bool)\n    {\n        return nullSettlementChallengeState.hasProposalTerminated(\n            wallet, MonetaryTypesLib.Currency(currencyCt, currencyId)\n        );\n    }\n\n    /// @notice Gauge whether the proposal for the given wallet and currency has expired\n    /// @param wallet The address of the concerned wallet\n    /// @param currencyCt The address of the concerned currency contract (address(0) == ETH)\n    /// @param currencyId The ID of the concerned currency (0 for ETH and ERC20)\n    /// @return true if proposal has expired, else false\n    function hasProposalExpired(address wallet, address currencyCt, uint256 currencyId)\n    public\n    view\n    returns (bool)\n    {\n        return nullSettlementChallengeState.hasProposalExpired(\n            wallet, MonetaryTypesLib.Currency(currencyCt, currencyId)\n        );\n    }\n\n    /// @notice Get the challenge nonce of the given wallet\n    /// @param wallet The address of the concerned wallet\n    /// @param currencyCt The address of the concerned currency contract (address(0) == ETH)\n    /// @param currencyId The ID of the concerned currency (0 for ETH and ERC20)\n    /// @return The challenge nonce\n    function proposalNonce(address wallet, address currencyCt, uint256 currencyId)\n    public\n    view\n    returns (uint256)\n    {\n        return nullSettlementChallengeState.proposalNonce(\n            wallet, MonetaryTypesLib.Currency(currencyCt, currencyId)\n        );\n    }\n\n    /// @notice Get the settlement proposal block number of the given wallet\n    /// @param wallet The address of the concerned wallet\n    /// @param currencyCt The address of the concerned currency contract (address(0) == ETH)\n    /// @param currencyId The ID of the concerned currency (0 for ETH and ERC20)\n    /// @return The settlement proposal block number\n    function proposalReferenceBlockNumber(address wallet, address currencyCt, uint256 currencyId)\n    public\n    view\n    returns (uint256)\n    {\n        return nullSettlementChallengeState.proposalReferenceBlockNumber(\n            wallet, MonetaryTypesLib.Currency(currencyCt, currencyId)\n        );\n    }\n\n    /// @notice Get the settlement proposal end time of the given wallet\n    /// @param wallet The address of the concerned wallet\n    /// @param currencyCt The address of the concerned currency contract (address(0) == ETH)\n    /// @param currencyId The ID of the concerned currency (0 for ETH and ERC20)\n    /// @return The settlement proposal end time\n    function proposalExpirationTime(address wallet, address currencyCt, uint256 currencyId)\n    public\n    view\n    returns (uint256)\n    {\n        return nullSettlementChallengeState.proposalExpirationTime(\n            wallet, MonetaryTypesLib.Currency(currencyCt, currencyId)\n        );\n    }\n\n    /// @notice Get the challenge status of the given wallet\n    /// @param wallet The address of the concerned wallet\n    /// @param currencyCt The address of the concerned currency contract (address(0) == ETH)\n    /// @param currencyId The ID of the concerned currency (0 for ETH and ERC20)\n    /// @return The challenge status\n    function proposalStatus(address wallet, address currencyCt, uint256 currencyId)\n    public\n    view\n    returns (SettlementChallengeTypesLib.Status)\n    {\n        return nullSettlementChallengeState.proposalStatus(\n            wallet, MonetaryTypesLib.Currency(currencyCt, currencyId)\n        );\n    }\n\n    /// @notice Get the settlement proposal stage amount of the given wallet and currency\n    /// @param wallet The address of the concerned wallet\n    /// @param currencyCt The address of the concerned currency contract (address(0) == ETH)\n    /// @param currencyId The ID of the concerned currency (0 for ETH and ERC20)\n    /// @return The settlement proposal stage amount\n    function proposalStageAmount(address wallet, address currencyCt, uint256 currencyId)\n    public\n    view\n    returns (int256)\n    {\n        return nullSettlementChallengeState.proposalStageAmount(\n            wallet, MonetaryTypesLib.Currency(currencyCt, currencyId)\n        );\n    }\n\n    /// @notice Get the settlement proposal target balance amount of the given wallet and currency\n    /// @param wallet The address of the concerned wallet\n    /// @param currencyCt The address of the concerned currency contract (address(0) == ETH)\n    /// @param currencyId The ID of the concerned currency (0 for ETH and ERC20)\n    /// @return The settlement proposal target balance amount\n    function proposalTargetBalanceAmount(address wallet, address currencyCt, uint256 currencyId)\n    public\n    view\n    returns (int256)\n    {\n        return nullSettlementChallengeState.proposalTargetBalanceAmount(\n            wallet, MonetaryTypesLib.Currency(currencyCt, currencyId)\n        );\n    }\n\n    /// @notice Get the balance reward of the given wallet's settlement proposal\n    /// @param wallet The address of the concerned wallet\n    /// @param currencyCt The address of the concerned currency contract (address(0) == ETH)\n    /// @param currencyId The ID of the concerned currency (0 for ETH and ERC20)\n    /// @return The balance reward of the settlement proposal\n    function proposalWalletInitiated(address wallet, address currencyCt, uint256 currencyId)\n    public\n    view\n    returns (bool)\n    {\n        return nullSettlementChallengeState.proposalWalletInitiated(\n            wallet, MonetaryTypesLib.Currency(currencyCt, currencyId)\n        );\n    }\n\n    /// @notice Get the disqualification challenger of the given wallet and currency\n    /// @param wallet The address of the concerned wallet\n    /// @param currencyCt The address of the concerned currency contract (address(0) == ETH)\n    /// @param currencyId The ID of the concerned currency (0 for ETH and ERC20)\n    /// @return The challenger of the settlement disqualification\n    function proposalDisqualificationChallenger(address wallet, address currencyCt, uint256 currencyId)\n    public\n    view\n    returns (address)\n    {\n        return nullSettlementChallengeState.proposalDisqualificationChallenger(\n            wallet, MonetaryTypesLib.Currency(currencyCt, currencyId)\n        );\n    }\n\n    /// @notice Get the disqualification block number of the given wallet and currency\n    /// @param wallet The address of the concerned wallet\n    /// @param currencyCt The address of the concerned currency contract (address(0) == ETH)\n    /// @param currencyId The ID of the concerned currency (0 for ETH and ERC20)\n    /// @return The block number of the settlement disqualification\n    function proposalDisqualificationBlockNumber(address wallet, address currencyCt, uint256 currencyId)\n    public\n    view\n    returns (uint256)\n    {\n        return nullSettlementChallengeState.proposalDisqualificationBlockNumber(\n            wallet, MonetaryTypesLib.Currency(currencyCt, currencyId)\n        );\n    }\n\n    /// @notice Get the disqualification candidate kind of the given wallet and currency\n    /// @param wallet The address of the concerned wallet\n    /// @param currencyCt The address of the concerned currency contract (address(0) == ETH)\n    /// @param currencyId The ID of the concerned currency (0 for ETH and ERC20)\n    /// @return The candidate kind of the settlement disqualification\n    function proposalDisqualificationCandidateKind(address wallet, address currencyCt, uint256 currencyId)\n    public\n    view\n    returns (string memory)\n    {\n        return nullSettlementChallengeState.proposalDisqualificationCandidateKind(\n            wallet, MonetaryTypesLib.Currency(currencyCt, currencyId)\n        );\n    }\n\n    /// @notice Get the disqualification candidate hash of the given wallet and currency\n    /// @param wallet The address of the concerned wallet\n    /// @param currencyCt The address of the concerned currency contract (address(0) == ETH)\n    /// @param currencyId The ID of the concerned currency (0 for ETH and ERC20)\n    /// @return The candidate hash of the settlement disqualification\n    function proposalDisqualificationCandidateHash(address wallet, address currencyCt, uint256 currencyId)\n    public\n    view\n    returns (bytes32)\n    {\n        return nullSettlementChallengeState.proposalDisqualificationCandidateHash(\n            wallet, MonetaryTypesLib.Currency(currencyCt, currencyId)\n        );\n    }\n\n    /// @notice Challenge the settlement by providing payment candidate\n    /// @param wallet The wallet whose settlement is being challenged\n    /// @param payment The payment candidate that challenges the null\n    function challengeByPayment(address wallet, PaymentTypesLib.Payment memory payment)\n    public\n    onlyOperationalModeNormal\n    {\n        // Challenge by payment\n        nullSettlementDisputeByPayment.challengeByPayment(wallet, payment, msg.sender);\n\n        // Emit event\n        emit ChallengeByPaymentEvent(\n            wallet,\n            nullSettlementChallengeState.proposalNonce(wallet, payment.currency),\n            nullSettlementChallengeState.proposalStageAmount(wallet, payment.currency),\n            nullSettlementChallengeState.proposalTargetBalanceAmount(wallet, payment.currency),\n            payment.currency.ct, payment.currency.id, msg.sender\n        );\n    }\n\n    //\n    // Private functions\n    // -----------------------------------------------------------------------------------------------------------------\n    function _startChallenge(address wallet, int256 stageAmount, MonetaryTypesLib.Currency memory currency,\n        bool walletInitiated)\n    private\n    {\n        // Require that current block number is beyond the earliest settlement challenge block number\n        require(\n            block.number >= configuration.earliestSettlementBlockNumber(),\n            \"Current block number below earliest settlement block number [NullSettlementChallengeByPayment.sol:443]\"\n        );\n\n        // Require that there is no ongoing overlapping null settlement challenge\n        require(\n            !nullSettlementChallengeState.hasProposal(wallet, currency) ||\n        nullSettlementChallengeState.hasProposalExpired(wallet, currency),\n            \"Overlapping null settlement challenge proposal found [NullSettlementChallengeByPayment.sol:449]\"\n        );\n\n        // Get the last logged active balance amount and block number, properties of overlapping DSC\n        // and the baseline nonce\n        (\n        int256 currentActiveBalanceAmount, uint256 currentActiveBalanceBlockNumber,\n        int256 dscCumulativeTransferAmount, int256 dscStageAmount,\n        uint256 nonce\n        ) = _walletProperties(\n            wallet, currency\n        );\n\n        // Initiate proposal, including assurance that there is no overlap with active proposal\n        // Target balance amount is calculated as current balance + DSC cumulativeTransferAmount - DSC stage amount - NSC stageAmount\n        nullSettlementChallengeState.initiateProposal(\n            wallet, nonce, stageAmount,\n            currentActiveBalanceAmount.add(\n                dscCumulativeTransferAmount.sub(dscStageAmount).sub(stageAmount)\n            ),\n            currency,\n            currentActiveBalanceBlockNumber, walletInitiated\n        );\n    }\n\n    function _stopChallenge(address wallet, MonetaryTypesLib.Currency memory currency, bool walletTerminated)\n    private\n    {\n        // Require that there is an unterminated driip settlement challenge proposal\n        require(nullSettlementChallengeState.hasProposal(wallet, currency), \"No proposal found [NullSettlementChallengeByPayment.sol:481]\");\n        require(!nullSettlementChallengeState.hasProposalTerminated(wallet, currency), \"Proposal found terminated [NullSettlementChallengeByPayment.sol:482]\");\n\n        // Terminate driip settlement challenge proposal\n        nullSettlementChallengeState.terminateProposal(\n            wallet, currency, walletTerminated\n        );\n    }\n\n    function _walletProperties(address wallet, MonetaryTypesLib.Currency memory currency)\n    private\n    view\n    returns (\n        int256 currentActiveBalanceAmount, uint256 currentActiveBalanceBlockNumber,\n        int256 dscCumulativeTransferAmount, int256 dscStageAmount,\n        uint256 nonce\n    ) {\n        (currentActiveBalanceAmount, currentActiveBalanceBlockNumber) = balanceTracker.fungibleActiveRecord(\n            wallet, currency\n        );\n\n        if (driipSettlementChallengeState.hasProposal(wallet, currency)) {\n            if (!driipSettlementChallengeState.hasProposalTerminated(wallet, currency)) {\n                dscCumulativeTransferAmount = driipSettlementChallengeState.proposalCumulativeTransferAmount(wallet, currency);\n                dscStageAmount = driipSettlementChallengeState.proposalStageAmount(wallet, currency);\n            }\n\n            nonce = driipSettlementChallengeState.proposalNonce(wallet, currency);\n        }\n\n        if (nullSettlementChallengeState.hasProposal(wallet, currency))\n            nonce = nonce.clampMin(nullSettlementChallengeState.proposalNonce(wallet, currency));\n    }\n}",
  "sourcePath": "/opt/buildagent/work/855e104608380c36/contracts/NullSettlementChallengeByPayment.sol",
  "compiler": {
    "name": "solc",
    "version": "0.5.12+commit.7709ece9.Emscripten.clang"
  },
  "schemaVersion": "2.0.3",
  "updatedAt": "2019-10-23T00:21:40.916Z"
}