{
  "contractName": "PartnerFund",
  "abi": [
    {
      "constant": false,
      "inputs": [],
      "name": "triggerSelfDestruction",
      "outputs": [],
      "payable": false,
      "stateMutability": "nonpayable",
      "type": "function"
    },
    {
      "constant": true,
      "inputs": [],
      "name": "selfDestructionDisabled",
      "outputs": [
        {
          "name": "",
          "type": "bool"
        }
      ],
      "payable": false,
      "stateMutability": "view",
      "type": "function"
    },
    {
      "constant": true,
      "inputs": [],
      "name": "destructor",
      "outputs": [
        {
          "name": "",
          "type": "address"
        }
      ],
      "payable": false,
      "stateMutability": "view",
      "type": "function"
    },
    {
      "constant": true,
      "inputs": [],
      "name": "operator",
      "outputs": [
        {
          "name": "",
          "type": "address"
        }
      ],
      "payable": false,
      "stateMutability": "view",
      "type": "function"
    },
    {
      "constant": false,
      "inputs": [],
      "name": "disableSelfDestruction",
      "outputs": [],
      "payable": false,
      "stateMutability": "nonpayable",
      "type": "function"
    },
    {
      "constant": false,
      "inputs": [
        {
          "name": "newDeployer",
          "type": "address"
        }
      ],
      "name": "setDeployer",
      "outputs": [],
      "payable": false,
      "stateMutability": "nonpayable",
      "type": "function"
    },
    {
      "constant": true,
      "inputs": [],
      "name": "transferControllerManager",
      "outputs": [
        {
          "name": "",
          "type": "address"
        }
      ],
      "payable": false,
      "stateMutability": "view",
      "type": "function"
    },
    {
      "constant": false,
      "inputs": [
        {
          "name": "newOperator",
          "type": "address"
        }
      ],
      "name": "setOperator",
      "outputs": [],
      "payable": false,
      "stateMutability": "nonpayable",
      "type": "function"
    },
    {
      "constant": false,
      "inputs": [
        {
          "name": "newTransferControllerManager",
          "type": "address"
        }
      ],
      "name": "setTransferControllerManager",
      "outputs": [],
      "payable": false,
      "stateMutability": "nonpayable",
      "type": "function"
    },
    {
      "constant": true,
      "inputs": [],
      "name": "deployer",
      "outputs": [
        {
          "name": "",
          "type": "address"
        }
      ],
      "payable": false,
      "stateMutability": "view",
      "type": "function"
    },
    {
      "inputs": [
        {
          "name": "deployer",
          "type": "address"
        }
      ],
      "payable": false,
      "stateMutability": "nonpayable",
      "type": "constructor"
    },
    {
      "payable": true,
      "stateMutability": "payable",
      "type": "fallback"
    },
    {
      "anonymous": false,
      "inputs": [
        {
          "indexed": false,
          "name": "from",
          "type": "address"
        },
        {
          "indexed": false,
          "name": "amount",
          "type": "int256"
        },
        {
          "indexed": false,
          "name": "currencyCt",
          "type": "address"
        },
        {
          "indexed": false,
          "name": "currencyId",
          "type": "uint256"
        }
      ],
      "name": "ReceiveEvent",
      "type": "event"
    },
    {
      "anonymous": false,
      "inputs": [
        {
          "indexed": false,
          "name": "name",
          "type": "string"
        },
        {
          "indexed": false,
          "name": "fee",
          "type": "uint256"
        },
        {
          "indexed": false,
          "name": "wallet",
          "type": "address"
        }
      ],
      "name": "RegisterPartnerByNameEvent",
      "type": "event"
    },
    {
      "anonymous": false,
      "inputs": [
        {
          "indexed": false,
          "name": "nameHash",
          "type": "bytes32"
        },
        {
          "indexed": false,
          "name": "fee",
          "type": "uint256"
        },
        {
          "indexed": false,
          "name": "wallet",
          "type": "address"
        }
      ],
      "name": "RegisterPartnerByNameHashEvent",
      "type": "event"
    },
    {
      "anonymous": false,
      "inputs": [
        {
          "indexed": false,
          "name": "index",
          "type": "uint256"
        },
        {
          "indexed": false,
          "name": "oldFee",
          "type": "uint256"
        },
        {
          "indexed": false,
          "name": "newFee",
          "type": "uint256"
        }
      ],
      "name": "SetFeeByIndexEvent",
      "type": "event"
    },
    {
      "anonymous": false,
      "inputs": [
        {
          "indexed": false,
          "name": "name",
          "type": "string"
        },
        {
          "indexed": false,
          "name": "oldFee",
          "type": "uint256"
        },
        {
          "indexed": false,
          "name": "newFee",
          "type": "uint256"
        }
      ],
      "name": "SetFeeByNameEvent",
      "type": "event"
    },
    {
      "anonymous": false,
      "inputs": [
        {
          "indexed": false,
          "name": "nameHash",
          "type": "bytes32"
        },
        {
          "indexed": false,
          "name": "oldFee",
          "type": "uint256"
        },
        {
          "indexed": false,
          "name": "newFee",
          "type": "uint256"
        }
      ],
      "name": "SetFeeByNameHashEvent",
      "type": "event"
    },
    {
      "anonymous": false,
      "inputs": [
        {
          "indexed": false,
          "name": "wallet",
          "type": "address"
        },
        {
          "indexed": false,
          "name": "oldFee",
          "type": "uint256"
        },
        {
          "indexed": false,
          "name": "newFee",
          "type": "uint256"
        }
      ],
      "name": "SetFeeByWalletEvent",
      "type": "event"
    },
    {
      "anonymous": false,
      "inputs": [
        {
          "indexed": false,
          "name": "index",
          "type": "uint256"
        },
        {
          "indexed": false,
          "name": "oldWallet",
          "type": "address"
        },
        {
          "indexed": false,
          "name": "newWallet",
          "type": "address"
        }
      ],
      "name": "SetPartnerWalletByIndexEvent",
      "type": "event"
    },
    {
      "anonymous": false,
      "inputs": [
        {
          "indexed": false,
          "name": "name",
          "type": "string"
        },
        {
          "indexed": false,
          "name": "oldWallet",
          "type": "address"
        },
        {
          "indexed": false,
          "name": "newWallet",
          "type": "address"
        }
      ],
      "name": "SetPartnerWalletByNameEvent",
      "type": "event"
    },
    {
      "anonymous": false,
      "inputs": [
        {
          "indexed": false,
          "name": "nameHash",
          "type": "bytes32"
        },
        {
          "indexed": false,
          "name": "oldWallet",
          "type": "address"
        },
        {
          "indexed": false,
          "name": "newWallet",
          "type": "address"
        }
      ],
      "name": "SetPartnerWalletByNameHashEvent",
      "type": "event"
    },
    {
      "anonymous": false,
      "inputs": [
        {
          "indexed": false,
          "name": "oldWallet",
          "type": "address"
        },
        {
          "indexed": false,
          "name": "newWallet",
          "type": "address"
        }
      ],
      "name": "SetPartnerWalletByWalletEvent",
      "type": "event"
    },
    {
      "anonymous": false,
      "inputs": [
        {
          "indexed": false,
          "name": "from",
          "type": "address"
        },
        {
          "indexed": false,
          "name": "amount",
          "type": "int256"
        },
        {
          "indexed": false,
          "name": "currencyCt",
          "type": "address"
        },
        {
          "indexed": false,
          "name": "currencyId",
          "type": "uint256"
        }
      ],
      "name": "StageEvent",
      "type": "event"
    },
    {
      "anonymous": false,
      "inputs": [
        {
          "indexed": false,
          "name": "to",
          "type": "address"
        },
        {
          "indexed": false,
          "name": "amount",
          "type": "int256"
        },
        {
          "indexed": false,
          "name": "currencyCt",
          "type": "address"
        },
        {
          "indexed": false,
          "name": "currencyId",
          "type": "uint256"
        }
      ],
      "name": "WithdrawEvent",
      "type": "event"
    },
    {
      "anonymous": false,
      "inputs": [
        {
          "indexed": false,
          "name": "oldTransferControllerManager",
          "type": "address"
        },
        {
          "indexed": false,
          "name": "newTransferControllerManager",
          "type": "address"
        }
      ],
      "name": "SetTransferControllerManagerEvent",
      "type": "event"
    },
    {
      "anonymous": false,
      "inputs": [
        {
          "indexed": false,
          "name": "oldDeployer",
          "type": "address"
        },
        {
          "indexed": false,
          "name": "newDeployer",
          "type": "address"
        }
      ],
      "name": "SetDeployerEvent",
      "type": "event"
    },
    {
      "anonymous": false,
      "inputs": [
        {
          "indexed": false,
          "name": "oldOperator",
          "type": "address"
        },
        {
          "indexed": false,
          "name": "newOperator",
          "type": "address"
        }
      ],
      "name": "SetOperatorEvent",
      "type": "event"
    },
    {
      "anonymous": false,
      "inputs": [
        {
          "indexed": false,
          "name": "wallet",
          "type": "address"
        }
      ],
      "name": "SelfDestructionDisabledEvent",
      "type": "event"
    },
    {
      "anonymous": false,
      "inputs": [
        {
          "indexed": false,
          "name": "wallet",
          "type": "address"
        }
      ],
      "name": "TriggerSelfDestructionEvent",
      "type": "event"
    },
    {
      "constant": false,
      "inputs": [
        {
          "name": "tag",
          "type": "address"
        },
        {
          "name": "",
          "type": "string"
        }
      ],
      "name": "receiveEthersTo",
      "outputs": [],
      "payable": true,
      "stateMutability": "payable",
      "type": "function"
    },
    {
      "constant": false,
      "inputs": [
        {
          "name": "",
          "type": "string"
        },
        {
          "name": "amount",
          "type": "int256"
        },
        {
          "name": "currencyCt",
          "type": "address"
        },
        {
          "name": "currencyId",
          "type": "uint256"
        },
        {
          "name": "standard",
          "type": "string"
        }
      ],
      "name": "receiveTokens",
      "outputs": [],
      "payable": false,
      "stateMutability": "nonpayable",
      "type": "function"
    },
    {
      "constant": false,
      "inputs": [
        {
          "name": "tag",
          "type": "address"
        },
        {
          "name": "",
          "type": "string"
        },
        {
          "name": "amount",
          "type": "int256"
        },
        {
          "name": "currencyCt",
          "type": "address"
        },
        {
          "name": "currencyId",
          "type": "uint256"
        },
        {
          "name": "standard",
          "type": "string"
        }
      ],
      "name": "receiveTokensTo",
      "outputs": [],
      "payable": false,
      "stateMutability": "nonpayable",
      "type": "function"
    },
    {
      "constant": true,
      "inputs": [
        {
          "name": "name",
          "type": "string"
        }
      ],
      "name": "hashName",
      "outputs": [
        {
          "name": "",
          "type": "bytes32"
        }
      ],
      "payable": false,
      "stateMutability": "pure",
      "type": "function"
    },
    {
      "constant": true,
      "inputs": [
        {
          "name": "partnerIndex",
          "type": "uint256"
        },
        {
          "name": "depositIndex",
          "type": "uint256"
        }
      ],
      "name": "depositByIndices",
      "outputs": [
        {
          "name": "balance",
          "type": "int256"
        },
        {
          "name": "blockNumber",
          "type": "uint256"
        },
        {
          "name": "currencyCt",
          "type": "address"
        },
        {
          "name": "currencyId",
          "type": "uint256"
        }
      ],
      "payable": false,
      "stateMutability": "view",
      "type": "function"
    },
    {
      "constant": true,
      "inputs": [
        {
          "name": "name",
          "type": "string"
        },
        {
          "name": "depositIndex",
          "type": "uint256"
        }
      ],
      "name": "depositByName",
      "outputs": [
        {
          "name": "balance",
          "type": "int256"
        },
        {
          "name": "blockNumber",
          "type": "uint256"
        },
        {
          "name": "currencyCt",
          "type": "address"
        },
        {
          "name": "currencyId",
          "type": "uint256"
        }
      ],
      "payable": false,
      "stateMutability": "view",
      "type": "function"
    },
    {
      "constant": true,
      "inputs": [
        {
          "name": "nameHash",
          "type": "bytes32"
        },
        {
          "name": "depositIndex",
          "type": "uint256"
        }
      ],
      "name": "depositByNameHash",
      "outputs": [
        {
          "name": "balance",
          "type": "int256"
        },
        {
          "name": "blockNumber",
          "type": "uint256"
        },
        {
          "name": "currencyCt",
          "type": "address"
        },
        {
          "name": "currencyId",
          "type": "uint256"
        }
      ],
      "payable": false,
      "stateMutability": "view",
      "type": "function"
    },
    {
      "constant": true,
      "inputs": [
        {
          "name": "wallet",
          "type": "address"
        },
        {
          "name": "depositIndex",
          "type": "uint256"
        }
      ],
      "name": "depositByWallet",
      "outputs": [
        {
          "name": "balance",
          "type": "int256"
        },
        {
          "name": "blockNumber",
          "type": "uint256"
        },
        {
          "name": "currencyCt",
          "type": "address"
        },
        {
          "name": "currencyId",
          "type": "uint256"
        }
      ],
      "payable": false,
      "stateMutability": "view",
      "type": "function"
    },
    {
      "constant": true,
      "inputs": [
        {
          "name": "index",
          "type": "uint256"
        }
      ],
      "name": "depositsCountByIndex",
      "outputs": [
        {
          "name": "",
          "type": "uint256"
        }
      ],
      "payable": false,
      "stateMutability": "view",
      "type": "function"
    },
    {
      "constant": true,
      "inputs": [
        {
          "name": "name",
          "type": "string"
        }
      ],
      "name": "depositsCountByName",
      "outputs": [
        {
          "name": "",
          "type": "uint256"
        }
      ],
      "payable": false,
      "stateMutability": "view",
      "type": "function"
    },
    {
      "constant": true,
      "inputs": [
        {
          "name": "nameHash",
          "type": "bytes32"
        }
      ],
      "name": "depositsCountByNameHash",
      "outputs": [
        {
          "name": "",
          "type": "uint256"
        }
      ],
      "payable": false,
      "stateMutability": "view",
      "type": "function"
    },
    {
      "constant": true,
      "inputs": [
        {
          "name": "wallet",
          "type": "address"
        }
      ],
      "name": "depositsCountByWallet",
      "outputs": [
        {
          "name": "",
          "type": "uint256"
        }
      ],
      "payable": false,
      "stateMutability": "view",
      "type": "function"
    },
    {
      "constant": true,
      "inputs": [
        {
          "name": "index",
          "type": "uint256"
        },
        {
          "name": "currencyCt",
          "type": "address"
        },
        {
          "name": "currencyId",
          "type": "uint256"
        }
      ],
      "name": "activeBalanceByIndex",
      "outputs": [
        {
          "name": "",
          "type": "int256"
        }
      ],
      "payable": false,
      "stateMutability": "view",
      "type": "function"
    },
    {
      "constant": true,
      "inputs": [
        {
          "name": "name",
          "type": "string"
        },
        {
          "name": "currencyCt",
          "type": "address"
        },
        {
          "name": "currencyId",
          "type": "uint256"
        }
      ],
      "name": "activeBalanceByName",
      "outputs": [
        {
          "name": "",
          "type": "int256"
        }
      ],
      "payable": false,
      "stateMutability": "view",
      "type": "function"
    },
    {
      "constant": true,
      "inputs": [
        {
          "name": "nameHash",
          "type": "bytes32"
        },
        {
          "name": "currencyCt",
          "type": "address"
        },
        {
          "name": "currencyId",
          "type": "uint256"
        }
      ],
      "name": "activeBalanceByNameHash",
      "outputs": [
        {
          "name": "",
          "type": "int256"
        }
      ],
      "payable": false,
      "stateMutability": "view",
      "type": "function"
    },
    {
      "constant": true,
      "inputs": [
        {
          "name": "wallet",
          "type": "address"
        },
        {
          "name": "currencyCt",
          "type": "address"
        },
        {
          "name": "currencyId",
          "type": "uint256"
        }
      ],
      "name": "activeBalanceByWallet",
      "outputs": [
        {
          "name": "",
          "type": "int256"
        }
      ],
      "payable": false,
      "stateMutability": "view",
      "type": "function"
    },
    {
      "constant": true,
      "inputs": [
        {
          "name": "index",
          "type": "uint256"
        },
        {
          "name": "currencyCt",
          "type": "address"
        },
        {
          "name": "currencyId",
          "type": "uint256"
        }
      ],
      "name": "stagedBalanceByIndex",
      "outputs": [
        {
          "name": "",
          "type": "int256"
        }
      ],
      "payable": false,
      "stateMutability": "view",
      "type": "function"
    },
    {
      "constant": true,
      "inputs": [
        {
          "name": "name",
          "type": "string"
        },
        {
          "name": "currencyCt",
          "type": "address"
        },
        {
          "name": "currencyId",
          "type": "uint256"
        }
      ],
      "name": "stagedBalanceByName",
      "outputs": [
        {
          "name": "",
          "type": "int256"
        }
      ],
      "payable": false,
      "stateMutability": "view",
      "type": "function"
    },
    {
      "constant": true,
      "inputs": [
        {
          "name": "nameHash",
          "type": "bytes32"
        },
        {
          "name": "currencyCt",
          "type": "address"
        },
        {
          "name": "currencyId",
          "type": "uint256"
        }
      ],
      "name": "stagedBalanceByNameHash",
      "outputs": [
        {
          "name": "",
          "type": "int256"
        }
      ],
      "payable": false,
      "stateMutability": "view",
      "type": "function"
    },
    {
      "constant": true,
      "inputs": [
        {
          "name": "wallet",
          "type": "address"
        },
        {
          "name": "currencyCt",
          "type": "address"
        },
        {
          "name": "currencyId",
          "type": "uint256"
        }
      ],
      "name": "stagedBalanceByWallet",
      "outputs": [
        {
          "name": "",
          "type": "int256"
        }
      ],
      "payable": false,
      "stateMutability": "view",
      "type": "function"
    },
    {
      "constant": true,
      "inputs": [],
      "name": "partnersCount",
      "outputs": [
        {
          "name": "",
          "type": "uint256"
        }
      ],
      "payable": false,
      "stateMutability": "view",
      "type": "function"
    },
    {
      "constant": false,
      "inputs": [
        {
          "name": "name",
          "type": "string"
        },
        {
          "name": "fee",
          "type": "uint256"
        },
        {
          "name": "wallet",
          "type": "address"
        },
        {
          "name": "partnerCanUpdate",
          "type": "bool"
        },
        {
          "name": "operatorCanUpdate",
          "type": "bool"
        }
      ],
      "name": "registerByName",
      "outputs": [],
      "payable": false,
      "stateMutability": "nonpayable",
      "type": "function"
    },
    {
      "constant": false,
      "inputs": [
        {
          "name": "nameHash",
          "type": "bytes32"
        },
        {
          "name": "fee",
          "type": "uint256"
        },
        {
          "name": "wallet",
          "type": "address"
        },
        {
          "name": "partnerCanUpdate",
          "type": "bool"
        },
        {
          "name": "operatorCanUpdate",
          "type": "bool"
        }
      ],
      "name": "registerByNameHash",
      "outputs": [],
      "payable": false,
      "stateMutability": "nonpayable",
      "type": "function"
    },
    {
      "constant": true,
      "inputs": [
        {
          "name": "nameHash",
          "type": "bytes32"
        }
      ],
      "name": "indexByNameHash",
      "outputs": [
        {
          "name": "",
          "type": "uint256"
        }
      ],
      "payable": false,
      "stateMutability": "view",
      "type": "function"
    },
    {
      "constant": true,
      "inputs": [
        {
          "name": "name",
          "type": "string"
        }
      ],
      "name": "indexByName",
      "outputs": [
        {
          "name": "",
          "type": "uint256"
        }
      ],
      "payable": false,
      "stateMutability": "view",
      "type": "function"
    },
    {
      "constant": true,
      "inputs": [
        {
          "name": "wallet",
          "type": "address"
        }
      ],
      "name": "indexByWallet",
      "outputs": [
        {
          "name": "",
          "type": "uint256"
        }
      ],
      "payable": false,
      "stateMutability": "view",
      "type": "function"
    },
    {
      "constant": true,
      "inputs": [
        {
          "name": "name",
          "type": "string"
        }
      ],
      "name": "isRegisteredByName",
      "outputs": [
        {
          "name": "",
          "type": "bool"
        }
      ],
      "payable": false,
      "stateMutability": "view",
      "type": "function"
    },
    {
      "constant": true,
      "inputs": [
        {
          "name": "nameHash",
          "type": "bytes32"
        }
      ],
      "name": "isRegisteredByNameHash",
      "outputs": [
        {
          "name": "",
          "type": "bool"
        }
      ],
      "payable": false,
      "stateMutability": "view",
      "type": "function"
    },
    {
      "constant": true,
      "inputs": [
        {
          "name": "wallet",
          "type": "address"
        }
      ],
      "name": "isRegisteredByWallet",
      "outputs": [
        {
          "name": "",
          "type": "bool"
        }
      ],
      "payable": false,
      "stateMutability": "view",
      "type": "function"
    },
    {
      "constant": true,
      "inputs": [
        {
          "name": "index",
          "type": "uint256"
        }
      ],
      "name": "feeByIndex",
      "outputs": [
        {
          "name": "",
          "type": "uint256"
        }
      ],
      "payable": false,
      "stateMutability": "view",
      "type": "function"
    },
    {
      "constant": true,
      "inputs": [
        {
          "name": "name",
          "type": "string"
        }
      ],
      "name": "feeByName",
      "outputs": [
        {
          "name": "",
          "type": "uint256"
        }
      ],
      "payable": false,
      "stateMutability": "view",
      "type": "function"
    },
    {
      "constant": true,
      "inputs": [
        {
          "name": "nameHash",
          "type": "bytes32"
        }
      ],
      "name": "feeByNameHash",
      "outputs": [
        {
          "name": "",
          "type": "uint256"
        }
      ],
      "payable": false,
      "stateMutability": "view",
      "type": "function"
    },
    {
      "constant": true,
      "inputs": [
        {
          "name": "wallet",
          "type": "address"
        }
      ],
      "name": "feeByWallet",
      "outputs": [
        {
          "name": "",
          "type": "uint256"
        }
      ],
      "payable": false,
      "stateMutability": "view",
      "type": "function"
    },
    {
      "constant": false,
      "inputs": [
        {
          "name": "index",
          "type": "uint256"
        },
        {
          "name": "newFee",
          "type": "uint256"
        }
      ],
      "name": "setFeeByIndex",
      "outputs": [],
      "payable": false,
      "stateMutability": "nonpayable",
      "type": "function"
    },
    {
      "constant": false,
      "inputs": [
        {
          "name": "name",
          "type": "string"
        },
        {
          "name": "newFee",
          "type": "uint256"
        }
      ],
      "name": "setFeeByName",
      "outputs": [],
      "payable": false,
      "stateMutability": "nonpayable",
      "type": "function"
    },
    {
      "constant": false,
      "inputs": [
        {
          "name": "nameHash",
          "type": "bytes32"
        },
        {
          "name": "newFee",
          "type": "uint256"
        }
      ],
      "name": "setFeeByNameHash",
      "outputs": [],
      "payable": false,
      "stateMutability": "nonpayable",
      "type": "function"
    },
    {
      "constant": false,
      "inputs": [
        {
          "name": "wallet",
          "type": "address"
        },
        {
          "name": "newFee",
          "type": "uint256"
        }
      ],
      "name": "setFeeByWallet",
      "outputs": [],
      "payable": false,
      "stateMutability": "nonpayable",
      "type": "function"
    },
    {
      "constant": true,
      "inputs": [
        {
          "name": "index",
          "type": "uint256"
        }
      ],
      "name": "walletByIndex",
      "outputs": [
        {
          "name": "",
          "type": "address"
        }
      ],
      "payable": false,
      "stateMutability": "view",
      "type": "function"
    },
    {
      "constant": true,
      "inputs": [
        {
          "name": "name",
          "type": "string"
        }
      ],
      "name": "walletByName",
      "outputs": [
        {
          "name": "",
          "type": "address"
        }
      ],
      "payable": false,
      "stateMutability": "view",
      "type": "function"
    },
    {
      "constant": true,
      "inputs": [
        {
          "name": "nameHash",
          "type": "bytes32"
        }
      ],
      "name": "walletByNameHash",
      "outputs": [
        {
          "name": "",
          "type": "address"
        }
      ],
      "payable": false,
      "stateMutability": "view",
      "type": "function"
    },
    {
      "constant": false,
      "inputs": [
        {
          "name": "index",
          "type": "uint256"
        },
        {
          "name": "newWallet",
          "type": "address"
        }
      ],
      "name": "setWalletByIndex",
      "outputs": [],
      "payable": false,
      "stateMutability": "nonpayable",
      "type": "function"
    },
    {
      "constant": false,
      "inputs": [
        {
          "name": "name",
          "type": "string"
        },
        {
          "name": "newWallet",
          "type": "address"
        }
      ],
      "name": "setWalletByName",
      "outputs": [],
      "payable": false,
      "stateMutability": "nonpayable",
      "type": "function"
    },
    {
      "constant": false,
      "inputs": [
        {
          "name": "nameHash",
          "type": "bytes32"
        },
        {
          "name": "newWallet",
          "type": "address"
        }
      ],
      "name": "setWalletByNameHash",
      "outputs": [],
      "payable": false,
      "stateMutability": "nonpayable",
      "type": "function"
    },
    {
      "constant": false,
      "inputs": [
        {
          "name": "oldWallet",
          "type": "address"
        },
        {
          "name": "newWallet",
          "type": "address"
        }
      ],
      "name": "setWalletByWallet",
      "outputs": [],
      "payable": false,
      "stateMutability": "nonpayable",
      "type": "function"
    },
    {
      "constant": false,
      "inputs": [
        {
          "name": "amount",
          "type": "int256"
        },
        {
          "name": "currencyCt",
          "type": "address"
        },
        {
          "name": "currencyId",
          "type": "uint256"
        }
      ],
      "name": "stage",
      "outputs": [],
      "payable": false,
      "stateMutability": "nonpayable",
      "type": "function"
    },
    {
      "constant": false,
      "inputs": [
        {
          "name": "amount",
          "type": "int256"
        },
        {
          "name": "currencyCt",
          "type": "address"
        },
        {
          "name": "currencyId",
          "type": "uint256"
        },
        {
          "name": "standard",
          "type": "string"
        }
      ],
      "name": "withdraw",
      "outputs": [],
      "payable": false,
      "stateMutability": "nonpayable",
      "type": "function"
    }
  ],
  "bytecode": "0x60806040523480156200001157600080fd5b50604051602080620039378339810180604052620000339190810190620000b6565b8080600160a060020a03811615156200004b57600080fd5b600160a060020a0381163014156200006257600080fd5b506000805461010060a860020a031916610100600160a060020a039390931692830217905560018054600160a060020a031916909117905550620000eb565b6000620000af8251620000df565b9392505050565b600060208284031215620000c957600080fd5b6000620000d78484620000a1565b949350505050565b600160a060020a031690565b61383c80620000fb6000396000f3006080604052600436106102845763ffffffff60e060020a60003504166303a9d054811461032457806305e2a9851461035a578063075d6d12146103875780630ada9794146103a75780630f200f9b146103c75780631adc9372146103e75780631d4446e01461040757806321825d20146104375780632738a112146104575780632dafc5321461046c5780632f013a001461048c5780633674c74e146104a157806336c87e6e146104c157806339364d14146104e15780633e4f1b771461050e5780634476d23b1461052e57806345b8236b14610543578063555f599c14610563578063570ca735146105835780635f289651146105985780636eaef499146105b857806370327ea1146105d857806374c5f3fd146105ed5780637c8104471461060d5780637e332b851461062d578063828910b01461064d578063962147351461066d57806398359c611461068d578063a2724c33146106ad578063a3d34ba3146106cd578063a5923fcc146106ed578063a7654a1f1461070d578063aade75e214610720578063ab53b0b414610740578063ad24e3db14610760578063af30b31214610780578063af9a3f9b146107a2578063b3ab15fb146107c2578063b58cff14146107e2578063b75b74c514610802578063c3a1e4a114610822578063c45a9a7f14610842578063c66724a914610862578063c90d676114610882578063cdd8fea5146108a2578063d2095df6146108b7578063d3b41bd2146108d7578063d5f39488146108f7578063df6148fe1461090c578063e1fc28721461092c578063e452fb951461094c578063e47b7f431461096c578063ed971e881461098c578063ee407ec5146109ac578063f4cbf8a0146109cc578063fe86a69e146109ec575b610322600161029233610a0c565b0373__SafeMathIntLib________________________63802d10af346040518263ffffffff1660e060020a0281526004016102cd919061360a565b60206040518083038186803b1580156102e557600080fd5b505af41580156102f9573d6000803e3d6000fd5b505050506040513d601f19601f8201168201806040525061031d9190810190613276565b610a37565b005b34801561033057600080fd5b5061034461033f36600461330c565b610bab565b60405161035191906135fc565b60405180910390f35b34801561036657600080fd5b5061037a61037536600461330c565b610bd6565b604051610351919061360a565b34801561039357600080fd5b5061037a6103a2366004612f93565b610bec565b3480156103b357600080fd5b506103226103c2366004613148565b610c0e565b3480156103d357600080fd5b506103226103e2366004613294565b610c7c565b3480156103f357600080fd5b5061037a610402366004612f33565b610fa3565b34801561041357600080fd5b50610427610422366004613188565b610fb9565b60405161035194939291906136ad565b34801561044357600080fd5b5061037a61045236600461312a565b610ff9565b34801561046357600080fd5b50610322611009565b34801561047857600080fd5b5061037a61048736600461312a565b61106f565b34801561049857600080fd5b5061034461108a565b3480156104ad57600080fd5b506103446104bc366004612f33565b611093565b3480156104cd57600080fd5b5061037a6104dc36600461330c565b6110af565b3480156104ed57600080fd5b506105016104fc36600461330c565b6110bf565b6040516103519190613518565b34801561051a57600080fd5b5061050161052936600461312a565b6110fe565b34801561053a57600080fd5b5061050161112f565b34801561054f57600080fd5b5061037a61055e36600461312a565b611144565b34801561056f57600080fd5b5061032261057e366004613167565b61116f565b34801561058f57600080fd5b50610501611427565b3480156105a457600080fd5b506103226105b3366004613027565b611436565b3480156105c457600080fd5b506104276105d33660046130dc565b611457565b3480156105e457600080fd5b50610322611472565b3480156105f957600080fd5b5061037a610608366004613167565b6114d5565b34801561061957600080fd5b50610322610628366004613188565b611502565b34801561063957600080fd5b5061037a61064836600461312a565b61154e565b34801561065957600080fd5b50610322610668366004613476565b611579565b34801561067957600080fd5b50610322610688366004612f33565b6115e7565b34801561069957600080fd5b5061037a6106a836600461312a565b6116a5565b3480156106b957600080fd5b506103446106c836600461312a565b6116b5565b3480156106d957600080fd5b5061037a6106e8366004613375565b6116c8565b3480156106f957600080fd5b506103226107083660046130dc565b6116e0565b61032261071b366004612fe0565b611725565b34801561072c57600080fd5b5061037a61073b36600461330c565b611773565b34801561074c57600080fd5b5061037a61075b366004613375565b611781565b34801561076c57600080fd5b5061032261077b366004613441565b611791565b34801561078c57600080fd5b506107956117d6565b6040516103519190613669565b3480156107ae57600080fd5b5061037a6107bd36600461330c565b6117e5565b3480156107ce57600080fd5b506103226107dd366004612f33565b6118b7565b3480156107ee57600080fd5b506104276107fd366004613441565b611961565b34801561080e57600080fd5b5061037a61081d366004613167565b611975565b34801561082e57600080fd5b5061037a61083d366004613167565b611985565b34801561084e57600080fd5b5061032261085d3660046133ac565b6119b2565b34801561086e57600080fd5b5061037a61087d366004612f33565b6119d1565b34801561088e57600080fd5b5061042761089d366004613188565b6119e1565b3480156108ae57600080fd5b5061037a6119f5565b3480156108c357600080fd5b506103226108d2366004613148565b6119fb565b3480156108e357600080fd5b506103226108f236600461323a565b611a46565b34801561090357600080fd5b50610501611aed565b34801561091857600080fd5b5061037a610927366004612f33565b610a0c565b34801561093857600080fd5b50610322610947366004613340565b611b01565b34801561095857600080fd5b5061050161096736600461312a565b611b46565b34801561097857600080fd5b5061037a610987366004612f93565b611b55565b34801561099857600080fd5b5061037a6109a7366004613167565b611b65565b3480156109b857600080fd5b506103226109c73660046131a7565b611b75565b3480156109d857600080fd5b506103226109e7366004612f59565b611bc8565b3480156109f857600080fd5b50610322610a07366004613188565b611c0f565b600160a060020a038116600090815260056020526040812054808210610a3157600080fd5b92915050565b6003548210610a4557600080fd5b610a7c81600080600386815481101515610a5b57fe5b9060005260206000209060160201600501611c70909392919063ffffffff16565b610ab381600080600386815481101515610a9257fe5b9060005260206000209060160201601101611d21909392919063ffffffff16565b6003805483908110610ac157fe5b90600052602060002090601602016015016060604051908101604052806001610b08600387815481101515610af257fe5b9060005260206000209060160201601101611dee565b038152602001610b43600080600388815481101515610b2357fe5b9060005260206000209060160201600501611df29092919063ffffffff16565b815243602091820152825460018181018555600094855282852084516003909302019182559183015191810191909155604091820151600290910155516000805160206137e383398151915291610b9f91339185918190613541565b60405180910390a15050565b600060046000610bba846117e5565b815260208101919091526040016000908120541190505b919050565b6000610a316001610be684611773565b03611e1a565b6000610c046001610bfc86610a0c565b038484611e45565b90505b9392505050565b6000826000108015610c2257506003548311155b1515610c2d57600080fd5b610c3a6001840383611e5b565b90507f189f2e1af51d198579b864992aff5d007975e047810b8c7dc07e570b2a7ba5e1838284604051610c6f93929190613618565b60405180910390a1505050565b600080610c8833610a0c565b60405160e060020a636b84d93102815290925073__SafeMathIntLib________________________90636b84d93190610cc590899060040161360a565b60206040518083038186803b158015610cdd57600080fd5b505af4158015610cf1573d6000803e3d6000fd5b505050506040513d601f19601f82011682018060405250610d15919081019061310c565b1515610d2057600080fd5b8573__SafeMathIntLib________________________63755875b29091610d748888600360018903815481101515610d5457fe5b9060005260206000209060160201600b01611df29092919063ffffffff16565b6040518363ffffffff1660e060020a028152600401610d94929190613692565b60206040518083038186803b158015610dac57600080fd5b505af4158015610dc0573d6000803e3d6000fd5b505050506040513d601f19601f82011682018060405250610de49190810190613276565b9550610e1f868686600360018703815481101515610dfe57fe5b9060005260206000209060160201600b01612007909392919063ffffffff16565b600160a060020a038516158015610e34575083155b15610e6c57604051339087156108fc029088906000818181858888f19350505050158015610e66573d6000803e3d6000fd5b50610f5e565b610e768584612039565b905080600160a060020a031681600160a060020a0316637228941f6040518163ffffffff1660e060020a028152600401602060405180830381600087803b158015610ec057600080fd5b505af1158015610ed4573d6000803e3d6000fd5b505050506040513d601f19601f82011682018060405250610ef8919081019061321c565b6040805160e060020a9283900463ffffffff81169093028152306004820152336024820152604481018a9052600160a060020a038916606482015260848101889052905160a48083019260009291908290030181865af4925050501515610f5e57600080fd5b7fcf370394c93538238196d6042f379d4b2dbd081f96971fd7160f4707465943c933878787604051610f93949392919061357f565b60405180910390a1505050505050565b6000610a316001610fb384610a0c565b036120c1565b600080600080856000108015610fd157506003548611155b1515610fdc57600080fd5b610fe960018703866120eb565b9299919850965090945092505050565b6000610a316001610be68461106f565b3361101261112f565b600160a060020a03161461102557600080fd5b60005460ff161561103557600080fd5b7f787a5d936e74f4b564b9153575886059829c78cd9927b1be5e0d976b317ef736336040516110649190613518565b60405180910390a133ff5b600081815260046020526040812054808210610a3157600080fd5b60005460ff1681565b600160a060020a03166000908152600560205260408120541190565b6000610a316001610fb384611773565b6000600360016110ce84611773565b038154811015156110db57fe5b6000918252602090912060169091020160020154600160a060020a031692915050565b600081600010801561111257506003548211155b151561111d57600080fd5b6003805460001984019081106110db57fe5b6000546101009004600160a060020a03165b90565b600081600010801561115857506003548211155b151561116357600080fd5b610a31600183036120c1565b600061117a33610a0c565b60405160e060020a636b84d93102815290915073__SafeMathIntLib________________________90636b84d931906111b790879060040161360a565b60206040518083038186803b1580156111cf57600080fd5b505af41580156111e3573d6000803e3d6000fd5b505050506040513d601f19601f82011682018060405250611207919081019061310c565b151561121257600080fd5b8373__SafeMathIntLib________________________63755875b290916112468686600360018803815481101515610b2357fe5b6040518363ffffffff1660e060020a028152600401611266929190613692565b60206040518083038186803b15801561127e57600080fd5b505af4158015611292573d6000803e3d6000fd5b505050506040513d601f19601f820116820180604052506112b69190810190613276565b93506112f18484846003600186038154811015156112d057fe5b9060005260206000209060160201600501612007909392919063ffffffff16565b61132a84848460036001860381548110151561130957fe5b9060005260206000209060160201600b01611c70909392919063ffffffff16565b611342848484600360018603815481101515610a9257fe5b60038054600019830190811061135457fe5b90600052602060002090601602016015016060604051908101604052806001611388600360018703815481101515610af257fe5b0381526020016113a58686600360018803815481101515610b2357fe5b81524360209182015282546001818101855560009485529382902083516003909202019081559082015192810192909255604090810151600290920191909155517f573abd56f40c687bfaaabb8d68c68c84cc343b51fe661ff2080e2a6977b3c2b49061141990339087908790879061357f565b60405180910390a150505050565b600154600160a060020a031681565b61144f600187600160a060020a031603858585856121b1565b505050505050565b600080600080610fe9600161146b88610a0c565b03866120eb565b3361147b61112f565b600160a060020a03161461148e57600080fd5b6000805460ff191660011790556040517fd5a2a04a775c741c2ca0dc46ea7ce4835190e1aaf1ca018def0e82568ec33616906114cb903390613518565b60405180910390a1565b60008360001080156114e957506003548411155b15156114f457600080fd5b610c04600185038484611e45565b600061151960016115128561106f565b038361242e565b90507fd04c8ec13566b2abf324e1cd1c45c4c6c331fec26c6134cc33280b242ded42da838284604051610c6f9392919061365b565b600081600010801561156257506003548211155b151561156d57600080fd5b610a3160018303611e1a565b600061158361252f565b151561158e57600080fd5b855160001061159c57600080fd5b6115a5866117e5565b90506115b48186868686612540565b7f818ab4fdb47acf3d326592551bf3bec5bfd1338a3c0288c34862c7a513087fa2868686604051610f93939291906136db565b60006115f16126e9565b15156115fc57600080fd5b81600160a060020a038116151561161257600080fd5b600160a060020a03811630141561162857600080fd5b600054600160a060020a0384811661010090920416146116a05760008054600160a060020a0385811661010090810261010060a860020a0319841617909355604051929091041692507f977e5fa58e458501775e0008d275006294c5249e3c08d1d0e3a9f3acad14f6e490610c6f9084908690613526565b505050565b6000610a316001610fb38461106f565b6000908152600460205260408120541190565b6000610c0460016116d886611773565b0384846126ff565b60006116f0600161151285610a0c565b90507f775317510019c97f650a8c1263d6753b0a87a42f75c1f6af1220716af989f79e838284604051610c6f939291906135d4565b61176f600183600160a060020a03160373__SafeMathIntLib________________________63802d10af346040518263ffffffff1660e060020a0281526004016102cd919061360a565b5050565b6000610a31610487836117e5565b6000610c046001610bfc86611773565b60006117a1600161151285611773565b90507f87726011d6abf6cb60b8988654077b65008df1ba07632b5ed5a083a288f779d2838284604051610c6f939291906136fb565b600254600160a060020a031681565b60006117f082612715565b6040516020018082805190602001908083835b602083106118225780518252601f199092019160209182019101611803565b6001836020036101000a0380198251168184511680821785525050505050509050019150506040516020818303038152906040526040518082805190602001908083835b602083106118855780518252601f199092019160209182019101611866565b5181516020939093036101000a6000190180199091169216919091179052604051920182900390912095945050505050565b60006118c161252f565b15156118cc57600080fd5b81600160a060020a03811615156118e257600080fd5b600160a060020a0381163014156118f857600080fd5b600154600160a060020a038481169116146116a05760018054600160a060020a03858116600160a060020a0319831617909255604051911692507f9f611b789425d0d5b90b920f1b2852907dd865c80074a30b1629aaa041d1812c90610c6f9084908690613526565b600080600080610fe9600161146b88611773565b6000610c046001610bfc8661106f565b600083600010801561199957506003548411155b15156119a457600080fd5b610c046001850384846126ff565b6119ca60016119c033610a0c565b03858585856121b1565b5050505050565b6000610a316001610be684610a0c565b600080600080610fe9600161146b8861106f565b60035490565b6000611a126001611a0b8561106f565b0383611e5b565b90507e1103101fa9f7783e62effa7df9a052823877938649a72c018d27ef8b8bc615838284604051610c6f93929190613618565b6000611a506126e9565b1515611a5b57600080fd5b81600160a060020a0381161515611a7157600080fd5b6002548390600160a060020a0390811690821681146119ca5760028054600160a060020a03878116600160a060020a0319831617909255604051911694507fee9ef6d53e152e48b1ebc1c23943fb2b96e847465ed779a0e2121a388ea83d2f90611ade9086908890613677565b60405180910390a15050505050565b6000546101009004600160a060020a031681565b6000611b116001611a0b85611773565b90507f79e02859d706c440666c5021888480e9b574945ee494141efae6a7641365e112838284604051610c6f939291906136bb565b6000600360016110ce8461106f565b6000610c0460016116d886610a0c565b6000610c0460016116d88661106f565b611b7d61252f565b1515611b8857600080fd5b611b958585858585612540565b7f8c8cf8d64818dc8cd80d49700e50b6440aa4fcd2f9b714ac224250413b6df902858585604051611ade93929190613640565b611bdd6001611bd684610a0c565b0382611e5b565b507ffc42fbac9f335bdd6dfd78d80142e5bf433f2595dae2253e5007182c302268ab8282604051610b9f929190613526565b6000826000108015611c2357506003548311155b1515611c2e57600080fd5b611c3b600184038361242e565b90507fd84350bb46d452047130ab84beb43346a92ce57cc71c72ca8b2491c2eb34406a838284604051610c6f9392919061365b565b600160a060020a038216600090815260208581526040808320848452909152902054611ca2908463ffffffff61278216565b600160a060020a0383166000818152602087815260408083208684528083528184208690559383526001808a018352818420878552835281842082518084019093529483529481524381830190815284548087018655948452919092209151600290930290910191825551910155611d1b8483836127b7565b50505050565b611d29612c35565b5060408051608081018252938452436020808601918252600160a060020a0394851686840181815260608801868152895460018181018c5560008c81528681208c516004948502909101908155885181840155855160028083018054928f16600160a060020a031993841617905586516003938401559783529d830188528982209a8252998752978820805480830182559089529590972099519402909801928355925193820193909355905191810180549290941691909516179091559051910155565b5490565b600160a060020a03919091166000908152602092835260408082209282529190925290205490565b6000600382815481101515611e2b57fe5b600091825260209091206015601690920201015492915050565b6000610c048383600387815481101515610b2357fe5b600080600384815481101515611e6d57fe5b6000918252602090912060026016909202010154600160a060020a03169050801515611eab57611e9b61252f565b1515611ea657600080fd5b611f78565b611eb361252f565b15611ee8576003805485908110611ec657fe5b600091825260209091206004601690920201015460ff161515611ea657600080fd5b33600160a060020a03821614611efd57600080fd5b6003805485908110611f0b57fe5b906000526020600020906016020160040160019054906101000a900460ff161515611f3557600080fd5b6003805485908110611f4357fe5b600091825260209091206004601690920201015460ff1680611f6d5750600160a060020a03831615155b1515611f7857600080fd5b82600385815481101515611f8857fe5b600091825260209091206016909102016002018054600160a060020a031916600160a060020a03928316179055811615611fd657600160a060020a0381166000908152600560205260408120555b600160a060020a03831615610c0757600160a060020a03831660009081526005602052604090208490559392505050565b600160a060020a038216600090815260208581526040808320848452909152902054611ca2908463ffffffff61285516565b60025460405160e460020a630c8a483b028152600091600160a060020a03169063c8a483b09061206f90869086906004016135b4565b602060405180830381600087803b15801561208957600080fd5b505af115801561209d573d6000803e3d6000fd5b505050506040513d601f19601f82011682018060405250610c079190810190613258565b60006003828154811015156120d257fe5b9060005260206000209060160201600101549050919050565b600080600080600060038781548110151561210257fe5b6000918252602090912060156016909202010154861061212157600080fd5b600380548890811061212f57fe5b90600052602060002090601602016015018681548110151561214d57fe5b90600052602060002090600302019050612193816000015460038981548110151561217457fe5b906000526020600020906016020160110161289190919063ffffffff16565b6001850154600290950154949b949a50909850965091945050505050565b60035460009086106121c257600080fd5b60405160e160020a6351750e5302815273__SafeMathIntLib________________________9063a2ea1ca6906121fc90889060040161360a565b60206040518083038186803b15801561221457600080fd5b505af4158015612228573d6000803e3d6000fd5b505050506040513d601f19601f8201168201806040525061224c919081019061310c565b151561225757600080fd5b6122618483612039565b905080600160a060020a031681600160a060020a031663ad502f576040518163ffffffff1660e060020a028152600401602060405180830381600087803b1580156122ab57600080fd5b505af11580156122bf573d6000803e3d6000fd5b505050506040513d601f19601f820116820180604052506122e3919081019061321c565b6040805160e060020a9283900463ffffffff8116909302815233600482015230602482015260448101899052600160a060020a038816606482015260848101879052905160a48083019260009291908290030181865af492505050151561234957600080fd5b61235e85858560038a815481101515610a5b57fe5b61237385858560038a815481101515610a9257fe5b600380548790811061238157fe5b906000526020600020906016020160150160606040519081016040528060016123b260038b815481101515610af257fe5b0381526020016123cc878760038c815481101515610b2357fe5b81524360209182015282546001818101855560009485529382902083516003909202019081559082015192810192909255604090810151600290920191909155516000805160206137e383398151915290610f9390339088908890889061357f565b60008060038481548110151561244057fe5b906000526020600020906016020160010154905061245c61252f565b1561249657600380548590811061246f57fe5b600091825260209091206004601690920201015460ff16151561249157600080fd5b612504565b60038054859081106124a457fe5b6000918252602090912060169091020160020154600160a060020a031633146124cc57600080fd5b60038054859081106124da57fe5b906000526020600020906016020160040160019054906101000a900460ff16151561250457600080fd5b8260038581548110151561251457fe5b60009182526020909120600160169092020101559392505050565b600154600160a060020a0316331490565b6000858152600460205260408120541561255957600080fd5b82806125625750815b151561256d57600080fd5b600380549061257f9060018301612c67565b505060038054908690600019830183811061259657fe5b60009182526020909120601690910201556003805486919060001984019081106125bc57fe5b906000526020600020906016020160010181905550836003600183038154811015156125e457fe5b906000526020600020906016020160020160006101000a815481600160a060020a030219169083600160a060020a031602179055508260036001830381548110151561262c57fe5b906000526020600020906016020160040160016101000a81548160ff0219169083151502179055508160036001830381548110151561266757fe5b906000526020600020906016020160040160006101000a81548160ff021916908315150217905550806003600183038154811015156126a257fe5b6000918252602080832060036016909302019190910192909255968752600481526040808820839055600160a060020a039095168752600590529290942091909155505050565b6000546101009004600160a060020a0316331490565b6000610c048383600387815481101515610d5457fe5b60608160005b815181101561277b5761274d828281518110151561273557fe5b90602001015160f860020a900460f860020a0261294b565b828281518110151561275b57fe5b906020010190600160f860020a031916908160001a90535060010161271b565b5092915050565b60008282018183128015906127975750838112155b806127ac57506000831280156127ac57508381125b1515610c0757600080fd5b600160a060020a0382166000908152602084815260408083208484529091529020541580156127f557506127f560028401838363ffffffff6129a016565b156128135761280e60028401838363ffffffff6129cf16565b6116a0565b61282760028401838363ffffffff6129a016565b15156116a05761284160028401838363ffffffff612a0a16565b6116a060048401838363ffffffff612a0a16565b600080821215801561286957508282840313155b806128805750600082128015612880575082828403135b151561288b57600080fd5b50900390565b815460009081908190819085106128a757600080fd5b85548690869081106128b557fe5b906000526020600020906004020160000154935085600001858154811015156128da57fe5b906000526020600020906004020160010154925085600001858154811015156128ff57fe5b60009182526020909120600260049092020101548654600160a060020a03909116925086908690811061292e57fe5b906000526020600020906004020160030154905092959194509250565b600060f860020a606102600160f860020a031983161080159061297f575060f960020a603d02600160f860020a0319831611155b1561299c5760208260f860020a90040360f860020a029050610bd1565b5090565b600160a060020a0382166000908152600184016020908152604080832084845290915290205415159392505050565b600160a060020a0382166000908152600184016020908152604080832084845290915281205490811115611d1b57611d1b8460018303612aa8565b600160a060020a0382166000908152600184016020908152604080832084845290915290205415156116a057604080518082018252600160a060020a039384168082526020808301858152875460018082018a5560008a8152848120965160029093029096018054600160a060020a031916929099169190911788559051968101969096558654918352949095018452818120928152919092522055565b815460009081908310612aba57600080fd5b8354849084908110612ac857fe5b60009182526020909120600290910201548454600160a060020a039091169250849084908110612af457fe5b6000918252602090912060016002909202010154845490915060001901831015612bf657835484906000198101908110612b2a57fe5b90600052602060002090600202018460000184815481101515612b4957fe5b60009182526020822083546002909202018054600160a060020a031916600160a060020a039092169190911781556001928301549083015585548583019287019190879087908110612b9757fe5b60009182526020808320600290920290910154600160a060020a0316835282019290925260400181208654909190879087908110612bd157fe5b9060005260206000209060020201600101548152602001908152602001600020819055505b8354612c06856000198301612c93565b50600160a060020a03909116600090815260019093016020908152604080852092855291905282209190915550565b60806040519081016040528060008152602001600081526020016000600160a060020a03168152602001600081525090565b8154818355818111156116a0576016028160160283600052602060002091820191016116a09190612cbf565b8154818355818111156116a0576002028160020283600052602060002091820191016116a09190612d8e565b61114191905b8082111561299c57600080825560018201819055600282018054600160a060020a03191690556003820181905560048201805461ffff1916905560058201816007840181612d138282612db9565b5050600482016000612d258282612db9565b505050600b830190506000600d840181612d3f8282612db9565b5050600482016000612d518282612db9565b5050506011830190506000612d668282612ddd565b612d74600283016000612ddd565b50612d859050601583016000612dfe565b50601601612cc5565b61114191905b8082111561299c578054600160a060020a031916815560006001820155600201612d94565b5080546000825560020290600052602060002090810190612dda9190612d8e565b50565b5080546000825560040290600052602060002090810190612dda9190612e1f565b5080546000825560030290600052602060002090810190612dda9190612e58565b61114191905b8082111561299c57600080825560018201819055600282018054600160a060020a03191690556003820155600401612e25565b61114191905b8082111561299c576000808255600182018190556002820155600301612e5e565b6000610c07823561376c565b6000610c078235613778565b6000610c078251613778565b6000610c078235611141565b6000610c07825161377d565b6000610c07823561378a565b6000610c07825161378a565b6000610c078251611141565b6000601f82018313612ef057600080fd5b8135612f03612efe82613741565b61371b565b91508082526020830160208301858383011115612f1f57600080fd5b612f2a8382846137a0565b50505092915050565b600060208284031215612f4557600080fd5b6000612f518484612e7f565b949350505050565b60008060408385031215612f6c57600080fd5b6000612f788585612e7f565b9250506020612f8985828601612e7f565b9150509250929050565b600080600060608486031215612fa857600080fd5b6000612fb48686612e7f565b9350506020612fc586828701612e7f565b9250506040612fd686828701612ea3565b9150509250925092565b60008060408385031215612ff357600080fd5b6000612fff8585612e7f565b92505060208301356001604060020a0381111561301b57600080fd5b612f8985828601612edf565b60008060008060008060c0878903121561304057600080fd5b600061304c8989612e7f565b96505060208701356001604060020a0381111561306857600080fd5b61307489828a01612edf565b955050604061308589828a01612ea3565b945050606061309689828a01612e7f565b93505060806130a789828a01612ea3565b92505060a08701356001604060020a038111156130c357600080fd5b6130cf89828a01612edf565b9150509295509295509295565b600080604083850312156130ef57600080fd5b60006130fb8585612e7f565b9250506020612f8985828601612ea3565b60006020828403121561311e57600080fd5b6000612f518484612e97565b60006020828403121561313c57600080fd5b6000612f518484612ea3565b6000806040838503121561315b57600080fd5b6000612f788585612ea3565b60008060006060848603121561317c57600080fd5b6000612fb48686612ea3565b6000806040838503121561319b57600080fd5b60006130fb8585612ea3565b600080600080600060a086880312156131bf57600080fd5b60006131cb8888612ea3565b95505060206131dc88828901612ea3565b94505060406131ed88828901612e7f565b93505060606131fe88828901612e8b565b925050608061320f88828901612e8b565b9150509295509295909350565b60006020828403121561322e57600080fd5b6000612f518484612eaf565b60006020828403121561324c57600080fd5b6000612f518484612ebb565b60006020828403121561326a57600080fd5b6000612f518484612ec7565b60006020828403121561328857600080fd5b6000612f518484612ed3565b600080600080608085870312156132aa57600080fd5b60006132b68787612ea3565b94505060206132c787828801612e7f565b93505060406132d887828801612ea3565b92505060608501356001604060020a038111156132f457600080fd5b61330087828801612edf565b91505092959194509250565b60006020828403121561331e57600080fd5b81356001604060020a0381111561333457600080fd5b612f5184828501612edf565b6000806040838503121561335357600080fd5b82356001604060020a0381111561336957600080fd5b612f7885828601612edf565b60008060006060848603121561338a57600080fd5b83356001604060020a038111156133a057600080fd5b612fb486828701612edf565b600080600080600060a086880312156133c457600080fd5b85356001604060020a038111156133da57600080fd5b6133e688828901612edf565b95505060206133f788828901612ea3565b945050604061340888828901612e7f565b935050606061341988828901612ea3565b92505060808601356001604060020a0381111561343557600080fd5b61320f88828901612edf565b6000806040838503121561345457600080fd5b82356001604060020a0381111561346a57600080fd5b6130fb85828601612edf565b600080600080600060a0868803121561348e57600080fd5b85356001604060020a038111156134a457600080fd5b6131cb88828901612edf565b6134b98161376c565b82525050565b6134b981613778565b6134b981611141565b6134b98161378a565b6134b981613795565b60006134ee82613768565b8084526135028160208601602086016137ac565b61350b816137d8565b9093016020019392505050565b60208101610a3182846134b0565b6040810161353482856134b0565b610c0760208301846134b0565b6080810161354f82876134b0565b61355c60208301866134c8565b61356960408301856134b0565b61357660608301846134da565b95945050505050565b6080810161358d82876134b0565b61359a60208301866134c8565b6135a760408301856134b0565b61357660608301846134c8565b604081016135c282856134b0565b8181036020830152610c0481846134e3565b606081016135e282866134b0565b6135ef60208301856134c8565b612f5160408301846134c8565b60208101610a3182846134bf565b60208101610a3182846134c8565b6060810161362682866134c8565b61363360208301856134b0565b612f5160408301846134b0565b6060810161364e82866134c8565b61363360208301856134c8565b606081016135e282866134c8565b60208101610a3182846134d1565b6040810161368582856134d1565b610c0760208301846134d1565b604081016136a082856134c8565b610c0760208301846134c8565b6080810161358d82876134c8565b606080825281016136cc81866134e3565b905061363360208301856134b0565b606080825281016136ec81866134e3565b905061363360208301856134c8565b6060808252810161370c81866134e3565b90506135ef60208301856134c8565b6040518181016001604060020a038111828210171561373957600080fd5b604052919050565b60006001604060020a0382111561375757600080fd5b506020601f91909101601f19160190565b5190565b600160a060020a031690565b151590565b600160e060020a03191690565b6000610a318261376c565b6000610a3182611141565b82818337506000910152565b60005b838110156137c75781810151838201526020016137af565b83811115611d1b5750506000910152565b601f01601f19169056006d20076dccc9a1dd1722d0739c60065c999d4137e9683cbe4d752527539d9f74a265627a7a72305820e938eac4be1d93961bfd82a27507f94c37cafb472d9fe214e8b5a5b20b5bd7b96c6578706572696d656e74616cf50037",
  "source": "/*\n * Hubii Nahmii\n *\n * Compliant with the Hubii Nahmii specification v0.12.\n *\n * Copyright (C) 2017-2018 Hubii AS\n */\n\npragma solidity ^0.4.25;\npragma experimental ABIEncoderV2;\n\nimport {SafeMathIntLib} from \"./SafeMathIntLib.sol\";\nimport {Ownable} from \"./Ownable.sol\";\nimport {Beneficiary} from \"./Beneficiary.sol\";\nimport {TransferControllerManageable} from \"./TransferControllerManageable.sol\";\nimport {TransferController} from \"./TransferController.sol\";\nimport {FungibleBalanceLib} from \"./FungibleBalanceLib.sol\";\nimport {TxHistoryLib} from \"./TxHistoryLib.sol\";\nimport {MonetaryTypesLib} from \"./MonetaryTypesLib.sol\";\nimport {Strings} from \"solidity-util/lib/Strings.sol\";\n\n/**\n * @title PartnerFund\n * @notice Where partners fees are managed\n */\ncontract PartnerFund is Ownable, Beneficiary, TransferControllerManageable {\n    using FungibleBalanceLib for FungibleBalanceLib.Balance;\n    using TxHistoryLib for TxHistoryLib.TxHistory;\n    using SafeMathIntLib for int256;\n    using Strings for string;\n\n    //\n    // Structures\n    // -----------------------------------------------------------------------------------------------------------------\n    struct Partner {\n        bytes32 nameHash;\n\n        uint256 fee;\n        address wallet;\n        uint256 index;\n\n        bool operatorCanUpdate;\n        bool partnerCanUpdate;\n\n        FungibleBalanceLib.Balance active;\n        FungibleBalanceLib.Balance staged;\n\n        TxHistoryLib.TxHistory txHistory;\n        FullBalanceHistory[] fullBalanceHistory;\n    }\n\n    struct FullBalanceHistory {\n        uint256 listIndex;\n        int256 balance;\n        uint256 blockNumber;\n    }\n\n    //\n    // Variables\n    // -----------------------------------------------------------------------------------------------------------------\n    Partner[] private partners;\n\n    mapping(bytes32 => uint256) private _indexByNameHash;\n    mapping(address => uint256) private _indexByWallet;\n\n    //\n    // Events\n    // -----------------------------------------------------------------------------------------------------------------\n    event ReceiveEvent(address from, int256 amount, address currencyCt, uint256 currencyId);\n    event RegisterPartnerByNameEvent(string name, uint256 fee, address wallet);\n    event RegisterPartnerByNameHashEvent(bytes32 nameHash, uint256 fee, address wallet);\n    event SetFeeByIndexEvent(uint256 index, uint256 oldFee, uint256 newFee);\n    event SetFeeByNameEvent(string name, uint256 oldFee, uint256 newFee);\n    event SetFeeByNameHashEvent(bytes32 nameHash, uint256 oldFee, uint256 newFee);\n    event SetFeeByWalletEvent(address wallet, uint256 oldFee, uint256 newFee);\n    event SetPartnerWalletByIndexEvent(uint256 index, address oldWallet, address newWallet);\n    event SetPartnerWalletByNameEvent(string name, address oldWallet, address newWallet);\n    event SetPartnerWalletByNameHashEvent(bytes32 nameHash, address oldWallet, address newWallet);\n    event SetPartnerWalletByWalletEvent(address oldWallet, address newWallet);\n    event StageEvent(address from, int256 amount, address currencyCt, uint256 currencyId);\n    event WithdrawEvent(address to, int256 amount, address currencyCt, uint256 currencyId);\n\n    //\n    // Constructor\n    // -----------------------------------------------------------------------------------------------------------------\n    constructor(address deployer) Ownable(deployer) public {\n    }\n\n    //\n    // Functions\n    // -----------------------------------------------------------------------------------------------------------------\n    /// @notice Fallback function that deposits ethers\n    function() public payable {\n        _receiveEthersTo(\n            indexByWallet(msg.sender) - 1, SafeMathIntLib.toNonZeroInt256(msg.value)\n        );\n    }\n\n    /// @notice Receive ethers to\n    /// @param tag The tag of the concerned partner\n    function receiveEthersTo(address tag, string)\n    public\n    payable\n    {\n        _receiveEthersTo(\n            uint256(tag) - 1, SafeMathIntLib.toNonZeroInt256(msg.value)\n        );\n    }\n\n    /// @notice Receive tokens\n    /// @param amount The concerned amount\n    /// @param currencyCt The address of the concerned currency contract (address(0) == ETH)\n    /// @param currencyId The ID of the concerned currency (0 for ETH and ERC20)\n    /// @param standard The standard of token (\"ERC20\", \"ERC721\")\n    function receiveTokens(string, int256 amount, address currencyCt,\n        uint256 currencyId, string standard)\n    public\n    {\n        _receiveTokensTo(\n            indexByWallet(msg.sender) - 1, amount, currencyCt, currencyId, standard\n        );\n    }\n\n    /// @notice Receive tokens to\n    /// @param tag The tag of the concerned partner\n    /// @param amount The concerned amount\n    /// @param currencyCt The address of the concerned currency contract (address(0) == ETH)\n    /// @param currencyId The ID of the concerned currency (0 for ETH and ERC20)\n    /// @param standard The standard of token (\"ERC20\", \"ERC721\")\n    function receiveTokensTo(address tag, string, int256 amount, address currencyCt,\n        uint256 currencyId, string standard)\n    public\n    {\n        _receiveTokensTo(\n            uint256(tag) - 1, amount, currencyCt, currencyId, standard\n        );\n    }\n\n    /// @notice Hash name\n    /// @param name The name to be hashed\n    /// @return The hash value\n    function hashName(string name)\n    public\n    pure\n    returns (bytes32)\n    {\n        return keccak256(abi.encodePacked(name.upper()));\n    }\n\n    /// @notice Get deposit by partner and deposit indices\n    /// @param partnerIndex The index of the concerned partner\n    /// @param depositIndex The index of the concerned deposit\n    /// return The deposit parameters\n    function depositByIndices(uint256 partnerIndex, uint256 depositIndex)\n    public\n    view\n    returns (int256 balance, uint256 blockNumber, address currencyCt, uint256 currencyId)\n    {\n        // Require partner index is one of registered partner\n        require(0 < partnerIndex && partnerIndex <= partners.length);\n\n        return _depositByIndices(partnerIndex - 1, depositIndex);\n    }\n\n    /// @notice Get deposit by partner name and deposit indices\n    /// @param name The name of the concerned partner\n    /// @param depositIndex The index of the concerned deposit\n    /// return The deposit parameters\n    function depositByName(string name, uint depositIndex)\n    public\n    view\n    returns (int256 balance, uint256 blockNumber, address currencyCt, uint256 currencyId)\n    {\n        // Implicitly require that partner name is registered\n        return _depositByIndices(indexByName(name) - 1, depositIndex);\n    }\n\n    /// @notice Get deposit by partner name hash and deposit indices\n    /// @param nameHash The hashed name of the concerned partner\n    /// @param depositIndex The index of the concerned deposit\n    /// return The deposit parameters\n    function depositByNameHash(bytes32 nameHash, uint depositIndex)\n    public\n    view\n    returns (int256 balance, uint256 blockNumber, address currencyCt, uint256 currencyId)\n    {\n        // Implicitly require that partner name hash is registered\n        return _depositByIndices(indexByNameHash(nameHash) - 1, depositIndex);\n    }\n\n    /// @notice Get deposit by partner wallet and deposit indices\n    /// @param wallet The wallet of the concerned partner\n    /// @param depositIndex The index of the concerned deposit\n    /// return The deposit parameters\n    function depositByWallet(address wallet, uint depositIndex)\n    public\n    view\n    returns (int256 balance, uint256 blockNumber, address currencyCt, uint256 currencyId)\n    {\n        // Implicitly require that partner wallet is registered\n        return _depositByIndices(indexByWallet(wallet) - 1, depositIndex);\n    }\n\n    /// @notice Get deposits count by partner index\n    /// @param index The index of the concerned partner\n    /// return The deposits count\n    function depositsCountByIndex(uint256 index)\n    public\n    view\n    returns (uint256)\n    {\n        // Require partner index is one of registered partner\n        require(0 < index && index <= partners.length);\n\n        return _depositsCountByIndex(index - 1);\n    }\n\n    /// @notice Get deposits count by partner name\n    /// @param name The name of the concerned partner\n    /// return The deposits count\n    function depositsCountByName(string name)\n    public\n    view\n    returns (uint256)\n    {\n        // Implicitly require that partner name is registered\n        return _depositsCountByIndex(indexByName(name) - 1);\n    }\n\n    /// @notice Get deposits count by partner name hash\n    /// @param nameHash The hashed name of the concerned partner\n    /// return The deposits count\n    function depositsCountByNameHash(bytes32 nameHash)\n    public\n    view\n    returns (uint256)\n    {\n        // Implicitly require that partner name hash is registered\n        return _depositsCountByIndex(indexByNameHash(nameHash) - 1);\n    }\n\n    /// @notice Get deposits count by partner wallet\n    /// @param wallet The wallet of the concerned partner\n    /// return The deposits count\n    function depositsCountByWallet(address wallet)\n    public\n    view\n    returns (uint256)\n    {\n        // Implicitly require that partner wallet is registered\n        return _depositsCountByIndex(indexByWallet(wallet) - 1);\n    }\n\n    /// @notice Get active balance by partner index and currency\n    /// @param index The index of the concerned partner\n    /// @param currencyCt The address of the concerned currency contract (address(0) == ETH)\n    /// @param currencyId The ID of the concerned currency (0 for ETH and ERC20)\n    /// return The active balance\n    function activeBalanceByIndex(uint256 index, address currencyCt, uint256 currencyId)\n    public\n    view\n    returns (int256)\n    {\n        // Require partner index is one of registered partner\n        require(0 < index && index <= partners.length);\n\n        return _activeBalanceByIndex(index - 1, currencyCt, currencyId);\n    }\n\n    /// @notice Get active balance by partner name and currency\n    /// @param name The name of the concerned partner\n    /// @param currencyCt The address of the concerned currency contract (address(0) == ETH)\n    /// @param currencyId The ID of the concerned currency (0 for ETH and ERC20)\n    /// return The active balance\n    function activeBalanceByName(string name, address currencyCt, uint256 currencyId)\n    public\n    view\n    returns (int256)\n    {\n        // Implicitly require that partner name is registered\n        return _activeBalanceByIndex(indexByName(name) - 1, currencyCt, currencyId);\n    }\n\n    /// @notice Get active balance by partner name hash and currency\n    /// @param nameHash The hashed name of the concerned partner\n    /// @param currencyCt The address of the concerned currency contract (address(0) == ETH)\n    /// @param currencyId The ID of the concerned currency (0 for ETH and ERC20)\n    /// return The active balance\n    function activeBalanceByNameHash(bytes32 nameHash, address currencyCt, uint256 currencyId)\n    public\n    view\n    returns (int256)\n    {\n        // Implicitly require that partner name hash is registered\n        return _activeBalanceByIndex(indexByNameHash(nameHash) - 1, currencyCt, currencyId);\n    }\n\n    /// @notice Get active balance by partner wallet and currency\n    /// @param wallet The wallet of the concerned partner\n    /// @param currencyCt The address of the concerned currency contract (address(0) == ETH)\n    /// @param currencyId The ID of the concerned currency (0 for ETH and ERC20)\n    /// return The active balance\n    function activeBalanceByWallet(address wallet, address currencyCt, uint256 currencyId)\n    public\n    view\n    returns (int256)\n    {\n        // Implicitly require that partner wallet is registered\n        return _activeBalanceByIndex(indexByWallet(wallet) - 1, currencyCt, currencyId);\n    }\n\n    /// @notice Get staged balance by partner index and currency\n    /// @param index The index of the concerned partner\n    /// @param currencyCt The address of the concerned currency contract (address(0) == ETH)\n    /// @param currencyId The ID of the concerned currency (0 for ETH and ERC20)\n    /// return The staged balance\n    function stagedBalanceByIndex(uint256 index, address currencyCt, uint256 currencyId)\n    public\n    view\n    returns (int256)\n    {\n        // Require partner index is one of registered partner\n        require(0 < index && index <= partners.length);\n\n        return _stagedBalanceByIndex(index - 1, currencyCt, currencyId);\n    }\n\n    /// @notice Get staged balance by partner name and currency\n    /// @param name The name of the concerned partner\n    /// @param currencyCt The address of the concerned currency contract (address(0) == ETH)\n    /// @param currencyId The ID of the concerned currency (0 for ETH and ERC20)\n    /// return The staged balance\n    function stagedBalanceByName(string name, address currencyCt, uint256 currencyId)\n    public\n    view\n    returns (int256)\n    {\n        // Implicitly require that partner name is registered\n        return _stagedBalanceByIndex(indexByName(name) - 1, currencyCt, currencyId);\n    }\n\n    /// @notice Get staged balance by partner name hash and currency\n    /// @param nameHash The hashed name of the concerned partner\n    /// @param currencyCt The address of the concerned currency contract (address(0) == ETH)\n    /// @param currencyId The ID of the concerned currency (0 for ETH and ERC20)\n    /// return The staged balance\n    function stagedBalanceByNameHash(bytes32 nameHash, address currencyCt, uint256 currencyId)\n    public\n    view\n    returns (int256)\n    {\n        // Implicitly require that partner name is registered\n        return _stagedBalanceByIndex(indexByNameHash(nameHash) - 1, currencyCt, currencyId);\n    }\n\n    /// @notice Get staged balance by partner wallet and currency\n    /// @param wallet The wallet of the concerned partner\n    /// @param currencyCt The address of the concerned currency contract (address(0) == ETH)\n    /// @param currencyId The ID of the concerned currency (0 for ETH and ERC20)\n    /// return The staged balance\n    function stagedBalanceByWallet(address wallet, address currencyCt, uint256 currencyId)\n    public\n    view\n    returns (int256)\n    {\n        // Implicitly require that partner wallet is registered\n        return _stagedBalanceByIndex(indexByWallet(wallet) - 1, currencyCt, currencyId);\n    }\n\n    /// @notice Get the number of partners\n    /// @return The number of partners\n    function partnersCount()\n    public\n    view\n    returns (uint256)\n    {\n        return partners.length;\n    }\n\n    /// @notice Register a partner by name\n    /// @param name The name of the concerned partner\n    /// @param fee The partner's fee fraction\n    /// @param wallet The partner's wallet\n    /// @param partnerCanUpdate Indicator of whether partner can update fee and wallet\n    /// @param operatorCanUpdate Indicator of whether operator can update fee and wallet\n    function registerByName(string name, uint256 fee, address wallet,\n        bool partnerCanUpdate, bool operatorCanUpdate)\n    public\n    onlyOperator\n    {\n        // Require not empty name string\n        require(bytes(name).length > 0);\n\n        // Hash name\n        bytes32 nameHash = hashName(name);\n\n        // Register partner\n        _registerPartnerByNameHash(nameHash, fee, wallet, partnerCanUpdate, operatorCanUpdate);\n\n        // Emit event\n        emit RegisterPartnerByNameEvent(name, fee, wallet);\n    }\n\n    /// @notice Register a partner by name hash\n    /// @param nameHash The hashed name of the concerned partner\n    /// @param fee The partner's fee fraction\n    /// @param wallet The partner's wallet\n    /// @param partnerCanUpdate Indicator of whether partner can update fee and wallet\n    /// @param operatorCanUpdate Indicator of whether operator can update fee and wallet\n    function registerByNameHash(bytes32 nameHash, uint256 fee, address wallet,\n        bool partnerCanUpdate, bool operatorCanUpdate)\n    public\n    onlyOperator\n    {\n        // Register partner\n        _registerPartnerByNameHash(nameHash, fee, wallet, partnerCanUpdate, operatorCanUpdate);\n\n        // Emit event\n        emit RegisterPartnerByNameHashEvent(nameHash, fee, wallet);\n    }\n\n    /// @notice Gets the 1-based index of partner by its name\n    /// @dev Reverts if name does not correspond to registered partner\n    /// @return Index of partner by given name\n    function indexByNameHash(bytes32 nameHash)\n    public\n    view\n    returns (uint256)\n    {\n        uint256 index = _indexByNameHash[nameHash];\n        require(0 < index);\n        return index;\n    }\n\n    /// @notice Gets the 1-based index of partner by its name\n    /// @dev Reverts if name does not correspond to registered partner\n    /// @return Index of partner by given name\n    function indexByName(string name)\n    public\n    view\n    returns (uint256)\n    {\n        return indexByNameHash(hashName(name));\n    }\n\n    /// @notice Gets the 1-based index of partner by its wallet\n    /// @dev Reverts if wallet does not correspond to registered partner\n    /// @return Index of partner by given wallet\n    function indexByWallet(address wallet)\n    public\n    view\n    returns (uint256)\n    {\n        uint256 index = _indexByWallet[wallet];\n        require(0 < index);\n        return index;\n    }\n\n    /// @notice Gauge whether a partner by the given name is registered\n    /// @param name The name of the concerned partner\n    /// @return true if partner is registered, else false\n    function isRegisteredByName(string name)\n    public\n    view\n    returns (bool)\n    {\n        return (0 < _indexByNameHash[hashName(name)]);\n    }\n\n    /// @notice Gauge whether a partner by the given name hash is registered\n    /// @param nameHash The hashed name of the concerned partner\n    /// @return true if partner is registered, else false\n    function isRegisteredByNameHash(bytes32 nameHash)\n    public\n    view\n    returns (bool)\n    {\n        return (0 < _indexByNameHash[nameHash]);\n    }\n\n    /// @notice Gauge whether a partner by the given wallet is registered\n    /// @param wallet The wallet of the concerned partner\n    /// @return true if partner is registered, else false\n    function isRegisteredByWallet(address wallet)\n    public\n    view\n    returns (bool)\n    {\n        return (0 < _indexByWallet[wallet]);\n    }\n\n    /// @notice Get the partner fee fraction by the given partner index\n    /// @param index The index of the concerned partner\n    /// @return The fee fraction\n    function feeByIndex(uint256 index)\n    public\n    view\n    returns (uint256)\n    {\n        // Require partner index is one of registered partner\n        require(0 < index && index <= partners.length);\n\n        return _partnerFeeByIndex(index - 1);\n    }\n\n    /// @notice Get the partner fee fraction by the given partner name\n    /// @param name The name of the concerned partner\n    /// @return The fee fraction\n    function feeByName(string name)\n    public\n    view\n    returns (uint256)\n    {\n        // Get fee, implicitly requiring that partner name is registered\n        return _partnerFeeByIndex(indexByName(name) - 1);\n    }\n\n    /// @notice Get the partner fee fraction by the given partner name hash\n    /// @param nameHash The hashed name of the concerned partner\n    /// @return The fee fraction\n    function feeByNameHash(bytes32 nameHash)\n    public\n    view\n    returns (uint256)\n    {\n        // Get fee, implicitly requiring that partner name hash is registered\n        return _partnerFeeByIndex(indexByNameHash(nameHash) - 1);\n    }\n\n    /// @notice Get the partner fee fraction by the given partner wallet\n    /// @param wallet The wallet of the concerned partner\n    /// @return The fee fraction\n    function feeByWallet(address wallet)\n    public\n    view\n    returns (uint256)\n    {\n        // Get fee, implicitly requiring that partner wallet is registered\n        return _partnerFeeByIndex(indexByWallet(wallet) - 1);\n    }\n\n    /// @notice Set the partner fee fraction by the given partner index\n    /// @param index The index of the concerned partner\n    /// @param newFee The partner's fee fraction\n    function setFeeByIndex(uint256 index, uint256 newFee)\n    public\n    {\n        // Require partner index is one of registered partner\n        require(0 < index && index <= partners.length);\n\n        // Update fee\n        uint256 oldFee = _setPartnerFeeByIndex(index - 1, newFee);\n\n        // Emit event\n        emit SetFeeByIndexEvent(index, oldFee, newFee);\n    }\n\n    /// @notice Set the partner fee fraction by the given partner name\n    /// @param name The name of the concerned partner\n    /// @param newFee The partner's fee fraction\n    function setFeeByName(string name, uint256 newFee)\n    public\n    {\n        // Update fee, implicitly requiring that partner name is registered\n        uint256 oldFee = _setPartnerFeeByIndex(indexByName(name) - 1, newFee);\n\n        // Emit event\n        emit SetFeeByNameEvent(name, oldFee, newFee);\n    }\n\n    /// @notice Set the partner fee fraction by the given partner name hash\n    /// @param nameHash The hashed name of the concerned partner\n    /// @param newFee The partner's fee fraction\n    function setFeeByNameHash(bytes32 nameHash, uint256 newFee)\n    public\n    {\n        // Update fee, implicitly requiring that partner name hash is registered\n        uint256 oldFee = _setPartnerFeeByIndex(indexByNameHash(nameHash) - 1, newFee);\n\n        // Emit event\n        emit SetFeeByNameHashEvent(nameHash, oldFee, newFee);\n    }\n\n    /// @notice Set the partner fee fraction by the given partner wallet\n    /// @param wallet The wallet of the concerned partner\n    /// @param newFee The partner's fee fraction\n    function setFeeByWallet(address wallet, uint256 newFee)\n    public\n    {\n        // Update fee, implicitly requiring that partner wallet is registered\n        uint256 oldFee = _setPartnerFeeByIndex(indexByWallet(wallet) - 1, newFee);\n\n        // Emit event\n        emit SetFeeByWalletEvent(wallet, oldFee, newFee);\n    }\n\n    /// @notice Get the partner wallet by the given partner index\n    /// @param index The index of the concerned partner\n    /// @return The wallet\n    function walletByIndex(uint256 index)\n    public\n    view\n    returns (address)\n    {\n        // Require partner index is one of registered partner\n        require(0 < index && index <= partners.length);\n\n        return partners[index - 1].wallet;\n    }\n\n    /// @notice Get the partner wallet by the given partner name\n    /// @param name The name of the concerned partner\n    /// @return The wallet\n    function walletByName(string name)\n    public\n    view\n    returns (address)\n    {\n        // Get wallet, implicitly requiring that partner name is registered\n        return partners[indexByName(name) - 1].wallet;\n    }\n\n    /// @notice Get the partner wallet by the given partner name hash\n    /// @param nameHash The hashed name of the concerned partner\n    /// @return The wallet\n    function walletByNameHash(bytes32 nameHash)\n    public\n    view\n    returns (address)\n    {\n        // Get wallet, implicitly requiring that partner name hash is registered\n        return partners[indexByNameHash(nameHash) - 1].wallet;\n    }\n\n    /// @notice Set the partner wallet by the given partner index\n    /// @param index The index of the concerned partner\n    /// @return newWallet The partner's wallet\n    function setWalletByIndex(uint256 index, address newWallet)\n    public\n    {\n        // Require partner index is one of registered partner\n        require(0 < index && index <= partners.length);\n\n        // Update wallet\n        address oldWallet = _setPartnerWalletByIndex(index - 1, newWallet);\n\n        // Emit event\n        emit SetPartnerWalletByIndexEvent(index, oldWallet, newWallet);\n    }\n\n    /// @notice Set the partner wallet by the given partner name\n    /// @param name The name of the concerned partner\n    /// @return newWallet The partner's wallet\n    function setWalletByName(string name, address newWallet)\n    public\n    {\n        // Update wallet\n        address oldWallet = _setPartnerWalletByIndex(indexByName(name) - 1, newWallet);\n\n        // Emit event\n        emit SetPartnerWalletByNameEvent(name, oldWallet, newWallet);\n    }\n\n    /// @notice Set the partner wallet by the given partner name hash\n    /// @param nameHash The hashed name of the concerned partner\n    /// @return newWallet The partner's wallet\n    function setWalletByNameHash(bytes32 nameHash, address newWallet)\n    public\n    {\n        // Update wallet\n        address oldWallet = _setPartnerWalletByIndex(indexByNameHash(nameHash) - 1, newWallet);\n\n        // Emit event\n        emit SetPartnerWalletByNameHashEvent(nameHash, oldWallet, newWallet);\n    }\n\n    /// @notice Set the new partner wallet by the given old partner wallet\n    /// @param oldWallet The old wallet of the concerned partner\n    /// @return newWallet The partner's new wallet\n    function setWalletByWallet(address oldWallet, address newWallet)\n    public\n    {\n        // Update wallet\n        _setPartnerWalletByIndex(indexByWallet(oldWallet) - 1, newWallet);\n\n        // Emit event\n        emit SetPartnerWalletByWalletEvent(oldWallet, newWallet);\n    }\n\n    /// @notice Stage the amount for subsequent withdrawal\n    /// @param amount The concerned amount to stage\n    /// @param currencyCt The address of the concerned currency contract (address(0) == ETH)\n    /// @param currencyId The ID of the concerned currency (0 for ETH and ERC20)\n    function stage(int256 amount, address currencyCt, uint256 currencyId)\n    public\n    {\n        // Get index, implicitly requiring that msg.sender is wallet of registered partner\n        uint256 index = indexByWallet(msg.sender);\n\n        // Require positive amount\n        require(amount.isPositiveInt256());\n\n        // Clamp amount to move\n        amount = amount.clampMax(partners[index - 1].active.get(currencyCt, currencyId));\n\n        partners[index - 1].active.sub(amount, currencyCt, currencyId);\n        partners[index - 1].staged.add(amount, currencyCt, currencyId);\n\n        partners[index - 1].txHistory.addDeposit(amount, currencyCt, currencyId);\n\n        // Add to full deposit history\n        partners[index - 1].fullBalanceHistory.push(\n            FullBalanceHistory(\n                partners[index - 1].txHistory.depositsCount() - 1,\n                partners[index - 1].active.get(currencyCt, currencyId),\n                block.number\n            )\n        );\n\n        // Emit event\n        emit StageEvent(msg.sender, amount, currencyCt, currencyId);\n    }\n\n    /// @notice Withdraw the given amount from staged balance\n    /// @param amount The concerned amount to withdraw\n    /// @param currencyCt The address of the concerned currency contract (address(0) == ETH)\n    /// @param currencyId The ID of the concerned currency (0 for ETH and ERC20)\n    /// @param standard The standard of the token (\"\" for default registered, \"ERC20\", \"ERC721\")\n    function withdraw(int256 amount, address currencyCt, uint256 currencyId, string standard)\n    public\n    {\n        // Get index, implicitly requiring that msg.sender is wallet of registered partner\n        uint256 index = indexByWallet(msg.sender);\n\n        // Require positive amount\n        require(amount.isPositiveInt256());\n\n        // Clamp amount to move\n        amount = amount.clampMax(partners[index - 1].staged.get(currencyCt, currencyId));\n\n        partners[index - 1].staged.sub(amount, currencyCt, currencyId);\n\n        // Execute transfer\n        if (address(0) == currencyCt && 0 == currencyId)\n            msg.sender.transfer(uint256(amount));\n\n        else {\n            TransferController controller = transferController(currencyCt, standard);\n            require(\n                address(controller).delegatecall(\n                    controller.getDispatchSignature(), this, msg.sender, uint256(amount), currencyCt, currencyId\n                )\n            );\n        }\n\n        // Emit event\n        emit WithdrawEvent(msg.sender, amount, currencyCt, currencyId);\n    }\n\n    //\n    // Private functions\n    // -----------------------------------------------------------------------------------------------------------------\n    /// @dev index is 0-based\n    function _receiveEthersTo(uint256 index, int256 amount)\n    private\n    {\n        // Require that index is within bounds\n        require(index < partners.length);\n\n        // Add to active\n        partners[index].active.add(amount, address(0), 0);\n        partners[index].txHistory.addDeposit(amount, address(0), 0);\n\n        // Add to full deposit history\n        partners[index].fullBalanceHistory.push(\n            FullBalanceHistory(\n                partners[index].txHistory.depositsCount() - 1,\n                partners[index].active.get(address(0), 0),\n                block.number\n            )\n        );\n\n        // Emit event\n        emit ReceiveEvent(msg.sender, amount, address(0), 0);\n    }\n\n    /// @dev index is 0-based\n    function _receiveTokensTo(uint256 index, int256 amount, address currencyCt,\n        uint256 currencyId, string standard)\n    private\n    {\n        // Require that index is within bounds\n        require(index < partners.length);\n\n        require(amount.isNonZeroPositiveInt256());\n\n        // Execute transfer\n        TransferController controller = transferController(currencyCt, standard);\n        require(\n            address(controller).delegatecall(\n                controller.getReceiveSignature(), msg.sender, this, uint256(amount), currencyCt, currencyId\n            )\n        );\n\n        // Add to active\n        partners[index].active.add(amount, currencyCt, currencyId);\n        partners[index].txHistory.addDeposit(amount, currencyCt, currencyId);\n\n        // Add to full deposit history\n        partners[index].fullBalanceHistory.push(\n            FullBalanceHistory(\n                partners[index].txHistory.depositsCount() - 1,\n                partners[index].active.get(currencyCt, currencyId),\n                block.number\n            )\n        );\n\n        // Emit event\n        emit ReceiveEvent(msg.sender, amount, currencyCt, currencyId);\n    }\n\n    /// @dev partnerIndex is 0-based\n    function _depositByIndices(uint256 partnerIndex, uint256 depositIndex)\n    private\n    view\n    returns (int256 balance, uint256 blockNumber, address currencyCt, uint256 currencyId)\n    {\n        require(depositIndex < partners[partnerIndex].fullBalanceHistory.length);\n\n        FullBalanceHistory storage entry = partners[partnerIndex].fullBalanceHistory[depositIndex];\n        (,, currencyCt, currencyId) = partners[partnerIndex].txHistory.deposit(entry.listIndex);\n\n        balance = entry.balance;\n        blockNumber = entry.blockNumber;\n    }\n\n    /// @dev index is 0-based\n    function _depositsCountByIndex(uint256 index)\n    private\n    view\n    returns (uint256)\n    {\n        return partners[index].fullBalanceHistory.length;\n    }\n\n    /// @dev index is 0-based\n    function _activeBalanceByIndex(uint256 index, address currencyCt, uint256 currencyId)\n    private\n    view\n    returns (int256)\n    {\n        return partners[index].active.get(currencyCt, currencyId);\n    }\n\n    /// @dev index is 0-based\n    function _stagedBalanceByIndex(uint256 index, address currencyCt, uint256 currencyId)\n    private\n    view\n    returns (int256)\n    {\n        return partners[index].staged.get(currencyCt, currencyId);\n    }\n\n    function _registerPartnerByNameHash(bytes32 nameHash, uint256 fee, address wallet,\n        bool partnerCanUpdate, bool operatorCanUpdate)\n    private\n    {\n        // Require that the name is not previously registered\n        require(0 == _indexByNameHash[nameHash]);\n\n        // Require possibility to update\n        require(partnerCanUpdate || operatorCanUpdate);\n\n        // Add new partner\n        partners.length++;\n\n        // Reference by 1-based index\n        uint256 index = partners.length;\n\n        // Update partner map\n        partners[index - 1].nameHash = nameHash;\n        partners[index - 1].fee = fee;\n        partners[index - 1].wallet = wallet;\n        partners[index - 1].partnerCanUpdate = partnerCanUpdate;\n        partners[index - 1].operatorCanUpdate = operatorCanUpdate;\n        partners[index - 1].index = index;\n\n        // Update name hash to index map\n        _indexByNameHash[nameHash] = index;\n\n        // Update wallet to index map\n        _indexByWallet[wallet] = index;\n    }\n\n    /// @dev index is 0-based\n    function _setPartnerFeeByIndex(uint256 index, uint256 fee)\n    private\n    returns (uint256)\n    {\n        uint256 oldFee = partners[index].fee;\n\n        // If operator tries to change verify that operator has access\n        if (isOperator())\n            require(partners[index].operatorCanUpdate);\n\n        else {\n            // Require that msg.sender is partner\n            require(msg.sender == partners[index].wallet);\n\n            // If partner tries to change verify that partner has access\n            require(partners[index].partnerCanUpdate);\n        }\n\n        // Update stored fee\n        partners[index].fee = fee;\n\n        return oldFee;\n    }\n\n    // @dev index is 0-based\n    function _setPartnerWalletByIndex(uint256 index, address newWallet)\n    private\n    returns (address)\n    {\n        address oldWallet = partners[index].wallet;\n\n        // If address has not been set operator is the only allowed to change it\n        if (oldWallet == address(0))\n            require(isOperator());\n\n        // Else if operator tries to change verify that operator has access\n        else if (isOperator())\n            require(partners[index].operatorCanUpdate);\n\n        else {\n            // Require that msg.sender is partner\n            require(msg.sender == oldWallet);\n\n            // If partner tries to change verify that partner has access\n            require(partners[index].partnerCanUpdate);\n\n            // Require that new wallet is not zero-address if it can not be changed by operator\n            require(partners[index].operatorCanUpdate || newWallet != address(0));\n        }\n\n        // Update stored wallet\n        partners[index].wallet = newWallet;\n\n        // Update address to tag map\n        if (oldWallet != address(0))\n            _indexByWallet[oldWallet] = 0;\n        if (newWallet != address(0))\n            _indexByWallet[newWallet] = index;\n\n        return oldWallet;\n    }\n\n    // @dev index is 0-based\n    function _partnerFeeByIndex(uint256 index)\n    private\n    view\n    returns (uint256)\n    {\n        return partners[index].fee;\n    }\n}\n",
  "sourcePath": "/opt/buildagent/work/855e104608380c36/contracts/PartnerFund.sol",
  "compiler": {
    "name": "solc",
    "version": "0.4.25+commit.59dbf8f1.Emscripten.clang"
  },
  "schemaVersion": "2.0.1",
  "updatedAt": "2019-01-31T11:28:30.166Z"
}