{
  "contractName": "PaymentTypesLib",
  "abi": [
    {
      "constant": true,
      "inputs": [],
      "name": "PAYMENT_KIND",
      "outputs": [
        {
          "internalType": "string",
          "name": "",
          "type": "string"
        }
      ],
      "payable": false,
      "stateMutability": "pure",
      "type": "function"
    }
  ],
  "bytecode": "0x610106610026600b82828239805160001a60731461001957fe5b30600052607381538281f3fe730000000000000000000000000000000000000000301460806040526004361060335760003560e01c80635174abe9146038575b600080fd5b603e60b0565b6040805160208082528351818301528351919283929083019185019080838360005b8381101560765781810151838201526020016060565b50505050905090810190601f16801560a25780820380516001836020036101000a031916815260200191505b509250505060405180910390f35b6040805180820190915260078152661c185e5b595b9d60ca1b60208201529056fea265627a7a72315820a498d32d53fe191c110aa5c28fdc8384728dfba17ea8533b7aa59b9e9149ea1764736f6c634300050c0032",
  "source": "/*\n * Hubii Nahmii\n *\n * Compliant with the Hubii Nahmii specification v0.12.\n *\n * Copyright (C) 2017-2018 Hubii AS\n */\n\npragma solidity >=0.4.25 <0.6.0;\n\nimport {MonetaryTypesLib} from \"./MonetaryTypesLib.sol\";\nimport {NahmiiTypesLib} from \"./NahmiiTypesLib.sol\";\n\n/**\n * @title     PaymentTypesLib\n * @dev       Data types centered around payment\n */\nlibrary PaymentTypesLib {\n    //\n    // Enums\n    // -----------------------------------------------------------------------------------------------------------------\n    enum PaymentPartyRole {Sender, Recipient}\n\n    //\n    // Structures\n    // -----------------------------------------------------------------------------------------------------------------\n    struct PaymentSenderParty {\n        uint256 nonce;\n        address wallet;\n\n        NahmiiTypesLib.CurrentPreviousInt256 balances;\n\n        NahmiiTypesLib.SingleFigureTotalOriginFigures fees;\n\n        string data;\n    }\n\n    struct PaymentRecipientParty {\n        uint256 nonce;\n        address wallet;\n\n        NahmiiTypesLib.CurrentPreviousInt256 balances;\n\n        NahmiiTypesLib.TotalOriginFigures fees;\n    }\n\n    struct Operator {\n        uint256 id;\n        string data;\n    }\n\n    struct Payment {\n        int256 amount;\n        MonetaryTypesLib.Currency currency;\n\n        PaymentSenderParty sender;\n        PaymentRecipientParty recipient;\n\n        // Positive transfer is always in direction from sender to recipient\n        NahmiiTypesLib.SingleTotalInt256 transfers;\n\n        NahmiiTypesLib.WalletOperatorSeal seals;\n        uint256 blockNumber;\n\n        Operator operator;\n    }\n\n    //\n    // Functions\n    // -----------------------------------------------------------------------------------------------------------------\n    function PAYMENT_KIND()\n    public\n    pure\n    returns (string memory)\n    {\n        return \"payment\";\n    }\n}",
  "sourcePath": "/opt/buildagent/work/855e104608380c36/contracts/PaymentTypesLib.sol",
  "compiler": {
    "name": "solc",
    "version": "0.5.12+commit.7709ece9.Emscripten.clang"
  },
  "schemaVersion": "2.0.3",
  "updatedAt": "2019-10-23T00:21:41.190Z"
}