{
  "contractName": "RevenueTokenManager",
  "abi": [
    {
      "inputs": [
        {
          "internalType": "address",
          "name": "deployer",
          "type": "address"
        }
      ],
      "payable": false,
      "stateMutability": "nonpayable",
      "type": "constructor"
    },
    {
      "anonymous": false,
      "inputs": [
        {
          "indexed": false,
          "internalType": "uint256",
          "name": "earliestReleaseTime",
          "type": "uint256"
        },
        {
          "indexed": false,
          "internalType": "uint256",
          "name": "amount",
          "type": "uint256"
        },
        {
          "indexed": false,
          "internalType": "uint256",
          "name": "blockNumber",
          "type": "uint256"
        }
      ],
      "name": "DefineReleaseEvent",
      "type": "event"
    },
    {
      "anonymous": false,
      "inputs": [
        {
          "indexed": false,
          "internalType": "uint256",
          "name": "index",
          "type": "uint256"
        },
        {
          "indexed": false,
          "internalType": "uint256",
          "name": "blockNumber",
          "type": "uint256"
        },
        {
          "indexed": false,
          "internalType": "uint256",
          "name": "earliestReleaseTime",
          "type": "uint256"
        },
        {
          "indexed": false,
          "internalType": "uint256",
          "name": "actualReleaseTime",
          "type": "uint256"
        },
        {
          "indexed": false,
          "internalType": "uint256",
          "name": "amount",
          "type": "uint256"
        }
      ],
      "name": "ReleaseEvent",
      "type": "event"
    },
    {
      "anonymous": false,
      "inputs": [
        {
          "indexed": false,
          "internalType": "address",
          "name": "wallet",
          "type": "address"
        }
      ],
      "name": "SelfDestructionDisabledEvent",
      "type": "event"
    },
    {
      "anonymous": false,
      "inputs": [
        {
          "indexed": false,
          "internalType": "address",
          "name": "beneficiary",
          "type": "address"
        }
      ],
      "name": "SetBeneficiaryEvent",
      "type": "event"
    },
    {
      "anonymous": false,
      "inputs": [
        {
          "indexed": false,
          "internalType": "address",
          "name": "oldDeployer",
          "type": "address"
        },
        {
          "indexed": false,
          "internalType": "address",
          "name": "newDeployer",
          "type": "address"
        }
      ],
      "name": "SetDeployerEvent",
      "type": "event"
    },
    {
      "anonymous": false,
      "inputs": [
        {
          "indexed": false,
          "internalType": "address",
          "name": "oldOperator",
          "type": "address"
        },
        {
          "indexed": false,
          "internalType": "address",
          "name": "newOperator",
          "type": "address"
        }
      ],
      "name": "SetOperatorEvent",
      "type": "event"
    },
    {
      "anonymous": false,
      "inputs": [
        {
          "indexed": false,
          "internalType": "uint256",
          "name": "index",
          "type": "uint256"
        },
        {
          "indexed": false,
          "internalType": "uint256",
          "name": "blockNumber",
          "type": "uint256"
        }
      ],
      "name": "SetReleaseBlockNumberEvent",
      "type": "event"
    },
    {
      "anonymous": false,
      "inputs": [
        {
          "indexed": false,
          "internalType": "contract IERC20",
          "name": "token",
          "type": "address"
        }
      ],
      "name": "SetTokenEvent",
      "type": "event"
    },
    {
      "anonymous": false,
      "inputs": [
        {
          "indexed": false,
          "internalType": "address",
          "name": "wallet",
          "type": "address"
        }
      ],
      "name": "TriggerSelfDestructionEvent",
      "type": "event"
    },
    {
      "constant": true,
      "inputs": [],
      "name": "beneficiary",
      "outputs": [
        {
          "internalType": "address",
          "name": "",
          "type": "address"
        }
      ],
      "payable": false,
      "stateMutability": "view",
      "type": "function"
    },
    {
      "constant": false,
      "inputs": [
        {
          "internalType": "uint256[]",
          "name": "earliestReleaseTimes",
          "type": "uint256[]"
        },
        {
          "internalType": "uint256[]",
          "name": "amounts",
          "type": "uint256[]"
        },
        {
          "internalType": "uint256[]",
          "name": "releaseBlockNumbers",
          "type": "uint256[]"
        }
      ],
      "name": "defineReleases",
      "outputs": [],
      "payable": false,
      "stateMutability": "nonpayable",
      "type": "function"
    },
    {
      "constant": true,
      "inputs": [],
      "name": "deployer",
      "outputs": [
        {
          "internalType": "address",
          "name": "",
          "type": "address"
        }
      ],
      "payable": false,
      "stateMutability": "view",
      "type": "function"
    },
    {
      "constant": true,
      "inputs": [],
      "name": "destructor",
      "outputs": [
        {
          "internalType": "address",
          "name": "",
          "type": "address"
        }
      ],
      "payable": false,
      "stateMutability": "view",
      "type": "function"
    },
    {
      "constant": false,
      "inputs": [],
      "name": "disableSelfDestruction",
      "outputs": [],
      "payable": false,
      "stateMutability": "nonpayable",
      "type": "function"
    },
    {
      "constant": true,
      "inputs": [],
      "name": "executedReleasesCount",
      "outputs": [
        {
          "internalType": "uint256",
          "name": "",
          "type": "uint256"
        }
      ],
      "payable": false,
      "stateMutability": "view",
      "type": "function"
    },
    {
      "constant": true,
      "inputs": [],
      "name": "operator",
      "outputs": [
        {
          "internalType": "address",
          "name": "",
          "type": "address"
        }
      ],
      "payable": false,
      "stateMutability": "view",
      "type": "function"
    },
    {
      "constant": false,
      "inputs": [
        {
          "internalType": "uint256",
          "name": "index",
          "type": "uint256"
        }
      ],
      "name": "release",
      "outputs": [],
      "payable": false,
      "stateMutability": "nonpayable",
      "type": "function"
    },
    {
      "constant": true,
      "inputs": [
        {
          "internalType": "uint256",
          "name": "blockNumber",
          "type": "uint256"
        }
      ],
      "name": "releaseIndexByBlockNumber",
      "outputs": [
        {
          "internalType": "int256",
          "name": "",
          "type": "int256"
        }
      ],
      "payable": false,
      "stateMutability": "view",
      "type": "function"
    },
    {
      "constant": true,
      "inputs": [
        {
          "internalType": "uint256",
          "name": "",
          "type": "uint256"
        }
      ],
      "name": "releases",
      "outputs": [
        {
          "internalType": "uint256",
          "name": "earliestReleaseTime",
          "type": "uint256"
        },
        {
          "internalType": "uint256",
          "name": "amount",
          "type": "uint256"
        },
        {
          "internalType": "uint256",
          "name": "totalAmount",
          "type": "uint256"
        },
        {
          "internalType": "uint256",
          "name": "blockNumber",
          "type": "uint256"
        },
        {
          "internalType": "bool",
          "name": "done",
          "type": "bool"
        }
      ],
      "payable": false,
      "stateMutability": "view",
      "type": "function"
    },
    {
      "constant": true,
      "inputs": [],
      "name": "releasesCount",
      "outputs": [
        {
          "internalType": "uint256",
          "name": "",
          "type": "uint256"
        }
      ],
      "payable": false,
      "stateMutability": "view",
      "type": "function"
    },
    {
      "constant": true,
      "inputs": [],
      "name": "selfDestructionDisabled",
      "outputs": [
        {
          "internalType": "bool",
          "name": "",
          "type": "bool"
        }
      ],
      "payable": false,
      "stateMutability": "view",
      "type": "function"
    },
    {
      "constant": false,
      "inputs": [
        {
          "internalType": "address",
          "name": "_beneficiary",
          "type": "address"
        }
      ],
      "name": "setBeneficiary",
      "outputs": [],
      "payable": false,
      "stateMutability": "nonpayable",
      "type": "function"
    },
    {
      "constant": false,
      "inputs": [
        {
          "internalType": "address",
          "name": "newDeployer",
          "type": "address"
        }
      ],
      "name": "setDeployer",
      "outputs": [],
      "payable": false,
      "stateMutability": "nonpayable",
      "type": "function"
    },
    {
      "constant": false,
      "inputs": [
        {
          "internalType": "address",
          "name": "newOperator",
          "type": "address"
        }
      ],
      "name": "setOperator",
      "outputs": [],
      "payable": false,
      "stateMutability": "nonpayable",
      "type": "function"
    },
    {
      "constant": false,
      "inputs": [
        {
          "internalType": "uint256",
          "name": "index",
          "type": "uint256"
        },
        {
          "internalType": "uint256",
          "name": "blockNumber",
          "type": "uint256"
        }
      ],
      "name": "setReleaseBlockNumber",
      "outputs": [],
      "payable": false,
      "stateMutability": "nonpayable",
      "type": "function"
    },
    {
      "constant": false,
      "inputs": [
        {
          "internalType": "contract IERC20",
          "name": "_token",
          "type": "address"
        }
      ],
      "name": "setToken",
      "outputs": [],
      "payable": false,
      "stateMutability": "nonpayable",
      "type": "function"
    },
    {
      "constant": true,
      "inputs": [],
      "name": "token",
      "outputs": [
        {
          "internalType": "contract IERC20",
          "name": "",
          "type": "address"
        }
      ],
      "payable": false,
      "stateMutability": "view",
      "type": "function"
    },
    {
      "constant": true,
      "inputs": [],
      "name": "totalLockedAmount",
      "outputs": [
        {
          "internalType": "uint256",
          "name": "",
          "type": "uint256"
        }
      ],
      "payable": false,
      "stateMutability": "view",
      "type": "function"
    },
    {
      "constant": true,
      "inputs": [],
      "name": "totalReleasedAmount",
      "outputs": [
        {
          "internalType": "uint256",
          "name": "",
          "type": "uint256"
        }
      ],
      "payable": false,
      "stateMutability": "view",
      "type": "function"
    },
    {
      "constant": false,
      "inputs": [],
      "name": "triggerSelfDestruction",
      "outputs": [],
      "payable": false,
      "stateMutability": "nonpayable",
      "type": "function"
    },
    {
      "constant": true,
      "inputs": [
        {
          "internalType": "address",
          "name": "",
          "type": "address"
        }
      ],
      "name": "balanceRecordsCount",
      "outputs": [
        {
          "internalType": "uint256",
          "name": "",
          "type": "uint256"
        }
      ],
      "payable": false,
      "stateMutability": "view",
      "type": "function"
    },
    {
      "constant": true,
      "inputs": [
        {
          "internalType": "address",
          "name": "",
          "type": "address"
        },
        {
          "internalType": "uint256",
          "name": "index",
          "type": "uint256"
        }
      ],
      "name": "recordBalance",
      "outputs": [
        {
          "internalType": "uint256",
          "name": "",
          "type": "uint256"
        }
      ],
      "payable": false,
      "stateMutability": "view",
      "type": "function"
    },
    {
      "constant": true,
      "inputs": [
        {
          "internalType": "address",
          "name": "",
          "type": "address"
        },
        {
          "internalType": "uint256",
          "name": "index",
          "type": "uint256"
        }
      ],
      "name": "recordBlockNumber",
      "outputs": [
        {
          "internalType": "uint256",
          "name": "",
          "type": "uint256"
        }
      ],
      "payable": false,
      "stateMutability": "view",
      "type": "function"
    },
    {
      "constant": true,
      "inputs": [
        {
          "internalType": "address",
          "name": "",
          "type": "address"
        },
        {
          "internalType": "uint256",
          "name": "blockNumber",
          "type": "uint256"
        }
      ],
      "name": "recordIndexByBlockNumber",
      "outputs": [
        {
          "internalType": "int256",
          "name": "",
          "type": "int256"
        }
      ],
      "payable": false,
      "stateMutability": "view",
      "type": "function"
    }
  ],
  "bytecode": "0x608060405234801561001057600080fd5b506040516117053803806117058339818101604052602081101561003357600080fd5b50518080806001600160a01b03811661004b57600080fd5b6001600160a01b03811630141561006157600080fd5b50600080546001600160a01b039092166101008102610100600160a81b0319909316929092179055600180546001600160a01b03191690911790555050611658806100ad6000396000f3fe608060405234801561001057600080fd5b50600436106101335760003560e01c806305a9f2741461013857806312c508ba14610152578063144fa6d71461017e5780631c31f710146101a65780632738a112146101cc5780632f013a00146101d457806337bdc99b146101f057806338af3eed1461020d5780633d5a18b2146102315780634476d23b146102575780634524c0cd1461025f5780634eddcf5b14610404578063570ca735146104275780635c1e2bd81461042f57806370327ea11461044c5780637319424f1461045457806383273cd11461048057806392e35ad4146104885780639621473514610490578063b3ab15fb146104b6578063b6a9f40f146104dc578063d02764f314610526578063d5f394881461052e578063f08c841514610536578063fc0c546a14610562575b600080fd5b61014061056a565b60408051918252519081900360200190f35b6101406004803603604081101561016857600080fd5b506001600160a01b038135169060200135610570565b6101a46004803603602081101561019457600080fd5b50356001600160a01b0316610599565b005b6101a4600480360360208110156101bc57600080fd5b50356001600160a01b0316610677565b6101a46106f7565b6101dc610759565b604080519115158252519081900360200190f35b6101a46004803603602081101561020657600080fd5b5035610762565b610215610987565b604080516001600160a01b039092168252519081900360200190f35b6101406004803603602081101561024757600080fd5b50356001600160a01b0316610996565b61021561099f565b6101a46004803603606081101561027557600080fd5b810190602081018135600160201b81111561028f57600080fd5b8201836020820111156102a157600080fd5b803590602001918460208302840111600160201b831117156102c257600080fd5b9190808060200260200160405190810160405280939291908181526020018383602002808284376000920191909152509295949360208101935035915050600160201b81111561031157600080fd5b82018360208201111561032357600080fd5b803590602001918460208302840111600160201b8311171561034457600080fd5b9190808060200260200160405190810160405280939291908181526020018383602002808284376000920191909152509295949360208101935035915050600160201b81111561039357600080fd5b8201836020820111156103a557600080fd5b803590602001918460208302840111600160201b831117156103c657600080fd5b9190808060200260200160405190810160405280939291908181526020018383602002808284376000920191909152509295506109b3945050505050565b6101a46004803603604081101561041a57600080fd5b5080359060200135610cc1565b610215610dd0565b6101406004803603602081101561044557600080fd5b5035610ddf565b6101a4610e66565b6101406004803603604081101561046a57600080fd5b506001600160a01b038135169060200135610ec4565b610140610ed6565b610140610edc565b6101a4600480360360208110156104a657600080fd5b50356001600160a01b0316610ee2565b6101a4600480360360208110156104cc57600080fd5b50356001600160a01b0316610fa6565b6104f9600480360360208110156104f257600080fd5b503561105a565b60408051958652602086019490945284840192909252606084015215156080830152519081900360a00190f35b61014061109b565b6102156110a1565b6101406004803603604081101561054c57600080fd5b506001600160a01b0381351690602001356110b5565b6102156110de565b60065481565b60006004828154811061057f57fe5b906000526020600020906005020160020154905092915050565b6105a16110ed565b6105aa57600080fd5b806001600160a01b0381166105be57600080fd5b6001600160a01b0381163014156105d457600080fd5b6002546001600160a01b03161561061c5760405162461bcd60e51b81526004018080602001828103825260308152602001806115ca6030913960400191505060405180910390fd5b600280546001600160a01b0319166001600160a01b03848116919091179182905560408051929091168252517f6d8175d5535b8ed95618101b59531eb23efe2c999ffea7c6831918fc088b512b916020908290030190a15050565b61067f6110ed565b61068857600080fd5b806001600160a01b03811661069c57600080fd5b600380546001600160a01b0319166001600160a01b03848116919091179182905560408051929091168252517fa269fa1cb7bcf5c01f056e2ab269416779172ccca0613c264c1333c6db01f144916020908290030190a15050565b3361070061099f565b6001600160a01b03161461071357600080fd5b60005460ff161561072357600080fd5b6040805133815290517f787a5d936e74f4b564b9153575886059829c78cd9927b1be5e0d976b317ef7369181900360200190a133ff5b60005460ff1681565b6003546001600160a01b031633146107ab5760405162461bcd60e51b815260040180806020018281038252603b8152602001806113d1603b913960400191505060405180910390fd5b6000600482815481106107ba57fe5b90600052602060002090600502019050806001015460001061080d5760405162461bcd60e51b81526004018080602001828103825260418152602001806115896041913960600191505060405180910390fd5b600481015460ff16156108515760405162461bcd60e51b815260040180806020018281038252603481526020018061140c6034913960400191505060405180910390fd5b80544210156108915760405162461bcd60e51b815260040180806020018281038252604d81526020018061153c604d913960600191505060405180910390fd5b60018101546005546108a89163ffffffff6110fe16565b6005819055600282015560048101805460ff1916600117905560038101546108d1574360038201555b6007546108e590600163ffffffff6110fe16565b60075560018101546006546108ff9163ffffffff61110d16565b600655600354600182015460025461092b926001600160a01b039182169291169063ffffffff61111f16565b600381015481546001830154604080518681526020810194909452838101929092524260608401526080830152517f192a2424596ca5fd763237e85156a3cca5a544ec2de91fcce52165f11430c9fb9181900360a00190a15050565b6003546001600160a01b031681565b6007545b919050565b60005461010090046001600160a01b031690565b6109bb6110ed565b6109c457600080fd5b8151835114610a045760405162461bcd60e51b81526004018080602001828103825260508152602001806113816050913960600191505060405180910390fd5b805183511015610a455760405162461bcd60e51b815260040180806020018281038252605e8152602001806114de605e913960600191505060405180910390fd5b6002546001600160a01b0316610a8c5760405162461bcd60e51b81526004018080602001828103825260328152602001806114786032913960400191505060405180910390fd5b60005b8351811015610cbb57610ac0838281518110610aa757fe5b60200260200101516006546110fe90919063ffffffff16565b6006819055600254604080516370a0823160e01b815230600482015290516001600160a01b03909216916370a0823191602480820192602092909190829003018186803b158015610b1057600080fd5b505afa158015610b24573d6000803e3d6000fd5b505050506040513d6020811015610b3a57600080fd5b50511015610b795760405162461bcd60e51b81526004018080602001828103825260388152602001806114406038913960400191505060405180910390fd5b600082518210610b8a576000610b9f565b828281518110610b9657fe5b60200260200101515b905060046040518060a00160405280878581518110610bba57fe5b60200260200101518152602001868581518110610bd357fe5b6020908102919091018101518252600082820181905260408084018790526060938401829052855460018082018855968352918390208551600590930201918255918401519481019490945582015160028401558101516003830155608001516004909101805460ff191691151591909117905584517f7a4b817334cd72c0bcda88d842afe9d164deab0f72ed72c7157b05f9bc3c9b5990869084908110610c7757fe5b6020026020010151858481518110610c8b57fe5b6020908102919091018101516040805193845291830152818101849052519081900360600190a150600101610a8f565b50505050565b6003546001600160a01b03163314610d0a5760405162461bcd60e51b815260040180806020018281038252603b8152602001806113d1603b913960400191505060405180910390fd5b60048281548110610d1757fe5b600091825260209091206004600590920201015460ff1615610d6a5760405162461bcd60e51b81526004018080602001828103825260348152602001806114aa6034913960400191505060405180910390fd5b8060048381548110610d7857fe5b9060005260206000209060050201600301819055507f7cf19267ac0e3fcfc04da70aa689f851cd659a051bab5a357d0d31085b9430858282604051808381526020018281526020019250505060405180910390a15050565b6001546001600160a01b031681565b6004546000905b8015610e5c57610dfd81600163ffffffff61110d16565b905060048181548110610e0c57fe5b9060005260206000209060050201600301546000108015610e4b57508260048281548110610e3657fe5b90600052602060002090600502016003015411155b15610e5757905061099a565b610de6565b5060001992915050565b33610e6f61099f565b6001600160a01b031614610e8257600080fd5b6000805460ff191660011790556040805133815290517fd5a2a04a775c741c2ca0dc46ea7ce4835190e1aaf1ca018def0e82568ec336169181900360200190a1565b6000610ecf82610ddf565b9392505050565b60055481565b60075481565b610eea611176565b610ef357600080fd5b806001600160a01b038116610f0757600080fd5b6001600160a01b038116301415610f1d57600080fd5b6000546001600160a01b038381166101009092041614610fa257600080546001600160a01b03848116610100818102610100600160a81b03198516179094556040805194909304919091168084526020840191909152815190927f977e5fa58e458501775e0008d275006294c5249e3c08d1d0e3a9f3acad14f6e492908290030190a1505b5050565b610fae6110ed565b610fb757600080fd5b806001600160a01b038116610fcb57600080fd5b6001600160a01b038116301415610fe157600080fd5b6001546001600160a01b03838116911614610fa257600180546001600160a01b038481166001600160a01b0319831681179093556040805191909216808252602082019390935281517f9f611b789425d0d5b90b920f1b2852907dd865c80074a30b1629aaa041d1812c929181900390910190a1505050565b6004818154811061106757fe5b6000918252602090912060059091020180546001820154600283015460038401546004909401549294509092909160ff1685565b60045490565b60005461010090046001600160a01b031681565b6000600482815481106110c457fe5b906000526020600020906005020160030154905092915050565b6002546001600160a01b031681565b6001546001600160a01b0316331490565b600082820183811015610ecf57fe5b60008282111561111957fe5b50900390565b604080516001600160a01b038416602482015260448082018490528251808303909101815260649091019091526020810180516001600160e01b031663a9059cbb60e01b17905261117190849061118c565b505050565b60005461010090046001600160a01b0316331490565b61119e826001600160a01b0316611344565b6111ef576040805162461bcd60e51b815260206004820152601f60248201527f5361666545524332303a2063616c6c20746f206e6f6e2d636f6e747261637400604482015290519081900360640190fd5b60006060836001600160a01b0316836040518082805190602001908083835b6020831061122d5780518252601f19909201916020918201910161120e565b6001836020036101000a0380198251168184511680821785525050505050509050019150506000604051808303816000865af19150503d806000811461128f576040519150601f19603f3d011682016040523d82523d6000602084013e611294565b606091505b5091509150816112eb576040805162461bcd60e51b815260206004820181905260248201527f5361666545524332303a206c6f772d6c6576656c2063616c6c206661696c6564604482015290519081900360640190fd5b805115610cbb5780806020019051602081101561130757600080fd5b5051610cbb5760405162461bcd60e51b815260040180806020018281038252602a8152602001806115fa602a913960400191505060405180910390fd5b6000813f7fc5d2460186f7233c927e7db2dcc703c0e500b653ca82273b7bfad8045d85a47081158015906113785750808214155b94935050505056fe4561726c696573742072656c656173652074696d657320616e6420616d6f756e7473206c656e67746873206d69736d61746368205b546f6b656e4d756c746954696d656c6f636b2e736f6c3a3130395d4d6573736167652073656e646572206e6f742062656e6566696369617279205b546f6b656e4d756c746954696d656c6f636b2e736f6c3a3233315d52656c656173652070726576696f75736c7920646f6e65205b546f6b656e4d756c746954696d656c6f636b2e736f6c3a3139375d546f74616c206c6f636b656420616d6f756e74206f76657272756e205b546f6b656e4d756c746954696d656c6f636b2e736f6c3a3132375d546f6b656e206e6f7420696e697469616c697a6564205b546f6b656e4d756c746954696d656c6f636b2e736f6c3a3131395d52656c656173652070726576696f75736c7920646f6e65205b546f6b656e4d756c746954696d656c6f636b2e736f6c3a3135385d4561726c696573742072656c656173652074696d657320616e642072656c6561736520626c6f636b206e756d62657273206c656e67746873206d69736d61746368205b546f6b656e4d756c746954696d656c6f636b2e736f6c3a3131335d426c6f636b2074696d65207374616d70206c657373207468616e206561726c696573742072656c656173652074696d65205b546f6b656e4d756c746954696d656c6f636b2e736f6c3a3230305d52656c6561736520616d6f756e74206e6f74207374726963746c7920706f736974697665205b546f6b656e4d756c746954696d656c6f636b2e736f6c3a3139345d546f6b656e2070726576696f75736c7920736574205b546f6b656e4d756c746954696d656c6f636b2e736f6c3a37375d5361666545524332303a204552433230206f7065726174696f6e20646964206e6f742073756363656564a265627a7a723158205c544a7ecb07caddee375a30160fc587d2a2517c1fe859192728e6c11c30a5e264736f6c634300050d0032",
  "source": "/*\n * Hubii Nahmii\n *\n * Compliant with the Hubii Nahmii specification v0.12.\n *\n * Copyright (C) 2017-2018 Hubii AS\n */\n\npragma solidity >=0.4.25 <0.6.0;\n\nimport {TokenMultiTimelock} from \"./TokenMultiTimelock.sol\";\nimport {SafeMathUintLib} from \"./SafeMathUintLib.sol\";\nimport {BalanceRecordable} from \"./BalanceRecordable.sol\";\n\n/**\n * @title RevenueTokenManager\n * @notice An token multi-timelock that supports the calculation of balance blocks\n * of the underlying revenue token as well as amount blocks from its own released amount\n */\ncontract RevenueTokenManager is TokenMultiTimelock, BalanceRecordable {\n    using SafeMathUintLib for uint256;\n\n    //\n    // Constructor\n    // -----------------------------------------------------------------------------------------------------------------\n    constructor(address deployer)\n    public\n    TokenMultiTimelock(deployer)\n    {\n    }\n\n    //\n    // Functions\n    // -----------------------------------------------------------------------------------------------------------------\n    /// @notice Get the count of executed releases\n    /// @return The count of executed releases\n    function balanceRecordsCount(address)\n    external\n    view\n    returns (uint256)\n    {\n        return executedReleasesCount;\n    }\n\n    /// @notice Get the total amount for the given release index\n    /// @param index The concerned index\n    /// @return The release total amount\n    function recordBalance(address, uint256 index)\n    external\n    view\n    returns (uint256)\n    {\n        return releases[index].totalAmount;\n    }\n\n    /// @notice Get the release block number for the given release index\n    /// @param index The concerned index\n    /// @return The release block number\n    function recordBlockNumber(address, uint256 index)\n    external\n    view\n    returns (uint256)\n    {\n        return releases[index].blockNumber;\n    }\n\n    /// @notice Get the index of the release containing the given block number,\n    /// or -1 if the given block number is below the smallest release block number\n    /// @param blockNumber The concerned block number\n    /// @return The release index\n    function recordIndexByBlockNumber(address, uint256 blockNumber)\n    external\n    view\n    returns (int256)\n    {\n        return releaseIndexByBlockNumber(blockNumber);\n    }\n}",
  "sourcePath": "/opt/buildagent/work/855e104608380c36/contracts/RevenueTokenManager.sol",
  "compiler": {
    "name": "solc",
    "version": "0.5.13+commit.5b0b510c.Emscripten.clang"
  },
  "schemaVersion": "2.0.3",
  "updatedAt": "2019-11-29T09:07:25.939Z"
}