{
  "contractName": "RevenueFundAccrualMonitor",
  "abi": [
    {
      "inputs": [
        {
          "internalType": "address",
          "name": "deployer",
          "type": "address"
        }
      ],
      "payable": false,
      "stateMutability": "nonpayable",
      "type": "constructor"
    },
    {
      "anonymous": false,
      "inputs": [
        {
          "indexed": false,
          "internalType": "address",
          "name": "wallet",
          "type": "address"
        }
      ],
      "name": "SelfDestructionDisabledEvent",
      "type": "event"
    },
    {
      "anonymous": false,
      "inputs": [
        {
          "indexed": false,
          "internalType": "contract BalanceAucCalculator",
          "name": "balanceAucCalculator",
          "type": "address"
        }
      ],
      "name": "SetBalanceBlocksCalculatorEvent",
      "type": "event"
    },
    {
      "anonymous": false,
      "inputs": [
        {
          "indexed": false,
          "internalType": "address",
          "name": "oldDeployer",
          "type": "address"
        },
        {
          "indexed": false,
          "internalType": "address",
          "name": "newDeployer",
          "type": "address"
        }
      ],
      "name": "SetDeployerEvent",
      "type": "event"
    },
    {
      "anonymous": false,
      "inputs": [
        {
          "indexed": false,
          "internalType": "address",
          "name": "oldOperator",
          "type": "address"
        },
        {
          "indexed": false,
          "internalType": "address",
          "name": "newOperator",
          "type": "address"
        }
      ],
      "name": "SetOperatorEvent",
      "type": "event"
    },
    {
      "anonymous": false,
      "inputs": [
        {
          "indexed": false,
          "internalType": "contract BalanceAucCalculator",
          "name": "balanceAucCalculator",
          "type": "address"
        }
      ],
      "name": "SetReleasedAmountBlocksCalculatorEvent",
      "type": "event"
    },
    {
      "anonymous": false,
      "inputs": [
        {
          "indexed": false,
          "internalType": "contract RevenueFund",
          "name": "revenueFund",
          "type": "address"
        }
      ],
      "name": "SetRevenueFundEvent",
      "type": "event"
    },
    {
      "anonymous": false,
      "inputs": [
        {
          "indexed": false,
          "internalType": "contract RevenueTokenManager",
          "name": "revenueTokenManager",
          "type": "address"
        }
      ],
      "name": "SetRevenueTokenManagerEvent",
      "type": "event"
    },
    {
      "anonymous": false,
      "inputs": [
        {
          "indexed": false,
          "internalType": "contract TokenHolderRevenueFund",
          "name": "tokenHolderRvenueFund",
          "type": "address"
        }
      ],
      "name": "SetTokenHolderRevenueFundEvent",
      "type": "event"
    },
    {
      "anonymous": false,
      "inputs": [
        {
          "indexed": false,
          "internalType": "address",
          "name": "wallet",
          "type": "address"
        }
      ],
      "name": "TriggerSelfDestructionEvent",
      "type": "event"
    },
    {
      "constant": true,
      "inputs": [],
      "name": "balanceBlocksCalculator",
      "outputs": [
        {
          "internalType": "contract BalanceAucCalculator",
          "name": "",
          "type": "address"
        }
      ],
      "payable": false,
      "stateMutability": "view",
      "type": "function"
    },
    {
      "constant": true,
      "inputs": [],
      "name": "deployer",
      "outputs": [
        {
          "internalType": "address",
          "name": "",
          "type": "address"
        }
      ],
      "payable": false,
      "stateMutability": "view",
      "type": "function"
    },
    {
      "constant": true,
      "inputs": [],
      "name": "destructor",
      "outputs": [
        {
          "internalType": "address",
          "name": "",
          "type": "address"
        }
      ],
      "payable": false,
      "stateMutability": "view",
      "type": "function"
    },
    {
      "constant": false,
      "inputs": [],
      "name": "disableSelfDestruction",
      "outputs": [],
      "payable": false,
      "stateMutability": "nonpayable",
      "type": "function"
    },
    {
      "constant": true,
      "inputs": [],
      "name": "operator",
      "outputs": [
        {
          "internalType": "address",
          "name": "",
          "type": "address"
        }
      ],
      "payable": false,
      "stateMutability": "view",
      "type": "function"
    },
    {
      "constant": true,
      "inputs": [],
      "name": "releasedAmountBlocksCalculator",
      "outputs": [
        {
          "internalType": "contract BalanceAucCalculator",
          "name": "",
          "type": "address"
        }
      ],
      "payable": false,
      "stateMutability": "view",
      "type": "function"
    },
    {
      "constant": true,
      "inputs": [],
      "name": "revenueFund",
      "outputs": [
        {
          "internalType": "contract RevenueFund",
          "name": "",
          "type": "address"
        }
      ],
      "payable": false,
      "stateMutability": "view",
      "type": "function"
    },
    {
      "constant": true,
      "inputs": [],
      "name": "revenueTokenManager",
      "outputs": [
        {
          "internalType": "contract RevenueTokenManager",
          "name": "",
          "type": "address"
        }
      ],
      "payable": false,
      "stateMutability": "view",
      "type": "function"
    },
    {
      "constant": true,
      "inputs": [],
      "name": "selfDestructionDisabled",
      "outputs": [
        {
          "internalType": "bool",
          "name": "",
          "type": "bool"
        }
      ],
      "payable": false,
      "stateMutability": "view",
      "type": "function"
    },
    {
      "constant": false,
      "inputs": [
        {
          "internalType": "address",
          "name": "newDeployer",
          "type": "address"
        }
      ],
      "name": "setDeployer",
      "outputs": [],
      "payable": false,
      "stateMutability": "nonpayable",
      "type": "function"
    },
    {
      "constant": false,
      "inputs": [
        {
          "internalType": "address",
          "name": "newOperator",
          "type": "address"
        }
      ],
      "name": "setOperator",
      "outputs": [],
      "payable": false,
      "stateMutability": "nonpayable",
      "type": "function"
    },
    {
      "constant": true,
      "inputs": [],
      "name": "tokenHolderRevenueFund",
      "outputs": [
        {
          "internalType": "contract TokenHolderRevenueFund",
          "name": "",
          "type": "address"
        }
      ],
      "payable": false,
      "stateMutability": "view",
      "type": "function"
    },
    {
      "constant": false,
      "inputs": [],
      "name": "triggerSelfDestruction",
      "outputs": [],
      "payable": false,
      "stateMutability": "nonpayable",
      "type": "function"
    },
    {
      "constant": false,
      "inputs": [
        {
          "internalType": "contract RevenueFund",
          "name": "_revenueFund",
          "type": "address"
        }
      ],
      "name": "setRevenueFund",
      "outputs": [],
      "payable": false,
      "stateMutability": "nonpayable",
      "type": "function"
    },
    {
      "constant": false,
      "inputs": [
        {
          "internalType": "contract TokenHolderRevenueFund",
          "name": "_tokenHolderRevenueFund",
          "type": "address"
        }
      ],
      "name": "setTokenHolderRevenueFund",
      "outputs": [],
      "payable": false,
      "stateMutability": "nonpayable",
      "type": "function"
    },
    {
      "constant": false,
      "inputs": [
        {
          "internalType": "contract RevenueTokenManager",
          "name": "_revenueTokenManager",
          "type": "address"
        }
      ],
      "name": "setRevenueTokenManager",
      "outputs": [],
      "payable": false,
      "stateMutability": "nonpayable",
      "type": "function"
    },
    {
      "constant": false,
      "inputs": [
        {
          "internalType": "contract BalanceAucCalculator",
          "name": "_balanceAucCalculator",
          "type": "address"
        }
      ],
      "name": "setBalanceBlocksCalculator",
      "outputs": [],
      "payable": false,
      "stateMutability": "nonpayable",
      "type": "function"
    },
    {
      "constant": false,
      "inputs": [
        {
          "internalType": "contract BalanceAucCalculator",
          "name": "_balanceAucCalculator",
          "type": "address"
        }
      ],
      "name": "setReleasedAmountBlocksCalculator",
      "outputs": [],
      "payable": false,
      "stateMutability": "nonpayable",
      "type": "function"
    },
    {
      "constant": true,
      "inputs": [
        {
          "internalType": "address",
          "name": "wallet",
          "type": "address"
        },
        {
          "internalType": "address",
          "name": "currencyCt",
          "type": "address"
        },
        {
          "internalType": "uint256",
          "name": "currencyId",
          "type": "uint256"
        }
      ],
      "name": "claimableAmount",
      "outputs": [
        {
          "internalType": "int256",
          "name": "",
          "type": "int256"
        }
      ],
      "payable": false,
      "stateMutability": "view",
      "type": "function"
    }
  ],
  "bytecode": "0x60806040523480156200001157600080fd5b50604051620012e8380380620012e88339810160408190526200003491620000b3565b80806001600160a01b0381166200004a57600080fd5b6001600160a01b0381163014156200006157600080fd5b5060008054610100600160a81b0319166101006001600160a01b0393909316928302179055600180546001600160a01b03191690911790555062000108565b8051620000ad81620000ee565b92915050565b600060208284031215620000c657600080fd5b6000620000d48484620000a0565b949350505050565b60006001600160a01b038216620000ad565b620000f981620000dc565b81146200010557600080fd5b50565b6111d080620001186000396000f3fe608060405234801561001057600080fd5b50600436106100f15760003560e01c8063090735e5146100f65780631da826be146101145780632738a1121461012957806327734148146101315780632f013a0014610151578063382e8023146101665780634476d23b14610179578063570ca7351461018e5780635eb055381461019657806370327ea1146101a95780637c8cf970146101b15780637dac26c7146101b95780638e0615b2146101c157806395ff296d146101c957806396214735146101d1578063b3ab15fb146101e4578063ba06820c146101f7578063d5f394881461020a578063f152dd3814610212575b600080fd5b6100fe610225565b60405161010b91906110ba565b60405180910390f35b610127610122366004610f62565b610234565b005b6101276102b6565b61014461013f366004610f15565b61031c565b60405161010b9190611121565b610159610384565b60405161010b91906110ac565b610127610174366004610f62565b61038d565b610181610419565b60405161010b9190611032565b61018161042d565b6101276101a4366004610f62565b61043c565b6101276104c8565b6100fe61052b565b6100fe61053a565b6100fe610549565b6100fe610558565b6101276101df366004610ed9565b610567565b6101276101f2366004610ed9565b610627565b610127610205366004610f62565b6106ca565b610181610740565b610127610220366004610f62565b610754565b6006546001600160a01b031681565b61023c6107ca565b61024557600080fd5b806001600160a01b03811661025957600080fd5b600380546001600160a01b0319166001600160a01b0384811691909117918290556040517faf33ec5b77cb58597fcd32ec3ce19463af402ee9972fa8aaf299dbb6603f62d9926102aa9216906110ba565b60405180910390a15050565b336102bf610419565b6001600160a01b0316146102d257600080fd5b60005460ff16156102e257600080fd5b7f787a5d936e74f4b564b9153575886059829c78cd9927b1be5e0d976b317ef736336040516103119190611040565b60405180910390a133ff5b60008061032984846107e0565b90506000610337858561098c565b90506000610346878343610ad8565b905060006103548343610bdb565b90506103768161036a868563ffffffff610dba16565b9063ffffffff610e0516565b9450505050505b9392505050565b60005460ff1681565b6103956107ca565b61039e57600080fd5b806001600160a01b0381166103b257600080fd5b6001600160a01b0381163014156103c857600080fd5b600580546001600160a01b0319166001600160a01b0384811691909117918290556040517f49edb64497e12c80343b51bfe18170a760a1152336abe904047a2a81244ea5dd926102aa9216906110ba565b60005461010090046001600160a01b031690565b6001546001600160a01b031681565b6104446107ca565b61044d57600080fd5b806001600160a01b03811661046157600080fd5b6001600160a01b03811630141561047757600080fd5b600680546001600160a01b0319166001600160a01b0384811691909117918290556040517f745dbbb080f77d19f28fe88197e1ff57bfb2e9a748b0da9843d721fbdef4f313926102aa9216906110ba565b336104d1610419565b6001600160a01b0316146104e457600080fd5b6000805460ff191660011790556040517fd5a2a04a775c741c2ca0dc46ea7ce4835190e1aaf1ca018def0e82568ec3361690610521903390611040565b60405180910390a1565b6004546001600160a01b031681565b6003546001600160a01b031681565b6005546001600160a01b031681565b6002546001600160a01b031681565b61056f6107ca565b61057857600080fd5b806001600160a01b03811661058c57600080fd5b6001600160a01b0381163014156105a257600080fd5b6000546001600160a01b03838116610100909204161461062357600080546001600160a01b03848116610100908102610100600160a81b03198416179093556040519290910416907f977e5fa58e458501775e0008d275006294c5249e3c08d1d0e3a9f3acad14f6e490610619908390869061104e565b60405180910390a1505b5050565b61062f610e31565b61063857600080fd5b806001600160a01b03811661064c57600080fd5b6001600160a01b03811630141561066257600080fd5b6001546001600160a01b0383811691161461062357600180546001600160a01b038481166001600160a01b03198316179092556040519116907f9f611b789425d0d5b90b920f1b2852907dd865c80074a30b1629aaa041d1812c90610619908390869061104e565b6106d26107ca565b6106db57600080fd5b806001600160a01b0381166106ef57600080fd5b600480546001600160a01b0319166001600160a01b0384811691909117918290556040517f32647f34ccf7e02c0ef66ee2d9998df35b42b616ae075c3be114800b8dddbc41926102aa9216906110ba565b60005461010090046001600160a01b031681565b61075c6107ca565b61076557600080fd5b806001600160a01b03811661077957600080fd5b600280546001600160a01b0319166001600160a01b0384811691909117918290556040517f58ff3e9f6bb0e67c3d7f86a092b0ad98b0fd304b569f37776bca02735bab43fe926102aa9216906110ba565b60005461010090046001600160a01b0316331490565b600254604051632f04452360e01b815260009182916001600160a01b0390911690632f044523906108179087908790600401611069565b60206040518083038186803b15801561082f57600080fd5b505afa158015610843573d6000803e3d6000fd5b505050506040513d601f19601f820116820180604052506108679190810190610f9e565b600254600354604051638ee18c4360e01b81529293506000926001600160a01b0392831692638ee18c43926108a1929116906004016110ba565b60206040518083038186803b1580156108b957600080fd5b505afa1580156108cd573d6000803e3d6000fd5b505050506040513d601f19601f820116820180604052506108f19190810190610f9e565b905061098173__ConstantsLib__________________________62a123336040518163ffffffff1660e01b815260040160206040518083038186803b15801561093957600080fd5b505af415801561094d573d6000803e3d6000fd5b505050506040513d601f19601f820116820180604052506109719190810190610f9e565b61036a848463ffffffff610dba16565b925050505b92915050565b60035460405163f8e5908360e01b815260009182916001600160a01b039091169063f8e59083906109c39087908790600401611069565b60206040518083038186803b1580156109db57600080fd5b505afa1580156109ef573d6000803e3d6000fd5b505050506040513d601f19601f82011682018060405250610a139190810190610f9e565b905080610a24576000915050610986565b6003546000906001600160a01b031663f971f7c18686610a4b86600163ffffffff610e4216565b6040518463ffffffff1660e01b8152600401610a6993929190611084565b60606040518083038186803b158015610a8157600080fd5b505afa158015610a95573d6000803e3d6000fd5b505050506040513d601f19601f82011682018060405250610ab99190810190610fbc565b509150610acf905081600163ffffffff610e5416565b92505050610986565b6005546004805460408051637e062a3560e11b815290516000946001600160a01b039081169463dac70dcb949091169263fc0c546a9281830192602092829003018186803b158015610b2957600080fd5b505afa158015610b3d573d6000803e3d6000fd5b505050506040513d601f19601f82011682018060405250610b619190810190610f80565b8686866040518563ffffffff1660e01b8152600401610b839493929190611106565b60206040518083038186803b158015610b9b57600080fd5b505afa158015610baf573d6000803e3d6000fd5b505050506040513d601f19601f82011682018060405250610bd39190810190610f9e565b949350505050565b6006546004805460405163dac70dcb60e01b815260009384936001600160a01b039182169363dac70dcb93610c1a939091169186918a918a91016110c8565b60206040518083038186803b158015610c3257600080fd5b505afa158015610c46573d6000803e3d6000fd5b505050506040513d601f19601f82011682018060405250610c6a9190810190610f9e565b905060005b600360009054906101000a90046001600160a01b03166001600160a01b0316639caffcbd6040518163ffffffff1660e01b815260040160206040518083038186803b158015610cbd57600080fd5b505afa158015610cd1573d6000803e3d6000fd5b505050506040513d601f19601f82011682018060405250610cf59190810190610f9e565b811015610db257600354604051636633df3f60e11b8152610d9891610d8b916001600160a01b039091169063cc67be7e90610d34908690600401611121565b60206040518083038186803b158015610d4c57600080fd5b505afa158015610d60573d6000803e3d6000fd5b505050506040513d601f19601f82011682018060405250610d849190810190610ef7565b8787610ad8565b839063ffffffff610e6316565b9150610dab81600163ffffffff610e5416565b9050610c6f565b509392505050565b6000808312158015610dcd575060008212155b610dd657600080fd5b828202831580610dee575082848281610deb57fe5b05145b610df757600080fd5b600081121561037d57600080fd5b6000808312158015610e175750600082135b610e2057600080fd5b818381610e2957fe5b059392505050565b6001546001600160a01b0316331490565b600082821115610e4e57fe5b50900390565b60008282018381101561037d57fe5b6000808212158015610e7757508282840313155b80610e8e5750600082128015610e8e575082828403135b610e4e57600080fd5b803561098681611164565b805161098681611164565b80356109868161117b565b80516109868161117b565b805161098681611184565b803561098681611184565b600060208284031215610eeb57600080fd5b6000610bd38484610e97565b600060208284031215610f0957600080fd5b6000610bd38484610ea2565b600080600060608486031215610f2a57600080fd5b6000610f368686610e97565b9350506020610f4786828701610e97565b9250506040610f5886828701610ece565b9150509250925092565b600060208284031215610f7457600080fd5b6000610bd38484610ead565b600060208284031215610f9257600080fd5b6000610bd38484610eb8565b600060208284031215610fb057600080fd5b6000610bd38484610ec3565b600080600060608486031215610fd157600080fd5b6000610fdd8686610ec3565b9350506020610fee86828701610ec3565b9250506040610f5886828701610ec3565b61100881611159565b82525050565b6110088161112f565b6110088161113a565b6110088161113f565b6110088161114a565b60208101610986828461100e565b602081016109868284610fff565b6040810161105c828561100e565b61037d602083018461100e565b60408101611077828561100e565b61037d6020830184611029565b60608101611092828661100e565b61109f6020830185611029565b610bd36040830184611029565b602081016109868284611017565b602081016109868284611020565b608081016110d68287611020565b6110e36020830186610fff565b6110f06040830185611029565b6110fd6060830184611029565b95945050505050565b608081016111148287611020565b6110e3602083018661100e565b602081016109868284611029565b60006109868261114d565b151590565b60006109868261112f565b90565b6001600160a01b031690565b60006109868261113f565b61116d8161112f565b811461117857600080fd5b50565b61116d8161113f565b61116d8161114a56fea365627a7a723158203c7b1c97544147f43d6937249f29dc2e7dae65433ff4b65ad242b72dca0533eb6c6578706572696d656e74616cf564736f6c634300050d0040",
  "source": "/*\n * Hubii Nahmii\n *\n * Compliant with the Hubii Nahmii specification v0.12.\n *\n * Copyright (C) 2017-2019 Hubii AS\n */\n\npragma solidity >=0.4.25 <0.6.0;\npragma experimental ABIEncoderV2;\n\nimport {BalanceAucCalculator} from \"./BalanceAucCalculator.sol\";\nimport {BalanceRecordable} from \"./BalanceRecordable.sol\";\nimport {ConstantsLib} from \"./ConstantsLib.sol\";\nimport {Ownable} from \"./Ownable.sol\";\nimport {RevenueFund} from \"./RevenueFund.sol\";\nimport {RevenueTokenManager} from \"./RevenueTokenManager.sol\";\nimport {SafeMathIntLib} from \"./SafeMathIntLib.sol\";\nimport {SafeMathUintLib} from \"./SafeMathUintLib.sol\";\nimport {TokenHolderRevenueFund} from \"./TokenHolderRevenueFund.sol\";\n\ncontract RevenueFundAccrualMonitor is Ownable {\n    using SafeMathIntLib for int256;\n    using SafeMathUintLib for uint256;\n\n    //\n    // Variables\n    // -----------------------------------------------------------------------------------------------------------------\n    RevenueFund public revenueFund;\n    TokenHolderRevenueFund public tokenHolderRevenueFund;\n    RevenueTokenManager public revenueTokenManager;\n    BalanceAucCalculator public balanceBlocksCalculator;\n    BalanceAucCalculator public releasedAmountBlocksCalculator;\n\n    //\n    // Events\n    // -----------------------------------------------------------------------------------------------------------------\n    event SetRevenueFundEvent(RevenueFund revenueFund);\n    event SetTokenHolderRevenueFundEvent(TokenHolderRevenueFund tokenHolderRvenueFund);\n    event SetRevenueTokenManagerEvent(RevenueTokenManager revenueTokenManager);\n    event SetBalanceBlocksCalculatorEvent(BalanceAucCalculator balanceAucCalculator);\n    event SetReleasedAmountBlocksCalculatorEvent(BalanceAucCalculator balanceAucCalculator);\n\n    //\n    // Constructor\n    // -----------------------------------------------------------------------------------------------------------------\n    constructor(address deployer) Ownable(deployer) public {\n    }\n\n    //\n    // Functions\n    // -----------------------------------------------------------------------------------------------------------------\n    /// @notice Set the revenue fund contract\n    /// @param _revenueFund The RevenueFund contract instance\n    function setRevenueFund(RevenueFund _revenueFund)\n    public\n    onlyDeployer\n    notNullAddress(address(_revenueFund))\n    {\n        // Set new revenue fund\n        revenueFund = _revenueFund;\n\n        // Emit event\n        emit SetRevenueFundEvent(revenueFund);\n    }\n\n    /// @notice Set the token holder revenue fund contract\n    /// @param _tokenHolderRevenueFund The TokenHolderRevenueFund contract instance\n    function setTokenHolderRevenueFund(TokenHolderRevenueFund _tokenHolderRevenueFund)\n    public\n    onlyDeployer\n    notNullAddress(address(_tokenHolderRevenueFund))\n    {\n        // Set new revenue fund\n        tokenHolderRevenueFund = _tokenHolderRevenueFund;\n\n        // Emit event\n        emit SetTokenHolderRevenueFundEvent(tokenHolderRevenueFund);\n    }\n\n    /// @notice Set the revenue token manager contract\n    /// @param _revenueTokenManager The RevenueTokenManager contract instance\n    function setRevenueTokenManager(RevenueTokenManager _revenueTokenManager)\n    public\n    onlyDeployer\n    notNullAddress(address(_revenueTokenManager))\n    {\n        // Set new revenue token manager\n        revenueTokenManager = _revenueTokenManager;\n\n        // Emit event\n        emit SetRevenueTokenManagerEvent(revenueTokenManager);\n    }\n\n    /// @notice Set the balance AUC calculator for the calculation of revenue token balance blocks\n    /// @param _balanceAucCalculator The balance AUC calculator\n    function setBalanceBlocksCalculator(BalanceAucCalculator _balanceAucCalculator)\n    public\n    onlyDeployer\n    notNullOrThisAddress(address(_balanceAucCalculator))\n    {\n        // Set the calculator\n        balanceBlocksCalculator = _balanceAucCalculator;\n\n        // Emit event\n        emit SetBalanceBlocksCalculatorEvent(balanceBlocksCalculator);\n    }\n\n    /// @notice Set the balance AUC calculator for the calculation of released amount blocks\n    /// @param _balanceAucCalculator The balance AUC calculator\n    function setReleasedAmountBlocksCalculator(BalanceAucCalculator _balanceAucCalculator)\n    public\n    onlyDeployer\n    notNullOrThisAddress(address(_balanceAucCalculator))\n    {\n        // Set the calculator\n        releasedAmountBlocksCalculator = _balanceAucCalculator;\n\n        // Emit event\n        emit SetReleasedAmountBlocksCalculatorEvent(releasedAmountBlocksCalculator);\n    }\n\n    /// @notice Get the claimable amount for the given wallet-currency pair for the\n    /// ongoing accrual\n    /// @param wallet The address of the concerned wallet\n    /// @param currencyCt The address of the concerned currency contract (address(0) == ETH)\n    /// @param currencyId The ID of the concerned currency (0 for ETH and ERC20)\n    /// @return The claimable amount\n    function claimableAmount(address wallet, address currencyCt, uint256 currencyId)\n    public\n    view\n    returns (int256)\n    {\n        // Get the claimable amount of the accrual, i.e. corresponding to the fraction that will be\n        // transferred to TokenHolderRevenueFund when the accrual is closed\n        int256 accrualClaimableAmount = _accrualClaimableAmount(currencyCt, currencyId);\n\n        // Get the start block of the current accrual, i.e. 0 if first accrual or (end block + 1)\n        // of the previous closed accrual\n        uint256 currentAccrualStartBlock = _currentAccrualStartBlock(currencyCt, currencyId);\n\n        // Get the wallet balance blocks in the ongoing accrual\n        int256 balanceBlocks = _balanceBlocks(wallet, currentAccrualStartBlock, block.number);\n\n        // Get the corrected released amount blocks in the ongoing accrual, i.e. the revenue token manager's\n        // released amount blocks subtracted the balance blocks of non-claimers\n        int256 amountBlocks = _correctedReleasedAmountBlocks(currentAccrualStartBlock, block.number);\n\n        // Return the calculated claimable amount\n        return accrualClaimableAmount\n        .mul_nn(balanceBlocks)\n        .div_nn(amountBlocks);\n    }\n\n    //\n    // Private functions\n    // -----------------------------------------------------------------------------------------------------------------\n    function _accrualClaimableAmount(address currencyCt, uint256 currencyId)\n    private\n    view\n    returns (int256)\n    {\n        int256 periodAccrualBalance = revenueFund.periodAccrualBalance(currencyCt, currencyId);\n\n        int256 beneficiaryFraction = revenueFund.beneficiaryFraction(tokenHolderRevenueFund);\n\n        return periodAccrualBalance\n        .mul_nn(beneficiaryFraction)\n        .div_nn(ConstantsLib.PARTS_PER());\n    }\n\n    function _currentAccrualStartBlock(address currencyCt, uint256 currencyId)\n    private\n    view\n    returns (uint256)\n    {\n        uint256 lastClosedAccrualIndex = tokenHolderRevenueFund.closedAccrualsCount(\n            currencyCt, currencyId\n        );\n        if (0 == lastClosedAccrualIndex)\n            return 0;\n        else {\n            (,uint256 endBlock,) = tokenHolderRevenueFund.closedAccrualsByCurrency(\n                currencyCt, currencyId, lastClosedAccrualIndex.sub(1)\n            );\n            return endBlock.add(1);\n        }\n    }\n\n    function _balanceBlocks(address wallet, uint256 startBlock, uint256 endBlock)\n    private\n    view\n    returns (int256)\n    {\n        return int256(balanceBlocksCalculator.calculate(\n                BalanceRecordable(address(revenueTokenManager.token())), wallet, startBlock, endBlock\n            ));\n    }\n\n    function _correctedReleasedAmountBlocks(uint256 startBlock, uint256 endBlock)\n    private\n    view\n    returns (int256)\n    {\n        // Obtain the released amount blocks from revenue token manager\n        int256 amountBlocks = int256(releasedAmountBlocksCalculator.calculate(\n                BalanceRecordable(address(revenueTokenManager)), address(0), startBlock, endBlock\n            ));\n\n        // Correct the amount blocks by subtracting the contributions from contracts that may not claim\n        for (uint256 i = 0; i < tokenHolderRevenueFund.nonClaimersCount(); i = i.add(1))\n            amountBlocks = amountBlocks.sub(_balanceBlocks(tokenHolderRevenueFund.nonClaimers(i), startBlock, endBlock));\n\n        // Return corrected amount blocks\n        return amountBlocks;\n    }\n}\n",
  "sourcePath": "/opt/buildagent/work/855e104608380c36/contracts/RevenueFundAccrualMonitor.sol",
  "compiler": {
    "name": "solc",
    "version": "0.5.13+commit.5b0b510c.Emscripten.clang"
  },
  "schemaVersion": "2.0.3",
  "updatedAt": "2019-12-19T21:28:47.304Z"
}