{
  "contractName": "RevenueFund1",
  "abi": [
    {
      "inputs": [
        {
          "internalType": "address",
          "name": "deployer",
          "type": "address"
        }
      ],
      "payable": false,
      "stateMutability": "nonpayable",
      "type": "constructor"
    },
    {
      "anonymous": false,
      "inputs": [],
      "name": "CloseAccrualPeriodEvent",
      "type": "event"
    },
    {
      "anonymous": false,
      "inputs": [
        {
          "indexed": false,
          "internalType": "contract Beneficiary",
          "name": "beneficiary",
          "type": "address"
        }
      ],
      "name": "DeregisterAccrualBeneficiaryEvent",
      "type": "event"
    },
    {
      "anonymous": false,
      "inputs": [
        {
          "indexed": false,
          "internalType": "contract Beneficiary",
          "name": "beneficiary",
          "type": "address"
        }
      ],
      "name": "DeregisterBeneficiaryEvent",
      "type": "event"
    },
    {
      "anonymous": false,
      "inputs": [
        {
          "indexed": false,
          "internalType": "address",
          "name": "service",
          "type": "address"
        }
      ],
      "name": "DeregisterServiceEvent",
      "type": "event"
    },
    {
      "anonymous": false,
      "inputs": [
        {
          "indexed": false,
          "internalType": "address",
          "name": "from",
          "type": "address"
        },
        {
          "indexed": false,
          "internalType": "int256",
          "name": "amount",
          "type": "int256"
        },
        {
          "indexed": false,
          "internalType": "address",
          "name": "currencyCt",
          "type": "address"
        },
        {
          "indexed": false,
          "internalType": "uint256",
          "name": "currencyId",
          "type": "uint256"
        }
      ],
      "name": "ReceiveEvent",
      "type": "event"
    },
    {
      "anonymous": false,
      "inputs": [
        {
          "indexed": false,
          "internalType": "contract Beneficiary",
          "name": "beneficiary",
          "type": "address"
        },
        {
          "indexed": false,
          "internalType": "int256",
          "name": "fraction",
          "type": "int256"
        }
      ],
      "name": "RegisterAccrualBeneficiaryEvent",
      "type": "event"
    },
    {
      "anonymous": false,
      "inputs": [
        {
          "indexed": false,
          "internalType": "contract Beneficiary",
          "name": "beneficiary",
          "type": "address"
        }
      ],
      "name": "RegisterBeneficiaryEvent",
      "type": "event"
    },
    {
      "anonymous": false,
      "inputs": [
        {
          "indexed": false,
          "internalType": "address",
          "name": "service",
          "type": "address"
        }
      ],
      "name": "RegisterServiceEvent",
      "type": "event"
    },
    {
      "anonymous": false,
      "inputs": [
        {
          "indexed": false,
          "internalType": "address",
          "name": "wallet",
          "type": "address"
        }
      ],
      "name": "SelfDestructionDisabledEvent",
      "type": "event"
    },
    {
      "anonymous": false,
      "inputs": [
        {
          "indexed": false,
          "internalType": "address",
          "name": "oldDeployer",
          "type": "address"
        },
        {
          "indexed": false,
          "internalType": "address",
          "name": "newDeployer",
          "type": "address"
        }
      ],
      "name": "SetDeployerEvent",
      "type": "event"
    },
    {
      "anonymous": false,
      "inputs": [
        {
          "indexed": false,
          "internalType": "address",
          "name": "oldOperator",
          "type": "address"
        },
        {
          "indexed": false,
          "internalType": "address",
          "name": "newOperator",
          "type": "address"
        }
      ],
      "name": "SetOperatorEvent",
      "type": "event"
    },
    {
      "anonymous": false,
      "inputs": [
        {
          "indexed": false,
          "internalType": "contract TransferControllerManager",
          "name": "oldTransferControllerManager",
          "type": "address"
        },
        {
          "indexed": false,
          "internalType": "contract TransferControllerManager",
          "name": "newTransferControllerManager",
          "type": "address"
        }
      ],
      "name": "SetTransferControllerManagerEvent",
      "type": "event"
    },
    {
      "anonymous": false,
      "inputs": [
        {
          "indexed": false,
          "internalType": "address",
          "name": "wallet",
          "type": "address"
        }
      ],
      "name": "TriggerSelfDestructionEvent",
      "type": "event"
    },
    {
      "payable": true,
      "stateMutability": "payable",
      "type": "fallback"
    },
    {
      "constant": true,
      "inputs": [
        {
          "internalType": "address",
          "name": "currencyCt",
          "type": "address"
        },
        {
          "internalType": "uint256",
          "name": "currencyId",
          "type": "uint256"
        }
      ],
      "name": "aggregateAccrualBalance",
      "outputs": [
        {
          "internalType": "int256",
          "name": "",
          "type": "int256"
        }
      ],
      "payable": false,
      "stateMutability": "view",
      "type": "function"
    },
    {
      "constant": true,
      "inputs": [
        {
          "internalType": "uint256",
          "name": "low",
          "type": "uint256"
        },
        {
          "internalType": "uint256",
          "name": "up",
          "type": "uint256"
        }
      ],
      "name": "aggregateCurrenciesByIndices",
      "outputs": [
        {
          "components": [
            {
              "internalType": "address",
              "name": "ct",
              "type": "address"
            },
            {
              "internalType": "uint256",
              "name": "id",
              "type": "uint256"
            }
          ],
          "internalType": "struct MonetaryTypesLib.Currency[]",
          "name": "",
          "type": "tuple[]"
        }
      ],
      "payable": false,
      "stateMutability": "view",
      "type": "function"
    },
    {
      "constant": true,
      "inputs": [],
      "name": "aggregateCurrenciesCount",
      "outputs": [
        {
          "internalType": "uint256",
          "name": "",
          "type": "uint256"
        }
      ],
      "payable": false,
      "stateMutability": "view",
      "type": "function"
    },
    {
      "constant": true,
      "inputs": [
        {
          "internalType": "uint256",
          "name": "",
          "type": "uint256"
        }
      ],
      "name": "beneficiaries",
      "outputs": [
        {
          "internalType": "contract Beneficiary",
          "name": "",
          "type": "address"
        }
      ],
      "payable": false,
      "stateMutability": "view",
      "type": "function"
    },
    {
      "constant": true,
      "inputs": [
        {
          "internalType": "contract AccrualBeneficiary",
          "name": "beneficiary",
          "type": "address"
        }
      ],
      "name": "beneficiaryFraction",
      "outputs": [
        {
          "internalType": "int256",
          "name": "",
          "type": "int256"
        }
      ],
      "payable": false,
      "stateMutability": "view",
      "type": "function"
    },
    {
      "constant": true,
      "inputs": [
        {
          "internalType": "address",
          "name": "",
          "type": "address"
        }
      ],
      "name": "beneficiaryIndexByAddress",
      "outputs": [
        {
          "internalType": "uint256",
          "name": "",
          "type": "uint256"
        }
      ],
      "payable": false,
      "stateMutability": "view",
      "type": "function"
    },
    {
      "constant": false,
      "inputs": [
        {
          "components": [
            {
              "internalType": "address",
              "name": "ct",
              "type": "address"
            },
            {
              "internalType": "uint256",
              "name": "id",
              "type": "uint256"
            }
          ],
          "internalType": "struct MonetaryTypesLib.Currency[]",
          "name": "currencies",
          "type": "tuple[]"
        }
      ],
      "name": "closeAccrualPeriod",
      "outputs": [],
      "payable": false,
      "stateMutability": "nonpayable",
      "type": "function"
    },
    {
      "constant": true,
      "inputs": [],
      "name": "deployer",
      "outputs": [
        {
          "internalType": "address",
          "name": "",
          "type": "address"
        }
      ],
      "payable": false,
      "stateMutability": "view",
      "type": "function"
    },
    {
      "constant": true,
      "inputs": [
        {
          "internalType": "uint256",
          "name": "index",
          "type": "uint256"
        }
      ],
      "name": "deposit",
      "outputs": [
        {
          "internalType": "int256",
          "name": "amount",
          "type": "int256"
        },
        {
          "internalType": "uint256",
          "name": "blockNumber",
          "type": "uint256"
        },
        {
          "internalType": "address",
          "name": "currencyCt",
          "type": "address"
        },
        {
          "internalType": "uint256",
          "name": "currencyId",
          "type": "uint256"
        }
      ],
      "payable": false,
      "stateMutability": "view",
      "type": "function"
    },
    {
      "constant": true,
      "inputs": [],
      "name": "depositsCount",
      "outputs": [
        {
          "internalType": "uint256",
          "name": "",
          "type": "uint256"
        }
      ],
      "payable": false,
      "stateMutability": "view",
      "type": "function"
    },
    {
      "constant": false,
      "inputs": [
        {
          "internalType": "contract Beneficiary",
          "name": "beneficiary",
          "type": "address"
        }
      ],
      "name": "deregisterBeneficiary",
      "outputs": [
        {
          "internalType": "bool",
          "name": "",
          "type": "bool"
        }
      ],
      "payable": false,
      "stateMutability": "nonpayable",
      "type": "function"
    },
    {
      "constant": true,
      "inputs": [],
      "name": "destructor",
      "outputs": [
        {
          "internalType": "address",
          "name": "",
          "type": "address"
        }
      ],
      "payable": false,
      "stateMutability": "view",
      "type": "function"
    },
    {
      "constant": false,
      "inputs": [],
      "name": "disableSelfDestruction",
      "outputs": [],
      "payable": false,
      "stateMutability": "nonpayable",
      "type": "function"
    },
    {
      "constant": true,
      "inputs": [
        {
          "internalType": "contract Beneficiary",
          "name": "beneficiary",
          "type": "address"
        }
      ],
      "name": "isRegisteredBeneficiary",
      "outputs": [
        {
          "internalType": "bool",
          "name": "",
          "type": "bool"
        }
      ],
      "payable": false,
      "stateMutability": "view",
      "type": "function"
    },
    {
      "constant": true,
      "inputs": [],
      "name": "operator",
      "outputs": [
        {
          "internalType": "address",
          "name": "",
          "type": "address"
        }
      ],
      "payable": false,
      "stateMutability": "view",
      "type": "function"
    },
    {
      "constant": true,
      "inputs": [
        {
          "internalType": "address",
          "name": "currencyCt",
          "type": "address"
        },
        {
          "internalType": "uint256",
          "name": "currencyId",
          "type": "uint256"
        }
      ],
      "name": "periodAccrualBalance",
      "outputs": [
        {
          "internalType": "int256",
          "name": "",
          "type": "int256"
        }
      ],
      "payable": false,
      "stateMutability": "view",
      "type": "function"
    },
    {
      "constant": true,
      "inputs": [
        {
          "internalType": "uint256",
          "name": "low",
          "type": "uint256"
        },
        {
          "internalType": "uint256",
          "name": "up",
          "type": "uint256"
        }
      ],
      "name": "periodCurrenciesByIndices",
      "outputs": [
        {
          "components": [
            {
              "internalType": "address",
              "name": "ct",
              "type": "address"
            },
            {
              "internalType": "uint256",
              "name": "id",
              "type": "uint256"
            }
          ],
          "internalType": "struct MonetaryTypesLib.Currency[]",
          "name": "",
          "type": "tuple[]"
        }
      ],
      "payable": false,
      "stateMutability": "view",
      "type": "function"
    },
    {
      "constant": true,
      "inputs": [],
      "name": "periodCurrenciesCount",
      "outputs": [
        {
          "internalType": "uint256",
          "name": "",
          "type": "uint256"
        }
      ],
      "payable": false,
      "stateMutability": "view",
      "type": "function"
    },
    {
      "constant": false,
      "inputs": [
        {
          "internalType": "address",
          "name": "wallet",
          "type": "address"
        },
        {
          "internalType": "string",
          "name": "",
          "type": "string"
        }
      ],
      "name": "receiveEthersTo",
      "outputs": [],
      "payable": true,
      "stateMutability": "payable",
      "type": "function"
    },
    {
      "constant": false,
      "inputs": [
        {
          "internalType": "string",
          "name": "balanceType",
          "type": "string"
        },
        {
          "internalType": "int256",
          "name": "amount",
          "type": "int256"
        },
        {
          "internalType": "address",
          "name": "currencyCt",
          "type": "address"
        },
        {
          "internalType": "uint256",
          "name": "currencyId",
          "type": "uint256"
        },
        {
          "internalType": "string",
          "name": "standard",
          "type": "string"
        }
      ],
      "name": "receiveTokens",
      "outputs": [],
      "payable": false,
      "stateMutability": "nonpayable",
      "type": "function"
    },
    {
      "constant": false,
      "inputs": [
        {
          "internalType": "address",
          "name": "wallet",
          "type": "address"
        },
        {
          "internalType": "string",
          "name": "",
          "type": "string"
        },
        {
          "internalType": "int256",
          "name": "amount",
          "type": "int256"
        },
        {
          "internalType": "address",
          "name": "currencyCt",
          "type": "address"
        },
        {
          "internalType": "uint256",
          "name": "currencyId",
          "type": "uint256"
        },
        {
          "internalType": "string",
          "name": "standard",
          "type": "string"
        }
      ],
      "name": "receiveTokensTo",
      "outputs": [],
      "payable": false,
      "stateMutability": "nonpayable",
      "type": "function"
    },
    {
      "constant": false,
      "inputs": [
        {
          "internalType": "contract Beneficiary",
          "name": "beneficiary",
          "type": "address"
        }
      ],
      "name": "registerBeneficiary",
      "outputs": [
        {
          "internalType": "bool",
          "name": "",
          "type": "bool"
        }
      ],
      "payable": false,
      "stateMutability": "nonpayable",
      "type": "function"
    },
    {
      "constant": false,
      "inputs": [
        {
          "internalType": "contract AccrualBeneficiary",
          "name": "beneficiary",
          "type": "address"
        },
        {
          "internalType": "int256",
          "name": "fraction",
          "type": "int256"
        }
      ],
      "name": "registerFractionalBeneficiary",
      "outputs": [
        {
          "internalType": "bool",
          "name": "",
          "type": "bool"
        }
      ],
      "payable": false,
      "stateMutability": "nonpayable",
      "type": "function"
    },
    {
      "constant": true,
      "inputs": [],
      "name": "registeredBeneficiariesCount",
      "outputs": [
        {
          "internalType": "uint256",
          "name": "",
          "type": "uint256"
        }
      ],
      "payable": false,
      "stateMutability": "view",
      "type": "function"
    },
    {
      "constant": true,
      "inputs": [],
      "name": "selfDestructionDisabled",
      "outputs": [
        {
          "internalType": "bool",
          "name": "",
          "type": "bool"
        }
      ],
      "payable": false,
      "stateMutability": "view",
      "type": "function"
    },
    {
      "constant": false,
      "inputs": [
        {
          "internalType": "address",
          "name": "newDeployer",
          "type": "address"
        }
      ],
      "name": "setDeployer",
      "outputs": [],
      "payable": false,
      "stateMutability": "nonpayable",
      "type": "function"
    },
    {
      "constant": false,
      "inputs": [
        {
          "internalType": "address",
          "name": "newOperator",
          "type": "address"
        }
      ],
      "name": "setOperator",
      "outputs": [],
      "payable": false,
      "stateMutability": "nonpayable",
      "type": "function"
    },
    {
      "constant": false,
      "inputs": [
        {
          "internalType": "contract TransferControllerManager",
          "name": "newTransferControllerManager",
          "type": "address"
        }
      ],
      "name": "setTransferControllerManager",
      "outputs": [],
      "payable": false,
      "stateMutability": "nonpayable",
      "type": "function"
    },
    {
      "constant": true,
      "inputs": [],
      "name": "totalBeneficiaryFraction",
      "outputs": [
        {
          "internalType": "int256",
          "name": "",
          "type": "int256"
        }
      ],
      "payable": false,
      "stateMutability": "view",
      "type": "function"
    },
    {
      "constant": true,
      "inputs": [],
      "name": "transferControllerManager",
      "outputs": [
        {
          "internalType": "contract TransferControllerManager",
          "name": "",
          "type": "address"
        }
      ],
      "payable": false,
      "stateMutability": "view",
      "type": "function"
    },
    {
      "constant": false,
      "inputs": [],
      "name": "triggerSelfDestruction",
      "outputs": [],
      "payable": false,
      "stateMutability": "nonpayable",
      "type": "function"
    }
  ],
  "bytecode": "0x60806040523480156200001157600080fd5b50604051620030df380380620030df8339810160408190526200003491620000b6565b8080806001600160a01b0381166200004b57600080fd5b6001600160a01b0381163014156200006257600080fd5b5060008054610100600160a81b0319166101006001600160a01b0393909316928302179055600180546001600160a01b0319169091179055506200010b9050565b8051620000b081620000f1565b92915050565b600060208284031215620000c957600080fd5b6000620000d78484620000a3565b949350505050565b60006001600160a01b038216620000b0565b620000fc81620000df565b81146200010857600080fd5b50565b612fc4806200011b6000396000f3fe6080604052600436106101685760003560e01c806303aa458f1461018357806304fd3130146101ae5780631caf1d6d146101db5780632738a112146101fb5780632f013a00146102105780632f044523146102255780633242bf97146102455780634476d23b1461026557806344b53737146102875780634506e935146102a7578063477fbc39146102bc578063570ca735146102dc5780635f289651146102f157806367299f361461031157806369ac566d1461032657806370327ea11461033b5780638ee18c43146103505780639621473514610370578063962c85a214610390578063a7654a1f146103bd578063af30b312146103d0578063b3ab15fb146103f2578063b6b55f2514610412578063bb4e34ea14610442578063c45a9a7f14610457578063cb9bd04c14610477578063cdd8b2b214610497578063d3b41bd2146104b7578063d5f39488146104d7578063efeb5e58146104ec578063f50358e71461050c575b610181336040518060200160405280600081525061052c565b005b34801561018f57600080fd5b5061019861064b565b6040516101a59190612d2b565b60405180910390f35b3480156101ba57600080fd5b506101ce6101c936600461255f565b610651565b6040516101a59190612cd9565b3480156101e757600080fd5b506101ce6101f636600461255f565b61066e565b34801561020757600080fd5b5061018161073b565b34801561021c57600080fd5b506101ce6107a1565b34801561023157600080fd5b506101986102403660046124bf565b6107aa565b34801561025157600080fd5b506101ce61026036600461257d565b6107c7565b34801561027157600080fd5b5061027a610950565b6040516101a59190612b3a565b34801561029357600080fd5b506101986102a2366004612393565b610965565b3480156102b357600080fd5b50610198610977565b3480156102c857600080fd5b506101816102d73660046124ef565b610988565b3480156102e857600080fd5b5061027a610f01565b3480156102fd57600080fd5b5061018161030c36600461240a565b610f10565b34801561031d57600080fd5b50610198611188565b34801561033257600080fd5b5061019861118e565b34801561034757600080fd5b5061018161119a565b34801561035c57600080fd5b5061019861036b36600461255f565b6111fd565b34801561037c57600080fd5b5061018161038b366004612393565b611218565b34801561039c57600080fd5b506103b06103ab366004612698565b6112ce565b6040516101a59190612cc8565b6101816103cb3660046123b9565b61052c565b3480156103dc57600080fd5b506103e56112e2565b6040516101a59190612d02565b3480156103fe57600080fd5b5061018161040d366004612393565b6112f1565b34801561041e57600080fd5b5061043261042d36600461267a565b611394565b6040516101a59493929190612d39565b34801561044e57600080fd5b506101986113b9565b34801561046357600080fd5b506101816104723660046125d8565b6113c5565b34801561048357600080fd5b506103b0610492366004612698565b6113da565b3480156104a357600080fd5b506101ce6104b236600461255f565b6113ee565b3480156104c357600080fd5b506101816104d236600461255f565b61149b565b3480156104e357600080fd5b5061027a61153c565b3480156104f857600080fd5b506103e561050736600461267a565b611550565b34801561051857600080fd5b506101986105273660046124bf565b611577565b60405163802d10af60e01b815260009073__SafeMathIntLib________________________9063802d10af90610566903490600401612d2b565b60206040518083038186803b15801561057e57600080fd5b505af4158015610592573d6000803e3d6000fd5b505050506040513d601f19601f820116820180604052506105b691908101906125ba565b90506105cc60078260008063ffffffff61158b16565b6105e0600f8260008063ffffffff61158b16565b6105f3600d60008063ffffffff61163616565b610606601560008063ffffffff61163616565b61061a60178260008063ffffffff6116d616565b600080516020612f62833981519152838260008060405161063e9493929190612c35565b60405180910390a1505050565b60055481565b6001600160a01b0316600090815260036020526040902054151590565b60006106786117a3565b61068157600080fd5b816001600160a01b03811661069557600080fd5b61069e836117b9565b6106ab5760009150610735565b6001600160a01b03831660009081526004602052604090205460055484916106d9919063ffffffff61194716565b6005556001600160a01b03811660009081526004602052604080822091909155517fe70cf8f1ea3c38a40b085d1b441630ee0dff68ced3acf214db32e69e7d89d5ce90610727908690612d02565b60405180910390a160019250505b50919050565b33610744610950565b6001600160a01b03161461075757600080fd5b60005460ff161561076757600080fd5b7f787a5d936e74f4b564b9153575886059829c78cd9927b1be5e0d976b317ef736336040516107969190612b48565b60405180910390a133ff5b60005460ff1681565b60006107be6007848463ffffffff61198116565b90505b92915050565b60006107d16117a3565b6107da57600080fd5b826001600160a01b0381166107ee57600080fd5b600083136108175760405162461bcd60e51b815260040161080e90612dd7565b60405180910390fd5b73__ConstantsLib__________________________62a123336040518163ffffffff1660e01b815260040160206040518083038186803b15801561085a57600080fd5b505af415801561086e573d6000803e3d6000fd5b505050506040513d601f19601f8201168201806040525061089291908101906125ba565b6005546108a5908563ffffffff6119a916565b13156108c35760405162461bcd60e51b815260040161080e90612d97565b6108cc846119dc565b6108d95760009150610949565b6001600160a01b0384166000908152600460205260409020839055600554610907908463ffffffff6119a916565b6005556040517f837d28097a914e8775b13b7106c076d44aee13240028d50318ede90f3c4beb0d9061093c9086908690612ce7565b60405180910390a1600191505b5092915050565b60005461010090046001600160a01b03165b90565b60036020526000908152604090205481565b60006109836017611abe565b905090565b610990611ac2565b61099957600080fd5b60055473__ConstantsLib__________________________62a123336040518163ffffffff1660e01b815260040160206040518083038186803b1580156109df57600080fd5b505af41580156109f3573d6000803e3d6000fd5b505050506040513d601f19601f82011682018060405250610a1791908101906125ba565b14610a345760405162461bcd60e51b815260040161080e90612d77565b60005b8151811015610e2257610a4861214e565b828281518110610a5457fe5b602002602001015190506000610a7e8260000151836020015160076119819092919063ffffffff16565b905080600012610a8f575050610e1a565b60005b600254811015610dfa57600060028281548110610aab57fe5b60009182526020822001546001600160a01b03169150610aca826111fd565b1315610df1576000610b8d73__ConstantsLib__________________________62a123336040518163ffffffff1660e01b815260040160206040518083038186803b158015610b1857600080fd5b505af4158015610b2c573d6000803e3d6000fd5b505050506040513d601f19601f82011682018060405250610b5091908101906125ba565b610b81610b5c856111fd565b885160208a0151610b759160079163ffffffff61198116565b9063ffffffff611ad316565b9063ffffffff611b3116565b905083811315610b9a5750825b6000811315610def5784516001600160a01b0316610c185760405163a7654a1f60e01b81526001600160a01b0383169063a7654a1f908390610be190600090600401612ba2565b6000604051808303818588803b158015610bfa57600080fd5b505af1158015610c0e573d6000803e3d6000fd5b5050505050610ddc565b6000610c37866000015160405180602001604052806000815250611b62565b90506000816001600160a01b0316826001600160a01b0316631711a8946040518163ffffffff1660e01b815260040160206040518083038186803b158015610c7e57600080fd5b505afa158015610c92573d6000803e3d6000fd5b505050506040513d601f19601f82011682018060405250610cb69190810190612541565b885160208a0151604051610cd09289928992602401612c73565b60408051601f198184030181529181526020820180516001600160e01b03166001600160e01b0319909416939093179092529051610d0e9190612b2e565b600060405180830381855af49150503d8060008114610d49576040519150601f19603f3d011682016040523d82523d6000602084013e610d4e565b606091505b5050905080610d6f5760405162461bcd60e51b815260040161080e90612d87565b86516020880151604051635f28965160e01b81526001600160a01b03871692635f28965192610da79260009289929091600401612bc1565b600060405180830381600087803b158015610dc157600080fd5b505af1158015610dd5573d6000803e3d6000fd5b5050505050505b610dec848263ffffffff61194716565b93505b505b50600101610a92565b5081516020830151610e179160079184919063ffffffff611be516565b50505b600101610a37565b5060005b600254811015610ed457600060028281548110610e3f57fe5b6000918252602090912001546001600160a01b03169050610e5f816111fd565b600012610e6c5750610ecc565b60405163477fbc3960e01b81526001600160a01b0382169063477fbc3990610e98908690600401612cc8565b600060405180830381600087803b158015610eb257600080fd5b505af1158015610ec6573d6000803e3d6000fd5b50505050505b600101610e26565b506040517f189e8b5b22089b707bd455f7287f001b48cc48a2d698ccfed993f34eff92dfdb90600090a150565b6001546001600160a01b031681565b6040516351750e5360e11b815273__SafeMathIntLib________________________9063a2ea1ca690610f47908790600401612d2b565b60206040518083038186803b158015610f5f57600080fd5b505af4158015610f73573d6000803e3d6000fd5b505050506040513d601f19601f82011682018060405250610f979190810190612523565b610fb35760405162461bcd60e51b815260040161080e90612dc7565b6000610fbf8483611b62565b90506000816001600160a01b0316826001600160a01b031663ad502f576040518163ffffffff1660e01b815260040160206040518083038186803b15801561100657600080fd5b505afa15801561101a573d6000803e3d6000fd5b505050506040513d601f19601f8201168201806040525061103e9190810190612541565b3330898989604051602401611057959493929190612b56565b60408051601f198184030181529181526020820180516001600160e01b03166001600160e01b03199094169390931790925290516110959190612b2e565b600060405180830381855af49150503d80600081146110d0576040519150601f19603f3d011682016040523d82523d6000602084013e6110d5565b606091505b50509050806110f65760405162461bcd60e51b815260040161080e90612da7565b611109600787878763ffffffff61158b16565b61111c600f87878763ffffffff61158b16565b61112e600d868663ffffffff61163616565b6111406015868663ffffffff61163616565b611153601787878763ffffffff6116d616565b600080516020612f62833981519152888787876040516111769493929190612c73565b60405180910390a15050505050505050565b60025490565b6000610983600d611abe565b336111a3610950565b6001600160a01b0316146111b657600080fd5b6000805460ff191660011790556040517fd5a2a04a775c741c2ca0dc46ea7ce4835190e1aaf1ca018def0e82568ec33616906111f3903390612b48565b60405180910390a1565b6001600160a01b031660009081526004602052604090205490565b6112206117a3565b61122957600080fd5b806001600160a01b03811661123d57600080fd5b6001600160a01b03811630141561125357600080fd5b6000546001600160a01b0383811661010090920416146112ca57600080546001600160a01b03848116610100908102610100600160a81b03198416179093556040519290910416907f977e5fa58e458501775e0008d275006294c5249e3c08d1d0e3a9f3acad14f6e49061063e9083908690612c1a565b5050565b60606107be6015848463ffffffff611c5c16565b6006546001600160a01b031681565b6112f9611ac2565b61130257600080fd5b806001600160a01b03811661131657600080fd5b6001600160a01b03811630141561132c57600080fd5b6001546001600160a01b038381169116146112ca57600180546001600160a01b038481166001600160a01b03198316179092556040519116907f9f611b789425d0d5b90b920f1b2852907dd865c80074a30b1629aaa041d1812c9061063e9083908690612c1a565b60008080806113aa60178663ffffffff611dea16565b93509350935093509193509193565b60006109836015611abe565b6113d3338686868686610f10565b5050505050565b60606107be600d848463ffffffff611c5c16565b60006113f86117a3565b61140157600080fd5b816001600160a01b03811661141557600080fd5b6114948373__ConstantsLib__________________________62a123336040518163ffffffff1660e01b815260040160206040518083038186803b15801561145c57600080fd5b505af4158015611470573d6000803e3d6000fd5b505050506040513d601f19601f8201168201806040525061026091908101906125ba565b9392505050565b6114a36117a3565b6114ac57600080fd5b806001600160a01b0381166114c057600080fd5b60065482906001600160a01b03908116908216811461153657600680546001600160a01b038681166001600160a01b03198316179092556040519116907fee9ef6d53e152e48b1ebc1c23943fb2b96e847465ed779a0e2121a388ea83d2f9061152c9083908890612d10565b60405180910390a1505b50505050565b60005461010090046001600160a01b031681565b6002818154811061155d57fe5b6000918252602090912001546001600160a01b0316905081565b60006107be600f848463ffffffff61198116565b6001600160a01b0382166000908152602085815260408083208484529091529020546115bd908463ffffffff6119a916565b6001600160a01b0383166000818152602087815260408083208684528083528184208690559383526001808a018352818420878552835281842082518084019093529483529481524381830190815284548087018655948452919092209151600290930290910191825551910155611536848383611eb4565b6001600160a01b038216600090815260018401602090815260408083208484529091529020546116d1576040805180820182526001600160a01b038481168083526020808401868152885460018082018b5560008b81528481209751600290930290970180546001600160a01b0319169290961691909117855590519381019390935587549184529187018252838320858452909152919020555b505050565b6116de612165565b50604080516080810182529384524360208086019182526001600160a01b0394851686840181815260608801868152895460018181018c5560008c81528681208c516004948502909101908155885181840155855160028083018054928f166001600160a01b031993841617905586516003938401559783529d830188528982209a8252998752978820805480830182559089529590972099519402909801928355925193820193909355905191810180549290941691909516179091559051910155565b60005461010090046001600160a01b0316331490565b60006117c36117a3565b6117cc57600080fd5b816001600160a01b0381166117e057600080fd5b6001600160a01b0383166000908152600360205260409020548390611809576000925050610735565b6001600160a01b03811660009081526003602052604090205460025460001991820191018110156118d55760028054600019810190811061184657fe5b600091825260209091200154600280546001600160a01b03909216918390811061186c57fe5b9060005260206000200160006101000a8154816001600160a01b0302191690836001600160a01b031602179055508060010160036000600284815481106118af57fe5b60009182526020808320909101546001600160a01b031683528201929092526040019020555b60028054906118e8906000198301612196565b506001600160a01b03821660009081526003602052604080822091909155517f33f51cf787669db5b5aff6ba597298fd010748de93aaadef29aae876cef4a8c390611934908790612d02565b60405180910390a1506001949350505050565b600080821215801561195b57508282840313155b806119725750600082128015611972575082828403135b61197b57600080fd5b50900390565b6001600160a01b03919091166000908152602092835260408082209282529190925290205490565b60008282018183128015906119be5750838112155b806119d357506000831280156119d357508381125b6107be57600080fd5b60006119e66117a3565b6119ef57600080fd5b816001600160a01b038116611a0357600080fd5b6001600160a01b038316600090815260036020526040902054839015611a2d576000925050610735565b600280546001810182557f405787fa12a823e0f2b7631cc41b3ba8828b3321ca811111fa75cd3aa3bb5ace0180546001600160a01b0319166001600160a01b038781169190911790915590549082166000908152600360205260409081902091909155517fdd62ff6d9c23793871e7d4796bde6c5dfb2bf8bcbd4186411cee3eb9f618952190610727908690612d02565b5490565b6001546001600160a01b0316331490565b600082600019141580611aea5750600160ff1b8214155b611af357600080fd5b81600019141580611b085750600160ff1b8314155b611b1157600080fd5b8282028215806119d3575083838281611b2657fe5b05146107be57600080fd5b6000600160ff1b83141580611b4857508160001914155b611b5157600080fd5b818381611b5a57fe5b059392505050565b600654604051630c8a483b60e41b81526000916001600160a01b03169063c8a483b090611b959086908690600401612ca8565b60206040518083038186803b158015611bad57600080fd5b505afa158015611bc1573d6000803e3d6000fd5b505050506040513d601f19601f820116820180604052506107be919081019061259c565b6001600160a01b0382166000818152602086815260408083208584528083528184208890559383526001808901835281842086855283528184208251808401909352948352878252438284019081528554808301875595855292909320905160029094020192835551910155611536848383611eb4565b8254606090611c7d5760405162461bcd60e51b815260040161080e90612d67565b81831115611c9d5760405162461bcd60e51b815260040161080e90612d57565b835460405163700f1a7760e01b815273__SafeMathUintLib_______________________9163700f1a7791611cdd91869160001990910190600401612de7565b60206040518083038186803b158015611cf557600080fd5b505af4158015611d09573d6000803e3d6000fd5b505050506040513d601f19601f82011682018060405250611d2d91908101906125ba565b91506060838303600101604051908082528060200260200182016040528015611d7057816020015b611d5d61214e565b815260200190600190039081611d555790505b509050835b838111611de157856000018181548110611d8b57fe5b60009182526020918290206040805180820190915260029092020180546001600160a01b03168252600101549181019190915282518390878403908110611dce57fe5b6020908102919091010152600101611d75565b50949350505050565b81546000908190819081908510611e135760405162461bcd60e51b815260040161080e90612d47565b856000018581548110611e2257fe5b9060005260206000209060040201600001549350856000018581548110611e4557fe5b9060005260206000209060040201600101549250856000018581548110611e6857fe5b600091825260209091206002600490920201015486546001600160a01b039091169250869086908110611e9757fe5b906000526020600020906004020160030154905092959194509250565b6001600160a01b038216600090815260208481526040808320848452909152902054158015611ef25750611ef260028401838363ffffffff611f5016565b15611f1057611f0b60028401838363ffffffff611f7f16565b6116d1565b611f2460028401838363ffffffff611f5016565b6116d157611f3c60028401838363ffffffff61163616565b6116d160048401838363ffffffff61163616565b6001600160a01b0382166000908152600184016020908152604080832084845290915290205415159392505050565b6001600160a01b03821660009081526001840160209081526040808320848452909152902054801561153657611536846001830381548110611fd35760405162461bcd60e51b815260040161080e90612db7565b6000826000018281548110611fe457fe5b6000918252602082206002909102015484546001600160a01b03909116925084908490811061200f57fe5b600091825260209091206001600290920201015484549091506000190183101561210f5783548490600019810190811061204557fe5b906000526020600020906002020184600001848154811061206257fe5b600091825260208220835460029092020180546001600160a01b0319166001600160a01b0390921691909117815560019283015490830155855485830192870191908790879081106120b057fe5b600091825260208083206002909202909101546001600160a01b03168352820192909252604001812086549091908790879081106120ea57fe5b9060005260206000209060020201600101548152602001908152602001600020819055505b835461211f8560001983016121ba565b506001600160a01b03909116600090815260019093016020908152604080852092855291905282209190915550565b604080518082019091526000808252602082015290565b6040518060800160405280600081526020016000815260200160006001600160a01b03168152602001600081525090565b8154818355818111156116d1576000838152602090206116d19181019083016121e6565b8154818355818111156116d1576002028160020283600052602060002091820191016116d19190612204565b61096291905b8082111561220057600081556001016121ec565b5090565b61096291905b808211156122005780546001600160a01b03191681556000600182015560020161220a565b80356107c181612f06565b600082601f83011261224b57600080fd5b813561225e61225982612e1b565b612df5565b9150818183526020840193506020810190508385604084028201111561228357600080fd5b60005b838110156122b15781612299888261234c565b84525060209092019160409190910190600101612286565b5050505092915050565b80516107c181612f1d565b80516107c181612f26565b80356107c181612f2f565b80516107c181612f2f565b80356107c181612f38565b80516107c181612f38565b600082601f83011261230e57600080fd5b813561231c61225982612e3b565b9150808252602083016020830185838301111561233857600080fd5b612343838284612ec4565b50505092915050565b60006040828403121561235e57600080fd5b6123686040612df5565b90506000612376848461222f565b8252506020612387848483016122e7565b60208301525092915050565b6000602082840312156123a557600080fd5b60006123b1848461222f565b949350505050565b600080604083850312156123cc57600080fd5b60006123d8858561222f565b92505060208301356001600160401b038111156123f457600080fd5b612400858286016122fd565b9150509250929050565b60008060008060008060c0878903121561242357600080fd5b600061242f898961222f565b96505060208701356001600160401b0381111561244b57600080fd5b61245789828a016122fd565b955050604061246889828a016122e7565b945050606061247989828a0161222f565b935050608061248a89828a016122e7565b92505060a08701356001600160401b038111156124a657600080fd5b6124b289828a016122fd565b9150509295509295509295565b600080604083850312156124d257600080fd5b60006124de858561222f565b9250506020612400858286016122e7565b60006020828403121561250157600080fd5b81356001600160401b0381111561251757600080fd5b6123b18482850161223a565b60006020828403121561253557600080fd5b60006123b184846122bb565b60006020828403121561255357600080fd5b60006123b184846122c6565b60006020828403121561257157600080fd5b60006123b184846122d1565b6000806040838503121561259057600080fd5b60006124de85856122d1565b6000602082840312156125ae57600080fd5b60006123b184846122dc565b6000602082840312156125cc57600080fd5b60006123b184846122f2565b600080600080600060a086880312156125f057600080fd5b85356001600160401b0381111561260657600080fd5b612612888289016122fd565b9550506020612623888289016122e7565b94505060406126348882890161222f565b9350506060612645888289016122e7565b92505060808601356001600160401b0381111561266157600080fd5b61266d888289016122fd565b9150509295509295909350565b60006020828403121561268c57600080fd5b60006123b184846122e7565b600080604083850312156126ab57600080fd5b60006124de85856122e7565b60006126c38383612b0a565b505060400190565b6126d481612eae565b82525050565b6126d481612e7a565b60006126ee82612e68565b6126f88185612e6c565b935061270383612e62565b8060005b8381101561273157815161271b88826126b7565b975061272683612e62565b925050600101612707565b509495945050505050565b6126d481612e85565b600061275082612e68565b61275a8185612e75565b935061276a818560208601612ed0565b9290920192915050565b6126d481612e97565b6126d481610962565b6126d481612eb9565b600061279a82612e68565b6127a48185612e6c565b93506127b4818560208601612ed0565b6127bd81612efc565b9093019392505050565b60006127d4602983612e6c565b7f496e646578206f7566206f6620626f756e6473205b5478486973746f72794c69815268622e736f6c3a35365d60b81b602082015260400192915050565b600061281f603183612e6c565b7f426f756e647320706172616d6574657273206d69736d61746368205b43757272815270656e636965734c69622e736f6c3a39355d60781b602082015260400192915050565b6000612872602a83612e6c565b7f4e6f2063757272656e6369657320666f756e64205b43757272656e636965734c81526969622e736f6c3a39345d60b01b602082015260400192915050565b60006128be603e83612e6c565b600080516020612f4283398151915281527f6620626f756e6473205b526576656e756546756e642e736f6c3a3233365d0000602082015260400192915050565b600061290b603383612e6c565b7f417070726f76616c20627920636f6e74726f6c6c6572206661696c6564205b528152726576656e756546756e642e736f6c3a3237345d60681b602082015260400192915050565b6000612960604383612e6c565b600080516020612f4283398151915281527f6620626f756e6473205b4163637275616c42656e65666163746f722e736f6c3a60208201526236305d60e81b604082015260600192915050565b60006129b9603483612e6c565b7f526563657074696f6e20627920636f6e74726f6c6c6572206661696c6564205b815273526576656e756546756e642e736f6c3a3132345d60601b602082015260400192915050565b6000612a0f602a83612e6c565b7f496e646578206f7574206f6620626f756e6473205b43757272656e636965734c81526969622e736f6c3a35315d60b01b602082015260400192915050565b6000612a5b603283612e6c565b7f416d6f756e74206e6f74207374726963746c7920706f736974697665205b526581527176656e756546756e642e736f6c3a3131355d60701b602082015260400192915050565b60006107c1600083612e6c565b6000612abc603983612e6c565b7f4672616374696f6e206e6f74207374726963746c7920706f736974697665205b8152784163637275616c42656e65666163746f722e736f6c3a35395d60381b602082015260400192915050565b80516040830190612b1b84826126da565b506020820151611536602085018261277d565b60006114948284612745565b602081016107c182846126da565b602081016107c182846126cb565b60a08101612b6482886126da565b612b716020830187612774565b612b7e604083018661277d565b612b8b60608301856126da565b612b98608083018461277d565b9695505050505050565b60408101612bb082846126cb565b81810360208301526107be81612aa2565b60c08101612bcf82876126cb565b8181036020830152612be081612aa2565b9050612bef604083018661277d565b612bfc60608301856126da565b612c09608083018461277d565b81810360a0830152612b9881612aa2565b60408101612c2882856126da565b61149460208301846126da565b60808101612c4382876126da565b612c50602083018661277d565b612c5d60408301856126cb565b612c6a6060830184612786565b95945050505050565b60808101612c8182876126da565b612c8e602083018661277d565b612c9b60408301856126da565b612c6a606083018461277d565b60408101612cb682856126da565b81810360208301526123b1818461278f565b602080825281016107be81846126e3565b602081016107c1828461273c565b60408101612cf58285612774565b611494602083018461277d565b602081016107c18284612774565b60408101612d1e8285612774565b6114946020830184612774565b602081016107c1828461277d565b60808101612c81828761277d565b602080825281016107c1816127c7565b602080825281016107c181612812565b602080825281016107c181612865565b602080825281016107c1816128b1565b602080825281016107c1816128fe565b602080825281016107c181612953565b602080825281016107c1816129ac565b602080825281016107c181612a02565b602080825281016107c181612a4e565b602080825281016107c181612aaf565b60408101612cf5828561277d565b6040518181016001600160401b0381118282101715612e1357600080fd5b604052919050565b60006001600160401b03821115612e3157600080fd5b5060209081020190565b60006001600160401b03821115612e5157600080fd5b506020601f91909101601f19160190565b60200190565b5190565b90815260200190565b919050565b60006107c182612ea2565b151590565b6001600160e01b03191690565b60006107c182612e7a565b6001600160a01b031690565b60006107c182612e97565b60006107c182610962565b82818337506000910152565b60005b83811015612eeb578181015183820152602001612ed3565b838111156115365750506000910152565b601f01601f191690565b612f0f81612e7a565b8114612f1a57600080fd5b50565b612f0f81612e85565b612f0f81612e8a565b612f0f81612e97565b612f0f8161096256fe546f74616c2062656e6566696369617279206672616374696f6e206f7574206f6d20076dccc9a1dd1722d0739c60065c999d4137e9683cbe4d752527539d9f74a365627a7a72315820175360b29c0b432b6f115d9a41f8c258e2c8fa09b16332bdb31e6d198afcd4696c6578706572696d656e74616cf564736f6c634300050c0040",
  "source": "/*\n * Hubii Nahmii\n *\n * Compliant with the Hubii Nahmii specification v0.12.\n *\n * Copyright (C) 2017-2018 Hubii AS\n */\n\npragma solidity >=0.4.25 <0.6.0;\npragma experimental ABIEncoderV2;\n\nimport {RevenueFund} from \"./RevenueFund.sol\";\n\n/**\n * @title RevenueFund1\n * @notice The first indexed descendant of RevenueFund\n */\ncontract RevenueFund1 is RevenueFund {\n    //\n    // Constructor\n    // -----------------------------------------------------------------------------------------------------------------\n    constructor(address deployer) RevenueFund(deployer) public {\n    }\n}\n",
  "sourcePath": "/opt/buildagent/work/855e104608380c36/contracts/RevenueFund1.sol",
  "compiler": {
    "name": "solc",
    "version": "0.5.12+commit.7709ece9.Emscripten.clang"
  },
  "schemaVersion": "2.0.3",
  "updatedAt": "2019-10-23T00:21:41.191Z"
}