{
  "contractName": "RevenueTokenManager",
  "abi": [
    {
      "inputs": [
        {
          "internalType": "address",
          "name": "deployer",
          "type": "address"
        }
      ],
      "payable": false,
      "stateMutability": "nonpayable",
      "type": "constructor"
    },
    {
      "anonymous": false,
      "inputs": [
        {
          "indexed": false,
          "internalType": "uint256",
          "name": "blockNumber",
          "type": "uint256"
        },
        {
          "indexed": false,
          "internalType": "uint256",
          "name": "earliestReleaseTime",
          "type": "uint256"
        },
        {
          "indexed": false,
          "internalType": "uint256",
          "name": "amount",
          "type": "uint256"
        },
        {
          "indexed": false,
          "internalType": "uint256",
          "name": "totalAmount",
          "type": "uint256"
        },
        {
          "indexed": false,
          "internalType": "bool",
          "name": "done",
          "type": "bool"
        }
      ],
      "name": "DefineReleaseEvent",
      "type": "event"
    },
    {
      "anonymous": false,
      "inputs": [
        {
          "indexed": false,
          "internalType": "uint256",
          "name": "index",
          "type": "uint256"
        },
        {
          "indexed": false,
          "internalType": "uint256",
          "name": "blockNumber",
          "type": "uint256"
        },
        {
          "indexed": false,
          "internalType": "uint256",
          "name": "earliestReleaseTime",
          "type": "uint256"
        },
        {
          "indexed": false,
          "internalType": "uint256",
          "name": "actualReleaseTime",
          "type": "uint256"
        },
        {
          "indexed": false,
          "internalType": "uint256",
          "name": "amount",
          "type": "uint256"
        }
      ],
      "name": "ReleaseEvent",
      "type": "event"
    },
    {
      "anonymous": false,
      "inputs": [
        {
          "indexed": false,
          "internalType": "address",
          "name": "wallet",
          "type": "address"
        }
      ],
      "name": "SelfDestructionDisabledEvent",
      "type": "event"
    },
    {
      "anonymous": false,
      "inputs": [
        {
          "indexed": false,
          "internalType": "address",
          "name": "beneficiary",
          "type": "address"
        }
      ],
      "name": "SetBeneficiaryEvent",
      "type": "event"
    },
    {
      "anonymous": false,
      "inputs": [
        {
          "indexed": false,
          "internalType": "address",
          "name": "oldDeployer",
          "type": "address"
        },
        {
          "indexed": false,
          "internalType": "address",
          "name": "newDeployer",
          "type": "address"
        }
      ],
      "name": "SetDeployerEvent",
      "type": "event"
    },
    {
      "anonymous": false,
      "inputs": [
        {
          "indexed": false,
          "internalType": "address",
          "name": "oldOperator",
          "type": "address"
        },
        {
          "indexed": false,
          "internalType": "address",
          "name": "newOperator",
          "type": "address"
        }
      ],
      "name": "SetOperatorEvent",
      "type": "event"
    },
    {
      "anonymous": false,
      "inputs": [
        {
          "indexed": false,
          "internalType": "uint256",
          "name": "index",
          "type": "uint256"
        },
        {
          "indexed": false,
          "internalType": "uint256",
          "name": "blockNumber",
          "type": "uint256"
        }
      ],
      "name": "SetReleaseBlockNumberEvent",
      "type": "event"
    },
    {
      "anonymous": false,
      "inputs": [
        {
          "indexed": false,
          "internalType": "contract IERC20",
          "name": "token",
          "type": "address"
        }
      ],
      "name": "SetTokenEvent",
      "type": "event"
    },
    {
      "anonymous": false,
      "inputs": [
        {
          "indexed": false,
          "internalType": "address",
          "name": "wallet",
          "type": "address"
        }
      ],
      "name": "TriggerSelfDestructionEvent",
      "type": "event"
    },
    {
      "constant": true,
      "inputs": [],
      "name": "beneficiary",
      "outputs": [
        {
          "internalType": "address",
          "name": "",
          "type": "address"
        }
      ],
      "payable": false,
      "stateMutability": "view",
      "type": "function"
    },
    {
      "constant": false,
      "inputs": [
        {
          "components": [
            {
              "internalType": "uint256",
              "name": "blockNumber",
              "type": "uint256"
            },
            {
              "internalType": "uint256",
              "name": "earliestReleaseTime",
              "type": "uint256"
            },
            {
              "internalType": "uint256",
              "name": "amount",
              "type": "uint256"
            },
            {
              "internalType": "uint256",
              "name": "totalAmount",
              "type": "uint256"
            },
            {
              "internalType": "bool",
              "name": "done",
              "type": "bool"
            }
          ],
          "internalType": "struct TokenMultiTimelock.Release[]",
          "name": "_releases",
          "type": "tuple[]"
        }
      ],
      "name": "defineReleases",
      "outputs": [],
      "payable": false,
      "stateMutability": "nonpayable",
      "type": "function"
    },
    {
      "constant": true,
      "inputs": [],
      "name": "deployer",
      "outputs": [
        {
          "internalType": "address",
          "name": "",
          "type": "address"
        }
      ],
      "payable": false,
      "stateMutability": "view",
      "type": "function"
    },
    {
      "constant": true,
      "inputs": [],
      "name": "destructor",
      "outputs": [
        {
          "internalType": "address",
          "name": "",
          "type": "address"
        }
      ],
      "payable": false,
      "stateMutability": "view",
      "type": "function"
    },
    {
      "constant": false,
      "inputs": [],
      "name": "disableSelfDestruction",
      "outputs": [],
      "payable": false,
      "stateMutability": "nonpayable",
      "type": "function"
    },
    {
      "constant": true,
      "inputs": [],
      "name": "executedReleasesCount",
      "outputs": [
        {
          "internalType": "uint256",
          "name": "",
          "type": "uint256"
        }
      ],
      "payable": false,
      "stateMutability": "view",
      "type": "function"
    },
    {
      "constant": true,
      "inputs": [],
      "name": "operator",
      "outputs": [
        {
          "internalType": "address",
          "name": "",
          "type": "address"
        }
      ],
      "payable": false,
      "stateMutability": "view",
      "type": "function"
    },
    {
      "constant": false,
      "inputs": [
        {
          "internalType": "uint256",
          "name": "index",
          "type": "uint256"
        }
      ],
      "name": "release",
      "outputs": [],
      "payable": false,
      "stateMutability": "nonpayable",
      "type": "function"
    },
    {
      "constant": true,
      "inputs": [
        {
          "internalType": "uint256",
          "name": "blockNumber",
          "type": "uint256"
        }
      ],
      "name": "releaseIndexByBlockNumber",
      "outputs": [
        {
          "internalType": "int256",
          "name": "",
          "type": "int256"
        }
      ],
      "payable": false,
      "stateMutability": "view",
      "type": "function"
    },
    {
      "constant": true,
      "inputs": [
        {
          "internalType": "uint256",
          "name": "",
          "type": "uint256"
        }
      ],
      "name": "releases",
      "outputs": [
        {
          "internalType": "uint256",
          "name": "blockNumber",
          "type": "uint256"
        },
        {
          "internalType": "uint256",
          "name": "earliestReleaseTime",
          "type": "uint256"
        },
        {
          "internalType": "uint256",
          "name": "amount",
          "type": "uint256"
        },
        {
          "internalType": "uint256",
          "name": "totalAmount",
          "type": "uint256"
        },
        {
          "internalType": "bool",
          "name": "done",
          "type": "bool"
        }
      ],
      "payable": false,
      "stateMutability": "view",
      "type": "function"
    },
    {
      "constant": true,
      "inputs": [],
      "name": "releasesCount",
      "outputs": [
        {
          "internalType": "uint256",
          "name": "",
          "type": "uint256"
        }
      ],
      "payable": false,
      "stateMutability": "view",
      "type": "function"
    },
    {
      "constant": true,
      "inputs": [],
      "name": "selfDestructionDisabled",
      "outputs": [
        {
          "internalType": "bool",
          "name": "",
          "type": "bool"
        }
      ],
      "payable": false,
      "stateMutability": "view",
      "type": "function"
    },
    {
      "constant": false,
      "inputs": [
        {
          "internalType": "address",
          "name": "_beneficiary",
          "type": "address"
        }
      ],
      "name": "setBeneficiary",
      "outputs": [],
      "payable": false,
      "stateMutability": "nonpayable",
      "type": "function"
    },
    {
      "constant": false,
      "inputs": [
        {
          "internalType": "address",
          "name": "newDeployer",
          "type": "address"
        }
      ],
      "name": "setDeployer",
      "outputs": [],
      "payable": false,
      "stateMutability": "nonpayable",
      "type": "function"
    },
    {
      "constant": false,
      "inputs": [
        {
          "internalType": "address",
          "name": "newOperator",
          "type": "address"
        }
      ],
      "name": "setOperator",
      "outputs": [],
      "payable": false,
      "stateMutability": "nonpayable",
      "type": "function"
    },
    {
      "constant": false,
      "inputs": [
        {
          "internalType": "uint256",
          "name": "index",
          "type": "uint256"
        },
        {
          "internalType": "uint256",
          "name": "blockNumber",
          "type": "uint256"
        }
      ],
      "name": "setReleaseBlockNumber",
      "outputs": [],
      "payable": false,
      "stateMutability": "nonpayable",
      "type": "function"
    },
    {
      "constant": false,
      "inputs": [
        {
          "internalType": "contract IERC20",
          "name": "_token",
          "type": "address"
        }
      ],
      "name": "setToken",
      "outputs": [],
      "payable": false,
      "stateMutability": "nonpayable",
      "type": "function"
    },
    {
      "constant": true,
      "inputs": [],
      "name": "token",
      "outputs": [
        {
          "internalType": "contract IERC20",
          "name": "",
          "type": "address"
        }
      ],
      "payable": false,
      "stateMutability": "view",
      "type": "function"
    },
    {
      "constant": true,
      "inputs": [],
      "name": "totalLockedAmount",
      "outputs": [
        {
          "internalType": "uint256",
          "name": "",
          "type": "uint256"
        }
      ],
      "payable": false,
      "stateMutability": "view",
      "type": "function"
    },
    {
      "constant": true,
      "inputs": [],
      "name": "totalReleasedAmount",
      "outputs": [
        {
          "internalType": "uint256",
          "name": "",
          "type": "uint256"
        }
      ],
      "payable": false,
      "stateMutability": "view",
      "type": "function"
    },
    {
      "constant": false,
      "inputs": [],
      "name": "triggerSelfDestruction",
      "outputs": [],
      "payable": false,
      "stateMutability": "nonpayable",
      "type": "function"
    },
    {
      "constant": true,
      "inputs": [
        {
          "internalType": "address",
          "name": "",
          "type": "address"
        }
      ],
      "name": "balanceRecordsCount",
      "outputs": [
        {
          "internalType": "uint256",
          "name": "",
          "type": "uint256"
        }
      ],
      "payable": false,
      "stateMutability": "view",
      "type": "function"
    },
    {
      "constant": true,
      "inputs": [
        {
          "internalType": "address",
          "name": "",
          "type": "address"
        },
        {
          "internalType": "uint256",
          "name": "index",
          "type": "uint256"
        }
      ],
      "name": "recordBalance",
      "outputs": [
        {
          "internalType": "uint256",
          "name": "",
          "type": "uint256"
        }
      ],
      "payable": false,
      "stateMutability": "view",
      "type": "function"
    },
    {
      "constant": true,
      "inputs": [
        {
          "internalType": "address",
          "name": "",
          "type": "address"
        },
        {
          "internalType": "uint256",
          "name": "index",
          "type": "uint256"
        }
      ],
      "name": "recordBlockNumber",
      "outputs": [
        {
          "internalType": "uint256",
          "name": "",
          "type": "uint256"
        }
      ],
      "payable": false,
      "stateMutability": "view",
      "type": "function"
    },
    {
      "constant": true,
      "inputs": [
        {
          "internalType": "address",
          "name": "",
          "type": "address"
        },
        {
          "internalType": "uint256",
          "name": "blockNumber",
          "type": "uint256"
        }
      ],
      "name": "recordIndexByBlockNumber",
      "outputs": [
        {
          "internalType": "int256",
          "name": "",
          "type": "int256"
        }
      ],
      "payable": false,
      "stateMutability": "view",
      "type": "function"
    }
  ],
  "bytecode": "0x60806040523480156200001157600080fd5b50604051620018b6380380620018b68339810160408190526200003491620000b6565b8080806001600160a01b0381166200004b57600080fd5b6001600160a01b0381163014156200006257600080fd5b5060008054610100600160a81b0319166101006001600160a01b0393909316928302179055600180546001600160a01b0319169091179055506200010b9050565b8051620000b081620000f1565b92915050565b600060208284031215620000c957600080fd5b6000620000d78484620000a3565b949350505050565b60006001600160a01b038216620000b0565b620000fc81620000df565b81146200010857600080fd5b50565b61179b806200011b6000396000f3fe608060405234801561001057600080fd5b50600436106101335760003560e01c806305a9f2741461013857806312c508ba14610156578063144fa6d7146101695780631c31f7101461017e5780632738a112146101915780632f013a001461019957806337bdc99b146101ae57806338af3eed146101c15780633d5a18b2146101d65780634476d23b146101e95780634eddcf5b146101f1578063570ca735146102045780635c1e2bd81461020c57806370327ea11461021f5780637319424f14610227578063792627e61461023a57806383273cd11461024d57806392e35ad414610255578063962147351461025d578063b3ab15fb14610270578063b6a9f40f14610283578063d02764f3146102a7578063d5f39488146102af578063f08c8415146102b7578063fc0c546a146102ca575b600080fd5b6101406102df565b60405161014d91906114f8565b60405180910390f35b610140610164366004610f96565b6102e5565b61017c610177366004611022565b61030f565b005b61017c61018c366004610f78565b6103d9565b61017c61044f565b6101a16104b5565b60405161014d91906114dc565b61017c6101bc366004611040565b6104be565b6101c961064b565b60405161014d919061148a565b6101406101e4366004610f78565b61065a565b6101c9610663565b61017c6101ff36600461107c565b610677565b6101c9610733565b61014061021a366004611040565b610742565b61017c6107c9565b610140610235366004610f96565b61082c565b61017c610248366004610fd0565b61083e565b610140610a64565b610140610a6a565b61017c61026b366004610f78565b610a70565b61017c61027e366004610f78565b610b2f565b610296610291366004611040565b610bd2565b60405161014d9594939291906115c4565b610140610c13565b6101c9610c19565b6101406102c5366004610f96565b610c2d565b6102d2610c56565b60405161014d91906114ea565b60065481565b6000600482815481106102f457fe5b90600052602060002090600502016003015490505b92915050565b610317610c65565b61032057600080fd5b806001600160a01b03811661033457600080fd5b6001600160a01b03811630141561034a57600080fd5b6002546001600160a01b03161561037c5760405162461bcd60e51b815260040161037390611546565b60405180910390fd5b600280546001600160a01b0319166001600160a01b0384811691909117918290556040517f6d8175d5535b8ed95618101b59531eb23efe2c999ffea7c6831918fc088b512b926103cd9216906114ea565b60405180910390a15050565b6103e1610c65565b6103ea57600080fd5b806001600160a01b0381166103fe57600080fd5b600380546001600160a01b0319166001600160a01b0384811691909117918290556040517fa269fa1cb7bcf5c01f056e2ab269416779172ccca0613c264c1333c6db01f144926103cd92169061148a565b33610458610663565b6001600160a01b03161461046b57600080fd5b60005460ff161561047b57600080fd5b7f787a5d936e74f4b564b9153575886059829c78cd9927b1be5e0d976b317ef736336040516104aa9190611498565b60405180910390a133ff5b60005460ff1681565b6003546001600160a01b031633146104e85760405162461bcd60e51b815260040161037390611596565b6000600482815481106104f757fe5b90600052602060002090600502019050806002015460001061052b5760405162461bcd60e51b815260040161037390611556565b600481015460ff16156105505760405162461bcd60e51b815260040161037390611566565b80600101544210156105745760405162461bcd60e51b815260040161037390611516565b600281015460055461058b9163ffffffff610c7616565b6005819055600382015560048101805460ff1916600117905580546105ae574381555b6007546105c290600163ffffffff610c7616565b60075560028101546006546105dc9163ffffffff610c8516565b6006556003546002808301549054610608926001600160a01b039182169291169063ffffffff610c9716565b7f192a2424596ca5fd763237e85156a3cca5a544ec2de91fcce52165f11430c9fb82826000015483600101544285600201546040516103cd959493929190611610565b6003546001600160a01b031681565b6007545b919050565b60005461010090046001600160a01b031690565b6003546001600160a01b031633146106a15760405162461bcd60e51b815260040161037390611596565b600482815481106106ae57fe5b600091825260209091206004600590920201015460ff16156106e25760405162461bcd60e51b815260040161037390611536565b80600483815481106106f057fe5b60009182526020909120600590910201556040517f7cf19267ac0e3fcfc04da70aa689f851cd659a051bab5a357d0d31085b943085906103cd90849084906115b6565b6001546001600160a01b031681565b6004546000905b80156107bf5761076081600163ffffffff610c8516565b90506004818154811061076f57fe5b90600052602060002090600502016000015460001080156107ae5750826004828154811061079957fe5b90600052602060002090600502016000015411155b156107ba57905061065e565b610749565b5060001992915050565b336107d2610663565b6001600160a01b0316146107e557600080fd5b6000805460ff191660011790556040517fd5a2a04a775c741c2ca0dc46ea7ce4835190e1aaf1ca018def0e82568ec3361690610822903390611498565b60405180910390a1565b600061083782610742565b9392505050565b610846610c65565b61084f57600080fd5b6002546001600160a01b03166108775760405162461bcd60e51b815260040161037390611506565b60005b8151811015610a605781818151811061088f57fe5b6020908102919091010151604090810151600680549091019081905560025491516370a0823160e01b815290916001600160a01b0316906370a08231906108da90309060040161148a565b60206040518083038186803b1580156108f257600080fd5b505afa158015610906573d6000803e3d6000fd5b505050506040513d601f19601f8201168201806040525061092a919081019061105e565b10156109485760405162461bcd60e51b815260040161037390611576565b600482828151811061095657fe5b6020908102919091018101518254600180820185556000948552938390208251600590920201908155918101519282019290925560408201516002820155606082015160038201556080909101516004909101805460ff191691151591909117905581517f333feffa2a059929d288a865bab6164e8c203baf5a7689facf7e9ac7d14a51fe908390839081106109e857fe5b602002602001015160000151838381518110610a0057fe5b602002602001015160200151848481518110610a1857fe5b602002602001015160400151600654868681518110610a3357fe5b602002602001015160800151604051610a509594939291906115c4565b60405180910390a160010161087a565b5050565b60055481565b60075481565b610a78610cf5565b610a8157600080fd5b806001600160a01b038116610a9557600080fd5b6001600160a01b038116301415610aab57600080fd5b6000546001600160a01b038381166101009092041614610a6057600080546001600160a01b03848116610100908102610100600160a81b03198416179093556040519290910416907f977e5fa58e458501775e0008d275006294c5249e3c08d1d0e3a9f3acad14f6e490610b2290839086906114a6565b60405180910390a1505050565b610b37610c65565b610b4057600080fd5b806001600160a01b038116610b5457600080fd5b6001600160a01b038116301415610b6a57600080fd5b6001546001600160a01b03838116911614610a6057600180546001600160a01b038481166001600160a01b03198316179092556040519116907f9f611b789425d0d5b90b920f1b2852907dd865c80074a30b1629aaa041d1812c90610b2290839086906114a6565b60048181548110610bdf57fe5b6000918252602090912060059091020180546001820154600283015460038401546004909401549294509092909160ff1685565b60045490565b60005461010090046001600160a01b031681565b600060048281548110610c3c57fe5b906000526020600020906005020160000154905092915050565b6002546001600160a01b031681565b6001546001600160a01b0316331490565b60008282018381101561083757fe5b600082821115610c9157fe5b50900390565b604051610cf090849063a9059cbb60e01b90610cb990869086906024016114c1565b60408051601f198184030181529190526020810180516001600160e01b03166001600160e01b031990931692909217909152610d0b565b505050565b60005461010090046001600160a01b0316331490565b610d1d826001600160a01b0316610df6565b610d395760405162461bcd60e51b8152600401610373906115a6565b60006060836001600160a01b031683604051610d55919061147e565b6000604051808303816000865af19150503d8060008114610d92576040519150601f19603f3d011682016040523d82523d6000602084013e610d97565b606091505b509150915081610db95760405162461bcd60e51b815260040161037390611526565b805115610df05780806020019051610dd49190810190611004565b610df05760405162461bcd60e51b815260040161037390611586565b50505050565b6000813f7fc5d2460186f7233c927e7db2dcc703c0e500b653ca82273b7bfad8045d85a4708115801590610e2a5750808214155b949350505050565b803561030981611706565b600082601f830112610e4e57600080fd5b8135610e61610e5c82611678565b611652565b915081818352602084019350602081019050838560a0840282011115610e8657600080fd5b60005b83811015610eb45781610e9c8882610edf565b84525060209092019160a09190910190600101610e89565b5050505092915050565b80356103098161171d565b80516103098161171d565b803561030981611726565b600060a08284031215610ef157600080fd5b610efb60a0611652565b90506000610f098484610f62565b8252506020610f1a84848301610f62565b6020830152506040610f2e84828501610f62565b6040830152506060610f4284828501610f62565b6060830152506080610f5684828501610ebe565b60808301525092915050565b80356103098161172f565b80516103098161172f565b600060208284031215610f8a57600080fd5b6000610e2a8484610e32565b60008060408385031215610fa957600080fd5b6000610fb58585610e32565b9250506020610fc685828601610f62565b9150509250929050565b600060208284031215610fe257600080fd5b81356001600160401b03811115610ff857600080fd5b610e2a84828501610e3d565b60006020828403121561101657600080fd5b6000610e2a8484610ec9565b60006020828403121561103457600080fd5b6000610e2a8484610ed4565b60006020828403121561105257600080fd5b6000610e2a8484610f62565b60006020828403121561107057600080fd5b6000610e2a8484610f6d565b6000806040838503121561108f57600080fd5b6000610fb58585610f62565b6110a4816116cf565b82525050565b6110a4816116a5565b6110a4816116b0565b60006110c782611698565b6110d1818561065e565b93506110e18185602086016116da565b9290920192915050565b6110a4816116b5565b6110a4816116c0565b600061110a60328361169c565b7f546f6b656e206e6f7420696e697469616c697a6564205b546f6b656e4d756c748152716954696d656c6f636b2e736f6c3a3130395d60701b602082015260400192915050565b600061115e604d8361169c565b7f426c6f636b2074696d65207374616d70206c657373207468616e206561726c6981527f6573742072656c656173652074696d65205b546f6b656e4d756c746954696d6560208201526c6c6f636b2e736f6c3a3138395d60981b604082015260600192915050565b60006111d360208361169c565b7f5361666545524332303a206c6f772d6c6576656c2063616c6c206661696c6564815260200192915050565b600061120c60348361169c565b6000805160206117398339815191528152736c746954696d656c6f636b2e736f6c3a3134375d60601b602082015260400192915050565b600061125060308361169c565b7f546f6b656e2070726576696f75736c7920736574205b546f6b656e4d756c746981526f54696d656c6f636b2e736f6c3a37395d60801b602082015260400192915050565b60006112a260418361169c565b7f52656c6561736520616d6f756e74206e6f74207374726963746c7920706f736981527f74697665205b546f6b656e4d756c746954696d656c6f636b2e736f6c3a3138336020820152605d60f81b604082015260600192915050565b600061130b60348361169c565b6000805160206117398339815191528152736c746954696d656c6f636b2e736f6c3a3138365d60601b602082015260400192915050565b600061134f60388361169c565b7f546f74616c206c6f636b656420616d6f756e74206f76657272756e205b546f6b815277656e4d756c746954696d656c6f636b2e736f6c3a3131385d60401b602082015260400192915050565b60006113a9602a8361169c565b7f5361666545524332303a204552433230206f7065726174696f6e20646964206e8152691bdd081cdd58d8d9595960b21b602082015260400192915050565b60006113f5603b8361169c565b7f4d6573736167652073656e646572206e6f742062656e6566696369617279205b81527a546f6b656e4d756c746954696d656c6f636b2e736f6c3a3232305d60281b602082015260400192915050565b6000611452601f8361169c565b7f5361666545524332303a2063616c6c20746f206e6f6e2d636f6e747261637400815260200192915050565b600061083782846110bc565b6020810161030982846110aa565b60208101610309828461109b565b604081016114b482856110aa565b61083760208301846110aa565b604081016114cf82856110aa565b61083760208301846110f4565b6020810161030982846110b3565b6020810161030982846110eb565b6020810161030982846110f4565b60208082528101610309816110fd565b6020808252810161030981611151565b60208082528101610309816111c6565b60208082528101610309816111ff565b6020808252810161030981611243565b6020808252810161030981611295565b60208082528101610309816112fe565b6020808252810161030981611342565b602080825281016103098161139c565b60208082528101610309816113e8565b6020808252810161030981611445565b604081016114cf82856110f4565b60a081016115d282886110f4565b6115df60208301876110f4565b6115ec60408301866110f4565b6115f960608301856110f4565b61160660808301846110b3565b9695505050505050565b60a0810161161e82886110f4565b61162b60208301876110f4565b61163860408301866110f4565b61164560608301856110f4565b61160660808301846110f4565b6040518181016001600160401b038111828210171561167057600080fd5b604052919050565b60006001600160401b0382111561168e57600080fd5b5060209081020190565b5190565b90815260200190565b6000610309826116c3565b151590565b6000610309826116a5565b90565b6001600160a01b031690565b6000610309826116b5565b60005b838110156116f55781810151838201526020016116dd565b83811115610df05750506000910152565b61170f816116a5565b811461171a57600080fd5b50565b61170f816116b0565b61170f816116b5565b61170f816116c056fe52656c656173652070726576696f75736c7920646f6e65205b546f6b656e4d75a365627a7a72315820fce1fe33ae426b30242e624e709adefcee6c9f601e31444687e82e88bbe2a5c66c6578706572696d656e74616cf564736f6c634300050d0040",
  "source": "/*\n * Hubii Nahmii\n *\n * Compliant with the Hubii Nahmii specification v0.12.\n *\n * Copyright (C) 2017-2019 Hubii AS\n */\n\npragma solidity >=0.4.25 <0.6.0;\npragma experimental ABIEncoderV2;\n\nimport {TokenMultiTimelock} from \"./TokenMultiTimelock.sol\";\nimport {SafeMathUintLib} from \"./SafeMathUintLib.sol\";\nimport {BalanceRecordable} from \"./BalanceRecordable.sol\";\n\n/**\n * @title RevenueTokenManager\n * @notice A token multi-timelock that supports the calculation of balance blocks\n * of the underlying revenue token as well as amount blocks from its own released amount\n */\ncontract RevenueTokenManager is TokenMultiTimelock, BalanceRecordable {\n    using SafeMathUintLib for uint256;\n\n    //\n    // Constructor\n    // -----------------------------------------------------------------------------------------------------------------\n    constructor(address deployer)\n    public\n    TokenMultiTimelock(deployer)\n    {\n    }\n\n    //\n    // Functions\n    // -----------------------------------------------------------------------------------------------------------------\n    /// @notice Get the count of executed releases\n    /// @return The count of executed releases\n    function balanceRecordsCount(address)\n    external\n    view\n    returns (uint256)\n    {\n        return executedReleasesCount;\n    }\n\n    /// @notice Get the total amount for the given release index\n    /// @param index The concerned index\n    /// @return The release total amount\n    function recordBalance(address, uint256 index)\n    external\n    view\n    returns (uint256)\n    {\n        return releases[index].totalAmount;\n    }\n\n    /// @notice Get the release block number for the given release index\n    /// @param index The concerned index\n    /// @return The release block number\n    function recordBlockNumber(address, uint256 index)\n    external\n    view\n    returns (uint256)\n    {\n        return releases[index].blockNumber;\n    }\n\n    /// @notice Get the index of the release containing the given block number,\n    /// or -1 if the given block number is below the smallest release block number\n    /// @param blockNumber The concerned block number\n    /// @return The release index\n    function recordIndexByBlockNumber(address, uint256 blockNumber)\n    external\n    view\n    returns (int256)\n    {\n        return releaseIndexByBlockNumber(blockNumber);\n    }\n}",
  "sourcePath": "/opt/buildagent/work/855e104608380c36/contracts/RevenueTokenManager.sol",
  "compiler": {
    "name": "solc",
    "version": "0.5.13+commit.5b0b510c.Emscripten.clang"
  },
  "schemaVersion": "2.0.3",
  "updatedAt": "2019-12-19T20:49:44.922Z"
}