{
  "contractName": "RevenueToken",
  "abi": [
    {
      "anonymous": false,
      "inputs": [
        {
          "indexed": true,
          "internalType": "address",
          "name": "owner",
          "type": "address"
        },
        {
          "indexed": true,
          "internalType": "address",
          "name": "spender",
          "type": "address"
        },
        {
          "indexed": false,
          "internalType": "uint256",
          "name": "value",
          "type": "uint256"
        }
      ],
      "name": "Approval",
      "type": "event"
    },
    {
      "anonymous": false,
      "inputs": [],
      "name": "DisableMinting",
      "type": "event"
    },
    {
      "anonymous": false,
      "inputs": [
        {
          "indexed": true,
          "internalType": "address",
          "name": "account",
          "type": "address"
        }
      ],
      "name": "MinterAdded",
      "type": "event"
    },
    {
      "anonymous": false,
      "inputs": [
        {
          "indexed": true,
          "internalType": "address",
          "name": "account",
          "type": "address"
        }
      ],
      "name": "MinterRemoved",
      "type": "event"
    },
    {
      "anonymous": false,
      "inputs": [
        {
          "indexed": true,
          "internalType": "address",
          "name": "from",
          "type": "address"
        },
        {
          "indexed": true,
          "internalType": "address",
          "name": "to",
          "type": "address"
        },
        {
          "indexed": false,
          "internalType": "uint256",
          "name": "value",
          "type": "uint256"
        }
      ],
      "name": "Transfer",
      "type": "event"
    },
    {
      "constant": false,
      "inputs": [
        {
          "internalType": "address",
          "name": "account",
          "type": "address"
        }
      ],
      "name": "addMinter",
      "outputs": [],
      "payable": false,
      "stateMutability": "nonpayable",
      "type": "function"
    },
    {
      "constant": true,
      "inputs": [
        {
          "internalType": "address",
          "name": "owner",
          "type": "address"
        },
        {
          "internalType": "address",
          "name": "spender",
          "type": "address"
        }
      ],
      "name": "allowance",
      "outputs": [
        {
          "internalType": "uint256",
          "name": "",
          "type": "uint256"
        }
      ],
      "payable": false,
      "stateMutability": "view",
      "type": "function"
    },
    {
      "constant": true,
      "inputs": [
        {
          "internalType": "address",
          "name": "",
          "type": "address"
        },
        {
          "internalType": "uint256",
          "name": "",
          "type": "uint256"
        }
      ],
      "name": "balanceBlockNumbers",
      "outputs": [
        {
          "internalType": "uint256",
          "name": "",
          "type": "uint256"
        }
      ],
      "payable": false,
      "stateMutability": "view",
      "type": "function"
    },
    {
      "constant": true,
      "inputs": [
        {
          "internalType": "address",
          "name": "",
          "type": "address"
        },
        {
          "internalType": "uint256",
          "name": "",
          "type": "uint256"
        }
      ],
      "name": "balanceBlocks",
      "outputs": [
        {
          "internalType": "uint256",
          "name": "",
          "type": "uint256"
        }
      ],
      "payable": false,
      "stateMutability": "view",
      "type": "function"
    },
    {
      "constant": true,
      "inputs": [
        {
          "internalType": "address",
          "name": "account",
          "type": "address"
        }
      ],
      "name": "balanceOf",
      "outputs": [
        {
          "internalType": "uint256",
          "name": "",
          "type": "uint256"
        }
      ],
      "payable": false,
      "stateMutability": "view",
      "type": "function"
    },
    {
      "constant": true,
      "inputs": [
        {
          "internalType": "address",
          "name": "",
          "type": "address"
        },
        {
          "internalType": "uint256",
          "name": "",
          "type": "uint256"
        }
      ],
      "name": "balances",
      "outputs": [
        {
          "internalType": "uint256",
          "name": "",
          "type": "uint256"
        }
      ],
      "payable": false,
      "stateMutability": "view",
      "type": "function"
    },
    {
      "constant": false,
      "inputs": [
        {
          "internalType": "address",
          "name": "spender",
          "type": "address"
        },
        {
          "internalType": "uint256",
          "name": "subtractedValue",
          "type": "uint256"
        }
      ],
      "name": "decreaseAllowance",
      "outputs": [
        {
          "internalType": "bool",
          "name": "",
          "type": "bool"
        }
      ],
      "payable": false,
      "stateMutability": "nonpayable",
      "type": "function"
    },
    {
      "constant": true,
      "inputs": [
        {
          "internalType": "uint256",
          "name": "",
          "type": "uint256"
        }
      ],
      "name": "holders",
      "outputs": [
        {
          "internalType": "address",
          "name": "",
          "type": "address"
        }
      ],
      "payable": false,
      "stateMutability": "view",
      "type": "function"
    },
    {
      "constant": true,
      "inputs": [
        {
          "internalType": "address",
          "name": "",
          "type": "address"
        }
      ],
      "name": "holdersMap",
      "outputs": [
        {
          "internalType": "bool",
          "name": "",
          "type": "bool"
        }
      ],
      "payable": false,
      "stateMutability": "view",
      "type": "function"
    },
    {
      "constant": false,
      "inputs": [
        {
          "internalType": "address",
          "name": "spender",
          "type": "address"
        },
        {
          "internalType": "uint256",
          "name": "addedValue",
          "type": "uint256"
        }
      ],
      "name": "increaseAllowance",
      "outputs": [
        {
          "internalType": "bool",
          "name": "",
          "type": "bool"
        }
      ],
      "payable": false,
      "stateMutability": "nonpayable",
      "type": "function"
    },
    {
      "constant": true,
      "inputs": [
        {
          "internalType": "address",
          "name": "account",
          "type": "address"
        }
      ],
      "name": "isMinter",
      "outputs": [
        {
          "internalType": "bool",
          "name": "",
          "type": "bool"
        }
      ],
      "payable": false,
      "stateMutability": "view",
      "type": "function"
    },
    {
      "constant": true,
      "inputs": [],
      "name": "mintingDisabled",
      "outputs": [
        {
          "internalType": "bool",
          "name": "",
          "type": "bool"
        }
      ],
      "payable": false,
      "stateMutability": "view",
      "type": "function"
    },
    {
      "constant": false,
      "inputs": [],
      "name": "renounceMinter",
      "outputs": [],
      "payable": false,
      "stateMutability": "nonpayable",
      "type": "function"
    },
    {
      "constant": true,
      "inputs": [],
      "name": "totalSupply",
      "outputs": [
        {
          "internalType": "uint256",
          "name": "",
          "type": "uint256"
        }
      ],
      "payable": false,
      "stateMutability": "view",
      "type": "function"
    },
    {
      "constant": false,
      "inputs": [],
      "name": "disableMinting",
      "outputs": [],
      "payable": false,
      "stateMutability": "nonpayable",
      "type": "function"
    },
    {
      "constant": false,
      "inputs": [
        {
          "internalType": "address",
          "name": "to",
          "type": "address"
        },
        {
          "internalType": "uint256",
          "name": "value",
          "type": "uint256"
        }
      ],
      "name": "mint",
      "outputs": [
        {
          "internalType": "bool",
          "name": "",
          "type": "bool"
        }
      ],
      "payable": false,
      "stateMutability": "nonpayable",
      "type": "function"
    },
    {
      "constant": false,
      "inputs": [
        {
          "internalType": "address",
          "name": "to",
          "type": "address"
        },
        {
          "internalType": "uint256",
          "name": "value",
          "type": "uint256"
        }
      ],
      "name": "transfer",
      "outputs": [
        {
          "internalType": "bool",
          "name": "",
          "type": "bool"
        }
      ],
      "payable": false,
      "stateMutability": "nonpayable",
      "type": "function"
    },
    {
      "constant": false,
      "inputs": [
        {
          "internalType": "address",
          "name": "spender",
          "type": "address"
        },
        {
          "internalType": "uint256",
          "name": "value",
          "type": "uint256"
        }
      ],
      "name": "approve",
      "outputs": [
        {
          "internalType": "bool",
          "name": "",
          "type": "bool"
        }
      ],
      "payable": false,
      "stateMutability": "nonpayable",
      "type": "function"
    },
    {
      "constant": false,
      "inputs": [
        {
          "internalType": "address",
          "name": "from",
          "type": "address"
        },
        {
          "internalType": "address",
          "name": "to",
          "type": "address"
        },
        {
          "internalType": "uint256",
          "name": "value",
          "type": "uint256"
        }
      ],
      "name": "transferFrom",
      "outputs": [
        {
          "internalType": "bool",
          "name": "",
          "type": "bool"
        }
      ],
      "payable": false,
      "stateMutability": "nonpayable",
      "type": "function"
    },
    {
      "constant": true,
      "inputs": [
        {
          "internalType": "address",
          "name": "account",
          "type": "address"
        },
        {
          "internalType": "uint256",
          "name": "startBlock",
          "type": "uint256"
        },
        {
          "internalType": "uint256",
          "name": "endBlock",
          "type": "uint256"
        }
      ],
      "name": "balanceBlocksIn",
      "outputs": [
        {
          "internalType": "uint256",
          "name": "",
          "type": "uint256"
        }
      ],
      "payable": false,
      "stateMutability": "view",
      "type": "function"
    },
    {
      "constant": true,
      "inputs": [
        {
          "internalType": "address",
          "name": "account",
          "type": "address"
        }
      ],
      "name": "balanceUpdatesCount",
      "outputs": [
        {
          "internalType": "uint256",
          "name": "",
          "type": "uint256"
        }
      ],
      "payable": false,
      "stateMutability": "view",
      "type": "function"
    },
    {
      "constant": true,
      "inputs": [],
      "name": "holdersCount",
      "outputs": [
        {
          "internalType": "uint256",
          "name": "",
          "type": "uint256"
        }
      ],
      "payable": false,
      "stateMutability": "view",
      "type": "function"
    },
    {
      "constant": true,
      "inputs": [
        {
          "internalType": "uint256",
          "name": "low",
          "type": "uint256"
        },
        {
          "internalType": "uint256",
          "name": "up",
          "type": "uint256"
        },
        {
          "internalType": "bool",
          "name": "posOnly",
          "type": "bool"
        }
      ],
      "name": "holdersByIndices",
      "outputs": [
        {
          "internalType": "address[]",
          "name": "",
          "type": "address[]"
        }
      ],
      "payable": false,
      "stateMutability": "view",
      "type": "function"
    }
  ],
  "bytecode": "0x608060405262000018336001600160e01b036200001e16565b6200019a565b620000398160036200007060201b6200181c1790919060201c565b6040516001600160a01b038216907f6ae172837ea30b801fbfcdd4108aa1d5bf8ff775444fd70256b44e6bf3dfc3f690600090a250565b6200008582826001600160e01b036200011716565b15620000f257604080517f08c379a000000000000000000000000000000000000000000000000000000000815260206004820152601f60248201527f526f6c65733a206163636f756e7420616c72656164792068617320726f6c6500604482015290519081900360640190fd5b6001600160a01b0316600090815260209190915260409020805460ff19166001179055565b60006001600160a01b0382166200017a576040517f08c379a000000000000000000000000000000000000000000000000000000000815260040180806020018281038252602281526020018062001d2d6022913960400191505060405180910390fd5b506001600160a01b03166000908152602091909152604090205460ff1690565b611b8380620001aa6000396000f3fe608060405234801561001057600080fd5b506004361061011d5760003560e01c8063095ea7b3146101225780630e5cb57c14610162578063133a49001461018857806318160ddd146101c657806321afb5ee146101ce57806323b872dd146101d65780632a11ced01461020c578063395093511461024557806340c10f19146102715780636b4ed21b1461029d57806370a08231146102a557806378c27d7e146102cb5780637e5cd5c1146102f7578063983b2d56146103015780639865027514610327578063a457c2d71461032f578063a52079ea1461035b578063a9059cbb1461038d578063aa271e1a146103b9578063b46801c2146103df578063cb99045714610405578063cbf1304d14610480578063dd62ed3e146104ac575b600080fd5b61014e6004803603604081101561013857600080fd5b506001600160a01b0381351690602001356104da565b604080519115158252519081900360200190f35b61014e6004803603602081101561017857600080fd5b50356001600160a01b031661053e565b6101b46004803603604081101561019e57600080fd5b506001600160a01b038135169060200135610553565b60408051918252519081900360200190f35b6101b4610581565b61014e610587565b61014e600480360360608110156101ec57600080fd5b506001600160a01b03813581169160208101359091169060400135610590565b6102296004803603602081101561022257600080fd5b5035610636565b604080516001600160a01b039092168252519081900360200190f35b61014e6004803603604081101561025b57600080fd5b506001600160a01b03813516906020013561065d565b61014e6004803603604081101561028757600080fd5b506001600160a01b0381351690602001356106a7565b6101b46107c6565b6101b4600480360360208110156102bb57600080fd5b50356001600160a01b03166107cc565b6101b4600480360360408110156102e157600080fd5b506001600160a01b0381351690602001356107e7565b6102ff610800565b005b6102ff6004803603602081101561031757600080fd5b50356001600160a01b031661087c565b6102ff6108cc565b61014e6004803603604081101561034557600080fd5b506001600160a01b0381351690602001356108d7565b6101b46004803603606081101561037157600080fd5b506001600160a01b038135169060208101359060400135610913565b61014e600480360360408110156103a357600080fd5b506001600160a01b038135169060200135610ea7565b61014e600480360360208110156103cf57600080fd5b50356001600160a01b0316610ece565b6101b4600480360360208110156103f557600080fd5b50356001600160a01b0316610ee1565b6104306004803603606081101561041b57600080fd5b50803590602081013590604001351515610efc565b60408051602080825283518183015283519192839290830191858101910280838360005b8381101561046c578181015183820152602001610454565b505050509050019250505060405180910390f35b6101b46004803603604081101561049657600080fd5b506001600160a01b03813516906020013561107d565b6101b4600480360360408110156104c257600080fd5b506001600160a01b0381358116916020013516611096565b60008115806104f057506104ee3384611096565b155b61052b5760405162461bcd60e51b81526004018080602001828103825260328152602001806119c16032913960400191505060405180910390fd5b61053583836110c1565b90505b92915050565b60066020526000908152604090205460ff1681565b6009602052816000526040600020818154811061056c57fe5b90600052602060002001600091509150505481565b60025490565b60045460ff1681565b60008061059e8585856110ce565b9050801561062c576105af85611120565b6105b884611120565b6001600160a01b03841660009081526006602052604090205460ff1661062c576001600160a01b0384166000818152600660205260408120805460ff191660019081179091556005805491820181559091526000805160206119288339815191520180546001600160a01b03191690911790555b90505b9392505050565b6005818154811061064357fe5b6000918252602090912001546001600160a01b0316905081565b3360008181526001602090815260408083206001600160a01b0387168452909152812054909161069e918590610699908663ffffffff61125916565b6112b1565b50600192915050565b60006106b233610ece565b6106ed5760405162461bcd60e51b8152600401808060200182810382526030815260200180611a246030913960400191505060405180910390fd5b60045460ff161561072f5760405162461bcd60e51b815260040180806020018281038252602681526020018061199b6026913960400191505060405180910390fd5b600061073b848461139d565b905080156105355761074c84611120565b6001600160a01b03841660009081526006602052604090205460ff16610535576001600160a01b0384166000818152600660205260408120805460ff191660019081179091556005805491820181559091526000805160206119288339815191520180546001600160a01b03191690911790559392505050565b60055490565b6001600160a01b031660009081526020819052604090205490565b6008602052816000526040600020818154811061056c57fe5b61080933610ece565b6108445760405162461bcd60e51b8152600401808060200182810382526030815260200180611a246030913960400191505060405180910390fd5b6004805460ff191660011790556040517f2d86df2e5d84b22790939c34e14094e95a52090fbf291a1fa69b9b4e837c635390600090a1565b61088533610ece565b6108c05760405162461bcd60e51b8152600401808060200182810382526030815260200180611a246030913960400191505060405180910390fd5b6108c9816113ed565b50565b6108d533611435565b565b3360008181526001602090815260408083206001600160a01b0387168452909152812054909161069e918590610699908663ffffffff61147d16565b60008183106109535760405162461bcd60e51b815260040180806020018281038252603181526020018061196a6031913960400191505060405180910390fd5b6001600160a01b0384166109985760405162461bcd60e51b815260040180806020018281038252602e815260200180611afd602e913960400191505060405180910390fd5b6001600160a01b03841660009081526009602052604090205415806109e957506001600160a01b038416600090815260096020526040812080549091906109db57fe5b906000526020600020015482105b156109f65750600061062f565b60005b6001600160a01b03851660009081526009602052604090205481108015610a4f57506001600160a01b0385166000908152600960205260409020805485919083908110610a4257fe5b9060005260206000200154105b15610a5c576001016109f9565b6001600160a01b0385166000908152600960205260408120548210610ae357610adc610a8e858763ffffffff61147d16565b6001600160a01b03881660009081526007602090815260408083206009909252909120548154600019909101908110610ac357fe5b90600052602060002001546114da90919063ffffffff16565b9050610e9e565b60008215610b23576001600160a01b038716600090815260096020526040902080546000198501908110610b1357fe5b9060005260206000200154610b25565b855b6001600160a01b03881660009081526009602052604081208054929350909185908110610b4e57fe5b9060005260206000200154905085811115610b665750845b610b76818863ffffffff61147d16565b90508015610c0957610c04610bce83600960008c6001600160a01b03166001600160a01b031681526020019081526020016000208781548110610bb557fe5b906000526020600020015461147d90919063ffffffff16565b6001600160a01b038a1660009081526008602052604090208054610bf891859189908110610ac357fe5b9063ffffffff61153316565b610c0c565b60005b60019094019392505b6001600160a01b03881660009081526009602052604090205484108015610c6b57506001600160a01b0388166000908152600960205260409020805487919086908110610c5e57fe5b9060005260206000200154105b15610cc0576001600160a01b03881660009081526008602052604090208054610cb3919086908110610c9957fe5b90600052602060002001548461125990919063ffffffff16565b6001909401939250610c15565b6001600160a01b0388166000908152600960205260409020548410610d77576001600160a01b03881660009081526009602052604090208054610d7091610d6391610d2e91906000198101908110610d1457fe5b90600052602060002001548961147d90919063ffffffff16565b6001600160a01b038b1660009081526007602090815260408083206009909252909120548154600019909101908110610ac357fe5b849063ffffffff61125916565b9250610e9b565b6001600160a01b038816600090815260096020526040902080548791906000198701908110610da257fe5b90600052602060002001541015610e9b57610e98610d63610e2a600960008c6001600160a01b03166001600160a01b031681526020019081526020016000206001880381548110610def57fe5b9060005260206000200154600960008d6001600160a01b03166001600160a01b031681526020019081526020016000208881548110610bb557fe5b6001600160a01b038b1660009081526009602052604090208054610bf891610e74916000198b01908110610e5a57fe5b90600052602060002001548b61147d90919063ffffffff16565b6001600160a01b038d16600090815260086020526040902080548a908110610ac357fe5b92505b50505b95945050505050565b600080610eb4848461159a565b9050801561053557610ec533611120565b61074c84611120565b600061053860038363ffffffff6115a716565b6001600160a01b031660009081526008602052604090205490565b606082841115610f3d5760405162461bcd60e51b81526004018080602001828103825260318152602001806119f36031913960400191505060405180910390fd5b600554600019018311610f505782610f58565b600554600019015b925060008215610faf57845b848111610fa957610f9560058281548110610f7b57fe5b6000918252602090912001546001600160a01b03166107cc565b15610fa1576001909101905b600101610f64565b50610fb7565b506001848403015b606081604051908082528060200260200182016040528015610fe3578160200160208202803883390190505b5090506000865b8681116110715785158061100d575061100960058281548110610f7b57fe5b6000105b15611069576005818154811061101f57fe5b600091825260209091200154835160018401936001600160a01b03909216918591811061104857fe5b60200260200101906001600160a01b031690816001600160a01b0316815250505b600101610fea565b50909695505050505050565b6007602052816000526040600020818154811061056c57fe5b6001600160a01b03918216600090815260016020908152604080832093909416825291909152205490565b600061069e3384846112b1565b60006110db84848461160e565b6001600160a01b038416600090815260016020908152604080832033808552925290912054611116918691610699908663ffffffff61147d16565b5060019392505050565b6001600160a01b038116600090815260096020908152604080832054600790925290912061114d836107cc565b815460018101835560009283526020909220909101558015611201576001600160a01b0382166000908152600860209081526040808320600990925290912080546111e6916111be9160001986019081106111a457fe5b90600052602060002001544361147d90919063ffffffff16565b6001600160a01b038516600090815260076020526040902080546000198601908110610ac357fe5b8154600181018355600092835260209092209091015561122c565b6001600160a01b03821660009081526008602090815260408220805460018101825590835290822001555b506001600160a01b0316600090815260096020908152604082208054600181018255908352912043910155565b600082820183811015610535576040805162461bcd60e51b815260206004820152601b60248201527a536166654d6174683a206164646974696f6e206f766572666c6f7760281b604482015290519081900360640190fd5b6001600160a01b0383166112f65760405162461bcd60e51b8152600401808060200182810382526024815260200180611b2b6024913960400191505060405180910390fd5b6001600160a01b03821661133b5760405162461bcd60e51b81526004018080602001828103825260228152602001806119486022913960400191505060405180910390fd5b6001600160a01b03808416600081815260016020908152604080832094871680845294825291829020859055815185815291517f8c5be1e5ebec7d5bd14f71427d1e84f3dd0314c0f7b2291e5b200ac8c7c3b9259281900390910190a3505050565b60006113a833610ece565b6113e35760405162461bcd60e51b8152600401808060200182810382526030815260200180611a246030913960400191505060405180910390fd5b61069e838361173e565b6113fe60038263ffffffff61181c16565b6040516001600160a01b038216907f6ae172837ea30b801fbfcdd4108aa1d5bf8ff775444fd70256b44e6bf3dfc3f690600090a250565b61144660038263ffffffff61189d16565b6040516001600160a01b038216907fe94479a9f7e1952cc78f2d6baab678adc1b772d936c6583def489e524cb6669290600090a250565b6000828211156114d4576040805162461bcd60e51b815260206004820152601e60248201527f536166654d6174683a207375627472616374696f6e206f766572666c6f770000604482015290519081900360640190fd5b50900390565b6000826114e957506000610538565b828202828482816114f657fe5b04146105355760405162461bcd60e51b8152600401808060200182810382526021815260200180611a756021913960400191505060405180910390fd5b6000808211611586576040805162461bcd60e51b815260206004820152601a602482015279536166654d6174683a206469766973696f6e206279207a65726f60301b604482015290519081900360640190fd5b600082848161159157fe5b04949350505050565b600061069e33848461160e565b60006001600160a01b0382166115ee5760405162461bcd60e51b8152600401808060200182810382526022815260200180611a966022913960400191505060405180910390fd5b506001600160a01b03166000908152602091909152604090205460ff1690565b6001600160a01b0383166116535760405162461bcd60e51b8152600401808060200182810382526025815260200180611ad86025913960400191505060405180910390fd5b6001600160a01b0382166116985760405162461bcd60e51b81526004018080602001828103825260238152602001806119056023913960400191505060405180910390fd5b6001600160a01b0383166000908152602081905260409020546116c1908263ffffffff61147d16565b6001600160a01b0380851660009081526020819052604080822093909355908416815220546116f6908263ffffffff61125916565b6001600160a01b03808416600081815260208181526040918290209490945580518581529051919392871692600080516020611ab883398151915292918290030190a3505050565b6001600160a01b038216611799576040805162461bcd60e51b815260206004820152601f60248201527f45524332303a206d696e7420746f20746865207a65726f206164647265737300604482015290519081900360640190fd5b6002546117ac908263ffffffff61125916565b6002556001600160a01b0382166000908152602081905260409020546117d8908263ffffffff61125916565b6001600160a01b038316600081815260208181526040808320949094558351858152935192939192600080516020611ab88339815191529281900390910190a35050565b61182682826115a7565b15611878576040805162461bcd60e51b815260206004820152601f60248201527f526f6c65733a206163636f756e7420616c72656164792068617320726f6c6500604482015290519081900360640190fd5b6001600160a01b0316600090815260209190915260409020805460ff19166001179055565b6118a782826115a7565b6118e25760405162461bcd60e51b8152600401808060200182810382526021815260200180611a546021913960400191505060405180910390fd5b6001600160a01b0316600090815260209190915260409020805460ff1916905556fe45524332303a207472616e7366657220746f20746865207a65726f2061646472657373036b6384b5eca791c62761152d0c79bb0604c104a5fb6f4eb0703f3154bb3db045524332303a20617070726f766520746f20746865207a65726f2061646472657373426f756e647320706172616d6574657273206d69736d61746368205b526576656e7565546f6b656e2e736f6c3a3137335d4d696e74696e672064697361626c6564205b526576656e7565546f6b656e2e736f6c3a36305d56616c7565206f7220616c6c6f77616e6365206e6f6e2d7a65726f205b526576656e7565546f6b656e2e736f6c3a3132315d426f756e647320706172616d6574657273206d69736d61746368205b526576656e7565546f6b656e2e736f6c3a3235395d4d696e746572526f6c653a2063616c6c657220646f6573206e6f74206861766520746865204d696e74657220726f6c65526f6c65733a206163636f756e7420646f6573206e6f74206861766520726f6c65536166654d6174683a206d756c7469706c69636174696f6e206f766572666c6f77526f6c65733a206163636f756e7420697320746865207a65726f2061646472657373ddf252ad1be2c89b69c2b068fc378daa952ba7f163c4a11628f55a4df523b3ef45524332303a207472616e736665722066726f6d20746865207a65726f20616464726573734163636f756e74206973206e756c6c2061646472657373205b526576656e7565546f6b656e2e736f6c3a3137345d45524332303a20617070726f76652066726f6d20746865207a65726f2061646472657373a265627a7a723158209a982cff2fd02519df74b0a9aab7bcb63bd404017f0d28193d0ac9b43601d92064736f6c634300050c0032526f6c65733a206163636f756e7420697320746865207a65726f2061646472657373",
  "source": "/*\n * Hubii Nahmii\n *\n * Compliant with the Hubii Nahmii specification v0.12.\n *\n * Copyright (C) 2017-2018 Hubii AS\n */\n\npragma solidity >=0.4.25 <0.6.0;\n\nimport 'openzeppelin-solidity/contracts/token/ERC20/ERC20Mintable.sol';\nimport 'openzeppelin-solidity/contracts/math/SafeMath.sol';\n\n/**\n * @title RevenueToken\n * @dev Implementation of the EIP20 standard token (also known as ERC20 token) with added\n * calculation of balance blocks at every transfer.\n */\ncontract RevenueToken is ERC20Mintable {\n    using SafeMath for uint256;\n\n    bool public mintingDisabled;\n\n    address[] public holders;\n\n    mapping(address => bool) public holdersMap;\n\n    mapping(address => uint256[]) public balances;\n\n    mapping(address => uint256[]) public balanceBlocks;\n\n    mapping(address => uint256[]) public balanceBlockNumbers;\n\n    event DisableMinting();\n\n    /**\n     * @notice Disable further minting\n     * @dev This operation can not be undone\n     */\n    function disableMinting()\n    public\n    onlyMinter\n    {\n        mintingDisabled = true;\n\n        emit DisableMinting();\n    }\n\n    /**\n     * @notice Mint tokens\n     * @param to The address that will receive the minted tokens.\n     * @param value The amount of tokens to mint.\n     * @return A boolean that indicates if the operation was successful.\n     */\n    function mint(address to, uint256 value)\n    public\n    onlyMinter\n    returns (bool)\n    {\n        require(!mintingDisabled, \"Minting disabled [RevenueToken.sol:60]\");\n\n        // Call super's mint, including event emission\n        bool minted = super.mint(to, value);\n\n        if (minted) {\n            // Adjust balance blocks\n            addBalanceBlocks(to);\n\n            // Add to the token holders list\n            if (!holdersMap[to]) {\n                holdersMap[to] = true;\n                holders.push(to);\n            }\n        }\n\n        return minted;\n    }\n\n    /**\n     * @notice Transfer token for a specified address\n     * @param to The address to transfer to.\n     * @param value The amount to be transferred.\n     * @return A boolean that indicates if the operation was successful.\n     */\n    function transfer(address to, uint256 value)\n    public\n    returns (bool)\n    {\n        // Call super's transfer, including event emission\n        bool transferred = super.transfer(to, value);\n\n        if (transferred) {\n            // Adjust balance blocks\n            addBalanceBlocks(msg.sender);\n            addBalanceBlocks(to);\n\n            // Add to the token holders list\n            if (!holdersMap[to]) {\n                holdersMap[to] = true;\n                holders.push(to);\n            }\n        }\n\n        return transferred;\n    }\n\n    /**\n     * @notice Approve the passed address to spend the specified amount of tokens on behalf of msg.sender.\n     * @dev Beware that to change the approve amount you first have to reduce the addresses'\n     * allowance to zero by calling `approve(spender, 0)` if it is not already 0 to mitigate the race\n     * condition described here:\n     * https://github.com/ethereum/EIPs/issues/20#issuecomment-263524729\n     * @param spender The address which will spend the funds.\n     * @param value The amount of tokens to be spent.\n     */\n    function approve(address spender, uint256 value)\n    public\n    returns (bool)\n    {\n        // Prevent the update of non-zero allowance\n        require(\n            0 == value || 0 == allowance(msg.sender, spender),\n            \"Value or allowance non-zero [RevenueToken.sol:121]\"\n        );\n\n        // Call super's approve, including event emission\n        return super.approve(spender, value);\n    }\n\n    /**\n     * @dev Transfer tokens from one address to another\n     * @param from address The address which you want to send tokens from\n     * @param to address The address which you want to transfer to\n     * @param value uint256 the amount of tokens to be transferred\n     * @return A boolean that indicates if the operation was successful.\n     */\n    function transferFrom(address from, address to, uint256 value)\n    public\n    returns (bool)\n    {\n        // Call super's transferFrom, including event emission\n        bool transferred = super.transferFrom(from, to, value);\n\n        if (transferred) {\n            // Adjust balance blocks\n            addBalanceBlocks(from);\n            addBalanceBlocks(to);\n\n            // Add to the token holders list\n            if (!holdersMap[to]) {\n                holdersMap[to] = true;\n                holders.push(to);\n            }\n        }\n\n        return transferred;\n    }\n\n    /**\n     * @notice Calculate the amount of balance blocks, i.e. the area under the curve (AUC) of\n     * balance as function of block number\n     * @dev The AUC is used as weight for the share of revenue that a token holder may claim\n     * @param account The account address for which calculation is done\n     * @param startBlock The start block number considered\n     * @param endBlock The end block number considered\n     * @return The calculated AUC\n     */\n    function balanceBlocksIn(address account, uint256 startBlock, uint256 endBlock)\n    public\n    view\n    returns (uint256)\n    {\n        require(startBlock < endBlock, \"Bounds parameters mismatch [RevenueToken.sol:173]\");\n        require(account != address(0), \"Account is null address [RevenueToken.sol:174]\");\n\n        if (balanceBlockNumbers[account].length == 0 || endBlock < balanceBlockNumbers[account][0])\n            return 0;\n\n        uint256 i = 0;\n        while (i < balanceBlockNumbers[account].length && balanceBlockNumbers[account][i] < startBlock)\n            i++;\n\n        uint256 r;\n        if (i >= balanceBlockNumbers[account].length)\n            r = balances[account][balanceBlockNumbers[account].length - 1].mul(endBlock.sub(startBlock));\n\n        else {\n            uint256 l = (i == 0) ? startBlock : balanceBlockNumbers[account][i - 1];\n\n            uint256 h = balanceBlockNumbers[account][i];\n            if (h > endBlock)\n                h = endBlock;\n\n            h = h.sub(startBlock);\n            r = (h == 0) ? 0 : balanceBlocks[account][i].mul(h).div(balanceBlockNumbers[account][i].sub(l));\n            i++;\n\n            while (i < balanceBlockNumbers[account].length && balanceBlockNumbers[account][i] < endBlock) {\n                r = r.add(balanceBlocks[account][i]);\n                i++;\n            }\n\n            if (i >= balanceBlockNumbers[account].length)\n                r = r.add(\n                    balances[account][balanceBlockNumbers[account].length - 1].mul(\n                        endBlock.sub(balanceBlockNumbers[account][balanceBlockNumbers[account].length - 1])\n                    )\n                );\n\n            else if (balanceBlockNumbers[account][i - 1] < endBlock)\n                r = r.add(\n                    balanceBlocks[account][i].mul(\n                        endBlock.sub(balanceBlockNumbers[account][i - 1])\n                    ).div(\n                        balanceBlockNumbers[account][i].sub(balanceBlockNumbers[account][i - 1])\n                    )\n                );\n        }\n\n        return r;\n    }\n\n    /**\n     * @notice Get the count of balance updates for the given account\n     * @return The count of balance updates\n     */\n    function balanceUpdatesCount(address account)\n    public\n    view\n    returns (uint256)\n    {\n        return balanceBlocks[account].length;\n    }\n\n    /**\n     * @notice Get the count of holders\n     * @return The count of holders\n     */\n    function holdersCount()\n    public\n    view\n    returns (uint256)\n    {\n        return holders.length;\n    }\n\n    /**\n     * @notice Get the subset of holders (optionally with positive balance only) in the given 0 based index range\n     * @param low The lower inclusive index\n     * @param up The upper inclusive index\n     * @param posOnly List only positive balance holders\n     * @return The subset of positive balance registered holders in the given range\n     */\n    function holdersByIndices(uint256 low, uint256 up, bool posOnly)\n    public\n    view\n    returns (address[] memory)\n    {\n        require(low <= up, \"Bounds parameters mismatch [RevenueToken.sol:259]\");\n\n        up = up > holders.length - 1 ? holders.length - 1 : up;\n\n        uint256 length = 0;\n        if (posOnly) {\n            for (uint256 i = low; i <= up; i++)\n                if (0 < balanceOf(holders[i]))\n                    length++;\n        } else\n            length = up - low + 1;\n\n        address[] memory _holders = new address[](length);\n\n        uint256 j = 0;\n        for (uint256 i = low; i <= up; i++)\n            if (!posOnly || 0 < balanceOf(holders[i]))\n                _holders[j++] = holders[i];\n\n        return _holders;\n    }\n\n    function addBalanceBlocks(address account)\n    private\n    {\n        uint256 length = balanceBlockNumbers[account].length;\n        balances[account].push(balanceOf(account));\n        if (0 < length)\n            balanceBlocks[account].push(\n                balances[account][length - 1].mul(\n                    block.number.sub(balanceBlockNumbers[account][length - 1])\n                )\n            );\n        else\n            balanceBlocks[account].push(0);\n        balanceBlockNumbers[account].push(block.number);\n    }\n}",
  "sourcePath": "/opt/buildagent/work/855e104608380c36/contracts/RevenueToken.sol",
  "compiler": {
    "name": "solc",
    "version": "0.5.12+commit.7709ece9.Emscripten.clang"
  },
  "schemaVersion": "2.0.3",
  "updatedAt": "2019-10-22T21:00:29.471Z"
}