{
  "contractName": "SafeMathIntLib",
  "abi": [
    {
      "constant": true,
      "inputs": [
        {
          "internalType": "int256",
          "name": "a",
          "type": "int256"
        }
      ],
      "name": "abs",
      "outputs": [
        {
          "internalType": "int256",
          "name": "",
          "type": "int256"
        }
      ],
      "payable": false,
      "stateMutability": "pure",
      "type": "function"
    },
    {
      "constant": true,
      "inputs": [
        {
          "internalType": "int256",
          "name": "a",
          "type": "int256"
        }
      ],
      "name": "neg",
      "outputs": [
        {
          "internalType": "int256",
          "name": "",
          "type": "int256"
        }
      ],
      "payable": false,
      "stateMutability": "pure",
      "type": "function"
    },
    {
      "constant": true,
      "inputs": [
        {
          "internalType": "uint256",
          "name": "a",
          "type": "uint256"
        }
      ],
      "name": "toNonZeroInt256",
      "outputs": [
        {
          "internalType": "int256",
          "name": "",
          "type": "int256"
        }
      ],
      "payable": false,
      "stateMutability": "pure",
      "type": "function"
    },
    {
      "constant": true,
      "inputs": [
        {
          "internalType": "uint256",
          "name": "a",
          "type": "uint256"
        }
      ],
      "name": "toInt256",
      "outputs": [
        {
          "internalType": "int256",
          "name": "",
          "type": "int256"
        }
      ],
      "payable": false,
      "stateMutability": "pure",
      "type": "function"
    },
    {
      "constant": true,
      "inputs": [
        {
          "internalType": "int256",
          "name": "a",
          "type": "int256"
        }
      ],
      "name": "toUInt256",
      "outputs": [
        {
          "internalType": "uint256",
          "name": "",
          "type": "uint256"
        }
      ],
      "payable": false,
      "stateMutability": "pure",
      "type": "function"
    },
    {
      "constant": true,
      "inputs": [
        {
          "internalType": "int256",
          "name": "a",
          "type": "int256"
        }
      ],
      "name": "isNonZeroPositiveInt256",
      "outputs": [
        {
          "internalType": "bool",
          "name": "",
          "type": "bool"
        }
      ],
      "payable": false,
      "stateMutability": "pure",
      "type": "function"
    },
    {
      "constant": true,
      "inputs": [
        {
          "internalType": "int256",
          "name": "a",
          "type": "int256"
        }
      ],
      "name": "isPositiveInt256",
      "outputs": [
        {
          "internalType": "bool",
          "name": "",
          "type": "bool"
        }
      ],
      "payable": false,
      "stateMutability": "pure",
      "type": "function"
    },
    {
      "constant": true,
      "inputs": [
        {
          "internalType": "int256",
          "name": "a",
          "type": "int256"
        }
      ],
      "name": "isNonZeroNegativeInt256",
      "outputs": [
        {
          "internalType": "bool",
          "name": "",
          "type": "bool"
        }
      ],
      "payable": false,
      "stateMutability": "pure",
      "type": "function"
    },
    {
      "constant": true,
      "inputs": [
        {
          "internalType": "int256",
          "name": "a",
          "type": "int256"
        }
      ],
      "name": "isNegativeInt256",
      "outputs": [
        {
          "internalType": "bool",
          "name": "",
          "type": "bool"
        }
      ],
      "payable": false,
      "stateMutability": "pure",
      "type": "function"
    },
    {
      "constant": true,
      "inputs": [
        {
          "internalType": "int256",
          "name": "a",
          "type": "int256"
        },
        {
          "internalType": "int256",
          "name": "min",
          "type": "int256"
        },
        {
          "internalType": "int256",
          "name": "max",
          "type": "int256"
        }
      ],
      "name": "clamp",
      "outputs": [
        {
          "internalType": "int256",
          "name": "",
          "type": "int256"
        }
      ],
      "payable": false,
      "stateMutability": "pure",
      "type": "function"
    },
    {
      "constant": true,
      "inputs": [
        {
          "internalType": "int256",
          "name": "a",
          "type": "int256"
        },
        {
          "internalType": "int256",
          "name": "min",
          "type": "int256"
        }
      ],
      "name": "clampMin",
      "outputs": [
        {
          "internalType": "int256",
          "name": "",
          "type": "int256"
        }
      ],
      "payable": false,
      "stateMutability": "pure",
      "type": "function"
    },
    {
      "constant": true,
      "inputs": [
        {
          "internalType": "int256",
          "name": "a",
          "type": "int256"
        },
        {
          "internalType": "int256",
          "name": "max",
          "type": "int256"
        }
      ],
      "name": "clampMax",
      "outputs": [
        {
          "internalType": "int256",
          "name": "",
          "type": "int256"
        }
      ],
      "payable": false,
      "stateMutability": "pure",
      "type": "function"
    }
  ],
  "bytecode": "0x6103b8610026600b82828239805160001a60731461001957fe5b30600052607381538281f3fe73000000000000000000000000000000000000000030146080604052600436106100ae5760003560e01c8063148f78c3146100b35780631b5ac4b5146100e257806354a53dc1146100ff578063562e32671461011c5780636b82c6c01461013f5780636b84d93114610170578063755875b21461018d5780637b8d0f0c146101b0578063802d10af146101d957806386903903146101f6578063a2ea1ca614610213578063dfbe873b14610230575b600080fd5b6100d0600480360360208110156100c957600080fd5b503561024d565b60408051918252519081900360200190f35b6100d0600480360360208110156100f857600080fd5b5035610260565b6100d06004803603602081101561011557600080fd5b503561027e565b6100d06004803603604081101561013257600080fd5b508035906020013561028c565b61015c6004803603602081101561015557600080fd5b50356102a4565b604080519115158252519081900360200190f35b61015c6004803603602081101561018657600080fd5b50356102ab565b6100d0600480360360408110156101a357600080fd5b50803590602001356102b2565b6100d0600480360360608110156101c657600080fd5b50803590602081013590604001356102c1565b6100d0600480360360208110156101ef57600080fd5b50356102e9565b61015c6004803603602081101561020c57600080fd5b5035610306565b61015c6004803603602081101561022957600080fd5b503561030c565b6100d06004803603602081101561024657600080fd5b5035610312565b60008082121561025c57600080fd5b5090565b600080821261026f5781610278565b6102788261027e565b92915050565b600061027882600019610324565b600081831261029b578261029d565b815b9392505050565b6000121590565b6000131590565b600081831361029b578261029d565b6000828412156102d257508161029d565b8184136102df57836102e1565b815b949350505050565b600080821180156102fd5750600160ff1b82105b61025c57600080fd5b60001390565b60001290565b6000600160ff1b821061025c57600080fd5b60008260001914158061033b5750600160ff1b8214155b61034457600080fd5b816000191415806103595750600160ff1b8314155b61036257600080fd5b82820282158061037a57508383828161037757fe5b05145b61029d57600080fdfea265627a7a723158201049b0864451610deab1310bd9c4de0c0bd3df803c6c84db6d14448952d2a34b64736f6c634300050c0032",
  "source": "/*\n * Hubii Nahmii\n *\n * Compliant with the Hubii Nahmii specification v0.12.\n *\n * Copyright (C) 2017-2018 Hubii AS based on Open-Zeppelin's SafeMath library\n */\n\npragma solidity >=0.4.25 <0.6.0;\n\n/**\n * @title     SafeMathIntLib\n * @dev       Math operations with safety checks that throw on error\n */\nlibrary SafeMathIntLib {\n    int256 constant INT256_MIN = int256((uint256(1) << 255));\n    int256 constant INT256_MAX = int256(~((uint256(1) << 255)));\n\n    //\n    //Functions below accept positive and negative integers and result must not overflow.\n    //\n    function div(int256 a, int256 b)\n    internal\n    pure\n    returns (int256)\n    {\n        require(a != INT256_MIN || b != - 1);\n        return a / b;\n    }\n\n    function mul(int256 a, int256 b)\n    internal\n    pure\n    returns (int256)\n    {\n        require(a != - 1 || b != INT256_MIN);\n        // overflow\n        require(b != - 1 || a != INT256_MIN);\n        // overflow\n        int256 c = a * b;\n        require((b == 0) || (c / b == a));\n        return c;\n    }\n\n    function sub(int256 a, int256 b)\n    internal\n    pure\n    returns (int256)\n    {\n        require((b >= 0 && a - b <= a) || (b < 0 && a - b > a));\n        return a - b;\n    }\n\n    function add(int256 a, int256 b)\n    internal\n    pure\n    returns (int256)\n    {\n        int256 c = a + b;\n        require((b >= 0 && c >= a) || (b < 0 && c < a));\n        return c;\n    }\n\n    //\n    //Functions below only accept positive integers and result must be greater or equal to zero too.\n    //\n    function div_nn(int256 a, int256 b)\n    internal\n    pure\n    returns (int256)\n    {\n        require(a >= 0 && b > 0);\n        return a / b;\n    }\n\n    function mul_nn(int256 a, int256 b)\n    internal\n    pure\n    returns (int256)\n    {\n        require(a >= 0 && b >= 0);\n        int256 c = a * b;\n        require(a == 0 || c / a == b);\n        require(c >= 0);\n        return c;\n    }\n\n    function sub_nn(int256 a, int256 b)\n    internal\n    pure\n    returns (int256)\n    {\n        require(a >= 0 && b >= 0 && b <= a);\n        return a - b;\n    }\n\n    function add_nn(int256 a, int256 b)\n    internal\n    pure\n    returns (int256)\n    {\n        require(a >= 0 && b >= 0);\n        int256 c = a + b;\n        require(c >= a);\n        return c;\n    }\n\n    //\n    //Conversion and validation functions.\n    //\n    function abs(int256 a)\n    public\n    pure\n    returns (int256)\n    {\n        return a < 0 ? neg(a) : a;\n    }\n\n    function neg(int256 a)\n    public\n    pure\n    returns (int256)\n    {\n        return mul(a, - 1);\n    }\n\n    function toNonZeroInt256(uint256 a)\n    public\n    pure\n    returns (int256)\n    {\n        require(a > 0 && a < (uint256(1) << 255));\n        return int256(a);\n    }\n\n    function toInt256(uint256 a)\n    public\n    pure\n    returns (int256)\n    {\n        require(a >= 0 && a < (uint256(1) << 255));\n        return int256(a);\n    }\n\n    function toUInt256(int256 a)\n    public\n    pure\n    returns (uint256)\n    {\n        require(a >= 0);\n        return uint256(a);\n    }\n\n    function isNonZeroPositiveInt256(int256 a)\n    public\n    pure\n    returns (bool)\n    {\n        return (a > 0);\n    }\n\n    function isPositiveInt256(int256 a)\n    public\n    pure\n    returns (bool)\n    {\n        return (a >= 0);\n    }\n\n    function isNonZeroNegativeInt256(int256 a)\n    public\n    pure\n    returns (bool)\n    {\n        return (a < 0);\n    }\n\n    function isNegativeInt256(int256 a)\n    public\n    pure\n    returns (bool)\n    {\n        return (a <= 0);\n    }\n\n    //\n    //Clamping functions.\n    //\n    function clamp(int256 a, int256 min, int256 max)\n    public\n    pure\n    returns (int256)\n    {\n        if (a < min)\n            return min;\n        return (a > max) ? max : a;\n    }\n\n    function clampMin(int256 a, int256 min)\n    public\n    pure\n    returns (int256)\n    {\n        return (a < min) ? min : a;\n    }\n\n    function clampMax(int256 a, int256 max)\n    public\n    pure\n    returns (int256)\n    {\n        return (a > max) ? max : a;\n    }\n}\n",
  "sourcePath": "/opt/buildagent/work/855e104608380c36/contracts/SafeMathIntLib.sol",
  "compiler": {
    "name": "solc",
    "version": "0.5.12+commit.7709ece9.Emscripten.clang"
  },
  "schemaVersion": "2.0.3",
  "updatedAt": "2019-10-23T00:21:41.210Z"
}