{
  "contractName": "SecurityBond",
  "abi": [
    {
      "constant": true,
      "inputs": [
        {
          "name": "",
          "type": "address"
        }
      ],
      "name": "nonceByWallet",
      "outputs": [
        {
          "name": "",
          "type": "uint256"
        }
      ],
      "payable": false,
      "stateMutability": "view",
      "type": "function"
    },
    {
      "constant": true,
      "inputs": [
        {
          "name": "service",
          "type": "address"
        }
      ],
      "name": "isRegisteredActiveService",
      "outputs": [
        {
          "name": "",
          "type": "bool"
        }
      ],
      "payable": false,
      "stateMutability": "view",
      "type": "function"
    },
    {
      "constant": true,
      "inputs": [],
      "name": "DEPRIVE_ACTION",
      "outputs": [
        {
          "name": "",
          "type": "string"
        }
      ],
      "payable": false,
      "stateMutability": "view",
      "type": "function"
    },
    {
      "constant": false,
      "inputs": [],
      "name": "triggerSelfDestruction",
      "outputs": [],
      "payable": false,
      "stateMutability": "nonpayable",
      "type": "function"
    },
    {
      "constant": false,
      "inputs": [
        {
          "name": "service",
          "type": "address"
        },
        {
          "name": "action",
          "type": "string"
        }
      ],
      "name": "enableServiceAction",
      "outputs": [],
      "payable": false,
      "stateMutability": "nonpayable",
      "type": "function"
    },
    {
      "constant": true,
      "inputs": [
        {
          "name": "service",
          "type": "address"
        }
      ],
      "name": "isRegisteredService",
      "outputs": [
        {
          "name": "",
          "type": "bool"
        }
      ],
      "payable": false,
      "stateMutability": "view",
      "type": "function"
    },
    {
      "constant": true,
      "inputs": [],
      "name": "selfDestructionDisabled",
      "outputs": [
        {
          "name": "",
          "type": "bool"
        }
      ],
      "payable": false,
      "stateMutability": "view",
      "type": "function"
    },
    {
      "constant": false,
      "inputs": [
        {
          "name": "service",
          "type": "address"
        },
        {
          "name": "action",
          "type": "string"
        }
      ],
      "name": "disableServiceAction",
      "outputs": [],
      "payable": false,
      "stateMutability": "nonpayable",
      "type": "function"
    },
    {
      "constant": true,
      "inputs": [],
      "name": "serviceActivationTimeout",
      "outputs": [
        {
          "name": "",
          "type": "uint256"
        }
      ],
      "payable": false,
      "stateMutability": "view",
      "type": "function"
    },
    {
      "constant": true,
      "inputs": [],
      "name": "destructor",
      "outputs": [
        {
          "name": "",
          "type": "address"
        }
      ],
      "payable": false,
      "stateMutability": "view",
      "type": "function"
    },
    {
      "constant": false,
      "inputs": [
        {
          "components": [
            {
              "name": "ct",
              "type": "address"
            },
            {
              "name": "id",
              "type": "uint256"
            }
          ],
          "name": "",
          "type": "tuple[]"
        }
      ],
      "name": "closeAccrualPeriod",
      "outputs": [],
      "payable": false,
      "stateMutability": "nonpayable",
      "type": "function"
    },
    {
      "constant": false,
      "inputs": [
        {
          "name": "service",
          "type": "address"
        }
      ],
      "name": "deregisterService",
      "outputs": [],
      "payable": false,
      "stateMutability": "nonpayable",
      "type": "function"
    },
    {
      "constant": true,
      "inputs": [],
      "name": "operator",
      "outputs": [
        {
          "name": "",
          "type": "address"
        }
      ],
      "payable": false,
      "stateMutability": "view",
      "type": "function"
    },
    {
      "constant": true,
      "inputs": [
        {
          "name": "",
          "type": "address"
        }
      ],
      "name": "fractionalRewardByWallet",
      "outputs": [
        {
          "name": "fraction",
          "type": "uint256"
        },
        {
          "name": "nonce",
          "type": "uint256"
        },
        {
          "name": "unlockTime",
          "type": "uint256"
        }
      ],
      "payable": false,
      "stateMutability": "view",
      "type": "function"
    },
    {
      "constant": true,
      "inputs": [
        {
          "name": "service",
          "type": "address"
        },
        {
          "name": "action",
          "type": "string"
        }
      ],
      "name": "isEnabledServiceAction",
      "outputs": [
        {
          "name": "",
          "type": "bool"
        }
      ],
      "payable": false,
      "stateMutability": "view",
      "type": "function"
    },
    {
      "constant": false,
      "inputs": [
        {
          "name": "newConfiguration",
          "type": "address"
        }
      ],
      "name": "setConfiguration",
      "outputs": [],
      "payable": false,
      "stateMutability": "nonpayable",
      "type": "function"
    },
    {
      "constant": true,
      "inputs": [],
      "name": "configuration",
      "outputs": [
        {
          "name": "",
          "type": "address"
        }
      ],
      "payable": false,
      "stateMutability": "view",
      "type": "function"
    },
    {
      "constant": false,
      "inputs": [],
      "name": "disableSelfDestruction",
      "outputs": [],
      "payable": false,
      "stateMutability": "nonpayable",
      "type": "function"
    },
    {
      "constant": false,
      "inputs": [
        {
          "name": "timeoutInSeconds",
          "type": "uint256"
        }
      ],
      "name": "setServiceActivationTimeout",
      "outputs": [],
      "payable": false,
      "stateMutability": "nonpayable",
      "type": "function"
    },
    {
      "constant": true,
      "inputs": [
        {
          "name": "",
          "type": "address"
        },
        {
          "name": "",
          "type": "address"
        },
        {
          "name": "",
          "type": "uint256"
        }
      ],
      "name": "claimNonceByWalletCurrency",
      "outputs": [
        {
          "name": "",
          "type": "uint256"
        }
      ],
      "payable": false,
      "stateMutability": "view",
      "type": "function"
    },
    {
      "constant": false,
      "inputs": [
        {
          "name": "service",
          "type": "address"
        }
      ],
      "name": "registerServiceDeferred",
      "outputs": [],
      "payable": false,
      "stateMutability": "nonpayable",
      "type": "function"
    },
    {
      "constant": true,
      "inputs": [],
      "name": "REWARD_ACTION",
      "outputs": [
        {
          "name": "",
          "type": "string"
        }
      ],
      "payable": false,
      "stateMutability": "view",
      "type": "function"
    },
    {
      "constant": false,
      "inputs": [
        {
          "name": "newDeployer",
          "type": "address"
        }
      ],
      "name": "setDeployer",
      "outputs": [],
      "payable": false,
      "stateMutability": "nonpayable",
      "type": "function"
    },
    {
      "constant": true,
      "inputs": [],
      "name": "transferControllerManager",
      "outputs": [
        {
          "name": "",
          "type": "address"
        }
      ],
      "payable": false,
      "stateMutability": "view",
      "type": "function"
    },
    {
      "constant": false,
      "inputs": [
        {
          "name": "newOperator",
          "type": "address"
        }
      ],
      "name": "setOperator",
      "outputs": [],
      "payable": false,
      "stateMutability": "nonpayable",
      "type": "function"
    },
    {
      "constant": true,
      "inputs": [
        {
          "name": "",
          "type": "address"
        },
        {
          "name": "",
          "type": "address"
        },
        {
          "name": "",
          "type": "uint256"
        }
      ],
      "name": "absoluteRewardByWallet",
      "outputs": [
        {
          "name": "amount",
          "type": "int256"
        },
        {
          "name": "nonce",
          "type": "uint256"
        },
        {
          "name": "unlockTime",
          "type": "uint256"
        }
      ],
      "payable": false,
      "stateMutability": "view",
      "type": "function"
    },
    {
      "constant": false,
      "inputs": [
        {
          "name": "newTransferControllerManager",
          "type": "address"
        }
      ],
      "name": "setTransferControllerManager",
      "outputs": [],
      "payable": false,
      "stateMutability": "nonpayable",
      "type": "function"
    },
    {
      "constant": true,
      "inputs": [],
      "name": "deployer",
      "outputs": [
        {
          "name": "",
          "type": "address"
        }
      ],
      "payable": false,
      "stateMutability": "view",
      "type": "function"
    },
    {
      "constant": false,
      "inputs": [
        {
          "name": "service",
          "type": "address"
        }
      ],
      "name": "registerService",
      "outputs": [],
      "payable": false,
      "stateMutability": "nonpayable",
      "type": "function"
    },
    {
      "inputs": [
        {
          "name": "deployer",
          "type": "address"
        }
      ],
      "payable": false,
      "stateMutability": "nonpayable",
      "type": "constructor"
    },
    {
      "payable": true,
      "stateMutability": "payable",
      "type": "fallback"
    },
    {
      "anonymous": false,
      "inputs": [
        {
          "indexed": false,
          "name": "from",
          "type": "address"
        },
        {
          "indexed": false,
          "name": "amount",
          "type": "int256"
        },
        {
          "indexed": false,
          "name": "currencyCt",
          "type": "address"
        },
        {
          "indexed": false,
          "name": "currencyId",
          "type": "uint256"
        }
      ],
      "name": "ReceiveEvent",
      "type": "event"
    },
    {
      "anonymous": false,
      "inputs": [
        {
          "indexed": false,
          "name": "wallet",
          "type": "address"
        },
        {
          "indexed": false,
          "name": "fraction",
          "type": "uint256"
        },
        {
          "indexed": false,
          "name": "unlockTimeoutInSeconds",
          "type": "uint256"
        }
      ],
      "name": "RewardFractionalEvent",
      "type": "event"
    },
    {
      "anonymous": false,
      "inputs": [
        {
          "indexed": false,
          "name": "wallet",
          "type": "address"
        },
        {
          "indexed": false,
          "name": "amount",
          "type": "int256"
        },
        {
          "indexed": false,
          "name": "currencyCt",
          "type": "address"
        },
        {
          "indexed": false,
          "name": "currencyId",
          "type": "uint256"
        },
        {
          "indexed": false,
          "name": "unlockTimeoutInSeconds",
          "type": "uint256"
        }
      ],
      "name": "RewardAbsoluteEvent",
      "type": "event"
    },
    {
      "anonymous": false,
      "inputs": [
        {
          "indexed": false,
          "name": "wallet",
          "type": "address"
        }
      ],
      "name": "DepriveFractionalEvent",
      "type": "event"
    },
    {
      "anonymous": false,
      "inputs": [
        {
          "indexed": false,
          "name": "wallet",
          "type": "address"
        },
        {
          "indexed": false,
          "name": "currencyCt",
          "type": "address"
        },
        {
          "indexed": false,
          "name": "currencyId",
          "type": "uint256"
        }
      ],
      "name": "DepriveAbsoluteEvent",
      "type": "event"
    },
    {
      "anonymous": false,
      "inputs": [
        {
          "indexed": false,
          "name": "from",
          "type": "address"
        },
        {
          "indexed": false,
          "name": "beneficiary",
          "type": "address"
        },
        {
          "indexed": false,
          "name": "balanceType",
          "type": "string"
        },
        {
          "indexed": false,
          "name": "amount",
          "type": "int256"
        },
        {
          "indexed": false,
          "name": "currencyCt",
          "type": "address"
        },
        {
          "indexed": false,
          "name": "currencyId",
          "type": "uint256"
        },
        {
          "indexed": false,
          "name": "standard",
          "type": "string"
        }
      ],
      "name": "ClaimAndTransferToBeneficiaryEvent",
      "type": "event"
    },
    {
      "anonymous": false,
      "inputs": [
        {
          "indexed": false,
          "name": "from",
          "type": "address"
        },
        {
          "indexed": false,
          "name": "amount",
          "type": "int256"
        },
        {
          "indexed": false,
          "name": "currencyCt",
          "type": "address"
        },
        {
          "indexed": false,
          "name": "currencyId",
          "type": "uint256"
        }
      ],
      "name": "ClaimAndStageEvent",
      "type": "event"
    },
    {
      "anonymous": false,
      "inputs": [
        {
          "indexed": false,
          "name": "from",
          "type": "address"
        },
        {
          "indexed": false,
          "name": "amount",
          "type": "int256"
        },
        {
          "indexed": false,
          "name": "currencyCt",
          "type": "address"
        },
        {
          "indexed": false,
          "name": "currencyId",
          "type": "uint256"
        },
        {
          "indexed": false,
          "name": "standard",
          "type": "string"
        }
      ],
      "name": "WithdrawEvent",
      "type": "event"
    },
    {
      "anonymous": false,
      "inputs": [
        {
          "indexed": false,
          "name": "oldTransferControllerManager",
          "type": "address"
        },
        {
          "indexed": false,
          "name": "newTransferControllerManager",
          "type": "address"
        }
      ],
      "name": "SetTransferControllerManagerEvent",
      "type": "event"
    },
    {
      "anonymous": false,
      "inputs": [
        {
          "indexed": false,
          "name": "timeoutInSeconds",
          "type": "uint256"
        }
      ],
      "name": "ServiceActivationTimeoutEvent",
      "type": "event"
    },
    {
      "anonymous": false,
      "inputs": [
        {
          "indexed": false,
          "name": "service",
          "type": "address"
        }
      ],
      "name": "RegisterServiceEvent",
      "type": "event"
    },
    {
      "anonymous": false,
      "inputs": [
        {
          "indexed": false,
          "name": "service",
          "type": "address"
        },
        {
          "indexed": false,
          "name": "timeout",
          "type": "uint256"
        }
      ],
      "name": "RegisterServiceDeferredEvent",
      "type": "event"
    },
    {
      "anonymous": false,
      "inputs": [
        {
          "indexed": false,
          "name": "service",
          "type": "address"
        }
      ],
      "name": "DeregisterServiceEvent",
      "type": "event"
    },
    {
      "anonymous": false,
      "inputs": [
        {
          "indexed": false,
          "name": "service",
          "type": "address"
        },
        {
          "indexed": false,
          "name": "action",
          "type": "string"
        }
      ],
      "name": "EnableServiceActionEvent",
      "type": "event"
    },
    {
      "anonymous": false,
      "inputs": [
        {
          "indexed": false,
          "name": "service",
          "type": "address"
        },
        {
          "indexed": false,
          "name": "action",
          "type": "string"
        }
      ],
      "name": "DisableServiceActionEvent",
      "type": "event"
    },
    {
      "anonymous": false,
      "inputs": [],
      "name": "CloseAccrualPeriodEvent",
      "type": "event"
    },
    {
      "anonymous": false,
      "inputs": [
        {
          "indexed": false,
          "name": "oldConfiguration",
          "type": "address"
        },
        {
          "indexed": false,
          "name": "newConfiguration",
          "type": "address"
        }
      ],
      "name": "SetConfigurationEvent",
      "type": "event"
    },
    {
      "anonymous": false,
      "inputs": [
        {
          "indexed": false,
          "name": "oldDeployer",
          "type": "address"
        },
        {
          "indexed": false,
          "name": "newDeployer",
          "type": "address"
        }
      ],
      "name": "SetDeployerEvent",
      "type": "event"
    },
    {
      "anonymous": false,
      "inputs": [
        {
          "indexed": false,
          "name": "oldOperator",
          "type": "address"
        },
        {
          "indexed": false,
          "name": "newOperator",
          "type": "address"
        }
      ],
      "name": "SetOperatorEvent",
      "type": "event"
    },
    {
      "anonymous": false,
      "inputs": [
        {
          "indexed": false,
          "name": "wallet",
          "type": "address"
        }
      ],
      "name": "SelfDestructionDisabledEvent",
      "type": "event"
    },
    {
      "anonymous": false,
      "inputs": [
        {
          "indexed": false,
          "name": "wallet",
          "type": "address"
        }
      ],
      "name": "TriggerSelfDestructionEvent",
      "type": "event"
    },
    {
      "constant": false,
      "inputs": [
        {
          "name": "wallet",
          "type": "address"
        },
        {
          "name": "",
          "type": "string"
        }
      ],
      "name": "receiveEthersTo",
      "outputs": [],
      "payable": true,
      "stateMutability": "payable",
      "type": "function"
    },
    {
      "constant": false,
      "inputs": [
        {
          "name": "",
          "type": "string"
        },
        {
          "name": "amount",
          "type": "int256"
        },
        {
          "name": "currencyCt",
          "type": "address"
        },
        {
          "name": "currencyId",
          "type": "uint256"
        },
        {
          "name": "standard",
          "type": "string"
        }
      ],
      "name": "receiveTokens",
      "outputs": [],
      "payable": false,
      "stateMutability": "nonpayable",
      "type": "function"
    },
    {
      "constant": false,
      "inputs": [
        {
          "name": "wallet",
          "type": "address"
        },
        {
          "name": "",
          "type": "string"
        },
        {
          "name": "amount",
          "type": "int256"
        },
        {
          "name": "currencyCt",
          "type": "address"
        },
        {
          "name": "currencyId",
          "type": "uint256"
        },
        {
          "name": "standard",
          "type": "string"
        }
      ],
      "name": "receiveTokensTo",
      "outputs": [],
      "payable": false,
      "stateMutability": "nonpayable",
      "type": "function"
    },
    {
      "constant": true,
      "inputs": [],
      "name": "depositsCount",
      "outputs": [
        {
          "name": "",
          "type": "uint256"
        }
      ],
      "payable": false,
      "stateMutability": "view",
      "type": "function"
    },
    {
      "constant": true,
      "inputs": [
        {
          "name": "index",
          "type": "uint256"
        }
      ],
      "name": "deposit",
      "outputs": [
        {
          "name": "amount",
          "type": "int256"
        },
        {
          "name": "blockNumber",
          "type": "uint256"
        },
        {
          "name": "currencyCt",
          "type": "address"
        },
        {
          "name": "currencyId",
          "type": "uint256"
        }
      ],
      "payable": false,
      "stateMutability": "view",
      "type": "function"
    },
    {
      "constant": true,
      "inputs": [
        {
          "name": "currencyCt",
          "type": "address"
        },
        {
          "name": "currencyId",
          "type": "uint256"
        }
      ],
      "name": "depositedBalance",
      "outputs": [
        {
          "name": "",
          "type": "int256"
        }
      ],
      "payable": false,
      "stateMutability": "view",
      "type": "function"
    },
    {
      "constant": true,
      "inputs": [
        {
          "name": "currencyCt",
          "type": "address"
        },
        {
          "name": "currencyId",
          "type": "uint256"
        },
        {
          "name": "fraction",
          "type": "uint256"
        }
      ],
      "name": "depositedFractionalBalance",
      "outputs": [
        {
          "name": "",
          "type": "int256"
        }
      ],
      "payable": false,
      "stateMutability": "view",
      "type": "function"
    },
    {
      "constant": true,
      "inputs": [
        {
          "name": "wallet",
          "type": "address"
        },
        {
          "name": "currencyCt",
          "type": "address"
        },
        {
          "name": "currencyId",
          "type": "uint256"
        }
      ],
      "name": "stagedBalance",
      "outputs": [
        {
          "name": "",
          "type": "int256"
        }
      ],
      "payable": false,
      "stateMutability": "view",
      "type": "function"
    },
    {
      "constant": true,
      "inputs": [],
      "name": "inUseCurrenciesCount",
      "outputs": [
        {
          "name": "",
          "type": "uint256"
        }
      ],
      "payable": false,
      "stateMutability": "view",
      "type": "function"
    },
    {
      "constant": true,
      "inputs": [
        {
          "name": "low",
          "type": "uint256"
        },
        {
          "name": "up",
          "type": "uint256"
        }
      ],
      "name": "inUseCurrenciesByIndices",
      "outputs": [
        {
          "components": [
            {
              "name": "ct",
              "type": "address"
            },
            {
              "name": "id",
              "type": "uint256"
            }
          ],
          "name": "",
          "type": "tuple[]"
        }
      ],
      "payable": false,
      "stateMutability": "view",
      "type": "function"
    },
    {
      "constant": false,
      "inputs": [
        {
          "name": "wallet",
          "type": "address"
        },
        {
          "name": "fraction",
          "type": "uint256"
        },
        {
          "name": "unlockTimeoutInSeconds",
          "type": "uint256"
        }
      ],
      "name": "rewardFractional",
      "outputs": [],
      "payable": false,
      "stateMutability": "nonpayable",
      "type": "function"
    },
    {
      "constant": false,
      "inputs": [
        {
          "name": "wallet",
          "type": "address"
        },
        {
          "name": "amount",
          "type": "int256"
        },
        {
          "name": "currencyCt",
          "type": "address"
        },
        {
          "name": "currencyId",
          "type": "uint256"
        },
        {
          "name": "unlockTimeoutInSeconds",
          "type": "uint256"
        }
      ],
      "name": "rewardAbsolute",
      "outputs": [],
      "payable": false,
      "stateMutability": "nonpayable",
      "type": "function"
    },
    {
      "constant": false,
      "inputs": [
        {
          "name": "wallet",
          "type": "address"
        }
      ],
      "name": "depriveFractional",
      "outputs": [],
      "payable": false,
      "stateMutability": "nonpayable",
      "type": "function"
    },
    {
      "constant": false,
      "inputs": [
        {
          "name": "wallet",
          "type": "address"
        },
        {
          "name": "currencyCt",
          "type": "address"
        },
        {
          "name": "currencyId",
          "type": "uint256"
        }
      ],
      "name": "depriveAbsolute",
      "outputs": [],
      "payable": false,
      "stateMutability": "nonpayable",
      "type": "function"
    },
    {
      "constant": false,
      "inputs": [
        {
          "name": "beneficiary",
          "type": "address"
        },
        {
          "name": "balanceType",
          "type": "string"
        },
        {
          "name": "currencyCt",
          "type": "address"
        },
        {
          "name": "currencyId",
          "type": "uint256"
        },
        {
          "name": "standard",
          "type": "string"
        }
      ],
      "name": "claimAndTransferToBeneficiary",
      "outputs": [],
      "payable": false,
      "stateMutability": "nonpayable",
      "type": "function"
    },
    {
      "constant": false,
      "inputs": [
        {
          "name": "currencyCt",
          "type": "address"
        },
        {
          "name": "currencyId",
          "type": "uint256"
        }
      ],
      "name": "claimAndStage",
      "outputs": [],
      "payable": false,
      "stateMutability": "nonpayable",
      "type": "function"
    },
    {
      "constant": false,
      "inputs": [
        {
          "name": "amount",
          "type": "int256"
        },
        {
          "name": "currencyCt",
          "type": "address"
        },
        {
          "name": "currencyId",
          "type": "uint256"
        },
        {
          "name": "standard",
          "type": "string"
        }
      ],
      "name": "withdraw",
      "outputs": [],
      "payable": false,
      "stateMutability": "nonpayable",
      "type": "function"
    }
  ],
  "bytecode": "0x60806040523480156200001157600080fd5b5060405160208062003c8b8339810180604052620000339190810190620000b6565b8080600160a060020a03811615156200004b57600080fd5b600160a060020a0381163014156200006257600080fd5b506000805461010060a860020a031916610100600160a060020a039390931692830217905560018054600160a060020a031916909117905550620000eb565b6000620000af8251620000df565b9392505050565b600060208284031215620000c957600080fd5b6000620000d78484620000a1565b949350505050565b600160a060020a031690565b613b9080620000fb6000396000f3006080604052600436106102165763ffffffff60e060020a6000350416630bf0b71081146102325780630f200f9b1461026857806312e94dda1461028857806317ba3f90146102a857806326789c75146102d55780632738a112146102f75780632b5672e31461030c5780632b91e0a91461032c5780632f013a001461034c5780633b58c501146103615780633b7bea6c14610381578063429986b7146103965780634476d23b146103b65780634506e935146103d8578063477fbc39146103ed5780634e791e0d1461040d57806350b08c021461042d578063570ca7351461044d578063574c508c1461046257806359ed7c66146104825780635df1b0a3146104b15780635f289651146104d1578063627f09c3146104f15780636c70bee91461051157806370327ea114610533578063760b8292146105485780637bf791b4146105685780637e15dd5c14610588578063832f7832146105a8578063834cd3d6146105c85780638e8cef12146105e85780638fc64ab614610608578063949e2ae31461061d57806394c7cfa91461063d5780639621473514610652578063a72148eb14610672578063a7654a1f14610692578063af30b312146106a5578063b3ab15fb146106ba578063b6b55f25146106da578063c45a9a7f1461070a578063cdf07a0c1461072a578063d0427b3c14610757578063d3b41bd214610777578063d5f3948814610797578063fdd9ec7d146107ac575b6102303360206040519081016040528060008152506107cc565b005b34801561023e57600080fd5b5061025261024d366004613199565b6108c7565b60405161025f9190613a00565b60405180910390f35b34801561027457600080fd5b50610230610283366004613541565b6108d9565b34801561029457600080fd5b506102526102a33660046131b7565b610bc8565b3480156102b457600080fd5b506102c86102c3366004613199565b610bfb565b60405161025f91906139c9565b3480156102e157600080fd5b506102ea610c33565b60405161025f9190613a38565b34801561030357600080fd5b50610230610c57565b34801561031857600080fd5b50610230610327366004613279565b610cbd565b34801561033857600080fd5b506102c8610347366004613199565b610dec565b34801561035857600080fd5b506102c8610e0a565b34801561036d57600080fd5b5061023061037c366004613279565b610e13565b34801561038d57600080fd5b50610252610ef5565b3480156103a257600080fd5b506102306103b136600461337f565b610efb565b3480156103c257600080fd5b506103cb610f73565b60405161025f9190613724565b3480156103e457600080fd5b50610252610f88565b3480156103f957600080fd5b506102306104083660046133e1565b610f99565b34801561041957600080fd5b506102306104283660046131b7565b610fc5565b34801561043957600080fd5b50610230610448366004613199565b611083565b34801561045957600080fd5b506103cb611145565b34801561046e57600080fd5b5061023061047d366004613199565b611154565b34801561048e57600080fd5b506104a261049d366004613199565b6111fc565b60405161025f93929190613a2a565b3480156104bd57600080fd5b506102c86104cc366004613279565b61121d565b3480156104dd57600080fd5b506102306104ec3660046132ca565b61126e565b3480156104fd57600080fd5b5061023061050c3660046134e7565b611464565b34801561051d57600080fd5b50610526611503565b60405161025f91906139d7565b34801561053f57600080fd5b50610230611512565b34801561055457600080fd5b506102306105633660046133af565b611575565b34801561057457600080fd5b5061025261058336600461337f565b611766565b34801561059457600080fd5b506102306105a3366004613604565b61177a565b3480156105b457600080fd5b506102306105c3366004613204565b6117cd565b3480156105d457600080fd5b506102526105e33660046131b7565b6118e5565b3480156105f457600080fd5b50610230610603366004613199565b611908565b34801561061457600080fd5b50610252611986565b34801561062957600080fd5b50610230610638366004613451565b611992565b34801561064957600080fd5b506102ea611bce565b34801561065e57600080fd5b5061023061066d366004613199565b611bf1565b34801561067e57600080fd5b5061025261068d3660046133af565b611caf565b6102306106a0366004613279565b6107cc565b3480156106b157600080fd5b50610526611dea565b3480156106c657600080fd5b506102306106d5366004613199565b611df9565b3480156106e657600080fd5b506106fa6106f5366004613604565b611ea3565b60405161025f9493929190613a1c565b34801561071657600080fd5b506102306107253660046135b9565b611ec8565b34801561073657600080fd5b5061074a610745366004613622565b611ee6565b60405161025f91906139b8565b34801561076357600080fd5b506104a26107723660046131b7565b611efa565b34801561078357600080fd5b506102306107923660046134e7565b611f2c565b3480156107a357600080fd5b506103cb611fc4565b3480156107b857600080fd5b506102306107c7366004613199565b611fd8565b60405160e060020a63802d10af02815260009073__SafeMathIntLib________________________9063802d10af90610809903490600401613a00565b60206040518083038186803b15801561082157600080fd5b505af4158015610835573d6000803e3d6000fd5b505050506040513d601f19601f820116820180604052506108599190810190613523565b905061086f60068260008063ffffffff61205116565b610883600c8260008063ffffffff61210216565b610896601060008063ffffffff6121cf16565b600080516020613b3783398151915283826000806040516108ba94939291906137ea565b60405180910390a1505050565b60166020526000908152604090205481565b60405160e160020a6351750e5302815260009073__SafeMathIntLib________________________9063a2ea1ca690610916908890600401613a00565b60206040518083038186803b15801561092e57600080fd5b505af4158015610942573d6000803e3d6000fd5b505050506040513d601f19601f820116820180604052506109669190810190613415565b151561097157600080fd5b33600090815260156020526040902073__SafeMathIntLib________________________9063755875b29087906109af90888863ffffffff61226d16565b6040518363ffffffff1660e060020a0281526004016109cf929190613a0e565b60206040518083038186803b1580156109e757600080fd5b505af41580156109fb573d6000803e3d6000fd5b505050506040513d601f19601f82011682018060405250610a1f9190810190613523565b336000908152601560205260409020909550610a439086868663ffffffff61229516565b600160a060020a038416158015610a58575082155b15610a9057604051339086156108fc029087906000818181858888f19350505050158015610a8a573d6000803e3d6000fd5b50610b82565b610a9a84836122c7565b905080600160a060020a031681600160a060020a0316637228941f6040518163ffffffff1660e060020a028152600401602060405180830381600087803b158015610ae457600080fd5b505af1158015610af8573d6000803e3d6000fd5b505050506040513d601f19601f82011682018060405250610b1c9190810190613433565b6040805160e060020a9283900463ffffffff8116909302815230600482015233602482015260448101899052600160a060020a038816606482015260848101879052905160a48083019260009291908290030181865af4925050501515610b8257600080fd5b7f8e0adde15ffb742f47e7888277a26cea416253fcb63186dc4949fe493e92b77c3386868686604051610bb995949392919061385d565b60405180910390a15050505050565b600160a060020a0383166000908152601560205260408120610bf190848463ffffffff61226d16565b90505b9392505050565b6000610c0682610dec565b8015610c2d5750600160a060020a0382166000908152600360205260409020600101544210155b92915050565b604080518082019091526007815260c860020a666465707269766502602082015281565b33610c60610f73565b600160a060020a031614610c7357600080fd5b60005460ff1615610c8357600080fd5b7f787a5d936e74f4b564b9153575886059829c78cd9927b1be5e0d976b317ef73633604051610cb29190613724565b60405180910390a133ff5b6000610cc761234f565b1515610cd257600080fd5b82600160a060020a0381161515610ce857600080fd5b600160a060020a038116301415610cfe57600080fd5b600160a060020a03841660009081526003602052604090205460ff161515610d2557600080fd5b610d2e83612365565b600160a060020a038516600090815260036020908152604080832084845260020190915290205490925060ff1615610d6557600080fd5b600160a060020a0384166000908152600360208181526040808420868552600281018352818520805460ff191660019081179091558484529301805493840181558452922001839055517fec1b982d69bfc1a6fd8becf191d9a633486c822d3bdedd52303ca81fa635750190610dde90869086906138fb565b60405180910390a150505050565b600160a060020a031660009081526003602052604090205460ff1690565b60005460ff1681565b6000610e1d61234f565b1515610e2857600080fd5b82600160a060020a0381161515610e3e57600080fd5b600160a060020a038116301415610e5457600080fd5b610e5d83612365565b600160a060020a038516600090815260036020908152604080832084845260020190915290205490925060ff161515610e9557600080fd5b600160a060020a038416600090815260036020908152604080832085845260020190915290819020805460ff19169055517f92f4af6130f47c92f3899e06611c8c6ef191fb81207ad2675d134af619d2fe7d90610dde90869086906138fb565b60045481565b6000610f0833848461242f565b9050610f1d600682858563ffffffff61229516565b336000908152601560205260409020610f3e9082858563ffffffff61205116565b7f16783e9c99d49fc79a67fa2800716b302b8b9d539aae7cc4f31d758f6afe1f6f338285856040516108ba9493929190613828565b6000546101009004600160a060020a03165b90565b6000610f94600c612646565b905090565b6040517f189e8b5b22089b707bd455f7287f001b48cc48a2d698ccfed993f34eff92dfdb90600090a150565b604080518082019091526007815260c860020a6664657072697665026020820152610ff0338261121d565b1515610ffb57600080fd5b600160a060020a03808516600081815260136020908152604080832094881683529381528382208683528082528483208381559383526016825284832080546001908101918290558501558683529052600290910155517fbe279051278beb74b39439a6607e4c7b251434c6c56d816204362071d0316e3190610dde9086908690869061374d565b61108b61234f565b151561109657600080fd5b80600160a060020a03811615156110ac57600080fd5b600160a060020a0381163014156110c257600080fd5b600160a060020a03821660009081526003602052604090205460ff1615156110e957600080fd5b600160a060020a03821660009081526003602052604090819020805460ff19169055517f777645c5437dfbf962f57a281ead25f3d513f2f8e938685bbfc1738e81c9880e90611139908490613724565b60405180910390a15050565b600154600160a060020a031681565b604080518082019091526007815260c860020a666465707269766502602082015261117f338261121d565b151561118a57600080fd5b600160a060020a03821660009081526012602081815260408084208481556016835281852080546001908101918290559490935292830191909155600290910191909155517f5de82f16f836921738d3d8905f3dd390385d976108f5789e979d512b6587eba390611139908490613724565b60126020526000908152604090208054600182015460029092015490919083565b60008061122983612365565b905061123484610bfb565b80156112665750600160a060020a038416600090815260036020908152604080832084845260020190915290205460ff165b949350505050565b60405160e160020a6351750e5302815260009073__SafeMathIntLib________________________9063a2ea1ca6906112ab908890600401613a00565b60206040518083038186803b1580156112c357600080fd5b505af41580156112d7573d6000803e3d6000fd5b505050506040513d601f19601f820116820180604052506112fb9190810190613415565b151561130657600080fd5b61131084836122c7565b905080600160a060020a031681600160a060020a031663ad502f576040518163ffffffff1660e060020a028152600401602060405180830381600087803b15801561135a57600080fd5b505af115801561136e573d6000803e3d6000fd5b505050506040513d601f19601f820116820180604052506113929190810190613433565b6040805160e060020a9283900463ffffffff8116909302815233600482015230602482015260448101899052600160a060020a038816606482015260848101879052905160a48083019260009291908290030181865af49250505015156113f857600080fd5b61140b600686868663ffffffff61205116565b61141e600c86868663ffffffff61210216565b6114306010858563ffffffff6121cf16565b600080516020613b37833981519152878686866040516114539493929190613828565b60405180910390a150505050505050565b600061146e61234f565b151561147957600080fd5b81600160a060020a038116151561148f57600080fd5b6002548390600160a060020a0390811690821681146114fc5760028054600160a060020a03878116600160a060020a0319831617909255604051911694507f634f61bf00e14adedce330c80c2823e16e184f189ebe853e1ddecc4a268477ff90610bb990869088906139e5565b5050505050565b600254600160a060020a031681565b3361151b610f73565b600160a060020a03161461152e57600080fd5b6000805460ff191660011790556040517fd5a2a04a775c741c2ca0dc46ea7ce4835190e1aaf1ca018def0e82568ec336169061156b903390613724565b60405180910390a1565b82600160a060020a038116151561158b57600080fd5b604080518082019091526006815260d260020a651c995dd85c990260208201526115b5338261121d565b15156115c057600080fd5b8373__SafeMathUintLib_______________________63700f1a77909173__ConstantsLib__________________________62a123336040518163ffffffff1660e060020a02815260040160206040518083038186803b15801561162357600080fd5b505af4158015611637573d6000803e3d6000fd5b505050506040513d601f19601f8201168201806040525061165b9190810190613523565b6040518363ffffffff1660e060020a02815260040161167b929190613a0e565b60206040518083038186803b15801561169357600080fd5b505af41580156116a7573d6000803e3d6000fd5b505050506040513d601f19601f820116820180604052506116cb9190810190613523565b600160a060020a03861660009081526012602081815260408084209485556016825290922080546001908101918290559190925290910155611713428463ffffffff61264a16565b600160a060020a0386166000908152601260205260409081902060020191909155517fa95044891f433f92149fc3220f83b1b5738ec70653e8941daab2d28eb5caa86f90610bb99087908790879061399d565b6000610bf46006848463ffffffff61226d16565b61178261234f565b151561178d57600080fd5b60048190556040517f4f1d324a1cbffc352fb64f1d73d95e4b200d92f99ef39bf2d7f5b41f946909d6906117c2908390613a00565b60405180910390a150565b84600160a060020a03811615156117e357600080fd5b604080518082019091526006815260d260020a651c995dd85c9902602082015261180d338261121d565b151561181857600080fd5b600160a060020a038088166000818152601360209081526040808320948a1683529381528382208883528082528483208b8155938352601682529382208054600190810191829055928990529390520155611879428463ffffffff61264a16565b600160a060020a038089166000908152601360209081526040808320938a168352928152828220888352905281902060020191909155517ff03f792cc259b34ff6311e1e7cb37a37484181d96e25e23ab8700d7ddabdf4f49061145390899089908990899089906138af565b601460209081526000938452604080852082529284528284209052825290205481565b61191061234f565b151561191b57600080fd5b80600160a060020a038116151561193157600080fd5b600160a060020a03811630141561194757600080fd5b61195382600454612659565b7f7f3a8349917003ed377f6e9ae1608b92edd893903f8983bd274b1f8373dd3b1182600454604051611139929190613982565b6000610f946010612646565b6000806119a033868661242f565b91506119b5600683878763ffffffff61229516565b600160a060020a0385161580156119ca575083155b15611a395760405160e060020a63a7654a1f028152600160a060020a0388169063a7654a1f908490611a029033908b906004016138fb565b6000604051808303818588803b158015611a1b57600080fd5b505af1158015611a2f573d6000803e3d6000fd5b5050505050611b93565b611a4385846122c7565b905080600160a060020a031681600160a060020a0316631711a8946040518163ffffffff1660e060020a028152600401602060405180830381600087803b158015611a8d57600080fd5b505af1158015611aa1573d6000803e3d6000fd5b505050506040513d601f19601f82011682018060405250611ac59190810190613433565b6040805160e060020a9283900463ffffffff81169093028152600160a060020a038b81166004830152602482018790528916604482015260648101889052905160848083019260009291908290030181865af4925050501515611b2757600080fd5b60405160e060020a635f289651028152600160a060020a03881690635f28965190611b609033908a9087908b908b908b9060040161391b565b600060405180830381600087803b158015611b7a57600080fd5b505af1158015611b8e573d6000803e3d6000fd5b505050505b7fe07b9fbee2e9cf80d456230eb13b3b1912f568ba37aaa3cecbf96e53a358e6cc338888858989896040516114539796959493929190613775565b604080518082019091526006815260d260020a651c995dd85c9902602082015281565b6000611bfb61234f565b1515611c0657600080fd5b81600160a060020a0381161515611c1c57600080fd5b600160a060020a038116301415611c3257600080fd5b600054600160a060020a038481166101009092041614611caa5760008054600160a060020a0385811661010090810261010060a860020a0319841617909355604051929091041692507f977e5fa58e458501775e0008d275006294c5249e3c08d1d0e3a9f3acad14f6e4906108ba9084908690613732565b505050565b6000610bf173__ConstantsLib__________________________62a123336040518163ffffffff1660e060020a02815260040160206040518083038186803b158015611cfa57600080fd5b505af4158015611d0e573d6000803e3d6000fd5b505050506040513d601f19601f82011682018060405250611d329190810190613523565b60405160e060020a63dfbe873b028152611dde9073__SafeMathIntLib________________________9063dfbe873b90611d70908890600401613a00565b60206040518083038186803b158015611d8857600080fd5b505af4158015611d9c573d6000803e3d6000fd5b505050506040513d601f19601f82011682018060405250611dc09190810190613523565b611dd26006898963ffffffff61226d16565b9063ffffffff6126ab16565b9063ffffffff61271416565b600554600160a060020a031681565b6000611e03612749565b1515611e0e57600080fd5b81600160a060020a0381161515611e2457600080fd5b600160a060020a038116301415611e3a57600080fd5b600154600160a060020a03848116911614611caa5760018054600160a060020a03858116600160a060020a0319831617909255604051911692507f9f611b789425d0d5b90b920f1b2852907dd865c80074a30b1629aaa041d1812c906108ba9084908690613732565b6000808080611eb9600c8663ffffffff61275a16565b93509350935093509193509193565b6114fc3360206040519081016040528060008152508686868661126e565b6060610bf46010848463ffffffff61281416565b601360209081526000938452604080852082529284528284209052825290208054600182015460029092015490919083565b6000611f3661234f565b1515611f4157600080fd5b81600160a060020a0381161515611f5757600080fd5b6005548390600160a060020a0390811690821681146114fc5760058054600160a060020a03878116600160a060020a0319831617909255604051911694507fee9ef6d53e152e48b1ebc1c23943fb2b96e847465ed779a0e2121a388ea83d2f90610bb990869088906139e5565b6000546101009004600160a060020a031681565b611fe061234f565b1515611feb57600080fd5b80600160a060020a038116151561200157600080fd5b600160a060020a03811630141561201757600080fd5b612022826000612659565b7fb619d545cb511bd5f02907a1eac4f4cb8dace7b1846852fb0bf5e553937481c1826040516111399190613724565b600160a060020a038216600090815260208581526040808320848452909152902054612083908463ffffffff61298416565b600160a060020a0383166000818152602087815260408083208684528083528184208690559383526001808a0183528184208785528352818420825180840190935294835294815243818301908152845480870186559484529190922091516002909302909101918255519101556120fc8483836129b6565b50505050565b61210a612f92565b5060408051608081018252938452436020808601918252600160a060020a0394851686840181815260608801868152895460018181018c5560008c81528681208c516004948502909101908155885181840155855160028083018054928f16600160a060020a031993841617905586516003938401559783529d830188528982209a8252998752978820805480830182559089529590972099519402909801928355925193820193909355905191810180549290941691909516179091559051910155565b600160a060020a038216600090815260018401602090815260408083208484529091529020541515611caa57604080518082018252600160a060020a039384168082526020808301858152875460018082018a5560008a8152848120965160029093029096018054600160a060020a031916929099169190911788559051968101969096558654918352949095018452818120928152919092522055565b600160a060020a03919091166000908152602092835260408082209282529190925290205490565b600160a060020a038216600090815260208581526040808320848452909152902054612083908463ffffffff612a5416565b60055460405160e460020a630c8a483b028152600091600160a060020a03169063c8a483b0906122fd90869086906004016138fb565b602060405180830381600087803b15801561231757600080fd5b505af115801561232b573d6000803e3d6000fd5b505050506040513d601f19601f82011682018060405250610bf49190810190613505565b6000546101009004600160a060020a0316331490565b6000816040516020018082805190602001908083835b6020831061239a5780518252601f19909201916020918201910161237b565b6001836020036101000a0380198251168184511680821785525050505050509050019150506040516020818303038152906040526040518082805190602001908083835b602083106123fd5780518252601f1990920191602091820191016123de565b5181516020939093036101000a6000190180199091169216919091179052604051920182900390912095945050505050565b600160a060020a03808416600090815260126020908152604080832060019081015460138452828520958816855294835281842086855290925280832090910154905160e060020a63a682d5ad02815291928392839273__SafeMathUintLib_______________________9263a682d5ad926124ae9290600401613a0e565b60206040518083038186803b1580156124c657600080fd5b505af41580156124da573d6000803e3d6000fd5b505050506040513d601f19601f820116820180604052506124fe9190810190613523565b600160a060020a038088166000908152601460209081526040808320938a16835292815282822088835290522054909250821161253a57600080fd5b61255f612548878787612a90565b612553888888612bfd565b9063ffffffff61298416565b73__SafeMathIntLib________________________9063755875b29061258d6006898963ffffffff61226d16565b6040518363ffffffff1660e060020a0281526004016125ad929190613a0e565b60206040518083038186803b1580156125c557600080fd5b505af41580156125d9573d6000803e3d6000fd5b505050506040513d601f19601f820116820180604052506125fd9190810190613523565b90506000811361260c57600080fd5b600160a060020a03808716600090815260146020908152604080832093891683529281528282208783529052208290559150509392505050565b5490565b600082820183811015610bf457fe5b600160a060020a03821660009081526003602052604090205460ff1615156126a757600160a060020a0382166000908152600360205260409020805460ff1916600190811782554283019101555b5050565b600080836000191415806126c3575060ff60020a8314155b15156126ce57600080fd5b826000191415806126e3575060ff60020a8414155b15156126ee57600080fd5b50828202821580612709575083838281151561270657fe5b05145b1515610bf457600080fd5b600060ff60020a8314158061272b57508160001914155b151561273657600080fd5b818381151561274157fe5b059392505050565b600154600160a060020a0316331490565b8154600090819081908190851061277057600080fd5b855486908690811061277e57fe5b906000526020600020906004020160000154935085600001858154811015156127a357fe5b906000526020600020906004020160010154925085600001858154811015156127c857fe5b60009182526020909120600260049092020101548654600160a060020a0390911692508690869081106127f757fe5b906000526020600020906004020160030154905092959194509250565b82546060908190600090811061282957600080fd5b8385111561283657600080fd5b855460405160e060020a63700f1a7702815273__SafeMathUintLib_______________________9163700f1a779161287991889160001990910190600401613a0e565b60206040518083038186803b15801561289157600080fd5b505af41580156128a5573d6000803e3d6000fd5b505050506040513d601f19601f820116820180604052506128c99190810190613523565b935084840360010160405190808252806020026020018201604052801561290a57816020015b6128f7612fc4565b8152602001906001900390816128ef5790505b5091508490505b83811161297b57855486908290811061292657fe5b6000918252602091829020604080518082019091526002909202018054600160a060020a0316825260010154918101919091528251839087840390811061296957fe5b60209081029091010152600101612911565b50949350505050565b60008282018183128015906129995750838112155b8061270957506000831280156127095750838112610bf457600080fd5b600160a060020a0382166000908152602084815260408083208484529091529020541580156129f457506129f460028401838363ffffffff612da016565b15612a1257612a0d60028401838363ffffffff612dcf16565b611caa565b612a2660028401838363ffffffff612da016565b1515611caa57612a4060028401838363ffffffff6121cf16565b611caa60048401838363ffffffff6121cf16565b6000808212158015612a6857508282840313155b80612a7f5750600082128015612a7f575082828403135b1515612a8a57600080fd5b50900390565b600160a060020a03808416600081815260136020908152604080832094871680845294825280832086845282528083206001015493835260148252808320948352938152838220858352905291822054108015612b1d5750600160a060020a0380851660009081526013602090815260408083209387168352928152828220858352905220600201544210155b15612bf557600160a060020a03808516600090815260136020908152604080832093871683529281528282208583529052205473__SafeMathIntLib________________________9063755875b290612b7e6006878763ffffffff61226d16565b6040518363ffffffff1660e060020a028152600401612b9e929190613a0e565b60206040518083038186803b158015612bb657600080fd5b505af4158015612bca573d6000803e3d6000fd5b505050506040513d601f19601f82011682018060405250612bee9190810190613523565b9050610bf4565b506000610bf4565b600160a060020a038084166000908152601260209081526040808320600101546014835281842094871684529382528083208584529091528120549091118015612c625750600160a060020a0384166000908152601260205260409020600201544210155b15612bf557612bee73__ConstantsLib__________________________62a123336040518163ffffffff1660e060020a02815260040160206040518083038186803b158015612cb057600080fd5b505af4158015612cc4573d6000803e3d6000fd5b505050506040513d601f19601f82011682018060405250612ce89190810190613523565b600160a060020a0386166000908152601260205260409081902054905160e060020a63dfbe873b028152611dde9173__SafeMathIntLib________________________9163dfbe873b91612d3e91600401613a00565b60206040518083038186803b158015612d5657600080fd5b505af4158015612d6a573d6000803e3d6000fd5b505050506040513d601f19601f82011682018060405250612d8e9190810190613523565b611dd26006888863ffffffff61226d16565b600160a060020a0382166000908152600184016020908152604080832084845290915290205415159392505050565b600160a060020a03821660009081526001840160209081526040808320848452909152812054908111156120fc576120fc8460018303815460009081908310612e1757600080fd5b8354849084908110612e2557fe5b60009182526020909120600290910201548454600160a060020a039091169250849084908110612e5157fe5b6000918252602090912060016002909202010154845490915060001901831015612f5357835484906000198101908110612e8757fe5b90600052602060002090600202018460000184815481101515612ea657fe5b60009182526020822083546002909202018054600160a060020a031916600160a060020a039092169190911781556001928301549083015585548583019287019190879087908110612ef457fe5b60009182526020808320600290920290910154600160a060020a0316835282019290925260400181208654909190879087908110612f2e57fe5b9060005260206000209060020201600101548152602001908152602001600020819055505b8354612f63856000198301612fdb565b50600160a060020a03909116600090815260019093016020908152604080852092855291905282209190915550565b60806040519081016040528060008152602001600081526020016000600160a060020a03168152602001600081525090565b604080518082019091526000808252602082015290565b815481835581811115611caa57600083815260209020611caa91610f859160029182028101918502015b8082111561302a578054600160a060020a031916815560006001820155600201613005565b5090565b6000610bf48235613ac0565b6000601f8201831361304b57600080fd5b813561305e61305982613a6f565b613a49565b9150818183526020840193506020810190508385604084028201111561308357600080fd5b60005b838110156130b157816130998882613152565b84525060209092019160409190910190600101613086565b5050505092915050565b6000610bf48251613acc565b6000610bf48251613ad1565b6000610bf48235613ade565b6000610bf48251613ade565b6000610bf48235610f85565b6000610bf48251610f85565b6000601f8201831361311457600080fd5b813561312261305982613a8f565b9150808252602083016020830185838301111561313e57600080fd5b613149838284613af4565b50505092915050565b60006040828403121561316457600080fd5b61316e6040613a49565b9050600061317c848461302e565b825250602061318d848483016130eb565b60208301525092915050565b6000602082840312156131ab57600080fd5b6000611266848461302e565b6000806000606084860312156131cc57600080fd5b60006131d8868661302e565b93505060206131e98682870161302e565b92505060406131fa868287016130eb565b9150509250925092565b600080600080600060a0868803121561321c57600080fd5b6000613228888861302e565b9550506020613239888289016130eb565b945050604061324a8882890161302e565b935050606061325b888289016130eb565b925050608061326c888289016130eb565b9150509295509295909350565b6000806040838503121561328c57600080fd5b6000613298858561302e565b92505060208301356001604060020a038111156132b457600080fd5b6132c085828601613103565b9150509250929050565b60008060008060008060c087890312156132e357600080fd5b60006132ef898961302e565b96505060208701356001604060020a0381111561330b57600080fd5b61331789828a01613103565b955050604061332889828a016130eb565b945050606061333989828a0161302e565b935050608061334a89828a016130eb565b92505060a08701356001604060020a0381111561336657600080fd5b61337289828a01613103565b9150509295509295509295565b6000806040838503121561339257600080fd5b600061339e858561302e565b92505060206132c0858286016130eb565b6000806000606084860312156133c457600080fd5b60006133d0868661302e565b93505060206131e9868287016130eb565b6000602082840312156133f357600080fd5b81356001604060020a0381111561340957600080fd5b6112668482850161303a565b60006020828403121561342757600080fd5b600061126684846130bb565b60006020828403121561344557600080fd5b600061126684846130c7565b600080600080600060a0868803121561346957600080fd5b600061347588886130d3565b95505060208601356001604060020a0381111561349157600080fd5b61349d88828901613103565b94505060406134ae8882890161302e565b93505060606134bf888289016130eb565b92505060808601356001604060020a038111156134db57600080fd5b61326c88828901613103565b6000602082840312156134f957600080fd5b600061126684846130d3565b60006020828403121561351757600080fd5b600061126684846130df565b60006020828403121561353557600080fd5b600061126684846130f7565b6000806000806080858703121561355757600080fd5b600061356387876130eb565b94505060206135748782880161302e565b9350506040613585878288016130eb565b92505060608501356001604060020a038111156135a157600080fd5b6135ad87828801613103565b91505092959194509250565b600080600080600060a086880312156135d157600080fd5b85356001604060020a038111156135e757600080fd5b6135f388828901613103565b955050602061349d888289016130eb565b60006020828403121561361657600080fd5b600061126684846130eb565b6000806040838503121561363557600080fd5b600061339e85856130eb565b61364a81613ac0565b82525050565b600061365b82613abc565b80845260208401935061366d83613ab6565b60005b8281101561369d57613683868351613700565b61368c82613ab6565b604096909601959150600101613670565b5093949350505050565b61364a81613acc565b61364a81613ade565b61364a81610f85565b61364a81613ae9565b60006136d682613abc565b8084526136ea816020860160208601613b00565b6136f381613b2c565b9093016020019392505050565b805160408301906137118482613641565b5060208201516120fc60208501826136b9565b60208101610c2d8284613641565b604081016137408285613641565b610bf46020830184613641565b6060810161375b8286613641565b6137686020830185613641565b61126660408301846136b9565b60e08101613783828a613641565b61379060208301896136b0565b81810360408301526137a281886136cb565b90506137b160608301876136b9565b6137be6080830186613641565b6137cb60a08301856136b9565b81810360c08301526137dd81846136cb565b9998505050505050505050565b608081016137f88287613641565b61380560208301866136b9565b6138126040830185613641565b61381f60608301846136c2565b95945050505050565b608081016138368287613641565b61384360208301866136b9565b6138506040830185613641565b61381f60608301846136b9565b60a0810161386b8288613641565b61387860208301876136b9565b6138856040830186613641565b61389260608301856136b9565b81810360808301526138a481846136cb565b979650505050505050565b60a081016138bd8288613641565b6138ca60208301876136b9565b6138d76040830186613641565b6138e460608301856136b9565b6138f160808301846136b9565b9695505050505050565b604081016139098285613641565b8181036020830152610bf181846136cb565b60c081016139298289613641565b818103602083015261393b81886136cb565b905061394a60408301876136b9565b6139576060830186613641565b61396460808301856136b9565b81810360a083015261397681846136cb565b98975050505050505050565b604081016139908285613641565b610bf460208301846136b9565b606081016139ab8286613641565b61376860208301856136b9565b60208082528101610bf48184613650565b60208101610c2d82846136a7565b60208101610c2d82846136b0565b604081016139f382856136b0565b610bf460208301846136b0565b60208101610c2d82846136b9565b6040810161399082856136b9565b6080810161383682876136b9565b606081016139ab82866136b9565b60208082528101610bf481846136cb565b6040518181016001604060020a0381118282101715613a6757600080fd5b604052919050565b60006001604060020a03821115613a8557600080fd5b5060209081020190565b60006001604060020a03821115613aa557600080fd5b506020601f91909101601f19160190565b60200190565b5190565b600160a060020a031690565b151590565b600160e060020a03191690565b6000610c2d82613ac0565b6000610c2d82610f85565b82818337506000910152565b60005b83811015613b1b578181015183820152602001613b03565b838111156120fc5750506000910152565b601f01601f19169056006d20076dccc9a1dd1722d0739c60065c999d4137e9683cbe4d752527539d9f74a265627a7a72305820c1f43351986631eb5e57d018f2c26de9e2361a35827d8778728451c2221979aa6c6578706572696d656e74616cf50037",
  "source": "/*\n * Hubii Nahmii\n *\n * Compliant with the Hubii Nahmii specification v0.12.\n *\n * Copyright (C) 2017-2018 Hubii AS\n */\n\npragma solidity ^0.4.25;\npragma experimental ABIEncoderV2;\n\nimport {Ownable} from \"./Ownable.sol\";\nimport {Configurable} from \"./Configurable.sol\";\nimport {AccrualBeneficiary} from \"./AccrualBeneficiary.sol\";\nimport {Servable} from \"./Servable.sol\";\nimport {TransferControllerManageable} from \"./TransferControllerManageable.sol\";\nimport {SafeMathIntLib} from \"./SafeMathIntLib.sol\";\nimport {SafeMathUintLib} from \"./SafeMathUintLib.sol\";\nimport {FungibleBalanceLib} from \"./FungibleBalanceLib.sol\";\nimport {TxHistoryLib} from \"./TxHistoryLib.sol\";\nimport {CurrenciesLib} from \"./CurrenciesLib.sol\";\nimport {MonetaryTypesLib} from \"./MonetaryTypesLib.sol\";\nimport {Beneficiary} from \"./Beneficiary.sol\";\nimport {TransferController} from \"./TransferController.sol\";\nimport {ConstantsLib} from \"./ConstantsLib.sol\";\n\n/**\n * @title SecurityBond\n * @notice Fund that contains crypto incentive for challenging operator fraud.\n */\ncontract SecurityBond is Ownable, Configurable, AccrualBeneficiary, Servable, TransferControllerManageable {\n    using SafeMathIntLib for int256;\n    using SafeMathUintLib for uint256;\n    using FungibleBalanceLib for FungibleBalanceLib.Balance;\n    using TxHistoryLib for TxHistoryLib.TxHistory;\n    using CurrenciesLib for CurrenciesLib.Currencies;\n\n    //\n    // Constants\n    // -----------------------------------------------------------------------------------------------------------------\n    string constant public REWARD_ACTION = \"reward\";\n    string constant public DEPRIVE_ACTION = \"deprive\";\n\n    //\n    // Types\n    // -----------------------------------------------------------------------------------------------------------------\n    struct FractionalReward {\n        uint256 fraction;\n        uint256 nonce;\n        uint256 unlockTime;\n    }\n\n    struct AbsoluteReward {\n        int256 amount;\n        uint256 nonce;\n        uint256 unlockTime;\n    }\n\n    //\n    // Variables\n    // -----------------------------------------------------------------------------------------------------------------\n    FungibleBalanceLib.Balance private deposited;\n    TxHistoryLib.TxHistory private txHistory;\n    CurrenciesLib.Currencies private inUseCurrencies;\n\n    mapping(address => FractionalReward) public fractionalRewardByWallet;\n\n    mapping(address => mapping(address => mapping(uint256 => AbsoluteReward))) public absoluteRewardByWallet;\n\n    mapping(address => mapping(address => mapping(uint256 => uint256))) public claimNonceByWalletCurrency;\n\n    mapping(address => FungibleBalanceLib.Balance) private stagedByWallet;\n\n    mapping(address => uint256) public nonceByWallet;\n\n    //\n    // Events\n    // -----------------------------------------------------------------------------------------------------------------\n    event ReceiveEvent(address from, int256 amount, address currencyCt, uint256 currencyId);\n    event RewardFractionalEvent(address wallet, uint256 fraction, uint256 unlockTimeoutInSeconds);\n    event RewardAbsoluteEvent(address wallet, int256 amount, address currencyCt, uint256 currencyId,\n        uint256 unlockTimeoutInSeconds);\n    event DepriveFractionalEvent(address wallet);\n    event DepriveAbsoluteEvent(address wallet, address currencyCt, uint256 currencyId);\n    event ClaimAndTransferToBeneficiaryEvent(address from, Beneficiary beneficiary, string balanceType, int256 amount,\n        address currencyCt, uint256 currencyId, string standard);\n    event ClaimAndStageEvent(address from, int256 amount, address currencyCt, uint256 currencyId);\n    event WithdrawEvent(address from, int256 amount, address currencyCt, uint256 currencyId, string standard);\n\n    //\n    // Constructor\n    // -----------------------------------------------------------------------------------------------------------------\n    constructor(address deployer) Ownable(deployer) Servable() public {\n    }\n\n    //\n    // Functions\n    // -----------------------------------------------------------------------------------------------------------------\n    /// @notice Fallback function that deposits ethers\n    function() public payable {\n        receiveEthersTo(msg.sender, \"\");\n    }\n\n    /// @notice Receive ethers to\n    /// @param wallet The concerned wallet address\n    function receiveEthersTo(address wallet, string)\n    public\n    payable\n    {\n        int256 amount = SafeMathIntLib.toNonZeroInt256(msg.value);\n\n        // Add to balance\n        deposited.add(amount, address(0), 0);\n        txHistory.addDeposit(amount, address(0), 0);\n\n        // Add currency to in-use list\n        inUseCurrencies.add(address(0), 0);\n\n        // Emit event\n        emit ReceiveEvent(wallet, amount, address(0), 0);\n    }\n\n    /// @notice Receive tokens\n    /// @param amount The concerned amount\n    /// @param currencyCt The address of the concerned currency contract (address(0) == ETH)\n    /// @param currencyId The ID of the concerned currency (0 for ETH and ERC20)\n    /// @param standard The standard of token (\"ERC20\", \"ERC721\")\n    function receiveTokens(string, int256 amount, address currencyCt,\n        uint256 currencyId, string standard)\n    public\n    {\n        receiveTokensTo(msg.sender, \"\", amount, currencyCt, currencyId, standard);\n    }\n\n    /// @notice Receive tokens to\n    /// @param wallet The address of the concerned wallet\n    /// @param amount The concerned amount\n    /// @param currencyCt The address of the concerned currency contract (address(0) == ETH)\n    /// @param currencyId The ID of the concerned currency (0 for ETH and ERC20)\n    /// @param standard The standard of token (\"ERC20\", \"ERC721\")\n    function receiveTokensTo(address wallet, string, int256 amount, address currencyCt,\n        uint256 currencyId, string standard)\n    public\n    {\n        require(amount.isNonZeroPositiveInt256());\n\n        // Execute transfer\n        TransferController controller = transferController(currencyCt, standard);\n        require(\n            address(controller).delegatecall(\n                controller.getReceiveSignature(), msg.sender, this, uint256(amount), currencyCt, currencyId\n            )\n        );\n\n        // Add to balance\n        deposited.add(amount, currencyCt, currencyId);\n        txHistory.addDeposit(amount, currencyCt, currencyId);\n\n        // Add currency to in-use list\n        inUseCurrencies.add(currencyCt, currencyId);\n\n        // Emit event\n        emit ReceiveEvent(wallet, amount, currencyCt, currencyId);\n    }\n\n    /// @notice Get the count of deposits\n    /// @return The count of deposits\n    function depositsCount()\n    public\n    view\n    returns (uint256)\n    {\n        return txHistory.depositsCount();\n    }\n\n    /// @notice Get the deposit at the given index\n    /// @return The deposit at the given index\n    function deposit(uint index)\n    public\n    view\n    returns (int256 amount, uint256 blockNumber, address currencyCt, uint256 currencyId)\n    {\n        return txHistory.deposit(index);\n    }\n\n    /// @notice Get the deposited balance of the given currency\n    /// @param currencyCt The address of the concerned currency contract (address(0) == ETH)\n    /// @param currencyId The ID of the concerned currency (0 for ETH and ERC20)\n    /// @return The deposited balance\n    function depositedBalance(address currencyCt, uint256 currencyId)\n    public\n    view\n    returns (int256)\n    {\n        return deposited.get(currencyCt, currencyId);\n    }\n\n    /// @notice Get the fractional amount deposited balance of the given currency\n    /// @param currencyCt The contract address of the currency that the wallet is deprived\n    /// @param currencyId The ID of the currency that the wallet is deprived\n    /// @param fraction The fraction of sums that the wallet is rewarded\n    /// @return The fractional amount of deposited balance\n    function depositedFractionalBalance(address currencyCt, uint256 currencyId, uint256 fraction)\n    public\n    view\n    returns (int256)\n    {\n        return deposited.get(currencyCt, currencyId)\n        .mul(SafeMathIntLib.toInt256(fraction))\n        .div(ConstantsLib.PARTS_PER());\n    }\n\n    /// @notice Get the staged balance of the given currency\n    /// @param currencyCt The address of the concerned currency contract (address(0) == ETH)\n    /// @param currencyId The ID of the concerned currency (0 for ETH and ERC20)\n    /// @return The deposited balance\n    function stagedBalance(address wallet, address currencyCt, uint256 currencyId)\n    public\n    view\n    returns (int256)\n    {\n        return stagedByWallet[wallet].get(currencyCt, currencyId);\n    }\n\n    /// @notice Get the count of currencies recorded\n    /// @return The number of currencies\n    function inUseCurrenciesCount()\n    public\n    view\n    returns (uint256)\n    {\n        return inUseCurrencies.count();\n    }\n\n    /// @notice Get the currencies recorded with indices in the given range\n    /// @param low The lower currency index\n    /// @param up The upper currency index\n    /// @return The currencies of the given index range\n    function inUseCurrenciesByIndices(uint256 low, uint256 up)\n    public\n    view\n    returns (MonetaryTypesLib.Currency[])\n    {\n        return inUseCurrencies.getByIndices(low, up);\n    }\n\n    /// @notice Reward the given wallet the given fraction of funds, where the reward is locked\n    /// for the given number of seconds\n    /// @param wallet The concerned wallet\n    /// @param fraction The fraction of sums that the wallet is rewarded\n    /// @param unlockTimeoutInSeconds The number of seconds for which the reward is locked and should\n    /// be claimed\n    function rewardFractional(address wallet, uint256 fraction, uint256 unlockTimeoutInSeconds)\n    public\n    notNullAddress(wallet)\n    onlyEnabledServiceAction(REWARD_ACTION)\n    {\n        // Update fractional reward\n        fractionalRewardByWallet[wallet].fraction = fraction.clampMax(uint256(ConstantsLib.PARTS_PER()));\n        fractionalRewardByWallet[wallet].nonce = ++nonceByWallet[wallet];\n        fractionalRewardByWallet[wallet].unlockTime = block.timestamp.add(unlockTimeoutInSeconds);\n\n        // Emit event\n        emit RewardFractionalEvent(wallet, fraction, unlockTimeoutInSeconds);\n    }\n\n    /// @notice Reward the given wallet the given amount of funds, where the reward is locked\n    /// for the given number of seconds\n    /// @param wallet The concerned wallet\n    /// @param amount The amount that the wallet is rewarded\n    /// @param currencyCt The contract address of the currency that the wallet is rewarded\n    /// @param currencyId The ID of the currency that the wallet is rewarded\n    /// @param unlockTimeoutInSeconds The number of seconds for which the reward is locked and should\n    /// be claimed\n    function rewardAbsolute(address wallet, int256 amount, address currencyCt, uint256 currencyId,\n        uint256 unlockTimeoutInSeconds)\n    public\n    notNullAddress(wallet)\n    onlyEnabledServiceAction(REWARD_ACTION)\n    {\n        // Update absolute reward\n        absoluteRewardByWallet[wallet][currencyCt][currencyId].amount = amount;\n        absoluteRewardByWallet[wallet][currencyCt][currencyId].nonce = ++nonceByWallet[wallet];\n        absoluteRewardByWallet[wallet][currencyCt][currencyId].unlockTime = block.timestamp.add(unlockTimeoutInSeconds);\n\n        // Emit event\n        emit RewardAbsoluteEvent(wallet, amount, currencyCt, currencyId, unlockTimeoutInSeconds);\n    }\n\n    /// @notice Deprive the given wallet of any fractional reward it has been granted\n    /// @param wallet The concerned wallet\n    function depriveFractional(address wallet)\n    public\n    onlyEnabledServiceAction(DEPRIVE_ACTION)\n    {\n        // Update fractional reward\n        fractionalRewardByWallet[wallet].fraction = 0;\n        fractionalRewardByWallet[wallet].nonce = ++nonceByWallet[wallet];\n        fractionalRewardByWallet[wallet].unlockTime = 0;\n\n        // Emit event\n        emit DepriveFractionalEvent(wallet);\n    }\n\n    /// @notice Deprive the given wallet of any absolute reward it has been granted in the given currency\n    /// @param wallet The concerned wallet\n    /// @param currencyCt The contract address of the currency that the wallet is deprived\n    /// @param currencyId The ID of the currency that the wallet is deprived\n    function depriveAbsolute(address wallet, address currencyCt, uint256 currencyId)\n    public\n    onlyEnabledServiceAction(DEPRIVE_ACTION)\n    {\n        // Update absolute reward\n        absoluteRewardByWallet[wallet][currencyCt][currencyId].amount = 0;\n        absoluteRewardByWallet[wallet][currencyCt][currencyId].nonce = ++nonceByWallet[wallet];\n        absoluteRewardByWallet[wallet][currencyCt][currencyId].unlockTime = 0;\n\n        // Emit event\n        emit DepriveAbsoluteEvent(wallet, currencyCt, currencyId);\n    }\n\n    /// @notice Claim reward and transfer to beneficiary\n    /// @param beneficiary The concerned beneficiary\n    /// @param balanceType The target balance type\n    /// @param currencyCt The address of the concerned currency contract (address(0) == ETH)\n    /// @param currencyId The ID of the concerned currency (0 for ETH and ERC20)\n    /// @param standard The standard of the token (\"\" for default registered, \"ERC20\", \"ERC721\")\n    function claimAndTransferToBeneficiary(Beneficiary beneficiary, string balanceType, address currencyCt,\n        uint256 currencyId, string standard)\n    public\n    {\n        // Claim reward\n        int256 claimedAmount = _claim(msg.sender, currencyCt, currencyId);\n\n        // Subtract from deposited balance\n        deposited.sub(claimedAmount, currencyCt, currencyId);\n\n        // Execute transfer\n        if (address(0) == currencyCt && 0 == currencyId)\n            beneficiary.receiveEthersTo.value(uint256(claimedAmount))(msg.sender, balanceType);\n\n        else {\n            TransferController controller = transferController(currencyCt, standard);\n            require(\n                address(controller).delegatecall(\n                    controller.getApproveSignature(), beneficiary, uint256(claimedAmount), currencyCt, currencyId\n                )\n            );\n            beneficiary.receiveTokensTo(msg.sender, balanceType, claimedAmount, currencyCt, currencyId, standard);\n        }\n\n        // Emit event\n        emit ClaimAndTransferToBeneficiaryEvent(msg.sender, beneficiary, balanceType, claimedAmount, currencyCt, currencyId, standard);\n    }\n\n    /// @notice Claim reward and stage for later withdrawal\n    /// @param currencyCt The address of the concerned currency contract (address(0) == ETH)\n    /// @param currencyId The ID of the concerned currency (0 for ETH and ERC20)\n    function claimAndStage(address currencyCt, uint256 currencyId)\n    public\n    {\n        // Claim reward\n        int256 claimedAmount = _claim(msg.sender, currencyCt, currencyId);\n\n        // Subtract from deposited balance\n        deposited.sub(claimedAmount, currencyCt, currencyId);\n\n        // Add to staged balance\n        stagedByWallet[msg.sender].add(claimedAmount, currencyCt, currencyId);\n\n        // Emit event\n        emit ClaimAndStageEvent(msg.sender, claimedAmount, currencyCt, currencyId);\n    }\n\n    /// @notice Withdraw from staged balance of msg.sender\n    /// @param amount The concerned amount\n    /// @param currencyCt The address of the concerned currency contract (address(0) == ETH)\n    /// @param currencyId The ID of the concerned currency (0 for ETH and ERC20)\n    /// @param standard The standard of the token (\"\" for default registered, \"ERC20\", \"ERC721\")\n    function withdraw(int256 amount, address currencyCt, uint256 currencyId, string standard)\n    public\n    {\n        // Require that amount is strictly positive\n        require(amount.isNonZeroPositiveInt256());\n\n        // Clamp amount to the max given by staged balance\n        amount = amount.clampMax(stagedByWallet[msg.sender].get(currencyCt, currencyId));\n\n        // Subtract to per-wallet staged balance\n        stagedByWallet[msg.sender].sub(amount, currencyCt, currencyId);\n\n        // Execute transfer\n        if (address(0) == currencyCt && 0 == currencyId)\n            msg.sender.transfer(uint256(amount));\n\n        else {\n            TransferController controller = transferController(currencyCt, standard);\n            require(\n                address(controller).delegatecall(\n                    controller.getDispatchSignature(), this, msg.sender, uint256(amount), currencyCt, currencyId\n                )\n            );\n        }\n\n        // Emit event\n        emit WithdrawEvent(msg.sender, amount, currencyCt, currencyId, standard);\n    }\n\n    //\n    // Private functions\n    // -----------------------------------------------------------------------------------------------------------------\n    function _claim(address wallet, address currencyCt, uint256 currencyId)\n    private\n    returns (int256)\n    {\n        // Combine claim nonce from rewards\n        uint256 claimNonce = fractionalRewardByWallet[wallet].nonce.clampMin(\n            absoluteRewardByWallet[wallet][currencyCt][currencyId].nonce\n        );\n\n        // Require that new claim nonce is greater than current stored one\n        require(claimNonce > claimNonceByWalletCurrency[wallet][currencyCt][currencyId]);\n\n        // Combine claim amount from rewards\n        int256 claimAmount = _fractionalRewardAmountByWalletCurrency(wallet, currencyCt, currencyId).add(\n            _absoluteRewardAmountByWalletCurrency(wallet, currencyCt, currencyId)\n        ).clampMax(\n            deposited.get(currencyCt, currencyId)\n        );\n\n        // Require that claim amount is strictly positive, indicating that there is an amount to claim\n        require(0 < claimAmount);\n\n        // Update stored claim nonce for wallet and currency\n        claimNonceByWalletCurrency[wallet][currencyCt][currencyId] = claimNonce;\n\n        return claimAmount;\n    }\n\n    function _fractionalRewardAmountByWalletCurrency(address wallet, address currencyCt, uint256 currencyId)\n    private\n    view\n    returns (int256)\n    {\n        if (\n            claimNonceByWalletCurrency[wallet][currencyCt][currencyId] < fractionalRewardByWallet[wallet].nonce &&\n            block.timestamp >= fractionalRewardByWallet[wallet].unlockTime\n        )\n            return deposited.get(currencyCt, currencyId)\n            .mul(SafeMathIntLib.toInt256(fractionalRewardByWallet[wallet].fraction))\n            .div(ConstantsLib.PARTS_PER());\n\n        else\n            return 0;\n    }\n\n    function _absoluteRewardAmountByWalletCurrency(address wallet, address currencyCt, uint256 currencyId)\n    private\n    view\n    returns (int256)\n    {\n        if (\n            claimNonceByWalletCurrency[wallet][currencyCt][currencyId] < absoluteRewardByWallet[wallet][currencyCt][currencyId].nonce &&\n            block.timestamp >= absoluteRewardByWallet[wallet][currencyCt][currencyId].unlockTime\n        )\n            return absoluteRewardByWallet[wallet][currencyCt][currencyId].amount.clampMax(\n                deposited.get(currencyCt, currencyId)\n            );\n\n        else\n            return 0;\n    }\n}",
  "sourcePath": "/opt/buildagent/work/855e104608380c36/contracts/SecurityBond.sol",
  "compiler": {
    "name": "solc",
    "version": "0.4.25+commit.59dbf8f1.Emscripten.clang"
  },
  "schemaVersion": "2.0.1",
  "updatedAt": "2019-01-31T11:28:29.986Z"
}