{
  "contractName": "SignerManager",
  "abi": [
    {
      "constant": true,
      "inputs": [
        {
          "name": "",
          "type": "address"
        }
      ],
      "name": "signerIndicesMap",
      "outputs": [
        {
          "name": "",
          "type": "uint256"
        }
      ],
      "payable": false,
      "stateMutability": "view",
      "type": "function"
    },
    {
      "constant": true,
      "inputs": [
        {
          "name": "",
          "type": "uint256"
        }
      ],
      "name": "signers",
      "outputs": [
        {
          "name": "",
          "type": "address"
        }
      ],
      "payable": false,
      "stateMutability": "view",
      "type": "function"
    },
    {
      "constant": false,
      "inputs": [],
      "name": "triggerSelfDestruction",
      "outputs": [],
      "payable": false,
      "stateMutability": "nonpayable",
      "type": "function"
    },
    {
      "constant": true,
      "inputs": [],
      "name": "selfDestructionDisabled",
      "outputs": [
        {
          "name": "",
          "type": "bool"
        }
      ],
      "payable": false,
      "stateMutability": "view",
      "type": "function"
    },
    {
      "constant": true,
      "inputs": [],
      "name": "destructor",
      "outputs": [
        {
          "name": "",
          "type": "address"
        }
      ],
      "payable": false,
      "stateMutability": "view",
      "type": "function"
    },
    {
      "constant": true,
      "inputs": [],
      "name": "operator",
      "outputs": [
        {
          "name": "",
          "type": "address"
        }
      ],
      "payable": false,
      "stateMutability": "view",
      "type": "function"
    },
    {
      "constant": false,
      "inputs": [],
      "name": "disableSelfDestruction",
      "outputs": [],
      "payable": false,
      "stateMutability": "nonpayable",
      "type": "function"
    },
    {
      "constant": false,
      "inputs": [
        {
          "name": "newDeployer",
          "type": "address"
        }
      ],
      "name": "setDeployer",
      "outputs": [],
      "payable": false,
      "stateMutability": "nonpayable",
      "type": "function"
    },
    {
      "constant": false,
      "inputs": [
        {
          "name": "newOperator",
          "type": "address"
        }
      ],
      "name": "setOperator",
      "outputs": [],
      "payable": false,
      "stateMutability": "nonpayable",
      "type": "function"
    },
    {
      "constant": true,
      "inputs": [],
      "name": "deployer",
      "outputs": [
        {
          "name": "",
          "type": "address"
        }
      ],
      "payable": false,
      "stateMutability": "view",
      "type": "function"
    },
    {
      "inputs": [
        {
          "name": "deployer",
          "type": "address"
        }
      ],
      "payable": false,
      "stateMutability": "nonpayable",
      "type": "constructor"
    },
    {
      "anonymous": false,
      "inputs": [
        {
          "indexed": false,
          "name": "signer",
          "type": "address"
        }
      ],
      "name": "RegisterSignerEvent",
      "type": "event"
    },
    {
      "anonymous": false,
      "inputs": [
        {
          "indexed": false,
          "name": "oldDeployer",
          "type": "address"
        },
        {
          "indexed": false,
          "name": "newDeployer",
          "type": "address"
        }
      ],
      "name": "SetDeployerEvent",
      "type": "event"
    },
    {
      "anonymous": false,
      "inputs": [
        {
          "indexed": false,
          "name": "oldOperator",
          "type": "address"
        },
        {
          "indexed": false,
          "name": "newOperator",
          "type": "address"
        }
      ],
      "name": "SetOperatorEvent",
      "type": "event"
    },
    {
      "anonymous": false,
      "inputs": [
        {
          "indexed": false,
          "name": "wallet",
          "type": "address"
        }
      ],
      "name": "SelfDestructionDisabledEvent",
      "type": "event"
    },
    {
      "anonymous": false,
      "inputs": [
        {
          "indexed": false,
          "name": "wallet",
          "type": "address"
        }
      ],
      "name": "TriggerSelfDestructionEvent",
      "type": "event"
    },
    {
      "constant": true,
      "inputs": [
        {
          "name": "_address",
          "type": "address"
        }
      ],
      "name": "isSigner",
      "outputs": [
        {
          "name": "",
          "type": "bool"
        }
      ],
      "payable": false,
      "stateMutability": "view",
      "type": "function"
    },
    {
      "constant": true,
      "inputs": [],
      "name": "signersCount",
      "outputs": [
        {
          "name": "",
          "type": "uint256"
        }
      ],
      "payable": false,
      "stateMutability": "view",
      "type": "function"
    },
    {
      "constant": true,
      "inputs": [
        {
          "name": "_address",
          "type": "address"
        }
      ],
      "name": "signerIndex",
      "outputs": [
        {
          "name": "",
          "type": "uint256"
        }
      ],
      "payable": false,
      "stateMutability": "view",
      "type": "function"
    },
    {
      "constant": false,
      "inputs": [
        {
          "name": "newSigner",
          "type": "address"
        }
      ],
      "name": "registerSigner",
      "outputs": [],
      "payable": false,
      "stateMutability": "nonpayable",
      "type": "function"
    },
    {
      "constant": true,
      "inputs": [
        {
          "name": "low",
          "type": "uint256"
        },
        {
          "name": "up",
          "type": "uint256"
        }
      ],
      "name": "signersByIndices",
      "outputs": [
        {
          "name": "",
          "type": "address[]"
        }
      ],
      "payable": false,
      "stateMutability": "view",
      "type": "function"
    }
  ],
  "bytecode": "0x608060405234801561001057600080fd5b50604051602080610a4f83398101604052518080600160a060020a038116151561003957600080fd5b600160a060020a03811630141561004f57600080fd5b506000805461010060a860020a031916610100600160a060020a039390931692830217905560018054600160a060020a03191690911790556100998164010000000061009f810204565b506101ac565b6100b064010000000061019b810204565b15156100bb57600080fd5b80600160a060020a03811615156100d157600080fd5b600160a060020a0381163014156100e757600080fd5b600160a060020a038216600090815260026020526040902054151561019757600380546001810182557fc2575a0e9e593c00f959f8c92f12db2869c3395a3b0502d05e2516446f71f85b018054600160a060020a031916600160a060020a0385169081179091559054600082815260026020908152604091829020929092558051928352517fea9367a005a2326c7d7aaee4a222a51a2242a80ffaecb0c805c81760b57e6d0c9281900390910190a15b5050565b600154600160a060020a0316331490565b610894806101bb6000396000f3006080604052600436106100c15763ffffffff60e060020a6000350416630d79019981146100c65780631a91a0ab146100f95780632079fb9a1461011a5780632738a1121461014e5780632f013a00146101655780634476d23b1461018e578063570ca735146101a35780635e887e6d146101b857806370327ea1146101d95780637df73e27146101ee5780638239b78e1461020f578063962147351461027a578063b3ab15fb1461029b578063d5f39488146102bc578063e40956b1146102d1575b600080fd5b3480156100d257600080fd5b506100e7600160a060020a03600435166102e6565b60408051918252519081900360200190f35b34801561010557600080fd5b506100e7600160a060020a03600435166102f8565b34801561012657600080fd5b5061013260043561032e565b60408051600160a060020a039092168252519081900360200190f35b34801561015a57600080fd5b50610163610356565b005b34801561017157600080fd5b5061017a6103b8565b604080519115158252519081900360200190f35b34801561019a57600080fd5b506101326103c1565b3480156101af57600080fd5b506101326103d5565b3480156101c457600080fd5b50610163600160a060020a03600435166103e4565b3480156101e557600080fd5b506101636104d7565b3480156101fa57600080fd5b5061017a600160a060020a0360043516610535565b34801561021b57600080fd5b5061022a600435602435610551565b60408051602080825283518183015283519192839290830191858101910280838360005b8381101561026657818101518382015260200161024e565b505050509050019250505060405180910390f35b34801561028657600080fd5b50610163600160a060020a036004351661069e565b3480156102a757600080fd5b50610163600160a060020a036004351661076a565b3480156102c857600080fd5b50610132610827565b3480156102dd57600080fd5b506100e761083b565b60026020526000908152604090205481565b600061030382610535565b151561030e57600080fd5b50600160a060020a03166000908152600260205260409020546000190190565b600380548290811061033c57fe5b600091825260209091200154600160a060020a0316905081565b3361035f6103c1565b600160a060020a03161461037257600080fd5b60005460ff161561038257600080fd5b6040805133815290517f787a5d936e74f4b564b9153575886059829c78cd9927b1be5e0d976b317ef7369181900360200190a133ff5b60005460ff1681565b6000546101009004600160a060020a031690565b600154600160a060020a031681565b6103ec610841565b15156103f757600080fd5b80600160a060020a038116151561040d57600080fd5b600160a060020a03811630141561042357600080fd5b600160a060020a03821660009081526002602052604090205415156104d357600380546001810182557fc2575a0e9e593c00f959f8c92f12db2869c3395a3b0502d05e2516446f71f85b018054600160a060020a031916600160a060020a0385169081179091559054600082815260026020908152604091829020929092558051928352517fea9367a005a2326c7d7aaee4a222a51a2242a80ffaecb0c805c81760b57e6d0c9281900390910190a15b5050565b336104e06103c1565b600160a060020a0316146104f357600080fd5b6000805460ff191660011790556040805133815290517fd5a2a04a775c741c2ca0dc46ea7ce4835190e1aaf1ca018def0e82568ec336169181900360200190a1565b600160a060020a03166000908152600260205260408120541190565b6003546060908190600090811061056757600080fd5b8385111561057457600080fd5b6003546040805160e060020a63700f1a770281526004810187905260001990920160248301525173__SafeMathUintLib_______________________9163700f1a77916044808301926020929190829003018186803b1580156105d657600080fd5b505af41580156105ea573d6000803e3d6000fd5b505050506040513d602081101561060057600080fd5b50516040805160018884030180825260208181028301019092529195508015610633578160200160208202803883390190505b5091508490505b83811161069657600380548290811061064f57fe5b6000918252602090912001548251600160a060020a0390911690839087840390811061067757fe5b600160a060020a0390921660209283029091019091015260010161063a565b509392505050565b60006106a8610852565b15156106b357600080fd5b81600160a060020a03811615156106c957600080fd5b600160a060020a0381163014156106df57600080fd5b600054600160a060020a0384811661010090920416146107655760008054600160a060020a0385811661010081810261010060a860020a0319851617909455604080519490930491909116808452602084019190915281519094507f977e5fa58e458501775e0008d275006294c5249e3c08d1d0e3a9f3acad14f6e49281900390910190a15b505050565b6000610774610841565b151561077f57600080fd5b81600160a060020a038116151561079557600080fd5b600160a060020a0381163014156107ab57600080fd5b600154600160a060020a038481169116146107655760018054600160a060020a03858116600160a060020a0319831681179093556040805191909216808252602082019390935281519294507f9f611b789425d0d5b90b920f1b2852907dd865c80074a30b1629aaa041d1812c929081900390910190a1505050565b6000546101009004600160a060020a031681565b60035490565b600154600160a060020a0316331490565b6000546101009004600160a060020a03163314905600a165627a7a7230582027360372c39d079dd199308c7a6946f2f02e3b2a1744bdc8bc58e0b038e87eb20029",
  "source": "/*\n * Hubii Nahmii\n *\n * Compliant with the Hubii Nahmii specification v0.12.\n *\n * Copyright (C) 2017-2018 Hubii AS\n */\n\npragma solidity ^0.4.25;\n\nimport {Ownable} from \"./Ownable.sol\";\nimport {SafeMathUintLib} from \"./SafeMathUintLib.sol\";\n\n/**\n * @title SignerManager\n * @notice A contract to control who can execute some specific actions\n */\ncontract SignerManager is Ownable {\n    using SafeMathUintLib for uint256;\n    \n    //\n    // Variables\n    // -----------------------------------------------------------------------------------------------------------------\n    mapping(address => uint256) public signerIndicesMap; // 1 based internally\n    address[] public signers;\n\n    //\n    // Events\n    // -----------------------------------------------------------------------------------------------------------------\n    event RegisterSignerEvent(address signer);\n\n    //\n    // Constructor\n    // -----------------------------------------------------------------------------------------------------------------\n    constructor(address deployer) Ownable(deployer) public {\n        registerSigner(deployer);\n    }\n\n    //\n    // Functions\n    // -----------------------------------------------------------------------------------------------------------------\n    /// @notice Gauge whether an address is registered signer\n    /// @param _address The concerned address\n    /// @return true if address is registered signer, else false\n    function isSigner(address _address)\n    public\n    view\n    returns (bool)\n    {\n        return 0 < signerIndicesMap[_address];\n    }\n\n    /// @notice Get the count of registered signers\n    /// @return The count of registered signers\n    function signersCount()\n    public\n    view\n    returns (uint256)\n    {\n        return signers.length;\n    }\n\n    /// @notice Get the 0 based index of the given address in the list of signers\n    /// @param _address The concerned address\n    /// @return The index of the signer address\n    function signerIndex(address _address)\n    public\n    view\n    returns (uint256)\n    {\n        require(isSigner(_address));\n        return signerIndicesMap[_address] - 1;\n    }\n\n    /// @notice Registers a signer\n    /// @param newSigner The address of the signer to register\n    function registerSigner(address newSigner)\n    public\n    onlyOperator\n    notNullOrThisAddress(newSigner)\n    {\n        if (0 == signerIndicesMap[newSigner]) {\n            // Set new operator\n            signers.push(newSigner);\n            signerIndicesMap[newSigner] = signers.length;\n\n            // Emit event\n            emit RegisterSignerEvent(newSigner);\n        }\n    }\n\n    /// @notice Get the subset of registered signers in the given 0 based index range\n    /// @param low The lower inclusive index\n    /// @param up The upper inclusive index\n    /// @return The subset of registered signers\n    function signersByIndices(uint256 low, uint256 up)\n    public\n    view\n    returns (address[])\n    {\n        require(0 < signers.length);\n        require(low <= up);\n\n        up = up.clampMax(signers.length - 1);\n        address[] memory _signers = new address[](up - low + 1);\n        for (uint256 i = low; i <= up; i++)\n            _signers[i - low] = signers[i];\n\n        return _signers;\n    }\n}\n",
  "sourcePath": "/opt/buildagent/work/855e104608380c36/contracts/SignerManager.sol",
  "compiler": {
    "name": "solc",
    "version": "0.4.25+commit.59dbf8f1.Emscripten.clang"
  },
  "schemaVersion": "2.0.2",
  "updatedAt": "2019-04-02T08:24:32.240Z"
}