{
  "contractName": "TestAuthorizableServable",
  "abi": [
    {
      "constant": false,
      "inputs": [
        {
          "name": "service",
          "type": "address"
        }
      ],
      "name": "authorizeRegisteredService",
      "outputs": [],
      "payable": false,
      "stateMutability": "nonpayable",
      "type": "function"
    },
    {
      "constant": true,
      "inputs": [
        {
          "name": "service",
          "type": "address"
        },
        {
          "name": "action",
          "type": "string"
        },
        {
          "name": "wallet",
          "type": "address"
        }
      ],
      "name": "isAuthorizedRegisteredServiceAction",
      "outputs": [
        {
          "name": "",
          "type": "bool"
        }
      ],
      "payable": false,
      "stateMutability": "view",
      "type": "function"
    },
    {
      "constant": true,
      "inputs": [
        {
          "name": "service",
          "type": "address"
        }
      ],
      "name": "isRegisteredActiveService",
      "outputs": [
        {
          "name": "",
          "type": "bool"
        }
      ],
      "payable": false,
      "stateMutability": "view",
      "type": "function"
    },
    {
      "constant": true,
      "inputs": [
        {
          "name": "",
          "type": "address"
        }
      ],
      "name": "initialServiceAuthorizedMap",
      "outputs": [
        {
          "name": "",
          "type": "bool"
        }
      ],
      "payable": false,
      "stateMutability": "view",
      "type": "function"
    },
    {
      "constant": false,
      "inputs": [],
      "name": "triggerSelfDestruction",
      "outputs": [],
      "payable": false,
      "stateMutability": "nonpayable",
      "type": "function"
    },
    {
      "constant": false,
      "inputs": [
        {
          "name": "service",
          "type": "address"
        },
        {
          "name": "action",
          "type": "string"
        }
      ],
      "name": "enableServiceAction",
      "outputs": [],
      "payable": false,
      "stateMutability": "nonpayable",
      "type": "function"
    },
    {
      "constant": true,
      "inputs": [
        {
          "name": "service",
          "type": "address"
        }
      ],
      "name": "isRegisteredService",
      "outputs": [
        {
          "name": "",
          "type": "bool"
        }
      ],
      "payable": false,
      "stateMutability": "view",
      "type": "function"
    },
    {
      "constant": true,
      "inputs": [],
      "name": "selfDestructionDisabled",
      "outputs": [
        {
          "name": "",
          "type": "bool"
        }
      ],
      "payable": false,
      "stateMutability": "view",
      "type": "function"
    },
    {
      "constant": false,
      "inputs": [
        {
          "name": "service",
          "type": "address"
        },
        {
          "name": "action",
          "type": "string"
        }
      ],
      "name": "disableServiceAction",
      "outputs": [],
      "payable": false,
      "stateMutability": "nonpayable",
      "type": "function"
    },
    {
      "constant": true,
      "inputs": [],
      "name": "serviceActivationTimeout",
      "outputs": [
        {
          "name": "",
          "type": "uint256"
        }
      ],
      "payable": false,
      "stateMutability": "view",
      "type": "function"
    },
    {
      "constant": true,
      "inputs": [],
      "name": "destructor",
      "outputs": [
        {
          "name": "",
          "type": "address"
        }
      ],
      "payable": false,
      "stateMutability": "view",
      "type": "function"
    },
    {
      "constant": false,
      "inputs": [
        {
          "name": "service",
          "type": "address"
        }
      ],
      "name": "authorizeInitialService",
      "outputs": [],
      "payable": false,
      "stateMutability": "nonpayable",
      "type": "function"
    },
    {
      "constant": false,
      "inputs": [
        {
          "name": "service",
          "type": "address"
        }
      ],
      "name": "deregisterService",
      "outputs": [],
      "payable": false,
      "stateMutability": "nonpayable",
      "type": "function"
    },
    {
      "constant": true,
      "inputs": [],
      "name": "operator",
      "outputs": [
        {
          "name": "",
          "type": "address"
        }
      ],
      "payable": false,
      "stateMutability": "view",
      "type": "function"
    },
    {
      "constant": true,
      "inputs": [
        {
          "name": "service",
          "type": "address"
        },
        {
          "name": "wallet",
          "type": "address"
        }
      ],
      "name": "isAuthorizedRegisteredService",
      "outputs": [
        {
          "name": "",
          "type": "bool"
        }
      ],
      "payable": false,
      "stateMutability": "view",
      "type": "function"
    },
    {
      "constant": true,
      "inputs": [
        {
          "name": "service",
          "type": "address"
        },
        {
          "name": "action",
          "type": "string"
        }
      ],
      "name": "isEnabledServiceAction",
      "outputs": [
        {
          "name": "",
          "type": "bool"
        }
      ],
      "payable": false,
      "stateMutability": "view",
      "type": "function"
    },
    {
      "constant": false,
      "inputs": [
        {
          "name": "service",
          "type": "address"
        },
        {
          "name": "action",
          "type": "string"
        }
      ],
      "name": "authorizeRegisteredServiceAction",
      "outputs": [],
      "payable": false,
      "stateMutability": "nonpayable",
      "type": "function"
    },
    {
      "constant": true,
      "inputs": [
        {
          "name": "",
          "type": "address"
        },
        {
          "name": "",
          "type": "address"
        }
      ],
      "name": "initialServiceWalletUnauthorizedMap",
      "outputs": [
        {
          "name": "",
          "type": "bool"
        }
      ],
      "payable": false,
      "stateMutability": "view",
      "type": "function"
    },
    {
      "constant": true,
      "inputs": [
        {
          "name": "",
          "type": "address"
        },
        {
          "name": "",
          "type": "bytes32"
        },
        {
          "name": "",
          "type": "address"
        }
      ],
      "name": "serviceActionWalletTouchedMap",
      "outputs": [
        {
          "name": "",
          "type": "bool"
        }
      ],
      "payable": false,
      "stateMutability": "view",
      "type": "function"
    },
    {
      "constant": false,
      "inputs": [],
      "name": "disableSelfDestruction",
      "outputs": [],
      "payable": false,
      "stateMutability": "nonpayable",
      "type": "function"
    },
    {
      "constant": true,
      "inputs": [
        {
          "name": "",
          "type": "address"
        },
        {
          "name": "",
          "type": "address"
        }
      ],
      "name": "serviceWalletAuthorizedMap",
      "outputs": [
        {
          "name": "",
          "type": "bool"
        }
      ],
      "payable": false,
      "stateMutability": "view",
      "type": "function"
    },
    {
      "constant": false,
      "inputs": [
        {
          "name": "timeoutInSeconds",
          "type": "uint256"
        }
      ],
      "name": "setServiceActivationTimeout",
      "outputs": [],
      "payable": false,
      "stateMutability": "nonpayable",
      "type": "function"
    },
    {
      "constant": true,
      "inputs": [],
      "name": "initialServiceAuthorizationDisabled",
      "outputs": [
        {
          "name": "",
          "type": "bool"
        }
      ],
      "payable": false,
      "stateMutability": "view",
      "type": "function"
    },
    {
      "constant": true,
      "inputs": [
        {
          "name": "",
          "type": "address"
        },
        {
          "name": "",
          "type": "bytes32"
        },
        {
          "name": "",
          "type": "address"
        }
      ],
      "name": "serviceActionWalletAuthorizedMap",
      "outputs": [
        {
          "name": "",
          "type": "bool"
        }
      ],
      "payable": false,
      "stateMutability": "view",
      "type": "function"
    },
    {
      "constant": false,
      "inputs": [
        {
          "name": "service",
          "type": "address"
        },
        {
          "name": "action",
          "type": "string"
        }
      ],
      "name": "unauthorizeRegisteredServiceAction",
      "outputs": [],
      "payable": false,
      "stateMutability": "nonpayable",
      "type": "function"
    },
    {
      "constant": false,
      "inputs": [
        {
          "name": "service",
          "type": "address"
        }
      ],
      "name": "registerServiceDeferred",
      "outputs": [],
      "payable": false,
      "stateMutability": "nonpayable",
      "type": "function"
    },
    {
      "constant": false,
      "inputs": [
        {
          "name": "newDeployer",
          "type": "address"
        }
      ],
      "name": "setDeployer",
      "outputs": [],
      "payable": false,
      "stateMutability": "nonpayable",
      "type": "function"
    },
    {
      "constant": false,
      "inputs": [
        {
          "name": "service",
          "type": "address"
        }
      ],
      "name": "unauthorizeRegisteredService",
      "outputs": [],
      "payable": false,
      "stateMutability": "nonpayable",
      "type": "function"
    },
    {
      "constant": false,
      "inputs": [
        {
          "name": "newOperator",
          "type": "address"
        }
      ],
      "name": "setOperator",
      "outputs": [],
      "payable": false,
      "stateMutability": "nonpayable",
      "type": "function"
    },
    {
      "constant": true,
      "inputs": [],
      "name": "deployer",
      "outputs": [
        {
          "name": "",
          "type": "address"
        }
      ],
      "payable": false,
      "stateMutability": "view",
      "type": "function"
    },
    {
      "constant": false,
      "inputs": [],
      "name": "disableInitialServiceAuthorization",
      "outputs": [],
      "payable": false,
      "stateMutability": "nonpayable",
      "type": "function"
    },
    {
      "constant": true,
      "inputs": [
        {
          "name": "",
          "type": "address"
        },
        {
          "name": "",
          "type": "address"
        },
        {
          "name": "",
          "type": "uint256"
        }
      ],
      "name": "serviceWalletActionList",
      "outputs": [
        {
          "name": "",
          "type": "bytes32"
        }
      ],
      "payable": false,
      "stateMutability": "view",
      "type": "function"
    },
    {
      "constant": false,
      "inputs": [
        {
          "name": "service",
          "type": "address"
        }
      ],
      "name": "registerService",
      "outputs": [],
      "payable": false,
      "stateMutability": "nonpayable",
      "type": "function"
    },
    {
      "inputs": [
        {
          "name": "deployer",
          "type": "address"
        }
      ],
      "payable": false,
      "stateMutability": "nonpayable",
      "type": "constructor"
    },
    {
      "anonymous": false,
      "inputs": [
        {
          "indexed": false,
          "name": "wallet",
          "type": "address"
        },
        {
          "indexed": false,
          "name": "service",
          "type": "address"
        }
      ],
      "name": "AuthorizeInitialServiceEvent",
      "type": "event"
    },
    {
      "anonymous": false,
      "inputs": [
        {
          "indexed": false,
          "name": "wallet",
          "type": "address"
        },
        {
          "indexed": false,
          "name": "service",
          "type": "address"
        }
      ],
      "name": "AuthorizeRegisteredServiceEvent",
      "type": "event"
    },
    {
      "anonymous": false,
      "inputs": [
        {
          "indexed": false,
          "name": "wallet",
          "type": "address"
        },
        {
          "indexed": false,
          "name": "service",
          "type": "address"
        },
        {
          "indexed": false,
          "name": "action",
          "type": "string"
        }
      ],
      "name": "AuthorizeRegisteredServiceActionEvent",
      "type": "event"
    },
    {
      "anonymous": false,
      "inputs": [
        {
          "indexed": false,
          "name": "wallet",
          "type": "address"
        },
        {
          "indexed": false,
          "name": "service",
          "type": "address"
        }
      ],
      "name": "UnauthorizeRegisteredServiceEvent",
      "type": "event"
    },
    {
      "anonymous": false,
      "inputs": [
        {
          "indexed": false,
          "name": "wallet",
          "type": "address"
        },
        {
          "indexed": false,
          "name": "service",
          "type": "address"
        },
        {
          "indexed": false,
          "name": "action",
          "type": "string"
        }
      ],
      "name": "UnauthorizeRegisteredServiceActionEvent",
      "type": "event"
    },
    {
      "anonymous": false,
      "inputs": [
        {
          "indexed": false,
          "name": "timeoutInSeconds",
          "type": "uint256"
        }
      ],
      "name": "ServiceActivationTimeoutEvent",
      "type": "event"
    },
    {
      "anonymous": false,
      "inputs": [
        {
          "indexed": false,
          "name": "service",
          "type": "address"
        }
      ],
      "name": "RegisterServiceEvent",
      "type": "event"
    },
    {
      "anonymous": false,
      "inputs": [
        {
          "indexed": false,
          "name": "service",
          "type": "address"
        },
        {
          "indexed": false,
          "name": "timeout",
          "type": "uint256"
        }
      ],
      "name": "RegisterServiceDeferredEvent",
      "type": "event"
    },
    {
      "anonymous": false,
      "inputs": [
        {
          "indexed": false,
          "name": "service",
          "type": "address"
        }
      ],
      "name": "DeregisterServiceEvent",
      "type": "event"
    },
    {
      "anonymous": false,
      "inputs": [
        {
          "indexed": false,
          "name": "service",
          "type": "address"
        },
        {
          "indexed": false,
          "name": "action",
          "type": "string"
        }
      ],
      "name": "EnableServiceActionEvent",
      "type": "event"
    },
    {
      "anonymous": false,
      "inputs": [
        {
          "indexed": false,
          "name": "service",
          "type": "address"
        },
        {
          "indexed": false,
          "name": "action",
          "type": "string"
        }
      ],
      "name": "DisableServiceActionEvent",
      "type": "event"
    },
    {
      "anonymous": false,
      "inputs": [
        {
          "indexed": false,
          "name": "oldDeployer",
          "type": "address"
        },
        {
          "indexed": false,
          "name": "newDeployer",
          "type": "address"
        }
      ],
      "name": "SetDeployerEvent",
      "type": "event"
    },
    {
      "anonymous": false,
      "inputs": [
        {
          "indexed": false,
          "name": "oldOperator",
          "type": "address"
        },
        {
          "indexed": false,
          "name": "newOperator",
          "type": "address"
        }
      ],
      "name": "SetOperatorEvent",
      "type": "event"
    },
    {
      "anonymous": false,
      "inputs": [
        {
          "indexed": false,
          "name": "wallet",
          "type": "address"
        }
      ],
      "name": "SelfDestructionDisabledEvent",
      "type": "event"
    },
    {
      "anonymous": false,
      "inputs": [
        {
          "indexed": false,
          "name": "wallet",
          "type": "address"
        }
      ],
      "name": "TriggerSelfDestructionEvent",
      "type": "event"
    }
  ],
  "bytecode": "0x60806040523480156200001157600080fd5b5060405160208062001b9d8339810180604052620000339190810190620000b6565b8080600160a060020a03811615156200004b57600080fd5b600160a060020a0381163014156200006257600080fd5b506000805461010060a860020a031916610100600160a060020a039390931692830217905560018054600160a060020a031916909117905550620000eb565b6000620000af8251620000df565b9392505050565b600060208284031215620000c957600080fd5b6000620000d78484620000a1565b949350505050565b600160a060020a031690565b611aa280620000fb6000396000f3006080604052600436106101875763ffffffff60e060020a60003504166301f3241f811461018c5780630c5d24fa146101ae57806317ba3f90146101e457806319507d8a146102045780632738a112146102245780632b5672e3146102395780632b91e0a9146102595780632f013a00146102795780633b58c5011461028e5780633b7bea6c146102ae5780634476d23b146102d05780634ddf63f6146102f257806350b08c0214610312578063570ca7351461033257806357925b53146103475780635df1b0a31461036757806362ac76211461038757806362f1e6b3146103a7578063677ec9d6146103c757806370327ea1146103e75780637953d64d146103fc5780637e15dd5c1461041c5780637f584f511461043c57806384cfb409146104515780638a2f30cc146104715780638e8cef121461049157806396214735146104b1578063a3e5175d146104d1578063b3ab15fb146104f1578063d5f3948814610511578063e167d4f614610526578063e3d3e9fc1461053b578063fdd9ec7d1461055b575b600080fd5b34801561019857600080fd5b506101ac6101a7366004611724565b61057b565b005b3480156101ba57600080fd5b506101ce6101c9366004611853565b610675565b6040516101db91906119a1565b60405180910390f35b3480156101f057600080fd5b506101ce6101ff366004611724565b6106df565b34801561021057600080fd5b506101ce61021f366004611724565b610717565b34801561023057600080fd5b506101ac61072c565b34801561024557600080fd5b506101ac61025436600461180c565b610792565b34801561026557600080fd5b506101ce610274366004611724565b6108c0565b34801561028557600080fd5b506101ce6108de565b34801561029a57600080fd5b506101ac6102a936600461180c565b6108e7565b3480156102ba57600080fd5b506102c36109c7565b6040516101db91906119af565b3480156102dc57600080fd5b506102e56109cd565b6040516101db9190611910565b3480156102fe57600080fd5b506101ac61030d366004611724565b6109e1565b34801561031e57600080fd5b506101ac61032d366004611724565b610ac2565b34801561033e57600080fd5b506102e5610b78565b34801561035357600080fd5b506101ce610362366004611742565b610b87565b34801561037357600080fd5b506101ce61038236600461180c565b610bda565b34801561039357600080fd5b506101ac6103a236600461180c565b610c2a565b3480156103b357600080fd5b506101ce6103c2366004611742565b610dfe565b3480156103d357600080fd5b506101ce6103e23660046117c9565b610e1e565b3480156103f357600080fd5b506101ac610e44565b34801561040857600080fd5b506101ce610417366004611742565b610ea7565b34801561042857600080fd5b506101ac61043736600461189c565b610ec7565b34801561044857600080fd5b506101ce610f1a565b34801561045d57600080fd5b506101ce61046c3660046117c9565b610f23565b34801561047d57600080fd5b506101ac61048c36600461180c565b610f49565b34801561049d57600080fd5b506101ac6104ac366004611724565b61107d565b3480156104bd57600080fd5b506101ac6104cc366004611724565b6110fb565b3480156104dd57600080fd5b506101ac6104ec366004611724565b6111c2565b3480156104fd57600080fd5b506101ac61050c366004611724565b611388565b34801561051d57600080fd5b506102e5611432565b34801561053257600080fd5b506101ac611446565b34801561054757600080fd5b506102c361055636600461177c565b611468565b34801561056757600080fd5b506101ac610576366004611724565b6114a5565b80600160a060020a038116151561059157600080fd5b600160a060020a0381163014156105a757600080fd5b33600160a060020a03831614156105bd57600080fd5b600160a060020a03821660009081526002602052604090205460ff1615156105e457600080fd5b600160a060020a03821660009081526005602052604090205460ff161561060a57600080fd5b600160a060020a038216600090815260076020908152604080832033808552925291829020805460ff1916600117905590517f7406a64e4e8c04b2a11d4cb484eb07cd5762012eafc449900b8d92de008ff27f9161066991859061191e565b60405180910390a15050565b6000806106818461151e565b905061068d8585610bda565b80156106d6575061069e85846115e8565b806106d65750600160a060020a03808616600090815260086020908152604080832085845282528083209387168352929052205460ff165b95945050505050565b60006106ea826108c0565b80156107115750600160a060020a0382166000908152600260205260409020600101544210155b92915050565b60056020526000908152604090205460ff1681565b336107356109cd565b600160a060020a03161461074857600080fd5b60005460ff161561075857600080fd5b7f787a5d936e74f4b564b9153575886059829c78cd9927b1be5e0d976b317ef736336040516107879190611910565b60405180910390a133ff5b600061079c61163f565b15156107a757600080fd5b82600160a060020a03811615156107bd57600080fd5b600160a060020a0381163014156107d357600080fd5b600160a060020a03841660009081526002602052604090205460ff1615156107fa57600080fd5b6108038361151e565b600160a060020a0385166000908152600260208181526040808420858552909201905290205490925060ff161561083957600080fd5b600160a060020a03841660009081526002602081815260408084208685528084018352818520805460ff19166001908117909155938352600301805493840181558452922001839055517fec1b982d69bfc1a6fd8becf191d9a633486c822d3bdedd52303ca81fa6357501906108b29086908690611966565b60405180910390a150505050565b600160a060020a031660009081526002602052604090205460ff1690565b60005460ff1681565b60006108f161163f565b15156108fc57600080fd5b82600160a060020a038116151561091257600080fd5b600160a060020a03811630141561092857600080fd5b6109318361151e565b600160a060020a0385166000908152600260208181526040808420858552909201905290205490925060ff16151561096857600080fd5b600160a060020a0384166000908152600260208181526040808420868552909201905290819020805460ff19169055517f92f4af6130f47c92f3899e06611c8c6ef191fb81207ad2675d134af619d2fe7d906108b29086908690611966565b60035481565b6000546101009004600160a060020a031690565b6109e961163f565b15156109f457600080fd5b80600160a060020a0381161515610a0a57600080fd5b600160a060020a038116301415610a2057600080fd5b60045460ff1615610a3057600080fd5b33600160a060020a0383161415610a4657600080fd5b600160a060020a03821660009081526002602052604090205460ff161515610a6d57600080fd5b600160a060020a03821660009081526005602052604090819020805460ff19166001179055517f81c5f2034d05958dd641755044582c0aba29a94070f0a2641bb554325328bf1e90610669903390859061191e565b610aca61163f565b1515610ad557600080fd5b80600160a060020a0381161515610aeb57600080fd5b600160a060020a038116301415610b0157600080fd5b600160a060020a03821660009081526002602052604090205460ff161515610b2857600080fd5b600160a060020a03821660009081526002602052604090819020805460ff19169055517f777645c5437dfbf962f57a281ead25f3d513f2f8e938685bbfc1738e81c9880e90610669908490611910565b600154600160a060020a031681565b6000610b92836106df565b8015610bd35750610ba383836115e8565b80610bd35750600160a060020a0380841660009081526007602090815260408083209386168352929052205460ff165b9392505050565b600080610be68361151e565b9050610bf1846106df565b8015610c225750600160a060020a0384166000908152600260208181526040808420858552909201905290205460ff165b949350505050565b600082600160a060020a0381161515610c4257600080fd5b600160a060020a038116301415610c5857600080fd5b33600160a060020a0385161415610c6e57600080fd5b610c778361151e565b600160a060020a03851660009081526002602052604090205490925060ff168015610cc75750600160a060020a0384166000908152600260208181526040808420868552909201905290205460ff165b1515610cd257600080fd5b600160a060020a03841660009081526005602052604090205460ff1615610cf857600080fd5b600160a060020a038416600081815260076020908152604080832033808552908352818420805460ff19908116909155858552600884528285208886528452828520828652845282852080549091166001179055938352600982528083208684528252808320938352929052205460ff161515610dcb57600160a060020a0384166000818152600960209081526040808320868452825280832033808552908352818420805460ff19166001908117909155948452600a8352818420908452825282208054938401815582529020018290555b7fc007803323f3ca89cb3f8af1a12f354dc108e9dd4988c312b3f7a878914987ce3385856040516108b293929190611939565b600660209081526000928352604080842090915290825290205460ff1681565b600960209081526000938452604080852082529284528284209052825290205460ff1681565b33610e4d6109cd565b600160a060020a031614610e6057600080fd5b6000805460ff191660011790556040517fd5a2a04a775c741c2ca0dc46ea7ce4835190e1aaf1ca018def0e82568ec3361690610e9d903390611910565b60405180910390a1565b600760209081526000928352604080842090915290825290205460ff1681565b610ecf61163f565b1515610eda57600080fd5b60038190556040517f4f1d324a1cbffc352fb64f1d73d95e4b200d92f99ef39bf2d7f5b41f946909d690610f0f9083906119af565b60405180910390a150565b60045460ff1681565b600860209081526000938452604080852082529284528284209052825290205460ff1681565b600082600160a060020a0381161515610f6157600080fd5b600160a060020a038116301415610f7757600080fd5b33600160a060020a0385161415610f8d57600080fd5b610f968361151e565b600160a060020a03851660009081526002602052604090205490925060ff168015610fe65750600160a060020a0384166000908152600260208181526040808420868552909201905290205460ff165b1515610ff157600080fd5b600160a060020a03841660009081526005602052604090205460ff161561101757600080fd5b600160a060020a0384166000908152600860209081526040808320858452825280832033808552925291829020805460ff1916905590517f6fa0cdb0b5c22004ccfcaee11eed450e0184dda8edd417ae2410f0a883fdb740916108b29187908790611939565b61108561163f565b151561109057600080fd5b80600160a060020a03811615156110a657600080fd5b600160a060020a0381163014156110bc57600080fd5b6110c882600354611655565b7f7f3a8349917003ed377f6e9ae1608b92edd893903f8983bd274b1f8373dd3b1182600354604051610669929190611986565b600061110561163f565b151561111057600080fd5b81600160a060020a038116151561112657600080fd5b600160a060020a03811630141561113c57600080fd5b600054600160a060020a0384811661010090920416146111bd5760008054600160a060020a0385811661010090810261010060a860020a0319841617909355604051929091041692507f977e5fa58e458501775e0008d275006294c5249e3c08d1d0e3a9f3acad14f6e4906111b4908490869061191e565b60405180910390a15b505050565b600081600160a060020a03811615156111da57600080fd5b600160a060020a0381163014156111f057600080fd5b33600160a060020a038416141561120657600080fd5b600160a060020a03831660009081526002602052604090205460ff16151561122d57600080fd5b600160a060020a03831660009081526005602052604090205460ff161561128157600160a060020a03831660009081526006602090815260408083203384529091529020805460ff19166001179055611357565b600160a060020a03831660009081526007602090815260408083203384529091528120805460ff1916905591505b600160a060020a0383166000908152600a6020908152604080832033845290915290205482101561135757600160a060020a0383166000908152600860209081526040808320600a83528184203385529092528220805460019391908690811061131557fe5b600091825260208083209190910154835282810193909352604091820181203382529092529020805460ff1916911515919091179055600191909101906112af565b7fe25d4094f2181ddef4410dcc1539a7488abd881a90c56078314b9f70affc5f7e33846040516111b492919061191e565b60006113926116a7565b151561139d57600080fd5b81600160a060020a03811615156113b357600080fd5b600160a060020a0381163014156113c957600080fd5b600154600160a060020a038481169116146111bd5760018054600160a060020a03858116600160a060020a0319831617909255604051911692507f9f611b789425d0d5b90b920f1b2852907dd865c80074a30b1629aaa041d1812c906111b4908490869061191e565b6000546101009004600160a060020a031681565b61144e61163f565b151561145957600080fd5b6004805460ff19166001179055565b600a6020528260005260406000206020528160005260406000208181548110151561148f57fe5b9060005260206000200160009250925050505481565b6114ad61163f565b15156114b857600080fd5b80600160a060020a03811615156114ce57600080fd5b600160a060020a0381163014156114e457600080fd5b6114ef826000611655565b7fb619d545cb511bd5f02907a1eac4f4cb8dace7b1846852fb0bf5e553937481c1826040516106699190611910565b6000816040516020018082805190602001908083835b602083106115535780518252601f199092019160209182019101611534565b6001836020036101000a0380198251168184511680821785525050505050509050019150506040516020818303038152906040526040518082805190602001908083835b602083106115b65780518252601f199092019160209182019101611597565b5181516020939093036101000a6000190180199091169216919091179052604051920182900390912095945050505050565b600160a060020a03821660009081526005602052604081205460ff1661160f576000610bd3565b50600160a060020a03918216600090815260066020908152604080832093909416825291909152205460ff161590565b6000546101009004600160a060020a0316331490565b600160a060020a03821660009081526002602052604090205460ff1615156116a357600160a060020a0382166000908152600260205260409020805460ff1916600190811782554283019101555b5050565b600154600160a060020a0316331490565b6000610bd38235611a0e565b6000610bd38235611a1f565b6000601f820183136116e157600080fd5b81356116f46116ef826119e3565b6119bd565b9150808252602083016020830185838301111561171057600080fd5b61171b838284611a22565b50505092915050565b60006020828403121561173657600080fd5b6000610c2284846116b8565b6000806040838503121561175557600080fd5b600061176185856116b8565b9250506020611772858286016116b8565b9150509250929050565b60008060006060848603121561179157600080fd5b600061179d86866116b8565b93505060206117ae868287016116b8565b92505060406117bf868287016116c4565b9150509250925092565b6000806000606084860312156117de57600080fd5b60006117ea86866116b8565b93505060206117fb868287016116c4565b92505060406117bf868287016116b8565b6000806040838503121561181f57600080fd5b600061182b85856116b8565b92505060208301356001604060020a0381111561184757600080fd5b611772858286016116d0565b60008060006060848603121561186857600080fd5b600061187486866116b8565b93505060208401356001604060020a0381111561189057600080fd5b6117fb868287016116d0565b6000602082840312156118ae57600080fd5b6000610c2284846116c4565b6118c381611a0e565b82525050565b6118c381611a1a565b6118c381611a1f565b60006118e682611a0a565b8084526118fa816020860160208601611a2e565b61190381611a5e565b9093016020019392505050565b6020810161071182846118ba565b6040810161192c82856118ba565b610bd360208301846118ba565b6060810161194782866118ba565b61195460208301856118ba565b81810360408301526106d681846118db565b6040810161197482856118ba565b8181036020830152610c2281846118db565b6040810161199482856118ba565b610bd360208301846118d2565b6020810161071182846118c9565b6020810161071182846118d2565b6040518181016001604060020a03811182821017156119db57600080fd5b604052919050565b60006001604060020a038211156119f957600080fd5b506020601f91909101601f19160190565b5190565b600160a060020a031690565b151590565b90565b82818337506000910152565b60005b83811015611a49578181015183820152602001611a31565b83811115611a58576000848401525b50505050565b601f01601f1916905600a265627a7a72305820d1f429e226752eceb50b7f361577f727bab546557433c458847d4cbbfb643c026c6578706572696d656e74616cf50037",
  "source": "/*\n * Hubii Nahmii\n *\n * Compliant with the Hubii Nahmii specification v0.12.\n *\n * Copyright (C) 2017-2018 Hubii AS\n */\n\npragma solidity ^0.4.25;\npragma experimental ABIEncoderV2;\n\nimport {Ownable} from \"../Ownable.sol\";\nimport {AuthorizableServable} from \"../AuthorizableServable.sol\";\n\n/**\n * @title TestAuthorizableServable\n * @notice A test contract that extends AuthorizableServable\n */\ncontract TestAuthorizableServable is Ownable, AuthorizableServable {\n    //\n    // Constructor\n    // -----------------------------------------------------------------------------------------------------------------\n    constructor(address deployer) Ownable(deployer) public {\n    }\n}",
  "sourcePath": "/opt/buildagent/work/855e104608380c36/contracts/test/TestAuthorizableServable.sol",
  "compiler": {
    "name": "solc",
    "version": "0.4.25+commit.59dbf8f1.Emscripten.clang"
  },
  "schemaVersion": "2.0.2",
  "updatedAt": "2019-04-02T06:20:37.148Z"
}