{
  "contractName": "TestServable",
  "abi": [
    {
      "inputs": [
        {
          "internalType": "address",
          "name": "deployer",
          "type": "address"
        }
      ],
      "payable": false,
      "stateMutability": "nonpayable",
      "type": "constructor"
    },
    {
      "anonymous": false,
      "inputs": [
        {
          "indexed": false,
          "internalType": "address",
          "name": "service",
          "type": "address"
        }
      ],
      "name": "DeregisterServiceEvent",
      "type": "event"
    },
    {
      "anonymous": false,
      "inputs": [
        {
          "indexed": false,
          "internalType": "address",
          "name": "service",
          "type": "address"
        },
        {
          "indexed": false,
          "internalType": "string",
          "name": "action",
          "type": "string"
        }
      ],
      "name": "DisableServiceActionEvent",
      "type": "event"
    },
    {
      "anonymous": false,
      "inputs": [
        {
          "indexed": false,
          "internalType": "address",
          "name": "service",
          "type": "address"
        },
        {
          "indexed": false,
          "internalType": "string",
          "name": "action",
          "type": "string"
        }
      ],
      "name": "EnableServiceActionEvent",
      "type": "event"
    },
    {
      "anonymous": false,
      "inputs": [
        {
          "indexed": false,
          "internalType": "address",
          "name": "service",
          "type": "address"
        },
        {
          "indexed": false,
          "internalType": "uint256",
          "name": "timeout",
          "type": "uint256"
        }
      ],
      "name": "RegisterServiceDeferredEvent",
      "type": "event"
    },
    {
      "anonymous": false,
      "inputs": [
        {
          "indexed": false,
          "internalType": "address",
          "name": "service",
          "type": "address"
        }
      ],
      "name": "RegisterServiceEvent",
      "type": "event"
    },
    {
      "anonymous": false,
      "inputs": [
        {
          "indexed": false,
          "internalType": "address",
          "name": "wallet",
          "type": "address"
        }
      ],
      "name": "SelfDestructionDisabledEvent",
      "type": "event"
    },
    {
      "anonymous": false,
      "inputs": [
        {
          "indexed": false,
          "internalType": "uint256",
          "name": "timeoutInSeconds",
          "type": "uint256"
        }
      ],
      "name": "ServiceActivationTimeoutEvent",
      "type": "event"
    },
    {
      "anonymous": false,
      "inputs": [
        {
          "indexed": false,
          "internalType": "address",
          "name": "oldDeployer",
          "type": "address"
        },
        {
          "indexed": false,
          "internalType": "address",
          "name": "newDeployer",
          "type": "address"
        }
      ],
      "name": "SetDeployerEvent",
      "type": "event"
    },
    {
      "anonymous": false,
      "inputs": [
        {
          "indexed": false,
          "internalType": "address",
          "name": "oldOperator",
          "type": "address"
        },
        {
          "indexed": false,
          "internalType": "address",
          "name": "newOperator",
          "type": "address"
        }
      ],
      "name": "SetOperatorEvent",
      "type": "event"
    },
    {
      "anonymous": false,
      "inputs": [
        {
          "indexed": false,
          "internalType": "address",
          "name": "wallet",
          "type": "address"
        }
      ],
      "name": "TriggerSelfDestructionEvent",
      "type": "event"
    },
    {
      "constant": true,
      "inputs": [],
      "name": "deployer",
      "outputs": [
        {
          "internalType": "address",
          "name": "",
          "type": "address"
        }
      ],
      "payable": false,
      "stateMutability": "view",
      "type": "function"
    },
    {
      "constant": false,
      "inputs": [
        {
          "internalType": "address",
          "name": "service",
          "type": "address"
        }
      ],
      "name": "deregisterService",
      "outputs": [],
      "payable": false,
      "stateMutability": "nonpayable",
      "type": "function"
    },
    {
      "constant": true,
      "inputs": [],
      "name": "destructor",
      "outputs": [
        {
          "internalType": "address",
          "name": "",
          "type": "address"
        }
      ],
      "payable": false,
      "stateMutability": "view",
      "type": "function"
    },
    {
      "constant": false,
      "inputs": [],
      "name": "disableSelfDestruction",
      "outputs": [],
      "payable": false,
      "stateMutability": "nonpayable",
      "type": "function"
    },
    {
      "constant": false,
      "inputs": [
        {
          "internalType": "address",
          "name": "service",
          "type": "address"
        },
        {
          "internalType": "string",
          "name": "action",
          "type": "string"
        }
      ],
      "name": "disableServiceAction",
      "outputs": [],
      "payable": false,
      "stateMutability": "nonpayable",
      "type": "function"
    },
    {
      "constant": false,
      "inputs": [
        {
          "internalType": "address",
          "name": "service",
          "type": "address"
        },
        {
          "internalType": "string",
          "name": "action",
          "type": "string"
        }
      ],
      "name": "enableServiceAction",
      "outputs": [],
      "payable": false,
      "stateMutability": "nonpayable",
      "type": "function"
    },
    {
      "constant": true,
      "inputs": [
        {
          "internalType": "address",
          "name": "service",
          "type": "address"
        },
        {
          "internalType": "string",
          "name": "action",
          "type": "string"
        }
      ],
      "name": "isEnabledServiceAction",
      "outputs": [
        {
          "internalType": "bool",
          "name": "",
          "type": "bool"
        }
      ],
      "payable": false,
      "stateMutability": "view",
      "type": "function"
    },
    {
      "constant": true,
      "inputs": [
        {
          "internalType": "address",
          "name": "service",
          "type": "address"
        }
      ],
      "name": "isRegisteredActiveService",
      "outputs": [
        {
          "internalType": "bool",
          "name": "",
          "type": "bool"
        }
      ],
      "payable": false,
      "stateMutability": "view",
      "type": "function"
    },
    {
      "constant": true,
      "inputs": [
        {
          "internalType": "address",
          "name": "service",
          "type": "address"
        }
      ],
      "name": "isRegisteredService",
      "outputs": [
        {
          "internalType": "bool",
          "name": "",
          "type": "bool"
        }
      ],
      "payable": false,
      "stateMutability": "view",
      "type": "function"
    },
    {
      "constant": true,
      "inputs": [],
      "name": "operator",
      "outputs": [
        {
          "internalType": "address",
          "name": "",
          "type": "address"
        }
      ],
      "payable": false,
      "stateMutability": "view",
      "type": "function"
    },
    {
      "constant": false,
      "inputs": [
        {
          "internalType": "address",
          "name": "service",
          "type": "address"
        }
      ],
      "name": "registerService",
      "outputs": [],
      "payable": false,
      "stateMutability": "nonpayable",
      "type": "function"
    },
    {
      "constant": false,
      "inputs": [
        {
          "internalType": "address",
          "name": "service",
          "type": "address"
        }
      ],
      "name": "registerServiceDeferred",
      "outputs": [],
      "payable": false,
      "stateMutability": "nonpayable",
      "type": "function"
    },
    {
      "constant": true,
      "inputs": [],
      "name": "selfDestructionDisabled",
      "outputs": [
        {
          "internalType": "bool",
          "name": "",
          "type": "bool"
        }
      ],
      "payable": false,
      "stateMutability": "view",
      "type": "function"
    },
    {
      "constant": true,
      "inputs": [],
      "name": "serviceActivationTimeout",
      "outputs": [
        {
          "internalType": "uint256",
          "name": "",
          "type": "uint256"
        }
      ],
      "payable": false,
      "stateMutability": "view",
      "type": "function"
    },
    {
      "constant": false,
      "inputs": [
        {
          "internalType": "address",
          "name": "newDeployer",
          "type": "address"
        }
      ],
      "name": "setDeployer",
      "outputs": [],
      "payable": false,
      "stateMutability": "nonpayable",
      "type": "function"
    },
    {
      "constant": false,
      "inputs": [
        {
          "internalType": "address",
          "name": "newOperator",
          "type": "address"
        }
      ],
      "name": "setOperator",
      "outputs": [],
      "payable": false,
      "stateMutability": "nonpayable",
      "type": "function"
    },
    {
      "constant": false,
      "inputs": [
        {
          "internalType": "uint256",
          "name": "timeoutInSeconds",
          "type": "uint256"
        }
      ],
      "name": "setServiceActivationTimeout",
      "outputs": [],
      "payable": false,
      "stateMutability": "nonpayable",
      "type": "function"
    },
    {
      "constant": false,
      "inputs": [],
      "name": "triggerSelfDestruction",
      "outputs": [],
      "payable": false,
      "stateMutability": "nonpayable",
      "type": "function"
    }
  ],
  "bytecode": "0x608060405234801561001057600080fd5b50604051610e49380380610e4983398101604081905261002f916100a9565b80806001600160a01b03811661004457600080fd5b6001600160a01b03811630141561005a57600080fd5b5060008054610100600160a81b0319166101006001600160a01b0393909316928302179055600180546001600160a01b0319169091179055506100f7565b80516100a3816100e0565b92915050565b6000602082840312156100bb57600080fd5b60006100c78484610098565b949350505050565b60006001600160a01b0382166100a3565b6100e9816100cf565b81146100f457600080fd5b50565b610d43806101066000396000f3fe608060405234801561001057600080fd5b50600436106100e65760003560e01c806317ba3f90146100eb5780632738a112146101145780632b5672e31461011e5780632b91e0a9146101315780632f013a00146101445780633b58c5011461014c5780633b7bea6c1461015f5780634476d23b1461017457806350b08c0214610189578063570ca7351461019c5780635df1b0a3146101a457806370327ea1146101b75780637e15dd5c146101bf5780638e8cef12146101d257806396214735146101e5578063b3ab15fb146101f8578063d5f394881461020b578063fdd9ec7d14610213575b600080fd5b6100fe6100f9366004610a4c565b610226565b60405161010b9190610bef565b60405180910390f35b61011c61025e565b005b61011c61012c366004610a6a565b6102c4565b6100fe61013f366004610a4c565b6103ec565b6100fe61040a565b61011c61015a366004610a6a565b610413565b6101676104ed565b60405161010b9190610bfd565b61017c6104f3565b60405161010b9190610b7d565b61011c610197366004610a4c565b610507565b61017c6105c3565b6100fe6101b2366004610a6a565b6105d2565b61011c610622565b61011c6101cd366004610abb565b610685565b61011c6101e0366004610a4c565b6106d6565b61011c6101f3366004610a4c565b610750565b61011c610206366004610a4c565b610810565b61017c6108b3565b61011c610221366004610a4c565b6108c7565b6000610231826103ec565b801561025857506001600160a01b0382166000908152600260205260409020600101544210155b92915050565b336102676104f3565b6001600160a01b03161461027a57600080fd5b60005460ff161561028a57600080fd5b7f787a5d936e74f4b564b9153575886059829c78cd9927b1be5e0d976b317ef736336040516102b99190610b8b565b60405180910390a133ff5b6102cc61093c565b6102d557600080fd5b816001600160a01b0381166102e957600080fd5b6001600160a01b0381163014156102ff57600080fd5b6001600160a01b03831660009081526002602052604090205460ff1661032457600080fd5b600061032f83610952565b6001600160a01b0385166000908152600260208181526040808420858552909201905290205490915060ff161561036557600080fd5b6001600160a01b03841660009081526002602081815260408084208585528084018352818520805460ff19166001908117909155938352600301805493840181558452922001829055517fec1b982d69bfc1a6fd8becf191d9a633486c822d3bdedd52303ca81fa6357501906103de9086908690610bb4565b60405180910390a150505050565b6001600160a01b031660009081526002602052604090205460ff1690565b60005460ff1681565b61041b61093c565b61042457600080fd5b816001600160a01b03811661043857600080fd5b6001600160a01b03811630141561044e57600080fd5b600061045983610952565b6001600160a01b0385166000908152600260208181526040808420858552909201905290205490915060ff1661048e57600080fd5b6001600160a01b0384166000908152600260208181526040808420858552909201905290819020805460ff19169055517f92f4af6130f47c92f3899e06611c8c6ef191fb81207ad2675d134af619d2fe7d906103de9086908690610bb4565b60035481565b60005461010090046001600160a01b031690565b61050f61093c565b61051857600080fd5b806001600160a01b03811661052c57600080fd5b6001600160a01b03811630141561054257600080fd5b6001600160a01b03821660009081526002602052604090205460ff1661056757600080fd5b6001600160a01b03821660009081526002602052604090819020805460ff19169055517f777645c5437dfbf962f57a281ead25f3d513f2f8e938685bbfc1738e81c9880e906105b7908490610b7d565b60405180910390a15050565b6001546001600160a01b031681565b6000806105de83610952565b90506105e984610226565b801561061a57506001600160a01b0384166000908152600260208181526040808420858552909201905290205460ff165b949350505050565b3361062b6104f3565b6001600160a01b03161461063e57600080fd5b6000805460ff191660011790556040517fd5a2a04a775c741c2ca0dc46ea7ce4835190e1aaf1ca018def0e82568ec336169061067b903390610b8b565b60405180910390a1565b61068d61093c565b61069657600080fd5b60038190556040517f4f1d324a1cbffc352fb64f1d73d95e4b200d92f99ef39bf2d7f5b41f946909d6906106cb908390610bfd565b60405180910390a150565b6106de61093c565b6106e757600080fd5b806001600160a01b0381166106fb57600080fd5b6001600160a01b03811630141561071157600080fd5b61071d82600354610982565b7f7f3a8349917003ed377f6e9ae1608b92edd893903f8983bd274b1f8373dd3b11826003546040516105b7929190610bd4565b61075861093c565b61076157600080fd5b806001600160a01b03811661077557600080fd5b6001600160a01b03811630141561078b57600080fd5b6000546001600160a01b03838116610100909204161461080c57600080546001600160a01b03848116610100908102610100600160a81b03198416179093556040519290910416907f977e5fa58e458501775e0008d275006294c5249e3c08d1d0e3a9f3acad14f6e4906108029083908690610b99565b60405180910390a1505b5050565b6108186109d1565b61082157600080fd5b806001600160a01b03811661083557600080fd5b6001600160a01b03811630141561084b57600080fd5b6001546001600160a01b0383811691161461080c57600180546001600160a01b038481166001600160a01b03198316179092556040519116907f9f611b789425d0d5b90b920f1b2852907dd865c80074a30b1629aaa041d1812c906108029083908690610b99565b60005461010090046001600160a01b031681565b6108cf61093c565b6108d857600080fd5b806001600160a01b0381166108ec57600080fd5b6001600160a01b03811630141561090257600080fd5b61090d826000610982565b7fb619d545cb511bd5f02907a1eac4f4cb8dace7b1846852fb0bf5e553937481c1826040516105b79190610b7d565b60005461010090046001600160a01b0316331490565b6000816040516020016109659190610b6a565b604051602081830303815290604052805190602001209050919050565b6001600160a01b03821660009081526002602052604090205460ff1661080c576001600160a01b0382166000908152600260205260409020805460ff1916600190811782554283019101555050565b6001546001600160a01b0316331490565b803561025881610ce0565b600082601f8301126109fe57600080fd5b8135610a11610a0c82610c31565b610c0b565b91508082526020830160208301858383011115610a2d57600080fd5b610a38838284610c9a565b50505092915050565b803561025881610cf7565b600060208284031215610a5e57600080fd5b600061061a84846109e2565b60008060408385031215610a7d57600080fd5b6000610a8985856109e2565b92505060208301356001600160401b03811115610aa557600080fd5b610ab1858286016109ed565b9150509250929050565b600060208284031215610acd57600080fd5b600061061a8484610a41565b610ae281610c89565b82525050565b610ae281610c6a565b610ae281610c75565b6000610b0582610c58565b610b0f8185610c5c565b9350610b1f818560208601610ca6565b610b2881610cd6565b9093019392505050565b6000610b3d82610c58565b610b478185610c65565b9350610b57818560208601610ca6565b9290920192915050565b610ae281610c86565b6000610b768284610b32565b9392505050565b602081016102588284610ae8565b602081016102588284610ad9565b60408101610ba78285610ae8565b610b766020830184610ae8565b60408101610bc28285610ae8565b818103602083015261061a8184610afa565b60408101610be28285610ae8565b610b766020830184610b61565b602081016102588284610af1565b602081016102588284610b61565b6040518181016001600160401b0381118282101715610c2957600080fd5b604052919050565b60006001600160401b03821115610c4757600080fd5b506020601f91909101601f19160190565b5190565b90815260200190565b919050565b600061025882610c7a565b151590565b6001600160a01b031690565b90565b600061025882600061025882610c6a565b82818337506000910152565b60005b83811015610cc1578181015183820152602001610ca9565b83811115610cd0576000848401525b50505050565b601f01601f191690565b610ce981610c6a565b8114610cf457600080fd5b50565b610ce981610c8656fea365627a7a72315820b78778e206f701a77496b1161effea28b3d8d143c6986fc15a26ef9b94be5b536c6578706572696d656e74616cf564736f6c634300050c0040",
  "source": "/*\n * Hubii Nahmii\n *\n * Compliant with the Hubii Nahmii specification v0.12.\n *\n * Copyright (C) 2017-2018 Hubii AS\n */\n\npragma solidity >=0.4.25 <0.6.0;\npragma experimental ABIEncoderV2;\n\nimport {Ownable} from \"../Ownable.sol\";\nimport {Servable} from \"../Servable.sol\";\n\n/**\n * @title TestServable\n * @notice A test contract that extends Servable\n */\ncontract TestServable is Ownable, Servable {\n    //\n    // Constructor\n    // -----------------------------------------------------------------------------------------------------------------\n    constructor(address deployer) Ownable(deployer) public {\n    }\n}",
  "sourcePath": "/opt/buildagent/work/855e104608380c36/contracts/test/TestServable.sol",
  "compiler": {
    "name": "solc",
    "version": "0.5.12+commit.7709ece9.Emscripten.clang"
  },
  "schemaVersion": "2.0.3",
  "updatedAt": "2019-10-22T21:00:29.613Z"
}