{
  "contractName": "TestServable",
  "abi": [
    {
      "constant": true,
      "inputs": [
        {
          "name": "service",
          "type": "address"
        }
      ],
      "name": "isRegisteredActiveService",
      "outputs": [
        {
          "name": "",
          "type": "bool"
        }
      ],
      "payable": false,
      "stateMutability": "view",
      "type": "function"
    },
    {
      "constant": false,
      "inputs": [],
      "name": "triggerSelfDestruction",
      "outputs": [],
      "payable": false,
      "stateMutability": "nonpayable",
      "type": "function"
    },
    {
      "constant": false,
      "inputs": [
        {
          "name": "service",
          "type": "address"
        },
        {
          "name": "action",
          "type": "string"
        }
      ],
      "name": "enableServiceAction",
      "outputs": [],
      "payable": false,
      "stateMutability": "nonpayable",
      "type": "function"
    },
    {
      "constant": true,
      "inputs": [
        {
          "name": "service",
          "type": "address"
        }
      ],
      "name": "isRegisteredService",
      "outputs": [
        {
          "name": "",
          "type": "bool"
        }
      ],
      "payable": false,
      "stateMutability": "view",
      "type": "function"
    },
    {
      "constant": true,
      "inputs": [],
      "name": "selfDestructionDisabled",
      "outputs": [
        {
          "name": "",
          "type": "bool"
        }
      ],
      "payable": false,
      "stateMutability": "view",
      "type": "function"
    },
    {
      "constant": false,
      "inputs": [
        {
          "name": "service",
          "type": "address"
        },
        {
          "name": "action",
          "type": "string"
        }
      ],
      "name": "disableServiceAction",
      "outputs": [],
      "payable": false,
      "stateMutability": "nonpayable",
      "type": "function"
    },
    {
      "constant": true,
      "inputs": [],
      "name": "serviceActivationTimeout",
      "outputs": [
        {
          "name": "",
          "type": "uint256"
        }
      ],
      "payable": false,
      "stateMutability": "view",
      "type": "function"
    },
    {
      "constant": true,
      "inputs": [],
      "name": "destructor",
      "outputs": [
        {
          "name": "",
          "type": "address"
        }
      ],
      "payable": false,
      "stateMutability": "view",
      "type": "function"
    },
    {
      "constant": false,
      "inputs": [
        {
          "name": "service",
          "type": "address"
        }
      ],
      "name": "deregisterService",
      "outputs": [],
      "payable": false,
      "stateMutability": "nonpayable",
      "type": "function"
    },
    {
      "constant": true,
      "inputs": [],
      "name": "operator",
      "outputs": [
        {
          "name": "",
          "type": "address"
        }
      ],
      "payable": false,
      "stateMutability": "view",
      "type": "function"
    },
    {
      "constant": true,
      "inputs": [
        {
          "name": "service",
          "type": "address"
        },
        {
          "name": "action",
          "type": "string"
        }
      ],
      "name": "isEnabledServiceAction",
      "outputs": [
        {
          "name": "",
          "type": "bool"
        }
      ],
      "payable": false,
      "stateMutability": "view",
      "type": "function"
    },
    {
      "constant": false,
      "inputs": [],
      "name": "disableSelfDestruction",
      "outputs": [],
      "payable": false,
      "stateMutability": "nonpayable",
      "type": "function"
    },
    {
      "constant": false,
      "inputs": [
        {
          "name": "timeoutInSeconds",
          "type": "uint256"
        }
      ],
      "name": "setServiceActivationTimeout",
      "outputs": [],
      "payable": false,
      "stateMutability": "nonpayable",
      "type": "function"
    },
    {
      "constant": false,
      "inputs": [
        {
          "name": "service",
          "type": "address"
        }
      ],
      "name": "registerServiceDeferred",
      "outputs": [],
      "payable": false,
      "stateMutability": "nonpayable",
      "type": "function"
    },
    {
      "constant": false,
      "inputs": [
        {
          "name": "newDeployer",
          "type": "address"
        }
      ],
      "name": "setDeployer",
      "outputs": [],
      "payable": false,
      "stateMutability": "nonpayable",
      "type": "function"
    },
    {
      "constant": false,
      "inputs": [
        {
          "name": "newOperator",
          "type": "address"
        }
      ],
      "name": "setOperator",
      "outputs": [],
      "payable": false,
      "stateMutability": "nonpayable",
      "type": "function"
    },
    {
      "constant": true,
      "inputs": [],
      "name": "deployer",
      "outputs": [
        {
          "name": "",
          "type": "address"
        }
      ],
      "payable": false,
      "stateMutability": "view",
      "type": "function"
    },
    {
      "constant": false,
      "inputs": [
        {
          "name": "service",
          "type": "address"
        }
      ],
      "name": "registerService",
      "outputs": [],
      "payable": false,
      "stateMutability": "nonpayable",
      "type": "function"
    },
    {
      "inputs": [
        {
          "name": "deployer",
          "type": "address"
        }
      ],
      "payable": false,
      "stateMutability": "nonpayable",
      "type": "constructor"
    },
    {
      "anonymous": false,
      "inputs": [
        {
          "indexed": false,
          "name": "timeoutInSeconds",
          "type": "uint256"
        }
      ],
      "name": "ServiceActivationTimeoutEvent",
      "type": "event"
    },
    {
      "anonymous": false,
      "inputs": [
        {
          "indexed": false,
          "name": "service",
          "type": "address"
        }
      ],
      "name": "RegisterServiceEvent",
      "type": "event"
    },
    {
      "anonymous": false,
      "inputs": [
        {
          "indexed": false,
          "name": "service",
          "type": "address"
        },
        {
          "indexed": false,
          "name": "timeout",
          "type": "uint256"
        }
      ],
      "name": "RegisterServiceDeferredEvent",
      "type": "event"
    },
    {
      "anonymous": false,
      "inputs": [
        {
          "indexed": false,
          "name": "service",
          "type": "address"
        }
      ],
      "name": "DeregisterServiceEvent",
      "type": "event"
    },
    {
      "anonymous": false,
      "inputs": [
        {
          "indexed": false,
          "name": "service",
          "type": "address"
        },
        {
          "indexed": false,
          "name": "action",
          "type": "string"
        }
      ],
      "name": "EnableServiceActionEvent",
      "type": "event"
    },
    {
      "anonymous": false,
      "inputs": [
        {
          "indexed": false,
          "name": "service",
          "type": "address"
        },
        {
          "indexed": false,
          "name": "action",
          "type": "string"
        }
      ],
      "name": "DisableServiceActionEvent",
      "type": "event"
    },
    {
      "anonymous": false,
      "inputs": [
        {
          "indexed": false,
          "name": "oldDeployer",
          "type": "address"
        },
        {
          "indexed": false,
          "name": "newDeployer",
          "type": "address"
        }
      ],
      "name": "SetDeployerEvent",
      "type": "event"
    },
    {
      "anonymous": false,
      "inputs": [
        {
          "indexed": false,
          "name": "oldOperator",
          "type": "address"
        },
        {
          "indexed": false,
          "name": "newOperator",
          "type": "address"
        }
      ],
      "name": "SetOperatorEvent",
      "type": "event"
    },
    {
      "anonymous": false,
      "inputs": [
        {
          "indexed": false,
          "name": "wallet",
          "type": "address"
        }
      ],
      "name": "SelfDestructionDisabledEvent",
      "type": "event"
    },
    {
      "anonymous": false,
      "inputs": [
        {
          "indexed": false,
          "name": "wallet",
          "type": "address"
        }
      ],
      "name": "TriggerSelfDestructionEvent",
      "type": "event"
    }
  ],
  "bytecode": "0x608060405234801561001057600080fd5b50604051602080610f38833981018060405261002f91908101906100ad565b8080600160a060020a038116151561004657600080fd5b600160a060020a03811630141561005c57600080fd5b506000805461010060a860020a031916610100600160a060020a039390931692830217905560018054600160a060020a0319169091179055506100df565b60006100a682516100d3565b9392505050565b6000602082840312156100bf57600080fd5b60006100cb848461009a565b949350505050565b600160a060020a031690565b610e4a806100ee6000396000f3006080604052600436106100e25763ffffffff60e060020a60003504166317ba3f9081146100e75780632738a1121461011d5780632b5672e3146101345780632b91e0a9146101545780632f013a00146101745780633b58c501146101895780633b7bea6c146101a95780634476d23b146101cb57806350b08c02146101ed578063570ca7351461020d5780635df1b0a31461022257806370327ea1146102425780637e15dd5c146102575780638e8cef12146102775780639621473514610297578063b3ab15fb146102b7578063d5f39488146102d7578063fdd9ec7d146102ec575b600080fd5b3480156100f357600080fd5b50610107610102366004610c02565b61030c565b6040516101149190610d49565b60405180910390f35b34801561012957600080fd5b50610132610344565b005b34801561014057600080fd5b5061013261014f366004610c20565b6103aa565b34801561016057600080fd5b5061010761016f366004610c02565b6104d8565b34801561018057600080fd5b506101076104f6565b34801561019557600080fd5b506101326101a4366004610c20565b6104ff565b3480156101b557600080fd5b506101be6105df565b6040516101149190610d57565b3480156101d757600080fd5b506101e06105e5565b6040516101149190610ce5565b3480156101f957600080fd5b50610132610208366004610c02565b6105f9565b34801561021957600080fd5b506101e06106bb565b34801561022e57600080fd5b5061010761023d366004610c20565b6106ca565b34801561024e57600080fd5b5061013261071a565b34801561026357600080fd5b50610132610272366004610c71565b61077d565b34801561028357600080fd5b50610132610292366004610c02565b6107d0565b3480156102a357600080fd5b506101326102b2366004610c02565b61084e565b3480156102c357600080fd5b506101326102d2366004610c02565b610915565b3480156102e357600080fd5b506101e06109bf565b3480156102f857600080fd5b50610132610307366004610c02565b6109d3565b6000610317826104d8565b801561033e5750600160a060020a0382166000908152600260205260409020600101544210155b92915050565b3361034d6105e5565b600160a060020a03161461036057600080fd5b60005460ff161561037057600080fd5b7f787a5d936e74f4b564b9153575886059829c78cd9927b1be5e0d976b317ef7363360405161039f9190610ce5565b60405180910390a133ff5b60006103b4610a4c565b15156103bf57600080fd5b82600160a060020a03811615156103d557600080fd5b600160a060020a0381163014156103eb57600080fd5b600160a060020a03841660009081526002602052604090205460ff16151561041257600080fd5b61041b83610a62565b600160a060020a0385166000908152600260208181526040808420858552909201905290205490925060ff161561045157600080fd5b600160a060020a03841660009081526002602081815260408084208685528084018352818520805460ff19166001908117909155938352600301805493840181558452922001839055517fec1b982d69bfc1a6fd8becf191d9a633486c822d3bdedd52303ca81fa6357501906104ca9086908690610d0e565b60405180910390a150505050565b600160a060020a031660009081526002602052604090205460ff1690565b60005460ff1681565b6000610509610a4c565b151561051457600080fd5b82600160a060020a038116151561052a57600080fd5b600160a060020a03811630141561054057600080fd5b61054983610a62565b600160a060020a0385166000908152600260208181526040808420858552909201905290205490925060ff16151561058057600080fd5b600160a060020a0384166000908152600260208181526040808420868552909201905290819020805460ff19169055517f92f4af6130f47c92f3899e06611c8c6ef191fb81207ad2675d134af619d2fe7d906104ca9086908690610d0e565b60035481565b6000546101009004600160a060020a031690565b610601610a4c565b151561060c57600080fd5b80600160a060020a038116151561062257600080fd5b600160a060020a03811630141561063857600080fd5b600160a060020a03821660009081526002602052604090205460ff16151561065f57600080fd5b600160a060020a03821660009081526002602052604090819020805460ff19169055517f777645c5437dfbf962f57a281ead25f3d513f2f8e938685bbfc1738e81c9880e906106af908490610ce5565b60405180910390a15050565b600154600160a060020a031681565b6000806106d683610a62565b90506106e18461030c565b80156107125750600160a060020a0384166000908152600260208181526040808420858552909201905290205460ff165b949350505050565b336107236105e5565b600160a060020a03161461073657600080fd5b6000805460ff191660011790556040517fd5a2a04a775c741c2ca0dc46ea7ce4835190e1aaf1ca018def0e82568ec3361690610773903390610ce5565b60405180910390a1565b610785610a4c565b151561079057600080fd5b60038190556040517f4f1d324a1cbffc352fb64f1d73d95e4b200d92f99ef39bf2d7f5b41f946909d6906107c5908390610d57565b60405180910390a150565b6107d8610a4c565b15156107e357600080fd5b80600160a060020a03811615156107f957600080fd5b600160a060020a03811630141561080f57600080fd5b61081b82600354610b2c565b7f7f3a8349917003ed377f6e9ae1608b92edd893903f8983bd274b1f8373dd3b11826003546040516106af929190610d2e565b6000610858610a4c565b151561086357600080fd5b81600160a060020a038116151561087957600080fd5b600160a060020a03811630141561088f57600080fd5b600054600160a060020a0384811661010090920416146109105760008054600160a060020a0385811661010090810261010060a860020a0319841617909355604051929091041692507f977e5fa58e458501775e0008d275006294c5249e3c08d1d0e3a9f3acad14f6e4906109079084908690610cf3565b60405180910390a15b505050565b600061091f610b7e565b151561092a57600080fd5b81600160a060020a038116151561094057600080fd5b600160a060020a03811630141561095657600080fd5b600154600160a060020a038481169116146109105760018054600160a060020a03858116600160a060020a0319831617909255604051911692507f9f611b789425d0d5b90b920f1b2852907dd865c80074a30b1629aaa041d1812c906109079084908690610cf3565b6000546101009004600160a060020a031681565b6109db610a4c565b15156109e657600080fd5b80600160a060020a03811615156109fc57600080fd5b600160a060020a038116301415610a1257600080fd5b610a1d826000610b2c565b7fb619d545cb511bd5f02907a1eac4f4cb8dace7b1846852fb0bf5e553937481c1826040516106af9190610ce5565b6000546101009004600160a060020a0316331490565b6000816040516020018082805190602001908083835b60208310610a975780518252601f199092019160209182019101610a78565b6001836020036101000a0380198251168184511680821785525050505050509050019150506040516020818303038152906040526040518082805190602001908083835b60208310610afa5780518252601f199092019160209182019101610adb565b5181516020939093036101000a6000190180199091169216919091179052604051920182900390912095945050505050565b600160a060020a03821660009081526002602052604090205460ff161515610b7a57600160a060020a0382166000908152600260205260409020805460ff1916600190811782554283019101555b5050565b600154600160a060020a0316331490565b6000610b9b8235610db6565b9392505050565b6000601f82018313610bb357600080fd5b8135610bc6610bc182610d8b565b610d65565b91508082526020830160208301858383011115610be257600080fd5b610bed838284610dca565b50505092915050565b6000610b9b8235610dc7565b600060208284031215610c1457600080fd5b60006107128484610b8f565b60008060408385031215610c3357600080fd5b6000610c3f8585610b8f565b92505060208301356001604060020a03811115610c5b57600080fd5b610c6785828601610ba2565b9150509250929050565b600060208284031215610c8357600080fd5b60006107128484610bf6565b610c9881610db6565b82525050565b610c9881610dc2565b6000610cb282610db2565b808452610cc6816020860160208601610dd6565b610ccf81610e06565b9093016020019392505050565b610c9881610dc7565b6020810161033e8284610c8f565b60408101610d018285610c8f565b610b9b6020830184610c8f565b60408101610d1c8285610c8f565b81810360208301526107128184610ca7565b60408101610d3c8285610c8f565b610b9b6020830184610cdc565b6020810161033e8284610c9e565b6020810161033e8284610cdc565b6040518181016001604060020a0381118282101715610d8357600080fd5b604052919050565b60006001604060020a03821115610da157600080fd5b506020601f91909101601f19160190565b5190565b600160a060020a031690565b151590565b90565b82818337506000910152565b60005b83811015610df1578181015183820152602001610dd9565b83811115610e00576000848401525b50505050565b601f01601f1916905600a265627a7a72305820192815a56b1c6e3cc3a8f18820a02806deb1c86f87bac4d5b2dd1313f4b6c87f6c6578706572696d656e74616cf50037",
  "source": "/*\n * Hubii Nahmii\n *\n * Compliant with the Hubii Nahmii specification v0.12.\n *\n * Copyright (C) 2017-2018 Hubii AS\n */\n\npragma solidity ^0.4.25;\npragma experimental ABIEncoderV2;\n\nimport {Ownable} from \"../Ownable.sol\";\nimport {Servable} from \"../Servable.sol\";\n\n/**\n * @title TestServable\n * @notice A test contract that extends Servable\n */\ncontract TestServable is Ownable, Servable {\n    //\n    // Constructor\n    // -----------------------------------------------------------------------------------------------------------------\n    constructor(address deployer) Ownable(deployer) public {\n    }\n}",
  "sourcePath": "/opt/buildagent/work/855e104608380c36/contracts/test/TestServable.sol",
  "compiler": {
    "name": "solc",
    "version": "0.4.25+commit.59dbf8f1.Emscripten.clang"
  },
  "schemaVersion": "2.0.2",
  "updatedAt": "2019-04-02T06:20:37.148Z"
}