{
  "contractName": "TestAuthorizableServable",
  "abi": [
    {
      "inputs": [
        {
          "internalType": "address",
          "name": "deployer",
          "type": "address"
        }
      ],
      "payable": false,
      "stateMutability": "nonpayable",
      "type": "constructor"
    },
    {
      "anonymous": false,
      "inputs": [
        {
          "indexed": false,
          "internalType": "address",
          "name": "wallet",
          "type": "address"
        },
        {
          "indexed": false,
          "internalType": "address",
          "name": "service",
          "type": "address"
        }
      ],
      "name": "AuthorizeInitialServiceEvent",
      "type": "event"
    },
    {
      "anonymous": false,
      "inputs": [
        {
          "indexed": false,
          "internalType": "address",
          "name": "wallet",
          "type": "address"
        },
        {
          "indexed": false,
          "internalType": "address",
          "name": "service",
          "type": "address"
        },
        {
          "indexed": false,
          "internalType": "string",
          "name": "action",
          "type": "string"
        }
      ],
      "name": "AuthorizeRegisteredServiceActionEvent",
      "type": "event"
    },
    {
      "anonymous": false,
      "inputs": [
        {
          "indexed": false,
          "internalType": "address",
          "name": "wallet",
          "type": "address"
        },
        {
          "indexed": false,
          "internalType": "address",
          "name": "service",
          "type": "address"
        }
      ],
      "name": "AuthorizeRegisteredServiceEvent",
      "type": "event"
    },
    {
      "anonymous": false,
      "inputs": [
        {
          "indexed": false,
          "internalType": "address",
          "name": "service",
          "type": "address"
        }
      ],
      "name": "DeregisterServiceEvent",
      "type": "event"
    },
    {
      "anonymous": false,
      "inputs": [
        {
          "indexed": false,
          "internalType": "address",
          "name": "service",
          "type": "address"
        },
        {
          "indexed": false,
          "internalType": "string",
          "name": "action",
          "type": "string"
        }
      ],
      "name": "DisableServiceActionEvent",
      "type": "event"
    },
    {
      "anonymous": false,
      "inputs": [
        {
          "indexed": false,
          "internalType": "address",
          "name": "service",
          "type": "address"
        },
        {
          "indexed": false,
          "internalType": "string",
          "name": "action",
          "type": "string"
        }
      ],
      "name": "EnableServiceActionEvent",
      "type": "event"
    },
    {
      "anonymous": false,
      "inputs": [
        {
          "indexed": false,
          "internalType": "address",
          "name": "service",
          "type": "address"
        },
        {
          "indexed": false,
          "internalType": "uint256",
          "name": "timeout",
          "type": "uint256"
        }
      ],
      "name": "RegisterServiceDeferredEvent",
      "type": "event"
    },
    {
      "anonymous": false,
      "inputs": [
        {
          "indexed": false,
          "internalType": "address",
          "name": "service",
          "type": "address"
        }
      ],
      "name": "RegisterServiceEvent",
      "type": "event"
    },
    {
      "anonymous": false,
      "inputs": [
        {
          "indexed": false,
          "internalType": "address",
          "name": "wallet",
          "type": "address"
        }
      ],
      "name": "SelfDestructionDisabledEvent",
      "type": "event"
    },
    {
      "anonymous": false,
      "inputs": [
        {
          "indexed": false,
          "internalType": "uint256",
          "name": "timeoutInSeconds",
          "type": "uint256"
        }
      ],
      "name": "ServiceActivationTimeoutEvent",
      "type": "event"
    },
    {
      "anonymous": false,
      "inputs": [
        {
          "indexed": false,
          "internalType": "address",
          "name": "oldDeployer",
          "type": "address"
        },
        {
          "indexed": false,
          "internalType": "address",
          "name": "newDeployer",
          "type": "address"
        }
      ],
      "name": "SetDeployerEvent",
      "type": "event"
    },
    {
      "anonymous": false,
      "inputs": [
        {
          "indexed": false,
          "internalType": "address",
          "name": "oldOperator",
          "type": "address"
        },
        {
          "indexed": false,
          "internalType": "address",
          "name": "newOperator",
          "type": "address"
        }
      ],
      "name": "SetOperatorEvent",
      "type": "event"
    },
    {
      "anonymous": false,
      "inputs": [
        {
          "indexed": false,
          "internalType": "address",
          "name": "wallet",
          "type": "address"
        }
      ],
      "name": "TriggerSelfDestructionEvent",
      "type": "event"
    },
    {
      "anonymous": false,
      "inputs": [
        {
          "indexed": false,
          "internalType": "address",
          "name": "wallet",
          "type": "address"
        },
        {
          "indexed": false,
          "internalType": "address",
          "name": "service",
          "type": "address"
        },
        {
          "indexed": false,
          "internalType": "string",
          "name": "action",
          "type": "string"
        }
      ],
      "name": "UnauthorizeRegisteredServiceActionEvent",
      "type": "event"
    },
    {
      "anonymous": false,
      "inputs": [
        {
          "indexed": false,
          "internalType": "address",
          "name": "wallet",
          "type": "address"
        },
        {
          "indexed": false,
          "internalType": "address",
          "name": "service",
          "type": "address"
        }
      ],
      "name": "UnauthorizeRegisteredServiceEvent",
      "type": "event"
    },
    {
      "constant": false,
      "inputs": [
        {
          "internalType": "address",
          "name": "service",
          "type": "address"
        }
      ],
      "name": "authorizeInitialService",
      "outputs": [],
      "payable": false,
      "stateMutability": "nonpayable",
      "type": "function"
    },
    {
      "constant": false,
      "inputs": [
        {
          "internalType": "address",
          "name": "service",
          "type": "address"
        }
      ],
      "name": "authorizeRegisteredService",
      "outputs": [],
      "payable": false,
      "stateMutability": "nonpayable",
      "type": "function"
    },
    {
      "constant": false,
      "inputs": [
        {
          "internalType": "address",
          "name": "service",
          "type": "address"
        },
        {
          "internalType": "string",
          "name": "action",
          "type": "string"
        }
      ],
      "name": "authorizeRegisteredServiceAction",
      "outputs": [],
      "payable": false,
      "stateMutability": "nonpayable",
      "type": "function"
    },
    {
      "constant": true,
      "inputs": [],
      "name": "deployer",
      "outputs": [
        {
          "internalType": "address",
          "name": "",
          "type": "address"
        }
      ],
      "payable": false,
      "stateMutability": "view",
      "type": "function"
    },
    {
      "constant": false,
      "inputs": [
        {
          "internalType": "address",
          "name": "service",
          "type": "address"
        }
      ],
      "name": "deregisterService",
      "outputs": [],
      "payable": false,
      "stateMutability": "nonpayable",
      "type": "function"
    },
    {
      "constant": true,
      "inputs": [],
      "name": "destructor",
      "outputs": [
        {
          "internalType": "address",
          "name": "",
          "type": "address"
        }
      ],
      "payable": false,
      "stateMutability": "view",
      "type": "function"
    },
    {
      "constant": false,
      "inputs": [],
      "name": "disableInitialServiceAuthorization",
      "outputs": [],
      "payable": false,
      "stateMutability": "nonpayable",
      "type": "function"
    },
    {
      "constant": false,
      "inputs": [],
      "name": "disableSelfDestruction",
      "outputs": [],
      "payable": false,
      "stateMutability": "nonpayable",
      "type": "function"
    },
    {
      "constant": false,
      "inputs": [
        {
          "internalType": "address",
          "name": "service",
          "type": "address"
        },
        {
          "internalType": "string",
          "name": "action",
          "type": "string"
        }
      ],
      "name": "disableServiceAction",
      "outputs": [],
      "payable": false,
      "stateMutability": "nonpayable",
      "type": "function"
    },
    {
      "constant": false,
      "inputs": [
        {
          "internalType": "address",
          "name": "service",
          "type": "address"
        },
        {
          "internalType": "string",
          "name": "action",
          "type": "string"
        }
      ],
      "name": "enableServiceAction",
      "outputs": [],
      "payable": false,
      "stateMutability": "nonpayable",
      "type": "function"
    },
    {
      "constant": true,
      "inputs": [],
      "name": "initialServiceAuthorizationDisabled",
      "outputs": [
        {
          "internalType": "bool",
          "name": "",
          "type": "bool"
        }
      ],
      "payable": false,
      "stateMutability": "view",
      "type": "function"
    },
    {
      "constant": true,
      "inputs": [
        {
          "internalType": "address",
          "name": "",
          "type": "address"
        }
      ],
      "name": "initialServiceAuthorizedMap",
      "outputs": [
        {
          "internalType": "bool",
          "name": "",
          "type": "bool"
        }
      ],
      "payable": false,
      "stateMutability": "view",
      "type": "function"
    },
    {
      "constant": true,
      "inputs": [
        {
          "internalType": "address",
          "name": "",
          "type": "address"
        },
        {
          "internalType": "address",
          "name": "",
          "type": "address"
        }
      ],
      "name": "initialServiceWalletUnauthorizedMap",
      "outputs": [
        {
          "internalType": "bool",
          "name": "",
          "type": "bool"
        }
      ],
      "payable": false,
      "stateMutability": "view",
      "type": "function"
    },
    {
      "constant": true,
      "inputs": [
        {
          "internalType": "address",
          "name": "service",
          "type": "address"
        },
        {
          "internalType": "address",
          "name": "wallet",
          "type": "address"
        }
      ],
      "name": "isAuthorizedRegisteredService",
      "outputs": [
        {
          "internalType": "bool",
          "name": "",
          "type": "bool"
        }
      ],
      "payable": false,
      "stateMutability": "view",
      "type": "function"
    },
    {
      "constant": true,
      "inputs": [
        {
          "internalType": "address",
          "name": "service",
          "type": "address"
        },
        {
          "internalType": "string",
          "name": "action",
          "type": "string"
        },
        {
          "internalType": "address",
          "name": "wallet",
          "type": "address"
        }
      ],
      "name": "isAuthorizedRegisteredServiceAction",
      "outputs": [
        {
          "internalType": "bool",
          "name": "",
          "type": "bool"
        }
      ],
      "payable": false,
      "stateMutability": "view",
      "type": "function"
    },
    {
      "constant": true,
      "inputs": [
        {
          "internalType": "address",
          "name": "service",
          "type": "address"
        },
        {
          "internalType": "string",
          "name": "action",
          "type": "string"
        }
      ],
      "name": "isEnabledServiceAction",
      "outputs": [
        {
          "internalType": "bool",
          "name": "",
          "type": "bool"
        }
      ],
      "payable": false,
      "stateMutability": "view",
      "type": "function"
    },
    {
      "constant": true,
      "inputs": [
        {
          "internalType": "address",
          "name": "service",
          "type": "address"
        }
      ],
      "name": "isRegisteredActiveService",
      "outputs": [
        {
          "internalType": "bool",
          "name": "",
          "type": "bool"
        }
      ],
      "payable": false,
      "stateMutability": "view",
      "type": "function"
    },
    {
      "constant": true,
      "inputs": [
        {
          "internalType": "address",
          "name": "service",
          "type": "address"
        }
      ],
      "name": "isRegisteredService",
      "outputs": [
        {
          "internalType": "bool",
          "name": "",
          "type": "bool"
        }
      ],
      "payable": false,
      "stateMutability": "view",
      "type": "function"
    },
    {
      "constant": true,
      "inputs": [],
      "name": "operator",
      "outputs": [
        {
          "internalType": "address",
          "name": "",
          "type": "address"
        }
      ],
      "payable": false,
      "stateMutability": "view",
      "type": "function"
    },
    {
      "constant": false,
      "inputs": [
        {
          "internalType": "address",
          "name": "service",
          "type": "address"
        }
      ],
      "name": "registerService",
      "outputs": [],
      "payable": false,
      "stateMutability": "nonpayable",
      "type": "function"
    },
    {
      "constant": false,
      "inputs": [
        {
          "internalType": "address",
          "name": "service",
          "type": "address"
        }
      ],
      "name": "registerServiceDeferred",
      "outputs": [],
      "payable": false,
      "stateMutability": "nonpayable",
      "type": "function"
    },
    {
      "constant": true,
      "inputs": [],
      "name": "selfDestructionDisabled",
      "outputs": [
        {
          "internalType": "bool",
          "name": "",
          "type": "bool"
        }
      ],
      "payable": false,
      "stateMutability": "view",
      "type": "function"
    },
    {
      "constant": true,
      "inputs": [
        {
          "internalType": "address",
          "name": "",
          "type": "address"
        },
        {
          "internalType": "bytes32",
          "name": "",
          "type": "bytes32"
        },
        {
          "internalType": "address",
          "name": "",
          "type": "address"
        }
      ],
      "name": "serviceActionWalletAuthorizedMap",
      "outputs": [
        {
          "internalType": "bool",
          "name": "",
          "type": "bool"
        }
      ],
      "payable": false,
      "stateMutability": "view",
      "type": "function"
    },
    {
      "constant": true,
      "inputs": [
        {
          "internalType": "address",
          "name": "",
          "type": "address"
        },
        {
          "internalType": "bytes32",
          "name": "",
          "type": "bytes32"
        },
        {
          "internalType": "address",
          "name": "",
          "type": "address"
        }
      ],
      "name": "serviceActionWalletTouchedMap",
      "outputs": [
        {
          "internalType": "bool",
          "name": "",
          "type": "bool"
        }
      ],
      "payable": false,
      "stateMutability": "view",
      "type": "function"
    },
    {
      "constant": true,
      "inputs": [],
      "name": "serviceActivationTimeout",
      "outputs": [
        {
          "internalType": "uint256",
          "name": "",
          "type": "uint256"
        }
      ],
      "payable": false,
      "stateMutability": "view",
      "type": "function"
    },
    {
      "constant": true,
      "inputs": [
        {
          "internalType": "address",
          "name": "",
          "type": "address"
        },
        {
          "internalType": "address",
          "name": "",
          "type": "address"
        },
        {
          "internalType": "uint256",
          "name": "",
          "type": "uint256"
        }
      ],
      "name": "serviceWalletActionList",
      "outputs": [
        {
          "internalType": "bytes32",
          "name": "",
          "type": "bytes32"
        }
      ],
      "payable": false,
      "stateMutability": "view",
      "type": "function"
    },
    {
      "constant": true,
      "inputs": [
        {
          "internalType": "address",
          "name": "",
          "type": "address"
        },
        {
          "internalType": "address",
          "name": "",
          "type": "address"
        }
      ],
      "name": "serviceWalletAuthorizedMap",
      "outputs": [
        {
          "internalType": "bool",
          "name": "",
          "type": "bool"
        }
      ],
      "payable": false,
      "stateMutability": "view",
      "type": "function"
    },
    {
      "constant": false,
      "inputs": [
        {
          "internalType": "address",
          "name": "newDeployer",
          "type": "address"
        }
      ],
      "name": "setDeployer",
      "outputs": [],
      "payable": false,
      "stateMutability": "nonpayable",
      "type": "function"
    },
    {
      "constant": false,
      "inputs": [
        {
          "internalType": "address",
          "name": "newOperator",
          "type": "address"
        }
      ],
      "name": "setOperator",
      "outputs": [],
      "payable": false,
      "stateMutability": "nonpayable",
      "type": "function"
    },
    {
      "constant": false,
      "inputs": [
        {
          "internalType": "uint256",
          "name": "timeoutInSeconds",
          "type": "uint256"
        }
      ],
      "name": "setServiceActivationTimeout",
      "outputs": [],
      "payable": false,
      "stateMutability": "nonpayable",
      "type": "function"
    },
    {
      "constant": false,
      "inputs": [],
      "name": "triggerSelfDestruction",
      "outputs": [],
      "payable": false,
      "stateMutability": "nonpayable",
      "type": "function"
    },
    {
      "constant": false,
      "inputs": [
        {
          "internalType": "address",
          "name": "service",
          "type": "address"
        }
      ],
      "name": "unauthorizeRegisteredService",
      "outputs": [],
      "payable": false,
      "stateMutability": "nonpayable",
      "type": "function"
    },
    {
      "constant": false,
      "inputs": [
        {
          "internalType": "address",
          "name": "service",
          "type": "address"
        },
        {
          "internalType": "string",
          "name": "action",
          "type": "string"
        }
      ],
      "name": "unauthorizeRegisteredServiceAction",
      "outputs": [],
      "payable": false,
      "stateMutability": "nonpayable",
      "type": "function"
    }
  ],
  "bytecode": "0x60806040523480156200001157600080fd5b5060405162001a1538038062001a158339810160408190526200003491620000b3565b80806001600160a01b0381166200004a57600080fd5b6001600160a01b0381163014156200006157600080fd5b5060008054610100600160a81b0319166101006001600160a01b0393909316928302179055600180546001600160a01b03191690911790555062000108565b8051620000ad81620000ee565b92915050565b600060208284031215620000c657600080fd5b6000620000d48484620000a0565b949350505050565b60006001600160a01b038216620000ad565b620000f981620000dc565b81146200010557600080fd5b50565b6118fd80620001186000396000f3fe608060405234801561001057600080fd5b506004361061018b5760003560e01c806301f3241f146101905780630c5d24fa146101a557806317ba3f90146101ce57806319507d8a146101e15780632738a112146101f45780632b5672e3146101fc5780632b91e0a91461020f5780632f013a00146102225780633b58c5011461022a5780633b7bea6c1461023d5780634476d23b146102525780634ddf63f61461026757806350b08c021461027a578063570ca7351461028d57806357925b53146102955780635df1b0a3146102a857806362ac7621146102bb57806362f1e6b3146102ce578063677ec9d6146102e157806370327ea1146102f45780637953d64d146102fc5780637e15dd5c1461030f5780637f584f511461032257806384cfb4091461032a5780638a2f30cc1461033d5780638e8cef12146103505780639621473514610363578063a3e5175d14610376578063b3ab15fb14610389578063d5f394881461039c578063e167d4f6146103a4578063e3d3e9fc146103ac578063fdd9ec7d146103bf575b600080fd5b6101a361019e3660046114c0565b6103d2565b005b6101b86101b33660046115ef565b6104c8565b6040516101c591906117a9565b60405180910390f35b6101b86101dc3660046114c0565b610564565b6101b86101ef3660046114c0565b61059c565b6101a36105b1565b6101a361020a3660046115a8565b610617565b6101b861021d3660046114c0565b61073f565b6101b861075d565b6101a36102383660046115a8565b610766565b610245610840565b6040516101c591906117b7565b61025a610846565b6040516101c591906116f3565b6101a36102753660046114c0565b61085a565b6101a36102883660046114c0565b610935565b61025a6109e5565b6101b86102a33660046114de565b6109f4565b6101b86102b63660046115a8565b610a45565b6101a36102c93660046115a8565b610a95565b6101b86102dc3660046114de565b610c63565b6101b86102ef366004611565565b610c83565b6101a3610ca9565b6101b861030a3660046114de565b610d0c565b6101a361031d366004611638565b610d2c565b6101b8610d7d565b6101b8610338366004611565565b610d86565b6101a361034b3660046115a8565b610dac565b6101a361035e3660046114c0565b610edc565b6101a36103713660046114c0565b610f56565b6101a36103843660046114c0565b611016565b6101a36103973660046114c0565b6111d2565b61025a611275565b6101a3611289565b6102456103ba366004611518565b6112a9565b6101a36103cd3660046114c0565b6112e4565b806001600160a01b0381166103e657600080fd5b6001600160a01b0381163014156103fc57600080fd5b336001600160a01b038316141561041257600080fd5b6001600160a01b03821660009081526002602052604090205460ff1661043757600080fd5b6001600160a01b03821660009081526005602052604090205460ff161561045d57600080fd5b6001600160a01b038216600090815260076020908152604080832033808552925291829020805460ff1916600117905590517f7406a64e4e8c04b2a11d4cb484eb07cd5762012eafc449900b8d92de008ff27f916104bc91859061170f565b60405180910390a15050565b6000806104d484611359565b90506104e08585610a45565b801561055957506104f18584611389565b8061052157506001600160a01b0380861660009081526007602090815260408083209387168352929052205460ff165b8061055957506001600160a01b03808616600090815260086020908152604080832085845282528083209387168352929052205460ff165b9150505b9392505050565b600061056f8261073f565b801561059657506001600160a01b0382166000908152600260205260409020600101544210155b92915050565b60056020526000908152604090205460ff1681565b336105ba610846565b6001600160a01b0316146105cd57600080fd5b60005460ff16156105dd57600080fd5b7f787a5d936e74f4b564b9153575886059829c78cd9927b1be5e0d976b317ef7363360405161060c9190611701565b60405180910390a133ff5b61061f6113e0565b61062857600080fd5b816001600160a01b03811661063c57600080fd5b6001600160a01b03811630141561065257600080fd5b6001600160a01b03831660009081526002602052604090205460ff1661067757600080fd5b600061068283611359565b6001600160a01b0385166000908152600260208181526040808420858552909201905290205490915060ff16156106b857600080fd5b6001600160a01b03841660009081526002602081815260408084208585528084018352818520805460ff19166001908117909155938352600301805493840181558452922001829055517fec1b982d69bfc1a6fd8becf191d9a633486c822d3bdedd52303ca81fa635750190610731908690869061176e565b60405180910390a150505050565b6001600160a01b031660009081526002602052604090205460ff1690565b60005460ff1681565b61076e6113e0565b61077757600080fd5b816001600160a01b03811661078b57600080fd5b6001600160a01b0381163014156107a157600080fd5b60006107ac83611359565b6001600160a01b0385166000908152600260208181526040808420858552909201905290205490915060ff166107e157600080fd5b6001600160a01b0384166000908152600260208181526040808420858552909201905290819020805460ff19169055517f92f4af6130f47c92f3899e06611c8c6ef191fb81207ad2675d134af619d2fe7d90610731908690869061176e565b60035481565b60005461010090046001600160a01b031690565b6108626113e0565b61086b57600080fd5b806001600160a01b03811661087f57600080fd5b6001600160a01b03811630141561089557600080fd5b60045460ff16156108a557600080fd5b336001600160a01b03831614156108bb57600080fd5b6001600160a01b03821660009081526002602052604090205460ff166108e057600080fd5b6001600160a01b03821660009081526005602052604090819020805460ff19166001179055517f81c5f2034d05958dd641755044582c0aba29a94070f0a2641bb554325328bf1e906104bc903390859061170f565b61093d6113e0565b61094657600080fd5b806001600160a01b03811661095a57600080fd5b6001600160a01b03811630141561097057600080fd5b6001600160a01b03821660009081526002602052604090205460ff1661099557600080fd5b6001600160a01b03821660009081526002602052604090819020805460ff19169055517f777645c5437dfbf962f57a281ead25f3d513f2f8e938685bbfc1738e81c9880e906104bc9084906116f3565b6001546001600160a01b031681565b60006109ff83610564565b801561055d5750610a108383611389565b8061055d5750506001600160a01b03918216600090815260076020908152604080832093909416825291909152205460ff1690565b600080610a5183611359565b9050610a5c84610564565b8015610a8d57506001600160a01b0384166000908152600260208181526040808420858552909201905290205460ff165b949350505050565b816001600160a01b038116610aa957600080fd5b6001600160a01b038116301415610abf57600080fd5b336001600160a01b0384161415610ad557600080fd5b6000610ae083611359565b6001600160a01b03851660009081526002602052604090205490915060ff168015610b3057506001600160a01b0384166000908152600260208181526040808420858552909201905290205460ff165b610b3957600080fd5b6001600160a01b03841660009081526005602052604090205460ff1615610b5f57600080fd5b6001600160a01b038416600081815260076020908152604080832033808552908352818420805460ff19908116909155858552600884528285208786528452828520828652845282852080549091166001179055938352600982528083208584528252808320938352929052205460ff16610c30576001600160a01b0384166000818152600960209081526040808320858452825280832033808552908352818420805460ff19166001908117909155948452600a8352818420908452825282208054938401815582529020018190555b7fc007803323f3ca89cb3f8af1a12f354dc108e9dd4988c312b3f7a878914987ce3385856040516107319392919061172a565b600660209081526000928352604080842090915290825290205460ff1681565b600960209081526000938452604080852082529284528284209052825290205460ff1681565b33610cb2610846565b6001600160a01b031614610cc557600080fd5b6000805460ff191660011790556040517fd5a2a04a775c741c2ca0dc46ea7ce4835190e1aaf1ca018def0e82568ec3361690610d02903390611701565b60405180910390a1565b600760209081526000928352604080842090915290825290205460ff1681565b610d346113e0565b610d3d57600080fd5b60038190556040517f4f1d324a1cbffc352fb64f1d73d95e4b200d92f99ef39bf2d7f5b41f946909d690610d729083906117b7565b60405180910390a150565b60045460ff1681565b600860209081526000938452604080852082529284528284209052825290205460ff1681565b816001600160a01b038116610dc057600080fd5b6001600160a01b038116301415610dd657600080fd5b336001600160a01b0384161415610dec57600080fd5b6000610df783611359565b6001600160a01b03851660009081526002602052604090205490915060ff168015610e4757506001600160a01b0384166000908152600260208181526040808420858552909201905290205460ff165b610e5057600080fd5b6001600160a01b03841660009081526005602052604090205460ff1615610e7657600080fd5b6001600160a01b0384166000908152600860209081526040808320848452825280832033808552925291829020805460ff1916905590517f6fa0cdb0b5c22004ccfcaee11eed450e0184dda8edd417ae2410f0a883fdb74091610731918790879061172a565b610ee46113e0565b610eed57600080fd5b806001600160a01b038116610f0157600080fd5b6001600160a01b038116301415610f1757600080fd5b610f23826003546113f6565b7f7f3a8349917003ed377f6e9ae1608b92edd893903f8983bd274b1f8373dd3b11826003546040516104bc92919061178e565b610f5e6113e0565b610f6757600080fd5b806001600160a01b038116610f7b57600080fd5b6001600160a01b038116301415610f9157600080fd5b6000546001600160a01b03838116610100909204161461101257600080546001600160a01b03848116610100908102610100600160a81b03198416179093556040519290910416907f977e5fa58e458501775e0008d275006294c5249e3c08d1d0e3a9f3acad14f6e4906110089083908690611760565b60405180910390a1505b5050565b806001600160a01b03811661102a57600080fd5b6001600160a01b03811630141561104057600080fd5b336001600160a01b038316141561105657600080fd5b6001600160a01b03821660009081526002602052604090205460ff1661107b57600080fd5b6001600160a01b03821660009081526005602052604090205460ff16156110cf576001600160a01b03821660009081526006602090815260408083203384529091529020805460ff191660011790556111a1565b6001600160a01b03821660009081526007602090815260408083203384529091528120805460ff191690555b6001600160a01b0383166000908152600a6020908152604080832033845290915290205481101561119f576001600160a01b0383166000908152600860209081526040808320600a83528184203385529092528220805460019391908590811061116157fe5b600091825260208083209190910154835282810193909352604091820181203382529092529020805460ff19169115159190911790556001016110fb565b505b7fe25d4094f2181ddef4410dcc1539a7488abd881a90c56078314b9f70affc5f7e33836040516104bc92919061170f565b6111da611445565b6111e357600080fd5b806001600160a01b0381166111f757600080fd5b6001600160a01b03811630141561120d57600080fd5b6001546001600160a01b0383811691161461101257600180546001600160a01b038481166001600160a01b03198316179092556040519116907f9f611b789425d0d5b90b920f1b2852907dd865c80074a30b1629aaa041d1812c906110089083908690611760565b60005461010090046001600160a01b031681565b6112916113e0565b61129a57600080fd5b6004805460ff19166001179055565b600a60205282600052604060002060205281600052604060002081815481106112ce57fe5b9060005260206000200160009250925050505481565b6112ec6113e0565b6112f557600080fd5b806001600160a01b03811661130957600080fd5b6001600160a01b03811630141561131f57600080fd5b61132a8260006113f6565b7fb619d545cb511bd5f02907a1eac4f4cb8dace7b1846852fb0bf5e553937481c1826040516104bc91906116f3565b60008160405160200161136c91906116e7565b604051602081830303815290604052805190602001209050919050565b6001600160a01b03821660009081526005602052604081205460ff166113b057600061055d565b506001600160a01b03918216600090815260066020908152604080832093909416825291909152205460ff161590565b60005461010090046001600160a01b0316331490565b6001600160a01b03821660009081526002602052604090205460ff16611012576001600160a01b0382166000908152600260205260409020805460ff1916600190811782554283019101555050565b6001546001600160a01b0316331490565b80356105968161189a565b8035610596816118b1565b600082601f83011261147d57600080fd5b813561149061148b826117eb565b6117c5565b915080825260208301602083018583830111156114ac57600080fd5b6114b7838284611854565b50505092915050565b6000602082840312156114d257600080fd5b6000610a8d8484611456565b600080604083850312156114f157600080fd5b60006114fd8585611456565b925050602061150e85828601611456565b9150509250929050565b60008060006060848603121561152d57600080fd5b60006115398686611456565b935050602061154a86828701611456565b925050604061155b86828701611461565b9150509250925092565b60008060006060848603121561157a57600080fd5b60006115868686611456565b935050602061159786828701611461565b925050604061155b86828701611456565b600080604083850312156115bb57600080fd5b60006115c78585611456565b92505060208301356001600160401b038111156115e357600080fd5b61150e8582860161146c565b60008060006060848603121561160457600080fd5b60006116108686611456565b93505060208401356001600160401b0381111561162c57600080fd5b6115978682870161146c565b60006020828403121561164a57600080fd5b6000610a8d8484611461565b61165f81611843565b82525050565b61165f81611824565b61165f8161182f565b61165f81611834565b600061168b82611812565b6116958185611816565b93506116a5818560208601611860565b6116ae81611890565b9093019392505050565b60006116c382611812565b6116cd818561181f565b93506116dd818560208601611860565b9290920192915050565b600061055d82846116b8565b602081016105968284611665565b602081016105968284611656565b6040810161171d8285611656565b61055d6020830184611665565b606081016117388286611656565b6117456020830185611665565b81810360408301526117578184611680565b95945050505050565b6040810161171d8285611665565b6040810161177c8285611665565b8181036020830152610a8d8184611680565b6040810161179c8285611665565b61055d6020830184611677565b60208101610596828461166e565b602081016105968284611677565b6040518181016001600160401b03811182821017156117e357600080fd5b604052919050565b60006001600160401b0382111561180157600080fd5b506020601f91909101601f19160190565b5190565b90815260200190565b919050565b600061059682611837565b151590565b90565b6001600160a01b031690565b600061059682600061059682611824565b82818337506000910152565b60005b8381101561187b578181015183820152602001611863565b8381111561188a576000848401525b50505050565b601f01601f191690565b6118a381611824565b81146118ae57600080fd5b50565b6118a38161183456fea365627a7a723158203c409edeaac0e2a1577d7d85f3deadaba7b52ddba4cb9798ed4872061385e9906c6578706572696d656e74616cf564736f6c634300050c0040",
  "source": "/*\n * Hubii Nahmii\n *\n * Compliant with the Hubii Nahmii specification v0.12.\n *\n * Copyright (C) 2017-2018 Hubii AS\n */\n\npragma solidity >=0.4.25 <0.6.0;\npragma experimental ABIEncoderV2;\n\nimport {Ownable} from \"../Ownable.sol\";\nimport {AuthorizableServable} from \"../AuthorizableServable.sol\";\n\n/**\n * @title TestAuthorizableServable\n * @notice A test contract that extends AuthorizableServable\n */\ncontract TestAuthorizableServable is Ownable, AuthorizableServable {\n    //\n    // Constructor\n    // -----------------------------------------------------------------------------------------------------------------\n    constructor(address deployer) Ownable(deployer) public {\n    }\n}",
  "sourcePath": "/opt/buildagent/work/855e104608380c36/contracts/test/TestAuthorizableServable.sol",
  "compiler": {
    "name": "solc",
    "version": "0.5.12+commit.7709ece9.Emscripten.clang"
  },
  "schemaVersion": "2.0.3",
  "updatedAt": "2019-10-22T21:00:29.612Z"
}