{
  "contractName": "TokenMultiTimelock",
  "abi": [
    {
      "constant": true,
      "inputs": [],
      "name": "totalLockedAmount",
      "outputs": [
        {
          "name": "",
          "type": "uint256"
        }
      ],
      "payable": false,
      "stateMutability": "view",
      "type": "function"
    },
    {
      "constant": false,
      "inputs": [],
      "name": "triggerSelfDestruction",
      "outputs": [],
      "payable": false,
      "stateMutability": "nonpayable",
      "type": "function"
    },
    {
      "constant": true,
      "inputs": [],
      "name": "selfDestructionDisabled",
      "outputs": [
        {
          "name": "",
          "type": "bool"
        }
      ],
      "payable": false,
      "stateMutability": "view",
      "type": "function"
    },
    {
      "constant": true,
      "inputs": [],
      "name": "beneficiary",
      "outputs": [
        {
          "name": "",
          "type": "address"
        }
      ],
      "payable": false,
      "stateMutability": "view",
      "type": "function"
    },
    {
      "constant": true,
      "inputs": [],
      "name": "destructor",
      "outputs": [
        {
          "name": "",
          "type": "address"
        }
      ],
      "payable": false,
      "stateMutability": "view",
      "type": "function"
    },
    {
      "constant": true,
      "inputs": [],
      "name": "operator",
      "outputs": [
        {
          "name": "",
          "type": "address"
        }
      ],
      "payable": false,
      "stateMutability": "view",
      "type": "function"
    },
    {
      "constant": false,
      "inputs": [],
      "name": "disableSelfDestruction",
      "outputs": [],
      "payable": false,
      "stateMutability": "nonpayable",
      "type": "function"
    },
    {
      "constant": true,
      "inputs": [],
      "name": "executedReleasesCount",
      "outputs": [
        {
          "name": "",
          "type": "uint256"
        }
      ],
      "payable": false,
      "stateMutability": "view",
      "type": "function"
    },
    {
      "constant": false,
      "inputs": [
        {
          "name": "newDeployer",
          "type": "address"
        }
      ],
      "name": "setDeployer",
      "outputs": [],
      "payable": false,
      "stateMutability": "nonpayable",
      "type": "function"
    },
    {
      "constant": false,
      "inputs": [
        {
          "name": "newOperator",
          "type": "address"
        }
      ],
      "name": "setOperator",
      "outputs": [],
      "payable": false,
      "stateMutability": "nonpayable",
      "type": "function"
    },
    {
      "constant": true,
      "inputs": [
        {
          "name": "",
          "type": "uint256"
        }
      ],
      "name": "releases",
      "outputs": [
        {
          "name": "earliestReleaseTime",
          "type": "uint256"
        },
        {
          "name": "amount",
          "type": "uint256"
        },
        {
          "name": "blockNumber",
          "type": "uint256"
        },
        {
          "name": "done",
          "type": "bool"
        }
      ],
      "payable": false,
      "stateMutability": "view",
      "type": "function"
    },
    {
      "constant": true,
      "inputs": [],
      "name": "deployer",
      "outputs": [
        {
          "name": "",
          "type": "address"
        }
      ],
      "payable": false,
      "stateMutability": "view",
      "type": "function"
    },
    {
      "constant": true,
      "inputs": [],
      "name": "token",
      "outputs": [
        {
          "name": "",
          "type": "address"
        }
      ],
      "payable": false,
      "stateMutability": "view",
      "type": "function"
    },
    {
      "inputs": [
        {
          "name": "deployer",
          "type": "address"
        }
      ],
      "payable": false,
      "stateMutability": "nonpayable",
      "type": "constructor"
    },
    {
      "anonymous": false,
      "inputs": [
        {
          "indexed": false,
          "name": "token",
          "type": "address"
        }
      ],
      "name": "SetTokenEvent",
      "type": "event"
    },
    {
      "anonymous": false,
      "inputs": [
        {
          "indexed": false,
          "name": "beneficiary",
          "type": "address"
        }
      ],
      "name": "SetBeneficiaryEvent",
      "type": "event"
    },
    {
      "anonymous": false,
      "inputs": [
        {
          "indexed": false,
          "name": "earliestReleaseTime",
          "type": "uint256"
        },
        {
          "indexed": false,
          "name": "amount",
          "type": "uint256"
        },
        {
          "indexed": false,
          "name": "blockNumber",
          "type": "uint256"
        }
      ],
      "name": "DefineReleaseEvent",
      "type": "event"
    },
    {
      "anonymous": false,
      "inputs": [
        {
          "indexed": false,
          "name": "index",
          "type": "uint256"
        },
        {
          "indexed": false,
          "name": "blockNumber",
          "type": "uint256"
        }
      ],
      "name": "SetReleaseBlockNumberEvent",
      "type": "event"
    },
    {
      "anonymous": false,
      "inputs": [
        {
          "indexed": false,
          "name": "index",
          "type": "uint256"
        },
        {
          "indexed": false,
          "name": "blockNumber",
          "type": "uint256"
        },
        {
          "indexed": false,
          "name": "earliestReleaseTime",
          "type": "uint256"
        },
        {
          "indexed": false,
          "name": "actualReleaseTime",
          "type": "uint256"
        },
        {
          "indexed": false,
          "name": "amount",
          "type": "uint256"
        }
      ],
      "name": "ReleaseEvent",
      "type": "event"
    },
    {
      "anonymous": false,
      "inputs": [
        {
          "indexed": false,
          "name": "oldDeployer",
          "type": "address"
        },
        {
          "indexed": false,
          "name": "newDeployer",
          "type": "address"
        }
      ],
      "name": "SetDeployerEvent",
      "type": "event"
    },
    {
      "anonymous": false,
      "inputs": [
        {
          "indexed": false,
          "name": "oldOperator",
          "type": "address"
        },
        {
          "indexed": false,
          "name": "newOperator",
          "type": "address"
        }
      ],
      "name": "SetOperatorEvent",
      "type": "event"
    },
    {
      "anonymous": false,
      "inputs": [
        {
          "indexed": false,
          "name": "wallet",
          "type": "address"
        }
      ],
      "name": "SelfDestructionDisabledEvent",
      "type": "event"
    },
    {
      "anonymous": false,
      "inputs": [
        {
          "indexed": false,
          "name": "wallet",
          "type": "address"
        }
      ],
      "name": "TriggerSelfDestructionEvent",
      "type": "event"
    },
    {
      "constant": false,
      "inputs": [
        {
          "name": "_token",
          "type": "address"
        }
      ],
      "name": "setToken",
      "outputs": [],
      "payable": false,
      "stateMutability": "nonpayable",
      "type": "function"
    },
    {
      "constant": false,
      "inputs": [
        {
          "name": "_beneficiary",
          "type": "address"
        }
      ],
      "name": "setBeneficiary",
      "outputs": [],
      "payable": false,
      "stateMutability": "nonpayable",
      "type": "function"
    },
    {
      "constant": false,
      "inputs": [
        {
          "name": "earliestReleaseTimes",
          "type": "uint256[]"
        },
        {
          "name": "amounts",
          "type": "uint256[]"
        },
        {
          "name": "releaseBlockNumbers",
          "type": "uint256[]"
        }
      ],
      "name": "defineReleases",
      "outputs": [],
      "payable": false,
      "stateMutability": "nonpayable",
      "type": "function"
    },
    {
      "constant": true,
      "inputs": [],
      "name": "releasesCount",
      "outputs": [
        {
          "name": "",
          "type": "uint256"
        }
      ],
      "payable": false,
      "stateMutability": "view",
      "type": "function"
    },
    {
      "constant": false,
      "inputs": [
        {
          "name": "index",
          "type": "uint256"
        },
        {
          "name": "blockNumber",
          "type": "uint256"
        }
      ],
      "name": "setReleaseBlockNumber",
      "outputs": [],
      "payable": false,
      "stateMutability": "nonpayable",
      "type": "function"
    },
    {
      "constant": false,
      "inputs": [
        {
          "name": "index",
          "type": "uint256"
        }
      ],
      "name": "release",
      "outputs": [],
      "payable": false,
      "stateMutability": "nonpayable",
      "type": "function"
    }
  ],
  "bytecode": "0x608060405234801561001057600080fd5b50604051602080610da983398101604052518080600160a060020a038116151561003957600080fd5b600160a060020a03811630141561004f57600080fd5b5060008054600160a060020a03909216610100810261010060a860020a031990931692909217905560018054600160a060020a031916909117905550610d0f8061009a6000396000f3006080604052600436106100ed5763ffffffff60e060020a60003504166305a9f27481146100f2578063144fa6d7146101195780631c31f7101461013c5780632738a1121461015d5780632f013a001461017257806337bdc99b1461019b57806338af3eed146101b35780634476d23b146101e45780634524c0cd146101f95780634eddcf5b146102c0578063570ca735146102db57806370327ea1146102f057806392e35ad414610305578063962147351461031a578063b3ab15fb1461033b578063b6a9f40f1461035c578063d02764f31461039c578063d5f39488146103b1578063fc0c546a146103c6575b600080fd5b3480156100fe57600080fd5b506101076103db565b60408051918252519081900360200190f35b34801561012557600080fd5b5061013a600160a060020a03600435166103e1565b005b34801561014857600080fd5b5061013a600160a060020a0360043516610491565b34801561016957600080fd5b5061013a610515565b34801561017e57600080fd5b50610187610577565b604080519115158252519081900360200190f35b3480156101a757600080fd5b5061013a600435610580565b3480156101bf57600080fd5b506101c86106a8565b60408051600160a060020a039092168252519081900360200190f35b3480156101f057600080fd5b506101c86106b7565b34801561020557600080fd5b506040805160206004803580820135838102808601850190965280855261013a95369593946024949385019291829185019084908082843750506040805187358901803560208181028481018201909552818452989b9a998901989297509082019550935083925085019084908082843750506040805187358901803560208181028481018201909552818452989b9a9989019892975090820195509350839250850190849080828437509497506106cb9650505050505050565b3480156102cc57600080fd5b5061013a600435602435610914565b3480156102e757600080fd5b506101c86109c2565b3480156102fc57600080fd5b5061013a6109d1565b34801561031157600080fd5b50610107610a2f565b34801561032657600080fd5b5061013a600160a060020a0360043516610a35565b34801561034757600080fd5b5061013a600160a060020a0360043516610b01565b34801561036857600080fd5b50610374600435610bbe565b6040805194855260208501939093528383019190915215156060830152519081900360800190f35b3480156103a857600080fd5b50610107610bf9565b3480156103bd57600080fd5b506101c8610bff565b3480156103d257600080fd5b506101c8610c13565b60055481565b6103e9610c22565b15156103f457600080fd5b80600160a060020a038116151561040a57600080fd5b600160a060020a03811630141561042057600080fd5b600254600160a060020a03161561043657600080fd5b60028054600160a060020a031916600160a060020a03848116919091179182905560408051929091168252517f6d8175d5535b8ed95618101b59531eb23efe2c999ffea7c6831918fc088b512b916020908290030190a15050565b610499610c22565b15156104a457600080fd5b80600160a060020a03811615156104ba57600080fd5b60038054600160a060020a031916600160a060020a03848116919091179182905560408051929091168252517fa269fa1cb7bcf5c01f056e2ab269416779172ccca0613c264c1333c6db01f144916020908290030190a15050565b3361051e6106b7565b600160a060020a03161461053157600080fd5b60005460ff161561054157600080fd5b6040805133815290517f787a5d936e74f4b564b9153575886059829c78cd9927b1be5e0d976b317ef7369181900360200190a133ff5b60005460ff1681565b600354600090600160a060020a0316331461059a57600080fd5b60048054839081106105a857fe5b90600052602060002090600402019050806001015460001015156105cb57600080fd5b600381015460ff16156105dd57600080fd5b80544210156105eb57600080fd5b60038101805460ff191660011790556002810154151561060c574360028201555b6006805460019081019091558101805460058054919091039055600354905460025461064c92600160a060020a039182169291169063ffffffff610c3316565b600281015481546001830154604080518681526020810194909452838101929092524260608401526080830152517f192a2424596ca5fd763237e85156a3cca5a544ec2de91fcce52165f11430c9fb9181900360a00190a15050565b600354600160a060020a031681565b6000546101009004600160a060020a031690565b6000806106d6610c22565b15156106e157600080fd5b83518551146106ef57600080fd5b8251855110156106fe57600080fd5b600254600160a060020a0316151561071557600080fd5b600091505b845182101561090d57838281518110151561073157fe5b602090810290910181015160058054909101908190556002546040805160e060020a6370a0823102815230600482015290519293600160a060020a03909216926370a08231926024808401939192918290030181600087803b15801561079657600080fd5b505af11580156107aa573d6000803e3d6000fd5b505050506040513d60208110156107c057600080fd5b505110156107cd57600080fd5b825182106107dc5760006107f5565b82828151811015156107ea57fe5b906020019060200201515b90506004608060405190810160405280878581518110151561081357fe5b906020019060200201518152602001868581518110151561083057fe5b60209081029190910181015182528181018590526000604092830181905284546001808201875595825290829020845160049092020190815590830151938101939093558101516002830155606001516003909101805460ff191691151591909117905584517f7a4b817334cd72c0bcda88d842afe9d164deab0f72ed72c7157b05f9bc3c9b59908690849081106108c457fe5b9060200190602002015185848151811015156108dc57fe5b60209081029091018101516040805193845291830152818101849052519081900360600190a160019091019061071a565b5050505050565b600354600160a060020a0316331461092b57600080fd5b600480548390811061093957fe5b600091825260209091206003600490920201015460ff161561095a57600080fd5b8060048381548110151561096a57fe5b9060005260206000209060040201600201819055507f7cf19267ac0e3fcfc04da70aa689f851cd659a051bab5a357d0d31085b9430858282604051808381526020018281526020019250505060405180910390a15050565b600154600160a060020a031681565b336109da6106b7565b600160a060020a0316146109ed57600080fd5b6000805460ff191660011790556040805133815290517fd5a2a04a775c741c2ca0dc46ea7ce4835190e1aaf1ca018def0e82568ec336169181900360200190a1565b60065481565b6000610a3f610ccd565b1515610a4a57600080fd5b81600160a060020a0381161515610a6057600080fd5b600160a060020a038116301415610a7657600080fd5b600054600160a060020a038481166101009092041614610afc5760008054600160a060020a0385811661010081810261010060a860020a0319851617909455604080519490930491909116808452602084019190915281519094507f977e5fa58e458501775e0008d275006294c5249e3c08d1d0e3a9f3acad14f6e49281900390910190a15b505050565b6000610b0b610c22565b1515610b1657600080fd5b81600160a060020a0381161515610b2c57600080fd5b600160a060020a038116301415610b4257600080fd5b600154600160a060020a03848116911614610afc5760018054600160a060020a03858116600160a060020a0319831681179093556040805191909216808252602082019390935281519294507f9f611b789425d0d5b90b920f1b2852907dd865c80074a30b1629aaa041d1812c929081900390910190a1505050565b6004805482908110610bcc57fe5b60009182526020909120600490910201805460018201546002830154600390930154919350919060ff1684565b60045490565b6000546101009004600160a060020a031681565b600254600160a060020a031681565b600154600160a060020a0316331490565b82600160a060020a031663a9059cbb83836040518363ffffffff1660e060020a0281526004018083600160a060020a0316600160a060020a0316815260200182815260200192505050602060405180830381600087803b158015610c9657600080fd5b505af1158015610caa573d6000803e3d6000fd5b505050506040513d6020811015610cc057600080fd5b50511515610afc57600080fd5b6000546101009004600160a060020a03163314905600a165627a7a72305820c6271e5405d8af31353a3772c8315e07c97e5f5e1742363a1b1ea97f9df111400029",
  "source": "/*\n * Hubii Nahmii\n *\n * Compliant with the Hubii Nahmii specification v0.12.\n *\n * Copyright (C) 2017-2018 Hubii AS\n */\n\npragma solidity ^0.4.25;\n\nimport {Ownable} from \"./Ownable.sol\";\nimport {IERC20} from \"openzeppelin-solidity/contracts/token/ERC20/IERC20.sol\";\nimport {SafeERC20} from \"openzeppelin-solidity/contracts/token/ERC20/SafeERC20.sol\";\n\n/**\n * @title Balance tracker\n * @notice An ownable that allows a beneficiary to extract tokens in\n *   a number of batches each a given release time\n */\ncontract TokenMultiTimelock is Ownable {\n    using SafeERC20 for IERC20;\n\n    //\n    // Structures\n    // -----------------------------------------------------------------------------------------------------------------\n    struct Release {\n        uint256 earliestReleaseTime;\n        uint256 amount;\n        uint256 blockNumber;\n        bool done;\n    }\n\n    //\n    // Variables\n    // -----------------------------------------------------------------------------------------------------------------\n    IERC20 public token;\n    address public beneficiary;\n\n    Release[] public releases;\n    uint256 public totalLockedAmount;\n    uint256 public executedReleasesCount;\n\n    //\n    // Events\n    // -----------------------------------------------------------------------------------------------------------------\n    event SetTokenEvent(IERC20 token);\n    event SetBeneficiaryEvent(address beneficiary);\n    event DefineReleaseEvent(uint256 earliestReleaseTime, uint256 amount, uint256 blockNumber);\n    event SetReleaseBlockNumberEvent(uint256 index, uint256 blockNumber);\n    event ReleaseEvent(uint256 index, uint256 blockNumber, uint256 earliestReleaseTime,\n        uint256 actualReleaseTime, uint256 amount);\n\n    //\n    // Constructor\n    // -----------------------------------------------------------------------------------------------------------------\n    constructor(address deployer)\n    Ownable(deployer)\n    public\n    {\n    }\n\n    //\n    // Functions\n    // -----------------------------------------------------------------------------------------------------------------\n    /// @notice Set the address of token\n    /// @param _token The address of token\n    function setToken(IERC20 _token)\n    public\n    onlyOperator\n    notNullOrThisAddress(_token)\n    {\n        // Require that the token has not previously been set\n        require(address(token) == address(0));\n\n        // Update beneficiary\n        token = _token;\n\n        // Emit event\n        emit SetTokenEvent(token);\n    }\n\n    /// @notice Set the address of beneficiary\n    /// @param _beneficiary The new address of beneficiary\n    function setBeneficiary(address _beneficiary)\n    public\n    onlyOperator\n    notNullAddress(_beneficiary)\n    {\n        // Update beneficiary\n        beneficiary = _beneficiary;\n\n        // Emit event\n        emit SetBeneficiaryEvent(beneficiary);\n    }\n\n    /// @notice Define a set of new releases\n    /// @param earliestReleaseTimes The timestamp after which the corresponding amount may be released\n    /// @param amounts The amounts to be released\n    /// @param releaseBlockNumbers The set release block numbers for releases whose earliest release time\n    /// is in the past\n    function defineReleases(uint256[] earliestReleaseTimes, uint256[] amounts, uint256[] releaseBlockNumbers)\n    onlyOperator\n    public\n    {\n        require(earliestReleaseTimes.length == amounts.length);\n        require(earliestReleaseTimes.length >= releaseBlockNumbers.length);\n\n        // Require that token address has been set\n        require(address(token) != address(0));\n\n        for (uint256 i = 0; i < earliestReleaseTimes.length; i++) {\n            // Update the total amount locked by this contract\n            totalLockedAmount += amounts[i];\n\n            // Require that total amount locked is less than or equal to the token balance of\n            // this contract\n            require(token.balanceOf(address(this)) >= totalLockedAmount);\n\n            // Retrieve early block number where available\n            uint256 blockNumber = i < releaseBlockNumbers.length ? releaseBlockNumbers[i] : 0;\n\n            // Add release\n            releases.push(Release(earliestReleaseTimes[i], amounts[i], blockNumber, false));\n\n            // Emit event\n            emit DefineReleaseEvent(earliestReleaseTimes[i], amounts[i], blockNumber);\n        }\n    }\n\n    /// @notice Get the count of releases\n    /// @return The number of defined releases\n    function releasesCount()\n    public\n    view\n    returns (uint256)\n    {\n        return releases.length;\n    }\n\n    /// @notice Set the block number of a release that is not done\n    /// @param index The index of the release\n    /// @param blockNumber The updated block number\n    function setReleaseBlockNumber(uint256 index, uint256 blockNumber)\n    public\n    onlyBeneficiary\n    {\n        // Require that the release is not done\n        require(!releases[index].done);\n\n        // Update the release block number\n        releases[index].blockNumber = blockNumber;\n\n        // Emit event\n        emit SetReleaseBlockNumberEvent(index, blockNumber);\n    }\n\n    /// @notice Transfers tokens held in the indicated release to beneficiary.\n    /// @param index The index of the release\n    function release(uint256 index)\n    public\n    onlyBeneficiary\n    {\n        // Get the release object\n        Release storage _release = releases[index];\n\n        // Require that this release has been properly defined by having non-zero amount\n        require(0 < _release.amount);\n\n        // Require that this release has not already been executed\n        require(!_release.done);\n\n        // Require that the current timestamp is beyond the nominal release time\n        require(block.timestamp >= _release.earliestReleaseTime);\n\n        // Set release done\n        _release.done = true;\n\n        // Set release block number if not previously set\n        if (0 == _release.blockNumber)\n            _release.blockNumber = block.number;\n\n        // Bump number of executed releases\n        executedReleasesCount++;\n\n        // Decrement the total locked amount\n        totalLockedAmount -= _release.amount;\n\n        // Execute transfer\n        token.safeTransfer(beneficiary, _release.amount);\n\n        // Emit event\n        emit ReleaseEvent(index, _release.blockNumber, _release.earliestReleaseTime, block.timestamp, _release.amount);\n    }\n\n    // Modifiers\n    // -----------------------------------------------------------------------------------------------------------------\n    modifier onlyBeneficiary() {\n        require(msg.sender == beneficiary);\n        _;\n    }\n}",
  "sourcePath": "/opt/buildagent/work/855e104608380c36/contracts/TokenMultiTimelock.sol",
  "compiler": {
    "name": "solc",
    "version": "0.4.25+commit.59dbf8f1.Emscripten.clang"
  },
  "schemaVersion": "2.0.2",
  "updatedAt": "2019-04-02T06:20:37.057Z"
}