{
  "contractName": "TokenHolderRevenueFund",
  "abi": [
    {
      "inputs": [
        {
          "internalType": "address",
          "name": "deployer",
          "type": "address"
        }
      ],
      "payable": false,
      "stateMutability": "nonpayable",
      "type": "constructor"
    },
    {
      "anonymous": false,
      "inputs": [
        {
          "indexed": false,
          "internalType": "address",
          "name": "from",
          "type": "address"
        },
        {
          "indexed": false,
          "internalType": "int256",
          "name": "amount",
          "type": "int256"
        },
        {
          "indexed": false,
          "internalType": "address",
          "name": "currencyCt",
          "type": "address"
        },
        {
          "indexed": false,
          "internalType": "uint256",
          "name": "currencyId",
          "type": "uint256"
        },
        {
          "indexed": false,
          "internalType": "uint256",
          "name": "startAccrualIndex",
          "type": "uint256"
        },
        {
          "indexed": false,
          "internalType": "uint256",
          "name": "endAccrualIndex",
          "type": "uint256"
        }
      ],
      "name": "ClaimAndStageByAccrualsEvent",
      "type": "event"
    },
    {
      "anonymous": false,
      "inputs": [
        {
          "indexed": false,
          "internalType": "address",
          "name": "from",
          "type": "address"
        },
        {
          "indexed": false,
          "internalType": "int256",
          "name": "amount",
          "type": "int256"
        },
        {
          "indexed": false,
          "internalType": "address",
          "name": "currencyCt",
          "type": "address"
        },
        {
          "indexed": false,
          "internalType": "uint256",
          "name": "currencyId",
          "type": "uint256"
        },
        {
          "indexed": false,
          "internalType": "uint256",
          "name": "startBlock",
          "type": "uint256"
        },
        {
          "indexed": false,
          "internalType": "uint256",
          "name": "endBlock",
          "type": "uint256"
        }
      ],
      "name": "ClaimAndStageByBlockNumbersEvent",
      "type": "event"
    },
    {
      "anonymous": false,
      "inputs": [
        {
          "indexed": false,
          "internalType": "address",
          "name": "wallet",
          "type": "address"
        },
        {
          "indexed": false,
          "internalType": "string",
          "name": "balanceType",
          "type": "string"
        },
        {
          "indexed": false,
          "internalType": "int256",
          "name": "amount",
          "type": "int256"
        },
        {
          "indexed": false,
          "internalType": "address",
          "name": "currencyCt",
          "type": "address"
        },
        {
          "indexed": false,
          "internalType": "uint256",
          "name": "currencyId",
          "type": "uint256"
        },
        {
          "indexed": false,
          "internalType": "uint256",
          "name": "startAccrualIndex",
          "type": "uint256"
        },
        {
          "indexed": false,
          "internalType": "uint256",
          "name": "endAccrualIndex",
          "type": "uint256"
        },
        {
          "indexed": false,
          "internalType": "string",
          "name": "standard",
          "type": "string"
        }
      ],
      "name": "ClaimAndTransferToBeneficiaryEvent",
      "type": "event"
    },
    {
      "anonymous": false,
      "inputs": [
        {
          "indexed": false,
          "internalType": "int256",
          "name": "periodAmount",
          "type": "int256"
        },
        {
          "indexed": false,
          "internalType": "int256",
          "name": "aggregateAmount",
          "type": "int256"
        },
        {
          "indexed": false,
          "internalType": "address",
          "name": "currencyCt",
          "type": "address"
        },
        {
          "indexed": false,
          "internalType": "uint256",
          "name": "currencyId",
          "type": "uint256"
        }
      ],
      "name": "CloseAccrualPeriodEvent",
      "type": "event"
    },
    {
      "anonymous": false,
      "inputs": [],
      "name": "CloseAccrualPeriodEvent",
      "type": "event"
    },
    {
      "anonymous": false,
      "inputs": [
        {
          "indexed": false,
          "internalType": "address",
          "name": "wallet",
          "type": "address"
        }
      ],
      "name": "DeregisterNonClaimerEvent",
      "type": "event"
    },
    {
      "anonymous": false,
      "inputs": [
        {
          "indexed": false,
          "internalType": "address",
          "name": "service",
          "type": "address"
        }
      ],
      "name": "DeregisterServiceEvent",
      "type": "event"
    },
    {
      "anonymous": false,
      "inputs": [
        {
          "indexed": false,
          "internalType": "address",
          "name": "service",
          "type": "address"
        },
        {
          "indexed": false,
          "internalType": "string",
          "name": "action",
          "type": "string"
        }
      ],
      "name": "DisableServiceActionEvent",
      "type": "event"
    },
    {
      "anonymous": false,
      "inputs": [
        {
          "indexed": false,
          "internalType": "address",
          "name": "service",
          "type": "address"
        },
        {
          "indexed": false,
          "internalType": "string",
          "name": "action",
          "type": "string"
        }
      ],
      "name": "EnableServiceActionEvent",
      "type": "event"
    },
    {
      "anonymous": false,
      "inputs": [
        {
          "indexed": false,
          "internalType": "address",
          "name": "wallet",
          "type": "address"
        },
        {
          "indexed": false,
          "internalType": "int256",
          "name": "amount",
          "type": "int256"
        },
        {
          "indexed": false,
          "internalType": "address",
          "name": "currencyCt",
          "type": "address"
        },
        {
          "indexed": false,
          "internalType": "uint256",
          "name": "currencyId",
          "type": "uint256"
        }
      ],
      "name": "ReceiveEvent",
      "type": "event"
    },
    {
      "anonymous": false,
      "inputs": [
        {
          "indexed": false,
          "internalType": "address",
          "name": "wallet",
          "type": "address"
        }
      ],
      "name": "RegisterNonClaimerEvent",
      "type": "event"
    },
    {
      "anonymous": false,
      "inputs": [
        {
          "indexed": false,
          "internalType": "address",
          "name": "service",
          "type": "address"
        },
        {
          "indexed": false,
          "internalType": "uint256",
          "name": "timeout",
          "type": "uint256"
        }
      ],
      "name": "RegisterServiceDeferredEvent",
      "type": "event"
    },
    {
      "anonymous": false,
      "inputs": [
        {
          "indexed": false,
          "internalType": "address",
          "name": "service",
          "type": "address"
        }
      ],
      "name": "RegisterServiceEvent",
      "type": "event"
    },
    {
      "anonymous": false,
      "inputs": [
        {
          "indexed": false,
          "internalType": "address",
          "name": "wallet",
          "type": "address"
        }
      ],
      "name": "SelfDestructionDisabledEvent",
      "type": "event"
    },
    {
      "anonymous": false,
      "inputs": [
        {
          "indexed": false,
          "internalType": "uint256",
          "name": "timeoutInSeconds",
          "type": "uint256"
        }
      ],
      "name": "ServiceActivationTimeoutEvent",
      "type": "event"
    },
    {
      "anonymous": false,
      "inputs": [
        {
          "indexed": false,
          "internalType": "contract BalanceAucCalculator",
          "name": "calculator",
          "type": "address"
        }
      ],
      "name": "SetBalanceBlocksCalculatorEvent",
      "type": "event"
    },
    {
      "anonymous": false,
      "inputs": [
        {
          "indexed": false,
          "internalType": "address",
          "name": "oldDeployer",
          "type": "address"
        },
        {
          "indexed": false,
          "internalType": "address",
          "name": "newDeployer",
          "type": "address"
        }
      ],
      "name": "SetDeployerEvent",
      "type": "event"
    },
    {
      "anonymous": false,
      "inputs": [
        {
          "indexed": false,
          "internalType": "address",
          "name": "oldOperator",
          "type": "address"
        },
        {
          "indexed": false,
          "internalType": "address",
          "name": "newOperator",
          "type": "address"
        }
      ],
      "name": "SetOperatorEvent",
      "type": "event"
    },
    {
      "anonymous": false,
      "inputs": [
        {
          "indexed": false,
          "internalType": "contract BalanceAucCalculator",
          "name": "calculator",
          "type": "address"
        }
      ],
      "name": "SetReleasedAmountBlocksCalculatorEvent",
      "type": "event"
    },
    {
      "anonymous": false,
      "inputs": [
        {
          "indexed": false,
          "internalType": "contract RevenueTokenManager",
          "name": "manager",
          "type": "address"
        }
      ],
      "name": "SetRevenueTokenManagerEvent",
      "type": "event"
    },
    {
      "anonymous": false,
      "inputs": [
        {
          "indexed": false,
          "internalType": "contract TransferControllerManager",
          "name": "oldTransferControllerManager",
          "type": "address"
        },
        {
          "indexed": false,
          "internalType": "contract TransferControllerManager",
          "name": "newTransferControllerManager",
          "type": "address"
        }
      ],
      "name": "SetTransferControllerManagerEvent",
      "type": "event"
    },
    {
      "anonymous": false,
      "inputs": [
        {
          "indexed": false,
          "internalType": "address",
          "name": "wallet",
          "type": "address"
        }
      ],
      "name": "TriggerSelfDestructionEvent",
      "type": "event"
    },
    {
      "anonymous": false,
      "inputs": [
        {
          "indexed": false,
          "internalType": "address",
          "name": "to",
          "type": "address"
        },
        {
          "indexed": false,
          "internalType": "int256",
          "name": "amount",
          "type": "int256"
        },
        {
          "indexed": false,
          "internalType": "address",
          "name": "currencyCt",
          "type": "address"
        },
        {
          "indexed": false,
          "internalType": "uint256",
          "name": "currencyId",
          "type": "uint256"
        }
      ],
      "name": "WithdrawEvent",
      "type": "event"
    },
    {
      "anonymous": false,
      "inputs": [
        {
          "indexed": false,
          "internalType": "address",
          "name": "from",
          "type": "address"
        },
        {
          "indexed": false,
          "internalType": "int256",
          "name": "amount",
          "type": "int256"
        },
        {
          "indexed": false,
          "internalType": "address",
          "name": "currencyCt",
          "type": "address"
        },
        {
          "indexed": false,
          "internalType": "uint256",
          "name": "currencyId",
          "type": "uint256"
        },
        {
          "indexed": false,
          "internalType": "string",
          "name": "standard",
          "type": "string"
        }
      ],
      "name": "WithdrawEvent",
      "type": "event"
    },
    {
      "payable": true,
      "stateMutability": "payable",
      "type": "fallback"
    },
    {
      "constant": true,
      "inputs": [],
      "name": "CLOSE_ACCRUAL_PERIOD_ACTION",
      "outputs": [
        {
          "internalType": "string",
          "name": "",
          "type": "string"
        }
      ],
      "payable": false,
      "stateMutability": "view",
      "type": "function"
    },
    {
      "constant": true,
      "inputs": [
        {
          "internalType": "address",
          "name": "",
          "type": "address"
        },
        {
          "internalType": "uint256",
          "name": "",
          "type": "uint256"
        },
        {
          "internalType": "uint256",
          "name": "",
          "type": "uint256"
        }
      ],
      "name": "aggregateAccrualAmountByCurrencyBlockNumber",
      "outputs": [
        {
          "internalType": "int256",
          "name": "",
          "type": "int256"
        }
      ],
      "payable": false,
      "stateMutability": "view",
      "type": "function"
    },
    {
      "constant": true,
      "inputs": [],
      "name": "balanceBlocksCalculator",
      "outputs": [
        {
          "internalType": "contract BalanceAucCalculator",
          "name": "",
          "type": "address"
        }
      ],
      "payable": false,
      "stateMutability": "view",
      "type": "function"
    },
    {
      "constant": true,
      "inputs": [
        {
          "internalType": "address",
          "name": "",
          "type": "address"
        },
        {
          "internalType": "address",
          "name": "",
          "type": "address"
        },
        {
          "internalType": "uint256",
          "name": "",
          "type": "uint256"
        },
        {
          "internalType": "uint256",
          "name": "",
          "type": "uint256"
        }
      ],
      "name": "claimedAccrualIndicesByWalletCurrency",
      "outputs": [
        {
          "internalType": "uint256",
          "name": "",
          "type": "uint256"
        }
      ],
      "payable": false,
      "stateMutability": "view",
      "type": "function"
    },
    {
      "constant": true,
      "inputs": [
        {
          "internalType": "address",
          "name": "",
          "type": "address"
        },
        {
          "internalType": "uint256",
          "name": "",
          "type": "uint256"
        },
        {
          "internalType": "uint256",
          "name": "",
          "type": "uint256"
        }
      ],
      "name": "closedAccrualsByCurrency",
      "outputs": [
        {
          "internalType": "uint256",
          "name": "startBlock",
          "type": "uint256"
        },
        {
          "internalType": "uint256",
          "name": "endBlock",
          "type": "uint256"
        },
        {
          "internalType": "int256",
          "name": "amount",
          "type": "int256"
        }
      ],
      "payable": false,
      "stateMutability": "view",
      "type": "function"
    },
    {
      "constant": true,
      "inputs": [],
      "name": "deployer",
      "outputs": [
        {
          "internalType": "address",
          "name": "",
          "type": "address"
        }
      ],
      "payable": false,
      "stateMutability": "view",
      "type": "function"
    },
    {
      "constant": false,
      "inputs": [
        {
          "internalType": "address",
          "name": "service",
          "type": "address"
        }
      ],
      "name": "deregisterService",
      "outputs": [],
      "payable": false,
      "stateMutability": "nonpayable",
      "type": "function"
    },
    {
      "constant": true,
      "inputs": [],
      "name": "destructor",
      "outputs": [
        {
          "internalType": "address",
          "name": "",
          "type": "address"
        }
      ],
      "payable": false,
      "stateMutability": "view",
      "type": "function"
    },
    {
      "constant": false,
      "inputs": [],
      "name": "disableSelfDestruction",
      "outputs": [],
      "payable": false,
      "stateMutability": "nonpayable",
      "type": "function"
    },
    {
      "constant": false,
      "inputs": [
        {
          "internalType": "address",
          "name": "service",
          "type": "address"
        },
        {
          "internalType": "string",
          "name": "action",
          "type": "string"
        }
      ],
      "name": "disableServiceAction",
      "outputs": [],
      "payable": false,
      "stateMutability": "nonpayable",
      "type": "function"
    },
    {
      "constant": false,
      "inputs": [
        {
          "internalType": "address",
          "name": "service",
          "type": "address"
        },
        {
          "internalType": "string",
          "name": "action",
          "type": "string"
        }
      ],
      "name": "enableServiceAction",
      "outputs": [],
      "payable": false,
      "stateMutability": "nonpayable",
      "type": "function"
    },
    {
      "constant": true,
      "inputs": [
        {
          "internalType": "address",
          "name": "service",
          "type": "address"
        },
        {
          "internalType": "string",
          "name": "action",
          "type": "string"
        }
      ],
      "name": "isEnabledServiceAction",
      "outputs": [
        {
          "internalType": "bool",
          "name": "",
          "type": "bool"
        }
      ],
      "payable": false,
      "stateMutability": "view",
      "type": "function"
    },
    {
      "constant": true,
      "inputs": [
        {
          "internalType": "address",
          "name": "service",
          "type": "address"
        }
      ],
      "name": "isRegisteredActiveService",
      "outputs": [
        {
          "internalType": "bool",
          "name": "",
          "type": "bool"
        }
      ],
      "payable": false,
      "stateMutability": "view",
      "type": "function"
    },
    {
      "constant": true,
      "inputs": [
        {
          "internalType": "address",
          "name": "service",
          "type": "address"
        }
      ],
      "name": "isRegisteredService",
      "outputs": [
        {
          "internalType": "bool",
          "name": "",
          "type": "bool"
        }
      ],
      "payable": false,
      "stateMutability": "view",
      "type": "function"
    },
    {
      "constant": true,
      "inputs": [
        {
          "internalType": "address",
          "name": "",
          "type": "address"
        }
      ],
      "name": "nonClaimerIndicesByWallet",
      "outputs": [
        {
          "internalType": "uint256",
          "name": "",
          "type": "uint256"
        }
      ],
      "payable": false,
      "stateMutability": "view",
      "type": "function"
    },
    {
      "constant": true,
      "inputs": [
        {
          "internalType": "uint256",
          "name": "",
          "type": "uint256"
        }
      ],
      "name": "nonClaimers",
      "outputs": [
        {
          "internalType": "address",
          "name": "",
          "type": "address"
        }
      ],
      "payable": false,
      "stateMutability": "view",
      "type": "function"
    },
    {
      "constant": true,
      "inputs": [],
      "name": "operator",
      "outputs": [
        {
          "internalType": "address",
          "name": "",
          "type": "address"
        }
      ],
      "payable": false,
      "stateMutability": "view",
      "type": "function"
    },
    {
      "constant": false,
      "inputs": [
        {
          "internalType": "address",
          "name": "service",
          "type": "address"
        }
      ],
      "name": "registerService",
      "outputs": [],
      "payable": false,
      "stateMutability": "nonpayable",
      "type": "function"
    },
    {
      "constant": false,
      "inputs": [
        {
          "internalType": "address",
          "name": "service",
          "type": "address"
        }
      ],
      "name": "registerServiceDeferred",
      "outputs": [],
      "payable": false,
      "stateMutability": "nonpayable",
      "type": "function"
    },
    {
      "constant": true,
      "inputs": [],
      "name": "releasedAmountBlocksCalculator",
      "outputs": [
        {
          "internalType": "contract BalanceAucCalculator",
          "name": "",
          "type": "address"
        }
      ],
      "payable": false,
      "stateMutability": "view",
      "type": "function"
    },
    {
      "constant": true,
      "inputs": [],
      "name": "revenueTokenManager",
      "outputs": [
        {
          "internalType": "contract RevenueTokenManager",
          "name": "",
          "type": "address"
        }
      ],
      "payable": false,
      "stateMutability": "view",
      "type": "function"
    },
    {
      "constant": true,
      "inputs": [],
      "name": "selfDestructionDisabled",
      "outputs": [
        {
          "internalType": "bool",
          "name": "",
          "type": "bool"
        }
      ],
      "payable": false,
      "stateMutability": "view",
      "type": "function"
    },
    {
      "constant": true,
      "inputs": [],
      "name": "serviceActivationTimeout",
      "outputs": [
        {
          "internalType": "uint256",
          "name": "",
          "type": "uint256"
        }
      ],
      "payable": false,
      "stateMutability": "view",
      "type": "function"
    },
    {
      "constant": false,
      "inputs": [
        {
          "internalType": "address",
          "name": "newDeployer",
          "type": "address"
        }
      ],
      "name": "setDeployer",
      "outputs": [],
      "payable": false,
      "stateMutability": "nonpayable",
      "type": "function"
    },
    {
      "constant": false,
      "inputs": [
        {
          "internalType": "address",
          "name": "newOperator",
          "type": "address"
        }
      ],
      "name": "setOperator",
      "outputs": [],
      "payable": false,
      "stateMutability": "nonpayable",
      "type": "function"
    },
    {
      "constant": false,
      "inputs": [
        {
          "internalType": "uint256",
          "name": "timeoutInSeconds",
          "type": "uint256"
        }
      ],
      "name": "setServiceActivationTimeout",
      "outputs": [],
      "payable": false,
      "stateMutability": "nonpayable",
      "type": "function"
    },
    {
      "constant": false,
      "inputs": [
        {
          "internalType": "contract TransferControllerManager",
          "name": "newTransferControllerManager",
          "type": "address"
        }
      ],
      "name": "setTransferControllerManager",
      "outputs": [],
      "payable": false,
      "stateMutability": "nonpayable",
      "type": "function"
    },
    {
      "constant": true,
      "inputs": [],
      "name": "transferControllerManager",
      "outputs": [
        {
          "internalType": "contract TransferControllerManager",
          "name": "",
          "type": "address"
        }
      ],
      "payable": false,
      "stateMutability": "view",
      "type": "function"
    },
    {
      "constant": false,
      "inputs": [],
      "name": "triggerSelfDestruction",
      "outputs": [],
      "payable": false,
      "stateMutability": "nonpayable",
      "type": "function"
    },
    {
      "constant": false,
      "inputs": [
        {
          "internalType": "contract RevenueTokenManager",
          "name": "manager",
          "type": "address"
        }
      ],
      "name": "setRevenueTokenManager",
      "outputs": [],
      "payable": false,
      "stateMutability": "nonpayable",
      "type": "function"
    },
    {
      "constant": false,
      "inputs": [
        {
          "internalType": "contract BalanceAucCalculator",
          "name": "calculator",
          "type": "address"
        }
      ],
      "name": "setBalanceBlocksCalculator",
      "outputs": [],
      "payable": false,
      "stateMutability": "nonpayable",
      "type": "function"
    },
    {
      "constant": false,
      "inputs": [
        {
          "internalType": "contract BalanceAucCalculator",
          "name": "calculator",
          "type": "address"
        }
      ],
      "name": "setReleasedAmountBlocksCalculator",
      "outputs": [],
      "payable": false,
      "stateMutability": "nonpayable",
      "type": "function"
    },
    {
      "constant": true,
      "inputs": [],
      "name": "nonClaimersCount",
      "outputs": [
        {
          "internalType": "uint256",
          "name": "",
          "type": "uint256"
        }
      ],
      "payable": false,
      "stateMutability": "view",
      "type": "function"
    },
    {
      "constant": true,
      "inputs": [
        {
          "internalType": "address",
          "name": "wallet",
          "type": "address"
        }
      ],
      "name": "isNonClaimer",
      "outputs": [
        {
          "internalType": "bool",
          "name": "",
          "type": "bool"
        }
      ],
      "payable": false,
      "stateMutability": "view",
      "type": "function"
    },
    {
      "constant": false,
      "inputs": [
        {
          "internalType": "address",
          "name": "wallet",
          "type": "address"
        }
      ],
      "name": "registerNonClaimer",
      "outputs": [],
      "payable": false,
      "stateMutability": "nonpayable",
      "type": "function"
    },
    {
      "constant": false,
      "inputs": [
        {
          "internalType": "address",
          "name": "wallet",
          "type": "address"
        }
      ],
      "name": "deregisterNonClaimer",
      "outputs": [],
      "payable": false,
      "stateMutability": "nonpayable",
      "type": "function"
    },
    {
      "constant": false,
      "inputs": [
        {
          "internalType": "address",
          "name": "wallet",
          "type": "address"
        },
        {
          "internalType": "string",
          "name": "",
          "type": "string"
        }
      ],
      "name": "receiveEthersTo",
      "outputs": [],
      "payable": true,
      "stateMutability": "payable",
      "type": "function"
    },
    {
      "constant": false,
      "inputs": [
        {
          "internalType": "string",
          "name": "",
          "type": "string"
        },
        {
          "internalType": "int256",
          "name": "amount",
          "type": "int256"
        },
        {
          "internalType": "address",
          "name": "currencyCt",
          "type": "address"
        },
        {
          "internalType": "uint256",
          "name": "currencyId",
          "type": "uint256"
        },
        {
          "internalType": "string",
          "name": "standard",
          "type": "string"
        }
      ],
      "name": "receiveTokens",
      "outputs": [],
      "payable": false,
      "stateMutability": "nonpayable",
      "type": "function"
    },
    {
      "constant": false,
      "inputs": [
        {
          "internalType": "address",
          "name": "wallet",
          "type": "address"
        },
        {
          "internalType": "string",
          "name": "",
          "type": "string"
        },
        {
          "internalType": "int256",
          "name": "amount",
          "type": "int256"
        },
        {
          "internalType": "address",
          "name": "currencyCt",
          "type": "address"
        },
        {
          "internalType": "uint256",
          "name": "currencyId",
          "type": "uint256"
        },
        {
          "internalType": "string",
          "name": "standard",
          "type": "string"
        }
      ],
      "name": "receiveTokensTo",
      "outputs": [],
      "payable": false,
      "stateMutability": "nonpayable",
      "type": "function"
    },
    {
      "constant": true,
      "inputs": [
        {
          "internalType": "address",
          "name": "currencyCt",
          "type": "address"
        },
        {
          "internalType": "uint256",
          "name": "currencyId",
          "type": "uint256"
        }
      ],
      "name": "periodAccrualBalance",
      "outputs": [
        {
          "internalType": "int256",
          "name": "",
          "type": "int256"
        }
      ],
      "payable": false,
      "stateMutability": "view",
      "type": "function"
    },
    {
      "constant": true,
      "inputs": [
        {
          "internalType": "address",
          "name": "currencyCt",
          "type": "address"
        },
        {
          "internalType": "uint256",
          "name": "currencyId",
          "type": "uint256"
        }
      ],
      "name": "aggregateAccrualBalance",
      "outputs": [
        {
          "internalType": "int256",
          "name": "",
          "type": "int256"
        }
      ],
      "payable": false,
      "stateMutability": "view",
      "type": "function"
    },
    {
      "constant": true,
      "inputs": [],
      "name": "periodCurrenciesCount",
      "outputs": [
        {
          "internalType": "uint256",
          "name": "",
          "type": "uint256"
        }
      ],
      "payable": false,
      "stateMutability": "view",
      "type": "function"
    },
    {
      "constant": true,
      "inputs": [
        {
          "internalType": "uint256",
          "name": "low",
          "type": "uint256"
        },
        {
          "internalType": "uint256",
          "name": "up",
          "type": "uint256"
        }
      ],
      "name": "periodCurrenciesByIndices",
      "outputs": [
        {
          "components": [
            {
              "internalType": "address",
              "name": "ct",
              "type": "address"
            },
            {
              "internalType": "uint256",
              "name": "id",
              "type": "uint256"
            }
          ],
          "internalType": "struct MonetaryTypesLib.Currency[]",
          "name": "",
          "type": "tuple[]"
        }
      ],
      "payable": false,
      "stateMutability": "view",
      "type": "function"
    },
    {
      "constant": true,
      "inputs": [],
      "name": "aggregateCurrenciesCount",
      "outputs": [
        {
          "internalType": "uint256",
          "name": "",
          "type": "uint256"
        }
      ],
      "payable": false,
      "stateMutability": "view",
      "type": "function"
    },
    {
      "constant": true,
      "inputs": [
        {
          "internalType": "uint256",
          "name": "low",
          "type": "uint256"
        },
        {
          "internalType": "uint256",
          "name": "up",
          "type": "uint256"
        }
      ],
      "name": "aggregateCurrenciesByIndices",
      "outputs": [
        {
          "components": [
            {
              "internalType": "address",
              "name": "ct",
              "type": "address"
            },
            {
              "internalType": "uint256",
              "name": "id",
              "type": "uint256"
            }
          ],
          "internalType": "struct MonetaryTypesLib.Currency[]",
          "name": "",
          "type": "tuple[]"
        }
      ],
      "payable": false,
      "stateMutability": "view",
      "type": "function"
    },
    {
      "constant": true,
      "inputs": [],
      "name": "depositsCount",
      "outputs": [
        {
          "internalType": "uint256",
          "name": "",
          "type": "uint256"
        }
      ],
      "payable": false,
      "stateMutability": "view",
      "type": "function"
    },
    {
      "constant": true,
      "inputs": [
        {
          "internalType": "uint256",
          "name": "index",
          "type": "uint256"
        }
      ],
      "name": "deposit",
      "outputs": [
        {
          "internalType": "int256",
          "name": "amount",
          "type": "int256"
        },
        {
          "internalType": "uint256",
          "name": "blockNumber",
          "type": "uint256"
        },
        {
          "internalType": "address",
          "name": "currencyCt",
          "type": "address"
        },
        {
          "internalType": "uint256",
          "name": "currencyId",
          "type": "uint256"
        }
      ],
      "payable": false,
      "stateMutability": "view",
      "type": "function"
    },
    {
      "constant": true,
      "inputs": [
        {
          "internalType": "address",
          "name": "wallet",
          "type": "address"
        },
        {
          "internalType": "address",
          "name": "currencyCt",
          "type": "address"
        },
        {
          "internalType": "uint256",
          "name": "currencyId",
          "type": "uint256"
        }
      ],
      "name": "stagedBalance",
      "outputs": [
        {
          "internalType": "int256",
          "name": "",
          "type": "int256"
        }
      ],
      "payable": false,
      "stateMutability": "view",
      "type": "function"
    },
    {
      "constant": true,
      "inputs": [
        {
          "internalType": "address",
          "name": "currencyCt",
          "type": "address"
        },
        {
          "internalType": "uint256",
          "name": "currencyId",
          "type": "uint256"
        }
      ],
      "name": "closedAccrualsCount",
      "outputs": [
        {
          "internalType": "uint256",
          "name": "",
          "type": "uint256"
        }
      ],
      "payable": false,
      "stateMutability": "view",
      "type": "function"
    },
    {
      "constant": false,
      "inputs": [
        {
          "components": [
            {
              "internalType": "address",
              "name": "ct",
              "type": "address"
            },
            {
              "internalType": "uint256",
              "name": "id",
              "type": "uint256"
            }
          ],
          "internalType": "struct MonetaryTypesLib.Currency[]",
          "name": "currencies",
          "type": "tuple[]"
        }
      ],
      "name": "closeAccrualPeriod",
      "outputs": [],
      "payable": false,
      "stateMutability": "nonpayable",
      "type": "function"
    },
    {
      "constant": true,
      "inputs": [
        {
          "internalType": "address",
          "name": "currencyCt",
          "type": "address"
        },
        {
          "internalType": "uint256",
          "name": "currencyId",
          "type": "uint256"
        },
        {
          "internalType": "uint256",
          "name": "blockNumber",
          "type": "uint256"
        }
      ],
      "name": "closedAccrualIndexByBlockNumber",
      "outputs": [
        {
          "internalType": "uint256",
          "name": "",
          "type": "uint256"
        }
      ],
      "payable": false,
      "stateMutability": "view",
      "type": "function"
    },
    {
      "constant": true,
      "inputs": [
        {
          "internalType": "address",
          "name": "wallet",
          "type": "address"
        },
        {
          "internalType": "address",
          "name": "currencyCt",
          "type": "address"
        },
        {
          "internalType": "uint256",
          "name": "currencyId",
          "type": "uint256"
        },
        {
          "internalType": "uint256",
          "name": "startAccrualIndex",
          "type": "uint256"
        },
        {
          "internalType": "uint256",
          "name": "endAccrualIndex",
          "type": "uint256"
        }
      ],
      "name": "claimableAmountByAccruals",
      "outputs": [
        {
          "internalType": "int256",
          "name": "",
          "type": "int256"
        }
      ],
      "payable": false,
      "stateMutability": "view",
      "type": "function"
    },
    {
      "constant": true,
      "inputs": [
        {
          "internalType": "address",
          "name": "wallet",
          "type": "address"
        },
        {
          "internalType": "address",
          "name": "currencyCt",
          "type": "address"
        },
        {
          "internalType": "uint256",
          "name": "currencyId",
          "type": "uint256"
        },
        {
          "internalType": "uint256",
          "name": "startBlock",
          "type": "uint256"
        },
        {
          "internalType": "uint256",
          "name": "endBlock",
          "type": "uint256"
        }
      ],
      "name": "claimableAmountByBlockNumbers",
      "outputs": [
        {
          "internalType": "int256",
          "name": "",
          "type": "int256"
        }
      ],
      "payable": false,
      "stateMutability": "view",
      "type": "function"
    },
    {
      "constant": false,
      "inputs": [
        {
          "internalType": "contract Beneficiary",
          "name": "beneficiary",
          "type": "address"
        },
        {
          "internalType": "address",
          "name": "destWallet",
          "type": "address"
        },
        {
          "internalType": "string",
          "name": "balanceType",
          "type": "string"
        },
        {
          "internalType": "address",
          "name": "currencyCt",
          "type": "address"
        },
        {
          "internalType": "uint256",
          "name": "currencyId",
          "type": "uint256"
        },
        {
          "internalType": "string",
          "name": "standard",
          "type": "string"
        }
      ],
      "name": "claimAndTransferToBeneficiary",
      "outputs": [],
      "payable": false,
      "stateMutability": "nonpayable",
      "type": "function"
    },
    {
      "constant": false,
      "inputs": [
        {
          "internalType": "contract Beneficiary",
          "name": "beneficiary",
          "type": "address"
        },
        {
          "internalType": "address",
          "name": "destWallet",
          "type": "address"
        },
        {
          "internalType": "string",
          "name": "balanceType",
          "type": "string"
        },
        {
          "internalType": "address",
          "name": "currencyCt",
          "type": "address"
        },
        {
          "internalType": "uint256",
          "name": "currencyId",
          "type": "uint256"
        },
        {
          "internalType": "uint256",
          "name": "startAccrualIndex",
          "type": "uint256"
        },
        {
          "internalType": "uint256",
          "name": "endAccrualIndex",
          "type": "uint256"
        },
        {
          "internalType": "string",
          "name": "standard",
          "type": "string"
        }
      ],
      "name": "claimAndTransferToBeneficiary",
      "outputs": [],
      "payable": false,
      "stateMutability": "nonpayable",
      "type": "function"
    },
    {
      "constant": false,
      "inputs": [
        {
          "internalType": "address",
          "name": "currencyCt",
          "type": "address"
        },
        {
          "internalType": "uint256",
          "name": "currencyId",
          "type": "uint256"
        },
        {
          "internalType": "uint256",
          "name": "startAccrualIndex",
          "type": "uint256"
        },
        {
          "internalType": "uint256",
          "name": "endAccrualIndex",
          "type": "uint256"
        }
      ],
      "name": "claimAndStageByAccruals",
      "outputs": [],
      "payable": false,
      "stateMutability": "nonpayable",
      "type": "function"
    },
    {
      "constant": false,
      "inputs": [
        {
          "internalType": "address",
          "name": "currencyCt",
          "type": "address"
        },
        {
          "internalType": "uint256",
          "name": "currencyId",
          "type": "uint256"
        },
        {
          "internalType": "uint256",
          "name": "startBlock",
          "type": "uint256"
        },
        {
          "internalType": "uint256",
          "name": "endBlock",
          "type": "uint256"
        }
      ],
      "name": "claimAndStageByBlockNumbers",
      "outputs": [],
      "payable": false,
      "stateMutability": "nonpayable",
      "type": "function"
    },
    {
      "constant": true,
      "inputs": [
        {
          "internalType": "address",
          "name": "wallet",
          "type": "address"
        },
        {
          "internalType": "address",
          "name": "currencyCt",
          "type": "address"
        },
        {
          "internalType": "uint256",
          "name": "currencyId",
          "type": "uint256"
        },
        {
          "internalType": "uint256",
          "name": "accrualIndex",
          "type": "uint256"
        }
      ],
      "name": "fullyClaimed",
      "outputs": [
        {
          "internalType": "bool",
          "name": "",
          "type": "bool"
        }
      ],
      "payable": false,
      "stateMutability": "view",
      "type": "function"
    },
    {
      "constant": true,
      "inputs": [
        {
          "internalType": "address",
          "name": "wallet",
          "type": "address"
        },
        {
          "internalType": "address",
          "name": "currencyCt",
          "type": "address"
        },
        {
          "internalType": "uint256",
          "name": "currencyId",
          "type": "uint256"
        },
        {
          "internalType": "uint256",
          "name": "accrualIndex",
          "type": "uint256"
        }
      ],
      "name": "partiallyClaimed",
      "outputs": [
        {
          "internalType": "bool",
          "name": "",
          "type": "bool"
        }
      ],
      "payable": false,
      "stateMutability": "view",
      "type": "function"
    },
    {
      "constant": true,
      "inputs": [
        {
          "internalType": "address",
          "name": "wallet",
          "type": "address"
        },
        {
          "internalType": "address",
          "name": "currencyCt",
          "type": "address"
        },
        {
          "internalType": "uint256",
          "name": "currencyId",
          "type": "uint256"
        },
        {
          "internalType": "uint256",
          "name": "accrualIndex",
          "type": "uint256"
        }
      ],
      "name": "claimedBlockSpans",
      "outputs": [
        {
          "components": [
            {
              "internalType": "uint256",
              "name": "startBlock",
              "type": "uint256"
            },
            {
              "internalType": "uint256",
              "name": "endBlock",
              "type": "uint256"
            }
          ],
          "internalType": "struct TokenHolderRevenueFund.BlockSpan[]",
          "name": "",
          "type": "tuple[]"
        }
      ],
      "payable": false,
      "stateMutability": "view",
      "type": "function"
    },
    {
      "constant": false,
      "inputs": [
        {
          "internalType": "int256",
          "name": "amount",
          "type": "int256"
        },
        {
          "internalType": "address",
          "name": "currencyCt",
          "type": "address"
        },
        {
          "internalType": "uint256",
          "name": "currencyId",
          "type": "uint256"
        },
        {
          "internalType": "string",
          "name": "standard",
          "type": "string"
        }
      ],
      "name": "withdraw",
      "outputs": [],
      "payable": false,
      "stateMutability": "nonpayable",
      "type": "function"
    }
  ],
  "bytecode": "0x60806040523480156200001157600080fd5b5060405162005cf338038062005cf38339810160408190526200003491620000b3565b80806001600160a01b0381166200004a57600080fd5b6001600160a01b0381163014156200006157600080fd5b5060008054610100600160a81b0319166101006001600160a01b0393909316928302179055600180546001600160a01b03191690911790555062000108565b8051620000ad81620000ee565b92915050565b600060208284031215620000c657600080fd5b6000620000d48484620000a0565b949350505050565b60006001600160a01b038216620000ad565b620000f981620000dc565b81146200010557600080fd5b50565b615bdb80620001186000396000f3fe6080604052600436106102b25760003560e01c8063070693f1146102cd578063090735e5146103035780630f200f9b1461032557806312e94dda1461034557806317ba3f90146103725780631e6df71d146103925780632738a112146103bf57806327c3a296146103d45780632b5672e3146103f45780632b91e0a9146104145780632f013a00146104345780632f04452314610449578063382e8023146104695780633b58c501146104895780633b7bea6c146104a957806342be33ab146104be5780634476d23b146104de5780634506e93514610500578063477fbc39146105155780634c83d8eb1461053557806350b08c0214610555578063570ca7351461057557806357823a451461058a5780635af36995146105aa5780635df1b0a3146105cc5780635eb05538146105ec5780635f2896511461060c578063610f22981461062c57806369ac566d1461064c57806370327ea1146106615780637c8cf970146106765780637e15dd5c1461068b5780638bc4644d146106ab5780638e0615b2146106cb5780638e8cef12146106e05780639114574d146107005780639621473514610720578063962c85a2146107405780639caffcbd1461076d5780639fea020a14610782578063a7654a1f146107a2578063af30b312146107b5578063b3ab15fb146107ca578063b6b55f25146107ea578063ba06820c1461081a578063bb4e34ea1461083a578063c45a9a7f1461084f578063cb9bd04c1461086f578063cc67be7e1461088f578063ce256213146108af578063d08be0bc146108cf578063d3b41bd2146108ef578063d4cf33181461090f578063d5f394881461092f578063e5a52a3b14610944578063e82c751814610964578063e8aa22ba14610984578063f50358e7146109a4578063f8e59083146109c4578063f971f7c1146109e4578063fdd9ec7d14610a13575b6102cb3360405180602001604052806000815250610a33565b005b3480156102d957600080fd5b506102ed6102e836600461479c565b610b52565b6040516102fa91906157cf565b60405180910390f35b34801561030f57600080fd5b50610318610be6565b6040516102fa91906157dd565b34801561033157600080fd5b506102cb610340366004614c13565b610bf5565b34801561035157600080fd5b5061036561036036600461474f565b610f48565b6040516102fa9190615849565b34801561037e57600080fd5b506102ed61038d366004614731565b610f7b565b34801561039e57600080fd5b506103b26103ad36600461479c565b610fb3565b6040516102fa91906157ad565b3480156103cb57600080fd5b506102cb6110e0565b3480156103e057600080fd5b506102cb6103ef366004614731565b611146565b34801561040057600080fd5b506102cb61040f366004614872565b61121e565b34801561042057600080fd5b506102ed61042f366004614731565b611338565b34801561044057600080fd5b506102ed611356565b34801561045557600080fd5b50610365610464366004614978565b61135f565b34801561047557600080fd5b506102cb610484366004614a7d565b611373565b34801561049557600080fd5b506102cb6104a4366004614872565b6113ff565b3480156104b557600080fd5b506103656114d9565b3480156104ca57600080fd5b506103656104d93660046147fd565b6114df565b3480156104ea57600080fd5b506104f3611603565b6040516102fa91906154ec565b34801561050c57600080fd5b50610365611618565b34801561052157600080fd5b506102cb610530366004614a0d565b611629565b34801561054157600080fd5b50610365610550366004614731565b6118d2565b34801561056157600080fd5b506102cb610570366004614731565b6118e4565b34801561058157600080fd5b506104f3611994565b34801561059657600080fd5b506103656105a53660046149a8565b6119a3565b3480156105b657600080fd5b506105bf611a41565b6040516102fa9190615873565b3480156105d857600080fd5b506102ed6105e7366004614872565b611a71565b3480156105f857600080fd5b506102cb610607366004614a7d565b611ac0565b34801561061857600080fd5b506102cb6106273660046148c3565b611b4c565b34801561063857600080fd5b5061036561064736600461479c565b611dc4565b34801561065857600080fd5b50610365611e0c565b34801561066d57600080fd5b506102cb611e18565b34801561068257600080fd5b50610318611e7b565b34801561069757600080fd5b506102cb6106a6366004614d14565b611e8a565b3480156106b757600080fd5b506103656106c63660046147fd565b611edb565b3480156106d757600080fd5b5061031861228c565b3480156106ec57600080fd5b506102cb6106fb366004614731565b61229b565b34801561070c57600080fd5b506102ed61071b36600461479c565b612315565b34801561072c57600080fd5b506102cb61073b366004614731565b6123a9565b34801561074c57600080fd5b5061076061075b366004614d32565b61245b565b6040516102fa91906157be565b34801561077957600080fd5b5061036561246f565b34801561078e57600080fd5b506102cb61079d3660046149da565b612475565b6102cb6107b0366004614872565b610a33565b3480156107c157600080fd5b5061031861251f565b3480156107d657600080fd5b506102cb6107e5366004614731565b61252e565b3480156107f657600080fd5b5061080a610805366004614d14565b6125d1565b6040516102fa9493929190615865565b34801561082657600080fd5b506102cb610835366004614a7d565b6125f6565b34801561084657600080fd5b50610365612666565b34801561085b57600080fd5b506102cb61086a366004614c7f565b612672565b34801561087b57600080fd5b5061076061088a366004614d32565b61268f565b34801561089b57600080fd5b506104f36108aa366004614d14565b6126a3565b3480156108bb57600080fd5b506102cb6108ca366004614a9b565b6126ca565b3480156108db57600080fd5b506102cb6108ea366004614af9565b612767565b3480156108fb57600080fd5b506102cb61090a366004614a7d565b612a1b565b34801561091b57600080fd5b506102cb61092a366004614731565b612ab2565b34801561093b57600080fd5b506104f3612c57565b34801561095057600080fd5b506102ed61095f366004614731565b612c6b565b34801561097057600080fd5b5061036561097f3660046149a8565b612c88565b34801561099057600080fd5b506102cb61099f3660046149da565b612ca9565b3480156109b057600080fd5b506103656109bf366004614978565b612d43565b3480156109d057600080fd5b506103656109df366004614978565b612d57565b3480156109f057600080fd5b50610a046109ff3660046149a8565b612d7f565b6040516102fa939291906159a4565b348015610a1f57600080fd5b506102cb610a2e366004614731565b612dcc565b60405163802d10af60e01b815260009073__SafeMathIntLib________________________9063802d10af90610a6d903490600401615849565b60206040518083038186803b158015610a8557600080fd5b505af4158015610a99573d6000803e3d6000fd5b505050506040513d601f19601f82011682018060405250610abd9190810190614bf5565b9050610ad360088260008063ffffffff612e4116565b610ae760108260008063ffffffff612e4116565b610afa600e60008063ffffffff612eec16565b610b0d601660008063ffffffff612eec16565b610b2160188260008063ffffffff612f8816565b600080516020615b798339815191528382600080604051610b4594939291906156a1565b60405180910390a1505050565b6001600160a01b0383166000908152601c6020908152604080832085845290915281205482108015610bdb57506001600160a01b0384166000908152601c602090815260408083208684529091529020805483908110610bae57fe5b600091825260208083206001600160a01b03891684526003600490930201919091019052604090205460ff165b90505b949350505050565b6007546001600160a01b031681565b6040516351750e5360e11b815273__SafeMathIntLib________________________9063a2ea1ca690610c2c908790600401615849565b60206040518083038186803b158015610c4457600080fd5b505af4158015610c58573d6000803e3d6000fd5b505050506040513d601f19601f82011682018060405250610c7c9190810190614a41565b610ca15760405162461bcd60e51b8152600401610c98906158f4565b60405180910390fd5b33600090815260216020526040902073__SafeMathIntLib________________________9063755875b2908690610cdf90878763ffffffff61305516565b6040518363ffffffff1660e01b8152600401610cfc929190615857565b60206040518083038186803b158015610d1457600080fd5b505af4158015610d28573d6000803e3d6000fd5b505050506040513d601f19601f82011682018060405250610d4c9190810190614bf5565b336000908152602160205260409020909450610d709085858563ffffffff61307d16565b6001600160a01b038316158015610d85575081155b15610dbd57604051339085156108fc029086906000818181858888f19350505050158015610db7573d6000803e3d6000fd5b50610f03565b6000610dc984836130af565b90506000816001600160a01b0316826001600160a01b0316637228941f6040518163ffffffff1660e01b815260040160206040518083038186803b158015610e1057600080fd5b505afa158015610e24573d6000803e3d6000fd5b505050506040513d601f19601f82011682018060405250610e489190810190614a5f565b3033898989604051602401610e61959493929190615508565b60408051601f198184030181529181526020820180516001600160e01b03166001600160e01b0319909416939093179092529051610e9f91906154e0565b600060405180830381855af49150503d8060008114610eda576040519150601f19603f3d011682016040523d82523d6000602084013e610edf565b606091505b5050905080610f005760405162461bcd60e51b8152600401610c98906158a4565b50505b7f8e0adde15ffb742f47e7888277a26cea416253fcb63186dc4949fe493e92b77c3385858585604051610f3a95949392919061556f565b60405180910390a150505050565b6001600160a01b0383166000908152602160205260408120610f7190848463ffffffff61305516565b90505b9392505050565b6000610f8682611338565b8015610fad57506001600160a01b0382166000908152600260205260409020600101544210155b92915050565b6001600160a01b0383166000908152601c602090815260408083208584529091529020546060908210611019576040805160008082526020820190925290611011565b610ffe614486565b815260200190600190039081610ff65790505b509050610bde565b6001600160a01b0384166000908152601c60209081526040808320868452909152902080548390811061104857fe5b600091825260208083206001600160a01b03891684526003600490930201919091018152604080832060010180548251818502810185019093528083529193909284015b828210156110d25783829060005260206000209060020201604051806040016040529081600082015481526020016001820154815250508152602001906001019061108c565b505050509050949350505050565b336110e9611603565b6001600160a01b0316146110fc57600080fd5b60005460ff161561110c57600080fd5b7f787a5d936e74f4b564b9153575886059829c78cd9927b1be5e0d976b317ef7363360405161113b91906154fa565b60405180910390a133ff5b61114e613133565b61115757600080fd5b806001600160a01b03811661116b57600080fd5b6001600160a01b0382166000908152601e602052604090205461121a57601d80546001810182557f6d4407e7be21f808e6509aa9fa9143369579dd7d760fe20a2c09680fc146134f0180546001600160a01b0319166001600160a01b03851690811790915590546000918252601e60205260409182902055517fe4396169e2643cb77e01f1e59496fbc0a3c47e69b33035cb6dbb29143f80b779906112119084906154ec565b60405180910390a15b5050565b611226613133565b61122f57600080fd5b816001600160a01b03811661124357600080fd5b6001600160a01b03811630141561125957600080fd5b6001600160a01b03831660009081526002602052604090205460ff1661127e57600080fd5b600061128983613149565b6001600160a01b0385166000908152600260208181526040808420858552909201905290205490915060ff16156112bf57600080fd5b6001600160a01b03841660009081526002602081815260408084208585528084018352818520805460ff19166001908117909155938352600301805493840181558452922001829055517fec1b982d69bfc1a6fd8becf191d9a633486c822d3bdedd52303ca81fa635750190610f3a908690869061570b565b6001600160a01b031660009081526002602052604090205460ff1690565b60005460ff1681565b6000610f746008848463ffffffff61305516565b61137b613133565b61138457600080fd5b806001600160a01b03811661139857600080fd5b6001600160a01b0381163014156113ae57600080fd5b600680546001600160a01b0319166001600160a01b0384811691909117918290556040517f49edb64497e12c80343b51bfe18170a760a1152336abe904047a2a81244ea5dd926112119216906157dd565b611407613133565b61141057600080fd5b816001600160a01b03811661142457600080fd5b6001600160a01b03811630141561143a57600080fd5b600061144583613149565b6001600160a01b0385166000908152600260208181526040808420858552909201905290205490915060ff1661147a57600080fd5b6001600160a01b0384166000908152600260208181526040808420858552909201905290819020805460ff19169055517f92f4af6130f47c92f3899e06611c8c6ef191fb81207ad2675d134af619d2fe7d90610f3a908690869061570b565b60035481565b60006114ea86612c6b565b156114f7575060006115fa565b6001600160a01b0385166000908152601c60209081526040808320878452909152902054611527575060006115fa565b818311156115475760405162461bcd60e51b8152600401610c9890615954565b6000835b83811115801561157d57506001600160a01b0387166000908152601c6020908152604080832089845290915290205481105b156115f6576001600160a01b0387166000908152601c60209081526040808320898452909152902080546115dc916115cf918b9190859081106115bc57fe5b9060005260206000209060040201613179565b839063ffffffff6131e516565b91506115ef81600163ffffffff61321816565b905061154b565b5090505b95945050505050565b60005461010090046001600160a01b03165b90565b60006116246018613227565b905090565b6040518060400160405280601481526020017318db1bdcd957d858d8dc9d585b17dc195c9a5bd960621b8152506116603382611a71565b61166957600080fd5b60005b82518110156118cd5761167d6144a0565b83828151811061168957fe5b6020026020010151905060006116b38260000151836020015160086130559092919063ffffffff16565b82516001600160a01b03166000908152601c6020908152604080832082870151845290915281205491925090156117515782516001600160a01b039081166000908152601c60208181526040808420828901805186529083528185208951909616855292825280842092518452919052902054815460001990910190811061173757fe5b906000526020600020906004020160010154600101611754565b60005b83516001600160a01b03166000908152601c60209081526040808320828801805185529083528184208251606081018452868152438186019081529381018981528254600181810185559388529590962090516004909502019384559151918301919091559151600290910155845190519192506117d191612d43565b83516001600160a01b0316600090815260208080526040808320878301518452825280832043845290915281209190915582131561183f5782516020840151611826916008916000919063ffffffff61322b16565b8251602084015161183f91600e9163ffffffff6132a216565b82516001600160a01b03166000908152602080805260408083208683018051855290835281842043855290925291829020548551915192517f0a770107c3c8295a15ff19c83dec676996da3dc1f5ab3cb7a931bd2658643c90936118a893879392909190615865565b60405180910390a1506118c69150829050600163ffffffff61321816565b905061166c565b505050565b601e6020526000908152604090205481565b6118ec613133565b6118f557600080fd5b806001600160a01b03811661190957600080fd5b6001600160a01b03811630141561191f57600080fd5b6001600160a01b03821660009081526002602052604090205460ff1661194457600080fd5b6001600160a01b03821660009081526002602052604090819020805460ff19169055517f777645c5437dfbf962f57a281ead25f3d513f2f8e938685bbfc1738e81c9880e906112119084906154ec565b6001546001600160a01b031681565b6001600160a01b0383166000908152601c602090815260408083208584529091528120545b8015611a36576119df81600163ffffffff6132db16565b6001600160a01b0386166000908152601c6020908152604080832088845290915290208054919250849183908110611a1357fe5b90600052602060002090600402016000015411611a31579050610f74565b6119c8565b506000949350505050565b6040518060400160405280601481526020017318db1bdcd957d858d8dc9d585b17dc195c9a5bd960621b81525081565b600080611a7d83613149565b9050611a8884610f7b565b8015610bde57506001600160a01b0384166000908152600260208181526040808420858552909201905290205460ff16949350505050565b611ac8613133565b611ad157600080fd5b806001600160a01b038116611ae557600080fd5b6001600160a01b038116301415611afb57600080fd5b600780546001600160a01b0319166001600160a01b0384811691909117918290556040517f745dbbb080f77d19f28fe88197e1ff57bfb2e9a748b0da9843d721fbdef4f313926112119216906157dd565b6040516351750e5360e11b815273__SafeMathIntLib________________________9063a2ea1ca690611b83908790600401615849565b60206040518083038186803b158015611b9b57600080fd5b505af4158015611baf573d6000803e3d6000fd5b505050506040513d601f19601f82011682018060405250611bd39190810190614a41565b611bef5760405162461bcd60e51b8152600401610c9890615994565b6000611bfb84836130af565b90506000816001600160a01b0316826001600160a01b031663ad502f576040518163ffffffff1660e01b815260040160206040518083038186803b158015611c4257600080fd5b505afa158015611c56573d6000803e3d6000fd5b505050506040513d601f19601f82011682018060405250611c7a9190810190614a5f565b3330898989604051602401611c93959493929190615554565b60408051601f198184030181529181526020820180516001600160e01b03166001600160e01b0319909416939093179092529051611cd191906154e0565b600060405180830381855af49150503d8060008114611d0c576040519150601f19603f3d011682016040523d82523d6000602084013e611d11565b606091505b5050905080611d325760405162461bcd60e51b8152600401610c9890615904565b611d45600887878763ffffffff612e4116565b611d58601087878763ffffffff612e4116565b611d6a600e868663ffffffff612eec16565b611d7c6016868663ffffffff612eec16565b611d8f601887878763ffffffff612f8816565b600080516020615b7983398151915288878787604051611db294939291906156d6565b60405180910390a15050505050505050565b601f6020528360005260406000206020528260005260406000206020528160005260406000208181548110611df557fe5b906000526020600020016000935093505050505481565b6000611624600e613227565b33611e21611603565b6001600160a01b031614611e3457600080fd5b6000805460ff191660011790556040517fd5a2a04a775c741c2ca0dc46ea7ce4835190e1aaf1ca018def0e82568ec3361690611e719033906154fa565b60405180910390a1565b6005546001600160a01b031681565b611e92613133565b611e9b57600080fd5b60038190556040517f4f1d324a1cbffc352fb64f1d73d95e4b200d92f99ef39bf2d7f5b41f946909d690611ed0908390615849565b60405180910390a150565b6000611ee686612c6b565b15611ef3575060006115fa565b6001600160a01b0385166000908152601c60209081526040808320878452909152902054611f23575060006115fa565b81831115611f435760405162461bcd60e51b8152600401610c9890615964565b6000611f508686866119a3565b90506000611f5f8787866119a3565b6001600160a01b0388166000908152601c602090815260408083208a845290915281208054929350909183908110611f9357fe5b906000526020600020906004020190508060000154851015611fbb57600093505050506115fa565b60008284101561212d576001600160a01b0389166000908152601c602090815260408083208b84529091528120805486908110611ff457fe5b906000526020600020906004020190506121298b828a73__SafeMathUintLib_______________________63a682d5ad909186600001546040518363ffffffff1660e01b8152600401612048929190615857565b60206040518083038186803b15801561206057600080fd5b505af4158015612074573d6000803e3d6000fd5b505050506040513d601f19601f820116820180604052506120989190810190614bf5565b600185015460405163700f1a7760e01b815273__SafeMathUintLib_______________________9163700f1a77916120d4918f91600401615857565b60206040518083038186803b1580156120ec57600080fd5b505af4158015612100573d6000803e3d6000fd5b505050506040513d601f19601f820116820180604052506121249190810190614bf5565b6132ed565b9150505b600061214085600163ffffffff61321816565b90505b8381101561219f576001600160a01b038a166000908152601c602090815260408083208c845290915290208054612185916115cf918e9190859081106115bc57fe5b915061219881600163ffffffff61321816565b9050612143565b50815460405163a682d5ad60e01b815261227e91612271918d91869173__SafeMathUintLib_______________________9163a682d5ad916121e5918f91600401615857565b60206040518083038186803b1580156121fd57600080fd5b505af4158015612211573d6000803e3d6000fd5b505050506040513d601f19601f820116820180604052506122359190810190614bf5565b600187015460405163700f1a7760e01b815273__SafeMathUintLib_______________________9163700f1a77916120d4918f91600401615857565b829063ffffffff6131e516565b9a9950505050505050505050565b6006546001600160a01b031681565b6122a3613133565b6122ac57600080fd5b806001600160a01b0381166122c057600080fd5b6001600160a01b0381163014156122d657600080fd5b6122e2826003546133b4565b7f7f3a8349917003ed377f6e9ae1608b92edd893903f8983bd274b1f8373dd3b1182600354604051611211929190615792565b6001600160a01b0383166000908152601c6020908152604080832085845290915281205482108015610bdb57506001600160a01b0384166000908152601c60209081526040808320868452909152902080548390811061237157fe5b600091825260208083206001600160a01b03891684526003600490930201919091019052604090206001015415159050949350505050565b6123b1613133565b6123ba57600080fd5b806001600160a01b0381166123ce57600080fd5b6001600160a01b0381163014156123e457600080fd5b6000546001600160a01b03838116610100909204161461121a57600080546001600160a01b03848116610100908102610100600160a81b03198416179093556040519290910416907f977e5fa58e458501775e0008d275006294c5249e3c08d1d0e3a9f3acad14f6e490610b459083908690615686565b6060610f746016848463ffffffff61340316565b601d5490565b61247e33612c6b565b1561249b5760405162461bcd60e51b8152600401610c98906158c4565b60006124aa3386868686613591565b90508060001215612518573360009081526021602052604090206124d69082878763ffffffff612e4116565b7fe92e3be0a2d22d0361a111058b5c672043df42105c60fc3e0f1f8d84e849e05633828787878760405161250f969594939291906155c1565b60405180910390a15b5050505050565b6004546001600160a01b031681565b612536613a8f565b61253f57600080fd5b806001600160a01b03811661255357600080fd5b6001600160a01b03811630141561256957600080fd5b6001546001600160a01b0383811691161461121a57600180546001600160a01b038481166001600160a01b03198316179092556040519116907f9f611b789425d0d5b90b920f1b2852907dd865c80074a30b1629aaa041d1812c90610b459083908690615686565b60008080806125e760188663ffffffff613aa016565b93509350935093509193509193565b6125fe613133565b61260757600080fd5b806001600160a01b03811661261b57600080fd5b600580546001600160a01b0319166001600160a01b0384161790556040517f32647f34ccf7e02c0ef66ee2d9998df35b42b616ae075c3be114800b8dddbc41906112119084906157dd565b60006116246016613227565b612518336040518060200160405280600081525086868686611b4c565b6060610f74600e848463ffffffff61340316565b601d81815481106126b057fe5b6000918252602090912001546001600160a01b0316905081565b336000908152601f602090815260408083206001600160a01b038716845282528083208584529091528120541561274957336000908152601f602090815260408083206001600160a01b0388168452825280832086845290915290208054600019810190811061273657fe5b906000526020600020015460010161274c565b60005b905061275e8787878787868789612767565b50505050505050565b61277033612c6b565b1561278d5760405162461bcd60e51b8152600401610c9890615894565b600061279c3387878787613b6a565b90506001600160a01b0386161580156127b3575084155b1561281f5760405163a7654a1f60e01b81526001600160a01b038a169063a7654a1f9083906127e8908c908c9060040161570b565b6000604051808303818588803b15801561280157600080fd5b505af1158015612815573d6000803e3d6000fd5b50505050506129cb565b600061282b87846130af565b90506000816001600160a01b0316826001600160a01b0316631711a8946040518163ffffffff1660e01b815260040160206040518083038186803b15801561287257600080fd5b505afa158015612886573d6000803e3d6000fd5b505050506040513d601f19601f820116820180604052506128aa9190810190614a5f565b8c858b8b6040516024016128c194939291906156d6565b60408051601f198184030181529181526020820180516001600160e01b03166001600160e01b03199094169390931790925290516128ff91906154e0565b600060405180830381855af49150503d806000811461293a576040519150601f19603f3d011682016040523d82523d6000602084013e61293f565b606091505b50509050806129605760405162461bcd60e51b8152600401610c9890615914565b604051635f28965160e01b81526001600160a01b038c1690635f28965190612996908d908d9088908e908e908c9060040161572b565b600060405180830381600087803b1580156129b057600080fd5b505af11580156129c4573d6000803e3d6000fd5b5050505050505b7f593afcc136b9d691995345a9f06c38c7de4c11224b4ff429bd5be1984b5cafb43388838989898989604051612a08989796959493929190615610565b60405180910390a1505050505050505050565b612a23613133565b612a2c57600080fd5b806001600160a01b038116612a4057600080fd5b60045482906001600160a01b039081169082168114612aac57600480546001600160a01b038681166001600160a01b03198316179092556040519116907fee9ef6d53e152e48b1ebc1c23943fb2b96e847465ed779a0e2121a388ea83d2f9061250f908390889061582e565b50505050565b612aba613133565b612ac357600080fd5b806001600160a01b038116612ad757600080fd5b6001600160a01b0382166000908152601e60205260409020541561121a57601d546001600160a01b0383166000908152601e60205260409020541015612bf857601d8054612b2c90600163ffffffff6132db16565b81548110612b3657fe5b60009182526020808320909101546001600160a01b038581168452601e909252604090922054911690601d90612b7390600163ffffffff6132db16565b81548110612b7d57fe5b600091825260208083209190910180546001600160a01b0319166001600160a01b039485161790559184168152601e918290526040812054601d805491939291612bc89060016132db565b81548110612bd257fe5b60009182526020808320909101546001600160a01b031683528201929092526040019020555b601d805490612c0b9060001983016144b7565b506001600160a01b0382166000908152601e602052604080822091909155517f0d8be6a18e0ad39c992d101c73d1113eeedbcbf4fa39bdba05b84db5213e7682906112119084906154ec565b60005461010090046001600160a01b031681565b6001600160a01b03166000908152601e6020526040902054151590565b60208080526000938452604080852082529284528284209052825290205481565b612cb233612c6b565b15612ccf5760405162461bcd60e51b8152600401610c9890615924565b6000612cde3386868686613b6a565b9050806000121561251857336000908152602160205260409020612d0a9082878763ffffffff612e4116565b7fc7b8188bfd955fd62781820d9b39b616d9e20a8f2747deb30510202108e3575c33828787878760405161250f969594939291906155c1565b6000610f746010848463ffffffff61305516565b6001600160a01b03919091166000908152601c60209081526040808320938352929052205490565b601c6020528260005260406000206020528160005260406000208181548110612da457fe5b6000918252602090912060049091020180546001820154600290920154909450909250905083565b612dd4613133565b612ddd57600080fd5b806001600160a01b038116612df157600080fd5b6001600160a01b038116301415612e0757600080fd5b612e128260006133b4565b7fb619d545cb511bd5f02907a1eac4f4cb8dace7b1846852fb0bf5e553937481c18260405161121191906154ec565b6001600160a01b038216600090815260208581526040808320848452909152902054612e73908463ffffffff6131e516565b6001600160a01b0383166000818152602087815260408083208684528083528184208690559383526001808a018352818420878552835281842082518084019093529483529481524381830190815284548087018655948452919092209151600290930290910191825551910155612aac848383613cc8565b6001600160a01b038216600090815260018401602090815260408083208484529091529020546118cd576040805180820182526001600160a01b039384168082526020808301858152875460018082018a5560008a81528481209651600290930290960180546001600160a01b031916929099169190911788559051968101969096558654918352949095018452818120928152919092522055565b612f906144db565b50604080516080810182529384524360208086019182526001600160a01b0394851686840181815260608801868152895460018181018c5560008c81528681208c516004948502909101908155885181840155855160028083018054928f166001600160a01b031993841617905586516003938401559783529d830188528982209a8252998752978820805480830182559089529590972099519402909801928355925193820193909355905191810180549290941691909516179091559051910155565b6001600160a01b03919091166000908152602092835260408082209282529190925290205490565b6001600160a01b038216600090815260208581526040808320848452909152902054612e73908463ffffffff613d6416565b60048054604051630c8a483b60e41b81526000926001600160a01b039092169163c8a483b0916130e391879187910161570b565b60206040518083038186803b1580156130fb57600080fd5b505afa15801561310f573d6000803e3d6000fd5b505050506040513d601f19601f82011682018060405250610f749190810190614bd7565b60005461010090046001600160a01b0316331490565b60008160405160200161315c91906154e0565b604051602081830303815290604052805190602001209050919050565b60006131858383613d98565b61319157506000610fad565b60006131a68484600001548560010154613df7565b905060006131bc84600001548560010154613ef5565b90506115fa816131d9848760020154613ff090919063ffffffff16565b9063ffffffff61403b16565b60008282018183128015906131fa5750838112155b8061320f575060008312801561320f57508381125b610f7457600080fd5b600082820183811015610f7457fe5b5490565b6001600160a01b0382166000818152602086815260408083208584528083528184208890559383526001808901835281842086855283528184208251808401909352948352878252438284019081528554808301875595855292909320905160029094020192835551910155612aac848383613cc8565b6001600160a01b038216600090815260018401602090815260408083208484529091529020548015612aac57612aac8460018303614067565b6000828211156132e757fe5b50900390565b60006132fb85858585614202565b61330757506000610bde565b6000613314868585613df7565b905060006133228585613ef5565b90506000613347600161333b878963ffffffff6132db16565b9063ffffffff61321816565b9050600061336b600161333b8a600001548b600101546132db90919063ffffffff16565b90506133a7613380848363ffffffff613ff016565b6131d98461339b888d60020154613ff090919063ffffffff16565b9063ffffffff613ff016565b9998505050505050505050565b6001600160a01b03821660009081526002602052604090205460ff1661121a576001600160a01b0382166000908152600260205260409020805460ff1916600190811782554283019101555050565b82546060906134245760405162461bcd60e51b8152600401610c98906158e4565b818311156134445760405162461bcd60e51b8152600401610c98906158b4565b835460405163700f1a7760e01b815273__SafeMathUintLib_______________________9163700f1a779161348491869160001990910190600401615857565b60206040518083038186803b15801561349c57600080fd5b505af41580156134b0573d6000803e3d6000fd5b505050506040513d601f19601f820116820180604052506134d49190810190614bf5565b9150606083830360010160405190808252806020026020018201604052801561351757816020015b6135046144a0565b8152602001906001900390816134fc5790505b509050835b8381116135885785600001818154811061353257fe5b60009182526020918290206040805180820190915260029092020180546001600160a01b0316825260010154918101919091528251839087840390811061357557fe5b602090810291909101015260010161351c565b50949350505050565b6001600160a01b0384166000908152601c602090815260408083208684529091528120546135d15760405162461bcd60e51b8152600401610c9890615944565b818311156135f15760405162461bcd60e51b8152600401610c9890615984565b60006135fe8686866119a3565b9050600061360d8787866119a3565b905060008080838510156137d5576001600160a01b038a166000908152601c602090815260408083208c8452909152812080548790811061364a57fe5b60009182526020909120600491820201805460405163a682d5ad60e01b815291935073__SafeMathUintLib_______________________9263a682d5ad92613696928e92909101615857565b60206040518083038186803b1580156136ae57600080fd5b505af41580156136c2573d6000803e3d6000fd5b505050506040513d601f19601f820116820180604052506136e69190810190614bf5565b600182015460405163700f1a7760e01b815291945073__SafeMathUintLib_______________________9163700f1a7791613726918c9190600401615857565b60206040518083038186803b15801561373e57600080fd5b505af4158015613752573d6000803e3d6000fd5b505050506040513d601f19601f820116820180604052506137769190810190614bf5565b91506137848c8285856132ed565b93506137928c8285856143ab565b506001600160a01b03808c166000908152601f60209081526040808320938e1683529281528282208c835281529181208054600181018255908252919020018590555b60006137e886600163ffffffff61321816565b90505b848110156138b6576001600160a01b038b166000908152601c602090815260408083208d8452909152812080548390811061382257fe5b9060005260206000209060040201905061384c61383f8e83613179565b869063ffffffff6131e516565b94506138588d82614402565b506001600160a01b03808d166000908152601f60209081526040808320938f1683529281528282208d83528152918120805460018181018355918352929091209091018290556138af90829063ffffffff61321816565b90506137eb565b506001600160a01b038a166000908152601c602090815260408083208c845290915281208054869081106138e657fe5b60009182526020909120600491820201805460405163a682d5ad60e01b815291935073__SafeMathUintLib_______________________9263a682d5ad92613932928e92909101615857565b60206040518083038186803b15801561394a57600080fd5b505af415801561395e573d6000803e3d6000fd5b505050506040513d601f19601f820116820180604052506139829190810190614bf5565b600182015460405163700f1a7760e01b815291945073__SafeMathUintLib_______________________9163700f1a77916139c2918c9190600401615857565b60206040518083038186803b1580156139da57600080fd5b505af41580156139ee573d6000803e3d6000fd5b505050506040513d601f19601f82011682018060405250613a129190810190614bf5565b9150613a30613a238d8386866132ed565b859063ffffffff6131e516565b9350613a3e8c8285856143ab565b5050506001600160a01b03808a166000908152601f60209081526040808320938c1683529281528282208a835281529181208054600181018255908252919020019190915591505095945050505050565b6001546001600160a01b0316331490565b81546000908190819081908510613ac95760405162461bcd60e51b8152600401610c9890615884565b856000018581548110613ad857fe5b9060005260206000209060040201600001549350856000018581548110613afb57fe5b9060005260206000209060040201600101549250856000018581548110613b1e57fe5b600091825260209091206002600490920201015486546001600160a01b039091169250869086908110613b4d57fe5b906000526020600020906004020160030154905092959194509250565b6001600160a01b0384166000908152601c60209081526040808320868452909152812054613baa5760405162461bcd60e51b8152600401610c98906158d4565b81831115613bca5760405162461bcd60e51b8152600401610c9890615974565b6000835b838111158015613c0057506001600160a01b0387166000908152601c6020908152604080832089845290915290205481105b156115f6576001600160a01b0387166000908152601c602090815260408083208984529091528120805483908110613c3457fe5b90600052602060002090600402019050613c5e613c518a83613179565b849063ffffffff6131e516565b9250613c6a8982614402565b506001600160a01b038089166000908152601f60209081526040808320938b168352928152828220898352815291812080546001818101835591835292909120909101829055613cc190829063ffffffff61321816565b9050613bce565b6001600160a01b038216600090815260208481526040808320848452909152902054158015613d065750613d0660028401838363ffffffff61445716565b15613d2457613d1f60028401838363ffffffff6132a216565b6118cd565b613d3860028401838363ffffffff61445716565b6118cd57613d5060028401838363ffffffff612eec16565b6118cd60048401838363ffffffff612eec16565b6000808212158015613d7857508282840313155b80613d8f5750600082128015613d8f575082828403135b6132e757600080fd5b600081600201546000128015613dc957506001600160a01b038316600090815260038301602052604090205460ff16155b8015610f7457506001600160a01b038316600090815260038301602052604090206001015415905092915050565b60065460055460408051637e062a3560e11b815290516000936001600160a01b039081169363dac70dcb9391169163fc0c546a91600480820192602092909190829003018186803b158015613e4b57600080fd5b505afa158015613e5f573d6000803e3d6000fd5b505050506040513d601f19601f82011682018060405250613e839190810190614bd7565b8686866040518563ffffffff1660e01b8152600401613ea59493929190615813565b60206040518083038186803b158015613ebd57600080fd5b505afa158015613ed1573d6000803e3d6000fd5b505050506040513d601f19601f82011682018060405250610f719190810190614bf5565b60075460055460405163dac70dcb60e01b815260009283926001600160a01b039182169263dac70dcb92613f339216908590899089906004016157eb565b60206040518083038186803b158015613f4b57600080fd5b505afa158015613f5f573d6000803e3d6000fd5b505050506040513d601f19601f82011682018060405250613f839190810190614bf5565b905060005b601d54811015613fe857613fce613fc1601d8381548110613fa557fe5b6000918252602090912001546001600160a01b03168787613df7565b839063ffffffff613d6416565b9150613fe181600163ffffffff61321816565b9050613f88565b509392505050565b6000808312158015614003575060008212155b61400c57600080fd5b82820283158061402457508284828161402157fe5b05145b61402d57600080fd5b6000811215610f7457600080fd5b600080831215801561404d5750600082135b61405657600080fd5b81838161405f57fe5b059392505050565b815481106140875760405162461bcd60e51b8152600401610c9890615934565b600082600001828154811061409857fe5b6000918252602082206002909102015484546001600160a01b0390911692508490849081106140c357fe5b60009182526020909120600160029092020101548454909150600019018310156141c3578354849060001981019081106140f957fe5b906000526020600020906002020184600001848154811061411657fe5b600091825260208220835460029092020180546001600160a01b0319166001600160a01b03909216919091178155600192830154908301558554858301928701919087908790811061416457fe5b600091825260208083206002909202909101546001600160a01b031683528201929092526040018120865490919087908790811061419e57fe5b9060005260206000209060020201600101548152602001908152602001600020819055505b83546141d385600019830161450c565b506001600160a01b03909116600090815260019093016020908152604080852092855291905282209190915550565b600083600201546000148061423157506001600160a01b038516600090815260038501602052604090205460ff165b1561423e57506000610bde565b60005b6001600160a01b038616600090815260038601602052604090206001015481101561439f576001600160a01b0386166000908152600386016020526040902060010180548591908390811061429257fe5b906000526020600020906002020160000154111580156142ec57506001600160a01b038616600090815260038601602052604090206001018054829081106142d657fe5b9060005260206000209060020201600101548411155b8061437857506001600160a01b0386166000908152600386016020526040902060010180548491908390811061431e57fe5b9060005260206000209060020201600001541115801561437857506001600160a01b0386166000908152600386016020526040902060010180548290811061436257fe5b9060005260206000209060020201600101548311155b15614387576000915050610bde565b61439881600163ffffffff61321816565b9050614241565b50600195945050505050565b6001600160a01b039093166000908152600390920160209081526040808420815180830190925292815280820194855260019283018054808501825590855291909320925160029091029092019182559151910155565b6001600160a01b03821660009081526003820160205260409020805460ff19166001908117825501541561121a576001600160a01b038216600090815260038201602052604081206118cd9060010182614538565b6001600160a01b0382166000908152600184016020908152604080832084845290915290205415159392505050565b604051806040016040528060008152602001600081525090565b604080518082019091526000808252602082015290565b8154818355818111156118cd576000838152602090206118cd918101908301614564565b6040518060800160405280600081526020016000815260200160006001600160a01b03168152602001600081525090565b8154818355818111156118cd576002028160020283600052602060002091820191016118cd9190614582565b8154818355818111156118cd576002028160020283600052602060002091820191016118cd91906145ad565b61161591905b8082111561457e576000815560010161456a565b5090565b61161591905b8082111561457e5780546001600160a01b031916815560006001820155600201614588565b61161591905b8082111561457e57600080825560018201556002016145b3565b8035610fad81615add565b600082601f8301126145e957600080fd5b81356145fc6145f7826159f2565b6159cc565b9150818183526020840193506020810190508385604084028201111561462157600080fd5b60005b8381101561464f578161463788826146ea565b84525060209092019160409190910190600101614624565b5050505092915050565b8051610fad81615af4565b8051610fad81615afd565b8035610fad81615b06565b8051610fad81615b06565b8035610fad81615b0f565b8051610fad81615b0f565b600082601f8301126146ac57600080fd5b81356146ba6145f782615a12565b915080825260208301602083018583830111156146d657600080fd5b6146e1838284615a9b565b50505092915050565b6000604082840312156146fc57600080fd5b61470660406159cc565b9050600061471484846145cd565b825250602061472584848301614685565b60208301525092915050565b60006020828403121561474357600080fd5b6000610bde84846145cd565b60008060006060848603121561476457600080fd5b600061477086866145cd565b9350506020614781868287016145cd565b925050604061479286828701614685565b9150509250925092565b600080600080608085870312156147b257600080fd5b60006147be87876145cd565b94505060206147cf878288016145cd565b93505060406147e087828801614685565b92505060606147f187828801614685565b91505092959194509250565b600080600080600060a0868803121561481557600080fd5b600061482188886145cd565b9550506020614832888289016145cd565b945050604061484388828901614685565b935050606061485488828901614685565b925050608061486588828901614685565b9150509295509295909350565b6000806040838503121561488557600080fd5b600061489185856145cd565b92505060208301356001600160401b038111156148ad57600080fd5b6148b98582860161469b565b9150509250929050565b60008060008060008060c087890312156148dc57600080fd5b60006148e889896145cd565b96505060208701356001600160401b0381111561490457600080fd5b61491089828a0161469b565b955050604061492189828a01614685565b945050606061493289828a016145cd565b935050608061494389828a01614685565b92505060a08701356001600160401b0381111561495f57600080fd5b61496b89828a0161469b565b9150509295509295509295565b6000806040838503121561498b57600080fd5b600061499785856145cd565b92505060206148b985828601614685565b6000806000606084860312156149bd57600080fd5b60006149c986866145cd565b935050602061478186828701614685565b600080600080608085870312156149f057600080fd5b60006149fc87876145cd565b94505060206147cf87828801614685565b600060208284031215614a1f57600080fd5b81356001600160401b03811115614a3557600080fd5b610bde848285016145d8565b600060208284031215614a5357600080fd5b6000610bde8484614659565b600060208284031215614a7157600080fd5b6000610bde8484614664565b600060208284031215614a8f57600080fd5b6000610bde848461466f565b60008060008060008060c08789031215614ab457600080fd5b6000614ac0898961466f565b9650506020614ad189828a016145cd565b95505060408701356001600160401b03811115614aed57600080fd5b61492189828a0161469b565b600080600080600080600080610100898b031215614b1657600080fd5b6000614b228b8b61466f565b9850506020614b338b828c016145cd565b97505060408901356001600160401b03811115614b4f57600080fd5b614b5b8b828c0161469b565b9650506060614b6c8b828c016145cd565b9550506080614b7d8b828c01614685565b94505060a0614b8e8b828c01614685565b93505060c0614b9f8b828c01614685565b92505060e08901356001600160401b03811115614bbb57600080fd5b614bc78b828c0161469b565b9150509295985092959890939650565b600060208284031215614be957600080fd5b6000610bde848461467a565b600060208284031215614c0757600080fd5b6000610bde8484614690565b60008060008060808587031215614c2957600080fd5b6000614c358787614685565b9450506020614c46878288016145cd565b9350506040614c5787828801614685565b92505060608501356001600160401b03811115614c7357600080fd5b6147f18782880161469b565b600080600080600060a08688031215614c9757600080fd5b85356001600160401b03811115614cad57600080fd5b614cb98882890161469b565b9550506020614cca88828901614685565b9450506040614cdb888289016145cd565b9350506060614cec88828901614685565b92505060808601356001600160401b03811115614d0857600080fd5b6148658882890161469b565b600060208284031215614d2657600080fd5b6000610bde8484614685565b60008060408385031215614d4557600080fd5b60006149978585614685565b6000614d5d83836154ab565b505060400190565b6000614d5d83836154cf565b614d7a81615a85565b82525050565b614d7a81615a51565b6000614d9482615a3f565b614d9e8185615a43565b9350614da983615a39565b8060005b83811015614dd7578151614dc18882614d51565b9750614dcc83615a39565b925050600101614dad565b509495945050505050565b6000614ded82615a3f565b614df78185615a43565b9350614e0283615a39565b8060005b83811015614dd7578151614e1a8882614d65565b9750614e2583615a39565b925050600101614e06565b614d7a81615a5c565b6000614e4482615a3f565b614e4e8185615a4c565b9350614e5e818560208601615aa7565b9290920192915050565b614d7a81615a6e565b614d7a81611615565b614d7a81615a90565b6000614e8e82615a3f565b614e988185615a43565b9350614ea8818560208601615aa7565b614eb181615ad3565b9093019392505050565b6000614ec8602983615a43565b7f496e646578206f7566206f6620626f756e6473205b5478486973746f72794c69815268622e736f6c3a35365d60b81b602082015260400192915050565b6000614f13603e83615a43565b600080516020615b3983398151915281527f6f6b656e486f6c646572526576656e756546756e642e736f6c3a3633395d0000602082015260400192915050565b6000614f60603e83615a43565b7f446973706174636820627920636f6e74726f6c6c6572206661696c6564205b5481527f6f6b656e486f6c646572526576656e756546756e642e736f6c3a3830305d0000602082015260400192915050565b6000614fbf603183615a43565b7f426f756e647320706172616d6574657273206d69736d61746368205b43757272815270656e636965734c69622e736f6c3a39355d60781b602082015260400192915050565b6000615012603e83615a43565b600080516020615b3983398151915281527f6f6b656e486f6c646572526576656e756546756e642e736f6c3a3730325d0000602082015260400192915050565b600061505f603c83615a43565b600080516020615b5983398151915281527b656e486f6c646572526576656e756546756e642e736f6c3a3831365d60201b602082015260400192915050565b60006150ab602a83615a43565b7f4e6f2063757272656e6369657320666f756e64205b43757272656e636965734c81526969622e736f6c3a39345d60b01b602082015260400192915050565b60006150f7603d83615a43565b600080516020615b1983398151915281527f6b656e486f6c646572526576656e756546756e642e736f6c3a3738315d000000602082015260400192915050565b6000615144603f83615a43565b7f526563657074696f6e20627920636f6e74726f6c6c6572206661696c6564205b81527f546f6b656e486f6c646572526576656e756546756e642e736f6c3a3238365d00602082015260400192915050565b60006151a3603e83615a43565b7f417070726f76616c20627920636f6e74726f6c6c6572206661696c6564205b5481527f6f6b656e486f6c646572526576656e756546756e642e736f6c3a3635365d0000602082015260400192915050565b6000615202603e83615a43565b600080516020615b3983398151915281527f6f6b656e486f6c646572526576656e756546756e642e736f6c3a3637375d0000602082015260400192915050565b600061524f602a83615a43565b7f496e646578206f7574206f6620626f756e6473205b43757272656e636965734c81526969622e736f6c3a35315d60b01b602082015260400192915050565b600061529b603c83615a43565b600080516020615b5983398151915281527b656e486f6c646572526576656e756546756e642e736f6c3a3835335d60201b602082015260400192915050565b60006152e7604283615a43565b7f4163637275616c20696e646578206f7264696e616c697479206d69736d61746381527f68205b546f6b656e486f6c646572526576656e756546756e642e736f6c3a3530602082015261335d60f01b604082015260600192915050565b6000615351604183615a43565b7f426c6f636b206e756d626572206f7264696e616c697479206d69736d6174636881527f205b546f6b656e486f6c646572526576656e756546756e642e736f6c3a3534376020820152605d60f81b604082015260600192915050565b60006153ba603783615a43565b7f4163637275616c20696e646578206d69736d61746368205b546f6b656e486f6c815276646572526576656e756546756e642e736f6c3a3831395d60481b602082015260400192915050565b6000615413603683615a43565b7f426c6f636b206e756d626572206d69736d61746368205b546f6b656e486f6c648152756572526576656e756546756e642e736f6c3a3835365d60501b602082015260400192915050565b600061546b603d83615a43565b600080516020615b1983398151915281527f6b656e486f6c646572526576656e756546756e642e736f6c3a3237375d000000602082015260400192915050565b805160408301906154bc8482614e71565b506020820151612aac6020850182614e71565b805160408301906154bc8482614d80565b6000610f748284614e39565b60208101610fad8284614d80565b60208101610fad8284614d71565b60a081016155168288614d80565b6155236020830187614d80565b6155306040830186614e71565b61553d6060830185614d80565b61554a6080830184614e71565b9695505050505050565b60a081016155628288614d80565b6155236020830187614e68565b60a0810161557d8288614d71565b61558a6020830187614e71565b6155976040830186614d80565b6155a46060830185614e71565b81810360808301526155b68184614e83565b979650505050505050565b60c081016155cf8289614d71565b6155dc6020830188614e71565b6155e96040830187614d80565b6155f66060830186614e71565b6156036080830185614e71565b6155b660a0830184614e71565b610100810161561f828b614d71565b8181036020830152615631818a614e83565b90506156406040830189614e71565b61564d6060830188614d80565b61565a6080830187614e71565b61566760a0830186614e71565b61567460c0830185614e71565b81810360e083015261227e8184614e83565b604081016156948285614d80565b610f746020830184614d80565b608081016156af8287614d80565b6156bc6020830186614e71565b6156c96040830185614d71565b6115fa6060830184614e7a565b608081016156e48287614d80565b6156f16020830186614e71565b6156fe6040830185614d80565b6115fa6060830184614e71565b604081016157198285614d80565b8181036020830152610f718184614e83565b60c081016157398289614d80565b818103602083015261574b8188614e83565b905061575a6040830187614e71565b6157676060830186614d80565b6157746080830185614e71565b81810360a08301526157868184614e83565b98975050505050505050565b604081016157a08285614d80565b610f746020830184614e71565b60208082528101610f748184614d89565b60208082528101610f748184614de2565b60208101610fad8284614e30565b60208101610fad8284614e68565b608081016157f98287614e68565b6158066020830186614d71565b6156fe6040830185614e71565b608081016158218287614e68565b6158066020830186614d80565b6040810161583c8285614e68565b610f746020830184614e68565b60208101610fad8284614e71565b604081016157a08285614e71565b608081016156e48287614e71565b60208082528101610f748184614e83565b60208082528101610fad81614ebb565b60208082528101610fad81614f06565b60208082528101610fad81614f53565b60208082528101610fad81614fb2565b60208082528101610fad81615005565b60208082528101610fad81615052565b60208082528101610fad8161509e565b60208082528101610fad816150ea565b60208082528101610fad81615137565b60208082528101610fad81615196565b60208082528101610fad816151f5565b60208082528101610fad81615242565b60208082528101610fad8161528e565b60208082528101610fad816152da565b60208082528101610fad81615344565b60208082528101610fad816153ad565b60208082528101610fad81615406565b60208082528101610fad8161545e565b606081016159b28286614e71565b6159bf6020830185614e71565b610bde6040830184614e71565b6040518181016001600160401b03811182821017156159ea57600080fd5b604052919050565b60006001600160401b03821115615a0857600080fd5b5060209081020190565b60006001600160401b03821115615a2857600080fd5b506020601f91909101601f19160190565b60200190565b5190565b90815260200190565b919050565b6000610fad82615a79565b151590565b6001600160e01b03191690565b6000610fad82615a51565b6001600160a01b031690565b6000610fad82615a6e565b6000610fad82611615565b82818337506000910152565b60005b83811015615ac2578181015183820152602001615aaa565b83811115612aac5750506000910152565b601f01601f191690565b615ae681615a51565b8114615af157600080fd5b50565b615ae681615a5c565b615ae681615a61565b615ae681615a6e565b615ae68161161556fe416d6f756e74206e6f74207374726963746c7920706f736974697665205b546f4d6573736167652073656e646572206973206e6f6e2d636c61696d6572205b544e6f207465726d696e61746564206163637275616c20666f756e64205b546f6b6d20076dccc9a1dd1722d0739c60065c999d4137e9683cbe4d752527539d9f74a365627a7a723158202a280e039aada1ce92d9a4d3d0911ec9530e12700e2756c43296e36d6340c5266c6578706572696d656e74616cf564736f6c634300050d0040",
  "source": "/*\n * Hubii Nahmii\n *\n * Compliant with the Hubii Nahmii specification v0.12.\n *\n * Copyright (C) 2017-2019 Hubii AS\n */\n\npragma solidity >=0.4.25 <0.6.0;\npragma experimental ABIEncoderV2;\n\nimport {Ownable} from \"./Ownable.sol\";\nimport {AccrualBeneficiary} from \"./AccrualBeneficiary.sol\";\nimport {Servable} from \"./Servable.sol\";\nimport {TransferControllerManageable} from \"./TransferControllerManageable.sol\";\nimport {SafeMathIntLib} from \"./SafeMathIntLib.sol\";\nimport {SafeMathUintLib} from \"./SafeMathUintLib.sol\";\nimport {FungibleBalanceLib} from \"./FungibleBalanceLib.sol\";\nimport {TxHistoryLib} from \"./TxHistoryLib.sol\";\nimport {MonetaryTypesLib} from \"./MonetaryTypesLib.sol\";\nimport {CurrenciesLib} from \"./CurrenciesLib.sol\";\nimport {RevenueToken} from \"./RevenueToken.sol\";\nimport {RevenueTokenManager} from \"./RevenueTokenManager.sol\";\nimport {TransferController} from \"./TransferController.sol\";\nimport {Beneficiary} from \"./Beneficiary.sol\";\nimport {BalanceAucCalculator} from \"./BalanceAucCalculator.sol\";\nimport {BalanceRecordable} from \"./BalanceRecordable.sol\";\n\n/**\n * @title TokenHolderRevenueFund\n * @notice Fund that manages the revenue earned by revenue token holders.\n */\ncontract TokenHolderRevenueFund is Ownable, AccrualBeneficiary, Servable, TransferControllerManageable {\n    using SafeMathIntLib for int256;\n    using SafeMathUintLib for uint256;\n    using FungibleBalanceLib for FungibleBalanceLib.Balance;\n    using TxHistoryLib for TxHistoryLib.TxHistory;\n    using CurrenciesLib for CurrenciesLib.Currencies;\n\n    //\n    // Constants\n    // -----------------------------------------------------------------------------------------------------------------\n    string constant public CLOSE_ACCRUAL_PERIOD_ACTION = \"close_accrual_period\";\n\n    //\n    // Types\n    // -----------------------------------------------------------------------------------------------------------------\n    struct Accrual {\n        uint256 startBlock;\n        uint256 endBlock;\n        int256 amount;\n\n        mapping(address => ClaimRecord) claimRecordsByWallet;\n    }\n\n    struct ClaimRecord {\n        bool completed;\n        BlockSpan[] completedSpans;\n    }\n\n    struct BlockSpan {\n        uint256 startBlock;\n        uint256 endBlock;\n    }\n\n    //\n    // Variables\n    // -----------------------------------------------------------------------------------------------------------------\n    RevenueTokenManager public revenueTokenManager;\n    BalanceAucCalculator public balanceBlocksCalculator;\n    BalanceAucCalculator public releasedAmountBlocksCalculator;\n\n    FungibleBalanceLib.Balance private periodAccrual;\n    CurrenciesLib.Currencies private periodCurrencies;\n\n    FungibleBalanceLib.Balance private aggregateAccrual;\n    CurrenciesLib.Currencies private aggregateCurrencies;\n\n    TxHistoryLib.TxHistory private txHistory;\n\n    mapping(address => mapping(uint256 => Accrual[])) public closedAccrualsByCurrency;\n\n    address[] public nonClaimers;\n    mapping(address => uint256) public nonClaimerIndicesByWallet;\n\n    mapping(address => mapping(address => mapping(uint256 => uint256[]))) public claimedAccrualIndicesByWalletCurrency;\n\n    mapping(address => mapping(uint256 => mapping(uint256 => int256))) public aggregateAccrualAmountByCurrencyBlockNumber;\n\n    mapping(address => FungibleBalanceLib.Balance) private stagedByWallet;\n\n    //\n    // Events\n    // -----------------------------------------------------------------------------------------------------------------\n    event SetRevenueTokenManagerEvent(RevenueTokenManager manager);\n    event SetBalanceBlocksCalculatorEvent(BalanceAucCalculator calculator);\n    event SetReleasedAmountBlocksCalculatorEvent(BalanceAucCalculator calculator);\n    event RegisterNonClaimerEvent(address wallet);\n    event DeregisterNonClaimerEvent(address wallet);\n    event ReceiveEvent(address wallet, int256 amount, address currencyCt,\n        uint256 currencyId);\n    event WithdrawEvent(address to, int256 amount, address currencyCt, uint256 currencyId);\n    event CloseAccrualPeriodEvent(int256 periodAmount, int256 aggregateAmount, address currencyCt,\n        uint256 currencyId);\n    event ClaimAndTransferToBeneficiaryEvent(address wallet, string balanceType, int256 amount,\n        address currencyCt, uint256 currencyId, uint256 startAccrualIndex, uint256 endAccrualIndex,\n        string standard);\n    event ClaimAndStageByAccrualsEvent(address from, int256 amount, address currencyCt,\n        uint256 currencyId, uint256 startAccrualIndex, uint256 endAccrualIndex);\n    event ClaimAndStageByBlockNumbersEvent(address from, int256 amount, address currencyCt,\n        uint256 currencyId, uint256 startBlock, uint256 endBlock);\n    event WithdrawEvent(address from, int256 amount, address currencyCt, uint256 currencyId,\n        string standard);\n\n    //\n    // Constructor\n    // -----------------------------------------------------------------------------------------------------------------\n    constructor(address deployer) Ownable(deployer) public {\n    }\n\n    //\n    // Functions\n    // -----------------------------------------------------------------------------------------------------------------\n    /// @notice Set the revenue token manager contract\n    /// @param manager The (address of) RevenueTokenManager contract instance\n    function setRevenueTokenManager(RevenueTokenManager manager)\n    public\n    onlyDeployer\n    notNullAddress(address(manager))\n    {\n        // Set new revenue token manager\n        revenueTokenManager = manager;\n\n        // Emit event\n        emit SetRevenueTokenManagerEvent(manager);\n    }\n\n    /// @notice Set the balance AUC calculator for calculation of revenue token balance blocks\n    /// @param calculator The balance AUC calculator\n    function setBalanceBlocksCalculator(BalanceAucCalculator calculator)\n    public\n    onlyDeployer\n    notNullOrThisAddress(address(calculator))\n    {\n        // Set the calculator\n        balanceBlocksCalculator = calculator;\n\n        // Emit event\n        emit SetBalanceBlocksCalculatorEvent(balanceBlocksCalculator);\n    }\n\n    /// @notice Set the balance AUC calculator for calculation of revenue token balance blocks\n    /// @param calculator The balance AUC calculator\n    function setReleasedAmountBlocksCalculator(BalanceAucCalculator calculator)\n    public\n    onlyDeployer\n    notNullOrThisAddress(address(calculator))\n    {\n        // Set the calculator\n        releasedAmountBlocksCalculator = calculator;\n\n        // Emit event\n        emit SetReleasedAmountBlocksCalculatorEvent(releasedAmountBlocksCalculator);\n    }\n\n    /// @notice Get the number of registered non-claimers\n    /// @return The number of registered non-claimers\n    function nonClaimersCount()\n    public\n    view\n    returns (uint256)\n    {\n        return nonClaimers.length;\n    }\n\n    /// @notice Gauge whether the given wallet is a registered non-claimer, i.e. prevented from claiming\n    /// @param wallet The address of the concerned wallet\n    /// @return true if wallet is non-claimer\n    function isNonClaimer(address wallet)\n    public\n    view\n    returns (bool)\n    {\n        return 0 < nonClaimerIndicesByWallet[wallet];\n    }\n\n    /// @notice Register the given wallet as a non-claimer that is prevented from claiming\n    /// @param wallet The address of the concerned wallet\n    function registerNonClaimer(address wallet)\n    public\n    onlyDeployer\n    notNullAddress(wallet)\n    {\n        // If non-claimer has not been added already...\n        if (0 == nonClaimerIndicesByWallet[wallet]) {\n            // Add non-claimer\n            nonClaimers.push(wallet);\n            nonClaimerIndicesByWallet[wallet] = nonClaimers.length;\n\n            // Emit event\n            emit RegisterNonClaimerEvent(wallet);\n        }\n    }\n\n    /// @notice Deregister the given wallet as a non-claimer that is prevented from claiming\n    /// @param wallet The address of the concerned wallet\n    function deregisterNonClaimer(address wallet)\n    public\n    onlyDeployer\n    notNullAddress(wallet)\n    {\n        // If non-claimer has been added previously...\n        if (0 < nonClaimerIndicesByWallet[wallet]) {\n            // Remove non-claimer\n            if (nonClaimerIndicesByWallet[wallet] < nonClaimers.length) {\n                nonClaimers[nonClaimerIndicesByWallet[wallet].sub(1)] = nonClaimers[nonClaimers.length.sub(1)];\n                nonClaimerIndicesByWallet[nonClaimers[nonClaimers.length.sub(1)]] = nonClaimerIndicesByWallet[wallet];\n            }\n            nonClaimers.length--;\n            nonClaimerIndicesByWallet[wallet] = 0;\n\n            // Emit event\n            emit DeregisterNonClaimerEvent(wallet);\n        }\n    }\n\n    /// @notice Fallback function that deposits ethers\n    function() external payable {\n        receiveEthersTo(msg.sender, \"\");\n    }\n\n    /// @notice Receive ethers to\n    /// @param wallet The concerned wallet address\n    function receiveEthersTo(address wallet, string memory)\n    public\n    payable\n    {\n        int256 amount = SafeMathIntLib.toNonZeroInt256(msg.value);\n\n        // Add to balances\n        periodAccrual.add(amount, address(0), 0);\n        aggregateAccrual.add(amount, address(0), 0);\n\n        // Add currency to in-use lists\n        periodCurrencies.add(address(0), 0);\n        aggregateCurrencies.add(address(0), 0);\n\n        // Add to transaction history\n        txHistory.addDeposit(amount, address(0), 0);\n\n        // Emit event\n        emit ReceiveEvent(wallet, amount, address(0), 0);\n    }\n\n    /// @notice Receive tokens\n    /// @param amount The concerned amount\n    /// @param currencyCt The address of the concerned currency contract (address(0) == ETH)\n    /// @param currencyId The ID of the concerned currency (0 for ETH and ERC20)\n    /// @param standard The standard of token (\"ERC20\", \"ERC721\")\n    function receiveTokens(string memory, int256 amount, address currencyCt, uint256 currencyId,\n        string memory standard)\n    public\n    {\n        receiveTokensTo(msg.sender, \"\", amount, currencyCt, currencyId, standard);\n    }\n\n    /// @notice Receive tokens to\n    /// @param wallet The address of the concerned wallet\n    /// @param amount The concerned amount\n    /// @param currencyCt The address of the concerned currency contract (address(0) == ETH)\n    /// @param currencyId The ID of the concerned currency (0 for ETH and ERC20)\n    /// @param standard The standard of token (\"ERC20\", \"ERC721\")\n    function receiveTokensTo(address wallet, string memory, int256 amount, address currencyCt,\n        uint256 currencyId, string memory standard)\n    public\n    {\n        require(amount.isNonZeroPositiveInt256(), \"Amount not strictly positive [TokenHolderRevenueFund.sol:277]\");\n\n        // Execute transfer\n        TransferController controller = transferController(currencyCt, standard);\n        (bool success,) = address(controller).delegatecall(\n            abi.encodeWithSelector(\n                controller.getReceiveSignature(), msg.sender, this, uint256(amount), currencyCt, currencyId\n            )\n        );\n        require(success, \"Reception by controller failed [TokenHolderRevenueFund.sol:286]\");\n\n        // Add to balances\n        periodAccrual.add(amount, currencyCt, currencyId);\n        aggregateAccrual.add(amount, currencyCt, currencyId);\n\n        // Add currency to in-use lists\n        periodCurrencies.add(currencyCt, currencyId);\n        aggregateCurrencies.add(currencyCt, currencyId);\n\n        // Add to transaction history\n        txHistory.addDeposit(amount, currencyCt, currencyId);\n\n        // Emit event\n        emit ReceiveEvent(wallet, amount, currencyCt, currencyId);\n    }\n\n    /// @notice Get the period accrual balance of the given currency\n    /// @param currencyCt The address of the concerned currency contract (address(0) == ETH)\n    /// @param currencyId The ID of the concerned currency (0 for ETH and ERC20)\n    /// @return The current period's accrual balance\n    function periodAccrualBalance(address currencyCt, uint256 currencyId)\n    public\n    view\n    returns (int256)\n    {\n        return periodAccrual.get(currencyCt, currencyId);\n    }\n\n    /// @notice Get the aggregate accrual balance of the given currency, including contribution from the\n    /// current accrual period\n    /// @param currencyCt The address of the concerned currency contract (address(0) == ETH)\n    /// @param currencyId The ID of the concerned currency (0 for ETH and ERC20)\n    /// @return The aggregate accrual balance\n    function aggregateAccrualBalance(address currencyCt, uint256 currencyId)\n    public\n    view\n    returns (int256)\n    {\n        return aggregateAccrual.get(currencyCt, currencyId);\n    }\n\n    /// @notice Get the count of currencies recorded in the accrual period\n    /// @return The number of currencies in the current accrual period\n    function periodCurrenciesCount()\n    public\n    view\n    returns (uint256)\n    {\n        return periodCurrencies.count();\n    }\n\n    /// @notice Get the currencies with indices in the given range that have been recorded in the current accrual period\n    /// @param low The lower currency index\n    /// @param up The upper currency index\n    /// @return The currencies of the given index range in the current accrual period\n    function periodCurrenciesByIndices(uint256 low, uint256 up)\n    public\n    view\n    returns (MonetaryTypesLib.Currency[] memory)\n    {\n        return periodCurrencies.getByIndices(low, up);\n    }\n\n    /// @notice Get the count of currencies ever recorded\n    /// @return The number of currencies ever recorded\n    function aggregateCurrenciesCount()\n    public\n    view\n    returns (uint256)\n    {\n        return aggregateCurrencies.count();\n    }\n\n    /// @notice Get the currencies with indices in the given range that have ever been recorded\n    /// @param low The lower currency index\n    /// @param up The upper currency index\n    /// @return The currencies of the given index range ever recorded\n    function aggregateCurrenciesByIndices(uint256 low, uint256 up)\n    public\n    view\n    returns (MonetaryTypesLib.Currency[] memory)\n    {\n        return aggregateCurrencies.getByIndices(low, up);\n    }\n\n    /// @notice Get the count of deposits\n    /// @return The count of deposits\n    function depositsCount()\n    public\n    view\n    returns (uint256)\n    {\n        return txHistory.depositsCount();\n    }\n\n    /// @notice Get the deposit at the given index\n    /// @return The deposit at the given index\n    function deposit(uint index)\n    public\n    view\n    returns (int256 amount, uint256 blockNumber, address currencyCt, uint256 currencyId)\n    {\n        return txHistory.deposit(index);\n    }\n\n    /// @notice Get the staged balance of the given wallet and currency\n    /// @param wallet The address of the concerned wallet\n    /// @param currencyCt The address of the concerned currency contract (address(0) == ETH)\n    /// @param currencyId The ID of the concerned currency (0 for ETH and ERC20)\n    /// @return The staged balance\n    function stagedBalance(address wallet, address currencyCt, uint256 currencyId)\n    public\n    view\n    returns (int256)\n    {\n        return stagedByWallet[wallet].get(currencyCt, currencyId);\n    }\n\n    /// @notice Get the number of closed accruals for the given currency\n    /// @param currencyCt The address of the concerned currency contract (address(0) == ETH)\n    /// @param currencyId The ID of the concerned currency (0 for ETH and ERC20)\n    /// @return The number of closed accruals\n    function closedAccrualsCount(address currencyCt, uint256 currencyId)\n    public\n    view\n    returns (uint256)\n    {\n        return closedAccrualsByCurrency[currencyCt][currencyId].length;\n    }\n\n    /// @notice Close the current accrual period of the given currencies\n    /// @param currencies The concerned currencies\n    function closeAccrualPeriod(MonetaryTypesLib.Currency[] memory currencies)\n    public\n    onlyEnabledServiceAction(CLOSE_ACCRUAL_PERIOD_ACTION)\n    {\n        // Clear period accrual stats\n        for (uint256 i = 0; i < currencies.length; i = i.add(1)) {\n            MonetaryTypesLib.Currency memory currency = currencies[i];\n\n            // Get the amount of the accrual period\n            int256 periodAmount = periodAccrual.get(currency.ct, currency.id);\n\n            // Define start block of the completed accrual, as (if existent) previous period end block + 1, else 0\n            uint256 startBlock = (\n            0 == closedAccrualsByCurrency[currency.ct][currency.id].length ?\n            0 :\n            closedAccrualsByCurrency[currency.ct][currency.id][closedAccrualsByCurrency[currency.ct][currency.id].length - 1].endBlock + 1\n            );\n\n            // Add new accrual to closed accruals\n            closedAccrualsByCurrency[currency.ct][currency.id].push(Accrual(startBlock, block.number, periodAmount));\n\n            // Store the aggregate accrual balance of currency at this block number\n            aggregateAccrualAmountByCurrencyBlockNumber[currency.ct][currency.id][block.number] = aggregateAccrualBalance(\n                currency.ct, currency.id\n            );\n\n            if (periodAmount > 0) {\n                // Reset period accrual of currency\n                periodAccrual.set(0, currency.ct, currency.id);\n\n                // Remove currency from period in-use list\n                periodCurrencies.removeByCurrency(currency.ct, currency.id);\n            }\n\n            // Emit event\n            emit CloseAccrualPeriodEvent(\n                periodAmount,\n                aggregateAccrualAmountByCurrencyBlockNumber[currency.ct][currency.id][block.number],\n                currency.ct, currency.id\n            );\n        }\n    }\n\n    /// @notice Get the index of closed accrual for the given currency and block number\n    /// @param currencyCt The address of the concerned currency contract (address(0) == ETH)\n    /// @param currencyId The ID of the concerned currency (0 for ETH and ERC20)\n    /// @param blockNumber The concerned block number\n    /// @return The accrual index\n    function closedAccrualIndexByBlockNumber(address currencyCt, uint256 currencyId, uint256 blockNumber)\n    public\n    view\n    returns (uint256)\n    {\n        for (uint256 i = closedAccrualsByCurrency[currencyCt][currencyId].length; i > 0;) {\n            i = i.sub(1);\n            if (closedAccrualsByCurrency[currencyCt][currencyId][i].startBlock <= blockNumber)\n                return i;\n        }\n        return 0;\n    }\n\n    /// @notice Get the claimable amount for the given wallet-currency pair in the given\n    /// range of accrual indices\n    /// @param wallet The address of the concerned wallet\n    /// @param currencyCt The address of the concerned currency contract (address(0) == ETH)\n    /// @param currencyId The ID of the concerned currency (0 for ETH and ERC20)\n    /// @param startAccrualIndex The index of the first accrual in the range, clamped to the max accrual index\n    /// @param endAccrualIndex The index of the last accrual in the range, clamped to the max accrual index\n    /// @return The claimable amount\n    function claimableAmountByAccruals(address wallet, address currencyCt, uint256 currencyId,\n        uint256 startAccrualIndex, uint256 endAccrualIndex)\n    public\n    view\n    returns (int256)\n    {\n        // Return 0 if wallet is non-claimer\n        if (isNonClaimer(wallet))\n            return 0;\n\n        // Return 0 if no accrual has terminated\n        if (0 == closedAccrualsByCurrency[currencyCt][currencyId].length)\n            return 0;\n\n        // Impose ordinality constraint\n        require(startAccrualIndex <= endAccrualIndex, \"Accrual index ordinality mismatch [TokenHolderRevenueFund.sol:503]\");\n\n        // Declare claimable amount\n        int256 claimableAmount = 0;\n\n        // For each accrual index in range...\n        for (\n            uint256 i = startAccrualIndex;\n            i <= endAccrualIndex && i < closedAccrualsByCurrency[currencyCt][currencyId].length;\n            i = i.add(1)\n        ) {\n            // Add to claimable amount\n            claimableAmount = claimableAmount.add(\n                _claimableAmount(wallet, closedAccrualsByCurrency[currencyCt][currencyId][i])\n            );\n        }\n\n        // Return the claimable amount\n        return claimableAmount;\n    }\n\n    /// @notice Get the claimable amount for the given wallet-currency pair in the given\n    /// range of block numbers\n    /// @param wallet The address of the concerned wallet\n    /// @param currencyCt The address of the concerned currency contract (address(0) == ETH)\n    /// @param currencyId The ID of the concerned currency (0 for ETH and ERC20)\n    /// @param startBlock The first block number in the range\n    /// @param endBlock The last block number in the range\n    /// @return The claimable amount\n    function claimableAmountByBlockNumbers(address wallet, address currencyCt, uint256 currencyId,\n        uint256 startBlock, uint256 endBlock)\n    public\n    view\n    returns (int256)\n    {\n        // Return 0 if wallet is non-claimer\n        if (isNonClaimer(wallet))\n            return 0;\n\n        // Return 0 if no accrual has terminated\n        if (0 == closedAccrualsByCurrency[currencyCt][currencyId].length)\n            return 0;\n\n        // Impose ordinality constraint\n        require(startBlock <= endBlock, \"Block number ordinality mismatch [TokenHolderRevenueFund.sol:547]\");\n\n        // Obtain accrual indices corresponding to block number boundaries\n        uint256 startAccrualIndex = closedAccrualIndexByBlockNumber(currencyCt, currencyId, startBlock);\n        uint256 endAccrualIndex = closedAccrualIndexByBlockNumber(currencyCt, currencyId, endBlock);\n\n        // Obtain accrual\n        Accrual storage endAccrual = closedAccrualsByCurrency[currencyCt][currencyId][endAccrualIndex];\n\n        // Return 0 if end block is before the end accrual's start block\n        if (endBlock < endAccrual.startBlock)\n            return 0;\n\n        // Declare claimable amount\n        int256 claimableAmount = 0;\n\n        // If start accrual index is strictly smaller than end accrual index...\n        if (startAccrualIndex < endAccrualIndex) {\n            // Obtain accrual\n            Accrual storage startAccrual = closedAccrualsByCurrency[currencyCt][currencyId][startAccrualIndex];\n\n            // Add to claimable amount for first (potentially partial) accrual\n            claimableAmount = _claimableAmount(\n                wallet, startAccrual,\n                startBlock.clampMin(startAccrual.startBlock),\n                endBlock.clampMax(startAccrual.endBlock)\n            );\n        }\n\n        // For each accrual between first and last accrual\n        for (uint256 i = startAccrualIndex.add(1); i < endAccrualIndex; i = i.add(1)) {\n            // Add to claimable amount\n            claimableAmount = claimableAmount.add(\n                _claimableAmount(wallet, closedAccrualsByCurrency[currencyCt][currencyId][i])\n            );\n        }\n\n        // Add to claimable amount for last (potentially partial) accrual\n        claimableAmount = claimableAmount.add(\n            _claimableAmount(\n                wallet, endAccrual,\n                startBlock.clampMin(endAccrual.startBlock),\n                endBlock.clampMax(endAccrual.endBlock)\n            )\n        );\n\n        // Return the claimable amount\n        return claimableAmount;\n    }\n\n    /// @notice Claim last unclaimed accrual's amount and transfer to beneficiary\n    /// @param beneficiary The concerned beneficiary\n    /// @param destWallet The concerned destination wallet of the transfer\n    /// @param balanceType The target balance type\n    /// @param currencyCt The address of the concerned currency contract (address(0) == ETH)\n    /// @param currencyId The ID of the concerned currency (0 for ETH and ERC20)\n    /// @param standard The standard of the token (\"\" for default registered, \"ERC20\", \"ERC721\")\n    function claimAndTransferToBeneficiary(Beneficiary beneficiary, address destWallet, string memory balanceType,\n        address currencyCt, uint256 currencyId, string memory standard)\n    public\n    {\n        // Determine the accrual index to be claimed, being the one after the last accrual index already claimed\n        uint256 accrualIndex = (\n        0 == claimedAccrualIndicesByWalletCurrency[msg.sender][currencyCt][currencyId].length ?\n        0 :\n        claimedAccrualIndicesByWalletCurrency[msg.sender][currencyCt][currencyId][\n        claimedAccrualIndicesByWalletCurrency[msg.sender][currencyCt][currencyId].length - 1\n        ] + 1\n        );\n\n        // Claim accrual and obtain the claimed amount\n        claimAndTransferToBeneficiary(\n            beneficiary, destWallet, balanceType, currencyCt, currencyId,\n            accrualIndex, accrualIndex, standard\n        );\n    }\n\n    /// @notice Claim accrual amounts and transfer to beneficiary\n    /// @param beneficiary The concerned beneficiary\n    /// @param destWallet The concerned destination wallet of the transfer\n    /// @param balanceType The target balance type\n    /// @param currencyCt The address of the concerned currency contract (address(0) == ETH)\n    /// @param currencyId The ID of the concerned currency (0 for ETH and ERC20)\n    /// @param startAccrualIndex The index of the first accrual in the range, clamped to the max accrual index\n    /// @param endAccrualIndex The index of the last accrual in the range, clamped to the max accrual index\n    /// @param standard The standard of the token (\"\" for default registered, \"ERC20\", \"ERC721\")\n    function claimAndTransferToBeneficiary(Beneficiary beneficiary, address destWallet, string memory balanceType,\n        address currencyCt, uint256 currencyId, uint256 startAccrualIndex, uint256 endAccrualIndex,\n        string memory standard)\n    public\n    {\n        // Require that message sender is non-claimer\n        require(!isNonClaimer(msg.sender), \"Message sender is non-claimer [TokenHolderRevenueFund.sol:639]\");\n\n        // Claim accrual and obtain the claimed amount\n        int256 claimedAmount = _claimByAccruals(msg.sender, currencyCt, currencyId, startAccrualIndex, endAccrualIndex);\n\n        // Transfer ETH to the beneficiary\n        if (address(0) == currencyCt && 0 == currencyId)\n            beneficiary.receiveEthersTo.value(uint256(claimedAmount))(destWallet, balanceType);\n\n        else {\n            // Approve of beneficiary\n            TransferController controller = transferController(currencyCt, standard);\n            (bool success,) = address(controller).delegatecall(\n                abi.encodeWithSelector(\n                    controller.getApproveSignature(), address(beneficiary), uint256(claimedAmount), currencyCt, currencyId\n                )\n            );\n            require(success, \"Approval by controller failed [TokenHolderRevenueFund.sol:656]\");\n\n            // Transfer tokens to the beneficiary\n            beneficiary.receiveTokensTo(destWallet, balanceType, claimedAmount, currencyCt, currencyId, standard);\n        }\n\n        // Emit event\n        emit ClaimAndTransferToBeneficiaryEvent(msg.sender, balanceType, claimedAmount, currencyCt, currencyId,\n            startAccrualIndex, endAccrualIndex, standard);\n    }\n\n    /// @notice Claim accrual amount and stage for later withdrawal by accrual accrual index bounds\n    /// @param currencyCt The address of the concerned currency contract (address(0) == ETH)\n    /// @param currencyId The ID of the concerned currency (0 for ETH and ERC20)\n    /// @param startAccrualIndex The index of the first accrual in the range, clamped to the max accrual index\n    /// @param endAccrualIndex The index of the last accrual in the range, clamped to the max accrual index\n    function claimAndStageByAccruals(address currencyCt, uint256 currencyId,\n        uint256 startAccrualIndex, uint256 endAccrualIndex)\n    public\n    {\n        // Require that message sender is non-claimer\n        require(!isNonClaimer(msg.sender), \"Message sender is non-claimer [TokenHolderRevenueFund.sol:677]\");\n\n        // Claim accrual and obtain the claimed amount\n        int256 claimedAmount = _claimByAccruals(msg.sender, currencyCt, currencyId, startAccrualIndex, endAccrualIndex);\n\n        // If the claimed amount is strictly positive...\n        if (0 < claimedAmount) {\n            // Update staged balance\n            stagedByWallet[msg.sender].add(claimedAmount, currencyCt, currencyId);\n\n            // Emit event\n            emit ClaimAndStageByAccrualsEvent(msg.sender, claimedAmount, currencyCt, currencyId, startAccrualIndex, endAccrualIndex);\n        }\n    }\n\n    /// @notice Claim accrual amount and stage for later withdrawal by block number bounds\n    /// @param currencyCt The address of the concerned currency contract (address(0) == ETH)\n    /// @param currencyId The ID of the concerned currency (0 for ETH and ERC20)\n    /// @param startBlock The first block number in the range\n    /// @param endBlock The last block number in the range\n    function claimAndStageByBlockNumbers(address currencyCt, uint256 currencyId,\n        uint256 startBlock, uint256 endBlock)\n    public\n    {\n        // Require that message sender is non-claimer\n        require(!isNonClaimer(msg.sender), \"Message sender is non-claimer [TokenHolderRevenueFund.sol:702]\");\n\n        // Claim accrual and obtain the claimed amount\n        int256 claimedAmount = _claimByBlockNumbers(msg.sender, currencyCt, currencyId, startBlock, endBlock);\n\n        // If the claimed amount is strictly positive...\n        if (0 < claimedAmount) {\n            // Update staged balance\n            stagedByWallet[msg.sender].add(claimedAmount, currencyCt, currencyId);\n\n            // Emit event\n            emit ClaimAndStageByBlockNumbersEvent(msg.sender, claimedAmount, currencyCt, currencyId, startBlock, endBlock);\n        }\n    }\n\n    /// @notice Gauge whether the accrual by the given accrual index has previously been fully\n    /// claimed for the given wallet-currency pair\n    /// @param wallet The address of the concerned wallet\n    /// @param currencyCt The address of the concerned currency contract (address(0) == ETH)\n    /// @param currencyId The ID of the concerned currency (0 for ETH and ERC20)\n    /// @param accrualIndex The index of the concerned accrual\n    /// @return true if fully claimed\n    function fullyClaimed(address wallet, address currencyCt, uint256 currencyId, uint256 accrualIndex)\n    public\n    view\n    returns (bool)\n    {\n        // Return true if the given accrual has been closed and fully claimed by the wallet\n        return (\n        accrualIndex < closedAccrualsByCurrency[currencyCt][currencyId].length &&\n        closedAccrualsByCurrency[currencyCt][currencyId][accrualIndex].claimRecordsByWallet[wallet].completed\n        );\n    }\n\n    /// @notice Gauge whether the accrual by the given accrual index has previously been partially\n    /// claimed for the given wallet-currency pair\n    /// @param wallet The address of the concerned wallet\n    /// @param currencyCt The address of the concerned currency contract (address(0) == ETH)\n    /// @param currencyId The ID of the concerned currency (0 for ETH and ERC20)\n    /// @param accrualIndex The index of the concerned accrual\n    /// @return true if partially claimed\n    function partiallyClaimed(address wallet, address currencyCt, uint256 currencyId, uint256 accrualIndex)\n    public\n    view\n    returns (bool)\n    {\n        // Return true if the given accrual has been closed and partially claimed by the wallet\n        return (\n        accrualIndex < closedAccrualsByCurrency[currencyCt][currencyId].length &&\n        0 < closedAccrualsByCurrency[currencyCt][currencyId][accrualIndex].claimRecordsByWallet[wallet].completedSpans.length\n        );\n    }\n\n    /// @notice Get the block spans of partial claims executed on the given accrual index and wallet-currency pair\n    /// @param wallet The address of the concerned wallet\n    /// @param currencyCt The address of the concerned currency contract (address(0) == ETH)\n    /// @param currencyId The ID of the concerned currency (0 for ETH and ERC20)\n    /// @param accrualIndex The index of the concerned accrual\n    /// @return The claimed block spans\n    function claimedBlockSpans(address wallet, address currencyCt, uint256 currencyId, uint256 accrualIndex)\n    public\n    view\n    returns (BlockSpan[] memory)\n    {\n        if (closedAccrualsByCurrency[currencyCt][currencyId].length <= accrualIndex)\n            return new BlockSpan[](0);\n\n        return closedAccrualsByCurrency[currencyCt][currencyId][accrualIndex].claimRecordsByWallet[wallet].completedSpans;\n    }\n\n    /// @notice Withdraw from staged balance of msg.sender\n    /// @param amount The concerned amount\n    /// @param currencyCt The address of the concerned currency contract (address(0) == ETH)\n    /// @param currencyId The ID of the concerned currency (0 for ETH and ERC20)\n    /// @param standard The standard of the token (\"\" for default registered, \"ERC20\", \"ERC721\")\n    function withdraw(int256 amount, address currencyCt, uint256 currencyId, string memory standard)\n    public\n    {\n        // Require that amount is strictly positive\n        require(amount.isNonZeroPositiveInt256(), \"Amount not strictly positive [TokenHolderRevenueFund.sol:781]\");\n\n        // Clamp amount to the max given by staged balance\n        amount = amount.clampMax(stagedByWallet[msg.sender].get(currencyCt, currencyId));\n\n        // Subtract to per-wallet staged balance\n        stagedByWallet[msg.sender].sub(amount, currencyCt, currencyId);\n\n        // Execute transfer\n        if (address(0) == currencyCt && 0 == currencyId)\n            msg.sender.transfer(uint256(amount));\n\n        else {\n            TransferController controller = transferController(currencyCt, standard);\n            (bool success,) = address(controller).delegatecall(\n                abi.encodeWithSelector(\n                    controller.getDispatchSignature(), address(this), msg.sender, uint256(amount), currencyCt, currencyId\n                )\n            );\n            require(success, \"Dispatch by controller failed [TokenHolderRevenueFund.sol:800]\");\n        }\n\n        // Emit event\n        emit WithdrawEvent(msg.sender, amount, currencyCt, currencyId, standard);\n    }\n\n    //\n    // Private functions\n    // -----------------------------------------------------------------------------------------------------------------\n    function _claimByAccruals(address wallet, address currencyCt, uint256 currencyId,\n        uint256 startAccrualIndex, uint256 endAccrualIndex)\n    private\n    returns (int256)\n    {\n        // Require that at least one accrual has terminated\n        require(0 < closedAccrualsByCurrency[currencyCt][currencyId].length, \"No terminated accrual found [TokenHolderRevenueFund.sol:816]\");\n\n        // Impose ordinality constraint\n        require(startAccrualIndex <= endAccrualIndex, \"Accrual index mismatch [TokenHolderRevenueFund.sol:819]\");\n\n        // Declare claimed amount\n        int256 claimedAmount = 0;\n\n        // For each accrual index in range...\n        for (\n            uint256 i = startAccrualIndex;\n            i <= endAccrualIndex && i < closedAccrualsByCurrency[currencyCt][currencyId].length;\n            i = i.add(1)\n        ) {\n            // Obtain accrual\n            Accrual storage accrual = closedAccrualsByCurrency[currencyCt][currencyId][i];\n\n            // Add to claimable amount for accrual\n            claimedAmount = claimedAmount.add(_claimableAmount(wallet, accrual));\n\n            // Update claim record\n            _updateClaimRecord(wallet, accrual);\n\n            // Add accrual index to claimed indices\n            claimedAccrualIndicesByWalletCurrency[wallet][currencyCt][currencyId].push(i);\n        }\n\n        // Return the claimed amount\n        return claimedAmount;\n    }\n\n    function _claimByBlockNumbers(address wallet, address currencyCt, uint256 currencyId,\n        uint256 startBlock, uint256 endBlock)\n    private\n    returns (int256)\n    {\n        // Require that at least one accrual has terminated\n        require(0 < closedAccrualsByCurrency[currencyCt][currencyId].length, \"No terminated accrual found [TokenHolderRevenueFund.sol:853]\");\n\n        // Impose ordinality constraint\n        require(startBlock <= endBlock, \"Block number mismatch [TokenHolderRevenueFund.sol:856]\");\n\n        // Obtain accrual indices corresponding to block number boundaries\n        uint256 startAccrualIndex = closedAccrualIndexByBlockNumber(currencyCt, currencyId, startBlock);\n        uint256 endAccrualIndex = closedAccrualIndexByBlockNumber(currencyCt, currencyId, endBlock);\n\n        // Declare claimed amount and clamped blocks\n        int256 claimedAmount = 0;\n        uint256 clampedStartBlock = 0;\n        uint256 clampedEndBlock = 0;\n\n        // If start accrual index is strictly smaller than end accrual index...\n        if (startAccrualIndex < endAccrualIndex) {\n            // Obtain start accrual\n            Accrual storage accrual = closedAccrualsByCurrency[currencyCt][currencyId][startAccrualIndex];\n\n            // Clamp start and end blocks\n            clampedStartBlock = startBlock.clampMin(accrual.startBlock);\n            clampedEndBlock = endBlock.clampMax(accrual.endBlock);\n\n            // Add to claimable amount for first (potentially partial) accrual\n            claimedAmount = _claimableAmount(wallet, accrual, clampedStartBlock, clampedEndBlock);\n\n            // Update claim record\n            _updateClaimRecord(wallet, accrual, clampedStartBlock, clampedEndBlock);\n\n            // Add accrual index to claimed indices\n            claimedAccrualIndicesByWalletCurrency[wallet][currencyCt][currencyId].push(startAccrualIndex);\n        }\n\n        // For each accrual index in range...\n        for (uint256 i = startAccrualIndex.add(1); i < endAccrualIndex; i = i.add(1)) {\n            // Obtain accrual\n            Accrual storage accrual = closedAccrualsByCurrency[currencyCt][currencyId][i];\n\n            // Add to claimable amount for accrual\n            claimedAmount = claimedAmount.add(_claimableAmount(wallet, accrual));\n\n            // Update claim record\n            _updateClaimRecord(wallet, accrual);\n\n            // Add accrual index to claimed indices\n            claimedAccrualIndicesByWalletCurrency[wallet][currencyCt][currencyId].push(i);\n        }\n\n        // Obtain end accrual\n        Accrual storage accrual = closedAccrualsByCurrency[currencyCt][currencyId][endAccrualIndex];\n\n        // Clamp start and end blocks\n        clampedStartBlock = startBlock.clampMin(accrual.startBlock);\n        clampedEndBlock = endBlock.clampMax(accrual.endBlock);\n\n        // Add to claimable amount for last (potentially partial) accrual\n        claimedAmount = claimedAmount.add(\n            _claimableAmount(wallet, accrual, clampedStartBlock, clampedEndBlock)\n        );\n\n        // Update claim record\n        _updateClaimRecord(wallet, accrual, clampedStartBlock, clampedEndBlock);\n\n        // Add accrual index to claimed indices\n        claimedAccrualIndicesByWalletCurrency[wallet][currencyCt][currencyId].push(endAccrualIndex);\n\n        // Return the claimed amount\n        return claimedAmount;\n    }\n\n    function _updateClaimRecord(address wallet, Accrual storage accrual)\n    private\n    {\n        // Set the completed flag to true\n        accrual.claimRecordsByWallet[wallet].completed = true;\n\n        // Clear completed block number spans if existent\n        if (0 < accrual.claimRecordsByWallet[wallet].completedSpans.length)\n            accrual.claimRecordsByWallet[wallet].completedSpans.length = 0;\n    }\n\n    function _updateClaimRecord(address wallet, Accrual storage accrual,\n        uint256 startBlock, uint256 endBlock)\n    private\n    {\n        // Add completed block span\n        accrual.claimRecordsByWallet[wallet].completedSpans.push(\n            BlockSpan(startBlock, endBlock)\n        );\n    }\n\n    /// @dev Return false if the wallet's claim record is either completed or its number of completed block\n    /// number spans is non-zero\n    function _isClaimable(address wallet, Accrual storage accrual)\n    private\n    view\n    returns (bool)\n    {\n        // Return false if accrual amount is non-zero and no claim of accrual has been executed\n        return (\n        0 < accrual.amount &&\n        !accrual.claimRecordsByWallet[wallet].completed &&\n        0 == accrual.claimRecordsByWallet[wallet].completedSpans.length\n        );\n    }\n\n    function _isClaimable(address wallet, Accrual storage accrual,\n        uint256 startBlock, uint256 endBlock)\n    private\n    view\n    returns (bool)\n    {\n        // Return false if accrual amount is zero or claim is fully completed\n        if (\n            0 == accrual.amount ||\n        accrual.claimRecordsByWallet[wallet].completed\n        )\n            return false;\n\n        // Return false if start or end block is within any of the completed block spans\n        for (uint256 i = 0;\n            i < accrual.claimRecordsByWallet[wallet].completedSpans.length;\n            i = i.add(1)) {\n            if (\n                (\n                accrual.claimRecordsByWallet[wallet].completedSpans[i].startBlock <= startBlock &&\n                startBlock <= accrual.claimRecordsByWallet[wallet].completedSpans[i].endBlock\n                ) ||\n                (\n                accrual.claimRecordsByWallet[wallet].completedSpans[i].startBlock <= endBlock &&\n                endBlock <= accrual.claimRecordsByWallet[wallet].completedSpans[i].endBlock\n                )\n            )\n                return false;\n        }\n\n        return true;\n    }\n\n    function _claimableAmount(address wallet, Accrual storage accrual)\n    private\n    view\n    returns (int256)\n    {\n        // Return 0 if not claimable\n        if (!_isClaimable(wallet, accrual))\n            return 0;\n\n        // Retrieve the balance blocks of wallet\n        int256 _walletBalanceBlocks = _balanceBlocks(\n            wallet, accrual.startBlock, accrual.endBlock\n        );\n\n        // Retrieve the released amount blocks\n        int256 _releasedAmountBlocks = _correctedReleasedAmountBlocks(\n            accrual.startBlock, accrual.endBlock\n        );\n\n        // Calculate the claimed amount\n        return accrual.amount\n        .mul_nn(_walletBalanceBlocks)\n        .div_nn(_releasedAmountBlocks);\n    }\n\n    function _claimableAmount(address wallet, Accrual storage accrual,\n        uint256 startBlock, uint256 endBlock)\n    private\n    view\n    returns (int256)\n    {\n        // Return 0 if not claimable\n        if (!_isClaimable(wallet, accrual, startBlock, endBlock))\n            return 0;\n\n        // Retrieve the balance blocks of wallet\n        int256 _walletBalanceBlocks = _balanceBlocks(\n            wallet, startBlock, endBlock\n        );\n\n        // Retrieve the released amount blocks\n        int256 _releasedAmountBlocks = _correctedReleasedAmountBlocks(\n            startBlock, endBlock\n        );\n\n        // Calculate scaling factor numerator and denominator to account for partial concerned span of accrual\n        int256 _accrualNumerator = int256(endBlock.sub(startBlock).add(1));\n        int256 _accrualDenominator = int256(accrual.endBlock.sub(accrual.startBlock).add(1));\n\n        // Calculate the scaled claimable amount\n        return accrual.amount\n        .mul_nn(_walletBalanceBlocks)\n        .mul_nn(_accrualNumerator)\n        .div_nn(_releasedAmountBlocks.mul_nn(_accrualDenominator));\n    }\n\n    function _balanceBlocks(address wallet, uint256 startBlock, uint256 endBlock)\n    private\n    view\n    returns (int256)\n    {\n        return int256(balanceBlocksCalculator.calculate(\n                BalanceRecordable(address(revenueTokenManager.token())), wallet, startBlock, endBlock\n            ));\n    }\n\n    function _correctedReleasedAmountBlocks(uint256 startBlock, uint256 endBlock)\n    private\n    view\n    returns (int256)\n    {\n        // Obtain the released amount blocks\n        int256 amountBlocks = int256(releasedAmountBlocksCalculator.calculate(\n                BalanceRecordable(address(revenueTokenManager)), address(0), startBlock, endBlock\n            ));\n\n        // Correct the amount blocks by subtracting the contributions from contracts that may not claim\n        for (uint256 i = 0; i < nonClaimers.length; i = i.add(1))\n            amountBlocks = amountBlocks.sub(_balanceBlocks(nonClaimers[i], startBlock, endBlock));\n\n        // Return corrected amount blocks\n        return amountBlocks;\n    }\n}",
  "sourcePath": "/opt/buildagent/work/855e104608380c36/contracts/TokenHolderRevenueFund.sol",
  "compiler": {
    "name": "solc",
    "version": "0.5.13+commit.5b0b510c.Emscripten.clang"
  },
  "schemaVersion": "2.0.3",
  "updatedAt": "2019-12-19T21:28:47.475Z"
}