{
  "contractName": "TokenMultiTimelock",
  "abi": [
    {
      "inputs": [
        {
          "internalType": "address",
          "name": "deployer",
          "type": "address"
        }
      ],
      "payable": false,
      "stateMutability": "nonpayable",
      "type": "constructor"
    },
    {
      "anonymous": false,
      "inputs": [
        {
          "indexed": false,
          "internalType": "uint256",
          "name": "earliestReleaseTime",
          "type": "uint256"
        },
        {
          "indexed": false,
          "internalType": "uint256",
          "name": "amount",
          "type": "uint256"
        },
        {
          "indexed": false,
          "internalType": "uint256",
          "name": "blockNumber",
          "type": "uint256"
        }
      ],
      "name": "DefineReleaseEvent",
      "type": "event"
    },
    {
      "anonymous": false,
      "inputs": [
        {
          "indexed": false,
          "internalType": "uint256",
          "name": "index",
          "type": "uint256"
        },
        {
          "indexed": false,
          "internalType": "uint256",
          "name": "blockNumber",
          "type": "uint256"
        },
        {
          "indexed": false,
          "internalType": "uint256",
          "name": "earliestReleaseTime",
          "type": "uint256"
        },
        {
          "indexed": false,
          "internalType": "uint256",
          "name": "actualReleaseTime",
          "type": "uint256"
        },
        {
          "indexed": false,
          "internalType": "uint256",
          "name": "amount",
          "type": "uint256"
        }
      ],
      "name": "ReleaseEvent",
      "type": "event"
    },
    {
      "anonymous": false,
      "inputs": [
        {
          "indexed": false,
          "internalType": "address",
          "name": "wallet",
          "type": "address"
        }
      ],
      "name": "SelfDestructionDisabledEvent",
      "type": "event"
    },
    {
      "anonymous": false,
      "inputs": [
        {
          "indexed": false,
          "internalType": "address",
          "name": "beneficiary",
          "type": "address"
        }
      ],
      "name": "SetBeneficiaryEvent",
      "type": "event"
    },
    {
      "anonymous": false,
      "inputs": [
        {
          "indexed": false,
          "internalType": "address",
          "name": "oldDeployer",
          "type": "address"
        },
        {
          "indexed": false,
          "internalType": "address",
          "name": "newDeployer",
          "type": "address"
        }
      ],
      "name": "SetDeployerEvent",
      "type": "event"
    },
    {
      "anonymous": false,
      "inputs": [
        {
          "indexed": false,
          "internalType": "address",
          "name": "oldOperator",
          "type": "address"
        },
        {
          "indexed": false,
          "internalType": "address",
          "name": "newOperator",
          "type": "address"
        }
      ],
      "name": "SetOperatorEvent",
      "type": "event"
    },
    {
      "anonymous": false,
      "inputs": [
        {
          "indexed": false,
          "internalType": "uint256",
          "name": "index",
          "type": "uint256"
        },
        {
          "indexed": false,
          "internalType": "uint256",
          "name": "blockNumber",
          "type": "uint256"
        }
      ],
      "name": "SetReleaseBlockNumberEvent",
      "type": "event"
    },
    {
      "anonymous": false,
      "inputs": [
        {
          "indexed": false,
          "internalType": "contract IERC20",
          "name": "token",
          "type": "address"
        }
      ],
      "name": "SetTokenEvent",
      "type": "event"
    },
    {
      "anonymous": false,
      "inputs": [
        {
          "indexed": false,
          "internalType": "address",
          "name": "wallet",
          "type": "address"
        }
      ],
      "name": "TriggerSelfDestructionEvent",
      "type": "event"
    },
    {
      "constant": true,
      "inputs": [],
      "name": "beneficiary",
      "outputs": [
        {
          "internalType": "address",
          "name": "",
          "type": "address"
        }
      ],
      "payable": false,
      "stateMutability": "view",
      "type": "function"
    },
    {
      "constant": true,
      "inputs": [],
      "name": "deployer",
      "outputs": [
        {
          "internalType": "address",
          "name": "",
          "type": "address"
        }
      ],
      "payable": false,
      "stateMutability": "view",
      "type": "function"
    },
    {
      "constant": true,
      "inputs": [],
      "name": "destructor",
      "outputs": [
        {
          "internalType": "address",
          "name": "",
          "type": "address"
        }
      ],
      "payable": false,
      "stateMutability": "view",
      "type": "function"
    },
    {
      "constant": false,
      "inputs": [],
      "name": "disableSelfDestruction",
      "outputs": [],
      "payable": false,
      "stateMutability": "nonpayable",
      "type": "function"
    },
    {
      "constant": true,
      "inputs": [],
      "name": "executedReleasesCount",
      "outputs": [
        {
          "internalType": "uint256",
          "name": "",
          "type": "uint256"
        }
      ],
      "payable": false,
      "stateMutability": "view",
      "type": "function"
    },
    {
      "constant": true,
      "inputs": [],
      "name": "operator",
      "outputs": [
        {
          "internalType": "address",
          "name": "",
          "type": "address"
        }
      ],
      "payable": false,
      "stateMutability": "view",
      "type": "function"
    },
    {
      "constant": true,
      "inputs": [
        {
          "internalType": "uint256",
          "name": "",
          "type": "uint256"
        }
      ],
      "name": "releases",
      "outputs": [
        {
          "internalType": "uint256",
          "name": "earliestReleaseTime",
          "type": "uint256"
        },
        {
          "internalType": "uint256",
          "name": "amount",
          "type": "uint256"
        },
        {
          "internalType": "uint256",
          "name": "blockNumber",
          "type": "uint256"
        },
        {
          "internalType": "bool",
          "name": "done",
          "type": "bool"
        }
      ],
      "payable": false,
      "stateMutability": "view",
      "type": "function"
    },
    {
      "constant": true,
      "inputs": [],
      "name": "selfDestructionDisabled",
      "outputs": [
        {
          "internalType": "bool",
          "name": "",
          "type": "bool"
        }
      ],
      "payable": false,
      "stateMutability": "view",
      "type": "function"
    },
    {
      "constant": false,
      "inputs": [
        {
          "internalType": "address",
          "name": "newDeployer",
          "type": "address"
        }
      ],
      "name": "setDeployer",
      "outputs": [],
      "payable": false,
      "stateMutability": "nonpayable",
      "type": "function"
    },
    {
      "constant": false,
      "inputs": [
        {
          "internalType": "address",
          "name": "newOperator",
          "type": "address"
        }
      ],
      "name": "setOperator",
      "outputs": [],
      "payable": false,
      "stateMutability": "nonpayable",
      "type": "function"
    },
    {
      "constant": true,
      "inputs": [],
      "name": "token",
      "outputs": [
        {
          "internalType": "contract IERC20",
          "name": "",
          "type": "address"
        }
      ],
      "payable": false,
      "stateMutability": "view",
      "type": "function"
    },
    {
      "constant": true,
      "inputs": [],
      "name": "totalLockedAmount",
      "outputs": [
        {
          "internalType": "uint256",
          "name": "",
          "type": "uint256"
        }
      ],
      "payable": false,
      "stateMutability": "view",
      "type": "function"
    },
    {
      "constant": false,
      "inputs": [],
      "name": "triggerSelfDestruction",
      "outputs": [],
      "payable": false,
      "stateMutability": "nonpayable",
      "type": "function"
    },
    {
      "constant": false,
      "inputs": [
        {
          "internalType": "contract IERC20",
          "name": "_token",
          "type": "address"
        }
      ],
      "name": "setToken",
      "outputs": [],
      "payable": false,
      "stateMutability": "nonpayable",
      "type": "function"
    },
    {
      "constant": false,
      "inputs": [
        {
          "internalType": "address",
          "name": "_beneficiary",
          "type": "address"
        }
      ],
      "name": "setBeneficiary",
      "outputs": [],
      "payable": false,
      "stateMutability": "nonpayable",
      "type": "function"
    },
    {
      "constant": false,
      "inputs": [
        {
          "internalType": "uint256[]",
          "name": "earliestReleaseTimes",
          "type": "uint256[]"
        },
        {
          "internalType": "uint256[]",
          "name": "amounts",
          "type": "uint256[]"
        },
        {
          "internalType": "uint256[]",
          "name": "releaseBlockNumbers",
          "type": "uint256[]"
        }
      ],
      "name": "defineReleases",
      "outputs": [],
      "payable": false,
      "stateMutability": "nonpayable",
      "type": "function"
    },
    {
      "constant": true,
      "inputs": [],
      "name": "releasesCount",
      "outputs": [
        {
          "internalType": "uint256",
          "name": "",
          "type": "uint256"
        }
      ],
      "payable": false,
      "stateMutability": "view",
      "type": "function"
    },
    {
      "constant": false,
      "inputs": [
        {
          "internalType": "uint256",
          "name": "index",
          "type": "uint256"
        },
        {
          "internalType": "uint256",
          "name": "blockNumber",
          "type": "uint256"
        }
      ],
      "name": "setReleaseBlockNumber",
      "outputs": [],
      "payable": false,
      "stateMutability": "nonpayable",
      "type": "function"
    },
    {
      "constant": false,
      "inputs": [
        {
          "internalType": "uint256",
          "name": "index",
          "type": "uint256"
        }
      ],
      "name": "release",
      "outputs": [],
      "payable": false,
      "stateMutability": "nonpayable",
      "type": "function"
    }
  ],
  "bytecode": "0x608060405234801561001057600080fd5b5060405161143f38038061143f8339818101604052602081101561003357600080fd5b505180806001600160a01b03811661004a57600080fd5b6001600160a01b03811630141561006057600080fd5b50600080546001600160a01b039092166101008102610100600160a81b0319909316929092179055600180546001600160a01b031916909117905550611394806100ab6000396000f3fe608060405234801561001057600080fd5b50600436106100f15760003560e01c806305a9f274146100f6578063144fa6d7146101105780631c31f710146101385780632738a1121461015e5780632f013a001461016657806337bdc99b1461018257806338af3eed1461019f5780634476d23b146101c35780634524c0cd146101cb5780634eddcf5b14610370578063570ca7351461039357806370327ea11461039b57806392e35ad4146103a357806396214735146103ab578063b3ab15fb146103d1578063b6a9f40f146103f7578063d02764f31461043c578063d5f3948814610444578063fc0c546a1461044c575b600080fd5b6100fe610454565b60408051918252519081900360200190f35b6101366004803603602081101561012657600080fd5b50356001600160a01b031661045a565b005b6101366004803603602081101561014e57600080fd5b50356001600160a01b0316610538565b6101366105b8565b61016e61061a565b604080519115158252519081900360200190f35b6101366004803603602081101561019857600080fd5b5035610623565b6101a761080d565b604080516001600160a01b039092168252519081900360200190f35b6101a761081c565b610136600480360360608110156101e157600080fd5b810190602081018135600160201b8111156101fb57600080fd5b82018360208201111561020d57600080fd5b803590602001918460208302840111600160201b8311171561022e57600080fd5b9190808060200260200160405190810160405280939291908181526020018383602002808284376000920191909152509295949360208101935035915050600160201b81111561027d57600080fd5b82018360208201111561028f57600080fd5b803590602001918460208302840111600160201b831117156102b057600080fd5b9190808060200260200160405190810160405280939291908181526020018383602002808284376000920191909152509295949360208101935035915050600160201b8111156102ff57600080fd5b82018360208201111561031157600080fd5b803590602001918460208302840111600160201b8311171561033257600080fd5b919080806020026020016040519081016040528093929190818152602001838360200280828437600092019190915250929550610830945050505050565b6101366004803603604081101561038657600080fd5b5080359060200135610b23565b6101a7610c32565b610136610c41565b6100fe610c9f565b610136600480360360208110156103c157600080fd5b50356001600160a01b0316610ca5565b610136600480360360208110156103e757600080fd5b50356001600160a01b0316610d69565b6104146004803603602081101561040d57600080fd5b5035610e1d565b6040805194855260208501939093528383019190915215156060830152519081900360800190f35b6100fe610e57565b6101a7610e5d565b6101a7610e71565b60055481565b610462610e80565b61046b57600080fd5b806001600160a01b03811661047f57600080fd5b6001600160a01b03811630141561049557600080fd5b6002546001600160a01b0316156104dd5760405162461bcd60e51b81526004018080602001828103825260308152602001806112316030913960400191505060405180910390fd5b600280546001600160a01b0319166001600160a01b03848116919091179182905560408051929091168252517f6d8175d5535b8ed95618101b59531eb23efe2c999ffea7c6831918fc088b512b916020908290030190a15050565b610540610e80565b61054957600080fd5b806001600160a01b03811661055d57600080fd5b600380546001600160a01b0319166001600160a01b03848116919091179182905560408051929091168252517fa269fa1cb7bcf5c01f056e2ab269416779172ccca0613c264c1333c6db01f144916020908290030190a15050565b336105c161081c565b6001600160a01b0316146105d457600080fd5b60005460ff16156105e457600080fd5b6040805133815290517f787a5d936e74f4b564b9153575886059829c78cd9927b1be5e0d976b317ef7369181900360200190a133ff5b60005460ff1681565b6003546001600160a01b0316331461066c5760405162461bcd60e51b815260040180806020018281038252603b8152602001806112f1603b913960400191505060405180910390fd5b60006004828154811061067b57fe5b9060005260206000209060040201905080600101546000106106ce5760405162461bcd60e51b81526004018080602001828103825260418152602001806111f06041913960600191505060405180910390fd5b600381015460ff16156107125760405162461bcd60e51b81526004018080602001828103825260348152602001806112936034913960400191505060405180910390fd5b80544210156107525760405162461bcd60e51b815260040180806020018281038252604d81526020018061116b604d913960600191505060405180910390fd5b60038101805460ff191660011790556002810154610771574360028201555b600680546001908101909155810180546005805491909103905560035490546002546107b1926001600160a01b039182169291169063ffffffff610e9116565b600281015481546001830154604080518681526020810194909452838101929092524260608401526080830152517f192a2424596ca5fd763237e85156a3cca5a544ec2de91fcce52165f11430c9fb9181900360a00190a15050565b6003546001600160a01b031681565b60005461010090046001600160a01b031690565b610838610e80565b61084157600080fd5b81518351146108815760405162461bcd60e51b815260040180806020018281038252605081526020018061111b6050913960600191505060405180910390fd5b8051835110156108c25760405162461bcd60e51b815260040180806020018281038252605e8152602001806110bd605e913960600191505060405180910390fd5b6002546001600160a01b03166109095760405162461bcd60e51b81526004018080602001828103825260328152602001806112616032913960400191505060405180910390fd5b60005b8351811015610b1d5782818151811061092157fe5b6020908102919091018101516005805490910190819055600254604080516370a0823160e01b8152306004820152905192936001600160a01b03909216926370a0823192602480840193919291829003018186803b15801561098257600080fd5b505afa158015610996573d6000803e3d6000fd5b505050506040513d60208110156109ac57600080fd5b505110156109eb5760405162461bcd60e51b81526004018080602001828103825260388152602001806111b86038913960400191505060405180910390fd5b6000825182106109fc576000610a11565b828281518110610a0857fe5b60200260200101515b905060046040518060800160405280878581518110610a2c57fe5b60200260200101518152602001868581518110610a4557fe5b60209081029190910181015182528181018590526000604092830181905284546001808201875595825290829020845160049092020190815590830151938101939093558101516002830155606001516003909101805460ff191691151591909117905584517f7a4b817334cd72c0bcda88d842afe9d164deab0f72ed72c7157b05f9bc3c9b5990869084908110610ad957fe5b6020026020010151858481518110610aed57fe5b6020908102919091018101516040805193845291830152818101849052519081900360600190a15060010161090c565b50505050565b6003546001600160a01b03163314610b6c5760405162461bcd60e51b815260040180806020018281038252603b8152602001806112f1603b913960400191505060405180910390fd5b60048281548110610b7957fe5b600091825260209091206003600490920201015460ff1615610bcc5760405162461bcd60e51b815260040180806020018281038252603481526020018061132c6034913960400191505060405180910390fd5b8060048381548110610bda57fe5b9060005260206000209060040201600201819055507f7cf19267ac0e3fcfc04da70aa689f851cd659a051bab5a357d0d31085b9430858282604051808381526020018281526020019250505060405180910390a15050565b6001546001600160a01b031681565b33610c4a61081c565b6001600160a01b031614610c5d57600080fd5b6000805460ff191660011790556040805133815290517fd5a2a04a775c741c2ca0dc46ea7ce4835190e1aaf1ca018def0e82568ec336169181900360200190a1565b60065481565b610cad610ee8565b610cb657600080fd5b806001600160a01b038116610cca57600080fd5b6001600160a01b038116301415610ce057600080fd5b6000546001600160a01b038381166101009092041614610d6557600080546001600160a01b03848116610100818102610100600160a81b03198516179094556040805194909304919091168084526020840191909152815190927f977e5fa58e458501775e0008d275006294c5249e3c08d1d0e3a9f3acad14f6e492908290030190a1505b5050565b610d71610e80565b610d7a57600080fd5b806001600160a01b038116610d8e57600080fd5b6001600160a01b038116301415610da457600080fd5b6001546001600160a01b03838116911614610d6557600180546001600160a01b038481166001600160a01b0319831681179093556040805191909216808252602082019390935281517f9f611b789425d0d5b90b920f1b2852907dd865c80074a30b1629aaa041d1812c929181900390910190a1505050565b60048181548110610e2a57fe5b60009182526020909120600490910201805460018201546002830154600390930154919350919060ff1684565b60045490565b60005461010090046001600160a01b031681565b6002546001600160a01b031681565b6001546001600160a01b0316331490565b604080516001600160a01b038416602482015260448082018490528251808303909101815260649091019091526020810180516001600160e01b031663a9059cbb60e01b179052610ee3908490610efe565b505050565b60005461010090046001600160a01b0316331490565b610f10826001600160a01b03166110b6565b610f61576040805162461bcd60e51b815260206004820152601f60248201527f5361666545524332303a2063616c6c20746f206e6f6e2d636f6e747261637400604482015290519081900360640190fd5b60006060836001600160a01b0316836040518082805190602001908083835b60208310610f9f5780518252601f199092019160209182019101610f80565b6001836020036101000a0380198251168184511680821785525050505050509050019150506000604051808303816000865af19150503d8060008114611001576040519150601f19603f3d011682016040523d82523d6000602084013e611006565b606091505b50915091508161105d576040805162461bcd60e51b815260206004820181905260248201527f5361666545524332303a206c6f772d6c6576656c2063616c6c206661696c6564604482015290519081900360640190fd5b805115610b1d5780806020019051602081101561107957600080fd5b5051610b1d5760405162461bcd60e51b815260040180806020018281038252602a8152602001806112c7602a913960400191505060405180910390fd5b3b15159056fe4561726c696573742072656c656173652074696d657320616e642072656c6561736520626c6f636b206e756d62657273206c656e67746873206d69736d61746368205b546f6b656e4d756c746954696d656c6f636b2e736f6c3a3130395d4561726c696573742072656c656173652074696d657320616e6420616d6f756e7473206c656e67746873206d69736d61746368205b546f6b656e4d756c746954696d656c6f636b2e736f6c3a3130355d426c6f636b2074696d65207374616d70206c657373207468616e206561726c696573742072656c656173652074696d65205b546f6b656e4d756c746954696d656c6f636b2e736f6c3a3137395d546f74616c206c6f636b656420616d6f756e74206f76657272756e205b546f6b656e4d756c746954696d656c6f636b2e736f6c3a3132335d52656c6561736520616d6f756e74206e6f74207374726963746c7920706f736974697665205b546f6b656e4d756c746954696d656c6f636b2e736f6c3a3137335d546f6b656e2070726576696f75736c7920736574205b546f6b656e4d756c746954696d656c6f636b2e736f6c3a37335d546f6b656e206e6f7420696e697469616c697a6564205b546f6b656e4d756c746954696d656c6f636b2e736f6c3a3131355d52656c656173652070726576696f75736c7920646f6e65205b546f6b656e4d756c746954696d656c6f636b2e736f6c3a3137365d5361666545524332303a204552433230206f7065726174696f6e20646964206e6f7420737563636565644d6573736167652073656e646572206e6f742062656e6566696369617279205b546f6b656e4d756c746954696d656c6f636b2e736f6c3a3230345d52656c656173652070726576696f75736c7920646f6e65205b546f6b656e4d756c746954696d656c6f636b2e736f6c3a3135345da265627a7a723158201c5fc9fdb450f4febd0dc2bd41dc846cf5c11d246c18f2255883c6b9cab6dab064736f6c634300050c0032",
  "source": "/*\n * Hubii Nahmii\n *\n * Compliant with the Hubii Nahmii specification v0.12.\n *\n * Copyright (C) 2017-2018 Hubii AS\n */\n\npragma solidity >=0.4.25 <0.6.0;\n\nimport {Ownable} from \"./Ownable.sol\";\nimport {IERC20} from \"openzeppelin-solidity/contracts/token/ERC20/IERC20.sol\";\nimport {SafeERC20} from \"openzeppelin-solidity/contracts/token/ERC20/SafeERC20.sol\";\n\n/**\n * @title Balance tracker\n * @notice An ownable that allows a beneficiary to extract tokens in\n *   a number of batches each a given release time\n */\ncontract TokenMultiTimelock is Ownable {\n    using SafeERC20 for IERC20;\n\n    //\n    // Structures\n    // -----------------------------------------------------------------------------------------------------------------\n    struct Release {\n        uint256 earliestReleaseTime;\n        uint256 amount;\n        uint256 blockNumber;\n        bool done;\n    }\n\n    //\n    // Variables\n    // -----------------------------------------------------------------------------------------------------------------\n    IERC20 public token;\n    address public beneficiary;\n\n    Release[] public releases;\n    uint256 public totalLockedAmount;\n    uint256 public executedReleasesCount;\n\n    //\n    // Events\n    // -----------------------------------------------------------------------------------------------------------------\n    event SetTokenEvent(IERC20 token);\n    event SetBeneficiaryEvent(address beneficiary);\n    event DefineReleaseEvent(uint256 earliestReleaseTime, uint256 amount, uint256 blockNumber);\n    event SetReleaseBlockNumberEvent(uint256 index, uint256 blockNumber);\n    event ReleaseEvent(uint256 index, uint256 blockNumber, uint256 earliestReleaseTime,\n        uint256 actualReleaseTime, uint256 amount);\n\n    //\n    // Constructor\n    // -----------------------------------------------------------------------------------------------------------------\n    constructor(address deployer)\n    Ownable(deployer)\n    public\n    {\n    }\n\n    //\n    // Functions\n    // -----------------------------------------------------------------------------------------------------------------\n    /// @notice Set the address of token\n    /// @param _token The address of token\n    function setToken(IERC20 _token)\n    public\n    onlyOperator\n    notNullOrThisAddress(address(_token))\n    {\n        // Require that the token has not previously been set\n        require(address(token) == address(0), \"Token previously set [TokenMultiTimelock.sol:73]\");\n\n        // Update beneficiary\n        token = _token;\n\n        // Emit event\n        emit SetTokenEvent(token);\n    }\n\n    /// @notice Set the address of beneficiary\n    /// @param _beneficiary The new address of beneficiary\n    function setBeneficiary(address _beneficiary)\n    public\n    onlyOperator\n    notNullAddress(_beneficiary)\n    {\n        // Update beneficiary\n        beneficiary = _beneficiary;\n\n        // Emit event\n        emit SetBeneficiaryEvent(beneficiary);\n    }\n\n    /// @notice Define a set of new releases\n    /// @param earliestReleaseTimes The timestamp after which the corresponding amount may be released\n    /// @param amounts The amounts to be released\n    /// @param releaseBlockNumbers The set release block numbers for releases whose earliest release time\n    /// is in the past\n    function defineReleases(uint256[] memory earliestReleaseTimes, uint256[] memory amounts, uint256[] memory releaseBlockNumbers)\n    onlyOperator\n    public\n    {\n        require(\n            earliestReleaseTimes.length == amounts.length,\n            \"Earliest release times and amounts lengths mismatch [TokenMultiTimelock.sol:105]\"\n        );\n        require(\n            earliestReleaseTimes.length >= releaseBlockNumbers.length,\n            \"Earliest release times and release block numbers lengths mismatch [TokenMultiTimelock.sol:109]\"\n        );\n\n        // Require that token address has been set\n        require(address(token) != address(0), \"Token not initialized [TokenMultiTimelock.sol:115]\");\n\n        for (uint256 i = 0; i < earliestReleaseTimes.length; i++) {\n            // Update the total amount locked by this contract\n            totalLockedAmount += amounts[i];\n\n            // Require that total amount locked is less than or equal to the token balance of\n            // this contract\n            require(token.balanceOf(address(this)) >= totalLockedAmount, \"Total locked amount overrun [TokenMultiTimelock.sol:123]\");\n\n            // Retrieve early block number where available\n            uint256 blockNumber = i < releaseBlockNumbers.length ? releaseBlockNumbers[i] : 0;\n\n            // Add release\n            releases.push(Release(earliestReleaseTimes[i], amounts[i], blockNumber, false));\n\n            // Emit event\n            emit DefineReleaseEvent(earliestReleaseTimes[i], amounts[i], blockNumber);\n        }\n    }\n\n    /// @notice Get the count of releases\n    /// @return The number of defined releases\n    function releasesCount()\n    public\n    view\n    returns (uint256)\n    {\n        return releases.length;\n    }\n\n    /// @notice Set the block number of a release that is not done\n    /// @param index The index of the release\n    /// @param blockNumber The updated block number\n    function setReleaseBlockNumber(uint256 index, uint256 blockNumber)\n    public\n    onlyBeneficiary\n    {\n        // Require that the release is not done\n        require(!releases[index].done, \"Release previously done [TokenMultiTimelock.sol:154]\");\n\n        // Update the release block number\n        releases[index].blockNumber = blockNumber;\n\n        // Emit event\n        emit SetReleaseBlockNumberEvent(index, blockNumber);\n    }\n\n    /// @notice Transfers tokens held in the indicated release to beneficiary.\n    /// @param index The index of the release\n    function release(uint256 index)\n    public\n    onlyBeneficiary\n    {\n        // Get the release object\n        Release storage _release = releases[index];\n\n        // Require that this release has been properly defined by having non-zero amount\n        require(0 < _release.amount, \"Release amount not strictly positive [TokenMultiTimelock.sol:173]\");\n\n        // Require that this release has not already been executed\n        require(!_release.done, \"Release previously done [TokenMultiTimelock.sol:176]\");\n\n        // Require that the current timestamp is beyond the nominal release time\n        require(block.timestamp >= _release.earliestReleaseTime, \"Block time stamp less than earliest release time [TokenMultiTimelock.sol:179]\");\n\n        // Set release done\n        _release.done = true;\n\n        // Set release block number if not previously set\n        if (0 == _release.blockNumber)\n            _release.blockNumber = block.number;\n\n        // Bump number of executed releases\n        executedReleasesCount++;\n\n        // Decrement the total locked amount\n        totalLockedAmount -= _release.amount;\n\n        // Execute transfer\n        token.safeTransfer(beneficiary, _release.amount);\n\n        // Emit event\n        emit ReleaseEvent(index, _release.blockNumber, _release.earliestReleaseTime, block.timestamp, _release.amount);\n    }\n\n    // Modifiers\n    // -----------------------------------------------------------------------------------------------------------------\n    modifier onlyBeneficiary() {\n        require(msg.sender == beneficiary, \"Message sender not beneficiary [TokenMultiTimelock.sol:204]\");\n        _;\n    }\n}",
  "sourcePath": "/opt/buildagent/work/855e104608380c36/contracts/TokenMultiTimelock.sol",
  "compiler": {
    "name": "solc",
    "version": "0.5.12+commit.7709ece9.Emscripten.clang"
  },
  "schemaVersion": "2.0.3",
  "updatedAt": "2019-10-22T21:00:29.504Z"
}