{
  "contractName": "TokenHolderRevenueFund",
  "abi": [
    {
      "constant": true,
      "inputs": [
        {
          "name": "service",
          "type": "address"
        }
      ],
      "name": "isRegisteredActiveService",
      "outputs": [
        {
          "name": "",
          "type": "bool"
        }
      ],
      "payable": false,
      "stateMutability": "view",
      "type": "function"
    },
    {
      "constant": false,
      "inputs": [],
      "name": "triggerSelfDestruction",
      "outputs": [],
      "payable": false,
      "stateMutability": "nonpayable",
      "type": "function"
    },
    {
      "constant": true,
      "inputs": [
        {
          "name": "",
          "type": "address"
        },
        {
          "name": "",
          "type": "uint256"
        },
        {
          "name": "",
          "type": "uint256"
        }
      ],
      "name": "accrualBlockNumbersByCurrency",
      "outputs": [
        {
          "name": "",
          "type": "uint256"
        }
      ],
      "payable": false,
      "stateMutability": "view",
      "type": "function"
    },
    {
      "constant": false,
      "inputs": [
        {
          "name": "service",
          "type": "address"
        },
        {
          "name": "action",
          "type": "string"
        }
      ],
      "name": "enableServiceAction",
      "outputs": [],
      "payable": false,
      "stateMutability": "nonpayable",
      "type": "function"
    },
    {
      "constant": true,
      "inputs": [
        {
          "name": "service",
          "type": "address"
        }
      ],
      "name": "isRegisteredService",
      "outputs": [
        {
          "name": "",
          "type": "bool"
        }
      ],
      "payable": false,
      "stateMutability": "view",
      "type": "function"
    },
    {
      "constant": true,
      "inputs": [],
      "name": "selfDestructionDisabled",
      "outputs": [
        {
          "name": "",
          "type": "bool"
        }
      ],
      "payable": false,
      "stateMutability": "view",
      "type": "function"
    },
    {
      "constant": false,
      "inputs": [
        {
          "name": "service",
          "type": "address"
        },
        {
          "name": "action",
          "type": "string"
        }
      ],
      "name": "disableServiceAction",
      "outputs": [],
      "payable": false,
      "stateMutability": "nonpayable",
      "type": "function"
    },
    {
      "constant": true,
      "inputs": [],
      "name": "serviceActivationTimeout",
      "outputs": [
        {
          "name": "",
          "type": "uint256"
        }
      ],
      "payable": false,
      "stateMutability": "view",
      "type": "function"
    },
    {
      "constant": true,
      "inputs": [],
      "name": "destructor",
      "outputs": [
        {
          "name": "",
          "type": "address"
        }
      ],
      "payable": false,
      "stateMutability": "view",
      "type": "function"
    },
    {
      "constant": false,
      "inputs": [
        {
          "name": "service",
          "type": "address"
        }
      ],
      "name": "deregisterService",
      "outputs": [],
      "payable": false,
      "stateMutability": "nonpayable",
      "type": "function"
    },
    {
      "constant": true,
      "inputs": [],
      "name": "operator",
      "outputs": [
        {
          "name": "",
          "type": "address"
        }
      ],
      "payable": false,
      "stateMutability": "view",
      "type": "function"
    },
    {
      "constant": true,
      "inputs": [],
      "name": "CLOSE_ACCRUAL_PERIOD_ACTION",
      "outputs": [
        {
          "name": "",
          "type": "string"
        }
      ],
      "payable": false,
      "stateMutability": "view",
      "type": "function"
    },
    {
      "constant": true,
      "inputs": [
        {
          "name": "service",
          "type": "address"
        },
        {
          "name": "action",
          "type": "string"
        }
      ],
      "name": "isEnabledServiceAction",
      "outputs": [
        {
          "name": "",
          "type": "bool"
        }
      ],
      "payable": false,
      "stateMutability": "view",
      "type": "function"
    },
    {
      "constant": false,
      "inputs": [],
      "name": "disableSelfDestruction",
      "outputs": [],
      "payable": false,
      "stateMutability": "nonpayable",
      "type": "function"
    },
    {
      "constant": true,
      "inputs": [],
      "name": "revenueTokenManager",
      "outputs": [
        {
          "name": "",
          "type": "address"
        }
      ],
      "payable": false,
      "stateMutability": "view",
      "type": "function"
    },
    {
      "constant": false,
      "inputs": [
        {
          "name": "timeoutInSeconds",
          "type": "uint256"
        }
      ],
      "name": "setServiceActivationTimeout",
      "outputs": [],
      "payable": false,
      "stateMutability": "nonpayable",
      "type": "function"
    },
    {
      "constant": true,
      "inputs": [
        {
          "name": "",
          "type": "address"
        },
        {
          "name": "",
          "type": "address"
        },
        {
          "name": "",
          "type": "uint256"
        },
        {
          "name": "",
          "type": "uint256"
        }
      ],
      "name": "claimedAccrualBlockNumbersByWalletCurrency",
      "outputs": [
        {
          "name": "",
          "type": "uint256"
        }
      ],
      "payable": false,
      "stateMutability": "view",
      "type": "function"
    },
    {
      "constant": false,
      "inputs": [
        {
          "name": "service",
          "type": "address"
        }
      ],
      "name": "registerServiceDeferred",
      "outputs": [],
      "payable": false,
      "stateMutability": "nonpayable",
      "type": "function"
    },
    {
      "constant": false,
      "inputs": [
        {
          "name": "newDeployer",
          "type": "address"
        }
      ],
      "name": "setDeployer",
      "outputs": [],
      "payable": false,
      "stateMutability": "nonpayable",
      "type": "function"
    },
    {
      "constant": true,
      "inputs": [],
      "name": "transferControllerManager",
      "outputs": [
        {
          "name": "",
          "type": "address"
        }
      ],
      "payable": false,
      "stateMutability": "view",
      "type": "function"
    },
    {
      "constant": false,
      "inputs": [
        {
          "name": "newOperator",
          "type": "address"
        }
      ],
      "name": "setOperator",
      "outputs": [],
      "payable": false,
      "stateMutability": "nonpayable",
      "type": "function"
    },
    {
      "constant": false,
      "inputs": [
        {
          "name": "newTransferControllerManager",
          "type": "address"
        }
      ],
      "name": "setTransferControllerManager",
      "outputs": [],
      "payable": false,
      "stateMutability": "nonpayable",
      "type": "function"
    },
    {
      "constant": true,
      "inputs": [],
      "name": "deployer",
      "outputs": [
        {
          "name": "",
          "type": "address"
        }
      ],
      "payable": false,
      "stateMutability": "view",
      "type": "function"
    },
    {
      "constant": false,
      "inputs": [
        {
          "name": "service",
          "type": "address"
        }
      ],
      "name": "registerService",
      "outputs": [],
      "payable": false,
      "stateMutability": "nonpayable",
      "type": "function"
    },
    {
      "inputs": [
        {
          "name": "deployer",
          "type": "address"
        }
      ],
      "payable": false,
      "stateMutability": "nonpayable",
      "type": "constructor"
    },
    {
      "payable": true,
      "stateMutability": "payable",
      "type": "fallback"
    },
    {
      "anonymous": false,
      "inputs": [
        {
          "indexed": false,
          "name": "oldRevenueTokenManager",
          "type": "address"
        },
        {
          "indexed": false,
          "name": "newRevenueTokenManager",
          "type": "address"
        }
      ],
      "name": "SetRevenueTokenManagerEvent",
      "type": "event"
    },
    {
      "anonymous": false,
      "inputs": [
        {
          "indexed": false,
          "name": "wallet",
          "type": "address"
        },
        {
          "indexed": false,
          "name": "amount",
          "type": "int256"
        },
        {
          "indexed": false,
          "name": "currencyCt",
          "type": "address"
        },
        {
          "indexed": false,
          "name": "currencyId",
          "type": "uint256"
        }
      ],
      "name": "ReceiveEvent",
      "type": "event"
    },
    {
      "anonymous": false,
      "inputs": [
        {
          "indexed": false,
          "name": "to",
          "type": "address"
        },
        {
          "indexed": false,
          "name": "amount",
          "type": "int256"
        },
        {
          "indexed": false,
          "name": "currencyCt",
          "type": "address"
        },
        {
          "indexed": false,
          "name": "currencyId",
          "type": "uint256"
        }
      ],
      "name": "WithdrawEvent",
      "type": "event"
    },
    {
      "anonymous": false,
      "inputs": [
        {
          "indexed": false,
          "name": "periodAmount",
          "type": "int256"
        },
        {
          "indexed": false,
          "name": "aggregateAmount",
          "type": "int256"
        },
        {
          "indexed": false,
          "name": "currencyCt",
          "type": "address"
        },
        {
          "indexed": false,
          "name": "currencyId",
          "type": "uint256"
        }
      ],
      "name": "CloseAccrualPeriodEvent",
      "type": "event"
    },
    {
      "anonymous": false,
      "inputs": [
        {
          "indexed": false,
          "name": "wallet",
          "type": "address"
        },
        {
          "indexed": false,
          "name": "balanceType",
          "type": "string"
        },
        {
          "indexed": false,
          "name": "amount",
          "type": "int256"
        },
        {
          "indexed": false,
          "name": "currencyCt",
          "type": "address"
        },
        {
          "indexed": false,
          "name": "currencyId",
          "type": "uint256"
        },
        {
          "indexed": false,
          "name": "standard",
          "type": "string"
        }
      ],
      "name": "ClaimAndTransferToBeneficiaryEvent",
      "type": "event"
    },
    {
      "anonymous": false,
      "inputs": [
        {
          "indexed": false,
          "name": "wallet",
          "type": "address"
        },
        {
          "indexed": false,
          "name": "balanceType",
          "type": "string"
        },
        {
          "indexed": false,
          "name": "amount",
          "type": "int256"
        },
        {
          "indexed": false,
          "name": "currencyCt",
          "type": "address"
        },
        {
          "indexed": false,
          "name": "currencyId",
          "type": "uint256"
        },
        {
          "indexed": false,
          "name": "standard",
          "type": "string"
        }
      ],
      "name": "ClaimAndTransferToBeneficiaryByProxyEvent",
      "type": "event"
    },
    {
      "anonymous": false,
      "inputs": [
        {
          "indexed": false,
          "name": "from",
          "type": "address"
        },
        {
          "indexed": false,
          "name": "amount",
          "type": "int256"
        },
        {
          "indexed": false,
          "name": "currencyCt",
          "type": "address"
        },
        {
          "indexed": false,
          "name": "currencyId",
          "type": "uint256"
        }
      ],
      "name": "ClaimAndStageEvent",
      "type": "event"
    },
    {
      "anonymous": false,
      "inputs": [
        {
          "indexed": false,
          "name": "from",
          "type": "address"
        },
        {
          "indexed": false,
          "name": "amount",
          "type": "int256"
        },
        {
          "indexed": false,
          "name": "currencyCt",
          "type": "address"
        },
        {
          "indexed": false,
          "name": "currencyId",
          "type": "uint256"
        },
        {
          "indexed": false,
          "name": "standard",
          "type": "string"
        }
      ],
      "name": "WithdrawEvent",
      "type": "event"
    },
    {
      "anonymous": false,
      "inputs": [
        {
          "indexed": false,
          "name": "oldTransferControllerManager",
          "type": "address"
        },
        {
          "indexed": false,
          "name": "newTransferControllerManager",
          "type": "address"
        }
      ],
      "name": "SetTransferControllerManagerEvent",
      "type": "event"
    },
    {
      "anonymous": false,
      "inputs": [
        {
          "indexed": false,
          "name": "timeoutInSeconds",
          "type": "uint256"
        }
      ],
      "name": "ServiceActivationTimeoutEvent",
      "type": "event"
    },
    {
      "anonymous": false,
      "inputs": [
        {
          "indexed": false,
          "name": "service",
          "type": "address"
        }
      ],
      "name": "RegisterServiceEvent",
      "type": "event"
    },
    {
      "anonymous": false,
      "inputs": [
        {
          "indexed": false,
          "name": "service",
          "type": "address"
        },
        {
          "indexed": false,
          "name": "timeout",
          "type": "uint256"
        }
      ],
      "name": "RegisterServiceDeferredEvent",
      "type": "event"
    },
    {
      "anonymous": false,
      "inputs": [
        {
          "indexed": false,
          "name": "service",
          "type": "address"
        }
      ],
      "name": "DeregisterServiceEvent",
      "type": "event"
    },
    {
      "anonymous": false,
      "inputs": [
        {
          "indexed": false,
          "name": "service",
          "type": "address"
        },
        {
          "indexed": false,
          "name": "action",
          "type": "string"
        }
      ],
      "name": "EnableServiceActionEvent",
      "type": "event"
    },
    {
      "anonymous": false,
      "inputs": [
        {
          "indexed": false,
          "name": "service",
          "type": "address"
        },
        {
          "indexed": false,
          "name": "action",
          "type": "string"
        }
      ],
      "name": "DisableServiceActionEvent",
      "type": "event"
    },
    {
      "anonymous": false,
      "inputs": [],
      "name": "CloseAccrualPeriodEvent",
      "type": "event"
    },
    {
      "anonymous": false,
      "inputs": [
        {
          "indexed": false,
          "name": "oldDeployer",
          "type": "address"
        },
        {
          "indexed": false,
          "name": "newDeployer",
          "type": "address"
        }
      ],
      "name": "SetDeployerEvent",
      "type": "event"
    },
    {
      "anonymous": false,
      "inputs": [
        {
          "indexed": false,
          "name": "oldOperator",
          "type": "address"
        },
        {
          "indexed": false,
          "name": "newOperator",
          "type": "address"
        }
      ],
      "name": "SetOperatorEvent",
      "type": "event"
    },
    {
      "anonymous": false,
      "inputs": [
        {
          "indexed": false,
          "name": "wallet",
          "type": "address"
        }
      ],
      "name": "SelfDestructionDisabledEvent",
      "type": "event"
    },
    {
      "anonymous": false,
      "inputs": [
        {
          "indexed": false,
          "name": "wallet",
          "type": "address"
        }
      ],
      "name": "TriggerSelfDestructionEvent",
      "type": "event"
    },
    {
      "constant": false,
      "inputs": [
        {
          "name": "newRevenueTokenManager",
          "type": "address"
        }
      ],
      "name": "setRevenueTokenManager",
      "outputs": [],
      "payable": false,
      "stateMutability": "nonpayable",
      "type": "function"
    },
    {
      "constant": false,
      "inputs": [
        {
          "name": "wallet",
          "type": "address"
        },
        {
          "name": "",
          "type": "string"
        }
      ],
      "name": "receiveEthersTo",
      "outputs": [],
      "payable": true,
      "stateMutability": "payable",
      "type": "function"
    },
    {
      "constant": false,
      "inputs": [
        {
          "name": "",
          "type": "string"
        },
        {
          "name": "amount",
          "type": "int256"
        },
        {
          "name": "currencyCt",
          "type": "address"
        },
        {
          "name": "currencyId",
          "type": "uint256"
        },
        {
          "name": "standard",
          "type": "string"
        }
      ],
      "name": "receiveTokens",
      "outputs": [],
      "payable": false,
      "stateMutability": "nonpayable",
      "type": "function"
    },
    {
      "constant": false,
      "inputs": [
        {
          "name": "wallet",
          "type": "address"
        },
        {
          "name": "",
          "type": "string"
        },
        {
          "name": "amount",
          "type": "int256"
        },
        {
          "name": "currencyCt",
          "type": "address"
        },
        {
          "name": "currencyId",
          "type": "uint256"
        },
        {
          "name": "standard",
          "type": "string"
        }
      ],
      "name": "receiveTokensTo",
      "outputs": [],
      "payable": false,
      "stateMutability": "nonpayable",
      "type": "function"
    },
    {
      "constant": true,
      "inputs": [
        {
          "name": "currencyCt",
          "type": "address"
        },
        {
          "name": "currencyId",
          "type": "uint256"
        }
      ],
      "name": "periodAccrualBalance",
      "outputs": [
        {
          "name": "",
          "type": "int256"
        }
      ],
      "payable": false,
      "stateMutability": "view",
      "type": "function"
    },
    {
      "constant": true,
      "inputs": [
        {
          "name": "currencyCt",
          "type": "address"
        },
        {
          "name": "currencyId",
          "type": "uint256"
        }
      ],
      "name": "aggregateAccrualBalance",
      "outputs": [
        {
          "name": "",
          "type": "int256"
        }
      ],
      "payable": false,
      "stateMutability": "view",
      "type": "function"
    },
    {
      "constant": true,
      "inputs": [],
      "name": "periodCurrenciesCount",
      "outputs": [
        {
          "name": "",
          "type": "uint256"
        }
      ],
      "payable": false,
      "stateMutability": "view",
      "type": "function"
    },
    {
      "constant": true,
      "inputs": [
        {
          "name": "low",
          "type": "uint256"
        },
        {
          "name": "up",
          "type": "uint256"
        }
      ],
      "name": "periodCurrenciesByIndices",
      "outputs": [
        {
          "components": [
            {
              "name": "ct",
              "type": "address"
            },
            {
              "name": "id",
              "type": "uint256"
            }
          ],
          "name": "",
          "type": "tuple[]"
        }
      ],
      "payable": false,
      "stateMutability": "view",
      "type": "function"
    },
    {
      "constant": true,
      "inputs": [],
      "name": "aggregateCurrenciesCount",
      "outputs": [
        {
          "name": "",
          "type": "uint256"
        }
      ],
      "payable": false,
      "stateMutability": "view",
      "type": "function"
    },
    {
      "constant": true,
      "inputs": [
        {
          "name": "low",
          "type": "uint256"
        },
        {
          "name": "up",
          "type": "uint256"
        }
      ],
      "name": "aggregateCurrenciesByIndices",
      "outputs": [
        {
          "components": [
            {
              "name": "ct",
              "type": "address"
            },
            {
              "name": "id",
              "type": "uint256"
            }
          ],
          "name": "",
          "type": "tuple[]"
        }
      ],
      "payable": false,
      "stateMutability": "view",
      "type": "function"
    },
    {
      "constant": true,
      "inputs": [],
      "name": "depositsCount",
      "outputs": [
        {
          "name": "",
          "type": "uint256"
        }
      ],
      "payable": false,
      "stateMutability": "view",
      "type": "function"
    },
    {
      "constant": true,
      "inputs": [
        {
          "name": "index",
          "type": "uint256"
        }
      ],
      "name": "deposit",
      "outputs": [
        {
          "name": "amount",
          "type": "int256"
        },
        {
          "name": "blockNumber",
          "type": "uint256"
        },
        {
          "name": "currencyCt",
          "type": "address"
        },
        {
          "name": "currencyId",
          "type": "uint256"
        }
      ],
      "payable": false,
      "stateMutability": "view",
      "type": "function"
    },
    {
      "constant": true,
      "inputs": [
        {
          "name": "wallet",
          "type": "address"
        },
        {
          "name": "currencyCt",
          "type": "address"
        },
        {
          "name": "currencyId",
          "type": "uint256"
        }
      ],
      "name": "stagedBalance",
      "outputs": [
        {
          "name": "",
          "type": "int256"
        }
      ],
      "payable": false,
      "stateMutability": "view",
      "type": "function"
    },
    {
      "constant": false,
      "inputs": [
        {
          "components": [
            {
              "name": "ct",
              "type": "address"
            },
            {
              "name": "id",
              "type": "uint256"
            }
          ],
          "name": "currencies",
          "type": "tuple[]"
        }
      ],
      "name": "closeAccrualPeriod",
      "outputs": [],
      "payable": false,
      "stateMutability": "nonpayable",
      "type": "function"
    },
    {
      "constant": false,
      "inputs": [
        {
          "name": "beneficiary",
          "type": "address"
        },
        {
          "name": "destWallet",
          "type": "address"
        },
        {
          "name": "balanceType",
          "type": "string"
        },
        {
          "name": "currencyCt",
          "type": "address"
        },
        {
          "name": "currencyId",
          "type": "uint256"
        },
        {
          "name": "standard",
          "type": "string"
        }
      ],
      "name": "claimAndTransferToBeneficiary",
      "outputs": [],
      "payable": false,
      "stateMutability": "nonpayable",
      "type": "function"
    },
    {
      "constant": false,
      "inputs": [
        {
          "name": "currencyCt",
          "type": "address"
        },
        {
          "name": "currencyId",
          "type": "uint256"
        }
      ],
      "name": "claimAndStage",
      "outputs": [],
      "payable": false,
      "stateMutability": "nonpayable",
      "type": "function"
    },
    {
      "constant": false,
      "inputs": [
        {
          "name": "amount",
          "type": "int256"
        },
        {
          "name": "currencyCt",
          "type": "address"
        },
        {
          "name": "currencyId",
          "type": "uint256"
        },
        {
          "name": "standard",
          "type": "string"
        }
      ],
      "name": "withdraw",
      "outputs": [],
      "payable": false,
      "stateMutability": "nonpayable",
      "type": "function"
    }
  ],
  "bytecode": "0x60806040523480156200001157600080fd5b506040516020806200359e8339810180604052620000339190810190620000b6565b8080600160a060020a03811615156200004b57600080fd5b600160a060020a0381163014156200006257600080fd5b506000805461010060a860020a031916610100600160a060020a039390931692830217905560018054600160a060020a031916909117905550620000eb565b6000620000af8251620000df565b9392505050565b600060208284031215620000c957600080fd5b6000620000d78484620000a1565b949350505050565b600160a060020a031690565b6134a380620000fb6000396000f3006080604052600436106101df5763ffffffff60e060020a6000350416630f200f9b81146101fb57806312e94dda1461021b57806317ba3f90146102515780632738a1121461027e5780632b261d02146102935780632b5672e3146102b35780632b91e0a9146102d35780632f013a00146102f35780632f044523146103085780633b58c501146103285780633b7bea6c14610348578063429986b71461035d5780634476d23b1461037d5780634506e9351461039f578063477fbc39146103b457806350b08c02146103d4578063570ca735146103f45780635af36995146104095780635df1b0a31461042b5780635f2896511461044b57806369ac566d1461046b57806370327ea1146104805780637c8cf970146104955780637e15dd5c146104b75780638b21e118146104d75780638e8cef12146104f75780639621473514610517578063962c85a214610537578063a7654a1f14610564578063af30b31214610577578063b3ab15fb1461058c578063b6b55f25146105ac578063ba06820c146105dc578063bb4e34ea146105fc578063c45a9a7f14610611578063cb9bd04c14610631578063ce25621314610651578063d3b41bd214610671578063d5f3948814610691578063f50358e7146106a6578063fdd9ec7d146106c6575b6101f93360206040519081016040528060008152506106e6565b005b34801561020757600080fd5b506101f9610216366004612ef3565b610808565b34801561022757600080fd5b5061023b610236366004612bb5565b610af7565b6040516102489190613321565b60405180910390f35b34801561025d57600080fd5b5061027161026c366004612b97565b610b2a565b60405161024891906132ea565b34801561028a57600080fd5b506101f9610b62565b34801561029f57600080fd5b5061023b6102ae366004612d99565b610bc8565b3480156102bf57600080fd5b506101f96102ce366004612c63565b610c05565b3480156102df57600080fd5b506102716102ee366004612b97565b610d33565b3480156102ff57600080fd5b50610271610d51565b34801561031457600080fd5b5061023b610323366004612d69565b610d5a565b34801561033457600080fd5b506101f9610343366004612c63565b610d6e565b34801561035457600080fd5b5061023b610e4e565b34801561036957600080fd5b506101f9610378366004612d69565b610e54565b34801561038957600080fd5b50610392610eba565b6040516102489190613121565b3480156103ab57600080fd5b5061023b610ecf565b3480156103c057600080fd5b506101f96103cf366004612dcb565b610ee0565b3480156103e057600080fd5b506101f96103ef366004612b97565b6110b4565b34801561040057600080fd5b50610392611176565b34801561041557600080fd5b5061041e611185565b604051610248919061334b565b34801561043757600080fd5b50610271610446366004612c63565b6111b6565b34801561045757600080fd5b506101f9610466366004612cb4565b611206565b34801561047757600080fd5b5061023b611421565b34801561048c57600080fd5b506101f961142d565b3480156104a157600080fd5b506104aa611490565b60405161024891906132f8565b3480156104c357600080fd5b506101f96104d2366004613001565b61149f565b3480156104e357600080fd5b5061023b6104f2366004612c02565b6114f2565b34801561050357600080fd5b506101f9610512366004612b97565b61153c565b34801561052357600080fd5b506101f9610532366004612b97565b6115ba565b34801561054357600080fd5b5061055761055236600461301f565b611678565b60405161024891906132d9565b6101f9610572366004612c63565b6106e6565b34801561058357600080fd5b506104aa61168c565b34801561059857600080fd5b506101f96105a7366004612b97565b61169b565b3480156105b857600080fd5b506105cc6105c7366004613001565b611745565b604051610248949392919061333d565b3480156105e857600080fd5b506101f96105f7366004612eb7565b61176a565b34801561060857600080fd5b5061023b6117fe565b34801561061d57600080fd5b506101f961062c366004612f5f565b61180a565b34801561063d57600080fd5b5061055761064c36600461301f565b611828565b34801561065d57600080fd5b506101f961066c366004612e3b565b61183c565b34801561067d57600080fd5b506101f961068c366004612eb7565b611a75565b34801561069d57600080fd5b50610392611b0d565b3480156106b257600080fd5b5061023b6106c1366004612d69565b611b21565b3480156106d257600080fd5b506101f96106e1366004612b97565b611b35565b60405160e060020a63802d10af02815260009073__SafeMathIntLib________________________9063802d10af90610723903490600401613321565b60206040518083038186803b15801561073b57600080fd5b505af415801561074f573d6000803e3d6000fd5b505050506040513d601f19601f820116820180604052506107739190810190612ed5565b905061078960068260008063ffffffff611bae16565b61079d600e8260008063ffffffff611bae16565b6107b0600c60008063ffffffff611c5f16565b6107c3601460008063ffffffff611c5f16565b6107d760168260008063ffffffff611cfd16565b60008051602061344a83398151915283826000806040516107fb949392919061314a565b60405180910390a1505050565b60405160e160020a6351750e5302815260009073__SafeMathIntLib________________________9063a2ea1ca690610845908890600401613321565b60206040518083038186803b15801561085d57600080fd5b505af4158015610871573d6000803e3d6000fd5b505050506040513d601f19601f820116820180604052506108959190810190612dff565b15156108a057600080fd5b336000908152601d6020526040902073__SafeMathIntLib________________________9063755875b29087906108de90888863ffffffff611dca16565b6040518363ffffffff1660e060020a0281526004016108fe92919061332f565b60206040518083038186803b15801561091657600080fd5b505af415801561092a573d6000803e3d6000fd5b505050506040513d601f19601f8201168201806040525061094e9190810190612ed5565b336000908152601d602052604090209095506109729086868663ffffffff611df216565b600160a060020a038416158015610987575082155b156109bf57604051339086156108fc029087906000818181858888f193505050501580156109b9573d6000803e3d6000fd5b50610ab1565b6109c98483611e24565b905080600160a060020a031681600160a060020a0316637228941f6040518163ffffffff1660e060020a028152600401602060405180830381600087803b158015610a1357600080fd5b505af1158015610a27573d6000803e3d6000fd5b505050506040513d601f19601f82011682018060405250610a4b9190810190612e1d565b6040805160e060020a9283900463ffffffff8116909302815230600482015233602482015260448101899052600160a060020a038816606482015260848101879052905160a48083019260009291908290030181865af4925050501515610ab157600080fd5b7f8e0adde15ffb742f47e7888277a26cea416253fcb63186dc4949fe493e92b77c3386868686604051610ae89594939291906131bd565b60405180910390a15050505050565b600160a060020a0383166000908152601d60205260408120610b2090848463ffffffff611dca16565b90505b9392505050565b6000610b3582610d33565b8015610b5c5750600160a060020a0382166000908152600260205260409020600101544210155b92915050565b33610b6b610eba565b600160a060020a031614610b7e57600080fd5b60005460ff1615610b8e57600080fd5b7f787a5d936e74f4b564b9153575886059829c78cd9927b1be5e0d976b317ef73633604051610bbd9190613121565b60405180910390a133ff5b601b60205282600052604060002060205281600052604060002081815481101515610bef57fe5b9060005260206000200160009250925050505481565b6000610c0f611ead565b1515610c1a57600080fd5b82600160a060020a0381161515610c3057600080fd5b600160a060020a038116301415610c4657600080fd5b600160a060020a03841660009081526002602052604090205460ff161515610c6d57600080fd5b610c7683611ec3565b600160a060020a0385166000908152600260208181526040808420858552909201905290205490925060ff1615610cac57600080fd5b600160a060020a03841660009081526002602081815260408084208685528084018352818520805460ff19166001908117909155938352600301805493840181558452922001839055517fec1b982d69bfc1a6fd8becf191d9a633486c822d3bdedd52303ca81fa635750190610d25908690869061320f565b60405180910390a150505050565b600160a060020a031660009081526002602052604090205460ff1690565b60005460ff1681565b6000610b236006848463ffffffff611dca16565b6000610d78611ead565b1515610d8357600080fd5b82600160a060020a0381161515610d9957600080fd5b600160a060020a038116301415610daf57600080fd5b610db883611ec3565b600160a060020a0385166000908152600260208181526040808420858552909201905290205490925060ff161515610def57600080fd5b600160a060020a0384166000908152600260208181526040808420868552909201905290819020805460ff19169055517f92f4af6130f47c92f3899e06611c8c6ef191fb81207ad2675d134af619d2fe7d90610d25908690869061320f565b60035481565b6000610e61338484611f8d565b336000908152601d60205260409020909150610e859082858563ffffffff611bae16565b7f16783e9c99d49fc79a67fa2800716b302b8b9d539aae7cc4f31d758f6afe1f6f338285856040516107fb9493929190613188565b6000546101009004600160a060020a03165b90565b6000610edb60166122fe565b905090565b6000610eea612990565b6000604080519081016040528060148152602001606260020a7318db1bdcd957d858d8dc9d585b17dc195c9a5bd902815250610f2633826111b6565b1515610f3157600080fd5b600093505b84518410156110ad578484815181101515610f4d57fe5b6020908102909101810151805191810151909450610f739160069163ffffffff611dca16565b8351600160a060020a03166000908152601b60209081526040808320828801805185529083529083208054600181018255908452919092204391015584519051919350610fbf91611b21565b8351600160a060020a03166000908152601c60209081526040808320828801518452825280832043845290915281209190915582131561102f5782516020840151611016916006916000919063ffffffff61230216565b8251602084015161102f91600c9163ffffffff61237916565b8251600160a060020a03166000908152601c602090815260408083208287018051855290835281842043855290925291829020548551915192517f0a770107c3c8295a15ff19c83dec676996da3dc1f5ab3cb7a931bd2658643c909361109a9387939290919061333d565b60405180910390a1600190930192610f36565b5050505050565b6110bc611ead565b15156110c757600080fd5b80600160a060020a03811615156110dd57600080fd5b600160a060020a0381163014156110f357600080fd5b600160a060020a03821660009081526002602052604090205460ff16151561111a57600080fd5b600160a060020a03821660009081526002602052604090819020805460ff19169055517f777645c5437dfbf962f57a281ead25f3d513f2f8e938685bbfc1738e81c9880e9061116a908490613121565b60405180910390a15050565b600154600160a060020a031681565b6040805180820190915260148152606260020a7318db1bdcd957d858d8dc9d585b17dc195c9a5bd902602082015281565b6000806111c283611ec3565b90506111cd84610b2a565b80156111fe5750600160a060020a0384166000908152600260208181526040808420858552909201905290205460ff165b949350505050565b60405160e160020a6351750e5302815260009073__SafeMathIntLib________________________9063a2ea1ca690611243908890600401613321565b60206040518083038186803b15801561125b57600080fd5b505af415801561126f573d6000803e3d6000fd5b505050506040513d601f19601f820116820180604052506112939190810190612dff565b151561129e57600080fd5b6112a88483611e24565b905080600160a060020a031681600160a060020a031663ad502f576040518163ffffffff1660e060020a028152600401602060405180830381600087803b1580156112f257600080fd5b505af1158015611306573d6000803e3d6000fd5b505050506040513d601f19601f8201168201806040525061132a9190810190612e1d565b6040805160e060020a9283900463ffffffff8116909302815233600482015230602482015260448101899052600160a060020a038816606482015260848101879052905160a48083019260009291908290030181865af492505050151561139057600080fd5b6113a3600686868663ffffffff611bae16565b6113b6600e86868663ffffffff611bae16565b6113c8600c858563ffffffff611c5f16565b6113da6014858563ffffffff611c5f16565b6113ed601686868663ffffffff611cfd16565b60008051602061344a833981519152878686866040516114109493929190613188565b60405180910390a150505050505050565b6000610edb600c6122fe565b33611436610eba565b600160a060020a03161461144957600080fd5b6000805460ff191660011790556040517fd5a2a04a775c741c2ca0dc46ea7ce4835190e1aaf1ca018def0e82568ec3361690611486903390613121565b60405180910390a1565b600554600160a060020a031681565b6114a7611ead565b15156114b257600080fd5b60038190556040517f4f1d324a1cbffc352fb64f1d73d95e4b200d92f99ef39bf2d7f5b41f946909d6906114e7908390613321565b60405180910390a150565b601a6020528360005260406000206020528260005260406000206020528160005260406000208181548110151561152557fe5b906000526020600020016000935093505050505481565b611544611ead565b151561154f57600080fd5b80600160a060020a038116151561156557600080fd5b600160a060020a03811630141561157b57600080fd5b611587826003546123b4565b7f7f3a8349917003ed377f6e9ae1608b92edd893903f8983bd274b1f8373dd3b118260035460405161116a929190613296565b60006115c4611ead565b15156115cf57600080fd5b81600160a060020a03811615156115e557600080fd5b600160a060020a0381163014156115fb57600080fd5b600054600160a060020a0384811661010090920416146116735760008054600160a060020a0385811661010090810261010060a860020a0319841617909355604051929091041692507f977e5fa58e458501775e0008d275006294c5249e3c08d1d0e3a9f3acad14f6e4906107fb908490869061312f565b505050565b6060610b236014848463ffffffff61240616565b600454600160a060020a031681565b60006116a5612576565b15156116b057600080fd5b81600160a060020a03811615156116c657600080fd5b600160a060020a0381163014156116dc57600080fd5b600154600160a060020a038481169116146116735760018054600160a060020a03858116600160a060020a0319831617909255604051911692507f9f611b789425d0d5b90b920f1b2852907dd865c80074a30b1629aaa041d1812c906107fb908490869061312f565b600080808061175b60168663ffffffff61258716565b93509350935093509193509193565b6000611774611ead565b151561177f57600080fd5b81600160a060020a038116151561179557600080fd5b600554600160a060020a038481169116146116735760058054600160a060020a03858116600160a060020a0319831617909255604051911692507f56d0c5f4d452d8b61bcee42685e341e1fb9bff4f4b4f2a84f48030a738974adb906107fb9084908690613306565b6000610edb60146122fe565b6110ad33602060405190810160405280600081525086868686611206565b6060610b23600c848463ffffffff61240616565b60008061184a338686611f8d565b9150600160a060020a038516158015611861575083155b156118d05760405160e060020a63a7654a1f028152600160a060020a0389169063a7654a1f908490611899908b908b9060040161320f565b6000604051808303818588803b1580156118b257600080fd5b505af11580156118c6573d6000803e3d6000fd5b5050505050611a2a565b6118da8584611e24565b905080600160a060020a031681600160a060020a0316631711a8946040518163ffffffff1660e060020a028152600401602060405180830381600087803b15801561192457600080fd5b505af1158015611938573d6000803e3d6000fd5b505050506040513d601f19601f8201168201806040525061195c9190810190612e1d565b6040805160e060020a9283900463ffffffff81169093028152600160a060020a038c81166004830152602482018790528916604482015260648101889052905160848083019260009291908290030181865af49250505015156119be57600080fd5b60405160e060020a635f289651028152600160a060020a03891690635f289651906119f7908a908a9087908b908b908b9060040161322f565b600060405180830381600087803b158015611a1157600080fd5b505af1158015611a25573d6000803e3d6000fd5b505050505b7ffed0bf135c59a654d448f1bd0da5162c149dabec4258463413f581e54eed901f338784888888604051611a639695949392919061322f565b60405180910390a15050505050505050565b6000611a7f611ead565b1515611a8a57600080fd5b81600160a060020a0381161515611aa057600080fd5b6004548390600160a060020a0390811690821681146110ad5760048054600160a060020a03878116600160a060020a0319831617909255604051911694507fee9ef6d53e152e48b1ebc1c23943fb2b96e847465ed779a0e2121a388ea83d2f90610ae89086908890613306565b6000546101009004600160a060020a031681565b6000610b23600e848463ffffffff611dca16565b611b3d611ead565b1515611b4857600080fd5b80600160a060020a0381161515611b5e57600080fd5b600160a060020a038116301415611b7457600080fd5b611b7f8260006123b4565b7fb619d545cb511bd5f02907a1eac4f4cb8dace7b1846852fb0bf5e553937481c18260405161116a9190613121565b600160a060020a038216600090815260208581526040808320848452909152902054611be0908463ffffffff61264116565b600160a060020a0383166000818152602087815260408083208684528083528184208690559383526001808a018352818420878552835281842082518084019093529483529481524381830190815284548087018655948452919092209151600290930290910191825551910155611c59848383612676565b50505050565b600160a060020a03821660009081526001840160209081526040808320848452909152902054151561167357604080518082018252600160a060020a039384168082526020808301858152875460018082018a5560008a8152848120965160029093029096018054600160a060020a031916929099169190911788559051968101969096558654918352949095018452818120928152919092522055565b611d056129a7565b5060408051608081018252938452436020808601918252600160a060020a0394851686840181815260608801868152895460018181018c5560008c81528681208c516004948502909101908155885181840155855160028083018054928f16600160a060020a031993841617905586516003938401559783529d830188528982209a8252998752978820805480830182559089529590972099519402909801928355925193820193909355905191810180549290941691909516179091559051910155565b600160a060020a03919091166000908152602092835260408082209282529190925290205490565b600160a060020a038216600090815260208581526040808320848452909152902054611be0908463ffffffff61271416565b6004805460405160e460020a630c8a483b028152600092600160a060020a039092169163c8a483b091611e5b91879187910161320f565b602060405180830381600087803b158015611e7557600080fd5b505af1158015611e89573d6000803e3d6000fd5b505050506040513d601f19601f82011682018060405250610b239190810190612e99565b6000546101009004600160a060020a0316331490565b6000816040516020018082805190602001908083835b60208310611ef85780518252601f199092019160209182019101611ed9565b6001836020036101000a0380198251168184511680821785525050505050509050019150506040516020818303038152906040526040518082805190602001908083835b60208310611f5b5780518252601f199092019160209182019101611f3c565b5181516020939093036101000a6000190180199091169216919091179052604051920182900390912095945050505050565b600160a060020a0382166000908152601b6020908152604080832084845290915281205481908190819081908190819081908110611fca57600080fd5b600160a060020a03808c166000908152601a60209081526040808320938e1683529281528282208c83529052208054909750156120235786548790600019810190811061201357fe5b9060005260206000200154612026565b60005b600160a060020a038b166000908152601b602090815260408083208d84529091529020805491975090600019810190811061205d57fe5b90600052602060002001549450848610151561207857600080fd5b85156120af57600160a060020a038a166000908152601c602090815260408083208c845282528083208984529091529020546120b2565b60005b600160a060020a038b166000908152601c602090815260408083208d8452825280832089845290915281205491909103945084136120ef57600080fd5b600560009054906101000a9004600160a060020a0316600160a060020a031663fc0c546a6040518163ffffffff1660e060020a028152600401602060405180830381600087803b15801561214257600080fd5b505af1158015612156573d6000803e3d6000fd5b505050506040513d601f19601f8201168201806040525061217a9190810190612e99565b600160a060020a031663a52079ea8c88886040518463ffffffff1660e060020a0281526004016121ac939291906132b1565b602060405180830381600087803b1580156121c657600080fd5b505af11580156121da573d6000803e3d6000fd5b505050506040513d601f19601f820116820180604052506121fe9190810190612ed5565b60055460405160e160020a6342d23abf028152919450600160a060020a0316906385a4757e90612234908990899060040161332f565b602060405180830381600087803b15801561224e57600080fd5b505af1158015612262573d6000803e3d6000fd5b505050506040513d601f19601f820116820180604052506122869190810190612ed5565b91506122d76122a383670de0b6b3a764000063ffffffff61275016565b6122cb670de0b6b3a76400006122bf878963ffffffff61275016565b9063ffffffff61275016565b9063ffffffff6127a416565b87546001810189556000988952602090982090970194909455509398975050505050505050565b5490565b600160a060020a0382166000818152602086815260408083208584528083528184208890559383526001808901835281842086855283528184208251808401909352948352878252438284019081528554808301875595855292909320905160029094020192835551910155611c59848383612676565b600160a060020a0382166000908152600184016020908152604080832084845290915281205490811115611c5957611c5984600183036127d4565b600160a060020a03821660009081526002602052604090205460ff16151561240257600160a060020a0382166000908152600260205260409020805460ff1916600190811782554283019101555b5050565b82546060908190600090811061241b57600080fd5b8385111561242857600080fd5b855460405160e060020a63700f1a7702815273__SafeMathUintLib_______________________9163700f1a779161246b9188916000199091019060040161332f565b60206040518083038186803b15801561248357600080fd5b505af4158015612497573d6000803e3d6000fd5b505050506040513d601f19601f820116820180604052506124bb9190810190612ed5565b93508484036001016040519080825280602002602001820160405280156124fc57816020015b6124e9612990565b8152602001906001900390816124e15790505b5091508490505b83811161256d57855486908290811061251857fe5b6000918252602091829020604080518082019091526002909202018054600160a060020a0316825260010154918101919091528251839087840390811061255b57fe5b60209081029091010152600101612503565b50949350505050565b600154600160a060020a0316331490565b8154600090819081908190851061259d57600080fd5b85548690869081106125ab57fe5b906000526020600020906004020160000154935085600001858154811015156125d057fe5b906000526020600020906004020160010154925085600001858154811015156125f557fe5b60009182526020909120600260049092020101548654600160a060020a03909116925086908690811061262457fe5b906000526020600020906004020160030154905092959194509250565b60008282018183128015906126565750838112155b8061266b575060008312801561266b57508381125b1515610b2357600080fd5b600160a060020a0382166000908152602084815260408083208484529091529020541580156126b457506126b460028401838363ffffffff61296116565b156126d2576126cd60028401838363ffffffff61237916565b611673565b6126e660028401838363ffffffff61296116565b15156116735761270060028401838363ffffffff611c5f16565b61167360048401838363ffffffff611c5f16565b600080821215801561272857508282840313155b8061273f575060008212801561273f575082828403135b151561274a57600080fd5b50900390565b60008060008412158015612765575060008312155b151561277057600080fd5b5082820283158061278b575082848281151561278857fe5b05145b151561279657600080fd5b6000811215610b2357600080fd5b60008083121580156127b65750600082135b15156127c157600080fd5b81838115156127cc57fe5b059392505050565b8154600090819083106127e657600080fd5b83548490849081106127f457fe5b60009182526020909120600290910201548454600160a060020a03909116925084908490811061282057fe5b60009182526020909120600160029092020101548454909150600019018310156129225783548490600019810190811061285657fe5b9060005260206000209060020201846000018481548110151561287557fe5b60009182526020822083546002909202018054600160a060020a031916600160a060020a0390921691909117815560019283015490830155855485830192870191908790879081106128c357fe5b60009182526020808320600290920290910154600160a060020a03168352820192909252604001812086549091908790879081106128fd57fe5b9060005260206000209060020201600101548152602001908152602001600020819055505b83546129328560001983016129d9565b50600160a060020a03909116600090815260019093016020908152604080852092855291905282209190915550565b600160a060020a0382166000908152600184016020908152604080832084845290915290205415159392505050565b604080518082019091526000808252602082015290565b60806040519081016040528060008152602001600081526020016000600160a060020a03168152602001600081525090565b8154818355818111156116735760008381526020902061167391610ecc9160029182028101918502015b80821115612a28578054600160a060020a031916815560006001820155600201612a03565b5090565b6000610b2382356133d3565b6000601f82018313612a4957600080fd5b8135612a5c612a5782613382565b61335c565b91508181835260208401935060208101905083856040840282011115612a8157600080fd5b60005b83811015612aaf5781612a978882612b50565b84525060209092019160409190910190600101612a84565b5050505092915050565b6000610b2382516133df565b6000610b2382516133e4565b6000610b2382356133f1565b6000610b2382516133f1565b6000610b238235610ecc565b6000610b238251610ecc565b6000601f82018313612b1257600080fd5b8135612b20612a57826133a2565b91508082526020830160208301858383011115612b3c57600080fd5b612b47838284613407565b50505092915050565b600060408284031215612b6257600080fd5b612b6c604061335c565b90506000612b7a8484612a2c565b8252506020612b8b84848301612ae9565b60208301525092915050565b600060208284031215612ba957600080fd5b60006111fe8484612a2c565b600080600060608486031215612bca57600080fd5b6000612bd68686612a2c565b9350506020612be786828701612a2c565b9250506040612bf886828701612ae9565b9150509250925092565b60008060008060808587031215612c1857600080fd5b6000612c248787612a2c565b9450506020612c3587828801612a2c565b9350506040612c4687828801612ae9565b9250506060612c5787828801612ae9565b91505092959194509250565b60008060408385031215612c7657600080fd5b6000612c828585612a2c565b92505060208301356001604060020a03811115612c9e57600080fd5b612caa85828601612b01565b9150509250929050565b60008060008060008060c08789031215612ccd57600080fd5b6000612cd98989612a2c565b96505060208701356001604060020a03811115612cf557600080fd5b612d0189828a01612b01565b9550506040612d1289828a01612ae9565b9450506060612d2389828a01612a2c565b9350506080612d3489828a01612ae9565b92505060a08701356001604060020a03811115612d5057600080fd5b612d5c89828a01612b01565b9150509295509295509295565b60008060408385031215612d7c57600080fd5b6000612d888585612a2c565b9250506020612caa85828601612ae9565b600080600060608486031215612dae57600080fd5b6000612dba8686612a2c565b9350506020612be786828701612ae9565b600060208284031215612ddd57600080fd5b81356001604060020a03811115612df357600080fd5b6111fe84828501612a38565b600060208284031215612e1157600080fd5b60006111fe8484612ab9565b600060208284031215612e2f57600080fd5b60006111fe8484612ac5565b60008060008060008060c08789031215612e5457600080fd5b6000612e608989612ad1565b9650506020612e7189828a01612a2c565b95505060408701356001604060020a03811115612e8d57600080fd5b612d1289828a01612b01565b600060208284031215612eab57600080fd5b60006111fe8484612add565b600060208284031215612ec957600080fd5b60006111fe8484612ad1565b600060208284031215612ee757600080fd5b60006111fe8484612af5565b60008060008060808587031215612f0957600080fd5b6000612f158787612ae9565b9450506020612f2687828801612a2c565b9350506040612f3787828801612ae9565b92505060608501356001604060020a03811115612f5357600080fd5b612c5787828801612b01565b600080600080600060a08688031215612f7757600080fd5b85356001604060020a03811115612f8d57600080fd5b612f9988828901612b01565b9550506020612faa88828901612ae9565b9450506040612fbb88828901612a2c565b9350506060612fcc88828901612ae9565b92505060808601356001604060020a03811115612fe857600080fd5b612ff488828901612b01565b9150509295509295909350565b60006020828403121561301357600080fd5b60006111fe8484612ae9565b6000806040838503121561303257600080fd5b6000612d888585612ae9565b613047816133d3565b82525050565b6000613058826133cf565b80845260208401935061306a836133c9565b60005b8281101561309a576130808683516130fd565b613089826133c9565b60409690960195915060010161306d565b5093949350505050565b613047816133df565b613047816133f1565b61304781610ecc565b613047816133fc565b60006130d3826133cf565b8084526130e7816020860160208601613413565b6130f08161343f565b9093016020019392505050565b8051604083019061310e848261303e565b506020820151611c5960208501826130b6565b60208101610b5c828461303e565b6040810161313d828561303e565b610b23602083018461303e565b60808101613158828761303e565b61316560208301866130b6565b613172604083018561303e565b61317f60608301846130bf565b95945050505050565b60808101613196828761303e565b6131a360208301866130b6565b6131b0604083018561303e565b61317f60608301846130b6565b60a081016131cb828861303e565b6131d860208301876130b6565b6131e5604083018661303e565b6131f260608301856130b6565b818103608083015261320481846130c8565b979650505050505050565b6040810161321d828561303e565b8181036020830152610b2081846130c8565b60c0810161323d828961303e565b818103602083015261324f81886130c8565b905061325e60408301876130b6565b61326b606083018661303e565b61327860808301856130b6565b81810360a083015261328a81846130c8565b98975050505050505050565b604081016132a4828561303e565b610b2360208301846130b6565b606081016132bf828661303e565b6132cc60208301856130b6565b6111fe60408301846130b6565b60208082528101610b23818461304d565b60208101610b5c82846130a4565b60208101610b5c82846130ad565b6040810161331482856130ad565b610b2360208301846130ad565b60208101610b5c82846130b6565b604081016132a482856130b6565b6080810161319682876130b6565b60208082528101610b2381846130c8565b6040518181016001604060020a038111828210171561337a57600080fd5b604052919050565b60006001604060020a0382111561339857600080fd5b5060209081020190565b60006001604060020a038211156133b857600080fd5b506020601f91909101601f19160190565b60200190565b5190565b600160a060020a031690565b151590565b600160e060020a03191690565b6000610b5c826133d3565b6000610b5c82610ecc565b82818337506000910152565b60005b8381101561342e578181015183820152602001613416565b83811115611c595750506000910152565b601f01601f19169056006d20076dccc9a1dd1722d0739c60065c999d4137e9683cbe4d752527539d9f74a265627a7a72305820bc8afc29e838bd4db48f3de5b769f497dcfd5f31d0d50a2f8310b2f262efa7356c6578706572696d656e74616cf50037",
  "source": "/*\n * Hubii Nahmii\n *\n * Compliant with the Hubii Nahmii specification v0.12.\n *\n * Copyright (C) 2017-2018 Hubii AS\n */\n\npragma solidity ^0.4.25;\npragma experimental ABIEncoderV2;\n\nimport {Ownable} from \"./Ownable.sol\";\nimport {AccrualBeneficiary} from \"./AccrualBeneficiary.sol\";\nimport {Servable} from \"./Servable.sol\";\nimport {TransferControllerManageable} from \"./TransferControllerManageable.sol\";\nimport {SafeMathIntLib} from \"./SafeMathIntLib.sol\";\nimport {SafeMathUintLib} from \"./SafeMathUintLib.sol\";\nimport {FungibleBalanceLib} from \"./FungibleBalanceLib.sol\";\nimport {TxHistoryLib} from \"./TxHistoryLib.sol\";\nimport {MonetaryTypesLib} from \"./MonetaryTypesLib.sol\";\nimport {CurrenciesLib} from \"./CurrenciesLib.sol\";\nimport {RevenueToken} from \"./RevenueToken.sol\";\nimport {RevenueTokenManager} from \"./RevenueTokenManager.sol\";\nimport {TransferController} from \"./TransferController.sol\";\nimport {Beneficiary} from \"./Beneficiary.sol\";\n\n/**\n * @title TokenHolderRevenueFund\n * @notice Fund that manages the revenue earned by revenue token holders.\n */\ncontract TokenHolderRevenueFund is Ownable, AccrualBeneficiary, Servable, TransferControllerManageable {\n    using SafeMathIntLib for int256;\n    using SafeMathUintLib for uint256;\n    using FungibleBalanceLib for FungibleBalanceLib.Balance;\n    using TxHistoryLib for TxHistoryLib.TxHistory;\n    using CurrenciesLib for CurrenciesLib.Currencies;\n\n    //\n    // Constants\n    // -----------------------------------------------------------------------------------------------------------------\n    string constant public CLOSE_ACCRUAL_PERIOD_ACTION = \"close_accrual_period\";\n\n    //\n    // Variables\n    // -----------------------------------------------------------------------------------------------------------------\n    RevenueTokenManager public revenueTokenManager;\n\n    FungibleBalanceLib.Balance private periodAccrual;\n    CurrenciesLib.Currencies private periodCurrencies;\n\n    FungibleBalanceLib.Balance private aggregateAccrual;\n    CurrenciesLib.Currencies private aggregateCurrencies;\n\n    TxHistoryLib.TxHistory private txHistory;\n\n    mapping(address => mapping(address => mapping(uint256 => uint256[]))) public claimedAccrualBlockNumbersByWalletCurrency;\n\n    mapping(address => mapping(uint256 => uint256[])) public accrualBlockNumbersByCurrency;\n    mapping(address => mapping(uint256 => mapping(uint256 => int256))) aggregateAccrualAmountByCurrencyBlockNumber;\n\n    mapping(address => FungibleBalanceLib.Balance) private stagedByWallet;\n\n    //\n    // Events\n    // -----------------------------------------------------------------------------------------------------------------\n    event SetRevenueTokenManagerEvent(RevenueTokenManager oldRevenueTokenManager,\n        RevenueTokenManager newRevenueTokenManager);\n    event ReceiveEvent(address wallet, int256 amount, address currencyCt,\n        uint256 currencyId);\n    event WithdrawEvent(address to, int256 amount, address currencyCt, uint256 currencyId);\n    event CloseAccrualPeriodEvent(int256 periodAmount, int256 aggregateAmount, address currencyCt,\n        uint256 currencyId);\n    event ClaimAndTransferToBeneficiaryEvent(address wallet, string balanceType, int256 amount,\n        address currencyCt, uint256 currencyId, string standard);\n    event ClaimAndTransferToBeneficiaryByProxyEvent(address wallet, string balanceType, int256 amount,\n        address currencyCt, uint256 currencyId, string standard);\n    event ClaimAndStageEvent(address from, int256 amount, address currencyCt, uint256 currencyId);\n    event WithdrawEvent(address from, int256 amount, address currencyCt, uint256 currencyId,\n        string standard);\n\n    //\n    // Constructor\n    // -----------------------------------------------------------------------------------------------------------------\n    constructor(address deployer) Ownable(deployer) public {\n    }\n\n    //\n    // Functions\n    // -----------------------------------------------------------------------------------------------------------------\n    /// @notice Set the revenue token manager contract\n    /// @param newRevenueTokenManager The (address of) RevenueTokenManager contract instance\n    function setRevenueTokenManager(RevenueTokenManager newRevenueTokenManager)\n    public\n    onlyDeployer\n    notNullAddress(newRevenueTokenManager)\n    {\n        if (newRevenueTokenManager != revenueTokenManager) {\n            // Set new revenue token\n            RevenueTokenManager oldRevenueTokenManager = revenueTokenManager;\n            revenueTokenManager = newRevenueTokenManager;\n\n            // Emit event\n            emit SetRevenueTokenManagerEvent(oldRevenueTokenManager, newRevenueTokenManager);\n        }\n    }\n\n    /// @notice Fallback function that deposits ethers\n    function() public payable {\n        receiveEthersTo(msg.sender, \"\");\n    }\n\n    /// @notice Receive ethers to\n    /// @param wallet The concerned wallet address\n    function receiveEthersTo(address wallet, string)\n    public\n    payable\n    {\n        int256 amount = SafeMathIntLib.toNonZeroInt256(msg.value);\n\n        // Add to balances\n        periodAccrual.add(amount, address(0), 0);\n        aggregateAccrual.add(amount, address(0), 0);\n\n        // Add currency to in-use lists\n        periodCurrencies.add(address(0), 0);\n        aggregateCurrencies.add(address(0), 0);\n\n        // Add to transaction history\n        txHistory.addDeposit(amount, address(0), 0);\n\n        // Emit event\n        emit ReceiveEvent(wallet, amount, address(0), 0);\n    }\n\n    /// @notice Receive tokens\n    /// @param amount The concerned amount\n    /// @param currencyCt The address of the concerned currency contract (address(0) == ETH)\n    /// @param currencyId The ID of the concerned currency (0 for ETH and ERC20)\n    /// @param standard The standard of token (\"ERC20\", \"ERC721\")\n    function receiveTokens(string, int256 amount, address currencyCt, uint256 currencyId,\n        string standard)\n    public\n    {\n        receiveTokensTo(msg.sender, \"\", amount, currencyCt, currencyId, standard);\n    }\n\n    /// @notice Receive tokens to\n    /// @param wallet The address of the concerned wallet\n    /// @param amount The concerned amount\n    /// @param currencyCt The address of the concerned currency contract (address(0) == ETH)\n    /// @param currencyId The ID of the concerned currency (0 for ETH and ERC20)\n    /// @param standard The standard of token (\"ERC20\", \"ERC721\")\n    function receiveTokensTo(address wallet, string, int256 amount, address currencyCt,\n        uint256 currencyId, string standard)\n    public\n    {\n        require(amount.isNonZeroPositiveInt256());\n\n        // Execute transfer\n        TransferController controller = transferController(currencyCt, standard);\n        require(\n            address(controller).delegatecall(\n                controller.getReceiveSignature(), msg.sender, this, uint256(amount), currencyCt, currencyId\n            )\n        );\n\n        // Add to balances\n        periodAccrual.add(amount, currencyCt, currencyId);\n        aggregateAccrual.add(amount, currencyCt, currencyId);\n\n        // Add currency to in-use lists\n        periodCurrencies.add(currencyCt, currencyId);\n        aggregateCurrencies.add(currencyCt, currencyId);\n\n        // Add to transaction history\n        txHistory.addDeposit(amount, currencyCt, currencyId);\n\n        // Emit event\n        emit ReceiveEvent(wallet, amount, currencyCt, currencyId);\n    }\n\n    /// @notice Get the period accrual balance of the given currency\n    /// @param currencyCt The address of the concerned currency contract (address(0) == ETH)\n    /// @param currencyId The ID of the concerned currency (0 for ETH and ERC20)\n    /// @return The current period's accrual balance\n    function periodAccrualBalance(address currencyCt, uint256 currencyId)\n    public\n    view\n    returns (int256)\n    {\n        return periodAccrual.get(currencyCt, currencyId);\n    }\n\n    /// @notice Get the aggregate accrual balance of the given currency, including contribution from the\n    /// current accrual period\n    /// @param currencyCt The address of the concerned currency contract (address(0) == ETH)\n    /// @param currencyId The ID of the concerned currency (0 for ETH and ERC20)\n    /// @return The aggregate accrual balance\n    function aggregateAccrualBalance(address currencyCt, uint256 currencyId)\n    public\n    view\n    returns (int256)\n    {\n        return aggregateAccrual.get(currencyCt, currencyId);\n    }\n\n    /// @notice Get the count of currencies recorded in the accrual period\n    /// @return The number of currencies in the current accrual period\n    function periodCurrenciesCount()\n    public\n    view\n    returns (uint256)\n    {\n        return periodCurrencies.count();\n    }\n\n    /// @notice Get the currencies with indices in the given range that have been recorded in the current accrual period\n    /// @param low The lower currency index\n    /// @param up The upper currency index\n    /// @return The currencies of the given index range in the current accrual period\n    function periodCurrenciesByIndices(uint256 low, uint256 up)\n    public\n    view\n    returns (MonetaryTypesLib.Currency[])\n    {\n        return periodCurrencies.getByIndices(low, up);\n    }\n\n    /// @notice Get the count of currencies ever recorded\n    /// @return The number of currencies ever recorded\n    function aggregateCurrenciesCount()\n    public\n    view\n    returns (uint256)\n    {\n        return aggregateCurrencies.count();\n    }\n\n    /// @notice Get the currencies with indices in the given range that have ever been recorded\n    /// @param low The lower currency index\n    /// @param up The upper currency index\n    /// @return The currencies of the given index range ever recorded\n    function aggregateCurrenciesByIndices(uint256 low, uint256 up)\n    public\n    view\n    returns (MonetaryTypesLib.Currency[])\n    {\n        return aggregateCurrencies.getByIndices(low, up);\n    }\n\n    /// @notice Get the count of deposits\n    /// @return The count of deposits\n    function depositsCount()\n    public\n    view\n    returns (uint256)\n    {\n        return txHistory.depositsCount();\n    }\n\n    /// @notice Get the deposit at the given index\n    /// @return The deposit at the given index\n    function deposit(uint index)\n    public\n    view\n    returns (int256 amount, uint256 blockNumber, address currencyCt, uint256 currencyId)\n    {\n        return txHistory.deposit(index);\n    }\n\n    /// @notice Get the staged balance of the given wallet and currency\n    /// @param wallet The address of the concerned wallet\n    /// @param currencyCt The address of the concerned currency contract (address(0) == ETH)\n    /// @param currencyId The ID of the concerned currency (0 for ETH and ERC20)\n    /// @return The staged balance\n    function stagedBalance(address wallet, address currencyCt, uint256 currencyId)\n    public\n    view\n    returns (int256)\n    {\n        return stagedByWallet[wallet].get(currencyCt, currencyId);\n    }\n\n    /// @notice Close the current accrual period of the given currencies\n    /// @param currencies The concerned currencies\n    function closeAccrualPeriod(MonetaryTypesLib.Currency[] currencies)\n    public\n    onlyEnabledServiceAction(CLOSE_ACCRUAL_PERIOD_ACTION)\n    {\n        // Clear period accrual stats\n        for (uint256 i = 0; i < currencies.length; i++) {\n            MonetaryTypesLib.Currency memory currency = currencies[i];\n\n            // Get the amount of the accrual period\n            int256 periodAmount = periodAccrual.get(currency.ct, currency.id);\n\n            // Register this block number as accrual block number of currency\n            accrualBlockNumbersByCurrency[currency.ct][currency.id].push(block.number);\n\n            // Store the aggregate accrual balance of currency at this block number\n            aggregateAccrualAmountByCurrencyBlockNumber[currency.ct][currency.id][block.number] = aggregateAccrualBalance(\n                currency.ct, currency.id\n            );\n\n            if (periodAmount > 0) {\n                // Reset period accrual of currency\n                periodAccrual.set(0, currency.ct, currency.id);\n\n                // Remove currency from period in-use list\n                periodCurrencies.removeByCurrency(currency.ct, currency.id);\n            }\n\n            // Emit event\n            emit CloseAccrualPeriodEvent(\n                periodAmount,\n                aggregateAccrualAmountByCurrencyBlockNumber[currency.ct][currency.id][block.number],\n                currency.ct, currency.id\n            );\n        }\n    }\n\n    /// @notice Claim accrual and transfer to beneficiary\n    /// @param beneficiary The concerned beneficiary\n    /// @param destWallet The concerned destination wallet of the transfer\n    /// @param balanceType The target balance type\n    /// @param currencyCt The address of the concerned currency contract (address(0) == ETH)\n    /// @param currencyId The ID of the concerned currency (0 for ETH and ERC20)\n    /// @param standard The standard of the token (\"\" for default registered, \"ERC20\", \"ERC721\")\n    function claimAndTransferToBeneficiary(Beneficiary beneficiary, address destWallet, string balanceType,\n        address currencyCt, uint256 currencyId, string standard)\n    public\n    {\n        // Claim accrual and obtain the claimed amount\n        int256 claimedAmount = _claim(msg.sender, currencyCt, currencyId);\n\n        // Transfer ETH to the beneficiary\n        if (address(0) == currencyCt && 0 == currencyId)\n            beneficiary.receiveEthersTo.value(uint256(claimedAmount))(destWallet, balanceType);\n\n        else {\n            // Approve of beneficiary\n            TransferController controller = transferController(currencyCt, standard);\n            require(\n                address(controller).delegatecall(\n                    controller.getApproveSignature(), beneficiary, uint256(claimedAmount), currencyCt, currencyId\n                )\n            );\n\n            // Transfer tokens to the beneficiary\n            beneficiary.receiveTokensTo(destWallet, balanceType, claimedAmount, currencyCt, currencyId, standard);\n        }\n\n        // Emit event\n        emit ClaimAndTransferToBeneficiaryEvent(msg.sender, balanceType, claimedAmount, currencyCt, currencyId, standard);\n    }\n\n    /// @notice Claim accrual and stage for later withdrawal\n    /// @param currencyCt The address of the concerned currency contract (address(0) == ETH)\n    /// @param currencyId The ID of the concerned currency (0 for ETH and ERC20)\n    function claimAndStage(address currencyCt, uint256 currencyId)\n    public\n    {\n        // Claim accrual and obtain the claimed amount\n        int256 claimedAmount = _claim(msg.sender, currencyCt, currencyId);\n\n        // Update staged balance\n        stagedByWallet[msg.sender].add(claimedAmount, currencyCt, currencyId);\n\n        // Emit event\n        emit ClaimAndStageEvent(msg.sender, claimedAmount, currencyCt, currencyId);\n    }\n\n    /// @notice Withdraw from staged balance of msg.sender\n    /// @param amount The concerned amount\n    /// @param currencyCt The address of the concerned currency contract (address(0) == ETH)\n    /// @param currencyId The ID of the concerned currency (0 for ETH and ERC20)\n    /// @param standard The standard of the token (\"\" for default registered, \"ERC20\", \"ERC721\")\n    function withdraw(int256 amount, address currencyCt, uint256 currencyId, string standard)\n    public\n    {\n        // Require that amount is strictly positive\n        require(amount.isNonZeroPositiveInt256());\n\n        // Clamp amount to the max given by staged balance\n        amount = amount.clampMax(stagedByWallet[msg.sender].get(currencyCt, currencyId));\n\n        // Subtract to per-wallet staged balance\n        stagedByWallet[msg.sender].sub(amount, currencyCt, currencyId);\n\n        // Execute transfer\n        if (address(0) == currencyCt && 0 == currencyId)\n            msg.sender.transfer(uint256(amount));\n\n        else {\n            TransferController controller = transferController(currencyCt, standard);\n            require(\n                address(controller).delegatecall(\n                    controller.getDispatchSignature(), this, msg.sender, uint256(amount), currencyCt, currencyId\n                )\n            );\n        }\n\n        // Emit event\n        emit WithdrawEvent(msg.sender, amount, currencyCt, currencyId, standard);\n    }\n\n    //\n    // Private functions\n    // -----------------------------------------------------------------------------------------------------------------\n    function _claim(address wallet, address currencyCt, uint256 currencyId)\n    private\n    returns (int256)\n    {\n        // Require that at least one accrual period has terminated\n        require(0 < accrualBlockNumbersByCurrency[currencyCt][currencyId].length);\n\n        // Calculate lower block number as last accrual block number claimed for currency c by wallet OR 0\n        uint256[] storage claimedAccrualBlockNumbers = claimedAccrualBlockNumbersByWalletCurrency[wallet][currencyCt][currencyId];\n        uint256 bnLow = (0 == claimedAccrualBlockNumbers.length ? 0 : claimedAccrualBlockNumbers[claimedAccrualBlockNumbers.length - 1]);\n\n        // Set upper block number as last accrual block number\n        uint256 bnUp = accrualBlockNumbersByCurrency[currencyCt][currencyId][accrualBlockNumbersByCurrency[currencyCt][currencyId].length - 1];\n\n        // Require that lower block number is below upper block number\n        require(bnLow < bnUp);\n\n        // Calculate the amount that is claimable in the span between lower and upper block numbers\n        int256 claimableAmount = aggregateAccrualAmountByCurrencyBlockNumber[currencyCt][currencyId][bnUp]\n        - (0 == bnLow ? 0 : aggregateAccrualAmountByCurrencyBlockNumber[currencyCt][currencyId][bnLow]);\n\n        // Require that claimable amount is strictly positive\n        require(0 < claimableAmount);\n\n        // Retrieve the balance blocks of wallet\n        int256 walletBalanceBlocks = int256(\n            RevenueToken(revenueTokenManager.token()).balanceBlocksIn(wallet, bnLow, bnUp)\n        );\n\n        // Retrieve the released amount blocks\n        int256 releasedAmountBlocks = int256(\n            revenueTokenManager.releasedAmountBlocksIn(bnLow, bnUp)\n        );\n\n        // Calculate the claimed amount\n        int256 claimedAmount = walletBalanceBlocks.mul_nn(claimableAmount).mul_nn(1e18).div_nn(releasedAmountBlocks.mul_nn(1e18));\n\n        // Store upper bound as the last claimed accrual block number for currency\n        claimedAccrualBlockNumbers.push(bnUp);\n\n        // Return the claimed amount\n        return claimedAmount;\n    }\n\n    function _transferToBeneficiary(Beneficiary beneficiary, address destWallet, string balanceType,\n        int256 amount, address currencyCt, uint256 currencyId, string standard)\n    private\n    {\n        // Transfer ETH to the beneficiary\n        if (address(0) == currencyCt && 0 == currencyId)\n            beneficiary.receiveEthersTo.value(uint256(amount))(destWallet, balanceType);\n\n        else {\n            // Approve of beneficiary\n            TransferController controller = transferController(currencyCt, standard);\n            require(\n                address(controller).delegatecall(\n                    controller.getApproveSignature(), beneficiary, uint256(amount), currencyCt, currencyId\n                )\n            );\n\n            // Transfer tokens to the beneficiary\n            beneficiary.receiveTokensTo(destWallet, balanceType, amount, currencyCt, currencyId, standard);\n        }\n    }\n}\n",
  "sourcePath": "/opt/buildagent/work/855e104608380c36/contracts/TokenHolderRevenueFund.sol",
  "compiler": {
    "name": "solc",
    "version": "0.4.25+commit.59dbf8f1.Emscripten.clang"
  },
  "schemaVersion": "2.0.1",
  "updatedAt": "2019-01-31T11:28:30.009Z"
}