{
  "contractName": "TradeTypesLib",
  "abi": [
    {
      "constant": true,
      "inputs": [],
      "name": "TRADE_KIND",
      "outputs": [
        {
          "name": "",
          "type": "string"
        }
      ],
      "payable": false,
      "stateMutability": "pure",
      "type": "function"
    },
    {
      "constant": true,
      "inputs": [],
      "name": "ORDER_KIND",
      "outputs": [
        {
          "name": "",
          "type": "string"
        }
      ],
      "payable": false,
      "stateMutability": "pure",
      "type": "function"
    }
  ],
  "bytecode": "0x610143610030600b82828239805160001a6073146000811461002057610022565bfe5b5030600052607381538281f30073000000000000000000000000000000000000000030146080604052600436106100495763ffffffff60e060020a60003504166332575cb6811461004e578063af75a2f7146100cb575b600080fd5b6100566100d3565b6040805160208082528351818301528351919283929083019185019080838360005b83811015610090578181015183820152602001610078565b50505050905090810190601f1680156100bd5780820380516001836020036101000a031916815260200191505b509250505060405180910390f35b6100566100f5565b604080518082019091526005815260d860020a64747261646502602082015290565b604080518082019091526005815260d960020a6437b93232b9026020820152905600a165627a7a7230582005ad2a7a69872b19ad16bf543f1b2faa409ddb60135d405a10d17285566f33220029",
  "source": "/*\n * Hubii Nahmii\n *\n * Compliant with the Hubii Nahmii specification v0.12.\n *\n * Copyright (C) 2017-2018 Hubii AS\n */\n\npragma solidity ^0.4.25;\n\nimport {MonetaryTypesLib} from \"./MonetaryTypesLib.sol\";\nimport {NahmiiTypesLib} from \"./NahmiiTypesLib.sol\";\n\n/**\n * @title     TradeTypesLib\n * @dev       Data types centered around trade\n */\nlibrary TradeTypesLib {\n    //\n    // Enums\n    // -----------------------------------------------------------------------------------------------------------------\n    enum CurrencyRole {Intended, Conjugate}\n    enum LiquidityRole {Maker, Taker}\n    enum Intention {Buy, Sell}\n    enum TradePartyRole {Buyer, Seller}\n\n    //\n    // Structures\n    // -----------------------------------------------------------------------------------------------------------------\n    struct OrderPlacement {\n        Intention intention;\n\n        int256 amount;\n        NahmiiTypesLib.IntendedConjugateCurrency currencies;\n        int256 rate;\n\n        NahmiiTypesLib.CurrentPreviousInt256 residuals;\n    }\n\n    struct Order {\n        uint256 nonce;\n        address wallet;\n\n        OrderPlacement placement;\n\n        NahmiiTypesLib.WalletOperatorSeal seals;\n        uint256 blockNumber;\n        uint256 operatorId;\n    }\n\n    struct TradeOrder {\n        int256 amount;\n        NahmiiTypesLib.WalletOperatorHashes hashes;\n        NahmiiTypesLib.CurrentPreviousInt256 residuals;\n    }\n\n    struct TradeParty {\n        uint256 nonce;\n        address wallet;\n\n        uint256 rollingVolume;\n\n        LiquidityRole liquidityRole;\n\n        TradeOrder order;\n\n        NahmiiTypesLib.IntendedConjugateCurrentPreviousInt256 balances;\n\n        NahmiiTypesLib.SingleFigureTotalOriginFigures fees;\n    }\n\n    struct Trade {\n        uint256 nonce;\n\n        int256 amount;\n        NahmiiTypesLib.IntendedConjugateCurrency currencies;\n        int256 rate;\n\n        TradeParty buyer;\n        TradeParty seller;\n\n        // Positive intended transfer is always in direction from seller to buyer\n        // Positive conjugate transfer is always in direction from buyer to seller\n        NahmiiTypesLib.IntendedConjugateSingleTotalInt256 transfers;\n\n        NahmiiTypesLib.Seal seal;\n        uint256 blockNumber;\n        uint256 operatorId;\n    }\n\n    //\n    // Functions\n    // -----------------------------------------------------------------------------------------------------------------\n    function TRADE_KIND()\n    public\n    pure\n    returns (string)\n    {\n        return \"trade\";\n    }\n\n    function ORDER_KIND()\n    public\n    pure\n    returns (string)\n    {\n        return \"order\";\n    }\n}",
  "sourcePath": "/opt/buildagent/work/855e104608380c36/contracts/TradeTypesLib.sol",
  "compiler": {
    "name": "solc",
    "version": "0.4.25+commit.59dbf8f1.Emscripten.clang"
  },
  "schemaVersion": "2.0.2",
  "updatedAt": "2019-04-02T08:24:32.419Z"
}