{
  "contractName": "TradeHasher",
  "abi": [
    {
      "constant": false,
      "inputs": [],
      "name": "triggerSelfDestruction",
      "outputs": [],
      "payable": false,
      "stateMutability": "nonpayable",
      "type": "function"
    },
    {
      "constant": true,
      "inputs": [],
      "name": "selfDestructionDisabled",
      "outputs": [
        {
          "name": "",
          "type": "bool"
        }
      ],
      "payable": false,
      "stateMutability": "view",
      "type": "function"
    },
    {
      "constant": true,
      "inputs": [],
      "name": "destructor",
      "outputs": [
        {
          "name": "",
          "type": "address"
        }
      ],
      "payable": false,
      "stateMutability": "view",
      "type": "function"
    },
    {
      "constant": true,
      "inputs": [],
      "name": "operator",
      "outputs": [
        {
          "name": "",
          "type": "address"
        }
      ],
      "payable": false,
      "stateMutability": "view",
      "type": "function"
    },
    {
      "constant": false,
      "inputs": [],
      "name": "disableSelfDestruction",
      "outputs": [],
      "payable": false,
      "stateMutability": "nonpayable",
      "type": "function"
    },
    {
      "constant": false,
      "inputs": [
        {
          "name": "newDeployer",
          "type": "address"
        }
      ],
      "name": "setDeployer",
      "outputs": [],
      "payable": false,
      "stateMutability": "nonpayable",
      "type": "function"
    },
    {
      "constant": false,
      "inputs": [
        {
          "name": "newOperator",
          "type": "address"
        }
      ],
      "name": "setOperator",
      "outputs": [],
      "payable": false,
      "stateMutability": "nonpayable",
      "type": "function"
    },
    {
      "constant": true,
      "inputs": [],
      "name": "deployer",
      "outputs": [
        {
          "name": "",
          "type": "address"
        }
      ],
      "payable": false,
      "stateMutability": "view",
      "type": "function"
    },
    {
      "inputs": [
        {
          "name": "deployer",
          "type": "address"
        }
      ],
      "payable": false,
      "stateMutability": "nonpayable",
      "type": "constructor"
    },
    {
      "anonymous": false,
      "inputs": [
        {
          "indexed": false,
          "name": "oldDeployer",
          "type": "address"
        },
        {
          "indexed": false,
          "name": "newDeployer",
          "type": "address"
        }
      ],
      "name": "SetDeployerEvent",
      "type": "event"
    },
    {
      "anonymous": false,
      "inputs": [
        {
          "indexed": false,
          "name": "oldOperator",
          "type": "address"
        },
        {
          "indexed": false,
          "name": "newOperator",
          "type": "address"
        }
      ],
      "name": "SetOperatorEvent",
      "type": "event"
    },
    {
      "anonymous": false,
      "inputs": [
        {
          "indexed": false,
          "name": "wallet",
          "type": "address"
        }
      ],
      "name": "SelfDestructionDisabledEvent",
      "type": "event"
    },
    {
      "anonymous": false,
      "inputs": [
        {
          "indexed": false,
          "name": "wallet",
          "type": "address"
        }
      ],
      "name": "TriggerSelfDestructionEvent",
      "type": "event"
    },
    {
      "constant": true,
      "inputs": [
        {
          "components": [
            {
              "name": "nonce",
              "type": "uint256"
            },
            {
              "name": "wallet",
              "type": "address"
            },
            {
              "components": [
                {
                  "name": "intention",
                  "type": "uint8"
                },
                {
                  "name": "amount",
                  "type": "int256"
                },
                {
                  "components": [
                    {
                      "components": [
                        {
                          "name": "ct",
                          "type": "address"
                        },
                        {
                          "name": "id",
                          "type": "uint256"
                        }
                      ],
                      "name": "intended",
                      "type": "tuple"
                    },
                    {
                      "components": [
                        {
                          "name": "ct",
                          "type": "address"
                        },
                        {
                          "name": "id",
                          "type": "uint256"
                        }
                      ],
                      "name": "conjugate",
                      "type": "tuple"
                    }
                  ],
                  "name": "currencies",
                  "type": "tuple"
                },
                {
                  "name": "rate",
                  "type": "int256"
                },
                {
                  "components": [
                    {
                      "name": "current",
                      "type": "int256"
                    },
                    {
                      "name": "previous",
                      "type": "int256"
                    }
                  ],
                  "name": "residuals",
                  "type": "tuple"
                }
              ],
              "name": "placement",
              "type": "tuple"
            },
            {
              "components": [
                {
                  "components": [
                    {
                      "name": "hash",
                      "type": "bytes32"
                    },
                    {
                      "components": [
                        {
                          "name": "r",
                          "type": "bytes32"
                        },
                        {
                          "name": "s",
                          "type": "bytes32"
                        },
                        {
                          "name": "v",
                          "type": "uint8"
                        }
                      ],
                      "name": "signature",
                      "type": "tuple"
                    }
                  ],
                  "name": "wallet",
                  "type": "tuple"
                },
                {
                  "components": [
                    {
                      "name": "hash",
                      "type": "bytes32"
                    },
                    {
                      "components": [
                        {
                          "name": "r",
                          "type": "bytes32"
                        },
                        {
                          "name": "s",
                          "type": "bytes32"
                        },
                        {
                          "name": "v",
                          "type": "uint8"
                        }
                      ],
                      "name": "signature",
                      "type": "tuple"
                    }
                  ],
                  "name": "operator",
                  "type": "tuple"
                }
              ],
              "name": "seals",
              "type": "tuple"
            },
            {
              "name": "blockNumber",
              "type": "uint256"
            },
            {
              "name": "operatorId",
              "type": "uint256"
            }
          ],
          "name": "order",
          "type": "tuple"
        }
      ],
      "name": "hashOrderAsWallet",
      "outputs": [
        {
          "name": "",
          "type": "bytes32"
        }
      ],
      "payable": false,
      "stateMutability": "pure",
      "type": "function"
    },
    {
      "constant": true,
      "inputs": [
        {
          "components": [
            {
              "name": "nonce",
              "type": "uint256"
            },
            {
              "name": "wallet",
              "type": "address"
            },
            {
              "components": [
                {
                  "name": "intention",
                  "type": "uint8"
                },
                {
                  "name": "amount",
                  "type": "int256"
                },
                {
                  "components": [
                    {
                      "components": [
                        {
                          "name": "ct",
                          "type": "address"
                        },
                        {
                          "name": "id",
                          "type": "uint256"
                        }
                      ],
                      "name": "intended",
                      "type": "tuple"
                    },
                    {
                      "components": [
                        {
                          "name": "ct",
                          "type": "address"
                        },
                        {
                          "name": "id",
                          "type": "uint256"
                        }
                      ],
                      "name": "conjugate",
                      "type": "tuple"
                    }
                  ],
                  "name": "currencies",
                  "type": "tuple"
                },
                {
                  "name": "rate",
                  "type": "int256"
                },
                {
                  "components": [
                    {
                      "name": "current",
                      "type": "int256"
                    },
                    {
                      "name": "previous",
                      "type": "int256"
                    }
                  ],
                  "name": "residuals",
                  "type": "tuple"
                }
              ],
              "name": "placement",
              "type": "tuple"
            },
            {
              "components": [
                {
                  "components": [
                    {
                      "name": "hash",
                      "type": "bytes32"
                    },
                    {
                      "components": [
                        {
                          "name": "r",
                          "type": "bytes32"
                        },
                        {
                          "name": "s",
                          "type": "bytes32"
                        },
                        {
                          "name": "v",
                          "type": "uint8"
                        }
                      ],
                      "name": "signature",
                      "type": "tuple"
                    }
                  ],
                  "name": "wallet",
                  "type": "tuple"
                },
                {
                  "components": [
                    {
                      "name": "hash",
                      "type": "bytes32"
                    },
                    {
                      "components": [
                        {
                          "name": "r",
                          "type": "bytes32"
                        },
                        {
                          "name": "s",
                          "type": "bytes32"
                        },
                        {
                          "name": "v",
                          "type": "uint8"
                        }
                      ],
                      "name": "signature",
                      "type": "tuple"
                    }
                  ],
                  "name": "operator",
                  "type": "tuple"
                }
              ],
              "name": "seals",
              "type": "tuple"
            },
            {
              "name": "blockNumber",
              "type": "uint256"
            },
            {
              "name": "operatorId",
              "type": "uint256"
            }
          ],
          "name": "order",
          "type": "tuple"
        }
      ],
      "name": "hashOrderAsOperator",
      "outputs": [
        {
          "name": "",
          "type": "bytes32"
        }
      ],
      "payable": false,
      "stateMutability": "pure",
      "type": "function"
    },
    {
      "constant": true,
      "inputs": [
        {
          "components": [
            {
              "name": "nonce",
              "type": "uint256"
            },
            {
              "name": "amount",
              "type": "int256"
            },
            {
              "components": [
                {
                  "components": [
                    {
                      "name": "ct",
                      "type": "address"
                    },
                    {
                      "name": "id",
                      "type": "uint256"
                    }
                  ],
                  "name": "intended",
                  "type": "tuple"
                },
                {
                  "components": [
                    {
                      "name": "ct",
                      "type": "address"
                    },
                    {
                      "name": "id",
                      "type": "uint256"
                    }
                  ],
                  "name": "conjugate",
                  "type": "tuple"
                }
              ],
              "name": "currencies",
              "type": "tuple"
            },
            {
              "name": "rate",
              "type": "int256"
            },
            {
              "components": [
                {
                  "name": "nonce",
                  "type": "uint256"
                },
                {
                  "name": "wallet",
                  "type": "address"
                },
                {
                  "name": "rollingVolume",
                  "type": "uint256"
                },
                {
                  "name": "liquidityRole",
                  "type": "uint8"
                },
                {
                  "components": [
                    {
                      "name": "amount",
                      "type": "int256"
                    },
                    {
                      "components": [
                        {
                          "name": "wallet",
                          "type": "bytes32"
                        },
                        {
                          "name": "operator",
                          "type": "bytes32"
                        }
                      ],
                      "name": "hashes",
                      "type": "tuple"
                    },
                    {
                      "components": [
                        {
                          "name": "current",
                          "type": "int256"
                        },
                        {
                          "name": "previous",
                          "type": "int256"
                        }
                      ],
                      "name": "residuals",
                      "type": "tuple"
                    }
                  ],
                  "name": "order",
                  "type": "tuple"
                },
                {
                  "components": [
                    {
                      "components": [
                        {
                          "name": "current",
                          "type": "int256"
                        },
                        {
                          "name": "previous",
                          "type": "int256"
                        }
                      ],
                      "name": "intended",
                      "type": "tuple"
                    },
                    {
                      "components": [
                        {
                          "name": "current",
                          "type": "int256"
                        },
                        {
                          "name": "previous",
                          "type": "int256"
                        }
                      ],
                      "name": "conjugate",
                      "type": "tuple"
                    }
                  ],
                  "name": "balances",
                  "type": "tuple"
                },
                {
                  "components": [
                    {
                      "components": [
                        {
                          "name": "amount",
                          "type": "int256"
                        },
                        {
                          "components": [
                            {
                              "name": "ct",
                              "type": "address"
                            },
                            {
                              "name": "id",
                              "type": "uint256"
                            }
                          ],
                          "name": "currency",
                          "type": "tuple"
                        }
                      ],
                      "name": "single",
                      "type": "tuple"
                    },
                    {
                      "components": [
                        {
                          "name": "originId",
                          "type": "uint256"
                        },
                        {
                          "components": [
                            {
                              "name": "amount",
                              "type": "int256"
                            },
                            {
                              "components": [
                                {
                                  "name": "ct",
                                  "type": "address"
                                },
                                {
                                  "name": "id",
                                  "type": "uint256"
                                }
                              ],
                              "name": "currency",
                              "type": "tuple"
                            }
                          ],
                          "name": "figure",
                          "type": "tuple"
                        }
                      ],
                      "name": "total",
                      "type": "tuple[]"
                    }
                  ],
                  "name": "fees",
                  "type": "tuple"
                }
              ],
              "name": "buyer",
              "type": "tuple"
            },
            {
              "components": [
                {
                  "name": "nonce",
                  "type": "uint256"
                },
                {
                  "name": "wallet",
                  "type": "address"
                },
                {
                  "name": "rollingVolume",
                  "type": "uint256"
                },
                {
                  "name": "liquidityRole",
                  "type": "uint8"
                },
                {
                  "components": [
                    {
                      "name": "amount",
                      "type": "int256"
                    },
                    {
                      "components": [
                        {
                          "name": "wallet",
                          "type": "bytes32"
                        },
                        {
                          "name": "operator",
                          "type": "bytes32"
                        }
                      ],
                      "name": "hashes",
                      "type": "tuple"
                    },
                    {
                      "components": [
                        {
                          "name": "current",
                          "type": "int256"
                        },
                        {
                          "name": "previous",
                          "type": "int256"
                        }
                      ],
                      "name": "residuals",
                      "type": "tuple"
                    }
                  ],
                  "name": "order",
                  "type": "tuple"
                },
                {
                  "components": [
                    {
                      "components": [
                        {
                          "name": "current",
                          "type": "int256"
                        },
                        {
                          "name": "previous",
                          "type": "int256"
                        }
                      ],
                      "name": "intended",
                      "type": "tuple"
                    },
                    {
                      "components": [
                        {
                          "name": "current",
                          "type": "int256"
                        },
                        {
                          "name": "previous",
                          "type": "int256"
                        }
                      ],
                      "name": "conjugate",
                      "type": "tuple"
                    }
                  ],
                  "name": "balances",
                  "type": "tuple"
                },
                {
                  "components": [
                    {
                      "components": [
                        {
                          "name": "amount",
                          "type": "int256"
                        },
                        {
                          "components": [
                            {
                              "name": "ct",
                              "type": "address"
                            },
                            {
                              "name": "id",
                              "type": "uint256"
                            }
                          ],
                          "name": "currency",
                          "type": "tuple"
                        }
                      ],
                      "name": "single",
                      "type": "tuple"
                    },
                    {
                      "components": [
                        {
                          "name": "originId",
                          "type": "uint256"
                        },
                        {
                          "components": [
                            {
                              "name": "amount",
                              "type": "int256"
                            },
                            {
                              "components": [
                                {
                                  "name": "ct",
                                  "type": "address"
                                },
                                {
                                  "name": "id",
                                  "type": "uint256"
                                }
                              ],
                              "name": "currency",
                              "type": "tuple"
                            }
                          ],
                          "name": "figure",
                          "type": "tuple"
                        }
                      ],
                      "name": "total",
                      "type": "tuple[]"
                    }
                  ],
                  "name": "fees",
                  "type": "tuple"
                }
              ],
              "name": "seller",
              "type": "tuple"
            },
            {
              "components": [
                {
                  "components": [
                    {
                      "name": "single",
                      "type": "int256"
                    },
                    {
                      "name": "total",
                      "type": "int256"
                    }
                  ],
                  "name": "intended",
                  "type": "tuple"
                },
                {
                  "components": [
                    {
                      "name": "single",
                      "type": "int256"
                    },
                    {
                      "name": "total",
                      "type": "int256"
                    }
                  ],
                  "name": "conjugate",
                  "type": "tuple"
                }
              ],
              "name": "transfers",
              "type": "tuple"
            },
            {
              "components": [
                {
                  "name": "hash",
                  "type": "bytes32"
                },
                {
                  "components": [
                    {
                      "name": "r",
                      "type": "bytes32"
                    },
                    {
                      "name": "s",
                      "type": "bytes32"
                    },
                    {
                      "name": "v",
                      "type": "uint8"
                    }
                  ],
                  "name": "signature",
                  "type": "tuple"
                }
              ],
              "name": "seal",
              "type": "tuple"
            },
            {
              "name": "blockNumber",
              "type": "uint256"
            },
            {
              "name": "operatorId",
              "type": "uint256"
            }
          ],
          "name": "trade",
          "type": "tuple"
        }
      ],
      "name": "hashTrade",
      "outputs": [
        {
          "name": "",
          "type": "bytes32"
        }
      ],
      "payable": false,
      "stateMutability": "pure",
      "type": "function"
    },
    {
      "constant": true,
      "inputs": [
        {
          "components": [
            {
              "name": "intention",
              "type": "uint8"
            },
            {
              "name": "amount",
              "type": "int256"
            },
            {
              "components": [
                {
                  "components": [
                    {
                      "name": "ct",
                      "type": "address"
                    },
                    {
                      "name": "id",
                      "type": "uint256"
                    }
                  ],
                  "name": "intended",
                  "type": "tuple"
                },
                {
                  "components": [
                    {
                      "name": "ct",
                      "type": "address"
                    },
                    {
                      "name": "id",
                      "type": "uint256"
                    }
                  ],
                  "name": "conjugate",
                  "type": "tuple"
                }
              ],
              "name": "currencies",
              "type": "tuple"
            },
            {
              "name": "rate",
              "type": "int256"
            },
            {
              "components": [
                {
                  "name": "current",
                  "type": "int256"
                },
                {
                  "name": "previous",
                  "type": "int256"
                }
              ],
              "name": "residuals",
              "type": "tuple"
            }
          ],
          "name": "orderPlacement",
          "type": "tuple"
        }
      ],
      "name": "hashOrderPlacement",
      "outputs": [
        {
          "name": "",
          "type": "bytes32"
        }
      ],
      "payable": false,
      "stateMutability": "pure",
      "type": "function"
    },
    {
      "constant": true,
      "inputs": [
        {
          "components": [
            {
              "name": "nonce",
              "type": "uint256"
            },
            {
              "name": "amount",
              "type": "int256"
            },
            {
              "components": [
                {
                  "components": [
                    {
                      "name": "ct",
                      "type": "address"
                    },
                    {
                      "name": "id",
                      "type": "uint256"
                    }
                  ],
                  "name": "intended",
                  "type": "tuple"
                },
                {
                  "components": [
                    {
                      "name": "ct",
                      "type": "address"
                    },
                    {
                      "name": "id",
                      "type": "uint256"
                    }
                  ],
                  "name": "conjugate",
                  "type": "tuple"
                }
              ],
              "name": "currencies",
              "type": "tuple"
            },
            {
              "name": "rate",
              "type": "int256"
            },
            {
              "components": [
                {
                  "name": "nonce",
                  "type": "uint256"
                },
                {
                  "name": "wallet",
                  "type": "address"
                },
                {
                  "name": "rollingVolume",
                  "type": "uint256"
                },
                {
                  "name": "liquidityRole",
                  "type": "uint8"
                },
                {
                  "components": [
                    {
                      "name": "amount",
                      "type": "int256"
                    },
                    {
                      "components": [
                        {
                          "name": "wallet",
                          "type": "bytes32"
                        },
                        {
                          "name": "operator",
                          "type": "bytes32"
                        }
                      ],
                      "name": "hashes",
                      "type": "tuple"
                    },
                    {
                      "components": [
                        {
                          "name": "current",
                          "type": "int256"
                        },
                        {
                          "name": "previous",
                          "type": "int256"
                        }
                      ],
                      "name": "residuals",
                      "type": "tuple"
                    }
                  ],
                  "name": "order",
                  "type": "tuple"
                },
                {
                  "components": [
                    {
                      "components": [
                        {
                          "name": "current",
                          "type": "int256"
                        },
                        {
                          "name": "previous",
                          "type": "int256"
                        }
                      ],
                      "name": "intended",
                      "type": "tuple"
                    },
                    {
                      "components": [
                        {
                          "name": "current",
                          "type": "int256"
                        },
                        {
                          "name": "previous",
                          "type": "int256"
                        }
                      ],
                      "name": "conjugate",
                      "type": "tuple"
                    }
                  ],
                  "name": "balances",
                  "type": "tuple"
                },
                {
                  "components": [
                    {
                      "components": [
                        {
                          "name": "amount",
                          "type": "int256"
                        },
                        {
                          "components": [
                            {
                              "name": "ct",
                              "type": "address"
                            },
                            {
                              "name": "id",
                              "type": "uint256"
                            }
                          ],
                          "name": "currency",
                          "type": "tuple"
                        }
                      ],
                      "name": "single",
                      "type": "tuple"
                    },
                    {
                      "components": [
                        {
                          "name": "originId",
                          "type": "uint256"
                        },
                        {
                          "components": [
                            {
                              "name": "amount",
                              "type": "int256"
                            },
                            {
                              "components": [
                                {
                                  "name": "ct",
                                  "type": "address"
                                },
                                {
                                  "name": "id",
                                  "type": "uint256"
                                }
                              ],
                              "name": "currency",
                              "type": "tuple"
                            }
                          ],
                          "name": "figure",
                          "type": "tuple"
                        }
                      ],
                      "name": "total",
                      "type": "tuple[]"
                    }
                  ],
                  "name": "fees",
                  "type": "tuple"
                }
              ],
              "name": "buyer",
              "type": "tuple"
            },
            {
              "components": [
                {
                  "name": "nonce",
                  "type": "uint256"
                },
                {
                  "name": "wallet",
                  "type": "address"
                },
                {
                  "name": "rollingVolume",
                  "type": "uint256"
                },
                {
                  "name": "liquidityRole",
                  "type": "uint8"
                },
                {
                  "components": [
                    {
                      "name": "amount",
                      "type": "int256"
                    },
                    {
                      "components": [
                        {
                          "name": "wallet",
                          "type": "bytes32"
                        },
                        {
                          "name": "operator",
                          "type": "bytes32"
                        }
                      ],
                      "name": "hashes",
                      "type": "tuple"
                    },
                    {
                      "components": [
                        {
                          "name": "current",
                          "type": "int256"
                        },
                        {
                          "name": "previous",
                          "type": "int256"
                        }
                      ],
                      "name": "residuals",
                      "type": "tuple"
                    }
                  ],
                  "name": "order",
                  "type": "tuple"
                },
                {
                  "components": [
                    {
                      "components": [
                        {
                          "name": "current",
                          "type": "int256"
                        },
                        {
                          "name": "previous",
                          "type": "int256"
                        }
                      ],
                      "name": "intended",
                      "type": "tuple"
                    },
                    {
                      "components": [
                        {
                          "name": "current",
                          "type": "int256"
                        },
                        {
                          "name": "previous",
                          "type": "int256"
                        }
                      ],
                      "name": "conjugate",
                      "type": "tuple"
                    }
                  ],
                  "name": "balances",
                  "type": "tuple"
                },
                {
                  "components": [
                    {
                      "components": [
                        {
                          "name": "amount",
                          "type": "int256"
                        },
                        {
                          "components": [
                            {
                              "name": "ct",
                              "type": "address"
                            },
                            {
                              "name": "id",
                              "type": "uint256"
                            }
                          ],
                          "name": "currency",
                          "type": "tuple"
                        }
                      ],
                      "name": "single",
                      "type": "tuple"
                    },
                    {
                      "components": [
                        {
                          "name": "originId",
                          "type": "uint256"
                        },
                        {
                          "components": [
                            {
                              "name": "amount",
                              "type": "int256"
                            },
                            {
                              "components": [
                                {
                                  "name": "ct",
                                  "type": "address"
                                },
                                {
                                  "name": "id",
                                  "type": "uint256"
                                }
                              ],
                              "name": "currency",
                              "type": "tuple"
                            }
                          ],
                          "name": "figure",
                          "type": "tuple"
                        }
                      ],
                      "name": "total",
                      "type": "tuple[]"
                    }
                  ],
                  "name": "fees",
                  "type": "tuple"
                }
              ],
              "name": "seller",
              "type": "tuple"
            },
            {
              "components": [
                {
                  "components": [
                    {
                      "name": "single",
                      "type": "int256"
                    },
                    {
                      "name": "total",
                      "type": "int256"
                    }
                  ],
                  "name": "intended",
                  "type": "tuple"
                },
                {
                  "components": [
                    {
                      "name": "single",
                      "type": "int256"
                    },
                    {
                      "name": "total",
                      "type": "int256"
                    }
                  ],
                  "name": "conjugate",
                  "type": "tuple"
                }
              ],
              "name": "transfers",
              "type": "tuple"
            },
            {
              "components": [
                {
                  "name": "hash",
                  "type": "bytes32"
                },
                {
                  "components": [
                    {
                      "name": "r",
                      "type": "bytes32"
                    },
                    {
                      "name": "s",
                      "type": "bytes32"
                    },
                    {
                      "name": "v",
                      "type": "uint8"
                    }
                  ],
                  "name": "signature",
                  "type": "tuple"
                }
              ],
              "name": "seal",
              "type": "tuple"
            },
            {
              "name": "blockNumber",
              "type": "uint256"
            },
            {
              "name": "operatorId",
              "type": "uint256"
            }
          ],
          "name": "trade",
          "type": "tuple"
        }
      ],
      "name": "hashTradeRoot",
      "outputs": [
        {
          "name": "",
          "type": "bytes32"
        }
      ],
      "payable": false,
      "stateMutability": "pure",
      "type": "function"
    },
    {
      "constant": true,
      "inputs": [
        {
          "components": [
            {
              "name": "nonce",
              "type": "uint256"
            },
            {
              "name": "wallet",
              "type": "address"
            },
            {
              "name": "rollingVolume",
              "type": "uint256"
            },
            {
              "name": "liquidityRole",
              "type": "uint8"
            },
            {
              "components": [
                {
                  "name": "amount",
                  "type": "int256"
                },
                {
                  "components": [
                    {
                      "name": "wallet",
                      "type": "bytes32"
                    },
                    {
                      "name": "operator",
                      "type": "bytes32"
                    }
                  ],
                  "name": "hashes",
                  "type": "tuple"
                },
                {
                  "components": [
                    {
                      "name": "current",
                      "type": "int256"
                    },
                    {
                      "name": "previous",
                      "type": "int256"
                    }
                  ],
                  "name": "residuals",
                  "type": "tuple"
                }
              ],
              "name": "order",
              "type": "tuple"
            },
            {
              "components": [
                {
                  "components": [
                    {
                      "name": "current",
                      "type": "int256"
                    },
                    {
                      "name": "previous",
                      "type": "int256"
                    }
                  ],
                  "name": "intended",
                  "type": "tuple"
                },
                {
                  "components": [
                    {
                      "name": "current",
                      "type": "int256"
                    },
                    {
                      "name": "previous",
                      "type": "int256"
                    }
                  ],
                  "name": "conjugate",
                  "type": "tuple"
                }
              ],
              "name": "balances",
              "type": "tuple"
            },
            {
              "components": [
                {
                  "components": [
                    {
                      "name": "amount",
                      "type": "int256"
                    },
                    {
                      "components": [
                        {
                          "name": "ct",
                          "type": "address"
                        },
                        {
                          "name": "id",
                          "type": "uint256"
                        }
                      ],
                      "name": "currency",
                      "type": "tuple"
                    }
                  ],
                  "name": "single",
                  "type": "tuple"
                },
                {
                  "components": [
                    {
                      "name": "originId",
                      "type": "uint256"
                    },
                    {
                      "components": [
                        {
                          "name": "amount",
                          "type": "int256"
                        },
                        {
                          "components": [
                            {
                              "name": "ct",
                              "type": "address"
                            },
                            {
                              "name": "id",
                              "type": "uint256"
                            }
                          ],
                          "name": "currency",
                          "type": "tuple"
                        }
                      ],
                      "name": "figure",
                      "type": "tuple"
                    }
                  ],
                  "name": "total",
                  "type": "tuple[]"
                }
              ],
              "name": "fees",
              "type": "tuple"
            }
          ],
          "name": "tradeParty",
          "type": "tuple"
        }
      ],
      "name": "hashTradeParty",
      "outputs": [
        {
          "name": "",
          "type": "bytes32"
        }
      ],
      "payable": false,
      "stateMutability": "pure",
      "type": "function"
    },
    {
      "constant": true,
      "inputs": [
        {
          "components": [
            {
              "name": "nonce",
              "type": "uint256"
            },
            {
              "name": "wallet",
              "type": "address"
            },
            {
              "name": "rollingVolume",
              "type": "uint256"
            },
            {
              "name": "liquidityRole",
              "type": "uint8"
            },
            {
              "components": [
                {
                  "name": "amount",
                  "type": "int256"
                },
                {
                  "components": [
                    {
                      "name": "wallet",
                      "type": "bytes32"
                    },
                    {
                      "name": "operator",
                      "type": "bytes32"
                    }
                  ],
                  "name": "hashes",
                  "type": "tuple"
                },
                {
                  "components": [
                    {
                      "name": "current",
                      "type": "int256"
                    },
                    {
                      "name": "previous",
                      "type": "int256"
                    }
                  ],
                  "name": "residuals",
                  "type": "tuple"
                }
              ],
              "name": "order",
              "type": "tuple"
            },
            {
              "components": [
                {
                  "components": [
                    {
                      "name": "current",
                      "type": "int256"
                    },
                    {
                      "name": "previous",
                      "type": "int256"
                    }
                  ],
                  "name": "intended",
                  "type": "tuple"
                },
                {
                  "components": [
                    {
                      "name": "current",
                      "type": "int256"
                    },
                    {
                      "name": "previous",
                      "type": "int256"
                    }
                  ],
                  "name": "conjugate",
                  "type": "tuple"
                }
              ],
              "name": "balances",
              "type": "tuple"
            },
            {
              "components": [
                {
                  "components": [
                    {
                      "name": "amount",
                      "type": "int256"
                    },
                    {
                      "components": [
                        {
                          "name": "ct",
                          "type": "address"
                        },
                        {
                          "name": "id",
                          "type": "uint256"
                        }
                      ],
                      "name": "currency",
                      "type": "tuple"
                    }
                  ],
                  "name": "single",
                  "type": "tuple"
                },
                {
                  "components": [
                    {
                      "name": "originId",
                      "type": "uint256"
                    },
                    {
                      "components": [
                        {
                          "name": "amount",
                          "type": "int256"
                        },
                        {
                          "components": [
                            {
                              "name": "ct",
                              "type": "address"
                            },
                            {
                              "name": "id",
                              "type": "uint256"
                            }
                          ],
                          "name": "currency",
                          "type": "tuple"
                        }
                      ],
                      "name": "figure",
                      "type": "tuple"
                    }
                  ],
                  "name": "total",
                  "type": "tuple[]"
                }
              ],
              "name": "fees",
              "type": "tuple"
            }
          ],
          "name": "tradeParty",
          "type": "tuple"
        }
      ],
      "name": "hashTradePartyRoot",
      "outputs": [
        {
          "name": "",
          "type": "bytes32"
        }
      ],
      "payable": false,
      "stateMutability": "pure",
      "type": "function"
    },
    {
      "constant": true,
      "inputs": [
        {
          "components": [
            {
              "name": "amount",
              "type": "int256"
            },
            {
              "components": [
                {
                  "name": "wallet",
                  "type": "bytes32"
                },
                {
                  "name": "operator",
                  "type": "bytes32"
                }
              ],
              "name": "hashes",
              "type": "tuple"
            },
            {
              "components": [
                {
                  "name": "current",
                  "type": "int256"
                },
                {
                  "name": "previous",
                  "type": "int256"
                }
              ],
              "name": "residuals",
              "type": "tuple"
            }
          ],
          "name": "tradeOrder",
          "type": "tuple"
        }
      ],
      "name": "hashTradeOrder",
      "outputs": [
        {
          "name": "",
          "type": "bytes32"
        }
      ],
      "payable": false,
      "stateMutability": "pure",
      "type": "function"
    },
    {
      "constant": true,
      "inputs": [
        {
          "components": [
            {
              "components": [
                {
                  "name": "single",
                  "type": "int256"
                },
                {
                  "name": "total",
                  "type": "int256"
                }
              ],
              "name": "intended",
              "type": "tuple"
            },
            {
              "components": [
                {
                  "name": "single",
                  "type": "int256"
                },
                {
                  "name": "total",
                  "type": "int256"
                }
              ],
              "name": "conjugate",
              "type": "tuple"
            }
          ],
          "name": "intededConjugateSingleTotalInt256",
          "type": "tuple"
        }
      ],
      "name": "hashIntendedConjugateSingleTotalInt256",
      "outputs": [
        {
          "name": "",
          "type": "bytes32"
        }
      ],
      "payable": false,
      "stateMutability": "pure",
      "type": "function"
    },
    {
      "constant": true,
      "inputs": [
        {
          "components": [
            {
              "name": "current",
              "type": "int256"
            },
            {
              "name": "previous",
              "type": "int256"
            }
          ],
          "name": "currentPreviousInt256",
          "type": "tuple"
        }
      ],
      "name": "hashCurrentPreviousInt256",
      "outputs": [
        {
          "name": "",
          "type": "bytes32"
        }
      ],
      "payable": false,
      "stateMutability": "pure",
      "type": "function"
    },
    {
      "constant": true,
      "inputs": [
        {
          "components": [
            {
              "components": [
                {
                  "name": "current",
                  "type": "int256"
                },
                {
                  "name": "previous",
                  "type": "int256"
                }
              ],
              "name": "intended",
              "type": "tuple"
            },
            {
              "components": [
                {
                  "name": "current",
                  "type": "int256"
                },
                {
                  "name": "previous",
                  "type": "int256"
                }
              ],
              "name": "conjugate",
              "type": "tuple"
            }
          ],
          "name": "intendedConjugateCurrentPreviousInt256",
          "type": "tuple"
        }
      ],
      "name": "hashIntendedConjugateCurrentPreviousInt256",
      "outputs": [
        {
          "name": "",
          "type": "bytes32"
        }
      ],
      "payable": false,
      "stateMutability": "pure",
      "type": "function"
    },
    {
      "constant": true,
      "inputs": [
        {
          "components": [
            {
              "name": "amount",
              "type": "int256"
            },
            {
              "components": [
                {
                  "name": "ct",
                  "type": "address"
                },
                {
                  "name": "id",
                  "type": "uint256"
                }
              ],
              "name": "currency",
              "type": "tuple"
            }
          ],
          "name": "figure",
          "type": "tuple"
        }
      ],
      "name": "hashFigure",
      "outputs": [
        {
          "name": "",
          "type": "bytes32"
        }
      ],
      "payable": false,
      "stateMutability": "pure",
      "type": "function"
    },
    {
      "constant": true,
      "inputs": [
        {
          "components": [
            {
              "name": "originId",
              "type": "uint256"
            },
            {
              "components": [
                {
                  "name": "amount",
                  "type": "int256"
                },
                {
                  "components": [
                    {
                      "name": "ct",
                      "type": "address"
                    },
                    {
                      "name": "id",
                      "type": "uint256"
                    }
                  ],
                  "name": "currency",
                  "type": "tuple"
                }
              ],
              "name": "figure",
              "type": "tuple"
            }
          ],
          "name": "originFigures",
          "type": "tuple[]"
        }
      ],
      "name": "hashOriginFigures",
      "outputs": [
        {
          "name": "",
          "type": "bytes32"
        }
      ],
      "payable": false,
      "stateMutability": "pure",
      "type": "function"
    },
    {
      "constant": true,
      "inputs": [
        {
          "name": "_uint256",
          "type": "uint256"
        }
      ],
      "name": "hashUint256",
      "outputs": [
        {
          "name": "",
          "type": "bytes32"
        }
      ],
      "payable": false,
      "stateMutability": "pure",
      "type": "function"
    },
    {
      "constant": true,
      "inputs": [
        {
          "name": "_address",
          "type": "address"
        }
      ],
      "name": "hashAddress",
      "outputs": [
        {
          "name": "",
          "type": "bytes32"
        }
      ],
      "payable": false,
      "stateMutability": "pure",
      "type": "function"
    },
    {
      "constant": true,
      "inputs": [
        {
          "components": [
            {
              "name": "r",
              "type": "bytes32"
            },
            {
              "name": "s",
              "type": "bytes32"
            },
            {
              "name": "v",
              "type": "uint8"
            }
          ],
          "name": "signature",
          "type": "tuple"
        }
      ],
      "name": "hashSignature",
      "outputs": [
        {
          "name": "",
          "type": "bytes32"
        }
      ],
      "payable": false,
      "stateMutability": "pure",
      "type": "function"
    }
  ],
  "bytecode": "0x60806040523480156200001157600080fd5b5060405160208062001b748339810180604052620000339190810190620000b6565b8080600160a060020a03811615156200004b57600080fd5b600160a060020a0381163014156200006257600080fd5b506000805461010060a860020a031916610100600160a060020a039390931692830217905560018054600160a060020a031916909117905550620000eb565b6000620000af8251620000df565b9392505050565b600060208284031215620000c957600080fd5b6000620000d78484620000a1565b949350505050565b600160a060020a031690565b611a7980620000fb6000396000f3006080604052600436106101245763ffffffff60e060020a60003504166315c74fe781146101295780632738a1121461015f5780632f013a0014610176578063312aa825146101985780633aa5fe59146101b85780634476d23b146101d857806352a585cb146101fa578063570ca7351461021a57806370327ea11461022f57806370bc7394146102445780638171de22146102645780638ec18c8f14610244578063962147351461028457806397b115f4146102a4578063a07cdfbb146102c4578063a32165aa146102e4578063aad06a5414610304578063b3ab15fb14610324578063ba479cb214610344578063d39d317414610364578063d5f3948814610384578063dd27efe214610399578063f988ea12146103b9578063fd076fff146103d9575b600080fd5b34801561013557600080fd5b50610149610144366004611824565b6103f9565b60405161015691906119be565b60405180910390f35b34801561016b57600080fd5b506101746104b8565b005b34801561018257600080fd5b5061018b61051e565b60405161015691906119b0565b3480156101a457600080fd5b506101496101b336600461189e565b610527565b3480156101c457600080fd5b506101496101d33660046117ac565b61059a565b3480156101e457600080fd5b506101ed610602565b6040516101569190611981565b34801561020657600080fd5b506101496102153660046118bc565b610616565b34801561022657600080fd5b506101ed61069c565b34801561023b57600080fd5b506101746106ab565b34801561025057600080fd5b5061014961025f366004611842565b61070e565b34801561027057600080fd5b5061014961027f3660046118da565b610785565b34801561029057600080fd5b5061017461029f3660046117ac565b610829565b3480156102b057600080fd5b506101496102bf3660046118da565b6108f0565b3480156102d057600080fd5b506101496102df36600461190e565b6109e7565b3480156102f057600080fd5b506101496102ff366004611860565b610a98565b34801561031057600080fd5b5061014961031f36600461190e565b610b80565b34801561033057600080fd5b5061017461033f3660046117ac565b610c57565b34801561035057600080fd5b5061014961035f36600461187f565b610d01565b34801561037057600080fd5b5061014961037f366004611942565b610da9565b34801561039057600080fd5b506101ed610df9565b3480156103a557600080fd5b506101496103b4366004611806565b610e0d565b3480156103c557600080fd5b506101496103d43660046117d2565b610e6d565b3480156103e557600080fd5b506101496103f436600461187f565b610fbf565b600081600001518260200151600001518360200151602001516040516020018084815260200183600160a060020a0316600160a060020a0316606060020a02815260140182815260200193505050506040516020818303038152906040526040518082805190602001908083835b602083106104865780518252601f199092019160209182019101610467565b5181516020939093036101000a6000190180199091169216919091179052604051920182900390912095945050505050565b336104c1610602565b600160a060020a0316146104d457600080fd5b60005460ff16156104e457600080fd5b7f787a5d936e74f4b564b9153575886059829c78cd9927b1be5e0d976b317ef736336040516105139190611981565b60405180910390a133ff5b60005460ff1681565b6040818101518251602080850151845160ff90941660f860020a02848301526021840192909252604180840192909252835180840390920182526061909201928390528051600093919282918482019181908490849083106104865780518252601f199092019160209182019101610467565b6000816040516020018082600160a060020a0316600160a060020a0316606060020a028152601401915050604051602081830303815290604052604051808280519060200190808383602083106104865780518252601f199092019160209182019101610467565b6000546101009004600160a060020a031690565b6020808201518051908201518351604080860151805190860151825180880196909652858301949094526060850192909252608084019190915260a0808401929092528051808403909201825260c0909201918290528051600093919291829190840190808383602083106104865780518252601f199092019160209182019101610467565b600154600160a060020a031681565b336106b4610602565b600160a060020a0316146106c757600080fd5b6000805460ff191660011790556040517fd5a2a04a775c741c2ca0dc46ea7ce4835190e1aaf1ca018def0e82568ec3361690610704903390611981565b60405180910390a1565b805180516020918201518284015180519084015160408051808701959095528481019390935260608401919091526080808401919091528151808403909101815260a0909201908190528151600093829190840190808383602083106104865780518252601f199092019160209182019101610467565b600081600001518260200151836040015184606001516040516020018085815260200184600160a060020a0316600160a060020a0316606060020a0281526014018381526020018260018111156107d857fe5b60ff1660f860020a028152600101945050505050604051602081830303815290604052604051808280519060200190808383602083106104865780518252601f199092019160209182019101610467565b600061083361108d565b151561083e57600080fd5b81600160a060020a038116151561085457600080fd5b600160a060020a03811630141561086a57600080fd5b600054600160a060020a0384811661010090920416146108eb5760008054600160a060020a0385811661010090810261010060a860020a0319841617909355604051929091041692507f977e5fa58e458501775e0008d275006294c5249e3c08d1d0e3a9f3acad14f6e4906108e29084908690611995565b60405180910390a15b505050565b60008060008060008061090287610785565b94506109118760800151610616565b93506109208760a0015161070e565b92506109338760c00151600001516103f9565b91506109468760c0015160200151610e6d565b604080516020808201899052818301889052606082018790526080820186905260a08083018590528351808403909101815260c0909201928390528151939450909282918401908083835b602083106109b05780518252601f199092019160209182019101610991565b5181516020939093036101000a600019018019909116921691909117905260405192018290039091209a9950505050505050505050565b80516020808301516040808501518051805190850151918501518051908601516060808a01518651808a019a909a5289870197909752606060020a600160a060020a039485168102918a019190915260748901949094529116909102609486015260a885015260c8808501929092528051808503909201825260e89093019283905280516000939192829190840190808383602083106104865780518252601f199092019160209182019101610467565b80516020808301516040808501518051805190850151918501518051908601516060890151945160009897939592939192910180886001811115610ad857fe5b60ff1660f860020a02815260010187815260200186600160a060020a0316600160a060020a0316606060020a02815260140185815260200184600160a060020a0316600160a060020a0316606060020a028152601401838152602001828152602001975050505050505050604051602081830303815290604052604051808280519060200190808383602083106104865780518252601f199092019160209182019101610467565b6000806000806000610b91866109e7565b9350610ba086608001516108f0565b9250610baf8660a001516108f0565b9150610bbe8660c0015161070e565b6040805160208082018890528183018790526060820186905260808083018590528351808403909101815260a0909201928390528151939450909282918401908083835b60208310610c215780518252601f199092019160209182019101610c02565b5181516020939093036101000a600019018019909116921691909117905260405192018290039091209998505050505050505050565b6000610c616110a3565b1515610c6c57600080fd5b81600160a060020a0381161515610c8257600080fd5b600160a060020a038116301415610c9857600080fd5b600154600160a060020a038481169116146108eb5760018054600160a060020a03858116600160a060020a0319831617909255604051911692507f9f611b789425d0d5b90b920f1b2852907dd865c80074a30b1629aaa041d1812c906108e29084908690611995565b6000806000610d13846020015161059a565b9150610d228460400151610a98565b6040805160208082018690528183018490528251808303840181526060909201928390528151939450909282918401908083835b60208310610d755780518252601f199092019160209182019101610d56565b5181516020939093036101000a60001901801990911692169190911790526040519201829003909120979650505050505050565b60008160405160200180828152602001915050604051602081830303815290604052604051808280519060200190808383602083106104865780518252601f199092019160209182019101610467565b6000546101009004600160a060020a031681565b6000816000015182602001516040516020018083815260200182815260200192505050604051602081830303815290604052604051808280519060200190808383602083106104865780518252601f199092019160209182019101610467565b600080805b8351811015610fb857818482815181101515610e8a57fe5b60209081029091010151518551869084908110610ea357fe5b60209081029091018101510151518651879085908110610ebf57fe5b60209081029091018101518101510151518751889086908110610ede57fe5b9060200190602002015160200151602001516020015160405160200180866000191660001916815260200185815260200184815260200183600160a060020a0316600160a060020a0316606060020a028152601401828152602001955050505050506040516020818303038152906040526040518082805190602001908083835b60208310610f7e5780518252601f199092019160209182019101610f5f565b5181516020939093036101000a60001901801990911692169190911790526040519201829003909120945050506001919091019050610e72565b5092915050565b600080600080610fd28560000151610da9565b9250610fe985606001516000015160200151610527565b9150610ffc856040015160800151610e0d565b6040805160208082018790528183018690526060808301859052835180840390910181526080909201928390528151939450909282918401908083835b602083106110585780518252601f199092019160209182019101611039565b5181516020939093036101000a6000190180199091169216919091179052604051920182900390912098975050505050505050565b6000546101009004600160a060020a0316331490565b600154600160a060020a0316331490565b60006110c08235611a12565b9392505050565b6000601f820183136110d857600080fd5b81356110eb6110e6826119f2565b6119cc565b9150818183526020840193506020810190508385608084028201111561111057600080fd5b60005b8381101561113e57816111268882611413565b84525060209092019160809190910190600101611113565b5050505092915050565b6000601f8201831361115957600080fd5b81356111676110e6826119f2565b9150818183526020840193506020810190508385608084028201111561118c57600080fd5b60005b8381101561113e57816111a28882611413565b8452506020909201916080919091019060010161118f565b60006110c08235611a23565b60006110c08235611a26565b6000604082840312156111e457600080fd5b6111ee60406119cc565b905060006111fc84846110b4565b825250602061120d848483016111ba565b60208301525092915050565b60006040828403121561122b57600080fd5b61123560406119cc565b905060006111fc84846111ba565b60006060828403121561125557600080fd5b61125f60406119cc565b9050600061126d84846111ba565b825250602061120d848483016111d2565b60006080828403121561129057600080fd5b61129a60406119cc565b905060006112a884846111d2565b825250604061120d848483016111d2565b6000608082840312156112cb57600080fd5b6112d560406119cc565b905060006112e38484611219565b825250604061120d84848301611219565b6000610120828403121561130757600080fd5b61131160a06119cc565b9050600061131f84846111c6565b8252506020611330848483016111ba565b60208301525060406113448482850161127e565b60408301525060c0611358848285016111ba565b60608301525060e061136c84828501611219565b60808301525092915050565b60006102a0828403121561138b57600080fd5b61139560c06119cc565b905060006113a384846111ba565b82525060206113b4848483016110b4565b60208301525060406113c8848285016112f4565b6040830152506101606113dd84828501611764565b6060830152506102606113f2848285016111ba565b608083015250610280611407848285016111ba565b60a08301525092915050565b60006080828403121561142557600080fd5b61142f60406119cc565b9050600061143d84846111ba565b825250602061120d84848301611243565b60006080828403121561146057600080fd5b61146a60406119cc565b9050600061147884846111ba565b825250602061120d848483015b60006060828403121561149757600080fd5b6114a160606119cc565b905060006114af84846111ba565b82525060206114c0848483016111ba565b60208301525060406114d4848285016117a0565b60408301525092915050565b6000608082840312156114f257600080fd5b6114fc60406119cc565b9050600061150a8484611243565b82525060608201356001604060020a0381111561152657600080fd5b61120d848285016110c7565b600060a0828403121561154457600080fd5b61154e60606119cc565b9050600061155c84846111ba565b825250602061156d84848301611219565b60208301525060606114d484828501611219565b60006101c0828403121561159457600080fd5b61159e60e06119cc565b905060006115ac84846111ba565b82525060206115bd848483016110b4565b60208301525060406115d1848285016111ba565b60408301525060606115e5848285016111c6565b60608301525060806115f984828501611532565b60808301525061012061160e848285016112b9565b60a0830152506101a08201356001604060020a0381111561162e57600080fd5b61163a848285016114e0565b60c08301525092915050565b6000610260828403121561165957600080fd5b6116646101406119cc565b9050600061167284846111ba565b8252506020611683848483016111ba565b60208301525060406116978482850161127e565b60408301525060c06116ab848285016111ba565b60608301525060e08201356001604060020a038111156116ca57600080fd5b6116d684828501611581565b6080830152506101008201356001604060020a038111156116f657600080fd5b61170284828501611581565b60a083015250610120611717848285016112b9565b60c0830152506101a061172c8482850161144e565b60e083015250610220611741848285016111ba565b61010083015250610240611757848285016111ba565b6101208301525092915050565b6000610100828403121561177757600080fd5b61178160406119cc565b9050600061178f848461144e565b825250608061120d8484830161144e565b60006110c08235611a39565b6000602082840312156117be57600080fd5b60006117ca84846110b4565b949350505050565b6000602082840312156117e457600080fd5b81356001604060020a038111156117fa57600080fd5b6117ca84828501611148565b60006040828403121561181857600080fd5b60006117ca8484611219565b60006060828403121561183657600080fd5b60006117ca8484611243565b60006080828403121561185457600080fd5b60006117ca84846112b9565b6000610120828403121561187357600080fd5b60006117ca84846112f4565b60006102a0828403121561189257600080fd5b60006117ca8484611378565b6000606082840312156118b057600080fd5b60006117ca8484611485565b600060a082840312156118ce57600080fd5b60006117ca8484611532565b6000602082840312156118ec57600080fd5b81356001604060020a0381111561190257600080fd5b6117ca84828501611581565b60006020828403121561192057600080fd5b81356001604060020a0381111561193657600080fd5b6117ca84828501611646565b60006020828403121561195457600080fd5b60006117ca84846111ba565b61196981611a12565b82525050565b61196981611a1e565b61196981611a23565b6020810161198f8284611960565b92915050565b604081016119a38285611960565b6110c06020830184611960565b6020810161198f828461196f565b6020810161198f8284611978565b6040518181016001604060020a03811182821017156119ea57600080fd5b604052919050565b60006001604060020a03821115611a0857600080fd5b5060209081020190565b600160a060020a031690565b151590565b90565b600060028210611a3557600080fd5b5090565b60ff16905600a265627a7a72305820487f2044923b77c023365497a9c259695f8182985e0a0f75ba7a95e7128151b36c6578706572696d656e74616cf50037",
  "source": "/*\n * Hubii Nahmii\n *\n * Compliant with the Hubii Nahmii specification v0.12.\n *\n * Copyright (C) 2017-2018 Hubii AS\n */\n\npragma solidity ^0.4.25;\npragma experimental ABIEncoderV2;\n\nimport {Ownable} from \"./Ownable.sol\";\nimport {MonetaryTypesLib} from \"./MonetaryTypesLib.sol\";\nimport {NahmiiTypesLib} from \"./NahmiiTypesLib.sol\";\nimport {TradeTypesLib} from \"./TradeTypesLib.sol\";\n\n/**\n * @title TradeHasher\n * @notice Contract that hashes types related to trade\n */\ncontract TradeHasher is Ownable {\n    //\n    // Constructor\n    // -----------------------------------------------------------------------------------------------------------------\n    constructor(address deployer) Ownable(deployer) public {\n    }\n\n    //\n    // Functions\n    // -----------------------------------------------------------------------------------------------------------------\n    function hashOrderAsWallet(TradeTypesLib.Order order)\n    public\n    pure\n    returns (bytes32)\n    {\n        bytes32 rootHash = hashAddress(order.wallet);\n        bytes32 placementHash = hashOrderPlacement(order.placement);\n\n        return keccak256(abi.encodePacked(rootHash, placementHash));\n    }\n\n    function hashOrderAsOperator(TradeTypesLib.Order order)\n    public\n    pure\n    returns (bytes32)\n    {\n        bytes32 rootHash = hashUint256(order.nonce);\n        bytes32 walletSignatureHash = hashSignature(order.seals.wallet.signature);\n        bytes32 placementResidualsHash = hashCurrentPreviousInt256(order.placement.residuals);\n\n        return keccak256(abi.encodePacked(rootHash, walletSignatureHash, placementResidualsHash));\n    }\n\n    function hashTrade(TradeTypesLib.Trade trade)\n    public\n    pure\n    returns (bytes32)\n    {\n        bytes32 rootHash = hashTradeRoot(trade);\n        bytes32 buyerHash = hashTradeParty(trade.buyer);\n        bytes32 sellerHash = hashTradeParty(trade.seller);\n        bytes32 transfersHash = hashIntendedConjugateSingleTotalInt256(trade.transfers);\n\n        return keccak256(abi.encodePacked(rootHash, buyerHash, sellerHash, transfersHash));\n    }\n\n    function hashOrderPlacement(TradeTypesLib.OrderPlacement orderPlacement)\n    public\n    pure\n    returns (bytes32)\n    {\n        return keccak256(abi.encodePacked(\n                orderPlacement.intention,\n                orderPlacement.amount,\n                orderPlacement.currencies.intended.ct,\n                orderPlacement.currencies.intended.id,\n                orderPlacement.currencies.conjugate.ct,\n                orderPlacement.currencies.conjugate.id,\n                orderPlacement.rate\n            ));\n    }\n\n    function hashTradeRoot(TradeTypesLib.Trade trade)\n    public\n    pure\n    returns (bytes32)\n    {\n        return keccak256(abi.encodePacked(\n                trade.nonce,\n                trade.amount,\n                trade.currencies.intended.ct,\n                trade.currencies.intended.id,\n                trade.currencies.conjugate.ct,\n                trade.currencies.conjugate.id,\n                trade.rate\n            ));\n    }\n\n    function hashTradeParty(TradeTypesLib.TradeParty tradeParty)\n    public\n    pure\n    returns (bytes32)\n    {\n        bytes32 rootHash = hashTradePartyRoot(tradeParty);\n        bytes32 orderHash = hashTradeOrder(tradeParty.order);\n        bytes32 balancesHash = hashIntendedConjugateCurrentPreviousInt256(tradeParty.balances);\n        bytes32 singleFeeHash = hashFigure(tradeParty.fees.single);\n        bytes32 totalFeesHash = hashOriginFigures(tradeParty.fees.total);\n\n        return keccak256(abi.encodePacked(\n                rootHash, orderHash, balancesHash, singleFeeHash, totalFeesHash\n            ));\n    }\n\n    function hashTradePartyRoot(TradeTypesLib.TradeParty tradeParty)\n    public\n    pure\n    returns (bytes32)\n    {\n        return keccak256(abi.encodePacked(\n                tradeParty.nonce,\n                tradeParty.wallet,\n                tradeParty.rollingVolume,\n                tradeParty.liquidityRole\n            ));\n    }\n\n    function hashTradeOrder(TradeTypesLib.TradeOrder tradeOrder)\n    public\n    pure\n    returns (bytes32)\n    {\n        return keccak256(abi.encodePacked(\n                tradeOrder.hashes.wallet,\n                tradeOrder.hashes.operator,\n                tradeOrder.amount,\n                tradeOrder.residuals.current,\n                tradeOrder.residuals.previous\n            ));\n    }\n\n    function hashIntendedConjugateSingleTotalInt256(\n        NahmiiTypesLib.IntendedConjugateSingleTotalInt256 intededConjugateSingleTotalInt256)\n    public\n    pure\n    returns (bytes32)\n    {\n        return keccak256(abi.encodePacked(\n                intededConjugateSingleTotalInt256.intended.single,\n                intededConjugateSingleTotalInt256.intended.total,\n                intededConjugateSingleTotalInt256.conjugate.single,\n                intededConjugateSingleTotalInt256.conjugate.total\n            ));\n    }\n\n    function hashCurrentPreviousInt256(\n        NahmiiTypesLib.CurrentPreviousInt256 currentPreviousInt256)\n    public\n    pure\n    returns (bytes32)\n    {\n        return keccak256(abi.encodePacked(\n                currentPreviousInt256.current,\n                currentPreviousInt256.previous\n            ));\n    }\n\n    function hashIntendedConjugateCurrentPreviousInt256(\n        NahmiiTypesLib.IntendedConjugateCurrentPreviousInt256 intendedConjugateCurrentPreviousInt256)\n    public\n    pure\n    returns (bytes32)\n    {\n        return keccak256(abi.encodePacked(\n                intendedConjugateCurrentPreviousInt256.intended.current,\n                intendedConjugateCurrentPreviousInt256.intended.previous,\n                intendedConjugateCurrentPreviousInt256.conjugate.current,\n                intendedConjugateCurrentPreviousInt256.conjugate.previous\n            ));\n    }\n\n    function hashFigure(MonetaryTypesLib.Figure figure)\n    public\n    pure\n    returns (bytes32)\n    {\n        return keccak256(abi.encodePacked(\n                figure.amount,\n                figure.currency.ct,\n                figure.currency.id\n            ));\n    }\n\n    function hashOriginFigures(NahmiiTypesLib.OriginFigure[] originFigures)\n    public\n    pure\n    returns (bytes32)\n    {\n        bytes32 hash;\n        for (uint256 i = 0; i < originFigures.length; i++) {\n            hash = keccak256(abi.encodePacked(\n                    hash,\n                    originFigures[i].originId,\n                    originFigures[i].figure.amount,\n                    originFigures[i].figure.currency.ct,\n                    originFigures[i].figure.currency.id\n                )\n            );\n        }\n        return hash;\n    }\n\n    function hashUint256(uint256 _uint256)\n    public\n    pure\n    returns (bytes32)\n    {\n        return keccak256(abi.encodePacked(_uint256));\n    }\n\n    function hashAddress(address _address)\n    public\n    pure\n    returns (bytes32)\n    {\n        return keccak256(abi.encodePacked(_address));\n    }\n\n    function hashSignature(NahmiiTypesLib.Signature signature)\n    public\n    pure\n    returns (bytes32)\n    {\n        return keccak256(abi.encodePacked(\n                signature.v,\n                signature.r,\n                signature.s\n            ));\n    }\n}",
  "sourcePath": "/opt/buildagent/work/855e104608380c36/contracts/TradeHasher.sol",
  "compiler": {
    "name": "solc",
    "version": "0.4.25+commit.59dbf8f1.Emscripten.clang"
  },
  "schemaVersion": "2.0.2",
  "updatedAt": "2019-04-02T08:24:32.536Z"
}