{
  "contractName": "TradeTypesLib",
  "abi": [
    {
      "constant": true,
      "inputs": [],
      "name": "TRADE_KIND",
      "outputs": [
        {
          "internalType": "string",
          "name": "",
          "type": "string"
        }
      ],
      "payable": false,
      "stateMutability": "pure",
      "type": "function"
    },
    {
      "constant": true,
      "inputs": [],
      "name": "ORDER_KIND",
      "outputs": [
        {
          "internalType": "string",
          "name": "",
          "type": "string"
        }
      ],
      "payable": false,
      "stateMutability": "pure",
      "type": "function"
    }
  ],
  "bytecode": "0x610133610026600b82828239805160001a60731461001957fe5b30600052607381538281f3fe7300000000000000000000000000000000000000003014608060405260043610603d5760003560e01c806332575cb6146042578063af75a2f71460ba575b600080fd5b604860c0565b6040805160208082528351818301528351919283929083019185019080838360005b838110156080578181015183820152602001606a565b50505050905090810190601f16801560ac5780820380516001836020036101000a031916815260200191505b509250505060405180910390f35b604860df565b604080518082019091526005815264747261646560d81b602082015290565b60408051808201909152600581526437b93232b960d91b60208201529056fea265627a7a72315820bcf637ef1ae9e4ab3e1f06969a72297e495079ccf3b0eacacdc39d45a7bf0d7864736f6c634300050c0032",
  "source": "/*\n * Hubii Nahmii\n *\n * Compliant with the Hubii Nahmii specification v0.12.\n *\n * Copyright (C) 2017-2018 Hubii AS\n */\n\npragma solidity >=0.4.25 <0.6.0;\n\nimport {MonetaryTypesLib} from \"./MonetaryTypesLib.sol\";\nimport {NahmiiTypesLib} from \"./NahmiiTypesLib.sol\";\n\n/**\n * @title     TradeTypesLib\n * @dev       Data types centered around trade\n */\nlibrary TradeTypesLib {\n    //\n    // Enums\n    // -----------------------------------------------------------------------------------------------------------------\n    enum CurrencyRole {Intended, Conjugate}\n    enum LiquidityRole {Maker, Taker}\n    enum Intention {Buy, Sell}\n    enum TradePartyRole {Buyer, Seller}\n\n    //\n    // Structures\n    // -----------------------------------------------------------------------------------------------------------------\n    struct OrderPlacement {\n        Intention intention;\n\n        int256 amount;\n        NahmiiTypesLib.IntendedConjugateCurrency currencies;\n        int256 rate;\n\n        NahmiiTypesLib.CurrentPreviousInt256 residuals;\n    }\n\n    struct Order {\n        uint256 nonce;\n        address wallet;\n\n        OrderPlacement placement;\n\n        NahmiiTypesLib.WalletOperatorSeal seals;\n        uint256 blockNumber;\n        uint256 operatorId;\n    }\n\n    struct TradeOrder {\n        int256 amount;\n        NahmiiTypesLib.WalletOperatorHashes hashes;\n        NahmiiTypesLib.CurrentPreviousInt256 residuals;\n    }\n\n    struct TradeParty {\n        uint256 nonce;\n        address wallet;\n\n        uint256 rollingVolume;\n\n        LiquidityRole liquidityRole;\n\n        TradeOrder order;\n\n        NahmiiTypesLib.IntendedConjugateCurrentPreviousInt256 balances;\n\n        NahmiiTypesLib.SingleFigureTotalOriginFigures fees;\n    }\n\n    struct Trade {\n        uint256 nonce;\n\n        int256 amount;\n        NahmiiTypesLib.IntendedConjugateCurrency currencies;\n        int256 rate;\n\n        TradeParty buyer;\n        TradeParty seller;\n\n        // Positive intended transfer is always in direction from seller to buyer\n        // Positive conjugate transfer is always in direction from buyer to seller\n        NahmiiTypesLib.IntendedConjugateSingleTotalInt256 transfers;\n\n        NahmiiTypesLib.Seal seal;\n        uint256 blockNumber;\n        uint256 operatorId;\n    }\n\n    //\n    // Functions\n    // -----------------------------------------------------------------------------------------------------------------\n    function TRADE_KIND()\n    public\n    pure\n    returns (string memory)\n    {\n        return \"trade\";\n    }\n\n    function ORDER_KIND()\n    public\n    pure\n    returns (string memory)\n    {\n        return \"order\";\n    }\n}",
  "sourcePath": "/opt/buildagent/work/855e104608380c36/contracts/TradeTypesLib.sol",
  "compiler": {
    "name": "solc",
    "version": "0.5.12+commit.7709ece9.Emscripten.clang"
  },
  "schemaVersion": "2.0.3",
  "updatedAt": "2019-10-23T00:21:41.296Z"
}