{
  "contractName": "TransactionTracker",
  "abi": [
    {
      "inputs": [
        {
          "internalType": "address",
          "name": "deployer",
          "type": "address"
        }
      ],
      "payable": false,
      "stateMutability": "nonpayable",
      "type": "constructor"
    },
    {
      "anonymous": false,
      "inputs": [
        {
          "indexed": false,
          "internalType": "address",
          "name": "service",
          "type": "address"
        }
      ],
      "name": "DeregisterServiceEvent",
      "type": "event"
    },
    {
      "anonymous": false,
      "inputs": [
        {
          "indexed": false,
          "internalType": "address",
          "name": "service",
          "type": "address"
        },
        {
          "indexed": false,
          "internalType": "string",
          "name": "action",
          "type": "string"
        }
      ],
      "name": "DisableServiceActionEvent",
      "type": "event"
    },
    {
      "anonymous": false,
      "inputs": [
        {
          "indexed": false,
          "internalType": "address",
          "name": "service",
          "type": "address"
        },
        {
          "indexed": false,
          "internalType": "string",
          "name": "action",
          "type": "string"
        }
      ],
      "name": "EnableServiceActionEvent",
      "type": "event"
    },
    {
      "anonymous": false,
      "inputs": [
        {
          "indexed": false,
          "internalType": "address",
          "name": "service",
          "type": "address"
        },
        {
          "indexed": false,
          "internalType": "uint256",
          "name": "timeout",
          "type": "uint256"
        }
      ],
      "name": "RegisterServiceDeferredEvent",
      "type": "event"
    },
    {
      "anonymous": false,
      "inputs": [
        {
          "indexed": false,
          "internalType": "address",
          "name": "service",
          "type": "address"
        }
      ],
      "name": "RegisterServiceEvent",
      "type": "event"
    },
    {
      "anonymous": false,
      "inputs": [
        {
          "indexed": false,
          "internalType": "address",
          "name": "wallet",
          "type": "address"
        }
      ],
      "name": "SelfDestructionDisabledEvent",
      "type": "event"
    },
    {
      "anonymous": false,
      "inputs": [
        {
          "indexed": false,
          "internalType": "uint256",
          "name": "timeoutInSeconds",
          "type": "uint256"
        }
      ],
      "name": "ServiceActivationTimeoutEvent",
      "type": "event"
    },
    {
      "anonymous": false,
      "inputs": [
        {
          "indexed": false,
          "internalType": "address",
          "name": "oldDeployer",
          "type": "address"
        },
        {
          "indexed": false,
          "internalType": "address",
          "name": "newDeployer",
          "type": "address"
        }
      ],
      "name": "SetDeployerEvent",
      "type": "event"
    },
    {
      "anonymous": false,
      "inputs": [
        {
          "indexed": false,
          "internalType": "address",
          "name": "oldOperator",
          "type": "address"
        },
        {
          "indexed": false,
          "internalType": "address",
          "name": "newOperator",
          "type": "address"
        }
      ],
      "name": "SetOperatorEvent",
      "type": "event"
    },
    {
      "anonymous": false,
      "inputs": [
        {
          "indexed": false,
          "internalType": "address",
          "name": "wallet",
          "type": "address"
        }
      ],
      "name": "TriggerSelfDestructionEvent",
      "type": "event"
    },
    {
      "constant": true,
      "inputs": [],
      "name": "DEPOSIT_TRANSACTION_TYPE",
      "outputs": [
        {
          "internalType": "string",
          "name": "",
          "type": "string"
        }
      ],
      "payable": false,
      "stateMutability": "view",
      "type": "function"
    },
    {
      "constant": true,
      "inputs": [],
      "name": "WITHDRAWAL_TRANSACTION_TYPE",
      "outputs": [
        {
          "internalType": "string",
          "name": "",
          "type": "string"
        }
      ],
      "payable": false,
      "stateMutability": "view",
      "type": "function"
    },
    {
      "constant": true,
      "inputs": [],
      "name": "deployer",
      "outputs": [
        {
          "internalType": "address",
          "name": "",
          "type": "address"
        }
      ],
      "payable": false,
      "stateMutability": "view",
      "type": "function"
    },
    {
      "constant": true,
      "inputs": [],
      "name": "depositTransactionType",
      "outputs": [
        {
          "internalType": "bytes32",
          "name": "",
          "type": "bytes32"
        }
      ],
      "payable": false,
      "stateMutability": "view",
      "type": "function"
    },
    {
      "constant": false,
      "inputs": [
        {
          "internalType": "address",
          "name": "service",
          "type": "address"
        }
      ],
      "name": "deregisterService",
      "outputs": [],
      "payable": false,
      "stateMutability": "nonpayable",
      "type": "function"
    },
    {
      "constant": true,
      "inputs": [],
      "name": "destructor",
      "outputs": [
        {
          "internalType": "address",
          "name": "",
          "type": "address"
        }
      ],
      "payable": false,
      "stateMutability": "view",
      "type": "function"
    },
    {
      "constant": false,
      "inputs": [],
      "name": "disableSelfDestruction",
      "outputs": [],
      "payable": false,
      "stateMutability": "nonpayable",
      "type": "function"
    },
    {
      "constant": false,
      "inputs": [
        {
          "internalType": "address",
          "name": "service",
          "type": "address"
        },
        {
          "internalType": "string",
          "name": "action",
          "type": "string"
        }
      ],
      "name": "disableServiceAction",
      "outputs": [],
      "payable": false,
      "stateMutability": "nonpayable",
      "type": "function"
    },
    {
      "constant": false,
      "inputs": [
        {
          "internalType": "address",
          "name": "service",
          "type": "address"
        },
        {
          "internalType": "string",
          "name": "action",
          "type": "string"
        }
      ],
      "name": "enableServiceAction",
      "outputs": [],
      "payable": false,
      "stateMutability": "nonpayable",
      "type": "function"
    },
    {
      "constant": true,
      "inputs": [
        {
          "internalType": "address",
          "name": "service",
          "type": "address"
        },
        {
          "internalType": "string",
          "name": "action",
          "type": "string"
        }
      ],
      "name": "isEnabledServiceAction",
      "outputs": [
        {
          "internalType": "bool",
          "name": "",
          "type": "bool"
        }
      ],
      "payable": false,
      "stateMutability": "view",
      "type": "function"
    },
    {
      "constant": true,
      "inputs": [
        {
          "internalType": "address",
          "name": "service",
          "type": "address"
        }
      ],
      "name": "isRegisteredActiveService",
      "outputs": [
        {
          "internalType": "bool",
          "name": "",
          "type": "bool"
        }
      ],
      "payable": false,
      "stateMutability": "view",
      "type": "function"
    },
    {
      "constant": true,
      "inputs": [
        {
          "internalType": "address",
          "name": "service",
          "type": "address"
        }
      ],
      "name": "isRegisteredService",
      "outputs": [
        {
          "internalType": "bool",
          "name": "",
          "type": "bool"
        }
      ],
      "payable": false,
      "stateMutability": "view",
      "type": "function"
    },
    {
      "constant": true,
      "inputs": [],
      "name": "operator",
      "outputs": [
        {
          "internalType": "address",
          "name": "",
          "type": "address"
        }
      ],
      "payable": false,
      "stateMutability": "view",
      "type": "function"
    },
    {
      "constant": false,
      "inputs": [
        {
          "internalType": "address",
          "name": "service",
          "type": "address"
        }
      ],
      "name": "registerService",
      "outputs": [],
      "payable": false,
      "stateMutability": "nonpayable",
      "type": "function"
    },
    {
      "constant": false,
      "inputs": [
        {
          "internalType": "address",
          "name": "service",
          "type": "address"
        }
      ],
      "name": "registerServiceDeferred",
      "outputs": [],
      "payable": false,
      "stateMutability": "nonpayable",
      "type": "function"
    },
    {
      "constant": true,
      "inputs": [],
      "name": "selfDestructionDisabled",
      "outputs": [
        {
          "internalType": "bool",
          "name": "",
          "type": "bool"
        }
      ],
      "payable": false,
      "stateMutability": "view",
      "type": "function"
    },
    {
      "constant": true,
      "inputs": [],
      "name": "serviceActivationTimeout",
      "outputs": [
        {
          "internalType": "uint256",
          "name": "",
          "type": "uint256"
        }
      ],
      "payable": false,
      "stateMutability": "view",
      "type": "function"
    },
    {
      "constant": false,
      "inputs": [
        {
          "internalType": "address",
          "name": "newDeployer",
          "type": "address"
        }
      ],
      "name": "setDeployer",
      "outputs": [],
      "payable": false,
      "stateMutability": "nonpayable",
      "type": "function"
    },
    {
      "constant": false,
      "inputs": [
        {
          "internalType": "address",
          "name": "newOperator",
          "type": "address"
        }
      ],
      "name": "setOperator",
      "outputs": [],
      "payable": false,
      "stateMutability": "nonpayable",
      "type": "function"
    },
    {
      "constant": false,
      "inputs": [
        {
          "internalType": "uint256",
          "name": "timeoutInSeconds",
          "type": "uint256"
        }
      ],
      "name": "setServiceActivationTimeout",
      "outputs": [],
      "payable": false,
      "stateMutability": "nonpayable",
      "type": "function"
    },
    {
      "constant": false,
      "inputs": [],
      "name": "triggerSelfDestruction",
      "outputs": [],
      "payable": false,
      "stateMutability": "nonpayable",
      "type": "function"
    },
    {
      "constant": true,
      "inputs": [],
      "name": "withdrawalTransactionType",
      "outputs": [
        {
          "internalType": "bytes32",
          "name": "",
          "type": "bytes32"
        }
      ],
      "payable": false,
      "stateMutability": "view",
      "type": "function"
    },
    {
      "constant": false,
      "inputs": [
        {
          "internalType": "address",
          "name": "wallet",
          "type": "address"
        },
        {
          "internalType": "bytes32",
          "name": "_type",
          "type": "bytes32"
        },
        {
          "internalType": "int256",
          "name": "value",
          "type": "int256"
        },
        {
          "internalType": "address",
          "name": "currencyCt",
          "type": "address"
        },
        {
          "internalType": "uint256",
          "name": "currencyId",
          "type": "uint256"
        }
      ],
      "name": "add",
      "outputs": [],
      "payable": false,
      "stateMutability": "nonpayable",
      "type": "function"
    },
    {
      "constant": true,
      "inputs": [
        {
          "internalType": "address",
          "name": "wallet",
          "type": "address"
        },
        {
          "internalType": "bytes32",
          "name": "_type",
          "type": "bytes32"
        }
      ],
      "name": "count",
      "outputs": [
        {
          "internalType": "uint256",
          "name": "",
          "type": "uint256"
        }
      ],
      "payable": false,
      "stateMutability": "view",
      "type": "function"
    },
    {
      "constant": true,
      "inputs": [
        {
          "internalType": "address",
          "name": "wallet",
          "type": "address"
        },
        {
          "internalType": "bytes32",
          "name": "_type",
          "type": "bytes32"
        },
        {
          "internalType": "uint256",
          "name": "index",
          "type": "uint256"
        }
      ],
      "name": "getByIndex",
      "outputs": [
        {
          "internalType": "int256",
          "name": "value",
          "type": "int256"
        },
        {
          "internalType": "uint256",
          "name": "blockNumber",
          "type": "uint256"
        },
        {
          "internalType": "address",
          "name": "currencyCt",
          "type": "address"
        },
        {
          "internalType": "uint256",
          "name": "currencyId",
          "type": "uint256"
        }
      ],
      "payable": false,
      "stateMutability": "view",
      "type": "function"
    },
    {
      "constant": true,
      "inputs": [
        {
          "internalType": "address",
          "name": "wallet",
          "type": "address"
        },
        {
          "internalType": "bytes32",
          "name": "_type",
          "type": "bytes32"
        },
        {
          "internalType": "uint256",
          "name": "_blockNumber",
          "type": "uint256"
        }
      ],
      "name": "getByBlockNumber",
      "outputs": [
        {
          "internalType": "int256",
          "name": "value",
          "type": "int256"
        },
        {
          "internalType": "uint256",
          "name": "blockNumber",
          "type": "uint256"
        },
        {
          "internalType": "address",
          "name": "currencyCt",
          "type": "address"
        },
        {
          "internalType": "uint256",
          "name": "currencyId",
          "type": "uint256"
        }
      ],
      "payable": false,
      "stateMutability": "view",
      "type": "function"
    },
    {
      "constant": true,
      "inputs": [
        {
          "internalType": "address",
          "name": "wallet",
          "type": "address"
        },
        {
          "internalType": "bytes32",
          "name": "_type",
          "type": "bytes32"
        },
        {
          "internalType": "address",
          "name": "currencyCt",
          "type": "address"
        },
        {
          "internalType": "uint256",
          "name": "currencyId",
          "type": "uint256"
        }
      ],
      "name": "countByCurrency",
      "outputs": [
        {
          "internalType": "uint256",
          "name": "",
          "type": "uint256"
        }
      ],
      "payable": false,
      "stateMutability": "view",
      "type": "function"
    },
    {
      "constant": true,
      "inputs": [
        {
          "internalType": "address",
          "name": "wallet",
          "type": "address"
        },
        {
          "internalType": "bytes32",
          "name": "_type",
          "type": "bytes32"
        },
        {
          "internalType": "address",
          "name": "currencyCt",
          "type": "address"
        },
        {
          "internalType": "uint256",
          "name": "currencyId",
          "type": "uint256"
        },
        {
          "internalType": "uint256",
          "name": "index",
          "type": "uint256"
        }
      ],
      "name": "getByCurrencyIndex",
      "outputs": [
        {
          "internalType": "int256",
          "name": "value",
          "type": "int256"
        },
        {
          "internalType": "uint256",
          "name": "blockNumber",
          "type": "uint256"
        }
      ],
      "payable": false,
      "stateMutability": "view",
      "type": "function"
    },
    {
      "constant": true,
      "inputs": [
        {
          "internalType": "address",
          "name": "wallet",
          "type": "address"
        },
        {
          "internalType": "bytes32",
          "name": "_type",
          "type": "bytes32"
        },
        {
          "internalType": "address",
          "name": "currencyCt",
          "type": "address"
        },
        {
          "internalType": "uint256",
          "name": "currencyId",
          "type": "uint256"
        },
        {
          "internalType": "uint256",
          "name": "_blockNumber",
          "type": "uint256"
        }
      ],
      "name": "getByCurrencyBlockNumber",
      "outputs": [
        {
          "internalType": "int256",
          "name": "value",
          "type": "int256"
        },
        {
          "internalType": "uint256",
          "name": "blockNumber",
          "type": "uint256"
        }
      ],
      "payable": false,
      "stateMutability": "view",
      "type": "function"
    }
  ],
  "bytecode": "0x608060405234801561001057600080fd5b506040516119c63803806119c68339818101604052602081101561003357600080fd5b505180806001600160a01b03811661004a57600080fd5b6001600160a01b03811630141561006057600080fd5b5060008054610100600160a81b0319166101006001600160a01b0393909316928302179055600180546001600160a01b031916909117905560408051808201825260078082527f6465706f73697400000000000000000000000000000000000000000000000000602080840191825293519293929092019182918083835b602083106100fd5780518252601f1990920191602091820191016100de565b51815160209384036101000a60001901801990921691161790526040805192909401828103601f190183528085528251928201929092206004558184018452600a8083527f7769746864726177616c00000000000000000000000000000000000000000000838301908152945192965091019350839291508083835b602083106101985780518252601f199092019160209182019101610179565b6001836020036101000a03801982511681845116808217855250505050505090500191505060405160208183030381529060405280519060200120600581905550506117dd806101e96000396000f3fe608060405234801561001057600080fd5b506004361061015f5760003560e01c80630545cae41461016457806317ba3f90146101bd5780632738a112146101f75780632b5672e3146102015780632b91e0a9146102b55780632f013a00146102db578063313004a9146102e35780633b58c501146102fd5780633b7bea6c146103b15780634476d23b146103b95780634aa06842146103dd57806350b08c021461043d578063570ca735146104635780635df1b0a31461046b5780636cc56e5a1461051f57806370327ea11461059c5780637e15dd5c146105a45780638e8cef12146105c157806396214735146105e757806397bb0bc91461060d5780639cab96d6146106475780639de6301d14610689578063ac0fc3ef146106c9578063b3ab15fb146106fb578063bb6be22114610721578063bde440cb14610729578063d185dd4e14610731578063d5f394881461075d578063fdd9ec7d14610765575b600080fd5b6101a4600480360360a081101561017a57600080fd5b506001600160a01b038135811691602081013591604082013516906060810135906080013561078b565b6040805192835260208301919091528051918290030190f35b6101e3600480360360208110156101d357600080fd5b50356001600160a01b03166107b5565b604080519115158252519081900360200190f35b6101ff6107ed565b005b6101ff6004803603604081101561021757600080fd5b6001600160a01b038235169190810190604081016020820135600160201b81111561024157600080fd5b82018360208201111561025357600080fd5b803590602001918460018302840111600160201b8311171561027457600080fd5b91908080601f01602080910402602001604051908101604052809392919081815260200183838082843760009201919091525092955061084f945050505050565b6101e3600480360360208110156102cb57600080fd5b50356001600160a01b03166109e4565b6101e3610a02565b6102eb610a0b565b60408051918252519081900360200190f35b6101ff6004803603604081101561031357600080fd5b6001600160a01b038235169190810190604081016020820135600160201b81111561033d57600080fd5b82018360208201111561034f57600080fd5b803590602001918460018302840111600160201b8311171561037057600080fd5b91908080601f016020809104026020016040519081016040528093929190818152602001838380828437600092019190915250929550610a11945050505050565b6102eb610b1e565b6103c1610b24565b604080516001600160a01b039092168252519081900360200190f35b61040f600480360360608110156103f357600080fd5b506001600160a01b038135169060208101359060400135610b39565b6040805194855260208501939093526001600160a01b03909116838301526060830152519081900360800190f35b6101ff6004803603602081101561045357600080fd5b50356001600160a01b0316610b65565b6103c1610c1e565b6101e36004803603604081101561048157600080fd5b6001600160a01b038235169190810190604081016020820135600160201b8111156104ab57600080fd5b8201836020820111156104bd57600080fd5b803590602001918460018302840111600160201b831117156104de57600080fd5b91908080601f016020809104026020016040519081016040528093929190818152602001838380828437600092019190915250929550610c2d945050505050565b610527610c7d565b6040805160208082528351818301528351919283929083019185019080838360005b83811015610561578181015183820152602001610549565b50505050905090810190601f16801561058e5780820380516001836020036101000a031916815260200191505b509250505060405180910390f35b6101ff610ca0565b6101ff600480360360208110156105ba57600080fd5b5035610cfe565b6101ff600480360360208110156105d757600080fd5b50356001600160a01b0316610d4a565b6101ff600480360360208110156105fd57600080fd5b50356001600160a01b0316610ddc565b6102eb6004803603608081101561062357600080fd5b506001600160a01b0381358116916020810135916040820135169060600135610ea0565b6101ff600480360360a081101561065d57600080fd5b506001600160a01b03813581169160208101359160408201359160608101359091169060800135610ee1565b6101a4600480360360a081101561069f57600080fd5b506001600160a01b038135811691602081013591604082013516906060810135906080013561109d565b61040f600480360360608110156106df57600080fd5b506001600160a01b03813516906020810135906040013561114e565b6101ff6004803603602081101561071157600080fd5b50356001600160a01b03166111c3565b610527611277565b6102eb61129d565b6102eb6004803603604081101561074757600080fd5b506001600160a01b0381351690602001356112a3565b6103c16112cb565b6101ff6004803603602081101561077b57600080fd5b50356001600160a01b03166112df565b6000806107a7878787876107a28c8c8c8c8c611365565b61109d565b915091509550959350505050565b60006107c0826109e4565b80156107e757506001600160a01b0382166000908152600260205260409020600101544210155b92915050565b336107f6610b24565b6001600160a01b03161461080957600080fd5b60005460ff161561081957600080fd5b6040805133815290517f787a5d936e74f4b564b9153575886059829c78cd9927b1be5e0d976b317ef7369181900360200190a133ff5b6108576114d1565b61086057600080fd5b816001600160a01b03811661087457600080fd5b6001600160a01b03811630141561088a57600080fd5b6001600160a01b03831660009081526002602052604090205460ff166108af57600080fd5b60006108ba836114e7565b6001600160a01b0385166000908152600260208181526040808420858552909201905290205490915060ff16156108f057600080fd5b6001600160a01b03841660008181526002602081815260408084208685528084018352818520805460ff19166001908117909155938352600301805493840181558452818420909201859055815193845283810182815287519285019290925286517fec1b982d69bfc1a6fd8becf191d9a633486c822d3bdedd52303ca81fa635750194899489949193919260608501928601918190849084905b838110156109a357818101518382015260200161098b565b50505050905090810190601f1680156109d05780820380516001836020036101000a031916815260200191505b50935050505060405180910390a150505050565b6001600160a01b031660009081526002602052604090205460ff1690565b60005460ff1681565b60045481565b610a196114d1565b610a2257600080fd5b816001600160a01b038116610a3657600080fd5b6001600160a01b038116301415610a4c57600080fd5b6000610a57836114e7565b6001600160a01b0385166000908152600260208181526040808420858552909201905290205490915060ff16610a8c57600080fd5b6001600160a01b03841660008181526002602081815260408084208685529092018152818320805460ff19169055815193845283810182815287519285019290925286517f92f4af6130f47c92f3899e06611c8c6ef191fb81207ad2675d134af619d2fe7d948994899491939192606085019286019181908490849083156109a357818101518382015260200161098b565b60035481565b60005461010090046001600160a01b03165b90565b600080600080610b548787610b4f8a8a8a61155e565b61114e565b935093509350935093509350935093565b610b6d6114d1565b610b7657600080fd5b806001600160a01b038116610b8a57600080fd5b6001600160a01b038116301415610ba057600080fd5b6001600160a01b03821660009081526002602052604090205460ff16610bc557600080fd5b6001600160a01b038216600081815260026020908152604091829020805460ff19169055815192835290517f777645c5437dfbf962f57a281ead25f3d513f2f8e938685bbfc1738e81c9880e9281900390910190a15050565b6001546001600160a01b031681565b600080610c39836114e7565b9050610c44846107b5565b8015610c7557506001600160a01b0384166000908152600260208181526040808420858552909201905290205460ff165b949350505050565b6040518060400160405280600781526020016619195c1bdcda5d60ca1b81525081565b33610ca9610b24565b6001600160a01b031614610cbc57600080fd5b6000805460ff191660011790556040805133815290517fd5a2a04a775c741c2ca0dc46ea7ce4835190e1aaf1ca018def0e82568ec336169181900360200190a1565b610d066114d1565b610d0f57600080fd5b60038190556040805182815290517f4f1d324a1cbffc352fb64f1d73d95e4b200d92f99ef39bf2d7f5b41f946909d69181900360200190a150565b610d526114d1565b610d5b57600080fd5b806001600160a01b038116610d6f57600080fd5b6001600160a01b038116301415610d8557600080fd5b610d9182600354611644565b600354604080516001600160a01b0385168152602081019290925280517f7f3a8349917003ed377f6e9ae1608b92edd893903f8983bd274b1f8373dd3b119281900390910190a15050565b610de46114d1565b610ded57600080fd5b806001600160a01b038116610e0157600080fd5b6001600160a01b038116301415610e1757600080fd5b6000546001600160a01b038381166101009092041614610e9c57600080546001600160a01b03848116610100818102610100600160a81b03198516179094556040805194909304919091168084526020840191909152815190927f977e5fa58e458501775e0008d275006294c5249e3c08d1d0e3a9f3acad14f6e492908290030190a1505b5050565b6001600160a01b0393841660009081526006602090815260408083209583529481528482209390951681526001909201845282822090825290925290205490565b610eea336107b5565b610ef357600080fd5b6001600160a01b03851660009081526006602090815260408083208784529091529020805490610f2690600183016116a4565b506001600160a01b038516600090815260066020908152604080832087845290915290208054600019810191859183908110610f5e57fe5b600091825260208083206004909202909101929092556001600160a01b038816815260068252604080822088835290925220805443919083908110610f9f57fe5b60009182526020808320600160049093020191909101929092556001600160a01b038816815260068252604080822088835290925220805484919083908110610fe457fe5b6000918252602080832060049290920290910160020180546001600160a01b0319166001600160a01b0394851617905591881681526006825260408082208883529092522080548391908390811061103857fe5b60009182526020808320600360049093020191909101929092556001600160a01b039788168152600682526040808220978252968252868120949097168752600193840181528587209287529182529385208054928301815585529093209092015550565b6001600160a01b03808616600090815260066020908152604080832088845282528083209387168352600190930181528282208583529052908120805482918291859081106110e857fe5b60009182526020808320909101546001600160a01b038b1683526006825260408084208b85529092529082208054919350908390811061112457fe5b90600052602060002090600402019050806000015493508060010154925050509550959350505050565b6001600160a01b03831660009081526006602090815260408083208584529091528120805482918291829182918790811061118557fe5b60009182526020909120600490910201805460018201546002830154600390930154919b909a506001600160a01b0390921698509650945050505050565b6111cb611693565b6111d457600080fd5b806001600160a01b0381166111e857600080fd5b6001600160a01b0381163014156111fe57600080fd5b6001546001600160a01b03838116911614610e9c57600180546001600160a01b038481166001600160a01b0319831681179093556040805191909216808252602082019390935281517f9f611b789425d0d5b90b920f1b2852907dd865c80074a30b1629aaa041d1812c929181900390910190a1505050565b6040518060400160405280600a8152602001691dda5d1a191c985dd85b60b21b81525081565b60055481565b6001600160a01b03919091166000908152600660209081526040808320938352929052205490565b60005461010090046001600160a01b031681565b6112e76114d1565b6112f057600080fd5b806001600160a01b03811661130457600080fd5b6001600160a01b03811630141561131a57600080fd5b611325826000611644565b604080516001600160a01b038416815290517fb619d545cb511bd5f02907a1eac4f4cb8dace7b1846852fb0bf5e553937481c19181900360200190a15050565b6001600160a01b03808616600090815260066020908152604080832088845282528083209387168352600190930181528282208583529052908120546113dc5760405162461bcd60e51b81526004018080602001828103825260508152602001806117136050913960600191505060405180910390fd5b6001600160a01b038681166000908152600660209081526040808320898452825280832093881683526001909301815282822086835290522054600019015b6001600160a01b0380881660009081526006602090815260408083208a84528252808320938916835260019093018152828220878352905290812080548390811061146257fe5b60009182526020808320909101546001600160a01b038b1683526006825260408084208b855290925291208054919250908290811061149d57fe5b90600052602060002090600402016001015484106114be5791506114c89050565b506000190161141b565b95945050505050565b60005461010090046001600160a01b0316331490565b6000816040516020018082805190602001908083835b6020831061151c5780518252601f1990920191602091820191016114fd565b6001836020036101000a038019825116818451168082178552505050505050905001915050604051602081830303815290604052805190602001209050919050565b6001600160a01b03831660009081526006602090815260408083208584529091528120546115bd5760405162461bcd60e51b81526004018080602001828103825260468152602001806117636046913960600191505060405180910390fd5b6001600160a01b0384166000908152600660209081526040808320868452909152902054600019015b6001600160a01b0385166000908152600660209081526040808320878452909152902080548290811061161557fe5b906000526020600020906004020160010154831061163457905061163d565b600019016115e6565b9392505050565b6001600160a01b03821660009081526002602052604090205460ff16610e9c576001600160a01b0382166000908152600260205260409020805460ff1916600190811782554283019101555050565b6001546001600160a01b0316331490565b8154818355818111156116d0576004028160040283600052602060002091820191016116d091906116d5565b505050565b610b3691905b8082111561170e576000808255600182018190556002820180546001600160a01b031916905560038201556004016116db565b509056fe4e6f207472616e73616374696f6e7320666f756e6420666f722077616c6c65742c207479706520616e642063757272656e6379205b5472616e73616374696f6e547261636b65722e736f6c3a3230335d4e6f207472616e73616374696f6e7320666f756e6420666f722077616c6c657420616e642074797065205b5472616e73616374696f6e547261636b65722e736f6c3a3138375da265627a7a72315820f119d1fd9102bb3d1d64e5db520780f2cd4bff81a7c8c949aa34c71357ee00c764736f6c634300050c0032",
  "source": "/*\n * Hubii Nahmii\n *\n * Compliant with the Hubii Nahmii specification v0.12.\n *\n * Copyright (C) 2017-2018 Hubii AS\n */\n\npragma solidity >=0.4.25 <0.6.0;\n\nimport {Ownable} from \"./Ownable.sol\";\nimport {Servable} from \"./Servable.sol\";\n\n/**\n * @title Transaction tracker\n * @notice An ownable to track transactions of generic types\n */\ncontract TransactionTracker is Ownable, Servable {\n\n    //\n    // Structures\n    // -----------------------------------------------------------------------------------------------------------------\n    struct TransactionRecord {\n        int256 value;\n        uint256 blockNumber;\n        address currencyCt;\n        uint256 currencyId;\n    }\n\n    struct TransactionLog {\n        TransactionRecord[] records;\n        mapping(address => mapping(uint256 => uint256[])) recordIndicesByCurrency;\n    }\n\n    //\n    // Constants\n    // -----------------------------------------------------------------------------------------------------------------\n    string constant public DEPOSIT_TRANSACTION_TYPE = \"deposit\";\n    string constant public WITHDRAWAL_TRANSACTION_TYPE = \"withdrawal\";\n\n    //\n    // Variables\n    // -----------------------------------------------------------------------------------------------------------------\n    bytes32 public depositTransactionType;\n    bytes32 public withdrawalTransactionType;\n\n    mapping(address => mapping(bytes32 => TransactionLog)) private transactionLogByWalletType;\n\n    //\n    // Constructor\n    // -----------------------------------------------------------------------------------------------------------------\n    constructor(address deployer) Ownable(deployer)\n    public\n    {\n        depositTransactionType = keccak256(abi.encodePacked(DEPOSIT_TRANSACTION_TYPE));\n        withdrawalTransactionType = keccak256(abi.encodePacked(WITHDRAWAL_TRANSACTION_TYPE));\n    }\n\n    //\n    // Functions\n    // -----------------------------------------------------------------------------------------------------------------\n    /// @notice Add a transaction record of the given wallet, type, value and currency\n    /// @param wallet The address of the concerned wallet\n    /// @param _type The transaction type\n    /// @param value The concerned value (amount of fungible, id of non-fungible)\n    /// @param currencyCt The address of the concerned currency contract (address(0) == ETH)\n    /// @param currencyId The ID of the concerned currency (0 for ETH and ERC20)\n    function add(address wallet, bytes32 _type, int256 value, address currencyCt,\n        uint256 currencyId)\n    public\n    onlyActiveService\n    {\n        transactionLogByWalletType[wallet][_type].records.length++;\n\n        uint256 index = transactionLogByWalletType[wallet][_type].records.length - 1;\n\n        transactionLogByWalletType[wallet][_type].records[index].value = value;\n        transactionLogByWalletType[wallet][_type].records[index].blockNumber = block.number;\n        transactionLogByWalletType[wallet][_type].records[index].currencyCt = currencyCt;\n        transactionLogByWalletType[wallet][_type].records[index].currencyId = currencyId;\n\n        transactionLogByWalletType[wallet][_type].recordIndicesByCurrency[currencyCt][currencyId].push(index);\n    }\n\n    /// @notice Get the number of transaction records for the given wallet and type\n    /// @param wallet The address of the concerned wallet\n    /// @param _type The transaction type\n    /// @return The count of transaction records\n    function count(address wallet, bytes32 _type)\n    public\n    view\n    returns (uint256)\n    {\n        return transactionLogByWalletType[wallet][_type].records.length;\n    }\n\n    /// @notice Get the transaction record for the given wallet and type by the given index\n    /// @param wallet The address of the concerned wallet\n    /// @param _type The transaction type\n    /// @param index The concerned log index\n    /// @return The transaction record\n    function getByIndex(address wallet, bytes32 _type, uint256 index)\n    public\n    view\n    returns (int256 value, uint256 blockNumber, address currencyCt, uint256 currencyId)\n    {\n        TransactionRecord storage entry = transactionLogByWalletType[wallet][_type].records[index];\n        value = entry.value;\n        blockNumber = entry.blockNumber;\n        currencyCt = entry.currencyCt;\n        currencyId = entry.currencyId;\n    }\n\n    /// @notice Get the transaction record for the given wallet and type by the given block number\n    /// @param wallet The address of the concerned wallet\n    /// @param _type The transaction type\n    /// @param _blockNumber The concerned block number\n    /// @return The transaction record\n    function getByBlockNumber(address wallet, bytes32 _type, uint256 _blockNumber)\n    public\n    view\n    returns (int256 value, uint256 blockNumber, address currencyCt, uint256 currencyId)\n    {\n        return getByIndex(wallet, _type, _indexByBlockNumber(wallet, _type, _blockNumber));\n    }\n\n    /// @notice Get the number of transaction records for the given wallet, type and currency\n    /// @param wallet The address of the concerned wallet\n    /// @param _type The transaction type\n    /// @param currencyCt The address of the concerned currency contract (address(0) == ETH)\n    /// @param currencyId The ID of the concerned currency (0 for ETH and ERC20)\n    /// @return The count of transaction records\n    function countByCurrency(address wallet, bytes32 _type, address currencyCt,\n        uint256 currencyId)\n    public\n    view\n    returns (uint256)\n    {\n        return transactionLogByWalletType[wallet][_type].recordIndicesByCurrency[currencyCt][currencyId].length;\n    }\n\n    /// @notice Get the transaction record for the given wallet, type and currency by the given index\n    /// @param wallet The address of the concerned wallet\n    /// @param _type The transaction type\n    /// @param index The concerned log index\n    /// @return The transaction record\n    function getByCurrencyIndex(address wallet, bytes32 _type, address currencyCt,\n        uint256 currencyId, uint256 index)\n    public\n    view\n    returns (int256 value, uint256 blockNumber)\n    {\n        uint256 entryIndex = transactionLogByWalletType[wallet][_type].recordIndicesByCurrency[currencyCt][currencyId][index];\n\n        TransactionRecord storage entry = transactionLogByWalletType[wallet][_type].records[entryIndex];\n        value = entry.value;\n        blockNumber = entry.blockNumber;\n    }\n\n    /// @notice Get the transaction record for the given wallet, type and currency by the given block number\n    /// @param wallet The address of the concerned wallet\n    /// @param _type The transaction type\n    /// @param _blockNumber The concerned block number\n    /// @return The transaction record\n    function getByCurrencyBlockNumber(address wallet, bytes32 _type, address currencyCt,\n        uint256 currencyId, uint256 _blockNumber)\n    public\n    view\n    returns (int256 value, uint256 blockNumber)\n    {\n        return getByCurrencyIndex(\n            wallet, _type, currencyCt, currencyId,\n            _indexByCurrencyBlockNumber(\n                wallet, _type, currencyCt, currencyId, _blockNumber\n            )\n        );\n    }\n\n    //\n    // Private functions\n    // -----------------------------------------------------------------------------------------------------------------\n    function _indexByBlockNumber(address wallet, bytes32 _type, uint256 blockNumber)\n    private\n    view\n    returns (uint256)\n    {\n        require(\n            0 < transactionLogByWalletType[wallet][_type].records.length,\n            \"No transactions found for wallet and type [TransactionTracker.sol:187]\"\n        );\n        for (uint256 i = transactionLogByWalletType[wallet][_type].records.length - 1; i >= 0; i--)\n            if (blockNumber >= transactionLogByWalletType[wallet][_type].records[i].blockNumber)\n                return i;\n        revert();\n    }\n\n    function _indexByCurrencyBlockNumber(address wallet, bytes32 _type, address currencyCt,\n        uint256 currencyId, uint256 blockNumber)\n    private\n    view\n    returns (uint256)\n    {\n        require(\n            0 < transactionLogByWalletType[wallet][_type].recordIndicesByCurrency[currencyCt][currencyId].length,\n            \"No transactions found for wallet, type and currency [TransactionTracker.sol:203]\"\n        );\n        for (uint256 i = transactionLogByWalletType[wallet][_type].recordIndicesByCurrency[currencyCt][currencyId].length - 1; i >= 0; i--) {\n            uint256 j = transactionLogByWalletType[wallet][_type].recordIndicesByCurrency[currencyCt][currencyId][i];\n            if (blockNumber >= transactionLogByWalletType[wallet][_type].records[j].blockNumber)\n                return j;\n        }\n        revert();\n    }\n}",
  "sourcePath": "/opt/buildagent/work/855e104608380c36/contracts/TransactionTracker.sol",
  "compiler": {
    "name": "solc",
    "version": "0.5.12+commit.7709ece9.Emscripten.clang"
  },
  "schemaVersion": "2.0.3",
  "updatedAt": "2019-10-23T00:21:41.358Z"
}