{
  "contractName": "TransferControllerManager",
  "abi": [
    {
      "inputs": [
        {
          "internalType": "address",
          "name": "deployer",
          "type": "address"
        }
      ],
      "payable": false,
      "stateMutability": "nonpayable",
      "type": "constructor"
    },
    {
      "anonymous": false,
      "inputs": [
        {
          "indexed": false,
          "internalType": "address",
          "name": "currencyCt",
          "type": "address"
        }
      ],
      "name": "BlacklistCurrencyEvent",
      "type": "event"
    },
    {
      "anonymous": false,
      "inputs": [
        {
          "indexed": false,
          "internalType": "address",
          "name": "currencyCt",
          "type": "address"
        }
      ],
      "name": "DeregisterCurrencyEvent",
      "type": "event"
    },
    {
      "anonymous": false,
      "inputs": [
        {
          "indexed": false,
          "internalType": "string",
          "name": "oldStandard",
          "type": "string"
        },
        {
          "indexed": false,
          "internalType": "string",
          "name": "newStandard",
          "type": "string"
        },
        {
          "indexed": false,
          "internalType": "address",
          "name": "controller",
          "type": "address"
        }
      ],
      "name": "ReassociateTransferControllerEvent",
      "type": "event"
    },
    {
      "anonymous": false,
      "inputs": [
        {
          "indexed": false,
          "internalType": "address",
          "name": "currencyCt",
          "type": "address"
        },
        {
          "indexed": false,
          "internalType": "string",
          "name": "standard",
          "type": "string"
        }
      ],
      "name": "RegisterCurrencyEvent",
      "type": "event"
    },
    {
      "anonymous": false,
      "inputs": [
        {
          "indexed": false,
          "internalType": "string",
          "name": "standard",
          "type": "string"
        },
        {
          "indexed": false,
          "internalType": "address",
          "name": "controller",
          "type": "address"
        }
      ],
      "name": "RegisterTransferControllerEvent",
      "type": "event"
    },
    {
      "anonymous": false,
      "inputs": [
        {
          "indexed": false,
          "internalType": "address",
          "name": "wallet",
          "type": "address"
        }
      ],
      "name": "SelfDestructionDisabledEvent",
      "type": "event"
    },
    {
      "anonymous": false,
      "inputs": [
        {
          "indexed": false,
          "internalType": "address",
          "name": "oldDeployer",
          "type": "address"
        },
        {
          "indexed": false,
          "internalType": "address",
          "name": "newDeployer",
          "type": "address"
        }
      ],
      "name": "SetDeployerEvent",
      "type": "event"
    },
    {
      "anonymous": false,
      "inputs": [
        {
          "indexed": false,
          "internalType": "address",
          "name": "oldOperator",
          "type": "address"
        },
        {
          "indexed": false,
          "internalType": "address",
          "name": "newOperator",
          "type": "address"
        }
      ],
      "name": "SetOperatorEvent",
      "type": "event"
    },
    {
      "anonymous": false,
      "inputs": [
        {
          "indexed": false,
          "internalType": "address",
          "name": "wallet",
          "type": "address"
        }
      ],
      "name": "TriggerSelfDestructionEvent",
      "type": "event"
    },
    {
      "anonymous": false,
      "inputs": [
        {
          "indexed": false,
          "internalType": "address",
          "name": "currencyCt",
          "type": "address"
        }
      ],
      "name": "WhitelistCurrencyEvent",
      "type": "event"
    },
    {
      "constant": true,
      "inputs": [],
      "name": "deployer",
      "outputs": [
        {
          "internalType": "address",
          "name": "",
          "type": "address"
        }
      ],
      "payable": false,
      "stateMutability": "view",
      "type": "function"
    },
    {
      "constant": true,
      "inputs": [],
      "name": "destructor",
      "outputs": [
        {
          "internalType": "address",
          "name": "",
          "type": "address"
        }
      ],
      "payable": false,
      "stateMutability": "view",
      "type": "function"
    },
    {
      "constant": false,
      "inputs": [],
      "name": "disableSelfDestruction",
      "outputs": [],
      "payable": false,
      "stateMutability": "nonpayable",
      "type": "function"
    },
    {
      "constant": true,
      "inputs": [],
      "name": "operator",
      "outputs": [
        {
          "internalType": "address",
          "name": "",
          "type": "address"
        }
      ],
      "payable": false,
      "stateMutability": "view",
      "type": "function"
    },
    {
      "constant": true,
      "inputs": [
        {
          "internalType": "address",
          "name": "",
          "type": "address"
        }
      ],
      "name": "registeredCurrencies",
      "outputs": [
        {
          "internalType": "bytes32",
          "name": "standard",
          "type": "bytes32"
        },
        {
          "internalType": "bool",
          "name": "blacklisted",
          "type": "bool"
        }
      ],
      "payable": false,
      "stateMutability": "view",
      "type": "function"
    },
    {
      "constant": true,
      "inputs": [
        {
          "internalType": "bytes32",
          "name": "",
          "type": "bytes32"
        }
      ],
      "name": "registeredTransferControllers",
      "outputs": [
        {
          "internalType": "address",
          "name": "",
          "type": "address"
        }
      ],
      "payable": false,
      "stateMutability": "view",
      "type": "function"
    },
    {
      "constant": true,
      "inputs": [],
      "name": "selfDestructionDisabled",
      "outputs": [
        {
          "internalType": "bool",
          "name": "",
          "type": "bool"
        }
      ],
      "payable": false,
      "stateMutability": "view",
      "type": "function"
    },
    {
      "constant": false,
      "inputs": [
        {
          "internalType": "address",
          "name": "newDeployer",
          "type": "address"
        }
      ],
      "name": "setDeployer",
      "outputs": [],
      "payable": false,
      "stateMutability": "nonpayable",
      "type": "function"
    },
    {
      "constant": false,
      "inputs": [
        {
          "internalType": "address",
          "name": "newOperator",
          "type": "address"
        }
      ],
      "name": "setOperator",
      "outputs": [],
      "payable": false,
      "stateMutability": "nonpayable",
      "type": "function"
    },
    {
      "constant": false,
      "inputs": [],
      "name": "triggerSelfDestruction",
      "outputs": [],
      "payable": false,
      "stateMutability": "nonpayable",
      "type": "function"
    },
    {
      "constant": false,
      "inputs": [
        {
          "internalType": "string",
          "name": "standard",
          "type": "string"
        },
        {
          "internalType": "address",
          "name": "controller",
          "type": "address"
        }
      ],
      "name": "registerTransferController",
      "outputs": [],
      "payable": false,
      "stateMutability": "nonpayable",
      "type": "function"
    },
    {
      "constant": false,
      "inputs": [
        {
          "internalType": "string",
          "name": "oldStandard",
          "type": "string"
        },
        {
          "internalType": "string",
          "name": "newStandard",
          "type": "string"
        },
        {
          "internalType": "address",
          "name": "controller",
          "type": "address"
        }
      ],
      "name": "reassociateTransferController",
      "outputs": [],
      "payable": false,
      "stateMutability": "nonpayable",
      "type": "function"
    },
    {
      "constant": false,
      "inputs": [
        {
          "internalType": "address",
          "name": "currencyCt",
          "type": "address"
        },
        {
          "internalType": "string",
          "name": "standard",
          "type": "string"
        }
      ],
      "name": "registerCurrency",
      "outputs": [],
      "payable": false,
      "stateMutability": "nonpayable",
      "type": "function"
    },
    {
      "constant": false,
      "inputs": [
        {
          "internalType": "address",
          "name": "currencyCt",
          "type": "address"
        }
      ],
      "name": "deregisterCurrency",
      "outputs": [],
      "payable": false,
      "stateMutability": "nonpayable",
      "type": "function"
    },
    {
      "constant": false,
      "inputs": [
        {
          "internalType": "address",
          "name": "currencyCt",
          "type": "address"
        }
      ],
      "name": "blacklistCurrency",
      "outputs": [],
      "payable": false,
      "stateMutability": "nonpayable",
      "type": "function"
    },
    {
      "constant": false,
      "inputs": [
        {
          "internalType": "address",
          "name": "currencyCt",
          "type": "address"
        }
      ],
      "name": "whitelistCurrency",
      "outputs": [],
      "payable": false,
      "stateMutability": "nonpayable",
      "type": "function"
    },
    {
      "constant": true,
      "inputs": [
        {
          "internalType": "address",
          "name": "currencyCt",
          "type": "address"
        },
        {
          "internalType": "string",
          "name": "standard",
          "type": "string"
        }
      ],
      "name": "transferController",
      "outputs": [
        {
          "internalType": "contract TransferController",
          "name": "",
          "type": "address"
        }
      ],
      "payable": false,
      "stateMutability": "view",
      "type": "function"
    }
  ],
  "bytecode": "0x608060405234801561001057600080fd5b506040516114ed3803806114ed8339818101604052602081101561003357600080fd5b505180806001600160a01b03811661004a57600080fd5b6001600160a01b03811630141561006057600080fd5b50600080546001600160a01b039092166101008102610100600160a81b0319909316929092179055600180546001600160a01b031916909117905550611442806100ab6000396000f3fe608060405234801561001057600080fd5b50600436106100db5760003560e01c8063037d5c60146100e05780632738a112146101085780632f013a00146101105780634476d23b1461012c57806352defbd0146101505780635694012c14610176578063570ca7351461019357806370327ea11461019b57806382d0f069146101a357806396214735146101c9578063b09fea02146101ef578063b3ab15fb146102b6578063c8a483b0146102dc578063ca9f15cc14610390578063d5b2ebc4146103cf578063d5f394881461044d578063fae0440114610455575b600080fd5b610106600480360360208110156100f657600080fd5b50356001600160a01b03166104cc565b005b610106610590565b6101186105f2565b604080519115158252519081900360200190f35b6101346105fb565b604080516001600160a01b039092168252519081900360200190f35b6101066004803603602081101561016657600080fd5b50356001600160a01b031661060f565b6101346004803603602081101561018c57600080fd5b50356106d4565b6101346106ef565b6101066106fe565b610106600480360360208110156101b957600080fd5b50356001600160a01b031661075c565b610106600480360360208110156101df57600080fd5b50356001600160a01b031661081c565b6101066004803603606081101561020557600080fd5b810190602081018135600160201b81111561021f57600080fd5b82018360208201111561023157600080fd5b803590602001918460018302840111600160201b8311171561025257600080fd5b919390929091602081019035600160201b81111561026f57600080fd5b82018360208201111561028157600080fd5b803590602001918460018302840111600160201b831117156102a257600080fd5b9193509150356001600160a01b03166108e0565b610106600480360360208110156102cc57600080fd5b50356001600160a01b0316610b32565b610134600480360360408110156102f257600080fd5b6001600160a01b038235169190810190604081016020820135600160201b81111561031c57600080fd5b82018360208201111561032e57600080fd5b803590602001918460018302840111600160201b8311171561034f57600080fd5b91908080601f016020809104026020016040519081016040528093929190818152602001838380828437600092019190915250929550610be6945050505050565b6103b6600480360360208110156103a657600080fd5b50356001600160a01b0316610df2565b6040805192835290151560208301528051918290030190f35b610106600480360360408110156103e557600080fd5b6001600160a01b038235169190810190604081016020820135600160201b81111561040f57600080fd5b82018360208201111561042157600080fd5b803590602001918460018302840111600160201b8311171561044257600080fd5b509092509050610e0e565b610134610f82565b6101066004803603604081101561046b57600080fd5b810190602081018135600160201b81111561048557600080fd5b82018360208201111561049757600080fd5b803590602001918460018302840111600160201b831117156104b857600080fd5b9193509150356001600160a01b0316610f96565b6104d46110bf565b6104dd57600080fd5b6001600160a01b0381166000908152600360205260409020546105315760405162461bcd60e51b815260040180806020018281038252603b815260200180611122603b913960400191505060405180910390fd5b6001600160a01b03811660008181526003602090815260408083209283556001909201805460ff19169055815192835290517f48bde37183b81e5182954496619e672d00f52ae5fd01664d5032348c4676f65c9281900390910190a150565b336105996105fb565b6001600160a01b0316146105ac57600080fd5b60005460ff16156105bc57600080fd5b6040805133815290517f787a5d936e74f4b564b9153575886059829c78cd9927b1be5e0d976b317ef7369181900360200190a133ff5b60005460ff1681565b60005461010090046001600160a01b031690565b6106176110bf565b61062057600080fd5b6001600160a01b0381166000908152600360205260409020546106745760405162461bcd60e51b815260040180806020018281038252603b8152602001806110e7603b913960400191505060405180910390fd5b6001600160a01b0381166000818152600360209081526040918290206001908101805460ff19169091179055815192835290517f2a86530fc01f27be3297b162029c6ccfce22c9706f37a5560dc3ab0b5f20b5829281900390910190a150565b6002602052600090815260409020546001600160a01b031681565b6001546001600160a01b031681565b336107076105fb565b6001600160a01b03161461071a57600080fd5b6000805460ff191660011790556040805133815290517fd5a2a04a775c741c2ca0dc46ea7ce4835190e1aaf1ca018def0e82568ec336169181900360200190a1565b6107646110bf565b61076d57600080fd5b6001600160a01b0381166000908152600360205260409020546107c15760405162461bcd60e51b815260040180806020018281038252603b815260200180611395603b913960400191505060405180910390fd5b6001600160a01b038116600081815260036020908152604091829020600101805460ff19169055815192835290517f30fd9df155e90b8c1828017bc5530775e53ea9ccb99fd698227d9c34ec6434989281900390910190a150565b6108246110d0565b61082d57600080fd5b806001600160a01b03811661084157600080fd5b6001600160a01b03811630141561085757600080fd5b6000546001600160a01b0383811661010090920416146108dc57600080546001600160a01b03848116610100818102610100600160a81b03198516179094556040805194909304919091168084526020840191909152815190927f977e5fa58e458501775e0008d275006294c5249e3c08d1d0e3a9f3acad14f6e492908290030190a1505b5050565b6108e86110d0565b6108f157600080fd5b806001600160a01b03811661090557600080fd5b826109415760405162461bcd60e51b815260040180806020018281038252604381526020018061115d6043913960600191505060405180910390fd5b6000868660405160200180838380828437808301925050509250505060405160208183030381529060405280519060200120905060008585604051602001808383808284376040805191909301818103601f19018252835280516020918201206000898152600290925292902054919550506001600160a01b0316151592506109fe9150505760405162461bcd60e51b815260040180806020018281038252603e8152602001806113d0603e913960400191505060405180910390fd5b6000818152600260205260409020546001600160a01b031615610a525760405162461bcd60e51b81526004018080602001828103825260458152602001806112916045913960600191505060405180910390fd5b6000828152600260209081526040808320805485855282852080546001600160a01b03199081166001600160a01b03938416179091559487905281549094169055805192871690830152606080835282018990527ffecb70674913cca083a8c17c9a210e37eb4c0260f9089a90181f6310fe9c98c7918a918a918a918a918a918190810160808201888880828437600083820152601f01601f191690910184810383528681526020019050868680828437600083820152604051601f909101601f1916909201829003995090975050505050505050a15050505050505050565b610b3a6110bf565b610b4357600080fd5b806001600160a01b038116610b5757600080fd5b6001600160a01b038116301415610b6d57600080fd5b6001546001600160a01b038381169116146108dc57600180546001600160a01b038481166001600160a01b0319831681179093556040805191909216808252602082019390935281517f9f611b789425d0d5b90b920f1b2852907dd865c80074a30b1629aaa041d1812c929181900390910190a1505050565b805160009015610cd6576000826040516020018082805190602001908083835b60208310610c255780518252601f199092019160209182019101610c06565b51815160209384036101000a60001901801990921691161790526040805192909401828103601f1901835284528151918101919091206000818152600290925292902054919450506001600160a01b031615159150610cb790505760405162461bcd60e51b815260040180806020018281038252603b815260200180611319603b913960400191505060405180910390fd5b6000908152600260205260409020546001600160a01b03169050610dec565b6001600160a01b038316600090815260036020526040902054610d2a5760405162461bcd60e51b815260040180806020018281038252603b8152602001806111a0603b913960400191505060405180910390fd5b6001600160a01b03831660009081526003602052604090206001015460ff1615610d855760405162461bcd60e51b81526004018080602001828103825260388152602001806112596038913960400191505060405180910390fd5b6001600160a01b03808416600090815260036020908152604080832054835260029091529020541680610de95760405162461bcd60e51b81526004018080602001828103825260438152602001806112d66043913960600191505060405180910390fd5b90505b92915050565b6003602052600090815260409020805460019091015460ff1682565b610e166110bf565b610e1f57600080fd5b826001600160a01b038116610e3357600080fd5b81610e6f5760405162461bcd60e51b815260040180806020018281038252603f81526020018061121a603f913960400191505060405180910390fd5b60008383604051602001808383808284376040805191909301818103601f19018252835280516020918201206001600160a01b038c16600090815260039092529290205491955050159250610ef89150505760405162461bcd60e51b81526004018080602001828103825260418152602001806113546041913960600191505060405180910390fd5b6001600160a01b038516600081815260036020908152604091829020849055815192835282018181529082018590527f2c811bfac64873f4d1624d4f8dc6beaa8bf88eeb4983a0d9a806811ac15769589187918791879160608201848480828437600083820152604051601f909101601f1916909201829003965090945050505050a15050505050565b60005461010090046001600160a01b031681565b610f9e6110d0565b610fa757600080fd5b806001600160a01b038116610fbb57600080fd5b82610ff75760405162461bcd60e51b815260040180806020018281038252603f8152602001806111db603f913960400191505060405180910390fd5b60008484604051602001808383808284376040805191909301818103601f19018252808452815160209283012060008181526002845285902080546001600160a01b0319166001600160a01b038d16908117909155928201929092528381529283018a905295507f8aef53601a525034374debb888df9d39b9f9e4c16a8aa4ea1728cbf264719c149450899350889250879190508060608101858580828437600083820152604051601f909101601f1916909201829003965090945050505050a15050505050565b6001546001600160a01b0316331490565b60005461010090046001600160a01b031633149056fe43757272656e6379206e6f742072656769737465726564205b5472616e73666572436f6e74726f6c6c65724d616e616765722e736f6c3a3131395d43757272656e6379206e6f742072656769737465726564205b5472616e73666572436f6e74726f6c6c65724d616e616765722e736f6c3a3130365d456d707479206e6577207374616e64617264206e6f7420737570706f72746564205b5472616e73666572436f6e74726f6c6c65724d616e616765722e736f6c3a37325d43757272656e6379206e6f742072656769737465726564205b5472616e73666572436f6e74726f6c6c65724d616e616765722e736f6c3a3135345d456d707479207374616e64617264206e6f7420737570706f72746564205b5472616e73666572436f6e74726f6c6c65724d616e616765722e736f6c3a35385d456d707479207374616e64617264206e6f7420737570706f72746564205b5472616e73666572436f6e74726f6c6c65724d616e616765722e736f6c3a39315d43757272656e637920626c61636b6c6973746564205b5472616e73666572436f6e74726f6c6c65724d616e616765722e736f6c3a3135355d4e6577207374616e646172642070726576696f75736c792072656769737465726564205b5472616e73666572436f6e74726f6c6c65724d616e616765722e736f6c3a37375d4e6f206d61746368696e67207472616e7366657220636f6e74726f6c6c6572205b5472616e73666572436f6e74726f6c6c65724d616e616765722e736f6c3a3135385d5374616e64617264206e6f742072656769737465726564205b5472616e73666572436f6e74726f6c6c65724d616e616765722e736f6c3a3135305d43757272656e63792070726576696f75736c792072656769737465726564205b5472616e73666572436f6e74726f6c6c65724d616e616765722e736f6c3a39345d43757272656e6379206e6f742072656769737465726564205b5472616e73666572436f6e74726f6c6c65724d616e616765722e736f6c3a3133315d4f6c64207374616e64617264206e6f742072656769737465726564205b5472616e73666572436f6e74726f6c6c65724d616e616765722e736f6c3a37365da265627a7a72315820b81fba4bc0b3349acd680177decc34b88eb7fc970e6350cc6a05d0076ede62f164736f6c634300050c0032",
  "source": "/*\n * Hubii Nahmii\n *\n * Compliant with the Hubii Nahmii specification v0.12.\n *\n * Copyright (C) 2017-2018 Hubii AS\n */\n\npragma solidity >=0.4.25 <0.6.0;\n\nimport {Ownable} from \"./Ownable.sol\";\nimport {TransferController} from \"./TransferController.sol\";\n\n/**\n * @title TransferControllerManager\n * @notice Handles the management of transfer controllers\n */\ncontract TransferControllerManager is Ownable {\n    //\n    // Constants\n    // -----------------------------------------------------------------------------------------------------------------\n    struct CurrencyInfo {\n        bytes32 standard;\n        bool blacklisted;\n    }\n\n    //\n    // Variables\n    // -----------------------------------------------------------------------------------------------------------------\n    mapping(bytes32 => address) public registeredTransferControllers;\n    mapping(address => CurrencyInfo) public registeredCurrencies;\n\n    //\n    // Events\n    // -----------------------------------------------------------------------------------------------------------------\n    event RegisterTransferControllerEvent(string standard, address controller);\n    event ReassociateTransferControllerEvent(string oldStandard, string newStandard, address controller);\n\n    event RegisterCurrencyEvent(address currencyCt, string standard);\n    event DeregisterCurrencyEvent(address currencyCt);\n    event BlacklistCurrencyEvent(address currencyCt);\n    event WhitelistCurrencyEvent(address currencyCt);\n\n    //\n    // Constructor\n    // -----------------------------------------------------------------------------------------------------------------\n    constructor(address deployer) Ownable(deployer) public {\n    }\n\n    //\n    // Functions\n    // -----------------------------------------------------------------------------------------------------------------\n    function registerTransferController(string calldata standard, address controller)\n    external\n    onlyDeployer\n    notNullAddress(controller)\n    {\n        require(bytes(standard).length > 0, \"Empty standard not supported [TransferControllerManager.sol:58]\");\n        bytes32 standardHash = keccak256(abi.encodePacked(standard));\n\n        registeredTransferControllers[standardHash] = controller;\n\n        // Emit event\n        emit RegisterTransferControllerEvent(standard, controller);\n    }\n\n    function reassociateTransferController(string calldata oldStandard, string calldata newStandard, address controller)\n    external\n    onlyDeployer\n    notNullAddress(controller)\n    {\n        require(bytes(newStandard).length > 0, \"Empty new standard not supported [TransferControllerManager.sol:72]\");\n        bytes32 oldStandardHash = keccak256(abi.encodePacked(oldStandard));\n        bytes32 newStandardHash = keccak256(abi.encodePacked(newStandard));\n\n        require(registeredTransferControllers[oldStandardHash] != address(0), \"Old standard not registered [TransferControllerManager.sol:76]\");\n        require(registeredTransferControllers[newStandardHash] == address(0), \"New standard previously registered [TransferControllerManager.sol:77]\");\n\n        registeredTransferControllers[newStandardHash] = registeredTransferControllers[oldStandardHash];\n        registeredTransferControllers[oldStandardHash] = address(0);\n\n        // Emit event\n        emit ReassociateTransferControllerEvent(oldStandard, newStandard, controller);\n    }\n\n    function registerCurrency(address currencyCt, string calldata standard)\n    external\n    onlyOperator\n    notNullAddress(currencyCt)\n    {\n        require(bytes(standard).length > 0, \"Empty standard not supported [TransferControllerManager.sol:91]\");\n        bytes32 standardHash = keccak256(abi.encodePacked(standard));\n\n        require(registeredCurrencies[currencyCt].standard == bytes32(0), \"Currency previously registered [TransferControllerManager.sol:94]\");\n\n        registeredCurrencies[currencyCt].standard = standardHash;\n\n        // Emit event\n        emit RegisterCurrencyEvent(currencyCt, standard);\n    }\n\n    function deregisterCurrency(address currencyCt)\n    external\n    onlyOperator\n    {\n        require(registeredCurrencies[currencyCt].standard != 0, \"Currency not registered [TransferControllerManager.sol:106]\");\n\n        registeredCurrencies[currencyCt].standard = bytes32(0);\n        registeredCurrencies[currencyCt].blacklisted = false;\n\n        // Emit event\n        emit DeregisterCurrencyEvent(currencyCt);\n    }\n\n    function blacklistCurrency(address currencyCt)\n    external\n    onlyOperator\n    {\n        require(registeredCurrencies[currencyCt].standard != bytes32(0), \"Currency not registered [TransferControllerManager.sol:119]\");\n\n        registeredCurrencies[currencyCt].blacklisted = true;\n\n        // Emit event\n        emit BlacklistCurrencyEvent(currencyCt);\n    }\n\n    function whitelistCurrency(address currencyCt)\n    external\n    onlyOperator\n    {\n        require(registeredCurrencies[currencyCt].standard != bytes32(0), \"Currency not registered [TransferControllerManager.sol:131]\");\n\n        registeredCurrencies[currencyCt].blacklisted = false;\n\n        // Emit event\n        emit WhitelistCurrencyEvent(currencyCt);\n    }\n\n    /**\n    @notice The provided standard takes priority over assigned interface to currency\n    */\n    function transferController(address currencyCt, string memory standard)\n    public\n    view\n    returns (TransferController)\n    {\n        if (bytes(standard).length > 0) {\n            bytes32 standardHash = keccak256(abi.encodePacked(standard));\n\n            require(registeredTransferControllers[standardHash] != address(0), \"Standard not registered [TransferControllerManager.sol:150]\");\n            return TransferController(registeredTransferControllers[standardHash]);\n        }\n\n        require(registeredCurrencies[currencyCt].standard != bytes32(0), \"Currency not registered [TransferControllerManager.sol:154]\");\n        require(!registeredCurrencies[currencyCt].blacklisted, \"Currency blacklisted [TransferControllerManager.sol:155]\");\n\n        address controllerAddress = registeredTransferControllers[registeredCurrencies[currencyCt].standard];\n        require(controllerAddress != address(0), \"No matching transfer controller [TransferControllerManager.sol:158]\");\n\n        return TransferController(controllerAddress);\n    }\n}",
  "sourcePath": "/opt/buildagent/work/855e104608380c36/contracts/TransferControllerManager.sol",
  "compiler": {
    "name": "solc",
    "version": "0.5.12+commit.7709ece9.Emscripten.clang"
  },
  "schemaVersion": "2.0.3",
  "updatedAt": "2019-10-23T00:21:41.343Z"
}