{
  "contractName": "Upgradable",
  "abi": [
    {
      "anonymous": false,
      "inputs": [],
      "name": "FreezeUpgradesEvent",
      "type": "event"
    },
    {
      "anonymous": false,
      "inputs": [
        {
          "indexed": false,
          "internalType": "address",
          "name": "upgradeAgent",
          "type": "address"
        }
      ],
      "name": "SetUpgradeAgentEvent",
      "type": "event"
    },
    {
      "constant": true,
      "inputs": [],
      "name": "upgradeAgent",
      "outputs": [
        {
          "internalType": "address",
          "name": "",
          "type": "address"
        }
      ],
      "payable": false,
      "stateMutability": "view",
      "type": "function"
    },
    {
      "constant": true,
      "inputs": [],
      "name": "upgradesFrozen",
      "outputs": [
        {
          "internalType": "bool",
          "name": "",
          "type": "bool"
        }
      ],
      "payable": false,
      "stateMutability": "view",
      "type": "function"
    },
    {
      "constant": false,
      "inputs": [
        {
          "internalType": "address",
          "name": "_upgradeAgent",
          "type": "address"
        }
      ],
      "name": "setUpgradeAgent",
      "outputs": [],
      "payable": false,
      "stateMutability": "nonpayable",
      "type": "function"
    },
    {
      "constant": false,
      "inputs": [],
      "name": "freezeUpgrades",
      "outputs": [],
      "payable": false,
      "stateMutability": "nonpayable",
      "type": "function"
    }
  ],
  "bytecode": "0x608060405234801561001057600080fd5b5061038d806100206000396000f3fe608060405234801561001057600080fd5b506004361061004c5760003560e01c8063152d0731146100515780635de4ccb01461005b5780636d4393721461007f578063d7e7088a1461009b575b600080fd5b6100596100c1565b005b61006361018f565b604080516001600160a01b039092168252519081900360200190f35b61008761019e565b604080519115158252519081900360200190f35b610059600480360360208110156100b157600080fd5b50356001600160a01b03166101ae565b6000546001600160a01b0316331461010a5760405162461bcd60e51b815260040180806020018281038252602f8152602001806102f4602f913960400191505060405180910390fd5b600054600160a01b900460ff16156101535760405162461bcd60e51b815260040180806020018281038252602d8152602001806102c7602d913960400191505060405180910390fd5b6000805460ff60a01b1916600160a01b1781556040517f256d81afb4cac3b3b3d32a91f6efd3463a78d7a9453a93cb0132f36a23972d429190a1565b6000546001600160a01b031681565b600054600160a01b900460ff1681565b600054600160a01b900460ff16156101f75760405162461bcd60e51b815260040180806020018281038252602d81526020018061029a602d913960400191505060405180910390fd5b6000546001600160a01b03161561023f5760405162461bcd60e51b81526004018080602001828103825260368152602001806103236036913960400191505060405180910390fd5b600080546001600160a01b0319166001600160a01b03838116919091179182905560408051929091168252517f17c27d402d17bcdbb9529dd01c9816f15dd0c961a9f86427efafa8910bbd1e84916020908290030190a15056fe55706772616465732068617665206265656e2066726f7a656e205b55706772616461626c652e736f6c3a36395d55706772616465732068617665206265656e2066726f7a656e205b55706772616461626c652e736f6c3a36345d43616c6c6572206973206e6f742075706772616465206167656e74205b55706772616461626c652e736f6c3a36335d55706772616465206167656e742068617320616c7265616479206265656e20736574205b55706772616461626c652e736f6c3a33375da265627a7a72315820a289adc060cfa09f64bd87e0ea9a9141af6402ae1cfd5335fab5733f058d5b7864736f6c634300050c0032",
  "source": "/*\n * Hubii Nahmii\n *\n * Compliant with the Hubii Nahmii specification v0.12.\n *\n * Copyright (C) 2017-2018 Hubii AS\n */\n\npragma solidity >=0.4.25 <0.6.0;\n\n/**\n * @title Upgradable\n * @notice A contract with basic upgradability features\n */\ncontract Upgradable {\n    //\n    // Variables\n    // -----------------------------------------------------------------------------------------------------------------\n    address public upgradeAgent;\n    bool public upgradesFrozen;\n\n    //\n    // Events\n    // -----------------------------------------------------------------------------------------------------------------\n    event SetUpgradeAgentEvent(address upgradeAgent);\n    event FreezeUpgradesEvent();\n\n    //\n    // Functions\n    // -----------------------------------------------------------------------------------------------------------------\n    /// @notice Set the upgrade agent of this contract\n    /// @param _upgradeAgent The address of the new upgrade agent\n    function setUpgradeAgent(address _upgradeAgent)\n    public\n    onlyWhenUpgradable\n    {\n        require(address(0) == upgradeAgent, \"Upgrade agent has already been set [Upgradable.sol:37]\");\n\n        // Set the upgrade agent\n        upgradeAgent = _upgradeAgent;\n\n        // Emit event\n        emit SetUpgradeAgentEvent(upgradeAgent);\n    }\n\n    /// @notice Freeze all future upgrades\n    /// @dev This operation can not be undone\n    function freezeUpgrades()\n    public\n    onlyWhenUpgrading\n    {\n        // Freeze upgrade\n        upgradesFrozen = true;\n\n        // Emit event\n        emit FreezeUpgradesEvent();\n    }\n\n    //\n    // Modifiers\n    // -----------------------------------------------------------------------------------------------------------------\n    modifier onlyWhenUpgrading() {\n        require(msg.sender == upgradeAgent, \"Caller is not upgrade agent [Upgradable.sol:63]\");\n        require(!upgradesFrozen, \"Upgrades have been frozen [Upgradable.sol:64]\");\n        _;\n    }\n\n    modifier onlyWhenUpgradable() {\n        require(!upgradesFrozen, \"Upgrades have been frozen [Upgradable.sol:69]\");\n        _;\n    }\n}",
  "sourcePath": "/opt/buildagent/work/855e104608380c36/contracts/Upgradable.sol",
  "compiler": {
    "name": "solc",
    "version": "0.5.12+commit.7709ece9.Emscripten.clang"
  },
  "schemaVersion": "2.0.3",
  "updatedAt": "2019-10-22T21:00:29.518Z"
}