{
  "contractName": "WalletLocker",
  "abi": [
    {
      "constant": false,
      "inputs": [
        {
          "name": "service",
          "type": "address"
        }
      ],
      "name": "authorizeRegisteredService",
      "outputs": [],
      "payable": false,
      "stateMutability": "nonpayable",
      "type": "function"
    },
    {
      "constant": true,
      "inputs": [
        {
          "name": "service",
          "type": "address"
        },
        {
          "name": "action",
          "type": "string"
        },
        {
          "name": "wallet",
          "type": "address"
        }
      ],
      "name": "isAuthorizedRegisteredServiceAction",
      "outputs": [
        {
          "name": "",
          "type": "bool"
        }
      ],
      "payable": false,
      "stateMutability": "view",
      "type": "function"
    },
    {
      "constant": true,
      "inputs": [
        {
          "name": "service",
          "type": "address"
        }
      ],
      "name": "isRegisteredActiveService",
      "outputs": [
        {
          "name": "",
          "type": "bool"
        }
      ],
      "payable": false,
      "stateMutability": "view",
      "type": "function"
    },
    {
      "constant": true,
      "inputs": [
        {
          "name": "",
          "type": "address"
        }
      ],
      "name": "initialServiceAuthorizedMap",
      "outputs": [
        {
          "name": "",
          "type": "bool"
        }
      ],
      "payable": false,
      "stateMutability": "view",
      "type": "function"
    },
    {
      "constant": true,
      "inputs": [
        {
          "name": "",
          "type": "address"
        },
        {
          "name": "",
          "type": "address"
        },
        {
          "name": "",
          "type": "uint256"
        }
      ],
      "name": "walletCurrencyFungibleLockCount",
      "outputs": [
        {
          "name": "",
          "type": "uint256"
        }
      ],
      "payable": false,
      "stateMutability": "view",
      "type": "function"
    },
    {
      "constant": true,
      "inputs": [
        {
          "name": "",
          "type": "address"
        },
        {
          "name": "",
          "type": "uint256"
        }
      ],
      "name": "walletNonFungibleLocks",
      "outputs": [
        {
          "name": "locker",
          "type": "address"
        },
        {
          "name": "currencyCt",
          "type": "address"
        },
        {
          "name": "currencyId",
          "type": "uint256"
        },
        {
          "name": "visibleTime",
          "type": "uint256"
        },
        {
          "name": "unlockTime",
          "type": "uint256"
        }
      ],
      "payable": false,
      "stateMutability": "view",
      "type": "function"
    },
    {
      "constant": false,
      "inputs": [],
      "name": "triggerSelfDestruction",
      "outputs": [],
      "payable": false,
      "stateMutability": "nonpayable",
      "type": "function"
    },
    {
      "constant": true,
      "inputs": [
        {
          "name": "",
          "type": "address"
        },
        {
          "name": "",
          "type": "address"
        },
        {
          "name": "",
          "type": "uint256"
        }
      ],
      "name": "walletCurrencyNonFungibleLockCount",
      "outputs": [
        {
          "name": "",
          "type": "uint256"
        }
      ],
      "payable": false,
      "stateMutability": "view",
      "type": "function"
    },
    {
      "constant": false,
      "inputs": [
        {
          "name": "service",
          "type": "address"
        },
        {
          "name": "action",
          "type": "string"
        }
      ],
      "name": "enableServiceAction",
      "outputs": [],
      "payable": false,
      "stateMutability": "nonpayable",
      "type": "function"
    },
    {
      "constant": true,
      "inputs": [
        {
          "name": "service",
          "type": "address"
        }
      ],
      "name": "isRegisteredService",
      "outputs": [
        {
          "name": "",
          "type": "bool"
        }
      ],
      "payable": false,
      "stateMutability": "view",
      "type": "function"
    },
    {
      "constant": true,
      "inputs": [],
      "name": "selfDestructionDisabled",
      "outputs": [
        {
          "name": "",
          "type": "bool"
        }
      ],
      "payable": false,
      "stateMutability": "view",
      "type": "function"
    },
    {
      "constant": false,
      "inputs": [
        {
          "name": "service",
          "type": "address"
        },
        {
          "name": "action",
          "type": "string"
        }
      ],
      "name": "disableServiceAction",
      "outputs": [],
      "payable": false,
      "stateMutability": "nonpayable",
      "type": "function"
    },
    {
      "constant": true,
      "inputs": [],
      "name": "serviceActivationTimeout",
      "outputs": [
        {
          "name": "",
          "type": "uint256"
        }
      ],
      "payable": false,
      "stateMutability": "view",
      "type": "function"
    },
    {
      "constant": true,
      "inputs": [],
      "name": "destructor",
      "outputs": [
        {
          "name": "",
          "type": "address"
        }
      ],
      "payable": false,
      "stateMutability": "view",
      "type": "function"
    },
    {
      "constant": false,
      "inputs": [
        {
          "name": "service",
          "type": "address"
        }
      ],
      "name": "authorizeInitialService",
      "outputs": [],
      "payable": false,
      "stateMutability": "nonpayable",
      "type": "function"
    },
    {
      "constant": false,
      "inputs": [
        {
          "name": "service",
          "type": "address"
        }
      ],
      "name": "deregisterService",
      "outputs": [],
      "payable": false,
      "stateMutability": "nonpayable",
      "type": "function"
    },
    {
      "constant": true,
      "inputs": [],
      "name": "operator",
      "outputs": [
        {
          "name": "",
          "type": "address"
        }
      ],
      "payable": false,
      "stateMutability": "view",
      "type": "function"
    },
    {
      "constant": true,
      "inputs": [
        {
          "name": "service",
          "type": "address"
        },
        {
          "name": "wallet",
          "type": "address"
        }
      ],
      "name": "isAuthorizedRegisteredService",
      "outputs": [
        {
          "name": "",
          "type": "bool"
        }
      ],
      "payable": false,
      "stateMutability": "view",
      "type": "function"
    },
    {
      "constant": true,
      "inputs": [
        {
          "name": "service",
          "type": "address"
        },
        {
          "name": "action",
          "type": "string"
        }
      ],
      "name": "isEnabledServiceAction",
      "outputs": [
        {
          "name": "",
          "type": "bool"
        }
      ],
      "payable": false,
      "stateMutability": "view",
      "type": "function"
    },
    {
      "constant": false,
      "inputs": [
        {
          "name": "newConfiguration",
          "type": "address"
        }
      ],
      "name": "setConfiguration",
      "outputs": [],
      "payable": false,
      "stateMutability": "nonpayable",
      "type": "function"
    },
    {
      "constant": false,
      "inputs": [
        {
          "name": "service",
          "type": "address"
        },
        {
          "name": "action",
          "type": "string"
        }
      ],
      "name": "authorizeRegisteredServiceAction",
      "outputs": [],
      "payable": false,
      "stateMutability": "nonpayable",
      "type": "function"
    },
    {
      "constant": true,
      "inputs": [
        {
          "name": "",
          "type": "address"
        },
        {
          "name": "",
          "type": "address"
        }
      ],
      "name": "initialServiceWalletUnauthorizedMap",
      "outputs": [
        {
          "name": "",
          "type": "bool"
        }
      ],
      "payable": false,
      "stateMutability": "view",
      "type": "function"
    },
    {
      "constant": true,
      "inputs": [
        {
          "name": "",
          "type": "address"
        },
        {
          "name": "",
          "type": "bytes32"
        },
        {
          "name": "",
          "type": "address"
        }
      ],
      "name": "serviceActionWalletTouchedMap",
      "outputs": [
        {
          "name": "",
          "type": "bool"
        }
      ],
      "payable": false,
      "stateMutability": "view",
      "type": "function"
    },
    {
      "constant": true,
      "inputs": [],
      "name": "configuration",
      "outputs": [
        {
          "name": "",
          "type": "address"
        }
      ],
      "payable": false,
      "stateMutability": "view",
      "type": "function"
    },
    {
      "constant": false,
      "inputs": [],
      "name": "disableSelfDestruction",
      "outputs": [],
      "payable": false,
      "stateMutability": "nonpayable",
      "type": "function"
    },
    {
      "constant": true,
      "inputs": [
        {
          "name": "",
          "type": "address"
        },
        {
          "name": "",
          "type": "address"
        }
      ],
      "name": "serviceWalletAuthorizedMap",
      "outputs": [
        {
          "name": "",
          "type": "bool"
        }
      ],
      "payable": false,
      "stateMutability": "view",
      "type": "function"
    },
    {
      "constant": false,
      "inputs": [
        {
          "name": "timeoutInSeconds",
          "type": "uint256"
        }
      ],
      "name": "setServiceActivationTimeout",
      "outputs": [],
      "payable": false,
      "stateMutability": "nonpayable",
      "type": "function"
    },
    {
      "constant": true,
      "inputs": [],
      "name": "initialServiceAuthorizationDisabled",
      "outputs": [
        {
          "name": "",
          "type": "bool"
        }
      ],
      "payable": false,
      "stateMutability": "view",
      "type": "function"
    },
    {
      "constant": true,
      "inputs": [
        {
          "name": "",
          "type": "address"
        },
        {
          "name": "",
          "type": "bytes32"
        },
        {
          "name": "",
          "type": "address"
        }
      ],
      "name": "serviceActionWalletAuthorizedMap",
      "outputs": [
        {
          "name": "",
          "type": "bool"
        }
      ],
      "payable": false,
      "stateMutability": "view",
      "type": "function"
    },
    {
      "constant": true,
      "inputs": [
        {
          "name": "",
          "type": "address"
        },
        {
          "name": "",
          "type": "address"
        },
        {
          "name": "",
          "type": "uint256"
        },
        {
          "name": "",
          "type": "address"
        }
      ],
      "name": "lockedCurrencyLockerNonFungibleLockIndex",
      "outputs": [
        {
          "name": "",
          "type": "uint256"
        }
      ],
      "payable": false,
      "stateMutability": "view",
      "type": "function"
    },
    {
      "constant": false,
      "inputs": [
        {
          "name": "service",
          "type": "address"
        },
        {
          "name": "action",
          "type": "string"
        }
      ],
      "name": "unauthorizeRegisteredServiceAction",
      "outputs": [],
      "payable": false,
      "stateMutability": "nonpayable",
      "type": "function"
    },
    {
      "constant": false,
      "inputs": [
        {
          "name": "service",
          "type": "address"
        }
      ],
      "name": "registerServiceDeferred",
      "outputs": [],
      "payable": false,
      "stateMutability": "nonpayable",
      "type": "function"
    },
    {
      "constant": false,
      "inputs": [
        {
          "name": "newDeployer",
          "type": "address"
        }
      ],
      "name": "setDeployer",
      "outputs": [],
      "payable": false,
      "stateMutability": "nonpayable",
      "type": "function"
    },
    {
      "constant": false,
      "inputs": [
        {
          "name": "service",
          "type": "address"
        }
      ],
      "name": "unauthorizeRegisteredService",
      "outputs": [],
      "payable": false,
      "stateMutability": "nonpayable",
      "type": "function"
    },
    {
      "constant": true,
      "inputs": [
        {
          "name": "",
          "type": "address"
        },
        {
          "name": "",
          "type": "address"
        },
        {
          "name": "",
          "type": "uint256"
        },
        {
          "name": "",
          "type": "address"
        }
      ],
      "name": "lockedCurrencyLockerFungibleLockIndex",
      "outputs": [
        {
          "name": "",
          "type": "uint256"
        }
      ],
      "payable": false,
      "stateMutability": "view",
      "type": "function"
    },
    {
      "constant": false,
      "inputs": [
        {
          "name": "newOperator",
          "type": "address"
        }
      ],
      "name": "setOperator",
      "outputs": [],
      "payable": false,
      "stateMutability": "nonpayable",
      "type": "function"
    },
    {
      "constant": true,
      "inputs": [],
      "name": "deployer",
      "outputs": [
        {
          "name": "",
          "type": "address"
        }
      ],
      "payable": false,
      "stateMutability": "view",
      "type": "function"
    },
    {
      "constant": false,
      "inputs": [],
      "name": "disableInitialServiceAuthorization",
      "outputs": [],
      "payable": false,
      "stateMutability": "nonpayable",
      "type": "function"
    },
    {
      "constant": true,
      "inputs": [
        {
          "name": "",
          "type": "address"
        },
        {
          "name": "",
          "type": "address"
        },
        {
          "name": "",
          "type": "uint256"
        }
      ],
      "name": "serviceWalletActionList",
      "outputs": [
        {
          "name": "",
          "type": "bytes32"
        }
      ],
      "payable": false,
      "stateMutability": "view",
      "type": "function"
    },
    {
      "constant": true,
      "inputs": [
        {
          "name": "",
          "type": "address"
        },
        {
          "name": "",
          "type": "uint256"
        }
      ],
      "name": "walletFungibleLocks",
      "outputs": [
        {
          "name": "locker",
          "type": "address"
        },
        {
          "name": "currencyCt",
          "type": "address"
        },
        {
          "name": "currencyId",
          "type": "uint256"
        },
        {
          "name": "amount",
          "type": "int256"
        },
        {
          "name": "visibleTime",
          "type": "uint256"
        },
        {
          "name": "unlockTime",
          "type": "uint256"
        }
      ],
      "payable": false,
      "stateMutability": "view",
      "type": "function"
    },
    {
      "constant": false,
      "inputs": [
        {
          "name": "service",
          "type": "address"
        }
      ],
      "name": "registerService",
      "outputs": [],
      "payable": false,
      "stateMutability": "nonpayable",
      "type": "function"
    },
    {
      "inputs": [
        {
          "name": "deployer",
          "type": "address"
        }
      ],
      "payable": false,
      "stateMutability": "nonpayable",
      "type": "constructor"
    },
    {
      "anonymous": false,
      "inputs": [
        {
          "indexed": false,
          "name": "lockedWallet",
          "type": "address"
        },
        {
          "indexed": false,
          "name": "lockerWallet",
          "type": "address"
        },
        {
          "indexed": false,
          "name": "amount",
          "type": "int256"
        },
        {
          "indexed": false,
          "name": "currencyCt",
          "type": "address"
        },
        {
          "indexed": false,
          "name": "currencyId",
          "type": "uint256"
        },
        {
          "indexed": false,
          "name": "visibleTimeoutInSeconds",
          "type": "uint256"
        }
      ],
      "name": "LockFungibleByProxyEvent",
      "type": "event"
    },
    {
      "anonymous": false,
      "inputs": [
        {
          "indexed": false,
          "name": "lockedWallet",
          "type": "address"
        },
        {
          "indexed": false,
          "name": "lockerWallet",
          "type": "address"
        },
        {
          "indexed": false,
          "name": "ids",
          "type": "int256[]"
        },
        {
          "indexed": false,
          "name": "currencyCt",
          "type": "address"
        },
        {
          "indexed": false,
          "name": "currencyId",
          "type": "uint256"
        },
        {
          "indexed": false,
          "name": "visibleTimeoutInSeconds",
          "type": "uint256"
        }
      ],
      "name": "LockNonFungibleByProxyEvent",
      "type": "event"
    },
    {
      "anonymous": false,
      "inputs": [
        {
          "indexed": false,
          "name": "lockedWallet",
          "type": "address"
        },
        {
          "indexed": false,
          "name": "lockerWallet",
          "type": "address"
        },
        {
          "indexed": false,
          "name": "amount",
          "type": "int256"
        },
        {
          "indexed": false,
          "name": "currencyCt",
          "type": "address"
        },
        {
          "indexed": false,
          "name": "currencyId",
          "type": "uint256"
        }
      ],
      "name": "UnlockFungibleEvent",
      "type": "event"
    },
    {
      "anonymous": false,
      "inputs": [
        {
          "indexed": false,
          "name": "lockedWallet",
          "type": "address"
        },
        {
          "indexed": false,
          "name": "lockerWallet",
          "type": "address"
        },
        {
          "indexed": false,
          "name": "amount",
          "type": "int256"
        },
        {
          "indexed": false,
          "name": "currencyCt",
          "type": "address"
        },
        {
          "indexed": false,
          "name": "currencyId",
          "type": "uint256"
        }
      ],
      "name": "UnlockFungibleByProxyEvent",
      "type": "event"
    },
    {
      "anonymous": false,
      "inputs": [
        {
          "indexed": false,
          "name": "lockedWallet",
          "type": "address"
        },
        {
          "indexed": false,
          "name": "lockerWallet",
          "type": "address"
        },
        {
          "indexed": false,
          "name": "ids",
          "type": "int256[]"
        },
        {
          "indexed": false,
          "name": "currencyCt",
          "type": "address"
        },
        {
          "indexed": false,
          "name": "currencyId",
          "type": "uint256"
        }
      ],
      "name": "UnlockNonFungibleEvent",
      "type": "event"
    },
    {
      "anonymous": false,
      "inputs": [
        {
          "indexed": false,
          "name": "lockedWallet",
          "type": "address"
        },
        {
          "indexed": false,
          "name": "lockerWallet",
          "type": "address"
        },
        {
          "indexed": false,
          "name": "ids",
          "type": "int256[]"
        },
        {
          "indexed": false,
          "name": "currencyCt",
          "type": "address"
        },
        {
          "indexed": false,
          "name": "currencyId",
          "type": "uint256"
        }
      ],
      "name": "UnlockNonFungibleByProxyEvent",
      "type": "event"
    },
    {
      "anonymous": false,
      "inputs": [
        {
          "indexed": false,
          "name": "wallet",
          "type": "address"
        },
        {
          "indexed": false,
          "name": "service",
          "type": "address"
        }
      ],
      "name": "AuthorizeInitialServiceEvent",
      "type": "event"
    },
    {
      "anonymous": false,
      "inputs": [
        {
          "indexed": false,
          "name": "wallet",
          "type": "address"
        },
        {
          "indexed": false,
          "name": "service",
          "type": "address"
        }
      ],
      "name": "AuthorizeRegisteredServiceEvent",
      "type": "event"
    },
    {
      "anonymous": false,
      "inputs": [
        {
          "indexed": false,
          "name": "wallet",
          "type": "address"
        },
        {
          "indexed": false,
          "name": "service",
          "type": "address"
        },
        {
          "indexed": false,
          "name": "action",
          "type": "string"
        }
      ],
      "name": "AuthorizeRegisteredServiceActionEvent",
      "type": "event"
    },
    {
      "anonymous": false,
      "inputs": [
        {
          "indexed": false,
          "name": "wallet",
          "type": "address"
        },
        {
          "indexed": false,
          "name": "service",
          "type": "address"
        }
      ],
      "name": "UnauthorizeRegisteredServiceEvent",
      "type": "event"
    },
    {
      "anonymous": false,
      "inputs": [
        {
          "indexed": false,
          "name": "wallet",
          "type": "address"
        },
        {
          "indexed": false,
          "name": "service",
          "type": "address"
        },
        {
          "indexed": false,
          "name": "action",
          "type": "string"
        }
      ],
      "name": "UnauthorizeRegisteredServiceActionEvent",
      "type": "event"
    },
    {
      "anonymous": false,
      "inputs": [
        {
          "indexed": false,
          "name": "timeoutInSeconds",
          "type": "uint256"
        }
      ],
      "name": "ServiceActivationTimeoutEvent",
      "type": "event"
    },
    {
      "anonymous": false,
      "inputs": [
        {
          "indexed": false,
          "name": "service",
          "type": "address"
        }
      ],
      "name": "RegisterServiceEvent",
      "type": "event"
    },
    {
      "anonymous": false,
      "inputs": [
        {
          "indexed": false,
          "name": "service",
          "type": "address"
        },
        {
          "indexed": false,
          "name": "timeout",
          "type": "uint256"
        }
      ],
      "name": "RegisterServiceDeferredEvent",
      "type": "event"
    },
    {
      "anonymous": false,
      "inputs": [
        {
          "indexed": false,
          "name": "service",
          "type": "address"
        }
      ],
      "name": "DeregisterServiceEvent",
      "type": "event"
    },
    {
      "anonymous": false,
      "inputs": [
        {
          "indexed": false,
          "name": "service",
          "type": "address"
        },
        {
          "indexed": false,
          "name": "action",
          "type": "string"
        }
      ],
      "name": "EnableServiceActionEvent",
      "type": "event"
    },
    {
      "anonymous": false,
      "inputs": [
        {
          "indexed": false,
          "name": "service",
          "type": "address"
        },
        {
          "indexed": false,
          "name": "action",
          "type": "string"
        }
      ],
      "name": "DisableServiceActionEvent",
      "type": "event"
    },
    {
      "anonymous": false,
      "inputs": [
        {
          "indexed": false,
          "name": "oldConfiguration",
          "type": "address"
        },
        {
          "indexed": false,
          "name": "newConfiguration",
          "type": "address"
        }
      ],
      "name": "SetConfigurationEvent",
      "type": "event"
    },
    {
      "anonymous": false,
      "inputs": [
        {
          "indexed": false,
          "name": "oldDeployer",
          "type": "address"
        },
        {
          "indexed": false,
          "name": "newDeployer",
          "type": "address"
        }
      ],
      "name": "SetDeployerEvent",
      "type": "event"
    },
    {
      "anonymous": false,
      "inputs": [
        {
          "indexed": false,
          "name": "oldOperator",
          "type": "address"
        },
        {
          "indexed": false,
          "name": "newOperator",
          "type": "address"
        }
      ],
      "name": "SetOperatorEvent",
      "type": "event"
    },
    {
      "anonymous": false,
      "inputs": [
        {
          "indexed": false,
          "name": "wallet",
          "type": "address"
        }
      ],
      "name": "SelfDestructionDisabledEvent",
      "type": "event"
    },
    {
      "anonymous": false,
      "inputs": [
        {
          "indexed": false,
          "name": "wallet",
          "type": "address"
        }
      ],
      "name": "TriggerSelfDestructionEvent",
      "type": "event"
    },
    {
      "constant": false,
      "inputs": [
        {
          "name": "lockedWallet",
          "type": "address"
        },
        {
          "name": "lockerWallet",
          "type": "address"
        },
        {
          "name": "amount",
          "type": "int256"
        },
        {
          "name": "currencyCt",
          "type": "address"
        },
        {
          "name": "currencyId",
          "type": "uint256"
        },
        {
          "name": "visibleTimeoutInSeconds",
          "type": "uint256"
        }
      ],
      "name": "lockFungibleByProxy",
      "outputs": [],
      "payable": false,
      "stateMutability": "nonpayable",
      "type": "function"
    },
    {
      "constant": false,
      "inputs": [
        {
          "name": "lockedWallet",
          "type": "address"
        },
        {
          "name": "lockerWallet",
          "type": "address"
        },
        {
          "name": "ids",
          "type": "int256[]"
        },
        {
          "name": "currencyCt",
          "type": "address"
        },
        {
          "name": "currencyId",
          "type": "uint256"
        },
        {
          "name": "visibleTimeoutInSeconds",
          "type": "uint256"
        }
      ],
      "name": "lockNonFungibleByProxy",
      "outputs": [],
      "payable": false,
      "stateMutability": "nonpayable",
      "type": "function"
    },
    {
      "constant": false,
      "inputs": [
        {
          "name": "lockedWallet",
          "type": "address"
        },
        {
          "name": "lockerWallet",
          "type": "address"
        },
        {
          "name": "currencyCt",
          "type": "address"
        },
        {
          "name": "currencyId",
          "type": "uint256"
        }
      ],
      "name": "unlockFungible",
      "outputs": [],
      "payable": false,
      "stateMutability": "nonpayable",
      "type": "function"
    },
    {
      "constant": false,
      "inputs": [
        {
          "name": "lockedWallet",
          "type": "address"
        },
        {
          "name": "lockerWallet",
          "type": "address"
        },
        {
          "name": "currencyCt",
          "type": "address"
        },
        {
          "name": "currencyId",
          "type": "uint256"
        }
      ],
      "name": "unlockFungibleByProxy",
      "outputs": [],
      "payable": false,
      "stateMutability": "nonpayable",
      "type": "function"
    },
    {
      "constant": false,
      "inputs": [
        {
          "name": "lockedWallet",
          "type": "address"
        },
        {
          "name": "lockerWallet",
          "type": "address"
        },
        {
          "name": "currencyCt",
          "type": "address"
        },
        {
          "name": "currencyId",
          "type": "uint256"
        }
      ],
      "name": "unlockNonFungible",
      "outputs": [],
      "payable": false,
      "stateMutability": "nonpayable",
      "type": "function"
    },
    {
      "constant": false,
      "inputs": [
        {
          "name": "lockedWallet",
          "type": "address"
        },
        {
          "name": "lockerWallet",
          "type": "address"
        },
        {
          "name": "currencyCt",
          "type": "address"
        },
        {
          "name": "currencyId",
          "type": "uint256"
        }
      ],
      "name": "unlockNonFungibleByProxy",
      "outputs": [],
      "payable": false,
      "stateMutability": "nonpayable",
      "type": "function"
    },
    {
      "constant": true,
      "inputs": [
        {
          "name": "wallet",
          "type": "address"
        }
      ],
      "name": "fungibleLocksCount",
      "outputs": [
        {
          "name": "",
          "type": "uint256"
        }
      ],
      "payable": false,
      "stateMutability": "view",
      "type": "function"
    },
    {
      "constant": true,
      "inputs": [
        {
          "name": "wallet",
          "type": "address"
        }
      ],
      "name": "nonFungibleLocksCount",
      "outputs": [
        {
          "name": "",
          "type": "uint256"
        }
      ],
      "payable": false,
      "stateMutability": "view",
      "type": "function"
    },
    {
      "constant": true,
      "inputs": [
        {
          "name": "lockedWallet",
          "type": "address"
        },
        {
          "name": "lockerWallet",
          "type": "address"
        },
        {
          "name": "currencyCt",
          "type": "address"
        },
        {
          "name": "currencyId",
          "type": "uint256"
        }
      ],
      "name": "lockedAmount",
      "outputs": [
        {
          "name": "",
          "type": "int256"
        }
      ],
      "payable": false,
      "stateMutability": "view",
      "type": "function"
    },
    {
      "constant": true,
      "inputs": [
        {
          "name": "lockedWallet",
          "type": "address"
        },
        {
          "name": "lockerWallet",
          "type": "address"
        },
        {
          "name": "currencyCt",
          "type": "address"
        },
        {
          "name": "currencyId",
          "type": "uint256"
        }
      ],
      "name": "lockedIdsCount",
      "outputs": [
        {
          "name": "",
          "type": "uint256"
        }
      ],
      "payable": false,
      "stateMutability": "view",
      "type": "function"
    },
    {
      "constant": true,
      "inputs": [
        {
          "name": "lockedWallet",
          "type": "address"
        },
        {
          "name": "lockerWallet",
          "type": "address"
        },
        {
          "name": "currencyCt",
          "type": "address"
        },
        {
          "name": "currencyId",
          "type": "uint256"
        },
        {
          "name": "low",
          "type": "uint256"
        },
        {
          "name": "up",
          "type": "uint256"
        }
      ],
      "name": "lockedIdsByIndices",
      "outputs": [
        {
          "name": "",
          "type": "int256[]"
        }
      ],
      "payable": false,
      "stateMutability": "view",
      "type": "function"
    },
    {
      "constant": true,
      "inputs": [
        {
          "name": "wallet",
          "type": "address"
        },
        {
          "name": "currencyCt",
          "type": "address"
        },
        {
          "name": "currencyId",
          "type": "uint256"
        }
      ],
      "name": "isLocked",
      "outputs": [
        {
          "name": "",
          "type": "bool"
        }
      ],
      "payable": false,
      "stateMutability": "view",
      "type": "function"
    },
    {
      "constant": true,
      "inputs": [
        {
          "name": "wallet",
          "type": "address"
        }
      ],
      "name": "isLocked",
      "outputs": [
        {
          "name": "",
          "type": "bool"
        }
      ],
      "payable": false,
      "stateMutability": "view",
      "type": "function"
    },
    {
      "constant": true,
      "inputs": [
        {
          "name": "lockedWallet",
          "type": "address"
        },
        {
          "name": "lockerWallet",
          "type": "address"
        },
        {
          "name": "currencyCt",
          "type": "address"
        },
        {
          "name": "currencyId",
          "type": "uint256"
        }
      ],
      "name": "isLocked",
      "outputs": [
        {
          "name": "",
          "type": "bool"
        }
      ],
      "payable": false,
      "stateMutability": "view",
      "type": "function"
    }
  ],
  "bytecode": "0x608060405234801561001057600080fd5b5060405160208062003bc483398101604052518080600160a060020a038116151561003a57600080fd5b600160a060020a03811630141561005057600080fd5b5060008054600160a060020a03909216610100810261010060a860020a031990931692909217905560018054600160a060020a031916909117905550613b28806200009c6000396000f3006080604052600436106102795763ffffffff60e060020a60003504166301f3241f811461027e5780630c5d24fa146102a15780630d0440851461032757806317ba3f901461036957806319507d8a1461038a5780631e1fc7aa146103ab57806320f7e31b146103d55780632738a112146104305780632a4bc762146104455780632b5672e31461046f5780632b879782146104d65780632b91e0a9146105005780632f013a00146105215780633143885d146105365780633b58c501146105665780633b7bea6c146105cd5780634476d23b146105e257806346c5c023146106135780634a4fbeec146106435780634ddf63f6146106645780634ec882171461068557806350b08c02146106a6578063570ca735146106c757806357925b53146106dc5780635c3d8ebc146107035780635df1b0a314610733578063626dd6c31461079a578063627f09c3146107ca57806362ac7621146107eb57806362f1e6b314610852578063677ec9d6146108795780636c70bee9146108a457806370327ea1146108b95780637953d64d146108ce5780637e15dd5c146108f55780637f584f511461090d57806384cfb4091461092257806387f8f8da1461094d5780638a2f30cc1461097e5780638e8cef12146109e55780638ff1642d14610a065780639621473514610a865780639a54532214610aa75780639f45b2ab14610ade578063a3e5175d14610b0e578063b3959e8114610b2f578063b3ab15fb14610b60578063c83b1cab14610b81578063d5f3948814610ba2578063e167d4f614610bb7578063e3d3e9fc14610bcc578063e4d7f54d14610bf6578063e96e48ea14610c59578063fb31154d14610cdf578063fdd9ec7d14610d0f575b600080fd5b34801561028a57600080fd5b5061029f600160a060020a0360043516610d30565b005b3480156102ad57600080fd5b5060408051602060046024803582810135601f8101859004850286018501909652858552610313958335600160a060020a031695369560449491939091019190819084018382808284375094975050509235600160a060020a03169350610e2d92505050565b604080519115158252519081900360200190f35b34801561033357600080fd5b50610357600160a060020a0360043581169060243581169060443516606435610e97565b60408051918252519081900360200190f35b34801561037557600080fd5b50610313600160a060020a0360043516610f6a565b34801561039657600080fd5b50610313600160a060020a0360043516610fa2565b3480156103b757600080fd5b50610357600160a060020a0360043581169060243516604435610fb7565b3480156103e157600080fd5b506103f9600160a060020a0360043516602435610fda565b60408051600160a060020a039687168152949095166020850152838501929092526060830152608082015290519081900360a00190f35b34801561043c57600080fd5b5061029f611034565b34801561045157600080fd5b50610357600160a060020a0360043581169060243516604435611096565b34801561047b57600080fd5b5060408051602060046024803582810135601f810185900485028601850190965285855261029f958335600160a060020a03169536956044949193909101919081908401838280828437509497506110b99650505050505050565b3480156104e257600080fd5b50610313600160a060020a0360043581169060243516604435611255565b34801561050c57600080fd5b50610313600160a060020a03600435166112c7565b34801561052d57600080fd5b506103136112e5565b34801561054257600080fd5b50610313600160a060020a03600435811690602435811690604435166064356112ee565b34801561057257600080fd5b5060408051602060046024803582810135601f810185900485028601850190965285855261029f958335600160a060020a03169536956044949193909101919081908401838280828437509497506113729650505050505050565b3480156105d957600080fd5b50610357611487565b3480156105ee57600080fd5b506105f761148d565b60408051600160a060020a039092168252519081900360200190f35b34801561061f57600080fd5b5061029f600160a060020a03600435811690602435811690604435166064356114a2565b34801561064f57600080fd5b50610313600160a060020a0360043516611575565b34801561067057600080fd5b5061029f600160a060020a03600435166115b3565b34801561069157600080fd5b50610357600160a060020a03600435166116a2565b3480156106b257600080fd5b5061029f600160a060020a03600435166116bd565b3480156106d357600080fd5b506105f761177c565b3480156106e857600080fd5b50610313600160a060020a036004358116906024351661178b565b34801561070f57600080fd5b5061029f600160a060020a03600435811690602435811690604435166064356117de565b34801561073f57600080fd5b5060408051602060046024803582810135601f8101859004850286018501909652858552610313958335600160a060020a03169536956044949193909101919081908401838280828437509497506119219650505050505050565b3480156107a657600080fd5b5061029f600160a060020a0360043581169060243581169060443516606435611971565b3480156107d657600080fd5b5061029f600160a060020a0360043516611a73565b3480156107f757600080fd5b5060408051602060046024803582810135601f810185900485028601850190965285855261029f958335600160a060020a0316953695604494919390910191908190840183828082843750949750611b219650505050505050565b34801561085e57600080fd5b50610313600160a060020a0360043581169060243516611d96565b34801561088557600080fd5b50610313600160a060020a036004358116906024359060443516611db6565b3480156108b057600080fd5b506105f7611ddc565b3480156108c557600080fd5b5061029f611deb565b3480156108da57600080fd5b50610313600160a060020a0360043581169060243516611e49565b34801561090157600080fd5b5061029f600435611e69565b34801561091957600080fd5b50610313611eb7565b34801561092e57600080fd5b50610313600160a060020a036004358116906024359060443516611ec0565b34801561095957600080fd5b50610357600160a060020a036004358116906024358116906044359060643516611ee6565b34801561098a57600080fd5b5060408051602060046024803582810135601f810185900485028601850190965285855261029f958335600160a060020a0316953695604494919390910191908190840183828082843750949750611f129650505050505050565b3480156109f157600080fd5b5061029f600160a060020a0360043516612085565b348015610a1257600080fd5b50604080516020600460443581810135838102808601850190965280855261029f958335600160a060020a03908116966024803590921696369695606495929493019282918501908490808284375094975050508335600160a060020a03169450505060208201359160400135905061211b565b348015610a9257600080fd5b5061029f600160a060020a036004351661258d565b348015610ab357600080fd5b5061029f600160a060020a03600435811690602435811690604435906064351660843560a435612659565b348015610aea57600080fd5b50610357600160a060020a0360043581169060243581169060443516606435612a1f565b348015610b1a57600080fd5b5061029f600160a060020a0360043516612af2565b348015610b3b57600080fd5b50610357600160a060020a036004358116906024358116906044359060643516612ccf565b348015610b6c57600080fd5b5061029f600160a060020a0360043516612cfb565b348015610b8d57600080fd5b50610357600160a060020a0360043516612db8565b348015610bae57600080fd5b506105f7612dd3565b348015610bc357600080fd5b5061029f612de7565b348015610bd857600080fd5b50610357600160a060020a0360043581169060243516604435612e09565b348015610c0257600080fd5b50610c1a600160a060020a0360043516602435612e46565b60408051600160a060020a039788168152959096166020860152848601939093526060840191909152608083015260a082015290519081900360c00190f35b348015610c6557600080fd5b50610c8f600160a060020a036004358116906024358116906044351660643560843560a435612ea5565b60408051602080825283518183015283519192839290830191858101910280838360005b83811015610ccb578181015183820152602001610cb3565b505050509050019250505060405180910390f35b348015610ceb57600080fd5b5061029f600160a060020a03600435811690602435811690604435166064356130c4565b348015610d1b57600080fd5b5061029f600160a060020a0360043516613234565b80600160a060020a0381161515610d4657600080fd5b600160a060020a038116301415610d5c57600080fd5b33600160a060020a0383161415610d7257600080fd5b600160a060020a03821660009081526003602052604090205460ff161515610d9957600080fd5b600160a060020a03821660009081526006602052604090205460ff1615610dbf57600080fd5b600160a060020a03821660008181526008602090815260408083203380855290835292819020805460ff1916600117905580519283529082019290925281517f7406a64e4e8c04b2a11d4cb484eb07cd5762012eafc449900b8d92de008ff27f929181900390910190a15050565b600080610e39846132be565b9050610e458585611921565b8015610e8e5750610e568584613388565b80610e8e5750600160a060020a03808616600090815260096020908152604080832085845282528083209387168352929052205460ff165b95945050505050565b600160a060020a038085166000908152600d60209081526040808320868516845282528083208584528252808320938716835292905290812054801580610f165750600160a060020a0386166000908152600c6020526040902080546000198301908110610f0157fe5b90600052602060002090600602016004015442105b15610f245760009150610f61565b600160a060020a0386166000908152600c6020526040902080546000198301908110610f4c57fe5b90600052602060002090600602016003015491505b50949350505050565b6000610f75826112c7565b8015610f9c5750600160a060020a0382166000908152600360205260409020600101544210155b92915050565b60066020526000908152604090205460ff1681565b600e60209081526000938452604080852082529284528284209052825290205481565b600f60205281600052604060002081815481101515610ff557fe5b600091825260209091206006909102018054600182015460028301546004840154600590940154600160a060020a039384169650929091169350919085565b3361103d61148d565b600160a060020a03161461105057600080fd5b60005460ff161561106057600080fd5b6040805133815290517f787a5d936e74f4b564b9153575886059829c78cd9927b1be5e0d976b317ef7369181900360200190a133ff5b601160209081526000938452604080852082529284528284209052825290205481565b60006110c36133df565b15156110ce57600080fd5b82600160a060020a03811615156110e457600080fd5b600160a060020a0381163014156110fa57600080fd5b600160a060020a03841660009081526003602052604090205460ff16151561112157600080fd5b61112a836132be565b600160a060020a038516600090815260036020908152604080832084845260020190915290205490925060ff161561116157600080fd5b600160a060020a0384166000818152600360208181526040808420878552600281018352818520805460ff191660019081179091558484529301805493840181558452818420909201869055815193845283810182815287519285019290925286517fec1b982d69bfc1a6fd8becf191d9a633486c822d3bdedd52303ca81fa635750194899489949193919260608501928601918190849084905b838110156112145781810151838201526020016111fc565b50505050905090810190601f1680156112415780820380516001836020036101000a031916815260200191505b50935050505060405180910390a150505050565b600160a060020a038084166000908152600e6020908152604080832093861683529281528282208483529052908120548110806112bf5750600160a060020a0380851660009081526011602090815260408083209387168352928152828220858352905290812054115b949350505050565b600160a060020a031660009081526003602052604090205460ff1690565b60005460ff1681565b600160a060020a038085166000908152600d60209081526040808320868516845282528083208584528252808320938716835292905290812054811080610e8e575050600160a060020a0393841660009081526010602090815260408083209487168352938152838220928252918252828120939094168452919091528120541190565b600061137c6133df565b151561138757600080fd5b82600160a060020a038116151561139d57600080fd5b600160a060020a0381163014156113b357600080fd5b6113bc836132be565b600160a060020a038516600090815260036020908152604080832084845260020190915290205490925060ff1615156113f457600080fd5b600160a060020a03841660008181526003602090815260408083208684526002018252808320805460ff19169055805193845283820181815287519185019190915286517f92f4af6130f47c92f3899e06611c8c6ef191fb81207ad2675d134af619d2fe7d94899489949193926060850192860191819084908490838110156112145781810151838201526020016111fc565b60045481565b6000546101009004600160a060020a03165b90565b600080856114b0338261178b565b15156114bb57600080fd5b600160a060020a038088166000908152600d60209081526040808320898516845282528083208884528252808320938a168352929052205492508215156115015761156c565b61150e87878787876133f5565b60408051600160a060020a03808b168252808a166020830152818301849052881660608201526080810187905290519193507f44b1e687f96b503577e1a1adaac6273f07335848df94fe48e287f28c50963cbd919081900360a00190a15b50505050505050565b600160a060020a0381166000908152600c6020526040812054811080610f9c575050600160a060020a03166000908152600f60205260408120541190565b6115bb6133df565b15156115c657600080fd5b80600160a060020a03811615156115dc57600080fd5b600160a060020a0381163014156115f257600080fd5b60055460ff161561160257600080fd5b33600160a060020a038316141561161857600080fd5b600160a060020a03821660009081526003602052604090205460ff16151561163f57600080fd5b600160a060020a038216600081815260066020908152604091829020805460ff1916600117905581513381529081019290925280517f81c5f2034d05958dd641755044582c0aba29a94070f0a2641bb554325328bf1e9281900390910190a15050565b600160a060020a03166000908152600c602052604090205490565b6116c56133df565b15156116d057600080fd5b80600160a060020a03811615156116e657600080fd5b600160a060020a0381163014156116fc57600080fd5b600160a060020a03821660009081526003602052604090205460ff16151561172357600080fd5b600160a060020a038216600081815260036020908152604091829020805460ff19169055815192835290517f777645c5437dfbf962f57a281ead25f3d513f2f8e938685bbfc1738e81c9880e9281900390910190a15050565b600154600160a060020a031681565b600061179683610f6a565b80156117d757506117a78383613388565b806117d75750600160a060020a0380841660009081526008602090815260408083209386168352929052205460ff165b9392505050565b60006060856117ed338261178b565b15156117f857600080fd5b600160a060020a038088166000908152601060209081526040808320898516845282528083208884528252808320938a1683529290522054925082151561183e5761156c565b61184b878787878761362e565b91507fa9f3fc16d93b92d4a61e54a5baf769279629e1c34eca8fb084c91ee01c3f597487878488886040518086600160a060020a0316600160a060020a0316815260200185600160a060020a0316600160a060020a031681526020018060200184600160a060020a0316600160a060020a03168152602001838152602001828103825285818151815260200191508051906020019060200280838360005b838110156119015781810151838201526020016118e9565b50505050905001965050505050505060405180910390a150505050505050565b60008061192d836132be565b905061193884610f6a565b80156112bf5750600160a060020a038416600090815260036020908152604080832084845260020190915290205460ff16949350505050565b600160a060020a038085166000908152600d60209081526040808320868516845282528083208584528252808320938716835292905290812054908115156119b857611a6b565b600160a060020a0386166000908152600c60205260409020805460001984019081106119e057fe5b9060005260206000209060060201600501544210151515611a0057600080fd5b611a0d86868686866133f5565b60408051600160a060020a03808a1682528089166020830152818301849052871660608201526080810186905290519192507f253a872f64b9f53c820b67f6d3a6046d4eb634aec6bf3686df304d1d894dbece919081900360a00190a15b505050505050565b6000611a7d6133df565b1515611a8857600080fd5b81600160a060020a0381161515611a9e57600080fd5b6002548390600160a060020a039081169082168114611b1a5760028054600160a060020a03878116600160a060020a0319831681179093556040805191909216808252602082019390935281519296507f634f61bf00e14adedce330c80c2823e16e184f189ebe853e1ddecc4a268477ff929081900390910190a15b5050505050565b600082600160a060020a0381161515611b3957600080fd5b600160a060020a038116301415611b4f57600080fd5b33600160a060020a0385161415611b6557600080fd5b611b6e836132be565b600160a060020a03851660009081526003602052604090205490925060ff168015611bbf5750600160a060020a038416600090815260036020908152604080832085845260020190915290205460ff165b1515611bca57600080fd5b600160a060020a03841660009081526006602052604090205460ff1615611bf057600080fd5b600160a060020a038416600081815260086020908152604080832033808552908352818420805460ff19908116909155858552600984528285208886528452828520828652845282852080549091166001179055938352600a82528083208684528252808320938352929052205460ff161515611cc357600160a060020a0384166000818152600a60209081526040808320868452825280832033808552908352818420805460ff19166001908117909155948452600b8352818420908452825282208054938401815582529020018290555b7fc007803323f3ca89cb3f8af1a12f354dc108e9dd4988c312b3f7a878914987ce3385856040518084600160a060020a0316600160a060020a0316815260200183600160a060020a0316600160a060020a0316815260200180602001828103825283818151815260200191508051906020019080838360005b83811015611d54578181015183820152602001611d3c565b50505050905090810190601f168015611d815780820380516001836020036101000a031916815260200191505b5094505050505060405180910390a150505050565b600760209081526000928352604080842090915290825290205460ff1681565b600a60209081526000938452604080852082529284528284209052825290205460ff1681565b600254600160a060020a031681565b33611df461148d565b600160a060020a031614611e0757600080fd5b6000805460ff191660011790556040805133815290517fd5a2a04a775c741c2ca0dc46ea7ce4835190e1aaf1ca018def0e82568ec336169181900360200190a1565b600860209081526000928352604080842090915290825290205460ff1681565b611e716133df565b1515611e7c57600080fd5b60048190556040805182815290517f4f1d324a1cbffc352fb64f1d73d95e4b200d92f99ef39bf2d7f5b41f946909d69181900360200190a150565b60055460ff1681565b600960209081526000938452604080852082529284528284209052825290205460ff1681565b601060209081526000948552604080862082529385528385208152918452828420909152825290205481565b600082600160a060020a0381161515611f2a57600080fd5b600160a060020a038116301415611f4057600080fd5b33600160a060020a0385161415611f5657600080fd5b611f5f836132be565b600160a060020a03851660009081526003602052604090205490925060ff168015611fb05750600160a060020a038416600090815260036020908152604080832085845260020190915290205460ff165b1515611fbb57600080fd5b600160a060020a03841660009081526006602052604090205460ff1615611fe157600080fd5b600160a060020a0384166000818152600960209081526040808320868452825280832033808552908352818420805460ff19169055815181815280840195909552606091850182815288519286019290925287517f6fa0cdb0b5c22004ccfcaee11eed450e0184dda8edd417ae2410f0a883fdb7409591948a948a949260808501929186019181908490849083811015611d54578181015183820152602001611d3c565b61208d6133df565b151561209857600080fd5b80600160a060020a03811615156120ae57600080fd5b600160a060020a0381163014156120c457600080fd5b6120d0826004546138c9565b60045460408051600160a060020a0385168152602081019290925280517f7f3a8349917003ed377f6e9ae1608b92edd893903f8983bd274b1f8373dd3b119281900390910190a15050565b600086612128338261178b565b151561213357600080fd5b600160a060020a03888116908816141561214c57600080fd5b600160a060020a038089166000818152601060209081526040808320948a168352938152838220888352815283822092825291909152205491508115806121cc5750600160a060020a0388166000908152600f60205260409020805460001984019081106121b657fe5b9060005260206000209060060201600501544210155b15156121d757600080fd5b81151561226957600160a060020a0388166000908152600f60205260409020805460010190612206908261393b565b600160a060020a03808a1660008181526010602090815260408083208b86168085529083528184208b85528352818420958e1684529482528083208690559282526011815282822093825292835281812088825290925290208054600101905591505b600160a060020a0388166000908152600f602052604090208054889190600019850190811061229457fe5b600091825260208083206006929092029091018054600160a060020a031916600160a060020a03948516179055918a168152600f90915260409020805487919060001985019081106122e257fe5b90600052602060002090600602016003019080519060200190612306929190613967565b50600160a060020a0388166000908152600f602052604090208054869190600019850190811061233257fe5b600091825260208083206006929092029091016001018054600160a060020a031916600160a060020a03948516179055918a168152600f909152604090208054859190600019850190811061238357fe5b60009182526020909120600260069092020101556123a7428463ffffffff61391b16565b600160a060020a0389166000908152600f60205260409020805460001985019081106123cf57fe5b906000526020600020906006020160040181905550612473600260009054906101000a9004600160a060020a0316600160a060020a03166329ea3faa6040518163ffffffff1660e060020a028152600401602060405180830381600087803b15801561243a57600080fd5b505af115801561244e573d6000803e3d6000fd5b505050506040513d602081101561246457600080fd5b5051429063ffffffff61391b16565b600160a060020a0389166000908152600f602052604090208054600019850190811061249b57fe5b9060005260206000209060060201600501819055507f0b73766e6576880ed14eb7bf691d7a034b69058b7e51b422f9e3f4ec7fb1aecf8888888888886040518087600160a060020a0316600160a060020a0316815260200186600160a060020a0316600160a060020a031681526020018060200185600160a060020a0316600160a060020a03168152602001848152602001838152602001828103825286818151815260200191508051906020019060200280838360005b8381101561256b578181015183820152602001612553565b5050505090500197505050505050505060405180910390a15050505050505050565b60006125976133df565b15156125a257600080fd5b81600160a060020a03811615156125b857600080fd5b600160a060020a0381163014156125ce57600080fd5b600054600160a060020a0384811661010090920416146126545760008054600160a060020a0385811661010081810261010060a860020a0319851617909455604080519490930491909116808452602084019190915281519094507f977e5fa58e458501775e0008d275006294c5249e3c08d1d0e3a9f3acad14f6e49281900390910190a15b505050565b600086612666338261178b565b151561267157600080fd5b600160a060020a03888116908816141561268a57600080fd5b600160a060020a038089166000818152600d60209081526040808320948a1683529381528382208883528152838220928252919091522054915081158061270a5750600160a060020a0388166000908152600c60205260409020805460001984019081106126f457fe5b9060005260206000209060060201600501544210155b151561271557600080fd5b8115156127a757600160a060020a0388166000908152600c6020526040902080546001019061274490826139b2565b600160a060020a03808a166000818152600d602090815260408083208b86168085529083528184208b85528352818420958e168452948252808320869055928252600e815282822093825292835281812088825290925290208054600101905591505b600160a060020a0388166000908152600c60205260409020805488919060001985019081106127d257fe5b600091825260208083206006929092029091018054600160a060020a031916600160a060020a03948516179055918a168152600c909152604090208054879190600019850190811061282057fe5b90600052602060002090600602016003018190555084600c60008a600160a060020a0316600160a060020a031681526020019081526020016000206001840381548110151561286b57fe5b600091825260208083206006929092029091016001018054600160a060020a031916600160a060020a03948516179055918a168152600c90915260409020805485919060001985019081106128bc57fe5b60009182526020909120600260069092020101556128e0428463ffffffff61391b16565b600160a060020a0389166000908152600c602052604090208054600019850190811061290857fe5b906000526020600020906006020160040181905550612973600260009054906101000a9004600160a060020a0316600160a060020a03166329ea3faa6040518163ffffffff1660e060020a028152600401602060405180830381600087803b15801561243a57600080fd5b600160a060020a0389166000908152600c602052604090208054600019850190811061299b57fe5b60009182526020918290206005600690920201019190915560408051600160a060020a03808c168252808b169382019390935280820189905291871660608301526080820186905260a08201859052517f8f07c61a4e90ac86dd462d483c81e224183ac1eb573981c41e538769bffae0899181900360c00190a15050505050505050565b600160a060020a038085166000908152601060209081526040808320868516845282528083208584528252808320938716835292905290812054801580612a9e5750600160a060020a0386166000908152600f6020526040902080546000198301908110612a8957fe5b90600052602060002090600602016004015442105b15612aac5760009150610f61565b600160a060020a0386166000908152600f6020526040902080546000198301908110612ad457fe5b60009182526020909120600360069092020101549695505050505050565b600081600160a060020a0381161515612b0a57600080fd5b600160a060020a038116301415612b2057600080fd5b33600160a060020a0384161415612b3657600080fd5b600160a060020a03831660009081526003602052604090205460ff161515612b5d57600080fd5b600160a060020a03831660009081526006602052604090205460ff1615612bb157600160a060020a03831660009081526007602090815260408083203384529091529020805460ff19166001179055612c87565b600160a060020a03831660009081526008602090815260408083203384529091528120805460ff1916905591505b600160a060020a0383166000908152600b60209081526040808320338452909152902054821015612c8757600160a060020a0383166000908152600960209081526040808320600b835281842033855290925282208054600193919086908110612c4557fe5b600091825260208083209190910154835282810193909352604091820181203382529092529020805460ff191691151591909117905560019190910190612bdf565b60408051338152600160a060020a038516602082015281517fe25d4094f2181ddef4410dcc1539a7488abd881a90c56078314b9f70affc5f7e929181900390910190a1505050565b600d60209081526000948552604080862082529385528385208152918452828420909152825290205481565b6000612d0561392a565b1515612d1057600080fd5b81600160a060020a0381161515612d2657600080fd5b600160a060020a038116301415612d3c57600080fd5b600154600160a060020a038481169116146126545760018054600160a060020a03858116600160a060020a0319831681179093556040805191909216808252602082019390935281519294507f9f611b789425d0d5b90b920f1b2852907dd865c80074a30b1629aaa041d1812c929081900390910190a1505050565b600160a060020a03166000908152600f602052604090205490565b6000546101009004600160a060020a031681565b612def6133df565b1515612dfa57600080fd5b6005805460ff19166001179055565b600b60205282600052604060002060205281600052604060002081815481101515612e3057fe5b9060005260206000200160009250925050505481565b600c60205281600052604060002081815481101515612e6157fe5b6000918252602090912060069091020180546001820154600283015460038401546004850154600590950154600160a060020a039485169750929093169450929086565b600160a060020a0380871660009081526010602090815260408083208885168452825280832087845282528083209389168352929052908120546060918281831580612f295750600160a060020a038b166000908152600f6020526040902080546000198601908110612f1457fe5b90600052602060002090600602016004015442105b15612f485760408051600080825260208201909252905b5094506130b6565b600160a060020a038b166000908152600f6020526040902080546000198601908110612f7057fe5b90600052602060002090600602019250826003018054905060001415612fa6576040805160008082526020820190925290612f40565b60038301546040805160e060020a63700f1a770281526004810189905260001990920160248301525173__SafeMathUintLib_______________________9163700f1a77916044808301926020929190829003018186803b15801561300a57600080fd5b505af415801561301e573d6000803e3d6000fd5b505050506040513d602081101561303457600080fd5b50516040805160018a84030180825260208181028301019092529197508015613067578160200160208202803883390190505b5091508690505b8581116130b2576003830180548290811061308557fe5b9060005260206000200154828883038151811015156130a057fe5b6020908102909101015260010161306e565b8194505b505050509695505050505050565b600160a060020a03808516600090815260106020908152604080832086851684528252808320858452825280832093871683529290522054606081151561310a57611a6b565b600160a060020a0386166000908152600f602052604090208054600019840190811061313257fe5b906000526020600020906006020160050154421015151561315257600080fd5b61315f868686868661362e565b90507f1c2e5f89e1a17f1b3417fcdee3681fe03ccae58dbca187a6c44c35438f62bb1786868387876040518086600160a060020a0316600160a060020a0316815260200185600160a060020a0316600160a060020a031681526020018060200184600160a060020a0316600160a060020a03168152602001838152602001828103825285818151815260200191508051906020019060200280838360005b838110156132155781810151838201526020016131fd565b50505050905001965050505050505060405180910390a1505050505050565b61323c6133df565b151561324757600080fd5b80600160a060020a038116151561325d57600080fd5b600160a060020a03811630141561327357600080fd5b61327e8260006138c9565b60408051600160a060020a038416815290517fb619d545cb511bd5f02907a1eac4f4cb8dace7b1846852fb0bf5e553937481c19181900360200190a15050565b6000816040516020018082805190602001908083835b602083106132f35780518252601f1990920191602091820191016132d4565b6001836020036101000a0380198251168184511680821785525050505050509050019150506040516020818303038152906040526040518082805190602001908083835b602083106133565780518252601f199092019160209182019101613337565b5181516020939093036101000a6000190180199091169216919091179052604051920182900390912095945050505050565b600160a060020a03821660009081526006602052604081205460ff166133af5760006117d7565b50600160a060020a03918216600090815260076020908152604080832093909416825291909152205460ff161590565b6000546101009004600160a060020a0316331490565b600160a060020a0385166000908152600c602052604081208054829190600019850190811061342057fe5b6000918252602080832060036006909302019190910154600160a060020a038a168352600c90915260409091205490915083101561359b57600160a060020a0387166000908152600c602052604090208054600019810190811061348057fe5b9060005260206000209060060201600c600089600160a060020a0316600160a060020a03168152602001908152602001600020600185038154811015156134c357fe5b6000918252602080832084546006909302018054600160a060020a0319908116600160a060020a039485161782556001808701549083018054909216908516179055600280860154908201556003808601549082015560048086015490820155600594850154940193909355898116808352600d84526040808420928a1684529184528183208884528452818320908352600c909352812080548693929190600019850190811061357057fe5b60009182526020808320600690920290910154600160a060020a031683528201929092526040019020555b600160a060020a0387166000908152600c602052604090208054906135c49060001983016139b2565b50600160a060020a039687166000818152600d60209081526040808320988b16808452988252808320888452825280832099909a168252978852888120819055908152600e8752878120958152948652868520938552929094525092902080546000190190555090565b600160a060020a0385166000908152600f6020526040902080546060918291600019850190811061365b57fe5b90600052602060002090600602016003018054806020026020016040519081016040528092919081815260200182805480156136b657602002820191906000526020600020905b8154815260200190600101908083116136a2575b505050600160a060020a038a166000908152600f6020526040902054929350505083101561383657600160a060020a0387166000908152600f602052604090208054600019810190811061370657fe5b9060005260206000209060060201600f600089600160a060020a0316600160a060020a031681526020019081526020016000206001850381548110151561374957fe5b6000918252602090912082546006909202018054600160a060020a03928316600160a060020a031991821617825560018085015490830180549190941691161790915560028083015490820155600380830180546137aa92840191906139de565b5060048281015490820155600591820154910155600160a060020a038088166000818152601060209081526040808320948a1683529381528382208883528152838220928252600f9052918220805486939190600019850190811061380b57fe5b60009182526020808320600690920290910154600160a060020a031683528201929092526040019020555b600160a060020a0387166000908152600f6020526040902080549061385f90600019830161393b565b50600160a060020a039687166000818152601060209081526040808320988b16808452988252808320888452825280832099909a16825297885288812081905590815260118752878120958152948652868520938552929094525092902080546000190190555090565b600160a060020a03821660009081526003602052604090205460ff16151561391757600160a060020a0382166000908152600360205260409020805460ff1916600190811782554283019101555b5050565b6000828201838110156117d757fe5b600154600160a060020a0316331490565b815481835581811115612654576006028160060283600052602060002091820191016126549190613a1e565b8280548282559060005260206000209081019282156139a2579160200282015b828111156139a2578251825591602001919060010190613987565b506139ae929150613a74565b5090565b815481835581811115612654576006028160060283600052602060002091820191016126549190613a8e565b8280548282559060005260206000209081019282156139a25760005260206000209182015b828111156139a2578254825591600101919060010190613a03565b61149f91905b808211156139ae578054600160a060020a031990811682556001820180549091169055600060028201819055613a5d6003830182613adb565b506000600482018190556005820155600601613a24565b61149f91905b808211156139ae5760008155600101613a7a565b61149f91905b808211156139ae578054600160a060020a03199081168255600182018054909116905560006002820181905560038201819055600482018190556005820155600601613a94565b5080546000825590600052602060002090810190613af99190613a74565b505600a165627a7a7230582004a5ad7d1d14643f4a40e300a38210e2420bd28225a44485f0bfccff3c76d2f60029",
  "source": "/*\n * Hubii Nahmii\n *\n * Compliant with the Hubii Nahmii specification v0.12.\n *\n * Copyright (C) 2017-2018 Hubii AS\n */\n\npragma solidity ^0.4.25;\n\nimport {Ownable} from \"./Ownable.sol\";\nimport {Configurable} from \"./Configurable.sol\";\nimport {AuthorizableServable} from \"./AuthorizableServable.sol\";\nimport {SafeMathUintLib} from \"./SafeMathUintLib.sol\";\n\n/**\n * @title Wallet locker\n * @notice An ownable to lock and unlock wallets' balance holdings of specific currency(ies)\n */\ncontract WalletLocker is Ownable, Configurable, AuthorizableServable {\n    using SafeMathUintLib for uint256;\n\n    //\n    // Structures\n    // -----------------------------------------------------------------------------------------------------------------\n    struct FungibleLock {\n        address locker;\n        address currencyCt;\n        uint256 currencyId;\n        int256 amount;\n        uint256 visibleTime;\n        uint256 unlockTime;\n    }\n\n    struct NonFungibleLock {\n        address locker;\n        address currencyCt;\n        uint256 currencyId;\n        int256[] ids;\n        uint256 visibleTime;\n        uint256 unlockTime;\n    }\n\n    //\n    // Variables\n    // -----------------------------------------------------------------------------------------------------------------\n    mapping(address => FungibleLock[]) public walletFungibleLocks;\n    mapping(address => mapping(address => mapping(uint256 => mapping(address => uint256)))) public lockedCurrencyLockerFungibleLockIndex;\n    mapping(address => mapping(address => mapping(uint256 => uint256))) public walletCurrencyFungibleLockCount;\n\n    mapping(address => NonFungibleLock[]) public walletNonFungibleLocks;\n    mapping(address => mapping(address => mapping(uint256 => mapping(address => uint256)))) public lockedCurrencyLockerNonFungibleLockIndex;\n    mapping(address => mapping(address => mapping(uint256 => uint256))) public walletCurrencyNonFungibleLockCount;\n\n    //\n    // Events\n    // -----------------------------------------------------------------------------------------------------------------\n    event LockFungibleByProxyEvent(address lockedWallet, address lockerWallet, int256 amount,\n        address currencyCt, uint256 currencyId, uint256 visibleTimeoutInSeconds);\n    event LockNonFungibleByProxyEvent(address lockedWallet, address lockerWallet, int256[] ids,\n        address currencyCt, uint256 currencyId, uint256 visibleTimeoutInSeconds);\n    event UnlockFungibleEvent(address lockedWallet, address lockerWallet, int256 amount, address currencyCt,\n        uint256 currencyId);\n    event UnlockFungibleByProxyEvent(address lockedWallet, address lockerWallet, int256 amount, address currencyCt,\n        uint256 currencyId);\n    event UnlockNonFungibleEvent(address lockedWallet, address lockerWallet, int256[] ids, address currencyCt,\n        uint256 currencyId);\n    event UnlockNonFungibleByProxyEvent(address lockedWallet, address lockerWallet, int256[] ids, address currencyCt,\n        uint256 currencyId);\n\n    //\n    // Constructor\n    // -----------------------------------------------------------------------------------------------------------------\n    constructor(address deployer) Ownable(deployer)\n    public\n    {\n    }\n\n    //\n    // Functions\n    // -----------------------------------------------------------------------------------------------------------------\n\n    /// @notice Lock the given locked wallet's fungible amount of currency on behalf of the given locker wallet\n    /// @param lockedWallet The address of wallet that will be locked\n    /// @param lockerWallet The address of wallet that locks\n    /// @param amount The amount to be locked\n    /// @param currencyCt The address of the concerned currency contract (address(0) == ETH)\n    /// @param currencyId The ID of the concerned currency (0 for ETH and ERC20)\n    /// @param visibleTimeoutInSeconds The number of seconds until the locked amount is visible, a.o. for seizure\n    function lockFungibleByProxy(address lockedWallet, address lockerWallet, int256 amount,\n        address currencyCt, uint256 currencyId, uint256 visibleTimeoutInSeconds)\n    public\n    onlyAuthorizedService(lockedWallet)\n    {\n        // Require that locked and locker wallets are not identical\n        require(lockedWallet != lockerWallet);\n\n        // Get index of lock\n        uint256 lockIndex = lockedCurrencyLockerFungibleLockIndex[lockedWallet][currencyCt][currencyId][lockedWallet];\n\n        // Require that there is no existing conflicting lock\n        require(\n            (0 == lockIndex) ||\n            (block.timestamp >= walletFungibleLocks[lockedWallet][lockIndex - 1].unlockTime)\n        );\n\n        // Add lock object for this triplet of locked wallet, currency and locker wallet if it does not exist\n        if (0 == lockIndex) {\n            lockIndex = ++(walletFungibleLocks[lockedWallet].length);\n            lockedCurrencyLockerFungibleLockIndex[lockedWallet][currencyCt][currencyId][lockerWallet] = lockIndex;\n            walletCurrencyFungibleLockCount[lockedWallet][currencyCt][currencyId]++;\n        }\n\n        // Update lock parameters\n        walletFungibleLocks[lockedWallet][lockIndex - 1].locker = lockerWallet;\n        walletFungibleLocks[lockedWallet][lockIndex - 1].amount = amount;\n        walletFungibleLocks[lockedWallet][lockIndex - 1].currencyCt = currencyCt;\n        walletFungibleLocks[lockedWallet][lockIndex - 1].currencyId = currencyId;\n        walletFungibleLocks[lockedWallet][lockIndex - 1].visibleTime =\n        block.timestamp.add(visibleTimeoutInSeconds);\n        walletFungibleLocks[lockedWallet][lockIndex - 1].unlockTime =\n        block.timestamp.add(configuration.walletLockTimeout());\n\n        // Emit event\n        emit LockFungibleByProxyEvent(lockedWallet, lockerWallet, amount, currencyCt, currencyId, visibleTimeoutInSeconds);\n    }\n\n    /// @notice Lock the given locked wallet's non-fungible IDs of currency on behalf of the given locker wallet\n    /// @param lockedWallet The address of wallet that will be locked\n    /// @param lockerWallet The address of wallet that locks\n    /// @param ids The IDs to be locked\n    /// @param currencyCt The address of the concerned currency contract (address(0) == ETH)\n    /// @param currencyId The ID of the concerned currency (0 for ETH and ERC20)\n    /// @param visibleTimeoutInSeconds The number of seconds until the locked ids are visible, a.o. for seizure\n    function lockNonFungibleByProxy(address lockedWallet, address lockerWallet, int256[] ids,\n        address currencyCt, uint256 currencyId, uint256 visibleTimeoutInSeconds)\n    public\n    onlyAuthorizedService(lockedWallet)\n    {\n        // Require that locked and locker wallets are not identical\n        require(lockedWallet != lockerWallet);\n\n        // Get index of lock\n        uint256 lockIndex = lockedCurrencyLockerNonFungibleLockIndex[lockedWallet][currencyCt][currencyId][lockedWallet];\n\n        // Require that there is no existing conflicting lock\n        require(\n            (0 == lockIndex) ||\n            (block.timestamp >= walletNonFungibleLocks[lockedWallet][lockIndex - 1].unlockTime)\n        );\n\n        // Add lock object for this triplet of locked wallet, currency and locker wallet if it does not exist\n        if (0 == lockIndex) {\n            lockIndex = ++(walletNonFungibleLocks[lockedWallet].length);\n            lockedCurrencyLockerNonFungibleLockIndex[lockedWallet][currencyCt][currencyId][lockerWallet] = lockIndex;\n            walletCurrencyNonFungibleLockCount[lockedWallet][currencyCt][currencyId]++;\n        }\n\n        // Update lock parameters\n        walletNonFungibleLocks[lockedWallet][lockIndex - 1].locker = lockerWallet;\n        walletNonFungibleLocks[lockedWallet][lockIndex - 1].ids = ids;\n        walletNonFungibleLocks[lockedWallet][lockIndex - 1].currencyCt = currencyCt;\n        walletNonFungibleLocks[lockedWallet][lockIndex - 1].currencyId = currencyId;\n        walletNonFungibleLocks[lockedWallet][lockIndex - 1].visibleTime =\n        block.timestamp.add(visibleTimeoutInSeconds);\n        walletNonFungibleLocks[lockedWallet][lockIndex - 1].unlockTime =\n        block.timestamp.add(configuration.walletLockTimeout());\n\n        // Emit event\n        emit LockNonFungibleByProxyEvent(lockedWallet, lockerWallet, ids, currencyCt, currencyId, visibleTimeoutInSeconds);\n    }\n\n    /// @notice Unlock the given locked wallet's fungible amount of currency previously\n    /// locked by the given locker wallet\n    /// @param lockedWallet The address of the locked wallet\n    /// @param lockerWallet The address of the locker wallet\n    /// @param currencyCt The address of the concerned currency contract (address(0) == ETH)\n    /// @param currencyId The ID of the concerned currency (0 for ETH and ERC20)\n    function unlockFungible(address lockedWallet, address lockerWallet, address currencyCt, uint256 currencyId)\n    public\n    {\n        // Get index of lock\n        uint256 lockIndex = lockedCurrencyLockerFungibleLockIndex[lockedWallet][currencyCt][currencyId][lockerWallet];\n\n        // Return if no lock exists\n        if (0 == lockIndex)\n            return;\n\n        // Require that unlock timeout has expired\n        require(\n            block.timestamp >= walletFungibleLocks[lockedWallet][lockIndex - 1].unlockTime\n        );\n\n        // Unlock\n        int256 amount = _unlockFungible(lockedWallet, lockerWallet, currencyCt, currencyId, lockIndex);\n\n        // Emit event\n        emit UnlockFungibleEvent(lockedWallet, lockerWallet, amount, currencyCt, currencyId);\n    }\n\n    /// @notice Unlock by proxy the given locked wallet's fungible amount of currency previously\n    /// locked by the given locker wallet\n    /// @param lockedWallet The address of the locked wallet\n    /// @param lockerWallet The address of the locker wallet\n    /// @param currencyCt The address of the concerned currency contract (address(0) == ETH)\n    /// @param currencyId The ID of the concerned currency (0 for ETH and ERC20)\n    function unlockFungibleByProxy(address lockedWallet, address lockerWallet, address currencyCt, uint256 currencyId)\n    public\n    onlyAuthorizedService(lockedWallet)\n    {\n        // Get index of lock\n        uint256 lockIndex = lockedCurrencyLockerFungibleLockIndex[lockedWallet][currencyCt][currencyId][lockerWallet];\n\n        // Return if no lock exists\n        if (0 == lockIndex)\n            return;\n\n        // Unlock\n        int256 amount = _unlockFungible(lockedWallet, lockerWallet, currencyCt, currencyId, lockIndex);\n\n        // Emit event\n        emit UnlockFungibleByProxyEvent(lockedWallet, lockerWallet, amount, currencyCt, currencyId);\n    }\n\n    /// @notice Unlock the given locked wallet's non-fungible IDs of currency previously\n    /// locked by the given locker wallet\n    /// @param lockedWallet The address of the locked wallet\n    /// @param lockerWallet The address of the locker wallet\n    /// @param currencyCt The address of the concerned currency contract (address(0) == ETH)\n    /// @param currencyId The ID of the concerned currency (0 for ETH and ERC20)\n    function unlockNonFungible(address lockedWallet, address lockerWallet, address currencyCt, uint256 currencyId)\n    public\n    {\n        // Get index of lock\n        uint256 lockIndex = lockedCurrencyLockerNonFungibleLockIndex[lockedWallet][currencyCt][currencyId][lockerWallet];\n\n        // Return if no lock exists\n        if (0 == lockIndex)\n            return;\n\n        // Require that unlock timeout has expired\n        require(\n            block.timestamp >= walletNonFungibleLocks[lockedWallet][lockIndex - 1].unlockTime\n        );\n\n        // Unlock\n        int256[] memory ids = _unlockNonFungible(lockedWallet, lockerWallet, currencyCt, currencyId, lockIndex);\n\n        // Emit event\n        emit UnlockNonFungibleEvent(lockedWallet, lockerWallet, ids, currencyCt, currencyId);\n    }\n\n    /// @notice Unlock by proxy the given locked wallet's non-fungible IDs of currency previously\n    /// locked by the given locker wallet\n    /// @param lockedWallet The address of the locked wallet\n    /// @param lockerWallet The address of the locker wallet\n    /// @param currencyCt The address of the concerned currency contract (address(0) == ETH)\n    /// @param currencyId The ID of the concerned currency (0 for ETH and ERC20)\n    function unlockNonFungibleByProxy(address lockedWallet, address lockerWallet, address currencyCt, uint256 currencyId)\n    public\n    onlyAuthorizedService(lockedWallet)\n    {\n        // Get index of lock\n        uint256 lockIndex = lockedCurrencyLockerNonFungibleLockIndex[lockedWallet][currencyCt][currencyId][lockerWallet];\n\n        // Return if no lock exists\n        if (0 == lockIndex)\n            return;\n\n        // Unlock\n        int256[] memory ids = _unlockNonFungible(lockedWallet, lockerWallet, currencyCt, currencyId, lockIndex);\n\n        // Emit event\n        emit UnlockNonFungibleByProxyEvent(lockedWallet, lockerWallet, ids, currencyCt, currencyId);\n    }\n\n    /// @notice Get the number of fungible locks for the given wallet\n    /// @param wallet The address of the locked wallet\n    /// @return The number of fungible locks\n    function fungibleLocksCount(address wallet)\n    public\n    view\n    returns (uint256)\n    {\n        return walletFungibleLocks[wallet].length;\n    }\n\n    /// @notice Get the number of non-fungible locks for the given wallet\n    /// @param wallet The address of the locked wallet\n    /// @return The number of non-fungible locks\n    function nonFungibleLocksCount(address wallet)\n    public\n    view\n    returns (uint256)\n    {\n        return walletNonFungibleLocks[wallet].length;\n    }\n\n    /// @notice Get the fungible amount of the given currency held by locked wallet that is\n    /// locked by locker wallet\n    /// @param lockedWallet The address of the locked wallet\n    /// @param lockerWallet The address of the locker wallet\n    /// @param currencyCt The address of the concerned currency contract (address(0) == ETH)\n    /// @param currencyId The ID of the concerned currency (0 for ETH and ERC20)\n    function lockedAmount(address lockedWallet, address lockerWallet, address currencyCt, uint256 currencyId)\n    public\n    view\n    returns (int256)\n    {\n        uint256 lockIndex = lockedCurrencyLockerFungibleLockIndex[lockedWallet][currencyCt][currencyId][lockerWallet];\n\n        if (0 == lockIndex || block.timestamp < walletFungibleLocks[lockedWallet][lockIndex - 1].visibleTime)\n            return 0;\n\n        return walletFungibleLocks[lockedWallet][lockIndex - 1].amount;\n    }\n\n    /// @notice Get the count of non-fungible IDs of the given currency held by locked wallet that is\n    /// locked by locker wallet\n    /// @param lockedWallet The address of the locked wallet\n    /// @param lockerWallet The address of the locker wallet\n    /// @param currencyCt The address of the concerned currency contract (address(0) == ETH)\n    /// @param currencyId The ID of the concerned currency (0 for ETH and ERC20)\n    function lockedIdsCount(address lockedWallet, address lockerWallet, address currencyCt, uint256 currencyId)\n    public\n    view\n    returns (uint256)\n    {\n        uint256 lockIndex = lockedCurrencyLockerNonFungibleLockIndex[lockedWallet][currencyCt][currencyId][lockerWallet];\n\n        if (0 == lockIndex || block.timestamp < walletNonFungibleLocks[lockedWallet][lockIndex - 1].visibleTime)\n            return 0;\n\n        return walletNonFungibleLocks[lockedWallet][lockIndex - 1].ids.length;\n    }\n\n    /// @notice Get the set of non-fungible IDs of the given currency held by locked wallet that is\n    /// locked by locker wallet and whose indices are in the given range of indices\n    /// @param lockedWallet The address of the locked wallet\n    /// @param lockerWallet The address of the locker wallet\n    /// @param currencyCt The address of the concerned currency contract (address(0) == ETH)\n    /// @param currencyId The ID of the concerned currency (0 for ETH and ERC20)\n    /// @param low The lower ID index\n    /// @param up The upper ID index\n    function lockedIdsByIndices(address lockedWallet, address lockerWallet, address currencyCt, uint256 currencyId,\n        uint256 low, uint256 up)\n    public\n    view\n    returns (int256[])\n    {\n        uint256 lockIndex = lockedCurrencyLockerNonFungibleLockIndex[lockedWallet][currencyCt][currencyId][lockerWallet];\n\n        if (0 == lockIndex || block.timestamp < walletNonFungibleLocks[lockedWallet][lockIndex - 1].visibleTime)\n            return new int256[](0);\n\n        NonFungibleLock storage lock = walletNonFungibleLocks[lockedWallet][lockIndex - 1];\n\n        if (0 == lock.ids.length)\n            return new int256[](0);\n\n        up = up.clampMax(lock.ids.length - 1);\n        int256[] memory _ids = new int256[](up - low + 1);\n        for (uint256 i = low; i <= up; i++)\n            _ids[i - low] = lock.ids[i];\n\n        return _ids;\n    }\n\n    /// @notice Gauge whether the given wallet is locked\n    /// @param wallet The address of the concerned wallet\n    /// @return true if wallet is locked, else false\n    function isLocked(address wallet)\n    public\n    view\n    returns (bool)\n    {\n        return 0 < walletFungibleLocks[wallet].length ||\n        0 < walletNonFungibleLocks[wallet].length;\n    }\n\n    /// @notice Gauge whether the given wallet and currency is locked\n    /// @param wallet The address of the concerned wallet\n    /// @param currencyCt The address of the concerned currency contract (address(0) == ETH)\n    /// @param currencyId The ID of the concerned currency (0 for ETH and ERC20)\n    /// @return true if wallet/currency pair is locked, else false\n    function isLocked(address wallet, address currencyCt, uint256 currencyId)\n    public\n    view\n    returns (bool)\n    {\n        return 0 < walletCurrencyFungibleLockCount[wallet][currencyCt][currencyId] ||\n        0 < walletCurrencyNonFungibleLockCount[wallet][currencyCt][currencyId];\n    }\n\n    /// @notice Gauge whether the given locked wallet and currency is locked by the given locker wallet\n    /// @param lockedWallet The address of the concerned locked wallet\n    /// @param lockerWallet The address of the concerned locker wallet\n    /// @return true if lockedWallet is locked by lockerWallet, else false\n    function isLocked(address lockedWallet, address lockerWallet, address currencyCt, uint256 currencyId)\n    public\n    view\n    returns (bool)\n    {\n        return 0 < lockedCurrencyLockerFungibleLockIndex[lockedWallet][currencyCt][currencyId][lockerWallet] ||\n        0 < lockedCurrencyLockerNonFungibleLockIndex[lockedWallet][currencyCt][currencyId][lockerWallet];\n    }\n\n    //\n    //\n    // Private functions\n    // -----------------------------------------------------------------------------------------------------------------\n    function _unlockFungible(address lockedWallet, address lockerWallet, address currencyCt, uint256 currencyId, uint256 lockIndex)\n    private\n    returns (int256)\n    {\n        int256 amount = walletFungibleLocks[lockedWallet][lockIndex - 1].amount;\n\n        if (lockIndex < walletFungibleLocks[lockedWallet].length) {\n            walletFungibleLocks[lockedWallet][lockIndex - 1] =\n            walletFungibleLocks[lockedWallet][walletFungibleLocks[lockedWallet].length - 1];\n\n            lockedCurrencyLockerFungibleLockIndex[lockedWallet][currencyCt][currencyId][walletFungibleLocks[lockedWallet][lockIndex - 1].locker] = lockIndex;\n        }\n        walletFungibleLocks[lockedWallet].length--;\n\n        lockedCurrencyLockerFungibleLockIndex[lockedWallet][currencyCt][currencyId][lockerWallet] = 0;\n\n        walletCurrencyFungibleLockCount[lockedWallet][currencyCt][currencyId]--;\n\n        return amount;\n    }\n\n    function _unlockNonFungible(address lockedWallet, address lockerWallet, address currencyCt, uint256 currencyId, uint256 lockIndex)\n    private\n    returns (int256[])\n    {\n        int256[] memory ids = walletNonFungibleLocks[lockedWallet][lockIndex - 1].ids;\n\n        if (lockIndex < walletNonFungibleLocks[lockedWallet].length) {\n            walletNonFungibleLocks[lockedWallet][lockIndex - 1] =\n            walletNonFungibleLocks[lockedWallet][walletNonFungibleLocks[lockedWallet].length - 1];\n\n            lockedCurrencyLockerNonFungibleLockIndex[lockedWallet][currencyCt][currencyId][walletNonFungibleLocks[lockedWallet][lockIndex - 1].locker] = lockIndex;\n        }\n        walletNonFungibleLocks[lockedWallet].length--;\n\n        lockedCurrencyLockerNonFungibleLockIndex[lockedWallet][currencyCt][currencyId][lockerWallet] = 0;\n\n        walletCurrencyNonFungibleLockCount[lockedWallet][currencyCt][currencyId]--;\n\n        return ids;\n    }\n}",
  "sourcePath": "/opt/buildagent/work/855e104608380c36/contracts/WalletLocker.sol",
  "compiler": {
    "name": "solc",
    "version": "0.4.25+commit.59dbf8f1.Emscripten.clang"
  },
  "schemaVersion": "2.0.2",
  "updatedAt": "2019-04-02T08:24:32.521Z"
}