{
  "contractName": "WalletLocker",
  "abi": [
    {
      "constant": false,
      "inputs": [
        {
          "name": "service",
          "type": "address"
        }
      ],
      "name": "authorizeRegisteredService",
      "outputs": [],
      "payable": false,
      "stateMutability": "nonpayable",
      "type": "function"
    },
    {
      "constant": true,
      "inputs": [
        {
          "name": "service",
          "type": "address"
        },
        {
          "name": "action",
          "type": "string"
        },
        {
          "name": "wallet",
          "type": "address"
        }
      ],
      "name": "isAuthorizedRegisteredServiceAction",
      "outputs": [
        {
          "name": "",
          "type": "bool"
        }
      ],
      "payable": false,
      "stateMutability": "view",
      "type": "function"
    },
    {
      "constant": true,
      "inputs": [
        {
          "name": "service",
          "type": "address"
        }
      ],
      "name": "isRegisteredActiveService",
      "outputs": [
        {
          "name": "",
          "type": "bool"
        }
      ],
      "payable": false,
      "stateMutability": "view",
      "type": "function"
    },
    {
      "constant": true,
      "inputs": [
        {
          "name": "",
          "type": "address"
        }
      ],
      "name": "initialServiceAuthorizedMap",
      "outputs": [
        {
          "name": "",
          "type": "bool"
        }
      ],
      "payable": false,
      "stateMutability": "view",
      "type": "function"
    },
    {
      "constant": true,
      "inputs": [
        {
          "name": "",
          "type": "address"
        },
        {
          "name": "",
          "type": "address"
        },
        {
          "name": "",
          "type": "uint256"
        }
      ],
      "name": "walletCurrencyFungibleLockCount",
      "outputs": [
        {
          "name": "",
          "type": "uint256"
        }
      ],
      "payable": false,
      "stateMutability": "view",
      "type": "function"
    },
    {
      "constant": true,
      "inputs": [
        {
          "name": "",
          "type": "address"
        },
        {
          "name": "",
          "type": "uint256"
        }
      ],
      "name": "walletNonFungibleLocks",
      "outputs": [
        {
          "name": "locker",
          "type": "address"
        },
        {
          "name": "currencyCt",
          "type": "address"
        },
        {
          "name": "currencyId",
          "type": "uint256"
        },
        {
          "name": "unlockTime",
          "type": "uint256"
        }
      ],
      "payable": false,
      "stateMutability": "view",
      "type": "function"
    },
    {
      "constant": false,
      "inputs": [],
      "name": "triggerSelfDestruction",
      "outputs": [],
      "payable": false,
      "stateMutability": "nonpayable",
      "type": "function"
    },
    {
      "constant": true,
      "inputs": [
        {
          "name": "",
          "type": "address"
        },
        {
          "name": "",
          "type": "address"
        },
        {
          "name": "",
          "type": "uint256"
        }
      ],
      "name": "walletCurrencyNonFungibleLockCount",
      "outputs": [
        {
          "name": "",
          "type": "uint256"
        }
      ],
      "payable": false,
      "stateMutability": "view",
      "type": "function"
    },
    {
      "constant": false,
      "inputs": [
        {
          "name": "service",
          "type": "address"
        },
        {
          "name": "action",
          "type": "string"
        }
      ],
      "name": "enableServiceAction",
      "outputs": [],
      "payable": false,
      "stateMutability": "nonpayable",
      "type": "function"
    },
    {
      "constant": true,
      "inputs": [
        {
          "name": "service",
          "type": "address"
        }
      ],
      "name": "isRegisteredService",
      "outputs": [
        {
          "name": "",
          "type": "bool"
        }
      ],
      "payable": false,
      "stateMutability": "view",
      "type": "function"
    },
    {
      "constant": true,
      "inputs": [],
      "name": "selfDestructionDisabled",
      "outputs": [
        {
          "name": "",
          "type": "bool"
        }
      ],
      "payable": false,
      "stateMutability": "view",
      "type": "function"
    },
    {
      "constant": false,
      "inputs": [
        {
          "name": "service",
          "type": "address"
        },
        {
          "name": "action",
          "type": "string"
        }
      ],
      "name": "disableServiceAction",
      "outputs": [],
      "payable": false,
      "stateMutability": "nonpayable",
      "type": "function"
    },
    {
      "constant": true,
      "inputs": [],
      "name": "serviceActivationTimeout",
      "outputs": [
        {
          "name": "",
          "type": "uint256"
        }
      ],
      "payable": false,
      "stateMutability": "view",
      "type": "function"
    },
    {
      "constant": true,
      "inputs": [],
      "name": "destructor",
      "outputs": [
        {
          "name": "",
          "type": "address"
        }
      ],
      "payable": false,
      "stateMutability": "view",
      "type": "function"
    },
    {
      "constant": false,
      "inputs": [
        {
          "name": "service",
          "type": "address"
        }
      ],
      "name": "authorizeInitialService",
      "outputs": [],
      "payable": false,
      "stateMutability": "nonpayable",
      "type": "function"
    },
    {
      "constant": false,
      "inputs": [
        {
          "name": "service",
          "type": "address"
        }
      ],
      "name": "deregisterService",
      "outputs": [],
      "payable": false,
      "stateMutability": "nonpayable",
      "type": "function"
    },
    {
      "constant": true,
      "inputs": [],
      "name": "operator",
      "outputs": [
        {
          "name": "",
          "type": "address"
        }
      ],
      "payable": false,
      "stateMutability": "view",
      "type": "function"
    },
    {
      "constant": true,
      "inputs": [
        {
          "name": "service",
          "type": "address"
        },
        {
          "name": "wallet",
          "type": "address"
        }
      ],
      "name": "isAuthorizedRegisteredService",
      "outputs": [
        {
          "name": "",
          "type": "bool"
        }
      ],
      "payable": false,
      "stateMutability": "view",
      "type": "function"
    },
    {
      "constant": true,
      "inputs": [
        {
          "name": "service",
          "type": "address"
        },
        {
          "name": "action",
          "type": "string"
        }
      ],
      "name": "isEnabledServiceAction",
      "outputs": [
        {
          "name": "",
          "type": "bool"
        }
      ],
      "payable": false,
      "stateMutability": "view",
      "type": "function"
    },
    {
      "constant": false,
      "inputs": [
        {
          "name": "newConfiguration",
          "type": "address"
        }
      ],
      "name": "setConfiguration",
      "outputs": [],
      "payable": false,
      "stateMutability": "nonpayable",
      "type": "function"
    },
    {
      "constant": false,
      "inputs": [
        {
          "name": "service",
          "type": "address"
        },
        {
          "name": "action",
          "type": "string"
        }
      ],
      "name": "authorizeRegisteredServiceAction",
      "outputs": [],
      "payable": false,
      "stateMutability": "nonpayable",
      "type": "function"
    },
    {
      "constant": true,
      "inputs": [
        {
          "name": "",
          "type": "address"
        },
        {
          "name": "",
          "type": "address"
        }
      ],
      "name": "initialServiceWalletUnauthorizedMap",
      "outputs": [
        {
          "name": "",
          "type": "bool"
        }
      ],
      "payable": false,
      "stateMutability": "view",
      "type": "function"
    },
    {
      "constant": true,
      "inputs": [
        {
          "name": "",
          "type": "address"
        },
        {
          "name": "",
          "type": "bytes32"
        },
        {
          "name": "",
          "type": "address"
        }
      ],
      "name": "serviceActionWalletTouchedMap",
      "outputs": [
        {
          "name": "",
          "type": "bool"
        }
      ],
      "payable": false,
      "stateMutability": "view",
      "type": "function"
    },
    {
      "constant": true,
      "inputs": [],
      "name": "configuration",
      "outputs": [
        {
          "name": "",
          "type": "address"
        }
      ],
      "payable": false,
      "stateMutability": "view",
      "type": "function"
    },
    {
      "constant": false,
      "inputs": [],
      "name": "disableSelfDestruction",
      "outputs": [],
      "payable": false,
      "stateMutability": "nonpayable",
      "type": "function"
    },
    {
      "constant": true,
      "inputs": [
        {
          "name": "",
          "type": "address"
        },
        {
          "name": "",
          "type": "address"
        }
      ],
      "name": "serviceWalletAuthorizedMap",
      "outputs": [
        {
          "name": "",
          "type": "bool"
        }
      ],
      "payable": false,
      "stateMutability": "view",
      "type": "function"
    },
    {
      "constant": false,
      "inputs": [
        {
          "name": "timeoutInSeconds",
          "type": "uint256"
        }
      ],
      "name": "setServiceActivationTimeout",
      "outputs": [],
      "payable": false,
      "stateMutability": "nonpayable",
      "type": "function"
    },
    {
      "constant": true,
      "inputs": [],
      "name": "initialServiceAuthorizationDisabled",
      "outputs": [
        {
          "name": "",
          "type": "bool"
        }
      ],
      "payable": false,
      "stateMutability": "view",
      "type": "function"
    },
    {
      "constant": true,
      "inputs": [
        {
          "name": "",
          "type": "address"
        },
        {
          "name": "",
          "type": "bytes32"
        },
        {
          "name": "",
          "type": "address"
        }
      ],
      "name": "serviceActionWalletAuthorizedMap",
      "outputs": [
        {
          "name": "",
          "type": "bool"
        }
      ],
      "payable": false,
      "stateMutability": "view",
      "type": "function"
    },
    {
      "constant": true,
      "inputs": [
        {
          "name": "",
          "type": "address"
        },
        {
          "name": "",
          "type": "address"
        },
        {
          "name": "",
          "type": "uint256"
        },
        {
          "name": "",
          "type": "address"
        }
      ],
      "name": "lockedCurrencyLockerNonFungibleLockIndex",
      "outputs": [
        {
          "name": "",
          "type": "uint256"
        }
      ],
      "payable": false,
      "stateMutability": "view",
      "type": "function"
    },
    {
      "constant": false,
      "inputs": [
        {
          "name": "service",
          "type": "address"
        },
        {
          "name": "action",
          "type": "string"
        }
      ],
      "name": "unauthorizeRegisteredServiceAction",
      "outputs": [],
      "payable": false,
      "stateMutability": "nonpayable",
      "type": "function"
    },
    {
      "constant": false,
      "inputs": [
        {
          "name": "service",
          "type": "address"
        }
      ],
      "name": "registerServiceDeferred",
      "outputs": [],
      "payable": false,
      "stateMutability": "nonpayable",
      "type": "function"
    },
    {
      "constant": false,
      "inputs": [
        {
          "name": "newDeployer",
          "type": "address"
        }
      ],
      "name": "setDeployer",
      "outputs": [],
      "payable": false,
      "stateMutability": "nonpayable",
      "type": "function"
    },
    {
      "constant": false,
      "inputs": [
        {
          "name": "service",
          "type": "address"
        }
      ],
      "name": "unauthorizeRegisteredService",
      "outputs": [],
      "payable": false,
      "stateMutability": "nonpayable",
      "type": "function"
    },
    {
      "constant": true,
      "inputs": [
        {
          "name": "",
          "type": "address"
        },
        {
          "name": "",
          "type": "address"
        },
        {
          "name": "",
          "type": "uint256"
        },
        {
          "name": "",
          "type": "address"
        }
      ],
      "name": "lockedCurrencyLockerFungibleLockIndex",
      "outputs": [
        {
          "name": "",
          "type": "uint256"
        }
      ],
      "payable": false,
      "stateMutability": "view",
      "type": "function"
    },
    {
      "constant": false,
      "inputs": [
        {
          "name": "newOperator",
          "type": "address"
        }
      ],
      "name": "setOperator",
      "outputs": [],
      "payable": false,
      "stateMutability": "nonpayable",
      "type": "function"
    },
    {
      "constant": true,
      "inputs": [],
      "name": "deployer",
      "outputs": [
        {
          "name": "",
          "type": "address"
        }
      ],
      "payable": false,
      "stateMutability": "view",
      "type": "function"
    },
    {
      "constant": false,
      "inputs": [],
      "name": "disableInitialServiceAuthorization",
      "outputs": [],
      "payable": false,
      "stateMutability": "nonpayable",
      "type": "function"
    },
    {
      "constant": true,
      "inputs": [
        {
          "name": "",
          "type": "address"
        },
        {
          "name": "",
          "type": "address"
        },
        {
          "name": "",
          "type": "uint256"
        }
      ],
      "name": "serviceWalletActionList",
      "outputs": [
        {
          "name": "",
          "type": "bytes32"
        }
      ],
      "payable": false,
      "stateMutability": "view",
      "type": "function"
    },
    {
      "constant": true,
      "inputs": [
        {
          "name": "",
          "type": "address"
        },
        {
          "name": "",
          "type": "uint256"
        }
      ],
      "name": "walletFungibleLocks",
      "outputs": [
        {
          "name": "locker",
          "type": "address"
        },
        {
          "name": "currencyCt",
          "type": "address"
        },
        {
          "name": "currencyId",
          "type": "uint256"
        },
        {
          "name": "amount",
          "type": "int256"
        },
        {
          "name": "unlockTime",
          "type": "uint256"
        }
      ],
      "payable": false,
      "stateMutability": "view",
      "type": "function"
    },
    {
      "constant": false,
      "inputs": [
        {
          "name": "service",
          "type": "address"
        }
      ],
      "name": "registerService",
      "outputs": [],
      "payable": false,
      "stateMutability": "nonpayable",
      "type": "function"
    },
    {
      "inputs": [
        {
          "name": "deployer",
          "type": "address"
        }
      ],
      "payable": false,
      "stateMutability": "nonpayable",
      "type": "constructor"
    },
    {
      "anonymous": false,
      "inputs": [
        {
          "indexed": false,
          "name": "lockedWallet",
          "type": "address"
        },
        {
          "indexed": false,
          "name": "lockerWallet",
          "type": "address"
        },
        {
          "indexed": false,
          "name": "amount",
          "type": "int256"
        },
        {
          "indexed": false,
          "name": "currencyCt",
          "type": "address"
        },
        {
          "indexed": false,
          "name": "currencyId",
          "type": "uint256"
        }
      ],
      "name": "LockFungibleByProxyEvent",
      "type": "event"
    },
    {
      "anonymous": false,
      "inputs": [
        {
          "indexed": false,
          "name": "lockedWallet",
          "type": "address"
        },
        {
          "indexed": false,
          "name": "lockerWallet",
          "type": "address"
        },
        {
          "indexed": false,
          "name": "ids",
          "type": "int256[]"
        },
        {
          "indexed": false,
          "name": "currencyCt",
          "type": "address"
        },
        {
          "indexed": false,
          "name": "currencyId",
          "type": "uint256"
        }
      ],
      "name": "LockNonFungibleByProxyEvent",
      "type": "event"
    },
    {
      "anonymous": false,
      "inputs": [
        {
          "indexed": false,
          "name": "lockedWallet",
          "type": "address"
        },
        {
          "indexed": false,
          "name": "lockerWallet",
          "type": "address"
        },
        {
          "indexed": false,
          "name": "amount",
          "type": "int256"
        },
        {
          "indexed": false,
          "name": "currencyCt",
          "type": "address"
        },
        {
          "indexed": false,
          "name": "currencyId",
          "type": "uint256"
        }
      ],
      "name": "UnlockFungibleEvent",
      "type": "event"
    },
    {
      "anonymous": false,
      "inputs": [
        {
          "indexed": false,
          "name": "lockedWallet",
          "type": "address"
        },
        {
          "indexed": false,
          "name": "lockerWallet",
          "type": "address"
        },
        {
          "indexed": false,
          "name": "amount",
          "type": "int256"
        },
        {
          "indexed": false,
          "name": "currencyCt",
          "type": "address"
        },
        {
          "indexed": false,
          "name": "currencyId",
          "type": "uint256"
        }
      ],
      "name": "UnlockFungibleByProxyEvent",
      "type": "event"
    },
    {
      "anonymous": false,
      "inputs": [
        {
          "indexed": false,
          "name": "lockedWallet",
          "type": "address"
        },
        {
          "indexed": false,
          "name": "lockerWallet",
          "type": "address"
        },
        {
          "indexed": false,
          "name": "ids",
          "type": "int256[]"
        },
        {
          "indexed": false,
          "name": "currencyCt",
          "type": "address"
        },
        {
          "indexed": false,
          "name": "currencyId",
          "type": "uint256"
        }
      ],
      "name": "UnlockNonFungibleEvent",
      "type": "event"
    },
    {
      "anonymous": false,
      "inputs": [
        {
          "indexed": false,
          "name": "lockedWallet",
          "type": "address"
        },
        {
          "indexed": false,
          "name": "lockerWallet",
          "type": "address"
        },
        {
          "indexed": false,
          "name": "ids",
          "type": "int256[]"
        },
        {
          "indexed": false,
          "name": "currencyCt",
          "type": "address"
        },
        {
          "indexed": false,
          "name": "currencyId",
          "type": "uint256"
        }
      ],
      "name": "UnlockNonFungibleByProxyEvent",
      "type": "event"
    },
    {
      "anonymous": false,
      "inputs": [
        {
          "indexed": false,
          "name": "wallet",
          "type": "address"
        },
        {
          "indexed": false,
          "name": "service",
          "type": "address"
        }
      ],
      "name": "AuthorizeInitialServiceEvent",
      "type": "event"
    },
    {
      "anonymous": false,
      "inputs": [
        {
          "indexed": false,
          "name": "wallet",
          "type": "address"
        },
        {
          "indexed": false,
          "name": "service",
          "type": "address"
        }
      ],
      "name": "AuthorizeRegisteredServiceEvent",
      "type": "event"
    },
    {
      "anonymous": false,
      "inputs": [
        {
          "indexed": false,
          "name": "wallet",
          "type": "address"
        },
        {
          "indexed": false,
          "name": "service",
          "type": "address"
        },
        {
          "indexed": false,
          "name": "action",
          "type": "string"
        }
      ],
      "name": "AuthorizeRegisteredServiceActionEvent",
      "type": "event"
    },
    {
      "anonymous": false,
      "inputs": [
        {
          "indexed": false,
          "name": "wallet",
          "type": "address"
        },
        {
          "indexed": false,
          "name": "service",
          "type": "address"
        }
      ],
      "name": "UnauthorizeRegisteredServiceEvent",
      "type": "event"
    },
    {
      "anonymous": false,
      "inputs": [
        {
          "indexed": false,
          "name": "wallet",
          "type": "address"
        },
        {
          "indexed": false,
          "name": "service",
          "type": "address"
        },
        {
          "indexed": false,
          "name": "action",
          "type": "string"
        }
      ],
      "name": "UnauthorizeRegisteredServiceActionEvent",
      "type": "event"
    },
    {
      "anonymous": false,
      "inputs": [
        {
          "indexed": false,
          "name": "timeoutInSeconds",
          "type": "uint256"
        }
      ],
      "name": "ServiceActivationTimeoutEvent",
      "type": "event"
    },
    {
      "anonymous": false,
      "inputs": [
        {
          "indexed": false,
          "name": "service",
          "type": "address"
        }
      ],
      "name": "RegisterServiceEvent",
      "type": "event"
    },
    {
      "anonymous": false,
      "inputs": [
        {
          "indexed": false,
          "name": "service",
          "type": "address"
        },
        {
          "indexed": false,
          "name": "timeout",
          "type": "uint256"
        }
      ],
      "name": "RegisterServiceDeferredEvent",
      "type": "event"
    },
    {
      "anonymous": false,
      "inputs": [
        {
          "indexed": false,
          "name": "service",
          "type": "address"
        }
      ],
      "name": "DeregisterServiceEvent",
      "type": "event"
    },
    {
      "anonymous": false,
      "inputs": [
        {
          "indexed": false,
          "name": "service",
          "type": "address"
        },
        {
          "indexed": false,
          "name": "action",
          "type": "string"
        }
      ],
      "name": "EnableServiceActionEvent",
      "type": "event"
    },
    {
      "anonymous": false,
      "inputs": [
        {
          "indexed": false,
          "name": "service",
          "type": "address"
        },
        {
          "indexed": false,
          "name": "action",
          "type": "string"
        }
      ],
      "name": "DisableServiceActionEvent",
      "type": "event"
    },
    {
      "anonymous": false,
      "inputs": [
        {
          "indexed": false,
          "name": "oldConfiguration",
          "type": "address"
        },
        {
          "indexed": false,
          "name": "newConfiguration",
          "type": "address"
        }
      ],
      "name": "SetConfigurationEvent",
      "type": "event"
    },
    {
      "anonymous": false,
      "inputs": [
        {
          "indexed": false,
          "name": "oldDeployer",
          "type": "address"
        },
        {
          "indexed": false,
          "name": "newDeployer",
          "type": "address"
        }
      ],
      "name": "SetDeployerEvent",
      "type": "event"
    },
    {
      "anonymous": false,
      "inputs": [
        {
          "indexed": false,
          "name": "oldOperator",
          "type": "address"
        },
        {
          "indexed": false,
          "name": "newOperator",
          "type": "address"
        }
      ],
      "name": "SetOperatorEvent",
      "type": "event"
    },
    {
      "anonymous": false,
      "inputs": [
        {
          "indexed": false,
          "name": "wallet",
          "type": "address"
        }
      ],
      "name": "SelfDestructionDisabledEvent",
      "type": "event"
    },
    {
      "anonymous": false,
      "inputs": [
        {
          "indexed": false,
          "name": "wallet",
          "type": "address"
        }
      ],
      "name": "TriggerSelfDestructionEvent",
      "type": "event"
    },
    {
      "constant": false,
      "inputs": [
        {
          "name": "lockedWallet",
          "type": "address"
        },
        {
          "name": "lockerWallet",
          "type": "address"
        },
        {
          "name": "amount",
          "type": "int256"
        },
        {
          "name": "currencyCt",
          "type": "address"
        },
        {
          "name": "currencyId",
          "type": "uint256"
        }
      ],
      "name": "lockFungibleByProxy",
      "outputs": [],
      "payable": false,
      "stateMutability": "nonpayable",
      "type": "function"
    },
    {
      "constant": false,
      "inputs": [
        {
          "name": "lockedWallet",
          "type": "address"
        },
        {
          "name": "lockerWallet",
          "type": "address"
        },
        {
          "name": "ids",
          "type": "int256[]"
        },
        {
          "name": "currencyCt",
          "type": "address"
        },
        {
          "name": "currencyId",
          "type": "uint256"
        }
      ],
      "name": "lockNonFungibleByProxy",
      "outputs": [],
      "payable": false,
      "stateMutability": "nonpayable",
      "type": "function"
    },
    {
      "constant": false,
      "inputs": [
        {
          "name": "lockedWallet",
          "type": "address"
        },
        {
          "name": "lockerWallet",
          "type": "address"
        },
        {
          "name": "currencyCt",
          "type": "address"
        },
        {
          "name": "currencyId",
          "type": "uint256"
        }
      ],
      "name": "unlockFungible",
      "outputs": [],
      "payable": false,
      "stateMutability": "nonpayable",
      "type": "function"
    },
    {
      "constant": false,
      "inputs": [
        {
          "name": "lockedWallet",
          "type": "address"
        },
        {
          "name": "lockerWallet",
          "type": "address"
        },
        {
          "name": "currencyCt",
          "type": "address"
        },
        {
          "name": "currencyId",
          "type": "uint256"
        }
      ],
      "name": "unlockFungibleByProxy",
      "outputs": [],
      "payable": false,
      "stateMutability": "nonpayable",
      "type": "function"
    },
    {
      "constant": false,
      "inputs": [
        {
          "name": "lockedWallet",
          "type": "address"
        },
        {
          "name": "lockerWallet",
          "type": "address"
        },
        {
          "name": "currencyCt",
          "type": "address"
        },
        {
          "name": "currencyId",
          "type": "uint256"
        }
      ],
      "name": "unlockNonFungible",
      "outputs": [],
      "payable": false,
      "stateMutability": "nonpayable",
      "type": "function"
    },
    {
      "constant": false,
      "inputs": [
        {
          "name": "lockedWallet",
          "type": "address"
        },
        {
          "name": "lockerWallet",
          "type": "address"
        },
        {
          "name": "currencyCt",
          "type": "address"
        },
        {
          "name": "currencyId",
          "type": "uint256"
        }
      ],
      "name": "unlockNonFungibleByProxy",
      "outputs": [],
      "payable": false,
      "stateMutability": "nonpayable",
      "type": "function"
    },
    {
      "constant": true,
      "inputs": [
        {
          "name": "lockedWallet",
          "type": "address"
        },
        {
          "name": "lockerWallet",
          "type": "address"
        },
        {
          "name": "currencyCt",
          "type": "address"
        },
        {
          "name": "currencyId",
          "type": "uint256"
        }
      ],
      "name": "lockedAmount",
      "outputs": [
        {
          "name": "",
          "type": "int256"
        }
      ],
      "payable": false,
      "stateMutability": "view",
      "type": "function"
    },
    {
      "constant": true,
      "inputs": [
        {
          "name": "lockedWallet",
          "type": "address"
        },
        {
          "name": "lockerWallet",
          "type": "address"
        },
        {
          "name": "currencyCt",
          "type": "address"
        },
        {
          "name": "currencyId",
          "type": "uint256"
        }
      ],
      "name": "lockedIdsCount",
      "outputs": [
        {
          "name": "",
          "type": "uint256"
        }
      ],
      "payable": false,
      "stateMutability": "view",
      "type": "function"
    },
    {
      "constant": true,
      "inputs": [
        {
          "name": "lockedWallet",
          "type": "address"
        },
        {
          "name": "lockerWallet",
          "type": "address"
        },
        {
          "name": "currencyCt",
          "type": "address"
        },
        {
          "name": "currencyId",
          "type": "uint256"
        },
        {
          "name": "low",
          "type": "uint256"
        },
        {
          "name": "up",
          "type": "uint256"
        }
      ],
      "name": "lockedIdsByIndices",
      "outputs": [
        {
          "name": "",
          "type": "int256[]"
        }
      ],
      "payable": false,
      "stateMutability": "view",
      "type": "function"
    },
    {
      "constant": true,
      "inputs": [
        {
          "name": "wallet",
          "type": "address"
        }
      ],
      "name": "isLocked",
      "outputs": [
        {
          "name": "",
          "type": "bool"
        }
      ],
      "payable": false,
      "stateMutability": "view",
      "type": "function"
    },
    {
      "constant": true,
      "inputs": [
        {
          "name": "wallet",
          "type": "address"
        },
        {
          "name": "currencyCt",
          "type": "address"
        },
        {
          "name": "currencyId",
          "type": "uint256"
        }
      ],
      "name": "isLocked",
      "outputs": [
        {
          "name": "",
          "type": "bool"
        }
      ],
      "payable": false,
      "stateMutability": "view",
      "type": "function"
    },
    {
      "constant": true,
      "inputs": [
        {
          "name": "lockedWallet",
          "type": "address"
        },
        {
          "name": "lockerWallet",
          "type": "address"
        },
        {
          "name": "currencyCt",
          "type": "address"
        },
        {
          "name": "currencyId",
          "type": "uint256"
        }
      ],
      "name": "isLocked",
      "outputs": [
        {
          "name": "",
          "type": "bool"
        }
      ],
      "payable": false,
      "stateMutability": "view",
      "type": "function"
    }
  ],
  "bytecode": "0x608060405234801561001057600080fd5b506040516020806200395f83398101604052518080600160a060020a038116151561003a57600080fd5b600160a060020a03811630141561005057600080fd5b5060008054600160a060020a03909216610100810261010060a860020a031990931692909217905560018054600160a060020a0319169091179055506138c3806200009c6000396000f3006080604052600436106102635763ffffffff60e060020a60003504166301f3241f81146102685780630c5d24fa1461028b5780630d0440851461031157806317ba3f901461035357806319507d8a146103745780631e1fc7aa1461039557806320f7e31b146103bf5780632738a112146104155780632a4bc7621461042a5780632b5672e3146104545780632b879782146104bb5780632b91e0a9146104e55780632f013a00146105065780633143885d1461051b5780633b58c5011461054b5780633b7bea6c146105b2578063427e13a0146105c75780634476d23b1461064357806346c5c023146106745780634a4fbeec146106a45780634ddf63f6146106c557806350b08c02146106e657806353d3b39314610707578063570ca7351461073b57806357925b53146107505780635c3d8ebc146107775780635df1b0a3146107a7578063626dd6c31461080e578063627f09c31461083e57806362ac76211461085f57806362f1e6b3146108c6578063677ec9d6146108ed5780636c70bee91461091857806370327ea11461092d5780637953d64d146109425780637e15dd5c146109695780637f584f511461098157806384cfb4091461099657806387f8f8da146109c15780638a2f30cc146109f25780638e8cef1214610a595780639621473514610a7a5780639f45b2ab14610a9b578063a3e5175d14610acb578063b3959e8114610aec578063b3ab15fb14610b1d578063d5f3948814610b3e578063e167d4f614610b53578063e3d3e9fc14610b68578063e4d7f54d14610b92578063e96e48ea14610bed578063fb31154d14610c73578063fdd9ec7d14610ca3575b600080fd5b34801561027457600080fd5b50610289600160a060020a0360043516610cc4565b005b34801561029757600080fd5b5060408051602060046024803582810135601f81018590048502860185019096528585526102fd958335600160a060020a031695369560449491939091019190819084018382808284375094975050509235600160a060020a03169350610dc192505050565b604080519115158252519081900360200190f35b34801561031d57600080fd5b50610341600160a060020a0360043581169060243581169060443516606435610e2b565b60408051918252519081900360200190f35b34801561035f57600080fd5b506102fd600160a060020a0360043516610ebb565b34801561038057600080fd5b506102fd600160a060020a0360043516610ef3565b3480156103a157600080fd5b50610341600160a060020a0360043581169060243516604435610f08565b3480156103cb57600080fd5b506103e3600160a060020a0360043516602435610f2b565b60408051600160a060020a03958616815293909416602084015282840191909152606082015290519081900360800190f35b34801561042157600080fd5b50610289610f7c565b34801561043657600080fd5b50610341600160a060020a0360043581169060243516604435610fde565b34801561046057600080fd5b5060408051602060046024803582810135601f8101859004850286018501909652858552610289958335600160a060020a03169536956044949193909101919081908401838280828437509497506110019650505050505050565b3480156104c757600080fd5b506102fd600160a060020a036004358116906024351660443561119d565b3480156104f157600080fd5b506102fd600160a060020a036004351661120f565b34801561051257600080fd5b506102fd61122d565b34801561052757600080fd5b506102fd600160a060020a0360043581169060243581169060443516606435611236565b34801561055757600080fd5b5060408051602060046024803582810135601f8101859004850286018501909652858552610289958335600160a060020a03169536956044949193909101919081908401838280828437509497506112ba9650505050505050565b3480156105be57600080fd5b506103416113cf565b3480156105d357600080fd5b506040805160206004604435818101358381028086018501909652808552610289958335600160a060020a03908116966024803590921696369695606495929493019282918501908490808284375094975050508335600160a060020a03169450505060209091013590506113d5565b34801561064f57600080fd5b506106586117f2565b60408051600160a060020a039092168252519081900360200190f35b34801561068057600080fd5b50610289600160a060020a0360043581169060243581169060443516606435611807565b3480156106b057600080fd5b506102fd600160a060020a03600435166118da565b3480156106d157600080fd5b50610289600160a060020a0360043516611918565b3480156106f257600080fd5b50610289600160a060020a0360043516611a07565b34801561071357600080fd5b50610289600160a060020a036004358116906024358116906044359060643516608435611ac6565b34801561074757600080fd5b50610658611e38565b34801561075c57600080fd5b506102fd600160a060020a0360043581169060243516611e47565b34801561078357600080fd5b50610289600160a060020a0360043581169060243581169060443516606435611e9a565b3480156107b357600080fd5b5060408051602060046024803582810135601f81018590048502860185019096528585526102fd958335600160a060020a0316953695604494919390910191908190840183828082843750949750611fbc9650505050505050565b34801561081a57600080fd5b50610289600160a060020a036004358116906024358116906044351660643561200c565b34801561084a57600080fd5b50610289600160a060020a036004351661210e565b34801561086b57600080fd5b5060408051602060046024803582810135601f8101859004850286018501909652858552610289958335600160a060020a03169536956044949193909101919081908401838280828437509497506121bc9650505050505050565b3480156108d257600080fd5b506102fd600160a060020a0360043581169060243516612431565b3480156108f957600080fd5b506102fd600160a060020a036004358116906024359060443516612451565b34801561092457600080fd5b50610658612477565b34801561093957600080fd5b50610289612486565b34801561094e57600080fd5b506102fd600160a060020a03600435811690602435166124e4565b34801561097557600080fd5b50610289600435612504565b34801561098d57600080fd5b506102fd612552565b3480156109a257600080fd5b506102fd600160a060020a03600435811690602435906044351661255b565b3480156109cd57600080fd5b50610341600160a060020a036004358116906024358116906044359060643516612581565b3480156109fe57600080fd5b5060408051602060046024803582810135601f8101859004850286018501909652858552610289958335600160a060020a03169536956044949193909101919081908401838280828437509497506125ad9650505050505050565b348015610a6557600080fd5b50610289600160a060020a0360043516612720565b348015610a8657600080fd5b50610289600160a060020a03600435166127b6565b348015610aa757600080fd5b50610341600160a060020a0360043581169060243581169060443516606435612882565b348015610ad757600080fd5b50610289600160a060020a0360043516612912565b348015610af857600080fd5b50610341600160a060020a036004358116906024358116906044359060643516612aef565b348015610b2957600080fd5b50610289600160a060020a0360043516612b1b565b348015610b4a57600080fd5b50610658612bd8565b348015610b5f57600080fd5b50610289612bec565b348015610b7457600080fd5b50610341600160a060020a0360043581169060243516604435612c0e565b348015610b9e57600080fd5b50610bb6600160a060020a0360043516602435612c4b565b60408051600160a060020a039687168152949095166020850152838501929092526060830152608082015290519081900360a00190f35b348015610bf957600080fd5b50610c23600160a060020a036004358116906024358116906044351660643560843560a435612ca5565b60408051602080825283518183015283519192839290830191858101910280838360005b83811015610c5f578181015183820152602001610c47565b505050509050019250505060405180910390f35b348015610c7f57600080fd5b50610289600160a060020a0360043581169060243581169060443516606435612e81565b348015610caf57600080fd5b50610289600160a060020a0360043516612ff1565b80600160a060020a0381161515610cda57600080fd5b600160a060020a038116301415610cf057600080fd5b33600160a060020a0383161415610d0657600080fd5b600160a060020a03821660009081526003602052604090205460ff161515610d2d57600080fd5b600160a060020a03821660009081526006602052604090205460ff1615610d5357600080fd5b600160a060020a03821660008181526008602090815260408083203380855290835292819020805460ff1916600117905580519283529082019290925281517f7406a64e4e8c04b2a11d4cb484eb07cd5762012eafc449900b8d92de008ff27f929181900390910190a15050565b600080610dcd8461307b565b9050610dd98585611fbc565b8015610e225750610dea8584613145565b80610e225750600160a060020a03808616600090815260096020908152604080832085845282528083209387168352929052205460ff165b95945050505050565b600160a060020a038085166000908152600d60209081526040808320868516845282528083208584528252808320938716835292905290812054801515610e755760009150610eb2565b600160a060020a0386166000908152600c6020526040902080546000198301908110610e9d57fe5b90600052602060002090600502016003015491505b50949350505050565b6000610ec68261120f565b8015610eed5750600160a060020a0382166000908152600360205260409020600101544210155b92915050565b60066020526000908152604090205460ff1681565b600e60209081526000938452604080852082529284528284209052825290205481565b600f60205281600052604060002081815481101515610f4657fe5b60009182526020909120600590910201805460018201546002830154600490930154600160a060020a0392831695509116925084565b33610f856117f2565b600160a060020a031614610f9857600080fd5b60005460ff1615610fa857600080fd5b6040805133815290517f787a5d936e74f4b564b9153575886059829c78cd9927b1be5e0d976b317ef7369181900360200190a133ff5b601160209081526000938452604080852082529284528284209052825290205481565b600061100b61319c565b151561101657600080fd5b82600160a060020a038116151561102c57600080fd5b600160a060020a03811630141561104257600080fd5b600160a060020a03841660009081526003602052604090205460ff16151561106957600080fd5b6110728361307b565b600160a060020a038516600090815260036020908152604080832084845260020190915290205490925060ff16156110a957600080fd5b600160a060020a0384166000818152600360208181526040808420878552600281018352818520805460ff191660019081179091558484529301805493840181558452818420909201869055815193845283810182815287519285019290925286517fec1b982d69bfc1a6fd8becf191d9a633486c822d3bdedd52303ca81fa635750194899489949193919260608501928601918190849084905b8381101561115c578181015183820152602001611144565b50505050905090810190601f1680156111895780820380516001836020036101000a031916815260200191505b50935050505060405180910390a150505050565b600160a060020a038084166000908152600e6020908152604080832093861683529281528282208483529052908120548110806112075750600160a060020a0380851660009081526011602090815260408083209387168352928152828220858352905290812054115b949350505050565b600160a060020a031660009081526003602052604090205460ff1690565b60005460ff1681565b600160a060020a038085166000908152600d60209081526040808320868516845282528083208584528252808320938716835292905290812054811080610e22575050600160a060020a0393841660009081526010602090815260408083209487168352938152838220928252918252828120939094168452919091528120541190565b60006112c461319c565b15156112cf57600080fd5b82600160a060020a03811615156112e557600080fd5b600160a060020a0381163014156112fb57600080fd5b6113048361307b565b600160a060020a038516600090815260036020908152604080832084845260020190915290205490925060ff16151561133c57600080fd5b600160a060020a03841660008181526003602090815260408083208684526002018252808320805460ff19169055805193845283820181815287519185019190915286517f92f4af6130f47c92f3899e06611c8c6ef191fb81207ad2675d134af619d2fe7d948994899491939260608501928601918190849084908381101561115c578181015183820152602001611144565b60045481565b6000856113e23382611e47565b15156113ed57600080fd5b600160a060020a03878116908716141561140657600080fd5b600160a060020a0380881660008181526010602090815260408083209489168352938152838220878352815283822092825291909152205491508115806114865750600160a060020a0387166000908152600f602052604090208054600019840190811061147057fe5b9060005260206000209060050201600401544210155b151561149157600080fd5b81151561152357600160a060020a0387166000908152600f602052604090208054600101906114c090826136e4565b600160a060020a0380891660008181526010602090815260408083208a86168085529083528184208a85528352818420958d1684529482528083208690559282526011815282822093825292835281812087825290925290208054600101905591505b600160a060020a0387166000908152600f602052604090208054879190600019850190811061154e57fe5b600091825260208083206005929092029091018054600160a060020a031916600160a060020a039485161790559189168152600f909152604090208054869190600019850190811061159c57fe5b906000526020600020906005020160030190805190602001906115c0929190613710565b50600160a060020a0387166000908152600f60205260409020805485919060001985019081106115ec57fe5b600091825260208083206005929092029091016001018054600160a060020a031916600160a060020a039485161790559189168152600f909152604090208054849190600019850190811061163d57fe5b9060005260206000209060050201600201819055506116e1600260009054906101000a9004600160a060020a0316600160a060020a03166329ea3faa6040518163ffffffff1660e060020a028152600401602060405180830381600087803b1580156116a857600080fd5b505af11580156116bc573d6000803e3d6000fd5b505050506040513d60208110156116d257600080fd5b5051429063ffffffff6131b216565b600160a060020a0388166000908152600f602052604090208054600019850190811061170957fe5b9060005260206000209060050201600401819055507f515bb8252fa0ca493b0f245ec5fafea448cfd953cb28c1d2052608dab498a30687878787876040518086600160a060020a0316600160a060020a0316815260200185600160a060020a0316600160a060020a031681526020018060200184600160a060020a0316600160a060020a03168152602001838152602001828103825285818151815260200191508051906020019060200280838360005b838110156117d25781810151838201526020016117ba565b50505050905001965050505050505060405180910390a150505050505050565b6000546101009004600160a060020a03165b90565b600080856118153382611e47565b151561182057600080fd5b600160a060020a038088166000908152600d60209081526040808320898516845282528083208884528252808320938a16835292905220549250821515611866576118d1565b61187387878787876131c1565b60408051600160a060020a03808b168252808a166020830152818301849052881660608201526080810187905290519193507f44b1e687f96b503577e1a1adaac6273f07335848df94fe48e287f28c50963cbd919081900360a00190a15b50505050505050565b600160a060020a0381166000908152600c6020526040812054811080610eed575050600160a060020a03166000908152600f60205260408120541190565b61192061319c565b151561192b57600080fd5b80600160a060020a038116151561194157600080fd5b600160a060020a03811630141561195757600080fd5b60055460ff161561196757600080fd5b33600160a060020a038316141561197d57600080fd5b600160a060020a03821660009081526003602052604090205460ff1615156119a457600080fd5b600160a060020a038216600081815260066020908152604091829020805460ff1916600117905581513381529081019290925280517f81c5f2034d05958dd641755044582c0aba29a94070f0a2641bb554325328bf1e9281900390910190a15050565b611a0f61319c565b1515611a1a57600080fd5b80600160a060020a0381161515611a3057600080fd5b600160a060020a038116301415611a4657600080fd5b600160a060020a03821660009081526003602052604090205460ff161515611a6d57600080fd5b600160a060020a038216600081815260036020908152604091829020805460ff19169055815192835290517f777645c5437dfbf962f57a281ead25f3d513f2f8e938685bbfc1738e81c9880e9281900390910190a15050565b600085611ad33382611e47565b1515611ade57600080fd5b600160a060020a038781169087161415611af757600080fd5b600160a060020a038088166000818152600d60209081526040808320948916835293815283822087835281528382209282529190915220549150811580611b775750600160a060020a0387166000908152600c6020526040902080546000198401908110611b6157fe5b9060005260206000209060050201600401544210155b1515611b8257600080fd5b811515611c1457600160a060020a0387166000908152600c60205260409020805460010190611bb1908261375b565b600160a060020a038089166000818152600d602090815260408083208a86168085529083528184208a85528352818420958d168452948252808320869055928252600e815282822093825292835281812087825290925290208054600101905591505b600160a060020a0387166000908152600c6020526040902080548791906000198501908110611c3f57fe5b600091825260208083206005929092029091018054600160a060020a031916600160a060020a039485161790559189168152600c9091526040902080548691906000198501908110611c8d57fe5b90600052602060002090600502016003018190555083600c600089600160a060020a0316600160a060020a0316815260200190815260200160002060018403815481101515611cd857fe5b600091825260208083206005929092029091016001018054600160a060020a031916600160a060020a039485161790559189168152600c9091526040902080548491906000198501908110611d2957fe5b906000526020600020906005020160020181905550611d94600260009054906101000a9004600160a060020a0316600160a060020a03166329ea3faa6040518163ffffffff1660e060020a028152600401602060405180830381600087803b1580156116a857600080fd5b600160a060020a0388166000908152600c6020526040902080546000198501908110611dbc57fe5b60009182526020918290206004600590920201019190915560408051600160a060020a03808b168252808a1693820193909352808201889052918616606083015260808201859052517fab3f44ae7ae56e5f5d486bc2bb7c059d4667632234242b1da55b4941955bf89a9181900360a00190a150505050505050565b600154600160a060020a031681565b6000611e5283610ebb565b8015611e935750611e638383613145565b80611e935750600160a060020a0380841660009081526008602090815260408083209386168352929052205460ff165b9392505050565b6000606085611ea93382611e47565b1515611eb457600080fd5b600160a060020a038088166000908152601060209081526040808320898516845282528083208884528252808320938a16835292905220549250821515611efa576118d1565b611f0787878787876133f0565b91507fa9f3fc16d93b92d4a61e54a5baf769279629e1c34eca8fb084c91ee01c3f597487878488886040518086600160a060020a0316600160a060020a0316815260200185600160a060020a0316600160a060020a031681526020018060200184600160a060020a0316600160a060020a0316815260200183815260200182810382528581815181526020019150805190602001906020028083836000838110156117d25781810151838201526020016117ba565b600080611fc88361307b565b9050611fd384610ebb565b80156112075750600160a060020a038416600090815260036020908152604080832084845260020190915290205460ff16949350505050565b600160a060020a038085166000908152600d602090815260408083208685168452825280832085845282528083209387168352929052908120549081151561205357612106565b600160a060020a0386166000908152600c602052604090208054600019840190811061207b57fe5b906000526020600020906005020160040154421015151561209b57600080fd5b6120a886868686866131c1565b60408051600160a060020a03808a1682528089166020830152818301849052871660608201526080810186905290519192507f253a872f64b9f53c820b67f6d3a6046d4eb634aec6bf3686df304d1d894dbece919081900360a00190a15b505050505050565b600061211861319c565b151561212357600080fd5b81600160a060020a038116151561213957600080fd5b6002548390600160a060020a0390811690821681146121b55760028054600160a060020a03878116600160a060020a0319831681179093556040805191909216808252602082019390935281519296507f634f61bf00e14adedce330c80c2823e16e184f189ebe853e1ddecc4a268477ff929081900390910190a15b5050505050565b600082600160a060020a03811615156121d457600080fd5b600160a060020a0381163014156121ea57600080fd5b33600160a060020a038516141561220057600080fd5b6122098361307b565b600160a060020a03851660009081526003602052604090205490925060ff16801561225a5750600160a060020a038416600090815260036020908152604080832085845260020190915290205460ff165b151561226557600080fd5b600160a060020a03841660009081526006602052604090205460ff161561228b57600080fd5b600160a060020a038416600081815260086020908152604080832033808552908352818420805460ff19908116909155858552600984528285208886528452828520828652845282852080549091166001179055938352600a82528083208684528252808320938352929052205460ff16151561235e57600160a060020a0384166000818152600a60209081526040808320868452825280832033808552908352818420805460ff19166001908117909155948452600b8352818420908452825282208054938401815582529020018290555b7fc007803323f3ca89cb3f8af1a12f354dc108e9dd4988c312b3f7a878914987ce3385856040518084600160a060020a0316600160a060020a0316815260200183600160a060020a0316600160a060020a0316815260200180602001828103825283818151815260200191508051906020019080838360005b838110156123ef5781810151838201526020016123d7565b50505050905090810190601f16801561241c5780820380516001836020036101000a031916815260200191505b5094505050505060405180910390a150505050565b600760209081526000928352604080842090915290825290205460ff1681565b600a60209081526000938452604080852082529284528284209052825290205460ff1681565b600254600160a060020a031681565b3361248f6117f2565b600160a060020a0316146124a257600080fd5b6000805460ff191660011790556040805133815290517fd5a2a04a775c741c2ca0dc46ea7ce4835190e1aaf1ca018def0e82568ec336169181900360200190a1565b600860209081526000928352604080842090915290825290205460ff1681565b61250c61319c565b151561251757600080fd5b60048190556040805182815290517f4f1d324a1cbffc352fb64f1d73d95e4b200d92f99ef39bf2d7f5b41f946909d69181900360200190a150565b60055460ff1681565b600960209081526000938452604080852082529284528284209052825290205460ff1681565b601060209081526000948552604080862082529385528385208152918452828420909152825290205481565b600082600160a060020a03811615156125c557600080fd5b600160a060020a0381163014156125db57600080fd5b33600160a060020a03851614156125f157600080fd5b6125fa8361307b565b600160a060020a03851660009081526003602052604090205490925060ff16801561264b5750600160a060020a038416600090815260036020908152604080832085845260020190915290205460ff165b151561265657600080fd5b600160a060020a03841660009081526006602052604090205460ff161561267c57600080fd5b600160a060020a0384166000818152600960209081526040808320868452825280832033808552908352818420805460ff19169055815181815280840195909552606091850182815288519286019290925287517f6fa0cdb0b5c22004ccfcaee11eed450e0184dda8edd417ae2410f0a883fdb7409591948a948a9492608085019291860191819084908490838110156123ef5781810151838201526020016123d7565b61272861319c565b151561273357600080fd5b80600160a060020a038116151561274957600080fd5b600160a060020a03811630141561275f57600080fd5b61276b82600454613681565b60045460408051600160a060020a0385168152602081019290925280517f7f3a8349917003ed377f6e9ae1608b92edd893903f8983bd274b1f8373dd3b119281900390910190a15050565b60006127c061319c565b15156127cb57600080fd5b81600160a060020a03811615156127e157600080fd5b600160a060020a0381163014156127f757600080fd5b600054600160a060020a03848116610100909204161461287d5760008054600160a060020a0385811661010081810261010060a860020a0319851617909455604080519490930491909116808452602084019190915281519094507f977e5fa58e458501775e0008d275006294c5249e3c08d1d0e3a9f3acad14f6e49281900390910190a15b505050565b600160a060020a0380851660009081526010602090815260408083208685168452825280832085845282528083209387168352929052908120548015156128cc5760009150610eb2565b600160a060020a0386166000908152600f60205260409020805460001983019081106128f457fe5b60009182526020909120600360059092020101549695505050505050565b600081600160a060020a038116151561292a57600080fd5b600160a060020a03811630141561294057600080fd5b33600160a060020a038416141561295657600080fd5b600160a060020a03831660009081526003602052604090205460ff16151561297d57600080fd5b600160a060020a03831660009081526006602052604090205460ff16156129d157600160a060020a03831660009081526007602090815260408083203384529091529020805460ff19166001179055612aa7565b600160a060020a03831660009081526008602090815260408083203384529091528120805460ff1916905591505b600160a060020a0383166000908152600b60209081526040808320338452909152902054821015612aa757600160a060020a0383166000908152600960209081526040808320600b835281842033855290925282208054600193919086908110612a6557fe5b600091825260208083209190910154835282810193909352604091820181203382529092529020805460ff1916911515919091179055600191909101906129ff565b60408051338152600160a060020a038516602082015281517fe25d4094f2181ddef4410dcc1539a7488abd881a90c56078314b9f70affc5f7e929181900390910190a1505050565b600d60209081526000948552604080862082529385528385208152918452828420909152825290205481565b6000612b256136d3565b1515612b3057600080fd5b81600160a060020a0381161515612b4657600080fd5b600160a060020a038116301415612b5c57600080fd5b600154600160a060020a0384811691161461287d5760018054600160a060020a03858116600160a060020a0319831681179093556040805191909216808252602082019390935281519294507f9f611b789425d0d5b90b920f1b2852907dd865c80074a30b1629aaa041d1812c929081900390910190a1505050565b6000546101009004600160a060020a031681565b612bf461319c565b1515612bff57600080fd5b6005805460ff19166001179055565b600b60205282600052604060002060205281600052604060002081815481101515612c3557fe5b9060005260206000200160009250925050505481565b600c60205281600052604060002081815481101515612c6657fe5b600091825260209091206005909102018054600182015460028301546003840154600490940154600160a060020a039384169650929091169350919085565b600160a060020a0380871660009081526010602090815260408083208885168452825280832087845282528083209389168352929052908120546060918281831515612d055760408051600080825260208201909252905b509450612e73565b600160a060020a038b166000908152600f6020526040902080546000198601908110612d2d57fe5b90600052602060002090600502019250826003018054905060001415612d63576040805160008082526020820190925290612cfd565b60038301546040805160e060020a63700f1a770281526004810189905260001990920160248301525173__SafeMathUintLib_______________________9163700f1a77916044808301926020929190829003018186803b158015612dc757600080fd5b505af4158015612ddb573d6000803e3d6000fd5b505050506040513d6020811015612df157600080fd5b50516040805160018a84030180825260208181028301019092529197508015612e24578160200160208202803883390190505b5091508690505b858111612e6f5760038301805482908110612e4257fe5b906000526020600020015482888303815181101515612e5d57fe5b60209081029091010152600101612e2b565b8194505b505050509695505050505050565b600160a060020a038085166000908152601060209081526040808320868516845282528083208584528252808320938716835292905220546060811515612ec757612106565b600160a060020a0386166000908152600f6020526040902080546000198401908110612eef57fe5b9060005260206000209060050201600401544210151515612f0f57600080fd5b612f1c86868686866133f0565b90507f1c2e5f89e1a17f1b3417fcdee3681fe03ccae58dbca187a6c44c35438f62bb1786868387876040518086600160a060020a0316600160a060020a0316815260200185600160a060020a0316600160a060020a031681526020018060200184600160a060020a0316600160a060020a03168152602001838152602001828103825285818151815260200191508051906020019060200280838360005b83811015612fd2578181015183820152602001612fba565b50505050905001965050505050505060405180910390a1505050505050565b612ff961319c565b151561300457600080fd5b80600160a060020a038116151561301a57600080fd5b600160a060020a03811630141561303057600080fd5b61303b826000613681565b60408051600160a060020a038416815290517fb619d545cb511bd5f02907a1eac4f4cb8dace7b1846852fb0bf5e553937481c19181900360200190a15050565b6000816040516020018082805190602001908083835b602083106130b05780518252601f199092019160209182019101613091565b6001836020036101000a0380198251168184511680821785525050505050509050019150506040516020818303038152906040526040518082805190602001908083835b602083106131135780518252601f1990920191602091820191016130f4565b5181516020939093036101000a6000190180199091169216919091179052604051920182900390912095945050505050565b600160a060020a03821660009081526006602052604081205460ff1661316c576000611e93565b50600160a060020a03918216600090815260076020908152604080832093909416825291909152205460ff161590565b6000546101009004600160a060020a0316331490565b600082820183811015611e9357fe5b600160a060020a0385166000908152600c60205260408120805482919060001985019081106131ec57fe5b6000918252602080832060036005909302019190910154600160a060020a038a168352600c90915260409091205490915083101561335d57600160a060020a0387166000908152600c602052604090208054600019810190811061324c57fe5b9060005260206000209060050201600c600089600160a060020a0316600160a060020a031681526020019081526020016000206001850381548110151561328f57fe5b6000918252602080832084546005909302018054600160a060020a0319908116600160a060020a0394851617825560018087015490830180549092169085161790556002808601549082015560038086015490820155600494850154940193909355898116808352600d84526040808420928a1684529184528183208884528452818320908352600c909352812080548693929190600019850190811061333257fe5b60009182526020808320600590920290910154600160a060020a031683528201929092526040019020555b600160a060020a0387166000908152600c6020526040902080549061338690600019830161375b565b50600160a060020a039687166000818152600d60209081526040808320988b16808452988252808320888452825280832099909a168252978852888120819055908152600e8752878120958152948652868520938552929094525092902080546000190190555090565b600160a060020a0385166000908152600f6020526040902080546060918291600019850190811061341d57fe5b906000526020600020906005020160030180548060200260200160405190810160405280929190818152602001828054801561347857602002820191906000526020600020905b815481526020019060010190808311613464575b505050600160a060020a038a166000908152600f602052604090205492935050508310156135ee57600160a060020a0387166000908152600f60205260409020805460001981019081106134c857fe5b9060005260206000209060050201600f600089600160a060020a0316600160a060020a031681526020019081526020016000206001850381548110151561350b57fe5b6000918252602090912082546005909202018054600160a060020a03928316600160a060020a0319918216178255600180850154908301805491909416911617909155600280830154908201556003808301805461356c9284019190613787565b50600491820154910155600160a060020a038088166000818152601060209081526040808320948a1683529381528382208883528152838220928252600f905291822080548693919060001985019081106135c357fe5b60009182526020808320600590920290910154600160a060020a031683528201929092526040019020555b600160a060020a0387166000908152600f602052604090208054906136179060001983016136e4565b50600160a060020a039687166000818152601060209081526040808320988b16808452988252808320888452825280832099909a16825297885288812081905590815260118752878120958152948652868520938552929094525092902080546000190190555090565b600160a060020a03821660009081526003602052604090205460ff1615156136cf57600160a060020a0382166000908152600360205260409020805460ff1916600190811782554283019101555b5050565b600154600160a060020a0316331490565b81548183558181111561287d5760050281600502836000526020600020918201910161287d91906137c7565b82805482825590600052602060002090810192821561374b579160200282015b8281111561374b578251825591602001919060010190613730565b50613757929150613816565b5090565b81548183558181111561287d5760050281600502836000526020600020918201910161287d9190613830565b82805482825590600052602060002090810192821561374b5760005260206000209182015b8281111561374b5782548255916001019190600101906137ac565b61180491905b80821115613757578054600160a060020a0319908116825560018201805490911690556000600282018190556138066003830182613876565b50600060048201556005016137cd565b61180491905b80821115613757576000815560010161381c565b61180491905b80821115613757578054600160a060020a031990811682556001820180549091169055600060028201819055600382018190556004820155600501613836565b50805460008255906000526020600020908101906138949190613816565b505600a165627a7a723058203cddc37e7fb432dc1e67dd75756f6c117ca27f2f0349dec102fd34bad2d23ce10029",
  "source": "/*\n * Hubii Nahmii\n *\n * Compliant with the Hubii Nahmii specification v0.12.\n *\n * Copyright (C) 2017-2018 Hubii AS\n */\n\npragma solidity ^0.4.25;\n\nimport {Ownable} from \"./Ownable.sol\";\nimport {Configurable} from \"./Configurable.sol\";\nimport {AuthorizableServable} from \"./AuthorizableServable.sol\";\nimport {SafeMathUintLib} from \"./SafeMathUintLib.sol\";\n\n/**\n * @title Wallet locker\n * @notice An ownable to lock and unlock wallets' balance holdings of specific currency(ies)\n */\ncontract WalletLocker is Ownable, Configurable, AuthorizableServable {\n    using SafeMathUintLib for uint256;\n\n    //\n    // Structures\n    // -----------------------------------------------------------------------------------------------------------------\n    struct FungibleLock {\n        address locker;\n        address currencyCt;\n        uint256 currencyId;\n        int256 amount;\n        uint256 unlockTime;\n    }\n\n    struct NonFungibleLock {\n        address locker;\n        address currencyCt;\n        uint256 currencyId;\n        int256[] ids;\n        uint256 unlockTime;\n    }\n\n    //\n    // Variables\n    // -----------------------------------------------------------------------------------------------------------------\n    mapping(address => FungibleLock[]) public walletFungibleLocks;\n    mapping(address => mapping(address => mapping(uint256 => mapping(address => uint256)))) public lockedCurrencyLockerFungibleLockIndex;\n    mapping(address => mapping(address => mapping(uint256 => uint256))) public walletCurrencyFungibleLockCount;\n\n    mapping(address => NonFungibleLock[]) public walletNonFungibleLocks;\n    mapping(address => mapping(address => mapping(uint256 => mapping(address => uint256)))) public lockedCurrencyLockerNonFungibleLockIndex;\n    mapping(address => mapping(address => mapping(uint256 => uint256))) public walletCurrencyNonFungibleLockCount;\n\n    //\n    // Events\n    // -----------------------------------------------------------------------------------------------------------------\n    event LockFungibleByProxyEvent(address lockedWallet, address lockerWallet, int256 amount,\n        address currencyCt, uint256 currencyId);\n    event LockNonFungibleByProxyEvent(address lockedWallet, address lockerWallet, int256[] ids,\n        address currencyCt, uint256 currencyId);\n    event UnlockFungibleEvent(address lockedWallet, address lockerWallet, int256 amount, address currencyCt,\n        uint256 currencyId);\n    event UnlockFungibleByProxyEvent(address lockedWallet, address lockerWallet, int256 amount, address currencyCt,\n        uint256 currencyId);\n    event UnlockNonFungibleEvent(address lockedWallet, address lockerWallet, int256[] ids, address currencyCt,\n        uint256 currencyId);\n    event UnlockNonFungibleByProxyEvent(address lockedWallet, address lockerWallet, int256[] ids, address currencyCt,\n        uint256 currencyId);\n\n    //\n    // Constructor\n    // -----------------------------------------------------------------------------------------------------------------\n    constructor(address deployer) Ownable(deployer)\n    public\n    {\n    }\n\n    //\n    // Functions\n    // -----------------------------------------------------------------------------------------------------------------\n\n    /// @notice Lock the given locked wallet's fungible amount of currency on behalf of the given locker wallet\n    /// @param lockedWallet The address of wallet that will be locked\n    /// @param lockerWallet The address of wallet that locks\n    /// @param amount The amount to be locked\n    /// @param currencyCt The address of the concerned currency contract (address(0) == ETH)\n    /// @param currencyId The ID of the concerned currency (0 for ETH and ERC20)\n    function lockFungibleByProxy(address lockedWallet, address lockerWallet, int256 amount,\n        address currencyCt, uint256 currencyId)\n    public\n    onlyAuthorizedService(lockedWallet)\n    {\n        // Require that locked and locker wallets are not identical\n        require(lockedWallet != lockerWallet);\n\n        // Get index of lock\n        uint256 lockIndex = lockedCurrencyLockerFungibleLockIndex[lockedWallet][currencyCt][currencyId][lockedWallet];\n\n        // Require that there is no existing conflicting lock\n        require(\n            (0 == lockIndex) ||\n            (block.timestamp >= walletFungibleLocks[lockedWallet][lockIndex - 1].unlockTime)\n        );\n\n        // Add lock object for this triplet of locked wallet, currency and locker wallet if it does not exist\n        if (0 == lockIndex) {\n            lockIndex = ++(walletFungibleLocks[lockedWallet].length);\n            lockedCurrencyLockerFungibleLockIndex[lockedWallet][currencyCt][currencyId][lockerWallet] = lockIndex;\n            walletCurrencyFungibleLockCount[lockedWallet][currencyCt][currencyId]++;\n        }\n\n        // Update lock parameters\n        walletFungibleLocks[lockedWallet][lockIndex - 1].locker = lockerWallet;\n        walletFungibleLocks[lockedWallet][lockIndex - 1].amount = amount;\n        walletFungibleLocks[lockedWallet][lockIndex - 1].currencyCt = currencyCt;\n        walletFungibleLocks[lockedWallet][lockIndex - 1].currencyId = currencyId;\n        walletFungibleLocks[lockedWallet][lockIndex - 1].unlockTime =\n        block.timestamp.add(configuration.walletLockTimeout());\n\n        // Emit event\n        emit LockFungibleByProxyEvent(lockedWallet, lockerWallet, amount, currencyCt, currencyId);\n    }\n\n    /// @notice Lock the given locked wallet's non-fungible IDs of currency on behalf of the given locker wallet\n    /// @param lockedWallet The address of wallet that will be locked\n    /// @param lockerWallet The address of wallet that locks\n    /// @param ids The IDs to be locked\n    /// @param currencyCt The address of the concerned currency contract (address(0) == ETH)\n    /// @param currencyId The ID of the concerned currency (0 for ETH and ERC20)\n    function lockNonFungibleByProxy(address lockedWallet, address lockerWallet, int256[] ids,\n        address currencyCt, uint256 currencyId)\n    public\n    onlyAuthorizedService(lockedWallet)\n    {\n        // Require that locked and locker wallets are not identical\n        require(lockedWallet != lockerWallet);\n\n        // Get index of lock\n        uint256 lockIndex = lockedCurrencyLockerNonFungibleLockIndex[lockedWallet][currencyCt][currencyId][lockedWallet];\n\n        // Require that there is no existing conflicting lock\n        require(\n            (0 == lockIndex) ||\n            (block.timestamp >= walletNonFungibleLocks[lockedWallet][lockIndex - 1].unlockTime)\n        );\n\n        // Add lock object for this triplet of locked wallet, currency and locker wallet if it does not exist\n        if (0 == lockIndex) {\n            lockIndex = ++(walletNonFungibleLocks[lockedWallet].length);\n            lockedCurrencyLockerNonFungibleLockIndex[lockedWallet][currencyCt][currencyId][lockerWallet] = lockIndex;\n            walletCurrencyNonFungibleLockCount[lockedWallet][currencyCt][currencyId]++;\n        }\n\n        // Update lock parameters\n        walletNonFungibleLocks[lockedWallet][lockIndex - 1].locker = lockerWallet;\n        walletNonFungibleLocks[lockedWallet][lockIndex - 1].ids = ids;\n        walletNonFungibleLocks[lockedWallet][lockIndex - 1].currencyCt = currencyCt;\n        walletNonFungibleLocks[lockedWallet][lockIndex - 1].currencyId = currencyId;\n        walletNonFungibleLocks[lockedWallet][lockIndex - 1].unlockTime =\n        block.timestamp.add(configuration.walletLockTimeout());\n\n        // Emit event\n        emit LockNonFungibleByProxyEvent(lockedWallet, lockerWallet, ids, currencyCt, currencyId);\n    }\n\n    /// @notice Unlock the given locked wallet's fungible amount of currency previously\n    /// locked by the given locker wallet\n    /// @param lockedWallet The address of the locked wallet\n    /// @param lockerWallet The address of the locker wallet\n    /// @param currencyCt The address of the concerned currency contract (address(0) == ETH)\n    /// @param currencyId The ID of the concerned currency (0 for ETH and ERC20)\n    function unlockFungible(address lockedWallet, address lockerWallet, address currencyCt, uint256 currencyId)\n    public\n    {\n        // Get index of lock\n        uint256 lockIndex = lockedCurrencyLockerFungibleLockIndex[lockedWallet][currencyCt][currencyId][lockerWallet];\n\n        // Return if no lock exists\n        if (0 == lockIndex)\n            return;\n\n        // Require that unlock timeout has expired\n        require(\n            block.timestamp >= walletFungibleLocks[lockedWallet][lockIndex - 1].unlockTime\n        );\n\n        // Unlock\n        int256 amount = _unlockFungible(lockedWallet, lockerWallet, currencyCt, currencyId, lockIndex);\n\n        // Emit event\n        emit UnlockFungibleEvent(lockedWallet, lockerWallet, amount, currencyCt, currencyId);\n    }\n\n    /// @notice Unlock by proxy the given locked wallet's fungible amount of currency previously\n    /// locked by the given locker wallet\n    /// @param lockedWallet The address of the locked wallet\n    /// @param lockerWallet The address of the locker wallet\n    /// @param currencyCt The address of the concerned currency contract (address(0) == ETH)\n    /// @param currencyId The ID of the concerned currency (0 for ETH and ERC20)\n    function unlockFungibleByProxy(address lockedWallet, address lockerWallet, address currencyCt, uint256 currencyId)\n    public\n    onlyAuthorizedService(lockedWallet)\n    {\n        // Get index of lock\n        uint256 lockIndex = lockedCurrencyLockerFungibleLockIndex[lockedWallet][currencyCt][currencyId][lockerWallet];\n\n        // Return if no lock exists\n        if (0 == lockIndex)\n            return;\n\n        // Unlock\n        int256 amount = _unlockFungible(lockedWallet, lockerWallet, currencyCt, currencyId, lockIndex);\n\n        // Emit event\n        emit UnlockFungibleByProxyEvent(lockedWallet, lockerWallet, amount, currencyCt, currencyId);\n    }\n\n    /// @notice Unlock the given locked wallet's non-fungible IDs of currency previously\n    /// locked by the given locker wallet\n    /// @param lockedWallet The address of the locked wallet\n    /// @param lockerWallet The address of the locker wallet\n    /// @param currencyCt The address of the concerned currency contract (address(0) == ETH)\n    /// @param currencyId The ID of the concerned currency (0 for ETH and ERC20)\n    function unlockNonFungible(address lockedWallet, address lockerWallet, address currencyCt, uint256 currencyId)\n    public\n    {\n        // Get index of lock\n        uint256 lockIndex = lockedCurrencyLockerNonFungibleLockIndex[lockedWallet][currencyCt][currencyId][lockerWallet];\n\n        // Return if no lock exists\n        if (0 == lockIndex)\n            return;\n\n        // Require that unlock timeout has expired\n        require(\n            block.timestamp >= walletNonFungibleLocks[lockedWallet][lockIndex - 1].unlockTime\n        );\n\n        // Unlock\n        int256[] memory ids = _unlockNonFungible(lockedWallet, lockerWallet, currencyCt, currencyId, lockIndex);\n\n        // Emit event\n        emit UnlockNonFungibleEvent(lockedWallet, lockerWallet, ids, currencyCt, currencyId);\n    }\n\n    /// @notice Unlock by proxy the given locked wallet's non-fungible IDs of currency previously\n    /// locked by the given locker wallet\n    /// @param lockedWallet The address of the locked wallet\n    /// @param lockerWallet The address of the locker wallet\n    /// @param currencyCt The address of the concerned currency contract (address(0) == ETH)\n    /// @param currencyId The ID of the concerned currency (0 for ETH and ERC20)\n    function unlockNonFungibleByProxy(address lockedWallet, address lockerWallet, address currencyCt, uint256 currencyId)\n    public\n    onlyAuthorizedService(lockedWallet)\n    {\n        // Get index of lock\n        uint256 lockIndex = lockedCurrencyLockerNonFungibleLockIndex[lockedWallet][currencyCt][currencyId][lockerWallet];\n\n        // Return if no lock exists\n        if (0 == lockIndex)\n            return;\n\n        // Unlock\n        int256[] memory ids = _unlockNonFungible(lockedWallet, lockerWallet, currencyCt, currencyId, lockIndex);\n\n        // Emit event\n        emit UnlockNonFungibleByProxyEvent(lockedWallet, lockerWallet, ids, currencyCt, currencyId);\n    }\n\n    /// @notice Get the fungible amount of the given currency held by locked wallet that is\n    /// locked by locker wallet\n    /// @param lockedWallet The address of the locked wallet\n    /// @param lockerWallet The address of the locker wallet\n    /// @param currencyCt The address of the concerned currency contract (address(0) == ETH)\n    /// @param currencyId The ID of the concerned currency (0 for ETH and ERC20)\n    function lockedAmount(address lockedWallet, address lockerWallet, address currencyCt, uint256 currencyId)\n    public\n    view\n    returns (int256)\n    {\n        uint256 lockIndex = lockedCurrencyLockerFungibleLockIndex[lockedWallet][currencyCt][currencyId][lockerWallet];\n\n        if (0 == lockIndex)\n            return 0;\n\n        return walletFungibleLocks[lockedWallet][lockIndex - 1].amount;\n    }\n\n    /// @notice Get the count of non-fungible IDs of the given currency held by locked wallet that is\n    /// locked by locker wallet\n    /// @param lockedWallet The address of the locked wallet\n    /// @param lockerWallet The address of the locker wallet\n    /// @param currencyCt The address of the concerned currency contract (address(0) == ETH)\n    /// @param currencyId The ID of the concerned currency (0 for ETH and ERC20)\n    function lockedIdsCount(address lockedWallet, address lockerWallet, address currencyCt, uint256 currencyId)\n    public\n    view\n    returns (uint256)\n    {\n        uint256 lockIndex = lockedCurrencyLockerNonFungibleLockIndex[lockedWallet][currencyCt][currencyId][lockerWallet];\n\n        if (0 == lockIndex)\n            return 0;\n\n        return walletNonFungibleLocks[lockedWallet][lockIndex - 1].ids.length;\n    }\n\n    /// @notice Get the set of non-fungible IDs of the given currency held by locked wallet that is\n    /// locked by locker wallet and whose indices are in the given range of indices\n    /// @param lockedWallet The address of the locked wallet\n    /// @param lockerWallet The address of the locker wallet\n    /// @param currencyCt The address of the concerned currency contract (address(0) == ETH)\n    /// @param currencyId The ID of the concerned currency (0 for ETH and ERC20)\n    /// @param low The lower ID index\n    /// @param up The upper ID index\n    function lockedIdsByIndices(address lockedWallet, address lockerWallet, address currencyCt, uint256 currencyId,\n        uint256 low, uint256 up)\n    public\n    view\n    returns (int256[])\n    {\n        uint256 lockIndex = lockedCurrencyLockerNonFungibleLockIndex[lockedWallet][currencyCt][currencyId][lockerWallet];\n\n        if (0 == lockIndex)\n            return new int256[](0);\n\n        NonFungibleLock storage lock = walletNonFungibleLocks[lockedWallet][lockIndex - 1];\n\n        if (0 == lock.ids.length)\n            return new int256[](0);\n\n        up = up.clampMax(lock.ids.length - 1);\n        int256[] memory _ids = new int256[](up - low + 1);\n        for (uint256 i = low; i <= up; i++)\n            _ids[i - low] = lock.ids[i];\n\n        return _ids;\n    }\n\n    /// @notice Gauge whether the given wallet is locked\n    /// @param wallet The address of the concerned wallet\n    /// @return true if wallet is locked, else false\n    function isLocked(address wallet)\n    public\n    view\n    returns (bool)\n    {\n        return 0 < walletFungibleLocks[wallet].length ||\n        0 < walletNonFungibleLocks[wallet].length;\n    }\n\n    /// @notice Gauge whether the given wallet and currency is locked\n    /// @param wallet The address of the concerned wallet\n    /// @param currencyCt The address of the concerned currency contract (address(0) == ETH)\n    /// @param currencyId The ID of the concerned currency (0 for ETH and ERC20)\n    /// @return true if wallet/currency pair is locked, else false\n    function isLocked(address wallet, address currencyCt, uint256 currencyId)\n    public\n    view\n    returns (bool)\n    {\n        return 0 < walletCurrencyFungibleLockCount[wallet][currencyCt][currencyId] ||\n        0 < walletCurrencyNonFungibleLockCount[wallet][currencyCt][currencyId];\n    }\n\n    /// @notice Gauge whether the given locked wallet and currency is locked by the given locker wallet\n    /// @param lockedWallet The address of the concerned locked wallet\n    /// @param lockerWallet The address of the concerned locker wallet\n    /// @return true if lockedWallet is locked by lockerWallet, else false\n    function isLocked(address lockedWallet, address lockerWallet, address currencyCt, uint256 currencyId)\n    public\n    view\n    returns (bool)\n    {\n        return 0 < lockedCurrencyLockerFungibleLockIndex[lockedWallet][currencyCt][currencyId][lockerWallet] ||\n        0 < lockedCurrencyLockerNonFungibleLockIndex[lockedWallet][currencyCt][currencyId][lockerWallet];\n    }\n\n    //\n    //\n    // Private functions\n    // -----------------------------------------------------------------------------------------------------------------\n    function _unlockFungible(address lockedWallet, address lockerWallet, address currencyCt, uint256 currencyId, uint256 lockIndex)\n    private\n    returns (int256)\n    {\n        int256 amount = walletFungibleLocks[lockedWallet][lockIndex - 1].amount;\n\n        if (lockIndex < walletFungibleLocks[lockedWallet].length) {\n            walletFungibleLocks[lockedWallet][lockIndex - 1] =\n            walletFungibleLocks[lockedWallet][walletFungibleLocks[lockedWallet].length - 1];\n\n            lockedCurrencyLockerFungibleLockIndex[lockedWallet][currencyCt][currencyId][walletFungibleLocks[lockedWallet][lockIndex - 1].locker] = lockIndex;\n        }\n        walletFungibleLocks[lockedWallet].length--;\n\n        lockedCurrencyLockerFungibleLockIndex[lockedWallet][currencyCt][currencyId][lockerWallet] = 0;\n\n        walletCurrencyFungibleLockCount[lockedWallet][currencyCt][currencyId]--;\n\n        return amount;\n    }\n\n    function _unlockNonFungible(address lockedWallet, address lockerWallet, address currencyCt, uint256 currencyId, uint256 lockIndex)\n    private\n    returns (int256[])\n    {\n        int256[] memory ids = walletNonFungibleLocks[lockedWallet][lockIndex - 1].ids;\n\n        if (lockIndex < walletNonFungibleLocks[lockedWallet].length) {\n            walletNonFungibleLocks[lockedWallet][lockIndex - 1] =\n            walletNonFungibleLocks[lockedWallet][walletNonFungibleLocks[lockedWallet].length - 1];\n\n            lockedCurrencyLockerNonFungibleLockIndex[lockedWallet][currencyCt][currencyId][walletNonFungibleLocks[lockedWallet][lockIndex - 1].locker] = lockIndex;\n        }\n        walletNonFungibleLocks[lockedWallet].length--;\n\n        lockedCurrencyLockerNonFungibleLockIndex[lockedWallet][currencyCt][currencyId][lockerWallet] = 0;\n\n        walletCurrencyNonFungibleLockCount[lockedWallet][currencyCt][currencyId]--;\n\n        return ids;\n    }\n}",
  "sourcePath": "/opt/buildagent/work/855e104608380c36/contracts/WalletLocker.sol",
  "compiler": {
    "name": "solc",
    "version": "0.4.25+commit.59dbf8f1.Emscripten.clang"
  },
  "schemaVersion": "2.0.1",
  "updatedAt": "2019-01-31T11:28:30.104Z"
}